{
  "_format": "hh-sol-artifact-1",
  "contractName": "MockSwapHelperSubscriber",
  "sourceName": "contracts/mock/MockSwapHelperSubscriber.sol",
  "abi": [
    {
      "anonymous": false,
      "inputs": [
        {
          "indexed": true,
          "internalType": "address",
          "name": "src",
          "type": "address"
        },
        {
          "indexed": true,
          "internalType": "address",
          "name": "dst",
          "type": "address"
        },
        {
          "indexed": true,
          "internalType": "uint256",
          "name": "amountOut",
          "type": "uint256"
        },
        {
          "indexed": false,
          "internalType": "uint256",
          "name": "amountIn",
          "type": "uint256"
        }
      ],
      "name": "Notified",
      "type": "event"
    },
    {
      "inputs": [
        {
          "internalType": "address",
          "name": "src",
          "type": "address"
        },
        {
          "internalType": "address",
          "name": "dst",
          "type": "address"
        },
        {
          "internalType": "uint256",
          "name": "amountOut",
          "type": "uint256"
        },
        {
          "internalType": "uint256",
          "name": "amountIn",
          "type": "uint256"
        }
      ],
      "name": "notify",
      "outputs": [],
      "stateMutability": "nonpayable",
      "type": "function"
    }
  ],
  "bytecode": "0x608080604052346100155760c6908161001b8239f35b600080fdfe6080806040526004361015601257600080fd5b600090813560e01c63b91dc4bb14602857600080fd5b34608c576080366003190112608c576001600160a01b036004358181169081900360885760243591821680920360885760643583527f9b2db766e04dc7ee1cc19d1415531ad5b3fd566db4f745d9a8ad51e3d3fe1bd7602060443594a480f35b8380fd5b5080fdfea2646970667358221220d749466d4f1f352c862f9a326d99c991959de8b3959b78ed2cfbcb49f5a2539164736f6c63430008130033",
  "linkReferences": {},
  "deployedLinkReferences": {}
}