{
  "_format": "hh-sol-artifact-1",
  "contractName": "MockSwapHelperSubscriber",
  "sourceName": "contracts/mock/MockSwapHelperSubscriber.sol",
  "abi": [
    {
      "anonymous": false,
      "inputs": [
        {
          "indexed": true,
          "internalType": "bytes",
          "name": "lowLevelErrorData",
          "type": "bytes"
        }
      ],
      "name": "EmergencyQuoteOnAlternativeDEX",
      "type": "event"
    },
    {
      "anonymous": false,
      "inputs": [
        {
          "indexed": true,
          "internalType": "bytes",
          "name": "lowLevelErrorData",
          "type": "bytes"
        }
      ],
      "name": "EmergencySwapOnAlternativeDEX",
      "type": "event"
    },
    {
      "anonymous": false,
      "inputs": [
        {
          "indexed": false,
          "internalType": "uint8",
          "name": "version",
          "type": "uint8"
        }
      ],
      "name": "Initialized",
      "type": "event"
    },
    {
      "anonymous": false,
      "inputs": [
        {
          "indexed": true,
          "internalType": "address",
          "name": "src",
          "type": "address"
        },
        {
          "indexed": true,
          "internalType": "address",
          "name": "dst",
          "type": "address"
        },
        {
          "indexed": true,
          "internalType": "uint256",
          "name": "amountOut",
          "type": "uint256"
        },
        {
          "indexed": false,
          "internalType": "uint256",
          "name": "amountIn",
          "type": "uint256"
        }
      ],
      "name": "MockNotified",
      "type": "event"
    },
    {
      "anonymous": false,
      "inputs": [
        {
          "indexed": true,
          "internalType": "address",
          "name": "src",
          "type": "address"
        },
        {
          "indexed": true,
          "internalType": "address",
          "name": "dst",
          "type": "address"
        },
        {
          "indexed": true,
          "internalType": "uint256",
          "name": "amountOut",
          "type": "uint256"
        },
        {
          "indexed": false,
          "internalType": "uint256",
          "name": "amountIn",
          "type": "uint256"
        }
      ],
      "name": "Notified",
      "type": "event"
    },
    {
      "anonymous": false,
      "inputs": [
        {
          "indexed": true,
          "internalType": "address",
          "name": "src",
          "type": "address"
        },
        {
          "indexed": true,
          "internalType": "address",
          "name": "dst",
          "type": "address"
        },
        {
          "indexed": true,
          "internalType": "uint256",
          "name": "amount",
          "type": "uint256"
        }
      ],
      "name": "Quote",
      "type": "event"
    },
    {
      "anonymous": false,
      "inputs": [
        {
          "indexed": true,
          "internalType": "bytes32",
          "name": "role",
          "type": "bytes32"
        },
        {
          "indexed": true,
          "internalType": "bytes32",
          "name": "previousAdminRole",
          "type": "bytes32"
        },
        {
          "indexed": true,
          "internalType": "bytes32",
          "name": "newAdminRole",
          "type": "bytes32"
        }
      ],
      "name": "RoleAdminChanged",
      "type": "event"
    },
    {
      "anonymous": false,
      "inputs": [
        {
          "indexed": true,
          "internalType": "bytes32",
          "name": "role",
          "type": "bytes32"
        },
        {
          "indexed": true,
          "internalType": "address",
          "name": "account",
          "type": "address"
        },
        {
          "indexed": true,
          "internalType": "address",
          "name": "sender",
          "type": "address"
        }
      ],
      "name": "RoleGranted",
      "type": "event"
    },
    {
      "anonymous": false,
      "inputs": [
        {
          "indexed": true,
          "internalType": "bytes32",
          "name": "role",
          "type": "bytes32"
        },
        {
          "indexed": true,
          "internalType": "address",
          "name": "account",
          "type": "address"
        },
        {
          "indexed": true,
          "internalType": "address",
          "name": "sender",
          "type": "address"
        }
      ],
      "name": "RoleRevoked",
      "type": "event"
    },
    {
      "anonymous": false,
      "inputs": [
        {
          "indexed": true,
          "internalType": "address",
          "name": "src",
          "type": "address"
        },
        {
          "indexed": true,
          "internalType": "address",
          "name": "dst",
          "type": "address"
        },
        {
          "indexed": true,
          "internalType": "uint256",
          "name": "amount",
          "type": "uint256"
        }
      ],
      "name": "Swap",
      "type": "event"
    },
    {
      "inputs": [],
      "name": "DEFAULT_ADMIN_ROLE",
      "outputs": [
        {
          "internalType": "bytes32",
          "name": "",
          "type": "bytes32"
        }
      ],
      "stateMutability": "view",
      "type": "function"
    },
    {
      "inputs": [],
      "name": "QUOTE_OPERATION_PROVIDER",
      "outputs": [
        {
          "internalType": "bytes32",
          "name": "",
          "type": "bytes32"
        }
      ],
      "stateMutability": "view",
      "type": "function"
    },
    {
      "inputs": [
        {
          "internalType": "bytes32",
          "name": "role",
          "type": "bytes32"
        }
      ],
      "name": "getRoleAdmin",
      "outputs": [
        {
          "internalType": "bytes32",
          "name": "",
          "type": "bytes32"
        }
      ],
      "stateMutability": "view",
      "type": "function"
    },
    {
      "inputs": [
        {
          "internalType": "bytes32",
          "name": "role",
          "type": "bytes32"
        },
        {
          "internalType": "address",
          "name": "account",
          "type": "address"
        }
      ],
      "name": "grantRole",
      "outputs": [],
      "stateMutability": "nonpayable",
      "type": "function"
    },
    {
      "inputs": [
        {
          "internalType": "bytes32",
          "name": "role",
          "type": "bytes32"
        },
        {
          "internalType": "address",
          "name": "account",
          "type": "address"
        }
      ],
      "name": "hasRole",
      "outputs": [
        {
          "internalType": "bool",
          "name": "",
          "type": "bool"
        }
      ],
      "stateMutability": "view",
      "type": "function"
    },
    {
      "inputs": [
        {
          "internalType": "address",
          "name": "src",
          "type": "address"
        },
        {
          "internalType": "address",
          "name": "dst",
          "type": "address"
        },
        {
          "internalType": "uint256",
          "name": "amountOut",
          "type": "uint256"
        },
        {
          "internalType": "uint256",
          "name": "amountIn",
          "type": "uint256"
        }
      ],
      "name": "notifyCallback",
      "outputs": [],
      "stateMutability": "nonpayable",
      "type": "function"
    },
    {
      "inputs": [
        {
          "internalType": "bytes32",
          "name": "role",
          "type": "bytes32"
        },
        {
          "internalType": "address",
          "name": "account",
          "type": "address"
        }
      ],
      "name": "renounceRole",
      "outputs": [],
      "stateMutability": "nonpayable",
      "type": "function"
    },
    {
      "inputs": [
        {
          "internalType": "bytes32",
          "name": "role",
          "type": "bytes32"
        },
        {
          "internalType": "address",
          "name": "account",
          "type": "address"
        }
      ],
      "name": "revokeRole",
      "outputs": [],
      "stateMutability": "nonpayable",
      "type": "function"
    },
    {
      "inputs": [
        {
          "internalType": "bytes4",
          "name": "interfaceId",
          "type": "bytes4"
        }
      ],
      "name": "supportsInterface",
      "outputs": [
        {
          "internalType": "bool",
          "name": "",
          "type": "bool"
        }
      ],
      "stateMutability": "view",
      "type": "function"
    }
  ],
  "bytecode": "0x608060405234801561001057600080fd5b5061083f806100206000396000f3fe608060405234801561001057600080fd5b50600436106100835760003560e01c806301ffc9a714610088578063237ea53f146100b0578063248a9ca3146100e55780632f2ff15d146100f857806336568abe1461010d57806391d1485414610120578063a217fddf14610133578063d547741f1461013b578063f056dffe1461014e575b600080fd5b61009b6100963660046105f3565b610161565b60405190151581526020015b60405180910390f35b6100d77f6d1efadb607420c71e8f966ae6611a2b817ec83a98f82ae24284fd004cf9d40c81565b6040519081526020016100a7565b6100d76100f336600461061d565b610198565b61010b610106366004610652565b6101ad565b005b61010b61011b366004610652565b6101ce565b61009b61012e366004610652565b610251565b6100d7600081565b61010b610149366004610652565b61027c565b61010b61015c36600461067e565b610298565b60006001600160e01b03198216637965db0b60e01b148061019257506301ffc9a760e01b6001600160e01b03198316145b92915050565b60009081526065602052604090206001015490565b6101b682610198565b6101bf816102ec565b6101c983836102f9565b505050565b6001600160a01b03811633146102435760405162461bcd60e51b815260206004820152602f60248201527f416363657373436f6e74726f6c3a2063616e206f6e6c792072656e6f756e636560448201526e103937b632b9903337b91039b2b63360891b60648201526084015b60405180910390fd5b61024d828261037f565b5050565b60009182526065602090815260408084206001600160a01b0393909316845291905290205460ff1690565b61028582610198565b61028e816102ec565b6101c9838361037f565b81836001600160a01b0316856001600160a01b03167fa41fead51e95aa8ef7b9b8a86ce16608cc6288de4e973499e58730ab995bdb65846040516102de91815260200190565b60405180910390a450505050565b6102f681336103e6565b50565b6103038282610251565b61024d5760008281526065602090815260408083206001600160a01b03851684529091529020805460ff1916600117905561033b3390565b6001600160a01b0316816001600160a01b0316837f2f8788117e7eff1d82e926ec794901d17c78024a50270940304540a733656f0d60405160405180910390a45050565b6103898282610251565b1561024d5760008281526065602090815260408083206001600160a01b0385168085529252808320805460ff1916905551339285917ff6391f5c32d9c69d2a47ea670b442974b53935d1edc7fd64eb21e047a839171b9190a45050565b6103f08282610251565b61024d576103fd8161043f565b610408836020610451565b6040516020016104199291906106e4565b60408051601f198184030181529082905262461bcd60e51b825261023a91600401610753565b60606101926001600160a01b03831660145b6060600061046083600261079c565b61046b9060026107b3565b6001600160401b03811115610482576104826107c6565b6040519080825280601f01601f1916602001820160405280156104ac576020820181803683370190505b509050600360fc1b816000815181106104c7576104c76107dc565b60200101906001600160f81b031916908160001a905350600f60fb1b816001815181106104f6576104f66107dc565b60200101906001600160f81b031916908160001a905350600061051a84600261079c565b6105259060016107b3565b90505b600181111561059d576f181899199a1a9b1b9c1cb0b131b232b360811b85600f1660108110610559576105596107dc565b1a60f81b82828151811061056f5761056f6107dc565b60200101906001600160f81b031916908160001a90535060049490941c93610596816107f2565b9050610528565b5083156105ec5760405162461bcd60e51b815260206004820181905260248201527f537472696e67733a20686578206c656e67746820696e73756666696369656e74604482015260640161023a565b9392505050565b60006020828403121561060557600080fd5b81356001600160e01b0319811681146105ec57600080fd5b60006020828403121561062f57600080fd5b5035919050565b80356001600160a01b038116811461064d57600080fd5b919050565b6000806040838503121561066557600080fd5b8235915061067560208401610636565b90509250929050565b6000806000806080858703121561069457600080fd5b61069d85610636565b93506106ab60208601610636565b93969395505050506040820135916060013590565b60005b838110156106db5781810151838201526020016106c3565b50506000910152565b76020b1b1b2b9b9a1b7b73a3937b61d1030b1b1b7bab73a1604d1b8152600083516107168160178501602088016106c0565b7001034b99036b4b9b9b4b733903937b6329607d1b60179184019182015283516107478160288401602088016106c0565b01602801949350505050565b60208152600082518060208401526107728160408501602087016106c0565b601f01601f19169190910160400192915050565b634e487b7160e01b600052601160045260246000fd5b808202811582820484141761019257610192610786565b8082018082111561019257610192610786565b634e487b7160e01b600052604160045260246000fd5b634e487b7160e01b600052603260045260246000fd5b60008161080157610801610786565b50600019019056fea2646970667358221220597718d8e0d7b3898d31b38c3a4c5b70754c58db33aa2292172e374d2d3a2f3764736f6c63430008130033",
  "linkReferences": {},
  "deployedLinkReferences": {}
}