{"contracts/utils/SwapHelper.sol":{"SwapHelper":{"abi":[{"inputs":[{"internalType":"uint256","name":"_quoteJobFee","type":"uint256"},{"internalType":"uint256","name":"_swapCalldataJobFee","type":"uint256"},{"internalType":"address","name":"_strategist","type":"address"},{"internalType":"address","name":"_aggregationRouter","type":"address"},{"internalType":"address","name":"chainlinkTokenAddress","type":"address"},{"internalType":"address","name":"chainlinkOracleAddress","type":"address"},{"internalType":"string","name":"_swapCalldataJobId","type":"string"},{"internalType":"string","name":"_quoteJobId","type":"string"},{"internalType":"address[]","name":"authorizedToSwap","type":"address[]"}],"stateMutability":"nonpayable","type":"constructor"},{"inputs":[],"name":"CannotAddSubscriber","type":"error"},{"inputs":[],"name":"CannotRemoveSubscriber","type":"error"},{"inputs":[],"name":"NotEnoughNativeTokensSent","type":"error"},{"inputs":[],"name":"QuoteOperationIsNotReady","type":"error"},{"inputs":[],"name":"SlippageIsTooBig","type":"error"},{"inputs":[],"name":"SwapOperationIsNotReady","type":"error"},{"inputs":[],"name":"TransferError","type":"error"},{"anonymous":false,"inputs":[{"indexed":true,"internalType":"bytes32","name":"id","type":"bytes32"}],"name":"ChainlinkCancelled","type":"event"},{"anonymous":false,"inputs":[{"indexed":true,"internalType":"bytes32","name":"id","type":"bytes32"}],"name":"ChainlinkFulfilled","type":"event"},{"anonymous":false,"inputs":[{"indexed":true,"internalType":"bytes32","name":"id","type":"bytes32"}],"name":"ChainlinkRequested","type":"event"},{"anonymous":false,"inputs":[{"indexed":true,"internalType":"uint256","name":"toAmount","type":"uint256"}],"name":"QuoteRegistered","type":"event"},{"anonymous":false,"inputs":[{"components":[{"components":[{"internalType":"address","name":"srcToken","type":"address"},{"internalType":"address","name":"dstToken","type":"address"},{"internalType":"uint256","name":"inAmount","type":"uint256"}],"internalType":"struct SwapHelper.SwapInfo","name":"swapInfo","type":"tuple"},{"internalType":"uint256","name":"outAmount","type":"uint256"}],"indexed":true,"internalType":"struct SwapHelper.QuoteInfo","name":"_quoteBuffer","type":"tuple"}],"name":"QuoteSent","type":"event"},{"anonymous":false,"inputs":[{"indexed":true,"internalType":"bytes32","name":"role","type":"bytes32"},{"indexed":true,"internalType":"bytes32","name":"previousAdminRole","type":"bytes32"},{"indexed":true,"internalType":"bytes32","name":"newAdminRole","type":"bytes32"}],"name":"RoleAdminChanged","type":"event"},{"anonymous":false,"inputs":[{"indexed":true,"internalType":"bytes32","name":"role","type":"bytes32"},{"indexed":true,"internalType":"address","name":"account","type":"address"},{"indexed":true,"internalType":"address","name":"sender","type":"address"}],"name":"RoleGranted","type":"event"},{"anonymous":false,"inputs":[{"indexed":true,"internalType":"bytes32","name":"role","type":"bytes32"},{"indexed":true,"internalType":"address","name":"account","type":"address"},{"indexed":true,"internalType":"address","name":"sender","type":"address"}],"name":"RoleRevoked","type":"event"},{"anonymous":false,"inputs":[{"indexed":true,"internalType":"enum SwapHelper.StrategistInterference","name":"interference","type":"uint8"}],"name":"StrategistInterferred","type":"event"},{"anonymous":false,"inputs":[{"components":[{"internalType":"address","name":"srcToken","type":"address"},{"internalType":"address","name":"dstToken","type":"address"},{"internalType":"uint256","name":"inAmount","type":"uint256"}],"indexed":true,"internalType":"struct SwapHelper.SwapInfo","name":"_swapBuffer","type":"tuple"}],"name":"SwapPerformed","type":"event"},{"anonymous":false,"inputs":[{"indexed":true,"internalType":"bytes","name":"swapCalldata","type":"bytes"}],"name":"SwapRegistered","type":"event"},{"inputs":[],"name":"DEFAULT_ADMIN_ROLE","outputs":[{"internalType":"bytes32","name":"","type":"bytes32"}],"stateMutability":"view","type":"function"},{"inputs":[],"name":"ONE_INCH_ETH_ADDRESS","outputs":[{"internalType":"address","name":"","type":"address"}],"stateMutability":"view","type":"function"},{"inputs":[],"name":"QUOTE_AUTHORIZED_ROLE","outputs":[{"internalType":"bytes32","name":"","type":"bytes32"}],"stateMutability":"view","type":"function"},{"inputs":[],"name":"STRATEGIST_ROLE","outputs":[{"internalType":"bytes32","name":"","type":"bytes32"}],"stateMutability":"view","type":"function"},{"inputs":[],"name":"SWAP_AUTHORIZED_ROLE","outputs":[{"internalType":"bytes32","name":"","type":"bytes32"}],"stateMutability":"view","type":"function"},{"inputs":[{"internalType":"address","name":"subscriber","type":"address"}],"name":"addSubscriber","outputs":[],"stateMutability":"nonpayable","type":"function"},{"inputs":[],"name":"aggregationRouter","outputs":[{"internalType":"address","name":"","type":"address"}],"stateMutability":"view","type":"function"},{"inputs":[],"name":"fulfillQuote","outputs":[],"stateMutability":"nonpayable","type":"function"},{"inputs":[],"name":"fulfillSwap","outputs":[],"stateMutability":"nonpayable","type":"function"},{"inputs":[{"internalType":"enum SwapHelper.JobPurpose","name":"_purpose","type":"uint8"}],"name":"getFeeInHundredthsOfLink","outputs":[{"internalType":"uint256","name":"","type":"uint256"}],"stateMutability":"view","type":"function"},{"inputs":[],"name":"getOracleAddress","outputs":[{"internalType":"address","name":"","type":"address"}],"stateMutability":"view","type":"function"},{"inputs":[{"internalType":"bytes32","name":"role","type":"bytes32"}],"name":"getRoleAdmin","outputs":[{"internalType":"bytes32","name":"","type":"bytes32"}],"stateMutability":"view","type":"function"},{"inputs":[{"internalType":"bytes32","name":"role","type":"bytes32"},{"internalType":"address","name":"account","type":"address"}],"name":"grantRole","outputs":[],"stateMutability":"nonpayable","type":"function"},{"inputs":[{"internalType":"bytes32","name":"role","type":"bytes32"},{"internalType":"address","name":"account","type":"address"}],"name":"hasRole","outputs":[{"internalType":"bool","name":"","type":"bool"}],"stateMutability":"view","type":"function"},{"inputs":[],"name":"isReadyToFulfillQuote","outputs":[{"internalType":"bool","name":"","type":"bool"}],"stateMutability":"view","type":"function"},{"inputs":[],"name":"isReadyToFulfillSwap","outputs":[{"internalType":"bool","name":"","type":"bool"}],"stateMutability":"view","type":"function"},{"inputs":[{"internalType":"uint256","name":"","type":"uint256"}],"name":"jobInfos","outputs":[{"internalType":"bytes32","name":"jobId","type":"bytes32"},{"internalType":"uint256","name":"jobFeeInJuels","type":"uint256"}],"stateMutability":"view","type":"function"},{"inputs":[],"name":"oracleAddress","outputs":[{"internalType":"address","name":"","type":"address"}],"stateMutability":"view","type":"function"},{"inputs":[],"name":"quoteBuffer","outputs":[{"components":[{"internalType":"address","name":"srcToken","type":"address"},{"internalType":"address","name":"dstToken","type":"address"},{"internalType":"uint256","name":"inAmount","type":"uint256"}],"internalType":"struct SwapHelper.SwapInfo","name":"swapInfo","type":"tuple"},{"internalType":"uint256","name":"outAmount","type":"uint256"}],"stateMutability":"view","type":"function"},{"inputs":[{"internalType":"bytes32","name":"requestId","type":"bytes32"},{"internalType":"uint256","name":"toAmount","type":"uint256"}],"name":"registerQuoteRequest","outputs":[],"stateMutability":"nonpayable","type":"function"},{"inputs":[{"internalType":"bytes32","name":"requestId","type":"bytes32"},{"internalType":"bytes","name":"swapCalldata","type":"bytes"}],"name":"registerSwapCalldata","outputs":[],"stateMutability":"nonpayable","type":"function"},{"inputs":[{"internalType":"address","name":"subscriber","type":"address"}],"name":"removeSubscriber","outputs":[],"stateMutability":"nonpayable","type":"function"},{"inputs":[{"internalType":"bytes32","name":"role","type":"bytes32"},{"internalType":"address","name":"account","type":"address"}],"name":"renounceRole","outputs":[],"stateMutability":"nonpayable","type":"function"},{"inputs":[{"internalType":"address","name":"src","type":"address"},{"internalType":"address","name":"dst","type":"address"},{"internalType":"uint256","name":"amount","type":"uint256"}],"name":"requestQuote","outputs":[],"stateMutability":"nonpayable","type":"function"},{"inputs":[{"internalType":"address","name":"src","type":"address"},{"internalType":"address","name":"dst","type":"address"},{"internalType":"uint256","name":"amount","type":"uint256"},{"internalType":"uint8","name":"slippage","type":"uint8"}],"name":"requestSwap","outputs":[],"stateMutability":"payable","type":"function"},{"inputs":[{"internalType":"bytes32","name":"role","type":"bytes32"},{"internalType":"address","name":"account","type":"address"}],"name":"revokeRole","outputs":[],"stateMutability":"nonpayable","type":"function"},{"inputs":[{"internalType":"enum SwapHelper.JobPurpose","name":"_purpose","type":"uint8"},{"internalType":"uint256","name":"_feeInHundredthsOfLink","type":"uint256"}],"name":"setFeeInHundredthsOfLink","outputs":[],"stateMutability":"nonpayable","type":"function"},{"inputs":[{"internalType":"enum SwapHelper.JobPurpose","name":"_purpose","type":"uint8"},{"components":[{"internalType":"bytes32","name":"jobId","type":"bytes32"},{"internalType":"uint256","name":"jobFeeInJuels","type":"uint256"}],"internalType":"struct SwapHelper.JobInfo","name":"_info","type":"tuple"}],"name":"setJobInfo","outputs":[],"stateMutability":"nonpayable","type":"function"},{"inputs":[{"internalType":"address","name":"_oracleAddress","type":"address"}],"name":"setOracleAddress","outputs":[],"stateMutability":"nonpayable","type":"function"},{"inputs":[{"internalType":"uint256","name":"toAmount","type":"uint256"}],"name":"strategistFulfillQuote","outputs":[],"stateMutability":"nonpayable","type":"function"},{"inputs":[{"internalType":"bytes","name":"_swapCalldata","type":"bytes"}],"name":"strategistFulfillSwap","outputs":[],"stateMutability":"payable","type":"function"},{"inputs":[{"internalType":"uint256","name":"subscriberIdx","type":"uint256"}],"name":"subscriberAt","outputs":[{"internalType":"address","name":"","type":"address"}],"stateMutability":"view","type":"function"},{"inputs":[],"name":"subscribersLength","outputs":[{"internalType":"uint256","name":"","type":"uint256"}],"stateMutability":"view","type":"function"},{"inputs":[{"internalType":"bytes4","name":"interfaceId","type":"bytes4"}],"name":"supportsInterface","outputs":[{"internalType":"bool","name":"","type":"bool"}],"stateMutability":"view","type":"function"},{"inputs":[],"name":"swapBuffer","outputs":[{"internalType":"address","name":"srcToken","type":"address"},{"internalType":"address","name":"dstToken","type":"address"},{"internalType":"uint256","name":"inAmount","type":"uint256"}],"stateMutability":"view","type":"function"},{"inputs":[],"name":"withdrawLink","outputs":[],"stateMutability":"nonpayable","type":"function"},{"stateMutability":"payable","type":"receive"}],"devdoc":{"events":{"RoleAdminChanged(bytes32,bytes32,bytes32)":{"details":"Emitted when `newAdminRole` is set as ``role``'s admin role, replacing `previousAdminRole` `DEFAULT_ADMIN_ROLE` is the starting admin for all roles, despite {RoleAdminChanged} not being emitted signaling this. _Available since v3.1._"},"RoleGranted(bytes32,address,address)":{"details":"Emitted when `account` is granted `role`. `sender` is the account that originated the contract call, an admin role bearer except when using {AccessControl-_setupRole}."},"RoleRevoked(bytes32,address,address)":{"details":"Emitted when `account` is revoked `role`. `sender` is the account that originated the contract call:   - if using `revokeRole`, it is the admin role bearer   - if using `renounceRole`, it is the role bearer (i.e. `account`)"}},"kind":"dev","methods":{"getRoleAdmin(bytes32)":{"details":"Returns the admin role that controls `role`. See {grantRole} and {revokeRole}. To change a role's admin, use {_setRoleAdmin}."},"grantRole(bytes32,address)":{"details":"Grants `role` to `account`. If `account` had not been already granted `role`, emits a {RoleGranted} event. Requirements: - the caller must have ``role``'s admin role. May emit a {RoleGranted} event."},"hasRole(bytes32,address)":{"details":"Returns `true` if `account` has been granted `role`."},"renounceRole(bytes32,address)":{"details":"Revokes `role` from the calling account. Roles are often managed via {grantRole} and {revokeRole}: this function's purpose is to provide a mechanism for accounts to lose their privileges if they are compromised (such as when a trusted device is misplaced). If the calling account had been revoked `role`, emits a {RoleRevoked} event. Requirements: - the caller must be `account`. May emit a {RoleRevoked} event."},"revokeRole(bytes32,address)":{"details":"Revokes `role` from `account`. If `account` had been granted `role`, emits a {RoleRevoked} event. Requirements: - the caller must have ``role``'s admin role. May emit a {RoleRevoked} event."},"supportsInterface(bytes4)":{"details":"See {IERC165-supportsInterface}."}},"version":1},"evm":{"bytecode":{"linkReferences":{},"object":"60a060405260016005553480156200001657600080fd5b5060405162003c6338038062003c6383398101604081905262000039916200074c565b6200005460008051602062003c2383398151915288620001a7565b620000807f93627969d6ba3f2118f574a00f8d1c7fed4282f3728a455e8b3c867b1a1a212b88620001a7565b6200009b60008051602062003c4383398151915288620001a7565b600380546001600160a01b0319166001600160a01b038716179055620000c18462000230565b620000ee6000604051806040016040528085620000de906200083d565b815260006020909101526200027a565b620000fb60008a620002d2565b620001186001604051806040016040528086620000de906200083d565b62000125600189620002d2565b6001600160a01b03861660805260005b81518160ff16101562000197576200018260008051602062003c43833981519152838360ff16815181106200016e576200016e62000865565b6020026020010151620001a760201b60201c565b806200018e8162000891565b91505062000135565b50505050505050505050620009e4565b620001b3828262000341565b6200022c576000828152602081815260408083206001600160a01b03851684529091529020805460ff19166001179055620001eb3390565b6001600160a01b0316816001600160a01b0316837f2f8788117e7eff1d82e926ec794901d17c78024a50270940304540a733656f0d60405160405180910390a45b5050565b60008051602062003c238339815191526200024b816200036c565b600780546001600160a01b0384166001600160a01b031991821681179092556004805490911690911790555050565b60008051602062003c2383398151915262000295816200036c565b8160106000856001811115620002af57620002af620008b3565b815260208082019290925260400160002082518155910151600190910155505050565b60008051602062003c23833981519152620002ed816200036c565b606462000303670de0b6b3a764000084620008c9565b6200030f9190620008e3565b60106000856001811115620003285762000328620008b3565b8152602081019190915260400160002060010155505050565b6000828152602081815260408083206001600160a01b038516845290915290205460ff165b92915050565b6200037881336200037b565b50565b62000387828262000341565b6200022c576200039781620003e8565b620003a4836020620003fb565b604051602001620003b792919062000906565b60408051601f198184030181529082905262461bcd60e51b8252620003df916004016200097f565b60405180910390fd5b6060620003666001600160a01b03831660145b606060006200040c836002620008c9565b62000419906002620009b4565b6001600160401b03811115620004335762000433620005d8565b6040519080825280601f01601f1916602001820160405280156200045e576020820181803683370190505b509050600360fc1b816000815181106200047c576200047c62000865565b60200101906001600160f81b031916908160001a905350600f60fb1b81600181518110620004ae57620004ae62000865565b60200101906001600160f81b031916908160001a9053506000620004d4846002620008c9565b620004e1906001620009b4565b90505b600181111562000563576f181899199a1a9b1b9c1cb0b131b232b360811b85600f166010811062000519576200051962000865565b1a60f81b82828151811062000532576200053262000865565b60200101906001600160f81b031916908160001a90535060049490941c936200055b81620009ca565b9050620004e4565b508315620005b45760405162461bcd60e51b815260206004820181905260248201527f537472696e67733a20686578206c656e67746820696e73756666696369656e746044820152606401620003df565b9392505050565b80516001600160a01b0381168114620005d357600080fd5b919050565b634e487b7160e01b600052604160045260246000fd5b604051601f8201601f191681016001600160401b0381118282101715620006195762000619620005d8565b604052919050565b60005b838110156200063e57818101518382015260200162000624565b50506000910152565b600082601f8301126200065957600080fd5b81516001600160401b03811115620006755762000675620005d8565b6200068a601f8201601f1916602001620005ee565b818152846020838601011115620006a057600080fd5b620006b382602083016020870162000621565b949350505050565b600082601f830112620006cd57600080fd5b815160206001600160401b03821115620006eb57620006eb620005d8565b8160051b620006fc828201620005ee565b92835284810182019282810190878511156200071757600080fd5b83870192505b8483101562000741576200073183620005bb565b825291830191908301906200071d565b979650505050505050565b60008060008060008060008060006101208a8c0312156200076c57600080fd5b8951985060208a015197506200078560408b01620005bb565b96506200079560608b01620005bb565b9550620007a560808b01620005bb565b9450620007b560a08b01620005bb565b60c08b01519094506001600160401b0380821115620007d357600080fd5b620007e18d838e0162000647565b945060e08c0151915080821115620007f857600080fd5b620008068d838e0162000647565b93506101008c01519150808211156200081e57600080fd5b506200082d8c828d01620006bb565b9150509295985092959850929598565b805160208083015191908110156200085f576000198160200360031b1b821691505b50919050565b634e487b7160e01b600052603260045260246000fd5b634e487b7160e01b600052601160045260246000fd5b600060ff821660ff8103620008aa57620008aa6200087b565b60010192915050565b634e487b7160e01b600052602160045260246000fd5b80820281158282048414176200036657620003666200087b565b6000826200090157634e487b7160e01b600052601260045260246000fd5b500490565b7f416363657373436f6e74726f6c3a206163636f756e74200000000000000000008152600083516200094081601785016020880162000621565b7001034b99036b4b9b9b4b733903937b6329607d1b60179184019182015283516200097381602884016020880162000621565b01602801949350505050565b6020815260008251806020840152620009a081604085016020870162000621565b601f01601f19169190910160400192915050565b808201808211156200036657620003666200087b565b600081620009dc57620009dc6200087b565b506000190190565b60805161320762000a1c6000396000818161069b01528181611288015281816113280152818161145e015261151f01526132076000f3fe6080604052600436106101a35760003560e01c806301a76f59146101af57806301ffc9a7146101c457806302458ad8146101f95780631a5b420714610219578063248a9ca3146102395780632f2ff15d1461026757806336568abe146102875780634ab5c503146102a75780634c69c00f146102c75780634e0c6133146102e75780634e22e31e1461030957806350c284b314610329578063627c34ad1461034957806366b8455b146103695780636ccf5b011461037e57806381777a3d146103ab5780638dc654a21461042557806391d148541461043a57806394555d1a1461045a578063a217fddf1461047a578063a378a3241461048f578063a89ae4ba146104b1578063aaeafd56146104d1578063ab3c322d146104f9578063b18b78dd14610518578063b6761cb81461052d578063be555a801461054d578063c0d2e37f1461056d578063d547741f14610587578063d9ff478f146105a7578063dc39b19a146105e1578063e05d6bf2146105f6578063e75d763f14610618578063eaad47b214610661578063f09922ff14610676578063fcdfd9461461068957600080fd5b366101aa57005b600080fd5b6101c26101bd3660046126bc565b6106bd565b005b3480156101d057600080fd5b506101e46101df3660046126f0565b61073e565b60405190151581526020015b60405180910390f35b34801561020557600080fd5b506101c261021436600461271a565b610775565b34801561022557600080fd5b506101c261023436600461277c565b610844565b34801561024557600080fd5b506102596102543660046127b8565b610a0f565b6040519081526020016101f0565b34801561027357600080fd5b506101c26102823660046127d1565b610a24565b34801561029357600080fd5b506101c26102a23660046127d1565b610a45565b3480156102b357600080fd5b506101c26102c236600461280c565b610ac3565b3480156102d357600080fd5b506101c26102e2366004612836565b610b28565b3480156102f357600080fd5b506102596000805160206131b283398151915281565b34801561031557600080fd5b506101c2610324366004612851565b610b6e565b34801561033557600080fd5b506101c26103443660046127b8565b610c09565b34801561035557600080fd5b506101c2610364366004612836565b610c59565b34801561037557600080fd5b50610259610c99565b34801561038a57600080fd5b5061039e6103993660046127b8565b610caa565b6040516101f09190612873565b3480156103b757600080fd5b50604080516060810182526008546001600160a01b039081168252600954166020820152600a5491810191909152600b546103f0919082565b6040805183516001600160a01b03908116825260208086015190911690820152928101519083015260608201526080016101f0565b34801561043157600080fd5b506101c2610cb7565b34801561044657600080fd5b506101e46104553660046127d1565b610ddf565b34801561046657600080fd5b506101c2610475366004612836565b610e08565b34801561048657600080fd5b50610259600081565b34801561049b57600080fd5b5061025960008051602061317283398151915281565b3480156104bd57600080fd5b5060075461039e906001600160a01b031681565b3480156104dd57600080fd5b5061039e73eeeeeeeeeeeeeeeeeeeeeeeeeeeeeeeeeeeeeeee81565b34801561050557600080fd5b50600f546101e490610100900460ff1681565b34801561052457600080fd5b5061039e610e48565b34801561053957600080fd5b50610259610548366004612887565b610e73565b34801561055957600080fd5b506101c26105683660046128a2565b610edd565b34801561057957600080fd5b50600f546101e49060ff1681565b34801561059357600080fd5b506101c26105a23660046127d1565b610f2f565b3480156105b357600080fd5b50600c54600d54600e546105d2926001600160a01b0390811692169083565b6040516101f093929190612914565b3480156105ed57600080fd5b506101c2610f4b565b34801561060257600080fd5b506102596000805160206130e983398151915281565b34801561062457600080fd5b5061064c6106333660046127b8565b6010602052600090815260409020805460019091015482565b604080519283526020830191909152016101f0565b34801561066d57600080fd5b506101c2610fa1565b6101c2610684366004612938565b610ff1565b34801561069557600080fd5b5061039e7f000000000000000000000000000000000000000000000000000000000000000081565b6000805160206131728339815191526106d5816111fe565b600f805460ff1916905560116106eb8382612a07565b50600c54600e54610706916001600160a01b0316903361120b565b61070e61139f565b60015b6040517ffc252eeb655ad1aa88173ff876f64057c196504c7d3819259257f95c7f05b71090600090a25050565b60006001600160e01b03198216637965db0b60e01b148061076f57506301ffc9a760e01b6001600160e01b03198316145b92915050565b60008281526006602052604090205482906001600160a01b031633146107b65760405162461bcd60e51b81526004016107ad90612adc565b60405180910390fd5b60008181526006602052604080822080546001600160a01b031916905551829160008051602061319283398151915291a260116107f38382612a07565b50600f805460ff1916600117905560405161080f908390612b64565b604051908190038120907fa6b78fc047486d5add927aa53ba0d4fc8eb23a5811e0052aebeba21469f51df890600090a2505050565b6000805160206130e983398151915261085c816111fe565b600f805461ff0019169055600080805260106020527f6e0956cda88cad152e89927e53611735b61a5c762d1428573c6931b0a5efcb01546108a490632711718f60e11b611598565b90506108f4604051806040016040528060068152602001651b595d1a1bd960d21b8152506040518060400160405280600381526020016211d15560ea1b815250836115bc9092919063ffffffff16565b610958604051806040016040528060038152602001621d5c9b60ea1b81525061091c876115da565b610925876115da565b61092e876115f0565b60405160200161094093929190612b80565b60408051601f198184030181529190528391906115bc565b6109b16040518060400160405280600781526020016618dbdb9d1858dd60ca1b8152506040518060400160405280600d81526020016c6c6f6375732d66696e616e636560981b815250836115bc9092919063ffffffff16565b600880546001600160a01b038088166001600160a01b0319928316179092556009805492871692909116919091179055600a839055610a078160106000805b815260200190815260200160002060010154611682565b505050505050565b60009081526020819052604090206001015490565b610a2d82610a0f565b610a36816111fe565b610a4083836116a3565b505050565b6001600160a01b0381163314610ab55760405162461bcd60e51b815260206004820152602f60248201527f416363657373436f6e74726f6c3a2063616e206f6e6c792072656e6f756e636560448201526e103937b632b9903337b91039b2b63360891b60648201526084016107ad565b610abf8282611727565b5050565b600080516020613172833981519152610adb816111fe565b6064610aef670de0b6b3a764000084612c2c565b610af99190612c59565b60106000856001811115610b0f57610b0f612ac6565b8152602081019190915260400160002060010155505050565b600080516020613172833981519152610b40816111fe565b50600780546001600160a01b03929092166001600160a01b0319928316811790915560048054909216179055565b60008281526006602052604090205482906001600160a01b03163314610ba65760405162461bcd60e51b81526004016107ad90612adc565b60008181526006602052604080822080546001600160a01b031916905551829160008051602061319283398151915291a2600b829055600f805461ff001916610100179055604051829060008051602061310983398151915290600090a2505050565b600080516020613172833981519152610c21816111fe565b600f805461ff0019169055600b829055604051829060008051602061310983398151915290600090a2610c5261178c565b6000610711565b600080516020613172833981519152610c71816111fe565b610c7c601283611882565b610abf576040516306e971bb60e31b815260040160405180910390fd5b6000610ca56012611897565b905090565b600061076f6012836118a1565b600080516020613172833981519152610ccf816111fe565b6000610ce36003546001600160a01b031690565b90506001600160a01b03811663a9059cbb336040516370a0823160e01b81526001600160a01b038516906370a0823190610d21903090600401612873565b602060405180830381865afa158015610d3e573d6000803e3d6000fd5b505050506040513d601f19601f82011682018060405250810190610d629190612c6d565b6040518363ffffffff1660e01b8152600401610d7f929190612c86565b6020604051808303816000875af1158015610d9e573d6000803e3d6000fd5b505050506040513d601f19601f82011682018060405250810190610dc29190612c9f565b610abf576040516313ff771f60e21b815260040160405180910390fd5b6000918252602082815260408084206001600160a01b0393909316845291905290205460ff1690565b600080516020613172833981519152610e20816111fe565b610e2b6012836118ad565b610abf576040516305c46f6760e31b815260040160405180910390fd5b6000600080516020613172833981519152610e62816111fe565b50506007546001600160a01b031690565b6000600080516020613172833981519152610e8d816111fe565b670de0b6b3a764000060106000856001811115610eac57610eac612ac6565b8152602001908152602001600020600101546064610eca9190612c2c565b610ed49190612c59565b91505b50919050565b600080516020613172833981519152610ef5816111fe565b8160106000856001811115610f0c57610f0c612ac6565b815260208082019290925260400160002082518155910151600190910155505050565b610f3882610a0f565b610f41816111fe565b610a408383611727565b6000805160206130e9833981519152610f63816111fe565b600f54610100900460ff16610f8b57604051636cb45f1560e11b815260040160405180910390fd5b610f9361178c565b50600f805461ff0019169055565b6000805160206131b2833981519152610fb9816111fe565b600f5460ff16610fdc57604051637d683d5360e01b815260040160405180910390fd5b610fe461139f565b50600f805460ff19169055565b6000805160206131b2833981519152611009816111fe565b60328260ff16111561102e576040516336ee37fb60e21b815260040160405180910390fd5b600f805460ff191690553361104486858361120b565b6001600090815260106020527f8c6065603763fec3f5742441d3833f3f43b982453612d76adb39a885e3006b5f54611082906248b15b60e31b611598565b90506110d2604051806040016040528060068152602001651b595d1a1bd960d21b8152506040518060400160405280600381526020016211d15560ea1b815250836115bc9092919063ffffffff16565b61113f604051806040016040528060038152602001621d5c9b60ea1b8152506110fa896115da565b611103896115da565b61110c896115f0565b611115306115da565b6111218a60ff166115f0565b61112a896115da565b60405160200161094096959493929190612cc1565b6111986040518060400160405280600781526020016618dbdb9d1858dd60ca1b8152506040518060400160405280600d81526020016c6c6f6375732d66696e616e636560981b815250836115bc9092919063ffffffff16565b604080516060810182526001600160a01b03808a168083529089166020830181905291909201879052600c80546001600160a01b03199081169093179055600d8054909216179055600e8590556111f4816010600060016109f0565b5050505050505050565b61120881336118c2565b50565b8273eeeeeeeeeeeeeeeeeeeeeeeeeeeeeeeeeeeeeeed196001600160a01b038216016112565782341461125157604051630dd86f5360e11b815260040160405180910390fd5b611399565b61126b6001600160a01b03821683308661191b565b604051636eb1769f60e11b81523060048201526001600160a01b037f00000000000000000000000000000000000000000000000000000000000000008116602483015284919083169063dd62ed3e90604401602060405180830381865afa1580156112da573d6000803e3d6000fd5b505050506040513d601f19601f820116820180604052508101906112fe9190612c6d565b10156113995760405163095ea7b360e01b81526001600160a01b0382169063095ea7b390611354907f00000000000000000000000000000000000000000000000000000000000000009060001990600401612c86565b6020604051808303816000875af1158015611373573d6000803e3d6000fd5b505050506040513d601f19601f820116820180604052508101906113979190612c9f565b505b50505050565b600c546001600160a01b031673eeeeeeeeeeeeeeeeeeeeeeeeeeeeeeeeeeeeeeed190161148f57611489601180546113d69061298d565b80601f01602080910402602001604051908101604052809291908181526020018280546114029061298d565b801561144f5780601f106114245761010080835404028352916020019161144f565b820191906000526020600020905b81548152906001019060200180831161143257829003601f168201915b5050600e546001600160a01b037f000000000000000000000000000000000000000000000000000000000000000016949350915050611973565b50611557565b6115556011805461149f9061298d565b80601f01602080910402602001604051908101604052809291908181526020018280546114cb9061298d565b80156115185780601f106114ed57610100808354040283529160200191611518565b820191906000526020600020905b8154815290600101906020018083116114fb57829003601f168201915b50505050507f00000000000000000000000000000000000000000000000000000000000000006001600160a01b031661199990919063ffffffff16565b505b600c6040516115669190612e0e565b604051908190038120907f098d3af501ac55740f44cc3d45b38cd162e715bd76ae2ec1704db9bcf19df52890600090a2565b6115a06125cb565b6115a86125cb565b6115b4818530866119dd565b949350505050565b60808301516115cb9083611a1a565b6080830151610a409082611a1a565b606061076f6001600160a01b0383166014611a31565b606060006115fd83611bcc565b60010190506000816001600160401b0381111561161c5761161c61261a565b6040519080825280601f01601f191660200182016040528015611646576020820181803683370190505b5090508181016020015b600019016f181899199a1a9b1b9c1cb0b131b232b360811b600a86061a8153600a850494508461165057509392505050565b60045460009061169c906001600160a01b03168484611ca2565b9392505050565b6116ad8282610ddf565b610abf576000828152602081815260408083206001600160a01b03851684529091529020805460ff191660011790556116e33390565b6001600160a01b0316816001600160a01b0316837f2f8788117e7eff1d82e926ec794901d17c78024a50270940304540a733656f0d60405160405180910390a45050565b6117318282610ddf565b15610abf576000828152602081815260408083206001600160a01b0385168085529252808320805460ff1916905551339285917ff6391f5c32d9c69d2a47ea670b442974b53935d1edc7fd64eb21e047a839171b9190a45050565b60006117986012611897565b905060005b8181101561183f576117b06012826118a1565b600854600954600b54600a5460405163b91dc4bb60e01b81526001600160a01b03948516600482015292841660248401526044830191909152606482015291169063b91dc4bb90608401600060405180830381600087803b15801561181457600080fd5b505af1158015611828573d6000803e3d6000fd5b50505050808061183790612e20565b91505061179d565b50600860405161184f9190612e39565b604051908190038120907fa8e5b3954602a050e4fd58bfdb4679c92cdf00addead6c0178ced776602ed45290600090a250565b600061169c836001600160a01b038416611d33565b600061076f825490565b600061169c8383611e26565b600061169c836001600160a01b038416611e50565b6118cc8282610ddf565b610abf576118d9816115da565b6118e4836020611a31565b6040516020016118f5929190612e55565b60408051601f198184030181529082905262461bcd60e51b82526107ad91600401612ef0565b611399846323b872dd60e01b85858560405160240161193c93929190612914565b60408051601f198184030181529190526020810180516001600160e01b03166001600160e01b031990931692909217909152611e9f565b60606115b484848460405180606001604052806029815260200161312960299139611f74565b606061169c838360006040518060400160405280601e81526020017f416464726573733a206c6f772d6c6576656c2063616c6c206661696c65640000815250611f74565b6119e56125cb565b6119f5856080015161010061204f565b50509183526001600160a01b031660208301526001600160e01b031916604082015290565b611a2782600383516120a7565b610a4082826121ae565b60606000611a40836002612c2c565b611a4b906002612f03565b6001600160401b03811115611a6257611a6261261a565b6040519080825280601f01601f191660200182016040528015611a8c576020820181803683370190505b509050600360fc1b81600081518110611aa757611aa7612f16565b60200101906001600160f81b031916908160001a905350600f60fb1b81600181518110611ad657611ad6612f16565b60200101906001600160f81b031916908160001a9053506000611afa846002612c2c565b611b05906001612f03565b90505b6001811115611b7d576f181899199a1a9b1b9c1cb0b131b232b360811b85600f1660108110611b3957611b39612f16565b1a60f81b828281518110611b4f57611b4f612f16565b60200101906001600160f81b031916908160001a90535060049490941c93611b7681612f2c565b9050611b08565b50831561169c5760405162461bcd60e51b815260206004820181905260248201527f537472696e67733a20686578206c656e67746820696e73756666696369656e7460448201526064016107ad565b60008072184f03e93ff9f4daa797ed6e38ed64bf6a1f0160401b8310611c0b5772184f03e93ff9f4daa797ed6e38ed64bf6a1f0160401b830492506040015b6904ee2d6d415b85acef8160201b8310611c35576904ee2d6d415b85acef8160201b830492506020015b662386f26fc100008310611c5357662386f26fc10000830492506010015b6305f5e1008310611c6b576305f5e100830492506008015b6127108310611c7f57612710830492506004015b60648310611c91576064830492506002015b600a831061076f5760010192915050565b600554600090611cb3816001612f03565b60055583516040808601516080870151519151600093633c6d41b960e01b93611ce9938693849392899160029190602401612f43565b60408051601f198184030181529190526020810180516001600160e01b03166001600160e01b0319909316929092179091529050611d29868386846121c8565b9695505050505050565b60008181526001830160205260408120548015611e1c576000611d57600183612f8b565b8554909150600090611d6b90600190612f8b565b9050818114611dd0576000866000018281548110611d8b57611d8b612f16565b9060005260206000200154905080876000018481548110611dae57611dae612f16565b6000918252602080832090910192909255918252600188019052604090208390555b8554869080611de157611de1612f9e565b60019003818190600052602060002001600090559055856001016000868152602001908152602001600020600090556001935050505061076f565b600091505061076f565b6000826000018281548110611e3d57611e3d612f16565b9060005260206000200154905092915050565b6000818152600183016020526040812054611e975750815460018181018455600084815260208082209093018490558454848252828601909352604090209190915561076f565b50600061076f565b6000611ef4826040518060400160405280602081526020017f5361666545524332303a206c6f772d6c6576656c2063616c6c206661696c6564815250856001600160a01b03166123219092919063ffffffff16565b9050805160001480611f15575080806020019051810190611f159190612c9f565b610a405760405162461bcd60e51b815260206004820152602a60248201527f5361666545524332303a204552433230206f7065726174696f6e20646964206e6044820152691bdd081cdd58d8d9595960b21b60648201526084016107ad565b606082471015611fd55760405162461bcd60e51b815260206004820152602660248201527f416464726573733a20696e73756666696369656e742062616c616e636520666f6044820152651c8818d85b1b60d21b60648201526084016107ad565b600080866001600160a01b03168587604051611ff19190612b64565b60006040518083038185875af1925050503d806000811461202e576040519150601f19603f3d011682016040523d82523d6000602084013e612033565b606091505b509150915061204487838387612330565b979650505050505050565b612057612600565b612062602083612fb4565b1561208a57612072602083612fb4565b61207d906020612f8b565b6120879083612f03565b91505b506020828101829052604080518085526000815290920101905290565b6017816001600160401b0316116120cb576113998360e0600585901b1683176123a9565b60ff816001600160401b031611612107576120f1836018611fe0600586901b16176123a9565b50611399836001600160401b03831660016123c1565b61ffff816001600160401b0316116121445761212e836019611fe0600586901b16176123a9565b50611399836001600160401b03831660026123c1565b63ffffffff816001600160401b0316116121835761216d83601a611fe0600586901b16176123a9565b50611399836001600160401b03831660046123c1565b61219883601b611fe0600586901b16176123a9565b50611399836001600160401b03831660086123c1565b6121b6612600565b61169c838460000151518485516123da565b6040516001600160601b03193060601b1660208201526034810184905260009060540160408051808303601f1901815282825280516020918201206000818152600690925291812080546001600160a01b0319166001600160a01b038a1617905590925082917fb5e6e01e79f91267dc17b4e6314d5d4d03593d2ceee0fbb452b750bd70ea5af99190a2600354604051630200057560e51b81526001600160a01b0390911690634000aea09061228690889087908790600401612fc8565b6020604051808303816000875af11580156122a5573d6000803e3d6000fd5b505050506040513d601f19601f820116820180604052508101906122c99190612c9f565b6115b45760405162461bcd60e51b815260206004820152602360248201527f756e61626c6520746f207472616e73666572416e6443616c6c20746f206f7261604482015262636c6560e81b60648201526084016107ad565b60606115b48484600085611f74565b6060831561239f578251600003612398576001600160a01b0385163b6123985760405162461bcd60e51b815260206004820152601d60248201527f416464726573733a2063616c6c20746f206e6f6e2d636f6e747261637400000060448201526064016107ad565b50816115b4565b6115b483836124b7565b6123b1612600565b61169c83846000015151846124e1565b6123c9612600565b6115b484856000015151858561252f565b6123e2612600565b82518211156123f057600080fd5b60208501516123ff8386612f03565b111561243257612432856124228760200151878661241d9190612f03565b6125a3565b61242d906002612c2c565b6125b4565b6000808651805187602083010193508088870111156124515787860182525b505050602084015b602084106124915780518252612470602083612f03565b915061247d602082612f03565b905061248a602085612f8b565b9350612459565b51815160001960208690036101000a019081169019919091161790525083949350505050565b8151156124c75781518083602001fd5b8060405162461bcd60e51b81526004016107ad9190612ef0565b6124e9612600565b8360200151831061250957612509848560200151600261242d9190612c2c565b8351805160208583010184815350808503612525576001810182525b5093949350505050565b612537612600565b60208501516125468584612f03565b111561255a5761255a856124228685612f03565b6000600161256a846101006130dc565b6125749190612f8b565b90508551838682010185831982511617815250805184870111156125985783860181525b509495945050505050565b600081831115610ed757508161076f565b81516125c0838361204f565b5061139983826121ae565b6040805160a0810182526000808252602082018190529181018290526060810191909152608081016125fb612600565b905290565b604051806040016040528060608152602001600081525090565b634e487b7160e01b600052604160045260246000fd5b600082601f83011261264157600080fd5b81356001600160401b038082111561265b5761265b61261a565b604051601f8301601f19908116603f011681019082821181831017156126835761268361261a565b8160405283815286602085880101111561269c57600080fd5b836020870160208301376000602085830101528094505050505092915050565b6000602082840312156126ce57600080fd5b81356001600160401b038111156126e457600080fd5b6115b484828501612630565b60006020828403121561270257600080fd5b81356001600160e01b03198116811461169c57600080fd5b6000806040838503121561272d57600080fd5b8235915060208301356001600160401b0381111561274a57600080fd5b61275685828601612630565b9150509250929050565b80356001600160a01b038116811461277757600080fd5b919050565b60008060006060848603121561279157600080fd5b61279a84612760565b92506127a860208501612760565b9150604084013590509250925092565b6000602082840312156127ca57600080fd5b5035919050565b600080604083850312156127e457600080fd5b823591506127f460208401612760565b90509250929050565b80356002811061277757600080fd5b6000806040838503121561281f57600080fd5b612828836127fd565b946020939093013593505050565b60006020828403121561284857600080fd5b61169c82612760565b6000806040838503121561286457600080fd5b50508035926020909101359150565b6001600160a01b0391909116815260200190565b60006020828403121561289957600080fd5b61169c826127fd565b60008082840360608112156128b657600080fd5b6128bf846127fd565b92506040601f19820112156128d357600080fd5b50604080519081016001600160401b03811182821017156128f6576128f661261a565b60409081526020858101358352940135938101939093525092909150565b6001600160a01b039384168152919092166020820152604081019190915260600190565b6000806000806080858703121561294e57600080fd5b61295785612760565b935061296560208601612760565b925060408501359150606085013560ff8116811461298257600080fd5b939692955090935050565b600181811c908216806129a157607f821691505b602082108103610ed757634e487b7160e01b600052602260045260246000fd5b601f821115610a4057600081815260208120601f850160051c810160208610156129e85750805b601f850160051c820191505b81811015610a07578281556001016129f4565b81516001600160401b03811115612a2057612a2061261a565b612a3481612a2e845461298d565b846129c1565b602080601f831160018114612a695760008415612a515750858301515b600019600386901b1c1916600185901b178555610a07565b600085815260208120601f198616915b82811015612a9857888601518255948401946001909101908401612a79565b5085821015612ab65787850151600019600388901b60f8161c191681555b5050505050600190811b01905550565b634e487b7160e01b600052602160045260246000fd5b60208082526028908201527f536f75726365206d75737420626520746865206f7261636c65206f6620746865604082015267081c995c5d595cdd60c21b606082015260800190565b60005b83811015612b3f578181015183820152602001612b27565b50506000910152565b60008151612b5a818560208601612b24565b9290920192915050565b60008251612b76818460208701612b24565b9190910192915050565b60008051602061315283398151915281526b312f71756f74653f7372633d60a01b602082015260008451612bbb81602c850160208901612b24565b64266473743d60d81b602c918401918201528451612be0816031840160208901612b24565b6726616d6f756e743d60c01b603192909101918201528351612c09816039840160208801612b24565b0160390195945050505050565b634e487b7160e01b600052601160045260246000fd5b808202811582820484141761076f5761076f612c16565b634e487b7160e01b600052601260045260246000fd5b600082612c6857612c68612c43565b500490565b600060208284031215612c7f57600080fd5b5051919050565b6001600160a01b03929092168252602082015260400190565b600060208284031215612cb157600080fd5b8151801515811461169c57600080fd5b60008051602061315283398151915281526a312f737761703f7372633d60a81b602082015260008751612cfb81602b850160208c01612b24565b64266473743d60d81b602b918401918201528751612d20816030840160208c01612b24565b6726616d6f756e743d60c01b603092909101918201528651612d49816038840160208b01612b24565b652666726f6d3d60d01b603892909101918201528551612d7081603e840160208a01612b24565b6926736c6970706167653d60b01b603e9290910191820152612ddb612dba612db4612d9e6048850189612b48565b692672656365697665723d60b01b8152600a0190565b86612b48565b742664697361626c65457374696d6174653d7472756560581b815260150190565b9998505050505050505050565b80546001600160a01b039081168352600182015416602083015260020154604090910152565b612e188183612de8565b606001919050565b600060018201612e3257612e32612c16565b5060010190565b612e438183612de8565b60039190910154606082015260800190565b76020b1b1b2b9b9a1b7b73a3937b61d1030b1b1b7bab73a1604d1b815260008351612e87816017850160208801612b24565b7001034b99036b4b9b9b4b733903937b6329607d1b6017918401918201528351612eb8816028840160208801612b24565b01602801949350505050565b60008151808452612edc816020860160208601612b24565b601f01601f19169290920160200192915050565b60208152600061169c6020830184612ec4565b8082018082111561076f5761076f612c16565b634e487b7160e01b600052603260045260246000fd5b600081612f3b57612f3b612c16565b506000190190565b60018060a01b038816815286602082015285604082015263ffffffff60e01b851660608201528360808201528260a082015260e060c08201526000612ddb60e0830184612ec4565b8181038181111561076f5761076f612c16565b634e487b7160e01b600052603160045260246000fd5b600082612fc357612fc3612c43565b500690565b60018060a01b0384168152826020820152606060408201526000612fef6060830184612ec4565b95945050505050565b600181815b8085111561303357816000190482111561301957613019612c16565b8085161561302657918102915b93841c9390800290612ffd565b509250929050565b60008261304a5750600161076f565b816130575750600061076f565b816001811461306d576002811461307757613093565b600191505061076f565b60ff84111561308857613088612c16565b50506001821b61076f565b5060208310610133831016604e8410600b84101617156130b6575081810a61076f565b6130c08383612ff8565b80600019048211156130d4576130d4612c16565b029392505050565b600061169c838361303b56fe93627969d6ba3f2118f574a00f8d1c7fed4282f3728a455e8b3c867b1a1a212bb6904e5f1b44229e5609b681fbc2512409afa3e5a9072d0314256c012668dbe4416464726573733a206c6f772d6c6576656c2063616c6c20776974682076616c7565206661696c656468747470733a2f2f6170692e31696e63682e6465762f737761702f76352e322f17a8e30262c1f919c33056d877a3c22b95c2f5e4dac44683c1c2323cd79fbdb07cc135e0cebb02c3480ae5d74d377283180a2601f8f644edf7987b009316c63afab00a984754950c7187fb98f39da0ae224abbbee017c1699445ad0e19474a4da2646970667358221220634dbbb9db148e8332044aaad11c17a17087c3597d2e7de2ae300c51b5dadb5264736f6c6343000813003317a8e30262c1f919c33056d877a3c22b95c2f5e4dac44683c1c2323cd79fbdb0fab00a984754950c7187fb98f39da0ae224abbbee017c1699445ad0e19474a4d","opcodes":"PUSH1 0xA0 PUSH1 0x40 MSTORE PUSH1 0x1 PUSH1 0x5 SSTORE CALLVALUE DUP1 ISZERO PUSH3 0x16 JUMPI PUSH1 0x0 DUP1 REVERT JUMPDEST POP PUSH1 0x40 MLOAD PUSH3 0x3C63 CODESIZE SUB DUP1 PUSH3 0x3C63 DUP4 CODECOPY DUP2 ADD PUSH1 0x40 DUP2 SWAP1 MSTORE PUSH3 0x39 SWAP2 PUSH3 0x74C JUMP JUMPDEST PUSH3 0x54 PUSH1 0x0 DUP1 MLOAD PUSH1 0x20 PUSH3 0x3C23 DUP4 CODECOPY DUP2 MLOAD SWAP2 MSTORE DUP9 PUSH3 0x1A7 JUMP JUMPDEST PUSH3 0x80 PUSH32 0x93627969D6BA3F2118F574A00F8D1C7FED4282F3728A455E8B3C867B1A1A212B DUP9 PUSH3 0x1A7 JUMP JUMPDEST PUSH3 0x9B PUSH1 0x0 DUP1 MLOAD PUSH1 0x20 PUSH3 0x3C43 DUP4 CODECOPY DUP2 MLOAD SWAP2 MSTORE DUP9 PUSH3 0x1A7 JUMP JUMPDEST PUSH1 0x3 DUP1 SLOAD PUSH1 0x1 PUSH1 0x1 PUSH1 0xA0 SHL SUB NOT AND PUSH1 0x1 PUSH1 0x1 PUSH1 0xA0 SHL SUB DUP8 AND OR SWAP1 SSTORE PUSH3 0xC1 DUP5 PUSH3 0x230 JUMP JUMPDEST PUSH3 0xEE PUSH1 0x0 PUSH1 0x40 MLOAD DUP1 PUSH1 0x40 ADD PUSH1 0x40 MSTORE DUP1 DUP6 PUSH3 0xDE SWAP1 PUSH3 0x83D JUMP JUMPDEST DUP2 MSTORE PUSH1 0x0 PUSH1 0x20 SWAP1 SWAP2 ADD MSTORE PUSH3 0x27A JUMP JUMPDEST PUSH3 0xFB PUSH1 0x0 DUP11 PUSH3 0x2D2 JUMP JUMPDEST PUSH3 0x118 PUSH1 0x1 PUSH1 0x40 MLOAD DUP1 PUSH1 0x40 ADD PUSH1 0x40 MSTORE DUP1 DUP7 PUSH3 0xDE SWAP1 PUSH3 0x83D JUMP JUMPDEST PUSH3 0x125 PUSH1 0x1 DUP10 PUSH3 0x2D2 JUMP JUMPDEST PUSH1 0x1 PUSH1 0x1 PUSH1 0xA0 SHL SUB DUP7 AND PUSH1 0x80 MSTORE PUSH1 0x0 JUMPDEST DUP2 MLOAD DUP2 PUSH1 0xFF AND LT ISZERO PUSH3 0x197 JUMPI PUSH3 0x182 PUSH1 0x0 DUP1 MLOAD PUSH1 0x20 PUSH3 0x3C43 DUP4 CODECOPY DUP2 MLOAD SWAP2 MSTORE DUP4 DUP4 PUSH1 0xFF AND DUP2 MLOAD DUP2 LT PUSH3 0x16E JUMPI PUSH3 0x16E PUSH3 0x865 JUMP JUMPDEST PUSH1 0x20 MUL PUSH1 0x20 ADD ADD MLOAD PUSH3 0x1A7 PUSH1 0x20 SHL PUSH1 0x20 SHR JUMP JUMPDEST DUP1 PUSH3 0x18E DUP2 PUSH3 0x891 JUMP JUMPDEST SWAP2 POP POP PUSH3 0x135 JUMP JUMPDEST POP POP POP POP POP POP POP POP POP POP PUSH3 0x9E4 JUMP JUMPDEST PUSH3 0x1B3 DUP3 DUP3 PUSH3 0x341 JUMP JUMPDEST PUSH3 0x22C JUMPI PUSH1 0x0 DUP3 DUP2 MSTORE PUSH1 0x20 DUP2 DUP2 MSTORE PUSH1 0x40 DUP1 DUP4 KECCAK256 PUSH1 0x1 PUSH1 0x1 PUSH1 0xA0 SHL SUB DUP6 AND DUP5 MSTORE SWAP1 SWAP2 MSTORE SWAP1 KECCAK256 DUP1 SLOAD PUSH1 0xFF NOT AND PUSH1 0x1 OR SWAP1 SSTORE PUSH3 0x1EB CALLER SWAP1 JUMP JUMPDEST PUSH1 0x1 PUSH1 0x1 PUSH1 0xA0 SHL SUB AND DUP2 PUSH1 0x1 PUSH1 0x1 PUSH1 0xA0 SHL SUB AND DUP4 PUSH32 0x2F8788117E7EFF1D82E926EC794901D17C78024A50270940304540A733656F0D PUSH1 0x40 MLOAD PUSH1 0x40 MLOAD DUP1 SWAP2 SUB SWAP1 LOG4 JUMPDEST POP POP JUMP JUMPDEST PUSH1 0x0 DUP1 MLOAD PUSH1 0x20 PUSH3 0x3C23 DUP4 CODECOPY DUP2 MLOAD SWAP2 MSTORE PUSH3 0x24B DUP2 PUSH3 0x36C JUMP JUMPDEST PUSH1 0x7 DUP1 SLOAD PUSH1 0x1 PUSH1 0x1 PUSH1 0xA0 SHL SUB DUP5 AND PUSH1 0x1 PUSH1 0x1 PUSH1 0xA0 SHL SUB NOT SWAP2 DUP3 AND DUP2 OR SWAP1 SWAP3 SSTORE PUSH1 0x4 DUP1 SLOAD SWAP1 SWAP2 AND SWAP1 SWAP2 OR SWAP1 SSTORE POP POP JUMP JUMPDEST PUSH1 0x0 DUP1 MLOAD PUSH1 0x20 PUSH3 0x3C23 DUP4 CODECOPY DUP2 MLOAD SWAP2 MSTORE PUSH3 0x295 DUP2 PUSH3 0x36C JUMP JUMPDEST DUP2 PUSH1 0x10 PUSH1 0x0 DUP6 PUSH1 0x1 DUP2 GT ISZERO PUSH3 0x2AF JUMPI PUSH3 0x2AF PUSH3 0x8B3 JUMP JUMPDEST DUP2 MSTORE PUSH1 0x20 DUP1 DUP3 ADD SWAP3 SWAP1 SWAP3 MSTORE PUSH1 0x40 ADD PUSH1 0x0 KECCAK256 DUP3 MLOAD DUP2 SSTORE SWAP2 ADD MLOAD PUSH1 0x1 SWAP1 SWAP2 ADD SSTORE POP POP POP JUMP JUMPDEST PUSH1 0x0 DUP1 MLOAD PUSH1 0x20 PUSH3 0x3C23 DUP4 CODECOPY DUP2 MLOAD SWAP2 MSTORE PUSH3 0x2ED DUP2 PUSH3 0x36C JUMP JUMPDEST PUSH1 0x64 PUSH3 0x303 PUSH8 0xDE0B6B3A7640000 DUP5 PUSH3 0x8C9 JUMP JUMPDEST PUSH3 0x30F SWAP2 SWAP1 PUSH3 0x8E3 JUMP JUMPDEST PUSH1 0x10 PUSH1 0x0 DUP6 PUSH1 0x1 DUP2 GT ISZERO PUSH3 0x328 JUMPI PUSH3 0x328 PUSH3 0x8B3 JUMP JUMPDEST DUP2 MSTORE PUSH1 0x20 DUP2 ADD SWAP2 SWAP1 SWAP2 MSTORE PUSH1 0x40 ADD PUSH1 0x0 KECCAK256 PUSH1 0x1 ADD SSTORE POP POP POP JUMP JUMPDEST PUSH1 0x0 DUP3 DUP2 MSTORE PUSH1 0x20 DUP2 DUP2 MSTORE PUSH1 0x40 DUP1 DUP4 KECCAK256 PUSH1 0x1 PUSH1 0x1 PUSH1 0xA0 SHL SUB DUP6 AND DUP5 MSTORE SWAP1 SWAP2 MSTORE SWAP1 KECCAK256 SLOAD PUSH1 0xFF AND JUMPDEST SWAP3 SWAP2 POP POP JUMP JUMPDEST PUSH3 0x378 DUP2 CALLER PUSH3 0x37B JUMP JUMPDEST POP JUMP JUMPDEST PUSH3 0x387 DUP3 DUP3 PUSH3 0x341 JUMP JUMPDEST PUSH3 0x22C JUMPI PUSH3 0x397 DUP2 PUSH3 0x3E8 JUMP JUMPDEST PUSH3 0x3A4 DUP4 PUSH1 0x20 PUSH3 0x3FB JUMP JUMPDEST PUSH1 0x40 MLOAD PUSH1 0x20 ADD PUSH3 0x3B7 SWAP3 SWAP2 SWAP1 PUSH3 0x906 JUMP JUMPDEST PUSH1 0x40 DUP1 MLOAD PUSH1 0x1F NOT DUP2 DUP5 SUB ADD DUP2 MSTORE SWAP1 DUP3 SWAP1 MSTORE PUSH3 0x461BCD PUSH1 0xE5 SHL DUP3 MSTORE PUSH3 0x3DF SWAP2 PUSH1 0x4 ADD PUSH3 0x97F JUMP JUMPDEST PUSH1 0x40 MLOAD DUP1 SWAP2 SUB SWAP1 REVERT JUMPDEST PUSH1 0x60 PUSH3 0x366 PUSH1 0x1 PUSH1 0x1 PUSH1 0xA0 SHL SUB DUP4 AND PUSH1 0x14 JUMPDEST PUSH1 0x60 PUSH1 0x0 PUSH3 0x40C DUP4 PUSH1 0x2 PUSH3 0x8C9 JUMP JUMPDEST PUSH3 0x419 SWAP1 PUSH1 0x2 PUSH3 0x9B4 JUMP JUMPDEST PUSH1 0x1 PUSH1 0x1 PUSH1 0x40 SHL SUB DUP2 GT ISZERO PUSH3 0x433 JUMPI PUSH3 0x433 PUSH3 0x5D8 JUMP JUMPDEST PUSH1 0x40 MLOAD SWAP1 DUP1 DUP3 MSTORE DUP1 PUSH1 0x1F ADD PUSH1 0x1F NOT AND PUSH1 0x20 ADD DUP3 ADD PUSH1 0x40 MSTORE DUP1 ISZERO PUSH3 0x45E JUMPI PUSH1 0x20 DUP3 ADD DUP2 DUP1 CALLDATASIZE DUP4 CALLDATACOPY ADD SWAP1 POP JUMPDEST POP SWAP1 POP PUSH1 0x3 PUSH1 0xFC SHL DUP2 PUSH1 0x0 DUP2 MLOAD DUP2 LT PUSH3 0x47C JUMPI PUSH3 0x47C PUSH3 0x865 JUMP JUMPDEST PUSH1 0x20 ADD ADD SWAP1 PUSH1 0x1 PUSH1 0x1 PUSH1 0xF8 SHL SUB NOT AND SWAP1 DUP2 PUSH1 0x0 BYTE SWAP1 MSTORE8 POP PUSH1 0xF PUSH1 0xFB SHL DUP2 PUSH1 0x1 DUP2 MLOAD DUP2 LT PUSH3 0x4AE JUMPI PUSH3 0x4AE PUSH3 0x865 JUMP JUMPDEST PUSH1 0x20 ADD ADD SWAP1 PUSH1 0x1 PUSH1 0x1 PUSH1 0xF8 SHL SUB NOT AND SWAP1 DUP2 PUSH1 0x0 BYTE SWAP1 MSTORE8 POP PUSH1 0x0 PUSH3 0x4D4 DUP5 PUSH1 0x2 PUSH3 0x8C9 JUMP JUMPDEST PUSH3 0x4E1 SWAP1 PUSH1 0x1 PUSH3 0x9B4 JUMP JUMPDEST SWAP1 POP JUMPDEST PUSH1 0x1 DUP2 GT ISZERO PUSH3 0x563 JUMPI PUSH16 0x181899199A1A9B1B9C1CB0B131B232B3 PUSH1 0x81 SHL DUP6 PUSH1 0xF AND PUSH1 0x10 DUP2 LT PUSH3 0x519 JUMPI PUSH3 0x519 PUSH3 0x865 JUMP JUMPDEST BYTE PUSH1 0xF8 SHL DUP3 DUP3 DUP2 MLOAD DUP2 LT PUSH3 0x532 JUMPI PUSH3 0x532 PUSH3 0x865 JUMP JUMPDEST PUSH1 0x20 ADD ADD SWAP1 PUSH1 0x1 PUSH1 0x1 PUSH1 0xF8 SHL SUB NOT AND SWAP1 DUP2 PUSH1 0x0 BYTE SWAP1 MSTORE8 POP PUSH1 0x4 SWAP5 SWAP1 SWAP5 SHR SWAP4 PUSH3 0x55B DUP2 PUSH3 0x9CA JUMP JUMPDEST SWAP1 POP PUSH3 0x4E4 JUMP JUMPDEST POP DUP4 ISZERO PUSH3 0x5B4 JUMPI PUSH1 0x40 MLOAD PUSH3 0x461BCD PUSH1 0xE5 SHL DUP2 MSTORE PUSH1 0x20 PUSH1 0x4 DUP3 ADD DUP2 SWAP1 MSTORE PUSH1 0x24 DUP3 ADD MSTORE PUSH32 0x537472696E67733A20686578206C656E67746820696E73756666696369656E74 PUSH1 0x44 DUP3 ADD MSTORE PUSH1 0x64 ADD PUSH3 0x3DF JUMP JUMPDEST SWAP4 SWAP3 POP POP POP JUMP JUMPDEST DUP1 MLOAD PUSH1 0x1 PUSH1 0x1 PUSH1 0xA0 SHL SUB DUP2 AND DUP2 EQ PUSH3 0x5D3 JUMPI PUSH1 0x0 DUP1 REVERT JUMPDEST SWAP2 SWAP1 POP JUMP JUMPDEST PUSH4 0x4E487B71 PUSH1 0xE0 SHL PUSH1 0x0 MSTORE PUSH1 0x41 PUSH1 0x4 MSTORE PUSH1 0x24 PUSH1 0x0 REVERT JUMPDEST PUSH1 0x40 MLOAD PUSH1 0x1F DUP3 ADD PUSH1 0x1F NOT AND DUP2 ADD PUSH1 0x1 PUSH1 0x1 PUSH1 0x40 SHL SUB DUP2 GT DUP3 DUP3 LT OR ISZERO PUSH3 0x619 JUMPI PUSH3 0x619 PUSH3 0x5D8 JUMP JUMPDEST PUSH1 0x40 MSTORE SWAP2 SWAP1 POP JUMP JUMPDEST PUSH1 0x0 JUMPDEST DUP4 DUP2 LT ISZERO PUSH3 0x63E JUMPI DUP2 DUP2 ADD MLOAD DUP4 DUP3 ADD MSTORE PUSH1 0x20 ADD PUSH3 0x624 JUMP JUMPDEST POP POP PUSH1 0x0 SWAP2 ADD MSTORE JUMP JUMPDEST PUSH1 0x0 DUP3 PUSH1 0x1F DUP4 ADD SLT PUSH3 0x659 JUMPI PUSH1 0x0 DUP1 REVERT JUMPDEST DUP2 MLOAD PUSH1 0x1 PUSH1 0x1 PUSH1 0x40 SHL SUB DUP2 GT ISZERO PUSH3 0x675 JUMPI PUSH3 0x675 PUSH3 0x5D8 JUMP JUMPDEST PUSH3 0x68A PUSH1 0x1F DUP3 ADD PUSH1 0x1F NOT AND PUSH1 0x20 ADD PUSH3 0x5EE JUMP JUMPDEST DUP2 DUP2 MSTORE DUP5 PUSH1 0x20 DUP4 DUP7 ADD ADD GT ISZERO PUSH3 0x6A0 JUMPI PUSH1 0x0 DUP1 REVERT JUMPDEST PUSH3 0x6B3 DUP3 PUSH1 0x20 DUP4 ADD PUSH1 0x20 DUP8 ADD PUSH3 0x621 JUMP JUMPDEST SWAP5 SWAP4 POP POP POP POP JUMP JUMPDEST PUSH1 0x0 DUP3 PUSH1 0x1F DUP4 ADD SLT PUSH3 0x6CD JUMPI PUSH1 0x0 DUP1 REVERT JUMPDEST DUP2 MLOAD PUSH1 0x20 PUSH1 0x1 PUSH1 0x1 PUSH1 0x40 SHL SUB DUP3 GT ISZERO PUSH3 0x6EB JUMPI PUSH3 0x6EB PUSH3 0x5D8 JUMP JUMPDEST DUP2 PUSH1 0x5 SHL PUSH3 0x6FC DUP3 DUP3 ADD PUSH3 0x5EE JUMP JUMPDEST SWAP3 DUP4 MSTORE DUP5 DUP2 ADD DUP3 ADD SWAP3 DUP3 DUP2 ADD SWAP1 DUP8 DUP6 GT ISZERO PUSH3 0x717 JUMPI PUSH1 0x0 DUP1 REVERT JUMPDEST DUP4 DUP8 ADD SWAP3 POP JUMPDEST DUP5 DUP4 LT ISZERO PUSH3 0x741 JUMPI PUSH3 0x731 DUP4 PUSH3 0x5BB JUMP JUMPDEST DUP3 MSTORE SWAP2 DUP4 ADD SWAP2 SWAP1 DUP4 ADD SWAP1 PUSH3 0x71D JUMP JUMPDEST SWAP8 SWAP7 POP POP POP POP POP POP POP JUMP JUMPDEST PUSH1 0x0 DUP1 PUSH1 0x0 DUP1 PUSH1 0x0 DUP1 PUSH1 0x0 DUP1 PUSH1 0x0 PUSH2 0x120 DUP11 DUP13 SUB SLT ISZERO PUSH3 0x76C JUMPI PUSH1 0x0 DUP1 REVERT JUMPDEST DUP10 MLOAD SWAP9 POP PUSH1 0x20 DUP11 ADD MLOAD SWAP8 POP PUSH3 0x785 PUSH1 0x40 DUP12 ADD PUSH3 0x5BB JUMP JUMPDEST SWAP7 POP PUSH3 0x795 PUSH1 0x60 DUP12 ADD PUSH3 0x5BB JUMP JUMPDEST SWAP6 POP PUSH3 0x7A5 PUSH1 0x80 DUP12 ADD PUSH3 0x5BB JUMP JUMPDEST SWAP5 POP PUSH3 0x7B5 PUSH1 0xA0 DUP12 ADD PUSH3 0x5BB JUMP JUMPDEST PUSH1 0xC0 DUP12 ADD MLOAD SWAP1 SWAP5 POP PUSH1 0x1 PUSH1 0x1 PUSH1 0x40 SHL SUB DUP1 DUP3 GT ISZERO PUSH3 0x7D3 JUMPI PUSH1 0x0 DUP1 REVERT JUMPDEST PUSH3 0x7E1 DUP14 DUP4 DUP15 ADD PUSH3 0x647 JUMP JUMPDEST SWAP5 POP PUSH1 0xE0 DUP13 ADD MLOAD SWAP2 POP DUP1 DUP3 GT ISZERO PUSH3 0x7F8 JUMPI PUSH1 0x0 DUP1 REVERT JUMPDEST PUSH3 0x806 DUP14 DUP4 DUP15 ADD PUSH3 0x647 JUMP JUMPDEST SWAP4 POP PUSH2 0x100 DUP13 ADD MLOAD SWAP2 POP DUP1 DUP3 GT ISZERO PUSH3 0x81E JUMPI PUSH1 0x0 DUP1 REVERT JUMPDEST POP PUSH3 0x82D DUP13 DUP3 DUP14 ADD PUSH3 0x6BB JUMP JUMPDEST SWAP2 POP POP SWAP3 SWAP6 SWAP9 POP SWAP3 SWAP6 SWAP9 POP SWAP3 SWAP6 SWAP9 JUMP JUMPDEST DUP1 MLOAD PUSH1 0x20 DUP1 DUP4 ADD MLOAD SWAP2 SWAP1 DUP2 LT ISZERO PUSH3 0x85F JUMPI PUSH1 0x0 NOT DUP2 PUSH1 0x20 SUB PUSH1 0x3 SHL SHL DUP3 AND SWAP2 POP JUMPDEST POP SWAP2 SWAP1 POP JUMP JUMPDEST PUSH4 0x4E487B71 PUSH1 0xE0 SHL PUSH1 0x0 MSTORE PUSH1 0x32 PUSH1 0x4 MSTORE PUSH1 0x24 PUSH1 0x0 REVERT JUMPDEST PUSH4 0x4E487B71 PUSH1 0xE0 SHL PUSH1 0x0 MSTORE PUSH1 0x11 PUSH1 0x4 MSTORE PUSH1 0x24 PUSH1 0x0 REVERT JUMPDEST PUSH1 0x0 PUSH1 0xFF DUP3 AND PUSH1 0xFF DUP2 SUB PUSH3 0x8AA JUMPI PUSH3 0x8AA PUSH3 0x87B JUMP JUMPDEST PUSH1 0x1 ADD SWAP3 SWAP2 POP POP JUMP JUMPDEST PUSH4 0x4E487B71 PUSH1 0xE0 SHL PUSH1 0x0 MSTORE PUSH1 0x21 PUSH1 0x4 MSTORE PUSH1 0x24 PUSH1 0x0 REVERT JUMPDEST DUP1 DUP3 MUL DUP2 ISZERO DUP3 DUP3 DIV DUP5 EQ OR PUSH3 0x366 JUMPI PUSH3 0x366 PUSH3 0x87B JUMP JUMPDEST PUSH1 0x0 DUP3 PUSH3 0x901 JUMPI PUSH4 0x4E487B71 PUSH1 0xE0 SHL PUSH1 0x0 MSTORE PUSH1 0x12 PUSH1 0x4 MSTORE PUSH1 0x24 PUSH1 0x0 REVERT JUMPDEST POP DIV SWAP1 JUMP JUMPDEST PUSH32 0x416363657373436F6E74726F6C3A206163636F756E7420000000000000000000 DUP2 MSTORE PUSH1 0x0 DUP4 MLOAD PUSH3 0x940 DUP2 PUSH1 0x17 DUP6 ADD PUSH1 0x20 DUP9 ADD PUSH3 0x621 JUMP JUMPDEST PUSH17 0x1034B99036B4B9B9B4B733903937B6329 PUSH1 0x7D SHL PUSH1 0x17 SWAP2 DUP5 ADD SWAP2 DUP3 ADD MSTORE DUP4 MLOAD PUSH3 0x973 DUP2 PUSH1 0x28 DUP5 ADD PUSH1 0x20 DUP9 ADD PUSH3 0x621 JUMP JUMPDEST ADD PUSH1 0x28 ADD SWAP5 SWAP4 POP POP POP POP JUMP JUMPDEST PUSH1 0x20 DUP2 MSTORE PUSH1 0x0 DUP3 MLOAD DUP1 PUSH1 0x20 DUP5 ADD MSTORE PUSH3 0x9A0 DUP2 PUSH1 0x40 DUP6 ADD PUSH1 0x20 DUP8 ADD PUSH3 0x621 JUMP JUMPDEST PUSH1 0x1F ADD PUSH1 0x1F NOT AND SWAP2 SWAP1 SWAP2 ADD PUSH1 0x40 ADD SWAP3 SWAP2 POP POP JUMP JUMPDEST DUP1 DUP3 ADD DUP1 DUP3 GT ISZERO PUSH3 0x366 JUMPI PUSH3 0x366 PUSH3 0x87B JUMP JUMPDEST PUSH1 0x0 DUP2 PUSH3 0x9DC JUMPI PUSH3 0x9DC PUSH3 0x87B JUMP JUMPDEST POP PUSH1 0x0 NOT ADD SWAP1 JUMP JUMPDEST PUSH1 0x80 MLOAD PUSH2 0x3207 PUSH3 0xA1C PUSH1 0x0 CODECOPY PUSH1 0x0 DUP2 DUP2 PUSH2 0x69B ADD MSTORE DUP2 DUP2 PUSH2 0x1288 ADD MSTORE DUP2 DUP2 PUSH2 0x1328 ADD MSTORE DUP2 DUP2 PUSH2 0x145E ADD MSTORE PUSH2 0x151F ADD MSTORE PUSH2 0x3207 PUSH1 0x0 RETURN INVALID PUSH1 0x80 PUSH1 0x40 MSTORE PUSH1 0x4 CALLDATASIZE LT PUSH2 0x1A3 JUMPI PUSH1 0x0 CALLDATALOAD PUSH1 0xE0 SHR DUP1 PUSH4 0x1A76F59 EQ PUSH2 0x1AF JUMPI DUP1 PUSH4 0x1FFC9A7 EQ PUSH2 0x1C4 JUMPI DUP1 PUSH4 0x2458AD8 EQ PUSH2 0x1F9 JUMPI DUP1 PUSH4 0x1A5B4207 EQ PUSH2 0x219 JUMPI DUP1 PUSH4 0x248A9CA3 EQ PUSH2 0x239 JUMPI DUP1 PUSH4 0x2F2FF15D EQ PUSH2 0x267 JUMPI DUP1 PUSH4 0x36568ABE EQ PUSH2 0x287 JUMPI DUP1 PUSH4 0x4AB5C503 EQ PUSH2 0x2A7 JUMPI DUP1 PUSH4 0x4C69C00F EQ PUSH2 0x2C7 JUMPI DUP1 PUSH4 0x4E0C6133 EQ PUSH2 0x2E7 JUMPI DUP1 PUSH4 0x4E22E31E EQ PUSH2 0x309 JUMPI DUP1 PUSH4 0x50C284B3 EQ PUSH2 0x329 JUMPI DUP1 PUSH4 0x627C34AD EQ PUSH2 0x349 JUMPI DUP1 PUSH4 0x66B8455B EQ PUSH2 0x369 JUMPI DUP1 PUSH4 0x6CCF5B01 EQ PUSH2 0x37E JUMPI DUP1 PUSH4 0x81777A3D EQ PUSH2 0x3AB JUMPI DUP1 PUSH4 0x8DC654A2 EQ PUSH2 0x425 JUMPI DUP1 PUSH4 0x91D14854 EQ PUSH2 0x43A JUMPI DUP1 PUSH4 0x94555D1A EQ PUSH2 0x45A JUMPI DUP1 PUSH4 0xA217FDDF EQ PUSH2 0x47A JUMPI DUP1 PUSH4 0xA378A324 EQ PUSH2 0x48F JUMPI DUP1 PUSH4 0xA89AE4BA EQ PUSH2 0x4B1 JUMPI DUP1 PUSH4 0xAAEAFD56 EQ PUSH2 0x4D1 JUMPI DUP1 PUSH4 0xAB3C322D EQ PUSH2 0x4F9 JUMPI DUP1 PUSH4 0xB18B78DD EQ PUSH2 0x518 JUMPI DUP1 PUSH4 0xB6761CB8 EQ PUSH2 0x52D JUMPI DUP1 PUSH4 0xBE555A80 EQ PUSH2 0x54D JUMPI DUP1 PUSH4 0xC0D2E37F EQ PUSH2 0x56D JUMPI DUP1 PUSH4 0xD547741F EQ PUSH2 0x587 JUMPI DUP1 PUSH4 0xD9FF478F EQ PUSH2 0x5A7 JUMPI DUP1 PUSH4 0xDC39B19A EQ PUSH2 0x5E1 JUMPI DUP1 PUSH4 0xE05D6BF2 EQ PUSH2 0x5F6 JUMPI DUP1 PUSH4 0xE75D763F EQ PUSH2 0x618 JUMPI DUP1 PUSH4 0xEAAD47B2 EQ PUSH2 0x661 JUMPI DUP1 PUSH4 0xF09922FF EQ PUSH2 0x676 JUMPI DUP1 PUSH4 0xFCDFD946 EQ PUSH2 0x689 JUMPI PUSH1 0x0 DUP1 REVERT JUMPDEST CALLDATASIZE PUSH2 0x1AA JUMPI STOP JUMPDEST PUSH1 0x0 DUP1 REVERT JUMPDEST PUSH2 0x1C2 PUSH2 0x1BD CALLDATASIZE PUSH1 0x4 PUSH2 0x26BC JUMP JUMPDEST PUSH2 0x6BD JUMP JUMPDEST STOP JUMPDEST CALLVALUE DUP1 ISZERO PUSH2 0x1D0 JUMPI PUSH1 0x0 DUP1 REVERT JUMPDEST POP PUSH2 0x1E4 PUSH2 0x1DF CALLDATASIZE PUSH1 0x4 PUSH2 0x26F0 JUMP JUMPDEST PUSH2 0x73E JUMP JUMPDEST PUSH1 0x40 MLOAD SWAP1 ISZERO ISZERO DUP2 MSTORE PUSH1 0x20 ADD JUMPDEST PUSH1 0x40 MLOAD DUP1 SWAP2 SUB SWAP1 RETURN JUMPDEST CALLVALUE DUP1 ISZERO PUSH2 0x205 JUMPI PUSH1 0x0 DUP1 REVERT JUMPDEST POP PUSH2 0x1C2 PUSH2 0x214 CALLDATASIZE PUSH1 0x4 PUSH2 0x271A JUMP JUMPDEST PUSH2 0x775 JUMP JUMPDEST CALLVALUE DUP1 ISZERO PUSH2 0x225 JUMPI PUSH1 0x0 DUP1 REVERT JUMPDEST POP PUSH2 0x1C2 PUSH2 0x234 CALLDATASIZE PUSH1 0x4 PUSH2 0x277C JUMP JUMPDEST PUSH2 0x844 JUMP JUMPDEST CALLVALUE DUP1 ISZERO PUSH2 0x245 JUMPI PUSH1 0x0 DUP1 REVERT JUMPDEST POP PUSH2 0x259 PUSH2 0x254 CALLDATASIZE PUSH1 0x4 PUSH2 0x27B8 JUMP JUMPDEST PUSH2 0xA0F JUMP JUMPDEST PUSH1 0x40 MLOAD SWAP1 DUP2 MSTORE PUSH1 0x20 ADD PUSH2 0x1F0 JUMP JUMPDEST CALLVALUE DUP1 ISZERO PUSH2 0x273 JUMPI PUSH1 0x0 DUP1 REVERT JUMPDEST POP PUSH2 0x1C2 PUSH2 0x282 CALLDATASIZE PUSH1 0x4 PUSH2 0x27D1 JUMP JUMPDEST PUSH2 0xA24 JUMP JUMPDEST CALLVALUE DUP1 ISZERO PUSH2 0x293 JUMPI PUSH1 0x0 DUP1 REVERT JUMPDEST POP PUSH2 0x1C2 PUSH2 0x2A2 CALLDATASIZE PUSH1 0x4 PUSH2 0x27D1 JUMP JUMPDEST PUSH2 0xA45 JUMP JUMPDEST CALLVALUE DUP1 ISZERO PUSH2 0x2B3 JUMPI PUSH1 0x0 DUP1 REVERT JUMPDEST POP PUSH2 0x1C2 PUSH2 0x2C2 CALLDATASIZE PUSH1 0x4 PUSH2 0x280C JUMP JUMPDEST PUSH2 0xAC3 JUMP JUMPDEST CALLVALUE DUP1 ISZERO PUSH2 0x2D3 JUMPI PUSH1 0x0 DUP1 REVERT JUMPDEST POP PUSH2 0x1C2 PUSH2 0x2E2 CALLDATASIZE PUSH1 0x4 PUSH2 0x2836 JUMP JUMPDEST PUSH2 0xB28 JUMP JUMPDEST CALLVALUE DUP1 ISZERO PUSH2 0x2F3 JUMPI PUSH1 0x0 DUP1 REVERT JUMPDEST POP PUSH2 0x259 PUSH1 0x0 DUP1 MLOAD PUSH1 0x20 PUSH2 0x31B2 DUP4 CODECOPY DUP2 MLOAD SWAP2 MSTORE DUP2 JUMP JUMPDEST CALLVALUE DUP1 ISZERO PUSH2 0x315 JUMPI PUSH1 0x0 DUP1 REVERT JUMPDEST POP PUSH2 0x1C2 PUSH2 0x324 CALLDATASIZE PUSH1 0x4 PUSH2 0x2851 JUMP JUMPDEST PUSH2 0xB6E JUMP JUMPDEST CALLVALUE DUP1 ISZERO PUSH2 0x335 JUMPI PUSH1 0x0 DUP1 REVERT JUMPDEST POP PUSH2 0x1C2 PUSH2 0x344 CALLDATASIZE PUSH1 0x4 PUSH2 0x27B8 JUMP JUMPDEST PUSH2 0xC09 JUMP JUMPDEST CALLVALUE DUP1 ISZERO PUSH2 0x355 JUMPI PUSH1 0x0 DUP1 REVERT JUMPDEST POP PUSH2 0x1C2 PUSH2 0x364 CALLDATASIZE PUSH1 0x4 PUSH2 0x2836 JUMP JUMPDEST PUSH2 0xC59 JUMP JUMPDEST CALLVALUE DUP1 ISZERO PUSH2 0x375 JUMPI PUSH1 0x0 DUP1 REVERT JUMPDEST POP PUSH2 0x259 PUSH2 0xC99 JUMP JUMPDEST CALLVALUE DUP1 ISZERO PUSH2 0x38A JUMPI PUSH1 0x0 DUP1 REVERT JUMPDEST POP PUSH2 0x39E PUSH2 0x399 CALLDATASIZE PUSH1 0x4 PUSH2 0x27B8 JUMP JUMPDEST PUSH2 0xCAA JUMP JUMPDEST PUSH1 0x40 MLOAD PUSH2 0x1F0 SWAP2 SWAP1 PUSH2 0x2873 JUMP JUMPDEST CALLVALUE DUP1 ISZERO PUSH2 0x3B7 JUMPI PUSH1 0x0 DUP1 REVERT JUMPDEST POP PUSH1 0x40 DUP1 MLOAD PUSH1 0x60 DUP2 ADD DUP3 MSTORE PUSH1 0x8 SLOAD PUSH1 0x1 PUSH1 0x1 PUSH1 0xA0 SHL SUB SWAP1 DUP2 AND DUP3 MSTORE PUSH1 0x9 SLOAD AND PUSH1 0x20 DUP3 ADD MSTORE PUSH1 0xA SLOAD SWAP2 DUP2 ADD SWAP2 SWAP1 SWAP2 MSTORE PUSH1 0xB SLOAD PUSH2 0x3F0 SWAP2 SWAP1 DUP3 JUMP JUMPDEST PUSH1 0x40 DUP1 MLOAD DUP4 MLOAD PUSH1 0x1 PUSH1 0x1 PUSH1 0xA0 SHL SUB SWAP1 DUP2 AND DUP3 MSTORE PUSH1 0x20 DUP1 DUP7 ADD MLOAD SWAP1 SWAP2 AND SWAP1 DUP3 ADD MSTORE SWAP3 DUP2 ADD MLOAD SWAP1 DUP4 ADD MSTORE PUSH1 0x60 DUP3 ADD MSTORE PUSH1 0x80 ADD PUSH2 0x1F0 JUMP JUMPDEST CALLVALUE DUP1 ISZERO PUSH2 0x431 JUMPI PUSH1 0x0 DUP1 REVERT JUMPDEST POP PUSH2 0x1C2 PUSH2 0xCB7 JUMP JUMPDEST CALLVALUE DUP1 ISZERO PUSH2 0x446 JUMPI PUSH1 0x0 DUP1 REVERT JUMPDEST POP PUSH2 0x1E4 PUSH2 0x455 CALLDATASIZE PUSH1 0x4 PUSH2 0x27D1 JUMP JUMPDEST PUSH2 0xDDF JUMP JUMPDEST CALLVALUE DUP1 ISZERO PUSH2 0x466 JUMPI PUSH1 0x0 DUP1 REVERT JUMPDEST POP PUSH2 0x1C2 PUSH2 0x475 CALLDATASIZE PUSH1 0x4 PUSH2 0x2836 JUMP JUMPDEST PUSH2 0xE08 JUMP JUMPDEST CALLVALUE DUP1 ISZERO PUSH2 0x486 JUMPI PUSH1 0x0 DUP1 REVERT JUMPDEST POP PUSH2 0x259 PUSH1 0x0 DUP2 JUMP JUMPDEST CALLVALUE DUP1 ISZERO PUSH2 0x49B JUMPI PUSH1 0x0 DUP1 REVERT JUMPDEST POP PUSH2 0x259 PUSH1 0x0 DUP1 MLOAD PUSH1 0x20 PUSH2 0x3172 DUP4 CODECOPY DUP2 MLOAD SWAP2 MSTORE DUP2 JUMP JUMPDEST CALLVALUE DUP1 ISZERO PUSH2 0x4BD JUMPI PUSH1 0x0 DUP1 REVERT JUMPDEST POP PUSH1 0x7 SLOAD PUSH2 0x39E SWAP1 PUSH1 0x1 PUSH1 0x1 PUSH1 0xA0 SHL SUB AND DUP2 JUMP JUMPDEST CALLVALUE DUP1 ISZERO PUSH2 0x4DD JUMPI PUSH1 0x0 DUP1 REVERT JUMPDEST POP PUSH2 0x39E PUSH20 0xEEEEEEEEEEEEEEEEEEEEEEEEEEEEEEEEEEEEEEEE DUP2 JUMP JUMPDEST CALLVALUE DUP1 ISZERO PUSH2 0x505 JUMPI PUSH1 0x0 DUP1 REVERT JUMPDEST POP PUSH1 0xF SLOAD PUSH2 0x1E4 SWAP1 PUSH2 0x100 SWAP1 DIV PUSH1 0xFF AND DUP2 JUMP JUMPDEST CALLVALUE DUP1 ISZERO PUSH2 0x524 JUMPI PUSH1 0x0 DUP1 REVERT JUMPDEST POP PUSH2 0x39E PUSH2 0xE48 JUMP JUMPDEST CALLVALUE DUP1 ISZERO PUSH2 0x539 JUMPI PUSH1 0x0 DUP1 REVERT JUMPDEST POP PUSH2 0x259 PUSH2 0x548 CALLDATASIZE PUSH1 0x4 PUSH2 0x2887 JUMP JUMPDEST PUSH2 0xE73 JUMP JUMPDEST CALLVALUE DUP1 ISZERO PUSH2 0x559 JUMPI PUSH1 0x0 DUP1 REVERT JUMPDEST POP PUSH2 0x1C2 PUSH2 0x568 CALLDATASIZE PUSH1 0x4 PUSH2 0x28A2 JUMP JUMPDEST PUSH2 0xEDD JUMP JUMPDEST CALLVALUE DUP1 ISZERO PUSH2 0x579 JUMPI PUSH1 0x0 DUP1 REVERT JUMPDEST POP PUSH1 0xF SLOAD PUSH2 0x1E4 SWAP1 PUSH1 0xFF AND DUP2 JUMP JUMPDEST CALLVALUE DUP1 ISZERO PUSH2 0x593 JUMPI PUSH1 0x0 DUP1 REVERT JUMPDEST POP PUSH2 0x1C2 PUSH2 0x5A2 CALLDATASIZE PUSH1 0x4 PUSH2 0x27D1 JUMP JUMPDEST PUSH2 0xF2F JUMP JUMPDEST CALLVALUE DUP1 ISZERO PUSH2 0x5B3 JUMPI PUSH1 0x0 DUP1 REVERT JUMPDEST POP PUSH1 0xC SLOAD PUSH1 0xD SLOAD PUSH1 0xE SLOAD PUSH2 0x5D2 SWAP3 PUSH1 0x1 PUSH1 0x1 PUSH1 0xA0 SHL SUB SWAP1 DUP2 AND SWAP3 AND SWAP1 DUP4 JUMP JUMPDEST PUSH1 0x40 MLOAD PUSH2 0x1F0 SWAP4 SWAP3 SWAP2 SWAP1 PUSH2 0x2914 JUMP JUMPDEST CALLVALUE DUP1 ISZERO PUSH2 0x5ED JUMPI PUSH1 0x0 DUP1 REVERT JUMPDEST POP PUSH2 0x1C2 PUSH2 0xF4B JUMP JUMPDEST CALLVALUE DUP1 ISZERO PUSH2 0x602 JUMPI PUSH1 0x0 DUP1 REVERT JUMPDEST POP PUSH2 0x259 PUSH1 0x0 DUP1 MLOAD PUSH1 0x20 PUSH2 0x30E9 DUP4 CODECOPY DUP2 MLOAD SWAP2 MSTORE DUP2 JUMP JUMPDEST CALLVALUE DUP1 ISZERO PUSH2 0x624 JUMPI PUSH1 0x0 DUP1 REVERT JUMPDEST POP PUSH2 0x64C PUSH2 0x633 CALLDATASIZE PUSH1 0x4 PUSH2 0x27B8 JUMP JUMPDEST PUSH1 0x10 PUSH1 0x20 MSTORE PUSH1 0x0 SWAP1 DUP2 MSTORE PUSH1 0x40 SWAP1 KECCAK256 DUP1 SLOAD PUSH1 0x1 SWAP1 SWAP2 ADD SLOAD DUP3 JUMP JUMPDEST PUSH1 0x40 DUP1 MLOAD SWAP3 DUP4 MSTORE PUSH1 0x20 DUP4 ADD SWAP2 SWAP1 SWAP2 MSTORE ADD PUSH2 0x1F0 JUMP JUMPDEST CALLVALUE DUP1 ISZERO PUSH2 0x66D JUMPI PUSH1 0x0 DUP1 REVERT JUMPDEST POP PUSH2 0x1C2 PUSH2 0xFA1 JUMP JUMPDEST PUSH2 0x1C2 PUSH2 0x684 CALLDATASIZE PUSH1 0x4 PUSH2 0x2938 JUMP JUMPDEST PUSH2 0xFF1 JUMP JUMPDEST CALLVALUE DUP1 ISZERO PUSH2 0x695 JUMPI PUSH1 0x0 DUP1 REVERT JUMPDEST POP PUSH2 0x39E PUSH32 0x0 DUP2 JUMP JUMPDEST PUSH1 0x0 DUP1 MLOAD PUSH1 0x20 PUSH2 0x3172 DUP4 CODECOPY DUP2 MLOAD SWAP2 MSTORE PUSH2 0x6D5 DUP2 PUSH2 0x11FE JUMP JUMPDEST PUSH1 0xF DUP1 SLOAD PUSH1 0xFF NOT AND SWAP1 SSTORE PUSH1 0x11 PUSH2 0x6EB DUP4 DUP3 PUSH2 0x2A07 JUMP JUMPDEST POP PUSH1 0xC SLOAD PUSH1 0xE SLOAD PUSH2 0x706 SWAP2 PUSH1 0x1 PUSH1 0x1 PUSH1 0xA0 SHL SUB AND SWAP1 CALLER PUSH2 0x120B JUMP JUMPDEST PUSH2 0x70E PUSH2 0x139F JUMP JUMPDEST PUSH1 0x1 JUMPDEST PUSH1 0x40 MLOAD PUSH32 0xFC252EEB655AD1AA88173FF876F64057C196504C7D3819259257F95C7F05B710 SWAP1 PUSH1 0x0 SWAP1 LOG2 POP POP JUMP JUMPDEST PUSH1 0x0 PUSH1 0x1 PUSH1 0x1 PUSH1 0xE0 SHL SUB NOT DUP3 AND PUSH4 0x7965DB0B PUSH1 0xE0 SHL EQ DUP1 PUSH2 0x76F JUMPI POP PUSH4 0x1FFC9A7 PUSH1 0xE0 SHL PUSH1 0x1 PUSH1 0x1 PUSH1 0xE0 SHL SUB NOT DUP4 AND EQ JUMPDEST SWAP3 SWAP2 POP POP JUMP JUMPDEST PUSH1 0x0 DUP3 DUP2 MSTORE PUSH1 0x6 PUSH1 0x20 MSTORE PUSH1 0x40 SWAP1 KECCAK256 SLOAD DUP3 SWAP1 PUSH1 0x1 PUSH1 0x1 PUSH1 0xA0 SHL SUB AND CALLER EQ PUSH2 0x7B6 JUMPI PUSH1 0x40 MLOAD PUSH3 0x461BCD PUSH1 0xE5 SHL DUP2 MSTORE PUSH1 0x4 ADD PUSH2 0x7AD SWAP1 PUSH2 0x2ADC JUMP JUMPDEST PUSH1 0x40 MLOAD DUP1 SWAP2 SUB SWAP1 REVERT JUMPDEST PUSH1 0x0 DUP2 DUP2 MSTORE PUSH1 0x6 PUSH1 0x20 MSTORE PUSH1 0x40 DUP1 DUP3 KECCAK256 DUP1 SLOAD PUSH1 0x1 PUSH1 0x1 PUSH1 0xA0 SHL SUB NOT AND SWAP1 SSTORE MLOAD DUP3 SWAP2 PUSH1 0x0 DUP1 MLOAD PUSH1 0x20 PUSH2 0x3192 DUP4 CODECOPY DUP2 MLOAD SWAP2 MSTORE SWAP2 LOG2 PUSH1 0x11 PUSH2 0x7F3 DUP4 DUP3 PUSH2 0x2A07 JUMP JUMPDEST POP PUSH1 0xF DUP1 SLOAD PUSH1 0xFF NOT AND PUSH1 0x1 OR SWAP1 SSTORE PUSH1 0x40 MLOAD PUSH2 0x80F SWAP1 DUP4 SWAP1 PUSH2 0x2B64 JUMP JUMPDEST PUSH1 0x40 MLOAD SWAP1 DUP2 SWAP1 SUB DUP2 KECCAK256 SWAP1 PUSH32 0xA6B78FC047486D5ADD927AA53BA0D4FC8EB23A5811E0052AEBEBA21469F51DF8 SWAP1 PUSH1 0x0 SWAP1 LOG2 POP POP POP JUMP JUMPDEST PUSH1 0x0 DUP1 MLOAD PUSH1 0x20 PUSH2 0x30E9 DUP4 CODECOPY DUP2 MLOAD SWAP2 MSTORE PUSH2 0x85C DUP2 PUSH2 0x11FE JUMP JUMPDEST PUSH1 0xF DUP1 SLOAD PUSH2 0xFF00 NOT AND SWAP1 SSTORE PUSH1 0x0 DUP1 DUP1 MSTORE PUSH1 0x10 PUSH1 0x20 MSTORE PUSH32 0x6E0956CDA88CAD152E89927E53611735B61A5C762D1428573C6931B0A5EFCB01 SLOAD PUSH2 0x8A4 SWAP1 PUSH4 0x2711718F PUSH1 0xE1 SHL PUSH2 0x1598 JUMP JUMPDEST SWAP1 POP PUSH2 0x8F4 PUSH1 0x40 MLOAD DUP1 PUSH1 0x40 ADD PUSH1 0x40 MSTORE DUP1 PUSH1 0x6 DUP2 MSTORE PUSH1 0x20 ADD PUSH6 0x1B595D1A1BD9 PUSH1 0xD2 SHL DUP2 MSTORE POP PUSH1 0x40 MLOAD DUP1 PUSH1 0x40 ADD PUSH1 0x40 MSTORE DUP1 PUSH1 0x3 DUP2 MSTORE PUSH1 0x20 ADD PUSH3 0x11D155 PUSH1 0xEA SHL DUP2 MSTORE POP DUP4 PUSH2 0x15BC SWAP1 SWAP3 SWAP2 SWAP1 PUSH4 0xFFFFFFFF AND JUMP JUMPDEST PUSH2 0x958 PUSH1 0x40 MLOAD DUP1 PUSH1 0x40 ADD PUSH1 0x40 MSTORE DUP1 PUSH1 0x3 DUP2 MSTORE PUSH1 0x20 ADD PUSH3 0x1D5C9B PUSH1 0xEA SHL DUP2 MSTORE POP PUSH2 0x91C DUP8 PUSH2 0x15DA JUMP JUMPDEST PUSH2 0x925 DUP8 PUSH2 0x15DA JUMP JUMPDEST PUSH2 0x92E DUP8 PUSH2 0x15F0 JUMP JUMPDEST PUSH1 0x40 MLOAD PUSH1 0x20 ADD PUSH2 0x940 SWAP4 SWAP3 SWAP2 SWAP1 PUSH2 0x2B80 JUMP JUMPDEST PUSH1 0x40 DUP1 MLOAD PUSH1 0x1F NOT DUP2 DUP5 SUB ADD DUP2 MSTORE SWAP2 SWAP1 MSTORE DUP4 SWAP2 SWAP1 PUSH2 0x15BC JUMP JUMPDEST PUSH2 0x9B1 PUSH1 0x40 MLOAD DUP1 PUSH1 0x40 ADD PUSH1 0x40 MSTORE DUP1 PUSH1 0x7 DUP2 MSTORE PUSH1 0x20 ADD PUSH7 0x18DBDB9D1858DD PUSH1 0xCA SHL DUP2 MSTORE POP PUSH1 0x40 MLOAD DUP1 PUSH1 0x40 ADD PUSH1 0x40 MSTORE DUP1 PUSH1 0xD DUP2 MSTORE PUSH1 0x20 ADD PUSH13 0x6C6F6375732D66696E616E6365 PUSH1 0x98 SHL DUP2 MSTORE POP DUP4 PUSH2 0x15BC SWAP1 SWAP3 SWAP2 SWAP1 PUSH4 0xFFFFFFFF AND JUMP JUMPDEST PUSH1 0x8 DUP1 SLOAD PUSH1 0x1 PUSH1 0x1 PUSH1 0xA0 SHL SUB DUP1 DUP9 AND PUSH1 0x1 PUSH1 0x1 PUSH1 0xA0 SHL SUB NOT SWAP3 DUP4 AND OR SWAP1 SWAP3 SSTORE PUSH1 0x9 DUP1 SLOAD SWAP3 DUP8 AND SWAP3 SWAP1 SWAP2 AND SWAP2 SWAP1 SWAP2 OR SWAP1 SSTORE PUSH1 0xA DUP4 SWAP1 SSTORE PUSH2 0xA07 DUP2 PUSH1 0x10 PUSH1 0x0 DUP1 JUMPDEST DUP2 MSTORE PUSH1 0x20 ADD SWAP1 DUP2 MSTORE PUSH1 0x20 ADD PUSH1 0x0 KECCAK256 PUSH1 0x1 ADD SLOAD PUSH2 0x1682 JUMP JUMPDEST POP POP POP POP POP POP JUMP JUMPDEST PUSH1 0x0 SWAP1 DUP2 MSTORE PUSH1 0x20 DUP2 SWAP1 MSTORE PUSH1 0x40 SWAP1 KECCAK256 PUSH1 0x1 ADD SLOAD SWAP1 JUMP JUMPDEST PUSH2 0xA2D DUP3 PUSH2 0xA0F JUMP JUMPDEST PUSH2 0xA36 DUP2 PUSH2 0x11FE JUMP JUMPDEST PUSH2 0xA40 DUP4 DUP4 PUSH2 0x16A3 JUMP JUMPDEST POP POP POP JUMP JUMPDEST PUSH1 0x1 PUSH1 0x1 PUSH1 0xA0 SHL SUB DUP2 AND CALLER EQ PUSH2 0xAB5 JUMPI PUSH1 0x40 MLOAD PUSH3 0x461BCD PUSH1 0xE5 SHL DUP2 MSTORE PUSH1 0x20 PUSH1 0x4 DUP3 ADD MSTORE PUSH1 0x2F PUSH1 0x24 DUP3 ADD MSTORE PUSH32 0x416363657373436F6E74726F6C3A2063616E206F6E6C792072656E6F756E6365 PUSH1 0x44 DUP3 ADD MSTORE PUSH15 0x103937B632B9903337B91039B2B633 PUSH1 0x89 SHL PUSH1 0x64 DUP3 ADD MSTORE PUSH1 0x84 ADD PUSH2 0x7AD JUMP JUMPDEST PUSH2 0xABF DUP3 DUP3 PUSH2 0x1727 JUMP JUMPDEST POP POP JUMP JUMPDEST PUSH1 0x0 DUP1 MLOAD PUSH1 0x20 PUSH2 0x3172 DUP4 CODECOPY DUP2 MLOAD SWAP2 MSTORE PUSH2 0xADB DUP2 PUSH2 0x11FE JUMP JUMPDEST PUSH1 0x64 PUSH2 0xAEF PUSH8 0xDE0B6B3A7640000 DUP5 PUSH2 0x2C2C JUMP JUMPDEST PUSH2 0xAF9 SWAP2 SWAP1 PUSH2 0x2C59 JUMP JUMPDEST PUSH1 0x10 PUSH1 0x0 DUP6 PUSH1 0x1 DUP2 GT ISZERO PUSH2 0xB0F JUMPI PUSH2 0xB0F PUSH2 0x2AC6 JUMP JUMPDEST DUP2 MSTORE PUSH1 0x20 DUP2 ADD SWAP2 SWAP1 SWAP2 MSTORE PUSH1 0x40 ADD PUSH1 0x0 KECCAK256 PUSH1 0x1 ADD SSTORE POP POP POP JUMP JUMPDEST PUSH1 0x0 DUP1 MLOAD PUSH1 0x20 PUSH2 0x3172 DUP4 CODECOPY DUP2 MLOAD SWAP2 MSTORE PUSH2 0xB40 DUP2 PUSH2 0x11FE JUMP JUMPDEST POP PUSH1 0x7 DUP1 SLOAD PUSH1 0x1 PUSH1 0x1 PUSH1 0xA0 SHL SUB SWAP3 SWAP1 SWAP3 AND PUSH1 0x1 PUSH1 0x1 PUSH1 0xA0 SHL SUB NOT SWAP3 DUP4 AND DUP2 OR SWAP1 SWAP2 SSTORE PUSH1 0x4 DUP1 SLOAD SWAP1 SWAP3 AND OR SWAP1 SSTORE JUMP JUMPDEST PUSH1 0x0 DUP3 DUP2 MSTORE PUSH1 0x6 PUSH1 0x20 MSTORE PUSH1 0x40 SWAP1 KECCAK256 SLOAD DUP3 SWAP1 PUSH1 0x1 PUSH1 0x1 PUSH1 0xA0 SHL SUB AND CALLER EQ PUSH2 0xBA6 JUMPI PUSH1 0x40 MLOAD PUSH3 0x461BCD PUSH1 0xE5 SHL DUP2 MSTORE PUSH1 0x4 ADD PUSH2 0x7AD SWAP1 PUSH2 0x2ADC JUMP JUMPDEST PUSH1 0x0 DUP2 DUP2 MSTORE PUSH1 0x6 PUSH1 0x20 MSTORE PUSH1 0x40 DUP1 DUP3 KECCAK256 DUP1 SLOAD PUSH1 0x1 PUSH1 0x1 PUSH1 0xA0 SHL SUB NOT AND SWAP1 SSTORE MLOAD DUP3 SWAP2 PUSH1 0x0 DUP1 MLOAD PUSH1 0x20 PUSH2 0x3192 DUP4 CODECOPY DUP2 MLOAD SWAP2 MSTORE SWAP2 LOG2 PUSH1 0xB DUP3 SWAP1 SSTORE PUSH1 0xF DUP1 SLOAD PUSH2 0xFF00 NOT AND PUSH2 0x100 OR SWAP1 SSTORE PUSH1 0x40 MLOAD DUP3 SWAP1 PUSH1 0x0 DUP1 MLOAD PUSH1 0x20 PUSH2 0x3109 DUP4 CODECOPY DUP2 MLOAD SWAP2 MSTORE SWAP1 PUSH1 0x0 SWAP1 LOG2 POP POP POP JUMP JUMPDEST PUSH1 0x0 DUP1 MLOAD PUSH1 0x20 PUSH2 0x3172 DUP4 CODECOPY DUP2 MLOAD SWAP2 MSTORE PUSH2 0xC21 DUP2 PUSH2 0x11FE JUMP JUMPDEST PUSH1 0xF DUP1 SLOAD PUSH2 0xFF00 NOT AND SWAP1 SSTORE PUSH1 0xB DUP3 SWAP1 SSTORE PUSH1 0x40 MLOAD DUP3 SWAP1 PUSH1 0x0 DUP1 MLOAD PUSH1 0x20 PUSH2 0x3109 DUP4 CODECOPY DUP2 MLOAD SWAP2 MSTORE SWAP1 PUSH1 0x0 SWAP1 LOG2 PUSH2 0xC52 PUSH2 0x178C JUMP JUMPDEST PUSH1 0x0 PUSH2 0x711 JUMP JUMPDEST PUSH1 0x0 DUP1 MLOAD PUSH1 0x20 PUSH2 0x3172 DUP4 CODECOPY DUP2 MLOAD SWAP2 MSTORE PUSH2 0xC71 DUP2 PUSH2 0x11FE JUMP JUMPDEST PUSH2 0xC7C PUSH1 0x12 DUP4 PUSH2 0x1882 JUMP JUMPDEST PUSH2 0xABF JUMPI PUSH1 0x40 MLOAD PUSH4 0x6E971BB PUSH1 0xE3 SHL DUP2 MSTORE PUSH1 0x4 ADD PUSH1 0x40 MLOAD DUP1 SWAP2 SUB SWAP1 REVERT JUMPDEST PUSH1 0x0 PUSH2 0xCA5 PUSH1 0x12 PUSH2 0x1897 JUMP JUMPDEST SWAP1 POP SWAP1 JUMP JUMPDEST PUSH1 0x0 PUSH2 0x76F PUSH1 0x12 DUP4 PUSH2 0x18A1 JUMP JUMPDEST PUSH1 0x0 DUP1 MLOAD PUSH1 0x20 PUSH2 0x3172 DUP4 CODECOPY DUP2 MLOAD SWAP2 MSTORE PUSH2 0xCCF DUP2 PUSH2 0x11FE JUMP JUMPDEST PUSH1 0x0 PUSH2 0xCE3 PUSH1 0x3 SLOAD PUSH1 0x1 PUSH1 0x1 PUSH1 0xA0 SHL SUB AND SWAP1 JUMP JUMPDEST SWAP1 POP PUSH1 0x1 PUSH1 0x1 PUSH1 0xA0 SHL SUB DUP2 AND PUSH4 0xA9059CBB CALLER PUSH1 0x40 MLOAD PUSH4 0x70A08231 PUSH1 0xE0 SHL DUP2 MSTORE PUSH1 0x1 PUSH1 0x1 PUSH1 0xA0 SHL SUB DUP6 AND SWAP1 PUSH4 0x70A08231 SWAP1 PUSH2 0xD21 SWAP1 ADDRESS SWAP1 PUSH1 0x4 ADD PUSH2 0x2873 JUMP JUMPDEST PUSH1 0x20 PUSH1 0x40 MLOAD DUP1 DUP4 SUB DUP2 DUP7 GAS STATICCALL ISZERO DUP1 ISZERO PUSH2 0xD3E JUMPI RETURNDATASIZE PUSH1 0x0 DUP1 RETURNDATACOPY RETURNDATASIZE PUSH1 0x0 REVERT JUMPDEST POP POP POP POP PUSH1 0x40 MLOAD RETURNDATASIZE PUSH1 0x1F NOT PUSH1 0x1F DUP3 ADD AND DUP3 ADD DUP1 PUSH1 0x40 MSTORE POP DUP2 ADD SWAP1 PUSH2 0xD62 SWAP2 SWAP1 PUSH2 0x2C6D JUMP JUMPDEST PUSH1 0x40 MLOAD DUP4 PUSH4 0xFFFFFFFF AND PUSH1 0xE0 SHL DUP2 MSTORE PUSH1 0x4 ADD PUSH2 0xD7F SWAP3 SWAP2 SWAP1 PUSH2 0x2C86 JUMP JUMPDEST PUSH1 0x20 PUSH1 0x40 MLOAD DUP1 DUP4 SUB DUP2 PUSH1 0x0 DUP8 GAS CALL ISZERO DUP1 ISZERO PUSH2 0xD9E JUMPI RETURNDATASIZE PUSH1 0x0 DUP1 RETURNDATACOPY RETURNDATASIZE PUSH1 0x0 REVERT JUMPDEST POP POP POP POP PUSH1 0x40 MLOAD RETURNDATASIZE PUSH1 0x1F NOT PUSH1 0x1F DUP3 ADD AND DUP3 ADD DUP1 PUSH1 0x40 MSTORE POP DUP2 ADD SWAP1 PUSH2 0xDC2 SWAP2 SWAP1 PUSH2 0x2C9F JUMP JUMPDEST PUSH2 0xABF JUMPI PUSH1 0x40 MLOAD PUSH4 0x13FF771F PUSH1 0xE2 SHL DUP2 MSTORE PUSH1 0x4 ADD PUSH1 0x40 MLOAD DUP1 SWAP2 SUB SWAP1 REVERT JUMPDEST PUSH1 0x0 SWAP2 DUP3 MSTORE PUSH1 0x20 DUP3 DUP2 MSTORE PUSH1 0x40 DUP1 DUP5 KECCAK256 PUSH1 0x1 PUSH1 0x1 PUSH1 0xA0 SHL SUB SWAP4 SWAP1 SWAP4 AND DUP5 MSTORE SWAP2 SWAP1 MSTORE SWAP1 KECCAK256 SLOAD PUSH1 0xFF AND SWAP1 JUMP JUMPDEST PUSH1 0x0 DUP1 MLOAD PUSH1 0x20 PUSH2 0x3172 DUP4 CODECOPY DUP2 MLOAD SWAP2 MSTORE PUSH2 0xE20 DUP2 PUSH2 0x11FE JUMP JUMPDEST PUSH2 0xE2B PUSH1 0x12 DUP4 PUSH2 0x18AD JUMP JUMPDEST PUSH2 0xABF JUMPI PUSH1 0x40 MLOAD PUSH4 0x5C46F67 PUSH1 0xE3 SHL DUP2 MSTORE PUSH1 0x4 ADD PUSH1 0x40 MLOAD DUP1 SWAP2 SUB SWAP1 REVERT JUMPDEST PUSH1 0x0 PUSH1 0x0 DUP1 MLOAD PUSH1 0x20 PUSH2 0x3172 DUP4 CODECOPY DUP2 MLOAD SWAP2 MSTORE PUSH2 0xE62 DUP2 PUSH2 0x11FE JUMP JUMPDEST POP POP PUSH1 0x7 SLOAD PUSH1 0x1 PUSH1 0x1 PUSH1 0xA0 SHL SUB AND SWAP1 JUMP JUMPDEST PUSH1 0x0 PUSH1 0x0 DUP1 MLOAD PUSH1 0x20 PUSH2 0x3172 DUP4 CODECOPY DUP2 MLOAD SWAP2 MSTORE PUSH2 0xE8D DUP2 PUSH2 0x11FE JUMP JUMPDEST PUSH8 0xDE0B6B3A7640000 PUSH1 0x10 PUSH1 0x0 DUP6 PUSH1 0x1 DUP2 GT ISZERO PUSH2 0xEAC JUMPI PUSH2 0xEAC PUSH2 0x2AC6 JUMP JUMPDEST DUP2 MSTORE PUSH1 0x20 ADD SWAP1 DUP2 MSTORE PUSH1 0x20 ADD PUSH1 0x0 KECCAK256 PUSH1 0x1 ADD SLOAD PUSH1 0x64 PUSH2 0xECA SWAP2 SWAP1 PUSH2 0x2C2C JUMP JUMPDEST PUSH2 0xED4 SWAP2 SWAP1 PUSH2 0x2C59 JUMP JUMPDEST SWAP2 POP JUMPDEST POP SWAP2 SWAP1 POP JUMP JUMPDEST PUSH1 0x0 DUP1 MLOAD PUSH1 0x20 PUSH2 0x3172 DUP4 CODECOPY DUP2 MLOAD SWAP2 MSTORE PUSH2 0xEF5 DUP2 PUSH2 0x11FE JUMP JUMPDEST DUP2 PUSH1 0x10 PUSH1 0x0 DUP6 PUSH1 0x1 DUP2 GT ISZERO PUSH2 0xF0C JUMPI PUSH2 0xF0C PUSH2 0x2AC6 JUMP JUMPDEST DUP2 MSTORE PUSH1 0x20 DUP1 DUP3 ADD SWAP3 SWAP1 SWAP3 MSTORE PUSH1 0x40 ADD PUSH1 0x0 KECCAK256 DUP3 MLOAD DUP2 SSTORE SWAP2 ADD MLOAD PUSH1 0x1 SWAP1 SWAP2 ADD SSTORE POP POP POP JUMP JUMPDEST PUSH2 0xF38 DUP3 PUSH2 0xA0F JUMP JUMPDEST PUSH2 0xF41 DUP2 PUSH2 0x11FE JUMP JUMPDEST PUSH2 0xA40 DUP4 DUP4 PUSH2 0x1727 JUMP JUMPDEST PUSH1 0x0 DUP1 MLOAD PUSH1 0x20 PUSH2 0x30E9 DUP4 CODECOPY DUP2 MLOAD SWAP2 MSTORE PUSH2 0xF63 DUP2 PUSH2 0x11FE JUMP JUMPDEST PUSH1 0xF SLOAD PUSH2 0x100 SWAP1 DIV PUSH1 0xFF AND PUSH2 0xF8B JUMPI PUSH1 0x40 MLOAD PUSH4 0x6CB45F15 PUSH1 0xE1 SHL DUP2 MSTORE PUSH1 0x4 ADD PUSH1 0x40 MLOAD DUP1 SWAP2 SUB SWAP1 REVERT JUMPDEST PUSH2 0xF93 PUSH2 0x178C JUMP JUMPDEST POP PUSH1 0xF DUP1 SLOAD PUSH2 0xFF00 NOT AND SWAP1 SSTORE JUMP JUMPDEST PUSH1 0x0 DUP1 MLOAD PUSH1 0x20 PUSH2 0x31B2 DUP4 CODECOPY DUP2 MLOAD SWAP2 MSTORE PUSH2 0xFB9 DUP2 PUSH2 0x11FE JUMP JUMPDEST PUSH1 0xF SLOAD PUSH1 0xFF AND PUSH2 0xFDC JUMPI PUSH1 0x40 MLOAD PUSH4 0x7D683D53 PUSH1 0xE0 SHL DUP2 MSTORE PUSH1 0x4 ADD PUSH1 0x40 MLOAD DUP1 SWAP2 SUB SWAP1 REVERT JUMPDEST PUSH2 0xFE4 PUSH2 0x139F JUMP JUMPDEST POP PUSH1 0xF DUP1 SLOAD PUSH1 0xFF NOT AND SWAP1 SSTORE JUMP JUMPDEST PUSH1 0x0 DUP1 MLOAD PUSH1 0x20 PUSH2 0x31B2 DUP4 CODECOPY DUP2 MLOAD SWAP2 MSTORE PUSH2 0x1009 DUP2 PUSH2 0x11FE JUMP JUMPDEST PUSH1 0x32 DUP3 PUSH1 0xFF AND GT ISZERO PUSH2 0x102E JUMPI PUSH1 0x40 MLOAD PUSH4 0x36EE37FB PUSH1 0xE2 SHL DUP2 MSTORE PUSH1 0x4 ADD PUSH1 0x40 MLOAD DUP1 SWAP2 SUB SWAP1 REVERT JUMPDEST PUSH1 0xF DUP1 SLOAD PUSH1 0xFF NOT AND SWAP1 SSTORE CALLER PUSH2 0x1044 DUP7 DUP6 DUP4 PUSH2 0x120B JUMP JUMPDEST PUSH1 0x1 PUSH1 0x0 SWAP1 DUP2 MSTORE PUSH1 0x10 PUSH1 0x20 MSTORE PUSH32 0x8C6065603763FEC3F5742441D3833F3F43B982453612D76ADB39A885E3006B5F SLOAD PUSH2 0x1082 SWAP1 PUSH3 0x48B15B PUSH1 0xE3 SHL PUSH2 0x1598 JUMP JUMPDEST SWAP1 POP PUSH2 0x10D2 PUSH1 0x40 MLOAD DUP1 PUSH1 0x40 ADD PUSH1 0x40 MSTORE DUP1 PUSH1 0x6 DUP2 MSTORE PUSH1 0x20 ADD PUSH6 0x1B595D1A1BD9 PUSH1 0xD2 SHL DUP2 MSTORE POP PUSH1 0x40 MLOAD DUP1 PUSH1 0x40 ADD PUSH1 0x40 MSTORE DUP1 PUSH1 0x3 DUP2 MSTORE PUSH1 0x20 ADD PUSH3 0x11D155 PUSH1 0xEA SHL DUP2 MSTORE POP DUP4 PUSH2 0x15BC SWAP1 SWAP3 SWAP2 SWAP1 PUSH4 0xFFFFFFFF AND JUMP JUMPDEST PUSH2 0x113F PUSH1 0x40 MLOAD DUP1 PUSH1 0x40 ADD PUSH1 0x40 MSTORE DUP1 PUSH1 0x3 DUP2 MSTORE PUSH1 0x20 ADD PUSH3 0x1D5C9B PUSH1 0xEA SHL DUP2 MSTORE POP PUSH2 0x10FA DUP10 PUSH2 0x15DA JUMP JUMPDEST PUSH2 0x1103 DUP10 PUSH2 0x15DA JUMP JUMPDEST PUSH2 0x110C DUP10 PUSH2 0x15F0 JUMP JUMPDEST PUSH2 0x1115 ADDRESS PUSH2 0x15DA JUMP JUMPDEST PUSH2 0x1121 DUP11 PUSH1 0xFF AND PUSH2 0x15F0 JUMP JUMPDEST PUSH2 0x112A DUP10 PUSH2 0x15DA JUMP JUMPDEST PUSH1 0x40 MLOAD PUSH1 0x20 ADD PUSH2 0x940 SWAP7 SWAP6 SWAP5 SWAP4 SWAP3 SWAP2 SWAP1 PUSH2 0x2CC1 JUMP JUMPDEST PUSH2 0x1198 PUSH1 0x40 MLOAD DUP1 PUSH1 0x40 ADD PUSH1 0x40 MSTORE DUP1 PUSH1 0x7 DUP2 MSTORE PUSH1 0x20 ADD PUSH7 0x18DBDB9D1858DD PUSH1 0xCA SHL DUP2 MSTORE POP PUSH1 0x40 MLOAD DUP1 PUSH1 0x40 ADD PUSH1 0x40 MSTORE DUP1 PUSH1 0xD DUP2 MSTORE PUSH1 0x20 ADD PUSH13 0x6C6F6375732D66696E616E6365 PUSH1 0x98 SHL DUP2 MSTORE POP DUP4 PUSH2 0x15BC SWAP1 SWAP3 SWAP2 SWAP1 PUSH4 0xFFFFFFFF AND JUMP JUMPDEST PUSH1 0x40 DUP1 MLOAD PUSH1 0x60 DUP2 ADD DUP3 MSTORE PUSH1 0x1 PUSH1 0x1 PUSH1 0xA0 SHL SUB DUP1 DUP11 AND DUP1 DUP4 MSTORE SWAP1 DUP10 AND PUSH1 0x20 DUP4 ADD DUP2 SWAP1 MSTORE SWAP2 SWAP1 SWAP3 ADD DUP8 SWAP1 MSTORE PUSH1 0xC DUP1 SLOAD PUSH1 0x1 PUSH1 0x1 PUSH1 0xA0 SHL SUB NOT SWAP1 DUP2 AND SWAP1 SWAP4 OR SWAP1 SSTORE PUSH1 0xD DUP1 SLOAD SWAP1 SWAP3 AND OR SWAP1 SSTORE PUSH1 0xE DUP6 SWAP1 SSTORE PUSH2 0x11F4 DUP2 PUSH1 0x10 PUSH1 0x0 PUSH1 0x1 PUSH2 0x9F0 JUMP JUMPDEST POP POP POP POP POP POP POP POP JUMP JUMPDEST PUSH2 0x1208 DUP2 CALLER PUSH2 0x18C2 JUMP JUMPDEST POP JUMP JUMPDEST DUP3 PUSH20 0xEEEEEEEEEEEEEEEEEEEEEEEEEEEEEEEEEEEEEEED NOT PUSH1 0x1 PUSH1 0x1 PUSH1 0xA0 SHL SUB DUP3 AND ADD PUSH2 0x1256 JUMPI DUP3 CALLVALUE EQ PUSH2 0x1251 JUMPI PUSH1 0x40 MLOAD PUSH4 0xDD86F53 PUSH1 0xE1 SHL DUP2 MSTORE PUSH1 0x4 ADD PUSH1 0x40 MLOAD DUP1 SWAP2 SUB SWAP1 REVERT JUMPDEST PUSH2 0x1399 JUMP JUMPDEST PUSH2 0x126B PUSH1 0x1 PUSH1 0x1 PUSH1 0xA0 SHL SUB DUP3 AND DUP4 ADDRESS DUP7 PUSH2 0x191B JUMP JUMPDEST PUSH1 0x40 MLOAD PUSH4 0x6EB1769F PUSH1 0xE1 SHL DUP2 MSTORE ADDRESS PUSH1 0x4 DUP3 ADD MSTORE PUSH1 0x1 PUSH1 0x1 PUSH1 0xA0 SHL SUB PUSH32 0x0 DUP2 AND PUSH1 0x24 DUP4 ADD MSTORE DUP5 SWAP2 SWAP1 DUP4 AND SWAP1 PUSH4 0xDD62ED3E SWAP1 PUSH1 0x44 ADD PUSH1 0x20 PUSH1 0x40 MLOAD DUP1 DUP4 SUB DUP2 DUP7 GAS STATICCALL ISZERO DUP1 ISZERO PUSH2 0x12DA JUMPI RETURNDATASIZE PUSH1 0x0 DUP1 RETURNDATACOPY RETURNDATASIZE PUSH1 0x0 REVERT JUMPDEST POP POP POP POP PUSH1 0x40 MLOAD RETURNDATASIZE PUSH1 0x1F NOT PUSH1 0x1F DUP3 ADD AND DUP3 ADD DUP1 PUSH1 0x40 MSTORE POP DUP2 ADD SWAP1 PUSH2 0x12FE SWAP2 SWAP1 PUSH2 0x2C6D JUMP JUMPDEST LT ISZERO PUSH2 0x1399 JUMPI PUSH1 0x40 MLOAD PUSH4 0x95EA7B3 PUSH1 0xE0 SHL DUP2 MSTORE PUSH1 0x1 PUSH1 0x1 PUSH1 0xA0 SHL SUB DUP3 AND SWAP1 PUSH4 0x95EA7B3 SWAP1 PUSH2 0x1354 SWAP1 PUSH32 0x0 SWAP1 PUSH1 0x0 NOT SWAP1 PUSH1 0x4 ADD PUSH2 0x2C86 JUMP JUMPDEST PUSH1 0x20 PUSH1 0x40 MLOAD DUP1 DUP4 SUB DUP2 PUSH1 0x0 DUP8 GAS CALL ISZERO DUP1 ISZERO PUSH2 0x1373 JUMPI RETURNDATASIZE PUSH1 0x0 DUP1 RETURNDATACOPY RETURNDATASIZE PUSH1 0x0 REVERT JUMPDEST POP POP POP POP PUSH1 0x40 MLOAD RETURNDATASIZE PUSH1 0x1F NOT PUSH1 0x1F DUP3 ADD AND DUP3 ADD DUP1 PUSH1 0x40 MSTORE POP DUP2 ADD SWAP1 PUSH2 0x1397 SWAP2 SWAP1 PUSH2 0x2C9F JUMP JUMPDEST POP JUMPDEST POP POP POP POP JUMP JUMPDEST PUSH1 0xC SLOAD PUSH1 0x1 PUSH1 0x1 PUSH1 0xA0 SHL SUB AND PUSH20 0xEEEEEEEEEEEEEEEEEEEEEEEEEEEEEEEEEEEEEEED NOT ADD PUSH2 0x148F JUMPI PUSH2 0x1489 PUSH1 0x11 DUP1 SLOAD PUSH2 0x13D6 SWAP1 PUSH2 0x298D JUMP JUMPDEST DUP1 PUSH1 0x1F ADD PUSH1 0x20 DUP1 SWAP2 DIV MUL PUSH1 0x20 ADD PUSH1 0x40 MLOAD SWAP1 DUP2 ADD PUSH1 0x40 MSTORE DUP1 SWAP3 SWAP2 SWAP1 DUP2 DUP2 MSTORE PUSH1 0x20 ADD DUP3 DUP1 SLOAD PUSH2 0x1402 SWAP1 PUSH2 0x298D JUMP JUMPDEST DUP1 ISZERO PUSH2 0x144F JUMPI DUP1 PUSH1 0x1F LT PUSH2 0x1424 JUMPI PUSH2 0x100 DUP1 DUP4 SLOAD DIV MUL DUP4 MSTORE SWAP2 PUSH1 0x20 ADD SWAP2 PUSH2 0x144F JUMP JUMPDEST DUP3 ADD SWAP2 SWAP1 PUSH1 0x0 MSTORE PUSH1 0x20 PUSH1 0x0 KECCAK256 SWAP1 JUMPDEST DUP2 SLOAD DUP2 MSTORE SWAP1 PUSH1 0x1 ADD SWAP1 PUSH1 0x20 ADD DUP1 DUP4 GT PUSH2 0x1432 JUMPI DUP3 SWAP1 SUB PUSH1 0x1F AND DUP3 ADD SWAP2 JUMPDEST POP POP PUSH1 0xE SLOAD PUSH1 0x1 PUSH1 0x1 PUSH1 0xA0 SHL SUB PUSH32 0x0 AND SWAP5 SWAP4 POP SWAP2 POP POP PUSH2 0x1973 JUMP JUMPDEST POP PUSH2 0x1557 JUMP JUMPDEST PUSH2 0x1555 PUSH1 0x11 DUP1 SLOAD PUSH2 0x149F SWAP1 PUSH2 0x298D JUMP JUMPDEST DUP1 PUSH1 0x1F ADD PUSH1 0x20 DUP1 SWAP2 DIV MUL PUSH1 0x20 ADD PUSH1 0x40 MLOAD SWAP1 DUP2 ADD PUSH1 0x40 MSTORE DUP1 SWAP3 SWAP2 SWAP1 DUP2 DUP2 MSTORE PUSH1 0x20 ADD DUP3 DUP1 SLOAD PUSH2 0x14CB SWAP1 PUSH2 0x298D JUMP JUMPDEST DUP1 ISZERO PUSH2 0x1518 JUMPI DUP1 PUSH1 0x1F LT PUSH2 0x14ED JUMPI PUSH2 0x100 DUP1 DUP4 SLOAD DIV MUL DUP4 MSTORE SWAP2 PUSH1 0x20 ADD SWAP2 PUSH2 0x1518 JUMP JUMPDEST DUP3 ADD SWAP2 SWAP1 PUSH1 0x0 MSTORE PUSH1 0x20 PUSH1 0x0 KECCAK256 SWAP1 JUMPDEST DUP2 SLOAD DUP2 MSTORE SWAP1 PUSH1 0x1 ADD SWAP1 PUSH1 0x20 ADD DUP1 DUP4 GT PUSH2 0x14FB JUMPI DUP3 SWAP1 SUB PUSH1 0x1F AND DUP3 ADD SWAP2 JUMPDEST POP POP POP POP POP PUSH32 0x0 PUSH1 0x1 PUSH1 0x1 PUSH1 0xA0 SHL SUB AND PUSH2 0x1999 SWAP1 SWAP2 SWAP1 PUSH4 0xFFFFFFFF AND JUMP JUMPDEST POP JUMPDEST PUSH1 0xC PUSH1 0x40 MLOAD PUSH2 0x1566 SWAP2 SWAP1 PUSH2 0x2E0E JUMP JUMPDEST PUSH1 0x40 MLOAD SWAP1 DUP2 SWAP1 SUB DUP2 KECCAK256 SWAP1 PUSH32 0x98D3AF501AC55740F44CC3D45B38CD162E715BD76AE2EC1704DB9BCF19DF528 SWAP1 PUSH1 0x0 SWAP1 LOG2 JUMP JUMPDEST PUSH2 0x15A0 PUSH2 0x25CB JUMP JUMPDEST PUSH2 0x15A8 PUSH2 0x25CB JUMP JUMPDEST PUSH2 0x15B4 DUP2 DUP6 ADDRESS DUP7 PUSH2 0x19DD JUMP JUMPDEST SWAP5 SWAP4 POP POP POP POP JUMP JUMPDEST PUSH1 0x80 DUP4 ADD MLOAD PUSH2 0x15CB SWAP1 DUP4 PUSH2 0x1A1A JUMP JUMPDEST PUSH1 0x80 DUP4 ADD MLOAD PUSH2 0xA40 SWAP1 DUP3 PUSH2 0x1A1A JUMP JUMPDEST PUSH1 0x60 PUSH2 0x76F PUSH1 0x1 PUSH1 0x1 PUSH1 0xA0 SHL SUB DUP4 AND PUSH1 0x14 PUSH2 0x1A31 JUMP JUMPDEST PUSH1 0x60 PUSH1 0x0 PUSH2 0x15FD DUP4 PUSH2 0x1BCC JUMP JUMPDEST PUSH1 0x1 ADD SWAP1 POP PUSH1 0x0 DUP2 PUSH1 0x1 PUSH1 0x1 PUSH1 0x40 SHL SUB DUP2 GT ISZERO PUSH2 0x161C JUMPI PUSH2 0x161C PUSH2 0x261A JUMP JUMPDEST PUSH1 0x40 MLOAD SWAP1 DUP1 DUP3 MSTORE DUP1 PUSH1 0x1F ADD PUSH1 0x1F NOT AND PUSH1 0x20 ADD DUP3 ADD PUSH1 0x40 MSTORE DUP1 ISZERO PUSH2 0x1646 JUMPI PUSH1 0x20 DUP3 ADD DUP2 DUP1 CALLDATASIZE DUP4 CALLDATACOPY ADD SWAP1 POP JUMPDEST POP SWAP1 POP DUP2 DUP2 ADD PUSH1 0x20 ADD JUMPDEST PUSH1 0x0 NOT ADD PUSH16 0x181899199A1A9B1B9C1CB0B131B232B3 PUSH1 0x81 SHL PUSH1 0xA DUP7 MOD BYTE DUP2 MSTORE8 PUSH1 0xA DUP6 DIV SWAP5 POP DUP5 PUSH2 0x1650 JUMPI POP SWAP4 SWAP3 POP POP POP JUMP JUMPDEST PUSH1 0x4 SLOAD PUSH1 0x0 SWAP1 PUSH2 0x169C SWAP1 PUSH1 0x1 PUSH1 0x1 PUSH1 0xA0 SHL SUB AND DUP5 DUP5 PUSH2 0x1CA2 JUMP JUMPDEST SWAP4 SWAP3 POP POP POP JUMP JUMPDEST PUSH2 0x16AD DUP3 DUP3 PUSH2 0xDDF JUMP JUMPDEST PUSH2 0xABF JUMPI PUSH1 0x0 DUP3 DUP2 MSTORE PUSH1 0x20 DUP2 DUP2 MSTORE PUSH1 0x40 DUP1 DUP4 KECCAK256 PUSH1 0x1 PUSH1 0x1 PUSH1 0xA0 SHL SUB DUP6 AND DUP5 MSTORE SWAP1 SWAP2 MSTORE SWAP1 KECCAK256 DUP1 SLOAD PUSH1 0xFF NOT AND PUSH1 0x1 OR SWAP1 SSTORE PUSH2 0x16E3 CALLER SWAP1 JUMP JUMPDEST PUSH1 0x1 PUSH1 0x1 PUSH1 0xA0 SHL SUB AND DUP2 PUSH1 0x1 PUSH1 0x1 PUSH1 0xA0 SHL SUB AND DUP4 PUSH32 0x2F8788117E7EFF1D82E926EC794901D17C78024A50270940304540A733656F0D PUSH1 0x40 MLOAD PUSH1 0x40 MLOAD DUP1 SWAP2 SUB SWAP1 LOG4 POP POP JUMP JUMPDEST PUSH2 0x1731 DUP3 DUP3 PUSH2 0xDDF JUMP JUMPDEST ISZERO PUSH2 0xABF JUMPI PUSH1 0x0 DUP3 DUP2 MSTORE PUSH1 0x20 DUP2 DUP2 MSTORE PUSH1 0x40 DUP1 DUP4 KECCAK256 PUSH1 0x1 PUSH1 0x1 PUSH1 0xA0 SHL SUB DUP6 AND DUP1 DUP6 MSTORE SWAP3 MSTORE DUP1 DUP4 KECCAK256 DUP1 SLOAD PUSH1 0xFF NOT AND SWAP1 SSTORE MLOAD CALLER SWAP3 DUP6 SWAP2 PUSH32 0xF6391F5C32D9C69D2A47EA670B442974B53935D1EDC7FD64EB21E047A839171B SWAP2 SWAP1 LOG4 POP POP JUMP JUMPDEST PUSH1 0x0 PUSH2 0x1798 PUSH1 0x12 PUSH2 0x1897 JUMP JUMPDEST SWAP1 POP PUSH1 0x0 JUMPDEST DUP2 DUP2 LT ISZERO PUSH2 0x183F JUMPI PUSH2 0x17B0 PUSH1 0x12 DUP3 PUSH2 0x18A1 JUMP JUMPDEST PUSH1 0x8 SLOAD PUSH1 0x9 SLOAD PUSH1 0xB SLOAD PUSH1 0xA SLOAD PUSH1 0x40 MLOAD PUSH4 0xB91DC4BB PUSH1 0xE0 SHL DUP2 MSTORE PUSH1 0x1 PUSH1 0x1 PUSH1 0xA0 SHL SUB SWAP5 DUP6 AND PUSH1 0x4 DUP3 ADD MSTORE SWAP3 DUP5 AND PUSH1 0x24 DUP5 ADD MSTORE PUSH1 0x44 DUP4 ADD SWAP2 SWAP1 SWAP2 MSTORE PUSH1 0x64 DUP3 ADD MSTORE SWAP2 AND SWAP1 PUSH4 0xB91DC4BB SWAP1 PUSH1 0x84 ADD PUSH1 0x0 PUSH1 0x40 MLOAD DUP1 DUP4 SUB DUP2 PUSH1 0x0 DUP8 DUP1 EXTCODESIZE ISZERO DUP1 ISZERO PUSH2 0x1814 JUMPI PUSH1 0x0 DUP1 REVERT JUMPDEST POP GAS CALL ISZERO DUP1 ISZERO PUSH2 0x1828 JUMPI RETURNDATASIZE PUSH1 0x0 DUP1 RETURNDATACOPY RETURNDATASIZE PUSH1 0x0 REVERT JUMPDEST POP POP POP POP DUP1 DUP1 PUSH2 0x1837 SWAP1 PUSH2 0x2E20 JUMP JUMPDEST SWAP2 POP POP PUSH2 0x179D JUMP JUMPDEST POP PUSH1 0x8 PUSH1 0x40 MLOAD PUSH2 0x184F SWAP2 SWAP1 PUSH2 0x2E39 JUMP JUMPDEST PUSH1 0x40 MLOAD SWAP1 DUP2 SWAP1 SUB DUP2 KECCAK256 SWAP1 PUSH32 0xA8E5B3954602A050E4FD58BFDB4679C92CDF00ADDEAD6C0178CED776602ED452 SWAP1 PUSH1 0x0 SWAP1 LOG2 POP JUMP JUMPDEST PUSH1 0x0 PUSH2 0x169C DUP4 PUSH1 0x1 PUSH1 0x1 PUSH1 0xA0 SHL SUB DUP5 AND PUSH2 0x1D33 JUMP JUMPDEST PUSH1 0x0 PUSH2 0x76F DUP3 SLOAD SWAP1 JUMP JUMPDEST PUSH1 0x0 PUSH2 0x169C DUP4 DUP4 PUSH2 0x1E26 JUMP JUMPDEST PUSH1 0x0 PUSH2 0x169C DUP4 PUSH1 0x1 PUSH1 0x1 PUSH1 0xA0 SHL SUB DUP5 AND PUSH2 0x1E50 JUMP JUMPDEST PUSH2 0x18CC DUP3 DUP3 PUSH2 0xDDF JUMP JUMPDEST PUSH2 0xABF JUMPI PUSH2 0x18D9 DUP2 PUSH2 0x15DA JUMP JUMPDEST PUSH2 0x18E4 DUP4 PUSH1 0x20 PUSH2 0x1A31 JUMP JUMPDEST PUSH1 0x40 MLOAD PUSH1 0x20 ADD PUSH2 0x18F5 SWAP3 SWAP2 SWAP1 PUSH2 0x2E55 JUMP JUMPDEST PUSH1 0x40 DUP1 MLOAD PUSH1 0x1F NOT DUP2 DUP5 SUB ADD DUP2 MSTORE SWAP1 DUP3 SWAP1 MSTORE PUSH3 0x461BCD PUSH1 0xE5 SHL DUP3 MSTORE PUSH2 0x7AD SWAP2 PUSH1 0x4 ADD PUSH2 0x2EF0 JUMP JUMPDEST PUSH2 0x1399 DUP5 PUSH4 0x23B872DD PUSH1 0xE0 SHL DUP6 DUP6 DUP6 PUSH1 0x40 MLOAD PUSH1 0x24 ADD PUSH2 0x193C SWAP4 SWAP3 SWAP2 SWAP1 PUSH2 0x2914 JUMP JUMPDEST PUSH1 0x40 DUP1 MLOAD PUSH1 0x1F NOT DUP2 DUP5 SUB ADD DUP2 MSTORE SWAP2 SWAP1 MSTORE PUSH1 0x20 DUP2 ADD DUP1 MLOAD PUSH1 0x1 PUSH1 0x1 PUSH1 0xE0 SHL SUB AND PUSH1 0x1 PUSH1 0x1 PUSH1 0xE0 SHL SUB NOT SWAP1 SWAP4 AND SWAP3 SWAP1 SWAP3 OR SWAP1 SWAP2 MSTORE PUSH2 0x1E9F JUMP JUMPDEST PUSH1 0x60 PUSH2 0x15B4 DUP5 DUP5 DUP5 PUSH1 0x40 MLOAD DUP1 PUSH1 0x60 ADD PUSH1 0x40 MSTORE DUP1 PUSH1 0x29 DUP2 MSTORE PUSH1 0x20 ADD PUSH2 0x3129 PUSH1 0x29 SWAP2 CODECOPY PUSH2 0x1F74 JUMP JUMPDEST PUSH1 0x60 PUSH2 0x169C DUP4 DUP4 PUSH1 0x0 PUSH1 0x40 MLOAD DUP1 PUSH1 0x40 ADD PUSH1 0x40 MSTORE DUP1 PUSH1 0x1E DUP2 MSTORE PUSH1 0x20 ADD PUSH32 0x416464726573733A206C6F772D6C6576656C2063616C6C206661696C65640000 DUP2 MSTORE POP PUSH2 0x1F74 JUMP JUMPDEST PUSH2 0x19E5 PUSH2 0x25CB JUMP JUMPDEST PUSH2 0x19F5 DUP6 PUSH1 0x80 ADD MLOAD PUSH2 0x100 PUSH2 0x204F JUMP JUMPDEST POP POP SWAP2 DUP4 MSTORE PUSH1 0x1 PUSH1 0x1 PUSH1 0xA0 SHL SUB AND PUSH1 0x20 DUP4 ADD MSTORE PUSH1 0x1 PUSH1 0x1 PUSH1 0xE0 SHL SUB NOT AND PUSH1 0x40 DUP3 ADD MSTORE SWAP1 JUMP JUMPDEST PUSH2 0x1A27 DUP3 PUSH1 0x3 DUP4 MLOAD PUSH2 0x20A7 JUMP JUMPDEST PUSH2 0xA40 DUP3 DUP3 PUSH2 0x21AE JUMP JUMPDEST PUSH1 0x60 PUSH1 0x0 PUSH2 0x1A40 DUP4 PUSH1 0x2 PUSH2 0x2C2C JUMP JUMPDEST PUSH2 0x1A4B SWAP1 PUSH1 0x2 PUSH2 0x2F03 JUMP JUMPDEST PUSH1 0x1 PUSH1 0x1 PUSH1 0x40 SHL SUB DUP2 GT ISZERO PUSH2 0x1A62 JUMPI PUSH2 0x1A62 PUSH2 0x261A JUMP JUMPDEST PUSH1 0x40 MLOAD SWAP1 DUP1 DUP3 MSTORE DUP1 PUSH1 0x1F ADD PUSH1 0x1F NOT AND PUSH1 0x20 ADD DUP3 ADD PUSH1 0x40 MSTORE DUP1 ISZERO PUSH2 0x1A8C JUMPI PUSH1 0x20 DUP3 ADD DUP2 DUP1 CALLDATASIZE DUP4 CALLDATACOPY ADD SWAP1 POP JUMPDEST POP SWAP1 POP PUSH1 0x3 PUSH1 0xFC SHL DUP2 PUSH1 0x0 DUP2 MLOAD DUP2 LT PUSH2 0x1AA7 JUMPI PUSH2 0x1AA7 PUSH2 0x2F16 JUMP JUMPDEST PUSH1 0x20 ADD ADD SWAP1 PUSH1 0x1 PUSH1 0x1 PUSH1 0xF8 SHL SUB NOT AND SWAP1 DUP2 PUSH1 0x0 BYTE SWAP1 MSTORE8 POP PUSH1 0xF PUSH1 0xFB SHL DUP2 PUSH1 0x1 DUP2 MLOAD DUP2 LT PUSH2 0x1AD6 JUMPI PUSH2 0x1AD6 PUSH2 0x2F16 JUMP JUMPDEST PUSH1 0x20 ADD ADD SWAP1 PUSH1 0x1 PUSH1 0x1 PUSH1 0xF8 SHL SUB NOT AND SWAP1 DUP2 PUSH1 0x0 BYTE SWAP1 MSTORE8 POP PUSH1 0x0 PUSH2 0x1AFA DUP5 PUSH1 0x2 PUSH2 0x2C2C JUMP JUMPDEST PUSH2 0x1B05 SWAP1 PUSH1 0x1 PUSH2 0x2F03 JUMP JUMPDEST SWAP1 POP JUMPDEST PUSH1 0x1 DUP2 GT ISZERO PUSH2 0x1B7D JUMPI PUSH16 0x181899199A1A9B1B9C1CB0B131B232B3 PUSH1 0x81 SHL DUP6 PUSH1 0xF AND PUSH1 0x10 DUP2 LT PUSH2 0x1B39 JUMPI PUSH2 0x1B39 PUSH2 0x2F16 JUMP JUMPDEST BYTE PUSH1 0xF8 SHL DUP3 DUP3 DUP2 MLOAD DUP2 LT PUSH2 0x1B4F JUMPI PUSH2 0x1B4F PUSH2 0x2F16 JUMP JUMPDEST PUSH1 0x20 ADD ADD SWAP1 PUSH1 0x1 PUSH1 0x1 PUSH1 0xF8 SHL SUB NOT AND SWAP1 DUP2 PUSH1 0x0 BYTE SWAP1 MSTORE8 POP PUSH1 0x4 SWAP5 SWAP1 SWAP5 SHR SWAP4 PUSH2 0x1B76 DUP2 PUSH2 0x2F2C JUMP JUMPDEST SWAP1 POP PUSH2 0x1B08 JUMP JUMPDEST POP DUP4 ISZERO PUSH2 0x169C JUMPI PUSH1 0x40 MLOAD PUSH3 0x461BCD PUSH1 0xE5 SHL DUP2 MSTORE PUSH1 0x20 PUSH1 0x4 DUP3 ADD DUP2 SWAP1 MSTORE PUSH1 0x24 DUP3 ADD MSTORE PUSH32 0x537472696E67733A20686578206C656E67746820696E73756666696369656E74 PUSH1 0x44 DUP3 ADD MSTORE PUSH1 0x64 ADD PUSH2 0x7AD JUMP JUMPDEST PUSH1 0x0 DUP1 PUSH19 0x184F03E93FF9F4DAA797ED6E38ED64BF6A1F01 PUSH1 0x40 SHL DUP4 LT PUSH2 0x1C0B JUMPI PUSH19 0x184F03E93FF9F4DAA797ED6E38ED64BF6A1F01 PUSH1 0x40 SHL DUP4 DIV SWAP3 POP PUSH1 0x40 ADD JUMPDEST PUSH10 0x4EE2D6D415B85ACEF81 PUSH1 0x20 SHL DUP4 LT PUSH2 0x1C35 JUMPI PUSH10 0x4EE2D6D415B85ACEF81 PUSH1 0x20 SHL DUP4 DIV SWAP3 POP PUSH1 0x20 ADD JUMPDEST PUSH7 0x2386F26FC10000 DUP4 LT PUSH2 0x1C53 JUMPI PUSH7 0x2386F26FC10000 DUP4 DIV SWAP3 POP PUSH1 0x10 ADD JUMPDEST PUSH4 0x5F5E100 DUP4 LT PUSH2 0x1C6B JUMPI PUSH4 0x5F5E100 DUP4 DIV SWAP3 POP PUSH1 0x8 ADD JUMPDEST PUSH2 0x2710 DUP4 LT PUSH2 0x1C7F JUMPI PUSH2 0x2710 DUP4 DIV SWAP3 POP PUSH1 0x4 ADD JUMPDEST PUSH1 0x64 DUP4 LT PUSH2 0x1C91 JUMPI PUSH1 0x64 DUP4 DIV SWAP3 POP PUSH1 0x2 ADD JUMPDEST PUSH1 0xA DUP4 LT PUSH2 0x76F JUMPI PUSH1 0x1 ADD SWAP3 SWAP2 POP POP JUMP JUMPDEST PUSH1 0x5 SLOAD PUSH1 0x0 SWAP1 PUSH2 0x1CB3 DUP2 PUSH1 0x1 PUSH2 0x2F03 JUMP JUMPDEST PUSH1 0x5 SSTORE DUP4 MLOAD PUSH1 0x40 DUP1 DUP7 ADD MLOAD PUSH1 0x80 DUP8 ADD MLOAD MLOAD SWAP2 MLOAD PUSH1 0x0 SWAP4 PUSH4 0x3C6D41B9 PUSH1 0xE0 SHL SWAP4 PUSH2 0x1CE9 SWAP4 DUP7 SWAP4 DUP5 SWAP4 SWAP3 DUP10 SWAP2 PUSH1 0x2 SWAP2 SWAP1 PUSH1 0x24 ADD PUSH2 0x2F43 JUMP JUMPDEST PUSH1 0x40 DUP1 MLOAD PUSH1 0x1F NOT DUP2 DUP5 SUB ADD DUP2 MSTORE SWAP2 SWAP1 MSTORE PUSH1 0x20 DUP2 ADD DUP1 MLOAD PUSH1 0x1 PUSH1 0x1 PUSH1 0xE0 SHL SUB AND PUSH1 0x1 PUSH1 0x1 PUSH1 0xE0 SHL SUB NOT SWAP1 SWAP4 AND SWAP3 SWAP1 SWAP3 OR SWAP1 SWAP2 MSTORE SWAP1 POP PUSH2 0x1D29 DUP7 DUP4 DUP7 DUP5 PUSH2 0x21C8 JUMP JUMPDEST SWAP7 SWAP6 POP POP POP POP POP POP JUMP JUMPDEST PUSH1 0x0 DUP2 DUP2 MSTORE PUSH1 0x1 DUP4 ADD PUSH1 0x20 MSTORE PUSH1 0x40 DUP2 KECCAK256 SLOAD DUP1 ISZERO PUSH2 0x1E1C JUMPI PUSH1 0x0 PUSH2 0x1D57 PUSH1 0x1 DUP4 PUSH2 0x2F8B JUMP JUMPDEST DUP6 SLOAD SWAP1 SWAP2 POP PUSH1 0x0 SWAP1 PUSH2 0x1D6B SWAP1 PUSH1 0x1 SWAP1 PUSH2 0x2F8B JUMP JUMPDEST SWAP1 POP DUP2 DUP2 EQ PUSH2 0x1DD0 JUMPI PUSH1 0x0 DUP7 PUSH1 0x0 ADD DUP3 DUP2 SLOAD DUP2 LT PUSH2 0x1D8B JUMPI PUSH2 0x1D8B PUSH2 0x2F16 JUMP JUMPDEST SWAP1 PUSH1 0x0 MSTORE PUSH1 0x20 PUSH1 0x0 KECCAK256 ADD SLOAD SWAP1 POP DUP1 DUP8 PUSH1 0x0 ADD DUP5 DUP2 SLOAD DUP2 LT PUSH2 0x1DAE JUMPI PUSH2 0x1DAE PUSH2 0x2F16 JUMP JUMPDEST PUSH1 0x0 SWAP2 DUP3 MSTORE PUSH1 0x20 DUP1 DUP4 KECCAK256 SWAP1 SWAP2 ADD SWAP3 SWAP1 SWAP3 SSTORE SWAP2 DUP3 MSTORE PUSH1 0x1 DUP9 ADD SWAP1 MSTORE PUSH1 0x40 SWAP1 KECCAK256 DUP4 SWAP1 SSTORE JUMPDEST DUP6 SLOAD DUP7 SWAP1 DUP1 PUSH2 0x1DE1 JUMPI PUSH2 0x1DE1 PUSH2 0x2F9E JUMP JUMPDEST PUSH1 0x1 SWAP1 SUB DUP2 DUP2 SWAP1 PUSH1 0x0 MSTORE PUSH1 0x20 PUSH1 0x0 KECCAK256 ADD PUSH1 0x0 SWAP1 SSTORE SWAP1 SSTORE DUP6 PUSH1 0x1 ADD PUSH1 0x0 DUP7 DUP2 MSTORE PUSH1 0x20 ADD SWAP1 DUP2 MSTORE PUSH1 0x20 ADD PUSH1 0x0 KECCAK256 PUSH1 0x0 SWAP1 SSTORE PUSH1 0x1 SWAP4 POP POP POP POP PUSH2 0x76F JUMP JUMPDEST PUSH1 0x0 SWAP2 POP POP PUSH2 0x76F JUMP JUMPDEST PUSH1 0x0 DUP3 PUSH1 0x0 ADD DUP3 DUP2 SLOAD DUP2 LT PUSH2 0x1E3D JUMPI PUSH2 0x1E3D PUSH2 0x2F16 JUMP JUMPDEST SWAP1 PUSH1 0x0 MSTORE PUSH1 0x20 PUSH1 0x0 KECCAK256 ADD SLOAD SWAP1 POP SWAP3 SWAP2 POP POP JUMP JUMPDEST PUSH1 0x0 DUP2 DUP2 MSTORE PUSH1 0x1 DUP4 ADD PUSH1 0x20 MSTORE PUSH1 0x40 DUP2 KECCAK256 SLOAD PUSH2 0x1E97 JUMPI POP DUP2 SLOAD PUSH1 0x1 DUP2 DUP2 ADD DUP5 SSTORE PUSH1 0x0 DUP5 DUP2 MSTORE PUSH1 0x20 DUP1 DUP3 KECCAK256 SWAP1 SWAP4 ADD DUP5 SWAP1 SSTORE DUP5 SLOAD DUP5 DUP3 MSTORE DUP3 DUP7 ADD SWAP1 SWAP4 MSTORE PUSH1 0x40 SWAP1 KECCAK256 SWAP2 SWAP1 SWAP2 SSTORE PUSH2 0x76F JUMP JUMPDEST POP PUSH1 0x0 PUSH2 0x76F JUMP JUMPDEST PUSH1 0x0 PUSH2 0x1EF4 DUP3 PUSH1 0x40 MLOAD DUP1 PUSH1 0x40 ADD PUSH1 0x40 MSTORE DUP1 PUSH1 0x20 DUP2 MSTORE PUSH1 0x20 ADD PUSH32 0x5361666545524332303A206C6F772D6C6576656C2063616C6C206661696C6564 DUP2 MSTORE POP DUP6 PUSH1 0x1 PUSH1 0x1 PUSH1 0xA0 SHL SUB AND PUSH2 0x2321 SWAP1 SWAP3 SWAP2 SWAP1 PUSH4 0xFFFFFFFF AND JUMP JUMPDEST SWAP1 POP DUP1 MLOAD PUSH1 0x0 EQ DUP1 PUSH2 0x1F15 JUMPI POP DUP1 DUP1 PUSH1 0x20 ADD SWAP1 MLOAD DUP2 ADD SWAP1 PUSH2 0x1F15 SWAP2 SWAP1 PUSH2 0x2C9F JUMP JUMPDEST PUSH2 0xA40 JUMPI PUSH1 0x40 MLOAD PUSH3 0x461BCD PUSH1 0xE5 SHL DUP2 MSTORE PUSH1 0x20 PUSH1 0x4 DUP3 ADD MSTORE PUSH1 0x2A PUSH1 0x24 DUP3 ADD MSTORE PUSH32 0x5361666545524332303A204552433230206F7065726174696F6E20646964206E PUSH1 0x44 DUP3 ADD MSTORE PUSH10 0x1BDD081CDD58D8D95959 PUSH1 0xB2 SHL PUSH1 0x64 DUP3 ADD MSTORE PUSH1 0x84 ADD PUSH2 0x7AD JUMP JUMPDEST PUSH1 0x60 DUP3 SELFBALANCE LT ISZERO PUSH2 0x1FD5 JUMPI PUSH1 0x40 MLOAD PUSH3 0x461BCD PUSH1 0xE5 SHL DUP2 MSTORE PUSH1 0x20 PUSH1 0x4 DUP3 ADD MSTORE PUSH1 0x26 PUSH1 0x24 DUP3 ADD MSTORE PUSH32 0x416464726573733A20696E73756666696369656E742062616C616E636520666F PUSH1 0x44 DUP3 ADD MSTORE PUSH6 0x1C8818D85B1B PUSH1 0xD2 SHL PUSH1 0x64 DUP3 ADD MSTORE PUSH1 0x84 ADD PUSH2 0x7AD JUMP JUMPDEST PUSH1 0x0 DUP1 DUP7 PUSH1 0x1 PUSH1 0x1 PUSH1 0xA0 SHL SUB AND DUP6 DUP8 PUSH1 0x40 MLOAD PUSH2 0x1FF1 SWAP2 SWAP1 PUSH2 0x2B64 JUMP JUMPDEST PUSH1 0x0 PUSH1 0x40 MLOAD DUP1 DUP4 SUB DUP2 DUP6 DUP8 GAS CALL SWAP3 POP POP POP RETURNDATASIZE DUP1 PUSH1 0x0 DUP2 EQ PUSH2 0x202E JUMPI PUSH1 0x40 MLOAD SWAP2 POP PUSH1 0x1F NOT PUSH1 0x3F RETURNDATASIZE ADD AND DUP3 ADD PUSH1 0x40 MSTORE RETURNDATASIZE DUP3 MSTORE RETURNDATASIZE PUSH1 0x0 PUSH1 0x20 DUP5 ADD RETURNDATACOPY PUSH2 0x2033 JUMP JUMPDEST PUSH1 0x60 SWAP2 POP JUMPDEST POP SWAP2 POP SWAP2 POP PUSH2 0x2044 DUP8 DUP4 DUP4 DUP8 PUSH2 0x2330 JUMP JUMPDEST SWAP8 SWAP7 POP POP POP POP POP POP POP JUMP JUMPDEST PUSH2 0x2057 PUSH2 0x2600 JUMP JUMPDEST PUSH2 0x2062 PUSH1 0x20 DUP4 PUSH2 0x2FB4 JUMP JUMPDEST ISZERO PUSH2 0x208A JUMPI PUSH2 0x2072 PUSH1 0x20 DUP4 PUSH2 0x2FB4 JUMP JUMPDEST PUSH2 0x207D SWAP1 PUSH1 0x20 PUSH2 0x2F8B JUMP JUMPDEST PUSH2 0x2087 SWAP1 DUP4 PUSH2 0x2F03 JUMP JUMPDEST SWAP2 POP JUMPDEST POP PUSH1 0x20 DUP3 DUP2 ADD DUP3 SWAP1 MSTORE PUSH1 0x40 DUP1 MLOAD DUP1 DUP6 MSTORE PUSH1 0x0 DUP2 MSTORE SWAP1 SWAP3 ADD ADD SWAP1 MSTORE SWAP1 JUMP JUMPDEST PUSH1 0x17 DUP2 PUSH1 0x1 PUSH1 0x1 PUSH1 0x40 SHL SUB AND GT PUSH2 0x20CB JUMPI PUSH2 0x1399 DUP4 PUSH1 0xE0 PUSH1 0x5 DUP6 SWAP1 SHL AND DUP4 OR PUSH2 0x23A9 JUMP JUMPDEST PUSH1 0xFF DUP2 PUSH1 0x1 PUSH1 0x1 PUSH1 0x40 SHL SUB AND GT PUSH2 0x2107 JUMPI PUSH2 0x20F1 DUP4 PUSH1 0x18 PUSH2 0x1FE0 PUSH1 0x5 DUP7 SWAP1 SHL AND OR PUSH2 0x23A9 JUMP JUMPDEST POP PUSH2 0x1399 DUP4 PUSH1 0x1 PUSH1 0x1 PUSH1 0x40 SHL SUB DUP4 AND PUSH1 0x1 PUSH2 0x23C1 JUMP JUMPDEST PUSH2 0xFFFF DUP2 PUSH1 0x1 PUSH1 0x1 PUSH1 0x40 SHL SUB AND GT PUSH2 0x2144 JUMPI PUSH2 0x212E DUP4 PUSH1 0x19 PUSH2 0x1FE0 PUSH1 0x5 DUP7 SWAP1 SHL AND OR PUSH2 0x23A9 JUMP JUMPDEST POP PUSH2 0x1399 DUP4 PUSH1 0x1 PUSH1 0x1 PUSH1 0x40 SHL SUB DUP4 AND PUSH1 0x2 PUSH2 0x23C1 JUMP JUMPDEST PUSH4 0xFFFFFFFF DUP2 PUSH1 0x1 PUSH1 0x1 PUSH1 0x40 SHL SUB AND GT PUSH2 0x2183 JUMPI PUSH2 0x216D DUP4 PUSH1 0x1A PUSH2 0x1FE0 PUSH1 0x5 DUP7 SWAP1 SHL AND OR PUSH2 0x23A9 JUMP JUMPDEST POP PUSH2 0x1399 DUP4 PUSH1 0x1 PUSH1 0x1 PUSH1 0x40 SHL SUB DUP4 AND PUSH1 0x4 PUSH2 0x23C1 JUMP JUMPDEST PUSH2 0x2198 DUP4 PUSH1 0x1B PUSH2 0x1FE0 PUSH1 0x5 DUP7 SWAP1 SHL AND OR PUSH2 0x23A9 JUMP JUMPDEST POP PUSH2 0x1399 DUP4 PUSH1 0x1 PUSH1 0x1 PUSH1 0x40 SHL SUB DUP4 AND PUSH1 0x8 PUSH2 0x23C1 JUMP JUMPDEST PUSH2 0x21B6 PUSH2 0x2600 JUMP JUMPDEST PUSH2 0x169C DUP4 DUP5 PUSH1 0x0 ADD MLOAD MLOAD DUP5 DUP6 MLOAD PUSH2 0x23DA JUMP JUMPDEST PUSH1 0x40 MLOAD PUSH1 0x1 PUSH1 0x1 PUSH1 0x60 SHL SUB NOT ADDRESS PUSH1 0x60 SHL AND PUSH1 0x20 DUP3 ADD MSTORE PUSH1 0x34 DUP2 ADD DUP5 SWAP1 MSTORE PUSH1 0x0 SWAP1 PUSH1 0x54 ADD PUSH1 0x40 DUP1 MLOAD DUP1 DUP4 SUB PUSH1 0x1F NOT ADD DUP2 MSTORE DUP3 DUP3 MSTORE DUP1 MLOAD PUSH1 0x20 SWAP2 DUP3 ADD KECCAK256 PUSH1 0x0 DUP2 DUP2 MSTORE PUSH1 0x6 SWAP1 SWAP3 MSTORE SWAP2 DUP2 KECCAK256 DUP1 SLOAD PUSH1 0x1 PUSH1 0x1 PUSH1 0xA0 SHL SUB NOT AND PUSH1 0x1 PUSH1 0x1 PUSH1 0xA0 SHL SUB DUP11 AND OR SWAP1 SSTORE SWAP1 SWAP3 POP DUP3 SWAP2 PUSH32 0xB5E6E01E79F91267DC17B4E6314D5D4D03593D2CEEE0FBB452B750BD70EA5AF9 SWAP2 SWAP1 LOG2 PUSH1 0x3 SLOAD PUSH1 0x40 MLOAD PUSH4 0x2000575 PUSH1 0xE5 SHL DUP2 MSTORE PUSH1 0x1 PUSH1 0x1 PUSH1 0xA0 SHL SUB SWAP1 SWAP2 AND SWAP1 PUSH4 0x4000AEA0 SWAP1 PUSH2 0x2286 SWAP1 DUP9 SWAP1 DUP8 SWAP1 DUP8 SWAP1 PUSH1 0x4 ADD PUSH2 0x2FC8 JUMP JUMPDEST PUSH1 0x20 PUSH1 0x40 MLOAD DUP1 DUP4 SUB DUP2 PUSH1 0x0 DUP8 GAS CALL ISZERO DUP1 ISZERO PUSH2 0x22A5 JUMPI RETURNDATASIZE PUSH1 0x0 DUP1 RETURNDATACOPY RETURNDATASIZE PUSH1 0x0 REVERT JUMPDEST POP POP POP POP PUSH1 0x40 MLOAD RETURNDATASIZE PUSH1 0x1F NOT PUSH1 0x1F DUP3 ADD AND DUP3 ADD DUP1 PUSH1 0x40 MSTORE POP DUP2 ADD SWAP1 PUSH2 0x22C9 SWAP2 SWAP1 PUSH2 0x2C9F JUMP JUMPDEST PUSH2 0x15B4 JUMPI PUSH1 0x40 MLOAD PUSH3 0x461BCD PUSH1 0xE5 SHL DUP2 MSTORE PUSH1 0x20 PUSH1 0x4 DUP3 ADD MSTORE PUSH1 0x23 PUSH1 0x24 DUP3 ADD MSTORE PUSH32 0x756E61626C6520746F207472616E73666572416E6443616C6C20746F206F7261 PUSH1 0x44 DUP3 ADD MSTORE PUSH3 0x636C65 PUSH1 0xE8 SHL PUSH1 0x64 DUP3 ADD MSTORE PUSH1 0x84 ADD PUSH2 0x7AD JUMP JUMPDEST PUSH1 0x60 PUSH2 0x15B4 DUP5 DUP5 PUSH1 0x0 DUP6 PUSH2 0x1F74 JUMP JUMPDEST PUSH1 0x60 DUP4 ISZERO PUSH2 0x239F JUMPI DUP3 MLOAD PUSH1 0x0 SUB PUSH2 0x2398 JUMPI PUSH1 0x1 PUSH1 0x1 PUSH1 0xA0 SHL SUB DUP6 AND EXTCODESIZE PUSH2 0x2398 JUMPI PUSH1 0x40 MLOAD PUSH3 0x461BCD PUSH1 0xE5 SHL DUP2 MSTORE PUSH1 0x20 PUSH1 0x4 DUP3 ADD MSTORE PUSH1 0x1D PUSH1 0x24 DUP3 ADD MSTORE PUSH32 0x416464726573733A2063616C6C20746F206E6F6E2D636F6E7472616374000000 PUSH1 0x44 DUP3 ADD MSTORE PUSH1 0x64 ADD PUSH2 0x7AD JUMP JUMPDEST POP DUP2 PUSH2 0x15B4 JUMP JUMPDEST PUSH2 0x15B4 DUP4 DUP4 PUSH2 0x24B7 JUMP JUMPDEST PUSH2 0x23B1 PUSH2 0x2600 JUMP JUMPDEST PUSH2 0x169C DUP4 DUP5 PUSH1 0x0 ADD MLOAD MLOAD DUP5 PUSH2 0x24E1 JUMP JUMPDEST PUSH2 0x23C9 PUSH2 0x2600 JUMP JUMPDEST PUSH2 0x15B4 DUP5 DUP6 PUSH1 0x0 ADD MLOAD MLOAD DUP6 DUP6 PUSH2 0x252F JUMP JUMPDEST PUSH2 0x23E2 PUSH2 0x2600 JUMP JUMPDEST DUP3 MLOAD DUP3 GT ISZERO PUSH2 0x23F0 JUMPI PUSH1 0x0 DUP1 REVERT JUMPDEST PUSH1 0x20 DUP6 ADD MLOAD PUSH2 0x23FF DUP4 DUP7 PUSH2 0x2F03 JUMP JUMPDEST GT ISZERO PUSH2 0x2432 JUMPI PUSH2 0x2432 DUP6 PUSH2 0x2422 DUP8 PUSH1 0x20 ADD MLOAD DUP8 DUP7 PUSH2 0x241D SWAP2 SWAP1 PUSH2 0x2F03 JUMP JUMPDEST PUSH2 0x25A3 JUMP JUMPDEST PUSH2 0x242D SWAP1 PUSH1 0x2 PUSH2 0x2C2C JUMP JUMPDEST PUSH2 0x25B4 JUMP JUMPDEST PUSH1 0x0 DUP1 DUP7 MLOAD DUP1 MLOAD DUP8 PUSH1 0x20 DUP4 ADD ADD SWAP4 POP DUP1 DUP9 DUP8 ADD GT ISZERO PUSH2 0x2451 JUMPI DUP8 DUP7 ADD DUP3 MSTORE JUMPDEST POP POP POP PUSH1 0x20 DUP5 ADD JUMPDEST PUSH1 0x20 DUP5 LT PUSH2 0x2491 JUMPI DUP1 MLOAD DUP3 MSTORE PUSH2 0x2470 PUSH1 0x20 DUP4 PUSH2 0x2F03 JUMP JUMPDEST SWAP2 POP PUSH2 0x247D PUSH1 0x20 DUP3 PUSH2 0x2F03 JUMP JUMPDEST SWAP1 POP PUSH2 0x248A PUSH1 0x20 DUP6 PUSH2 0x2F8B JUMP JUMPDEST SWAP4 POP PUSH2 0x2459 JUMP JUMPDEST MLOAD DUP2 MLOAD PUSH1 0x0 NOT PUSH1 0x20 DUP7 SWAP1 SUB PUSH2 0x100 EXP ADD SWAP1 DUP2 AND SWAP1 NOT SWAP2 SWAP1 SWAP2 AND OR SWAP1 MSTORE POP DUP4 SWAP5 SWAP4 POP POP POP POP JUMP JUMPDEST DUP2 MLOAD ISZERO PUSH2 0x24C7 JUMPI DUP2 MLOAD DUP1 DUP4 PUSH1 0x20 ADD REVERT JUMPDEST DUP1 PUSH1 0x40 MLOAD PUSH3 0x461BCD PUSH1 0xE5 SHL DUP2 MSTORE PUSH1 0x4 ADD PUSH2 0x7AD SWAP2 SWAP1 PUSH2 0x2EF0 JUMP JUMPDEST PUSH2 0x24E9 PUSH2 0x2600 JUMP JUMPDEST DUP4 PUSH1 0x20 ADD MLOAD DUP4 LT PUSH2 0x2509 JUMPI PUSH2 0x2509 DUP5 DUP6 PUSH1 0x20 ADD MLOAD PUSH1 0x2 PUSH2 0x242D SWAP2 SWAP1 PUSH2 0x2C2C JUMP JUMPDEST DUP4 MLOAD DUP1 MLOAD PUSH1 0x20 DUP6 DUP4 ADD ADD DUP5 DUP2 MSTORE8 POP DUP1 DUP6 SUB PUSH2 0x2525 JUMPI PUSH1 0x1 DUP2 ADD DUP3 MSTORE JUMPDEST POP SWAP4 SWAP5 SWAP4 POP POP POP POP JUMP JUMPDEST PUSH2 0x2537 PUSH2 0x2600 JUMP JUMPDEST PUSH1 0x20 DUP6 ADD MLOAD PUSH2 0x2546 DUP6 DUP5 PUSH2 0x2F03 JUMP JUMPDEST GT ISZERO PUSH2 0x255A JUMPI PUSH2 0x255A DUP6 PUSH2 0x2422 DUP7 DUP6 PUSH2 0x2F03 JUMP JUMPDEST PUSH1 0x0 PUSH1 0x1 PUSH2 0x256A DUP5 PUSH2 0x100 PUSH2 0x30DC JUMP JUMPDEST PUSH2 0x2574 SWAP2 SWAP1 PUSH2 0x2F8B JUMP JUMPDEST SWAP1 POP DUP6 MLOAD DUP4 DUP7 DUP3 ADD ADD DUP6 DUP4 NOT DUP3 MLOAD AND OR DUP2 MSTORE POP DUP1 MLOAD DUP5 DUP8 ADD GT ISZERO PUSH2 0x2598 JUMPI DUP4 DUP7 ADD DUP2 MSTORE JUMPDEST POP SWAP5 SWAP6 SWAP5 POP POP POP POP POP JUMP JUMPDEST PUSH1 0x0 DUP2 DUP4 GT ISZERO PUSH2 0xED7 JUMPI POP DUP2 PUSH2 0x76F JUMP JUMPDEST DUP2 MLOAD PUSH2 0x25C0 DUP4 DUP4 PUSH2 0x204F JUMP JUMPDEST POP PUSH2 0x1399 DUP4 DUP3 PUSH2 0x21AE JUMP JUMPDEST PUSH1 0x40 DUP1 MLOAD PUSH1 0xA0 DUP2 ADD DUP3 MSTORE PUSH1 0x0 DUP1 DUP3 MSTORE PUSH1 0x20 DUP3 ADD DUP2 SWAP1 MSTORE SWAP2 DUP2 ADD DUP3 SWAP1 MSTORE PUSH1 0x60 DUP2 ADD SWAP2 SWAP1 SWAP2 MSTORE PUSH1 0x80 DUP2 ADD PUSH2 0x25FB PUSH2 0x2600 JUMP JUMPDEST SWAP1 MSTORE SWAP1 JUMP JUMPDEST PUSH1 0x40 MLOAD DUP1 PUSH1 0x40 ADD PUSH1 0x40 MSTORE DUP1 PUSH1 0x60 DUP2 MSTORE PUSH1 0x20 ADD PUSH1 0x0 DUP2 MSTORE POP SWAP1 JUMP JUMPDEST PUSH4 0x4E487B71 PUSH1 0xE0 SHL PUSH1 0x0 MSTORE PUSH1 0x41 PUSH1 0x4 MSTORE PUSH1 0x24 PUSH1 0x0 REVERT JUMPDEST PUSH1 0x0 DUP3 PUSH1 0x1F DUP4 ADD SLT PUSH2 0x2641 JUMPI PUSH1 0x0 DUP1 REVERT JUMPDEST DUP2 CALLDATALOAD PUSH1 0x1 PUSH1 0x1 PUSH1 0x40 SHL SUB DUP1 DUP3 GT ISZERO PUSH2 0x265B JUMPI PUSH2 0x265B PUSH2 0x261A JUMP JUMPDEST PUSH1 0x40 MLOAD PUSH1 0x1F DUP4 ADD PUSH1 0x1F NOT SWAP1 DUP2 AND PUSH1 0x3F ADD AND DUP2 ADD SWAP1 DUP3 DUP3 GT DUP2 DUP4 LT OR ISZERO PUSH2 0x2683 JUMPI PUSH2 0x2683 PUSH2 0x261A JUMP JUMPDEST DUP2 PUSH1 0x40 MSTORE DUP4 DUP2 MSTORE DUP7 PUSH1 0x20 DUP6 DUP9 ADD ADD GT ISZERO PUSH2 0x269C JUMPI PUSH1 0x0 DUP1 REVERT JUMPDEST DUP4 PUSH1 0x20 DUP8 ADD PUSH1 0x20 DUP4 ADD CALLDATACOPY PUSH1 0x0 PUSH1 0x20 DUP6 DUP4 ADD ADD MSTORE DUP1 SWAP5 POP POP POP POP POP SWAP3 SWAP2 POP POP JUMP JUMPDEST PUSH1 0x0 PUSH1 0x20 DUP3 DUP5 SUB SLT ISZERO PUSH2 0x26CE JUMPI PUSH1 0x0 DUP1 REVERT JUMPDEST DUP2 CALLDATALOAD PUSH1 0x1 PUSH1 0x1 PUSH1 0x40 SHL SUB DUP2 GT ISZERO PUSH2 0x26E4 JUMPI PUSH1 0x0 DUP1 REVERT JUMPDEST PUSH2 0x15B4 DUP5 DUP3 DUP6 ADD PUSH2 0x2630 JUMP JUMPDEST PUSH1 0x0 PUSH1 0x20 DUP3 DUP5 SUB SLT ISZERO PUSH2 0x2702 JUMPI PUSH1 0x0 DUP1 REVERT JUMPDEST DUP2 CALLDATALOAD PUSH1 0x1 PUSH1 0x1 PUSH1 0xE0 SHL SUB NOT DUP2 AND DUP2 EQ PUSH2 0x169C JUMPI PUSH1 0x0 DUP1 REVERT JUMPDEST PUSH1 0x0 DUP1 PUSH1 0x40 DUP4 DUP6 SUB SLT ISZERO PUSH2 0x272D JUMPI PUSH1 0x0 DUP1 REVERT JUMPDEST DUP3 CALLDATALOAD SWAP2 POP PUSH1 0x20 DUP4 ADD CALLDATALOAD PUSH1 0x1 PUSH1 0x1 PUSH1 0x40 SHL SUB DUP2 GT ISZERO PUSH2 0x274A JUMPI PUSH1 0x0 DUP1 REVERT JUMPDEST PUSH2 0x2756 DUP6 DUP3 DUP7 ADD PUSH2 0x2630 JUMP JUMPDEST SWAP2 POP POP SWAP3 POP SWAP3 SWAP1 POP JUMP JUMPDEST DUP1 CALLDATALOAD PUSH1 0x1 PUSH1 0x1 PUSH1 0xA0 SHL SUB DUP2 AND DUP2 EQ PUSH2 0x2777 JUMPI PUSH1 0x0 DUP1 REVERT JUMPDEST SWAP2 SWAP1 POP JUMP JUMPDEST PUSH1 0x0 DUP1 PUSH1 0x0 PUSH1 0x60 DUP5 DUP7 SUB SLT ISZERO PUSH2 0x2791 JUMPI PUSH1 0x0 DUP1 REVERT JUMPDEST PUSH2 0x279A DUP5 PUSH2 0x2760 JUMP JUMPDEST SWAP3 POP PUSH2 0x27A8 PUSH1 0x20 DUP6 ADD PUSH2 0x2760 JUMP JUMPDEST SWAP2 POP PUSH1 0x40 DUP5 ADD CALLDATALOAD SWAP1 POP SWAP3 POP SWAP3 POP SWAP3 JUMP JUMPDEST PUSH1 0x0 PUSH1 0x20 DUP3 DUP5 SUB SLT ISZERO PUSH2 0x27CA JUMPI PUSH1 0x0 DUP1 REVERT JUMPDEST POP CALLDATALOAD SWAP2 SWAP1 POP JUMP JUMPDEST PUSH1 0x0 DUP1 PUSH1 0x40 DUP4 DUP6 SUB SLT ISZERO PUSH2 0x27E4 JUMPI PUSH1 0x0 DUP1 REVERT JUMPDEST DUP3 CALLDATALOAD SWAP2 POP PUSH2 0x27F4 PUSH1 0x20 DUP5 ADD PUSH2 0x2760 JUMP JUMPDEST SWAP1 POP SWAP3 POP SWAP3 SWAP1 POP JUMP JUMPDEST DUP1 CALLDATALOAD PUSH1 0x2 DUP2 LT PUSH2 0x2777 JUMPI PUSH1 0x0 DUP1 REVERT JUMPDEST PUSH1 0x0 DUP1 PUSH1 0x40 DUP4 DUP6 SUB SLT ISZERO PUSH2 0x281F JUMPI PUSH1 0x0 DUP1 REVERT JUMPDEST PUSH2 0x2828 DUP4 PUSH2 0x27FD JUMP JUMPDEST SWAP5 PUSH1 0x20 SWAP4 SWAP1 SWAP4 ADD CALLDATALOAD SWAP4 POP POP POP JUMP JUMPDEST PUSH1 0x0 PUSH1 0x20 DUP3 DUP5 SUB SLT ISZERO PUSH2 0x2848 JUMPI PUSH1 0x0 DUP1 REVERT JUMPDEST PUSH2 0x169C DUP3 PUSH2 0x2760 JUMP JUMPDEST PUSH1 0x0 DUP1 PUSH1 0x40 DUP4 DUP6 SUB SLT ISZERO PUSH2 0x2864 JUMPI PUSH1 0x0 DUP1 REVERT JUMPDEST POP POP DUP1 CALLDATALOAD SWAP3 PUSH1 0x20 SWAP1 SWAP2 ADD CALLDATALOAD SWAP2 POP JUMP JUMPDEST PUSH1 0x1 PUSH1 0x1 PUSH1 0xA0 SHL SUB SWAP2 SWAP1 SWAP2 AND DUP2 MSTORE PUSH1 0x20 ADD SWAP1 JUMP JUMPDEST PUSH1 0x0 PUSH1 0x20 DUP3 DUP5 SUB SLT ISZERO PUSH2 0x2899 JUMPI PUSH1 0x0 DUP1 REVERT JUMPDEST PUSH2 0x169C DUP3 PUSH2 0x27FD JUMP JUMPDEST PUSH1 0x0 DUP1 DUP3 DUP5 SUB PUSH1 0x60 DUP2 SLT ISZERO PUSH2 0x28B6 JUMPI PUSH1 0x0 DUP1 REVERT JUMPDEST PUSH2 0x28BF DUP5 PUSH2 0x27FD JUMP JUMPDEST SWAP3 POP PUSH1 0x40 PUSH1 0x1F NOT DUP3 ADD SLT ISZERO PUSH2 0x28D3 JUMPI PUSH1 0x0 DUP1 REVERT JUMPDEST POP PUSH1 0x40 DUP1 MLOAD SWAP1 DUP2 ADD PUSH1 0x1 PUSH1 0x1 PUSH1 0x40 SHL SUB DUP2 GT DUP3 DUP3 LT OR ISZERO PUSH2 0x28F6 JUMPI PUSH2 0x28F6 PUSH2 0x261A JUMP JUMPDEST PUSH1 0x40 SWAP1 DUP2 MSTORE PUSH1 0x20 DUP6 DUP2 ADD CALLDATALOAD DUP4 MSTORE SWAP5 ADD CALLDATALOAD SWAP4 DUP2 ADD SWAP4 SWAP1 SWAP4 MSTORE POP SWAP3 SWAP1 SWAP2 POP JUMP JUMPDEST PUSH1 0x1 PUSH1 0x1 PUSH1 0xA0 SHL SUB SWAP4 DUP5 AND DUP2 MSTORE SWAP2 SWAP1 SWAP3 AND PUSH1 0x20 DUP3 ADD MSTORE PUSH1 0x40 DUP2 ADD SWAP2 SWAP1 SWAP2 MSTORE PUSH1 0x60 ADD SWAP1 JUMP JUMPDEST PUSH1 0x0 DUP1 PUSH1 0x0 DUP1 PUSH1 0x80 DUP6 DUP8 SUB SLT ISZERO PUSH2 0x294E JUMPI PUSH1 0x0 DUP1 REVERT JUMPDEST PUSH2 0x2957 DUP6 PUSH2 0x2760 JUMP JUMPDEST SWAP4 POP PUSH2 0x2965 PUSH1 0x20 DUP7 ADD PUSH2 0x2760 JUMP JUMPDEST SWAP3 POP PUSH1 0x40 DUP6 ADD CALLDATALOAD SWAP2 POP PUSH1 0x60 DUP6 ADD CALLDATALOAD PUSH1 0xFF DUP2 AND DUP2 EQ PUSH2 0x2982 JUMPI PUSH1 0x0 DUP1 REVERT JUMPDEST SWAP4 SWAP7 SWAP3 SWAP6 POP SWAP1 SWAP4 POP POP JUMP JUMPDEST PUSH1 0x1 DUP2 DUP2 SHR SWAP1 DUP3 AND DUP1 PUSH2 0x29A1 JUMPI PUSH1 0x7F DUP3 AND SWAP2 POP JUMPDEST PUSH1 0x20 DUP3 LT DUP2 SUB PUSH2 0xED7 JUMPI PUSH4 0x4E487B71 PUSH1 0xE0 SHL PUSH1 0x0 MSTORE PUSH1 0x22 PUSH1 0x4 MSTORE PUSH1 0x24 PUSH1 0x0 REVERT JUMPDEST PUSH1 0x1F DUP3 GT ISZERO PUSH2 0xA40 JUMPI PUSH1 0x0 DUP2 DUP2 MSTORE PUSH1 0x20 DUP2 KECCAK256 PUSH1 0x1F DUP6 ADD PUSH1 0x5 SHR DUP2 ADD PUSH1 0x20 DUP7 LT ISZERO PUSH2 0x29E8 JUMPI POP DUP1 JUMPDEST PUSH1 0x1F DUP6 ADD PUSH1 0x5 SHR DUP3 ADD SWAP2 POP JUMPDEST DUP2 DUP2 LT ISZERO PUSH2 0xA07 JUMPI DUP3 DUP2 SSTORE PUSH1 0x1 ADD PUSH2 0x29F4 JUMP JUMPDEST DUP2 MLOAD PUSH1 0x1 PUSH1 0x1 PUSH1 0x40 SHL SUB DUP2 GT ISZERO PUSH2 0x2A20 JUMPI PUSH2 0x2A20 PUSH2 0x261A JUMP JUMPDEST PUSH2 0x2A34 DUP2 PUSH2 0x2A2E DUP5 SLOAD PUSH2 0x298D JUMP JUMPDEST DUP5 PUSH2 0x29C1 JUMP JUMPDEST PUSH1 0x20 DUP1 PUSH1 0x1F DUP4 GT PUSH1 0x1 DUP2 EQ PUSH2 0x2A69 JUMPI PUSH1 0x0 DUP5 ISZERO PUSH2 0x2A51 JUMPI POP DUP6 DUP4 ADD MLOAD JUMPDEST PUSH1 0x0 NOT PUSH1 0x3 DUP7 SWAP1 SHL SHR NOT AND PUSH1 0x1 DUP6 SWAP1 SHL OR DUP6 SSTORE PUSH2 0xA07 JUMP JUMPDEST PUSH1 0x0 DUP6 DUP2 MSTORE PUSH1 0x20 DUP2 KECCAK256 PUSH1 0x1F NOT DUP7 AND SWAP2 JUMPDEST DUP3 DUP2 LT ISZERO PUSH2 0x2A98 JUMPI DUP9 DUP7 ADD MLOAD DUP3 SSTORE SWAP5 DUP5 ADD SWAP5 PUSH1 0x1 SWAP1 SWAP2 ADD SWAP1 DUP5 ADD PUSH2 0x2A79 JUMP JUMPDEST POP DUP6 DUP3 LT ISZERO PUSH2 0x2AB6 JUMPI DUP8 DUP6 ADD MLOAD PUSH1 0x0 NOT PUSH1 0x3 DUP9 SWAP1 SHL PUSH1 0xF8 AND SHR NOT AND DUP2 SSTORE JUMPDEST POP POP POP POP POP PUSH1 0x1 SWAP1 DUP2 SHL ADD SWAP1 SSTORE POP JUMP JUMPDEST PUSH4 0x4E487B71 PUSH1 0xE0 SHL PUSH1 0x0 MSTORE PUSH1 0x21 PUSH1 0x4 MSTORE PUSH1 0x24 PUSH1 0x0 REVERT JUMPDEST PUSH1 0x20 DUP1 DUP3 MSTORE PUSH1 0x28 SWAP1 DUP3 ADD MSTORE PUSH32 0x536F75726365206D75737420626520746865206F7261636C65206F6620746865 PUSH1 0x40 DUP3 ADD MSTORE PUSH8 0x81C995C5D595CDD PUSH1 0xC2 SHL PUSH1 0x60 DUP3 ADD MSTORE PUSH1 0x80 ADD SWAP1 JUMP JUMPDEST PUSH1 0x0 JUMPDEST DUP4 DUP2 LT ISZERO PUSH2 0x2B3F JUMPI DUP2 DUP2 ADD MLOAD DUP4 DUP3 ADD MSTORE PUSH1 0x20 ADD PUSH2 0x2B27 JUMP JUMPDEST POP POP PUSH1 0x0 SWAP2 ADD MSTORE JUMP JUMPDEST PUSH1 0x0 DUP2 MLOAD PUSH2 0x2B5A DUP2 DUP6 PUSH1 0x20 DUP7 ADD PUSH2 0x2B24 JUMP JUMPDEST SWAP3 SWAP1 SWAP3 ADD SWAP3 SWAP2 POP POP JUMP JUMPDEST PUSH1 0x0 DUP3 MLOAD PUSH2 0x2B76 DUP2 DUP5 PUSH1 0x20 DUP8 ADD PUSH2 0x2B24 JUMP JUMPDEST SWAP2 SWAP1 SWAP2 ADD SWAP3 SWAP2 POP POP JUMP JUMPDEST PUSH1 0x0 DUP1 MLOAD PUSH1 0x20 PUSH2 0x3152 DUP4 CODECOPY DUP2 MLOAD SWAP2 MSTORE DUP2 MSTORE PUSH12 0x312F71756F74653F7372633D PUSH1 0xA0 SHL PUSH1 0x20 DUP3 ADD MSTORE PUSH1 0x0 DUP5 MLOAD PUSH2 0x2BBB DUP2 PUSH1 0x2C DUP6 ADD PUSH1 0x20 DUP10 ADD PUSH2 0x2B24 JUMP JUMPDEST PUSH5 0x266473743D PUSH1 0xD8 SHL PUSH1 0x2C SWAP2 DUP5 ADD SWAP2 DUP3 ADD MSTORE DUP5 MLOAD PUSH2 0x2BE0 DUP2 PUSH1 0x31 DUP5 ADD PUSH1 0x20 DUP10 ADD PUSH2 0x2B24 JUMP JUMPDEST PUSH8 0x26616D6F756E743D PUSH1 0xC0 SHL PUSH1 0x31 SWAP3 SWAP1 SWAP2 ADD SWAP2 DUP3 ADD MSTORE DUP4 MLOAD PUSH2 0x2C09 DUP2 PUSH1 0x39 DUP5 ADD PUSH1 0x20 DUP9 ADD PUSH2 0x2B24 JUMP JUMPDEST ADD PUSH1 0x39 ADD SWAP6 SWAP5 POP POP POP POP POP JUMP JUMPDEST PUSH4 0x4E487B71 PUSH1 0xE0 SHL PUSH1 0x0 MSTORE PUSH1 0x11 PUSH1 0x4 MSTORE PUSH1 0x24 PUSH1 0x0 REVERT JUMPDEST DUP1 DUP3 MUL DUP2 ISZERO DUP3 DUP3 DIV DUP5 EQ OR PUSH2 0x76F JUMPI PUSH2 0x76F PUSH2 0x2C16 JUMP JUMPDEST PUSH4 0x4E487B71 PUSH1 0xE0 SHL PUSH1 0x0 MSTORE PUSH1 0x12 PUSH1 0x4 MSTORE PUSH1 0x24 PUSH1 0x0 REVERT JUMPDEST PUSH1 0x0 DUP3 PUSH2 0x2C68 JUMPI PUSH2 0x2C68 PUSH2 0x2C43 JUMP JUMPDEST POP DIV SWAP1 JUMP JUMPDEST PUSH1 0x0 PUSH1 0x20 DUP3 DUP5 SUB SLT ISZERO PUSH2 0x2C7F JUMPI PUSH1 0x0 DUP1 REVERT JUMPDEST POP MLOAD SWAP2 SWAP1 POP JUMP JUMPDEST PUSH1 0x1 PUSH1 0x1 PUSH1 0xA0 SHL SUB SWAP3 SWAP1 SWAP3 AND DUP3 MSTORE PUSH1 0x20 DUP3 ADD MSTORE PUSH1 0x40 ADD SWAP1 JUMP JUMPDEST PUSH1 0x0 PUSH1 0x20 DUP3 DUP5 SUB SLT ISZERO PUSH2 0x2CB1 JUMPI PUSH1 0x0 DUP1 REVERT JUMPDEST DUP2 MLOAD DUP1 ISZERO ISZERO DUP2 EQ PUSH2 0x169C JUMPI PUSH1 0x0 DUP1 REVERT JUMPDEST PUSH1 0x0 DUP1 MLOAD PUSH1 0x20 PUSH2 0x3152 DUP4 CODECOPY DUP2 MLOAD SWAP2 MSTORE DUP2 MSTORE PUSH11 0x312F737761703F7372633D PUSH1 0xA8 SHL PUSH1 0x20 DUP3 ADD MSTORE PUSH1 0x0 DUP8 MLOAD PUSH2 0x2CFB DUP2 PUSH1 0x2B DUP6 ADD PUSH1 0x20 DUP13 ADD PUSH2 0x2B24 JUMP JUMPDEST PUSH5 0x266473743D PUSH1 0xD8 SHL PUSH1 0x2B SWAP2 DUP5 ADD SWAP2 DUP3 ADD MSTORE DUP8 MLOAD PUSH2 0x2D20 DUP2 PUSH1 0x30 DUP5 ADD PUSH1 0x20 DUP13 ADD PUSH2 0x2B24 JUMP JUMPDEST PUSH8 0x26616D6F756E743D PUSH1 0xC0 SHL PUSH1 0x30 SWAP3 SWAP1 SWAP2 ADD SWAP2 DUP3 ADD MSTORE DUP7 MLOAD PUSH2 0x2D49 DUP2 PUSH1 0x38 DUP5 ADD PUSH1 0x20 DUP12 ADD PUSH2 0x2B24 JUMP JUMPDEST PUSH6 0x2666726F6D3D PUSH1 0xD0 SHL PUSH1 0x38 SWAP3 SWAP1 SWAP2 ADD SWAP2 DUP3 ADD MSTORE DUP6 MLOAD PUSH2 0x2D70 DUP2 PUSH1 0x3E DUP5 ADD PUSH1 0x20 DUP11 ADD PUSH2 0x2B24 JUMP JUMPDEST PUSH10 0x26736C6970706167653D PUSH1 0xB0 SHL PUSH1 0x3E SWAP3 SWAP1 SWAP2 ADD SWAP2 DUP3 ADD MSTORE PUSH2 0x2DDB PUSH2 0x2DBA PUSH2 0x2DB4 PUSH2 0x2D9E PUSH1 0x48 DUP6 ADD DUP10 PUSH2 0x2B48 JUMP JUMPDEST PUSH10 0x2672656365697665723D PUSH1 0xB0 SHL DUP2 MSTORE PUSH1 0xA ADD SWAP1 JUMP JUMPDEST DUP7 PUSH2 0x2B48 JUMP JUMPDEST PUSH21 0x2664697361626C65457374696D6174653D74727565 PUSH1 0x58 SHL DUP2 MSTORE PUSH1 0x15 ADD SWAP1 JUMP JUMPDEST SWAP10 SWAP9 POP POP POP POP POP POP POP POP POP JUMP JUMPDEST DUP1 SLOAD PUSH1 0x1 PUSH1 0x1 PUSH1 0xA0 SHL SUB SWAP1 DUP2 AND DUP4 MSTORE PUSH1 0x1 DUP3 ADD SLOAD AND PUSH1 0x20 DUP4 ADD MSTORE PUSH1 0x2 ADD SLOAD PUSH1 0x40 SWAP1 SWAP2 ADD MSTORE JUMP JUMPDEST PUSH2 0x2E18 DUP2 DUP4 PUSH2 0x2DE8 JUMP JUMPDEST PUSH1 0x60 ADD SWAP2 SWAP1 POP JUMP JUMPDEST PUSH1 0x0 PUSH1 0x1 DUP3 ADD PUSH2 0x2E32 JUMPI PUSH2 0x2E32 PUSH2 0x2C16 JUMP JUMPDEST POP PUSH1 0x1 ADD SWAP1 JUMP JUMPDEST PUSH2 0x2E43 DUP2 DUP4 PUSH2 0x2DE8 JUMP JUMPDEST PUSH1 0x3 SWAP2 SWAP1 SWAP2 ADD SLOAD PUSH1 0x60 DUP3 ADD MSTORE PUSH1 0x80 ADD SWAP1 JUMP JUMPDEST PUSH23 0x20B1B1B2B9B9A1B7B73A3937B61D1030B1B1B7BAB73A1 PUSH1 0x4D SHL DUP2 MSTORE PUSH1 0x0 DUP4 MLOAD PUSH2 0x2E87 DUP2 PUSH1 0x17 DUP6 ADD PUSH1 0x20 DUP9 ADD PUSH2 0x2B24 JUMP JUMPDEST PUSH17 0x1034B99036B4B9B9B4B733903937B6329 PUSH1 0x7D SHL PUSH1 0x17 SWAP2 DUP5 ADD SWAP2 DUP3 ADD MSTORE DUP4 MLOAD PUSH2 0x2EB8 DUP2 PUSH1 0x28 DUP5 ADD PUSH1 0x20 DUP9 ADD PUSH2 0x2B24 JUMP JUMPDEST ADD PUSH1 0x28 ADD SWAP5 SWAP4 POP POP POP POP JUMP JUMPDEST PUSH1 0x0 DUP2 MLOAD DUP1 DUP5 MSTORE PUSH2 0x2EDC DUP2 PUSH1 0x20 DUP7 ADD PUSH1 0x20 DUP7 ADD PUSH2 0x2B24 JUMP JUMPDEST PUSH1 0x1F ADD PUSH1 0x1F NOT AND SWAP3 SWAP1 SWAP3 ADD PUSH1 0x20 ADD SWAP3 SWAP2 POP POP JUMP JUMPDEST PUSH1 0x20 DUP2 MSTORE PUSH1 0x0 PUSH2 0x169C PUSH1 0x20 DUP4 ADD DUP5 PUSH2 0x2EC4 JUMP JUMPDEST DUP1 DUP3 ADD DUP1 DUP3 GT ISZERO PUSH2 0x76F JUMPI PUSH2 0x76F PUSH2 0x2C16 JUMP JUMPDEST PUSH4 0x4E487B71 PUSH1 0xE0 SHL PUSH1 0x0 MSTORE PUSH1 0x32 PUSH1 0x4 MSTORE PUSH1 0x24 PUSH1 0x0 REVERT JUMPDEST PUSH1 0x0 DUP2 PUSH2 0x2F3B JUMPI PUSH2 0x2F3B PUSH2 0x2C16 JUMP JUMPDEST POP PUSH1 0x0 NOT ADD SWAP1 JUMP JUMPDEST PUSH1 0x1 DUP1 PUSH1 0xA0 SHL SUB DUP9 AND DUP2 MSTORE DUP7 PUSH1 0x20 DUP3 ADD MSTORE DUP6 PUSH1 0x40 DUP3 ADD MSTORE PUSH4 0xFFFFFFFF PUSH1 0xE0 SHL DUP6 AND PUSH1 0x60 DUP3 ADD MSTORE DUP4 PUSH1 0x80 DUP3 ADD MSTORE DUP3 PUSH1 0xA0 DUP3 ADD MSTORE PUSH1 0xE0 PUSH1 0xC0 DUP3 ADD MSTORE PUSH1 0x0 PUSH2 0x2DDB PUSH1 0xE0 DUP4 ADD DUP5 PUSH2 0x2EC4 JUMP JUMPDEST DUP2 DUP2 SUB DUP2 DUP2 GT ISZERO PUSH2 0x76F JUMPI PUSH2 0x76F PUSH2 0x2C16 JUMP JUMPDEST PUSH4 0x4E487B71 PUSH1 0xE0 SHL PUSH1 0x0 MSTORE PUSH1 0x31 PUSH1 0x4 MSTORE PUSH1 0x24 PUSH1 0x0 REVERT JUMPDEST PUSH1 0x0 DUP3 PUSH2 0x2FC3 JUMPI PUSH2 0x2FC3 PUSH2 0x2C43 JUMP JUMPDEST POP MOD SWAP1 JUMP JUMPDEST PUSH1 0x1 DUP1 PUSH1 0xA0 SHL SUB DUP5 AND DUP2 MSTORE DUP3 PUSH1 0x20 DUP3 ADD MSTORE PUSH1 0x60 PUSH1 0x40 DUP3 ADD MSTORE PUSH1 0x0 PUSH2 0x2FEF PUSH1 0x60 DUP4 ADD DUP5 PUSH2 0x2EC4 JUMP JUMPDEST SWAP6 SWAP5 POP POP POP POP POP JUMP JUMPDEST PUSH1 0x1 DUP2 DUP2 JUMPDEST DUP1 DUP6 GT ISZERO PUSH2 0x3033 JUMPI DUP2 PUSH1 0x0 NOT DIV DUP3 GT ISZERO PUSH2 0x3019 JUMPI PUSH2 0x3019 PUSH2 0x2C16 JUMP JUMPDEST DUP1 DUP6 AND ISZERO PUSH2 0x3026 JUMPI SWAP2 DUP2 MUL SWAP2 JUMPDEST SWAP4 DUP5 SHR SWAP4 SWAP1 DUP1 MUL SWAP1 PUSH2 0x2FFD JUMP JUMPDEST POP SWAP3 POP SWAP3 SWAP1 POP JUMP JUMPDEST PUSH1 0x0 DUP3 PUSH2 0x304A JUMPI POP PUSH1 0x1 PUSH2 0x76F JUMP JUMPDEST DUP2 PUSH2 0x3057 JUMPI POP PUSH1 0x0 PUSH2 0x76F JUMP JUMPDEST DUP2 PUSH1 0x1 DUP2 EQ PUSH2 0x306D JUMPI PUSH1 0x2 DUP2 EQ PUSH2 0x3077 JUMPI PUSH2 0x3093 JUMP JUMPDEST PUSH1 0x1 SWAP2 POP POP PUSH2 0x76F JUMP JUMPDEST PUSH1 0xFF DUP5 GT ISZERO PUSH2 0x3088 JUMPI PUSH2 0x3088 PUSH2 0x2C16 JUMP JUMPDEST POP POP PUSH1 0x1 DUP3 SHL PUSH2 0x76F JUMP JUMPDEST POP PUSH1 0x20 DUP4 LT PUSH2 0x133 DUP4 LT AND PUSH1 0x4E DUP5 LT PUSH1 0xB DUP5 LT AND OR ISZERO PUSH2 0x30B6 JUMPI POP DUP2 DUP2 EXP PUSH2 0x76F JUMP JUMPDEST PUSH2 0x30C0 DUP4 DUP4 PUSH2 0x2FF8 JUMP JUMPDEST DUP1 PUSH1 0x0 NOT DIV DUP3 GT ISZERO PUSH2 0x30D4 JUMPI PUSH2 0x30D4 PUSH2 0x2C16 JUMP JUMPDEST MUL SWAP4 SWAP3 POP POP POP JUMP JUMPDEST PUSH1 0x0 PUSH2 0x169C DUP4 DUP4 PUSH2 0x303B JUMP INVALID SWAP4 PUSH3 0x7969D6 0xBA EXTCODEHASH 0x21 XOR CREATE2 PUSH21 0xA00F8D1C7FED4282F3728A455E8B3C867B1A1A212B 0xB6 SWAP1 0x4E 0x5F SHL PREVRANDAO 0x22 SWAP15 JUMP MULMOD 0xB6 DUP2 0xFB 0xC2 MLOAD 0x24 MULMOD 0xAF LOG3 0xE5 0xA9 SMOD 0x2D SUB EQ 0x25 PUSH13 0x12668DBE4416464726573733A KECCAK256 PUSH13 0x6F772D6C6576656C2063616C6C KECCAK256 PUSH24 0x6974682076616C7565206661696C656468747470733A2F2F PUSH2 0x7069 0x2E BALANCE PUSH10 0x6E63682E6465762F7377 PUSH2 0x702F PUSH23 0x352E322F17A8E30262C1F919C33056D877A3C22B95C2F5 0xE4 0xDA 0xC4 CHAINID DUP4 0xC1 0xC2 ORIGIN EXTCODECOPY 0xD7 SWAP16 0xBD 0xB0 PUSH29 0xC135E0CEBB02C3480AE5D74D377283180A2601F8F644EDF7987B009316 0xC6 GASPRICE STATICCALL 0xB0 EXP SWAP9 SELFBALANCE SLOAD SWAP6 0xC PUSH18 0x87FB98F39DA0AE224ABBBEE017C1699445AD 0xE NOT SELFBALANCE 0x4A 0x4D LOG2 PUSH5 0x6970667358 0x22 SLT KECCAK256 PUSH4 0x4DBBB9DB EQ DUP15 DUP4 ORIGIN DIV 0x4A 0xAA 0xD1 SHR OR LOG1 PUSH17 0x87C3597D2E7DE2AE300C51B5DADB526473 PUSH16 0x6C6343000813003317A8E30262C1F919 0xC3 ADDRESS JUMP 0xD8 PUSH24 0xA3C22B95C2F5E4DAC44683C1C2323CD79FBDB0FAB00A9847 SLOAD SWAP6 0xC PUSH18 0x87FB98F39DA0AE224ABBBEE017C1699445AD 0xE NOT SELFBALANCE 0x4A 0x4D "},"gasEstimates":{"creation":{"codeDepositCost":"2561400","executionCost":"infinite","totalCost":"infinite"},"external":{"DEFAULT_ADMIN_ROLE()":"591","ONE_INCH_ETH_ADDRESS()":"702","QUOTE_AUTHORIZED_ROLE()":"infinite","STRATEGIST_ROLE()":"infinite","SWAP_AUTHORIZED_ROLE()":"infinite","addSubscriber(address)":"infinite","aggregationRouter()":"infinite","fulfillQuote()":"infinite","fulfillSwap()":"infinite","getFeeInHundredthsOfLink(uint8)":"infinite","getOracleAddress()":"infinite","getRoleAdmin(bytes32)":"2525","grantRole(bytes32,address)":"infinite","hasRole(bytes32,address)":"3003","isReadyToFulfillQuote()":"2794","isReadyToFulfillSwap()":"2871","jobInfos(uint256)":"5259","oracleAddress()":"2801","quoteBuffer()":"9128","registerQuoteRequest(bytes32,uint256)":"75647","registerSwapCalldata(bytes32,bytes)":"infinite","removeSubscriber(address)":"infinite","renounceRole(bytes32,address)":"29105","requestQuote(address,address,uint256)":"infinite","requestSwap(address,address,uint256,uint8)":"infinite","revokeRole(bytes32,address)":"infinite","setFeeInHundredthsOfLink(uint8,uint256)":"infinite","setJobInfo(uint8,(bytes32,uint256))":"infinite","setOracleAddress(address)":"infinite","strategistFulfillQuote(uint256)":"infinite","strategistFulfillSwap(bytes)":"infinite","subscriberAt(uint256)":"5004","subscribersLength()":"2634","supportsInterface(bytes4)":"426","swapBuffer()":"7252","withdrawLink()":"infinite"},"internal":{"_fulfillQuoteRequest()":"infinite","_fulfillSwap()":"infinite","_setMaxAllowancesIfNeededAndCheckPayment(address,uint256,address)":"infinite"}},"methodIdentifiers":{"DEFAULT_ADMIN_ROLE()":"a217fddf","ONE_INCH_ETH_ADDRESS()":"aaeafd56","QUOTE_AUTHORIZED_ROLE()":"e05d6bf2","STRATEGIST_ROLE()":"a378a324","SWAP_AUTHORIZED_ROLE()":"4e0c6133","addSubscriber(address)":"94555d1a","aggregationRouter()":"fcdfd946","fulfillQuote()":"dc39b19a","fulfillSwap()":"eaad47b2","getFeeInHundredthsOfLink(uint8)":"b6761cb8","getOracleAddress()":"b18b78dd","getRoleAdmin(bytes32)":"248a9ca3","grantRole(bytes32,address)":"2f2ff15d","hasRole(bytes32,address)":"91d14854","isReadyToFulfillQuote()":"ab3c322d","isReadyToFulfillSwap()":"c0d2e37f","jobInfos(uint256)":"e75d763f","oracleAddress()":"a89ae4ba","quoteBuffer()":"81777a3d","registerQuoteRequest(bytes32,uint256)":"4e22e31e","registerSwapCalldata(bytes32,bytes)":"02458ad8","removeSubscriber(address)":"627c34ad","renounceRole(bytes32,address)":"36568abe","requestQuote(address,address,uint256)":"1a5b4207","requestSwap(address,address,uint256,uint8)":"f09922ff","revokeRole(bytes32,address)":"d547741f","setFeeInHundredthsOfLink(uint8,uint256)":"4ab5c503","setJobInfo(uint8,(bytes32,uint256))":"be555a80","setOracleAddress(address)":"4c69c00f","strategistFulfillQuote(uint256)":"50c284b3","strategistFulfillSwap(bytes)":"01a76f59","subscriberAt(uint256)":"6ccf5b01","subscribersLength()":"66b8455b","supportsInterface(bytes4)":"01ffc9a7","swapBuffer()":"d9ff478f","withdrawLink()":"8dc654a2"}},"storageLayout":{"storage":[{"astId":2200,"contract":"contracts/utils/SwapHelper.sol:SwapHelper","label":"_roles","offset":0,"slot":"0","type":"t_mapping(t_bytes32,t_struct(RoleData)2195_storage)"},{"astId":319,"contract":"contracts/utils/SwapHelper.sol:SwapHelper","label":"s_ens","offset":0,"slot":"1","type":"t_contract(ENSInterface)974"},{"astId":321,"contract":"contracts/utils/SwapHelper.sol:SwapHelper","label":"s_ensNode","offset":0,"slot":"2","type":"t_bytes32"},{"astId":324,"contract":"contracts/utils/SwapHelper.sol:SwapHelper","label":"s_link","offset":0,"slot":"3","type":"t_contract(LinkTokenInterface)1069"},{"astId":327,"contract":"contracts/utils/SwapHelper.sol:SwapHelper","label":"s_oracle","offset":0,"slot":"4","type":"t_contract(OperatorInterface)1149"},{"astId":330,"contract":"contracts/utils/SwapHelper.sol:SwapHelper","label":"s_requestCount","offset":0,"slot":"5","type":"t_uint256"},{"astId":334,"contract":"contracts/utils/SwapHelper.sol:SwapHelper","label":"s_pendingRequests","offset":0,"slot":"6","type":"t_mapping(t_bytes32,t_address)"},{"astId":5413,"contract":"contracts/utils/SwapHelper.sol:SwapHelper","label":"oracleAddress","offset":0,"slot":"7","type":"t_address"},{"astId":5416,"contract":"contracts/utils/SwapHelper.sol:SwapHelper","label":"quoteBuffer","offset":0,"slot":"8","type":"t_struct(QuoteInfo)5354_storage"},{"astId":5419,"contract":"contracts/utils/SwapHelper.sol:SwapHelper","label":"swapBuffer","offset":0,"slot":"12","type":"t_struct(SwapInfo)5348_storage"},{"astId":5421,"contract":"contracts/utils/SwapHelper.sol:SwapHelper","label":"isReadyToFulfillSwap","offset":0,"slot":"15","type":"t_bool"},{"astId":5423,"contract":"contracts/utils/SwapHelper.sol:SwapHelper","label":"isReadyToFulfillQuote","offset":1,"slot":"15","type":"t_bool"},{"astId":5428,"contract":"contracts/utils/SwapHelper.sol:SwapHelper","label":"jobInfos","offset":0,"slot":"16","type":"t_mapping(t_uint256,t_struct(JobInfo)5341_storage)"},{"astId":5430,"contract":"contracts/utils/SwapHelper.sol:SwapHelper","label":"_lastSwapCalldata","offset":0,"slot":"17","type":"t_bytes_storage"},{"astId":5433,"contract":"contracts/utils/SwapHelper.sol:SwapHelper","label":"_subscribers","offset":0,"slot":"18","type":"t_struct(AddressSet)4968_storage"}],"types":{"t_address":{"encoding":"inplace","label":"address","numberOfBytes":"20"},"t_array(t_bytes32)dyn_storage":{"base":"t_bytes32","encoding":"dynamic_array","label":"bytes32[]","numberOfBytes":"32"},"t_bool":{"encoding":"inplace","label":"bool","numberOfBytes":"1"},"t_bytes32":{"encoding":"inplace","label":"bytes32","numberOfBytes":"32"},"t_bytes_storage":{"encoding":"bytes","label":"bytes","numberOfBytes":"32"},"t_contract(ENSInterface)974":{"encoding":"inplace","label":"contract ENSInterface","numberOfBytes":"20"},"t_contract(LinkTokenInterface)1069":{"encoding":"inplace","label":"contract LinkTokenInterface","numberOfBytes":"20"},"t_contract(OperatorInterface)1149":{"encoding":"inplace","label":"contract OperatorInterface","numberOfBytes":"20"},"t_mapping(t_address,t_bool)":{"encoding":"mapping","key":"t_address","label":"mapping(address => bool)","numberOfBytes":"32","value":"t_bool"},"t_mapping(t_bytes32,t_address)":{"encoding":"mapping","key":"t_bytes32","label":"mapping(bytes32 => address)","numberOfBytes":"32","value":"t_address"},"t_mapping(t_bytes32,t_struct(RoleData)2195_storage)":{"encoding":"mapping","key":"t_bytes32","label":"mapping(bytes32 => struct AccessControl.RoleData)","numberOfBytes":"32","value":"t_struct(RoleData)2195_storage"},"t_mapping(t_bytes32,t_uint256)":{"encoding":"mapping","key":"t_bytes32","label":"mapping(bytes32 => uint256)","numberOfBytes":"32","value":"t_uint256"},"t_mapping(t_uint256,t_struct(JobInfo)5341_storage)":{"encoding":"mapping","key":"t_uint256","label":"mapping(uint256 => struct SwapHelper.JobInfo)","numberOfBytes":"32","value":"t_struct(JobInfo)5341_storage"},"t_struct(AddressSet)4968_storage":{"encoding":"inplace","label":"struct EnumerableSet.AddressSet","members":[{"astId":4967,"contract":"contracts/utils/SwapHelper.sol:SwapHelper","label":"_inner","offset":0,"slot":"0","type":"t_struct(Set)4653_storage"}],"numberOfBytes":"64"},"t_struct(JobInfo)5341_storage":{"encoding":"inplace","label":"struct SwapHelper.JobInfo","members":[{"astId":5338,"contract":"contracts/utils/SwapHelper.sol:SwapHelper","label":"jobId","offset":0,"slot":"0","type":"t_bytes32"},{"astId":5340,"contract":"contracts/utils/SwapHelper.sol:SwapHelper","label":"jobFeeInJuels","offset":0,"slot":"1","type":"t_uint256"}],"numberOfBytes":"64"},"t_struct(QuoteInfo)5354_storage":{"encoding":"inplace","label":"struct SwapHelper.QuoteInfo","members":[{"astId":5351,"contract":"contracts/utils/SwapHelper.sol:SwapHelper","label":"swapInfo","offset":0,"slot":"0","type":"t_struct(SwapInfo)5348_storage"},{"astId":5353,"contract":"contracts/utils/SwapHelper.sol:SwapHelper","label":"outAmount","offset":0,"slot":"3","type":"t_uint256"}],"numberOfBytes":"128"},"t_struct(RoleData)2195_storage":{"encoding":"inplace","label":"struct AccessControl.RoleData","members":[{"astId":2192,"contract":"contracts/utils/SwapHelper.sol:SwapHelper","label":"members","offset":0,"slot":"0","type":"t_mapping(t_address,t_bool)"},{"astId":2194,"contract":"contracts/utils/SwapHelper.sol:SwapHelper","label":"adminRole","offset":0,"slot":"1","type":"t_bytes32"}],"numberOfBytes":"64"},"t_struct(Set)4653_storage":{"encoding":"inplace","label":"struct EnumerableSet.Set","members":[{"astId":4648,"contract":"contracts/utils/SwapHelper.sol:SwapHelper","label":"_values","offset":0,"slot":"0","type":"t_array(t_bytes32)dyn_storage"},{"astId":4652,"contract":"contracts/utils/SwapHelper.sol:SwapHelper","label":"_indexes","offset":0,"slot":"1","type":"t_mapping(t_bytes32,t_uint256)"}],"numberOfBytes":"64"},"t_struct(SwapInfo)5348_storage":{"encoding":"inplace","label":"struct SwapHelper.SwapInfo","members":[{"astId":5343,"contract":"contracts/utils/SwapHelper.sol:SwapHelper","label":"srcToken","offset":0,"slot":"0","type":"t_address"},{"astId":5345,"contract":"contracts/utils/SwapHelper.sol:SwapHelper","label":"dstToken","offset":0,"slot":"1","type":"t_address"},{"astId":5347,"contract":"contracts/utils/SwapHelper.sol:SwapHelper","label":"inAmount","offset":0,"slot":"2","type":"t_uint256"}],"numberOfBytes":"96"},"t_uint256":{"encoding":"inplace","label":"uint256","numberOfBytes":"32"}}},"userdoc":{"kind":"user","methods":{},"version":1}}}}