{"contracts/utils/SwapHelper.sol":{"SwapHelper":{"abi":[{"inputs":[{"internalType":"uint256","name":"_quoteJobFee","type":"uint256"},{"internalType":"uint256","name":"_swapCalldataJobFee","type":"uint256"},{"internalType":"address","name":"_strategist","type":"address"},{"internalType":"address","name":"_aggregationRouter","type":"address"},{"internalType":"address","name":"chainlinkTokenAddress","type":"address"},{"internalType":"address","name":"chainlinkOracleAddress","type":"address"},{"internalType":"string","name":"_swapCalldataJobId","type":"string"},{"internalType":"string","name":"_quoteJobId","type":"string"},{"internalType":"address[]","name":"authorizedToSwap","type":"address[]"}],"stateMutability":"nonpayable","type":"constructor"},{"inputs":[],"name":"CannotAddSubscriber","type":"error"},{"inputs":[],"name":"CannotRemoveSubscriber","type":"error"},{"inputs":[],"name":"NotEnoughNativeTokensSent","type":"error"},{"inputs":[],"name":"QuoteOperationIsNotReady","type":"error"},{"inputs":[],"name":"SlippageIsTooBig","type":"error"},{"inputs":[],"name":"SwapOperationIsNotReady","type":"error"},{"inputs":[],"name":"TransferError","type":"error"},{"anonymous":false,"inputs":[{"indexed":true,"internalType":"bytes32","name":"id","type":"bytes32"}],"name":"ChainlinkCancelled","type":"event"},{"anonymous":false,"inputs":[{"indexed":true,"internalType":"bytes32","name":"id","type":"bytes32"}],"name":"ChainlinkFulfilled","type":"event"},{"anonymous":false,"inputs":[{"indexed":true,"internalType":"bytes32","name":"id","type":"bytes32"}],"name":"ChainlinkRequested","type":"event"},{"anonymous":false,"inputs":[{"indexed":true,"internalType":"uint256","name":"toAmount","type":"uint256"}],"name":"QuoteRegistered","type":"event"},{"anonymous":false,"inputs":[{"components":[{"components":[{"internalType":"address","name":"srcToken","type":"address"},{"internalType":"address","name":"dstToken","type":"address"},{"internalType":"uint256","name":"inAmount","type":"uint256"}],"internalType":"struct SwapHelper.SwapInfo","name":"swapInfo","type":"tuple"},{"internalType":"uint256","name":"outAmount","type":"uint256"}],"indexed":true,"internalType":"struct SwapHelper.QuoteInfo","name":"_quoteBuffer","type":"tuple"}],"name":"QuoteSent","type":"event"},{"anonymous":false,"inputs":[{"indexed":true,"internalType":"bytes32","name":"role","type":"bytes32"},{"indexed":true,"internalType":"bytes32","name":"previousAdminRole","type":"bytes32"},{"indexed":true,"internalType":"bytes32","name":"newAdminRole","type":"bytes32"}],"name":"RoleAdminChanged","type":"event"},{"anonymous":false,"inputs":[{"indexed":true,"internalType":"bytes32","name":"role","type":"bytes32"},{"indexed":true,"internalType":"address","name":"account","type":"address"},{"indexed":true,"internalType":"address","name":"sender","type":"address"}],"name":"RoleGranted","type":"event"},{"anonymous":false,"inputs":[{"indexed":true,"internalType":"bytes32","name":"role","type":"bytes32"},{"indexed":true,"internalType":"address","name":"account","type":"address"},{"indexed":true,"internalType":"address","name":"sender","type":"address"}],"name":"RoleRevoked","type":"event"},{"anonymous":false,"inputs":[{"indexed":true,"internalType":"enum SwapHelper.StrategistInterference","name":"interference","type":"uint8"}],"name":"StrategistInterferred","type":"event"},{"anonymous":false,"inputs":[{"components":[{"internalType":"address","name":"srcToken","type":"address"},{"internalType":"address","name":"dstToken","type":"address"},{"internalType":"uint256","name":"inAmount","type":"uint256"}],"indexed":true,"internalType":"struct SwapHelper.SwapInfo","name":"_swapBuffer","type":"tuple"}],"name":"SwapPerformed","type":"event"},{"anonymous":false,"inputs":[{"indexed":true,"internalType":"bytes","name":"swapCalldata","type":"bytes"}],"name":"SwapRegistered","type":"event"},{"inputs":[],"name":"DEFAULT_ADMIN_ROLE","outputs":[{"internalType":"bytes32","name":"","type":"bytes32"}],"stateMutability":"view","type":"function"},{"inputs":[],"name":"ONE_INCH_ETH_ADDRESS","outputs":[{"internalType":"address","name":"","type":"address"}],"stateMutability":"view","type":"function"},{"inputs":[],"name":"QUOTE_AUTHORIZED_ROLE","outputs":[{"internalType":"bytes32","name":"","type":"bytes32"}],"stateMutability":"view","type":"function"},{"inputs":[],"name":"STRATEGIST_ROLE","outputs":[{"internalType":"bytes32","name":"","type":"bytes32"}],"stateMutability":"view","type":"function"},{"inputs":[],"name":"SWAP_AUTHORIZED_ROLE","outputs":[{"internalType":"bytes32","name":"","type":"bytes32"}],"stateMutability":"view","type":"function"},{"inputs":[{"internalType":"address","name":"subscriber","type":"address"}],"name":"addSubscriber","outputs":[],"stateMutability":"nonpayable","type":"function"},{"inputs":[],"name":"aggregationRouter","outputs":[{"internalType":"address","name":"","type":"address"}],"stateMutability":"view","type":"function"},{"inputs":[],"name":"fulfillQuote","outputs":[],"stateMutability":"nonpayable","type":"function"},{"inputs":[],"name":"fulfillSwap","outputs":[],"stateMutability":"nonpayable","type":"function"},{"inputs":[{"internalType":"enum SwapHelper.JobPurpose","name":"_purpose","type":"uint8"}],"name":"getFeeInHundredthsOfLink","outputs":[{"internalType":"uint256","name":"","type":"uint256"}],"stateMutability":"view","type":"function"},{"inputs":[],"name":"getOracleAddress","outputs":[{"internalType":"address","name":"","type":"address"}],"stateMutability":"view","type":"function"},{"inputs":[{"internalType":"bytes32","name":"role","type":"bytes32"}],"name":"getRoleAdmin","outputs":[{"internalType":"bytes32","name":"","type":"bytes32"}],"stateMutability":"view","type":"function"},{"inputs":[{"internalType":"bytes32","name":"role","type":"bytes32"},{"internalType":"address","name":"account","type":"address"}],"name":"grantRole","outputs":[],"stateMutability":"nonpayable","type":"function"},{"inputs":[{"internalType":"bytes32","name":"role","type":"bytes32"},{"internalType":"address","name":"account","type":"address"}],"name":"hasRole","outputs":[{"internalType":"bool","name":"","type":"bool"}],"stateMutability":"view","type":"function"},{"inputs":[],"name":"isReadyToFulfillQuote","outputs":[{"internalType":"bool","name":"","type":"bool"}],"stateMutability":"view","type":"function"},{"inputs":[],"name":"isReadyToFulfillSwap","outputs":[{"internalType":"bool","name":"","type":"bool"}],"stateMutability":"view","type":"function"},{"inputs":[{"internalType":"uint256","name":"","type":"uint256"}],"name":"jobInfos","outputs":[{"internalType":"bytes32","name":"jobId","type":"bytes32"},{"internalType":"uint256","name":"jobFeeInJuels","type":"uint256"}],"stateMutability":"view","type":"function"},{"inputs":[],"name":"oracleAddress","outputs":[{"internalType":"address","name":"","type":"address"}],"stateMutability":"view","type":"function"},{"inputs":[],"name":"quoteBuffer","outputs":[{"components":[{"internalType":"address","name":"srcToken","type":"address"},{"internalType":"address","name":"dstToken","type":"address"},{"internalType":"uint256","name":"inAmount","type":"uint256"}],"internalType":"struct SwapHelper.SwapInfo","name":"swapInfo","type":"tuple"},{"internalType":"uint256","name":"outAmount","type":"uint256"}],"stateMutability":"view","type":"function"},{"inputs":[{"internalType":"bytes32","name":"requestId","type":"bytes32"},{"internalType":"uint256","name":"toAmount","type":"uint256"}],"name":"registerQuoteAndFulfillRequestOnOracleExpense","outputs":[],"stateMutability":"nonpayable","type":"function"},{"inputs":[{"internalType":"bytes32","name":"requestId","type":"bytes32"},{"internalType":"uint256","name":"toAmount","type":"uint256"}],"name":"registerQuoteRequest","outputs":[],"stateMutability":"nonpayable","type":"function"},{"inputs":[{"internalType":"bytes32","name":"requestId","type":"bytes32"},{"internalType":"bytes","name":"swapCalldata","type":"bytes"}],"name":"registerSwapCalldata","outputs":[],"stateMutability":"nonpayable","type":"function"},{"inputs":[{"internalType":"bytes32","name":"requestId","type":"bytes32"},{"internalType":"bytes","name":"swapCalldata","type":"bytes"}],"name":"registerSwapCalldataAndFulfillOnOracleExpense","outputs":[],"stateMutability":"nonpayable","type":"function"},{"inputs":[{"internalType":"address","name":"subscriber","type":"address"}],"name":"removeSubscriber","outputs":[],"stateMutability":"nonpayable","type":"function"},{"inputs":[{"internalType":"bytes32","name":"role","type":"bytes32"},{"internalType":"address","name":"account","type":"address"}],"name":"renounceRole","outputs":[],"stateMutability":"nonpayable","type":"function"},{"inputs":[{"internalType":"address","name":"src","type":"address"},{"internalType":"address","name":"dst","type":"address"},{"internalType":"uint256","name":"amount","type":"uint256"}],"name":"requestQuote","outputs":[],"stateMutability":"nonpayable","type":"function"},{"inputs":[{"internalType":"address","name":"src","type":"address"},{"internalType":"address","name":"dst","type":"address"},{"internalType":"uint256","name":"amount","type":"uint256"}],"name":"requestQuoteAndFulfillOnOracleExpense","outputs":[],"stateMutability":"nonpayable","type":"function"},{"inputs":[{"internalType":"address","name":"src","type":"address"},{"internalType":"address","name":"dst","type":"address"},{"internalType":"uint256","name":"amount","type":"uint256"},{"internalType":"uint8","name":"slippage","type":"uint8"}],"name":"requestSwap","outputs":[],"stateMutability":"payable","type":"function"},{"inputs":[{"internalType":"address","name":"src","type":"address"},{"internalType":"address","name":"dst","type":"address"},{"internalType":"uint256","name":"amount","type":"uint256"},{"internalType":"uint8","name":"slippage","type":"uint8"}],"name":"requestSwapAndFulfillOnOracleExpense","outputs":[],"stateMutability":"payable","type":"function"},{"inputs":[{"internalType":"bytes32","name":"role","type":"bytes32"},{"internalType":"address","name":"account","type":"address"}],"name":"revokeRole","outputs":[],"stateMutability":"nonpayable","type":"function"},{"inputs":[{"internalType":"enum SwapHelper.JobPurpose","name":"_purpose","type":"uint8"},{"internalType":"uint256","name":"_feeInHundredthsOfLink","type":"uint256"}],"name":"setFeeInHundredthsOfLink","outputs":[],"stateMutability":"nonpayable","type":"function"},{"inputs":[{"internalType":"enum SwapHelper.JobPurpose","name":"_purpose","type":"uint8"},{"components":[{"internalType":"bytes32","name":"jobId","type":"bytes32"},{"internalType":"uint256","name":"jobFeeInJuels","type":"uint256"}],"internalType":"struct SwapHelper.JobInfo","name":"_info","type":"tuple"}],"name":"setJobInfo","outputs":[],"stateMutability":"nonpayable","type":"function"},{"inputs":[{"internalType":"address","name":"_oracleAddress","type":"address"}],"name":"setOracleAddress","outputs":[],"stateMutability":"nonpayable","type":"function"},{"inputs":[{"internalType":"uint256","name":"toAmount","type":"uint256"}],"name":"strategistFulfillQuote","outputs":[],"stateMutability":"nonpayable","type":"function"},{"inputs":[{"internalType":"bytes","name":"_swapCalldata","type":"bytes"}],"name":"strategistFulfillSwap","outputs":[],"stateMutability":"payable","type":"function"},{"inputs":[{"internalType":"uint256","name":"subscriberIdx","type":"uint256"}],"name":"subscriberAt","outputs":[{"internalType":"address","name":"","type":"address"}],"stateMutability":"view","type":"function"},{"inputs":[],"name":"subscribersLength","outputs":[{"internalType":"uint256","name":"","type":"uint256"}],"stateMutability":"view","type":"function"},{"inputs":[{"internalType":"bytes4","name":"interfaceId","type":"bytes4"}],"name":"supportsInterface","outputs":[{"internalType":"bool","name":"","type":"bool"}],"stateMutability":"view","type":"function"},{"inputs":[],"name":"swapBuffer","outputs":[{"internalType":"address","name":"srcToken","type":"address"},{"internalType":"address","name":"dstToken","type":"address"},{"internalType":"uint256","name":"inAmount","type":"uint256"}],"stateMutability":"view","type":"function"},{"inputs":[],"name":"withdrawLink","outputs":[],"stateMutability":"nonpayable","type":"function"},{"stateMutability":"payable","type":"receive"}],"devdoc":{"events":{"RoleAdminChanged(bytes32,bytes32,bytes32)":{"details":"Emitted when `newAdminRole` is set as ``role``'s admin role, replacing `previousAdminRole` `DEFAULT_ADMIN_ROLE` is the starting admin for all roles, despite {RoleAdminChanged} not being emitted signaling this. _Available since v3.1._"},"RoleGranted(bytes32,address,address)":{"details":"Emitted when `account` is granted `role`. `sender` is the account that originated the contract call, an admin role bearer except when using {AccessControl-_setupRole}."},"RoleRevoked(bytes32,address,address)":{"details":"Emitted when `account` is revoked `role`. `sender` is the account that originated the contract call:   - if using `revokeRole`, it is the admin role bearer   - if using `renounceRole`, it is the role bearer (i.e. `account`)"}},"kind":"dev","methods":{"getRoleAdmin(bytes32)":{"details":"Returns the admin role that controls `role`. See {grantRole} and {revokeRole}. To change a role's admin, use {_setRoleAdmin}."},"grantRole(bytes32,address)":{"details":"Grants `role` to `account`. If `account` had not been already granted `role`, emits a {RoleGranted} event. Requirements: - the caller must have ``role``'s admin role. May emit a {RoleGranted} event."},"hasRole(bytes32,address)":{"details":"Returns `true` if `account` has been granted `role`."},"renounceRole(bytes32,address)":{"details":"Revokes `role` from the calling account. Roles are often managed via {grantRole} and {revokeRole}: this function's purpose is to provide a mechanism for accounts to lose their privileges if they are compromised (such as when a trusted device is misplaced). If the calling account had been revoked `role`, emits a {RoleRevoked} event. Requirements: - the caller must be `account`. May emit a {RoleRevoked} event."},"revokeRole(bytes32,address)":{"details":"Revokes `role` from `account`. If `account` had been granted `role`, emits a {RoleRevoked} event. Requirements: - the caller must have ``role``'s admin role. May emit a {RoleRevoked} event."},"supportsInterface(bytes4)":{"details":"See {IERC165-supportsInterface}."}},"version":1},"evm":{"bytecode":{"linkReferences":{},"object":"60a060405260016005553480156200001657600080fd5b5060405162003ee238038062003ee283398101604081905262000039916200074c565b6200005460008051602062003ea283398151915288620001a7565b620000807f93627969d6ba3f2118f574a00f8d1c7fed4282f3728a455e8b3c867b1a1a212b88620001a7565b6200009b60008051602062003ec283398151915288620001a7565b600380546001600160a01b0319166001600160a01b038716179055620000c18462000230565b620000ee6000604051806040016040528085620000de906200083d565b815260006020909101526200027a565b620000fb60008a620002d2565b620001186001604051806040016040528086620000de906200083d565b62000125600189620002d2565b6001600160a01b03861660805260005b81518160ff16101562000197576200018260008051602062003ec2833981519152838360ff16815181106200016e576200016e62000865565b6020026020010151620001a760201b60201c565b806200018e8162000891565b91505062000135565b50505050505050505050620009e4565b620001b3828262000341565b6200022c576000828152602081815260408083206001600160a01b03851684529091529020805460ff19166001179055620001eb3390565b6001600160a01b0316816001600160a01b0316837f2f8788117e7eff1d82e926ec794901d17c78024a50270940304540a733656f0d60405160405180910390a45b5050565b60008051602062003ea28339815191526200024b816200036c565b600780546001600160a01b0384166001600160a01b031991821681179092556004805490911690911790555050565b60008051602062003ea283398151915262000295816200036c565b8160106000856001811115620002af57620002af620008b3565b815260208082019290925260400160002082518155910151600190910155505050565b60008051602062003ea2833981519152620002ed816200036c565b606462000303670de0b6b3a764000084620008c9565b6200030f9190620008e3565b60106000856001811115620003285762000328620008b3565b8152602081019190915260400160002060010155505050565b6000828152602081815260408083206001600160a01b038516845290915290205460ff165b92915050565b6200037881336200037b565b50565b62000387828262000341565b6200022c576200039781620003e8565b620003a4836020620003fb565b604051602001620003b792919062000906565b60408051601f198184030181529082905262461bcd60e51b8252620003df916004016200097f565b60405180910390fd5b6060620003666001600160a01b03831660145b606060006200040c836002620008c9565b62000419906002620009b4565b6001600160401b03811115620004335762000433620005d8565b6040519080825280601f01601f1916602001820160405280156200045e576020820181803683370190505b509050600360fc1b816000815181106200047c576200047c62000865565b60200101906001600160f81b031916908160001a905350600f60fb1b81600181518110620004ae57620004ae62000865565b60200101906001600160f81b031916908160001a9053506000620004d4846002620008c9565b620004e1906001620009b4565b90505b600181111562000563576f181899199a1a9b1b9c1cb0b131b232b360811b85600f166010811062000519576200051962000865565b1a60f81b82828151811062000532576200053262000865565b60200101906001600160f81b031916908160001a90535060049490941c936200055b81620009ca565b9050620004e4565b508315620005b45760405162461bcd60e51b815260206004820181905260248201527f537472696e67733a20686578206c656e67746820696e73756666696369656e746044820152606401620003df565b9392505050565b80516001600160a01b0381168114620005d357600080fd5b919050565b634e487b7160e01b600052604160045260246000fd5b604051601f8201601f191681016001600160401b0381118282101715620006195762000619620005d8565b604052919050565b60005b838110156200063e57818101518382015260200162000624565b50506000910152565b600082601f8301126200065957600080fd5b81516001600160401b03811115620006755762000675620005d8565b6200068a601f8201601f1916602001620005ee565b818152846020838601011115620006a057600080fd5b620006b382602083016020870162000621565b949350505050565b600082601f830112620006cd57600080fd5b815160206001600160401b03821115620006eb57620006eb620005d8565b8160051b620006fc828201620005ee565b92835284810182019282810190878511156200071757600080fd5b83870192505b8483101562000741576200073183620005bb565b825291830191908301906200071d565b979650505050505050565b60008060008060008060008060006101208a8c0312156200076c57600080fd5b8951985060208a015197506200078560408b01620005bb565b96506200079560608b01620005bb565b9550620007a560808b01620005bb565b9450620007b560a08b01620005bb565b60c08b01519094506001600160401b0380821115620007d357600080fd5b620007e18d838e0162000647565b945060e08c0151915080821115620007f857600080fd5b620008068d838e0162000647565b93506101008c01519150808211156200081e57600080fd5b506200082d8c828d01620006bb565b9150509295985092959850929598565b805160208083015191908110156200085f576000198160200360031b1b821691505b50919050565b634e487b7160e01b600052603260045260246000fd5b634e487b7160e01b600052601160045260246000fd5b600060ff821660ff8103620008aa57620008aa6200087b565b60010192915050565b634e487b7160e01b600052602160045260246000fd5b80820281158282048414176200036657620003666200087b565b6000826200090157634e487b7160e01b600052601260045260246000fd5b500490565b7f416363657373436f6e74726f6c3a206163636f756e74200000000000000000008152600083516200094081601785016020880162000621565b7001034b99036b4b9b9b4b733903937b6329607d1b60179184019182015283516200097381602884016020880162000621565b01602801949350505050565b6020815260008251806020840152620009a081604085016020870162000621565b601f01601f19169190910160400192915050565b808201808211156200036657620003666200087b565b600081620009dc57620009dc6200087b565b506000190190565b60805161348662000a1c6000396000818161073a01528181611169015281816112090152818161133701526113f801526134866000f3fe6080604052600436106101cf5760003560e01c806301a76f59146101db57806301ffc9a7146101f057806302458ad81461022557806310cabd1d146102455780631a5b420714610258578063248a9ca3146102785780632f2ff15d146102a657806336568abe146102c65780634ab5c503146102e65780634c69c00f146103065780634d1dde7b146103265780634e0c6133146103465780634e22e31e1461036857806350c284b314610388578063627c34ad146103a857806366b8455b146103c85780636ccf5b01146103dd57806381777a3d1461040a5780638dc654a21461048457806391d148541461049957806394555d1a146104b9578063a217fddf146104d9578063a378a324146104ee578063a74d01d414610510578063a89ae4ba14610530578063aaeafd5614610550578063ab3c322d14610578578063b18b78dd14610597578063b6761cb8146105ac578063be555a80146105cc578063c0d2e37f146105ec578063cacfacf414610606578063d547741f14610626578063d9ff478f14610646578063dc39b19a14610680578063e05d6bf214610695578063e75d763f146106b7578063eaad47b214610700578063f09922ff14610715578063fcdfd9461461072857600080fd5b366101d657005b600080fd5b6101ee6101e936600461291b565b61075c565b005b3480156101fc57600080fd5b5061021061020b36600461294f565b6107dd565b60405190151581526020015b60405180910390f35b34801561023157600080fd5b506101ee610240366004612979565b610814565b6101ee6102533660046129db565b6108d1565b34801561026457600080fd5b506101ee610273366004612a30565b61090e565b34801561028457600080fd5b50610298610293366004612a6c565b61094a565b60405190815260200161021c565b3480156102b257600080fd5b506101ee6102c1366004612a85565b61095f565b3480156102d257600080fd5b506101ee6102e1366004612a85565b610980565b3480156102f257600080fd5b506101ee610301366004612ac0565b6109fe565b34801561031257600080fd5b506101ee610321366004612aea565b610a63565b34801561033257600080fd5b506101ee610341366004612a30565b610aa9565b34801561035257600080fd5b5061029860008051602061343183398151915281565b34801561037457600080fd5b506101ee610383366004612b05565b610ad4565b34801561039457600080fd5b506101ee6103a3366004612a6c565b610b6f565b3480156103b457600080fd5b506101ee6103c3366004612aea565b610bbf565b3480156103d457600080fd5b50610298610bff565b3480156103e957600080fd5b506103fd6103f8366004612a6c565b610c10565b60405161021c9190612b27565b34801561041657600080fd5b50604080516060810182526008546001600160a01b039081168252600954166020820152600a5491810191909152600b5461044f919082565b6040805183516001600160a01b039081168252602080860151909116908201529281015190830152606082015260800161021c565b34801561049057600080fd5b506101ee610c1d565b3480156104a557600080fd5b506102106104b4366004612a85565b610d45565b3480156104c557600080fd5b506101ee6104d4366004612aea565b610d6e565b3480156104e557600080fd5b50610298600081565b3480156104fa57600080fd5b506102986000805160206133d183398151915281565b34801561051c57600080fd5b506101ee61052b366004612b05565b610dae565b34801561053c57600080fd5b506007546103fd906001600160a01b031681565b34801561055c57600080fd5b506103fd73eeeeeeeeeeeeeeeeeeeeeeeeeeeeeeeeeeeeeeee81565b34801561058457600080fd5b50600f5461021090610100900460ff1681565b3480156105a357600080fd5b506103fd610e3d565b3480156105b857600080fd5b506102986105c7366004612b3b565b610e68565b3480156105d857600080fd5b506101ee6105e7366004612b56565b610ed2565b3480156105f857600080fd5b50600f546102109060ff1681565b34801561061257600080fd5b506101ee610621366004612979565b610f24565b34801561063257600080fd5b506101ee610641366004612a85565b610fe8565b34801561065257600080fd5b50600c54600d54600e54610671926001600160a01b0390811692169083565b60405161021c93929190612bc8565b34801561068c57600080fd5b506101ee611004565b3480156106a157600080fd5b5061029860008051602061334883398151915281565b3480156106c357600080fd5b506106eb6106d2366004612a6c565b6010602052600090815260409020805460019091015482565b6040805192835260208301919091520161021c565b34801561070c57600080fd5b506101ee61105a565b6101ee6107233660046129db565b6110aa565b34801561073457600080fd5b506103fd7f000000000000000000000000000000000000000000000000000000000000000081565b6000805160206133d1833981519152610774816110df565b600f805460ff19169055601161078a8382612c66565b50600c54600e546107a5916001600160a01b031690336110ec565b6107ad611278565b60015b6040517ffc252eeb655ad1aa88173ff876f64057c196504c7d3819259257f95c7f05b71090600090a25050565b60006001600160e01b03198216637965db0b60e01b148061080e57506301ffc9a760e01b6001600160e01b03198316145b92915050565b60008281526006602052604090205482906001600160a01b031633146108555760405162461bcd60e51b815260040161084c90612d3b565b60405180910390fd5b60008181526006602052604080822080546001600160a01b031916905551829160008051602061341183398151915291a260116108928382612c66565b50600f805460ff191660011790556040516108ae908390612dc3565b604051908190038120906000805160206133f183398151915290600090a2505050565b6000805160206134318339815191526108e9816110df565b600f805460ff19169055610907858585856332b3eb3d60e21b611471565b5050505050565b600080516020613348833981519152610926816110df565b600f805461ff0019169055610944848484632711718f60e11b611681565b50505050565b60009081526020819052604090206001015490565b6109688261094a565b610971816110df565b61097b83836117f7565b505050565b6001600160a01b03811633146109f05760405162461bcd60e51b815260206004820152602f60248201527f416363657373436f6e74726f6c3a2063616e206f6e6c792072656e6f756e636560448201526e103937b632b9903337b91039b2b63360891b606482015260840161084c565b6109fa828261187b565b5050565b6000805160206133d1833981519152610a16816110df565b6064610a2a670de0b6b3a764000084612df5565b610a349190612e22565b60106000856001811115610a4a57610a4a612d25565b8152602081019190915260400160002060010155505050565b6000805160206133d1833981519152610a7b816110df565b50600780546001600160a01b03929092166001600160a01b0319928316811790915560048054909216179055565b600080516020613348833981519152610ac1816110df565b6109448484846329d3407560e21b611681565b60008281526006602052604090205482906001600160a01b03163314610b0c5760405162461bcd60e51b815260040161084c90612d3b565b60008181526006602052604080822080546001600160a01b031916905551829160008051602061341183398151915291a2600b829055600f805461ff001916610100179055604051829060008051602061336883398151915290600090a2505050565b6000805160206133d1833981519152610b87816110df565b600f805461ff0019169055600b829055604051829060008051602061336883398151915290600090a2610bb86118e0565b60006107b0565b6000805160206133d1833981519152610bd7816110df565b610be26012836119d6565b6109fa576040516306e971bb60e31b815260040160405180910390fd5b6000610c0b60126119f2565b905090565b600061080e6012836119fc565b6000805160206133d1833981519152610c35816110df565b6000610c496003546001600160a01b031690565b90506001600160a01b03811663a9059cbb336040516370a0823160e01b81526001600160a01b038516906370a0823190610c87903090600401612b27565b602060405180830381865afa158015610ca4573d6000803e3d6000fd5b505050506040513d601f19601f82011682018060405250810190610cc89190612e36565b6040518363ffffffff1660e01b8152600401610ce5929190612e4f565b6020604051808303816000875af1158015610d04573d6000803e3d6000fd5b505050506040513d601f19601f82011682018060405250810190610d289190612e68565b6109fa576040516313ff771f60e21b815260040160405180910390fd5b6000918252602082815260408084206001600160a01b0393909316845291905290205460ff1690565b6000805160206133d1833981519152610d86816110df565b610d91601283611a08565b6109fa576040516305c46f6760e31b815260040160405180910390fd5b60008281526006602052604090205482906001600160a01b03163314610de65760405162461bcd60e51b815260040161084c90612d3b565b60008181526006602052604080822080546001600160a01b031916905551829160008051602061341183398151915291a2600b829055604051829060008051602061336883398151915290600090a261097b6118e0565b60006000805160206133d1833981519152610e57816110df565b50506007546001600160a01b031690565b60006000805160206133d1833981519152610e82816110df565b670de0b6b3a764000060106000856001811115610ea157610ea1612d25565b8152602001908152602001600020600101546064610ebf9190612df5565b610ec99190612e22565b91505b50919050565b6000805160206133d1833981519152610eea816110df565b8160106000856001811115610f0157610f01612d25565b815260208082019290925260400160002082518155910151600190910155505050565b60008281526006602052604090205482906001600160a01b03163314610f5c5760405162461bcd60e51b815260040161084c90612d3b565b60008181526006602052604080822080546001600160a01b031916905551829160008051602061341183398151915291a26011610f998382612c66565b5081604051610fa89190612dc3565b604051908190038120906000805160206133f183398151915290600090a2600c54600e54610fe0916001600160a01b031690336110ec565b61097b611278565b610ff18261094a565b610ffa816110df565b61097b838361187b565b60008051602061334883398151915261101c816110df565b600f54610100900460ff1661104457604051636cb45f1560e11b815260040160405180910390fd5b61104c6118e0565b50600f805461ff0019169055565b600080516020613431833981519152611072816110df565b600f5460ff1661109557604051637d683d5360e01b815260040160405180910390fd5b61109d611278565b50600f805460ff19169055565b6000805160206134318339815191526110c2816110df565b600f805460ff19169055610907858585856248b15b60e31b611471565b6110e98133611a1d565b50565b8273eeeeeeeeeeeeeeeeeeeeeeeeeeeeeeeeeeeeeeed196001600160a01b038216016111375782341461113257604051630dd86f5360e11b815260040160405180910390fd5b610944565b61114c6001600160a01b038216833086611a76565b604051636eb1769f60e11b81523060048201526001600160a01b037f00000000000000000000000000000000000000000000000000000000000000008116602483015284919083169063dd62ed3e90604401602060405180830381865afa1580156111bb573d6000803e3d6000fd5b505050506040513d601f19601f820116820180604052508101906111df9190612e36565b10156109445760405163095ea7b360e01b81526001600160a01b0382169063095ea7b390611235907f00000000000000000000000000000000000000000000000000000000000000009060001990600401612e4f565b6020604051808303816000875af1158015611254573d6000803e3d6000fd5b505050506040513d601f19601f820116820180604052508101906109079190612e68565b600c546001600160a01b031673eeeeeeeeeeeeeeeeeeeeeeeeeeeeeeeeeeeeeeed190161136857611362601180546112af90612bec565b80601f01602080910402602001604051908101604052809291908181526020018280546112db90612bec565b80156113285780601f106112fd57610100808354040283529160200191611328565b820191906000526020600020905b81548152906001019060200180831161130b57829003601f168201915b5050600e546001600160a01b037f000000000000000000000000000000000000000000000000000000000000000016949350915050611ace565b50611430565b61142e6011805461137890612bec565b80601f01602080910402602001604051908101604052809291908181526020018280546113a490612bec565b80156113f15780601f106113c6576101008083540402835291602001916113f1565b820191906000526020600020905b8154815290600101906020018083116113d457829003601f168201915b50505050507f00000000000000000000000000000000000000000000000000000000000000006001600160a01b0316611afc90919063ffffffff16565b505b600c60405161143f9190612eb0565b604051908190038120907f098d3af501ac55740f44cc3d45b38cd162e715bd76ae2ec1704db9bcf19df52890600090a2565b60328260ff161115611496576040516336ee37fb60e21b815260040160405180910390fd5b336114a28685836110ec565b6001600090815260106020527f8c6065603763fec3f5742441d3833f3f43b982453612d76adb39a885e3006b5f546114da9084611b40565b905061152a604051806040016040528060068152602001651b595d1a1bd960d21b8152506040518060400160405280600381526020016211d15560ea1b81525083611b5c9092919063ffffffff16565b6115af604051806040016040528060038152602001621d5c9b60ea1b81525061155289611b7a565b61155b89611b7a565b61156489611b90565b61156d30611b7a565b6115798a60ff16611b90565b61158289611b7a565b60405160200161159796959493929190612ec2565b60408051601f19818403018152919052839190611b5c565b6116086040518060400160405280600781526020016618dbdb9d1858dd60ca1b8152506040518060400160405280600d81526020016c6c6f6375732d66696e616e636560981b81525083611b5c9092919063ffffffff16565b604080516060810182526001600160a01b03808a168083529089166020830181905291909201879052600c80546001600160a01b03199081169093179055600d8054909216179055600e859055611677816010600060015b815260200190815260200160002060010154611c22565b5050505050505050565b600080805260106020527f6e0956cda88cad152e89927e53611735b61a5c762d1428573c6931b0a5efcb01546116b79083611b40565b9050611707604051806040016040528060068152602001651b595d1a1bd960d21b8152506040518060400160405280600381526020016211d15560ea1b81525083611b5c9092919063ffffffff16565b611753604051806040016040528060038152602001621d5c9b60ea1b81525061172f87611b7a565b61173887611b7a565b61174187611b90565b60405160200161159793929190612fe9565b6117ac6040518060400160405280600781526020016618dbdb9d1858dd60ca1b8152506040518060400160405280600d81526020016c6c6f6375732d66696e616e636560981b81525083611b5c9092919063ffffffff16565b600880546001600160a01b038088166001600160a01b0319928316179092556009805492871692909116919091179055600a8390556117ef816010600080611660565b505050505050565b6118018282610d45565b6109fa576000828152602081815260408083206001600160a01b03851684529091529020805460ff191660011790556118373390565b6001600160a01b0316816001600160a01b0316837f2f8788117e7eff1d82e926ec794901d17c78024a50270940304540a733656f0d60405160405180910390a45050565b6118858282610d45565b156109fa576000828152602081815260408083206001600160a01b0385168085529252808320805460ff1916905551339285917ff6391f5c32d9c69d2a47ea670b442974b53935d1edc7fd64eb21e047a839171b9190a45050565b60006118ec60126119f2565b905060005b81811015611993576119046012826119fc565b600854600954600b54600a5460405163782b6fff60e11b81526001600160a01b03948516600482015292841660248401526044830191909152606482015291169063f056dffe90608401600060405180830381600087803b15801561196857600080fd5b505af115801561197c573d6000803e3d6000fd5b50505050808061198b9061307f565b9150506118f1565b5060086040516119a39190613098565b604051908190038120907fa8e5b3954602a050e4fd58bfdb4679c92cdf00addead6c0178ced776602ed45290600090a250565b60006119eb836001600160a01b038416611c3c565b9392505050565b600061080e825490565b60006119eb8383611d2f565b60006119eb836001600160a01b038416611d59565b611a278282610d45565b6109fa57611a3481611b7a565b611a3f836020611da8565b604051602001611a509291906130b4565b60408051601f198184030181529082905262461bcd60e51b825261084c9160040161314f565b610944846323b872dd60e01b858585604051602401611a9793929190612bc8565b60408051601f198184030181529190526020810180516001600160e01b03166001600160e01b031990931692909217909152611f43565b6060611af484848460405180606001604052806029815260200161338860299139612018565b949350505050565b60606119eb838360006040518060400160405280601e81526020017f416464726573733a206c6f772d6c6576656c2063616c6c206661696c65640000815250612018565b611b4861282a565b611b5061282a565b611af4818530866120f3565b6080830151611b6b9083612130565b608083015161097b9082612130565b606061080e6001600160a01b0383166014611da8565b60606000611b9d83612147565b60010190506000816001600160401b03811115611bbc57611bbc612879565b6040519080825280601f01601f191660200182016040528015611be6576020820181803683370190505b5090508181016020015b600019016f181899199a1a9b1b9c1cb0b131b232b360811b600a86061a8153600a8504945084611bf057509392505050565b6004546000906119eb906001600160a01b0316848461221d565b60008181526001830160205260408120548015611d25576000611c60600183613162565b8554909150600090611c7490600190613162565b9050818114611cd9576000866000018281548110611c9457611c94613175565b9060005260206000200154905080876000018481548110611cb757611cb7613175565b6000918252602080832090910192909255918252600188019052604090208390555b8554869080611cea57611cea61318b565b60019003818190600052602060002001600090559055856001016000868152602001908152602001600020600090556001935050505061080e565b600091505061080e565b6000826000018281548110611d4657611d46613175565b9060005260206000200154905092915050565b6000818152600183016020526040812054611da05750815460018181018455600084815260208082209093018490558454848252828601909352604090209190915561080e565b50600061080e565b60606000611db7836002612df5565b611dc29060026131a1565b6001600160401b03811115611dd957611dd9612879565b6040519080825280601f01601f191660200182016040528015611e03576020820181803683370190505b509050600360fc1b81600081518110611e1e57611e1e613175565b60200101906001600160f81b031916908160001a905350600f60fb1b81600181518110611e4d57611e4d613175565b60200101906001600160f81b031916908160001a9053506000611e71846002612df5565b611e7c9060016131a1565b90505b6001811115611ef4576f181899199a1a9b1b9c1cb0b131b232b360811b85600f1660108110611eb057611eb0613175565b1a60f81b828281518110611ec657611ec6613175565b60200101906001600160f81b031916908160001a90535060049490941c93611eed816131b4565b9050611e7f565b5083156119eb5760405162461bcd60e51b815260206004820181905260248201527f537472696e67733a20686578206c656e67746820696e73756666696369656e74604482015260640161084c565b6000611f98826040518060400160405280602081526020017f5361666545524332303a206c6f772d6c6576656c2063616c6c206661696c6564815250856001600160a01b03166122ae9092919063ffffffff16565b9050805160001480611fb9575080806020019051810190611fb99190612e68565b61097b5760405162461bcd60e51b815260206004820152602a60248201527f5361666545524332303a204552433230206f7065726174696f6e20646964206e6044820152691bdd081cdd58d8d9595960b21b606482015260840161084c565b6060824710156120795760405162461bcd60e51b815260206004820152602660248201527f416464726573733a20696e73756666696369656e742062616c616e636520666f6044820152651c8818d85b1b60d21b606482015260840161084c565b600080866001600160a01b031685876040516120959190612dc3565b60006040518083038185875af1925050503d80600081146120d2576040519150601f19603f3d011682016040523d82523d6000602084013e6120d7565b606091505b50915091506120e8878383876122bd565b979650505050505050565b6120fb61282a565b61210b8560800151610100612336565b50509183526001600160a01b031660208301526001600160e01b031916604082015290565b61213d826003835161238e565b61097b8282612495565b60008072184f03e93ff9f4daa797ed6e38ed64bf6a1f0160401b83106121865772184f03e93ff9f4daa797ed6e38ed64bf6a1f0160401b830492506040015b6904ee2d6d415b85acef8160201b83106121b0576904ee2d6d415b85acef8160201b830492506020015b662386f26fc1000083106121ce57662386f26fc10000830492506010015b6305f5e10083106121e6576305f5e100830492506008015b61271083106121fa57612710830492506004015b6064831061220c576064830492506002015b600a831061080e5760010192915050565b60055460009061222e8160016131a1565b60055583516040808601516080870151519151600093633c6d41b960e01b936122649386938493928991600291906024016131cb565b60408051601f198184030181529190526020810180516001600160e01b03166001600160e01b03199093169290921790915290506122a4868386846124af565b9695505050505050565b6060611af48484600085612018565b6060831561232c578251600003612325576001600160a01b0385163b6123255760405162461bcd60e51b815260206004820152601d60248201527f416464726573733a2063616c6c20746f206e6f6e2d636f6e7472616374000000604482015260640161084c565b5081611af4565b611af48383612608565b61233e61285f565b612349602083613213565b1561237157612359602083613213565b612364906020613162565b61236e90836131a1565b91505b506020828101829052604080518085526000815290920101905290565b6017816001600160401b0316116123b2576109448360e0600585901b168317612632565b60ff816001600160401b0316116123ee576123d8836018611fe0600586901b1617612632565b50610944836001600160401b038316600161264a565b61ffff816001600160401b03161161242b57612415836019611fe0600586901b1617612632565b50610944836001600160401b038316600261264a565b63ffffffff816001600160401b03161161246a5761245483601a611fe0600586901b1617612632565b50610944836001600160401b038316600461264a565b61247f83601b611fe0600586901b1617612632565b50610944836001600160401b038316600861264a565b61249d61285f565b6119eb83846000015151848551612663565b6040516001600160601b03193060601b1660208201526034810184905260009060540160408051808303601f1901815282825280516020918201206000818152600690925291812080546001600160a01b0319166001600160a01b038a1617905590925082917fb5e6e01e79f91267dc17b4e6314d5d4d03593d2ceee0fbb452b750bd70ea5af99190a2600354604051630200057560e51b81526001600160a01b0390911690634000aea09061256d90889087908790600401613227565b6020604051808303816000875af115801561258c573d6000803e3d6000fd5b505050506040513d601f19601f820116820180604052508101906125b09190612e68565b611af45760405162461bcd60e51b815260206004820152602360248201527f756e61626c6520746f207472616e73666572416e6443616c6c20746f206f7261604482015262636c6560e81b606482015260840161084c565b8151156126185781518083602001fd5b8060405162461bcd60e51b815260040161084c919061314f565b61263a61285f565b6119eb8384600001515184612740565b61265261285f565b611af484856000015151858561278e565b61266b61285f565b825182111561267957600080fd5b602085015161268883866131a1565b11156126bb576126bb856126ab876020015187866126a691906131a1565b612802565b6126b6906002612df5565b612813565b6000808651805187602083010193508088870111156126da5787860182525b505050602084015b6020841061271a57805182526126f96020836131a1565b91506127066020826131a1565b9050612713602085613162565b93506126e2565b51815160001960208690036101000a019081169019919091161790525083949350505050565b61274861285f565b836020015183106127685761276884856020015160026126b69190612df5565b8351805160208583010184815350808503612784576001810182525b5093949350505050565b61279661285f565b60208501516127a585846131a1565b11156127b9576127b9856126ab86856131a1565b600060016127c98461010061333b565b6127d39190613162565b90508551838682010185831982511617815250805184870111156127f75783860181525b509495945050505050565b600081831115610ecc57508161080e565b815161281f8383612336565b506109448382612495565b6040805160a08101825260008082526020820181905291810182905260608101919091526080810161285a61285f565b905290565b604051806040016040528060608152602001600081525090565b634e487b7160e01b600052604160045260246000fd5b600082601f8301126128a057600080fd5b81356001600160401b03808211156128ba576128ba612879565b604051601f8301601f19908116603f011681019082821181831017156128e2576128e2612879565b816040528381528660208588010111156128fb57600080fd5b836020870160208301376000602085830101528094505050505092915050565b60006020828403121561292d57600080fd5b81356001600160401b0381111561294357600080fd5b611af48482850161288f565b60006020828403121561296157600080fd5b81356001600160e01b0319811681146119eb57600080fd5b6000806040838503121561298c57600080fd5b8235915060208301356001600160401b038111156129a957600080fd5b6129b58582860161288f565b9150509250929050565b80356001600160a01b03811681146129d657600080fd5b919050565b600080600080608085870312156129f157600080fd5b6129fa856129bf565b9350612a08602086016129bf565b925060408501359150606085013560ff81168114612a2557600080fd5b939692955090935050565b600080600060608486031215612a4557600080fd5b612a4e846129bf565b9250612a5c602085016129bf565b9150604084013590509250925092565b600060208284031215612a7e57600080fd5b5035919050565b60008060408385031215612a9857600080fd5b82359150612aa8602084016129bf565b90509250929050565b8035600281106129d657600080fd5b60008060408385031215612ad357600080fd5b612adc83612ab1565b946020939093013593505050565b600060208284031215612afc57600080fd5b6119eb826129bf565b60008060408385031215612b1857600080fd5b50508035926020909101359150565b6001600160a01b0391909116815260200190565b600060208284031215612b4d57600080fd5b6119eb82612ab1565b6000808284036060811215612b6a57600080fd5b612b7384612ab1565b92506040601f1982011215612b8757600080fd5b50604080519081016001600160401b0381118282101715612baa57612baa612879565b60409081526020858101358352940135938101939093525092909150565b6001600160a01b039384168152919092166020820152604081019190915260600190565b600181811c90821680612c0057607f821691505b602082108103610ecc57634e487b7160e01b600052602260045260246000fd5b601f82111561097b57600081815260208120601f850160051c81016020861015612c475750805b601f850160051c820191505b818110156117ef57828155600101612c53565b81516001600160401b03811115612c7f57612c7f612879565b612c9381612c8d8454612bec565b84612c20565b602080601f831160018114612cc85760008415612cb05750858301515b600019600386901b1c1916600185901b1785556117ef565b600085815260208120601f198616915b82811015612cf757888601518255948401946001909101908401612cd8565b5085821015612d155787850151600019600388901b60f8161c191681555b5050505050600190811b01905550565b634e487b7160e01b600052602160045260246000fd5b60208082526028908201527f536f75726365206d75737420626520746865206f7261636c65206f6620746865604082015267081c995c5d595cdd60c21b606082015260800190565b60005b83811015612d9e578181015183820152602001612d86565b50506000910152565b60008151612db9818560208601612d83565b9290920192915050565b60008251612dd5818460208701612d83565b9190910192915050565b634e487b7160e01b600052601160045260246000fd5b808202811582820484141761080e5761080e612ddf565b634e487b7160e01b600052601260045260246000fd5b600082612e3157612e31612e0c565b500490565b600060208284031215612e4857600080fd5b5051919050565b6001600160a01b03929092168252602082015260400190565b600060208284031215612e7a57600080fd5b815180151581146119eb57600080fd5b80546001600160a01b039081168352600182015416602083015260020154604090910152565b612eba8183612e8a565b606001919050565b6000805160206133b183398151915281526a312f737761703f7372633d60a81b602082015260008751612efc81602b850160208c01612d83565b64266473743d60d81b602b918401918201528751612f21816030840160208c01612d83565b6726616d6f756e743d60c01b603092909101918201528651612f4a816038840160208b01612d83565b652666726f6d3d60d01b603892909101918201528551612f7181603e840160208a01612d83565b6926736c6970706167653d60b01b603e9290910191820152612fdc612fbb612fb5612f9f6048850189612da7565b692672656365697665723d60b01b8152600a0190565b86612da7565b742664697361626c65457374696d6174653d7472756560581b815260150190565b9998505050505050505050565b6000805160206133b183398151915281526b312f71756f74653f7372633d60a01b60208201526000845161302481602c850160208901612d83565b64266473743d60d81b602c918401918201528451613049816031840160208901612d83565b6726616d6f756e743d60c01b603192909101918201528351613072816039840160208801612d83565b0160390195945050505050565b60006001820161309157613091612ddf565b5060010190565b6130a28183612e8a565b60039190910154606082015260800190565b76020b1b1b2b9b9a1b7b73a3937b61d1030b1b1b7bab73a1604d1b8152600083516130e6816017850160208801612d83565b7001034b99036b4b9b9b4b733903937b6329607d1b6017918401918201528351613117816028840160208801612d83565b01602801949350505050565b6000815180845261313b816020860160208601612d83565b601f01601f19169290920160200192915050565b6020815260006119eb6020830184613123565b8181038181111561080e5761080e612ddf565b634e487b7160e01b600052603260045260246000fd5b634e487b7160e01b600052603160045260246000fd5b8082018082111561080e5761080e612ddf565b6000816131c3576131c3612ddf565b506000190190565b60018060a01b038816815286602082015285604082015263ffffffff60e01b851660608201528360808201528260a082015260e060c08201526000612fdc60e0830184613123565b60008261322257613222612e0c565b500690565b60018060a01b038416815282602082015260606040820152600061324e6060830184613123565b95945050505050565b600181815b8085111561329257816000190482111561327857613278612ddf565b8085161561328557918102915b93841c939080029061325c565b509250929050565b6000826132a95750600161080e565b816132b65750600061080e565b81600181146132cc57600281146132d6576132f2565b600191505061080e565b60ff8411156132e7576132e7612ddf565b50506001821b61080e565b5060208310610133831016604e8410600b8410161715613315575081810a61080e565b61331f8383613257565b806000190482111561333357613333612ddf565b029392505050565b60006119eb838361329a56fe93627969d6ba3f2118f574a00f8d1c7fed4282f3728a455e8b3c867b1a1a212bb6904e5f1b44229e5609b681fbc2512409afa3e5a9072d0314256c012668dbe4416464726573733a206c6f772d6c6576656c2063616c6c20776974682076616c7565206661696c656468747470733a2f2f6170692e31696e63682e6465762f737761702f76352e322f17a8e30262c1f919c33056d877a3c22b95c2f5e4dac44683c1c2323cd79fbdb0a6b78fc047486d5add927aa53ba0d4fc8eb23a5811e0052aebeba21469f51df87cc135e0cebb02c3480ae5d74d377283180a2601f8f644edf7987b009316c63afab00a984754950c7187fb98f39da0ae224abbbee017c1699445ad0e19474a4da26469706673582212209f680faf2335fca25b37e84d95d98065bad015a2c82dee0d58874281387338ab64736f6c6343000813003317a8e30262c1f919c33056d877a3c22b95c2f5e4dac44683c1c2323cd79fbdb0fab00a984754950c7187fb98f39da0ae224abbbee017c1699445ad0e19474a4d","opcodes":"PUSH1 0xA0 PUSH1 0x40 MSTORE PUSH1 0x1 PUSH1 0x5 SSTORE CALLVALUE DUP1 ISZERO PUSH3 0x16 JUMPI PUSH1 0x0 DUP1 REVERT JUMPDEST POP PUSH1 0x40 MLOAD PUSH3 0x3EE2 CODESIZE SUB DUP1 PUSH3 0x3EE2 DUP4 CODECOPY DUP2 ADD PUSH1 0x40 DUP2 SWAP1 MSTORE PUSH3 0x39 SWAP2 PUSH3 0x74C JUMP JUMPDEST PUSH3 0x54 PUSH1 0x0 DUP1 MLOAD PUSH1 0x20 PUSH3 0x3EA2 DUP4 CODECOPY DUP2 MLOAD SWAP2 MSTORE DUP9 PUSH3 0x1A7 JUMP JUMPDEST PUSH3 0x80 PUSH32 0x93627969D6BA3F2118F574A00F8D1C7FED4282F3728A455E8B3C867B1A1A212B DUP9 PUSH3 0x1A7 JUMP JUMPDEST PUSH3 0x9B PUSH1 0x0 DUP1 MLOAD PUSH1 0x20 PUSH3 0x3EC2 DUP4 CODECOPY DUP2 MLOAD SWAP2 MSTORE DUP9 PUSH3 0x1A7 JUMP JUMPDEST PUSH1 0x3 DUP1 SLOAD PUSH1 0x1 PUSH1 0x1 PUSH1 0xA0 SHL SUB NOT AND PUSH1 0x1 PUSH1 0x1 PUSH1 0xA0 SHL SUB DUP8 AND OR SWAP1 SSTORE PUSH3 0xC1 DUP5 PUSH3 0x230 JUMP JUMPDEST PUSH3 0xEE PUSH1 0x0 PUSH1 0x40 MLOAD DUP1 PUSH1 0x40 ADD PUSH1 0x40 MSTORE DUP1 DUP6 PUSH3 0xDE SWAP1 PUSH3 0x83D JUMP JUMPDEST DUP2 MSTORE PUSH1 0x0 PUSH1 0x20 SWAP1 SWAP2 ADD MSTORE PUSH3 0x27A JUMP JUMPDEST PUSH3 0xFB PUSH1 0x0 DUP11 PUSH3 0x2D2 JUMP JUMPDEST PUSH3 0x118 PUSH1 0x1 PUSH1 0x40 MLOAD DUP1 PUSH1 0x40 ADD PUSH1 0x40 MSTORE DUP1 DUP7 PUSH3 0xDE SWAP1 PUSH3 0x83D JUMP JUMPDEST PUSH3 0x125 PUSH1 0x1 DUP10 PUSH3 0x2D2 JUMP JUMPDEST PUSH1 0x1 PUSH1 0x1 PUSH1 0xA0 SHL SUB DUP7 AND PUSH1 0x80 MSTORE PUSH1 0x0 JUMPDEST DUP2 MLOAD DUP2 PUSH1 0xFF AND LT ISZERO PUSH3 0x197 JUMPI PUSH3 0x182 PUSH1 0x0 DUP1 MLOAD PUSH1 0x20 PUSH3 0x3EC2 DUP4 CODECOPY DUP2 MLOAD SWAP2 MSTORE DUP4 DUP4 PUSH1 0xFF AND DUP2 MLOAD DUP2 LT PUSH3 0x16E JUMPI PUSH3 0x16E PUSH3 0x865 JUMP JUMPDEST PUSH1 0x20 MUL PUSH1 0x20 ADD ADD MLOAD PUSH3 0x1A7 PUSH1 0x20 SHL PUSH1 0x20 SHR JUMP JUMPDEST DUP1 PUSH3 0x18E DUP2 PUSH3 0x891 JUMP JUMPDEST SWAP2 POP POP PUSH3 0x135 JUMP JUMPDEST POP POP POP POP POP POP POP POP POP POP PUSH3 0x9E4 JUMP JUMPDEST PUSH3 0x1B3 DUP3 DUP3 PUSH3 0x341 JUMP JUMPDEST PUSH3 0x22C JUMPI PUSH1 0x0 DUP3 DUP2 MSTORE PUSH1 0x20 DUP2 DUP2 MSTORE PUSH1 0x40 DUP1 DUP4 KECCAK256 PUSH1 0x1 PUSH1 0x1 PUSH1 0xA0 SHL SUB DUP6 AND DUP5 MSTORE SWAP1 SWAP2 MSTORE SWAP1 KECCAK256 DUP1 SLOAD PUSH1 0xFF NOT AND PUSH1 0x1 OR SWAP1 SSTORE PUSH3 0x1EB CALLER SWAP1 JUMP JUMPDEST PUSH1 0x1 PUSH1 0x1 PUSH1 0xA0 SHL SUB AND DUP2 PUSH1 0x1 PUSH1 0x1 PUSH1 0xA0 SHL SUB AND DUP4 PUSH32 0x2F8788117E7EFF1D82E926EC794901D17C78024A50270940304540A733656F0D PUSH1 0x40 MLOAD PUSH1 0x40 MLOAD DUP1 SWAP2 SUB SWAP1 LOG4 JUMPDEST POP POP JUMP JUMPDEST PUSH1 0x0 DUP1 MLOAD PUSH1 0x20 PUSH3 0x3EA2 DUP4 CODECOPY DUP2 MLOAD SWAP2 MSTORE PUSH3 0x24B DUP2 PUSH3 0x36C JUMP JUMPDEST PUSH1 0x7 DUP1 SLOAD PUSH1 0x1 PUSH1 0x1 PUSH1 0xA0 SHL SUB DUP5 AND PUSH1 0x1 PUSH1 0x1 PUSH1 0xA0 SHL SUB NOT SWAP2 DUP3 AND DUP2 OR SWAP1 SWAP3 SSTORE PUSH1 0x4 DUP1 SLOAD SWAP1 SWAP2 AND SWAP1 SWAP2 OR SWAP1 SSTORE POP POP JUMP JUMPDEST PUSH1 0x0 DUP1 MLOAD PUSH1 0x20 PUSH3 0x3EA2 DUP4 CODECOPY DUP2 MLOAD SWAP2 MSTORE PUSH3 0x295 DUP2 PUSH3 0x36C JUMP JUMPDEST DUP2 PUSH1 0x10 PUSH1 0x0 DUP6 PUSH1 0x1 DUP2 GT ISZERO PUSH3 0x2AF JUMPI PUSH3 0x2AF PUSH3 0x8B3 JUMP JUMPDEST DUP2 MSTORE PUSH1 0x20 DUP1 DUP3 ADD SWAP3 SWAP1 SWAP3 MSTORE PUSH1 0x40 ADD PUSH1 0x0 KECCAK256 DUP3 MLOAD DUP2 SSTORE SWAP2 ADD MLOAD PUSH1 0x1 SWAP1 SWAP2 ADD SSTORE POP POP POP JUMP JUMPDEST PUSH1 0x0 DUP1 MLOAD PUSH1 0x20 PUSH3 0x3EA2 DUP4 CODECOPY DUP2 MLOAD SWAP2 MSTORE PUSH3 0x2ED DUP2 PUSH3 0x36C JUMP JUMPDEST PUSH1 0x64 PUSH3 0x303 PUSH8 0xDE0B6B3A7640000 DUP5 PUSH3 0x8C9 JUMP JUMPDEST PUSH3 0x30F SWAP2 SWAP1 PUSH3 0x8E3 JUMP JUMPDEST PUSH1 0x10 PUSH1 0x0 DUP6 PUSH1 0x1 DUP2 GT ISZERO PUSH3 0x328 JUMPI PUSH3 0x328 PUSH3 0x8B3 JUMP JUMPDEST DUP2 MSTORE PUSH1 0x20 DUP2 ADD SWAP2 SWAP1 SWAP2 MSTORE PUSH1 0x40 ADD PUSH1 0x0 KECCAK256 PUSH1 0x1 ADD SSTORE POP POP POP JUMP JUMPDEST PUSH1 0x0 DUP3 DUP2 MSTORE PUSH1 0x20 DUP2 DUP2 MSTORE PUSH1 0x40 DUP1 DUP4 KECCAK256 PUSH1 0x1 PUSH1 0x1 PUSH1 0xA0 SHL SUB DUP6 AND DUP5 MSTORE SWAP1 SWAP2 MSTORE SWAP1 KECCAK256 SLOAD PUSH1 0xFF AND JUMPDEST SWAP3 SWAP2 POP POP JUMP JUMPDEST PUSH3 0x378 DUP2 CALLER PUSH3 0x37B JUMP JUMPDEST POP JUMP JUMPDEST PUSH3 0x387 DUP3 DUP3 PUSH3 0x341 JUMP JUMPDEST PUSH3 0x22C JUMPI PUSH3 0x397 DUP2 PUSH3 0x3E8 JUMP JUMPDEST PUSH3 0x3A4 DUP4 PUSH1 0x20 PUSH3 0x3FB JUMP JUMPDEST PUSH1 0x40 MLOAD PUSH1 0x20 ADD PUSH3 0x3B7 SWAP3 SWAP2 SWAP1 PUSH3 0x906 JUMP JUMPDEST PUSH1 0x40 DUP1 MLOAD PUSH1 0x1F NOT DUP2 DUP5 SUB ADD DUP2 MSTORE SWAP1 DUP3 SWAP1 MSTORE PUSH3 0x461BCD PUSH1 0xE5 SHL DUP3 MSTORE PUSH3 0x3DF SWAP2 PUSH1 0x4 ADD PUSH3 0x97F JUMP JUMPDEST PUSH1 0x40 MLOAD DUP1 SWAP2 SUB SWAP1 REVERT JUMPDEST PUSH1 0x60 PUSH3 0x366 PUSH1 0x1 PUSH1 0x1 PUSH1 0xA0 SHL SUB DUP4 AND PUSH1 0x14 JUMPDEST PUSH1 0x60 PUSH1 0x0 PUSH3 0x40C DUP4 PUSH1 0x2 PUSH3 0x8C9 JUMP JUMPDEST PUSH3 0x419 SWAP1 PUSH1 0x2 PUSH3 0x9B4 JUMP JUMPDEST PUSH1 0x1 PUSH1 0x1 PUSH1 0x40 SHL SUB DUP2 GT ISZERO PUSH3 0x433 JUMPI PUSH3 0x433 PUSH3 0x5D8 JUMP JUMPDEST PUSH1 0x40 MLOAD SWAP1 DUP1 DUP3 MSTORE DUP1 PUSH1 0x1F ADD PUSH1 0x1F NOT AND PUSH1 0x20 ADD DUP3 ADD PUSH1 0x40 MSTORE DUP1 ISZERO PUSH3 0x45E JUMPI PUSH1 0x20 DUP3 ADD DUP2 DUP1 CALLDATASIZE DUP4 CALLDATACOPY ADD SWAP1 POP JUMPDEST POP SWAP1 POP PUSH1 0x3 PUSH1 0xFC SHL DUP2 PUSH1 0x0 DUP2 MLOAD DUP2 LT PUSH3 0x47C JUMPI PUSH3 0x47C PUSH3 0x865 JUMP JUMPDEST PUSH1 0x20 ADD ADD SWAP1 PUSH1 0x1 PUSH1 0x1 PUSH1 0xF8 SHL SUB NOT AND SWAP1 DUP2 PUSH1 0x0 BYTE SWAP1 MSTORE8 POP PUSH1 0xF PUSH1 0xFB SHL DUP2 PUSH1 0x1 DUP2 MLOAD DUP2 LT PUSH3 0x4AE JUMPI PUSH3 0x4AE PUSH3 0x865 JUMP JUMPDEST PUSH1 0x20 ADD ADD SWAP1 PUSH1 0x1 PUSH1 0x1 PUSH1 0xF8 SHL SUB NOT AND SWAP1 DUP2 PUSH1 0x0 BYTE SWAP1 MSTORE8 POP PUSH1 0x0 PUSH3 0x4D4 DUP5 PUSH1 0x2 PUSH3 0x8C9 JUMP JUMPDEST PUSH3 0x4E1 SWAP1 PUSH1 0x1 PUSH3 0x9B4 JUMP JUMPDEST SWAP1 POP JUMPDEST PUSH1 0x1 DUP2 GT ISZERO PUSH3 0x563 JUMPI PUSH16 0x181899199A1A9B1B9C1CB0B131B232B3 PUSH1 0x81 SHL DUP6 PUSH1 0xF AND PUSH1 0x10 DUP2 LT PUSH3 0x519 JUMPI PUSH3 0x519 PUSH3 0x865 JUMP JUMPDEST BYTE PUSH1 0xF8 SHL DUP3 DUP3 DUP2 MLOAD DUP2 LT PUSH3 0x532 JUMPI PUSH3 0x532 PUSH3 0x865 JUMP JUMPDEST PUSH1 0x20 ADD ADD SWAP1 PUSH1 0x1 PUSH1 0x1 PUSH1 0xF8 SHL SUB NOT AND SWAP1 DUP2 PUSH1 0x0 BYTE SWAP1 MSTORE8 POP PUSH1 0x4 SWAP5 SWAP1 SWAP5 SHR SWAP4 PUSH3 0x55B DUP2 PUSH3 0x9CA JUMP JUMPDEST SWAP1 POP PUSH3 0x4E4 JUMP JUMPDEST POP DUP4 ISZERO PUSH3 0x5B4 JUMPI PUSH1 0x40 MLOAD PUSH3 0x461BCD PUSH1 0xE5 SHL DUP2 MSTORE PUSH1 0x20 PUSH1 0x4 DUP3 ADD DUP2 SWAP1 MSTORE PUSH1 0x24 DUP3 ADD MSTORE PUSH32 0x537472696E67733A20686578206C656E67746820696E73756666696369656E74 PUSH1 0x44 DUP3 ADD MSTORE PUSH1 0x64 ADD PUSH3 0x3DF JUMP JUMPDEST SWAP4 SWAP3 POP POP POP JUMP JUMPDEST DUP1 MLOAD PUSH1 0x1 PUSH1 0x1 PUSH1 0xA0 SHL SUB DUP2 AND DUP2 EQ PUSH3 0x5D3 JUMPI PUSH1 0x0 DUP1 REVERT JUMPDEST SWAP2 SWAP1 POP JUMP JUMPDEST PUSH4 0x4E487B71 PUSH1 0xE0 SHL PUSH1 0x0 MSTORE PUSH1 0x41 PUSH1 0x4 MSTORE PUSH1 0x24 PUSH1 0x0 REVERT JUMPDEST PUSH1 0x40 MLOAD PUSH1 0x1F DUP3 ADD PUSH1 0x1F NOT AND DUP2 ADD PUSH1 0x1 PUSH1 0x1 PUSH1 0x40 SHL SUB DUP2 GT DUP3 DUP3 LT OR ISZERO PUSH3 0x619 JUMPI PUSH3 0x619 PUSH3 0x5D8 JUMP JUMPDEST PUSH1 0x40 MSTORE SWAP2 SWAP1 POP JUMP JUMPDEST PUSH1 0x0 JUMPDEST DUP4 DUP2 LT ISZERO PUSH3 0x63E JUMPI DUP2 DUP2 ADD MLOAD DUP4 DUP3 ADD MSTORE PUSH1 0x20 ADD PUSH3 0x624 JUMP JUMPDEST POP POP PUSH1 0x0 SWAP2 ADD MSTORE JUMP JUMPDEST PUSH1 0x0 DUP3 PUSH1 0x1F DUP4 ADD SLT PUSH3 0x659 JUMPI PUSH1 0x0 DUP1 REVERT JUMPDEST DUP2 MLOAD PUSH1 0x1 PUSH1 0x1 PUSH1 0x40 SHL SUB DUP2 GT ISZERO PUSH3 0x675 JUMPI PUSH3 0x675 PUSH3 0x5D8 JUMP JUMPDEST PUSH3 0x68A PUSH1 0x1F DUP3 ADD PUSH1 0x1F NOT AND PUSH1 0x20 ADD PUSH3 0x5EE JUMP JUMPDEST DUP2 DUP2 MSTORE DUP5 PUSH1 0x20 DUP4 DUP7 ADD ADD GT ISZERO PUSH3 0x6A0 JUMPI PUSH1 0x0 DUP1 REVERT JUMPDEST PUSH3 0x6B3 DUP3 PUSH1 0x20 DUP4 ADD PUSH1 0x20 DUP8 ADD PUSH3 0x621 JUMP JUMPDEST SWAP5 SWAP4 POP POP POP POP JUMP JUMPDEST PUSH1 0x0 DUP3 PUSH1 0x1F DUP4 ADD SLT PUSH3 0x6CD JUMPI PUSH1 0x0 DUP1 REVERT JUMPDEST DUP2 MLOAD PUSH1 0x20 PUSH1 0x1 PUSH1 0x1 PUSH1 0x40 SHL SUB DUP3 GT ISZERO PUSH3 0x6EB JUMPI PUSH3 0x6EB PUSH3 0x5D8 JUMP JUMPDEST DUP2 PUSH1 0x5 SHL PUSH3 0x6FC DUP3 DUP3 ADD PUSH3 0x5EE JUMP JUMPDEST SWAP3 DUP4 MSTORE DUP5 DUP2 ADD DUP3 ADD SWAP3 DUP3 DUP2 ADD SWAP1 DUP8 DUP6 GT ISZERO PUSH3 0x717 JUMPI PUSH1 0x0 DUP1 REVERT JUMPDEST DUP4 DUP8 ADD SWAP3 POP JUMPDEST DUP5 DUP4 LT ISZERO PUSH3 0x741 JUMPI PUSH3 0x731 DUP4 PUSH3 0x5BB JUMP JUMPDEST DUP3 MSTORE SWAP2 DUP4 ADD SWAP2 SWAP1 DUP4 ADD SWAP1 PUSH3 0x71D JUMP JUMPDEST SWAP8 SWAP7 POP POP POP POP POP POP POP JUMP JUMPDEST PUSH1 0x0 DUP1 PUSH1 0x0 DUP1 PUSH1 0x0 DUP1 PUSH1 0x0 DUP1 PUSH1 0x0 PUSH2 0x120 DUP11 DUP13 SUB SLT ISZERO PUSH3 0x76C JUMPI PUSH1 0x0 DUP1 REVERT JUMPDEST DUP10 MLOAD SWAP9 POP PUSH1 0x20 DUP11 ADD MLOAD SWAP8 POP PUSH3 0x785 PUSH1 0x40 DUP12 ADD PUSH3 0x5BB JUMP JUMPDEST SWAP7 POP PUSH3 0x795 PUSH1 0x60 DUP12 ADD PUSH3 0x5BB JUMP JUMPDEST SWAP6 POP PUSH3 0x7A5 PUSH1 0x80 DUP12 ADD PUSH3 0x5BB JUMP JUMPDEST SWAP5 POP PUSH3 0x7B5 PUSH1 0xA0 DUP12 ADD PUSH3 0x5BB JUMP JUMPDEST PUSH1 0xC0 DUP12 ADD MLOAD SWAP1 SWAP5 POP PUSH1 0x1 PUSH1 0x1 PUSH1 0x40 SHL SUB DUP1 DUP3 GT ISZERO PUSH3 0x7D3 JUMPI PUSH1 0x0 DUP1 REVERT JUMPDEST PUSH3 0x7E1 DUP14 DUP4 DUP15 ADD PUSH3 0x647 JUMP JUMPDEST SWAP5 POP PUSH1 0xE0 DUP13 ADD MLOAD SWAP2 POP DUP1 DUP3 GT ISZERO PUSH3 0x7F8 JUMPI PUSH1 0x0 DUP1 REVERT JUMPDEST PUSH3 0x806 DUP14 DUP4 DUP15 ADD PUSH3 0x647 JUMP JUMPDEST SWAP4 POP PUSH2 0x100 DUP13 ADD MLOAD SWAP2 POP DUP1 DUP3 GT ISZERO PUSH3 0x81E JUMPI PUSH1 0x0 DUP1 REVERT JUMPDEST POP PUSH3 0x82D DUP13 DUP3 DUP14 ADD PUSH3 0x6BB JUMP JUMPDEST SWAP2 POP POP SWAP3 SWAP6 SWAP9 POP SWAP3 SWAP6 SWAP9 POP SWAP3 SWAP6 SWAP9 JUMP JUMPDEST DUP1 MLOAD PUSH1 0x20 DUP1 DUP4 ADD MLOAD SWAP2 SWAP1 DUP2 LT ISZERO PUSH3 0x85F JUMPI PUSH1 0x0 NOT DUP2 PUSH1 0x20 SUB PUSH1 0x3 SHL SHL DUP3 AND SWAP2 POP JUMPDEST POP SWAP2 SWAP1 POP JUMP JUMPDEST PUSH4 0x4E487B71 PUSH1 0xE0 SHL PUSH1 0x0 MSTORE PUSH1 0x32 PUSH1 0x4 MSTORE PUSH1 0x24 PUSH1 0x0 REVERT JUMPDEST PUSH4 0x4E487B71 PUSH1 0xE0 SHL PUSH1 0x0 MSTORE PUSH1 0x11 PUSH1 0x4 MSTORE PUSH1 0x24 PUSH1 0x0 REVERT JUMPDEST PUSH1 0x0 PUSH1 0xFF DUP3 AND PUSH1 0xFF DUP2 SUB PUSH3 0x8AA JUMPI PUSH3 0x8AA PUSH3 0x87B JUMP JUMPDEST PUSH1 0x1 ADD SWAP3 SWAP2 POP POP JUMP JUMPDEST PUSH4 0x4E487B71 PUSH1 0xE0 SHL PUSH1 0x0 MSTORE PUSH1 0x21 PUSH1 0x4 MSTORE PUSH1 0x24 PUSH1 0x0 REVERT JUMPDEST DUP1 DUP3 MUL DUP2 ISZERO DUP3 DUP3 DIV DUP5 EQ OR PUSH3 0x366 JUMPI PUSH3 0x366 PUSH3 0x87B JUMP JUMPDEST PUSH1 0x0 DUP3 PUSH3 0x901 JUMPI PUSH4 0x4E487B71 PUSH1 0xE0 SHL PUSH1 0x0 MSTORE PUSH1 0x12 PUSH1 0x4 MSTORE PUSH1 0x24 PUSH1 0x0 REVERT JUMPDEST POP DIV SWAP1 JUMP JUMPDEST PUSH32 0x416363657373436F6E74726F6C3A206163636F756E7420000000000000000000 DUP2 MSTORE PUSH1 0x0 DUP4 MLOAD PUSH3 0x940 DUP2 PUSH1 0x17 DUP6 ADD PUSH1 0x20 DUP9 ADD PUSH3 0x621 JUMP JUMPDEST PUSH17 0x1034B99036B4B9B9B4B733903937B6329 PUSH1 0x7D SHL PUSH1 0x17 SWAP2 DUP5 ADD SWAP2 DUP3 ADD MSTORE DUP4 MLOAD PUSH3 0x973 DUP2 PUSH1 0x28 DUP5 ADD PUSH1 0x20 DUP9 ADD PUSH3 0x621 JUMP JUMPDEST ADD PUSH1 0x28 ADD SWAP5 SWAP4 POP POP POP POP JUMP JUMPDEST PUSH1 0x20 DUP2 MSTORE PUSH1 0x0 DUP3 MLOAD DUP1 PUSH1 0x20 DUP5 ADD MSTORE PUSH3 0x9A0 DUP2 PUSH1 0x40 DUP6 ADD PUSH1 0x20 DUP8 ADD PUSH3 0x621 JUMP JUMPDEST PUSH1 0x1F ADD PUSH1 0x1F NOT AND SWAP2 SWAP1 SWAP2 ADD PUSH1 0x40 ADD SWAP3 SWAP2 POP POP JUMP JUMPDEST DUP1 DUP3 ADD DUP1 DUP3 GT ISZERO PUSH3 0x366 JUMPI PUSH3 0x366 PUSH3 0x87B JUMP JUMPDEST PUSH1 0x0 DUP2 PUSH3 0x9DC JUMPI PUSH3 0x9DC PUSH3 0x87B JUMP JUMPDEST POP PUSH1 0x0 NOT ADD SWAP1 JUMP JUMPDEST PUSH1 0x80 MLOAD PUSH2 0x3486 PUSH3 0xA1C PUSH1 0x0 CODECOPY PUSH1 0x0 DUP2 DUP2 PUSH2 0x73A ADD MSTORE DUP2 DUP2 PUSH2 0x1169 ADD MSTORE DUP2 DUP2 PUSH2 0x1209 ADD MSTORE DUP2 DUP2 PUSH2 0x1337 ADD MSTORE PUSH2 0x13F8 ADD MSTORE PUSH2 0x3486 PUSH1 0x0 RETURN INVALID PUSH1 0x80 PUSH1 0x40 MSTORE PUSH1 0x4 CALLDATASIZE LT PUSH2 0x1CF JUMPI PUSH1 0x0 CALLDATALOAD PUSH1 0xE0 SHR DUP1 PUSH4 0x1A76F59 EQ PUSH2 0x1DB JUMPI DUP1 PUSH4 0x1FFC9A7 EQ PUSH2 0x1F0 JUMPI DUP1 PUSH4 0x2458AD8 EQ PUSH2 0x225 JUMPI DUP1 PUSH4 0x10CABD1D EQ PUSH2 0x245 JUMPI DUP1 PUSH4 0x1A5B4207 EQ PUSH2 0x258 JUMPI DUP1 PUSH4 0x248A9CA3 EQ PUSH2 0x278 JUMPI DUP1 PUSH4 0x2F2FF15D EQ PUSH2 0x2A6 JUMPI DUP1 PUSH4 0x36568ABE EQ PUSH2 0x2C6 JUMPI DUP1 PUSH4 0x4AB5C503 EQ PUSH2 0x2E6 JUMPI DUP1 PUSH4 0x4C69C00F EQ PUSH2 0x306 JUMPI DUP1 PUSH4 0x4D1DDE7B EQ PUSH2 0x326 JUMPI DUP1 PUSH4 0x4E0C6133 EQ PUSH2 0x346 JUMPI DUP1 PUSH4 0x4E22E31E EQ PUSH2 0x368 JUMPI DUP1 PUSH4 0x50C284B3 EQ PUSH2 0x388 JUMPI DUP1 PUSH4 0x627C34AD EQ PUSH2 0x3A8 JUMPI DUP1 PUSH4 0x66B8455B EQ PUSH2 0x3C8 JUMPI DUP1 PUSH4 0x6CCF5B01 EQ PUSH2 0x3DD JUMPI DUP1 PUSH4 0x81777A3D EQ PUSH2 0x40A JUMPI DUP1 PUSH4 0x8DC654A2 EQ PUSH2 0x484 JUMPI DUP1 PUSH4 0x91D14854 EQ PUSH2 0x499 JUMPI DUP1 PUSH4 0x94555D1A EQ PUSH2 0x4B9 JUMPI DUP1 PUSH4 0xA217FDDF EQ PUSH2 0x4D9 JUMPI DUP1 PUSH4 0xA378A324 EQ PUSH2 0x4EE JUMPI DUP1 PUSH4 0xA74D01D4 EQ PUSH2 0x510 JUMPI DUP1 PUSH4 0xA89AE4BA EQ PUSH2 0x530 JUMPI DUP1 PUSH4 0xAAEAFD56 EQ PUSH2 0x550 JUMPI DUP1 PUSH4 0xAB3C322D EQ PUSH2 0x578 JUMPI DUP1 PUSH4 0xB18B78DD EQ PUSH2 0x597 JUMPI DUP1 PUSH4 0xB6761CB8 EQ PUSH2 0x5AC JUMPI DUP1 PUSH4 0xBE555A80 EQ PUSH2 0x5CC JUMPI DUP1 PUSH4 0xC0D2E37F EQ PUSH2 0x5EC JUMPI DUP1 PUSH4 0xCACFACF4 EQ PUSH2 0x606 JUMPI DUP1 PUSH4 0xD547741F EQ PUSH2 0x626 JUMPI DUP1 PUSH4 0xD9FF478F EQ PUSH2 0x646 JUMPI DUP1 PUSH4 0xDC39B19A EQ PUSH2 0x680 JUMPI DUP1 PUSH4 0xE05D6BF2 EQ PUSH2 0x695 JUMPI DUP1 PUSH4 0xE75D763F EQ PUSH2 0x6B7 JUMPI DUP1 PUSH4 0xEAAD47B2 EQ PUSH2 0x700 JUMPI DUP1 PUSH4 0xF09922FF EQ PUSH2 0x715 JUMPI DUP1 PUSH4 0xFCDFD946 EQ PUSH2 0x728 JUMPI PUSH1 0x0 DUP1 REVERT JUMPDEST CALLDATASIZE PUSH2 0x1D6 JUMPI STOP JUMPDEST PUSH1 0x0 DUP1 REVERT JUMPDEST PUSH2 0x1EE PUSH2 0x1E9 CALLDATASIZE PUSH1 0x4 PUSH2 0x291B JUMP JUMPDEST PUSH2 0x75C JUMP JUMPDEST STOP JUMPDEST CALLVALUE DUP1 ISZERO PUSH2 0x1FC JUMPI PUSH1 0x0 DUP1 REVERT JUMPDEST POP PUSH2 0x210 PUSH2 0x20B CALLDATASIZE PUSH1 0x4 PUSH2 0x294F JUMP JUMPDEST PUSH2 0x7DD JUMP JUMPDEST PUSH1 0x40 MLOAD SWAP1 ISZERO ISZERO DUP2 MSTORE PUSH1 0x20 ADD JUMPDEST PUSH1 0x40 MLOAD DUP1 SWAP2 SUB SWAP1 RETURN JUMPDEST CALLVALUE DUP1 ISZERO PUSH2 0x231 JUMPI PUSH1 0x0 DUP1 REVERT JUMPDEST POP PUSH2 0x1EE PUSH2 0x240 CALLDATASIZE PUSH1 0x4 PUSH2 0x2979 JUMP JUMPDEST PUSH2 0x814 JUMP JUMPDEST PUSH2 0x1EE PUSH2 0x253 CALLDATASIZE PUSH1 0x4 PUSH2 0x29DB JUMP JUMPDEST PUSH2 0x8D1 JUMP JUMPDEST CALLVALUE DUP1 ISZERO PUSH2 0x264 JUMPI PUSH1 0x0 DUP1 REVERT JUMPDEST POP PUSH2 0x1EE PUSH2 0x273 CALLDATASIZE PUSH1 0x4 PUSH2 0x2A30 JUMP JUMPDEST PUSH2 0x90E JUMP JUMPDEST CALLVALUE DUP1 ISZERO PUSH2 0x284 JUMPI PUSH1 0x0 DUP1 REVERT JUMPDEST POP PUSH2 0x298 PUSH2 0x293 CALLDATASIZE PUSH1 0x4 PUSH2 0x2A6C JUMP JUMPDEST PUSH2 0x94A JUMP JUMPDEST PUSH1 0x40 MLOAD SWAP1 DUP2 MSTORE PUSH1 0x20 ADD PUSH2 0x21C JUMP JUMPDEST CALLVALUE DUP1 ISZERO PUSH2 0x2B2 JUMPI PUSH1 0x0 DUP1 REVERT JUMPDEST POP PUSH2 0x1EE PUSH2 0x2C1 CALLDATASIZE PUSH1 0x4 PUSH2 0x2A85 JUMP JUMPDEST PUSH2 0x95F JUMP JUMPDEST CALLVALUE DUP1 ISZERO PUSH2 0x2D2 JUMPI PUSH1 0x0 DUP1 REVERT JUMPDEST POP PUSH2 0x1EE PUSH2 0x2E1 CALLDATASIZE PUSH1 0x4 PUSH2 0x2A85 JUMP JUMPDEST PUSH2 0x980 JUMP JUMPDEST CALLVALUE DUP1 ISZERO PUSH2 0x2F2 JUMPI PUSH1 0x0 DUP1 REVERT JUMPDEST POP PUSH2 0x1EE PUSH2 0x301 CALLDATASIZE PUSH1 0x4 PUSH2 0x2AC0 JUMP JUMPDEST PUSH2 0x9FE JUMP JUMPDEST CALLVALUE DUP1 ISZERO PUSH2 0x312 JUMPI PUSH1 0x0 DUP1 REVERT JUMPDEST POP PUSH2 0x1EE PUSH2 0x321 CALLDATASIZE PUSH1 0x4 PUSH2 0x2AEA JUMP JUMPDEST PUSH2 0xA63 JUMP JUMPDEST CALLVALUE DUP1 ISZERO PUSH2 0x332 JUMPI PUSH1 0x0 DUP1 REVERT JUMPDEST POP PUSH2 0x1EE PUSH2 0x341 CALLDATASIZE PUSH1 0x4 PUSH2 0x2A30 JUMP JUMPDEST PUSH2 0xAA9 JUMP JUMPDEST CALLVALUE DUP1 ISZERO PUSH2 0x352 JUMPI PUSH1 0x0 DUP1 REVERT JUMPDEST POP PUSH2 0x298 PUSH1 0x0 DUP1 MLOAD PUSH1 0x20 PUSH2 0x3431 DUP4 CODECOPY DUP2 MLOAD SWAP2 MSTORE DUP2 JUMP JUMPDEST CALLVALUE DUP1 ISZERO PUSH2 0x374 JUMPI PUSH1 0x0 DUP1 REVERT JUMPDEST POP PUSH2 0x1EE PUSH2 0x383 CALLDATASIZE PUSH1 0x4 PUSH2 0x2B05 JUMP JUMPDEST PUSH2 0xAD4 JUMP JUMPDEST CALLVALUE DUP1 ISZERO PUSH2 0x394 JUMPI PUSH1 0x0 DUP1 REVERT JUMPDEST POP PUSH2 0x1EE PUSH2 0x3A3 CALLDATASIZE PUSH1 0x4 PUSH2 0x2A6C JUMP JUMPDEST PUSH2 0xB6F JUMP JUMPDEST CALLVALUE DUP1 ISZERO PUSH2 0x3B4 JUMPI PUSH1 0x0 DUP1 REVERT JUMPDEST POP PUSH2 0x1EE PUSH2 0x3C3 CALLDATASIZE PUSH1 0x4 PUSH2 0x2AEA JUMP JUMPDEST PUSH2 0xBBF JUMP JUMPDEST CALLVALUE DUP1 ISZERO PUSH2 0x3D4 JUMPI PUSH1 0x0 DUP1 REVERT JUMPDEST POP PUSH2 0x298 PUSH2 0xBFF JUMP JUMPDEST CALLVALUE DUP1 ISZERO PUSH2 0x3E9 JUMPI PUSH1 0x0 DUP1 REVERT JUMPDEST POP PUSH2 0x3FD PUSH2 0x3F8 CALLDATASIZE PUSH1 0x4 PUSH2 0x2A6C JUMP JUMPDEST PUSH2 0xC10 JUMP JUMPDEST PUSH1 0x40 MLOAD PUSH2 0x21C SWAP2 SWAP1 PUSH2 0x2B27 JUMP JUMPDEST CALLVALUE DUP1 ISZERO PUSH2 0x416 JUMPI PUSH1 0x0 DUP1 REVERT JUMPDEST POP PUSH1 0x40 DUP1 MLOAD PUSH1 0x60 DUP2 ADD DUP3 MSTORE PUSH1 0x8 SLOAD PUSH1 0x1 PUSH1 0x1 PUSH1 0xA0 SHL SUB SWAP1 DUP2 AND DUP3 MSTORE PUSH1 0x9 SLOAD AND PUSH1 0x20 DUP3 ADD MSTORE PUSH1 0xA SLOAD SWAP2 DUP2 ADD SWAP2 SWAP1 SWAP2 MSTORE PUSH1 0xB SLOAD PUSH2 0x44F SWAP2 SWAP1 DUP3 JUMP JUMPDEST PUSH1 0x40 DUP1 MLOAD DUP4 MLOAD PUSH1 0x1 PUSH1 0x1 PUSH1 0xA0 SHL SUB SWAP1 DUP2 AND DUP3 MSTORE PUSH1 0x20 DUP1 DUP7 ADD MLOAD SWAP1 SWAP2 AND SWAP1 DUP3 ADD MSTORE SWAP3 DUP2 ADD MLOAD SWAP1 DUP4 ADD MSTORE PUSH1 0x60 DUP3 ADD MSTORE PUSH1 0x80 ADD PUSH2 0x21C JUMP JUMPDEST CALLVALUE DUP1 ISZERO PUSH2 0x490 JUMPI PUSH1 0x0 DUP1 REVERT JUMPDEST POP PUSH2 0x1EE PUSH2 0xC1D JUMP JUMPDEST CALLVALUE DUP1 ISZERO PUSH2 0x4A5 JUMPI PUSH1 0x0 DUP1 REVERT JUMPDEST POP PUSH2 0x210 PUSH2 0x4B4 CALLDATASIZE PUSH1 0x4 PUSH2 0x2A85 JUMP JUMPDEST PUSH2 0xD45 JUMP JUMPDEST CALLVALUE DUP1 ISZERO PUSH2 0x4C5 JUMPI PUSH1 0x0 DUP1 REVERT JUMPDEST POP PUSH2 0x1EE PUSH2 0x4D4 CALLDATASIZE PUSH1 0x4 PUSH2 0x2AEA JUMP JUMPDEST PUSH2 0xD6E JUMP JUMPDEST CALLVALUE DUP1 ISZERO PUSH2 0x4E5 JUMPI PUSH1 0x0 DUP1 REVERT JUMPDEST POP PUSH2 0x298 PUSH1 0x0 DUP2 JUMP JUMPDEST CALLVALUE DUP1 ISZERO PUSH2 0x4FA JUMPI PUSH1 0x0 DUP1 REVERT JUMPDEST POP PUSH2 0x298 PUSH1 0x0 DUP1 MLOAD PUSH1 0x20 PUSH2 0x33D1 DUP4 CODECOPY DUP2 MLOAD SWAP2 MSTORE DUP2 JUMP JUMPDEST CALLVALUE DUP1 ISZERO PUSH2 0x51C JUMPI PUSH1 0x0 DUP1 REVERT JUMPDEST POP PUSH2 0x1EE PUSH2 0x52B CALLDATASIZE PUSH1 0x4 PUSH2 0x2B05 JUMP JUMPDEST PUSH2 0xDAE JUMP JUMPDEST CALLVALUE DUP1 ISZERO PUSH2 0x53C JUMPI PUSH1 0x0 DUP1 REVERT JUMPDEST POP PUSH1 0x7 SLOAD PUSH2 0x3FD SWAP1 PUSH1 0x1 PUSH1 0x1 PUSH1 0xA0 SHL SUB AND DUP2 JUMP JUMPDEST CALLVALUE DUP1 ISZERO PUSH2 0x55C JUMPI PUSH1 0x0 DUP1 REVERT JUMPDEST POP PUSH2 0x3FD PUSH20 0xEEEEEEEEEEEEEEEEEEEEEEEEEEEEEEEEEEEEEEEE DUP2 JUMP JUMPDEST CALLVALUE DUP1 ISZERO PUSH2 0x584 JUMPI PUSH1 0x0 DUP1 REVERT JUMPDEST POP PUSH1 0xF SLOAD PUSH2 0x210 SWAP1 PUSH2 0x100 SWAP1 DIV PUSH1 0xFF AND DUP2 JUMP JUMPDEST CALLVALUE DUP1 ISZERO PUSH2 0x5A3 JUMPI PUSH1 0x0 DUP1 REVERT JUMPDEST POP PUSH2 0x3FD PUSH2 0xE3D JUMP JUMPDEST CALLVALUE DUP1 ISZERO PUSH2 0x5B8 JUMPI PUSH1 0x0 DUP1 REVERT JUMPDEST POP PUSH2 0x298 PUSH2 0x5C7 CALLDATASIZE PUSH1 0x4 PUSH2 0x2B3B JUMP JUMPDEST PUSH2 0xE68 JUMP JUMPDEST CALLVALUE DUP1 ISZERO PUSH2 0x5D8 JUMPI PUSH1 0x0 DUP1 REVERT JUMPDEST POP PUSH2 0x1EE PUSH2 0x5E7 CALLDATASIZE PUSH1 0x4 PUSH2 0x2B56 JUMP JUMPDEST PUSH2 0xED2 JUMP JUMPDEST CALLVALUE DUP1 ISZERO PUSH2 0x5F8 JUMPI PUSH1 0x0 DUP1 REVERT JUMPDEST POP PUSH1 0xF SLOAD PUSH2 0x210 SWAP1 PUSH1 0xFF AND DUP2 JUMP JUMPDEST CALLVALUE DUP1 ISZERO PUSH2 0x612 JUMPI PUSH1 0x0 DUP1 REVERT JUMPDEST POP PUSH2 0x1EE PUSH2 0x621 CALLDATASIZE PUSH1 0x4 PUSH2 0x2979 JUMP JUMPDEST PUSH2 0xF24 JUMP JUMPDEST CALLVALUE DUP1 ISZERO PUSH2 0x632 JUMPI PUSH1 0x0 DUP1 REVERT JUMPDEST POP PUSH2 0x1EE PUSH2 0x641 CALLDATASIZE PUSH1 0x4 PUSH2 0x2A85 JUMP JUMPDEST PUSH2 0xFE8 JUMP JUMPDEST CALLVALUE DUP1 ISZERO PUSH2 0x652 JUMPI PUSH1 0x0 DUP1 REVERT JUMPDEST POP PUSH1 0xC SLOAD PUSH1 0xD SLOAD PUSH1 0xE SLOAD PUSH2 0x671 SWAP3 PUSH1 0x1 PUSH1 0x1 PUSH1 0xA0 SHL SUB SWAP1 DUP2 AND SWAP3 AND SWAP1 DUP4 JUMP JUMPDEST PUSH1 0x40 MLOAD PUSH2 0x21C SWAP4 SWAP3 SWAP2 SWAP1 PUSH2 0x2BC8 JUMP JUMPDEST CALLVALUE DUP1 ISZERO PUSH2 0x68C JUMPI PUSH1 0x0 DUP1 REVERT JUMPDEST POP PUSH2 0x1EE PUSH2 0x1004 JUMP JUMPDEST CALLVALUE DUP1 ISZERO PUSH2 0x6A1 JUMPI PUSH1 0x0 DUP1 REVERT JUMPDEST POP PUSH2 0x298 PUSH1 0x0 DUP1 MLOAD PUSH1 0x20 PUSH2 0x3348 DUP4 CODECOPY DUP2 MLOAD SWAP2 MSTORE DUP2 JUMP JUMPDEST CALLVALUE DUP1 ISZERO PUSH2 0x6C3 JUMPI PUSH1 0x0 DUP1 REVERT JUMPDEST POP PUSH2 0x6EB PUSH2 0x6D2 CALLDATASIZE PUSH1 0x4 PUSH2 0x2A6C JUMP JUMPDEST PUSH1 0x10 PUSH1 0x20 MSTORE PUSH1 0x0 SWAP1 DUP2 MSTORE PUSH1 0x40 SWAP1 KECCAK256 DUP1 SLOAD PUSH1 0x1 SWAP1 SWAP2 ADD SLOAD DUP3 JUMP JUMPDEST PUSH1 0x40 DUP1 MLOAD SWAP3 DUP4 MSTORE PUSH1 0x20 DUP4 ADD SWAP2 SWAP1 SWAP2 MSTORE ADD PUSH2 0x21C JUMP JUMPDEST CALLVALUE DUP1 ISZERO PUSH2 0x70C JUMPI PUSH1 0x0 DUP1 REVERT JUMPDEST POP PUSH2 0x1EE PUSH2 0x105A JUMP JUMPDEST PUSH2 0x1EE PUSH2 0x723 CALLDATASIZE PUSH1 0x4 PUSH2 0x29DB JUMP JUMPDEST PUSH2 0x10AA JUMP JUMPDEST CALLVALUE DUP1 ISZERO PUSH2 0x734 JUMPI PUSH1 0x0 DUP1 REVERT JUMPDEST POP PUSH2 0x3FD PUSH32 0x0 DUP2 JUMP JUMPDEST PUSH1 0x0 DUP1 MLOAD PUSH1 0x20 PUSH2 0x33D1 DUP4 CODECOPY DUP2 MLOAD SWAP2 MSTORE PUSH2 0x774 DUP2 PUSH2 0x10DF JUMP JUMPDEST PUSH1 0xF DUP1 SLOAD PUSH1 0xFF NOT AND SWAP1 SSTORE PUSH1 0x11 PUSH2 0x78A DUP4 DUP3 PUSH2 0x2C66 JUMP JUMPDEST POP PUSH1 0xC SLOAD PUSH1 0xE SLOAD PUSH2 0x7A5 SWAP2 PUSH1 0x1 PUSH1 0x1 PUSH1 0xA0 SHL SUB AND SWAP1 CALLER PUSH2 0x10EC JUMP JUMPDEST PUSH2 0x7AD PUSH2 0x1278 JUMP JUMPDEST PUSH1 0x1 JUMPDEST PUSH1 0x40 MLOAD PUSH32 0xFC252EEB655AD1AA88173FF876F64057C196504C7D3819259257F95C7F05B710 SWAP1 PUSH1 0x0 SWAP1 LOG2 POP POP JUMP JUMPDEST PUSH1 0x0 PUSH1 0x1 PUSH1 0x1 PUSH1 0xE0 SHL SUB NOT DUP3 AND PUSH4 0x7965DB0B PUSH1 0xE0 SHL EQ DUP1 PUSH2 0x80E JUMPI POP PUSH4 0x1FFC9A7 PUSH1 0xE0 SHL PUSH1 0x1 PUSH1 0x1 PUSH1 0xE0 SHL SUB NOT DUP4 AND EQ JUMPDEST SWAP3 SWAP2 POP POP JUMP JUMPDEST PUSH1 0x0 DUP3 DUP2 MSTORE PUSH1 0x6 PUSH1 0x20 MSTORE PUSH1 0x40 SWAP1 KECCAK256 SLOAD DUP3 SWAP1 PUSH1 0x1 PUSH1 0x1 PUSH1 0xA0 SHL SUB AND CALLER EQ PUSH2 0x855 JUMPI PUSH1 0x40 MLOAD PUSH3 0x461BCD PUSH1 0xE5 SHL DUP2 MSTORE PUSH1 0x4 ADD PUSH2 0x84C SWAP1 PUSH2 0x2D3B JUMP JUMPDEST PUSH1 0x40 MLOAD DUP1 SWAP2 SUB SWAP1 REVERT JUMPDEST PUSH1 0x0 DUP2 DUP2 MSTORE PUSH1 0x6 PUSH1 0x20 MSTORE PUSH1 0x40 DUP1 DUP3 KECCAK256 DUP1 SLOAD PUSH1 0x1 PUSH1 0x1 PUSH1 0xA0 SHL SUB NOT AND SWAP1 SSTORE MLOAD DUP3 SWAP2 PUSH1 0x0 DUP1 MLOAD PUSH1 0x20 PUSH2 0x3411 DUP4 CODECOPY DUP2 MLOAD SWAP2 MSTORE SWAP2 LOG2 PUSH1 0x11 PUSH2 0x892 DUP4 DUP3 PUSH2 0x2C66 JUMP JUMPDEST POP PUSH1 0xF DUP1 SLOAD PUSH1 0xFF NOT AND PUSH1 0x1 OR SWAP1 SSTORE PUSH1 0x40 MLOAD PUSH2 0x8AE SWAP1 DUP4 SWAP1 PUSH2 0x2DC3 JUMP JUMPDEST PUSH1 0x40 MLOAD SWAP1 DUP2 SWAP1 SUB DUP2 KECCAK256 SWAP1 PUSH1 0x0 DUP1 MLOAD PUSH1 0x20 PUSH2 0x33F1 DUP4 CODECOPY DUP2 MLOAD SWAP2 MSTORE SWAP1 PUSH1 0x0 SWAP1 LOG2 POP POP POP JUMP JUMPDEST PUSH1 0x0 DUP1 MLOAD PUSH1 0x20 PUSH2 0x3431 DUP4 CODECOPY DUP2 MLOAD SWAP2 MSTORE PUSH2 0x8E9 DUP2 PUSH2 0x10DF JUMP JUMPDEST PUSH1 0xF DUP1 SLOAD PUSH1 0xFF NOT AND SWAP1 SSTORE PUSH2 0x907 DUP6 DUP6 DUP6 DUP6 PUSH4 0x32B3EB3D PUSH1 0xE2 SHL PUSH2 0x1471 JUMP JUMPDEST POP POP POP POP POP JUMP JUMPDEST PUSH1 0x0 DUP1 MLOAD PUSH1 0x20 PUSH2 0x3348 DUP4 CODECOPY DUP2 MLOAD SWAP2 MSTORE PUSH2 0x926 DUP2 PUSH2 0x10DF JUMP JUMPDEST PUSH1 0xF DUP1 SLOAD PUSH2 0xFF00 NOT AND SWAP1 SSTORE PUSH2 0x944 DUP5 DUP5 DUP5 PUSH4 0x2711718F PUSH1 0xE1 SHL PUSH2 0x1681 JUMP JUMPDEST POP POP POP POP JUMP JUMPDEST PUSH1 0x0 SWAP1 DUP2 MSTORE PUSH1 0x20 DUP2 SWAP1 MSTORE PUSH1 0x40 SWAP1 KECCAK256 PUSH1 0x1 ADD SLOAD SWAP1 JUMP JUMPDEST PUSH2 0x968 DUP3 PUSH2 0x94A JUMP JUMPDEST PUSH2 0x971 DUP2 PUSH2 0x10DF JUMP JUMPDEST PUSH2 0x97B DUP4 DUP4 PUSH2 0x17F7 JUMP JUMPDEST POP POP POP JUMP JUMPDEST PUSH1 0x1 PUSH1 0x1 PUSH1 0xA0 SHL SUB DUP2 AND CALLER EQ PUSH2 0x9F0 JUMPI PUSH1 0x40 MLOAD PUSH3 0x461BCD PUSH1 0xE5 SHL DUP2 MSTORE PUSH1 0x20 PUSH1 0x4 DUP3 ADD MSTORE PUSH1 0x2F PUSH1 0x24 DUP3 ADD MSTORE PUSH32 0x416363657373436F6E74726F6C3A2063616E206F6E6C792072656E6F756E6365 PUSH1 0x44 DUP3 ADD MSTORE PUSH15 0x103937B632B9903337B91039B2B633 PUSH1 0x89 SHL PUSH1 0x64 DUP3 ADD MSTORE PUSH1 0x84 ADD PUSH2 0x84C JUMP JUMPDEST PUSH2 0x9FA DUP3 DUP3 PUSH2 0x187B JUMP JUMPDEST POP POP JUMP JUMPDEST PUSH1 0x0 DUP1 MLOAD PUSH1 0x20 PUSH2 0x33D1 DUP4 CODECOPY DUP2 MLOAD SWAP2 MSTORE PUSH2 0xA16 DUP2 PUSH2 0x10DF JUMP JUMPDEST PUSH1 0x64 PUSH2 0xA2A PUSH8 0xDE0B6B3A7640000 DUP5 PUSH2 0x2DF5 JUMP JUMPDEST PUSH2 0xA34 SWAP2 SWAP1 PUSH2 0x2E22 JUMP JUMPDEST PUSH1 0x10 PUSH1 0x0 DUP6 PUSH1 0x1 DUP2 GT ISZERO PUSH2 0xA4A JUMPI PUSH2 0xA4A PUSH2 0x2D25 JUMP JUMPDEST DUP2 MSTORE PUSH1 0x20 DUP2 ADD SWAP2 SWAP1 SWAP2 MSTORE PUSH1 0x40 ADD PUSH1 0x0 KECCAK256 PUSH1 0x1 ADD SSTORE POP POP POP JUMP JUMPDEST PUSH1 0x0 DUP1 MLOAD PUSH1 0x20 PUSH2 0x33D1 DUP4 CODECOPY DUP2 MLOAD SWAP2 MSTORE PUSH2 0xA7B DUP2 PUSH2 0x10DF JUMP JUMPDEST POP PUSH1 0x7 DUP1 SLOAD PUSH1 0x1 PUSH1 0x1 PUSH1 0xA0 SHL SUB SWAP3 SWAP1 SWAP3 AND PUSH1 0x1 PUSH1 0x1 PUSH1 0xA0 SHL SUB NOT SWAP3 DUP4 AND DUP2 OR SWAP1 SWAP2 SSTORE PUSH1 0x4 DUP1 SLOAD SWAP1 SWAP3 AND OR SWAP1 SSTORE JUMP JUMPDEST PUSH1 0x0 DUP1 MLOAD PUSH1 0x20 PUSH2 0x3348 DUP4 CODECOPY DUP2 MLOAD SWAP2 MSTORE PUSH2 0xAC1 DUP2 PUSH2 0x10DF JUMP JUMPDEST PUSH2 0x944 DUP5 DUP5 DUP5 PUSH4 0x29D34075 PUSH1 0xE2 SHL PUSH2 0x1681 JUMP JUMPDEST PUSH1 0x0 DUP3 DUP2 MSTORE PUSH1 0x6 PUSH1 0x20 MSTORE PUSH1 0x40 SWAP1 KECCAK256 SLOAD DUP3 SWAP1 PUSH1 0x1 PUSH1 0x1 PUSH1 0xA0 SHL SUB AND CALLER EQ PUSH2 0xB0C JUMPI PUSH1 0x40 MLOAD PUSH3 0x461BCD PUSH1 0xE5 SHL DUP2 MSTORE PUSH1 0x4 ADD PUSH2 0x84C SWAP1 PUSH2 0x2D3B JUMP JUMPDEST PUSH1 0x0 DUP2 DUP2 MSTORE PUSH1 0x6 PUSH1 0x20 MSTORE PUSH1 0x40 DUP1 DUP3 KECCAK256 DUP1 SLOAD PUSH1 0x1 PUSH1 0x1 PUSH1 0xA0 SHL SUB NOT AND SWAP1 SSTORE MLOAD DUP3 SWAP2 PUSH1 0x0 DUP1 MLOAD PUSH1 0x20 PUSH2 0x3411 DUP4 CODECOPY DUP2 MLOAD SWAP2 MSTORE SWAP2 LOG2 PUSH1 0xB DUP3 SWAP1 SSTORE PUSH1 0xF DUP1 SLOAD PUSH2 0xFF00 NOT AND PUSH2 0x100 OR SWAP1 SSTORE PUSH1 0x40 MLOAD DUP3 SWAP1 PUSH1 0x0 DUP1 MLOAD PUSH1 0x20 PUSH2 0x3368 DUP4 CODECOPY DUP2 MLOAD SWAP2 MSTORE SWAP1 PUSH1 0x0 SWAP1 LOG2 POP POP POP JUMP JUMPDEST PUSH1 0x0 DUP1 MLOAD PUSH1 0x20 PUSH2 0x33D1 DUP4 CODECOPY DUP2 MLOAD SWAP2 MSTORE PUSH2 0xB87 DUP2 PUSH2 0x10DF JUMP JUMPDEST PUSH1 0xF DUP1 SLOAD PUSH2 0xFF00 NOT AND SWAP1 SSTORE PUSH1 0xB DUP3 SWAP1 SSTORE PUSH1 0x40 MLOAD DUP3 SWAP1 PUSH1 0x0 DUP1 MLOAD PUSH1 0x20 PUSH2 0x3368 DUP4 CODECOPY DUP2 MLOAD SWAP2 MSTORE SWAP1 PUSH1 0x0 SWAP1 LOG2 PUSH2 0xBB8 PUSH2 0x18E0 JUMP JUMPDEST PUSH1 0x0 PUSH2 0x7B0 JUMP JUMPDEST PUSH1 0x0 DUP1 MLOAD PUSH1 0x20 PUSH2 0x33D1 DUP4 CODECOPY DUP2 MLOAD SWAP2 MSTORE PUSH2 0xBD7 DUP2 PUSH2 0x10DF JUMP JUMPDEST PUSH2 0xBE2 PUSH1 0x12 DUP4 PUSH2 0x19D6 JUMP JUMPDEST PUSH2 0x9FA JUMPI PUSH1 0x40 MLOAD PUSH4 0x6E971BB PUSH1 0xE3 SHL DUP2 MSTORE PUSH1 0x4 ADD PUSH1 0x40 MLOAD DUP1 SWAP2 SUB SWAP1 REVERT JUMPDEST PUSH1 0x0 PUSH2 0xC0B PUSH1 0x12 PUSH2 0x19F2 JUMP JUMPDEST SWAP1 POP SWAP1 JUMP JUMPDEST PUSH1 0x0 PUSH2 0x80E PUSH1 0x12 DUP4 PUSH2 0x19FC JUMP JUMPDEST PUSH1 0x0 DUP1 MLOAD PUSH1 0x20 PUSH2 0x33D1 DUP4 CODECOPY DUP2 MLOAD SWAP2 MSTORE PUSH2 0xC35 DUP2 PUSH2 0x10DF JUMP JUMPDEST PUSH1 0x0 PUSH2 0xC49 PUSH1 0x3 SLOAD PUSH1 0x1 PUSH1 0x1 PUSH1 0xA0 SHL SUB AND SWAP1 JUMP JUMPDEST SWAP1 POP PUSH1 0x1 PUSH1 0x1 PUSH1 0xA0 SHL SUB DUP2 AND PUSH4 0xA9059CBB CALLER PUSH1 0x40 MLOAD PUSH4 0x70A08231 PUSH1 0xE0 SHL DUP2 MSTORE PUSH1 0x1 PUSH1 0x1 PUSH1 0xA0 SHL SUB DUP6 AND SWAP1 PUSH4 0x70A08231 SWAP1 PUSH2 0xC87 SWAP1 ADDRESS SWAP1 PUSH1 0x4 ADD PUSH2 0x2B27 JUMP JUMPDEST PUSH1 0x20 PUSH1 0x40 MLOAD DUP1 DUP4 SUB DUP2 DUP7 GAS STATICCALL ISZERO DUP1 ISZERO PUSH2 0xCA4 JUMPI RETURNDATASIZE PUSH1 0x0 DUP1 RETURNDATACOPY RETURNDATASIZE PUSH1 0x0 REVERT JUMPDEST POP POP POP POP PUSH1 0x40 MLOAD RETURNDATASIZE PUSH1 0x1F NOT PUSH1 0x1F DUP3 ADD AND DUP3 ADD DUP1 PUSH1 0x40 MSTORE POP DUP2 ADD SWAP1 PUSH2 0xCC8 SWAP2 SWAP1 PUSH2 0x2E36 JUMP JUMPDEST PUSH1 0x40 MLOAD DUP4 PUSH4 0xFFFFFFFF AND PUSH1 0xE0 SHL DUP2 MSTORE PUSH1 0x4 ADD PUSH2 0xCE5 SWAP3 SWAP2 SWAP1 PUSH2 0x2E4F JUMP JUMPDEST PUSH1 0x20 PUSH1 0x40 MLOAD DUP1 DUP4 SUB DUP2 PUSH1 0x0 DUP8 GAS CALL ISZERO DUP1 ISZERO PUSH2 0xD04 JUMPI RETURNDATASIZE PUSH1 0x0 DUP1 RETURNDATACOPY RETURNDATASIZE PUSH1 0x0 REVERT JUMPDEST POP POP POP POP PUSH1 0x40 MLOAD RETURNDATASIZE PUSH1 0x1F NOT PUSH1 0x1F DUP3 ADD AND DUP3 ADD DUP1 PUSH1 0x40 MSTORE POP DUP2 ADD SWAP1 PUSH2 0xD28 SWAP2 SWAP1 PUSH2 0x2E68 JUMP JUMPDEST PUSH2 0x9FA JUMPI PUSH1 0x40 MLOAD PUSH4 0x13FF771F PUSH1 0xE2 SHL DUP2 MSTORE PUSH1 0x4 ADD PUSH1 0x40 MLOAD DUP1 SWAP2 SUB SWAP1 REVERT JUMPDEST PUSH1 0x0 SWAP2 DUP3 MSTORE PUSH1 0x20 DUP3 DUP2 MSTORE PUSH1 0x40 DUP1 DUP5 KECCAK256 PUSH1 0x1 PUSH1 0x1 PUSH1 0xA0 SHL SUB SWAP4 SWAP1 SWAP4 AND DUP5 MSTORE SWAP2 SWAP1 MSTORE SWAP1 KECCAK256 SLOAD PUSH1 0xFF AND SWAP1 JUMP JUMPDEST PUSH1 0x0 DUP1 MLOAD PUSH1 0x20 PUSH2 0x33D1 DUP4 CODECOPY DUP2 MLOAD SWAP2 MSTORE PUSH2 0xD86 DUP2 PUSH2 0x10DF JUMP JUMPDEST PUSH2 0xD91 PUSH1 0x12 DUP4 PUSH2 0x1A08 JUMP JUMPDEST PUSH2 0x9FA JUMPI PUSH1 0x40 MLOAD PUSH4 0x5C46F67 PUSH1 0xE3 SHL DUP2 MSTORE PUSH1 0x4 ADD PUSH1 0x40 MLOAD DUP1 SWAP2 SUB SWAP1 REVERT JUMPDEST PUSH1 0x0 DUP3 DUP2 MSTORE PUSH1 0x6 PUSH1 0x20 MSTORE PUSH1 0x40 SWAP1 KECCAK256 SLOAD DUP3 SWAP1 PUSH1 0x1 PUSH1 0x1 PUSH1 0xA0 SHL SUB AND CALLER EQ PUSH2 0xDE6 JUMPI PUSH1 0x40 MLOAD PUSH3 0x461BCD PUSH1 0xE5 SHL DUP2 MSTORE PUSH1 0x4 ADD PUSH2 0x84C SWAP1 PUSH2 0x2D3B JUMP JUMPDEST PUSH1 0x0 DUP2 DUP2 MSTORE PUSH1 0x6 PUSH1 0x20 MSTORE PUSH1 0x40 DUP1 DUP3 KECCAK256 DUP1 SLOAD PUSH1 0x1 PUSH1 0x1 PUSH1 0xA0 SHL SUB NOT AND SWAP1 SSTORE MLOAD DUP3 SWAP2 PUSH1 0x0 DUP1 MLOAD PUSH1 0x20 PUSH2 0x3411 DUP4 CODECOPY DUP2 MLOAD SWAP2 MSTORE SWAP2 LOG2 PUSH1 0xB DUP3 SWAP1 SSTORE PUSH1 0x40 MLOAD DUP3 SWAP1 PUSH1 0x0 DUP1 MLOAD PUSH1 0x20 PUSH2 0x3368 DUP4 CODECOPY DUP2 MLOAD SWAP2 MSTORE SWAP1 PUSH1 0x0 SWAP1 LOG2 PUSH2 0x97B PUSH2 0x18E0 JUMP JUMPDEST PUSH1 0x0 PUSH1 0x0 DUP1 MLOAD PUSH1 0x20 PUSH2 0x33D1 DUP4 CODECOPY DUP2 MLOAD SWAP2 MSTORE PUSH2 0xE57 DUP2 PUSH2 0x10DF JUMP JUMPDEST POP POP PUSH1 0x7 SLOAD PUSH1 0x1 PUSH1 0x1 PUSH1 0xA0 SHL SUB AND SWAP1 JUMP JUMPDEST PUSH1 0x0 PUSH1 0x0 DUP1 MLOAD PUSH1 0x20 PUSH2 0x33D1 DUP4 CODECOPY DUP2 MLOAD SWAP2 MSTORE PUSH2 0xE82 DUP2 PUSH2 0x10DF JUMP JUMPDEST PUSH8 0xDE0B6B3A7640000 PUSH1 0x10 PUSH1 0x0 DUP6 PUSH1 0x1 DUP2 GT ISZERO PUSH2 0xEA1 JUMPI PUSH2 0xEA1 PUSH2 0x2D25 JUMP JUMPDEST DUP2 MSTORE PUSH1 0x20 ADD SWAP1 DUP2 MSTORE PUSH1 0x20 ADD PUSH1 0x0 KECCAK256 PUSH1 0x1 ADD SLOAD PUSH1 0x64 PUSH2 0xEBF SWAP2 SWAP1 PUSH2 0x2DF5 JUMP JUMPDEST PUSH2 0xEC9 SWAP2 SWAP1 PUSH2 0x2E22 JUMP JUMPDEST SWAP2 POP JUMPDEST POP SWAP2 SWAP1 POP JUMP JUMPDEST PUSH1 0x0 DUP1 MLOAD PUSH1 0x20 PUSH2 0x33D1 DUP4 CODECOPY DUP2 MLOAD SWAP2 MSTORE PUSH2 0xEEA DUP2 PUSH2 0x10DF JUMP JUMPDEST DUP2 PUSH1 0x10 PUSH1 0x0 DUP6 PUSH1 0x1 DUP2 GT ISZERO PUSH2 0xF01 JUMPI PUSH2 0xF01 PUSH2 0x2D25 JUMP JUMPDEST DUP2 MSTORE PUSH1 0x20 DUP1 DUP3 ADD SWAP3 SWAP1 SWAP3 MSTORE PUSH1 0x40 ADD PUSH1 0x0 KECCAK256 DUP3 MLOAD DUP2 SSTORE SWAP2 ADD MLOAD PUSH1 0x1 SWAP1 SWAP2 ADD SSTORE POP POP POP JUMP JUMPDEST PUSH1 0x0 DUP3 DUP2 MSTORE PUSH1 0x6 PUSH1 0x20 MSTORE PUSH1 0x40 SWAP1 KECCAK256 SLOAD DUP3 SWAP1 PUSH1 0x1 PUSH1 0x1 PUSH1 0xA0 SHL SUB AND CALLER EQ PUSH2 0xF5C JUMPI PUSH1 0x40 MLOAD PUSH3 0x461BCD PUSH1 0xE5 SHL DUP2 MSTORE PUSH1 0x4 ADD PUSH2 0x84C SWAP1 PUSH2 0x2D3B JUMP JUMPDEST PUSH1 0x0 DUP2 DUP2 MSTORE PUSH1 0x6 PUSH1 0x20 MSTORE PUSH1 0x40 DUP1 DUP3 KECCAK256 DUP1 SLOAD PUSH1 0x1 PUSH1 0x1 PUSH1 0xA0 SHL SUB NOT AND SWAP1 SSTORE MLOAD DUP3 SWAP2 PUSH1 0x0 DUP1 MLOAD PUSH1 0x20 PUSH2 0x3411 DUP4 CODECOPY DUP2 MLOAD SWAP2 MSTORE SWAP2 LOG2 PUSH1 0x11 PUSH2 0xF99 DUP4 DUP3 PUSH2 0x2C66 JUMP JUMPDEST POP DUP2 PUSH1 0x40 MLOAD PUSH2 0xFA8 SWAP2 SWAP1 PUSH2 0x2DC3 JUMP JUMPDEST PUSH1 0x40 MLOAD SWAP1 DUP2 SWAP1 SUB DUP2 KECCAK256 SWAP1 PUSH1 0x0 DUP1 MLOAD PUSH1 0x20 PUSH2 0x33F1 DUP4 CODECOPY DUP2 MLOAD SWAP2 MSTORE SWAP1 PUSH1 0x0 SWAP1 LOG2 PUSH1 0xC SLOAD PUSH1 0xE SLOAD PUSH2 0xFE0 SWAP2 PUSH1 0x1 PUSH1 0x1 PUSH1 0xA0 SHL SUB AND SWAP1 CALLER PUSH2 0x10EC JUMP JUMPDEST PUSH2 0x97B PUSH2 0x1278 JUMP JUMPDEST PUSH2 0xFF1 DUP3 PUSH2 0x94A JUMP JUMPDEST PUSH2 0xFFA DUP2 PUSH2 0x10DF JUMP JUMPDEST PUSH2 0x97B DUP4 DUP4 PUSH2 0x187B JUMP JUMPDEST PUSH1 0x0 DUP1 MLOAD PUSH1 0x20 PUSH2 0x3348 DUP4 CODECOPY DUP2 MLOAD SWAP2 MSTORE PUSH2 0x101C DUP2 PUSH2 0x10DF JUMP JUMPDEST PUSH1 0xF SLOAD PUSH2 0x100 SWAP1 DIV PUSH1 0xFF AND PUSH2 0x1044 JUMPI PUSH1 0x40 MLOAD PUSH4 0x6CB45F15 PUSH1 0xE1 SHL DUP2 MSTORE PUSH1 0x4 ADD PUSH1 0x40 MLOAD DUP1 SWAP2 SUB SWAP1 REVERT JUMPDEST PUSH2 0x104C PUSH2 0x18E0 JUMP JUMPDEST POP PUSH1 0xF DUP1 SLOAD PUSH2 0xFF00 NOT AND SWAP1 SSTORE JUMP JUMPDEST PUSH1 0x0 DUP1 MLOAD PUSH1 0x20 PUSH2 0x3431 DUP4 CODECOPY DUP2 MLOAD SWAP2 MSTORE PUSH2 0x1072 DUP2 PUSH2 0x10DF JUMP JUMPDEST PUSH1 0xF SLOAD PUSH1 0xFF AND PUSH2 0x1095 JUMPI PUSH1 0x40 MLOAD PUSH4 0x7D683D53 PUSH1 0xE0 SHL DUP2 MSTORE PUSH1 0x4 ADD PUSH1 0x40 MLOAD DUP1 SWAP2 SUB SWAP1 REVERT JUMPDEST PUSH2 0x109D PUSH2 0x1278 JUMP JUMPDEST POP PUSH1 0xF DUP1 SLOAD PUSH1 0xFF NOT AND SWAP1 SSTORE JUMP JUMPDEST PUSH1 0x0 DUP1 MLOAD PUSH1 0x20 PUSH2 0x3431 DUP4 CODECOPY DUP2 MLOAD SWAP2 MSTORE PUSH2 0x10C2 DUP2 PUSH2 0x10DF JUMP JUMPDEST PUSH1 0xF DUP1 SLOAD PUSH1 0xFF NOT AND SWAP1 SSTORE PUSH2 0x907 DUP6 DUP6 DUP6 DUP6 PUSH3 0x48B15B PUSH1 0xE3 SHL PUSH2 0x1471 JUMP JUMPDEST PUSH2 0x10E9 DUP2 CALLER PUSH2 0x1A1D JUMP JUMPDEST POP JUMP JUMPDEST DUP3 PUSH20 0xEEEEEEEEEEEEEEEEEEEEEEEEEEEEEEEEEEEEEEED NOT PUSH1 0x1 PUSH1 0x1 PUSH1 0xA0 SHL SUB DUP3 AND ADD PUSH2 0x1137 JUMPI DUP3 CALLVALUE EQ PUSH2 0x1132 JUMPI PUSH1 0x40 MLOAD PUSH4 0xDD86F53 PUSH1 0xE1 SHL DUP2 MSTORE PUSH1 0x4 ADD PUSH1 0x40 MLOAD DUP1 SWAP2 SUB SWAP1 REVERT JUMPDEST PUSH2 0x944 JUMP JUMPDEST PUSH2 0x114C PUSH1 0x1 PUSH1 0x1 PUSH1 0xA0 SHL SUB DUP3 AND DUP4 ADDRESS DUP7 PUSH2 0x1A76 JUMP JUMPDEST PUSH1 0x40 MLOAD PUSH4 0x6EB1769F PUSH1 0xE1 SHL DUP2 MSTORE ADDRESS PUSH1 0x4 DUP3 ADD MSTORE PUSH1 0x1 PUSH1 0x1 PUSH1 0xA0 SHL SUB PUSH32 0x0 DUP2 AND PUSH1 0x24 DUP4 ADD MSTORE DUP5 SWAP2 SWAP1 DUP4 AND SWAP1 PUSH4 0xDD62ED3E SWAP1 PUSH1 0x44 ADD PUSH1 0x20 PUSH1 0x40 MLOAD DUP1 DUP4 SUB DUP2 DUP7 GAS STATICCALL ISZERO DUP1 ISZERO PUSH2 0x11BB JUMPI RETURNDATASIZE PUSH1 0x0 DUP1 RETURNDATACOPY RETURNDATASIZE PUSH1 0x0 REVERT JUMPDEST POP POP POP POP PUSH1 0x40 MLOAD RETURNDATASIZE PUSH1 0x1F NOT PUSH1 0x1F DUP3 ADD AND DUP3 ADD DUP1 PUSH1 0x40 MSTORE POP DUP2 ADD SWAP1 PUSH2 0x11DF SWAP2 SWAP1 PUSH2 0x2E36 JUMP JUMPDEST LT ISZERO PUSH2 0x944 JUMPI PUSH1 0x40 MLOAD PUSH4 0x95EA7B3 PUSH1 0xE0 SHL DUP2 MSTORE PUSH1 0x1 PUSH1 0x1 PUSH1 0xA0 SHL SUB DUP3 AND SWAP1 PUSH4 0x95EA7B3 SWAP1 PUSH2 0x1235 SWAP1 PUSH32 0x0 SWAP1 PUSH1 0x0 NOT SWAP1 PUSH1 0x4 ADD PUSH2 0x2E4F JUMP JUMPDEST PUSH1 0x20 PUSH1 0x40 MLOAD DUP1 DUP4 SUB DUP2 PUSH1 0x0 DUP8 GAS CALL ISZERO DUP1 ISZERO PUSH2 0x1254 JUMPI RETURNDATASIZE PUSH1 0x0 DUP1 RETURNDATACOPY RETURNDATASIZE PUSH1 0x0 REVERT JUMPDEST POP POP POP POP PUSH1 0x40 MLOAD RETURNDATASIZE PUSH1 0x1F NOT PUSH1 0x1F DUP3 ADD AND DUP3 ADD DUP1 PUSH1 0x40 MSTORE POP DUP2 ADD SWAP1 PUSH2 0x907 SWAP2 SWAP1 PUSH2 0x2E68 JUMP JUMPDEST PUSH1 0xC SLOAD PUSH1 0x1 PUSH1 0x1 PUSH1 0xA0 SHL SUB AND PUSH20 0xEEEEEEEEEEEEEEEEEEEEEEEEEEEEEEEEEEEEEEED NOT ADD PUSH2 0x1368 JUMPI PUSH2 0x1362 PUSH1 0x11 DUP1 SLOAD PUSH2 0x12AF SWAP1 PUSH2 0x2BEC JUMP JUMPDEST DUP1 PUSH1 0x1F ADD PUSH1 0x20 DUP1 SWAP2 DIV MUL PUSH1 0x20 ADD PUSH1 0x40 MLOAD SWAP1 DUP2 ADD PUSH1 0x40 MSTORE DUP1 SWAP3 SWAP2 SWAP1 DUP2 DUP2 MSTORE PUSH1 0x20 ADD DUP3 DUP1 SLOAD PUSH2 0x12DB SWAP1 PUSH2 0x2BEC JUMP JUMPDEST DUP1 ISZERO PUSH2 0x1328 JUMPI DUP1 PUSH1 0x1F LT PUSH2 0x12FD JUMPI PUSH2 0x100 DUP1 DUP4 SLOAD DIV MUL DUP4 MSTORE SWAP2 PUSH1 0x20 ADD SWAP2 PUSH2 0x1328 JUMP JUMPDEST DUP3 ADD SWAP2 SWAP1 PUSH1 0x0 MSTORE PUSH1 0x20 PUSH1 0x0 KECCAK256 SWAP1 JUMPDEST DUP2 SLOAD DUP2 MSTORE SWAP1 PUSH1 0x1 ADD SWAP1 PUSH1 0x20 ADD DUP1 DUP4 GT PUSH2 0x130B JUMPI DUP3 SWAP1 SUB PUSH1 0x1F AND DUP3 ADD SWAP2 JUMPDEST POP POP PUSH1 0xE SLOAD PUSH1 0x1 PUSH1 0x1 PUSH1 0xA0 SHL SUB PUSH32 0x0 AND SWAP5 SWAP4 POP SWAP2 POP POP PUSH2 0x1ACE JUMP JUMPDEST POP PUSH2 0x1430 JUMP JUMPDEST PUSH2 0x142E PUSH1 0x11 DUP1 SLOAD PUSH2 0x1378 SWAP1 PUSH2 0x2BEC JUMP JUMPDEST DUP1 PUSH1 0x1F ADD PUSH1 0x20 DUP1 SWAP2 DIV MUL PUSH1 0x20 ADD PUSH1 0x40 MLOAD SWAP1 DUP2 ADD PUSH1 0x40 MSTORE DUP1 SWAP3 SWAP2 SWAP1 DUP2 DUP2 MSTORE PUSH1 0x20 ADD DUP3 DUP1 SLOAD PUSH2 0x13A4 SWAP1 PUSH2 0x2BEC JUMP JUMPDEST DUP1 ISZERO PUSH2 0x13F1 JUMPI DUP1 PUSH1 0x1F LT PUSH2 0x13C6 JUMPI PUSH2 0x100 DUP1 DUP4 SLOAD DIV MUL DUP4 MSTORE SWAP2 PUSH1 0x20 ADD SWAP2 PUSH2 0x13F1 JUMP JUMPDEST DUP3 ADD SWAP2 SWAP1 PUSH1 0x0 MSTORE PUSH1 0x20 PUSH1 0x0 KECCAK256 SWAP1 JUMPDEST DUP2 SLOAD DUP2 MSTORE SWAP1 PUSH1 0x1 ADD SWAP1 PUSH1 0x20 ADD DUP1 DUP4 GT PUSH2 0x13D4 JUMPI DUP3 SWAP1 SUB PUSH1 0x1F AND DUP3 ADD SWAP2 JUMPDEST POP POP POP POP POP PUSH32 0x0 PUSH1 0x1 PUSH1 0x1 PUSH1 0xA0 SHL SUB AND PUSH2 0x1AFC SWAP1 SWAP2 SWAP1 PUSH4 0xFFFFFFFF AND JUMP JUMPDEST POP JUMPDEST PUSH1 0xC PUSH1 0x40 MLOAD PUSH2 0x143F SWAP2 SWAP1 PUSH2 0x2EB0 JUMP JUMPDEST PUSH1 0x40 MLOAD SWAP1 DUP2 SWAP1 SUB DUP2 KECCAK256 SWAP1 PUSH32 0x98D3AF501AC55740F44CC3D45B38CD162E715BD76AE2EC1704DB9BCF19DF528 SWAP1 PUSH1 0x0 SWAP1 LOG2 JUMP JUMPDEST PUSH1 0x32 DUP3 PUSH1 0xFF AND GT ISZERO PUSH2 0x1496 JUMPI PUSH1 0x40 MLOAD PUSH4 0x36EE37FB PUSH1 0xE2 SHL DUP2 MSTORE PUSH1 0x4 ADD PUSH1 0x40 MLOAD DUP1 SWAP2 SUB SWAP1 REVERT JUMPDEST CALLER PUSH2 0x14A2 DUP7 DUP6 DUP4 PUSH2 0x10EC JUMP JUMPDEST PUSH1 0x1 PUSH1 0x0 SWAP1 DUP2 MSTORE PUSH1 0x10 PUSH1 0x20 MSTORE PUSH32 0x8C6065603763FEC3F5742441D3833F3F43B982453612D76ADB39A885E3006B5F SLOAD PUSH2 0x14DA SWAP1 DUP5 PUSH2 0x1B40 JUMP JUMPDEST SWAP1 POP PUSH2 0x152A PUSH1 0x40 MLOAD DUP1 PUSH1 0x40 ADD PUSH1 0x40 MSTORE DUP1 PUSH1 0x6 DUP2 MSTORE PUSH1 0x20 ADD PUSH6 0x1B595D1A1BD9 PUSH1 0xD2 SHL DUP2 MSTORE POP PUSH1 0x40 MLOAD DUP1 PUSH1 0x40 ADD PUSH1 0x40 MSTORE DUP1 PUSH1 0x3 DUP2 MSTORE PUSH1 0x20 ADD PUSH3 0x11D155 PUSH1 0xEA SHL DUP2 MSTORE POP DUP4 PUSH2 0x1B5C SWAP1 SWAP3 SWAP2 SWAP1 PUSH4 0xFFFFFFFF AND JUMP JUMPDEST PUSH2 0x15AF PUSH1 0x40 MLOAD DUP1 PUSH1 0x40 ADD PUSH1 0x40 MSTORE DUP1 PUSH1 0x3 DUP2 MSTORE PUSH1 0x20 ADD PUSH3 0x1D5C9B PUSH1 0xEA SHL DUP2 MSTORE POP PUSH2 0x1552 DUP10 PUSH2 0x1B7A JUMP JUMPDEST PUSH2 0x155B DUP10 PUSH2 0x1B7A JUMP JUMPDEST PUSH2 0x1564 DUP10 PUSH2 0x1B90 JUMP JUMPDEST PUSH2 0x156D ADDRESS PUSH2 0x1B7A JUMP JUMPDEST PUSH2 0x1579 DUP11 PUSH1 0xFF AND PUSH2 0x1B90 JUMP JUMPDEST PUSH2 0x1582 DUP10 PUSH2 0x1B7A JUMP JUMPDEST PUSH1 0x40 MLOAD PUSH1 0x20 ADD PUSH2 0x1597 SWAP7 SWAP6 SWAP5 SWAP4 SWAP3 SWAP2 SWAP1 PUSH2 0x2EC2 JUMP JUMPDEST PUSH1 0x40 DUP1 MLOAD PUSH1 0x1F NOT DUP2 DUP5 SUB ADD DUP2 MSTORE SWAP2 SWAP1 MSTORE DUP4 SWAP2 SWAP1 PUSH2 0x1B5C JUMP JUMPDEST PUSH2 0x1608 PUSH1 0x40 MLOAD DUP1 PUSH1 0x40 ADD PUSH1 0x40 MSTORE DUP1 PUSH1 0x7 DUP2 MSTORE PUSH1 0x20 ADD PUSH7 0x18DBDB9D1858DD PUSH1 0xCA SHL DUP2 MSTORE POP PUSH1 0x40 MLOAD DUP1 PUSH1 0x40 ADD PUSH1 0x40 MSTORE DUP1 PUSH1 0xD DUP2 MSTORE PUSH1 0x20 ADD PUSH13 0x6C6F6375732D66696E616E6365 PUSH1 0x98 SHL DUP2 MSTORE POP DUP4 PUSH2 0x1B5C SWAP1 SWAP3 SWAP2 SWAP1 PUSH4 0xFFFFFFFF AND JUMP JUMPDEST PUSH1 0x40 DUP1 MLOAD PUSH1 0x60 DUP2 ADD DUP3 MSTORE PUSH1 0x1 PUSH1 0x1 PUSH1 0xA0 SHL SUB DUP1 DUP11 AND DUP1 DUP4 MSTORE SWAP1 DUP10 AND PUSH1 0x20 DUP4 ADD DUP2 SWAP1 MSTORE SWAP2 SWAP1 SWAP3 ADD DUP8 SWAP1 MSTORE PUSH1 0xC DUP1 SLOAD PUSH1 0x1 PUSH1 0x1 PUSH1 0xA0 SHL SUB NOT SWAP1 DUP2 AND SWAP1 SWAP4 OR SWAP1 SSTORE PUSH1 0xD DUP1 SLOAD SWAP1 SWAP3 AND OR SWAP1 SSTORE PUSH1 0xE DUP6 SWAP1 SSTORE PUSH2 0x1677 DUP2 PUSH1 0x10 PUSH1 0x0 PUSH1 0x1 JUMPDEST DUP2 MSTORE PUSH1 0x20 ADD SWAP1 DUP2 MSTORE PUSH1 0x20 ADD PUSH1 0x0 KECCAK256 PUSH1 0x1 ADD SLOAD PUSH2 0x1C22 JUMP JUMPDEST POP POP POP POP POP POP POP POP JUMP JUMPDEST PUSH1 0x0 DUP1 DUP1 MSTORE PUSH1 0x10 PUSH1 0x20 MSTORE PUSH32 0x6E0956CDA88CAD152E89927E53611735B61A5C762D1428573C6931B0A5EFCB01 SLOAD PUSH2 0x16B7 SWAP1 DUP4 PUSH2 0x1B40 JUMP JUMPDEST SWAP1 POP PUSH2 0x1707 PUSH1 0x40 MLOAD DUP1 PUSH1 0x40 ADD PUSH1 0x40 MSTORE DUP1 PUSH1 0x6 DUP2 MSTORE PUSH1 0x20 ADD PUSH6 0x1B595D1A1BD9 PUSH1 0xD2 SHL DUP2 MSTORE POP PUSH1 0x40 MLOAD DUP1 PUSH1 0x40 ADD PUSH1 0x40 MSTORE DUP1 PUSH1 0x3 DUP2 MSTORE PUSH1 0x20 ADD PUSH3 0x11D155 PUSH1 0xEA SHL DUP2 MSTORE POP DUP4 PUSH2 0x1B5C SWAP1 SWAP3 SWAP2 SWAP1 PUSH4 0xFFFFFFFF AND JUMP JUMPDEST PUSH2 0x1753 PUSH1 0x40 MLOAD DUP1 PUSH1 0x40 ADD PUSH1 0x40 MSTORE DUP1 PUSH1 0x3 DUP2 MSTORE PUSH1 0x20 ADD PUSH3 0x1D5C9B PUSH1 0xEA SHL DUP2 MSTORE POP PUSH2 0x172F DUP8 PUSH2 0x1B7A JUMP JUMPDEST PUSH2 0x1738 DUP8 PUSH2 0x1B7A JUMP JUMPDEST PUSH2 0x1741 DUP8 PUSH2 0x1B90 JUMP JUMPDEST PUSH1 0x40 MLOAD PUSH1 0x20 ADD PUSH2 0x1597 SWAP4 SWAP3 SWAP2 SWAP1 PUSH2 0x2FE9 JUMP JUMPDEST PUSH2 0x17AC PUSH1 0x40 MLOAD DUP1 PUSH1 0x40 ADD PUSH1 0x40 MSTORE DUP1 PUSH1 0x7 DUP2 MSTORE PUSH1 0x20 ADD PUSH7 0x18DBDB9D1858DD PUSH1 0xCA SHL DUP2 MSTORE POP PUSH1 0x40 MLOAD DUP1 PUSH1 0x40 ADD PUSH1 0x40 MSTORE DUP1 PUSH1 0xD DUP2 MSTORE PUSH1 0x20 ADD PUSH13 0x6C6F6375732D66696E616E6365 PUSH1 0x98 SHL DUP2 MSTORE POP DUP4 PUSH2 0x1B5C SWAP1 SWAP3 SWAP2 SWAP1 PUSH4 0xFFFFFFFF AND JUMP JUMPDEST PUSH1 0x8 DUP1 SLOAD PUSH1 0x1 PUSH1 0x1 PUSH1 0xA0 SHL SUB DUP1 DUP9 AND PUSH1 0x1 PUSH1 0x1 PUSH1 0xA0 SHL SUB NOT SWAP3 DUP4 AND OR SWAP1 SWAP3 SSTORE PUSH1 0x9 DUP1 SLOAD SWAP3 DUP8 AND SWAP3 SWAP1 SWAP2 AND SWAP2 SWAP1 SWAP2 OR SWAP1 SSTORE PUSH1 0xA DUP4 SWAP1 SSTORE PUSH2 0x17EF DUP2 PUSH1 0x10 PUSH1 0x0 DUP1 PUSH2 0x1660 JUMP JUMPDEST POP POP POP POP POP POP JUMP JUMPDEST PUSH2 0x1801 DUP3 DUP3 PUSH2 0xD45 JUMP JUMPDEST PUSH2 0x9FA JUMPI PUSH1 0x0 DUP3 DUP2 MSTORE PUSH1 0x20 DUP2 DUP2 MSTORE PUSH1 0x40 DUP1 DUP4 KECCAK256 PUSH1 0x1 PUSH1 0x1 PUSH1 0xA0 SHL SUB DUP6 AND DUP5 MSTORE SWAP1 SWAP2 MSTORE SWAP1 KECCAK256 DUP1 SLOAD PUSH1 0xFF NOT AND PUSH1 0x1 OR SWAP1 SSTORE PUSH2 0x1837 CALLER SWAP1 JUMP JUMPDEST PUSH1 0x1 PUSH1 0x1 PUSH1 0xA0 SHL SUB AND DUP2 PUSH1 0x1 PUSH1 0x1 PUSH1 0xA0 SHL SUB AND DUP4 PUSH32 0x2F8788117E7EFF1D82E926EC794901D17C78024A50270940304540A733656F0D PUSH1 0x40 MLOAD PUSH1 0x40 MLOAD DUP1 SWAP2 SUB SWAP1 LOG4 POP POP JUMP JUMPDEST PUSH2 0x1885 DUP3 DUP3 PUSH2 0xD45 JUMP JUMPDEST ISZERO PUSH2 0x9FA JUMPI PUSH1 0x0 DUP3 DUP2 MSTORE PUSH1 0x20 DUP2 DUP2 MSTORE PUSH1 0x40 DUP1 DUP4 KECCAK256 PUSH1 0x1 PUSH1 0x1 PUSH1 0xA0 SHL SUB DUP6 AND DUP1 DUP6 MSTORE SWAP3 MSTORE DUP1 DUP4 KECCAK256 DUP1 SLOAD PUSH1 0xFF NOT AND SWAP1 SSTORE MLOAD CALLER SWAP3 DUP6 SWAP2 PUSH32 0xF6391F5C32D9C69D2A47EA670B442974B53935D1EDC7FD64EB21E047A839171B SWAP2 SWAP1 LOG4 POP POP JUMP JUMPDEST PUSH1 0x0 PUSH2 0x18EC PUSH1 0x12 PUSH2 0x19F2 JUMP JUMPDEST SWAP1 POP PUSH1 0x0 JUMPDEST DUP2 DUP2 LT ISZERO PUSH2 0x1993 JUMPI PUSH2 0x1904 PUSH1 0x12 DUP3 PUSH2 0x19FC JUMP JUMPDEST PUSH1 0x8 SLOAD PUSH1 0x9 SLOAD PUSH1 0xB SLOAD PUSH1 0xA SLOAD PUSH1 0x40 MLOAD PUSH4 0x782B6FFF PUSH1 0xE1 SHL DUP2 MSTORE PUSH1 0x1 PUSH1 0x1 PUSH1 0xA0 SHL SUB SWAP5 DUP6 AND PUSH1 0x4 DUP3 ADD MSTORE SWAP3 DUP5 AND PUSH1 0x24 DUP5 ADD MSTORE PUSH1 0x44 DUP4 ADD SWAP2 SWAP1 SWAP2 MSTORE PUSH1 0x64 DUP3 ADD MSTORE SWAP2 AND SWAP1 PUSH4 0xF056DFFE SWAP1 PUSH1 0x84 ADD PUSH1 0x0 PUSH1 0x40 MLOAD DUP1 DUP4 SUB DUP2 PUSH1 0x0 DUP8 DUP1 EXTCODESIZE ISZERO DUP1 ISZERO PUSH2 0x1968 JUMPI PUSH1 0x0 DUP1 REVERT JUMPDEST POP GAS CALL ISZERO DUP1 ISZERO PUSH2 0x197C JUMPI RETURNDATASIZE PUSH1 0x0 DUP1 RETURNDATACOPY RETURNDATASIZE PUSH1 0x0 REVERT JUMPDEST POP POP POP POP DUP1 DUP1 PUSH2 0x198B SWAP1 PUSH2 0x307F JUMP JUMPDEST SWAP2 POP POP PUSH2 0x18F1 JUMP JUMPDEST POP PUSH1 0x8 PUSH1 0x40 MLOAD PUSH2 0x19A3 SWAP2 SWAP1 PUSH2 0x3098 JUMP JUMPDEST PUSH1 0x40 MLOAD SWAP1 DUP2 SWAP1 SUB DUP2 KECCAK256 SWAP1 PUSH32 0xA8E5B3954602A050E4FD58BFDB4679C92CDF00ADDEAD6C0178CED776602ED452 SWAP1 PUSH1 0x0 SWAP1 LOG2 POP JUMP JUMPDEST PUSH1 0x0 PUSH2 0x19EB DUP4 PUSH1 0x1 PUSH1 0x1 PUSH1 0xA0 SHL SUB DUP5 AND PUSH2 0x1C3C JUMP JUMPDEST SWAP4 SWAP3 POP POP POP JUMP JUMPDEST PUSH1 0x0 PUSH2 0x80E DUP3 SLOAD SWAP1 JUMP JUMPDEST PUSH1 0x0 PUSH2 0x19EB DUP4 DUP4 PUSH2 0x1D2F JUMP JUMPDEST PUSH1 0x0 PUSH2 0x19EB DUP4 PUSH1 0x1 PUSH1 0x1 PUSH1 0xA0 SHL SUB DUP5 AND PUSH2 0x1D59 JUMP JUMPDEST PUSH2 0x1A27 DUP3 DUP3 PUSH2 0xD45 JUMP JUMPDEST PUSH2 0x9FA JUMPI PUSH2 0x1A34 DUP2 PUSH2 0x1B7A JUMP JUMPDEST PUSH2 0x1A3F DUP4 PUSH1 0x20 PUSH2 0x1DA8 JUMP JUMPDEST PUSH1 0x40 MLOAD PUSH1 0x20 ADD PUSH2 0x1A50 SWAP3 SWAP2 SWAP1 PUSH2 0x30B4 JUMP JUMPDEST PUSH1 0x40 DUP1 MLOAD PUSH1 0x1F NOT DUP2 DUP5 SUB ADD DUP2 MSTORE SWAP1 DUP3 SWAP1 MSTORE PUSH3 0x461BCD PUSH1 0xE5 SHL DUP3 MSTORE PUSH2 0x84C SWAP2 PUSH1 0x4 ADD PUSH2 0x314F JUMP JUMPDEST PUSH2 0x944 DUP5 PUSH4 0x23B872DD PUSH1 0xE0 SHL DUP6 DUP6 DUP6 PUSH1 0x40 MLOAD PUSH1 0x24 ADD PUSH2 0x1A97 SWAP4 SWAP3 SWAP2 SWAP1 PUSH2 0x2BC8 JUMP JUMPDEST PUSH1 0x40 DUP1 MLOAD PUSH1 0x1F NOT DUP2 DUP5 SUB ADD DUP2 MSTORE SWAP2 SWAP1 MSTORE PUSH1 0x20 DUP2 ADD DUP1 MLOAD PUSH1 0x1 PUSH1 0x1 PUSH1 0xE0 SHL SUB AND PUSH1 0x1 PUSH1 0x1 PUSH1 0xE0 SHL SUB NOT SWAP1 SWAP4 AND SWAP3 SWAP1 SWAP3 OR SWAP1 SWAP2 MSTORE PUSH2 0x1F43 JUMP JUMPDEST PUSH1 0x60 PUSH2 0x1AF4 DUP5 DUP5 DUP5 PUSH1 0x40 MLOAD DUP1 PUSH1 0x60 ADD PUSH1 0x40 MSTORE DUP1 PUSH1 0x29 DUP2 MSTORE PUSH1 0x20 ADD PUSH2 0x3388 PUSH1 0x29 SWAP2 CODECOPY PUSH2 0x2018 JUMP JUMPDEST SWAP5 SWAP4 POP POP POP POP JUMP JUMPDEST PUSH1 0x60 PUSH2 0x19EB DUP4 DUP4 PUSH1 0x0 PUSH1 0x40 MLOAD DUP1 PUSH1 0x40 ADD PUSH1 0x40 MSTORE DUP1 PUSH1 0x1E DUP2 MSTORE PUSH1 0x20 ADD PUSH32 0x416464726573733A206C6F772D6C6576656C2063616C6C206661696C65640000 DUP2 MSTORE POP PUSH2 0x2018 JUMP JUMPDEST PUSH2 0x1B48 PUSH2 0x282A JUMP JUMPDEST PUSH2 0x1B50 PUSH2 0x282A JUMP JUMPDEST PUSH2 0x1AF4 DUP2 DUP6 ADDRESS DUP7 PUSH2 0x20F3 JUMP JUMPDEST PUSH1 0x80 DUP4 ADD MLOAD PUSH2 0x1B6B SWAP1 DUP4 PUSH2 0x2130 JUMP JUMPDEST PUSH1 0x80 DUP4 ADD MLOAD PUSH2 0x97B SWAP1 DUP3 PUSH2 0x2130 JUMP JUMPDEST PUSH1 0x60 PUSH2 0x80E PUSH1 0x1 PUSH1 0x1 PUSH1 0xA0 SHL SUB DUP4 AND PUSH1 0x14 PUSH2 0x1DA8 JUMP JUMPDEST PUSH1 0x60 PUSH1 0x0 PUSH2 0x1B9D DUP4 PUSH2 0x2147 JUMP JUMPDEST PUSH1 0x1 ADD SWAP1 POP PUSH1 0x0 DUP2 PUSH1 0x1 PUSH1 0x1 PUSH1 0x40 SHL SUB DUP2 GT ISZERO PUSH2 0x1BBC JUMPI PUSH2 0x1BBC PUSH2 0x2879 JUMP JUMPDEST PUSH1 0x40 MLOAD SWAP1 DUP1 DUP3 MSTORE DUP1 PUSH1 0x1F ADD PUSH1 0x1F NOT AND PUSH1 0x20 ADD DUP3 ADD PUSH1 0x40 MSTORE DUP1 ISZERO PUSH2 0x1BE6 JUMPI PUSH1 0x20 DUP3 ADD DUP2 DUP1 CALLDATASIZE DUP4 CALLDATACOPY ADD SWAP1 POP JUMPDEST POP SWAP1 POP DUP2 DUP2 ADD PUSH1 0x20 ADD JUMPDEST PUSH1 0x0 NOT ADD PUSH16 0x181899199A1A9B1B9C1CB0B131B232B3 PUSH1 0x81 SHL PUSH1 0xA DUP7 MOD BYTE DUP2 MSTORE8 PUSH1 0xA DUP6 DIV SWAP5 POP DUP5 PUSH2 0x1BF0 JUMPI POP SWAP4 SWAP3 POP POP POP JUMP JUMPDEST PUSH1 0x4 SLOAD PUSH1 0x0 SWAP1 PUSH2 0x19EB SWAP1 PUSH1 0x1 PUSH1 0x1 PUSH1 0xA0 SHL SUB AND DUP5 DUP5 PUSH2 0x221D JUMP JUMPDEST PUSH1 0x0 DUP2 DUP2 MSTORE PUSH1 0x1 DUP4 ADD PUSH1 0x20 MSTORE PUSH1 0x40 DUP2 KECCAK256 SLOAD DUP1 ISZERO PUSH2 0x1D25 JUMPI PUSH1 0x0 PUSH2 0x1C60 PUSH1 0x1 DUP4 PUSH2 0x3162 JUMP JUMPDEST DUP6 SLOAD SWAP1 SWAP2 POP PUSH1 0x0 SWAP1 PUSH2 0x1C74 SWAP1 PUSH1 0x1 SWAP1 PUSH2 0x3162 JUMP JUMPDEST SWAP1 POP DUP2 DUP2 EQ PUSH2 0x1CD9 JUMPI PUSH1 0x0 DUP7 PUSH1 0x0 ADD DUP3 DUP2 SLOAD DUP2 LT PUSH2 0x1C94 JUMPI PUSH2 0x1C94 PUSH2 0x3175 JUMP JUMPDEST SWAP1 PUSH1 0x0 MSTORE PUSH1 0x20 PUSH1 0x0 KECCAK256 ADD SLOAD SWAP1 POP DUP1 DUP8 PUSH1 0x0 ADD DUP5 DUP2 SLOAD DUP2 LT PUSH2 0x1CB7 JUMPI PUSH2 0x1CB7 PUSH2 0x3175 JUMP JUMPDEST PUSH1 0x0 SWAP2 DUP3 MSTORE PUSH1 0x20 DUP1 DUP4 KECCAK256 SWAP1 SWAP2 ADD SWAP3 SWAP1 SWAP3 SSTORE SWAP2 DUP3 MSTORE PUSH1 0x1 DUP9 ADD SWAP1 MSTORE PUSH1 0x40 SWAP1 KECCAK256 DUP4 SWAP1 SSTORE JUMPDEST DUP6 SLOAD DUP7 SWAP1 DUP1 PUSH2 0x1CEA JUMPI PUSH2 0x1CEA PUSH2 0x318B JUMP JUMPDEST PUSH1 0x1 SWAP1 SUB DUP2 DUP2 SWAP1 PUSH1 0x0 MSTORE PUSH1 0x20 PUSH1 0x0 KECCAK256 ADD PUSH1 0x0 SWAP1 SSTORE SWAP1 SSTORE DUP6 PUSH1 0x1 ADD PUSH1 0x0 DUP7 DUP2 MSTORE PUSH1 0x20 ADD SWAP1 DUP2 MSTORE PUSH1 0x20 ADD PUSH1 0x0 KECCAK256 PUSH1 0x0 SWAP1 SSTORE PUSH1 0x1 SWAP4 POP POP POP POP PUSH2 0x80E JUMP JUMPDEST PUSH1 0x0 SWAP2 POP POP PUSH2 0x80E JUMP JUMPDEST PUSH1 0x0 DUP3 PUSH1 0x0 ADD DUP3 DUP2 SLOAD DUP2 LT PUSH2 0x1D46 JUMPI PUSH2 0x1D46 PUSH2 0x3175 JUMP JUMPDEST SWAP1 PUSH1 0x0 MSTORE PUSH1 0x20 PUSH1 0x0 KECCAK256 ADD SLOAD SWAP1 POP SWAP3 SWAP2 POP POP JUMP JUMPDEST PUSH1 0x0 DUP2 DUP2 MSTORE PUSH1 0x1 DUP4 ADD PUSH1 0x20 MSTORE PUSH1 0x40 DUP2 KECCAK256 SLOAD PUSH2 0x1DA0 JUMPI POP DUP2 SLOAD PUSH1 0x1 DUP2 DUP2 ADD DUP5 SSTORE PUSH1 0x0 DUP5 DUP2 MSTORE PUSH1 0x20 DUP1 DUP3 KECCAK256 SWAP1 SWAP4 ADD DUP5 SWAP1 SSTORE DUP5 SLOAD DUP5 DUP3 MSTORE DUP3 DUP7 ADD SWAP1 SWAP4 MSTORE PUSH1 0x40 SWAP1 KECCAK256 SWAP2 SWAP1 SWAP2 SSTORE PUSH2 0x80E JUMP JUMPDEST POP PUSH1 0x0 PUSH2 0x80E JUMP JUMPDEST PUSH1 0x60 PUSH1 0x0 PUSH2 0x1DB7 DUP4 PUSH1 0x2 PUSH2 0x2DF5 JUMP JUMPDEST PUSH2 0x1DC2 SWAP1 PUSH1 0x2 PUSH2 0x31A1 JUMP JUMPDEST PUSH1 0x1 PUSH1 0x1 PUSH1 0x40 SHL SUB DUP2 GT ISZERO PUSH2 0x1DD9 JUMPI PUSH2 0x1DD9 PUSH2 0x2879 JUMP JUMPDEST PUSH1 0x40 MLOAD SWAP1 DUP1 DUP3 MSTORE DUP1 PUSH1 0x1F ADD PUSH1 0x1F NOT AND PUSH1 0x20 ADD DUP3 ADD PUSH1 0x40 MSTORE DUP1 ISZERO PUSH2 0x1E03 JUMPI PUSH1 0x20 DUP3 ADD DUP2 DUP1 CALLDATASIZE DUP4 CALLDATACOPY ADD SWAP1 POP JUMPDEST POP SWAP1 POP PUSH1 0x3 PUSH1 0xFC SHL DUP2 PUSH1 0x0 DUP2 MLOAD DUP2 LT PUSH2 0x1E1E JUMPI PUSH2 0x1E1E PUSH2 0x3175 JUMP JUMPDEST PUSH1 0x20 ADD ADD SWAP1 PUSH1 0x1 PUSH1 0x1 PUSH1 0xF8 SHL SUB NOT AND SWAP1 DUP2 PUSH1 0x0 BYTE SWAP1 MSTORE8 POP PUSH1 0xF PUSH1 0xFB SHL DUP2 PUSH1 0x1 DUP2 MLOAD DUP2 LT PUSH2 0x1E4D JUMPI PUSH2 0x1E4D PUSH2 0x3175 JUMP JUMPDEST PUSH1 0x20 ADD ADD SWAP1 PUSH1 0x1 PUSH1 0x1 PUSH1 0xF8 SHL SUB NOT AND SWAP1 DUP2 PUSH1 0x0 BYTE SWAP1 MSTORE8 POP PUSH1 0x0 PUSH2 0x1E71 DUP5 PUSH1 0x2 PUSH2 0x2DF5 JUMP JUMPDEST PUSH2 0x1E7C SWAP1 PUSH1 0x1 PUSH2 0x31A1 JUMP JUMPDEST SWAP1 POP JUMPDEST PUSH1 0x1 DUP2 GT ISZERO PUSH2 0x1EF4 JUMPI PUSH16 0x181899199A1A9B1B9C1CB0B131B232B3 PUSH1 0x81 SHL DUP6 PUSH1 0xF AND PUSH1 0x10 DUP2 LT PUSH2 0x1EB0 JUMPI PUSH2 0x1EB0 PUSH2 0x3175 JUMP JUMPDEST BYTE PUSH1 0xF8 SHL DUP3 DUP3 DUP2 MLOAD DUP2 LT PUSH2 0x1EC6 JUMPI PUSH2 0x1EC6 PUSH2 0x3175 JUMP JUMPDEST PUSH1 0x20 ADD ADD SWAP1 PUSH1 0x1 PUSH1 0x1 PUSH1 0xF8 SHL SUB NOT AND SWAP1 DUP2 PUSH1 0x0 BYTE SWAP1 MSTORE8 POP PUSH1 0x4 SWAP5 SWAP1 SWAP5 SHR SWAP4 PUSH2 0x1EED DUP2 PUSH2 0x31B4 JUMP JUMPDEST SWAP1 POP PUSH2 0x1E7F JUMP JUMPDEST POP DUP4 ISZERO PUSH2 0x19EB JUMPI PUSH1 0x40 MLOAD PUSH3 0x461BCD PUSH1 0xE5 SHL DUP2 MSTORE PUSH1 0x20 PUSH1 0x4 DUP3 ADD DUP2 SWAP1 MSTORE PUSH1 0x24 DUP3 ADD MSTORE PUSH32 0x537472696E67733A20686578206C656E67746820696E73756666696369656E74 PUSH1 0x44 DUP3 ADD MSTORE PUSH1 0x64 ADD PUSH2 0x84C JUMP JUMPDEST PUSH1 0x0 PUSH2 0x1F98 DUP3 PUSH1 0x40 MLOAD DUP1 PUSH1 0x40 ADD PUSH1 0x40 MSTORE DUP1 PUSH1 0x20 DUP2 MSTORE PUSH1 0x20 ADD PUSH32 0x5361666545524332303A206C6F772D6C6576656C2063616C6C206661696C6564 DUP2 MSTORE POP DUP6 PUSH1 0x1 PUSH1 0x1 PUSH1 0xA0 SHL SUB AND PUSH2 0x22AE SWAP1 SWAP3 SWAP2 SWAP1 PUSH4 0xFFFFFFFF AND JUMP JUMPDEST SWAP1 POP DUP1 MLOAD PUSH1 0x0 EQ DUP1 PUSH2 0x1FB9 JUMPI POP DUP1 DUP1 PUSH1 0x20 ADD SWAP1 MLOAD DUP2 ADD SWAP1 PUSH2 0x1FB9 SWAP2 SWAP1 PUSH2 0x2E68 JUMP JUMPDEST PUSH2 0x97B JUMPI PUSH1 0x40 MLOAD PUSH3 0x461BCD PUSH1 0xE5 SHL DUP2 MSTORE PUSH1 0x20 PUSH1 0x4 DUP3 ADD MSTORE PUSH1 0x2A PUSH1 0x24 DUP3 ADD MSTORE PUSH32 0x5361666545524332303A204552433230206F7065726174696F6E20646964206E PUSH1 0x44 DUP3 ADD MSTORE PUSH10 0x1BDD081CDD58D8D95959 PUSH1 0xB2 SHL PUSH1 0x64 DUP3 ADD MSTORE PUSH1 0x84 ADD PUSH2 0x84C JUMP JUMPDEST PUSH1 0x60 DUP3 SELFBALANCE LT ISZERO PUSH2 0x2079 JUMPI PUSH1 0x40 MLOAD PUSH3 0x461BCD PUSH1 0xE5 SHL DUP2 MSTORE PUSH1 0x20 PUSH1 0x4 DUP3 ADD MSTORE PUSH1 0x26 PUSH1 0x24 DUP3 ADD MSTORE PUSH32 0x416464726573733A20696E73756666696369656E742062616C616E636520666F PUSH1 0x44 DUP3 ADD MSTORE PUSH6 0x1C8818D85B1B PUSH1 0xD2 SHL PUSH1 0x64 DUP3 ADD MSTORE PUSH1 0x84 ADD PUSH2 0x84C JUMP JUMPDEST PUSH1 0x0 DUP1 DUP7 PUSH1 0x1 PUSH1 0x1 PUSH1 0xA0 SHL SUB AND DUP6 DUP8 PUSH1 0x40 MLOAD PUSH2 0x2095 SWAP2 SWAP1 PUSH2 0x2DC3 JUMP JUMPDEST PUSH1 0x0 PUSH1 0x40 MLOAD DUP1 DUP4 SUB DUP2 DUP6 DUP8 GAS CALL SWAP3 POP POP POP RETURNDATASIZE DUP1 PUSH1 0x0 DUP2 EQ PUSH2 0x20D2 JUMPI PUSH1 0x40 MLOAD SWAP2 POP PUSH1 0x1F NOT PUSH1 0x3F RETURNDATASIZE ADD AND DUP3 ADD PUSH1 0x40 MSTORE RETURNDATASIZE DUP3 MSTORE RETURNDATASIZE PUSH1 0x0 PUSH1 0x20 DUP5 ADD RETURNDATACOPY PUSH2 0x20D7 JUMP JUMPDEST PUSH1 0x60 SWAP2 POP JUMPDEST POP SWAP2 POP SWAP2 POP PUSH2 0x20E8 DUP8 DUP4 DUP4 DUP8 PUSH2 0x22BD JUMP JUMPDEST SWAP8 SWAP7 POP POP POP POP POP POP POP JUMP JUMPDEST PUSH2 0x20FB PUSH2 0x282A JUMP JUMPDEST PUSH2 0x210B DUP6 PUSH1 0x80 ADD MLOAD PUSH2 0x100 PUSH2 0x2336 JUMP JUMPDEST POP POP SWAP2 DUP4 MSTORE PUSH1 0x1 PUSH1 0x1 PUSH1 0xA0 SHL SUB AND PUSH1 0x20 DUP4 ADD MSTORE PUSH1 0x1 PUSH1 0x1 PUSH1 0xE0 SHL SUB NOT AND PUSH1 0x40 DUP3 ADD MSTORE SWAP1 JUMP JUMPDEST PUSH2 0x213D DUP3 PUSH1 0x3 DUP4 MLOAD PUSH2 0x238E JUMP JUMPDEST PUSH2 0x97B DUP3 DUP3 PUSH2 0x2495 JUMP JUMPDEST PUSH1 0x0 DUP1 PUSH19 0x184F03E93FF9F4DAA797ED6E38ED64BF6A1F01 PUSH1 0x40 SHL DUP4 LT PUSH2 0x2186 JUMPI PUSH19 0x184F03E93FF9F4DAA797ED6E38ED64BF6A1F01 PUSH1 0x40 SHL DUP4 DIV SWAP3 POP PUSH1 0x40 ADD JUMPDEST PUSH10 0x4EE2D6D415B85ACEF81 PUSH1 0x20 SHL DUP4 LT PUSH2 0x21B0 JUMPI PUSH10 0x4EE2D6D415B85ACEF81 PUSH1 0x20 SHL DUP4 DIV SWAP3 POP PUSH1 0x20 ADD JUMPDEST PUSH7 0x2386F26FC10000 DUP4 LT PUSH2 0x21CE JUMPI PUSH7 0x2386F26FC10000 DUP4 DIV SWAP3 POP PUSH1 0x10 ADD JUMPDEST PUSH4 0x5F5E100 DUP4 LT PUSH2 0x21E6 JUMPI PUSH4 0x5F5E100 DUP4 DIV SWAP3 POP PUSH1 0x8 ADD JUMPDEST PUSH2 0x2710 DUP4 LT PUSH2 0x21FA JUMPI PUSH2 0x2710 DUP4 DIV SWAP3 POP PUSH1 0x4 ADD JUMPDEST PUSH1 0x64 DUP4 LT PUSH2 0x220C JUMPI PUSH1 0x64 DUP4 DIV SWAP3 POP PUSH1 0x2 ADD JUMPDEST PUSH1 0xA DUP4 LT PUSH2 0x80E JUMPI PUSH1 0x1 ADD SWAP3 SWAP2 POP POP JUMP JUMPDEST PUSH1 0x5 SLOAD PUSH1 0x0 SWAP1 PUSH2 0x222E DUP2 PUSH1 0x1 PUSH2 0x31A1 JUMP JUMPDEST PUSH1 0x5 SSTORE DUP4 MLOAD PUSH1 0x40 DUP1 DUP7 ADD MLOAD PUSH1 0x80 DUP8 ADD MLOAD MLOAD SWAP2 MLOAD PUSH1 0x0 SWAP4 PUSH4 0x3C6D41B9 PUSH1 0xE0 SHL SWAP4 PUSH2 0x2264 SWAP4 DUP7 SWAP4 DUP5 SWAP4 SWAP3 DUP10 SWAP2 PUSH1 0x2 SWAP2 SWAP1 PUSH1 0x24 ADD PUSH2 0x31CB JUMP JUMPDEST PUSH1 0x40 DUP1 MLOAD PUSH1 0x1F NOT DUP2 DUP5 SUB ADD DUP2 MSTORE SWAP2 SWAP1 MSTORE PUSH1 0x20 DUP2 ADD DUP1 MLOAD PUSH1 0x1 PUSH1 0x1 PUSH1 0xE0 SHL SUB AND PUSH1 0x1 PUSH1 0x1 PUSH1 0xE0 SHL SUB NOT SWAP1 SWAP4 AND SWAP3 SWAP1 SWAP3 OR SWAP1 SWAP2 MSTORE SWAP1 POP PUSH2 0x22A4 DUP7 DUP4 DUP7 DUP5 PUSH2 0x24AF JUMP JUMPDEST SWAP7 SWAP6 POP POP POP POP POP POP JUMP JUMPDEST PUSH1 0x60 PUSH2 0x1AF4 DUP5 DUP5 PUSH1 0x0 DUP6 PUSH2 0x2018 JUMP JUMPDEST PUSH1 0x60 DUP4 ISZERO PUSH2 0x232C JUMPI DUP3 MLOAD PUSH1 0x0 SUB PUSH2 0x2325 JUMPI PUSH1 0x1 PUSH1 0x1 PUSH1 0xA0 SHL SUB DUP6 AND EXTCODESIZE PUSH2 0x2325 JUMPI PUSH1 0x40 MLOAD PUSH3 0x461BCD PUSH1 0xE5 SHL DUP2 MSTORE PUSH1 0x20 PUSH1 0x4 DUP3 ADD MSTORE PUSH1 0x1D PUSH1 0x24 DUP3 ADD MSTORE PUSH32 0x416464726573733A2063616C6C20746F206E6F6E2D636F6E7472616374000000 PUSH1 0x44 DUP3 ADD MSTORE PUSH1 0x64 ADD PUSH2 0x84C JUMP JUMPDEST POP DUP2 PUSH2 0x1AF4 JUMP JUMPDEST PUSH2 0x1AF4 DUP4 DUP4 PUSH2 0x2608 JUMP JUMPDEST PUSH2 0x233E PUSH2 0x285F JUMP JUMPDEST PUSH2 0x2349 PUSH1 0x20 DUP4 PUSH2 0x3213 JUMP JUMPDEST ISZERO PUSH2 0x2371 JUMPI PUSH2 0x2359 PUSH1 0x20 DUP4 PUSH2 0x3213 JUMP JUMPDEST PUSH2 0x2364 SWAP1 PUSH1 0x20 PUSH2 0x3162 JUMP JUMPDEST PUSH2 0x236E SWAP1 DUP4 PUSH2 0x31A1 JUMP JUMPDEST SWAP2 POP JUMPDEST POP PUSH1 0x20 DUP3 DUP2 ADD DUP3 SWAP1 MSTORE PUSH1 0x40 DUP1 MLOAD DUP1 DUP6 MSTORE PUSH1 0x0 DUP2 MSTORE SWAP1 SWAP3 ADD ADD SWAP1 MSTORE SWAP1 JUMP JUMPDEST PUSH1 0x17 DUP2 PUSH1 0x1 PUSH1 0x1 PUSH1 0x40 SHL SUB AND GT PUSH2 0x23B2 JUMPI PUSH2 0x944 DUP4 PUSH1 0xE0 PUSH1 0x5 DUP6 SWAP1 SHL AND DUP4 OR PUSH2 0x2632 JUMP JUMPDEST PUSH1 0xFF DUP2 PUSH1 0x1 PUSH1 0x1 PUSH1 0x40 SHL SUB AND GT PUSH2 0x23EE JUMPI PUSH2 0x23D8 DUP4 PUSH1 0x18 PUSH2 0x1FE0 PUSH1 0x5 DUP7 SWAP1 SHL AND OR PUSH2 0x2632 JUMP JUMPDEST POP PUSH2 0x944 DUP4 PUSH1 0x1 PUSH1 0x1 PUSH1 0x40 SHL SUB DUP4 AND PUSH1 0x1 PUSH2 0x264A JUMP JUMPDEST PUSH2 0xFFFF DUP2 PUSH1 0x1 PUSH1 0x1 PUSH1 0x40 SHL SUB AND GT PUSH2 0x242B JUMPI PUSH2 0x2415 DUP4 PUSH1 0x19 PUSH2 0x1FE0 PUSH1 0x5 DUP7 SWAP1 SHL AND OR PUSH2 0x2632 JUMP JUMPDEST POP PUSH2 0x944 DUP4 PUSH1 0x1 PUSH1 0x1 PUSH1 0x40 SHL SUB DUP4 AND PUSH1 0x2 PUSH2 0x264A JUMP JUMPDEST PUSH4 0xFFFFFFFF DUP2 PUSH1 0x1 PUSH1 0x1 PUSH1 0x40 SHL SUB AND GT PUSH2 0x246A JUMPI PUSH2 0x2454 DUP4 PUSH1 0x1A PUSH2 0x1FE0 PUSH1 0x5 DUP7 SWAP1 SHL AND OR PUSH2 0x2632 JUMP JUMPDEST POP PUSH2 0x944 DUP4 PUSH1 0x1 PUSH1 0x1 PUSH1 0x40 SHL SUB DUP4 AND PUSH1 0x4 PUSH2 0x264A JUMP JUMPDEST PUSH2 0x247F DUP4 PUSH1 0x1B PUSH2 0x1FE0 PUSH1 0x5 DUP7 SWAP1 SHL AND OR PUSH2 0x2632 JUMP JUMPDEST POP PUSH2 0x944 DUP4 PUSH1 0x1 PUSH1 0x1 PUSH1 0x40 SHL SUB DUP4 AND PUSH1 0x8 PUSH2 0x264A JUMP JUMPDEST PUSH2 0x249D PUSH2 0x285F JUMP JUMPDEST PUSH2 0x19EB DUP4 DUP5 PUSH1 0x0 ADD MLOAD MLOAD DUP5 DUP6 MLOAD PUSH2 0x2663 JUMP JUMPDEST PUSH1 0x40 MLOAD PUSH1 0x1 PUSH1 0x1 PUSH1 0x60 SHL SUB NOT ADDRESS PUSH1 0x60 SHL AND PUSH1 0x20 DUP3 ADD MSTORE PUSH1 0x34 DUP2 ADD DUP5 SWAP1 MSTORE PUSH1 0x0 SWAP1 PUSH1 0x54 ADD PUSH1 0x40 DUP1 MLOAD DUP1 DUP4 SUB PUSH1 0x1F NOT ADD DUP2 MSTORE DUP3 DUP3 MSTORE DUP1 MLOAD PUSH1 0x20 SWAP2 DUP3 ADD KECCAK256 PUSH1 0x0 DUP2 DUP2 MSTORE PUSH1 0x6 SWAP1 SWAP3 MSTORE SWAP2 DUP2 KECCAK256 DUP1 SLOAD PUSH1 0x1 PUSH1 0x1 PUSH1 0xA0 SHL SUB NOT AND PUSH1 0x1 PUSH1 0x1 PUSH1 0xA0 SHL SUB DUP11 AND OR SWAP1 SSTORE SWAP1 SWAP3 POP DUP3 SWAP2 PUSH32 0xB5E6E01E79F91267DC17B4E6314D5D4D03593D2CEEE0FBB452B750BD70EA5AF9 SWAP2 SWAP1 LOG2 PUSH1 0x3 SLOAD PUSH1 0x40 MLOAD PUSH4 0x2000575 PUSH1 0xE5 SHL DUP2 MSTORE PUSH1 0x1 PUSH1 0x1 PUSH1 0xA0 SHL SUB SWAP1 SWAP2 AND SWAP1 PUSH4 0x4000AEA0 SWAP1 PUSH2 0x256D SWAP1 DUP9 SWAP1 DUP8 SWAP1 DUP8 SWAP1 PUSH1 0x4 ADD PUSH2 0x3227 JUMP JUMPDEST PUSH1 0x20 PUSH1 0x40 MLOAD DUP1 DUP4 SUB DUP2 PUSH1 0x0 DUP8 GAS CALL ISZERO DUP1 ISZERO PUSH2 0x258C JUMPI RETURNDATASIZE PUSH1 0x0 DUP1 RETURNDATACOPY RETURNDATASIZE PUSH1 0x0 REVERT JUMPDEST POP POP POP POP PUSH1 0x40 MLOAD RETURNDATASIZE PUSH1 0x1F NOT PUSH1 0x1F DUP3 ADD AND DUP3 ADD DUP1 PUSH1 0x40 MSTORE POP DUP2 ADD SWAP1 PUSH2 0x25B0 SWAP2 SWAP1 PUSH2 0x2E68 JUMP JUMPDEST PUSH2 0x1AF4 JUMPI PUSH1 0x40 MLOAD PUSH3 0x461BCD PUSH1 0xE5 SHL DUP2 MSTORE PUSH1 0x20 PUSH1 0x4 DUP3 ADD MSTORE PUSH1 0x23 PUSH1 0x24 DUP3 ADD MSTORE PUSH32 0x756E61626C6520746F207472616E73666572416E6443616C6C20746F206F7261 PUSH1 0x44 DUP3 ADD MSTORE PUSH3 0x636C65 PUSH1 0xE8 SHL PUSH1 0x64 DUP3 ADD MSTORE PUSH1 0x84 ADD PUSH2 0x84C JUMP JUMPDEST DUP2 MLOAD ISZERO PUSH2 0x2618 JUMPI DUP2 MLOAD DUP1 DUP4 PUSH1 0x20 ADD REVERT JUMPDEST DUP1 PUSH1 0x40 MLOAD PUSH3 0x461BCD PUSH1 0xE5 SHL DUP2 MSTORE PUSH1 0x4 ADD PUSH2 0x84C SWAP2 SWAP1 PUSH2 0x314F JUMP JUMPDEST PUSH2 0x263A PUSH2 0x285F JUMP JUMPDEST PUSH2 0x19EB DUP4 DUP5 PUSH1 0x0 ADD MLOAD MLOAD DUP5 PUSH2 0x2740 JUMP JUMPDEST PUSH2 0x2652 PUSH2 0x285F JUMP JUMPDEST PUSH2 0x1AF4 DUP5 DUP6 PUSH1 0x0 ADD MLOAD MLOAD DUP6 DUP6 PUSH2 0x278E JUMP JUMPDEST PUSH2 0x266B PUSH2 0x285F JUMP JUMPDEST DUP3 MLOAD DUP3 GT ISZERO PUSH2 0x2679 JUMPI PUSH1 0x0 DUP1 REVERT JUMPDEST PUSH1 0x20 DUP6 ADD MLOAD PUSH2 0x2688 DUP4 DUP7 PUSH2 0x31A1 JUMP JUMPDEST GT ISZERO PUSH2 0x26BB JUMPI PUSH2 0x26BB DUP6 PUSH2 0x26AB DUP8 PUSH1 0x20 ADD MLOAD DUP8 DUP7 PUSH2 0x26A6 SWAP2 SWAP1 PUSH2 0x31A1 JUMP JUMPDEST PUSH2 0x2802 JUMP JUMPDEST PUSH2 0x26B6 SWAP1 PUSH1 0x2 PUSH2 0x2DF5 JUMP JUMPDEST PUSH2 0x2813 JUMP JUMPDEST PUSH1 0x0 DUP1 DUP7 MLOAD DUP1 MLOAD DUP8 PUSH1 0x20 DUP4 ADD ADD SWAP4 POP DUP1 DUP9 DUP8 ADD GT ISZERO PUSH2 0x26DA JUMPI DUP8 DUP7 ADD DUP3 MSTORE JUMPDEST POP POP POP PUSH1 0x20 DUP5 ADD JUMPDEST PUSH1 0x20 DUP5 LT PUSH2 0x271A JUMPI DUP1 MLOAD DUP3 MSTORE PUSH2 0x26F9 PUSH1 0x20 DUP4 PUSH2 0x31A1 JUMP JUMPDEST SWAP2 POP PUSH2 0x2706 PUSH1 0x20 DUP3 PUSH2 0x31A1 JUMP JUMPDEST SWAP1 POP PUSH2 0x2713 PUSH1 0x20 DUP6 PUSH2 0x3162 JUMP JUMPDEST SWAP4 POP PUSH2 0x26E2 JUMP JUMPDEST MLOAD DUP2 MLOAD PUSH1 0x0 NOT PUSH1 0x20 DUP7 SWAP1 SUB PUSH2 0x100 EXP ADD SWAP1 DUP2 AND SWAP1 NOT SWAP2 SWAP1 SWAP2 AND OR SWAP1 MSTORE POP DUP4 SWAP5 SWAP4 POP POP POP POP JUMP JUMPDEST PUSH2 0x2748 PUSH2 0x285F JUMP JUMPDEST DUP4 PUSH1 0x20 ADD MLOAD DUP4 LT PUSH2 0x2768 JUMPI PUSH2 0x2768 DUP5 DUP6 PUSH1 0x20 ADD MLOAD PUSH1 0x2 PUSH2 0x26B6 SWAP2 SWAP1 PUSH2 0x2DF5 JUMP JUMPDEST DUP4 MLOAD DUP1 MLOAD PUSH1 0x20 DUP6 DUP4 ADD ADD DUP5 DUP2 MSTORE8 POP DUP1 DUP6 SUB PUSH2 0x2784 JUMPI PUSH1 0x1 DUP2 ADD DUP3 MSTORE JUMPDEST POP SWAP4 SWAP5 SWAP4 POP POP POP POP JUMP JUMPDEST PUSH2 0x2796 PUSH2 0x285F JUMP JUMPDEST PUSH1 0x20 DUP6 ADD MLOAD PUSH2 0x27A5 DUP6 DUP5 PUSH2 0x31A1 JUMP JUMPDEST GT ISZERO PUSH2 0x27B9 JUMPI PUSH2 0x27B9 DUP6 PUSH2 0x26AB DUP7 DUP6 PUSH2 0x31A1 JUMP JUMPDEST PUSH1 0x0 PUSH1 0x1 PUSH2 0x27C9 DUP5 PUSH2 0x100 PUSH2 0x333B JUMP JUMPDEST PUSH2 0x27D3 SWAP2 SWAP1 PUSH2 0x3162 JUMP JUMPDEST SWAP1 POP DUP6 MLOAD DUP4 DUP7 DUP3 ADD ADD DUP6 DUP4 NOT DUP3 MLOAD AND OR DUP2 MSTORE POP DUP1 MLOAD DUP5 DUP8 ADD GT ISZERO PUSH2 0x27F7 JUMPI DUP4 DUP7 ADD DUP2 MSTORE JUMPDEST POP SWAP5 SWAP6 SWAP5 POP POP POP POP POP JUMP JUMPDEST PUSH1 0x0 DUP2 DUP4 GT ISZERO PUSH2 0xECC JUMPI POP DUP2 PUSH2 0x80E JUMP JUMPDEST DUP2 MLOAD PUSH2 0x281F DUP4 DUP4 PUSH2 0x2336 JUMP JUMPDEST POP PUSH2 0x944 DUP4 DUP3 PUSH2 0x2495 JUMP JUMPDEST PUSH1 0x40 DUP1 MLOAD PUSH1 0xA0 DUP2 ADD DUP3 MSTORE PUSH1 0x0 DUP1 DUP3 MSTORE PUSH1 0x20 DUP3 ADD DUP2 SWAP1 MSTORE SWAP2 DUP2 ADD DUP3 SWAP1 MSTORE PUSH1 0x60 DUP2 ADD SWAP2 SWAP1 SWAP2 MSTORE PUSH1 0x80 DUP2 ADD PUSH2 0x285A PUSH2 0x285F JUMP JUMPDEST SWAP1 MSTORE SWAP1 JUMP JUMPDEST PUSH1 0x40 MLOAD DUP1 PUSH1 0x40 ADD PUSH1 0x40 MSTORE DUP1 PUSH1 0x60 DUP2 MSTORE PUSH1 0x20 ADD PUSH1 0x0 DUP2 MSTORE POP SWAP1 JUMP JUMPDEST PUSH4 0x4E487B71 PUSH1 0xE0 SHL PUSH1 0x0 MSTORE PUSH1 0x41 PUSH1 0x4 MSTORE PUSH1 0x24 PUSH1 0x0 REVERT JUMPDEST PUSH1 0x0 DUP3 PUSH1 0x1F DUP4 ADD SLT PUSH2 0x28A0 JUMPI PUSH1 0x0 DUP1 REVERT JUMPDEST DUP2 CALLDATALOAD PUSH1 0x1 PUSH1 0x1 PUSH1 0x40 SHL SUB DUP1 DUP3 GT ISZERO PUSH2 0x28BA JUMPI PUSH2 0x28BA PUSH2 0x2879 JUMP JUMPDEST PUSH1 0x40 MLOAD PUSH1 0x1F DUP4 ADD PUSH1 0x1F NOT SWAP1 DUP2 AND PUSH1 0x3F ADD AND DUP2 ADD SWAP1 DUP3 DUP3 GT DUP2 DUP4 LT OR ISZERO PUSH2 0x28E2 JUMPI PUSH2 0x28E2 PUSH2 0x2879 JUMP JUMPDEST DUP2 PUSH1 0x40 MSTORE DUP4 DUP2 MSTORE DUP7 PUSH1 0x20 DUP6 DUP9 ADD ADD GT ISZERO PUSH2 0x28FB JUMPI PUSH1 0x0 DUP1 REVERT JUMPDEST DUP4 PUSH1 0x20 DUP8 ADD PUSH1 0x20 DUP4 ADD CALLDATACOPY PUSH1 0x0 PUSH1 0x20 DUP6 DUP4 ADD ADD MSTORE DUP1 SWAP5 POP POP POP POP POP SWAP3 SWAP2 POP POP JUMP JUMPDEST PUSH1 0x0 PUSH1 0x20 DUP3 DUP5 SUB SLT ISZERO PUSH2 0x292D JUMPI PUSH1 0x0 DUP1 REVERT JUMPDEST DUP2 CALLDATALOAD PUSH1 0x1 PUSH1 0x1 PUSH1 0x40 SHL SUB DUP2 GT ISZERO PUSH2 0x2943 JUMPI PUSH1 0x0 DUP1 REVERT JUMPDEST PUSH2 0x1AF4 DUP5 DUP3 DUP6 ADD PUSH2 0x288F JUMP JUMPDEST PUSH1 0x0 PUSH1 0x20 DUP3 DUP5 SUB SLT ISZERO PUSH2 0x2961 JUMPI PUSH1 0x0 DUP1 REVERT JUMPDEST DUP2 CALLDATALOAD PUSH1 0x1 PUSH1 0x1 PUSH1 0xE0 SHL SUB NOT DUP2 AND DUP2 EQ PUSH2 0x19EB JUMPI PUSH1 0x0 DUP1 REVERT JUMPDEST PUSH1 0x0 DUP1 PUSH1 0x40 DUP4 DUP6 SUB SLT ISZERO PUSH2 0x298C JUMPI PUSH1 0x0 DUP1 REVERT JUMPDEST DUP3 CALLDATALOAD SWAP2 POP PUSH1 0x20 DUP4 ADD CALLDATALOAD PUSH1 0x1 PUSH1 0x1 PUSH1 0x40 SHL SUB DUP2 GT ISZERO PUSH2 0x29A9 JUMPI PUSH1 0x0 DUP1 REVERT JUMPDEST PUSH2 0x29B5 DUP6 DUP3 DUP7 ADD PUSH2 0x288F JUMP JUMPDEST SWAP2 POP POP SWAP3 POP SWAP3 SWAP1 POP JUMP JUMPDEST DUP1 CALLDATALOAD PUSH1 0x1 PUSH1 0x1 PUSH1 0xA0 SHL SUB DUP2 AND DUP2 EQ PUSH2 0x29D6 JUMPI PUSH1 0x0 DUP1 REVERT JUMPDEST SWAP2 SWAP1 POP JUMP JUMPDEST PUSH1 0x0 DUP1 PUSH1 0x0 DUP1 PUSH1 0x80 DUP6 DUP8 SUB SLT ISZERO PUSH2 0x29F1 JUMPI PUSH1 0x0 DUP1 REVERT JUMPDEST PUSH2 0x29FA DUP6 PUSH2 0x29BF JUMP JUMPDEST SWAP4 POP PUSH2 0x2A08 PUSH1 0x20 DUP7 ADD PUSH2 0x29BF JUMP JUMPDEST SWAP3 POP PUSH1 0x40 DUP6 ADD CALLDATALOAD SWAP2 POP PUSH1 0x60 DUP6 ADD CALLDATALOAD PUSH1 0xFF DUP2 AND DUP2 EQ PUSH2 0x2A25 JUMPI PUSH1 0x0 DUP1 REVERT JUMPDEST SWAP4 SWAP7 SWAP3 SWAP6 POP SWAP1 SWAP4 POP POP JUMP JUMPDEST PUSH1 0x0 DUP1 PUSH1 0x0 PUSH1 0x60 DUP5 DUP7 SUB SLT ISZERO PUSH2 0x2A45 JUMPI PUSH1 0x0 DUP1 REVERT JUMPDEST PUSH2 0x2A4E DUP5 PUSH2 0x29BF JUMP JUMPDEST SWAP3 POP PUSH2 0x2A5C PUSH1 0x20 DUP6 ADD PUSH2 0x29BF JUMP JUMPDEST SWAP2 POP PUSH1 0x40 DUP5 ADD CALLDATALOAD SWAP1 POP SWAP3 POP SWAP3 POP SWAP3 JUMP JUMPDEST PUSH1 0x0 PUSH1 0x20 DUP3 DUP5 SUB SLT ISZERO PUSH2 0x2A7E JUMPI PUSH1 0x0 DUP1 REVERT JUMPDEST POP CALLDATALOAD SWAP2 SWAP1 POP JUMP JUMPDEST PUSH1 0x0 DUP1 PUSH1 0x40 DUP4 DUP6 SUB SLT ISZERO PUSH2 0x2A98 JUMPI PUSH1 0x0 DUP1 REVERT JUMPDEST DUP3 CALLDATALOAD SWAP2 POP PUSH2 0x2AA8 PUSH1 0x20 DUP5 ADD PUSH2 0x29BF JUMP JUMPDEST SWAP1 POP SWAP3 POP SWAP3 SWAP1 POP JUMP JUMPDEST DUP1 CALLDATALOAD PUSH1 0x2 DUP2 LT PUSH2 0x29D6 JUMPI PUSH1 0x0 DUP1 REVERT JUMPDEST PUSH1 0x0 DUP1 PUSH1 0x40 DUP4 DUP6 SUB SLT ISZERO PUSH2 0x2AD3 JUMPI PUSH1 0x0 DUP1 REVERT JUMPDEST PUSH2 0x2ADC DUP4 PUSH2 0x2AB1 JUMP JUMPDEST SWAP5 PUSH1 0x20 SWAP4 SWAP1 SWAP4 ADD CALLDATALOAD SWAP4 POP POP POP JUMP JUMPDEST PUSH1 0x0 PUSH1 0x20 DUP3 DUP5 SUB SLT ISZERO PUSH2 0x2AFC JUMPI PUSH1 0x0 DUP1 REVERT JUMPDEST PUSH2 0x19EB DUP3 PUSH2 0x29BF JUMP JUMPDEST PUSH1 0x0 DUP1 PUSH1 0x40 DUP4 DUP6 SUB SLT ISZERO PUSH2 0x2B18 JUMPI PUSH1 0x0 DUP1 REVERT JUMPDEST POP POP DUP1 CALLDATALOAD SWAP3 PUSH1 0x20 SWAP1 SWAP2 ADD CALLDATALOAD SWAP2 POP JUMP JUMPDEST PUSH1 0x1 PUSH1 0x1 PUSH1 0xA0 SHL SUB SWAP2 SWAP1 SWAP2 AND DUP2 MSTORE PUSH1 0x20 ADD SWAP1 JUMP JUMPDEST PUSH1 0x0 PUSH1 0x20 DUP3 DUP5 SUB SLT ISZERO PUSH2 0x2B4D JUMPI PUSH1 0x0 DUP1 REVERT JUMPDEST PUSH2 0x19EB DUP3 PUSH2 0x2AB1 JUMP JUMPDEST PUSH1 0x0 DUP1 DUP3 DUP5 SUB PUSH1 0x60 DUP2 SLT ISZERO PUSH2 0x2B6A JUMPI PUSH1 0x0 DUP1 REVERT JUMPDEST PUSH2 0x2B73 DUP5 PUSH2 0x2AB1 JUMP JUMPDEST SWAP3 POP PUSH1 0x40 PUSH1 0x1F NOT DUP3 ADD SLT ISZERO PUSH2 0x2B87 JUMPI PUSH1 0x0 DUP1 REVERT JUMPDEST POP PUSH1 0x40 DUP1 MLOAD SWAP1 DUP2 ADD PUSH1 0x1 PUSH1 0x1 PUSH1 0x40 SHL SUB DUP2 GT DUP3 DUP3 LT OR ISZERO PUSH2 0x2BAA JUMPI PUSH2 0x2BAA PUSH2 0x2879 JUMP JUMPDEST PUSH1 0x40 SWAP1 DUP2 MSTORE PUSH1 0x20 DUP6 DUP2 ADD CALLDATALOAD DUP4 MSTORE SWAP5 ADD CALLDATALOAD SWAP4 DUP2 ADD SWAP4 SWAP1 SWAP4 MSTORE POP SWAP3 SWAP1 SWAP2 POP JUMP JUMPDEST PUSH1 0x1 PUSH1 0x1 PUSH1 0xA0 SHL SUB SWAP4 DUP5 AND DUP2 MSTORE SWAP2 SWAP1 SWAP3 AND PUSH1 0x20 DUP3 ADD MSTORE PUSH1 0x40 DUP2 ADD SWAP2 SWAP1 SWAP2 MSTORE PUSH1 0x60 ADD SWAP1 JUMP JUMPDEST PUSH1 0x1 DUP2 DUP2 SHR SWAP1 DUP3 AND DUP1 PUSH2 0x2C00 JUMPI PUSH1 0x7F DUP3 AND SWAP2 POP JUMPDEST PUSH1 0x20 DUP3 LT DUP2 SUB PUSH2 0xECC JUMPI PUSH4 0x4E487B71 PUSH1 0xE0 SHL PUSH1 0x0 MSTORE PUSH1 0x22 PUSH1 0x4 MSTORE PUSH1 0x24 PUSH1 0x0 REVERT JUMPDEST PUSH1 0x1F DUP3 GT ISZERO PUSH2 0x97B JUMPI PUSH1 0x0 DUP2 DUP2 MSTORE PUSH1 0x20 DUP2 KECCAK256 PUSH1 0x1F DUP6 ADD PUSH1 0x5 SHR DUP2 ADD PUSH1 0x20 DUP7 LT ISZERO PUSH2 0x2C47 JUMPI POP DUP1 JUMPDEST PUSH1 0x1F DUP6 ADD PUSH1 0x5 SHR DUP3 ADD SWAP2 POP JUMPDEST DUP2 DUP2 LT ISZERO PUSH2 0x17EF JUMPI DUP3 DUP2 SSTORE PUSH1 0x1 ADD PUSH2 0x2C53 JUMP JUMPDEST DUP2 MLOAD PUSH1 0x1 PUSH1 0x1 PUSH1 0x40 SHL SUB DUP2 GT ISZERO PUSH2 0x2C7F JUMPI PUSH2 0x2C7F PUSH2 0x2879 JUMP JUMPDEST PUSH2 0x2C93 DUP2 PUSH2 0x2C8D DUP5 SLOAD PUSH2 0x2BEC JUMP JUMPDEST DUP5 PUSH2 0x2C20 JUMP JUMPDEST PUSH1 0x20 DUP1 PUSH1 0x1F DUP4 GT PUSH1 0x1 DUP2 EQ PUSH2 0x2CC8 JUMPI PUSH1 0x0 DUP5 ISZERO PUSH2 0x2CB0 JUMPI POP DUP6 DUP4 ADD MLOAD JUMPDEST PUSH1 0x0 NOT PUSH1 0x3 DUP7 SWAP1 SHL SHR NOT AND PUSH1 0x1 DUP6 SWAP1 SHL OR DUP6 SSTORE PUSH2 0x17EF JUMP JUMPDEST PUSH1 0x0 DUP6 DUP2 MSTORE PUSH1 0x20 DUP2 KECCAK256 PUSH1 0x1F NOT DUP7 AND SWAP2 JUMPDEST DUP3 DUP2 LT ISZERO PUSH2 0x2CF7 JUMPI DUP9 DUP7 ADD MLOAD DUP3 SSTORE SWAP5 DUP5 ADD SWAP5 PUSH1 0x1 SWAP1 SWAP2 ADD SWAP1 DUP5 ADD PUSH2 0x2CD8 JUMP JUMPDEST POP DUP6 DUP3 LT ISZERO PUSH2 0x2D15 JUMPI DUP8 DUP6 ADD MLOAD PUSH1 0x0 NOT PUSH1 0x3 DUP9 SWAP1 SHL PUSH1 0xF8 AND SHR NOT AND DUP2 SSTORE JUMPDEST POP POP POP POP POP PUSH1 0x1 SWAP1 DUP2 SHL ADD SWAP1 SSTORE POP JUMP JUMPDEST PUSH4 0x4E487B71 PUSH1 0xE0 SHL PUSH1 0x0 MSTORE PUSH1 0x21 PUSH1 0x4 MSTORE PUSH1 0x24 PUSH1 0x0 REVERT JUMPDEST PUSH1 0x20 DUP1 DUP3 MSTORE PUSH1 0x28 SWAP1 DUP3 ADD MSTORE PUSH32 0x536F75726365206D75737420626520746865206F7261636C65206F6620746865 PUSH1 0x40 DUP3 ADD MSTORE PUSH8 0x81C995C5D595CDD PUSH1 0xC2 SHL PUSH1 0x60 DUP3 ADD MSTORE PUSH1 0x80 ADD SWAP1 JUMP JUMPDEST PUSH1 0x0 JUMPDEST DUP4 DUP2 LT ISZERO PUSH2 0x2D9E JUMPI DUP2 DUP2 ADD MLOAD DUP4 DUP3 ADD MSTORE PUSH1 0x20 ADD PUSH2 0x2D86 JUMP JUMPDEST POP POP PUSH1 0x0 SWAP2 ADD MSTORE JUMP JUMPDEST PUSH1 0x0 DUP2 MLOAD PUSH2 0x2DB9 DUP2 DUP6 PUSH1 0x20 DUP7 ADD PUSH2 0x2D83 JUMP JUMPDEST SWAP3 SWAP1 SWAP3 ADD SWAP3 SWAP2 POP POP JUMP JUMPDEST PUSH1 0x0 DUP3 MLOAD PUSH2 0x2DD5 DUP2 DUP5 PUSH1 0x20 DUP8 ADD PUSH2 0x2D83 JUMP JUMPDEST SWAP2 SWAP1 SWAP2 ADD SWAP3 SWAP2 POP POP JUMP JUMPDEST PUSH4 0x4E487B71 PUSH1 0xE0 SHL PUSH1 0x0 MSTORE PUSH1 0x11 PUSH1 0x4 MSTORE PUSH1 0x24 PUSH1 0x0 REVERT JUMPDEST DUP1 DUP3 MUL DUP2 ISZERO DUP3 DUP3 DIV DUP5 EQ OR PUSH2 0x80E JUMPI PUSH2 0x80E PUSH2 0x2DDF JUMP JUMPDEST PUSH4 0x4E487B71 PUSH1 0xE0 SHL PUSH1 0x0 MSTORE PUSH1 0x12 PUSH1 0x4 MSTORE PUSH1 0x24 PUSH1 0x0 REVERT JUMPDEST PUSH1 0x0 DUP3 PUSH2 0x2E31 JUMPI PUSH2 0x2E31 PUSH2 0x2E0C JUMP JUMPDEST POP DIV SWAP1 JUMP JUMPDEST PUSH1 0x0 PUSH1 0x20 DUP3 DUP5 SUB SLT ISZERO PUSH2 0x2E48 JUMPI PUSH1 0x0 DUP1 REVERT JUMPDEST POP MLOAD SWAP2 SWAP1 POP JUMP JUMPDEST PUSH1 0x1 PUSH1 0x1 PUSH1 0xA0 SHL SUB SWAP3 SWAP1 SWAP3 AND DUP3 MSTORE PUSH1 0x20 DUP3 ADD MSTORE PUSH1 0x40 ADD SWAP1 JUMP JUMPDEST PUSH1 0x0 PUSH1 0x20 DUP3 DUP5 SUB SLT ISZERO PUSH2 0x2E7A JUMPI PUSH1 0x0 DUP1 REVERT JUMPDEST DUP2 MLOAD DUP1 ISZERO ISZERO DUP2 EQ PUSH2 0x19EB JUMPI PUSH1 0x0 DUP1 REVERT JUMPDEST DUP1 SLOAD PUSH1 0x1 PUSH1 0x1 PUSH1 0xA0 SHL SUB SWAP1 DUP2 AND DUP4 MSTORE PUSH1 0x1 DUP3 ADD SLOAD AND PUSH1 0x20 DUP4 ADD MSTORE PUSH1 0x2 ADD SLOAD PUSH1 0x40 SWAP1 SWAP2 ADD MSTORE JUMP JUMPDEST PUSH2 0x2EBA DUP2 DUP4 PUSH2 0x2E8A JUMP JUMPDEST PUSH1 0x60 ADD SWAP2 SWAP1 POP JUMP JUMPDEST PUSH1 0x0 DUP1 MLOAD PUSH1 0x20 PUSH2 0x33B1 DUP4 CODECOPY DUP2 MLOAD SWAP2 MSTORE DUP2 MSTORE PUSH11 0x312F737761703F7372633D PUSH1 0xA8 SHL PUSH1 0x20 DUP3 ADD MSTORE PUSH1 0x0 DUP8 MLOAD PUSH2 0x2EFC DUP2 PUSH1 0x2B DUP6 ADD PUSH1 0x20 DUP13 ADD PUSH2 0x2D83 JUMP JUMPDEST PUSH5 0x266473743D PUSH1 0xD8 SHL PUSH1 0x2B SWAP2 DUP5 ADD SWAP2 DUP3 ADD MSTORE DUP8 MLOAD PUSH2 0x2F21 DUP2 PUSH1 0x30 DUP5 ADD PUSH1 0x20 DUP13 ADD PUSH2 0x2D83 JUMP JUMPDEST PUSH8 0x26616D6F756E743D PUSH1 0xC0 SHL PUSH1 0x30 SWAP3 SWAP1 SWAP2 ADD SWAP2 DUP3 ADD MSTORE DUP7 MLOAD PUSH2 0x2F4A DUP2 PUSH1 0x38 DUP5 ADD PUSH1 0x20 DUP12 ADD PUSH2 0x2D83 JUMP JUMPDEST PUSH6 0x2666726F6D3D PUSH1 0xD0 SHL PUSH1 0x38 SWAP3 SWAP1 SWAP2 ADD SWAP2 DUP3 ADD MSTORE DUP6 MLOAD PUSH2 0x2F71 DUP2 PUSH1 0x3E DUP5 ADD PUSH1 0x20 DUP11 ADD PUSH2 0x2D83 JUMP JUMPDEST PUSH10 0x26736C6970706167653D PUSH1 0xB0 SHL PUSH1 0x3E SWAP3 SWAP1 SWAP2 ADD SWAP2 DUP3 ADD MSTORE PUSH2 0x2FDC PUSH2 0x2FBB PUSH2 0x2FB5 PUSH2 0x2F9F PUSH1 0x48 DUP6 ADD DUP10 PUSH2 0x2DA7 JUMP JUMPDEST PUSH10 0x2672656365697665723D PUSH1 0xB0 SHL DUP2 MSTORE PUSH1 0xA ADD SWAP1 JUMP JUMPDEST DUP7 PUSH2 0x2DA7 JUMP JUMPDEST PUSH21 0x2664697361626C65457374696D6174653D74727565 PUSH1 0x58 SHL DUP2 MSTORE PUSH1 0x15 ADD SWAP1 JUMP JUMPDEST SWAP10 SWAP9 POP POP POP POP POP POP POP POP POP JUMP JUMPDEST PUSH1 0x0 DUP1 MLOAD PUSH1 0x20 PUSH2 0x33B1 DUP4 CODECOPY DUP2 MLOAD SWAP2 MSTORE DUP2 MSTORE PUSH12 0x312F71756F74653F7372633D PUSH1 0xA0 SHL PUSH1 0x20 DUP3 ADD MSTORE PUSH1 0x0 DUP5 MLOAD PUSH2 0x3024 DUP2 PUSH1 0x2C DUP6 ADD PUSH1 0x20 DUP10 ADD PUSH2 0x2D83 JUMP JUMPDEST PUSH5 0x266473743D PUSH1 0xD8 SHL PUSH1 0x2C SWAP2 DUP5 ADD SWAP2 DUP3 ADD MSTORE DUP5 MLOAD PUSH2 0x3049 DUP2 PUSH1 0x31 DUP5 ADD PUSH1 0x20 DUP10 ADD PUSH2 0x2D83 JUMP JUMPDEST PUSH8 0x26616D6F756E743D PUSH1 0xC0 SHL PUSH1 0x31 SWAP3 SWAP1 SWAP2 ADD SWAP2 DUP3 ADD MSTORE DUP4 MLOAD PUSH2 0x3072 DUP2 PUSH1 0x39 DUP5 ADD PUSH1 0x20 DUP9 ADD PUSH2 0x2D83 JUMP JUMPDEST ADD PUSH1 0x39 ADD SWAP6 SWAP5 POP POP POP POP POP JUMP JUMPDEST PUSH1 0x0 PUSH1 0x1 DUP3 ADD PUSH2 0x3091 JUMPI PUSH2 0x3091 PUSH2 0x2DDF JUMP JUMPDEST POP PUSH1 0x1 ADD SWAP1 JUMP JUMPDEST PUSH2 0x30A2 DUP2 DUP4 PUSH2 0x2E8A JUMP JUMPDEST PUSH1 0x3 SWAP2 SWAP1 SWAP2 ADD SLOAD PUSH1 0x60 DUP3 ADD MSTORE PUSH1 0x80 ADD SWAP1 JUMP JUMPDEST PUSH23 0x20B1B1B2B9B9A1B7B73A3937B61D1030B1B1B7BAB73A1 PUSH1 0x4D SHL DUP2 MSTORE PUSH1 0x0 DUP4 MLOAD PUSH2 0x30E6 DUP2 PUSH1 0x17 DUP6 ADD PUSH1 0x20 DUP9 ADD PUSH2 0x2D83 JUMP JUMPDEST PUSH17 0x1034B99036B4B9B9B4B733903937B6329 PUSH1 0x7D SHL PUSH1 0x17 SWAP2 DUP5 ADD SWAP2 DUP3 ADD MSTORE DUP4 MLOAD PUSH2 0x3117 DUP2 PUSH1 0x28 DUP5 ADD PUSH1 0x20 DUP9 ADD PUSH2 0x2D83 JUMP JUMPDEST ADD PUSH1 0x28 ADD SWAP5 SWAP4 POP POP POP POP JUMP JUMPDEST PUSH1 0x0 DUP2 MLOAD DUP1 DUP5 MSTORE PUSH2 0x313B DUP2 PUSH1 0x20 DUP7 ADD PUSH1 0x20 DUP7 ADD PUSH2 0x2D83 JUMP JUMPDEST PUSH1 0x1F ADD PUSH1 0x1F NOT AND SWAP3 SWAP1 SWAP3 ADD PUSH1 0x20 ADD SWAP3 SWAP2 POP POP JUMP JUMPDEST PUSH1 0x20 DUP2 MSTORE PUSH1 0x0 PUSH2 0x19EB PUSH1 0x20 DUP4 ADD DUP5 PUSH2 0x3123 JUMP JUMPDEST DUP2 DUP2 SUB DUP2 DUP2 GT ISZERO PUSH2 0x80E JUMPI PUSH2 0x80E PUSH2 0x2DDF JUMP JUMPDEST PUSH4 0x4E487B71 PUSH1 0xE0 SHL PUSH1 0x0 MSTORE PUSH1 0x32 PUSH1 0x4 MSTORE PUSH1 0x24 PUSH1 0x0 REVERT JUMPDEST PUSH4 0x4E487B71 PUSH1 0xE0 SHL PUSH1 0x0 MSTORE PUSH1 0x31 PUSH1 0x4 MSTORE PUSH1 0x24 PUSH1 0x0 REVERT JUMPDEST DUP1 DUP3 ADD DUP1 DUP3 GT ISZERO PUSH2 0x80E JUMPI PUSH2 0x80E PUSH2 0x2DDF JUMP JUMPDEST PUSH1 0x0 DUP2 PUSH2 0x31C3 JUMPI PUSH2 0x31C3 PUSH2 0x2DDF JUMP JUMPDEST POP PUSH1 0x0 NOT ADD SWAP1 JUMP JUMPDEST PUSH1 0x1 DUP1 PUSH1 0xA0 SHL SUB DUP9 AND DUP2 MSTORE DUP7 PUSH1 0x20 DUP3 ADD MSTORE DUP6 PUSH1 0x40 DUP3 ADD MSTORE PUSH4 0xFFFFFFFF PUSH1 0xE0 SHL DUP6 AND PUSH1 0x60 DUP3 ADD MSTORE DUP4 PUSH1 0x80 DUP3 ADD MSTORE DUP3 PUSH1 0xA0 DUP3 ADD MSTORE PUSH1 0xE0 PUSH1 0xC0 DUP3 ADD MSTORE PUSH1 0x0 PUSH2 0x2FDC PUSH1 0xE0 DUP4 ADD DUP5 PUSH2 0x3123 JUMP JUMPDEST PUSH1 0x0 DUP3 PUSH2 0x3222 JUMPI PUSH2 0x3222 PUSH2 0x2E0C JUMP JUMPDEST POP MOD SWAP1 JUMP JUMPDEST PUSH1 0x1 DUP1 PUSH1 0xA0 SHL SUB DUP5 AND DUP2 MSTORE DUP3 PUSH1 0x20 DUP3 ADD MSTORE PUSH1 0x60 PUSH1 0x40 DUP3 ADD MSTORE PUSH1 0x0 PUSH2 0x324E PUSH1 0x60 DUP4 ADD DUP5 PUSH2 0x3123 JUMP JUMPDEST SWAP6 SWAP5 POP POP POP POP POP JUMP JUMPDEST PUSH1 0x1 DUP2 DUP2 JUMPDEST DUP1 DUP6 GT ISZERO PUSH2 0x3292 JUMPI DUP2 PUSH1 0x0 NOT DIV DUP3 GT ISZERO PUSH2 0x3278 JUMPI PUSH2 0x3278 PUSH2 0x2DDF JUMP JUMPDEST DUP1 DUP6 AND ISZERO PUSH2 0x3285 JUMPI SWAP2 DUP2 MUL SWAP2 JUMPDEST SWAP4 DUP5 SHR SWAP4 SWAP1 DUP1 MUL SWAP1 PUSH2 0x325C JUMP JUMPDEST POP SWAP3 POP SWAP3 SWAP1 POP JUMP JUMPDEST PUSH1 0x0 DUP3 PUSH2 0x32A9 JUMPI POP PUSH1 0x1 PUSH2 0x80E JUMP JUMPDEST DUP2 PUSH2 0x32B6 JUMPI POP PUSH1 0x0 PUSH2 0x80E JUMP JUMPDEST DUP2 PUSH1 0x1 DUP2 EQ PUSH2 0x32CC JUMPI PUSH1 0x2 DUP2 EQ PUSH2 0x32D6 JUMPI PUSH2 0x32F2 JUMP JUMPDEST PUSH1 0x1 SWAP2 POP POP PUSH2 0x80E JUMP JUMPDEST PUSH1 0xFF DUP5 GT ISZERO PUSH2 0x32E7 JUMPI PUSH2 0x32E7 PUSH2 0x2DDF JUMP JUMPDEST POP POP PUSH1 0x1 DUP3 SHL PUSH2 0x80E JUMP JUMPDEST POP PUSH1 0x20 DUP4 LT PUSH2 0x133 DUP4 LT AND PUSH1 0x4E DUP5 LT PUSH1 0xB DUP5 LT AND OR ISZERO PUSH2 0x3315 JUMPI POP DUP2 DUP2 EXP PUSH2 0x80E JUMP JUMPDEST PUSH2 0x331F DUP4 DUP4 PUSH2 0x3257 JUMP JUMPDEST DUP1 PUSH1 0x0 NOT DIV DUP3 GT ISZERO PUSH2 0x3333 JUMPI PUSH2 0x3333 PUSH2 0x2DDF JUMP JUMPDEST MUL SWAP4 SWAP3 POP POP POP JUMP JUMPDEST PUSH1 0x0 PUSH2 0x19EB DUP4 DUP4 PUSH2 0x329A JUMP INVALID SWAP4 PUSH3 0x7969D6 0xBA EXTCODEHASH 0x21 XOR CREATE2 PUSH21 0xA00F8D1C7FED4282F3728A455E8B3C867B1A1A212B 0xB6 SWAP1 0x4E 0x5F SHL PREVRANDAO 0x22 SWAP15 JUMP MULMOD 0xB6 DUP2 0xFB 0xC2 MLOAD 0x24 MULMOD 0xAF LOG3 0xE5 0xA9 SMOD 0x2D SUB EQ 0x25 PUSH13 0x12668DBE4416464726573733A KECCAK256 PUSH13 0x6F772D6C6576656C2063616C6C KECCAK256 PUSH24 0x6974682076616C7565206661696C656468747470733A2F2F PUSH2 0x7069 0x2E BALANCE PUSH10 0x6E63682E6465762F7377 PUSH2 0x702F PUSH23 0x352E322F17A8E30262C1F919C33056D877A3C22B95C2F5 0xE4 0xDA 0xC4 CHAINID DUP4 0xC1 0xC2 ORIGIN EXTCODECOPY 0xD7 SWAP16 0xBD 0xB0 0xA6 0xB7 DUP16 0xC0 SELFBALANCE BASEFEE PUSH14 0x5ADD927AA53BA0D4FC8EB23A5811 0xE0 SDIV 0x2A 0xEB 0xEB LOG2 EQ PUSH10 0xF51DF87CC135E0CEBB02 0xC3 BASEFEE EXP 0xE5 0xD7 0x4D CALLDATACOPY PUSH19 0x83180A2601F8F644EDF7987B009316C63AFAB0 EXP SWAP9 SELFBALANCE SLOAD SWAP6 0xC PUSH18 0x87FB98F39DA0AE224ABBBEE017C1699445AD 0xE NOT SELFBALANCE 0x4A 0x4D LOG2 PUSH5 0x6970667358 0x22 SLT KECCAK256 SWAP16 PUSH9 0xFAF2335FCA25B37E8 0x4D SWAP6 0xD9 DUP1 PUSH6 0xBAD015A2C82D 0xEE 0xD PC DUP8 TIMESTAMP DUP2 CODESIZE PUSH20 0x38AB64736F6C6343000813003317A8E30262C1F9 NOT 0xC3 ADDRESS JUMP 0xD8 PUSH24 0xA3C22B95C2F5E4DAC44683C1C2323CD79FBDB0FAB00A9847 SLOAD SWAP6 0xC PUSH18 0x87FB98F39DA0AE224ABBBEE017C1699445AD 0xE NOT SELFBALANCE 0x4A 0x4D "},"gasEstimates":{"creation":{"codeDepositCost":"2689200","executionCost":"infinite","totalCost":"infinite"},"external":{"DEFAULT_ADMIN_ROLE()":"635","ONE_INCH_ETH_ADDRESS()":"768","QUOTE_AUTHORIZED_ROLE()":"infinite","STRATEGIST_ROLE()":"infinite","SWAP_AUTHORIZED_ROLE()":"infinite","addSubscriber(address)":"infinite","aggregationRouter()":"infinite","fulfillQuote()":"infinite","fulfillSwap()":"infinite","getFeeInHundredthsOfLink(uint8)":"infinite","getOracleAddress()":"infinite","getRoleAdmin(bytes32)":"2547","grantRole(bytes32,address)":"infinite","hasRole(bytes32,address)":"3047","isReadyToFulfillQuote()":"2860","isReadyToFulfillSwap()":"2937","jobInfos(uint256)":"5347","oracleAddress()":"2867","quoteBuffer()":"9172","registerQuoteAndFulfillRequestOnOracleExpense(bytes32,uint256)":"infinite","registerQuoteRequest(bytes32,uint256)":"75691","registerSwapCalldata(bytes32,bytes)":"infinite","registerSwapCalldataAndFulfillOnOracleExpense(bytes32,bytes)":"infinite","removeSubscriber(address)":"infinite","renounceRole(bytes32,address)":"29127","requestQuote(address,address,uint256)":"infinite","requestQuoteAndFulfillOnOracleExpense(address,address,uint256)":"infinite","requestSwap(address,address,uint256,uint8)":"infinite","requestSwapAndFulfillOnOracleExpense(address,address,uint256,uint8)":"infinite","revokeRole(bytes32,address)":"infinite","setFeeInHundredthsOfLink(uint8,uint256)":"infinite","setJobInfo(uint8,(bytes32,uint256))":"infinite","setOracleAddress(address)":"infinite","strategistFulfillQuote(uint256)":"infinite","strategistFulfillSwap(bytes)":"infinite","subscriberAt(uint256)":"5048","subscribersLength()":"2678","supportsInterface(bytes4)":"426","swapBuffer()":"7340","withdrawLink()":"infinite"},"internal":{"_fulfillQuoteRequest()":"infinite","_fulfillSwap()":"infinite","_requestQuote(address,address,uint256,bytes4)":"infinite","_requestSwap(address,address,uint256,uint8,bytes4)":"infinite","_setMaxAllowancesIfNeededAndCheckPayment(address,uint256,address)":"infinite"}},"methodIdentifiers":{"DEFAULT_ADMIN_ROLE()":"a217fddf","ONE_INCH_ETH_ADDRESS()":"aaeafd56","QUOTE_AUTHORIZED_ROLE()":"e05d6bf2","STRATEGIST_ROLE()":"a378a324","SWAP_AUTHORIZED_ROLE()":"4e0c6133","addSubscriber(address)":"94555d1a","aggregationRouter()":"fcdfd946","fulfillQuote()":"dc39b19a","fulfillSwap()":"eaad47b2","getFeeInHundredthsOfLink(uint8)":"b6761cb8","getOracleAddress()":"b18b78dd","getRoleAdmin(bytes32)":"248a9ca3","grantRole(bytes32,address)":"2f2ff15d","hasRole(bytes32,address)":"91d14854","isReadyToFulfillQuote()":"ab3c322d","isReadyToFulfillSwap()":"c0d2e37f","jobInfos(uint256)":"e75d763f","oracleAddress()":"a89ae4ba","quoteBuffer()":"81777a3d","registerQuoteAndFulfillRequestOnOracleExpense(bytes32,uint256)":"a74d01d4","registerQuoteRequest(bytes32,uint256)":"4e22e31e","registerSwapCalldata(bytes32,bytes)":"02458ad8","registerSwapCalldataAndFulfillOnOracleExpense(bytes32,bytes)":"cacfacf4","removeSubscriber(address)":"627c34ad","renounceRole(bytes32,address)":"36568abe","requestQuote(address,address,uint256)":"1a5b4207","requestQuoteAndFulfillOnOracleExpense(address,address,uint256)":"4d1dde7b","requestSwap(address,address,uint256,uint8)":"f09922ff","requestSwapAndFulfillOnOracleExpense(address,address,uint256,uint8)":"10cabd1d","revokeRole(bytes32,address)":"d547741f","setFeeInHundredthsOfLink(uint8,uint256)":"4ab5c503","setJobInfo(uint8,(bytes32,uint256))":"be555a80","setOracleAddress(address)":"4c69c00f","strategistFulfillQuote(uint256)":"50c284b3","strategistFulfillSwap(bytes)":"01a76f59","subscriberAt(uint256)":"6ccf5b01","subscribersLength()":"66b8455b","supportsInterface(bytes4)":"01ffc9a7","swapBuffer()":"d9ff478f","withdrawLink()":"8dc654a2"}},"storageLayout":{"storage":[{"astId":2200,"contract":"contracts/utils/SwapHelper.sol:SwapHelper","label":"_roles","offset":0,"slot":"0","type":"t_mapping(t_bytes32,t_struct(RoleData)2195_storage)"},{"astId":319,"contract":"contracts/utils/SwapHelper.sol:SwapHelper","label":"s_ens","offset":0,"slot":"1","type":"t_contract(ENSInterface)974"},{"astId":321,"contract":"contracts/utils/SwapHelper.sol:SwapHelper","label":"s_ensNode","offset":0,"slot":"2","type":"t_bytes32"},{"astId":324,"contract":"contracts/utils/SwapHelper.sol:SwapHelper","label":"s_link","offset":0,"slot":"3","type":"t_contract(LinkTokenInterface)1069"},{"astId":327,"contract":"contracts/utils/SwapHelper.sol:SwapHelper","label":"s_oracle","offset":0,"slot":"4","type":"t_contract(OperatorInterface)1149"},{"astId":330,"contract":"contracts/utils/SwapHelper.sol:SwapHelper","label":"s_requestCount","offset":0,"slot":"5","type":"t_uint256"},{"astId":334,"contract":"contracts/utils/SwapHelper.sol:SwapHelper","label":"s_pendingRequests","offset":0,"slot":"6","type":"t_mapping(t_bytes32,t_address)"},{"astId":5433,"contract":"contracts/utils/SwapHelper.sol:SwapHelper","label":"oracleAddress","offset":0,"slot":"7","type":"t_address"},{"astId":5436,"contract":"contracts/utils/SwapHelper.sol:SwapHelper","label":"quoteBuffer","offset":0,"slot":"8","type":"t_struct(QuoteInfo)5374_storage"},{"astId":5439,"contract":"contracts/utils/SwapHelper.sol:SwapHelper","label":"swapBuffer","offset":0,"slot":"12","type":"t_struct(SwapInfo)5368_storage"},{"astId":5441,"contract":"contracts/utils/SwapHelper.sol:SwapHelper","label":"isReadyToFulfillSwap","offset":0,"slot":"15","type":"t_bool"},{"astId":5443,"contract":"contracts/utils/SwapHelper.sol:SwapHelper","label":"isReadyToFulfillQuote","offset":1,"slot":"15","type":"t_bool"},{"astId":5448,"contract":"contracts/utils/SwapHelper.sol:SwapHelper","label":"jobInfos","offset":0,"slot":"16","type":"t_mapping(t_uint256,t_struct(JobInfo)5361_storage)"},{"astId":5450,"contract":"contracts/utils/SwapHelper.sol:SwapHelper","label":"_lastSwapCalldata","offset":0,"slot":"17","type":"t_bytes_storage"},{"astId":5453,"contract":"contracts/utils/SwapHelper.sol:SwapHelper","label":"_subscribers","offset":0,"slot":"18","type":"t_struct(AddressSet)4968_storage"}],"types":{"t_address":{"encoding":"inplace","label":"address","numberOfBytes":"20"},"t_array(t_bytes32)dyn_storage":{"base":"t_bytes32","encoding":"dynamic_array","label":"bytes32[]","numberOfBytes":"32"},"t_bool":{"encoding":"inplace","label":"bool","numberOfBytes":"1"},"t_bytes32":{"encoding":"inplace","label":"bytes32","numberOfBytes":"32"},"t_bytes_storage":{"encoding":"bytes","label":"bytes","numberOfBytes":"32"},"t_contract(ENSInterface)974":{"encoding":"inplace","label":"contract ENSInterface","numberOfBytes":"20"},"t_contract(LinkTokenInterface)1069":{"encoding":"inplace","label":"contract LinkTokenInterface","numberOfBytes":"20"},"t_contract(OperatorInterface)1149":{"encoding":"inplace","label":"contract OperatorInterface","numberOfBytes":"20"},"t_mapping(t_address,t_bool)":{"encoding":"mapping","key":"t_address","label":"mapping(address => bool)","numberOfBytes":"32","value":"t_bool"},"t_mapping(t_bytes32,t_address)":{"encoding":"mapping","key":"t_bytes32","label":"mapping(bytes32 => address)","numberOfBytes":"32","value":"t_address"},"t_mapping(t_bytes32,t_struct(RoleData)2195_storage)":{"encoding":"mapping","key":"t_bytes32","label":"mapping(bytes32 => struct AccessControl.RoleData)","numberOfBytes":"32","value":"t_struct(RoleData)2195_storage"},"t_mapping(t_bytes32,t_uint256)":{"encoding":"mapping","key":"t_bytes32","label":"mapping(bytes32 => uint256)","numberOfBytes":"32","value":"t_uint256"},"t_mapping(t_uint256,t_struct(JobInfo)5361_storage)":{"encoding":"mapping","key":"t_uint256","label":"mapping(uint256 => struct SwapHelper.JobInfo)","numberOfBytes":"32","value":"t_struct(JobInfo)5361_storage"},"t_struct(AddressSet)4968_storage":{"encoding":"inplace","label":"struct EnumerableSet.AddressSet","members":[{"astId":4967,"contract":"contracts/utils/SwapHelper.sol:SwapHelper","label":"_inner","offset":0,"slot":"0","type":"t_struct(Set)4653_storage"}],"numberOfBytes":"64"},"t_struct(JobInfo)5361_storage":{"encoding":"inplace","label":"struct SwapHelper.JobInfo","members":[{"astId":5358,"contract":"contracts/utils/SwapHelper.sol:SwapHelper","label":"jobId","offset":0,"slot":"0","type":"t_bytes32"},{"astId":5360,"contract":"contracts/utils/SwapHelper.sol:SwapHelper","label":"jobFeeInJuels","offset":0,"slot":"1","type":"t_uint256"}],"numberOfBytes":"64"},"t_struct(QuoteInfo)5374_storage":{"encoding":"inplace","label":"struct SwapHelper.QuoteInfo","members":[{"astId":5371,"contract":"contracts/utils/SwapHelper.sol:SwapHelper","label":"swapInfo","offset":0,"slot":"0","type":"t_struct(SwapInfo)5368_storage"},{"astId":5373,"contract":"contracts/utils/SwapHelper.sol:SwapHelper","label":"outAmount","offset":0,"slot":"3","type":"t_uint256"}],"numberOfBytes":"128"},"t_struct(RoleData)2195_storage":{"encoding":"inplace","label":"struct AccessControl.RoleData","members":[{"astId":2192,"contract":"contracts/utils/SwapHelper.sol:SwapHelper","label":"members","offset":0,"slot":"0","type":"t_mapping(t_address,t_bool)"},{"astId":2194,"contract":"contracts/utils/SwapHelper.sol:SwapHelper","label":"adminRole","offset":0,"slot":"1","type":"t_bytes32"}],"numberOfBytes":"64"},"t_struct(Set)4653_storage":{"encoding":"inplace","label":"struct EnumerableSet.Set","members":[{"astId":4648,"contract":"contracts/utils/SwapHelper.sol:SwapHelper","label":"_values","offset":0,"slot":"0","type":"t_array(t_bytes32)dyn_storage"},{"astId":4652,"contract":"contracts/utils/SwapHelper.sol:SwapHelper","label":"_indexes","offset":0,"slot":"1","type":"t_mapping(t_bytes32,t_uint256)"}],"numberOfBytes":"64"},"t_struct(SwapInfo)5368_storage":{"encoding":"inplace","label":"struct SwapHelper.SwapInfo","members":[{"astId":5363,"contract":"contracts/utils/SwapHelper.sol:SwapHelper","label":"srcToken","offset":0,"slot":"0","type":"t_address"},{"astId":5365,"contract":"contracts/utils/SwapHelper.sol:SwapHelper","label":"dstToken","offset":0,"slot":"1","type":"t_address"},{"astId":5367,"contract":"contracts/utils/SwapHelper.sol:SwapHelper","label":"inAmount","offset":0,"slot":"2","type":"t_uint256"}],"numberOfBytes":"96"},"t_uint256":{"encoding":"inplace","label":"uint256","numberOfBytes":"32"}}},"userdoc":{"kind":"user","methods":{},"version":1}}}}