{"contracts/utils/SwapHelper.sol":{"SwapHelper":{"abi":[{"inputs":[{"internalType":"uint256","name":"_jobFee","type":"uint256"},{"internalType":"address","name":"_strategist","type":"address"},{"internalType":"address","name":"_aggregationRouter","type":"address"},{"internalType":"address","name":"chainlinkTokenAddress","type":"address"},{"internalType":"address","name":"chainlinkOracleAddress","type":"address"},{"internalType":"string","name":"_jobId","type":"string"},{"internalType":"address[]","name":"authorizedToSwap","type":"address[]"}],"stateMutability":"nonpayable","type":"constructor"},{"inputs":[],"name":"CannotAddSubscriber","type":"error"},{"inputs":[],"name":"CannotRemoveSubscriber","type":"error"},{"inputs":[],"name":"NotEnoughNativeTokensSent","type":"error"},{"inputs":[],"name":"SlippageIsTooBig","type":"error"},{"inputs":[],"name":"SwapOperationIsNotReady","type":"error"},{"inputs":[],"name":"TransferError","type":"error"},{"anonymous":false,"inputs":[{"indexed":true,"internalType":"bytes32","name":"id","type":"bytes32"}],"name":"ChainlinkCancelled","type":"event"},{"anonymous":false,"inputs":[{"indexed":true,"internalType":"bytes32","name":"id","type":"bytes32"}],"name":"ChainlinkFulfilled","type":"event"},{"anonymous":false,"inputs":[{"indexed":true,"internalType":"bytes32","name":"id","type":"bytes32"}],"name":"ChainlinkRequested","type":"event"},{"anonymous":false,"inputs":[{"indexed":true,"internalType":"address","name":"src","type":"address"},{"indexed":true,"internalType":"address","name":"dst","type":"address"},{"indexed":true,"internalType":"uint256","name":"amountOut","type":"uint256"},{"indexed":false,"internalType":"uint256","name":"amountIn","type":"uint256"}],"name":"QuoteReceived","type":"event"},{"anonymous":false,"inputs":[{"indexed":true,"internalType":"bytes32","name":"role","type":"bytes32"},{"indexed":true,"internalType":"bytes32","name":"previousAdminRole","type":"bytes32"},{"indexed":true,"internalType":"bytes32","name":"newAdminRole","type":"bytes32"}],"name":"RoleAdminChanged","type":"event"},{"anonymous":false,"inputs":[{"indexed":true,"internalType":"bytes32","name":"role","type":"bytes32"},{"indexed":true,"internalType":"address","name":"account","type":"address"},{"indexed":true,"internalType":"address","name":"sender","type":"address"}],"name":"RoleGranted","type":"event"},{"anonymous":false,"inputs":[{"indexed":true,"internalType":"bytes32","name":"role","type":"bytes32"},{"indexed":true,"internalType":"address","name":"account","type":"address"},{"indexed":true,"internalType":"address","name":"sender","type":"address"}],"name":"RoleRevoked","type":"event"},{"anonymous":false,"inputs":[{"indexed":true,"internalType":"address","name":"src","type":"address"},{"indexed":true,"internalType":"address","name":"dst","type":"address"},{"indexed":true,"internalType":"uint256","name":"amountIn","type":"uint256"}],"name":"SwapPerformed","type":"event"},{"anonymous":false,"inputs":[{"indexed":true,"internalType":"bytes","name":"swapCalldata","type":"bytes"}],"name":"SwapRegistered","type":"event"},{"inputs":[],"name":"DEFAULT_ADMIN_ROLE","outputs":[{"internalType":"bytes32","name":"","type":"bytes32"}],"stateMutability":"view","type":"function"},{"inputs":[],"name":"ONE_INCH_ETH_ADDRESS","outputs":[{"internalType":"address","name":"","type":"address"}],"stateMutability":"view","type":"function"},{"inputs":[],"name":"STRATEGIST_ROLE","outputs":[{"internalType":"bytes32","name":"","type":"bytes32"}],"stateMutability":"view","type":"function"},{"inputs":[],"name":"SWAP_AUTHORIZED_ROLE","outputs":[{"internalType":"bytes32","name":"","type":"bytes32"}],"stateMutability":"view","type":"function"},{"inputs":[{"internalType":"address","name":"subscriber","type":"address"}],"name":"addSubscriber","outputs":[],"stateMutability":"nonpayable","type":"function"},{"inputs":[],"name":"aggregationRouter","outputs":[{"internalType":"address","name":"","type":"address"}],"stateMutability":"view","type":"function"},{"inputs":[{"internalType":"bytes32","name":"requestId","type":"bytes32"},{"internalType":"uint256","name":"toAmount","type":"uint256"}],"name":"fulfillQuoteRequest","outputs":[],"stateMutability":"nonpayable","type":"function"},{"inputs":[],"name":"fulfillSwap","outputs":[],"stateMutability":"nonpayable","type":"function"},{"inputs":[],"name":"getFeeInHundredthsOfLink","outputs":[{"internalType":"uint256","name":"","type":"uint256"}],"stateMutability":"view","type":"function"},{"inputs":[],"name":"getJobId","outputs":[{"internalType":"string","name":"","type":"string"}],"stateMutability":"view","type":"function"},{"inputs":[],"name":"getOracleAddress","outputs":[{"internalType":"address","name":"","type":"address"}],"stateMutability":"view","type":"function"},{"inputs":[{"internalType":"bytes32","name":"role","type":"bytes32"}],"name":"getRoleAdmin","outputs":[{"internalType":"bytes32","name":"","type":"bytes32"}],"stateMutability":"view","type":"function"},{"inputs":[{"internalType":"bytes32","name":"role","type":"bytes32"},{"internalType":"address","name":"account","type":"address"}],"name":"grantRole","outputs":[],"stateMutability":"nonpayable","type":"function"},{"inputs":[{"internalType":"bytes32","name":"role","type":"bytes32"},{"internalType":"address","name":"account","type":"address"}],"name":"hasRole","outputs":[{"internalType":"bool","name":"","type":"bool"}],"stateMutability":"view","type":"function"},{"inputs":[],"name":"isReadyToFulfillSwap","outputs":[{"internalType":"bool","name":"","type":"bool"}],"stateMutability":"view","type":"function"},{"inputs":[],"name":"lastQuotedDstToken","outputs":[{"internalType":"address","name":"","type":"address"}],"stateMutability":"view","type":"function"},{"inputs":[],"name":"lastQuotedSrcToken","outputs":[{"internalType":"address","name":"","type":"address"}],"stateMutability":"view","type":"function"},{"inputs":[],"name":"lastQuotedSrcTokenAmount","outputs":[{"internalType":"uint256","name":"","type":"uint256"}],"stateMutability":"view","type":"function"},{"inputs":[],"name":"lastSwapDstToken","outputs":[{"internalType":"address","name":"","type":"address"}],"stateMutability":"view","type":"function"},{"inputs":[],"name":"lastSwapSrcToken","outputs":[{"internalType":"address","name":"","type":"address"}],"stateMutability":"view","type":"function"},{"inputs":[],"name":"lastSwapSrcTokenAmount","outputs":[{"internalType":"uint256","name":"","type":"uint256"}],"stateMutability":"view","type":"function"},{"inputs":[{"internalType":"bytes32","name":"requestId","type":"bytes32"},{"internalType":"bytes","name":"swapCalldata","type":"bytes"}],"name":"registerSwapCalldata","outputs":[],"stateMutability":"nonpayable","type":"function"},{"inputs":[{"internalType":"address","name":"subscriber","type":"address"}],"name":"removeSubscriber","outputs":[],"stateMutability":"nonpayable","type":"function"},{"inputs":[{"internalType":"bytes32","name":"role","type":"bytes32"},{"internalType":"address","name":"account","type":"address"}],"name":"renounceRole","outputs":[],"stateMutability":"nonpayable","type":"function"},{"inputs":[{"internalType":"address","name":"src","type":"address"},{"internalType":"address","name":"dst","type":"address"},{"internalType":"uint256","name":"amount","type":"uint256"}],"name":"requestQuote","outputs":[],"stateMutability":"nonpayable","type":"function"},{"inputs":[{"internalType":"address","name":"src","type":"address"},{"internalType":"address","name":"dst","type":"address"},{"internalType":"uint256","name":"amount","type":"uint256"},{"internalType":"uint8","name":"slippage","type":"uint8"}],"name":"requestSwap","outputs":[],"stateMutability":"payable","type":"function"},{"inputs":[{"internalType":"bytes32","name":"role","type":"bytes32"},{"internalType":"address","name":"account","type":"address"}],"name":"revokeRole","outputs":[],"stateMutability":"nonpayable","type":"function"},{"inputs":[{"internalType":"uint256","name":"_feeInHundredthsOfLink","type":"uint256"}],"name":"setFeeInHundredthsOfLink","outputs":[],"stateMutability":"nonpayable","type":"function"},{"inputs":[{"internalType":"uint256","name":"_feeInJuels","type":"uint256"}],"name":"setFeeInJuels","outputs":[],"stateMutability":"nonpayable","type":"function"},{"inputs":[{"internalType":"string","name":"_jobId","type":"string"}],"name":"setJobId","outputs":[],"stateMutability":"nonpayable","type":"function"},{"inputs":[{"internalType":"address","name":"_oracleAddress","type":"address"}],"name":"setOracleAddress","outputs":[],"stateMutability":"nonpayable","type":"function"},{"inputs":[{"internalType":"uint256","name":"subscriberIdx","type":"uint256"}],"name":"subscriberAt","outputs":[{"internalType":"address","name":"","type":"address"}],"stateMutability":"view","type":"function"},{"inputs":[],"name":"subscribersLength","outputs":[{"internalType":"uint256","name":"","type":"uint256"}],"stateMutability":"view","type":"function"},{"inputs":[{"internalType":"bytes4","name":"interfaceId","type":"bytes4"}],"name":"supportsInterface","outputs":[{"internalType":"bool","name":"","type":"bool"}],"stateMutability":"view","type":"function"},{"inputs":[],"name":"withdrawLink","outputs":[],"stateMutability":"nonpayable","type":"function"},{"stateMutability":"payable","type":"receive"}],"devdoc":{"events":{"RoleAdminChanged(bytes32,bytes32,bytes32)":{"details":"Emitted when `newAdminRole` is set as ``role``'s admin role, replacing `previousAdminRole` `DEFAULT_ADMIN_ROLE` is the starting admin for all roles, despite {RoleAdminChanged} not being emitted signaling this. _Available since v3.1._"},"RoleGranted(bytes32,address,address)":{"details":"Emitted when `account` is granted `role`. `sender` is the account that originated the contract call, an admin role bearer except when using {AccessControl-_setupRole}."},"RoleRevoked(bytes32,address,address)":{"details":"Emitted when `account` is revoked `role`. `sender` is the account that originated the contract call:   - if using `revokeRole`, it is the admin role bearer   - if using `renounceRole`, it is the role bearer (i.e. `account`)"}},"kind":"dev","methods":{"getRoleAdmin(bytes32)":{"details":"Returns the admin role that controls `role`. See {grantRole} and {revokeRole}. To change a role's admin, use {_setRoleAdmin}."},"grantRole(bytes32,address)":{"details":"Grants `role` to `account`. If `account` had not been already granted `role`, emits a {RoleGranted} event. Requirements: - the caller must have ``role``'s admin role. May emit a {RoleGranted} event."},"hasRole(bytes32,address)":{"details":"Returns `true` if `account` has been granted `role`."},"renounceRole(bytes32,address)":{"details":"Revokes `role` from the calling account. Roles are often managed via {grantRole} and {revokeRole}: this function's purpose is to provide a mechanism for accounts to lose their privileges if they are compromised (such as when a trusted device is misplaced). If the calling account had been revoked `role`, emits a {RoleRevoked} event. Requirements: - the caller must be `account`. May emit a {RoleRevoked} event."},"revokeRole(bytes32,address)":{"details":"Revokes `role` from `account`. If `account` had been granted `role`, emits a {RoleRevoked} event. Requirements: - the caller must have ``role``'s admin role. May emit a {RoleRevoked} event."},"supportsInterface(bytes4)":{"details":"See {IERC165-supportsInterface}."}},"version":1},"evm":{"bytecode":{"linkReferences":{},"object":"60a060405260016005553480156200001657600080fd5b5060405162003a4738038062003a47833981016040819052620000399162000620565b6200005460008051602062003a278339815191528762000121565b600380546001600160a01b0319166001600160a01b0386161790556200007a83620001aa565b6200008582620001f4565b620000908762000221565b6001600160a01b03851660805260005b81518160ff1610156200011357620000fe7ffab00a984754950c7187fb98f39da0ae224abbbee017c1699445ad0e19474a4d838360ff1681518110620000ea57620000ea6200073b565b60200260200101516200012160201b60201c565b806200010a8162000767565b915050620000a0565b5050505050505050620008cc565b6200012d828262000268565b620001a6576000828152602081815260408083206001600160a01b03851684529091529020805460ff19166001179055620001653390565b6001600160a01b0316816001600160a01b0316837f2f8788117e7eff1d82e926ec794901d17c78024a50270940304540a733656f0d60405160405180910390a45b5050565b60008051602062003a27833981519152620001c58162000293565b600780546001600160a01b0384166001600160a01b031991821681179092556004805490911690911790555050565b60008051602062003a278339815191526200020f8162000293565b6200021a8262000789565b6008555050565b60008051602062003a278339815191526200023c8162000293565b620001a6606462000256670de0b6b3a764000085620007b1565b620002629190620007cb565b620002a2565b6000828152602081815260408083206001600160a01b038516845290915290205460ff165b92915050565b6200029f8133620002c3565b50565b60008051602062003a27833981519152620002bd8162000293565b50600955565b620002cf828262000268565b620001a657620002df8162000330565b620002ec83602062000343565b604051602001620002ff929190620007ee565b60408051601f198184030181529082905262461bcd60e51b8252620003279160040162000867565b60405180910390fd5b60606200028d6001600160a01b03831660145b6060600062000354836002620007b1565b620003619060026200089c565b6001600160401b038111156200037b576200037b62000520565b6040519080825280601f01601f191660200182016040528015620003a6576020820181803683370190505b509050600360fc1b81600081518110620003c457620003c46200073b565b60200101906001600160f81b031916908160001a905350600f60fb1b81600181518110620003f657620003f66200073b565b60200101906001600160f81b031916908160001a90535060006200041c846002620007b1565b620004299060016200089c565b90505b6001811115620004ab576f181899199a1a9b1b9c1cb0b131b232b360811b85600f16601081106200046157620004616200073b565b1a60f81b8282815181106200047a576200047a6200073b565b60200101906001600160f81b031916908160001a90535060049490941c93620004a381620008b2565b90506200042c565b508315620004fc5760405162461bcd60e51b815260206004820181905260248201527f537472696e67733a20686578206c656e67746820696e73756666696369656e74604482015260640162000327565b9392505050565b80516001600160a01b03811681146200051b57600080fd5b919050565b634e487b7160e01b600052604160045260246000fd5b604051601f8201601f191681016001600160401b038111828210171562000561576200056162000520565b604052919050565b60005b83811015620005865781810151838201526020016200056c565b50506000910152565b600082601f830112620005a157600080fd5b815160206001600160401b03821115620005bf57620005bf62000520565b8160051b620005d082820162000536565b9283528481018201928281019087851115620005eb57600080fd5b83870192505b848310156200061557620006058362000503565b82529183019190830190620005f1565b979650505050505050565b600080600080600080600060e0888a0312156200063c57600080fd5b875196506200064e6020890162000503565b95506200065e6040890162000503565b94506200066e6060890162000503565b93506200067e6080890162000503565b60a08901519093506001600160401b03808211156200069c57600080fd5b818a0191508a601f830112620006b157600080fd5b815181811115620006c657620006c662000520565b620006db601f8201601f191660200162000536565b8181528c6020838601011115620006f157600080fd5b6200070482602083016020870162000569565b60c08c0151909550925050808211156200071d57600080fd5b506200072c8a828b016200058f565b91505092959891949750929550565b634e487b7160e01b600052603260045260246000fd5b634e487b7160e01b600052601160045260246000fd5b600060ff821660ff810362000780576200078062000751565b60010192915050565b80516020808301519190811015620007ab576000198160200360031b1b821691505b50919050565b80820281158282048414176200028d576200028d62000751565b600082620007e957634e487b7160e01b600052601260045260246000fd5b500490565b7f416363657373436f6e74726f6c3a206163636f756e74200000000000000000008152600083516200082881601785016020880162000569565b7001034b99036b4b9b9b4b733903937b6329607d1b60179184019182015283516200085b81602884016020880162000569565b01602801949350505050565b60208152600082518060208401526200088881604085016020870162000569565b601f01601f19169190910160400192915050565b808201808211156200028d576200028d62000751565b600081620008c457620008c462000751565b506000190190565b60805161311562000912600039600081816105cd01528181610fb001528181611071015281816111c70152818161125a015281816112f5015261138801526131156000f3fe6080604052600436106101985760003560e01c806301ffc9a7146101a457806302458ad8146101d9578063129fc1c0146101fb5780631a5b42071461021b578063248a9ca31461023b578063271e390a146102695780632f2ff15d1461029657806336568abe146102b65780633662dd35146102d657806336868f0e146102ec578063459c75d81461030c5780634c69c00f1461032c5780634e0c61331461034c578063562376821461036e578063627c34ad1461038357806366b8455b146103a35780636ccf5b01146103b85780638dc654a2146103d857806391d14854146103ed57806394555d1a1461040d578063a217fddf1461042d578063a378a32414610442578063aaeafd5614610464578063b02f7fe01461048c578063b18b78dd146104ae578063b56269a0146104c3578063c02e5bc7146104d9578063c0d2e37f146104f9578063c87457db14610513578063d547741f14610533578063e3da201d14610553578063eaad47b214610573578063f09922ff14610588578063f34473a51461059b578063fcdfd946146105bb57600080fd5b3661019f57005b600080fd5b3480156101b057600080fd5b506101c46101bf366004612627565b6105ef565b60405190151581526020015b60405180910390f35b3480156101e557600080fd5b506101f96101f43660046126dc565b610626565b005b34801561020757600080fd5b506101f9610216366004612736565b6106f5565b34801561022757600080fd5b506101f961023636600461279a565b61071d565b34801561024757600080fd5b5061025b6102563660046127d6565b610977565b6040519081526020016101d0565b34801561027557600080fd5b50600d54610289906001600160a01b031681565b6040516101d091906127ef565b3480156102a257600080fd5b506101f96102b1366004612803565b61098c565b3480156102c257600080fd5b506101f96102d1366004612803565b6109ad565b3480156102e257600080fd5b5061025b600c5481565b3480156102f857600080fd5b50600e54610289906001600160a01b031681565b34801561031857600080fd5b506101f961032736600461282f565b610a2b565b34801561033857600080fd5b506101f9610347366004612851565b610b96565b34801561035857600080fd5b5061025b6000805160206130c083398151915281565b34801561037a57600080fd5b5061025b610bdc565b34801561038f57600080fd5b506101f961039e366004612851565b610c1e565b3480156103af57600080fd5b5061025b610c5e565b3480156103c457600080fd5b506102896103d33660046127d6565b610c6f565b3480156103e457600080fd5b506101f9610c7c565b3480156103f957600080fd5b506101c4610408366004612803565b610da4565b34801561041957600080fd5b506101f9610428366004612851565b610dcd565b34801561043957600080fd5b5061025b600081565b34801561044e57600080fd5b5061025b60008051602061308083398151915281565b34801561047057600080fd5b5061028973eeeeeeeeeeeeeeeeeeeeeeeeeeeeeeeeeeeeeeee81565b34801561049857600080fd5b506104a1610e0d565b6040516101d091906128bc565b3480156104ba57600080fd5b50610289610e51565b3480156104cf57600080fd5b5061025b600f5481565b3480156104e557600080fd5b50600b54610289906001600160a01b031681565b34801561050557600080fd5b506010546101c49060ff1681565b34801561051f57600080fd5b50600a54610289906001600160a01b031681565b34801561053f57600080fd5b506101f961054e366004612803565b610e7c565b34801561055f57600080fd5b506101f961056e3660046127d6565b610e98565b34801561057f57600080fd5b506101f9610eb6565b6101f96105963660046128cf565b6110f8565b3480156105a757600080fd5b506101f96105b63660046127d6565b611647565b3480156105c757600080fd5b506102897f000000000000000000000000000000000000000000000000000000000000000081565b60006001600160e01b03198216637965db0b60e01b148061062057506301ffc9a760e01b6001600160e01b03198316145b92915050565b60008281526006602052604090205482906001600160a01b031633146106675760405162461bcd60e51b815260040161065e90612924565b60405180910390fd5b60008181526006602052604080822080546001600160a01b03191690555182916000805160206130a083398151915291a260116106a483826129e6565b506010805460ff191660011790556040516106c0908390612ac1565b604051908190038120907fa6b78fc047486d5add927aa53ba0d4fc8eb23a5811e0052aebeba21469f51df890600090a2505050565b60008051602061308083398151915261070d81611680565b61071682612add565b6008555050565b6000805160206130c083398151915261073581611680565b600061074a60085463459c75d860e01b61168d565b905061079a604051806040016040528060068152602001651b595d1a1bd960d21b8152506040518060400160405280600381526020016211d15560ea1b815250836116b19092919063ffffffff16565b6107fe604051806040016040528060038152602001621d5c9b60ea1b8152506107c2876116cf565b6107cb876116cf565b6107d4876116e5565b6040516020016107e693929190612b01565b60408051601f198184030181529190528391906116b1565b610842604051806040016040528060078152602001666865616465727360c81b815250604051806080016040528060468152602001612ff1604691398391906116b1565b61088260405180604001604052806004815260200163626f647960e01b81525060405180602001604052806000815250836116b19092919063ffffffff16565b6108db6040518060400160405280600781526020016618dbdb9d1858dd60ca1b8152506040518060400160405280600d81526020016c6c6f6375732d66696e616e636560981b815250836116b19092919063ffffffff16565b61092c604051806040016040528060048152602001630e0c2e8d60e31b815250604051806040016040528060088152602001671d1bd05b5bdd5b9d60c21b815250836116b19092919063ffffffff16565b600a80546001600160a01b038088166001600160a01b031992831617909255600b805492871692909116919091179055600c83905560095461096f908290611777565b505050505050565b60009081526020819052604090206001015490565b61099582610977565b61099e81611680565b6109a88383611798565b505050565b6001600160a01b0381163314610a1d5760405162461bcd60e51b815260206004820152602f60248201527f416363657373436f6e74726f6c3a2063616e206f6e6c792072656e6f756e636560448201526e103937b632b9903337b91039b2b63360891b606482015260840161065e565b610a27828261181c565b5050565b60008281526006602052604090205482906001600160a01b03163314610a635760405162461bcd60e51b815260040161065e90612924565b60008181526006602052604080822080546001600160a01b03191690555182916000805160206130a083398151915291a26000610aa06012611881565b905060005b81811015610b4357610ab860128261188b565b600a54600b54600c5460405163b91dc4bb60e01b81526001600160a01b039384166004820152918316602483015260448201889052606482015291169063b91dc4bb90608401600060405180830381600087803b158015610b1857600080fd5b505af1158015610b2c573d6000803e3d6000fd5b505050508080610b3b90612bad565b915050610aa5565b50600b54600a54600c5460405190815285926001600160a01b039081169216907fc6ef891de9793cb5acefea4d38d25452da06c1b8a922180eeb0f324523b326a09060200160405180910390a450505050565b600080516020613080833981519152610bae81611680565b50600780546001600160a01b03929092166001600160a01b0319928316811790915560048054909216179055565b6000600080516020613080833981519152610bf681611680565b670de0b6b3a76400006009546064610c0e9190612bc6565b610c189190612bf3565b91505090565b600080516020613080833981519152610c3681611680565b610c41601283611897565b610a27576040516306e971bb60e31b815260040160405180910390fd5b6000610c6a6012611881565b905090565b600061062060128361188b565b600080516020613080833981519152610c9481611680565b6000610ca86003546001600160a01b031690565b90506001600160a01b03811663a9059cbb336040516370a0823160e01b81526001600160a01b038516906370a0823190610ce69030906004016127ef565b602060405180830381865afa158015610d03573d6000803e3d6000fd5b505050506040513d601f19601f82011682018060405250810190610d279190612c07565b6040518363ffffffff1660e01b8152600401610d44929190612c20565b6020604051808303816000875af1158015610d63573d6000803e3d6000fd5b505050506040513d601f19601f82011682018060405250810190610d879190612c39565b610a27576040516313ff771f60e21b815260040160405180910390fd5b6000918252602082815260408084206001600160a01b0393909316845291905290205460ff1690565b600080516020613080833981519152610de581611680565b610df06012836118ac565b610a27576040516305c46f6760e31b815260040160405180910390fd5b6060600080516020613080833981519152610e2781611680565b600854604051602001610e3c91815260200190565b60405160208183030381529060405291505090565b6000600080516020613080833981519152610e6b81611680565b50506007546001600160a01b031690565b610e8582610977565b610e8e81611680565b6109a8838361181c565b600080516020613080833981519152610eb081611680565b50600955565b600080516020613080833981519152610ece81611680565b60105460ff16610ef157604051637d683d5360e01b815260040160405180910390fd5b600d546001600160a01b031673eeeeeeeeeeeeeeeeeeeeeeeeeeeeeeeeeeeeeeed1901610fe157610fdb60118054610f289061296c565b80601f0160208091040260200160405190810160405280929190818152602001828054610f549061296c565b8015610fa15780601f10610f7657610100808354040283529160200191610fa1565b820191906000526020600020905b815481529060010190602001808311610f8457829003601f168201915b5050600f546001600160a01b037f0000000000000000000000000000000000000000000000000000000000000000169493509150506118c1565b506110a9565b6110a760118054610ff19061296c565b80601f016020809104026020016040519081016040528092919081815260200182805461101d9061296c565b801561106a5780601f1061103f5761010080835404028352916020019161106a565b820191906000526020600020905b81548152906001019060200180831161104d57829003601f168201915b50505050507f00000000000000000000000000000000000000000000000000000000000000006001600160a01b03166118e790919063ffffffff16565b505b600f54600e54600d546040516001600160a01b0392831692909116907fe8a8f43c967965902142e0f7bd4b7b3c55fc5b1a0df5e84fa8ded5cafe92770690600090a4506010805460ff19169055565b6000805160206130c083398151915261111081611680565b60328260ff161115611135576040516336ee37fb60e21b815260040160405180910390fd5b6001600160a01b03851673eeeeeeeeeeeeeeeeeeeeeeeeeeeeeeeeeeeeeeee14801561116057503483105b1561117e57604051630dd86f5360e11b815260040160405180910390fd5b6010805460ff19169055338561119f6001600160a01b03821683308861192b565b604051636eb1769f60e11b815285906001600160a01b0383169063dd62ed3e906111ef9030907f000000000000000000000000000000000000000000000000000000000000000090600401612c5b565b602060405180830381865afa15801561120c573d6000803e3d6000fd5b505050506040513d601f19601f820116820180604052508101906112309190612c07565b10156112cb5760405163095ea7b360e01b81526001600160a01b0382169063095ea7b390611286907f00000000000000000000000000000000000000000000000000000000000000009060001990600401612c20565b6020604051808303816000875af11580156112a5573d6000803e3d6000fd5b505050506040513d601f19601f820116820180604052508101906112c99190612c39565b505b604051636eb1769f60e11b8152879086906001600160a01b0383169063dd62ed3e9061131d9030907f000000000000000000000000000000000000000000000000000000000000000090600401612c5b565b602060405180830381865afa15801561133a573d6000803e3d6000fd5b505050506040513d601f19601f8201168201806040525081019061135e9190612c07565b10156113f95760405163095ea7b360e01b81526001600160a01b0382169063095ea7b3906113b4907f00000000000000000000000000000000000000000000000000000000000000009060001990600401612c20565b6020604051808303816000875af11580156113d3573d6000803e3d6000fd5b505050506040513d601f19601f820116820180604052508101906113f79190612c39565b505b600061140e6008546302458ad860e01b61168d565b905061145e604051806040016040528060068152602001651b595d1a1bd960d21b8152506040518060400160405280600381526020016211d15560ea1b815250836116b19092919063ffffffff16565b6114cb604051806040016040528060038152602001621d5c9b60ea1b8152506114868b6116cf565b61148f8b6116cf565b6114988b6116e5565b6114a1306116cf565b6114ad8c60ff166116e5565b6114b68b6116cf565b6040516020016107e696959493929190612c75565b61150f604051806040016040528060078152602001666865616465727360c81b815250604051806080016040528060468152602001612ff1604691398391906116b1565b61154f60405180604001604052806004815260200163626f647960e01b81525060405180602001604052806000815250836116b19092919063ffffffff16565b6115a86040518060400160405280600781526020016618dbdb9d1858dd60ca1b8152506040518060400160405280600d81526020016c6c6f6375732d66696e616e636560981b815250836116b19092919063ffffffff16565b6115f8604051806040016040528060048152602001630e0c2e8d60e31b8152506040518060400160405280600781526020016674782c6461746160c81b815250836116b19092919063ffffffff16565b600d80546001600160a01b03808c166001600160a01b031992831617909255600e8054928b1692909116919091179055600f87905560095461163b908290611777565b50505050505050505050565b60008051602061308083398151915261165f81611680565b610a276064611676670de0b6b3a764000085612bc6565b61056e9190612bf3565b61168a813361198b565b50565b6116956125d8565b61169d6125d8565b6116a9818530866119e4565b949350505050565b60808301516116c09083611a21565b60808301516109a89082611a21565b60606106206001600160a01b0383166014611a38565b606060006116f283611bd3565b60010190506000816001600160401b0381111561171157611711612651565b6040519080825280601f01601f19166020018201604052801561173b576020820181803683370190505b5090508181016020015b600019016f181899199a1a9b1b9c1cb0b131b232b360811b600a86061a8153600a850494508461174557509392505050565b600454600090611791906001600160a01b03168484611ca9565b9392505050565b6117a28282610da4565b610a27576000828152602081815260408083206001600160a01b03851684529091529020805460ff191660011790556117d83390565b6001600160a01b0316816001600160a01b0316837f2f8788117e7eff1d82e926ec794901d17c78024a50270940304540a733656f0d60405160405180910390a45050565b6118268282610da4565b15610a27576000828152602081815260408083206001600160a01b0385168085529252808320805460ff1916905551339285917ff6391f5c32d9c69d2a47ea670b442974b53935d1edc7fd64eb21e047a839171b9190a45050565b6000610620825490565b60006117918383611d3a565b6000611791836001600160a01b038416611d64565b6000611791836001600160a01b038416611e57565b60606116a984848460405180606001604052806029815260200161303760299139611ea6565b6060611791838360006040518060400160405280601e81526020017f416464726573733a206c6f772d6c6576656c2063616c6c206661696c65640000815250611ea6565b604080516001600160a01b0385811660248301528416604482015260648082018490528251808303909101815260849091019091526020810180516001600160e01b03166323b872dd60e01b179052611985908590611f81565b50505050565b6119958282610da4565b610a27576119a2816116cf565b6119ad836020611a38565b6040516020016119be929190612d9c565b60408051601f198184030181529082905262461bcd60e51b825261065e916004016128bc565b6119ec6125d8565b6119fc8560800151610100612056565b50509183526001600160a01b031660208301526001600160e01b031916604082015290565b611a2e82600383516120ae565b6109a882826121b5565b60606000611a47836002612bc6565b611a52906002612e0b565b6001600160401b03811115611a6957611a69612651565b6040519080825280601f01601f191660200182016040528015611a93576020820181803683370190505b509050600360fc1b81600081518110611aae57611aae612e1e565b60200101906001600160f81b031916908160001a905350600f60fb1b81600181518110611add57611add612e1e565b60200101906001600160f81b031916908160001a9053506000611b01846002612bc6565b611b0c906001612e0b565b90505b6001811115611b84576f181899199a1a9b1b9c1cb0b131b232b360811b85600f1660108110611b4057611b40612e1e565b1a60f81b828281518110611b5657611b56612e1e565b60200101906001600160f81b031916908160001a90535060049490941c93611b7d81612e34565b9050611b0f565b5083156117915760405162461bcd60e51b815260206004820181905260248201527f537472696e67733a20686578206c656e67746820696e73756666696369656e74604482015260640161065e565b60008072184f03e93ff9f4daa797ed6e38ed64bf6a1f0160401b8310611c125772184f03e93ff9f4daa797ed6e38ed64bf6a1f0160401b830492506040015b6904ee2d6d415b85acef8160201b8310611c3c576904ee2d6d415b85acef8160201b830492506020015b662386f26fc100008310611c5a57662386f26fc10000830492506010015b6305f5e1008310611c72576305f5e100830492506008015b6127108310611c8657612710830492506004015b60648310611c98576064830492506002015b600a83106106205760010192915050565b600554600090611cba816001612e0b565b60055583516040808601516080870151519151600093633c6d41b960e01b93611cf0938693849392899160029190602401612e4b565b60408051601f198184030181529190526020810180516001600160e01b03166001600160e01b0319909316929092179091529050611d30868386846121cf565b9695505050505050565b6000826000018281548110611d5157611d51612e1e565b9060005260206000200154905092915050565b60008181526001830160205260408120548015611e4d576000611d88600183612e93565b8554909150600090611d9c90600190612e93565b9050818114611e01576000866000018281548110611dbc57611dbc612e1e565b9060005260206000200154905080876000018481548110611ddf57611ddf612e1e565b6000918252602080832090910192909255918252600188019052604090208390555b8554869080611e1257611e12612ea6565b600190038181906000526020600020016000905590558560010160008681526020019081526020016000206000905560019350505050610620565b6000915050610620565b6000818152600183016020526040812054611e9e57508154600181810184556000848152602080822090930184905584548482528286019093526040902091909155610620565b506000610620565b606082471015611f075760405162461bcd60e51b815260206004820152602660248201527f416464726573733a20696e73756666696369656e742062616c616e636520666f6044820152651c8818d85b1b60d21b606482015260840161065e565b600080866001600160a01b03168587604051611f239190612ac1565b60006040518083038185875af1925050503d8060008114611f60576040519150601f19603f3d011682016040523d82523d6000602084013e611f65565b606091505b5091509150611f7687838387612328565b979650505050505050565b6000611fd6826040518060400160405280602081526020017f5361666545524332303a206c6f772d6c6576656c2063616c6c206661696c6564815250856001600160a01b03166123a19092919063ffffffff16565b9050805160001480611ff7575080806020019051810190611ff79190612c39565b6109a85760405162461bcd60e51b815260206004820152602a60248201527f5361666545524332303a204552433230206f7065726174696f6e20646964206e6044820152691bdd081cdd58d8d9595960b21b606482015260840161065e565b61205e61260d565b612069602083612ebc565b1561209157612079602083612ebc565b612084906020612e93565b61208e9083612e0b565b91505b506020828101829052604080518085526000815290920101905290565b6017816001600160401b0316116120d2576119858360e0600585901b1683176123b0565b60ff816001600160401b03161161210e576120f8836018611fe0600586901b16176123b0565b50611985836001600160401b03831660016123c8565b61ffff816001600160401b03161161214b57612135836019611fe0600586901b16176123b0565b50611985836001600160401b03831660026123c8565b63ffffffff816001600160401b03161161218a5761217483601a611fe0600586901b16176123b0565b50611985836001600160401b03831660046123c8565b61219f83601b611fe0600586901b16176123b0565b50611985836001600160401b03831660086123c8565b6121bd61260d565b611791838460000151518485516123e1565b6040516001600160601b03193060601b1660208201526034810184905260009060540160408051808303601f1901815282825280516020918201206000818152600690925291812080546001600160a01b0319166001600160a01b038a1617905590925082917fb5e6e01e79f91267dc17b4e6314d5d4d03593d2ceee0fbb452b750bd70ea5af99190a2600354604051630200057560e51b81526001600160a01b0390911690634000aea09061228d90889087908790600401612ed0565b6020604051808303816000875af11580156122ac573d6000803e3d6000fd5b505050506040513d601f19601f820116820180604052508101906122d09190612c39565b6116a95760405162461bcd60e51b815260206004820152602360248201527f756e61626c6520746f207472616e73666572416e6443616c6c20746f206f7261604482015262636c6560e81b606482015260840161065e565b60608315612397578251600003612390576001600160a01b0385163b6123905760405162461bcd60e51b815260206004820152601d60248201527f416464726573733a2063616c6c20746f206e6f6e2d636f6e7472616374000000604482015260640161065e565b50816116a9565b6116a983836124be565b60606116a98484600085611ea6565b6123b861260d565b61179183846000015151846124e8565b6123d061260d565b6116a9848560000151518585612536565b6123e961260d565b82518211156123f757600080fd5b60208501516124068386612e0b565b11156124395761243985612429876020015187866124249190612e0b565b6125aa565b612434906002612bc6565b6125c1565b6000808651805187602083010193508088870111156124585787860182525b505050602084015b602084106124985780518252612477602083612e0b565b9150612484602082612e0b565b9050612491602085612e93565b9350612460565b51815160001960208690036101000a019081169019919091161790525083949350505050565b8151156124ce5781518083602001fd5b8060405162461bcd60e51b815260040161065e91906128bc565b6124f061260d565b836020015183106125105761251084856020015160026124349190612bc6565b835180516020858301018481535080850361252c576001810182525b5093949350505050565b61253e61260d565b602085015161254d8584612e0b565b111561256157612561856124298685612e0b565b6000600161257184610100612fe4565b61257b9190612e93565b905085518386820101858319825116178152508051848701111561259f5783860181525b509495945050505050565b6000818311156125bb575081610620565b50919050565b81516125cd8383612056565b5061198583826121b5565b6040805160a08101825260008082526020820181905291810182905260608101919091526080810161260861260d565b905290565b604051806040016040528060608152602001600081525090565b60006020828403121561263957600080fd5b81356001600160e01b03198116811461179157600080fd5b634e487b7160e01b600052604160045260246000fd5b60006001600160401b038084111561268157612681612651565b604051601f8501601f19908116603f011681019082821181831017156126a9576126a9612651565b816040528093508581528686860111156126c257600080fd5b858560208301376000602087830101525050509392505050565b600080604083850312156126ef57600080fd5b8235915060208301356001600160401b0381111561270c57600080fd5b8301601f8101851361271d57600080fd5b61272c85823560208401612667565b9150509250929050565b60006020828403121561274857600080fd5b81356001600160401b0381111561275e57600080fd5b8201601f8101841361276f57600080fd5b6116a984823560208401612667565b80356001600160a01b038116811461279557600080fd5b919050565b6000806000606084860312156127af57600080fd5b6127b88461277e565b92506127c66020850161277e565b9150604084013590509250925092565b6000602082840312156127e857600080fd5b5035919050565b6001600160a01b0391909116815260200190565b6000806040838503121561281657600080fd5b823591506128266020840161277e565b90509250929050565b6000806040838503121561284257600080fd5b50508035926020909101359150565b60006020828403121561286357600080fd5b6117918261277e565b60005b8381101561288757818101518382015260200161286f565b50506000910152565b600081518084526128a881602086016020860161286c565b601f01601f19169290920160200192915050565b6020815260006117916020830184612890565b600080600080608085870312156128e557600080fd5b6128ee8561277e565b93506128fc6020860161277e565b925060408501359150606085013560ff8116811461291957600080fd5b939692955090935050565b60208082526028908201527f536f75726365206d75737420626520746865206f7261636c65206f6620746865604082015267081c995c5d595cdd60c21b606082015260800190565b600181811c9082168061298057607f821691505b6020821081036125bb57634e487b7160e01b600052602260045260246000fd5b601f8211156109a857600081815260208120601f850160051c810160208610156129c75750805b601f850160051c820191505b8181101561096f578281556001016129d3565b81516001600160401b038111156129ff576129ff612651565b612a1381612a0d845461296c565b846129a0565b602080601f831160018114612a485760008415612a305750858301515b600019600386901b1c1916600185901b17855561096f565b600085815260208120601f198616915b82811015612a7757888601518255948401946001909101908401612a58565b5085821015612a955787850151600019600388901b60f8161c191681555b5050505050600190811b01905550565b60008151612ab781856020860161286c565b9290920192915050565b60008251612ad381846020870161286c565b9190910192915050565b805160208083015191908110156125bb5760001960209190910360031b1b16919050565b60008051602061306083398151915281526b312f71756f74653f7372633d60a01b602082015260008451612b3c81602c85016020890161286c565b64266473743d60d81b602c918401918201528451612b6181603184016020890161286c565b6726616d6f756e743d60c01b603192909101918201528351612b8a81603984016020880161286c565b0160390195945050505050565b634e487b7160e01b600052601160045260246000fd5b600060018201612bbf57612bbf612b97565b5060010190565b808202811582820484141761062057610620612b97565b634e487b7160e01b600052601260045260246000fd5b600082612c0257612c02612bdd565b500490565b600060208284031215612c1957600080fd5b5051919050565b6001600160a01b03929092168252602082015260400190565b600060208284031215612c4b57600080fd5b8151801515811461179157600080fd5b6001600160a01b0392831681529116602082015260400190565b60008051602061306083398151915281526a312f737761703f7372633d60a81b602082015260008751612caf81602b850160208c0161286c565b64266473743d60d81b602b918401918201528751612cd4816030840160208c0161286c565b6726616d6f756e743d60c01b603092909101918201528651612cfd816038840160208b0161286c565b652666726f6d3d60d01b603892909101918201528551612d2481603e840160208a0161286c565b6926736c6970706167653d60b01b603e9290910191820152612d8f612d6e612d68612d526048850189612aa5565b692672656365697665723d60b01b8152600a0190565b86612aa5565b742664697361626c65457374696d6174653d7472756560581b815260150190565b9998505050505050505050565b76020b1b1b2b9b9a1b7b73a3937b61d1030b1b1b7bab73a1604d1b815260008351612dce81601785016020880161286c565b7001034b99036b4b9b9b4b733903937b6329607d1b6017918401918201528351612dff81602884016020880161286c565b01602801949350505050565b8082018082111561062057610620612b97565b634e487b7160e01b600052603260045260246000fd5b600081612e4357612e43612b97565b506000190190565b60018060a01b038816815286602082015285604082015263ffffffff60e01b851660608201528360808201528260a082015260e060c08201526000612d8f60e0830184612890565b8181038181111561062057610620612b97565b634e487b7160e01b600052603160045260246000fd5b600082612ecb57612ecb612bdd565b500690565b60018060a01b0384168152826020820152606060408201526000612ef76060830184612890565b95945050505050565b600181815b80851115612f3b578160001904821115612f2157612f21612b97565b80851615612f2e57918102915b93841c9390800290612f05565b509250929050565b600082612f5257506001610620565b81612f5f57506000610620565b8160018114612f755760028114612f7f57612f9b565b6001915050610620565b60ff841115612f9057612f90612b97565b50506001821b610620565b5060208310610133831016604e8410600b8410161715612fbe575081810a610620565b612fc88383612f00565b8060001904821115612fdc57612fdc612b97565b029392505050565b60006117918383612f4356fe5b22616363657074222c20226170706c69636174696f6e2f6a736f6e222c2022417574686f72697a6174696f6e222c202242656172657220247b5345435245545f30317d225d416464726573733a206c6f772d6c6576656c2063616c6c20776974682076616c7565206661696c656468747470733a2f2f6170692e31696e63682e6465762f737761702f76352e322f17a8e30262c1f919c33056d877a3c22b95c2f5e4dac44683c1c2323cd79fbdb07cc135e0cebb02c3480ae5d74d377283180a2601f8f644edf7987b009316c63afab00a984754950c7187fb98f39da0ae224abbbee017c1699445ad0e19474a4da2646970667358221220e5e50c17db00da01dcc9f4f9a0b043ae45ce4c2d5d46072c92fee97fbd2344c664736f6c6343000813003317a8e30262c1f919c33056d877a3c22b95c2f5e4dac44683c1c2323cd79fbdb0","opcodes":"PUSH1 0xA0 PUSH1 0x40 MSTORE PUSH1 0x1 PUSH1 0x5 SSTORE CALLVALUE DUP1 ISZERO PUSH3 0x16 JUMPI PUSH1 0x0 DUP1 REVERT JUMPDEST POP PUSH1 0x40 MLOAD PUSH3 0x3A47 CODESIZE SUB DUP1 PUSH3 0x3A47 DUP4 CODECOPY DUP2 ADD PUSH1 0x40 DUP2 SWAP1 MSTORE PUSH3 0x39 SWAP2 PUSH3 0x620 JUMP JUMPDEST PUSH3 0x54 PUSH1 0x0 DUP1 MLOAD PUSH1 0x20 PUSH3 0x3A27 DUP4 CODECOPY DUP2 MLOAD SWAP2 MSTORE DUP8 PUSH3 0x121 JUMP JUMPDEST PUSH1 0x3 DUP1 SLOAD PUSH1 0x1 PUSH1 0x1 PUSH1 0xA0 SHL SUB NOT AND PUSH1 0x1 PUSH1 0x1 PUSH1 0xA0 SHL SUB DUP7 AND OR SWAP1 SSTORE PUSH3 0x7A DUP4 PUSH3 0x1AA JUMP JUMPDEST PUSH3 0x85 DUP3 PUSH3 0x1F4 JUMP JUMPDEST PUSH3 0x90 DUP8 PUSH3 0x221 JUMP JUMPDEST PUSH1 0x1 PUSH1 0x1 PUSH1 0xA0 SHL SUB DUP6 AND PUSH1 0x80 MSTORE PUSH1 0x0 JUMPDEST DUP2 MLOAD DUP2 PUSH1 0xFF AND LT ISZERO PUSH3 0x113 JUMPI PUSH3 0xFE PUSH32 0xFAB00A984754950C7187FB98F39DA0AE224ABBBEE017C1699445AD0E19474A4D DUP4 DUP4 PUSH1 0xFF AND DUP2 MLOAD DUP2 LT PUSH3 0xEA JUMPI PUSH3 0xEA PUSH3 0x73B JUMP JUMPDEST PUSH1 0x20 MUL PUSH1 0x20 ADD ADD MLOAD PUSH3 0x121 PUSH1 0x20 SHL PUSH1 0x20 SHR JUMP JUMPDEST DUP1 PUSH3 0x10A DUP2 PUSH3 0x767 JUMP JUMPDEST SWAP2 POP POP PUSH3 0xA0 JUMP JUMPDEST POP POP POP POP POP POP POP POP PUSH3 0x8CC JUMP JUMPDEST PUSH3 0x12D DUP3 DUP3 PUSH3 0x268 JUMP JUMPDEST PUSH3 0x1A6 JUMPI PUSH1 0x0 DUP3 DUP2 MSTORE PUSH1 0x20 DUP2 DUP2 MSTORE PUSH1 0x40 DUP1 DUP4 KECCAK256 PUSH1 0x1 PUSH1 0x1 PUSH1 0xA0 SHL SUB DUP6 AND DUP5 MSTORE SWAP1 SWAP2 MSTORE SWAP1 KECCAK256 DUP1 SLOAD PUSH1 0xFF NOT AND PUSH1 0x1 OR SWAP1 SSTORE PUSH3 0x165 CALLER SWAP1 JUMP JUMPDEST PUSH1 0x1 PUSH1 0x1 PUSH1 0xA0 SHL SUB AND DUP2 PUSH1 0x1 PUSH1 0x1 PUSH1 0xA0 SHL SUB AND DUP4 PUSH32 0x2F8788117E7EFF1D82E926EC794901D17C78024A50270940304540A733656F0D PUSH1 0x40 MLOAD PUSH1 0x40 MLOAD DUP1 SWAP2 SUB SWAP1 LOG4 JUMPDEST POP POP JUMP JUMPDEST PUSH1 0x0 DUP1 MLOAD PUSH1 0x20 PUSH3 0x3A27 DUP4 CODECOPY DUP2 MLOAD SWAP2 MSTORE PUSH3 0x1C5 DUP2 PUSH3 0x293 JUMP JUMPDEST PUSH1 0x7 DUP1 SLOAD PUSH1 0x1 PUSH1 0x1 PUSH1 0xA0 SHL SUB DUP5 AND PUSH1 0x1 PUSH1 0x1 PUSH1 0xA0 SHL SUB NOT SWAP2 DUP3 AND DUP2 OR SWAP1 SWAP3 SSTORE PUSH1 0x4 DUP1 SLOAD SWAP1 SWAP2 AND SWAP1 SWAP2 OR SWAP1 SSTORE POP POP JUMP JUMPDEST PUSH1 0x0 DUP1 MLOAD PUSH1 0x20 PUSH3 0x3A27 DUP4 CODECOPY DUP2 MLOAD SWAP2 MSTORE PUSH3 0x20F DUP2 PUSH3 0x293 JUMP JUMPDEST PUSH3 0x21A DUP3 PUSH3 0x789 JUMP JUMPDEST PUSH1 0x8 SSTORE POP POP JUMP JUMPDEST PUSH1 0x0 DUP1 MLOAD PUSH1 0x20 PUSH3 0x3A27 DUP4 CODECOPY DUP2 MLOAD SWAP2 MSTORE PUSH3 0x23C DUP2 PUSH3 0x293 JUMP JUMPDEST PUSH3 0x1A6 PUSH1 0x64 PUSH3 0x256 PUSH8 0xDE0B6B3A7640000 DUP6 PUSH3 0x7B1 JUMP JUMPDEST PUSH3 0x262 SWAP2 SWAP1 PUSH3 0x7CB JUMP JUMPDEST PUSH3 0x2A2 JUMP JUMPDEST PUSH1 0x0 DUP3 DUP2 MSTORE PUSH1 0x20 DUP2 DUP2 MSTORE PUSH1 0x40 DUP1 DUP4 KECCAK256 PUSH1 0x1 PUSH1 0x1 PUSH1 0xA0 SHL SUB DUP6 AND DUP5 MSTORE SWAP1 SWAP2 MSTORE SWAP1 KECCAK256 SLOAD PUSH1 0xFF AND JUMPDEST SWAP3 SWAP2 POP POP JUMP JUMPDEST PUSH3 0x29F DUP2 CALLER PUSH3 0x2C3 JUMP JUMPDEST POP JUMP JUMPDEST PUSH1 0x0 DUP1 MLOAD PUSH1 0x20 PUSH3 0x3A27 DUP4 CODECOPY DUP2 MLOAD SWAP2 MSTORE PUSH3 0x2BD DUP2 PUSH3 0x293 JUMP JUMPDEST POP PUSH1 0x9 SSTORE JUMP JUMPDEST PUSH3 0x2CF DUP3 DUP3 PUSH3 0x268 JUMP JUMPDEST PUSH3 0x1A6 JUMPI PUSH3 0x2DF DUP2 PUSH3 0x330 JUMP JUMPDEST PUSH3 0x2EC DUP4 PUSH1 0x20 PUSH3 0x343 JUMP JUMPDEST PUSH1 0x40 MLOAD PUSH1 0x20 ADD PUSH3 0x2FF SWAP3 SWAP2 SWAP1 PUSH3 0x7EE JUMP JUMPDEST PUSH1 0x40 DUP1 MLOAD PUSH1 0x1F NOT DUP2 DUP5 SUB ADD DUP2 MSTORE SWAP1 DUP3 SWAP1 MSTORE PUSH3 0x461BCD PUSH1 0xE5 SHL DUP3 MSTORE PUSH3 0x327 SWAP2 PUSH1 0x4 ADD PUSH3 0x867 JUMP JUMPDEST PUSH1 0x40 MLOAD DUP1 SWAP2 SUB SWAP1 REVERT JUMPDEST PUSH1 0x60 PUSH3 0x28D PUSH1 0x1 PUSH1 0x1 PUSH1 0xA0 SHL SUB DUP4 AND PUSH1 0x14 JUMPDEST PUSH1 0x60 PUSH1 0x0 PUSH3 0x354 DUP4 PUSH1 0x2 PUSH3 0x7B1 JUMP JUMPDEST PUSH3 0x361 SWAP1 PUSH1 0x2 PUSH3 0x89C JUMP JUMPDEST PUSH1 0x1 PUSH1 0x1 PUSH1 0x40 SHL SUB DUP2 GT ISZERO PUSH3 0x37B JUMPI PUSH3 0x37B PUSH3 0x520 JUMP JUMPDEST PUSH1 0x40 MLOAD SWAP1 DUP1 DUP3 MSTORE DUP1 PUSH1 0x1F ADD PUSH1 0x1F NOT AND PUSH1 0x20 ADD DUP3 ADD PUSH1 0x40 MSTORE DUP1 ISZERO PUSH3 0x3A6 JUMPI PUSH1 0x20 DUP3 ADD DUP2 DUP1 CALLDATASIZE DUP4 CALLDATACOPY ADD SWAP1 POP JUMPDEST POP SWAP1 POP PUSH1 0x3 PUSH1 0xFC SHL DUP2 PUSH1 0x0 DUP2 MLOAD DUP2 LT PUSH3 0x3C4 JUMPI PUSH3 0x3C4 PUSH3 0x73B JUMP JUMPDEST PUSH1 0x20 ADD ADD SWAP1 PUSH1 0x1 PUSH1 0x1 PUSH1 0xF8 SHL SUB NOT AND SWAP1 DUP2 PUSH1 0x0 BYTE SWAP1 MSTORE8 POP PUSH1 0xF PUSH1 0xFB SHL DUP2 PUSH1 0x1 DUP2 MLOAD DUP2 LT PUSH3 0x3F6 JUMPI PUSH3 0x3F6 PUSH3 0x73B JUMP JUMPDEST PUSH1 0x20 ADD ADD SWAP1 PUSH1 0x1 PUSH1 0x1 PUSH1 0xF8 SHL SUB NOT AND SWAP1 DUP2 PUSH1 0x0 BYTE SWAP1 MSTORE8 POP PUSH1 0x0 PUSH3 0x41C DUP5 PUSH1 0x2 PUSH3 0x7B1 JUMP JUMPDEST PUSH3 0x429 SWAP1 PUSH1 0x1 PUSH3 0x89C JUMP JUMPDEST SWAP1 POP JUMPDEST PUSH1 0x1 DUP2 GT ISZERO PUSH3 0x4AB JUMPI PUSH16 0x181899199A1A9B1B9C1CB0B131B232B3 PUSH1 0x81 SHL DUP6 PUSH1 0xF AND PUSH1 0x10 DUP2 LT PUSH3 0x461 JUMPI PUSH3 0x461 PUSH3 0x73B JUMP JUMPDEST BYTE PUSH1 0xF8 SHL DUP3 DUP3 DUP2 MLOAD DUP2 LT PUSH3 0x47A JUMPI PUSH3 0x47A PUSH3 0x73B JUMP JUMPDEST PUSH1 0x20 ADD ADD SWAP1 PUSH1 0x1 PUSH1 0x1 PUSH1 0xF8 SHL SUB NOT AND SWAP1 DUP2 PUSH1 0x0 BYTE SWAP1 MSTORE8 POP PUSH1 0x4 SWAP5 SWAP1 SWAP5 SHR SWAP4 PUSH3 0x4A3 DUP2 PUSH3 0x8B2 JUMP JUMPDEST SWAP1 POP PUSH3 0x42C JUMP JUMPDEST POP DUP4 ISZERO PUSH3 0x4FC JUMPI PUSH1 0x40 MLOAD PUSH3 0x461BCD PUSH1 0xE5 SHL DUP2 MSTORE PUSH1 0x20 PUSH1 0x4 DUP3 ADD DUP2 SWAP1 MSTORE PUSH1 0x24 DUP3 ADD MSTORE PUSH32 0x537472696E67733A20686578206C656E67746820696E73756666696369656E74 PUSH1 0x44 DUP3 ADD MSTORE PUSH1 0x64 ADD PUSH3 0x327 JUMP JUMPDEST SWAP4 SWAP3 POP POP POP JUMP JUMPDEST DUP1 MLOAD PUSH1 0x1 PUSH1 0x1 PUSH1 0xA0 SHL SUB DUP2 AND DUP2 EQ PUSH3 0x51B JUMPI PUSH1 0x0 DUP1 REVERT JUMPDEST SWAP2 SWAP1 POP JUMP JUMPDEST PUSH4 0x4E487B71 PUSH1 0xE0 SHL PUSH1 0x0 MSTORE PUSH1 0x41 PUSH1 0x4 MSTORE PUSH1 0x24 PUSH1 0x0 REVERT JUMPDEST PUSH1 0x40 MLOAD PUSH1 0x1F DUP3 ADD PUSH1 0x1F NOT AND DUP2 ADD PUSH1 0x1 PUSH1 0x1 PUSH1 0x40 SHL SUB DUP2 GT DUP3 DUP3 LT OR ISZERO PUSH3 0x561 JUMPI PUSH3 0x561 PUSH3 0x520 JUMP JUMPDEST PUSH1 0x40 MSTORE SWAP2 SWAP1 POP JUMP JUMPDEST PUSH1 0x0 JUMPDEST DUP4 DUP2 LT ISZERO PUSH3 0x586 JUMPI DUP2 DUP2 ADD MLOAD DUP4 DUP3 ADD MSTORE PUSH1 0x20 ADD PUSH3 0x56C JUMP JUMPDEST POP POP PUSH1 0x0 SWAP2 ADD MSTORE JUMP JUMPDEST PUSH1 0x0 DUP3 PUSH1 0x1F DUP4 ADD SLT PUSH3 0x5A1 JUMPI PUSH1 0x0 DUP1 REVERT JUMPDEST DUP2 MLOAD PUSH1 0x20 PUSH1 0x1 PUSH1 0x1 PUSH1 0x40 SHL SUB DUP3 GT ISZERO PUSH3 0x5BF JUMPI PUSH3 0x5BF PUSH3 0x520 JUMP JUMPDEST DUP2 PUSH1 0x5 SHL PUSH3 0x5D0 DUP3 DUP3 ADD PUSH3 0x536 JUMP JUMPDEST SWAP3 DUP4 MSTORE DUP5 DUP2 ADD DUP3 ADD SWAP3 DUP3 DUP2 ADD SWAP1 DUP8 DUP6 GT ISZERO PUSH3 0x5EB JUMPI PUSH1 0x0 DUP1 REVERT JUMPDEST DUP4 DUP8 ADD SWAP3 POP JUMPDEST DUP5 DUP4 LT ISZERO PUSH3 0x615 JUMPI PUSH3 0x605 DUP4 PUSH3 0x503 JUMP JUMPDEST DUP3 MSTORE SWAP2 DUP4 ADD SWAP2 SWAP1 DUP4 ADD SWAP1 PUSH3 0x5F1 JUMP JUMPDEST SWAP8 SWAP7 POP POP POP POP POP POP POP JUMP JUMPDEST PUSH1 0x0 DUP1 PUSH1 0x0 DUP1 PUSH1 0x0 DUP1 PUSH1 0x0 PUSH1 0xE0 DUP9 DUP11 SUB SLT ISZERO PUSH3 0x63C JUMPI PUSH1 0x0 DUP1 REVERT JUMPDEST DUP8 MLOAD SWAP7 POP PUSH3 0x64E PUSH1 0x20 DUP10 ADD PUSH3 0x503 JUMP JUMPDEST SWAP6 POP PUSH3 0x65E PUSH1 0x40 DUP10 ADD PUSH3 0x503 JUMP JUMPDEST SWAP5 POP PUSH3 0x66E PUSH1 0x60 DUP10 ADD PUSH3 0x503 JUMP JUMPDEST SWAP4 POP PUSH3 0x67E PUSH1 0x80 DUP10 ADD PUSH3 0x503 JUMP JUMPDEST PUSH1 0xA0 DUP10 ADD MLOAD SWAP1 SWAP4 POP PUSH1 0x1 PUSH1 0x1 PUSH1 0x40 SHL SUB DUP1 DUP3 GT ISZERO PUSH3 0x69C JUMPI PUSH1 0x0 DUP1 REVERT JUMPDEST DUP2 DUP11 ADD SWAP2 POP DUP11 PUSH1 0x1F DUP4 ADD SLT PUSH3 0x6B1 JUMPI PUSH1 0x0 DUP1 REVERT JUMPDEST DUP2 MLOAD DUP2 DUP2 GT ISZERO PUSH3 0x6C6 JUMPI PUSH3 0x6C6 PUSH3 0x520 JUMP JUMPDEST PUSH3 0x6DB PUSH1 0x1F DUP3 ADD PUSH1 0x1F NOT AND PUSH1 0x20 ADD PUSH3 0x536 JUMP JUMPDEST DUP2 DUP2 MSTORE DUP13 PUSH1 0x20 DUP4 DUP7 ADD ADD GT ISZERO PUSH3 0x6F1 JUMPI PUSH1 0x0 DUP1 REVERT JUMPDEST PUSH3 0x704 DUP3 PUSH1 0x20 DUP4 ADD PUSH1 0x20 DUP8 ADD PUSH3 0x569 JUMP JUMPDEST PUSH1 0xC0 DUP13 ADD MLOAD SWAP1 SWAP6 POP SWAP3 POP POP DUP1 DUP3 GT ISZERO PUSH3 0x71D JUMPI PUSH1 0x0 DUP1 REVERT JUMPDEST POP PUSH3 0x72C DUP11 DUP3 DUP12 ADD PUSH3 0x58F JUMP JUMPDEST SWAP2 POP POP SWAP3 SWAP6 SWAP9 SWAP2 SWAP5 SWAP8 POP SWAP3 SWAP6 POP JUMP JUMPDEST PUSH4 0x4E487B71 PUSH1 0xE0 SHL PUSH1 0x0 MSTORE PUSH1 0x32 PUSH1 0x4 MSTORE PUSH1 0x24 PUSH1 0x0 REVERT JUMPDEST PUSH4 0x4E487B71 PUSH1 0xE0 SHL PUSH1 0x0 MSTORE PUSH1 0x11 PUSH1 0x4 MSTORE PUSH1 0x24 PUSH1 0x0 REVERT JUMPDEST PUSH1 0x0 PUSH1 0xFF DUP3 AND PUSH1 0xFF DUP2 SUB PUSH3 0x780 JUMPI PUSH3 0x780 PUSH3 0x751 JUMP JUMPDEST PUSH1 0x1 ADD SWAP3 SWAP2 POP POP JUMP JUMPDEST DUP1 MLOAD PUSH1 0x20 DUP1 DUP4 ADD MLOAD SWAP2 SWAP1 DUP2 LT ISZERO PUSH3 0x7AB JUMPI PUSH1 0x0 NOT DUP2 PUSH1 0x20 SUB PUSH1 0x3 SHL SHL DUP3 AND SWAP2 POP JUMPDEST POP SWAP2 SWAP1 POP JUMP JUMPDEST DUP1 DUP3 MUL DUP2 ISZERO DUP3 DUP3 DIV DUP5 EQ OR PUSH3 0x28D JUMPI PUSH3 0x28D PUSH3 0x751 JUMP JUMPDEST PUSH1 0x0 DUP3 PUSH3 0x7E9 JUMPI PUSH4 0x4E487B71 PUSH1 0xE0 SHL PUSH1 0x0 MSTORE PUSH1 0x12 PUSH1 0x4 MSTORE PUSH1 0x24 PUSH1 0x0 REVERT JUMPDEST POP DIV SWAP1 JUMP JUMPDEST PUSH32 0x416363657373436F6E74726F6C3A206163636F756E7420000000000000000000 DUP2 MSTORE PUSH1 0x0 DUP4 MLOAD PUSH3 0x828 DUP2 PUSH1 0x17 DUP6 ADD PUSH1 0x20 DUP9 ADD PUSH3 0x569 JUMP JUMPDEST PUSH17 0x1034B99036B4B9B9B4B733903937B6329 PUSH1 0x7D SHL PUSH1 0x17 SWAP2 DUP5 ADD SWAP2 DUP3 ADD MSTORE DUP4 MLOAD PUSH3 0x85B DUP2 PUSH1 0x28 DUP5 ADD PUSH1 0x20 DUP9 ADD PUSH3 0x569 JUMP JUMPDEST ADD PUSH1 0x28 ADD SWAP5 SWAP4 POP POP POP POP JUMP JUMPDEST PUSH1 0x20 DUP2 MSTORE PUSH1 0x0 DUP3 MLOAD DUP1 PUSH1 0x20 DUP5 ADD MSTORE PUSH3 0x888 DUP2 PUSH1 0x40 DUP6 ADD PUSH1 0x20 DUP8 ADD PUSH3 0x569 JUMP JUMPDEST PUSH1 0x1F ADD PUSH1 0x1F NOT AND SWAP2 SWAP1 SWAP2 ADD PUSH1 0x40 ADD SWAP3 SWAP2 POP POP JUMP JUMPDEST DUP1 DUP3 ADD DUP1 DUP3 GT ISZERO PUSH3 0x28D JUMPI PUSH3 0x28D PUSH3 0x751 JUMP JUMPDEST PUSH1 0x0 DUP2 PUSH3 0x8C4 JUMPI PUSH3 0x8C4 PUSH3 0x751 JUMP JUMPDEST POP PUSH1 0x0 NOT ADD SWAP1 JUMP JUMPDEST PUSH1 0x80 MLOAD PUSH2 0x3115 PUSH3 0x912 PUSH1 0x0 CODECOPY PUSH1 0x0 DUP2 DUP2 PUSH2 0x5CD ADD MSTORE DUP2 DUP2 PUSH2 0xFB0 ADD MSTORE DUP2 DUP2 PUSH2 0x1071 ADD MSTORE DUP2 DUP2 PUSH2 0x11C7 ADD MSTORE DUP2 DUP2 PUSH2 0x125A ADD MSTORE DUP2 DUP2 PUSH2 0x12F5 ADD MSTORE PUSH2 0x1388 ADD MSTORE PUSH2 0x3115 PUSH1 0x0 RETURN INVALID PUSH1 0x80 PUSH1 0x40 MSTORE PUSH1 0x4 CALLDATASIZE LT PUSH2 0x198 JUMPI PUSH1 0x0 CALLDATALOAD PUSH1 0xE0 SHR DUP1 PUSH4 0x1FFC9A7 EQ PUSH2 0x1A4 JUMPI DUP1 PUSH4 0x2458AD8 EQ PUSH2 0x1D9 JUMPI DUP1 PUSH4 0x129FC1C0 EQ PUSH2 0x1FB JUMPI DUP1 PUSH4 0x1A5B4207 EQ PUSH2 0x21B JUMPI DUP1 PUSH4 0x248A9CA3 EQ PUSH2 0x23B JUMPI DUP1 PUSH4 0x271E390A EQ PUSH2 0x269 JUMPI DUP1 PUSH4 0x2F2FF15D EQ PUSH2 0x296 JUMPI DUP1 PUSH4 0x36568ABE EQ PUSH2 0x2B6 JUMPI DUP1 PUSH4 0x3662DD35 EQ PUSH2 0x2D6 JUMPI DUP1 PUSH4 0x36868F0E EQ PUSH2 0x2EC JUMPI DUP1 PUSH4 0x459C75D8 EQ PUSH2 0x30C JUMPI DUP1 PUSH4 0x4C69C00F EQ PUSH2 0x32C JUMPI DUP1 PUSH4 0x4E0C6133 EQ PUSH2 0x34C JUMPI DUP1 PUSH4 0x56237682 EQ PUSH2 0x36E JUMPI DUP1 PUSH4 0x627C34AD EQ PUSH2 0x383 JUMPI DUP1 PUSH4 0x66B8455B EQ PUSH2 0x3A3 JUMPI DUP1 PUSH4 0x6CCF5B01 EQ PUSH2 0x3B8 JUMPI DUP1 PUSH4 0x8DC654A2 EQ PUSH2 0x3D8 JUMPI DUP1 PUSH4 0x91D14854 EQ PUSH2 0x3ED JUMPI DUP1 PUSH4 0x94555D1A EQ PUSH2 0x40D JUMPI DUP1 PUSH4 0xA217FDDF EQ PUSH2 0x42D JUMPI DUP1 PUSH4 0xA378A324 EQ PUSH2 0x442 JUMPI DUP1 PUSH4 0xAAEAFD56 EQ PUSH2 0x464 JUMPI DUP1 PUSH4 0xB02F7FE0 EQ PUSH2 0x48C JUMPI DUP1 PUSH4 0xB18B78DD EQ PUSH2 0x4AE JUMPI DUP1 PUSH4 0xB56269A0 EQ PUSH2 0x4C3 JUMPI DUP1 PUSH4 0xC02E5BC7 EQ PUSH2 0x4D9 JUMPI DUP1 PUSH4 0xC0D2E37F EQ PUSH2 0x4F9 JUMPI DUP1 PUSH4 0xC87457DB EQ PUSH2 0x513 JUMPI DUP1 PUSH4 0xD547741F EQ PUSH2 0x533 JUMPI DUP1 PUSH4 0xE3DA201D EQ PUSH2 0x553 JUMPI DUP1 PUSH4 0xEAAD47B2 EQ PUSH2 0x573 JUMPI DUP1 PUSH4 0xF09922FF EQ PUSH2 0x588 JUMPI DUP1 PUSH4 0xF34473A5 EQ PUSH2 0x59B JUMPI DUP1 PUSH4 0xFCDFD946 EQ PUSH2 0x5BB JUMPI PUSH1 0x0 DUP1 REVERT JUMPDEST CALLDATASIZE PUSH2 0x19F JUMPI STOP JUMPDEST PUSH1 0x0 DUP1 REVERT JUMPDEST CALLVALUE DUP1 ISZERO PUSH2 0x1B0 JUMPI PUSH1 0x0 DUP1 REVERT JUMPDEST POP PUSH2 0x1C4 PUSH2 0x1BF CALLDATASIZE PUSH1 0x4 PUSH2 0x2627 JUMP JUMPDEST PUSH2 0x5EF JUMP JUMPDEST PUSH1 0x40 MLOAD SWAP1 ISZERO ISZERO DUP2 MSTORE PUSH1 0x20 ADD JUMPDEST PUSH1 0x40 MLOAD DUP1 SWAP2 SUB SWAP1 RETURN JUMPDEST CALLVALUE DUP1 ISZERO PUSH2 0x1E5 JUMPI PUSH1 0x0 DUP1 REVERT JUMPDEST POP PUSH2 0x1F9 PUSH2 0x1F4 CALLDATASIZE PUSH1 0x4 PUSH2 0x26DC JUMP JUMPDEST PUSH2 0x626 JUMP JUMPDEST STOP JUMPDEST CALLVALUE DUP1 ISZERO PUSH2 0x207 JUMPI PUSH1 0x0 DUP1 REVERT JUMPDEST POP PUSH2 0x1F9 PUSH2 0x216 CALLDATASIZE PUSH1 0x4 PUSH2 0x2736 JUMP JUMPDEST PUSH2 0x6F5 JUMP JUMPDEST CALLVALUE DUP1 ISZERO PUSH2 0x227 JUMPI PUSH1 0x0 DUP1 REVERT JUMPDEST POP PUSH2 0x1F9 PUSH2 0x236 CALLDATASIZE PUSH1 0x4 PUSH2 0x279A JUMP JUMPDEST PUSH2 0x71D JUMP JUMPDEST CALLVALUE DUP1 ISZERO PUSH2 0x247 JUMPI PUSH1 0x0 DUP1 REVERT JUMPDEST POP PUSH2 0x25B PUSH2 0x256 CALLDATASIZE PUSH1 0x4 PUSH2 0x27D6 JUMP JUMPDEST PUSH2 0x977 JUMP JUMPDEST PUSH1 0x40 MLOAD SWAP1 DUP2 MSTORE PUSH1 0x20 ADD PUSH2 0x1D0 JUMP JUMPDEST CALLVALUE DUP1 ISZERO PUSH2 0x275 JUMPI PUSH1 0x0 DUP1 REVERT JUMPDEST POP PUSH1 0xD SLOAD PUSH2 0x289 SWAP1 PUSH1 0x1 PUSH1 0x1 PUSH1 0xA0 SHL SUB AND DUP2 JUMP JUMPDEST PUSH1 0x40 MLOAD PUSH2 0x1D0 SWAP2 SWAP1 PUSH2 0x27EF JUMP JUMPDEST CALLVALUE DUP1 ISZERO PUSH2 0x2A2 JUMPI PUSH1 0x0 DUP1 REVERT JUMPDEST POP PUSH2 0x1F9 PUSH2 0x2B1 CALLDATASIZE PUSH1 0x4 PUSH2 0x2803 JUMP JUMPDEST PUSH2 0x98C JUMP JUMPDEST CALLVALUE DUP1 ISZERO PUSH2 0x2C2 JUMPI PUSH1 0x0 DUP1 REVERT JUMPDEST POP PUSH2 0x1F9 PUSH2 0x2D1 CALLDATASIZE PUSH1 0x4 PUSH2 0x2803 JUMP JUMPDEST PUSH2 0x9AD JUMP JUMPDEST CALLVALUE DUP1 ISZERO PUSH2 0x2E2 JUMPI PUSH1 0x0 DUP1 REVERT JUMPDEST POP PUSH2 0x25B PUSH1 0xC SLOAD DUP2 JUMP JUMPDEST CALLVALUE DUP1 ISZERO PUSH2 0x2F8 JUMPI PUSH1 0x0 DUP1 REVERT JUMPDEST POP PUSH1 0xE SLOAD PUSH2 0x289 SWAP1 PUSH1 0x1 PUSH1 0x1 PUSH1 0xA0 SHL SUB AND DUP2 JUMP JUMPDEST CALLVALUE DUP1 ISZERO PUSH2 0x318 JUMPI PUSH1 0x0 DUP1 REVERT JUMPDEST POP PUSH2 0x1F9 PUSH2 0x327 CALLDATASIZE PUSH1 0x4 PUSH2 0x282F JUMP JUMPDEST PUSH2 0xA2B JUMP JUMPDEST CALLVALUE DUP1 ISZERO PUSH2 0x338 JUMPI PUSH1 0x0 DUP1 REVERT JUMPDEST POP PUSH2 0x1F9 PUSH2 0x347 CALLDATASIZE PUSH1 0x4 PUSH2 0x2851 JUMP JUMPDEST PUSH2 0xB96 JUMP JUMPDEST CALLVALUE DUP1 ISZERO PUSH2 0x358 JUMPI PUSH1 0x0 DUP1 REVERT JUMPDEST POP PUSH2 0x25B PUSH1 0x0 DUP1 MLOAD PUSH1 0x20 PUSH2 0x30C0 DUP4 CODECOPY DUP2 MLOAD SWAP2 MSTORE DUP2 JUMP JUMPDEST CALLVALUE DUP1 ISZERO PUSH2 0x37A JUMPI PUSH1 0x0 DUP1 REVERT JUMPDEST POP PUSH2 0x25B PUSH2 0xBDC JUMP JUMPDEST CALLVALUE DUP1 ISZERO PUSH2 0x38F JUMPI PUSH1 0x0 DUP1 REVERT JUMPDEST POP PUSH2 0x1F9 PUSH2 0x39E CALLDATASIZE PUSH1 0x4 PUSH2 0x2851 JUMP JUMPDEST PUSH2 0xC1E JUMP JUMPDEST CALLVALUE DUP1 ISZERO PUSH2 0x3AF JUMPI PUSH1 0x0 DUP1 REVERT JUMPDEST POP PUSH2 0x25B PUSH2 0xC5E JUMP JUMPDEST CALLVALUE DUP1 ISZERO PUSH2 0x3C4 JUMPI PUSH1 0x0 DUP1 REVERT JUMPDEST POP PUSH2 0x289 PUSH2 0x3D3 CALLDATASIZE PUSH1 0x4 PUSH2 0x27D6 JUMP JUMPDEST PUSH2 0xC6F JUMP JUMPDEST CALLVALUE DUP1 ISZERO PUSH2 0x3E4 JUMPI PUSH1 0x0 DUP1 REVERT JUMPDEST POP PUSH2 0x1F9 PUSH2 0xC7C JUMP JUMPDEST CALLVALUE DUP1 ISZERO PUSH2 0x3F9 JUMPI PUSH1 0x0 DUP1 REVERT JUMPDEST POP PUSH2 0x1C4 PUSH2 0x408 CALLDATASIZE PUSH1 0x4 PUSH2 0x2803 JUMP JUMPDEST PUSH2 0xDA4 JUMP JUMPDEST CALLVALUE DUP1 ISZERO PUSH2 0x419 JUMPI PUSH1 0x0 DUP1 REVERT JUMPDEST POP PUSH2 0x1F9 PUSH2 0x428 CALLDATASIZE PUSH1 0x4 PUSH2 0x2851 JUMP JUMPDEST PUSH2 0xDCD JUMP JUMPDEST CALLVALUE DUP1 ISZERO PUSH2 0x439 JUMPI PUSH1 0x0 DUP1 REVERT JUMPDEST POP PUSH2 0x25B PUSH1 0x0 DUP2 JUMP JUMPDEST CALLVALUE DUP1 ISZERO PUSH2 0x44E JUMPI PUSH1 0x0 DUP1 REVERT JUMPDEST POP PUSH2 0x25B PUSH1 0x0 DUP1 MLOAD PUSH1 0x20 PUSH2 0x3080 DUP4 CODECOPY DUP2 MLOAD SWAP2 MSTORE DUP2 JUMP JUMPDEST CALLVALUE DUP1 ISZERO PUSH2 0x470 JUMPI PUSH1 0x0 DUP1 REVERT JUMPDEST POP PUSH2 0x289 PUSH20 0xEEEEEEEEEEEEEEEEEEEEEEEEEEEEEEEEEEEEEEEE DUP2 JUMP JUMPDEST CALLVALUE DUP1 ISZERO PUSH2 0x498 JUMPI PUSH1 0x0 DUP1 REVERT JUMPDEST POP PUSH2 0x4A1 PUSH2 0xE0D JUMP JUMPDEST PUSH1 0x40 MLOAD PUSH2 0x1D0 SWAP2 SWAP1 PUSH2 0x28BC JUMP JUMPDEST CALLVALUE DUP1 ISZERO PUSH2 0x4BA JUMPI PUSH1 0x0 DUP1 REVERT JUMPDEST POP PUSH2 0x289 PUSH2 0xE51 JUMP JUMPDEST CALLVALUE DUP1 ISZERO PUSH2 0x4CF JUMPI PUSH1 0x0 DUP1 REVERT JUMPDEST POP PUSH2 0x25B PUSH1 0xF SLOAD DUP2 JUMP JUMPDEST CALLVALUE DUP1 ISZERO PUSH2 0x4E5 JUMPI PUSH1 0x0 DUP1 REVERT JUMPDEST POP PUSH1 0xB SLOAD PUSH2 0x289 SWAP1 PUSH1 0x1 PUSH1 0x1 PUSH1 0xA0 SHL SUB AND DUP2 JUMP JUMPDEST CALLVALUE DUP1 ISZERO PUSH2 0x505 JUMPI PUSH1 0x0 DUP1 REVERT JUMPDEST POP PUSH1 0x10 SLOAD PUSH2 0x1C4 SWAP1 PUSH1 0xFF AND DUP2 JUMP JUMPDEST CALLVALUE DUP1 ISZERO PUSH2 0x51F JUMPI PUSH1 0x0 DUP1 REVERT JUMPDEST POP PUSH1 0xA SLOAD PUSH2 0x289 SWAP1 PUSH1 0x1 PUSH1 0x1 PUSH1 0xA0 SHL SUB AND DUP2 JUMP JUMPDEST CALLVALUE DUP1 ISZERO PUSH2 0x53F JUMPI PUSH1 0x0 DUP1 REVERT JUMPDEST POP PUSH2 0x1F9 PUSH2 0x54E CALLDATASIZE PUSH1 0x4 PUSH2 0x2803 JUMP JUMPDEST PUSH2 0xE7C JUMP JUMPDEST CALLVALUE DUP1 ISZERO PUSH2 0x55F JUMPI PUSH1 0x0 DUP1 REVERT JUMPDEST POP PUSH2 0x1F9 PUSH2 0x56E CALLDATASIZE PUSH1 0x4 PUSH2 0x27D6 JUMP JUMPDEST PUSH2 0xE98 JUMP JUMPDEST CALLVALUE DUP1 ISZERO PUSH2 0x57F JUMPI PUSH1 0x0 DUP1 REVERT JUMPDEST POP PUSH2 0x1F9 PUSH2 0xEB6 JUMP JUMPDEST PUSH2 0x1F9 PUSH2 0x596 CALLDATASIZE PUSH1 0x4 PUSH2 0x28CF JUMP JUMPDEST PUSH2 0x10F8 JUMP JUMPDEST CALLVALUE DUP1 ISZERO PUSH2 0x5A7 JUMPI PUSH1 0x0 DUP1 REVERT JUMPDEST POP PUSH2 0x1F9 PUSH2 0x5B6 CALLDATASIZE PUSH1 0x4 PUSH2 0x27D6 JUMP JUMPDEST PUSH2 0x1647 JUMP JUMPDEST CALLVALUE DUP1 ISZERO PUSH2 0x5C7 JUMPI PUSH1 0x0 DUP1 REVERT JUMPDEST POP PUSH2 0x289 PUSH32 0x0 DUP2 JUMP JUMPDEST PUSH1 0x0 PUSH1 0x1 PUSH1 0x1 PUSH1 0xE0 SHL SUB NOT DUP3 AND PUSH4 0x7965DB0B PUSH1 0xE0 SHL EQ DUP1 PUSH2 0x620 JUMPI POP PUSH4 0x1FFC9A7 PUSH1 0xE0 SHL PUSH1 0x1 PUSH1 0x1 PUSH1 0xE0 SHL SUB NOT DUP4 AND EQ JUMPDEST SWAP3 SWAP2 POP POP JUMP JUMPDEST PUSH1 0x0 DUP3 DUP2 MSTORE PUSH1 0x6 PUSH1 0x20 MSTORE PUSH1 0x40 SWAP1 KECCAK256 SLOAD DUP3 SWAP1 PUSH1 0x1 PUSH1 0x1 PUSH1 0xA0 SHL SUB AND CALLER EQ PUSH2 0x667 JUMPI PUSH1 0x40 MLOAD PUSH3 0x461BCD PUSH1 0xE5 SHL DUP2 MSTORE PUSH1 0x4 ADD PUSH2 0x65E SWAP1 PUSH2 0x2924 JUMP JUMPDEST PUSH1 0x40 MLOAD DUP1 SWAP2 SUB SWAP1 REVERT JUMPDEST PUSH1 0x0 DUP2 DUP2 MSTORE PUSH1 0x6 PUSH1 0x20 MSTORE PUSH1 0x40 DUP1 DUP3 KECCAK256 DUP1 SLOAD PUSH1 0x1 PUSH1 0x1 PUSH1 0xA0 SHL SUB NOT AND SWAP1 SSTORE MLOAD DUP3 SWAP2 PUSH1 0x0 DUP1 MLOAD PUSH1 0x20 PUSH2 0x30A0 DUP4 CODECOPY DUP2 MLOAD SWAP2 MSTORE SWAP2 LOG2 PUSH1 0x11 PUSH2 0x6A4 DUP4 DUP3 PUSH2 0x29E6 JUMP JUMPDEST POP PUSH1 0x10 DUP1 SLOAD PUSH1 0xFF NOT AND PUSH1 0x1 OR SWAP1 SSTORE PUSH1 0x40 MLOAD PUSH2 0x6C0 SWAP1 DUP4 SWAP1 PUSH2 0x2AC1 JUMP JUMPDEST PUSH1 0x40 MLOAD SWAP1 DUP2 SWAP1 SUB DUP2 KECCAK256 SWAP1 PUSH32 0xA6B78FC047486D5ADD927AA53BA0D4FC8EB23A5811E0052AEBEBA21469F51DF8 SWAP1 PUSH1 0x0 SWAP1 LOG2 POP POP POP JUMP JUMPDEST PUSH1 0x0 DUP1 MLOAD PUSH1 0x20 PUSH2 0x3080 DUP4 CODECOPY DUP2 MLOAD SWAP2 MSTORE PUSH2 0x70D DUP2 PUSH2 0x1680 JUMP JUMPDEST PUSH2 0x716 DUP3 PUSH2 0x2ADD JUMP JUMPDEST PUSH1 0x8 SSTORE POP POP JUMP JUMPDEST PUSH1 0x0 DUP1 MLOAD PUSH1 0x20 PUSH2 0x30C0 DUP4 CODECOPY DUP2 MLOAD SWAP2 MSTORE PUSH2 0x735 DUP2 PUSH2 0x1680 JUMP JUMPDEST PUSH1 0x0 PUSH2 0x74A PUSH1 0x8 SLOAD PUSH4 0x459C75D8 PUSH1 0xE0 SHL PUSH2 0x168D JUMP JUMPDEST SWAP1 POP PUSH2 0x79A PUSH1 0x40 MLOAD DUP1 PUSH1 0x40 ADD PUSH1 0x40 MSTORE DUP1 PUSH1 0x6 DUP2 MSTORE PUSH1 0x20 ADD PUSH6 0x1B595D1A1BD9 PUSH1 0xD2 SHL DUP2 MSTORE POP PUSH1 0x40 MLOAD DUP1 PUSH1 0x40 ADD PUSH1 0x40 MSTORE DUP1 PUSH1 0x3 DUP2 MSTORE PUSH1 0x20 ADD PUSH3 0x11D155 PUSH1 0xEA SHL DUP2 MSTORE POP DUP4 PUSH2 0x16B1 SWAP1 SWAP3 SWAP2 SWAP1 PUSH4 0xFFFFFFFF AND JUMP JUMPDEST PUSH2 0x7FE PUSH1 0x40 MLOAD DUP1 PUSH1 0x40 ADD PUSH1 0x40 MSTORE DUP1 PUSH1 0x3 DUP2 MSTORE PUSH1 0x20 ADD PUSH3 0x1D5C9B PUSH1 0xEA SHL DUP2 MSTORE POP PUSH2 0x7C2 DUP8 PUSH2 0x16CF JUMP JUMPDEST PUSH2 0x7CB DUP8 PUSH2 0x16CF JUMP JUMPDEST PUSH2 0x7D4 DUP8 PUSH2 0x16E5 JUMP JUMPDEST PUSH1 0x40 MLOAD PUSH1 0x20 ADD PUSH2 0x7E6 SWAP4 SWAP3 SWAP2 SWAP1 PUSH2 0x2B01 JUMP JUMPDEST PUSH1 0x40 DUP1 MLOAD PUSH1 0x1F NOT DUP2 DUP5 SUB ADD DUP2 MSTORE SWAP2 SWAP1 MSTORE DUP4 SWAP2 SWAP1 PUSH2 0x16B1 JUMP JUMPDEST PUSH2 0x842 PUSH1 0x40 MLOAD DUP1 PUSH1 0x40 ADD PUSH1 0x40 MSTORE DUP1 PUSH1 0x7 DUP2 MSTORE PUSH1 0x20 ADD PUSH7 0x68656164657273 PUSH1 0xC8 SHL DUP2 MSTORE POP PUSH1 0x40 MLOAD DUP1 PUSH1 0x80 ADD PUSH1 0x40 MSTORE DUP1 PUSH1 0x46 DUP2 MSTORE PUSH1 0x20 ADD PUSH2 0x2FF1 PUSH1 0x46 SWAP2 CODECOPY DUP4 SWAP2 SWAP1 PUSH2 0x16B1 JUMP JUMPDEST PUSH2 0x882 PUSH1 0x40 MLOAD DUP1 PUSH1 0x40 ADD PUSH1 0x40 MSTORE DUP1 PUSH1 0x4 DUP2 MSTORE PUSH1 0x20 ADD PUSH4 0x626F6479 PUSH1 0xE0 SHL DUP2 MSTORE POP PUSH1 0x40 MLOAD DUP1 PUSH1 0x20 ADD PUSH1 0x40 MSTORE DUP1 PUSH1 0x0 DUP2 MSTORE POP DUP4 PUSH2 0x16B1 SWAP1 SWAP3 SWAP2 SWAP1 PUSH4 0xFFFFFFFF AND JUMP JUMPDEST PUSH2 0x8DB PUSH1 0x40 MLOAD DUP1 PUSH1 0x40 ADD PUSH1 0x40 MSTORE DUP1 PUSH1 0x7 DUP2 MSTORE PUSH1 0x20 ADD PUSH7 0x18DBDB9D1858DD PUSH1 0xCA SHL DUP2 MSTORE POP PUSH1 0x40 MLOAD DUP1 PUSH1 0x40 ADD PUSH1 0x40 MSTORE DUP1 PUSH1 0xD DUP2 MSTORE PUSH1 0x20 ADD PUSH13 0x6C6F6375732D66696E616E6365 PUSH1 0x98 SHL DUP2 MSTORE POP DUP4 PUSH2 0x16B1 SWAP1 SWAP3 SWAP2 SWAP1 PUSH4 0xFFFFFFFF AND JUMP JUMPDEST PUSH2 0x92C PUSH1 0x40 MLOAD DUP1 PUSH1 0x40 ADD PUSH1 0x40 MSTORE DUP1 PUSH1 0x4 DUP2 MSTORE PUSH1 0x20 ADD PUSH4 0xE0C2E8D PUSH1 0xE3 SHL DUP2 MSTORE POP PUSH1 0x40 MLOAD DUP1 PUSH1 0x40 ADD PUSH1 0x40 MSTORE DUP1 PUSH1 0x8 DUP2 MSTORE PUSH1 0x20 ADD PUSH8 0x1D1BD05B5BDD5B9D PUSH1 0xC2 SHL DUP2 MSTORE POP DUP4 PUSH2 0x16B1 SWAP1 SWAP3 SWAP2 SWAP1 PUSH4 0xFFFFFFFF AND JUMP JUMPDEST PUSH1 0xA DUP1 SLOAD PUSH1 0x1 PUSH1 0x1 PUSH1 0xA0 SHL SUB DUP1 DUP9 AND PUSH1 0x1 PUSH1 0x1 PUSH1 0xA0 SHL SUB NOT SWAP3 DUP4 AND OR SWAP1 SWAP3 SSTORE PUSH1 0xB DUP1 SLOAD SWAP3 DUP8 AND SWAP3 SWAP1 SWAP2 AND SWAP2 SWAP1 SWAP2 OR SWAP1 SSTORE PUSH1 0xC DUP4 SWAP1 SSTORE PUSH1 0x9 SLOAD PUSH2 0x96F SWAP1 DUP3 SWAP1 PUSH2 0x1777 JUMP JUMPDEST POP POP POP POP POP POP JUMP JUMPDEST PUSH1 0x0 SWAP1 DUP2 MSTORE PUSH1 0x20 DUP2 SWAP1 MSTORE PUSH1 0x40 SWAP1 KECCAK256 PUSH1 0x1 ADD SLOAD SWAP1 JUMP JUMPDEST PUSH2 0x995 DUP3 PUSH2 0x977 JUMP JUMPDEST PUSH2 0x99E DUP2 PUSH2 0x1680 JUMP JUMPDEST PUSH2 0x9A8 DUP4 DUP4 PUSH2 0x1798 JUMP JUMPDEST POP POP POP JUMP JUMPDEST PUSH1 0x1 PUSH1 0x1 PUSH1 0xA0 SHL SUB DUP2 AND CALLER EQ PUSH2 0xA1D JUMPI PUSH1 0x40 MLOAD PUSH3 0x461BCD PUSH1 0xE5 SHL DUP2 MSTORE PUSH1 0x20 PUSH1 0x4 DUP3 ADD MSTORE PUSH1 0x2F PUSH1 0x24 DUP3 ADD MSTORE PUSH32 0x416363657373436F6E74726F6C3A2063616E206F6E6C792072656E6F756E6365 PUSH1 0x44 DUP3 ADD MSTORE PUSH15 0x103937B632B9903337B91039B2B633 PUSH1 0x89 SHL PUSH1 0x64 DUP3 ADD MSTORE PUSH1 0x84 ADD PUSH2 0x65E JUMP JUMPDEST PUSH2 0xA27 DUP3 DUP3 PUSH2 0x181C JUMP JUMPDEST POP POP JUMP JUMPDEST PUSH1 0x0 DUP3 DUP2 MSTORE PUSH1 0x6 PUSH1 0x20 MSTORE PUSH1 0x40 SWAP1 KECCAK256 SLOAD DUP3 SWAP1 PUSH1 0x1 PUSH1 0x1 PUSH1 0xA0 SHL SUB AND CALLER EQ PUSH2 0xA63 JUMPI PUSH1 0x40 MLOAD PUSH3 0x461BCD PUSH1 0xE5 SHL DUP2 MSTORE PUSH1 0x4 ADD PUSH2 0x65E SWAP1 PUSH2 0x2924 JUMP JUMPDEST PUSH1 0x0 DUP2 DUP2 MSTORE PUSH1 0x6 PUSH1 0x20 MSTORE PUSH1 0x40 DUP1 DUP3 KECCAK256 DUP1 SLOAD PUSH1 0x1 PUSH1 0x1 PUSH1 0xA0 SHL SUB NOT AND SWAP1 SSTORE MLOAD DUP3 SWAP2 PUSH1 0x0 DUP1 MLOAD PUSH1 0x20 PUSH2 0x30A0 DUP4 CODECOPY DUP2 MLOAD SWAP2 MSTORE SWAP2 LOG2 PUSH1 0x0 PUSH2 0xAA0 PUSH1 0x12 PUSH2 0x1881 JUMP JUMPDEST SWAP1 POP PUSH1 0x0 JUMPDEST DUP2 DUP2 LT ISZERO PUSH2 0xB43 JUMPI PUSH2 0xAB8 PUSH1 0x12 DUP3 PUSH2 0x188B JUMP JUMPDEST PUSH1 0xA SLOAD PUSH1 0xB SLOAD PUSH1 0xC SLOAD PUSH1 0x40 MLOAD PUSH4 0xB91DC4BB PUSH1 0xE0 SHL DUP2 MSTORE PUSH1 0x1 PUSH1 0x1 PUSH1 0xA0 SHL SUB SWAP4 DUP5 AND PUSH1 0x4 DUP3 ADD MSTORE SWAP2 DUP4 AND PUSH1 0x24 DUP4 ADD MSTORE PUSH1 0x44 DUP3 ADD DUP9 SWAP1 MSTORE PUSH1 0x64 DUP3 ADD MSTORE SWAP2 AND SWAP1 PUSH4 0xB91DC4BB SWAP1 PUSH1 0x84 ADD PUSH1 0x0 PUSH1 0x40 MLOAD DUP1 DUP4 SUB DUP2 PUSH1 0x0 DUP8 DUP1 EXTCODESIZE ISZERO DUP1 ISZERO PUSH2 0xB18 JUMPI PUSH1 0x0 DUP1 REVERT JUMPDEST POP GAS CALL ISZERO DUP1 ISZERO PUSH2 0xB2C JUMPI RETURNDATASIZE PUSH1 0x0 DUP1 RETURNDATACOPY RETURNDATASIZE PUSH1 0x0 REVERT JUMPDEST POP POP POP POP DUP1 DUP1 PUSH2 0xB3B SWAP1 PUSH2 0x2BAD JUMP JUMPDEST SWAP2 POP POP PUSH2 0xAA5 JUMP JUMPDEST POP PUSH1 0xB SLOAD PUSH1 0xA SLOAD PUSH1 0xC SLOAD PUSH1 0x40 MLOAD SWAP1 DUP2 MSTORE DUP6 SWAP3 PUSH1 0x1 PUSH1 0x1 PUSH1 0xA0 SHL SUB SWAP1 DUP2 AND SWAP3 AND SWAP1 PUSH32 0xC6EF891DE9793CB5ACEFEA4D38D25452DA06C1B8A922180EEB0F324523B326A0 SWAP1 PUSH1 0x20 ADD PUSH1 0x40 MLOAD DUP1 SWAP2 SUB SWAP1 LOG4 POP POP POP POP JUMP JUMPDEST PUSH1 0x0 DUP1 MLOAD PUSH1 0x20 PUSH2 0x3080 DUP4 CODECOPY DUP2 MLOAD SWAP2 MSTORE PUSH2 0xBAE DUP2 PUSH2 0x1680 JUMP JUMPDEST POP PUSH1 0x7 DUP1 SLOAD PUSH1 0x1 PUSH1 0x1 PUSH1 0xA0 SHL SUB SWAP3 SWAP1 SWAP3 AND PUSH1 0x1 PUSH1 0x1 PUSH1 0xA0 SHL SUB NOT SWAP3 DUP4 AND DUP2 OR SWAP1 SWAP2 SSTORE PUSH1 0x4 DUP1 SLOAD SWAP1 SWAP3 AND OR SWAP1 SSTORE JUMP JUMPDEST PUSH1 0x0 PUSH1 0x0 DUP1 MLOAD PUSH1 0x20 PUSH2 0x3080 DUP4 CODECOPY DUP2 MLOAD SWAP2 MSTORE PUSH2 0xBF6 DUP2 PUSH2 0x1680 JUMP JUMPDEST PUSH8 0xDE0B6B3A7640000 PUSH1 0x9 SLOAD PUSH1 0x64 PUSH2 0xC0E SWAP2 SWAP1 PUSH2 0x2BC6 JUMP JUMPDEST PUSH2 0xC18 SWAP2 SWAP1 PUSH2 0x2BF3 JUMP JUMPDEST SWAP2 POP POP SWAP1 JUMP JUMPDEST PUSH1 0x0 DUP1 MLOAD PUSH1 0x20 PUSH2 0x3080 DUP4 CODECOPY DUP2 MLOAD SWAP2 MSTORE PUSH2 0xC36 DUP2 PUSH2 0x1680 JUMP JUMPDEST PUSH2 0xC41 PUSH1 0x12 DUP4 PUSH2 0x1897 JUMP JUMPDEST PUSH2 0xA27 JUMPI PUSH1 0x40 MLOAD PUSH4 0x6E971BB PUSH1 0xE3 SHL DUP2 MSTORE PUSH1 0x4 ADD PUSH1 0x40 MLOAD DUP1 SWAP2 SUB SWAP1 REVERT JUMPDEST PUSH1 0x0 PUSH2 0xC6A PUSH1 0x12 PUSH2 0x1881 JUMP JUMPDEST SWAP1 POP SWAP1 JUMP JUMPDEST PUSH1 0x0 PUSH2 0x620 PUSH1 0x12 DUP4 PUSH2 0x188B JUMP JUMPDEST PUSH1 0x0 DUP1 MLOAD PUSH1 0x20 PUSH2 0x3080 DUP4 CODECOPY DUP2 MLOAD SWAP2 MSTORE PUSH2 0xC94 DUP2 PUSH2 0x1680 JUMP JUMPDEST PUSH1 0x0 PUSH2 0xCA8 PUSH1 0x3 SLOAD PUSH1 0x1 PUSH1 0x1 PUSH1 0xA0 SHL SUB AND SWAP1 JUMP JUMPDEST SWAP1 POP PUSH1 0x1 PUSH1 0x1 PUSH1 0xA0 SHL SUB DUP2 AND PUSH4 0xA9059CBB CALLER PUSH1 0x40 MLOAD PUSH4 0x70A08231 PUSH1 0xE0 SHL DUP2 MSTORE PUSH1 0x1 PUSH1 0x1 PUSH1 0xA0 SHL SUB DUP6 AND SWAP1 PUSH4 0x70A08231 SWAP1 PUSH2 0xCE6 SWAP1 ADDRESS SWAP1 PUSH1 0x4 ADD PUSH2 0x27EF JUMP JUMPDEST PUSH1 0x20 PUSH1 0x40 MLOAD DUP1 DUP4 SUB DUP2 DUP7 GAS STATICCALL ISZERO DUP1 ISZERO PUSH2 0xD03 JUMPI RETURNDATASIZE PUSH1 0x0 DUP1 RETURNDATACOPY RETURNDATASIZE PUSH1 0x0 REVERT JUMPDEST POP POP POP POP PUSH1 0x40 MLOAD RETURNDATASIZE PUSH1 0x1F NOT PUSH1 0x1F DUP3 ADD AND DUP3 ADD DUP1 PUSH1 0x40 MSTORE POP DUP2 ADD SWAP1 PUSH2 0xD27 SWAP2 SWAP1 PUSH2 0x2C07 JUMP JUMPDEST PUSH1 0x40 MLOAD DUP4 PUSH4 0xFFFFFFFF AND PUSH1 0xE0 SHL DUP2 MSTORE PUSH1 0x4 ADD PUSH2 0xD44 SWAP3 SWAP2 SWAP1 PUSH2 0x2C20 JUMP JUMPDEST PUSH1 0x20 PUSH1 0x40 MLOAD DUP1 DUP4 SUB DUP2 PUSH1 0x0 DUP8 GAS CALL ISZERO DUP1 ISZERO PUSH2 0xD63 JUMPI RETURNDATASIZE PUSH1 0x0 DUP1 RETURNDATACOPY RETURNDATASIZE PUSH1 0x0 REVERT JUMPDEST POP POP POP POP PUSH1 0x40 MLOAD RETURNDATASIZE PUSH1 0x1F NOT PUSH1 0x1F DUP3 ADD AND DUP3 ADD DUP1 PUSH1 0x40 MSTORE POP DUP2 ADD SWAP1 PUSH2 0xD87 SWAP2 SWAP1 PUSH2 0x2C39 JUMP JUMPDEST PUSH2 0xA27 JUMPI PUSH1 0x40 MLOAD PUSH4 0x13FF771F PUSH1 0xE2 SHL DUP2 MSTORE PUSH1 0x4 ADD PUSH1 0x40 MLOAD DUP1 SWAP2 SUB SWAP1 REVERT JUMPDEST PUSH1 0x0 SWAP2 DUP3 MSTORE PUSH1 0x20 DUP3 DUP2 MSTORE PUSH1 0x40 DUP1 DUP5 KECCAK256 PUSH1 0x1 PUSH1 0x1 PUSH1 0xA0 SHL SUB SWAP4 SWAP1 SWAP4 AND DUP5 MSTORE SWAP2 SWAP1 MSTORE SWAP1 KECCAK256 SLOAD PUSH1 0xFF AND SWAP1 JUMP JUMPDEST PUSH1 0x0 DUP1 MLOAD PUSH1 0x20 PUSH2 0x3080 DUP4 CODECOPY DUP2 MLOAD SWAP2 MSTORE PUSH2 0xDE5 DUP2 PUSH2 0x1680 JUMP JUMPDEST PUSH2 0xDF0 PUSH1 0x12 DUP4 PUSH2 0x18AC JUMP JUMPDEST PUSH2 0xA27 JUMPI PUSH1 0x40 MLOAD PUSH4 0x5C46F67 PUSH1 0xE3 SHL DUP2 MSTORE PUSH1 0x4 ADD PUSH1 0x40 MLOAD DUP1 SWAP2 SUB SWAP1 REVERT JUMPDEST PUSH1 0x60 PUSH1 0x0 DUP1 MLOAD PUSH1 0x20 PUSH2 0x3080 DUP4 CODECOPY DUP2 MLOAD SWAP2 MSTORE PUSH2 0xE27 DUP2 PUSH2 0x1680 JUMP JUMPDEST PUSH1 0x8 SLOAD PUSH1 0x40 MLOAD PUSH1 0x20 ADD PUSH2 0xE3C SWAP2 DUP2 MSTORE PUSH1 0x20 ADD SWAP1 JUMP JUMPDEST PUSH1 0x40 MLOAD PUSH1 0x20 DUP2 DUP4 SUB SUB DUP2 MSTORE SWAP1 PUSH1 0x40 MSTORE SWAP2 POP POP SWAP1 JUMP JUMPDEST PUSH1 0x0 PUSH1 0x0 DUP1 MLOAD PUSH1 0x20 PUSH2 0x3080 DUP4 CODECOPY DUP2 MLOAD SWAP2 MSTORE PUSH2 0xE6B DUP2 PUSH2 0x1680 JUMP JUMPDEST POP POP PUSH1 0x7 SLOAD PUSH1 0x1 PUSH1 0x1 PUSH1 0xA0 SHL SUB AND SWAP1 JUMP JUMPDEST PUSH2 0xE85 DUP3 PUSH2 0x977 JUMP JUMPDEST PUSH2 0xE8E DUP2 PUSH2 0x1680 JUMP JUMPDEST PUSH2 0x9A8 DUP4 DUP4 PUSH2 0x181C JUMP JUMPDEST PUSH1 0x0 DUP1 MLOAD PUSH1 0x20 PUSH2 0x3080 DUP4 CODECOPY DUP2 MLOAD SWAP2 MSTORE PUSH2 0xEB0 DUP2 PUSH2 0x1680 JUMP JUMPDEST POP PUSH1 0x9 SSTORE JUMP JUMPDEST PUSH1 0x0 DUP1 MLOAD PUSH1 0x20 PUSH2 0x3080 DUP4 CODECOPY DUP2 MLOAD SWAP2 MSTORE PUSH2 0xECE DUP2 PUSH2 0x1680 JUMP JUMPDEST PUSH1 0x10 SLOAD PUSH1 0xFF AND PUSH2 0xEF1 JUMPI PUSH1 0x40 MLOAD PUSH4 0x7D683D53 PUSH1 0xE0 SHL DUP2 MSTORE PUSH1 0x4 ADD PUSH1 0x40 MLOAD DUP1 SWAP2 SUB SWAP1 REVERT JUMPDEST PUSH1 0xD SLOAD PUSH1 0x1 PUSH1 0x1 PUSH1 0xA0 SHL SUB AND PUSH20 0xEEEEEEEEEEEEEEEEEEEEEEEEEEEEEEEEEEEEEEED NOT ADD PUSH2 0xFE1 JUMPI PUSH2 0xFDB PUSH1 0x11 DUP1 SLOAD PUSH2 0xF28 SWAP1 PUSH2 0x296C JUMP JUMPDEST DUP1 PUSH1 0x1F ADD PUSH1 0x20 DUP1 SWAP2 DIV MUL PUSH1 0x20 ADD PUSH1 0x40 MLOAD SWAP1 DUP2 ADD PUSH1 0x40 MSTORE DUP1 SWAP3 SWAP2 SWAP1 DUP2 DUP2 MSTORE PUSH1 0x20 ADD DUP3 DUP1 SLOAD PUSH2 0xF54 SWAP1 PUSH2 0x296C JUMP JUMPDEST DUP1 ISZERO PUSH2 0xFA1 JUMPI DUP1 PUSH1 0x1F LT PUSH2 0xF76 JUMPI PUSH2 0x100 DUP1 DUP4 SLOAD DIV MUL DUP4 MSTORE SWAP2 PUSH1 0x20 ADD SWAP2 PUSH2 0xFA1 JUMP JUMPDEST DUP3 ADD SWAP2 SWAP1 PUSH1 0x0 MSTORE PUSH1 0x20 PUSH1 0x0 KECCAK256 SWAP1 JUMPDEST DUP2 SLOAD DUP2 MSTORE SWAP1 PUSH1 0x1 ADD SWAP1 PUSH1 0x20 ADD DUP1 DUP4 GT PUSH2 0xF84 JUMPI DUP3 SWAP1 SUB PUSH1 0x1F AND DUP3 ADD SWAP2 JUMPDEST POP POP PUSH1 0xF SLOAD PUSH1 0x1 PUSH1 0x1 PUSH1 0xA0 SHL SUB PUSH32 0x0 AND SWAP5 SWAP4 POP SWAP2 POP POP PUSH2 0x18C1 JUMP JUMPDEST POP PUSH2 0x10A9 JUMP JUMPDEST PUSH2 0x10A7 PUSH1 0x11 DUP1 SLOAD PUSH2 0xFF1 SWAP1 PUSH2 0x296C JUMP JUMPDEST DUP1 PUSH1 0x1F ADD PUSH1 0x20 DUP1 SWAP2 DIV MUL PUSH1 0x20 ADD PUSH1 0x40 MLOAD SWAP1 DUP2 ADD PUSH1 0x40 MSTORE DUP1 SWAP3 SWAP2 SWAP1 DUP2 DUP2 MSTORE PUSH1 0x20 ADD DUP3 DUP1 SLOAD PUSH2 0x101D SWAP1 PUSH2 0x296C JUMP JUMPDEST DUP1 ISZERO PUSH2 0x106A JUMPI DUP1 PUSH1 0x1F LT PUSH2 0x103F JUMPI PUSH2 0x100 DUP1 DUP4 SLOAD DIV MUL DUP4 MSTORE SWAP2 PUSH1 0x20 ADD SWAP2 PUSH2 0x106A JUMP JUMPDEST DUP3 ADD SWAP2 SWAP1 PUSH1 0x0 MSTORE PUSH1 0x20 PUSH1 0x0 KECCAK256 SWAP1 JUMPDEST DUP2 SLOAD DUP2 MSTORE SWAP1 PUSH1 0x1 ADD SWAP1 PUSH1 0x20 ADD DUP1 DUP4 GT PUSH2 0x104D JUMPI DUP3 SWAP1 SUB PUSH1 0x1F AND DUP3 ADD SWAP2 JUMPDEST POP POP POP POP POP PUSH32 0x0 PUSH1 0x1 PUSH1 0x1 PUSH1 0xA0 SHL SUB AND PUSH2 0x18E7 SWAP1 SWAP2 SWAP1 PUSH4 0xFFFFFFFF AND JUMP JUMPDEST POP JUMPDEST PUSH1 0xF SLOAD PUSH1 0xE SLOAD PUSH1 0xD SLOAD PUSH1 0x40 MLOAD PUSH1 0x1 PUSH1 0x1 PUSH1 0xA0 SHL SUB SWAP3 DUP4 AND SWAP3 SWAP1 SWAP2 AND SWAP1 PUSH32 0xE8A8F43C967965902142E0F7BD4B7B3C55FC5B1A0DF5E84FA8DED5CAFE927706 SWAP1 PUSH1 0x0 SWAP1 LOG4 POP PUSH1 0x10 DUP1 SLOAD PUSH1 0xFF NOT AND SWAP1 SSTORE JUMP JUMPDEST PUSH1 0x0 DUP1 MLOAD PUSH1 0x20 PUSH2 0x30C0 DUP4 CODECOPY DUP2 MLOAD SWAP2 MSTORE PUSH2 0x1110 DUP2 PUSH2 0x1680 JUMP JUMPDEST PUSH1 0x32 DUP3 PUSH1 0xFF AND GT ISZERO PUSH2 0x1135 JUMPI PUSH1 0x40 MLOAD PUSH4 0x36EE37FB PUSH1 0xE2 SHL DUP2 MSTORE PUSH1 0x4 ADD PUSH1 0x40 MLOAD DUP1 SWAP2 SUB SWAP1 REVERT JUMPDEST PUSH1 0x1 PUSH1 0x1 PUSH1 0xA0 SHL SUB DUP6 AND PUSH20 0xEEEEEEEEEEEEEEEEEEEEEEEEEEEEEEEEEEEEEEEE EQ DUP1 ISZERO PUSH2 0x1160 JUMPI POP CALLVALUE DUP4 LT JUMPDEST ISZERO PUSH2 0x117E JUMPI PUSH1 0x40 MLOAD PUSH4 0xDD86F53 PUSH1 0xE1 SHL DUP2 MSTORE PUSH1 0x4 ADD PUSH1 0x40 MLOAD DUP1 SWAP2 SUB SWAP1 REVERT JUMPDEST PUSH1 0x10 DUP1 SLOAD PUSH1 0xFF NOT AND SWAP1 SSTORE CALLER DUP6 PUSH2 0x119F PUSH1 0x1 PUSH1 0x1 PUSH1 0xA0 SHL SUB DUP3 AND DUP4 ADDRESS DUP9 PUSH2 0x192B JUMP JUMPDEST PUSH1 0x40 MLOAD PUSH4 0x6EB1769F PUSH1 0xE1 SHL DUP2 MSTORE DUP6 SWAP1 PUSH1 0x1 PUSH1 0x1 PUSH1 0xA0 SHL SUB DUP4 AND SWAP1 PUSH4 0xDD62ED3E SWAP1 PUSH2 0x11EF SWAP1 ADDRESS SWAP1 PUSH32 0x0 SWAP1 PUSH1 0x4 ADD PUSH2 0x2C5B JUMP JUMPDEST PUSH1 0x20 PUSH1 0x40 MLOAD DUP1 DUP4 SUB DUP2 DUP7 GAS STATICCALL ISZERO DUP1 ISZERO PUSH2 0x120C JUMPI RETURNDATASIZE PUSH1 0x0 DUP1 RETURNDATACOPY RETURNDATASIZE PUSH1 0x0 REVERT JUMPDEST POP POP POP POP PUSH1 0x40 MLOAD RETURNDATASIZE PUSH1 0x1F NOT PUSH1 0x1F DUP3 ADD AND DUP3 ADD DUP1 PUSH1 0x40 MSTORE POP DUP2 ADD SWAP1 PUSH2 0x1230 SWAP2 SWAP1 PUSH2 0x2C07 JUMP JUMPDEST LT ISZERO PUSH2 0x12CB JUMPI PUSH1 0x40 MLOAD PUSH4 0x95EA7B3 PUSH1 0xE0 SHL DUP2 MSTORE PUSH1 0x1 PUSH1 0x1 PUSH1 0xA0 SHL SUB DUP3 AND SWAP1 PUSH4 0x95EA7B3 SWAP1 PUSH2 0x1286 SWAP1 PUSH32 0x0 SWAP1 PUSH1 0x0 NOT SWAP1 PUSH1 0x4 ADD PUSH2 0x2C20 JUMP JUMPDEST PUSH1 0x20 PUSH1 0x40 MLOAD DUP1 DUP4 SUB DUP2 PUSH1 0x0 DUP8 GAS CALL ISZERO DUP1 ISZERO PUSH2 0x12A5 JUMPI RETURNDATASIZE PUSH1 0x0 DUP1 RETURNDATACOPY RETURNDATASIZE PUSH1 0x0 REVERT JUMPDEST POP POP POP POP PUSH1 0x40 MLOAD RETURNDATASIZE PUSH1 0x1F NOT PUSH1 0x1F DUP3 ADD AND DUP3 ADD DUP1 PUSH1 0x40 MSTORE POP DUP2 ADD SWAP1 PUSH2 0x12C9 SWAP2 SWAP1 PUSH2 0x2C39 JUMP JUMPDEST POP JUMPDEST PUSH1 0x40 MLOAD PUSH4 0x6EB1769F PUSH1 0xE1 SHL DUP2 MSTORE DUP8 SWAP1 DUP7 SWAP1 PUSH1 0x1 PUSH1 0x1 PUSH1 0xA0 SHL SUB DUP4 AND SWAP1 PUSH4 0xDD62ED3E SWAP1 PUSH2 0x131D SWAP1 ADDRESS SWAP1 PUSH32 0x0 SWAP1 PUSH1 0x4 ADD PUSH2 0x2C5B JUMP JUMPDEST PUSH1 0x20 PUSH1 0x40 MLOAD DUP1 DUP4 SUB DUP2 DUP7 GAS STATICCALL ISZERO DUP1 ISZERO PUSH2 0x133A JUMPI RETURNDATASIZE PUSH1 0x0 DUP1 RETURNDATACOPY RETURNDATASIZE PUSH1 0x0 REVERT JUMPDEST POP POP POP POP PUSH1 0x40 MLOAD RETURNDATASIZE PUSH1 0x1F NOT PUSH1 0x1F DUP3 ADD AND DUP3 ADD DUP1 PUSH1 0x40 MSTORE POP DUP2 ADD SWAP1 PUSH2 0x135E SWAP2 SWAP1 PUSH2 0x2C07 JUMP JUMPDEST LT ISZERO PUSH2 0x13F9 JUMPI PUSH1 0x40 MLOAD PUSH4 0x95EA7B3 PUSH1 0xE0 SHL DUP2 MSTORE PUSH1 0x1 PUSH1 0x1 PUSH1 0xA0 SHL SUB DUP3 AND SWAP1 PUSH4 0x95EA7B3 SWAP1 PUSH2 0x13B4 SWAP1 PUSH32 0x0 SWAP1 PUSH1 0x0 NOT SWAP1 PUSH1 0x4 ADD PUSH2 0x2C20 JUMP JUMPDEST PUSH1 0x20 PUSH1 0x40 MLOAD DUP1 DUP4 SUB DUP2 PUSH1 0x0 DUP8 GAS CALL ISZERO DUP1 ISZERO PUSH2 0x13D3 JUMPI RETURNDATASIZE PUSH1 0x0 DUP1 RETURNDATACOPY RETURNDATASIZE PUSH1 0x0 REVERT JUMPDEST POP POP POP POP PUSH1 0x40 MLOAD RETURNDATASIZE PUSH1 0x1F NOT PUSH1 0x1F DUP3 ADD AND DUP3 ADD DUP1 PUSH1 0x40 MSTORE POP DUP2 ADD SWAP1 PUSH2 0x13F7 SWAP2 SWAP1 PUSH2 0x2C39 JUMP JUMPDEST POP JUMPDEST PUSH1 0x0 PUSH2 0x140E PUSH1 0x8 SLOAD PUSH4 0x2458AD8 PUSH1 0xE0 SHL PUSH2 0x168D JUMP JUMPDEST SWAP1 POP PUSH2 0x145E PUSH1 0x40 MLOAD DUP1 PUSH1 0x40 ADD PUSH1 0x40 MSTORE DUP1 PUSH1 0x6 DUP2 MSTORE PUSH1 0x20 ADD PUSH6 0x1B595D1A1BD9 PUSH1 0xD2 SHL DUP2 MSTORE POP PUSH1 0x40 MLOAD DUP1 PUSH1 0x40 ADD PUSH1 0x40 MSTORE DUP1 PUSH1 0x3 DUP2 MSTORE PUSH1 0x20 ADD PUSH3 0x11D155 PUSH1 0xEA SHL DUP2 MSTORE POP DUP4 PUSH2 0x16B1 SWAP1 SWAP3 SWAP2 SWAP1 PUSH4 0xFFFFFFFF AND JUMP JUMPDEST PUSH2 0x14CB PUSH1 0x40 MLOAD DUP1 PUSH1 0x40 ADD PUSH1 0x40 MSTORE DUP1 PUSH1 0x3 DUP2 MSTORE PUSH1 0x20 ADD PUSH3 0x1D5C9B PUSH1 0xEA SHL DUP2 MSTORE POP PUSH2 0x1486 DUP12 PUSH2 0x16CF JUMP JUMPDEST PUSH2 0x148F DUP12 PUSH2 0x16CF JUMP JUMPDEST PUSH2 0x1498 DUP12 PUSH2 0x16E5 JUMP JUMPDEST PUSH2 0x14A1 ADDRESS PUSH2 0x16CF JUMP JUMPDEST PUSH2 0x14AD DUP13 PUSH1 0xFF AND PUSH2 0x16E5 JUMP JUMPDEST PUSH2 0x14B6 DUP12 PUSH2 0x16CF JUMP JUMPDEST PUSH1 0x40 MLOAD PUSH1 0x20 ADD PUSH2 0x7E6 SWAP7 SWAP6 SWAP5 SWAP4 SWAP3 SWAP2 SWAP1 PUSH2 0x2C75 JUMP JUMPDEST PUSH2 0x150F PUSH1 0x40 MLOAD DUP1 PUSH1 0x40 ADD PUSH1 0x40 MSTORE DUP1 PUSH1 0x7 DUP2 MSTORE PUSH1 0x20 ADD PUSH7 0x68656164657273 PUSH1 0xC8 SHL DUP2 MSTORE POP PUSH1 0x40 MLOAD DUP1 PUSH1 0x80 ADD PUSH1 0x40 MSTORE DUP1 PUSH1 0x46 DUP2 MSTORE PUSH1 0x20 ADD PUSH2 0x2FF1 PUSH1 0x46 SWAP2 CODECOPY DUP4 SWAP2 SWAP1 PUSH2 0x16B1 JUMP JUMPDEST PUSH2 0x154F PUSH1 0x40 MLOAD DUP1 PUSH1 0x40 ADD PUSH1 0x40 MSTORE DUP1 PUSH1 0x4 DUP2 MSTORE PUSH1 0x20 ADD PUSH4 0x626F6479 PUSH1 0xE0 SHL DUP2 MSTORE POP PUSH1 0x40 MLOAD DUP1 PUSH1 0x20 ADD PUSH1 0x40 MSTORE DUP1 PUSH1 0x0 DUP2 MSTORE POP DUP4 PUSH2 0x16B1 SWAP1 SWAP3 SWAP2 SWAP1 PUSH4 0xFFFFFFFF AND JUMP JUMPDEST PUSH2 0x15A8 PUSH1 0x40 MLOAD DUP1 PUSH1 0x40 ADD PUSH1 0x40 MSTORE DUP1 PUSH1 0x7 DUP2 MSTORE PUSH1 0x20 ADD PUSH7 0x18DBDB9D1858DD PUSH1 0xCA SHL DUP2 MSTORE POP PUSH1 0x40 MLOAD DUP1 PUSH1 0x40 ADD PUSH1 0x40 MSTORE DUP1 PUSH1 0xD DUP2 MSTORE PUSH1 0x20 ADD PUSH13 0x6C6F6375732D66696E616E6365 PUSH1 0x98 SHL DUP2 MSTORE POP DUP4 PUSH2 0x16B1 SWAP1 SWAP3 SWAP2 SWAP1 PUSH4 0xFFFFFFFF AND JUMP JUMPDEST PUSH2 0x15F8 PUSH1 0x40 MLOAD DUP1 PUSH1 0x40 ADD PUSH1 0x40 MSTORE DUP1 PUSH1 0x4 DUP2 MSTORE PUSH1 0x20 ADD PUSH4 0xE0C2E8D PUSH1 0xE3 SHL DUP2 MSTORE POP PUSH1 0x40 MLOAD DUP1 PUSH1 0x40 ADD PUSH1 0x40 MSTORE DUP1 PUSH1 0x7 DUP2 MSTORE PUSH1 0x20 ADD PUSH7 0x74782C64617461 PUSH1 0xC8 SHL DUP2 MSTORE POP DUP4 PUSH2 0x16B1 SWAP1 SWAP3 SWAP2 SWAP1 PUSH4 0xFFFFFFFF AND JUMP JUMPDEST PUSH1 0xD DUP1 SLOAD PUSH1 0x1 PUSH1 0x1 PUSH1 0xA0 SHL SUB DUP1 DUP13 AND PUSH1 0x1 PUSH1 0x1 PUSH1 0xA0 SHL SUB NOT SWAP3 DUP4 AND OR SWAP1 SWAP3 SSTORE PUSH1 0xE DUP1 SLOAD SWAP3 DUP12 AND SWAP3 SWAP1 SWAP2 AND SWAP2 SWAP1 SWAP2 OR SWAP1 SSTORE PUSH1 0xF DUP8 SWAP1 SSTORE PUSH1 0x9 SLOAD PUSH2 0x163B SWAP1 DUP3 SWAP1 PUSH2 0x1777 JUMP JUMPDEST POP POP POP POP POP POP POP POP POP POP JUMP JUMPDEST PUSH1 0x0 DUP1 MLOAD PUSH1 0x20 PUSH2 0x3080 DUP4 CODECOPY DUP2 MLOAD SWAP2 MSTORE PUSH2 0x165F DUP2 PUSH2 0x1680 JUMP JUMPDEST PUSH2 0xA27 PUSH1 0x64 PUSH2 0x1676 PUSH8 0xDE0B6B3A7640000 DUP6 PUSH2 0x2BC6 JUMP JUMPDEST PUSH2 0x56E SWAP2 SWAP1 PUSH2 0x2BF3 JUMP JUMPDEST PUSH2 0x168A DUP2 CALLER PUSH2 0x198B JUMP JUMPDEST POP JUMP JUMPDEST PUSH2 0x1695 PUSH2 0x25D8 JUMP JUMPDEST PUSH2 0x169D PUSH2 0x25D8 JUMP JUMPDEST PUSH2 0x16A9 DUP2 DUP6 ADDRESS DUP7 PUSH2 0x19E4 JUMP JUMPDEST SWAP5 SWAP4 POP POP POP POP JUMP JUMPDEST PUSH1 0x80 DUP4 ADD MLOAD PUSH2 0x16C0 SWAP1 DUP4 PUSH2 0x1A21 JUMP JUMPDEST PUSH1 0x80 DUP4 ADD MLOAD PUSH2 0x9A8 SWAP1 DUP3 PUSH2 0x1A21 JUMP JUMPDEST PUSH1 0x60 PUSH2 0x620 PUSH1 0x1 PUSH1 0x1 PUSH1 0xA0 SHL SUB DUP4 AND PUSH1 0x14 PUSH2 0x1A38 JUMP JUMPDEST PUSH1 0x60 PUSH1 0x0 PUSH2 0x16F2 DUP4 PUSH2 0x1BD3 JUMP JUMPDEST PUSH1 0x1 ADD SWAP1 POP PUSH1 0x0 DUP2 PUSH1 0x1 PUSH1 0x1 PUSH1 0x40 SHL SUB DUP2 GT ISZERO PUSH2 0x1711 JUMPI PUSH2 0x1711 PUSH2 0x2651 JUMP JUMPDEST PUSH1 0x40 MLOAD SWAP1 DUP1 DUP3 MSTORE DUP1 PUSH1 0x1F ADD PUSH1 0x1F NOT AND PUSH1 0x20 ADD DUP3 ADD PUSH1 0x40 MSTORE DUP1 ISZERO PUSH2 0x173B JUMPI PUSH1 0x20 DUP3 ADD DUP2 DUP1 CALLDATASIZE DUP4 CALLDATACOPY ADD SWAP1 POP JUMPDEST POP SWAP1 POP DUP2 DUP2 ADD PUSH1 0x20 ADD JUMPDEST PUSH1 0x0 NOT ADD PUSH16 0x181899199A1A9B1B9C1CB0B131B232B3 PUSH1 0x81 SHL PUSH1 0xA DUP7 MOD BYTE DUP2 MSTORE8 PUSH1 0xA DUP6 DIV SWAP5 POP DUP5 PUSH2 0x1745 JUMPI POP SWAP4 SWAP3 POP POP POP JUMP JUMPDEST PUSH1 0x4 SLOAD PUSH1 0x0 SWAP1 PUSH2 0x1791 SWAP1 PUSH1 0x1 PUSH1 0x1 PUSH1 0xA0 SHL SUB AND DUP5 DUP5 PUSH2 0x1CA9 JUMP JUMPDEST SWAP4 SWAP3 POP POP POP JUMP JUMPDEST PUSH2 0x17A2 DUP3 DUP3 PUSH2 0xDA4 JUMP JUMPDEST PUSH2 0xA27 JUMPI PUSH1 0x0 DUP3 DUP2 MSTORE PUSH1 0x20 DUP2 DUP2 MSTORE PUSH1 0x40 DUP1 DUP4 KECCAK256 PUSH1 0x1 PUSH1 0x1 PUSH1 0xA0 SHL SUB DUP6 AND DUP5 MSTORE SWAP1 SWAP2 MSTORE SWAP1 KECCAK256 DUP1 SLOAD PUSH1 0xFF NOT AND PUSH1 0x1 OR SWAP1 SSTORE PUSH2 0x17D8 CALLER SWAP1 JUMP JUMPDEST PUSH1 0x1 PUSH1 0x1 PUSH1 0xA0 SHL SUB AND DUP2 PUSH1 0x1 PUSH1 0x1 PUSH1 0xA0 SHL SUB AND DUP4 PUSH32 0x2F8788117E7EFF1D82E926EC794901D17C78024A50270940304540A733656F0D PUSH1 0x40 MLOAD PUSH1 0x40 MLOAD DUP1 SWAP2 SUB SWAP1 LOG4 POP POP JUMP JUMPDEST PUSH2 0x1826 DUP3 DUP3 PUSH2 0xDA4 JUMP JUMPDEST ISZERO PUSH2 0xA27 JUMPI PUSH1 0x0 DUP3 DUP2 MSTORE PUSH1 0x20 DUP2 DUP2 MSTORE PUSH1 0x40 DUP1 DUP4 KECCAK256 PUSH1 0x1 PUSH1 0x1 PUSH1 0xA0 SHL SUB DUP6 AND DUP1 DUP6 MSTORE SWAP3 MSTORE DUP1 DUP4 KECCAK256 DUP1 SLOAD PUSH1 0xFF NOT AND SWAP1 SSTORE MLOAD CALLER SWAP3 DUP6 SWAP2 PUSH32 0xF6391F5C32D9C69D2A47EA670B442974B53935D1EDC7FD64EB21E047A839171B SWAP2 SWAP1 LOG4 POP POP JUMP JUMPDEST PUSH1 0x0 PUSH2 0x620 DUP3 SLOAD SWAP1 JUMP JUMPDEST PUSH1 0x0 PUSH2 0x1791 DUP4 DUP4 PUSH2 0x1D3A JUMP JUMPDEST PUSH1 0x0 PUSH2 0x1791 DUP4 PUSH1 0x1 PUSH1 0x1 PUSH1 0xA0 SHL SUB DUP5 AND PUSH2 0x1D64 JUMP JUMPDEST PUSH1 0x0 PUSH2 0x1791 DUP4 PUSH1 0x1 PUSH1 0x1 PUSH1 0xA0 SHL SUB DUP5 AND PUSH2 0x1E57 JUMP JUMPDEST PUSH1 0x60 PUSH2 0x16A9 DUP5 DUP5 DUP5 PUSH1 0x40 MLOAD DUP1 PUSH1 0x60 ADD PUSH1 0x40 MSTORE DUP1 PUSH1 0x29 DUP2 MSTORE PUSH1 0x20 ADD PUSH2 0x3037 PUSH1 0x29 SWAP2 CODECOPY PUSH2 0x1EA6 JUMP JUMPDEST PUSH1 0x60 PUSH2 0x1791 DUP4 DUP4 PUSH1 0x0 PUSH1 0x40 MLOAD DUP1 PUSH1 0x40 ADD PUSH1 0x40 MSTORE DUP1 PUSH1 0x1E DUP2 MSTORE PUSH1 0x20 ADD PUSH32 0x416464726573733A206C6F772D6C6576656C2063616C6C206661696C65640000 DUP2 MSTORE POP PUSH2 0x1EA6 JUMP JUMPDEST PUSH1 0x40 DUP1 MLOAD PUSH1 0x1 PUSH1 0x1 PUSH1 0xA0 SHL SUB DUP6 DUP2 AND PUSH1 0x24 DUP4 ADD MSTORE DUP5 AND PUSH1 0x44 DUP3 ADD MSTORE PUSH1 0x64 DUP1 DUP3 ADD DUP5 SWAP1 MSTORE DUP3 MLOAD DUP1 DUP4 SUB SWAP1 SWAP2 ADD DUP2 MSTORE PUSH1 0x84 SWAP1 SWAP2 ADD SWAP1 SWAP2 MSTORE PUSH1 0x20 DUP2 ADD DUP1 MLOAD PUSH1 0x1 PUSH1 0x1 PUSH1 0xE0 SHL SUB AND PUSH4 0x23B872DD PUSH1 0xE0 SHL OR SWAP1 MSTORE PUSH2 0x1985 SWAP1 DUP6 SWAP1 PUSH2 0x1F81 JUMP JUMPDEST POP POP POP POP JUMP JUMPDEST PUSH2 0x1995 DUP3 DUP3 PUSH2 0xDA4 JUMP JUMPDEST PUSH2 0xA27 JUMPI PUSH2 0x19A2 DUP2 PUSH2 0x16CF JUMP JUMPDEST PUSH2 0x19AD DUP4 PUSH1 0x20 PUSH2 0x1A38 JUMP JUMPDEST PUSH1 0x40 MLOAD PUSH1 0x20 ADD PUSH2 0x19BE SWAP3 SWAP2 SWAP1 PUSH2 0x2D9C JUMP JUMPDEST PUSH1 0x40 DUP1 MLOAD PUSH1 0x1F NOT DUP2 DUP5 SUB ADD DUP2 MSTORE SWAP1 DUP3 SWAP1 MSTORE PUSH3 0x461BCD PUSH1 0xE5 SHL DUP3 MSTORE PUSH2 0x65E SWAP2 PUSH1 0x4 ADD PUSH2 0x28BC JUMP JUMPDEST PUSH2 0x19EC PUSH2 0x25D8 JUMP JUMPDEST PUSH2 0x19FC DUP6 PUSH1 0x80 ADD MLOAD PUSH2 0x100 PUSH2 0x2056 JUMP JUMPDEST POP POP SWAP2 DUP4 MSTORE PUSH1 0x1 PUSH1 0x1 PUSH1 0xA0 SHL SUB AND PUSH1 0x20 DUP4 ADD MSTORE PUSH1 0x1 PUSH1 0x1 PUSH1 0xE0 SHL SUB NOT AND PUSH1 0x40 DUP3 ADD MSTORE SWAP1 JUMP JUMPDEST PUSH2 0x1A2E DUP3 PUSH1 0x3 DUP4 MLOAD PUSH2 0x20AE JUMP JUMPDEST PUSH2 0x9A8 DUP3 DUP3 PUSH2 0x21B5 JUMP JUMPDEST PUSH1 0x60 PUSH1 0x0 PUSH2 0x1A47 DUP4 PUSH1 0x2 PUSH2 0x2BC6 JUMP JUMPDEST PUSH2 0x1A52 SWAP1 PUSH1 0x2 PUSH2 0x2E0B JUMP JUMPDEST PUSH1 0x1 PUSH1 0x1 PUSH1 0x40 SHL SUB DUP2 GT ISZERO PUSH2 0x1A69 JUMPI PUSH2 0x1A69 PUSH2 0x2651 JUMP JUMPDEST PUSH1 0x40 MLOAD SWAP1 DUP1 DUP3 MSTORE DUP1 PUSH1 0x1F ADD PUSH1 0x1F NOT AND PUSH1 0x20 ADD DUP3 ADD PUSH1 0x40 MSTORE DUP1 ISZERO PUSH2 0x1A93 JUMPI PUSH1 0x20 DUP3 ADD DUP2 DUP1 CALLDATASIZE DUP4 CALLDATACOPY ADD SWAP1 POP JUMPDEST POP SWAP1 POP PUSH1 0x3 PUSH1 0xFC SHL DUP2 PUSH1 0x0 DUP2 MLOAD DUP2 LT PUSH2 0x1AAE JUMPI PUSH2 0x1AAE PUSH2 0x2E1E JUMP JUMPDEST PUSH1 0x20 ADD ADD SWAP1 PUSH1 0x1 PUSH1 0x1 PUSH1 0xF8 SHL SUB NOT AND SWAP1 DUP2 PUSH1 0x0 BYTE SWAP1 MSTORE8 POP PUSH1 0xF PUSH1 0xFB SHL DUP2 PUSH1 0x1 DUP2 MLOAD DUP2 LT PUSH2 0x1ADD JUMPI PUSH2 0x1ADD PUSH2 0x2E1E JUMP JUMPDEST PUSH1 0x20 ADD ADD SWAP1 PUSH1 0x1 PUSH1 0x1 PUSH1 0xF8 SHL SUB NOT AND SWAP1 DUP2 PUSH1 0x0 BYTE SWAP1 MSTORE8 POP PUSH1 0x0 PUSH2 0x1B01 DUP5 PUSH1 0x2 PUSH2 0x2BC6 JUMP JUMPDEST PUSH2 0x1B0C SWAP1 PUSH1 0x1 PUSH2 0x2E0B JUMP JUMPDEST SWAP1 POP JUMPDEST PUSH1 0x1 DUP2 GT ISZERO PUSH2 0x1B84 JUMPI PUSH16 0x181899199A1A9B1B9C1CB0B131B232B3 PUSH1 0x81 SHL DUP6 PUSH1 0xF AND PUSH1 0x10 DUP2 LT PUSH2 0x1B40 JUMPI PUSH2 0x1B40 PUSH2 0x2E1E JUMP JUMPDEST BYTE PUSH1 0xF8 SHL DUP3 DUP3 DUP2 MLOAD DUP2 LT PUSH2 0x1B56 JUMPI PUSH2 0x1B56 PUSH2 0x2E1E JUMP JUMPDEST PUSH1 0x20 ADD ADD SWAP1 PUSH1 0x1 PUSH1 0x1 PUSH1 0xF8 SHL SUB NOT AND SWAP1 DUP2 PUSH1 0x0 BYTE SWAP1 MSTORE8 POP PUSH1 0x4 SWAP5 SWAP1 SWAP5 SHR SWAP4 PUSH2 0x1B7D DUP2 PUSH2 0x2E34 JUMP JUMPDEST SWAP1 POP PUSH2 0x1B0F JUMP JUMPDEST POP DUP4 ISZERO PUSH2 0x1791 JUMPI PUSH1 0x40 MLOAD PUSH3 0x461BCD PUSH1 0xE5 SHL DUP2 MSTORE PUSH1 0x20 PUSH1 0x4 DUP3 ADD DUP2 SWAP1 MSTORE PUSH1 0x24 DUP3 ADD MSTORE PUSH32 0x537472696E67733A20686578206C656E67746820696E73756666696369656E74 PUSH1 0x44 DUP3 ADD MSTORE PUSH1 0x64 ADD PUSH2 0x65E JUMP JUMPDEST PUSH1 0x0 DUP1 PUSH19 0x184F03E93FF9F4DAA797ED6E38ED64BF6A1F01 PUSH1 0x40 SHL DUP4 LT PUSH2 0x1C12 JUMPI PUSH19 0x184F03E93FF9F4DAA797ED6E38ED64BF6A1F01 PUSH1 0x40 SHL DUP4 DIV SWAP3 POP PUSH1 0x40 ADD JUMPDEST PUSH10 0x4EE2D6D415B85ACEF81 PUSH1 0x20 SHL DUP4 LT PUSH2 0x1C3C JUMPI PUSH10 0x4EE2D6D415B85ACEF81 PUSH1 0x20 SHL DUP4 DIV SWAP3 POP PUSH1 0x20 ADD JUMPDEST PUSH7 0x2386F26FC10000 DUP4 LT PUSH2 0x1C5A JUMPI PUSH7 0x2386F26FC10000 DUP4 DIV SWAP3 POP PUSH1 0x10 ADD JUMPDEST PUSH4 0x5F5E100 DUP4 LT PUSH2 0x1C72 JUMPI PUSH4 0x5F5E100 DUP4 DIV SWAP3 POP PUSH1 0x8 ADD JUMPDEST PUSH2 0x2710 DUP4 LT PUSH2 0x1C86 JUMPI PUSH2 0x2710 DUP4 DIV SWAP3 POP PUSH1 0x4 ADD JUMPDEST PUSH1 0x64 DUP4 LT PUSH2 0x1C98 JUMPI PUSH1 0x64 DUP4 DIV SWAP3 POP PUSH1 0x2 ADD JUMPDEST PUSH1 0xA DUP4 LT PUSH2 0x620 JUMPI PUSH1 0x1 ADD SWAP3 SWAP2 POP POP JUMP JUMPDEST PUSH1 0x5 SLOAD PUSH1 0x0 SWAP1 PUSH2 0x1CBA DUP2 PUSH1 0x1 PUSH2 0x2E0B JUMP JUMPDEST PUSH1 0x5 SSTORE DUP4 MLOAD PUSH1 0x40 DUP1 DUP7 ADD MLOAD PUSH1 0x80 DUP8 ADD MLOAD MLOAD SWAP2 MLOAD PUSH1 0x0 SWAP4 PUSH4 0x3C6D41B9 PUSH1 0xE0 SHL SWAP4 PUSH2 0x1CF0 SWAP4 DUP7 SWAP4 DUP5 SWAP4 SWAP3 DUP10 SWAP2 PUSH1 0x2 SWAP2 SWAP1 PUSH1 0x24 ADD PUSH2 0x2E4B JUMP JUMPDEST PUSH1 0x40 DUP1 MLOAD PUSH1 0x1F NOT DUP2 DUP5 SUB ADD DUP2 MSTORE SWAP2 SWAP1 MSTORE PUSH1 0x20 DUP2 ADD DUP1 MLOAD PUSH1 0x1 PUSH1 0x1 PUSH1 0xE0 SHL SUB AND PUSH1 0x1 PUSH1 0x1 PUSH1 0xE0 SHL SUB NOT SWAP1 SWAP4 AND SWAP3 SWAP1 SWAP3 OR SWAP1 SWAP2 MSTORE SWAP1 POP PUSH2 0x1D30 DUP7 DUP4 DUP7 DUP5 PUSH2 0x21CF JUMP JUMPDEST SWAP7 SWAP6 POP POP POP POP POP POP JUMP JUMPDEST PUSH1 0x0 DUP3 PUSH1 0x0 ADD DUP3 DUP2 SLOAD DUP2 LT PUSH2 0x1D51 JUMPI PUSH2 0x1D51 PUSH2 0x2E1E JUMP JUMPDEST SWAP1 PUSH1 0x0 MSTORE PUSH1 0x20 PUSH1 0x0 KECCAK256 ADD SLOAD SWAP1 POP SWAP3 SWAP2 POP POP JUMP JUMPDEST PUSH1 0x0 DUP2 DUP2 MSTORE PUSH1 0x1 DUP4 ADD PUSH1 0x20 MSTORE PUSH1 0x40 DUP2 KECCAK256 SLOAD DUP1 ISZERO PUSH2 0x1E4D JUMPI PUSH1 0x0 PUSH2 0x1D88 PUSH1 0x1 DUP4 PUSH2 0x2E93 JUMP JUMPDEST DUP6 SLOAD SWAP1 SWAP2 POP PUSH1 0x0 SWAP1 PUSH2 0x1D9C SWAP1 PUSH1 0x1 SWAP1 PUSH2 0x2E93 JUMP JUMPDEST SWAP1 POP DUP2 DUP2 EQ PUSH2 0x1E01 JUMPI PUSH1 0x0 DUP7 PUSH1 0x0 ADD DUP3 DUP2 SLOAD DUP2 LT PUSH2 0x1DBC JUMPI PUSH2 0x1DBC PUSH2 0x2E1E JUMP JUMPDEST SWAP1 PUSH1 0x0 MSTORE PUSH1 0x20 PUSH1 0x0 KECCAK256 ADD SLOAD SWAP1 POP DUP1 DUP8 PUSH1 0x0 ADD DUP5 DUP2 SLOAD DUP2 LT PUSH2 0x1DDF JUMPI PUSH2 0x1DDF PUSH2 0x2E1E JUMP JUMPDEST PUSH1 0x0 SWAP2 DUP3 MSTORE PUSH1 0x20 DUP1 DUP4 KECCAK256 SWAP1 SWAP2 ADD SWAP3 SWAP1 SWAP3 SSTORE SWAP2 DUP3 MSTORE PUSH1 0x1 DUP9 ADD SWAP1 MSTORE PUSH1 0x40 SWAP1 KECCAK256 DUP4 SWAP1 SSTORE JUMPDEST DUP6 SLOAD DUP7 SWAP1 DUP1 PUSH2 0x1E12 JUMPI PUSH2 0x1E12 PUSH2 0x2EA6 JUMP JUMPDEST PUSH1 0x1 SWAP1 SUB DUP2 DUP2 SWAP1 PUSH1 0x0 MSTORE PUSH1 0x20 PUSH1 0x0 KECCAK256 ADD PUSH1 0x0 SWAP1 SSTORE SWAP1 SSTORE DUP6 PUSH1 0x1 ADD PUSH1 0x0 DUP7 DUP2 MSTORE PUSH1 0x20 ADD SWAP1 DUP2 MSTORE PUSH1 0x20 ADD PUSH1 0x0 KECCAK256 PUSH1 0x0 SWAP1 SSTORE PUSH1 0x1 SWAP4 POP POP POP POP PUSH2 0x620 JUMP JUMPDEST PUSH1 0x0 SWAP2 POP POP PUSH2 0x620 JUMP JUMPDEST PUSH1 0x0 DUP2 DUP2 MSTORE PUSH1 0x1 DUP4 ADD PUSH1 0x20 MSTORE PUSH1 0x40 DUP2 KECCAK256 SLOAD PUSH2 0x1E9E JUMPI POP DUP2 SLOAD PUSH1 0x1 DUP2 DUP2 ADD DUP5 SSTORE PUSH1 0x0 DUP5 DUP2 MSTORE PUSH1 0x20 DUP1 DUP3 KECCAK256 SWAP1 SWAP4 ADD DUP5 SWAP1 SSTORE DUP5 SLOAD DUP5 DUP3 MSTORE DUP3 DUP7 ADD SWAP1 SWAP4 MSTORE PUSH1 0x40 SWAP1 KECCAK256 SWAP2 SWAP1 SWAP2 SSTORE PUSH2 0x620 JUMP JUMPDEST POP PUSH1 0x0 PUSH2 0x620 JUMP JUMPDEST PUSH1 0x60 DUP3 SELFBALANCE LT ISZERO PUSH2 0x1F07 JUMPI PUSH1 0x40 MLOAD PUSH3 0x461BCD PUSH1 0xE5 SHL DUP2 MSTORE PUSH1 0x20 PUSH1 0x4 DUP3 ADD MSTORE PUSH1 0x26 PUSH1 0x24 DUP3 ADD MSTORE PUSH32 0x416464726573733A20696E73756666696369656E742062616C616E636520666F PUSH1 0x44 DUP3 ADD MSTORE PUSH6 0x1C8818D85B1B PUSH1 0xD2 SHL PUSH1 0x64 DUP3 ADD MSTORE PUSH1 0x84 ADD PUSH2 0x65E JUMP JUMPDEST PUSH1 0x0 DUP1 DUP7 PUSH1 0x1 PUSH1 0x1 PUSH1 0xA0 SHL SUB AND DUP6 DUP8 PUSH1 0x40 MLOAD PUSH2 0x1F23 SWAP2 SWAP1 PUSH2 0x2AC1 JUMP JUMPDEST PUSH1 0x0 PUSH1 0x40 MLOAD DUP1 DUP4 SUB DUP2 DUP6 DUP8 GAS CALL SWAP3 POP POP POP RETURNDATASIZE DUP1 PUSH1 0x0 DUP2 EQ PUSH2 0x1F60 JUMPI PUSH1 0x40 MLOAD SWAP2 POP PUSH1 0x1F NOT PUSH1 0x3F RETURNDATASIZE ADD AND DUP3 ADD PUSH1 0x40 MSTORE RETURNDATASIZE DUP3 MSTORE RETURNDATASIZE PUSH1 0x0 PUSH1 0x20 DUP5 ADD RETURNDATACOPY PUSH2 0x1F65 JUMP JUMPDEST PUSH1 0x60 SWAP2 POP JUMPDEST POP SWAP2 POP SWAP2 POP PUSH2 0x1F76 DUP8 DUP4 DUP4 DUP8 PUSH2 0x2328 JUMP JUMPDEST SWAP8 SWAP7 POP POP POP POP POP POP POP JUMP JUMPDEST PUSH1 0x0 PUSH2 0x1FD6 DUP3 PUSH1 0x40 MLOAD DUP1 PUSH1 0x40 ADD PUSH1 0x40 MSTORE DUP1 PUSH1 0x20 DUP2 MSTORE PUSH1 0x20 ADD PUSH32 0x5361666545524332303A206C6F772D6C6576656C2063616C6C206661696C6564 DUP2 MSTORE POP DUP6 PUSH1 0x1 PUSH1 0x1 PUSH1 0xA0 SHL SUB AND PUSH2 0x23A1 SWAP1 SWAP3 SWAP2 SWAP1 PUSH4 0xFFFFFFFF AND JUMP JUMPDEST SWAP1 POP DUP1 MLOAD PUSH1 0x0 EQ DUP1 PUSH2 0x1FF7 JUMPI POP DUP1 DUP1 PUSH1 0x20 ADD SWAP1 MLOAD DUP2 ADD SWAP1 PUSH2 0x1FF7 SWAP2 SWAP1 PUSH2 0x2C39 JUMP JUMPDEST PUSH2 0x9A8 JUMPI PUSH1 0x40 MLOAD PUSH3 0x461BCD PUSH1 0xE5 SHL DUP2 MSTORE PUSH1 0x20 PUSH1 0x4 DUP3 ADD MSTORE PUSH1 0x2A PUSH1 0x24 DUP3 ADD MSTORE PUSH32 0x5361666545524332303A204552433230206F7065726174696F6E20646964206E PUSH1 0x44 DUP3 ADD MSTORE PUSH10 0x1BDD081CDD58D8D95959 PUSH1 0xB2 SHL PUSH1 0x64 DUP3 ADD MSTORE PUSH1 0x84 ADD PUSH2 0x65E JUMP JUMPDEST PUSH2 0x205E PUSH2 0x260D JUMP JUMPDEST PUSH2 0x2069 PUSH1 0x20 DUP4 PUSH2 0x2EBC JUMP JUMPDEST ISZERO PUSH2 0x2091 JUMPI PUSH2 0x2079 PUSH1 0x20 DUP4 PUSH2 0x2EBC JUMP JUMPDEST PUSH2 0x2084 SWAP1 PUSH1 0x20 PUSH2 0x2E93 JUMP JUMPDEST PUSH2 0x208E SWAP1 DUP4 PUSH2 0x2E0B JUMP JUMPDEST SWAP2 POP JUMPDEST POP PUSH1 0x20 DUP3 DUP2 ADD DUP3 SWAP1 MSTORE PUSH1 0x40 DUP1 MLOAD DUP1 DUP6 MSTORE PUSH1 0x0 DUP2 MSTORE SWAP1 SWAP3 ADD ADD SWAP1 MSTORE SWAP1 JUMP JUMPDEST PUSH1 0x17 DUP2 PUSH1 0x1 PUSH1 0x1 PUSH1 0x40 SHL SUB AND GT PUSH2 0x20D2 JUMPI PUSH2 0x1985 DUP4 PUSH1 0xE0 PUSH1 0x5 DUP6 SWAP1 SHL AND DUP4 OR PUSH2 0x23B0 JUMP JUMPDEST PUSH1 0xFF DUP2 PUSH1 0x1 PUSH1 0x1 PUSH1 0x40 SHL SUB AND GT PUSH2 0x210E JUMPI PUSH2 0x20F8 DUP4 PUSH1 0x18 PUSH2 0x1FE0 PUSH1 0x5 DUP7 SWAP1 SHL AND OR PUSH2 0x23B0 JUMP JUMPDEST POP PUSH2 0x1985 DUP4 PUSH1 0x1 PUSH1 0x1 PUSH1 0x40 SHL SUB DUP4 AND PUSH1 0x1 PUSH2 0x23C8 JUMP JUMPDEST PUSH2 0xFFFF DUP2 PUSH1 0x1 PUSH1 0x1 PUSH1 0x40 SHL SUB AND GT PUSH2 0x214B JUMPI PUSH2 0x2135 DUP4 PUSH1 0x19 PUSH2 0x1FE0 PUSH1 0x5 DUP7 SWAP1 SHL AND OR PUSH2 0x23B0 JUMP JUMPDEST POP PUSH2 0x1985 DUP4 PUSH1 0x1 PUSH1 0x1 PUSH1 0x40 SHL SUB DUP4 AND PUSH1 0x2 PUSH2 0x23C8 JUMP JUMPDEST PUSH4 0xFFFFFFFF DUP2 PUSH1 0x1 PUSH1 0x1 PUSH1 0x40 SHL SUB AND GT PUSH2 0x218A JUMPI PUSH2 0x2174 DUP4 PUSH1 0x1A PUSH2 0x1FE0 PUSH1 0x5 DUP7 SWAP1 SHL AND OR PUSH2 0x23B0 JUMP JUMPDEST POP PUSH2 0x1985 DUP4 PUSH1 0x1 PUSH1 0x1 PUSH1 0x40 SHL SUB DUP4 AND PUSH1 0x4 PUSH2 0x23C8 JUMP JUMPDEST PUSH2 0x219F DUP4 PUSH1 0x1B PUSH2 0x1FE0 PUSH1 0x5 DUP7 SWAP1 SHL AND OR PUSH2 0x23B0 JUMP JUMPDEST POP PUSH2 0x1985 DUP4 PUSH1 0x1 PUSH1 0x1 PUSH1 0x40 SHL SUB DUP4 AND PUSH1 0x8 PUSH2 0x23C8 JUMP JUMPDEST PUSH2 0x21BD PUSH2 0x260D JUMP JUMPDEST PUSH2 0x1791 DUP4 DUP5 PUSH1 0x0 ADD MLOAD MLOAD DUP5 DUP6 MLOAD PUSH2 0x23E1 JUMP JUMPDEST PUSH1 0x40 MLOAD PUSH1 0x1 PUSH1 0x1 PUSH1 0x60 SHL SUB NOT ADDRESS PUSH1 0x60 SHL AND PUSH1 0x20 DUP3 ADD MSTORE PUSH1 0x34 DUP2 ADD DUP5 SWAP1 MSTORE PUSH1 0x0 SWAP1 PUSH1 0x54 ADD PUSH1 0x40 DUP1 MLOAD DUP1 DUP4 SUB PUSH1 0x1F NOT ADD DUP2 MSTORE DUP3 DUP3 MSTORE DUP1 MLOAD PUSH1 0x20 SWAP2 DUP3 ADD KECCAK256 PUSH1 0x0 DUP2 DUP2 MSTORE PUSH1 0x6 SWAP1 SWAP3 MSTORE SWAP2 DUP2 KECCAK256 DUP1 SLOAD PUSH1 0x1 PUSH1 0x1 PUSH1 0xA0 SHL SUB NOT AND PUSH1 0x1 PUSH1 0x1 PUSH1 0xA0 SHL SUB DUP11 AND OR SWAP1 SSTORE SWAP1 SWAP3 POP DUP3 SWAP2 PUSH32 0xB5E6E01E79F91267DC17B4E6314D5D4D03593D2CEEE0FBB452B750BD70EA5AF9 SWAP2 SWAP1 LOG2 PUSH1 0x3 SLOAD PUSH1 0x40 MLOAD PUSH4 0x2000575 PUSH1 0xE5 SHL DUP2 MSTORE PUSH1 0x1 PUSH1 0x1 PUSH1 0xA0 SHL SUB SWAP1 SWAP2 AND SWAP1 PUSH4 0x4000AEA0 SWAP1 PUSH2 0x228D SWAP1 DUP9 SWAP1 DUP8 SWAP1 DUP8 SWAP1 PUSH1 0x4 ADD PUSH2 0x2ED0 JUMP JUMPDEST PUSH1 0x20 PUSH1 0x40 MLOAD DUP1 DUP4 SUB DUP2 PUSH1 0x0 DUP8 GAS CALL ISZERO DUP1 ISZERO PUSH2 0x22AC JUMPI RETURNDATASIZE PUSH1 0x0 DUP1 RETURNDATACOPY RETURNDATASIZE PUSH1 0x0 REVERT JUMPDEST POP POP POP POP PUSH1 0x40 MLOAD RETURNDATASIZE PUSH1 0x1F NOT PUSH1 0x1F DUP3 ADD AND DUP3 ADD DUP1 PUSH1 0x40 MSTORE POP DUP2 ADD SWAP1 PUSH2 0x22D0 SWAP2 SWAP1 PUSH2 0x2C39 JUMP JUMPDEST PUSH2 0x16A9 JUMPI PUSH1 0x40 MLOAD PUSH3 0x461BCD PUSH1 0xE5 SHL DUP2 MSTORE PUSH1 0x20 PUSH1 0x4 DUP3 ADD MSTORE PUSH1 0x23 PUSH1 0x24 DUP3 ADD MSTORE PUSH32 0x756E61626C6520746F207472616E73666572416E6443616C6C20746F206F7261 PUSH1 0x44 DUP3 ADD MSTORE PUSH3 0x636C65 PUSH1 0xE8 SHL PUSH1 0x64 DUP3 ADD MSTORE PUSH1 0x84 ADD PUSH2 0x65E JUMP JUMPDEST PUSH1 0x60 DUP4 ISZERO PUSH2 0x2397 JUMPI DUP3 MLOAD PUSH1 0x0 SUB PUSH2 0x2390 JUMPI PUSH1 0x1 PUSH1 0x1 PUSH1 0xA0 SHL SUB DUP6 AND EXTCODESIZE PUSH2 0x2390 JUMPI PUSH1 0x40 MLOAD PUSH3 0x461BCD PUSH1 0xE5 SHL DUP2 MSTORE PUSH1 0x20 PUSH1 0x4 DUP3 ADD MSTORE PUSH1 0x1D PUSH1 0x24 DUP3 ADD MSTORE PUSH32 0x416464726573733A2063616C6C20746F206E6F6E2D636F6E7472616374000000 PUSH1 0x44 DUP3 ADD MSTORE PUSH1 0x64 ADD PUSH2 0x65E JUMP JUMPDEST POP DUP2 PUSH2 0x16A9 JUMP JUMPDEST PUSH2 0x16A9 DUP4 DUP4 PUSH2 0x24BE JUMP JUMPDEST PUSH1 0x60 PUSH2 0x16A9 DUP5 DUP5 PUSH1 0x0 DUP6 PUSH2 0x1EA6 JUMP JUMPDEST PUSH2 0x23B8 PUSH2 0x260D JUMP JUMPDEST PUSH2 0x1791 DUP4 DUP5 PUSH1 0x0 ADD MLOAD MLOAD DUP5 PUSH2 0x24E8 JUMP JUMPDEST PUSH2 0x23D0 PUSH2 0x260D JUMP JUMPDEST PUSH2 0x16A9 DUP5 DUP6 PUSH1 0x0 ADD MLOAD MLOAD DUP6 DUP6 PUSH2 0x2536 JUMP JUMPDEST PUSH2 0x23E9 PUSH2 0x260D JUMP JUMPDEST DUP3 MLOAD DUP3 GT ISZERO PUSH2 0x23F7 JUMPI PUSH1 0x0 DUP1 REVERT JUMPDEST PUSH1 0x20 DUP6 ADD MLOAD PUSH2 0x2406 DUP4 DUP7 PUSH2 0x2E0B JUMP JUMPDEST GT ISZERO PUSH2 0x2439 JUMPI PUSH2 0x2439 DUP6 PUSH2 0x2429 DUP8 PUSH1 0x20 ADD MLOAD DUP8 DUP7 PUSH2 0x2424 SWAP2 SWAP1 PUSH2 0x2E0B JUMP JUMPDEST PUSH2 0x25AA JUMP JUMPDEST PUSH2 0x2434 SWAP1 PUSH1 0x2 PUSH2 0x2BC6 JUMP JUMPDEST PUSH2 0x25C1 JUMP JUMPDEST PUSH1 0x0 DUP1 DUP7 MLOAD DUP1 MLOAD DUP8 PUSH1 0x20 DUP4 ADD ADD SWAP4 POP DUP1 DUP9 DUP8 ADD GT ISZERO PUSH2 0x2458 JUMPI DUP8 DUP7 ADD DUP3 MSTORE JUMPDEST POP POP POP PUSH1 0x20 DUP5 ADD JUMPDEST PUSH1 0x20 DUP5 LT PUSH2 0x2498 JUMPI DUP1 MLOAD DUP3 MSTORE PUSH2 0x2477 PUSH1 0x20 DUP4 PUSH2 0x2E0B JUMP JUMPDEST SWAP2 POP PUSH2 0x2484 PUSH1 0x20 DUP3 PUSH2 0x2E0B JUMP JUMPDEST SWAP1 POP PUSH2 0x2491 PUSH1 0x20 DUP6 PUSH2 0x2E93 JUMP JUMPDEST SWAP4 POP PUSH2 0x2460 JUMP JUMPDEST MLOAD DUP2 MLOAD PUSH1 0x0 NOT PUSH1 0x20 DUP7 SWAP1 SUB PUSH2 0x100 EXP ADD SWAP1 DUP2 AND SWAP1 NOT SWAP2 SWAP1 SWAP2 AND OR SWAP1 MSTORE POP DUP4 SWAP5 SWAP4 POP POP POP POP JUMP JUMPDEST DUP2 MLOAD ISZERO PUSH2 0x24CE JUMPI DUP2 MLOAD DUP1 DUP4 PUSH1 0x20 ADD REVERT JUMPDEST DUP1 PUSH1 0x40 MLOAD PUSH3 0x461BCD PUSH1 0xE5 SHL DUP2 MSTORE PUSH1 0x4 ADD PUSH2 0x65E SWAP2 SWAP1 PUSH2 0x28BC JUMP JUMPDEST PUSH2 0x24F0 PUSH2 0x260D JUMP JUMPDEST DUP4 PUSH1 0x20 ADD MLOAD DUP4 LT PUSH2 0x2510 JUMPI PUSH2 0x2510 DUP5 DUP6 PUSH1 0x20 ADD MLOAD PUSH1 0x2 PUSH2 0x2434 SWAP2 SWAP1 PUSH2 0x2BC6 JUMP JUMPDEST DUP4 MLOAD DUP1 MLOAD PUSH1 0x20 DUP6 DUP4 ADD ADD DUP5 DUP2 MSTORE8 POP DUP1 DUP6 SUB PUSH2 0x252C JUMPI PUSH1 0x1 DUP2 ADD DUP3 MSTORE JUMPDEST POP SWAP4 SWAP5 SWAP4 POP POP POP POP JUMP JUMPDEST PUSH2 0x253E PUSH2 0x260D JUMP JUMPDEST PUSH1 0x20 DUP6 ADD MLOAD PUSH2 0x254D DUP6 DUP5 PUSH2 0x2E0B JUMP JUMPDEST GT ISZERO PUSH2 0x2561 JUMPI PUSH2 0x2561 DUP6 PUSH2 0x2429 DUP7 DUP6 PUSH2 0x2E0B JUMP JUMPDEST PUSH1 0x0 PUSH1 0x1 PUSH2 0x2571 DUP5 PUSH2 0x100 PUSH2 0x2FE4 JUMP JUMPDEST PUSH2 0x257B SWAP2 SWAP1 PUSH2 0x2E93 JUMP JUMPDEST SWAP1 POP DUP6 MLOAD DUP4 DUP7 DUP3 ADD ADD DUP6 DUP4 NOT DUP3 MLOAD AND OR DUP2 MSTORE POP DUP1 MLOAD DUP5 DUP8 ADD GT ISZERO PUSH2 0x259F JUMPI DUP4 DUP7 ADD DUP2 MSTORE JUMPDEST POP SWAP5 SWAP6 SWAP5 POP POP POP POP POP JUMP JUMPDEST PUSH1 0x0 DUP2 DUP4 GT ISZERO PUSH2 0x25BB JUMPI POP DUP2 PUSH2 0x620 JUMP JUMPDEST POP SWAP2 SWAP1 POP JUMP JUMPDEST DUP2 MLOAD PUSH2 0x25CD DUP4 DUP4 PUSH2 0x2056 JUMP JUMPDEST POP PUSH2 0x1985 DUP4 DUP3 PUSH2 0x21B5 JUMP JUMPDEST PUSH1 0x40 DUP1 MLOAD PUSH1 0xA0 DUP2 ADD DUP3 MSTORE PUSH1 0x0 DUP1 DUP3 MSTORE PUSH1 0x20 DUP3 ADD DUP2 SWAP1 MSTORE SWAP2 DUP2 ADD DUP3 SWAP1 MSTORE PUSH1 0x60 DUP2 ADD SWAP2 SWAP1 SWAP2 MSTORE PUSH1 0x80 DUP2 ADD PUSH2 0x2608 PUSH2 0x260D JUMP JUMPDEST SWAP1 MSTORE SWAP1 JUMP JUMPDEST PUSH1 0x40 MLOAD DUP1 PUSH1 0x40 ADD PUSH1 0x40 MSTORE DUP1 PUSH1 0x60 DUP2 MSTORE PUSH1 0x20 ADD PUSH1 0x0 DUP2 MSTORE POP SWAP1 JUMP JUMPDEST PUSH1 0x0 PUSH1 0x20 DUP3 DUP5 SUB SLT ISZERO PUSH2 0x2639 JUMPI PUSH1 0x0 DUP1 REVERT JUMPDEST DUP2 CALLDATALOAD PUSH1 0x1 PUSH1 0x1 PUSH1 0xE0 SHL SUB NOT DUP2 AND DUP2 EQ PUSH2 0x1791 JUMPI PUSH1 0x0 DUP1 REVERT JUMPDEST PUSH4 0x4E487B71 PUSH1 0xE0 SHL PUSH1 0x0 MSTORE PUSH1 0x41 PUSH1 0x4 MSTORE PUSH1 0x24 PUSH1 0x0 REVERT JUMPDEST PUSH1 0x0 PUSH1 0x1 PUSH1 0x1 PUSH1 0x40 SHL SUB DUP1 DUP5 GT ISZERO PUSH2 0x2681 JUMPI PUSH2 0x2681 PUSH2 0x2651 JUMP JUMPDEST PUSH1 0x40 MLOAD PUSH1 0x1F DUP6 ADD PUSH1 0x1F NOT SWAP1 DUP2 AND PUSH1 0x3F ADD AND DUP2 ADD SWAP1 DUP3 DUP3 GT DUP2 DUP4 LT OR ISZERO PUSH2 0x26A9 JUMPI PUSH2 0x26A9 PUSH2 0x2651 JUMP JUMPDEST DUP2 PUSH1 0x40 MSTORE DUP1 SWAP4 POP DUP6 DUP2 MSTORE DUP7 DUP7 DUP7 ADD GT ISZERO PUSH2 0x26C2 JUMPI PUSH1 0x0 DUP1 REVERT JUMPDEST DUP6 DUP6 PUSH1 0x20 DUP4 ADD CALLDATACOPY PUSH1 0x0 PUSH1 0x20 DUP8 DUP4 ADD ADD MSTORE POP POP POP SWAP4 SWAP3 POP POP POP JUMP JUMPDEST PUSH1 0x0 DUP1 PUSH1 0x40 DUP4 DUP6 SUB SLT ISZERO PUSH2 0x26EF JUMPI PUSH1 0x0 DUP1 REVERT JUMPDEST DUP3 CALLDATALOAD SWAP2 POP PUSH1 0x20 DUP4 ADD CALLDATALOAD PUSH1 0x1 PUSH1 0x1 PUSH1 0x40 SHL SUB DUP2 GT ISZERO PUSH2 0x270C JUMPI PUSH1 0x0 DUP1 REVERT JUMPDEST DUP4 ADD PUSH1 0x1F DUP2 ADD DUP6 SGT PUSH2 0x271D JUMPI PUSH1 0x0 DUP1 REVERT JUMPDEST PUSH2 0x272C DUP6 DUP3 CALLDATALOAD PUSH1 0x20 DUP5 ADD PUSH2 0x2667 JUMP JUMPDEST SWAP2 POP POP SWAP3 POP SWAP3 SWAP1 POP JUMP JUMPDEST PUSH1 0x0 PUSH1 0x20 DUP3 DUP5 SUB SLT ISZERO PUSH2 0x2748 JUMPI PUSH1 0x0 DUP1 REVERT JUMPDEST DUP2 CALLDATALOAD PUSH1 0x1 PUSH1 0x1 PUSH1 0x40 SHL SUB DUP2 GT ISZERO PUSH2 0x275E JUMPI PUSH1 0x0 DUP1 REVERT JUMPDEST DUP3 ADD PUSH1 0x1F DUP2 ADD DUP5 SGT PUSH2 0x276F JUMPI PUSH1 0x0 DUP1 REVERT JUMPDEST PUSH2 0x16A9 DUP5 DUP3 CALLDATALOAD PUSH1 0x20 DUP5 ADD PUSH2 0x2667 JUMP JUMPDEST DUP1 CALLDATALOAD PUSH1 0x1 PUSH1 0x1 PUSH1 0xA0 SHL SUB DUP2 AND DUP2 EQ PUSH2 0x2795 JUMPI PUSH1 0x0 DUP1 REVERT JUMPDEST SWAP2 SWAP1 POP JUMP JUMPDEST PUSH1 0x0 DUP1 PUSH1 0x0 PUSH1 0x60 DUP5 DUP7 SUB SLT ISZERO PUSH2 0x27AF JUMPI PUSH1 0x0 DUP1 REVERT JUMPDEST PUSH2 0x27B8 DUP5 PUSH2 0x277E JUMP JUMPDEST SWAP3 POP PUSH2 0x27C6 PUSH1 0x20 DUP6 ADD PUSH2 0x277E JUMP JUMPDEST SWAP2 POP PUSH1 0x40 DUP5 ADD CALLDATALOAD SWAP1 POP SWAP3 POP SWAP3 POP SWAP3 JUMP JUMPDEST PUSH1 0x0 PUSH1 0x20 DUP3 DUP5 SUB SLT ISZERO PUSH2 0x27E8 JUMPI PUSH1 0x0 DUP1 REVERT JUMPDEST POP CALLDATALOAD SWAP2 SWAP1 POP JUMP JUMPDEST PUSH1 0x1 PUSH1 0x1 PUSH1 0xA0 SHL SUB SWAP2 SWAP1 SWAP2 AND DUP2 MSTORE PUSH1 0x20 ADD SWAP1 JUMP JUMPDEST PUSH1 0x0 DUP1 PUSH1 0x40 DUP4 DUP6 SUB SLT ISZERO PUSH2 0x2816 JUMPI PUSH1 0x0 DUP1 REVERT JUMPDEST DUP3 CALLDATALOAD SWAP2 POP PUSH2 0x2826 PUSH1 0x20 DUP5 ADD PUSH2 0x277E JUMP JUMPDEST SWAP1 POP SWAP3 POP SWAP3 SWAP1 POP JUMP JUMPDEST PUSH1 0x0 DUP1 PUSH1 0x40 DUP4 DUP6 SUB SLT ISZERO PUSH2 0x2842 JUMPI PUSH1 0x0 DUP1 REVERT JUMPDEST POP POP DUP1 CALLDATALOAD SWAP3 PUSH1 0x20 SWAP1 SWAP2 ADD CALLDATALOAD SWAP2 POP JUMP JUMPDEST PUSH1 0x0 PUSH1 0x20 DUP3 DUP5 SUB SLT ISZERO PUSH2 0x2863 JUMPI PUSH1 0x0 DUP1 REVERT JUMPDEST PUSH2 0x1791 DUP3 PUSH2 0x277E JUMP JUMPDEST PUSH1 0x0 JUMPDEST DUP4 DUP2 LT ISZERO PUSH2 0x2887 JUMPI DUP2 DUP2 ADD MLOAD DUP4 DUP3 ADD MSTORE PUSH1 0x20 ADD PUSH2 0x286F JUMP JUMPDEST POP POP PUSH1 0x0 SWAP2 ADD MSTORE JUMP JUMPDEST PUSH1 0x0 DUP2 MLOAD DUP1 DUP5 MSTORE PUSH2 0x28A8 DUP2 PUSH1 0x20 DUP7 ADD PUSH1 0x20 DUP7 ADD PUSH2 0x286C JUMP JUMPDEST PUSH1 0x1F ADD PUSH1 0x1F NOT AND SWAP3 SWAP1 SWAP3 ADD PUSH1 0x20 ADD SWAP3 SWAP2 POP POP JUMP JUMPDEST PUSH1 0x20 DUP2 MSTORE PUSH1 0x0 PUSH2 0x1791 PUSH1 0x20 DUP4 ADD DUP5 PUSH2 0x2890 JUMP JUMPDEST PUSH1 0x0 DUP1 PUSH1 0x0 DUP1 PUSH1 0x80 DUP6 DUP8 SUB SLT ISZERO PUSH2 0x28E5 JUMPI PUSH1 0x0 DUP1 REVERT JUMPDEST PUSH2 0x28EE DUP6 PUSH2 0x277E JUMP JUMPDEST SWAP4 POP PUSH2 0x28FC PUSH1 0x20 DUP7 ADD PUSH2 0x277E JUMP JUMPDEST SWAP3 POP PUSH1 0x40 DUP6 ADD CALLDATALOAD SWAP2 POP PUSH1 0x60 DUP6 ADD CALLDATALOAD PUSH1 0xFF DUP2 AND DUP2 EQ PUSH2 0x2919 JUMPI PUSH1 0x0 DUP1 REVERT JUMPDEST SWAP4 SWAP7 SWAP3 SWAP6 POP SWAP1 SWAP4 POP POP JUMP JUMPDEST PUSH1 0x20 DUP1 DUP3 MSTORE PUSH1 0x28 SWAP1 DUP3 ADD MSTORE PUSH32 0x536F75726365206D75737420626520746865206F7261636C65206F6620746865 PUSH1 0x40 DUP3 ADD MSTORE PUSH8 0x81C995C5D595CDD PUSH1 0xC2 SHL PUSH1 0x60 DUP3 ADD MSTORE PUSH1 0x80 ADD SWAP1 JUMP JUMPDEST PUSH1 0x1 DUP2 DUP2 SHR SWAP1 DUP3 AND DUP1 PUSH2 0x2980 JUMPI PUSH1 0x7F DUP3 AND SWAP2 POP JUMPDEST PUSH1 0x20 DUP3 LT DUP2 SUB PUSH2 0x25BB JUMPI PUSH4 0x4E487B71 PUSH1 0xE0 SHL PUSH1 0x0 MSTORE PUSH1 0x22 PUSH1 0x4 MSTORE PUSH1 0x24 PUSH1 0x0 REVERT JUMPDEST PUSH1 0x1F DUP3 GT ISZERO PUSH2 0x9A8 JUMPI PUSH1 0x0 DUP2 DUP2 MSTORE PUSH1 0x20 DUP2 KECCAK256 PUSH1 0x1F DUP6 ADD PUSH1 0x5 SHR DUP2 ADD PUSH1 0x20 DUP7 LT ISZERO PUSH2 0x29C7 JUMPI POP DUP1 JUMPDEST PUSH1 0x1F DUP6 ADD PUSH1 0x5 SHR DUP3 ADD SWAP2 POP JUMPDEST DUP2 DUP2 LT ISZERO PUSH2 0x96F JUMPI DUP3 DUP2 SSTORE PUSH1 0x1 ADD PUSH2 0x29D3 JUMP JUMPDEST DUP2 MLOAD PUSH1 0x1 PUSH1 0x1 PUSH1 0x40 SHL SUB DUP2 GT ISZERO PUSH2 0x29FF JUMPI PUSH2 0x29FF PUSH2 0x2651 JUMP JUMPDEST PUSH2 0x2A13 DUP2 PUSH2 0x2A0D DUP5 SLOAD PUSH2 0x296C JUMP JUMPDEST DUP5 PUSH2 0x29A0 JUMP JUMPDEST PUSH1 0x20 DUP1 PUSH1 0x1F DUP4 GT PUSH1 0x1 DUP2 EQ PUSH2 0x2A48 JUMPI PUSH1 0x0 DUP5 ISZERO PUSH2 0x2A30 JUMPI POP DUP6 DUP4 ADD MLOAD JUMPDEST PUSH1 0x0 NOT PUSH1 0x3 DUP7 SWAP1 SHL SHR NOT AND PUSH1 0x1 DUP6 SWAP1 SHL OR DUP6 SSTORE PUSH2 0x96F JUMP JUMPDEST PUSH1 0x0 DUP6 DUP2 MSTORE PUSH1 0x20 DUP2 KECCAK256 PUSH1 0x1F NOT DUP7 AND SWAP2 JUMPDEST DUP3 DUP2 LT ISZERO PUSH2 0x2A77 JUMPI DUP9 DUP7 ADD MLOAD DUP3 SSTORE SWAP5 DUP5 ADD SWAP5 PUSH1 0x1 SWAP1 SWAP2 ADD SWAP1 DUP5 ADD PUSH2 0x2A58 JUMP JUMPDEST POP DUP6 DUP3 LT ISZERO PUSH2 0x2A95 JUMPI DUP8 DUP6 ADD MLOAD PUSH1 0x0 NOT PUSH1 0x3 DUP9 SWAP1 SHL PUSH1 0xF8 AND SHR NOT AND DUP2 SSTORE JUMPDEST POP POP POP POP POP PUSH1 0x1 SWAP1 DUP2 SHL ADD SWAP1 SSTORE POP JUMP JUMPDEST PUSH1 0x0 DUP2 MLOAD PUSH2 0x2AB7 DUP2 DUP6 PUSH1 0x20 DUP7 ADD PUSH2 0x286C JUMP JUMPDEST SWAP3 SWAP1 SWAP3 ADD SWAP3 SWAP2 POP POP JUMP JUMPDEST PUSH1 0x0 DUP3 MLOAD PUSH2 0x2AD3 DUP2 DUP5 PUSH1 0x20 DUP8 ADD PUSH2 0x286C JUMP JUMPDEST SWAP2 SWAP1 SWAP2 ADD SWAP3 SWAP2 POP POP JUMP JUMPDEST DUP1 MLOAD PUSH1 0x20 DUP1 DUP4 ADD MLOAD SWAP2 SWAP1 DUP2 LT ISZERO PUSH2 0x25BB JUMPI PUSH1 0x0 NOT PUSH1 0x20 SWAP2 SWAP1 SWAP2 SUB PUSH1 0x3 SHL SHL AND SWAP2 SWAP1 POP JUMP JUMPDEST PUSH1 0x0 DUP1 MLOAD PUSH1 0x20 PUSH2 0x3060 DUP4 CODECOPY DUP2 MLOAD SWAP2 MSTORE DUP2 MSTORE PUSH12 0x312F71756F74653F7372633D PUSH1 0xA0 SHL PUSH1 0x20 DUP3 ADD MSTORE PUSH1 0x0 DUP5 MLOAD PUSH2 0x2B3C DUP2 PUSH1 0x2C DUP6 ADD PUSH1 0x20 DUP10 ADD PUSH2 0x286C JUMP JUMPDEST PUSH5 0x266473743D PUSH1 0xD8 SHL PUSH1 0x2C SWAP2 DUP5 ADD SWAP2 DUP3 ADD MSTORE DUP5 MLOAD PUSH2 0x2B61 DUP2 PUSH1 0x31 DUP5 ADD PUSH1 0x20 DUP10 ADD PUSH2 0x286C JUMP JUMPDEST PUSH8 0x26616D6F756E743D PUSH1 0xC0 SHL PUSH1 0x31 SWAP3 SWAP1 SWAP2 ADD SWAP2 DUP3 ADD MSTORE DUP4 MLOAD PUSH2 0x2B8A DUP2 PUSH1 0x39 DUP5 ADD PUSH1 0x20 DUP9 ADD PUSH2 0x286C JUMP JUMPDEST ADD PUSH1 0x39 ADD SWAP6 SWAP5 POP POP POP POP POP JUMP JUMPDEST PUSH4 0x4E487B71 PUSH1 0xE0 SHL PUSH1 0x0 MSTORE PUSH1 0x11 PUSH1 0x4 MSTORE PUSH1 0x24 PUSH1 0x0 REVERT JUMPDEST PUSH1 0x0 PUSH1 0x1 DUP3 ADD PUSH2 0x2BBF JUMPI PUSH2 0x2BBF PUSH2 0x2B97 JUMP JUMPDEST POP PUSH1 0x1 ADD SWAP1 JUMP JUMPDEST DUP1 DUP3 MUL DUP2 ISZERO DUP3 DUP3 DIV DUP5 EQ OR PUSH2 0x620 JUMPI PUSH2 0x620 PUSH2 0x2B97 JUMP JUMPDEST PUSH4 0x4E487B71 PUSH1 0xE0 SHL PUSH1 0x0 MSTORE PUSH1 0x12 PUSH1 0x4 MSTORE PUSH1 0x24 PUSH1 0x0 REVERT JUMPDEST PUSH1 0x0 DUP3 PUSH2 0x2C02 JUMPI PUSH2 0x2C02 PUSH2 0x2BDD JUMP JUMPDEST POP DIV SWAP1 JUMP JUMPDEST PUSH1 0x0 PUSH1 0x20 DUP3 DUP5 SUB SLT ISZERO PUSH2 0x2C19 JUMPI PUSH1 0x0 DUP1 REVERT JUMPDEST POP MLOAD SWAP2 SWAP1 POP JUMP JUMPDEST PUSH1 0x1 PUSH1 0x1 PUSH1 0xA0 SHL SUB SWAP3 SWAP1 SWAP3 AND DUP3 MSTORE PUSH1 0x20 DUP3 ADD MSTORE PUSH1 0x40 ADD SWAP1 JUMP JUMPDEST PUSH1 0x0 PUSH1 0x20 DUP3 DUP5 SUB SLT ISZERO PUSH2 0x2C4B JUMPI PUSH1 0x0 DUP1 REVERT JUMPDEST DUP2 MLOAD DUP1 ISZERO ISZERO DUP2 EQ PUSH2 0x1791 JUMPI PUSH1 0x0 DUP1 REVERT JUMPDEST PUSH1 0x1 PUSH1 0x1 PUSH1 0xA0 SHL SUB SWAP3 DUP4 AND DUP2 MSTORE SWAP2 AND PUSH1 0x20 DUP3 ADD MSTORE PUSH1 0x40 ADD SWAP1 JUMP JUMPDEST PUSH1 0x0 DUP1 MLOAD PUSH1 0x20 PUSH2 0x3060 DUP4 CODECOPY DUP2 MLOAD SWAP2 MSTORE DUP2 MSTORE PUSH11 0x312F737761703F7372633D PUSH1 0xA8 SHL PUSH1 0x20 DUP3 ADD MSTORE PUSH1 0x0 DUP8 MLOAD PUSH2 0x2CAF DUP2 PUSH1 0x2B DUP6 ADD PUSH1 0x20 DUP13 ADD PUSH2 0x286C JUMP JUMPDEST PUSH5 0x266473743D PUSH1 0xD8 SHL PUSH1 0x2B SWAP2 DUP5 ADD SWAP2 DUP3 ADD MSTORE DUP8 MLOAD PUSH2 0x2CD4 DUP2 PUSH1 0x30 DUP5 ADD PUSH1 0x20 DUP13 ADD PUSH2 0x286C JUMP JUMPDEST PUSH8 0x26616D6F756E743D PUSH1 0xC0 SHL PUSH1 0x30 SWAP3 SWAP1 SWAP2 ADD SWAP2 DUP3 ADD MSTORE DUP7 MLOAD PUSH2 0x2CFD DUP2 PUSH1 0x38 DUP5 ADD PUSH1 0x20 DUP12 ADD PUSH2 0x286C JUMP JUMPDEST PUSH6 0x2666726F6D3D PUSH1 0xD0 SHL PUSH1 0x38 SWAP3 SWAP1 SWAP2 ADD SWAP2 DUP3 ADD MSTORE DUP6 MLOAD PUSH2 0x2D24 DUP2 PUSH1 0x3E DUP5 ADD PUSH1 0x20 DUP11 ADD PUSH2 0x286C JUMP JUMPDEST PUSH10 0x26736C6970706167653D PUSH1 0xB0 SHL PUSH1 0x3E SWAP3 SWAP1 SWAP2 ADD SWAP2 DUP3 ADD MSTORE PUSH2 0x2D8F PUSH2 0x2D6E PUSH2 0x2D68 PUSH2 0x2D52 PUSH1 0x48 DUP6 ADD DUP10 PUSH2 0x2AA5 JUMP JUMPDEST PUSH10 0x2672656365697665723D PUSH1 0xB0 SHL DUP2 MSTORE PUSH1 0xA ADD SWAP1 JUMP JUMPDEST DUP7 PUSH2 0x2AA5 JUMP JUMPDEST PUSH21 0x2664697361626C65457374696D6174653D74727565 PUSH1 0x58 SHL DUP2 MSTORE PUSH1 0x15 ADD SWAP1 JUMP JUMPDEST SWAP10 SWAP9 POP POP POP POP POP POP POP POP POP JUMP JUMPDEST PUSH23 0x20B1B1B2B9B9A1B7B73A3937B61D1030B1B1B7BAB73A1 PUSH1 0x4D SHL DUP2 MSTORE PUSH1 0x0 DUP4 MLOAD PUSH2 0x2DCE DUP2 PUSH1 0x17 DUP6 ADD PUSH1 0x20 DUP9 ADD PUSH2 0x286C JUMP JUMPDEST PUSH17 0x1034B99036B4B9B9B4B733903937B6329 PUSH1 0x7D SHL PUSH1 0x17 SWAP2 DUP5 ADD SWAP2 DUP3 ADD MSTORE DUP4 MLOAD PUSH2 0x2DFF DUP2 PUSH1 0x28 DUP5 ADD PUSH1 0x20 DUP9 ADD PUSH2 0x286C JUMP JUMPDEST ADD PUSH1 0x28 ADD SWAP5 SWAP4 POP POP POP POP JUMP JUMPDEST DUP1 DUP3 ADD DUP1 DUP3 GT ISZERO PUSH2 0x620 JUMPI PUSH2 0x620 PUSH2 0x2B97 JUMP JUMPDEST PUSH4 0x4E487B71 PUSH1 0xE0 SHL PUSH1 0x0 MSTORE PUSH1 0x32 PUSH1 0x4 MSTORE PUSH1 0x24 PUSH1 0x0 REVERT JUMPDEST PUSH1 0x0 DUP2 PUSH2 0x2E43 JUMPI PUSH2 0x2E43 PUSH2 0x2B97 JUMP JUMPDEST POP PUSH1 0x0 NOT ADD SWAP1 JUMP JUMPDEST PUSH1 0x1 DUP1 PUSH1 0xA0 SHL SUB DUP9 AND DUP2 MSTORE DUP7 PUSH1 0x20 DUP3 ADD MSTORE DUP6 PUSH1 0x40 DUP3 ADD MSTORE PUSH4 0xFFFFFFFF PUSH1 0xE0 SHL DUP6 AND PUSH1 0x60 DUP3 ADD MSTORE DUP4 PUSH1 0x80 DUP3 ADD MSTORE DUP3 PUSH1 0xA0 DUP3 ADD MSTORE PUSH1 0xE0 PUSH1 0xC0 DUP3 ADD MSTORE PUSH1 0x0 PUSH2 0x2D8F PUSH1 0xE0 DUP4 ADD DUP5 PUSH2 0x2890 JUMP JUMPDEST DUP2 DUP2 SUB DUP2 DUP2 GT ISZERO PUSH2 0x620 JUMPI PUSH2 0x620 PUSH2 0x2B97 JUMP JUMPDEST PUSH4 0x4E487B71 PUSH1 0xE0 SHL PUSH1 0x0 MSTORE PUSH1 0x31 PUSH1 0x4 MSTORE PUSH1 0x24 PUSH1 0x0 REVERT JUMPDEST PUSH1 0x0 DUP3 PUSH2 0x2ECB JUMPI PUSH2 0x2ECB PUSH2 0x2BDD JUMP JUMPDEST POP MOD SWAP1 JUMP JUMPDEST PUSH1 0x1 DUP1 PUSH1 0xA0 SHL SUB DUP5 AND DUP2 MSTORE DUP3 PUSH1 0x20 DUP3 ADD MSTORE PUSH1 0x60 PUSH1 0x40 DUP3 ADD MSTORE PUSH1 0x0 PUSH2 0x2EF7 PUSH1 0x60 DUP4 ADD DUP5 PUSH2 0x2890 JUMP JUMPDEST SWAP6 SWAP5 POP POP POP POP POP JUMP JUMPDEST PUSH1 0x1 DUP2 DUP2 JUMPDEST DUP1 DUP6 GT ISZERO PUSH2 0x2F3B JUMPI DUP2 PUSH1 0x0 NOT DIV DUP3 GT ISZERO PUSH2 0x2F21 JUMPI PUSH2 0x2F21 PUSH2 0x2B97 JUMP JUMPDEST DUP1 DUP6 AND ISZERO PUSH2 0x2F2E JUMPI SWAP2 DUP2 MUL SWAP2 JUMPDEST SWAP4 DUP5 SHR SWAP4 SWAP1 DUP1 MUL SWAP1 PUSH2 0x2F05 JUMP JUMPDEST POP SWAP3 POP SWAP3 SWAP1 POP JUMP JUMPDEST PUSH1 0x0 DUP3 PUSH2 0x2F52 JUMPI POP PUSH1 0x1 PUSH2 0x620 JUMP JUMPDEST DUP2 PUSH2 0x2F5F JUMPI POP PUSH1 0x0 PUSH2 0x620 JUMP JUMPDEST DUP2 PUSH1 0x1 DUP2 EQ PUSH2 0x2F75 JUMPI PUSH1 0x2 DUP2 EQ PUSH2 0x2F7F JUMPI PUSH2 0x2F9B JUMP JUMPDEST PUSH1 0x1 SWAP2 POP POP PUSH2 0x620 JUMP JUMPDEST PUSH1 0xFF DUP5 GT ISZERO PUSH2 0x2F90 JUMPI PUSH2 0x2F90 PUSH2 0x2B97 JUMP JUMPDEST POP POP PUSH1 0x1 DUP3 SHL PUSH2 0x620 JUMP JUMPDEST POP PUSH1 0x20 DUP4 LT PUSH2 0x133 DUP4 LT AND PUSH1 0x4E DUP5 LT PUSH1 0xB DUP5 LT AND OR ISZERO PUSH2 0x2FBE JUMPI POP DUP2 DUP2 EXP PUSH2 0x620 JUMP JUMPDEST PUSH2 0x2FC8 DUP4 DUP4 PUSH2 0x2F00 JUMP JUMPDEST DUP1 PUSH1 0x0 NOT DIV DUP3 GT ISZERO PUSH2 0x2FDC JUMPI PUSH2 0x2FDC PUSH2 0x2B97 JUMP JUMPDEST MUL SWAP4 SWAP3 POP POP POP JUMP JUMPDEST PUSH1 0x0 PUSH2 0x1791 DUP4 DUP4 PUSH2 0x2F43 JUMP INVALID JUMPDEST 0x22 PUSH2 0x6363 PUSH6 0x7074222C2022 PUSH2 0x7070 PUSH13 0x69636174696F6E2F6A736F6E22 0x2C KECCAK256 0x22 COINBASE PUSH22 0x74686F72697A6174696F6E222C202242656172657220 0x24 PUSH28 0x5345435245545F30317D225D416464726573733A206C6F772D6C6576 PUSH6 0x6C2063616C6C KECCAK256 PUSH24 0x6974682076616C7565206661696C656468747470733A2F2F PUSH2 0x7069 0x2E BALANCE PUSH10 0x6E63682E6465762F7377 PUSH2 0x702F PUSH23 0x352E322F17A8E30262C1F919C33056D877A3C22B95C2F5 0xE4 0xDA 0xC4 CHAINID DUP4 0xC1 0xC2 ORIGIN EXTCODECOPY 0xD7 SWAP16 0xBD 0xB0 PUSH29 0xC135E0CEBB02C3480AE5D74D377283180A2601F8F644EDF7987B009316 0xC6 GASPRICE STATICCALL 0xB0 EXP SWAP9 SELFBALANCE SLOAD SWAP6 0xC PUSH18 0x87FB98F39DA0AE224ABBBEE017C1699445AD 0xE NOT SELFBALANCE 0x4A 0x4D LOG2 PUSH5 0x6970667358 0x22 SLT KECCAK256 0xE5 0xE5 0xC OR 0xDB STOP 0xDA ADD 0xDC 0xC9 DELEGATECALL 0xF9 LOG0 0xB0 NUMBER 0xAE GASLIMIT 0xCE 0x4C 0x2D 0x5D CHAINID SMOD 0x2C SWAP3 INVALID 0xE9 PUSH32 0xBD2344C664736F6C6343000813003317A8E30262C1F919C33056D877A3C22B95 0xC2 CREATE2 0xE4 0xDA 0xC4 CHAINID DUP4 0xC1 0xC2 ORIGIN EXTCODECOPY 0xD7 SWAP16 0xBD 0xB0 "},"gasEstimates":{"creation":{"codeDepositCost":"2513000","executionCost":"infinite","totalCost":"infinite"},"external":{"DEFAULT_ADMIN_ROLE()":"613","ONE_INCH_ETH_ADDRESS()":"702","STRATEGIST_ROLE()":"infinite","SWAP_AUTHORIZED_ROLE()":"infinite","addSubscriber(address)":"infinite","aggregationRouter()":"infinite","fulfillQuoteRequest(bytes32,uint256)":"infinite","fulfillSwap()":"infinite","getFeeInHundredthsOfLink()":"infinite","getJobId()":"infinite","getOracleAddress()":"infinite","getRoleAdmin(bytes32)":"2525","grantRole(bytes32,address)":"infinite","hasRole(bytes32,address)":"3025","isReadyToFulfillSwap()":"2871","lastQuotedDstToken()":"2911","lastQuotedSrcToken()":"2955","lastQuotedSrcTokenAmount()":"2449","lastSwapDstToken()":"2537","lastSwapSrcToken()":"2449","lastSwapSrcTokenAmount()":"2823","registerSwapCalldata(bytes32,bytes)":"infinite","removeSubscriber(address)":"infinite","renounceRole(bytes32,address)":"29127","requestQuote(address,address,uint256)":"infinite","requestSwap(address,address,uint256,uint8)":"infinite","revokeRole(bytes32,address)":"infinite","setFeeInHundredthsOfLink(uint256)":"infinite","setFeeInJuels(uint256)":"infinite","setJobId(string)":"infinite","setOracleAddress(address)":"infinite","subscriberAt(uint256)":"5048","subscribersLength()":"2678","supportsInterface(bytes4)":"404","withdrawLink()":"infinite"}},"methodIdentifiers":{"DEFAULT_ADMIN_ROLE()":"a217fddf","ONE_INCH_ETH_ADDRESS()":"aaeafd56","STRATEGIST_ROLE()":"a378a324","SWAP_AUTHORIZED_ROLE()":"4e0c6133","addSubscriber(address)":"94555d1a","aggregationRouter()":"fcdfd946","fulfillQuoteRequest(bytes32,uint256)":"459c75d8","fulfillSwap()":"eaad47b2","getFeeInHundredthsOfLink()":"56237682","getJobId()":"b02f7fe0","getOracleAddress()":"b18b78dd","getRoleAdmin(bytes32)":"248a9ca3","grantRole(bytes32,address)":"2f2ff15d","hasRole(bytes32,address)":"91d14854","isReadyToFulfillSwap()":"c0d2e37f","lastQuotedDstToken()":"c02e5bc7","lastQuotedSrcToken()":"c87457db","lastQuotedSrcTokenAmount()":"3662dd35","lastSwapDstToken()":"36868f0e","lastSwapSrcToken()":"271e390a","lastSwapSrcTokenAmount()":"b56269a0","registerSwapCalldata(bytes32,bytes)":"02458ad8","removeSubscriber(address)":"627c34ad","renounceRole(bytes32,address)":"36568abe","requestQuote(address,address,uint256)":"1a5b4207","requestSwap(address,address,uint256,uint8)":"f09922ff","revokeRole(bytes32,address)":"d547741f","setFeeInHundredthsOfLink(uint256)":"f34473a5","setFeeInJuels(uint256)":"e3da201d","setJobId(string)":"129fc1c0","setOracleAddress(address)":"4c69c00f","subscriberAt(uint256)":"6ccf5b01","subscribersLength()":"66b8455b","supportsInterface(bytes4)":"01ffc9a7","withdrawLink()":"8dc654a2"}},"storageLayout":{"storage":[{"astId":2200,"contract":"contracts/utils/SwapHelper.sol:SwapHelper","label":"_roles","offset":0,"slot":"0","type":"t_mapping(t_bytes32,t_struct(RoleData)2195_storage)"},{"astId":319,"contract":"contracts/utils/SwapHelper.sol:SwapHelper","label":"s_ens","offset":0,"slot":"1","type":"t_contract(ENSInterface)974"},{"astId":321,"contract":"contracts/utils/SwapHelper.sol:SwapHelper","label":"s_ensNode","offset":0,"slot":"2","type":"t_bytes32"},{"astId":324,"contract":"contracts/utils/SwapHelper.sol:SwapHelper","label":"s_link","offset":0,"slot":"3","type":"t_contract(LinkTokenInterface)1069"},{"astId":327,"contract":"contracts/utils/SwapHelper.sol:SwapHelper","label":"s_oracle","offset":0,"slot":"4","type":"t_contract(OperatorInterface)1149"},{"astId":330,"contract":"contracts/utils/SwapHelper.sol:SwapHelper","label":"s_requestCount","offset":0,"slot":"5","type":"t_uint256"},{"astId":334,"contract":"contracts/utils/SwapHelper.sol:SwapHelper","label":"s_pendingRequests","offset":0,"slot":"6","type":"t_mapping(t_bytes32,t_address)"},{"astId":5378,"contract":"contracts/utils/SwapHelper.sol:SwapHelper","label":"oracleAddress","offset":0,"slot":"7","type":"t_address"},{"astId":5380,"contract":"contracts/utils/SwapHelper.sol:SwapHelper","label":"jobId","offset":0,"slot":"8","type":"t_bytes32"},{"astId":5382,"contract":"contracts/utils/SwapHelper.sol:SwapHelper","label":"fee","offset":0,"slot":"9","type":"t_uint256"},{"astId":5384,"contract":"contracts/utils/SwapHelper.sol:SwapHelper","label":"lastQuotedSrcToken","offset":0,"slot":"10","type":"t_address"},{"astId":5386,"contract":"contracts/utils/SwapHelper.sol:SwapHelper","label":"lastQuotedDstToken","offset":0,"slot":"11","type":"t_address"},{"astId":5388,"contract":"contracts/utils/SwapHelper.sol:SwapHelper","label":"lastQuotedSrcTokenAmount","offset":0,"slot":"12","type":"t_uint256"},{"astId":5390,"contract":"contracts/utils/SwapHelper.sol:SwapHelper","label":"lastSwapSrcToken","offset":0,"slot":"13","type":"t_address"},{"astId":5392,"contract":"contracts/utils/SwapHelper.sol:SwapHelper","label":"lastSwapDstToken","offset":0,"slot":"14","type":"t_address"},{"astId":5394,"contract":"contracts/utils/SwapHelper.sol:SwapHelper","label":"lastSwapSrcTokenAmount","offset":0,"slot":"15","type":"t_uint256"},{"astId":5396,"contract":"contracts/utils/SwapHelper.sol:SwapHelper","label":"isReadyToFulfillSwap","offset":0,"slot":"16","type":"t_bool"},{"astId":5398,"contract":"contracts/utils/SwapHelper.sol:SwapHelper","label":"_lastSwapCalldata","offset":0,"slot":"17","type":"t_bytes_storage"},{"astId":5401,"contract":"contracts/utils/SwapHelper.sol:SwapHelper","label":"_subscribers","offset":0,"slot":"18","type":"t_struct(AddressSet)4968_storage"}],"types":{"t_address":{"encoding":"inplace","label":"address","numberOfBytes":"20"},"t_array(t_bytes32)dyn_storage":{"base":"t_bytes32","encoding":"dynamic_array","label":"bytes32[]","numberOfBytes":"32"},"t_bool":{"encoding":"inplace","label":"bool","numberOfBytes":"1"},"t_bytes32":{"encoding":"inplace","label":"bytes32","numberOfBytes":"32"},"t_bytes_storage":{"encoding":"bytes","label":"bytes","numberOfBytes":"32"},"t_contract(ENSInterface)974":{"encoding":"inplace","label":"contract ENSInterface","numberOfBytes":"20"},"t_contract(LinkTokenInterface)1069":{"encoding":"inplace","label":"contract LinkTokenInterface","numberOfBytes":"20"},"t_contract(OperatorInterface)1149":{"encoding":"inplace","label":"contract OperatorInterface","numberOfBytes":"20"},"t_mapping(t_address,t_bool)":{"encoding":"mapping","key":"t_address","label":"mapping(address => bool)","numberOfBytes":"32","value":"t_bool"},"t_mapping(t_bytes32,t_address)":{"encoding":"mapping","key":"t_bytes32","label":"mapping(bytes32 => address)","numberOfBytes":"32","value":"t_address"},"t_mapping(t_bytes32,t_struct(RoleData)2195_storage)":{"encoding":"mapping","key":"t_bytes32","label":"mapping(bytes32 => struct AccessControl.RoleData)","numberOfBytes":"32","value":"t_struct(RoleData)2195_storage"},"t_mapping(t_bytes32,t_uint256)":{"encoding":"mapping","key":"t_bytes32","label":"mapping(bytes32 => uint256)","numberOfBytes":"32","value":"t_uint256"},"t_struct(AddressSet)4968_storage":{"encoding":"inplace","label":"struct EnumerableSet.AddressSet","members":[{"astId":4967,"contract":"contracts/utils/SwapHelper.sol:SwapHelper","label":"_inner","offset":0,"slot":"0","type":"t_struct(Set)4653_storage"}],"numberOfBytes":"64"},"t_struct(RoleData)2195_storage":{"encoding":"inplace","label":"struct AccessControl.RoleData","members":[{"astId":2192,"contract":"contracts/utils/SwapHelper.sol:SwapHelper","label":"members","offset":0,"slot":"0","type":"t_mapping(t_address,t_bool)"},{"astId":2194,"contract":"contracts/utils/SwapHelper.sol:SwapHelper","label":"adminRole","offset":0,"slot":"1","type":"t_bytes32"}],"numberOfBytes":"64"},"t_struct(Set)4653_storage":{"encoding":"inplace","label":"struct EnumerableSet.Set","members":[{"astId":4648,"contract":"contracts/utils/SwapHelper.sol:SwapHelper","label":"_values","offset":0,"slot":"0","type":"t_array(t_bytes32)dyn_storage"},{"astId":4652,"contract":"contracts/utils/SwapHelper.sol:SwapHelper","label":"_indexes","offset":0,"slot":"1","type":"t_mapping(t_bytes32,t_uint256)"}],"numberOfBytes":"64"},"t_uint256":{"encoding":"inplace","label":"uint256","numberOfBytes":"32"}}},"userdoc":{"kind":"user","methods":{},"version":1}}}}