{"contracts/utils/SwapHelper.sol":{"SwapHelper":{"abi":[{"inputs":[{"internalType":"address","name":"_aggregationRouter","type":"address"},{"internalType":"address[]","name":"authorizedToSwap","type":"address[]"}],"stateMutability":"nonpayable","type":"constructor"},{"anonymous":false,"inputs":[{"indexed":true,"internalType":"bytes32","name":"id","type":"bytes32"}],"name":"ChainlinkCancelled","type":"event"},{"anonymous":false,"inputs":[{"indexed":true,"internalType":"bytes32","name":"id","type":"bytes32"}],"name":"ChainlinkFulfilled","type":"event"},{"anonymous":false,"inputs":[{"indexed":true,"internalType":"bytes32","name":"id","type":"bytes32"}],"name":"ChainlinkRequested","type":"event"},{"anonymous":false,"inputs":[{"indexed":true,"internalType":"address","name":"from","type":"address"},{"indexed":true,"internalType":"address","name":"to","type":"address"}],"name":"OwnershipTransferRequested","type":"event"},{"anonymous":false,"inputs":[{"indexed":true,"internalType":"address","name":"from","type":"address"},{"indexed":true,"internalType":"address","name":"to","type":"address"}],"name":"OwnershipTransferred","type":"event"},{"anonymous":false,"inputs":[{"indexed":true,"internalType":"bytes32","name":"role","type":"bytes32"},{"indexed":true,"internalType":"bytes32","name":"previousAdminRole","type":"bytes32"},{"indexed":true,"internalType":"bytes32","name":"newAdminRole","type":"bytes32"}],"name":"RoleAdminChanged","type":"event"},{"anonymous":false,"inputs":[{"indexed":true,"internalType":"bytes32","name":"role","type":"bytes32"},{"indexed":true,"internalType":"address","name":"account","type":"address"},{"indexed":true,"internalType":"address","name":"sender","type":"address"}],"name":"RoleGranted","type":"event"},{"anonymous":false,"inputs":[{"indexed":true,"internalType":"bytes32","name":"role","type":"bytes32"},{"indexed":true,"internalType":"address","name":"account","type":"address"},{"indexed":true,"internalType":"address","name":"sender","type":"address"}],"name":"RoleRevoked","type":"event"},{"inputs":[],"name":"DEFAULT_ADMIN_ROLE","outputs":[{"internalType":"bytes32","name":"","type":"bytes32"}],"stateMutability":"view","type":"function"},{"inputs":[],"name":"SWAP_AUTHORIZED_ROLE","outputs":[{"internalType":"bytes32","name":"","type":"bytes32"}],"stateMutability":"view","type":"function"},{"inputs":[],"name":"acceptOwnership","outputs":[],"stateMutability":"nonpayable","type":"function"},{"inputs":[],"name":"aggregationRouter","outputs":[{"internalType":"address","name":"","type":"address"}],"stateMutability":"view","type":"function"},{"inputs":[],"name":"exactInput","outputs":[{"internalType":"uint256","name":"","type":"uint256"}],"stateMutability":"view","type":"function"},{"inputs":[],"name":"exactOutput","outputs":[{"internalType":"uint256","name":"","type":"uint256"}],"stateMutability":"view","type":"function"},{"inputs":[{"internalType":"bytes32","name":"role","type":"bytes32"}],"name":"getRoleAdmin","outputs":[{"internalType":"bytes32","name":"","type":"bytes32"}],"stateMutability":"view","type":"function"},{"inputs":[{"internalType":"bytes32","name":"role","type":"bytes32"},{"internalType":"address","name":"account","type":"address"}],"name":"grantRole","outputs":[],"stateMutability":"nonpayable","type":"function"},{"inputs":[{"internalType":"bytes32","name":"role","type":"bytes32"},{"internalType":"address","name":"account","type":"address"}],"name":"hasRole","outputs":[{"internalType":"bool","name":"","type":"bool"}],"stateMutability":"view","type":"function"},{"inputs":[],"name":"owner","outputs":[{"internalType":"address","name":"","type":"address"}],"stateMutability":"view","type":"function"},{"inputs":[{"internalType":"bytes32","name":"role","type":"bytes32"},{"internalType":"address","name":"account","type":"address"}],"name":"renounceRole","outputs":[],"stateMutability":"nonpayable","type":"function"},{"inputs":[{"internalType":"bytes32","name":"role","type":"bytes32"},{"internalType":"address","name":"account","type":"address"}],"name":"revokeRole","outputs":[],"stateMutability":"nonpayable","type":"function"},{"inputs":[{"internalType":"bytes4","name":"interfaceId","type":"bytes4"}],"name":"supportsInterface","outputs":[{"internalType":"bool","name":"","type":"bool"}],"stateMutability":"view","type":"function"},{"inputs":[{"internalType":"address[]","name":"path","type":"address[]"},{"internalType":"uint256[]","name":"slippages","type":"uint256[]"}],"name":"swap","outputs":[{"internalType":"uint256","name":"","type":"uint256"}],"stateMutability":"payable","type":"function"},{"inputs":[{"internalType":"address","name":"to","type":"address"}],"name":"transferOwnership","outputs":[],"stateMutability":"nonpayable","type":"function"}],"devdoc":{"events":{"RoleAdminChanged(bytes32,bytes32,bytes32)":{"details":"Emitted when `newAdminRole` is set as ``role``'s admin role, replacing `previousAdminRole` `DEFAULT_ADMIN_ROLE` is the starting admin for all roles, despite {RoleAdminChanged} not being emitted signaling this. _Available since v3.1._"},"RoleGranted(bytes32,address,address)":{"details":"Emitted when `account` is granted `role`. `sender` is the account that originated the contract call, an admin role bearer except when using {AccessControl-_setupRole}."},"RoleRevoked(bytes32,address,address)":{"details":"Emitted when `account` is revoked `role`. `sender` is the account that originated the contract call:   - if using `revokeRole`, it is the admin role bearer   - if using `renounceRole`, it is the role bearer (i.e. `account`)"}},"kind":"dev","methods":{"getRoleAdmin(bytes32)":{"details":"Returns the admin role that controls `role`. See {grantRole} and {revokeRole}. To change a role's admin, use {_setRoleAdmin}."},"grantRole(bytes32,address)":{"details":"Grants `role` to `account`. If `account` had not been already granted `role`, emits a {RoleGranted} event. Requirements: - the caller must have ``role``'s admin role. May emit a {RoleGranted} event."},"hasRole(bytes32,address)":{"details":"Returns `true` if `account` has been granted `role`."},"renounceRole(bytes32,address)":{"details":"Revokes `role` from the calling account. Roles are often managed via {grantRole} and {revokeRole}: this function's purpose is to provide a mechanism for accounts to lose their privileges if they are compromised (such as when a trusted device is misplaced). If the calling account had been revoked `role`, emits a {RoleRevoked} event. Requirements: - the caller must be `account`. May emit a {RoleRevoked} event."},"revokeRole(bytes32,address)":{"details":"Revokes `role` from `account`. If `account` had been granted `role`, emits a {RoleRevoked} event. Requirements: - the caller must have ``role``'s admin role. May emit a {RoleRevoked} event."},"supportsInterface(bytes4)":{"details":"See {IERC165-supportsInterface}."}},"version":1},"evm":{"bytecode":{"linkReferences":{},"object":"60a060405260016005553480156200001657600080fd5b5060405162001089380380620010898339810160408190526200003991620002d2565b3380600081620000905760405162461bcd60e51b815260206004820152601860248201527f43616e6e6f7420736574206f776e657220746f207a65726f000000000000000060448201526064015b60405180910390fd5b600780546001600160a01b0319166001600160a01b0384811691909117909155811615620000c357620000c38162000152565b5050506001600160a01b03821660805260005b81518160ff1610156200014957620001347ffab00a984754950c7187fb98f39da0ae224abbbee017c1699445ad0e19474a4d838360ff1681518110620001205762000120620003bb565b6020026020010151620001fe60201b60201c565b806200014081620003d1565b915050620000d6565b505050620003ff565b336001600160a01b03821603620001ac5760405162461bcd60e51b815260206004820152601760248201527f43616e6e6f74207472616e7366657220746f2073656c66000000000000000000604482015260640162000087565b600880546001600160a01b0319166001600160a01b03838116918217909255600754604051919216907fed8889f560326eb138920d842192f0eb3dd22b4f139c87a2c57538e05bae127890600090a350565b6000828152602081815260408083206001600160a01b038516845290915290205460ff166200029b576000828152602081815260408083206001600160a01b03851684529091529020805460ff191660011790556200025a3390565b6001600160a01b0316816001600160a01b0316837f2f8788117e7eff1d82e926ec794901d17c78024a50270940304540a733656f0d60405160405180910390a45b5050565b80516001600160a01b0381168114620002b757600080fd5b919050565b634e487b7160e01b600052604160045260246000fd5b60008060408385031215620002e657600080fd5b620002f1836200029f565b602084810151919350906001600160401b03808211156200031157600080fd5b818601915086601f8301126200032657600080fd5b8151818111156200033b576200033b620002bc565b8060051b604051601f19603f83011681018181108582111715620003635762000363620002bc565b6040529182528482019250838101850191898311156200038257600080fd5b938501935b82851015620003ab576200039b856200029f565b8452938501939285019262000387565b8096505050505050509250929050565b634e487b7160e01b600052603260045260246000fd5b600060ff821660ff8103620003f657634e487b7160e01b600052601160045260246000fd5b60010192915050565b608051610c6e6200041b60003960006102790152610c6e6000f3fe6080604052600436106100b85760003560e01c806301ffc9a7146100bd578063248a9ca3146100f25780632f2ff15d1461012057806336568abe146101425780634e0c61331461016257806379ba50971461018457806389a56aae146101995780638da5cb5b146101ad57806391d14854146101df57806395fa6263146101ff578063a217fddf14610212578063b1e0a10c14610199578063d547741f14610227578063f2fde38b14610247578063fcdfd94614610267575b600080fd5b3480156100c957600080fd5b506100dd6100d83660046108ac565b61029b565b60405190151581526020015b60405180910390f35b3480156100fe57600080fd5b5061011261010d3660046108d6565b6102d2565b6040519081526020016100e9565b34801561012c57600080fd5b5061014061013b36600461090b565b6102e7565b005b34801561014e57600080fd5b5061014061015d36600461090b565b610308565b34801561016e57600080fd5b50610112600080516020610c1983398151915281565b34801561019057600080fd5b5061014061038b565b3480156101a557600080fd5b506000610112565b3480156101b957600080fd5b506007546001600160a01b03165b6040516001600160a01b0390911681526020016100e9565b3480156101eb57600080fd5b506100dd6101fa36600461090b565b610439565b61011261020d366004610a0b565b610462565b34801561021e57600080fd5b50610112600081565b34801561023357600080fd5b5061014061024236600461090b565b610483565b34801561025357600080fd5b50610140610262366004610aca565b61049f565b34801561027357600080fd5b506101c77f000000000000000000000000000000000000000000000000000000000000000081565b60006001600160e01b03198216637965db0b60e01b14806102cc57506301ffc9a760e01b6001600160e01b03198316145b92915050565b60009081526020819052604090206001015490565b6102f0826102d2565b6102f9816104b3565b61030383836104bd565b505050565b6001600160a01b038116331461037d5760405162461bcd60e51b815260206004820152602f60248201527f416363657373436f6e74726f6c3a2063616e206f6e6c792072656e6f756e636560448201526e103937b632b9903337b91039b2b63360891b60648201526084015b60405180910390fd5b6103878282610541565b5050565b6008546001600160a01b031633146103de5760405162461bcd60e51b815260206004820152601660248201527526bab9ba10313290383937b837b9b2b21037bbb732b960511b6044820152606401610374565b600780546001600160a01b0319808216339081179093556008805490911690556040516001600160a01b03909116919082907f8be0079c531659141344cd1fd0a4f28419497f9722a3daafe3b4186f6b6457e090600090a350565b6000918252602082815260408084206001600160a01b0393909316845291905290205460ff1690565b6000600080516020610c1983398151915261047c816104b3565b5092915050565b61048c826102d2565b610495816104b3565b6103038383610541565b6104a76105a6565b6104b0816105fb565b50565b6104b0813361069f565b6104c78282610439565b610387576000828152602081815260408083206001600160a01b03851684529091529020805460ff191660011790556104fd3390565b6001600160a01b0316816001600160a01b0316837f2f8788117e7eff1d82e926ec794901d17c78024a50270940304540a733656f0d60405160405180910390a45050565b61054b8282610439565b15610387576000828152602081815260408083206001600160a01b0385168085529252808320805460ff1916905551339285917ff6391f5c32d9c69d2a47ea670b442974b53935d1edc7fd64eb21e047a839171b9190a45050565b6007546001600160a01b031633146105f95760405162461bcd60e51b815260206004820152601660248201527527b7363c9031b0b63630b1363290313c9037bbb732b960511b6044820152606401610374565b565b336001600160a01b0382160361064d5760405162461bcd60e51b815260206004820152601760248201527621b0b73737ba103a3930b739b332b9103a379039b2b63360491b6044820152606401610374565b600880546001600160a01b0319166001600160a01b03838116918217909255600754604051919216907fed8889f560326eb138920d842192f0eb3dd22b4f139c87a2c57538e05bae127890600090a350565b6106a98282610439565b610387576106b6816106f8565b6106c183602061070a565b6040516020016106d2929190610b09565b60408051601f198184030181529082905262461bcd60e51b825261037491600401610b78565b60606102cc6001600160a01b03831660145b60606000610719836002610bc1565b610724906002610bd8565b6001600160401b0381111561073b5761073b610937565b6040519080825280601f01601f191660200182016040528015610765576020820181803683370190505b509050600360fc1b8160008151811061078057610780610beb565b60200101906001600160f81b031916908160001a905350600f60fb1b816001815181106107af576107af610beb565b60200101906001600160f81b031916908160001a90535060006107d3846002610bc1565b6107de906001610bd8565b90505b6001811115610856576f181899199a1a9b1b9c1cb0b131b232b360811b85600f166010811061081257610812610beb565b1a60f81b82828151811061082857610828610beb565b60200101906001600160f81b031916908160001a90535060049490941c9361084f81610c01565b90506107e1565b5083156108a55760405162461bcd60e51b815260206004820181905260248201527f537472696e67733a20686578206c656e67746820696e73756666696369656e746044820152606401610374565b9392505050565b6000602082840312156108be57600080fd5b81356001600160e01b0319811681146108a557600080fd5b6000602082840312156108e857600080fd5b5035919050565b80356001600160a01b038116811461090657600080fd5b919050565b6000806040838503121561091e57600080fd5b8235915061092e602084016108ef565b90509250929050565b634e487b7160e01b600052604160045260246000fd5b604051601f8201601f191681016001600160401b038111828210171561097557610975610937565b604052919050565b60006001600160401b0382111561099657610996610937565b5060051b60200190565b600082601f8301126109b157600080fd5b813560206109c66109c18361097d565b61094d565b82815260059290921b840181019181810190868411156109e557600080fd5b8286015b84811015610a0057803583529183019183016109e9565b509695505050505050565b60008060408385031215610a1e57600080fd5b82356001600160401b0380821115610a3557600080fd5b818501915085601f830112610a4957600080fd5b81356020610a596109c18361097d565b82815260059290921b84018101918181019089841115610a7857600080fd5b948201945b83861015610a9d57610a8e866108ef565b82529482019490820190610a7d565b96505086013592505080821115610ab357600080fd5b50610ac0858286016109a0565b9150509250929050565b600060208284031215610adc57600080fd5b6108a5826108ef565b60005b83811015610b00578181015183820152602001610ae8565b50506000910152565b76020b1b1b2b9b9a1b7b73a3937b61d1030b1b1b7bab73a1604d1b815260008351610b3b816017850160208801610ae5565b7001034b99036b4b9b9b4b733903937b6329607d1b6017918401918201528351610b6c816028840160208801610ae5565b01602801949350505050565b6020815260008251806020840152610b97816040850160208701610ae5565b601f01601f19169190910160400192915050565b634e487b7160e01b600052601160045260246000fd5b80820281158282048414176102cc576102cc610bab565b808201808211156102cc576102cc610bab565b634e487b7160e01b600052603260045260246000fd5b600081610c1057610c10610bab565b50600019019056fefab00a984754950c7187fb98f39da0ae224abbbee017c1699445ad0e19474a4da264697066735822122030e8260eab7b5ed15124f21219c64ba7b3b2aba3a2c79f1faa04a7f6d853622764736f6c63430008130033","opcodes":"PUSH1 0xA0 PUSH1 0x40 MSTORE PUSH1 0x1 PUSH1 0x5 SSTORE CALLVALUE DUP1 ISZERO PUSH3 0x16 JUMPI PUSH1 0x0 DUP1 REVERT JUMPDEST POP PUSH1 0x40 MLOAD PUSH3 0x1089 CODESIZE SUB DUP1 PUSH3 0x1089 DUP4 CODECOPY DUP2 ADD PUSH1 0x40 DUP2 SWAP1 MSTORE PUSH3 0x39 SWAP2 PUSH3 0x2D2 JUMP JUMPDEST CALLER DUP1 PUSH1 0x0 DUP2 PUSH3 0x90 JUMPI PUSH1 0x40 MLOAD PUSH3 0x461BCD PUSH1 0xE5 SHL DUP2 MSTORE PUSH1 0x20 PUSH1 0x4 DUP3 ADD MSTORE PUSH1 0x18 PUSH1 0x24 DUP3 ADD MSTORE PUSH32 0x43616E6E6F7420736574206F776E657220746F207A65726F0000000000000000 PUSH1 0x44 DUP3 ADD MSTORE PUSH1 0x64 ADD JUMPDEST PUSH1 0x40 MLOAD DUP1 SWAP2 SUB SWAP1 REVERT JUMPDEST PUSH1 0x7 DUP1 SLOAD PUSH1 0x1 PUSH1 0x1 PUSH1 0xA0 SHL SUB NOT AND PUSH1 0x1 PUSH1 0x1 PUSH1 0xA0 SHL SUB DUP5 DUP2 AND SWAP2 SWAP1 SWAP2 OR SWAP1 SWAP2 SSTORE DUP2 AND ISZERO PUSH3 0xC3 JUMPI PUSH3 0xC3 DUP2 PUSH3 0x152 JUMP JUMPDEST POP POP POP PUSH1 0x1 PUSH1 0x1 PUSH1 0xA0 SHL SUB DUP3 AND PUSH1 0x80 MSTORE PUSH1 0x0 JUMPDEST DUP2 MLOAD DUP2 PUSH1 0xFF AND LT ISZERO PUSH3 0x149 JUMPI PUSH3 0x134 PUSH32 0xFAB00A984754950C7187FB98F39DA0AE224ABBBEE017C1699445AD0E19474A4D DUP4 DUP4 PUSH1 0xFF AND DUP2 MLOAD DUP2 LT PUSH3 0x120 JUMPI PUSH3 0x120 PUSH3 0x3BB JUMP JUMPDEST PUSH1 0x20 MUL PUSH1 0x20 ADD ADD MLOAD PUSH3 0x1FE PUSH1 0x20 SHL PUSH1 0x20 SHR JUMP JUMPDEST DUP1 PUSH3 0x140 DUP2 PUSH3 0x3D1 JUMP JUMPDEST SWAP2 POP POP PUSH3 0xD6 JUMP JUMPDEST POP POP POP PUSH3 0x3FF JUMP JUMPDEST CALLER PUSH1 0x1 PUSH1 0x1 PUSH1 0xA0 SHL SUB DUP3 AND SUB PUSH3 0x1AC JUMPI PUSH1 0x40 MLOAD PUSH3 0x461BCD PUSH1 0xE5 SHL DUP2 MSTORE PUSH1 0x20 PUSH1 0x4 DUP3 ADD MSTORE PUSH1 0x17 PUSH1 0x24 DUP3 ADD MSTORE PUSH32 0x43616E6E6F74207472616E7366657220746F2073656C66000000000000000000 PUSH1 0x44 DUP3 ADD MSTORE PUSH1 0x64 ADD PUSH3 0x87 JUMP JUMPDEST PUSH1 0x8 DUP1 SLOAD PUSH1 0x1 PUSH1 0x1 PUSH1 0xA0 SHL SUB NOT AND PUSH1 0x1 PUSH1 0x1 PUSH1 0xA0 SHL SUB DUP4 DUP2 AND SWAP2 DUP3 OR SWAP1 SWAP3 SSTORE PUSH1 0x7 SLOAD PUSH1 0x40 MLOAD SWAP2 SWAP3 AND SWAP1 PUSH32 0xED8889F560326EB138920D842192F0EB3DD22B4F139C87A2C57538E05BAE1278 SWAP1 PUSH1 0x0 SWAP1 LOG3 POP JUMP JUMPDEST PUSH1 0x0 DUP3 DUP2 MSTORE PUSH1 0x20 DUP2 DUP2 MSTORE PUSH1 0x40 DUP1 DUP4 KECCAK256 PUSH1 0x1 PUSH1 0x1 PUSH1 0xA0 SHL SUB DUP6 AND DUP5 MSTORE SWAP1 SWAP2 MSTORE SWAP1 KECCAK256 SLOAD PUSH1 0xFF AND PUSH3 0x29B JUMPI PUSH1 0x0 DUP3 DUP2 MSTORE PUSH1 0x20 DUP2 DUP2 MSTORE PUSH1 0x40 DUP1 DUP4 KECCAK256 PUSH1 0x1 PUSH1 0x1 PUSH1 0xA0 SHL SUB DUP6 AND DUP5 MSTORE SWAP1 SWAP2 MSTORE SWAP1 KECCAK256 DUP1 SLOAD PUSH1 0xFF NOT AND PUSH1 0x1 OR SWAP1 SSTORE PUSH3 0x25A CALLER SWAP1 JUMP JUMPDEST PUSH1 0x1 PUSH1 0x1 PUSH1 0xA0 SHL SUB AND DUP2 PUSH1 0x1 PUSH1 0x1 PUSH1 0xA0 SHL SUB AND DUP4 PUSH32 0x2F8788117E7EFF1D82E926EC794901D17C78024A50270940304540A733656F0D PUSH1 0x40 MLOAD PUSH1 0x40 MLOAD DUP1 SWAP2 SUB SWAP1 LOG4 JUMPDEST POP POP JUMP JUMPDEST DUP1 MLOAD PUSH1 0x1 PUSH1 0x1 PUSH1 0xA0 SHL SUB DUP2 AND DUP2 EQ PUSH3 0x2B7 JUMPI PUSH1 0x0 DUP1 REVERT JUMPDEST SWAP2 SWAP1 POP JUMP JUMPDEST PUSH4 0x4E487B71 PUSH1 0xE0 SHL PUSH1 0x0 MSTORE PUSH1 0x41 PUSH1 0x4 MSTORE PUSH1 0x24 PUSH1 0x0 REVERT JUMPDEST PUSH1 0x0 DUP1 PUSH1 0x40 DUP4 DUP6 SUB SLT ISZERO PUSH3 0x2E6 JUMPI PUSH1 0x0 DUP1 REVERT JUMPDEST PUSH3 0x2F1 DUP4 PUSH3 0x29F JUMP JUMPDEST PUSH1 0x20 DUP5 DUP2 ADD MLOAD SWAP2 SWAP4 POP SWAP1 PUSH1 0x1 PUSH1 0x1 PUSH1 0x40 SHL SUB DUP1 DUP3 GT ISZERO PUSH3 0x311 JUMPI PUSH1 0x0 DUP1 REVERT JUMPDEST DUP2 DUP7 ADD SWAP2 POP DUP7 PUSH1 0x1F DUP4 ADD SLT PUSH3 0x326 JUMPI PUSH1 0x0 DUP1 REVERT JUMPDEST DUP2 MLOAD DUP2 DUP2 GT ISZERO PUSH3 0x33B JUMPI PUSH3 0x33B PUSH3 0x2BC JUMP JUMPDEST DUP1 PUSH1 0x5 SHL PUSH1 0x40 MLOAD PUSH1 0x1F NOT PUSH1 0x3F DUP4 ADD AND DUP2 ADD DUP2 DUP2 LT DUP6 DUP3 GT OR ISZERO PUSH3 0x363 JUMPI PUSH3 0x363 PUSH3 0x2BC JUMP JUMPDEST PUSH1 0x40 MSTORE SWAP2 DUP3 MSTORE DUP5 DUP3 ADD SWAP3 POP DUP4 DUP2 ADD DUP6 ADD SWAP2 DUP10 DUP4 GT ISZERO PUSH3 0x382 JUMPI PUSH1 0x0 DUP1 REVERT JUMPDEST SWAP4 DUP6 ADD SWAP4 JUMPDEST DUP3 DUP6 LT ISZERO PUSH3 0x3AB JUMPI PUSH3 0x39B DUP6 PUSH3 0x29F JUMP JUMPDEST DUP5 MSTORE SWAP4 DUP6 ADD SWAP4 SWAP3 DUP6 ADD SWAP3 PUSH3 0x387 JUMP JUMPDEST DUP1 SWAP7 POP POP POP POP POP POP POP SWAP3 POP SWAP3 SWAP1 POP JUMP JUMPDEST PUSH4 0x4E487B71 PUSH1 0xE0 SHL PUSH1 0x0 MSTORE PUSH1 0x32 PUSH1 0x4 MSTORE PUSH1 0x24 PUSH1 0x0 REVERT JUMPDEST PUSH1 0x0 PUSH1 0xFF DUP3 AND PUSH1 0xFF DUP2 SUB PUSH3 0x3F6 JUMPI PUSH4 0x4E487B71 PUSH1 0xE0 SHL PUSH1 0x0 MSTORE PUSH1 0x11 PUSH1 0x4 MSTORE PUSH1 0x24 PUSH1 0x0 REVERT JUMPDEST PUSH1 0x1 ADD SWAP3 SWAP2 POP POP JUMP JUMPDEST PUSH1 0x80 MLOAD PUSH2 0xC6E PUSH3 0x41B PUSH1 0x0 CODECOPY PUSH1 0x0 PUSH2 0x279 ADD MSTORE PUSH2 0xC6E PUSH1 0x0 RETURN INVALID PUSH1 0x80 PUSH1 0x40 MSTORE PUSH1 0x4 CALLDATASIZE LT PUSH2 0xB8 JUMPI PUSH1 0x0 CALLDATALOAD PUSH1 0xE0 SHR DUP1 PUSH4 0x1FFC9A7 EQ PUSH2 0xBD JUMPI DUP1 PUSH4 0x248A9CA3 EQ PUSH2 0xF2 JUMPI DUP1 PUSH4 0x2F2FF15D EQ PUSH2 0x120 JUMPI DUP1 PUSH4 0x36568ABE EQ PUSH2 0x142 JUMPI DUP1 PUSH4 0x4E0C6133 EQ PUSH2 0x162 JUMPI DUP1 PUSH4 0x79BA5097 EQ PUSH2 0x184 JUMPI DUP1 PUSH4 0x89A56AAE EQ PUSH2 0x199 JUMPI DUP1 PUSH4 0x8DA5CB5B EQ PUSH2 0x1AD JUMPI DUP1 PUSH4 0x91D14854 EQ PUSH2 0x1DF JUMPI DUP1 PUSH4 0x95FA6263 EQ PUSH2 0x1FF JUMPI DUP1 PUSH4 0xA217FDDF EQ PUSH2 0x212 JUMPI DUP1 PUSH4 0xB1E0A10C EQ PUSH2 0x199 JUMPI DUP1 PUSH4 0xD547741F EQ PUSH2 0x227 JUMPI DUP1 PUSH4 0xF2FDE38B EQ PUSH2 0x247 JUMPI DUP1 PUSH4 0xFCDFD946 EQ PUSH2 0x267 JUMPI JUMPDEST PUSH1 0x0 DUP1 REVERT JUMPDEST CALLVALUE DUP1 ISZERO PUSH2 0xC9 JUMPI PUSH1 0x0 DUP1 REVERT JUMPDEST POP PUSH2 0xDD PUSH2 0xD8 CALLDATASIZE PUSH1 0x4 PUSH2 0x8AC JUMP JUMPDEST PUSH2 0x29B JUMP JUMPDEST PUSH1 0x40 MLOAD SWAP1 ISZERO ISZERO DUP2 MSTORE PUSH1 0x20 ADD JUMPDEST PUSH1 0x40 MLOAD DUP1 SWAP2 SUB SWAP1 RETURN JUMPDEST CALLVALUE DUP1 ISZERO PUSH2 0xFE JUMPI PUSH1 0x0 DUP1 REVERT JUMPDEST POP PUSH2 0x112 PUSH2 0x10D CALLDATASIZE PUSH1 0x4 PUSH2 0x8D6 JUMP JUMPDEST PUSH2 0x2D2 JUMP JUMPDEST PUSH1 0x40 MLOAD SWAP1 DUP2 MSTORE PUSH1 0x20 ADD PUSH2 0xE9 JUMP JUMPDEST CALLVALUE DUP1 ISZERO PUSH2 0x12C JUMPI PUSH1 0x0 DUP1 REVERT JUMPDEST POP PUSH2 0x140 PUSH2 0x13B CALLDATASIZE PUSH1 0x4 PUSH2 0x90B JUMP JUMPDEST PUSH2 0x2E7 JUMP JUMPDEST STOP JUMPDEST CALLVALUE DUP1 ISZERO PUSH2 0x14E JUMPI PUSH1 0x0 DUP1 REVERT JUMPDEST POP PUSH2 0x140 PUSH2 0x15D CALLDATASIZE PUSH1 0x4 PUSH2 0x90B JUMP JUMPDEST PUSH2 0x308 JUMP JUMPDEST CALLVALUE DUP1 ISZERO PUSH2 0x16E JUMPI PUSH1 0x0 DUP1 REVERT JUMPDEST POP PUSH2 0x112 PUSH1 0x0 DUP1 MLOAD PUSH1 0x20 PUSH2 0xC19 DUP4 CODECOPY DUP2 MLOAD SWAP2 MSTORE DUP2 JUMP JUMPDEST CALLVALUE DUP1 ISZERO PUSH2 0x190 JUMPI PUSH1 0x0 DUP1 REVERT JUMPDEST POP PUSH2 0x140 PUSH2 0x38B JUMP JUMPDEST CALLVALUE DUP1 ISZERO PUSH2 0x1A5 JUMPI PUSH1 0x0 DUP1 REVERT JUMPDEST POP PUSH1 0x0 PUSH2 0x112 JUMP JUMPDEST CALLVALUE DUP1 ISZERO PUSH2 0x1B9 JUMPI PUSH1 0x0 DUP1 REVERT JUMPDEST POP PUSH1 0x7 SLOAD PUSH1 0x1 PUSH1 0x1 PUSH1 0xA0 SHL SUB AND JUMPDEST PUSH1 0x40 MLOAD PUSH1 0x1 PUSH1 0x1 PUSH1 0xA0 SHL SUB SWAP1 SWAP2 AND DUP2 MSTORE PUSH1 0x20 ADD PUSH2 0xE9 JUMP JUMPDEST CALLVALUE DUP1 ISZERO PUSH2 0x1EB JUMPI PUSH1 0x0 DUP1 REVERT JUMPDEST POP PUSH2 0xDD PUSH2 0x1FA CALLDATASIZE PUSH1 0x4 PUSH2 0x90B JUMP JUMPDEST PUSH2 0x439 JUMP JUMPDEST PUSH2 0x112 PUSH2 0x20D CALLDATASIZE PUSH1 0x4 PUSH2 0xA0B JUMP JUMPDEST PUSH2 0x462 JUMP JUMPDEST CALLVALUE DUP1 ISZERO PUSH2 0x21E JUMPI PUSH1 0x0 DUP1 REVERT JUMPDEST POP PUSH2 0x112 PUSH1 0x0 DUP2 JUMP JUMPDEST CALLVALUE DUP1 ISZERO PUSH2 0x233 JUMPI PUSH1 0x0 DUP1 REVERT JUMPDEST POP PUSH2 0x140 PUSH2 0x242 CALLDATASIZE PUSH1 0x4 PUSH2 0x90B JUMP JUMPDEST PUSH2 0x483 JUMP JUMPDEST CALLVALUE DUP1 ISZERO PUSH2 0x253 JUMPI PUSH1 0x0 DUP1 REVERT JUMPDEST POP PUSH2 0x140 PUSH2 0x262 CALLDATASIZE PUSH1 0x4 PUSH2 0xACA JUMP JUMPDEST PUSH2 0x49F JUMP JUMPDEST CALLVALUE DUP1 ISZERO PUSH2 0x273 JUMPI PUSH1 0x0 DUP1 REVERT JUMPDEST POP PUSH2 0x1C7 PUSH32 0x0 DUP2 JUMP JUMPDEST PUSH1 0x0 PUSH1 0x1 PUSH1 0x1 PUSH1 0xE0 SHL SUB NOT DUP3 AND PUSH4 0x7965DB0B PUSH1 0xE0 SHL EQ DUP1 PUSH2 0x2CC JUMPI POP PUSH4 0x1FFC9A7 PUSH1 0xE0 SHL PUSH1 0x1 PUSH1 0x1 PUSH1 0xE0 SHL SUB NOT DUP4 AND EQ JUMPDEST SWAP3 SWAP2 POP POP JUMP JUMPDEST PUSH1 0x0 SWAP1 DUP2 MSTORE PUSH1 0x20 DUP2 SWAP1 MSTORE PUSH1 0x40 SWAP1 KECCAK256 PUSH1 0x1 ADD SLOAD SWAP1 JUMP JUMPDEST PUSH2 0x2F0 DUP3 PUSH2 0x2D2 JUMP JUMPDEST PUSH2 0x2F9 DUP2 PUSH2 0x4B3 JUMP JUMPDEST PUSH2 0x303 DUP4 DUP4 PUSH2 0x4BD JUMP JUMPDEST POP POP POP JUMP JUMPDEST PUSH1 0x1 PUSH1 0x1 PUSH1 0xA0 SHL SUB DUP2 AND CALLER EQ PUSH2 0x37D JUMPI PUSH1 0x40 MLOAD PUSH3 0x461BCD PUSH1 0xE5 SHL DUP2 MSTORE PUSH1 0x20 PUSH1 0x4 DUP3 ADD MSTORE PUSH1 0x2F PUSH1 0x24 DUP3 ADD MSTORE PUSH32 0x416363657373436F6E74726F6C3A2063616E206F6E6C792072656E6F756E6365 PUSH1 0x44 DUP3 ADD MSTORE PUSH15 0x103937B632B9903337B91039B2B633 PUSH1 0x89 SHL PUSH1 0x64 DUP3 ADD MSTORE PUSH1 0x84 ADD JUMPDEST PUSH1 0x40 MLOAD DUP1 SWAP2 SUB SWAP1 REVERT JUMPDEST PUSH2 0x387 DUP3 DUP3 PUSH2 0x541 JUMP JUMPDEST POP POP JUMP JUMPDEST PUSH1 0x8 SLOAD PUSH1 0x1 PUSH1 0x1 PUSH1 0xA0 SHL SUB AND CALLER EQ PUSH2 0x3DE JUMPI PUSH1 0x40 MLOAD PUSH3 0x461BCD PUSH1 0xE5 SHL DUP2 MSTORE PUSH1 0x20 PUSH1 0x4 DUP3 ADD MSTORE PUSH1 0x16 PUSH1 0x24 DUP3 ADD MSTORE PUSH22 0x26BAB9BA10313290383937B837B9B2B21037BBB732B9 PUSH1 0x51 SHL PUSH1 0x44 DUP3 ADD MSTORE PUSH1 0x64 ADD PUSH2 0x374 JUMP JUMPDEST PUSH1 0x7 DUP1 SLOAD PUSH1 0x1 PUSH1 0x1 PUSH1 0xA0 SHL SUB NOT DUP1 DUP3 AND CALLER SWAP1 DUP2 OR SWAP1 SWAP4 SSTORE PUSH1 0x8 DUP1 SLOAD SWAP1 SWAP2 AND SWAP1 SSTORE PUSH1 0x40 MLOAD PUSH1 0x1 PUSH1 0x1 PUSH1 0xA0 SHL SUB SWAP1 SWAP2 AND SWAP2 SWAP1 DUP3 SWAP1 PUSH32 0x8BE0079C531659141344CD1FD0A4F28419497F9722A3DAAFE3B4186F6B6457E0 SWAP1 PUSH1 0x0 SWAP1 LOG3 POP JUMP JUMPDEST PUSH1 0x0 SWAP2 DUP3 MSTORE PUSH1 0x20 DUP3 DUP2 MSTORE PUSH1 0x40 DUP1 DUP5 KECCAK256 PUSH1 0x1 PUSH1 0x1 PUSH1 0xA0 SHL SUB SWAP4 SWAP1 SWAP4 AND DUP5 MSTORE SWAP2 SWAP1 MSTORE SWAP1 KECCAK256 SLOAD PUSH1 0xFF AND SWAP1 JUMP JUMPDEST PUSH1 0x0 PUSH1 0x0 DUP1 MLOAD PUSH1 0x20 PUSH2 0xC19 DUP4 CODECOPY DUP2 MLOAD SWAP2 MSTORE PUSH2 0x47C DUP2 PUSH2 0x4B3 JUMP JUMPDEST POP SWAP3 SWAP2 POP POP JUMP JUMPDEST PUSH2 0x48C DUP3 PUSH2 0x2D2 JUMP JUMPDEST PUSH2 0x495 DUP2 PUSH2 0x4B3 JUMP JUMPDEST PUSH2 0x303 DUP4 DUP4 PUSH2 0x541 JUMP JUMPDEST PUSH2 0x4A7 PUSH2 0x5A6 JUMP JUMPDEST PUSH2 0x4B0 DUP2 PUSH2 0x5FB JUMP JUMPDEST POP JUMP JUMPDEST PUSH2 0x4B0 DUP2 CALLER PUSH2 0x69F JUMP JUMPDEST PUSH2 0x4C7 DUP3 DUP3 PUSH2 0x439 JUMP JUMPDEST PUSH2 0x387 JUMPI PUSH1 0x0 DUP3 DUP2 MSTORE PUSH1 0x20 DUP2 DUP2 MSTORE PUSH1 0x40 DUP1 DUP4 KECCAK256 PUSH1 0x1 PUSH1 0x1 PUSH1 0xA0 SHL SUB DUP6 AND DUP5 MSTORE SWAP1 SWAP2 MSTORE SWAP1 KECCAK256 DUP1 SLOAD PUSH1 0xFF NOT AND PUSH1 0x1 OR SWAP1 SSTORE PUSH2 0x4FD CALLER SWAP1 JUMP JUMPDEST PUSH1 0x1 PUSH1 0x1 PUSH1 0xA0 SHL SUB AND DUP2 PUSH1 0x1 PUSH1 0x1 PUSH1 0xA0 SHL SUB AND DUP4 PUSH32 0x2F8788117E7EFF1D82E926EC794901D17C78024A50270940304540A733656F0D PUSH1 0x40 MLOAD PUSH1 0x40 MLOAD DUP1 SWAP2 SUB SWAP1 LOG4 POP POP JUMP JUMPDEST PUSH2 0x54B DUP3 DUP3 PUSH2 0x439 JUMP JUMPDEST ISZERO PUSH2 0x387 JUMPI PUSH1 0x0 DUP3 DUP2 MSTORE PUSH1 0x20 DUP2 DUP2 MSTORE PUSH1 0x40 DUP1 DUP4 KECCAK256 PUSH1 0x1 PUSH1 0x1 PUSH1 0xA0 SHL SUB DUP6 AND DUP1 DUP6 MSTORE SWAP3 MSTORE DUP1 DUP4 KECCAK256 DUP1 SLOAD PUSH1 0xFF NOT AND SWAP1 SSTORE MLOAD CALLER SWAP3 DUP6 SWAP2 PUSH32 0xF6391F5C32D9C69D2A47EA670B442974B53935D1EDC7FD64EB21E047A839171B SWAP2 SWAP1 LOG4 POP POP JUMP JUMPDEST PUSH1 0x7 SLOAD PUSH1 0x1 PUSH1 0x1 PUSH1 0xA0 SHL SUB AND CALLER EQ PUSH2 0x5F9 JUMPI PUSH1 0x40 MLOAD PUSH3 0x461BCD PUSH1 0xE5 SHL DUP2 MSTORE PUSH1 0x20 PUSH1 0x4 DUP3 ADD MSTORE PUSH1 0x16 PUSH1 0x24 DUP3 ADD MSTORE PUSH22 0x27B7363C9031B0B63630B1363290313C9037BBB732B9 PUSH1 0x51 SHL PUSH1 0x44 DUP3 ADD MSTORE PUSH1 0x64 ADD PUSH2 0x374 JUMP JUMPDEST JUMP JUMPDEST CALLER PUSH1 0x1 PUSH1 0x1 PUSH1 0xA0 SHL SUB DUP3 AND SUB PUSH2 0x64D JUMPI PUSH1 0x40 MLOAD PUSH3 0x461BCD PUSH1 0xE5 SHL DUP2 MSTORE PUSH1 0x20 PUSH1 0x4 DUP3 ADD MSTORE PUSH1 0x17 PUSH1 0x24 DUP3 ADD MSTORE PUSH23 0x21B0B73737BA103A3930B739B332B9103A379039B2B633 PUSH1 0x49 SHL PUSH1 0x44 DUP3 ADD MSTORE PUSH1 0x64 ADD PUSH2 0x374 JUMP JUMPDEST PUSH1 0x8 DUP1 SLOAD PUSH1 0x1 PUSH1 0x1 PUSH1 0xA0 SHL SUB NOT AND PUSH1 0x1 PUSH1 0x1 PUSH1 0xA0 SHL SUB DUP4 DUP2 AND SWAP2 DUP3 OR SWAP1 SWAP3 SSTORE PUSH1 0x7 SLOAD PUSH1 0x40 MLOAD SWAP2 SWAP3 AND SWAP1 PUSH32 0xED8889F560326EB138920D842192F0EB3DD22B4F139C87A2C57538E05BAE1278 SWAP1 PUSH1 0x0 SWAP1 LOG3 POP JUMP JUMPDEST PUSH2 0x6A9 DUP3 DUP3 PUSH2 0x439 JUMP JUMPDEST PUSH2 0x387 JUMPI PUSH2 0x6B6 DUP2 PUSH2 0x6F8 JUMP JUMPDEST PUSH2 0x6C1 DUP4 PUSH1 0x20 PUSH2 0x70A JUMP JUMPDEST PUSH1 0x40 MLOAD PUSH1 0x20 ADD PUSH2 0x6D2 SWAP3 SWAP2 SWAP1 PUSH2 0xB09 JUMP JUMPDEST PUSH1 0x40 DUP1 MLOAD PUSH1 0x1F NOT DUP2 DUP5 SUB ADD DUP2 MSTORE SWAP1 DUP3 SWAP1 MSTORE PUSH3 0x461BCD PUSH1 0xE5 SHL DUP3 MSTORE PUSH2 0x374 SWAP2 PUSH1 0x4 ADD PUSH2 0xB78 JUMP JUMPDEST PUSH1 0x60 PUSH2 0x2CC PUSH1 0x1 PUSH1 0x1 PUSH1 0xA0 SHL SUB DUP4 AND PUSH1 0x14 JUMPDEST PUSH1 0x60 PUSH1 0x0 PUSH2 0x719 DUP4 PUSH1 0x2 PUSH2 0xBC1 JUMP JUMPDEST PUSH2 0x724 SWAP1 PUSH1 0x2 PUSH2 0xBD8 JUMP JUMPDEST PUSH1 0x1 PUSH1 0x1 PUSH1 0x40 SHL SUB DUP2 GT ISZERO PUSH2 0x73B JUMPI PUSH2 0x73B PUSH2 0x937 JUMP JUMPDEST PUSH1 0x40 MLOAD SWAP1 DUP1 DUP3 MSTORE DUP1 PUSH1 0x1F ADD PUSH1 0x1F NOT AND PUSH1 0x20 ADD DUP3 ADD PUSH1 0x40 MSTORE DUP1 ISZERO PUSH2 0x765 JUMPI PUSH1 0x20 DUP3 ADD DUP2 DUP1 CALLDATASIZE DUP4 CALLDATACOPY ADD SWAP1 POP JUMPDEST POP SWAP1 POP PUSH1 0x3 PUSH1 0xFC SHL DUP2 PUSH1 0x0 DUP2 MLOAD DUP2 LT PUSH2 0x780 JUMPI PUSH2 0x780 PUSH2 0xBEB JUMP JUMPDEST PUSH1 0x20 ADD ADD SWAP1 PUSH1 0x1 PUSH1 0x1 PUSH1 0xF8 SHL SUB NOT AND SWAP1 DUP2 PUSH1 0x0 BYTE SWAP1 MSTORE8 POP PUSH1 0xF PUSH1 0xFB SHL DUP2 PUSH1 0x1 DUP2 MLOAD DUP2 LT PUSH2 0x7AF JUMPI PUSH2 0x7AF PUSH2 0xBEB JUMP JUMPDEST PUSH1 0x20 ADD ADD SWAP1 PUSH1 0x1 PUSH1 0x1 PUSH1 0xF8 SHL SUB NOT AND SWAP1 DUP2 PUSH1 0x0 BYTE SWAP1 MSTORE8 POP PUSH1 0x0 PUSH2 0x7D3 DUP5 PUSH1 0x2 PUSH2 0xBC1 JUMP JUMPDEST PUSH2 0x7DE SWAP1 PUSH1 0x1 PUSH2 0xBD8 JUMP JUMPDEST SWAP1 POP JUMPDEST PUSH1 0x1 DUP2 GT ISZERO PUSH2 0x856 JUMPI PUSH16 0x181899199A1A9B1B9C1CB0B131B232B3 PUSH1 0x81 SHL DUP6 PUSH1 0xF AND PUSH1 0x10 DUP2 LT PUSH2 0x812 JUMPI PUSH2 0x812 PUSH2 0xBEB JUMP JUMPDEST BYTE PUSH1 0xF8 SHL DUP3 DUP3 DUP2 MLOAD DUP2 LT PUSH2 0x828 JUMPI PUSH2 0x828 PUSH2 0xBEB JUMP JUMPDEST PUSH1 0x20 ADD ADD SWAP1 PUSH1 0x1 PUSH1 0x1 PUSH1 0xF8 SHL SUB NOT AND SWAP1 DUP2 PUSH1 0x0 BYTE SWAP1 MSTORE8 POP PUSH1 0x4 SWAP5 SWAP1 SWAP5 SHR SWAP4 PUSH2 0x84F DUP2 PUSH2 0xC01 JUMP JUMPDEST SWAP1 POP PUSH2 0x7E1 JUMP JUMPDEST POP DUP4 ISZERO PUSH2 0x8A5 JUMPI PUSH1 0x40 MLOAD PUSH3 0x461BCD PUSH1 0xE5 SHL DUP2 MSTORE PUSH1 0x20 PUSH1 0x4 DUP3 ADD DUP2 SWAP1 MSTORE PUSH1 0x24 DUP3 ADD MSTORE PUSH32 0x537472696E67733A20686578206C656E67746820696E73756666696369656E74 PUSH1 0x44 DUP3 ADD MSTORE PUSH1 0x64 ADD PUSH2 0x374 JUMP JUMPDEST SWAP4 SWAP3 POP POP POP JUMP JUMPDEST PUSH1 0x0 PUSH1 0x20 DUP3 DUP5 SUB SLT ISZERO PUSH2 0x8BE JUMPI PUSH1 0x0 DUP1 REVERT JUMPDEST DUP2 CALLDATALOAD PUSH1 0x1 PUSH1 0x1 PUSH1 0xE0 SHL SUB NOT DUP2 AND DUP2 EQ PUSH2 0x8A5 JUMPI PUSH1 0x0 DUP1 REVERT JUMPDEST PUSH1 0x0 PUSH1 0x20 DUP3 DUP5 SUB SLT ISZERO PUSH2 0x8E8 JUMPI PUSH1 0x0 DUP1 REVERT JUMPDEST POP CALLDATALOAD SWAP2 SWAP1 POP JUMP JUMPDEST DUP1 CALLDATALOAD PUSH1 0x1 PUSH1 0x1 PUSH1 0xA0 SHL SUB DUP2 AND DUP2 EQ PUSH2 0x906 JUMPI PUSH1 0x0 DUP1 REVERT JUMPDEST SWAP2 SWAP1 POP JUMP JUMPDEST PUSH1 0x0 DUP1 PUSH1 0x40 DUP4 DUP6 SUB SLT ISZERO PUSH2 0x91E JUMPI PUSH1 0x0 DUP1 REVERT JUMPDEST DUP3 CALLDATALOAD SWAP2 POP PUSH2 0x92E PUSH1 0x20 DUP5 ADD PUSH2 0x8EF JUMP JUMPDEST SWAP1 POP SWAP3 POP SWAP3 SWAP1 POP JUMP JUMPDEST PUSH4 0x4E487B71 PUSH1 0xE0 SHL PUSH1 0x0 MSTORE PUSH1 0x41 PUSH1 0x4 MSTORE PUSH1 0x24 PUSH1 0x0 REVERT JUMPDEST PUSH1 0x40 MLOAD PUSH1 0x1F DUP3 ADD PUSH1 0x1F NOT AND DUP2 ADD PUSH1 0x1 PUSH1 0x1 PUSH1 0x40 SHL SUB DUP2 GT DUP3 DUP3 LT OR ISZERO PUSH2 0x975 JUMPI PUSH2 0x975 PUSH2 0x937 JUMP JUMPDEST PUSH1 0x40 MSTORE SWAP2 SWAP1 POP JUMP JUMPDEST PUSH1 0x0 PUSH1 0x1 PUSH1 0x1 PUSH1 0x40 SHL SUB DUP3 GT ISZERO PUSH2 0x996 JUMPI PUSH2 0x996 PUSH2 0x937 JUMP JUMPDEST POP PUSH1 0x5 SHL PUSH1 0x20 ADD SWAP1 JUMP JUMPDEST PUSH1 0x0 DUP3 PUSH1 0x1F DUP4 ADD SLT PUSH2 0x9B1 JUMPI PUSH1 0x0 DUP1 REVERT JUMPDEST DUP2 CALLDATALOAD PUSH1 0x20 PUSH2 0x9C6 PUSH2 0x9C1 DUP4 PUSH2 0x97D JUMP JUMPDEST PUSH2 0x94D JUMP JUMPDEST DUP3 DUP2 MSTORE PUSH1 0x5 SWAP3 SWAP1 SWAP3 SHL DUP5 ADD DUP2 ADD SWAP2 DUP2 DUP2 ADD SWAP1 DUP7 DUP5 GT ISZERO PUSH2 0x9E5 JUMPI PUSH1 0x0 DUP1 REVERT JUMPDEST DUP3 DUP7 ADD JUMPDEST DUP5 DUP2 LT ISZERO PUSH2 0xA00 JUMPI DUP1 CALLDATALOAD DUP4 MSTORE SWAP2 DUP4 ADD SWAP2 DUP4 ADD PUSH2 0x9E9 JUMP JUMPDEST POP SWAP7 SWAP6 POP POP POP POP POP POP JUMP JUMPDEST PUSH1 0x0 DUP1 PUSH1 0x40 DUP4 DUP6 SUB SLT ISZERO PUSH2 0xA1E JUMPI PUSH1 0x0 DUP1 REVERT JUMPDEST DUP3 CALLDATALOAD PUSH1 0x1 PUSH1 0x1 PUSH1 0x40 SHL SUB DUP1 DUP3 GT ISZERO PUSH2 0xA35 JUMPI PUSH1 0x0 DUP1 REVERT JUMPDEST DUP2 DUP6 ADD SWAP2 POP DUP6 PUSH1 0x1F DUP4 ADD SLT PUSH2 0xA49 JUMPI PUSH1 0x0 DUP1 REVERT JUMPDEST DUP2 CALLDATALOAD PUSH1 0x20 PUSH2 0xA59 PUSH2 0x9C1 DUP4 PUSH2 0x97D JUMP JUMPDEST DUP3 DUP2 MSTORE PUSH1 0x5 SWAP3 SWAP1 SWAP3 SHL DUP5 ADD DUP2 ADD SWAP2 DUP2 DUP2 ADD SWAP1 DUP10 DUP5 GT ISZERO PUSH2 0xA78 JUMPI PUSH1 0x0 DUP1 REVERT JUMPDEST SWAP5 DUP3 ADD SWAP5 JUMPDEST DUP4 DUP7 LT ISZERO PUSH2 0xA9D JUMPI PUSH2 0xA8E DUP7 PUSH2 0x8EF JUMP JUMPDEST DUP3 MSTORE SWAP5 DUP3 ADD SWAP5 SWAP1 DUP3 ADD SWAP1 PUSH2 0xA7D JUMP JUMPDEST SWAP7 POP POP DUP7 ADD CALLDATALOAD SWAP3 POP POP DUP1 DUP3 GT ISZERO PUSH2 0xAB3 JUMPI PUSH1 0x0 DUP1 REVERT JUMPDEST POP PUSH2 0xAC0 DUP6 DUP3 DUP7 ADD PUSH2 0x9A0 JUMP JUMPDEST SWAP2 POP POP SWAP3 POP SWAP3 SWAP1 POP JUMP JUMPDEST PUSH1 0x0 PUSH1 0x20 DUP3 DUP5 SUB SLT ISZERO PUSH2 0xADC JUMPI PUSH1 0x0 DUP1 REVERT JUMPDEST PUSH2 0x8A5 DUP3 PUSH2 0x8EF JUMP JUMPDEST PUSH1 0x0 JUMPDEST DUP4 DUP2 LT ISZERO PUSH2 0xB00 JUMPI DUP2 DUP2 ADD MLOAD DUP4 DUP3 ADD MSTORE PUSH1 0x20 ADD PUSH2 0xAE8 JUMP JUMPDEST POP POP PUSH1 0x0 SWAP2 ADD MSTORE JUMP JUMPDEST PUSH23 0x20B1B1B2B9B9A1B7B73A3937B61D1030B1B1B7BAB73A1 PUSH1 0x4D SHL DUP2 MSTORE PUSH1 0x0 DUP4 MLOAD PUSH2 0xB3B DUP2 PUSH1 0x17 DUP6 ADD PUSH1 0x20 DUP9 ADD PUSH2 0xAE5 JUMP JUMPDEST PUSH17 0x1034B99036B4B9B9B4B733903937B6329 PUSH1 0x7D SHL PUSH1 0x17 SWAP2 DUP5 ADD SWAP2 DUP3 ADD MSTORE DUP4 MLOAD PUSH2 0xB6C DUP2 PUSH1 0x28 DUP5 ADD PUSH1 0x20 DUP9 ADD PUSH2 0xAE5 JUMP JUMPDEST ADD PUSH1 0x28 ADD SWAP5 SWAP4 POP POP POP POP JUMP JUMPDEST PUSH1 0x20 DUP2 MSTORE PUSH1 0x0 DUP3 MLOAD DUP1 PUSH1 0x20 DUP5 ADD MSTORE PUSH2 0xB97 DUP2 PUSH1 0x40 DUP6 ADD PUSH1 0x20 DUP8 ADD PUSH2 0xAE5 JUMP JUMPDEST PUSH1 0x1F ADD PUSH1 0x1F NOT AND SWAP2 SWAP1 SWAP2 ADD PUSH1 0x40 ADD SWAP3 SWAP2 POP POP JUMP JUMPDEST PUSH4 0x4E487B71 PUSH1 0xE0 SHL PUSH1 0x0 MSTORE PUSH1 0x11 PUSH1 0x4 MSTORE PUSH1 0x24 PUSH1 0x0 REVERT JUMPDEST DUP1 DUP3 MUL DUP2 ISZERO DUP3 DUP3 DIV DUP5 EQ OR PUSH2 0x2CC JUMPI PUSH2 0x2CC PUSH2 0xBAB JUMP JUMPDEST DUP1 DUP3 ADD DUP1 DUP3 GT ISZERO PUSH2 0x2CC JUMPI PUSH2 0x2CC PUSH2 0xBAB JUMP JUMPDEST PUSH4 0x4E487B71 PUSH1 0xE0 SHL PUSH1 0x0 MSTORE PUSH1 0x32 PUSH1 0x4 MSTORE PUSH1 0x24 PUSH1 0x0 REVERT JUMPDEST PUSH1 0x0 DUP2 PUSH2 0xC10 JUMPI PUSH2 0xC10 PUSH2 0xBAB JUMP JUMPDEST POP PUSH1 0x0 NOT ADD SWAP1 JUMP INVALID STATICCALL 0xB0 EXP SWAP9 SELFBALANCE SLOAD SWAP6 0xC PUSH18 0x87FB98F39DA0AE224ABBBEE017C1699445AD 0xE NOT SELFBALANCE 0x4A 0x4D LOG2 PUSH5 0x6970667358 0x22 SLT KECCAK256 ADDRESS 0xE8 0x26 0xE 0xAB PUSH28 0x5ED15124F21219C64BA7B3B2ABA3A2C79F1FAA04A7F6D85362276473 PUSH16 0x6C634300081300330000000000000000 "},"gasEstimates":{"creation":{"codeDepositCost":"636400","executionCost":"infinite","totalCost":"infinite"},"external":{"DEFAULT_ADMIN_ROLE()":"393","SWAP_AUTHORIZED_ROLE()":"infinite","acceptOwnership()":"52396","aggregationRouter()":"infinite","exactInput()":"302","exactOutput()":"412","getRoleAdmin(bytes32)":"2459","grantRole(bytes32,address)":"infinite","hasRole(bytes32,address)":"2805","owner()":"2452","renounceRole(bytes32,address)":"29039","revokeRole(bytes32,address)":"infinite","supportsInterface(bytes4)":"404","swap(address[],uint256[])":"infinite","transferOwnership(address)":"30700"}},"methodIdentifiers":{"DEFAULT_ADMIN_ROLE()":"a217fddf","SWAP_AUTHORIZED_ROLE()":"4e0c6133","acceptOwnership()":"79ba5097","aggregationRouter()":"fcdfd946","exactInput()":"89a56aae","exactOutput()":"b1e0a10c","getRoleAdmin(bytes32)":"248a9ca3","grantRole(bytes32,address)":"2f2ff15d","hasRole(bytes32,address)":"91d14854","owner()":"8da5cb5b","renounceRole(bytes32,address)":"36568abe","revokeRole(bytes32,address)":"d547741f","supportsInterface(bytes4)":"01ffc9a7","swap(address[],uint256[])":"95fa6263","transferOwnership(address)":"f2fde38b"}},"storageLayout":{"storage":[{"astId":2398,"contract":"contracts/utils/SwapHelper.sol:SwapHelper","label":"_roles","offset":0,"slot":"0","type":"t_mapping(t_bytes32,t_struct(RoleData)2393_storage)"},{"astId":319,"contract":"contracts/utils/SwapHelper.sol:SwapHelper","label":"s_ens","offset":0,"slot":"1","type":"t_contract(ENSInterface)1156"},{"astId":321,"contract":"contracts/utils/SwapHelper.sol:SwapHelper","label":"s_ensNode","offset":0,"slot":"2","type":"t_bytes32"},{"astId":324,"contract":"contracts/utils/SwapHelper.sol:SwapHelper","label":"s_link","offset":0,"slot":"3","type":"t_contract(LinkTokenInterface)1251"},{"astId":327,"contract":"contracts/utils/SwapHelper.sol:SwapHelper","label":"s_oracle","offset":0,"slot":"4","type":"t_contract(OperatorInterface)1331"},{"astId":330,"contract":"contracts/utils/SwapHelper.sol:SwapHelper","label":"s_requestCount","offset":0,"slot":"5","type":"t_uint256"},{"astId":334,"contract":"contracts/utils/SwapHelper.sol:SwapHelper","label":"s_pendingRequests","offset":0,"slot":"6","type":"t_mapping(t_bytes32,t_address)"},{"astId":889,"contract":"contracts/utils/SwapHelper.sol:SwapHelper","label":"s_owner","offset":0,"slot":"7","type":"t_address"},{"astId":891,"contract":"contracts/utils/SwapHelper.sol:SwapHelper","label":"s_pendingOwner","offset":0,"slot":"8","type":"t_address"}],"types":{"t_address":{"encoding":"inplace","label":"address","numberOfBytes":"20"},"t_bool":{"encoding":"inplace","label":"bool","numberOfBytes":"1"},"t_bytes32":{"encoding":"inplace","label":"bytes32","numberOfBytes":"32"},"t_contract(ENSInterface)1156":{"encoding":"inplace","label":"contract ENSInterface","numberOfBytes":"20"},"t_contract(LinkTokenInterface)1251":{"encoding":"inplace","label":"contract LinkTokenInterface","numberOfBytes":"20"},"t_contract(OperatorInterface)1331":{"encoding":"inplace","label":"contract OperatorInterface","numberOfBytes":"20"},"t_mapping(t_address,t_bool)":{"encoding":"mapping","key":"t_address","label":"mapping(address => bool)","numberOfBytes":"32","value":"t_bool"},"t_mapping(t_bytes32,t_address)":{"encoding":"mapping","key":"t_bytes32","label":"mapping(bytes32 => address)","numberOfBytes":"32","value":"t_address"},"t_mapping(t_bytes32,t_struct(RoleData)2393_storage)":{"encoding":"mapping","key":"t_bytes32","label":"mapping(bytes32 => struct AccessControl.RoleData)","numberOfBytes":"32","value":"t_struct(RoleData)2393_storage"},"t_struct(RoleData)2393_storage":{"encoding":"inplace","label":"struct AccessControl.RoleData","members":[{"astId":2390,"contract":"contracts/utils/SwapHelper.sol:SwapHelper","label":"members","offset":0,"slot":"0","type":"t_mapping(t_address,t_bool)"},{"astId":2392,"contract":"contracts/utils/SwapHelper.sol:SwapHelper","label":"adminRole","offset":0,"slot":"1","type":"t_bytes32"}],"numberOfBytes":"64"},"t_uint256":{"encoding":"inplace","label":"uint256","numberOfBytes":"32"}}},"userdoc":{"kind":"user","methods":{"acceptOwnership()":{"notice":"Allows an ownership transfer to be completed by the recipient."},"owner()":{"notice":"Get the current owner"},"transferOwnership(address)":{"notice":"Allows an owner to begin transferring ownership to a new address, pending."}},"version":1}}}}