{"contracts/utils/SwapHelper.sol":{"SwapHelper":{"abi":[{"inputs":[{"internalType":"uint256","name":"_quoteJobFee","type":"uint256"},{"internalType":"uint256","name":"_swapCalldataJobFee","type":"uint256"},{"internalType":"bytes32","name":"_quoteJobId","type":"bytes32"},{"internalType":"bytes32","name":"_swapCalldataJobId","type":"bytes32"},{"internalType":"address","name":"_strategist","type":"address"},{"internalType":"address","name":"_aggregationRouter","type":"address"},{"internalType":"address","name":"chainlinkTokenAddress","type":"address"},{"internalType":"address","name":"chainlinkOracleAddress","type":"address"},{"internalType":"string","name":"_oneInchApiKey","type":"string"},{"internalType":"address[]","name":"authorizedToSwap","type":"address[]"}],"stateMutability":"nonpayable","type":"constructor"},{"inputs":[],"name":"CannotAddSubscriber","type":"error"},{"inputs":[],"name":"CannotRemoveSubscriber","type":"error"},{"inputs":[],"name":"NotEnoughNativeTokensSent","type":"error"},{"inputs":[],"name":"SlippageIsTooBig","type":"error"},{"inputs":[],"name":"SwapOperationIsNotReady","type":"error"},{"inputs":[],"name":"TransferError","type":"error"},{"anonymous":false,"inputs":[{"indexed":true,"internalType":"bytes32","name":"id","type":"bytes32"}],"name":"ChainlinkCancelled","type":"event"},{"anonymous":false,"inputs":[{"indexed":true,"internalType":"bytes32","name":"id","type":"bytes32"}],"name":"ChainlinkFulfilled","type":"event"},{"anonymous":false,"inputs":[{"indexed":true,"internalType":"bytes32","name":"id","type":"bytes32"}],"name":"ChainlinkRequested","type":"event"},{"anonymous":false,"inputs":[{"indexed":true,"internalType":"address","name":"from","type":"address"},{"indexed":true,"internalType":"address","name":"to","type":"address"}],"name":"OwnershipTransferRequested","type":"event"},{"anonymous":false,"inputs":[{"indexed":true,"internalType":"address","name":"from","type":"address"},{"indexed":true,"internalType":"address","name":"to","type":"address"}],"name":"OwnershipTransferred","type":"event"},{"anonymous":false,"inputs":[{"indexed":true,"internalType":"address","name":"src","type":"address"},{"indexed":true,"internalType":"address","name":"dst","type":"address"},{"indexed":true,"internalType":"uint256","name":"amountOut","type":"uint256"},{"indexed":false,"internalType":"uint256","name":"amountIn","type":"uint256"}],"name":"QuoteReceived","type":"event"},{"anonymous":false,"inputs":[{"indexed":true,"internalType":"bytes32","name":"role","type":"bytes32"},{"indexed":true,"internalType":"bytes32","name":"previousAdminRole","type":"bytes32"},{"indexed":true,"internalType":"bytes32","name":"newAdminRole","type":"bytes32"}],"name":"RoleAdminChanged","type":"event"},{"anonymous":false,"inputs":[{"indexed":true,"internalType":"bytes32","name":"role","type":"bytes32"},{"indexed":true,"internalType":"address","name":"account","type":"address"},{"indexed":true,"internalType":"address","name":"sender","type":"address"}],"name":"RoleGranted","type":"event"},{"anonymous":false,"inputs":[{"indexed":true,"internalType":"bytes32","name":"role","type":"bytes32"},{"indexed":true,"internalType":"address","name":"account","type":"address"},{"indexed":true,"internalType":"address","name":"sender","type":"address"}],"name":"RoleRevoked","type":"event"},{"anonymous":false,"inputs":[{"indexed":true,"internalType":"address","name":"src","type":"address"},{"indexed":true,"internalType":"address","name":"dst","type":"address"},{"indexed":true,"internalType":"uint256","name":"amountIn","type":"uint256"}],"name":"SwapPerformed","type":"event"},{"anonymous":false,"inputs":[{"indexed":true,"internalType":"bytes","name":"swapCalldata","type":"bytes"}],"name":"SwapRegistered","type":"event"},{"inputs":[],"name":"DEFAULT_ADMIN_ROLE","outputs":[{"internalType":"bytes32","name":"","type":"bytes32"}],"stateMutability":"view","type":"function"},{"inputs":[],"name":"ONE_INCH_ETH_ADDRESS","outputs":[{"internalType":"address","name":"","type":"address"}],"stateMutability":"view","type":"function"},{"inputs":[],"name":"STRATEGIST_ROLE","outputs":[{"internalType":"bytes32","name":"","type":"bytes32"}],"stateMutability":"view","type":"function"},{"inputs":[],"name":"SWAP_AUTHORIZED_ROLE","outputs":[{"internalType":"bytes32","name":"","type":"bytes32"}],"stateMutability":"view","type":"function"},{"inputs":[],"name":"acceptOwnership","outputs":[],"stateMutability":"nonpayable","type":"function"},{"inputs":[{"internalType":"address","name":"subscriber","type":"address"}],"name":"addSubscriber","outputs":[],"stateMutability":"nonpayable","type":"function"},{"inputs":[],"name":"aggregationRouter","outputs":[{"internalType":"address","name":"","type":"address"}],"stateMutability":"view","type":"function"},{"inputs":[],"name":"evacuateLinkTokens","outputs":[],"stateMutability":"nonpayable","type":"function"},{"inputs":[{"internalType":"bytes32","name":"requestId","type":"bytes32"},{"internalType":"uint256","name":"toAmount","type":"uint256"}],"name":"fulfillQuoteRequest","outputs":[],"stateMutability":"nonpayable","type":"function"},{"inputs":[],"name":"fulfillSwap","outputs":[],"stateMutability":"nonpayable","type":"function"},{"inputs":[{"internalType":"bytes32","name":"role","type":"bytes32"}],"name":"getRoleAdmin","outputs":[{"internalType":"bytes32","name":"","type":"bytes32"}],"stateMutability":"view","type":"function"},{"inputs":[{"internalType":"bytes32","name":"role","type":"bytes32"},{"internalType":"address","name":"account","type":"address"}],"name":"grantRole","outputs":[],"stateMutability":"nonpayable","type":"function"},{"inputs":[{"internalType":"bytes32","name":"role","type":"bytes32"},{"internalType":"address","name":"account","type":"address"}],"name":"hasRole","outputs":[{"internalType":"bool","name":"","type":"bool"}],"stateMutability":"view","type":"function"},{"inputs":[],"name":"isReadyToFulfillSwap","outputs":[{"internalType":"bool","name":"","type":"bool"}],"stateMutability":"view","type":"function"},{"inputs":[],"name":"lastQuotedDstToken","outputs":[{"internalType":"address","name":"","type":"address"}],"stateMutability":"view","type":"function"},{"inputs":[],"name":"lastQuotedSrcToken","outputs":[{"internalType":"address","name":"","type":"address"}],"stateMutability":"view","type":"function"},{"inputs":[],"name":"lastQuotedSrcTokenAmount","outputs":[{"internalType":"uint256","name":"","type":"uint256"}],"stateMutability":"view","type":"function"},{"inputs":[],"name":"lastSwapDstToken","outputs":[{"internalType":"address","name":"","type":"address"}],"stateMutability":"view","type":"function"},{"inputs":[],"name":"lastSwapSrcToken","outputs":[{"internalType":"address","name":"","type":"address"}],"stateMutability":"view","type":"function"},{"inputs":[],"name":"lastSwapSrcTokenAmount","outputs":[{"internalType":"uint256","name":"","type":"uint256"}],"stateMutability":"view","type":"function"},{"inputs":[],"name":"oneInchApiKey","outputs":[{"internalType":"string","name":"","type":"string"}],"stateMutability":"view","type":"function"},{"inputs":[],"name":"owner","outputs":[{"internalType":"address","name":"","type":"address"}],"stateMutability":"view","type":"function"},{"inputs":[],"name":"quoteJobFee","outputs":[{"internalType":"uint256","name":"","type":"uint256"}],"stateMutability":"view","type":"function"},{"inputs":[],"name":"quoteJobId","outputs":[{"internalType":"bytes32","name":"","type":"bytes32"}],"stateMutability":"view","type":"function"},{"inputs":[{"internalType":"bytes32","name":"requestId","type":"bytes32"},{"internalType":"bytes","name":"swapCalldata","type":"bytes"}],"name":"registerSwapCalldata","outputs":[],"stateMutability":"nonpayable","type":"function"},{"inputs":[{"internalType":"address","name":"subscriber","type":"address"}],"name":"removeSubscriber","outputs":[],"stateMutability":"nonpayable","type":"function"},{"inputs":[{"internalType":"bytes32","name":"role","type":"bytes32"},{"internalType":"address","name":"account","type":"address"}],"name":"renounceRole","outputs":[],"stateMutability":"nonpayable","type":"function"},{"inputs":[{"internalType":"address","name":"src","type":"address"},{"internalType":"address","name":"dst","type":"address"},{"internalType":"uint256","name":"amount","type":"uint256"}],"name":"requestQuote","outputs":[],"stateMutability":"nonpayable","type":"function"},{"inputs":[{"internalType":"address","name":"src","type":"address"},{"internalType":"address","name":"dst","type":"address"},{"internalType":"uint256","name":"amount","type":"uint256"},{"internalType":"uint8","name":"slippage","type":"uint8"}],"name":"requestSwap","outputs":[],"stateMutability":"payable","type":"function"},{"inputs":[{"internalType":"bytes32","name":"role","type":"bytes32"},{"internalType":"address","name":"account","type":"address"}],"name":"revokeRole","outputs":[],"stateMutability":"nonpayable","type":"function"},{"inputs":[{"internalType":"uint256","name":"subscriberIdx","type":"uint256"}],"name":"subscriberAt","outputs":[{"internalType":"address","name":"","type":"address"}],"stateMutability":"view","type":"function"},{"inputs":[],"name":"subscribersLength","outputs":[{"internalType":"uint256","name":"","type":"uint256"}],"stateMutability":"view","type":"function"},{"inputs":[{"internalType":"bytes4","name":"interfaceId","type":"bytes4"}],"name":"supportsInterface","outputs":[{"internalType":"bool","name":"","type":"bool"}],"stateMutability":"view","type":"function"},{"inputs":[],"name":"swapCalldataJobFee","outputs":[{"internalType":"uint256","name":"","type":"uint256"}],"stateMutability":"view","type":"function"},{"inputs":[],"name":"swapCalldataJobId","outputs":[{"internalType":"bytes32","name":"","type":"bytes32"}],"stateMutability":"view","type":"function"},{"inputs":[{"internalType":"address","name":"to","type":"address"}],"name":"transferOwnership","outputs":[],"stateMutability":"nonpayable","type":"function"},{"stateMutability":"payable","type":"receive"}],"devdoc":{"events":{"RoleAdminChanged(bytes32,bytes32,bytes32)":{"details":"Emitted when `newAdminRole` is set as ``role``'s admin role, replacing `previousAdminRole` `DEFAULT_ADMIN_ROLE` is the starting admin for all roles, despite {RoleAdminChanged} not being emitted signaling this. _Available since v3.1._"},"RoleGranted(bytes32,address,address)":{"details":"Emitted when `account` is granted `role`. `sender` is the account that originated the contract call, an admin role bearer except when using {AccessControl-_setupRole}."},"RoleRevoked(bytes32,address,address)":{"details":"Emitted when `account` is revoked `role`. `sender` is the account that originated the contract call:   - if using `revokeRole`, it is the admin role bearer   - if using `renounceRole`, it is the role bearer (i.e. `account`)"}},"kind":"dev","methods":{"getRoleAdmin(bytes32)":{"details":"Returns the admin role that controls `role`. See {grantRole} and {revokeRole}. To change a role's admin, use {_setRoleAdmin}."},"grantRole(bytes32,address)":{"details":"Grants `role` to `account`. If `account` had not been already granted `role`, emits a {RoleGranted} event. Requirements: - the caller must have ``role``'s admin role. May emit a {RoleGranted} event."},"hasRole(bytes32,address)":{"details":"Returns `true` if `account` has been granted `role`."},"renounceRole(bytes32,address)":{"details":"Revokes `role` from the calling account. Roles are often managed via {grantRole} and {revokeRole}: this function's purpose is to provide a mechanism for accounts to lose their privileges if they are compromised (such as when a trusted device is misplaced). If the calling account had been revoked `role`, emits a {RoleRevoked} event. Requirements: - the caller must be `account`. May emit a {RoleRevoked} event."},"revokeRole(bytes32,address)":{"details":"Revokes `role` from `account`. If `account` had been granted `role`, emits a {RoleRevoked} event. Requirements: - the caller must have ``role``'s admin role. May emit a {RoleRevoked} event."},"supportsInterface(bytes4)":{"details":"See {IERC165-supportsInterface}."}},"version":1},"evm":{"bytecode":{"linkReferences":{},"object":"61012060405260016005553480156200001757600080fd5b506040516200373b3803806200373b8339810160408190526200003a91620004ca565b3380600081620000915760405162461bcd60e51b815260206004820152601860248201527f43616e6e6f7420736574206f776e657220746f207a65726f000000000000000060448201526064015b60405180910390fd5b600780546001600160a01b0319166001600160a01b0384811691909117909155811615620000c457620000c481620001d7565b505050620000d8846200028360201b60201c565b600480546001600160a01b0319166001600160a01b03851617905560c08a905261010089905260a088905260e0879052601162000116838262000637565b506001600160a01b03851660805260005b81518160ff1610156200019a57620001857ffab00a984754950c7187fb98f39da0ae224abbbee017c1699445ad0e19474a4d838360ff168151811062000171576200017162000703565b6020026020010151620002a560201b60201c565b80620001918162000719565b91505062000127565b50620001c77f17a8e30262c1f919c33056d877a3c22b95c2f5e4dac44683c1c2323cd79fbdb087620002a5565b5050505050505050505062000747565b336001600160a01b03821603620002315760405162461bcd60e51b815260206004820152601760248201527f43616e6e6f74207472616e7366657220746f2073656c66000000000000000000604482015260640162000088565b600880546001600160a01b0319166001600160a01b03838116918217909255600754604051919216907fed8889f560326eb138920d842192f0eb3dd22b4f139c87a2c57538e05bae127890600090a350565b600380546001600160a01b0319166001600160a01b0392909216919091179055565b6000828152602081815260408083206001600160a01b038516845290915290205460ff1662000342576000828152602081815260408083206001600160a01b03851684529091529020805460ff19166001179055620003013390565b6001600160a01b0316816001600160a01b0316837f2f8788117e7eff1d82e926ec794901d17c78024a50270940304540a733656f0d60405160405180910390a45b5050565b80516001600160a01b03811681146200035e57600080fd5b919050565b634e487b7160e01b600052604160045260246000fd5b604051601f8201601f191681016001600160401b0381118282101715620003a457620003a462000363565b604052919050565b600082601f830112620003be57600080fd5b81516001600160401b03811115620003da57620003da62000363565b6020620003f0601f8301601f1916820162000379565b82815285828487010111156200040557600080fd5b60005b838110156200042557858101830151828201840152820162000408565b506000928101909101919091529392505050565b600082601f8301126200044b57600080fd5b815160206001600160401b0382111562000469576200046962000363565b8160051b6200047a82820162000379565b92835284810182019282810190878511156200049557600080fd5b83870192505b84831015620004bf57620004af8362000346565b825291830191908301906200049b565b979650505050505050565b6000806000806000806000806000806101408b8d031215620004eb57600080fd5b8a51995060208b0151985060408b0151975060608b015196506200051260808c0162000346565b95506200052260a08c0162000346565b94506200053260c08c0162000346565b93506200054260e08c0162000346565b6101008c01519093506001600160401b03808211156200056157600080fd5b6200056f8e838f01620003ac565b93506101208d01519150808211156200058757600080fd5b50620005968d828e0162000439565b9150509295989b9194979a5092959850565b600181811c90821680620005bd57607f821691505b602082108103620005de57634e487b7160e01b600052602260045260246000fd5b50919050565b601f8211156200063257600081815260208120601f850160051c810160208610156200060d5750805b601f850160051c820191505b818110156200062e5782815560010162000619565b5050505b505050565b81516001600160401b0381111562000653576200065362000363565b6200066b81620006648454620005a8565b84620005e4565b602080601f831160018114620006a357600084156200068a5750858301515b600019600386901b1c1916600185901b1785556200062e565b600085815260208120601f198616915b82811015620006d457888601518255948401946001909101908401620006b3565b5085821015620006f35787850151600019600388901b60f8161c191681555b5050505050600190811b01905550565b634e487b7160e01b600052603260045260246000fd5b600060ff821660ff81036200073e57634e487b7160e01b600052601160045260246000fd5b60010192915050565b60805160a05160c05160e05161010051612f77620007c46000396000818161051d0152611517015260008181610266015261132601526000818161037f015261098c015260008181610454015261079801526000818161065101528181611018015281816110d90152818161120d01526112ae0152612f776000f3fe6080604052600436106101a35760003560e01c806301ffc9a7146101af57806302458ad8146101e45780631a5b420714610206578063248a9ca3146102265780632547db8d14610254578063271e390a146102885780632f2ff15d146102b557806336568abe146102d55780633662dd35146102f557806336868f0e1461030b578063459c75d81461032b5780634e0c61331461034b57806353881b661461036d5780635b949dd0146103a1578063627c34ad146103b657806366b8455b146103d65780636ccf5b01146103eb57806379ba50971461040b5780637aff3a0c146104205780637ec14de8146104425780638da5cb5b1461047657806391d148541461049457806394555d1a146104b4578063a217fddf146104d4578063a378a324146104e9578063a6ccef3e1461050b578063aaeafd561461053f578063b56269a014610567578063c02e5bc71461057d578063c0d2e37f1461059d578063c87457db146105b7578063d547741f146105d7578063eaad47b2146105f7578063f09922ff1461060c578063f2fde38b1461061f578063fcdfd9461461063f57600080fd5b366101aa57005b600080fd5b3480156101bb57600080fd5b506101cf6101ca3660046124c3565b610673565b60405190151581526020015b60405180910390f35b3480156101f057600080fd5b506102046101ff366004612503565b6106aa565b005b34801561021257600080fd5b506102046102213660046125d9565b610779565b34801561023257600080fd5b50610246610241366004612615565b6109b8565b6040519081526020016101db565b34801561026057600080fd5b506102467f000000000000000000000000000000000000000000000000000000000000000081565b34801561029457600080fd5b50600c546102a8906001600160a01b031681565b6040516101db919061262e565b3480156102c157600080fd5b506102046102d0366004612642565b6109cd565b3480156102e157600080fd5b506102046102f0366004612642565b6109ee565b34801561030157600080fd5b50610246600b5481565b34801561031757600080fd5b50600d546102a8906001600160a01b031681565b34801561033757600080fd5b5061020461034636600461266e565b610a6c565b34801561035757600080fd5b50610246600080516020612f2283398151915281565b34801561037957600080fd5b506102467f000000000000000000000000000000000000000000000000000000000000000081565b3480156103ad57600080fd5b50610204610bd7565b3480156103c257600080fd5b506102046103d1366004612690565b610cff565b3480156103e257600080fd5b50610246610d3f565b3480156103f757600080fd5b506102a8610406366004612615565b610d50565b34801561041757600080fd5b50610204610d5d565b34801561042c57600080fd5b50610435610e0b565b6040516101db91906126fb565b34801561044e57600080fd5b506102467f000000000000000000000000000000000000000000000000000000000000000081565b34801561048257600080fd5b506007546001600160a01b03166102a8565b3480156104a057600080fd5b506101cf6104af366004612642565b610e99565b3480156104c057600080fd5b506102046104cf366004612690565b610ec2565b3480156104e057600080fd5b50610246600081565b3480156104f557600080fd5b50610246600080516020612ee283398151915281565b34801561051757600080fd5b506102467f000000000000000000000000000000000000000000000000000000000000000081565b34801561054b57600080fd5b506102a873eeeeeeeeeeeeeeeeeeeeeeeeeeeeeeeeeeeeeeee81565b34801561057357600080fd5b50610246600e5481565b34801561058957600080fd5b50600a546102a8906001600160a01b031681565b3480156105a957600080fd5b50600f546101cf9060ff1681565b3480156105c357600080fd5b506009546102a8906001600160a01b031681565b3480156105e357600080fd5b506102046105f2366004612642565b610f02565b34801561060357600080fd5b50610204610f1e565b61020461061a36600461270e565b611160565b34801561062b57600080fd5b5061020461063a366004612690565b611545565b34801561064b57600080fd5b506102a87f000000000000000000000000000000000000000000000000000000000000000081565b60006001600160e01b03198216637965db0b60e01b14806106a457506301ffc9a760e01b6001600160e01b03198316145b92915050565b60008281526006602052604090205482906001600160a01b031633146106eb5760405162461bcd60e51b81526004016106e290612763565b60405180910390fd5b60008181526006602052604080822080546001600160a01b0319169055518291600080516020612f0283398151915291a260106107288382612825565b50600f805460ff19166001179055604051610744908390612900565b604051908190038120907fa6b78fc047486d5add927aa53ba0d4fc8eb23a5811e0052aebeba21469f51df890600090a2505050565b600080516020612f2283398151915261079181611559565b60006107c57f0000000000000000000000000000000000000000000000000000000000000000306308b38ebb60e31b611563565b9050610815604051806040016040528060068152602001651b595d1a1bd960d21b8152506040518060400160405280600381526020016211d15560ea1b815250836115889092919063ffffffff16565b610879604051806040016040528060038152602001621d5c9b60ea1b81525061083d876115a6565b610846876115a6565b61084f876115bc565b6040516020016108619392919061291c565b60408051601f19818403018152919052839190611588565b6108ae604051806040016040528060078152602001666865616465727360c81b815250601160405160200161086191906129b2565b6109006040518060400160405280600781526020016618dbdb9d1858dd60ca1b815250604051806040016040528060068152602001651b9d5b595c9d60d21b815250836115889092919063ffffffff16565b610951604051806040016040528060048152602001630e0c2e8d60e31b815250604051806040016040528060088152602001671d1bd05b5bdd5b9d60c21b815250836115889092919063ffffffff16565b600980546001600160a01b038088166001600160a01b031992831617909255600a805492871692909116919091179055600b8390556109b0817f000000000000000000000000000000000000000000000000000000000000000061164e565b505050505050565b60009081526020819052604090206001015490565b6109d6826109b8565b6109df81611559565b6109e9838361166f565b505050565b6001600160a01b0381163314610a5e5760405162461bcd60e51b815260206004820152602f60248201527f416363657373436f6e74726f6c3a2063616e206f6e6c792072656e6f756e636560448201526e103937b632b9903337b91039b2b63360891b60648201526084016106e2565b610a6882826116f3565b5050565b60008281526006602052604090205482906001600160a01b03163314610aa45760405162461bcd60e51b81526004016106e290612763565b60008181526006602052604080822080546001600160a01b0319169055518291600080516020612f0283398151915291a2600a54600954600b5460405190815284926001600160a01b039081169216907fc6ef891de9793cb5acefea4d38d25452da06c1b8a922180eeb0f324523b326a09060200160405180910390a46000610b2d6012611758565b905060005b81811015610bd057610b45601282611762565b600954600a54600b5460405163b91dc4bb60e01b81526001600160a01b039384166004820152918316602483015260448201889052606482015291169063b91dc4bb90608401600060405180830381600087803b158015610ba557600080fd5b505af1158015610bb9573d6000803e3d6000fd5b505050508080610bc890612a97565b915050610b32565b5050505050565b600080516020612ee2833981519152610bef81611559565b6000610c036003546001600160a01b031690565b9050806001600160a01b031663a9059cbb33836001600160a01b03166370a08231306040518263ffffffff1660e01b8152600401610c41919061262e565b602060405180830381865afa158015610c5e573d6000803e3d6000fd5b505050506040513d601f19601f82011682018060405250810190610c829190612ab0565b6040518363ffffffff1660e01b8152600401610c9f929190612ac9565b6020604051808303816000875af1158015610cbe573d6000803e3d6000fd5b505050506040513d601f19601f82011682018060405250810190610ce29190612ae2565b610a68576040516313ff771f60e21b815260040160405180910390fd5b600080516020612ee2833981519152610d1781611559565b610d2260128361176e565b610a68576040516306e971bb60e31b815260040160405180910390fd5b6000610d4b6012611758565b905090565b60006106a4601283611762565b6008546001600160a01b03163314610db05760405162461bcd60e51b815260206004820152601660248201527526bab9ba10313290383937b837b9b2b21037bbb732b960511b60448201526064016106e2565b600780546001600160a01b0319808216339081179093556008805490911690556040516001600160a01b03909116919082907f8be0079c531659141344cd1fd0a4f28419497f9722a3daafe3b4186f6b6457e090600090a350565b60118054610e18906127ab565b80601f0160208091040260200160405190810160405280929190818152602001828054610e44906127ab565b8015610e915780601f10610e6657610100808354040283529160200191610e91565b820191906000526020600020905b815481529060010190602001808311610e7457829003601f168201915b505050505081565b6000918252602082815260408084206001600160a01b0393909316845291905290205460ff1690565b600080516020612ee2833981519152610eda81611559565b610ee5601283611783565b610a68576040516305c46f6760e31b815260040160405180910390fd5b610f0b826109b8565b610f1481611559565b6109e983836116f3565b600080516020612ee2833981519152610f3681611559565b600f5460ff16610f5957604051637d683d5360e01b815260040160405180910390fd5b600c546001600160a01b031673eeeeeeeeeeeeeeeeeeeeeeeeeeeeeeeeeeeeeeed19016110495761104360108054610f90906127ab565b80601f0160208091040260200160405190810160405280929190818152602001828054610fbc906127ab565b80156110095780601f10610fde57610100808354040283529160200191611009565b820191906000526020600020905b815481529060010190602001808311610fec57829003601f168201915b5050600e546001600160a01b037f000000000000000000000000000000000000000000000000000000000000000016949350915050611798565b50611111565b61110f60108054611059906127ab565b80601f0160208091040260200160405190810160405280929190818152602001828054611085906127ab565b80156110d25780601f106110a7576101008083540402835291602001916110d2565b820191906000526020600020905b8154815290600101906020018083116110b557829003601f168201915b50505050507f00000000000000000000000000000000000000000000000000000000000000006001600160a01b03166117c690919063ffffffff16565b505b600e54600d54600c546040516001600160a01b0392831692909116907fe8a8f43c967965902142e0f7bd4b7b3c55fc5b1a0df5e84fa8ded5cafe92770690600090a450600f805460ff19169055565b600080516020612f2283398151915261117881611559565b60328260ff16111561119d576040516336ee37fb60e21b815260040160405180910390fd5b6001600160a01b03851673eeeeeeeeeeeeeeeeeeeeeeeeeeeeeeeeeeeeeeee1480156111c857503483105b156111e657604051630dd86f5360e11b815260040160405180910390fd5b600f805460ff19169055604051636eb1769f60e11b81523060048201526001600160a01b037f0000000000000000000000000000000000000000000000000000000000000000811660248301528691859183169063dd62ed3e90604401602060405180830381865afa158015611260573d6000803e3d6000fd5b505050506040513d601f19601f820116820180604052508101906112849190612ab0565b101561131f5760405163095ea7b360e01b81526001600160a01b0382169063095ea7b3906112da907f00000000000000000000000000000000000000000000000000000000000000009060001990600401612ac9565b6020604051808303816000875af11580156112f9573d6000803e3d6000fd5b505050506040513d601f19601f8201168201806040525081019061131d9190612ae2565b505b60006113527f0000000000000000000000000000000000000000000000000000000000000000306248b15b60e31b611563565b90506113a2604051806040016040528060068152602001651b595d1a1bd960d21b8152506040518060400160405280600381526020016211d15560ea1b815250836115889092919063ffffffff16565b611405604051806040016040528060038152602001621d5c9b60ea1b8152506113ca896115a6565b6113d3896115a6565b6113dc896115bc565b6113e5336115a6565b6113f18a60ff166115bc565b604051602001610861959493929190612b04565b61143a604051806040016040528060078152602001666865616465727360c81b815250601160405160200161086191906129b2565b61148c6040518060400160405280600781526020016618dbdb9d1858dd60ca1b815250604051806040016040528060068152602001651b9d5b595c9d60d21b815250836115889092919063ffffffff16565b6114dc604051806040016040528060048152602001630e0c2e8d60e31b8152506040518060400160405280600781526020016674782c6461746160c81b815250836115889092919063ffffffff16565b600c80546001600160a01b03808a166001600160a01b031992831617909255600d805492891692909116919091179055600e85905561153b817f000000000000000000000000000000000000000000000000000000000000000061164e565b5050505050505050565b61154d61180a565b6115568161185f565b50565b6115568133611903565b61156b612474565b611573612474565b61157f8186868661195c565b95945050505050565b60808301516115979083611999565b60808301516109e99082611999565b60606106a46001600160a01b03831660146119b0565b606060006115c983611b4b565b60010190506000816001600160401b038111156115e8576115e86124ed565b6040519080825280601f01601f191660200182016040528015611612576020820181803683370190505b5090508181016020015b600019016f181899199a1a9b1b9c1cb0b131b232b360811b600a86061a8153600a850494508461161c57509392505050565b600454600090611668906001600160a01b03168484611c21565b9392505050565b6116798282610e99565b610a68576000828152602081815260408083206001600160a01b03851684529091529020805460ff191660011790556116af3390565b6001600160a01b0316816001600160a01b0316837f2f8788117e7eff1d82e926ec794901d17c78024a50270940304540a733656f0d60405160405180910390a45050565b6116fd8282610e99565b15610a68576000828152602081815260408083206001600160a01b0385168085529252808320805460ff1916905551339285917ff6391f5c32d9c69d2a47ea670b442974b53935d1edc7fd64eb21e047a839171b9190a45050565b60006106a4825490565b60006116688383611cb4565b6000611668836001600160a01b038416611cde565b6000611668836001600160a01b038416611dd1565b60606117be848484604051806060016040528060298152602001612e9960299139611e20565b949350505050565b6060611668838360006040518060400160405280601e81526020017f416464726573733a206c6f772d6c6576656c2063616c6c206661696c65640000815250611e20565b6007546001600160a01b0316331461185d5760405162461bcd60e51b815260206004820152601660248201527527b7363c9031b0b63630b1363290313c9037bbb732b960511b60448201526064016106e2565b565b336001600160a01b038216036118b15760405162461bcd60e51b815260206004820152601760248201527621b0b73737ba103a3930b739b332b9103a379039b2b63360491b60448201526064016106e2565b600880546001600160a01b0319166001600160a01b03838116918217909255600754604051919216907fed8889f560326eb138920d842192f0eb3dd22b4f139c87a2c57538e05bae127890600090a350565b61190d8282610e99565b610a685761191a816115a6565b6119258360206119b0565b604051602001611936929190612c08565b60408051601f198184030181529082905262461bcd60e51b82526106e2916004016126fb565b611964612474565b6119748560800151610100611efb565b50509183526001600160a01b031660208301526001600160e01b031916604082015290565b6119a68260038351611f53565b6109e98282612060565b606060006119bf836002612c77565b6119ca906002612c8e565b6001600160401b038111156119e1576119e16124ed565b6040519080825280601f01601f191660200182016040528015611a0b576020820181803683370190505b509050600360fc1b81600081518110611a2657611a26612ca1565b60200101906001600160f81b031916908160001a905350600f60fb1b81600181518110611a5557611a55612ca1565b60200101906001600160f81b031916908160001a9053506000611a79846002612c77565b611a84906001612c8e565b90505b6001811115611afc576f181899199a1a9b1b9c1cb0b131b232b360811b85600f1660108110611ab857611ab8612ca1565b1a60f81b828281518110611ace57611ace612ca1565b60200101906001600160f81b031916908160001a90535060049490941c93611af581612cb7565b9050611a87565b5083156116685760405162461bcd60e51b815260206004820181905260248201527f537472696e67733a20686578206c656e67746820696e73756666696369656e7460448201526064016106e2565b60008072184f03e93ff9f4daa797ed6e38ed64bf6a1f0160401b8310611b8a5772184f03e93ff9f4daa797ed6e38ed64bf6a1f0160401b830492506040015b6904ee2d6d415b85acef8160201b8310611bb4576904ee2d6d415b85acef8160201b830492506020015b662386f26fc100008310611bd257662386f26fc10000830492506010015b6305f5e1008310611bea576305f5e100830492506008015b6127108310611bfe57612710830492506004015b60648310611c10576064830492506002015b600a83106106a45760010192915050565b600554600090611c32816001612c8e565b600555835160408086015160808701515191516000936320214ca360e11b93611c6a9386938493923092918a91600191602401612cce565b60408051601f198184030181529190526020810180516001600160e01b03166001600160e01b0319909316929092179091529050611caa8683868461207a565b9695505050505050565b6000826000018281548110611ccb57611ccb612ca1565b9060005260206000200154905092915050565b60008181526001830160205260408120548015611dc7576000611d02600183612d36565b8554909150600090611d1690600190612d36565b9050818114611d7b576000866000018281548110611d3657611d36612ca1565b9060005260206000200154905080876000018481548110611d5957611d59612ca1565b6000918252602080832090910192909255918252600188019052604090208390555b8554869080611d8c57611d8c612d49565b6001900381819060005260206000200160009055905585600101600086815260200190815260200160002060009055600193505050506106a4565b60009150506106a4565b6000818152600183016020526040812054611e18575081546001818101845560008481526020808220909301849055845484825282860190935260409020919091556106a4565b5060006106a4565b606082471015611e815760405162461bcd60e51b815260206004820152602660248201527f416464726573733a20696e73756666696369656e742062616c616e636520666f6044820152651c8818d85b1b60d21b60648201526084016106e2565b600080866001600160a01b03168587604051611e9d9190612900565b60006040518083038185875af1925050503d8060008114611eda576040519150601f19603f3d011682016040523d82523d6000602084013e611edf565b606091505b5091509150611ef0878383876121d3565b979650505050505050565b611f036124a9565b611f0e602083612d5f565b15611f3657611f1e602083612d5f565b611f29906020612d36565b611f339083612c8e565b91505b506020828101829052604080518085526000815290920101905290565b6017816001600160401b031611611f7d57611f778360e0600585901b16831761224c565b50505050565b60ff816001600160401b031611611fb957611fa3836018611fe0600586901b161761224c565b50611f77836001600160401b0383166001612264565b61ffff816001600160401b031611611ff657611fe0836019611fe0600586901b161761224c565b50611f77836001600160401b0383166002612264565b63ffffffff816001600160401b0316116120355761201f83601a611fe0600586901b161761224c565b50611f77836001600160401b0383166004612264565b61204a83601b611fe0600586901b161761224c565b50611f77836001600160401b0383166008612264565b6120686124a9565b6116688384600001515184855161227d565b6040516001600160601b03193060601b1660208201526034810184905260009060540160408051808303601f1901815282825280516020918201206000818152600690925291812080546001600160a01b0319166001600160a01b038a1617905590925082917fb5e6e01e79f91267dc17b4e6314d5d4d03593d2ceee0fbb452b750bd70ea5af99190a2600354604051630200057560e51b81526001600160a01b0390911690634000aea09061213890889087908790600401612d81565b6020604051808303816000875af1158015612157573d6000803e3d6000fd5b505050506040513d601f19601f8201168201806040525081019061217b9190612ae2565b6117be5760405162461bcd60e51b815260206004820152602360248201527f756e61626c6520746f207472616e73666572416e6443616c6c20746f206f7261604482015262636c6560e81b60648201526084016106e2565b6060831561224257825160000361223b576001600160a01b0385163b61223b5760405162461bcd60e51b815260206004820152601d60248201527f416464726573733a2063616c6c20746f206e6f6e2d636f6e747261637400000060448201526064016106e2565b50816117be565b6117be838361235a565b6122546124a9565b6116688384600001515184612384565b61226c6124a9565b6117be8485600001515185856123d2565b6122856124a9565b825182111561229357600080fd5b60208501516122a28386612c8e565b11156122d5576122d5856122c5876020015187866122c09190612c8e565b612446565b6122d0906002612c77565b61245d565b6000808651805187602083010193508088870111156122f45787860182525b505050602084015b602084106123345780518252612313602083612c8e565b9150612320602082612c8e565b905061232d602085612d36565b93506122fc565b51815160001960208690036101000a019081169019919091161790525083949350505050565b81511561236a5781518083602001fd5b8060405162461bcd60e51b81526004016106e291906126fb565b61238c6124a9565b836020015183106123ac576123ac84856020015160026122d09190612c77565b83518051602085830101848153508085036123c8576001810182525b5093949350505050565b6123da6124a9565b60208501516123e98584612c8e565b11156123fd576123fd856122c58685612c8e565b6000600161240d84610100612e8c565b6124179190612d36565b905085518386820101858319825116178152508051848701111561243b5783860181525b509495945050505050565b6000818311156124575750816106a4565b50919050565b81516124698383611efb565b50611f778382612060565b6040805160a0810182526000808252602082018190529181018290526060810191909152608081016124a46124a9565b905290565b604051806040016040528060608152602001600081525090565b6000602082840312156124d557600080fd5b81356001600160e01b03198116811461166857600080fd5b634e487b7160e01b600052604160045260246000fd5b6000806040838503121561251657600080fd5b8235915060208301356001600160401b038082111561253457600080fd5b818501915085601f83011261254857600080fd5b81358181111561255a5761255a6124ed565b604051601f8201601f19908116603f01168101908382118183101715612582576125826124ed565b8160405282815288602084870101111561259b57600080fd5b8260208601602083013760006020848301015280955050505050509250929050565b80356001600160a01b03811681146125d457600080fd5b919050565b6000806000606084860312156125ee57600080fd5b6125f7846125bd565b9250612605602085016125bd565b9150604084013590509250925092565b60006020828403121561262757600080fd5b5035919050565b6001600160a01b0391909116815260200190565b6000806040838503121561265557600080fd5b82359150612665602084016125bd565b90509250929050565b6000806040838503121561268157600080fd5b50508035926020909101359150565b6000602082840312156126a257600080fd5b611668826125bd565b60005b838110156126c65781810151838201526020016126ae565b50506000910152565b600081518084526126e78160208601602086016126ab565b601f01601f19169290920160200192915050565b60208152600061166860208301846126cf565b6000806000806080858703121561272457600080fd5b61272d856125bd565b935061273b602086016125bd565b925060408501359150606085013560ff8116811461275857600080fd5b939692955090935050565b60208082526028908201527f536f75726365206d75737420626520746865206f7261636c65206f6620746865604082015267081c995c5d595cdd60c21b606082015260800190565b600181811c908216806127bf57607f821691505b60208210810361245757634e487b7160e01b600052602260045260246000fd5b601f8211156109e957600081815260208120601f850160051c810160208610156128065750805b601f850160051c820191505b818110156109b057828155600101612812565b81516001600160401b0381111561283e5761283e6124ed565b6128528161284c84546127ab565b846127df565b602080601f831160018114612887576000841561286f5750858301515b600019600386901b1c1916600185901b1785556109b0565b600085815260208120601f198616915b828110156128b657888601518255948401946001909101908401612897565b50858210156128d45787850151600019600388901b60f8161c191681555b5050505050600190811b01905550565b600081516128f68185602086016126ab565b9290920192915050565b600082516129128184602087016126ab565b9190910192915050565b600080516020612ec283398151915281526b312f71756f74653f7372633d60a01b60208201526000845161295781602c8501602089016126ab565b64266473743d60d81b602c91840191820152845161297c8160318401602089016126ab565b6726616d6f756e743d60c01b6031929091019182015283516129a58160398401602088016126ab565b0160390195945050505050565b7f5b22616363657074222c20226170706c69636174696f6e2f6a736f6e222c202281526000602077020baba3437b934bd30ba34b7b7111610112132b0b932b9160451b81840152603860008554612a08816127ab565b60018281168015612a205760018114612a3957612a69565b60ff198416898701528215158302890186019450612a69565b896000528660002060005b84811015612a5f5781548b8201890152908301908801612a44565b505085838a010194505b505061225d60f01b8352505060020195945050505050565b634e487b7160e01b600052601160045260246000fd5b600060018201612aa957612aa9612a81565b5060010190565b600060208284031215612ac257600080fd5b5051919050565b6001600160a01b03929092168252602082015260400190565b600060208284031215612af457600080fd5b8151801515811461166857600080fd5b600080516020612ec283398151915281526a312f737761703f7372633d60a81b602082015260008651612b3e81602b850160208b016126ab565b64266473743d60d81b602b918401918201528651612b63816030840160208b016126ab565b6726616d6f756e743d60c01b603092909101918201528551612b8c816038840160208a016126ab565b652666726f6d3d60d01b603892909101918201528451612bb381603e8401602089016126ab565b6926736c6970706167653d60b01b603e9290910191820152612bfc612bdb60488301866128e4565b742664697361626c65457374696d6174653d7472756560581b815260150190565b98975050505050505050565b76020b1b1b2b9b9a1b7b73a3937b61d1030b1b1b7bab73a1604d1b815260008351612c3a8160178501602088016126ab565b7001034b99036b4b9b9b4b733903937b6329607d1b6017918401918201528351612c6b8160288401602088016126ab565b01602801949350505050565b80820281158282048414176106a4576106a4612a81565b808201808211156106a4576106a4612a81565b634e487b7160e01b600052603260045260246000fd5b600081612cc657612cc6612a81565b506000190190565b6001600160a01b0389811682526020820189905260408201889052861660608201526001600160e01b03198516608082015260a0810184905260c0810183905261010060e08201819052600090612d27838201856126cf565b9b9a5050505050505050505050565b818103818111156106a4576106a4612a81565b634e487b7160e01b600052603160045260246000fd5b600082612d7c57634e487b7160e01b600052601260045260246000fd5b500690565b60018060a01b038416815282602082015260606040820152600061157f60608301846126cf565b600181815b80851115612de3578160001904821115612dc957612dc9612a81565b80851615612dd657918102915b93841c9390800290612dad565b509250929050565b600082612dfa575060016106a4565b81612e07575060006106a4565b8160018114612e1d5760028114612e2757612e43565b60019150506106a4565b60ff841115612e3857612e38612a81565b50506001821b6106a4565b5060208310610133831016604e8410600b8410161715612e66575081810a6106a4565b612e708383612da8565b8060001904821115612e8457612e84612a81565b029392505050565b60006116688383612deb56fe416464726573733a206c6f772d6c6576656c2063616c6c20776974682076616c7565206661696c656468747470733a2f2f6170692e31696e63682e6465762f737761702f76352e322f17a8e30262c1f919c33056d877a3c22b95c2f5e4dac44683c1c2323cd79fbdb07cc135e0cebb02c3480ae5d74d377283180a2601f8f644edf7987b009316c63afab00a984754950c7187fb98f39da0ae224abbbee017c1699445ad0e19474a4da26469706673582212205de94e55c5faba2fed3eebfa2068fbd1ea3d8d48b6a4117fb133a57f94a8553b64736f6c63430008130033","opcodes":"PUSH2 0x120 PUSH1 0x40 MSTORE PUSH1 0x1 PUSH1 0x5 SSTORE CALLVALUE DUP1 ISZERO PUSH3 0x17 JUMPI PUSH1 0x0 DUP1 REVERT JUMPDEST POP PUSH1 0x40 MLOAD PUSH3 0x373B CODESIZE SUB DUP1 PUSH3 0x373B DUP4 CODECOPY DUP2 ADD PUSH1 0x40 DUP2 SWAP1 MSTORE PUSH3 0x3A SWAP2 PUSH3 0x4CA JUMP JUMPDEST CALLER DUP1 PUSH1 0x0 DUP2 PUSH3 0x91 JUMPI PUSH1 0x40 MLOAD PUSH3 0x461BCD PUSH1 0xE5 SHL DUP2 MSTORE PUSH1 0x20 PUSH1 0x4 DUP3 ADD MSTORE PUSH1 0x18 PUSH1 0x24 DUP3 ADD MSTORE PUSH32 0x43616E6E6F7420736574206F776E657220746F207A65726F0000000000000000 PUSH1 0x44 DUP3 ADD MSTORE PUSH1 0x64 ADD JUMPDEST PUSH1 0x40 MLOAD DUP1 SWAP2 SUB SWAP1 REVERT JUMPDEST PUSH1 0x7 DUP1 SLOAD PUSH1 0x1 PUSH1 0x1 PUSH1 0xA0 SHL SUB NOT AND PUSH1 0x1 PUSH1 0x1 PUSH1 0xA0 SHL SUB DUP5 DUP2 AND SWAP2 SWAP1 SWAP2 OR SWAP1 SWAP2 SSTORE DUP2 AND ISZERO PUSH3 0xC4 JUMPI PUSH3 0xC4 DUP2 PUSH3 0x1D7 JUMP JUMPDEST POP POP POP PUSH3 0xD8 DUP5 PUSH3 0x283 PUSH1 0x20 SHL PUSH1 0x20 SHR JUMP JUMPDEST PUSH1 0x4 DUP1 SLOAD PUSH1 0x1 PUSH1 0x1 PUSH1 0xA0 SHL SUB NOT AND PUSH1 0x1 PUSH1 0x1 PUSH1 0xA0 SHL SUB DUP6 AND OR SWAP1 SSTORE PUSH1 0xC0 DUP11 SWAP1 MSTORE PUSH2 0x100 DUP10 SWAP1 MSTORE PUSH1 0xA0 DUP9 SWAP1 MSTORE PUSH1 0xE0 DUP8 SWAP1 MSTORE PUSH1 0x11 PUSH3 0x116 DUP4 DUP3 PUSH3 0x637 JUMP JUMPDEST POP PUSH1 0x1 PUSH1 0x1 PUSH1 0xA0 SHL SUB DUP6 AND PUSH1 0x80 MSTORE PUSH1 0x0 JUMPDEST DUP2 MLOAD DUP2 PUSH1 0xFF AND LT ISZERO PUSH3 0x19A JUMPI PUSH3 0x185 PUSH32 0xFAB00A984754950C7187FB98F39DA0AE224ABBBEE017C1699445AD0E19474A4D DUP4 DUP4 PUSH1 0xFF AND DUP2 MLOAD DUP2 LT PUSH3 0x171 JUMPI PUSH3 0x171 PUSH3 0x703 JUMP JUMPDEST PUSH1 0x20 MUL PUSH1 0x20 ADD ADD MLOAD PUSH3 0x2A5 PUSH1 0x20 SHL PUSH1 0x20 SHR JUMP JUMPDEST DUP1 PUSH3 0x191 DUP2 PUSH3 0x719 JUMP JUMPDEST SWAP2 POP POP PUSH3 0x127 JUMP JUMPDEST POP PUSH3 0x1C7 PUSH32 0x17A8E30262C1F919C33056D877A3C22B95C2F5E4DAC44683C1C2323CD79FBDB0 DUP8 PUSH3 0x2A5 JUMP JUMPDEST POP POP POP POP POP POP POP POP POP POP PUSH3 0x747 JUMP JUMPDEST CALLER PUSH1 0x1 PUSH1 0x1 PUSH1 0xA0 SHL SUB DUP3 AND SUB PUSH3 0x231 JUMPI PUSH1 0x40 MLOAD PUSH3 0x461BCD PUSH1 0xE5 SHL DUP2 MSTORE PUSH1 0x20 PUSH1 0x4 DUP3 ADD MSTORE PUSH1 0x17 PUSH1 0x24 DUP3 ADD MSTORE PUSH32 0x43616E6E6F74207472616E7366657220746F2073656C66000000000000000000 PUSH1 0x44 DUP3 ADD MSTORE PUSH1 0x64 ADD PUSH3 0x88 JUMP JUMPDEST PUSH1 0x8 DUP1 SLOAD PUSH1 0x1 PUSH1 0x1 PUSH1 0xA0 SHL SUB NOT AND PUSH1 0x1 PUSH1 0x1 PUSH1 0xA0 SHL SUB DUP4 DUP2 AND SWAP2 DUP3 OR SWAP1 SWAP3 SSTORE PUSH1 0x7 SLOAD PUSH1 0x40 MLOAD SWAP2 SWAP3 AND SWAP1 PUSH32 0xED8889F560326EB138920D842192F0EB3DD22B4F139C87A2C57538E05BAE1278 SWAP1 PUSH1 0x0 SWAP1 LOG3 POP JUMP JUMPDEST PUSH1 0x3 DUP1 SLOAD PUSH1 0x1 PUSH1 0x1 PUSH1 0xA0 SHL SUB NOT AND PUSH1 0x1 PUSH1 0x1 PUSH1 0xA0 SHL SUB SWAP3 SWAP1 SWAP3 AND SWAP2 SWAP1 SWAP2 OR SWAP1 SSTORE JUMP JUMPDEST PUSH1 0x0 DUP3 DUP2 MSTORE PUSH1 0x20 DUP2 DUP2 MSTORE PUSH1 0x40 DUP1 DUP4 KECCAK256 PUSH1 0x1 PUSH1 0x1 PUSH1 0xA0 SHL SUB DUP6 AND DUP5 MSTORE SWAP1 SWAP2 MSTORE SWAP1 KECCAK256 SLOAD PUSH1 0xFF AND PUSH3 0x342 JUMPI PUSH1 0x0 DUP3 DUP2 MSTORE PUSH1 0x20 DUP2 DUP2 MSTORE PUSH1 0x40 DUP1 DUP4 KECCAK256 PUSH1 0x1 PUSH1 0x1 PUSH1 0xA0 SHL SUB DUP6 AND DUP5 MSTORE SWAP1 SWAP2 MSTORE SWAP1 KECCAK256 DUP1 SLOAD PUSH1 0xFF NOT AND PUSH1 0x1 OR SWAP1 SSTORE PUSH3 0x301 CALLER SWAP1 JUMP JUMPDEST PUSH1 0x1 PUSH1 0x1 PUSH1 0xA0 SHL SUB AND DUP2 PUSH1 0x1 PUSH1 0x1 PUSH1 0xA0 SHL SUB AND DUP4 PUSH32 0x2F8788117E7EFF1D82E926EC794901D17C78024A50270940304540A733656F0D PUSH1 0x40 MLOAD PUSH1 0x40 MLOAD DUP1 SWAP2 SUB SWAP1 LOG4 JUMPDEST POP POP JUMP JUMPDEST DUP1 MLOAD PUSH1 0x1 PUSH1 0x1 PUSH1 0xA0 SHL SUB DUP2 AND DUP2 EQ PUSH3 0x35E JUMPI PUSH1 0x0 DUP1 REVERT JUMPDEST SWAP2 SWAP1 POP JUMP JUMPDEST PUSH4 0x4E487B71 PUSH1 0xE0 SHL PUSH1 0x0 MSTORE PUSH1 0x41 PUSH1 0x4 MSTORE PUSH1 0x24 PUSH1 0x0 REVERT JUMPDEST PUSH1 0x40 MLOAD PUSH1 0x1F DUP3 ADD PUSH1 0x1F NOT AND DUP2 ADD PUSH1 0x1 PUSH1 0x1 PUSH1 0x40 SHL SUB DUP2 GT DUP3 DUP3 LT OR ISZERO PUSH3 0x3A4 JUMPI PUSH3 0x3A4 PUSH3 0x363 JUMP JUMPDEST PUSH1 0x40 MSTORE SWAP2 SWAP1 POP JUMP JUMPDEST PUSH1 0x0 DUP3 PUSH1 0x1F DUP4 ADD SLT PUSH3 0x3BE JUMPI PUSH1 0x0 DUP1 REVERT JUMPDEST DUP2 MLOAD PUSH1 0x1 PUSH1 0x1 PUSH1 0x40 SHL SUB DUP2 GT ISZERO PUSH3 0x3DA JUMPI PUSH3 0x3DA PUSH3 0x363 JUMP JUMPDEST PUSH1 0x20 PUSH3 0x3F0 PUSH1 0x1F DUP4 ADD PUSH1 0x1F NOT AND DUP3 ADD PUSH3 0x379 JUMP JUMPDEST DUP3 DUP2 MSTORE DUP6 DUP3 DUP5 DUP8 ADD ADD GT ISZERO PUSH3 0x405 JUMPI PUSH1 0x0 DUP1 REVERT JUMPDEST PUSH1 0x0 JUMPDEST DUP4 DUP2 LT ISZERO PUSH3 0x425 JUMPI DUP6 DUP2 ADD DUP4 ADD MLOAD DUP3 DUP3 ADD DUP5 ADD MSTORE DUP3 ADD PUSH3 0x408 JUMP JUMPDEST POP PUSH1 0x0 SWAP3 DUP2 ADD SWAP1 SWAP2 ADD SWAP2 SWAP1 SWAP2 MSTORE SWAP4 SWAP3 POP POP POP JUMP JUMPDEST PUSH1 0x0 DUP3 PUSH1 0x1F DUP4 ADD SLT PUSH3 0x44B JUMPI PUSH1 0x0 DUP1 REVERT JUMPDEST DUP2 MLOAD PUSH1 0x20 PUSH1 0x1 PUSH1 0x1 PUSH1 0x40 SHL SUB DUP3 GT ISZERO PUSH3 0x469 JUMPI PUSH3 0x469 PUSH3 0x363 JUMP JUMPDEST DUP2 PUSH1 0x5 SHL PUSH3 0x47A DUP3 DUP3 ADD PUSH3 0x379 JUMP JUMPDEST SWAP3 DUP4 MSTORE DUP5 DUP2 ADD DUP3 ADD SWAP3 DUP3 DUP2 ADD SWAP1 DUP8 DUP6 GT ISZERO PUSH3 0x495 JUMPI PUSH1 0x0 DUP1 REVERT JUMPDEST DUP4 DUP8 ADD SWAP3 POP JUMPDEST DUP5 DUP4 LT ISZERO PUSH3 0x4BF JUMPI PUSH3 0x4AF DUP4 PUSH3 0x346 JUMP JUMPDEST DUP3 MSTORE SWAP2 DUP4 ADD SWAP2 SWAP1 DUP4 ADD SWAP1 PUSH3 0x49B JUMP JUMPDEST SWAP8 SWAP7 POP POP POP POP POP POP POP JUMP JUMPDEST PUSH1 0x0 DUP1 PUSH1 0x0 DUP1 PUSH1 0x0 DUP1 PUSH1 0x0 DUP1 PUSH1 0x0 DUP1 PUSH2 0x140 DUP12 DUP14 SUB SLT ISZERO PUSH3 0x4EB JUMPI PUSH1 0x0 DUP1 REVERT JUMPDEST DUP11 MLOAD SWAP10 POP PUSH1 0x20 DUP12 ADD MLOAD SWAP9 POP PUSH1 0x40 DUP12 ADD MLOAD SWAP8 POP PUSH1 0x60 DUP12 ADD MLOAD SWAP7 POP PUSH3 0x512 PUSH1 0x80 DUP13 ADD PUSH3 0x346 JUMP JUMPDEST SWAP6 POP PUSH3 0x522 PUSH1 0xA0 DUP13 ADD PUSH3 0x346 JUMP JUMPDEST SWAP5 POP PUSH3 0x532 PUSH1 0xC0 DUP13 ADD PUSH3 0x346 JUMP JUMPDEST SWAP4 POP PUSH3 0x542 PUSH1 0xE0 DUP13 ADD PUSH3 0x346 JUMP JUMPDEST PUSH2 0x100 DUP13 ADD MLOAD SWAP1 SWAP4 POP PUSH1 0x1 PUSH1 0x1 PUSH1 0x40 SHL SUB DUP1 DUP3 GT ISZERO PUSH3 0x561 JUMPI PUSH1 0x0 DUP1 REVERT JUMPDEST PUSH3 0x56F DUP15 DUP4 DUP16 ADD PUSH3 0x3AC JUMP JUMPDEST SWAP4 POP PUSH2 0x120 DUP14 ADD MLOAD SWAP2 POP DUP1 DUP3 GT ISZERO PUSH3 0x587 JUMPI PUSH1 0x0 DUP1 REVERT JUMPDEST POP PUSH3 0x596 DUP14 DUP3 DUP15 ADD PUSH3 0x439 JUMP JUMPDEST SWAP2 POP POP SWAP3 SWAP6 SWAP9 SWAP12 SWAP2 SWAP5 SWAP8 SWAP11 POP SWAP3 SWAP6 SWAP9 POP JUMP JUMPDEST PUSH1 0x1 DUP2 DUP2 SHR SWAP1 DUP3 AND DUP1 PUSH3 0x5BD JUMPI PUSH1 0x7F DUP3 AND SWAP2 POP JUMPDEST PUSH1 0x20 DUP3 LT DUP2 SUB PUSH3 0x5DE JUMPI PUSH4 0x4E487B71 PUSH1 0xE0 SHL PUSH1 0x0 MSTORE PUSH1 0x22 PUSH1 0x4 MSTORE PUSH1 0x24 PUSH1 0x0 REVERT JUMPDEST POP SWAP2 SWAP1 POP JUMP JUMPDEST PUSH1 0x1F DUP3 GT ISZERO PUSH3 0x632 JUMPI PUSH1 0x0 DUP2 DUP2 MSTORE PUSH1 0x20 DUP2 KECCAK256 PUSH1 0x1F DUP6 ADD PUSH1 0x5 SHR DUP2 ADD PUSH1 0x20 DUP7 LT ISZERO PUSH3 0x60D JUMPI POP DUP1 JUMPDEST PUSH1 0x1F DUP6 ADD PUSH1 0x5 SHR DUP3 ADD SWAP2 POP JUMPDEST DUP2 DUP2 LT ISZERO PUSH3 0x62E JUMPI DUP3 DUP2 SSTORE PUSH1 0x1 ADD PUSH3 0x619 JUMP JUMPDEST POP POP POP JUMPDEST POP POP POP JUMP JUMPDEST DUP2 MLOAD PUSH1 0x1 PUSH1 0x1 PUSH1 0x40 SHL SUB DUP2 GT ISZERO PUSH3 0x653 JUMPI PUSH3 0x653 PUSH3 0x363 JUMP JUMPDEST PUSH3 0x66B DUP2 PUSH3 0x664 DUP5 SLOAD PUSH3 0x5A8 JUMP JUMPDEST DUP5 PUSH3 0x5E4 JUMP JUMPDEST PUSH1 0x20 DUP1 PUSH1 0x1F DUP4 GT PUSH1 0x1 DUP2 EQ PUSH3 0x6A3 JUMPI PUSH1 0x0 DUP5 ISZERO PUSH3 0x68A JUMPI POP DUP6 DUP4 ADD MLOAD JUMPDEST PUSH1 0x0 NOT PUSH1 0x3 DUP7 SWAP1 SHL SHR NOT AND PUSH1 0x1 DUP6 SWAP1 SHL OR DUP6 SSTORE PUSH3 0x62E JUMP JUMPDEST PUSH1 0x0 DUP6 DUP2 MSTORE PUSH1 0x20 DUP2 KECCAK256 PUSH1 0x1F NOT DUP7 AND SWAP2 JUMPDEST DUP3 DUP2 LT ISZERO PUSH3 0x6D4 JUMPI DUP9 DUP7 ADD MLOAD DUP3 SSTORE SWAP5 DUP5 ADD SWAP5 PUSH1 0x1 SWAP1 SWAP2 ADD SWAP1 DUP5 ADD PUSH3 0x6B3 JUMP JUMPDEST POP DUP6 DUP3 LT ISZERO PUSH3 0x6F3 JUMPI DUP8 DUP6 ADD MLOAD PUSH1 0x0 NOT PUSH1 0x3 DUP9 SWAP1 SHL PUSH1 0xF8 AND SHR NOT AND DUP2 SSTORE JUMPDEST POP POP POP POP POP PUSH1 0x1 SWAP1 DUP2 SHL ADD SWAP1 SSTORE POP JUMP JUMPDEST PUSH4 0x4E487B71 PUSH1 0xE0 SHL PUSH1 0x0 MSTORE PUSH1 0x32 PUSH1 0x4 MSTORE PUSH1 0x24 PUSH1 0x0 REVERT JUMPDEST PUSH1 0x0 PUSH1 0xFF DUP3 AND PUSH1 0xFF DUP2 SUB PUSH3 0x73E JUMPI PUSH4 0x4E487B71 PUSH1 0xE0 SHL PUSH1 0x0 MSTORE PUSH1 0x11 PUSH1 0x4 MSTORE PUSH1 0x24 PUSH1 0x0 REVERT JUMPDEST PUSH1 0x1 ADD SWAP3 SWAP2 POP POP JUMP JUMPDEST PUSH1 0x80 MLOAD PUSH1 0xA0 MLOAD PUSH1 0xC0 MLOAD PUSH1 0xE0 MLOAD PUSH2 0x100 MLOAD PUSH2 0x2F77 PUSH3 0x7C4 PUSH1 0x0 CODECOPY PUSH1 0x0 DUP2 DUP2 PUSH2 0x51D ADD MSTORE PUSH2 0x1517 ADD MSTORE PUSH1 0x0 DUP2 DUP2 PUSH2 0x266 ADD MSTORE PUSH2 0x1326 ADD MSTORE PUSH1 0x0 DUP2 DUP2 PUSH2 0x37F ADD MSTORE PUSH2 0x98C ADD MSTORE PUSH1 0x0 DUP2 DUP2 PUSH2 0x454 ADD MSTORE PUSH2 0x798 ADD MSTORE PUSH1 0x0 DUP2 DUP2 PUSH2 0x651 ADD MSTORE DUP2 DUP2 PUSH2 0x1018 ADD MSTORE DUP2 DUP2 PUSH2 0x10D9 ADD MSTORE DUP2 DUP2 PUSH2 0x120D ADD MSTORE PUSH2 0x12AE ADD MSTORE PUSH2 0x2F77 PUSH1 0x0 RETURN INVALID PUSH1 0x80 PUSH1 0x40 MSTORE PUSH1 0x4 CALLDATASIZE LT PUSH2 0x1A3 JUMPI PUSH1 0x0 CALLDATALOAD PUSH1 0xE0 SHR DUP1 PUSH4 0x1FFC9A7 EQ PUSH2 0x1AF JUMPI DUP1 PUSH4 0x2458AD8 EQ PUSH2 0x1E4 JUMPI DUP1 PUSH4 0x1A5B4207 EQ PUSH2 0x206 JUMPI DUP1 PUSH4 0x248A9CA3 EQ PUSH2 0x226 JUMPI DUP1 PUSH4 0x2547DB8D EQ PUSH2 0x254 JUMPI DUP1 PUSH4 0x271E390A EQ PUSH2 0x288 JUMPI DUP1 PUSH4 0x2F2FF15D EQ PUSH2 0x2B5 JUMPI DUP1 PUSH4 0x36568ABE EQ PUSH2 0x2D5 JUMPI DUP1 PUSH4 0x3662DD35 EQ PUSH2 0x2F5 JUMPI DUP1 PUSH4 0x36868F0E EQ PUSH2 0x30B JUMPI DUP1 PUSH4 0x459C75D8 EQ PUSH2 0x32B JUMPI DUP1 PUSH4 0x4E0C6133 EQ PUSH2 0x34B JUMPI DUP1 PUSH4 0x53881B66 EQ PUSH2 0x36D JUMPI DUP1 PUSH4 0x5B949DD0 EQ PUSH2 0x3A1 JUMPI DUP1 PUSH4 0x627C34AD EQ PUSH2 0x3B6 JUMPI DUP1 PUSH4 0x66B8455B EQ PUSH2 0x3D6 JUMPI DUP1 PUSH4 0x6CCF5B01 EQ PUSH2 0x3EB JUMPI DUP1 PUSH4 0x79BA5097 EQ PUSH2 0x40B JUMPI DUP1 PUSH4 0x7AFF3A0C EQ PUSH2 0x420 JUMPI DUP1 PUSH4 0x7EC14DE8 EQ PUSH2 0x442 JUMPI DUP1 PUSH4 0x8DA5CB5B EQ PUSH2 0x476 JUMPI DUP1 PUSH4 0x91D14854 EQ PUSH2 0x494 JUMPI DUP1 PUSH4 0x94555D1A EQ PUSH2 0x4B4 JUMPI DUP1 PUSH4 0xA217FDDF EQ PUSH2 0x4D4 JUMPI DUP1 PUSH4 0xA378A324 EQ PUSH2 0x4E9 JUMPI DUP1 PUSH4 0xA6CCEF3E EQ PUSH2 0x50B JUMPI DUP1 PUSH4 0xAAEAFD56 EQ PUSH2 0x53F JUMPI DUP1 PUSH4 0xB56269A0 EQ PUSH2 0x567 JUMPI DUP1 PUSH4 0xC02E5BC7 EQ PUSH2 0x57D JUMPI DUP1 PUSH4 0xC0D2E37F EQ PUSH2 0x59D JUMPI DUP1 PUSH4 0xC87457DB EQ PUSH2 0x5B7 JUMPI DUP1 PUSH4 0xD547741F EQ PUSH2 0x5D7 JUMPI DUP1 PUSH4 0xEAAD47B2 EQ PUSH2 0x5F7 JUMPI DUP1 PUSH4 0xF09922FF EQ PUSH2 0x60C JUMPI DUP1 PUSH4 0xF2FDE38B EQ PUSH2 0x61F JUMPI DUP1 PUSH4 0xFCDFD946 EQ PUSH2 0x63F JUMPI PUSH1 0x0 DUP1 REVERT JUMPDEST CALLDATASIZE PUSH2 0x1AA JUMPI STOP JUMPDEST PUSH1 0x0 DUP1 REVERT JUMPDEST CALLVALUE DUP1 ISZERO PUSH2 0x1BB JUMPI PUSH1 0x0 DUP1 REVERT JUMPDEST POP PUSH2 0x1CF PUSH2 0x1CA CALLDATASIZE PUSH1 0x4 PUSH2 0x24C3 JUMP JUMPDEST PUSH2 0x673 JUMP JUMPDEST PUSH1 0x40 MLOAD SWAP1 ISZERO ISZERO DUP2 MSTORE PUSH1 0x20 ADD JUMPDEST PUSH1 0x40 MLOAD DUP1 SWAP2 SUB SWAP1 RETURN JUMPDEST CALLVALUE DUP1 ISZERO PUSH2 0x1F0 JUMPI PUSH1 0x0 DUP1 REVERT JUMPDEST POP PUSH2 0x204 PUSH2 0x1FF CALLDATASIZE PUSH1 0x4 PUSH2 0x2503 JUMP JUMPDEST PUSH2 0x6AA JUMP JUMPDEST STOP JUMPDEST CALLVALUE DUP1 ISZERO PUSH2 0x212 JUMPI PUSH1 0x0 DUP1 REVERT JUMPDEST POP PUSH2 0x204 PUSH2 0x221 CALLDATASIZE PUSH1 0x4 PUSH2 0x25D9 JUMP JUMPDEST PUSH2 0x779 JUMP JUMPDEST CALLVALUE DUP1 ISZERO PUSH2 0x232 JUMPI PUSH1 0x0 DUP1 REVERT JUMPDEST POP PUSH2 0x246 PUSH2 0x241 CALLDATASIZE PUSH1 0x4 PUSH2 0x2615 JUMP JUMPDEST PUSH2 0x9B8 JUMP JUMPDEST PUSH1 0x40 MLOAD SWAP1 DUP2 MSTORE PUSH1 0x20 ADD PUSH2 0x1DB JUMP JUMPDEST CALLVALUE DUP1 ISZERO PUSH2 0x260 JUMPI PUSH1 0x0 DUP1 REVERT JUMPDEST POP PUSH2 0x246 PUSH32 0x0 DUP2 JUMP JUMPDEST CALLVALUE DUP1 ISZERO PUSH2 0x294 JUMPI PUSH1 0x0 DUP1 REVERT JUMPDEST POP PUSH1 0xC SLOAD PUSH2 0x2A8 SWAP1 PUSH1 0x1 PUSH1 0x1 PUSH1 0xA0 SHL SUB AND DUP2 JUMP JUMPDEST PUSH1 0x40 MLOAD PUSH2 0x1DB SWAP2 SWAP1 PUSH2 0x262E JUMP JUMPDEST CALLVALUE DUP1 ISZERO PUSH2 0x2C1 JUMPI PUSH1 0x0 DUP1 REVERT JUMPDEST POP PUSH2 0x204 PUSH2 0x2D0 CALLDATASIZE PUSH1 0x4 PUSH2 0x2642 JUMP JUMPDEST PUSH2 0x9CD JUMP JUMPDEST CALLVALUE DUP1 ISZERO PUSH2 0x2E1 JUMPI PUSH1 0x0 DUP1 REVERT JUMPDEST POP PUSH2 0x204 PUSH2 0x2F0 CALLDATASIZE PUSH1 0x4 PUSH2 0x2642 JUMP JUMPDEST PUSH2 0x9EE JUMP JUMPDEST CALLVALUE DUP1 ISZERO PUSH2 0x301 JUMPI PUSH1 0x0 DUP1 REVERT JUMPDEST POP PUSH2 0x246 PUSH1 0xB SLOAD DUP2 JUMP JUMPDEST CALLVALUE DUP1 ISZERO PUSH2 0x317 JUMPI PUSH1 0x0 DUP1 REVERT JUMPDEST POP PUSH1 0xD SLOAD PUSH2 0x2A8 SWAP1 PUSH1 0x1 PUSH1 0x1 PUSH1 0xA0 SHL SUB AND DUP2 JUMP JUMPDEST CALLVALUE DUP1 ISZERO PUSH2 0x337 JUMPI PUSH1 0x0 DUP1 REVERT JUMPDEST POP PUSH2 0x204 PUSH2 0x346 CALLDATASIZE PUSH1 0x4 PUSH2 0x266E JUMP JUMPDEST PUSH2 0xA6C JUMP JUMPDEST CALLVALUE DUP1 ISZERO PUSH2 0x357 JUMPI PUSH1 0x0 DUP1 REVERT JUMPDEST POP PUSH2 0x246 PUSH1 0x0 DUP1 MLOAD PUSH1 0x20 PUSH2 0x2F22 DUP4 CODECOPY DUP2 MLOAD SWAP2 MSTORE DUP2 JUMP JUMPDEST CALLVALUE DUP1 ISZERO PUSH2 0x379 JUMPI PUSH1 0x0 DUP1 REVERT JUMPDEST POP PUSH2 0x246 PUSH32 0x0 DUP2 JUMP JUMPDEST CALLVALUE DUP1 ISZERO PUSH2 0x3AD JUMPI PUSH1 0x0 DUP1 REVERT JUMPDEST POP PUSH2 0x204 PUSH2 0xBD7 JUMP JUMPDEST CALLVALUE DUP1 ISZERO PUSH2 0x3C2 JUMPI PUSH1 0x0 DUP1 REVERT JUMPDEST POP PUSH2 0x204 PUSH2 0x3D1 CALLDATASIZE PUSH1 0x4 PUSH2 0x2690 JUMP JUMPDEST PUSH2 0xCFF JUMP JUMPDEST CALLVALUE DUP1 ISZERO PUSH2 0x3E2 JUMPI PUSH1 0x0 DUP1 REVERT JUMPDEST POP PUSH2 0x246 PUSH2 0xD3F JUMP JUMPDEST CALLVALUE DUP1 ISZERO PUSH2 0x3F7 JUMPI PUSH1 0x0 DUP1 REVERT JUMPDEST POP PUSH2 0x2A8 PUSH2 0x406 CALLDATASIZE PUSH1 0x4 PUSH2 0x2615 JUMP JUMPDEST PUSH2 0xD50 JUMP JUMPDEST CALLVALUE DUP1 ISZERO PUSH2 0x417 JUMPI PUSH1 0x0 DUP1 REVERT JUMPDEST POP PUSH2 0x204 PUSH2 0xD5D JUMP JUMPDEST CALLVALUE DUP1 ISZERO PUSH2 0x42C JUMPI PUSH1 0x0 DUP1 REVERT JUMPDEST POP PUSH2 0x435 PUSH2 0xE0B JUMP JUMPDEST PUSH1 0x40 MLOAD PUSH2 0x1DB SWAP2 SWAP1 PUSH2 0x26FB JUMP JUMPDEST CALLVALUE DUP1 ISZERO PUSH2 0x44E JUMPI PUSH1 0x0 DUP1 REVERT JUMPDEST POP PUSH2 0x246 PUSH32 0x0 DUP2 JUMP JUMPDEST CALLVALUE DUP1 ISZERO PUSH2 0x482 JUMPI PUSH1 0x0 DUP1 REVERT JUMPDEST POP PUSH1 0x7 SLOAD PUSH1 0x1 PUSH1 0x1 PUSH1 0xA0 SHL SUB AND PUSH2 0x2A8 JUMP JUMPDEST CALLVALUE DUP1 ISZERO PUSH2 0x4A0 JUMPI PUSH1 0x0 DUP1 REVERT JUMPDEST POP PUSH2 0x1CF PUSH2 0x4AF CALLDATASIZE PUSH1 0x4 PUSH2 0x2642 JUMP JUMPDEST PUSH2 0xE99 JUMP JUMPDEST CALLVALUE DUP1 ISZERO PUSH2 0x4C0 JUMPI PUSH1 0x0 DUP1 REVERT JUMPDEST POP PUSH2 0x204 PUSH2 0x4CF CALLDATASIZE PUSH1 0x4 PUSH2 0x2690 JUMP JUMPDEST PUSH2 0xEC2 JUMP JUMPDEST CALLVALUE DUP1 ISZERO PUSH2 0x4E0 JUMPI PUSH1 0x0 DUP1 REVERT JUMPDEST POP PUSH2 0x246 PUSH1 0x0 DUP2 JUMP JUMPDEST CALLVALUE DUP1 ISZERO PUSH2 0x4F5 JUMPI PUSH1 0x0 DUP1 REVERT JUMPDEST POP PUSH2 0x246 PUSH1 0x0 DUP1 MLOAD PUSH1 0x20 PUSH2 0x2EE2 DUP4 CODECOPY DUP2 MLOAD SWAP2 MSTORE DUP2 JUMP JUMPDEST CALLVALUE DUP1 ISZERO PUSH2 0x517 JUMPI PUSH1 0x0 DUP1 REVERT JUMPDEST POP PUSH2 0x246 PUSH32 0x0 DUP2 JUMP JUMPDEST CALLVALUE DUP1 ISZERO PUSH2 0x54B JUMPI PUSH1 0x0 DUP1 REVERT JUMPDEST POP PUSH2 0x2A8 PUSH20 0xEEEEEEEEEEEEEEEEEEEEEEEEEEEEEEEEEEEEEEEE DUP2 JUMP JUMPDEST CALLVALUE DUP1 ISZERO PUSH2 0x573 JUMPI PUSH1 0x0 DUP1 REVERT JUMPDEST POP PUSH2 0x246 PUSH1 0xE SLOAD DUP2 JUMP JUMPDEST CALLVALUE DUP1 ISZERO PUSH2 0x589 JUMPI PUSH1 0x0 DUP1 REVERT JUMPDEST POP PUSH1 0xA SLOAD PUSH2 0x2A8 SWAP1 PUSH1 0x1 PUSH1 0x1 PUSH1 0xA0 SHL SUB AND DUP2 JUMP JUMPDEST CALLVALUE DUP1 ISZERO PUSH2 0x5A9 JUMPI PUSH1 0x0 DUP1 REVERT JUMPDEST POP PUSH1 0xF SLOAD PUSH2 0x1CF SWAP1 PUSH1 0xFF AND DUP2 JUMP JUMPDEST CALLVALUE DUP1 ISZERO PUSH2 0x5C3 JUMPI PUSH1 0x0 DUP1 REVERT JUMPDEST POP PUSH1 0x9 SLOAD PUSH2 0x2A8 SWAP1 PUSH1 0x1 PUSH1 0x1 PUSH1 0xA0 SHL SUB AND DUP2 JUMP JUMPDEST CALLVALUE DUP1 ISZERO PUSH2 0x5E3 JUMPI PUSH1 0x0 DUP1 REVERT JUMPDEST POP PUSH2 0x204 PUSH2 0x5F2 CALLDATASIZE PUSH1 0x4 PUSH2 0x2642 JUMP JUMPDEST PUSH2 0xF02 JUMP JUMPDEST CALLVALUE DUP1 ISZERO PUSH2 0x603 JUMPI PUSH1 0x0 DUP1 REVERT JUMPDEST POP PUSH2 0x204 PUSH2 0xF1E JUMP JUMPDEST PUSH2 0x204 PUSH2 0x61A CALLDATASIZE PUSH1 0x4 PUSH2 0x270E JUMP JUMPDEST PUSH2 0x1160 JUMP JUMPDEST CALLVALUE DUP1 ISZERO PUSH2 0x62B JUMPI PUSH1 0x0 DUP1 REVERT JUMPDEST POP PUSH2 0x204 PUSH2 0x63A CALLDATASIZE PUSH1 0x4 PUSH2 0x2690 JUMP JUMPDEST PUSH2 0x1545 JUMP JUMPDEST CALLVALUE DUP1 ISZERO PUSH2 0x64B JUMPI PUSH1 0x0 DUP1 REVERT JUMPDEST POP PUSH2 0x2A8 PUSH32 0x0 DUP2 JUMP JUMPDEST PUSH1 0x0 PUSH1 0x1 PUSH1 0x1 PUSH1 0xE0 SHL SUB NOT DUP3 AND PUSH4 0x7965DB0B PUSH1 0xE0 SHL EQ DUP1 PUSH2 0x6A4 JUMPI POP PUSH4 0x1FFC9A7 PUSH1 0xE0 SHL PUSH1 0x1 PUSH1 0x1 PUSH1 0xE0 SHL SUB NOT DUP4 AND EQ JUMPDEST SWAP3 SWAP2 POP POP JUMP JUMPDEST PUSH1 0x0 DUP3 DUP2 MSTORE PUSH1 0x6 PUSH1 0x20 MSTORE PUSH1 0x40 SWAP1 KECCAK256 SLOAD DUP3 SWAP1 PUSH1 0x1 PUSH1 0x1 PUSH1 0xA0 SHL SUB AND CALLER EQ PUSH2 0x6EB JUMPI PUSH1 0x40 MLOAD PUSH3 0x461BCD PUSH1 0xE5 SHL DUP2 MSTORE PUSH1 0x4 ADD PUSH2 0x6E2 SWAP1 PUSH2 0x2763 JUMP JUMPDEST PUSH1 0x40 MLOAD DUP1 SWAP2 SUB SWAP1 REVERT JUMPDEST PUSH1 0x0 DUP2 DUP2 MSTORE PUSH1 0x6 PUSH1 0x20 MSTORE PUSH1 0x40 DUP1 DUP3 KECCAK256 DUP1 SLOAD PUSH1 0x1 PUSH1 0x1 PUSH1 0xA0 SHL SUB NOT AND SWAP1 SSTORE MLOAD DUP3 SWAP2 PUSH1 0x0 DUP1 MLOAD PUSH1 0x20 PUSH2 0x2F02 DUP4 CODECOPY DUP2 MLOAD SWAP2 MSTORE SWAP2 LOG2 PUSH1 0x10 PUSH2 0x728 DUP4 DUP3 PUSH2 0x2825 JUMP JUMPDEST POP PUSH1 0xF DUP1 SLOAD PUSH1 0xFF NOT AND PUSH1 0x1 OR SWAP1 SSTORE PUSH1 0x40 MLOAD PUSH2 0x744 SWAP1 DUP4 SWAP1 PUSH2 0x2900 JUMP JUMPDEST PUSH1 0x40 MLOAD SWAP1 DUP2 SWAP1 SUB DUP2 KECCAK256 SWAP1 PUSH32 0xA6B78FC047486D5ADD927AA53BA0D4FC8EB23A5811E0052AEBEBA21469F51DF8 SWAP1 PUSH1 0x0 SWAP1 LOG2 POP POP POP JUMP JUMPDEST PUSH1 0x0 DUP1 MLOAD PUSH1 0x20 PUSH2 0x2F22 DUP4 CODECOPY DUP2 MLOAD SWAP2 MSTORE PUSH2 0x791 DUP2 PUSH2 0x1559 JUMP JUMPDEST PUSH1 0x0 PUSH2 0x7C5 PUSH32 0x0 ADDRESS PUSH4 0x8B38EBB PUSH1 0xE3 SHL PUSH2 0x1563 JUMP JUMPDEST SWAP1 POP PUSH2 0x815 PUSH1 0x40 MLOAD DUP1 PUSH1 0x40 ADD PUSH1 0x40 MSTORE DUP1 PUSH1 0x6 DUP2 MSTORE PUSH1 0x20 ADD PUSH6 0x1B595D1A1BD9 PUSH1 0xD2 SHL DUP2 MSTORE POP PUSH1 0x40 MLOAD DUP1 PUSH1 0x40 ADD PUSH1 0x40 MSTORE DUP1 PUSH1 0x3 DUP2 MSTORE PUSH1 0x20 ADD PUSH3 0x11D155 PUSH1 0xEA SHL DUP2 MSTORE POP DUP4 PUSH2 0x1588 SWAP1 SWAP3 SWAP2 SWAP1 PUSH4 0xFFFFFFFF AND JUMP JUMPDEST PUSH2 0x879 PUSH1 0x40 MLOAD DUP1 PUSH1 0x40 ADD PUSH1 0x40 MSTORE DUP1 PUSH1 0x3 DUP2 MSTORE PUSH1 0x20 ADD PUSH3 0x1D5C9B PUSH1 0xEA SHL DUP2 MSTORE POP PUSH2 0x83D DUP8 PUSH2 0x15A6 JUMP JUMPDEST PUSH2 0x846 DUP8 PUSH2 0x15A6 JUMP JUMPDEST PUSH2 0x84F DUP8 PUSH2 0x15BC JUMP JUMPDEST PUSH1 0x40 MLOAD PUSH1 0x20 ADD PUSH2 0x861 SWAP4 SWAP3 SWAP2 SWAP1 PUSH2 0x291C JUMP JUMPDEST PUSH1 0x40 DUP1 MLOAD PUSH1 0x1F NOT DUP2 DUP5 SUB ADD DUP2 MSTORE SWAP2 SWAP1 MSTORE DUP4 SWAP2 SWAP1 PUSH2 0x1588 JUMP JUMPDEST PUSH2 0x8AE PUSH1 0x40 MLOAD DUP1 PUSH1 0x40 ADD PUSH1 0x40 MSTORE DUP1 PUSH1 0x7 DUP2 MSTORE PUSH1 0x20 ADD PUSH7 0x68656164657273 PUSH1 0xC8 SHL DUP2 MSTORE POP PUSH1 0x11 PUSH1 0x40 MLOAD PUSH1 0x20 ADD PUSH2 0x861 SWAP2 SWAP1 PUSH2 0x29B2 JUMP JUMPDEST PUSH2 0x900 PUSH1 0x40 MLOAD DUP1 PUSH1 0x40 ADD PUSH1 0x40 MSTORE DUP1 PUSH1 0x7 DUP2 MSTORE PUSH1 0x20 ADD PUSH7 0x18DBDB9D1858DD PUSH1 0xCA SHL DUP2 MSTORE POP PUSH1 0x40 MLOAD DUP1 PUSH1 0x40 ADD PUSH1 0x40 MSTORE DUP1 PUSH1 0x6 DUP2 MSTORE PUSH1 0x20 ADD PUSH6 0x1B9D5B595C9D PUSH1 0xD2 SHL DUP2 MSTORE POP DUP4 PUSH2 0x1588 SWAP1 SWAP3 SWAP2 SWAP1 PUSH4 0xFFFFFFFF AND JUMP JUMPDEST PUSH2 0x951 PUSH1 0x40 MLOAD DUP1 PUSH1 0x40 ADD PUSH1 0x40 MSTORE DUP1 PUSH1 0x4 DUP2 MSTORE PUSH1 0x20 ADD PUSH4 0xE0C2E8D PUSH1 0xE3 SHL DUP2 MSTORE POP PUSH1 0x40 MLOAD DUP1 PUSH1 0x40 ADD PUSH1 0x40 MSTORE DUP1 PUSH1 0x8 DUP2 MSTORE PUSH1 0x20 ADD PUSH8 0x1D1BD05B5BDD5B9D PUSH1 0xC2 SHL DUP2 MSTORE POP DUP4 PUSH2 0x1588 SWAP1 SWAP3 SWAP2 SWAP1 PUSH4 0xFFFFFFFF AND JUMP JUMPDEST PUSH1 0x9 DUP1 SLOAD PUSH1 0x1 PUSH1 0x1 PUSH1 0xA0 SHL SUB DUP1 DUP9 AND PUSH1 0x1 PUSH1 0x1 PUSH1 0xA0 SHL SUB NOT SWAP3 DUP4 AND OR SWAP1 SWAP3 SSTORE PUSH1 0xA DUP1 SLOAD SWAP3 DUP8 AND SWAP3 SWAP1 SWAP2 AND SWAP2 SWAP1 SWAP2 OR SWAP1 SSTORE PUSH1 0xB DUP4 SWAP1 SSTORE PUSH2 0x9B0 DUP2 PUSH32 0x0 PUSH2 0x164E JUMP JUMPDEST POP POP POP POP POP POP JUMP JUMPDEST PUSH1 0x0 SWAP1 DUP2 MSTORE PUSH1 0x20 DUP2 SWAP1 MSTORE PUSH1 0x40 SWAP1 KECCAK256 PUSH1 0x1 ADD SLOAD SWAP1 JUMP JUMPDEST PUSH2 0x9D6 DUP3 PUSH2 0x9B8 JUMP JUMPDEST PUSH2 0x9DF DUP2 PUSH2 0x1559 JUMP JUMPDEST PUSH2 0x9E9 DUP4 DUP4 PUSH2 0x166F JUMP JUMPDEST POP POP POP JUMP JUMPDEST PUSH1 0x1 PUSH1 0x1 PUSH1 0xA0 SHL SUB DUP2 AND CALLER EQ PUSH2 0xA5E JUMPI PUSH1 0x40 MLOAD PUSH3 0x461BCD PUSH1 0xE5 SHL DUP2 MSTORE PUSH1 0x20 PUSH1 0x4 DUP3 ADD MSTORE PUSH1 0x2F PUSH1 0x24 DUP3 ADD MSTORE PUSH32 0x416363657373436F6E74726F6C3A2063616E206F6E6C792072656E6F756E6365 PUSH1 0x44 DUP3 ADD MSTORE PUSH15 0x103937B632B9903337B91039B2B633 PUSH1 0x89 SHL PUSH1 0x64 DUP3 ADD MSTORE PUSH1 0x84 ADD PUSH2 0x6E2 JUMP JUMPDEST PUSH2 0xA68 DUP3 DUP3 PUSH2 0x16F3 JUMP JUMPDEST POP POP JUMP JUMPDEST PUSH1 0x0 DUP3 DUP2 MSTORE PUSH1 0x6 PUSH1 0x20 MSTORE PUSH1 0x40 SWAP1 KECCAK256 SLOAD DUP3 SWAP1 PUSH1 0x1 PUSH1 0x1 PUSH1 0xA0 SHL SUB AND CALLER EQ PUSH2 0xAA4 JUMPI PUSH1 0x40 MLOAD PUSH3 0x461BCD PUSH1 0xE5 SHL DUP2 MSTORE PUSH1 0x4 ADD PUSH2 0x6E2 SWAP1 PUSH2 0x2763 JUMP JUMPDEST PUSH1 0x0 DUP2 DUP2 MSTORE PUSH1 0x6 PUSH1 0x20 MSTORE PUSH1 0x40 DUP1 DUP3 KECCAK256 DUP1 SLOAD PUSH1 0x1 PUSH1 0x1 PUSH1 0xA0 SHL SUB NOT AND SWAP1 SSTORE MLOAD DUP3 SWAP2 PUSH1 0x0 DUP1 MLOAD PUSH1 0x20 PUSH2 0x2F02 DUP4 CODECOPY DUP2 MLOAD SWAP2 MSTORE SWAP2 LOG2 PUSH1 0xA SLOAD PUSH1 0x9 SLOAD PUSH1 0xB SLOAD PUSH1 0x40 MLOAD SWAP1 DUP2 MSTORE DUP5 SWAP3 PUSH1 0x1 PUSH1 0x1 PUSH1 0xA0 SHL SUB SWAP1 DUP2 AND SWAP3 AND SWAP1 PUSH32 0xC6EF891DE9793CB5ACEFEA4D38D25452DA06C1B8A922180EEB0F324523B326A0 SWAP1 PUSH1 0x20 ADD PUSH1 0x40 MLOAD DUP1 SWAP2 SUB SWAP1 LOG4 PUSH1 0x0 PUSH2 0xB2D PUSH1 0x12 PUSH2 0x1758 JUMP JUMPDEST SWAP1 POP PUSH1 0x0 JUMPDEST DUP2 DUP2 LT ISZERO PUSH2 0xBD0 JUMPI PUSH2 0xB45 PUSH1 0x12 DUP3 PUSH2 0x1762 JUMP JUMPDEST PUSH1 0x9 SLOAD PUSH1 0xA SLOAD PUSH1 0xB SLOAD PUSH1 0x40 MLOAD PUSH4 0xB91DC4BB PUSH1 0xE0 SHL DUP2 MSTORE PUSH1 0x1 PUSH1 0x1 PUSH1 0xA0 SHL SUB SWAP4 DUP5 AND PUSH1 0x4 DUP3 ADD MSTORE SWAP2 DUP4 AND PUSH1 0x24 DUP4 ADD MSTORE PUSH1 0x44 DUP3 ADD DUP9 SWAP1 MSTORE PUSH1 0x64 DUP3 ADD MSTORE SWAP2 AND SWAP1 PUSH4 0xB91DC4BB SWAP1 PUSH1 0x84 ADD PUSH1 0x0 PUSH1 0x40 MLOAD DUP1 DUP4 SUB DUP2 PUSH1 0x0 DUP8 DUP1 EXTCODESIZE ISZERO DUP1 ISZERO PUSH2 0xBA5 JUMPI PUSH1 0x0 DUP1 REVERT JUMPDEST POP GAS CALL ISZERO DUP1 ISZERO PUSH2 0xBB9 JUMPI RETURNDATASIZE PUSH1 0x0 DUP1 RETURNDATACOPY RETURNDATASIZE PUSH1 0x0 REVERT JUMPDEST POP POP POP POP DUP1 DUP1 PUSH2 0xBC8 SWAP1 PUSH2 0x2A97 JUMP JUMPDEST SWAP2 POP POP PUSH2 0xB32 JUMP JUMPDEST POP POP POP POP POP JUMP JUMPDEST PUSH1 0x0 DUP1 MLOAD PUSH1 0x20 PUSH2 0x2EE2 DUP4 CODECOPY DUP2 MLOAD SWAP2 MSTORE PUSH2 0xBEF DUP2 PUSH2 0x1559 JUMP JUMPDEST PUSH1 0x0 PUSH2 0xC03 PUSH1 0x3 SLOAD PUSH1 0x1 PUSH1 0x1 PUSH1 0xA0 SHL SUB AND SWAP1 JUMP JUMPDEST SWAP1 POP DUP1 PUSH1 0x1 PUSH1 0x1 PUSH1 0xA0 SHL SUB AND PUSH4 0xA9059CBB CALLER DUP4 PUSH1 0x1 PUSH1 0x1 PUSH1 0xA0 SHL SUB AND PUSH4 0x70A08231 ADDRESS PUSH1 0x40 MLOAD DUP3 PUSH4 0xFFFFFFFF AND PUSH1 0xE0 SHL DUP2 MSTORE PUSH1 0x4 ADD PUSH2 0xC41 SWAP2 SWAP1 PUSH2 0x262E JUMP JUMPDEST PUSH1 0x20 PUSH1 0x40 MLOAD DUP1 DUP4 SUB DUP2 DUP7 GAS STATICCALL ISZERO DUP1 ISZERO PUSH2 0xC5E JUMPI RETURNDATASIZE PUSH1 0x0 DUP1 RETURNDATACOPY RETURNDATASIZE PUSH1 0x0 REVERT JUMPDEST POP POP POP POP PUSH1 0x40 MLOAD RETURNDATASIZE PUSH1 0x1F NOT PUSH1 0x1F DUP3 ADD AND DUP3 ADD DUP1 PUSH1 0x40 MSTORE POP DUP2 ADD SWAP1 PUSH2 0xC82 SWAP2 SWAP1 PUSH2 0x2AB0 JUMP JUMPDEST PUSH1 0x40 MLOAD DUP4 PUSH4 0xFFFFFFFF AND PUSH1 0xE0 SHL DUP2 MSTORE PUSH1 0x4 ADD PUSH2 0xC9F SWAP3 SWAP2 SWAP1 PUSH2 0x2AC9 JUMP JUMPDEST PUSH1 0x20 PUSH1 0x40 MLOAD DUP1 DUP4 SUB DUP2 PUSH1 0x0 DUP8 GAS CALL ISZERO DUP1 ISZERO PUSH2 0xCBE JUMPI RETURNDATASIZE PUSH1 0x0 DUP1 RETURNDATACOPY RETURNDATASIZE PUSH1 0x0 REVERT JUMPDEST POP POP POP POP PUSH1 0x40 MLOAD RETURNDATASIZE PUSH1 0x1F NOT PUSH1 0x1F DUP3 ADD AND DUP3 ADD DUP1 PUSH1 0x40 MSTORE POP DUP2 ADD SWAP1 PUSH2 0xCE2 SWAP2 SWAP1 PUSH2 0x2AE2 JUMP JUMPDEST PUSH2 0xA68 JUMPI PUSH1 0x40 MLOAD PUSH4 0x13FF771F PUSH1 0xE2 SHL DUP2 MSTORE PUSH1 0x4 ADD PUSH1 0x40 MLOAD DUP1 SWAP2 SUB SWAP1 REVERT JUMPDEST PUSH1 0x0 DUP1 MLOAD PUSH1 0x20 PUSH2 0x2EE2 DUP4 CODECOPY DUP2 MLOAD SWAP2 MSTORE PUSH2 0xD17 DUP2 PUSH2 0x1559 JUMP JUMPDEST PUSH2 0xD22 PUSH1 0x12 DUP4 PUSH2 0x176E JUMP JUMPDEST PUSH2 0xA68 JUMPI PUSH1 0x40 MLOAD PUSH4 0x6E971BB PUSH1 0xE3 SHL DUP2 MSTORE PUSH1 0x4 ADD PUSH1 0x40 MLOAD DUP1 SWAP2 SUB SWAP1 REVERT JUMPDEST PUSH1 0x0 PUSH2 0xD4B PUSH1 0x12 PUSH2 0x1758 JUMP JUMPDEST SWAP1 POP SWAP1 JUMP JUMPDEST PUSH1 0x0 PUSH2 0x6A4 PUSH1 0x12 DUP4 PUSH2 0x1762 JUMP JUMPDEST PUSH1 0x8 SLOAD PUSH1 0x1 PUSH1 0x1 PUSH1 0xA0 SHL SUB AND CALLER EQ PUSH2 0xDB0 JUMPI PUSH1 0x40 MLOAD PUSH3 0x461BCD PUSH1 0xE5 SHL DUP2 MSTORE PUSH1 0x20 PUSH1 0x4 DUP3 ADD MSTORE PUSH1 0x16 PUSH1 0x24 DUP3 ADD MSTORE PUSH22 0x26BAB9BA10313290383937B837B9B2B21037BBB732B9 PUSH1 0x51 SHL PUSH1 0x44 DUP3 ADD MSTORE PUSH1 0x64 ADD PUSH2 0x6E2 JUMP JUMPDEST PUSH1 0x7 DUP1 SLOAD PUSH1 0x1 PUSH1 0x1 PUSH1 0xA0 SHL SUB NOT DUP1 DUP3 AND CALLER SWAP1 DUP2 OR SWAP1 SWAP4 SSTORE PUSH1 0x8 DUP1 SLOAD SWAP1 SWAP2 AND SWAP1 SSTORE PUSH1 0x40 MLOAD PUSH1 0x1 PUSH1 0x1 PUSH1 0xA0 SHL SUB SWAP1 SWAP2 AND SWAP2 SWAP1 DUP3 SWAP1 PUSH32 0x8BE0079C531659141344CD1FD0A4F28419497F9722A3DAAFE3B4186F6B6457E0 SWAP1 PUSH1 0x0 SWAP1 LOG3 POP JUMP JUMPDEST PUSH1 0x11 DUP1 SLOAD PUSH2 0xE18 SWAP1 PUSH2 0x27AB JUMP JUMPDEST DUP1 PUSH1 0x1F ADD PUSH1 0x20 DUP1 SWAP2 DIV MUL PUSH1 0x20 ADD PUSH1 0x40 MLOAD SWAP1 DUP2 ADD PUSH1 0x40 MSTORE DUP1 SWAP3 SWAP2 SWAP1 DUP2 DUP2 MSTORE PUSH1 0x20 ADD DUP3 DUP1 SLOAD PUSH2 0xE44 SWAP1 PUSH2 0x27AB JUMP JUMPDEST DUP1 ISZERO PUSH2 0xE91 JUMPI DUP1 PUSH1 0x1F LT PUSH2 0xE66 JUMPI PUSH2 0x100 DUP1 DUP4 SLOAD DIV MUL DUP4 MSTORE SWAP2 PUSH1 0x20 ADD SWAP2 PUSH2 0xE91 JUMP JUMPDEST DUP3 ADD SWAP2 SWAP1 PUSH1 0x0 MSTORE PUSH1 0x20 PUSH1 0x0 KECCAK256 SWAP1 JUMPDEST DUP2 SLOAD DUP2 MSTORE SWAP1 PUSH1 0x1 ADD SWAP1 PUSH1 0x20 ADD DUP1 DUP4 GT PUSH2 0xE74 JUMPI DUP3 SWAP1 SUB PUSH1 0x1F AND DUP3 ADD SWAP2 JUMPDEST POP POP POP POP POP DUP2 JUMP JUMPDEST PUSH1 0x0 SWAP2 DUP3 MSTORE PUSH1 0x20 DUP3 DUP2 MSTORE PUSH1 0x40 DUP1 DUP5 KECCAK256 PUSH1 0x1 PUSH1 0x1 PUSH1 0xA0 SHL SUB SWAP4 SWAP1 SWAP4 AND DUP5 MSTORE SWAP2 SWAP1 MSTORE SWAP1 KECCAK256 SLOAD PUSH1 0xFF AND SWAP1 JUMP JUMPDEST PUSH1 0x0 DUP1 MLOAD PUSH1 0x20 PUSH2 0x2EE2 DUP4 CODECOPY DUP2 MLOAD SWAP2 MSTORE PUSH2 0xEDA DUP2 PUSH2 0x1559 JUMP JUMPDEST PUSH2 0xEE5 PUSH1 0x12 DUP4 PUSH2 0x1783 JUMP JUMPDEST PUSH2 0xA68 JUMPI PUSH1 0x40 MLOAD PUSH4 0x5C46F67 PUSH1 0xE3 SHL DUP2 MSTORE PUSH1 0x4 ADD PUSH1 0x40 MLOAD DUP1 SWAP2 SUB SWAP1 REVERT JUMPDEST PUSH2 0xF0B DUP3 PUSH2 0x9B8 JUMP JUMPDEST PUSH2 0xF14 DUP2 PUSH2 0x1559 JUMP JUMPDEST PUSH2 0x9E9 DUP4 DUP4 PUSH2 0x16F3 JUMP JUMPDEST PUSH1 0x0 DUP1 MLOAD PUSH1 0x20 PUSH2 0x2EE2 DUP4 CODECOPY DUP2 MLOAD SWAP2 MSTORE PUSH2 0xF36 DUP2 PUSH2 0x1559 JUMP JUMPDEST PUSH1 0xF SLOAD PUSH1 0xFF AND PUSH2 0xF59 JUMPI PUSH1 0x40 MLOAD PUSH4 0x7D683D53 PUSH1 0xE0 SHL DUP2 MSTORE PUSH1 0x4 ADD PUSH1 0x40 MLOAD DUP1 SWAP2 SUB SWAP1 REVERT JUMPDEST PUSH1 0xC SLOAD PUSH1 0x1 PUSH1 0x1 PUSH1 0xA0 SHL SUB AND PUSH20 0xEEEEEEEEEEEEEEEEEEEEEEEEEEEEEEEEEEEEEEED NOT ADD PUSH2 0x1049 JUMPI PUSH2 0x1043 PUSH1 0x10 DUP1 SLOAD PUSH2 0xF90 SWAP1 PUSH2 0x27AB JUMP JUMPDEST DUP1 PUSH1 0x1F ADD PUSH1 0x20 DUP1 SWAP2 DIV MUL PUSH1 0x20 ADD PUSH1 0x40 MLOAD SWAP1 DUP2 ADD PUSH1 0x40 MSTORE DUP1 SWAP3 SWAP2 SWAP1 DUP2 DUP2 MSTORE PUSH1 0x20 ADD DUP3 DUP1 SLOAD PUSH2 0xFBC SWAP1 PUSH2 0x27AB JUMP JUMPDEST DUP1 ISZERO PUSH2 0x1009 JUMPI DUP1 PUSH1 0x1F LT PUSH2 0xFDE JUMPI PUSH2 0x100 DUP1 DUP4 SLOAD DIV MUL DUP4 MSTORE SWAP2 PUSH1 0x20 ADD SWAP2 PUSH2 0x1009 JUMP JUMPDEST DUP3 ADD SWAP2 SWAP1 PUSH1 0x0 MSTORE PUSH1 0x20 PUSH1 0x0 KECCAK256 SWAP1 JUMPDEST DUP2 SLOAD DUP2 MSTORE SWAP1 PUSH1 0x1 ADD SWAP1 PUSH1 0x20 ADD DUP1 DUP4 GT PUSH2 0xFEC JUMPI DUP3 SWAP1 SUB PUSH1 0x1F AND DUP3 ADD SWAP2 JUMPDEST POP POP PUSH1 0xE SLOAD PUSH1 0x1 PUSH1 0x1 PUSH1 0xA0 SHL SUB PUSH32 0x0 AND SWAP5 SWAP4 POP SWAP2 POP POP PUSH2 0x1798 JUMP JUMPDEST POP PUSH2 0x1111 JUMP JUMPDEST PUSH2 0x110F PUSH1 0x10 DUP1 SLOAD PUSH2 0x1059 SWAP1 PUSH2 0x27AB JUMP JUMPDEST DUP1 PUSH1 0x1F ADD PUSH1 0x20 DUP1 SWAP2 DIV MUL PUSH1 0x20 ADD PUSH1 0x40 MLOAD SWAP1 DUP2 ADD PUSH1 0x40 MSTORE DUP1 SWAP3 SWAP2 SWAP1 DUP2 DUP2 MSTORE PUSH1 0x20 ADD DUP3 DUP1 SLOAD PUSH2 0x1085 SWAP1 PUSH2 0x27AB JUMP JUMPDEST DUP1 ISZERO PUSH2 0x10D2 JUMPI DUP1 PUSH1 0x1F LT PUSH2 0x10A7 JUMPI PUSH2 0x100 DUP1 DUP4 SLOAD DIV MUL DUP4 MSTORE SWAP2 PUSH1 0x20 ADD SWAP2 PUSH2 0x10D2 JUMP JUMPDEST DUP3 ADD SWAP2 SWAP1 PUSH1 0x0 MSTORE PUSH1 0x20 PUSH1 0x0 KECCAK256 SWAP1 JUMPDEST DUP2 SLOAD DUP2 MSTORE SWAP1 PUSH1 0x1 ADD SWAP1 PUSH1 0x20 ADD DUP1 DUP4 GT PUSH2 0x10B5 JUMPI DUP3 SWAP1 SUB PUSH1 0x1F AND DUP3 ADD SWAP2 JUMPDEST POP POP POP POP POP PUSH32 0x0 PUSH1 0x1 PUSH1 0x1 PUSH1 0xA0 SHL SUB AND PUSH2 0x17C6 SWAP1 SWAP2 SWAP1 PUSH4 0xFFFFFFFF AND JUMP JUMPDEST POP JUMPDEST PUSH1 0xE SLOAD PUSH1 0xD SLOAD PUSH1 0xC SLOAD PUSH1 0x40 MLOAD PUSH1 0x1 PUSH1 0x1 PUSH1 0xA0 SHL SUB SWAP3 DUP4 AND SWAP3 SWAP1 SWAP2 AND SWAP1 PUSH32 0xE8A8F43C967965902142E0F7BD4B7B3C55FC5B1A0DF5E84FA8DED5CAFE927706 SWAP1 PUSH1 0x0 SWAP1 LOG4 POP PUSH1 0xF DUP1 SLOAD PUSH1 0xFF NOT AND SWAP1 SSTORE JUMP JUMPDEST PUSH1 0x0 DUP1 MLOAD PUSH1 0x20 PUSH2 0x2F22 DUP4 CODECOPY DUP2 MLOAD SWAP2 MSTORE PUSH2 0x1178 DUP2 PUSH2 0x1559 JUMP JUMPDEST PUSH1 0x32 DUP3 PUSH1 0xFF AND GT ISZERO PUSH2 0x119D JUMPI PUSH1 0x40 MLOAD PUSH4 0x36EE37FB PUSH1 0xE2 SHL DUP2 MSTORE PUSH1 0x4 ADD PUSH1 0x40 MLOAD DUP1 SWAP2 SUB SWAP1 REVERT JUMPDEST PUSH1 0x1 PUSH1 0x1 PUSH1 0xA0 SHL SUB DUP6 AND PUSH20 0xEEEEEEEEEEEEEEEEEEEEEEEEEEEEEEEEEEEEEEEE EQ DUP1 ISZERO PUSH2 0x11C8 JUMPI POP CALLVALUE DUP4 LT JUMPDEST ISZERO PUSH2 0x11E6 JUMPI PUSH1 0x40 MLOAD PUSH4 0xDD86F53 PUSH1 0xE1 SHL DUP2 MSTORE PUSH1 0x4 ADD PUSH1 0x40 MLOAD DUP1 SWAP2 SUB SWAP1 REVERT JUMPDEST PUSH1 0xF DUP1 SLOAD PUSH1 0xFF NOT AND SWAP1 SSTORE PUSH1 0x40 MLOAD PUSH4 0x6EB1769F PUSH1 0xE1 SHL DUP2 MSTORE ADDRESS PUSH1 0x4 DUP3 ADD MSTORE PUSH1 0x1 PUSH1 0x1 PUSH1 0xA0 SHL SUB PUSH32 0x0 DUP2 AND PUSH1 0x24 DUP4 ADD MSTORE DUP7 SWAP2 DUP6 SWAP2 DUP4 AND SWAP1 PUSH4 0xDD62ED3E SWAP1 PUSH1 0x44 ADD PUSH1 0x20 PUSH1 0x40 MLOAD DUP1 DUP4 SUB DUP2 DUP7 GAS STATICCALL ISZERO DUP1 ISZERO PUSH2 0x1260 JUMPI RETURNDATASIZE PUSH1 0x0 DUP1 RETURNDATACOPY RETURNDATASIZE PUSH1 0x0 REVERT JUMPDEST POP POP POP POP PUSH1 0x40 MLOAD RETURNDATASIZE PUSH1 0x1F NOT PUSH1 0x1F DUP3 ADD AND DUP3 ADD DUP1 PUSH1 0x40 MSTORE POP DUP2 ADD SWAP1 PUSH2 0x1284 SWAP2 SWAP1 PUSH2 0x2AB0 JUMP JUMPDEST LT ISZERO PUSH2 0x131F JUMPI PUSH1 0x40 MLOAD PUSH4 0x95EA7B3 PUSH1 0xE0 SHL DUP2 MSTORE PUSH1 0x1 PUSH1 0x1 PUSH1 0xA0 SHL SUB DUP3 AND SWAP1 PUSH4 0x95EA7B3 SWAP1 PUSH2 0x12DA SWAP1 PUSH32 0x0 SWAP1 PUSH1 0x0 NOT SWAP1 PUSH1 0x4 ADD PUSH2 0x2AC9 JUMP JUMPDEST PUSH1 0x20 PUSH1 0x40 MLOAD DUP1 DUP4 SUB DUP2 PUSH1 0x0 DUP8 GAS CALL ISZERO DUP1 ISZERO PUSH2 0x12F9 JUMPI RETURNDATASIZE PUSH1 0x0 DUP1 RETURNDATACOPY RETURNDATASIZE PUSH1 0x0 REVERT JUMPDEST POP POP POP POP PUSH1 0x40 MLOAD RETURNDATASIZE PUSH1 0x1F NOT PUSH1 0x1F DUP3 ADD AND DUP3 ADD DUP1 PUSH1 0x40 MSTORE POP DUP2 ADD SWAP1 PUSH2 0x131D SWAP2 SWAP1 PUSH2 0x2AE2 JUMP JUMPDEST POP JUMPDEST PUSH1 0x0 PUSH2 0x1352 PUSH32 0x0 ADDRESS PUSH3 0x48B15B PUSH1 0xE3 SHL PUSH2 0x1563 JUMP JUMPDEST SWAP1 POP PUSH2 0x13A2 PUSH1 0x40 MLOAD DUP1 PUSH1 0x40 ADD PUSH1 0x40 MSTORE DUP1 PUSH1 0x6 DUP2 MSTORE PUSH1 0x20 ADD PUSH6 0x1B595D1A1BD9 PUSH1 0xD2 SHL DUP2 MSTORE POP PUSH1 0x40 MLOAD DUP1 PUSH1 0x40 ADD PUSH1 0x40 MSTORE DUP1 PUSH1 0x3 DUP2 MSTORE PUSH1 0x20 ADD PUSH3 0x11D155 PUSH1 0xEA SHL DUP2 MSTORE POP DUP4 PUSH2 0x1588 SWAP1 SWAP3 SWAP2 SWAP1 PUSH4 0xFFFFFFFF AND JUMP JUMPDEST PUSH2 0x1405 PUSH1 0x40 MLOAD DUP1 PUSH1 0x40 ADD PUSH1 0x40 MSTORE DUP1 PUSH1 0x3 DUP2 MSTORE PUSH1 0x20 ADD PUSH3 0x1D5C9B PUSH1 0xEA SHL DUP2 MSTORE POP PUSH2 0x13CA DUP10 PUSH2 0x15A6 JUMP JUMPDEST PUSH2 0x13D3 DUP10 PUSH2 0x15A6 JUMP JUMPDEST PUSH2 0x13DC DUP10 PUSH2 0x15BC JUMP JUMPDEST PUSH2 0x13E5 CALLER PUSH2 0x15A6 JUMP JUMPDEST PUSH2 0x13F1 DUP11 PUSH1 0xFF AND PUSH2 0x15BC JUMP JUMPDEST PUSH1 0x40 MLOAD PUSH1 0x20 ADD PUSH2 0x861 SWAP6 SWAP5 SWAP4 SWAP3 SWAP2 SWAP1 PUSH2 0x2B04 JUMP JUMPDEST PUSH2 0x143A PUSH1 0x40 MLOAD DUP1 PUSH1 0x40 ADD PUSH1 0x40 MSTORE DUP1 PUSH1 0x7 DUP2 MSTORE PUSH1 0x20 ADD PUSH7 0x68656164657273 PUSH1 0xC8 SHL DUP2 MSTORE POP PUSH1 0x11 PUSH1 0x40 MLOAD PUSH1 0x20 ADD PUSH2 0x861 SWAP2 SWAP1 PUSH2 0x29B2 JUMP JUMPDEST PUSH2 0x148C PUSH1 0x40 MLOAD DUP1 PUSH1 0x40 ADD PUSH1 0x40 MSTORE DUP1 PUSH1 0x7 DUP2 MSTORE PUSH1 0x20 ADD PUSH7 0x18DBDB9D1858DD PUSH1 0xCA SHL DUP2 MSTORE POP PUSH1 0x40 MLOAD DUP1 PUSH1 0x40 ADD PUSH1 0x40 MSTORE DUP1 PUSH1 0x6 DUP2 MSTORE PUSH1 0x20 ADD PUSH6 0x1B9D5B595C9D PUSH1 0xD2 SHL DUP2 MSTORE POP DUP4 PUSH2 0x1588 SWAP1 SWAP3 SWAP2 SWAP1 PUSH4 0xFFFFFFFF AND JUMP JUMPDEST PUSH2 0x14DC PUSH1 0x40 MLOAD DUP1 PUSH1 0x40 ADD PUSH1 0x40 MSTORE DUP1 PUSH1 0x4 DUP2 MSTORE PUSH1 0x20 ADD PUSH4 0xE0C2E8D PUSH1 0xE3 SHL DUP2 MSTORE POP PUSH1 0x40 MLOAD DUP1 PUSH1 0x40 ADD PUSH1 0x40 MSTORE DUP1 PUSH1 0x7 DUP2 MSTORE PUSH1 0x20 ADD PUSH7 0x74782C64617461 PUSH1 0xC8 SHL DUP2 MSTORE POP DUP4 PUSH2 0x1588 SWAP1 SWAP3 SWAP2 SWAP1 PUSH4 0xFFFFFFFF AND JUMP JUMPDEST PUSH1 0xC DUP1 SLOAD PUSH1 0x1 PUSH1 0x1 PUSH1 0xA0 SHL SUB DUP1 DUP11 AND PUSH1 0x1 PUSH1 0x1 PUSH1 0xA0 SHL SUB NOT SWAP3 DUP4 AND OR SWAP1 SWAP3 SSTORE PUSH1 0xD DUP1 SLOAD SWAP3 DUP10 AND SWAP3 SWAP1 SWAP2 AND SWAP2 SWAP1 SWAP2 OR SWAP1 SSTORE PUSH1 0xE DUP6 SWAP1 SSTORE PUSH2 0x153B DUP2 PUSH32 0x0 PUSH2 0x164E JUMP JUMPDEST POP POP POP POP POP POP POP POP JUMP JUMPDEST PUSH2 0x154D PUSH2 0x180A JUMP JUMPDEST PUSH2 0x1556 DUP2 PUSH2 0x185F JUMP JUMPDEST POP JUMP JUMPDEST PUSH2 0x1556 DUP2 CALLER PUSH2 0x1903 JUMP JUMPDEST PUSH2 0x156B PUSH2 0x2474 JUMP JUMPDEST PUSH2 0x1573 PUSH2 0x2474 JUMP JUMPDEST PUSH2 0x157F DUP2 DUP7 DUP7 DUP7 PUSH2 0x195C JUMP JUMPDEST SWAP6 SWAP5 POP POP POP POP POP JUMP JUMPDEST PUSH1 0x80 DUP4 ADD MLOAD PUSH2 0x1597 SWAP1 DUP4 PUSH2 0x1999 JUMP JUMPDEST PUSH1 0x80 DUP4 ADD MLOAD PUSH2 0x9E9 SWAP1 DUP3 PUSH2 0x1999 JUMP JUMPDEST PUSH1 0x60 PUSH2 0x6A4 PUSH1 0x1 PUSH1 0x1 PUSH1 0xA0 SHL SUB DUP4 AND PUSH1 0x14 PUSH2 0x19B0 JUMP JUMPDEST PUSH1 0x60 PUSH1 0x0 PUSH2 0x15C9 DUP4 PUSH2 0x1B4B JUMP JUMPDEST PUSH1 0x1 ADD SWAP1 POP PUSH1 0x0 DUP2 PUSH1 0x1 PUSH1 0x1 PUSH1 0x40 SHL SUB DUP2 GT ISZERO PUSH2 0x15E8 JUMPI PUSH2 0x15E8 PUSH2 0x24ED JUMP JUMPDEST PUSH1 0x40 MLOAD SWAP1 DUP1 DUP3 MSTORE DUP1 PUSH1 0x1F ADD PUSH1 0x1F NOT AND PUSH1 0x20 ADD DUP3 ADD PUSH1 0x40 MSTORE DUP1 ISZERO PUSH2 0x1612 JUMPI PUSH1 0x20 DUP3 ADD DUP2 DUP1 CALLDATASIZE DUP4 CALLDATACOPY ADD SWAP1 POP JUMPDEST POP SWAP1 POP DUP2 DUP2 ADD PUSH1 0x20 ADD JUMPDEST PUSH1 0x0 NOT ADD PUSH16 0x181899199A1A9B1B9C1CB0B131B232B3 PUSH1 0x81 SHL PUSH1 0xA DUP7 MOD BYTE DUP2 MSTORE8 PUSH1 0xA DUP6 DIV SWAP5 POP DUP5 PUSH2 0x161C JUMPI POP SWAP4 SWAP3 POP POP POP JUMP JUMPDEST PUSH1 0x4 SLOAD PUSH1 0x0 SWAP1 PUSH2 0x1668 SWAP1 PUSH1 0x1 PUSH1 0x1 PUSH1 0xA0 SHL SUB AND DUP5 DUP5 PUSH2 0x1C21 JUMP JUMPDEST SWAP4 SWAP3 POP POP POP JUMP JUMPDEST PUSH2 0x1679 DUP3 DUP3 PUSH2 0xE99 JUMP JUMPDEST PUSH2 0xA68 JUMPI PUSH1 0x0 DUP3 DUP2 MSTORE PUSH1 0x20 DUP2 DUP2 MSTORE PUSH1 0x40 DUP1 DUP4 KECCAK256 PUSH1 0x1 PUSH1 0x1 PUSH1 0xA0 SHL SUB DUP6 AND DUP5 MSTORE SWAP1 SWAP2 MSTORE SWAP1 KECCAK256 DUP1 SLOAD PUSH1 0xFF NOT AND PUSH1 0x1 OR SWAP1 SSTORE PUSH2 0x16AF CALLER SWAP1 JUMP JUMPDEST PUSH1 0x1 PUSH1 0x1 PUSH1 0xA0 SHL SUB AND DUP2 PUSH1 0x1 PUSH1 0x1 PUSH1 0xA0 SHL SUB AND DUP4 PUSH32 0x2F8788117E7EFF1D82E926EC794901D17C78024A50270940304540A733656F0D PUSH1 0x40 MLOAD PUSH1 0x40 MLOAD DUP1 SWAP2 SUB SWAP1 LOG4 POP POP JUMP JUMPDEST PUSH2 0x16FD DUP3 DUP3 PUSH2 0xE99 JUMP JUMPDEST ISZERO PUSH2 0xA68 JUMPI PUSH1 0x0 DUP3 DUP2 MSTORE PUSH1 0x20 DUP2 DUP2 MSTORE PUSH1 0x40 DUP1 DUP4 KECCAK256 PUSH1 0x1 PUSH1 0x1 PUSH1 0xA0 SHL SUB DUP6 AND DUP1 DUP6 MSTORE SWAP3 MSTORE DUP1 DUP4 KECCAK256 DUP1 SLOAD PUSH1 0xFF NOT AND SWAP1 SSTORE MLOAD CALLER SWAP3 DUP6 SWAP2 PUSH32 0xF6391F5C32D9C69D2A47EA670B442974B53935D1EDC7FD64EB21E047A839171B SWAP2 SWAP1 LOG4 POP POP JUMP JUMPDEST PUSH1 0x0 PUSH2 0x6A4 DUP3 SLOAD SWAP1 JUMP JUMPDEST PUSH1 0x0 PUSH2 0x1668 DUP4 DUP4 PUSH2 0x1CB4 JUMP JUMPDEST PUSH1 0x0 PUSH2 0x1668 DUP4 PUSH1 0x1 PUSH1 0x1 PUSH1 0xA0 SHL SUB DUP5 AND PUSH2 0x1CDE JUMP JUMPDEST PUSH1 0x0 PUSH2 0x1668 DUP4 PUSH1 0x1 PUSH1 0x1 PUSH1 0xA0 SHL SUB DUP5 AND PUSH2 0x1DD1 JUMP JUMPDEST PUSH1 0x60 PUSH2 0x17BE DUP5 DUP5 DUP5 PUSH1 0x40 MLOAD DUP1 PUSH1 0x60 ADD PUSH1 0x40 MSTORE DUP1 PUSH1 0x29 DUP2 MSTORE PUSH1 0x20 ADD PUSH2 0x2E99 PUSH1 0x29 SWAP2 CODECOPY PUSH2 0x1E20 JUMP JUMPDEST SWAP5 SWAP4 POP POP POP POP JUMP JUMPDEST PUSH1 0x60 PUSH2 0x1668 DUP4 DUP4 PUSH1 0x0 PUSH1 0x40 MLOAD DUP1 PUSH1 0x40 ADD PUSH1 0x40 MSTORE DUP1 PUSH1 0x1E DUP2 MSTORE PUSH1 0x20 ADD PUSH32 0x416464726573733A206C6F772D6C6576656C2063616C6C206661696C65640000 DUP2 MSTORE POP PUSH2 0x1E20 JUMP JUMPDEST PUSH1 0x7 SLOAD PUSH1 0x1 PUSH1 0x1 PUSH1 0xA0 SHL SUB AND CALLER EQ PUSH2 0x185D JUMPI PUSH1 0x40 MLOAD PUSH3 0x461BCD PUSH1 0xE5 SHL DUP2 MSTORE PUSH1 0x20 PUSH1 0x4 DUP3 ADD MSTORE PUSH1 0x16 PUSH1 0x24 DUP3 ADD MSTORE PUSH22 0x27B7363C9031B0B63630B1363290313C9037BBB732B9 PUSH1 0x51 SHL PUSH1 0x44 DUP3 ADD MSTORE PUSH1 0x64 ADD PUSH2 0x6E2 JUMP JUMPDEST JUMP JUMPDEST CALLER PUSH1 0x1 PUSH1 0x1 PUSH1 0xA0 SHL SUB DUP3 AND SUB PUSH2 0x18B1 JUMPI PUSH1 0x40 MLOAD PUSH3 0x461BCD PUSH1 0xE5 SHL DUP2 MSTORE PUSH1 0x20 PUSH1 0x4 DUP3 ADD MSTORE PUSH1 0x17 PUSH1 0x24 DUP3 ADD MSTORE PUSH23 0x21B0B73737BA103A3930B739B332B9103A379039B2B633 PUSH1 0x49 SHL PUSH1 0x44 DUP3 ADD MSTORE PUSH1 0x64 ADD PUSH2 0x6E2 JUMP JUMPDEST PUSH1 0x8 DUP1 SLOAD PUSH1 0x1 PUSH1 0x1 PUSH1 0xA0 SHL SUB NOT AND PUSH1 0x1 PUSH1 0x1 PUSH1 0xA0 SHL SUB DUP4 DUP2 AND SWAP2 DUP3 OR SWAP1 SWAP3 SSTORE PUSH1 0x7 SLOAD PUSH1 0x40 MLOAD SWAP2 SWAP3 AND SWAP1 PUSH32 0xED8889F560326EB138920D842192F0EB3DD22B4F139C87A2C57538E05BAE1278 SWAP1 PUSH1 0x0 SWAP1 LOG3 POP JUMP JUMPDEST PUSH2 0x190D DUP3 DUP3 PUSH2 0xE99 JUMP JUMPDEST PUSH2 0xA68 JUMPI PUSH2 0x191A DUP2 PUSH2 0x15A6 JUMP JUMPDEST PUSH2 0x1925 DUP4 PUSH1 0x20 PUSH2 0x19B0 JUMP JUMPDEST PUSH1 0x40 MLOAD PUSH1 0x20 ADD PUSH2 0x1936 SWAP3 SWAP2 SWAP1 PUSH2 0x2C08 JUMP JUMPDEST PUSH1 0x40 DUP1 MLOAD PUSH1 0x1F NOT DUP2 DUP5 SUB ADD DUP2 MSTORE SWAP1 DUP3 SWAP1 MSTORE PUSH3 0x461BCD PUSH1 0xE5 SHL DUP3 MSTORE PUSH2 0x6E2 SWAP2 PUSH1 0x4 ADD PUSH2 0x26FB JUMP JUMPDEST PUSH2 0x1964 PUSH2 0x2474 JUMP JUMPDEST PUSH2 0x1974 DUP6 PUSH1 0x80 ADD MLOAD PUSH2 0x100 PUSH2 0x1EFB JUMP JUMPDEST POP POP SWAP2 DUP4 MSTORE PUSH1 0x1 PUSH1 0x1 PUSH1 0xA0 SHL SUB AND PUSH1 0x20 DUP4 ADD MSTORE PUSH1 0x1 PUSH1 0x1 PUSH1 0xE0 SHL SUB NOT AND PUSH1 0x40 DUP3 ADD MSTORE SWAP1 JUMP JUMPDEST PUSH2 0x19A6 DUP3 PUSH1 0x3 DUP4 MLOAD PUSH2 0x1F53 JUMP JUMPDEST PUSH2 0x9E9 DUP3 DUP3 PUSH2 0x2060 JUMP JUMPDEST PUSH1 0x60 PUSH1 0x0 PUSH2 0x19BF DUP4 PUSH1 0x2 PUSH2 0x2C77 JUMP JUMPDEST PUSH2 0x19CA SWAP1 PUSH1 0x2 PUSH2 0x2C8E JUMP JUMPDEST PUSH1 0x1 PUSH1 0x1 PUSH1 0x40 SHL SUB DUP2 GT ISZERO PUSH2 0x19E1 JUMPI PUSH2 0x19E1 PUSH2 0x24ED JUMP JUMPDEST PUSH1 0x40 MLOAD SWAP1 DUP1 DUP3 MSTORE DUP1 PUSH1 0x1F ADD PUSH1 0x1F NOT AND PUSH1 0x20 ADD DUP3 ADD PUSH1 0x40 MSTORE DUP1 ISZERO PUSH2 0x1A0B JUMPI PUSH1 0x20 DUP3 ADD DUP2 DUP1 CALLDATASIZE DUP4 CALLDATACOPY ADD SWAP1 POP JUMPDEST POP SWAP1 POP PUSH1 0x3 PUSH1 0xFC SHL DUP2 PUSH1 0x0 DUP2 MLOAD DUP2 LT PUSH2 0x1A26 JUMPI PUSH2 0x1A26 PUSH2 0x2CA1 JUMP JUMPDEST PUSH1 0x20 ADD ADD SWAP1 PUSH1 0x1 PUSH1 0x1 PUSH1 0xF8 SHL SUB NOT AND SWAP1 DUP2 PUSH1 0x0 BYTE SWAP1 MSTORE8 POP PUSH1 0xF PUSH1 0xFB SHL DUP2 PUSH1 0x1 DUP2 MLOAD DUP2 LT PUSH2 0x1A55 JUMPI PUSH2 0x1A55 PUSH2 0x2CA1 JUMP JUMPDEST PUSH1 0x20 ADD ADD SWAP1 PUSH1 0x1 PUSH1 0x1 PUSH1 0xF8 SHL SUB NOT AND SWAP1 DUP2 PUSH1 0x0 BYTE SWAP1 MSTORE8 POP PUSH1 0x0 PUSH2 0x1A79 DUP5 PUSH1 0x2 PUSH2 0x2C77 JUMP JUMPDEST PUSH2 0x1A84 SWAP1 PUSH1 0x1 PUSH2 0x2C8E JUMP JUMPDEST SWAP1 POP JUMPDEST PUSH1 0x1 DUP2 GT ISZERO PUSH2 0x1AFC JUMPI PUSH16 0x181899199A1A9B1B9C1CB0B131B232B3 PUSH1 0x81 SHL DUP6 PUSH1 0xF AND PUSH1 0x10 DUP2 LT PUSH2 0x1AB8 JUMPI PUSH2 0x1AB8 PUSH2 0x2CA1 JUMP JUMPDEST BYTE PUSH1 0xF8 SHL DUP3 DUP3 DUP2 MLOAD DUP2 LT PUSH2 0x1ACE JUMPI PUSH2 0x1ACE PUSH2 0x2CA1 JUMP JUMPDEST PUSH1 0x20 ADD ADD SWAP1 PUSH1 0x1 PUSH1 0x1 PUSH1 0xF8 SHL SUB NOT AND SWAP1 DUP2 PUSH1 0x0 BYTE SWAP1 MSTORE8 POP PUSH1 0x4 SWAP5 SWAP1 SWAP5 SHR SWAP4 PUSH2 0x1AF5 DUP2 PUSH2 0x2CB7 JUMP JUMPDEST SWAP1 POP PUSH2 0x1A87 JUMP JUMPDEST POP DUP4 ISZERO PUSH2 0x1668 JUMPI PUSH1 0x40 MLOAD PUSH3 0x461BCD PUSH1 0xE5 SHL DUP2 MSTORE PUSH1 0x20 PUSH1 0x4 DUP3 ADD DUP2 SWAP1 MSTORE PUSH1 0x24 DUP3 ADD MSTORE PUSH32 0x537472696E67733A20686578206C656E67746820696E73756666696369656E74 PUSH1 0x44 DUP3 ADD MSTORE PUSH1 0x64 ADD PUSH2 0x6E2 JUMP JUMPDEST PUSH1 0x0 DUP1 PUSH19 0x184F03E93FF9F4DAA797ED6E38ED64BF6A1F01 PUSH1 0x40 SHL DUP4 LT PUSH2 0x1B8A JUMPI PUSH19 0x184F03E93FF9F4DAA797ED6E38ED64BF6A1F01 PUSH1 0x40 SHL DUP4 DIV SWAP3 POP PUSH1 0x40 ADD JUMPDEST PUSH10 0x4EE2D6D415B85ACEF81 PUSH1 0x20 SHL DUP4 LT PUSH2 0x1BB4 JUMPI PUSH10 0x4EE2D6D415B85ACEF81 PUSH1 0x20 SHL DUP4 DIV SWAP3 POP PUSH1 0x20 ADD JUMPDEST PUSH7 0x2386F26FC10000 DUP4 LT PUSH2 0x1BD2 JUMPI PUSH7 0x2386F26FC10000 DUP4 DIV SWAP3 POP PUSH1 0x10 ADD JUMPDEST PUSH4 0x5F5E100 DUP4 LT PUSH2 0x1BEA JUMPI PUSH4 0x5F5E100 DUP4 DIV SWAP3 POP PUSH1 0x8 ADD JUMPDEST PUSH2 0x2710 DUP4 LT PUSH2 0x1BFE JUMPI PUSH2 0x2710 DUP4 DIV SWAP3 POP PUSH1 0x4 ADD JUMPDEST PUSH1 0x64 DUP4 LT PUSH2 0x1C10 JUMPI PUSH1 0x64 DUP4 DIV SWAP3 POP PUSH1 0x2 ADD JUMPDEST PUSH1 0xA DUP4 LT PUSH2 0x6A4 JUMPI PUSH1 0x1 ADD SWAP3 SWAP2 POP POP JUMP JUMPDEST PUSH1 0x5 SLOAD PUSH1 0x0 SWAP1 PUSH2 0x1C32 DUP2 PUSH1 0x1 PUSH2 0x2C8E JUMP JUMPDEST PUSH1 0x5 SSTORE DUP4 MLOAD PUSH1 0x40 DUP1 DUP7 ADD MLOAD PUSH1 0x80 DUP8 ADD MLOAD MLOAD SWAP2 MLOAD PUSH1 0x0 SWAP4 PUSH4 0x20214CA3 PUSH1 0xE1 SHL SWAP4 PUSH2 0x1C6A SWAP4 DUP7 SWAP4 DUP5 SWAP4 SWAP3 ADDRESS SWAP3 SWAP2 DUP11 SWAP2 PUSH1 0x1 SWAP2 PUSH1 0x24 ADD PUSH2 0x2CCE JUMP JUMPDEST PUSH1 0x40 DUP1 MLOAD PUSH1 0x1F NOT DUP2 DUP5 SUB ADD DUP2 MSTORE SWAP2 SWAP1 MSTORE PUSH1 0x20 DUP2 ADD DUP1 MLOAD PUSH1 0x1 PUSH1 0x1 PUSH1 0xE0 SHL SUB AND PUSH1 0x1 PUSH1 0x1 PUSH1 0xE0 SHL SUB NOT SWAP1 SWAP4 AND SWAP3 SWAP1 SWAP3 OR SWAP1 SWAP2 MSTORE SWAP1 POP PUSH2 0x1CAA DUP7 DUP4 DUP7 DUP5 PUSH2 0x207A JUMP JUMPDEST SWAP7 SWAP6 POP POP POP POP POP POP JUMP JUMPDEST PUSH1 0x0 DUP3 PUSH1 0x0 ADD DUP3 DUP2 SLOAD DUP2 LT PUSH2 0x1CCB JUMPI PUSH2 0x1CCB PUSH2 0x2CA1 JUMP JUMPDEST SWAP1 PUSH1 0x0 MSTORE PUSH1 0x20 PUSH1 0x0 KECCAK256 ADD SLOAD SWAP1 POP SWAP3 SWAP2 POP POP JUMP JUMPDEST PUSH1 0x0 DUP2 DUP2 MSTORE PUSH1 0x1 DUP4 ADD PUSH1 0x20 MSTORE PUSH1 0x40 DUP2 KECCAK256 SLOAD DUP1 ISZERO PUSH2 0x1DC7 JUMPI PUSH1 0x0 PUSH2 0x1D02 PUSH1 0x1 DUP4 PUSH2 0x2D36 JUMP JUMPDEST DUP6 SLOAD SWAP1 SWAP2 POP PUSH1 0x0 SWAP1 PUSH2 0x1D16 SWAP1 PUSH1 0x1 SWAP1 PUSH2 0x2D36 JUMP JUMPDEST SWAP1 POP DUP2 DUP2 EQ PUSH2 0x1D7B JUMPI PUSH1 0x0 DUP7 PUSH1 0x0 ADD DUP3 DUP2 SLOAD DUP2 LT PUSH2 0x1D36 JUMPI PUSH2 0x1D36 PUSH2 0x2CA1 JUMP JUMPDEST SWAP1 PUSH1 0x0 MSTORE PUSH1 0x20 PUSH1 0x0 KECCAK256 ADD SLOAD SWAP1 POP DUP1 DUP8 PUSH1 0x0 ADD DUP5 DUP2 SLOAD DUP2 LT PUSH2 0x1D59 JUMPI PUSH2 0x1D59 PUSH2 0x2CA1 JUMP JUMPDEST PUSH1 0x0 SWAP2 DUP3 MSTORE PUSH1 0x20 DUP1 DUP4 KECCAK256 SWAP1 SWAP2 ADD SWAP3 SWAP1 SWAP3 SSTORE SWAP2 DUP3 MSTORE PUSH1 0x1 DUP9 ADD SWAP1 MSTORE PUSH1 0x40 SWAP1 KECCAK256 DUP4 SWAP1 SSTORE JUMPDEST DUP6 SLOAD DUP7 SWAP1 DUP1 PUSH2 0x1D8C JUMPI PUSH2 0x1D8C PUSH2 0x2D49 JUMP JUMPDEST PUSH1 0x1 SWAP1 SUB DUP2 DUP2 SWAP1 PUSH1 0x0 MSTORE PUSH1 0x20 PUSH1 0x0 KECCAK256 ADD PUSH1 0x0 SWAP1 SSTORE SWAP1 SSTORE DUP6 PUSH1 0x1 ADD PUSH1 0x0 DUP7 DUP2 MSTORE PUSH1 0x20 ADD SWAP1 DUP2 MSTORE PUSH1 0x20 ADD PUSH1 0x0 KECCAK256 PUSH1 0x0 SWAP1 SSTORE PUSH1 0x1 SWAP4 POP POP POP POP PUSH2 0x6A4 JUMP JUMPDEST PUSH1 0x0 SWAP2 POP POP PUSH2 0x6A4 JUMP JUMPDEST PUSH1 0x0 DUP2 DUP2 MSTORE PUSH1 0x1 DUP4 ADD PUSH1 0x20 MSTORE PUSH1 0x40 DUP2 KECCAK256 SLOAD PUSH2 0x1E18 JUMPI POP DUP2 SLOAD PUSH1 0x1 DUP2 DUP2 ADD DUP5 SSTORE PUSH1 0x0 DUP5 DUP2 MSTORE PUSH1 0x20 DUP1 DUP3 KECCAK256 SWAP1 SWAP4 ADD DUP5 SWAP1 SSTORE DUP5 SLOAD DUP5 DUP3 MSTORE DUP3 DUP7 ADD SWAP1 SWAP4 MSTORE PUSH1 0x40 SWAP1 KECCAK256 SWAP2 SWAP1 SWAP2 SSTORE PUSH2 0x6A4 JUMP JUMPDEST POP PUSH1 0x0 PUSH2 0x6A4 JUMP JUMPDEST PUSH1 0x60 DUP3 SELFBALANCE LT ISZERO PUSH2 0x1E81 JUMPI PUSH1 0x40 MLOAD PUSH3 0x461BCD PUSH1 0xE5 SHL DUP2 MSTORE PUSH1 0x20 PUSH1 0x4 DUP3 ADD MSTORE PUSH1 0x26 PUSH1 0x24 DUP3 ADD MSTORE PUSH32 0x416464726573733A20696E73756666696369656E742062616C616E636520666F PUSH1 0x44 DUP3 ADD MSTORE PUSH6 0x1C8818D85B1B PUSH1 0xD2 SHL PUSH1 0x64 DUP3 ADD MSTORE PUSH1 0x84 ADD PUSH2 0x6E2 JUMP JUMPDEST PUSH1 0x0 DUP1 DUP7 PUSH1 0x1 PUSH1 0x1 PUSH1 0xA0 SHL SUB AND DUP6 DUP8 PUSH1 0x40 MLOAD PUSH2 0x1E9D SWAP2 SWAP1 PUSH2 0x2900 JUMP JUMPDEST PUSH1 0x0 PUSH1 0x40 MLOAD DUP1 DUP4 SUB DUP2 DUP6 DUP8 GAS CALL SWAP3 POP POP POP RETURNDATASIZE DUP1 PUSH1 0x0 DUP2 EQ PUSH2 0x1EDA JUMPI PUSH1 0x40 MLOAD SWAP2 POP PUSH1 0x1F NOT PUSH1 0x3F RETURNDATASIZE ADD AND DUP3 ADD PUSH1 0x40 MSTORE RETURNDATASIZE DUP3 MSTORE RETURNDATASIZE PUSH1 0x0 PUSH1 0x20 DUP5 ADD RETURNDATACOPY PUSH2 0x1EDF JUMP JUMPDEST PUSH1 0x60 SWAP2 POP JUMPDEST POP SWAP2 POP SWAP2 POP PUSH2 0x1EF0 DUP8 DUP4 DUP4 DUP8 PUSH2 0x21D3 JUMP JUMPDEST SWAP8 SWAP7 POP POP POP POP POP POP POP JUMP JUMPDEST PUSH2 0x1F03 PUSH2 0x24A9 JUMP JUMPDEST PUSH2 0x1F0E PUSH1 0x20 DUP4 PUSH2 0x2D5F JUMP JUMPDEST ISZERO PUSH2 0x1F36 JUMPI PUSH2 0x1F1E PUSH1 0x20 DUP4 PUSH2 0x2D5F JUMP JUMPDEST PUSH2 0x1F29 SWAP1 PUSH1 0x20 PUSH2 0x2D36 JUMP JUMPDEST PUSH2 0x1F33 SWAP1 DUP4 PUSH2 0x2C8E JUMP JUMPDEST SWAP2 POP JUMPDEST POP PUSH1 0x20 DUP3 DUP2 ADD DUP3 SWAP1 MSTORE PUSH1 0x40 DUP1 MLOAD DUP1 DUP6 MSTORE PUSH1 0x0 DUP2 MSTORE SWAP1 SWAP3 ADD ADD SWAP1 MSTORE SWAP1 JUMP JUMPDEST PUSH1 0x17 DUP2 PUSH1 0x1 PUSH1 0x1 PUSH1 0x40 SHL SUB AND GT PUSH2 0x1F7D JUMPI PUSH2 0x1F77 DUP4 PUSH1 0xE0 PUSH1 0x5 DUP6 SWAP1 SHL AND DUP4 OR PUSH2 0x224C JUMP JUMPDEST POP POP POP POP JUMP JUMPDEST PUSH1 0xFF DUP2 PUSH1 0x1 PUSH1 0x1 PUSH1 0x40 SHL SUB AND GT PUSH2 0x1FB9 JUMPI PUSH2 0x1FA3 DUP4 PUSH1 0x18 PUSH2 0x1FE0 PUSH1 0x5 DUP7 SWAP1 SHL AND OR PUSH2 0x224C JUMP JUMPDEST POP PUSH2 0x1F77 DUP4 PUSH1 0x1 PUSH1 0x1 PUSH1 0x40 SHL SUB DUP4 AND PUSH1 0x1 PUSH2 0x2264 JUMP JUMPDEST PUSH2 0xFFFF DUP2 PUSH1 0x1 PUSH1 0x1 PUSH1 0x40 SHL SUB AND GT PUSH2 0x1FF6 JUMPI PUSH2 0x1FE0 DUP4 PUSH1 0x19 PUSH2 0x1FE0 PUSH1 0x5 DUP7 SWAP1 SHL AND OR PUSH2 0x224C JUMP JUMPDEST POP PUSH2 0x1F77 DUP4 PUSH1 0x1 PUSH1 0x1 PUSH1 0x40 SHL SUB DUP4 AND PUSH1 0x2 PUSH2 0x2264 JUMP JUMPDEST PUSH4 0xFFFFFFFF DUP2 PUSH1 0x1 PUSH1 0x1 PUSH1 0x40 SHL SUB AND GT PUSH2 0x2035 JUMPI PUSH2 0x201F DUP4 PUSH1 0x1A PUSH2 0x1FE0 PUSH1 0x5 DUP7 SWAP1 SHL AND OR PUSH2 0x224C JUMP JUMPDEST POP PUSH2 0x1F77 DUP4 PUSH1 0x1 PUSH1 0x1 PUSH1 0x40 SHL SUB DUP4 AND PUSH1 0x4 PUSH2 0x2264 JUMP JUMPDEST PUSH2 0x204A DUP4 PUSH1 0x1B PUSH2 0x1FE0 PUSH1 0x5 DUP7 SWAP1 SHL AND OR PUSH2 0x224C JUMP JUMPDEST POP PUSH2 0x1F77 DUP4 PUSH1 0x1 PUSH1 0x1 PUSH1 0x40 SHL SUB DUP4 AND PUSH1 0x8 PUSH2 0x2264 JUMP JUMPDEST PUSH2 0x2068 PUSH2 0x24A9 JUMP JUMPDEST PUSH2 0x1668 DUP4 DUP5 PUSH1 0x0 ADD MLOAD MLOAD DUP5 DUP6 MLOAD PUSH2 0x227D JUMP JUMPDEST PUSH1 0x40 MLOAD PUSH1 0x1 PUSH1 0x1 PUSH1 0x60 SHL SUB NOT ADDRESS PUSH1 0x60 SHL AND PUSH1 0x20 DUP3 ADD MSTORE PUSH1 0x34 DUP2 ADD DUP5 SWAP1 MSTORE PUSH1 0x0 SWAP1 PUSH1 0x54 ADD PUSH1 0x40 DUP1 MLOAD DUP1 DUP4 SUB PUSH1 0x1F NOT ADD DUP2 MSTORE DUP3 DUP3 MSTORE DUP1 MLOAD PUSH1 0x20 SWAP2 DUP3 ADD KECCAK256 PUSH1 0x0 DUP2 DUP2 MSTORE PUSH1 0x6 SWAP1 SWAP3 MSTORE SWAP2 DUP2 KECCAK256 DUP1 SLOAD PUSH1 0x1 PUSH1 0x1 PUSH1 0xA0 SHL SUB NOT AND PUSH1 0x1 PUSH1 0x1 PUSH1 0xA0 SHL SUB DUP11 AND OR SWAP1 SSTORE SWAP1 SWAP3 POP DUP3 SWAP2 PUSH32 0xB5E6E01E79F91267DC17B4E6314D5D4D03593D2CEEE0FBB452B750BD70EA5AF9 SWAP2 SWAP1 LOG2 PUSH1 0x3 SLOAD PUSH1 0x40 MLOAD PUSH4 0x2000575 PUSH1 0xE5 SHL DUP2 MSTORE PUSH1 0x1 PUSH1 0x1 PUSH1 0xA0 SHL SUB SWAP1 SWAP2 AND SWAP1 PUSH4 0x4000AEA0 SWAP1 PUSH2 0x2138 SWAP1 DUP9 SWAP1 DUP8 SWAP1 DUP8 SWAP1 PUSH1 0x4 ADD PUSH2 0x2D81 JUMP JUMPDEST PUSH1 0x20 PUSH1 0x40 MLOAD DUP1 DUP4 SUB DUP2 PUSH1 0x0 DUP8 GAS CALL ISZERO DUP1 ISZERO PUSH2 0x2157 JUMPI RETURNDATASIZE PUSH1 0x0 DUP1 RETURNDATACOPY RETURNDATASIZE PUSH1 0x0 REVERT JUMPDEST POP POP POP POP PUSH1 0x40 MLOAD RETURNDATASIZE PUSH1 0x1F NOT PUSH1 0x1F DUP3 ADD AND DUP3 ADD DUP1 PUSH1 0x40 MSTORE POP DUP2 ADD SWAP1 PUSH2 0x217B SWAP2 SWAP1 PUSH2 0x2AE2 JUMP JUMPDEST PUSH2 0x17BE JUMPI PUSH1 0x40 MLOAD PUSH3 0x461BCD PUSH1 0xE5 SHL DUP2 MSTORE PUSH1 0x20 PUSH1 0x4 DUP3 ADD MSTORE PUSH1 0x23 PUSH1 0x24 DUP3 ADD MSTORE PUSH32 0x756E61626C6520746F207472616E73666572416E6443616C6C20746F206F7261 PUSH1 0x44 DUP3 ADD MSTORE PUSH3 0x636C65 PUSH1 0xE8 SHL PUSH1 0x64 DUP3 ADD MSTORE PUSH1 0x84 ADD PUSH2 0x6E2 JUMP JUMPDEST PUSH1 0x60 DUP4 ISZERO PUSH2 0x2242 JUMPI DUP3 MLOAD PUSH1 0x0 SUB PUSH2 0x223B JUMPI PUSH1 0x1 PUSH1 0x1 PUSH1 0xA0 SHL SUB DUP6 AND EXTCODESIZE PUSH2 0x223B JUMPI PUSH1 0x40 MLOAD PUSH3 0x461BCD PUSH1 0xE5 SHL DUP2 MSTORE PUSH1 0x20 PUSH1 0x4 DUP3 ADD MSTORE PUSH1 0x1D PUSH1 0x24 DUP3 ADD MSTORE PUSH32 0x416464726573733A2063616C6C20746F206E6F6E2D636F6E7472616374000000 PUSH1 0x44 DUP3 ADD MSTORE PUSH1 0x64 ADD PUSH2 0x6E2 JUMP JUMPDEST POP DUP2 PUSH2 0x17BE JUMP JUMPDEST PUSH2 0x17BE DUP4 DUP4 PUSH2 0x235A JUMP JUMPDEST PUSH2 0x2254 PUSH2 0x24A9 JUMP JUMPDEST PUSH2 0x1668 DUP4 DUP5 PUSH1 0x0 ADD MLOAD MLOAD DUP5 PUSH2 0x2384 JUMP JUMPDEST PUSH2 0x226C PUSH2 0x24A9 JUMP JUMPDEST PUSH2 0x17BE DUP5 DUP6 PUSH1 0x0 ADD MLOAD MLOAD DUP6 DUP6 PUSH2 0x23D2 JUMP JUMPDEST PUSH2 0x2285 PUSH2 0x24A9 JUMP JUMPDEST DUP3 MLOAD DUP3 GT ISZERO PUSH2 0x2293 JUMPI PUSH1 0x0 DUP1 REVERT JUMPDEST PUSH1 0x20 DUP6 ADD MLOAD PUSH2 0x22A2 DUP4 DUP7 PUSH2 0x2C8E JUMP JUMPDEST GT ISZERO PUSH2 0x22D5 JUMPI PUSH2 0x22D5 DUP6 PUSH2 0x22C5 DUP8 PUSH1 0x20 ADD MLOAD DUP8 DUP7 PUSH2 0x22C0 SWAP2 SWAP1 PUSH2 0x2C8E JUMP JUMPDEST PUSH2 0x2446 JUMP JUMPDEST PUSH2 0x22D0 SWAP1 PUSH1 0x2 PUSH2 0x2C77 JUMP JUMPDEST PUSH2 0x245D JUMP JUMPDEST PUSH1 0x0 DUP1 DUP7 MLOAD DUP1 MLOAD DUP8 PUSH1 0x20 DUP4 ADD ADD SWAP4 POP DUP1 DUP9 DUP8 ADD GT ISZERO PUSH2 0x22F4 JUMPI DUP8 DUP7 ADD DUP3 MSTORE JUMPDEST POP POP POP PUSH1 0x20 DUP5 ADD JUMPDEST PUSH1 0x20 DUP5 LT PUSH2 0x2334 JUMPI DUP1 MLOAD DUP3 MSTORE PUSH2 0x2313 PUSH1 0x20 DUP4 PUSH2 0x2C8E JUMP JUMPDEST SWAP2 POP PUSH2 0x2320 PUSH1 0x20 DUP3 PUSH2 0x2C8E JUMP JUMPDEST SWAP1 POP PUSH2 0x232D PUSH1 0x20 DUP6 PUSH2 0x2D36 JUMP JUMPDEST SWAP4 POP PUSH2 0x22FC JUMP JUMPDEST MLOAD DUP2 MLOAD PUSH1 0x0 NOT PUSH1 0x20 DUP7 SWAP1 SUB PUSH2 0x100 EXP ADD SWAP1 DUP2 AND SWAP1 NOT SWAP2 SWAP1 SWAP2 AND OR SWAP1 MSTORE POP DUP4 SWAP5 SWAP4 POP POP POP POP JUMP JUMPDEST DUP2 MLOAD ISZERO PUSH2 0x236A JUMPI DUP2 MLOAD DUP1 DUP4 PUSH1 0x20 ADD REVERT JUMPDEST DUP1 PUSH1 0x40 MLOAD PUSH3 0x461BCD PUSH1 0xE5 SHL DUP2 MSTORE PUSH1 0x4 ADD PUSH2 0x6E2 SWAP2 SWAP1 PUSH2 0x26FB JUMP JUMPDEST PUSH2 0x238C PUSH2 0x24A9 JUMP JUMPDEST DUP4 PUSH1 0x20 ADD MLOAD DUP4 LT PUSH2 0x23AC JUMPI PUSH2 0x23AC DUP5 DUP6 PUSH1 0x20 ADD MLOAD PUSH1 0x2 PUSH2 0x22D0 SWAP2 SWAP1 PUSH2 0x2C77 JUMP JUMPDEST DUP4 MLOAD DUP1 MLOAD PUSH1 0x20 DUP6 DUP4 ADD ADD DUP5 DUP2 MSTORE8 POP DUP1 DUP6 SUB PUSH2 0x23C8 JUMPI PUSH1 0x1 DUP2 ADD DUP3 MSTORE JUMPDEST POP SWAP4 SWAP5 SWAP4 POP POP POP POP JUMP JUMPDEST PUSH2 0x23DA PUSH2 0x24A9 JUMP JUMPDEST PUSH1 0x20 DUP6 ADD MLOAD PUSH2 0x23E9 DUP6 DUP5 PUSH2 0x2C8E JUMP JUMPDEST GT ISZERO PUSH2 0x23FD JUMPI PUSH2 0x23FD DUP6 PUSH2 0x22C5 DUP7 DUP6 PUSH2 0x2C8E JUMP JUMPDEST PUSH1 0x0 PUSH1 0x1 PUSH2 0x240D DUP5 PUSH2 0x100 PUSH2 0x2E8C JUMP JUMPDEST PUSH2 0x2417 SWAP2 SWAP1 PUSH2 0x2D36 JUMP JUMPDEST SWAP1 POP DUP6 MLOAD DUP4 DUP7 DUP3 ADD ADD DUP6 DUP4 NOT DUP3 MLOAD AND OR DUP2 MSTORE POP DUP1 MLOAD DUP5 DUP8 ADD GT ISZERO PUSH2 0x243B JUMPI DUP4 DUP7 ADD DUP2 MSTORE JUMPDEST POP SWAP5 SWAP6 SWAP5 POP POP POP POP POP JUMP JUMPDEST PUSH1 0x0 DUP2 DUP4 GT ISZERO PUSH2 0x2457 JUMPI POP DUP2 PUSH2 0x6A4 JUMP JUMPDEST POP SWAP2 SWAP1 POP JUMP JUMPDEST DUP2 MLOAD PUSH2 0x2469 DUP4 DUP4 PUSH2 0x1EFB JUMP JUMPDEST POP PUSH2 0x1F77 DUP4 DUP3 PUSH2 0x2060 JUMP JUMPDEST PUSH1 0x40 DUP1 MLOAD PUSH1 0xA0 DUP2 ADD DUP3 MSTORE PUSH1 0x0 DUP1 DUP3 MSTORE PUSH1 0x20 DUP3 ADD DUP2 SWAP1 MSTORE SWAP2 DUP2 ADD DUP3 SWAP1 MSTORE PUSH1 0x60 DUP2 ADD SWAP2 SWAP1 SWAP2 MSTORE PUSH1 0x80 DUP2 ADD PUSH2 0x24A4 PUSH2 0x24A9 JUMP JUMPDEST SWAP1 MSTORE SWAP1 JUMP JUMPDEST PUSH1 0x40 MLOAD DUP1 PUSH1 0x40 ADD PUSH1 0x40 MSTORE DUP1 PUSH1 0x60 DUP2 MSTORE PUSH1 0x20 ADD PUSH1 0x0 DUP2 MSTORE POP SWAP1 JUMP JUMPDEST PUSH1 0x0 PUSH1 0x20 DUP3 DUP5 SUB SLT ISZERO PUSH2 0x24D5 JUMPI PUSH1 0x0 DUP1 REVERT JUMPDEST DUP2 CALLDATALOAD PUSH1 0x1 PUSH1 0x1 PUSH1 0xE0 SHL SUB NOT DUP2 AND DUP2 EQ PUSH2 0x1668 JUMPI PUSH1 0x0 DUP1 REVERT JUMPDEST PUSH4 0x4E487B71 PUSH1 0xE0 SHL PUSH1 0x0 MSTORE PUSH1 0x41 PUSH1 0x4 MSTORE PUSH1 0x24 PUSH1 0x0 REVERT JUMPDEST PUSH1 0x0 DUP1 PUSH1 0x40 DUP4 DUP6 SUB SLT ISZERO PUSH2 0x2516 JUMPI PUSH1 0x0 DUP1 REVERT JUMPDEST DUP3 CALLDATALOAD SWAP2 POP PUSH1 0x20 DUP4 ADD CALLDATALOAD PUSH1 0x1 PUSH1 0x1 PUSH1 0x40 SHL SUB DUP1 DUP3 GT ISZERO PUSH2 0x2534 JUMPI PUSH1 0x0 DUP1 REVERT JUMPDEST DUP2 DUP6 ADD SWAP2 POP DUP6 PUSH1 0x1F DUP4 ADD SLT PUSH2 0x2548 JUMPI PUSH1 0x0 DUP1 REVERT JUMPDEST DUP2 CALLDATALOAD DUP2 DUP2 GT ISZERO PUSH2 0x255A JUMPI PUSH2 0x255A PUSH2 0x24ED JUMP JUMPDEST PUSH1 0x40 MLOAD PUSH1 0x1F DUP3 ADD PUSH1 0x1F NOT SWAP1 DUP2 AND PUSH1 0x3F ADD AND DUP2 ADD SWAP1 DUP4 DUP3 GT DUP2 DUP4 LT OR ISZERO PUSH2 0x2582 JUMPI PUSH2 0x2582 PUSH2 0x24ED JUMP JUMPDEST DUP2 PUSH1 0x40 MSTORE DUP3 DUP2 MSTORE DUP9 PUSH1 0x20 DUP5 DUP8 ADD ADD GT ISZERO PUSH2 0x259B JUMPI PUSH1 0x0 DUP1 REVERT JUMPDEST DUP3 PUSH1 0x20 DUP7 ADD PUSH1 0x20 DUP4 ADD CALLDATACOPY PUSH1 0x0 PUSH1 0x20 DUP5 DUP4 ADD ADD MSTORE DUP1 SWAP6 POP POP POP POP POP POP SWAP3 POP SWAP3 SWAP1 POP JUMP JUMPDEST DUP1 CALLDATALOAD PUSH1 0x1 PUSH1 0x1 PUSH1 0xA0 SHL SUB DUP2 AND DUP2 EQ PUSH2 0x25D4 JUMPI PUSH1 0x0 DUP1 REVERT JUMPDEST SWAP2 SWAP1 POP JUMP JUMPDEST PUSH1 0x0 DUP1 PUSH1 0x0 PUSH1 0x60 DUP5 DUP7 SUB SLT ISZERO PUSH2 0x25EE JUMPI PUSH1 0x0 DUP1 REVERT JUMPDEST PUSH2 0x25F7 DUP5 PUSH2 0x25BD JUMP JUMPDEST SWAP3 POP PUSH2 0x2605 PUSH1 0x20 DUP6 ADD PUSH2 0x25BD JUMP JUMPDEST SWAP2 POP PUSH1 0x40 DUP5 ADD CALLDATALOAD SWAP1 POP SWAP3 POP SWAP3 POP SWAP3 JUMP JUMPDEST PUSH1 0x0 PUSH1 0x20 DUP3 DUP5 SUB SLT ISZERO PUSH2 0x2627 JUMPI PUSH1 0x0 DUP1 REVERT JUMPDEST POP CALLDATALOAD SWAP2 SWAP1 POP JUMP JUMPDEST PUSH1 0x1 PUSH1 0x1 PUSH1 0xA0 SHL SUB SWAP2 SWAP1 SWAP2 AND DUP2 MSTORE PUSH1 0x20 ADD SWAP1 JUMP JUMPDEST PUSH1 0x0 DUP1 PUSH1 0x40 DUP4 DUP6 SUB SLT ISZERO PUSH2 0x2655 JUMPI PUSH1 0x0 DUP1 REVERT JUMPDEST DUP3 CALLDATALOAD SWAP2 POP PUSH2 0x2665 PUSH1 0x20 DUP5 ADD PUSH2 0x25BD JUMP JUMPDEST SWAP1 POP SWAP3 POP SWAP3 SWAP1 POP JUMP JUMPDEST PUSH1 0x0 DUP1 PUSH1 0x40 DUP4 DUP6 SUB SLT ISZERO PUSH2 0x2681 JUMPI PUSH1 0x0 DUP1 REVERT JUMPDEST POP POP DUP1 CALLDATALOAD SWAP3 PUSH1 0x20 SWAP1 SWAP2 ADD CALLDATALOAD SWAP2 POP JUMP JUMPDEST PUSH1 0x0 PUSH1 0x20 DUP3 DUP5 SUB SLT ISZERO PUSH2 0x26A2 JUMPI PUSH1 0x0 DUP1 REVERT JUMPDEST PUSH2 0x1668 DUP3 PUSH2 0x25BD JUMP JUMPDEST PUSH1 0x0 JUMPDEST DUP4 DUP2 LT ISZERO PUSH2 0x26C6 JUMPI DUP2 DUP2 ADD MLOAD DUP4 DUP3 ADD MSTORE PUSH1 0x20 ADD PUSH2 0x26AE JUMP JUMPDEST POP POP PUSH1 0x0 SWAP2 ADD MSTORE JUMP JUMPDEST PUSH1 0x0 DUP2 MLOAD DUP1 DUP5 MSTORE PUSH2 0x26E7 DUP2 PUSH1 0x20 DUP7 ADD PUSH1 0x20 DUP7 ADD PUSH2 0x26AB JUMP JUMPDEST PUSH1 0x1F ADD PUSH1 0x1F NOT AND SWAP3 SWAP1 SWAP3 ADD PUSH1 0x20 ADD SWAP3 SWAP2 POP POP JUMP JUMPDEST PUSH1 0x20 DUP2 MSTORE PUSH1 0x0 PUSH2 0x1668 PUSH1 0x20 DUP4 ADD DUP5 PUSH2 0x26CF JUMP JUMPDEST PUSH1 0x0 DUP1 PUSH1 0x0 DUP1 PUSH1 0x80 DUP6 DUP8 SUB SLT ISZERO PUSH2 0x2724 JUMPI PUSH1 0x0 DUP1 REVERT JUMPDEST PUSH2 0x272D DUP6 PUSH2 0x25BD JUMP JUMPDEST SWAP4 POP PUSH2 0x273B PUSH1 0x20 DUP7 ADD PUSH2 0x25BD JUMP JUMPDEST SWAP3 POP PUSH1 0x40 DUP6 ADD CALLDATALOAD SWAP2 POP PUSH1 0x60 DUP6 ADD CALLDATALOAD PUSH1 0xFF DUP2 AND DUP2 EQ PUSH2 0x2758 JUMPI PUSH1 0x0 DUP1 REVERT JUMPDEST SWAP4 SWAP7 SWAP3 SWAP6 POP SWAP1 SWAP4 POP POP JUMP JUMPDEST PUSH1 0x20 DUP1 DUP3 MSTORE PUSH1 0x28 SWAP1 DUP3 ADD MSTORE PUSH32 0x536F75726365206D75737420626520746865206F7261636C65206F6620746865 PUSH1 0x40 DUP3 ADD MSTORE PUSH8 0x81C995C5D595CDD PUSH1 0xC2 SHL PUSH1 0x60 DUP3 ADD MSTORE PUSH1 0x80 ADD SWAP1 JUMP JUMPDEST PUSH1 0x1 DUP2 DUP2 SHR SWAP1 DUP3 AND DUP1 PUSH2 0x27BF JUMPI PUSH1 0x7F DUP3 AND SWAP2 POP JUMPDEST PUSH1 0x20 DUP3 LT DUP2 SUB PUSH2 0x2457 JUMPI PUSH4 0x4E487B71 PUSH1 0xE0 SHL PUSH1 0x0 MSTORE PUSH1 0x22 PUSH1 0x4 MSTORE PUSH1 0x24 PUSH1 0x0 REVERT JUMPDEST PUSH1 0x1F DUP3 GT ISZERO PUSH2 0x9E9 JUMPI PUSH1 0x0 DUP2 DUP2 MSTORE PUSH1 0x20 DUP2 KECCAK256 PUSH1 0x1F DUP6 ADD PUSH1 0x5 SHR DUP2 ADD PUSH1 0x20 DUP7 LT ISZERO PUSH2 0x2806 JUMPI POP DUP1 JUMPDEST PUSH1 0x1F DUP6 ADD PUSH1 0x5 SHR DUP3 ADD SWAP2 POP JUMPDEST DUP2 DUP2 LT ISZERO PUSH2 0x9B0 JUMPI DUP3 DUP2 SSTORE PUSH1 0x1 ADD PUSH2 0x2812 JUMP JUMPDEST DUP2 MLOAD PUSH1 0x1 PUSH1 0x1 PUSH1 0x40 SHL SUB DUP2 GT ISZERO PUSH2 0x283E JUMPI PUSH2 0x283E PUSH2 0x24ED JUMP JUMPDEST PUSH2 0x2852 DUP2 PUSH2 0x284C DUP5 SLOAD PUSH2 0x27AB JUMP JUMPDEST DUP5 PUSH2 0x27DF JUMP JUMPDEST PUSH1 0x20 DUP1 PUSH1 0x1F DUP4 GT PUSH1 0x1 DUP2 EQ PUSH2 0x2887 JUMPI PUSH1 0x0 DUP5 ISZERO PUSH2 0x286F JUMPI POP DUP6 DUP4 ADD MLOAD JUMPDEST PUSH1 0x0 NOT PUSH1 0x3 DUP7 SWAP1 SHL SHR NOT AND PUSH1 0x1 DUP6 SWAP1 SHL OR DUP6 SSTORE PUSH2 0x9B0 JUMP JUMPDEST PUSH1 0x0 DUP6 DUP2 MSTORE PUSH1 0x20 DUP2 KECCAK256 PUSH1 0x1F NOT DUP7 AND SWAP2 JUMPDEST DUP3 DUP2 LT ISZERO PUSH2 0x28B6 JUMPI DUP9 DUP7 ADD MLOAD DUP3 SSTORE SWAP5 DUP5 ADD SWAP5 PUSH1 0x1 SWAP1 SWAP2 ADD SWAP1 DUP5 ADD PUSH2 0x2897 JUMP JUMPDEST POP DUP6 DUP3 LT ISZERO PUSH2 0x28D4 JUMPI DUP8 DUP6 ADD MLOAD PUSH1 0x0 NOT PUSH1 0x3 DUP9 SWAP1 SHL PUSH1 0xF8 AND SHR NOT AND DUP2 SSTORE JUMPDEST POP POP POP POP POP PUSH1 0x1 SWAP1 DUP2 SHL ADD SWAP1 SSTORE POP JUMP JUMPDEST PUSH1 0x0 DUP2 MLOAD PUSH2 0x28F6 DUP2 DUP6 PUSH1 0x20 DUP7 ADD PUSH2 0x26AB JUMP JUMPDEST SWAP3 SWAP1 SWAP3 ADD SWAP3 SWAP2 POP POP JUMP JUMPDEST PUSH1 0x0 DUP3 MLOAD PUSH2 0x2912 DUP2 DUP5 PUSH1 0x20 DUP8 ADD PUSH2 0x26AB JUMP JUMPDEST SWAP2 SWAP1 SWAP2 ADD SWAP3 SWAP2 POP POP JUMP JUMPDEST PUSH1 0x0 DUP1 MLOAD PUSH1 0x20 PUSH2 0x2EC2 DUP4 CODECOPY DUP2 MLOAD SWAP2 MSTORE DUP2 MSTORE PUSH12 0x312F71756F74653F7372633D PUSH1 0xA0 SHL PUSH1 0x20 DUP3 ADD MSTORE PUSH1 0x0 DUP5 MLOAD PUSH2 0x2957 DUP2 PUSH1 0x2C DUP6 ADD PUSH1 0x20 DUP10 ADD PUSH2 0x26AB JUMP JUMPDEST PUSH5 0x266473743D PUSH1 0xD8 SHL PUSH1 0x2C SWAP2 DUP5 ADD SWAP2 DUP3 ADD MSTORE DUP5 MLOAD PUSH2 0x297C DUP2 PUSH1 0x31 DUP5 ADD PUSH1 0x20 DUP10 ADD PUSH2 0x26AB JUMP JUMPDEST PUSH8 0x26616D6F756E743D PUSH1 0xC0 SHL PUSH1 0x31 SWAP3 SWAP1 SWAP2 ADD SWAP2 DUP3 ADD MSTORE DUP4 MLOAD PUSH2 0x29A5 DUP2 PUSH1 0x39 DUP5 ADD PUSH1 0x20 DUP9 ADD PUSH2 0x26AB JUMP JUMPDEST ADD PUSH1 0x39 ADD SWAP6 SWAP5 POP POP POP POP POP JUMP JUMPDEST PUSH32 0x5B22616363657074222C20226170706C69636174696F6E2F6A736F6E222C2022 DUP2 MSTORE PUSH1 0x0 PUSH1 0x20 PUSH24 0x20BABA3437B934BD30BA34B7B7111610112132B0B932B91 PUSH1 0x45 SHL DUP2 DUP5 ADD MSTORE PUSH1 0x38 PUSH1 0x0 DUP6 SLOAD PUSH2 0x2A08 DUP2 PUSH2 0x27AB JUMP JUMPDEST PUSH1 0x1 DUP3 DUP2 AND DUP1 ISZERO PUSH2 0x2A20 JUMPI PUSH1 0x1 DUP2 EQ PUSH2 0x2A39 JUMPI PUSH2 0x2A69 JUMP JUMPDEST PUSH1 0xFF NOT DUP5 AND DUP10 DUP8 ADD MSTORE DUP3 ISZERO ISZERO DUP4 MUL DUP10 ADD DUP7 ADD SWAP5 POP PUSH2 0x2A69 JUMP JUMPDEST DUP10 PUSH1 0x0 MSTORE DUP7 PUSH1 0x0 KECCAK256 PUSH1 0x0 JUMPDEST DUP5 DUP2 LT ISZERO PUSH2 0x2A5F JUMPI DUP2 SLOAD DUP12 DUP3 ADD DUP10 ADD MSTORE SWAP1 DUP4 ADD SWAP1 DUP9 ADD PUSH2 0x2A44 JUMP JUMPDEST POP POP DUP6 DUP4 DUP11 ADD ADD SWAP5 POP JUMPDEST POP POP PUSH2 0x225D PUSH1 0xF0 SHL DUP4 MSTORE POP POP PUSH1 0x2 ADD SWAP6 SWAP5 POP POP POP POP POP JUMP JUMPDEST PUSH4 0x4E487B71 PUSH1 0xE0 SHL PUSH1 0x0 MSTORE PUSH1 0x11 PUSH1 0x4 MSTORE PUSH1 0x24 PUSH1 0x0 REVERT JUMPDEST PUSH1 0x0 PUSH1 0x1 DUP3 ADD PUSH2 0x2AA9 JUMPI PUSH2 0x2AA9 PUSH2 0x2A81 JUMP JUMPDEST POP PUSH1 0x1 ADD SWAP1 JUMP JUMPDEST PUSH1 0x0 PUSH1 0x20 DUP3 DUP5 SUB SLT ISZERO PUSH2 0x2AC2 JUMPI PUSH1 0x0 DUP1 REVERT JUMPDEST POP MLOAD SWAP2 SWAP1 POP JUMP JUMPDEST PUSH1 0x1 PUSH1 0x1 PUSH1 0xA0 SHL SUB SWAP3 SWAP1 SWAP3 AND DUP3 MSTORE PUSH1 0x20 DUP3 ADD MSTORE PUSH1 0x40 ADD SWAP1 JUMP JUMPDEST PUSH1 0x0 PUSH1 0x20 DUP3 DUP5 SUB SLT ISZERO PUSH2 0x2AF4 JUMPI PUSH1 0x0 DUP1 REVERT JUMPDEST DUP2 MLOAD DUP1 ISZERO ISZERO DUP2 EQ PUSH2 0x1668 JUMPI PUSH1 0x0 DUP1 REVERT JUMPDEST PUSH1 0x0 DUP1 MLOAD PUSH1 0x20 PUSH2 0x2EC2 DUP4 CODECOPY DUP2 MLOAD SWAP2 MSTORE DUP2 MSTORE PUSH11 0x312F737761703F7372633D PUSH1 0xA8 SHL PUSH1 0x20 DUP3 ADD MSTORE PUSH1 0x0 DUP7 MLOAD PUSH2 0x2B3E DUP2 PUSH1 0x2B DUP6 ADD PUSH1 0x20 DUP12 ADD PUSH2 0x26AB JUMP JUMPDEST PUSH5 0x266473743D PUSH1 0xD8 SHL PUSH1 0x2B SWAP2 DUP5 ADD SWAP2 DUP3 ADD MSTORE DUP7 MLOAD PUSH2 0x2B63 DUP2 PUSH1 0x30 DUP5 ADD PUSH1 0x20 DUP12 ADD PUSH2 0x26AB JUMP JUMPDEST PUSH8 0x26616D6F756E743D PUSH1 0xC0 SHL PUSH1 0x30 SWAP3 SWAP1 SWAP2 ADD SWAP2 DUP3 ADD MSTORE DUP6 MLOAD PUSH2 0x2B8C DUP2 PUSH1 0x38 DUP5 ADD PUSH1 0x20 DUP11 ADD PUSH2 0x26AB JUMP JUMPDEST PUSH6 0x2666726F6D3D PUSH1 0xD0 SHL PUSH1 0x38 SWAP3 SWAP1 SWAP2 ADD SWAP2 DUP3 ADD MSTORE DUP5 MLOAD PUSH2 0x2BB3 DUP2 PUSH1 0x3E DUP5 ADD PUSH1 0x20 DUP10 ADD PUSH2 0x26AB JUMP JUMPDEST PUSH10 0x26736C6970706167653D PUSH1 0xB0 SHL PUSH1 0x3E SWAP3 SWAP1 SWAP2 ADD SWAP2 DUP3 ADD MSTORE PUSH2 0x2BFC PUSH2 0x2BDB PUSH1 0x48 DUP4 ADD DUP7 PUSH2 0x28E4 JUMP JUMPDEST PUSH21 0x2664697361626C65457374696D6174653D74727565 PUSH1 0x58 SHL DUP2 MSTORE PUSH1 0x15 ADD SWAP1 JUMP JUMPDEST SWAP9 SWAP8 POP POP POP POP POP POP POP POP JUMP JUMPDEST PUSH23 0x20B1B1B2B9B9A1B7B73A3937B61D1030B1B1B7BAB73A1 PUSH1 0x4D SHL DUP2 MSTORE PUSH1 0x0 DUP4 MLOAD PUSH2 0x2C3A DUP2 PUSH1 0x17 DUP6 ADD PUSH1 0x20 DUP9 ADD PUSH2 0x26AB JUMP JUMPDEST PUSH17 0x1034B99036B4B9B9B4B733903937B6329 PUSH1 0x7D SHL PUSH1 0x17 SWAP2 DUP5 ADD SWAP2 DUP3 ADD MSTORE DUP4 MLOAD PUSH2 0x2C6B DUP2 PUSH1 0x28 DUP5 ADD PUSH1 0x20 DUP9 ADD PUSH2 0x26AB JUMP JUMPDEST ADD PUSH1 0x28 ADD SWAP5 SWAP4 POP POP POP POP JUMP JUMPDEST DUP1 DUP3 MUL DUP2 ISZERO DUP3 DUP3 DIV DUP5 EQ OR PUSH2 0x6A4 JUMPI PUSH2 0x6A4 PUSH2 0x2A81 JUMP JUMPDEST DUP1 DUP3 ADD DUP1 DUP3 GT ISZERO PUSH2 0x6A4 JUMPI PUSH2 0x6A4 PUSH2 0x2A81 JUMP JUMPDEST PUSH4 0x4E487B71 PUSH1 0xE0 SHL PUSH1 0x0 MSTORE PUSH1 0x32 PUSH1 0x4 MSTORE PUSH1 0x24 PUSH1 0x0 REVERT JUMPDEST PUSH1 0x0 DUP2 PUSH2 0x2CC6 JUMPI PUSH2 0x2CC6 PUSH2 0x2A81 JUMP JUMPDEST POP PUSH1 0x0 NOT ADD SWAP1 JUMP JUMPDEST PUSH1 0x1 PUSH1 0x1 PUSH1 0xA0 SHL SUB DUP10 DUP2 AND DUP3 MSTORE PUSH1 0x20 DUP3 ADD DUP10 SWAP1 MSTORE PUSH1 0x40 DUP3 ADD DUP9 SWAP1 MSTORE DUP7 AND PUSH1 0x60 DUP3 ADD MSTORE PUSH1 0x1 PUSH1 0x1 PUSH1 0xE0 SHL SUB NOT DUP6 AND PUSH1 0x80 DUP3 ADD MSTORE PUSH1 0xA0 DUP2 ADD DUP5 SWAP1 MSTORE PUSH1 0xC0 DUP2 ADD DUP4 SWAP1 MSTORE PUSH2 0x100 PUSH1 0xE0 DUP3 ADD DUP2 SWAP1 MSTORE PUSH1 0x0 SWAP1 PUSH2 0x2D27 DUP4 DUP3 ADD DUP6 PUSH2 0x26CF JUMP JUMPDEST SWAP12 SWAP11 POP POP POP POP POP POP POP POP POP POP POP JUMP JUMPDEST DUP2 DUP2 SUB DUP2 DUP2 GT ISZERO PUSH2 0x6A4 JUMPI PUSH2 0x6A4 PUSH2 0x2A81 JUMP JUMPDEST PUSH4 0x4E487B71 PUSH1 0xE0 SHL PUSH1 0x0 MSTORE PUSH1 0x31 PUSH1 0x4 MSTORE PUSH1 0x24 PUSH1 0x0 REVERT JUMPDEST PUSH1 0x0 DUP3 PUSH2 0x2D7C JUMPI PUSH4 0x4E487B71 PUSH1 0xE0 SHL PUSH1 0x0 MSTORE PUSH1 0x12 PUSH1 0x4 MSTORE PUSH1 0x24 PUSH1 0x0 REVERT JUMPDEST POP MOD SWAP1 JUMP JUMPDEST PUSH1 0x1 DUP1 PUSH1 0xA0 SHL SUB DUP5 AND DUP2 MSTORE DUP3 PUSH1 0x20 DUP3 ADD MSTORE PUSH1 0x60 PUSH1 0x40 DUP3 ADD MSTORE PUSH1 0x0 PUSH2 0x157F PUSH1 0x60 DUP4 ADD DUP5 PUSH2 0x26CF JUMP JUMPDEST PUSH1 0x1 DUP2 DUP2 JUMPDEST DUP1 DUP6 GT ISZERO PUSH2 0x2DE3 JUMPI DUP2 PUSH1 0x0 NOT DIV DUP3 GT ISZERO PUSH2 0x2DC9 JUMPI PUSH2 0x2DC9 PUSH2 0x2A81 JUMP JUMPDEST DUP1 DUP6 AND ISZERO PUSH2 0x2DD6 JUMPI SWAP2 DUP2 MUL SWAP2 JUMPDEST SWAP4 DUP5 SHR SWAP4 SWAP1 DUP1 MUL SWAP1 PUSH2 0x2DAD JUMP JUMPDEST POP SWAP3 POP SWAP3 SWAP1 POP JUMP JUMPDEST PUSH1 0x0 DUP3 PUSH2 0x2DFA JUMPI POP PUSH1 0x1 PUSH2 0x6A4 JUMP JUMPDEST DUP2 PUSH2 0x2E07 JUMPI POP PUSH1 0x0 PUSH2 0x6A4 JUMP JUMPDEST DUP2 PUSH1 0x1 DUP2 EQ PUSH2 0x2E1D JUMPI PUSH1 0x2 DUP2 EQ PUSH2 0x2E27 JUMPI PUSH2 0x2E43 JUMP JUMPDEST PUSH1 0x1 SWAP2 POP POP PUSH2 0x6A4 JUMP JUMPDEST PUSH1 0xFF DUP5 GT ISZERO PUSH2 0x2E38 JUMPI PUSH2 0x2E38 PUSH2 0x2A81 JUMP JUMPDEST POP POP PUSH1 0x1 DUP3 SHL PUSH2 0x6A4 JUMP JUMPDEST POP PUSH1 0x20 DUP4 LT PUSH2 0x133 DUP4 LT AND PUSH1 0x4E DUP5 LT PUSH1 0xB DUP5 LT AND OR ISZERO PUSH2 0x2E66 JUMPI POP DUP2 DUP2 EXP PUSH2 0x6A4 JUMP JUMPDEST PUSH2 0x2E70 DUP4 DUP4 PUSH2 0x2DA8 JUMP JUMPDEST DUP1 PUSH1 0x0 NOT DIV DUP3 GT ISZERO PUSH2 0x2E84 JUMPI PUSH2 0x2E84 PUSH2 0x2A81 JUMP JUMPDEST MUL SWAP4 SWAP3 POP POP POP JUMP JUMPDEST PUSH1 0x0 PUSH2 0x1668 DUP4 DUP4 PUSH2 0x2DEB JUMP INVALID COINBASE PUSH5 0x6472657373 GASPRICE KECCAK256 PUSH13 0x6F772D6C6576656C2063616C6C KECCAK256 PUSH24 0x6974682076616C7565206661696C656468747470733A2F2F PUSH2 0x7069 0x2E BALANCE PUSH10 0x6E63682E6465762F7377 PUSH2 0x702F PUSH23 0x352E322F17A8E30262C1F919C33056D877A3C22B95C2F5 0xE4 0xDA 0xC4 CHAINID DUP4 0xC1 0xC2 ORIGIN EXTCODECOPY 0xD7 SWAP16 0xBD 0xB0 PUSH29 0xC135E0CEBB02C3480AE5D74D377283180A2601F8F644EDF7987B009316 0xC6 GASPRICE STATICCALL 0xB0 EXP SWAP9 SELFBALANCE SLOAD SWAP6 0xC PUSH18 0x87FB98F39DA0AE224ABBBEE017C1699445AD 0xE NOT SELFBALANCE 0x4A 0x4D LOG2 PUSH5 0x6970667358 0x22 SLT KECCAK256 0x5D 0xE9 0x4E SSTORE 0xC5 STATICCALL 0xBA 0x2F 0xED RETURNDATACOPY 0xEB STATICCALL KECCAK256 PUSH9 0xFBD1EA3D8D48B6A411 PUSH32 0xB133A57F94A8553B64736F6C6343000813003300000000000000000000000000 "},"gasEstimates":{"creation":{"codeDepositCost":"2430200","executionCost":"infinite","totalCost":"infinite"},"external":{"DEFAULT_ADMIN_ROLE()":"679","ONE_INCH_ETH_ADDRESS()":"790","STRATEGIST_ROLE()":"infinite","SWAP_AUTHORIZED_ROLE()":"infinite","acceptOwnership()":"52660","addSubscriber(address)":"infinite","aggregationRouter()":"infinite","evacuateLinkTokens()":"infinite","fulfillQuoteRequest(bytes32,uint256)":"infinite","fulfillSwap()":"infinite","getRoleAdmin(bytes32)":"2503","grantRole(bytes32,address)":"infinite","hasRole(bytes32,address)":"3091","isReadyToFulfillSwap()":"2915","lastQuotedDstToken()":"2955","lastQuotedSrcToken()":"2999","lastQuotedSrcTokenAmount()":"2449","lastSwapDstToken()":"2537","lastSwapSrcToken()":"2449","lastSwapSrcTokenAmount()":"2867","oneInchApiKey()":"infinite","owner()":"2773","quoteJobFee()":"infinite","quoteJobId()":"infinite","registerSwapCalldata(bytes32,bytes)":"infinite","removeSubscriber(address)":"infinite","renounceRole(bytes32,address)":"29127","requestQuote(address,address,uint256)":"infinite","requestSwap(address,address,uint256,uint8)":"infinite","revokeRole(bytes32,address)":"infinite","subscriberAt(uint256)":"5048","subscribersLength()":"2678","supportsInterface(bytes4)":"404","swapCalldataJobFee()":"infinite","swapCalldataJobId()":"infinite","transferOwnership(address)":"31162"}},"methodIdentifiers":{"DEFAULT_ADMIN_ROLE()":"a217fddf","ONE_INCH_ETH_ADDRESS()":"aaeafd56","STRATEGIST_ROLE()":"a378a324","SWAP_AUTHORIZED_ROLE()":"4e0c6133","acceptOwnership()":"79ba5097","addSubscriber(address)":"94555d1a","aggregationRouter()":"fcdfd946","evacuateLinkTokens()":"5b949dd0","fulfillQuoteRequest(bytes32,uint256)":"459c75d8","fulfillSwap()":"eaad47b2","getRoleAdmin(bytes32)":"248a9ca3","grantRole(bytes32,address)":"2f2ff15d","hasRole(bytes32,address)":"91d14854","isReadyToFulfillSwap()":"c0d2e37f","lastQuotedDstToken()":"c02e5bc7","lastQuotedSrcToken()":"c87457db","lastQuotedSrcTokenAmount()":"3662dd35","lastSwapDstToken()":"36868f0e","lastSwapSrcToken()":"271e390a","lastSwapSrcTokenAmount()":"b56269a0","oneInchApiKey()":"7aff3a0c","owner()":"8da5cb5b","quoteJobFee()":"53881b66","quoteJobId()":"7ec14de8","registerSwapCalldata(bytes32,bytes)":"02458ad8","removeSubscriber(address)":"627c34ad","renounceRole(bytes32,address)":"36568abe","requestQuote(address,address,uint256)":"1a5b4207","requestSwap(address,address,uint256,uint8)":"f09922ff","revokeRole(bytes32,address)":"d547741f","subscriberAt(uint256)":"6ccf5b01","subscribersLength()":"66b8455b","supportsInterface(bytes4)":"01ffc9a7","swapCalldataJobFee()":"a6ccef3e","swapCalldataJobId()":"2547db8d","transferOwnership(address)":"f2fde38b"}},"storageLayout":{"storage":[{"astId":2398,"contract":"contracts/utils/SwapHelper.sol:SwapHelper","label":"_roles","offset":0,"slot":"0","type":"t_mapping(t_bytes32,t_struct(RoleData)2393_storage)"},{"astId":319,"contract":"contracts/utils/SwapHelper.sol:SwapHelper","label":"s_ens","offset":0,"slot":"1","type":"t_contract(ENSInterface)1156"},{"astId":321,"contract":"contracts/utils/SwapHelper.sol:SwapHelper","label":"s_ensNode","offset":0,"slot":"2","type":"t_bytes32"},{"astId":324,"contract":"contracts/utils/SwapHelper.sol:SwapHelper","label":"s_link","offset":0,"slot":"3","type":"t_contract(LinkTokenInterface)1251"},{"astId":327,"contract":"contracts/utils/SwapHelper.sol:SwapHelper","label":"s_oracle","offset":0,"slot":"4","type":"t_contract(OperatorInterface)1331"},{"astId":330,"contract":"contracts/utils/SwapHelper.sol:SwapHelper","label":"s_requestCount","offset":0,"slot":"5","type":"t_uint256"},{"astId":334,"contract":"contracts/utils/SwapHelper.sol:SwapHelper","label":"s_pendingRequests","offset":0,"slot":"6","type":"t_mapping(t_bytes32,t_address)"},{"astId":889,"contract":"contracts/utils/SwapHelper.sol:SwapHelper","label":"s_owner","offset":0,"slot":"7","type":"t_address"},{"astId":891,"contract":"contracts/utils/SwapHelper.sol:SwapHelper","label":"s_pendingOwner","offset":0,"slot":"8","type":"t_address"},{"astId":5584,"contract":"contracts/utils/SwapHelper.sol:SwapHelper","label":"lastQuotedSrcToken","offset":0,"slot":"9","type":"t_address"},{"astId":5586,"contract":"contracts/utils/SwapHelper.sol:SwapHelper","label":"lastQuotedDstToken","offset":0,"slot":"10","type":"t_address"},{"astId":5588,"contract":"contracts/utils/SwapHelper.sol:SwapHelper","label":"lastQuotedSrcTokenAmount","offset":0,"slot":"11","type":"t_uint256"},{"astId":5590,"contract":"contracts/utils/SwapHelper.sol:SwapHelper","label":"lastSwapSrcToken","offset":0,"slot":"12","type":"t_address"},{"astId":5592,"contract":"contracts/utils/SwapHelper.sol:SwapHelper","label":"lastSwapDstToken","offset":0,"slot":"13","type":"t_address"},{"astId":5594,"contract":"contracts/utils/SwapHelper.sol:SwapHelper","label":"lastSwapSrcTokenAmount","offset":0,"slot":"14","type":"t_uint256"},{"astId":5596,"contract":"contracts/utils/SwapHelper.sol:SwapHelper","label":"isReadyToFulfillSwap","offset":0,"slot":"15","type":"t_bool"},{"astId":5598,"contract":"contracts/utils/SwapHelper.sol:SwapHelper","label":"_lastSwapCalldata","offset":0,"slot":"16","type":"t_bytes_storage"},{"astId":5600,"contract":"contracts/utils/SwapHelper.sol:SwapHelper","label":"oneInchApiKey","offset":0,"slot":"17","type":"t_string_storage"},{"astId":5603,"contract":"contracts/utils/SwapHelper.sol:SwapHelper","label":"_subscribers","offset":0,"slot":"18","type":"t_struct(AddressSet)5166_storage"}],"types":{"t_address":{"encoding":"inplace","label":"address","numberOfBytes":"20"},"t_array(t_bytes32)dyn_storage":{"base":"t_bytes32","encoding":"dynamic_array","label":"bytes32[]","numberOfBytes":"32"},"t_bool":{"encoding":"inplace","label":"bool","numberOfBytes":"1"},"t_bytes32":{"encoding":"inplace","label":"bytes32","numberOfBytes":"32"},"t_bytes_storage":{"encoding":"bytes","label":"bytes","numberOfBytes":"32"},"t_contract(ENSInterface)1156":{"encoding":"inplace","label":"contract ENSInterface","numberOfBytes":"20"},"t_contract(LinkTokenInterface)1251":{"encoding":"inplace","label":"contract LinkTokenInterface","numberOfBytes":"20"},"t_contract(OperatorInterface)1331":{"encoding":"inplace","label":"contract OperatorInterface","numberOfBytes":"20"},"t_mapping(t_address,t_bool)":{"encoding":"mapping","key":"t_address","label":"mapping(address => bool)","numberOfBytes":"32","value":"t_bool"},"t_mapping(t_bytes32,t_address)":{"encoding":"mapping","key":"t_bytes32","label":"mapping(bytes32 => address)","numberOfBytes":"32","value":"t_address"},"t_mapping(t_bytes32,t_struct(RoleData)2393_storage)":{"encoding":"mapping","key":"t_bytes32","label":"mapping(bytes32 => struct AccessControl.RoleData)","numberOfBytes":"32","value":"t_struct(RoleData)2393_storage"},"t_mapping(t_bytes32,t_uint256)":{"encoding":"mapping","key":"t_bytes32","label":"mapping(bytes32 => uint256)","numberOfBytes":"32","value":"t_uint256"},"t_string_storage":{"encoding":"bytes","label":"string","numberOfBytes":"32"},"t_struct(AddressSet)5166_storage":{"encoding":"inplace","label":"struct EnumerableSet.AddressSet","members":[{"astId":5165,"contract":"contracts/utils/SwapHelper.sol:SwapHelper","label":"_inner","offset":0,"slot":"0","type":"t_struct(Set)4851_storage"}],"numberOfBytes":"64"},"t_struct(RoleData)2393_storage":{"encoding":"inplace","label":"struct AccessControl.RoleData","members":[{"astId":2390,"contract":"contracts/utils/SwapHelper.sol:SwapHelper","label":"members","offset":0,"slot":"0","type":"t_mapping(t_address,t_bool)"},{"astId":2392,"contract":"contracts/utils/SwapHelper.sol:SwapHelper","label":"adminRole","offset":0,"slot":"1","type":"t_bytes32"}],"numberOfBytes":"64"},"t_struct(Set)4851_storage":{"encoding":"inplace","label":"struct EnumerableSet.Set","members":[{"astId":4846,"contract":"contracts/utils/SwapHelper.sol:SwapHelper","label":"_values","offset":0,"slot":"0","type":"t_array(t_bytes32)dyn_storage"},{"astId":4850,"contract":"contracts/utils/SwapHelper.sol:SwapHelper","label":"_indexes","offset":0,"slot":"1","type":"t_mapping(t_bytes32,t_uint256)"}],"numberOfBytes":"64"},"t_uint256":{"encoding":"inplace","label":"uint256","numberOfBytes":"32"}}},"userdoc":{"kind":"user","methods":{"acceptOwnership()":{"notice":"Allows an ownership transfer to be completed by the recipient."},"owner()":{"notice":"Get the current owner"},"transferOwnership(address)":{"notice":"Allows an owner to begin transferring ownership to a new address, pending."}},"version":1}}}}