{"contracts/utils/SwapHelper.sol":{"SwapHelper":{"abi":[{"inputs":[{"internalType":"uint256","name":"_quoteJobFee","type":"uint256"},{"internalType":"bytes32","name":"_quoteJobId","type":"bytes32"},{"internalType":"uint256","name":"_swapCalldataJobFee","type":"uint256"},{"internalType":"bytes32","name":"_swapCalldataJobId","type":"bytes32"},{"internalType":"address","name":"_strategist","type":"address"},{"internalType":"address","name":"_aggregationRouter","type":"address"},{"internalType":"address","name":"chainlinkTokenAddress","type":"address"},{"internalType":"address","name":"chainlinkOracleAddress","type":"address"},{"internalType":"address[]","name":"authorizedToSwap","type":"address[]"}],"stateMutability":"nonpayable","type":"constructor"},{"inputs":[],"name":"CannotAddSubscriber","type":"error"},{"inputs":[],"name":"CannotRemoveSubscriber","type":"error"},{"inputs":[],"name":"NotEnoughNativeTokensSent","type":"error"},{"inputs":[],"name":"QuoteOperationIsNotReady","type":"error"},{"inputs":[],"name":"SlippageIsTooBig","type":"error"},{"inputs":[],"name":"SwapOperationIsNotReady","type":"error"},{"inputs":[],"name":"TransferError","type":"error"},{"anonymous":false,"inputs":[{"indexed":true,"internalType":"bytes32","name":"id","type":"bytes32"}],"name":"ChainlinkCancelled","type":"event"},{"anonymous":false,"inputs":[{"indexed":true,"internalType":"bytes32","name":"id","type":"bytes32"}],"name":"ChainlinkFulfilled","type":"event"},{"anonymous":false,"inputs":[{"indexed":true,"internalType":"bytes32","name":"id","type":"bytes32"}],"name":"ChainlinkRequested","type":"event"},{"anonymous":false,"inputs":[{"indexed":true,"internalType":"uint256","name":"toAmount","type":"uint256"}],"name":"QuoteRegistered","type":"event"},{"anonymous":false,"inputs":[{"components":[{"components":[{"internalType":"address","name":"srcToken","type":"address"},{"internalType":"address","name":"dstToken","type":"address"},{"internalType":"uint256","name":"inAmount","type":"uint256"}],"internalType":"struct SwapHelper.SwapInfo","name":"swapInfo","type":"tuple"},{"internalType":"uint256","name":"outAmount","type":"uint256"}],"indexed":true,"internalType":"struct SwapHelper.QuoteInfo","name":"_quoteBuffer","type":"tuple"}],"name":"QuoteSent","type":"event"},{"anonymous":false,"inputs":[{"indexed":true,"internalType":"bytes32","name":"role","type":"bytes32"},{"indexed":true,"internalType":"bytes32","name":"previousAdminRole","type":"bytes32"},{"indexed":true,"internalType":"bytes32","name":"newAdminRole","type":"bytes32"}],"name":"RoleAdminChanged","type":"event"},{"anonymous":false,"inputs":[{"indexed":true,"internalType":"bytes32","name":"role","type":"bytes32"},{"indexed":true,"internalType":"address","name":"account","type":"address"},{"indexed":true,"internalType":"address","name":"sender","type":"address"}],"name":"RoleGranted","type":"event"},{"anonymous":false,"inputs":[{"indexed":true,"internalType":"bytes32","name":"role","type":"bytes32"},{"indexed":true,"internalType":"address","name":"account","type":"address"},{"indexed":true,"internalType":"address","name":"sender","type":"address"}],"name":"RoleRevoked","type":"event"},{"anonymous":false,"inputs":[{"indexed":true,"internalType":"enum SwapHelper.StrategistInterference","name":"interference","type":"uint8"}],"name":"StrategistInterferred","type":"event"},{"anonymous":false,"inputs":[{"components":[{"internalType":"address","name":"srcToken","type":"address"},{"internalType":"address","name":"dstToken","type":"address"},{"internalType":"uint256","name":"inAmount","type":"uint256"}],"indexed":true,"internalType":"struct SwapHelper.SwapInfo","name":"_swapBuffer","type":"tuple"}],"name":"SwapPerformed","type":"event"},{"anonymous":false,"inputs":[{"indexed":true,"internalType":"bytes","name":"swapCalldata","type":"bytes"}],"name":"SwapRegistered","type":"event"},{"inputs":[],"name":"DEFAULT_ADMIN_ROLE","outputs":[{"internalType":"bytes32","name":"","type":"bytes32"}],"stateMutability":"view","type":"function"},{"inputs":[],"name":"ONE_INCH_ETH_ADDRESS","outputs":[{"internalType":"address","name":"","type":"address"}],"stateMutability":"view","type":"function"},{"inputs":[],"name":"QUOTE_AUTHORIZED_ROLE","outputs":[{"internalType":"bytes32","name":"","type":"bytes32"}],"stateMutability":"view","type":"function"},{"inputs":[],"name":"STRATEGIST_ROLE","outputs":[{"internalType":"bytes32","name":"","type":"bytes32"}],"stateMutability":"view","type":"function"},{"inputs":[],"name":"SWAP_AUTHORIZED_ROLE","outputs":[{"internalType":"bytes32","name":"","type":"bytes32"}],"stateMutability":"view","type":"function"},{"inputs":[{"internalType":"address","name":"subscriber","type":"address"}],"name":"addSubscriber","outputs":[],"stateMutability":"nonpayable","type":"function"},{"inputs":[],"name":"aggregationRouter","outputs":[{"internalType":"address","name":"","type":"address"}],"stateMutability":"view","type":"function"},{"inputs":[],"name":"fulfillQuote","outputs":[],"stateMutability":"nonpayable","type":"function"},{"inputs":[],"name":"fulfillSwap","outputs":[],"stateMutability":"nonpayable","type":"function"},{"inputs":[{"internalType":"enum SwapHelper.JobPurpose","name":"_purpose","type":"uint8"}],"name":"getFeeInHundredthsOfLink","outputs":[{"internalType":"uint256","name":"","type":"uint256"}],"stateMutability":"view","type":"function"},{"inputs":[],"name":"getOracleAddress","outputs":[{"internalType":"address","name":"","type":"address"}],"stateMutability":"view","type":"function"},{"inputs":[{"internalType":"bytes32","name":"role","type":"bytes32"}],"name":"getRoleAdmin","outputs":[{"internalType":"bytes32","name":"","type":"bytes32"}],"stateMutability":"view","type":"function"},{"inputs":[{"internalType":"bytes32","name":"role","type":"bytes32"},{"internalType":"address","name":"account","type":"address"}],"name":"grantRole","outputs":[],"stateMutability":"nonpayable","type":"function"},{"inputs":[{"internalType":"bytes32","name":"role","type":"bytes32"},{"internalType":"address","name":"account","type":"address"}],"name":"hasRole","outputs":[{"internalType":"bool","name":"","type":"bool"}],"stateMutability":"view","type":"function"},{"inputs":[],"name":"isReadyToFulfillQuote","outputs":[{"internalType":"bool","name":"","type":"bool"}],"stateMutability":"view","type":"function"},{"inputs":[],"name":"isReadyToFulfillSwap","outputs":[{"internalType":"bool","name":"","type":"bool"}],"stateMutability":"view","type":"function"},{"inputs":[{"internalType":"uint256","name":"","type":"uint256"}],"name":"jobInfos","outputs":[{"internalType":"bytes32","name":"jobId","type":"bytes32"},{"internalType":"uint256","name":"jobFeeInJuels","type":"uint256"}],"stateMutability":"view","type":"function"},{"inputs":[],"name":"oracleAddress","outputs":[{"internalType":"address","name":"","type":"address"}],"stateMutability":"view","type":"function"},{"inputs":[],"name":"quoteBuffer","outputs":[{"components":[{"internalType":"address","name":"srcToken","type":"address"},{"internalType":"address","name":"dstToken","type":"address"},{"internalType":"uint256","name":"inAmount","type":"uint256"}],"internalType":"struct SwapHelper.SwapInfo","name":"swapInfo","type":"tuple"},{"internalType":"uint256","name":"outAmount","type":"uint256"}],"stateMutability":"view","type":"function"},{"inputs":[{"internalType":"bytes32","name":"requestId","type":"bytes32"},{"internalType":"uint256","name":"toAmount","type":"uint256"}],"name":"registerQuoteRequest","outputs":[],"stateMutability":"nonpayable","type":"function"},{"inputs":[{"internalType":"bytes32","name":"requestId","type":"bytes32"},{"internalType":"bytes","name":"swapCalldata","type":"bytes"}],"name":"registerSwapCalldata","outputs":[],"stateMutability":"nonpayable","type":"function"},{"inputs":[{"internalType":"address","name":"subscriber","type":"address"}],"name":"removeSubscriber","outputs":[],"stateMutability":"nonpayable","type":"function"},{"inputs":[{"internalType":"bytes32","name":"role","type":"bytes32"},{"internalType":"address","name":"account","type":"address"}],"name":"renounceRole","outputs":[],"stateMutability":"nonpayable","type":"function"},{"inputs":[{"internalType":"address","name":"src","type":"address"},{"internalType":"address","name":"dst","type":"address"},{"internalType":"uint256","name":"amount","type":"uint256"}],"name":"requestQuote","outputs":[],"stateMutability":"nonpayable","type":"function"},{"inputs":[{"internalType":"address","name":"src","type":"address"},{"internalType":"address","name":"dst","type":"address"},{"internalType":"uint256","name":"amount","type":"uint256"},{"internalType":"uint8","name":"slippage","type":"uint8"}],"name":"requestSwap","outputs":[],"stateMutability":"payable","type":"function"},{"inputs":[{"internalType":"bytes32","name":"role","type":"bytes32"},{"internalType":"address","name":"account","type":"address"}],"name":"revokeRole","outputs":[],"stateMutability":"nonpayable","type":"function"},{"inputs":[{"internalType":"enum SwapHelper.JobPurpose","name":"_purpose","type":"uint8"},{"internalType":"uint256","name":"_feeInHundredthsOfLink","type":"uint256"}],"name":"setFeeInHundredthsOfLink","outputs":[],"stateMutability":"nonpayable","type":"function"},{"inputs":[{"internalType":"enum SwapHelper.JobPurpose","name":"_purpose","type":"uint8"},{"components":[{"internalType":"bytes32","name":"jobId","type":"bytes32"},{"internalType":"uint256","name":"jobFeeInJuels","type":"uint256"}],"internalType":"struct SwapHelper.JobInfo","name":"_info","type":"tuple"}],"name":"setJobInfo","outputs":[],"stateMutability":"nonpayable","type":"function"},{"inputs":[{"internalType":"address","name":"_oracleAddress","type":"address"}],"name":"setOracleAddress","outputs":[],"stateMutability":"nonpayable","type":"function"},{"inputs":[{"internalType":"uint256","name":"toAmount","type":"uint256"}],"name":"strategistFulfillQuote","outputs":[],"stateMutability":"nonpayable","type":"function"},{"inputs":[{"internalType":"bytes","name":"_swapCalldata","type":"bytes"}],"name":"strategistFulfillSwap","outputs":[],"stateMutability":"nonpayable","type":"function"},{"inputs":[{"internalType":"uint256","name":"subscriberIdx","type":"uint256"}],"name":"subscriberAt","outputs":[{"internalType":"address","name":"","type":"address"}],"stateMutability":"view","type":"function"},{"inputs":[],"name":"subscribersLength","outputs":[{"internalType":"uint256","name":"","type":"uint256"}],"stateMutability":"view","type":"function"},{"inputs":[{"internalType":"bytes4","name":"interfaceId","type":"bytes4"}],"name":"supportsInterface","outputs":[{"internalType":"bool","name":"","type":"bool"}],"stateMutability":"view","type":"function"},{"inputs":[],"name":"swapBuffer","outputs":[{"internalType":"address","name":"srcToken","type":"address"},{"internalType":"address","name":"dstToken","type":"address"},{"internalType":"uint256","name":"inAmount","type":"uint256"}],"stateMutability":"view","type":"function"},{"inputs":[],"name":"withdrawLink","outputs":[],"stateMutability":"nonpayable","type":"function"},{"stateMutability":"payable","type":"receive"}],"devdoc":{"events":{"RoleAdminChanged(bytes32,bytes32,bytes32)":{"details":"Emitted when `newAdminRole` is set as ``role``'s admin role, replacing `previousAdminRole` `DEFAULT_ADMIN_ROLE` is the starting admin for all roles, despite {RoleAdminChanged} not being emitted signaling this. _Available since v3.1._"},"RoleGranted(bytes32,address,address)":{"details":"Emitted when `account` is granted `role`. `sender` is the account that originated the contract call, an admin role bearer except when using {AccessControl-_setupRole}."},"RoleRevoked(bytes32,address,address)":{"details":"Emitted when `account` is revoked `role`. `sender` is the account that originated the contract call:   - if using `revokeRole`, it is the admin role bearer   - if using `renounceRole`, it is the role bearer (i.e. `account`)"}},"kind":"dev","methods":{"getRoleAdmin(bytes32)":{"details":"Returns the admin role that controls `role`. See {grantRole} and {revokeRole}. To change a role's admin, use {_setRoleAdmin}."},"grantRole(bytes32,address)":{"details":"Grants `role` to `account`. If `account` had not been already granted `role`, emits a {RoleGranted} event. Requirements: - the caller must have ``role``'s admin role. May emit a {RoleGranted} event."},"hasRole(bytes32,address)":{"details":"Returns `true` if `account` has been granted `role`."},"renounceRole(bytes32,address)":{"details":"Revokes `role` from the calling account. Roles are often managed via {grantRole} and {revokeRole}: this function's purpose is to provide a mechanism for accounts to lose their privileges if they are compromised (such as when a trusted device is misplaced). If the calling account had been revoked `role`, emits a {RoleRevoked} event. Requirements: - the caller must be `account`. May emit a {RoleRevoked} event."},"revokeRole(bytes32,address)":{"details":"Revokes `role` from `account`. If `account` had been granted `role`, emits a {RoleRevoked} event. Requirements: - the caller must have ``role``'s admin role. May emit a {RoleRevoked} event."},"supportsInterface(bytes4)":{"details":"See {IERC165-supportsInterface}."}},"version":1},"evm":{"bytecode":{"linkReferences":{},"object":"60a060405260016005553480156200001657600080fd5b5060405162003b6f38038062003b6f8339810160408190526200003991620005f4565b6200005460008051602062003b2f83398151915286620001ad565b620000807f93627969d6ba3f2118f574a00f8d1c7fed4282f3728a455e8b3c867b1a1a212b86620001ad565b6200009b60008051602062003b4f83398151915286620001ad565b600380546001600160a01b0319166001600160a01b038516179055620000c18262000236565b620000e9600060405180604001604052808b815260200160008152506200028060201b60201c565b620000f660008a620002d8565b6200011e6001604051806040016040528089815260200160008152506200028060201b60201c565b6200012b600188620002d8565b6001600160a01b03841660805260005b81518160ff1610156200019d576200018860008051602062003b4f833981519152838360ff16815181106200017457620001746200073e565b6020026020010151620001ad60201b60201c565b8062000194816200076a565b9150506200013b565b50505050505050505050620008e3565b620001b9828262000347565b62000232576000828152602081815260408083206001600160a01b03851684529091529020805460ff19166001179055620001f13390565b6001600160a01b0316816001600160a01b0316837f2f8788117e7eff1d82e926ec794901d17c78024a50270940304540a733656f0d60405160405180910390a45b5050565b60008051602062003b2f833981519152620002518162000372565b600780546001600160a01b0384166001600160a01b031991821681179092556004805490911690911790555050565b60008051602062003b2f8339815191526200029b8162000372565b8160106000856001811115620002b557620002b56200078c565b815260208082019290925260400160002082518155910151600190910155505050565b60008051602062003b2f833981519152620002f38162000372565b606462000309670de0b6b3a764000084620007a2565b620003159190620007bc565b601060008560018111156200032e576200032e6200078c565b8152602081019190915260400160002060010155505050565b6000828152602081815260408083206001600160a01b038516845290915290205460ff165b92915050565b6200037e813362000381565b50565b6200038d828262000347565b62000232576200039d81620003ee565b620003aa83602062000401565b604051602001620003bd92919062000805565b60408051601f198184030181529082905262461bcd60e51b8252620003e5916004016200087e565b60405180910390fd5b60606200036c6001600160a01b03831660145b6060600062000412836002620007a2565b6200041f906002620008b3565b6001600160401b03811115620004395762000439620005de565b6040519080825280601f01601f19166020018201604052801562000464576020820181803683370190505b509050600360fc1b816000815181106200048257620004826200073e565b60200101906001600160f81b031916908160001a905350600f60fb1b81600181518110620004b457620004b46200073e565b60200101906001600160f81b031916908160001a9053506000620004da846002620007a2565b620004e7906001620008b3565b90505b600181111562000569576f181899199a1a9b1b9c1cb0b131b232b360811b85600f16601081106200051f576200051f6200073e565b1a60f81b8282815181106200053857620005386200073e565b60200101906001600160f81b031916908160001a90535060049490941c936200056181620008c9565b9050620004ea565b508315620005ba5760405162461bcd60e51b815260206004820181905260248201527f537472696e67733a20686578206c656e67746820696e73756666696369656e746044820152606401620003e5565b9392505050565b80516001600160a01b0381168114620005d957600080fd5b919050565b634e487b7160e01b600052604160045260246000fd5b60008060008060008060008060006101208a8c0312156200061457600080fd5b8951985060208a0151975060408a0151965060608a015195506200063b60808b01620005c1565b94506200064b60a08b01620005c1565b93506200065b60c08b01620005c1565b92506200066b60e08b01620005c1565b6101008b01519092506001600160401b03808211156200068a57600080fd5b818c0191508c601f8301126200069f57600080fd5b815181811115620006b457620006b4620005de565b8060051b604051601f19603f83011681018181108582111715620006dc57620006dc620005de565b6040529182526020808301935084820101918f831115620006fc57600080fd5b6020850194505b8285101562000729576200071785620005c1565b84526020948501949093019262000703565b80955050505050509295985092959850929598565b634e487b7160e01b600052603260045260246000fd5b634e487b7160e01b600052601160045260246000fd5b600060ff821660ff810362000783576200078362000754565b60010192915050565b634e487b7160e01b600052602160045260246000fd5b80820281158282048414176200036c576200036c62000754565b600082620007da57634e487b7160e01b600052601260045260246000fd5b500490565b60005b83811015620007fc578181015183820152602001620007e2565b50506000910152565b7f416363657373436f6e74726f6c3a206163636f756e74200000000000000000008152600083516200083f816017850160208801620007df565b7001034b99036b4b9b9b4b733903937b6329607d1b601791840191820152835162000872816028840160208801620007df565b01602801949350505050565b60208152600082518060208401526200089f816040850160208701620007df565b601f01601f19169190910160400192915050565b808201808211156200036c576200036c62000754565b600081620008db57620008db62000754565b506000190190565b6080516132146200091b600039600081816106a801528181611295015281816113350152818161146b015261152c01526132146000f3fe6080604052600436106101a35760003560e01c806301a76f59146101af57806301ffc9a7146101d157806302458ad8146102065780631a5b420714610226578063248a9ca3146102465780632f2ff15d1461027457806336568abe146102945780634ab5c503146102b45780634c69c00f146102d45780634e0c6133146102f45780634e22e31e1461031657806350c284b314610336578063627c34ad1461035657806366b8455b146103765780636ccf5b011461038b57806381777a3d146103b85780638dc654a21461043257806391d148541461044757806394555d1a14610467578063a217fddf14610487578063a378a3241461049c578063a89ae4ba146104be578063aaeafd56146104de578063ab3c322d14610506578063b18b78dd14610525578063b6761cb81461053a578063be555a801461055a578063c0d2e37f1461057a578063d547741f14610594578063d9ff478f146105b4578063dc39b19a146105ee578063e05d6bf214610603578063e75d763f14610625578063eaad47b21461066e578063f09922ff14610683578063fcdfd9461461069657600080fd5b366101aa57005b600080fd5b3480156101bb57600080fd5b506101cf6101ca3660046126c9565b6106ca565b005b3480156101dd57600080fd5b506101f16101ec3660046126fd565b61074b565b60405190151581526020015b60405180910390f35b34801561021257600080fd5b506101cf610221366004612727565b610782565b34801561023257600080fd5b506101cf610241366004612789565b610851565b34801561025257600080fd5b506102666102613660046127c5565b610a1c565b6040519081526020016101fd565b34801561028057600080fd5b506101cf61028f3660046127de565b610a31565b3480156102a057600080fd5b506101cf6102af3660046127de565b610a52565b3480156102c057600080fd5b506101cf6102cf366004612819565b610ad0565b3480156102e057600080fd5b506101cf6102ef366004612843565b610b35565b34801561030057600080fd5b506102666000805160206131bf83398151915281565b34801561032257600080fd5b506101cf61033136600461285e565b610b7b565b34801561034257600080fd5b506101cf6103513660046127c5565b610c16565b34801561036257600080fd5b506101cf610371366004612843565b610c66565b34801561038257600080fd5b50610266610ca6565b34801561039757600080fd5b506103ab6103a63660046127c5565b610cb7565b6040516101fd9190612880565b3480156103c457600080fd5b50604080516060810182526008546001600160a01b039081168252600954166020820152600a5491810191909152600b546103fd919082565b6040805183516001600160a01b03908116825260208086015190911690820152928101519083015260608201526080016101fd565b34801561043e57600080fd5b506101cf610cc4565b34801561045357600080fd5b506101f16104623660046127de565b610dec565b34801561047357600080fd5b506101cf610482366004612843565b610e15565b34801561049357600080fd5b50610266600081565b3480156104a857600080fd5b5061026660008051602061317f83398151915281565b3480156104ca57600080fd5b506007546103ab906001600160a01b031681565b3480156104ea57600080fd5b506103ab73eeeeeeeeeeeeeeeeeeeeeeeeeeeeeeeeeeeeeeee81565b34801561051257600080fd5b50600f546101f190610100900460ff1681565b34801561053157600080fd5b506103ab610e55565b34801561054657600080fd5b50610266610555366004612894565b610e80565b34801561056657600080fd5b506101cf6105753660046128af565b610eea565b34801561058657600080fd5b50600f546101f19060ff1681565b3480156105a057600080fd5b506101cf6105af3660046127de565b610f3c565b3480156105c057600080fd5b50600c54600d54600e546105df926001600160a01b0390811692169083565b6040516101fd93929190612921565b3480156105fa57600080fd5b506101cf610f58565b34801561060f57600080fd5b506102666000805160206130f683398151915281565b34801561063157600080fd5b506106596106403660046127c5565b6010602052600090815260409020805460019091015482565b604080519283526020830191909152016101fd565b34801561067a57600080fd5b506101cf610fae565b6101cf610691366004612945565b610ffe565b3480156106a257600080fd5b506103ab7f000000000000000000000000000000000000000000000000000000000000000081565b60008051602061317f8339815191526106e28161120b565b600f805460ff1916905560116106f88382612a14565b50600c54600e54610713916001600160a01b03169033611218565b61071b6113ac565b60015b6040517ffc252eeb655ad1aa88173ff876f64057c196504c7d3819259257f95c7f05b71090600090a25050565b60006001600160e01b03198216637965db0b60e01b148061077c57506301ffc9a760e01b6001600160e01b03198316145b92915050565b60008281526006602052604090205482906001600160a01b031633146107c35760405162461bcd60e51b81526004016107ba90612ae9565b60405180910390fd5b60008181526006602052604080822080546001600160a01b031916905551829160008051602061319f83398151915291a260116108008382612a14565b50600f805460ff1916600117905560405161081c908390612b71565b604051908190038120907fa6b78fc047486d5add927aa53ba0d4fc8eb23a5811e0052aebeba21469f51df890600090a2505050565b6000805160206130f68339815191526108698161120b565b600f805461ff0019169055600080805260106020527f6e0956cda88cad152e89927e53611735b61a5c762d1428573c6931b0a5efcb01546108b190632711718f60e11b6115a5565b9050610901604051806040016040528060068152602001651b595d1a1bd960d21b8152506040518060400160405280600381526020016211d15560ea1b815250836115c99092919063ffffffff16565b610965604051806040016040528060038152602001621d5c9b60ea1b815250610929876115e7565b610932876115e7565b61093b876115fd565b60405160200161094d93929190612b8d565b60408051601f198184030181529190528391906115c9565b6109be6040518060400160405280600781526020016618dbdb9d1858dd60ca1b8152506040518060400160405280600d81526020016c6c6f6375732d66696e616e636560981b815250836115c99092919063ffffffff16565b600880546001600160a01b038088166001600160a01b0319928316179092556009805492871692909116919091179055600a839055610a148160106000805b81526020019081526020016000206001015461168f565b505050505050565b60009081526020819052604090206001015490565b610a3a82610a1c565b610a438161120b565b610a4d83836116b0565b505050565b6001600160a01b0381163314610ac25760405162461bcd60e51b815260206004820152602f60248201527f416363657373436f6e74726f6c3a2063616e206f6e6c792072656e6f756e636560448201526e103937b632b9903337b91039b2b63360891b60648201526084016107ba565b610acc8282611734565b5050565b60008051602061317f833981519152610ae88161120b565b6064610afc670de0b6b3a764000084612c39565b610b069190612c66565b60106000856001811115610b1c57610b1c612ad3565b8152602081019190915260400160002060010155505050565b60008051602061317f833981519152610b4d8161120b565b50600780546001600160a01b03929092166001600160a01b0319928316811790915560048054909216179055565b60008281526006602052604090205482906001600160a01b03163314610bb35760405162461bcd60e51b81526004016107ba90612ae9565b60008181526006602052604080822080546001600160a01b031916905551829160008051602061319f83398151915291a2600b829055600f805461ff001916610100179055604051829060008051602061311683398151915290600090a2505050565b60008051602061317f833981519152610c2e8161120b565b600f805461ff0019169055600b829055604051829060008051602061311683398151915290600090a2610c5f611799565b600061071e565b60008051602061317f833981519152610c7e8161120b565b610c8960128361188f565b610acc576040516306e971bb60e31b815260040160405180910390fd5b6000610cb260126118a4565b905090565b600061077c6012836118ae565b60008051602061317f833981519152610cdc8161120b565b6000610cf06003546001600160a01b031690565b90506001600160a01b03811663a9059cbb336040516370a0823160e01b81526001600160a01b038516906370a0823190610d2e903090600401612880565b602060405180830381865afa158015610d4b573d6000803e3d6000fd5b505050506040513d601f19601f82011682018060405250810190610d6f9190612c7a565b6040518363ffffffff1660e01b8152600401610d8c929190612c93565b6020604051808303816000875af1158015610dab573d6000803e3d6000fd5b505050506040513d601f19601f82011682018060405250810190610dcf9190612cac565b610acc576040516313ff771f60e21b815260040160405180910390fd5b6000918252602082815260408084206001600160a01b0393909316845291905290205460ff1690565b60008051602061317f833981519152610e2d8161120b565b610e386012836118ba565b610acc576040516305c46f6760e31b815260040160405180910390fd5b600060008051602061317f833981519152610e6f8161120b565b50506007546001600160a01b031690565b600060008051602061317f833981519152610e9a8161120b565b670de0b6b3a764000060106000856001811115610eb957610eb9612ad3565b8152602001908152602001600020600101546064610ed79190612c39565b610ee19190612c66565b91505b50919050565b60008051602061317f833981519152610f028161120b565b8160106000856001811115610f1957610f19612ad3565b815260208082019290925260400160002082518155910151600190910155505050565b610f4582610a1c565b610f4e8161120b565b610a4d8383611734565b6000805160206130f6833981519152610f708161120b565b600f54610100900460ff16610f9857604051636cb45f1560e11b815260040160405180910390fd5b610fa0611799565b50600f805461ff0019169055565b6000805160206131bf833981519152610fc68161120b565b600f5460ff16610fe957604051637d683d5360e01b815260040160405180910390fd5b610ff16113ac565b50600f805460ff19169055565b6000805160206131bf8339815191526110168161120b565b60328260ff16111561103b576040516336ee37fb60e21b815260040160405180910390fd5b600f805460ff1916905533611051868583611218565b6001600090815260106020527f8c6065603763fec3f5742441d3833f3f43b982453612d76adb39a885e3006b5f5461108f906248b15b60e31b6115a5565b90506110df604051806040016040528060068152602001651b595d1a1bd960d21b8152506040518060400160405280600381526020016211d15560ea1b815250836115c99092919063ffffffff16565b61114c604051806040016040528060038152602001621d5c9b60ea1b815250611107896115e7565b611110896115e7565b611119896115fd565b611122306115e7565b61112e8a60ff166115fd565b611137896115e7565b60405160200161094d96959493929190612cce565b6111a56040518060400160405280600781526020016618dbdb9d1858dd60ca1b8152506040518060400160405280600d81526020016c6c6f6375732d66696e616e636560981b815250836115c99092919063ffffffff16565b604080516060810182526001600160a01b03808a168083529089166020830181905291909201879052600c80546001600160a01b03199081169093179055600d8054909216179055600e859055611201816010600060016109fd565b5050505050505050565b61121581336118cf565b50565b8273eeeeeeeeeeeeeeeeeeeeeeeeeeeeeeeeeeeeeeed196001600160a01b038216016112635782341461125e57604051630dd86f5360e11b815260040160405180910390fd5b6113a6565b6112786001600160a01b038216833086611928565b604051636eb1769f60e11b81523060048201526001600160a01b037f00000000000000000000000000000000000000000000000000000000000000008116602483015284919083169063dd62ed3e90604401602060405180830381865afa1580156112e7573d6000803e3d6000fd5b505050506040513d601f19601f8201168201806040525081019061130b9190612c7a565b10156113a65760405163095ea7b360e01b81526001600160a01b0382169063095ea7b390611361907f00000000000000000000000000000000000000000000000000000000000000009060001990600401612c93565b6020604051808303816000875af1158015611380573d6000803e3d6000fd5b505050506040513d601f19601f820116820180604052508101906113a49190612cac565b505b50505050565b600c546001600160a01b031673eeeeeeeeeeeeeeeeeeeeeeeeeeeeeeeeeeeeeeed190161149c57611496601180546113e39061299a565b80601f016020809104026020016040519081016040528092919081815260200182805461140f9061299a565b801561145c5780601f106114315761010080835404028352916020019161145c565b820191906000526020600020905b81548152906001019060200180831161143f57829003601f168201915b5050600e546001600160a01b037f000000000000000000000000000000000000000000000000000000000000000016949350915050611980565b50611564565b611562601180546114ac9061299a565b80601f01602080910402602001604051908101604052809291908181526020018280546114d89061299a565b80156115255780601f106114fa57610100808354040283529160200191611525565b820191906000526020600020905b81548152906001019060200180831161150857829003601f168201915b50505050507f00000000000000000000000000000000000000000000000000000000000000006001600160a01b03166119a690919063ffffffff16565b505b600c6040516115739190612e1b565b604051908190038120907f098d3af501ac55740f44cc3d45b38cd162e715bd76ae2ec1704db9bcf19df52890600090a2565b6115ad6125d8565b6115b56125d8565b6115c1818530866119ea565b949350505050565b60808301516115d89083611a27565b6080830151610a4d9082611a27565b606061077c6001600160a01b0383166014611a3e565b6060600061160a83611bd9565b60010190506000816001600160401b0381111561162957611629612627565b6040519080825280601f01601f191660200182016040528015611653576020820181803683370190505b5090508181016020015b600019016f181899199a1a9b1b9c1cb0b131b232b360811b600a86061a8153600a850494508461165d57509392505050565b6004546000906116a9906001600160a01b03168484611caf565b9392505050565b6116ba8282610dec565b610acc576000828152602081815260408083206001600160a01b03851684529091529020805460ff191660011790556116f03390565b6001600160a01b0316816001600160a01b0316837f2f8788117e7eff1d82e926ec794901d17c78024a50270940304540a733656f0d60405160405180910390a45050565b61173e8282610dec565b15610acc576000828152602081815260408083206001600160a01b0385168085529252808320805460ff1916905551339285917ff6391f5c32d9c69d2a47ea670b442974b53935d1edc7fd64eb21e047a839171b9190a45050565b60006117a560126118a4565b905060005b8181101561184c576117bd6012826118ae565b600854600954600b54600a5460405163b91dc4bb60e01b81526001600160a01b03948516600482015292841660248401526044830191909152606482015291169063b91dc4bb90608401600060405180830381600087803b15801561182157600080fd5b505af1158015611835573d6000803e3d6000fd5b50505050808061184490612e2d565b9150506117aa565b50600860405161185c9190612e46565b604051908190038120907fa8e5b3954602a050e4fd58bfdb4679c92cdf00addead6c0178ced776602ed45290600090a250565b60006116a9836001600160a01b038416611d40565b600061077c825490565b60006116a98383611e33565b60006116a9836001600160a01b038416611e5d565b6118d98282610dec565b610acc576118e6816115e7565b6118f1836020611a3e565b604051602001611902929190612e62565b60408051601f198184030181529082905262461bcd60e51b82526107ba91600401612efd565b6113a6846323b872dd60e01b85858560405160240161194993929190612921565b60408051601f198184030181529190526020810180516001600160e01b03166001600160e01b031990931692909217909152611eac565b60606115c184848460405180606001604052806029815260200161313660299139611f81565b60606116a9838360006040518060400160405280601e81526020017f416464726573733a206c6f772d6c6576656c2063616c6c206661696c65640000815250611f81565b6119f26125d8565b611a02856080015161010061205c565b50509183526001600160a01b031660208301526001600160e01b031916604082015290565b611a3482600383516120b4565b610a4d82826121bb565b60606000611a4d836002612c39565b611a58906002612f10565b6001600160401b03811115611a6f57611a6f612627565b6040519080825280601f01601f191660200182016040528015611a99576020820181803683370190505b509050600360fc1b81600081518110611ab457611ab4612f23565b60200101906001600160f81b031916908160001a905350600f60fb1b81600181518110611ae357611ae3612f23565b60200101906001600160f81b031916908160001a9053506000611b07846002612c39565b611b12906001612f10565b90505b6001811115611b8a576f181899199a1a9b1b9c1cb0b131b232b360811b85600f1660108110611b4657611b46612f23565b1a60f81b828281518110611b5c57611b5c612f23565b60200101906001600160f81b031916908160001a90535060049490941c93611b8381612f39565b9050611b15565b5083156116a95760405162461bcd60e51b815260206004820181905260248201527f537472696e67733a20686578206c656e67746820696e73756666696369656e7460448201526064016107ba565b60008072184f03e93ff9f4daa797ed6e38ed64bf6a1f0160401b8310611c185772184f03e93ff9f4daa797ed6e38ed64bf6a1f0160401b830492506040015b6904ee2d6d415b85acef8160201b8310611c42576904ee2d6d415b85acef8160201b830492506020015b662386f26fc100008310611c6057662386f26fc10000830492506010015b6305f5e1008310611c78576305f5e100830492506008015b6127108310611c8c57612710830492506004015b60648310611c9e576064830492506002015b600a831061077c5760010192915050565b600554600090611cc0816001612f10565b60055583516040808601516080870151519151600093633c6d41b960e01b93611cf6938693849392899160029190602401612f50565b60408051601f198184030181529190526020810180516001600160e01b03166001600160e01b0319909316929092179091529050611d36868386846121d5565b9695505050505050565b60008181526001830160205260408120548015611e29576000611d64600183612f98565b8554909150600090611d7890600190612f98565b9050818114611ddd576000866000018281548110611d9857611d98612f23565b9060005260206000200154905080876000018481548110611dbb57611dbb612f23565b6000918252602080832090910192909255918252600188019052604090208390555b8554869080611dee57611dee612fab565b60019003818190600052602060002001600090559055856001016000868152602001908152602001600020600090556001935050505061077c565b600091505061077c565b6000826000018281548110611e4a57611e4a612f23565b9060005260206000200154905092915050565b6000818152600183016020526040812054611ea45750815460018181018455600084815260208082209093018490558454848252828601909352604090209190915561077c565b50600061077c565b6000611f01826040518060400160405280602081526020017f5361666545524332303a206c6f772d6c6576656c2063616c6c206661696c6564815250856001600160a01b031661232e9092919063ffffffff16565b9050805160001480611f22575080806020019051810190611f229190612cac565b610a4d5760405162461bcd60e51b815260206004820152602a60248201527f5361666545524332303a204552433230206f7065726174696f6e20646964206e6044820152691bdd081cdd58d8d9595960b21b60648201526084016107ba565b606082471015611fe25760405162461bcd60e51b815260206004820152602660248201527f416464726573733a20696e73756666696369656e742062616c616e636520666f6044820152651c8818d85b1b60d21b60648201526084016107ba565b600080866001600160a01b03168587604051611ffe9190612b71565b60006040518083038185875af1925050503d806000811461203b576040519150601f19603f3d011682016040523d82523d6000602084013e612040565b606091505b50915091506120518783838761233d565b979650505050505050565b61206461260d565b61206f602083612fc1565b156120975761207f602083612fc1565b61208a906020612f98565b6120949083612f10565b91505b506020828101829052604080518085526000815290920101905290565b6017816001600160401b0316116120d8576113a68360e0600585901b1683176123b6565b60ff816001600160401b031611612114576120fe836018611fe0600586901b16176123b6565b506113a6836001600160401b03831660016123ce565b61ffff816001600160401b0316116121515761213b836019611fe0600586901b16176123b6565b506113a6836001600160401b03831660026123ce565b63ffffffff816001600160401b0316116121905761217a83601a611fe0600586901b16176123b6565b506113a6836001600160401b03831660046123ce565b6121a583601b611fe0600586901b16176123b6565b506113a6836001600160401b03831660086123ce565b6121c361260d565b6116a9838460000151518485516123e7565b6040516001600160601b03193060601b1660208201526034810184905260009060540160408051808303601f1901815282825280516020918201206000818152600690925291812080546001600160a01b0319166001600160a01b038a1617905590925082917fb5e6e01e79f91267dc17b4e6314d5d4d03593d2ceee0fbb452b750bd70ea5af99190a2600354604051630200057560e51b81526001600160a01b0390911690634000aea09061229390889087908790600401612fd5565b6020604051808303816000875af11580156122b2573d6000803e3d6000fd5b505050506040513d601f19601f820116820180604052508101906122d69190612cac565b6115c15760405162461bcd60e51b815260206004820152602360248201527f756e61626c6520746f207472616e73666572416e6443616c6c20746f206f7261604482015262636c6560e81b60648201526084016107ba565b60606115c18484600085611f81565b606083156123ac5782516000036123a5576001600160a01b0385163b6123a55760405162461bcd60e51b815260206004820152601d60248201527f416464726573733a2063616c6c20746f206e6f6e2d636f6e747261637400000060448201526064016107ba565b50816115c1565b6115c183836124c4565b6123be61260d565b6116a983846000015151846124ee565b6123d661260d565b6115c184856000015151858561253c565b6123ef61260d565b82518211156123fd57600080fd5b602085015161240c8386612f10565b111561243f5761243f8561242f8760200151878661242a9190612f10565b6125b0565b61243a906002612c39565b6125c1565b60008086518051876020830101935080888701111561245e5787860182525b505050602084015b6020841061249e578051825261247d602083612f10565b915061248a602082612f10565b9050612497602085612f98565b9350612466565b51815160001960208690036101000a019081169019919091161790525083949350505050565b8151156124d45781518083602001fd5b8060405162461bcd60e51b81526004016107ba9190612efd565b6124f661260d565b8360200151831061251657612516848560200151600261243a9190612c39565b8351805160208583010184815350808503612532576001810182525b5093949350505050565b61254461260d565b60208501516125538584612f10565b1115612567576125678561242f8685612f10565b60006001612577846101006130e9565b6125819190612f98565b90508551838682010185831982511617815250805184870111156125a55783860181525b509495945050505050565b600081831115610ee457508161077c565b81516125cd838361205c565b506113a683826121bb565b6040805160a08101825260008082526020820181905291810182905260608101919091526080810161260861260d565b905290565b604051806040016040528060608152602001600081525090565b634e487b7160e01b600052604160045260246000fd5b600082601f83011261264e57600080fd5b81356001600160401b038082111561266857612668612627565b604051601f8301601f19908116603f0116810190828211818310171561269057612690612627565b816040528381528660208588010111156126a957600080fd5b836020870160208301376000602085830101528094505050505092915050565b6000602082840312156126db57600080fd5b81356001600160401b038111156126f157600080fd5b6115c18482850161263d565b60006020828403121561270f57600080fd5b81356001600160e01b0319811681146116a957600080fd5b6000806040838503121561273a57600080fd5b8235915060208301356001600160401b0381111561275757600080fd5b6127638582860161263d565b9150509250929050565b80356001600160a01b038116811461278457600080fd5b919050565b60008060006060848603121561279e57600080fd5b6127a78461276d565b92506127b56020850161276d565b9150604084013590509250925092565b6000602082840312156127d757600080fd5b5035919050565b600080604083850312156127f157600080fd5b823591506128016020840161276d565b90509250929050565b80356002811061278457600080fd5b6000806040838503121561282c57600080fd5b6128358361280a565b946020939093013593505050565b60006020828403121561285557600080fd5b6116a98261276d565b6000806040838503121561287157600080fd5b50508035926020909101359150565b6001600160a01b0391909116815260200190565b6000602082840312156128a657600080fd5b6116a98261280a565b60008082840360608112156128c357600080fd5b6128cc8461280a565b92506040601f19820112156128e057600080fd5b50604080519081016001600160401b038111828210171561290357612903612627565b60409081526020858101358352940135938101939093525092909150565b6001600160a01b039384168152919092166020820152604081019190915260600190565b6000806000806080858703121561295b57600080fd5b6129648561276d565b93506129726020860161276d565b925060408501359150606085013560ff8116811461298f57600080fd5b939692955090935050565b600181811c908216806129ae57607f821691505b602082108103610ee457634e487b7160e01b600052602260045260246000fd5b601f821115610a4d57600081815260208120601f850160051c810160208610156129f55750805b601f850160051c820191505b81811015610a1457828155600101612a01565b81516001600160401b03811115612a2d57612a2d612627565b612a4181612a3b845461299a565b846129ce565b602080601f831160018114612a765760008415612a5e5750858301515b600019600386901b1c1916600185901b178555610a14565b600085815260208120601f198616915b82811015612aa557888601518255948401946001909101908401612a86565b5085821015612ac35787850151600019600388901b60f8161c191681555b5050505050600190811b01905550565b634e487b7160e01b600052602160045260246000fd5b60208082526028908201527f536f75726365206d75737420626520746865206f7261636c65206f6620746865604082015267081c995c5d595cdd60c21b606082015260800190565b60005b83811015612b4c578181015183820152602001612b34565b50506000910152565b60008151612b67818560208601612b31565b9290920192915050565b60008251612b83818460208701612b31565b9190910192915050565b60008051602061315f83398151915281526b312f71756f74653f7372633d60a01b602082015260008451612bc881602c850160208901612b31565b64266473743d60d81b602c918401918201528451612bed816031840160208901612b31565b6726616d6f756e743d60c01b603192909101918201528351612c16816039840160208801612b31565b0160390195945050505050565b634e487b7160e01b600052601160045260246000fd5b808202811582820484141761077c5761077c612c23565b634e487b7160e01b600052601260045260246000fd5b600082612c7557612c75612c50565b500490565b600060208284031215612c8c57600080fd5b5051919050565b6001600160a01b03929092168252602082015260400190565b600060208284031215612cbe57600080fd5b815180151581146116a957600080fd5b60008051602061315f83398151915281526a312f737761703f7372633d60a81b602082015260008751612d0881602b850160208c01612b31565b64266473743d60d81b602b918401918201528751612d2d816030840160208c01612b31565b6726616d6f756e743d60c01b603092909101918201528651612d56816038840160208b01612b31565b652666726f6d3d60d01b603892909101918201528551612d7d81603e840160208a01612b31565b6926736c6970706167653d60b01b603e9290910191820152612de8612dc7612dc1612dab6048850189612b55565b692672656365697665723d60b01b8152600a0190565b86612b55565b742664697361626c65457374696d6174653d7472756560581b815260150190565b9998505050505050505050565b80546001600160a01b039081168352600182015416602083015260020154604090910152565b612e258183612df5565b606001919050565b600060018201612e3f57612e3f612c23565b5060010190565b612e508183612df5565b60039190910154606082015260800190565b76020b1b1b2b9b9a1b7b73a3937b61d1030b1b1b7bab73a1604d1b815260008351612e94816017850160208801612b31565b7001034b99036b4b9b9b4b733903937b6329607d1b6017918401918201528351612ec5816028840160208801612b31565b01602801949350505050565b60008151808452612ee9816020860160208601612b31565b601f01601f19169290920160200192915050565b6020815260006116a96020830184612ed1565b8082018082111561077c5761077c612c23565b634e487b7160e01b600052603260045260246000fd5b600081612f4857612f48612c23565b506000190190565b60018060a01b038816815286602082015285604082015263ffffffff60e01b851660608201528360808201528260a082015260e060c08201526000612de860e0830184612ed1565b8181038181111561077c5761077c612c23565b634e487b7160e01b600052603160045260246000fd5b600082612fd057612fd0612c50565b500690565b60018060a01b0384168152826020820152606060408201526000612ffc6060830184612ed1565b95945050505050565b600181815b8085111561304057816000190482111561302657613026612c23565b8085161561303357918102915b93841c939080029061300a565b509250929050565b6000826130575750600161077c565b816130645750600061077c565b816001811461307a5760028114613084576130a0565b600191505061077c565b60ff84111561309557613095612c23565b50506001821b61077c565b5060208310610133831016604e8410600b84101617156130c3575081810a61077c565b6130cd8383613005565b80600019048211156130e1576130e1612c23565b029392505050565b60006116a9838361304856fe93627969d6ba3f2118f574a00f8d1c7fed4282f3728a455e8b3c867b1a1a212bb6904e5f1b44229e5609b681fbc2512409afa3e5a9072d0314256c012668dbe4416464726573733a206c6f772d6c6576656c2063616c6c20776974682076616c7565206661696c656468747470733a2f2f6170692e31696e63682e6465762f737761702f76352e322f17a8e30262c1f919c33056d877a3c22b95c2f5e4dac44683c1c2323cd79fbdb07cc135e0cebb02c3480ae5d74d377283180a2601f8f644edf7987b009316c63afab00a984754950c7187fb98f39da0ae224abbbee017c1699445ad0e19474a4da2646970667358221220b34484021465e59716ef5c5cf2538559d058cb937ec550deea9d3c5029d897c064736f6c6343000813003317a8e30262c1f919c33056d877a3c22b95c2f5e4dac44683c1c2323cd79fbdb0fab00a984754950c7187fb98f39da0ae224abbbee017c1699445ad0e19474a4d","opcodes":"PUSH1 0xA0 PUSH1 0x40 MSTORE PUSH1 0x1 PUSH1 0x5 SSTORE CALLVALUE DUP1 ISZERO PUSH3 0x16 JUMPI PUSH1 0x0 DUP1 REVERT JUMPDEST POP PUSH1 0x40 MLOAD PUSH3 0x3B6F CODESIZE SUB DUP1 PUSH3 0x3B6F DUP4 CODECOPY DUP2 ADD PUSH1 0x40 DUP2 SWAP1 MSTORE PUSH3 0x39 SWAP2 PUSH3 0x5F4 JUMP JUMPDEST PUSH3 0x54 PUSH1 0x0 DUP1 MLOAD PUSH1 0x20 PUSH3 0x3B2F DUP4 CODECOPY DUP2 MLOAD SWAP2 MSTORE DUP7 PUSH3 0x1AD JUMP JUMPDEST PUSH3 0x80 PUSH32 0x93627969D6BA3F2118F574A00F8D1C7FED4282F3728A455E8B3C867B1A1A212B DUP7 PUSH3 0x1AD JUMP JUMPDEST PUSH3 0x9B PUSH1 0x0 DUP1 MLOAD PUSH1 0x20 PUSH3 0x3B4F DUP4 CODECOPY DUP2 MLOAD SWAP2 MSTORE DUP7 PUSH3 0x1AD JUMP JUMPDEST PUSH1 0x3 DUP1 SLOAD PUSH1 0x1 PUSH1 0x1 PUSH1 0xA0 SHL SUB NOT AND PUSH1 0x1 PUSH1 0x1 PUSH1 0xA0 SHL SUB DUP6 AND OR SWAP1 SSTORE PUSH3 0xC1 DUP3 PUSH3 0x236 JUMP JUMPDEST PUSH3 0xE9 PUSH1 0x0 PUSH1 0x40 MLOAD DUP1 PUSH1 0x40 ADD PUSH1 0x40 MSTORE DUP1 DUP12 DUP2 MSTORE PUSH1 0x20 ADD PUSH1 0x0 DUP2 MSTORE POP PUSH3 0x280 PUSH1 0x20 SHL PUSH1 0x20 SHR JUMP JUMPDEST PUSH3 0xF6 PUSH1 0x0 DUP11 PUSH3 0x2D8 JUMP JUMPDEST PUSH3 0x11E PUSH1 0x1 PUSH1 0x40 MLOAD DUP1 PUSH1 0x40 ADD PUSH1 0x40 MSTORE DUP1 DUP10 DUP2 MSTORE PUSH1 0x20 ADD PUSH1 0x0 DUP2 MSTORE POP PUSH3 0x280 PUSH1 0x20 SHL PUSH1 0x20 SHR JUMP JUMPDEST PUSH3 0x12B PUSH1 0x1 DUP9 PUSH3 0x2D8 JUMP JUMPDEST PUSH1 0x1 PUSH1 0x1 PUSH1 0xA0 SHL SUB DUP5 AND PUSH1 0x80 MSTORE PUSH1 0x0 JUMPDEST DUP2 MLOAD DUP2 PUSH1 0xFF AND LT ISZERO PUSH3 0x19D JUMPI PUSH3 0x188 PUSH1 0x0 DUP1 MLOAD PUSH1 0x20 PUSH3 0x3B4F DUP4 CODECOPY DUP2 MLOAD SWAP2 MSTORE DUP4 DUP4 PUSH1 0xFF AND DUP2 MLOAD DUP2 LT PUSH3 0x174 JUMPI PUSH3 0x174 PUSH3 0x73E JUMP JUMPDEST PUSH1 0x20 MUL PUSH1 0x20 ADD ADD MLOAD PUSH3 0x1AD PUSH1 0x20 SHL PUSH1 0x20 SHR JUMP JUMPDEST DUP1 PUSH3 0x194 DUP2 PUSH3 0x76A JUMP JUMPDEST SWAP2 POP POP PUSH3 0x13B JUMP JUMPDEST POP POP POP POP POP POP POP POP POP POP PUSH3 0x8E3 JUMP JUMPDEST PUSH3 0x1B9 DUP3 DUP3 PUSH3 0x347 JUMP JUMPDEST PUSH3 0x232 JUMPI PUSH1 0x0 DUP3 DUP2 MSTORE PUSH1 0x20 DUP2 DUP2 MSTORE PUSH1 0x40 DUP1 DUP4 KECCAK256 PUSH1 0x1 PUSH1 0x1 PUSH1 0xA0 SHL SUB DUP6 AND DUP5 MSTORE SWAP1 SWAP2 MSTORE SWAP1 KECCAK256 DUP1 SLOAD PUSH1 0xFF NOT AND PUSH1 0x1 OR SWAP1 SSTORE PUSH3 0x1F1 CALLER SWAP1 JUMP JUMPDEST PUSH1 0x1 PUSH1 0x1 PUSH1 0xA0 SHL SUB AND DUP2 PUSH1 0x1 PUSH1 0x1 PUSH1 0xA0 SHL SUB AND DUP4 PUSH32 0x2F8788117E7EFF1D82E926EC794901D17C78024A50270940304540A733656F0D PUSH1 0x40 MLOAD PUSH1 0x40 MLOAD DUP1 SWAP2 SUB SWAP1 LOG4 JUMPDEST POP POP JUMP JUMPDEST PUSH1 0x0 DUP1 MLOAD PUSH1 0x20 PUSH3 0x3B2F DUP4 CODECOPY DUP2 MLOAD SWAP2 MSTORE PUSH3 0x251 DUP2 PUSH3 0x372 JUMP JUMPDEST PUSH1 0x7 DUP1 SLOAD PUSH1 0x1 PUSH1 0x1 PUSH1 0xA0 SHL SUB DUP5 AND PUSH1 0x1 PUSH1 0x1 PUSH1 0xA0 SHL SUB NOT SWAP2 DUP3 AND DUP2 OR SWAP1 SWAP3 SSTORE PUSH1 0x4 DUP1 SLOAD SWAP1 SWAP2 AND SWAP1 SWAP2 OR SWAP1 SSTORE POP POP JUMP JUMPDEST PUSH1 0x0 DUP1 MLOAD PUSH1 0x20 PUSH3 0x3B2F DUP4 CODECOPY DUP2 MLOAD SWAP2 MSTORE PUSH3 0x29B DUP2 PUSH3 0x372 JUMP JUMPDEST DUP2 PUSH1 0x10 PUSH1 0x0 DUP6 PUSH1 0x1 DUP2 GT ISZERO PUSH3 0x2B5 JUMPI PUSH3 0x2B5 PUSH3 0x78C JUMP JUMPDEST DUP2 MSTORE PUSH1 0x20 DUP1 DUP3 ADD SWAP3 SWAP1 SWAP3 MSTORE PUSH1 0x40 ADD PUSH1 0x0 KECCAK256 DUP3 MLOAD DUP2 SSTORE SWAP2 ADD MLOAD PUSH1 0x1 SWAP1 SWAP2 ADD SSTORE POP POP POP JUMP JUMPDEST PUSH1 0x0 DUP1 MLOAD PUSH1 0x20 PUSH3 0x3B2F DUP4 CODECOPY DUP2 MLOAD SWAP2 MSTORE PUSH3 0x2F3 DUP2 PUSH3 0x372 JUMP JUMPDEST PUSH1 0x64 PUSH3 0x309 PUSH8 0xDE0B6B3A7640000 DUP5 PUSH3 0x7A2 JUMP JUMPDEST PUSH3 0x315 SWAP2 SWAP1 PUSH3 0x7BC JUMP JUMPDEST PUSH1 0x10 PUSH1 0x0 DUP6 PUSH1 0x1 DUP2 GT ISZERO PUSH3 0x32E JUMPI PUSH3 0x32E PUSH3 0x78C JUMP JUMPDEST DUP2 MSTORE PUSH1 0x20 DUP2 ADD SWAP2 SWAP1 SWAP2 MSTORE PUSH1 0x40 ADD PUSH1 0x0 KECCAK256 PUSH1 0x1 ADD SSTORE POP POP POP JUMP JUMPDEST PUSH1 0x0 DUP3 DUP2 MSTORE PUSH1 0x20 DUP2 DUP2 MSTORE PUSH1 0x40 DUP1 DUP4 KECCAK256 PUSH1 0x1 PUSH1 0x1 PUSH1 0xA0 SHL SUB DUP6 AND DUP5 MSTORE SWAP1 SWAP2 MSTORE SWAP1 KECCAK256 SLOAD PUSH1 0xFF AND JUMPDEST SWAP3 SWAP2 POP POP JUMP JUMPDEST PUSH3 0x37E DUP2 CALLER PUSH3 0x381 JUMP JUMPDEST POP JUMP JUMPDEST PUSH3 0x38D DUP3 DUP3 PUSH3 0x347 JUMP JUMPDEST PUSH3 0x232 JUMPI PUSH3 0x39D DUP2 PUSH3 0x3EE JUMP JUMPDEST PUSH3 0x3AA DUP4 PUSH1 0x20 PUSH3 0x401 JUMP JUMPDEST PUSH1 0x40 MLOAD PUSH1 0x20 ADD PUSH3 0x3BD SWAP3 SWAP2 SWAP1 PUSH3 0x805 JUMP JUMPDEST PUSH1 0x40 DUP1 MLOAD PUSH1 0x1F NOT DUP2 DUP5 SUB ADD DUP2 MSTORE SWAP1 DUP3 SWAP1 MSTORE PUSH3 0x461BCD PUSH1 0xE5 SHL DUP3 MSTORE PUSH3 0x3E5 SWAP2 PUSH1 0x4 ADD PUSH3 0x87E JUMP JUMPDEST PUSH1 0x40 MLOAD DUP1 SWAP2 SUB SWAP1 REVERT JUMPDEST PUSH1 0x60 PUSH3 0x36C PUSH1 0x1 PUSH1 0x1 PUSH1 0xA0 SHL SUB DUP4 AND PUSH1 0x14 JUMPDEST PUSH1 0x60 PUSH1 0x0 PUSH3 0x412 DUP4 PUSH1 0x2 PUSH3 0x7A2 JUMP JUMPDEST PUSH3 0x41F SWAP1 PUSH1 0x2 PUSH3 0x8B3 JUMP JUMPDEST PUSH1 0x1 PUSH1 0x1 PUSH1 0x40 SHL SUB DUP2 GT ISZERO PUSH3 0x439 JUMPI PUSH3 0x439 PUSH3 0x5DE JUMP JUMPDEST PUSH1 0x40 MLOAD SWAP1 DUP1 DUP3 MSTORE DUP1 PUSH1 0x1F ADD PUSH1 0x1F NOT AND PUSH1 0x20 ADD DUP3 ADD PUSH1 0x40 MSTORE DUP1 ISZERO PUSH3 0x464 JUMPI PUSH1 0x20 DUP3 ADD DUP2 DUP1 CALLDATASIZE DUP4 CALLDATACOPY ADD SWAP1 POP JUMPDEST POP SWAP1 POP PUSH1 0x3 PUSH1 0xFC SHL DUP2 PUSH1 0x0 DUP2 MLOAD DUP2 LT PUSH3 0x482 JUMPI PUSH3 0x482 PUSH3 0x73E JUMP JUMPDEST PUSH1 0x20 ADD ADD SWAP1 PUSH1 0x1 PUSH1 0x1 PUSH1 0xF8 SHL SUB NOT AND SWAP1 DUP2 PUSH1 0x0 BYTE SWAP1 MSTORE8 POP PUSH1 0xF PUSH1 0xFB SHL DUP2 PUSH1 0x1 DUP2 MLOAD DUP2 LT PUSH3 0x4B4 JUMPI PUSH3 0x4B4 PUSH3 0x73E JUMP JUMPDEST PUSH1 0x20 ADD ADD SWAP1 PUSH1 0x1 PUSH1 0x1 PUSH1 0xF8 SHL SUB NOT AND SWAP1 DUP2 PUSH1 0x0 BYTE SWAP1 MSTORE8 POP PUSH1 0x0 PUSH3 0x4DA DUP5 PUSH1 0x2 PUSH3 0x7A2 JUMP JUMPDEST PUSH3 0x4E7 SWAP1 PUSH1 0x1 PUSH3 0x8B3 JUMP JUMPDEST SWAP1 POP JUMPDEST PUSH1 0x1 DUP2 GT ISZERO PUSH3 0x569 JUMPI PUSH16 0x181899199A1A9B1B9C1CB0B131B232B3 PUSH1 0x81 SHL DUP6 PUSH1 0xF AND PUSH1 0x10 DUP2 LT PUSH3 0x51F JUMPI PUSH3 0x51F PUSH3 0x73E JUMP JUMPDEST BYTE PUSH1 0xF8 SHL DUP3 DUP3 DUP2 MLOAD DUP2 LT PUSH3 0x538 JUMPI PUSH3 0x538 PUSH3 0x73E JUMP JUMPDEST PUSH1 0x20 ADD ADD SWAP1 PUSH1 0x1 PUSH1 0x1 PUSH1 0xF8 SHL SUB NOT AND SWAP1 DUP2 PUSH1 0x0 BYTE SWAP1 MSTORE8 POP PUSH1 0x4 SWAP5 SWAP1 SWAP5 SHR SWAP4 PUSH3 0x561 DUP2 PUSH3 0x8C9 JUMP JUMPDEST SWAP1 POP PUSH3 0x4EA JUMP JUMPDEST POP DUP4 ISZERO PUSH3 0x5BA JUMPI PUSH1 0x40 MLOAD PUSH3 0x461BCD PUSH1 0xE5 SHL DUP2 MSTORE PUSH1 0x20 PUSH1 0x4 DUP3 ADD DUP2 SWAP1 MSTORE PUSH1 0x24 DUP3 ADD MSTORE PUSH32 0x537472696E67733A20686578206C656E67746820696E73756666696369656E74 PUSH1 0x44 DUP3 ADD MSTORE PUSH1 0x64 ADD PUSH3 0x3E5 JUMP JUMPDEST SWAP4 SWAP3 POP POP POP JUMP JUMPDEST DUP1 MLOAD PUSH1 0x1 PUSH1 0x1 PUSH1 0xA0 SHL SUB DUP2 AND DUP2 EQ PUSH3 0x5D9 JUMPI PUSH1 0x0 DUP1 REVERT JUMPDEST SWAP2 SWAP1 POP JUMP JUMPDEST PUSH4 0x4E487B71 PUSH1 0xE0 SHL PUSH1 0x0 MSTORE PUSH1 0x41 PUSH1 0x4 MSTORE PUSH1 0x24 PUSH1 0x0 REVERT JUMPDEST PUSH1 0x0 DUP1 PUSH1 0x0 DUP1 PUSH1 0x0 DUP1 PUSH1 0x0 DUP1 PUSH1 0x0 PUSH2 0x120 DUP11 DUP13 SUB SLT ISZERO PUSH3 0x614 JUMPI PUSH1 0x0 DUP1 REVERT JUMPDEST DUP10 MLOAD SWAP9 POP PUSH1 0x20 DUP11 ADD MLOAD SWAP8 POP PUSH1 0x40 DUP11 ADD MLOAD SWAP7 POP PUSH1 0x60 DUP11 ADD MLOAD SWAP6 POP PUSH3 0x63B PUSH1 0x80 DUP12 ADD PUSH3 0x5C1 JUMP JUMPDEST SWAP5 POP PUSH3 0x64B PUSH1 0xA0 DUP12 ADD PUSH3 0x5C1 JUMP JUMPDEST SWAP4 POP PUSH3 0x65B PUSH1 0xC0 DUP12 ADD PUSH3 0x5C1 JUMP JUMPDEST SWAP3 POP PUSH3 0x66B PUSH1 0xE0 DUP12 ADD PUSH3 0x5C1 JUMP JUMPDEST PUSH2 0x100 DUP12 ADD MLOAD SWAP1 SWAP3 POP PUSH1 0x1 PUSH1 0x1 PUSH1 0x40 SHL SUB DUP1 DUP3 GT ISZERO PUSH3 0x68A JUMPI PUSH1 0x0 DUP1 REVERT JUMPDEST DUP2 DUP13 ADD SWAP2 POP DUP13 PUSH1 0x1F DUP4 ADD SLT PUSH3 0x69F JUMPI PUSH1 0x0 DUP1 REVERT JUMPDEST DUP2 MLOAD DUP2 DUP2 GT ISZERO PUSH3 0x6B4 JUMPI PUSH3 0x6B4 PUSH3 0x5DE JUMP JUMPDEST DUP1 PUSH1 0x5 SHL PUSH1 0x40 MLOAD PUSH1 0x1F NOT PUSH1 0x3F DUP4 ADD AND DUP2 ADD DUP2 DUP2 LT DUP6 DUP3 GT OR ISZERO PUSH3 0x6DC JUMPI PUSH3 0x6DC PUSH3 0x5DE JUMP JUMPDEST PUSH1 0x40 MSTORE SWAP2 DUP3 MSTORE PUSH1 0x20 DUP1 DUP4 ADD SWAP4 POP DUP5 DUP3 ADD ADD SWAP2 DUP16 DUP4 GT ISZERO PUSH3 0x6FC JUMPI PUSH1 0x0 DUP1 REVERT JUMPDEST PUSH1 0x20 DUP6 ADD SWAP5 POP JUMPDEST DUP3 DUP6 LT ISZERO PUSH3 0x729 JUMPI PUSH3 0x717 DUP6 PUSH3 0x5C1 JUMP JUMPDEST DUP5 MSTORE PUSH1 0x20 SWAP5 DUP6 ADD SWAP5 SWAP1 SWAP4 ADD SWAP3 PUSH3 0x703 JUMP JUMPDEST DUP1 SWAP6 POP POP POP POP POP POP SWAP3 SWAP6 SWAP9 POP SWAP3 SWAP6 SWAP9 POP SWAP3 SWAP6 SWAP9 JUMP JUMPDEST PUSH4 0x4E487B71 PUSH1 0xE0 SHL PUSH1 0x0 MSTORE PUSH1 0x32 PUSH1 0x4 MSTORE PUSH1 0x24 PUSH1 0x0 REVERT JUMPDEST PUSH4 0x4E487B71 PUSH1 0xE0 SHL PUSH1 0x0 MSTORE PUSH1 0x11 PUSH1 0x4 MSTORE PUSH1 0x24 PUSH1 0x0 REVERT JUMPDEST PUSH1 0x0 PUSH1 0xFF DUP3 AND PUSH1 0xFF DUP2 SUB PUSH3 0x783 JUMPI PUSH3 0x783 PUSH3 0x754 JUMP JUMPDEST PUSH1 0x1 ADD SWAP3 SWAP2 POP POP JUMP JUMPDEST PUSH4 0x4E487B71 PUSH1 0xE0 SHL PUSH1 0x0 MSTORE PUSH1 0x21 PUSH1 0x4 MSTORE PUSH1 0x24 PUSH1 0x0 REVERT JUMPDEST DUP1 DUP3 MUL DUP2 ISZERO DUP3 DUP3 DIV DUP5 EQ OR PUSH3 0x36C JUMPI PUSH3 0x36C PUSH3 0x754 JUMP JUMPDEST PUSH1 0x0 DUP3 PUSH3 0x7DA JUMPI PUSH4 0x4E487B71 PUSH1 0xE0 SHL PUSH1 0x0 MSTORE PUSH1 0x12 PUSH1 0x4 MSTORE PUSH1 0x24 PUSH1 0x0 REVERT JUMPDEST POP DIV SWAP1 JUMP JUMPDEST PUSH1 0x0 JUMPDEST DUP4 DUP2 LT ISZERO PUSH3 0x7FC JUMPI DUP2 DUP2 ADD MLOAD DUP4 DUP3 ADD MSTORE PUSH1 0x20 ADD PUSH3 0x7E2 JUMP JUMPDEST POP POP PUSH1 0x0 SWAP2 ADD MSTORE JUMP JUMPDEST PUSH32 0x416363657373436F6E74726F6C3A206163636F756E7420000000000000000000 DUP2 MSTORE PUSH1 0x0 DUP4 MLOAD PUSH3 0x83F DUP2 PUSH1 0x17 DUP6 ADD PUSH1 0x20 DUP9 ADD PUSH3 0x7DF JUMP JUMPDEST PUSH17 0x1034B99036B4B9B9B4B733903937B6329 PUSH1 0x7D SHL PUSH1 0x17 SWAP2 DUP5 ADD SWAP2 DUP3 ADD MSTORE DUP4 MLOAD PUSH3 0x872 DUP2 PUSH1 0x28 DUP5 ADD PUSH1 0x20 DUP9 ADD PUSH3 0x7DF JUMP JUMPDEST ADD PUSH1 0x28 ADD SWAP5 SWAP4 POP POP POP POP JUMP JUMPDEST PUSH1 0x20 DUP2 MSTORE PUSH1 0x0 DUP3 MLOAD DUP1 PUSH1 0x20 DUP5 ADD MSTORE PUSH3 0x89F DUP2 PUSH1 0x40 DUP6 ADD PUSH1 0x20 DUP8 ADD PUSH3 0x7DF JUMP JUMPDEST PUSH1 0x1F ADD PUSH1 0x1F NOT AND SWAP2 SWAP1 SWAP2 ADD PUSH1 0x40 ADD SWAP3 SWAP2 POP POP JUMP JUMPDEST DUP1 DUP3 ADD DUP1 DUP3 GT ISZERO PUSH3 0x36C JUMPI PUSH3 0x36C PUSH3 0x754 JUMP JUMPDEST PUSH1 0x0 DUP2 PUSH3 0x8DB JUMPI PUSH3 0x8DB PUSH3 0x754 JUMP JUMPDEST POP PUSH1 0x0 NOT ADD SWAP1 JUMP JUMPDEST PUSH1 0x80 MLOAD PUSH2 0x3214 PUSH3 0x91B PUSH1 0x0 CODECOPY PUSH1 0x0 DUP2 DUP2 PUSH2 0x6A8 ADD MSTORE DUP2 DUP2 PUSH2 0x1295 ADD MSTORE DUP2 DUP2 PUSH2 0x1335 ADD MSTORE DUP2 DUP2 PUSH2 0x146B ADD MSTORE PUSH2 0x152C ADD MSTORE PUSH2 0x3214 PUSH1 0x0 RETURN INVALID PUSH1 0x80 PUSH1 0x40 MSTORE PUSH1 0x4 CALLDATASIZE LT PUSH2 0x1A3 JUMPI PUSH1 0x0 CALLDATALOAD PUSH1 0xE0 SHR DUP1 PUSH4 0x1A76F59 EQ PUSH2 0x1AF JUMPI DUP1 PUSH4 0x1FFC9A7 EQ PUSH2 0x1D1 JUMPI DUP1 PUSH4 0x2458AD8 EQ PUSH2 0x206 JUMPI DUP1 PUSH4 0x1A5B4207 EQ PUSH2 0x226 JUMPI DUP1 PUSH4 0x248A9CA3 EQ PUSH2 0x246 JUMPI DUP1 PUSH4 0x2F2FF15D EQ PUSH2 0x274 JUMPI DUP1 PUSH4 0x36568ABE EQ PUSH2 0x294 JUMPI DUP1 PUSH4 0x4AB5C503 EQ PUSH2 0x2B4 JUMPI DUP1 PUSH4 0x4C69C00F EQ PUSH2 0x2D4 JUMPI DUP1 PUSH4 0x4E0C6133 EQ PUSH2 0x2F4 JUMPI DUP1 PUSH4 0x4E22E31E EQ PUSH2 0x316 JUMPI DUP1 PUSH4 0x50C284B3 EQ PUSH2 0x336 JUMPI DUP1 PUSH4 0x627C34AD EQ PUSH2 0x356 JUMPI DUP1 PUSH4 0x66B8455B EQ PUSH2 0x376 JUMPI DUP1 PUSH4 0x6CCF5B01 EQ PUSH2 0x38B JUMPI DUP1 PUSH4 0x81777A3D EQ PUSH2 0x3B8 JUMPI DUP1 PUSH4 0x8DC654A2 EQ PUSH2 0x432 JUMPI DUP1 PUSH4 0x91D14854 EQ PUSH2 0x447 JUMPI DUP1 PUSH4 0x94555D1A EQ PUSH2 0x467 JUMPI DUP1 PUSH4 0xA217FDDF EQ PUSH2 0x487 JUMPI DUP1 PUSH4 0xA378A324 EQ PUSH2 0x49C JUMPI DUP1 PUSH4 0xA89AE4BA EQ PUSH2 0x4BE JUMPI DUP1 PUSH4 0xAAEAFD56 EQ PUSH2 0x4DE JUMPI DUP1 PUSH4 0xAB3C322D EQ PUSH2 0x506 JUMPI DUP1 PUSH4 0xB18B78DD EQ PUSH2 0x525 JUMPI DUP1 PUSH4 0xB6761CB8 EQ PUSH2 0x53A JUMPI DUP1 PUSH4 0xBE555A80 EQ PUSH2 0x55A JUMPI DUP1 PUSH4 0xC0D2E37F EQ PUSH2 0x57A JUMPI DUP1 PUSH4 0xD547741F EQ PUSH2 0x594 JUMPI DUP1 PUSH4 0xD9FF478F EQ PUSH2 0x5B4 JUMPI DUP1 PUSH4 0xDC39B19A EQ PUSH2 0x5EE JUMPI DUP1 PUSH4 0xE05D6BF2 EQ PUSH2 0x603 JUMPI DUP1 PUSH4 0xE75D763F EQ PUSH2 0x625 JUMPI DUP1 PUSH4 0xEAAD47B2 EQ PUSH2 0x66E JUMPI DUP1 PUSH4 0xF09922FF EQ PUSH2 0x683 JUMPI DUP1 PUSH4 0xFCDFD946 EQ PUSH2 0x696 JUMPI PUSH1 0x0 DUP1 REVERT JUMPDEST CALLDATASIZE PUSH2 0x1AA JUMPI STOP JUMPDEST PUSH1 0x0 DUP1 REVERT JUMPDEST CALLVALUE DUP1 ISZERO PUSH2 0x1BB JUMPI PUSH1 0x0 DUP1 REVERT JUMPDEST POP PUSH2 0x1CF PUSH2 0x1CA CALLDATASIZE PUSH1 0x4 PUSH2 0x26C9 JUMP JUMPDEST PUSH2 0x6CA JUMP JUMPDEST STOP JUMPDEST CALLVALUE DUP1 ISZERO PUSH2 0x1DD JUMPI PUSH1 0x0 DUP1 REVERT JUMPDEST POP PUSH2 0x1F1 PUSH2 0x1EC CALLDATASIZE PUSH1 0x4 PUSH2 0x26FD JUMP JUMPDEST PUSH2 0x74B JUMP JUMPDEST PUSH1 0x40 MLOAD SWAP1 ISZERO ISZERO DUP2 MSTORE PUSH1 0x20 ADD JUMPDEST PUSH1 0x40 MLOAD DUP1 SWAP2 SUB SWAP1 RETURN JUMPDEST CALLVALUE DUP1 ISZERO PUSH2 0x212 JUMPI PUSH1 0x0 DUP1 REVERT JUMPDEST POP PUSH2 0x1CF PUSH2 0x221 CALLDATASIZE PUSH1 0x4 PUSH2 0x2727 JUMP JUMPDEST PUSH2 0x782 JUMP JUMPDEST CALLVALUE DUP1 ISZERO PUSH2 0x232 JUMPI PUSH1 0x0 DUP1 REVERT JUMPDEST POP PUSH2 0x1CF PUSH2 0x241 CALLDATASIZE PUSH1 0x4 PUSH2 0x2789 JUMP JUMPDEST PUSH2 0x851 JUMP JUMPDEST CALLVALUE DUP1 ISZERO PUSH2 0x252 JUMPI PUSH1 0x0 DUP1 REVERT JUMPDEST POP PUSH2 0x266 PUSH2 0x261 CALLDATASIZE PUSH1 0x4 PUSH2 0x27C5 JUMP JUMPDEST PUSH2 0xA1C JUMP JUMPDEST PUSH1 0x40 MLOAD SWAP1 DUP2 MSTORE PUSH1 0x20 ADD PUSH2 0x1FD JUMP JUMPDEST CALLVALUE DUP1 ISZERO PUSH2 0x280 JUMPI PUSH1 0x0 DUP1 REVERT JUMPDEST POP PUSH2 0x1CF PUSH2 0x28F CALLDATASIZE PUSH1 0x4 PUSH2 0x27DE JUMP JUMPDEST PUSH2 0xA31 JUMP JUMPDEST CALLVALUE DUP1 ISZERO PUSH2 0x2A0 JUMPI PUSH1 0x0 DUP1 REVERT JUMPDEST POP PUSH2 0x1CF PUSH2 0x2AF CALLDATASIZE PUSH1 0x4 PUSH2 0x27DE JUMP JUMPDEST PUSH2 0xA52 JUMP JUMPDEST CALLVALUE DUP1 ISZERO PUSH2 0x2C0 JUMPI PUSH1 0x0 DUP1 REVERT JUMPDEST POP PUSH2 0x1CF PUSH2 0x2CF CALLDATASIZE PUSH1 0x4 PUSH2 0x2819 JUMP JUMPDEST PUSH2 0xAD0 JUMP JUMPDEST CALLVALUE DUP1 ISZERO PUSH2 0x2E0 JUMPI PUSH1 0x0 DUP1 REVERT JUMPDEST POP PUSH2 0x1CF PUSH2 0x2EF CALLDATASIZE PUSH1 0x4 PUSH2 0x2843 JUMP JUMPDEST PUSH2 0xB35 JUMP JUMPDEST CALLVALUE DUP1 ISZERO PUSH2 0x300 JUMPI PUSH1 0x0 DUP1 REVERT JUMPDEST POP PUSH2 0x266 PUSH1 0x0 DUP1 MLOAD PUSH1 0x20 PUSH2 0x31BF DUP4 CODECOPY DUP2 MLOAD SWAP2 MSTORE DUP2 JUMP JUMPDEST CALLVALUE DUP1 ISZERO PUSH2 0x322 JUMPI PUSH1 0x0 DUP1 REVERT JUMPDEST POP PUSH2 0x1CF PUSH2 0x331 CALLDATASIZE PUSH1 0x4 PUSH2 0x285E JUMP JUMPDEST PUSH2 0xB7B JUMP JUMPDEST CALLVALUE DUP1 ISZERO PUSH2 0x342 JUMPI PUSH1 0x0 DUP1 REVERT JUMPDEST POP PUSH2 0x1CF PUSH2 0x351 CALLDATASIZE PUSH1 0x4 PUSH2 0x27C5 JUMP JUMPDEST PUSH2 0xC16 JUMP JUMPDEST CALLVALUE DUP1 ISZERO PUSH2 0x362 JUMPI PUSH1 0x0 DUP1 REVERT JUMPDEST POP PUSH2 0x1CF PUSH2 0x371 CALLDATASIZE PUSH1 0x4 PUSH2 0x2843 JUMP JUMPDEST PUSH2 0xC66 JUMP JUMPDEST CALLVALUE DUP1 ISZERO PUSH2 0x382 JUMPI PUSH1 0x0 DUP1 REVERT JUMPDEST POP PUSH2 0x266 PUSH2 0xCA6 JUMP JUMPDEST CALLVALUE DUP1 ISZERO PUSH2 0x397 JUMPI PUSH1 0x0 DUP1 REVERT JUMPDEST POP PUSH2 0x3AB PUSH2 0x3A6 CALLDATASIZE PUSH1 0x4 PUSH2 0x27C5 JUMP JUMPDEST PUSH2 0xCB7 JUMP JUMPDEST PUSH1 0x40 MLOAD PUSH2 0x1FD SWAP2 SWAP1 PUSH2 0x2880 JUMP JUMPDEST CALLVALUE DUP1 ISZERO PUSH2 0x3C4 JUMPI PUSH1 0x0 DUP1 REVERT JUMPDEST POP PUSH1 0x40 DUP1 MLOAD PUSH1 0x60 DUP2 ADD DUP3 MSTORE PUSH1 0x8 SLOAD PUSH1 0x1 PUSH1 0x1 PUSH1 0xA0 SHL SUB SWAP1 DUP2 AND DUP3 MSTORE PUSH1 0x9 SLOAD AND PUSH1 0x20 DUP3 ADD MSTORE PUSH1 0xA SLOAD SWAP2 DUP2 ADD SWAP2 SWAP1 SWAP2 MSTORE PUSH1 0xB SLOAD PUSH2 0x3FD SWAP2 SWAP1 DUP3 JUMP JUMPDEST PUSH1 0x40 DUP1 MLOAD DUP4 MLOAD PUSH1 0x1 PUSH1 0x1 PUSH1 0xA0 SHL SUB SWAP1 DUP2 AND DUP3 MSTORE PUSH1 0x20 DUP1 DUP7 ADD MLOAD SWAP1 SWAP2 AND SWAP1 DUP3 ADD MSTORE SWAP3 DUP2 ADD MLOAD SWAP1 DUP4 ADD MSTORE PUSH1 0x60 DUP3 ADD MSTORE PUSH1 0x80 ADD PUSH2 0x1FD JUMP JUMPDEST CALLVALUE DUP1 ISZERO PUSH2 0x43E JUMPI PUSH1 0x0 DUP1 REVERT JUMPDEST POP PUSH2 0x1CF PUSH2 0xCC4 JUMP JUMPDEST CALLVALUE DUP1 ISZERO PUSH2 0x453 JUMPI PUSH1 0x0 DUP1 REVERT JUMPDEST POP PUSH2 0x1F1 PUSH2 0x462 CALLDATASIZE PUSH1 0x4 PUSH2 0x27DE JUMP JUMPDEST PUSH2 0xDEC JUMP JUMPDEST CALLVALUE DUP1 ISZERO PUSH2 0x473 JUMPI PUSH1 0x0 DUP1 REVERT JUMPDEST POP PUSH2 0x1CF PUSH2 0x482 CALLDATASIZE PUSH1 0x4 PUSH2 0x2843 JUMP JUMPDEST PUSH2 0xE15 JUMP JUMPDEST CALLVALUE DUP1 ISZERO PUSH2 0x493 JUMPI PUSH1 0x0 DUP1 REVERT JUMPDEST POP PUSH2 0x266 PUSH1 0x0 DUP2 JUMP JUMPDEST CALLVALUE DUP1 ISZERO PUSH2 0x4A8 JUMPI PUSH1 0x0 DUP1 REVERT JUMPDEST POP PUSH2 0x266 PUSH1 0x0 DUP1 MLOAD PUSH1 0x20 PUSH2 0x317F DUP4 CODECOPY DUP2 MLOAD SWAP2 MSTORE DUP2 JUMP JUMPDEST CALLVALUE DUP1 ISZERO PUSH2 0x4CA JUMPI PUSH1 0x0 DUP1 REVERT JUMPDEST POP PUSH1 0x7 SLOAD PUSH2 0x3AB SWAP1 PUSH1 0x1 PUSH1 0x1 PUSH1 0xA0 SHL SUB AND DUP2 JUMP JUMPDEST CALLVALUE DUP1 ISZERO PUSH2 0x4EA JUMPI PUSH1 0x0 DUP1 REVERT JUMPDEST POP PUSH2 0x3AB PUSH20 0xEEEEEEEEEEEEEEEEEEEEEEEEEEEEEEEEEEEEEEEE DUP2 JUMP JUMPDEST CALLVALUE DUP1 ISZERO PUSH2 0x512 JUMPI PUSH1 0x0 DUP1 REVERT JUMPDEST POP PUSH1 0xF SLOAD PUSH2 0x1F1 SWAP1 PUSH2 0x100 SWAP1 DIV PUSH1 0xFF AND DUP2 JUMP JUMPDEST CALLVALUE DUP1 ISZERO PUSH2 0x531 JUMPI PUSH1 0x0 DUP1 REVERT JUMPDEST POP PUSH2 0x3AB PUSH2 0xE55 JUMP JUMPDEST CALLVALUE DUP1 ISZERO PUSH2 0x546 JUMPI PUSH1 0x0 DUP1 REVERT JUMPDEST POP PUSH2 0x266 PUSH2 0x555 CALLDATASIZE PUSH1 0x4 PUSH2 0x2894 JUMP JUMPDEST PUSH2 0xE80 JUMP JUMPDEST CALLVALUE DUP1 ISZERO PUSH2 0x566 JUMPI PUSH1 0x0 DUP1 REVERT JUMPDEST POP PUSH2 0x1CF PUSH2 0x575 CALLDATASIZE PUSH1 0x4 PUSH2 0x28AF JUMP JUMPDEST PUSH2 0xEEA JUMP JUMPDEST CALLVALUE DUP1 ISZERO PUSH2 0x586 JUMPI PUSH1 0x0 DUP1 REVERT JUMPDEST POP PUSH1 0xF SLOAD PUSH2 0x1F1 SWAP1 PUSH1 0xFF AND DUP2 JUMP JUMPDEST CALLVALUE DUP1 ISZERO PUSH2 0x5A0 JUMPI PUSH1 0x0 DUP1 REVERT JUMPDEST POP PUSH2 0x1CF PUSH2 0x5AF CALLDATASIZE PUSH1 0x4 PUSH2 0x27DE JUMP JUMPDEST PUSH2 0xF3C JUMP JUMPDEST CALLVALUE DUP1 ISZERO PUSH2 0x5C0 JUMPI PUSH1 0x0 DUP1 REVERT JUMPDEST POP PUSH1 0xC SLOAD PUSH1 0xD SLOAD PUSH1 0xE SLOAD PUSH2 0x5DF SWAP3 PUSH1 0x1 PUSH1 0x1 PUSH1 0xA0 SHL SUB SWAP1 DUP2 AND SWAP3 AND SWAP1 DUP4 JUMP JUMPDEST PUSH1 0x40 MLOAD PUSH2 0x1FD SWAP4 SWAP3 SWAP2 SWAP1 PUSH2 0x2921 JUMP JUMPDEST CALLVALUE DUP1 ISZERO PUSH2 0x5FA JUMPI PUSH1 0x0 DUP1 REVERT JUMPDEST POP PUSH2 0x1CF PUSH2 0xF58 JUMP JUMPDEST CALLVALUE DUP1 ISZERO PUSH2 0x60F JUMPI PUSH1 0x0 DUP1 REVERT JUMPDEST POP PUSH2 0x266 PUSH1 0x0 DUP1 MLOAD PUSH1 0x20 PUSH2 0x30F6 DUP4 CODECOPY DUP2 MLOAD SWAP2 MSTORE DUP2 JUMP JUMPDEST CALLVALUE DUP1 ISZERO PUSH2 0x631 JUMPI PUSH1 0x0 DUP1 REVERT JUMPDEST POP PUSH2 0x659 PUSH2 0x640 CALLDATASIZE PUSH1 0x4 PUSH2 0x27C5 JUMP JUMPDEST PUSH1 0x10 PUSH1 0x20 MSTORE PUSH1 0x0 SWAP1 DUP2 MSTORE PUSH1 0x40 SWAP1 KECCAK256 DUP1 SLOAD PUSH1 0x1 SWAP1 SWAP2 ADD SLOAD DUP3 JUMP JUMPDEST PUSH1 0x40 DUP1 MLOAD SWAP3 DUP4 MSTORE PUSH1 0x20 DUP4 ADD SWAP2 SWAP1 SWAP2 MSTORE ADD PUSH2 0x1FD JUMP JUMPDEST CALLVALUE DUP1 ISZERO PUSH2 0x67A JUMPI PUSH1 0x0 DUP1 REVERT JUMPDEST POP PUSH2 0x1CF PUSH2 0xFAE JUMP JUMPDEST PUSH2 0x1CF PUSH2 0x691 CALLDATASIZE PUSH1 0x4 PUSH2 0x2945 JUMP JUMPDEST PUSH2 0xFFE JUMP JUMPDEST CALLVALUE DUP1 ISZERO PUSH2 0x6A2 JUMPI PUSH1 0x0 DUP1 REVERT JUMPDEST POP PUSH2 0x3AB PUSH32 0x0 DUP2 JUMP JUMPDEST PUSH1 0x0 DUP1 MLOAD PUSH1 0x20 PUSH2 0x317F DUP4 CODECOPY DUP2 MLOAD SWAP2 MSTORE PUSH2 0x6E2 DUP2 PUSH2 0x120B JUMP JUMPDEST PUSH1 0xF DUP1 SLOAD PUSH1 0xFF NOT AND SWAP1 SSTORE PUSH1 0x11 PUSH2 0x6F8 DUP4 DUP3 PUSH2 0x2A14 JUMP JUMPDEST POP PUSH1 0xC SLOAD PUSH1 0xE SLOAD PUSH2 0x713 SWAP2 PUSH1 0x1 PUSH1 0x1 PUSH1 0xA0 SHL SUB AND SWAP1 CALLER PUSH2 0x1218 JUMP JUMPDEST PUSH2 0x71B PUSH2 0x13AC JUMP JUMPDEST PUSH1 0x1 JUMPDEST PUSH1 0x40 MLOAD PUSH32 0xFC252EEB655AD1AA88173FF876F64057C196504C7D3819259257F95C7F05B710 SWAP1 PUSH1 0x0 SWAP1 LOG2 POP POP JUMP JUMPDEST PUSH1 0x0 PUSH1 0x1 PUSH1 0x1 PUSH1 0xE0 SHL SUB NOT DUP3 AND PUSH4 0x7965DB0B PUSH1 0xE0 SHL EQ DUP1 PUSH2 0x77C JUMPI POP PUSH4 0x1FFC9A7 PUSH1 0xE0 SHL PUSH1 0x1 PUSH1 0x1 PUSH1 0xE0 SHL SUB NOT DUP4 AND EQ JUMPDEST SWAP3 SWAP2 POP POP JUMP JUMPDEST PUSH1 0x0 DUP3 DUP2 MSTORE PUSH1 0x6 PUSH1 0x20 MSTORE PUSH1 0x40 SWAP1 KECCAK256 SLOAD DUP3 SWAP1 PUSH1 0x1 PUSH1 0x1 PUSH1 0xA0 SHL SUB AND CALLER EQ PUSH2 0x7C3 JUMPI PUSH1 0x40 MLOAD PUSH3 0x461BCD PUSH1 0xE5 SHL DUP2 MSTORE PUSH1 0x4 ADD PUSH2 0x7BA SWAP1 PUSH2 0x2AE9 JUMP JUMPDEST PUSH1 0x40 MLOAD DUP1 SWAP2 SUB SWAP1 REVERT JUMPDEST PUSH1 0x0 DUP2 DUP2 MSTORE PUSH1 0x6 PUSH1 0x20 MSTORE PUSH1 0x40 DUP1 DUP3 KECCAK256 DUP1 SLOAD PUSH1 0x1 PUSH1 0x1 PUSH1 0xA0 SHL SUB NOT AND SWAP1 SSTORE MLOAD DUP3 SWAP2 PUSH1 0x0 DUP1 MLOAD PUSH1 0x20 PUSH2 0x319F DUP4 CODECOPY DUP2 MLOAD SWAP2 MSTORE SWAP2 LOG2 PUSH1 0x11 PUSH2 0x800 DUP4 DUP3 PUSH2 0x2A14 JUMP JUMPDEST POP PUSH1 0xF DUP1 SLOAD PUSH1 0xFF NOT AND PUSH1 0x1 OR SWAP1 SSTORE PUSH1 0x40 MLOAD PUSH2 0x81C SWAP1 DUP4 SWAP1 PUSH2 0x2B71 JUMP JUMPDEST PUSH1 0x40 MLOAD SWAP1 DUP2 SWAP1 SUB DUP2 KECCAK256 SWAP1 PUSH32 0xA6B78FC047486D5ADD927AA53BA0D4FC8EB23A5811E0052AEBEBA21469F51DF8 SWAP1 PUSH1 0x0 SWAP1 LOG2 POP POP POP JUMP JUMPDEST PUSH1 0x0 DUP1 MLOAD PUSH1 0x20 PUSH2 0x30F6 DUP4 CODECOPY DUP2 MLOAD SWAP2 MSTORE PUSH2 0x869 DUP2 PUSH2 0x120B JUMP JUMPDEST PUSH1 0xF DUP1 SLOAD PUSH2 0xFF00 NOT AND SWAP1 SSTORE PUSH1 0x0 DUP1 DUP1 MSTORE PUSH1 0x10 PUSH1 0x20 MSTORE PUSH32 0x6E0956CDA88CAD152E89927E53611735B61A5C762D1428573C6931B0A5EFCB01 SLOAD PUSH2 0x8B1 SWAP1 PUSH4 0x2711718F PUSH1 0xE1 SHL PUSH2 0x15A5 JUMP JUMPDEST SWAP1 POP PUSH2 0x901 PUSH1 0x40 MLOAD DUP1 PUSH1 0x40 ADD PUSH1 0x40 MSTORE DUP1 PUSH1 0x6 DUP2 MSTORE PUSH1 0x20 ADD PUSH6 0x1B595D1A1BD9 PUSH1 0xD2 SHL DUP2 MSTORE POP PUSH1 0x40 MLOAD DUP1 PUSH1 0x40 ADD PUSH1 0x40 MSTORE DUP1 PUSH1 0x3 DUP2 MSTORE PUSH1 0x20 ADD PUSH3 0x11D155 PUSH1 0xEA SHL DUP2 MSTORE POP DUP4 PUSH2 0x15C9 SWAP1 SWAP3 SWAP2 SWAP1 PUSH4 0xFFFFFFFF AND JUMP JUMPDEST PUSH2 0x965 PUSH1 0x40 MLOAD DUP1 PUSH1 0x40 ADD PUSH1 0x40 MSTORE DUP1 PUSH1 0x3 DUP2 MSTORE PUSH1 0x20 ADD PUSH3 0x1D5C9B PUSH1 0xEA SHL DUP2 MSTORE POP PUSH2 0x929 DUP8 PUSH2 0x15E7 JUMP JUMPDEST PUSH2 0x932 DUP8 PUSH2 0x15E7 JUMP JUMPDEST PUSH2 0x93B DUP8 PUSH2 0x15FD JUMP JUMPDEST PUSH1 0x40 MLOAD PUSH1 0x20 ADD PUSH2 0x94D SWAP4 SWAP3 SWAP2 SWAP1 PUSH2 0x2B8D JUMP JUMPDEST PUSH1 0x40 DUP1 MLOAD PUSH1 0x1F NOT DUP2 DUP5 SUB ADD DUP2 MSTORE SWAP2 SWAP1 MSTORE DUP4 SWAP2 SWAP1 PUSH2 0x15C9 JUMP JUMPDEST PUSH2 0x9BE PUSH1 0x40 MLOAD DUP1 PUSH1 0x40 ADD PUSH1 0x40 MSTORE DUP1 PUSH1 0x7 DUP2 MSTORE PUSH1 0x20 ADD PUSH7 0x18DBDB9D1858DD PUSH1 0xCA SHL DUP2 MSTORE POP PUSH1 0x40 MLOAD DUP1 PUSH1 0x40 ADD PUSH1 0x40 MSTORE DUP1 PUSH1 0xD DUP2 MSTORE PUSH1 0x20 ADD PUSH13 0x6C6F6375732D66696E616E6365 PUSH1 0x98 SHL DUP2 MSTORE POP DUP4 PUSH2 0x15C9 SWAP1 SWAP3 SWAP2 SWAP1 PUSH4 0xFFFFFFFF AND JUMP JUMPDEST PUSH1 0x8 DUP1 SLOAD PUSH1 0x1 PUSH1 0x1 PUSH1 0xA0 SHL SUB DUP1 DUP9 AND PUSH1 0x1 PUSH1 0x1 PUSH1 0xA0 SHL SUB NOT SWAP3 DUP4 AND OR SWAP1 SWAP3 SSTORE PUSH1 0x9 DUP1 SLOAD SWAP3 DUP8 AND SWAP3 SWAP1 SWAP2 AND SWAP2 SWAP1 SWAP2 OR SWAP1 SSTORE PUSH1 0xA DUP4 SWAP1 SSTORE PUSH2 0xA14 DUP2 PUSH1 0x10 PUSH1 0x0 DUP1 JUMPDEST DUP2 MSTORE PUSH1 0x20 ADD SWAP1 DUP2 MSTORE PUSH1 0x20 ADD PUSH1 0x0 KECCAK256 PUSH1 0x1 ADD SLOAD PUSH2 0x168F JUMP JUMPDEST POP POP POP POP POP POP JUMP JUMPDEST PUSH1 0x0 SWAP1 DUP2 MSTORE PUSH1 0x20 DUP2 SWAP1 MSTORE PUSH1 0x40 SWAP1 KECCAK256 PUSH1 0x1 ADD SLOAD SWAP1 JUMP JUMPDEST PUSH2 0xA3A DUP3 PUSH2 0xA1C JUMP JUMPDEST PUSH2 0xA43 DUP2 PUSH2 0x120B JUMP JUMPDEST PUSH2 0xA4D DUP4 DUP4 PUSH2 0x16B0 JUMP JUMPDEST POP POP POP JUMP JUMPDEST PUSH1 0x1 PUSH1 0x1 PUSH1 0xA0 SHL SUB DUP2 AND CALLER EQ PUSH2 0xAC2 JUMPI PUSH1 0x40 MLOAD PUSH3 0x461BCD PUSH1 0xE5 SHL DUP2 MSTORE PUSH1 0x20 PUSH1 0x4 DUP3 ADD MSTORE PUSH1 0x2F PUSH1 0x24 DUP3 ADD MSTORE PUSH32 0x416363657373436F6E74726F6C3A2063616E206F6E6C792072656E6F756E6365 PUSH1 0x44 DUP3 ADD MSTORE PUSH15 0x103937B632B9903337B91039B2B633 PUSH1 0x89 SHL PUSH1 0x64 DUP3 ADD MSTORE PUSH1 0x84 ADD PUSH2 0x7BA JUMP JUMPDEST PUSH2 0xACC DUP3 DUP3 PUSH2 0x1734 JUMP JUMPDEST POP POP JUMP JUMPDEST PUSH1 0x0 DUP1 MLOAD PUSH1 0x20 PUSH2 0x317F DUP4 CODECOPY DUP2 MLOAD SWAP2 MSTORE PUSH2 0xAE8 DUP2 PUSH2 0x120B JUMP JUMPDEST PUSH1 0x64 PUSH2 0xAFC PUSH8 0xDE0B6B3A7640000 DUP5 PUSH2 0x2C39 JUMP JUMPDEST PUSH2 0xB06 SWAP2 SWAP1 PUSH2 0x2C66 JUMP JUMPDEST PUSH1 0x10 PUSH1 0x0 DUP6 PUSH1 0x1 DUP2 GT ISZERO PUSH2 0xB1C JUMPI PUSH2 0xB1C PUSH2 0x2AD3 JUMP JUMPDEST DUP2 MSTORE PUSH1 0x20 DUP2 ADD SWAP2 SWAP1 SWAP2 MSTORE PUSH1 0x40 ADD PUSH1 0x0 KECCAK256 PUSH1 0x1 ADD SSTORE POP POP POP JUMP JUMPDEST PUSH1 0x0 DUP1 MLOAD PUSH1 0x20 PUSH2 0x317F DUP4 CODECOPY DUP2 MLOAD SWAP2 MSTORE PUSH2 0xB4D DUP2 PUSH2 0x120B JUMP JUMPDEST POP PUSH1 0x7 DUP1 SLOAD PUSH1 0x1 PUSH1 0x1 PUSH1 0xA0 SHL SUB SWAP3 SWAP1 SWAP3 AND PUSH1 0x1 PUSH1 0x1 PUSH1 0xA0 SHL SUB NOT SWAP3 DUP4 AND DUP2 OR SWAP1 SWAP2 SSTORE PUSH1 0x4 DUP1 SLOAD SWAP1 SWAP3 AND OR SWAP1 SSTORE JUMP JUMPDEST PUSH1 0x0 DUP3 DUP2 MSTORE PUSH1 0x6 PUSH1 0x20 MSTORE PUSH1 0x40 SWAP1 KECCAK256 SLOAD DUP3 SWAP1 PUSH1 0x1 PUSH1 0x1 PUSH1 0xA0 SHL SUB AND CALLER EQ PUSH2 0xBB3 JUMPI PUSH1 0x40 MLOAD PUSH3 0x461BCD PUSH1 0xE5 SHL DUP2 MSTORE PUSH1 0x4 ADD PUSH2 0x7BA SWAP1 PUSH2 0x2AE9 JUMP JUMPDEST PUSH1 0x0 DUP2 DUP2 MSTORE PUSH1 0x6 PUSH1 0x20 MSTORE PUSH1 0x40 DUP1 DUP3 KECCAK256 DUP1 SLOAD PUSH1 0x1 PUSH1 0x1 PUSH1 0xA0 SHL SUB NOT AND SWAP1 SSTORE MLOAD DUP3 SWAP2 PUSH1 0x0 DUP1 MLOAD PUSH1 0x20 PUSH2 0x319F DUP4 CODECOPY DUP2 MLOAD SWAP2 MSTORE SWAP2 LOG2 PUSH1 0xB DUP3 SWAP1 SSTORE PUSH1 0xF DUP1 SLOAD PUSH2 0xFF00 NOT AND PUSH2 0x100 OR SWAP1 SSTORE PUSH1 0x40 MLOAD DUP3 SWAP1 PUSH1 0x0 DUP1 MLOAD PUSH1 0x20 PUSH2 0x3116 DUP4 CODECOPY DUP2 MLOAD SWAP2 MSTORE SWAP1 PUSH1 0x0 SWAP1 LOG2 POP POP POP JUMP JUMPDEST PUSH1 0x0 DUP1 MLOAD PUSH1 0x20 PUSH2 0x317F DUP4 CODECOPY DUP2 MLOAD SWAP2 MSTORE PUSH2 0xC2E DUP2 PUSH2 0x120B JUMP JUMPDEST PUSH1 0xF DUP1 SLOAD PUSH2 0xFF00 NOT AND SWAP1 SSTORE PUSH1 0xB DUP3 SWAP1 SSTORE PUSH1 0x40 MLOAD DUP3 SWAP1 PUSH1 0x0 DUP1 MLOAD PUSH1 0x20 PUSH2 0x3116 DUP4 CODECOPY DUP2 MLOAD SWAP2 MSTORE SWAP1 PUSH1 0x0 SWAP1 LOG2 PUSH2 0xC5F PUSH2 0x1799 JUMP JUMPDEST PUSH1 0x0 PUSH2 0x71E JUMP JUMPDEST PUSH1 0x0 DUP1 MLOAD PUSH1 0x20 PUSH2 0x317F DUP4 CODECOPY DUP2 MLOAD SWAP2 MSTORE PUSH2 0xC7E DUP2 PUSH2 0x120B JUMP JUMPDEST PUSH2 0xC89 PUSH1 0x12 DUP4 PUSH2 0x188F JUMP JUMPDEST PUSH2 0xACC JUMPI PUSH1 0x40 MLOAD PUSH4 0x6E971BB PUSH1 0xE3 SHL DUP2 MSTORE PUSH1 0x4 ADD PUSH1 0x40 MLOAD DUP1 SWAP2 SUB SWAP1 REVERT JUMPDEST PUSH1 0x0 PUSH2 0xCB2 PUSH1 0x12 PUSH2 0x18A4 JUMP JUMPDEST SWAP1 POP SWAP1 JUMP JUMPDEST PUSH1 0x0 PUSH2 0x77C PUSH1 0x12 DUP4 PUSH2 0x18AE JUMP JUMPDEST PUSH1 0x0 DUP1 MLOAD PUSH1 0x20 PUSH2 0x317F DUP4 CODECOPY DUP2 MLOAD SWAP2 MSTORE PUSH2 0xCDC DUP2 PUSH2 0x120B JUMP JUMPDEST PUSH1 0x0 PUSH2 0xCF0 PUSH1 0x3 SLOAD PUSH1 0x1 PUSH1 0x1 PUSH1 0xA0 SHL SUB AND SWAP1 JUMP JUMPDEST SWAP1 POP PUSH1 0x1 PUSH1 0x1 PUSH1 0xA0 SHL SUB DUP2 AND PUSH4 0xA9059CBB CALLER PUSH1 0x40 MLOAD PUSH4 0x70A08231 PUSH1 0xE0 SHL DUP2 MSTORE PUSH1 0x1 PUSH1 0x1 PUSH1 0xA0 SHL SUB DUP6 AND SWAP1 PUSH4 0x70A08231 SWAP1 PUSH2 0xD2E SWAP1 ADDRESS SWAP1 PUSH1 0x4 ADD PUSH2 0x2880 JUMP JUMPDEST PUSH1 0x20 PUSH1 0x40 MLOAD DUP1 DUP4 SUB DUP2 DUP7 GAS STATICCALL ISZERO DUP1 ISZERO PUSH2 0xD4B JUMPI RETURNDATASIZE PUSH1 0x0 DUP1 RETURNDATACOPY RETURNDATASIZE PUSH1 0x0 REVERT JUMPDEST POP POP POP POP PUSH1 0x40 MLOAD RETURNDATASIZE PUSH1 0x1F NOT PUSH1 0x1F DUP3 ADD AND DUP3 ADD DUP1 PUSH1 0x40 MSTORE POP DUP2 ADD SWAP1 PUSH2 0xD6F SWAP2 SWAP1 PUSH2 0x2C7A JUMP JUMPDEST PUSH1 0x40 MLOAD DUP4 PUSH4 0xFFFFFFFF AND PUSH1 0xE0 SHL DUP2 MSTORE PUSH1 0x4 ADD PUSH2 0xD8C SWAP3 SWAP2 SWAP1 PUSH2 0x2C93 JUMP JUMPDEST PUSH1 0x20 PUSH1 0x40 MLOAD DUP1 DUP4 SUB DUP2 PUSH1 0x0 DUP8 GAS CALL ISZERO DUP1 ISZERO PUSH2 0xDAB JUMPI RETURNDATASIZE PUSH1 0x0 DUP1 RETURNDATACOPY RETURNDATASIZE PUSH1 0x0 REVERT JUMPDEST POP POP POP POP PUSH1 0x40 MLOAD RETURNDATASIZE PUSH1 0x1F NOT PUSH1 0x1F DUP3 ADD AND DUP3 ADD DUP1 PUSH1 0x40 MSTORE POP DUP2 ADD SWAP1 PUSH2 0xDCF SWAP2 SWAP1 PUSH2 0x2CAC JUMP JUMPDEST PUSH2 0xACC JUMPI PUSH1 0x40 MLOAD PUSH4 0x13FF771F PUSH1 0xE2 SHL DUP2 MSTORE PUSH1 0x4 ADD PUSH1 0x40 MLOAD DUP1 SWAP2 SUB SWAP1 REVERT JUMPDEST PUSH1 0x0 SWAP2 DUP3 MSTORE PUSH1 0x20 DUP3 DUP2 MSTORE PUSH1 0x40 DUP1 DUP5 KECCAK256 PUSH1 0x1 PUSH1 0x1 PUSH1 0xA0 SHL SUB SWAP4 SWAP1 SWAP4 AND DUP5 MSTORE SWAP2 SWAP1 MSTORE SWAP1 KECCAK256 SLOAD PUSH1 0xFF AND SWAP1 JUMP JUMPDEST PUSH1 0x0 DUP1 MLOAD PUSH1 0x20 PUSH2 0x317F DUP4 CODECOPY DUP2 MLOAD SWAP2 MSTORE PUSH2 0xE2D DUP2 PUSH2 0x120B JUMP JUMPDEST PUSH2 0xE38 PUSH1 0x12 DUP4 PUSH2 0x18BA JUMP JUMPDEST PUSH2 0xACC JUMPI PUSH1 0x40 MLOAD PUSH4 0x5C46F67 PUSH1 0xE3 SHL DUP2 MSTORE PUSH1 0x4 ADD PUSH1 0x40 MLOAD DUP1 SWAP2 SUB SWAP1 REVERT JUMPDEST PUSH1 0x0 PUSH1 0x0 DUP1 MLOAD PUSH1 0x20 PUSH2 0x317F DUP4 CODECOPY DUP2 MLOAD SWAP2 MSTORE PUSH2 0xE6F DUP2 PUSH2 0x120B JUMP JUMPDEST POP POP PUSH1 0x7 SLOAD PUSH1 0x1 PUSH1 0x1 PUSH1 0xA0 SHL SUB AND SWAP1 JUMP JUMPDEST PUSH1 0x0 PUSH1 0x0 DUP1 MLOAD PUSH1 0x20 PUSH2 0x317F DUP4 CODECOPY DUP2 MLOAD SWAP2 MSTORE PUSH2 0xE9A DUP2 PUSH2 0x120B JUMP JUMPDEST PUSH8 0xDE0B6B3A7640000 PUSH1 0x10 PUSH1 0x0 DUP6 PUSH1 0x1 DUP2 GT ISZERO PUSH2 0xEB9 JUMPI PUSH2 0xEB9 PUSH2 0x2AD3 JUMP JUMPDEST DUP2 MSTORE PUSH1 0x20 ADD SWAP1 DUP2 MSTORE PUSH1 0x20 ADD PUSH1 0x0 KECCAK256 PUSH1 0x1 ADD SLOAD PUSH1 0x64 PUSH2 0xED7 SWAP2 SWAP1 PUSH2 0x2C39 JUMP JUMPDEST PUSH2 0xEE1 SWAP2 SWAP1 PUSH2 0x2C66 JUMP JUMPDEST SWAP2 POP JUMPDEST POP SWAP2 SWAP1 POP JUMP JUMPDEST PUSH1 0x0 DUP1 MLOAD PUSH1 0x20 PUSH2 0x317F DUP4 CODECOPY DUP2 MLOAD SWAP2 MSTORE PUSH2 0xF02 DUP2 PUSH2 0x120B JUMP JUMPDEST DUP2 PUSH1 0x10 PUSH1 0x0 DUP6 PUSH1 0x1 DUP2 GT ISZERO PUSH2 0xF19 JUMPI PUSH2 0xF19 PUSH2 0x2AD3 JUMP JUMPDEST DUP2 MSTORE PUSH1 0x20 DUP1 DUP3 ADD SWAP3 SWAP1 SWAP3 MSTORE PUSH1 0x40 ADD PUSH1 0x0 KECCAK256 DUP3 MLOAD DUP2 SSTORE SWAP2 ADD MLOAD PUSH1 0x1 SWAP1 SWAP2 ADD SSTORE POP POP POP JUMP JUMPDEST PUSH2 0xF45 DUP3 PUSH2 0xA1C JUMP JUMPDEST PUSH2 0xF4E DUP2 PUSH2 0x120B JUMP JUMPDEST PUSH2 0xA4D DUP4 DUP4 PUSH2 0x1734 JUMP JUMPDEST PUSH1 0x0 DUP1 MLOAD PUSH1 0x20 PUSH2 0x30F6 DUP4 CODECOPY DUP2 MLOAD SWAP2 MSTORE PUSH2 0xF70 DUP2 PUSH2 0x120B JUMP JUMPDEST PUSH1 0xF SLOAD PUSH2 0x100 SWAP1 DIV PUSH1 0xFF AND PUSH2 0xF98 JUMPI PUSH1 0x40 MLOAD PUSH4 0x6CB45F15 PUSH1 0xE1 SHL DUP2 MSTORE PUSH1 0x4 ADD PUSH1 0x40 MLOAD DUP1 SWAP2 SUB SWAP1 REVERT JUMPDEST PUSH2 0xFA0 PUSH2 0x1799 JUMP JUMPDEST POP PUSH1 0xF DUP1 SLOAD PUSH2 0xFF00 NOT AND SWAP1 SSTORE JUMP JUMPDEST PUSH1 0x0 DUP1 MLOAD PUSH1 0x20 PUSH2 0x31BF DUP4 CODECOPY DUP2 MLOAD SWAP2 MSTORE PUSH2 0xFC6 DUP2 PUSH2 0x120B JUMP JUMPDEST PUSH1 0xF SLOAD PUSH1 0xFF AND PUSH2 0xFE9 JUMPI PUSH1 0x40 MLOAD PUSH4 0x7D683D53 PUSH1 0xE0 SHL DUP2 MSTORE PUSH1 0x4 ADD PUSH1 0x40 MLOAD DUP1 SWAP2 SUB SWAP1 REVERT JUMPDEST PUSH2 0xFF1 PUSH2 0x13AC JUMP JUMPDEST POP PUSH1 0xF DUP1 SLOAD PUSH1 0xFF NOT AND SWAP1 SSTORE JUMP JUMPDEST PUSH1 0x0 DUP1 MLOAD PUSH1 0x20 PUSH2 0x31BF DUP4 CODECOPY DUP2 MLOAD SWAP2 MSTORE PUSH2 0x1016 DUP2 PUSH2 0x120B JUMP JUMPDEST PUSH1 0x32 DUP3 PUSH1 0xFF AND GT ISZERO PUSH2 0x103B JUMPI PUSH1 0x40 MLOAD PUSH4 0x36EE37FB PUSH1 0xE2 SHL DUP2 MSTORE PUSH1 0x4 ADD PUSH1 0x40 MLOAD DUP1 SWAP2 SUB SWAP1 REVERT JUMPDEST PUSH1 0xF DUP1 SLOAD PUSH1 0xFF NOT AND SWAP1 SSTORE CALLER PUSH2 0x1051 DUP7 DUP6 DUP4 PUSH2 0x1218 JUMP JUMPDEST PUSH1 0x1 PUSH1 0x0 SWAP1 DUP2 MSTORE PUSH1 0x10 PUSH1 0x20 MSTORE PUSH32 0x8C6065603763FEC3F5742441D3833F3F43B982453612D76ADB39A885E3006B5F SLOAD PUSH2 0x108F SWAP1 PUSH3 0x48B15B PUSH1 0xE3 SHL PUSH2 0x15A5 JUMP JUMPDEST SWAP1 POP PUSH2 0x10DF PUSH1 0x40 MLOAD DUP1 PUSH1 0x40 ADD PUSH1 0x40 MSTORE DUP1 PUSH1 0x6 DUP2 MSTORE PUSH1 0x20 ADD PUSH6 0x1B595D1A1BD9 PUSH1 0xD2 SHL DUP2 MSTORE POP PUSH1 0x40 MLOAD DUP1 PUSH1 0x40 ADD PUSH1 0x40 MSTORE DUP1 PUSH1 0x3 DUP2 MSTORE PUSH1 0x20 ADD PUSH3 0x11D155 PUSH1 0xEA SHL DUP2 MSTORE POP DUP4 PUSH2 0x15C9 SWAP1 SWAP3 SWAP2 SWAP1 PUSH4 0xFFFFFFFF AND JUMP JUMPDEST PUSH2 0x114C PUSH1 0x40 MLOAD DUP1 PUSH1 0x40 ADD PUSH1 0x40 MSTORE DUP1 PUSH1 0x3 DUP2 MSTORE PUSH1 0x20 ADD PUSH3 0x1D5C9B PUSH1 0xEA SHL DUP2 MSTORE POP PUSH2 0x1107 DUP10 PUSH2 0x15E7 JUMP JUMPDEST PUSH2 0x1110 DUP10 PUSH2 0x15E7 JUMP JUMPDEST PUSH2 0x1119 DUP10 PUSH2 0x15FD JUMP JUMPDEST PUSH2 0x1122 ADDRESS PUSH2 0x15E7 JUMP JUMPDEST PUSH2 0x112E DUP11 PUSH1 0xFF AND PUSH2 0x15FD JUMP JUMPDEST PUSH2 0x1137 DUP10 PUSH2 0x15E7 JUMP JUMPDEST PUSH1 0x40 MLOAD PUSH1 0x20 ADD PUSH2 0x94D SWAP7 SWAP6 SWAP5 SWAP4 SWAP3 SWAP2 SWAP1 PUSH2 0x2CCE JUMP JUMPDEST PUSH2 0x11A5 PUSH1 0x40 MLOAD DUP1 PUSH1 0x40 ADD PUSH1 0x40 MSTORE DUP1 PUSH1 0x7 DUP2 MSTORE PUSH1 0x20 ADD PUSH7 0x18DBDB9D1858DD PUSH1 0xCA SHL DUP2 MSTORE POP PUSH1 0x40 MLOAD DUP1 PUSH1 0x40 ADD PUSH1 0x40 MSTORE DUP1 PUSH1 0xD DUP2 MSTORE PUSH1 0x20 ADD PUSH13 0x6C6F6375732D66696E616E6365 PUSH1 0x98 SHL DUP2 MSTORE POP DUP4 PUSH2 0x15C9 SWAP1 SWAP3 SWAP2 SWAP1 PUSH4 0xFFFFFFFF AND JUMP JUMPDEST PUSH1 0x40 DUP1 MLOAD PUSH1 0x60 DUP2 ADD DUP3 MSTORE PUSH1 0x1 PUSH1 0x1 PUSH1 0xA0 SHL SUB DUP1 DUP11 AND DUP1 DUP4 MSTORE SWAP1 DUP10 AND PUSH1 0x20 DUP4 ADD DUP2 SWAP1 MSTORE SWAP2 SWAP1 SWAP3 ADD DUP8 SWAP1 MSTORE PUSH1 0xC DUP1 SLOAD PUSH1 0x1 PUSH1 0x1 PUSH1 0xA0 SHL SUB NOT SWAP1 DUP2 AND SWAP1 SWAP4 OR SWAP1 SSTORE PUSH1 0xD DUP1 SLOAD SWAP1 SWAP3 AND OR SWAP1 SSTORE PUSH1 0xE DUP6 SWAP1 SSTORE PUSH2 0x1201 DUP2 PUSH1 0x10 PUSH1 0x0 PUSH1 0x1 PUSH2 0x9FD JUMP JUMPDEST POP POP POP POP POP POP POP POP JUMP JUMPDEST PUSH2 0x1215 DUP2 CALLER PUSH2 0x18CF JUMP JUMPDEST POP JUMP JUMPDEST DUP3 PUSH20 0xEEEEEEEEEEEEEEEEEEEEEEEEEEEEEEEEEEEEEEED NOT PUSH1 0x1 PUSH1 0x1 PUSH1 0xA0 SHL SUB DUP3 AND ADD PUSH2 0x1263 JUMPI DUP3 CALLVALUE EQ PUSH2 0x125E JUMPI PUSH1 0x40 MLOAD PUSH4 0xDD86F53 PUSH1 0xE1 SHL DUP2 MSTORE PUSH1 0x4 ADD PUSH1 0x40 MLOAD DUP1 SWAP2 SUB SWAP1 REVERT JUMPDEST PUSH2 0x13A6 JUMP JUMPDEST PUSH2 0x1278 PUSH1 0x1 PUSH1 0x1 PUSH1 0xA0 SHL SUB DUP3 AND DUP4 ADDRESS DUP7 PUSH2 0x1928 JUMP JUMPDEST PUSH1 0x40 MLOAD PUSH4 0x6EB1769F PUSH1 0xE1 SHL DUP2 MSTORE ADDRESS PUSH1 0x4 DUP3 ADD MSTORE PUSH1 0x1 PUSH1 0x1 PUSH1 0xA0 SHL SUB PUSH32 0x0 DUP2 AND PUSH1 0x24 DUP4 ADD MSTORE DUP5 SWAP2 SWAP1 DUP4 AND SWAP1 PUSH4 0xDD62ED3E SWAP1 PUSH1 0x44 ADD PUSH1 0x20 PUSH1 0x40 MLOAD DUP1 DUP4 SUB DUP2 DUP7 GAS STATICCALL ISZERO DUP1 ISZERO PUSH2 0x12E7 JUMPI RETURNDATASIZE PUSH1 0x0 DUP1 RETURNDATACOPY RETURNDATASIZE PUSH1 0x0 REVERT JUMPDEST POP POP POP POP PUSH1 0x40 MLOAD RETURNDATASIZE PUSH1 0x1F NOT PUSH1 0x1F DUP3 ADD AND DUP3 ADD DUP1 PUSH1 0x40 MSTORE POP DUP2 ADD SWAP1 PUSH2 0x130B SWAP2 SWAP1 PUSH2 0x2C7A JUMP JUMPDEST LT ISZERO PUSH2 0x13A6 JUMPI PUSH1 0x40 MLOAD PUSH4 0x95EA7B3 PUSH1 0xE0 SHL DUP2 MSTORE PUSH1 0x1 PUSH1 0x1 PUSH1 0xA0 SHL SUB DUP3 AND SWAP1 PUSH4 0x95EA7B3 SWAP1 PUSH2 0x1361 SWAP1 PUSH32 0x0 SWAP1 PUSH1 0x0 NOT SWAP1 PUSH1 0x4 ADD PUSH2 0x2C93 JUMP JUMPDEST PUSH1 0x20 PUSH1 0x40 MLOAD DUP1 DUP4 SUB DUP2 PUSH1 0x0 DUP8 GAS CALL ISZERO DUP1 ISZERO PUSH2 0x1380 JUMPI RETURNDATASIZE PUSH1 0x0 DUP1 RETURNDATACOPY RETURNDATASIZE PUSH1 0x0 REVERT JUMPDEST POP POP POP POP PUSH1 0x40 MLOAD RETURNDATASIZE PUSH1 0x1F NOT PUSH1 0x1F DUP3 ADD AND DUP3 ADD DUP1 PUSH1 0x40 MSTORE POP DUP2 ADD SWAP1 PUSH2 0x13A4 SWAP2 SWAP1 PUSH2 0x2CAC JUMP JUMPDEST POP JUMPDEST POP POP POP POP JUMP JUMPDEST PUSH1 0xC SLOAD PUSH1 0x1 PUSH1 0x1 PUSH1 0xA0 SHL SUB AND PUSH20 0xEEEEEEEEEEEEEEEEEEEEEEEEEEEEEEEEEEEEEEED NOT ADD PUSH2 0x149C JUMPI PUSH2 0x1496 PUSH1 0x11 DUP1 SLOAD PUSH2 0x13E3 SWAP1 PUSH2 0x299A JUMP JUMPDEST DUP1 PUSH1 0x1F ADD PUSH1 0x20 DUP1 SWAP2 DIV MUL PUSH1 0x20 ADD PUSH1 0x40 MLOAD SWAP1 DUP2 ADD PUSH1 0x40 MSTORE DUP1 SWAP3 SWAP2 SWAP1 DUP2 DUP2 MSTORE PUSH1 0x20 ADD DUP3 DUP1 SLOAD PUSH2 0x140F SWAP1 PUSH2 0x299A JUMP JUMPDEST DUP1 ISZERO PUSH2 0x145C JUMPI DUP1 PUSH1 0x1F LT PUSH2 0x1431 JUMPI PUSH2 0x100 DUP1 DUP4 SLOAD DIV MUL DUP4 MSTORE SWAP2 PUSH1 0x20 ADD SWAP2 PUSH2 0x145C JUMP JUMPDEST DUP3 ADD SWAP2 SWAP1 PUSH1 0x0 MSTORE PUSH1 0x20 PUSH1 0x0 KECCAK256 SWAP1 JUMPDEST DUP2 SLOAD DUP2 MSTORE SWAP1 PUSH1 0x1 ADD SWAP1 PUSH1 0x20 ADD DUP1 DUP4 GT PUSH2 0x143F JUMPI DUP3 SWAP1 SUB PUSH1 0x1F AND DUP3 ADD SWAP2 JUMPDEST POP POP PUSH1 0xE SLOAD PUSH1 0x1 PUSH1 0x1 PUSH1 0xA0 SHL SUB PUSH32 0x0 AND SWAP5 SWAP4 POP SWAP2 POP POP PUSH2 0x1980 JUMP JUMPDEST POP PUSH2 0x1564 JUMP JUMPDEST PUSH2 0x1562 PUSH1 0x11 DUP1 SLOAD PUSH2 0x14AC SWAP1 PUSH2 0x299A JUMP JUMPDEST DUP1 PUSH1 0x1F ADD PUSH1 0x20 DUP1 SWAP2 DIV MUL PUSH1 0x20 ADD PUSH1 0x40 MLOAD SWAP1 DUP2 ADD PUSH1 0x40 MSTORE DUP1 SWAP3 SWAP2 SWAP1 DUP2 DUP2 MSTORE PUSH1 0x20 ADD DUP3 DUP1 SLOAD PUSH2 0x14D8 SWAP1 PUSH2 0x299A JUMP JUMPDEST DUP1 ISZERO PUSH2 0x1525 JUMPI DUP1 PUSH1 0x1F LT PUSH2 0x14FA JUMPI PUSH2 0x100 DUP1 DUP4 SLOAD DIV MUL DUP4 MSTORE SWAP2 PUSH1 0x20 ADD SWAP2 PUSH2 0x1525 JUMP JUMPDEST DUP3 ADD SWAP2 SWAP1 PUSH1 0x0 MSTORE PUSH1 0x20 PUSH1 0x0 KECCAK256 SWAP1 JUMPDEST DUP2 SLOAD DUP2 MSTORE SWAP1 PUSH1 0x1 ADD SWAP1 PUSH1 0x20 ADD DUP1 DUP4 GT PUSH2 0x1508 JUMPI DUP3 SWAP1 SUB PUSH1 0x1F AND DUP3 ADD SWAP2 JUMPDEST POP POP POP POP POP PUSH32 0x0 PUSH1 0x1 PUSH1 0x1 PUSH1 0xA0 SHL SUB AND PUSH2 0x19A6 SWAP1 SWAP2 SWAP1 PUSH4 0xFFFFFFFF AND JUMP JUMPDEST POP JUMPDEST PUSH1 0xC PUSH1 0x40 MLOAD PUSH2 0x1573 SWAP2 SWAP1 PUSH2 0x2E1B JUMP JUMPDEST PUSH1 0x40 MLOAD SWAP1 DUP2 SWAP1 SUB DUP2 KECCAK256 SWAP1 PUSH32 0x98D3AF501AC55740F44CC3D45B38CD162E715BD76AE2EC1704DB9BCF19DF528 SWAP1 PUSH1 0x0 SWAP1 LOG2 JUMP JUMPDEST PUSH2 0x15AD PUSH2 0x25D8 JUMP JUMPDEST PUSH2 0x15B5 PUSH2 0x25D8 JUMP JUMPDEST PUSH2 0x15C1 DUP2 DUP6 ADDRESS DUP7 PUSH2 0x19EA JUMP JUMPDEST SWAP5 SWAP4 POP POP POP POP JUMP JUMPDEST PUSH1 0x80 DUP4 ADD MLOAD PUSH2 0x15D8 SWAP1 DUP4 PUSH2 0x1A27 JUMP JUMPDEST PUSH1 0x80 DUP4 ADD MLOAD PUSH2 0xA4D SWAP1 DUP3 PUSH2 0x1A27 JUMP JUMPDEST PUSH1 0x60 PUSH2 0x77C PUSH1 0x1 PUSH1 0x1 PUSH1 0xA0 SHL SUB DUP4 AND PUSH1 0x14 PUSH2 0x1A3E JUMP JUMPDEST PUSH1 0x60 PUSH1 0x0 PUSH2 0x160A DUP4 PUSH2 0x1BD9 JUMP JUMPDEST PUSH1 0x1 ADD SWAP1 POP PUSH1 0x0 DUP2 PUSH1 0x1 PUSH1 0x1 PUSH1 0x40 SHL SUB DUP2 GT ISZERO PUSH2 0x1629 JUMPI PUSH2 0x1629 PUSH2 0x2627 JUMP JUMPDEST PUSH1 0x40 MLOAD SWAP1 DUP1 DUP3 MSTORE DUP1 PUSH1 0x1F ADD PUSH1 0x1F NOT AND PUSH1 0x20 ADD DUP3 ADD PUSH1 0x40 MSTORE DUP1 ISZERO PUSH2 0x1653 JUMPI PUSH1 0x20 DUP3 ADD DUP2 DUP1 CALLDATASIZE DUP4 CALLDATACOPY ADD SWAP1 POP JUMPDEST POP SWAP1 POP DUP2 DUP2 ADD PUSH1 0x20 ADD JUMPDEST PUSH1 0x0 NOT ADD PUSH16 0x181899199A1A9B1B9C1CB0B131B232B3 PUSH1 0x81 SHL PUSH1 0xA DUP7 MOD BYTE DUP2 MSTORE8 PUSH1 0xA DUP6 DIV SWAP5 POP DUP5 PUSH2 0x165D JUMPI POP SWAP4 SWAP3 POP POP POP JUMP JUMPDEST PUSH1 0x4 SLOAD PUSH1 0x0 SWAP1 PUSH2 0x16A9 SWAP1 PUSH1 0x1 PUSH1 0x1 PUSH1 0xA0 SHL SUB AND DUP5 DUP5 PUSH2 0x1CAF JUMP JUMPDEST SWAP4 SWAP3 POP POP POP JUMP JUMPDEST PUSH2 0x16BA DUP3 DUP3 PUSH2 0xDEC JUMP JUMPDEST PUSH2 0xACC JUMPI PUSH1 0x0 DUP3 DUP2 MSTORE PUSH1 0x20 DUP2 DUP2 MSTORE PUSH1 0x40 DUP1 DUP4 KECCAK256 PUSH1 0x1 PUSH1 0x1 PUSH1 0xA0 SHL SUB DUP6 AND DUP5 MSTORE SWAP1 SWAP2 MSTORE SWAP1 KECCAK256 DUP1 SLOAD PUSH1 0xFF NOT AND PUSH1 0x1 OR SWAP1 SSTORE PUSH2 0x16F0 CALLER SWAP1 JUMP JUMPDEST PUSH1 0x1 PUSH1 0x1 PUSH1 0xA0 SHL SUB AND DUP2 PUSH1 0x1 PUSH1 0x1 PUSH1 0xA0 SHL SUB AND DUP4 PUSH32 0x2F8788117E7EFF1D82E926EC794901D17C78024A50270940304540A733656F0D PUSH1 0x40 MLOAD PUSH1 0x40 MLOAD DUP1 SWAP2 SUB SWAP1 LOG4 POP POP JUMP JUMPDEST PUSH2 0x173E DUP3 DUP3 PUSH2 0xDEC JUMP JUMPDEST ISZERO PUSH2 0xACC JUMPI PUSH1 0x0 DUP3 DUP2 MSTORE PUSH1 0x20 DUP2 DUP2 MSTORE PUSH1 0x40 DUP1 DUP4 KECCAK256 PUSH1 0x1 PUSH1 0x1 PUSH1 0xA0 SHL SUB DUP6 AND DUP1 DUP6 MSTORE SWAP3 MSTORE DUP1 DUP4 KECCAK256 DUP1 SLOAD PUSH1 0xFF NOT AND SWAP1 SSTORE MLOAD CALLER SWAP3 DUP6 SWAP2 PUSH32 0xF6391F5C32D9C69D2A47EA670B442974B53935D1EDC7FD64EB21E047A839171B SWAP2 SWAP1 LOG4 POP POP JUMP JUMPDEST PUSH1 0x0 PUSH2 0x17A5 PUSH1 0x12 PUSH2 0x18A4 JUMP JUMPDEST SWAP1 POP PUSH1 0x0 JUMPDEST DUP2 DUP2 LT ISZERO PUSH2 0x184C JUMPI PUSH2 0x17BD PUSH1 0x12 DUP3 PUSH2 0x18AE JUMP JUMPDEST PUSH1 0x8 SLOAD PUSH1 0x9 SLOAD PUSH1 0xB SLOAD PUSH1 0xA SLOAD PUSH1 0x40 MLOAD PUSH4 0xB91DC4BB PUSH1 0xE0 SHL DUP2 MSTORE PUSH1 0x1 PUSH1 0x1 PUSH1 0xA0 SHL SUB SWAP5 DUP6 AND PUSH1 0x4 DUP3 ADD MSTORE SWAP3 DUP5 AND PUSH1 0x24 DUP5 ADD MSTORE PUSH1 0x44 DUP4 ADD SWAP2 SWAP1 SWAP2 MSTORE PUSH1 0x64 DUP3 ADD MSTORE SWAP2 AND SWAP1 PUSH4 0xB91DC4BB SWAP1 PUSH1 0x84 ADD PUSH1 0x0 PUSH1 0x40 MLOAD DUP1 DUP4 SUB DUP2 PUSH1 0x0 DUP8 DUP1 EXTCODESIZE ISZERO DUP1 ISZERO PUSH2 0x1821 JUMPI PUSH1 0x0 DUP1 REVERT JUMPDEST POP GAS CALL ISZERO DUP1 ISZERO PUSH2 0x1835 JUMPI RETURNDATASIZE PUSH1 0x0 DUP1 RETURNDATACOPY RETURNDATASIZE PUSH1 0x0 REVERT JUMPDEST POP POP POP POP DUP1 DUP1 PUSH2 0x1844 SWAP1 PUSH2 0x2E2D JUMP JUMPDEST SWAP2 POP POP PUSH2 0x17AA JUMP JUMPDEST POP PUSH1 0x8 PUSH1 0x40 MLOAD PUSH2 0x185C SWAP2 SWAP1 PUSH2 0x2E46 JUMP JUMPDEST PUSH1 0x40 MLOAD SWAP1 DUP2 SWAP1 SUB DUP2 KECCAK256 SWAP1 PUSH32 0xA8E5B3954602A050E4FD58BFDB4679C92CDF00ADDEAD6C0178CED776602ED452 SWAP1 PUSH1 0x0 SWAP1 LOG2 POP JUMP JUMPDEST PUSH1 0x0 PUSH2 0x16A9 DUP4 PUSH1 0x1 PUSH1 0x1 PUSH1 0xA0 SHL SUB DUP5 AND PUSH2 0x1D40 JUMP JUMPDEST PUSH1 0x0 PUSH2 0x77C DUP3 SLOAD SWAP1 JUMP JUMPDEST PUSH1 0x0 PUSH2 0x16A9 DUP4 DUP4 PUSH2 0x1E33 JUMP JUMPDEST PUSH1 0x0 PUSH2 0x16A9 DUP4 PUSH1 0x1 PUSH1 0x1 PUSH1 0xA0 SHL SUB DUP5 AND PUSH2 0x1E5D JUMP JUMPDEST PUSH2 0x18D9 DUP3 DUP3 PUSH2 0xDEC JUMP JUMPDEST PUSH2 0xACC JUMPI PUSH2 0x18E6 DUP2 PUSH2 0x15E7 JUMP JUMPDEST PUSH2 0x18F1 DUP4 PUSH1 0x20 PUSH2 0x1A3E JUMP JUMPDEST PUSH1 0x40 MLOAD PUSH1 0x20 ADD PUSH2 0x1902 SWAP3 SWAP2 SWAP1 PUSH2 0x2E62 JUMP JUMPDEST PUSH1 0x40 DUP1 MLOAD PUSH1 0x1F NOT DUP2 DUP5 SUB ADD DUP2 MSTORE SWAP1 DUP3 SWAP1 MSTORE PUSH3 0x461BCD PUSH1 0xE5 SHL DUP3 MSTORE PUSH2 0x7BA SWAP2 PUSH1 0x4 ADD PUSH2 0x2EFD JUMP JUMPDEST PUSH2 0x13A6 DUP5 PUSH4 0x23B872DD PUSH1 0xE0 SHL DUP6 DUP6 DUP6 PUSH1 0x40 MLOAD PUSH1 0x24 ADD PUSH2 0x1949 SWAP4 SWAP3 SWAP2 SWAP1 PUSH2 0x2921 JUMP JUMPDEST PUSH1 0x40 DUP1 MLOAD PUSH1 0x1F NOT DUP2 DUP5 SUB ADD DUP2 MSTORE SWAP2 SWAP1 MSTORE PUSH1 0x20 DUP2 ADD DUP1 MLOAD PUSH1 0x1 PUSH1 0x1 PUSH1 0xE0 SHL SUB AND PUSH1 0x1 PUSH1 0x1 PUSH1 0xE0 SHL SUB NOT SWAP1 SWAP4 AND SWAP3 SWAP1 SWAP3 OR SWAP1 SWAP2 MSTORE PUSH2 0x1EAC JUMP JUMPDEST PUSH1 0x60 PUSH2 0x15C1 DUP5 DUP5 DUP5 PUSH1 0x40 MLOAD DUP1 PUSH1 0x60 ADD PUSH1 0x40 MSTORE DUP1 PUSH1 0x29 DUP2 MSTORE PUSH1 0x20 ADD PUSH2 0x3136 PUSH1 0x29 SWAP2 CODECOPY PUSH2 0x1F81 JUMP JUMPDEST PUSH1 0x60 PUSH2 0x16A9 DUP4 DUP4 PUSH1 0x0 PUSH1 0x40 MLOAD DUP1 PUSH1 0x40 ADD PUSH1 0x40 MSTORE DUP1 PUSH1 0x1E DUP2 MSTORE PUSH1 0x20 ADD PUSH32 0x416464726573733A206C6F772D6C6576656C2063616C6C206661696C65640000 DUP2 MSTORE POP PUSH2 0x1F81 JUMP JUMPDEST PUSH2 0x19F2 PUSH2 0x25D8 JUMP JUMPDEST PUSH2 0x1A02 DUP6 PUSH1 0x80 ADD MLOAD PUSH2 0x100 PUSH2 0x205C JUMP JUMPDEST POP POP SWAP2 DUP4 MSTORE PUSH1 0x1 PUSH1 0x1 PUSH1 0xA0 SHL SUB AND PUSH1 0x20 DUP4 ADD MSTORE PUSH1 0x1 PUSH1 0x1 PUSH1 0xE0 SHL SUB NOT AND PUSH1 0x40 DUP3 ADD MSTORE SWAP1 JUMP JUMPDEST PUSH2 0x1A34 DUP3 PUSH1 0x3 DUP4 MLOAD PUSH2 0x20B4 JUMP JUMPDEST PUSH2 0xA4D DUP3 DUP3 PUSH2 0x21BB JUMP JUMPDEST PUSH1 0x60 PUSH1 0x0 PUSH2 0x1A4D DUP4 PUSH1 0x2 PUSH2 0x2C39 JUMP JUMPDEST PUSH2 0x1A58 SWAP1 PUSH1 0x2 PUSH2 0x2F10 JUMP JUMPDEST PUSH1 0x1 PUSH1 0x1 PUSH1 0x40 SHL SUB DUP2 GT ISZERO PUSH2 0x1A6F JUMPI PUSH2 0x1A6F PUSH2 0x2627 JUMP JUMPDEST PUSH1 0x40 MLOAD SWAP1 DUP1 DUP3 MSTORE DUP1 PUSH1 0x1F ADD PUSH1 0x1F NOT AND PUSH1 0x20 ADD DUP3 ADD PUSH1 0x40 MSTORE DUP1 ISZERO PUSH2 0x1A99 JUMPI PUSH1 0x20 DUP3 ADD DUP2 DUP1 CALLDATASIZE DUP4 CALLDATACOPY ADD SWAP1 POP JUMPDEST POP SWAP1 POP PUSH1 0x3 PUSH1 0xFC SHL DUP2 PUSH1 0x0 DUP2 MLOAD DUP2 LT PUSH2 0x1AB4 JUMPI PUSH2 0x1AB4 PUSH2 0x2F23 JUMP JUMPDEST PUSH1 0x20 ADD ADD SWAP1 PUSH1 0x1 PUSH1 0x1 PUSH1 0xF8 SHL SUB NOT AND SWAP1 DUP2 PUSH1 0x0 BYTE SWAP1 MSTORE8 POP PUSH1 0xF PUSH1 0xFB SHL DUP2 PUSH1 0x1 DUP2 MLOAD DUP2 LT PUSH2 0x1AE3 JUMPI PUSH2 0x1AE3 PUSH2 0x2F23 JUMP JUMPDEST PUSH1 0x20 ADD ADD SWAP1 PUSH1 0x1 PUSH1 0x1 PUSH1 0xF8 SHL SUB NOT AND SWAP1 DUP2 PUSH1 0x0 BYTE SWAP1 MSTORE8 POP PUSH1 0x0 PUSH2 0x1B07 DUP5 PUSH1 0x2 PUSH2 0x2C39 JUMP JUMPDEST PUSH2 0x1B12 SWAP1 PUSH1 0x1 PUSH2 0x2F10 JUMP JUMPDEST SWAP1 POP JUMPDEST PUSH1 0x1 DUP2 GT ISZERO PUSH2 0x1B8A JUMPI PUSH16 0x181899199A1A9B1B9C1CB0B131B232B3 PUSH1 0x81 SHL DUP6 PUSH1 0xF AND PUSH1 0x10 DUP2 LT PUSH2 0x1B46 JUMPI PUSH2 0x1B46 PUSH2 0x2F23 JUMP JUMPDEST BYTE PUSH1 0xF8 SHL DUP3 DUP3 DUP2 MLOAD DUP2 LT PUSH2 0x1B5C JUMPI PUSH2 0x1B5C PUSH2 0x2F23 JUMP JUMPDEST PUSH1 0x20 ADD ADD SWAP1 PUSH1 0x1 PUSH1 0x1 PUSH1 0xF8 SHL SUB NOT AND SWAP1 DUP2 PUSH1 0x0 BYTE SWAP1 MSTORE8 POP PUSH1 0x4 SWAP5 SWAP1 SWAP5 SHR SWAP4 PUSH2 0x1B83 DUP2 PUSH2 0x2F39 JUMP JUMPDEST SWAP1 POP PUSH2 0x1B15 JUMP JUMPDEST POP DUP4 ISZERO PUSH2 0x16A9 JUMPI PUSH1 0x40 MLOAD PUSH3 0x461BCD PUSH1 0xE5 SHL DUP2 MSTORE PUSH1 0x20 PUSH1 0x4 DUP3 ADD DUP2 SWAP1 MSTORE PUSH1 0x24 DUP3 ADD MSTORE PUSH32 0x537472696E67733A20686578206C656E67746820696E73756666696369656E74 PUSH1 0x44 DUP3 ADD MSTORE PUSH1 0x64 ADD PUSH2 0x7BA JUMP JUMPDEST PUSH1 0x0 DUP1 PUSH19 0x184F03E93FF9F4DAA797ED6E38ED64BF6A1F01 PUSH1 0x40 SHL DUP4 LT PUSH2 0x1C18 JUMPI PUSH19 0x184F03E93FF9F4DAA797ED6E38ED64BF6A1F01 PUSH1 0x40 SHL DUP4 DIV SWAP3 POP PUSH1 0x40 ADD JUMPDEST PUSH10 0x4EE2D6D415B85ACEF81 PUSH1 0x20 SHL DUP4 LT PUSH2 0x1C42 JUMPI PUSH10 0x4EE2D6D415B85ACEF81 PUSH1 0x20 SHL DUP4 DIV SWAP3 POP PUSH1 0x20 ADD JUMPDEST PUSH7 0x2386F26FC10000 DUP4 LT PUSH2 0x1C60 JUMPI PUSH7 0x2386F26FC10000 DUP4 DIV SWAP3 POP PUSH1 0x10 ADD JUMPDEST PUSH4 0x5F5E100 DUP4 LT PUSH2 0x1C78 JUMPI PUSH4 0x5F5E100 DUP4 DIV SWAP3 POP PUSH1 0x8 ADD JUMPDEST PUSH2 0x2710 DUP4 LT PUSH2 0x1C8C JUMPI PUSH2 0x2710 DUP4 DIV SWAP3 POP PUSH1 0x4 ADD JUMPDEST PUSH1 0x64 DUP4 LT PUSH2 0x1C9E JUMPI PUSH1 0x64 DUP4 DIV SWAP3 POP PUSH1 0x2 ADD JUMPDEST PUSH1 0xA DUP4 LT PUSH2 0x77C JUMPI PUSH1 0x1 ADD SWAP3 SWAP2 POP POP JUMP JUMPDEST PUSH1 0x5 SLOAD PUSH1 0x0 SWAP1 PUSH2 0x1CC0 DUP2 PUSH1 0x1 PUSH2 0x2F10 JUMP JUMPDEST PUSH1 0x5 SSTORE DUP4 MLOAD PUSH1 0x40 DUP1 DUP7 ADD MLOAD PUSH1 0x80 DUP8 ADD MLOAD MLOAD SWAP2 MLOAD PUSH1 0x0 SWAP4 PUSH4 0x3C6D41B9 PUSH1 0xE0 SHL SWAP4 PUSH2 0x1CF6 SWAP4 DUP7 SWAP4 DUP5 SWAP4 SWAP3 DUP10 SWAP2 PUSH1 0x2 SWAP2 SWAP1 PUSH1 0x24 ADD PUSH2 0x2F50 JUMP JUMPDEST PUSH1 0x40 DUP1 MLOAD PUSH1 0x1F NOT DUP2 DUP5 SUB ADD DUP2 MSTORE SWAP2 SWAP1 MSTORE PUSH1 0x20 DUP2 ADD DUP1 MLOAD PUSH1 0x1 PUSH1 0x1 PUSH1 0xE0 SHL SUB AND PUSH1 0x1 PUSH1 0x1 PUSH1 0xE0 SHL SUB NOT SWAP1 SWAP4 AND SWAP3 SWAP1 SWAP3 OR SWAP1 SWAP2 MSTORE SWAP1 POP PUSH2 0x1D36 DUP7 DUP4 DUP7 DUP5 PUSH2 0x21D5 JUMP JUMPDEST SWAP7 SWAP6 POP POP POP POP POP POP JUMP JUMPDEST PUSH1 0x0 DUP2 DUP2 MSTORE PUSH1 0x1 DUP4 ADD PUSH1 0x20 MSTORE PUSH1 0x40 DUP2 KECCAK256 SLOAD DUP1 ISZERO PUSH2 0x1E29 JUMPI PUSH1 0x0 PUSH2 0x1D64 PUSH1 0x1 DUP4 PUSH2 0x2F98 JUMP JUMPDEST DUP6 SLOAD SWAP1 SWAP2 POP PUSH1 0x0 SWAP1 PUSH2 0x1D78 SWAP1 PUSH1 0x1 SWAP1 PUSH2 0x2F98 JUMP JUMPDEST SWAP1 POP DUP2 DUP2 EQ PUSH2 0x1DDD JUMPI PUSH1 0x0 DUP7 PUSH1 0x0 ADD DUP3 DUP2 SLOAD DUP2 LT PUSH2 0x1D98 JUMPI PUSH2 0x1D98 PUSH2 0x2F23 JUMP JUMPDEST SWAP1 PUSH1 0x0 MSTORE PUSH1 0x20 PUSH1 0x0 KECCAK256 ADD SLOAD SWAP1 POP DUP1 DUP8 PUSH1 0x0 ADD DUP5 DUP2 SLOAD DUP2 LT PUSH2 0x1DBB JUMPI PUSH2 0x1DBB PUSH2 0x2F23 JUMP JUMPDEST PUSH1 0x0 SWAP2 DUP3 MSTORE PUSH1 0x20 DUP1 DUP4 KECCAK256 SWAP1 SWAP2 ADD SWAP3 SWAP1 SWAP3 SSTORE SWAP2 DUP3 MSTORE PUSH1 0x1 DUP9 ADD SWAP1 MSTORE PUSH1 0x40 SWAP1 KECCAK256 DUP4 SWAP1 SSTORE JUMPDEST DUP6 SLOAD DUP7 SWAP1 DUP1 PUSH2 0x1DEE JUMPI PUSH2 0x1DEE PUSH2 0x2FAB JUMP JUMPDEST PUSH1 0x1 SWAP1 SUB DUP2 DUP2 SWAP1 PUSH1 0x0 MSTORE PUSH1 0x20 PUSH1 0x0 KECCAK256 ADD PUSH1 0x0 SWAP1 SSTORE SWAP1 SSTORE DUP6 PUSH1 0x1 ADD PUSH1 0x0 DUP7 DUP2 MSTORE PUSH1 0x20 ADD SWAP1 DUP2 MSTORE PUSH1 0x20 ADD PUSH1 0x0 KECCAK256 PUSH1 0x0 SWAP1 SSTORE PUSH1 0x1 SWAP4 POP POP POP POP PUSH2 0x77C JUMP JUMPDEST PUSH1 0x0 SWAP2 POP POP PUSH2 0x77C JUMP JUMPDEST PUSH1 0x0 DUP3 PUSH1 0x0 ADD DUP3 DUP2 SLOAD DUP2 LT PUSH2 0x1E4A JUMPI PUSH2 0x1E4A PUSH2 0x2F23 JUMP JUMPDEST SWAP1 PUSH1 0x0 MSTORE PUSH1 0x20 PUSH1 0x0 KECCAK256 ADD SLOAD SWAP1 POP SWAP3 SWAP2 POP POP JUMP JUMPDEST PUSH1 0x0 DUP2 DUP2 MSTORE PUSH1 0x1 DUP4 ADD PUSH1 0x20 MSTORE PUSH1 0x40 DUP2 KECCAK256 SLOAD PUSH2 0x1EA4 JUMPI POP DUP2 SLOAD PUSH1 0x1 DUP2 DUP2 ADD DUP5 SSTORE PUSH1 0x0 DUP5 DUP2 MSTORE PUSH1 0x20 DUP1 DUP3 KECCAK256 SWAP1 SWAP4 ADD DUP5 SWAP1 SSTORE DUP5 SLOAD DUP5 DUP3 MSTORE DUP3 DUP7 ADD SWAP1 SWAP4 MSTORE PUSH1 0x40 SWAP1 KECCAK256 SWAP2 SWAP1 SWAP2 SSTORE PUSH2 0x77C JUMP JUMPDEST POP PUSH1 0x0 PUSH2 0x77C JUMP JUMPDEST PUSH1 0x0 PUSH2 0x1F01 DUP3 PUSH1 0x40 MLOAD DUP1 PUSH1 0x40 ADD PUSH1 0x40 MSTORE DUP1 PUSH1 0x20 DUP2 MSTORE PUSH1 0x20 ADD PUSH32 0x5361666545524332303A206C6F772D6C6576656C2063616C6C206661696C6564 DUP2 MSTORE POP DUP6 PUSH1 0x1 PUSH1 0x1 PUSH1 0xA0 SHL SUB AND PUSH2 0x232E SWAP1 SWAP3 SWAP2 SWAP1 PUSH4 0xFFFFFFFF AND JUMP JUMPDEST SWAP1 POP DUP1 MLOAD PUSH1 0x0 EQ DUP1 PUSH2 0x1F22 JUMPI POP DUP1 DUP1 PUSH1 0x20 ADD SWAP1 MLOAD DUP2 ADD SWAP1 PUSH2 0x1F22 SWAP2 SWAP1 PUSH2 0x2CAC JUMP JUMPDEST PUSH2 0xA4D JUMPI PUSH1 0x40 MLOAD PUSH3 0x461BCD PUSH1 0xE5 SHL DUP2 MSTORE PUSH1 0x20 PUSH1 0x4 DUP3 ADD MSTORE PUSH1 0x2A PUSH1 0x24 DUP3 ADD MSTORE PUSH32 0x5361666545524332303A204552433230206F7065726174696F6E20646964206E PUSH1 0x44 DUP3 ADD MSTORE PUSH10 0x1BDD081CDD58D8D95959 PUSH1 0xB2 SHL PUSH1 0x64 DUP3 ADD MSTORE PUSH1 0x84 ADD PUSH2 0x7BA JUMP JUMPDEST PUSH1 0x60 DUP3 SELFBALANCE LT ISZERO PUSH2 0x1FE2 JUMPI PUSH1 0x40 MLOAD PUSH3 0x461BCD PUSH1 0xE5 SHL DUP2 MSTORE PUSH1 0x20 PUSH1 0x4 DUP3 ADD MSTORE PUSH1 0x26 PUSH1 0x24 DUP3 ADD MSTORE PUSH32 0x416464726573733A20696E73756666696369656E742062616C616E636520666F PUSH1 0x44 DUP3 ADD MSTORE PUSH6 0x1C8818D85B1B PUSH1 0xD2 SHL PUSH1 0x64 DUP3 ADD MSTORE PUSH1 0x84 ADD PUSH2 0x7BA JUMP JUMPDEST PUSH1 0x0 DUP1 DUP7 PUSH1 0x1 PUSH1 0x1 PUSH1 0xA0 SHL SUB AND DUP6 DUP8 PUSH1 0x40 MLOAD PUSH2 0x1FFE SWAP2 SWAP1 PUSH2 0x2B71 JUMP JUMPDEST PUSH1 0x0 PUSH1 0x40 MLOAD DUP1 DUP4 SUB DUP2 DUP6 DUP8 GAS CALL SWAP3 POP POP POP RETURNDATASIZE DUP1 PUSH1 0x0 DUP2 EQ PUSH2 0x203B JUMPI PUSH1 0x40 MLOAD SWAP2 POP PUSH1 0x1F NOT PUSH1 0x3F RETURNDATASIZE ADD AND DUP3 ADD PUSH1 0x40 MSTORE RETURNDATASIZE DUP3 MSTORE RETURNDATASIZE PUSH1 0x0 PUSH1 0x20 DUP5 ADD RETURNDATACOPY PUSH2 0x2040 JUMP JUMPDEST PUSH1 0x60 SWAP2 POP JUMPDEST POP SWAP2 POP SWAP2 POP PUSH2 0x2051 DUP8 DUP4 DUP4 DUP8 PUSH2 0x233D JUMP JUMPDEST SWAP8 SWAP7 POP POP POP POP POP POP POP JUMP JUMPDEST PUSH2 0x2064 PUSH2 0x260D JUMP JUMPDEST PUSH2 0x206F PUSH1 0x20 DUP4 PUSH2 0x2FC1 JUMP JUMPDEST ISZERO PUSH2 0x2097 JUMPI PUSH2 0x207F PUSH1 0x20 DUP4 PUSH2 0x2FC1 JUMP JUMPDEST PUSH2 0x208A SWAP1 PUSH1 0x20 PUSH2 0x2F98 JUMP JUMPDEST PUSH2 0x2094 SWAP1 DUP4 PUSH2 0x2F10 JUMP JUMPDEST SWAP2 POP JUMPDEST POP PUSH1 0x20 DUP3 DUP2 ADD DUP3 SWAP1 MSTORE PUSH1 0x40 DUP1 MLOAD DUP1 DUP6 MSTORE PUSH1 0x0 DUP2 MSTORE SWAP1 SWAP3 ADD ADD SWAP1 MSTORE SWAP1 JUMP JUMPDEST PUSH1 0x17 DUP2 PUSH1 0x1 PUSH1 0x1 PUSH1 0x40 SHL SUB AND GT PUSH2 0x20D8 JUMPI PUSH2 0x13A6 DUP4 PUSH1 0xE0 PUSH1 0x5 DUP6 SWAP1 SHL AND DUP4 OR PUSH2 0x23B6 JUMP JUMPDEST PUSH1 0xFF DUP2 PUSH1 0x1 PUSH1 0x1 PUSH1 0x40 SHL SUB AND GT PUSH2 0x2114 JUMPI PUSH2 0x20FE DUP4 PUSH1 0x18 PUSH2 0x1FE0 PUSH1 0x5 DUP7 SWAP1 SHL AND OR PUSH2 0x23B6 JUMP JUMPDEST POP PUSH2 0x13A6 DUP4 PUSH1 0x1 PUSH1 0x1 PUSH1 0x40 SHL SUB DUP4 AND PUSH1 0x1 PUSH2 0x23CE JUMP JUMPDEST PUSH2 0xFFFF DUP2 PUSH1 0x1 PUSH1 0x1 PUSH1 0x40 SHL SUB AND GT PUSH2 0x2151 JUMPI PUSH2 0x213B DUP4 PUSH1 0x19 PUSH2 0x1FE0 PUSH1 0x5 DUP7 SWAP1 SHL AND OR PUSH2 0x23B6 JUMP JUMPDEST POP PUSH2 0x13A6 DUP4 PUSH1 0x1 PUSH1 0x1 PUSH1 0x40 SHL SUB DUP4 AND PUSH1 0x2 PUSH2 0x23CE JUMP JUMPDEST PUSH4 0xFFFFFFFF DUP2 PUSH1 0x1 PUSH1 0x1 PUSH1 0x40 SHL SUB AND GT PUSH2 0x2190 JUMPI PUSH2 0x217A DUP4 PUSH1 0x1A PUSH2 0x1FE0 PUSH1 0x5 DUP7 SWAP1 SHL AND OR PUSH2 0x23B6 JUMP JUMPDEST POP PUSH2 0x13A6 DUP4 PUSH1 0x1 PUSH1 0x1 PUSH1 0x40 SHL SUB DUP4 AND PUSH1 0x4 PUSH2 0x23CE JUMP JUMPDEST PUSH2 0x21A5 DUP4 PUSH1 0x1B PUSH2 0x1FE0 PUSH1 0x5 DUP7 SWAP1 SHL AND OR PUSH2 0x23B6 JUMP JUMPDEST POP PUSH2 0x13A6 DUP4 PUSH1 0x1 PUSH1 0x1 PUSH1 0x40 SHL SUB DUP4 AND PUSH1 0x8 PUSH2 0x23CE JUMP JUMPDEST PUSH2 0x21C3 PUSH2 0x260D JUMP JUMPDEST PUSH2 0x16A9 DUP4 DUP5 PUSH1 0x0 ADD MLOAD MLOAD DUP5 DUP6 MLOAD PUSH2 0x23E7 JUMP JUMPDEST PUSH1 0x40 MLOAD PUSH1 0x1 PUSH1 0x1 PUSH1 0x60 SHL SUB NOT ADDRESS PUSH1 0x60 SHL AND PUSH1 0x20 DUP3 ADD MSTORE PUSH1 0x34 DUP2 ADD DUP5 SWAP1 MSTORE PUSH1 0x0 SWAP1 PUSH1 0x54 ADD PUSH1 0x40 DUP1 MLOAD DUP1 DUP4 SUB PUSH1 0x1F NOT ADD DUP2 MSTORE DUP3 DUP3 MSTORE DUP1 MLOAD PUSH1 0x20 SWAP2 DUP3 ADD KECCAK256 PUSH1 0x0 DUP2 DUP2 MSTORE PUSH1 0x6 SWAP1 SWAP3 MSTORE SWAP2 DUP2 KECCAK256 DUP1 SLOAD PUSH1 0x1 PUSH1 0x1 PUSH1 0xA0 SHL SUB NOT AND PUSH1 0x1 PUSH1 0x1 PUSH1 0xA0 SHL SUB DUP11 AND OR SWAP1 SSTORE SWAP1 SWAP3 POP DUP3 SWAP2 PUSH32 0xB5E6E01E79F91267DC17B4E6314D5D4D03593D2CEEE0FBB452B750BD70EA5AF9 SWAP2 SWAP1 LOG2 PUSH1 0x3 SLOAD PUSH1 0x40 MLOAD PUSH4 0x2000575 PUSH1 0xE5 SHL DUP2 MSTORE PUSH1 0x1 PUSH1 0x1 PUSH1 0xA0 SHL SUB SWAP1 SWAP2 AND SWAP1 PUSH4 0x4000AEA0 SWAP1 PUSH2 0x2293 SWAP1 DUP9 SWAP1 DUP8 SWAP1 DUP8 SWAP1 PUSH1 0x4 ADD PUSH2 0x2FD5 JUMP JUMPDEST PUSH1 0x20 PUSH1 0x40 MLOAD DUP1 DUP4 SUB DUP2 PUSH1 0x0 DUP8 GAS CALL ISZERO DUP1 ISZERO PUSH2 0x22B2 JUMPI RETURNDATASIZE PUSH1 0x0 DUP1 RETURNDATACOPY RETURNDATASIZE PUSH1 0x0 REVERT JUMPDEST POP POP POP POP PUSH1 0x40 MLOAD RETURNDATASIZE PUSH1 0x1F NOT PUSH1 0x1F DUP3 ADD AND DUP3 ADD DUP1 PUSH1 0x40 MSTORE POP DUP2 ADD SWAP1 PUSH2 0x22D6 SWAP2 SWAP1 PUSH2 0x2CAC JUMP JUMPDEST PUSH2 0x15C1 JUMPI PUSH1 0x40 MLOAD PUSH3 0x461BCD PUSH1 0xE5 SHL DUP2 MSTORE PUSH1 0x20 PUSH1 0x4 DUP3 ADD MSTORE PUSH1 0x23 PUSH1 0x24 DUP3 ADD MSTORE PUSH32 0x756E61626C6520746F207472616E73666572416E6443616C6C20746F206F7261 PUSH1 0x44 DUP3 ADD MSTORE PUSH3 0x636C65 PUSH1 0xE8 SHL PUSH1 0x64 DUP3 ADD MSTORE PUSH1 0x84 ADD PUSH2 0x7BA JUMP JUMPDEST PUSH1 0x60 PUSH2 0x15C1 DUP5 DUP5 PUSH1 0x0 DUP6 PUSH2 0x1F81 JUMP JUMPDEST PUSH1 0x60 DUP4 ISZERO PUSH2 0x23AC JUMPI DUP3 MLOAD PUSH1 0x0 SUB PUSH2 0x23A5 JUMPI PUSH1 0x1 PUSH1 0x1 PUSH1 0xA0 SHL SUB DUP6 AND EXTCODESIZE PUSH2 0x23A5 JUMPI PUSH1 0x40 MLOAD PUSH3 0x461BCD PUSH1 0xE5 SHL DUP2 MSTORE PUSH1 0x20 PUSH1 0x4 DUP3 ADD MSTORE PUSH1 0x1D PUSH1 0x24 DUP3 ADD MSTORE PUSH32 0x416464726573733A2063616C6C20746F206E6F6E2D636F6E7472616374000000 PUSH1 0x44 DUP3 ADD MSTORE PUSH1 0x64 ADD PUSH2 0x7BA JUMP JUMPDEST POP DUP2 PUSH2 0x15C1 JUMP JUMPDEST PUSH2 0x15C1 DUP4 DUP4 PUSH2 0x24C4 JUMP JUMPDEST PUSH2 0x23BE PUSH2 0x260D JUMP JUMPDEST PUSH2 0x16A9 DUP4 DUP5 PUSH1 0x0 ADD MLOAD MLOAD DUP5 PUSH2 0x24EE JUMP JUMPDEST PUSH2 0x23D6 PUSH2 0x260D JUMP JUMPDEST PUSH2 0x15C1 DUP5 DUP6 PUSH1 0x0 ADD MLOAD MLOAD DUP6 DUP6 PUSH2 0x253C JUMP JUMPDEST PUSH2 0x23EF PUSH2 0x260D JUMP JUMPDEST DUP3 MLOAD DUP3 GT ISZERO PUSH2 0x23FD JUMPI PUSH1 0x0 DUP1 REVERT JUMPDEST PUSH1 0x20 DUP6 ADD MLOAD PUSH2 0x240C DUP4 DUP7 PUSH2 0x2F10 JUMP JUMPDEST GT ISZERO PUSH2 0x243F JUMPI PUSH2 0x243F DUP6 PUSH2 0x242F DUP8 PUSH1 0x20 ADD MLOAD DUP8 DUP7 PUSH2 0x242A SWAP2 SWAP1 PUSH2 0x2F10 JUMP JUMPDEST PUSH2 0x25B0 JUMP JUMPDEST PUSH2 0x243A SWAP1 PUSH1 0x2 PUSH2 0x2C39 JUMP JUMPDEST PUSH2 0x25C1 JUMP JUMPDEST PUSH1 0x0 DUP1 DUP7 MLOAD DUP1 MLOAD DUP8 PUSH1 0x20 DUP4 ADD ADD SWAP4 POP DUP1 DUP9 DUP8 ADD GT ISZERO PUSH2 0x245E JUMPI DUP8 DUP7 ADD DUP3 MSTORE JUMPDEST POP POP POP PUSH1 0x20 DUP5 ADD JUMPDEST PUSH1 0x20 DUP5 LT PUSH2 0x249E JUMPI DUP1 MLOAD DUP3 MSTORE PUSH2 0x247D PUSH1 0x20 DUP4 PUSH2 0x2F10 JUMP JUMPDEST SWAP2 POP PUSH2 0x248A PUSH1 0x20 DUP3 PUSH2 0x2F10 JUMP JUMPDEST SWAP1 POP PUSH2 0x2497 PUSH1 0x20 DUP6 PUSH2 0x2F98 JUMP JUMPDEST SWAP4 POP PUSH2 0x2466 JUMP JUMPDEST MLOAD DUP2 MLOAD PUSH1 0x0 NOT PUSH1 0x20 DUP7 SWAP1 SUB PUSH2 0x100 EXP ADD SWAP1 DUP2 AND SWAP1 NOT SWAP2 SWAP1 SWAP2 AND OR SWAP1 MSTORE POP DUP4 SWAP5 SWAP4 POP POP POP POP JUMP JUMPDEST DUP2 MLOAD ISZERO PUSH2 0x24D4 JUMPI DUP2 MLOAD DUP1 DUP4 PUSH1 0x20 ADD REVERT JUMPDEST DUP1 PUSH1 0x40 MLOAD PUSH3 0x461BCD PUSH1 0xE5 SHL DUP2 MSTORE PUSH1 0x4 ADD PUSH2 0x7BA SWAP2 SWAP1 PUSH2 0x2EFD JUMP JUMPDEST PUSH2 0x24F6 PUSH2 0x260D JUMP JUMPDEST DUP4 PUSH1 0x20 ADD MLOAD DUP4 LT PUSH2 0x2516 JUMPI PUSH2 0x2516 DUP5 DUP6 PUSH1 0x20 ADD MLOAD PUSH1 0x2 PUSH2 0x243A SWAP2 SWAP1 PUSH2 0x2C39 JUMP JUMPDEST DUP4 MLOAD DUP1 MLOAD PUSH1 0x20 DUP6 DUP4 ADD ADD DUP5 DUP2 MSTORE8 POP DUP1 DUP6 SUB PUSH2 0x2532 JUMPI PUSH1 0x1 DUP2 ADD DUP3 MSTORE JUMPDEST POP SWAP4 SWAP5 SWAP4 POP POP POP POP JUMP JUMPDEST PUSH2 0x2544 PUSH2 0x260D JUMP JUMPDEST PUSH1 0x20 DUP6 ADD MLOAD PUSH2 0x2553 DUP6 DUP5 PUSH2 0x2F10 JUMP JUMPDEST GT ISZERO PUSH2 0x2567 JUMPI PUSH2 0x2567 DUP6 PUSH2 0x242F DUP7 DUP6 PUSH2 0x2F10 JUMP JUMPDEST PUSH1 0x0 PUSH1 0x1 PUSH2 0x2577 DUP5 PUSH2 0x100 PUSH2 0x30E9 JUMP JUMPDEST PUSH2 0x2581 SWAP2 SWAP1 PUSH2 0x2F98 JUMP JUMPDEST SWAP1 POP DUP6 MLOAD DUP4 DUP7 DUP3 ADD ADD DUP6 DUP4 NOT DUP3 MLOAD AND OR DUP2 MSTORE POP DUP1 MLOAD DUP5 DUP8 ADD GT ISZERO PUSH2 0x25A5 JUMPI DUP4 DUP7 ADD DUP2 MSTORE JUMPDEST POP SWAP5 SWAP6 SWAP5 POP POP POP POP POP JUMP JUMPDEST PUSH1 0x0 DUP2 DUP4 GT ISZERO PUSH2 0xEE4 JUMPI POP DUP2 PUSH2 0x77C JUMP JUMPDEST DUP2 MLOAD PUSH2 0x25CD DUP4 DUP4 PUSH2 0x205C JUMP JUMPDEST POP PUSH2 0x13A6 DUP4 DUP3 PUSH2 0x21BB JUMP JUMPDEST PUSH1 0x40 DUP1 MLOAD PUSH1 0xA0 DUP2 ADD DUP3 MSTORE PUSH1 0x0 DUP1 DUP3 MSTORE PUSH1 0x20 DUP3 ADD DUP2 SWAP1 MSTORE SWAP2 DUP2 ADD DUP3 SWAP1 MSTORE PUSH1 0x60 DUP2 ADD SWAP2 SWAP1 SWAP2 MSTORE PUSH1 0x80 DUP2 ADD PUSH2 0x2608 PUSH2 0x260D JUMP JUMPDEST SWAP1 MSTORE SWAP1 JUMP JUMPDEST PUSH1 0x40 MLOAD DUP1 PUSH1 0x40 ADD PUSH1 0x40 MSTORE DUP1 PUSH1 0x60 DUP2 MSTORE PUSH1 0x20 ADD PUSH1 0x0 DUP2 MSTORE POP SWAP1 JUMP JUMPDEST PUSH4 0x4E487B71 PUSH1 0xE0 SHL PUSH1 0x0 MSTORE PUSH1 0x41 PUSH1 0x4 MSTORE PUSH1 0x24 PUSH1 0x0 REVERT JUMPDEST PUSH1 0x0 DUP3 PUSH1 0x1F DUP4 ADD SLT PUSH2 0x264E JUMPI PUSH1 0x0 DUP1 REVERT JUMPDEST DUP2 CALLDATALOAD PUSH1 0x1 PUSH1 0x1 PUSH1 0x40 SHL SUB DUP1 DUP3 GT ISZERO PUSH2 0x2668 JUMPI PUSH2 0x2668 PUSH2 0x2627 JUMP JUMPDEST PUSH1 0x40 MLOAD PUSH1 0x1F DUP4 ADD PUSH1 0x1F NOT SWAP1 DUP2 AND PUSH1 0x3F ADD AND DUP2 ADD SWAP1 DUP3 DUP3 GT DUP2 DUP4 LT OR ISZERO PUSH2 0x2690 JUMPI PUSH2 0x2690 PUSH2 0x2627 JUMP JUMPDEST DUP2 PUSH1 0x40 MSTORE DUP4 DUP2 MSTORE DUP7 PUSH1 0x20 DUP6 DUP9 ADD ADD GT ISZERO PUSH2 0x26A9 JUMPI PUSH1 0x0 DUP1 REVERT JUMPDEST DUP4 PUSH1 0x20 DUP8 ADD PUSH1 0x20 DUP4 ADD CALLDATACOPY PUSH1 0x0 PUSH1 0x20 DUP6 DUP4 ADD ADD MSTORE DUP1 SWAP5 POP POP POP POP POP SWAP3 SWAP2 POP POP JUMP JUMPDEST PUSH1 0x0 PUSH1 0x20 DUP3 DUP5 SUB SLT ISZERO PUSH2 0x26DB JUMPI PUSH1 0x0 DUP1 REVERT JUMPDEST DUP2 CALLDATALOAD PUSH1 0x1 PUSH1 0x1 PUSH1 0x40 SHL SUB DUP2 GT ISZERO PUSH2 0x26F1 JUMPI PUSH1 0x0 DUP1 REVERT JUMPDEST PUSH2 0x15C1 DUP5 DUP3 DUP6 ADD PUSH2 0x263D JUMP JUMPDEST PUSH1 0x0 PUSH1 0x20 DUP3 DUP5 SUB SLT ISZERO PUSH2 0x270F JUMPI PUSH1 0x0 DUP1 REVERT JUMPDEST DUP2 CALLDATALOAD PUSH1 0x1 PUSH1 0x1 PUSH1 0xE0 SHL SUB NOT DUP2 AND DUP2 EQ PUSH2 0x16A9 JUMPI PUSH1 0x0 DUP1 REVERT JUMPDEST PUSH1 0x0 DUP1 PUSH1 0x40 DUP4 DUP6 SUB SLT ISZERO PUSH2 0x273A JUMPI PUSH1 0x0 DUP1 REVERT JUMPDEST DUP3 CALLDATALOAD SWAP2 POP PUSH1 0x20 DUP4 ADD CALLDATALOAD PUSH1 0x1 PUSH1 0x1 PUSH1 0x40 SHL SUB DUP2 GT ISZERO PUSH2 0x2757 JUMPI PUSH1 0x0 DUP1 REVERT JUMPDEST PUSH2 0x2763 DUP6 DUP3 DUP7 ADD PUSH2 0x263D JUMP JUMPDEST SWAP2 POP POP SWAP3 POP SWAP3 SWAP1 POP JUMP JUMPDEST DUP1 CALLDATALOAD PUSH1 0x1 PUSH1 0x1 PUSH1 0xA0 SHL SUB DUP2 AND DUP2 EQ PUSH2 0x2784 JUMPI PUSH1 0x0 DUP1 REVERT JUMPDEST SWAP2 SWAP1 POP JUMP JUMPDEST PUSH1 0x0 DUP1 PUSH1 0x0 PUSH1 0x60 DUP5 DUP7 SUB SLT ISZERO PUSH2 0x279E JUMPI PUSH1 0x0 DUP1 REVERT JUMPDEST PUSH2 0x27A7 DUP5 PUSH2 0x276D JUMP JUMPDEST SWAP3 POP PUSH2 0x27B5 PUSH1 0x20 DUP6 ADD PUSH2 0x276D JUMP JUMPDEST SWAP2 POP PUSH1 0x40 DUP5 ADD CALLDATALOAD SWAP1 POP SWAP3 POP SWAP3 POP SWAP3 JUMP JUMPDEST PUSH1 0x0 PUSH1 0x20 DUP3 DUP5 SUB SLT ISZERO PUSH2 0x27D7 JUMPI PUSH1 0x0 DUP1 REVERT JUMPDEST POP CALLDATALOAD SWAP2 SWAP1 POP JUMP JUMPDEST PUSH1 0x0 DUP1 PUSH1 0x40 DUP4 DUP6 SUB SLT ISZERO PUSH2 0x27F1 JUMPI PUSH1 0x0 DUP1 REVERT JUMPDEST DUP3 CALLDATALOAD SWAP2 POP PUSH2 0x2801 PUSH1 0x20 DUP5 ADD PUSH2 0x276D JUMP JUMPDEST SWAP1 POP SWAP3 POP SWAP3 SWAP1 POP JUMP JUMPDEST DUP1 CALLDATALOAD PUSH1 0x2 DUP2 LT PUSH2 0x2784 JUMPI PUSH1 0x0 DUP1 REVERT JUMPDEST PUSH1 0x0 DUP1 PUSH1 0x40 DUP4 DUP6 SUB SLT ISZERO PUSH2 0x282C JUMPI PUSH1 0x0 DUP1 REVERT JUMPDEST PUSH2 0x2835 DUP4 PUSH2 0x280A JUMP JUMPDEST SWAP5 PUSH1 0x20 SWAP4 SWAP1 SWAP4 ADD CALLDATALOAD SWAP4 POP POP POP JUMP JUMPDEST PUSH1 0x0 PUSH1 0x20 DUP3 DUP5 SUB SLT ISZERO PUSH2 0x2855 JUMPI PUSH1 0x0 DUP1 REVERT JUMPDEST PUSH2 0x16A9 DUP3 PUSH2 0x276D JUMP JUMPDEST PUSH1 0x0 DUP1 PUSH1 0x40 DUP4 DUP6 SUB SLT ISZERO PUSH2 0x2871 JUMPI PUSH1 0x0 DUP1 REVERT JUMPDEST POP POP DUP1 CALLDATALOAD SWAP3 PUSH1 0x20 SWAP1 SWAP2 ADD CALLDATALOAD SWAP2 POP JUMP JUMPDEST PUSH1 0x1 PUSH1 0x1 PUSH1 0xA0 SHL SUB SWAP2 SWAP1 SWAP2 AND DUP2 MSTORE PUSH1 0x20 ADD SWAP1 JUMP JUMPDEST PUSH1 0x0 PUSH1 0x20 DUP3 DUP5 SUB SLT ISZERO PUSH2 0x28A6 JUMPI PUSH1 0x0 DUP1 REVERT JUMPDEST PUSH2 0x16A9 DUP3 PUSH2 0x280A JUMP JUMPDEST PUSH1 0x0 DUP1 DUP3 DUP5 SUB PUSH1 0x60 DUP2 SLT ISZERO PUSH2 0x28C3 JUMPI PUSH1 0x0 DUP1 REVERT JUMPDEST PUSH2 0x28CC DUP5 PUSH2 0x280A JUMP JUMPDEST SWAP3 POP PUSH1 0x40 PUSH1 0x1F NOT DUP3 ADD SLT ISZERO PUSH2 0x28E0 JUMPI PUSH1 0x0 DUP1 REVERT JUMPDEST POP PUSH1 0x40 DUP1 MLOAD SWAP1 DUP2 ADD PUSH1 0x1 PUSH1 0x1 PUSH1 0x40 SHL SUB DUP2 GT DUP3 DUP3 LT OR ISZERO PUSH2 0x2903 JUMPI PUSH2 0x2903 PUSH2 0x2627 JUMP JUMPDEST PUSH1 0x40 SWAP1 DUP2 MSTORE PUSH1 0x20 DUP6 DUP2 ADD CALLDATALOAD DUP4 MSTORE SWAP5 ADD CALLDATALOAD SWAP4 DUP2 ADD SWAP4 SWAP1 SWAP4 MSTORE POP SWAP3 SWAP1 SWAP2 POP JUMP JUMPDEST PUSH1 0x1 PUSH1 0x1 PUSH1 0xA0 SHL SUB SWAP4 DUP5 AND DUP2 MSTORE SWAP2 SWAP1 SWAP3 AND PUSH1 0x20 DUP3 ADD MSTORE PUSH1 0x40 DUP2 ADD SWAP2 SWAP1 SWAP2 MSTORE PUSH1 0x60 ADD SWAP1 JUMP JUMPDEST PUSH1 0x0 DUP1 PUSH1 0x0 DUP1 PUSH1 0x80 DUP6 DUP8 SUB SLT ISZERO PUSH2 0x295B JUMPI PUSH1 0x0 DUP1 REVERT JUMPDEST PUSH2 0x2964 DUP6 PUSH2 0x276D JUMP JUMPDEST SWAP4 POP PUSH2 0x2972 PUSH1 0x20 DUP7 ADD PUSH2 0x276D JUMP JUMPDEST SWAP3 POP PUSH1 0x40 DUP6 ADD CALLDATALOAD SWAP2 POP PUSH1 0x60 DUP6 ADD CALLDATALOAD PUSH1 0xFF DUP2 AND DUP2 EQ PUSH2 0x298F JUMPI PUSH1 0x0 DUP1 REVERT JUMPDEST SWAP4 SWAP7 SWAP3 SWAP6 POP SWAP1 SWAP4 POP POP JUMP JUMPDEST PUSH1 0x1 DUP2 DUP2 SHR SWAP1 DUP3 AND DUP1 PUSH2 0x29AE JUMPI PUSH1 0x7F DUP3 AND SWAP2 POP JUMPDEST PUSH1 0x20 DUP3 LT DUP2 SUB PUSH2 0xEE4 JUMPI PUSH4 0x4E487B71 PUSH1 0xE0 SHL PUSH1 0x0 MSTORE PUSH1 0x22 PUSH1 0x4 MSTORE PUSH1 0x24 PUSH1 0x0 REVERT JUMPDEST PUSH1 0x1F DUP3 GT ISZERO PUSH2 0xA4D JUMPI PUSH1 0x0 DUP2 DUP2 MSTORE PUSH1 0x20 DUP2 KECCAK256 PUSH1 0x1F DUP6 ADD PUSH1 0x5 SHR DUP2 ADD PUSH1 0x20 DUP7 LT ISZERO PUSH2 0x29F5 JUMPI POP DUP1 JUMPDEST PUSH1 0x1F DUP6 ADD PUSH1 0x5 SHR DUP3 ADD SWAP2 POP JUMPDEST DUP2 DUP2 LT ISZERO PUSH2 0xA14 JUMPI DUP3 DUP2 SSTORE PUSH1 0x1 ADD PUSH2 0x2A01 JUMP JUMPDEST DUP2 MLOAD PUSH1 0x1 PUSH1 0x1 PUSH1 0x40 SHL SUB DUP2 GT ISZERO PUSH2 0x2A2D JUMPI PUSH2 0x2A2D PUSH2 0x2627 JUMP JUMPDEST PUSH2 0x2A41 DUP2 PUSH2 0x2A3B DUP5 SLOAD PUSH2 0x299A JUMP JUMPDEST DUP5 PUSH2 0x29CE JUMP JUMPDEST PUSH1 0x20 DUP1 PUSH1 0x1F DUP4 GT PUSH1 0x1 DUP2 EQ PUSH2 0x2A76 JUMPI PUSH1 0x0 DUP5 ISZERO PUSH2 0x2A5E JUMPI POP DUP6 DUP4 ADD MLOAD JUMPDEST PUSH1 0x0 NOT PUSH1 0x3 DUP7 SWAP1 SHL SHR NOT AND PUSH1 0x1 DUP6 SWAP1 SHL OR DUP6 SSTORE PUSH2 0xA14 JUMP JUMPDEST PUSH1 0x0 DUP6 DUP2 MSTORE PUSH1 0x20 DUP2 KECCAK256 PUSH1 0x1F NOT DUP7 AND SWAP2 JUMPDEST DUP3 DUP2 LT ISZERO PUSH2 0x2AA5 JUMPI DUP9 DUP7 ADD MLOAD DUP3 SSTORE SWAP5 DUP5 ADD SWAP5 PUSH1 0x1 SWAP1 SWAP2 ADD SWAP1 DUP5 ADD PUSH2 0x2A86 JUMP JUMPDEST POP DUP6 DUP3 LT ISZERO PUSH2 0x2AC3 JUMPI DUP8 DUP6 ADD MLOAD PUSH1 0x0 NOT PUSH1 0x3 DUP9 SWAP1 SHL PUSH1 0xF8 AND SHR NOT AND DUP2 SSTORE JUMPDEST POP POP POP POP POP PUSH1 0x1 SWAP1 DUP2 SHL ADD SWAP1 SSTORE POP JUMP JUMPDEST PUSH4 0x4E487B71 PUSH1 0xE0 SHL PUSH1 0x0 MSTORE PUSH1 0x21 PUSH1 0x4 MSTORE PUSH1 0x24 PUSH1 0x0 REVERT JUMPDEST PUSH1 0x20 DUP1 DUP3 MSTORE PUSH1 0x28 SWAP1 DUP3 ADD MSTORE PUSH32 0x536F75726365206D75737420626520746865206F7261636C65206F6620746865 PUSH1 0x40 DUP3 ADD MSTORE PUSH8 0x81C995C5D595CDD PUSH1 0xC2 SHL PUSH1 0x60 DUP3 ADD MSTORE PUSH1 0x80 ADD SWAP1 JUMP JUMPDEST PUSH1 0x0 JUMPDEST DUP4 DUP2 LT ISZERO PUSH2 0x2B4C JUMPI DUP2 DUP2 ADD MLOAD DUP4 DUP3 ADD MSTORE PUSH1 0x20 ADD PUSH2 0x2B34 JUMP JUMPDEST POP POP PUSH1 0x0 SWAP2 ADD MSTORE JUMP JUMPDEST PUSH1 0x0 DUP2 MLOAD PUSH2 0x2B67 DUP2 DUP6 PUSH1 0x20 DUP7 ADD PUSH2 0x2B31 JUMP JUMPDEST SWAP3 SWAP1 SWAP3 ADD SWAP3 SWAP2 POP POP JUMP JUMPDEST PUSH1 0x0 DUP3 MLOAD PUSH2 0x2B83 DUP2 DUP5 PUSH1 0x20 DUP8 ADD PUSH2 0x2B31 JUMP JUMPDEST SWAP2 SWAP1 SWAP2 ADD SWAP3 SWAP2 POP POP JUMP JUMPDEST PUSH1 0x0 DUP1 MLOAD PUSH1 0x20 PUSH2 0x315F DUP4 CODECOPY DUP2 MLOAD SWAP2 MSTORE DUP2 MSTORE PUSH12 0x312F71756F74653F7372633D PUSH1 0xA0 SHL PUSH1 0x20 DUP3 ADD MSTORE PUSH1 0x0 DUP5 MLOAD PUSH2 0x2BC8 DUP2 PUSH1 0x2C DUP6 ADD PUSH1 0x20 DUP10 ADD PUSH2 0x2B31 JUMP JUMPDEST PUSH5 0x266473743D PUSH1 0xD8 SHL PUSH1 0x2C SWAP2 DUP5 ADD SWAP2 DUP3 ADD MSTORE DUP5 MLOAD PUSH2 0x2BED DUP2 PUSH1 0x31 DUP5 ADD PUSH1 0x20 DUP10 ADD PUSH2 0x2B31 JUMP JUMPDEST PUSH8 0x26616D6F756E743D PUSH1 0xC0 SHL PUSH1 0x31 SWAP3 SWAP1 SWAP2 ADD SWAP2 DUP3 ADD MSTORE DUP4 MLOAD PUSH2 0x2C16 DUP2 PUSH1 0x39 DUP5 ADD PUSH1 0x20 DUP9 ADD PUSH2 0x2B31 JUMP JUMPDEST ADD PUSH1 0x39 ADD SWAP6 SWAP5 POP POP POP POP POP JUMP JUMPDEST PUSH4 0x4E487B71 PUSH1 0xE0 SHL PUSH1 0x0 MSTORE PUSH1 0x11 PUSH1 0x4 MSTORE PUSH1 0x24 PUSH1 0x0 REVERT JUMPDEST DUP1 DUP3 MUL DUP2 ISZERO DUP3 DUP3 DIV DUP5 EQ OR PUSH2 0x77C JUMPI PUSH2 0x77C PUSH2 0x2C23 JUMP JUMPDEST PUSH4 0x4E487B71 PUSH1 0xE0 SHL PUSH1 0x0 MSTORE PUSH1 0x12 PUSH1 0x4 MSTORE PUSH1 0x24 PUSH1 0x0 REVERT JUMPDEST PUSH1 0x0 DUP3 PUSH2 0x2C75 JUMPI PUSH2 0x2C75 PUSH2 0x2C50 JUMP JUMPDEST POP DIV SWAP1 JUMP JUMPDEST PUSH1 0x0 PUSH1 0x20 DUP3 DUP5 SUB SLT ISZERO PUSH2 0x2C8C JUMPI PUSH1 0x0 DUP1 REVERT JUMPDEST POP MLOAD SWAP2 SWAP1 POP JUMP JUMPDEST PUSH1 0x1 PUSH1 0x1 PUSH1 0xA0 SHL SUB SWAP3 SWAP1 SWAP3 AND DUP3 MSTORE PUSH1 0x20 DUP3 ADD MSTORE PUSH1 0x40 ADD SWAP1 JUMP JUMPDEST PUSH1 0x0 PUSH1 0x20 DUP3 DUP5 SUB SLT ISZERO PUSH2 0x2CBE JUMPI PUSH1 0x0 DUP1 REVERT JUMPDEST DUP2 MLOAD DUP1 ISZERO ISZERO DUP2 EQ PUSH2 0x16A9 JUMPI PUSH1 0x0 DUP1 REVERT JUMPDEST PUSH1 0x0 DUP1 MLOAD PUSH1 0x20 PUSH2 0x315F DUP4 CODECOPY DUP2 MLOAD SWAP2 MSTORE DUP2 MSTORE PUSH11 0x312F737761703F7372633D PUSH1 0xA8 SHL PUSH1 0x20 DUP3 ADD MSTORE PUSH1 0x0 DUP8 MLOAD PUSH2 0x2D08 DUP2 PUSH1 0x2B DUP6 ADD PUSH1 0x20 DUP13 ADD PUSH2 0x2B31 JUMP JUMPDEST PUSH5 0x266473743D PUSH1 0xD8 SHL PUSH1 0x2B SWAP2 DUP5 ADD SWAP2 DUP3 ADD MSTORE DUP8 MLOAD PUSH2 0x2D2D DUP2 PUSH1 0x30 DUP5 ADD PUSH1 0x20 DUP13 ADD PUSH2 0x2B31 JUMP JUMPDEST PUSH8 0x26616D6F756E743D PUSH1 0xC0 SHL PUSH1 0x30 SWAP3 SWAP1 SWAP2 ADD SWAP2 DUP3 ADD MSTORE DUP7 MLOAD PUSH2 0x2D56 DUP2 PUSH1 0x38 DUP5 ADD PUSH1 0x20 DUP12 ADD PUSH2 0x2B31 JUMP JUMPDEST PUSH6 0x2666726F6D3D PUSH1 0xD0 SHL PUSH1 0x38 SWAP3 SWAP1 SWAP2 ADD SWAP2 DUP3 ADD MSTORE DUP6 MLOAD PUSH2 0x2D7D DUP2 PUSH1 0x3E DUP5 ADD PUSH1 0x20 DUP11 ADD PUSH2 0x2B31 JUMP JUMPDEST PUSH10 0x26736C6970706167653D PUSH1 0xB0 SHL PUSH1 0x3E SWAP3 SWAP1 SWAP2 ADD SWAP2 DUP3 ADD MSTORE PUSH2 0x2DE8 PUSH2 0x2DC7 PUSH2 0x2DC1 PUSH2 0x2DAB PUSH1 0x48 DUP6 ADD DUP10 PUSH2 0x2B55 JUMP JUMPDEST PUSH10 0x2672656365697665723D PUSH1 0xB0 SHL DUP2 MSTORE PUSH1 0xA ADD SWAP1 JUMP JUMPDEST DUP7 PUSH2 0x2B55 JUMP JUMPDEST PUSH21 0x2664697361626C65457374696D6174653D74727565 PUSH1 0x58 SHL DUP2 MSTORE PUSH1 0x15 ADD SWAP1 JUMP JUMPDEST SWAP10 SWAP9 POP POP POP POP POP POP POP POP POP JUMP JUMPDEST DUP1 SLOAD PUSH1 0x1 PUSH1 0x1 PUSH1 0xA0 SHL SUB SWAP1 DUP2 AND DUP4 MSTORE PUSH1 0x1 DUP3 ADD SLOAD AND PUSH1 0x20 DUP4 ADD MSTORE PUSH1 0x2 ADD SLOAD PUSH1 0x40 SWAP1 SWAP2 ADD MSTORE JUMP JUMPDEST PUSH2 0x2E25 DUP2 DUP4 PUSH2 0x2DF5 JUMP JUMPDEST PUSH1 0x60 ADD SWAP2 SWAP1 POP JUMP JUMPDEST PUSH1 0x0 PUSH1 0x1 DUP3 ADD PUSH2 0x2E3F JUMPI PUSH2 0x2E3F PUSH2 0x2C23 JUMP JUMPDEST POP PUSH1 0x1 ADD SWAP1 JUMP JUMPDEST PUSH2 0x2E50 DUP2 DUP4 PUSH2 0x2DF5 JUMP JUMPDEST PUSH1 0x3 SWAP2 SWAP1 SWAP2 ADD SLOAD PUSH1 0x60 DUP3 ADD MSTORE PUSH1 0x80 ADD SWAP1 JUMP JUMPDEST PUSH23 0x20B1B1B2B9B9A1B7B73A3937B61D1030B1B1B7BAB73A1 PUSH1 0x4D SHL DUP2 MSTORE PUSH1 0x0 DUP4 MLOAD PUSH2 0x2E94 DUP2 PUSH1 0x17 DUP6 ADD PUSH1 0x20 DUP9 ADD PUSH2 0x2B31 JUMP JUMPDEST PUSH17 0x1034B99036B4B9B9B4B733903937B6329 PUSH1 0x7D SHL PUSH1 0x17 SWAP2 DUP5 ADD SWAP2 DUP3 ADD MSTORE DUP4 MLOAD PUSH2 0x2EC5 DUP2 PUSH1 0x28 DUP5 ADD PUSH1 0x20 DUP9 ADD PUSH2 0x2B31 JUMP JUMPDEST ADD PUSH1 0x28 ADD SWAP5 SWAP4 POP POP POP POP JUMP JUMPDEST PUSH1 0x0 DUP2 MLOAD DUP1 DUP5 MSTORE PUSH2 0x2EE9 DUP2 PUSH1 0x20 DUP7 ADD PUSH1 0x20 DUP7 ADD PUSH2 0x2B31 JUMP JUMPDEST PUSH1 0x1F ADD PUSH1 0x1F NOT AND SWAP3 SWAP1 SWAP3 ADD PUSH1 0x20 ADD SWAP3 SWAP2 POP POP JUMP JUMPDEST PUSH1 0x20 DUP2 MSTORE PUSH1 0x0 PUSH2 0x16A9 PUSH1 0x20 DUP4 ADD DUP5 PUSH2 0x2ED1 JUMP JUMPDEST DUP1 DUP3 ADD DUP1 DUP3 GT ISZERO PUSH2 0x77C JUMPI PUSH2 0x77C PUSH2 0x2C23 JUMP JUMPDEST PUSH4 0x4E487B71 PUSH1 0xE0 SHL PUSH1 0x0 MSTORE PUSH1 0x32 PUSH1 0x4 MSTORE PUSH1 0x24 PUSH1 0x0 REVERT JUMPDEST PUSH1 0x0 DUP2 PUSH2 0x2F48 JUMPI PUSH2 0x2F48 PUSH2 0x2C23 JUMP JUMPDEST POP PUSH1 0x0 NOT ADD SWAP1 JUMP JUMPDEST PUSH1 0x1 DUP1 PUSH1 0xA0 SHL SUB DUP9 AND DUP2 MSTORE DUP7 PUSH1 0x20 DUP3 ADD MSTORE DUP6 PUSH1 0x40 DUP3 ADD MSTORE PUSH4 0xFFFFFFFF PUSH1 0xE0 SHL DUP6 AND PUSH1 0x60 DUP3 ADD MSTORE DUP4 PUSH1 0x80 DUP3 ADD MSTORE DUP3 PUSH1 0xA0 DUP3 ADD MSTORE PUSH1 0xE0 PUSH1 0xC0 DUP3 ADD MSTORE PUSH1 0x0 PUSH2 0x2DE8 PUSH1 0xE0 DUP4 ADD DUP5 PUSH2 0x2ED1 JUMP JUMPDEST DUP2 DUP2 SUB DUP2 DUP2 GT ISZERO PUSH2 0x77C JUMPI PUSH2 0x77C PUSH2 0x2C23 JUMP JUMPDEST PUSH4 0x4E487B71 PUSH1 0xE0 SHL PUSH1 0x0 MSTORE PUSH1 0x31 PUSH1 0x4 MSTORE PUSH1 0x24 PUSH1 0x0 REVERT JUMPDEST PUSH1 0x0 DUP3 PUSH2 0x2FD0 JUMPI PUSH2 0x2FD0 PUSH2 0x2C50 JUMP JUMPDEST POP MOD SWAP1 JUMP JUMPDEST PUSH1 0x1 DUP1 PUSH1 0xA0 SHL SUB DUP5 AND DUP2 MSTORE DUP3 PUSH1 0x20 DUP3 ADD MSTORE PUSH1 0x60 PUSH1 0x40 DUP3 ADD MSTORE PUSH1 0x0 PUSH2 0x2FFC PUSH1 0x60 DUP4 ADD DUP5 PUSH2 0x2ED1 JUMP JUMPDEST SWAP6 SWAP5 POP POP POP POP POP JUMP JUMPDEST PUSH1 0x1 DUP2 DUP2 JUMPDEST DUP1 DUP6 GT ISZERO PUSH2 0x3040 JUMPI DUP2 PUSH1 0x0 NOT DIV DUP3 GT ISZERO PUSH2 0x3026 JUMPI PUSH2 0x3026 PUSH2 0x2C23 JUMP JUMPDEST DUP1 DUP6 AND ISZERO PUSH2 0x3033 JUMPI SWAP2 DUP2 MUL SWAP2 JUMPDEST SWAP4 DUP5 SHR SWAP4 SWAP1 DUP1 MUL SWAP1 PUSH2 0x300A JUMP JUMPDEST POP SWAP3 POP SWAP3 SWAP1 POP JUMP JUMPDEST PUSH1 0x0 DUP3 PUSH2 0x3057 JUMPI POP PUSH1 0x1 PUSH2 0x77C JUMP JUMPDEST DUP2 PUSH2 0x3064 JUMPI POP PUSH1 0x0 PUSH2 0x77C JUMP JUMPDEST DUP2 PUSH1 0x1 DUP2 EQ PUSH2 0x307A JUMPI PUSH1 0x2 DUP2 EQ PUSH2 0x3084 JUMPI PUSH2 0x30A0 JUMP JUMPDEST PUSH1 0x1 SWAP2 POP POP PUSH2 0x77C JUMP JUMPDEST PUSH1 0xFF DUP5 GT ISZERO PUSH2 0x3095 JUMPI PUSH2 0x3095 PUSH2 0x2C23 JUMP JUMPDEST POP POP PUSH1 0x1 DUP3 SHL PUSH2 0x77C JUMP JUMPDEST POP PUSH1 0x20 DUP4 LT PUSH2 0x133 DUP4 LT AND PUSH1 0x4E DUP5 LT PUSH1 0xB DUP5 LT AND OR ISZERO PUSH2 0x30C3 JUMPI POP DUP2 DUP2 EXP PUSH2 0x77C JUMP JUMPDEST PUSH2 0x30CD DUP4 DUP4 PUSH2 0x3005 JUMP JUMPDEST DUP1 PUSH1 0x0 NOT DIV DUP3 GT ISZERO PUSH2 0x30E1 JUMPI PUSH2 0x30E1 PUSH2 0x2C23 JUMP JUMPDEST MUL SWAP4 SWAP3 POP POP POP JUMP JUMPDEST PUSH1 0x0 PUSH2 0x16A9 DUP4 DUP4 PUSH2 0x3048 JUMP INVALID SWAP4 PUSH3 0x7969D6 0xBA EXTCODEHASH 0x21 XOR CREATE2 PUSH21 0xA00F8D1C7FED4282F3728A455E8B3C867B1A1A212B 0xB6 SWAP1 0x4E 0x5F SHL PREVRANDAO 0x22 SWAP15 JUMP MULMOD 0xB6 DUP2 0xFB 0xC2 MLOAD 0x24 MULMOD 0xAF LOG3 0xE5 0xA9 SMOD 0x2D SUB EQ 0x25 PUSH13 0x12668DBE4416464726573733A KECCAK256 PUSH13 0x6F772D6C6576656C2063616C6C KECCAK256 PUSH24 0x6974682076616C7565206661696C656468747470733A2F2F PUSH2 0x7069 0x2E BALANCE PUSH10 0x6E63682E6465762F7377 PUSH2 0x702F PUSH23 0x352E322F17A8E30262C1F919C33056D877A3C22B95C2F5 0xE4 0xDA 0xC4 CHAINID DUP4 0xC1 0xC2 ORIGIN EXTCODECOPY 0xD7 SWAP16 0xBD 0xB0 PUSH29 0xC135E0CEBB02C3480AE5D74D377283180A2601F8F644EDF7987B009316 0xC6 GASPRICE STATICCALL 0xB0 EXP SWAP9 SELFBALANCE SLOAD SWAP6 0xC PUSH18 0x87FB98F39DA0AE224ABBBEE017C1699445AD 0xE NOT SELFBALANCE 0x4A 0x4D LOG2 PUSH5 0x6970667358 0x22 SLT KECCAK256 0xB3 PREVRANDAO DUP5 MUL EQ PUSH6 0xE59716EF5C5C CALLCODE MSTORE8 DUP6 MSIZE 0xD0 PC 0xCB SWAP4 PUSH31 0xC550DEEA9D3C5029D897C064736F6C6343000813003317A8E30262C1F919C3 ADDRESS JUMP 0xD8 PUSH24 0xA3C22B95C2F5E4DAC44683C1C2323CD79FBDB0FAB00A9847 SLOAD SWAP6 0xC PUSH18 0x87FB98F39DA0AE224ABBBEE017C1699445AD 0xE NOT SELFBALANCE 0x4A 0x4D "},"gasEstimates":{"creation":{"codeDepositCost":"2564000","executionCost":"infinite","totalCost":"infinite"},"external":{"DEFAULT_ADMIN_ROLE()":"591","ONE_INCH_ETH_ADDRESS()":"702","QUOTE_AUTHORIZED_ROLE()":"infinite","STRATEGIST_ROLE()":"infinite","SWAP_AUTHORIZED_ROLE()":"infinite","addSubscriber(address)":"infinite","aggregationRouter()":"infinite","fulfillQuote()":"infinite","fulfillSwap()":"infinite","getFeeInHundredthsOfLink(uint8)":"infinite","getOracleAddress()":"infinite","getRoleAdmin(bytes32)":"2525","grantRole(bytes32,address)":"infinite","hasRole(bytes32,address)":"3003","isReadyToFulfillQuote()":"2794","isReadyToFulfillSwap()":"2871","jobInfos(uint256)":"5259","oracleAddress()":"2801","quoteBuffer()":"9128","registerQuoteRequest(bytes32,uint256)":"75647","registerSwapCalldata(bytes32,bytes)":"infinite","removeSubscriber(address)":"infinite","renounceRole(bytes32,address)":"29105","requestQuote(address,address,uint256)":"infinite","requestSwap(address,address,uint256,uint8)":"infinite","revokeRole(bytes32,address)":"infinite","setFeeInHundredthsOfLink(uint8,uint256)":"infinite","setJobInfo(uint8,(bytes32,uint256))":"infinite","setOracleAddress(address)":"infinite","strategistFulfillQuote(uint256)":"infinite","strategistFulfillSwap(bytes)":"infinite","subscriberAt(uint256)":"5004","subscribersLength()":"2634","supportsInterface(bytes4)":"426","swapBuffer()":"7252","withdrawLink()":"infinite"},"internal":{"_fulfillQuoteRequest()":"infinite","_fulfillSwap()":"infinite","_setMaxAllowancesIfNeededAndCheckPayment(address,uint256,address)":"infinite"}},"methodIdentifiers":{"DEFAULT_ADMIN_ROLE()":"a217fddf","ONE_INCH_ETH_ADDRESS()":"aaeafd56","QUOTE_AUTHORIZED_ROLE()":"e05d6bf2","STRATEGIST_ROLE()":"a378a324","SWAP_AUTHORIZED_ROLE()":"4e0c6133","addSubscriber(address)":"94555d1a","aggregationRouter()":"fcdfd946","fulfillQuote()":"dc39b19a","fulfillSwap()":"eaad47b2","getFeeInHundredthsOfLink(uint8)":"b6761cb8","getOracleAddress()":"b18b78dd","getRoleAdmin(bytes32)":"248a9ca3","grantRole(bytes32,address)":"2f2ff15d","hasRole(bytes32,address)":"91d14854","isReadyToFulfillQuote()":"ab3c322d","isReadyToFulfillSwap()":"c0d2e37f","jobInfos(uint256)":"e75d763f","oracleAddress()":"a89ae4ba","quoteBuffer()":"81777a3d","registerQuoteRequest(bytes32,uint256)":"4e22e31e","registerSwapCalldata(bytes32,bytes)":"02458ad8","removeSubscriber(address)":"627c34ad","renounceRole(bytes32,address)":"36568abe","requestQuote(address,address,uint256)":"1a5b4207","requestSwap(address,address,uint256,uint8)":"f09922ff","revokeRole(bytes32,address)":"d547741f","setFeeInHundredthsOfLink(uint8,uint256)":"4ab5c503","setJobInfo(uint8,(bytes32,uint256))":"be555a80","setOracleAddress(address)":"4c69c00f","strategistFulfillQuote(uint256)":"50c284b3","strategistFulfillSwap(bytes)":"01a76f59","subscriberAt(uint256)":"6ccf5b01","subscribersLength()":"66b8455b","supportsInterface(bytes4)":"01ffc9a7","swapBuffer()":"d9ff478f","withdrawLink()":"8dc654a2"}},"storageLayout":{"storage":[{"astId":2200,"contract":"contracts/utils/SwapHelper.sol:SwapHelper","label":"_roles","offset":0,"slot":"0","type":"t_mapping(t_bytes32,t_struct(RoleData)2195_storage)"},{"astId":319,"contract":"contracts/utils/SwapHelper.sol:SwapHelper","label":"s_ens","offset":0,"slot":"1","type":"t_contract(ENSInterface)974"},{"astId":321,"contract":"contracts/utils/SwapHelper.sol:SwapHelper","label":"s_ensNode","offset":0,"slot":"2","type":"t_bytes32"},{"astId":324,"contract":"contracts/utils/SwapHelper.sol:SwapHelper","label":"s_link","offset":0,"slot":"3","type":"t_contract(LinkTokenInterface)1069"},{"astId":327,"contract":"contracts/utils/SwapHelper.sol:SwapHelper","label":"s_oracle","offset":0,"slot":"4","type":"t_contract(OperatorInterface)1149"},{"astId":330,"contract":"contracts/utils/SwapHelper.sol:SwapHelper","label":"s_requestCount","offset":0,"slot":"5","type":"t_uint256"},{"astId":334,"contract":"contracts/utils/SwapHelper.sol:SwapHelper","label":"s_pendingRequests","offset":0,"slot":"6","type":"t_mapping(t_bytes32,t_address)"},{"astId":5413,"contract":"contracts/utils/SwapHelper.sol:SwapHelper","label":"oracleAddress","offset":0,"slot":"7","type":"t_address"},{"astId":5416,"contract":"contracts/utils/SwapHelper.sol:SwapHelper","label":"quoteBuffer","offset":0,"slot":"8","type":"t_struct(QuoteInfo)5354_storage"},{"astId":5419,"contract":"contracts/utils/SwapHelper.sol:SwapHelper","label":"swapBuffer","offset":0,"slot":"12","type":"t_struct(SwapInfo)5348_storage"},{"astId":5421,"contract":"contracts/utils/SwapHelper.sol:SwapHelper","label":"isReadyToFulfillSwap","offset":0,"slot":"15","type":"t_bool"},{"astId":5423,"contract":"contracts/utils/SwapHelper.sol:SwapHelper","label":"isReadyToFulfillQuote","offset":1,"slot":"15","type":"t_bool"},{"astId":5428,"contract":"contracts/utils/SwapHelper.sol:SwapHelper","label":"jobInfos","offset":0,"slot":"16","type":"t_mapping(t_uint256,t_struct(JobInfo)5341_storage)"},{"astId":5430,"contract":"contracts/utils/SwapHelper.sol:SwapHelper","label":"_lastSwapCalldata","offset":0,"slot":"17","type":"t_bytes_storage"},{"astId":5433,"contract":"contracts/utils/SwapHelper.sol:SwapHelper","label":"_subscribers","offset":0,"slot":"18","type":"t_struct(AddressSet)4968_storage"}],"types":{"t_address":{"encoding":"inplace","label":"address","numberOfBytes":"20"},"t_array(t_bytes32)dyn_storage":{"base":"t_bytes32","encoding":"dynamic_array","label":"bytes32[]","numberOfBytes":"32"},"t_bool":{"encoding":"inplace","label":"bool","numberOfBytes":"1"},"t_bytes32":{"encoding":"inplace","label":"bytes32","numberOfBytes":"32"},"t_bytes_storage":{"encoding":"bytes","label":"bytes","numberOfBytes":"32"},"t_contract(ENSInterface)974":{"encoding":"inplace","label":"contract ENSInterface","numberOfBytes":"20"},"t_contract(LinkTokenInterface)1069":{"encoding":"inplace","label":"contract LinkTokenInterface","numberOfBytes":"20"},"t_contract(OperatorInterface)1149":{"encoding":"inplace","label":"contract OperatorInterface","numberOfBytes":"20"},"t_mapping(t_address,t_bool)":{"encoding":"mapping","key":"t_address","label":"mapping(address => bool)","numberOfBytes":"32","value":"t_bool"},"t_mapping(t_bytes32,t_address)":{"encoding":"mapping","key":"t_bytes32","label":"mapping(bytes32 => address)","numberOfBytes":"32","value":"t_address"},"t_mapping(t_bytes32,t_struct(RoleData)2195_storage)":{"encoding":"mapping","key":"t_bytes32","label":"mapping(bytes32 => struct AccessControl.RoleData)","numberOfBytes":"32","value":"t_struct(RoleData)2195_storage"},"t_mapping(t_bytes32,t_uint256)":{"encoding":"mapping","key":"t_bytes32","label":"mapping(bytes32 => uint256)","numberOfBytes":"32","value":"t_uint256"},"t_mapping(t_uint256,t_struct(JobInfo)5341_storage)":{"encoding":"mapping","key":"t_uint256","label":"mapping(uint256 => struct SwapHelper.JobInfo)","numberOfBytes":"32","value":"t_struct(JobInfo)5341_storage"},"t_struct(AddressSet)4968_storage":{"encoding":"inplace","label":"struct EnumerableSet.AddressSet","members":[{"astId":4967,"contract":"contracts/utils/SwapHelper.sol:SwapHelper","label":"_inner","offset":0,"slot":"0","type":"t_struct(Set)4653_storage"}],"numberOfBytes":"64"},"t_struct(JobInfo)5341_storage":{"encoding":"inplace","label":"struct SwapHelper.JobInfo","members":[{"astId":5338,"contract":"contracts/utils/SwapHelper.sol:SwapHelper","label":"jobId","offset":0,"slot":"0","type":"t_bytes32"},{"astId":5340,"contract":"contracts/utils/SwapHelper.sol:SwapHelper","label":"jobFeeInJuels","offset":0,"slot":"1","type":"t_uint256"}],"numberOfBytes":"64"},"t_struct(QuoteInfo)5354_storage":{"encoding":"inplace","label":"struct SwapHelper.QuoteInfo","members":[{"astId":5351,"contract":"contracts/utils/SwapHelper.sol:SwapHelper","label":"swapInfo","offset":0,"slot":"0","type":"t_struct(SwapInfo)5348_storage"},{"astId":5353,"contract":"contracts/utils/SwapHelper.sol:SwapHelper","label":"outAmount","offset":0,"slot":"3","type":"t_uint256"}],"numberOfBytes":"128"},"t_struct(RoleData)2195_storage":{"encoding":"inplace","label":"struct AccessControl.RoleData","members":[{"astId":2192,"contract":"contracts/utils/SwapHelper.sol:SwapHelper","label":"members","offset":0,"slot":"0","type":"t_mapping(t_address,t_bool)"},{"astId":2194,"contract":"contracts/utils/SwapHelper.sol:SwapHelper","label":"adminRole","offset":0,"slot":"1","type":"t_bytes32"}],"numberOfBytes":"64"},"t_struct(Set)4653_storage":{"encoding":"inplace","label":"struct EnumerableSet.Set","members":[{"astId":4648,"contract":"contracts/utils/SwapHelper.sol:SwapHelper","label":"_values","offset":0,"slot":"0","type":"t_array(t_bytes32)dyn_storage"},{"astId":4652,"contract":"contracts/utils/SwapHelper.sol:SwapHelper","label":"_indexes","offset":0,"slot":"1","type":"t_mapping(t_bytes32,t_uint256)"}],"numberOfBytes":"64"},"t_struct(SwapInfo)5348_storage":{"encoding":"inplace","label":"struct SwapHelper.SwapInfo","members":[{"astId":5343,"contract":"contracts/utils/SwapHelper.sol:SwapHelper","label":"srcToken","offset":0,"slot":"0","type":"t_address"},{"astId":5345,"contract":"contracts/utils/SwapHelper.sol:SwapHelper","label":"dstToken","offset":0,"slot":"1","type":"t_address"},{"astId":5347,"contract":"contracts/utils/SwapHelper.sol:SwapHelper","label":"inAmount","offset":0,"slot":"2","type":"t_uint256"}],"numberOfBytes":"96"},"t_uint256":{"encoding":"inplace","label":"uint256","numberOfBytes":"32"}}},"userdoc":{"kind":"user","methods":{},"version":1}}}}