{
  "_format": "hh-sol-artifact-1",
  "contractName": "Migration",
  "sourceName": "contracts/Migration.sol",
  "abi": [
    {
      "inputs": [
        {
          "internalType": "address",
          "name": "_vaultV1",
          "type": "address"
        },
        {
          "internalType": "address",
          "name": "_vaultV2",
          "type": "address"
        },
        {
          "internalType": "address[]",
          "name": "_users",
          "type": "address[]"
        },
        {
          "internalType": "address",
          "name": "_treasury",
          "type": "address"
        }
      ],
      "stateMutability": "nonpayable",
      "type": "constructor"
    },
    {
      "anonymous": false,
      "inputs": [
        {
          "indexed": true,
          "internalType": "address",
          "name": "previousOwner",
          "type": "address"
        },
        {
          "indexed": true,
          "internalType": "address",
          "name": "newOwner",
          "type": "address"
        }
      ],
      "name": "OwnershipTransferred",
      "type": "event"
    },
    {
      "inputs": [
        {
          "internalType": "address[]",
          "name": "_newUsers",
          "type": "address[]"
        }
      ],
      "name": "addUsers",
      "outputs": [],
      "stateMutability": "nonpayable",
      "type": "function"
    },
    {
      "inputs": [],
      "name": "deposit",
      "outputs": [],
      "stateMutability": "nonpayable",
      "type": "function"
    },
    {
      "inputs": [],
      "name": "emergencyExit",
      "outputs": [],
      "stateMutability": "nonpayable",
      "type": "function"
    },
    {
      "inputs": [
        {
          "internalType": "uint256",
          "name": "",
          "type": "uint256"
        }
      ],
      "name": "notWithdrawedUsers",
      "outputs": [
        {
          "internalType": "address",
          "name": "",
          "type": "address"
        }
      ],
      "stateMutability": "view",
      "type": "function"
    },
    {
      "inputs": [],
      "name": "owner",
      "outputs": [
        {
          "internalType": "address",
          "name": "",
          "type": "address"
        }
      ],
      "stateMutability": "view",
      "type": "function"
    },
    {
      "inputs": [],
      "name": "renounceOwnership",
      "outputs": [],
      "stateMutability": "nonpayable",
      "type": "function"
    },
    {
      "inputs": [],
      "name": "token",
      "outputs": [
        {
          "internalType": "contract IERC20",
          "name": "",
          "type": "address"
        }
      ],
      "stateMutability": "view",
      "type": "function"
    },
    {
      "inputs": [
        {
          "internalType": "address",
          "name": "newOwner",
          "type": "address"
        }
      ],
      "name": "transferOwnership",
      "outputs": [],
      "stateMutability": "nonpayable",
      "type": "function"
    },
    {
      "inputs": [],
      "name": "treasury",
      "outputs": [
        {
          "internalType": "address",
          "name": "",
          "type": "address"
        }
      ],
      "stateMutability": "view",
      "type": "function"
    },
    {
      "inputs": [
        {
          "internalType": "uint256",
          "name": "",
          "type": "uint256"
        }
      ],
      "name": "users",
      "outputs": [
        {
          "internalType": "address",
          "name": "",
          "type": "address"
        }
      ],
      "stateMutability": "view",
      "type": "function"
    },
    {
      "inputs": [],
      "name": "vaultV1",
      "outputs": [
        {
          "internalType": "contract IVaultV1",
          "name": "",
          "type": "address"
        }
      ],
      "stateMutability": "view",
      "type": "function"
    },
    {
      "inputs": [],
      "name": "vaultV2",
      "outputs": [
        {
          "internalType": "contract IVault",
          "name": "",
          "type": "address"
        }
      ],
      "stateMutability": "view",
      "type": "function"
    },
    {
      "inputs": [],
      "name": "withdraw",
      "outputs": [],
      "stateMutability": "nonpayable",
      "type": "function"
    },
    {
      "inputs": [],
      "name": "withdrawUsersWithDetectedError",
      "outputs": [],
      "stateMutability": "nonpayable",
      "type": "function"
    }
  ],
  "bytecode": "0x60806040523480156200001157600080fd5b506040516200155c3803806200155c83398101604081905262000034916200033f565b6200003f336200022d565b60018055600280546001600160a01b038087166001600160a01b03199283161790925560038054928616929091169190911790558151620000889060069060208501906200027d565b50600260009054906101000a90046001600160a01b03166001600160a01b031663fc0c546a6040518163ffffffff1660e01b8152600401602060405180830381865afa158015620000dd573d6000803e3d6000fd5b505050506040513d601f19601f8201168201806040525081019062000103919062000452565b600480546001600160a01b03199081166001600160a01b039384169081178355600580549092168585161790915560035460405163095ea7b360e01b815293169183019190915260001960248301529063095ea7b3906044016020604051808303816000875af11580156200017c573d6000803e3d6000fd5b505050506040513d601f19601f82011682018060405250810190620001a2919062000479565b506004805460055460405163095ea7b360e01b81526001600160a01b03918216938101939093526000196024840152169063095ea7b3906044016020604051808303816000875af1158015620001fc573d6000803e3d6000fd5b505050506040513d601f19601f8201168201806040525081019062000222919062000479565b50505050506200049d565b600080546001600160a01b038381166001600160a01b0319831681178455604051919092169283917f8be0079c531659141344cd1fd0a4f28419497f9722a3daafe3b4186f6b6457e09190a35050565b828054828255906000526020600020908101928215620002d5579160200282015b82811115620002d557825182546001600160a01b0319166001600160a01b039091161782556020909201916001909101906200029e565b50620002e3929150620002e7565b5090565b5b80821115620002e35760008155600101620002e8565b6001600160a01b03811681146200031457600080fd5b50565b80516200032481620002fe565b919050565b634e487b7160e01b600052604160045260246000fd5b600080600080608085870312156200035657600080fd5b84516200036381620002fe565b809450506020808601516200037881620002fe565b60408701519094506001600160401b03808211156200039657600080fd5b818801915088601f830112620003ab57600080fd5b815181811115620003c057620003c062000329565b8060051b604051601f19603f83011681018181108582111715620003e857620003e862000329565b60405291825284820192508381018501918b8311156200040757600080fd5b938501935b828510156200043057620004208562000317565b845293850193928501926200040c565b809750505050505050620004476060860162000317565b905092959194509250565b6000602082840312156200046557600080fd5b81516200047281620002fe565b9392505050565b6000602082840312156200048c57600080fd5b815180151581146200047257600080fd5b6110af80620004ad6000396000f3fe608060405234801561001057600080fd5b50600436106100ba5760003560e01c80631ee00bc3146100bf578063365b98b2146100e85780633ccfd60b146100fb5780635641ec03146101055780635eb9bad61461010d57806361d027b314610120578063700c947414610133578063715018a6146101465780638c7e81ce1461014e5780638da5cb5b14610156578063d0e30db01461015e578063d959731314610166578063f2fde38b14610179578063fc0c546a1461018c575b600080fd5b6002546100d2906001600160a01b031681565b6040516100df9190610e44565b60405180910390f35b6100d26100f6366004610e58565b61019f565b6101036101c9565b005b6101036105ce565b6003546100d2906001600160a01b031681565b6005546100d2906001600160a01b031681565b610103610141366004610ea3565b610797565b610103610810565b610103610822565b6100d2610b71565b610103610b80565b6100d2610174366004610e58565b610c48565b610103610187366004610f67565b610c58565b6004546100d2906001600160a01b031681565b600681815481106101af57600080fd5b6000918252602090912001546001600160a01b0316905081565b6101d1610cd3565b60005b6006548110156104cf57600254600680546000926001600160a01b0316916370a08231918590811061020857610208610f89565b6000918252602090912001546040516001600160e01b031960e084901b16815261023e916001600160a01b031690600401610e44565b602060405180830381865afa15801561025b573d6000803e3d6000fd5b505050506040513d601f19601f8201168201806040525081019061027f9190610f9f565b90508060000361028f57506104bd565b6002546006805483926001600160a01b03169163dd62ed3e91869081106102b8576102b8610f89565b6000918252602090912001546040516001600160e01b031960e084901b1681526102f0916001600160a01b0316903090600401610fb8565b602060405180830381865afa15801561030d573d6000803e3d6000fd5b505050506040513d601f19601f820116820180604052508101906103319190610f9f565b10156103c2576103676006838154811061034d5761034d610f89565b6000918252602090912001546001600160a01b0316610d2c565b6103bc5760086006838154811061038057610380610f89565b60009182526020808320909101548354600181018555938352912090910180546001600160a01b0319166001600160a01b039092169190911790555b506104bd565b600254600680546001600160a01b03909216916323b872dd9190859081106103ec576103ec610f89565b6000918252602090912001546040516001600160e01b031960e084901b168152610426916001600160a01b03169030908690600401610fd2565b6020604051808303816000875af1158015610445573d6000803e3d6000fd5b505050506040513d601f19601f820116820180604052508101906104699190610ff6565b5080600760006006858154811061048257610482610f89565b60009182526020808320909101546001600160a01b03168352820192909252604001812080549091906104b690849061102e565b9091555050505b806104c781611047565b9150506101d4565b506002546040516370a0823160e01b81526000916001600160a01b0316906370a0823190610501903090600401610e44565b602060405180830381865afa15801561051e573d6000803e3d6000fd5b505050506040513d601f19601f820116820180604052508101906105429190610f9f565b11156105c357600260009054906101000a90046001600160a01b03166001600160a01b0316633ccfd60b6040518163ffffffff1660e01b81526004016020604051808303816000875af115801561059d573d6000803e3d6000fd5b505050506040513d601f19601f820116820180604052508101906105c19190610f9f565b505b6105cc60018055565b565b6105d6610d95565b600480546005546040516370a0823160e01b81526001600160a01b039283169363a9059cbb939092169184916370a082319161061491309101610e44565b602060405180830381865afa158015610631573d6000803e3d6000fd5b505050506040513d601f19601f820116820180604052508101906106559190610f9f565b6040518363ffffffff1660e01b8152600401610672929190611060565b6020604051808303816000875af1158015610691573d6000803e3d6000fd5b505050506040513d601f19601f820116820180604052508101906106b59190610ff6565b506003546005546040516370a0823160e01b81526001600160a01b039283169263a9059cbb92169083906370a08231906106f3903090600401610e44565b602060405180830381865afa158015610710573d6000803e3d6000fd5b505050506040513d601f19601f820116820180604052508101906107349190610f9f565b6040518363ffffffff1660e01b8152600401610751929190611060565b6020604051808303816000875af1158015610770573d6000803e3d6000fd5b505050506040513d601f19601f820116820180604052508101906107949190610ff6565b50565b61079f610d95565b60005b815181101561080c5760068282815181106107bf576107bf610f89565b60209081029190910181015182546001810184556000938452919092200180546001600160a01b0319166001600160a01b039092169190911790558061080481611047565b9150506107a2565b5050565b610818610d95565b6105cc6000610df4565b61082a610cd3565b60005b600854811015610b1b5760006001600160a01b03166008828154811061085557610855610f89565b6000918252602090912001546001600160a01b031614610b0957600254600880546000926001600160a01b0316916370a08231918590811061089957610899610f89565b6000918252602090912001546040516001600160e01b031960e084901b1681526108cf916001600160a01b031690600401610e44565b602060405180830381865afa1580156108ec573d6000803e3d6000fd5b505050506040513d601f19601f820116820180604052508101906109109190610f9f565b90508015806109be57506002546008805483926001600160a01b03169163dd62ed3e918690811061094357610943610f89565b6000918252602090912001546040516001600160e01b031960e084901b16815261097b916001600160a01b0316903090600401610fb8565b602060405180830381865afa158015610998573d6000803e3d6000fd5b505050506040513d601f19601f820116820180604052508101906109bc9190610f9f565b105b156109c95750610b09565b600254600880546001600160a01b03909216916323b872dd9190859081106109f3576109f3610f89565b6000918252602090912001546040516001600160e01b031960e084901b168152610a2d916001600160a01b03169030908690600401610fd2565b6020604051808303816000875af1158015610a4c573d6000803e3d6000fd5b505050506040513d601f19601f82011682018060405250810190610a709190610ff6565b50806007600060088581548110610a8957610a89610f89565b60009182526020808320909101546001600160a01b0316835282019290925260400181208054909190610abd90849061102e565b92505081905550600060088381548110610ad957610ad9610f89565b9060005260206000200160006101000a8154816001600160a01b0302191690836001600160a01b03160217905550505b80610b1381611047565b91505061082d565b50600260009054906101000a90046001600160a01b03166001600160a01b0316633ccfd60b6040518163ffffffff1660e01b81526004016020604051808303816000875af115801561059d573d6000803e3d6000fd5b6000546001600160a01b031690565b610b88610cd3565b600354600480546040516370a0823160e01b81526001600160a01b0393841693636e553f65939216916370a0823191610bc391309101610e44565b602060405180830381865afa158015610be0573d6000803e3d6000fd5b505050506040513d601f19601f82011682018060405250810190610c049190610f9f565b6040516001600160e01b031960e084901b16815260048101919091523060248201526044016020604051808303816000875af115801561059d573d6000803e3d6000fd5b600881815481106101af57600080fd5b610c60610d95565b6001600160a01b038116610cca5760405162461bcd60e51b815260206004820152602660248201527f4f776e61626c653a206e6577206f776e657220697320746865207a65726f206160448201526564647265737360d01b60648201526084015b60405180910390fd5b61079481610df4565b600260015403610d255760405162461bcd60e51b815260206004820152601f60248201527f5265656e7472616e637947756172643a207265656e7472616e742063616c6c006044820152606401610cc1565b6002600155565b6000805b600854811015610d8c57826001600160a01b031660088281548110610d5757610d57610f89565b6000918252602090912001546001600160a01b031603610d7a5750600192915050565b80610d8481611047565b915050610d30565b50600092915050565b33610d9e610b71565b6001600160a01b0316146105cc5760405162461bcd60e51b815260206004820181905260248201527f4f776e61626c653a2063616c6c6572206973206e6f7420746865206f776e65726044820152606401610cc1565b600080546001600160a01b038381166001600160a01b0319831681178455604051919092169283917f8be0079c531659141344cd1fd0a4f28419497f9722a3daafe3b4186f6b6457e09190a35050565b6001600160a01b0391909116815260200190565b600060208284031215610e6a57600080fd5b5035919050565b634e487b7160e01b600052604160045260246000fd5b80356001600160a01b0381168114610e9e57600080fd5b919050565b60006020808385031215610eb657600080fd5b82356001600160401b0380821115610ecd57600080fd5b818501915085601f830112610ee157600080fd5b813581811115610ef357610ef3610e71565b8060051b604051601f19603f83011681018181108582111715610f1857610f18610e71565b604052918252848201925083810185019188831115610f3657600080fd5b938501935b82851015610f5b57610f4c85610e87565b84529385019392850192610f3b565b98975050505050505050565b600060208284031215610f7957600080fd5b610f8282610e87565b9392505050565b634e487b7160e01b600052603260045260246000fd5b600060208284031215610fb157600080fd5b5051919050565b6001600160a01b0392831681529116602082015260400190565b6001600160a01b039384168152919092166020820152604081019190915260600190565b60006020828403121561100857600080fd5b81518015158114610f8257600080fd5b634e487b7160e01b600052601160045260246000fd5b8082018082111561104157611041611018565b92915050565b60006001820161105957611059611018565b5060010190565b6001600160a01b0392909216825260208201526040019056fea2646970667358221220676d5e32637ef98c2af0eaa98a9bbbaf17cd36e601ca2f260e5d39a33062614c64736f6c63430008130033",
  "linkReferences": {},
  "deployedLinkReferences": {}
}