{
  "_format": "hh-sol-artifact-1",
  "contractName": "EmergencyUniswapV3SwapHelper",
  "sourceName": "contracts/utils/swaps/EmergencyDEXSwapHelper.sol",
  "abi": [
    {
      "inputs": [
        {
          "internalType": "address",
          "name": "_oraclizedSwapHelper",
          "type": "address"
        }
      ],
      "stateMutability": "nonpayable",
      "type": "constructor"
    },
    {
      "inputs": [
        {
          "internalType": "address",
          "name": "src",
          "type": "address"
        },
        {
          "internalType": "address",
          "name": "dst",
          "type": "address"
        }
      ],
      "name": "CannotFindPoolAddressFor",
      "type": "error"
    },
    {
      "inputs": [],
      "name": "OnlyOraclizedSwapHelper",
      "type": "error"
    },
    {
      "inputs": [],
      "name": "T",
      "type": "error"
    },
    {
      "inputs": [],
      "name": "oraclizedSwapHelper",
      "outputs": [
        {
          "internalType": "address",
          "name": "",
          "type": "address"
        }
      ],
      "stateMutability": "view",
      "type": "function"
    },
    {
      "inputs": [
        {
          "internalType": "address",
          "name": "src",
          "type": "address"
        },
        {
          "internalType": "address",
          "name": "dst",
          "type": "address"
        },
        {
          "internalType": "uint256",
          "name": "amount",
          "type": "uint256"
        }
      ],
      "name": "requestQuote",
      "outputs": [
        {
          "internalType": "uint256",
          "name": "amountOut",
          "type": "uint256"
        }
      ],
      "stateMutability": "nonpayable",
      "type": "function"
    },
    {
      "inputs": [
        {
          "internalType": "address",
          "name": "src",
          "type": "address"
        },
        {
          "internalType": "address",
          "name": "dst",
          "type": "address"
        },
        {
          "internalType": "uint256",
          "name": "amount",
          "type": "uint256"
        },
        {
          "internalType": "uint8",
          "name": "slippage",
          "type": "uint8"
        }
      ],
      "name": "requestSwap",
      "outputs": [],
      "stateMutability": "payable",
      "type": "function"
    }
  ],
  "bytecode": "0x608060405234801561001057600080fd5b5060405161108038038061108083398101604081905261002f91610054565b600080546001600160a01b0319166001600160a01b0392909216919091179055610084565b60006020828403121561006657600080fd5b81516001600160a01b038116811461007d57600080fd5b9392505050565b610fed806100936000396000f3fe6080604052600436106100345760003560e01c80631a5b42071461003957806372fb4c761461006c578063f09922ff146100a4575b600080fd5b34801561004557600080fd5b50610059610054366004610b9d565b6100b9565b6040519081526020015b60405180910390f35b34801561007857600080fd5b5060005461008c906001600160a01b031681565b6040516001600160a01b039091168152602001610063565b6100b76100b2366004610bde565b610410565b005b600080546001600160a01b031633146100e55760405163b794fdfb60e01b815260040160405180910390fd5b6001600160a01b03841673c5102fe9359fd9a28f877a67e36b0f050d81a3cc14801561012d57506001600160a01b0383167382af49447d8a07e3bd95bd0d56f35241523fbab1145b8061017b57506001600160a01b03831673c5102fe9359fd9a28f877a67e36b0f050d81a3cc14801561017b57506001600160a01b0384167382af49447d8a07e3bd95bd0d56f35241523fbab1145b156101a7576101a08484847344ca2be2bd6a7203ccdbb63eed8382274f737a15610441565b9050610409565b6001600160a01b0384167382af49447d8a07e3bd95bd0d56f35241523fbab11480156101ef57506001600160a01b03831673ff970a61a04b1ca14834a43f5de4533ebddb5cc8145b8061023d57506001600160a01b0383167382af49447d8a07e3bd95bd0d56f35241523fbab114801561023d57506001600160a01b03841673ff970a61a04b1ca14834a43f5de4533ebddb5cc8145b15610262576101a084848473c31e54c7a869b9fcbecc14363cf510d1c41fa443610441565b6001600160a01b03841673eeeeeeeeeeeeeeeeeeeeeeeeeeeeeeeeeeeeeeee1480156102aa57506001600160a01b03831673ff970a61a04b1ca14834a43f5de4533ebddb5cc8145b806102f857506001600160a01b03831673eeeeeeeeeeeeeeeeeeeeeeeeeeeeeeeeeeeeeeee1480156102f857506001600160a01b03841673ff970a61a04b1ca14834a43f5de4533ebddb5cc8145b1561031d576101a084848473c6962004f452be9203591991d15f6b388e09e8d0610441565b6001600160a01b038416738f3cf7ad23cd3cadbd9735aff958023239c6a06314801561036557506001600160a01b03831673ff970a61a04b1ca14834a43f5de4533ebddb5cc8145b806103b357506001600160a01b038316738f3cf7ad23cd3cadbd9735aff958023239c6a0631480156103b357506001600160a01b03841673ff970a61a04b1ca14834a43f5de4533ebddb5cc8145b156103d8576101a0848484735645dcb64c059aa11212707fbf4e7f984440a8cf610441565b604051638cc8e44560e01b81526001600160a01b038086166004830152841660248201526044015b60405180910390fd5b9392505050565b6000546001600160a01b0316331461043b5760405163b794fdfb60e01b815260040160405180910390fd5b50505050565b60008061045083610708610469565b50905061045f818588886106b2565b9695505050505050565b6000808263ffffffff166000036104a75760405162461bcd60e51b8152602060048201526002602482015261042560f41b6044820152606401610400565b60408051600280825260608201835260009260208301908036833701905050905083816000815181106104dc576104dc610c4d565b602002602001019063ffffffff16908163ffffffff168152505060008160018151811061050b5761050b610c4d565b602002602001019063ffffffff16908163ffffffff1681525050600080866001600160a01b031663883bdbfd846040518263ffffffff1660e01b81526004016105549190610c63565b600060405180830381865afa158015610571573d6000803e3d6000fd5b505050506040513d6000823e601f3d908101601f191682016040526105999190810190610d74565b915091506000826000815181106105b2576105b2610c4d565b6020026020010151836001815181106105cd576105cd610c4d565b60200260200101516105df9190610e55565b90506000826000815181106105f6576105f6610c4d565b60200260200101518360018151811061061157610611610c4d565b60200260200101516106239190610e88565b905061063563ffffffff891683610ec5565b965060008260060b12801561065b575061065563ffffffff891683610f03565b60060b15155b1561066e578661066a81610f25565b9750505b60006106876001600160a01b0363ffffffff8b16610f48565b90506106a3600160201b600160c01b03602084901b1682610f7a565b96505050505050509250929050565b6000806106be866107bb565b90506001600160801b036001600160a01b038216116107445760006106ec6001600160a01b03831680610fa0565b9050836001600160a01b0316856001600160a01b0316106107245761071f600160c01b876001600160801b031683610ad3565b61073c565b61073c81876001600160801b0316600160c01b610ad3565b9250506107b2565b600061075e6001600160a01b03831680600160401b610ad3565b9050836001600160a01b0316856001600160a01b03161061079657610791600160801b876001600160801b031683610ad3565b6107ae565b6107ae81876001600160801b0316600160801b610ad3565b9250505b50949350505050565b60008060008360020b126107d2578260020b6107da565b8260020b6000035b9050620d89e8811115610800576040516315e4079d60e11b815260040160405180910390fd5b60008160011660000361081757600160801b610829565b6ffffcb933bd6fad37aa2d162d1a5940015b6001600160881b031690506002821615610853576ffff97272373d413259a46990580e213a0260801c5b6004821615610872576ffff2e50f5f656932ef12357cf3c7fdcc0260801c5b6008821615610891576fffe5caca7e10e4e61c3624eaa0941cd00260801c5b60108216156108b0576fffcb9843d60f6159c9db58835c9266440260801c5b60208216156108cf576fff973b41fa98c081472e6896dfb254c00260801c5b60408216156108ee576fff2ea16466c96a3843ec78b326b528610260801c5b608082161561090d576ffe5dee046a99a2a811c461f1969c30530260801c5b61010082161561092d576ffcbe86c7900a88aedcffc83b479aa3a40260801c5b61020082161561094d576ff987a7253ac413176f2b074cf7815e540260801c5b61040082161561096d576ff3392b0822b70005940c7a398e4b70f30260801c5b61080082161561098d576fe7159475a2c29b7443b29c7fa6e889d90260801c5b6110008216156109ad576fd097f3bdfd2022b8845ad8f792aa58250260801c5b6120008216156109cd576fa9f746462d870fdf8a65dc1f90e061e50260801c5b6140008216156109ed576f70d869a156d2a1b890bb3df62baf32f70260801c5b618000821615610a0d576f31be135f97d08fd981231505542fcfa60260801c5b62010000821615610a2e576f09aa508b5b7a84e1c677de54f3e99bc90260801c5b62020000821615610a4e576e5d6af8dedb81196699c329225ee6040260801c5b62040000821615610a6d576d2216e584f5fa1ea926041bedfe980260801c5b62080000821615610a8a576b048a170391f7dc42444e8fa20260801c5b60008460020b1315610aab578060001981610aa757610aa7610eaf565b0490505b600160201b810615610abe576001610ac1565b60005b60ff16602082901c0192505050919050565b6000808060001985870985870292508281108382030391505080600003610b0c5760008411610b0157600080fd5b508290049050610409565b808411610b1857600080fd5b6000848688096000868103871696879004966002600389028118808a02820302808a02820302808a02820302808a02820302808a02820302808a02909103029181900381900460010186841190950394909402919094039290920491909117919091029150509392505050565b6001600160a01b0381168114610b9a57600080fd5b50565b600080600060608486031215610bb257600080fd5b8335610bbd81610b85565b92506020840135610bcd81610b85565b929592945050506040919091013590565b60008060008060808587031215610bf457600080fd5b8435610bff81610b85565b93506020850135610c0f81610b85565b925060408501359150606085013560ff81168114610c2c57600080fd5b939692955090935050565b634e487b7160e01b600052604160045260246000fd5b634e487b7160e01b600052603260045260246000fd5b6020808252825182820181905260009190848201906040850190845b81811015610ca157835163ffffffff1683529284019291840191600101610c7f565b50909695505050505050565b604051601f8201601f191681016001600160401b0381118282101715610cd557610cd5610c37565b604052919050565b60006001600160401b03821115610cf657610cf6610c37565b5060051b60200190565b600082601f830112610d1157600080fd5b81516020610d26610d2183610cdd565b610cad565b82815260059290921b84018101918181019086841115610d4557600080fd5b8286015b84811015610d69578051610d5c81610b85565b8352918301918301610d49565b509695505050505050565b60008060408385031215610d8757600080fd5b82516001600160401b0380821115610d9e57600080fd5b818501915085601f830112610db257600080fd5b81516020610dc2610d2183610cdd565b82815260059290921b84018101918181019089841115610de157600080fd5b948201945b83861015610e0f5785518060060b8114610e005760008081fd5b82529482019490820190610de6565b91880151919650909350505080821115610e2857600080fd5b50610e3585828601610d00565b9150509250929050565b634e487b7160e01b600052601160045260246000fd5b600682810b9082900b03667fffffffffffff198112667fffffffffffff82131715610e8257610e82610e3f565b92915050565b6001600160a01b03828116828216039080821115610ea857610ea8610e3f565b5092915050565b634e487b7160e01b600052601260045260246000fd5b60008160060b8360060b80610edc57610edc610eaf565b667fffffffffffff19821460001982141615610efa57610efa610e3f565b90059392505050565b60008260060b80610f1657610f16610eaf565b808360060b0791505092915050565b60008160020b627fffff198103610f3e57610f3e610e3f565b6000190192915050565b6001600160c01b03828116828216818102831692918115828504821417610f7157610f71610e3f565b50505092915050565b60006001600160c01b0383811680610f9457610f94610eaf565b92169190910492915050565b8082028115828204841417610e8257610e82610e3f56fea26469706673582212202ad7707cc2c45d181aea38f92314e7fff1162aef1cd77c9da9f41f80b952cef664736f6c63430008130033",
  "linkReferences": {},
  "deployedLinkReferences": {}
}