{
  "_format": "hh-sol-artifact-1",
  "contractName": "EmergencyUniswapV3SwapHelper",
  "sourceName": "contracts/utils/swaps/EmergencyDEXSwapHelper.sol",
  "abi": [
    {
      "inputs": [
        {
          "internalType": "address",
          "name": "_oraclizedSwapHelper",
          "type": "address"
        },
        {
          "internalType": "uint8",
          "name": "_slippage",
          "type": "uint8"
        }
      ],
      "stateMutability": "nonpayable",
      "type": "constructor"
    },
    {
      "inputs": [
        {
          "internalType": "address",
          "name": "src",
          "type": "address"
        },
        {
          "internalType": "address",
          "name": "dst",
          "type": "address"
        }
      ],
      "name": "CannotFindPoolAddressFor",
      "type": "error"
    },
    {
      "inputs": [],
      "name": "OnlyOraclizedSwapHelper",
      "type": "error"
    },
    {
      "inputs": [],
      "name": "T",
      "type": "error"
    },
    {
      "inputs": [],
      "name": "fixedSlippage",
      "outputs": [
        {
          "internalType": "uint8",
          "name": "",
          "type": "uint8"
        }
      ],
      "stateMutability": "view",
      "type": "function"
    },
    {
      "inputs": [],
      "name": "oraclizedSwapHelper",
      "outputs": [
        {
          "internalType": "address",
          "name": "",
          "type": "address"
        }
      ],
      "stateMutability": "view",
      "type": "function"
    },
    {
      "inputs": [
        {
          "internalType": "address",
          "name": "src",
          "type": "address"
        },
        {
          "internalType": "address",
          "name": "dst",
          "type": "address"
        },
        {
          "internalType": "uint256",
          "name": "amount",
          "type": "uint256"
        }
      ],
      "name": "requestQuote",
      "outputs": [
        {
          "internalType": "uint256",
          "name": "amountOut",
          "type": "uint256"
        }
      ],
      "stateMutability": "nonpayable",
      "type": "function"
    },
    {
      "inputs": [
        {
          "internalType": "address",
          "name": "src",
          "type": "address"
        },
        {
          "internalType": "address",
          "name": "dst",
          "type": "address"
        },
        {
          "internalType": "uint256",
          "name": "amount",
          "type": "uint256"
        },
        {
          "internalType": "uint8",
          "name": "slippage",
          "type": "uint8"
        }
      ],
      "name": "requestSwap",
      "outputs": [],
      "stateMutability": "payable",
      "type": "function"
    }
  ],
  "bytecode": "0x608060405234801561001057600080fd5b506040516119f73803806119f783398101604081905261002f91610061565b6000805460ff909216600160a01b026001600160a81b03199092166001600160a01b03909316929092171790556100ad565b6000806040838503121561007457600080fd5b82516001600160a01b038116811461008b57600080fd5b602084015190925060ff811681146100a257600080fd5b809150509250929050565b61193b806100bc6000396000f3fe60806040526004361061003f5760003560e01c80631a5b4207146100445780636b9b29e41461007757806372fb4c76146100aa578063f09922ff146100e2575b600080fd5b34801561005057600080fd5b5061006461005f3660046111c9565b6100f7565b6040519081526020015b60405180910390f35b34801561008357600080fd5b5060005461009890600160a01b900460ff1681565b60405160ff909116815260200161006e565b3480156100b657600080fd5b506000546100ca906001600160a01b031681565b6040516001600160a01b03909116815260200161006e565b6100f56100f0366004611226565b61042a565b005b600080546001600160a01b031633146101235760405163b794fdfb60e01b815260040160405180910390fd5b6001600160a01b03841673c5102fe9359fd9a28f877a67e36b0f050d81a3cc14801561016b57506001600160a01b0383167382af49447d8a07e3bd95bd0d56f35241523fbab1145b806101b957506001600160a01b03831673c5102fe9359fd9a28f877a67e36b0f050d81a3cc1480156101b957506001600160a01b0384167382af49447d8a07e3bd95bd0d56f35241523fbab1145b156101e5576101de8484847344ca2be2bd6a7203ccdbb63eed8382274f737a15610864565b9050610423565b6001600160a01b0384167382af49447d8a07e3bd95bd0d56f35241523fbab114801561022757506001600160a01b0383166000805160206118e6833981519152145b8061026f57506001600160a01b0383167382af49447d8a07e3bd95bd0d56f35241523fbab114801561026f57506001600160a01b0384166000805160206118e6833981519152145b15610294576101de84848473c31e54c7a869b9fcbecc14363cf510d1c41fa443610864565b6001600160a01b03841673eeeeeeeeeeeeeeeeeeeeeeeeeeeeeeeeeeeeeeee1480156102d657506001600160a01b0383166000805160206118e6833981519152145b8061031e57506001600160a01b03831673eeeeeeeeeeeeeeeeeeeeeeeeeeeeeeeeeeeeeeee14801561031e57506001600160a01b0384166000805160206118e6833981519152145b15610343576101de84848473c6962004f452be9203591991d15f6b388e09e8d0610864565b6001600160a01b038416738f3cf7ad23cd3cadbd9735aff958023239c6a06314801561038557506001600160a01b0383166000805160206118e6833981519152145b806103cd57506001600160a01b038316738f3cf7ad23cd3cadbd9735aff958023239c6a0631480156103cd57506001600160a01b0384166000805160206118e6833981519152145b156103f2576101de848484735645dcb64c059aa11212707fbf4e7f984440a8cf610864565b604051638cc8e44560e01b81526001600160a01b038086166004830152841660248201526044015b60405180910390fd5b9392505050565b6000546001600160a01b031633146104555760405163b794fdfb60e01b815260040160405180910390fd5b6001600160a01b03841673c5102fe9359fd9a28f877a67e36b0f050d81a3cc14801561049757506001600160a01b0383166000805160206118e6833981519152145b15610621576104d76040518060a001604052806060815260200160006001600160a01b031681526020016000815260200160008152602001600081525090565b604080517331440bfa4d67f668a3e1de99f8dac3c1436068f360621b602082015261017760eb1b60348201527382af49447d8a07e3bd95bd0d56f35241523fbab160601b6037820152607d60ea1b604b8201526001720d1eb3cbf69c6bd6f96b78144375982844946760631b0319604e82015281516042818303018152606290910190915260006105678561088c565b82845230602085015242604085015260608401869052905061271061058f60ff86168361128f565b61059991906112bc565b608084015260405163c04b8d5960e01b81527368b3465833fb72a70ecdf485e0e4c7bd8665fc459063c04b8d59906105d59086906004016112d0565b6020604051808303816000875af11580156105f4573d6000803e3d6000fd5b505050506040513d601f19601f820116820180604052508101906106189190611358565b5050505061085e565b6001600160a01b038416737238390d5f6f64e67c3211c343a410e2a3dec14214801561066357506001600160a01b0383166000805160206118e6833981519152145b1561085e5760408051600280825260608201909252600091816020015b604080516060810182526000808252602080830182905292820152825260001990920191018161068057505060408051606081018252737238390d5f6f64e67c3211c343a410e2a3dec14281527340379a439d4f6795b6fc9aa5687db461677a2dba6020820152600091810182905282519293509183919061070457610704611387565b602002602001018190525060405180606001604052807340379a439d4f6795b6fc9aa5687db461677a2dba6001600160a01b031681526020016000805160206118e68339815191526001600160a01b03168152602001600115158152508160018151811061077457610774611387565b602002602001018190525060006107cb8473f68c20d6c50706f6c6bd8ee184382518c93b368c737238390d5f6f64e67c3211c343a410e2a3dec1427340379a439d4f6795b6fc9aa5687db461677a2dba600661091d565b905073cc25c0fd84737f44a7d38649b69491bbf0c7f08363f41766d8856107f1846109ab565b8530426040518663ffffffff1660e01b815260040161081495949392919061139d565b6000604051808303816000875af192505050801561085457506040513d6000823e601f3d908101601f19168201604052610851919081019061147f565b60015b1561085b57505b50505b50505050565b600080610873836107086109d1565b50905061088281858888610c1a565b9695505050505050565b60006109177382af49447d8a07e3bd95bd0d56f35241523fbab16000805160206118e68339815191526108fd73c5102fe9359fd9a28f877a67e36b0f050d81a3cc7382af49447d8a07e3bd95bd0d56f35241523fbab1877344ca2be2bd6a7203ccdbb63eed8382274f737a15610864565b73c31e54c7a869b9fcbecc14363cf510d1c41fa443610864565b92915050565b6040516328bd9fc160e11b81526001600160a01b03848116600483015260248201879052600091829187169063517b3f8290604401602060405180830381865afa15801561096f573d6000803e3d6000fd5b505050506040513d601f19601f820116820180604052508101906109939190611358565b90506109a0818585610d23565b979650505050505050565b60008054612710906109c790600160a01b900460ff168461128f565b61091791906112bc565b6000808263ffffffff16600003610a0f5760405162461bcd60e51b8152602060048201526002602482015261042560f41b604482015260640161041a565b6040805160028082526060820183526000926020830190803683370190505090508381600081518110610a4457610a44611387565b602002602001019063ffffffff16908163ffffffff1681525050600081600181518110610a7357610a73611387565b602002602001019063ffffffff16908163ffffffff1681525050600080866001600160a01b031663883bdbfd846040518263ffffffff1660e01b8152600401610abc9190611509565b600060405180830381865afa158015610ad9573d6000803e3d6000fd5b505050506040513d6000823e601f3d908101601f19168201604052610b0191908101906115c2565b91509150600082600081518110610b1a57610b1a611387565b602002602001015183600181518110610b3557610b35611387565b6020026020010151610b47919061168d565b9050600082600081518110610b5e57610b5e611387565b602002602001015183600181518110610b7957610b79611387565b6020026020010151610b8b91906116ba565b9050610b9d63ffffffff8916836116e1565b965060008260060b128015610bc35750610bbd63ffffffff89168361171f565b60060b15155b15610bd65786610bd281611741565b9750505b6000610bef6001600160a01b0363ffffffff8b16611764565b9050610c0b600160201b600160c01b03602084901b1682611796565b96505050505050509250929050565b600080610c2686610d99565b90506001600160801b036001600160a01b03821611610cac576000610c546001600160a01b0383168061128f565b9050836001600160a01b0316856001600160a01b031610610c8c57610c87600160c01b876001600160801b0316836110b1565b610ca4565b610ca481876001600160801b0316600160c01b6110b1565b925050610d1a565b6000610cc66001600160a01b03831680600160401b6110b1565b9050836001600160a01b0316856001600160a01b031610610cfe57610cf9600160801b876001600160801b0316836110b1565b610d16565b610d1681876001600160801b0316600160801b6110b1565b9250505b50949350505050565b6000610d9184846001600160a01b031663313ce5676040518163ffffffff1660e01b8152600401602060405180830381865afa158015610d67573d6000803e3d6000fd5b505050506040513d601f19601f82011682018060405250810190610d8b91906117bc565b84611163565b949350505050565b60008060008360020b12610db0578260020b610db8565b8260020b6000035b9050620d89e8811115610dde576040516315e4079d60e11b815260040160405180910390fd5b600081600116600003610df557600160801b610e07565b6ffffcb933bd6fad37aa2d162d1a5940015b6001600160881b031690506002821615610e31576ffff97272373d413259a46990580e213a0260801c5b6004821615610e50576ffff2e50f5f656932ef12357cf3c7fdcc0260801c5b6008821615610e6f576fffe5caca7e10e4e61c3624eaa0941cd00260801c5b6010821615610e8e576fffcb9843d60f6159c9db58835c9266440260801c5b6020821615610ead576fff973b41fa98c081472e6896dfb254c00260801c5b6040821615610ecc576fff2ea16466c96a3843ec78b326b528610260801c5b6080821615610eeb576ffe5dee046a99a2a811c461f1969c30530260801c5b610100821615610f0b576ffcbe86c7900a88aedcffc83b479aa3a40260801c5b610200821615610f2b576ff987a7253ac413176f2b074cf7815e540260801c5b610400821615610f4b576ff3392b0822b70005940c7a398e4b70f30260801c5b610800821615610f6b576fe7159475a2c29b7443b29c7fa6e889d90260801c5b611000821615610f8b576fd097f3bdfd2022b8845ad8f792aa58250260801c5b612000821615610fab576fa9f746462d870fdf8a65dc1f90e061e50260801c5b614000821615610fcb576f70d869a156d2a1b890bb3df62baf32f70260801c5b618000821615610feb576f31be135f97d08fd981231505542fcfa60260801c5b6201000082161561100c576f09aa508b5b7a84e1c677de54f3e99bc90260801c5b6202000082161561102c576e5d6af8dedb81196699c329225ee6040260801c5b6204000082161561104b576d2216e584f5fa1ea926041bedfe980260801c5b62080000821615611068576b048a170391f7dc42444e8fa20260801c5b60008460020b1315611089578060001981611085576110856112a6565b0490505b600160201b81061561109c57600161109f565b60005b60ff16602082901c0192505050919050565b60008080600019858709858702925082811083820303915050806000036110ea57600084116110df57600080fd5b508290049050610423565b8084116110f657600080fd5b6000848688096000868103871696879004966002600389028118808a02820302808a02820302808a02820302808a02820302808a02820302808a02909103029181900381900460010186841190950394909402919094039290920491909117919091029150509392505050565b60008260ff168260ff1611156111925761117d83836117d9565b61118890600a6118d6565b6101de908561128f565b61119c82846117d9565b6111a790600a6118d6565b6101de90856112bc565b6001600160a01b03811681146111c657600080fd5b50565b6000806000606084860312156111de57600080fd5b83356111e9816111b1565b925060208401356111f9816111b1565b929592945050506040919091013590565b6001600160a01b03169052565b60ff811681146111c657600080fd5b6000806000806080858703121561123c57600080fd5b8435611247816111b1565b93506020850135611257816111b1565b925060408501359150606085013561126e81611217565b939692955090935050565b634e487b7160e01b600052601160045260246000fd5b808202811582820484141761091757610917611279565b634e487b7160e01b600052601260045260246000fd5b6000826112cb576112cb6112a6565b500490565b60006020808352835160a08285015280518060c086015260005b818110156113065782810184015186820160e0015283016112ea565b50600085820160e001529185015191611322604086018461120a565b6040860151606086015260608601516080860152608086015160a086015260e0601f19601f830116860101935050505092915050565b60006020828403121561136a57600080fd5b5051919050565b634e487b7160e01b600052604160045260246000fd5b634e487b7160e01b600052603260045260246000fd5b600060a0820187835260208781850152604060a08186015282885180855260c087019150838a01945060005b8181101561140657855180516001600160a01b039081168552868201511686850152840151151584840152948401946060909201916001016113c9565b50508094505050505061141c606083018561120a565b8260808301529695505050505050565b604051601f8201601f191681016001600160401b038111828210171561145457611454611371565b604052919050565b60006001600160401b0382111561147557611475611371565b5060051b60200190565b6000602080838503121561149257600080fd5b82516001600160401b038111156114a857600080fd5b8301601f810185136114b957600080fd5b80516114cc6114c78261145c565b61142c565b81815260059190911b820183019083810190878311156114eb57600080fd5b928401925b828410156109a0578351825292840192908401906114f0565b6020808252825182820181905260009190848201906040850190845b8181101561154757835163ffffffff1683529284019291840191600101611525565b50909695505050505050565b600082601f83011261156457600080fd5b815160206115746114c78361145c565b82815260059290921b8401810191818101908684111561159357600080fd5b8286015b848110156115b75780516115aa816111b1565b8352918301918301611597565b509695505050505050565b600080604083850312156115d557600080fd5b82516001600160401b03808211156115ec57600080fd5b818501915085601f83011261160057600080fd5b815160206116106114c78361145c565b82815260059290921b8401810191818101908984111561162f57600080fd5b948201945b8386101561165d5785518060060b811461164e5760008081fd5b82529482019490820190611634565b9188015191965090935050508082111561167657600080fd5b5061168385828601611553565b9150509250929050565b600682810b9082900b03667fffffffffffff198112667fffffffffffff8213171561091757610917611279565b6001600160a01b038281168282160390808211156116da576116da611279565b5092915050565b60008160060b8360060b806116f8576116f86112a6565b667fffffffffffff1982146000198214161561171657611716611279565b90059392505050565b60008260060b80611732576117326112a6565b808360060b0791505092915050565b60008160020b627fffff19810361175a5761175a611279565b6000190192915050565b6001600160c01b0382811682821681810283169291811582850482141761178d5761178d611279565b50505092915050565b60006001600160c01b03838116806117b0576117b06112a6565b92169190910492915050565b6000602082840312156117ce57600080fd5b815161042381611217565b60ff828116828216039081111561091757610917611279565b600181815b8085111561182d57816000190482111561181357611813611279565b8085161561182057918102915b93841c93908002906117f7565b509250929050565b60008261184457506001610917565b8161185157506000610917565b816001811461186757600281146118715761188d565b6001915050610917565b60ff84111561188257611882611279565b50506001821b610917565b5060208310610133831016604e8410600b84101617156118b0575081810a610917565b6118ba83836117f2565b80600019048211156118ce576118ce611279565b029392505050565b600061042360ff84168361183556fe000000000000000000000000ff970a61a04b1ca14834a43f5de4533ebddb5cc8a2646970667358221220cfb5e6385770ad55a9eafc4e176c0d1c2f0cd616b0768327f17b3c3eb733e17664736f6c63430008130033",
  "linkReferences": {},
  "deployedLinkReferences": {}
}