{
  "_format": "hh-sol-artifact-1",
  "contractName": "EmergencyUniswapV3SwapHelper",
  "sourceName": "contracts/utils/swaps/EmergencyUniswapV3SwapHelper.sol",
  "abi": [
    {
      "inputs": [
        {
          "internalType": "address",
          "name": "src",
          "type": "address"
        },
        {
          "internalType": "address",
          "name": "dst",
          "type": "address"
        },
        {
          "internalType": "uint256",
          "name": "amount",
          "type": "uint256"
        }
      ],
      "name": "requestQuote",
      "outputs": [
        {
          "internalType": "uint256",
          "name": "amountOut",
          "type": "uint256"
        }
      ],
      "stateMutability": "nonpayable",
      "type": "function"
    },
    {
      "inputs": [
        {
          "internalType": "address",
          "name": "src",
          "type": "address"
        },
        {
          "internalType": "address",
          "name": "dst",
          "type": "address"
        },
        {
          "internalType": "uint256",
          "name": "amount",
          "type": "uint256"
        },
        {
          "internalType": "uint8",
          "name": "slippage",
          "type": "uint8"
        }
      ],
      "name": "requestSwap",
      "outputs": [],
      "stateMutability": "payable",
      "type": "function"
    }
  ],
  "bytecode": "0x608060405234801561001057600080fd5b5061015d806100206000396000f3fe6080604052600436106100295760003560e01c80631a5b42071461002e578063f09922ff14610064575b600080fd5b34801561003a57600080fd5b50610052610049366004610096565b60009392505050565b60405190815260200160405180910390f35b6100786100723660046100d2565b50505050565b005b80356001600160a01b038116811461009157600080fd5b919050565b6000806000606084860312156100ab57600080fd5b6100b48461007a565b92506100c26020850161007a565b9150604084013590509250925092565b600080600080608085870312156100e857600080fd5b6100f18561007a565b93506100ff6020860161007a565b925060408501359150606085013560ff8116811461011c57600080fd5b93969295509093505056fea26469706673582212208a287f9cb1a216370c5a2ed634fc3b10edd8a5e1f7fdd8f0474d18c3169ac2d064736f6c63430008130033",
  "linkReferences": {},
  "deployedLinkReferences": {}
}