{
  "_format": "hh-sol-artifact-1",
  "contractName": "VaultMock",
  "sourceName": "contracts/mock/VaultMock.sol",
  "abi": [
    {
      "inputs": [
        {
          "internalType": "address",
          "name": "_token",
          "type": "address"
        }
      ],
      "stateMutability": "nonpayable",
      "type": "constructor"
    },
    {
      "anonymous": false,
      "inputs": [
        {
          "indexed": true,
          "internalType": "address",
          "name": "owner",
          "type": "address"
        },
        {
          "indexed": true,
          "internalType": "address",
          "name": "spender",
          "type": "address"
        },
        {
          "indexed": false,
          "internalType": "uint256",
          "name": "value",
          "type": "uint256"
        }
      ],
      "name": "Approval",
      "type": "event"
    },
    {
      "anonymous": false,
      "inputs": [
        {
          "indexed": true,
          "internalType": "address",
          "name": "from",
          "type": "address"
        },
        {
          "indexed": true,
          "internalType": "address",
          "name": "to",
          "type": "address"
        },
        {
          "indexed": false,
          "internalType": "uint256",
          "name": "value",
          "type": "uint256"
        }
      ],
      "name": "Transfer",
      "type": "event"
    },
    {
      "inputs": [
        {
          "internalType": "address",
          "name": "owner",
          "type": "address"
        },
        {
          "internalType": "address",
          "name": "spender",
          "type": "address"
        }
      ],
      "name": "allowance",
      "outputs": [
        {
          "internalType": "uint256",
          "name": "",
          "type": "uint256"
        }
      ],
      "stateMutability": "view",
      "type": "function"
    },
    {
      "inputs": [
        {
          "internalType": "address",
          "name": "spender",
          "type": "address"
        },
        {
          "internalType": "uint256",
          "name": "amount",
          "type": "uint256"
        }
      ],
      "name": "approve",
      "outputs": [
        {
          "internalType": "bool",
          "name": "",
          "type": "bool"
        }
      ],
      "stateMutability": "nonpayable",
      "type": "function"
    },
    {
      "inputs": [
        {
          "internalType": "address",
          "name": "account",
          "type": "address"
        }
      ],
      "name": "balanceOf",
      "outputs": [
        {
          "internalType": "uint256",
          "name": "",
          "type": "uint256"
        }
      ],
      "stateMutability": "view",
      "type": "function"
    },
    {
      "inputs": [],
      "name": "decimals",
      "outputs": [
        {
          "internalType": "uint8",
          "name": "",
          "type": "uint8"
        }
      ],
      "stateMutability": "view",
      "type": "function"
    },
    {
      "inputs": [
        {
          "internalType": "address",
          "name": "spender",
          "type": "address"
        },
        {
          "internalType": "uint256",
          "name": "subtractedValue",
          "type": "uint256"
        }
      ],
      "name": "decreaseAllowance",
      "outputs": [
        {
          "internalType": "bool",
          "name": "",
          "type": "bool"
        }
      ],
      "stateMutability": "nonpayable",
      "type": "function"
    },
    {
      "inputs": [
        {
          "internalType": "uint256",
          "name": "_amount",
          "type": "uint256"
        },
        {
          "internalType": "address",
          "name": "_recipient",
          "type": "address"
        }
      ],
      "name": "deposit",
      "outputs": [
        {
          "internalType": "uint256",
          "name": "",
          "type": "uint256"
        }
      ],
      "stateMutability": "nonpayable",
      "type": "function"
    },
    {
      "inputs": [
        {
          "internalType": "address",
          "name": "spender",
          "type": "address"
        },
        {
          "internalType": "uint256",
          "name": "addedValue",
          "type": "uint256"
        }
      ],
      "name": "increaseAllowance",
      "outputs": [
        {
          "internalType": "bool",
          "name": "",
          "type": "bool"
        }
      ],
      "stateMutability": "nonpayable",
      "type": "function"
    },
    {
      "inputs": [],
      "name": "name",
      "outputs": [
        {
          "internalType": "string",
          "name": "",
          "type": "string"
        }
      ],
      "stateMutability": "view",
      "type": "function"
    },
    {
      "inputs": [],
      "name": "symbol",
      "outputs": [
        {
          "internalType": "string",
          "name": "",
          "type": "string"
        }
      ],
      "stateMutability": "view",
      "type": "function"
    },
    {
      "inputs": [],
      "name": "token",
      "outputs": [
        {
          "internalType": "address",
          "name": "",
          "type": "address"
        }
      ],
      "stateMutability": "view",
      "type": "function"
    },
    {
      "inputs": [],
      "name": "totalSupply",
      "outputs": [
        {
          "internalType": "uint256",
          "name": "",
          "type": "uint256"
        }
      ],
      "stateMutability": "view",
      "type": "function"
    },
    {
      "inputs": [
        {
          "internalType": "address",
          "name": "to",
          "type": "address"
        },
        {
          "internalType": "uint256",
          "name": "amount",
          "type": "uint256"
        }
      ],
      "name": "transfer",
      "outputs": [
        {
          "internalType": "bool",
          "name": "",
          "type": "bool"
        }
      ],
      "stateMutability": "nonpayable",
      "type": "function"
    },
    {
      "inputs": [
        {
          "internalType": "address",
          "name": "from",
          "type": "address"
        },
        {
          "internalType": "address",
          "name": "to",
          "type": "address"
        },
        {
          "internalType": "uint256",
          "name": "amount",
          "type": "uint256"
        }
      ],
      "name": "transferFrom",
      "outputs": [
        {
          "internalType": "bool",
          "name": "",
          "type": "bool"
        }
      ],
      "stateMutability": "nonpayable",
      "type": "function"
    }
  ],
  "bytecode": "0x60806040523480156200001157600080fd5b5060405162000c9538038062000c958339810160408190526200003491620000bb565b60405180604001604052806009815260200168135bd8dad5985d5b1d60ba1b8152506040518060400160405280600281526020016126ab60f11b815250816003908162000082919062000192565b50600462000091828262000192565b5050600580546001600160a01b0319166001600160a01b039390931692909217909155506200025e565b600060208284031215620000ce57600080fd5b81516001600160a01b0381168114620000e657600080fd5b9392505050565b634e487b7160e01b600052604160045260246000fd5b600181811c908216806200011857607f821691505b6020821081036200013957634e487b7160e01b600052602260045260246000fd5b50919050565b601f8211156200018d57600081815260208120601f850160051c81016020861015620001685750805b601f850160051c820191505b81811015620001895782815560010162000174565b5050505b505050565b81516001600160401b03811115620001ae57620001ae620000ed565b620001c681620001bf845462000103565b846200013f565b602080601f831160018114620001fe5760008415620001e55750858301515b600019600386901b1c1916600185901b17855562000189565b600085815260208120601f198616915b828110156200022f578886015182559484019460019091019084016200020e565b50858210156200024e5787850151600019600388901b60f8161c191681555b5050505050600190811b01905550565b610a27806200026e6000396000f3fe608060405234801561001057600080fd5b50600436106100af5760003560e01c806306fdde03146100b4578063095ea7b3146100d257806318160ddd146100f557806323b872dd14610107578063313ce5671461011a57806339509351146101295780636e553f651461013c57806370a082311461014f57806395d89b4114610178578063a457c2d714610180578063a9059cbb14610193578063dd62ed3e146101a6578063fc0c546a146101b9575b600080fd5b6100bc6101e4565b6040516100c9919061080c565b60405180910390f35b6100e56100e0366004610876565b610276565b60405190151581526020016100c9565b6002545b6040519081526020016100c9565b6100e56101153660046108a0565b610290565b604051601281526020016100c9565b6100e5610137366004610876565b6102b4565b6100f961014a3660046108dc565b6102d6565b6100f961015d366004610908565b6001600160a01b031660009081526020819052604090205490565b6100bc610367565b6100e561018e366004610876565b610376565b6100e56101a1366004610876565b6103f6565b6100f96101b436600461092a565b610404565b6005546101cc906001600160a01b031681565b6040516001600160a01b0390911681526020016100c9565b6060600380546101f390610954565b80601f016020809104026020016040519081016040528092919081815260200182805461021f90610954565b801561026c5780601f106102415761010080835404028352916020019161026c565b820191906000526020600020905b81548152906001019060200180831161024f57829003601f168201915b5050505050905090565b60003361028481858561042f565b60019150505b92915050565b60003361029e858285610553565b6102a98585856105cd565b506001949350505050565b6000336102848185856102c78383610404565b6102d1919061098e565b61042f565b60006102e2828461075f565b6005546040516323b872dd60e01b8152336004820152306024820152604481018590526001600160a01b03909116906323b872dd906064016020604051808303816000875af1158015610339573d6000803e3d6000fd5b505050506040513d601f19601f8201168201806040525081019061035d91906109af565b5060009392505050565b6060600480546101f390610954565b600033816103848286610404565b9050838110156103e95760405162461bcd60e51b815260206004820152602560248201527f45524332303a2064656372656173656420616c6c6f77616e63652062656c6f77604482015264207a65726f60d81b60648201526084015b60405180910390fd5b6102a9828686840361042f565b6000336102848185856105cd565b6001600160a01b03918216600090815260016020908152604080832093909416825291909152205490565b6001600160a01b0383166104915760405162461bcd60e51b8152602060048201526024808201527f45524332303a20617070726f76652066726f6d20746865207a65726f206164646044820152637265737360e01b60648201526084016103e0565b6001600160a01b0382166104f25760405162461bcd60e51b815260206004820152602260248201527f45524332303a20617070726f766520746f20746865207a65726f206164647265604482015261737360f01b60648201526084016103e0565b6001600160a01b0383811660008181526001602090815260408083209487168084529482529182902085905590518481527f8c5be1e5ebec7d5bd14f71427d1e84f3dd0314c0f7b2291e5b200ac8c7c3b925910160405180910390a3505050565b600061055f8484610404565b905060001981146105c757818110156105ba5760405162461bcd60e51b815260206004820152601d60248201527f45524332303a20696e73756666696369656e7420616c6c6f77616e636500000060448201526064016103e0565b6105c7848484840361042f565b50505050565b6001600160a01b0383166106315760405162461bcd60e51b815260206004820152602560248201527f45524332303a207472616e736665722066726f6d20746865207a65726f206164604482015264647265737360d81b60648201526084016103e0565b6001600160a01b0382166106935760405162461bcd60e51b815260206004820152602360248201527f45524332303a207472616e7366657220746f20746865207a65726f206164647260448201526265737360e81b60648201526084016103e0565b6001600160a01b0383166000908152602081905260409020548181101561070b5760405162461bcd60e51b815260206004820152602660248201527f45524332303a207472616e7366657220616d6f756e7420657863656564732062604482015265616c616e636560d01b60648201526084016103e0565b6001600160a01b03848116600081815260208181526040808320878703905593871680835291849020805487019055925185815290926000805160206109d2833981519152910160405180910390a36105c7565b6001600160a01b0382166107b55760405162461bcd60e51b815260206004820152601f60248201527f45524332303a206d696e7420746f20746865207a65726f20616464726573730060448201526064016103e0565b80600260008282546107c7919061098e565b90915550506001600160a01b038216600081815260208181526040808320805486019055518481526000805160206109d2833981519152910160405180910390a35050565b600060208083528351808285015260005b818110156108395785810183015185820160400152820161081d565b506000604082860101526040601f19601f8301168501019250505092915050565b80356001600160a01b038116811461087157600080fd5b919050565b6000806040838503121561088957600080fd5b6108928361085a565b946020939093013593505050565b6000806000606084860312156108b557600080fd5b6108be8461085a565b92506108cc6020850161085a565b9150604084013590509250925092565b600080604083850312156108ef57600080fd5b823591506108ff6020840161085a565b90509250929050565b60006020828403121561091a57600080fd5b6109238261085a565b9392505050565b6000806040838503121561093d57600080fd5b6109468361085a565b91506108ff6020840161085a565b600181811c9082168061096857607f821691505b60208210810361098857634e487b7160e01b600052602260045260246000fd5b50919050565b8082018082111561028a57634e487b7160e01b600052601160045260246000fd5b6000602082840312156109c157600080fd5b8151801515811461092357600080fdfeddf252ad1be2c89b69c2b068fc378daa952ba7f163c4a11628f55a4df523b3efa2646970667358221220faf6e9bc5303eba227b96ac530c9707de7294fa5a38b39d0f30606a1730dae4b64736f6c63430008130033",
  "linkReferences": {},
  "deployedLinkReferences": {}
}