{
  "_format": "hh-sol-artifact-1",
  "contractName": "SwapHelper",
  "sourceName": "contracts/utils/SwapHelper.sol",
  "abi": [
    {
      "inputs": [
        {
          "internalType": "uint256",
          "name": "_quoteJobFee",
          "type": "uint256"
        },
        {
          "internalType": "uint256",
          "name": "_swapCalldataJobFee",
          "type": "uint256"
        },
        {
          "internalType": "address",
          "name": "_strategist",
          "type": "address"
        },
        {
          "internalType": "address",
          "name": "_aggregationRouter",
          "type": "address"
        },
        {
          "internalType": "address",
          "name": "chainlinkTokenAddress",
          "type": "address"
        },
        {
          "internalType": "address",
          "name": "chainlinkOracleAddress",
          "type": "address"
        },
        {
          "internalType": "string",
          "name": "_swapCalldataJobId",
          "type": "string"
        },
        {
          "internalType": "string",
          "name": "_quoteJobId",
          "type": "string"
        },
        {
          "internalType": "address[]",
          "name": "authorizedToSwap",
          "type": "address[]"
        }
      ],
      "stateMutability": "nonpayable",
      "type": "constructor"
    },
    {
      "inputs": [],
      "name": "CannotAddSubscriber",
      "type": "error"
    },
    {
      "inputs": [],
      "name": "CannotRemoveSubscriber",
      "type": "error"
    },
    {
      "inputs": [],
      "name": "NotEnoughNativeTokensSent",
      "type": "error"
    },
    {
      "inputs": [],
      "name": "QuoteOperationIsNotReady",
      "type": "error"
    },
    {
      "inputs": [],
      "name": "SlippageIsTooBig",
      "type": "error"
    },
    {
      "inputs": [],
      "name": "SwapOperationIsNotReady",
      "type": "error"
    },
    {
      "inputs": [],
      "name": "TransferError",
      "type": "error"
    },
    {
      "anonymous": false,
      "inputs": [
        {
          "indexed": true,
          "internalType": "bytes32",
          "name": "id",
          "type": "bytes32"
        }
      ],
      "name": "ChainlinkCancelled",
      "type": "event"
    },
    {
      "anonymous": false,
      "inputs": [
        {
          "indexed": true,
          "internalType": "bytes32",
          "name": "id",
          "type": "bytes32"
        }
      ],
      "name": "ChainlinkFulfilled",
      "type": "event"
    },
    {
      "anonymous": false,
      "inputs": [
        {
          "indexed": true,
          "internalType": "bytes32",
          "name": "id",
          "type": "bytes32"
        }
      ],
      "name": "ChainlinkRequested",
      "type": "event"
    },
    {
      "anonymous": false,
      "inputs": [
        {
          "indexed": true,
          "internalType": "uint256",
          "name": "toAmount",
          "type": "uint256"
        }
      ],
      "name": "QuoteRegistered",
      "type": "event"
    },
    {
      "anonymous": false,
      "inputs": [
        {
          "components": [
            {
              "components": [
                {
                  "internalType": "address",
                  "name": "srcToken",
                  "type": "address"
                },
                {
                  "internalType": "address",
                  "name": "dstToken",
                  "type": "address"
                },
                {
                  "internalType": "uint256",
                  "name": "inAmount",
                  "type": "uint256"
                }
              ],
              "internalType": "struct SwapHelper.SwapInfo",
              "name": "swapInfo",
              "type": "tuple"
            },
            {
              "internalType": "uint256",
              "name": "outAmount",
              "type": "uint256"
            }
          ],
          "indexed": true,
          "internalType": "struct SwapHelper.QuoteInfo",
          "name": "_quoteBuffer",
          "type": "tuple"
        }
      ],
      "name": "QuoteSent",
      "type": "event"
    },
    {
      "anonymous": false,
      "inputs": [
        {
          "indexed": true,
          "internalType": "bytes32",
          "name": "role",
          "type": "bytes32"
        },
        {
          "indexed": true,
          "internalType": "bytes32",
          "name": "previousAdminRole",
          "type": "bytes32"
        },
        {
          "indexed": true,
          "internalType": "bytes32",
          "name": "newAdminRole",
          "type": "bytes32"
        }
      ],
      "name": "RoleAdminChanged",
      "type": "event"
    },
    {
      "anonymous": false,
      "inputs": [
        {
          "indexed": true,
          "internalType": "bytes32",
          "name": "role",
          "type": "bytes32"
        },
        {
          "indexed": true,
          "internalType": "address",
          "name": "account",
          "type": "address"
        },
        {
          "indexed": true,
          "internalType": "address",
          "name": "sender",
          "type": "address"
        }
      ],
      "name": "RoleGranted",
      "type": "event"
    },
    {
      "anonymous": false,
      "inputs": [
        {
          "indexed": true,
          "internalType": "bytes32",
          "name": "role",
          "type": "bytes32"
        },
        {
          "indexed": true,
          "internalType": "address",
          "name": "account",
          "type": "address"
        },
        {
          "indexed": true,
          "internalType": "address",
          "name": "sender",
          "type": "address"
        }
      ],
      "name": "RoleRevoked",
      "type": "event"
    },
    {
      "anonymous": false,
      "inputs": [
        {
          "indexed": true,
          "internalType": "enum SwapHelper.StrategistInterference",
          "name": "interference",
          "type": "uint8"
        }
      ],
      "name": "StrategistInterferred",
      "type": "event"
    },
    {
      "anonymous": false,
      "inputs": [
        {
          "components": [
            {
              "internalType": "address",
              "name": "srcToken",
              "type": "address"
            },
            {
              "internalType": "address",
              "name": "dstToken",
              "type": "address"
            },
            {
              "internalType": "uint256",
              "name": "inAmount",
              "type": "uint256"
            }
          ],
          "indexed": true,
          "internalType": "struct SwapHelper.SwapInfo",
          "name": "_swapBuffer",
          "type": "tuple"
        }
      ],
      "name": "SwapPerformed",
      "type": "event"
    },
    {
      "anonymous": false,
      "inputs": [
        {
          "indexed": true,
          "internalType": "bytes",
          "name": "swapCalldata",
          "type": "bytes"
        }
      ],
      "name": "SwapRegistered",
      "type": "event"
    },
    {
      "inputs": [],
      "name": "DEFAULT_ADMIN_ROLE",
      "outputs": [
        {
          "internalType": "bytes32",
          "name": "",
          "type": "bytes32"
        }
      ],
      "stateMutability": "view",
      "type": "function"
    },
    {
      "inputs": [],
      "name": "ONE_INCH_ETH_ADDRESS",
      "outputs": [
        {
          "internalType": "address",
          "name": "",
          "type": "address"
        }
      ],
      "stateMutability": "view",
      "type": "function"
    },
    {
      "inputs": [],
      "name": "QUOTE_AUTHORIZED_ROLE",
      "outputs": [
        {
          "internalType": "bytes32",
          "name": "",
          "type": "bytes32"
        }
      ],
      "stateMutability": "view",
      "type": "function"
    },
    {
      "inputs": [],
      "name": "STRATEGIST_ROLE",
      "outputs": [
        {
          "internalType": "bytes32",
          "name": "",
          "type": "bytes32"
        }
      ],
      "stateMutability": "view",
      "type": "function"
    },
    {
      "inputs": [],
      "name": "SWAP_AUTHORIZED_ROLE",
      "outputs": [
        {
          "internalType": "bytes32",
          "name": "",
          "type": "bytes32"
        }
      ],
      "stateMutability": "view",
      "type": "function"
    },
    {
      "inputs": [
        {
          "internalType": "address",
          "name": "subscriber",
          "type": "address"
        }
      ],
      "name": "addSubscriber",
      "outputs": [],
      "stateMutability": "nonpayable",
      "type": "function"
    },
    {
      "inputs": [],
      "name": "aggregationRouter",
      "outputs": [
        {
          "internalType": "address",
          "name": "",
          "type": "address"
        }
      ],
      "stateMutability": "view",
      "type": "function"
    },
    {
      "inputs": [],
      "name": "fulfillQuote",
      "outputs": [],
      "stateMutability": "nonpayable",
      "type": "function"
    },
    {
      "inputs": [],
      "name": "fulfillSwap",
      "outputs": [],
      "stateMutability": "nonpayable",
      "type": "function"
    },
    {
      "inputs": [
        {
          "internalType": "enum SwapHelper.JobPurpose",
          "name": "_purpose",
          "type": "uint8"
        }
      ],
      "name": "getFeeInHundredthsOfLink",
      "outputs": [
        {
          "internalType": "uint256",
          "name": "",
          "type": "uint256"
        }
      ],
      "stateMutability": "view",
      "type": "function"
    },
    {
      "inputs": [],
      "name": "getOracleAddress",
      "outputs": [
        {
          "internalType": "address",
          "name": "",
          "type": "address"
        }
      ],
      "stateMutability": "view",
      "type": "function"
    },
    {
      "inputs": [
        {
          "internalType": "bytes32",
          "name": "role",
          "type": "bytes32"
        }
      ],
      "name": "getRoleAdmin",
      "outputs": [
        {
          "internalType": "bytes32",
          "name": "",
          "type": "bytes32"
        }
      ],
      "stateMutability": "view",
      "type": "function"
    },
    {
      "inputs": [
        {
          "internalType": "bytes32",
          "name": "role",
          "type": "bytes32"
        },
        {
          "internalType": "address",
          "name": "account",
          "type": "address"
        }
      ],
      "name": "grantRole",
      "outputs": [],
      "stateMutability": "nonpayable",
      "type": "function"
    },
    {
      "inputs": [
        {
          "internalType": "bytes32",
          "name": "role",
          "type": "bytes32"
        },
        {
          "internalType": "address",
          "name": "account",
          "type": "address"
        }
      ],
      "name": "hasRole",
      "outputs": [
        {
          "internalType": "bool",
          "name": "",
          "type": "bool"
        }
      ],
      "stateMutability": "view",
      "type": "function"
    },
    {
      "inputs": [],
      "name": "isReadyToFulfillQuote",
      "outputs": [
        {
          "internalType": "bool",
          "name": "",
          "type": "bool"
        }
      ],
      "stateMutability": "view",
      "type": "function"
    },
    {
      "inputs": [],
      "name": "isReadyToFulfillSwap",
      "outputs": [
        {
          "internalType": "bool",
          "name": "",
          "type": "bool"
        }
      ],
      "stateMutability": "view",
      "type": "function"
    },
    {
      "inputs": [
        {
          "internalType": "uint256",
          "name": "",
          "type": "uint256"
        }
      ],
      "name": "jobInfos",
      "outputs": [
        {
          "internalType": "bytes32",
          "name": "jobId",
          "type": "bytes32"
        },
        {
          "internalType": "uint256",
          "name": "jobFeeInJuels",
          "type": "uint256"
        }
      ],
      "stateMutability": "view",
      "type": "function"
    },
    {
      "inputs": [],
      "name": "oracleAddress",
      "outputs": [
        {
          "internalType": "address",
          "name": "",
          "type": "address"
        }
      ],
      "stateMutability": "view",
      "type": "function"
    },
    {
      "inputs": [],
      "name": "quoteBuffer",
      "outputs": [
        {
          "components": [
            {
              "internalType": "address",
              "name": "srcToken",
              "type": "address"
            },
            {
              "internalType": "address",
              "name": "dstToken",
              "type": "address"
            },
            {
              "internalType": "uint256",
              "name": "inAmount",
              "type": "uint256"
            }
          ],
          "internalType": "struct SwapHelper.SwapInfo",
          "name": "swapInfo",
          "type": "tuple"
        },
        {
          "internalType": "uint256",
          "name": "outAmount",
          "type": "uint256"
        }
      ],
      "stateMutability": "view",
      "type": "function"
    },
    {
      "inputs": [
        {
          "internalType": "bytes32",
          "name": "requestId",
          "type": "bytes32"
        },
        {
          "internalType": "uint256",
          "name": "toAmount",
          "type": "uint256"
        }
      ],
      "name": "registerQuoteRequest",
      "outputs": [],
      "stateMutability": "nonpayable",
      "type": "function"
    },
    {
      "inputs": [
        {
          "internalType": "bytes32",
          "name": "requestId",
          "type": "bytes32"
        },
        {
          "internalType": "bytes",
          "name": "swapCalldata",
          "type": "bytes"
        }
      ],
      "name": "registerSwapCalldata",
      "outputs": [],
      "stateMutability": "nonpayable",
      "type": "function"
    },
    {
      "inputs": [
        {
          "internalType": "address",
          "name": "subscriber",
          "type": "address"
        }
      ],
      "name": "removeSubscriber",
      "outputs": [],
      "stateMutability": "nonpayable",
      "type": "function"
    },
    {
      "inputs": [
        {
          "internalType": "bytes32",
          "name": "role",
          "type": "bytes32"
        },
        {
          "internalType": "address",
          "name": "account",
          "type": "address"
        }
      ],
      "name": "renounceRole",
      "outputs": [],
      "stateMutability": "nonpayable",
      "type": "function"
    },
    {
      "inputs": [
        {
          "internalType": "address",
          "name": "src",
          "type": "address"
        },
        {
          "internalType": "address",
          "name": "dst",
          "type": "address"
        },
        {
          "internalType": "uint256",
          "name": "amount",
          "type": "uint256"
        }
      ],
      "name": "requestQuote",
      "outputs": [],
      "stateMutability": "nonpayable",
      "type": "function"
    },
    {
      "inputs": [
        {
          "internalType": "address",
          "name": "src",
          "type": "address"
        },
        {
          "internalType": "address",
          "name": "dst",
          "type": "address"
        },
        {
          "internalType": "uint256",
          "name": "amount",
          "type": "uint256"
        },
        {
          "internalType": "uint8",
          "name": "slippage",
          "type": "uint8"
        }
      ],
      "name": "requestSwap",
      "outputs": [],
      "stateMutability": "payable",
      "type": "function"
    },
    {
      "inputs": [
        {
          "internalType": "bytes32",
          "name": "role",
          "type": "bytes32"
        },
        {
          "internalType": "address",
          "name": "account",
          "type": "address"
        }
      ],
      "name": "revokeRole",
      "outputs": [],
      "stateMutability": "nonpayable",
      "type": "function"
    },
    {
      "inputs": [
        {
          "internalType": "enum SwapHelper.JobPurpose",
          "name": "_purpose",
          "type": "uint8"
        },
        {
          "internalType": "uint256",
          "name": "_feeInHundredthsOfLink",
          "type": "uint256"
        }
      ],
      "name": "setFeeInHundredthsOfLink",
      "outputs": [],
      "stateMutability": "nonpayable",
      "type": "function"
    },
    {
      "inputs": [
        {
          "internalType": "enum SwapHelper.JobPurpose",
          "name": "_purpose",
          "type": "uint8"
        },
        {
          "components": [
            {
              "internalType": "bytes32",
              "name": "jobId",
              "type": "bytes32"
            },
            {
              "internalType": "uint256",
              "name": "jobFeeInJuels",
              "type": "uint256"
            }
          ],
          "internalType": "struct SwapHelper.JobInfo",
          "name": "_info",
          "type": "tuple"
        }
      ],
      "name": "setJobInfo",
      "outputs": [],
      "stateMutability": "nonpayable",
      "type": "function"
    },
    {
      "inputs": [
        {
          "internalType": "address",
          "name": "_oracleAddress",
          "type": "address"
        }
      ],
      "name": "setOracleAddress",
      "outputs": [],
      "stateMutability": "nonpayable",
      "type": "function"
    },
    {
      "inputs": [
        {
          "internalType": "uint256",
          "name": "toAmount",
          "type": "uint256"
        }
      ],
      "name": "strategistFulfillQuote",
      "outputs": [],
      "stateMutability": "nonpayable",
      "type": "function"
    },
    {
      "inputs": [
        {
          "internalType": "bytes",
          "name": "_swapCalldata",
          "type": "bytes"
        }
      ],
      "name": "strategistFulfillSwap",
      "outputs": [],
      "stateMutability": "payable",
      "type": "function"
    },
    {
      "inputs": [
        {
          "internalType": "uint256",
          "name": "subscriberIdx",
          "type": "uint256"
        }
      ],
      "name": "subscriberAt",
      "outputs": [
        {
          "internalType": "address",
          "name": "",
          "type": "address"
        }
      ],
      "stateMutability": "view",
      "type": "function"
    },
    {
      "inputs": [],
      "name": "subscribersLength",
      "outputs": [
        {
          "internalType": "uint256",
          "name": "",
          "type": "uint256"
        }
      ],
      "stateMutability": "view",
      "type": "function"
    },
    {
      "inputs": [
        {
          "internalType": "bytes4",
          "name": "interfaceId",
          "type": "bytes4"
        }
      ],
      "name": "supportsInterface",
      "outputs": [
        {
          "internalType": "bool",
          "name": "",
          "type": "bool"
        }
      ],
      "stateMutability": "view",
      "type": "function"
    },
    {
      "inputs": [],
      "name": "swapBuffer",
      "outputs": [
        {
          "internalType": "address",
          "name": "srcToken",
          "type": "address"
        },
        {
          "internalType": "address",
          "name": "dstToken",
          "type": "address"
        },
        {
          "internalType": "uint256",
          "name": "inAmount",
          "type": "uint256"
        }
      ],
      "stateMutability": "view",
      "type": "function"
    },
    {
      "inputs": [],
      "name": "withdrawLink",
      "outputs": [],
      "stateMutability": "nonpayable",
      "type": "function"
    },
    {
      "stateMutability": "payable",
      "type": "receive"
    }
  ],
  "bytecode": "0x60a060405260016005553480156200001657600080fd5b5060405162003c6338038062003c6383398101604081905262000039916200074c565b6200005460008051602062003c2383398151915288620001a7565b620000807f93627969d6ba3f2118f574a00f8d1c7fed4282f3728a455e8b3c867b1a1a212b88620001a7565b6200009b60008051602062003c4383398151915288620001a7565b600380546001600160a01b0319166001600160a01b038716179055620000c18462000230565b620000ee6000604051806040016040528085620000de906200083d565b815260006020909101526200027a565b620000fb60008a620002d2565b620001186001604051806040016040528086620000de906200083d565b62000125600189620002d2565b6001600160a01b03861660805260005b81518160ff16101562000197576200018260008051602062003c43833981519152838360ff16815181106200016e576200016e62000865565b6020026020010151620001a760201b60201c565b806200018e8162000891565b91505062000135565b50505050505050505050620009e4565b620001b3828262000341565b6200022c576000828152602081815260408083206001600160a01b03851684529091529020805460ff19166001179055620001eb3390565b6001600160a01b0316816001600160a01b0316837f2f8788117e7eff1d82e926ec794901d17c78024a50270940304540a733656f0d60405160405180910390a45b5050565b60008051602062003c238339815191526200024b816200036c565b600780546001600160a01b0384166001600160a01b031991821681179092556004805490911690911790555050565b60008051602062003c2383398151915262000295816200036c565b8160106000856001811115620002af57620002af620008b3565b815260208082019290925260400160002082518155910151600190910155505050565b60008051602062003c23833981519152620002ed816200036c565b606462000303670de0b6b3a764000084620008c9565b6200030f9190620008e3565b60106000856001811115620003285762000328620008b3565b8152602081019190915260400160002060010155505050565b6000828152602081815260408083206001600160a01b038516845290915290205460ff165b92915050565b6200037881336200037b565b50565b62000387828262000341565b6200022c576200039781620003e8565b620003a4836020620003fb565b604051602001620003b792919062000906565b60408051601f198184030181529082905262461bcd60e51b8252620003df916004016200097f565b60405180910390fd5b6060620003666001600160a01b03831660145b606060006200040c836002620008c9565b62000419906002620009b4565b6001600160401b03811115620004335762000433620005d8565b6040519080825280601f01601f1916602001820160405280156200045e576020820181803683370190505b509050600360fc1b816000815181106200047c576200047c62000865565b60200101906001600160f81b031916908160001a905350600f60fb1b81600181518110620004ae57620004ae62000865565b60200101906001600160f81b031916908160001a9053506000620004d4846002620008c9565b620004e1906001620009b4565b90505b600181111562000563576f181899199a1a9b1b9c1cb0b131b232b360811b85600f166010811062000519576200051962000865565b1a60f81b82828151811062000532576200053262000865565b60200101906001600160f81b031916908160001a90535060049490941c936200055b81620009ca565b9050620004e4565b508315620005b45760405162461bcd60e51b815260206004820181905260248201527f537472696e67733a20686578206c656e67746820696e73756666696369656e746044820152606401620003df565b9392505050565b80516001600160a01b0381168114620005d357600080fd5b919050565b634e487b7160e01b600052604160045260246000fd5b604051601f8201601f191681016001600160401b0381118282101715620006195762000619620005d8565b604052919050565b60005b838110156200063e57818101518382015260200162000624565b50506000910152565b600082601f8301126200065957600080fd5b81516001600160401b03811115620006755762000675620005d8565b6200068a601f8201601f1916602001620005ee565b818152846020838601011115620006a057600080fd5b620006b382602083016020870162000621565b949350505050565b600082601f830112620006cd57600080fd5b815160206001600160401b03821115620006eb57620006eb620005d8565b8160051b620006fc828201620005ee565b92835284810182019282810190878511156200071757600080fd5b83870192505b8483101562000741576200073183620005bb565b825291830191908301906200071d565b979650505050505050565b60008060008060008060008060006101208a8c0312156200076c57600080fd5b8951985060208a015197506200078560408b01620005bb565b96506200079560608b01620005bb565b9550620007a560808b01620005bb565b9450620007b560a08b01620005bb565b60c08b01519094506001600160401b0380821115620007d357600080fd5b620007e18d838e0162000647565b945060e08c0151915080821115620007f857600080fd5b620008068d838e0162000647565b93506101008c01519150808211156200081e57600080fd5b506200082d8c828d01620006bb565b9150509295985092959850929598565b805160208083015191908110156200085f576000198160200360031b1b821691505b50919050565b634e487b7160e01b600052603260045260246000fd5b634e487b7160e01b600052601160045260246000fd5b600060ff821660ff8103620008aa57620008aa6200087b565b60010192915050565b634e487b7160e01b600052602160045260246000fd5b80820281158282048414176200036657620003666200087b565b6000826200090157634e487b7160e01b600052601260045260246000fd5b500490565b7f416363657373436f6e74726f6c3a206163636f756e74200000000000000000008152600083516200094081601785016020880162000621565b7001034b99036b4b9b9b4b733903937b6329607d1b60179184019182015283516200097381602884016020880162000621565b01602801949350505050565b6020815260008251806020840152620009a081604085016020870162000621565b601f01601f19169190910160400192915050565b808201808211156200036657620003666200087b565b600081620009dc57620009dc6200087b565b506000190190565b60805161320762000a1c6000396000818161069b01528181611288015281816113280152818161145e015261151f01526132076000f3fe6080604052600436106101a35760003560e01c806301a76f59146101af57806301ffc9a7146101c457806302458ad8146101f95780631a5b420714610219578063248a9ca3146102395780632f2ff15d1461026757806336568abe146102875780634ab5c503146102a75780634c69c00f146102c75780634e0c6133146102e75780634e22e31e1461030957806350c284b314610329578063627c34ad1461034957806366b8455b146103695780636ccf5b011461037e57806381777a3d146103ab5780638dc654a21461042557806391d148541461043a57806394555d1a1461045a578063a217fddf1461047a578063a378a3241461048f578063a89ae4ba146104b1578063aaeafd56146104d1578063ab3c322d146104f9578063b18b78dd14610518578063b6761cb81461052d578063be555a801461054d578063c0d2e37f1461056d578063d547741f14610587578063d9ff478f146105a7578063dc39b19a146105e1578063e05d6bf2146105f6578063e75d763f14610618578063eaad47b214610661578063f09922ff14610676578063fcdfd9461461068957600080fd5b366101aa57005b600080fd5b6101c26101bd3660046126bc565b6106bd565b005b3480156101d057600080fd5b506101e46101df3660046126f0565b61073e565b60405190151581526020015b60405180910390f35b34801561020557600080fd5b506101c261021436600461271a565b610775565b34801561022557600080fd5b506101c261023436600461277c565b610844565b34801561024557600080fd5b506102596102543660046127b8565b610a0f565b6040519081526020016101f0565b34801561027357600080fd5b506101c26102823660046127d1565b610a24565b34801561029357600080fd5b506101c26102a23660046127d1565b610a45565b3480156102b357600080fd5b506101c26102c236600461280c565b610ac3565b3480156102d357600080fd5b506101c26102e2366004612836565b610b28565b3480156102f357600080fd5b506102596000805160206131b283398151915281565b34801561031557600080fd5b506101c2610324366004612851565b610b6e565b34801561033557600080fd5b506101c26103443660046127b8565b610c09565b34801561035557600080fd5b506101c2610364366004612836565b610c59565b34801561037557600080fd5b50610259610c99565b34801561038a57600080fd5b5061039e6103993660046127b8565b610caa565b6040516101f09190612873565b3480156103b757600080fd5b50604080516060810182526008546001600160a01b039081168252600954166020820152600a5491810191909152600b546103f0919082565b6040805183516001600160a01b03908116825260208086015190911690820152928101519083015260608201526080016101f0565b34801561043157600080fd5b506101c2610cb7565b34801561044657600080fd5b506101e46104553660046127d1565b610ddf565b34801561046657600080fd5b506101c2610475366004612836565b610e08565b34801561048657600080fd5b50610259600081565b34801561049b57600080fd5b5061025960008051602061317283398151915281565b3480156104bd57600080fd5b5060075461039e906001600160a01b031681565b3480156104dd57600080fd5b5061039e73eeeeeeeeeeeeeeeeeeeeeeeeeeeeeeeeeeeeeeee81565b34801561050557600080fd5b50600f546101e490610100900460ff1681565b34801561052457600080fd5b5061039e610e48565b34801561053957600080fd5b50610259610548366004612887565b610e73565b34801561055957600080fd5b506101c26105683660046128a2565b610edd565b34801561057957600080fd5b50600f546101e49060ff1681565b34801561059357600080fd5b506101c26105a23660046127d1565b610f2f565b3480156105b357600080fd5b50600c54600d54600e546105d2926001600160a01b0390811692169083565b6040516101f093929190612914565b3480156105ed57600080fd5b506101c2610f4b565b34801561060257600080fd5b506102596000805160206130e983398151915281565b34801561062457600080fd5b5061064c6106333660046127b8565b6010602052600090815260409020805460019091015482565b604080519283526020830191909152016101f0565b34801561066d57600080fd5b506101c2610fa1565b6101c2610684366004612938565b610ff1565b34801561069557600080fd5b5061039e7f000000000000000000000000000000000000000000000000000000000000000081565b6000805160206131728339815191526106d5816111fe565b600f805460ff1916905560116106eb8382612a07565b50600c54600e54610706916001600160a01b0316903361120b565b61070e61139f565b60015b6040517ffc252eeb655ad1aa88173ff876f64057c196504c7d3819259257f95c7f05b71090600090a25050565b60006001600160e01b03198216637965db0b60e01b148061076f57506301ffc9a760e01b6001600160e01b03198316145b92915050565b60008281526006602052604090205482906001600160a01b031633146107b65760405162461bcd60e51b81526004016107ad90612adc565b60405180910390fd5b60008181526006602052604080822080546001600160a01b031916905551829160008051602061319283398151915291a260116107f38382612a07565b50600f805460ff1916600117905560405161080f908390612b64565b604051908190038120907fa6b78fc047486d5add927aa53ba0d4fc8eb23a5811e0052aebeba21469f51df890600090a2505050565b6000805160206130e983398151915261085c816111fe565b600f805461ff0019169055600080805260106020527f6e0956cda88cad152e89927e53611735b61a5c762d1428573c6931b0a5efcb01546108a490632711718f60e11b611598565b90506108f4604051806040016040528060068152602001651b595d1a1bd960d21b8152506040518060400160405280600381526020016211d15560ea1b815250836115bc9092919063ffffffff16565b610958604051806040016040528060038152602001621d5c9b60ea1b81525061091c876115da565b610925876115da565b61092e876115f0565b60405160200161094093929190612b80565b60408051601f198184030181529190528391906115bc565b6109b16040518060400160405280600781526020016618dbdb9d1858dd60ca1b8152506040518060400160405280600d81526020016c6c6f6375732d66696e616e636560981b815250836115bc9092919063ffffffff16565b600880546001600160a01b038088166001600160a01b0319928316179092556009805492871692909116919091179055600a839055610a078160106000805b815260200190815260200160002060010154611682565b505050505050565b60009081526020819052604090206001015490565b610a2d82610a0f565b610a36816111fe565b610a4083836116a3565b505050565b6001600160a01b0381163314610ab55760405162461bcd60e51b815260206004820152602f60248201527f416363657373436f6e74726f6c3a2063616e206f6e6c792072656e6f756e636560448201526e103937b632b9903337b91039b2b63360891b60648201526084016107ad565b610abf8282611727565b5050565b600080516020613172833981519152610adb816111fe565b6064610aef670de0b6b3a764000084612c2c565b610af99190612c59565b60106000856001811115610b0f57610b0f612ac6565b8152602081019190915260400160002060010155505050565b600080516020613172833981519152610b40816111fe565b50600780546001600160a01b03929092166001600160a01b0319928316811790915560048054909216179055565b60008281526006602052604090205482906001600160a01b03163314610ba65760405162461bcd60e51b81526004016107ad90612adc565b60008181526006602052604080822080546001600160a01b031916905551829160008051602061319283398151915291a2600b829055600f805461ff001916610100179055604051829060008051602061310983398151915290600090a2505050565b600080516020613172833981519152610c21816111fe565b600f805461ff0019169055600b829055604051829060008051602061310983398151915290600090a2610c5261178c565b6000610711565b600080516020613172833981519152610c71816111fe565b610c7c601283611882565b610abf576040516306e971bb60e31b815260040160405180910390fd5b6000610ca56012611897565b905090565b600061076f6012836118a1565b600080516020613172833981519152610ccf816111fe565b6000610ce36003546001600160a01b031690565b90506001600160a01b03811663a9059cbb336040516370a0823160e01b81526001600160a01b038516906370a0823190610d21903090600401612873565b602060405180830381865afa158015610d3e573d6000803e3d6000fd5b505050506040513d601f19601f82011682018060405250810190610d629190612c6d565b6040518363ffffffff1660e01b8152600401610d7f929190612c86565b6020604051808303816000875af1158015610d9e573d6000803e3d6000fd5b505050506040513d601f19601f82011682018060405250810190610dc29190612c9f565b610abf576040516313ff771f60e21b815260040160405180910390fd5b6000918252602082815260408084206001600160a01b0393909316845291905290205460ff1690565b600080516020613172833981519152610e20816111fe565b610e2b6012836118ad565b610abf576040516305c46f6760e31b815260040160405180910390fd5b6000600080516020613172833981519152610e62816111fe565b50506007546001600160a01b031690565b6000600080516020613172833981519152610e8d816111fe565b670de0b6b3a764000060106000856001811115610eac57610eac612ac6565b8152602001908152602001600020600101546064610eca9190612c2c565b610ed49190612c59565b91505b50919050565b600080516020613172833981519152610ef5816111fe565b8160106000856001811115610f0c57610f0c612ac6565b815260208082019290925260400160002082518155910151600190910155505050565b610f3882610a0f565b610f41816111fe565b610a408383611727565b6000805160206130e9833981519152610f63816111fe565b600f54610100900460ff16610f8b57604051636cb45f1560e11b815260040160405180910390fd5b610f9361178c565b50600f805461ff0019169055565b6000805160206131b2833981519152610fb9816111fe565b600f5460ff16610fdc57604051637d683d5360e01b815260040160405180910390fd5b610fe461139f565b50600f805460ff19169055565b6000805160206131b2833981519152611009816111fe565b60328260ff16111561102e576040516336ee37fb60e21b815260040160405180910390fd5b600f805460ff191690553361104486858361120b565b6001600090815260106020527f8c6065603763fec3f5742441d3833f3f43b982453612d76adb39a885e3006b5f54611082906248b15b60e31b611598565b90506110d2604051806040016040528060068152602001651b595d1a1bd960d21b8152506040518060400160405280600381526020016211d15560ea1b815250836115bc9092919063ffffffff16565b61113f604051806040016040528060038152602001621d5c9b60ea1b8152506110fa896115da565b611103896115da565b61110c896115f0565b611115306115da565b6111218a60ff166115f0565b61112a896115da565b60405160200161094096959493929190612cc1565b6111986040518060400160405280600781526020016618dbdb9d1858dd60ca1b8152506040518060400160405280600d81526020016c6c6f6375732d66696e616e636560981b815250836115bc9092919063ffffffff16565b604080516060810182526001600160a01b03808a168083529089166020830181905291909201879052600c80546001600160a01b03199081169093179055600d8054909216179055600e8590556111f4816010600060016109f0565b5050505050505050565b61120881336118c2565b50565b8273eeeeeeeeeeeeeeeeeeeeeeeeeeeeeeeeeeeeeeed196001600160a01b038216016112565782341461125157604051630dd86f5360e11b815260040160405180910390fd5b611399565b61126b6001600160a01b03821683308661191b565b604051636eb1769f60e11b81523060048201526001600160a01b037f00000000000000000000000000000000000000000000000000000000000000008116602483015284919083169063dd62ed3e90604401602060405180830381865afa1580156112da573d6000803e3d6000fd5b505050506040513d601f19601f820116820180604052508101906112fe9190612c6d565b10156113995760405163095ea7b360e01b81526001600160a01b0382169063095ea7b390611354907f00000000000000000000000000000000000000000000000000000000000000009060001990600401612c86565b6020604051808303816000875af1158015611373573d6000803e3d6000fd5b505050506040513d601f19601f820116820180604052508101906113979190612c9f565b505b50505050565b600c546001600160a01b031673eeeeeeeeeeeeeeeeeeeeeeeeeeeeeeeeeeeeeeed190161148f57611489601180546113d69061298d565b80601f01602080910402602001604051908101604052809291908181526020018280546114029061298d565b801561144f5780601f106114245761010080835404028352916020019161144f565b820191906000526020600020905b81548152906001019060200180831161143257829003601f168201915b5050600e546001600160a01b037f000000000000000000000000000000000000000000000000000000000000000016949350915050611973565b50611557565b6115556011805461149f9061298d565b80601f01602080910402602001604051908101604052809291908181526020018280546114cb9061298d565b80156115185780601f106114ed57610100808354040283529160200191611518565b820191906000526020600020905b8154815290600101906020018083116114fb57829003601f168201915b50505050507f00000000000000000000000000000000000000000000000000000000000000006001600160a01b031661199990919063ffffffff16565b505b600c6040516115669190612e0e565b604051908190038120907f098d3af501ac55740f44cc3d45b38cd162e715bd76ae2ec1704db9bcf19df52890600090a2565b6115a06125cb565b6115a86125cb565b6115b4818530866119dd565b949350505050565b60808301516115cb9083611a1a565b6080830151610a409082611a1a565b606061076f6001600160a01b0383166014611a31565b606060006115fd83611bcc565b60010190506000816001600160401b0381111561161c5761161c61261a565b6040519080825280601f01601f191660200182016040528015611646576020820181803683370190505b5090508181016020015b600019016f181899199a1a9b1b9c1cb0b131b232b360811b600a86061a8153600a850494508461165057509392505050565b60045460009061169c906001600160a01b03168484611ca2565b9392505050565b6116ad8282610ddf565b610abf576000828152602081815260408083206001600160a01b03851684529091529020805460ff191660011790556116e33390565b6001600160a01b0316816001600160a01b0316837f2f8788117e7eff1d82e926ec794901d17c78024a50270940304540a733656f0d60405160405180910390a45050565b6117318282610ddf565b15610abf576000828152602081815260408083206001600160a01b0385168085529252808320805460ff1916905551339285917ff6391f5c32d9c69d2a47ea670b442974b53935d1edc7fd64eb21e047a839171b9190a45050565b60006117986012611897565b905060005b8181101561183f576117b06012826118a1565b600854600954600b54600a5460405163b91dc4bb60e01b81526001600160a01b03948516600482015292841660248401526044830191909152606482015291169063b91dc4bb90608401600060405180830381600087803b15801561181457600080fd5b505af1158015611828573d6000803e3d6000fd5b50505050808061183790612e20565b91505061179d565b50600860405161184f9190612e39565b604051908190038120907fa8e5b3954602a050e4fd58bfdb4679c92cdf00addead6c0178ced776602ed45290600090a250565b600061169c836001600160a01b038416611d33565b600061076f825490565b600061169c8383611e26565b600061169c836001600160a01b038416611e50565b6118cc8282610ddf565b610abf576118d9816115da565b6118e4836020611a31565b6040516020016118f5929190612e55565b60408051601f198184030181529082905262461bcd60e51b82526107ad91600401612ef0565b611399846323b872dd60e01b85858560405160240161193c93929190612914565b60408051601f198184030181529190526020810180516001600160e01b03166001600160e01b031990931692909217909152611e9f565b60606115b484848460405180606001604052806029815260200161312960299139611f74565b606061169c838360006040518060400160405280601e81526020017f416464726573733a206c6f772d6c6576656c2063616c6c206661696c65640000815250611f74565b6119e56125cb565b6119f5856080015161010061204f565b50509183526001600160a01b031660208301526001600160e01b031916604082015290565b611a2782600383516120a7565b610a4082826121ae565b60606000611a40836002612c2c565b611a4b906002612f03565b6001600160401b03811115611a6257611a6261261a565b6040519080825280601f01601f191660200182016040528015611a8c576020820181803683370190505b509050600360fc1b81600081518110611aa757611aa7612f16565b60200101906001600160f81b031916908160001a905350600f60fb1b81600181518110611ad657611ad6612f16565b60200101906001600160f81b031916908160001a9053506000611afa846002612c2c565b611b05906001612f03565b90505b6001811115611b7d576f181899199a1a9b1b9c1cb0b131b232b360811b85600f1660108110611b3957611b39612f16565b1a60f81b828281518110611b4f57611b4f612f16565b60200101906001600160f81b031916908160001a90535060049490941c93611b7681612f2c565b9050611b08565b50831561169c5760405162461bcd60e51b815260206004820181905260248201527f537472696e67733a20686578206c656e67746820696e73756666696369656e7460448201526064016107ad565b60008072184f03e93ff9f4daa797ed6e38ed64bf6a1f0160401b8310611c0b5772184f03e93ff9f4daa797ed6e38ed64bf6a1f0160401b830492506040015b6904ee2d6d415b85acef8160201b8310611c35576904ee2d6d415b85acef8160201b830492506020015b662386f26fc100008310611c5357662386f26fc10000830492506010015b6305f5e1008310611c6b576305f5e100830492506008015b6127108310611c7f57612710830492506004015b60648310611c91576064830492506002015b600a831061076f5760010192915050565b600554600090611cb3816001612f03565b60055583516040808601516080870151519151600093633c6d41b960e01b93611ce9938693849392899160029190602401612f43565b60408051601f198184030181529190526020810180516001600160e01b03166001600160e01b0319909316929092179091529050611d29868386846121c8565b9695505050505050565b60008181526001830160205260408120548015611e1c576000611d57600183612f8b565b8554909150600090611d6b90600190612f8b565b9050818114611dd0576000866000018281548110611d8b57611d8b612f16565b9060005260206000200154905080876000018481548110611dae57611dae612f16565b6000918252602080832090910192909255918252600188019052604090208390555b8554869080611de157611de1612f9e565b60019003818190600052602060002001600090559055856001016000868152602001908152602001600020600090556001935050505061076f565b600091505061076f565b6000826000018281548110611e3d57611e3d612f16565b9060005260206000200154905092915050565b6000818152600183016020526040812054611e975750815460018181018455600084815260208082209093018490558454848252828601909352604090209190915561076f565b50600061076f565b6000611ef4826040518060400160405280602081526020017f5361666545524332303a206c6f772d6c6576656c2063616c6c206661696c6564815250856001600160a01b03166123219092919063ffffffff16565b9050805160001480611f15575080806020019051810190611f159190612c9f565b610a405760405162461bcd60e51b815260206004820152602a60248201527f5361666545524332303a204552433230206f7065726174696f6e20646964206e6044820152691bdd081cdd58d8d9595960b21b60648201526084016107ad565b606082471015611fd55760405162461bcd60e51b815260206004820152602660248201527f416464726573733a20696e73756666696369656e742062616c616e636520666f6044820152651c8818d85b1b60d21b60648201526084016107ad565b600080866001600160a01b03168587604051611ff19190612b64565b60006040518083038185875af1925050503d806000811461202e576040519150601f19603f3d011682016040523d82523d6000602084013e612033565b606091505b509150915061204487838387612330565b979650505050505050565b612057612600565b612062602083612fb4565b1561208a57612072602083612fb4565b61207d906020612f8b565b6120879083612f03565b91505b506020828101829052604080518085526000815290920101905290565b6017816001600160401b0316116120cb576113998360e0600585901b1683176123a9565b60ff816001600160401b031611612107576120f1836018611fe0600586901b16176123a9565b50611399836001600160401b03831660016123c1565b61ffff816001600160401b0316116121445761212e836019611fe0600586901b16176123a9565b50611399836001600160401b03831660026123c1565b63ffffffff816001600160401b0316116121835761216d83601a611fe0600586901b16176123a9565b50611399836001600160401b03831660046123c1565b61219883601b611fe0600586901b16176123a9565b50611399836001600160401b03831660086123c1565b6121b6612600565b61169c838460000151518485516123da565b6040516001600160601b03193060601b1660208201526034810184905260009060540160408051808303601f1901815282825280516020918201206000818152600690925291812080546001600160a01b0319166001600160a01b038a1617905590925082917fb5e6e01e79f91267dc17b4e6314d5d4d03593d2ceee0fbb452b750bd70ea5af99190a2600354604051630200057560e51b81526001600160a01b0390911690634000aea09061228690889087908790600401612fc8565b6020604051808303816000875af11580156122a5573d6000803e3d6000fd5b505050506040513d601f19601f820116820180604052508101906122c99190612c9f565b6115b45760405162461bcd60e51b815260206004820152602360248201527f756e61626c6520746f207472616e73666572416e6443616c6c20746f206f7261604482015262636c6560e81b60648201526084016107ad565b60606115b48484600085611f74565b6060831561239f578251600003612398576001600160a01b0385163b6123985760405162461bcd60e51b815260206004820152601d60248201527f416464726573733a2063616c6c20746f206e6f6e2d636f6e747261637400000060448201526064016107ad565b50816115b4565b6115b483836124b7565b6123b1612600565b61169c83846000015151846124e1565b6123c9612600565b6115b484856000015151858561252f565b6123e2612600565b82518211156123f057600080fd5b60208501516123ff8386612f03565b111561243257612432856124228760200151878661241d9190612f03565b6125a3565b61242d906002612c2c565b6125b4565b6000808651805187602083010193508088870111156124515787860182525b505050602084015b602084106124915780518252612470602083612f03565b915061247d602082612f03565b905061248a602085612f8b565b9350612459565b51815160001960208690036101000a019081169019919091161790525083949350505050565b8151156124c75781518083602001fd5b8060405162461bcd60e51b81526004016107ad9190612ef0565b6124e9612600565b8360200151831061250957612509848560200151600261242d9190612c2c565b8351805160208583010184815350808503612525576001810182525b5093949350505050565b612537612600565b60208501516125468584612f03565b111561255a5761255a856124228685612f03565b6000600161256a846101006130dc565b6125749190612f8b565b90508551838682010185831982511617815250805184870111156125985783860181525b509495945050505050565b600081831115610ed757508161076f565b81516125c0838361204f565b5061139983826121ae565b6040805160a0810182526000808252602082018190529181018290526060810191909152608081016125fb612600565b905290565b604051806040016040528060608152602001600081525090565b634e487b7160e01b600052604160045260246000fd5b600082601f83011261264157600080fd5b81356001600160401b038082111561265b5761265b61261a565b604051601f8301601f19908116603f011681019082821181831017156126835761268361261a565b8160405283815286602085880101111561269c57600080fd5b836020870160208301376000602085830101528094505050505092915050565b6000602082840312156126ce57600080fd5b81356001600160401b038111156126e457600080fd5b6115b484828501612630565b60006020828403121561270257600080fd5b81356001600160e01b03198116811461169c57600080fd5b6000806040838503121561272d57600080fd5b8235915060208301356001600160401b0381111561274a57600080fd5b61275685828601612630565b9150509250929050565b80356001600160a01b038116811461277757600080fd5b919050565b60008060006060848603121561279157600080fd5b61279a84612760565b92506127a860208501612760565b9150604084013590509250925092565b6000602082840312156127ca57600080fd5b5035919050565b600080604083850312156127e457600080fd5b823591506127f460208401612760565b90509250929050565b80356002811061277757600080fd5b6000806040838503121561281f57600080fd5b612828836127fd565b946020939093013593505050565b60006020828403121561284857600080fd5b61169c82612760565b6000806040838503121561286457600080fd5b50508035926020909101359150565b6001600160a01b0391909116815260200190565b60006020828403121561289957600080fd5b61169c826127fd565b60008082840360608112156128b657600080fd5b6128bf846127fd565b92506040601f19820112156128d357600080fd5b50604080519081016001600160401b03811182821017156128f6576128f661261a565b60409081526020858101358352940135938101939093525092909150565b6001600160a01b039384168152919092166020820152604081019190915260600190565b6000806000806080858703121561294e57600080fd5b61295785612760565b935061296560208601612760565b925060408501359150606085013560ff8116811461298257600080fd5b939692955090935050565b600181811c908216806129a157607f821691505b602082108103610ed757634e487b7160e01b600052602260045260246000fd5b601f821115610a4057600081815260208120601f850160051c810160208610156129e85750805b601f850160051c820191505b81811015610a07578281556001016129f4565b81516001600160401b03811115612a2057612a2061261a565b612a3481612a2e845461298d565b846129c1565b602080601f831160018114612a695760008415612a515750858301515b600019600386901b1c1916600185901b178555610a07565b600085815260208120601f198616915b82811015612a9857888601518255948401946001909101908401612a79565b5085821015612ab65787850151600019600388901b60f8161c191681555b5050505050600190811b01905550565b634e487b7160e01b600052602160045260246000fd5b60208082526028908201527f536f75726365206d75737420626520746865206f7261636c65206f6620746865604082015267081c995c5d595cdd60c21b606082015260800190565b60005b83811015612b3f578181015183820152602001612b27565b50506000910152565b60008151612b5a818560208601612b24565b9290920192915050565b60008251612b76818460208701612b24565b9190910192915050565b60008051602061315283398151915281526b312f71756f74653f7372633d60a01b602082015260008451612bbb81602c850160208901612b24565b64266473743d60d81b602c918401918201528451612be0816031840160208901612b24565b6726616d6f756e743d60c01b603192909101918201528351612c09816039840160208801612b24565b0160390195945050505050565b634e487b7160e01b600052601160045260246000fd5b808202811582820484141761076f5761076f612c16565b634e487b7160e01b600052601260045260246000fd5b600082612c6857612c68612c43565b500490565b600060208284031215612c7f57600080fd5b5051919050565b6001600160a01b03929092168252602082015260400190565b600060208284031215612cb157600080fd5b8151801515811461169c57600080fd5b60008051602061315283398151915281526a312f737761703f7372633d60a81b602082015260008751612cfb81602b850160208c01612b24565b64266473743d60d81b602b918401918201528751612d20816030840160208c01612b24565b6726616d6f756e743d60c01b603092909101918201528651612d49816038840160208b01612b24565b652666726f6d3d60d01b603892909101918201528551612d7081603e840160208a01612b24565b6926736c6970706167653d60b01b603e9290910191820152612ddb612dba612db4612d9e6048850189612b48565b692672656365697665723d60b01b8152600a0190565b86612b48565b742664697361626c65457374696d6174653d7472756560581b815260150190565b9998505050505050505050565b80546001600160a01b039081168352600182015416602083015260020154604090910152565b612e188183612de8565b606001919050565b600060018201612e3257612e32612c16565b5060010190565b612e438183612de8565b60039190910154606082015260800190565b76020b1b1b2b9b9a1b7b73a3937b61d1030b1b1b7bab73a1604d1b815260008351612e87816017850160208801612b24565b7001034b99036b4b9b9b4b733903937b6329607d1b6017918401918201528351612eb8816028840160208801612b24565b01602801949350505050565b60008151808452612edc816020860160208601612b24565b601f01601f19169290920160200192915050565b60208152600061169c6020830184612ec4565b8082018082111561076f5761076f612c16565b634e487b7160e01b600052603260045260246000fd5b600081612f3b57612f3b612c16565b506000190190565b60018060a01b038816815286602082015285604082015263ffffffff60e01b851660608201528360808201528260a082015260e060c08201526000612ddb60e0830184612ec4565b8181038181111561076f5761076f612c16565b634e487b7160e01b600052603160045260246000fd5b600082612fc357612fc3612c43565b500690565b60018060a01b0384168152826020820152606060408201526000612fef6060830184612ec4565b95945050505050565b600181815b8085111561303357816000190482111561301957613019612c16565b8085161561302657918102915b93841c9390800290612ffd565b509250929050565b60008261304a5750600161076f565b816130575750600061076f565b816001811461306d576002811461307757613093565b600191505061076f565b60ff84111561308857613088612c16565b50506001821b61076f565b5060208310610133831016604e8410600b84101617156130b6575081810a61076f565b6130c08383612ff8565b80600019048211156130d4576130d4612c16565b029392505050565b600061169c838361303b56fe93627969d6ba3f2118f574a00f8d1c7fed4282f3728a455e8b3c867b1a1a212bb6904e5f1b44229e5609b681fbc2512409afa3e5a9072d0314256c012668dbe4416464726573733a206c6f772d6c6576656c2063616c6c20776974682076616c7565206661696c656468747470733a2f2f6170692e31696e63682e6465762f737761702f76352e322f17a8e30262c1f919c33056d877a3c22b95c2f5e4dac44683c1c2323cd79fbdb07cc135e0cebb02c3480ae5d74d377283180a2601f8f644edf7987b009316c63afab00a984754950c7187fb98f39da0ae224abbbee017c1699445ad0e19474a4da26469706673582212209aeb8fd8d62e29c72fd7077053194bc5cccd6fc567ecde76e82c3dab313d31e364736f6c6343000813003317a8e30262c1f919c33056d877a3c22b95c2f5e4dac44683c1c2323cd79fbdb0fab00a984754950c7187fb98f39da0ae224abbbee017c1699445ad0e19474a4d",
  "linkReferences": {},
  "deployedLinkReferences": {}
}