{
  "_format": "hh-sol-artifact-1",
  "contractName": "SwapHelper",
  "sourceName": "contracts/utils/SwapHelper.sol",
  "abi": [
    {
      "inputs": [
        {
          "internalType": "uint256",
          "name": "_quoteJobFee",
          "type": "uint256"
        },
        {
          "internalType": "uint256",
          "name": "_swapCalldataJobFee",
          "type": "uint256"
        },
        {
          "internalType": "address",
          "name": "_strategist",
          "type": "address"
        },
        {
          "internalType": "address",
          "name": "_aggregationRouter",
          "type": "address"
        },
        {
          "internalType": "address",
          "name": "chainlinkTokenAddress",
          "type": "address"
        },
        {
          "internalType": "address",
          "name": "chainlinkOracleAddress",
          "type": "address"
        },
        {
          "internalType": "string",
          "name": "_swapCalldataJobId",
          "type": "string"
        },
        {
          "internalType": "string",
          "name": "_quoteJobId",
          "type": "string"
        },
        {
          "internalType": "address[]",
          "name": "authorizedToSwap",
          "type": "address[]"
        }
      ],
      "stateMutability": "nonpayable",
      "type": "constructor"
    },
    {
      "inputs": [],
      "name": "CannotAddSubscriber",
      "type": "error"
    },
    {
      "inputs": [],
      "name": "CannotRemoveSubscriber",
      "type": "error"
    },
    {
      "inputs": [],
      "name": "NotEnoughNativeTokensSent",
      "type": "error"
    },
    {
      "inputs": [],
      "name": "QuoteOperationIsNotReady",
      "type": "error"
    },
    {
      "inputs": [],
      "name": "SlippageIsTooBig",
      "type": "error"
    },
    {
      "inputs": [],
      "name": "SwapOperationIsNotReady",
      "type": "error"
    },
    {
      "inputs": [],
      "name": "TransferError",
      "type": "error"
    },
    {
      "anonymous": false,
      "inputs": [
        {
          "indexed": true,
          "internalType": "bytes32",
          "name": "id",
          "type": "bytes32"
        }
      ],
      "name": "ChainlinkCancelled",
      "type": "event"
    },
    {
      "anonymous": false,
      "inputs": [
        {
          "indexed": true,
          "internalType": "bytes32",
          "name": "id",
          "type": "bytes32"
        }
      ],
      "name": "ChainlinkFulfilled",
      "type": "event"
    },
    {
      "anonymous": false,
      "inputs": [
        {
          "indexed": true,
          "internalType": "bytes32",
          "name": "id",
          "type": "bytes32"
        }
      ],
      "name": "ChainlinkRequested",
      "type": "event"
    },
    {
      "anonymous": false,
      "inputs": [
        {
          "indexed": true,
          "internalType": "uint256",
          "name": "toAmount",
          "type": "uint256"
        }
      ],
      "name": "QuoteRegistered",
      "type": "event"
    },
    {
      "anonymous": false,
      "inputs": [
        {
          "components": [
            {
              "components": [
                {
                  "internalType": "address",
                  "name": "srcToken",
                  "type": "address"
                },
                {
                  "internalType": "address",
                  "name": "dstToken",
                  "type": "address"
                },
                {
                  "internalType": "uint256",
                  "name": "inAmount",
                  "type": "uint256"
                }
              ],
              "internalType": "struct SwapHelper.SwapInfo",
              "name": "swapInfo",
              "type": "tuple"
            },
            {
              "internalType": "uint256",
              "name": "outAmount",
              "type": "uint256"
            }
          ],
          "indexed": true,
          "internalType": "struct SwapHelper.QuoteInfo",
          "name": "_quoteBuffer",
          "type": "tuple"
        }
      ],
      "name": "QuoteSent",
      "type": "event"
    },
    {
      "anonymous": false,
      "inputs": [
        {
          "indexed": true,
          "internalType": "bytes32",
          "name": "role",
          "type": "bytes32"
        },
        {
          "indexed": true,
          "internalType": "bytes32",
          "name": "previousAdminRole",
          "type": "bytes32"
        },
        {
          "indexed": true,
          "internalType": "bytes32",
          "name": "newAdminRole",
          "type": "bytes32"
        }
      ],
      "name": "RoleAdminChanged",
      "type": "event"
    },
    {
      "anonymous": false,
      "inputs": [
        {
          "indexed": true,
          "internalType": "bytes32",
          "name": "role",
          "type": "bytes32"
        },
        {
          "indexed": true,
          "internalType": "address",
          "name": "account",
          "type": "address"
        },
        {
          "indexed": true,
          "internalType": "address",
          "name": "sender",
          "type": "address"
        }
      ],
      "name": "RoleGranted",
      "type": "event"
    },
    {
      "anonymous": false,
      "inputs": [
        {
          "indexed": true,
          "internalType": "bytes32",
          "name": "role",
          "type": "bytes32"
        },
        {
          "indexed": true,
          "internalType": "address",
          "name": "account",
          "type": "address"
        },
        {
          "indexed": true,
          "internalType": "address",
          "name": "sender",
          "type": "address"
        }
      ],
      "name": "RoleRevoked",
      "type": "event"
    },
    {
      "anonymous": false,
      "inputs": [
        {
          "indexed": true,
          "internalType": "enum SwapHelper.StrategistInterference",
          "name": "interference",
          "type": "uint8"
        }
      ],
      "name": "StrategistInterferred",
      "type": "event"
    },
    {
      "anonymous": false,
      "inputs": [
        {
          "components": [
            {
              "internalType": "address",
              "name": "srcToken",
              "type": "address"
            },
            {
              "internalType": "address",
              "name": "dstToken",
              "type": "address"
            },
            {
              "internalType": "uint256",
              "name": "inAmount",
              "type": "uint256"
            }
          ],
          "indexed": true,
          "internalType": "struct SwapHelper.SwapInfo",
          "name": "_swapBuffer",
          "type": "tuple"
        }
      ],
      "name": "SwapPerformed",
      "type": "event"
    },
    {
      "anonymous": false,
      "inputs": [
        {
          "indexed": true,
          "internalType": "bytes",
          "name": "swapCalldata",
          "type": "bytes"
        }
      ],
      "name": "SwapRegistered",
      "type": "event"
    },
    {
      "inputs": [],
      "name": "DEFAULT_ADMIN_ROLE",
      "outputs": [
        {
          "internalType": "bytes32",
          "name": "",
          "type": "bytes32"
        }
      ],
      "stateMutability": "view",
      "type": "function"
    },
    {
      "inputs": [],
      "name": "ONE_INCH_ETH_ADDRESS",
      "outputs": [
        {
          "internalType": "address",
          "name": "",
          "type": "address"
        }
      ],
      "stateMutability": "view",
      "type": "function"
    },
    {
      "inputs": [],
      "name": "QUOTE_AUTHORIZED_ROLE",
      "outputs": [
        {
          "internalType": "bytes32",
          "name": "",
          "type": "bytes32"
        }
      ],
      "stateMutability": "view",
      "type": "function"
    },
    {
      "inputs": [],
      "name": "STRATEGIST_ROLE",
      "outputs": [
        {
          "internalType": "bytes32",
          "name": "",
          "type": "bytes32"
        }
      ],
      "stateMutability": "view",
      "type": "function"
    },
    {
      "inputs": [],
      "name": "SWAP_AUTHORIZED_ROLE",
      "outputs": [
        {
          "internalType": "bytes32",
          "name": "",
          "type": "bytes32"
        }
      ],
      "stateMutability": "view",
      "type": "function"
    },
    {
      "inputs": [
        {
          "internalType": "address",
          "name": "subscriber",
          "type": "address"
        }
      ],
      "name": "addSubscriber",
      "outputs": [],
      "stateMutability": "nonpayable",
      "type": "function"
    },
    {
      "inputs": [],
      "name": "aggregationRouter",
      "outputs": [
        {
          "internalType": "address",
          "name": "",
          "type": "address"
        }
      ],
      "stateMutability": "view",
      "type": "function"
    },
    {
      "inputs": [],
      "name": "fulfillQuote",
      "outputs": [],
      "stateMutability": "nonpayable",
      "type": "function"
    },
    {
      "inputs": [],
      "name": "fulfillSwap",
      "outputs": [],
      "stateMutability": "nonpayable",
      "type": "function"
    },
    {
      "inputs": [
        {
          "internalType": "enum SwapHelper.JobPurpose",
          "name": "_purpose",
          "type": "uint8"
        }
      ],
      "name": "getFeeInHundredthsOfLink",
      "outputs": [
        {
          "internalType": "uint256",
          "name": "",
          "type": "uint256"
        }
      ],
      "stateMutability": "view",
      "type": "function"
    },
    {
      "inputs": [],
      "name": "getOracleAddress",
      "outputs": [
        {
          "internalType": "address",
          "name": "",
          "type": "address"
        }
      ],
      "stateMutability": "view",
      "type": "function"
    },
    {
      "inputs": [
        {
          "internalType": "bytes32",
          "name": "role",
          "type": "bytes32"
        }
      ],
      "name": "getRoleAdmin",
      "outputs": [
        {
          "internalType": "bytes32",
          "name": "",
          "type": "bytes32"
        }
      ],
      "stateMutability": "view",
      "type": "function"
    },
    {
      "inputs": [
        {
          "internalType": "bytes32",
          "name": "role",
          "type": "bytes32"
        },
        {
          "internalType": "address",
          "name": "account",
          "type": "address"
        }
      ],
      "name": "grantRole",
      "outputs": [],
      "stateMutability": "nonpayable",
      "type": "function"
    },
    {
      "inputs": [
        {
          "internalType": "bytes32",
          "name": "role",
          "type": "bytes32"
        },
        {
          "internalType": "address",
          "name": "account",
          "type": "address"
        }
      ],
      "name": "hasRole",
      "outputs": [
        {
          "internalType": "bool",
          "name": "",
          "type": "bool"
        }
      ],
      "stateMutability": "view",
      "type": "function"
    },
    {
      "inputs": [],
      "name": "isReadyToFulfillQuote",
      "outputs": [
        {
          "internalType": "bool",
          "name": "",
          "type": "bool"
        }
      ],
      "stateMutability": "view",
      "type": "function"
    },
    {
      "inputs": [],
      "name": "isReadyToFulfillSwap",
      "outputs": [
        {
          "internalType": "bool",
          "name": "",
          "type": "bool"
        }
      ],
      "stateMutability": "view",
      "type": "function"
    },
    {
      "inputs": [
        {
          "internalType": "uint256",
          "name": "",
          "type": "uint256"
        }
      ],
      "name": "jobInfos",
      "outputs": [
        {
          "internalType": "bytes32",
          "name": "jobId",
          "type": "bytes32"
        },
        {
          "internalType": "uint256",
          "name": "jobFeeInJuels",
          "type": "uint256"
        }
      ],
      "stateMutability": "view",
      "type": "function"
    },
    {
      "inputs": [],
      "name": "oracleAddress",
      "outputs": [
        {
          "internalType": "address",
          "name": "",
          "type": "address"
        }
      ],
      "stateMutability": "view",
      "type": "function"
    },
    {
      "inputs": [],
      "name": "quoteBuffer",
      "outputs": [
        {
          "components": [
            {
              "internalType": "address",
              "name": "srcToken",
              "type": "address"
            },
            {
              "internalType": "address",
              "name": "dstToken",
              "type": "address"
            },
            {
              "internalType": "uint256",
              "name": "inAmount",
              "type": "uint256"
            }
          ],
          "internalType": "struct SwapHelper.SwapInfo",
          "name": "swapInfo",
          "type": "tuple"
        },
        {
          "internalType": "uint256",
          "name": "outAmount",
          "type": "uint256"
        }
      ],
      "stateMutability": "view",
      "type": "function"
    },
    {
      "inputs": [
        {
          "internalType": "bytes32",
          "name": "requestId",
          "type": "bytes32"
        },
        {
          "internalType": "uint256",
          "name": "toAmount",
          "type": "uint256"
        }
      ],
      "name": "registerQuoteAndFulfillRequestOnOracleExpense",
      "outputs": [],
      "stateMutability": "nonpayable",
      "type": "function"
    },
    {
      "inputs": [
        {
          "internalType": "bytes32",
          "name": "requestId",
          "type": "bytes32"
        },
        {
          "internalType": "uint256",
          "name": "toAmount",
          "type": "uint256"
        }
      ],
      "name": "registerQuoteRequest",
      "outputs": [],
      "stateMutability": "nonpayable",
      "type": "function"
    },
    {
      "inputs": [
        {
          "internalType": "bytes32",
          "name": "requestId",
          "type": "bytes32"
        },
        {
          "internalType": "bytes",
          "name": "swapCalldata",
          "type": "bytes"
        }
      ],
      "name": "registerSwapCalldata",
      "outputs": [],
      "stateMutability": "nonpayable",
      "type": "function"
    },
    {
      "inputs": [
        {
          "internalType": "bytes32",
          "name": "requestId",
          "type": "bytes32"
        },
        {
          "internalType": "bytes",
          "name": "swapCalldata",
          "type": "bytes"
        }
      ],
      "name": "registerSwapCalldataAndFulfillOnOracleExpense",
      "outputs": [],
      "stateMutability": "nonpayable",
      "type": "function"
    },
    {
      "inputs": [
        {
          "internalType": "address",
          "name": "subscriber",
          "type": "address"
        }
      ],
      "name": "removeSubscriber",
      "outputs": [],
      "stateMutability": "nonpayable",
      "type": "function"
    },
    {
      "inputs": [
        {
          "internalType": "bytes32",
          "name": "role",
          "type": "bytes32"
        },
        {
          "internalType": "address",
          "name": "account",
          "type": "address"
        }
      ],
      "name": "renounceRole",
      "outputs": [],
      "stateMutability": "nonpayable",
      "type": "function"
    },
    {
      "inputs": [
        {
          "internalType": "address",
          "name": "src",
          "type": "address"
        },
        {
          "internalType": "address",
          "name": "dst",
          "type": "address"
        },
        {
          "internalType": "uint256",
          "name": "amount",
          "type": "uint256"
        }
      ],
      "name": "requestQuote",
      "outputs": [],
      "stateMutability": "nonpayable",
      "type": "function"
    },
    {
      "inputs": [
        {
          "internalType": "address",
          "name": "src",
          "type": "address"
        },
        {
          "internalType": "address",
          "name": "dst",
          "type": "address"
        },
        {
          "internalType": "uint256",
          "name": "amount",
          "type": "uint256"
        }
      ],
      "name": "requestQuoteAndFulfillOnOracleExpense",
      "outputs": [],
      "stateMutability": "nonpayable",
      "type": "function"
    },
    {
      "inputs": [
        {
          "internalType": "address",
          "name": "src",
          "type": "address"
        },
        {
          "internalType": "address",
          "name": "dst",
          "type": "address"
        },
        {
          "internalType": "uint256",
          "name": "amount",
          "type": "uint256"
        },
        {
          "internalType": "uint8",
          "name": "slippage",
          "type": "uint8"
        }
      ],
      "name": "requestSwap",
      "outputs": [],
      "stateMutability": "payable",
      "type": "function"
    },
    {
      "inputs": [
        {
          "internalType": "address",
          "name": "src",
          "type": "address"
        },
        {
          "internalType": "address",
          "name": "dst",
          "type": "address"
        },
        {
          "internalType": "uint256",
          "name": "amount",
          "type": "uint256"
        },
        {
          "internalType": "uint8",
          "name": "slippage",
          "type": "uint8"
        }
      ],
      "name": "requestSwapAndFulfillOnOracleExpense",
      "outputs": [],
      "stateMutability": "payable",
      "type": "function"
    },
    {
      "inputs": [
        {
          "internalType": "bytes32",
          "name": "role",
          "type": "bytes32"
        },
        {
          "internalType": "address",
          "name": "account",
          "type": "address"
        }
      ],
      "name": "revokeRole",
      "outputs": [],
      "stateMutability": "nonpayable",
      "type": "function"
    },
    {
      "inputs": [
        {
          "internalType": "enum SwapHelper.JobPurpose",
          "name": "_purpose",
          "type": "uint8"
        },
        {
          "internalType": "uint256",
          "name": "_feeInHundredthsOfLink",
          "type": "uint256"
        }
      ],
      "name": "setFeeInHundredthsOfLink",
      "outputs": [],
      "stateMutability": "nonpayable",
      "type": "function"
    },
    {
      "inputs": [
        {
          "internalType": "enum SwapHelper.JobPurpose",
          "name": "_purpose",
          "type": "uint8"
        },
        {
          "components": [
            {
              "internalType": "bytes32",
              "name": "jobId",
              "type": "bytes32"
            },
            {
              "internalType": "uint256",
              "name": "jobFeeInJuels",
              "type": "uint256"
            }
          ],
          "internalType": "struct SwapHelper.JobInfo",
          "name": "_info",
          "type": "tuple"
        }
      ],
      "name": "setJobInfo",
      "outputs": [],
      "stateMutability": "nonpayable",
      "type": "function"
    },
    {
      "inputs": [
        {
          "internalType": "address",
          "name": "_oracleAddress",
          "type": "address"
        }
      ],
      "name": "setOracleAddress",
      "outputs": [],
      "stateMutability": "nonpayable",
      "type": "function"
    },
    {
      "inputs": [
        {
          "internalType": "uint256",
          "name": "toAmount",
          "type": "uint256"
        }
      ],
      "name": "strategistFulfillQuote",
      "outputs": [],
      "stateMutability": "nonpayable",
      "type": "function"
    },
    {
      "inputs": [
        {
          "internalType": "bytes",
          "name": "_swapCalldata",
          "type": "bytes"
        }
      ],
      "name": "strategistFulfillSwap",
      "outputs": [],
      "stateMutability": "payable",
      "type": "function"
    },
    {
      "inputs": [
        {
          "internalType": "uint256",
          "name": "subscriberIdx",
          "type": "uint256"
        }
      ],
      "name": "subscriberAt",
      "outputs": [
        {
          "internalType": "address",
          "name": "",
          "type": "address"
        }
      ],
      "stateMutability": "view",
      "type": "function"
    },
    {
      "inputs": [],
      "name": "subscribersLength",
      "outputs": [
        {
          "internalType": "uint256",
          "name": "",
          "type": "uint256"
        }
      ],
      "stateMutability": "view",
      "type": "function"
    },
    {
      "inputs": [
        {
          "internalType": "bytes4",
          "name": "interfaceId",
          "type": "bytes4"
        }
      ],
      "name": "supportsInterface",
      "outputs": [
        {
          "internalType": "bool",
          "name": "",
          "type": "bool"
        }
      ],
      "stateMutability": "view",
      "type": "function"
    },
    {
      "inputs": [],
      "name": "swapBuffer",
      "outputs": [
        {
          "internalType": "address",
          "name": "srcToken",
          "type": "address"
        },
        {
          "internalType": "address",
          "name": "dstToken",
          "type": "address"
        },
        {
          "internalType": "uint256",
          "name": "inAmount",
          "type": "uint256"
        }
      ],
      "stateMutability": "view",
      "type": "function"
    },
    {
      "inputs": [],
      "name": "withdrawLink",
      "outputs": [],
      "stateMutability": "nonpayable",
      "type": "function"
    },
    {
      "stateMutability": "payable",
      "type": "receive"
    }
  ],
  "bytecode": "0x60a060405260016005553480156200001657600080fd5b5060405162003ee238038062003ee283398101604081905262000039916200074c565b6200005460008051602062003ea283398151915288620001a7565b620000807f93627969d6ba3f2118f574a00f8d1c7fed4282f3728a455e8b3c867b1a1a212b88620001a7565b6200009b60008051602062003ec283398151915288620001a7565b600380546001600160a01b0319166001600160a01b038716179055620000c18462000230565b620000ee6000604051806040016040528085620000de906200083d565b815260006020909101526200027a565b620000fb60008a620002d2565b620001186001604051806040016040528086620000de906200083d565b62000125600189620002d2565b6001600160a01b03861660805260005b81518160ff16101562000197576200018260008051602062003ec2833981519152838360ff16815181106200016e576200016e62000865565b6020026020010151620001a760201b60201c565b806200018e8162000891565b91505062000135565b50505050505050505050620009e4565b620001b3828262000341565b6200022c576000828152602081815260408083206001600160a01b03851684529091529020805460ff19166001179055620001eb3390565b6001600160a01b0316816001600160a01b0316837f2f8788117e7eff1d82e926ec794901d17c78024a50270940304540a733656f0d60405160405180910390a45b5050565b60008051602062003ea28339815191526200024b816200036c565b600780546001600160a01b0384166001600160a01b031991821681179092556004805490911690911790555050565b60008051602062003ea283398151915262000295816200036c565b8160106000856001811115620002af57620002af620008b3565b815260208082019290925260400160002082518155910151600190910155505050565b60008051602062003ea2833981519152620002ed816200036c565b606462000303670de0b6b3a764000084620008c9565b6200030f9190620008e3565b60106000856001811115620003285762000328620008b3565b8152602081019190915260400160002060010155505050565b6000828152602081815260408083206001600160a01b038516845290915290205460ff165b92915050565b6200037881336200037b565b50565b62000387828262000341565b6200022c576200039781620003e8565b620003a4836020620003fb565b604051602001620003b792919062000906565b60408051601f198184030181529082905262461bcd60e51b8252620003df916004016200097f565b60405180910390fd5b6060620003666001600160a01b03831660145b606060006200040c836002620008c9565b62000419906002620009b4565b6001600160401b03811115620004335762000433620005d8565b6040519080825280601f01601f1916602001820160405280156200045e576020820181803683370190505b509050600360fc1b816000815181106200047c576200047c62000865565b60200101906001600160f81b031916908160001a905350600f60fb1b81600181518110620004ae57620004ae62000865565b60200101906001600160f81b031916908160001a9053506000620004d4846002620008c9565b620004e1906001620009b4565b90505b600181111562000563576f181899199a1a9b1b9c1cb0b131b232b360811b85600f166010811062000519576200051962000865565b1a60f81b82828151811062000532576200053262000865565b60200101906001600160f81b031916908160001a90535060049490941c936200055b81620009ca565b9050620004e4565b508315620005b45760405162461bcd60e51b815260206004820181905260248201527f537472696e67733a20686578206c656e67746820696e73756666696369656e746044820152606401620003df565b9392505050565b80516001600160a01b0381168114620005d357600080fd5b919050565b634e487b7160e01b600052604160045260246000fd5b604051601f8201601f191681016001600160401b0381118282101715620006195762000619620005d8565b604052919050565b60005b838110156200063e57818101518382015260200162000624565b50506000910152565b600082601f8301126200065957600080fd5b81516001600160401b03811115620006755762000675620005d8565b6200068a601f8201601f1916602001620005ee565b818152846020838601011115620006a057600080fd5b620006b382602083016020870162000621565b949350505050565b600082601f830112620006cd57600080fd5b815160206001600160401b03821115620006eb57620006eb620005d8565b8160051b620006fc828201620005ee565b92835284810182019282810190878511156200071757600080fd5b83870192505b8483101562000741576200073183620005bb565b825291830191908301906200071d565b979650505050505050565b60008060008060008060008060006101208a8c0312156200076c57600080fd5b8951985060208a015197506200078560408b01620005bb565b96506200079560608b01620005bb565b9550620007a560808b01620005bb565b9450620007b560a08b01620005bb565b60c08b01519094506001600160401b0380821115620007d357600080fd5b620007e18d838e0162000647565b945060e08c0151915080821115620007f857600080fd5b620008068d838e0162000647565b93506101008c01519150808211156200081e57600080fd5b506200082d8c828d01620006bb565b9150509295985092959850929598565b805160208083015191908110156200085f576000198160200360031b1b821691505b50919050565b634e487b7160e01b600052603260045260246000fd5b634e487b7160e01b600052601160045260246000fd5b600060ff821660ff8103620008aa57620008aa6200087b565b60010192915050565b634e487b7160e01b600052602160045260246000fd5b80820281158282048414176200036657620003666200087b565b6000826200090157634e487b7160e01b600052601260045260246000fd5b500490565b7f416363657373436f6e74726f6c3a206163636f756e74200000000000000000008152600083516200094081601785016020880162000621565b7001034b99036b4b9b9b4b733903937b6329607d1b60179184019182015283516200097381602884016020880162000621565b01602801949350505050565b6020815260008251806020840152620009a081604085016020870162000621565b601f01601f19169190910160400192915050565b808201808211156200036657620003666200087b565b600081620009dc57620009dc6200087b565b506000190190565b60805161348662000a1c6000396000818161073a01528181611169015281816112090152818161133701526113f801526134866000f3fe6080604052600436106101cf5760003560e01c806301a76f59146101db57806301ffc9a7146101f057806302458ad81461022557806310cabd1d146102455780631a5b420714610258578063248a9ca3146102785780632f2ff15d146102a657806336568abe146102c65780634ab5c503146102e65780634c69c00f146103065780634d1dde7b146103265780634e0c6133146103465780634e22e31e1461036857806350c284b314610388578063627c34ad146103a857806366b8455b146103c85780636ccf5b01146103dd57806381777a3d1461040a5780638dc654a21461048457806391d148541461049957806394555d1a146104b9578063a217fddf146104d9578063a378a324146104ee578063a74d01d414610510578063a89ae4ba14610530578063aaeafd5614610550578063ab3c322d14610578578063b18b78dd14610597578063b6761cb8146105ac578063be555a80146105cc578063c0d2e37f146105ec578063cacfacf414610606578063d547741f14610626578063d9ff478f14610646578063dc39b19a14610680578063e05d6bf214610695578063e75d763f146106b7578063eaad47b214610700578063f09922ff14610715578063fcdfd9461461072857600080fd5b366101d657005b600080fd5b6101ee6101e936600461291b565b61075c565b005b3480156101fc57600080fd5b5061021061020b36600461294f565b6107dd565b60405190151581526020015b60405180910390f35b34801561023157600080fd5b506101ee610240366004612979565b610814565b6101ee6102533660046129db565b6108d1565b34801561026457600080fd5b506101ee610273366004612a30565b61090e565b34801561028457600080fd5b50610298610293366004612a6c565b61094a565b60405190815260200161021c565b3480156102b257600080fd5b506101ee6102c1366004612a85565b61095f565b3480156102d257600080fd5b506101ee6102e1366004612a85565b610980565b3480156102f257600080fd5b506101ee610301366004612ac0565b6109fe565b34801561031257600080fd5b506101ee610321366004612aea565b610a63565b34801561033257600080fd5b506101ee610341366004612a30565b610aa9565b34801561035257600080fd5b5061029860008051602061343183398151915281565b34801561037457600080fd5b506101ee610383366004612b05565b610ad4565b34801561039457600080fd5b506101ee6103a3366004612a6c565b610b6f565b3480156103b457600080fd5b506101ee6103c3366004612aea565b610bbf565b3480156103d457600080fd5b50610298610bff565b3480156103e957600080fd5b506103fd6103f8366004612a6c565b610c10565b60405161021c9190612b27565b34801561041657600080fd5b50604080516060810182526008546001600160a01b039081168252600954166020820152600a5491810191909152600b5461044f919082565b6040805183516001600160a01b039081168252602080860151909116908201529281015190830152606082015260800161021c565b34801561049057600080fd5b506101ee610c1d565b3480156104a557600080fd5b506102106104b4366004612a85565b610d45565b3480156104c557600080fd5b506101ee6104d4366004612aea565b610d6e565b3480156104e557600080fd5b50610298600081565b3480156104fa57600080fd5b506102986000805160206133d183398151915281565b34801561051c57600080fd5b506101ee61052b366004612b05565b610dae565b34801561053c57600080fd5b506007546103fd906001600160a01b031681565b34801561055c57600080fd5b506103fd73eeeeeeeeeeeeeeeeeeeeeeeeeeeeeeeeeeeeeeee81565b34801561058457600080fd5b50600f5461021090610100900460ff1681565b3480156105a357600080fd5b506103fd610e3d565b3480156105b857600080fd5b506102986105c7366004612b3b565b610e68565b3480156105d857600080fd5b506101ee6105e7366004612b56565b610ed2565b3480156105f857600080fd5b50600f546102109060ff1681565b34801561061257600080fd5b506101ee610621366004612979565b610f24565b34801561063257600080fd5b506101ee610641366004612a85565b610fe8565b34801561065257600080fd5b50600c54600d54600e54610671926001600160a01b0390811692169083565b60405161021c93929190612bc8565b34801561068c57600080fd5b506101ee611004565b3480156106a157600080fd5b5061029860008051602061334883398151915281565b3480156106c357600080fd5b506106eb6106d2366004612a6c565b6010602052600090815260409020805460019091015482565b6040805192835260208301919091520161021c565b34801561070c57600080fd5b506101ee61105a565b6101ee6107233660046129db565b6110aa565b34801561073457600080fd5b506103fd7f000000000000000000000000000000000000000000000000000000000000000081565b6000805160206133d1833981519152610774816110df565b600f805460ff19169055601161078a8382612c66565b50600c54600e546107a5916001600160a01b031690336110ec565b6107ad611278565b60015b6040517ffc252eeb655ad1aa88173ff876f64057c196504c7d3819259257f95c7f05b71090600090a25050565b60006001600160e01b03198216637965db0b60e01b148061080e57506301ffc9a760e01b6001600160e01b03198316145b92915050565b60008281526006602052604090205482906001600160a01b031633146108555760405162461bcd60e51b815260040161084c90612d3b565b60405180910390fd5b60008181526006602052604080822080546001600160a01b031916905551829160008051602061341183398151915291a260116108928382612c66565b50600f805460ff191660011790556040516108ae908390612dc3565b604051908190038120906000805160206133f183398151915290600090a2505050565b6000805160206134318339815191526108e9816110df565b600f805460ff19169055610907858585856332b3eb3d60e21b611471565b5050505050565b600080516020613348833981519152610926816110df565b600f805461ff0019169055610944848484632711718f60e11b611681565b50505050565b60009081526020819052604090206001015490565b6109688261094a565b610971816110df565b61097b83836117f7565b505050565b6001600160a01b03811633146109f05760405162461bcd60e51b815260206004820152602f60248201527f416363657373436f6e74726f6c3a2063616e206f6e6c792072656e6f756e636560448201526e103937b632b9903337b91039b2b63360891b606482015260840161084c565b6109fa828261187b565b5050565b6000805160206133d1833981519152610a16816110df565b6064610a2a670de0b6b3a764000084612df5565b610a349190612e22565b60106000856001811115610a4a57610a4a612d25565b8152602081019190915260400160002060010155505050565b6000805160206133d1833981519152610a7b816110df565b50600780546001600160a01b03929092166001600160a01b0319928316811790915560048054909216179055565b600080516020613348833981519152610ac1816110df565b6109448484846329d3407560e21b611681565b60008281526006602052604090205482906001600160a01b03163314610b0c5760405162461bcd60e51b815260040161084c90612d3b565b60008181526006602052604080822080546001600160a01b031916905551829160008051602061341183398151915291a2600b829055600f805461ff001916610100179055604051829060008051602061336883398151915290600090a2505050565b6000805160206133d1833981519152610b87816110df565b600f805461ff0019169055600b829055604051829060008051602061336883398151915290600090a2610bb86118e0565b60006107b0565b6000805160206133d1833981519152610bd7816110df565b610be26012836119d6565b6109fa576040516306e971bb60e31b815260040160405180910390fd5b6000610c0b60126119f2565b905090565b600061080e6012836119fc565b6000805160206133d1833981519152610c35816110df565b6000610c496003546001600160a01b031690565b90506001600160a01b03811663a9059cbb336040516370a0823160e01b81526001600160a01b038516906370a0823190610c87903090600401612b27565b602060405180830381865afa158015610ca4573d6000803e3d6000fd5b505050506040513d601f19601f82011682018060405250810190610cc89190612e36565b6040518363ffffffff1660e01b8152600401610ce5929190612e4f565b6020604051808303816000875af1158015610d04573d6000803e3d6000fd5b505050506040513d601f19601f82011682018060405250810190610d289190612e68565b6109fa576040516313ff771f60e21b815260040160405180910390fd5b6000918252602082815260408084206001600160a01b0393909316845291905290205460ff1690565b6000805160206133d1833981519152610d86816110df565b610d91601283611a08565b6109fa576040516305c46f6760e31b815260040160405180910390fd5b60008281526006602052604090205482906001600160a01b03163314610de65760405162461bcd60e51b815260040161084c90612d3b565b60008181526006602052604080822080546001600160a01b031916905551829160008051602061341183398151915291a2600b829055604051829060008051602061336883398151915290600090a261097b6118e0565b60006000805160206133d1833981519152610e57816110df565b50506007546001600160a01b031690565b60006000805160206133d1833981519152610e82816110df565b670de0b6b3a764000060106000856001811115610ea157610ea1612d25565b8152602001908152602001600020600101546064610ebf9190612df5565b610ec99190612e22565b91505b50919050565b6000805160206133d1833981519152610eea816110df565b8160106000856001811115610f0157610f01612d25565b815260208082019290925260400160002082518155910151600190910155505050565b60008281526006602052604090205482906001600160a01b03163314610f5c5760405162461bcd60e51b815260040161084c90612d3b565b60008181526006602052604080822080546001600160a01b031916905551829160008051602061341183398151915291a26011610f998382612c66565b5081604051610fa89190612dc3565b604051908190038120906000805160206133f183398151915290600090a2600c54600e54610fe0916001600160a01b031690336110ec565b61097b611278565b610ff18261094a565b610ffa816110df565b61097b838361187b565b60008051602061334883398151915261101c816110df565b600f54610100900460ff1661104457604051636cb45f1560e11b815260040160405180910390fd5b61104c6118e0565b50600f805461ff0019169055565b600080516020613431833981519152611072816110df565b600f5460ff1661109557604051637d683d5360e01b815260040160405180910390fd5b61109d611278565b50600f805460ff19169055565b6000805160206134318339815191526110c2816110df565b600f805460ff19169055610907858585856248b15b60e31b611471565b6110e98133611a1d565b50565b8273eeeeeeeeeeeeeeeeeeeeeeeeeeeeeeeeeeeeeeed196001600160a01b038216016111375782341461113257604051630dd86f5360e11b815260040160405180910390fd5b610944565b61114c6001600160a01b038216833086611a76565b604051636eb1769f60e11b81523060048201526001600160a01b037f00000000000000000000000000000000000000000000000000000000000000008116602483015284919083169063dd62ed3e90604401602060405180830381865afa1580156111bb573d6000803e3d6000fd5b505050506040513d601f19601f820116820180604052508101906111df9190612e36565b10156109445760405163095ea7b360e01b81526001600160a01b0382169063095ea7b390611235907f00000000000000000000000000000000000000000000000000000000000000009060001990600401612e4f565b6020604051808303816000875af1158015611254573d6000803e3d6000fd5b505050506040513d601f19601f820116820180604052508101906109079190612e68565b600c546001600160a01b031673eeeeeeeeeeeeeeeeeeeeeeeeeeeeeeeeeeeeeeed190161136857611362601180546112af90612bec565b80601f01602080910402602001604051908101604052809291908181526020018280546112db90612bec565b80156113285780601f106112fd57610100808354040283529160200191611328565b820191906000526020600020905b81548152906001019060200180831161130b57829003601f168201915b5050600e546001600160a01b037f000000000000000000000000000000000000000000000000000000000000000016949350915050611ace565b50611430565b61142e6011805461137890612bec565b80601f01602080910402602001604051908101604052809291908181526020018280546113a490612bec565b80156113f15780601f106113c6576101008083540402835291602001916113f1565b820191906000526020600020905b8154815290600101906020018083116113d457829003601f168201915b50505050507f00000000000000000000000000000000000000000000000000000000000000006001600160a01b0316611afc90919063ffffffff16565b505b600c60405161143f9190612eb0565b604051908190038120907f098d3af501ac55740f44cc3d45b38cd162e715bd76ae2ec1704db9bcf19df52890600090a2565b60328260ff161115611496576040516336ee37fb60e21b815260040160405180910390fd5b336114a28685836110ec565b6001600090815260106020527f8c6065603763fec3f5742441d3833f3f43b982453612d76adb39a885e3006b5f546114da9084611b40565b905061152a604051806040016040528060068152602001651b595d1a1bd960d21b8152506040518060400160405280600381526020016211d15560ea1b81525083611b5c9092919063ffffffff16565b6115af604051806040016040528060038152602001621d5c9b60ea1b81525061155289611b7a565b61155b89611b7a565b61156489611b90565b61156d30611b7a565b6115798a60ff16611b90565b61158289611b7a565b60405160200161159796959493929190612ec2565b60408051601f19818403018152919052839190611b5c565b6116086040518060400160405280600781526020016618dbdb9d1858dd60ca1b8152506040518060400160405280600d81526020016c6c6f6375732d66696e616e636560981b81525083611b5c9092919063ffffffff16565b604080516060810182526001600160a01b03808a168083529089166020830181905291909201879052600c80546001600160a01b03199081169093179055600d8054909216179055600e859055611677816010600060015b815260200190815260200160002060010154611c22565b5050505050505050565b600080805260106020527f6e0956cda88cad152e89927e53611735b61a5c762d1428573c6931b0a5efcb01546116b79083611b40565b9050611707604051806040016040528060068152602001651b595d1a1bd960d21b8152506040518060400160405280600381526020016211d15560ea1b81525083611b5c9092919063ffffffff16565b611753604051806040016040528060038152602001621d5c9b60ea1b81525061172f87611b7a565b61173887611b7a565b61174187611b90565b60405160200161159793929190612fe9565b6117ac6040518060400160405280600781526020016618dbdb9d1858dd60ca1b8152506040518060400160405280600d81526020016c6c6f6375732d66696e616e636560981b81525083611b5c9092919063ffffffff16565b600880546001600160a01b038088166001600160a01b0319928316179092556009805492871692909116919091179055600a8390556117ef816010600080611660565b505050505050565b6118018282610d45565b6109fa576000828152602081815260408083206001600160a01b03851684529091529020805460ff191660011790556118373390565b6001600160a01b0316816001600160a01b0316837f2f8788117e7eff1d82e926ec794901d17c78024a50270940304540a733656f0d60405160405180910390a45050565b6118858282610d45565b156109fa576000828152602081815260408083206001600160a01b0385168085529252808320805460ff1916905551339285917ff6391f5c32d9c69d2a47ea670b442974b53935d1edc7fd64eb21e047a839171b9190a45050565b60006118ec60126119f2565b905060005b81811015611993576119046012826119fc565b600854600954600b54600a5460405163782b6fff60e11b81526001600160a01b03948516600482015292841660248401526044830191909152606482015291169063f056dffe90608401600060405180830381600087803b15801561196857600080fd5b505af115801561197c573d6000803e3d6000fd5b50505050808061198b9061307f565b9150506118f1565b5060086040516119a39190613098565b604051908190038120907fa8e5b3954602a050e4fd58bfdb4679c92cdf00addead6c0178ced776602ed45290600090a250565b60006119eb836001600160a01b038416611c3c565b9392505050565b600061080e825490565b60006119eb8383611d2f565b60006119eb836001600160a01b038416611d59565b611a278282610d45565b6109fa57611a3481611b7a565b611a3f836020611da8565b604051602001611a509291906130b4565b60408051601f198184030181529082905262461bcd60e51b825261084c9160040161314f565b610944846323b872dd60e01b858585604051602401611a9793929190612bc8565b60408051601f198184030181529190526020810180516001600160e01b03166001600160e01b031990931692909217909152611f43565b6060611af484848460405180606001604052806029815260200161338860299139612018565b949350505050565b60606119eb838360006040518060400160405280601e81526020017f416464726573733a206c6f772d6c6576656c2063616c6c206661696c65640000815250612018565b611b4861282a565b611b5061282a565b611af4818530866120f3565b6080830151611b6b9083612130565b608083015161097b9082612130565b606061080e6001600160a01b0383166014611da8565b60606000611b9d83612147565b60010190506000816001600160401b03811115611bbc57611bbc612879565b6040519080825280601f01601f191660200182016040528015611be6576020820181803683370190505b5090508181016020015b600019016f181899199a1a9b1b9c1cb0b131b232b360811b600a86061a8153600a8504945084611bf057509392505050565b6004546000906119eb906001600160a01b0316848461221d565b60008181526001830160205260408120548015611d25576000611c60600183613162565b8554909150600090611c7490600190613162565b9050818114611cd9576000866000018281548110611c9457611c94613175565b9060005260206000200154905080876000018481548110611cb757611cb7613175565b6000918252602080832090910192909255918252600188019052604090208390555b8554869080611cea57611cea61318b565b60019003818190600052602060002001600090559055856001016000868152602001908152602001600020600090556001935050505061080e565b600091505061080e565b6000826000018281548110611d4657611d46613175565b9060005260206000200154905092915050565b6000818152600183016020526040812054611da05750815460018181018455600084815260208082209093018490558454848252828601909352604090209190915561080e565b50600061080e565b60606000611db7836002612df5565b611dc29060026131a1565b6001600160401b03811115611dd957611dd9612879565b6040519080825280601f01601f191660200182016040528015611e03576020820181803683370190505b509050600360fc1b81600081518110611e1e57611e1e613175565b60200101906001600160f81b031916908160001a905350600f60fb1b81600181518110611e4d57611e4d613175565b60200101906001600160f81b031916908160001a9053506000611e71846002612df5565b611e7c9060016131a1565b90505b6001811115611ef4576f181899199a1a9b1b9c1cb0b131b232b360811b85600f1660108110611eb057611eb0613175565b1a60f81b828281518110611ec657611ec6613175565b60200101906001600160f81b031916908160001a90535060049490941c93611eed816131b4565b9050611e7f565b5083156119eb5760405162461bcd60e51b815260206004820181905260248201527f537472696e67733a20686578206c656e67746820696e73756666696369656e74604482015260640161084c565b6000611f98826040518060400160405280602081526020017f5361666545524332303a206c6f772d6c6576656c2063616c6c206661696c6564815250856001600160a01b03166122ae9092919063ffffffff16565b9050805160001480611fb9575080806020019051810190611fb99190612e68565b61097b5760405162461bcd60e51b815260206004820152602a60248201527f5361666545524332303a204552433230206f7065726174696f6e20646964206e6044820152691bdd081cdd58d8d9595960b21b606482015260840161084c565b6060824710156120795760405162461bcd60e51b815260206004820152602660248201527f416464726573733a20696e73756666696369656e742062616c616e636520666f6044820152651c8818d85b1b60d21b606482015260840161084c565b600080866001600160a01b031685876040516120959190612dc3565b60006040518083038185875af1925050503d80600081146120d2576040519150601f19603f3d011682016040523d82523d6000602084013e6120d7565b606091505b50915091506120e8878383876122bd565b979650505050505050565b6120fb61282a565b61210b8560800151610100612336565b50509183526001600160a01b031660208301526001600160e01b031916604082015290565b61213d826003835161238e565b61097b8282612495565b60008072184f03e93ff9f4daa797ed6e38ed64bf6a1f0160401b83106121865772184f03e93ff9f4daa797ed6e38ed64bf6a1f0160401b830492506040015b6904ee2d6d415b85acef8160201b83106121b0576904ee2d6d415b85acef8160201b830492506020015b662386f26fc1000083106121ce57662386f26fc10000830492506010015b6305f5e10083106121e6576305f5e100830492506008015b61271083106121fa57612710830492506004015b6064831061220c576064830492506002015b600a831061080e5760010192915050565b60055460009061222e8160016131a1565b60055583516040808601516080870151519151600093633c6d41b960e01b936122649386938493928991600291906024016131cb565b60408051601f198184030181529190526020810180516001600160e01b03166001600160e01b03199093169290921790915290506122a4868386846124af565b9695505050505050565b6060611af48484600085612018565b6060831561232c578251600003612325576001600160a01b0385163b6123255760405162461bcd60e51b815260206004820152601d60248201527f416464726573733a2063616c6c20746f206e6f6e2d636f6e7472616374000000604482015260640161084c565b5081611af4565b611af48383612608565b61233e61285f565b612349602083613213565b1561237157612359602083613213565b612364906020613162565b61236e90836131a1565b91505b506020828101829052604080518085526000815290920101905290565b6017816001600160401b0316116123b2576109448360e0600585901b168317612632565b60ff816001600160401b0316116123ee576123d8836018611fe0600586901b1617612632565b50610944836001600160401b038316600161264a565b61ffff816001600160401b03161161242b57612415836019611fe0600586901b1617612632565b50610944836001600160401b038316600261264a565b63ffffffff816001600160401b03161161246a5761245483601a611fe0600586901b1617612632565b50610944836001600160401b038316600461264a565b61247f83601b611fe0600586901b1617612632565b50610944836001600160401b038316600861264a565b61249d61285f565b6119eb83846000015151848551612663565b6040516001600160601b03193060601b1660208201526034810184905260009060540160408051808303601f1901815282825280516020918201206000818152600690925291812080546001600160a01b0319166001600160a01b038a1617905590925082917fb5e6e01e79f91267dc17b4e6314d5d4d03593d2ceee0fbb452b750bd70ea5af99190a2600354604051630200057560e51b81526001600160a01b0390911690634000aea09061256d90889087908790600401613227565b6020604051808303816000875af115801561258c573d6000803e3d6000fd5b505050506040513d601f19601f820116820180604052508101906125b09190612e68565b611af45760405162461bcd60e51b815260206004820152602360248201527f756e61626c6520746f207472616e73666572416e6443616c6c20746f206f7261604482015262636c6560e81b606482015260840161084c565b8151156126185781518083602001fd5b8060405162461bcd60e51b815260040161084c919061314f565b61263a61285f565b6119eb8384600001515184612740565b61265261285f565b611af484856000015151858561278e565b61266b61285f565b825182111561267957600080fd5b602085015161268883866131a1565b11156126bb576126bb856126ab876020015187866126a691906131a1565b612802565b6126b6906002612df5565b612813565b6000808651805187602083010193508088870111156126da5787860182525b505050602084015b6020841061271a57805182526126f96020836131a1565b91506127066020826131a1565b9050612713602085613162565b93506126e2565b51815160001960208690036101000a019081169019919091161790525083949350505050565b61274861285f565b836020015183106127685761276884856020015160026126b69190612df5565b8351805160208583010184815350808503612784576001810182525b5093949350505050565b61279661285f565b60208501516127a585846131a1565b11156127b9576127b9856126ab86856131a1565b600060016127c98461010061333b565b6127d39190613162565b90508551838682010185831982511617815250805184870111156127f75783860181525b509495945050505050565b600081831115610ecc57508161080e565b815161281f8383612336565b506109448382612495565b6040805160a08101825260008082526020820181905291810182905260608101919091526080810161285a61285f565b905290565b604051806040016040528060608152602001600081525090565b634e487b7160e01b600052604160045260246000fd5b600082601f8301126128a057600080fd5b81356001600160401b03808211156128ba576128ba612879565b604051601f8301601f19908116603f011681019082821181831017156128e2576128e2612879565b816040528381528660208588010111156128fb57600080fd5b836020870160208301376000602085830101528094505050505092915050565b60006020828403121561292d57600080fd5b81356001600160401b0381111561294357600080fd5b611af48482850161288f565b60006020828403121561296157600080fd5b81356001600160e01b0319811681146119eb57600080fd5b6000806040838503121561298c57600080fd5b8235915060208301356001600160401b038111156129a957600080fd5b6129b58582860161288f565b9150509250929050565b80356001600160a01b03811681146129d657600080fd5b919050565b600080600080608085870312156129f157600080fd5b6129fa856129bf565b9350612a08602086016129bf565b925060408501359150606085013560ff81168114612a2557600080fd5b939692955090935050565b600080600060608486031215612a4557600080fd5b612a4e846129bf565b9250612a5c602085016129bf565b9150604084013590509250925092565b600060208284031215612a7e57600080fd5b5035919050565b60008060408385031215612a9857600080fd5b82359150612aa8602084016129bf565b90509250929050565b8035600281106129d657600080fd5b60008060408385031215612ad357600080fd5b612adc83612ab1565b946020939093013593505050565b600060208284031215612afc57600080fd5b6119eb826129bf565b60008060408385031215612b1857600080fd5b50508035926020909101359150565b6001600160a01b0391909116815260200190565b600060208284031215612b4d57600080fd5b6119eb82612ab1565b6000808284036060811215612b6a57600080fd5b612b7384612ab1565b92506040601f1982011215612b8757600080fd5b50604080519081016001600160401b0381118282101715612baa57612baa612879565b60409081526020858101358352940135938101939093525092909150565b6001600160a01b039384168152919092166020820152604081019190915260600190565b600181811c90821680612c0057607f821691505b602082108103610ecc57634e487b7160e01b600052602260045260246000fd5b601f82111561097b57600081815260208120601f850160051c81016020861015612c475750805b601f850160051c820191505b818110156117ef57828155600101612c53565b81516001600160401b03811115612c7f57612c7f612879565b612c9381612c8d8454612bec565b84612c20565b602080601f831160018114612cc85760008415612cb05750858301515b600019600386901b1c1916600185901b1785556117ef565b600085815260208120601f198616915b82811015612cf757888601518255948401946001909101908401612cd8565b5085821015612d155787850151600019600388901b60f8161c191681555b5050505050600190811b01905550565b634e487b7160e01b600052602160045260246000fd5b60208082526028908201527f536f75726365206d75737420626520746865206f7261636c65206f6620746865604082015267081c995c5d595cdd60c21b606082015260800190565b60005b83811015612d9e578181015183820152602001612d86565b50506000910152565b60008151612db9818560208601612d83565b9290920192915050565b60008251612dd5818460208701612d83565b9190910192915050565b634e487b7160e01b600052601160045260246000fd5b808202811582820484141761080e5761080e612ddf565b634e487b7160e01b600052601260045260246000fd5b600082612e3157612e31612e0c565b500490565b600060208284031215612e4857600080fd5b5051919050565b6001600160a01b03929092168252602082015260400190565b600060208284031215612e7a57600080fd5b815180151581146119eb57600080fd5b80546001600160a01b039081168352600182015416602083015260020154604090910152565b612eba8183612e8a565b606001919050565b6000805160206133b183398151915281526a312f737761703f7372633d60a81b602082015260008751612efc81602b850160208c01612d83565b64266473743d60d81b602b918401918201528751612f21816030840160208c01612d83565b6726616d6f756e743d60c01b603092909101918201528651612f4a816038840160208b01612d83565b652666726f6d3d60d01b603892909101918201528551612f7181603e840160208a01612d83565b6926736c6970706167653d60b01b603e9290910191820152612fdc612fbb612fb5612f9f6048850189612da7565b692672656365697665723d60b01b8152600a0190565b86612da7565b742664697361626c65457374696d6174653d7472756560581b815260150190565b9998505050505050505050565b6000805160206133b183398151915281526b312f71756f74653f7372633d60a01b60208201526000845161302481602c850160208901612d83565b64266473743d60d81b602c918401918201528451613049816031840160208901612d83565b6726616d6f756e743d60c01b603192909101918201528351613072816039840160208801612d83565b0160390195945050505050565b60006001820161309157613091612ddf565b5060010190565b6130a28183612e8a565b60039190910154606082015260800190565b76020b1b1b2b9b9a1b7b73a3937b61d1030b1b1b7bab73a1604d1b8152600083516130e6816017850160208801612d83565b7001034b99036b4b9b9b4b733903937b6329607d1b6017918401918201528351613117816028840160208801612d83565b01602801949350505050565b6000815180845261313b816020860160208601612d83565b601f01601f19169290920160200192915050565b6020815260006119eb6020830184613123565b8181038181111561080e5761080e612ddf565b634e487b7160e01b600052603260045260246000fd5b634e487b7160e01b600052603160045260246000fd5b8082018082111561080e5761080e612ddf565b6000816131c3576131c3612ddf565b506000190190565b60018060a01b038816815286602082015285604082015263ffffffff60e01b851660608201528360808201528260a082015260e060c08201526000612fdc60e0830184613123565b60008261322257613222612e0c565b500690565b60018060a01b038416815282602082015260606040820152600061324e6060830184613123565b95945050505050565b600181815b8085111561329257816000190482111561327857613278612ddf565b8085161561328557918102915b93841c939080029061325c565b509250929050565b6000826132a95750600161080e565b816132b65750600061080e565b81600181146132cc57600281146132d6576132f2565b600191505061080e565b60ff8411156132e7576132e7612ddf565b50506001821b61080e565b5060208310610133831016604e8410600b8410161715613315575081810a61080e565b61331f8383613257565b806000190482111561333357613333612ddf565b029392505050565b60006119eb838361329a56fe93627969d6ba3f2118f574a00f8d1c7fed4282f3728a455e8b3c867b1a1a212bb6904e5f1b44229e5609b681fbc2512409afa3e5a9072d0314256c012668dbe4416464726573733a206c6f772d6c6576656c2063616c6c20776974682076616c7565206661696c656468747470733a2f2f6170692e31696e63682e6465762f737761702f76352e322f17a8e30262c1f919c33056d877a3c22b95c2f5e4dac44683c1c2323cd79fbdb0a6b78fc047486d5add927aa53ba0d4fc8eb23a5811e0052aebeba21469f51df87cc135e0cebb02c3480ae5d74d377283180a2601f8f644edf7987b009316c63afab00a984754950c7187fb98f39da0ae224abbbee017c1699445ad0e19474a4da2646970667358221220c8f0c0952b3ef9d5ee6c42f5e830767ba4669ee5abe8f73575d70236cdf6f5f464736f6c6343000813003317a8e30262c1f919c33056d877a3c22b95c2f5e4dac44683c1c2323cd79fbdb0fab00a984754950c7187fb98f39da0ae224abbbee017c1699445ad0e19474a4d",
  "linkReferences": {},
  "deployedLinkReferences": {}
}