{
  "_format": "hh-sol-artifact-1",
  "contractName": "SwapHelper",
  "sourceName": "contracts/utils/SwapHelper.sol",
  "abi": [
    {
      "inputs": [
        {
          "internalType": "uint256",
          "name": "_jobFee",
          "type": "uint256"
        },
        {
          "internalType": "address",
          "name": "_strategist",
          "type": "address"
        },
        {
          "internalType": "address",
          "name": "_aggregationRouter",
          "type": "address"
        },
        {
          "internalType": "address",
          "name": "chainlinkTokenAddress",
          "type": "address"
        },
        {
          "internalType": "address",
          "name": "chainlinkOracleAddress",
          "type": "address"
        },
        {
          "internalType": "string",
          "name": "_jobId",
          "type": "string"
        },
        {
          "internalType": "address[]",
          "name": "authorizedToSwap",
          "type": "address[]"
        }
      ],
      "stateMutability": "nonpayable",
      "type": "constructor"
    },
    {
      "inputs": [],
      "name": "CannotAddSubscriber",
      "type": "error"
    },
    {
      "inputs": [],
      "name": "CannotRemoveSubscriber",
      "type": "error"
    },
    {
      "inputs": [],
      "name": "NotEnoughNativeTokensSent",
      "type": "error"
    },
    {
      "inputs": [],
      "name": "SlippageIsTooBig",
      "type": "error"
    },
    {
      "inputs": [],
      "name": "SwapOperationIsNotReady",
      "type": "error"
    },
    {
      "inputs": [],
      "name": "TransferError",
      "type": "error"
    },
    {
      "anonymous": false,
      "inputs": [
        {
          "indexed": true,
          "internalType": "bytes32",
          "name": "id",
          "type": "bytes32"
        }
      ],
      "name": "ChainlinkCancelled",
      "type": "event"
    },
    {
      "anonymous": false,
      "inputs": [
        {
          "indexed": true,
          "internalType": "bytes32",
          "name": "id",
          "type": "bytes32"
        }
      ],
      "name": "ChainlinkFulfilled",
      "type": "event"
    },
    {
      "anonymous": false,
      "inputs": [
        {
          "indexed": true,
          "internalType": "bytes32",
          "name": "id",
          "type": "bytes32"
        }
      ],
      "name": "ChainlinkRequested",
      "type": "event"
    },
    {
      "anonymous": false,
      "inputs": [
        {
          "indexed": true,
          "internalType": "address",
          "name": "src",
          "type": "address"
        },
        {
          "indexed": true,
          "internalType": "address",
          "name": "dst",
          "type": "address"
        },
        {
          "indexed": true,
          "internalType": "uint256",
          "name": "amountOut",
          "type": "uint256"
        },
        {
          "indexed": false,
          "internalType": "uint256",
          "name": "amountIn",
          "type": "uint256"
        }
      ],
      "name": "QuoteReceived",
      "type": "event"
    },
    {
      "anonymous": false,
      "inputs": [
        {
          "indexed": true,
          "internalType": "bytes32",
          "name": "role",
          "type": "bytes32"
        },
        {
          "indexed": true,
          "internalType": "bytes32",
          "name": "previousAdminRole",
          "type": "bytes32"
        },
        {
          "indexed": true,
          "internalType": "bytes32",
          "name": "newAdminRole",
          "type": "bytes32"
        }
      ],
      "name": "RoleAdminChanged",
      "type": "event"
    },
    {
      "anonymous": false,
      "inputs": [
        {
          "indexed": true,
          "internalType": "bytes32",
          "name": "role",
          "type": "bytes32"
        },
        {
          "indexed": true,
          "internalType": "address",
          "name": "account",
          "type": "address"
        },
        {
          "indexed": true,
          "internalType": "address",
          "name": "sender",
          "type": "address"
        }
      ],
      "name": "RoleGranted",
      "type": "event"
    },
    {
      "anonymous": false,
      "inputs": [
        {
          "indexed": true,
          "internalType": "bytes32",
          "name": "role",
          "type": "bytes32"
        },
        {
          "indexed": true,
          "internalType": "address",
          "name": "account",
          "type": "address"
        },
        {
          "indexed": true,
          "internalType": "address",
          "name": "sender",
          "type": "address"
        }
      ],
      "name": "RoleRevoked",
      "type": "event"
    },
    {
      "anonymous": false,
      "inputs": [
        {
          "indexed": true,
          "internalType": "address",
          "name": "src",
          "type": "address"
        },
        {
          "indexed": true,
          "internalType": "address",
          "name": "dst",
          "type": "address"
        },
        {
          "indexed": true,
          "internalType": "uint256",
          "name": "amountIn",
          "type": "uint256"
        }
      ],
      "name": "SwapPerformed",
      "type": "event"
    },
    {
      "anonymous": false,
      "inputs": [
        {
          "indexed": true,
          "internalType": "bytes",
          "name": "swapCalldata",
          "type": "bytes"
        }
      ],
      "name": "SwapRegistered",
      "type": "event"
    },
    {
      "inputs": [],
      "name": "DEFAULT_ADMIN_ROLE",
      "outputs": [
        {
          "internalType": "bytes32",
          "name": "",
          "type": "bytes32"
        }
      ],
      "stateMutability": "view",
      "type": "function"
    },
    {
      "inputs": [],
      "name": "ONE_INCH_ETH_ADDRESS",
      "outputs": [
        {
          "internalType": "address",
          "name": "",
          "type": "address"
        }
      ],
      "stateMutability": "view",
      "type": "function"
    },
    {
      "inputs": [],
      "name": "STRATEGIST_ROLE",
      "outputs": [
        {
          "internalType": "bytes32",
          "name": "",
          "type": "bytes32"
        }
      ],
      "stateMutability": "view",
      "type": "function"
    },
    {
      "inputs": [],
      "name": "SWAP_AUTHORIZED_ROLE",
      "outputs": [
        {
          "internalType": "bytes32",
          "name": "",
          "type": "bytes32"
        }
      ],
      "stateMutability": "view",
      "type": "function"
    },
    {
      "inputs": [
        {
          "internalType": "address",
          "name": "subscriber",
          "type": "address"
        }
      ],
      "name": "addSubscriber",
      "outputs": [],
      "stateMutability": "nonpayable",
      "type": "function"
    },
    {
      "inputs": [],
      "name": "aggregationRouter",
      "outputs": [
        {
          "internalType": "address",
          "name": "",
          "type": "address"
        }
      ],
      "stateMutability": "view",
      "type": "function"
    },
    {
      "inputs": [
        {
          "internalType": "bytes32",
          "name": "requestId",
          "type": "bytes32"
        },
        {
          "internalType": "uint256",
          "name": "toAmount",
          "type": "uint256"
        }
      ],
      "name": "fulfillQuoteRequest",
      "outputs": [],
      "stateMutability": "nonpayable",
      "type": "function"
    },
    {
      "inputs": [],
      "name": "fulfillSwap",
      "outputs": [],
      "stateMutability": "nonpayable",
      "type": "function"
    },
    {
      "inputs": [],
      "name": "getFeeInHundredthsOfLink",
      "outputs": [
        {
          "internalType": "uint256",
          "name": "",
          "type": "uint256"
        }
      ],
      "stateMutability": "view",
      "type": "function"
    },
    {
      "inputs": [],
      "name": "getJobId",
      "outputs": [
        {
          "internalType": "string",
          "name": "",
          "type": "string"
        }
      ],
      "stateMutability": "view",
      "type": "function"
    },
    {
      "inputs": [],
      "name": "getOracleAddress",
      "outputs": [
        {
          "internalType": "address",
          "name": "",
          "type": "address"
        }
      ],
      "stateMutability": "view",
      "type": "function"
    },
    {
      "inputs": [
        {
          "internalType": "bytes32",
          "name": "role",
          "type": "bytes32"
        }
      ],
      "name": "getRoleAdmin",
      "outputs": [
        {
          "internalType": "bytes32",
          "name": "",
          "type": "bytes32"
        }
      ],
      "stateMutability": "view",
      "type": "function"
    },
    {
      "inputs": [
        {
          "internalType": "bytes32",
          "name": "role",
          "type": "bytes32"
        },
        {
          "internalType": "address",
          "name": "account",
          "type": "address"
        }
      ],
      "name": "grantRole",
      "outputs": [],
      "stateMutability": "nonpayable",
      "type": "function"
    },
    {
      "inputs": [
        {
          "internalType": "bytes32",
          "name": "role",
          "type": "bytes32"
        },
        {
          "internalType": "address",
          "name": "account",
          "type": "address"
        }
      ],
      "name": "hasRole",
      "outputs": [
        {
          "internalType": "bool",
          "name": "",
          "type": "bool"
        }
      ],
      "stateMutability": "view",
      "type": "function"
    },
    {
      "inputs": [],
      "name": "isReadyToFulfillSwap",
      "outputs": [
        {
          "internalType": "bool",
          "name": "",
          "type": "bool"
        }
      ],
      "stateMutability": "view",
      "type": "function"
    },
    {
      "inputs": [],
      "name": "lastQuotedDstToken",
      "outputs": [
        {
          "internalType": "address",
          "name": "",
          "type": "address"
        }
      ],
      "stateMutability": "view",
      "type": "function"
    },
    {
      "inputs": [],
      "name": "lastQuotedSrcToken",
      "outputs": [
        {
          "internalType": "address",
          "name": "",
          "type": "address"
        }
      ],
      "stateMutability": "view",
      "type": "function"
    },
    {
      "inputs": [],
      "name": "lastQuotedSrcTokenAmount",
      "outputs": [
        {
          "internalType": "uint256",
          "name": "",
          "type": "uint256"
        }
      ],
      "stateMutability": "view",
      "type": "function"
    },
    {
      "inputs": [],
      "name": "lastSwapDstToken",
      "outputs": [
        {
          "internalType": "address",
          "name": "",
          "type": "address"
        }
      ],
      "stateMutability": "view",
      "type": "function"
    },
    {
      "inputs": [],
      "name": "lastSwapSrcToken",
      "outputs": [
        {
          "internalType": "address",
          "name": "",
          "type": "address"
        }
      ],
      "stateMutability": "view",
      "type": "function"
    },
    {
      "inputs": [],
      "name": "lastSwapSrcTokenAmount",
      "outputs": [
        {
          "internalType": "uint256",
          "name": "",
          "type": "uint256"
        }
      ],
      "stateMutability": "view",
      "type": "function"
    },
    {
      "inputs": [
        {
          "internalType": "bytes32",
          "name": "requestId",
          "type": "bytes32"
        },
        {
          "internalType": "bytes",
          "name": "swapCalldata",
          "type": "bytes"
        }
      ],
      "name": "registerSwapCalldata",
      "outputs": [],
      "stateMutability": "nonpayable",
      "type": "function"
    },
    {
      "inputs": [
        {
          "internalType": "address",
          "name": "subscriber",
          "type": "address"
        }
      ],
      "name": "removeSubscriber",
      "outputs": [],
      "stateMutability": "nonpayable",
      "type": "function"
    },
    {
      "inputs": [
        {
          "internalType": "bytes32",
          "name": "role",
          "type": "bytes32"
        },
        {
          "internalType": "address",
          "name": "account",
          "type": "address"
        }
      ],
      "name": "renounceRole",
      "outputs": [],
      "stateMutability": "nonpayable",
      "type": "function"
    },
    {
      "inputs": [
        {
          "internalType": "address",
          "name": "src",
          "type": "address"
        },
        {
          "internalType": "address",
          "name": "dst",
          "type": "address"
        },
        {
          "internalType": "uint256",
          "name": "amount",
          "type": "uint256"
        }
      ],
      "name": "requestQuote",
      "outputs": [],
      "stateMutability": "nonpayable",
      "type": "function"
    },
    {
      "inputs": [
        {
          "internalType": "address",
          "name": "src",
          "type": "address"
        },
        {
          "internalType": "address",
          "name": "dst",
          "type": "address"
        },
        {
          "internalType": "uint256",
          "name": "amount",
          "type": "uint256"
        },
        {
          "internalType": "uint8",
          "name": "slippage",
          "type": "uint8"
        }
      ],
      "name": "requestSwap",
      "outputs": [],
      "stateMutability": "payable",
      "type": "function"
    },
    {
      "inputs": [
        {
          "internalType": "bytes32",
          "name": "role",
          "type": "bytes32"
        },
        {
          "internalType": "address",
          "name": "account",
          "type": "address"
        }
      ],
      "name": "revokeRole",
      "outputs": [],
      "stateMutability": "nonpayable",
      "type": "function"
    },
    {
      "inputs": [
        {
          "internalType": "uint256",
          "name": "_feeInHundredthsOfLink",
          "type": "uint256"
        }
      ],
      "name": "setFeeInHundredthsOfLink",
      "outputs": [],
      "stateMutability": "nonpayable",
      "type": "function"
    },
    {
      "inputs": [
        {
          "internalType": "uint256",
          "name": "_feeInJuels",
          "type": "uint256"
        }
      ],
      "name": "setFeeInJuels",
      "outputs": [],
      "stateMutability": "nonpayable",
      "type": "function"
    },
    {
      "inputs": [
        {
          "internalType": "string",
          "name": "_jobId",
          "type": "string"
        }
      ],
      "name": "setJobId",
      "outputs": [],
      "stateMutability": "nonpayable",
      "type": "function"
    },
    {
      "inputs": [
        {
          "internalType": "address",
          "name": "_oracleAddress",
          "type": "address"
        }
      ],
      "name": "setOracleAddress",
      "outputs": [],
      "stateMutability": "nonpayable",
      "type": "function"
    },
    {
      "inputs": [
        {
          "internalType": "uint256",
          "name": "subscriberIdx",
          "type": "uint256"
        }
      ],
      "name": "subscriberAt",
      "outputs": [
        {
          "internalType": "address",
          "name": "",
          "type": "address"
        }
      ],
      "stateMutability": "view",
      "type": "function"
    },
    {
      "inputs": [],
      "name": "subscribersLength",
      "outputs": [
        {
          "internalType": "uint256",
          "name": "",
          "type": "uint256"
        }
      ],
      "stateMutability": "view",
      "type": "function"
    },
    {
      "inputs": [
        {
          "internalType": "bytes4",
          "name": "interfaceId",
          "type": "bytes4"
        }
      ],
      "name": "supportsInterface",
      "outputs": [
        {
          "internalType": "bool",
          "name": "",
          "type": "bool"
        }
      ],
      "stateMutability": "view",
      "type": "function"
    },
    {
      "inputs": [],
      "name": "withdrawLink",
      "outputs": [],
      "stateMutability": "nonpayable",
      "type": "function"
    },
    {
      "stateMutability": "payable",
      "type": "receive"
    }
  ],
  "bytecode": "0x60a060405260016005553480156200001657600080fd5b5060405162003a4738038062003a47833981016040819052620000399162000620565b6200005460008051602062003a278339815191528762000121565b600380546001600160a01b0319166001600160a01b0386161790556200007a83620001aa565b6200008582620001f4565b620000908762000221565b6001600160a01b03851660805260005b81518160ff1610156200011357620000fe7ffab00a984754950c7187fb98f39da0ae224abbbee017c1699445ad0e19474a4d838360ff1681518110620000ea57620000ea6200073b565b60200260200101516200012160201b60201c565b806200010a8162000767565b915050620000a0565b5050505050505050620008cc565b6200012d828262000268565b620001a6576000828152602081815260408083206001600160a01b03851684529091529020805460ff19166001179055620001653390565b6001600160a01b0316816001600160a01b0316837f2f8788117e7eff1d82e926ec794901d17c78024a50270940304540a733656f0d60405160405180910390a45b5050565b60008051602062003a27833981519152620001c58162000293565b600780546001600160a01b0384166001600160a01b031991821681179092556004805490911690911790555050565b60008051602062003a278339815191526200020f8162000293565b6200021a8262000789565b6008555050565b60008051602062003a278339815191526200023c8162000293565b620001a6606462000256670de0b6b3a764000085620007b1565b620002629190620007cb565b620002a2565b6000828152602081815260408083206001600160a01b038516845290915290205460ff165b92915050565b6200029f8133620002c3565b50565b60008051602062003a27833981519152620002bd8162000293565b50600955565b620002cf828262000268565b620001a657620002df8162000330565b620002ec83602062000343565b604051602001620002ff929190620007ee565b60408051601f198184030181529082905262461bcd60e51b8252620003279160040162000867565b60405180910390fd5b60606200028d6001600160a01b03831660145b6060600062000354836002620007b1565b620003619060026200089c565b6001600160401b038111156200037b576200037b62000520565b6040519080825280601f01601f191660200182016040528015620003a6576020820181803683370190505b509050600360fc1b81600081518110620003c457620003c46200073b565b60200101906001600160f81b031916908160001a905350600f60fb1b81600181518110620003f657620003f66200073b565b60200101906001600160f81b031916908160001a90535060006200041c846002620007b1565b620004299060016200089c565b90505b6001811115620004ab576f181899199a1a9b1b9c1cb0b131b232b360811b85600f16601081106200046157620004616200073b565b1a60f81b8282815181106200047a576200047a6200073b565b60200101906001600160f81b031916908160001a90535060049490941c93620004a381620008b2565b90506200042c565b508315620004fc5760405162461bcd60e51b815260206004820181905260248201527f537472696e67733a20686578206c656e67746820696e73756666696369656e74604482015260640162000327565b9392505050565b80516001600160a01b03811681146200051b57600080fd5b919050565b634e487b7160e01b600052604160045260246000fd5b604051601f8201601f191681016001600160401b038111828210171562000561576200056162000520565b604052919050565b60005b83811015620005865781810151838201526020016200056c565b50506000910152565b600082601f830112620005a157600080fd5b815160206001600160401b03821115620005bf57620005bf62000520565b8160051b620005d082820162000536565b9283528481018201928281019087851115620005eb57600080fd5b83870192505b848310156200061557620006058362000503565b82529183019190830190620005f1565b979650505050505050565b600080600080600080600060e0888a0312156200063c57600080fd5b875196506200064e6020890162000503565b95506200065e6040890162000503565b94506200066e6060890162000503565b93506200067e6080890162000503565b60a08901519093506001600160401b03808211156200069c57600080fd5b818a0191508a601f830112620006b157600080fd5b815181811115620006c657620006c662000520565b620006db601f8201601f191660200162000536565b8181528c6020838601011115620006f157600080fd5b6200070482602083016020870162000569565b60c08c0151909550925050808211156200071d57600080fd5b506200072c8a828b016200058f565b91505092959891949750929550565b634e487b7160e01b600052603260045260246000fd5b634e487b7160e01b600052601160045260246000fd5b600060ff821660ff810362000780576200078062000751565b60010192915050565b80516020808301519190811015620007ab576000198160200360031b1b821691505b50919050565b80820281158282048414176200028d576200028d62000751565b600082620007e957634e487b7160e01b600052601260045260246000fd5b500490565b7f416363657373436f6e74726f6c3a206163636f756e74200000000000000000008152600083516200082881601785016020880162000569565b7001034b99036b4b9b9b4b733903937b6329607d1b60179184019182015283516200085b81602884016020880162000569565b01602801949350505050565b60208152600082518060208401526200088881604085016020870162000569565b601f01601f19169190910160400192915050565b808201808211156200028d576200028d62000751565b600081620008c457620008c462000751565b506000190190565b60805161311562000912600039600081816105cd01528181610fb001528181611071015281816111c70152818161125a015281816112f5015261138801526131156000f3fe6080604052600436106101985760003560e01c806301ffc9a7146101a457806302458ad8146101d9578063129fc1c0146101fb5780631a5b42071461021b578063248a9ca31461023b578063271e390a146102695780632f2ff15d1461029657806336568abe146102b65780633662dd35146102d657806336868f0e146102ec578063459c75d81461030c5780634c69c00f1461032c5780634e0c61331461034c578063562376821461036e578063627c34ad1461038357806366b8455b146103a35780636ccf5b01146103b85780638dc654a2146103d857806391d14854146103ed57806394555d1a1461040d578063a217fddf1461042d578063a378a32414610442578063aaeafd5614610464578063b02f7fe01461048c578063b18b78dd146104ae578063b56269a0146104c3578063c02e5bc7146104d9578063c0d2e37f146104f9578063c87457db14610513578063d547741f14610533578063e3da201d14610553578063eaad47b214610573578063f09922ff14610588578063f34473a51461059b578063fcdfd946146105bb57600080fd5b3661019f57005b600080fd5b3480156101b057600080fd5b506101c46101bf366004612627565b6105ef565b60405190151581526020015b60405180910390f35b3480156101e557600080fd5b506101f96101f43660046126dc565b610626565b005b34801561020757600080fd5b506101f9610216366004612736565b6106f5565b34801561022757600080fd5b506101f961023636600461279a565b61071d565b34801561024757600080fd5b5061025b6102563660046127d6565b610977565b6040519081526020016101d0565b34801561027557600080fd5b50600d54610289906001600160a01b031681565b6040516101d091906127ef565b3480156102a257600080fd5b506101f96102b1366004612803565b61098c565b3480156102c257600080fd5b506101f96102d1366004612803565b6109ad565b3480156102e257600080fd5b5061025b600c5481565b3480156102f857600080fd5b50600e54610289906001600160a01b031681565b34801561031857600080fd5b506101f961032736600461282f565b610a2b565b34801561033857600080fd5b506101f9610347366004612851565b610b96565b34801561035857600080fd5b5061025b6000805160206130c083398151915281565b34801561037a57600080fd5b5061025b610bdc565b34801561038f57600080fd5b506101f961039e366004612851565b610c1e565b3480156103af57600080fd5b5061025b610c5e565b3480156103c457600080fd5b506102896103d33660046127d6565b610c6f565b3480156103e457600080fd5b506101f9610c7c565b3480156103f957600080fd5b506101c4610408366004612803565b610da4565b34801561041957600080fd5b506101f9610428366004612851565b610dcd565b34801561043957600080fd5b5061025b600081565b34801561044e57600080fd5b5061025b60008051602061308083398151915281565b34801561047057600080fd5b5061028973eeeeeeeeeeeeeeeeeeeeeeeeeeeeeeeeeeeeeeee81565b34801561049857600080fd5b506104a1610e0d565b6040516101d091906128bc565b3480156104ba57600080fd5b50610289610e51565b3480156104cf57600080fd5b5061025b600f5481565b3480156104e557600080fd5b50600b54610289906001600160a01b031681565b34801561050557600080fd5b506010546101c49060ff1681565b34801561051f57600080fd5b50600a54610289906001600160a01b031681565b34801561053f57600080fd5b506101f961054e366004612803565b610e7c565b34801561055f57600080fd5b506101f961056e3660046127d6565b610e98565b34801561057f57600080fd5b506101f9610eb6565b6101f96105963660046128cf565b6110f8565b3480156105a757600080fd5b506101f96105b63660046127d6565b611647565b3480156105c757600080fd5b506102897f000000000000000000000000000000000000000000000000000000000000000081565b60006001600160e01b03198216637965db0b60e01b148061062057506301ffc9a760e01b6001600160e01b03198316145b92915050565b60008281526006602052604090205482906001600160a01b031633146106675760405162461bcd60e51b815260040161065e90612924565b60405180910390fd5b60008181526006602052604080822080546001600160a01b03191690555182916000805160206130a083398151915291a260116106a483826129e6565b506010805460ff191660011790556040516106c0908390612ac1565b604051908190038120907fa6b78fc047486d5add927aa53ba0d4fc8eb23a5811e0052aebeba21469f51df890600090a2505050565b60008051602061308083398151915261070d81611680565b61071682612add565b6008555050565b6000805160206130c083398151915261073581611680565b600061074a60085463459c75d860e01b61168d565b905061079a604051806040016040528060068152602001651b595d1a1bd960d21b8152506040518060400160405280600381526020016211d15560ea1b815250836116b19092919063ffffffff16565b6107fe604051806040016040528060038152602001621d5c9b60ea1b8152506107c2876116cf565b6107cb876116cf565b6107d4876116e5565b6040516020016107e693929190612b01565b60408051601f198184030181529190528391906116b1565b610842604051806040016040528060078152602001666865616465727360c81b815250604051806080016040528060468152602001612ff1604691398391906116b1565b61088260405180604001604052806004815260200163626f647960e01b81525060405180602001604052806000815250836116b19092919063ffffffff16565b6108db6040518060400160405280600781526020016618dbdb9d1858dd60ca1b8152506040518060400160405280600d81526020016c6c6f6375732d66696e616e636560981b815250836116b19092919063ffffffff16565b61092c604051806040016040528060048152602001630e0c2e8d60e31b815250604051806040016040528060088152602001671d1bd05b5bdd5b9d60c21b815250836116b19092919063ffffffff16565b600a80546001600160a01b038088166001600160a01b031992831617909255600b805492871692909116919091179055600c83905560095461096f908290611777565b505050505050565b60009081526020819052604090206001015490565b61099582610977565b61099e81611680565b6109a88383611798565b505050565b6001600160a01b0381163314610a1d5760405162461bcd60e51b815260206004820152602f60248201527f416363657373436f6e74726f6c3a2063616e206f6e6c792072656e6f756e636560448201526e103937b632b9903337b91039b2b63360891b606482015260840161065e565b610a27828261181c565b5050565b60008281526006602052604090205482906001600160a01b03163314610a635760405162461bcd60e51b815260040161065e90612924565b60008181526006602052604080822080546001600160a01b03191690555182916000805160206130a083398151915291a26000610aa06012611881565b905060005b81811015610b4357610ab860128261188b565b600a54600b54600c5460405163b91dc4bb60e01b81526001600160a01b039384166004820152918316602483015260448201889052606482015291169063b91dc4bb90608401600060405180830381600087803b158015610b1857600080fd5b505af1158015610b2c573d6000803e3d6000fd5b505050508080610b3b90612bad565b915050610aa5565b50600b54600a54600c5460405190815285926001600160a01b039081169216907fc6ef891de9793cb5acefea4d38d25452da06c1b8a922180eeb0f324523b326a09060200160405180910390a450505050565b600080516020613080833981519152610bae81611680565b50600780546001600160a01b03929092166001600160a01b0319928316811790915560048054909216179055565b6000600080516020613080833981519152610bf681611680565b670de0b6b3a76400006009546064610c0e9190612bc6565b610c189190612bf3565b91505090565b600080516020613080833981519152610c3681611680565b610c41601283611897565b610a27576040516306e971bb60e31b815260040160405180910390fd5b6000610c6a6012611881565b905090565b600061062060128361188b565b600080516020613080833981519152610c9481611680565b6000610ca86003546001600160a01b031690565b90506001600160a01b03811663a9059cbb336040516370a0823160e01b81526001600160a01b038516906370a0823190610ce69030906004016127ef565b602060405180830381865afa158015610d03573d6000803e3d6000fd5b505050506040513d601f19601f82011682018060405250810190610d279190612c07565b6040518363ffffffff1660e01b8152600401610d44929190612c20565b6020604051808303816000875af1158015610d63573d6000803e3d6000fd5b505050506040513d601f19601f82011682018060405250810190610d879190612c39565b610a27576040516313ff771f60e21b815260040160405180910390fd5b6000918252602082815260408084206001600160a01b0393909316845291905290205460ff1690565b600080516020613080833981519152610de581611680565b610df06012836118ac565b610a27576040516305c46f6760e31b815260040160405180910390fd5b6060600080516020613080833981519152610e2781611680565b600854604051602001610e3c91815260200190565b60405160208183030381529060405291505090565b6000600080516020613080833981519152610e6b81611680565b50506007546001600160a01b031690565b610e8582610977565b610e8e81611680565b6109a8838361181c565b600080516020613080833981519152610eb081611680565b50600955565b600080516020613080833981519152610ece81611680565b60105460ff16610ef157604051637d683d5360e01b815260040160405180910390fd5b600d546001600160a01b031673eeeeeeeeeeeeeeeeeeeeeeeeeeeeeeeeeeeeeeed1901610fe157610fdb60118054610f289061296c565b80601f0160208091040260200160405190810160405280929190818152602001828054610f549061296c565b8015610fa15780601f10610f7657610100808354040283529160200191610fa1565b820191906000526020600020905b815481529060010190602001808311610f8457829003601f168201915b5050600f546001600160a01b037f0000000000000000000000000000000000000000000000000000000000000000169493509150506118c1565b506110a9565b6110a760118054610ff19061296c565b80601f016020809104026020016040519081016040528092919081815260200182805461101d9061296c565b801561106a5780601f1061103f5761010080835404028352916020019161106a565b820191906000526020600020905b81548152906001019060200180831161104d57829003601f168201915b50505050507f00000000000000000000000000000000000000000000000000000000000000006001600160a01b03166118e790919063ffffffff16565b505b600f54600e54600d546040516001600160a01b0392831692909116907fe8a8f43c967965902142e0f7bd4b7b3c55fc5b1a0df5e84fa8ded5cafe92770690600090a4506010805460ff19169055565b6000805160206130c083398151915261111081611680565b60328260ff161115611135576040516336ee37fb60e21b815260040160405180910390fd5b6001600160a01b03851673eeeeeeeeeeeeeeeeeeeeeeeeeeeeeeeeeeeeeeee14801561116057503483105b1561117e57604051630dd86f5360e11b815260040160405180910390fd5b6010805460ff19169055338561119f6001600160a01b03821683308861192b565b604051636eb1769f60e11b815285906001600160a01b0383169063dd62ed3e906111ef9030907f000000000000000000000000000000000000000000000000000000000000000090600401612c5b565b602060405180830381865afa15801561120c573d6000803e3d6000fd5b505050506040513d601f19601f820116820180604052508101906112309190612c07565b10156112cb5760405163095ea7b360e01b81526001600160a01b0382169063095ea7b390611286907f00000000000000000000000000000000000000000000000000000000000000009060001990600401612c20565b6020604051808303816000875af11580156112a5573d6000803e3d6000fd5b505050506040513d601f19601f820116820180604052508101906112c99190612c39565b505b604051636eb1769f60e11b8152879086906001600160a01b0383169063dd62ed3e9061131d9030907f000000000000000000000000000000000000000000000000000000000000000090600401612c5b565b602060405180830381865afa15801561133a573d6000803e3d6000fd5b505050506040513d601f19601f8201168201806040525081019061135e9190612c07565b10156113f95760405163095ea7b360e01b81526001600160a01b0382169063095ea7b3906113b4907f00000000000000000000000000000000000000000000000000000000000000009060001990600401612c20565b6020604051808303816000875af11580156113d3573d6000803e3d6000fd5b505050506040513d601f19601f820116820180604052508101906113f79190612c39565b505b600061140e6008546302458ad860e01b61168d565b905061145e604051806040016040528060068152602001651b595d1a1bd960d21b8152506040518060400160405280600381526020016211d15560ea1b815250836116b19092919063ffffffff16565b6114cb604051806040016040528060038152602001621d5c9b60ea1b8152506114868b6116cf565b61148f8b6116cf565b6114988b6116e5565b6114a1306116cf565b6114ad8c60ff166116e5565b6114b68b6116cf565b6040516020016107e696959493929190612c75565b61150f604051806040016040528060078152602001666865616465727360c81b815250604051806080016040528060468152602001612ff1604691398391906116b1565b61154f60405180604001604052806004815260200163626f647960e01b81525060405180602001604052806000815250836116b19092919063ffffffff16565b6115a86040518060400160405280600781526020016618dbdb9d1858dd60ca1b8152506040518060400160405280600d81526020016c6c6f6375732d66696e616e636560981b815250836116b19092919063ffffffff16565b6115f8604051806040016040528060048152602001630e0c2e8d60e31b8152506040518060400160405280600781526020016674782c6461746160c81b815250836116b19092919063ffffffff16565b600d80546001600160a01b03808c166001600160a01b031992831617909255600e8054928b1692909116919091179055600f87905560095461163b908290611777565b50505050505050505050565b60008051602061308083398151915261165f81611680565b610a276064611676670de0b6b3a764000085612bc6565b61056e9190612bf3565b61168a813361198b565b50565b6116956125d8565b61169d6125d8565b6116a9818530866119e4565b949350505050565b60808301516116c09083611a21565b60808301516109a89082611a21565b60606106206001600160a01b0383166014611a38565b606060006116f283611bd3565b60010190506000816001600160401b0381111561171157611711612651565b6040519080825280601f01601f19166020018201604052801561173b576020820181803683370190505b5090508181016020015b600019016f181899199a1a9b1b9c1cb0b131b232b360811b600a86061a8153600a850494508461174557509392505050565b600454600090611791906001600160a01b03168484611ca9565b9392505050565b6117a28282610da4565b610a27576000828152602081815260408083206001600160a01b03851684529091529020805460ff191660011790556117d83390565b6001600160a01b0316816001600160a01b0316837f2f8788117e7eff1d82e926ec794901d17c78024a50270940304540a733656f0d60405160405180910390a45050565b6118268282610da4565b15610a27576000828152602081815260408083206001600160a01b0385168085529252808320805460ff1916905551339285917ff6391f5c32d9c69d2a47ea670b442974b53935d1edc7fd64eb21e047a839171b9190a45050565b6000610620825490565b60006117918383611d3a565b6000611791836001600160a01b038416611d64565b6000611791836001600160a01b038416611e57565b60606116a984848460405180606001604052806029815260200161303760299139611ea6565b6060611791838360006040518060400160405280601e81526020017f416464726573733a206c6f772d6c6576656c2063616c6c206661696c65640000815250611ea6565b604080516001600160a01b0385811660248301528416604482015260648082018490528251808303909101815260849091019091526020810180516001600160e01b03166323b872dd60e01b179052611985908590611f81565b50505050565b6119958282610da4565b610a27576119a2816116cf565b6119ad836020611a38565b6040516020016119be929190612d9c565b60408051601f198184030181529082905262461bcd60e51b825261065e916004016128bc565b6119ec6125d8565b6119fc8560800151610100612056565b50509183526001600160a01b031660208301526001600160e01b031916604082015290565b611a2e82600383516120ae565b6109a882826121b5565b60606000611a47836002612bc6565b611a52906002612e0b565b6001600160401b03811115611a6957611a69612651565b6040519080825280601f01601f191660200182016040528015611a93576020820181803683370190505b509050600360fc1b81600081518110611aae57611aae612e1e565b60200101906001600160f81b031916908160001a905350600f60fb1b81600181518110611add57611add612e1e565b60200101906001600160f81b031916908160001a9053506000611b01846002612bc6565b611b0c906001612e0b565b90505b6001811115611b84576f181899199a1a9b1b9c1cb0b131b232b360811b85600f1660108110611b4057611b40612e1e565b1a60f81b828281518110611b5657611b56612e1e565b60200101906001600160f81b031916908160001a90535060049490941c93611b7d81612e34565b9050611b0f565b5083156117915760405162461bcd60e51b815260206004820181905260248201527f537472696e67733a20686578206c656e67746820696e73756666696369656e74604482015260640161065e565b60008072184f03e93ff9f4daa797ed6e38ed64bf6a1f0160401b8310611c125772184f03e93ff9f4daa797ed6e38ed64bf6a1f0160401b830492506040015b6904ee2d6d415b85acef8160201b8310611c3c576904ee2d6d415b85acef8160201b830492506020015b662386f26fc100008310611c5a57662386f26fc10000830492506010015b6305f5e1008310611c72576305f5e100830492506008015b6127108310611c8657612710830492506004015b60648310611c98576064830492506002015b600a83106106205760010192915050565b600554600090611cba816001612e0b565b60055583516040808601516080870151519151600093633c6d41b960e01b93611cf0938693849392899160029190602401612e4b565b60408051601f198184030181529190526020810180516001600160e01b03166001600160e01b0319909316929092179091529050611d30868386846121cf565b9695505050505050565b6000826000018281548110611d5157611d51612e1e565b9060005260206000200154905092915050565b60008181526001830160205260408120548015611e4d576000611d88600183612e93565b8554909150600090611d9c90600190612e93565b9050818114611e01576000866000018281548110611dbc57611dbc612e1e565b9060005260206000200154905080876000018481548110611ddf57611ddf612e1e565b6000918252602080832090910192909255918252600188019052604090208390555b8554869080611e1257611e12612ea6565b600190038181906000526020600020016000905590558560010160008681526020019081526020016000206000905560019350505050610620565b6000915050610620565b6000818152600183016020526040812054611e9e57508154600181810184556000848152602080822090930184905584548482528286019093526040902091909155610620565b506000610620565b606082471015611f075760405162461bcd60e51b815260206004820152602660248201527f416464726573733a20696e73756666696369656e742062616c616e636520666f6044820152651c8818d85b1b60d21b606482015260840161065e565b600080866001600160a01b03168587604051611f239190612ac1565b60006040518083038185875af1925050503d8060008114611f60576040519150601f19603f3d011682016040523d82523d6000602084013e611f65565b606091505b5091509150611f7687838387612328565b979650505050505050565b6000611fd6826040518060400160405280602081526020017f5361666545524332303a206c6f772d6c6576656c2063616c6c206661696c6564815250856001600160a01b03166123a19092919063ffffffff16565b9050805160001480611ff7575080806020019051810190611ff79190612c39565b6109a85760405162461bcd60e51b815260206004820152602a60248201527f5361666545524332303a204552433230206f7065726174696f6e20646964206e6044820152691bdd081cdd58d8d9595960b21b606482015260840161065e565b61205e61260d565b612069602083612ebc565b1561209157612079602083612ebc565b612084906020612e93565b61208e9083612e0b565b91505b506020828101829052604080518085526000815290920101905290565b6017816001600160401b0316116120d2576119858360e0600585901b1683176123b0565b60ff816001600160401b03161161210e576120f8836018611fe0600586901b16176123b0565b50611985836001600160401b03831660016123c8565b61ffff816001600160401b03161161214b57612135836019611fe0600586901b16176123b0565b50611985836001600160401b03831660026123c8565b63ffffffff816001600160401b03161161218a5761217483601a611fe0600586901b16176123b0565b50611985836001600160401b03831660046123c8565b61219f83601b611fe0600586901b16176123b0565b50611985836001600160401b03831660086123c8565b6121bd61260d565b611791838460000151518485516123e1565b6040516001600160601b03193060601b1660208201526034810184905260009060540160408051808303601f1901815282825280516020918201206000818152600690925291812080546001600160a01b0319166001600160a01b038a1617905590925082917fb5e6e01e79f91267dc17b4e6314d5d4d03593d2ceee0fbb452b750bd70ea5af99190a2600354604051630200057560e51b81526001600160a01b0390911690634000aea09061228d90889087908790600401612ed0565b6020604051808303816000875af11580156122ac573d6000803e3d6000fd5b505050506040513d601f19601f820116820180604052508101906122d09190612c39565b6116a95760405162461bcd60e51b815260206004820152602360248201527f756e61626c6520746f207472616e73666572416e6443616c6c20746f206f7261604482015262636c6560e81b606482015260840161065e565b60608315612397578251600003612390576001600160a01b0385163b6123905760405162461bcd60e51b815260206004820152601d60248201527f416464726573733a2063616c6c20746f206e6f6e2d636f6e7472616374000000604482015260640161065e565b50816116a9565b6116a983836124be565b60606116a98484600085611ea6565b6123b861260d565b61179183846000015151846124e8565b6123d061260d565b6116a9848560000151518585612536565b6123e961260d565b82518211156123f757600080fd5b60208501516124068386612e0b565b11156124395761243985612429876020015187866124249190612e0b565b6125aa565b612434906002612bc6565b6125c1565b6000808651805187602083010193508088870111156124585787860182525b505050602084015b602084106124985780518252612477602083612e0b565b9150612484602082612e0b565b9050612491602085612e93565b9350612460565b51815160001960208690036101000a019081169019919091161790525083949350505050565b8151156124ce5781518083602001fd5b8060405162461bcd60e51b815260040161065e91906128bc565b6124f061260d565b836020015183106125105761251084856020015160026124349190612bc6565b835180516020858301018481535080850361252c576001810182525b5093949350505050565b61253e61260d565b602085015161254d8584612e0b565b111561256157612561856124298685612e0b565b6000600161257184610100612fe4565b61257b9190612e93565b905085518386820101858319825116178152508051848701111561259f5783860181525b509495945050505050565b6000818311156125bb575081610620565b50919050565b81516125cd8383612056565b5061198583826121b5565b6040805160a08101825260008082526020820181905291810182905260608101919091526080810161260861260d565b905290565b604051806040016040528060608152602001600081525090565b60006020828403121561263957600080fd5b81356001600160e01b03198116811461179157600080fd5b634e487b7160e01b600052604160045260246000fd5b60006001600160401b038084111561268157612681612651565b604051601f8501601f19908116603f011681019082821181831017156126a9576126a9612651565b816040528093508581528686860111156126c257600080fd5b858560208301376000602087830101525050509392505050565b600080604083850312156126ef57600080fd5b8235915060208301356001600160401b0381111561270c57600080fd5b8301601f8101851361271d57600080fd5b61272c85823560208401612667565b9150509250929050565b60006020828403121561274857600080fd5b81356001600160401b0381111561275e57600080fd5b8201601f8101841361276f57600080fd5b6116a984823560208401612667565b80356001600160a01b038116811461279557600080fd5b919050565b6000806000606084860312156127af57600080fd5b6127b88461277e565b92506127c66020850161277e565b9150604084013590509250925092565b6000602082840312156127e857600080fd5b5035919050565b6001600160a01b0391909116815260200190565b6000806040838503121561281657600080fd5b823591506128266020840161277e565b90509250929050565b6000806040838503121561284257600080fd5b50508035926020909101359150565b60006020828403121561286357600080fd5b6117918261277e565b60005b8381101561288757818101518382015260200161286f565b50506000910152565b600081518084526128a881602086016020860161286c565b601f01601f19169290920160200192915050565b6020815260006117916020830184612890565b600080600080608085870312156128e557600080fd5b6128ee8561277e565b93506128fc6020860161277e565b925060408501359150606085013560ff8116811461291957600080fd5b939692955090935050565b60208082526028908201527f536f75726365206d75737420626520746865206f7261636c65206f6620746865604082015267081c995c5d595cdd60c21b606082015260800190565b600181811c9082168061298057607f821691505b6020821081036125bb57634e487b7160e01b600052602260045260246000fd5b601f8211156109a857600081815260208120601f850160051c810160208610156129c75750805b601f850160051c820191505b8181101561096f578281556001016129d3565b81516001600160401b038111156129ff576129ff612651565b612a1381612a0d845461296c565b846129a0565b602080601f831160018114612a485760008415612a305750858301515b600019600386901b1c1916600185901b17855561096f565b600085815260208120601f198616915b82811015612a7757888601518255948401946001909101908401612a58565b5085821015612a955787850151600019600388901b60f8161c191681555b5050505050600190811b01905550565b60008151612ab781856020860161286c565b9290920192915050565b60008251612ad381846020870161286c565b9190910192915050565b805160208083015191908110156125bb5760001960209190910360031b1b16919050565b60008051602061306083398151915281526b312f71756f74653f7372633d60a01b602082015260008451612b3c81602c85016020890161286c565b64266473743d60d81b602c918401918201528451612b6181603184016020890161286c565b6726616d6f756e743d60c01b603192909101918201528351612b8a81603984016020880161286c565b0160390195945050505050565b634e487b7160e01b600052601160045260246000fd5b600060018201612bbf57612bbf612b97565b5060010190565b808202811582820484141761062057610620612b97565b634e487b7160e01b600052601260045260246000fd5b600082612c0257612c02612bdd565b500490565b600060208284031215612c1957600080fd5b5051919050565b6001600160a01b03929092168252602082015260400190565b600060208284031215612c4b57600080fd5b8151801515811461179157600080fd5b6001600160a01b0392831681529116602082015260400190565b60008051602061306083398151915281526a312f737761703f7372633d60a81b602082015260008751612caf81602b850160208c0161286c565b64266473743d60d81b602b918401918201528751612cd4816030840160208c0161286c565b6726616d6f756e743d60c01b603092909101918201528651612cfd816038840160208b0161286c565b652666726f6d3d60d01b603892909101918201528551612d2481603e840160208a0161286c565b6926736c6970706167653d60b01b603e9290910191820152612d8f612d6e612d68612d526048850189612aa5565b692672656365697665723d60b01b8152600a0190565b86612aa5565b742664697361626c65457374696d6174653d7472756560581b815260150190565b9998505050505050505050565b76020b1b1b2b9b9a1b7b73a3937b61d1030b1b1b7bab73a1604d1b815260008351612dce81601785016020880161286c565b7001034b99036b4b9b9b4b733903937b6329607d1b6017918401918201528351612dff81602884016020880161286c565b01602801949350505050565b8082018082111561062057610620612b97565b634e487b7160e01b600052603260045260246000fd5b600081612e4357612e43612b97565b506000190190565b60018060a01b038816815286602082015285604082015263ffffffff60e01b851660608201528360808201528260a082015260e060c08201526000612d8f60e0830184612890565b8181038181111561062057610620612b97565b634e487b7160e01b600052603160045260246000fd5b600082612ecb57612ecb612bdd565b500690565b60018060a01b0384168152826020820152606060408201526000612ef76060830184612890565b95945050505050565b600181815b80851115612f3b578160001904821115612f2157612f21612b97565b80851615612f2e57918102915b93841c9390800290612f05565b509250929050565b600082612f5257506001610620565b81612f5f57506000610620565b8160018114612f755760028114612f7f57612f9b565b6001915050610620565b60ff841115612f9057612f90612b97565b50506001821b610620565b5060208310610133831016604e8410600b8410161715612fbe575081810a610620565b612fc88383612f00565b8060001904821115612fdc57612fdc612b97565b029392505050565b60006117918383612f4356fe5b22616363657074222c20226170706c69636174696f6e2f6a736f6e222c2022417574686f72697a6174696f6e222c202242656172657220247b5345435245545f30317d225d416464726573733a206c6f772d6c6576656c2063616c6c20776974682076616c7565206661696c656468747470733a2f2f6170692e31696e63682e6465762f737761702f76352e322f17a8e30262c1f919c33056d877a3c22b95c2f5e4dac44683c1c2323cd79fbdb07cc135e0cebb02c3480ae5d74d377283180a2601f8f644edf7987b009316c63afab00a984754950c7187fb98f39da0ae224abbbee017c1699445ad0e19474a4da2646970667358221220e5e50c17db00da01dcc9f4f9a0b043ae45ce4c2d5d46072c92fee97fbd2344c664736f6c6343000813003317a8e30262c1f919c33056d877a3c22b95c2f5e4dac44683c1c2323cd79fbdb0",
  "linkReferences": {},
  "deployedLinkReferences": {}
}