{
  "_format": "hh-sol-artifact-1",
  "contractName": "SwapHelper",
  "sourceName": "contracts/utils/SwapHelper.sol",
  "abi": [
    {
      "inputs": [
        {
          "internalType": "uint256",
          "name": "_quoteJobFee",
          "type": "uint256"
        },
        {
          "internalType": "uint256",
          "name": "_swapCalldataJobFee",
          "type": "uint256"
        },
        {
          "internalType": "bytes32",
          "name": "_quoteJobId",
          "type": "bytes32"
        },
        {
          "internalType": "bytes32",
          "name": "_swapCalldataJobId",
          "type": "bytes32"
        },
        {
          "internalType": "address",
          "name": "_strategist",
          "type": "address"
        },
        {
          "internalType": "address",
          "name": "_aggregationRouter",
          "type": "address"
        },
        {
          "internalType": "address",
          "name": "chainlinkTokenAddress",
          "type": "address"
        },
        {
          "internalType": "address",
          "name": "chainlinkOracleAddress",
          "type": "address"
        },
        {
          "internalType": "string",
          "name": "_oneInchApiKey",
          "type": "string"
        },
        {
          "internalType": "address[]",
          "name": "authorizedToSwap",
          "type": "address[]"
        }
      ],
      "stateMutability": "nonpayable",
      "type": "constructor"
    },
    {
      "inputs": [],
      "name": "CannotAddSubscriber",
      "type": "error"
    },
    {
      "inputs": [],
      "name": "CannotRemoveSubscriber",
      "type": "error"
    },
    {
      "inputs": [],
      "name": "NotEnoughNativeTokensSent",
      "type": "error"
    },
    {
      "inputs": [],
      "name": "SlippageIsTooBig",
      "type": "error"
    },
    {
      "inputs": [],
      "name": "SwapOperationIsNotReady",
      "type": "error"
    },
    {
      "inputs": [],
      "name": "TransferError",
      "type": "error"
    },
    {
      "anonymous": false,
      "inputs": [
        {
          "indexed": true,
          "internalType": "bytes32",
          "name": "id",
          "type": "bytes32"
        }
      ],
      "name": "ChainlinkCancelled",
      "type": "event"
    },
    {
      "anonymous": false,
      "inputs": [
        {
          "indexed": true,
          "internalType": "bytes32",
          "name": "id",
          "type": "bytes32"
        }
      ],
      "name": "ChainlinkFulfilled",
      "type": "event"
    },
    {
      "anonymous": false,
      "inputs": [
        {
          "indexed": true,
          "internalType": "bytes32",
          "name": "id",
          "type": "bytes32"
        }
      ],
      "name": "ChainlinkRequested",
      "type": "event"
    },
    {
      "anonymous": false,
      "inputs": [
        {
          "indexed": true,
          "internalType": "address",
          "name": "from",
          "type": "address"
        },
        {
          "indexed": true,
          "internalType": "address",
          "name": "to",
          "type": "address"
        }
      ],
      "name": "OwnershipTransferRequested",
      "type": "event"
    },
    {
      "anonymous": false,
      "inputs": [
        {
          "indexed": true,
          "internalType": "address",
          "name": "from",
          "type": "address"
        },
        {
          "indexed": true,
          "internalType": "address",
          "name": "to",
          "type": "address"
        }
      ],
      "name": "OwnershipTransferred",
      "type": "event"
    },
    {
      "anonymous": false,
      "inputs": [
        {
          "indexed": true,
          "internalType": "address",
          "name": "src",
          "type": "address"
        },
        {
          "indexed": true,
          "internalType": "address",
          "name": "dst",
          "type": "address"
        },
        {
          "indexed": true,
          "internalType": "uint256",
          "name": "amountOut",
          "type": "uint256"
        },
        {
          "indexed": false,
          "internalType": "uint256",
          "name": "amountIn",
          "type": "uint256"
        }
      ],
      "name": "QuoteReceived",
      "type": "event"
    },
    {
      "anonymous": false,
      "inputs": [
        {
          "indexed": true,
          "internalType": "bytes32",
          "name": "role",
          "type": "bytes32"
        },
        {
          "indexed": true,
          "internalType": "bytes32",
          "name": "previousAdminRole",
          "type": "bytes32"
        },
        {
          "indexed": true,
          "internalType": "bytes32",
          "name": "newAdminRole",
          "type": "bytes32"
        }
      ],
      "name": "RoleAdminChanged",
      "type": "event"
    },
    {
      "anonymous": false,
      "inputs": [
        {
          "indexed": true,
          "internalType": "bytes32",
          "name": "role",
          "type": "bytes32"
        },
        {
          "indexed": true,
          "internalType": "address",
          "name": "account",
          "type": "address"
        },
        {
          "indexed": true,
          "internalType": "address",
          "name": "sender",
          "type": "address"
        }
      ],
      "name": "RoleGranted",
      "type": "event"
    },
    {
      "anonymous": false,
      "inputs": [
        {
          "indexed": true,
          "internalType": "bytes32",
          "name": "role",
          "type": "bytes32"
        },
        {
          "indexed": true,
          "internalType": "address",
          "name": "account",
          "type": "address"
        },
        {
          "indexed": true,
          "internalType": "address",
          "name": "sender",
          "type": "address"
        }
      ],
      "name": "RoleRevoked",
      "type": "event"
    },
    {
      "anonymous": false,
      "inputs": [
        {
          "indexed": true,
          "internalType": "address",
          "name": "src",
          "type": "address"
        },
        {
          "indexed": true,
          "internalType": "address",
          "name": "dst",
          "type": "address"
        },
        {
          "indexed": true,
          "internalType": "uint256",
          "name": "amountIn",
          "type": "uint256"
        }
      ],
      "name": "SwapPerformed",
      "type": "event"
    },
    {
      "anonymous": false,
      "inputs": [
        {
          "indexed": true,
          "internalType": "bytes",
          "name": "swapCalldata",
          "type": "bytes"
        }
      ],
      "name": "SwapRegistered",
      "type": "event"
    },
    {
      "inputs": [],
      "name": "DEFAULT_ADMIN_ROLE",
      "outputs": [
        {
          "internalType": "bytes32",
          "name": "",
          "type": "bytes32"
        }
      ],
      "stateMutability": "view",
      "type": "function"
    },
    {
      "inputs": [],
      "name": "ONE_INCH_ETH_ADDRESS",
      "outputs": [
        {
          "internalType": "address",
          "name": "",
          "type": "address"
        }
      ],
      "stateMutability": "view",
      "type": "function"
    },
    {
      "inputs": [],
      "name": "STRATEGIST_ROLE",
      "outputs": [
        {
          "internalType": "bytes32",
          "name": "",
          "type": "bytes32"
        }
      ],
      "stateMutability": "view",
      "type": "function"
    },
    {
      "inputs": [],
      "name": "SWAP_AUTHORIZED_ROLE",
      "outputs": [
        {
          "internalType": "bytes32",
          "name": "",
          "type": "bytes32"
        }
      ],
      "stateMutability": "view",
      "type": "function"
    },
    {
      "inputs": [],
      "name": "acceptOwnership",
      "outputs": [],
      "stateMutability": "nonpayable",
      "type": "function"
    },
    {
      "inputs": [
        {
          "internalType": "address",
          "name": "subscriber",
          "type": "address"
        }
      ],
      "name": "addSubscriber",
      "outputs": [],
      "stateMutability": "nonpayable",
      "type": "function"
    },
    {
      "inputs": [],
      "name": "aggregationRouter",
      "outputs": [
        {
          "internalType": "address",
          "name": "",
          "type": "address"
        }
      ],
      "stateMutability": "view",
      "type": "function"
    },
    {
      "inputs": [],
      "name": "evacuateLinkTokens",
      "outputs": [],
      "stateMutability": "nonpayable",
      "type": "function"
    },
    {
      "inputs": [
        {
          "internalType": "bytes32",
          "name": "requestId",
          "type": "bytes32"
        },
        {
          "internalType": "uint256",
          "name": "toAmount",
          "type": "uint256"
        }
      ],
      "name": "fulfillQuoteRequest",
      "outputs": [],
      "stateMutability": "nonpayable",
      "type": "function"
    },
    {
      "inputs": [],
      "name": "fulfillSwap",
      "outputs": [],
      "stateMutability": "nonpayable",
      "type": "function"
    },
    {
      "inputs": [
        {
          "internalType": "bytes32",
          "name": "role",
          "type": "bytes32"
        }
      ],
      "name": "getRoleAdmin",
      "outputs": [
        {
          "internalType": "bytes32",
          "name": "",
          "type": "bytes32"
        }
      ],
      "stateMutability": "view",
      "type": "function"
    },
    {
      "inputs": [
        {
          "internalType": "bytes32",
          "name": "role",
          "type": "bytes32"
        },
        {
          "internalType": "address",
          "name": "account",
          "type": "address"
        }
      ],
      "name": "grantRole",
      "outputs": [],
      "stateMutability": "nonpayable",
      "type": "function"
    },
    {
      "inputs": [
        {
          "internalType": "bytes32",
          "name": "role",
          "type": "bytes32"
        },
        {
          "internalType": "address",
          "name": "account",
          "type": "address"
        }
      ],
      "name": "hasRole",
      "outputs": [
        {
          "internalType": "bool",
          "name": "",
          "type": "bool"
        }
      ],
      "stateMutability": "view",
      "type": "function"
    },
    {
      "inputs": [],
      "name": "isReadyToFulfillSwap",
      "outputs": [
        {
          "internalType": "bool",
          "name": "",
          "type": "bool"
        }
      ],
      "stateMutability": "view",
      "type": "function"
    },
    {
      "inputs": [],
      "name": "lastQuotedDstToken",
      "outputs": [
        {
          "internalType": "address",
          "name": "",
          "type": "address"
        }
      ],
      "stateMutability": "view",
      "type": "function"
    },
    {
      "inputs": [],
      "name": "lastQuotedSrcToken",
      "outputs": [
        {
          "internalType": "address",
          "name": "",
          "type": "address"
        }
      ],
      "stateMutability": "view",
      "type": "function"
    },
    {
      "inputs": [],
      "name": "lastQuotedSrcTokenAmount",
      "outputs": [
        {
          "internalType": "uint256",
          "name": "",
          "type": "uint256"
        }
      ],
      "stateMutability": "view",
      "type": "function"
    },
    {
      "inputs": [],
      "name": "lastSwapDstToken",
      "outputs": [
        {
          "internalType": "address",
          "name": "",
          "type": "address"
        }
      ],
      "stateMutability": "view",
      "type": "function"
    },
    {
      "inputs": [],
      "name": "lastSwapSrcToken",
      "outputs": [
        {
          "internalType": "address",
          "name": "",
          "type": "address"
        }
      ],
      "stateMutability": "view",
      "type": "function"
    },
    {
      "inputs": [],
      "name": "lastSwapSrcTokenAmount",
      "outputs": [
        {
          "internalType": "uint256",
          "name": "",
          "type": "uint256"
        }
      ],
      "stateMutability": "view",
      "type": "function"
    },
    {
      "inputs": [],
      "name": "oneInchApiKey",
      "outputs": [
        {
          "internalType": "string",
          "name": "",
          "type": "string"
        }
      ],
      "stateMutability": "view",
      "type": "function"
    },
    {
      "inputs": [],
      "name": "owner",
      "outputs": [
        {
          "internalType": "address",
          "name": "",
          "type": "address"
        }
      ],
      "stateMutability": "view",
      "type": "function"
    },
    {
      "inputs": [],
      "name": "quoteJobFee",
      "outputs": [
        {
          "internalType": "uint256",
          "name": "",
          "type": "uint256"
        }
      ],
      "stateMutability": "view",
      "type": "function"
    },
    {
      "inputs": [],
      "name": "quoteJobId",
      "outputs": [
        {
          "internalType": "bytes32",
          "name": "",
          "type": "bytes32"
        }
      ],
      "stateMutability": "view",
      "type": "function"
    },
    {
      "inputs": [
        {
          "internalType": "bytes32",
          "name": "requestId",
          "type": "bytes32"
        },
        {
          "internalType": "bytes",
          "name": "swapCalldata",
          "type": "bytes"
        }
      ],
      "name": "registerSwapCalldata",
      "outputs": [],
      "stateMutability": "nonpayable",
      "type": "function"
    },
    {
      "inputs": [
        {
          "internalType": "address",
          "name": "subscriber",
          "type": "address"
        }
      ],
      "name": "removeSubscriber",
      "outputs": [],
      "stateMutability": "nonpayable",
      "type": "function"
    },
    {
      "inputs": [
        {
          "internalType": "bytes32",
          "name": "role",
          "type": "bytes32"
        },
        {
          "internalType": "address",
          "name": "account",
          "type": "address"
        }
      ],
      "name": "renounceRole",
      "outputs": [],
      "stateMutability": "nonpayable",
      "type": "function"
    },
    {
      "inputs": [
        {
          "internalType": "address",
          "name": "src",
          "type": "address"
        },
        {
          "internalType": "address",
          "name": "dst",
          "type": "address"
        },
        {
          "internalType": "uint256",
          "name": "amount",
          "type": "uint256"
        }
      ],
      "name": "requestQuote",
      "outputs": [],
      "stateMutability": "nonpayable",
      "type": "function"
    },
    {
      "inputs": [
        {
          "internalType": "address",
          "name": "src",
          "type": "address"
        },
        {
          "internalType": "address",
          "name": "dst",
          "type": "address"
        },
        {
          "internalType": "uint256",
          "name": "amount",
          "type": "uint256"
        },
        {
          "internalType": "uint8",
          "name": "slippage",
          "type": "uint8"
        }
      ],
      "name": "requestSwap",
      "outputs": [],
      "stateMutability": "payable",
      "type": "function"
    },
    {
      "inputs": [
        {
          "internalType": "bytes32",
          "name": "role",
          "type": "bytes32"
        },
        {
          "internalType": "address",
          "name": "account",
          "type": "address"
        }
      ],
      "name": "revokeRole",
      "outputs": [],
      "stateMutability": "nonpayable",
      "type": "function"
    },
    {
      "inputs": [
        {
          "internalType": "uint256",
          "name": "subscriberIdx",
          "type": "uint256"
        }
      ],
      "name": "subscriberAt",
      "outputs": [
        {
          "internalType": "address",
          "name": "",
          "type": "address"
        }
      ],
      "stateMutability": "view",
      "type": "function"
    },
    {
      "inputs": [],
      "name": "subscribersLength",
      "outputs": [
        {
          "internalType": "uint256",
          "name": "",
          "type": "uint256"
        }
      ],
      "stateMutability": "view",
      "type": "function"
    },
    {
      "inputs": [
        {
          "internalType": "bytes4",
          "name": "interfaceId",
          "type": "bytes4"
        }
      ],
      "name": "supportsInterface",
      "outputs": [
        {
          "internalType": "bool",
          "name": "",
          "type": "bool"
        }
      ],
      "stateMutability": "view",
      "type": "function"
    },
    {
      "inputs": [],
      "name": "swapCalldataJobFee",
      "outputs": [
        {
          "internalType": "uint256",
          "name": "",
          "type": "uint256"
        }
      ],
      "stateMutability": "view",
      "type": "function"
    },
    {
      "inputs": [],
      "name": "swapCalldataJobId",
      "outputs": [
        {
          "internalType": "bytes32",
          "name": "",
          "type": "bytes32"
        }
      ],
      "stateMutability": "view",
      "type": "function"
    },
    {
      "inputs": [
        {
          "internalType": "address",
          "name": "to",
          "type": "address"
        }
      ],
      "name": "transferOwnership",
      "outputs": [],
      "stateMutability": "nonpayable",
      "type": "function"
    },
    {
      "stateMutability": "payable",
      "type": "receive"
    }
  ],
  "bytecode": "0x61012060405260016005553480156200001757600080fd5b506040516200373b3803806200373b8339810160408190526200003a91620004ca565b3380600081620000915760405162461bcd60e51b815260206004820152601860248201527f43616e6e6f7420736574206f776e657220746f207a65726f000000000000000060448201526064015b60405180910390fd5b600780546001600160a01b0319166001600160a01b0384811691909117909155811615620000c457620000c481620001d7565b505050620000d8846200028360201b60201c565b600480546001600160a01b0319166001600160a01b03851617905560c08a905261010089905260a088905260e0879052601162000116838262000637565b506001600160a01b03851660805260005b81518160ff1610156200019a57620001857ffab00a984754950c7187fb98f39da0ae224abbbee017c1699445ad0e19474a4d838360ff168151811062000171576200017162000703565b6020026020010151620002a560201b60201c565b80620001918162000719565b91505062000127565b50620001c77f17a8e30262c1f919c33056d877a3c22b95c2f5e4dac44683c1c2323cd79fbdb087620002a5565b5050505050505050505062000747565b336001600160a01b03821603620002315760405162461bcd60e51b815260206004820152601760248201527f43616e6e6f74207472616e7366657220746f2073656c66000000000000000000604482015260640162000088565b600880546001600160a01b0319166001600160a01b03838116918217909255600754604051919216907fed8889f560326eb138920d842192f0eb3dd22b4f139c87a2c57538e05bae127890600090a350565b600380546001600160a01b0319166001600160a01b0392909216919091179055565b6000828152602081815260408083206001600160a01b038516845290915290205460ff1662000342576000828152602081815260408083206001600160a01b03851684529091529020805460ff19166001179055620003013390565b6001600160a01b0316816001600160a01b0316837f2f8788117e7eff1d82e926ec794901d17c78024a50270940304540a733656f0d60405160405180910390a45b5050565b80516001600160a01b03811681146200035e57600080fd5b919050565b634e487b7160e01b600052604160045260246000fd5b604051601f8201601f191681016001600160401b0381118282101715620003a457620003a462000363565b604052919050565b600082601f830112620003be57600080fd5b81516001600160401b03811115620003da57620003da62000363565b6020620003f0601f8301601f1916820162000379565b82815285828487010111156200040557600080fd5b60005b838110156200042557858101830151828201840152820162000408565b506000928101909101919091529392505050565b600082601f8301126200044b57600080fd5b815160206001600160401b0382111562000469576200046962000363565b8160051b6200047a82820162000379565b92835284810182019282810190878511156200049557600080fd5b83870192505b84831015620004bf57620004af8362000346565b825291830191908301906200049b565b979650505050505050565b6000806000806000806000806000806101408b8d031215620004eb57600080fd5b8a51995060208b0151985060408b0151975060608b015196506200051260808c0162000346565b95506200052260a08c0162000346565b94506200053260c08c0162000346565b93506200054260e08c0162000346565b6101008c01519093506001600160401b03808211156200056157600080fd5b6200056f8e838f01620003ac565b93506101208d01519150808211156200058757600080fd5b50620005968d828e0162000439565b9150509295989b9194979a5092959850565b600181811c90821680620005bd57607f821691505b602082108103620005de57634e487b7160e01b600052602260045260246000fd5b50919050565b601f8211156200063257600081815260208120601f850160051c810160208610156200060d5750805b601f850160051c820191505b818110156200062e5782815560010162000619565b5050505b505050565b81516001600160401b0381111562000653576200065362000363565b6200066b81620006648454620005a8565b84620005e4565b602080601f831160018114620006a357600084156200068a5750858301515b600019600386901b1c1916600185901b1785556200062e565b600085815260208120601f198616915b82811015620006d457888601518255948401946001909101908401620006b3565b5085821015620006f35787850151600019600388901b60f8161c191681555b5050505050600190811b01905550565b634e487b7160e01b600052603260045260246000fd5b600060ff821660ff81036200073e57634e487b7160e01b600052601160045260246000fd5b60010192915050565b60805160a05160c05160e05161010051612f77620007c46000396000818161051d0152611517015260008181610266015261132601526000818161037f015261098c015260008181610454015261079801526000818161065101528181611018015281816110d90152818161120d01526112ae0152612f776000f3fe6080604052600436106101a35760003560e01c806301ffc9a7146101af57806302458ad8146101e45780631a5b420714610206578063248a9ca3146102265780632547db8d14610254578063271e390a146102885780632f2ff15d146102b557806336568abe146102d55780633662dd35146102f557806336868f0e1461030b578063459c75d81461032b5780634e0c61331461034b57806353881b661461036d5780635b949dd0146103a1578063627c34ad146103b657806366b8455b146103d65780636ccf5b01146103eb57806379ba50971461040b5780637aff3a0c146104205780637ec14de8146104425780638da5cb5b1461047657806391d148541461049457806394555d1a146104b4578063a217fddf146104d4578063a378a324146104e9578063a6ccef3e1461050b578063aaeafd561461053f578063b56269a014610567578063c02e5bc71461057d578063c0d2e37f1461059d578063c87457db146105b7578063d547741f146105d7578063eaad47b2146105f7578063f09922ff1461060c578063f2fde38b1461061f578063fcdfd9461461063f57600080fd5b366101aa57005b600080fd5b3480156101bb57600080fd5b506101cf6101ca3660046124c3565b610673565b60405190151581526020015b60405180910390f35b3480156101f057600080fd5b506102046101ff366004612503565b6106aa565b005b34801561021257600080fd5b506102046102213660046125d9565b610779565b34801561023257600080fd5b50610246610241366004612615565b6109b8565b6040519081526020016101db565b34801561026057600080fd5b506102467f000000000000000000000000000000000000000000000000000000000000000081565b34801561029457600080fd5b50600c546102a8906001600160a01b031681565b6040516101db919061262e565b3480156102c157600080fd5b506102046102d0366004612642565b6109cd565b3480156102e157600080fd5b506102046102f0366004612642565b6109ee565b34801561030157600080fd5b50610246600b5481565b34801561031757600080fd5b50600d546102a8906001600160a01b031681565b34801561033757600080fd5b5061020461034636600461266e565b610a6c565b34801561035757600080fd5b50610246600080516020612f2283398151915281565b34801561037957600080fd5b506102467f000000000000000000000000000000000000000000000000000000000000000081565b3480156103ad57600080fd5b50610204610bd7565b3480156103c257600080fd5b506102046103d1366004612690565b610cff565b3480156103e257600080fd5b50610246610d3f565b3480156103f757600080fd5b506102a8610406366004612615565b610d50565b34801561041757600080fd5b50610204610d5d565b34801561042c57600080fd5b50610435610e0b565b6040516101db91906126fb565b34801561044e57600080fd5b506102467f000000000000000000000000000000000000000000000000000000000000000081565b34801561048257600080fd5b506007546001600160a01b03166102a8565b3480156104a057600080fd5b506101cf6104af366004612642565b610e99565b3480156104c057600080fd5b506102046104cf366004612690565b610ec2565b3480156104e057600080fd5b50610246600081565b3480156104f557600080fd5b50610246600080516020612ee283398151915281565b34801561051757600080fd5b506102467f000000000000000000000000000000000000000000000000000000000000000081565b34801561054b57600080fd5b506102a873eeeeeeeeeeeeeeeeeeeeeeeeeeeeeeeeeeeeeeee81565b34801561057357600080fd5b50610246600e5481565b34801561058957600080fd5b50600a546102a8906001600160a01b031681565b3480156105a957600080fd5b50600f546101cf9060ff1681565b3480156105c357600080fd5b506009546102a8906001600160a01b031681565b3480156105e357600080fd5b506102046105f2366004612642565b610f02565b34801561060357600080fd5b50610204610f1e565b61020461061a36600461270e565b611160565b34801561062b57600080fd5b5061020461063a366004612690565b611545565b34801561064b57600080fd5b506102a87f000000000000000000000000000000000000000000000000000000000000000081565b60006001600160e01b03198216637965db0b60e01b14806106a457506301ffc9a760e01b6001600160e01b03198316145b92915050565b60008281526006602052604090205482906001600160a01b031633146106eb5760405162461bcd60e51b81526004016106e290612763565b60405180910390fd5b60008181526006602052604080822080546001600160a01b0319169055518291600080516020612f0283398151915291a260106107288382612825565b50600f805460ff19166001179055604051610744908390612900565b604051908190038120907fa6b78fc047486d5add927aa53ba0d4fc8eb23a5811e0052aebeba21469f51df890600090a2505050565b600080516020612f2283398151915261079181611559565b60006107c57f0000000000000000000000000000000000000000000000000000000000000000306308b38ebb60e31b611563565b9050610815604051806040016040528060068152602001651b595d1a1bd960d21b8152506040518060400160405280600381526020016211d15560ea1b815250836115889092919063ffffffff16565b610879604051806040016040528060038152602001621d5c9b60ea1b81525061083d876115a6565b610846876115a6565b61084f876115bc565b6040516020016108619392919061291c565b60408051601f19818403018152919052839190611588565b6108ae604051806040016040528060078152602001666865616465727360c81b815250601160405160200161086191906129b2565b6109006040518060400160405280600781526020016618dbdb9d1858dd60ca1b815250604051806040016040528060068152602001651b9d5b595c9d60d21b815250836115889092919063ffffffff16565b610951604051806040016040528060048152602001630e0c2e8d60e31b815250604051806040016040528060088152602001671d1bd05b5bdd5b9d60c21b815250836115889092919063ffffffff16565b600980546001600160a01b038088166001600160a01b031992831617909255600a805492871692909116919091179055600b8390556109b0817f000000000000000000000000000000000000000000000000000000000000000061164e565b505050505050565b60009081526020819052604090206001015490565b6109d6826109b8565b6109df81611559565b6109e9838361166f565b505050565b6001600160a01b0381163314610a5e5760405162461bcd60e51b815260206004820152602f60248201527f416363657373436f6e74726f6c3a2063616e206f6e6c792072656e6f756e636560448201526e103937b632b9903337b91039b2b63360891b60648201526084016106e2565b610a6882826116f3565b5050565b60008281526006602052604090205482906001600160a01b03163314610aa45760405162461bcd60e51b81526004016106e290612763565b60008181526006602052604080822080546001600160a01b0319169055518291600080516020612f0283398151915291a2600a54600954600b5460405190815284926001600160a01b039081169216907fc6ef891de9793cb5acefea4d38d25452da06c1b8a922180eeb0f324523b326a09060200160405180910390a46000610b2d6012611758565b905060005b81811015610bd057610b45601282611762565b600954600a54600b5460405163b91dc4bb60e01b81526001600160a01b039384166004820152918316602483015260448201889052606482015291169063b91dc4bb90608401600060405180830381600087803b158015610ba557600080fd5b505af1158015610bb9573d6000803e3d6000fd5b505050508080610bc890612a97565b915050610b32565b5050505050565b600080516020612ee2833981519152610bef81611559565b6000610c036003546001600160a01b031690565b9050806001600160a01b031663a9059cbb33836001600160a01b03166370a08231306040518263ffffffff1660e01b8152600401610c41919061262e565b602060405180830381865afa158015610c5e573d6000803e3d6000fd5b505050506040513d601f19601f82011682018060405250810190610c829190612ab0565b6040518363ffffffff1660e01b8152600401610c9f929190612ac9565b6020604051808303816000875af1158015610cbe573d6000803e3d6000fd5b505050506040513d601f19601f82011682018060405250810190610ce29190612ae2565b610a68576040516313ff771f60e21b815260040160405180910390fd5b600080516020612ee2833981519152610d1781611559565b610d2260128361176e565b610a68576040516306e971bb60e31b815260040160405180910390fd5b6000610d4b6012611758565b905090565b60006106a4601283611762565b6008546001600160a01b03163314610db05760405162461bcd60e51b815260206004820152601660248201527526bab9ba10313290383937b837b9b2b21037bbb732b960511b60448201526064016106e2565b600780546001600160a01b0319808216339081179093556008805490911690556040516001600160a01b03909116919082907f8be0079c531659141344cd1fd0a4f28419497f9722a3daafe3b4186f6b6457e090600090a350565b60118054610e18906127ab565b80601f0160208091040260200160405190810160405280929190818152602001828054610e44906127ab565b8015610e915780601f10610e6657610100808354040283529160200191610e91565b820191906000526020600020905b815481529060010190602001808311610e7457829003601f168201915b505050505081565b6000918252602082815260408084206001600160a01b0393909316845291905290205460ff1690565b600080516020612ee2833981519152610eda81611559565b610ee5601283611783565b610a68576040516305c46f6760e31b815260040160405180910390fd5b610f0b826109b8565b610f1481611559565b6109e983836116f3565b600080516020612ee2833981519152610f3681611559565b600f5460ff16610f5957604051637d683d5360e01b815260040160405180910390fd5b600c546001600160a01b031673eeeeeeeeeeeeeeeeeeeeeeeeeeeeeeeeeeeeeeed19016110495761104360108054610f90906127ab565b80601f0160208091040260200160405190810160405280929190818152602001828054610fbc906127ab565b80156110095780601f10610fde57610100808354040283529160200191611009565b820191906000526020600020905b815481529060010190602001808311610fec57829003601f168201915b5050600e546001600160a01b037f000000000000000000000000000000000000000000000000000000000000000016949350915050611798565b50611111565b61110f60108054611059906127ab565b80601f0160208091040260200160405190810160405280929190818152602001828054611085906127ab565b80156110d25780601f106110a7576101008083540402835291602001916110d2565b820191906000526020600020905b8154815290600101906020018083116110b557829003601f168201915b50505050507f00000000000000000000000000000000000000000000000000000000000000006001600160a01b03166117c690919063ffffffff16565b505b600e54600d54600c546040516001600160a01b0392831692909116907fe8a8f43c967965902142e0f7bd4b7b3c55fc5b1a0df5e84fa8ded5cafe92770690600090a450600f805460ff19169055565b600080516020612f2283398151915261117881611559565b60328260ff16111561119d576040516336ee37fb60e21b815260040160405180910390fd5b6001600160a01b03851673eeeeeeeeeeeeeeeeeeeeeeeeeeeeeeeeeeeeeeee1480156111c857503483105b156111e657604051630dd86f5360e11b815260040160405180910390fd5b600f805460ff19169055604051636eb1769f60e11b81523060048201526001600160a01b037f0000000000000000000000000000000000000000000000000000000000000000811660248301528691859183169063dd62ed3e90604401602060405180830381865afa158015611260573d6000803e3d6000fd5b505050506040513d601f19601f820116820180604052508101906112849190612ab0565b101561131f5760405163095ea7b360e01b81526001600160a01b0382169063095ea7b3906112da907f00000000000000000000000000000000000000000000000000000000000000009060001990600401612ac9565b6020604051808303816000875af11580156112f9573d6000803e3d6000fd5b505050506040513d601f19601f8201168201806040525081019061131d9190612ae2565b505b60006113527f0000000000000000000000000000000000000000000000000000000000000000306248b15b60e31b611563565b90506113a2604051806040016040528060068152602001651b595d1a1bd960d21b8152506040518060400160405280600381526020016211d15560ea1b815250836115889092919063ffffffff16565b611405604051806040016040528060038152602001621d5c9b60ea1b8152506113ca896115a6565b6113d3896115a6565b6113dc896115bc565b6113e5336115a6565b6113f18a60ff166115bc565b604051602001610861959493929190612b04565b61143a604051806040016040528060078152602001666865616465727360c81b815250601160405160200161086191906129b2565b61148c6040518060400160405280600781526020016618dbdb9d1858dd60ca1b815250604051806040016040528060068152602001651b9d5b595c9d60d21b815250836115889092919063ffffffff16565b6114dc604051806040016040528060048152602001630e0c2e8d60e31b8152506040518060400160405280600781526020016674782c6461746160c81b815250836115889092919063ffffffff16565b600c80546001600160a01b03808a166001600160a01b031992831617909255600d805492891692909116919091179055600e85905561153b817f000000000000000000000000000000000000000000000000000000000000000061164e565b5050505050505050565b61154d61180a565b6115568161185f565b50565b6115568133611903565b61156b612474565b611573612474565b61157f8186868661195c565b95945050505050565b60808301516115979083611999565b60808301516109e99082611999565b60606106a46001600160a01b03831660146119b0565b606060006115c983611b4b565b60010190506000816001600160401b038111156115e8576115e86124ed565b6040519080825280601f01601f191660200182016040528015611612576020820181803683370190505b5090508181016020015b600019016f181899199a1a9b1b9c1cb0b131b232b360811b600a86061a8153600a850494508461161c57509392505050565b600454600090611668906001600160a01b03168484611c21565b9392505050565b6116798282610e99565b610a68576000828152602081815260408083206001600160a01b03851684529091529020805460ff191660011790556116af3390565b6001600160a01b0316816001600160a01b0316837f2f8788117e7eff1d82e926ec794901d17c78024a50270940304540a733656f0d60405160405180910390a45050565b6116fd8282610e99565b15610a68576000828152602081815260408083206001600160a01b0385168085529252808320805460ff1916905551339285917ff6391f5c32d9c69d2a47ea670b442974b53935d1edc7fd64eb21e047a839171b9190a45050565b60006106a4825490565b60006116688383611cb4565b6000611668836001600160a01b038416611cde565b6000611668836001600160a01b038416611dd1565b60606117be848484604051806060016040528060298152602001612e9960299139611e20565b949350505050565b6060611668838360006040518060400160405280601e81526020017f416464726573733a206c6f772d6c6576656c2063616c6c206661696c65640000815250611e20565b6007546001600160a01b0316331461185d5760405162461bcd60e51b815260206004820152601660248201527527b7363c9031b0b63630b1363290313c9037bbb732b960511b60448201526064016106e2565b565b336001600160a01b038216036118b15760405162461bcd60e51b815260206004820152601760248201527621b0b73737ba103a3930b739b332b9103a379039b2b63360491b60448201526064016106e2565b600880546001600160a01b0319166001600160a01b03838116918217909255600754604051919216907fed8889f560326eb138920d842192f0eb3dd22b4f139c87a2c57538e05bae127890600090a350565b61190d8282610e99565b610a685761191a816115a6565b6119258360206119b0565b604051602001611936929190612c08565b60408051601f198184030181529082905262461bcd60e51b82526106e2916004016126fb565b611964612474565b6119748560800151610100611efb565b50509183526001600160a01b031660208301526001600160e01b031916604082015290565b6119a68260038351611f53565b6109e98282612060565b606060006119bf836002612c77565b6119ca906002612c8e565b6001600160401b038111156119e1576119e16124ed565b6040519080825280601f01601f191660200182016040528015611a0b576020820181803683370190505b509050600360fc1b81600081518110611a2657611a26612ca1565b60200101906001600160f81b031916908160001a905350600f60fb1b81600181518110611a5557611a55612ca1565b60200101906001600160f81b031916908160001a9053506000611a79846002612c77565b611a84906001612c8e565b90505b6001811115611afc576f181899199a1a9b1b9c1cb0b131b232b360811b85600f1660108110611ab857611ab8612ca1565b1a60f81b828281518110611ace57611ace612ca1565b60200101906001600160f81b031916908160001a90535060049490941c93611af581612cb7565b9050611a87565b5083156116685760405162461bcd60e51b815260206004820181905260248201527f537472696e67733a20686578206c656e67746820696e73756666696369656e7460448201526064016106e2565b60008072184f03e93ff9f4daa797ed6e38ed64bf6a1f0160401b8310611b8a5772184f03e93ff9f4daa797ed6e38ed64bf6a1f0160401b830492506040015b6904ee2d6d415b85acef8160201b8310611bb4576904ee2d6d415b85acef8160201b830492506020015b662386f26fc100008310611bd257662386f26fc10000830492506010015b6305f5e1008310611bea576305f5e100830492506008015b6127108310611bfe57612710830492506004015b60648310611c10576064830492506002015b600a83106106a45760010192915050565b600554600090611c32816001612c8e565b600555835160408086015160808701515191516000936320214ca360e11b93611c6a9386938493923092918a91600191602401612cce565b60408051601f198184030181529190526020810180516001600160e01b03166001600160e01b0319909316929092179091529050611caa8683868461207a565b9695505050505050565b6000826000018281548110611ccb57611ccb612ca1565b9060005260206000200154905092915050565b60008181526001830160205260408120548015611dc7576000611d02600183612d36565b8554909150600090611d1690600190612d36565b9050818114611d7b576000866000018281548110611d3657611d36612ca1565b9060005260206000200154905080876000018481548110611d5957611d59612ca1565b6000918252602080832090910192909255918252600188019052604090208390555b8554869080611d8c57611d8c612d49565b6001900381819060005260206000200160009055905585600101600086815260200190815260200160002060009055600193505050506106a4565b60009150506106a4565b6000818152600183016020526040812054611e18575081546001818101845560008481526020808220909301849055845484825282860190935260409020919091556106a4565b5060006106a4565b606082471015611e815760405162461bcd60e51b815260206004820152602660248201527f416464726573733a20696e73756666696369656e742062616c616e636520666f6044820152651c8818d85b1b60d21b60648201526084016106e2565b600080866001600160a01b03168587604051611e9d9190612900565b60006040518083038185875af1925050503d8060008114611eda576040519150601f19603f3d011682016040523d82523d6000602084013e611edf565b606091505b5091509150611ef0878383876121d3565b979650505050505050565b611f036124a9565b611f0e602083612d5f565b15611f3657611f1e602083612d5f565b611f29906020612d36565b611f339083612c8e565b91505b506020828101829052604080518085526000815290920101905290565b6017816001600160401b031611611f7d57611f778360e0600585901b16831761224c565b50505050565b60ff816001600160401b031611611fb957611fa3836018611fe0600586901b161761224c565b50611f77836001600160401b0383166001612264565b61ffff816001600160401b031611611ff657611fe0836019611fe0600586901b161761224c565b50611f77836001600160401b0383166002612264565b63ffffffff816001600160401b0316116120355761201f83601a611fe0600586901b161761224c565b50611f77836001600160401b0383166004612264565b61204a83601b611fe0600586901b161761224c565b50611f77836001600160401b0383166008612264565b6120686124a9565b6116688384600001515184855161227d565b6040516001600160601b03193060601b1660208201526034810184905260009060540160408051808303601f1901815282825280516020918201206000818152600690925291812080546001600160a01b0319166001600160a01b038a1617905590925082917fb5e6e01e79f91267dc17b4e6314d5d4d03593d2ceee0fbb452b750bd70ea5af99190a2600354604051630200057560e51b81526001600160a01b0390911690634000aea09061213890889087908790600401612d81565b6020604051808303816000875af1158015612157573d6000803e3d6000fd5b505050506040513d601f19601f8201168201806040525081019061217b9190612ae2565b6117be5760405162461bcd60e51b815260206004820152602360248201527f756e61626c6520746f207472616e73666572416e6443616c6c20746f206f7261604482015262636c6560e81b60648201526084016106e2565b6060831561224257825160000361223b576001600160a01b0385163b61223b5760405162461bcd60e51b815260206004820152601d60248201527f416464726573733a2063616c6c20746f206e6f6e2d636f6e747261637400000060448201526064016106e2565b50816117be565b6117be838361235a565b6122546124a9565b6116688384600001515184612384565b61226c6124a9565b6117be8485600001515185856123d2565b6122856124a9565b825182111561229357600080fd5b60208501516122a28386612c8e565b11156122d5576122d5856122c5876020015187866122c09190612c8e565b612446565b6122d0906002612c77565b61245d565b6000808651805187602083010193508088870111156122f45787860182525b505050602084015b602084106123345780518252612313602083612c8e565b9150612320602082612c8e565b905061232d602085612d36565b93506122fc565b51815160001960208690036101000a019081169019919091161790525083949350505050565b81511561236a5781518083602001fd5b8060405162461bcd60e51b81526004016106e291906126fb565b61238c6124a9565b836020015183106123ac576123ac84856020015160026122d09190612c77565b83518051602085830101848153508085036123c8576001810182525b5093949350505050565b6123da6124a9565b60208501516123e98584612c8e565b11156123fd576123fd856122c58685612c8e565b6000600161240d84610100612e8c565b6124179190612d36565b905085518386820101858319825116178152508051848701111561243b5783860181525b509495945050505050565b6000818311156124575750816106a4565b50919050565b81516124698383611efb565b50611f778382612060565b6040805160a0810182526000808252602082018190529181018290526060810191909152608081016124a46124a9565b905290565b604051806040016040528060608152602001600081525090565b6000602082840312156124d557600080fd5b81356001600160e01b03198116811461166857600080fd5b634e487b7160e01b600052604160045260246000fd5b6000806040838503121561251657600080fd5b8235915060208301356001600160401b038082111561253457600080fd5b818501915085601f83011261254857600080fd5b81358181111561255a5761255a6124ed565b604051601f8201601f19908116603f01168101908382118183101715612582576125826124ed565b8160405282815288602084870101111561259b57600080fd5b8260208601602083013760006020848301015280955050505050509250929050565b80356001600160a01b03811681146125d457600080fd5b919050565b6000806000606084860312156125ee57600080fd5b6125f7846125bd565b9250612605602085016125bd565b9150604084013590509250925092565b60006020828403121561262757600080fd5b5035919050565b6001600160a01b0391909116815260200190565b6000806040838503121561265557600080fd5b82359150612665602084016125bd565b90509250929050565b6000806040838503121561268157600080fd5b50508035926020909101359150565b6000602082840312156126a257600080fd5b611668826125bd565b60005b838110156126c65781810151838201526020016126ae565b50506000910152565b600081518084526126e78160208601602086016126ab565b601f01601f19169290920160200192915050565b60208152600061166860208301846126cf565b6000806000806080858703121561272457600080fd5b61272d856125bd565b935061273b602086016125bd565b925060408501359150606085013560ff8116811461275857600080fd5b939692955090935050565b60208082526028908201527f536f75726365206d75737420626520746865206f7261636c65206f6620746865604082015267081c995c5d595cdd60c21b606082015260800190565b600181811c908216806127bf57607f821691505b60208210810361245757634e487b7160e01b600052602260045260246000fd5b601f8211156109e957600081815260208120601f850160051c810160208610156128065750805b601f850160051c820191505b818110156109b057828155600101612812565b81516001600160401b0381111561283e5761283e6124ed565b6128528161284c84546127ab565b846127df565b602080601f831160018114612887576000841561286f5750858301515b600019600386901b1c1916600185901b1785556109b0565b600085815260208120601f198616915b828110156128b657888601518255948401946001909101908401612897565b50858210156128d45787850151600019600388901b60f8161c191681555b5050505050600190811b01905550565b600081516128f68185602086016126ab565b9290920192915050565b600082516129128184602087016126ab565b9190910192915050565b600080516020612ec283398151915281526b312f71756f74653f7372633d60a01b60208201526000845161295781602c8501602089016126ab565b64266473743d60d81b602c91840191820152845161297c8160318401602089016126ab565b6726616d6f756e743d60c01b6031929091019182015283516129a58160398401602088016126ab565b0160390195945050505050565b7f5b22616363657074222c20226170706c69636174696f6e2f6a736f6e222c202281526000602077020baba3437b934bd30ba34b7b7111610112132b0b932b9160451b81840152603860008554612a08816127ab565b60018281168015612a205760018114612a3957612a69565b60ff198416898701528215158302890186019450612a69565b896000528660002060005b84811015612a5f5781548b8201890152908301908801612a44565b505085838a010194505b505061225d60f01b8352505060020195945050505050565b634e487b7160e01b600052601160045260246000fd5b600060018201612aa957612aa9612a81565b5060010190565b600060208284031215612ac257600080fd5b5051919050565b6001600160a01b03929092168252602082015260400190565b600060208284031215612af457600080fd5b8151801515811461166857600080fd5b600080516020612ec283398151915281526a312f737761703f7372633d60a81b602082015260008651612b3e81602b850160208b016126ab565b64266473743d60d81b602b918401918201528651612b63816030840160208b016126ab565b6726616d6f756e743d60c01b603092909101918201528551612b8c816038840160208a016126ab565b652666726f6d3d60d01b603892909101918201528451612bb381603e8401602089016126ab565b6926736c6970706167653d60b01b603e9290910191820152612bfc612bdb60488301866128e4565b742664697361626c65457374696d6174653d7472756560581b815260150190565b98975050505050505050565b76020b1b1b2b9b9a1b7b73a3937b61d1030b1b1b7bab73a1604d1b815260008351612c3a8160178501602088016126ab565b7001034b99036b4b9b9b4b733903937b6329607d1b6017918401918201528351612c6b8160288401602088016126ab565b01602801949350505050565b80820281158282048414176106a4576106a4612a81565b808201808211156106a4576106a4612a81565b634e487b7160e01b600052603260045260246000fd5b600081612cc657612cc6612a81565b506000190190565b6001600160a01b0389811682526020820189905260408201889052861660608201526001600160e01b03198516608082015260a0810184905260c0810183905261010060e08201819052600090612d27838201856126cf565b9b9a5050505050505050505050565b818103818111156106a4576106a4612a81565b634e487b7160e01b600052603160045260246000fd5b600082612d7c57634e487b7160e01b600052601260045260246000fd5b500690565b60018060a01b038416815282602082015260606040820152600061157f60608301846126cf565b600181815b80851115612de3578160001904821115612dc957612dc9612a81565b80851615612dd657918102915b93841c9390800290612dad565b509250929050565b600082612dfa575060016106a4565b81612e07575060006106a4565b8160018114612e1d5760028114612e2757612e43565b60019150506106a4565b60ff841115612e3857612e38612a81565b50506001821b6106a4565b5060208310610133831016604e8410600b8410161715612e66575081810a6106a4565b612e708383612da8565b8060001904821115612e8457612e84612a81565b029392505050565b60006116688383612deb56fe416464726573733a206c6f772d6c6576656c2063616c6c20776974682076616c7565206661696c656468747470733a2f2f6170692e31696e63682e6465762f737761702f76352e322f17a8e30262c1f919c33056d877a3c22b95c2f5e4dac44683c1c2323cd79fbdb07cc135e0cebb02c3480ae5d74d377283180a2601f8f644edf7987b009316c63afab00a984754950c7187fb98f39da0ae224abbbee017c1699445ad0e19474a4da26469706673582212205de94e55c5faba2fed3eebfa2068fbd1ea3d8d48b6a4117fb133a57f94a8553b64736f6c63430008130033",
  "linkReferences": {},
  "deployedLinkReferences": {}
}