{
  "_format": "hh-sol-artifact-1",
  "contractName": "SwapHelper",
  "sourceName": "contracts/utils/SwapHelper.sol",
  "abi": [
    {
      "inputs": [
        {
          "internalType": "uint256",
          "name": "_quoteJobFee",
          "type": "uint256"
        },
        {
          "internalType": "uint256",
          "name": "_swapCalldataJobFee",
          "type": "uint256"
        },
        {
          "internalType": "address",
          "name": "_strategist",
          "type": "address"
        },
        {
          "internalType": "address",
          "name": "_aggregationRouter",
          "type": "address"
        },
        {
          "internalType": "address",
          "name": "chainlinkTokenAddress",
          "type": "address"
        },
        {
          "internalType": "address",
          "name": "chainlinkOracleAddress",
          "type": "address"
        },
        {
          "internalType": "string",
          "name": "_swapCalldataJobId",
          "type": "string"
        },
        {
          "internalType": "string",
          "name": "_quoteJobId",
          "type": "string"
        },
        {
          "internalType": "address[]",
          "name": "authorizedToSwap",
          "type": "address[]"
        }
      ],
      "stateMutability": "nonpayable",
      "type": "constructor"
    },
    {
      "inputs": [],
      "name": "CannotAddSubscriber",
      "type": "error"
    },
    {
      "inputs": [],
      "name": "CannotRemoveSubscriber",
      "type": "error"
    },
    {
      "inputs": [],
      "name": "NotEnoughNativeTokensSent",
      "type": "error"
    },
    {
      "inputs": [],
      "name": "QuoteOperationIsNotReady",
      "type": "error"
    },
    {
      "inputs": [],
      "name": "SlippageIsTooBig",
      "type": "error"
    },
    {
      "inputs": [],
      "name": "SwapOperationIsNotReady",
      "type": "error"
    },
    {
      "inputs": [],
      "name": "TransferError",
      "type": "error"
    },
    {
      "anonymous": false,
      "inputs": [
        {
          "indexed": true,
          "internalType": "bytes32",
          "name": "id",
          "type": "bytes32"
        }
      ],
      "name": "ChainlinkCancelled",
      "type": "event"
    },
    {
      "anonymous": false,
      "inputs": [
        {
          "indexed": true,
          "internalType": "bytes32",
          "name": "id",
          "type": "bytes32"
        }
      ],
      "name": "ChainlinkFulfilled",
      "type": "event"
    },
    {
      "anonymous": false,
      "inputs": [
        {
          "indexed": true,
          "internalType": "bytes32",
          "name": "id",
          "type": "bytes32"
        }
      ],
      "name": "ChainlinkRequested",
      "type": "event"
    },
    {
      "anonymous": false,
      "inputs": [
        {
          "indexed": true,
          "internalType": "uint256",
          "name": "toAmount",
          "type": "uint256"
        }
      ],
      "name": "QuoteRegistered",
      "type": "event"
    },
    {
      "anonymous": false,
      "inputs": [
        {
          "components": [
            {
              "components": [
                {
                  "internalType": "address",
                  "name": "srcToken",
                  "type": "address"
                },
                {
                  "internalType": "address",
                  "name": "dstToken",
                  "type": "address"
                },
                {
                  "internalType": "uint256",
                  "name": "inAmount",
                  "type": "uint256"
                }
              ],
              "internalType": "struct SwapHelper.SwapInfo",
              "name": "swapInfo",
              "type": "tuple"
            },
            {
              "internalType": "uint256",
              "name": "outAmount",
              "type": "uint256"
            }
          ],
          "indexed": true,
          "internalType": "struct SwapHelper.QuoteInfo",
          "name": "_quoteBuffer",
          "type": "tuple"
        }
      ],
      "name": "QuoteSent",
      "type": "event"
    },
    {
      "anonymous": false,
      "inputs": [
        {
          "indexed": true,
          "internalType": "bytes32",
          "name": "role",
          "type": "bytes32"
        },
        {
          "indexed": true,
          "internalType": "bytes32",
          "name": "previousAdminRole",
          "type": "bytes32"
        },
        {
          "indexed": true,
          "internalType": "bytes32",
          "name": "newAdminRole",
          "type": "bytes32"
        }
      ],
      "name": "RoleAdminChanged",
      "type": "event"
    },
    {
      "anonymous": false,
      "inputs": [
        {
          "indexed": true,
          "internalType": "bytes32",
          "name": "role",
          "type": "bytes32"
        },
        {
          "indexed": true,
          "internalType": "address",
          "name": "account",
          "type": "address"
        },
        {
          "indexed": true,
          "internalType": "address",
          "name": "sender",
          "type": "address"
        }
      ],
      "name": "RoleGranted",
      "type": "event"
    },
    {
      "anonymous": false,
      "inputs": [
        {
          "indexed": true,
          "internalType": "bytes32",
          "name": "role",
          "type": "bytes32"
        },
        {
          "indexed": true,
          "internalType": "address",
          "name": "account",
          "type": "address"
        },
        {
          "indexed": true,
          "internalType": "address",
          "name": "sender",
          "type": "address"
        }
      ],
      "name": "RoleRevoked",
      "type": "event"
    },
    {
      "anonymous": false,
      "inputs": [
        {
          "indexed": true,
          "internalType": "enum SwapHelper.StrategistInterference",
          "name": "interference",
          "type": "uint8"
        }
      ],
      "name": "StrategistInterferred",
      "type": "event"
    },
    {
      "anonymous": false,
      "inputs": [
        {
          "components": [
            {
              "internalType": "address",
              "name": "srcToken",
              "type": "address"
            },
            {
              "internalType": "address",
              "name": "dstToken",
              "type": "address"
            },
            {
              "internalType": "uint256",
              "name": "inAmount",
              "type": "uint256"
            }
          ],
          "indexed": true,
          "internalType": "struct SwapHelper.SwapInfo",
          "name": "_swapBuffer",
          "type": "tuple"
        }
      ],
      "name": "SwapPerformed",
      "type": "event"
    },
    {
      "anonymous": false,
      "inputs": [
        {
          "indexed": true,
          "internalType": "bytes",
          "name": "swapCalldata",
          "type": "bytes"
        }
      ],
      "name": "SwapRegistered",
      "type": "event"
    },
    {
      "inputs": [],
      "name": "DEFAULT_ADMIN_ROLE",
      "outputs": [
        {
          "internalType": "bytes32",
          "name": "",
          "type": "bytes32"
        }
      ],
      "stateMutability": "view",
      "type": "function"
    },
    {
      "inputs": [],
      "name": "ONE_INCH_ETH_ADDRESS",
      "outputs": [
        {
          "internalType": "address",
          "name": "",
          "type": "address"
        }
      ],
      "stateMutability": "view",
      "type": "function"
    },
    {
      "inputs": [],
      "name": "QUOTE_AUTHORIZED_ROLE",
      "outputs": [
        {
          "internalType": "bytes32",
          "name": "",
          "type": "bytes32"
        }
      ],
      "stateMutability": "view",
      "type": "function"
    },
    {
      "inputs": [],
      "name": "STRATEGIST_ROLE",
      "outputs": [
        {
          "internalType": "bytes32",
          "name": "",
          "type": "bytes32"
        }
      ],
      "stateMutability": "view",
      "type": "function"
    },
    {
      "inputs": [],
      "name": "SWAP_AUTHORIZED_ROLE",
      "outputs": [
        {
          "internalType": "bytes32",
          "name": "",
          "type": "bytes32"
        }
      ],
      "stateMutability": "view",
      "type": "function"
    },
    {
      "inputs": [
        {
          "internalType": "address",
          "name": "subscriber",
          "type": "address"
        }
      ],
      "name": "addSubscriber",
      "outputs": [],
      "stateMutability": "nonpayable",
      "type": "function"
    },
    {
      "inputs": [],
      "name": "aggregationRouter",
      "outputs": [
        {
          "internalType": "address",
          "name": "",
          "type": "address"
        }
      ],
      "stateMutability": "view",
      "type": "function"
    },
    {
      "inputs": [],
      "name": "fulfillQuote",
      "outputs": [],
      "stateMutability": "nonpayable",
      "type": "function"
    },
    {
      "inputs": [],
      "name": "fulfillSwap",
      "outputs": [],
      "stateMutability": "nonpayable",
      "type": "function"
    },
    {
      "inputs": [
        {
          "internalType": "enum SwapHelper.JobPurpose",
          "name": "_purpose",
          "type": "uint8"
        }
      ],
      "name": "getFeeInHundredthsOfLink",
      "outputs": [
        {
          "internalType": "uint256",
          "name": "",
          "type": "uint256"
        }
      ],
      "stateMutability": "view",
      "type": "function"
    },
    {
      "inputs": [],
      "name": "getOracleAddress",
      "outputs": [
        {
          "internalType": "address",
          "name": "",
          "type": "address"
        }
      ],
      "stateMutability": "view",
      "type": "function"
    },
    {
      "inputs": [
        {
          "internalType": "bytes32",
          "name": "role",
          "type": "bytes32"
        }
      ],
      "name": "getRoleAdmin",
      "outputs": [
        {
          "internalType": "bytes32",
          "name": "",
          "type": "bytes32"
        }
      ],
      "stateMutability": "view",
      "type": "function"
    },
    {
      "inputs": [
        {
          "internalType": "bytes32",
          "name": "role",
          "type": "bytes32"
        },
        {
          "internalType": "address",
          "name": "account",
          "type": "address"
        }
      ],
      "name": "grantRole",
      "outputs": [],
      "stateMutability": "nonpayable",
      "type": "function"
    },
    {
      "inputs": [
        {
          "internalType": "bytes32",
          "name": "role",
          "type": "bytes32"
        },
        {
          "internalType": "address",
          "name": "account",
          "type": "address"
        }
      ],
      "name": "hasRole",
      "outputs": [
        {
          "internalType": "bool",
          "name": "",
          "type": "bool"
        }
      ],
      "stateMutability": "view",
      "type": "function"
    },
    {
      "inputs": [],
      "name": "isReadyToFulfillQuote",
      "outputs": [
        {
          "internalType": "bool",
          "name": "",
          "type": "bool"
        }
      ],
      "stateMutability": "view",
      "type": "function"
    },
    {
      "inputs": [],
      "name": "isReadyToFulfillSwap",
      "outputs": [
        {
          "internalType": "bool",
          "name": "",
          "type": "bool"
        }
      ],
      "stateMutability": "view",
      "type": "function"
    },
    {
      "inputs": [
        {
          "internalType": "uint256",
          "name": "",
          "type": "uint256"
        }
      ],
      "name": "jobInfos",
      "outputs": [
        {
          "internalType": "bytes32",
          "name": "jobId",
          "type": "bytes32"
        },
        {
          "internalType": "uint256",
          "name": "jobFeeInJuels",
          "type": "uint256"
        }
      ],
      "stateMutability": "view",
      "type": "function"
    },
    {
      "inputs": [],
      "name": "oracleAddress",
      "outputs": [
        {
          "internalType": "address",
          "name": "",
          "type": "address"
        }
      ],
      "stateMutability": "view",
      "type": "function"
    },
    {
      "inputs": [],
      "name": "quoteBuffer",
      "outputs": [
        {
          "components": [
            {
              "internalType": "address",
              "name": "srcToken",
              "type": "address"
            },
            {
              "internalType": "address",
              "name": "dstToken",
              "type": "address"
            },
            {
              "internalType": "uint256",
              "name": "inAmount",
              "type": "uint256"
            }
          ],
          "internalType": "struct SwapHelper.SwapInfo",
          "name": "swapInfo",
          "type": "tuple"
        },
        {
          "internalType": "uint256",
          "name": "outAmount",
          "type": "uint256"
        }
      ],
      "stateMutability": "view",
      "type": "function"
    },
    {
      "inputs": [
        {
          "internalType": "bytes32",
          "name": "requestId",
          "type": "bytes32"
        },
        {
          "internalType": "uint256",
          "name": "toAmount",
          "type": "uint256"
        }
      ],
      "name": "registerQuoteRequest",
      "outputs": [],
      "stateMutability": "nonpayable",
      "type": "function"
    },
    {
      "inputs": [
        {
          "internalType": "bytes32",
          "name": "requestId",
          "type": "bytes32"
        },
        {
          "internalType": "bytes",
          "name": "swapCalldata",
          "type": "bytes"
        }
      ],
      "name": "registerSwapCalldata",
      "outputs": [],
      "stateMutability": "nonpayable",
      "type": "function"
    },
    {
      "inputs": [
        {
          "internalType": "address",
          "name": "subscriber",
          "type": "address"
        }
      ],
      "name": "removeSubscriber",
      "outputs": [],
      "stateMutability": "nonpayable",
      "type": "function"
    },
    {
      "inputs": [
        {
          "internalType": "bytes32",
          "name": "role",
          "type": "bytes32"
        },
        {
          "internalType": "address",
          "name": "account",
          "type": "address"
        }
      ],
      "name": "renounceRole",
      "outputs": [],
      "stateMutability": "nonpayable",
      "type": "function"
    },
    {
      "inputs": [
        {
          "internalType": "address",
          "name": "src",
          "type": "address"
        },
        {
          "internalType": "address",
          "name": "dst",
          "type": "address"
        },
        {
          "internalType": "uint256",
          "name": "amount",
          "type": "uint256"
        }
      ],
      "name": "requestQuote",
      "outputs": [],
      "stateMutability": "nonpayable",
      "type": "function"
    },
    {
      "inputs": [
        {
          "internalType": "address",
          "name": "src",
          "type": "address"
        },
        {
          "internalType": "address",
          "name": "dst",
          "type": "address"
        },
        {
          "internalType": "uint256",
          "name": "amount",
          "type": "uint256"
        },
        {
          "internalType": "uint8",
          "name": "slippage",
          "type": "uint8"
        }
      ],
      "name": "requestSwap",
      "outputs": [],
      "stateMutability": "payable",
      "type": "function"
    },
    {
      "inputs": [
        {
          "internalType": "bytes32",
          "name": "role",
          "type": "bytes32"
        },
        {
          "internalType": "address",
          "name": "account",
          "type": "address"
        }
      ],
      "name": "revokeRole",
      "outputs": [],
      "stateMutability": "nonpayable",
      "type": "function"
    },
    {
      "inputs": [
        {
          "internalType": "enum SwapHelper.JobPurpose",
          "name": "_purpose",
          "type": "uint8"
        },
        {
          "internalType": "uint256",
          "name": "_feeInHundredthsOfLink",
          "type": "uint256"
        }
      ],
      "name": "setFeeInHundredthsOfLink",
      "outputs": [],
      "stateMutability": "nonpayable",
      "type": "function"
    },
    {
      "inputs": [
        {
          "internalType": "enum SwapHelper.JobPurpose",
          "name": "_purpose",
          "type": "uint8"
        },
        {
          "components": [
            {
              "internalType": "bytes32",
              "name": "jobId",
              "type": "bytes32"
            },
            {
              "internalType": "uint256",
              "name": "jobFeeInJuels",
              "type": "uint256"
            }
          ],
          "internalType": "struct SwapHelper.JobInfo",
          "name": "_info",
          "type": "tuple"
        }
      ],
      "name": "setJobInfo",
      "outputs": [],
      "stateMutability": "nonpayable",
      "type": "function"
    },
    {
      "inputs": [
        {
          "internalType": "address",
          "name": "_oracleAddress",
          "type": "address"
        }
      ],
      "name": "setOracleAddress",
      "outputs": [],
      "stateMutability": "nonpayable",
      "type": "function"
    },
    {
      "inputs": [
        {
          "internalType": "uint256",
          "name": "toAmount",
          "type": "uint256"
        }
      ],
      "name": "strategistFulfillQuote",
      "outputs": [],
      "stateMutability": "nonpayable",
      "type": "function"
    },
    {
      "inputs": [
        {
          "internalType": "bytes",
          "name": "_swapCalldata",
          "type": "bytes"
        }
      ],
      "name": "strategistFulfillSwap",
      "outputs": [],
      "stateMutability": "nonpayable",
      "type": "function"
    },
    {
      "inputs": [
        {
          "internalType": "uint256",
          "name": "subscriberIdx",
          "type": "uint256"
        }
      ],
      "name": "subscriberAt",
      "outputs": [
        {
          "internalType": "address",
          "name": "",
          "type": "address"
        }
      ],
      "stateMutability": "view",
      "type": "function"
    },
    {
      "inputs": [],
      "name": "subscribersLength",
      "outputs": [
        {
          "internalType": "uint256",
          "name": "",
          "type": "uint256"
        }
      ],
      "stateMutability": "view",
      "type": "function"
    },
    {
      "inputs": [
        {
          "internalType": "bytes4",
          "name": "interfaceId",
          "type": "bytes4"
        }
      ],
      "name": "supportsInterface",
      "outputs": [
        {
          "internalType": "bool",
          "name": "",
          "type": "bool"
        }
      ],
      "stateMutability": "view",
      "type": "function"
    },
    {
      "inputs": [],
      "name": "swapBuffer",
      "outputs": [
        {
          "internalType": "address",
          "name": "srcToken",
          "type": "address"
        },
        {
          "internalType": "address",
          "name": "dstToken",
          "type": "address"
        },
        {
          "internalType": "uint256",
          "name": "inAmount",
          "type": "uint256"
        }
      ],
      "stateMutability": "view",
      "type": "function"
    },
    {
      "inputs": [],
      "name": "withdrawLink",
      "outputs": [],
      "stateMutability": "nonpayable",
      "type": "function"
    },
    {
      "stateMutability": "payable",
      "type": "receive"
    }
  ],
  "bytecode": "0x60a060405260016005553480156200001657600080fd5b5060405162003c7038038062003c7083398101604081905262000039916200074c565b6200005460008051602062003c3083398151915288620001a7565b620000807f93627969d6ba3f2118f574a00f8d1c7fed4282f3728a455e8b3c867b1a1a212b88620001a7565b6200009b60008051602062003c5083398151915288620001a7565b600380546001600160a01b0319166001600160a01b038716179055620000c18462000230565b620000ee6000604051806040016040528085620000de906200083d565b815260006020909101526200027a565b620000fb60008a620002d2565b620001186001604051806040016040528086620000de906200083d565b62000125600189620002d2565b6001600160a01b03861660805260005b81518160ff16101562000197576200018260008051602062003c50833981519152838360ff16815181106200016e576200016e62000865565b6020026020010151620001a760201b60201c565b806200018e8162000891565b91505062000135565b50505050505050505050620009e4565b620001b3828262000341565b6200022c576000828152602081815260408083206001600160a01b03851684529091529020805460ff19166001179055620001eb3390565b6001600160a01b0316816001600160a01b0316837f2f8788117e7eff1d82e926ec794901d17c78024a50270940304540a733656f0d60405160405180910390a45b5050565b60008051602062003c308339815191526200024b816200036c565b600780546001600160a01b0384166001600160a01b031991821681179092556004805490911690911790555050565b60008051602062003c3083398151915262000295816200036c565b8160106000856001811115620002af57620002af620008b3565b815260208082019290925260400160002082518155910151600190910155505050565b60008051602062003c30833981519152620002ed816200036c565b606462000303670de0b6b3a764000084620008c9565b6200030f9190620008e3565b60106000856001811115620003285762000328620008b3565b8152602081019190915260400160002060010155505050565b6000828152602081815260408083206001600160a01b038516845290915290205460ff165b92915050565b6200037881336200037b565b50565b62000387828262000341565b6200022c576200039781620003e8565b620003a4836020620003fb565b604051602001620003b792919062000906565b60408051601f198184030181529082905262461bcd60e51b8252620003df916004016200097f565b60405180910390fd5b6060620003666001600160a01b03831660145b606060006200040c836002620008c9565b62000419906002620009b4565b6001600160401b03811115620004335762000433620005d8565b6040519080825280601f01601f1916602001820160405280156200045e576020820181803683370190505b509050600360fc1b816000815181106200047c576200047c62000865565b60200101906001600160f81b031916908160001a905350600f60fb1b81600181518110620004ae57620004ae62000865565b60200101906001600160f81b031916908160001a9053506000620004d4846002620008c9565b620004e1906001620009b4565b90505b600181111562000563576f181899199a1a9b1b9c1cb0b131b232b360811b85600f166010811062000519576200051962000865565b1a60f81b82828151811062000532576200053262000865565b60200101906001600160f81b031916908160001a90535060049490941c936200055b81620009ca565b9050620004e4565b508315620005b45760405162461bcd60e51b815260206004820181905260248201527f537472696e67733a20686578206c656e67746820696e73756666696369656e746044820152606401620003df565b9392505050565b80516001600160a01b0381168114620005d357600080fd5b919050565b634e487b7160e01b600052604160045260246000fd5b604051601f8201601f191681016001600160401b0381118282101715620006195762000619620005d8565b604052919050565b60005b838110156200063e57818101518382015260200162000624565b50506000910152565b600082601f8301126200065957600080fd5b81516001600160401b03811115620006755762000675620005d8565b6200068a601f8201601f1916602001620005ee565b818152846020838601011115620006a057600080fd5b620006b382602083016020870162000621565b949350505050565b600082601f830112620006cd57600080fd5b815160206001600160401b03821115620006eb57620006eb620005d8565b8160051b620006fc828201620005ee565b92835284810182019282810190878511156200071757600080fd5b83870192505b8483101562000741576200073183620005bb565b825291830191908301906200071d565b979650505050505050565b60008060008060008060008060006101208a8c0312156200076c57600080fd5b8951985060208a015197506200078560408b01620005bb565b96506200079560608b01620005bb565b9550620007a560808b01620005bb565b9450620007b560a08b01620005bb565b60c08b01519094506001600160401b0380821115620007d357600080fd5b620007e18d838e0162000647565b945060e08c0151915080821115620007f857600080fd5b620008068d838e0162000647565b93506101008c01519150808211156200081e57600080fd5b506200082d8c828d01620006bb565b9150509295985092959850929598565b805160208083015191908110156200085f576000198160200360031b1b821691505b50919050565b634e487b7160e01b600052603260045260246000fd5b634e487b7160e01b600052601160045260246000fd5b600060ff821660ff8103620008aa57620008aa6200087b565b60010192915050565b634e487b7160e01b600052602160045260246000fd5b80820281158282048414176200036657620003666200087b565b6000826200090157634e487b7160e01b600052601260045260246000fd5b500490565b7f416363657373436f6e74726f6c3a206163636f756e74200000000000000000008152600083516200094081601785016020880162000621565b7001034b99036b4b9b9b4b733903937b6329607d1b60179184019182015283516200097381602884016020880162000621565b01602801949350505050565b6020815260008251806020840152620009a081604085016020870162000621565b601f01601f19169190910160400192915050565b808201808211156200036657620003666200087b565b600081620009dc57620009dc6200087b565b506000190190565b60805161321462000a1c600039600081816106a801528181611295015281816113350152818161146b015261152c01526132146000f3fe6080604052600436106101a35760003560e01c806301a76f59146101af57806301ffc9a7146101d157806302458ad8146102065780631a5b420714610226578063248a9ca3146102465780632f2ff15d1461027457806336568abe146102945780634ab5c503146102b45780634c69c00f146102d45780634e0c6133146102f45780634e22e31e1461031657806350c284b314610336578063627c34ad1461035657806366b8455b146103765780636ccf5b011461038b57806381777a3d146103b85780638dc654a21461043257806391d148541461044757806394555d1a14610467578063a217fddf14610487578063a378a3241461049c578063a89ae4ba146104be578063aaeafd56146104de578063ab3c322d14610506578063b18b78dd14610525578063b6761cb81461053a578063be555a801461055a578063c0d2e37f1461057a578063d547741f14610594578063d9ff478f146105b4578063dc39b19a146105ee578063e05d6bf214610603578063e75d763f14610625578063eaad47b21461066e578063f09922ff14610683578063fcdfd9461461069657600080fd5b366101aa57005b600080fd5b3480156101bb57600080fd5b506101cf6101ca3660046126c9565b6106ca565b005b3480156101dd57600080fd5b506101f16101ec3660046126fd565b61074b565b60405190151581526020015b60405180910390f35b34801561021257600080fd5b506101cf610221366004612727565b610782565b34801561023257600080fd5b506101cf610241366004612789565b610851565b34801561025257600080fd5b506102666102613660046127c5565b610a1c565b6040519081526020016101fd565b34801561028057600080fd5b506101cf61028f3660046127de565b610a31565b3480156102a057600080fd5b506101cf6102af3660046127de565b610a52565b3480156102c057600080fd5b506101cf6102cf366004612819565b610ad0565b3480156102e057600080fd5b506101cf6102ef366004612843565b610b35565b34801561030057600080fd5b506102666000805160206131bf83398151915281565b34801561032257600080fd5b506101cf61033136600461285e565b610b7b565b34801561034257600080fd5b506101cf6103513660046127c5565b610c16565b34801561036257600080fd5b506101cf610371366004612843565b610c66565b34801561038257600080fd5b50610266610ca6565b34801561039757600080fd5b506103ab6103a63660046127c5565b610cb7565b6040516101fd9190612880565b3480156103c457600080fd5b50604080516060810182526008546001600160a01b039081168252600954166020820152600a5491810191909152600b546103fd919082565b6040805183516001600160a01b03908116825260208086015190911690820152928101519083015260608201526080016101fd565b34801561043e57600080fd5b506101cf610cc4565b34801561045357600080fd5b506101f16104623660046127de565b610dec565b34801561047357600080fd5b506101cf610482366004612843565b610e15565b34801561049357600080fd5b50610266600081565b3480156104a857600080fd5b5061026660008051602061317f83398151915281565b3480156104ca57600080fd5b506007546103ab906001600160a01b031681565b3480156104ea57600080fd5b506103ab73eeeeeeeeeeeeeeeeeeeeeeeeeeeeeeeeeeeeeeee81565b34801561051257600080fd5b50600f546101f190610100900460ff1681565b34801561053157600080fd5b506103ab610e55565b34801561054657600080fd5b50610266610555366004612894565b610e80565b34801561056657600080fd5b506101cf6105753660046128af565b610eea565b34801561058657600080fd5b50600f546101f19060ff1681565b3480156105a057600080fd5b506101cf6105af3660046127de565b610f3c565b3480156105c057600080fd5b50600c54600d54600e546105df926001600160a01b0390811692169083565b6040516101fd93929190612921565b3480156105fa57600080fd5b506101cf610f58565b34801561060f57600080fd5b506102666000805160206130f683398151915281565b34801561063157600080fd5b506106596106403660046127c5565b6010602052600090815260409020805460019091015482565b604080519283526020830191909152016101fd565b34801561067a57600080fd5b506101cf610fae565b6101cf610691366004612945565b610ffe565b3480156106a257600080fd5b506103ab7f000000000000000000000000000000000000000000000000000000000000000081565b60008051602061317f8339815191526106e28161120b565b600f805460ff1916905560116106f88382612a14565b50600c54600e54610713916001600160a01b03169033611218565b61071b6113ac565b60015b6040517ffc252eeb655ad1aa88173ff876f64057c196504c7d3819259257f95c7f05b71090600090a25050565b60006001600160e01b03198216637965db0b60e01b148061077c57506301ffc9a760e01b6001600160e01b03198316145b92915050565b60008281526006602052604090205482906001600160a01b031633146107c35760405162461bcd60e51b81526004016107ba90612ae9565b60405180910390fd5b60008181526006602052604080822080546001600160a01b031916905551829160008051602061319f83398151915291a260116108008382612a14565b50600f805460ff1916600117905560405161081c908390612b71565b604051908190038120907fa6b78fc047486d5add927aa53ba0d4fc8eb23a5811e0052aebeba21469f51df890600090a2505050565b6000805160206130f68339815191526108698161120b565b600f805461ff0019169055600080805260106020527f6e0956cda88cad152e89927e53611735b61a5c762d1428573c6931b0a5efcb01546108b190632711718f60e11b6115a5565b9050610901604051806040016040528060068152602001651b595d1a1bd960d21b8152506040518060400160405280600381526020016211d15560ea1b815250836115c99092919063ffffffff16565b610965604051806040016040528060038152602001621d5c9b60ea1b815250610929876115e7565b610932876115e7565b61093b876115fd565b60405160200161094d93929190612b8d565b60408051601f198184030181529190528391906115c9565b6109be6040518060400160405280600781526020016618dbdb9d1858dd60ca1b8152506040518060400160405280600d81526020016c6c6f6375732d66696e616e636560981b815250836115c99092919063ffffffff16565b600880546001600160a01b038088166001600160a01b0319928316179092556009805492871692909116919091179055600a839055610a148160106000805b81526020019081526020016000206001015461168f565b505050505050565b60009081526020819052604090206001015490565b610a3a82610a1c565b610a438161120b565b610a4d83836116b0565b505050565b6001600160a01b0381163314610ac25760405162461bcd60e51b815260206004820152602f60248201527f416363657373436f6e74726f6c3a2063616e206f6e6c792072656e6f756e636560448201526e103937b632b9903337b91039b2b63360891b60648201526084016107ba565b610acc8282611734565b5050565b60008051602061317f833981519152610ae88161120b565b6064610afc670de0b6b3a764000084612c39565b610b069190612c66565b60106000856001811115610b1c57610b1c612ad3565b8152602081019190915260400160002060010155505050565b60008051602061317f833981519152610b4d8161120b565b50600780546001600160a01b03929092166001600160a01b0319928316811790915560048054909216179055565b60008281526006602052604090205482906001600160a01b03163314610bb35760405162461bcd60e51b81526004016107ba90612ae9565b60008181526006602052604080822080546001600160a01b031916905551829160008051602061319f83398151915291a2600b829055600f805461ff001916610100179055604051829060008051602061311683398151915290600090a2505050565b60008051602061317f833981519152610c2e8161120b565b600f805461ff0019169055600b829055604051829060008051602061311683398151915290600090a2610c5f611799565b600061071e565b60008051602061317f833981519152610c7e8161120b565b610c8960128361188f565b610acc576040516306e971bb60e31b815260040160405180910390fd5b6000610cb260126118a4565b905090565b600061077c6012836118ae565b60008051602061317f833981519152610cdc8161120b565b6000610cf06003546001600160a01b031690565b90506001600160a01b03811663a9059cbb336040516370a0823160e01b81526001600160a01b038516906370a0823190610d2e903090600401612880565b602060405180830381865afa158015610d4b573d6000803e3d6000fd5b505050506040513d601f19601f82011682018060405250810190610d6f9190612c7a565b6040518363ffffffff1660e01b8152600401610d8c929190612c93565b6020604051808303816000875af1158015610dab573d6000803e3d6000fd5b505050506040513d601f19601f82011682018060405250810190610dcf9190612cac565b610acc576040516313ff771f60e21b815260040160405180910390fd5b6000918252602082815260408084206001600160a01b0393909316845291905290205460ff1690565b60008051602061317f833981519152610e2d8161120b565b610e386012836118ba565b610acc576040516305c46f6760e31b815260040160405180910390fd5b600060008051602061317f833981519152610e6f8161120b565b50506007546001600160a01b031690565b600060008051602061317f833981519152610e9a8161120b565b670de0b6b3a764000060106000856001811115610eb957610eb9612ad3565b8152602001908152602001600020600101546064610ed79190612c39565b610ee19190612c66565b91505b50919050565b60008051602061317f833981519152610f028161120b565b8160106000856001811115610f1957610f19612ad3565b815260208082019290925260400160002082518155910151600190910155505050565b610f4582610a1c565b610f4e8161120b565b610a4d8383611734565b6000805160206130f6833981519152610f708161120b565b600f54610100900460ff16610f9857604051636cb45f1560e11b815260040160405180910390fd5b610fa0611799565b50600f805461ff0019169055565b6000805160206131bf833981519152610fc68161120b565b600f5460ff16610fe957604051637d683d5360e01b815260040160405180910390fd5b610ff16113ac565b50600f805460ff19169055565b6000805160206131bf8339815191526110168161120b565b60328260ff16111561103b576040516336ee37fb60e21b815260040160405180910390fd5b600f805460ff1916905533611051868583611218565b6001600090815260106020527f8c6065603763fec3f5742441d3833f3f43b982453612d76adb39a885e3006b5f5461108f906248b15b60e31b6115a5565b90506110df604051806040016040528060068152602001651b595d1a1bd960d21b8152506040518060400160405280600381526020016211d15560ea1b815250836115c99092919063ffffffff16565b61114c604051806040016040528060038152602001621d5c9b60ea1b815250611107896115e7565b611110896115e7565b611119896115fd565b611122306115e7565b61112e8a60ff166115fd565b611137896115e7565b60405160200161094d96959493929190612cce565b6111a56040518060400160405280600781526020016618dbdb9d1858dd60ca1b8152506040518060400160405280600d81526020016c6c6f6375732d66696e616e636560981b815250836115c99092919063ffffffff16565b604080516060810182526001600160a01b03808a168083529089166020830181905291909201879052600c80546001600160a01b03199081169093179055600d8054909216179055600e859055611201816010600060016109fd565b5050505050505050565b61121581336118cf565b50565b8273eeeeeeeeeeeeeeeeeeeeeeeeeeeeeeeeeeeeeeed196001600160a01b038216016112635782341461125e57604051630dd86f5360e11b815260040160405180910390fd5b6113a6565b6112786001600160a01b038216833086611928565b604051636eb1769f60e11b81523060048201526001600160a01b037f00000000000000000000000000000000000000000000000000000000000000008116602483015284919083169063dd62ed3e90604401602060405180830381865afa1580156112e7573d6000803e3d6000fd5b505050506040513d601f19601f8201168201806040525081019061130b9190612c7a565b10156113a65760405163095ea7b360e01b81526001600160a01b0382169063095ea7b390611361907f00000000000000000000000000000000000000000000000000000000000000009060001990600401612c93565b6020604051808303816000875af1158015611380573d6000803e3d6000fd5b505050506040513d601f19601f820116820180604052508101906113a49190612cac565b505b50505050565b600c546001600160a01b031673eeeeeeeeeeeeeeeeeeeeeeeeeeeeeeeeeeeeeeed190161149c57611496601180546113e39061299a565b80601f016020809104026020016040519081016040528092919081815260200182805461140f9061299a565b801561145c5780601f106114315761010080835404028352916020019161145c565b820191906000526020600020905b81548152906001019060200180831161143f57829003601f168201915b5050600e546001600160a01b037f000000000000000000000000000000000000000000000000000000000000000016949350915050611980565b50611564565b611562601180546114ac9061299a565b80601f01602080910402602001604051908101604052809291908181526020018280546114d89061299a565b80156115255780601f106114fa57610100808354040283529160200191611525565b820191906000526020600020905b81548152906001019060200180831161150857829003601f168201915b50505050507f00000000000000000000000000000000000000000000000000000000000000006001600160a01b03166119a690919063ffffffff16565b505b600c6040516115739190612e1b565b604051908190038120907f098d3af501ac55740f44cc3d45b38cd162e715bd76ae2ec1704db9bcf19df52890600090a2565b6115ad6125d8565b6115b56125d8565b6115c1818530866119ea565b949350505050565b60808301516115d89083611a27565b6080830151610a4d9082611a27565b606061077c6001600160a01b0383166014611a3e565b6060600061160a83611bd9565b60010190506000816001600160401b0381111561162957611629612627565b6040519080825280601f01601f191660200182016040528015611653576020820181803683370190505b5090508181016020015b600019016f181899199a1a9b1b9c1cb0b131b232b360811b600a86061a8153600a850494508461165d57509392505050565b6004546000906116a9906001600160a01b03168484611caf565b9392505050565b6116ba8282610dec565b610acc576000828152602081815260408083206001600160a01b03851684529091529020805460ff191660011790556116f03390565b6001600160a01b0316816001600160a01b0316837f2f8788117e7eff1d82e926ec794901d17c78024a50270940304540a733656f0d60405160405180910390a45050565b61173e8282610dec565b15610acc576000828152602081815260408083206001600160a01b0385168085529252808320805460ff1916905551339285917ff6391f5c32d9c69d2a47ea670b442974b53935d1edc7fd64eb21e047a839171b9190a45050565b60006117a560126118a4565b905060005b8181101561184c576117bd6012826118ae565b600854600954600b54600a5460405163b91dc4bb60e01b81526001600160a01b03948516600482015292841660248401526044830191909152606482015291169063b91dc4bb90608401600060405180830381600087803b15801561182157600080fd5b505af1158015611835573d6000803e3d6000fd5b50505050808061184490612e2d565b9150506117aa565b50600860405161185c9190612e46565b604051908190038120907fa8e5b3954602a050e4fd58bfdb4679c92cdf00addead6c0178ced776602ed45290600090a250565b60006116a9836001600160a01b038416611d40565b600061077c825490565b60006116a98383611e33565b60006116a9836001600160a01b038416611e5d565b6118d98282610dec565b610acc576118e6816115e7565b6118f1836020611a3e565b604051602001611902929190612e62565b60408051601f198184030181529082905262461bcd60e51b82526107ba91600401612efd565b6113a6846323b872dd60e01b85858560405160240161194993929190612921565b60408051601f198184030181529190526020810180516001600160e01b03166001600160e01b031990931692909217909152611eac565b60606115c184848460405180606001604052806029815260200161313660299139611f81565b60606116a9838360006040518060400160405280601e81526020017f416464726573733a206c6f772d6c6576656c2063616c6c206661696c65640000815250611f81565b6119f26125d8565b611a02856080015161010061205c565b50509183526001600160a01b031660208301526001600160e01b031916604082015290565b611a3482600383516120b4565b610a4d82826121bb565b60606000611a4d836002612c39565b611a58906002612f10565b6001600160401b03811115611a6f57611a6f612627565b6040519080825280601f01601f191660200182016040528015611a99576020820181803683370190505b509050600360fc1b81600081518110611ab457611ab4612f23565b60200101906001600160f81b031916908160001a905350600f60fb1b81600181518110611ae357611ae3612f23565b60200101906001600160f81b031916908160001a9053506000611b07846002612c39565b611b12906001612f10565b90505b6001811115611b8a576f181899199a1a9b1b9c1cb0b131b232b360811b85600f1660108110611b4657611b46612f23565b1a60f81b828281518110611b5c57611b5c612f23565b60200101906001600160f81b031916908160001a90535060049490941c93611b8381612f39565b9050611b15565b5083156116a95760405162461bcd60e51b815260206004820181905260248201527f537472696e67733a20686578206c656e67746820696e73756666696369656e7460448201526064016107ba565b60008072184f03e93ff9f4daa797ed6e38ed64bf6a1f0160401b8310611c185772184f03e93ff9f4daa797ed6e38ed64bf6a1f0160401b830492506040015b6904ee2d6d415b85acef8160201b8310611c42576904ee2d6d415b85acef8160201b830492506020015b662386f26fc100008310611c6057662386f26fc10000830492506010015b6305f5e1008310611c78576305f5e100830492506008015b6127108310611c8c57612710830492506004015b60648310611c9e576064830492506002015b600a831061077c5760010192915050565b600554600090611cc0816001612f10565b60055583516040808601516080870151519151600093633c6d41b960e01b93611cf6938693849392899160029190602401612f50565b60408051601f198184030181529190526020810180516001600160e01b03166001600160e01b0319909316929092179091529050611d36868386846121d5565b9695505050505050565b60008181526001830160205260408120548015611e29576000611d64600183612f98565b8554909150600090611d7890600190612f98565b9050818114611ddd576000866000018281548110611d9857611d98612f23565b9060005260206000200154905080876000018481548110611dbb57611dbb612f23565b6000918252602080832090910192909255918252600188019052604090208390555b8554869080611dee57611dee612fab565b60019003818190600052602060002001600090559055856001016000868152602001908152602001600020600090556001935050505061077c565b600091505061077c565b6000826000018281548110611e4a57611e4a612f23565b9060005260206000200154905092915050565b6000818152600183016020526040812054611ea45750815460018181018455600084815260208082209093018490558454848252828601909352604090209190915561077c565b50600061077c565b6000611f01826040518060400160405280602081526020017f5361666545524332303a206c6f772d6c6576656c2063616c6c206661696c6564815250856001600160a01b031661232e9092919063ffffffff16565b9050805160001480611f22575080806020019051810190611f229190612cac565b610a4d5760405162461bcd60e51b815260206004820152602a60248201527f5361666545524332303a204552433230206f7065726174696f6e20646964206e6044820152691bdd081cdd58d8d9595960b21b60648201526084016107ba565b606082471015611fe25760405162461bcd60e51b815260206004820152602660248201527f416464726573733a20696e73756666696369656e742062616c616e636520666f6044820152651c8818d85b1b60d21b60648201526084016107ba565b600080866001600160a01b03168587604051611ffe9190612b71565b60006040518083038185875af1925050503d806000811461203b576040519150601f19603f3d011682016040523d82523d6000602084013e612040565b606091505b50915091506120518783838761233d565b979650505050505050565b61206461260d565b61206f602083612fc1565b156120975761207f602083612fc1565b61208a906020612f98565b6120949083612f10565b91505b506020828101829052604080518085526000815290920101905290565b6017816001600160401b0316116120d8576113a68360e0600585901b1683176123b6565b60ff816001600160401b031611612114576120fe836018611fe0600586901b16176123b6565b506113a6836001600160401b03831660016123ce565b61ffff816001600160401b0316116121515761213b836019611fe0600586901b16176123b6565b506113a6836001600160401b03831660026123ce565b63ffffffff816001600160401b0316116121905761217a83601a611fe0600586901b16176123b6565b506113a6836001600160401b03831660046123ce565b6121a583601b611fe0600586901b16176123b6565b506113a6836001600160401b03831660086123ce565b6121c361260d565b6116a9838460000151518485516123e7565b6040516001600160601b03193060601b1660208201526034810184905260009060540160408051808303601f1901815282825280516020918201206000818152600690925291812080546001600160a01b0319166001600160a01b038a1617905590925082917fb5e6e01e79f91267dc17b4e6314d5d4d03593d2ceee0fbb452b750bd70ea5af99190a2600354604051630200057560e51b81526001600160a01b0390911690634000aea09061229390889087908790600401612fd5565b6020604051808303816000875af11580156122b2573d6000803e3d6000fd5b505050506040513d601f19601f820116820180604052508101906122d69190612cac565b6115c15760405162461bcd60e51b815260206004820152602360248201527f756e61626c6520746f207472616e73666572416e6443616c6c20746f206f7261604482015262636c6560e81b60648201526084016107ba565b60606115c18484600085611f81565b606083156123ac5782516000036123a5576001600160a01b0385163b6123a55760405162461bcd60e51b815260206004820152601d60248201527f416464726573733a2063616c6c20746f206e6f6e2d636f6e747261637400000060448201526064016107ba565b50816115c1565b6115c183836124c4565b6123be61260d565b6116a983846000015151846124ee565b6123d661260d565b6115c184856000015151858561253c565b6123ef61260d565b82518211156123fd57600080fd5b602085015161240c8386612f10565b111561243f5761243f8561242f8760200151878661242a9190612f10565b6125b0565b61243a906002612c39565b6125c1565b60008086518051876020830101935080888701111561245e5787860182525b505050602084015b6020841061249e578051825261247d602083612f10565b915061248a602082612f10565b9050612497602085612f98565b9350612466565b51815160001960208690036101000a019081169019919091161790525083949350505050565b8151156124d45781518083602001fd5b8060405162461bcd60e51b81526004016107ba9190612efd565b6124f661260d565b8360200151831061251657612516848560200151600261243a9190612c39565b8351805160208583010184815350808503612532576001810182525b5093949350505050565b61254461260d565b60208501516125538584612f10565b1115612567576125678561242f8685612f10565b60006001612577846101006130e9565b6125819190612f98565b90508551838682010185831982511617815250805184870111156125a55783860181525b509495945050505050565b600081831115610ee457508161077c565b81516125cd838361205c565b506113a683826121bb565b6040805160a08101825260008082526020820181905291810182905260608101919091526080810161260861260d565b905290565b604051806040016040528060608152602001600081525090565b634e487b7160e01b600052604160045260246000fd5b600082601f83011261264e57600080fd5b81356001600160401b038082111561266857612668612627565b604051601f8301601f19908116603f0116810190828211818310171561269057612690612627565b816040528381528660208588010111156126a957600080fd5b836020870160208301376000602085830101528094505050505092915050565b6000602082840312156126db57600080fd5b81356001600160401b038111156126f157600080fd5b6115c18482850161263d565b60006020828403121561270f57600080fd5b81356001600160e01b0319811681146116a957600080fd5b6000806040838503121561273a57600080fd5b8235915060208301356001600160401b0381111561275757600080fd5b6127638582860161263d565b9150509250929050565b80356001600160a01b038116811461278457600080fd5b919050565b60008060006060848603121561279e57600080fd5b6127a78461276d565b92506127b56020850161276d565b9150604084013590509250925092565b6000602082840312156127d757600080fd5b5035919050565b600080604083850312156127f157600080fd5b823591506128016020840161276d565b90509250929050565b80356002811061278457600080fd5b6000806040838503121561282c57600080fd5b6128358361280a565b946020939093013593505050565b60006020828403121561285557600080fd5b6116a98261276d565b6000806040838503121561287157600080fd5b50508035926020909101359150565b6001600160a01b0391909116815260200190565b6000602082840312156128a657600080fd5b6116a98261280a565b60008082840360608112156128c357600080fd5b6128cc8461280a565b92506040601f19820112156128e057600080fd5b50604080519081016001600160401b038111828210171561290357612903612627565b60409081526020858101358352940135938101939093525092909150565b6001600160a01b039384168152919092166020820152604081019190915260600190565b6000806000806080858703121561295b57600080fd5b6129648561276d565b93506129726020860161276d565b925060408501359150606085013560ff8116811461298f57600080fd5b939692955090935050565b600181811c908216806129ae57607f821691505b602082108103610ee457634e487b7160e01b600052602260045260246000fd5b601f821115610a4d57600081815260208120601f850160051c810160208610156129f55750805b601f850160051c820191505b81811015610a1457828155600101612a01565b81516001600160401b03811115612a2d57612a2d612627565b612a4181612a3b845461299a565b846129ce565b602080601f831160018114612a765760008415612a5e5750858301515b600019600386901b1c1916600185901b178555610a14565b600085815260208120601f198616915b82811015612aa557888601518255948401946001909101908401612a86565b5085821015612ac35787850151600019600388901b60f8161c191681555b5050505050600190811b01905550565b634e487b7160e01b600052602160045260246000fd5b60208082526028908201527f536f75726365206d75737420626520746865206f7261636c65206f6620746865604082015267081c995c5d595cdd60c21b606082015260800190565b60005b83811015612b4c578181015183820152602001612b34565b50506000910152565b60008151612b67818560208601612b31565b9290920192915050565b60008251612b83818460208701612b31565b9190910192915050565b60008051602061315f83398151915281526b312f71756f74653f7372633d60a01b602082015260008451612bc881602c850160208901612b31565b64266473743d60d81b602c918401918201528451612bed816031840160208901612b31565b6726616d6f756e743d60c01b603192909101918201528351612c16816039840160208801612b31565b0160390195945050505050565b634e487b7160e01b600052601160045260246000fd5b808202811582820484141761077c5761077c612c23565b634e487b7160e01b600052601260045260246000fd5b600082612c7557612c75612c50565b500490565b600060208284031215612c8c57600080fd5b5051919050565b6001600160a01b03929092168252602082015260400190565b600060208284031215612cbe57600080fd5b815180151581146116a957600080fd5b60008051602061315f83398151915281526a312f737761703f7372633d60a81b602082015260008751612d0881602b850160208c01612b31565b64266473743d60d81b602b918401918201528751612d2d816030840160208c01612b31565b6726616d6f756e743d60c01b603092909101918201528651612d56816038840160208b01612b31565b652666726f6d3d60d01b603892909101918201528551612d7d81603e840160208a01612b31565b6926736c6970706167653d60b01b603e9290910191820152612de8612dc7612dc1612dab6048850189612b55565b692672656365697665723d60b01b8152600a0190565b86612b55565b742664697361626c65457374696d6174653d7472756560581b815260150190565b9998505050505050505050565b80546001600160a01b039081168352600182015416602083015260020154604090910152565b612e258183612df5565b606001919050565b600060018201612e3f57612e3f612c23565b5060010190565b612e508183612df5565b60039190910154606082015260800190565b76020b1b1b2b9b9a1b7b73a3937b61d1030b1b1b7bab73a1604d1b815260008351612e94816017850160208801612b31565b7001034b99036b4b9b9b4b733903937b6329607d1b6017918401918201528351612ec5816028840160208801612b31565b01602801949350505050565b60008151808452612ee9816020860160208601612b31565b601f01601f19169290920160200192915050565b6020815260006116a96020830184612ed1565b8082018082111561077c5761077c612c23565b634e487b7160e01b600052603260045260246000fd5b600081612f4857612f48612c23565b506000190190565b60018060a01b038816815286602082015285604082015263ffffffff60e01b851660608201528360808201528260a082015260e060c08201526000612de860e0830184612ed1565b8181038181111561077c5761077c612c23565b634e487b7160e01b600052603160045260246000fd5b600082612fd057612fd0612c50565b500690565b60018060a01b0384168152826020820152606060408201526000612ffc6060830184612ed1565b95945050505050565b600181815b8085111561304057816000190482111561302657613026612c23565b8085161561303357918102915b93841c939080029061300a565b509250929050565b6000826130575750600161077c565b816130645750600061077c565b816001811461307a5760028114613084576130a0565b600191505061077c565b60ff84111561309557613095612c23565b50506001821b61077c565b5060208310610133831016604e8410600b84101617156130c3575081810a61077c565b6130cd8383613005565b80600019048211156130e1576130e1612c23565b029392505050565b60006116a9838361304856fe93627969d6ba3f2118f574a00f8d1c7fed4282f3728a455e8b3c867b1a1a212bb6904e5f1b44229e5609b681fbc2512409afa3e5a9072d0314256c012668dbe4416464726573733a206c6f772d6c6576656c2063616c6c20776974682076616c7565206661696c656468747470733a2f2f6170692e31696e63682e6465762f737761702f76352e322f17a8e30262c1f919c33056d877a3c22b95c2f5e4dac44683c1c2323cd79fbdb07cc135e0cebb02c3480ae5d74d377283180a2601f8f644edf7987b009316c63afab00a984754950c7187fb98f39da0ae224abbbee017c1699445ad0e19474a4da2646970667358221220dd35378cf1dd878af22966bf72ce74c263211e4f8458bb7315baf55dc973c49364736f6c6343000813003317a8e30262c1f919c33056d877a3c22b95c2f5e4dac44683c1c2323cd79fbdb0fab00a984754950c7187fb98f39da0ae224abbbee017c1699445ad0e19474a4d",
  "linkReferences": {},
  "deployedLinkReferences": {}
}