{
  "_format": "hh-sol-artifact-1",
  "contractName": "SwapHelper",
  "sourceName": "contracts/utils/SwapHelper.sol",
  "abi": [
    {
      "inputs": [
        {
          "internalType": "uint256",
          "name": "_quoteJobFee",
          "type": "uint256"
        },
        {
          "internalType": "uint256",
          "name": "_swapCalldataJobFee",
          "type": "uint256"
        },
        {
          "internalType": "address",
          "name": "_strategist",
          "type": "address"
        },
        {
          "internalType": "address",
          "name": "_aggregationRouter",
          "type": "address"
        },
        {
          "internalType": "address",
          "name": "chainlinkTokenAddress",
          "type": "address"
        },
        {
          "internalType": "address",
          "name": "chainlinkOracleAddress",
          "type": "address"
        },
        {
          "internalType": "string",
          "name": "_swapCalldataJobId",
          "type": "string"
        },
        {
          "internalType": "string",
          "name": "_quoteJobId",
          "type": "string"
        },
        {
          "internalType": "address[]",
          "name": "authorizedToSwap",
          "type": "address[]"
        }
      ],
      "stateMutability": "nonpayable",
      "type": "constructor"
    },
    {
      "inputs": [],
      "name": "CannotAddSubscriber",
      "type": "error"
    },
    {
      "inputs": [],
      "name": "CannotRemoveSubscriber",
      "type": "error"
    },
    {
      "inputs": [],
      "name": "NotEnoughNativeTokensSent",
      "type": "error"
    },
    {
      "inputs": [],
      "name": "QuoteOperationIsNotReady",
      "type": "error"
    },
    {
      "inputs": [],
      "name": "SlippageIsTooBig",
      "type": "error"
    },
    {
      "inputs": [],
      "name": "SwapOperationIsNotReady",
      "type": "error"
    },
    {
      "inputs": [],
      "name": "TransferError",
      "type": "error"
    },
    {
      "anonymous": false,
      "inputs": [
        {
          "indexed": true,
          "internalType": "bytes32",
          "name": "id",
          "type": "bytes32"
        }
      ],
      "name": "ChainlinkCancelled",
      "type": "event"
    },
    {
      "anonymous": false,
      "inputs": [
        {
          "indexed": true,
          "internalType": "bytes32",
          "name": "id",
          "type": "bytes32"
        }
      ],
      "name": "ChainlinkFulfilled",
      "type": "event"
    },
    {
      "anonymous": false,
      "inputs": [
        {
          "indexed": true,
          "internalType": "bytes32",
          "name": "id",
          "type": "bytes32"
        }
      ],
      "name": "ChainlinkRequested",
      "type": "event"
    },
    {
      "anonymous": false,
      "inputs": [
        {
          "indexed": true,
          "internalType": "uint256",
          "name": "toAmount",
          "type": "uint256"
        }
      ],
      "name": "QuoteRegistered",
      "type": "event"
    },
    {
      "anonymous": false,
      "inputs": [
        {
          "components": [
            {
              "components": [
                {
                  "internalType": "address",
                  "name": "srcToken",
                  "type": "address"
                },
                {
                  "internalType": "address",
                  "name": "dstToken",
                  "type": "address"
                },
                {
                  "internalType": "uint256",
                  "name": "inAmount",
                  "type": "uint256"
                }
              ],
              "internalType": "struct SwapHelper.SwapInfo",
              "name": "swapInfo",
              "type": "tuple"
            },
            {
              "internalType": "uint256",
              "name": "outAmount",
              "type": "uint256"
            }
          ],
          "indexed": true,
          "internalType": "struct SwapHelper.QuoteInfo",
          "name": "_quoteBuffer",
          "type": "tuple"
        }
      ],
      "name": "QuoteSent",
      "type": "event"
    },
    {
      "anonymous": false,
      "inputs": [
        {
          "indexed": true,
          "internalType": "bytes32",
          "name": "role",
          "type": "bytes32"
        },
        {
          "indexed": true,
          "internalType": "bytes32",
          "name": "previousAdminRole",
          "type": "bytes32"
        },
        {
          "indexed": true,
          "internalType": "bytes32",
          "name": "newAdminRole",
          "type": "bytes32"
        }
      ],
      "name": "RoleAdminChanged",
      "type": "event"
    },
    {
      "anonymous": false,
      "inputs": [
        {
          "indexed": true,
          "internalType": "bytes32",
          "name": "role",
          "type": "bytes32"
        },
        {
          "indexed": true,
          "internalType": "address",
          "name": "account",
          "type": "address"
        },
        {
          "indexed": true,
          "internalType": "address",
          "name": "sender",
          "type": "address"
        }
      ],
      "name": "RoleGranted",
      "type": "event"
    },
    {
      "anonymous": false,
      "inputs": [
        {
          "indexed": true,
          "internalType": "bytes32",
          "name": "role",
          "type": "bytes32"
        },
        {
          "indexed": true,
          "internalType": "address",
          "name": "account",
          "type": "address"
        },
        {
          "indexed": true,
          "internalType": "address",
          "name": "sender",
          "type": "address"
        }
      ],
      "name": "RoleRevoked",
      "type": "event"
    },
    {
      "anonymous": false,
      "inputs": [
        {
          "indexed": true,
          "internalType": "enum SwapHelper.StrategistInterference",
          "name": "interference",
          "type": "uint8"
        }
      ],
      "name": "StrategistInterferred",
      "type": "event"
    },
    {
      "anonymous": false,
      "inputs": [
        {
          "components": [
            {
              "internalType": "address",
              "name": "srcToken",
              "type": "address"
            },
            {
              "internalType": "address",
              "name": "dstToken",
              "type": "address"
            },
            {
              "internalType": "uint256",
              "name": "inAmount",
              "type": "uint256"
            }
          ],
          "indexed": true,
          "internalType": "struct SwapHelper.SwapInfo",
          "name": "_swapBuffer",
          "type": "tuple"
        }
      ],
      "name": "SwapPerformed",
      "type": "event"
    },
    {
      "anonymous": false,
      "inputs": [
        {
          "indexed": true,
          "internalType": "bytes",
          "name": "swapCalldata",
          "type": "bytes"
        }
      ],
      "name": "SwapRegistered",
      "type": "event"
    },
    {
      "inputs": [],
      "name": "DEFAULT_ADMIN_ROLE",
      "outputs": [
        {
          "internalType": "bytes32",
          "name": "",
          "type": "bytes32"
        }
      ],
      "stateMutability": "view",
      "type": "function"
    },
    {
      "inputs": [],
      "name": "ONE_INCH_ETH_ADDRESS",
      "outputs": [
        {
          "internalType": "address",
          "name": "",
          "type": "address"
        }
      ],
      "stateMutability": "view",
      "type": "function"
    },
    {
      "inputs": [],
      "name": "QUOTE_AUTHORIZED_ROLE",
      "outputs": [
        {
          "internalType": "bytes32",
          "name": "",
          "type": "bytes32"
        }
      ],
      "stateMutability": "view",
      "type": "function"
    },
    {
      "inputs": [],
      "name": "STRATEGIST_ROLE",
      "outputs": [
        {
          "internalType": "bytes32",
          "name": "",
          "type": "bytes32"
        }
      ],
      "stateMutability": "view",
      "type": "function"
    },
    {
      "inputs": [],
      "name": "SWAP_AUTHORIZED_ROLE",
      "outputs": [
        {
          "internalType": "bytes32",
          "name": "",
          "type": "bytes32"
        }
      ],
      "stateMutability": "view",
      "type": "function"
    },
    {
      "inputs": [
        {
          "internalType": "address",
          "name": "subscriber",
          "type": "address"
        }
      ],
      "name": "addSubscriber",
      "outputs": [],
      "stateMutability": "nonpayable",
      "type": "function"
    },
    {
      "inputs": [],
      "name": "aggregationRouter",
      "outputs": [
        {
          "internalType": "address",
          "name": "",
          "type": "address"
        }
      ],
      "stateMutability": "view",
      "type": "function"
    },
    {
      "inputs": [],
      "name": "fulfillQuote",
      "outputs": [],
      "stateMutability": "nonpayable",
      "type": "function"
    },
    {
      "inputs": [],
      "name": "fulfillSwap",
      "outputs": [],
      "stateMutability": "nonpayable",
      "type": "function"
    },
    {
      "inputs": [
        {
          "internalType": "enum SwapHelper.JobPurpose",
          "name": "_purpose",
          "type": "uint8"
        }
      ],
      "name": "getFeeInHundredthsOfLink",
      "outputs": [
        {
          "internalType": "uint256",
          "name": "",
          "type": "uint256"
        }
      ],
      "stateMutability": "view",
      "type": "function"
    },
    {
      "inputs": [],
      "name": "getOracleAddress",
      "outputs": [
        {
          "internalType": "address",
          "name": "",
          "type": "address"
        }
      ],
      "stateMutability": "view",
      "type": "function"
    },
    {
      "inputs": [
        {
          "internalType": "bytes32",
          "name": "role",
          "type": "bytes32"
        }
      ],
      "name": "getRoleAdmin",
      "outputs": [
        {
          "internalType": "bytes32",
          "name": "",
          "type": "bytes32"
        }
      ],
      "stateMutability": "view",
      "type": "function"
    },
    {
      "inputs": [
        {
          "internalType": "bytes32",
          "name": "role",
          "type": "bytes32"
        },
        {
          "internalType": "address",
          "name": "account",
          "type": "address"
        }
      ],
      "name": "grantRole",
      "outputs": [],
      "stateMutability": "nonpayable",
      "type": "function"
    },
    {
      "inputs": [
        {
          "internalType": "bytes32",
          "name": "role",
          "type": "bytes32"
        },
        {
          "internalType": "address",
          "name": "account",
          "type": "address"
        }
      ],
      "name": "hasRole",
      "outputs": [
        {
          "internalType": "bool",
          "name": "",
          "type": "bool"
        }
      ],
      "stateMutability": "view",
      "type": "function"
    },
    {
      "inputs": [],
      "name": "isReadyToFulfillQuote",
      "outputs": [
        {
          "internalType": "bool",
          "name": "",
          "type": "bool"
        }
      ],
      "stateMutability": "view",
      "type": "function"
    },
    {
      "inputs": [],
      "name": "isReadyToFulfillSwap",
      "outputs": [
        {
          "internalType": "bool",
          "name": "",
          "type": "bool"
        }
      ],
      "stateMutability": "view",
      "type": "function"
    },
    {
      "inputs": [
        {
          "internalType": "uint256",
          "name": "",
          "type": "uint256"
        }
      ],
      "name": "jobInfos",
      "outputs": [
        {
          "internalType": "bytes32",
          "name": "jobId",
          "type": "bytes32"
        },
        {
          "internalType": "uint256",
          "name": "jobFeeInJuels",
          "type": "uint256"
        }
      ],
      "stateMutability": "view",
      "type": "function"
    },
    {
      "inputs": [],
      "name": "oracleAddress",
      "outputs": [
        {
          "internalType": "address",
          "name": "",
          "type": "address"
        }
      ],
      "stateMutability": "view",
      "type": "function"
    },
    {
      "inputs": [],
      "name": "quoteBuffer",
      "outputs": [
        {
          "components": [
            {
              "internalType": "address",
              "name": "srcToken",
              "type": "address"
            },
            {
              "internalType": "address",
              "name": "dstToken",
              "type": "address"
            },
            {
              "internalType": "uint256",
              "name": "inAmount",
              "type": "uint256"
            }
          ],
          "internalType": "struct SwapHelper.SwapInfo",
          "name": "swapInfo",
          "type": "tuple"
        },
        {
          "internalType": "uint256",
          "name": "outAmount",
          "type": "uint256"
        }
      ],
      "stateMutability": "view",
      "type": "function"
    },
    {
      "inputs": [
        {
          "internalType": "bytes32",
          "name": "requestId",
          "type": "bytes32"
        },
        {
          "internalType": "uint256",
          "name": "toAmount",
          "type": "uint256"
        }
      ],
      "name": "registerQuoteAndFulfillRequestOnOracleExpense",
      "outputs": [],
      "stateMutability": "nonpayable",
      "type": "function"
    },
    {
      "inputs": [
        {
          "internalType": "bytes32",
          "name": "requestId",
          "type": "bytes32"
        },
        {
          "internalType": "uint256",
          "name": "toAmount",
          "type": "uint256"
        }
      ],
      "name": "registerQuoteRequest",
      "outputs": [],
      "stateMutability": "nonpayable",
      "type": "function"
    },
    {
      "inputs": [
        {
          "internalType": "bytes32",
          "name": "requestId",
          "type": "bytes32"
        },
        {
          "internalType": "bytes",
          "name": "swapCalldata",
          "type": "bytes"
        }
      ],
      "name": "registerSwapCalldata",
      "outputs": [],
      "stateMutability": "nonpayable",
      "type": "function"
    },
    {
      "inputs": [
        {
          "internalType": "bytes32",
          "name": "requestId",
          "type": "bytes32"
        },
        {
          "internalType": "bytes",
          "name": "swapCalldata",
          "type": "bytes"
        }
      ],
      "name": "registerSwapCalldataAndFulfillOnOracleExpense",
      "outputs": [],
      "stateMutability": "nonpayable",
      "type": "function"
    },
    {
      "inputs": [
        {
          "internalType": "address",
          "name": "subscriber",
          "type": "address"
        }
      ],
      "name": "removeSubscriber",
      "outputs": [],
      "stateMutability": "nonpayable",
      "type": "function"
    },
    {
      "inputs": [
        {
          "internalType": "bytes32",
          "name": "role",
          "type": "bytes32"
        },
        {
          "internalType": "address",
          "name": "account",
          "type": "address"
        }
      ],
      "name": "renounceRole",
      "outputs": [],
      "stateMutability": "nonpayable",
      "type": "function"
    },
    {
      "inputs": [
        {
          "internalType": "address",
          "name": "src",
          "type": "address"
        },
        {
          "internalType": "address",
          "name": "dst",
          "type": "address"
        },
        {
          "internalType": "uint256",
          "name": "amount",
          "type": "uint256"
        }
      ],
      "name": "requestQuote",
      "outputs": [],
      "stateMutability": "nonpayable",
      "type": "function"
    },
    {
      "inputs": [
        {
          "internalType": "address",
          "name": "src",
          "type": "address"
        },
        {
          "internalType": "address",
          "name": "dst",
          "type": "address"
        },
        {
          "internalType": "uint256",
          "name": "amount",
          "type": "uint256"
        }
      ],
      "name": "requestQuoteAndFulfillOnOracleExpense",
      "outputs": [],
      "stateMutability": "nonpayable",
      "type": "function"
    },
    {
      "inputs": [
        {
          "internalType": "address",
          "name": "src",
          "type": "address"
        },
        {
          "internalType": "address",
          "name": "dst",
          "type": "address"
        },
        {
          "internalType": "uint256",
          "name": "amount",
          "type": "uint256"
        },
        {
          "internalType": "uint8",
          "name": "slippage",
          "type": "uint8"
        }
      ],
      "name": "requestSwap",
      "outputs": [],
      "stateMutability": "payable",
      "type": "function"
    },
    {
      "inputs": [
        {
          "internalType": "address",
          "name": "src",
          "type": "address"
        },
        {
          "internalType": "address",
          "name": "dst",
          "type": "address"
        },
        {
          "internalType": "uint256",
          "name": "amount",
          "type": "uint256"
        },
        {
          "internalType": "uint8",
          "name": "slippage",
          "type": "uint8"
        }
      ],
      "name": "requestSwapAndFulfillOnOracleExpense",
      "outputs": [],
      "stateMutability": "payable",
      "type": "function"
    },
    {
      "inputs": [
        {
          "internalType": "bytes32",
          "name": "role",
          "type": "bytes32"
        },
        {
          "internalType": "address",
          "name": "account",
          "type": "address"
        }
      ],
      "name": "revokeRole",
      "outputs": [],
      "stateMutability": "nonpayable",
      "type": "function"
    },
    {
      "inputs": [
        {
          "internalType": "enum SwapHelper.JobPurpose",
          "name": "_purpose",
          "type": "uint8"
        },
        {
          "internalType": "uint256",
          "name": "_feeInHundredthsOfLink",
          "type": "uint256"
        }
      ],
      "name": "setFeeInHundredthsOfLink",
      "outputs": [],
      "stateMutability": "nonpayable",
      "type": "function"
    },
    {
      "inputs": [
        {
          "internalType": "enum SwapHelper.JobPurpose",
          "name": "_purpose",
          "type": "uint8"
        },
        {
          "components": [
            {
              "internalType": "bytes32",
              "name": "jobId",
              "type": "bytes32"
            },
            {
              "internalType": "uint256",
              "name": "jobFeeInJuels",
              "type": "uint256"
            }
          ],
          "internalType": "struct SwapHelper.JobInfo",
          "name": "_info",
          "type": "tuple"
        }
      ],
      "name": "setJobInfo",
      "outputs": [],
      "stateMutability": "nonpayable",
      "type": "function"
    },
    {
      "inputs": [
        {
          "internalType": "address",
          "name": "_oracleAddress",
          "type": "address"
        }
      ],
      "name": "setOracleAddress",
      "outputs": [],
      "stateMutability": "nonpayable",
      "type": "function"
    },
    {
      "inputs": [
        {
          "internalType": "uint256",
          "name": "toAmount",
          "type": "uint256"
        }
      ],
      "name": "strategistFulfillQuote",
      "outputs": [],
      "stateMutability": "nonpayable",
      "type": "function"
    },
    {
      "inputs": [
        {
          "internalType": "bytes",
          "name": "_swapCalldata",
          "type": "bytes"
        }
      ],
      "name": "strategistFulfillSwap",
      "outputs": [],
      "stateMutability": "payable",
      "type": "function"
    },
    {
      "inputs": [
        {
          "internalType": "uint256",
          "name": "subscriberIdx",
          "type": "uint256"
        }
      ],
      "name": "subscriberAt",
      "outputs": [
        {
          "internalType": "address",
          "name": "",
          "type": "address"
        }
      ],
      "stateMutability": "view",
      "type": "function"
    },
    {
      "inputs": [],
      "name": "subscribersLength",
      "outputs": [
        {
          "internalType": "uint256",
          "name": "",
          "type": "uint256"
        }
      ],
      "stateMutability": "view",
      "type": "function"
    },
    {
      "inputs": [
        {
          "internalType": "bytes4",
          "name": "interfaceId",
          "type": "bytes4"
        }
      ],
      "name": "supportsInterface",
      "outputs": [
        {
          "internalType": "bool",
          "name": "",
          "type": "bool"
        }
      ],
      "stateMutability": "view",
      "type": "function"
    },
    {
      "inputs": [],
      "name": "swapBuffer",
      "outputs": [
        {
          "internalType": "address",
          "name": "srcToken",
          "type": "address"
        },
        {
          "internalType": "address",
          "name": "dstToken",
          "type": "address"
        },
        {
          "internalType": "uint256",
          "name": "inAmount",
          "type": "uint256"
        }
      ],
      "stateMutability": "view",
      "type": "function"
    },
    {
      "inputs": [],
      "name": "withdrawLink",
      "outputs": [],
      "stateMutability": "nonpayable",
      "type": "function"
    },
    {
      "stateMutability": "payable",
      "type": "receive"
    }
  ],
  "bytecode": "0x60a060405260016005553480156200001657600080fd5b5060405162003f0e38038062003f0e83398101604081905262000039916200074c565b6200005460008051602062003ece83398151915288620001a7565b620000807f93627969d6ba3f2118f574a00f8d1c7fed4282f3728a455e8b3c867b1a1a212b88620001a7565b6200009b60008051602062003eee83398151915288620001a7565b600380546001600160a01b0319166001600160a01b038716179055620000c18462000230565b620000ee6000604051806040016040528085620000de906200083d565b815260006020909101526200027a565b620000fb60008a620002d2565b620001186001604051806040016040528086620000de906200083d565b62000125600189620002d2565b6001600160a01b03861660805260005b81518160ff16101562000197576200018260008051602062003eee833981519152838360ff16815181106200016e576200016e62000865565b6020026020010151620001a760201b60201c565b806200018e8162000891565b91505062000135565b50505050505050505050620009e4565b620001b3828262000341565b6200022c576000828152602081815260408083206001600160a01b03851684529091529020805460ff19166001179055620001eb3390565b6001600160a01b0316816001600160a01b0316837f2f8788117e7eff1d82e926ec794901d17c78024a50270940304540a733656f0d60405160405180910390a45b5050565b60008051602062003ece8339815191526200024b816200036c565b600780546001600160a01b0384166001600160a01b031991821681179092556004805490911690911790555050565b60008051602062003ece83398151915262000295816200036c565b8160106000856001811115620002af57620002af620008b3565b815260208082019290925260400160002082518155910151600190910155505050565b60008051602062003ece833981519152620002ed816200036c565b606462000303670de0b6b3a764000084620008c9565b6200030f9190620008e3565b60106000856001811115620003285762000328620008b3565b8152602081019190915260400160002060010155505050565b6000828152602081815260408083206001600160a01b038516845290915290205460ff165b92915050565b6200037881336200037b565b50565b62000387828262000341565b6200022c576200039781620003e8565b620003a4836020620003fb565b604051602001620003b792919062000906565b60408051601f198184030181529082905262461bcd60e51b8252620003df916004016200097f565b60405180910390fd5b6060620003666001600160a01b03831660145b606060006200040c836002620008c9565b62000419906002620009b4565b6001600160401b03811115620004335762000433620005d8565b6040519080825280601f01601f1916602001820160405280156200045e576020820181803683370190505b509050600360fc1b816000815181106200047c576200047c62000865565b60200101906001600160f81b031916908160001a905350600f60fb1b81600181518110620004ae57620004ae62000865565b60200101906001600160f81b031916908160001a9053506000620004d4846002620008c9565b620004e1906001620009b4565b90505b600181111562000563576f181899199a1a9b1b9c1cb0b131b232b360811b85600f166010811062000519576200051962000865565b1a60f81b82828151811062000532576200053262000865565b60200101906001600160f81b031916908160001a90535060049490941c936200055b81620009ca565b9050620004e4565b508315620005b45760405162461bcd60e51b815260206004820181905260248201527f537472696e67733a20686578206c656e67746820696e73756666696369656e746044820152606401620003df565b9392505050565b80516001600160a01b0381168114620005d357600080fd5b919050565b634e487b7160e01b600052604160045260246000fd5b604051601f8201601f191681016001600160401b0381118282101715620006195762000619620005d8565b604052919050565b60005b838110156200063e57818101518382015260200162000624565b50506000910152565b600082601f8301126200065957600080fd5b81516001600160401b03811115620006755762000675620005d8565b6200068a601f8201601f1916602001620005ee565b818152846020838601011115620006a057600080fd5b620006b382602083016020870162000621565b949350505050565b600082601f830112620006cd57600080fd5b815160206001600160401b03821115620006eb57620006eb620005d8565b8160051b620006fc828201620005ee565b92835284810182019282810190878511156200071757600080fd5b83870192505b8483101562000741576200073183620005bb565b825291830191908301906200071d565b979650505050505050565b60008060008060008060008060006101208a8c0312156200076c57600080fd5b8951985060208a015197506200078560408b01620005bb565b96506200079560608b01620005bb565b9550620007a560808b01620005bb565b9450620007b560a08b01620005bb565b60c08b01519094506001600160401b0380821115620007d357600080fd5b620007e18d838e0162000647565b945060e08c0151915080821115620007f857600080fd5b620008068d838e0162000647565b93506101008c01519150808211156200081e57600080fd5b506200082d8c828d01620006bb565b9150509295985092959850929598565b805160208083015191908110156200085f576000198160200360031b1b821691505b50919050565b634e487b7160e01b600052603260045260246000fd5b634e487b7160e01b600052601160045260246000fd5b600060ff821660ff8103620008aa57620008aa6200087b565b60010192915050565b634e487b7160e01b600052602160045260246000fd5b80820281158282048414176200036657620003666200087b565b6000826200090157634e487b7160e01b600052601260045260246000fd5b500490565b7f416363657373436f6e74726f6c3a206163636f756e74200000000000000000008152600083516200094081601785016020880162000621565b7001034b99036b4b9b9b4b733903937b6329607d1b60179184019182015283516200097381602884016020880162000621565b01602801949350505050565b6020815260008251806020840152620009a081604085016020870162000621565b601f01601f19169190910160400192915050565b808201808211156200036657620003666200087b565b600081620009dc57620009dc6200087b565b506000190190565b6080516134b262000a1c600039600081816107b2015281816111d601528181611269015281816113a5015261146601526134b26000f3fe60806040526004361061023f5760003560e01c806394555d1a1161012e578063c0d2e37f116100ab578063e05d6bf21161006f578063e05d6bf214610720578063e75d763f14610742578063eaad47b21461078b578063f09922ff146102b5578063fcdfd946146107a057600080fd5b8063c0d2e37f14610677578063cacfacf414610691578063d547741f146106b1578063d9ff478f146106d1578063dc39b19a1461070b57600080fd5b8063aaeafd56116100f2578063aaeafd56146105db578063ab3c322d14610603578063b18b78dd14610622578063b6761cb814610637578063be555a801461065757600080fd5b806394555d1a14610544578063a217fddf14610564578063a378a32414610579578063a74d01d41461059b578063a89ae4ba146105bb57600080fd5b80634d1dde7b116101bc57806366b8455b1161018057806366b8455b146104485780636ccf5b011461045d57806381777a3d146104955780638dc654a21461050f57806391d148541461052457600080fd5b80634d1dde7b146103a65780634e0c6133146103c65780634e22e31e146103e857806350c284b314610408578063627c34ad1461042857600080fd5b8063248a9ca311610203578063248a9ca3146102e85780632f2ff15d1461032657806336568abe146103465780634ab5c503146103665780634c69c00f1461038657600080fd5b806301a76f591461024b57806301ffc9a71461026057806302458ad81461029557806310cabd1d146102b55780631a5b4207146102c857600080fd5b3661024657005b600080fd5b61025e610259366004612990565b6107d4565b005b34801561026c57600080fd5b5061028061027b3660046129c4565b610855565b60405190151581526020015b60405180910390f35b3480156102a157600080fd5b5061025e6102b03660046129ee565b61088c565b61025e6102c3366004612a50565b61095b565b3480156102d457600080fd5b5061025e6102e3366004612aa5565b610997565b3480156102f457600080fd5b50610318610303366004612ae1565b60009081526020819052604090206001015490565b60405190815260200161028c565b34801561033257600080fd5b5061025e610341366004612afa565b6109d3565b34801561035257600080fd5b5061025e610361366004612afa565b6109fd565b34801561037257600080fd5b5061025e610381366004612b35565b610a7b565b34801561039257600080fd5b5061025e6103a1366004612b5f565b610ae0565b3480156103b257600080fd5b5061025e6103c1366004612aa5565b610b26565b3480156103d257600080fd5b5061031860008051602061345d83398151915281565b3480156103f457600080fd5b5061025e610403366004612b7a565b610b51565b34801561041457600080fd5b5061025e610423366004612ae1565b610bec565b34801561043457600080fd5b5061025e610443366004612b5f565b610c3c565b34801561045457600080fd5b50610318610c7c565b34801561046957600080fd5b5061047d610478366004612ae1565b610c8d565b6040516001600160a01b03909116815260200161028c565b3480156104a157600080fd5b50604080516060810182526008546001600160a01b039081168252600954166020820152600a5491810191909152600b546104da919082565b6040805183516001600160a01b039081168252602080860151909116908201529281015190830152606082015260800161028c565b34801561051b57600080fd5b5061025e610c9a565b34801561053057600080fd5b5061028061053f366004612afa565b610dcc565b34801561055057600080fd5b5061025e61055f366004612b5f565b610df5565b34801561057057600080fd5b50610318600081565b34801561058557600080fd5b5061031860008051602061341d83398151915281565b3480156105a757600080fd5b5061025e6105b6366004612b7a565b610e35565b3480156105c757600080fd5b5060075461047d906001600160a01b031681565b3480156105e757600080fd5b5061047d73eeeeeeeeeeeeeeeeeeeeeeeeeeeeeeeeeeeeeeee81565b34801561060f57600080fd5b50600f5461028090610100900460ff1681565b34801561062e57600080fd5b5061047d610ec4565b34801561064357600080fd5b50610318610652366004612b9c565b610eef565b34801561066357600080fd5b5061025e610672366004612bb7565b610f59565b34801561068357600080fd5b50600f546102809060ff1681565b34801561069d57600080fd5b5061025e6106ac3660046129ee565b610fab565b3480156106bd57600080fd5b5061025e6106cc366004612afa565b611081565b3480156106dd57600080fd5b50600c54600d54600e546106fc926001600160a01b0390811692169083565b60405161028c93929190612c29565b34801561071757600080fd5b5061025e6110a6565b34801561072c57600080fd5b506103186000805160206133b483398151915281565b34801561074e57600080fd5b5061077661075d366004612ae1565b6010602052600090815260409020805460019091015482565b6040805192835260208301919091520161028c565b34801561079757600080fd5b5061025e6110fc565b3480156107ac57600080fd5b5061047d7f000000000000000000000000000000000000000000000000000000000000000081565b60008051602061341d8339815191526107ec8161114c565b600f805460ff1916905560116108028382612cc7565b50600c54600e5461081d916001600160a01b03169033611159565b6108256112e6565b60015b6040517ffc252eeb655ad1aa88173ff876f64057c196504c7d3819259257f95c7f05b71090600090a25050565b60006001600160e01b03198216637965db0b60e01b148061088657506301ffc9a760e01b6001600160e01b03198316145b92915050565b60008281526006602052604090205482906001600160a01b031633146108cd5760405162461bcd60e51b81526004016108c490612d9c565b60405180910390fd5b60008181526006602052604080822080546001600160a01b031916905551829160008051602061343d83398151915291a2601161090a8382612cc7565b50600f805460ff19166001179055604051610926908390612e24565b604051908190038120907fa6b78fc047486d5add927aa53ba0d4fc8eb23a5811e0052aebeba21469f51df890600090a2505050565b60008051602061345d8339815191526109738161114c565b600f805460ff19169055610990858585856248b15b60e31b6114df565b5050505050565b6000805160206133b48339815191526109af8161114c565b600f805461ff00191690556109cd848484632711718f60e11b6116ef565b50505050565b6000828152602081905260409020600101546109ee8161114c565b6109f88383611865565b505050565b6001600160a01b0381163314610a6d5760405162461bcd60e51b815260206004820152602f60248201527f416363657373436f6e74726f6c3a2063616e206f6e6c792072656e6f756e636560448201526e103937b632b9903337b91039b2b63360891b60648201526084016108c4565b610a7782826118e9565b5050565b60008051602061341d833981519152610a938161114c565b6064610aa7670de0b6b3a764000084612e56565b610ab19190612e83565b60106000856001811115610ac757610ac7612d86565b8152602081019190915260400160002060010155505050565b60008051602061341d833981519152610af88161114c565b50600780546001600160a01b03929092166001600160a01b0319928316811790915560048054909216179055565b6000805160206133b4833981519152610b3e8161114c565b6109cd8484846329d3407560e21b6116ef565b60008281526006602052604090205482906001600160a01b03163314610b895760405162461bcd60e51b81526004016108c490612d9c565b60008181526006602052604080822080546001600160a01b031916905551829160008051602061343d83398151915291a2600b829055600f805461ff00191661010017905560405182906000805160206133d483398151915290600090a2505050565b60008051602061341d833981519152610c048161114c565b600f805461ff0019169055600b82905560405182906000805160206133d483398151915290600090a2610c3561194e565b6000610828565b60008051602061341d833981519152610c548161114c565b610c5f601283611a44565b610a77576040516306e971bb60e31b815260040160405180910390fd5b6000610c886012611a60565b905090565b6000610886601283611a6a565b60008051602061341d833981519152610cb28161114c565b6000610cc66003546001600160a01b031690565b90506001600160a01b03811663a9059cbb336040516370a0823160e01b81523060048201526001600160a01b038516906370a0823190602401602060405180830381865afa158015610d1c573d6000803e3d6000fd5b505050506040513d601f19601f82011682018060405250810190610d409190612e97565b6040516001600160e01b031960e085901b1681526001600160a01b03909216600483015260248201526044016020604051808303816000875af1158015610d8b573d6000803e3d6000fd5b505050506040513d601f19601f82011682018060405250810190610daf9190612eb0565b610a77576040516313ff771f60e21b815260040160405180910390fd5b6000918252602082815260408084206001600160a01b0393909316845291905290205460ff1690565b60008051602061341d833981519152610e0d8161114c565b610e18601283611a76565b610a77576040516305c46f6760e31b815260040160405180910390fd5b60008281526006602052604090205482906001600160a01b03163314610e6d5760405162461bcd60e51b81526004016108c490612d9c565b60008181526006602052604080822080546001600160a01b031916905551829160008051602061343d83398151915291a2600b82905560405182906000805160206133d483398151915290600090a26109f861194e565b600060008051602061341d833981519152610ede8161114c565b50506007546001600160a01b031690565b600060008051602061341d833981519152610f098161114c565b670de0b6b3a764000060106000856001811115610f2857610f28612d86565b8152602001908152602001600020600101546064610f469190612e56565b610f509190612e83565b91505b50919050565b60008051602061341d833981519152610f718161114c565b8160106000856001811115610f8857610f88612d86565b815260208082019290925260400160002082518155910151600190910155505050565b60008281526006602052604090205482906001600160a01b03163314610fe35760405162461bcd60e51b81526004016108c490612d9c565b60008181526006602052604080822080546001600160a01b031916905551829160008051602061343d83398151915291a260116110208382612cc7565b508160405161102f9190612e24565b604051908190038120907fa6b78fc047486d5add927aa53ba0d4fc8eb23a5811e0052aebeba21469f51df890600090a2600c54600e54611079916001600160a01b03169033611159565b6109f86112e6565b60008281526020819052604090206001015461109c8161114c565b6109f883836118e9565b6000805160206133b48339815191526110be8161114c565b600f54610100900460ff166110e657604051636cb45f1560e11b815260040160405180910390fd5b6110ee61194e565b50600f805461ff0019169055565b60008051602061345d8339815191526111148161114c565b600f5460ff1661113757604051637d683d5360e01b815260040160405180910390fd5b61113f6112e6565b50600f805460ff19169055565b6111568133611a8b565b50565b8273eeeeeeeeeeeeeeeeeeeeeeeeeeeeeeeeeeeeeeed196001600160a01b038216016111a45782341461119f57604051630dd86f5360e11b815260040160405180910390fd5b6109cd565b6111b96001600160a01b038216833086611ae4565b604051636eb1769f60e11b81523060048201526001600160a01b037f00000000000000000000000000000000000000000000000000000000000000008116602483015284919083169063dd62ed3e90604401602060405180830381865afa158015611228573d6000803e3d6000fd5b505050506040513d601f19601f8201168201806040525081019061124c9190612e97565b10156109cd5760405163095ea7b360e01b81526001600160a01b037f000000000000000000000000000000000000000000000000000000000000000081166004830152600019602483015282169063095ea7b3906044016020604051808303816000875af11580156112c2573d6000803e3d6000fd5b505050506040513d601f19601f820116820180604052508101906109909190612eb0565b600c546001600160a01b031673eeeeeeeeeeeeeeeeeeeeeeeeeeeeeeeeeeeeeeed19016113d6576113d06011805461131d90612c4d565b80601f016020809104026020016040519081016040528092919081815260200182805461134990612c4d565b80156113965780601f1061136b57610100808354040283529160200191611396565b820191906000526020600020905b81548152906001019060200180831161137957829003601f168201915b5050600e546001600160a01b037f000000000000000000000000000000000000000000000000000000000000000016949350915050611b3c565b5061149e565b61149c601180546113e690612c4d565b80601f016020809104026020016040519081016040528092919081815260200182805461141290612c4d565b801561145f5780601f106114345761010080835404028352916020019161145f565b820191906000526020600020905b81548152906001019060200180831161144257829003601f168201915b50505050507f00000000000000000000000000000000000000000000000000000000000000006001600160a01b0316611b6a90919063ffffffff16565b505b600c6040516114ad9190612ef8565b604051908190038120907f098d3af501ac55740f44cc3d45b38cd162e715bd76ae2ec1704db9bcf19df52890600090a2565b60328260ff161115611504576040516336ee37fb60e21b815260040160405180910390fd5b33611510868583611159565b6001600090815260106020527f8c6065603763fec3f5742441d3833f3f43b982453612d76adb39a885e3006b5f546115489084611bae565b9050611598604051806040016040528060068152602001651b595d1a1bd960d21b8152506040518060400160405280600381526020016211d15560ea1b81525083611bca9092919063ffffffff16565b61161d604051806040016040528060038152602001621d5c9b60ea1b8152506115c089611be8565b6115c989611be8565b6115d289611bfe565b6115db30611be8565b6115e78a60ff16611bfe565b6115f089611be8565b60405160200161160596959493929190612f0a565b60408051601f19818403018152919052839190611bca565b6116766040518060400160405280600781526020016618dbdb9d1858dd60ca1b8152506040518060400160405280600d81526020016c6c6f6375732d66696e616e636560981b81525083611bca9092919063ffffffff16565b604080516060810182526001600160a01b03808a168083529089166020830181905291909201879052600c80546001600160a01b03199081169093179055600d8054909216179055600e8590556116e5816010600060015b815260200190815260200160002060010154611c90565b5050505050505050565b600080805260106020527f6e0956cda88cad152e89927e53611735b61a5c762d1428573c6931b0a5efcb01546117259083611bae565b9050611775604051806040016040528060068152602001651b595d1a1bd960d21b8152506040518060400160405280600381526020016211d15560ea1b81525083611bca9092919063ffffffff16565b6117c1604051806040016040528060038152602001621d5c9b60ea1b81525061179d87611be8565b6117a687611be8565b6117af87611bfe565b60405160200161160593929190613043565b61181a6040518060400160405280600781526020016618dbdb9d1858dd60ca1b8152506040518060400160405280600d81526020016c6c6f6375732d66696e616e636560981b81525083611bca9092919063ffffffff16565b600880546001600160a01b038088166001600160a01b0319928316179092556009805492871692909116919091179055600a83905561185d8160106000806116ce565b505050505050565b61186f8282610dcc565b610a77576000828152602081815260408083206001600160a01b03851684529091529020805460ff191660011790556118a53390565b6001600160a01b0316816001600160a01b0316837f2f8788117e7eff1d82e926ec794901d17c78024a50270940304540a733656f0d60405160405180910390a45050565b6118f38282610dcc565b15610a77576000828152602081815260408083206001600160a01b0385168085529252808320805460ff1916905551339285917ff6391f5c32d9c69d2a47ea670b442974b53935d1edc7fd64eb21e047a839171b9190a45050565b600061195a6012611a60565b905060005b81811015611a0157611972601282611a6a565b600854600954600b54600a5460405163782b6fff60e11b81526001600160a01b03948516600482015292841660248401526044830191909152606482015291169063f056dffe90608401600060405180830381600087803b1580156119d657600080fd5b505af11580156119ea573d6000803e3d6000fd5b5050505080806119f9906130eb565b91505061195f565b506008604051611a119190613104565b604051908190038120907fa8e5b3954602a050e4fd58bfdb4679c92cdf00addead6c0178ced776602ed45290600090a250565b6000611a59836001600160a01b038416611caa565b9392505050565b6000610886825490565b6000611a598383611d9d565b6000611a59836001600160a01b038416611dc7565b611a958282610dcc565b610a7757611aa281611be8565b611aad836020611e16565b604051602001611abe929190613120565b60408051601f198184030181529082905262461bcd60e51b82526108c4916004016131bb565b6109cd846323b872dd60e01b858585604051602401611b0593929190612c29565b60408051601f198184030181529190526020810180516001600160e01b03166001600160e01b031990931692909217909152611fb1565b6060611b628484846040518060600160405280602981526020016133f460299139612086565b949350505050565b6060611a59838360006040518060400160405280601e81526020017f416464726573733a206c6f772d6c6576656c2063616c6c206661696c65640000815250612086565b611bb661289f565b611bbe61289f565b611b6281853086612161565b6080830151611bd9908361219e565b60808301516109f8908261219e565b60606108866001600160a01b0383166014611e16565b60606000611c0b836121b5565b60010190506000816001600160401b03811115611c2a57611c2a6128ee565b6040519080825280601f01601f191660200182016040528015611c54576020820181803683370190505b5090508181016020015b600019016f181899199a1a9b1b9c1cb0b131b232b360811b600a86061a8153600a8504945084611c5e57509392505050565b600454600090611a59906001600160a01b0316848461228d565b60008181526001830160205260408120548015611d93576000611cce6001836131ce565b8554909150600090611ce2906001906131ce565b9050818114611d47576000866000018281548110611d0257611d026131e1565b9060005260206000200154905080876000018481548110611d2557611d256131e1565b6000918252602080832090910192909255918252600188019052604090208390555b8554869080611d5857611d586131f7565b600190038181906000526020600020016000905590558560010160008681526020019081526020016000206000905560019350505050610886565b6000915050610886565b6000826000018281548110611db457611db46131e1565b9060005260206000200154905092915050565b6000818152600183016020526040812054611e0e57508154600181810184556000848152602080822090930184905584548482528286019093526040902091909155610886565b506000610886565b60606000611e25836002612e56565b611e3090600261320d565b6001600160401b03811115611e4757611e476128ee565b6040519080825280601f01601f191660200182016040528015611e71576020820181803683370190505b509050600360fc1b81600081518110611e8c57611e8c6131e1565b60200101906001600160f81b031916908160001a905350600f60fb1b81600181518110611ebb57611ebb6131e1565b60200101906001600160f81b031916908160001a9053506000611edf846002612e56565b611eea90600161320d565b90505b6001811115611f62576f181899199a1a9b1b9c1cb0b131b232b360811b85600f1660108110611f1e57611f1e6131e1565b1a60f81b828281518110611f3457611f346131e1565b60200101906001600160f81b031916908160001a90535060049490941c93611f5b81613220565b9050611eed565b508315611a595760405162461bcd60e51b815260206004820181905260248201527f537472696e67733a20686578206c656e67746820696e73756666696369656e7460448201526064016108c4565b6000612006826040518060400160405280602081526020017f5361666545524332303a206c6f772d6c6576656c2063616c6c206661696c6564815250856001600160a01b031661231e9092919063ffffffff16565b90508051600014806120275750808060200190518101906120279190612eb0565b6109f85760405162461bcd60e51b815260206004820152602a60248201527f5361666545524332303a204552433230206f7065726174696f6e20646964206e6044820152691bdd081cdd58d8d9595960b21b60648201526084016108c4565b6060824710156120e75760405162461bcd60e51b815260206004820152602660248201527f416464726573733a20696e73756666696369656e742062616c616e636520666f6044820152651c8818d85b1b60d21b60648201526084016108c4565b600080866001600160a01b031685876040516121039190612e24565b60006040518083038185875af1925050503d8060008114612140576040519150601f19603f3d011682016040523d82523d6000602084013e612145565b606091505b50915091506121568783838761232d565b979650505050505050565b61216961289f565b61217985608001516101006123a6565b50509183526001600160a01b031660208301526001600160e01b031916604082015290565b6121ab82600383516123fe565b6109f88282612505565b60008072184f03e93ff9f4daa797ed6e38ed64bf6a1f0160401b83106121f45772184f03e93ff9f4daa797ed6e38ed64bf6a1f0160401b830492506040015b6d04ee2d6d415b85acef81000000008310612220576d04ee2d6d415b85acef8100000000830492506020015b662386f26fc10000831061223e57662386f26fc10000830492506010015b6305f5e1008310612256576305f5e100830492506008015b612710831061226a57612710830492506004015b6064831061227c576064830492506002015b600a83106108865760010192915050565b60055460009061229e81600161320d565b60055583516040808601516080870151519151600093633c6d41b960e01b936122d4938693849392899160029190602401613237565b60408051601f198184030181529190526020810180516001600160e01b03166001600160e01b03199093169290921790915290506123148683868461251f565b9695505050505050565b6060611b628484600085612086565b6060831561239c578251600003612395576001600160a01b0385163b6123955760405162461bcd60e51b815260206004820152601d60248201527f416464726573733a2063616c6c20746f206e6f6e2d636f6e747261637400000060448201526064016108c4565b5081611b62565b611b62838361267d565b6123ae6128d4565b6123b960208361327f565b156123e1576123c960208361327f565b6123d49060206131ce565b6123de908361320d565b91505b506020828101829052604080518085526000815290920101905290565b6017816001600160401b031611612422576109cd8360e0600585901b1683176126a7565b60ff816001600160401b03161161245e57612448836018611fe0600586901b16176126a7565b506109cd836001600160401b03831660016126bf565b61ffff816001600160401b03161161249b57612485836019611fe0600586901b16176126a7565b506109cd836001600160401b03831660026126bf565b63ffffffff816001600160401b0316116124da576124c483601a611fe0600586901b16176126a7565b506109cd836001600160401b03831660046126bf565b6124ef83601b611fe0600586901b16176126a7565b506109cd836001600160401b03831660086126bf565b61250d6128d4565b611a59838460000151518485516126d8565b6040516bffffffffffffffffffffffff193060601b1660208201526034810184905260009060540160408051808303601f1901815282825280516020918201206000818152600690925291812080546001600160a01b0319166001600160a01b038a1617905590925082917fb5e6e01e79f91267dc17b4e6314d5d4d03593d2ceee0fbb452b750bd70ea5af99190a2600354604051630200057560e51b81526001600160a01b0390911690634000aea0906125e290889087908790600401613293565b6020604051808303816000875af1158015612601573d6000803e3d6000fd5b505050506040513d601f19601f820116820180604052508101906126259190612eb0565b611b625760405162461bcd60e51b815260206004820152602360248201527f756e61626c6520746f207472616e73666572416e6443616c6c20746f206f7261604482015262636c6560e81b60648201526084016108c4565b81511561268d5781518083602001fd5b8060405162461bcd60e51b81526004016108c491906131bb565b6126af6128d4565b611a5983846000015151846127b5565b6126c76128d4565b611b62848560000151518585612803565b6126e06128d4565b82518211156126ee57600080fd5b60208501516126fd838661320d565b111561273057612730856127208760200151878661271b919061320d565b612877565b61272b906002612e56565b612888565b60008086518051876020830101935080888701111561274f5787860182525b505050602084015b6020841061278f578051825261276e60208361320d565b915061277b60208261320d565b90506127886020856131ce565b9350612757565b51815160001960208690036101000a019081169019919091161790525083949350505050565b6127bd6128d4565b836020015183106127dd576127dd848560200151600261272b9190612e56565b83518051602085830101848153508085036127f9576001810182525b5093949350505050565b61280b6128d4565b602085015161281a858461320d565b111561282e5761282e85612720868561320d565b6000600161283e846101006133a7565b61284891906131ce565b905085518386820101858319825116178152508051848701111561286c5783860181525b509495945050505050565b600081831115610f53575081610886565b815161289483836123a6565b506109cd8382612505565b6040805160a0810182526000808252602082018190529181018290526060810191909152608081016128cf6128d4565b905290565b604051806040016040528060608152602001600081525090565b634e487b7160e01b600052604160045260246000fd5b600082601f83011261291557600080fd5b81356001600160401b038082111561292f5761292f6128ee565b604051601f8301601f19908116603f01168101908282118183101715612957576129576128ee565b8160405283815286602085880101111561297057600080fd5b836020870160208301376000602085830101528094505050505092915050565b6000602082840312156129a257600080fd5b81356001600160401b038111156129b857600080fd5b611b6284828501612904565b6000602082840312156129d657600080fd5b81356001600160e01b031981168114611a5957600080fd5b60008060408385031215612a0157600080fd5b8235915060208301356001600160401b03811115612a1e57600080fd5b612a2a85828601612904565b9150509250929050565b80356001600160a01b0381168114612a4b57600080fd5b919050565b60008060008060808587031215612a6657600080fd5b612a6f85612a34565b9350612a7d60208601612a34565b925060408501359150606085013560ff81168114612a9a57600080fd5b939692955090935050565b600080600060608486031215612aba57600080fd5b612ac384612a34565b9250612ad160208501612a34565b9150604084013590509250925092565b600060208284031215612af357600080fd5b5035919050565b60008060408385031215612b0d57600080fd5b82359150612b1d60208401612a34565b90509250929050565b803560028110612a4b57600080fd5b60008060408385031215612b4857600080fd5b612b5183612b26565b946020939093013593505050565b600060208284031215612b7157600080fd5b611a5982612a34565b60008060408385031215612b8d57600080fd5b50508035926020909101359150565b600060208284031215612bae57600080fd5b611a5982612b26565b6000808284036060811215612bcb57600080fd5b612bd484612b26565b92506040601f1982011215612be857600080fd5b50604051604081018181106001600160401b0382111715612c0b57612c0b6128ee565b60409081526020858101358352940135938101939093525092909150565b6001600160a01b039384168152919092166020820152604081019190915260600190565b600181811c90821680612c6157607f821691505b602082108103610f5357634e487b7160e01b600052602260045260246000fd5b601f8211156109f857600081815260208120601f850160051c81016020861015612ca85750805b601f850160051c820191505b8181101561185d57828155600101612cb4565b81516001600160401b03811115612ce057612ce06128ee565b612cf481612cee8454612c4d565b84612c81565b602080601f831160018114612d295760008415612d115750858301515b600019600386901b1c1916600185901b17855561185d565b600085815260208120601f198616915b82811015612d5857888601518255948401946001909101908401612d39565b5085821015612d765787850151600019600388901b60f8161c191681555b5050505050600190811b01905550565b634e487b7160e01b600052602160045260246000fd5b60208082526028908201527f536f75726365206d75737420626520746865206f7261636c65206f6620746865604082015267081c995c5d595cdd60c21b606082015260800190565b60005b83811015612dff578181015183820152602001612de7565b50506000910152565b60008151612e1a818560208601612de4565b9290920192915050565b60008251612e36818460208701612de4565b9190910192915050565b634e487b7160e01b600052601160045260246000fd5b808202811582820484141761088657610886612e40565b634e487b7160e01b600052601260045260246000fd5b600082612e9257612e92612e6d565b500490565b600060208284031215612ea957600080fd5b5051919050565b600060208284031215612ec257600080fd5b81518015158114611a5957600080fd5b80546001600160a01b039081168352600182015416602083015260020154604090910152565b612f028183612ed2565b606001919050565b7f68747470733a2f2f6170692e31696e63682e6465762f737761702f76352e322f81526a312f737761703f7372633d60a81b602082015260008751612f5681602b850160208c01612de4565b64266473743d60d81b602b918401918201528751612f7b816030840160208c01612de4565b6726616d6f756e743d60c01b603092909101918201528651612fa4816038840160208b01612de4565b652666726f6d3d60d01b603892909101918201528551612fcb81603e840160208a01612de4565b6926736c6970706167653d60b01b603e929091019182015261303661301561300f612ff96048850189612e08565b692672656365697665723d60b01b8152600a0190565b86612e08565b742664697361626c65457374696d6174653d7472756560581b815260150190565b9998505050505050505050565b7f68747470733a2f2f6170692e31696e63682e6465762f737761702f76352e322f81526b312f71756f74653f7372633d60a01b60208201526000845161309081602c850160208901612de4565b64266473743d60d81b602c9184019182015284516130b5816031840160208901612de4565b6726616d6f756e743d60c01b6031929091019182015283516130de816039840160208801612de4565b0160390195945050505050565b6000600182016130fd576130fd612e40565b5060010190565b61310e8183612ed2565b60039190910154606082015260800190565b76020b1b1b2b9b9a1b7b73a3937b61d1030b1b1b7bab73a1604d1b815260008351613152816017850160208801612de4565b7001034b99036b4b9b9b4b733903937b6329607d1b6017918401918201528351613183816028840160208801612de4565b01602801949350505050565b600081518084526131a7816020860160208601612de4565b601f01601f19169290920160200192915050565b602081526000611a59602083018461318f565b8181038181111561088657610886612e40565b634e487b7160e01b600052603260045260246000fd5b634e487b7160e01b600052603160045260246000fd5b8082018082111561088657610886612e40565b60008161322f5761322f612e40565b506000190190565b60018060a01b038816815286602082015285604082015263ffffffff60e01b851660608201528360808201528260a082015260e060c0820152600061303660e083018461318f565b60008261328e5761328e612e6d565b500690565b60018060a01b03841681528260208201526060604082015260006132ba606083018461318f565b95945050505050565b600181815b808511156132fe5781600019048211156132e4576132e4612e40565b808516156132f157918102915b93841c93908002906132c8565b509250929050565b60008261331557506001610886565b8161332257506000610886565b816001811461333857600281146133425761335e565b6001915050610886565b60ff84111561335357613353612e40565b50506001821b610886565b5060208310610133831016604e8410600b8410161715613381575081810a610886565b61338b83836132c3565b806000190482111561339f5761339f612e40565b029392505050565b6000611a59838361330656fe93627969d6ba3f2118f574a00f8d1c7fed4282f3728a455e8b3c867b1a1a212bb6904e5f1b44229e5609b681fbc2512409afa3e5a9072d0314256c012668dbe4416464726573733a206c6f772d6c6576656c2063616c6c20776974682076616c7565206661696c656417a8e30262c1f919c33056d877a3c22b95c2f5e4dac44683c1c2323cd79fbdb07cc135e0cebb02c3480ae5d74d377283180a2601f8f644edf7987b009316c63afab00a984754950c7187fb98f39da0ae224abbbee017c1699445ad0e19474a4da2646970667358221220f26902e8a3dea105d8c6d7a3269988a742c8f4498c02b797ec2b7379746d51f064736f6c6343000813003317a8e30262c1f919c33056d877a3c22b95c2f5e4dac44683c1c2323cd79fbdb0fab00a984754950c7187fb98f39da0ae224abbbee017c1699445ad0e19474a4d",
  "linkReferences": {},
  "deployedLinkReferences": {}
}