{
  "_format": "hh-sol-artifact-1",
  "contractName": "HopStrategy",
  "sourceName": "contracts/strategies/original/HopStrategy.sol",
  "abi": [
    {
      "inputs": [
        {
          "internalType": "uint256",
          "name": "messageType",
          "type": "uint256"
        }
      ],
      "name": "IncorrectMessageType",
      "type": "error"
    },
    {
      "inputs": [
        {
          "internalType": "uint256",
          "name": "amount",
          "type": "uint256"
        },
        {
          "internalType": "uint256",
          "name": "balance",
          "type": "uint256"
        }
      ],
      "name": "InsufficientFunds",
      "type": "error"
    },
    {
      "inputs": [],
      "name": "SwapHelperOnly",
      "type": "error"
    },
    {
      "anonymous": false,
      "inputs": [
        {
          "indexed": false,
          "internalType": "uint256",
          "name": "debtOutstanding",
          "type": "uint256"
        }
      ],
      "name": "AdjustedPosition",
      "type": "event"
    },
    {
      "anonymous": false,
      "inputs": [
        {
          "indexed": false,
          "internalType": "uint8",
          "name": "version",
          "type": "uint8"
        }
      ],
      "name": "Initialized",
      "type": "event"
    },
    {
      "anonymous": false,
      "inputs": [
        {
          "indexed": false,
          "internalType": "uint16",
          "name": "_srcChainId",
          "type": "uint16"
        },
        {
          "indexed": false,
          "internalType": "bytes",
          "name": "_srcAddress",
          "type": "bytes"
        },
        {
          "indexed": false,
          "internalType": "uint64",
          "name": "_nonce",
          "type": "uint64"
        },
        {
          "indexed": false,
          "internalType": "bytes",
          "name": "_payload",
          "type": "bytes"
        },
        {
          "indexed": false,
          "internalType": "bytes",
          "name": "_reason",
          "type": "bytes"
        }
      ],
      "name": "MessageFailed",
      "type": "event"
    },
    {
      "anonymous": false,
      "inputs": [
        {
          "indexed": true,
          "internalType": "address",
          "name": "src",
          "type": "address"
        },
        {
          "indexed": true,
          "internalType": "address",
          "name": "dst",
          "type": "address"
        },
        {
          "indexed": true,
          "internalType": "uint256",
          "name": "amountOut",
          "type": "uint256"
        },
        {
          "indexed": false,
          "internalType": "uint256",
          "name": "amountIn",
          "type": "uint256"
        }
      ],
      "name": "Notified",
      "type": "event"
    },
    {
      "anonymous": false,
      "inputs": [
        {
          "indexed": true,
          "internalType": "address",
          "name": "previousOwner",
          "type": "address"
        },
        {
          "indexed": true,
          "internalType": "address",
          "name": "newOwner",
          "type": "address"
        }
      ],
      "name": "OwnershipTransferred",
      "type": "event"
    },
    {
      "anonymous": false,
      "inputs": [
        {
          "indexed": false,
          "internalType": "uint16",
          "name": "_srcChainId",
          "type": "uint16"
        },
        {
          "indexed": false,
          "internalType": "bytes",
          "name": "_srcAddress",
          "type": "bytes"
        },
        {
          "indexed": false,
          "internalType": "uint64",
          "name": "_nonce",
          "type": "uint64"
        },
        {
          "indexed": false,
          "internalType": "bytes32",
          "name": "_payloadHash",
          "type": "bytes32"
        }
      ],
      "name": "RetryMessageSuccess",
      "type": "event"
    },
    {
      "anonymous": false,
      "inputs": [
        {
          "indexed": false,
          "internalType": "uint16",
          "name": "_dstChainId",
          "type": "uint16"
        },
        {
          "indexed": false,
          "internalType": "uint16",
          "name": "_type",
          "type": "uint16"
        },
        {
          "indexed": false,
          "internalType": "uint256",
          "name": "_minDstGas",
          "type": "uint256"
        }
      ],
      "name": "SetMinDstGas",
      "type": "event"
    },
    {
      "anonymous": false,
      "inputs": [
        {
          "indexed": false,
          "internalType": "address",
          "name": "precrime",
          "type": "address"
        }
      ],
      "name": "SetPrecrime",
      "type": "event"
    },
    {
      "anonymous": false,
      "inputs": [
        {
          "indexed": false,
          "internalType": "uint16",
          "name": "_remoteChainId",
          "type": "uint16"
        },
        {
          "indexed": false,
          "internalType": "bytes",
          "name": "_path",
          "type": "bytes"
        }
      ],
      "name": "SetTrustedRemote",
      "type": "event"
    },
    {
      "anonymous": false,
      "inputs": [
        {
          "indexed": false,
          "internalType": "uint16",
          "name": "_remoteChainId",
          "type": "uint16"
        },
        {
          "indexed": false,
          "internalType": "bytes",
          "name": "_remoteAddress",
          "type": "bytes"
        }
      ],
      "name": "SetTrustedRemoteAddress",
      "type": "event"
    },
    {
      "anonymous": false,
      "inputs": [
        {
          "indexed": true,
          "internalType": "address",
          "name": "token",
          "type": "address"
        },
        {
          "indexed": false,
          "internalType": "uint256",
          "name": "amount",
          "type": "uint256"
        },
        {
          "indexed": false,
          "internalType": "address",
          "name": "sender",
          "type": "address"
        }
      ],
      "name": "SgReceived",
      "type": "event"
    },
    {
      "anonymous": false,
      "inputs": [
        {
          "indexed": false,
          "internalType": "address",
          "name": "newStrategy",
          "type": "address"
        }
      ],
      "name": "StrategyMigrated",
      "type": "event"
    },
    {
      "anonymous": false,
      "inputs": [
        {
          "indexed": false,
          "internalType": "uint256",
          "name": "profit",
          "type": "uint256"
        },
        {
          "indexed": false,
          "internalType": "uint256",
          "name": "loss",
          "type": "uint256"
        },
        {
          "indexed": false,
          "internalType": "uint256",
          "name": "debtPayment",
          "type": "uint256"
        },
        {
          "indexed": false,
          "internalType": "uint256",
          "name": "giveToStrategy",
          "type": "uint256"
        },
        {
          "indexed": false,
          "internalType": "uint256",
          "name": "requestFromStrategy",
          "type": "uint256"
        },
        {
          "indexed": false,
          "internalType": "uint256",
          "name": "creditAvailable",
          "type": "uint256"
        },
        {
          "indexed": false,
          "internalType": "uint256",
          "name": "totalAssets",
          "type": "uint256"
        }
      ],
      "name": "StrategyReported",
      "type": "event"
    },
    {
      "inputs": [],
      "name": "DEFAULT_PAYLOAD_SIZE_LIMIT",
      "outputs": [
        {
          "internalType": "uint256",
          "name": "",
          "type": "uint256"
        }
      ],
      "stateMutability": "view",
      "type": "function"
    },
    {
      "inputs": [
        {
          "internalType": "uint256",
          "name": "_debtOutstanding",
          "type": "uint256"
        }
      ],
      "name": "adjustPosition",
      "outputs": [],
      "stateMutability": "nonpayable",
      "type": "function"
    },
    {
      "inputs": [],
      "name": "balanceOfWant",
      "outputs": [
        {
          "internalType": "uint256",
          "name": "",
          "type": "uint256"
        }
      ],
      "stateMutability": "view",
      "type": "function"
    },
    {
      "inputs": [
        {
          "internalType": "uint256",
          "name": "epoch",
          "type": "uint256"
        }
      ],
      "name": "callMe",
      "outputs": [],
      "stateMutability": "nonpayable",
      "type": "function"
    },
    {
      "inputs": [],
      "name": "clearWant",
      "outputs": [],
      "stateMutability": "nonpayable",
      "type": "function"
    },
    {
      "inputs": [],
      "name": "currentChainId",
      "outputs": [
        {
          "internalType": "uint16",
          "name": "",
          "type": "uint16"
        }
      ],
      "stateMutability": "view",
      "type": "function"
    },
    {
      "inputs": [],
      "name": "emergencyExit",
      "outputs": [
        {
          "internalType": "bool",
          "name": "",
          "type": "bool"
        }
      ],
      "stateMutability": "view",
      "type": "function"
    },
    {
      "inputs": [],
      "name": "estimatedTotalAssets",
      "outputs": [
        {
          "internalType": "uint256",
          "name": "",
          "type": "uint256"
        }
      ],
      "stateMutability": "view",
      "type": "function"
    },
    {
      "inputs": [
        {
          "internalType": "uint16",
          "name": "",
          "type": "uint16"
        },
        {
          "internalType": "bytes",
          "name": "",
          "type": "bytes"
        },
        {
          "internalType": "uint64",
          "name": "",
          "type": "uint64"
        }
      ],
      "name": "failedMessages",
      "outputs": [
        {
          "internalType": "bytes32",
          "name": "",
          "type": "bytes32"
        }
      ],
      "stateMutability": "view",
      "type": "function"
    },
    {
      "inputs": [
        {
          "internalType": "uint16",
          "name": "_srcChainId",
          "type": "uint16"
        },
        {
          "internalType": "bytes",
          "name": "_srcAddress",
          "type": "bytes"
        }
      ],
      "name": "forceResumeReceive",
      "outputs": [],
      "stateMutability": "nonpayable",
      "type": "function"
    },
    {
      "inputs": [
        {
          "internalType": "uint16",
          "name": "_version",
          "type": "uint16"
        },
        {
          "internalType": "uint16",
          "name": "_chainId",
          "type": "uint16"
        },
        {
          "internalType": "address",
          "name": "",
          "type": "address"
        },
        {
          "internalType": "uint256",
          "name": "_configType",
          "type": "uint256"
        }
      ],
      "name": "getConfig",
      "outputs": [
        {
          "internalType": "bytes",
          "name": "",
          "type": "bytes"
        }
      ],
      "stateMutability": "view",
      "type": "function"
    },
    {
      "inputs": [
        {
          "internalType": "bytes32",
          "name": "_messageHash",
          "type": "bytes32"
        }
      ],
      "name": "getEthSignedMessageHash",
      "outputs": [
        {
          "internalType": "bytes32",
          "name": "",
          "type": "bytes32"
        }
      ],
      "stateMutability": "pure",
      "type": "function"
    },
    {
      "inputs": [
        {
          "internalType": "uint16",
          "name": "_remoteChainId",
          "type": "uint16"
        }
      ],
      "name": "getTrustedRemoteAddress",
      "outputs": [
        {
          "internalType": "bytes",
          "name": "",
          "type": "bytes"
        }
      ],
      "stateMutability": "view",
      "type": "function"
    },
    {
      "inputs": [
        {
          "internalType": "uint256",
          "name": "_totalDebt",
          "type": "uint256"
        },
        {
          "internalType": "uint256",
          "name": "_debtOutstanding",
          "type": "uint256"
        },
        {
          "internalType": "uint256",
          "name": "_creditAvailable",
          "type": "uint256"
        },
        {
          "internalType": "uint256",
          "name": "_debtRatio",
          "type": "uint256"
        },
        {
          "internalType": "bytes",
          "name": "_signature",
          "type": "bytes"
        }
      ],
      "name": "harvest",
      "outputs": [],
      "stateMutability": "nonpayable",
      "type": "function"
    },
    {
      "inputs": [
        {
          "internalType": "address",
          "name": "_lzEndpoint",
          "type": "address"
        },
        {
          "internalType": "address",
          "name": "_strategist",
          "type": "address"
        },
        {
          "internalType": "contract IERC20",
          "name": "_want",
          "type": "address"
        },
        {
          "internalType": "address",
          "name": "_vault",
          "type": "address"
        },
        {
          "internalType": "uint16",
          "name": "_vaultChainId",
          "type": "uint16"
        },
        {
          "internalType": "address",
          "name": "_sgBridge",
          "type": "address"
        },
        {
          "internalType": "address",
          "name": "_sgRouter",
          "type": "address"
        },
        {
          "internalType": "uint256",
          "name": "_slippage",
          "type": "uint256"
        },
        {
          "internalType": "address",
          "name": "_swapHelper",
          "type": "address"
        }
      ],
      "name": "initialize",
      "outputs": [],
      "stateMutability": "nonpayable",
      "type": "function"
    },
    {
      "inputs": [
        {
          "internalType": "uint16",
          "name": "_srcChainId",
          "type": "uint16"
        },
        {
          "internalType": "bytes",
          "name": "_srcAddress",
          "type": "bytes"
        }
      ],
      "name": "isTrustedRemote",
      "outputs": [
        {
          "internalType": "bool",
          "name": "",
          "type": "bool"
        }
      ],
      "stateMutability": "view",
      "type": "function"
    },
    {
      "inputs": [],
      "name": "lzEndpoint",
      "outputs": [
        {
          "internalType": "contract ILayerZeroEndpointUpgradeable",
          "name": "",
          "type": "address"
        }
      ],
      "stateMutability": "view",
      "type": "function"
    },
    {
      "inputs": [
        {
          "internalType": "uint16",
          "name": "_srcChainId",
          "type": "uint16"
        },
        {
          "internalType": "bytes",
          "name": "_srcAddress",
          "type": "bytes"
        },
        {
          "internalType": "uint64",
          "name": "_nonce",
          "type": "uint64"
        },
        {
          "internalType": "bytes",
          "name": "_payload",
          "type": "bytes"
        }
      ],
      "name": "lzReceive",
      "outputs": [],
      "stateMutability": "nonpayable",
      "type": "function"
    },
    {
      "inputs": [
        {
          "internalType": "uint16",
          "name": "",
          "type": "uint16"
        },
        {
          "internalType": "uint16",
          "name": "",
          "type": "uint16"
        }
      ],
      "name": "minDstGasLookup",
      "outputs": [
        {
          "internalType": "uint256",
          "name": "",
          "type": "uint256"
        }
      ],
      "stateMutability": "view",
      "type": "function"
    },
    {
      "inputs": [],
      "name": "name",
      "outputs": [
        {
          "internalType": "string",
          "name": "",
          "type": "string"
        }
      ],
      "stateMutability": "pure",
      "type": "function"
    },
    {
      "inputs": [
        {
          "internalType": "uint16",
          "name": "_srcChainId",
          "type": "uint16"
        },
        {
          "internalType": "bytes",
          "name": "_srcAddress",
          "type": "bytes"
        },
        {
          "internalType": "uint64",
          "name": "_nonce",
          "type": "uint64"
        },
        {
          "internalType": "bytes",
          "name": "_payload",
          "type": "bytes"
        }
      ],
      "name": "nonblockingLzReceive",
      "outputs": [],
      "stateMutability": "nonpayable",
      "type": "function"
    },
    {
      "inputs": [
        {
          "internalType": "address",
          "name": "",
          "type": "address"
        },
        {
          "internalType": "address",
          "name": "",
          "type": "address"
        },
        {
          "internalType": "uint256",
          "name": "amountOut",
          "type": "uint256"
        },
        {
          "internalType": "uint256",
          "name": "",
          "type": "uint256"
        }
      ],
      "name": "notifyCallback",
      "outputs": [],
      "stateMutability": "nonpayable",
      "type": "function"
    },
    {
      "inputs": [],
      "name": "owner",
      "outputs": [
        {
          "internalType": "address",
          "name": "",
          "type": "address"
        }
      ],
      "stateMutability": "view",
      "type": "function"
    },
    {
      "inputs": [
        {
          "internalType": "uint16",
          "name": "",
          "type": "uint16"
        }
      ],
      "name": "payloadSizeLimitLookup",
      "outputs": [
        {
          "internalType": "uint256",
          "name": "",
          "type": "uint256"
        }
      ],
      "stateMutability": "view",
      "type": "function"
    },
    {
      "inputs": [],
      "name": "precrime",
      "outputs": [
        {
          "internalType": "address",
          "name": "",
          "type": "address"
        }
      ],
      "stateMutability": "view",
      "type": "function"
    },
    {
      "inputs": [],
      "name": "renounceOwnership",
      "outputs": [],
      "stateMutability": "nonpayable",
      "type": "function"
    },
    {
      "inputs": [],
      "name": "requestedQuoteHopToWant",
      "outputs": [
        {
          "internalType": "uint256",
          "name": "",
          "type": "uint256"
        }
      ],
      "stateMutability": "view",
      "type": "function"
    },
    {
      "inputs": [
        {
          "internalType": "uint16",
          "name": "_srcChainId",
          "type": "uint16"
        },
        {
          "internalType": "bytes",
          "name": "_srcAddress",
          "type": "bytes"
        },
        {
          "internalType": "uint64",
          "name": "_nonce",
          "type": "uint64"
        },
        {
          "internalType": "bytes",
          "name": "_payload",
          "type": "bytes"
        }
      ],
      "name": "retryMessage",
      "outputs": [],
      "stateMutability": "payable",
      "type": "function"
    },
    {
      "inputs": [],
      "name": "revokeFunds",
      "outputs": [],
      "stateMutability": "nonpayable",
      "type": "function"
    },
    {
      "inputs": [
        {
          "internalType": "uint16",
          "name": "_version",
          "type": "uint16"
        },
        {
          "internalType": "uint16",
          "name": "_chainId",
          "type": "uint16"
        },
        {
          "internalType": "uint256",
          "name": "_configType",
          "type": "uint256"
        },
        {
          "internalType": "bytes",
          "name": "_config",
          "type": "bytes"
        }
      ],
      "name": "setConfig",
      "outputs": [],
      "stateMutability": "nonpayable",
      "type": "function"
    },
    {
      "inputs": [
        {
          "internalType": "bool",
          "name": "_emergencyExit",
          "type": "bool"
        }
      ],
      "name": "setEmergencyExit",
      "outputs": [],
      "stateMutability": "nonpayable",
      "type": "function"
    },
    {
      "inputs": [
        {
          "internalType": "uint16",
          "name": "_dstChainId",
          "type": "uint16"
        },
        {
          "internalType": "uint16",
          "name": "_packetType",
          "type": "uint16"
        },
        {
          "internalType": "uint256",
          "name": "_minGas",
          "type": "uint256"
        }
      ],
      "name": "setMinDstGas",
      "outputs": [],
      "stateMutability": "nonpayable",
      "type": "function"
    },
    {
      "inputs": [
        {
          "internalType": "uint16",
          "name": "_dstChainId",
          "type": "uint16"
        },
        {
          "internalType": "uint256",
          "name": "_size",
          "type": "uint256"
        }
      ],
      "name": "setPayloadSizeLimit",
      "outputs": [],
      "stateMutability": "nonpayable",
      "type": "function"
    },
    {
      "inputs": [
        {
          "internalType": "address",
          "name": "_precrime",
          "type": "address"
        }
      ],
      "name": "setPrecrime",
      "outputs": [],
      "stateMutability": "nonpayable",
      "type": "function"
    },
    {
      "inputs": [
        {
          "internalType": "uint16",
          "name": "_version",
          "type": "uint16"
        }
      ],
      "name": "setReceiveVersion",
      "outputs": [],
      "stateMutability": "nonpayable",
      "type": "function"
    },
    {
      "inputs": [
        {
          "internalType": "uint16",
          "name": "_version",
          "type": "uint16"
        }
      ],
      "name": "setSendVersion",
      "outputs": [],
      "stateMutability": "nonpayable",
      "type": "function"
    },
    {
      "inputs": [
        {
          "internalType": "uint256",
          "name": "_slippage",
          "type": "uint256"
        }
      ],
      "name": "setSlippage",
      "outputs": [],
      "stateMutability": "nonpayable",
      "type": "function"
    },
    {
      "inputs": [
        {
          "internalType": "address",
          "name": "_strategist",
          "type": "address"
        }
      ],
      "name": "setStrategist",
      "outputs": [],
      "stateMutability": "nonpayable",
      "type": "function"
    },
    {
      "inputs": [
        {
          "internalType": "address",
          "name": "__swapHelper",
          "type": "address"
        }
      ],
      "name": "setSwapHelper",
      "outputs": [],
      "stateMutability": "nonpayable",
      "type": "function"
    },
    {
      "inputs": [
        {
          "internalType": "uint16",
          "name": "_srcChainId",
          "type": "uint16"
        },
        {
          "internalType": "bytes",
          "name": "_path",
          "type": "bytes"
        }
      ],
      "name": "setTrustedRemote",
      "outputs": [],
      "stateMutability": "nonpayable",
      "type": "function"
    },
    {
      "inputs": [
        {
          "internalType": "uint16",
          "name": "_remoteChainId",
          "type": "uint16"
        },
        {
          "internalType": "bytes",
          "name": "_remoteAddress",
          "type": "bytes"
        }
      ],
      "name": "setTrustedRemoteAddress",
      "outputs": [],
      "stateMutability": "nonpayable",
      "type": "function"
    },
    {
      "inputs": [],
      "name": "sgBridge",
      "outputs": [
        {
          "internalType": "contract ISgBridge",
          "name": "",
          "type": "address"
        }
      ],
      "stateMutability": "view",
      "type": "function"
    },
    {
      "inputs": [
        {
          "internalType": "uint16",
          "name": "",
          "type": "uint16"
        },
        {
          "internalType": "bytes",
          "name": "_srcAddress",
          "type": "bytes"
        },
        {
          "internalType": "uint256",
          "name": "",
          "type": "uint256"
        },
        {
          "internalType": "address",
          "name": "_token",
          "type": "address"
        },
        {
          "internalType": "uint256",
          "name": "_amountLD",
          "type": "uint256"
        },
        {
          "internalType": "bytes",
          "name": "",
          "type": "bytes"
        }
      ],
      "name": "sgReceive",
      "outputs": [],
      "stateMutability": "nonpayable",
      "type": "function"
    },
    {
      "inputs": [],
      "name": "sgRouter",
      "outputs": [
        {
          "internalType": "contract IStargateRouter",
          "name": "",
          "type": "address"
        }
      ],
      "stateMutability": "view",
      "type": "function"
    },
    {
      "inputs": [],
      "name": "slippage",
      "outputs": [
        {
          "internalType": "uint256",
          "name": "",
          "type": "uint256"
        }
      ],
      "stateMutability": "view",
      "type": "function"
    },
    {
      "inputs": [],
      "name": "strategist",
      "outputs": [
        {
          "internalType": "address",
          "name": "",
          "type": "address"
        }
      ],
      "stateMutability": "view",
      "type": "function"
    },
    {
      "inputs": [],
      "name": "strategistSignMessageHash",
      "outputs": [
        {
          "internalType": "bytes32",
          "name": "",
          "type": "bytes32"
        }
      ],
      "stateMutability": "view",
      "type": "function"
    },
    {
      "inputs": [],
      "name": "swapHelper",
      "outputs": [
        {
          "internalType": "contract IOraclizedSwapHelper",
          "name": "",
          "type": "address"
        }
      ],
      "stateMutability": "view",
      "type": "function"
    },
    {
      "inputs": [
        {
          "internalType": "contract IERC20",
          "name": "_token",
          "type": "address"
        }
      ],
      "name": "sweepToken",
      "outputs": [],
      "stateMutability": "nonpayable",
      "type": "function"
    },
    {
      "inputs": [
        {
          "internalType": "address",
          "name": "newOwner",
          "type": "address"
        }
      ],
      "name": "transferOwnership",
      "outputs": [],
      "stateMutability": "nonpayable",
      "type": "function"
    },
    {
      "inputs": [
        {
          "internalType": "uint16",
          "name": "",
          "type": "uint16"
        }
      ],
      "name": "trustedRemoteLookup",
      "outputs": [
        {
          "internalType": "bytes",
          "name": "",
          "type": "bytes"
        }
      ],
      "stateMutability": "view",
      "type": "function"
    },
    {
      "inputs": [],
      "name": "updateHopToWantBuffer",
      "outputs": [],
      "stateMutability": "nonpayable",
      "type": "function"
    },
    {
      "inputs": [],
      "name": "vault",
      "outputs": [
        {
          "internalType": "address",
          "name": "",
          "type": "address"
        }
      ],
      "stateMutability": "view",
      "type": "function"
    },
    {
      "inputs": [],
      "name": "vaultChainId",
      "outputs": [
        {
          "internalType": "uint16",
          "name": "",
          "type": "uint16"
        }
      ],
      "stateMutability": "view",
      "type": "function"
    },
    {
      "inputs": [],
      "name": "want",
      "outputs": [
        {
          "internalType": "contract IERC20",
          "name": "",
          "type": "address"
        }
      ],
      "stateMutability": "view",
      "type": "function"
    },
    {
      "inputs": [],
      "name": "wantDecimals",
      "outputs": [
        {
          "internalType": "uint8",
          "name": "",
          "type": "uint8"
        }
      ],
      "stateMutability": "view",
      "type": "function"
    },
    {
      "stateMutability": "payable",
      "type": "receive"
    }
  ],
  "bytecode": "0x608060405234801561001057600080fd5b50614efb806100206000396000f3fe60806040526004361061027e5760003560e01c80621d35671461028a5780630517cb76146102ac57806306fdde03146102e257806307e0db171461031f57806308a054ab1461033f5780630df37483146103545780630fc6a11c1461037457806310ddb137146103945780631be19560146103b45780631f1fcd51146103d45780631fe4a686146103f45780632d6068431461041457806337fded91146104295780633d3ccc2f1461044e5780633d8b38f61461046e5780633e032a3b1461049e5780633f1f4fa4146104c257806342d65a8d146104ef57806345ee07551461050f578063495f881e1461052f5780635641ec031461054f578063567ad85d14610569578063593178de1461059e5780635b8c41e6146105b357806366ad5c8a146106025780636cbadbfa14610622578063715018a6146106445780637533d788146106595780638cfd8f5c146106795780638da5cb5b146106b1578063950c8a74146106c65780639606647d146106e65780639f38369a146106fb578063a6c3d1651461071b578063ab8236f31461073b578063adf076e61461075b578063b353aaa71461078e578063b4098b26146107ae578063baf3292d146107c4578063c1a3d44c146107e4578063c4461834146107f9578063c7b9d5301461080f578063cbed8b9c1461082f578063d1deba1f1461084f578063d73cd47f14610862578063df2a5b3b14610882578063e578781c146108a2578063e73620c3146108c2578063eb8d72b7146108e2578063efbb5cb014610902578063f056dffe14610917578063f0fa55a914610937578063f2fde38b14610957578063f5ecbdbc14610977578063fa54080114610997578063fbfa77cf146109b757600080fd5b3661028557005b600080fd5b34801561029657600080fd5b506102aa6102a5366004613dfe565b6109d7565b005b3480156102b857600080fd5b5060ce546102cc906001600160a01b031681565b6040516102d99190613e91565b60405180910390f35b3480156102ee57600080fd5b5060408051808201909152600b81526a486f70537472617465677960a81b60208201525b6040516102d99190613ef5565b34801561032b57600080fd5b506102aa61033a366004613f08565b610ac0565b34801561034b57600080fd5b506102aa610b2d565b34801561036057600080fd5b506102aa61036f366004613f23565b610b3f565b34801561038057600080fd5b5060d1546102cc906001600160a01b031681565b3480156103a057600080fd5b506102aa6103af366004613f08565b610b5e565b3480156103c057600080fd5b506102aa6103cf366004613f62565b610b9a565b3480156103e057600080fd5b5060ca546102cc906001600160a01b031681565b34801561040057600080fd5b5060c9546102cc906001600160a01b031681565b34801561042057600080fd5b506102aa610c27565b34801561043557600080fd5b5060cd546102cc9061010090046001600160a01b031681565b34801561045a57600080fd5b506102aa610469366004613f7f565b610c68565b34801561047a57600080fd5b5061048e610489366004613f98565b610c9e565b60405190151581526020016102d9565b3480156104aa57600080fd5b506104b460cc5481565b6040519081526020016102d9565b3480156104ce57600080fd5b506104b46104dd366004613f08565b60686020526000908152604090205481565b3480156104fb57600080fd5b506102aa61050a366004613f98565b610d6a565b34801561051b57600080fd5b506102aa61052a366004613ff8565b610ddd565b34801561053b57600080fd5b506102aa61054a366004614100565b610df8565b34801561055b57600080fd5b5060cd5461048e9060ff1681565b34801561057557600080fd5b5060cb5461058b90600160a01b900461ffff1681565b60405161ffff90911681526020016102d9565b3480156105aa57600080fd5b506104b461109c565b3480156105bf57600080fd5b506104b46105ce366004614163565b6097602090815260009384526040808520845180860184018051928152908401958401959095209452929052825290205481565b34801561060e57600080fd5b506102aa61061d366004613dfe565b6110fa565b34801561062e57600080fd5b5060cb5461058b90600160b01b900461ffff1681565b34801561065057600080fd5b506102aa6111ce565b34801561066557600080fd5b50610312610674366004613f08565b6111e0565b34801561068557600080fd5b506104b46106943660046141c0565b606760209081526000928352604080842090915290825290205481565b3480156106bd57600080fd5b506102cc61127a565b3480156106d257600080fd5b506069546102cc906001600160a01b031681565b3480156106f257600080fd5b506102aa611289565b34801561070757600080fd5b50610312610716366004613f08565b61131c565b34801561072757600080fd5b506102aa610736366004613f98565b611432565b34801561074757600080fd5b506102aa6107563660046141f3565b6114bb565b34801561076757600080fd5b5060cb5461077c90600160c01b900460ff1681565b60405160ff90911681526020016102d9565b34801561079a57600080fd5b506065546102cc906001600160a01b031681565b3480156107ba57600080fd5b506104b460d25481565b3480156107d057600080fd5b506102aa6107df366004613f62565b6115b9565b3480156107f057600080fd5b506104b461160c565b34801561080557600080fd5b506104b461271081565b34801561081b57600080fd5b506102aa61082a366004613f62565b611683565b34801561083b57600080fd5b506102aa61084a36600461428d565b6116ad565b6102aa61085d366004613dfe565b611726565b34801561086e57600080fd5b506102aa61087d366004613f62565b61193c565b34801561088e57600080fd5b506102aa61089d3660046142fb565b611966565b3480156108ae57600080fd5b506102aa6108bd366004614337565b611a18565b3480156108ce57600080fd5b506102aa6108dd366004613f7f565b611c38565b3480156108ee57600080fd5b506102aa6108fd366004613f98565b611c58565b34801561090e57600080fd5b506104b4611cb2565b34801561092357600080fd5b506102aa6109323660046143e8565b611ce3565b34801561094357600080fd5b506102aa610952366004613f7f565b611d16565b34801561096357600080fd5b506102aa610972366004613f62565b611d23565b34801561098357600080fd5b5061031261099236600461442e565b611d99565b3480156109a357600080fd5b506104b46109b2366004613f7f565b611e2e565b3480156109c357600080fd5b5060cb546102cc906001600160a01b031681565b6065546001600160a01b03163314610a425760405162461bcd60e51b815260206004820152602360248201527f4261736553747261746567793a3a496e76616c6964456e64706f696e7443616c6044820152623632b960e91b60648201526084015b60405180910390fd5b610ab88686868080601f01602080910402602001604051908101604052809392919081815260200183838082843760009201919091525050604080516020601f890181900481028201810190925287815289935091508790879081908401838280828437600092019190915250611e8092505050565b505050505050565b610ac8611ef9565b6065546040516307e0db1760e01b815261ffff831660048201526001600160a01b03909116906307e0db17906024015b600060405180830381600087803b158015610b1257600080fd5b505af1158015610b26573d6000803e3d6000fd5b5050505050565b610b3d610b38611f58565b611f8a565b565b610b47611ef9565b61ffff909116600090815260686020526040902055565b610b66611ef9565b6065546040516310ddb13760e01b815261ffff831660048201526001600160a01b03909116906310ddb13790602401610af8565b610ba2611fdf565b610c2433826001600160a01b03166370a08231306040518263ffffffff1660e01b8152600401610bd29190613e91565b602060405180830381865afa158015610bef573d6000803e3d6000fd5b505050506040513d601f19601f82011682018060405250810190610c13919061447b565b6001600160a01b0384169190612038565b50565b610c2f611fdf565b60c9546040516001600160a01b03909116904780156108fc02916000818181858888f19350505050158015610c24573d6000803e3d6000fd5b610c70611fdf565b610c7981612093565b604051818152600080516020614ea6833981519152906020015b60405180910390a150565b61ffff831660009081526066602052604081208054829190610cbf90614494565b80601f0160208091040260200160405190810160405280929190818152602001828054610ceb90614494565b8015610d385780601f10610d0d57610100808354040283529160200191610d38565b820191906000526020600020905b815481529060010190602001808311610d1b57829003601f168201915b505050505090508383604051610d4f9291906144ce565b60405180910390208180519060200120149150509392505050565b610d72611ef9565b6065546040516342d65a8d60e01b81526001600160a01b03909116906342d65a8d90610da690869086908690600401614507565b600060405180830381600087803b158015610dc057600080fd5b505af1158015610dd4573d6000803e3d6000fd5b50505050505050565b610de5611fdf565b60cd805460ff1916911515919091179055565b610e00611fdf565b610e098161231d565b60cd546000908190819060ff1615610eb5578415610e695760405162461bcd60e51b815260206004820152601e60248201527f4261736553747261746567793a3a44656274526174696f4e6f745a65726f00006044820152606401610a39565b6000610e736123a3565b905087811015610e8e57610e87818961453b565b9250610ea3565b87811115610ea357610ea0888261453b565b93505b610ead838961453b565b915050610ec7565b610ebf888861250c565b919450925090505b6000610ed3828561454e565b905060008088831015610ef557610eea838a61453b565b915060009050610f06565b60009150610f03898461453b565b90505b6000604051806101600160405280306001600160a01b031681526020014281526020018881526020018781526020018681526020018481526020018381526020018b815260200183610f56611cb2565b610f60919061453b565b815260200160d06000815480929190610f7890614561565b90915550815260200189905290508115610fd85760cb54604051610fd391849161ffff600160a01b830416916001600160a01b031690610fbf9060029087906020016145b2565b604051602081830303815290604052612603565b611003565b611003600282604051602001610fef9291906145b2565b6040516020818303038152906040526126dd565b7fb983e09c034e9c52b5e547cb0589967992b97717733f580cc5ad0afcdc4b522b8160400151826060015183608001518460a001518560c001518660e001518761010001516040516110869796959493929190968752602087019590955260408601939093526060850191909152608084015260a083015260c082015260e00190565b60405180910390a1505050505050505050505050565b60d05460cb546040513060601b6001600160601b03191660208201526034810192909252600160b01b900460f01b6001600160f01b031916605482015260009060560160405160208183030381529060405280519060200120905090565b3330146111585760405162461bcd60e51b815260206004820152602660248201527f4e6f6e626c6f636b696e674c7a4170703a2063616c6c6572206d7573742062656044820152650204c7a4170760d41b6064820152608401610a39565b610ab88686868080601f01602080910402602001604051908101604052809392919081815260200183838082843760009201919091525050604080516020601f89018190048102820181019092528781528993509150879087908190840183828082843760009201919091525061285d92505050565b6111d6611ef9565b610b3d6000612973565b606660205260009081526040902080546111f990614494565b80601f016020809104026020016040519081016040528092919081815260200182805461122590614494565b80156112725780601f1061124757610100808354040283529160200191611272565b820191906000526020600020905b81548152906001019060200180831161125557829003601f168201915b505050505081565b6033546001600160a01b031690565b611291611fdf565b60ca546040516370a0823160e01b8152610b3d916001916001600160a01b03909116906370a08231906112c8903090600401613e91565b602060405180830381865afa1580156112e5573d6000803e3d6000fd5b505050506040513d601f19601f82011682018060405250810190611309919061447b565b60ca546001600160a01b03169190612038565b61ffff811660009081526066602052604081208054606092919061133f90614494565b80601f016020809104026020016040519081016040528092919081815260200182805461136b90614494565b80156113b85780601f1061138d576101008083540402835291602001916113b8565b820191906000526020600020905b81548152906001019060200180831161139b57829003601f168201915b5050505050905080516000036114105760405162461bcd60e51b815260206004820152601d60248201527f4c7a4170703a206e6f20747275737465642070617468207265636f72640000006044820152606401610a39565b61142b600060148351611423919061453b565b8391906129c5565b9392505050565b61143a611ef9565b81813060405160200161144f9392919061466e565b60408051601f1981840301815291815261ffff851660009081526066602052209061147a90826146ea565b507f8c0400cfe2d1199b1a725c78960bcc2a344d869b80590d0f2bd005db15a572ce8383836040516114ae93929190614507565b60405180910390a1505050565b60ce546001600160a01b03163314806114e3575060cd5461010090046001600160a01b031633145b61152e5760405162461bcd60e51b815260206004820152601c60248201527b53674272696467653a3a526f757465724f724272696467654f6e6c7960201b6044820152606401610a39565b600061153c868260146129c5565b60405160200161154c91906147a3565b604051602081830303815290604052611564906147bf565b6040805185815260609290921c6020830181905292506001600160a01b038616917f92073a89a07a000083eb8b2575fc15e7bb936efe55d00727d6942a796d7211a7910160405180910390a250505050505050565b6115c1611ef9565b606980546001600160a01b0319166001600160a01b0383161790556040517f5db758e995a17ec1ad84bdef7e8c3293a0bd6179bcce400dff5d4c3d87db726b90610c93908390613e91565b60ca546040516370a0823160e01b81526000916001600160a01b0316906370a082319061163d903090600401613e91565b602060405180830381865afa15801561165a573d6000803e3d6000fd5b505050506040513d601f19601f8201168201806040525081019061167e919061447b565b905090565b61168b611ef9565b60c980546001600160a01b0319166001600160a01b0392909216919091179055565b6116b5611ef9565b6065546040516332fb62e760e21b81526001600160a01b039091169063cbed8b9c906116ed90889088908890889088906004016147f6565b600060405180830381600087803b15801561170757600080fd5b505af115801561171b573d6000803e3d6000fd5b505050505050505050565b61ffff8616600090815260976020526040808220905161174990889088906144ce565b90815260408051602092819003830190206001600160401b038716600090815292529020549050806117c95760405162461bcd60e51b815260206004820152602360248201527f4e6f6e626c6f636b696e674c7a4170703a206e6f2073746f726564206d65737360448201526261676560e81b6064820152608401610a39565b8083836040516117da9291906144ce565b6040518091039020146118395760405162461bcd60e51b815260206004820152602160248201527f4e6f6e626c6f636b696e674c7a4170703a20696e76616c6964207061796c6f616044820152601960fa1b6064820152608401610a39565b61ffff8716600090815260976020526040808220905161185c90899089906144ce565b90815260408051602092819003830181206001600160401b038916600090815290845282902093909355601f880182900482028301820190528682526118f4918991899089908190840183828082843760009201919091525050604080516020601f8a018190048102820181019092528881528a93509150889088908190840183828082843760009201919091525061285d92505050565b7fc264d91f3adc5588250e1551f547752ca0cfa8f6b530d243b9f9f4cab10ea8e5878787878560405161192b959493929190614824565b60405180910390a150505050505050565b611944612ad2565b60d180546001600160a01b0319166001600160a01b0392909216919091179055565b61196e611ef9565b600081116119b65760405162461bcd60e51b81526020600482015260156024820152744c7a4170703a20696e76616c6964206d696e47617360581b6044820152606401610a39565b61ffff83811660008181526067602090815260408083209487168084529482529182902085905581519283528201929092529081018290527f9d5c7c0b934da8fefa9c7760c98383778a12dfbfc0c3b3106518f43fb9508ac0906060016114ae565b600054610100900460ff1615808015611a385750600054600160ff909116105b80611a595750611a4730612b41565b158015611a59575060005460ff166001145b611abc5760405162461bcd60e51b815260206004820152602e60248201527f496e697469616c697a61626c653a20636f6e747261637420697320616c72656160448201526d191e481a5b9a5d1a585b1a5e995960921b6064820152608401610a39565b6000805460ff191660011790558015611adf576000805461ff0019166101001790555b611af08a8a8a8a8a468b8b8b612b50565b60d180546001600160a01b0319166001600160a01b038416179055611b3a73b67c014fa700e69681a673876eb8bafaa36bff71600080516020614e66833981519152600019612d23565b611b6973b67c014fa700e69681a673876eb8bafaa36bff71600080516020614e86833981519152600019612d23565b611b9e73c5102fe9359fd9a28f877a67e36b0f050d81a3cc73e592427a0aece92de3edee1f18e0157c05861564600019612d23565b611bbf73c5102fe9359fd9a28f877a67e36b0f050d81a3cc83600019612d23565b60ca54611be6906001600160a01b0316600080516020614e86833981519152600019612d23565b8015611c2c576000805461ff0019169055604051600181527f7f26b83ff96e1f2b6a682f133852f6798a09c465da95921460cefb38474024989060200160405180910390a15b50505050505050505050565b611c40611ef9565b600090815260cf60205260409020805460ff19169055565b611c60611ef9565b61ffff83166000908152606660205260409020611c7e82848361485f565b507ffa41487ad5d6728f0b19276fa1eddc16558578f5109fc39d2dc33c3230470dab8383836040516114ae93929190614507565b600060d254611cbf61160c565b611ccf611cca612e27565b612e5b565b611cd9919061454e565b61167e919061454e565b60d1546001600160a01b03163314611d0e57604051630336158960e61b815260040160405180910390fd5b5060d2555050565b611d1e611fdf565b60cc55565b611d2b611ef9565b6001600160a01b038116611d905760405162461bcd60e51b815260206004820152602660248201527f4f776e61626c653a206e6577206f776e657220697320746865207a65726f206160448201526564647265737360d01b6064820152608401610a39565b610c2481612973565b606554604051633d7b2f6f60e21b815261ffff808716600483015285166024820152306044820152606481018390526060916001600160a01b03169063f5ecbdbc90608401600060405180830381865afa158015611dfb573d6000803e3d6000fd5b505050506040513d6000823e601f3d908101601f19168201604052611e239190810190614918565b90505b949350505050565b6040517b0ca2ba3432b932bab69029b4b3b732b21026b2b9b9b0b3b29d05199960211b6020820152603c8101829052600090605c01604051602081830303815290604052805190602001209050919050565b600080611ee35a60966366ad5c8a60e01b89898989604051602401611ea89493929190614985565b60408051601f198184030181529190526020810180516001600160e01b03166001600160e01b03199093169290921790915230929190612eee565b9150915081610ab857610ab88686868685612f7a565b33611f0261127a565b6001600160a01b031614610b3d5760405162461bcd60e51b815260206004820181905260248201527f4f776e61626c653a2063616c6c6572206973206e6f7420746865206f776e65726044820152606401610a39565b6040516246613160e11b8152600090600080516020614e6683398151915290628cc2629061163d903090600401613e91565b60d15460ca54604051634d1dde7b60e01b815273c5102fe9359fd9a28f877a67e36b0f050d81a3cc60048201526001600160a01b03918216602482015260448101849052911690634d1dde7b90606401610af8565b60c9546001600160a01b03163314610b3d5760405162461bcd60e51b815260206004820152601c60248201527b10985cd954dd1c985d1959de4e8e93db9b1e54dd1c985d1959da5cdd60221b6044820152606401610a39565b61208e8363a9059cbb60e01b84846040516024016120579291906149c3565b60408051601f198184030181529190526020810180516001600160e01b03166001600160e01b031990931692909217909152613017565b505050565b60cd5460ff16156120a15750565b6120a96130ec565b60006120b361160c565b90506000828211156120cc576120c9838361453b565b90505b801561208e576040805160028082526060820183526000926020830190803683370190505090508181600081518110612107576121076149dc565b602002602001018181525050600081600181518110612128576121286149dc565b602090810291909101015260cc5460405163f9273ffb60e01b815260009161271091600080516020614e868339815191529063f9273ffb906121739030908890600190600401614a2d565b602060405180830381865afa158015612190573d6000803e3d6000fd5b505050506040513d601f19601f820116820180604052508101906121b4919061447b565b6121be9190614a63565b6121c89190614a7a565b604051634d49e87d60e01b8152909150600080516020614e8683398151915290634d49e87d9061220090859085904290600401614a9c565b6020604051808303816000875af115801561221f573d6000803e3d6000fd5b505050506040513d601f19601f82011682018060405250810190612243919061447b565b506040516370a0823160e01b815260009073b67c014fa700e69681a673876eb8bafaa36bff71906370a082319061227e903090600401613e91565b602060405180830381865afa15801561229b573d6000803e3d6000fd5b505050506040513d601f19601f820116820180604052508101906122bf919061447b565b60405163534a7e1d60e11b815260048101829052909150600080516020614e668339815191529063a694fc3a90602401600060405180830381600087803b15801561230957600080fd5b505af1158015611c2c573d6000803e3d6000fd5b600061232761109c565b9050600061233482611e2e565b60c9549091506001600160a01b031661234d82856131ce565b6001600160a01b03161461208e5760405162461bcd60e51b815260206004820152601e60248201527f4261736553747261746567793a3a496e76616c69645369676e617475726500006044820152606401610a39565b60006123ad6130ec565b60006123b761160c565b604051632e1a7d4d60e01b815260048101829052909150600080516020614e6683398151915290632e1a7d4d90602401600060405180830381600087803b15801561240157600080fd5b505af1158015612415573d6000803e3d6000fd5b50506040516301f1d0ab60e51b8152600080516020614e868339815191529250633e3a1560915061245190849060009081904290600401614ac1565b6020604051808303816000875af1158015612470573d6000803e3d6000fd5b505050506040513d601f19601f82011682018060405250810190612494919061447b565b5060ca546040516370a0823160e01b81526001600160a01b03909116906370a08231906124c5903090600401613e91565b602060405180830381865afa1580156124e2573d6000803e3d6000fd5b505050506040513d601f19601f82011682018060405250810190612506919061447b565b91505090565b60008060008061251a611cb2565b90508581106125385761252d868261453b565b935060009250612549565b60009350612546818761453b565b92505b61255b612556858761454e565b6131f2565b505060ca546040516370a0823160e01b81526000916001600160a01b0316906370a082319061258e903090600401613e91565b602060405180830381865afa1580156125ab573d6000803e3d6000fd5b505050506040513d601f19601f820116820180604052508101906125cf919061447b565b90508481116125e457809450600092506125fa565b6125f76125f1868361453b565b87613327565b92505b50509250925092565b60cd54604051630dc6346160e01b815260009161010090046001600160a01b031690630dc634619061263d90879087908790600401614adf565b602060405180830381865afa15801561265a573d6000803e3d6000fd5b505050506040513d601f19601f8201168201806040525081019061267e919061447b565b60cd5460ca54604051633920455b60e11b81529293506001600160a01b036101009092048216926372408ab69285926126c4929116908a908a908a908a90600401614b0d565b6000604051808303818588803b15801561230957600080fd5b60cb5460408051606083811b6001600160601b03199081166020840152309182901b16603483015282516028818403018152604890920190925260655490926000926001600160a01b03909216916340a7bb109161ffff600160a01b9091041690868561274861333d565b6040518663ffffffff1660e01b8152600401612768959493929190614b4a565b6040805180830381865afa158015612784573d6000803e3d6000fd5b505050506040513d601f19601f820116820180604052508101906127a89190614b9e565b509050804710156127d45760405162fae2d560e21b815260048101829052476024820152604401610a39565b60655460cb546001600160a01b039091169063c5803100908390600160a01b900461ffff168587308061280561333d565b6040518863ffffffff1660e01b815260040161282696959493929190614bc2565b6000604051808303818588803b15801561283f57600080fd5b505af1158015612853573d6000803e3d6000fd5b5050505050505050565b60cb5461ffff858116600160a01b90920416146128c75760405162461bcd60e51b815260206004820152602260248201527f4261736553747261746567793a3a5661756c74436861696e49644d69736d61746044820152610c6d60f31b6064820152608401610a39565b60006128d5848260146129c5565b6040516020016128e591906147a3565b6040516020818303038152906040526128fd906147bf565b60cb5460609190911c91506001600160a01b0316811461296a5760405162461bcd60e51b815260206004820152602260248201527f4261736553747261746567793a3a5661756c74416464726573734d69736d61746044820152610c6d60f31b6064820152608401610a39565b610b268261336d565b603380546001600160a01b038381166001600160a01b0319831681179093556040519116919082907f8be0079c531659141344cd1fd0a4f28419497f9722a3daafe3b4186f6b6457e090600090a35050565b6060816129d381601f61454e565b1015612a125760405162461bcd60e51b815260206004820152600e60248201526d736c6963655f6f766572666c6f7760901b6044820152606401610a39565b612a1c828461454e565b84511015612a605760405162461bcd60e51b8152602060048201526011602482015270736c6963655f6f75744f66426f756e647360781b6044820152606401610a39565b606082158015612a7f5760405191506000825260208201604052612ac9565b6040519150601f8416801560200281840101858101878315602002848b0101015b81831015612ab8578051835260209283019201612aa0565b5050858452601f01601f1916604052505b50949350505050565b60c9546001600160a01b0316331480612aea57503330145b610b3d5760405162461bcd60e51b815260206004820152602260248201527f4261736553747261746567793a3a4f6e6c79537472617465676973744f725365604482015261363360f11b6064820152608401610a39565b6001600160a01b03163b151590565b600054610100900460ff16612b775760405162461bcd60e51b8152600401610a3990614c29565b612b808961349a565b60c980546001600160a01b03808b166001600160a01b03199283161790925560ca80548a8416908316811790915560cb8054938a1661ffff8a16600160a01b029093166001600160b01b0319909416939093179190911790915560cc8290556040805163313ce56760e01b8152905163313ce567916004808201926020929091908290030181865afa158015612c1a573d6000803e3d6000fd5b505050506040513d601f19601f82011682018060405250810190612c3e9190614c74565b60cb8054600060d05562ffffff60b01b1916600160c01b60ff939093169290920261ffff60b01b191691909117600160b01b61ffff87160217905560cd8054610100600160a81b0319166101006001600160a01b03868116919091029190911790915560ce80546001600160a01b03191684831617905560ca5460405163095ea7b360e01b815291169063095ea7b390612ce0908690600019906004016149c3565b6020604051808303816000875af1158015612cff573d6000803e3d6000fd5b505050506040513d601f19601f82011682018060405250810190611c2c9190614c97565b801580612d9d5750604051636eb1769f60e11b81523060048201526001600160a01b03838116602483015284169063dd62ed3e90604401602060405180830381865afa158015612d77573d6000803e3d6000fd5b505050506040513d601f19601f82011682018060405250810190612d9b919061447b565b155b612e085760405162461bcd60e51b815260206004820152603660248201527f5361666545524332303a20617070726f76652066726f6d206e6f6e2d7a65726f60448201527520746f206e6f6e2d7a65726f20616c6c6f77616e636560501b6064820152608401610a39565b61208e8363095ea7b360e01b84846040516024016120579291906149c3565b6040516370a0823160e01b8152600090600080516020614e66833981519152906370a082319061163d903090600401613e91565b600081600003612e6d57506000919050565b604051630262267d60e61b81523060048201526024810183905260006044820152600080516020614e86833981519152906398899f4090606401602060405180830381865afa158015612ec4573d6000803e3d6000fd5b505050506040513d601f19601f82011682018060405250810190612ee8919061447b565b92915050565b6000606060008060008661ffff166001600160401b03811115612f1357612f13614015565b6040519080825280601f01601f191660200182016040528015612f3d576020820181803683370190505b50905060008087516020890160008d8df191503d925086831115612f5f578692505b828152826000602083013e9093509150505b94509492505050565b8180519060200120609760008761ffff1661ffff16815260200190815260200160002085604051612fab91906147a3565b9081526040805191829003602090810183206001600160401b0388166000908152915220919091557fe183f33de2837795525b4792ca4cd60535bd77c53b7e7030060bfcf5734d6b0c906130089087908790879087908790614cb4565b60405180910390a15050505050565b600061306c826040518060400160405280602081526020017f5361666545524332303a206c6f772d6c6576656c2063616c6c206661696c6564815250856001600160a01b03166134d29092919063ffffffff16565b905080516000148061308d57508080602001905181019061308d9190614c97565b61208e5760405162461bcd60e51b815260206004820152602a60248201527f5361666545524332303a204552433230206f7065726174696f6e20646964206e6044820152691bdd081cdd58d8d9595960b21b6064820152608401610a39565b600080516020614e668339815191526001600160a01b0316633d18b9126040518163ffffffff1660e01b8152600401600060405180830381600087803b15801561313557600080fd5b505af1158015613149573d6000803e3d6000fd5b50506040516370a0823160e01b8152610b3d925073c5102fe9359fd9a28f877a67e36b0f050d81a3cc91506370a0823190613188903090600401613e91565b602060405180830381865afa1580156131a5573d6000803e3d6000fd5b505050506040513d601f19601f820116820180604052508101906131c9919061447b565b6134e1565b60008060006131dd85856135a2565b915091506131ea816135e7565b509392505050565b60ca546040516370a0823160e01b8152600091829182916001600160a01b0316906370a0823190613227903090600401613e91565b602060405180830381865afa158015613244573d6000803e3d6000fd5b505050506040513d601f19601f82011682018060405250810190613268919061447b565b905083811061327c57509192600092509050565b61328e613289828661453b565b61372c565b60ca546040516370a0823160e01b81526001600160a01b03909116906370a08231906132be903090600401613e91565b602060405180830381865afa1580156132db573d6000803e3d6000fd5b505050506040513d601f19601f820116820180604052508101906132ff919061447b565b90508084111561331d57915081613316818561453b565b9150613321565b8392505b50915091565b6000818310613336578161142b565b5090919050565b60408051600160f01b6020820152620f424060228083019190915282518083039091018152604290910190915290565b6000818060200190518101906133839190614d06565b905060038160048111156133995761339961457a565b036133ec576000828060200190518101906133b49190614d27565b9150506133c48160000151612093565b8051604051908152600080516020614ea68339815191529060200160405180910390a1505050565b60008160048111156134005761340061457a565b036134275760008280602001905181019061341b9190614d6a565b91505061208e81613770565b600481600481111561343b5761343b61457a565b03613496576000828060200190518101906134569190614dd5565b915050613466816000015161389a565b80516040517f7c9a2d2ec51230d7dbed27f113a325b7e20aef7b049e68b2339257b5edff5bea916114ae91613e91565b5050565b600054610100900460ff166134c15760405162461bcd60e51b8152600401610a3990614c29565b6134c96138d9565b610c2481613909565b6060611e268484600085613952565b806000036134ec5750565b600061271060cc5460646135009190614a63565b61350a9190614a7a565b60d1546040516310cabd1d60e01b815273c5102fe9359fd9a28f877a67e36b0f050d81a3cc600482015273ff970a61a04b1ca14834a43f5de4533ebddb5cc860248201526044810185905260ff831660648201529192506001600160a01b0316906310cabd1d90608401600060405180830381600087803b15801561358e57600080fd5b505af1158015610ab8573d6000803e3d6000fd5b60008082516041036135d85760208301516040840151606085015160001a6135cc87828585613a2d565b945094505050506135e0565b506000905060025b9250929050565b60008160048111156135fb576135fb61457a565b036136035750565b60018160048111156136175761361761457a565b0361365f5760405162461bcd60e51b815260206004820152601860248201527745434453413a20696e76616c6964207369676e617475726560401b6044820152606401610a39565b60028160048111156136735761367361457a565b036136c05760405162461bcd60e51b815260206004820152601f60248201527f45434453413a20696e76616c6964207369676e6174757265206c656e677468006044820152606401610a39565b60038160048111156136d4576136d461457a565b03610c245760405162461bcd60e51b815260206004820152602260248201527f45434453413a20696e76616c6964207369676e6174757265202773272076616c604482015261756560f01b6064820152608401610a39565b806000036137375750565b60d254818110613749576134966130ec565b6000613765613756612e27565b613760848661453b565b613327565b905061208e81613ad7565b602080820151600090815260cf909152604090205460ff16156137d55760405162461bcd60e51b815260206004820152601e60248201527f4261736553747261746567793a3a416c726561647957697468647261776e00006044820152606401610a39565b6000806137e583600001516131f2565b91509150600060016040518060800160405280306001600160a01b03168152602001858152602001848152602001866020015181525060405160200161382c929190614e23565b60408051601f198184030181529190529050821561386d5760cb5461386890849061ffff600160a01b820416906001600160a01b031684612603565b613876565b613876816126dd565b505050602090810151600090815260cf90915260409020805460ff19166001179055565b6138a381613ccf565b60ca546040516370a0823160e01b8152610c249183916001600160a01b03909116906370a08231906112c8903090600401613e91565b600054610100900460ff166139005760405162461bcd60e51b8152600401610a3990614c29565b610b3d33612973565b600054610100900460ff166139305760405162461bcd60e51b8152600401610a3990614c29565b606580546001600160a01b0319166001600160a01b0392909216919091179055565b6060824710156139b35760405162461bcd60e51b815260206004820152602660248201527f416464726573733a20696e73756666696369656e742062616c616e636520666f6044820152651c8818d85b1b60d21b6064820152608401610a39565b600080866001600160a01b031685876040516139cf91906147a3565b60006040518083038185875af1925050503d8060008114613a0c576040519150601f19603f3d011682016040523d82523d6000602084013e613a11565b606091505b5091509150613a2287838387613cf3565b979650505050505050565b6000806fa2a8918ca85bafe22016d0b997e4df60600160ff1b03831115613a5a5750600090506003612f71565b600060018787878760405160008152602001604052604051613a7f9493929190614ac1565b6020604051602081039080840390855afa158015613aa1573d6000803e3d6000fd5b5050604051601f1901519150506001600160a01b038116613aca57600060019250925050612f71565b9660009650945050505050565b613adf6130ec565b6040805160028082526060820183526000926020830190803683370190505090508181600081518110613b1457613b146149dc565b602002602001018181525050600081600181518110613b3557613b356149dc565b602090810291909101015260405163f9273ffb60e01b8152600090600080516020614e868339815191529063f9273ffb90613b7890309086908690600401614a2d565b602060405180830381865afa158015613b95573d6000803e3d6000fd5b505050506040513d601f19601f82011682018060405250810190613bb9919061447b565b9050613bc361160c565b811115613bd557613bd261160c565b90505b604051632e1a7d4d60e01b815260048101829052600080516020614e6683398151915290632e1a7d4d90602401600060405180830381600087803b158015613c1c57600080fd5b505af1158015613c30573d6000803e3d6000fd5b50505050600061271060cc5485613c479190614a63565b613c519190614a7a565b6040516301f1d0ab60e51b8152909150600080516020614e8683398151915290633e3a156090613c8c90859060009086904290600401614ac1565b6020604051808303816000875af1158015613cab573d6000803e3d6000fd5b505050506040513d601f19601f82011682018060405250810190610b26919061447b565b6000613cd96123a3565b60ca54909150613496906001600160a01b03168383612038565b60608315613d60578251600003613d5957613d0d85612b41565b613d595760405162461bcd60e51b815260206004820152601d60248201527f416464726573733a2063616c6c20746f206e6f6e2d636f6e74726163740000006044820152606401610a39565b5081611e26565b611e268383815115613d755781518083602001fd5b8060405162461bcd60e51b8152600401610a399190613ef5565b803561ffff81168114613da157600080fd5b919050565b60008083601f840112613db857600080fd5b5081356001600160401b03811115613dcf57600080fd5b6020830191508360208285010111156135e057600080fd5b80356001600160401b0381168114613da157600080fd5b60008060008060008060808789031215613e1757600080fd5b613e2087613d8f565b955060208701356001600160401b0380821115613e3c57600080fd5b613e488a838b01613da6565b9097509550859150613e5c60408a01613de7565b94506060890135915080821115613e7257600080fd5b50613e7f89828a01613da6565b979a9699509497509295939492505050565b6001600160a01b0391909116815260200190565b60005b83811015613ec0578181015183820152602001613ea8565b50506000910152565b60008151808452613ee1816020860160208601613ea5565b601f01601f19169290920160200192915050565b60208152600061142b6020830184613ec9565b600060208284031215613f1a57600080fd5b61142b82613d8f565b60008060408385031215613f3657600080fd5b613f3f83613d8f565b946020939093013593505050565b6001600160a01b0381168114610c2457600080fd5b600060208284031215613f7457600080fd5b813561142b81613f4d565b600060208284031215613f9157600080fd5b5035919050565b600080600060408486031215613fad57600080fd5b613fb684613d8f565b925060208401356001600160401b03811115613fd157600080fd5b613fdd86828701613da6565b9497909650939450505050565b8015158114610c2457600080fd5b60006020828403121561400a57600080fd5b813561142b81613fea565b634e487b7160e01b600052604160045260246000fd5b604051602081016001600160401b038111828210171561404d5761404d614015565b60405290565b604051601f8201601f191681016001600160401b038111828210171561407b5761407b614015565b604052919050565b60006001600160401b0382111561409c5761409c614015565b50601f01601f191660200190565b600082601f8301126140bb57600080fd5b81356140ce6140c982614083565b614053565b8181528460208386010111156140e357600080fd5b816020850160208301376000918101602001919091529392505050565b600080600080600060a0868803121561411857600080fd5b8535945060208601359350604086013592506060860135915060808601356001600160401b0381111561414a57600080fd5b614156888289016140aa565b9150509295509295909350565b60008060006060848603121561417857600080fd5b61418184613d8f565b925060208401356001600160401b0381111561419c57600080fd5b6141a8868287016140aa565b9250506141b760408501613de7565b90509250925092565b600080604083850312156141d357600080fd5b6141dc83613d8f565b91506141ea60208401613d8f565b90509250929050565b60008060008060008060c0878903121561420c57600080fd5b61421587613d8f565b955060208701356001600160401b038082111561423157600080fd5b61423d8a838b016140aa565b9650604089013595506060890135915061425682613f4d565b9093506080880135925060a0880135908082111561427357600080fd5b5061428089828a016140aa565b9150509295509295509295565b6000806000806000608086880312156142a557600080fd5b6142ae86613d8f565b94506142bc60208701613d8f565b93506040860135925060608601356001600160401b038111156142de57600080fd5b6142ea88828901613da6565b969995985093965092949392505050565b60008060006060848603121561431057600080fd5b61431984613d8f565b925061432760208501613d8f565b9150604084013590509250925092565b60008060008060008060008060006101208a8c03121561435657600080fd5b893561436181613f4d565b985060208a013561437181613f4d565b975060408a013561438181613f4d565b965060608a013561439181613f4d565b955061439f60808b01613d8f565b945060a08a01356143af81613f4d565b935060c08a01356143bf81613f4d565b925060e08a013591506101008a01356143d781613f4d565b809150509295985092959850929598565b600080600080608085870312156143fe57600080fd5b843561440981613f4d565b9350602085013561441981613f4d565b93969395505050506040820135916060013590565b6000806000806080858703121561444457600080fd5b61444d85613d8f565b935061445b60208601613d8f565b9250604085013561446b81613f4d565b9396929550929360600135925050565b60006020828403121561448d57600080fd5b5051919050565b600181811c908216806144a857607f821691505b6020821081036144c857634e487b7160e01b600052602260045260246000fd5b50919050565b8183823760009101908152919050565b81835281816020850137506000828201602090810191909152601f909101601f19169091010190565b61ffff84168152604060208201526000611e236040830184866144de565b634e487b7160e01b600052601160045260246000fd5b81810381811115612ee857612ee8614525565b80820180821115612ee857612ee8614525565b60006001820161457357614573614525565b5060010190565b634e487b7160e01b600052602160045260246000fd5b600581106145ae57634e487b7160e01b600052602160045260246000fd5b9052565b6145bc8184614590565b604060208201526145d96040820183516001600160a01b03169052565b6020820151606082015260408201516080820152606082015160a0820152608082015160c082015260a082015160e0820152600060c0830151610100818185015260e085015191506101208281860152818601519250610140915082828601528086015192505061016082818601528186015192508061018086015250506146656101a0840182613ec9565b95945050505050565b8284823760609190911b6001600160601b0319169101908152601401919050565b601f82111561208e57600081815260208120601f850160051c810160208610156146b65750805b601f850160051c820191505b81811015610ab8578281556001016146c2565b600019600383901b1c191660019190911b1790565b81516001600160401b0381111561470357614703614015565b614717816147118454614494565b8461468f565b602080601f83116001811461474657600084156147345750858301515b61473e85826146d5565b865550610ab8565b600085815260208120601f198616915b8281101561477557888601518255948401946001909101908401614756565b50858210156147935787850151600019600388901b60f8161c191681555b5050505050600190811b01905550565b600082516147b5818460208701613ea5565b9190910192915050565b805160208201516001600160601b031980821692919060148310156147ee5780818460140360031b1b83161693505b505050919050565b600061ffff808816835280871660208401525084604083015260806060830152613a226080830184866144de565b61ffff861681526080602082015260006148426080830186886144de565b6001600160401b0394909416604083015250606001529392505050565b6001600160401b0383111561487657614876614015565b61488a836148848354614494565b8361468f565b6000601f8411600181146148b857600085156148a65750838201355b6148b086826146d5565b845550610b26565b600083815260209020601f19861690835b828110156148e957868501358255602094850194600190920191016148c9565b50868210156149065760001960f88860031b161c19848701351681555b505060018560011b0183555050505050565b60006020828403121561492a57600080fd5b81516001600160401b0381111561494057600080fd5b8201601f8101841361495157600080fd5b805161495f6140c982614083565b81815285602083850101111561497457600080fd5b614665826020830160208601613ea5565b61ffff851681526080602082015260006149a26080830186613ec9565b6001600160401b03851660408401528281036060840152613a228185613ec9565b6001600160a01b03929092168252602082015260400190565b634e487b7160e01b600052603260045260246000fd5b600081518084526020808501945080840160005b83811015614a2257815187529582019590820190600101614a06565b509495945050505050565b6001600160a01b0384168152606060208201819052600090614a51908301856149f2565b90508215156040830152949350505050565b8082028115828204841417612ee857612ee8614525565b600082614a9757634e487b7160e01b600052601260045260246000fd5b500490565b606081526000614aaf60608301866149f2565b60208301949094525060400152919050565b93845260ff9290921660208401526040830152606082015260800190565b61ffff841681526001600160a01b0383166020820152606060408201819052600090611e2390830184613ec9565b6001600160a01b0386811682526020820186905261ffff851660408301528316606082015260a060808201819052600090613a2290830184613ec9565b61ffff861681526001600160a01b038516602082015260a060408201819052600090614b7890830186613ec9565b84151560608401528281036080840152614b928185613ec9565b98975050505050505050565b60008060408385031215614bb157600080fd5b505080516020909101519092909150565b61ffff8716815260c060208201526000614bdf60c0830188613ec9565b8281036040840152614bf18188613ec9565b6001600160a01b0387811660608601528616608085015283810360a08501529050614c1c8185613ec9565b9998505050505050505050565b6020808252602b908201527f496e697469616c697a61626c653a20636f6e7472616374206973206e6f74206960408201526a6e697469616c697a696e6760a81b606082015260800190565b600060208284031215614c8657600080fd5b815160ff8116811461142b57600080fd5b600060208284031215614ca957600080fd5b815161142b81613fea565b61ffff8616815260a060208201526000614cd160a0830187613ec9565b6001600160401b03861660408401528281036060840152614cf28186613ec9565b90508281036080840152614b928185613ec9565b600060208284031215614d1857600080fd5b81516005811061142b57600080fd5b6000808284036040811215614d3b57600080fd5b835192506020601f1982011215614d5157600080fd5b50614d5a61402b565b6020939093015183525092909150565b6000808284036060811215614d7e57600080fd5b835192506040601f1982011215614d9457600080fd5b50604080519081016001600160401b0381118282101715614db757614db7614015565b60409081526020858101518352940151938101939093525092909150565b6000808284036040811215614de957600080fd5b835192506020601f1982011215614dff57600080fd5b50614e0861402b565b6020840151614e1681613f4d565b8152919491935090915050565b60a08101614e318285614590565b60018060a01b038351166020830152602083015160408301526040830151606083015260608301516080830152939250505056fe000000000000000000000000b0cabfe930642ad3e7decdc741884d8c3f7ebc7000000000000000000000000010541b07d8ad2647dc6cd67abd4c03575dade261b0c58532a125fc3c0adccaef396bf65344a4d5781cec2e4c593e6b611d75f150a2646970667358221220fa984150c345a3bb5dec89d1c812399d805fe4576bc657c83bb7e0c53ab3173c64736f6c63430008130033",
  "linkReferences": {},
  "deployedLinkReferences": {}
}