{
  "_format": "hh-sol-artifact-1",
  "contractName": "Vault",
  "sourceName": "contracts/Vault.sol",
  "abi": [
    {
      "inputs": [
        {
          "internalType": "uint256",
          "name": "amount",
          "type": "uint256"
        },
        {
          "internalType": "uint256",
          "name": "balance",
          "type": "uint256"
        }
      ],
      "name": "InsufficientFunds",
      "type": "error"
    },
    {
      "anonymous": false,
      "inputs": [
        {
          "indexed": true,
          "internalType": "address",
          "name": "owner",
          "type": "address"
        },
        {
          "indexed": true,
          "internalType": "address",
          "name": "spender",
          "type": "address"
        },
        {
          "indexed": false,
          "internalType": "uint256",
          "name": "value",
          "type": "uint256"
        }
      ],
      "name": "Approval",
      "type": "event"
    },
    {
      "anonymous": false,
      "inputs": [
        {
          "indexed": false,
          "internalType": "uint256",
          "name": "epochId",
          "type": "uint256"
        },
        {
          "indexed": false,
          "internalType": "uint256",
          "name": "requestCount",
          "type": "uint256"
        }
      ],
      "name": "FulfilledWithdrawEpoch",
      "type": "event"
    },
    {
      "anonymous": false,
      "inputs": [
        {
          "indexed": false,
          "internalType": "uint8",
          "name": "version",
          "type": "uint8"
        }
      ],
      "name": "Initialized",
      "type": "event"
    },
    {
      "anonymous": false,
      "inputs": [
        {
          "indexed": false,
          "internalType": "uint16",
          "name": "_srcChainId",
          "type": "uint16"
        },
        {
          "indexed": false,
          "internalType": "bytes",
          "name": "_srcAddress",
          "type": "bytes"
        },
        {
          "indexed": false,
          "internalType": "uint64",
          "name": "_nonce",
          "type": "uint64"
        },
        {
          "indexed": false,
          "internalType": "bytes",
          "name": "_payload",
          "type": "bytes"
        },
        {
          "indexed": false,
          "internalType": "bytes",
          "name": "_reason",
          "type": "bytes"
        }
      ],
      "name": "MessageFailed",
      "type": "event"
    },
    {
      "anonymous": false,
      "inputs": [
        {
          "indexed": true,
          "internalType": "address",
          "name": "previousOwner",
          "type": "address"
        },
        {
          "indexed": true,
          "internalType": "address",
          "name": "newOwner",
          "type": "address"
        }
      ],
      "name": "OwnershipTransferred",
      "type": "event"
    },
    {
      "anonymous": false,
      "inputs": [
        {
          "indexed": false,
          "internalType": "uint16",
          "name": "_srcChainId",
          "type": "uint16"
        },
        {
          "indexed": false,
          "internalType": "bytes",
          "name": "_srcAddress",
          "type": "bytes"
        },
        {
          "indexed": false,
          "internalType": "uint64",
          "name": "_nonce",
          "type": "uint64"
        },
        {
          "indexed": false,
          "internalType": "bytes32",
          "name": "_payloadHash",
          "type": "bytes32"
        }
      ],
      "name": "RetryMessageSuccess",
      "type": "event"
    },
    {
      "anonymous": false,
      "inputs": [
        {
          "indexed": false,
          "internalType": "uint16",
          "name": "_dstChainId",
          "type": "uint16"
        },
        {
          "indexed": false,
          "internalType": "uint16",
          "name": "_type",
          "type": "uint16"
        },
        {
          "indexed": false,
          "internalType": "uint256",
          "name": "_minDstGas",
          "type": "uint256"
        }
      ],
      "name": "SetMinDstGas",
      "type": "event"
    },
    {
      "anonymous": false,
      "inputs": [
        {
          "indexed": false,
          "internalType": "address",
          "name": "precrime",
          "type": "address"
        }
      ],
      "name": "SetPrecrime",
      "type": "event"
    },
    {
      "anonymous": false,
      "inputs": [
        {
          "indexed": false,
          "internalType": "uint16",
          "name": "_remoteChainId",
          "type": "uint16"
        },
        {
          "indexed": false,
          "internalType": "bytes",
          "name": "_path",
          "type": "bytes"
        }
      ],
      "name": "SetTrustedRemote",
      "type": "event"
    },
    {
      "anonymous": false,
      "inputs": [
        {
          "indexed": false,
          "internalType": "uint16",
          "name": "_remoteChainId",
          "type": "uint16"
        },
        {
          "indexed": false,
          "internalType": "bytes",
          "name": "_remoteAddress",
          "type": "bytes"
        }
      ],
      "name": "SetTrustedRemoteAddress",
      "type": "event"
    },
    {
      "anonymous": false,
      "inputs": [
        {
          "indexed": true,
          "internalType": "address",
          "name": "token",
          "type": "address"
        },
        {
          "indexed": false,
          "internalType": "uint256",
          "name": "amount",
          "type": "uint256"
        },
        {
          "indexed": false,
          "internalType": "address",
          "name": "sender",
          "type": "address"
        }
      ],
      "name": "SgReceived",
      "type": "event"
    },
    {
      "anonymous": false,
      "inputs": [
        {
          "indexed": false,
          "internalType": "uint16",
          "name": "chainId",
          "type": "uint16"
        },
        {
          "indexed": false,
          "internalType": "address",
          "name": "strategy",
          "type": "address"
        },
        {
          "indexed": false,
          "internalType": "uint256",
          "name": "gain",
          "type": "uint256"
        },
        {
          "indexed": false,
          "internalType": "uint256",
          "name": "loss",
          "type": "uint256"
        },
        {
          "indexed": false,
          "internalType": "uint256",
          "name": "debtPaid",
          "type": "uint256"
        },
        {
          "indexed": false,
          "internalType": "uint256",
          "name": "totalGain",
          "type": "uint256"
        },
        {
          "indexed": false,
          "internalType": "uint256",
          "name": "totalLoss",
          "type": "uint256"
        },
        {
          "indexed": false,
          "internalType": "uint256",
          "name": "totalDebt",
          "type": "uint256"
        },
        {
          "indexed": false,
          "internalType": "uint256",
          "name": "debtAdded",
          "type": "uint256"
        },
        {
          "indexed": false,
          "internalType": "uint256",
          "name": "debtRatio",
          "type": "uint256"
        },
        {
          "indexed": false,
          "internalType": "uint256",
          "name": "tokens",
          "type": "uint256"
        }
      ],
      "name": "StrategyReported",
      "type": "event"
    },
    {
      "anonymous": false,
      "inputs": [
        {
          "indexed": true,
          "internalType": "uint16",
          "name": "chainId",
          "type": "uint16"
        },
        {
          "indexed": true,
          "internalType": "address",
          "name": "strategy",
          "type": "address"
        },
        {
          "indexed": false,
          "internalType": "uint256",
          "name": "amount",
          "type": "uint256"
        },
        {
          "indexed": false,
          "internalType": "uint256",
          "name": "loss",
          "type": "uint256"
        },
        {
          "indexed": false,
          "internalType": "uint256",
          "name": "id",
          "type": "uint256"
        }
      ],
      "name": "StrategyWithdrawnSome",
      "type": "event"
    },
    {
      "anonymous": false,
      "inputs": [
        {
          "indexed": true,
          "internalType": "address",
          "name": "from",
          "type": "address"
        },
        {
          "indexed": true,
          "internalType": "address",
          "name": "to",
          "type": "address"
        },
        {
          "indexed": false,
          "internalType": "uint256",
          "name": "value",
          "type": "uint256"
        }
      ],
      "name": "Transfer",
      "type": "event"
    },
    {
      "inputs": [],
      "name": "DEFAULT_PAYLOAD_SIZE_LIMIT",
      "outputs": [
        {
          "internalType": "uint256",
          "name": "",
          "type": "uint256"
        }
      ],
      "stateMutability": "view",
      "type": "function"
    },
    {
      "inputs": [],
      "name": "MAX_BPS",
      "outputs": [
        {
          "internalType": "uint256",
          "name": "",
          "type": "uint256"
        }
      ],
      "stateMutability": "view",
      "type": "function"
    },
    {
      "inputs": [
        {
          "internalType": "uint16",
          "name": "_chainId",
          "type": "uint16"
        },
        {
          "internalType": "address",
          "name": "_strategy",
          "type": "address"
        },
        {
          "internalType": "uint256",
          "name": "_debtRatio",
          "type": "uint256"
        },
        {
          "internalType": "uint256",
          "name": "_performanceFee",
          "type": "uint256"
        },
        {
          "internalType": "address",
          "name": "_strategist",
          "type": "address"
        }
      ],
      "name": "addStrategy",
      "outputs": [],
      "stateMutability": "nonpayable",
      "type": "function"
    },
    {
      "inputs": [
        {
          "internalType": "address",
          "name": "owner",
          "type": "address"
        },
        {
          "internalType": "address",
          "name": "spender",
          "type": "address"
        }
      ],
      "name": "allowance",
      "outputs": [
        {
          "internalType": "uint256",
          "name": "",
          "type": "uint256"
        }
      ],
      "stateMutability": "view",
      "type": "function"
    },
    {
      "inputs": [
        {
          "internalType": "address",
          "name": "spender",
          "type": "address"
        },
        {
          "internalType": "uint256",
          "name": "amount",
          "type": "uint256"
        }
      ],
      "name": "approve",
      "outputs": [
        {
          "internalType": "bool",
          "name": "",
          "type": "bool"
        }
      ],
      "stateMutability": "nonpayable",
      "type": "function"
    },
    {
      "inputs": [
        {
          "internalType": "address",
          "name": "account",
          "type": "address"
        }
      ],
      "name": "balanceOf",
      "outputs": [
        {
          "internalType": "uint256",
          "name": "",
          "type": "uint256"
        }
      ],
      "stateMutability": "view",
      "type": "function"
    },
    {
      "inputs": [
        {
          "internalType": "uint16",
          "name": "_chainId",
          "type": "uint16"
        },
        {
          "internalType": "address",
          "name": "_strategy",
          "type": "address"
        }
      ],
      "name": "creditAvailable",
      "outputs": [
        {
          "internalType": "uint256",
          "name": "",
          "type": "uint256"
        }
      ],
      "stateMutability": "view",
      "type": "function"
    },
    {
      "inputs": [
        {
          "internalType": "uint16",
          "name": "_chainId",
          "type": "uint16"
        },
        {
          "internalType": "address",
          "name": "_strategy",
          "type": "address"
        }
      ],
      "name": "debtOutstanding",
      "outputs": [
        {
          "internalType": "uint256",
          "name": "",
          "type": "uint256"
        }
      ],
      "stateMutability": "view",
      "type": "function"
    },
    {
      "inputs": [],
      "name": "decimals",
      "outputs": [
        {
          "internalType": "uint8",
          "name": "",
          "type": "uint8"
        }
      ],
      "stateMutability": "view",
      "type": "function"
    },
    {
      "inputs": [
        {
          "internalType": "address",
          "name": "spender",
          "type": "address"
        },
        {
          "internalType": "uint256",
          "name": "subtractedValue",
          "type": "uint256"
        }
      ],
      "name": "decreaseAllowance",
      "outputs": [
        {
          "internalType": "bool",
          "name": "",
          "type": "bool"
        }
      ],
      "stateMutability": "nonpayable",
      "type": "function"
    },
    {
      "inputs": [
        {
          "internalType": "uint256",
          "name": "_amount",
          "type": "uint256"
        },
        {
          "internalType": "address",
          "name": "_recipient",
          "type": "address"
        }
      ],
      "name": "deposit",
      "outputs": [
        {
          "internalType": "uint256",
          "name": "",
          "type": "uint256"
        }
      ],
      "stateMutability": "nonpayable",
      "type": "function"
    },
    {
      "inputs": [],
      "name": "emergencyShutdown",
      "outputs": [
        {
          "internalType": "bool",
          "name": "",
          "type": "bool"
        }
      ],
      "stateMutability": "view",
      "type": "function"
    },
    {
      "inputs": [
        {
          "internalType": "uint16",
          "name": "",
          "type": "uint16"
        },
        {
          "internalType": "bytes",
          "name": "",
          "type": "bytes"
        },
        {
          "internalType": "uint64",
          "name": "",
          "type": "uint64"
        }
      ],
      "name": "failedMessages",
      "outputs": [
        {
          "internalType": "bytes32",
          "name": "",
          "type": "bytes32"
        }
      ],
      "stateMutability": "view",
      "type": "function"
    },
    {
      "inputs": [
        {
          "internalType": "uint16",
          "name": "_srcChainId",
          "type": "uint16"
        },
        {
          "internalType": "bytes",
          "name": "_srcAddress",
          "type": "bytes"
        }
      ],
      "name": "forceResumeReceive",
      "outputs": [],
      "stateMutability": "nonpayable",
      "type": "function"
    },
    {
      "inputs": [
        {
          "internalType": "uint16",
          "name": "_version",
          "type": "uint16"
        },
        {
          "internalType": "uint16",
          "name": "_chainId",
          "type": "uint16"
        },
        {
          "internalType": "address",
          "name": "",
          "type": "address"
        },
        {
          "internalType": "uint256",
          "name": "_configType",
          "type": "uint256"
        }
      ],
      "name": "getConfig",
      "outputs": [
        {
          "internalType": "bytes",
          "name": "",
          "type": "bytes"
        }
      ],
      "stateMutability": "view",
      "type": "function"
    },
    {
      "inputs": [
        {
          "internalType": "uint16",
          "name": "_remoteChainId",
          "type": "uint16"
        }
      ],
      "name": "getTrustedRemoteAddress",
      "outputs": [
        {
          "internalType": "bytes",
          "name": "",
          "type": "bytes"
        }
      ],
      "stateMutability": "view",
      "type": "function"
    },
    {
      "inputs": [],
      "name": "governance",
      "outputs": [
        {
          "internalType": "address",
          "name": "",
          "type": "address"
        }
      ],
      "stateMutability": "view",
      "type": "function"
    },
    {
      "inputs": [],
      "name": "handleWithdrawals",
      "outputs": [],
      "stateMutability": "nonpayable",
      "type": "function"
    },
    {
      "inputs": [
        {
          "internalType": "address",
          "name": "spender",
          "type": "address"
        },
        {
          "internalType": "uint256",
          "name": "addedValue",
          "type": "uint256"
        }
      ],
      "name": "increaseAllowance",
      "outputs": [
        {
          "internalType": "bool",
          "name": "",
          "type": "bool"
        }
      ],
      "stateMutability": "nonpayable",
      "type": "function"
    },
    {
      "inputs": [
        {
          "internalType": "address",
          "name": "_governance",
          "type": "address"
        },
        {
          "internalType": "address",
          "name": "_lzEndpoint",
          "type": "address"
        },
        {
          "internalType": "contract IERC20",
          "name": "_token",
          "type": "address"
        },
        {
          "internalType": "address",
          "name": "_sgBridge",
          "type": "address"
        },
        {
          "internalType": "address",
          "name": "_sgRouter",
          "type": "address"
        }
      ],
      "name": "initialize",
      "outputs": [],
      "stateMutability": "nonpayable",
      "type": "function"
    },
    {
      "inputs": [
        {
          "internalType": "uint16",
          "name": "_srcChainId",
          "type": "uint16"
        },
        {
          "internalType": "bytes",
          "name": "_srcAddress",
          "type": "bytes"
        }
      ],
      "name": "isTrustedRemote",
      "outputs": [
        {
          "internalType": "bool",
          "name": "",
          "type": "bool"
        }
      ],
      "stateMutability": "view",
      "type": "function"
    },
    {
      "inputs": [],
      "name": "lzEndpoint",
      "outputs": [
        {
          "internalType": "contract ILayerZeroEndpointUpgradeable",
          "name": "",
          "type": "address"
        }
      ],
      "stateMutability": "view",
      "type": "function"
    },
    {
      "inputs": [
        {
          "internalType": "uint16",
          "name": "_srcChainId",
          "type": "uint16"
        },
        {
          "internalType": "bytes",
          "name": "_srcAddress",
          "type": "bytes"
        },
        {
          "internalType": "uint64",
          "name": "_nonce",
          "type": "uint64"
        },
        {
          "internalType": "bytes",
          "name": "_payload",
          "type": "bytes"
        }
      ],
      "name": "lzReceive",
      "outputs": [],
      "stateMutability": "nonpayable",
      "type": "function"
    },
    {
      "inputs": [
        {
          "internalType": "uint16",
          "name": "_chainId",
          "type": "uint16"
        },
        {
          "internalType": "address",
          "name": "_oldStrategy",
          "type": "address"
        },
        {
          "internalType": "address",
          "name": "_newStrategy",
          "type": "address"
        }
      ],
      "name": "migrateStrategy",
      "outputs": [],
      "stateMutability": "nonpayable",
      "type": "function"
    },
    {
      "inputs": [
        {
          "internalType": "uint16",
          "name": "",
          "type": "uint16"
        },
        {
          "internalType": "uint16",
          "name": "",
          "type": "uint16"
        }
      ],
      "name": "minDstGasLookup",
      "outputs": [
        {
          "internalType": "uint256",
          "name": "",
          "type": "uint256"
        }
      ],
      "stateMutability": "view",
      "type": "function"
    },
    {
      "inputs": [],
      "name": "name",
      "outputs": [
        {
          "internalType": "string",
          "name": "",
          "type": "string"
        }
      ],
      "stateMutability": "view",
      "type": "function"
    },
    {
      "inputs": [
        {
          "internalType": "uint16",
          "name": "_srcChainId",
          "type": "uint16"
        },
        {
          "internalType": "bytes",
          "name": "_srcAddress",
          "type": "bytes"
        },
        {
          "internalType": "uint64",
          "name": "_nonce",
          "type": "uint64"
        },
        {
          "internalType": "bytes",
          "name": "_payload",
          "type": "bytes"
        }
      ],
      "name": "nonblockingLzReceive",
      "outputs": [],
      "stateMutability": "nonpayable",
      "type": "function"
    },
    {
      "inputs": [],
      "name": "owner",
      "outputs": [
        {
          "internalType": "address",
          "name": "",
          "type": "address"
        }
      ],
      "stateMutability": "view",
      "type": "function"
    },
    {
      "inputs": [
        {
          "internalType": "uint16",
          "name": "",
          "type": "uint16"
        }
      ],
      "name": "payloadSizeLimitLookup",
      "outputs": [
        {
          "internalType": "uint256",
          "name": "",
          "type": "uint256"
        }
      ],
      "stateMutability": "view",
      "type": "function"
    },
    {
      "inputs": [],
      "name": "precrime",
      "outputs": [
        {
          "internalType": "address",
          "name": "",
          "type": "address"
        }
      ],
      "stateMutability": "view",
      "type": "function"
    },
    {
      "inputs": [],
      "name": "pricePerShare",
      "outputs": [
        {
          "internalType": "uint256",
          "name": "",
          "type": "uint256"
        }
      ],
      "stateMutability": "view",
      "type": "function"
    },
    {
      "inputs": [],
      "name": "renounceOwnership",
      "outputs": [],
      "stateMutability": "nonpayable",
      "type": "function"
    },
    {
      "inputs": [
        {
          "internalType": "uint16",
          "name": "_srcChainId",
          "type": "uint16"
        },
        {
          "internalType": "bytes",
          "name": "_srcAddress",
          "type": "bytes"
        },
        {
          "internalType": "uint64",
          "name": "_nonce",
          "type": "uint64"
        },
        {
          "internalType": "bytes",
          "name": "_payload",
          "type": "bytes"
        }
      ],
      "name": "retryMessage",
      "outputs": [],
      "stateMutability": "payable",
      "type": "function"
    },
    {
      "inputs": [],
      "name": "revokeFunds",
      "outputs": [],
      "stateMutability": "nonpayable",
      "type": "function"
    },
    {
      "inputs": [
        {
          "internalType": "uint16",
          "name": "_chainId",
          "type": "uint16"
        },
        {
          "internalType": "address",
          "name": "_strategy",
          "type": "address"
        }
      ],
      "name": "revokeStrategy",
      "outputs": [],
      "stateMutability": "nonpayable",
      "type": "function"
    },
    {
      "inputs": [
        {
          "internalType": "uint16",
          "name": "_version",
          "type": "uint16"
        },
        {
          "internalType": "uint16",
          "name": "_chainId",
          "type": "uint16"
        },
        {
          "internalType": "uint256",
          "name": "_configType",
          "type": "uint256"
        },
        {
          "internalType": "bytes",
          "name": "_config",
          "type": "bytes"
        }
      ],
      "name": "setConfig",
      "outputs": [],
      "stateMutability": "nonpayable",
      "type": "function"
    },
    {
      "inputs": [
        {
          "internalType": "bool",
          "name": "_emergencyShutdown",
          "type": "bool"
        }
      ],
      "name": "setEmergencyShutdown",
      "outputs": [],
      "stateMutability": "nonpayable",
      "type": "function"
    },
    {
      "inputs": [
        {
          "internalType": "uint16",
          "name": "_dstChainId",
          "type": "uint16"
        },
        {
          "internalType": "uint16",
          "name": "_packetType",
          "type": "uint16"
        },
        {
          "internalType": "uint256",
          "name": "_minGas",
          "type": "uint256"
        }
      ],
      "name": "setMinDstGas",
      "outputs": [],
      "stateMutability": "nonpayable",
      "type": "function"
    },
    {
      "inputs": [
        {
          "internalType": "uint16",
          "name": "_dstChainId",
          "type": "uint16"
        },
        {
          "internalType": "uint256",
          "name": "_size",
          "type": "uint256"
        }
      ],
      "name": "setPayloadSizeLimit",
      "outputs": [],
      "stateMutability": "nonpayable",
      "type": "function"
    },
    {
      "inputs": [
        {
          "internalType": "address",
          "name": "_precrime",
          "type": "address"
        }
      ],
      "name": "setPrecrime",
      "outputs": [],
      "stateMutability": "nonpayable",
      "type": "function"
    },
    {
      "inputs": [
        {
          "internalType": "uint16",
          "name": "_version",
          "type": "uint16"
        }
      ],
      "name": "setReceiveVersion",
      "outputs": [],
      "stateMutability": "nonpayable",
      "type": "function"
    },
    {
      "inputs": [
        {
          "internalType": "uint16",
          "name": "_version",
          "type": "uint16"
        }
      ],
      "name": "setSendVersion",
      "outputs": [],
      "stateMutability": "nonpayable",
      "type": "function"
    },
    {
      "inputs": [
        {
          "internalType": "uint16",
          "name": "_srcChainId",
          "type": "uint16"
        },
        {
          "internalType": "bytes",
          "name": "_path",
          "type": "bytes"
        }
      ],
      "name": "setTrustedRemote",
      "outputs": [],
      "stateMutability": "nonpayable",
      "type": "function"
    },
    {
      "inputs": [
        {
          "internalType": "uint16",
          "name": "_remoteChainId",
          "type": "uint16"
        },
        {
          "internalType": "bytes",
          "name": "_remoteAddress",
          "type": "bytes"
        }
      ],
      "name": "setTrustedRemoteAddress",
      "outputs": [],
      "stateMutability": "nonpayable",
      "type": "function"
    },
    {
      "inputs": [],
      "name": "sgBridge",
      "outputs": [
        {
          "internalType": "contract ISgBridge",
          "name": "",
          "type": "address"
        }
      ],
      "stateMutability": "view",
      "type": "function"
    },
    {
      "inputs": [
        {
          "internalType": "uint16",
          "name": "_srcChainId",
          "type": "uint16"
        },
        {
          "internalType": "bytes",
          "name": "_srcAddress",
          "type": "bytes"
        },
        {
          "internalType": "uint256",
          "name": "",
          "type": "uint256"
        },
        {
          "internalType": "address",
          "name": "_token",
          "type": "address"
        },
        {
          "internalType": "uint256",
          "name": "_amountLD",
          "type": "uint256"
        },
        {
          "internalType": "bytes",
          "name": "_payload",
          "type": "bytes"
        }
      ],
      "name": "sgReceive",
      "outputs": [],
      "stateMutability": "nonpayable",
      "type": "function"
    },
    {
      "inputs": [],
      "name": "sgRouter",
      "outputs": [
        {
          "internalType": "address",
          "name": "",
          "type": "address"
        }
      ],
      "stateMutability": "view",
      "type": "function"
    },
    {
      "inputs": [
        {
          "internalType": "uint16",
          "name": "",
          "type": "uint16"
        },
        {
          "internalType": "address",
          "name": "",
          "type": "address"
        }
      ],
      "name": "strategies",
      "outputs": [
        {
          "internalType": "uint256",
          "name": "activation",
          "type": "uint256"
        },
        {
          "internalType": "uint256",
          "name": "debtRatio",
          "type": "uint256"
        },
        {
          "internalType": "uint256",
          "name": "totalDebt",
          "type": "uint256"
        },
        {
          "internalType": "uint256",
          "name": "totalGain",
          "type": "uint256"
        },
        {
          "internalType": "uint256",
          "name": "totalLoss",
          "type": "uint256"
        },
        {
          "internalType": "uint256",
          "name": "lastReport",
          "type": "uint256"
        },
        {
          "internalType": "uint256",
          "name": "performanceFee",
          "type": "uint256"
        },
        {
          "internalType": "address",
          "name": "strategist",
          "type": "address"
        }
      ],
      "stateMutability": "view",
      "type": "function"
    },
    {
      "inputs": [],
      "name": "symbol",
      "outputs": [
        {
          "internalType": "string",
          "name": "",
          "type": "string"
        }
      ],
      "stateMutability": "view",
      "type": "function"
    },
    {
      "inputs": [],
      "name": "token",
      "outputs": [
        {
          "internalType": "contract IERC20",
          "name": "",
          "type": "address"
        }
      ],
      "stateMutability": "view",
      "type": "function"
    },
    {
      "inputs": [],
      "name": "totalAssets",
      "outputs": [
        {
          "internalType": "uint256",
          "name": "",
          "type": "uint256"
        }
      ],
      "stateMutability": "view",
      "type": "function"
    },
    {
      "inputs": [],
      "name": "totalDebt",
      "outputs": [
        {
          "internalType": "uint256",
          "name": "",
          "type": "uint256"
        }
      ],
      "stateMutability": "view",
      "type": "function"
    },
    {
      "inputs": [],
      "name": "totalDebtRatio",
      "outputs": [
        {
          "internalType": "uint256",
          "name": "",
          "type": "uint256"
        }
      ],
      "stateMutability": "view",
      "type": "function"
    },
    {
      "inputs": [],
      "name": "totalIdle",
      "outputs": [
        {
          "internalType": "uint256",
          "name": "",
          "type": "uint256"
        }
      ],
      "stateMutability": "view",
      "type": "function"
    },
    {
      "inputs": [],
      "name": "totalSupply",
      "outputs": [
        {
          "internalType": "uint256",
          "name": "",
          "type": "uint256"
        }
      ],
      "stateMutability": "view",
      "type": "function"
    },
    {
      "inputs": [
        {
          "internalType": "address",
          "name": "to",
          "type": "address"
        },
        {
          "internalType": "uint256",
          "name": "amount",
          "type": "uint256"
        }
      ],
      "name": "transfer",
      "outputs": [
        {
          "internalType": "bool",
          "name": "",
          "type": "bool"
        }
      ],
      "stateMutability": "nonpayable",
      "type": "function"
    },
    {
      "inputs": [
        {
          "internalType": "address",
          "name": "from",
          "type": "address"
        },
        {
          "internalType": "address",
          "name": "to",
          "type": "address"
        },
        {
          "internalType": "uint256",
          "name": "amount",
          "type": "uint256"
        }
      ],
      "name": "transferFrom",
      "outputs": [
        {
          "internalType": "bool",
          "name": "",
          "type": "bool"
        }
      ],
      "stateMutability": "nonpayable",
      "type": "function"
    },
    {
      "inputs": [
        {
          "internalType": "address",
          "name": "newOwner",
          "type": "address"
        }
      ],
      "name": "transferOwnership",
      "outputs": [],
      "stateMutability": "nonpayable",
      "type": "function"
    },
    {
      "inputs": [
        {
          "internalType": "uint16",
          "name": "",
          "type": "uint16"
        }
      ],
      "name": "trustedRemoteLookup",
      "outputs": [
        {
          "internalType": "bytes",
          "name": "",
          "type": "bytes"
        }
      ],
      "stateMutability": "view",
      "type": "function"
    },
    {
      "inputs": [
        {
          "internalType": "uint16",
          "name": "_chainId",
          "type": "uint16"
        },
        {
          "internalType": "address",
          "name": "_strategy",
          "type": "address"
        },
        {
          "internalType": "uint256",
          "name": "_debtRatio",
          "type": "uint256"
        }
      ],
      "name": "updateStrategyDebtRatio",
      "outputs": [],
      "stateMutability": "nonpayable",
      "type": "function"
    },
    {
      "inputs": [
        {
          "internalType": "uint256",
          "name": "_maxShares",
          "type": "uint256"
        },
        {
          "internalType": "address",
          "name": "_recipient",
          "type": "address"
        },
        {
          "internalType": "uint256",
          "name": "_maxLoss",
          "type": "uint256"
        }
      ],
      "name": "withdraw",
      "outputs": [],
      "stateMutability": "nonpayable",
      "type": "function"
    },
    {
      "inputs": [],
      "name": "withdrawEpoch",
      "outputs": [
        {
          "internalType": "uint256",
          "name": "",
          "type": "uint256"
        }
      ],
      "stateMutability": "view",
      "type": "function"
    },
    {
      "stateMutability": "payable",
      "type": "receive"
    }
  ],
  "bytecode": "0x608060405234801561001057600080fd5b50615f1a80620000216000396000f3fe6080604052600436106102d05760003560e01c80637533d788116101775780637533d788146107a65780638cfd8f5c146107c65780638da5cb5b146107fe578063950c8a741461081357806395d89b411461083357806399530b06146108485780639aa7df941461085d5780639f38369a14610872578063a032a71214610892578063a457c2d7146108b2578063a6c3d165146108d2578063a9059cbb146108f2578063ab73ce4614610912578063ab8236f314610929578063b353aaa714610949578063baf3292d14610969578063c446183414610989578063cbed8b9c1461099f578063cfbcc644146109bf578063d1deba1f146109df578063dd62ed3e146109f2578063df2a5b3b14610a12578063e63697c814610a32578063e7fda06114610a52578063eb8d72b714610a72578063ef34253c14610a92578063f2fde38b14610aa7578063f5ecbdbc14610ac7578063fc0c546a14610ae7578063fc7b9c1814610b07578063fd967f471461098957600080fd5b80621d3567146102dc57806301dc2eb1146102fe57806301e1d114146103315780630517cb761461034657806306fdde031461037457806307e0db1714610396578063095ea7b3146103b65780630a97c254146103e65780630df374831461040657806310ddb137146104265780631459457a1461044657806314c644021461046657806318160ddd1461048657806323b872dd1461049b5780632d606843146104bb5780632df9eab9146104d0578063313ce567146104e65780633403c2fc1461050d57806337fded911461052857806339509351146105485780633d8b38f6146105685780633f1f4fa4146105885780634067cb9e146105b557806342d65a8d1461066c57806352106a491461068c5780635aa6e675146106ac5780635b8c41e6146106cc57806366ad5c8a1461071b5780636e553f651461073b57806370a082311461075b578063715018a61461079157600080fd5b366102d757005b600080fd5b3480156102e857600080fd5b506102fc6102f7366004614d53565b610b1d565b005b34801561030a57600080fd5b5061031e610319366004614dfb565b610be0565b6040519081526020015b60405180910390f35b34801561033d57600080fd5b5061031e610bf5565b34801561035257600080fd5b5061010854610367906001600160a01b031681565b6040516103289190614e32565b34801561038057600080fd5b50610389610c11565b6040516103289190614e96565b3480156103a257600080fd5b506102fc6103b1366004614ea9565b610ca3565b3480156103c257600080fd5b506103d66103d1366004614ec4565b610d10565b6040519015158152602001610328565b3480156103f257600080fd5b506102fc610401366004614ef0565b610d28565b34801561041257600080fd5b506102fc610421366004614f2f565b610eb7565b34801561043257600080fd5b506102fc610441366004614ea9565b610ed6565b34801561045257600080fd5b506102fc610461366004614f4b565b610f12565b34801561047257600080fd5b506102fc610481366004614fca565b61113a565b34801561049257600080fd5b5060355461031e565b3480156104a757600080fd5b506103d66104b6366004614fe7565b61119b565b3480156104c757600080fd5b506102fc6111bf565b3480156104dc57600080fd5b5061031e60fe5481565b3480156104f257600080fd5b506104fb61123b565b60405160ff9091168152602001610328565b34801561051957600080fd5b50610100546103d69060ff1681565b34801561053457600080fd5b5060fd54610367906001600160a01b031681565b34801561055457600080fd5b506103d6610563366004614ec4565b6112a9565b34801561057457600080fd5b506103d6610583366004615007565b6112cb565b34801561059457600080fd5b5061031e6105a3366004614ea9565b609a6020526000908152604090205481565b3480156105c157600080fd5b506106286105d0366004614dfb565b610101602090815260009283526040808420909152908252902080546001820154600283015460038401546004850154600586015460068701546007909701549596949593949293919290916001600160a01b031688565b604080519889526020890197909752958701949094526060860192909252608085015260a084015260c08301526001600160a01b031660e082015261010001610328565b34801561067857600080fd5b506102fc610687366004615007565b611397565b34801561069857600080fd5b506102fc6106a7366004615059565b61140a565b3480156106b857600080fd5b5060fb54610367906001600160a01b031681565b3480156106d857600080fd5b5061031e6106e7366004615194565b60c9602090815260009384526040808520845180860184018051928152908401958401959095209452929052825290205481565b34801561072757600080fd5b506102fc610736366004614d53565b611650565b34801561074757600080fd5b5061031e6107563660046151f1565b611724565b34801561076757600080fd5b5061031e610776366004615216565b6001600160a01b031660009081526033602052604090205490565b34801561079d57600080fd5b506102fc611730565b3480156107b257600080fd5b506103896107c1366004614ea9565b611744565b3480156107d257600080fd5b5061031e6107e1366004615233565b609960209081526000928352604080842090915290825290205481565b34801561080a57600080fd5b506103676117de565b34801561081f57600080fd5b50609b54610367906001600160a01b031681565b34801561083f57600080fd5b506103896117ed565b34801561085457600080fd5b5061031e6117fc565b34801561086957600080fd5b5061031e611819565b34801561087e57600080fd5b5061038961088d366004614ea9565b61188b565b34801561089e57600080fd5b506102fc6108ad366004615266565b6119a1565b3480156108be57600080fd5b506103d66108cd366004614ec4565b611d8e565b3480156108de57600080fd5b506102fc6108ed366004615007565b611e09565b3480156108fe57600080fd5b506103d661090d366004614ec4565b611e92565b34801561091e57600080fd5b5061031e6101025481565b34801561093557600080fd5b506102fc6109443660046152af565b611ea0565b34801561095557600080fd5b50609754610367906001600160a01b031681565b34801561097557600080fd5b506102fc610984366004615216565b611ff0565b34801561099557600080fd5b5061031e61271081565b3480156109ab57600080fd5b506102fc6109ba366004615349565b61204e565b3480156109cb57600080fd5b506102fc6109da366004614dfb565b6120c7565b6102fc6109ed366004614d53565b612122565b3480156109fe57600080fd5b5061031e610a0d3660046153b7565b612338565b348015610a1e57600080fd5b506102fc610a2d3660046153d5565b612363565b348015610a3e57600080fd5b506102fc610a4d366004615411565b612415565b348015610a5e57600080fd5b5061031e610a6d366004614dfb565b612425565b348015610a7e57600080fd5b506102fc610a8d366004615007565b612431565b348015610a9e57600080fd5b506102fc61248b565b348015610ab357600080fd5b506102fc610ac2366004615216565b6127ab565b348015610ad357600080fd5b50610389610ae2366004615438565b612821565b348015610af357600080fd5b5060fc54610367906001600160a01b031681565b348015610b1357600080fd5b5061031e60ff5481565b6097546001600160a01b03163314610b625760405162461bcd60e51b81526020600482015260036024820152622b189960e91b60448201526064015b60405180910390fd5b610bd88686868080601f01602080910402602001604051908101604052809392919081815260200183838082843760009201919091525050604080516020601f8901819004810282018101909252878152899350915087908790819084018382808284376000920191909152506128b692505050565b505050505050565b6000610bec838361292f565b90505b92915050565b6000610bff611819565b60ff54610c0c919061549b565b905090565b606060368054610c20906154ae565b80601f0160208091040260200160405190810160405280929190818152602001828054610c4c906154ae565b8015610c995780601f10610c6e57610100808354040283529160200191610c99565b820191906000526020600020905b815481529060010190602001808311610c7c57829003601f168201915b5050505050905090565b610cab6129f7565b6097546040516307e0db1760e01b815261ffff831660048201526001600160a01b03909116906307e0db17906024015b600060405180830381600087803b158015610cf557600080fd5b505af1158015610d09573d6000803e3d6000fd5b5050505050565b600033610d1e818585612a56565b5060019392505050565b60fb546001600160a01b0316331480610d595750610d446117de565b6001600160a01b0316336001600160a01b0316145b610d755760405162461bcd60e51b8152600401610b59906154e8565b61ffff83166000908152610101602090815260408083206001600160a01b0386168452909152902054610de45760405162461bcd60e51b81526020600482015260176024820152765661756c743a3a496e616374697665537472617465677960481b6044820152606401610b59565b61ffff83166000908152610101602090815260408083206001600160a01b038616845290915281206001015460fe805491929091610e23908490615504565b909155505061ffff83166000908152610101602090815260408083206001600160a01b0386168452909152902060010181905560fe5461271090610e6890839061549b565b1115610e9b5760405162461bcd60e51b81526020600482015260026024820152612b1b60f11b6044820152606401610b59565b8060fe6000828254610ead919061549b565b9091555050505050565b610ebf6129f7565b61ffff9091166000908152609a6020526040902055565b610ede6129f7565b6097546040516310ddb13760e01b815261ffff831660048201526001600160a01b03909116906310ddb13790602401610cdb565b600054610100900460ff1615808015610f325750600054600160ff909116105b80610f535750610f4130612b7a565b158015610f53575060005460ff166001145b610fb65760405162461bcd60e51b815260206004820152602e60248201527f496e697469616c697a61626c653a20636f6e747261637420697320616c72656160448201526d191e481a5b9a5d1a585b1a5e995960921b6064820152608401610b59565b6000805460ff191660011790558015610fd9576000805461ff0019166101001790555b610fe285612b89565b610fea612bc1565b6110366040518060400160405280600f81526020016e13db5b9a58da185a5b8815985d5b1d608a1b8152506040518060400160405280600381526020016227a6ab60e91b815250612bf0565b60fb80546001600160a01b038089166001600160a01b03199283161790925560fc8054878416908316811790915560fd805487851690841617905561010880549386169390921692909217905560405163095ea7b360e01b815263095ea7b3906110a890869060001990600401615517565b6020604051808303816000875af11580156110c7573d6000803e3d6000fd5b505050506040513d601f19601f820116820180604052508101906110eb9190615530565b508015610bd8576000805461ff0019169055604051600181527f7f26b83ff96e1f2b6a682f133852f6798a09c465da95921460cefb3847402498906020015b60405180910390a1505050505050565b60fb546001600160a01b031633148061116b57506111566117de565b6001600160a01b0316336001600160a01b0316145b6111875760405162461bcd60e51b8152600401610b59906154e8565b610100805460ff1916911515919091179055565b6000336111a9858285612c21565b6111b4858585612c95565b506001949350505050565b60fb546001600160a01b03163314806111f057506111db6117de565b6001600160a01b0316336001600160a01b0316145b61120c5760405162461bcd60e51b8152600401610b59906154e8565b60405133904780156108fc02916000818181858888f19350505050158015611238573d6000803e3d6000fd5b50565b60fc546040805163313ce56760e01b815290516000926001600160a01b03169163313ce5679160048083019260209291908290030181865afa158015611285573d6000803e3d6000fd5b505050506040513d601f19601f82011682018060405250810190610c0c919061554d565b600033610d1e8185856112bc8383612338565b6112c6919061549b565b612a56565b61ffff8316600090815260986020526040812080548291906112ec906154ae565b80601f0160208091040260200160405190810160405280929190818152602001828054611318906154ae565b80156113655780601f1061133a57610100808354040283529160200191611365565b820191906000526020600020905b81548152906001019060200180831161134857829003601f168201915b50505050509050838360405161137c929190615570565b60405180910390208180519060200120149150509392505050565b61139f6129f7565b6097546040516342d65a8d60e01b81526001600160a01b03909116906342d65a8d906113d3908690869086906004016155a9565b600060405180830381600087803b1580156113ed57600080fd5b505af1158015611401573d6000803e3d6000fd5b50505050505050565b60fb546001600160a01b031633148061143b57506114266117de565b6001600160a01b0316336001600160a01b0316145b6114575760405162461bcd60e51b8152600401610b59906154e8565b61ffff85166000908152610101602090815260408083206001600160a01b0388168452909152902054156114b25760405162461bcd60e51b81526020600482015260026024820152612b1960f11b6044820152606401610b59565b6127108360fe546114c3919061549b565b11156114f65760405162461bcd60e51b8152602060048201526002602482015261563360f01b6044820152606401610b59565b60405180610100016040528042815260200184815260200160008152602001600081526020016000815260200160008152602001838152602001826001600160a01b031681525061010160008761ffff1661ffff1681526020019081526020016000206000866001600160a01b03166001600160a01b03168152602001908152602001600020600082015181600001556020820151816001015560408201518160020155606082015181600301556080820151816004015560a0820151816005015560c0820151816006015560e08201518160070160006101000a8154816001600160a01b0302191690836001600160a01b031602179055509050506116208461010360008861ffff1661ffff168152602001908152602001600020612e2e90919063ffffffff16565b5061163161010461ffff8716612e43565b508260fe6000828254611644919061549b565b90915550505050505050565b3330146116ae5760405162461bcd60e51b815260206004820152602660248201527f4e6f6e626c6f636b696e674c7a4170703a2063616c6c6572206d7573742062656044820152650204c7a4170760d41b6064820152608401610b59565b610bd88686868080601f01602080910402602001604051908101604052809392919081815260200183838082843760009201919091525050604080516020601f890181900481028201810190925287815289935091508790879081908401838280828437600092019190915250612e4f92505050565b6000610bec8383612eed565b6117386129f7565b6117426000612f51565b565b6098602052600090815260409020805461175d906154ae565b80601f0160208091040260200160405190810160405280929190818152602001828054611789906154ae565b80156117d65780601f106117ab576101008083540402835291602001916117d6565b820191906000526020600020905b8154815290600101906020018083116117b957829003601f168201915b505050505081565b6065546001600160a01b031690565b606060378054610c20906154ae565b6000610c0c61180961123b565b61181490600a6156ab565b612fa3565b60fc546040516370a0823160e01b81526000916001600160a01b0316906370a082319061184a903090600401614e32565b602060405180830381865afa158015611867573d6000803e3d6000fd5b505050506040513d601f19601f82011682018060405250810190610c0c91906156ba565b61ffff81166000908152609860205260408120805460609291906118ae906154ae565b80601f01602080910402602001604051908101604052809291908181526020018280546118da906154ae565b80156119275780601f106118fc57610100808354040283529160200191611927565b820191906000526020600020905b81548152906001019060200180831161190a57829003601f168201915b50505050509050805160000361197f5760405162461bcd60e51b815260206004820152601d60248201527f4c7a4170703a206e6f20747275737465642070617468207265636f72640000006044820152606401610b59565b61199a6000601483516119929190615504565b839190612fd8565b9392505050565b60fb546001600160a01b03163314806119d257506119bd6117de565b6001600160a01b0316336001600160a01b0316145b6119ee5760405162461bcd60e51b8152600401610b59906154e8565b6001600160a01b038116611a295760405162461bcd60e51b8152602060048201526002602482015261563760f01b6044820152606401610b59565b61ffff83166000908152610101602090815260408083206001600160a01b0386168452909152902054611a835760405162461bcd60e51b81526020600482015260026024820152610ac760f31b6044820152606401610b59565b61ffff83166000908152610101602090815260408083206001600160a01b038516845290915290205415611ade5760405162461bcd60e51b8152602060048201526002602482015261563960f01b6044820152606401610b59565b600061010160008561ffff1661ffff1681526020019081526020016000206000846001600160a01b03166001600160a01b0316815260200190815260200160002060405180610100016040529081600082015481526020016001820154815260200160028201548152602001600382015481526020016004820154815260200160058201548152602001600682015481526020016007820160009054906101000a90046001600160a01b03166001600160a01b03166001600160a01b03168152505090506040518061010001604052808260a001518152602001826020015181526020018260400151815260200160008152602001600081526020018260a0015181526020018260c0015181526020018260e001516001600160a01b031681525061010160008661ffff1661ffff1681526020019081526020016000206000846001600160a01b03166001600160a01b03168152602001908152602001600020600082015181600001556020820151816001015560408201518160020155606082015181600301556080820151816004015560a0820151816005015560c0820151816006015560e08201518160070160006101000a8154816001600160a01b0302191690836001600160a01b03160217905550905050600061010160008661ffff1661ffff1681526020019081526020016000206000856001600160a01b03166001600160a01b0316815260200190815260200160002060010181905550600061010160008661ffff1661ffff1681526020019081526020016000206000856001600160a01b03166001600160a01b0316815260200190815260200160002060020181905550611d88848460046040518060200160405280876001600160a01b0316815250604051602001611d7492919061570b565b6040516020818303038152906040526130e5565b50505050565b60003381611d9c8286612338565b905083811015611dfc5760405162461bcd60e51b815260206004820152602560248201527f45524332303a2064656372656173656420616c6c6f77616e63652062656c6f77604482015264207a65726f60d81b6064820152608401610b59565b6111b48286868403612a56565b611e116129f7565b818130604051602001611e2693929190615730565b60408051601f1981840301815291815261ffff8516600090815260986020522090611e5190826157ac565b507f8c0400cfe2d1199b1a725c78960bcc2a344d869b80590d0f2bd005db15a572ce838383604051611e85939291906155a9565b60405180910390a1505050565b600033610d1e818585612c95565b60fc546001600160a01b03848116911614611ee35760405162461bcd60e51b815260206004820152600360248201526205631360ec1b6044820152606401610b59565b610108546001600160a01b0316331480611f07575060fd546001600160a01b031633145b80611f2a5750611f156117de565b6001600160a01b0316336001600160a01b0316145b611f5c5760405162461bcd60e51b815260206004820152600360248201526256313160e81b6044820152606401610b59565b6000611f6a86826014612fd8565b604051602001611f7a9190615865565b604051602081830303815290604052611f9290615881565b60601c9050611fa28783856132a1565b604080518481526001600160a01b0383811660208301528616917f92073a89a07a000083eb8b2575fc15e7bb936efe55d00727d6942a796d7211a7910160405180910390a250505050505050565b611ff86129f7565b609b80546001600160a01b0319166001600160a01b0383161790556040517f5db758e995a17ec1ad84bdef7e8c3293a0bd6179bcce400dff5d4c3d87db726b90612043908390614e32565b60405180910390a150565b6120566129f7565b6097546040516332fb62e760e21b81526001600160a01b039091169063cbed8b9c9061208e90889088908890889088906004016158b8565b600060405180830381600087803b1580156120a857600080fd5b505af11580156120bc573d6000803e3d6000fd5b505050505050505050565b60fb546001600160a01b03163314806120f857506120e36117de565b6001600160a01b0316336001600160a01b0316145b6121145760405162461bcd60e51b8152600401610b59906154e8565b61211e8282613338565b5050565b61ffff8616600090815260c9602052604080822090516121459088908890615570565b90815260408051602092819003830190206001600160401b038716600090815292529020549050806121c55760405162461bcd60e51b815260206004820152602360248201527f4e6f6e626c6f636b696e674c7a4170703a206e6f2073746f726564206d65737360448201526261676560e81b6064820152608401610b59565b8083836040516121d6929190615570565b6040518091039020146122355760405162461bcd60e51b815260206004820152602160248201527f4e6f6e626c6f636b696e674c7a4170703a20696e76616c6964207061796c6f616044820152601960fa1b6064820152608401610b59565b61ffff8716600090815260c9602052604080822090516122589089908990615570565b90815260408051602092819003830181206001600160401b038916600090815290845282902093909355601f880182900482028301820190528682526122f0918991899089908190840183828082843760009201919091525050604080516020601f8a018190048102820181019092528881528a935091508890889081908401838280828437600092019190915250612e4f92505050565b7fc264d91f3adc5588250e1551f547752ca0cfa8f6b530d243b9f9f4cab10ea8e587878787856040516123279594939291906158e6565b60405180910390a150505050505050565b6001600160a01b03918216600090815260346020908152604080832093909416825291909152205490565b61236b6129f7565b600081116123b35760405162461bcd60e51b81526020600482015260156024820152744c7a4170703a20696e76616c6964206d696e47617360581b6044820152606401610b59565b61ffff83811660008181526099602090815260408083209487168084529482529182902085905581519283528201929092529081018290527f9d5c7c0b934da8fefa9c7760c98383778a12dfbfc0c3b3106518f43fb9508ac090606001611e85565b6124208383836133ad565b505050565b6000610bec83836134ee565b6124396129f7565b61ffff83166000908152609860205260409020612457828483615921565b507ffa41487ad5d6728f0b19276fa1eddc16558578f5109fc39d2dc33c3230470dab838383604051611e85939291906155a9565b60fb546001600160a01b03163314806124bc57506124a76117de565b6001600160a01b0316336001600160a01b0316145b6124d85760405162461bcd60e51b8152600401610b59906154e8565b610102546000908152610106602052604090206001015460ff16156125245760405162461bcd60e51b8152602060048201526002602482015261158d60f21b6044820152606401610b59565b6000805b61010254600090815261010660205260409020548110156125a55761010254600090815261010660205260408120805483908110612568576125686159da565b906000526020600020906006020190506125858160020154612fa3565b61258f908461549b565b925050808061259d906159f0565b915050612528565b506125ae611819565b81116125bc576112386135a6565b60006125c6611819565b6125d09083615504565b90506000805b6125e16101046138bc565b811080156125ef5750600083115b15612740576000612602610104836138c6565b61ffff81166000908152610103602052604081209192505b612623826138bc565b811080156126315750600086115b1561272a57600061264283836138c6565b61ffff85166000908152610101602090815260408083206001600160a01b038516845290915281206002810154929350919003612680575050612718565b60006126908983600201546138d2565b6101025460009081526101066020908152604080832061ffff8b16845260050182528083206001600160a01b0388168452909152902081905590506126d5818a615504565b985061270786846000604051806040016040528086815260200161010254815250604051602001611d74929190615a09565b87612711816159f0565b9850505050505b80612722816159f0565b91505061261a565b5050508080612738906159f0565b9150506125d6565b50600081116127765760405162461bcd60e51b8152602060048201526002602482015261563560f01b6044820152606401610b59565b6101028054600090815261010660205260408082206002019390935590548152206001908101805460ff191690911790555050565b6127b36129f7565b6001600160a01b0381166128185760405162461bcd60e51b815260206004820152602660248201527f4f776e61626c653a206e6577206f776e657220697320746865207a65726f206160448201526564647265737360d01b6064820152608401610b59565b61123881612f51565b609754604051633d7b2f6f60e21b815261ffff808716600483015285166024820152306044820152606481018390526060916001600160a01b03169063f5ecbdbc90608401600060405180830381865afa158015612883573d6000803e3d6000fd5b505050506040513d6000823e601f3d908101601f191682016040526128ab9190810190615a74565b90505b949350505050565b6000806129195a60966366ad5c8a60e01b898989896040516024016128de9493929190615aa8565b60408051601f198184030181529190526020810180516001600160e01b03166001600160e01b031990931692909217909152309291906138e8565b9150915081610bd857610bd88686868685613974565b6101005460009060ff161561294657506000610bef565b6000612710612953610bf5565b61ffff86166000908152610101602090815260408083206001600160a01b03891684529091529020600101546129899190615ae6565b6129939190615afd565b61ffff85166000908152610101602090815260408083206001600160a01b03881684529091529020600201549091508082116129d457600092505050610bef565b6129ee6129df611819565b6129e98385615504565b6138d2565b95945050505050565b33612a006117de565b6001600160a01b0316146117425760405162461bcd60e51b815260206004820181905260248201527f4f776e61626c653a2063616c6c6572206973206e6f7420746865206f776e65726044820152606401610b59565b6001600160a01b038316612ab85760405162461bcd60e51b8152602060048201526024808201527f45524332303a20617070726f76652066726f6d20746865207a65726f206164646044820152637265737360e01b6064820152608401610b59565b6001600160a01b038216612b195760405162461bcd60e51b815260206004820152602260248201527f45524332303a20617070726f766520746f20746865207a65726f206164647265604482015261737360f01b6064820152608401610b59565b6001600160a01b0383811660008181526034602090815260408083209487168084529482529182902085905590518481527f8c5be1e5ebec7d5bd14f71427d1e84f3dd0314c0f7b2291e5b200ac8c7c3b925910160405180910390a3505050565b6001600160a01b03163b151590565b600054610100900460ff16612bb05760405162461bcd60e51b8152600401610b5990615b1f565b612bb8613a11565b61123881613a41565b600054610100900460ff16612be85760405162461bcd60e51b8152600401610b5990615b1f565b611742613a11565b600054610100900460ff16612c175760405162461bcd60e51b8152600401610b5990615b1f565b61211e8282613a8a565b6000612c2d8484612338565b90506000198114611d885781811015612c885760405162461bcd60e51b815260206004820152601d60248201527f45524332303a20696e73756666696369656e7420616c6c6f77616e63650000006044820152606401610b59565b611d888484848403612a56565b6001600160a01b038316612cf95760405162461bcd60e51b815260206004820152602560248201527f45524332303a207472616e736665722066726f6d20746865207a65726f206164604482015264647265737360d81b6064820152608401610b59565b6001600160a01b038216612d5b5760405162461bcd60e51b815260206004820152602360248201527f45524332303a207472616e7366657220746f20746865207a65726f206164647260448201526265737360e81b6064820152608401610b59565b6001600160a01b03831660009081526033602052604090205481811015612dd35760405162461bcd60e51b815260206004820152602660248201527f45524332303a207472616e7366657220616d6f756e7420657863656564732062604482015265616c616e636560d01b6064820152608401610b59565b6001600160a01b038085166000818152603360205260408082208686039055928616808252908390208054860190559151600080516020615ec583398151915290612e219086815260200190565b60405180910390a3611d88565b6000610bec836001600160a01b038416613aca565b6000610bec8383613aca565b6000612e5d84826014612fd8565b604051602001612e6d9190615865565b604051602081830303815290604052612e8590615881565b61ffff861660009081526101016020908152604080832060609490941c80845293909152902054909150612ee15760405162461bcd60e51b815260206004820152600360248201526256323160e81b6044820152606401610b59565b610d09858360006132a1565b6101005460009060ff1615612f2a5760405162461bcd60e51b815260206004820152600360248201526256313360e81b6044820152606401610b59565b6000612f368385613b19565b60fc54909150610bec906001600160a01b0316333087613b95565b606580546001600160a01b038381166001600160a01b0319831681179093556040519116919082907f8be0079c531659141344cd1fd0a4f28419497f9722a3daafe3b4186f6b6457e090600090a35050565b6000612fae60355490565b600003612fb9575090565b603554612fc4610bf5565b612fce9084615ae6565b610bef9190615afd565b606081612fe681601f61549b565b10156130255760405162461bcd60e51b815260206004820152600e60248201526d736c6963655f6f766572666c6f7760901b6044820152606401610b59565b61302f828461549b565b845110156130735760405162461bcd60e51b8152602060048201526011602482015270736c6963655f6f75744f66426f756e647360781b6044820152606401610b59565b60608215801561309257604051915060008252602082016040526130dc565b6040519150601f8416801560200281840101858101878315602002848b0101015b818310156130cb5780518352602092830192016130b3565b5050858452601f01601f1916604052505b50949350505050565b61ffff83166000908152610101602090815260408083206001600160a01b0386168452909152902080546131415760405162461bcd60e51b81526020600482015260036024820152620ac62760eb1b6044820152606401610b59565b6040516001600160601b0319606085811b8216602084015230901b16603482015260009060480160408051601f198184030181529190526097549091506000906001600160a01b03166340a7bb108730878561319b613c00565b6040518663ffffffff1660e01b81526004016131bb959493929190615b6a565b6040805180830381865afa1580156131d7573d6000803e3d6000fd5b505050506040513d601f19601f820116820180604052508101906131fb9190615bbe565b509050804710156132275760405162fae2d560e21b815260048101829052476024820152604401610b59565b6097546001600160a01b031663c5803100828885883080613246613c00565b6040518863ffffffff1660e01b815260040161326796959493929190615be2565b6000604051808303818588803b15801561328057600080fd5b505af1158015613294573d6000803e3d6000fd5b5050505050505050505050565b6000828060200190518101906132b79190615c49565b905060028160048111156132cd576132cd6156d3565b036132fc576000838060200190518101906132e89190615c75565b9150506132f6858285613c30565b50611d88565b6001816004811115613310576133106156d3565b03611d885760008380602001905181019061332b9190615d60565b915050610d098582614066565b61ffff82166000908152610101602090815260408083206001600160a01b038516845290915281206001015460fe805491929091613377908490615504565b909155505061ffff9091166000908152610101602090815260408083206001600160a01b03909416835292905290812060010155565b610102546000908152610106602052604090206001015460ff16156133fa5760405162461bcd60e51b81526020600482015260036024820152622b189b60e91b6044820152606401610b59565b613405333085612c95565b61010660006101025481526020019081526020016000206000016040518060c00160405280336001600160a01b03168152602001846001600160a01b0316815260200185815260200183815260200161345d86612fa3565b81526000602091820181905283546001808201865594825290829020835160069092020180546001600160a01b03199081166001600160a01b039384161782559284015194810180549093169490911693909317905560408101516002830155606081015160038301556080810151600483015560a001516005909101805460ff1916911515919091179055505050565b6000806127106134fc610bf5565b61ffff86166000908152610101602090815260408083206001600160a01b03891684529091529020600101546135329190615ae6565b61353c9190615afd565b61ffff85166000908152610101602090815260408083206001600160a01b0388168452909152902060020154610100549192509060ff1615613581579150610bef9050565b81811161359357600092505050610bef565b61359d8282615504565b92505050610bef565b6101025460009081526101066020526040902054806135ed5760405162461bcd60e51b815260206004820152600360248201526256313960e81b6044820152606401610b59565b6000816001600160401b03811115613607576136076150a8565b604051908082528060200260200182016040528015613630578160200160208202803683370190505b50905060005b828110156136b05761010254600090815261010660205260408120805483908110613663576136636159da565b906000526020600020906006020190506136808160020154612fa3565b838381518110613692576136926159da565b602090810291909101015250806136a8816159f0565b915050613636565b5060005b8281101561384957610102546000908152610106602052604081208054839081106136e1576136e16159da565b906000526020600020906006020190506000613718848481518110613708576137086159da565b60200260200101516129e9611819565b905081600401548110156137f75760008183600401546137389190615504565b9050600083600401546127108361374f9190615ae6565b6137599190615afd565b905083600301548111156137f45760058401805460ff191690558354600285015460405163a9059cbb60e01b8152309263a9059cbb926137a7926001600160a01b0390921691600401615517565b6020604051808303816000875af11580156137c6573d6000803e3d6000fd5b505050506040513d601f19601f820116820180604052508101906137ea9190615530565b5050505050613837565b50505b60058201805460ff1916600190811790915582015460fc54613826916001600160a01b03918216911683614241565b613834308360020154614260565b50505b80613841816159f0565b9150506136b4565b506101025460408051918252602082018490527fc682eb885c208b8aaaa811c05902e24a4f14b388960311623a8f31404f655129910160405180910390a16101028054600090815261010660205260408120600101805460ff19169055815491906138b3836159f0565b91905055505050565b6000610bef825490565b6000610bec8383614382565b60008183106138e15781610bec565b5090919050565b6000606060008060008661ffff166001600160401b0381111561390d5761390d6150a8565b6040519080825280601f01601f191660200182016040528015613937576020820181803683370190505b50905060008087516020890160008d8df191503d925086831115613959578692505b828152826000602083013e9093509150505b94509492505050565b818051906020012060c960008761ffff1661ffff168152602001908152602001600020856040516139a59190615865565b9081526040805191829003602090810183206001600160401b0388166000908152915220919091557fe183f33de2837795525b4792ca4cd60535bd77c53b7e7030060bfcf5734d6b0c90613a029087908790879087908790615deb565b60405180910390a15050505050565b600054610100900460ff16613a385760405162461bcd60e51b8152600401610b5990615b1f565b61174233612f51565b600054610100900460ff16613a685760405162461bcd60e51b8152600401610b5990615b1f565b609780546001600160a01b0319166001600160a01b0392909216919091179055565b600054610100900460ff16613ab15760405162461bcd60e51b8152600401610b5990615b1f565b6036613abd83826157ac565b50603761242082826157ac565b6000818152600183016020526040812054613b1157508154600181810184556000848152602080822090930184905584548482528286019093526040902091909155610bef565b506000610bef565b600080613b2560355490565b600003613b33575081613b55565b613b3b610bf5565b603554613b489085615ae6565b613b529190615afd565b90505b60008111613b8b5760405162461bcd60e51b815260206004820152600360248201526256313760e81b6044820152606401610b59565b610bec84826143ac565b6040516001600160a01b0380851660248301528316604482015260648101829052611d889085906323b872dd60e01b906084015b60408051601f198184030181529190526020810180516001600160e01b03166001600160e01b03199093169290921790915261445b565b60408051600160f01b6020820152620f424060228083019190915282518083039091018152604290910190915290565b613c3a8383614530565b61ffff831660009081526101016020908152604080832085516001600160a01b03168452909152902054613c965760405162461bcd60e51b8152602060048201526003602482015262158c4d60ea1b6044820152606401610b59565b606082015115613cb357613cb3838360000151846060015161470f565b60408083015161ffff85166000908152610101602090815283822086516001600160a01b031683529052918220600301805491929091613cf490849061549b565b90915550508151600090613d099085906134ee565b90506000613d1b8285608001516138d2565b90508015613d8b5761ffff851660009081526101016020908152604080832087516001600160a01b0316845290915281206002018054839290613d5f908490615504565b925050819055508060ff6000828254613d789190615504565b90915550613d8890508183615504565b91505b60e084015115613df85760e084015161ffff861660009081526101016020908152604080832088516001600160a01b0316845290915281206002018054909190613dd690849061549b565b909155505060e084015160ff8054600090613df290849061549b565b90915550505b60208085015161ffff8716600081815261010180855260408083208a516001600160a01b039081168552818852828520600501969096559383529085528851909316815292529020600101541580613e5357506101005460ff165b15613e615783610100015191505b60a084015115613eb457613eaf8460a001518686600001516003604051806020016040528088815250604051602001613e9b929190615e3d565b604051602081830303815290604052614804565b613edf565b613edf8585600001516003604051806020016040528087815250604051602001611d74929190615e3d565b600061010160008761ffff1661ffff168152602001908152602001600020600086600001516001600160a01b03166001600160a01b0316815260200190815260200160002060405180610100016040529081600082015481526020016001820154815260200160028201548152602001600382015481526020016004820154815260200160058201548152602001600682015481526020016007820160009054906101000a90046001600160a01b03166001600160a01b03166001600160a01b03168152505090507f08bc8eff67f79e18165507d64024f5ca5e90a2593c7a45cb5caf7f9d843e404c8686600001518760400151886060015189608001518660600151876080015188604001518d60e001518a602001518e60405161112a9b9a9998979695949392919061ffff9b909b168b526001600160a01b039990991660208b015260408a01979097526060890195909552608088019390935260a087019190915260c086015260e08501526101008401526101208301526101408201526101600190565b61ffff821660009081526101016020908152604080832084516001600160a01b031684529091529020546140c25760405162461bcd60e51b815260206004820152600360248201526205632360ec1b6044820152606401610b59565b6040810151156140df576140df828260000151836040015161470f565b60208082015161ffff841660009081526101018352604080822085516001600160a01b03168352909352918220600201805491929091614120908490615504565b9091555050602081015160ff805460009061413c908490615504565b90915550506060810151600090815261010660205260408120600301805491614164836159f0565b909155505060608101805160009081526101066020818152604080842061ffff88168552600401825280842086516001600160a01b031685528252808420805460ff19166001179055845184529190528082206003015492518252902060020154036141d2576141d26135a6565b80600001516001600160a01b03168261ffff167f046368a4ca42efbdd968b9025440eb5590bdcda7da09f4fef8ac4ef2f44a5ed0836020015184604001518560600151604051614235939291909283526020830191909152604082015260600190565b60405180910390a35050565b6124208363a9059cbb60e01b8484604051602401613bc9929190615517565b6001600160a01b0382166142c05760405162461bcd60e51b815260206004820152602160248201527f45524332303a206275726e2066726f6d20746865207a65726f206164647265736044820152607360f81b6064820152608401610b59565b6001600160a01b038216600090815260336020526040902054818110156143345760405162461bcd60e51b815260206004820152602260248201527f45524332303a206275726e20616d6f756e7420657863656564732062616c616e604482015261636560f01b6064820152608401610b59565b6001600160a01b0383166000818152603360209081526040808320868603905560358054879003905551858152919291600080516020615ec5833981519152910160405180910390a3505050565b6000826000018281548110614399576143996159da565b9060005260206000200154905092915050565b6001600160a01b0382166144025760405162461bcd60e51b815260206004820152601f60248201527f45524332303a206d696e7420746f20746865207a65726f2061646472657373006044820152606401610b59565b8060356000828254614414919061549b565b90915550506001600160a01b038216600081815260336020908152604080832080548601905551848152600080516020615ec5833981519152910160405180910390a35050565b60006144b0826040518060400160405280602081526020017f5361666545524332303a206c6f772d6c6576656c2063616c6c206661696c6564815250856001600160a01b03166148f49092919063ffffffff16565b90508051600014806144d15750808060200190518101906144d19190615530565b6124205760405162461bcd60e51b815260206004820152602a60248201527f5361666545524332303a204552433230206f7065726174696f6e20646964206e6044820152691bdd081cdd58d8d9595960b21b6064820152608401610b59565b61ffff821660009081526101076020908152604080832084516001600160a01b031684528252808320610120850151845290915290205460ff161561459d5760405162461bcd60e51b81526020600482015260036024820152622b191960e91b6044820152606401610b59565b805161012082015160405160609290921b6001600160601b0319166020830152603482015260f083901b6001600160f01b031916605482015260009060560160405160208183030381529060405280519060200120905060008160405160200161463291907b0ca2ba3432b932bab69029b4b3b732b21026b2b9b9b0b3b29d05199960211b8152601c810191909152603c0190565b60408051601f19818403018152918152815160209283012061ffff87166000908152610101845282812087516001600160a01b039081168352945291909120600701546101408601519193509091169061468d908390614903565b6001600160a01b0316146146c95760405162461bcd60e51b815260206004820152600360248201526256323360e81b6044820152606401610b59565b505061ffff90911660009081526101076020908152604080832084516001600160a01b03168452825280832061012090940151835292905220805460ff19166001179055565b61ffff83166000908152610101602090815260408083206001600160a01b03861684529091529020600201548111156147705760405162461bcd60e51b815260206004820152600360248201526256313560e81b6044820152606401610b59565b61ffff83166000908152610101602090815260408083206001600160a01b0386168452909152812060040180548392906147ab90849061549b565b909155505061ffff83166000908152610101602090815260408083206001600160a01b0386168452909152812060020180548392906147eb908490615504565b925050819055508060ff6000828254610ead9190615504565b60fd54604051630dc6346160e01b81526000916001600160a01b031690630dc634619061483990879087908790600401615e59565b602060405180830381865afa158015614856573d6000803e3d6000fd5b505050506040513d601f19601f8201168201806040525081019061487a91906156ba565b60fd5460fc54604051633920455b60e11b81529293506001600160a01b03918216926372408ab69285926148bb929116908a908a908a908a90600401615e87565b6000604051808303818588803b1580156148d457600080fd5b505af11580156148e8573d6000803e3d6000fd5b50505050505050505050565b60606128ae8484600085614927565b60008060006149128585614a02565b9150915061491f81614a47565b509392505050565b6060824710156149885760405162461bcd60e51b815260206004820152602660248201527f416464726573733a20696e73756666696369656e742062616c616e636520666f6044820152651c8818d85b1b60d21b6064820152608401610b59565b600080866001600160a01b031685876040516149a49190615865565b60006040518083038185875af1925050503d80600081146149e1576040519150601f19603f3d011682016040523d82523d6000602084013e6149e6565b606091505b50915091506149f787838387614b8c565b979650505050505050565b6000808251604103614a385760208301516040840151606085015160001a614a2c87828585614c03565b94509450505050614a40565b506000905060025b9250929050565b6000816004811115614a5b57614a5b6156d3565b03614a635750565b6001816004811115614a7757614a776156d3565b03614abf5760405162461bcd60e51b815260206004820152601860248201527745434453413a20696e76616c6964207369676e617475726560401b6044820152606401610b59565b6002816004811115614ad357614ad36156d3565b03614b205760405162461bcd60e51b815260206004820152601f60248201527f45434453413a20696e76616c6964207369676e6174757265206c656e677468006044820152606401610b59565b6003816004811115614b3457614b346156d3565b036112385760405162461bcd60e51b815260206004820152602260248201527f45434453413a20696e76616c6964207369676e6174757265202773272076616c604482015261756560f01b6064820152608401610b59565b60608315614bf9578251600003614bf257614ba685612b7a565b614bf25760405162461bcd60e51b815260206004820152601d60248201527f416464726573733a2063616c6c20746f206e6f6e2d636f6e74726163740000006044820152606401610b59565b50816128ae565b6128ae8383614cba565b6000806fa2a8918ca85bafe22016d0b997e4df60600160ff1b03831115614c30575060009050600361396b565b6040805160008082526020820180845289905260ff881692820192909252606081018690526080810185905260019060a0016020604051602081039080840390855afa158015614c84573d6000803e3d6000fd5b5050604051601f1901519150506001600160a01b038116614cad5760006001925092505061396b565b9660009650945050505050565b815115614cca5781518083602001fd5b8060405162461bcd60e51b8152600401610b599190614e96565b803561ffff81168114614cf657600080fd5b919050565b60008083601f840112614d0d57600080fd5b5081356001600160401b03811115614d2457600080fd5b602083019150836020828501011115614a4057600080fd5b80356001600160401b0381168114614cf657600080fd5b60008060008060008060808789031215614d6c57600080fd5b614d7587614ce4565b955060208701356001600160401b0380821115614d9157600080fd5b614d9d8a838b01614cfb565b9097509550859150614db160408a01614d3c565b94506060890135915080821115614dc757600080fd5b50614dd489828a01614cfb565b979a9699509497509295939492505050565b6001600160a01b038116811461123857600080fd5b60008060408385031215614e0e57600080fd5b614e1783614ce4565b91506020830135614e2781614de6565b809150509250929050565b6001600160a01b0391909116815260200190565b60005b83811015614e61578181015183820152602001614e49565b50506000910152565b60008151808452614e82816020860160208601614e46565b601f01601f19169290920160200192915050565b602081526000610bec6020830184614e6a565b600060208284031215614ebb57600080fd5b610bec82614ce4565b60008060408385031215614ed757600080fd5b8235614ee281614de6565b946020939093013593505050565b600080600060608486031215614f0557600080fd5b614f0e84614ce4565b92506020840135614f1e81614de6565b929592945050506040919091013590565b60008060408385031215614f4257600080fd5b614ee283614ce4565b600080600080600060a08688031215614f6357600080fd5b8535614f6e81614de6565b94506020860135614f7e81614de6565b93506040860135614f8e81614de6565b92506060860135614f9e81614de6565b91506080860135614fae81614de6565b809150509295509295909350565b801515811461123857600080fd5b600060208284031215614fdc57600080fd5b8135610bec81614fbc565b600080600060608486031215614ffc57600080fd5b8335614f0e81614de6565b60008060006040848603121561501c57600080fd5b61502584614ce4565b925060208401356001600160401b0381111561504057600080fd5b61504c86828701614cfb565b9497909650939450505050565b600080600080600060a0868803121561507157600080fd5b61507a86614ce4565b9450602086013561508a81614de6565b935060408601359250606086013591506080860135614fae81614de6565b634e487b7160e01b600052604160045260246000fd5b60405161016081016001600160401b03811182821017156150e1576150e16150a8565b60405290565b604051601f8201601f191681016001600160401b038111828210171561510f5761510f6150a8565b604052919050565b60006001600160401b03821115615130576151306150a8565b50601f01601f191660200190565b600082601f83011261514f57600080fd5b813561516261515d82615117565b6150e7565b81815284602083860101111561517757600080fd5b816020850160208301376000918101602001919091529392505050565b6000806000606084860312156151a957600080fd5b6151b284614ce4565b925060208401356001600160401b038111156151cd57600080fd5b6151d98682870161513e565b9250506151e860408501614d3c565b90509250925092565b6000806040838503121561520457600080fd5b823591506020830135614e2781614de6565b60006020828403121561522857600080fd5b8135610bec81614de6565b6000806040838503121561524657600080fd5b61524f83614ce4565b915061525d60208401614ce4565b90509250929050565b60008060006060848603121561527b57600080fd5b61528484614ce4565b9250602084013561529481614de6565b915060408401356152a481614de6565b809150509250925092565b60008060008060008060c087890312156152c857600080fd5b6152d187614ce4565b955060208701356001600160401b03808211156152ed57600080fd5b6152f98a838b0161513e565b9650604089013595506060890135915061531282614de6565b9093506080880135925060a0880135908082111561532f57600080fd5b5061533c89828a0161513e565b9150509295509295509295565b60008060008060006080868803121561536157600080fd5b61536a86614ce4565b945061537860208701614ce4565b93506040860135925060608601356001600160401b0381111561539a57600080fd5b6153a688828901614cfb565b969995985093965092949392505050565b600080604083850312156153ca57600080fd5b8235614e1781614de6565b6000806000606084860312156153ea57600080fd5b6153f384614ce4565b925061540160208501614ce4565b9150604084013590509250925092565b60008060006060848603121561542657600080fd5b833592506020840135614f1e81614de6565b6000806000806080858703121561544e57600080fd5b61545785614ce4565b935061546560208601614ce4565b9250604085013561547581614de6565b9396929550929360600135925050565b634e487b7160e01b600052601160045260246000fd5b80820180821115610bef57610bef615485565b600181811c908216806154c257607f821691505b6020821081036154e257634e487b7160e01b600052602260045260246000fd5b50919050565b602080825260029082015261563160f01b604082015260600190565b81810381811115610bef57610bef615485565b6001600160a01b03929092168252602082015260400190565b60006020828403121561554257600080fd5b8151610bec81614fbc565b60006020828403121561555f57600080fd5b815160ff81168114610bec57600080fd5b8183823760009101908152919050565b81835281816020850137506000828201602090810191909152601f909101601f19169091010190565b61ffff841681526040602082015260006128ab604083018486615580565b600181815b808511156156025781600019048211156155e8576155e8615485565b808516156155f557918102915b93841c93908002906155cc565b509250929050565b60008261561957506001610bef565b8161562657506000610bef565b816001811461563c576002811461564657615662565b6001915050610bef565b60ff84111561565757615657615485565b50506001821b610bef565b5060208310610133831016604e8410600b8410161715615685575081810a610bef565b61568f83836155c7565b80600019048211156156a3576156a3615485565b029392505050565b6000610bec60ff84168361560a565b6000602082840312156156cc57600080fd5b5051919050565b634e487b7160e01b600052602160045260246000fd5b6005811061570757634e487b7160e01b600052602160045260246000fd5b9052565b6040810161571982856156e9565b91516001600160a01b031660209190910152919050565b8284823760609190911b6001600160601b0319169101908152601401919050565b601f82111561242057600081815260208120601f850160051c810160208610156157785750805b601f850160051c820191505b81811015610bd857828155600101615784565b600019600383901b1c191660019190911b1790565b81516001600160401b038111156157c5576157c56150a8565b6157d9816157d384546154ae565b84615751565b602080601f83116001811461580857600084156157f65750858301515b6158008582615797565b865550610bd8565b600085815260208120601f198616915b8281101561583757888601518255948401946001909101908401615818565b50858210156158555787850151600019600388901b60f8161c191681555b5050505050600190811b01905550565b60008251615877818460208701614e46565b9190910192915050565b805160208201516001600160601b031980821692919060148310156158b05780818460140360031b1b83161693505b505050919050565b600061ffff8088168352808716602084015250846040830152608060608301526149f7608083018486615580565b61ffff86168152608060208201526000615904608083018688615580565b6001600160401b0394909416604083015250606001529392505050565b6001600160401b03831115615938576159386150a8565b61594c8361594683546154ae565b83615751565b6000601f84116001811461597a57600085156159685750838201355b6159728682615797565b845550610d09565b600083815260209020601f19861690835b828110156159ab578685013582556020948501946001909201910161598b565b50868210156159c85760001960f88860031b161c19848701351681555b505060018560011b0183555050505050565b634e487b7160e01b600052603260045260246000fd5b600060018201615a0257615a02615485565b5060010190565b60608101615a1782856156e9565b82516020830152602083015160408301529392505050565b600082601f830112615a4057600080fd5b8151615a4e61515d82615117565b818152846020838601011115615a6357600080fd5b6128ae826020830160208701614e46565b600060208284031215615a8657600080fd5b81516001600160401b03811115615a9c57600080fd5b6128ae84828501615a2f565b61ffff85168152608060208201526000615ac56080830186614e6a565b6001600160401b038516604084015282810360608401526149f78185614e6a565b8082028115828204841417610bef57610bef615485565b600082615b1a57634e487b7160e01b600052601260045260246000fd5b500490565b6020808252602b908201527f496e697469616c697a61626c653a20636f6e7472616374206973206e6f74206960408201526a6e697469616c697a696e6760a81b606082015260800190565b61ffff861681526001600160a01b038516602082015260a060408201819052600090615b9890830186614e6a565b84151560608401528281036080840152615bb28185614e6a565b98975050505050505050565b60008060408385031215615bd157600080fd5b505080516020909101519092909150565b61ffff8716815260c060208201526000615bff60c0830188614e6a565b8281036040840152615c118188614e6a565b6001600160a01b0387811660608601528616608085015283810360a08501529050615c3c8185614e6a565b9998505050505050505050565b600060208284031215615c5b57600080fd5b815160058110610bec57600080fd5b8051614cf681614de6565b60008060408385031215615c8857600080fd5b825160208401519092506001600160401b0380821115615ca757600080fd5b908401906101608287031215615cbc57600080fd5b615cc46150be565b615ccd83615c6a565b81526020830151602082015260408301516040820152606083015160608201526080830151608082015260a083015160a082015260c083015160c082015260e083015160e08201526101008084015181830152506101208084015181830152506101408084015183811115615d4157600080fd5b615d4d89828701615a2f565b8284015250508093505050509250929050565b60008082840360a0811215615d7457600080fd5b835192506080601f1982011215615d8a57600080fd5b50604051608081016001600160401b0381118282101715615dad57615dad6150a8565b6040526020840151615dbe81614de6565b80825250604084015160208201526060840151604082015260808401516060820152809150509250929050565b61ffff8616815260a060208201526000615e0860a0830187614e6a565b6001600160401b03861660408401528281036060840152615e298186614e6a565b90508281036080840152615bb28185614e6a565b60408101615e4b82856156e9565b825160208301529392505050565b61ffff841681526001600160a01b03831660208201526060604082018190526000906128ab90830184614e6a565b6001600160a01b0386811682526020820186905261ffff851660408301528316606082015260a0608082018190526000906149f790830184614e6a56feddf252ad1be2c89b69c2b068fc378daa952ba7f163c4a11628f55a4df523b3efa2646970667358221220bdecbdb3b6b3df6f534d9a1bf542dfdafe52dfc8dfe37b21c41b9fdd8ecd74e264736f6c63430008130033",
  "linkReferences": {},
  "deployedLinkReferences": {}
}