{
  "_format": "hh-sol-artifact-1",
  "contractName": "Vault",
  "sourceName": "contracts/Vault.sol",
  "abi": [
    {
      "inputs": [
        {
          "internalType": "uint256",
          "name": "amount",
          "type": "uint256"
        },
        {
          "internalType": "uint256",
          "name": "balance",
          "type": "uint256"
        }
      ],
      "name": "InsufficientFunds",
      "type": "error"
    },
    {
      "anonymous": false,
      "inputs": [
        {
          "indexed": true,
          "internalType": "address",
          "name": "owner",
          "type": "address"
        },
        {
          "indexed": true,
          "internalType": "address",
          "name": "spender",
          "type": "address"
        },
        {
          "indexed": false,
          "internalType": "uint256",
          "name": "value",
          "type": "uint256"
        }
      ],
      "name": "Approval",
      "type": "event"
    },
    {
      "anonymous": false,
      "inputs": [
        {
          "indexed": false,
          "internalType": "uint256",
          "name": "epochId",
          "type": "uint256"
        },
        {
          "indexed": false,
          "internalType": "uint256",
          "name": "requestCount",
          "type": "uint256"
        }
      ],
      "name": "FulfilledWithdrawEpoch",
      "type": "event"
    },
    {
      "anonymous": false,
      "inputs": [
        {
          "indexed": false,
          "internalType": "uint8",
          "name": "version",
          "type": "uint8"
        }
      ],
      "name": "Initialized",
      "type": "event"
    },
    {
      "anonymous": false,
      "inputs": [
        {
          "indexed": false,
          "internalType": "uint16",
          "name": "_srcChainId",
          "type": "uint16"
        },
        {
          "indexed": false,
          "internalType": "bytes",
          "name": "_srcAddress",
          "type": "bytes"
        },
        {
          "indexed": false,
          "internalType": "uint64",
          "name": "_nonce",
          "type": "uint64"
        },
        {
          "indexed": false,
          "internalType": "bytes",
          "name": "_payload",
          "type": "bytes"
        },
        {
          "indexed": false,
          "internalType": "bytes",
          "name": "_reason",
          "type": "bytes"
        }
      ],
      "name": "MessageFailed",
      "type": "event"
    },
    {
      "anonymous": false,
      "inputs": [
        {
          "indexed": true,
          "internalType": "address",
          "name": "previousOwner",
          "type": "address"
        },
        {
          "indexed": true,
          "internalType": "address",
          "name": "newOwner",
          "type": "address"
        }
      ],
      "name": "OwnershipTransferred",
      "type": "event"
    },
    {
      "anonymous": false,
      "inputs": [
        {
          "indexed": false,
          "internalType": "uint16",
          "name": "_srcChainId",
          "type": "uint16"
        },
        {
          "indexed": false,
          "internalType": "bytes",
          "name": "_srcAddress",
          "type": "bytes"
        },
        {
          "indexed": false,
          "internalType": "uint64",
          "name": "_nonce",
          "type": "uint64"
        },
        {
          "indexed": false,
          "internalType": "bytes32",
          "name": "_payloadHash",
          "type": "bytes32"
        }
      ],
      "name": "RetryMessageSuccess",
      "type": "event"
    },
    {
      "anonymous": false,
      "inputs": [
        {
          "indexed": false,
          "internalType": "uint16",
          "name": "_dstChainId",
          "type": "uint16"
        },
        {
          "indexed": false,
          "internalType": "uint16",
          "name": "_type",
          "type": "uint16"
        },
        {
          "indexed": false,
          "internalType": "uint256",
          "name": "_minDstGas",
          "type": "uint256"
        }
      ],
      "name": "SetMinDstGas",
      "type": "event"
    },
    {
      "anonymous": false,
      "inputs": [
        {
          "indexed": false,
          "internalType": "address",
          "name": "precrime",
          "type": "address"
        }
      ],
      "name": "SetPrecrime",
      "type": "event"
    },
    {
      "anonymous": false,
      "inputs": [
        {
          "indexed": false,
          "internalType": "uint16",
          "name": "_remoteChainId",
          "type": "uint16"
        },
        {
          "indexed": false,
          "internalType": "bytes",
          "name": "_path",
          "type": "bytes"
        }
      ],
      "name": "SetTrustedRemote",
      "type": "event"
    },
    {
      "anonymous": false,
      "inputs": [
        {
          "indexed": false,
          "internalType": "uint16",
          "name": "_remoteChainId",
          "type": "uint16"
        },
        {
          "indexed": false,
          "internalType": "bytes",
          "name": "_remoteAddress",
          "type": "bytes"
        }
      ],
      "name": "SetTrustedRemoteAddress",
      "type": "event"
    },
    {
      "anonymous": false,
      "inputs": [
        {
          "indexed": true,
          "internalType": "address",
          "name": "token",
          "type": "address"
        },
        {
          "indexed": false,
          "internalType": "uint256",
          "name": "amount",
          "type": "uint256"
        },
        {
          "indexed": false,
          "internalType": "address",
          "name": "sender",
          "type": "address"
        }
      ],
      "name": "SgReceived",
      "type": "event"
    },
    {
      "anonymous": false,
      "inputs": [
        {
          "indexed": false,
          "internalType": "uint16",
          "name": "chainId",
          "type": "uint16"
        },
        {
          "indexed": false,
          "internalType": "address",
          "name": "strategy",
          "type": "address"
        },
        {
          "indexed": false,
          "internalType": "uint256",
          "name": "gain",
          "type": "uint256"
        },
        {
          "indexed": false,
          "internalType": "uint256",
          "name": "loss",
          "type": "uint256"
        },
        {
          "indexed": false,
          "internalType": "uint256",
          "name": "debtPaid",
          "type": "uint256"
        },
        {
          "indexed": false,
          "internalType": "uint256",
          "name": "totalGain",
          "type": "uint256"
        },
        {
          "indexed": false,
          "internalType": "uint256",
          "name": "totalLoss",
          "type": "uint256"
        },
        {
          "indexed": false,
          "internalType": "uint256",
          "name": "totalDebt",
          "type": "uint256"
        },
        {
          "indexed": false,
          "internalType": "uint256",
          "name": "debtAdded",
          "type": "uint256"
        },
        {
          "indexed": false,
          "internalType": "uint256",
          "name": "debtRatio",
          "type": "uint256"
        },
        {
          "indexed": false,
          "internalType": "uint256",
          "name": "tokens",
          "type": "uint256"
        }
      ],
      "name": "StrategyReported",
      "type": "event"
    },
    {
      "anonymous": false,
      "inputs": [
        {
          "indexed": true,
          "internalType": "uint16",
          "name": "chainId",
          "type": "uint16"
        },
        {
          "indexed": true,
          "internalType": "address",
          "name": "strategy",
          "type": "address"
        },
        {
          "indexed": false,
          "internalType": "uint256",
          "name": "amount",
          "type": "uint256"
        },
        {
          "indexed": false,
          "internalType": "uint256",
          "name": "loss",
          "type": "uint256"
        },
        {
          "indexed": false,
          "internalType": "uint256",
          "name": "id",
          "type": "uint256"
        }
      ],
      "name": "StrategyWithdrawnSome",
      "type": "event"
    },
    {
      "anonymous": false,
      "inputs": [
        {
          "indexed": true,
          "internalType": "address",
          "name": "from",
          "type": "address"
        },
        {
          "indexed": true,
          "internalType": "address",
          "name": "to",
          "type": "address"
        },
        {
          "indexed": false,
          "internalType": "uint256",
          "name": "value",
          "type": "uint256"
        }
      ],
      "name": "Transfer",
      "type": "event"
    },
    {
      "inputs": [],
      "name": "DEFAULT_PAYLOAD_SIZE_LIMIT",
      "outputs": [
        {
          "internalType": "uint256",
          "name": "",
          "type": "uint256"
        }
      ],
      "stateMutability": "view",
      "type": "function"
    },
    {
      "inputs": [
        {
          "internalType": "uint16",
          "name": "_chainId",
          "type": "uint16"
        },
        {
          "internalType": "address",
          "name": "_strategy",
          "type": "address"
        },
        {
          "internalType": "uint256",
          "name": "_debtRatio",
          "type": "uint256"
        },
        {
          "internalType": "uint256",
          "name": "_performanceFee",
          "type": "uint256"
        },
        {
          "internalType": "address",
          "name": "_strategist",
          "type": "address"
        }
      ],
      "name": "addStrategy",
      "outputs": [],
      "stateMutability": "nonpayable",
      "type": "function"
    },
    {
      "inputs": [
        {
          "internalType": "address",
          "name": "owner",
          "type": "address"
        },
        {
          "internalType": "address",
          "name": "spender",
          "type": "address"
        }
      ],
      "name": "allowance",
      "outputs": [
        {
          "internalType": "uint256",
          "name": "",
          "type": "uint256"
        }
      ],
      "stateMutability": "view",
      "type": "function"
    },
    {
      "inputs": [
        {
          "internalType": "address",
          "name": "spender",
          "type": "address"
        },
        {
          "internalType": "uint256",
          "name": "amount",
          "type": "uint256"
        }
      ],
      "name": "approve",
      "outputs": [
        {
          "internalType": "bool",
          "name": "",
          "type": "bool"
        }
      ],
      "stateMutability": "nonpayable",
      "type": "function"
    },
    {
      "inputs": [
        {
          "internalType": "address",
          "name": "account",
          "type": "address"
        }
      ],
      "name": "balanceOf",
      "outputs": [
        {
          "internalType": "uint256",
          "name": "",
          "type": "uint256"
        }
      ],
      "stateMutability": "view",
      "type": "function"
    },
    {
      "inputs": [
        {
          "internalType": "uint16",
          "name": "_chainId",
          "type": "uint16"
        },
        {
          "internalType": "address",
          "name": "_strategy",
          "type": "address"
        }
      ],
      "name": "creditAvailable",
      "outputs": [
        {
          "internalType": "uint256",
          "name": "",
          "type": "uint256"
        }
      ],
      "stateMutability": "view",
      "type": "function"
    },
    {
      "inputs": [
        {
          "internalType": "uint16",
          "name": "_chainId",
          "type": "uint16"
        },
        {
          "internalType": "address",
          "name": "_strategy",
          "type": "address"
        }
      ],
      "name": "debtOutstanding",
      "outputs": [
        {
          "internalType": "uint256",
          "name": "",
          "type": "uint256"
        }
      ],
      "stateMutability": "view",
      "type": "function"
    },
    {
      "inputs": [],
      "name": "decimals",
      "outputs": [
        {
          "internalType": "uint8",
          "name": "",
          "type": "uint8"
        }
      ],
      "stateMutability": "view",
      "type": "function"
    },
    {
      "inputs": [
        {
          "internalType": "address",
          "name": "spender",
          "type": "address"
        },
        {
          "internalType": "uint256",
          "name": "subtractedValue",
          "type": "uint256"
        }
      ],
      "name": "decreaseAllowance",
      "outputs": [
        {
          "internalType": "bool",
          "name": "",
          "type": "bool"
        }
      ],
      "stateMutability": "nonpayable",
      "type": "function"
    },
    {
      "inputs": [
        {
          "internalType": "uint256",
          "name": "_amount",
          "type": "uint256"
        },
        {
          "internalType": "address",
          "name": "_recipient",
          "type": "address"
        }
      ],
      "name": "deposit",
      "outputs": [
        {
          "internalType": "uint256",
          "name": "",
          "type": "uint256"
        }
      ],
      "stateMutability": "nonpayable",
      "type": "function"
    },
    {
      "inputs": [],
      "name": "emergencyShutdown",
      "outputs": [
        {
          "internalType": "bool",
          "name": "",
          "type": "bool"
        }
      ],
      "stateMutability": "view",
      "type": "function"
    },
    {
      "inputs": [
        {
          "internalType": "uint16",
          "name": "",
          "type": "uint16"
        },
        {
          "internalType": "bytes",
          "name": "",
          "type": "bytes"
        },
        {
          "internalType": "uint64",
          "name": "",
          "type": "uint64"
        }
      ],
      "name": "failedMessages",
      "outputs": [
        {
          "internalType": "bytes32",
          "name": "",
          "type": "bytes32"
        }
      ],
      "stateMutability": "view",
      "type": "function"
    },
    {
      "inputs": [
        {
          "internalType": "uint16",
          "name": "_srcChainId",
          "type": "uint16"
        },
        {
          "internalType": "bytes",
          "name": "_srcAddress",
          "type": "bytes"
        }
      ],
      "name": "forceResumeReceive",
      "outputs": [],
      "stateMutability": "nonpayable",
      "type": "function"
    },
    {
      "inputs": [
        {
          "internalType": "uint16",
          "name": "_version",
          "type": "uint16"
        },
        {
          "internalType": "uint16",
          "name": "_chainId",
          "type": "uint16"
        },
        {
          "internalType": "address",
          "name": "",
          "type": "address"
        },
        {
          "internalType": "uint256",
          "name": "_configType",
          "type": "uint256"
        }
      ],
      "name": "getConfig",
      "outputs": [
        {
          "internalType": "bytes",
          "name": "",
          "type": "bytes"
        }
      ],
      "stateMutability": "view",
      "type": "function"
    },
    {
      "inputs": [
        {
          "internalType": "uint16",
          "name": "_remoteChainId",
          "type": "uint16"
        }
      ],
      "name": "getTrustedRemoteAddress",
      "outputs": [
        {
          "internalType": "bytes",
          "name": "",
          "type": "bytes"
        }
      ],
      "stateMutability": "view",
      "type": "function"
    },
    {
      "inputs": [],
      "name": "governance",
      "outputs": [
        {
          "internalType": "address",
          "name": "",
          "type": "address"
        }
      ],
      "stateMutability": "view",
      "type": "function"
    },
    {
      "inputs": [],
      "name": "handleWithdrawals",
      "outputs": [],
      "stateMutability": "nonpayable",
      "type": "function"
    },
    {
      "inputs": [
        {
          "internalType": "address",
          "name": "spender",
          "type": "address"
        },
        {
          "internalType": "uint256",
          "name": "addedValue",
          "type": "uint256"
        }
      ],
      "name": "increaseAllowance",
      "outputs": [
        {
          "internalType": "bool",
          "name": "",
          "type": "bool"
        }
      ],
      "stateMutability": "nonpayable",
      "type": "function"
    },
    {
      "inputs": [
        {
          "internalType": "address",
          "name": "_governance",
          "type": "address"
        },
        {
          "internalType": "address",
          "name": "_lzEndpoint",
          "type": "address"
        },
        {
          "internalType": "contract IERC20",
          "name": "_token",
          "type": "address"
        },
        {
          "internalType": "address",
          "name": "_sgBridge",
          "type": "address"
        },
        {
          "internalType": "address",
          "name": "_sgRouter",
          "type": "address"
        }
      ],
      "name": "initialize",
      "outputs": [],
      "stateMutability": "nonpayable",
      "type": "function"
    },
    {
      "inputs": [
        {
          "internalType": "uint16",
          "name": "_srcChainId",
          "type": "uint16"
        },
        {
          "internalType": "bytes",
          "name": "_srcAddress",
          "type": "bytes"
        }
      ],
      "name": "isTrustedRemote",
      "outputs": [
        {
          "internalType": "bool",
          "name": "",
          "type": "bool"
        }
      ],
      "stateMutability": "view",
      "type": "function"
    },
    {
      "inputs": [],
      "name": "lzEndpoint",
      "outputs": [
        {
          "internalType": "contract ILayerZeroEndpointUpgradeable",
          "name": "",
          "type": "address"
        }
      ],
      "stateMutability": "view",
      "type": "function"
    },
    {
      "inputs": [
        {
          "internalType": "uint16",
          "name": "_srcChainId",
          "type": "uint16"
        },
        {
          "internalType": "bytes",
          "name": "_srcAddress",
          "type": "bytes"
        },
        {
          "internalType": "uint64",
          "name": "_nonce",
          "type": "uint64"
        },
        {
          "internalType": "bytes",
          "name": "_payload",
          "type": "bytes"
        }
      ],
      "name": "lzReceive",
      "outputs": [],
      "stateMutability": "nonpayable",
      "type": "function"
    },
    {
      "inputs": [
        {
          "internalType": "uint16",
          "name": "_chainId",
          "type": "uint16"
        },
        {
          "internalType": "address",
          "name": "_oldStrategy",
          "type": "address"
        },
        {
          "internalType": "address",
          "name": "_newStrategy",
          "type": "address"
        }
      ],
      "name": "migrateStrategy",
      "outputs": [],
      "stateMutability": "nonpayable",
      "type": "function"
    },
    {
      "inputs": [
        {
          "internalType": "uint16",
          "name": "",
          "type": "uint16"
        },
        {
          "internalType": "uint16",
          "name": "",
          "type": "uint16"
        }
      ],
      "name": "minDstGasLookup",
      "outputs": [
        {
          "internalType": "uint256",
          "name": "",
          "type": "uint256"
        }
      ],
      "stateMutability": "view",
      "type": "function"
    },
    {
      "inputs": [],
      "name": "name",
      "outputs": [
        {
          "internalType": "string",
          "name": "",
          "type": "string"
        }
      ],
      "stateMutability": "view",
      "type": "function"
    },
    {
      "inputs": [
        {
          "internalType": "uint16",
          "name": "_srcChainId",
          "type": "uint16"
        },
        {
          "internalType": "bytes",
          "name": "_srcAddress",
          "type": "bytes"
        },
        {
          "internalType": "uint64",
          "name": "_nonce",
          "type": "uint64"
        },
        {
          "internalType": "bytes",
          "name": "_payload",
          "type": "bytes"
        }
      ],
      "name": "nonblockingLzReceive",
      "outputs": [],
      "stateMutability": "nonpayable",
      "type": "function"
    },
    {
      "inputs": [],
      "name": "owner",
      "outputs": [
        {
          "internalType": "address",
          "name": "",
          "type": "address"
        }
      ],
      "stateMutability": "view",
      "type": "function"
    },
    {
      "inputs": [
        {
          "internalType": "uint16",
          "name": "",
          "type": "uint16"
        }
      ],
      "name": "payloadSizeLimitLookup",
      "outputs": [
        {
          "internalType": "uint256",
          "name": "",
          "type": "uint256"
        }
      ],
      "stateMutability": "view",
      "type": "function"
    },
    {
      "inputs": [],
      "name": "precrime",
      "outputs": [
        {
          "internalType": "address",
          "name": "",
          "type": "address"
        }
      ],
      "stateMutability": "view",
      "type": "function"
    },
    {
      "inputs": [],
      "name": "pricePerShare",
      "outputs": [
        {
          "internalType": "uint256",
          "name": "",
          "type": "uint256"
        }
      ],
      "stateMutability": "view",
      "type": "function"
    },
    {
      "inputs": [],
      "name": "renounceOwnership",
      "outputs": [],
      "stateMutability": "nonpayable",
      "type": "function"
    },
    {
      "inputs": [
        {
          "internalType": "uint16",
          "name": "_srcChainId",
          "type": "uint16"
        },
        {
          "internalType": "bytes",
          "name": "_srcAddress",
          "type": "bytes"
        },
        {
          "internalType": "uint64",
          "name": "_nonce",
          "type": "uint64"
        },
        {
          "internalType": "bytes",
          "name": "_payload",
          "type": "bytes"
        }
      ],
      "name": "retryMessage",
      "outputs": [],
      "stateMutability": "payable",
      "type": "function"
    },
    {
      "inputs": [],
      "name": "revokeFunds",
      "outputs": [],
      "stateMutability": "nonpayable",
      "type": "function"
    },
    {
      "inputs": [
        {
          "internalType": "uint16",
          "name": "_chainId",
          "type": "uint16"
        },
        {
          "internalType": "address",
          "name": "_strategy",
          "type": "address"
        }
      ],
      "name": "revokeStrategy",
      "outputs": [],
      "stateMutability": "nonpayable",
      "type": "function"
    },
    {
      "inputs": [
        {
          "internalType": "uint16",
          "name": "_version",
          "type": "uint16"
        },
        {
          "internalType": "uint16",
          "name": "_chainId",
          "type": "uint16"
        },
        {
          "internalType": "uint256",
          "name": "_configType",
          "type": "uint256"
        },
        {
          "internalType": "bytes",
          "name": "_config",
          "type": "bytes"
        }
      ],
      "name": "setConfig",
      "outputs": [],
      "stateMutability": "nonpayable",
      "type": "function"
    },
    {
      "inputs": [
        {
          "internalType": "bool",
          "name": "_emergencyShutdown",
          "type": "bool"
        }
      ],
      "name": "setEmergencyShutdown",
      "outputs": [],
      "stateMutability": "nonpayable",
      "type": "function"
    },
    {
      "inputs": [
        {
          "internalType": "address",
          "name": "_newGovernance",
          "type": "address"
        }
      ],
      "name": "setGovernance",
      "outputs": [],
      "stateMutability": "nonpayable",
      "type": "function"
    },
    {
      "inputs": [
        {
          "internalType": "uint16",
          "name": "_dstChainId",
          "type": "uint16"
        },
        {
          "internalType": "uint16",
          "name": "_packetType",
          "type": "uint16"
        },
        {
          "internalType": "uint256",
          "name": "_minGas",
          "type": "uint256"
        }
      ],
      "name": "setMinDstGas",
      "outputs": [],
      "stateMutability": "nonpayable",
      "type": "function"
    },
    {
      "inputs": [
        {
          "internalType": "uint16",
          "name": "_dstChainId",
          "type": "uint16"
        },
        {
          "internalType": "uint256",
          "name": "_size",
          "type": "uint256"
        }
      ],
      "name": "setPayloadSizeLimit",
      "outputs": [],
      "stateMutability": "nonpayable",
      "type": "function"
    },
    {
      "inputs": [
        {
          "internalType": "address",
          "name": "_precrime",
          "type": "address"
        }
      ],
      "name": "setPrecrime",
      "outputs": [],
      "stateMutability": "nonpayable",
      "type": "function"
    },
    {
      "inputs": [
        {
          "internalType": "uint16",
          "name": "_version",
          "type": "uint16"
        }
      ],
      "name": "setReceiveVersion",
      "outputs": [],
      "stateMutability": "nonpayable",
      "type": "function"
    },
    {
      "inputs": [
        {
          "internalType": "uint16",
          "name": "_version",
          "type": "uint16"
        }
      ],
      "name": "setSendVersion",
      "outputs": [],
      "stateMutability": "nonpayable",
      "type": "function"
    },
    {
      "inputs": [
        {
          "internalType": "address",
          "name": "_newSgBridge",
          "type": "address"
        }
      ],
      "name": "setSgBridge",
      "outputs": [],
      "stateMutability": "nonpayable",
      "type": "function"
    },
    {
      "inputs": [
        {
          "internalType": "uint16",
          "name": "_chainId",
          "type": "uint16"
        },
        {
          "internalType": "address",
          "name": "_strategy",
          "type": "address"
        },
        {
          "internalType": "address",
          "name": "_newStrategist",
          "type": "address"
        }
      ],
      "name": "setStrategist",
      "outputs": [],
      "stateMutability": "nonpayable",
      "type": "function"
    },
    {
      "inputs": [
        {
          "internalType": "uint16",
          "name": "_srcChainId",
          "type": "uint16"
        },
        {
          "internalType": "bytes",
          "name": "_path",
          "type": "bytes"
        }
      ],
      "name": "setTrustedRemote",
      "outputs": [],
      "stateMutability": "nonpayable",
      "type": "function"
    },
    {
      "inputs": [
        {
          "internalType": "uint16",
          "name": "_remoteChainId",
          "type": "uint16"
        },
        {
          "internalType": "bytes",
          "name": "_remoteAddress",
          "type": "bytes"
        }
      ],
      "name": "setTrustedRemoteAddress",
      "outputs": [],
      "stateMutability": "nonpayable",
      "type": "function"
    },
    {
      "inputs": [],
      "name": "sgBridge",
      "outputs": [
        {
          "internalType": "contract ISgBridge",
          "name": "",
          "type": "address"
        }
      ],
      "stateMutability": "view",
      "type": "function"
    },
    {
      "inputs": [
        {
          "internalType": "uint16",
          "name": "_srcChainId",
          "type": "uint16"
        },
        {
          "internalType": "bytes",
          "name": "_srcAddress",
          "type": "bytes"
        },
        {
          "internalType": "uint256",
          "name": "",
          "type": "uint256"
        },
        {
          "internalType": "address",
          "name": "_token",
          "type": "address"
        },
        {
          "internalType": "uint256",
          "name": "_amountLD",
          "type": "uint256"
        },
        {
          "internalType": "bytes",
          "name": "_payload",
          "type": "bytes"
        }
      ],
      "name": "sgReceive",
      "outputs": [],
      "stateMutability": "nonpayable",
      "type": "function"
    },
    {
      "inputs": [],
      "name": "sgRouter",
      "outputs": [
        {
          "internalType": "address",
          "name": "",
          "type": "address"
        }
      ],
      "stateMutability": "view",
      "type": "function"
    },
    {
      "inputs": [
        {
          "internalType": "uint16",
          "name": "",
          "type": "uint16"
        },
        {
          "internalType": "address",
          "name": "",
          "type": "address"
        }
      ],
      "name": "strategies",
      "outputs": [
        {
          "internalType": "uint256",
          "name": "activation",
          "type": "uint256"
        },
        {
          "internalType": "uint256",
          "name": "debtRatio",
          "type": "uint256"
        },
        {
          "internalType": "uint256",
          "name": "totalDebt",
          "type": "uint256"
        },
        {
          "internalType": "uint256",
          "name": "totalGain",
          "type": "uint256"
        },
        {
          "internalType": "uint256",
          "name": "totalLoss",
          "type": "uint256"
        },
        {
          "internalType": "uint256",
          "name": "lastReport",
          "type": "uint256"
        },
        {
          "internalType": "uint256",
          "name": "performanceFee",
          "type": "uint256"
        },
        {
          "internalType": "address",
          "name": "strategist",
          "type": "address"
        }
      ],
      "stateMutability": "view",
      "type": "function"
    },
    {
      "inputs": [],
      "name": "symbol",
      "outputs": [
        {
          "internalType": "string",
          "name": "",
          "type": "string"
        }
      ],
      "stateMutability": "view",
      "type": "function"
    },
    {
      "inputs": [],
      "name": "token",
      "outputs": [
        {
          "internalType": "contract IERC20",
          "name": "",
          "type": "address"
        }
      ],
      "stateMutability": "view",
      "type": "function"
    },
    {
      "inputs": [],
      "name": "totalAssets",
      "outputs": [
        {
          "internalType": "uint256",
          "name": "",
          "type": "uint256"
        }
      ],
      "stateMutability": "view",
      "type": "function"
    },
    {
      "inputs": [],
      "name": "totalDebt",
      "outputs": [
        {
          "internalType": "uint256",
          "name": "",
          "type": "uint256"
        }
      ],
      "stateMutability": "view",
      "type": "function"
    },
    {
      "inputs": [],
      "name": "totalDebtRatio",
      "outputs": [
        {
          "internalType": "uint256",
          "name": "",
          "type": "uint256"
        }
      ],
      "stateMutability": "view",
      "type": "function"
    },
    {
      "inputs": [],
      "name": "totalIdle",
      "outputs": [
        {
          "internalType": "uint256",
          "name": "",
          "type": "uint256"
        }
      ],
      "stateMutability": "view",
      "type": "function"
    },
    {
      "inputs": [],
      "name": "totalSupply",
      "outputs": [
        {
          "internalType": "uint256",
          "name": "",
          "type": "uint256"
        }
      ],
      "stateMutability": "view",
      "type": "function"
    },
    {
      "inputs": [
        {
          "internalType": "address",
          "name": "to",
          "type": "address"
        },
        {
          "internalType": "uint256",
          "name": "amount",
          "type": "uint256"
        }
      ],
      "name": "transfer",
      "outputs": [
        {
          "internalType": "bool",
          "name": "",
          "type": "bool"
        }
      ],
      "stateMutability": "nonpayable",
      "type": "function"
    },
    {
      "inputs": [
        {
          "internalType": "address",
          "name": "from",
          "type": "address"
        },
        {
          "internalType": "address",
          "name": "to",
          "type": "address"
        },
        {
          "internalType": "uint256",
          "name": "amount",
          "type": "uint256"
        }
      ],
      "name": "transferFrom",
      "outputs": [
        {
          "internalType": "bool",
          "name": "",
          "type": "bool"
        }
      ],
      "stateMutability": "nonpayable",
      "type": "function"
    },
    {
      "inputs": [
        {
          "internalType": "address",
          "name": "newOwner",
          "type": "address"
        }
      ],
      "name": "transferOwnership",
      "outputs": [],
      "stateMutability": "nonpayable",
      "type": "function"
    },
    {
      "inputs": [
        {
          "internalType": "uint16",
          "name": "",
          "type": "uint16"
        }
      ],
      "name": "trustedRemoteLookup",
      "outputs": [
        {
          "internalType": "bytes",
          "name": "",
          "type": "bytes"
        }
      ],
      "stateMutability": "view",
      "type": "function"
    },
    {
      "inputs": [
        {
          "internalType": "uint16",
          "name": "_chainId",
          "type": "uint16"
        },
        {
          "internalType": "address",
          "name": "_strategy",
          "type": "address"
        },
        {
          "internalType": "uint256",
          "name": "_debtRatio",
          "type": "uint256"
        }
      ],
      "name": "updateStrategyDebtRatio",
      "outputs": [],
      "stateMutability": "nonpayable",
      "type": "function"
    },
    {
      "inputs": [
        {
          "internalType": "uint256",
          "name": "_maxShares",
          "type": "uint256"
        },
        {
          "internalType": "address",
          "name": "_recipient",
          "type": "address"
        },
        {
          "internalType": "uint256",
          "name": "_maxLoss",
          "type": "uint256"
        }
      ],
      "name": "withdraw",
      "outputs": [],
      "stateMutability": "nonpayable",
      "type": "function"
    },
    {
      "inputs": [],
      "name": "withdrawEpoch",
      "outputs": [
        {
          "internalType": "uint256",
          "name": "",
          "type": "uint256"
        }
      ],
      "stateMutability": "view",
      "type": "function"
    },
    {
      "inputs": [
        {
          "internalType": "uint256",
          "name": "",
          "type": "uint256"
        }
      ],
      "name": "withdrawEpochs",
      "outputs": [
        {
          "internalType": "bool",
          "name": "inProgress",
          "type": "bool"
        },
        {
          "internalType": "uint256",
          "name": "approveExpected",
          "type": "uint256"
        },
        {
          "internalType": "uint256",
          "name": "approveActual",
          "type": "uint256"
        }
      ],
      "stateMutability": "view",
      "type": "function"
    },
    {
      "stateMutability": "payable",
      "type": "receive"
    }
  ],
  "bytecode": "0x608060405234801561001057600080fd5b50615fd380620000216000396000f3fe6080604052600436106102f15760003560e01c8063715018a61161018d578063715018a6146108335780637533d788146108485780638cfd8f5c146108685780638da5cb5b146108a0578063950c8a74146108b557806395d89b41146108d557806399530b06146108ea5780639aa7df94146108ff5780639f38369a14610914578063a032a71214610934578063a457c2d714610954578063a6c3d16514610974578063a9059cbb14610994578063ab033ea9146109b4578063ab73ce46146109d4578063ab8236f3146109eb578063b353aaa714610a0b578063baf3292d14610a2b578063c446183414610a4b578063cbed8b9c14610a61578063cfbcc64414610a81578063d1deba1f14610aa1578063dd62ed3e14610ab4578063dde4f08e14610ad4578063df2a5b3b14610af4578063e63697c814610b14578063e7fda06114610b34578063eb8d72b714610b54578063ef34253c14610b74578063f2fde38b14610b89578063f5ecbdbc14610ba9578063fc0c546a14610bc9578063fc7b9c1814610be957600080fd5b80621d3567146102fd57806301dc2eb11461031f57806301e1d114146103525780630517cb7614610367578063057724d81461039557806306fdde03146103b557806307e0db17146103d7578063095ea7b3146103f75780630a97c254146104275780630df374831461044757806310ddb137146104675780631459457a1461048757806314c64402146104a757806318160ddd146104c757806323b872dd146104dc5780632d606843146104fc5780632df9eab914610511578063313ce567146105275780633403c2fc1461054e57806337fded911461056957806339509351146105895780633d8b38f6146105a95780633f1f4fa4146105c95780634067cb9e146105f657806342d65a8d146106ad57806352106a49146106cd5780635aa6e675146106ed5780635b8c41e61461070d5780635fe1a0271461075c57806366ad5c8a146107bd5780636e553f65146107dd57806370a08231146107fd57600080fd5b366102f857005b600080fd5b34801561030957600080fd5b5061031d610318366004614d9f565b610bff565b005b34801561032b57600080fd5b5061033f61033a366004614e47565b610cc2565b6040519081526020015b60405180910390f35b34801561035e57600080fd5b5061033f610cd7565b34801561037357600080fd5b5061010854610388906001600160a01b031681565b6040516103499190614e7e565b3480156103a157600080fd5b5061031d6103b0366004614e92565b610cf3565b3480156103c157600080fd5b506103ca610d62565b6040516103499190614eff565b3480156103e357600080fd5b5061031d6103f2366004614f12565b610df4565b34801561040357600080fd5b50610417610412366004614f2d565b610e61565b6040519015158152602001610349565b34801561043357600080fd5b5061031d610442366004614f59565b610e79565b34801561045357600080fd5b5061031d610462366004614f98565b610f99565b34801561047357600080fd5b5061031d610482366004614f12565b610fb8565b34801561049357600080fd5b5061031d6104a2366004614fb4565b610ff4565b3480156104b357600080fd5b5061031d6104c2366004615033565b61121c565b3480156104d357600080fd5b5060355461033f565b3480156104e857600080fd5b506104176104f7366004615050565b61127d565b34801561050857600080fd5b5061031d6112a1565b34801561051d57600080fd5b5061033f60fe5481565b34801561053357600080fd5b5061053c61131d565b60405160ff9091168152602001610349565b34801561055a57600080fd5b50610100546104179060ff1681565b34801561057557600080fd5b5060fd54610388906001600160a01b031681565b34801561059557600080fd5b506104176105a4366004614f2d565b61138b565b3480156105b557600080fd5b506104176105c4366004615070565b6113ad565b3480156105d557600080fd5b5061033f6105e4366004614f12565b609a6020526000908152604090205481565b34801561060257600080fd5b50610669610611366004614e47565b610101602090815260009283526040808420909152908252902080546001820154600283015460038401546004850154600586015460068701546007909701549596949593949293919290916001600160a01b031688565b604080519889526020890197909752958701949094526060860192909252608085015260a084015260c08301526001600160a01b031660e082015261010001610349565b3480156106b957600080fd5b5061031d6106c8366004615070565b611479565b3480156106d957600080fd5b5061031d6106e83660046150c2565b6114ec565b3480156106f957600080fd5b5060fb54610388906001600160a01b031681565b34801561071957600080fd5b5061033f6107283660046151fd565b60c9602090815260009384526040808520845180860184018051928152908401958401959095209452929052825290205481565b34801561076857600080fd5b506107a061077736600461525a565b6101066020526000908152604090206001810154600282015460039092015460ff909116919083565b604080519315158452602084019290925290820152606001610349565b3480156107c957600080fd5b5061031d6107d8366004614d9f565b611723565b3480156107e957600080fd5b5061033f6107f8366004615273565b6117f7565b34801561080957600080fd5b5061033f610818366004614e92565b6001600160a01b031660009081526033602052604090205490565b34801561083f57600080fd5b5061031d611803565b34801561085457600080fd5b506103ca610863366004614f12565b611817565b34801561087457600080fd5b5061033f610883366004615298565b609960209081526000928352604080842090915290825290205481565b3480156108ac57600080fd5b506103886118b1565b3480156108c157600080fd5b50609b54610388906001600160a01b031681565b3480156108e157600080fd5b506103ca6118c0565b3480156108f657600080fd5b5061033f6118cf565b34801561090b57600080fd5b5061033f6118ec565b34801561092057600080fd5b506103ca61092f366004614f12565b61195e565b34801561094057600080fd5b5061031d61094f3660046152cb565b611a74565b34801561096057600080fd5b5061041761096f366004614f2d565b611db5565b34801561098057600080fd5b5061031d61098f366004615070565b611e30565b3480156109a057600080fd5b506104176109af366004614f2d565b611eb9565b3480156109c057600080fd5b5061031d6109cf366004614e92565b611ec7565b3480156109e057600080fd5b5061033f6101025481565b3480156109f757600080fd5b5061031d610a06366004615314565b611f36565b348015610a1757600080fd5b50609754610388906001600160a01b031681565b348015610a3757600080fd5b5061031d610a46366004614e92565b612084565b348015610a5757600080fd5b5061033f61271081565b348015610a6d57600080fd5b5061031d610a7c3660046153ae565b6120e2565b348015610a8d57600080fd5b5061031d610a9c366004614e47565b61215b565b61031d610aaf366004614d9f565b6121b6565b348015610ac057600080fd5b5061033f610acf36600461541c565b6123cc565b348015610ae057600080fd5b5061031d610aef3660046152cb565b6123f7565b348015610b0057600080fd5b5061031d610b0f36600461543a565b612487565b348015610b2057600080fd5b5061031d610b2f366004615476565b612539565b348015610b4057600080fd5b5061033f610b4f366004614e47565b612549565b348015610b6057600080fd5b5061031d610b6f366004615070565b612555565b348015610b8057600080fd5b5061031d6125af565b348015610b9557600080fd5b5061031d610ba4366004614e92565b612885565b348015610bb557600080fd5b506103ca610bc436600461549d565b6128fb565b348015610bd557600080fd5b5060fc54610388906001600160a01b031681565b348015610bf557600080fd5b5061033f60ff5481565b6097546001600160a01b03163314610c445760405162461bcd60e51b815260206004820152600360248201526205631360ec1b60448201526064015b60405180910390fd5b610cba8686868080601f01602080910402602001604051908101604052809392919081815260200183838082843760009201919091525050604080516020601f89018190048102820181019092528781528993509150879087908190840183828082843760009201919091525061299092505050565b505050505050565b6000610cce8383612a09565b90505b92915050565b6000610ce16118ec565b60ff54610cee9190615500565b905090565b60fb546001600160a01b0316331480610d245750610d0f6118b1565b6001600160a01b0316336001600160a01b0316145b610d405760405162461bcd60e51b8152600401610c3b90615513565b60fd80546001600160a01b0319166001600160a01b0392909216919091179055565b606060368054610d719061552f565b80601f0160208091040260200160405190810160405280929190818152602001828054610d9d9061552f565b8015610dea5780601f10610dbf57610100808354040283529160200191610dea565b820191906000526020600020905b815481529060010190602001808311610dcd57829003601f168201915b5050505050905090565b610dfc612ad1565b6097546040516307e0db1760e01b815261ffff831660048201526001600160a01b03909116906307e0db17906024015b600060405180830381600087803b158015610e4657600080fd5b505af1158015610e5a573d6000803e3d6000fd5b5050505050565b600033610e6f818585612b30565b5060019392505050565b60fb546001600160a01b0316331480610eaa5750610e956118b1565b6001600160a01b0316336001600160a01b0316145b610ec65760405162461bcd60e51b8152600401610c3b90615513565b61ffff83166000908152610101602090815260408083206001600160a01b038616845290915281206001015460fe805491929091610f05908490615569565b909155505061ffff83166000908152610101602090815260408083206001600160a01b0386168452909152902060010181905560fe5461271090610f4a908390615500565b1115610f7d5760405162461bcd60e51b81526020600482015260026024820152612b1b60f11b6044820152606401610c3b565b8060fe6000828254610f8f9190615500565b9091555050505050565b610fa1612ad1565b61ffff9091166000908152609a6020526040902055565b610fc0612ad1565b6097546040516310ddb13760e01b815261ffff831660048201526001600160a01b03909116906310ddb13790602401610e2c565b600054610100900460ff16158080156110145750600054600160ff909116105b80611035575061102330612c54565b158015611035575060005460ff166001145b6110985760405162461bcd60e51b815260206004820152602e60248201527f496e697469616c697a61626c653a20636f6e747261637420697320616c72656160448201526d191e481a5b9a5d1a585b1a5e995960921b6064820152608401610c3b565b6000805460ff1916600117905580156110bb576000805461ff0019166101001790555b6110c485612c63565b6110cc612c9b565b6111186040518060400160405280600f81526020016e13db5b9a58da185a5b8815985d5b1d608a1b8152506040518060400160405280600381526020016227a6ab60e91b815250612cca565b60fb80546001600160a01b038089166001600160a01b03199283161790925560fc8054878416908316811790915560fd805487851690841617905561010880549386169390921692909217905560405163095ea7b360e01b815263095ea7b39061118a9086906000199060040161557c565b6020604051808303816000875af11580156111a9573d6000803e3d6000fd5b505050506040513d601f19601f820116820180604052508101906111cd9190615595565b508015610cba576000805461ff0019169055604051600181527f7f26b83ff96e1f2b6a682f133852f6798a09c465da95921460cefb3847402498906020015b60405180910390a1505050505050565b60fb546001600160a01b031633148061124d57506112386118b1565b6001600160a01b0316336001600160a01b0316145b6112695760405162461bcd60e51b8152600401610c3b90615513565b610100805460ff1916911515919091179055565b60003361128b858285612cfb565b611296858585612d75565b506001949350505050565b60fb546001600160a01b03163314806112d257506112bd6118b1565b6001600160a01b0316336001600160a01b0316145b6112ee5760405162461bcd60e51b8152600401610c3b90615513565b60405133904780156108fc02916000818181858888f1935050505015801561131a573d6000803e3d6000fd5b50565b60fc546040805163313ce56760e01b815290516000926001600160a01b03169163313ce5679160048083019260209291908290030181865afa158015611367573d6000803e3d6000fd5b505050506040513d601f19601f82011682018060405250810190610cee91906155b2565b600033610e6f81858561139e83836123cc565b6113a89190615500565b612b30565b61ffff8316600090815260986020526040812080548291906113ce9061552f565b80601f01602080910402602001604051908101604052809291908181526020018280546113fa9061552f565b80156114475780601f1061141c57610100808354040283529160200191611447565b820191906000526020600020905b81548152906001019060200180831161142a57829003601f168201915b50505050509050838360405161145e9291906155d5565b60405180910390208180519060200120149150509392505050565b611481612ad1565b6097546040516342d65a8d60e01b81526001600160a01b03909116906342d65a8d906114b59086908690869060040161560e565b600060405180830381600087803b1580156114cf57600080fd5b505af11580156114e3573d6000803e3d6000fd5b50505050505050565b60fb546001600160a01b031633148061151d57506115086118b1565b6001600160a01b0316336001600160a01b0316145b6115395760405162461bcd60e51b8152600401610c3b90615513565b61ffff85166000908152610101602090815260408083206001600160a01b038816845290915290205485908590156115835760405162461bcd60e51b8152600401610c3b9061562c565b6127108560fe546115949190615500565b11156115c75760405162461bcd60e51b8152602060048201526002602482015261563560f01b6044820152606401610c3b565b60405180610100016040528042815260200186815260200160008152602001600081526020016000815260200160008152602001858152602001846001600160a01b031681525061010160008961ffff1661ffff1681526020019081526020016000206000886001600160a01b03166001600160a01b03168152602001908152602001600020600082015181600001556020820151816001015560408201518160020155606082015181600301556080820151816004015560a0820151816005015560c0820151816006015560e08201518160070160006101000a8154816001600160a01b0302191690836001600160a01b031602179055509050506116f18661010360008a61ffff1661ffff168152602001908152602001600020612f0e90919063ffffffff16565b5061170261010461ffff8916612f23565b508460fe60008282546117159190615500565b909155505050505050505050565b3330146117815760405162461bcd60e51b815260206004820152602660248201527f4e6f6e626c6f636b696e674c7a4170703a2063616c6c6572206d7573742062656044820152650204c7a4170760d41b6064820152608401610c3b565b610cba8686868080601f01602080910402602001604051908101604052809392919081815260200183838082843760009201919091525050604080516020601f890181900481028201810190925287815289935091508790879081908401838280828437600092019190915250612f2f92505050565b6000610cce8383612fcd565b61180b612ad1565b6118156000613031565b565b609860205260009081526040902080546118309061552f565b80601f016020809104026020016040519081016040528092919081815260200182805461185c9061552f565b80156118a95780601f1061187e576101008083540402835291602001916118a9565b820191906000526020600020905b81548152906001019060200180831161188c57829003601f168201915b505050505081565b6065546001600160a01b031690565b606060378054610d719061552f565b6000610cee6118dc61131d565b6118e790600a61572c565b613083565b60fc546040516370a0823160e01b81526000916001600160a01b0316906370a082319061191d903090600401614e7e565b602060405180830381865afa15801561193a573d6000803e3d6000fd5b505050506040513d601f19601f82011682018060405250810190610cee919061573b565b61ffff81166000908152609860205260408120805460609291906119819061552f565b80601f01602080910402602001604051908101604052809291908181526020018280546119ad9061552f565b80156119fa5780601f106119cf576101008083540402835291602001916119fa565b820191906000526020600020905b8154815290600101906020018083116119dd57829003601f168201915b505050505090508051600003611a525760405162461bcd60e51b815260206004820152601d60248201527f4c7a4170703a206e6f20747275737465642070617468207265636f72640000006044820152606401610c3b565b611a6d600060148351611a659190615569565b8391906130b8565b9392505050565b60fb546001600160a01b0316331480611aa55750611a906118b1565b6001600160a01b0316336001600160a01b0316145b611ac15760405162461bcd60e51b8152600401610c3b90615513565b61ffff83166000908152610101602090815260408083206001600160a01b03851684529091529020548390829015611b0b5760405162461bcd60e51b8152600401610c3b9061562c565b600061010160008761ffff1661ffff1681526020019081526020016000206000866001600160a01b03166001600160a01b0316815260200190815260200160002060405180610100016040529081600082015481526020016001820154815260200160028201548152602001600382015481526020016004820154815260200160058201548152602001600682015481526020016007820160009054906101000a90046001600160a01b03166001600160a01b03166001600160a01b03168152505090506040518061010001604052808260a001518152602001826020015181526020018260400151815260200160008152602001600081526020018260a0015181526020018260c0015181526020018260e001516001600160a01b031681525061010160008861ffff1661ffff1681526020019081526020016000206000866001600160a01b03166001600160a01b03168152602001908152602001600020600082015181600001556020820151816001015560408201518160020155606082015181600301556080820151816004015560a0820151816005015560c0820151816006015560e08201518160070160006101000a8154816001600160a01b0302191690836001600160a01b03160217905550905050600061010160008861ffff1661ffff1681526020019081526020016000206000876001600160a01b03166001600160a01b0316815260200190815260200160002060010181905550600061010160008861ffff1661ffff1681526020019081526020016000206000876001600160a01b03166001600160a01b0316815260200190815260200160002060020181905550610cba868660046040518060200160405280896001600160a01b0316815250604051602001611da192919061578c565b6040516020818303038152906040526131c5565b60003381611dc382866123cc565b905083811015611e235760405162461bcd60e51b815260206004820152602560248201527f45524332303a2064656372656173656420616c6c6f77616e63652062656c6f77604482015264207a65726f60d81b6064820152608401610c3b565b6112968286868403612b30565b611e38612ad1565b818130604051602001611e4d939291906157b1565b60408051601f1981840301815291815261ffff8516600090815260986020522090611e78908261582d565b507f8c0400cfe2d1199b1a725c78960bcc2a344d869b80590d0f2bd005db15a572ce838383604051611eac9392919061560e565b60405180910390a1505050565b600033610e6f818585612d75565b60fb546001600160a01b0316331480611ef85750611ee36118b1565b6001600160a01b0316336001600160a01b0316145b611f145760405162461bcd60e51b8152600401610c3b90615513565b60fb80546001600160a01b0319166001600160a01b0392909216919091179055565b60fc546001600160a01b03848116911614611f785760405162461bcd60e51b81526020600482015260026024820152610ac760f31b6044820152606401610c3b565b610108546001600160a01b0316331480611f9c575060fd546001600160a01b031633145b80611fbf5750611faa6118b1565b6001600160a01b0316336001600160a01b0316145b611ff05760405162461bcd60e51b8152602060048201526002602482015261563960f01b6044820152606401610c3b565b6000611ffe868260146130b8565b60405160200161200e91906158e6565b60405160208183030381529060405261202690615902565b60601c905061203687838561336f565b604080518481526001600160a01b0383811660208301528616917f92073a89a07a000083eb8b2575fc15e7bb936efe55d00727d6942a796d7211a7910160405180910390a250505050505050565b61208c612ad1565b609b80546001600160a01b0319166001600160a01b0383161790556040517f5db758e995a17ec1ad84bdef7e8c3293a0bd6179bcce400dff5d4c3d87db726b906120d7908390614e7e565b60405180910390a150565b6120ea612ad1565b6097546040516332fb62e760e21b81526001600160a01b039091169063cbed8b9c906121229088908890889088908890600401615939565b600060405180830381600087803b15801561213c57600080fd5b505af1158015612150573d6000803e3d6000fd5b505050505050505050565b60fb546001600160a01b031633148061218c57506121776118b1565b6001600160a01b0316336001600160a01b0316145b6121a85760405162461bcd60e51b8152600401610c3b90615513565b6121b28282613406565b5050565b61ffff8616600090815260c9602052604080822090516121d990889088906155d5565b90815260408051602092819003830190206001600160401b038716600090815292529020549050806122595760405162461bcd60e51b815260206004820152602360248201527f4e6f6e626c6f636b696e674c7a4170703a206e6f2073746f726564206d65737360448201526261676560e81b6064820152608401610c3b565b80838360405161226a9291906155d5565b6040518091039020146122c95760405162461bcd60e51b815260206004820152602160248201527f4e6f6e626c6f636b696e674c7a4170703a20696e76616c6964207061796c6f616044820152601960fa1b6064820152608401610c3b565b61ffff8716600090815260c9602052604080822090516122ec90899089906155d5565b90815260408051602092819003830181206001600160401b038916600090815290845282902093909355601f88018290048202830182019052868252612384918991899089908190840183828082843760009201919091525050604080516020601f8a018190048102820181019092528881528a935091508890889081908401838280828437600092019190915250612f2f92505050565b7fc264d91f3adc5588250e1551f547752ca0cfa8f6b530d243b9f9f4cab10ea8e587878787856040516123bb959493929190615967565b60405180910390a150505050505050565b6001600160a01b03918216600090815260346020908152604080832093909416825291909152205490565b60fb546001600160a01b031633148061242857506124136118b1565b6001600160a01b0316336001600160a01b0316145b6124445760405162461bcd60e51b8152600401610c3b90615513565b61ffff929092166000908152610101602090815260408083206001600160a01b039485168452909152902060070180546001600160a01b03191691909216179055565b61248f612ad1565b600081116124d75760405162461bcd60e51b81526020600482015260156024820152744c7a4170703a20696e76616c6964206d696e47617360581b6044820152606401610c3b565b61ffff83811660008181526099602090815260408083209487168084529482529182902085905581519283528201929092529081018290527f9d5c7c0b934da8fefa9c7760c98383778a12dfbfc0c3b3106518f43fb9508ac090606001611eac565b61254483838361347b565b505050565b6000610cce83836135a6565b61255d612ad1565b61ffff8316600090815260986020526040902061257b8284836159a2565b507ffa41487ad5d6728f0b19276fa1eddc16558578f5109fc39d2dc33c3230470dab838383604051611eac9392919061560e565b60fb546001600160a01b03163314806125e057506125cb6118b1565b6001600160a01b0316336001600160a01b0316145b6125fc5760405162461bcd60e51b8152600401610c3b90615513565b610102546000908152610106602052604090206001015460ff16156126335760405162461bcd60e51b8152600401610c3b90615a5b565b6000805b61010254600090815261010660205260409020548110156126b4576101025460009081526101066020526040812080548390811061267757612677615a77565b906000526020600020906006020190506126948160020154613083565b61269e9084615500565b92505080806126ac90615a8d565b915050612637565b506126bd6118ec565b81116126cb5761131a61365e565b60006126d56118ec565b6126df9083615569565b90506000805b6126f0610104613974565b811080156126fe5750600083115b1561284f5760006127116101048361397e565b61ffff81166000908152610103602052604081209192505b61273282613974565b811080156127405750600086115b15612839576000612751838361397e565b61ffff85166000908152610101602090815260408083206001600160a01b03851684529091528120600281015492935091900361278f575050612827565b600061279f89836002015461398a565b6101025460009081526101066020908152604080832061ffff8b16845260050182528083206001600160a01b0388168452909152902081905590506127e4818a615569565b985061281686846000604051806040016040528086815260200161010254815250604051602001611da1929190615aa6565b8761282081615a8d565b9850505050505b8061283181615a8d565b915050612729565b505050808061284790615a8d565b9150506126e5565b506101028054600090815261010660205260408082206002019390935590548152206001908101805460ff191690911790555050565b61288d612ad1565b6001600160a01b0381166128f25760405162461bcd60e51b815260206004820152602660248201527f4f776e61626c653a206e6577206f776e657220697320746865207a65726f206160448201526564647265737360d01b6064820152608401610c3b565b61131a81613031565b609754604051633d7b2f6f60e21b815261ffff808716600483015285166024820152306044820152606481018390526060916001600160a01b03169063f5ecbdbc90608401600060405180830381865afa15801561295d573d6000803e3d6000fd5b505050506040513d6000823e601f3d908101601f191682016040526129859190810190615b11565b90505b949350505050565b6000806129f35a60966366ad5c8a60e01b898989896040516024016129b89493929190615b45565b60408051601f198184030181529190526020810180516001600160e01b03166001600160e01b031990931692909217909152309291906139a0565b9150915081610cba57610cba8686868685613a2c565b6101005460009060ff1615612a2057506000610cd1565b6000612710612a2d610cd7565b61ffff86166000908152610101602090815260408083206001600160a01b0389168452909152902060010154612a639190615b83565b612a6d9190615b9a565b61ffff85166000908152610101602090815260408083206001600160a01b0388168452909152902060020154909150808211612aae57600092505050610cd1565b612ac8612ab96118ec565b612ac38385615569565b61398a565b95945050505050565b33612ada6118b1565b6001600160a01b0316146118155760405162461bcd60e51b815260206004820181905260248201527f4f776e61626c653a2063616c6c6572206973206e6f7420746865206f776e65726044820152606401610c3b565b6001600160a01b038316612b925760405162461bcd60e51b8152602060048201526024808201527f45524332303a20617070726f76652066726f6d20746865207a65726f206164646044820152637265737360e01b6064820152608401610c3b565b6001600160a01b038216612bf35760405162461bcd60e51b815260206004820152602260248201527f45524332303a20617070726f766520746f20746865207a65726f206164647265604482015261737360f01b6064820152608401610c3b565b6001600160a01b0383811660008181526034602090815260408083209487168084529482529182902085905590518481527f8c5be1e5ebec7d5bd14f71427d1e84f3dd0314c0f7b2291e5b200ac8c7c3b925910160405180910390a3505050565b6001600160a01b03163b151590565b600054610100900460ff16612c8a5760405162461bcd60e51b8152600401610c3b90615bbc565b612c92613ac9565b61131a81613af9565b600054610100900460ff16612cc25760405162461bcd60e51b8152600401610c3b90615bbc565b611815613ac9565b600054610100900460ff16612cf15760405162461bcd60e51b8152600401610c3b90615bbc565b6121b28282613b42565b6000612d0784846123cc565b90506000198114612d6f5781811015612d625760405162461bcd60e51b815260206004820152601d60248201527f45524332303a20696e73756666696369656e7420616c6c6f77616e63650000006044820152606401610c3b565b612d6f8484848403612b30565b50505050565b6001600160a01b038316612dd95760405162461bcd60e51b815260206004820152602560248201527f45524332303a207472616e736665722066726f6d20746865207a65726f206164604482015264647265737360d81b6064820152608401610c3b565b6001600160a01b038216612e3b5760405162461bcd60e51b815260206004820152602360248201527f45524332303a207472616e7366657220746f20746865207a65726f206164647260448201526265737360e81b6064820152608401610c3b565b6001600160a01b03831660009081526033602052604090205481811015612eb35760405162461bcd60e51b815260206004820152602660248201527f45524332303a207472616e7366657220616d6f756e7420657863656564732062604482015265616c616e636560d01b6064820152608401610c3b565b6001600160a01b038085166000818152603360205260408082208686039055928616808252908390208054860190559151600080516020615f7e83398151915290612f019086815260200190565b60405180910390a3612d6f565b6000610cce836001600160a01b038416613b82565b6000610cce8383613b82565b6000612f3d848260146130b8565b604051602001612f4d91906158e6565b604051602081830303815290604052612f6590615902565b61ffff861660009081526101016020908152604080832060609490941c80845293909152902054909150612fc15760405162461bcd60e51b815260206004820152600360248201526256313560e81b6044820152606401610c3b565b610e5a8583600061336f565b6101005460009060ff161561300a5760405162461bcd60e51b815260206004820152600360248201526256313160e81b6044820152606401610c3b565b60006130168385613bd1565b60fc54909150610cce906001600160a01b0316333087613c4d565b606580546001600160a01b038381166001600160a01b0319831681179093556040519116919082907f8be0079c531659141344cd1fd0a4f28419497f9722a3daafe3b4186f6b6457e090600090a35050565b600061308e60355490565b600003613099575090565b6035546130a4610cd7565b6130ae9084615b83565b610cd19190615b9a565b6060816130c681601f615500565b10156131055760405162461bcd60e51b815260206004820152600e60248201526d736c6963655f6f766572666c6f7760901b6044820152606401610c3b565b61310f8284615500565b845110156131535760405162461bcd60e51b8152602060048201526011602482015270736c6963655f6f75744f66426f756e647360781b6044820152606401610c3b565b60608215801561317257604051915060008252602082016040526131bc565b6040519150601f8416801560200281840101858101878315602002848b0101015b818310156131ab578051835260209283019201613193565b5050858452601f01601f1916604052505b50949350505050565b61ffff83166000908152610101602090815260408083206001600160a01b03861684529091529020548390839061320e5760405162461bcd60e51b8152600401610c3b90615c07565b6040516001600160601b0319606086811b8216602084015230901b16603482015260009060480160408051601f198184030181529190526097549091506000906001600160a01b03166340a7bb1088308885613268613cb8565b6040518663ffffffff1660e01b8152600401613288959493929190615c23565b6040805180830381865afa1580156132a4573d6000803e3d6000fd5b505050506040513d601f19601f820116820180604052508101906132c89190615c77565b509050804710156132f45760405162fae2d560e21b815260048101829052476024820152604401610c3b565b6097546001600160a01b031663c5803100828985893080613313613cb8565b6040518863ffffffff1660e01b815260040161333496959493929190615c9b565b6000604051808303818588803b15801561334d57600080fd5b505af1158015613361573d6000803e3d6000fd5b505050505050505050505050565b6000828060200190518101906133859190615d02565b9050600281600481111561339b5761339b615754565b036133ca576000838060200190518101906133b69190615d2e565b9150506133c4858285613ce8565b50612d6f565b60018160048111156133de576133de615754565b03612d6f576000838060200190518101906133f99190615e19565b915050610e5a85826140c2565b61ffff82166000908152610101602090815260408083206001600160a01b038516845290915281206001015460fe805491929091613445908490615569565b909155505061ffff9091166000908152610101602090815260408083206001600160a01b03909416835292905290812060010155565b610102546000908152610106602052604090206001015460ff16156134b25760405162461bcd60e51b8152600401610c3b90615a5b565b6134bd333085612d75565b61010660006101025481526020019081526020016000206000016040518060c00160405280336001600160a01b03168152602001846001600160a01b0316815260200185815260200183815260200161351586613083565b81526000602091820181905283546001808201865594825290829020835160069092020180546001600160a01b03199081166001600160a01b039384161782559284015194810180549093169490911693909317905560408101516002830155606081015160038301556080810151600483015560a001516005909101805460ff1916911515919091179055505050565b6000806127106135b4610cd7565b61ffff86166000908152610101602090815260408083206001600160a01b03891684529091529020600101546135ea9190615b83565b6135f49190615b9a565b61ffff85166000908152610101602090815260408083206001600160a01b0388168452909152902060020154610100549192509060ff1615613639579150610cd19050565b81811161364b57600092505050610cd1565b6136558282615569565b92505050610cd1565b6101025460009081526101066020526040902054806136a55760405162461bcd60e51b8152602060048201526003602482015262158c4d60ea1b6044820152606401610c3b565b6000816001600160401b038111156136bf576136bf615111565b6040519080825280602002602001820160405280156136e8578160200160208202803683370190505b50905060005b82811015613768576101025460009081526101066020526040812080548390811061371b5761371b615a77565b906000526020600020906006020190506137388160020154613083565b83838151811061374a5761374a615a77565b6020908102919091010152508061376081615a8d565b9150506136ee565b5060005b82811015613901576101025460009081526101066020526040812080548390811061379957613799615a77565b9060005260206000209060060201905060006137d08484815181106137c0576137c0615a77565b6020026020010151612ac36118ec565b905081600401548110156138af5760008183600401546137f09190615569565b905060008360040154826127106138079190615b83565b6138119190615b9a565b905083600301548111156138ac5760058401805460ff191690558354600285015460405163a9059cbb60e01b8152309263a9059cbb9261385f926001600160a01b039092169160040161557c565b6020604051808303816000875af115801561387e573d6000803e3d6000fd5b505050506040513d601f19601f820116820180604052508101906138a29190615595565b50505050506138ef565b50505b60058201805460ff1916600190811790915582015460fc546138de916001600160a01b0391821691168361428d565b6138ec3083600201546142ac565b50505b806138f981615a8d565b91505061376c565b506101025460408051918252602082018490527fc682eb885c208b8aaaa811c05902e24a4f14b388960311623a8f31404f655129910160405180910390a16101028054600090815261010660205260408120600101805460ff191690558154919061396b83615a8d565b91905055505050565b6000610cd1825490565b6000610cce83836143ce565b60008183106139995781610cce565b5090919050565b6000606060008060008661ffff166001600160401b038111156139c5576139c5615111565b6040519080825280601f01601f1916602001820160405280156139ef576020820181803683370190505b50905060008087516020890160008d8df191503d925086831115613a11578692505b828152826000602083013e9093509150505b94509492505050565b818051906020012060c960008761ffff1661ffff16815260200190815260200160002085604051613a5d91906158e6565b9081526040805191829003602090810183206001600160401b0388166000908152915220919091557fe183f33de2837795525b4792ca4cd60535bd77c53b7e7030060bfcf5734d6b0c90613aba9087908790879087908790615ea4565b60405180910390a15050505050565b600054610100900460ff16613af05760405162461bcd60e51b8152600401610c3b90615bbc565b61181533613031565b600054610100900460ff16613b205760405162461bcd60e51b8152600401610c3b90615bbc565b609780546001600160a01b0319166001600160a01b0392909216919091179055565b600054610100900460ff16613b695760405162461bcd60e51b8152600401610c3b90615bbc565b6036613b75838261582d565b506037612544828261582d565b6000818152600183016020526040812054613bc957508154600181810184556000848152602080822090930184905584548482528286019093526040902091909155610cd1565b506000610cd1565b600080613bdd60355490565b600003613beb575081613c0d565b613bf3610cd7565b603554613c009085615b83565b613c0a9190615b9a565b90505b60008111613c435760405162461bcd60e51b815260206004820152600360248201526256313360e81b6044820152606401610c3b565b610cce84826143f8565b6040516001600160a01b0380851660248301528316604482015260648101829052612d6f9085906323b872dd60e01b906084015b60408051601f198184030181529190526020810180516001600160e01b03166001600160e01b0319909316929092179091526144a7565b60408051600160f01b6020820152620f424060228083019190915282518083039091018152604290910190915290565b613cf2838361457c565b606082015115613d0f57613d0f838360000151846060015161475b565b60408083015161ffff85166000908152610101602090815283822086516001600160a01b031683529052918220600301805491929091613d50908490615500565b90915550508151600090613d659085906135a6565b90506000613d7782856080015161398a565b90508015613de75761ffff851660009081526101016020908152604080832087516001600160a01b0316845290915281206002018054839290613dbb908490615569565b925050819055508060ff6000828254613dd49190615569565b90915550613de490508183615569565b91505b60e084015115613e545760e084015161ffff861660009081526101016020908152604080832088516001600160a01b0316845290915281206002018054909190613e32908490615500565b909155505060e084015160ff8054600090613e4e908490615500565b90915550505b60208085015161ffff8716600081815261010180855260408083208a516001600160a01b039081168552818852828520600501969096559383529085528851909316815292529020600101541580613eaf57506101005460ff165b15613ebd5783610100015191505b60a084015115613f1057613f0b8460a001518686600001516003604051806020016040528088815250604051602001613ef7929190615ef6565b604051602081830303815290604052614850565b613f3b565b613f3b8585600001516003604051806020016040528087815250604051602001611da1929190615ef6565b600061010160008761ffff1661ffff168152602001908152602001600020600086600001516001600160a01b03166001600160a01b0316815260200190815260200160002060405180610100016040529081600082015481526020016001820154815260200160028201548152602001600382015481526020016004820154815260200160058201548152602001600682015481526020016007820160009054906101000a90046001600160a01b03166001600160a01b03166001600160a01b03168152505090507f08bc8eff67f79e18165507d64024f5ca5e90a2593c7a45cb5caf7f9d843e404c8686600001518760400151886060015189608001518660600151876080015188604001518d60e001518a602001518e60405161120c9b9a9998979695949392919061ffff9b909b168b526001600160a01b039990991660208b015260408a01979097526060890195909552608088019390935260a087019190915260c086015260e08501526101008401526101208301526101408201526101600190565b805161ffff83166000908152610101602090815260408083206001600160a01b038516845290915290205483919061410c5760405162461bcd60e51b8152600401610c3b90615c07565b60408301511561412957614129848460000151856040015161475b565b60208084015161ffff861660009081526101018352604080822087516001600160a01b0316835290935291822060020180549192909161416a908490615569565b9091555050602083015160ff8054600090614186908490615569565b909155505060608301516000908152610106602052604081206003018054916141ae83615a8d565b909155505060608301805160009081526101066020818152604080842061ffff8a168552600401825280842088516001600160a01b031685528252808420805460ff191660011790558451845291905280822060030154925182529020600201540361421c5761421c61365e565b82600001516001600160a01b03168461ffff167f046368a4ca42efbdd968b9025440eb5590bdcda7da09f4fef8ac4ef2f44a5ed085602001518660400151876060015160405161427f939291909283526020830191909152604082015260600190565b60405180910390a350505050565b6125448363a9059cbb60e01b8484604051602401613c8192919061557c565b6001600160a01b03821661430c5760405162461bcd60e51b815260206004820152602160248201527f45524332303a206275726e2066726f6d20746865207a65726f206164647265736044820152607360f81b6064820152608401610c3b565b6001600160a01b038216600090815260336020526040902054818110156143805760405162461bcd60e51b815260206004820152602260248201527f45524332303a206275726e20616d6f756e7420657863656564732062616c616e604482015261636560f01b6064820152608401610c3b565b6001600160a01b0383166000818152603360209081526040808320868603905560358054879003905551858152919291600080516020615f7e833981519152910160405180910390a3505050565b60008260000182815481106143e5576143e5615a77565b9060005260206000200154905092915050565b6001600160a01b03821661444e5760405162461bcd60e51b815260206004820152601f60248201527f45524332303a206d696e7420746f20746865207a65726f2061646472657373006044820152606401610c3b565b80603560008282546144609190615500565b90915550506001600160a01b038216600081815260336020908152604080832080548601905551848152600080516020615f7e833981519152910160405180910390a35050565b60006144fc826040518060400160405280602081526020017f5361666545524332303a206c6f772d6c6576656c2063616c6c206661696c6564815250856001600160a01b03166149409092919063ffffffff16565b905080516000148061451d57508080602001905181019061451d9190615595565b6125445760405162461bcd60e51b815260206004820152602a60248201527f5361666545524332303a204552433230206f7065726174696f6e20646964206e6044820152691bdd081cdd58d8d9595960b21b6064820152608401610c3b565b61ffff821660009081526101076020908152604080832084516001600160a01b031684528252808320610120850151845290915290205460ff16156145e95760405162461bcd60e51b81526020600482015260036024820152622b189b60e91b6044820152606401610c3b565b805161012082015160405160609290921b6001600160601b0319166020830152603482015260f083901b6001600160f01b031916605482015260009060560160405160208183030381529060405280519060200120905060008160405160200161467e91907b0ca2ba3432b932bab69029b4b3b732b21026b2b9b9b0b3b29d05199960211b8152601c810191909152603c0190565b60408051601f19818403018152918152815160209283012061ffff87166000908152610101845282812087516001600160a01b03908116835294529190912060070154610140860151919350909116906146d990839061494f565b6001600160a01b0316146147155760405162461bcd60e51b815260206004820152600360248201526256313760e81b6044820152606401610c3b565b505061ffff90911660009081526101076020908152604080832084516001600160a01b03168452825280832061012090940151835292905220805460ff19166001179055565b61ffff83166000908152610101602090815260408083206001600160a01b03861684529091529020600201548111156147bc5760405162461bcd60e51b81526020600482015260036024820152622b189960e91b6044820152606401610c3b565b61ffff83166000908152610101602090815260408083206001600160a01b0386168452909152812060040180548392906147f7908490615500565b909155505061ffff83166000908152610101602090815260408083206001600160a01b038616845290915281206002018054839290614837908490615569565b925050819055508060ff6000828254610f8f9190615569565b60fd54604051630dc6346160e01b81526000916001600160a01b031690630dc634619061488590879087908790600401615f12565b602060405180830381865afa1580156148a2573d6000803e3d6000fd5b505050506040513d601f19601f820116820180604052508101906148c6919061573b565b60fd5460fc54604051633920455b60e11b81529293506001600160a01b03918216926372408ab6928592614907929116908a908a908a908a90600401615f40565b6000604051808303818588803b15801561492057600080fd5b505af1158015614934573d6000803e3d6000fd5b50505050505050505050565b60606129888484600085614973565b600080600061495e8585614a4e565b9150915061496b81614a93565b509392505050565b6060824710156149d45760405162461bcd60e51b815260206004820152602660248201527f416464726573733a20696e73756666696369656e742062616c616e636520666f6044820152651c8818d85b1b60d21b6064820152608401610c3b565b600080866001600160a01b031685876040516149f091906158e6565b60006040518083038185875af1925050503d8060008114614a2d576040519150601f19603f3d011682016040523d82523d6000602084013e614a32565b606091505b5091509150614a4387838387614bd8565b979650505050505050565b6000808251604103614a845760208301516040840151606085015160001a614a7887828585614c4f565b94509450505050614a8c565b506000905060025b9250929050565b6000816004811115614aa757614aa7615754565b03614aaf5750565b6001816004811115614ac357614ac3615754565b03614b0b5760405162461bcd60e51b815260206004820152601860248201527745434453413a20696e76616c6964207369676e617475726560401b6044820152606401610c3b565b6002816004811115614b1f57614b1f615754565b03614b6c5760405162461bcd60e51b815260206004820152601f60248201527f45434453413a20696e76616c6964207369676e6174757265206c656e677468006044820152606401610c3b565b6003816004811115614b8057614b80615754565b0361131a5760405162461bcd60e51b815260206004820152602260248201527f45434453413a20696e76616c6964207369676e6174757265202773272076616c604482015261756560f01b6064820152608401610c3b565b60608315614c45578251600003614c3e57614bf285612c54565b614c3e5760405162461bcd60e51b815260206004820152601d60248201527f416464726573733a2063616c6c20746f206e6f6e2d636f6e74726163740000006044820152606401610c3b565b5081612988565b6129888383614d06565b6000806fa2a8918ca85bafe22016d0b997e4df60600160ff1b03831115614c7c5750600090506003613a23565b6040805160008082526020820180845289905260ff881692820192909252606081018690526080810185905260019060a0016020604051602081039080840390855afa158015614cd0573d6000803e3d6000fd5b5050604051601f1901519150506001600160a01b038116614cf957600060019250925050613a23565b9660009650945050505050565b815115614d165781518083602001fd5b8060405162461bcd60e51b8152600401610c3b9190614eff565b803561ffff81168114614d4257600080fd5b919050565b60008083601f840112614d5957600080fd5b5081356001600160401b03811115614d7057600080fd5b602083019150836020828501011115614a8c57600080fd5b80356001600160401b0381168114614d4257600080fd5b60008060008060008060808789031215614db857600080fd5b614dc187614d30565b955060208701356001600160401b0380821115614ddd57600080fd5b614de98a838b01614d47565b9097509550859150614dfd60408a01614d88565b94506060890135915080821115614e1357600080fd5b50614e2089828a01614d47565b979a9699509497509295939492505050565b6001600160a01b038116811461131a57600080fd5b60008060408385031215614e5a57600080fd5b614e6383614d30565b91506020830135614e7381614e32565b809150509250929050565b6001600160a01b0391909116815260200190565b600060208284031215614ea457600080fd5b8135610cce81614e32565b60005b83811015614eca578181015183820152602001614eb2565b50506000910152565b60008151808452614eeb816020860160208601614eaf565b601f01601f19169290920160200192915050565b602081526000610cce6020830184614ed3565b600060208284031215614f2457600080fd5b610cce82614d30565b60008060408385031215614f4057600080fd5b8235614f4b81614e32565b946020939093013593505050565b600080600060608486031215614f6e57600080fd5b614f7784614d30565b92506020840135614f8781614e32565b929592945050506040919091013590565b60008060408385031215614fab57600080fd5b614f4b83614d30565b600080600080600060a08688031215614fcc57600080fd5b8535614fd781614e32565b94506020860135614fe781614e32565b93506040860135614ff781614e32565b9250606086013561500781614e32565b9150608086013561501781614e32565b809150509295509295909350565b801515811461131a57600080fd5b60006020828403121561504557600080fd5b8135610cce81615025565b60008060006060848603121561506557600080fd5b8335614f7781614e32565b60008060006040848603121561508557600080fd5b61508e84614d30565b925060208401356001600160401b038111156150a957600080fd5b6150b586828701614d47565b9497909650939450505050565b600080600080600060a086880312156150da57600080fd5b6150e386614d30565b945060208601356150f381614e32565b93506040860135925060608601359150608086013561501781614e32565b634e487b7160e01b600052604160045260246000fd5b60405161016081016001600160401b038111828210171561514a5761514a615111565b60405290565b604051601f8201601f191681016001600160401b038111828210171561517857615178615111565b604052919050565b60006001600160401b0382111561519957615199615111565b50601f01601f191660200190565b600082601f8301126151b857600080fd5b81356151cb6151c682615180565b615150565b8181528460208386010111156151e057600080fd5b816020850160208301376000918101602001919091529392505050565b60008060006060848603121561521257600080fd5b61521b84614d30565b925060208401356001600160401b0381111561523657600080fd5b615242868287016151a7565b92505061525160408501614d88565b90509250925092565b60006020828403121561526c57600080fd5b5035919050565b6000806040838503121561528657600080fd5b823591506020830135614e7381614e32565b600080604083850312156152ab57600080fd5b6152b483614d30565b91506152c260208401614d30565b90509250929050565b6000806000606084860312156152e057600080fd5b6152e984614d30565b925060208401356152f981614e32565b9150604084013561530981614e32565b809150509250925092565b60008060008060008060c0878903121561532d57600080fd5b61533687614d30565b955060208701356001600160401b038082111561535257600080fd5b61535e8a838b016151a7565b9650604089013595506060890135915061537782614e32565b9093506080880135925060a0880135908082111561539457600080fd5b506153a189828a016151a7565b9150509295509295509295565b6000806000806000608086880312156153c657600080fd5b6153cf86614d30565b94506153dd60208701614d30565b93506040860135925060608601356001600160401b038111156153ff57600080fd5b61540b88828901614d47565b969995985093965092949392505050565b6000806040838503121561542f57600080fd5b8235614e6381614e32565b60008060006060848603121561544f57600080fd5b61545884614d30565b925061546660208501614d30565b9150604084013590509250925092565b60008060006060848603121561548b57600080fd5b833592506020840135614f8781614e32565b600080600080608085870312156154b357600080fd5b6154bc85614d30565b93506154ca60208601614d30565b925060408501356154da81614e32565b9396929550929360600135925050565b634e487b7160e01b600052601160045260246000fd5b80820180821115610cd157610cd16154ea565b602080825260029082015261563160f01b604082015260600190565b600181811c9082168061554357607f821691505b60208210810361556357634e487b7160e01b600052602260045260246000fd5b50919050565b81810381811115610cd157610cd16154ea565b6001600160a01b03929092168252602082015260400190565b6000602082840312156155a757600080fd5b8151610cce81615025565b6000602082840312156155c457600080fd5b815160ff81168114610cce57600080fd5b8183823760009101908152919050565b81835281816020850137506000828201602090810191909152601f909101601f19169091010190565b61ffff841681526040602082015260006129856040830184866155e5565b602080825260029082015261563360f01b604082015260600190565b600181815b80851115615683578160001904821115615669576156696154ea565b8085161561567657918102915b93841c939080029061564d565b509250929050565b60008261569a57506001610cd1565b816156a757506000610cd1565b81600181146156bd57600281146156c7576156e3565b6001915050610cd1565b60ff8411156156d8576156d86154ea565b50506001821b610cd1565b5060208310610133831016604e8410600b8410161715615706575081810a610cd1565b6157108383615648565b8060001904821115615724576157246154ea565b029392505050565b6000610cce60ff84168361568b565b60006020828403121561574d57600080fd5b5051919050565b634e487b7160e01b600052602160045260246000fd5b6005811061578857634e487b7160e01b600052602160045260246000fd5b9052565b6040810161579a828561576a565b91516001600160a01b031660209190910152919050565b8284823760609190911b6001600160601b0319169101908152601401919050565b601f82111561254457600081815260208120601f850160051c810160208610156157f95750805b601f850160051c820191505b81811015610cba57828155600101615805565b600019600383901b1c191660019190911b1790565b81516001600160401b0381111561584657615846615111565b61585a81615854845461552f565b846157d2565b602080601f83116001811461588957600084156158775750858301515b6158818582615818565b865550610cba565b600085815260208120601f198616915b828110156158b857888601518255948401946001909101908401615899565b50858210156158d65787850151600019600388901b60f8161c191681555b5050505050600190811b01905550565b600082516158f8818460208701614eaf565b9190910192915050565b805160208201516001600160601b031980821692919060148310156159315780818460140360031b1b83161693505b505050919050565b600061ffff808816835280871660208401525084604083015260806060830152614a436080830184866155e5565b61ffff861681526080602082015260006159856080830186886155e5565b6001600160401b0394909416604083015250606001529392505050565b6001600160401b038311156159b9576159b9615111565b6159cd836159c7835461552f565b836157d2565b6000601f8411600181146159fb57600085156159e95750838201355b6159f38682615818565b845550610e5a565b600083815260209020601f19861690835b82811015615a2c5786850135825560209485019460019092019101615a0c565b5086821015615a495760001960f88860031b161c19848701351681555b505060018560011b0183555050505050565b602080825260029082015261158d60f21b604082015260600190565b634e487b7160e01b600052603260045260246000fd5b600060018201615a9f57615a9f6154ea565b5060010190565b60608101615ab4828561576a565b82516020830152602083015160408301529392505050565b600082601f830112615add57600080fd5b8151615aeb6151c682615180565b818152846020838601011115615b0057600080fd5b612988826020830160208701614eaf565b600060208284031215615b2357600080fd5b81516001600160401b03811115615b3957600080fd5b61298884828501615acc565b61ffff85168152608060208201526000615b626080830186614ed3565b6001600160401b03851660408401528281036060840152614a438185614ed3565b8082028115828204841417610cd157610cd16154ea565b600082615bb757634e487b7160e01b600052601260045260246000fd5b500490565b6020808252602b908201527f496e697469616c697a61626c653a20636f6e7472616374206973206e6f74206960408201526a6e697469616c697a696e6760a81b606082015260800190565b6020808252600290820152612b1960f11b604082015260600190565b61ffff861681526001600160a01b038516602082015260a060408201819052600090615c5190830186614ed3565b84151560608401528281036080840152615c6b8185614ed3565b98975050505050505050565b60008060408385031215615c8a57600080fd5b505080516020909101519092909150565b61ffff8716815260c060208201526000615cb860c0830188614ed3565b8281036040840152615cca8188614ed3565b6001600160a01b0387811660608601528616608085015283810360a08501529050615cf58185614ed3565b9998505050505050505050565b600060208284031215615d1457600080fd5b815160058110610cce57600080fd5b8051614d4281614e32565b60008060408385031215615d4157600080fd5b825160208401519092506001600160401b0380821115615d6057600080fd5b908401906101608287031215615d7557600080fd5b615d7d615127565b615d8683615d23565b81526020830151602082015260408301516040820152606083015160608201526080830151608082015260a083015160a082015260c083015160c082015260e083015160e08201526101008084015181830152506101208084015181830152506101408084015183811115615dfa57600080fd5b615e0689828701615acc565b8284015250508093505050509250929050565b60008082840360a0811215615e2d57600080fd5b835192506080601f1982011215615e4357600080fd5b50604051608081016001600160401b0381118282101715615e6657615e66615111565b6040526020840151615e7781614e32565b80825250604084015160208201526060840151604082015260808401516060820152809150509250929050565b61ffff8616815260a060208201526000615ec160a0830187614ed3565b6001600160401b03861660408401528281036060840152615ee28186614ed3565b90508281036080840152615c6b8185614ed3565b60408101615f04828561576a565b825160208301529392505050565b61ffff841681526001600160a01b038316602082015260606040820181905260009061298590830184614ed3565b6001600160a01b0386811682526020820186905261ffff851660408301528316606082015260a060808201819052600090614a4390830184614ed356feddf252ad1be2c89b69c2b068fc378daa952ba7f163c4a11628f55a4df523b3efa2646970667358221220b65e34bfa9fcfaa6c59b0905648fedd43f012853f8bda9c67b83d77a427208ba64736f6c63430008130033",
  "linkReferences": {},
  "deployedLinkReferences": {}
}