{
  "_format": "hh-sol-artifact-1",
  "contractName": "Vault",
  "sourceName": "contracts/Vault.sol",
  "abi": [
    {
      "inputs": [
        {
          "internalType": "uint256",
          "name": "amount",
          "type": "uint256"
        },
        {
          "internalType": "uint256",
          "name": "balance",
          "type": "uint256"
        }
      ],
      "name": "InsufficientFunds",
      "type": "error"
    },
    {
      "anonymous": false,
      "inputs": [
        {
          "indexed": true,
          "internalType": "address",
          "name": "owner",
          "type": "address"
        },
        {
          "indexed": true,
          "internalType": "address",
          "name": "spender",
          "type": "address"
        },
        {
          "indexed": false,
          "internalType": "uint256",
          "name": "value",
          "type": "uint256"
        }
      ],
      "name": "Approval",
      "type": "event"
    },
    {
      "anonymous": false,
      "inputs": [
        {
          "indexed": false,
          "internalType": "uint256",
          "name": "epochId",
          "type": "uint256"
        },
        {
          "indexed": false,
          "internalType": "uint256",
          "name": "requestCount",
          "type": "uint256"
        }
      ],
      "name": "FulfilledWithdrawEpoch",
      "type": "event"
    },
    {
      "anonymous": false,
      "inputs": [
        {
          "indexed": false,
          "internalType": "uint8",
          "name": "version",
          "type": "uint8"
        }
      ],
      "name": "Initialized",
      "type": "event"
    },
    {
      "anonymous": false,
      "inputs": [
        {
          "indexed": false,
          "internalType": "uint16",
          "name": "_srcChainId",
          "type": "uint16"
        },
        {
          "indexed": false,
          "internalType": "bytes",
          "name": "_srcAddress",
          "type": "bytes"
        },
        {
          "indexed": false,
          "internalType": "uint64",
          "name": "_nonce",
          "type": "uint64"
        },
        {
          "indexed": false,
          "internalType": "bytes",
          "name": "_payload",
          "type": "bytes"
        },
        {
          "indexed": false,
          "internalType": "bytes",
          "name": "_reason",
          "type": "bytes"
        }
      ],
      "name": "MessageFailed",
      "type": "event"
    },
    {
      "anonymous": false,
      "inputs": [
        {
          "indexed": true,
          "internalType": "address",
          "name": "previousOwner",
          "type": "address"
        },
        {
          "indexed": true,
          "internalType": "address",
          "name": "newOwner",
          "type": "address"
        }
      ],
      "name": "OwnershipTransferred",
      "type": "event"
    },
    {
      "anonymous": false,
      "inputs": [
        {
          "indexed": false,
          "internalType": "uint16",
          "name": "_srcChainId",
          "type": "uint16"
        },
        {
          "indexed": false,
          "internalType": "bytes",
          "name": "_srcAddress",
          "type": "bytes"
        },
        {
          "indexed": false,
          "internalType": "uint64",
          "name": "_nonce",
          "type": "uint64"
        },
        {
          "indexed": false,
          "internalType": "bytes32",
          "name": "_payloadHash",
          "type": "bytes32"
        }
      ],
      "name": "RetryMessageSuccess",
      "type": "event"
    },
    {
      "anonymous": false,
      "inputs": [
        {
          "indexed": false,
          "internalType": "uint16",
          "name": "_dstChainId",
          "type": "uint16"
        },
        {
          "indexed": false,
          "internalType": "uint16",
          "name": "_type",
          "type": "uint16"
        },
        {
          "indexed": false,
          "internalType": "uint256",
          "name": "_minDstGas",
          "type": "uint256"
        }
      ],
      "name": "SetMinDstGas",
      "type": "event"
    },
    {
      "anonymous": false,
      "inputs": [
        {
          "indexed": false,
          "internalType": "address",
          "name": "precrime",
          "type": "address"
        }
      ],
      "name": "SetPrecrime",
      "type": "event"
    },
    {
      "anonymous": false,
      "inputs": [
        {
          "indexed": false,
          "internalType": "uint16",
          "name": "_remoteChainId",
          "type": "uint16"
        },
        {
          "indexed": false,
          "internalType": "bytes",
          "name": "_path",
          "type": "bytes"
        }
      ],
      "name": "SetTrustedRemote",
      "type": "event"
    },
    {
      "anonymous": false,
      "inputs": [
        {
          "indexed": false,
          "internalType": "uint16",
          "name": "_remoteChainId",
          "type": "uint16"
        },
        {
          "indexed": false,
          "internalType": "bytes",
          "name": "_remoteAddress",
          "type": "bytes"
        }
      ],
      "name": "SetTrustedRemoteAddress",
      "type": "event"
    },
    {
      "anonymous": false,
      "inputs": [
        {
          "indexed": true,
          "internalType": "address",
          "name": "token",
          "type": "address"
        },
        {
          "indexed": false,
          "internalType": "uint256",
          "name": "amount",
          "type": "uint256"
        },
        {
          "indexed": false,
          "internalType": "address",
          "name": "sender",
          "type": "address"
        }
      ],
      "name": "SgReceived",
      "type": "event"
    },
    {
      "anonymous": false,
      "inputs": [
        {
          "indexed": false,
          "internalType": "uint16",
          "name": "chainId",
          "type": "uint16"
        },
        {
          "indexed": false,
          "internalType": "address",
          "name": "strategy",
          "type": "address"
        },
        {
          "indexed": false,
          "internalType": "uint256",
          "name": "gain",
          "type": "uint256"
        },
        {
          "indexed": false,
          "internalType": "uint256",
          "name": "loss",
          "type": "uint256"
        },
        {
          "indexed": false,
          "internalType": "uint256",
          "name": "debtPaid",
          "type": "uint256"
        },
        {
          "indexed": false,
          "internalType": "uint256",
          "name": "totalGain",
          "type": "uint256"
        },
        {
          "indexed": false,
          "internalType": "uint256",
          "name": "totalLoss",
          "type": "uint256"
        },
        {
          "indexed": false,
          "internalType": "uint256",
          "name": "totalDebt",
          "type": "uint256"
        },
        {
          "indexed": false,
          "internalType": "uint256",
          "name": "debtAdded",
          "type": "uint256"
        },
        {
          "indexed": false,
          "internalType": "uint256",
          "name": "debtRatio",
          "type": "uint256"
        },
        {
          "indexed": false,
          "internalType": "uint256",
          "name": "tokens",
          "type": "uint256"
        }
      ],
      "name": "StrategyReported",
      "type": "event"
    },
    {
      "anonymous": false,
      "inputs": [
        {
          "indexed": true,
          "internalType": "uint16",
          "name": "chainId",
          "type": "uint16"
        },
        {
          "indexed": true,
          "internalType": "address",
          "name": "strategy",
          "type": "address"
        },
        {
          "indexed": false,
          "internalType": "uint256",
          "name": "amount",
          "type": "uint256"
        },
        {
          "indexed": false,
          "internalType": "uint256",
          "name": "loss",
          "type": "uint256"
        },
        {
          "indexed": false,
          "internalType": "uint256",
          "name": "id",
          "type": "uint256"
        }
      ],
      "name": "StrategyWithdrawnSome",
      "type": "event"
    },
    {
      "anonymous": false,
      "inputs": [
        {
          "indexed": true,
          "internalType": "address",
          "name": "from",
          "type": "address"
        },
        {
          "indexed": true,
          "internalType": "address",
          "name": "to",
          "type": "address"
        },
        {
          "indexed": false,
          "internalType": "uint256",
          "name": "value",
          "type": "uint256"
        }
      ],
      "name": "Transfer",
      "type": "event"
    },
    {
      "inputs": [],
      "name": "DEFAULT_PAYLOAD_SIZE_LIMIT",
      "outputs": [
        {
          "internalType": "uint256",
          "name": "",
          "type": "uint256"
        }
      ],
      "stateMutability": "view",
      "type": "function"
    },
    {
      "inputs": [
        {
          "internalType": "uint16",
          "name": "_chainId",
          "type": "uint16"
        },
        {
          "internalType": "address",
          "name": "_strategy",
          "type": "address"
        },
        {
          "internalType": "uint256",
          "name": "_debtRatio",
          "type": "uint256"
        },
        {
          "internalType": "uint256",
          "name": "_performanceFee",
          "type": "uint256"
        },
        {
          "internalType": "address",
          "name": "_strategist",
          "type": "address"
        }
      ],
      "name": "addStrategy",
      "outputs": [],
      "stateMutability": "nonpayable",
      "type": "function"
    },
    {
      "inputs": [
        {
          "internalType": "address",
          "name": "owner",
          "type": "address"
        },
        {
          "internalType": "address",
          "name": "spender",
          "type": "address"
        }
      ],
      "name": "allowance",
      "outputs": [
        {
          "internalType": "uint256",
          "name": "",
          "type": "uint256"
        }
      ],
      "stateMutability": "view",
      "type": "function"
    },
    {
      "inputs": [
        {
          "internalType": "address",
          "name": "spender",
          "type": "address"
        },
        {
          "internalType": "uint256",
          "name": "amount",
          "type": "uint256"
        }
      ],
      "name": "approve",
      "outputs": [
        {
          "internalType": "bool",
          "name": "",
          "type": "bool"
        }
      ],
      "stateMutability": "nonpayable",
      "type": "function"
    },
    {
      "inputs": [
        {
          "internalType": "address",
          "name": "account",
          "type": "address"
        }
      ],
      "name": "balanceOf",
      "outputs": [
        {
          "internalType": "uint256",
          "name": "",
          "type": "uint256"
        }
      ],
      "stateMutability": "view",
      "type": "function"
    },
    {
      "inputs": [
        {
          "internalType": "uint16",
          "name": "_chainId",
          "type": "uint16"
        },
        {
          "internalType": "address",
          "name": "_strategy",
          "type": "address"
        }
      ],
      "name": "creditAvailable",
      "outputs": [
        {
          "internalType": "uint256",
          "name": "",
          "type": "uint256"
        }
      ],
      "stateMutability": "view",
      "type": "function"
    },
    {
      "inputs": [
        {
          "internalType": "uint16",
          "name": "_chainId",
          "type": "uint16"
        },
        {
          "internalType": "address",
          "name": "_strategy",
          "type": "address"
        }
      ],
      "name": "debtOutstanding",
      "outputs": [
        {
          "internalType": "uint256",
          "name": "",
          "type": "uint256"
        }
      ],
      "stateMutability": "view",
      "type": "function"
    },
    {
      "inputs": [],
      "name": "decimals",
      "outputs": [
        {
          "internalType": "uint8",
          "name": "",
          "type": "uint8"
        }
      ],
      "stateMutability": "view",
      "type": "function"
    },
    {
      "inputs": [
        {
          "internalType": "address",
          "name": "spender",
          "type": "address"
        },
        {
          "internalType": "uint256",
          "name": "subtractedValue",
          "type": "uint256"
        }
      ],
      "name": "decreaseAllowance",
      "outputs": [
        {
          "internalType": "bool",
          "name": "",
          "type": "bool"
        }
      ],
      "stateMutability": "nonpayable",
      "type": "function"
    },
    {
      "inputs": [
        {
          "internalType": "uint256",
          "name": "_amount",
          "type": "uint256"
        },
        {
          "internalType": "address",
          "name": "_recipient",
          "type": "address"
        }
      ],
      "name": "deposit",
      "outputs": [
        {
          "internalType": "uint256",
          "name": "",
          "type": "uint256"
        }
      ],
      "stateMutability": "nonpayable",
      "type": "function"
    },
    {
      "inputs": [],
      "name": "emergencyShutdown",
      "outputs": [
        {
          "internalType": "bool",
          "name": "",
          "type": "bool"
        }
      ],
      "stateMutability": "view",
      "type": "function"
    },
    {
      "inputs": [
        {
          "internalType": "uint16",
          "name": "",
          "type": "uint16"
        },
        {
          "internalType": "bytes",
          "name": "",
          "type": "bytes"
        },
        {
          "internalType": "uint64",
          "name": "",
          "type": "uint64"
        }
      ],
      "name": "failedMessages",
      "outputs": [
        {
          "internalType": "bytes32",
          "name": "",
          "type": "bytes32"
        }
      ],
      "stateMutability": "view",
      "type": "function"
    },
    {
      "inputs": [
        {
          "internalType": "uint16",
          "name": "_srcChainId",
          "type": "uint16"
        },
        {
          "internalType": "bytes",
          "name": "_srcAddress",
          "type": "bytes"
        }
      ],
      "name": "forceResumeReceive",
      "outputs": [],
      "stateMutability": "nonpayable",
      "type": "function"
    },
    {
      "inputs": [
        {
          "internalType": "uint16",
          "name": "_version",
          "type": "uint16"
        },
        {
          "internalType": "uint16",
          "name": "_chainId",
          "type": "uint16"
        },
        {
          "internalType": "address",
          "name": "",
          "type": "address"
        },
        {
          "internalType": "uint256",
          "name": "_configType",
          "type": "uint256"
        }
      ],
      "name": "getConfig",
      "outputs": [
        {
          "internalType": "bytes",
          "name": "",
          "type": "bytes"
        }
      ],
      "stateMutability": "view",
      "type": "function"
    },
    {
      "inputs": [
        {
          "internalType": "uint16",
          "name": "_remoteChainId",
          "type": "uint16"
        }
      ],
      "name": "getTrustedRemoteAddress",
      "outputs": [
        {
          "internalType": "bytes",
          "name": "",
          "type": "bytes"
        }
      ],
      "stateMutability": "view",
      "type": "function"
    },
    {
      "inputs": [],
      "name": "governance",
      "outputs": [
        {
          "internalType": "address",
          "name": "",
          "type": "address"
        }
      ],
      "stateMutability": "view",
      "type": "function"
    },
    {
      "inputs": [],
      "name": "handleWithdrawals",
      "outputs": [],
      "stateMutability": "nonpayable",
      "type": "function"
    },
    {
      "inputs": [
        {
          "internalType": "address",
          "name": "spender",
          "type": "address"
        },
        {
          "internalType": "uint256",
          "name": "addedValue",
          "type": "uint256"
        }
      ],
      "name": "increaseAllowance",
      "outputs": [
        {
          "internalType": "bool",
          "name": "",
          "type": "bool"
        }
      ],
      "stateMutability": "nonpayable",
      "type": "function"
    },
    {
      "inputs": [
        {
          "internalType": "address",
          "name": "_governance",
          "type": "address"
        },
        {
          "internalType": "address",
          "name": "_lzEndpoint",
          "type": "address"
        },
        {
          "internalType": "contract IERC20",
          "name": "_token",
          "type": "address"
        },
        {
          "internalType": "address",
          "name": "_sgBridge",
          "type": "address"
        },
        {
          "internalType": "address",
          "name": "_sgRouter",
          "type": "address"
        }
      ],
      "name": "initialize",
      "outputs": [],
      "stateMutability": "nonpayable",
      "type": "function"
    },
    {
      "inputs": [
        {
          "internalType": "uint16",
          "name": "_srcChainId",
          "type": "uint16"
        },
        {
          "internalType": "bytes",
          "name": "_srcAddress",
          "type": "bytes"
        }
      ],
      "name": "isTrustedRemote",
      "outputs": [
        {
          "internalType": "bool",
          "name": "",
          "type": "bool"
        }
      ],
      "stateMutability": "view",
      "type": "function"
    },
    {
      "inputs": [],
      "name": "lzEndpoint",
      "outputs": [
        {
          "internalType": "contract ILayerZeroEndpointUpgradeable",
          "name": "",
          "type": "address"
        }
      ],
      "stateMutability": "view",
      "type": "function"
    },
    {
      "inputs": [
        {
          "internalType": "uint16",
          "name": "_srcChainId",
          "type": "uint16"
        },
        {
          "internalType": "bytes",
          "name": "_srcAddress",
          "type": "bytes"
        },
        {
          "internalType": "uint64",
          "name": "_nonce",
          "type": "uint64"
        },
        {
          "internalType": "bytes",
          "name": "_payload",
          "type": "bytes"
        }
      ],
      "name": "lzReceive",
      "outputs": [],
      "stateMutability": "nonpayable",
      "type": "function"
    },
    {
      "inputs": [
        {
          "internalType": "uint16",
          "name": "_chainId",
          "type": "uint16"
        },
        {
          "internalType": "address",
          "name": "_oldStrategy",
          "type": "address"
        },
        {
          "internalType": "address",
          "name": "_newStrategy",
          "type": "address"
        }
      ],
      "name": "migrateStrategy",
      "outputs": [],
      "stateMutability": "nonpayable",
      "type": "function"
    },
    {
      "inputs": [
        {
          "internalType": "uint16",
          "name": "",
          "type": "uint16"
        },
        {
          "internalType": "uint16",
          "name": "",
          "type": "uint16"
        }
      ],
      "name": "minDstGasLookup",
      "outputs": [
        {
          "internalType": "uint256",
          "name": "",
          "type": "uint256"
        }
      ],
      "stateMutability": "view",
      "type": "function"
    },
    {
      "inputs": [],
      "name": "name",
      "outputs": [
        {
          "internalType": "string",
          "name": "",
          "type": "string"
        }
      ],
      "stateMutability": "view",
      "type": "function"
    },
    {
      "inputs": [
        {
          "internalType": "uint16",
          "name": "_srcChainId",
          "type": "uint16"
        },
        {
          "internalType": "bytes",
          "name": "_srcAddress",
          "type": "bytes"
        },
        {
          "internalType": "uint64",
          "name": "_nonce",
          "type": "uint64"
        },
        {
          "internalType": "bytes",
          "name": "_payload",
          "type": "bytes"
        }
      ],
      "name": "nonblockingLzReceive",
      "outputs": [],
      "stateMutability": "nonpayable",
      "type": "function"
    },
    {
      "inputs": [],
      "name": "owner",
      "outputs": [
        {
          "internalType": "address",
          "name": "",
          "type": "address"
        }
      ],
      "stateMutability": "view",
      "type": "function"
    },
    {
      "inputs": [
        {
          "internalType": "uint16",
          "name": "",
          "type": "uint16"
        }
      ],
      "name": "payloadSizeLimitLookup",
      "outputs": [
        {
          "internalType": "uint256",
          "name": "",
          "type": "uint256"
        }
      ],
      "stateMutability": "view",
      "type": "function"
    },
    {
      "inputs": [],
      "name": "precrime",
      "outputs": [
        {
          "internalType": "address",
          "name": "",
          "type": "address"
        }
      ],
      "stateMutability": "view",
      "type": "function"
    },
    {
      "inputs": [],
      "name": "pricePerShare",
      "outputs": [
        {
          "internalType": "uint256",
          "name": "",
          "type": "uint256"
        }
      ],
      "stateMutability": "view",
      "type": "function"
    },
    {
      "inputs": [],
      "name": "renounceOwnership",
      "outputs": [],
      "stateMutability": "nonpayable",
      "type": "function"
    },
    {
      "inputs": [
        {
          "internalType": "uint16",
          "name": "_srcChainId",
          "type": "uint16"
        },
        {
          "internalType": "bytes",
          "name": "_srcAddress",
          "type": "bytes"
        },
        {
          "internalType": "uint64",
          "name": "_nonce",
          "type": "uint64"
        },
        {
          "internalType": "bytes",
          "name": "_payload",
          "type": "bytes"
        }
      ],
      "name": "retryMessage",
      "outputs": [],
      "stateMutability": "payable",
      "type": "function"
    },
    {
      "inputs": [],
      "name": "revokeFunds",
      "outputs": [],
      "stateMutability": "nonpayable",
      "type": "function"
    },
    {
      "inputs": [
        {
          "internalType": "uint16",
          "name": "_chainId",
          "type": "uint16"
        },
        {
          "internalType": "address",
          "name": "_strategy",
          "type": "address"
        }
      ],
      "name": "revokeStrategy",
      "outputs": [],
      "stateMutability": "nonpayable",
      "type": "function"
    },
    {
      "inputs": [
        {
          "internalType": "uint16",
          "name": "_version",
          "type": "uint16"
        },
        {
          "internalType": "uint16",
          "name": "_chainId",
          "type": "uint16"
        },
        {
          "internalType": "uint256",
          "name": "_configType",
          "type": "uint256"
        },
        {
          "internalType": "bytes",
          "name": "_config",
          "type": "bytes"
        }
      ],
      "name": "setConfig",
      "outputs": [],
      "stateMutability": "nonpayable",
      "type": "function"
    },
    {
      "inputs": [
        {
          "internalType": "bool",
          "name": "_emergencyShutdown",
          "type": "bool"
        }
      ],
      "name": "setEmergencyShutdown",
      "outputs": [],
      "stateMutability": "nonpayable",
      "type": "function"
    },
    {
      "inputs": [
        {
          "internalType": "address",
          "name": "_newGovernance",
          "type": "address"
        }
      ],
      "name": "setGovernance",
      "outputs": [],
      "stateMutability": "nonpayable",
      "type": "function"
    },
    {
      "inputs": [
        {
          "internalType": "uint16",
          "name": "_dstChainId",
          "type": "uint16"
        },
        {
          "internalType": "uint16",
          "name": "_packetType",
          "type": "uint16"
        },
        {
          "internalType": "uint256",
          "name": "_minGas",
          "type": "uint256"
        }
      ],
      "name": "setMinDstGas",
      "outputs": [],
      "stateMutability": "nonpayable",
      "type": "function"
    },
    {
      "inputs": [
        {
          "internalType": "uint16",
          "name": "_dstChainId",
          "type": "uint16"
        },
        {
          "internalType": "uint256",
          "name": "_size",
          "type": "uint256"
        }
      ],
      "name": "setPayloadSizeLimit",
      "outputs": [],
      "stateMutability": "nonpayable",
      "type": "function"
    },
    {
      "inputs": [
        {
          "internalType": "address",
          "name": "_precrime",
          "type": "address"
        }
      ],
      "name": "setPrecrime",
      "outputs": [],
      "stateMutability": "nonpayable",
      "type": "function"
    },
    {
      "inputs": [
        {
          "internalType": "uint16",
          "name": "_version",
          "type": "uint16"
        }
      ],
      "name": "setReceiveVersion",
      "outputs": [],
      "stateMutability": "nonpayable",
      "type": "function"
    },
    {
      "inputs": [
        {
          "internalType": "uint16",
          "name": "_version",
          "type": "uint16"
        }
      ],
      "name": "setSendVersion",
      "outputs": [],
      "stateMutability": "nonpayable",
      "type": "function"
    },
    {
      "inputs": [
        {
          "internalType": "uint16",
          "name": "_chainId",
          "type": "uint16"
        },
        {
          "internalType": "address",
          "name": "_strategy",
          "type": "address"
        },
        {
          "internalType": "address",
          "name": "_newStrategist",
          "type": "address"
        }
      ],
      "name": "setStrategist",
      "outputs": [],
      "stateMutability": "nonpayable",
      "type": "function"
    },
    {
      "inputs": [
        {
          "internalType": "uint16",
          "name": "_srcChainId",
          "type": "uint16"
        },
        {
          "internalType": "bytes",
          "name": "_path",
          "type": "bytes"
        }
      ],
      "name": "setTrustedRemote",
      "outputs": [],
      "stateMutability": "nonpayable",
      "type": "function"
    },
    {
      "inputs": [
        {
          "internalType": "uint16",
          "name": "_remoteChainId",
          "type": "uint16"
        },
        {
          "internalType": "bytes",
          "name": "_remoteAddress",
          "type": "bytes"
        }
      ],
      "name": "setTrustedRemoteAddress",
      "outputs": [],
      "stateMutability": "nonpayable",
      "type": "function"
    },
    {
      "inputs": [],
      "name": "sgBridge",
      "outputs": [
        {
          "internalType": "contract ISgBridge",
          "name": "",
          "type": "address"
        }
      ],
      "stateMutability": "view",
      "type": "function"
    },
    {
      "inputs": [
        {
          "internalType": "uint16",
          "name": "_srcChainId",
          "type": "uint16"
        },
        {
          "internalType": "bytes",
          "name": "_srcAddress",
          "type": "bytes"
        },
        {
          "internalType": "uint256",
          "name": "",
          "type": "uint256"
        },
        {
          "internalType": "address",
          "name": "_token",
          "type": "address"
        },
        {
          "internalType": "uint256",
          "name": "_amountLD",
          "type": "uint256"
        },
        {
          "internalType": "bytes",
          "name": "_payload",
          "type": "bytes"
        }
      ],
      "name": "sgReceive",
      "outputs": [],
      "stateMutability": "nonpayable",
      "type": "function"
    },
    {
      "inputs": [],
      "name": "sgRouter",
      "outputs": [
        {
          "internalType": "address",
          "name": "",
          "type": "address"
        }
      ],
      "stateMutability": "view",
      "type": "function"
    },
    {
      "inputs": [
        {
          "internalType": "uint16",
          "name": "",
          "type": "uint16"
        },
        {
          "internalType": "address",
          "name": "",
          "type": "address"
        }
      ],
      "name": "strategies",
      "outputs": [
        {
          "internalType": "uint256",
          "name": "activation",
          "type": "uint256"
        },
        {
          "internalType": "uint256",
          "name": "debtRatio",
          "type": "uint256"
        },
        {
          "internalType": "uint256",
          "name": "totalDebt",
          "type": "uint256"
        },
        {
          "internalType": "uint256",
          "name": "totalGain",
          "type": "uint256"
        },
        {
          "internalType": "uint256",
          "name": "totalLoss",
          "type": "uint256"
        },
        {
          "internalType": "uint256",
          "name": "lastReport",
          "type": "uint256"
        },
        {
          "internalType": "uint256",
          "name": "performanceFee",
          "type": "uint256"
        },
        {
          "internalType": "address",
          "name": "strategist",
          "type": "address"
        }
      ],
      "stateMutability": "view",
      "type": "function"
    },
    {
      "inputs": [],
      "name": "symbol",
      "outputs": [
        {
          "internalType": "string",
          "name": "",
          "type": "string"
        }
      ],
      "stateMutability": "view",
      "type": "function"
    },
    {
      "inputs": [],
      "name": "token",
      "outputs": [
        {
          "internalType": "contract IERC20",
          "name": "",
          "type": "address"
        }
      ],
      "stateMutability": "view",
      "type": "function"
    },
    {
      "inputs": [],
      "name": "totalAssets",
      "outputs": [
        {
          "internalType": "uint256",
          "name": "",
          "type": "uint256"
        }
      ],
      "stateMutability": "view",
      "type": "function"
    },
    {
      "inputs": [],
      "name": "totalDebt",
      "outputs": [
        {
          "internalType": "uint256",
          "name": "",
          "type": "uint256"
        }
      ],
      "stateMutability": "view",
      "type": "function"
    },
    {
      "inputs": [],
      "name": "totalDebtRatio",
      "outputs": [
        {
          "internalType": "uint256",
          "name": "",
          "type": "uint256"
        }
      ],
      "stateMutability": "view",
      "type": "function"
    },
    {
      "inputs": [],
      "name": "totalIdle",
      "outputs": [
        {
          "internalType": "uint256",
          "name": "",
          "type": "uint256"
        }
      ],
      "stateMutability": "view",
      "type": "function"
    },
    {
      "inputs": [],
      "name": "totalSupply",
      "outputs": [
        {
          "internalType": "uint256",
          "name": "",
          "type": "uint256"
        }
      ],
      "stateMutability": "view",
      "type": "function"
    },
    {
      "inputs": [
        {
          "internalType": "address",
          "name": "to",
          "type": "address"
        },
        {
          "internalType": "uint256",
          "name": "amount",
          "type": "uint256"
        }
      ],
      "name": "transfer",
      "outputs": [
        {
          "internalType": "bool",
          "name": "",
          "type": "bool"
        }
      ],
      "stateMutability": "nonpayable",
      "type": "function"
    },
    {
      "inputs": [
        {
          "internalType": "address",
          "name": "from",
          "type": "address"
        },
        {
          "internalType": "address",
          "name": "to",
          "type": "address"
        },
        {
          "internalType": "uint256",
          "name": "amount",
          "type": "uint256"
        }
      ],
      "name": "transferFrom",
      "outputs": [
        {
          "internalType": "bool",
          "name": "",
          "type": "bool"
        }
      ],
      "stateMutability": "nonpayable",
      "type": "function"
    },
    {
      "inputs": [
        {
          "internalType": "address",
          "name": "newOwner",
          "type": "address"
        }
      ],
      "name": "transferOwnership",
      "outputs": [],
      "stateMutability": "nonpayable",
      "type": "function"
    },
    {
      "inputs": [
        {
          "internalType": "uint16",
          "name": "",
          "type": "uint16"
        }
      ],
      "name": "trustedRemoteLookup",
      "outputs": [
        {
          "internalType": "bytes",
          "name": "",
          "type": "bytes"
        }
      ],
      "stateMutability": "view",
      "type": "function"
    },
    {
      "inputs": [
        {
          "internalType": "uint16",
          "name": "_chainId",
          "type": "uint16"
        },
        {
          "internalType": "address",
          "name": "_strategy",
          "type": "address"
        },
        {
          "internalType": "uint256",
          "name": "_debtRatio",
          "type": "uint256"
        }
      ],
      "name": "updateStrategyDebtRatio",
      "outputs": [],
      "stateMutability": "nonpayable",
      "type": "function"
    },
    {
      "inputs": [
        {
          "internalType": "uint256",
          "name": "_maxShares",
          "type": "uint256"
        },
        {
          "internalType": "address",
          "name": "_recipient",
          "type": "address"
        },
        {
          "internalType": "uint256",
          "name": "_maxLoss",
          "type": "uint256"
        }
      ],
      "name": "withdraw",
      "outputs": [],
      "stateMutability": "nonpayable",
      "type": "function"
    },
    {
      "inputs": [],
      "name": "withdrawEpoch",
      "outputs": [
        {
          "internalType": "uint256",
          "name": "",
          "type": "uint256"
        }
      ],
      "stateMutability": "view",
      "type": "function"
    },
    {
      "inputs": [
        {
          "internalType": "uint256",
          "name": "",
          "type": "uint256"
        }
      ],
      "name": "withdrawEpochs",
      "outputs": [
        {
          "internalType": "bool",
          "name": "inProgress",
          "type": "bool"
        },
        {
          "internalType": "uint256",
          "name": "approveExpected",
          "type": "uint256"
        },
        {
          "internalType": "uint256",
          "name": "approveActual",
          "type": "uint256"
        }
      ],
      "stateMutability": "view",
      "type": "function"
    },
    {
      "stateMutability": "payable",
      "type": "receive"
    }
  ],
  "bytecode": "0x608060405234801561001057600080fd5b506160d280620000216000396000f3fe6080604052600436106102e65760003560e01c80637533d788116101825780637533d7881461081d5780638cfd8f5c1461083d5780638da5cb5b14610875578063950c8a741461088a57806395d89b41146108aa57806399530b06146108bf5780639aa7df94146108d45780639f38369a146108e9578063a032a71214610909578063a457c2d714610929578063a6c3d16514610949578063a9059cbb14610969578063ab033ea914610989578063ab73ce46146109a9578063ab8236f3146109c0578063b353aaa7146109e0578063baf3292d14610a00578063c446183414610a20578063cbed8b9c14610a36578063cfbcc64414610a56578063d1deba1f14610a76578063dd62ed3e14610a89578063dde4f08e14610aa9578063df2a5b3b14610ac9578063e63697c814610ae9578063e7fda06114610b09578063eb8d72b714610b29578063ef34253c14610b49578063f2fde38b14610b5e578063f5ecbdbc14610b7e578063fc0c546a14610b9e578063fc7b9c1814610bbe57600080fd5b80621d3567146102f257806301dc2eb11461031457806301e1d114146103475780630517cb761461035c57806306fdde031461038a57806307e0db17146103ac578063095ea7b3146103cc5780630a97c254146103fc5780630df374831461041c57806310ddb1371461043c5780631459457a1461045c57806314c644021461047c57806318160ddd1461049c57806323b872dd146104b15780632d606843146104d15780632df9eab9146104e6578063313ce567146104fc5780633403c2fc1461052357806337fded911461053e578063395093511461055e5780633d8b38f61461057e5780633f1f4fa41461059e5780634067cb9e146105cb57806342d65a8d1461068257806352106a49146106a25780635aa6e675146106c25780635b8c41e6146106e25780635fe1a0271461073157806366ad5c8a146107925780636e553f65146107b257806370a08231146107d2578063715018a61461080857600080fd5b366102ed57005b600080fd5b3480156102fe57600080fd5b5061031261030d366004614e9e565b610bd4565b005b34801561032057600080fd5b5061033461032f366004614f46565b610c97565b6040519081526020015b60405180910390f35b34801561035357600080fd5b50610334610cac565b34801561036857600080fd5b506101085461037d906001600160a01b031681565b60405161033e9190614f7d565b34801561039657600080fd5b5061039f610cc8565b60405161033e9190614fe1565b3480156103b857600080fd5b506103126103c7366004614ff4565b610d5a565b3480156103d857600080fd5b506103ec6103e736600461500f565b610dc7565b604051901515815260200161033e565b34801561040857600080fd5b5061031261041736600461503b565b610ddf565b34801561042857600080fd5b5061031261043736600461507a565b610eff565b34801561044857600080fd5b50610312610457366004614ff4565b610f1e565b34801561046857600080fd5b50610312610477366004615096565b610f5a565b34801561048857600080fd5b50610312610497366004615115565b611182565b3480156104a857600080fd5b50603554610334565b3480156104bd57600080fd5b506103ec6104cc366004615132565b6111e3565b3480156104dd57600080fd5b50610312611207565b3480156104f257600080fd5b5061033460fe5481565b34801561050857600080fd5b50610511611283565b60405160ff909116815260200161033e565b34801561052f57600080fd5b50610100546103ec9060ff1681565b34801561054a57600080fd5b5060fd5461037d906001600160a01b031681565b34801561056a57600080fd5b506103ec61057936600461500f565b6112f1565b34801561058a57600080fd5b506103ec610599366004615152565b611313565b3480156105aa57600080fd5b506103346105b9366004614ff4565b609a6020526000908152604090205481565b3480156105d757600080fd5b5061063e6105e6366004614f46565b610101602090815260009283526040808420909152908252902080546001820154600283015460038401546004850154600586015460068701546007909701549596949593949293919290916001600160a01b031688565b604080519889526020890197909752958701949094526060860192909252608085015260a084015260c08301526001600160a01b031660e08201526101000161033e565b34801561068e57600080fd5b5061031261069d366004615152565b6113df565b3480156106ae57600080fd5b506103126106bd3660046151a4565b611452565b3480156106ce57600080fd5b5060fb5461037d906001600160a01b031681565b3480156106ee57600080fd5b506103346106fd3660046152df565b60c9602090815260009384526040808520845180860184018051928152908401958401959095209452929052825290205481565b34801561073d57600080fd5b5061077561074c36600461533c565b6101066020526000908152604090206001810154600282015460039092015460ff909116919083565b60408051931515845260208401929092529082015260600161033e565b34801561079e57600080fd5b506103126107ad366004614e9e565b611689565b3480156107be57600080fd5b506103346107cd366004615355565b61175d565b3480156107de57600080fd5b506103346107ed36600461537a565b6001600160a01b031660009081526033602052604090205490565b34801561081457600080fd5b50610312611769565b34801561082957600080fd5b5061039f610838366004614ff4565b61177d565b34801561084957600080fd5b50610334610858366004615397565b609960209081526000928352604080842090915290825290205481565b34801561088157600080fd5b5061037d611817565b34801561089657600080fd5b50609b5461037d906001600160a01b031681565b3480156108b657600080fd5b5061039f611826565b3480156108cb57600080fd5b50610334611835565b3480156108e057600080fd5b50610334611852565b3480156108f557600080fd5b5061039f610904366004614ff4565b6118c4565b34801561091557600080fd5b506103126109243660046153ca565b6119da565b34801561093557600080fd5b506103ec61094436600461500f565b611dc9565b34801561095557600080fd5b50610312610964366004615152565b611e44565b34801561097557600080fd5b506103ec61098436600461500f565b611ecd565b34801561099557600080fd5b506103126109a436600461537a565b611edb565b3480156109b557600080fd5b506103346101025481565b3480156109cc57600080fd5b506103126109db366004615413565b611f4a565b3480156109ec57600080fd5b5060975461037d906001600160a01b031681565b348015610a0c57600080fd5b50610312610a1b36600461537a565b612098565b348015610a2c57600080fd5b5061033461271081565b348015610a4257600080fd5b50610312610a513660046154ad565b6120f6565b348015610a6257600080fd5b50610312610a71366004614f46565b61216f565b610312610a84366004614e9e565b6121ca565b348015610a9557600080fd5b50610334610aa436600461551b565b6123e0565b348015610ab557600080fd5b50610312610ac43660046153ca565b61240b565b348015610ad557600080fd5b50610312610ae4366004615539565b61249b565b348015610af557600080fd5b50610312610b04366004615575565b61254d565b348015610b1557600080fd5b50610334610b24366004614f46565b61255d565b348015610b3557600080fd5b50610312610b44366004615152565b612569565b348015610b5557600080fd5b506103126125c3565b348015610b6a57600080fd5b50610312610b7936600461537a565b612916565b348015610b8a57600080fd5b5061039f610b9936600461559c565b61298c565b348015610baa57600080fd5b5060fc5461037d906001600160a01b031681565b348015610bca57600080fd5b5061033460ff5481565b6097546001600160a01b03163314610c195760405162461bcd60e51b815260206004820152600360248201526205631360ec1b60448201526064015b60405180910390fd5b610c8f8686868080601f01602080910402602001604051908101604052809392919081815260200183838082843760009201919091525050604080516020601f890181900481028201810190925287815289935091508790879081908401838280828437600092019190915250612a2192505050565b505050505050565b6000610ca38383612a9a565b90505b92915050565b6000610cb6611852565b60ff54610cc391906155ff565b905090565b606060368054610cd790615612565b80601f0160208091040260200160405190810160405280929190818152602001828054610d0390615612565b8015610d505780601f10610d2557610100808354040283529160200191610d50565b820191906000526020600020905b815481529060010190602001808311610d3357829003601f168201915b5050505050905090565b610d62612b62565b6097546040516307e0db1760e01b815261ffff831660048201526001600160a01b03909116906307e0db17906024015b600060405180830381600087803b158015610dac57600080fd5b505af1158015610dc0573d6000803e3d6000fd5b5050505050565b600033610dd5818585612bc1565b5060019392505050565b60fb546001600160a01b0316331480610e105750610dfb611817565b6001600160a01b0316336001600160a01b0316145b610e2c5760405162461bcd60e51b8152600401610c109061564c565b61ffff83166000908152610101602090815260408083206001600160a01b038616845290915281206001015460fe805491929091610e6b908490615668565b909155505061ffff83166000908152610101602090815260408083206001600160a01b0386168452909152902060010181905560fe5461271090610eb09083906155ff565b1115610ee35760405162461bcd60e51b81526020600482015260026024820152612b1b60f11b6044820152606401610c10565b8060fe6000828254610ef591906155ff565b9091555050505050565b610f07612b62565b61ffff9091166000908152609a6020526040902055565b610f26612b62565b6097546040516310ddb13760e01b815261ffff831660048201526001600160a01b03909116906310ddb13790602401610d92565b600054610100900460ff1615808015610f7a5750600054600160ff909116105b80610f9b5750610f8930612ce5565b158015610f9b575060005460ff166001145b610ffe5760405162461bcd60e51b815260206004820152602e60248201527f496e697469616c697a61626c653a20636f6e747261637420697320616c72656160448201526d191e481a5b9a5d1a585b1a5e995960921b6064820152608401610c10565b6000805460ff191660011790558015611021576000805461ff0019166101001790555b61102a85612cf4565b611032612d2c565b61107e6040518060400160405280600f81526020016e13db5b9a58da185a5b8815985d5b1d608a1b8152506040518060400160405280600381526020016227a6ab60e91b815250612d5b565b60fb80546001600160a01b038089166001600160a01b03199283161790925560fc8054878416908316811790915560fd805487851690841617905561010880549386169390921692909217905560405163095ea7b360e01b815263095ea7b3906110f09086906000199060040161567b565b6020604051808303816000875af115801561110f573d6000803e3d6000fd5b505050506040513d601f19601f820116820180604052508101906111339190615694565b508015610c8f576000805461ff0019169055604051600181527f7f26b83ff96e1f2b6a682f133852f6798a09c465da95921460cefb3847402498906020015b60405180910390a1505050505050565b60fb546001600160a01b03163314806111b3575061119e611817565b6001600160a01b0316336001600160a01b0316145b6111cf5760405162461bcd60e51b8152600401610c109061564c565b610100805460ff1916911515919091179055565b6000336111f1858285612d8c565b6111fc858585612e06565b506001949350505050565b60fb546001600160a01b03163314806112385750611223611817565b6001600160a01b0316336001600160a01b0316145b6112545760405162461bcd60e51b8152600401610c109061564c565b60405133904780156108fc02916000818181858888f19350505050158015611280573d6000803e3d6000fd5b50565b60fc546040805163313ce56760e01b815290516000926001600160a01b03169163313ce5679160048083019260209291908290030181865afa1580156112cd573d6000803e3d6000fd5b505050506040513d601f19601f82011682018060405250810190610cc391906156b1565b600033610dd581858561130483836123e0565b61130e91906155ff565b612bc1565b61ffff83166000908152609860205260408120805482919061133490615612565b80601f016020809104026020016040519081016040528092919081815260200182805461136090615612565b80156113ad5780601f10611382576101008083540402835291602001916113ad565b820191906000526020600020905b81548152906001019060200180831161139057829003601f168201915b5050505050905083836040516113c49291906156d4565b60405180910390208180519060200120149150509392505050565b6113e7612b62565b6097546040516342d65a8d60e01b81526001600160a01b03909116906342d65a8d9061141b9086908690869060040161570d565b600060405180830381600087803b15801561143557600080fd5b505af1158015611449573d6000803e3d6000fd5b50505050505050565b60fb546001600160a01b0316331480611483575061146e611817565b6001600160a01b0316336001600160a01b0316145b61149f5760405162461bcd60e51b8152600401610c109061564c565b61ffff85166000908152610101602090815260408083206001600160a01b038816845290915290205485908590156114e95760405162461bcd60e51b8152600401610c109061572b565b6127108560fe546114fa91906155ff565b111561152d5760405162461bcd60e51b8152602060048201526002602482015261563560f01b6044820152606401610c10565b60405180610100016040528042815260200186815260200160008152602001600081526020016000815260200160008152602001858152602001846001600160a01b031681525061010160008961ffff1661ffff1681526020019081526020016000206000886001600160a01b03166001600160a01b03168152602001908152602001600020600082015181600001556020820151816001015560408201518160020155606082015181600301556080820151816004015560a0820151816005015560c0820151816006015560e08201518160070160006101000a8154816001600160a01b0302191690836001600160a01b031602179055509050506116578661010360008a61ffff1661ffff168152602001908152602001600020612f9f90919063ffffffff16565b5061166861010461ffff8916612fb4565b508460fe600082825461167b91906155ff565b909155505050505050505050565b3330146116e75760405162461bcd60e51b815260206004820152602660248201527f4e6f6e626c6f636b696e674c7a4170703a2063616c6c6572206d7573742062656044820152650204c7a4170760d41b6064820152608401610c10565b610c8f8686868080601f01602080910402602001604051908101604052809392919081815260200183838082843760009201919091525050604080516020601f890181900481028201810190925287815289935091508790879081908401838280828437600092019190915250612fc092505050565b6000610ca3838361305e565b611771612b62565b61177b60006130c2565b565b6098602052600090815260409020805461179690615612565b80601f01602080910402602001604051908101604052809291908181526020018280546117c290615612565b801561180f5780601f106117e45761010080835404028352916020019161180f565b820191906000526020600020905b8154815290600101906020018083116117f257829003601f168201915b505050505081565b6065546001600160a01b031690565b606060378054610cd790615612565b6000610cc3611842611283565b61184d90600a61582b565b613114565b60fc546040516370a0823160e01b81526000916001600160a01b0316906370a0823190611883903090600401614f7d565b602060405180830381865afa1580156118a0573d6000803e3d6000fd5b505050506040513d601f19601f82011682018060405250810190610cc3919061583a565b61ffff81166000908152609860205260408120805460609291906118e790615612565b80601f016020809104026020016040519081016040528092919081815260200182805461191390615612565b80156119605780601f1061193557610100808354040283529160200191611960565b820191906000526020600020905b81548152906001019060200180831161194357829003601f168201915b5050505050905080516000036119b85760405162461bcd60e51b815260206004820152601d60248201527f4c7a4170703a206e6f20747275737465642070617468207265636f72640000006044820152606401610c10565b6119d36000601483516119cb9190615668565b839190613149565b9392505050565b60fb546001600160a01b0316331480611a0b57506119f6611817565b6001600160a01b0316336001600160a01b0316145b611a275760405162461bcd60e51b8152600401610c109061564c565b61ffff83166000908152610101602090815260408083206001600160a01b03851684529091529020548390829015611a715760405162461bcd60e51b8152600401610c109061572b565b6001600160a01b038316611aac5760405162461bcd60e51b8152602060048201526002602482015261563760f01b6044820152606401610c10565b600061010160008761ffff1661ffff1681526020019081526020016000206000866001600160a01b03166001600160a01b0316815260200190815260200160002060405180610100016040529081600082015481526020016001820154815260200160028201548152602001600382015481526020016004820154815260200160058201548152602001600682015481526020016007820160009054906101000a90046001600160a01b03166001600160a01b03166001600160a01b03168152505090506040518061010001604052808260a001518152602001826020015181526020018260400151815260200160008152602001600081526020018260a0015181526020018260c0015181526020018260e001516001600160a01b031681525061010160008861ffff1661ffff1681526020019081526020016000206000866001600160a01b03166001600160a01b03168152602001908152602001600020600082015181600001556020820151816001015560408201518160020155606082015181600301556080820151816004015560a0820151816005015560c0820151816006015560e08201518160070160006101000a8154816001600160a01b0302191690836001600160a01b03160217905550905050600061010160008861ffff1661ffff1681526020019081526020016000206000876001600160a01b03166001600160a01b0316815260200190815260200160002060010181905550600061010160008861ffff1661ffff1681526020019081526020016000206000876001600160a01b03166001600160a01b03168152602001908152602001600020600201819055508561ffff16607461ffff1603611d855760405163ce5494bb60e01b81526001600160a01b0386169063ce5494bb90611d4e908790600401614f7d565b600060405180830381600087803b158015611d6857600080fd5b505af1158015611d7c573d6000803e3d6000fd5b50505050610c8f565b610c8f868660046040518060200160405280896001600160a01b0316815250604051602001611db592919061588b565b604051602081830303815290604052613256565b60003381611dd782866123e0565b905083811015611e375760405162461bcd60e51b815260206004820152602560248201527f45524332303a2064656372656173656420616c6c6f77616e63652062656c6f77604482015264207a65726f60d81b6064820152608401610c10565b6111fc8286868403612bc1565b611e4c612b62565b818130604051602001611e61939291906158b0565b60408051601f1981840301815291815261ffff8516600090815260986020522090611e8c908261592c565b507f8c0400cfe2d1199b1a725c78960bcc2a344d869b80590d0f2bd005db15a572ce838383604051611ec09392919061570d565b60405180910390a1505050565b600033610dd5818585612e06565b60fb546001600160a01b0316331480611f0c5750611ef7611817565b6001600160a01b0316336001600160a01b0316145b611f285760405162461bcd60e51b8152600401610c109061564c565b60fb80546001600160a01b0319166001600160a01b0392909216919091179055565b60fc546001600160a01b03848116911614611f8c5760405162461bcd60e51b81526020600482015260026024820152610ac760f31b6044820152606401610c10565b610108546001600160a01b0316331480611fb0575060fd546001600160a01b031633145b80611fd35750611fbe611817565b6001600160a01b0316336001600160a01b0316145b6120045760405162461bcd60e51b8152602060048201526002602482015261563960f01b6044820152606401610c10565b600061201286826014613149565b60405160200161202291906159e5565b60405160208183030381529060405261203a90615a01565b60601c905061204a878385613400565b604080518481526001600160a01b0383811660208301528616917f92073a89a07a000083eb8b2575fc15e7bb936efe55d00727d6942a796d7211a7910160405180910390a250505050505050565b6120a0612b62565b609b80546001600160a01b0319166001600160a01b0383161790556040517f5db758e995a17ec1ad84bdef7e8c3293a0bd6179bcce400dff5d4c3d87db726b906120eb908390614f7d565b60405180910390a150565b6120fe612b62565b6097546040516332fb62e760e21b81526001600160a01b039091169063cbed8b9c906121369088908890889088908890600401615a38565b600060405180830381600087803b15801561215057600080fd5b505af1158015612164573d6000803e3d6000fd5b505050505050505050565b60fb546001600160a01b03163314806121a0575061218b611817565b6001600160a01b0316336001600160a01b0316145b6121bc5760405162461bcd60e51b8152600401610c109061564c565b6121c68282613497565b5050565b61ffff8616600090815260c9602052604080822090516121ed90889088906156d4565b90815260408051602092819003830190206001600160401b0387166000908152925290205490508061226d5760405162461bcd60e51b815260206004820152602360248201527f4e6f6e626c6f636b696e674c7a4170703a206e6f2073746f726564206d65737360448201526261676560e81b6064820152608401610c10565b80838360405161227e9291906156d4565b6040518091039020146122dd5760405162461bcd60e51b815260206004820152602160248201527f4e6f6e626c6f636b696e674c7a4170703a20696e76616c6964207061796c6f616044820152601960fa1b6064820152608401610c10565b61ffff8716600090815260c96020526040808220905161230090899089906156d4565b90815260408051602092819003830181206001600160401b038916600090815290845282902093909355601f88018290048202830182019052868252612398918991899089908190840183828082843760009201919091525050604080516020601f8a018190048102820181019092528881528a935091508890889081908401838280828437600092019190915250612fc092505050565b7fc264d91f3adc5588250e1551f547752ca0cfa8f6b530d243b9f9f4cab10ea8e587878787856040516123cf959493929190615a66565b60405180910390a150505050505050565b6001600160a01b03918216600090815260346020908152604080832093909416825291909152205490565b60fb546001600160a01b031633148061243c5750612427611817565b6001600160a01b0316336001600160a01b0316145b6124585760405162461bcd60e51b8152600401610c109061564c565b61ffff929092166000908152610101602090815260408083206001600160a01b039485168452909152902060070180546001600160a01b03191691909216179055565b6124a3612b62565b600081116124eb5760405162461bcd60e51b81526020600482015260156024820152744c7a4170703a20696e76616c6964206d696e47617360581b6044820152606401610c10565b61ffff83811660008181526099602090815260408083209487168084529482529182902085905581519283528201929092529081018290527f9d5c7c0b934da8fefa9c7760c98383778a12dfbfc0c3b3106518f43fb9508ac090606001611ec0565b61255883838361350c565b505050565b6000610ca38383613637565b612571612b62565b61ffff8316600090815260986020526040902061258f828483615aa1565b507ffa41487ad5d6728f0b19276fa1eddc16558578f5109fc39d2dc33c3230470dab838383604051611ec09392919061570d565b60fb546001600160a01b03163314806125f457506125df611817565b6001600160a01b0316336001600160a01b0316145b6126105760405162461bcd60e51b8152600401610c109061564c565b610102546000908152610106602052604090206001015460ff16156126475760405162461bcd60e51b8152600401610c1090615b5a565b6000805b61010254600090815261010660205260409020548110156126c8576101025460009081526101066020526040812080548390811061268b5761268b615b76565b906000526020600020906006020190506126a88160020154613114565b6126b290846155ff565b92505080806126c090615b8c565b91505061264b565b506126d1611852565b81116126df576112806136ef565b60006126e9611852565b6126f39083615668565b90506000805b612704610104613a05565b811080156127125750600083115b156128e057600061272561010483613a0f565b61ffff81166000908152610103602052604081209192505b61274682613a05565b811080156127545750600086115b156128ca5760006127658383613a0f565b61ffff85166000908152610101602090815260408083206001600160a01b0385168452909152812060028101549293509190036127a35750506128b8565b60006127b3898360020154613a1b565b6101025460009081526101066020908152604080832061ffff8b16845260050182528083206001600160a01b0388168452909152902081905590506127f8818a615668565b985061ffff861660740361287757604051632e1a7d4d60e01b8152600481018290526001600160a01b03841690632e1a7d4d906024016020604051808303816000875af115801561284d573d6000803e3d6000fd5b505050506040513d601f19601f82011682018060405250810190612871919061583a565b506128a7565b6128a786846000604051806040016040528086815260200161010254815250604051602001611db5929190615ba5565b876128b181615b8c565b9850505050505b806128c281615b8c565b91505061273d565b50505080806128d890615b8c565b9150506126f9565b506101028054600090815261010660205260408082206002019390935590548152206001908101805460ff191690911790555050565b61291e612b62565b6001600160a01b0381166129835760405162461bcd60e51b815260206004820152602660248201527f4f776e61626c653a206e6577206f776e657220697320746865207a65726f206160448201526564647265737360d01b6064820152608401610c10565b611280816130c2565b609754604051633d7b2f6f60e21b815261ffff808716600483015285166024820152306044820152606481018390526060916001600160a01b03169063f5ecbdbc90608401600060405180830381865afa1580156129ee573d6000803e3d6000fd5b505050506040513d6000823e601f3d908101601f19168201604052612a169190810190615c10565b90505b949350505050565b600080612a845a60966366ad5c8a60e01b89898989604051602401612a499493929190615c44565b60408051601f198184030181529190526020810180516001600160e01b03166001600160e01b03199093169290921790915230929190613a31565b9150915081610c8f57610c8f8686868685613abd565b6101005460009060ff1615612ab157506000610ca6565b6000612710612abe610cac565b61ffff86166000908152610101602090815260408083206001600160a01b0389168452909152902060010154612af49190615c82565b612afe9190615c99565b61ffff85166000908152610101602090815260408083206001600160a01b0388168452909152902060020154909150808211612b3f57600092505050610ca6565b612b59612b4a611852565b612b548385615668565b613a1b565b95945050505050565b33612b6b611817565b6001600160a01b03161461177b5760405162461bcd60e51b815260206004820181905260248201527f4f776e61626c653a2063616c6c6572206973206e6f7420746865206f776e65726044820152606401610c10565b6001600160a01b038316612c235760405162461bcd60e51b8152602060048201526024808201527f45524332303a20617070726f76652066726f6d20746865207a65726f206164646044820152637265737360e01b6064820152608401610c10565b6001600160a01b038216612c845760405162461bcd60e51b815260206004820152602260248201527f45524332303a20617070726f766520746f20746865207a65726f206164647265604482015261737360f01b6064820152608401610c10565b6001600160a01b0383811660008181526034602090815260408083209487168084529482529182902085905590518481527f8c5be1e5ebec7d5bd14f71427d1e84f3dd0314c0f7b2291e5b200ac8c7c3b925910160405180910390a3505050565b6001600160a01b03163b151590565b600054610100900460ff16612d1b5760405162461bcd60e51b8152600401610c1090615cbb565b612d23613b5a565b61128081613b8a565b600054610100900460ff16612d535760405162461bcd60e51b8152600401610c1090615cbb565b61177b613b5a565b600054610100900460ff16612d825760405162461bcd60e51b8152600401610c1090615cbb565b6121c68282613bd3565b6000612d9884846123e0565b90506000198114612e005781811015612df35760405162461bcd60e51b815260206004820152601d60248201527f45524332303a20696e73756666696369656e7420616c6c6f77616e63650000006044820152606401610c10565b612e008484848403612bc1565b50505050565b6001600160a01b038316612e6a5760405162461bcd60e51b815260206004820152602560248201527f45524332303a207472616e736665722066726f6d20746865207a65726f206164604482015264647265737360d81b6064820152608401610c10565b6001600160a01b038216612ecc5760405162461bcd60e51b815260206004820152602360248201527f45524332303a207472616e7366657220746f20746865207a65726f206164647260448201526265737360e81b6064820152608401610c10565b6001600160a01b03831660009081526033602052604090205481811015612f445760405162461bcd60e51b815260206004820152602660248201527f45524332303a207472616e7366657220616d6f756e7420657863656564732062604482015265616c616e636560d01b6064820152608401610c10565b6001600160a01b03808516600081815260336020526040808220868603905592861680825290839020805486019055915160008051602061607d83398151915290612f929086815260200190565b60405180910390a3612e00565b6000610ca3836001600160a01b038416613c13565b6000610ca38383613c13565b6000612fce84826014613149565b604051602001612fde91906159e5565b604051602081830303815290604052612ff690615a01565b61ffff861660009081526101016020908152604080832060609490941c808452939091529020549091506130525760405162461bcd60e51b815260206004820152600360248201526256313560e81b6044820152606401610c10565b610dc085836000613400565b6101005460009060ff161561309b5760405162461bcd60e51b815260206004820152600360248201526256313160e81b6044820152606401610c10565b60006130a78385613c62565b60fc54909150610ca3906001600160a01b0316333087613cde565b606580546001600160a01b038381166001600160a01b0319831681179093556040519116919082907f8be0079c531659141344cd1fd0a4f28419497f9722a3daafe3b4186f6b6457e090600090a35050565b600061311f60355490565b60000361312a575090565b603554613135610cac565b61313f9084615c82565b610ca69190615c99565b60608161315781601f6155ff565b10156131965760405162461bcd60e51b815260206004820152600e60248201526d736c6963655f6f766572666c6f7760901b6044820152606401610c10565b6131a082846155ff565b845110156131e45760405162461bcd60e51b8152602060048201526011602482015270736c6963655f6f75744f66426f756e647360781b6044820152606401610c10565b606082158015613203576040519150600082526020820160405261324d565b6040519150601f8416801560200281840101858101878315602002848b0101015b8183101561323c578051835260209283019201613224565b5050858452601f01601f1916604052505b50949350505050565b61ffff83166000908152610101602090815260408083206001600160a01b03861684529091529020548390839061329f5760405162461bcd60e51b8152600401610c1090615d06565b6040516001600160601b0319606086811b8216602084015230901b16603482015260009060480160408051601f198184030181529190526097549091506000906001600160a01b03166340a7bb10883088856132f9613d49565b6040518663ffffffff1660e01b8152600401613319959493929190615d22565b6040805180830381865afa158015613335573d6000803e3d6000fd5b505050506040513d601f19601f820116820180604052508101906133599190615d76565b509050804710156133855760405162fae2d560e21b815260048101829052476024820152604401610c10565b6097546001600160a01b031663c58031008289858930806133a4613d49565b6040518863ffffffff1660e01b81526004016133c596959493929190615d9a565b6000604051808303818588803b1580156133de57600080fd5b505af11580156133f2573d6000803e3d6000fd5b505050505050505050505050565b6000828060200190518101906134169190615e01565b9050600281600481111561342c5761342c615853565b0361345b576000838060200190518101906134479190615e2d565b915050613455858285613d79565b50612e00565b600181600481111561346f5761346f615853565b03612e005760008380602001905181019061348a9190615f18565b915050610dc085826141c1565b61ffff82166000908152610101602090815260408083206001600160a01b038516845290915281206001015460fe8054919290916134d6908490615668565b909155505061ffff9091166000908152610101602090815260408083206001600160a01b03909416835292905290812060010155565b610102546000908152610106602052604090206001015460ff16156135435760405162461bcd60e51b8152600401610c1090615b5a565b61354e333085612e06565b61010660006101025481526020019081526020016000206000016040518060c00160405280336001600160a01b03168152602001846001600160a01b031681526020018581526020018381526020016135a686613114565b81526000602091820181905283546001808201865594825290829020835160069092020180546001600160a01b03199081166001600160a01b039384161782559284015194810180549093169490911693909317905560408101516002830155606081015160038301556080810151600483015560a001516005909101805460ff1916911515919091179055505050565b600080612710613645610cac565b61ffff86166000908152610101602090815260408083206001600160a01b038916845290915290206001015461367b9190615c82565b6136859190615c99565b61ffff85166000908152610101602090815260408083206001600160a01b0388168452909152902060020154610100549192509060ff16156136ca579150610ca69050565b8181116136dc57600092505050610ca6565b6136e68282615668565b92505050610ca6565b6101025460009081526101066020526040902054806137365760405162461bcd60e51b8152602060048201526003602482015262158c4d60ea1b6044820152606401610c10565b6000816001600160401b03811115613750576137506151f3565b604051908082528060200260200182016040528015613779578160200160208202803683370190505b50905060005b828110156137f957610102546000908152610106602052604081208054839081106137ac576137ac615b76565b906000526020600020906006020190506137c98160020154613114565b8383815181106137db576137db615b76565b602090810291909101015250806137f181615b8c565b91505061377f565b5060005b82811015613992576101025460009081526101066020526040812080548390811061382a5761382a615b76565b90600052602060002090600602019050600061386184848151811061385157613851615b76565b6020026020010151612b54611852565b905081600401548110156139405760008183600401546138819190615668565b905060008360040154826127106138989190615c82565b6138a29190615c99565b9050836003015481111561393d5760058401805460ff191690558354600285015460405163a9059cbb60e01b8152309263a9059cbb926138f0926001600160a01b039092169160040161567b565b6020604051808303816000875af115801561390f573d6000803e3d6000fd5b505050506040513d601f19601f820116820180604052508101906139339190615694565b5050505050613980565b50505b60058201805460ff1916600190811790915582015460fc5461396f916001600160a01b0391821691168361438c565b61397d3083600201546143ab565b50505b8061398a81615b8c565b9150506137fd565b506101025460408051918252602082018490527fc682eb885c208b8aaaa811c05902e24a4f14b388960311623a8f31404f655129910160405180910390a16101028054600090815261010660205260408120600101805460ff19169055815491906139fc83615b8c565b91905055505050565b6000610ca6825490565b6000610ca383836144cd565b6000818310613a2a5781610ca3565b5090919050565b6000606060008060008661ffff166001600160401b03811115613a5657613a566151f3565b6040519080825280601f01601f191660200182016040528015613a80576020820181803683370190505b50905060008087516020890160008d8df191503d925086831115613aa2578692505b828152826000602083013e9093509150505b94509492505050565b818051906020012060c960008761ffff1661ffff16815260200190815260200160002085604051613aee91906159e5565b9081526040805191829003602090810183206001600160401b0388166000908152915220919091557fe183f33de2837795525b4792ca4cd60535bd77c53b7e7030060bfcf5734d6b0c90613b4b9087908790879087908790615fa3565b60405180910390a15050505050565b600054610100900460ff16613b815760405162461bcd60e51b8152600401610c1090615cbb565b61177b336130c2565b600054610100900460ff16613bb15760405162461bcd60e51b8152600401610c1090615cbb565b609780546001600160a01b0319166001600160a01b0392909216919091179055565b600054610100900460ff16613bfa5760405162461bcd60e51b8152600401610c1090615cbb565b6036613c06838261592c565b506037612558828261592c565b6000818152600183016020526040812054613c5a57508154600181810184556000848152602080822090930184905584548482528286019093526040902091909155610ca6565b506000610ca6565b600080613c6e60355490565b600003613c7c575081613c9e565b613c84610cac565b603554613c919085615c82565b613c9b9190615c99565b90505b60008111613cd45760405162461bcd60e51b815260206004820152600360248201526256313360e81b6044820152606401610c10565b610ca384826144f7565b6040516001600160a01b0380851660248301528316604482015260648101829052612e009085906323b872dd60e01b906084015b60408051601f198184030181529190526020810180516001600160e01b03166001600160e01b0319909316929092179091526145a6565b60408051600160f01b6020820152620f424060228083019190915282518083039091018152604290910190915290565b613d83838361467b565b606082015115613da057613da0838360000151846060015161485a565b60408083015161ffff85166000908152610101602090815283822086516001600160a01b031683529052918220600301805491929091613de19084906155ff565b90915550508151600090613df6908590613637565b90506000613e08828560800151613a1b565b90508015613e785761ffff851660009081526101016020908152604080832087516001600160a01b0316845290915281206002018054839290613e4c908490615668565b925050819055508060ff6000828254613e659190615668565b90915550613e7590508183615668565b91505b60e084015115613ee55760e084015161ffff861660009081526101016020908152604080832088516001600160a01b0316845290915281206002018054909190613ec39084906155ff565b909155505060e084015160ff8054600090613edf9084906155ff565b90915550505b60208085015161ffff8716600081815261010180855260408083208a516001600160a01b039081168552818852828520600501969096559383529085528851909316815292529020600101541580613f4057506101005460ff165b15613f4e5783610100015191505b61ffff8516607403613fbc578351604051633d3ccc2f60e01b8152600481018490526001600160a01b0390911690633d3ccc2f90602401600060405180830381600087803b158015613f9f57600080fd5b505af1158015613fb3573d6000803e3d6000fd5b5050505061403a565b60a08401511561400f5761400a8460a001518686600001516003604051806020016040528088815250604051602001613ff6929190615ff5565b60405160208183030381529060405261494f565b61403a565b61403a8585600001516003604051806020016040528087815250604051602001611db5929190615ff5565b600061010160008761ffff1661ffff168152602001908152602001600020600086600001516001600160a01b03166001600160a01b0316815260200190815260200160002060405180610100016040529081600082015481526020016001820154815260200160028201548152602001600382015481526020016004820154815260200160058201548152602001600682015481526020016007820160009054906101000a90046001600160a01b03166001600160a01b03166001600160a01b03168152505090507f08bc8eff67f79e18165507d64024f5ca5e90a2593c7a45cb5caf7f9d843e404c8686600001518760400151886060015189608001518660600151876080015188604001518d60e001518a602001518e6040516111729b9a9998979695949392919061ffff9b909b168b526001600160a01b039990991660208b015260408a01979097526060890195909552608088019390935260a087019190915260c086015260e08501526101008401526101208301526101408201526101600190565b805161ffff83166000908152610101602090815260408083206001600160a01b038516845290915290205483919061420b5760405162461bcd60e51b8152600401610c1090615d06565b60408301511561422857614228848460000151856040015161485a565b60208084015161ffff861660009081526101018352604080822087516001600160a01b03168352909352918220600201805491929091614269908490615668565b9091555050602083015160ff8054600090614285908490615668565b909155505060608301516000908152610106602052604081206003018054916142ad83615b8c565b909155505060608301805160009081526101066020818152604080842061ffff8a168552600401825280842088516001600160a01b031685528252808420805460ff191660011790558451845291905280822060030154925182529020600201540361431b5761431b6136ef565b82600001516001600160a01b03168461ffff167f046368a4ca42efbdd968b9025440eb5590bdcda7da09f4fef8ac4ef2f44a5ed085602001518660400151876060015160405161437e939291909283526020830191909152604082015260600190565b60405180910390a350505050565b6125588363a9059cbb60e01b8484604051602401613d1292919061567b565b6001600160a01b03821661440b5760405162461bcd60e51b815260206004820152602160248201527f45524332303a206275726e2066726f6d20746865207a65726f206164647265736044820152607360f81b6064820152608401610c10565b6001600160a01b0382166000908152603360205260409020548181101561447f5760405162461bcd60e51b815260206004820152602260248201527f45524332303a206275726e20616d6f756e7420657863656564732062616c616e604482015261636560f01b6064820152608401610c10565b6001600160a01b038316600081815260336020908152604080832086860390556035805487900390555185815291929160008051602061607d833981519152910160405180910390a3505050565b60008260000182815481106144e4576144e4615b76565b9060005260206000200154905092915050565b6001600160a01b03821661454d5760405162461bcd60e51b815260206004820152601f60248201527f45524332303a206d696e7420746f20746865207a65726f2061646472657373006044820152606401610c10565b806035600082825461455f91906155ff565b90915550506001600160a01b03821660008181526033602090815260408083208054860190555184815260008051602061607d833981519152910160405180910390a35050565b60006145fb826040518060400160405280602081526020017f5361666545524332303a206c6f772d6c6576656c2063616c6c206661696c6564815250856001600160a01b0316614a3f9092919063ffffffff16565b905080516000148061461c57508080602001905181019061461c9190615694565b6125585760405162461bcd60e51b815260206004820152602a60248201527f5361666545524332303a204552433230206f7065726174696f6e20646964206e6044820152691bdd081cdd58d8d9595960b21b6064820152608401610c10565b61ffff821660009081526101076020908152604080832084516001600160a01b031684528252808320610120850151845290915290205460ff16156146e85760405162461bcd60e51b81526020600482015260036024820152622b189b60e91b6044820152606401610c10565b805161012082015160405160609290921b6001600160601b0319166020830152603482015260f083901b6001600160f01b031916605482015260009060560160405160208183030381529060405280519060200120905060008160405160200161477d91907b0ca2ba3432b932bab69029b4b3b732b21026b2b9b9b0b3b29d05199960211b8152601c810191909152603c0190565b60408051601f19818403018152918152815160209283012061ffff87166000908152610101845282812087516001600160a01b03908116835294529190912060070154610140860151919350909116906147d8908390614a4e565b6001600160a01b0316146148145760405162461bcd60e51b815260206004820152600360248201526256313760e81b6044820152606401610c10565b505061ffff90911660009081526101076020908152604080832084516001600160a01b03168452825280832061012090940151835292905220805460ff19166001179055565b61ffff83166000908152610101602090815260408083206001600160a01b03861684529091529020600201548111156148bb5760405162461bcd60e51b81526020600482015260036024820152622b189960e91b6044820152606401610c10565b61ffff83166000908152610101602090815260408083206001600160a01b0386168452909152812060040180548392906148f69084906155ff565b909155505061ffff83166000908152610101602090815260408083206001600160a01b038616845290915281206002018054839290614936908490615668565b925050819055508060ff6000828254610ef59190615668565b60fd54604051630dc6346160e01b81526000916001600160a01b031690630dc634619061498490879087908790600401616011565b602060405180830381865afa1580156149a1573d6000803e3d6000fd5b505050506040513d601f19601f820116820180604052508101906149c5919061583a565b60fd5460fc54604051633920455b60e11b81529293506001600160a01b03918216926372408ab6928592614a06929116908a908a908a908a9060040161603f565b6000604051808303818588803b158015614a1f57600080fd5b505af1158015614a33573d6000803e3d6000fd5b50505050505050505050565b6060612a198484600085614a72565b6000806000614a5d8585614b4d565b91509150614a6a81614b92565b509392505050565b606082471015614ad35760405162461bcd60e51b815260206004820152602660248201527f416464726573733a20696e73756666696369656e742062616c616e636520666f6044820152651c8818d85b1b60d21b6064820152608401610c10565b600080866001600160a01b03168587604051614aef91906159e5565b60006040518083038185875af1925050503d8060008114614b2c576040519150601f19603f3d011682016040523d82523d6000602084013e614b31565b606091505b5091509150614b4287838387614cd7565b979650505050505050565b6000808251604103614b835760208301516040840151606085015160001a614b7787828585614d4e565b94509450505050614b8b565b506000905060025b9250929050565b6000816004811115614ba657614ba6615853565b03614bae5750565b6001816004811115614bc257614bc2615853565b03614c0a5760405162461bcd60e51b815260206004820152601860248201527745434453413a20696e76616c6964207369676e617475726560401b6044820152606401610c10565b6002816004811115614c1e57614c1e615853565b03614c6b5760405162461bcd60e51b815260206004820152601f60248201527f45434453413a20696e76616c6964207369676e6174757265206c656e677468006044820152606401610c10565b6003816004811115614c7f57614c7f615853565b036112805760405162461bcd60e51b815260206004820152602260248201527f45434453413a20696e76616c6964207369676e6174757265202773272076616c604482015261756560f01b6064820152608401610c10565b60608315614d44578251600003614d3d57614cf185612ce5565b614d3d5760405162461bcd60e51b815260206004820152601d60248201527f416464726573733a2063616c6c20746f206e6f6e2d636f6e74726163740000006044820152606401610c10565b5081612a19565b612a198383614e05565b6000806fa2a8918ca85bafe22016d0b997e4df60600160ff1b03831115614d7b5750600090506003613ab4565b6040805160008082526020820180845289905260ff881692820192909252606081018690526080810185905260019060a0016020604051602081039080840390855afa158015614dcf573d6000803e3d6000fd5b5050604051601f1901519150506001600160a01b038116614df857600060019250925050613ab4565b9660009650945050505050565b815115614e155781518083602001fd5b8060405162461bcd60e51b8152600401610c109190614fe1565b803561ffff81168114614e4157600080fd5b919050565b60008083601f840112614e5857600080fd5b5081356001600160401b03811115614e6f57600080fd5b602083019150836020828501011115614b8b57600080fd5b80356001600160401b0381168114614e4157600080fd5b60008060008060008060808789031215614eb757600080fd5b614ec087614e2f565b955060208701356001600160401b0380821115614edc57600080fd5b614ee88a838b01614e46565b9097509550859150614efc60408a01614e87565b94506060890135915080821115614f1257600080fd5b50614f1f89828a01614e46565b979a9699509497509295939492505050565b6001600160a01b038116811461128057600080fd5b60008060408385031215614f5957600080fd5b614f6283614e2f565b91506020830135614f7281614f31565b809150509250929050565b6001600160a01b0391909116815260200190565b60005b83811015614fac578181015183820152602001614f94565b50506000910152565b60008151808452614fcd816020860160208601614f91565b601f01601f19169290920160200192915050565b602081526000610ca36020830184614fb5565b60006020828403121561500657600080fd5b610ca382614e2f565b6000806040838503121561502257600080fd5b823561502d81614f31565b946020939093013593505050565b60008060006060848603121561505057600080fd5b61505984614e2f565b9250602084013561506981614f31565b929592945050506040919091013590565b6000806040838503121561508d57600080fd5b61502d83614e2f565b600080600080600060a086880312156150ae57600080fd5b85356150b981614f31565b945060208601356150c981614f31565b935060408601356150d981614f31565b925060608601356150e981614f31565b915060808601356150f981614f31565b809150509295509295909350565b801515811461128057600080fd5b60006020828403121561512757600080fd5b8135610ca381615107565b60008060006060848603121561514757600080fd5b833561505981614f31565b60008060006040848603121561516757600080fd5b61517084614e2f565b925060208401356001600160401b0381111561518b57600080fd5b61519786828701614e46565b9497909650939450505050565b600080600080600060a086880312156151bc57600080fd5b6151c586614e2f565b945060208601356151d581614f31565b9350604086013592506060860135915060808601356150f981614f31565b634e487b7160e01b600052604160045260246000fd5b60405161016081016001600160401b038111828210171561522c5761522c6151f3565b60405290565b604051601f8201601f191681016001600160401b038111828210171561525a5761525a6151f3565b604052919050565b60006001600160401b0382111561527b5761527b6151f3565b50601f01601f191660200190565b600082601f83011261529a57600080fd5b81356152ad6152a882615262565b615232565b8181528460208386010111156152c257600080fd5b816020850160208301376000918101602001919091529392505050565b6000806000606084860312156152f457600080fd5b6152fd84614e2f565b925060208401356001600160401b0381111561531857600080fd5b61532486828701615289565b92505061533360408501614e87565b90509250925092565b60006020828403121561534e57600080fd5b5035919050565b6000806040838503121561536857600080fd5b823591506020830135614f7281614f31565b60006020828403121561538c57600080fd5b8135610ca381614f31565b600080604083850312156153aa57600080fd5b6153b383614e2f565b91506153c160208401614e2f565b90509250929050565b6000806000606084860312156153df57600080fd5b6153e884614e2f565b925060208401356153f881614f31565b9150604084013561540881614f31565b809150509250925092565b60008060008060008060c0878903121561542c57600080fd5b61543587614e2f565b955060208701356001600160401b038082111561545157600080fd5b61545d8a838b01615289565b9650604089013595506060890135915061547682614f31565b9093506080880135925060a0880135908082111561549357600080fd5b506154a089828a01615289565b9150509295509295509295565b6000806000806000608086880312156154c557600080fd5b6154ce86614e2f565b94506154dc60208701614e2f565b93506040860135925060608601356001600160401b038111156154fe57600080fd5b61550a88828901614e46565b969995985093965092949392505050565b6000806040838503121561552e57600080fd5b8235614f6281614f31565b60008060006060848603121561554e57600080fd5b61555784614e2f565b925061556560208501614e2f565b9150604084013590509250925092565b60008060006060848603121561558a57600080fd5b83359250602084013561506981614f31565b600080600080608085870312156155b257600080fd5b6155bb85614e2f565b93506155c960208601614e2f565b925060408501356155d981614f31565b9396929550929360600135925050565b634e487b7160e01b600052601160045260246000fd5b80820180821115610ca657610ca66155e9565b600181811c9082168061562657607f821691505b60208210810361564657634e487b7160e01b600052602260045260246000fd5b50919050565b602080825260029082015261563160f01b604082015260600190565b81810381811115610ca657610ca66155e9565b6001600160a01b03929092168252602082015260400190565b6000602082840312156156a657600080fd5b8151610ca381615107565b6000602082840312156156c357600080fd5b815160ff81168114610ca357600080fd5b8183823760009101908152919050565b81835281816020850137506000828201602090810191909152601f909101601f19169091010190565b61ffff84168152604060208201526000612a166040830184866156e4565b602080825260029082015261563360f01b604082015260600190565b600181815b80851115615782578160001904821115615768576157686155e9565b8085161561577557918102915b93841c939080029061574c565b509250929050565b60008261579957506001610ca6565b816157a657506000610ca6565b81600181146157bc57600281146157c6576157e2565b6001915050610ca6565b60ff8411156157d7576157d76155e9565b50506001821b610ca6565b5060208310610133831016604e8410600b8410161715615805575081810a610ca6565b61580f8383615747565b8060001904821115615823576158236155e9565b029392505050565b6000610ca360ff84168361578a565b60006020828403121561584c57600080fd5b5051919050565b634e487b7160e01b600052602160045260246000fd5b6005811061588757634e487b7160e01b600052602160045260246000fd5b9052565b604081016158998285615869565b91516001600160a01b031660209190910152919050565b8284823760609190911b6001600160601b0319169101908152601401919050565b601f82111561255857600081815260208120601f850160051c810160208610156158f85750805b601f850160051c820191505b81811015610c8f57828155600101615904565b600019600383901b1c191660019190911b1790565b81516001600160401b03811115615945576159456151f3565b615959816159538454615612565b846158d1565b602080601f83116001811461598857600084156159765750858301515b6159808582615917565b865550610c8f565b600085815260208120601f198616915b828110156159b757888601518255948401946001909101908401615998565b50858210156159d55787850151600019600388901b60f8161c191681555b5050505050600190811b01905550565b600082516159f7818460208701614f91565b9190910192915050565b805160208201516001600160601b03198082169291906014831015615a305780818460140360031b1b83161693505b505050919050565b600061ffff808816835280871660208401525084604083015260806060830152614b426080830184866156e4565b61ffff86168152608060208201526000615a846080830186886156e4565b6001600160401b0394909416604083015250606001529392505050565b6001600160401b03831115615ab857615ab86151f3565b615acc83615ac68354615612565b836158d1565b6000601f841160018114615afa5760008515615ae85750838201355b615af28682615917565b845550610dc0565b600083815260209020601f19861690835b82811015615b2b5786850135825560209485019460019092019101615b0b565b5086821015615b485760001960f88860031b161c19848701351681555b505060018560011b0183555050505050565b602080825260029082015261158d60f21b604082015260600190565b634e487b7160e01b600052603260045260246000fd5b600060018201615b9e57615b9e6155e9565b5060010190565b60608101615bb38285615869565b82516020830152602083015160408301529392505050565b600082601f830112615bdc57600080fd5b8151615bea6152a882615262565b818152846020838601011115615bff57600080fd5b612a19826020830160208701614f91565b600060208284031215615c2257600080fd5b81516001600160401b03811115615c3857600080fd5b612a1984828501615bcb565b61ffff85168152608060208201526000615c616080830186614fb5565b6001600160401b03851660408401528281036060840152614b428185614fb5565b8082028115828204841417610ca657610ca66155e9565b600082615cb657634e487b7160e01b600052601260045260246000fd5b500490565b6020808252602b908201527f496e697469616c697a61626c653a20636f6e7472616374206973206e6f74206960408201526a6e697469616c697a696e6760a81b606082015260800190565b6020808252600290820152612b1960f11b604082015260600190565b61ffff861681526001600160a01b038516602082015260a060408201819052600090615d5090830186614fb5565b84151560608401528281036080840152615d6a8185614fb5565b98975050505050505050565b60008060408385031215615d8957600080fd5b505080516020909101519092909150565b61ffff8716815260c060208201526000615db760c0830188614fb5565b8281036040840152615dc98188614fb5565b6001600160a01b0387811660608601528616608085015283810360a08501529050615df48185614fb5565b9998505050505050505050565b600060208284031215615e1357600080fd5b815160058110610ca357600080fd5b8051614e4181614f31565b60008060408385031215615e4057600080fd5b825160208401519092506001600160401b0380821115615e5f57600080fd5b908401906101608287031215615e7457600080fd5b615e7c615209565b615e8583615e22565b81526020830151602082015260408301516040820152606083015160608201526080830151608082015260a083015160a082015260c083015160c082015260e083015160e08201526101008084015181830152506101208084015181830152506101408084015183811115615ef957600080fd5b615f0589828701615bcb565b8284015250508093505050509250929050565b60008082840360a0811215615f2c57600080fd5b835192506080601f1982011215615f4257600080fd5b50604051608081016001600160401b0381118282101715615f6557615f656151f3565b6040526020840151615f7681614f31565b80825250604084015160208201526060840151604082015260808401516060820152809150509250929050565b61ffff8616815260a060208201526000615fc060a0830187614fb5565b6001600160401b03861660408401528281036060840152615fe18186614fb5565b90508281036080840152615d6a8185614fb5565b604081016160038285615869565b825160208301529392505050565b61ffff841681526001600160a01b0383166020820152606060408201819052600090612a1690830184614fb5565b6001600160a01b0386811682526020820186905261ffff851660408301528316606082015260a060808201819052600090614b4290830184614fb556feddf252ad1be2c89b69c2b068fc378daa952ba7f163c4a11628f55a4df523b3efa26469706673582212206549f5111c8b4933ee981fd89e6429d600a85e1e6561e852e54a9c037f8f009764736f6c63430008130033",
  "linkReferences": {},
  "deployedLinkReferences": {}
}