{
  "_format": "hh-sol-artifact-1",
  "contractName": "Vault",
  "sourceName": "contracts/Vault.sol",
  "abi": [
    {
      "inputs": [
        {
          "internalType": "uint256",
          "name": "amount",
          "type": "uint256"
        },
        {
          "internalType": "uint256",
          "name": "balance",
          "type": "uint256"
        }
      ],
      "name": "InsufficientFunds",
      "type": "error"
    },
    {
      "anonymous": false,
      "inputs": [
        {
          "indexed": true,
          "internalType": "address",
          "name": "owner",
          "type": "address"
        },
        {
          "indexed": true,
          "internalType": "address",
          "name": "spender",
          "type": "address"
        },
        {
          "indexed": false,
          "internalType": "uint256",
          "name": "value",
          "type": "uint256"
        }
      ],
      "name": "Approval",
      "type": "event"
    },
    {
      "anonymous": false,
      "inputs": [
        {
          "indexed": false,
          "internalType": "uint256",
          "name": "epochId",
          "type": "uint256"
        },
        {
          "indexed": false,
          "internalType": "uint256",
          "name": "requestCount",
          "type": "uint256"
        }
      ],
      "name": "FulfilledWithdrawEpoch",
      "type": "event"
    },
    {
      "anonymous": false,
      "inputs": [
        {
          "indexed": false,
          "internalType": "uint8",
          "name": "version",
          "type": "uint8"
        }
      ],
      "name": "Initialized",
      "type": "event"
    },
    {
      "anonymous": false,
      "inputs": [
        {
          "indexed": false,
          "internalType": "uint16",
          "name": "_srcChainId",
          "type": "uint16"
        },
        {
          "indexed": false,
          "internalType": "bytes",
          "name": "_srcAddress",
          "type": "bytes"
        },
        {
          "indexed": false,
          "internalType": "uint64",
          "name": "_nonce",
          "type": "uint64"
        },
        {
          "indexed": false,
          "internalType": "bytes",
          "name": "_payload",
          "type": "bytes"
        },
        {
          "indexed": false,
          "internalType": "bytes",
          "name": "_reason",
          "type": "bytes"
        }
      ],
      "name": "MessageFailed",
      "type": "event"
    },
    {
      "anonymous": false,
      "inputs": [
        {
          "indexed": true,
          "internalType": "address",
          "name": "previousOwner",
          "type": "address"
        },
        {
          "indexed": true,
          "internalType": "address",
          "name": "newOwner",
          "type": "address"
        }
      ],
      "name": "OwnershipTransferred",
      "type": "event"
    },
    {
      "anonymous": false,
      "inputs": [
        {
          "indexed": false,
          "internalType": "uint16",
          "name": "_srcChainId",
          "type": "uint16"
        },
        {
          "indexed": false,
          "internalType": "bytes",
          "name": "_srcAddress",
          "type": "bytes"
        },
        {
          "indexed": false,
          "internalType": "uint64",
          "name": "_nonce",
          "type": "uint64"
        },
        {
          "indexed": false,
          "internalType": "bytes32",
          "name": "_payloadHash",
          "type": "bytes32"
        }
      ],
      "name": "RetryMessageSuccess",
      "type": "event"
    },
    {
      "anonymous": false,
      "inputs": [
        {
          "indexed": false,
          "internalType": "uint16",
          "name": "_dstChainId",
          "type": "uint16"
        },
        {
          "indexed": false,
          "internalType": "uint16",
          "name": "_type",
          "type": "uint16"
        },
        {
          "indexed": false,
          "internalType": "uint256",
          "name": "_minDstGas",
          "type": "uint256"
        }
      ],
      "name": "SetMinDstGas",
      "type": "event"
    },
    {
      "anonymous": false,
      "inputs": [
        {
          "indexed": false,
          "internalType": "address",
          "name": "precrime",
          "type": "address"
        }
      ],
      "name": "SetPrecrime",
      "type": "event"
    },
    {
      "anonymous": false,
      "inputs": [
        {
          "indexed": false,
          "internalType": "uint16",
          "name": "_remoteChainId",
          "type": "uint16"
        },
        {
          "indexed": false,
          "internalType": "bytes",
          "name": "_path",
          "type": "bytes"
        }
      ],
      "name": "SetTrustedRemote",
      "type": "event"
    },
    {
      "anonymous": false,
      "inputs": [
        {
          "indexed": false,
          "internalType": "uint16",
          "name": "_remoteChainId",
          "type": "uint16"
        },
        {
          "indexed": false,
          "internalType": "bytes",
          "name": "_remoteAddress",
          "type": "bytes"
        }
      ],
      "name": "SetTrustedRemoteAddress",
      "type": "event"
    },
    {
      "anonymous": false,
      "inputs": [
        {
          "indexed": true,
          "internalType": "address",
          "name": "token",
          "type": "address"
        },
        {
          "indexed": false,
          "internalType": "uint256",
          "name": "amount",
          "type": "uint256"
        },
        {
          "indexed": false,
          "internalType": "address",
          "name": "sender",
          "type": "address"
        }
      ],
      "name": "SgReceived",
      "type": "event"
    },
    {
      "anonymous": false,
      "inputs": [
        {
          "indexed": false,
          "internalType": "uint16",
          "name": "chainId",
          "type": "uint16"
        },
        {
          "indexed": false,
          "internalType": "address",
          "name": "strategy",
          "type": "address"
        },
        {
          "indexed": false,
          "internalType": "uint256",
          "name": "gain",
          "type": "uint256"
        },
        {
          "indexed": false,
          "internalType": "uint256",
          "name": "loss",
          "type": "uint256"
        },
        {
          "indexed": false,
          "internalType": "uint256",
          "name": "debtPaid",
          "type": "uint256"
        },
        {
          "indexed": false,
          "internalType": "uint256",
          "name": "totalGain",
          "type": "uint256"
        },
        {
          "indexed": false,
          "internalType": "uint256",
          "name": "totalLoss",
          "type": "uint256"
        },
        {
          "indexed": false,
          "internalType": "uint256",
          "name": "totalDebt",
          "type": "uint256"
        },
        {
          "indexed": false,
          "internalType": "uint256",
          "name": "debtAdded",
          "type": "uint256"
        },
        {
          "indexed": false,
          "internalType": "uint256",
          "name": "debtRatio",
          "type": "uint256"
        },
        {
          "indexed": false,
          "internalType": "uint256",
          "name": "tokens",
          "type": "uint256"
        }
      ],
      "name": "StrategyReported",
      "type": "event"
    },
    {
      "anonymous": false,
      "inputs": [
        {
          "indexed": true,
          "internalType": "uint16",
          "name": "chainId",
          "type": "uint16"
        },
        {
          "indexed": true,
          "internalType": "address",
          "name": "strategy",
          "type": "address"
        },
        {
          "indexed": false,
          "internalType": "uint256",
          "name": "amount",
          "type": "uint256"
        },
        {
          "indexed": false,
          "internalType": "uint256",
          "name": "loss",
          "type": "uint256"
        },
        {
          "indexed": false,
          "internalType": "uint256",
          "name": "id",
          "type": "uint256"
        }
      ],
      "name": "StrategyWithdrawnSome",
      "type": "event"
    },
    {
      "anonymous": false,
      "inputs": [
        {
          "indexed": true,
          "internalType": "address",
          "name": "from",
          "type": "address"
        },
        {
          "indexed": true,
          "internalType": "address",
          "name": "to",
          "type": "address"
        },
        {
          "indexed": false,
          "internalType": "uint256",
          "name": "value",
          "type": "uint256"
        }
      ],
      "name": "Transfer",
      "type": "event"
    },
    {
      "inputs": [],
      "name": "DEFAULT_PAYLOAD_SIZE_LIMIT",
      "outputs": [
        {
          "internalType": "uint256",
          "name": "",
          "type": "uint256"
        }
      ],
      "stateMutability": "view",
      "type": "function"
    },
    {
      "inputs": [
        {
          "internalType": "uint16",
          "name": "_chainId",
          "type": "uint16"
        },
        {
          "internalType": "address",
          "name": "_strategy",
          "type": "address"
        },
        {
          "internalType": "uint256",
          "name": "_debtRatio",
          "type": "uint256"
        },
        {
          "internalType": "uint256",
          "name": "_performanceFee",
          "type": "uint256"
        },
        {
          "internalType": "address",
          "name": "_strategist",
          "type": "address"
        }
      ],
      "name": "addStrategy",
      "outputs": [],
      "stateMutability": "nonpayable",
      "type": "function"
    },
    {
      "inputs": [
        {
          "internalType": "address",
          "name": "owner",
          "type": "address"
        },
        {
          "internalType": "address",
          "name": "spender",
          "type": "address"
        }
      ],
      "name": "allowance",
      "outputs": [
        {
          "internalType": "uint256",
          "name": "",
          "type": "uint256"
        }
      ],
      "stateMutability": "view",
      "type": "function"
    },
    {
      "inputs": [
        {
          "internalType": "address",
          "name": "spender",
          "type": "address"
        },
        {
          "internalType": "uint256",
          "name": "amount",
          "type": "uint256"
        }
      ],
      "name": "approve",
      "outputs": [
        {
          "internalType": "bool",
          "name": "",
          "type": "bool"
        }
      ],
      "stateMutability": "nonpayable",
      "type": "function"
    },
    {
      "inputs": [
        {
          "internalType": "address",
          "name": "account",
          "type": "address"
        }
      ],
      "name": "balanceOf",
      "outputs": [
        {
          "internalType": "uint256",
          "name": "",
          "type": "uint256"
        }
      ],
      "stateMutability": "view",
      "type": "function"
    },
    {
      "inputs": [
        {
          "internalType": "uint16",
          "name": "_chainId",
          "type": "uint16"
        },
        {
          "internalType": "address",
          "name": "_strategy",
          "type": "address"
        }
      ],
      "name": "creditAvailable",
      "outputs": [
        {
          "internalType": "uint256",
          "name": "",
          "type": "uint256"
        }
      ],
      "stateMutability": "view",
      "type": "function"
    },
    {
      "inputs": [
        {
          "internalType": "uint16",
          "name": "_chainId",
          "type": "uint16"
        },
        {
          "internalType": "address",
          "name": "_strategy",
          "type": "address"
        }
      ],
      "name": "debtOutstanding",
      "outputs": [
        {
          "internalType": "uint256",
          "name": "",
          "type": "uint256"
        }
      ],
      "stateMutability": "view",
      "type": "function"
    },
    {
      "inputs": [],
      "name": "decimals",
      "outputs": [
        {
          "internalType": "uint8",
          "name": "",
          "type": "uint8"
        }
      ],
      "stateMutability": "view",
      "type": "function"
    },
    {
      "inputs": [
        {
          "internalType": "address",
          "name": "spender",
          "type": "address"
        },
        {
          "internalType": "uint256",
          "name": "subtractedValue",
          "type": "uint256"
        }
      ],
      "name": "decreaseAllowance",
      "outputs": [
        {
          "internalType": "bool",
          "name": "",
          "type": "bool"
        }
      ],
      "stateMutability": "nonpayable",
      "type": "function"
    },
    {
      "inputs": [
        {
          "internalType": "uint256",
          "name": "_amount",
          "type": "uint256"
        },
        {
          "internalType": "address",
          "name": "_recipient",
          "type": "address"
        }
      ],
      "name": "deposit",
      "outputs": [
        {
          "internalType": "uint256",
          "name": "",
          "type": "uint256"
        }
      ],
      "stateMutability": "nonpayable",
      "type": "function"
    },
    {
      "inputs": [],
      "name": "emergencyShutdown",
      "outputs": [
        {
          "internalType": "bool",
          "name": "",
          "type": "bool"
        }
      ],
      "stateMutability": "view",
      "type": "function"
    },
    {
      "inputs": [
        {
          "internalType": "uint16",
          "name": "",
          "type": "uint16"
        },
        {
          "internalType": "bytes",
          "name": "",
          "type": "bytes"
        },
        {
          "internalType": "uint64",
          "name": "",
          "type": "uint64"
        }
      ],
      "name": "failedMessages",
      "outputs": [
        {
          "internalType": "bytes32",
          "name": "",
          "type": "bytes32"
        }
      ],
      "stateMutability": "view",
      "type": "function"
    },
    {
      "inputs": [
        {
          "internalType": "uint16",
          "name": "_srcChainId",
          "type": "uint16"
        },
        {
          "internalType": "bytes",
          "name": "_srcAddress",
          "type": "bytes"
        }
      ],
      "name": "forceResumeReceive",
      "outputs": [],
      "stateMutability": "nonpayable",
      "type": "function"
    },
    {
      "inputs": [
        {
          "internalType": "uint16",
          "name": "_version",
          "type": "uint16"
        },
        {
          "internalType": "uint16",
          "name": "_chainId",
          "type": "uint16"
        },
        {
          "internalType": "address",
          "name": "",
          "type": "address"
        },
        {
          "internalType": "uint256",
          "name": "_configType",
          "type": "uint256"
        }
      ],
      "name": "getConfig",
      "outputs": [
        {
          "internalType": "bytes",
          "name": "",
          "type": "bytes"
        }
      ],
      "stateMutability": "view",
      "type": "function"
    },
    {
      "inputs": [
        {
          "internalType": "uint16",
          "name": "_remoteChainId",
          "type": "uint16"
        }
      ],
      "name": "getTrustedRemoteAddress",
      "outputs": [
        {
          "internalType": "bytes",
          "name": "",
          "type": "bytes"
        }
      ],
      "stateMutability": "view",
      "type": "function"
    },
    {
      "inputs": [],
      "name": "governance",
      "outputs": [
        {
          "internalType": "address",
          "name": "",
          "type": "address"
        }
      ],
      "stateMutability": "view",
      "type": "function"
    },
    {
      "inputs": [],
      "name": "handleWithdrawals",
      "outputs": [],
      "stateMutability": "nonpayable",
      "type": "function"
    },
    {
      "inputs": [
        {
          "internalType": "address",
          "name": "spender",
          "type": "address"
        },
        {
          "internalType": "uint256",
          "name": "addedValue",
          "type": "uint256"
        }
      ],
      "name": "increaseAllowance",
      "outputs": [
        {
          "internalType": "bool",
          "name": "",
          "type": "bool"
        }
      ],
      "stateMutability": "nonpayable",
      "type": "function"
    },
    {
      "inputs": [
        {
          "internalType": "address",
          "name": "_governance",
          "type": "address"
        },
        {
          "internalType": "address",
          "name": "_lzEndpoint",
          "type": "address"
        },
        {
          "internalType": "contract IERC20",
          "name": "_token",
          "type": "address"
        },
        {
          "internalType": "address",
          "name": "_sgBridge",
          "type": "address"
        },
        {
          "internalType": "address",
          "name": "_sgRouter",
          "type": "address"
        }
      ],
      "name": "initialize",
      "outputs": [],
      "stateMutability": "nonpayable",
      "type": "function"
    },
    {
      "inputs": [
        {
          "internalType": "uint16",
          "name": "_srcChainId",
          "type": "uint16"
        },
        {
          "internalType": "bytes",
          "name": "_srcAddress",
          "type": "bytes"
        }
      ],
      "name": "isTrustedRemote",
      "outputs": [
        {
          "internalType": "bool",
          "name": "",
          "type": "bool"
        }
      ],
      "stateMutability": "view",
      "type": "function"
    },
    {
      "inputs": [],
      "name": "lzEndpoint",
      "outputs": [
        {
          "internalType": "contract ILayerZeroEndpointUpgradeable",
          "name": "",
          "type": "address"
        }
      ],
      "stateMutability": "view",
      "type": "function"
    },
    {
      "inputs": [
        {
          "internalType": "uint16",
          "name": "_srcChainId",
          "type": "uint16"
        },
        {
          "internalType": "bytes",
          "name": "_srcAddress",
          "type": "bytes"
        },
        {
          "internalType": "uint64",
          "name": "_nonce",
          "type": "uint64"
        },
        {
          "internalType": "bytes",
          "name": "_payload",
          "type": "bytes"
        }
      ],
      "name": "lzReceive",
      "outputs": [],
      "stateMutability": "nonpayable",
      "type": "function"
    },
    {
      "inputs": [
        {
          "internalType": "uint16",
          "name": "_chainId",
          "type": "uint16"
        },
        {
          "internalType": "address",
          "name": "_oldStrategy",
          "type": "address"
        },
        {
          "internalType": "address",
          "name": "_newStrategy",
          "type": "address"
        }
      ],
      "name": "migrateStrategy",
      "outputs": [],
      "stateMutability": "nonpayable",
      "type": "function"
    },
    {
      "inputs": [
        {
          "internalType": "uint16",
          "name": "",
          "type": "uint16"
        },
        {
          "internalType": "uint16",
          "name": "",
          "type": "uint16"
        }
      ],
      "name": "minDstGasLookup",
      "outputs": [
        {
          "internalType": "uint256",
          "name": "",
          "type": "uint256"
        }
      ],
      "stateMutability": "view",
      "type": "function"
    },
    {
      "inputs": [],
      "name": "name",
      "outputs": [
        {
          "internalType": "string",
          "name": "",
          "type": "string"
        }
      ],
      "stateMutability": "view",
      "type": "function"
    },
    {
      "inputs": [
        {
          "internalType": "uint16",
          "name": "_srcChainId",
          "type": "uint16"
        },
        {
          "internalType": "bytes",
          "name": "_srcAddress",
          "type": "bytes"
        },
        {
          "internalType": "uint64",
          "name": "_nonce",
          "type": "uint64"
        },
        {
          "internalType": "bytes",
          "name": "_payload",
          "type": "bytes"
        }
      ],
      "name": "nonblockingLzReceive",
      "outputs": [],
      "stateMutability": "nonpayable",
      "type": "function"
    },
    {
      "inputs": [],
      "name": "owner",
      "outputs": [
        {
          "internalType": "address",
          "name": "",
          "type": "address"
        }
      ],
      "stateMutability": "view",
      "type": "function"
    },
    {
      "inputs": [
        {
          "internalType": "uint16",
          "name": "",
          "type": "uint16"
        }
      ],
      "name": "payloadSizeLimitLookup",
      "outputs": [
        {
          "internalType": "uint256",
          "name": "",
          "type": "uint256"
        }
      ],
      "stateMutability": "view",
      "type": "function"
    },
    {
      "inputs": [],
      "name": "precrime",
      "outputs": [
        {
          "internalType": "address",
          "name": "",
          "type": "address"
        }
      ],
      "stateMutability": "view",
      "type": "function"
    },
    {
      "inputs": [],
      "name": "pricePerShare",
      "outputs": [
        {
          "internalType": "uint256",
          "name": "",
          "type": "uint256"
        }
      ],
      "stateMutability": "view",
      "type": "function"
    },
    {
      "inputs": [],
      "name": "renounceOwnership",
      "outputs": [],
      "stateMutability": "nonpayable",
      "type": "function"
    },
    {
      "inputs": [
        {
          "internalType": "uint16",
          "name": "_srcChainId",
          "type": "uint16"
        },
        {
          "internalType": "bytes",
          "name": "_srcAddress",
          "type": "bytes"
        },
        {
          "internalType": "uint64",
          "name": "_nonce",
          "type": "uint64"
        },
        {
          "internalType": "bytes",
          "name": "_payload",
          "type": "bytes"
        }
      ],
      "name": "retryMessage",
      "outputs": [],
      "stateMutability": "payable",
      "type": "function"
    },
    {
      "inputs": [],
      "name": "revokeFunds",
      "outputs": [],
      "stateMutability": "nonpayable",
      "type": "function"
    },
    {
      "inputs": [
        {
          "internalType": "uint16",
          "name": "_chainId",
          "type": "uint16"
        },
        {
          "internalType": "address",
          "name": "_strategy",
          "type": "address"
        }
      ],
      "name": "revokeStrategy",
      "outputs": [],
      "stateMutability": "nonpayable",
      "type": "function"
    },
    {
      "inputs": [
        {
          "internalType": "uint16",
          "name": "_version",
          "type": "uint16"
        },
        {
          "internalType": "uint16",
          "name": "_chainId",
          "type": "uint16"
        },
        {
          "internalType": "uint256",
          "name": "_configType",
          "type": "uint256"
        },
        {
          "internalType": "bytes",
          "name": "_config",
          "type": "bytes"
        }
      ],
      "name": "setConfig",
      "outputs": [],
      "stateMutability": "nonpayable",
      "type": "function"
    },
    {
      "inputs": [
        {
          "internalType": "bool",
          "name": "_emergencyShutdown",
          "type": "bool"
        }
      ],
      "name": "setEmergencyShutdown",
      "outputs": [],
      "stateMutability": "nonpayable",
      "type": "function"
    },
    {
      "inputs": [
        {
          "internalType": "address",
          "name": "_newGovernance",
          "type": "address"
        }
      ],
      "name": "setGovernance",
      "outputs": [],
      "stateMutability": "nonpayable",
      "type": "function"
    },
    {
      "inputs": [
        {
          "internalType": "uint16",
          "name": "_dstChainId",
          "type": "uint16"
        },
        {
          "internalType": "uint16",
          "name": "_packetType",
          "type": "uint16"
        },
        {
          "internalType": "uint256",
          "name": "_minGas",
          "type": "uint256"
        }
      ],
      "name": "setMinDstGas",
      "outputs": [],
      "stateMutability": "nonpayable",
      "type": "function"
    },
    {
      "inputs": [
        {
          "internalType": "uint16",
          "name": "_dstChainId",
          "type": "uint16"
        },
        {
          "internalType": "uint256",
          "name": "_size",
          "type": "uint256"
        }
      ],
      "name": "setPayloadSizeLimit",
      "outputs": [],
      "stateMutability": "nonpayable",
      "type": "function"
    },
    {
      "inputs": [
        {
          "internalType": "address",
          "name": "_precrime",
          "type": "address"
        }
      ],
      "name": "setPrecrime",
      "outputs": [],
      "stateMutability": "nonpayable",
      "type": "function"
    },
    {
      "inputs": [
        {
          "internalType": "uint16",
          "name": "_version",
          "type": "uint16"
        }
      ],
      "name": "setReceiveVersion",
      "outputs": [],
      "stateMutability": "nonpayable",
      "type": "function"
    },
    {
      "inputs": [
        {
          "internalType": "uint16",
          "name": "_version",
          "type": "uint16"
        }
      ],
      "name": "setSendVersion",
      "outputs": [],
      "stateMutability": "nonpayable",
      "type": "function"
    },
    {
      "inputs": [
        {
          "internalType": "address",
          "name": "_newSgBridge",
          "type": "address"
        }
      ],
      "name": "setSgBridge",
      "outputs": [],
      "stateMutability": "nonpayable",
      "type": "function"
    },
    {
      "inputs": [
        {
          "internalType": "uint16",
          "name": "_chainId",
          "type": "uint16"
        },
        {
          "internalType": "address",
          "name": "_strategy",
          "type": "address"
        },
        {
          "internalType": "address",
          "name": "_newStrategist",
          "type": "address"
        }
      ],
      "name": "setStrategist",
      "outputs": [],
      "stateMutability": "nonpayable",
      "type": "function"
    },
    {
      "inputs": [
        {
          "internalType": "uint16",
          "name": "_srcChainId",
          "type": "uint16"
        },
        {
          "internalType": "bytes",
          "name": "_path",
          "type": "bytes"
        }
      ],
      "name": "setTrustedRemote",
      "outputs": [],
      "stateMutability": "nonpayable",
      "type": "function"
    },
    {
      "inputs": [
        {
          "internalType": "uint16",
          "name": "_remoteChainId",
          "type": "uint16"
        },
        {
          "internalType": "bytes",
          "name": "_remoteAddress",
          "type": "bytes"
        }
      ],
      "name": "setTrustedRemoteAddress",
      "outputs": [],
      "stateMutability": "nonpayable",
      "type": "function"
    },
    {
      "inputs": [],
      "name": "sgBridge",
      "outputs": [
        {
          "internalType": "contract ISgBridge",
          "name": "",
          "type": "address"
        }
      ],
      "stateMutability": "view",
      "type": "function"
    },
    {
      "inputs": [
        {
          "internalType": "uint16",
          "name": "_srcChainId",
          "type": "uint16"
        },
        {
          "internalType": "bytes",
          "name": "_srcAddress",
          "type": "bytes"
        },
        {
          "internalType": "uint256",
          "name": "",
          "type": "uint256"
        },
        {
          "internalType": "address",
          "name": "_token",
          "type": "address"
        },
        {
          "internalType": "uint256",
          "name": "_amountLD",
          "type": "uint256"
        },
        {
          "internalType": "bytes",
          "name": "_payload",
          "type": "bytes"
        }
      ],
      "name": "sgReceive",
      "outputs": [],
      "stateMutability": "nonpayable",
      "type": "function"
    },
    {
      "inputs": [],
      "name": "sgRouter",
      "outputs": [
        {
          "internalType": "address",
          "name": "",
          "type": "address"
        }
      ],
      "stateMutability": "view",
      "type": "function"
    },
    {
      "inputs": [
        {
          "internalType": "uint16",
          "name": "",
          "type": "uint16"
        },
        {
          "internalType": "address",
          "name": "",
          "type": "address"
        }
      ],
      "name": "strategies",
      "outputs": [
        {
          "internalType": "uint256",
          "name": "activation",
          "type": "uint256"
        },
        {
          "internalType": "uint256",
          "name": "debtRatio",
          "type": "uint256"
        },
        {
          "internalType": "uint256",
          "name": "totalDebt",
          "type": "uint256"
        },
        {
          "internalType": "uint256",
          "name": "totalGain",
          "type": "uint256"
        },
        {
          "internalType": "uint256",
          "name": "totalLoss",
          "type": "uint256"
        },
        {
          "internalType": "uint256",
          "name": "lastReport",
          "type": "uint256"
        },
        {
          "internalType": "uint256",
          "name": "performanceFee",
          "type": "uint256"
        },
        {
          "internalType": "address",
          "name": "strategist",
          "type": "address"
        }
      ],
      "stateMutability": "view",
      "type": "function"
    },
    {
      "inputs": [],
      "name": "symbol",
      "outputs": [
        {
          "internalType": "string",
          "name": "",
          "type": "string"
        }
      ],
      "stateMutability": "view",
      "type": "function"
    },
    {
      "inputs": [],
      "name": "token",
      "outputs": [
        {
          "internalType": "contract IERC20",
          "name": "",
          "type": "address"
        }
      ],
      "stateMutability": "view",
      "type": "function"
    },
    {
      "inputs": [],
      "name": "totalAssets",
      "outputs": [
        {
          "internalType": "uint256",
          "name": "",
          "type": "uint256"
        }
      ],
      "stateMutability": "view",
      "type": "function"
    },
    {
      "inputs": [],
      "name": "totalDebt",
      "outputs": [
        {
          "internalType": "uint256",
          "name": "",
          "type": "uint256"
        }
      ],
      "stateMutability": "view",
      "type": "function"
    },
    {
      "inputs": [],
      "name": "totalDebtRatio",
      "outputs": [
        {
          "internalType": "uint256",
          "name": "",
          "type": "uint256"
        }
      ],
      "stateMutability": "view",
      "type": "function"
    },
    {
      "inputs": [],
      "name": "totalIdle",
      "outputs": [
        {
          "internalType": "uint256",
          "name": "",
          "type": "uint256"
        }
      ],
      "stateMutability": "view",
      "type": "function"
    },
    {
      "inputs": [],
      "name": "totalSupply",
      "outputs": [
        {
          "internalType": "uint256",
          "name": "",
          "type": "uint256"
        }
      ],
      "stateMutability": "view",
      "type": "function"
    },
    {
      "inputs": [
        {
          "internalType": "address",
          "name": "to",
          "type": "address"
        },
        {
          "internalType": "uint256",
          "name": "amount",
          "type": "uint256"
        }
      ],
      "name": "transfer",
      "outputs": [
        {
          "internalType": "bool",
          "name": "",
          "type": "bool"
        }
      ],
      "stateMutability": "nonpayable",
      "type": "function"
    },
    {
      "inputs": [
        {
          "internalType": "address",
          "name": "from",
          "type": "address"
        },
        {
          "internalType": "address",
          "name": "to",
          "type": "address"
        },
        {
          "internalType": "uint256",
          "name": "amount",
          "type": "uint256"
        }
      ],
      "name": "transferFrom",
      "outputs": [
        {
          "internalType": "bool",
          "name": "",
          "type": "bool"
        }
      ],
      "stateMutability": "nonpayable",
      "type": "function"
    },
    {
      "inputs": [
        {
          "internalType": "address",
          "name": "newOwner",
          "type": "address"
        }
      ],
      "name": "transferOwnership",
      "outputs": [],
      "stateMutability": "nonpayable",
      "type": "function"
    },
    {
      "inputs": [
        {
          "internalType": "uint16",
          "name": "",
          "type": "uint16"
        }
      ],
      "name": "trustedRemoteLookup",
      "outputs": [
        {
          "internalType": "bytes",
          "name": "",
          "type": "bytes"
        }
      ],
      "stateMutability": "view",
      "type": "function"
    },
    {
      "inputs": [
        {
          "internalType": "uint16",
          "name": "_chainId",
          "type": "uint16"
        },
        {
          "internalType": "address",
          "name": "_strategy",
          "type": "address"
        },
        {
          "internalType": "uint256",
          "name": "_debtRatio",
          "type": "uint256"
        }
      ],
      "name": "updateStrategyDebtRatio",
      "outputs": [],
      "stateMutability": "nonpayable",
      "type": "function"
    },
    {
      "inputs": [
        {
          "internalType": "uint256",
          "name": "_maxShares",
          "type": "uint256"
        },
        {
          "internalType": "address",
          "name": "_recipient",
          "type": "address"
        },
        {
          "internalType": "uint256",
          "name": "_maxLoss",
          "type": "uint256"
        }
      ],
      "name": "withdraw",
      "outputs": [],
      "stateMutability": "nonpayable",
      "type": "function"
    },
    {
      "inputs": [],
      "name": "withdrawEpoch",
      "outputs": [
        {
          "internalType": "uint256",
          "name": "",
          "type": "uint256"
        }
      ],
      "stateMutability": "view",
      "type": "function"
    },
    {
      "inputs": [
        {
          "internalType": "uint256",
          "name": "",
          "type": "uint256"
        }
      ],
      "name": "withdrawEpochs",
      "outputs": [
        {
          "internalType": "bool",
          "name": "inProgress",
          "type": "bool"
        },
        {
          "internalType": "uint256",
          "name": "approveExpected",
          "type": "uint256"
        },
        {
          "internalType": "uint256",
          "name": "approveActual",
          "type": "uint256"
        }
      ],
      "stateMutability": "view",
      "type": "function"
    },
    {
      "stateMutability": "payable",
      "type": "receive"
    }
  ],
  "bytecode": "0x608060405234801561001057600080fd5b50615fc680620000216000396000f3fe6080604052600436106102f15760003560e01c8063715018a61161018d578063715018a6146108335780637533d788146108485780638cfd8f5c146108685780638da5cb5b146108a0578063950c8a74146108b557806395d89b41146108d557806399530b06146108ea5780639aa7df94146108ff5780639f38369a14610914578063a032a71214610934578063a457c2d714610954578063a6c3d16514610974578063a9059cbb14610994578063ab033ea9146109b4578063ab73ce46146109d4578063ab8236f3146109eb578063b353aaa714610a0b578063baf3292d14610a2b578063c446183414610a4b578063cbed8b9c14610a61578063cfbcc64414610a81578063d1deba1f14610aa1578063dd62ed3e14610ab4578063dde4f08e14610ad4578063df2a5b3b14610af4578063e63697c814610b14578063e7fda06114610b34578063eb8d72b714610b54578063ef34253c14610b74578063f2fde38b14610b89578063f5ecbdbc14610ba9578063fc0c546a14610bc9578063fc7b9c1814610be957600080fd5b80621d3567146102fd57806301dc2eb11461031f57806301e1d114146103525780630517cb7614610367578063057724d81461039557806306fdde03146103b557806307e0db17146103d7578063095ea7b3146103f75780630a97c254146104275780630df374831461044757806310ddb137146104675780631459457a1461048757806314c64402146104a757806318160ddd146104c757806323b872dd146104dc5780632d606843146104fc5780632df9eab914610511578063313ce567146105275780633403c2fc1461054e57806337fded911461056957806339509351146105895780633d8b38f6146105a95780633f1f4fa4146105c95780634067cb9e146105f657806342d65a8d146106ad57806352106a49146106cd5780635aa6e675146106ed5780635b8c41e61461070d5780635fe1a0271461075c57806366ad5c8a146107bd5780636e553f65146107dd57806370a08231146107fd57600080fd5b366102f857005b600080fd5b34801561030957600080fd5b5061031d610318366004614d92565b610bff565b005b34801561032b57600080fd5b5061033f61033a366004614e3a565b610cc2565b6040519081526020015b60405180910390f35b34801561035e57600080fd5b5061033f610cd7565b34801561037357600080fd5b5061010854610388906001600160a01b031681565b6040516103499190614e71565b3480156103a157600080fd5b5061031d6103b0366004614e85565b610cf3565b3480156103c157600080fd5b506103ca610dda565b6040516103499190614ef2565b3480156103e357600080fd5b5061031d6103f2366004614f05565b610e6c565b34801561040357600080fd5b50610417610412366004614f20565b610ed9565b6040519015158152602001610349565b34801561043357600080fd5b5061031d610442366004614f4c565b610ef1565b34801561045357600080fd5b5061031d610462366004614f8b565b611011565b34801561047357600080fd5b5061031d610482366004614f05565b611030565b34801561049357600080fd5b5061031d6104a2366004614fa7565b61106c565b3480156104b357600080fd5b5061031d6104c2366004615026565b61120f565b3480156104d357600080fd5b5060355461033f565b3480156104e857600080fd5b506104176104f7366004615043565b611270565b34801561050857600080fd5b5061031d611294565b34801561051d57600080fd5b5061033f60fe5481565b34801561053357600080fd5b5061053c611310565b60405160ff9091168152602001610349565b34801561055a57600080fd5b50610100546104179060ff1681565b34801561057557600080fd5b5060fd54610388906001600160a01b031681565b34801561059557600080fd5b506104176105a4366004614f20565b61137e565b3480156105b557600080fd5b506104176105c4366004615063565b6113a0565b3480156105d557600080fd5b5061033f6105e4366004614f05565b609a6020526000908152604090205481565b34801561060257600080fd5b50610669610611366004614e3a565b610101602090815260009283526040808420909152908252902080546001820154600283015460038401546004850154600586015460068701546007909701549596949593949293919290916001600160a01b031688565b604080519889526020890197909752958701949094526060860192909252608085015260a084015260c08301526001600160a01b031660e082015261010001610349565b3480156106b957600080fd5b5061031d6106c8366004615063565b61146c565b3480156106d957600080fd5b5061031d6106e83660046150b5565b6114df565b3480156106f957600080fd5b5060fb54610388906001600160a01b031681565b34801561071957600080fd5b5061033f6107283660046151f0565b60c9602090815260009384526040808520845180860184018051928152908401958401959095209452929052825290205481565b34801561076857600080fd5b506107a061077736600461524d565b6101066020526000908152604090206001810154600282015460039092015460ff909116919083565b604080519315158452602084019290925290820152606001610349565b3480156107c957600080fd5b5061031d6107d8366004614d92565b611716565b3480156107e957600080fd5b5061033f6107f8366004615266565b6117ea565b34801561080957600080fd5b5061033f610818366004614e85565b6001600160a01b031660009081526033602052604090205490565b34801561083f57600080fd5b5061031d6117f6565b34801561085457600080fd5b506103ca610863366004614f05565b61180a565b34801561087457600080fd5b5061033f61088336600461528b565b609960209081526000928352604080842090915290825290205481565b3480156108ac57600080fd5b506103886118a4565b3480156108c157600080fd5b50609b54610388906001600160a01b031681565b3480156108e157600080fd5b506103ca6118b3565b3480156108f657600080fd5b5061033f6118c2565b34801561090b57600080fd5b5061033f6118df565b34801561092057600080fd5b506103ca61092f366004614f05565b611951565b34801561094057600080fd5b5061031d61094f3660046152be565b611a67565b34801561096057600080fd5b5061041761096f366004614f20565b611da8565b34801561098057600080fd5b5061031d61098f366004615063565b611e23565b3480156109a057600080fd5b506104176109af366004614f20565b611eac565b3480156109c057600080fd5b5061031d6109cf366004614e85565b611eba565b3480156109e057600080fd5b5061033f6101025481565b3480156109f757600080fd5b5061031d610a06366004615307565b611f29565b348015610a1757600080fd5b50609754610388906001600160a01b031681565b348015610a3757600080fd5b5061031d610a46366004614e85565b612077565b348015610a5757600080fd5b5061033f61271081565b348015610a6d57600080fd5b5061031d610a7c3660046153a1565b6120d5565b348015610a8d57600080fd5b5061031d610a9c366004614e3a565b61214e565b61031d610aaf366004614d92565b6121a9565b348015610ac057600080fd5b5061033f610acf36600461540f565b6123bf565b348015610ae057600080fd5b5061031d610aef3660046152be565b6123ea565b348015610b0057600080fd5b5061031d610b0f36600461542d565b61247a565b348015610b2057600080fd5b5061031d610b2f366004615469565b61252c565b348015610b4057600080fd5b5061033f610b4f366004614e3a565b61253c565b348015610b6057600080fd5b5061031d610b6f366004615063565b612548565b348015610b8057600080fd5b5061031d6125a2565b348015610b9557600080fd5b5061031d610ba4366004614e85565b612878565b348015610bb557600080fd5b506103ca610bc4366004615490565b6128ee565b348015610bd557600080fd5b5060fc54610388906001600160a01b031681565b348015610bf557600080fd5b5061033f60ff5481565b6097546001600160a01b03163314610c445760405162461bcd60e51b815260206004820152600360248201526205631360ec1b60448201526064015b60405180910390fd5b610cba8686868080601f01602080910402602001604051908101604052809392919081815260200183838082843760009201919091525050604080516020601f89018190048102820181019092528781528993509150879087908190840183828082843760009201919091525061298392505050565b505050505050565b6000610cce83836129fc565b90505b92915050565b6000610ce16118df565b60ff54610cee91906154f3565b905090565b60fb546001600160a01b0316331480610d245750610d0f6118a4565b6001600160a01b0316336001600160a01b0316145b610d405760405162461bcd60e51b8152600401610c3b90615506565b60fc5460405163095ea7b360e01b81526001600160a01b039091169063095ea7b390610d7490849060001990600401615522565b6020604051808303816000875af1158015610d93573d6000803e3d6000fd5b505050506040513d601f19601f82011682018060405250810190610db7919061553b565b5060fd80546001600160a01b0319166001600160a01b0392909216919091179055565b606060368054610de990615558565b80601f0160208091040260200160405190810160405280929190818152602001828054610e1590615558565b8015610e625780601f10610e3757610100808354040283529160200191610e62565b820191906000526020600020905b815481529060010190602001808311610e4557829003601f168201915b5050505050905090565b610e74612ac4565b6097546040516307e0db1760e01b815261ffff831660048201526001600160a01b03909116906307e0db17906024015b600060405180830381600087803b158015610ebe57600080fd5b505af1158015610ed2573d6000803e3d6000fd5b5050505050565b600033610ee7818585612b23565b5060019392505050565b60fb546001600160a01b0316331480610f225750610f0d6118a4565b6001600160a01b0316336001600160a01b0316145b610f3e5760405162461bcd60e51b8152600401610c3b90615506565b61ffff83166000908152610101602090815260408083206001600160a01b038616845290915281206001015460fe805491929091610f7d908490615592565b909155505061ffff83166000908152610101602090815260408083206001600160a01b0386168452909152902060010181905560fe5461271090610fc29083906154f3565b1115610ff55760405162461bcd60e51b81526020600482015260026024820152612b1b60f11b6044820152606401610c3b565b8060fe600082825461100791906154f3565b9091555050505050565b611019612ac4565b61ffff9091166000908152609a6020526040902055565b611038612ac4565b6097546040516310ddb13760e01b815261ffff831660048201526001600160a01b03909116906310ddb13790602401610ea4565b600054610100900460ff161580801561108c5750600054600160ff909116105b806110ad575061109b30612c47565b1580156110ad575060005460ff166001145b6111105760405162461bcd60e51b815260206004820152602e60248201527f496e697469616c697a61626c653a20636f6e747261637420697320616c72656160448201526d191e481a5b9a5d1a585b1a5e995960921b6064820152608401610c3b565b6000805460ff191660011790558015611133576000805461ff0019166101001790555b61113c85612c56565b611144612c8e565b6111906040518060400160405280600f81526020016e13db5b9a58da185a5b8815985d5b1d608a1b8152506040518060400160405280600381526020016227a6ab60e91b815250612cbd565b60fc80546001600160a01b038087166001600160a01b0319928316179092556101088054928516929091169190911790558015610cba576000805461ff0019169055604051600181527f7f26b83ff96e1f2b6a682f133852f6798a09c465da95921460cefb3847402498906020015b60405180910390a1505050505050565b60fb546001600160a01b0316331480611240575061122b6118a4565b6001600160a01b0316336001600160a01b0316145b61125c5760405162461bcd60e51b8152600401610c3b90615506565b610100805460ff1916911515919091179055565b60003361127e858285612cee565b611289858585612d68565b506001949350505050565b60fb546001600160a01b03163314806112c557506112b06118a4565b6001600160a01b0316336001600160a01b0316145b6112e15760405162461bcd60e51b8152600401610c3b90615506565b60405133904780156108fc02916000818181858888f1935050505015801561130d573d6000803e3d6000fd5b50565b60fc546040805163313ce56760e01b815290516000926001600160a01b03169163313ce5679160048083019260209291908290030181865afa15801561135a573d6000803e3d6000fd5b505050506040513d601f19601f82011682018060405250810190610cee91906155a5565b600033610ee781858561139183836123bf565b61139b91906154f3565b612b23565b61ffff8316600090815260986020526040812080548291906113c190615558565b80601f01602080910402602001604051908101604052809291908181526020018280546113ed90615558565b801561143a5780601f1061140f5761010080835404028352916020019161143a565b820191906000526020600020905b81548152906001019060200180831161141d57829003601f168201915b5050505050905083836040516114519291906155c8565b60405180910390208180519060200120149150509392505050565b611474612ac4565b6097546040516342d65a8d60e01b81526001600160a01b03909116906342d65a8d906114a890869086908690600401615601565b600060405180830381600087803b1580156114c257600080fd5b505af11580156114d6573d6000803e3d6000fd5b50505050505050565b60fb546001600160a01b031633148061151057506114fb6118a4565b6001600160a01b0316336001600160a01b0316145b61152c5760405162461bcd60e51b8152600401610c3b90615506565b61ffff85166000908152610101602090815260408083206001600160a01b038816845290915290205485908590156115765760405162461bcd60e51b8152600401610c3b9061561f565b6127108560fe5461158791906154f3565b11156115ba5760405162461bcd60e51b8152602060048201526002602482015261563560f01b6044820152606401610c3b565b60405180610100016040528042815260200186815260200160008152602001600081526020016000815260200160008152602001858152602001846001600160a01b031681525061010160008961ffff1661ffff1681526020019081526020016000206000886001600160a01b03166001600160a01b03168152602001908152602001600020600082015181600001556020820151816001015560408201518160020155606082015181600301556080820151816004015560a0820151816005015560c0820151816006015560e08201518160070160006101000a8154816001600160a01b0302191690836001600160a01b031602179055509050506116e48661010360008a61ffff1661ffff168152602001908152602001600020612f0190919063ffffffff16565b506116f561010461ffff8916612f16565b508460fe600082825461170891906154f3565b909155505050505050505050565b3330146117745760405162461bcd60e51b815260206004820152602660248201527f4e6f6e626c6f636b696e674c7a4170703a2063616c6c6572206d7573742062656044820152650204c7a4170760d41b6064820152608401610c3b565b610cba8686868080601f01602080910402602001604051908101604052809392919081815260200183838082843760009201919091525050604080516020601f890181900481028201810190925287815289935091508790879081908401838280828437600092019190915250612f2292505050565b6000610cce8383612fc0565b6117fe612ac4565b6118086000613024565b565b6098602052600090815260409020805461182390615558565b80601f016020809104026020016040519081016040528092919081815260200182805461184f90615558565b801561189c5780601f106118715761010080835404028352916020019161189c565b820191906000526020600020905b81548152906001019060200180831161187f57829003601f168201915b505050505081565b6065546001600160a01b031690565b606060378054610de990615558565b6000610cee6118cf611310565b6118da90600a61571f565b613076565b60fc546040516370a0823160e01b81526000916001600160a01b0316906370a0823190611910903090600401614e71565b602060405180830381865afa15801561192d573d6000803e3d6000fd5b505050506040513d601f19601f82011682018060405250810190610cee919061572e565b61ffff811660009081526098602052604081208054606092919061197490615558565b80601f01602080910402602001604051908101604052809291908181526020018280546119a090615558565b80156119ed5780601f106119c2576101008083540402835291602001916119ed565b820191906000526020600020905b8154815290600101906020018083116119d057829003601f168201915b505050505090508051600003611a455760405162461bcd60e51b815260206004820152601d60248201527f4c7a4170703a206e6f20747275737465642070617468207265636f72640000006044820152606401610c3b565b611a60600060148351611a589190615592565b8391906130ab565b9392505050565b60fb546001600160a01b0316331480611a985750611a836118a4565b6001600160a01b0316336001600160a01b0316145b611ab45760405162461bcd60e51b8152600401610c3b90615506565b61ffff83166000908152610101602090815260408083206001600160a01b03851684529091529020548390829015611afe5760405162461bcd60e51b8152600401610c3b9061561f565b600061010160008761ffff1661ffff1681526020019081526020016000206000866001600160a01b03166001600160a01b0316815260200190815260200160002060405180610100016040529081600082015481526020016001820154815260200160028201548152602001600382015481526020016004820154815260200160058201548152602001600682015481526020016007820160009054906101000a90046001600160a01b03166001600160a01b03166001600160a01b03168152505090506040518061010001604052808260a001518152602001826020015181526020018260400151815260200160008152602001600081526020018260a0015181526020018260c0015181526020018260e001516001600160a01b031681525061010160008861ffff1661ffff1681526020019081526020016000206000866001600160a01b03166001600160a01b03168152602001908152602001600020600082015181600001556020820151816001015560408201518160020155606082015181600301556080820151816004015560a0820151816005015560c0820151816006015560e08201518160070160006101000a8154816001600160a01b0302191690836001600160a01b03160217905550905050600061010160008861ffff1661ffff1681526020019081526020016000206000876001600160a01b03166001600160a01b0316815260200190815260200160002060010181905550600061010160008861ffff1661ffff1681526020019081526020016000206000876001600160a01b03166001600160a01b0316815260200190815260200160002060020181905550610cba868660046040518060200160405280896001600160a01b0316815250604051602001611d9492919061577f565b6040516020818303038152906040526131b8565b60003381611db682866123bf565b905083811015611e165760405162461bcd60e51b815260206004820152602560248201527f45524332303a2064656372656173656420616c6c6f77616e63652062656c6f77604482015264207a65726f60d81b6064820152608401610c3b565b6112898286868403612b23565b611e2b612ac4565b818130604051602001611e40939291906157a4565b60408051601f1981840301815291815261ffff8516600090815260986020522090611e6b9082615820565b507f8c0400cfe2d1199b1a725c78960bcc2a344d869b80590d0f2bd005db15a572ce838383604051611e9f93929190615601565b60405180910390a1505050565b600033610ee7818585612d68565b60fb546001600160a01b0316331480611eeb5750611ed66118a4565b6001600160a01b0316336001600160a01b0316145b611f075760405162461bcd60e51b8152600401610c3b90615506565b60fb80546001600160a01b0319166001600160a01b0392909216919091179055565b60fc546001600160a01b03848116911614611f6b5760405162461bcd60e51b81526020600482015260026024820152610ac760f31b6044820152606401610c3b565b610108546001600160a01b0316331480611f8f575060fd546001600160a01b031633145b80611fb25750611f9d6118a4565b6001600160a01b0316336001600160a01b0316145b611fe35760405162461bcd60e51b8152602060048201526002602482015261563960f01b6044820152606401610c3b565b6000611ff1868260146130ab565b60405160200161200191906158d9565b604051602081830303815290604052612019906158f5565b60601c9050612029878385613362565b604080518481526001600160a01b0383811660208301528616917f92073a89a07a000083eb8b2575fc15e7bb936efe55d00727d6942a796d7211a7910160405180910390a250505050505050565b61207f612ac4565b609b80546001600160a01b0319166001600160a01b0383161790556040517f5db758e995a17ec1ad84bdef7e8c3293a0bd6179bcce400dff5d4c3d87db726b906120ca908390614e71565b60405180910390a150565b6120dd612ac4565b6097546040516332fb62e760e21b81526001600160a01b039091169063cbed8b9c90612115908890889088908890889060040161592c565b600060405180830381600087803b15801561212f57600080fd5b505af1158015612143573d6000803e3d6000fd5b505050505050505050565b60fb546001600160a01b031633148061217f575061216a6118a4565b6001600160a01b0316336001600160a01b0316145b61219b5760405162461bcd60e51b8152600401610c3b90615506565b6121a582826133f9565b5050565b61ffff8616600090815260c9602052604080822090516121cc90889088906155c8565b90815260408051602092819003830190206001600160401b0387166000908152925290205490508061224c5760405162461bcd60e51b815260206004820152602360248201527f4e6f6e626c6f636b696e674c7a4170703a206e6f2073746f726564206d65737360448201526261676560e81b6064820152608401610c3b565b80838360405161225d9291906155c8565b6040518091039020146122bc5760405162461bcd60e51b815260206004820152602160248201527f4e6f6e626c6f636b696e674c7a4170703a20696e76616c6964207061796c6f616044820152601960fa1b6064820152608401610c3b565b61ffff8716600090815260c9602052604080822090516122df90899089906155c8565b90815260408051602092819003830181206001600160401b038916600090815290845282902093909355601f88018290048202830182019052868252612377918991899089908190840183828082843760009201919091525050604080516020601f8a018190048102820181019092528881528a935091508890889081908401838280828437600092019190915250612f2292505050565b7fc264d91f3adc5588250e1551f547752ca0cfa8f6b530d243b9f9f4cab10ea8e587878787856040516123ae95949392919061595a565b60405180910390a150505050505050565b6001600160a01b03918216600090815260346020908152604080832093909416825291909152205490565b60fb546001600160a01b031633148061241b57506124066118a4565b6001600160a01b0316336001600160a01b0316145b6124375760405162461bcd60e51b8152600401610c3b90615506565b61ffff929092166000908152610101602090815260408083206001600160a01b039485168452909152902060070180546001600160a01b03191691909216179055565b612482612ac4565b600081116124ca5760405162461bcd60e51b81526020600482015260156024820152744c7a4170703a20696e76616c6964206d696e47617360581b6044820152606401610c3b565b61ffff83811660008181526099602090815260408083209487168084529482529182902085905581519283528201929092529081018290527f9d5c7c0b934da8fefa9c7760c98383778a12dfbfc0c3b3106518f43fb9508ac090606001611e9f565b61253783838361346e565b505050565b6000610cce8383613599565b612550612ac4565b61ffff8316600090815260986020526040902061256e828483615995565b507ffa41487ad5d6728f0b19276fa1eddc16558578f5109fc39d2dc33c3230470dab838383604051611e9f93929190615601565b60fb546001600160a01b03163314806125d357506125be6118a4565b6001600160a01b0316336001600160a01b0316145b6125ef5760405162461bcd60e51b8152600401610c3b90615506565b610102546000908152610106602052604090206001015460ff16156126265760405162461bcd60e51b8152600401610c3b90615a4e565b6000805b61010254600090815261010660205260409020548110156126a7576101025460009081526101066020526040812080548390811061266a5761266a615a6a565b906000526020600020906006020190506126878160020154613076565b61269190846154f3565b925050808061269f90615a80565b91505061262a565b506126b06118df565b81116126be5761130d613651565b60006126c86118df565b6126d29083615592565b90506000805b6126e3610104613967565b811080156126f15750600083115b1561284257600061270461010483613971565b61ffff81166000908152610103602052604081209192505b61272582613967565b811080156127335750600086115b1561282c5760006127448383613971565b61ffff85166000908152610101602090815260408083206001600160a01b03851684529091528120600281015492935091900361278257505061281a565b600061279289836002015461397d565b6101025460009081526101066020908152604080832061ffff8b16845260050182528083206001600160a01b0388168452909152902081905590506127d7818a615592565b985061280986846000604051806040016040528086815260200161010254815250604051602001611d94929190615a99565b8761281381615a80565b9850505050505b8061282481615a80565b91505061271c565b505050808061283a90615a80565b9150506126d8565b506101028054600090815261010660205260408082206002019390935590548152206001908101805460ff191690911790555050565b612880612ac4565b6001600160a01b0381166128e55760405162461bcd60e51b815260206004820152602660248201527f4f776e61626c653a206e6577206f776e657220697320746865207a65726f206160448201526564647265737360d01b6064820152608401610c3b565b61130d81613024565b609754604051633d7b2f6f60e21b815261ffff808716600483015285166024820152306044820152606481018390526060916001600160a01b03169063f5ecbdbc90608401600060405180830381865afa158015612950573d6000803e3d6000fd5b505050506040513d6000823e601f3d908101601f191682016040526129789190810190615b04565b90505b949350505050565b6000806129e65a60966366ad5c8a60e01b898989896040516024016129ab9493929190615b38565b60408051601f198184030181529190526020810180516001600160e01b03166001600160e01b03199093169290921790915230929190613993565b9150915081610cba57610cba8686868685613a1f565b6101005460009060ff1615612a1357506000610cd1565b6000612710612a20610cd7565b61ffff86166000908152610101602090815260408083206001600160a01b0389168452909152902060010154612a569190615b76565b612a609190615b8d565b61ffff85166000908152610101602090815260408083206001600160a01b0388168452909152902060020154909150808211612aa157600092505050610cd1565b612abb612aac6118df565b612ab68385615592565b61397d565b95945050505050565b33612acd6118a4565b6001600160a01b0316146118085760405162461bcd60e51b815260206004820181905260248201527f4f776e61626c653a2063616c6c6572206973206e6f7420746865206f776e65726044820152606401610c3b565b6001600160a01b038316612b855760405162461bcd60e51b8152602060048201526024808201527f45524332303a20617070726f76652066726f6d20746865207a65726f206164646044820152637265737360e01b6064820152608401610c3b565b6001600160a01b038216612be65760405162461bcd60e51b815260206004820152602260248201527f45524332303a20617070726f766520746f20746865207a65726f206164647265604482015261737360f01b6064820152608401610c3b565b6001600160a01b0383811660008181526034602090815260408083209487168084529482529182902085905590518481527f8c5be1e5ebec7d5bd14f71427d1e84f3dd0314c0f7b2291e5b200ac8c7c3b925910160405180910390a3505050565b6001600160a01b03163b151590565b600054610100900460ff16612c7d5760405162461bcd60e51b8152600401610c3b90615baf565b612c85613abc565b61130d81613aec565b600054610100900460ff16612cb55760405162461bcd60e51b8152600401610c3b90615baf565b611808613abc565b600054610100900460ff16612ce45760405162461bcd60e51b8152600401610c3b90615baf565b6121a58282613b35565b6000612cfa84846123bf565b90506000198114612d625781811015612d555760405162461bcd60e51b815260206004820152601d60248201527f45524332303a20696e73756666696369656e7420616c6c6f77616e63650000006044820152606401610c3b565b612d628484848403612b23565b50505050565b6001600160a01b038316612dcc5760405162461bcd60e51b815260206004820152602560248201527f45524332303a207472616e736665722066726f6d20746865207a65726f206164604482015264647265737360d81b6064820152608401610c3b565b6001600160a01b038216612e2e5760405162461bcd60e51b815260206004820152602360248201527f45524332303a207472616e7366657220746f20746865207a65726f206164647260448201526265737360e81b6064820152608401610c3b565b6001600160a01b03831660009081526033602052604090205481811015612ea65760405162461bcd60e51b815260206004820152602660248201527f45524332303a207472616e7366657220616d6f756e7420657863656564732062604482015265616c616e636560d01b6064820152608401610c3b565b6001600160a01b038085166000818152603360205260408082208686039055928616808252908390208054860190559151600080516020615f7183398151915290612ef49086815260200190565b60405180910390a3612d62565b6000610cce836001600160a01b038416613b75565b6000610cce8383613b75565b6000612f30848260146130ab565b604051602001612f4091906158d9565b604051602081830303815290604052612f58906158f5565b61ffff861660009081526101016020908152604080832060609490941c80845293909152902054909150612fb45760405162461bcd60e51b815260206004820152600360248201526256313560e81b6044820152606401610c3b565b610ed285836000613362565b6101005460009060ff1615612ffd5760405162461bcd60e51b815260206004820152600360248201526256313160e81b6044820152606401610c3b565b60006130098385613bc4565b60fc54909150610cce906001600160a01b0316333087613c40565b606580546001600160a01b038381166001600160a01b0319831681179093556040519116919082907f8be0079c531659141344cd1fd0a4f28419497f9722a3daafe3b4186f6b6457e090600090a35050565b600061308160355490565b60000361308c575090565b603554613097610cd7565b6130a19084615b76565b610cd19190615b8d565b6060816130b981601f6154f3565b10156130f85760405162461bcd60e51b815260206004820152600e60248201526d736c6963655f6f766572666c6f7760901b6044820152606401610c3b565b61310282846154f3565b845110156131465760405162461bcd60e51b8152602060048201526011602482015270736c6963655f6f75744f66426f756e647360781b6044820152606401610c3b565b60608215801561316557604051915060008252602082016040526131af565b6040519150601f8416801560200281840101858101878315602002848b0101015b8183101561319e578051835260209283019201613186565b5050858452601f01601f1916604052505b50949350505050565b61ffff83166000908152610101602090815260408083206001600160a01b0386168452909152902054839083906132015760405162461bcd60e51b8152600401610c3b90615bfa565b6040516001600160601b0319606086811b8216602084015230901b16603482015260009060480160408051601f198184030181529190526097549091506000906001600160a01b03166340a7bb108830888561325b613cab565b6040518663ffffffff1660e01b815260040161327b959493929190615c16565b6040805180830381865afa158015613297573d6000803e3d6000fd5b505050506040513d601f19601f820116820180604052508101906132bb9190615c6a565b509050804710156132e75760405162fae2d560e21b815260048101829052476024820152604401610c3b565b6097546001600160a01b031663c5803100828985893080613306613cab565b6040518863ffffffff1660e01b815260040161332796959493929190615c8e565b6000604051808303818588803b15801561334057600080fd5b505af1158015613354573d6000803e3d6000fd5b505050505050505050505050565b6000828060200190518101906133789190615cf5565b9050600281600481111561338e5761338e615747565b036133bd576000838060200190518101906133a99190615d21565b9150506133b7858285613cdb565b50612d62565b60018160048111156133d1576133d1615747565b03612d62576000838060200190518101906133ec9190615e0c565b915050610ed285826140b5565b61ffff82166000908152610101602090815260408083206001600160a01b038516845290915281206001015460fe805491929091613438908490615592565b909155505061ffff9091166000908152610101602090815260408083206001600160a01b03909416835292905290812060010155565b610102546000908152610106602052604090206001015460ff16156134a55760405162461bcd60e51b8152600401610c3b90615a4e565b6134b0333085612d68565b61010660006101025481526020019081526020016000206000016040518060c00160405280336001600160a01b03168152602001846001600160a01b0316815260200185815260200183815260200161350886613076565b81526000602091820181905283546001808201865594825290829020835160069092020180546001600160a01b03199081166001600160a01b039384161782559284015194810180549093169490911693909317905560408101516002830155606081015160038301556080810151600483015560a001516005909101805460ff1916911515919091179055505050565b6000806127106135a7610cd7565b61ffff86166000908152610101602090815260408083206001600160a01b03891684529091529020600101546135dd9190615b76565b6135e79190615b8d565b61ffff85166000908152610101602090815260408083206001600160a01b0388168452909152902060020154610100549192509060ff161561362c579150610cd19050565b81811161363e57600092505050610cd1565b6136488282615592565b92505050610cd1565b6101025460009081526101066020526040902054806136985760405162461bcd60e51b8152602060048201526003602482015262158c4d60ea1b6044820152606401610c3b565b6000816001600160401b038111156136b2576136b2615104565b6040519080825280602002602001820160405280156136db578160200160208202803683370190505b50905060005b8281101561375b576101025460009081526101066020526040812080548390811061370e5761370e615a6a565b9060005260206000209060060201905061372b8160020154613076565b83838151811061373d5761373d615a6a565b6020908102919091010152508061375381615a80565b9150506136e1565b5060005b828110156138f4576101025460009081526101066020526040812080548390811061378c5761378c615a6a565b9060005260206000209060060201905060006137c38484815181106137b3576137b3615a6a565b6020026020010151612ab66118df565b905081600401548110156138a25760008183600401546137e39190615592565b905060008360040154826127106137fa9190615b76565b6138049190615b8d565b9050836003015481111561389f5760058401805460ff191690558354600285015460405163a9059cbb60e01b8152309263a9059cbb92613852926001600160a01b0390921691600401615522565b6020604051808303816000875af1158015613871573d6000803e3d6000fd5b505050506040513d601f19601f82011682018060405250810190613895919061553b565b50505050506138e2565b50505b60058201805460ff1916600190811790915582015460fc546138d1916001600160a01b03918216911683614280565b6138df30836002015461429f565b50505b806138ec81615a80565b91505061375f565b506101025460408051918252602082018490527fc682eb885c208b8aaaa811c05902e24a4f14b388960311623a8f31404f655129910160405180910390a16101028054600090815261010660205260408120600101805460ff191690558154919061395e83615a80565b91905055505050565b6000610cd1825490565b6000610cce83836143c1565b600081831061398c5781610cce565b5090919050565b6000606060008060008661ffff166001600160401b038111156139b8576139b8615104565b6040519080825280601f01601f1916602001820160405280156139e2576020820181803683370190505b50905060008087516020890160008d8df191503d925086831115613a04578692505b828152826000602083013e9093509150505b94509492505050565b818051906020012060c960008761ffff1661ffff16815260200190815260200160002085604051613a5091906158d9565b9081526040805191829003602090810183206001600160401b0388166000908152915220919091557fe183f33de2837795525b4792ca4cd60535bd77c53b7e7030060bfcf5734d6b0c90613aad9087908790879087908790615e97565b60405180910390a15050505050565b600054610100900460ff16613ae35760405162461bcd60e51b8152600401610c3b90615baf565b61180833613024565b600054610100900460ff16613b135760405162461bcd60e51b8152600401610c3b90615baf565b609780546001600160a01b0319166001600160a01b0392909216919091179055565b600054610100900460ff16613b5c5760405162461bcd60e51b8152600401610c3b90615baf565b6036613b688382615820565b5060376125378282615820565b6000818152600183016020526040812054613bbc57508154600181810184556000848152602080822090930184905584548482528286019093526040902091909155610cd1565b506000610cd1565b600080613bd060355490565b600003613bde575081613c00565b613be6610cd7565b603554613bf39085615b76565b613bfd9190615b8d565b90505b60008111613c365760405162461bcd60e51b815260206004820152600360248201526256313360e81b6044820152606401610c3b565b610cce84826143eb565b6040516001600160a01b0380851660248301528316604482015260648101829052612d629085906323b872dd60e01b906084015b60408051601f198184030181529190526020810180516001600160e01b03166001600160e01b03199093169290921790915261449a565b60408051600160f01b6020820152620f424060228083019190915282518083039091018152604290910190915290565b613ce5838361456f565b606082015115613d0257613d02838360000151846060015161474e565b60408083015161ffff85166000908152610101602090815283822086516001600160a01b031683529052918220600301805491929091613d439084906154f3565b90915550508151600090613d58908590613599565b90506000613d6a82856080015161397d565b90508015613dda5761ffff851660009081526101016020908152604080832087516001600160a01b0316845290915281206002018054839290613dae908490615592565b925050819055508060ff6000828254613dc79190615592565b90915550613dd790508183615592565b91505b60e084015115613e475760e084015161ffff861660009081526101016020908152604080832088516001600160a01b0316845290915281206002018054909190613e259084906154f3565b909155505060e084015160ff8054600090613e419084906154f3565b90915550505b60208085015161ffff8716600081815261010180855260408083208a516001600160a01b039081168552818852828520600501969096559383529085528851909316815292529020600101541580613ea257506101005460ff165b15613eb05783610100015191505b60a084015115613f0357613efe8460a001518686600001516003604051806020016040528088815250604051602001613eea929190615ee9565b604051602081830303815290604052614843565b613f2e565b613f2e8585600001516003604051806020016040528087815250604051602001611d94929190615ee9565b600061010160008761ffff1661ffff168152602001908152602001600020600086600001516001600160a01b03166001600160a01b0316815260200190815260200160002060405180610100016040529081600082015481526020016001820154815260200160028201548152602001600382015481526020016004820154815260200160058201548152602001600682015481526020016007820160009054906101000a90046001600160a01b03166001600160a01b03166001600160a01b03168152505090507f08bc8eff67f79e18165507d64024f5ca5e90a2593c7a45cb5caf7f9d843e404c8686600001518760400151886060015189608001518660600151876080015188604001518d60e001518a602001518e6040516111ff9b9a9998979695949392919061ffff9b909b168b526001600160a01b039990991660208b015260408a01979097526060890195909552608088019390935260a087019190915260c086015260e08501526101008401526101208301526101408201526101600190565b805161ffff83166000908152610101602090815260408083206001600160a01b03851684529091529020548391906140ff5760405162461bcd60e51b8152600401610c3b90615bfa565b60408301511561411c5761411c848460000151856040015161474e565b60208084015161ffff861660009081526101018352604080822087516001600160a01b0316835290935291822060020180549192909161415d908490615592565b9091555050602083015160ff8054600090614179908490615592565b909155505060608301516000908152610106602052604081206003018054916141a183615a80565b909155505060608301805160009081526101066020818152604080842061ffff8a168552600401825280842088516001600160a01b031685528252808420805460ff191660011790558451845291905280822060030154925182529020600201540361420f5761420f613651565b82600001516001600160a01b03168461ffff167f046368a4ca42efbdd968b9025440eb5590bdcda7da09f4fef8ac4ef2f44a5ed0856020015186604001518760600151604051614272939291909283526020830191909152604082015260600190565b60405180910390a350505050565b6125378363a9059cbb60e01b8484604051602401613c74929190615522565b6001600160a01b0382166142ff5760405162461bcd60e51b815260206004820152602160248201527f45524332303a206275726e2066726f6d20746865207a65726f206164647265736044820152607360f81b6064820152608401610c3b565b6001600160a01b038216600090815260336020526040902054818110156143735760405162461bcd60e51b815260206004820152602260248201527f45524332303a206275726e20616d6f756e7420657863656564732062616c616e604482015261636560f01b6064820152608401610c3b565b6001600160a01b0383166000818152603360209081526040808320868603905560358054879003905551858152919291600080516020615f71833981519152910160405180910390a3505050565b60008260000182815481106143d8576143d8615a6a565b9060005260206000200154905092915050565b6001600160a01b0382166144415760405162461bcd60e51b815260206004820152601f60248201527f45524332303a206d696e7420746f20746865207a65726f2061646472657373006044820152606401610c3b565b806035600082825461445391906154f3565b90915550506001600160a01b038216600081815260336020908152604080832080548601905551848152600080516020615f71833981519152910160405180910390a35050565b60006144ef826040518060400160405280602081526020017f5361666545524332303a206c6f772d6c6576656c2063616c6c206661696c6564815250856001600160a01b03166149339092919063ffffffff16565b9050805160001480614510575080806020019051810190614510919061553b565b6125375760405162461bcd60e51b815260206004820152602a60248201527f5361666545524332303a204552433230206f7065726174696f6e20646964206e6044820152691bdd081cdd58d8d9595960b21b6064820152608401610c3b565b61ffff821660009081526101076020908152604080832084516001600160a01b031684528252808320610120850151845290915290205460ff16156145dc5760405162461bcd60e51b81526020600482015260036024820152622b189b60e91b6044820152606401610c3b565b805161012082015160405160609290921b6001600160601b0319166020830152603482015260f083901b6001600160f01b031916605482015260009060560160405160208183030381529060405280519060200120905060008160405160200161467191907b0ca2ba3432b932bab69029b4b3b732b21026b2b9b9b0b3b29d05199960211b8152601c810191909152603c0190565b60408051601f19818403018152918152815160209283012061ffff87166000908152610101845282812087516001600160a01b03908116835294529190912060070154610140860151919350909116906146cc908390614942565b6001600160a01b0316146147085760405162461bcd60e51b815260206004820152600360248201526256313760e81b6044820152606401610c3b565b505061ffff90911660009081526101076020908152604080832084516001600160a01b03168452825280832061012090940151835292905220805460ff19166001179055565b61ffff83166000908152610101602090815260408083206001600160a01b03861684529091529020600201548111156147af5760405162461bcd60e51b81526020600482015260036024820152622b189960e91b6044820152606401610c3b565b61ffff83166000908152610101602090815260408083206001600160a01b0386168452909152812060040180548392906147ea9084906154f3565b909155505061ffff83166000908152610101602090815260408083206001600160a01b03861684529091528120600201805483929061482a908490615592565b925050819055508060ff60008282546110079190615592565b60fd54604051630dc6346160e01b81526000916001600160a01b031690630dc634619061487890879087908790600401615f05565b602060405180830381865afa158015614895573d6000803e3d6000fd5b505050506040513d601f19601f820116820180604052508101906148b9919061572e565b60fd5460fc54604051633920455b60e11b81529293506001600160a01b03918216926372408ab69285926148fa929116908a908a908a908a90600401615f33565b6000604051808303818588803b15801561491357600080fd5b505af1158015614927573d6000803e3d6000fd5b50505050505050505050565b606061297b8484600085614966565b60008060006149518585614a41565b9150915061495e81614a86565b509392505050565b6060824710156149c75760405162461bcd60e51b815260206004820152602660248201527f416464726573733a20696e73756666696369656e742062616c616e636520666f6044820152651c8818d85b1b60d21b6064820152608401610c3b565b600080866001600160a01b031685876040516149e391906158d9565b60006040518083038185875af1925050503d8060008114614a20576040519150601f19603f3d011682016040523d82523d6000602084013e614a25565b606091505b5091509150614a3687838387614bcb565b979650505050505050565b6000808251604103614a775760208301516040840151606085015160001a614a6b87828585614c42565b94509450505050614a7f565b506000905060025b9250929050565b6000816004811115614a9a57614a9a615747565b03614aa25750565b6001816004811115614ab657614ab6615747565b03614afe5760405162461bcd60e51b815260206004820152601860248201527745434453413a20696e76616c6964207369676e617475726560401b6044820152606401610c3b565b6002816004811115614b1257614b12615747565b03614b5f5760405162461bcd60e51b815260206004820152601f60248201527f45434453413a20696e76616c6964207369676e6174757265206c656e677468006044820152606401610c3b565b6003816004811115614b7357614b73615747565b0361130d5760405162461bcd60e51b815260206004820152602260248201527f45434453413a20696e76616c6964207369676e6174757265202773272076616c604482015261756560f01b6064820152608401610c3b565b60608315614c38578251600003614c3157614be585612c47565b614c315760405162461bcd60e51b815260206004820152601d60248201527f416464726573733a2063616c6c20746f206e6f6e2d636f6e74726163740000006044820152606401610c3b565b508161297b565b61297b8383614cf9565b6000806fa2a8918ca85bafe22016d0b997e4df60600160ff1b03831115614c6f5750600090506003613a16565b6040805160008082526020820180845289905260ff881692820192909252606081018690526080810185905260019060a0016020604051602081039080840390855afa158015614cc3573d6000803e3d6000fd5b5050604051601f1901519150506001600160a01b038116614cec57600060019250925050613a16565b9660009650945050505050565b815115614d095781518083602001fd5b8060405162461bcd60e51b8152600401610c3b9190614ef2565b803561ffff81168114614d3557600080fd5b919050565b60008083601f840112614d4c57600080fd5b5081356001600160401b03811115614d6357600080fd5b602083019150836020828501011115614a7f57600080fd5b80356001600160401b0381168114614d3557600080fd5b60008060008060008060808789031215614dab57600080fd5b614db487614d23565b955060208701356001600160401b0380821115614dd057600080fd5b614ddc8a838b01614d3a565b9097509550859150614df060408a01614d7b565b94506060890135915080821115614e0657600080fd5b50614e1389828a01614d3a565b979a9699509497509295939492505050565b6001600160a01b038116811461130d57600080fd5b60008060408385031215614e4d57600080fd5b614e5683614d23565b91506020830135614e6681614e25565b809150509250929050565b6001600160a01b0391909116815260200190565b600060208284031215614e9757600080fd5b8135610cce81614e25565b60005b83811015614ebd578181015183820152602001614ea5565b50506000910152565b60008151808452614ede816020860160208601614ea2565b601f01601f19169290920160200192915050565b602081526000610cce6020830184614ec6565b600060208284031215614f1757600080fd5b610cce82614d23565b60008060408385031215614f3357600080fd5b8235614f3e81614e25565b946020939093013593505050565b600080600060608486031215614f6157600080fd5b614f6a84614d23565b92506020840135614f7a81614e25565b929592945050506040919091013590565b60008060408385031215614f9e57600080fd5b614f3e83614d23565b600080600080600060a08688031215614fbf57600080fd5b8535614fca81614e25565b94506020860135614fda81614e25565b93506040860135614fea81614e25565b92506060860135614ffa81614e25565b9150608086013561500a81614e25565b809150509295509295909350565b801515811461130d57600080fd5b60006020828403121561503857600080fd5b8135610cce81615018565b60008060006060848603121561505857600080fd5b8335614f6a81614e25565b60008060006040848603121561507857600080fd5b61508184614d23565b925060208401356001600160401b0381111561509c57600080fd5b6150a886828701614d3a565b9497909650939450505050565b600080600080600060a086880312156150cd57600080fd5b6150d686614d23565b945060208601356150e681614e25565b93506040860135925060608601359150608086013561500a81614e25565b634e487b7160e01b600052604160045260246000fd5b60405161016081016001600160401b038111828210171561513d5761513d615104565b60405290565b604051601f8201601f191681016001600160401b038111828210171561516b5761516b615104565b604052919050565b60006001600160401b0382111561518c5761518c615104565b50601f01601f191660200190565b600082601f8301126151ab57600080fd5b81356151be6151b982615173565b615143565b8181528460208386010111156151d357600080fd5b816020850160208301376000918101602001919091529392505050565b60008060006060848603121561520557600080fd5b61520e84614d23565b925060208401356001600160401b0381111561522957600080fd5b6152358682870161519a565b92505061524460408501614d7b565b90509250925092565b60006020828403121561525f57600080fd5b5035919050565b6000806040838503121561527957600080fd5b823591506020830135614e6681614e25565b6000806040838503121561529e57600080fd5b6152a783614d23565b91506152b560208401614d23565b90509250929050565b6000806000606084860312156152d357600080fd5b6152dc84614d23565b925060208401356152ec81614e25565b915060408401356152fc81614e25565b809150509250925092565b60008060008060008060c0878903121561532057600080fd5b61532987614d23565b955060208701356001600160401b038082111561534557600080fd5b6153518a838b0161519a565b9650604089013595506060890135915061536a82614e25565b9093506080880135925060a0880135908082111561538757600080fd5b5061539489828a0161519a565b9150509295509295509295565b6000806000806000608086880312156153b957600080fd5b6153c286614d23565b94506153d060208701614d23565b93506040860135925060608601356001600160401b038111156153f257600080fd5b6153fe88828901614d3a565b969995985093965092949392505050565b6000806040838503121561542257600080fd5b8235614e5681614e25565b60008060006060848603121561544257600080fd5b61544b84614d23565b925061545960208501614d23565b9150604084013590509250925092565b60008060006060848603121561547e57600080fd5b833592506020840135614f7a81614e25565b600080600080608085870312156154a657600080fd5b6154af85614d23565b93506154bd60208601614d23565b925060408501356154cd81614e25565b9396929550929360600135925050565b634e487b7160e01b600052601160045260246000fd5b80820180821115610cd157610cd16154dd565b602080825260029082015261563160f01b604082015260600190565b6001600160a01b03929092168252602082015260400190565b60006020828403121561554d57600080fd5b8151610cce81615018565b600181811c9082168061556c57607f821691505b60208210810361558c57634e487b7160e01b600052602260045260246000fd5b50919050565b81810381811115610cd157610cd16154dd565b6000602082840312156155b757600080fd5b815160ff81168114610cce57600080fd5b8183823760009101908152919050565b81835281816020850137506000828201602090810191909152601f909101601f19169091010190565b61ffff841681526040602082015260006129786040830184866155d8565b602080825260029082015261563360f01b604082015260600190565b600181815b8085111561567657816000190482111561565c5761565c6154dd565b8085161561566957918102915b93841c9390800290615640565b509250929050565b60008261568d57506001610cd1565b8161569a57506000610cd1565b81600181146156b057600281146156ba576156d6565b6001915050610cd1565b60ff8411156156cb576156cb6154dd565b50506001821b610cd1565b5060208310610133831016604e8410600b84101617156156f9575081810a610cd1565b615703838361563b565b8060001904821115615717576157176154dd565b029392505050565b6000610cce60ff84168361567e565b60006020828403121561574057600080fd5b5051919050565b634e487b7160e01b600052602160045260246000fd5b6005811061577b57634e487b7160e01b600052602160045260246000fd5b9052565b6040810161578d828561575d565b91516001600160a01b031660209190910152919050565b8284823760609190911b6001600160601b0319169101908152601401919050565b601f82111561253757600081815260208120601f850160051c810160208610156157ec5750805b601f850160051c820191505b81811015610cba578281556001016157f8565b600019600383901b1c191660019190911b1790565b81516001600160401b0381111561583957615839615104565b61584d816158478454615558565b846157c5565b602080601f83116001811461587c576000841561586a5750858301515b615874858261580b565b865550610cba565b600085815260208120601f198616915b828110156158ab5788860151825594840194600190910190840161588c565b50858210156158c95787850151600019600388901b60f8161c191681555b5050505050600190811b01905550565b600082516158eb818460208701614ea2565b9190910192915050565b805160208201516001600160601b031980821692919060148310156159245780818460140360031b1b83161693505b505050919050565b600061ffff808816835280871660208401525084604083015260806060830152614a366080830184866155d8565b61ffff861681526080602082015260006159786080830186886155d8565b6001600160401b0394909416604083015250606001529392505050565b6001600160401b038311156159ac576159ac615104565b6159c0836159ba8354615558565b836157c5565b6000601f8411600181146159ee57600085156159dc5750838201355b6159e6868261580b565b845550610ed2565b600083815260209020601f19861690835b82811015615a1f57868501358255602094850194600190920191016159ff565b5086821015615a3c5760001960f88860031b161c19848701351681555b505060018560011b0183555050505050565b602080825260029082015261158d60f21b604082015260600190565b634e487b7160e01b600052603260045260246000fd5b600060018201615a9257615a926154dd565b5060010190565b60608101615aa7828561575d565b82516020830152602083015160408301529392505050565b600082601f830112615ad057600080fd5b8151615ade6151b982615173565b818152846020838601011115615af357600080fd5b61297b826020830160208701614ea2565b600060208284031215615b1657600080fd5b81516001600160401b03811115615b2c57600080fd5b61297b84828501615abf565b61ffff85168152608060208201526000615b556080830186614ec6565b6001600160401b03851660408401528281036060840152614a368185614ec6565b8082028115828204841417610cd157610cd16154dd565b600082615baa57634e487b7160e01b600052601260045260246000fd5b500490565b6020808252602b908201527f496e697469616c697a61626c653a20636f6e7472616374206973206e6f74206960408201526a6e697469616c697a696e6760a81b606082015260800190565b6020808252600290820152612b1960f11b604082015260600190565b61ffff861681526001600160a01b038516602082015260a060408201819052600090615c4490830186614ec6565b84151560608401528281036080840152615c5e8185614ec6565b98975050505050505050565b60008060408385031215615c7d57600080fd5b505080516020909101519092909150565b61ffff8716815260c060208201526000615cab60c0830188614ec6565b8281036040840152615cbd8188614ec6565b6001600160a01b0387811660608601528616608085015283810360a08501529050615ce88185614ec6565b9998505050505050505050565b600060208284031215615d0757600080fd5b815160058110610cce57600080fd5b8051614d3581614e25565b60008060408385031215615d3457600080fd5b825160208401519092506001600160401b0380821115615d5357600080fd5b908401906101608287031215615d6857600080fd5b615d7061511a565b615d7983615d16565b81526020830151602082015260408301516040820152606083015160608201526080830151608082015260a083015160a082015260c083015160c082015260e083015160e08201526101008084015181830152506101208084015181830152506101408084015183811115615ded57600080fd5b615df989828701615abf565b8284015250508093505050509250929050565b60008082840360a0811215615e2057600080fd5b835192506080601f1982011215615e3657600080fd5b50604051608081016001600160401b0381118282101715615e5957615e59615104565b6040526020840151615e6a81614e25565b80825250604084015160208201526060840151604082015260808401516060820152809150509250929050565b61ffff8616815260a060208201526000615eb460a0830187614ec6565b6001600160401b03861660408401528281036060840152615ed58186614ec6565b90508281036080840152615c5e8185614ec6565b60408101615ef7828561575d565b825160208301529392505050565b61ffff841681526001600160a01b038316602082015260606040820181905260009061297890830184614ec6565b6001600160a01b0386811682526020820186905261ffff851660408301528316606082015260a060808201819052600090614a3690830184614ec656feddf252ad1be2c89b69c2b068fc378daa952ba7f163c4a11628f55a4df523b3efa264697066735822122089f0cd8ac470fdfbf06cdebd0b454d7429713d79297549428d5e50aa1c4915d664736f6c63430008130033",
  "linkReferences": {},
  "deployedLinkReferences": {}
}