{
  "_format": "hh-sol-artifact-1",
  "contractName": "Vault",
  "sourceName": "contracts/Vault.sol",
  "abi": [
    {
      "inputs": [
        {
          "internalType": "uint256",
          "name": "amount",
          "type": "uint256"
        },
        {
          "internalType": "uint256",
          "name": "balance",
          "type": "uint256"
        }
      ],
      "name": "InsufficientFunds",
      "type": "error"
    },
    {
      "anonymous": false,
      "inputs": [
        {
          "indexed": true,
          "internalType": "address",
          "name": "owner",
          "type": "address"
        },
        {
          "indexed": true,
          "internalType": "address",
          "name": "spender",
          "type": "address"
        },
        {
          "indexed": false,
          "internalType": "uint256",
          "name": "value",
          "type": "uint256"
        }
      ],
      "name": "Approval",
      "type": "event"
    },
    {
      "anonymous": false,
      "inputs": [
        {
          "indexed": false,
          "internalType": "uint256",
          "name": "epochId",
          "type": "uint256"
        },
        {
          "indexed": false,
          "internalType": "uint256",
          "name": "requestCount",
          "type": "uint256"
        }
      ],
      "name": "FulfilledWithdrawEpoch",
      "type": "event"
    },
    {
      "anonymous": false,
      "inputs": [
        {
          "indexed": false,
          "internalType": "uint8",
          "name": "version",
          "type": "uint8"
        }
      ],
      "name": "Initialized",
      "type": "event"
    },
    {
      "anonymous": false,
      "inputs": [
        {
          "indexed": false,
          "internalType": "uint16",
          "name": "_srcChainId",
          "type": "uint16"
        },
        {
          "indexed": false,
          "internalType": "bytes",
          "name": "_srcAddress",
          "type": "bytes"
        },
        {
          "indexed": false,
          "internalType": "uint64",
          "name": "_nonce",
          "type": "uint64"
        },
        {
          "indexed": false,
          "internalType": "bytes",
          "name": "_payload",
          "type": "bytes"
        },
        {
          "indexed": false,
          "internalType": "bytes",
          "name": "_reason",
          "type": "bytes"
        }
      ],
      "name": "MessageFailed",
      "type": "event"
    },
    {
      "anonymous": false,
      "inputs": [
        {
          "indexed": true,
          "internalType": "address",
          "name": "previousOwner",
          "type": "address"
        },
        {
          "indexed": true,
          "internalType": "address",
          "name": "newOwner",
          "type": "address"
        }
      ],
      "name": "OwnershipTransferred",
      "type": "event"
    },
    {
      "anonymous": false,
      "inputs": [
        {
          "indexed": false,
          "internalType": "uint16",
          "name": "_srcChainId",
          "type": "uint16"
        },
        {
          "indexed": false,
          "internalType": "bytes",
          "name": "_srcAddress",
          "type": "bytes"
        },
        {
          "indexed": false,
          "internalType": "uint64",
          "name": "_nonce",
          "type": "uint64"
        },
        {
          "indexed": false,
          "internalType": "bytes32",
          "name": "_payloadHash",
          "type": "bytes32"
        }
      ],
      "name": "RetryMessageSuccess",
      "type": "event"
    },
    {
      "anonymous": false,
      "inputs": [
        {
          "indexed": false,
          "internalType": "uint16",
          "name": "_dstChainId",
          "type": "uint16"
        },
        {
          "indexed": false,
          "internalType": "uint16",
          "name": "_type",
          "type": "uint16"
        },
        {
          "indexed": false,
          "internalType": "uint256",
          "name": "_minDstGas",
          "type": "uint256"
        }
      ],
      "name": "SetMinDstGas",
      "type": "event"
    },
    {
      "anonymous": false,
      "inputs": [
        {
          "indexed": false,
          "internalType": "address",
          "name": "precrime",
          "type": "address"
        }
      ],
      "name": "SetPrecrime",
      "type": "event"
    },
    {
      "anonymous": false,
      "inputs": [
        {
          "indexed": false,
          "internalType": "uint16",
          "name": "_remoteChainId",
          "type": "uint16"
        },
        {
          "indexed": false,
          "internalType": "bytes",
          "name": "_path",
          "type": "bytes"
        }
      ],
      "name": "SetTrustedRemote",
      "type": "event"
    },
    {
      "anonymous": false,
      "inputs": [
        {
          "indexed": false,
          "internalType": "uint16",
          "name": "_remoteChainId",
          "type": "uint16"
        },
        {
          "indexed": false,
          "internalType": "bytes",
          "name": "_remoteAddress",
          "type": "bytes"
        }
      ],
      "name": "SetTrustedRemoteAddress",
      "type": "event"
    },
    {
      "anonymous": false,
      "inputs": [
        {
          "indexed": true,
          "internalType": "address",
          "name": "token",
          "type": "address"
        },
        {
          "indexed": false,
          "internalType": "uint256",
          "name": "amount",
          "type": "uint256"
        },
        {
          "indexed": false,
          "internalType": "address",
          "name": "sender",
          "type": "address"
        }
      ],
      "name": "SgReceived",
      "type": "event"
    },
    {
      "anonymous": false,
      "inputs": [
        {
          "indexed": false,
          "internalType": "uint16",
          "name": "chainId",
          "type": "uint16"
        },
        {
          "indexed": false,
          "internalType": "address",
          "name": "strategy",
          "type": "address"
        },
        {
          "indexed": false,
          "internalType": "uint256",
          "name": "gain",
          "type": "uint256"
        },
        {
          "indexed": false,
          "internalType": "uint256",
          "name": "loss",
          "type": "uint256"
        },
        {
          "indexed": false,
          "internalType": "uint256",
          "name": "debtPaid",
          "type": "uint256"
        },
        {
          "indexed": false,
          "internalType": "uint256",
          "name": "totalGain",
          "type": "uint256"
        },
        {
          "indexed": false,
          "internalType": "uint256",
          "name": "totalLoss",
          "type": "uint256"
        },
        {
          "indexed": false,
          "internalType": "uint256",
          "name": "totalDebt",
          "type": "uint256"
        },
        {
          "indexed": false,
          "internalType": "uint256",
          "name": "debtAdded",
          "type": "uint256"
        },
        {
          "indexed": false,
          "internalType": "uint256",
          "name": "debtRatio",
          "type": "uint256"
        },
        {
          "indexed": false,
          "internalType": "uint256",
          "name": "tokens",
          "type": "uint256"
        }
      ],
      "name": "StrategyReported",
      "type": "event"
    },
    {
      "anonymous": false,
      "inputs": [
        {
          "indexed": true,
          "internalType": "uint16",
          "name": "chainId",
          "type": "uint16"
        },
        {
          "indexed": true,
          "internalType": "address",
          "name": "strategy",
          "type": "address"
        },
        {
          "indexed": false,
          "internalType": "uint256",
          "name": "amount",
          "type": "uint256"
        },
        {
          "indexed": false,
          "internalType": "uint256",
          "name": "loss",
          "type": "uint256"
        },
        {
          "indexed": false,
          "internalType": "uint256",
          "name": "id",
          "type": "uint256"
        }
      ],
      "name": "StrategyWithdrawnSome",
      "type": "event"
    },
    {
      "anonymous": false,
      "inputs": [
        {
          "indexed": true,
          "internalType": "address",
          "name": "from",
          "type": "address"
        },
        {
          "indexed": true,
          "internalType": "address",
          "name": "to",
          "type": "address"
        },
        {
          "indexed": false,
          "internalType": "uint256",
          "name": "value",
          "type": "uint256"
        }
      ],
      "name": "Transfer",
      "type": "event"
    },
    {
      "inputs": [],
      "name": "DEFAULT_PAYLOAD_SIZE_LIMIT",
      "outputs": [
        {
          "internalType": "uint256",
          "name": "",
          "type": "uint256"
        }
      ],
      "stateMutability": "view",
      "type": "function"
    },
    {
      "inputs": [],
      "name": "MAX_BPS",
      "outputs": [
        {
          "internalType": "uint256",
          "name": "",
          "type": "uint256"
        }
      ],
      "stateMutability": "view",
      "type": "function"
    },
    {
      "inputs": [
        {
          "internalType": "uint16",
          "name": "_chainId",
          "type": "uint16"
        },
        {
          "internalType": "address",
          "name": "_strategy",
          "type": "address"
        },
        {
          "internalType": "uint256",
          "name": "_debtRatio",
          "type": "uint256"
        },
        {
          "internalType": "uint256",
          "name": "_performanceFee",
          "type": "uint256"
        },
        {
          "internalType": "address",
          "name": "_strategist",
          "type": "address"
        }
      ],
      "name": "addStrategy",
      "outputs": [],
      "stateMutability": "nonpayable",
      "type": "function"
    },
    {
      "inputs": [
        {
          "internalType": "address",
          "name": "owner",
          "type": "address"
        },
        {
          "internalType": "address",
          "name": "spender",
          "type": "address"
        }
      ],
      "name": "allowance",
      "outputs": [
        {
          "internalType": "uint256",
          "name": "",
          "type": "uint256"
        }
      ],
      "stateMutability": "view",
      "type": "function"
    },
    {
      "inputs": [
        {
          "internalType": "address",
          "name": "spender",
          "type": "address"
        },
        {
          "internalType": "uint256",
          "name": "amount",
          "type": "uint256"
        }
      ],
      "name": "approve",
      "outputs": [
        {
          "internalType": "bool",
          "name": "",
          "type": "bool"
        }
      ],
      "stateMutability": "nonpayable",
      "type": "function"
    },
    {
      "inputs": [
        {
          "internalType": "address",
          "name": "account",
          "type": "address"
        }
      ],
      "name": "balanceOf",
      "outputs": [
        {
          "internalType": "uint256",
          "name": "",
          "type": "uint256"
        }
      ],
      "stateMutability": "view",
      "type": "function"
    },
    {
      "inputs": [
        {
          "internalType": "uint16",
          "name": "_chainId",
          "type": "uint16"
        },
        {
          "internalType": "address",
          "name": "_strategy",
          "type": "address"
        }
      ],
      "name": "creditAvailable",
      "outputs": [
        {
          "internalType": "uint256",
          "name": "",
          "type": "uint256"
        }
      ],
      "stateMutability": "view",
      "type": "function"
    },
    {
      "inputs": [
        {
          "internalType": "uint16",
          "name": "_chainId",
          "type": "uint16"
        },
        {
          "internalType": "address",
          "name": "_strategy",
          "type": "address"
        }
      ],
      "name": "debtOutstanding",
      "outputs": [
        {
          "internalType": "uint256",
          "name": "",
          "type": "uint256"
        }
      ],
      "stateMutability": "view",
      "type": "function"
    },
    {
      "inputs": [],
      "name": "decimals",
      "outputs": [
        {
          "internalType": "uint8",
          "name": "",
          "type": "uint8"
        }
      ],
      "stateMutability": "view",
      "type": "function"
    },
    {
      "inputs": [
        {
          "internalType": "address",
          "name": "spender",
          "type": "address"
        },
        {
          "internalType": "uint256",
          "name": "subtractedValue",
          "type": "uint256"
        }
      ],
      "name": "decreaseAllowance",
      "outputs": [
        {
          "internalType": "bool",
          "name": "",
          "type": "bool"
        }
      ],
      "stateMutability": "nonpayable",
      "type": "function"
    },
    {
      "inputs": [
        {
          "internalType": "uint256",
          "name": "_amount",
          "type": "uint256"
        },
        {
          "internalType": "address",
          "name": "_recipient",
          "type": "address"
        }
      ],
      "name": "deposit",
      "outputs": [
        {
          "internalType": "uint256",
          "name": "",
          "type": "uint256"
        }
      ],
      "stateMutability": "nonpayable",
      "type": "function"
    },
    {
      "inputs": [],
      "name": "emergencyShutdown",
      "outputs": [
        {
          "internalType": "bool",
          "name": "",
          "type": "bool"
        }
      ],
      "stateMutability": "view",
      "type": "function"
    },
    {
      "inputs": [
        {
          "internalType": "uint16",
          "name": "",
          "type": "uint16"
        },
        {
          "internalType": "bytes",
          "name": "",
          "type": "bytes"
        },
        {
          "internalType": "uint64",
          "name": "",
          "type": "uint64"
        }
      ],
      "name": "failedMessages",
      "outputs": [
        {
          "internalType": "bytes32",
          "name": "",
          "type": "bytes32"
        }
      ],
      "stateMutability": "view",
      "type": "function"
    },
    {
      "inputs": [
        {
          "internalType": "uint16",
          "name": "_srcChainId",
          "type": "uint16"
        },
        {
          "internalType": "bytes",
          "name": "_srcAddress",
          "type": "bytes"
        }
      ],
      "name": "forceResumeReceive",
      "outputs": [],
      "stateMutability": "nonpayable",
      "type": "function"
    },
    {
      "inputs": [
        {
          "internalType": "uint16",
          "name": "_version",
          "type": "uint16"
        },
        {
          "internalType": "uint16",
          "name": "_chainId",
          "type": "uint16"
        },
        {
          "internalType": "address",
          "name": "",
          "type": "address"
        },
        {
          "internalType": "uint256",
          "name": "_configType",
          "type": "uint256"
        }
      ],
      "name": "getConfig",
      "outputs": [
        {
          "internalType": "bytes",
          "name": "",
          "type": "bytes"
        }
      ],
      "stateMutability": "view",
      "type": "function"
    },
    {
      "inputs": [
        {
          "internalType": "uint16",
          "name": "_remoteChainId",
          "type": "uint16"
        }
      ],
      "name": "getTrustedRemoteAddress",
      "outputs": [
        {
          "internalType": "bytes",
          "name": "",
          "type": "bytes"
        }
      ],
      "stateMutability": "view",
      "type": "function"
    },
    {
      "inputs": [],
      "name": "governance",
      "outputs": [
        {
          "internalType": "address",
          "name": "",
          "type": "address"
        }
      ],
      "stateMutability": "view",
      "type": "function"
    },
    {
      "inputs": [],
      "name": "handleWithdrawals",
      "outputs": [],
      "stateMutability": "nonpayable",
      "type": "function"
    },
    {
      "inputs": [
        {
          "internalType": "address",
          "name": "spender",
          "type": "address"
        },
        {
          "internalType": "uint256",
          "name": "addedValue",
          "type": "uint256"
        }
      ],
      "name": "increaseAllowance",
      "outputs": [
        {
          "internalType": "bool",
          "name": "",
          "type": "bool"
        }
      ],
      "stateMutability": "nonpayable",
      "type": "function"
    },
    {
      "inputs": [
        {
          "internalType": "address",
          "name": "_governance",
          "type": "address"
        },
        {
          "internalType": "address",
          "name": "_lzEndpoint",
          "type": "address"
        },
        {
          "internalType": "contract IERC20",
          "name": "_token",
          "type": "address"
        },
        {
          "internalType": "address",
          "name": "_sgBridge",
          "type": "address"
        },
        {
          "internalType": "address",
          "name": "_sgRouter",
          "type": "address"
        }
      ],
      "name": "initialize",
      "outputs": [],
      "stateMutability": "nonpayable",
      "type": "function"
    },
    {
      "inputs": [
        {
          "internalType": "uint16",
          "name": "_srcChainId",
          "type": "uint16"
        },
        {
          "internalType": "bytes",
          "name": "_srcAddress",
          "type": "bytes"
        }
      ],
      "name": "isTrustedRemote",
      "outputs": [
        {
          "internalType": "bool",
          "name": "",
          "type": "bool"
        }
      ],
      "stateMutability": "view",
      "type": "function"
    },
    {
      "inputs": [],
      "name": "lzEndpoint",
      "outputs": [
        {
          "internalType": "contract ILayerZeroEndpointUpgradeable",
          "name": "",
          "type": "address"
        }
      ],
      "stateMutability": "view",
      "type": "function"
    },
    {
      "inputs": [
        {
          "internalType": "uint16",
          "name": "_srcChainId",
          "type": "uint16"
        },
        {
          "internalType": "bytes",
          "name": "_srcAddress",
          "type": "bytes"
        },
        {
          "internalType": "uint64",
          "name": "_nonce",
          "type": "uint64"
        },
        {
          "internalType": "bytes",
          "name": "_payload",
          "type": "bytes"
        }
      ],
      "name": "lzReceive",
      "outputs": [],
      "stateMutability": "nonpayable",
      "type": "function"
    },
    {
      "inputs": [
        {
          "internalType": "uint16",
          "name": "_chainId",
          "type": "uint16"
        },
        {
          "internalType": "address",
          "name": "_oldStrategy",
          "type": "address"
        },
        {
          "internalType": "address",
          "name": "_newStrategy",
          "type": "address"
        }
      ],
      "name": "migrateStrategy",
      "outputs": [],
      "stateMutability": "nonpayable",
      "type": "function"
    },
    {
      "inputs": [
        {
          "internalType": "uint16",
          "name": "",
          "type": "uint16"
        },
        {
          "internalType": "uint16",
          "name": "",
          "type": "uint16"
        }
      ],
      "name": "minDstGasLookup",
      "outputs": [
        {
          "internalType": "uint256",
          "name": "",
          "type": "uint256"
        }
      ],
      "stateMutability": "view",
      "type": "function"
    },
    {
      "inputs": [],
      "name": "name",
      "outputs": [
        {
          "internalType": "string",
          "name": "",
          "type": "string"
        }
      ],
      "stateMutability": "view",
      "type": "function"
    },
    {
      "inputs": [
        {
          "internalType": "uint16",
          "name": "_srcChainId",
          "type": "uint16"
        },
        {
          "internalType": "bytes",
          "name": "_srcAddress",
          "type": "bytes"
        },
        {
          "internalType": "uint64",
          "name": "_nonce",
          "type": "uint64"
        },
        {
          "internalType": "bytes",
          "name": "_payload",
          "type": "bytes"
        }
      ],
      "name": "nonblockingLzReceive",
      "outputs": [],
      "stateMutability": "nonpayable",
      "type": "function"
    },
    {
      "inputs": [],
      "name": "owner",
      "outputs": [
        {
          "internalType": "address",
          "name": "",
          "type": "address"
        }
      ],
      "stateMutability": "view",
      "type": "function"
    },
    {
      "inputs": [
        {
          "internalType": "uint16",
          "name": "",
          "type": "uint16"
        }
      ],
      "name": "payloadSizeLimitLookup",
      "outputs": [
        {
          "internalType": "uint256",
          "name": "",
          "type": "uint256"
        }
      ],
      "stateMutability": "view",
      "type": "function"
    },
    {
      "inputs": [],
      "name": "precrime",
      "outputs": [
        {
          "internalType": "address",
          "name": "",
          "type": "address"
        }
      ],
      "stateMutability": "view",
      "type": "function"
    },
    {
      "inputs": [],
      "name": "pricePerShare",
      "outputs": [
        {
          "internalType": "uint256",
          "name": "",
          "type": "uint256"
        }
      ],
      "stateMutability": "view",
      "type": "function"
    },
    {
      "inputs": [],
      "name": "renounceOwnership",
      "outputs": [],
      "stateMutability": "nonpayable",
      "type": "function"
    },
    {
      "inputs": [
        {
          "internalType": "uint16",
          "name": "_srcChainId",
          "type": "uint16"
        },
        {
          "internalType": "bytes",
          "name": "_srcAddress",
          "type": "bytes"
        },
        {
          "internalType": "uint64",
          "name": "_nonce",
          "type": "uint64"
        },
        {
          "internalType": "bytes",
          "name": "_payload",
          "type": "bytes"
        }
      ],
      "name": "retryMessage",
      "outputs": [],
      "stateMutability": "payable",
      "type": "function"
    },
    {
      "inputs": [],
      "name": "revokeFunds",
      "outputs": [],
      "stateMutability": "nonpayable",
      "type": "function"
    },
    {
      "inputs": [
        {
          "internalType": "uint16",
          "name": "_chainId",
          "type": "uint16"
        },
        {
          "internalType": "address",
          "name": "_strategy",
          "type": "address"
        }
      ],
      "name": "revokeStrategy",
      "outputs": [],
      "stateMutability": "nonpayable",
      "type": "function"
    },
    {
      "inputs": [
        {
          "internalType": "uint16",
          "name": "_version",
          "type": "uint16"
        },
        {
          "internalType": "uint16",
          "name": "_chainId",
          "type": "uint16"
        },
        {
          "internalType": "uint256",
          "name": "_configType",
          "type": "uint256"
        },
        {
          "internalType": "bytes",
          "name": "_config",
          "type": "bytes"
        }
      ],
      "name": "setConfig",
      "outputs": [],
      "stateMutability": "nonpayable",
      "type": "function"
    },
    {
      "inputs": [
        {
          "internalType": "bool",
          "name": "_emergencyShutdown",
          "type": "bool"
        }
      ],
      "name": "setEmergencyShutdown",
      "outputs": [],
      "stateMutability": "nonpayable",
      "type": "function"
    },
    {
      "inputs": [
        {
          "internalType": "uint16",
          "name": "_dstChainId",
          "type": "uint16"
        },
        {
          "internalType": "uint16",
          "name": "_packetType",
          "type": "uint16"
        },
        {
          "internalType": "uint256",
          "name": "_minGas",
          "type": "uint256"
        }
      ],
      "name": "setMinDstGas",
      "outputs": [],
      "stateMutability": "nonpayable",
      "type": "function"
    },
    {
      "inputs": [
        {
          "internalType": "uint16",
          "name": "_dstChainId",
          "type": "uint16"
        },
        {
          "internalType": "uint256",
          "name": "_size",
          "type": "uint256"
        }
      ],
      "name": "setPayloadSizeLimit",
      "outputs": [],
      "stateMutability": "nonpayable",
      "type": "function"
    },
    {
      "inputs": [
        {
          "internalType": "address",
          "name": "_precrime",
          "type": "address"
        }
      ],
      "name": "setPrecrime",
      "outputs": [],
      "stateMutability": "nonpayable",
      "type": "function"
    },
    {
      "inputs": [
        {
          "internalType": "uint16",
          "name": "_version",
          "type": "uint16"
        }
      ],
      "name": "setReceiveVersion",
      "outputs": [],
      "stateMutability": "nonpayable",
      "type": "function"
    },
    {
      "inputs": [
        {
          "internalType": "uint16",
          "name": "_version",
          "type": "uint16"
        }
      ],
      "name": "setSendVersion",
      "outputs": [],
      "stateMutability": "nonpayable",
      "type": "function"
    },
    {
      "inputs": [
        {
          "internalType": "uint16",
          "name": "_srcChainId",
          "type": "uint16"
        },
        {
          "internalType": "bytes",
          "name": "_path",
          "type": "bytes"
        }
      ],
      "name": "setTrustedRemote",
      "outputs": [],
      "stateMutability": "nonpayable",
      "type": "function"
    },
    {
      "inputs": [
        {
          "internalType": "uint16",
          "name": "_remoteChainId",
          "type": "uint16"
        },
        {
          "internalType": "bytes",
          "name": "_remoteAddress",
          "type": "bytes"
        }
      ],
      "name": "setTrustedRemoteAddress",
      "outputs": [],
      "stateMutability": "nonpayable",
      "type": "function"
    },
    {
      "inputs": [],
      "name": "sgBridge",
      "outputs": [
        {
          "internalType": "contract ISgBridge",
          "name": "",
          "type": "address"
        }
      ],
      "stateMutability": "view",
      "type": "function"
    },
    {
      "inputs": [
        {
          "internalType": "uint16",
          "name": "_srcChainId",
          "type": "uint16"
        },
        {
          "internalType": "bytes",
          "name": "_srcAddress",
          "type": "bytes"
        },
        {
          "internalType": "uint256",
          "name": "",
          "type": "uint256"
        },
        {
          "internalType": "address",
          "name": "_token",
          "type": "address"
        },
        {
          "internalType": "uint256",
          "name": "_amountLD",
          "type": "uint256"
        },
        {
          "internalType": "bytes",
          "name": "_payload",
          "type": "bytes"
        }
      ],
      "name": "sgReceive",
      "outputs": [],
      "stateMutability": "nonpayable",
      "type": "function"
    },
    {
      "inputs": [],
      "name": "sgRouter",
      "outputs": [
        {
          "internalType": "address",
          "name": "",
          "type": "address"
        }
      ],
      "stateMutability": "view",
      "type": "function"
    },
    {
      "inputs": [
        {
          "internalType": "uint16",
          "name": "",
          "type": "uint16"
        },
        {
          "internalType": "address",
          "name": "",
          "type": "address"
        }
      ],
      "name": "strategies",
      "outputs": [
        {
          "internalType": "uint256",
          "name": "activation",
          "type": "uint256"
        },
        {
          "internalType": "uint256",
          "name": "debtRatio",
          "type": "uint256"
        },
        {
          "internalType": "uint256",
          "name": "totalDebt",
          "type": "uint256"
        },
        {
          "internalType": "uint256",
          "name": "totalGain",
          "type": "uint256"
        },
        {
          "internalType": "uint256",
          "name": "totalLoss",
          "type": "uint256"
        },
        {
          "internalType": "uint256",
          "name": "lastReport",
          "type": "uint256"
        },
        {
          "internalType": "uint256",
          "name": "performanceFee",
          "type": "uint256"
        },
        {
          "internalType": "address",
          "name": "strategist",
          "type": "address"
        }
      ],
      "stateMutability": "view",
      "type": "function"
    },
    {
      "inputs": [],
      "name": "symbol",
      "outputs": [
        {
          "internalType": "string",
          "name": "",
          "type": "string"
        }
      ],
      "stateMutability": "view",
      "type": "function"
    },
    {
      "inputs": [],
      "name": "token",
      "outputs": [
        {
          "internalType": "contract IERC20",
          "name": "",
          "type": "address"
        }
      ],
      "stateMutability": "view",
      "type": "function"
    },
    {
      "inputs": [],
      "name": "totalAssets",
      "outputs": [
        {
          "internalType": "uint256",
          "name": "",
          "type": "uint256"
        }
      ],
      "stateMutability": "view",
      "type": "function"
    },
    {
      "inputs": [],
      "name": "totalDebt",
      "outputs": [
        {
          "internalType": "uint256",
          "name": "",
          "type": "uint256"
        }
      ],
      "stateMutability": "view",
      "type": "function"
    },
    {
      "inputs": [],
      "name": "totalDebtRatio",
      "outputs": [
        {
          "internalType": "uint256",
          "name": "",
          "type": "uint256"
        }
      ],
      "stateMutability": "view",
      "type": "function"
    },
    {
      "inputs": [],
      "name": "totalIdle",
      "outputs": [
        {
          "internalType": "uint256",
          "name": "",
          "type": "uint256"
        }
      ],
      "stateMutability": "view",
      "type": "function"
    },
    {
      "inputs": [],
      "name": "totalSupply",
      "outputs": [
        {
          "internalType": "uint256",
          "name": "",
          "type": "uint256"
        }
      ],
      "stateMutability": "view",
      "type": "function"
    },
    {
      "inputs": [
        {
          "internalType": "address",
          "name": "to",
          "type": "address"
        },
        {
          "internalType": "uint256",
          "name": "amount",
          "type": "uint256"
        }
      ],
      "name": "transfer",
      "outputs": [
        {
          "internalType": "bool",
          "name": "",
          "type": "bool"
        }
      ],
      "stateMutability": "nonpayable",
      "type": "function"
    },
    {
      "inputs": [
        {
          "internalType": "address",
          "name": "from",
          "type": "address"
        },
        {
          "internalType": "address",
          "name": "to",
          "type": "address"
        },
        {
          "internalType": "uint256",
          "name": "amount",
          "type": "uint256"
        }
      ],
      "name": "transferFrom",
      "outputs": [
        {
          "internalType": "bool",
          "name": "",
          "type": "bool"
        }
      ],
      "stateMutability": "nonpayable",
      "type": "function"
    },
    {
      "inputs": [
        {
          "internalType": "address",
          "name": "newOwner",
          "type": "address"
        }
      ],
      "name": "transferOwnership",
      "outputs": [],
      "stateMutability": "nonpayable",
      "type": "function"
    },
    {
      "inputs": [
        {
          "internalType": "uint16",
          "name": "",
          "type": "uint16"
        }
      ],
      "name": "trustedRemoteLookup",
      "outputs": [
        {
          "internalType": "bytes",
          "name": "",
          "type": "bytes"
        }
      ],
      "stateMutability": "view",
      "type": "function"
    },
    {
      "inputs": [
        {
          "internalType": "uint16",
          "name": "_chainId",
          "type": "uint16"
        },
        {
          "internalType": "address",
          "name": "_strategy",
          "type": "address"
        },
        {
          "internalType": "uint256",
          "name": "_debtRatio",
          "type": "uint256"
        }
      ],
      "name": "updateStrategyDebtRatio",
      "outputs": [],
      "stateMutability": "nonpayable",
      "type": "function"
    },
    {
      "inputs": [
        {
          "internalType": "uint256",
          "name": "_maxShares",
          "type": "uint256"
        },
        {
          "internalType": "address",
          "name": "_recipient",
          "type": "address"
        },
        {
          "internalType": "uint256",
          "name": "_maxLoss",
          "type": "uint256"
        }
      ],
      "name": "withdraw",
      "outputs": [],
      "stateMutability": "nonpayable",
      "type": "function"
    },
    {
      "inputs": [],
      "name": "withdrawEpoch",
      "outputs": [
        {
          "internalType": "uint256",
          "name": "",
          "type": "uint256"
        }
      ],
      "stateMutability": "view",
      "type": "function"
    },
    {
      "stateMutability": "payable",
      "type": "receive"
    }
  ],
  "bytecode": "0x608060405234801561001057600080fd5b50615f0a80620000216000396000f3fe6080604052600436106102c05760003560e01c80621d3567146102cc57806301dc2eb1146102ee57806301e1d114146103215780630517cb761461033657806306fdde031461036457806307e0db1714610386578063095ea7b3146103a65780630a97c254146103d65780630df37483146103f657806310ddb137146104165780631459457a1461043657806314c644021461045657806318160ddd1461047657806323b872dd1461048b5780632d606843146104ab5780632df9eab9146104c0578063313ce567146104d65780633403c2fc146104fd57806337fded911461051857806339509351146105385780633d8b38f6146105585780633f1f4fa4146105785780634067cb9e146105a557806342d65a8d1461065c57806352106a491461067c5780635aa6e6751461069c5780635b8c41e6146106bc57806366ad5c8a1461070b5780636e553f651461072b57806370a082311461074b578063715018a6146107815780637533d788146107965780638cfd8f5c146107b65780638da5cb5b146107ee578063950c8a741461080357806395d89b411461082357806399530b06146108385780639aa7df941461084d5780639f38369a14610862578063a032a71214610882578063a457c2d7146108a2578063a6c3d165146108c2578063a9059cbb146108e2578063ab73ce4614610902578063ab8236f314610919578063b353aaa714610939578063baf3292d14610959578063c446183414610979578063cbed8b9c1461098f578063cfbcc644146109af578063d1deba1f146109cf578063dd62ed3e146109e2578063df2a5b3b14610a02578063e63697c814610a22578063e7fda06114610a42578063eb8d72b714610a62578063ef34253c14610a82578063f2fde38b14610a97578063f5ecbdbc14610ab7578063fc0c546a14610ad7578063fc7b9c1814610af7578063fd967f471461097957600080fd5b366102c757005b600080fd5b3480156102d857600080fd5b506102ec6102e7366004614d43565b610b0d565b005b3480156102fa57600080fd5b5061030e610309366004614deb565b610bd0565b6040519081526020015b60405180910390f35b34801561032d57600080fd5b5061030e610be5565b34801561034257600080fd5b5061010854610357906001600160a01b031681565b6040516103189190614e22565b34801561037057600080fd5b50610379610c01565b6040516103189190614e86565b34801561039257600080fd5b506102ec6103a1366004614e99565b610c93565b3480156103b257600080fd5b506103c66103c1366004614eb4565b610d00565b6040519015158152602001610318565b3480156103e257600080fd5b506102ec6103f1366004614ee0565b610d18565b34801561040257600080fd5b506102ec610411366004614f1f565b610ea7565b34801561042257600080fd5b506102ec610431366004614e99565b610ec6565b34801561044257600080fd5b506102ec610451366004614f3b565b610f02565b34801561046257600080fd5b506102ec610471366004614fba565b61112a565b34801561048257600080fd5b5060355461030e565b34801561049757600080fd5b506103c66104a6366004614fd7565b61118b565b3480156104b757600080fd5b506102ec6111af565b3480156104cc57600080fd5b5061030e60fe5481565b3480156104e257600080fd5b506104eb61122b565b60405160ff9091168152602001610318565b34801561050957600080fd5b50610100546103c69060ff1681565b34801561052457600080fd5b5060fd54610357906001600160a01b031681565b34801561054457600080fd5b506103c6610553366004614eb4565b611299565b34801561056457600080fd5b506103c6610573366004614ff7565b6112bb565b34801561058457600080fd5b5061030e610593366004614e99565b609a6020526000908152604090205481565b3480156105b157600080fd5b506106186105c0366004614deb565b610101602090815260009283526040808420909152908252902080546001820154600283015460038401546004850154600586015460068701546007909701549596949593949293919290916001600160a01b031688565b604080519889526020890197909752958701949094526060860192909252608085015260a084015260c08301526001600160a01b031660e082015261010001610318565b34801561066857600080fd5b506102ec610677366004614ff7565b611387565b34801561068857600080fd5b506102ec610697366004615049565b6113fa565b3480156106a857600080fd5b5060fb54610357906001600160a01b031681565b3480156106c857600080fd5b5061030e6106d7366004615184565b60c9602090815260009384526040808520845180860184018051928152908401958401959095209452929052825290205481565b34801561071757600080fd5b506102ec610726366004614d43565b611640565b34801561073757600080fd5b5061030e6107463660046151e1565b611714565b34801561075757600080fd5b5061030e610766366004615206565b6001600160a01b031660009081526033602052604090205490565b34801561078d57600080fd5b506102ec611720565b3480156107a257600080fd5b506103796107b1366004614e99565b611734565b3480156107c257600080fd5b5061030e6107d1366004615223565b609960209081526000928352604080842090915290825290205481565b3480156107fa57600080fd5b506103576117ce565b34801561080f57600080fd5b50609b54610357906001600160a01b031681565b34801561082f57600080fd5b506103796117dd565b34801561084457600080fd5b5061030e6117ec565b34801561085957600080fd5b5061030e611809565b34801561086e57600080fd5b5061037961087d366004614e99565b61187b565b34801561088e57600080fd5b506102ec61089d366004615256565b611991565b3480156108ae57600080fd5b506103c66108bd366004614eb4565b611d7e565b3480156108ce57600080fd5b506102ec6108dd366004614ff7565b611df9565b3480156108ee57600080fd5b506103c66108fd366004614eb4565b611e82565b34801561090e57600080fd5b5061030e6101025481565b34801561092557600080fd5b506102ec61093436600461529f565b611e90565b34801561094557600080fd5b50609754610357906001600160a01b031681565b34801561096557600080fd5b506102ec610974366004615206565b611fe0565b34801561098557600080fd5b5061030e61271081565b34801561099b57600080fd5b506102ec6109aa366004615339565b61203e565b3480156109bb57600080fd5b506102ec6109ca366004614deb565b6120b7565b6102ec6109dd366004614d43565b612112565b3480156109ee57600080fd5b5061030e6109fd3660046153a7565b612328565b348015610a0e57600080fd5b506102ec610a1d3660046153c5565b612353565b348015610a2e57600080fd5b506102ec610a3d366004615401565b612405565b348015610a4e57600080fd5b5061030e610a5d366004614deb565b612415565b348015610a6e57600080fd5b506102ec610a7d366004614ff7565b612421565b348015610a8e57600080fd5b506102ec61247b565b348015610aa357600080fd5b506102ec610ab2366004615206565b61279b565b348015610ac357600080fd5b50610379610ad2366004615428565b612811565b348015610ae357600080fd5b5060fc54610357906001600160a01b031681565b348015610b0357600080fd5b5061030e60ff5481565b6097546001600160a01b03163314610b525760405162461bcd60e51b81526020600482015260036024820152622b189960e91b60448201526064015b60405180910390fd5b610bc88686868080601f01602080910402602001604051908101604052809392919081815260200183838082843760009201919091525050604080516020601f8901819004810282018101909252878152899350915087908790819084018382808284376000920191909152506128a692505050565b505050505050565b6000610bdc838361291f565b90505b92915050565b6000610bef611809565b60ff54610bfc919061548b565b905090565b606060368054610c109061549e565b80601f0160208091040260200160405190810160405280929190818152602001828054610c3c9061549e565b8015610c895780601f10610c5e57610100808354040283529160200191610c89565b820191906000526020600020905b815481529060010190602001808311610c6c57829003601f168201915b5050505050905090565b610c9b6129e7565b6097546040516307e0db1760e01b815261ffff831660048201526001600160a01b03909116906307e0db17906024015b600060405180830381600087803b158015610ce557600080fd5b505af1158015610cf9573d6000803e3d6000fd5b5050505050565b600033610d0e818585612a46565b5060019392505050565b60fb546001600160a01b0316331480610d495750610d346117ce565b6001600160a01b0316336001600160a01b0316145b610d655760405162461bcd60e51b8152600401610b49906154d8565b61ffff83166000908152610101602090815260408083206001600160a01b0386168452909152902054610dd45760405162461bcd60e51b81526020600482015260176024820152765661756c743a3a496e616374697665537472617465677960481b6044820152606401610b49565b61ffff83166000908152610101602090815260408083206001600160a01b038616845290915281206001015460fe805491929091610e139084906154f4565b909155505061ffff83166000908152610101602090815260408083206001600160a01b0386168452909152902060010181905560fe5461271090610e5890839061548b565b1115610e8b5760405162461bcd60e51b81526020600482015260026024820152612b1b60f11b6044820152606401610b49565b8060fe6000828254610e9d919061548b565b9091555050505050565b610eaf6129e7565b61ffff9091166000908152609a6020526040902055565b610ece6129e7565b6097546040516310ddb13760e01b815261ffff831660048201526001600160a01b03909116906310ddb13790602401610ccb565b600054610100900460ff1615808015610f225750600054600160ff909116105b80610f435750610f3130612b6a565b158015610f43575060005460ff166001145b610fa65760405162461bcd60e51b815260206004820152602e60248201527f496e697469616c697a61626c653a20636f6e747261637420697320616c72656160448201526d191e481a5b9a5d1a585b1a5e995960921b6064820152608401610b49565b6000805460ff191660011790558015610fc9576000805461ff0019166101001790555b610fd285612b79565b610fda612bb1565b6110266040518060400160405280600f81526020016e13db5b9a58da185a5b8815985d5b1d608a1b8152506040518060400160405280600381526020016227a6ab60e91b815250612be0565b60fb80546001600160a01b038089166001600160a01b03199283161790925560fc8054878416908316811790915560fd805487851690841617905561010880549386169390921692909217905560405163095ea7b360e01b815263095ea7b39061109890869060001990600401615507565b6020604051808303816000875af11580156110b7573d6000803e3d6000fd5b505050506040513d601f19601f820116820180604052508101906110db9190615520565b508015610bc8576000805461ff0019169055604051600181527f7f26b83ff96e1f2b6a682f133852f6798a09c465da95921460cefb3847402498906020015b60405180910390a1505050505050565b60fb546001600160a01b031633148061115b57506111466117ce565b6001600160a01b0316336001600160a01b0316145b6111775760405162461bcd60e51b8152600401610b49906154d8565b610100805460ff1916911515919091179055565b600033611199858285612c11565b6111a4858585612c85565b506001949350505050565b60fb546001600160a01b03163314806111e057506111cb6117ce565b6001600160a01b0316336001600160a01b0316145b6111fc5760405162461bcd60e51b8152600401610b49906154d8565b60405133904780156108fc02916000818181858888f19350505050158015611228573d6000803e3d6000fd5b50565b60fc546040805163313ce56760e01b815290516000926001600160a01b03169163313ce5679160048083019260209291908290030181865afa158015611275573d6000803e3d6000fd5b505050506040513d601f19601f82011682018060405250810190610bfc919061553d565b600033610d0e8185856112ac8383612328565b6112b6919061548b565b612a46565b61ffff8316600090815260986020526040812080548291906112dc9061549e565b80601f01602080910402602001604051908101604052809291908181526020018280546113089061549e565b80156113555780601f1061132a57610100808354040283529160200191611355565b820191906000526020600020905b81548152906001019060200180831161133857829003601f168201915b50505050509050838360405161136c929190615560565b60405180910390208180519060200120149150509392505050565b61138f6129e7565b6097546040516342d65a8d60e01b81526001600160a01b03909116906342d65a8d906113c390869086908690600401615599565b600060405180830381600087803b1580156113dd57600080fd5b505af11580156113f1573d6000803e3d6000fd5b50505050505050565b60fb546001600160a01b031633148061142b57506114166117ce565b6001600160a01b0316336001600160a01b0316145b6114475760405162461bcd60e51b8152600401610b49906154d8565b61ffff85166000908152610101602090815260408083206001600160a01b0388168452909152902054156114a25760405162461bcd60e51b81526020600482015260026024820152612b1960f11b6044820152606401610b49565b6127108360fe546114b3919061548b565b11156114e65760405162461bcd60e51b8152602060048201526002602482015261563360f01b6044820152606401610b49565b60405180610100016040528042815260200184815260200160008152602001600081526020016000815260200160008152602001838152602001826001600160a01b031681525061010160008761ffff1661ffff1681526020019081526020016000206000866001600160a01b03166001600160a01b03168152602001908152602001600020600082015181600001556020820151816001015560408201518160020155606082015181600301556080820151816004015560a0820151816005015560c0820151816006015560e08201518160070160006101000a8154816001600160a01b0302191690836001600160a01b031602179055509050506116108461010360008861ffff1661ffff168152602001908152602001600020612e1e90919063ffffffff16565b5061162161010461ffff8716612e33565b508260fe6000828254611634919061548b565b90915550505050505050565b33301461169e5760405162461bcd60e51b815260206004820152602660248201527f4e6f6e626c6f636b696e674c7a4170703a2063616c6c6572206d7573742062656044820152650204c7a4170760d41b6064820152608401610b49565b610bc88686868080601f01602080910402602001604051908101604052809392919081815260200183838082843760009201919091525050604080516020601f890181900481028201810190925287815289935091508790879081908401838280828437600092019190915250612e3f92505050565b6000610bdc8383612edd565b6117286129e7565b6117326000612f41565b565b6098602052600090815260409020805461174d9061549e565b80601f01602080910402602001604051908101604052809291908181526020018280546117799061549e565b80156117c65780601f1061179b576101008083540402835291602001916117c6565b820191906000526020600020905b8154815290600101906020018083116117a957829003601f168201915b505050505081565b6065546001600160a01b031690565b606060378054610c109061549e565b6000610bfc6117f961122b565b61180490600a61569b565b612f93565b60fc546040516370a0823160e01b81526000916001600160a01b0316906370a082319061183a903090600401614e22565b602060405180830381865afa158015611857573d6000803e3d6000fd5b505050506040513d601f19601f82011682018060405250810190610bfc91906156aa565b61ffff811660009081526098602052604081208054606092919061189e9061549e565b80601f01602080910402602001604051908101604052809291908181526020018280546118ca9061549e565b80156119175780601f106118ec57610100808354040283529160200191611917565b820191906000526020600020905b8154815290600101906020018083116118fa57829003601f168201915b50505050509050805160000361196f5760405162461bcd60e51b815260206004820152601d60248201527f4c7a4170703a206e6f20747275737465642070617468207265636f72640000006044820152606401610b49565b61198a60006014835161198291906154f4565b839190612fc8565b9392505050565b60fb546001600160a01b03163314806119c257506119ad6117ce565b6001600160a01b0316336001600160a01b0316145b6119de5760405162461bcd60e51b8152600401610b49906154d8565b6001600160a01b038116611a195760405162461bcd60e51b8152602060048201526002602482015261563760f01b6044820152606401610b49565b61ffff83166000908152610101602090815260408083206001600160a01b0386168452909152902054611a735760405162461bcd60e51b81526020600482015260026024820152610ac760f31b6044820152606401610b49565b61ffff83166000908152610101602090815260408083206001600160a01b038516845290915290205415611ace5760405162461bcd60e51b8152602060048201526002602482015261563960f01b6044820152606401610b49565b600061010160008561ffff1661ffff1681526020019081526020016000206000846001600160a01b03166001600160a01b0316815260200190815260200160002060405180610100016040529081600082015481526020016001820154815260200160028201548152602001600382015481526020016004820154815260200160058201548152602001600682015481526020016007820160009054906101000a90046001600160a01b03166001600160a01b03166001600160a01b03168152505090506040518061010001604052808260a001518152602001826020015181526020018260400151815260200160008152602001600081526020018260a0015181526020018260c0015181526020018260e001516001600160a01b031681525061010160008661ffff1661ffff1681526020019081526020016000206000846001600160a01b03166001600160a01b03168152602001908152602001600020600082015181600001556020820151816001015560408201518160020155606082015181600301556080820151816004015560a0820151816005015560c0820151816006015560e08201518160070160006101000a8154816001600160a01b0302191690836001600160a01b03160217905550905050600061010160008661ffff1661ffff1681526020019081526020016000206000856001600160a01b03166001600160a01b0316815260200190815260200160002060010181905550600061010160008661ffff1661ffff1681526020019081526020016000206000856001600160a01b03166001600160a01b0316815260200190815260200160002060020181905550611d78848460046040518060200160405280876001600160a01b0316815250604051602001611d649291906156fb565b6040516020818303038152906040526130d5565b50505050565b60003381611d8c8286612328565b905083811015611dec5760405162461bcd60e51b815260206004820152602560248201527f45524332303a2064656372656173656420616c6c6f77616e63652062656c6f77604482015264207a65726f60d81b6064820152608401610b49565b6111a48286868403612a46565b611e016129e7565b818130604051602001611e1693929190615720565b60408051601f1981840301815291815261ffff8516600090815260986020522090611e41908261579c565b507f8c0400cfe2d1199b1a725c78960bcc2a344d869b80590d0f2bd005db15a572ce838383604051611e7593929190615599565b60405180910390a1505050565b600033610d0e818585612c85565b60fc546001600160a01b03848116911614611ed35760405162461bcd60e51b815260206004820152600360248201526205631360ec1b6044820152606401610b49565b610108546001600160a01b0316331480611ef7575060fd546001600160a01b031633145b80611f1a5750611f056117ce565b6001600160a01b0316336001600160a01b0316145b611f4c5760405162461bcd60e51b815260206004820152600360248201526256313160e81b6044820152606401610b49565b6000611f5a86826014612fc8565b604051602001611f6a9190615855565b604051602081830303815290604052611f8290615871565b60601c9050611f92878385613291565b604080518481526001600160a01b0383811660208301528616917f92073a89a07a000083eb8b2575fc15e7bb936efe55d00727d6942a796d7211a7910160405180910390a250505050505050565b611fe86129e7565b609b80546001600160a01b0319166001600160a01b0383161790556040517f5db758e995a17ec1ad84bdef7e8c3293a0bd6179bcce400dff5d4c3d87db726b90612033908390614e22565b60405180910390a150565b6120466129e7565b6097546040516332fb62e760e21b81526001600160a01b039091169063cbed8b9c9061207e90889088908890889088906004016158a8565b600060405180830381600087803b15801561209857600080fd5b505af11580156120ac573d6000803e3d6000fd5b505050505050505050565b60fb546001600160a01b03163314806120e857506120d36117ce565b6001600160a01b0316336001600160a01b0316145b6121045760405162461bcd60e51b8152600401610b49906154d8565b61210e8282613328565b5050565b61ffff8616600090815260c9602052604080822090516121359088908890615560565b90815260408051602092819003830190206001600160401b038716600090815292529020549050806121b55760405162461bcd60e51b815260206004820152602360248201527f4e6f6e626c6f636b696e674c7a4170703a206e6f2073746f726564206d65737360448201526261676560e81b6064820152608401610b49565b8083836040516121c6929190615560565b6040518091039020146122255760405162461bcd60e51b815260206004820152602160248201527f4e6f6e626c6f636b696e674c7a4170703a20696e76616c6964207061796c6f616044820152601960fa1b6064820152608401610b49565b61ffff8716600090815260c9602052604080822090516122489089908990615560565b90815260408051602092819003830181206001600160401b038916600090815290845282902093909355601f880182900482028301820190528682526122e0918991899089908190840183828082843760009201919091525050604080516020601f8a018190048102820181019092528881528a935091508890889081908401838280828437600092019190915250612e3f92505050565b7fc264d91f3adc5588250e1551f547752ca0cfa8f6b530d243b9f9f4cab10ea8e587878787856040516123179594939291906158d6565b60405180910390a150505050505050565b6001600160a01b03918216600090815260346020908152604080832093909416825291909152205490565b61235b6129e7565b600081116123a35760405162461bcd60e51b81526020600482015260156024820152744c7a4170703a20696e76616c6964206d696e47617360581b6044820152606401610b49565b61ffff83811660008181526099602090815260408083209487168084529482529182902085905581519283528201929092529081018290527f9d5c7c0b934da8fefa9c7760c98383778a12dfbfc0c3b3106518f43fb9508ac090606001611e75565b61241083838361339d565b505050565b6000610bdc83836134de565b6124296129e7565b61ffff83166000908152609860205260409020612447828483615911565b507ffa41487ad5d6728f0b19276fa1eddc16558578f5109fc39d2dc33c3230470dab838383604051611e7593929190615599565b60fb546001600160a01b03163314806124ac57506124976117ce565b6001600160a01b0316336001600160a01b0316145b6124c85760405162461bcd60e51b8152600401610b49906154d8565b610102546000908152610106602052604090206001015460ff16156125145760405162461bcd60e51b8152602060048201526002602482015261158d60f21b6044820152606401610b49565b6000805b61010254600090815261010660205260409020548110156125955761010254600090815261010660205260408120805483908110612558576125586159ca565b906000526020600020906006020190506125758160020154612f93565b61257f908461548b565b925050808061258d906159e0565b915050612518565b5061259e611809565b81116125ac57611228613596565b60006125b6611809565b6125c090836154f4565b90506000805b6125d16101046138ac565b811080156125df5750600083115b156127305760006125f2610104836138b6565b61ffff81166000908152610103602052604081209192505b612613826138ac565b811080156126215750600086115b1561271a57600061263283836138b6565b61ffff85166000908152610101602090815260408083206001600160a01b038516845290915281206002810154929350919003612670575050612708565b60006126808983600201546138c2565b6101025460009081526101066020908152604080832061ffff8b16845260050182528083206001600160a01b0388168452909152902081905590506126c5818a6154f4565b98506126f786846000604051806040016040528086815260200161010254815250604051602001611d649291906159f9565b87612701816159e0565b9850505050505b80612712816159e0565b91505061260a565b5050508080612728906159e0565b9150506125c6565b50600081116127665760405162461bcd60e51b8152602060048201526002602482015261563560f01b6044820152606401610b49565b6101028054600090815261010660205260408082206002019390935590548152206001908101805460ff191690911790555050565b6127a36129e7565b6001600160a01b0381166128085760405162461bcd60e51b815260206004820152602660248201527f4f776e61626c653a206e6577206f776e657220697320746865207a65726f206160448201526564647265737360d01b6064820152608401610b49565b61122881612f41565b609754604051633d7b2f6f60e21b815261ffff808716600483015285166024820152306044820152606481018390526060916001600160a01b03169063f5ecbdbc90608401600060405180830381865afa158015612873573d6000803e3d6000fd5b505050506040513d6000823e601f3d908101601f1916820160405261289b9190810190615a64565b90505b949350505050565b6000806129095a60966366ad5c8a60e01b898989896040516024016128ce9493929190615a98565b60408051601f198184030181529190526020810180516001600160e01b03166001600160e01b031990931692909217909152309291906138d8565b9150915081610bc857610bc88686868685613964565b6101005460009060ff161561293657506000610bdf565b6000612710612943610be5565b61ffff86166000908152610101602090815260408083206001600160a01b03891684529091529020600101546129799190615ad6565b6129839190615aed565b61ffff85166000908152610101602090815260408083206001600160a01b03881684529091529020600201549091508082116129c457600092505050610bdf565b6129de6129cf611809565b6129d983856154f4565b6138c2565b95945050505050565b336129f06117ce565b6001600160a01b0316146117325760405162461bcd60e51b815260206004820181905260248201527f4f776e61626c653a2063616c6c6572206973206e6f7420746865206f776e65726044820152606401610b49565b6001600160a01b038316612aa85760405162461bcd60e51b8152602060048201526024808201527f45524332303a20617070726f76652066726f6d20746865207a65726f206164646044820152637265737360e01b6064820152608401610b49565b6001600160a01b038216612b095760405162461bcd60e51b815260206004820152602260248201527f45524332303a20617070726f766520746f20746865207a65726f206164647265604482015261737360f01b6064820152608401610b49565b6001600160a01b0383811660008181526034602090815260408083209487168084529482529182902085905590518481527f8c5be1e5ebec7d5bd14f71427d1e84f3dd0314c0f7b2291e5b200ac8c7c3b925910160405180910390a3505050565b6001600160a01b03163b151590565b600054610100900460ff16612ba05760405162461bcd60e51b8152600401610b4990615b0f565b612ba8613a01565b61122881613a31565b600054610100900460ff16612bd85760405162461bcd60e51b8152600401610b4990615b0f565b611732613a01565b600054610100900460ff16612c075760405162461bcd60e51b8152600401610b4990615b0f565b61210e8282613a7a565b6000612c1d8484612328565b90506000198114611d785781811015612c785760405162461bcd60e51b815260206004820152601d60248201527f45524332303a20696e73756666696369656e7420616c6c6f77616e63650000006044820152606401610b49565b611d788484848403612a46565b6001600160a01b038316612ce95760405162461bcd60e51b815260206004820152602560248201527f45524332303a207472616e736665722066726f6d20746865207a65726f206164604482015264647265737360d81b6064820152608401610b49565b6001600160a01b038216612d4b5760405162461bcd60e51b815260206004820152602360248201527f45524332303a207472616e7366657220746f20746865207a65726f206164647260448201526265737360e81b6064820152608401610b49565b6001600160a01b03831660009081526033602052604090205481811015612dc35760405162461bcd60e51b815260206004820152602660248201527f45524332303a207472616e7366657220616d6f756e7420657863656564732062604482015265616c616e636560d01b6064820152608401610b49565b6001600160a01b038085166000818152603360205260408082208686039055928616808252908390208054860190559151600080516020615eb583398151915290612e119086815260200190565b60405180910390a3611d78565b6000610bdc836001600160a01b038416613aba565b6000610bdc8383613aba565b6000612e4d84826014612fc8565b604051602001612e5d9190615855565b604051602081830303815290604052612e7590615871565b61ffff861660009081526101016020908152604080832060609490941c80845293909152902054909150612ed15760405162461bcd60e51b815260206004820152600360248201526256323160e81b6044820152606401610b49565b610cf985836000613291565b6101005460009060ff1615612f1a5760405162461bcd60e51b815260206004820152600360248201526256313360e81b6044820152606401610b49565b6000612f268385613b09565b60fc54909150610bdc906001600160a01b0316333087613b85565b606580546001600160a01b038381166001600160a01b0319831681179093556040519116919082907f8be0079c531659141344cd1fd0a4f28419497f9722a3daafe3b4186f6b6457e090600090a35050565b6000612f9e60355490565b600003612fa9575090565b603554612fb4610be5565b612fbe9084615ad6565b610bdf9190615aed565b606081612fd681601f61548b565b10156130155760405162461bcd60e51b815260206004820152600e60248201526d736c6963655f6f766572666c6f7760901b6044820152606401610b49565b61301f828461548b565b845110156130635760405162461bcd60e51b8152602060048201526011602482015270736c6963655f6f75744f66426f756e647360781b6044820152606401610b49565b60608215801561308257604051915060008252602082016040526130cc565b6040519150601f8416801560200281840101858101878315602002848b0101015b818310156130bb5780518352602092830192016130a3565b5050858452601f01601f1916604052505b50949350505050565b61ffff83166000908152610101602090815260408083206001600160a01b0386168452909152902080546131315760405162461bcd60e51b81526020600482015260036024820152620ac62760eb1b6044820152606401610b49565b6040516001600160601b0319606085811b8216602084015230901b16603482015260009060480160408051601f198184030181529190526097549091506000906001600160a01b03166340a7bb108730878561318b613bf0565b6040518663ffffffff1660e01b81526004016131ab959493929190615b5a565b6040805180830381865afa1580156131c7573d6000803e3d6000fd5b505050506040513d601f19601f820116820180604052508101906131eb9190615bae565b509050804710156132175760405162fae2d560e21b815260048101829052476024820152604401610b49565b6097546001600160a01b031663c5803100828885883080613236613bf0565b6040518863ffffffff1660e01b815260040161325796959493929190615bd2565b6000604051808303818588803b15801561327057600080fd5b505af1158015613284573d6000803e3d6000fd5b5050505050505050505050565b6000828060200190518101906132a79190615c39565b905060028160048111156132bd576132bd6156c3565b036132ec576000838060200190518101906132d89190615c65565b9150506132e6858285613c20565b50611d78565b6001816004811115613300576133006156c3565b03611d785760008380602001905181019061331b9190615d50565b915050610cf98582614056565b61ffff82166000908152610101602090815260408083206001600160a01b038516845290915281206001015460fe8054919290916133679084906154f4565b909155505061ffff9091166000908152610101602090815260408083206001600160a01b03909416835292905290812060010155565b610102546000908152610106602052604090206001015460ff16156133ea5760405162461bcd60e51b81526020600482015260036024820152622b189b60e91b6044820152606401610b49565b6133f5333085612c85565b61010660006101025481526020019081526020016000206000016040518060c00160405280336001600160a01b03168152602001846001600160a01b0316815260200185815260200183815260200161344d86612f93565b81526000602091820181905283546001808201865594825290829020835160069092020180546001600160a01b03199081166001600160a01b039384161782559284015194810180549093169490911693909317905560408101516002830155606081015160038301556080810151600483015560a001516005909101805460ff1916911515919091179055505050565b6000806127106134ec610be5565b61ffff86166000908152610101602090815260408083206001600160a01b03891684529091529020600101546135229190615ad6565b61352c9190615aed565b61ffff85166000908152610101602090815260408083206001600160a01b0388168452909152902060020154610100549192509060ff1615613571579150610bdf9050565b81811161358357600092505050610bdf565b61358d82826154f4565b92505050610bdf565b6101025460009081526101066020526040902054806135dd5760405162461bcd60e51b815260206004820152600360248201526256313960e81b6044820152606401610b49565b6000816001600160401b038111156135f7576135f7615098565b604051908082528060200260200182016040528015613620578160200160208202803683370190505b50905060005b828110156136a05761010254600090815261010660205260408120805483908110613653576136536159ca565b906000526020600020906006020190506136708160020154612f93565b838381518110613682576136826159ca565b60209081029190910101525080613698816159e0565b915050613626565b5060005b8281101561383957610102546000908152610106602052604081208054839081106136d1576136d16159ca565b9060005260206000209060060201905060006137088484815181106136f8576136f86159ca565b60200260200101516129d9611809565b905081600401548110156137e757600081836004015461372891906154f4565b9050600083600401546127108361373f9190615ad6565b6137499190615aed565b905083600301548111156137e45760058401805460ff191690558354600285015460405163a9059cbb60e01b8152309263a9059cbb92613797926001600160a01b0390921691600401615507565b6020604051808303816000875af11580156137b6573d6000803e3d6000fd5b505050506040513d601f19601f820116820180604052508101906137da9190615520565b5050505050613827565b50505b60058201805460ff1916600190811790915582015460fc54613816916001600160a01b03918216911683614231565b613824308360020154614250565b50505b80613831816159e0565b9150506136a4565b506101025460408051918252602082018490527fc682eb885c208b8aaaa811c05902e24a4f14b388960311623a8f31404f655129910160405180910390a16101028054600090815261010660205260408120600101805460ff19169055815491906138a3836159e0565b91905055505050565b6000610bdf825490565b6000610bdc8383614372565b60008183106138d15781610bdc565b5090919050565b6000606060008060008661ffff166001600160401b038111156138fd576138fd615098565b6040519080825280601f01601f191660200182016040528015613927576020820181803683370190505b50905060008087516020890160008d8df191503d925086831115613949578692505b828152826000602083013e9093509150505b94509492505050565b818051906020012060c960008761ffff1661ffff168152602001908152602001600020856040516139959190615855565b9081526040805191829003602090810183206001600160401b0388166000908152915220919091557fe183f33de2837795525b4792ca4cd60535bd77c53b7e7030060bfcf5734d6b0c906139f29087908790879087908790615ddb565b60405180910390a15050505050565b600054610100900460ff16613a285760405162461bcd60e51b8152600401610b4990615b0f565b61173233612f41565b600054610100900460ff16613a585760405162461bcd60e51b8152600401610b4990615b0f565b609780546001600160a01b0319166001600160a01b0392909216919091179055565b600054610100900460ff16613aa15760405162461bcd60e51b8152600401610b4990615b0f565b6036613aad838261579c565b506037612410828261579c565b6000818152600183016020526040812054613b0157508154600181810184556000848152602080822090930184905584548482528286019093526040902091909155610bdf565b506000610bdf565b600080613b1560355490565b600003613b23575081613b45565b613b2b610be5565b603554613b389085615ad6565b613b429190615aed565b90505b60008111613b7b5760405162461bcd60e51b815260206004820152600360248201526256313760e81b6044820152606401610b49565b610bdc848261439c565b6040516001600160a01b0380851660248301528316604482015260648101829052611d789085906323b872dd60e01b906084015b60408051601f198184030181529190526020810180516001600160e01b03166001600160e01b03199093169290921790915261444b565b60408051600160f01b6020820152620f424060228083019190915282518083039091018152604290910190915290565b613c2a8383614520565b61ffff831660009081526101016020908152604080832085516001600160a01b03168452909152902054613c865760405162461bcd60e51b8152602060048201526003602482015262158c4d60ea1b6044820152606401610b49565b606082015115613ca357613ca383836000015184606001516146ff565b60408083015161ffff85166000908152610101602090815283822086516001600160a01b031683529052918220600301805491929091613ce490849061548b565b90915550508151600090613cf99085906134de565b90506000613d0b8285608001516138c2565b90508015613d7b5761ffff851660009081526101016020908152604080832087516001600160a01b0316845290915281206002018054839290613d4f9084906154f4565b925050819055508060ff6000828254613d6891906154f4565b90915550613d78905081836154f4565b91505b60e084015115613de85760e084015161ffff861660009081526101016020908152604080832088516001600160a01b0316845290915281206002018054909190613dc690849061548b565b909155505060e084015160ff8054600090613de290849061548b565b90915550505b60208085015161ffff8716600081815261010180855260408083208a516001600160a01b039081168552818852828520600501969096559383529085528851909316815292529020600101541580613e4357506101005460ff165b15613e515783610100015191505b60a084015115613ea457613e9f8460a001518686600001516003604051806020016040528088815250604051602001613e8b929190615e2d565b6040516020818303038152906040526147f4565b613ecf565b613ecf8585600001516003604051806020016040528087815250604051602001611d64929190615e2d565b600061010160008761ffff1661ffff168152602001908152602001600020600086600001516001600160a01b03166001600160a01b0316815260200190815260200160002060405180610100016040529081600082015481526020016001820154815260200160028201548152602001600382015481526020016004820154815260200160058201548152602001600682015481526020016007820160009054906101000a90046001600160a01b03166001600160a01b03166001600160a01b03168152505090507f08bc8eff67f79e18165507d64024f5ca5e90a2593c7a45cb5caf7f9d843e404c8686600001518760400151886060015189608001518660600151876080015188604001518d60e001518a602001518e60405161111a9b9a9998979695949392919061ffff9b909b168b526001600160a01b039990991660208b015260408a01979097526060890195909552608088019390935260a087019190915260c086015260e08501526101008401526101208301526101408201526101600190565b61ffff821660009081526101016020908152604080832084516001600160a01b031684529091529020546140b25760405162461bcd60e51b815260206004820152600360248201526205632360ec1b6044820152606401610b49565b6040810151156140cf576140cf82826000015183604001516146ff565b60208082015161ffff841660009081526101018352604080822085516001600160a01b031683529093529182206002018054919290916141109084906154f4565b9091555050602081015160ff805460009061412c9084906154f4565b90915550506060810151600090815261010660205260408120600301805491614154836159e0565b909155505060608101805160009081526101066020818152604080842061ffff88168552600401825280842086516001600160a01b031685528252808420805460ff19166001179055845184529190528082206003015492518252902060020154036141c2576141c2613596565b80600001516001600160a01b03168261ffff167f046368a4ca42efbdd968b9025440eb5590bdcda7da09f4fef8ac4ef2f44a5ed0836020015184604001518560600151604051614225939291909283526020830191909152604082015260600190565b60405180910390a35050565b6124108363a9059cbb60e01b8484604051602401613bb9929190615507565b6001600160a01b0382166142b05760405162461bcd60e51b815260206004820152602160248201527f45524332303a206275726e2066726f6d20746865207a65726f206164647265736044820152607360f81b6064820152608401610b49565b6001600160a01b038216600090815260336020526040902054818110156143245760405162461bcd60e51b815260206004820152602260248201527f45524332303a206275726e20616d6f756e7420657863656564732062616c616e604482015261636560f01b6064820152608401610b49565b6001600160a01b0383166000818152603360209081526040808320868603905560358054879003905551858152919291600080516020615eb5833981519152910160405180910390a3505050565b6000826000018281548110614389576143896159ca565b9060005260206000200154905092915050565b6001600160a01b0382166143f25760405162461bcd60e51b815260206004820152601f60248201527f45524332303a206d696e7420746f20746865207a65726f2061646472657373006044820152606401610b49565b8060356000828254614404919061548b565b90915550506001600160a01b038216600081815260336020908152604080832080548601905551848152600080516020615eb5833981519152910160405180910390a35050565b60006144a0826040518060400160405280602081526020017f5361666545524332303a206c6f772d6c6576656c2063616c6c206661696c6564815250856001600160a01b03166148e49092919063ffffffff16565b90508051600014806144c15750808060200190518101906144c19190615520565b6124105760405162461bcd60e51b815260206004820152602a60248201527f5361666545524332303a204552433230206f7065726174696f6e20646964206e6044820152691bdd081cdd58d8d9595960b21b6064820152608401610b49565b61ffff821660009081526101076020908152604080832084516001600160a01b031684528252808320610120850151845290915290205460ff161561458d5760405162461bcd60e51b81526020600482015260036024820152622b191960e91b6044820152606401610b49565b805161012082015160405160609290921b6001600160601b0319166020830152603482015260f083901b6001600160f01b031916605482015260009060560160405160208183030381529060405280519060200120905060008160405160200161462291907b0ca2ba3432b932bab69029b4b3b732b21026b2b9b9b0b3b29d05199960211b8152601c810191909152603c0190565b60408051601f19818403018152918152815160209283012061ffff87166000908152610101845282812087516001600160a01b039081168352945291909120600701546101408601519193509091169061467d9083906148f3565b6001600160a01b0316146146b95760405162461bcd60e51b815260206004820152600360248201526256323360e81b6044820152606401610b49565b505061ffff90911660009081526101076020908152604080832084516001600160a01b03168452825280832061012090940151835292905220805460ff19166001179055565b61ffff83166000908152610101602090815260408083206001600160a01b03861684529091529020600201548111156147605760405162461bcd60e51b815260206004820152600360248201526256313560e81b6044820152606401610b49565b61ffff83166000908152610101602090815260408083206001600160a01b03861684529091528120600401805483929061479b90849061548b565b909155505061ffff83166000908152610101602090815260408083206001600160a01b0386168452909152812060020180548392906147db9084906154f4565b925050819055508060ff6000828254610e9d91906154f4565b60fd54604051630dc6346160e01b81526000916001600160a01b031690630dc634619061482990879087908790600401615e49565b602060405180830381865afa158015614846573d6000803e3d6000fd5b505050506040513d601f19601f8201168201806040525081019061486a91906156aa565b60fd5460fc54604051633920455b60e11b81529293506001600160a01b03918216926372408ab69285926148ab929116908a908a908a908a90600401615e77565b6000604051808303818588803b1580156148c457600080fd5b505af11580156148d8573d6000803e3d6000fd5b50505050505050505050565b606061289e8484600085614917565b600080600061490285856149f2565b9150915061490f81614a37565b509392505050565b6060824710156149785760405162461bcd60e51b815260206004820152602660248201527f416464726573733a20696e73756666696369656e742062616c616e636520666f6044820152651c8818d85b1b60d21b6064820152608401610b49565b600080866001600160a01b031685876040516149949190615855565b60006040518083038185875af1925050503d80600081146149d1576040519150601f19603f3d011682016040523d82523d6000602084013e6149d6565b606091505b50915091506149e787838387614b7c565b979650505050505050565b6000808251604103614a285760208301516040840151606085015160001a614a1c87828585614bf3565b94509450505050614a30565b506000905060025b9250929050565b6000816004811115614a4b57614a4b6156c3565b03614a535750565b6001816004811115614a6757614a676156c3565b03614aaf5760405162461bcd60e51b815260206004820152601860248201527745434453413a20696e76616c6964207369676e617475726560401b6044820152606401610b49565b6002816004811115614ac357614ac36156c3565b03614b105760405162461bcd60e51b815260206004820152601f60248201527f45434453413a20696e76616c6964207369676e6174757265206c656e677468006044820152606401610b49565b6003816004811115614b2457614b246156c3565b036112285760405162461bcd60e51b815260206004820152602260248201527f45434453413a20696e76616c6964207369676e6174757265202773272076616c604482015261756560f01b6064820152608401610b49565b60608315614be9578251600003614be257614b9685612b6a565b614be25760405162461bcd60e51b815260206004820152601d60248201527f416464726573733a2063616c6c20746f206e6f6e2d636f6e74726163740000006044820152606401610b49565b508161289e565b61289e8383614caa565b6000806fa2a8918ca85bafe22016d0b997e4df60600160ff1b03831115614c20575060009050600361395b565b6040805160008082526020820180845289905260ff881692820192909252606081018690526080810185905260019060a0016020604051602081039080840390855afa158015614c74573d6000803e3d6000fd5b5050604051601f1901519150506001600160a01b038116614c9d5760006001925092505061395b565b9660009650945050505050565b815115614cba5781518083602001fd5b8060405162461bcd60e51b8152600401610b499190614e86565b803561ffff81168114614ce657600080fd5b919050565b60008083601f840112614cfd57600080fd5b5081356001600160401b03811115614d1457600080fd5b602083019150836020828501011115614a3057600080fd5b80356001600160401b0381168114614ce657600080fd5b60008060008060008060808789031215614d5c57600080fd5b614d6587614cd4565b955060208701356001600160401b0380821115614d8157600080fd5b614d8d8a838b01614ceb565b9097509550859150614da160408a01614d2c565b94506060890135915080821115614db757600080fd5b50614dc489828a01614ceb565b979a9699509497509295939492505050565b6001600160a01b038116811461122857600080fd5b60008060408385031215614dfe57600080fd5b614e0783614cd4565b91506020830135614e1781614dd6565b809150509250929050565b6001600160a01b0391909116815260200190565b60005b83811015614e51578181015183820152602001614e39565b50506000910152565b60008151808452614e72816020860160208601614e36565b601f01601f19169290920160200192915050565b602081526000610bdc6020830184614e5a565b600060208284031215614eab57600080fd5b610bdc82614cd4565b60008060408385031215614ec757600080fd5b8235614ed281614dd6565b946020939093013593505050565b600080600060608486031215614ef557600080fd5b614efe84614cd4565b92506020840135614f0e81614dd6565b929592945050506040919091013590565b60008060408385031215614f3257600080fd5b614ed283614cd4565b600080600080600060a08688031215614f5357600080fd5b8535614f5e81614dd6565b94506020860135614f6e81614dd6565b93506040860135614f7e81614dd6565b92506060860135614f8e81614dd6565b91506080860135614f9e81614dd6565b809150509295509295909350565b801515811461122857600080fd5b600060208284031215614fcc57600080fd5b8135610bdc81614fac565b600080600060608486031215614fec57600080fd5b8335614efe81614dd6565b60008060006040848603121561500c57600080fd5b61501584614cd4565b925060208401356001600160401b0381111561503057600080fd5b61503c86828701614ceb565b9497909650939450505050565b600080600080600060a0868803121561506157600080fd5b61506a86614cd4565b9450602086013561507a81614dd6565b935060408601359250606086013591506080860135614f9e81614dd6565b634e487b7160e01b600052604160045260246000fd5b60405161016081016001600160401b03811182821017156150d1576150d1615098565b60405290565b604051601f8201601f191681016001600160401b03811182821017156150ff576150ff615098565b604052919050565b60006001600160401b0382111561512057615120615098565b50601f01601f191660200190565b600082601f83011261513f57600080fd5b813561515261514d82615107565b6150d7565b81815284602083860101111561516757600080fd5b816020850160208301376000918101602001919091529392505050565b60008060006060848603121561519957600080fd5b6151a284614cd4565b925060208401356001600160401b038111156151bd57600080fd5b6151c98682870161512e565b9250506151d860408501614d2c565b90509250925092565b600080604083850312156151f457600080fd5b823591506020830135614e1781614dd6565b60006020828403121561521857600080fd5b8135610bdc81614dd6565b6000806040838503121561523657600080fd5b61523f83614cd4565b915061524d60208401614cd4565b90509250929050565b60008060006060848603121561526b57600080fd5b61527484614cd4565b9250602084013561528481614dd6565b9150604084013561529481614dd6565b809150509250925092565b60008060008060008060c087890312156152b857600080fd5b6152c187614cd4565b955060208701356001600160401b03808211156152dd57600080fd5b6152e98a838b0161512e565b9650604089013595506060890135915061530282614dd6565b9093506080880135925060a0880135908082111561531f57600080fd5b5061532c89828a0161512e565b9150509295509295509295565b60008060008060006080868803121561535157600080fd5b61535a86614cd4565b945061536860208701614cd4565b93506040860135925060608601356001600160401b0381111561538a57600080fd5b61539688828901614ceb565b969995985093965092949392505050565b600080604083850312156153ba57600080fd5b8235614e0781614dd6565b6000806000606084860312156153da57600080fd5b6153e384614cd4565b92506153f160208501614cd4565b9150604084013590509250925092565b60008060006060848603121561541657600080fd5b833592506020840135614f0e81614dd6565b6000806000806080858703121561543e57600080fd5b61544785614cd4565b935061545560208601614cd4565b9250604085013561546581614dd6565b9396929550929360600135925050565b634e487b7160e01b600052601160045260246000fd5b80820180821115610bdf57610bdf615475565b600181811c908216806154b257607f821691505b6020821081036154d257634e487b7160e01b600052602260045260246000fd5b50919050565b602080825260029082015261563160f01b604082015260600190565b81810381811115610bdf57610bdf615475565b6001600160a01b03929092168252602082015260400190565b60006020828403121561553257600080fd5b8151610bdc81614fac565b60006020828403121561554f57600080fd5b815160ff81168114610bdc57600080fd5b8183823760009101908152919050565b81835281816020850137506000828201602090810191909152601f909101601f19169091010190565b61ffff8416815260406020820152600061289b604083018486615570565b600181815b808511156155f25781600019048211156155d8576155d8615475565b808516156155e557918102915b93841c93908002906155bc565b509250929050565b60008261560957506001610bdf565b8161561657506000610bdf565b816001811461562c576002811461563657615652565b6001915050610bdf565b60ff84111561564757615647615475565b50506001821b610bdf565b5060208310610133831016604e8410600b8410161715615675575081810a610bdf565b61567f83836155b7565b806000190482111561569357615693615475565b029392505050565b6000610bdc60ff8416836155fa565b6000602082840312156156bc57600080fd5b5051919050565b634e487b7160e01b600052602160045260246000fd5b600581106156f757634e487b7160e01b600052602160045260246000fd5b9052565b6040810161570982856156d9565b91516001600160a01b031660209190910152919050565b8284823760609190911b6001600160601b0319169101908152601401919050565b601f82111561241057600081815260208120601f850160051c810160208610156157685750805b601f850160051c820191505b81811015610bc857828155600101615774565b600019600383901b1c191660019190911b1790565b81516001600160401b038111156157b5576157b5615098565b6157c9816157c3845461549e565b84615741565b602080601f8311600181146157f857600084156157e65750858301515b6157f08582615787565b865550610bc8565b600085815260208120601f198616915b8281101561582757888601518255948401946001909101908401615808565b50858210156158455787850151600019600388901b60f8161c191681555b5050505050600190811b01905550565b60008251615867818460208701614e36565b9190910192915050565b805160208201516001600160601b031980821692919060148310156158a05780818460140360031b1b83161693505b505050919050565b600061ffff8088168352808716602084015250846040830152608060608301526149e7608083018486615570565b61ffff861681526080602082015260006158f4608083018688615570565b6001600160401b0394909416604083015250606001529392505050565b6001600160401b0383111561592857615928615098565b61593c83615936835461549e565b83615741565b6000601f84116001811461596a57600085156159585750838201355b6159628682615787565b845550610cf9565b600083815260209020601f19861690835b8281101561599b578685013582556020948501946001909201910161597b565b50868210156159b85760001960f88860031b161c19848701351681555b505060018560011b0183555050505050565b634e487b7160e01b600052603260045260246000fd5b6000600182016159f2576159f2615475565b5060010190565b60608101615a0782856156d9565b82516020830152602083015160408301529392505050565b600082601f830112615a3057600080fd5b8151615a3e61514d82615107565b818152846020838601011115615a5357600080fd5b61289e826020830160208701614e36565b600060208284031215615a7657600080fd5b81516001600160401b03811115615a8c57600080fd5b61289e84828501615a1f565b61ffff85168152608060208201526000615ab56080830186614e5a565b6001600160401b038516604084015282810360608401526149e78185614e5a565b8082028115828204841417610bdf57610bdf615475565b600082615b0a57634e487b7160e01b600052601260045260246000fd5b500490565b6020808252602b908201527f496e697469616c697a61626c653a20636f6e7472616374206973206e6f74206960408201526a6e697469616c697a696e6760a81b606082015260800190565b61ffff861681526001600160a01b038516602082015260a060408201819052600090615b8890830186614e5a565b84151560608401528281036080840152615ba28185614e5a565b98975050505050505050565b60008060408385031215615bc157600080fd5b505080516020909101519092909150565b61ffff8716815260c060208201526000615bef60c0830188614e5a565b8281036040840152615c018188614e5a565b6001600160a01b0387811660608601528616608085015283810360a08501529050615c2c8185614e5a565b9998505050505050505050565b600060208284031215615c4b57600080fd5b815160058110610bdc57600080fd5b8051614ce681614dd6565b60008060408385031215615c7857600080fd5b825160208401519092506001600160401b0380821115615c9757600080fd5b908401906101608287031215615cac57600080fd5b615cb46150ae565b615cbd83615c5a565b81526020830151602082015260408301516040820152606083015160608201526080830151608082015260a083015160a082015260c083015160c082015260e083015160e08201526101008084015181830152506101208084015181830152506101408084015183811115615d3157600080fd5b615d3d89828701615a1f565b8284015250508093505050509250929050565b60008082840360a0811215615d6457600080fd5b835192506080601f1982011215615d7a57600080fd5b50604051608081016001600160401b0381118282101715615d9d57615d9d615098565b6040526020840151615dae81614dd6565b80825250604084015160208201526060840151604082015260808401516060820152809150509250929050565b61ffff8616815260a060208201526000615df860a0830187614e5a565b6001600160401b03861660408401528281036060840152615e198186614e5a565b90508281036080840152615ba28185614e5a565b60408101615e3b82856156d9565b825160208301529392505050565b61ffff841681526001600160a01b038316602082015260606040820181905260009061289b90830184614e5a565b6001600160a01b0386811682526020820186905261ffff851660408301528316606082015260a0608082018190526000906149e790830184614e5a56feddf252ad1be2c89b69c2b068fc378daa952ba7f163c4a11628f55a4df523b3efa2646970667358221220b8700998165a2cf2c5e0eb6c9c32f97e50edf13f89e9dde87795a088767804c164736f6c63430008130033",
  "linkReferences": {},
  "deployedLinkReferences": {}
}