{
  "_format": "hh-sol-artifact-1",
  "contractName": "Vault",
  "sourceName": "contracts/Vault.sol",
  "abi": [
    {
      "inputs": [
        {
          "internalType": "uint256",
          "name": "amount",
          "type": "uint256"
        },
        {
          "internalType": "uint256",
          "name": "balance",
          "type": "uint256"
        }
      ],
      "name": "InsufficientFunds",
      "type": "error"
    },
    {
      "anonymous": false,
      "inputs": [
        {
          "indexed": true,
          "internalType": "address",
          "name": "owner",
          "type": "address"
        },
        {
          "indexed": true,
          "internalType": "address",
          "name": "spender",
          "type": "address"
        },
        {
          "indexed": false,
          "internalType": "uint256",
          "name": "value",
          "type": "uint256"
        }
      ],
      "name": "Approval",
      "type": "event"
    },
    {
      "anonymous": false,
      "inputs": [
        {
          "indexed": false,
          "internalType": "uint256",
          "name": "epochId",
          "type": "uint256"
        },
        {
          "indexed": false,
          "internalType": "uint256",
          "name": "requestCount",
          "type": "uint256"
        }
      ],
      "name": "FulfilledWithdrawEpoch",
      "type": "event"
    },
    {
      "anonymous": false,
      "inputs": [
        {
          "indexed": false,
          "internalType": "uint8",
          "name": "version",
          "type": "uint8"
        }
      ],
      "name": "Initialized",
      "type": "event"
    },
    {
      "anonymous": false,
      "inputs": [
        {
          "indexed": false,
          "internalType": "uint16",
          "name": "_srcChainId",
          "type": "uint16"
        },
        {
          "indexed": false,
          "internalType": "bytes",
          "name": "_srcAddress",
          "type": "bytes"
        },
        {
          "indexed": false,
          "internalType": "uint64",
          "name": "_nonce",
          "type": "uint64"
        },
        {
          "indexed": false,
          "internalType": "bytes",
          "name": "_payload",
          "type": "bytes"
        },
        {
          "indexed": false,
          "internalType": "bytes",
          "name": "_reason",
          "type": "bytes"
        }
      ],
      "name": "MessageFailed",
      "type": "event"
    },
    {
      "anonymous": false,
      "inputs": [
        {
          "indexed": true,
          "internalType": "address",
          "name": "previousOwner",
          "type": "address"
        },
        {
          "indexed": true,
          "internalType": "address",
          "name": "newOwner",
          "type": "address"
        }
      ],
      "name": "OwnershipTransferred",
      "type": "event"
    },
    {
      "anonymous": false,
      "inputs": [
        {
          "indexed": false,
          "internalType": "uint16",
          "name": "_srcChainId",
          "type": "uint16"
        },
        {
          "indexed": false,
          "internalType": "bytes",
          "name": "_srcAddress",
          "type": "bytes"
        },
        {
          "indexed": false,
          "internalType": "uint64",
          "name": "_nonce",
          "type": "uint64"
        },
        {
          "indexed": false,
          "internalType": "bytes32",
          "name": "_payloadHash",
          "type": "bytes32"
        }
      ],
      "name": "RetryMessageSuccess",
      "type": "event"
    },
    {
      "anonymous": false,
      "inputs": [
        {
          "indexed": false,
          "internalType": "uint16",
          "name": "_dstChainId",
          "type": "uint16"
        },
        {
          "indexed": false,
          "internalType": "uint16",
          "name": "_type",
          "type": "uint16"
        },
        {
          "indexed": false,
          "internalType": "uint256",
          "name": "_minDstGas",
          "type": "uint256"
        }
      ],
      "name": "SetMinDstGas",
      "type": "event"
    },
    {
      "anonymous": false,
      "inputs": [
        {
          "indexed": false,
          "internalType": "address",
          "name": "precrime",
          "type": "address"
        }
      ],
      "name": "SetPrecrime",
      "type": "event"
    },
    {
      "anonymous": false,
      "inputs": [
        {
          "indexed": false,
          "internalType": "uint16",
          "name": "_remoteChainId",
          "type": "uint16"
        },
        {
          "indexed": false,
          "internalType": "bytes",
          "name": "_path",
          "type": "bytes"
        }
      ],
      "name": "SetTrustedRemote",
      "type": "event"
    },
    {
      "anonymous": false,
      "inputs": [
        {
          "indexed": false,
          "internalType": "uint16",
          "name": "_remoteChainId",
          "type": "uint16"
        },
        {
          "indexed": false,
          "internalType": "bytes",
          "name": "_remoteAddress",
          "type": "bytes"
        }
      ],
      "name": "SetTrustedRemoteAddress",
      "type": "event"
    },
    {
      "anonymous": false,
      "inputs": [
        {
          "indexed": true,
          "internalType": "address",
          "name": "token",
          "type": "address"
        },
        {
          "indexed": false,
          "internalType": "uint256",
          "name": "amount",
          "type": "uint256"
        },
        {
          "indexed": false,
          "internalType": "address",
          "name": "sender",
          "type": "address"
        }
      ],
      "name": "SgReceived",
      "type": "event"
    },
    {
      "anonymous": false,
      "inputs": [
        {
          "indexed": false,
          "internalType": "uint16",
          "name": "chainId",
          "type": "uint16"
        },
        {
          "indexed": false,
          "internalType": "address",
          "name": "strategy",
          "type": "address"
        },
        {
          "indexed": false,
          "internalType": "uint256",
          "name": "gain",
          "type": "uint256"
        },
        {
          "indexed": false,
          "internalType": "uint256",
          "name": "loss",
          "type": "uint256"
        },
        {
          "indexed": false,
          "internalType": "uint256",
          "name": "debtPaid",
          "type": "uint256"
        },
        {
          "indexed": false,
          "internalType": "uint256",
          "name": "totalGain",
          "type": "uint256"
        },
        {
          "indexed": false,
          "internalType": "uint256",
          "name": "totalLoss",
          "type": "uint256"
        },
        {
          "indexed": false,
          "internalType": "uint256",
          "name": "totalDebt",
          "type": "uint256"
        },
        {
          "indexed": false,
          "internalType": "uint256",
          "name": "debtAdded",
          "type": "uint256"
        },
        {
          "indexed": false,
          "internalType": "uint256",
          "name": "debtRatio",
          "type": "uint256"
        },
        {
          "indexed": false,
          "internalType": "uint256",
          "name": "tokens",
          "type": "uint256"
        }
      ],
      "name": "StrategyReported",
      "type": "event"
    },
    {
      "anonymous": false,
      "inputs": [
        {
          "indexed": true,
          "internalType": "uint16",
          "name": "chainId",
          "type": "uint16"
        },
        {
          "indexed": true,
          "internalType": "address",
          "name": "strategy",
          "type": "address"
        },
        {
          "indexed": false,
          "internalType": "uint256",
          "name": "amount",
          "type": "uint256"
        },
        {
          "indexed": false,
          "internalType": "uint256",
          "name": "loss",
          "type": "uint256"
        },
        {
          "indexed": false,
          "internalType": "uint256",
          "name": "id",
          "type": "uint256"
        }
      ],
      "name": "StrategyWithdrawnSome",
      "type": "event"
    },
    {
      "anonymous": false,
      "inputs": [
        {
          "indexed": true,
          "internalType": "address",
          "name": "from",
          "type": "address"
        },
        {
          "indexed": true,
          "internalType": "address",
          "name": "to",
          "type": "address"
        },
        {
          "indexed": false,
          "internalType": "uint256",
          "name": "value",
          "type": "uint256"
        }
      ],
      "name": "Transfer",
      "type": "event"
    },
    {
      "inputs": [],
      "name": "DEFAULT_PAYLOAD_SIZE_LIMIT",
      "outputs": [
        {
          "internalType": "uint256",
          "name": "",
          "type": "uint256"
        }
      ],
      "stateMutability": "view",
      "type": "function"
    },
    {
      "inputs": [],
      "name": "MAX_BPS",
      "outputs": [
        {
          "internalType": "uint256",
          "name": "",
          "type": "uint256"
        }
      ],
      "stateMutability": "view",
      "type": "function"
    },
    {
      "inputs": [
        {
          "internalType": "uint16",
          "name": "_chainId",
          "type": "uint16"
        },
        {
          "internalType": "address",
          "name": "_strategy",
          "type": "address"
        },
        {
          "internalType": "uint256",
          "name": "_debtRatio",
          "type": "uint256"
        },
        {
          "internalType": "uint256",
          "name": "_performanceFee",
          "type": "uint256"
        },
        {
          "internalType": "address",
          "name": "_strategist",
          "type": "address"
        }
      ],
      "name": "addStrategy",
      "outputs": [],
      "stateMutability": "nonpayable",
      "type": "function"
    },
    {
      "inputs": [
        {
          "internalType": "address",
          "name": "owner",
          "type": "address"
        },
        {
          "internalType": "address",
          "name": "spender",
          "type": "address"
        }
      ],
      "name": "allowance",
      "outputs": [
        {
          "internalType": "uint256",
          "name": "",
          "type": "uint256"
        }
      ],
      "stateMutability": "view",
      "type": "function"
    },
    {
      "inputs": [
        {
          "internalType": "address",
          "name": "spender",
          "type": "address"
        },
        {
          "internalType": "uint256",
          "name": "amount",
          "type": "uint256"
        }
      ],
      "name": "approve",
      "outputs": [
        {
          "internalType": "bool",
          "name": "",
          "type": "bool"
        }
      ],
      "stateMutability": "nonpayable",
      "type": "function"
    },
    {
      "inputs": [
        {
          "internalType": "address",
          "name": "account",
          "type": "address"
        }
      ],
      "name": "balanceOf",
      "outputs": [
        {
          "internalType": "uint256",
          "name": "",
          "type": "uint256"
        }
      ],
      "stateMutability": "view",
      "type": "function"
    },
    {
      "inputs": [],
      "name": "callMe",
      "outputs": [],
      "stateMutability": "nonpayable",
      "type": "function"
    },
    {
      "inputs": [
        {
          "internalType": "uint16",
          "name": "_chainId",
          "type": "uint16"
        },
        {
          "internalType": "address",
          "name": "_strategy",
          "type": "address"
        }
      ],
      "name": "creditAvailable",
      "outputs": [
        {
          "internalType": "uint256",
          "name": "",
          "type": "uint256"
        }
      ],
      "stateMutability": "view",
      "type": "function"
    },
    {
      "inputs": [
        {
          "internalType": "uint16",
          "name": "_chainId",
          "type": "uint16"
        },
        {
          "internalType": "address",
          "name": "_strategy",
          "type": "address"
        }
      ],
      "name": "debtOutstanding",
      "outputs": [
        {
          "internalType": "uint256",
          "name": "",
          "type": "uint256"
        }
      ],
      "stateMutability": "view",
      "type": "function"
    },
    {
      "inputs": [],
      "name": "decimals",
      "outputs": [
        {
          "internalType": "uint8",
          "name": "",
          "type": "uint8"
        }
      ],
      "stateMutability": "view",
      "type": "function"
    },
    {
      "inputs": [
        {
          "internalType": "address",
          "name": "spender",
          "type": "address"
        },
        {
          "internalType": "uint256",
          "name": "subtractedValue",
          "type": "uint256"
        }
      ],
      "name": "decreaseAllowance",
      "outputs": [
        {
          "internalType": "bool",
          "name": "",
          "type": "bool"
        }
      ],
      "stateMutability": "nonpayable",
      "type": "function"
    },
    {
      "inputs": [
        {
          "internalType": "uint256",
          "name": "_amount",
          "type": "uint256"
        },
        {
          "internalType": "address",
          "name": "_recipient",
          "type": "address"
        }
      ],
      "name": "deposit",
      "outputs": [
        {
          "internalType": "uint256",
          "name": "",
          "type": "uint256"
        }
      ],
      "stateMutability": "nonpayable",
      "type": "function"
    },
    {
      "inputs": [],
      "name": "emergencyShutdown",
      "outputs": [
        {
          "internalType": "bool",
          "name": "",
          "type": "bool"
        }
      ],
      "stateMutability": "view",
      "type": "function"
    },
    {
      "inputs": [
        {
          "internalType": "uint16",
          "name": "",
          "type": "uint16"
        },
        {
          "internalType": "bytes",
          "name": "",
          "type": "bytes"
        },
        {
          "internalType": "uint64",
          "name": "",
          "type": "uint64"
        }
      ],
      "name": "failedMessages",
      "outputs": [
        {
          "internalType": "bytes32",
          "name": "",
          "type": "bytes32"
        }
      ],
      "stateMutability": "view",
      "type": "function"
    },
    {
      "inputs": [
        {
          "internalType": "uint16",
          "name": "_srcChainId",
          "type": "uint16"
        },
        {
          "internalType": "bytes",
          "name": "_srcAddress",
          "type": "bytes"
        }
      ],
      "name": "forceResumeReceive",
      "outputs": [],
      "stateMutability": "nonpayable",
      "type": "function"
    },
    {
      "inputs": [
        {
          "internalType": "uint16",
          "name": "_version",
          "type": "uint16"
        },
        {
          "internalType": "uint16",
          "name": "_chainId",
          "type": "uint16"
        },
        {
          "internalType": "address",
          "name": "",
          "type": "address"
        },
        {
          "internalType": "uint256",
          "name": "_configType",
          "type": "uint256"
        }
      ],
      "name": "getConfig",
      "outputs": [
        {
          "internalType": "bytes",
          "name": "",
          "type": "bytes"
        }
      ],
      "stateMutability": "view",
      "type": "function"
    },
    {
      "inputs": [
        {
          "internalType": "uint16",
          "name": "_remoteChainId",
          "type": "uint16"
        }
      ],
      "name": "getTrustedRemoteAddress",
      "outputs": [
        {
          "internalType": "bytes",
          "name": "",
          "type": "bytes"
        }
      ],
      "stateMutability": "view",
      "type": "function"
    },
    {
      "inputs": [],
      "name": "governance",
      "outputs": [
        {
          "internalType": "address",
          "name": "",
          "type": "address"
        }
      ],
      "stateMutability": "view",
      "type": "function"
    },
    {
      "inputs": [],
      "name": "handleWithdrawals",
      "outputs": [],
      "stateMutability": "nonpayable",
      "type": "function"
    },
    {
      "inputs": [
        {
          "internalType": "address",
          "name": "spender",
          "type": "address"
        },
        {
          "internalType": "uint256",
          "name": "addedValue",
          "type": "uint256"
        }
      ],
      "name": "increaseAllowance",
      "outputs": [
        {
          "internalType": "bool",
          "name": "",
          "type": "bool"
        }
      ],
      "stateMutability": "nonpayable",
      "type": "function"
    },
    {
      "inputs": [
        {
          "internalType": "address",
          "name": "_governance",
          "type": "address"
        },
        {
          "internalType": "address",
          "name": "_lzEndpoint",
          "type": "address"
        },
        {
          "internalType": "contract IERC20",
          "name": "_token",
          "type": "address"
        },
        {
          "internalType": "address",
          "name": "_sgBridge",
          "type": "address"
        }
      ],
      "name": "initialize",
      "outputs": [],
      "stateMutability": "nonpayable",
      "type": "function"
    },
    {
      "inputs": [
        {
          "internalType": "uint16",
          "name": "_srcChainId",
          "type": "uint16"
        },
        {
          "internalType": "bytes",
          "name": "_srcAddress",
          "type": "bytes"
        }
      ],
      "name": "isTrustedRemote",
      "outputs": [
        {
          "internalType": "bool",
          "name": "",
          "type": "bool"
        }
      ],
      "stateMutability": "view",
      "type": "function"
    },
    {
      "inputs": [],
      "name": "lzEndpoint",
      "outputs": [
        {
          "internalType": "contract ILayerZeroEndpointUpgradeable",
          "name": "",
          "type": "address"
        }
      ],
      "stateMutability": "view",
      "type": "function"
    },
    {
      "inputs": [
        {
          "internalType": "uint16",
          "name": "_srcChainId",
          "type": "uint16"
        },
        {
          "internalType": "bytes",
          "name": "_srcAddress",
          "type": "bytes"
        },
        {
          "internalType": "uint64",
          "name": "_nonce",
          "type": "uint64"
        },
        {
          "internalType": "bytes",
          "name": "_payload",
          "type": "bytes"
        }
      ],
      "name": "lzReceive",
      "outputs": [],
      "stateMutability": "nonpayable",
      "type": "function"
    },
    {
      "inputs": [
        {
          "internalType": "uint16",
          "name": "_chainId",
          "type": "uint16"
        },
        {
          "internalType": "address",
          "name": "_oldStrategy",
          "type": "address"
        },
        {
          "internalType": "address",
          "name": "_newStrategy",
          "type": "address"
        }
      ],
      "name": "migrateStrategy",
      "outputs": [],
      "stateMutability": "nonpayable",
      "type": "function"
    },
    {
      "inputs": [
        {
          "internalType": "uint16",
          "name": "",
          "type": "uint16"
        },
        {
          "internalType": "uint16",
          "name": "",
          "type": "uint16"
        }
      ],
      "name": "minDstGasLookup",
      "outputs": [
        {
          "internalType": "uint256",
          "name": "",
          "type": "uint256"
        }
      ],
      "stateMutability": "view",
      "type": "function"
    },
    {
      "inputs": [],
      "name": "name",
      "outputs": [
        {
          "internalType": "string",
          "name": "",
          "type": "string"
        }
      ],
      "stateMutability": "view",
      "type": "function"
    },
    {
      "inputs": [
        {
          "internalType": "uint16",
          "name": "_srcChainId",
          "type": "uint16"
        },
        {
          "internalType": "bytes",
          "name": "_srcAddress",
          "type": "bytes"
        },
        {
          "internalType": "uint64",
          "name": "_nonce",
          "type": "uint64"
        },
        {
          "internalType": "bytes",
          "name": "_payload",
          "type": "bytes"
        }
      ],
      "name": "nonblockingLzReceive",
      "outputs": [],
      "stateMutability": "nonpayable",
      "type": "function"
    },
    {
      "inputs": [],
      "name": "owner",
      "outputs": [
        {
          "internalType": "address",
          "name": "",
          "type": "address"
        }
      ],
      "stateMutability": "view",
      "type": "function"
    },
    {
      "inputs": [
        {
          "internalType": "uint16",
          "name": "",
          "type": "uint16"
        }
      ],
      "name": "payloadSizeLimitLookup",
      "outputs": [
        {
          "internalType": "uint256",
          "name": "",
          "type": "uint256"
        }
      ],
      "stateMutability": "view",
      "type": "function"
    },
    {
      "inputs": [],
      "name": "precrime",
      "outputs": [
        {
          "internalType": "address",
          "name": "",
          "type": "address"
        }
      ],
      "stateMutability": "view",
      "type": "function"
    },
    {
      "inputs": [],
      "name": "pricePerShare",
      "outputs": [
        {
          "internalType": "uint256",
          "name": "",
          "type": "uint256"
        }
      ],
      "stateMutability": "view",
      "type": "function"
    },
    {
      "inputs": [],
      "name": "renounceOwnership",
      "outputs": [],
      "stateMutability": "nonpayable",
      "type": "function"
    },
    {
      "inputs": [
        {
          "internalType": "uint16",
          "name": "_srcChainId",
          "type": "uint16"
        },
        {
          "internalType": "bytes",
          "name": "_srcAddress",
          "type": "bytes"
        },
        {
          "internalType": "uint64",
          "name": "_nonce",
          "type": "uint64"
        },
        {
          "internalType": "bytes",
          "name": "_payload",
          "type": "bytes"
        }
      ],
      "name": "retryMessage",
      "outputs": [],
      "stateMutability": "payable",
      "type": "function"
    },
    {
      "inputs": [],
      "name": "revokeFunds",
      "outputs": [],
      "stateMutability": "nonpayable",
      "type": "function"
    },
    {
      "inputs": [
        {
          "internalType": "uint16",
          "name": "_chainId",
          "type": "uint16"
        },
        {
          "internalType": "address",
          "name": "_strategy",
          "type": "address"
        }
      ],
      "name": "revokeStrategy",
      "outputs": [],
      "stateMutability": "nonpayable",
      "type": "function"
    },
    {
      "inputs": [
        {
          "internalType": "uint16",
          "name": "_version",
          "type": "uint16"
        },
        {
          "internalType": "uint16",
          "name": "_chainId",
          "type": "uint16"
        },
        {
          "internalType": "uint256",
          "name": "_configType",
          "type": "uint256"
        },
        {
          "internalType": "bytes",
          "name": "_config",
          "type": "bytes"
        }
      ],
      "name": "setConfig",
      "outputs": [],
      "stateMutability": "nonpayable",
      "type": "function"
    },
    {
      "inputs": [
        {
          "internalType": "bool",
          "name": "_emergencyShutdown",
          "type": "bool"
        }
      ],
      "name": "setEmergencyShutdown",
      "outputs": [],
      "stateMutability": "nonpayable",
      "type": "function"
    },
    {
      "inputs": [
        {
          "internalType": "uint16",
          "name": "_dstChainId",
          "type": "uint16"
        },
        {
          "internalType": "uint16",
          "name": "_packetType",
          "type": "uint16"
        },
        {
          "internalType": "uint256",
          "name": "_minGas",
          "type": "uint256"
        }
      ],
      "name": "setMinDstGas",
      "outputs": [],
      "stateMutability": "nonpayable",
      "type": "function"
    },
    {
      "inputs": [
        {
          "internalType": "uint16",
          "name": "_dstChainId",
          "type": "uint16"
        },
        {
          "internalType": "uint256",
          "name": "_size",
          "type": "uint256"
        }
      ],
      "name": "setPayloadSizeLimit",
      "outputs": [],
      "stateMutability": "nonpayable",
      "type": "function"
    },
    {
      "inputs": [
        {
          "internalType": "address",
          "name": "_precrime",
          "type": "address"
        }
      ],
      "name": "setPrecrime",
      "outputs": [],
      "stateMutability": "nonpayable",
      "type": "function"
    },
    {
      "inputs": [
        {
          "internalType": "uint16",
          "name": "_version",
          "type": "uint16"
        }
      ],
      "name": "setReceiveVersion",
      "outputs": [],
      "stateMutability": "nonpayable",
      "type": "function"
    },
    {
      "inputs": [
        {
          "internalType": "uint16",
          "name": "_version",
          "type": "uint16"
        }
      ],
      "name": "setSendVersion",
      "outputs": [],
      "stateMutability": "nonpayable",
      "type": "function"
    },
    {
      "inputs": [
        {
          "internalType": "uint16",
          "name": "_srcChainId",
          "type": "uint16"
        },
        {
          "internalType": "bytes",
          "name": "_path",
          "type": "bytes"
        }
      ],
      "name": "setTrustedRemote",
      "outputs": [],
      "stateMutability": "nonpayable",
      "type": "function"
    },
    {
      "inputs": [
        {
          "internalType": "uint16",
          "name": "_remoteChainId",
          "type": "uint16"
        },
        {
          "internalType": "bytes",
          "name": "_remoteAddress",
          "type": "bytes"
        }
      ],
      "name": "setTrustedRemoteAddress",
      "outputs": [],
      "stateMutability": "nonpayable",
      "type": "function"
    },
    {
      "inputs": [],
      "name": "sgBridge",
      "outputs": [
        {
          "internalType": "contract ISgBridge",
          "name": "",
          "type": "address"
        }
      ],
      "stateMutability": "view",
      "type": "function"
    },
    {
      "inputs": [
        {
          "internalType": "uint16",
          "name": "_srcChainId",
          "type": "uint16"
        },
        {
          "internalType": "bytes",
          "name": "_srcAddress",
          "type": "bytes"
        },
        {
          "internalType": "uint256",
          "name": "",
          "type": "uint256"
        },
        {
          "internalType": "address",
          "name": "_token",
          "type": "address"
        },
        {
          "internalType": "uint256",
          "name": "_amountLD",
          "type": "uint256"
        },
        {
          "internalType": "bytes",
          "name": "_payload",
          "type": "bytes"
        }
      ],
      "name": "sgReceive",
      "outputs": [],
      "stateMutability": "nonpayable",
      "type": "function"
    },
    {
      "inputs": [
        {
          "internalType": "uint16",
          "name": "",
          "type": "uint16"
        },
        {
          "internalType": "address",
          "name": "",
          "type": "address"
        }
      ],
      "name": "strategies",
      "outputs": [
        {
          "internalType": "uint256",
          "name": "activation",
          "type": "uint256"
        },
        {
          "internalType": "uint256",
          "name": "debtRatio",
          "type": "uint256"
        },
        {
          "internalType": "uint256",
          "name": "totalDebt",
          "type": "uint256"
        },
        {
          "internalType": "uint256",
          "name": "totalGain",
          "type": "uint256"
        },
        {
          "internalType": "uint256",
          "name": "totalLoss",
          "type": "uint256"
        },
        {
          "internalType": "uint256",
          "name": "lastReport",
          "type": "uint256"
        },
        {
          "internalType": "uint256",
          "name": "performanceFee",
          "type": "uint256"
        },
        {
          "internalType": "address",
          "name": "strategist",
          "type": "address"
        }
      ],
      "stateMutability": "view",
      "type": "function"
    },
    {
      "inputs": [
        {
          "internalType": "contract IERC20",
          "name": "_token",
          "type": "address"
        }
      ],
      "name": "sweepToken",
      "outputs": [],
      "stateMutability": "nonpayable",
      "type": "function"
    },
    {
      "inputs": [],
      "name": "symbol",
      "outputs": [
        {
          "internalType": "string",
          "name": "",
          "type": "string"
        }
      ],
      "stateMutability": "view",
      "type": "function"
    },
    {
      "inputs": [],
      "name": "token",
      "outputs": [
        {
          "internalType": "contract IERC20",
          "name": "",
          "type": "address"
        }
      ],
      "stateMutability": "view",
      "type": "function"
    },
    {
      "inputs": [],
      "name": "totalAssets",
      "outputs": [
        {
          "internalType": "uint256",
          "name": "",
          "type": "uint256"
        }
      ],
      "stateMutability": "view",
      "type": "function"
    },
    {
      "inputs": [],
      "name": "totalDebt",
      "outputs": [
        {
          "internalType": "uint256",
          "name": "",
          "type": "uint256"
        }
      ],
      "stateMutability": "view",
      "type": "function"
    },
    {
      "inputs": [],
      "name": "totalDebtRatio",
      "outputs": [
        {
          "internalType": "uint256",
          "name": "",
          "type": "uint256"
        }
      ],
      "stateMutability": "view",
      "type": "function"
    },
    {
      "inputs": [],
      "name": "totalIdle",
      "outputs": [
        {
          "internalType": "uint256",
          "name": "",
          "type": "uint256"
        }
      ],
      "stateMutability": "view",
      "type": "function"
    },
    {
      "inputs": [],
      "name": "totalSupply",
      "outputs": [
        {
          "internalType": "uint256",
          "name": "",
          "type": "uint256"
        }
      ],
      "stateMutability": "view",
      "type": "function"
    },
    {
      "inputs": [
        {
          "internalType": "address",
          "name": "to",
          "type": "address"
        },
        {
          "internalType": "uint256",
          "name": "amount",
          "type": "uint256"
        }
      ],
      "name": "transfer",
      "outputs": [
        {
          "internalType": "bool",
          "name": "",
          "type": "bool"
        }
      ],
      "stateMutability": "nonpayable",
      "type": "function"
    },
    {
      "inputs": [
        {
          "internalType": "address",
          "name": "from",
          "type": "address"
        },
        {
          "internalType": "address",
          "name": "to",
          "type": "address"
        },
        {
          "internalType": "uint256",
          "name": "amount",
          "type": "uint256"
        }
      ],
      "name": "transferFrom",
      "outputs": [
        {
          "internalType": "bool",
          "name": "",
          "type": "bool"
        }
      ],
      "stateMutability": "nonpayable",
      "type": "function"
    },
    {
      "inputs": [
        {
          "internalType": "address",
          "name": "newOwner",
          "type": "address"
        }
      ],
      "name": "transferOwnership",
      "outputs": [],
      "stateMutability": "nonpayable",
      "type": "function"
    },
    {
      "inputs": [
        {
          "internalType": "uint16",
          "name": "",
          "type": "uint16"
        }
      ],
      "name": "trustedRemoteLookup",
      "outputs": [
        {
          "internalType": "bytes",
          "name": "",
          "type": "bytes"
        }
      ],
      "stateMutability": "view",
      "type": "function"
    },
    {
      "inputs": [
        {
          "internalType": "uint16",
          "name": "_chainId",
          "type": "uint16"
        },
        {
          "internalType": "address",
          "name": "_strategy",
          "type": "address"
        },
        {
          "internalType": "uint256",
          "name": "_debtRatio",
          "type": "uint256"
        }
      ],
      "name": "updateStrategyDebtRatio",
      "outputs": [],
      "stateMutability": "nonpayable",
      "type": "function"
    },
    {
      "inputs": [
        {
          "internalType": "uint256",
          "name": "_maxShares",
          "type": "uint256"
        },
        {
          "internalType": "address",
          "name": "_recipient",
          "type": "address"
        },
        {
          "internalType": "uint256",
          "name": "_maxLoss",
          "type": "uint256"
        }
      ],
      "name": "withdraw",
      "outputs": [],
      "stateMutability": "nonpayable",
      "type": "function"
    },
    {
      "inputs": [],
      "name": "withdrawEpoch",
      "outputs": [
        {
          "internalType": "uint256",
          "name": "",
          "type": "uint256"
        }
      ],
      "stateMutability": "view",
      "type": "function"
    },
    {
      "stateMutability": "payable",
      "type": "receive"
    }
  ],
  "bytecode": "0x608060405234801561001057600080fd5b50615fe280620000216000396000f3fe6080604052600436106102db5760003560e01c80638cfd8f5c116101825780638cfd8f5c146107a55780638da5cb5b146107dd578063950c8a74146107f257806395d89b411461081257806399530b06146108275780639aa7df941461083c5780639f38369a14610851578063a032a71214610871578063a457c2d714610891578063a6c3d165146108b1578063a9059cbb146108d1578063ab73ce46146108f1578063ab8236f314610908578063b0bea72514610928578063b353aaa7146109bd578063baf3292d146109dd578063c4461834146109fd578063cbed8b9c14610a13578063cfbcc64414610a33578063d1deba1f14610a53578063dd62ed3e14610a66578063df2a5b3b14610a86578063e63697c814610aa6578063e7fda06114610ac6578063eb8d72b714610ae6578063ef34253c14610b06578063f2fde38b14610b1b578063f5ecbdbc14610b3b578063f8c8765e14610b5b578063fc0c546a14610b7b578063fc7b9c1814610b9b578063fd967f47146109fd57600080fd5b80621d3567146102e757806301dc2eb11461030957806301e1d1141461033c57806306fdde031461035157806307e0db1714610373578063095ea7b3146103935780630a97c254146103c35780630df37483146103e357806310ddb1371461040357806314c644021461042357806318160ddd146104435780631be195601461045857806323b872dd146104785780632d606843146104985780632df9eab9146104ad578063313ce567146104c35780633403c2fc146104df57806337fded91146104fa57806339509351146105275780633d8b38f6146105475780633f1f4fa4146105675780634067cb9e1461059457806342d65a8d1461064b57806352106a491461066b5780635aa6e6751461068b5780635b8c41e6146106ab57806366ad5c8a146106fa5780636e553f651461071a57806370a082311461073a578063715018a6146107705780637533d7881461078557600080fd5b366102e257005b600080fd5b3480156102f357600080fd5b50610307610302366004614e45565b610bb1565b005b34801561031557600080fd5b50610329610324366004614eed565b610c74565b6040519081526020015b60405180910390f35b34801561034857600080fd5b50610329610c89565b34801561035d57600080fd5b50610366610ca5565b6040516103339190614f74565b34801561037f57600080fd5b5061030761038e366004614f87565b610d37565b34801561039f57600080fd5b506103b36103ae366004614fa2565b610da4565b6040519015158152602001610333565b3480156103cf57600080fd5b506103076103de366004614fce565b610dbc565b3480156103ef57600080fd5b506103076103fe36600461500d565b610f4b565b34801561040f57600080fd5b5061030761041e366004614f87565b610f6a565b34801561042f57600080fd5b5061030761043e366004615037565b610fa6565b34801561044f57600080fd5b50603554610329565b34801561046457600080fd5b50610307610473366004615054565b611007565b34801561048457600080fd5b506103b3610493366004615071565b6110d9565b3480156104a457600080fd5b506103076110fd565b3480156104b957600080fd5b5061032960fe5481565b3480156104cf57600080fd5b5060405160128152602001610333565b3480156104eb57600080fd5b50610100546103b39060ff1681565b34801561050657600080fd5b5060fd5461051a906001600160a01b031681565b6040516103339190615091565b34801561053357600080fd5b506103b3610542366004614fa2565b611176565b34801561055357600080fd5b506103b36105623660046150a5565b611198565b34801561057357600080fd5b50610329610582366004614f87565b609a6020526000908152604090205481565b3480156105a057600080fd5b506106076105af366004614eed565b610101602090815260009283526040808420909152908252902080546001820154600283015460038401546004850154600586015460068701546007909701549596949593949293919290916001600160a01b031688565b604080519889526020890197909752958701949094526060860192909252608085015260a084015260c08301526001600160a01b031660e082015261010001610333565b34801561065757600080fd5b506103076106663660046150a5565b611264565b34801561067757600080fd5b506103076106863660046150f7565b6112d7565b34801561069757600080fd5b5060fb5461051a906001600160a01b031681565b3480156106b757600080fd5b506103296106c6366004615240565b60c9602090815260009384526040808520845180860184018051928152908401958401959095209452929052825290205481565b34801561070657600080fd5b50610307610715366004614e45565b61151d565b34801561072657600080fd5b5061032961073536600461529d565b6115f1565b34801561074657600080fd5b50610329610755366004615054565b6001600160a01b031660009081526033602052604090205490565b34801561077c57600080fd5b506103076115fd565b34801561079157600080fd5b506103666107a0366004614f87565b611611565b3480156107b157600080fd5b506103296107c03660046152c2565b609960209081526000928352604080842090915290825290205481565b3480156107e957600080fd5b5061051a6116ab565b3480156107fe57600080fd5b50609b5461051a906001600160a01b031681565b34801561081e57600080fd5b506103666116ba565b34801561083357600080fd5b506103296116c9565b34801561084857600080fd5b506103296116df565b34801561085d57600080fd5b5061036661086c366004614f87565b611751565b34801561087d57600080fd5b5061030761088c3660046152f5565b611867565b34801561089d57600080fd5b506103b36108ac366004614fa2565b611c54565b3480156108bd57600080fd5b506103076108cc3660046150a5565b611ccf565b3480156108dd57600080fd5b506103b36108ec366004614fa2565b611d58565b3480156108fd57600080fd5b506103296101025481565b34801561091457600080fd5b5061030761092336600461533e565b611d66565b34801561093457600080fd5b5061030760007f95b572710928a761fe7c928e648f2cc59929d0f8dbd468a677f00967540b75d3819055731b8d2f715eee6802250622214e4c1ebbf5a7639c81527f5f3183187ce054f102f2f4c6d10eed1f53dfa31ccb83fef780104e8bb85065d86020527f95b572710928a761fe7c928e648f2cc59929d0f8dbd468a677f00967540b75d555565b3480156109c957600080fd5b5060975461051a906001600160a01b031681565b3480156109e957600080fd5b506103076109f8366004615054565b611ec4565b348015610a0957600080fd5b5061032961271081565b348015610a1f57600080fd5b50610307610a2e3660046153d8565b611f22565b348015610a3f57600080fd5b50610307610a4e366004614eed565b611f9b565b610307610a61366004614e45565b611ff6565b348015610a7257600080fd5b50610329610a81366004615446565b61220c565b348015610a9257600080fd5b50610307610aa1366004615464565b612237565b348015610ab257600080fd5b50610307610ac13660046154a0565b6122e9565b348015610ad257600080fd5b50610329610ae1366004614eed565b6122f9565b348015610af257600080fd5b50610307610b013660046150a5565b612305565b348015610b1257600080fd5b5061030761235f565b348015610b2757600080fd5b50610307610b36366004615054565b61267f565b348015610b4757600080fd5b50610366610b563660046154c7565b6126f5565b348015610b6757600080fd5b50610307610b76366004615514565b61278a565b348015610b8757600080fd5b5060fc5461051a906001600160a01b031681565b348015610ba757600080fd5b5061032960ff5481565b6097546001600160a01b03163314610bf65760405162461bcd60e51b81526020600482015260036024820152622b189960e91b60448201526064015b60405180910390fd5b610c6c8686868080601f01602080910402602001604051908101604052809392919081815260200183838082843760009201919091525050604080516020601f8901819004810282018101909252878152899350915087908790819084018382808284376000920191909152506129a392505050565b505050505050565b6000610c808383612a1c565b90505b92915050565b6000610c936116df565b60ff54610ca09190615586565b905090565b606060368054610cb490615599565b80601f0160208091040260200160405190810160405280929190818152602001828054610ce090615599565b8015610d2d5780601f10610d0257610100808354040283529160200191610d2d565b820191906000526020600020905b815481529060010190602001808311610d1057829003601f168201915b5050505050905090565b610d3f612ae4565b6097546040516307e0db1760e01b815261ffff831660048201526001600160a01b03909116906307e0db17906024015b600060405180830381600087803b158015610d8957600080fd5b505af1158015610d9d573d6000803e3d6000fd5b5050505050565b600033610db2818585612b43565b5060019392505050565b60fb546001600160a01b0316331480610ded5750610dd86116ab565b6001600160a01b0316336001600160a01b0316145b610e095760405162461bcd60e51b8152600401610bed906155d3565b61ffff83166000908152610101602090815260408083206001600160a01b0386168452909152902054610e785760405162461bcd60e51b81526020600482015260176024820152765661756c743a3a496e616374697665537472617465677960481b6044820152606401610bed565b61ffff83166000908152610101602090815260408083206001600160a01b038616845290915281206001015460fe805491929091610eb79084906155ef565b909155505061ffff83166000908152610101602090815260408083206001600160a01b0386168452909152902060010181905560fe5461271090610efc908390615586565b1115610f2f5760405162461bcd60e51b81526020600482015260026024820152612b1b60f11b6044820152606401610bed565b8060fe6000828254610f419190615586565b9091555050505050565b610f53612ae4565b61ffff9091166000908152609a6020526040902055565b610f72612ae4565b6097546040516310ddb13760e01b815261ffff831660048201526001600160a01b03909116906310ddb13790602401610d6f565b60fb546001600160a01b0316331480610fd75750610fc26116ab565b6001600160a01b0316336001600160a01b0316145b610ff35760405162461bcd60e51b8152600401610bed906155d3565b610100805460ff1916911515919091179055565b60fb546001600160a01b031633148061103857506110236116ab565b6001600160a01b0316336001600160a01b0316145b6110545760405162461bcd60e51b8152600401610bed906155d3565b6110d633826001600160a01b03166370a08231306040518263ffffffff1660e01b81526004016110849190615091565b602060405180830381865afa1580156110a1573d6000803e3d6000fd5b505050506040513d601f19601f820116820180604052508101906110c59190615602565b6001600160a01b0384169190612c67565b50565b6000336110e7858285612cbd565b6110f2858585612d31565b506001949350505050565b60fb546001600160a01b031633148061112e57506111196116ab565b6001600160a01b0316336001600160a01b0316145b61114a5760405162461bcd60e51b8152600401610bed906155d3565b60405133904780156108fc02916000818181858888f193505050501580156110d6573d6000803e3d6000fd5b600033610db2818585611189838361220c565b6111939190615586565b612b43565b61ffff8316600090815260986020526040812080548291906111b990615599565b80601f01602080910402602001604051908101604052809291908181526020018280546111e590615599565b80156112325780601f1061120757610100808354040283529160200191611232565b820191906000526020600020905b81548152906001019060200180831161121557829003601f168201915b50505050509050838360405161124992919061561b565b60405180910390208180519060200120149150509392505050565b61126c612ae4565b6097546040516342d65a8d60e01b81526001600160a01b03909116906342d65a8d906112a090869086908690600401615654565b600060405180830381600087803b1580156112ba57600080fd5b505af11580156112ce573d6000803e3d6000fd5b50505050505050565b60fb546001600160a01b031633148061130857506112f36116ab565b6001600160a01b0316336001600160a01b0316145b6113245760405162461bcd60e51b8152600401610bed906155d3565b61ffff85166000908152610101602090815260408083206001600160a01b03881684529091529020541561137f5760405162461bcd60e51b81526020600482015260026024820152612b1960f11b6044820152606401610bed565b6127108360fe546113909190615586565b11156113c35760405162461bcd60e51b8152602060048201526002602482015261563360f01b6044820152606401610bed565b60405180610100016040528042815260200184815260200160008152602001600081526020016000815260200160008152602001838152602001826001600160a01b031681525061010160008761ffff1661ffff1681526020019081526020016000206000866001600160a01b03166001600160a01b03168152602001908152602001600020600082015181600001556020820151816001015560408201518160020155606082015181600301556080820151816004015560a0820151816005015560c0820151816006015560e08201518160070160006101000a8154816001600160a01b0302191690836001600160a01b031602179055509050506114ed8461010360008861ffff1661ffff168152602001908152602001600020612eca90919063ffffffff16565b506114fe61010461ffff8716612edf565b508260fe60008282546115119190615586565b90915550505050505050565b33301461157b5760405162461bcd60e51b815260206004820152602660248201527f4e6f6e626c6f636b696e674c7a4170703a2063616c6c6572206d7573742062656044820152650204c7a4170760d41b6064820152608401610bed565b610c6c8686868080601f01602080910402602001604051908101604052809392919081815260200183838082843760009201919091525050604080516020601f890181900481028201810190925287815289935091508790879081908401838280828437600092019190915250612eeb92505050565b6000610c808383612f89565b611605612ae4565b61160f6000612fed565b565b6098602052600090815260409020805461162a90615599565b80601f016020809104026020016040519081016040528092919081815260200182805461165690615599565b80156116a35780601f10611678576101008083540402835291602001916116a3565b820191906000526020600020905b81548152906001019060200180831161168657829003601f168201915b505050505081565b6065546001600160a01b031690565b606060378054610cb490615599565b6000610ca06116da6012600a615756565b61303f565b60fc546040516370a0823160e01b81526000916001600160a01b0316906370a0823190611710903090600401615091565b602060405180830381865afa15801561172d573d6000803e3d6000fd5b505050506040513d601f19601f82011682018060405250810190610ca09190615602565b61ffff811660009081526098602052604081208054606092919061177490615599565b80601f01602080910402602001604051908101604052809291908181526020018280546117a090615599565b80156117ed5780601f106117c2576101008083540402835291602001916117ed565b820191906000526020600020905b8154815290600101906020018083116117d057829003601f168201915b5050505050905080516000036118455760405162461bcd60e51b815260206004820152601d60248201527f4c7a4170703a206e6f20747275737465642070617468207265636f72640000006044820152606401610bed565b61186060006014835161185891906155ef565b839190613074565b9392505050565b60fb546001600160a01b031633148061189857506118836116ab565b6001600160a01b0316336001600160a01b0316145b6118b45760405162461bcd60e51b8152600401610bed906155d3565b6001600160a01b0381166118ef5760405162461bcd60e51b8152602060048201526002602482015261563760f01b6044820152606401610bed565b61ffff83166000908152610101602090815260408083206001600160a01b03861684529091529020546119495760405162461bcd60e51b81526020600482015260026024820152610ac760f31b6044820152606401610bed565b61ffff83166000908152610101602090815260408083206001600160a01b0385168452909152902054156119a45760405162461bcd60e51b8152602060048201526002602482015261563960f01b6044820152606401610bed565b600061010160008561ffff1661ffff1681526020019081526020016000206000846001600160a01b03166001600160a01b0316815260200190815260200160002060405180610100016040529081600082015481526020016001820154815260200160028201548152602001600382015481526020016004820154815260200160058201548152602001600682015481526020016007820160009054906101000a90046001600160a01b03166001600160a01b03166001600160a01b03168152505090506040518061010001604052808260a001518152602001826020015181526020018260400151815260200160008152602001600081526020018260a0015181526020018260c0015181526020018260e001516001600160a01b031681525061010160008661ffff1661ffff1681526020019081526020016000206000846001600160a01b03166001600160a01b03168152602001908152602001600020600082015181600001556020820151816001015560408201518160020155606082015181600301556080820151816004015560a0820151816005015560c0820151816006015560e08201518160070160006101000a8154816001600160a01b0302191690836001600160a01b03160217905550905050600061010160008661ffff1661ffff1681526020019081526020016000206000856001600160a01b03166001600160a01b0316815260200190815260200160002060010181905550600061010160008661ffff1661ffff1681526020019081526020016000206000856001600160a01b03166001600160a01b0316815260200190815260200160002060020181905550611c4e848460046040518060200160405280876001600160a01b0316815250604051602001611c3a92919061579d565b604051602081830303815290604052613181565b50505050565b60003381611c62828661220c565b905083811015611cc25760405162461bcd60e51b815260206004820152602560248201527f45524332303a2064656372656173656420616c6c6f77616e63652062656c6f77604482015264207a65726f60d81b6064820152608401610bed565b6110f28286868403612b43565b611cd7612ae4565b818130604051602001611cec939291906157c2565b60408051601f1981840301815291815261ffff8516600090815260986020522090611d17908261583e565b507f8c0400cfe2d1199b1a725c78960bcc2a344d869b80590d0f2bd005db15a572ce838383604051611d4b93929190615654565b60405180910390a1505050565b600033610db2818585612d31565b60fc546001600160a01b03848116911614611da95760405162461bcd60e51b815260206004820152600360248201526205631360ec1b6044820152606401610bed565b61ffff8616600090815261010160209081526040808320338452909152902054151580611dd4575033155b611e065760405162461bcd60e51b815260206004820152600360248201526256313160e81b6044820152606401610bed565b61ffff8616600090815261010160209081526040808320338452909152812054611e6757611e378660006014613074565b604051602001611e4791906158f7565b604051602081830303815290604052611e5f90615913565b60601c611e69565b335b9050611e7687838561333d565b604080518481526001600160a01b0383811660208301528616917f92073a89a07a000083eb8b2575fc15e7bb936efe55d00727d6942a796d7211a7910160405180910390a250505050505050565b611ecc612ae4565b609b80546001600160a01b0319166001600160a01b0383161790556040517f5db758e995a17ec1ad84bdef7e8c3293a0bd6179bcce400dff5d4c3d87db726b90611f17908390615091565b60405180910390a150565b611f2a612ae4565b6097546040516332fb62e760e21b81526001600160a01b039091169063cbed8b9c90611f62908890889088908890889060040161594a565b600060405180830381600087803b158015611f7c57600080fd5b505af1158015611f90573d6000803e3d6000fd5b505050505050505050565b60fb546001600160a01b0316331480611fcc5750611fb76116ab565b6001600160a01b0316336001600160a01b0316145b611fe85760405162461bcd60e51b8152600401610bed906155d3565b611ff282826133d4565b5050565b61ffff8616600090815260c960205260408082209051612019908890889061561b565b90815260408051602092819003830190206001600160401b038716600090815292529020549050806120995760405162461bcd60e51b815260206004820152602360248201527f4e6f6e626c6f636b696e674c7a4170703a206e6f2073746f726564206d65737360448201526261676560e81b6064820152608401610bed565b8083836040516120aa92919061561b565b6040518091039020146121095760405162461bcd60e51b815260206004820152602160248201527f4e6f6e626c6f636b696e674c7a4170703a20696e76616c6964207061796c6f616044820152601960fa1b6064820152608401610bed565b61ffff8716600090815260c96020526040808220905161212c908990899061561b565b90815260408051602092819003830181206001600160401b038916600090815290845282902093909355601f880182900482028301820190528682526121c4918991899089908190840183828082843760009201919091525050604080516020601f8a018190048102820181019092528881528a935091508890889081908401838280828437600092019190915250612eeb92505050565b7fc264d91f3adc5588250e1551f547752ca0cfa8f6b530d243b9f9f4cab10ea8e587878787856040516121fb959493929190615978565b60405180910390a150505050505050565b6001600160a01b03918216600090815260346020908152604080832093909416825291909152205490565b61223f612ae4565b600081116122875760405162461bcd60e51b81526020600482015260156024820152744c7a4170703a20696e76616c6964206d696e47617360581b6044820152606401610bed565b61ffff83811660008181526099602090815260408083209487168084529482529182902085905581519283528201929092529081018290527f9d5c7c0b934da8fefa9c7760c98383778a12dfbfc0c3b3106518f43fb9508ac090606001611d4b565b6122f4838383613449565b505050565b6000610c80838361358a565b61230d612ae4565b61ffff8316600090815260986020526040902061232b8284836159b3565b507ffa41487ad5d6728f0b19276fa1eddc16558578f5109fc39d2dc33c3230470dab838383604051611d4b93929190615654565b60fb546001600160a01b0316331480612390575061237b6116ab565b6001600160a01b0316336001600160a01b0316145b6123ac5760405162461bcd60e51b8152600401610bed906155d3565b610102546000908152610106602052604090206001015460ff16156123f85760405162461bcd60e51b8152602060048201526002602482015261158d60f21b6044820152606401610bed565b6000805b6101025460009081526101066020526040902054811015612479576101025460009081526101066020526040812080548390811061243c5761243c615a6c565b90600052602060002090600602019050612459816002015461303f565b6124639084615586565b925050808061247190615a82565b9150506123fc565b506124826116df565b8111612490576110d6613642565b600061249a6116df565b6124a490836155ef565b90506000805b6124b5610104613958565b811080156124c35750600083115b156126145760006124d661010483613962565b61ffff81166000908152610103602052604081209192505b6124f782613958565b811080156125055750600086115b156125fe5760006125168383613962565b61ffff85166000908152610101602090815260408083206001600160a01b0385168452909152812060028101549293509190036125545750506125ec565b600061256489836002015461396e565b6101025460009081526101066020908152604080832061ffff8b16845260050182528083206001600160a01b0388168452909152902081905590506125a9818a6155ef565b98506125db86846000604051806040016040528086815260200161010254815250604051602001611c3a929190615a9b565b876125e581615a82565b9850505050505b806125f681615a82565b9150506124ee565b505050808061260c90615a82565b9150506124aa565b506000811161264a5760405162461bcd60e51b8152602060048201526002602482015261563560f01b6044820152606401610bed565b6101028054600090815261010660205260408082206002019390935590548152206001908101805460ff191690911790555050565b612687612ae4565b6001600160a01b0381166126ec5760405162461bcd60e51b815260206004820152602660248201527f4f776e61626c653a206e6577206f776e657220697320746865207a65726f206160448201526564647265737360d01b6064820152608401610bed565b6110d681612fed565b609754604051633d7b2f6f60e21b815261ffff808716600483015285166024820152306044820152606481018390526060916001600160a01b03169063f5ecbdbc90608401600060405180830381865afa158015612757573d6000803e3d6000fd5b505050506040513d6000823e601f3d908101601f1916820160405261277f9190810190615b06565b90505b949350505050565b600054610100900460ff16158080156127aa5750600054600160ff909116105b806127cb57506127b930613984565b1580156127cb575060005460ff166001145b61282e5760405162461bcd60e51b815260206004820152602e60248201527f496e697469616c697a61626c653a20636f6e747261637420697320616c72656160448201526d191e481a5b9a5d1a585b1a5e995960921b6064820152608401610bed565b6000805460ff191660011790558015612851576000805461ff0019166101001790555b61285a84613993565b6128626139cb565b6128ae6040518060400160405280600f81526020016e13db5b9a58da185a5b8815985d5b1d608a1b8152506040518060400160405280600381526020016227a6ab60e91b8152506139fa565b60fb80546001600160a01b038088166001600160a01b03199283161790925560fc8054868416908316811790915560fd80549386169390921692909217905560405163095ea7b360e01b815263095ea7b39061291290859060001990600401615b3a565b6020604051808303816000875af1158015612931573d6000803e3d6000fd5b505050506040513d601f19601f820116820180604052508101906129559190615b53565b508015610d9d576000805461ff0019169055604051600181527f7f26b83ff96e1f2b6a682f133852f6798a09c465da95921460cefb3847402498906020015b60405180910390a15050505050565b600080612a065a60966366ad5c8a60e01b898989896040516024016129cb9493929190615b70565b60408051601f198184030181529190526020810180516001600160e01b03166001600160e01b03199093169290921790915230929190613a2b565b9150915081610c6c57610c6c8686868685613ab7565b6101005460009060ff1615612a3357506000610c83565b6000612710612a40610c89565b61ffff86166000908152610101602090815260408083206001600160a01b0389168452909152902060010154612a769190615bae565b612a809190615bc5565b61ffff85166000908152610101602090815260408083206001600160a01b0388168452909152902060020154909150808211612ac157600092505050610c83565b612adb612acc6116df565b612ad683856155ef565b61396e565b95945050505050565b33612aed6116ab565b6001600160a01b03161461160f5760405162461bcd60e51b815260206004820181905260248201527f4f776e61626c653a2063616c6c6572206973206e6f7420746865206f776e65726044820152606401610bed565b6001600160a01b038316612ba55760405162461bcd60e51b8152602060048201526024808201527f45524332303a20617070726f76652066726f6d20746865207a65726f206164646044820152637265737360e01b6064820152608401610bed565b6001600160a01b038216612c065760405162461bcd60e51b815260206004820152602260248201527f45524332303a20617070726f766520746f20746865207a65726f206164647265604482015261737360f01b6064820152608401610bed565b6001600160a01b0383811660008181526034602090815260408083209487168084529482529182902085905590518481527f8c5be1e5ebec7d5bd14f71427d1e84f3dd0314c0f7b2291e5b200ac8c7c3b925910160405180910390a3505050565b6122f48363a9059cbb60e01b8484604051602401612c86929190615b3a565b60408051601f198184030181529190526020810180516001600160e01b03166001600160e01b031990931692909217909152613b45565b6000612cc9848461220c565b90506000198114611c4e5781811015612d245760405162461bcd60e51b815260206004820152601d60248201527f45524332303a20696e73756666696369656e7420616c6c6f77616e63650000006044820152606401610bed565b611c4e8484848403612b43565b6001600160a01b038316612d955760405162461bcd60e51b815260206004820152602560248201527f45524332303a207472616e736665722066726f6d20746865207a65726f206164604482015264647265737360d81b6064820152608401610bed565b6001600160a01b038216612df75760405162461bcd60e51b815260206004820152602360248201527f45524332303a207472616e7366657220746f20746865207a65726f206164647260448201526265737360e81b6064820152608401610bed565b6001600160a01b03831660009081526033602052604090205481811015612e6f5760405162461bcd60e51b815260206004820152602660248201527f45524332303a207472616e7366657220616d6f756e7420657863656564732062604482015265616c616e636560d01b6064820152608401610bed565b6001600160a01b038085166000818152603360205260408082208686039055928616808252908390208054860190559151600080516020615f8d83398151915290612ebd9086815260200190565b60405180910390a3611c4e565b6000610c80836001600160a01b038416613c1a565b6000610c808383613c1a565b6000612ef984826014613074565b604051602001612f0991906158f7565b604051602081830303815290604052612f2190615913565b61ffff861660009081526101016020908152604080832060609490941c80845293909152902054909150612f7d5760405162461bcd60e51b815260206004820152600360248201526256323160e81b6044820152606401610bed565b610d9d8583600061333d565b6101005460009060ff1615612fc65760405162461bcd60e51b815260206004820152600360248201526256313360e81b6044820152606401610bed565b6000612fd28385613c69565b60fc54909150610c80906001600160a01b0316333087613ce5565b606580546001600160a01b038381166001600160a01b0319831681179093556040519116919082907f8be0079c531659141344cd1fd0a4f28419497f9722a3daafe3b4186f6b6457e090600090a35050565b600061304a60355490565b600003613055575090565b603554613060610c89565b61306a9084615bae565b610c839190615bc5565b60608161308281601f615586565b10156130c15760405162461bcd60e51b815260206004820152600e60248201526d736c6963655f6f766572666c6f7760901b6044820152606401610bed565b6130cb8284615586565b8451101561310f5760405162461bcd60e51b8152602060048201526011602482015270736c6963655f6f75744f66426f756e647360781b6044820152606401610bed565b60608215801561312e5760405191506000825260208201604052613178565b6040519150601f8416801560200281840101858101878315602002848b0101015b8183101561316757805183526020928301920161314f565b5050858452601f01601f1916604052505b50949350505050565b61ffff83166000908152610101602090815260408083206001600160a01b0386168452909152902080546131dd5760405162461bcd60e51b81526020600482015260036024820152620ac62760eb1b6044820152606401610bed565b6040516001600160601b0319606085811b8216602084015230901b16603482015260009060480160408051601f198184030181529190526097549091506000906001600160a01b03166340a7bb1087308785613237613d1d565b6040518663ffffffff1660e01b8152600401613257959493929190615be7565b6040805180830381865afa158015613273573d6000803e3d6000fd5b505050506040513d601f19601f820116820180604052508101906132979190615c3b565b509050804710156132c35760405162fae2d560e21b815260048101829052476024820152604401610bed565b6097546001600160a01b031663c58031008288858830806132e2613d1d565b6040518863ffffffff1660e01b815260040161330396959493929190615c5f565b6000604051808303818588803b15801561331c57600080fd5b505af1158015613330573d6000803e3d6000fd5b5050505050505050505050565b6000828060200190518101906133539190615cc6565b9050600281600481111561336957613369615765565b03613398576000838060200190518101906133849190615cf2565b915050613392858285613d4d565b50611c4e565b60018160048111156133ac576133ac615765565b03611c4e576000838060200190518101906133c79190615ddd565b915050610d9d8582614193565b61ffff82166000908152610101602090815260408083206001600160a01b038516845290915281206001015460fe8054919290916134139084906155ef565b909155505061ffff9091166000908152610101602090815260408083206001600160a01b03909416835292905290812060010155565b610102546000908152610106602052604090206001015460ff16156134965760405162461bcd60e51b81526020600482015260036024820152622b189b60e91b6044820152606401610bed565b6134a1333085612d31565b61010660006101025481526020019081526020016000206000016040518060c00160405280336001600160a01b03168152602001846001600160a01b031681526020018581526020018381526020016134f98661303f565b81526000602091820181905283546001808201865594825290829020835160069092020180546001600160a01b03199081166001600160a01b039384161782559284015194810180549093169490911693909317905560408101516002830155606081015160038301556080810151600483015560a001516005909101805460ff1916911515919091179055505050565b600080612710613598610c89565b61ffff86166000908152610101602090815260408083206001600160a01b03891684529091529020600101546135ce9190615bae565b6135d89190615bc5565b61ffff85166000908152610101602090815260408083206001600160a01b0388168452909152902060020154610100549192509060ff161561361d579150610c839050565b81811161362f57600092505050610c83565b61363982826155ef565b92505050610c83565b6101025460009081526101066020526040902054806136895760405162461bcd60e51b815260206004820152600360248201526256313960e81b6044820152606401610bed565b6000816001600160401b038111156136a3576136a3615154565b6040519080825280602002602001820160405280156136cc578160200160208202803683370190505b50905060005b8281101561374c57610102546000908152610106602052604081208054839081106136ff576136ff615a6c565b9060005260206000209060060201905061371c816002015461303f565b83838151811061372e5761372e615a6c565b6020908102919091010152508061374481615a82565b9150506136d2565b5060005b828110156138e5576101025460009081526101066020526040812080548390811061377d5761377d615a6c565b9060005260206000209060060201905060006137b48484815181106137a4576137a4615a6c565b6020026020010151612ad66116df565b905081600401548110156138935760008183600401546137d491906155ef565b905060008360040154612710836137eb9190615bae565b6137f59190615bc5565b905083600301548111156138905760058401805460ff191690558354600285015460405163a9059cbb60e01b8152309263a9059cbb92613843926001600160a01b0390921691600401615b3a565b6020604051808303816000875af1158015613862573d6000803e3d6000fd5b505050506040513d601f19601f820116820180604052508101906138869190615b53565b50505050506138d3565b50505b60058201805460ff1916600190811790915582015460fc546138c2916001600160a01b03918216911683612c67565b6138d030836002015461436e565b50505b806138dd81615a82565b915050613750565b506101025460408051918252602082018490527fc682eb885c208b8aaaa811c05902e24a4f14b388960311623a8f31404f655129910160405180910390a16101028054600090815261010660205260408120600101805460ff191690558154919061394f83615a82565b91905055505050565b6000610c83825490565b6000610c808383614490565b600081831061397d5781610c80565b5090919050565b6001600160a01b03163b151590565b600054610100900460ff166139ba5760405162461bcd60e51b8152600401610bed90615e68565b6139c26144ba565b6110d6816144ea565b600054610100900460ff166139f25760405162461bcd60e51b8152600401610bed90615e68565b61160f6144ba565b600054610100900460ff16613a215760405162461bcd60e51b8152600401610bed90615e68565b611ff28282614533565b6000606060008060008661ffff166001600160401b03811115613a5057613a50615154565b6040519080825280601f01601f191660200182016040528015613a7a576020820181803683370190505b50905060008087516020890160008d8df191503d925086831115613a9c578692505b828152826000602083013e9093509150505b94509492505050565b818051906020012060c960008761ffff1661ffff16815260200190815260200160002085604051613ae891906158f7565b9081526040805191829003602090810183206001600160401b0388166000908152915220919091557fe183f33de2837795525b4792ca4cd60535bd77c53b7e7030060bfcf5734d6b0c906129949087908790879087908790615eb3565b6000613b9a826040518060400160405280602081526020017f5361666545524332303a206c6f772d6c6576656c2063616c6c206661696c6564815250856001600160a01b03166145739092919063ffffffff16565b9050805160001480613bbb575080806020019051810190613bbb9190615b53565b6122f45760405162461bcd60e51b815260206004820152602a60248201527f5361666545524332303a204552433230206f7065726174696f6e20646964206e6044820152691bdd081cdd58d8d9595960b21b6064820152608401610bed565b6000818152600183016020526040812054613c6157508154600181810184556000848152602080822090930184905584548482528286019093526040902091909155610c83565b506000610c83565b600080613c7560355490565b600003613c83575081613ca5565b613c8b610c89565b603554613c989085615bae565b613ca29190615bc5565b90505b60008111613cdb5760405162461bcd60e51b815260206004820152600360248201526256313760e81b6044820152606401610bed565b610c808482614582565b6040516001600160a01b0380851660248301528316604482015260648101829052611c4e9085906323b872dd60e01b90608401612c86565b60408051600160f01b6020820152620f424060228083019190915282518083039091018152604290910190915290565b613d578383614631565b61ffff831660009081526101016020908152604080832085516001600160a01b03168452909152902054613db35760405162461bcd60e51b8152602060048201526003602482015262158c4d60ea1b6044820152606401610bed565b606082015115613dd057613dd08383600001518460600151614810565b60408083015161ffff85166000908152610101602090815283822086516001600160a01b031683529052918220600301805491929091613e11908490615586565b90915550508151600090613e2690859061358a565b90506000613e3882856080015161396e565b90508015613ea85761ffff851660009081526101016020908152604080832087516001600160a01b0316845290915281206002018054839290613e7c9084906155ef565b925050819055508060ff6000828254613e9591906155ef565b90915550613ea5905081836155ef565b91505b60e084015115613f155760e084015161ffff861660009081526101016020908152604080832088516001600160a01b0316845290915281206002018054909190613ef3908490615586565b909155505060e084015160ff8054600090613f0f908490615586565b90915550505b60208085015161ffff8716600081815261010180855260408083208a516001600160a01b039081168552818852828520600501969096559383529085528851909316815292529020600101541580613f7057506101005460ff165b15613f7e5783610100015191505b60a084015115613fd157613fcc8460a001518686600001516003604051806020016040528088815250604051602001613fb8929190615f05565b604051602081830303815290604052614905565b613ffc565b613ffc8585600001516003604051806020016040528087815250604051602001611c3a929190615f05565b600061010160008761ffff1661ffff168152602001908152602001600020600086600001516001600160a01b03166001600160a01b0316815260200190815260200160002060405180610100016040529081600082015481526020016001820154815260200160028201548152602001600382015481526020016004820154815260200160058201548152602001600682015481526020016007820160009054906101000a90046001600160a01b03166001600160a01b03166001600160a01b03168152505090507f08bc8eff67f79e18165507d64024f5ca5e90a2593c7a45cb5caf7f9d843e404c8686600001518760400151886060015189608001518660600151876080015188604001518d60e001518a602001518e6040516141839b9a9998979695949392919061ffff9b909b168b526001600160a01b039990991660208b015260408a01979097526060890195909552608088019390935260a087019190915260c086015260e08501526101008401526101208301526101408201526101600190565b60405180910390a1505050505050565b61ffff821660009081526101016020908152604080832084516001600160a01b031684529091529020546141ef5760405162461bcd60e51b815260206004820152600360248201526205632360ec1b6044820152606401610bed565b60408101511561420c5761420c8282600001518360400151614810565b60208082015161ffff841660009081526101018352604080822085516001600160a01b0316835290935291822060020180549192909161424d9084906155ef565b9091555050602081015160ff80546000906142699084906155ef565b9091555050606081015160009081526101066020526040812060030180549161429183615a82565b909155505060608101805160009081526101066020818152604080842061ffff88168552600401825280842086516001600160a01b031685528252808420805460ff19166001179055845184529190528082206003015492518252902060020154036142ff576142ff613642565b80600001516001600160a01b03168261ffff167f046368a4ca42efbdd968b9025440eb5590bdcda7da09f4fef8ac4ef2f44a5ed0836020015184604001518560600151604051614362939291909283526020830191909152604082015260600190565b60405180910390a35050565b6001600160a01b0382166143ce5760405162461bcd60e51b815260206004820152602160248201527f45524332303a206275726e2066726f6d20746865207a65726f206164647265736044820152607360f81b6064820152608401610bed565b6001600160a01b038216600090815260336020526040902054818110156144425760405162461bcd60e51b815260206004820152602260248201527f45524332303a206275726e20616d6f756e7420657863656564732062616c616e604482015261636560f01b6064820152608401610bed565b6001600160a01b0383166000818152603360209081526040808320868603905560358054879003905551858152919291600080516020615f8d833981519152910160405180910390a3505050565b60008260000182815481106144a7576144a7615a6c565b9060005260206000200154905092915050565b600054610100900460ff166144e15760405162461bcd60e51b8152600401610bed90615e68565b61160f33612fed565b600054610100900460ff166145115760405162461bcd60e51b8152600401610bed90615e68565b609780546001600160a01b0319166001600160a01b0392909216919091179055565b600054610100900460ff1661455a5760405162461bcd60e51b8152600401610bed90615e68565b6036614566838261583e565b5060376122f4828261583e565b606061278284846000856149f5565b6001600160a01b0382166145d85760405162461bcd60e51b815260206004820152601f60248201527f45524332303a206d696e7420746f20746865207a65726f2061646472657373006044820152606401610bed565b80603560008282546145ea9190615586565b90915550506001600160a01b038216600081815260336020908152604080832080548601905551848152600080516020615f8d833981519152910160405180910390a35050565b61ffff821660009081526101076020908152604080832084516001600160a01b031684528252808320610120850151845290915290205460ff161561469e5760405162461bcd60e51b81526020600482015260036024820152622b191960e91b6044820152606401610bed565b805161012082015160405160609290921b6001600160601b0319166020830152603482015260f083901b6001600160f01b031916605482015260009060560160405160208183030381529060405280519060200120905060008160405160200161473391907b0ca2ba3432b932bab69029b4b3b732b21026b2b9b9b0b3b29d05199960211b8152601c810191909152603c0190565b60408051601f19818403018152918152815160209283012061ffff87166000908152610101845282812087516001600160a01b039081168352945291909120600701546101408601519193509091169061478e908390614ad0565b6001600160a01b0316146147ca5760405162461bcd60e51b815260206004820152600360248201526256323360e81b6044820152606401610bed565b505061ffff90911660009081526101076020908152604080832084516001600160a01b03168452825280832061012090940151835292905220805460ff19166001179055565b61ffff83166000908152610101602090815260408083206001600160a01b03861684529091529020600201548111156148715760405162461bcd60e51b815260206004820152600360248201526256313560e81b6044820152606401610bed565b61ffff83166000908152610101602090815260408083206001600160a01b0386168452909152812060040180548392906148ac908490615586565b909155505061ffff83166000908152610101602090815260408083206001600160a01b0386168452909152812060020180548392906148ec9084906155ef565b925050819055508060ff6000828254610f4191906155ef565b60fd54604051630dc6346160e01b81526000916001600160a01b031690630dc634619061493a90879087908790600401615f21565b602060405180830381865afa158015614957573d6000803e3d6000fd5b505050506040513d601f19601f8201168201806040525081019061497b9190615602565b60fd5460fc54604051633920455b60e11b81529293506001600160a01b03918216926372408ab69285926149bc929116908a908a908a908a90600401615f4f565b6000604051808303818588803b1580156149d557600080fd5b505af11580156149e9573d6000803e3d6000fd5b50505050505050505050565b606082471015614a565760405162461bcd60e51b815260206004820152602660248201527f416464726573733a20696e73756666696369656e742062616c616e636520666f6044820152651c8818d85b1b60d21b6064820152608401610bed565b600080866001600160a01b03168587604051614a7291906158f7565b60006040518083038185875af1925050503d8060008114614aaf576040519150601f19603f3d011682016040523d82523d6000602084013e614ab4565b606091505b5091509150614ac587838387614af4565b979650505050505050565b6000806000614adf8585614b6b565b91509150614aec81614bb0565b509392505050565b60608315614b61578251600003614b5a57614b0e85613984565b614b5a5760405162461bcd60e51b815260206004820152601d60248201527f416464726573733a2063616c6c20746f206e6f6e2d636f6e74726163740000006044820152606401610bed565b5081612782565b6127828383614cf5565b6000808251604103614ba15760208301516040840151606085015160001a614b9587828585614d1f565b94509450505050614ba9565b506000905060025b9250929050565b6000816004811115614bc457614bc4615765565b03614bcc5750565b6001816004811115614be057614be0615765565b03614c285760405162461bcd60e51b815260206004820152601860248201527745434453413a20696e76616c6964207369676e617475726560401b6044820152606401610bed565b6002816004811115614c3c57614c3c615765565b03614c895760405162461bcd60e51b815260206004820152601f60248201527f45434453413a20696e76616c6964207369676e6174757265206c656e677468006044820152606401610bed565b6003816004811115614c9d57614c9d615765565b036110d65760405162461bcd60e51b815260206004820152602260248201527f45434453413a20696e76616c6964207369676e6174757265202773272076616c604482015261756560f01b6064820152608401610bed565b815115614d055781518083602001fd5b8060405162461bcd60e51b8152600401610bed9190614f74565b6000806fa2a8918ca85bafe22016d0b997e4df60600160ff1b03831115614d4c5750600090506003613aae565b6040805160008082526020820180845289905260ff881692820192909252606081018690526080810185905260019060a0016020604051602081039080840390855afa158015614da0573d6000803e3d6000fd5b5050604051601f1901519150506001600160a01b038116614dc957600060019250925050613aae565b9660009650945050505050565b803561ffff81168114614de857600080fd5b919050565b60008083601f840112614dff57600080fd5b5081356001600160401b03811115614e1657600080fd5b602083019150836020828501011115614ba957600080fd5b80356001600160401b0381168114614de857600080fd5b60008060008060008060808789031215614e5e57600080fd5b614e6787614dd6565b955060208701356001600160401b0380821115614e8357600080fd5b614e8f8a838b01614ded565b9097509550859150614ea360408a01614e2e565b94506060890135915080821115614eb957600080fd5b50614ec689828a01614ded565b979a9699509497509295939492505050565b6001600160a01b03811681146110d657600080fd5b60008060408385031215614f0057600080fd5b614f0983614dd6565b91506020830135614f1981614ed8565b809150509250929050565b60005b83811015614f3f578181015183820152602001614f27565b50506000910152565b60008151808452614f60816020860160208601614f24565b601f01601f19169290920160200192915050565b602081526000610c806020830184614f48565b600060208284031215614f9957600080fd5b610c8082614dd6565b60008060408385031215614fb557600080fd5b8235614fc081614ed8565b946020939093013593505050565b600080600060608486031215614fe357600080fd5b614fec84614dd6565b92506020840135614ffc81614ed8565b929592945050506040919091013590565b6000806040838503121561502057600080fd5b614fc083614dd6565b80151581146110d657600080fd5b60006020828403121561504957600080fd5b8135610c8081615029565b60006020828403121561506657600080fd5b8135610c8081614ed8565b60008060006060848603121561508657600080fd5b8335614fec81614ed8565b6001600160a01b0391909116815260200190565b6000806000604084860312156150ba57600080fd5b6150c384614dd6565b925060208401356001600160401b038111156150de57600080fd5b6150ea86828701614ded565b9497909650939450505050565b600080600080600060a0868803121561510f57600080fd5b61511886614dd6565b9450602086013561512881614ed8565b93506040860135925060608601359150608086013561514681614ed8565b809150509295509295909350565b634e487b7160e01b600052604160045260246000fd5b60405161016081016001600160401b038111828210171561518d5761518d615154565b60405290565b604051601f8201601f191681016001600160401b03811182821017156151bb576151bb615154565b604052919050565b60006001600160401b038211156151dc576151dc615154565b50601f01601f191660200190565b600082601f8301126151fb57600080fd5b813561520e615209826151c3565b615193565b81815284602083860101111561522357600080fd5b816020850160208301376000918101602001919091529392505050565b60008060006060848603121561525557600080fd5b61525e84614dd6565b925060208401356001600160401b0381111561527957600080fd5b615285868287016151ea565b92505061529460408501614e2e565b90509250925092565b600080604083850312156152b057600080fd5b823591506020830135614f1981614ed8565b600080604083850312156152d557600080fd5b6152de83614dd6565b91506152ec60208401614dd6565b90509250929050565b60008060006060848603121561530a57600080fd5b61531384614dd6565b9250602084013561532381614ed8565b9150604084013561533381614ed8565b809150509250925092565b60008060008060008060c0878903121561535757600080fd5b61536087614dd6565b955060208701356001600160401b038082111561537c57600080fd5b6153888a838b016151ea565b965060408901359550606089013591506153a182614ed8565b9093506080880135925060a088013590808211156153be57600080fd5b506153cb89828a016151ea565b9150509295509295509295565b6000806000806000608086880312156153f057600080fd5b6153f986614dd6565b945061540760208701614dd6565b93506040860135925060608601356001600160401b0381111561542957600080fd5b61543588828901614ded565b969995985093965092949392505050565b6000806040838503121561545957600080fd5b8235614f0981614ed8565b60008060006060848603121561547957600080fd5b61548284614dd6565b925061549060208501614dd6565b9150604084013590509250925092565b6000806000606084860312156154b557600080fd5b833592506020840135614ffc81614ed8565b600080600080608085870312156154dd57600080fd5b6154e685614dd6565b93506154f460208601614dd6565b9250604085013561550481614ed8565b9396929550929360600135925050565b6000806000806080858703121561552a57600080fd5b843561553581614ed8565b9350602085013561554581614ed8565b9250604085013561555581614ed8565b9150606085013561556581614ed8565b939692955090935050565b634e487b7160e01b600052601160045260246000fd5b80820180821115610c8357610c83615570565b600181811c908216806155ad57607f821691505b6020821081036155cd57634e487b7160e01b600052602260045260246000fd5b50919050565b602080825260029082015261563160f01b604082015260600190565b81810381811115610c8357610c83615570565b60006020828403121561561457600080fd5b5051919050565b8183823760009101908152919050565b81835281816020850137506000828201602090810191909152601f909101601f19169091010190565b61ffff8416815260406020820152600061277f60408301848661562b565b600181815b808511156156ad57816000190482111561569357615693615570565b808516156156a057918102915b93841c9390800290615677565b509250929050565b6000826156c457506001610c83565b816156d157506000610c83565b81600181146156e757600281146156f15761570d565b6001915050610c83565b60ff84111561570257615702615570565b50506001821b610c83565b5060208310610133831016604e8410600b8410161715615730575081810a610c83565b61573a8383615672565b806000190482111561574e5761574e615570565b029392505050565b6000610c8060ff8416836156b5565b634e487b7160e01b600052602160045260246000fd5b6005811061579957634e487b7160e01b600052602160045260246000fd5b9052565b604081016157ab828561577b565b91516001600160a01b031660209190910152919050565b8284823760609190911b6001600160601b0319169101908152601401919050565b601f8211156122f457600081815260208120601f850160051c8101602086101561580a5750805b601f850160051c820191505b81811015610c6c57828155600101615816565b600019600383901b1c191660019190911b1790565b81516001600160401b0381111561585757615857615154565b61586b816158658454615599565b846157e3565b602080601f83116001811461589a57600084156158885750858301515b6158928582615829565b865550610c6c565b600085815260208120601f198616915b828110156158c9578886015182559484019460019091019084016158aa565b50858210156158e75787850151600019600388901b60f8161c191681555b5050505050600190811b01905550565b60008251615909818460208701614f24565b9190910192915050565b805160208201516001600160601b031980821692919060148310156159425780818460140360031b1b83161693505b505050919050565b600061ffff808816835280871660208401525084604083015260806060830152614ac560808301848661562b565b61ffff8616815260806020820152600061599660808301868861562b565b6001600160401b0394909416604083015250606001529392505050565b6001600160401b038311156159ca576159ca615154565b6159de836159d88354615599565b836157e3565b6000601f841160018114615a0c57600085156159fa5750838201355b615a048682615829565b845550610d9d565b600083815260209020601f19861690835b82811015615a3d5786850135825560209485019460019092019101615a1d565b5086821015615a5a5760001960f88860031b161c19848701351681555b505060018560011b0183555050505050565b634e487b7160e01b600052603260045260246000fd5b600060018201615a9457615a94615570565b5060010190565b60608101615aa9828561577b565b82516020830152602083015160408301529392505050565b600082601f830112615ad257600080fd5b8151615ae0615209826151c3565b818152846020838601011115615af557600080fd5b612782826020830160208701614f24565b600060208284031215615b1857600080fd5b81516001600160401b03811115615b2e57600080fd5b61278284828501615ac1565b6001600160a01b03929092168252602082015260400190565b600060208284031215615b6557600080fd5b8151610c8081615029565b61ffff85168152608060208201526000615b8d6080830186614f48565b6001600160401b03851660408401528281036060840152614ac58185614f48565b8082028115828204841417610c8357610c83615570565b600082615be257634e487b7160e01b600052601260045260246000fd5b500490565b61ffff861681526001600160a01b038516602082015260a060408201819052600090615c1590830186614f48565b84151560608401528281036080840152615c2f8185614f48565b98975050505050505050565b60008060408385031215615c4e57600080fd5b505080516020909101519092909150565b61ffff8716815260c060208201526000615c7c60c0830188614f48565b8281036040840152615c8e8188614f48565b6001600160a01b0387811660608601528616608085015283810360a08501529050615cb98185614f48565b9998505050505050505050565b600060208284031215615cd857600080fd5b815160058110610c8057600080fd5b8051614de881614ed8565b60008060408385031215615d0557600080fd5b825160208401519092506001600160401b0380821115615d2457600080fd5b908401906101608287031215615d3957600080fd5b615d4161516a565b615d4a83615ce7565b81526020830151602082015260408301516040820152606083015160608201526080830151608082015260a083015160a082015260c083015160c082015260e083015160e08201526101008084015181830152506101208084015181830152506101408084015183811115615dbe57600080fd5b615dca89828701615ac1565b8284015250508093505050509250929050565b60008082840360a0811215615df157600080fd5b835192506080601f1982011215615e0757600080fd5b50604051608081016001600160401b0381118282101715615e2a57615e2a615154565b6040526020840151615e3b81614ed8565b80825250604084015160208201526060840151604082015260808401516060820152809150509250929050565b6020808252602b908201527f496e697469616c697a61626c653a20636f6e7472616374206973206e6f74206960408201526a6e697469616c697a696e6760a81b606082015260800190565b61ffff8616815260a060208201526000615ed060a0830187614f48565b6001600160401b03861660408401528281036060840152615ef18186614f48565b90508281036080840152615c2f8185614f48565b60408101615f13828561577b565b825160208301529392505050565b61ffff841681526001600160a01b038316602082015260606040820181905260009061277f90830184614f48565b6001600160a01b0386811682526020820186905261ffff851660408301528316606082015260a060808201819052600090614ac590830184614f4856feddf252ad1be2c89b69c2b068fc378daa952ba7f163c4a11628f55a4df523b3efa2646970667358221220e2164ab15d751a1a1b748b7b2c400546d599e148decea13a416db2ef11f6516464736f6c63430008130033",
  "linkReferences": {},
  "deployedLinkReferences": {}
}