{
  "_format": "hh-sol-artifact-1",
  "contractName": "Vault",
  "sourceName": "contracts/Vault.sol",
  "abi": [
    {
      "inputs": [
        {
          "internalType": "uint256",
          "name": "amount",
          "type": "uint256"
        },
        {
          "internalType": "uint256",
          "name": "balance",
          "type": "uint256"
        }
      ],
      "name": "InsufficientFunds",
      "type": "error"
    },
    {
      "anonymous": false,
      "inputs": [
        {
          "indexed": true,
          "internalType": "address",
          "name": "owner",
          "type": "address"
        },
        {
          "indexed": true,
          "internalType": "address",
          "name": "spender",
          "type": "address"
        },
        {
          "indexed": false,
          "internalType": "uint256",
          "name": "value",
          "type": "uint256"
        }
      ],
      "name": "Approval",
      "type": "event"
    },
    {
      "anonymous": false,
      "inputs": [
        {
          "indexed": false,
          "internalType": "uint256",
          "name": "epochId",
          "type": "uint256"
        },
        {
          "indexed": false,
          "internalType": "uint256",
          "name": "requestCount",
          "type": "uint256"
        }
      ],
      "name": "FulfilledWithdrawEpoch",
      "type": "event"
    },
    {
      "anonymous": false,
      "inputs": [
        {
          "indexed": false,
          "internalType": "uint8",
          "name": "version",
          "type": "uint8"
        }
      ],
      "name": "Initialized",
      "type": "event"
    },
    {
      "anonymous": false,
      "inputs": [
        {
          "indexed": false,
          "internalType": "uint16",
          "name": "_srcChainId",
          "type": "uint16"
        },
        {
          "indexed": false,
          "internalType": "bytes",
          "name": "_srcAddress",
          "type": "bytes"
        },
        {
          "indexed": false,
          "internalType": "uint64",
          "name": "_nonce",
          "type": "uint64"
        },
        {
          "indexed": false,
          "internalType": "bytes",
          "name": "_payload",
          "type": "bytes"
        },
        {
          "indexed": false,
          "internalType": "bytes",
          "name": "_reason",
          "type": "bytes"
        }
      ],
      "name": "MessageFailed",
      "type": "event"
    },
    {
      "anonymous": false,
      "inputs": [
        {
          "indexed": true,
          "internalType": "address",
          "name": "previousOwner",
          "type": "address"
        },
        {
          "indexed": true,
          "internalType": "address",
          "name": "newOwner",
          "type": "address"
        }
      ],
      "name": "OwnershipTransferred",
      "type": "event"
    },
    {
      "anonymous": false,
      "inputs": [
        {
          "indexed": false,
          "internalType": "uint16",
          "name": "_srcChainId",
          "type": "uint16"
        },
        {
          "indexed": false,
          "internalType": "bytes",
          "name": "_srcAddress",
          "type": "bytes"
        },
        {
          "indexed": false,
          "internalType": "uint64",
          "name": "_nonce",
          "type": "uint64"
        },
        {
          "indexed": false,
          "internalType": "bytes32",
          "name": "_payloadHash",
          "type": "bytes32"
        }
      ],
      "name": "RetryMessageSuccess",
      "type": "event"
    },
    {
      "anonymous": false,
      "inputs": [
        {
          "indexed": false,
          "internalType": "uint16",
          "name": "_dstChainId",
          "type": "uint16"
        },
        {
          "indexed": false,
          "internalType": "uint16",
          "name": "_type",
          "type": "uint16"
        },
        {
          "indexed": false,
          "internalType": "uint256",
          "name": "_minDstGas",
          "type": "uint256"
        }
      ],
      "name": "SetMinDstGas",
      "type": "event"
    },
    {
      "anonymous": false,
      "inputs": [
        {
          "indexed": false,
          "internalType": "address",
          "name": "precrime",
          "type": "address"
        }
      ],
      "name": "SetPrecrime",
      "type": "event"
    },
    {
      "anonymous": false,
      "inputs": [
        {
          "indexed": false,
          "internalType": "uint16",
          "name": "_remoteChainId",
          "type": "uint16"
        },
        {
          "indexed": false,
          "internalType": "bytes",
          "name": "_path",
          "type": "bytes"
        }
      ],
      "name": "SetTrustedRemote",
      "type": "event"
    },
    {
      "anonymous": false,
      "inputs": [
        {
          "indexed": false,
          "internalType": "uint16",
          "name": "_remoteChainId",
          "type": "uint16"
        },
        {
          "indexed": false,
          "internalType": "bytes",
          "name": "_remoteAddress",
          "type": "bytes"
        }
      ],
      "name": "SetTrustedRemoteAddress",
      "type": "event"
    },
    {
      "anonymous": false,
      "inputs": [
        {
          "indexed": true,
          "internalType": "address",
          "name": "token",
          "type": "address"
        },
        {
          "indexed": false,
          "internalType": "uint256",
          "name": "amount",
          "type": "uint256"
        },
        {
          "indexed": false,
          "internalType": "address",
          "name": "sender",
          "type": "address"
        }
      ],
      "name": "SgReceived",
      "type": "event"
    },
    {
      "anonymous": false,
      "inputs": [
        {
          "indexed": false,
          "internalType": "uint16",
          "name": "chainId",
          "type": "uint16"
        },
        {
          "indexed": false,
          "internalType": "address",
          "name": "strategy",
          "type": "address"
        },
        {
          "indexed": false,
          "internalType": "uint256",
          "name": "gain",
          "type": "uint256"
        },
        {
          "indexed": false,
          "internalType": "uint256",
          "name": "loss",
          "type": "uint256"
        },
        {
          "indexed": false,
          "internalType": "uint256",
          "name": "debtPaid",
          "type": "uint256"
        },
        {
          "indexed": false,
          "internalType": "uint256",
          "name": "totalGain",
          "type": "uint256"
        },
        {
          "indexed": false,
          "internalType": "uint256",
          "name": "totalLoss",
          "type": "uint256"
        },
        {
          "indexed": false,
          "internalType": "uint256",
          "name": "totalDebt",
          "type": "uint256"
        },
        {
          "indexed": false,
          "internalType": "uint256",
          "name": "debtAdded",
          "type": "uint256"
        },
        {
          "indexed": false,
          "internalType": "uint256",
          "name": "debtRatio",
          "type": "uint256"
        },
        {
          "indexed": false,
          "internalType": "uint256",
          "name": "tokens",
          "type": "uint256"
        }
      ],
      "name": "StrategyReported",
      "type": "event"
    },
    {
      "anonymous": false,
      "inputs": [
        {
          "indexed": true,
          "internalType": "uint16",
          "name": "chainId",
          "type": "uint16"
        },
        {
          "indexed": true,
          "internalType": "address",
          "name": "strategy",
          "type": "address"
        },
        {
          "indexed": false,
          "internalType": "uint256",
          "name": "amount",
          "type": "uint256"
        },
        {
          "indexed": false,
          "internalType": "uint256",
          "name": "loss",
          "type": "uint256"
        },
        {
          "indexed": false,
          "internalType": "uint256",
          "name": "id",
          "type": "uint256"
        }
      ],
      "name": "StrategyWithdrawnSome",
      "type": "event"
    },
    {
      "anonymous": false,
      "inputs": [
        {
          "indexed": true,
          "internalType": "address",
          "name": "from",
          "type": "address"
        },
        {
          "indexed": true,
          "internalType": "address",
          "name": "to",
          "type": "address"
        },
        {
          "indexed": false,
          "internalType": "uint256",
          "name": "value",
          "type": "uint256"
        }
      ],
      "name": "Transfer",
      "type": "event"
    },
    {
      "inputs": [],
      "name": "DEFAULT_PAYLOAD_SIZE_LIMIT",
      "outputs": [
        {
          "internalType": "uint256",
          "name": "",
          "type": "uint256"
        }
      ],
      "stateMutability": "view",
      "type": "function"
    },
    {
      "inputs": [
        {
          "internalType": "uint16",
          "name": "_chainId",
          "type": "uint16"
        },
        {
          "internalType": "address",
          "name": "_strategy",
          "type": "address"
        },
        {
          "internalType": "uint256",
          "name": "_debtRatio",
          "type": "uint256"
        },
        {
          "internalType": "uint256",
          "name": "_performanceFee",
          "type": "uint256"
        },
        {
          "internalType": "address",
          "name": "_strategist",
          "type": "address"
        }
      ],
      "name": "addStrategy",
      "outputs": [],
      "stateMutability": "nonpayable",
      "type": "function"
    },
    {
      "inputs": [
        {
          "internalType": "address",
          "name": "owner",
          "type": "address"
        },
        {
          "internalType": "address",
          "name": "spender",
          "type": "address"
        }
      ],
      "name": "allowance",
      "outputs": [
        {
          "internalType": "uint256",
          "name": "",
          "type": "uint256"
        }
      ],
      "stateMutability": "view",
      "type": "function"
    },
    {
      "inputs": [
        {
          "internalType": "address",
          "name": "spender",
          "type": "address"
        },
        {
          "internalType": "uint256",
          "name": "amount",
          "type": "uint256"
        }
      ],
      "name": "approve",
      "outputs": [
        {
          "internalType": "bool",
          "name": "",
          "type": "bool"
        }
      ],
      "stateMutability": "nonpayable",
      "type": "function"
    },
    {
      "inputs": [
        {
          "internalType": "address",
          "name": "account",
          "type": "address"
        }
      ],
      "name": "balanceOf",
      "outputs": [
        {
          "internalType": "uint256",
          "name": "",
          "type": "uint256"
        }
      ],
      "stateMutability": "view",
      "type": "function"
    },
    {
      "inputs": [
        {
          "internalType": "uint16",
          "name": "_chainId",
          "type": "uint16"
        },
        {
          "internalType": "address",
          "name": "_strategy",
          "type": "address"
        }
      ],
      "name": "creditAvailable",
      "outputs": [
        {
          "internalType": "uint256",
          "name": "",
          "type": "uint256"
        }
      ],
      "stateMutability": "view",
      "type": "function"
    },
    {
      "inputs": [
        {
          "internalType": "uint16",
          "name": "_chainId",
          "type": "uint16"
        },
        {
          "internalType": "address",
          "name": "_strategy",
          "type": "address"
        }
      ],
      "name": "debtOutstanding",
      "outputs": [
        {
          "internalType": "uint256",
          "name": "",
          "type": "uint256"
        }
      ],
      "stateMutability": "view",
      "type": "function"
    },
    {
      "inputs": [],
      "name": "decimals",
      "outputs": [
        {
          "internalType": "uint8",
          "name": "",
          "type": "uint8"
        }
      ],
      "stateMutability": "view",
      "type": "function"
    },
    {
      "inputs": [
        {
          "internalType": "address",
          "name": "spender",
          "type": "address"
        },
        {
          "internalType": "uint256",
          "name": "subtractedValue",
          "type": "uint256"
        }
      ],
      "name": "decreaseAllowance",
      "outputs": [
        {
          "internalType": "bool",
          "name": "",
          "type": "bool"
        }
      ],
      "stateMutability": "nonpayable",
      "type": "function"
    },
    {
      "inputs": [
        {
          "internalType": "uint256",
          "name": "_amount",
          "type": "uint256"
        },
        {
          "internalType": "address",
          "name": "_recipient",
          "type": "address"
        }
      ],
      "name": "deposit",
      "outputs": [
        {
          "internalType": "uint256",
          "name": "",
          "type": "uint256"
        }
      ],
      "stateMutability": "nonpayable",
      "type": "function"
    },
    {
      "inputs": [],
      "name": "emergencyShutdown",
      "outputs": [
        {
          "internalType": "bool",
          "name": "",
          "type": "bool"
        }
      ],
      "stateMutability": "view",
      "type": "function"
    },
    {
      "inputs": [
        {
          "internalType": "uint16",
          "name": "",
          "type": "uint16"
        },
        {
          "internalType": "bytes",
          "name": "",
          "type": "bytes"
        },
        {
          "internalType": "uint64",
          "name": "",
          "type": "uint64"
        }
      ],
      "name": "failedMessages",
      "outputs": [
        {
          "internalType": "bytes32",
          "name": "",
          "type": "bytes32"
        }
      ],
      "stateMutability": "view",
      "type": "function"
    },
    {
      "inputs": [
        {
          "internalType": "uint16",
          "name": "_srcChainId",
          "type": "uint16"
        },
        {
          "internalType": "bytes",
          "name": "_srcAddress",
          "type": "bytes"
        }
      ],
      "name": "forceResumeReceive",
      "outputs": [],
      "stateMutability": "nonpayable",
      "type": "function"
    },
    {
      "inputs": [
        {
          "internalType": "uint16",
          "name": "_version",
          "type": "uint16"
        },
        {
          "internalType": "uint16",
          "name": "_chainId",
          "type": "uint16"
        },
        {
          "internalType": "address",
          "name": "",
          "type": "address"
        },
        {
          "internalType": "uint256",
          "name": "_configType",
          "type": "uint256"
        }
      ],
      "name": "getConfig",
      "outputs": [
        {
          "internalType": "bytes",
          "name": "",
          "type": "bytes"
        }
      ],
      "stateMutability": "view",
      "type": "function"
    },
    {
      "inputs": [
        {
          "internalType": "uint16",
          "name": "_remoteChainId",
          "type": "uint16"
        }
      ],
      "name": "getTrustedRemoteAddress",
      "outputs": [
        {
          "internalType": "bytes",
          "name": "",
          "type": "bytes"
        }
      ],
      "stateMutability": "view",
      "type": "function"
    },
    {
      "inputs": [],
      "name": "governance",
      "outputs": [
        {
          "internalType": "address",
          "name": "",
          "type": "address"
        }
      ],
      "stateMutability": "view",
      "type": "function"
    },
    {
      "inputs": [],
      "name": "handleWithdrawals",
      "outputs": [],
      "stateMutability": "nonpayable",
      "type": "function"
    },
    {
      "inputs": [
        {
          "internalType": "address",
          "name": "spender",
          "type": "address"
        },
        {
          "internalType": "uint256",
          "name": "addedValue",
          "type": "uint256"
        }
      ],
      "name": "increaseAllowance",
      "outputs": [
        {
          "internalType": "bool",
          "name": "",
          "type": "bool"
        }
      ],
      "stateMutability": "nonpayable",
      "type": "function"
    },
    {
      "inputs": [
        {
          "internalType": "address",
          "name": "_governance",
          "type": "address"
        },
        {
          "internalType": "address",
          "name": "_lzEndpoint",
          "type": "address"
        },
        {
          "internalType": "contract IERC20",
          "name": "_token",
          "type": "address"
        },
        {
          "internalType": "address",
          "name": "_sgRouter",
          "type": "address"
        }
      ],
      "name": "initialize",
      "outputs": [],
      "stateMutability": "nonpayable",
      "type": "function"
    },
    {
      "inputs": [
        {
          "internalType": "uint16",
          "name": "_srcChainId",
          "type": "uint16"
        },
        {
          "internalType": "bytes",
          "name": "_srcAddress",
          "type": "bytes"
        }
      ],
      "name": "isTrustedRemote",
      "outputs": [
        {
          "internalType": "bool",
          "name": "",
          "type": "bool"
        }
      ],
      "stateMutability": "view",
      "type": "function"
    },
    {
      "inputs": [],
      "name": "lzEndpoint",
      "outputs": [
        {
          "internalType": "contract ILayerZeroEndpointUpgradeable",
          "name": "",
          "type": "address"
        }
      ],
      "stateMutability": "view",
      "type": "function"
    },
    {
      "inputs": [
        {
          "internalType": "uint16",
          "name": "_srcChainId",
          "type": "uint16"
        },
        {
          "internalType": "bytes",
          "name": "_srcAddress",
          "type": "bytes"
        },
        {
          "internalType": "uint64",
          "name": "_nonce",
          "type": "uint64"
        },
        {
          "internalType": "bytes",
          "name": "_payload",
          "type": "bytes"
        }
      ],
      "name": "lzReceive",
      "outputs": [],
      "stateMutability": "nonpayable",
      "type": "function"
    },
    {
      "inputs": [
        {
          "internalType": "uint16",
          "name": "_chainId",
          "type": "uint16"
        },
        {
          "internalType": "address",
          "name": "_oldStrategy",
          "type": "address"
        },
        {
          "internalType": "address",
          "name": "_newStrategy",
          "type": "address"
        }
      ],
      "name": "migrateStrategy",
      "outputs": [],
      "stateMutability": "nonpayable",
      "type": "function"
    },
    {
      "inputs": [
        {
          "internalType": "uint16",
          "name": "",
          "type": "uint16"
        },
        {
          "internalType": "uint16",
          "name": "",
          "type": "uint16"
        }
      ],
      "name": "minDstGasLookup",
      "outputs": [
        {
          "internalType": "uint256",
          "name": "",
          "type": "uint256"
        }
      ],
      "stateMutability": "view",
      "type": "function"
    },
    {
      "inputs": [],
      "name": "name",
      "outputs": [
        {
          "internalType": "string",
          "name": "",
          "type": "string"
        }
      ],
      "stateMutability": "view",
      "type": "function"
    },
    {
      "inputs": [
        {
          "internalType": "uint16",
          "name": "_srcChainId",
          "type": "uint16"
        },
        {
          "internalType": "bytes",
          "name": "_srcAddress",
          "type": "bytes"
        },
        {
          "internalType": "uint64",
          "name": "_nonce",
          "type": "uint64"
        },
        {
          "internalType": "bytes",
          "name": "_payload",
          "type": "bytes"
        }
      ],
      "name": "nonblockingLzReceive",
      "outputs": [],
      "stateMutability": "nonpayable",
      "type": "function"
    },
    {
      "inputs": [],
      "name": "owner",
      "outputs": [
        {
          "internalType": "address",
          "name": "",
          "type": "address"
        }
      ],
      "stateMutability": "view",
      "type": "function"
    },
    {
      "inputs": [
        {
          "internalType": "uint16",
          "name": "",
          "type": "uint16"
        }
      ],
      "name": "payloadSizeLimitLookup",
      "outputs": [
        {
          "internalType": "uint256",
          "name": "",
          "type": "uint256"
        }
      ],
      "stateMutability": "view",
      "type": "function"
    },
    {
      "inputs": [],
      "name": "precrime",
      "outputs": [
        {
          "internalType": "address",
          "name": "",
          "type": "address"
        }
      ],
      "stateMutability": "view",
      "type": "function"
    },
    {
      "inputs": [],
      "name": "pricePerShare",
      "outputs": [
        {
          "internalType": "uint256",
          "name": "",
          "type": "uint256"
        }
      ],
      "stateMutability": "view",
      "type": "function"
    },
    {
      "inputs": [],
      "name": "renounceOwnership",
      "outputs": [],
      "stateMutability": "nonpayable",
      "type": "function"
    },
    {
      "inputs": [
        {
          "internalType": "uint16",
          "name": "_srcChainId",
          "type": "uint16"
        },
        {
          "internalType": "bytes",
          "name": "_srcAddress",
          "type": "bytes"
        },
        {
          "internalType": "uint64",
          "name": "_nonce",
          "type": "uint64"
        },
        {
          "internalType": "bytes",
          "name": "_payload",
          "type": "bytes"
        }
      ],
      "name": "retryMessage",
      "outputs": [],
      "stateMutability": "payable",
      "type": "function"
    },
    {
      "inputs": [],
      "name": "revokeFunds",
      "outputs": [],
      "stateMutability": "nonpayable",
      "type": "function"
    },
    {
      "inputs": [
        {
          "internalType": "uint16",
          "name": "_chainId",
          "type": "uint16"
        },
        {
          "internalType": "address",
          "name": "_strategy",
          "type": "address"
        }
      ],
      "name": "revokeStrategy",
      "outputs": [],
      "stateMutability": "nonpayable",
      "type": "function"
    },
    {
      "inputs": [
        {
          "internalType": "uint16",
          "name": "_version",
          "type": "uint16"
        },
        {
          "internalType": "uint16",
          "name": "_chainId",
          "type": "uint16"
        },
        {
          "internalType": "uint256",
          "name": "_configType",
          "type": "uint256"
        },
        {
          "internalType": "bytes",
          "name": "_config",
          "type": "bytes"
        }
      ],
      "name": "setConfig",
      "outputs": [],
      "stateMutability": "nonpayable",
      "type": "function"
    },
    {
      "inputs": [
        {
          "internalType": "bool",
          "name": "_emergencyShutdown",
          "type": "bool"
        }
      ],
      "name": "setEmergencyShutdown",
      "outputs": [],
      "stateMutability": "nonpayable",
      "type": "function"
    },
    {
      "inputs": [
        {
          "internalType": "address",
          "name": "_newGovernance",
          "type": "address"
        }
      ],
      "name": "setGovernance",
      "outputs": [],
      "stateMutability": "nonpayable",
      "type": "function"
    },
    {
      "inputs": [
        {
          "internalType": "uint16",
          "name": "_dstChainId",
          "type": "uint16"
        },
        {
          "internalType": "uint16",
          "name": "_packetType",
          "type": "uint16"
        },
        {
          "internalType": "uint256",
          "name": "_minGas",
          "type": "uint256"
        }
      ],
      "name": "setMinDstGas",
      "outputs": [],
      "stateMutability": "nonpayable",
      "type": "function"
    },
    {
      "inputs": [
        {
          "internalType": "uint16",
          "name": "_dstChainId",
          "type": "uint16"
        },
        {
          "internalType": "uint256",
          "name": "_size",
          "type": "uint256"
        }
      ],
      "name": "setPayloadSizeLimit",
      "outputs": [],
      "stateMutability": "nonpayable",
      "type": "function"
    },
    {
      "inputs": [
        {
          "internalType": "address",
          "name": "_precrime",
          "type": "address"
        }
      ],
      "name": "setPrecrime",
      "outputs": [],
      "stateMutability": "nonpayable",
      "type": "function"
    },
    {
      "inputs": [
        {
          "internalType": "uint16",
          "name": "_version",
          "type": "uint16"
        }
      ],
      "name": "setReceiveVersion",
      "outputs": [],
      "stateMutability": "nonpayable",
      "type": "function"
    },
    {
      "inputs": [
        {
          "internalType": "uint16",
          "name": "_version",
          "type": "uint16"
        }
      ],
      "name": "setSendVersion",
      "outputs": [],
      "stateMutability": "nonpayable",
      "type": "function"
    },
    {
      "inputs": [
        {
          "internalType": "address",
          "name": "_newSgBridge",
          "type": "address"
        }
      ],
      "name": "setSgBridge",
      "outputs": [],
      "stateMutability": "nonpayable",
      "type": "function"
    },
    {
      "inputs": [
        {
          "internalType": "uint16",
          "name": "_chainId",
          "type": "uint16"
        },
        {
          "internalType": "address",
          "name": "_strategy",
          "type": "address"
        },
        {
          "internalType": "address",
          "name": "_newStrategist",
          "type": "address"
        }
      ],
      "name": "setStrategist",
      "outputs": [],
      "stateMutability": "nonpayable",
      "type": "function"
    },
    {
      "inputs": [
        {
          "internalType": "uint16",
          "name": "_srcChainId",
          "type": "uint16"
        },
        {
          "internalType": "bytes",
          "name": "_path",
          "type": "bytes"
        }
      ],
      "name": "setTrustedRemote",
      "outputs": [],
      "stateMutability": "nonpayable",
      "type": "function"
    },
    {
      "inputs": [
        {
          "internalType": "uint16",
          "name": "_remoteChainId",
          "type": "uint16"
        },
        {
          "internalType": "bytes",
          "name": "_remoteAddress",
          "type": "bytes"
        }
      ],
      "name": "setTrustedRemoteAddress",
      "outputs": [],
      "stateMutability": "nonpayable",
      "type": "function"
    },
    {
      "inputs": [],
      "name": "sgBridge",
      "outputs": [
        {
          "internalType": "contract ISgBridge",
          "name": "",
          "type": "address"
        }
      ],
      "stateMutability": "view",
      "type": "function"
    },
    {
      "inputs": [
        {
          "internalType": "uint16",
          "name": "_srcChainId",
          "type": "uint16"
        },
        {
          "internalType": "bytes",
          "name": "_srcAddress",
          "type": "bytes"
        },
        {
          "internalType": "uint256",
          "name": "",
          "type": "uint256"
        },
        {
          "internalType": "address",
          "name": "_token",
          "type": "address"
        },
        {
          "internalType": "uint256",
          "name": "_amountLD",
          "type": "uint256"
        },
        {
          "internalType": "bytes",
          "name": "_payload",
          "type": "bytes"
        }
      ],
      "name": "sgReceive",
      "outputs": [],
      "stateMutability": "nonpayable",
      "type": "function"
    },
    {
      "inputs": [],
      "name": "sgRouter",
      "outputs": [
        {
          "internalType": "address",
          "name": "",
          "type": "address"
        }
      ],
      "stateMutability": "view",
      "type": "function"
    },
    {
      "inputs": [
        {
          "internalType": "uint16",
          "name": "",
          "type": "uint16"
        },
        {
          "internalType": "address",
          "name": "",
          "type": "address"
        }
      ],
      "name": "strategies",
      "outputs": [
        {
          "internalType": "uint256",
          "name": "activation",
          "type": "uint256"
        },
        {
          "internalType": "uint256",
          "name": "debtRatio",
          "type": "uint256"
        },
        {
          "internalType": "uint256",
          "name": "totalDebt",
          "type": "uint256"
        },
        {
          "internalType": "uint256",
          "name": "totalGain",
          "type": "uint256"
        },
        {
          "internalType": "uint256",
          "name": "totalLoss",
          "type": "uint256"
        },
        {
          "internalType": "uint256",
          "name": "lastReport",
          "type": "uint256"
        },
        {
          "internalType": "uint256",
          "name": "performanceFee",
          "type": "uint256"
        },
        {
          "internalType": "address",
          "name": "strategist",
          "type": "address"
        }
      ],
      "stateMutability": "view",
      "type": "function"
    },
    {
      "inputs": [],
      "name": "symbol",
      "outputs": [
        {
          "internalType": "string",
          "name": "",
          "type": "string"
        }
      ],
      "stateMutability": "view",
      "type": "function"
    },
    {
      "inputs": [],
      "name": "token",
      "outputs": [
        {
          "internalType": "contract IERC20",
          "name": "",
          "type": "address"
        }
      ],
      "stateMutability": "view",
      "type": "function"
    },
    {
      "inputs": [],
      "name": "totalAssets",
      "outputs": [
        {
          "internalType": "uint256",
          "name": "",
          "type": "uint256"
        }
      ],
      "stateMutability": "view",
      "type": "function"
    },
    {
      "inputs": [],
      "name": "totalDebt",
      "outputs": [
        {
          "internalType": "uint256",
          "name": "",
          "type": "uint256"
        }
      ],
      "stateMutability": "view",
      "type": "function"
    },
    {
      "inputs": [],
      "name": "totalDebtRatio",
      "outputs": [
        {
          "internalType": "uint256",
          "name": "",
          "type": "uint256"
        }
      ],
      "stateMutability": "view",
      "type": "function"
    },
    {
      "inputs": [],
      "name": "totalIdle",
      "outputs": [
        {
          "internalType": "uint256",
          "name": "",
          "type": "uint256"
        }
      ],
      "stateMutability": "view",
      "type": "function"
    },
    {
      "inputs": [],
      "name": "totalSupply",
      "outputs": [
        {
          "internalType": "uint256",
          "name": "",
          "type": "uint256"
        }
      ],
      "stateMutability": "view",
      "type": "function"
    },
    {
      "inputs": [
        {
          "internalType": "address",
          "name": "to",
          "type": "address"
        },
        {
          "internalType": "uint256",
          "name": "amount",
          "type": "uint256"
        }
      ],
      "name": "transfer",
      "outputs": [
        {
          "internalType": "bool",
          "name": "",
          "type": "bool"
        }
      ],
      "stateMutability": "nonpayable",
      "type": "function"
    },
    {
      "inputs": [
        {
          "internalType": "address",
          "name": "from",
          "type": "address"
        },
        {
          "internalType": "address",
          "name": "to",
          "type": "address"
        },
        {
          "internalType": "uint256",
          "name": "amount",
          "type": "uint256"
        }
      ],
      "name": "transferFrom",
      "outputs": [
        {
          "internalType": "bool",
          "name": "",
          "type": "bool"
        }
      ],
      "stateMutability": "nonpayable",
      "type": "function"
    },
    {
      "inputs": [
        {
          "internalType": "address",
          "name": "newOwner",
          "type": "address"
        }
      ],
      "name": "transferOwnership",
      "outputs": [],
      "stateMutability": "nonpayable",
      "type": "function"
    },
    {
      "inputs": [
        {
          "internalType": "uint16",
          "name": "",
          "type": "uint16"
        }
      ],
      "name": "trustedRemoteLookup",
      "outputs": [
        {
          "internalType": "bytes",
          "name": "",
          "type": "bytes"
        }
      ],
      "stateMutability": "view",
      "type": "function"
    },
    {
      "inputs": [
        {
          "internalType": "uint16",
          "name": "_chainId",
          "type": "uint16"
        },
        {
          "internalType": "address",
          "name": "_strategy",
          "type": "address"
        },
        {
          "internalType": "uint256",
          "name": "_debtRatio",
          "type": "uint256"
        }
      ],
      "name": "updateStrategyDebtRatio",
      "outputs": [],
      "stateMutability": "nonpayable",
      "type": "function"
    },
    {
      "inputs": [
        {
          "internalType": "uint256",
          "name": "_maxShares",
          "type": "uint256"
        },
        {
          "internalType": "address",
          "name": "_recipient",
          "type": "address"
        },
        {
          "internalType": "uint256",
          "name": "_maxLoss",
          "type": "uint256"
        }
      ],
      "name": "withdraw",
      "outputs": [],
      "stateMutability": "nonpayable",
      "type": "function"
    },
    {
      "inputs": [],
      "name": "withdrawEpoch",
      "outputs": [
        {
          "internalType": "uint256",
          "name": "",
          "type": "uint256"
        }
      ],
      "stateMutability": "view",
      "type": "function"
    },
    {
      "inputs": [
        {
          "internalType": "uint256",
          "name": "",
          "type": "uint256"
        }
      ],
      "name": "withdrawEpochs",
      "outputs": [
        {
          "internalType": "bool",
          "name": "inProgress",
          "type": "bool"
        },
        {
          "internalType": "uint256",
          "name": "approveExpected",
          "type": "uint256"
        },
        {
          "internalType": "uint256",
          "name": "approveActual",
          "type": "uint256"
        }
      ],
      "stateMutability": "view",
      "type": "function"
    },
    {
      "stateMutability": "payable",
      "type": "receive"
    }
  ],
  "bytecode": "0x608060405234801561001057600080fd5b50615fcc80620000216000396000f3fe6080604052600436106102f15760003560e01c80637533d7881161018d5780637533d788146108285780638cfd8f5c146108485780638da5cb5b14610880578063950c8a741461089557806395d89b41146108b557806399530b06146108ca5780639aa7df94146108df5780639f38369a146108f4578063a032a71214610914578063a457c2d714610934578063a6c3d16514610954578063a9059cbb14610974578063ab033ea914610994578063ab73ce46146109b4578063ab8236f3146109cb578063b353aaa7146109eb578063baf3292d14610a0b578063c446183414610a2b578063cbed8b9c14610a41578063cfbcc64414610a61578063d1deba1f14610a81578063dd62ed3e14610a94578063dde4f08e14610ab4578063df2a5b3b14610ad4578063e63697c814610af4578063e7fda06114610b14578063eb8d72b714610b34578063ef34253c14610b54578063f2fde38b14610b69578063f5ecbdbc14610b89578063f8c8765e14610ba9578063fc0c546a14610bc9578063fc7b9c1814610be957600080fd5b80621d3567146102fd57806301dc2eb11461031f57806301e1d114146103525780630517cb7614610367578063057724d81461039557806306fdde03146103b557806307e0db17146103d7578063095ea7b3146103f75780630a97c254146104275780630df374831461044757806310ddb1371461046757806314c644021461048757806318160ddd146104a757806323b872dd146104bc5780632d606843146104dc5780632df9eab9146104f1578063313ce567146105075780633403c2fc1461052e57806337fded911461054957806339509351146105695780633d8b38f6146105895780633f1f4fa4146105a95780634067cb9e146105d657806342d65a8d1461068d57806352106a49146106ad5780635aa6e675146106cd5780635b8c41e6146106ed5780635fe1a0271461073c57806366ad5c8a1461079d5780636e553f65146107bd57806370a08231146107dd578063715018a61461081357600080fd5b366102f857005b600080fd5b34801561030957600080fd5b5061031d610318366004614d9f565b610bff565b005b34801561032b57600080fd5b5061033f61033a366004614e47565b610cc2565b6040519081526020015b60405180910390f35b34801561035e57600080fd5b5061033f610cd7565b34801561037357600080fd5b5061010854610388906001600160a01b031681565b6040516103499190614e7e565b3480156103a157600080fd5b5061031d6103b0366004614e92565b610cf3565b3480156103c157600080fd5b506103ca610dda565b6040516103499190614eff565b3480156103e357600080fd5b5061031d6103f2366004614f12565b610e6c565b34801561040357600080fd5b50610417610412366004614f2d565b610ed9565b6040519015158152602001610349565b34801561043357600080fd5b5061031d610442366004614f59565b610ef1565b34801561045357600080fd5b5061031d610462366004614f98565b611011565b34801561047357600080fd5b5061031d610482366004614f12565b611030565b34801561049357600080fd5b5061031d6104a2366004614fc2565b61106c565b3480156104b357600080fd5b5060355461033f565b3480156104c857600080fd5b506104176104d7366004614fdf565b6110cd565b3480156104e857600080fd5b5061031d6110f1565b3480156104fd57600080fd5b5061033f60fe5481565b34801561051357600080fd5b5061051c61116d565b60405160ff9091168152602001610349565b34801561053a57600080fd5b50610100546104179060ff1681565b34801561055557600080fd5b5060fd54610388906001600160a01b031681565b34801561057557600080fd5b50610417610584366004614f2d565b6111db565b34801561059557600080fd5b506104176105a4366004614fff565b6111fd565b3480156105b557600080fd5b5061033f6105c4366004614f12565b609a6020526000908152604090205481565b3480156105e257600080fd5b506106496105f1366004614e47565b610101602090815260009283526040808420909152908252902080546001820154600283015460038401546004850154600586015460068701546007909701549596949593949293919290916001600160a01b031688565b604080519889526020890197909752958701949094526060860192909252608085015260a084015260c08301526001600160a01b031660e082015261010001610349565b34801561069957600080fd5b5061031d6106a8366004614fff565b6112c9565b3480156106b957600080fd5b5061031d6106c8366004615051565b61133c565b3480156106d957600080fd5b5060fb54610388906001600160a01b031681565b3480156106f957600080fd5b5061033f61070836600461519a565b60c9602090815260009384526040808520845180860184018051928152908401958401959095209452929052825290205481565b34801561074857600080fd5b506107806107573660046151f7565b6101066020526000908152604090206001810154600282015460039092015460ff909116919083565b604080519315158452602084019290925290820152606001610349565b3480156107a957600080fd5b5061031d6107b8366004614d9f565b611573565b3480156107c957600080fd5b5061033f6107d8366004615210565b611647565b3480156107e957600080fd5b5061033f6107f8366004614e92565b6001600160a01b031660009081526033602052604090205490565b34801561081f57600080fd5b5061031d611653565b34801561083457600080fd5b506103ca610843366004614f12565b611667565b34801561085457600080fd5b5061033f610863366004615235565b609960209081526000928352604080842090915290825290205481565b34801561088c57600080fd5b50610388611701565b3480156108a157600080fd5b50609b54610388906001600160a01b031681565b3480156108c157600080fd5b506103ca611710565b3480156108d657600080fd5b5061033f61171f565b3480156108eb57600080fd5b5061033f61173c565b34801561090057600080fd5b506103ca61090f366004614f12565b6117ae565b34801561092057600080fd5b5061031d61092f366004615268565b6118c4565b34801561094057600080fd5b5061041761094f366004614f2d565b611c05565b34801561096057600080fd5b5061031d61096f366004614fff565b611c80565b34801561098057600080fd5b5061041761098f366004614f2d565b611d09565b3480156109a057600080fd5b5061031d6109af366004614e92565b611d17565b3480156109c057600080fd5b5061033f6101025481565b3480156109d757600080fd5b5061031d6109e63660046152b1565b611d86565b3480156109f757600080fd5b50609754610388906001600160a01b031681565b348015610a1757600080fd5b5061031d610a26366004614e92565b611ed4565b348015610a3757600080fd5b5061033f61271081565b348015610a4d57600080fd5b5061031d610a5c36600461534b565b611f32565b348015610a6d57600080fd5b5061031d610a7c366004614e47565b611fab565b61031d610a8f366004614d9f565b612006565b348015610aa057600080fd5b5061033f610aaf3660046153b9565b61221c565b348015610ac057600080fd5b5061031d610acf366004615268565b612247565b348015610ae057600080fd5b5061031d610aef3660046153d7565b6122d7565b348015610b0057600080fd5b5061031d610b0f366004615413565b612389565b348015610b2057600080fd5b5061033f610b2f366004614e47565b612399565b348015610b4057600080fd5b5061031d610b4f366004614fff565b6123a5565b348015610b6057600080fd5b5061031d6123ff565b348015610b7557600080fd5b5061031d610b84366004614e92565b6126d5565b348015610b9557600080fd5b506103ca610ba436600461543a565b61274b565b348015610bb557600080fd5b5061031d610bc4366004615487565b6127e0565b348015610bd557600080fd5b5060fc54610388906001600160a01b031681565b348015610bf557600080fd5b5061033f60ff5481565b6097546001600160a01b03163314610c445760405162461bcd60e51b815260206004820152600360248201526205631360ec1b60448201526064015b60405180910390fd5b610cba8686868080601f01602080910402602001604051908101604052809392919081815260200183838082843760009201919091525050604080516020601f89018190048102820181019092528781528993509150879087908190840183828082843760009201919091525061298f92505050565b505050505050565b6000610cce8383612a08565b90505b92915050565b6000610ce161173c565b60ff54610cee91906154f9565b905090565b60fb546001600160a01b0316331480610d245750610d0f611701565b6001600160a01b0316336001600160a01b0316145b610d405760405162461bcd60e51b8152600401610c3b9061550c565b60fc5460405163095ea7b360e01b81526001600160a01b039091169063095ea7b390610d7490849060001990600401615528565b6020604051808303816000875af1158015610d93573d6000803e3d6000fd5b505050506040513d601f19601f82011682018060405250810190610db79190615541565b5060fd80546001600160a01b0319166001600160a01b0392909216919091179055565b606060368054610de99061555e565b80601f0160208091040260200160405190810160405280929190818152602001828054610e159061555e565b8015610e625780601f10610e3757610100808354040283529160200191610e62565b820191906000526020600020905b815481529060010190602001808311610e4557829003601f168201915b5050505050905090565b610e74612ad0565b6097546040516307e0db1760e01b815261ffff831660048201526001600160a01b03909116906307e0db17906024015b600060405180830381600087803b158015610ebe57600080fd5b505af1158015610ed2573d6000803e3d6000fd5b5050505050565b600033610ee7818585612b2f565b5060019392505050565b60fb546001600160a01b0316331480610f225750610f0d611701565b6001600160a01b0316336001600160a01b0316145b610f3e5760405162461bcd60e51b8152600401610c3b9061550c565b61ffff83166000908152610101602090815260408083206001600160a01b038616845290915281206001015460fe805491929091610f7d908490615598565b909155505061ffff83166000908152610101602090815260408083206001600160a01b0386168452909152902060010181905560fe5461271090610fc29083906154f9565b1115610ff55760405162461bcd60e51b81526020600482015260026024820152612b1b60f11b6044820152606401610c3b565b8060fe600082825461100791906154f9565b9091555050505050565b611019612ad0565b61ffff9091166000908152609a6020526040902055565b611038612ad0565b6097546040516310ddb13760e01b815261ffff831660048201526001600160a01b03909116906310ddb13790602401610ea4565b60fb546001600160a01b031633148061109d5750611088611701565b6001600160a01b0316336001600160a01b0316145b6110b95760405162461bcd60e51b8152600401610c3b9061550c565b610100805460ff1916911515919091179055565b6000336110db858285612c53565b6110e6858585612ccd565b506001949350505050565b60fb546001600160a01b0316331480611122575061110d611701565b6001600160a01b0316336001600160a01b0316145b61113e5760405162461bcd60e51b8152600401610c3b9061550c565b60405133904780156108fc02916000818181858888f1935050505015801561116a573d6000803e3d6000fd5b50565b60fc546040805163313ce56760e01b815290516000926001600160a01b03169163313ce5679160048083019260209291908290030181865afa1580156111b7573d6000803e3d6000fd5b505050506040513d601f19601f82011682018060405250810190610cee91906155ab565b600033610ee78185856111ee838361221c565b6111f891906154f9565b612b2f565b61ffff83166000908152609860205260408120805482919061121e9061555e565b80601f016020809104026020016040519081016040528092919081815260200182805461124a9061555e565b80156112975780601f1061126c57610100808354040283529160200191611297565b820191906000526020600020905b81548152906001019060200180831161127a57829003601f168201915b5050505050905083836040516112ae9291906155ce565b60405180910390208180519060200120149150509392505050565b6112d1612ad0565b6097546040516342d65a8d60e01b81526001600160a01b03909116906342d65a8d9061130590869086908690600401615607565b600060405180830381600087803b15801561131f57600080fd5b505af1158015611333573d6000803e3d6000fd5b50505050505050565b60fb546001600160a01b031633148061136d5750611358611701565b6001600160a01b0316336001600160a01b0316145b6113895760405162461bcd60e51b8152600401610c3b9061550c565b61ffff85166000908152610101602090815260408083206001600160a01b038816845290915290205485908590156113d35760405162461bcd60e51b8152600401610c3b90615625565b6127108560fe546113e491906154f9565b11156114175760405162461bcd60e51b8152602060048201526002602482015261563560f01b6044820152606401610c3b565b60405180610100016040528042815260200186815260200160008152602001600081526020016000815260200160008152602001858152602001846001600160a01b031681525061010160008961ffff1661ffff1681526020019081526020016000206000886001600160a01b03166001600160a01b03168152602001908152602001600020600082015181600001556020820151816001015560408201518160020155606082015181600301556080820151816004015560a0820151816005015560c0820151816006015560e08201518160070160006101000a8154816001600160a01b0302191690836001600160a01b031602179055509050506115418661010360008a61ffff1661ffff168152602001908152602001600020612e6690919063ffffffff16565b5061155261010461ffff8916612e7b565b508460fe600082825461156591906154f9565b909155505050505050505050565b3330146115d15760405162461bcd60e51b815260206004820152602660248201527f4e6f6e626c6f636b696e674c7a4170703a2063616c6c6572206d7573742062656044820152650204c7a4170760d41b6064820152608401610c3b565b610cba8686868080601f01602080910402602001604051908101604052809392919081815260200183838082843760009201919091525050604080516020601f890181900481028201810190925287815289935091508790879081908401838280828437600092019190915250612e8792505050565b6000610cce8383612f25565b61165b612ad0565b6116656000612f89565b565b609860205260009081526040902080546116809061555e565b80601f01602080910402602001604051908101604052809291908181526020018280546116ac9061555e565b80156116f95780601f106116ce576101008083540402835291602001916116f9565b820191906000526020600020905b8154815290600101906020018083116116dc57829003601f168201915b505050505081565b6065546001600160a01b031690565b606060378054610de99061555e565b6000610cee61172c61116d565b61173790600a615725565b612fdb565b60fc546040516370a0823160e01b81526000916001600160a01b0316906370a082319061176d903090600401614e7e565b602060405180830381865afa15801561178a573d6000803e3d6000fd5b505050506040513d601f19601f82011682018060405250810190610cee9190615734565b61ffff81166000908152609860205260408120805460609291906117d19061555e565b80601f01602080910402602001604051908101604052809291908181526020018280546117fd9061555e565b801561184a5780601f1061181f5761010080835404028352916020019161184a565b820191906000526020600020905b81548152906001019060200180831161182d57829003601f168201915b5050505050905080516000036118a25760405162461bcd60e51b815260206004820152601d60248201527f4c7a4170703a206e6f20747275737465642070617468207265636f72640000006044820152606401610c3b565b6118bd6000601483516118b59190615598565b839190613010565b9392505050565b60fb546001600160a01b03163314806118f557506118e0611701565b6001600160a01b0316336001600160a01b0316145b6119115760405162461bcd60e51b8152600401610c3b9061550c565b61ffff83166000908152610101602090815260408083206001600160a01b0385168452909152902054839082901561195b5760405162461bcd60e51b8152600401610c3b90615625565b600061010160008761ffff1661ffff1681526020019081526020016000206000866001600160a01b03166001600160a01b0316815260200190815260200160002060405180610100016040529081600082015481526020016001820154815260200160028201548152602001600382015481526020016004820154815260200160058201548152602001600682015481526020016007820160009054906101000a90046001600160a01b03166001600160a01b03166001600160a01b03168152505090506040518061010001604052808260a001518152602001826020015181526020018260400151815260200160008152602001600081526020018260a0015181526020018260c0015181526020018260e001516001600160a01b031681525061010160008861ffff1661ffff1681526020019081526020016000206000866001600160a01b03166001600160a01b03168152602001908152602001600020600082015181600001556020820151816001015560408201518160020155606082015181600301556080820151816004015560a0820151816005015560c0820151816006015560e08201518160070160006101000a8154816001600160a01b0302191690836001600160a01b03160217905550905050600061010160008861ffff1661ffff1681526020019081526020016000206000876001600160a01b03166001600160a01b0316815260200190815260200160002060010181905550600061010160008861ffff1661ffff1681526020019081526020016000206000876001600160a01b03166001600160a01b0316815260200190815260200160002060020181905550610cba868660046040518060200160405280896001600160a01b0316815250604051602001611bf1929190615785565b60405160208183030381529060405261311d565b60003381611c13828661221c565b905083811015611c735760405162461bcd60e51b815260206004820152602560248201527f45524332303a2064656372656173656420616c6c6f77616e63652062656c6f77604482015264207a65726f60d81b6064820152608401610c3b565b6110e68286868403612b2f565b611c88612ad0565b818130604051602001611c9d939291906157aa565b60408051601f1981840301815291815261ffff8516600090815260986020522090611cc89082615826565b507f8c0400cfe2d1199b1a725c78960bcc2a344d869b80590d0f2bd005db15a572ce838383604051611cfc93929190615607565b60405180910390a1505050565b600033610ee7818585612ccd565b60fb546001600160a01b0316331480611d485750611d33611701565b6001600160a01b0316336001600160a01b0316145b611d645760405162461bcd60e51b8152600401610c3b9061550c565b60fb80546001600160a01b0319166001600160a01b0392909216919091179055565b60fc546001600160a01b03848116911614611dc85760405162461bcd60e51b81526020600482015260026024820152610ac760f31b6044820152606401610c3b565b610108546001600160a01b0316331480611dec575060fd546001600160a01b031633145b80611e0f5750611dfa611701565b6001600160a01b0316336001600160a01b0316145b611e405760405162461bcd60e51b8152602060048201526002602482015261563960f01b6044820152606401610c3b565b6000611e4e86826014613010565b604051602001611e5e91906158df565b604051602081830303815290604052611e76906158fb565b60601c9050611e868783856132c7565b604080518481526001600160a01b0383811660208301528616917f92073a89a07a000083eb8b2575fc15e7bb936efe55d00727d6942a796d7211a7910160405180910390a250505050505050565b611edc612ad0565b609b80546001600160a01b0319166001600160a01b0383161790556040517f5db758e995a17ec1ad84bdef7e8c3293a0bd6179bcce400dff5d4c3d87db726b90611f27908390614e7e565b60405180910390a150565b611f3a612ad0565b6097546040516332fb62e760e21b81526001600160a01b039091169063cbed8b9c90611f729088908890889088908890600401615932565b600060405180830381600087803b158015611f8c57600080fd5b505af1158015611fa0573d6000803e3d6000fd5b505050505050505050565b60fb546001600160a01b0316331480611fdc5750611fc7611701565b6001600160a01b0316336001600160a01b0316145b611ff85760405162461bcd60e51b8152600401610c3b9061550c565b612002828261335e565b5050565b61ffff8616600090815260c96020526040808220905161202990889088906155ce565b90815260408051602092819003830190206001600160401b038716600090815292529020549050806120a95760405162461bcd60e51b815260206004820152602360248201527f4e6f6e626c6f636b696e674c7a4170703a206e6f2073746f726564206d65737360448201526261676560e81b6064820152608401610c3b565b8083836040516120ba9291906155ce565b6040518091039020146121195760405162461bcd60e51b815260206004820152602160248201527f4e6f6e626c6f636b696e674c7a4170703a20696e76616c6964207061796c6f616044820152601960fa1b6064820152608401610c3b565b61ffff8716600090815260c96020526040808220905161213c90899089906155ce565b90815260408051602092819003830181206001600160401b038916600090815290845282902093909355601f880182900482028301820190528682526121d4918991899089908190840183828082843760009201919091525050604080516020601f8a018190048102820181019092528881528a935091508890889081908401838280828437600092019190915250612e8792505050565b7fc264d91f3adc5588250e1551f547752ca0cfa8f6b530d243b9f9f4cab10ea8e5878787878560405161220b959493929190615960565b60405180910390a150505050505050565b6001600160a01b03918216600090815260346020908152604080832093909416825291909152205490565b60fb546001600160a01b03163314806122785750612263611701565b6001600160a01b0316336001600160a01b0316145b6122945760405162461bcd60e51b8152600401610c3b9061550c565b61ffff929092166000908152610101602090815260408083206001600160a01b039485168452909152902060070180546001600160a01b03191691909216179055565b6122df612ad0565b600081116123275760405162461bcd60e51b81526020600482015260156024820152744c7a4170703a20696e76616c6964206d696e47617360581b6044820152606401610c3b565b61ffff83811660008181526099602090815260408083209487168084529482529182902085905581519283528201929092529081018290527f9d5c7c0b934da8fefa9c7760c98383778a12dfbfc0c3b3106518f43fb9508ac090606001611cfc565b6123948383836133d3565b505050565b6000610cce83836134fe565b6123ad612ad0565b61ffff831660009081526098602052604090206123cb82848361599b565b507ffa41487ad5d6728f0b19276fa1eddc16558578f5109fc39d2dc33c3230470dab838383604051611cfc93929190615607565b60fb546001600160a01b0316331480612430575061241b611701565b6001600160a01b0316336001600160a01b0316145b61244c5760405162461bcd60e51b8152600401610c3b9061550c565b610102546000908152610106602052604090206001015460ff16156124835760405162461bcd60e51b8152600401610c3b90615a54565b6000805b610102546000908152610106602052604090205481101561250457610102546000908152610106602052604081208054839081106124c7576124c7615a70565b906000526020600020906006020190506124e48160020154612fdb565b6124ee90846154f9565b92505080806124fc90615a86565b915050612487565b5061250d61173c565b811161251b5761116a6135b6565b600061252561173c565b61252f9083615598565b90506000805b6125406101046138cc565b8110801561254e5750600083115b1561269f576000612561610104836138d6565b61ffff81166000908152610103602052604081209192505b612582826138cc565b811080156125905750600086115b156126895760006125a183836138d6565b61ffff85166000908152610101602090815260408083206001600160a01b0385168452909152812060028101549293509190036125df575050612677565b60006125ef8983600201546138e2565b6101025460009081526101066020908152604080832061ffff8b16845260050182528083206001600160a01b038816845290915290208190559050612634818a615598565b985061266686846000604051806040016040528086815260200161010254815250604051602001611bf1929190615a9f565b8761267081615a86565b9850505050505b8061268181615a86565b915050612579565b505050808061269790615a86565b915050612535565b506101028054600090815261010660205260408082206002019390935590548152206001908101805460ff191690911790555050565b6126dd612ad0565b6001600160a01b0381166127425760405162461bcd60e51b815260206004820152602660248201527f4f776e61626c653a206e6577206f776e657220697320746865207a65726f206160448201526564647265737360d01b6064820152608401610c3b565b61116a81612f89565b609754604051633d7b2f6f60e21b815261ffff808716600483015285166024820152306044820152606481018390526060916001600160a01b03169063f5ecbdbc90608401600060405180830381865afa1580156127ad573d6000803e3d6000fd5b505050506040513d6000823e601f3d908101601f191682016040526127d59190810190615b0a565b90505b949350505050565b600054610100900460ff16158080156128005750600054600160ff909116105b80612821575061280f306138f8565b158015612821575060005460ff166001145b6128845760405162461bcd60e51b815260206004820152602e60248201527f496e697469616c697a61626c653a20636f6e747261637420697320616c72656160448201526d191e481a5b9a5d1a585b1a5e995960921b6064820152608401610c3b565b6000805460ff1916600117905580156128a7576000805461ff0019166101001790555b6128b084613907565b6128b861393f565b6129046040518060400160405280600f81526020016e13db5b9a58da185a5b8815985d5b1d608a1b8152506040518060400160405280600381526020016227a6ab60e91b81525061396e565b60fb80546001600160a01b038088166001600160a01b03199283161790925560fc80548684169083161790556101088054928516929091169190911790558015610ed2576000805461ff0019169055604051600181527f7f26b83ff96e1f2b6a682f133852f6798a09c465da95921460cefb3847402498906020015b60405180910390a15050505050565b6000806129f25a60966366ad5c8a60e01b898989896040516024016129b79493929190615b3e565b60408051601f198184030181529190526020810180516001600160e01b03166001600160e01b0319909316929092179091523092919061399f565b9150915081610cba57610cba8686868685613a2b565b6101005460009060ff1615612a1f57506000610cd1565b6000612710612a2c610cd7565b61ffff86166000908152610101602090815260408083206001600160a01b0389168452909152902060010154612a629190615b7c565b612a6c9190615b93565b61ffff85166000908152610101602090815260408083206001600160a01b0388168452909152902060020154909150808211612aad57600092505050610cd1565b612ac7612ab861173c565b612ac28385615598565b6138e2565b95945050505050565b33612ad9611701565b6001600160a01b0316146116655760405162461bcd60e51b815260206004820181905260248201527f4f776e61626c653a2063616c6c6572206973206e6f7420746865206f776e65726044820152606401610c3b565b6001600160a01b038316612b915760405162461bcd60e51b8152602060048201526024808201527f45524332303a20617070726f76652066726f6d20746865207a65726f206164646044820152637265737360e01b6064820152608401610c3b565b6001600160a01b038216612bf25760405162461bcd60e51b815260206004820152602260248201527f45524332303a20617070726f766520746f20746865207a65726f206164647265604482015261737360f01b6064820152608401610c3b565b6001600160a01b0383811660008181526034602090815260408083209487168084529482529182902085905590518481527f8c5be1e5ebec7d5bd14f71427d1e84f3dd0314c0f7b2291e5b200ac8c7c3b925910160405180910390a3505050565b6000612c5f848461221c565b90506000198114612cc75781811015612cba5760405162461bcd60e51b815260206004820152601d60248201527f45524332303a20696e73756666696369656e7420616c6c6f77616e63650000006044820152606401610c3b565b612cc78484848403612b2f565b50505050565b6001600160a01b038316612d315760405162461bcd60e51b815260206004820152602560248201527f45524332303a207472616e736665722066726f6d20746865207a65726f206164604482015264647265737360d81b6064820152608401610c3b565b6001600160a01b038216612d935760405162461bcd60e51b815260206004820152602360248201527f45524332303a207472616e7366657220746f20746865207a65726f206164647260448201526265737360e81b6064820152608401610c3b565b6001600160a01b03831660009081526033602052604090205481811015612e0b5760405162461bcd60e51b815260206004820152602660248201527f45524332303a207472616e7366657220616d6f756e7420657863656564732062604482015265616c616e636560d01b6064820152608401610c3b565b6001600160a01b038085166000818152603360205260408082208686039055928616808252908390208054860190559151600080516020615f7783398151915290612e599086815260200190565b60405180910390a3612cc7565b6000610cce836001600160a01b038416613ab9565b6000610cce8383613ab9565b6000612e9584826014613010565b604051602001612ea591906158df565b604051602081830303815290604052612ebd906158fb565b61ffff861660009081526101016020908152604080832060609490941c80845293909152902054909150612f195760405162461bcd60e51b815260206004820152600360248201526256313560e81b6044820152606401610c3b565b610ed2858360006132c7565b6101005460009060ff1615612f625760405162461bcd60e51b815260206004820152600360248201526256313160e81b6044820152606401610c3b565b6000612f6e8385613b08565b60fc54909150610cce906001600160a01b0316333087613b84565b606580546001600160a01b038381166001600160a01b0319831681179093556040519116919082907f8be0079c531659141344cd1fd0a4f28419497f9722a3daafe3b4186f6b6457e090600090a35050565b6000612fe660355490565b600003612ff1575090565b603554612ffc610cd7565b6130069084615b7c565b610cd19190615b93565b60608161301e81601f6154f9565b101561305d5760405162461bcd60e51b815260206004820152600e60248201526d736c6963655f6f766572666c6f7760901b6044820152606401610c3b565b61306782846154f9565b845110156130ab5760405162461bcd60e51b8152602060048201526011602482015270736c6963655f6f75744f66426f756e647360781b6044820152606401610c3b565b6060821580156130ca5760405191506000825260208201604052613114565b6040519150601f8416801560200281840101858101878315602002848b0101015b818310156131035780518352602092830192016130eb565b5050858452601f01601f1916604052505b50949350505050565b61ffff83166000908152610101602090815260408083206001600160a01b0386168452909152902054839083906131665760405162461bcd60e51b8152600401610c3b90615bb5565b6040516001600160601b0319606086811b8216602084015230901b16603482015260009060480160408051601f198184030181529190526097549091506000906001600160a01b03166340a7bb10883088856131c0613bef565b6040518663ffffffff1660e01b81526004016131e0959493929190615bd1565b6040805180830381865afa1580156131fc573d6000803e3d6000fd5b505050506040513d601f19601f820116820180604052508101906132209190615c25565b5090508047101561324c5760405162fae2d560e21b815260048101829052476024820152604401610c3b565b6097546001600160a01b031663c580310082898589308061326b613bef565b6040518863ffffffff1660e01b815260040161328c96959493929190615c49565b6000604051808303818588803b1580156132a557600080fd5b505af11580156132b9573d6000803e3d6000fd5b505050505050505050505050565b6000828060200190518101906132dd9190615cb0565b905060028160048111156132f3576132f361574d565b036133225760008380602001905181019061330e9190615cdc565b91505061331c858285613c1f565b50612cc7565b60018160048111156133365761333661574d565b03612cc7576000838060200190518101906133519190615dc7565b915050610ed28582614009565b61ffff82166000908152610101602090815260408083206001600160a01b038516845290915281206001015460fe80549192909161339d908490615598565b909155505061ffff9091166000908152610101602090815260408083206001600160a01b03909416835292905290812060010155565b610102546000908152610106602052604090206001015460ff161561340a5760405162461bcd60e51b8152600401610c3b90615a54565b613415333085612ccd565b61010660006101025481526020019081526020016000206000016040518060c00160405280336001600160a01b03168152602001846001600160a01b0316815260200185815260200183815260200161346d86612fdb565b81526000602091820181905283546001808201865594825290829020835160069092020180546001600160a01b03199081166001600160a01b039384161782559284015194810180549093169490911693909317905560408101516002830155606081015160038301556080810151600483015560a001516005909101805460ff1916911515919091179055505050565b60008061271061350c610cd7565b61ffff86166000908152610101602090815260408083206001600160a01b03891684529091529020600101546135429190615b7c565b61354c9190615b93565b61ffff85166000908152610101602090815260408083206001600160a01b0388168452909152902060020154610100549192509060ff1615613591579150610cd19050565b8181116135a357600092505050610cd1565b6135ad8282615598565b92505050610cd1565b6101025460009081526101066020526040902054806135fd5760405162461bcd60e51b8152602060048201526003602482015262158c4d60ea1b6044820152606401610c3b565b6000816001600160401b03811115613617576136176150ae565b604051908082528060200260200182016040528015613640578160200160208202803683370190505b50905060005b828110156136c0576101025460009081526101066020526040812080548390811061367357613673615a70565b906000526020600020906006020190506136908160020154612fdb565b8383815181106136a2576136a2615a70565b602090810291909101015250806136b881615a86565b915050613646565b5060005b8281101561385957610102546000908152610106602052604081208054839081106136f1576136f1615a70565b90600052602060002090600602019050600061372884848151811061371857613718615a70565b6020026020010151612ac261173c565b905081600401548110156138075760008183600401546137489190615598565b9050600083600401548261271061375f9190615b7c565b6137699190615b93565b905083600301548111156138045760058401805460ff191690558354600285015460405163a9059cbb60e01b8152309263a9059cbb926137b7926001600160a01b0390921691600401615528565b6020604051808303816000875af11580156137d6573d6000803e3d6000fd5b505050506040513d601f19601f820116820180604052508101906137fa9190615541565b5050505050613847565b50505b60058201805460ff1916600190811790915582015460fc54613836916001600160a01b039182169116836141d4565b6138443083600201546141f3565b50505b8061385181615a86565b9150506136c4565b506101025460408051918252602082018490527fc682eb885c208b8aaaa811c05902e24a4f14b388960311623a8f31404f655129910160405180910390a16101028054600090815261010660205260408120600101805460ff19169055815491906138c383615a86565b91905055505050565b6000610cd1825490565b6000610cce8383614315565b60008183106138f15781610cce565b5090919050565b6001600160a01b03163b151590565b600054610100900460ff1661392e5760405162461bcd60e51b8152600401610c3b90615e52565b61393661433f565b61116a8161436f565b600054610100900460ff166139665760405162461bcd60e51b8152600401610c3b90615e52565b61166561433f565b600054610100900460ff166139955760405162461bcd60e51b8152600401610c3b90615e52565b61200282826143b8565b6000606060008060008661ffff166001600160401b038111156139c4576139c46150ae565b6040519080825280601f01601f1916602001820160405280156139ee576020820181803683370190505b50905060008087516020890160008d8df191503d925086831115613a10578692505b828152826000602083013e9093509150505b94509492505050565b818051906020012060c960008761ffff1661ffff16815260200190815260200160002085604051613a5c91906158df565b9081526040805191829003602090810183206001600160401b0388166000908152915220919091557fe183f33de2837795525b4792ca4cd60535bd77c53b7e7030060bfcf5734d6b0c906129809087908790879087908790615e9d565b6000818152600183016020526040812054613b0057508154600181810184556000848152602080822090930184905584548482528286019093526040902091909155610cd1565b506000610cd1565b600080613b1460355490565b600003613b22575081613b44565b613b2a610cd7565b603554613b379085615b7c565b613b419190615b93565b90505b60008111613b7a5760405162461bcd60e51b815260206004820152600360248201526256313360e81b6044820152606401610c3b565b610cce84826143f8565b6040516001600160a01b0380851660248301528316604482015260648101829052612cc79085906323b872dd60e01b906084015b60408051601f198184030181529190526020810180516001600160e01b03166001600160e01b0319909316929092179091526144a7565b60408051600160f01b6020820152620f424060228083019190915282518083039091018152604290910190915290565b613c29838361457c565b606082015115613c4657613c46838360000151846060015161475b565b60408083015161ffff85166000908152610101602090815283822086516001600160a01b031683529052918220600301805491929091613c879084906154f9565b90915550508151600090613c9c9085906134fe565b90506000613cae8285608001516138e2565b90508015613d1e5761ffff851660009081526101016020908152604080832087516001600160a01b0316845290915281206002018054839290613cf2908490615598565b925050819055508060ff6000828254613d0b9190615598565b90915550613d1b90508183615598565b91505b60e084015115613d8b5760e084015161ffff861660009081526101016020908152604080832088516001600160a01b0316845290915281206002018054909190613d699084906154f9565b909155505060e084015160ff8054600090613d859084906154f9565b90915550505b60208085015161ffff8716600081815261010180855260408083208a516001600160a01b039081168552818852828520600501969096559383529085528851909316815292529020600101541580613de657506101005460ff165b15613df45783610100015191505b60a084015115613e4757613e428460a001518686600001516003604051806020016040528088815250604051602001613e2e929190615eef565b604051602081830303815290604052614850565b613e72565b613e728585600001516003604051806020016040528087815250604051602001611bf1929190615eef565b600061010160008761ffff1661ffff168152602001908152602001600020600086600001516001600160a01b03166001600160a01b0316815260200190815260200160002060405180610100016040529081600082015481526020016001820154815260200160028201548152602001600382015481526020016004820154815260200160058201548152602001600682015481526020016007820160009054906101000a90046001600160a01b03166001600160a01b03166001600160a01b03168152505090507f08bc8eff67f79e18165507d64024f5ca5e90a2593c7a45cb5caf7f9d843e404c8686600001518760400151886060015189608001518660600151876080015188604001518d60e001518a602001518e604051613ff99b9a9998979695949392919061ffff9b909b168b526001600160a01b039990991660208b015260408a01979097526060890195909552608088019390935260a087019190915260c086015260e08501526101008401526101208301526101408201526101600190565b60405180910390a1505050505050565b805161ffff83166000908152610101602090815260408083206001600160a01b03851684529091529020548391906140535760405162461bcd60e51b8152600401610c3b90615bb5565b60408301511561407057614070848460000151856040015161475b565b60208084015161ffff861660009081526101018352604080822087516001600160a01b031683529093529182206002018054919290916140b1908490615598565b9091555050602083015160ff80546000906140cd908490615598565b909155505060608301516000908152610106602052604081206003018054916140f583615a86565b909155505060608301805160009081526101066020818152604080842061ffff8a168552600401825280842088516001600160a01b031685528252808420805460ff1916600117905584518452919052808220600301549251825290206002015403614163576141636135b6565b82600001516001600160a01b03168461ffff167f046368a4ca42efbdd968b9025440eb5590bdcda7da09f4fef8ac4ef2f44a5ed08560200151866040015187606001516040516141c6939291909283526020830191909152604082015260600190565b60405180910390a350505050565b6123948363a9059cbb60e01b8484604051602401613bb8929190615528565b6001600160a01b0382166142535760405162461bcd60e51b815260206004820152602160248201527f45524332303a206275726e2066726f6d20746865207a65726f206164647265736044820152607360f81b6064820152608401610c3b565b6001600160a01b038216600090815260336020526040902054818110156142c75760405162461bcd60e51b815260206004820152602260248201527f45524332303a206275726e20616d6f756e7420657863656564732062616c616e604482015261636560f01b6064820152608401610c3b565b6001600160a01b0383166000818152603360209081526040808320868603905560358054879003905551858152919291600080516020615f77833981519152910160405180910390a3505050565b600082600001828154811061432c5761432c615a70565b9060005260206000200154905092915050565b600054610100900460ff166143665760405162461bcd60e51b8152600401610c3b90615e52565b61166533612f89565b600054610100900460ff166143965760405162461bcd60e51b8152600401610c3b90615e52565b609780546001600160a01b0319166001600160a01b0392909216919091179055565b600054610100900460ff166143df5760405162461bcd60e51b8152600401610c3b90615e52565b60366143eb8382615826565b5060376123948282615826565b6001600160a01b03821661444e5760405162461bcd60e51b815260206004820152601f60248201527f45524332303a206d696e7420746f20746865207a65726f2061646472657373006044820152606401610c3b565b806035600082825461446091906154f9565b90915550506001600160a01b038216600081815260336020908152604080832080548601905551848152600080516020615f77833981519152910160405180910390a35050565b60006144fc826040518060400160405280602081526020017f5361666545524332303a206c6f772d6c6576656c2063616c6c206661696c6564815250856001600160a01b03166149409092919063ffffffff16565b905080516000148061451d57508080602001905181019061451d9190615541565b6123945760405162461bcd60e51b815260206004820152602a60248201527f5361666545524332303a204552433230206f7065726174696f6e20646964206e6044820152691bdd081cdd58d8d9595960b21b6064820152608401610c3b565b61ffff821660009081526101076020908152604080832084516001600160a01b031684528252808320610120850151845290915290205460ff16156145e95760405162461bcd60e51b81526020600482015260036024820152622b189b60e91b6044820152606401610c3b565b805161012082015160405160609290921b6001600160601b0319166020830152603482015260f083901b6001600160f01b031916605482015260009060560160405160208183030381529060405280519060200120905060008160405160200161467e91907b0ca2ba3432b932bab69029b4b3b732b21026b2b9b9b0b3b29d05199960211b8152601c810191909152603c0190565b60408051601f19818403018152918152815160209283012061ffff87166000908152610101845282812087516001600160a01b03908116835294529190912060070154610140860151919350909116906146d990839061494f565b6001600160a01b0316146147155760405162461bcd60e51b815260206004820152600360248201526256313760e81b6044820152606401610c3b565b505061ffff90911660009081526101076020908152604080832084516001600160a01b03168452825280832061012090940151835292905220805460ff19166001179055565b61ffff83166000908152610101602090815260408083206001600160a01b03861684529091529020600201548111156147bc5760405162461bcd60e51b81526020600482015260036024820152622b189960e91b6044820152606401610c3b565b61ffff83166000908152610101602090815260408083206001600160a01b0386168452909152812060040180548392906147f79084906154f9565b909155505061ffff83166000908152610101602090815260408083206001600160a01b038616845290915281206002018054839290614837908490615598565b925050819055508060ff60008282546110079190615598565b60fd54604051630dc6346160e01b81526000916001600160a01b031690630dc634619061488590879087908790600401615f0b565b602060405180830381865afa1580156148a2573d6000803e3d6000fd5b505050506040513d601f19601f820116820180604052508101906148c69190615734565b60fd5460fc54604051633920455b60e11b81529293506001600160a01b03918216926372408ab6928592614907929116908a908a908a908a90600401615f39565b6000604051808303818588803b15801561492057600080fd5b505af1158015614934573d6000803e3d6000fd5b50505050505050505050565b60606127d88484600085614973565b600080600061495e8585614a4e565b9150915061496b81614a93565b509392505050565b6060824710156149d45760405162461bcd60e51b815260206004820152602660248201527f416464726573733a20696e73756666696369656e742062616c616e636520666f6044820152651c8818d85b1b60d21b6064820152608401610c3b565b600080866001600160a01b031685876040516149f091906158df565b60006040518083038185875af1925050503d8060008114614a2d576040519150601f19603f3d011682016040523d82523d6000602084013e614a32565b606091505b5091509150614a4387838387614bd8565b979650505050505050565b6000808251604103614a845760208301516040840151606085015160001a614a7887828585614c4f565b94509450505050614a8c565b506000905060025b9250929050565b6000816004811115614aa757614aa761574d565b03614aaf5750565b6001816004811115614ac357614ac361574d565b03614b0b5760405162461bcd60e51b815260206004820152601860248201527745434453413a20696e76616c6964207369676e617475726560401b6044820152606401610c3b565b6002816004811115614b1f57614b1f61574d565b03614b6c5760405162461bcd60e51b815260206004820152601f60248201527f45434453413a20696e76616c6964207369676e6174757265206c656e677468006044820152606401610c3b565b6003816004811115614b8057614b8061574d565b0361116a5760405162461bcd60e51b815260206004820152602260248201527f45434453413a20696e76616c6964207369676e6174757265202773272076616c604482015261756560f01b6064820152608401610c3b565b60608315614c45578251600003614c3e57614bf2856138f8565b614c3e5760405162461bcd60e51b815260206004820152601d60248201527f416464726573733a2063616c6c20746f206e6f6e2d636f6e74726163740000006044820152606401610c3b565b50816127d8565b6127d88383614d06565b6000806fa2a8918ca85bafe22016d0b997e4df60600160ff1b03831115614c7c5750600090506003613a22565b6040805160008082526020820180845289905260ff881692820192909252606081018690526080810185905260019060a0016020604051602081039080840390855afa158015614cd0573d6000803e3d6000fd5b5050604051601f1901519150506001600160a01b038116614cf957600060019250925050613a22565b9660009650945050505050565b815115614d165781518083602001fd5b8060405162461bcd60e51b8152600401610c3b9190614eff565b803561ffff81168114614d4257600080fd5b919050565b60008083601f840112614d5957600080fd5b5081356001600160401b03811115614d7057600080fd5b602083019150836020828501011115614a8c57600080fd5b80356001600160401b0381168114614d4257600080fd5b60008060008060008060808789031215614db857600080fd5b614dc187614d30565b955060208701356001600160401b0380821115614ddd57600080fd5b614de98a838b01614d47565b9097509550859150614dfd60408a01614d88565b94506060890135915080821115614e1357600080fd5b50614e2089828a01614d47565b979a9699509497509295939492505050565b6001600160a01b038116811461116a57600080fd5b60008060408385031215614e5a57600080fd5b614e6383614d30565b91506020830135614e7381614e32565b809150509250929050565b6001600160a01b0391909116815260200190565b600060208284031215614ea457600080fd5b8135610cce81614e32565b60005b83811015614eca578181015183820152602001614eb2565b50506000910152565b60008151808452614eeb816020860160208601614eaf565b601f01601f19169290920160200192915050565b602081526000610cce6020830184614ed3565b600060208284031215614f2457600080fd5b610cce82614d30565b60008060408385031215614f4057600080fd5b8235614f4b81614e32565b946020939093013593505050565b600080600060608486031215614f6e57600080fd5b614f7784614d30565b92506020840135614f8781614e32565b929592945050506040919091013590565b60008060408385031215614fab57600080fd5b614f4b83614d30565b801515811461116a57600080fd5b600060208284031215614fd457600080fd5b8135610cce81614fb4565b600080600060608486031215614ff457600080fd5b8335614f7781614e32565b60008060006040848603121561501457600080fd5b61501d84614d30565b925060208401356001600160401b0381111561503857600080fd5b61504486828701614d47565b9497909650939450505050565b600080600080600060a0868803121561506957600080fd5b61507286614d30565b9450602086013561508281614e32565b9350604086013592506060860135915060808601356150a081614e32565b809150509295509295909350565b634e487b7160e01b600052604160045260246000fd5b60405161016081016001600160401b03811182821017156150e7576150e76150ae565b60405290565b604051601f8201601f191681016001600160401b0381118282101715615115576151156150ae565b604052919050565b60006001600160401b03821115615136576151366150ae565b50601f01601f191660200190565b600082601f83011261515557600080fd5b81356151686151638261511d565b6150ed565b81815284602083860101111561517d57600080fd5b816020850160208301376000918101602001919091529392505050565b6000806000606084860312156151af57600080fd5b6151b884614d30565b925060208401356001600160401b038111156151d357600080fd5b6151df86828701615144565b9250506151ee60408501614d88565b90509250925092565b60006020828403121561520957600080fd5b5035919050565b6000806040838503121561522357600080fd5b823591506020830135614e7381614e32565b6000806040838503121561524857600080fd5b61525183614d30565b915061525f60208401614d30565b90509250929050565b60008060006060848603121561527d57600080fd5b61528684614d30565b9250602084013561529681614e32565b915060408401356152a681614e32565b809150509250925092565b60008060008060008060c087890312156152ca57600080fd5b6152d387614d30565b955060208701356001600160401b03808211156152ef57600080fd5b6152fb8a838b01615144565b9650604089013595506060890135915061531482614e32565b9093506080880135925060a0880135908082111561533157600080fd5b5061533e89828a01615144565b9150509295509295509295565b60008060008060006080868803121561536357600080fd5b61536c86614d30565b945061537a60208701614d30565b93506040860135925060608601356001600160401b0381111561539c57600080fd5b6153a888828901614d47565b969995985093965092949392505050565b600080604083850312156153cc57600080fd5b8235614e6381614e32565b6000806000606084860312156153ec57600080fd5b6153f584614d30565b925061540360208501614d30565b9150604084013590509250925092565b60008060006060848603121561542857600080fd5b833592506020840135614f8781614e32565b6000806000806080858703121561545057600080fd5b61545985614d30565b935061546760208601614d30565b9250604085013561547781614e32565b9396929550929360600135925050565b6000806000806080858703121561549d57600080fd5b84356154a881614e32565b935060208501356154b881614e32565b925060408501356154c881614e32565b915060608501356154d881614e32565b939692955090935050565b634e487b7160e01b600052601160045260246000fd5b80820180821115610cd157610cd16154e3565b602080825260029082015261563160f01b604082015260600190565b6001600160a01b03929092168252602082015260400190565b60006020828403121561555357600080fd5b8151610cce81614fb4565b600181811c9082168061557257607f821691505b60208210810361559257634e487b7160e01b600052602260045260246000fd5b50919050565b81810381811115610cd157610cd16154e3565b6000602082840312156155bd57600080fd5b815160ff81168114610cce57600080fd5b8183823760009101908152919050565b81835281816020850137506000828201602090810191909152601f909101601f19169091010190565b61ffff841681526040602082015260006127d56040830184866155de565b602080825260029082015261563360f01b604082015260600190565b600181815b8085111561567c578160001904821115615662576156626154e3565b8085161561566f57918102915b93841c9390800290615646565b509250929050565b60008261569357506001610cd1565b816156a057506000610cd1565b81600181146156b657600281146156c0576156dc565b6001915050610cd1565b60ff8411156156d1576156d16154e3565b50506001821b610cd1565b5060208310610133831016604e8410600b84101617156156ff575081810a610cd1565b6157098383615641565b806000190482111561571d5761571d6154e3565b029392505050565b6000610cce60ff841683615684565b60006020828403121561574657600080fd5b5051919050565b634e487b7160e01b600052602160045260246000fd5b6005811061578157634e487b7160e01b600052602160045260246000fd5b9052565b604081016157938285615763565b91516001600160a01b031660209190910152919050565b8284823760609190911b6001600160601b0319169101908152601401919050565b601f82111561239457600081815260208120601f850160051c810160208610156157f25750805b601f850160051c820191505b81811015610cba578281556001016157fe565b600019600383901b1c191660019190911b1790565b81516001600160401b0381111561583f5761583f6150ae565b6158538161584d845461555e565b846157cb565b602080601f83116001811461588257600084156158705750858301515b61587a8582615811565b865550610cba565b600085815260208120601f198616915b828110156158b157888601518255948401946001909101908401615892565b50858210156158cf5787850151600019600388901b60f8161c191681555b5050505050600190811b01905550565b600082516158f1818460208701614eaf565b9190910192915050565b805160208201516001600160601b0319808216929190601483101561592a5780818460140360031b1b83161693505b505050919050565b600061ffff808816835280871660208401525084604083015260806060830152614a436080830184866155de565b61ffff8616815260806020820152600061597e6080830186886155de565b6001600160401b0394909416604083015250606001529392505050565b6001600160401b038311156159b2576159b26150ae565b6159c6836159c0835461555e565b836157cb565b6000601f8411600181146159f457600085156159e25750838201355b6159ec8682615811565b845550610ed2565b600083815260209020601f19861690835b82811015615a255786850135825560209485019460019092019101615a05565b5086821015615a425760001960f88860031b161c19848701351681555b505060018560011b0183555050505050565b602080825260029082015261158d60f21b604082015260600190565b634e487b7160e01b600052603260045260246000fd5b600060018201615a9857615a986154e3565b5060010190565b60608101615aad8285615763565b82516020830152602083015160408301529392505050565b600082601f830112615ad657600080fd5b8151615ae46151638261511d565b818152846020838601011115615af957600080fd5b6127d8826020830160208701614eaf565b600060208284031215615b1c57600080fd5b81516001600160401b03811115615b3257600080fd5b6127d884828501615ac5565b61ffff85168152608060208201526000615b5b6080830186614ed3565b6001600160401b03851660408401528281036060840152614a438185614ed3565b8082028115828204841417610cd157610cd16154e3565b600082615bb057634e487b7160e01b600052601260045260246000fd5b500490565b6020808252600290820152612b1960f11b604082015260600190565b61ffff861681526001600160a01b038516602082015260a060408201819052600090615bff90830186614ed3565b84151560608401528281036080840152615c198185614ed3565b98975050505050505050565b60008060408385031215615c3857600080fd5b505080516020909101519092909150565b61ffff8716815260c060208201526000615c6660c0830188614ed3565b8281036040840152615c788188614ed3565b6001600160a01b0387811660608601528616608085015283810360a08501529050615ca38185614ed3565b9998505050505050505050565b600060208284031215615cc257600080fd5b815160058110610cce57600080fd5b8051614d4281614e32565b60008060408385031215615cef57600080fd5b825160208401519092506001600160401b0380821115615d0e57600080fd5b908401906101608287031215615d2357600080fd5b615d2b6150c4565b615d3483615cd1565b81526020830151602082015260408301516040820152606083015160608201526080830151608082015260a083015160a082015260c083015160c082015260e083015160e08201526101008084015181830152506101208084015181830152506101408084015183811115615da857600080fd5b615db489828701615ac5565b8284015250508093505050509250929050565b60008082840360a0811215615ddb57600080fd5b835192506080601f1982011215615df157600080fd5b50604051608081016001600160401b0381118282101715615e1457615e146150ae565b6040526020840151615e2581614e32565b80825250604084015160208201526060840151604082015260808401516060820152809150509250929050565b6020808252602b908201527f496e697469616c697a61626c653a20636f6e7472616374206973206e6f74206960408201526a6e697469616c697a696e6760a81b606082015260800190565b61ffff8616815260a060208201526000615eba60a0830187614ed3565b6001600160401b03861660408401528281036060840152615edb8186614ed3565b90508281036080840152615c198185614ed3565b60408101615efd8285615763565b825160208301529392505050565b61ffff841681526001600160a01b03831660208201526060604082018190526000906127d590830184614ed3565b6001600160a01b0386811682526020820186905261ffff851660408301528316606082015260a060808201819052600090614a4390830184614ed356feddf252ad1be2c89b69c2b068fc378daa952ba7f163c4a11628f55a4df523b3efa264697066735822122086c2b086ab069bced210d96b77896e288d96b0f2cfa840cdaa0a76d8619810d864736f6c63430008130033",
  "linkReferences": {},
  "deployedLinkReferences": {}
}