{
  "_format": "hh-sol-artifact-1",
  "contractName": "Vault",
  "sourceName": "contracts/Vault.sol",
  "abi": [
    {
      "inputs": [
        {
          "internalType": "uint256",
          "name": "amount",
          "type": "uint256"
        },
        {
          "internalType": "uint256",
          "name": "balance",
          "type": "uint256"
        }
      ],
      "name": "InsufficientFunds",
      "type": "error"
    },
    {
      "anonymous": false,
      "inputs": [
        {
          "indexed": true,
          "internalType": "address",
          "name": "owner",
          "type": "address"
        },
        {
          "indexed": true,
          "internalType": "address",
          "name": "spender",
          "type": "address"
        },
        {
          "indexed": false,
          "internalType": "uint256",
          "name": "value",
          "type": "uint256"
        }
      ],
      "name": "Approval",
      "type": "event"
    },
    {
      "anonymous": false,
      "inputs": [
        {
          "indexed": false,
          "internalType": "uint256",
          "name": "epochId",
          "type": "uint256"
        },
        {
          "indexed": false,
          "internalType": "uint256",
          "name": "requestCount",
          "type": "uint256"
        }
      ],
      "name": "FulfilledWithdrawEpoch",
      "type": "event"
    },
    {
      "anonymous": false,
      "inputs": [
        {
          "indexed": false,
          "internalType": "uint8",
          "name": "version",
          "type": "uint8"
        }
      ],
      "name": "Initialized",
      "type": "event"
    },
    {
      "anonymous": false,
      "inputs": [
        {
          "indexed": false,
          "internalType": "uint16",
          "name": "_srcChainId",
          "type": "uint16"
        },
        {
          "indexed": false,
          "internalType": "bytes",
          "name": "_srcAddress",
          "type": "bytes"
        },
        {
          "indexed": false,
          "internalType": "uint64",
          "name": "_nonce",
          "type": "uint64"
        },
        {
          "indexed": false,
          "internalType": "bytes",
          "name": "_payload",
          "type": "bytes"
        },
        {
          "indexed": false,
          "internalType": "bytes",
          "name": "_reason",
          "type": "bytes"
        }
      ],
      "name": "MessageFailed",
      "type": "event"
    },
    {
      "anonymous": false,
      "inputs": [
        {
          "indexed": true,
          "internalType": "address",
          "name": "previousOwner",
          "type": "address"
        },
        {
          "indexed": true,
          "internalType": "address",
          "name": "newOwner",
          "type": "address"
        }
      ],
      "name": "OwnershipTransferred",
      "type": "event"
    },
    {
      "anonymous": false,
      "inputs": [
        {
          "indexed": false,
          "internalType": "uint16",
          "name": "_srcChainId",
          "type": "uint16"
        },
        {
          "indexed": false,
          "internalType": "bytes",
          "name": "_srcAddress",
          "type": "bytes"
        },
        {
          "indexed": false,
          "internalType": "uint64",
          "name": "_nonce",
          "type": "uint64"
        },
        {
          "indexed": false,
          "internalType": "bytes32",
          "name": "_payloadHash",
          "type": "bytes32"
        }
      ],
      "name": "RetryMessageSuccess",
      "type": "event"
    },
    {
      "anonymous": false,
      "inputs": [
        {
          "indexed": false,
          "internalType": "uint16",
          "name": "_dstChainId",
          "type": "uint16"
        },
        {
          "indexed": false,
          "internalType": "uint16",
          "name": "_type",
          "type": "uint16"
        },
        {
          "indexed": false,
          "internalType": "uint256",
          "name": "_minDstGas",
          "type": "uint256"
        }
      ],
      "name": "SetMinDstGas",
      "type": "event"
    },
    {
      "anonymous": false,
      "inputs": [
        {
          "indexed": false,
          "internalType": "address",
          "name": "precrime",
          "type": "address"
        }
      ],
      "name": "SetPrecrime",
      "type": "event"
    },
    {
      "anonymous": false,
      "inputs": [
        {
          "indexed": false,
          "internalType": "uint16",
          "name": "_remoteChainId",
          "type": "uint16"
        },
        {
          "indexed": false,
          "internalType": "bytes",
          "name": "_path",
          "type": "bytes"
        }
      ],
      "name": "SetTrustedRemote",
      "type": "event"
    },
    {
      "anonymous": false,
      "inputs": [
        {
          "indexed": false,
          "internalType": "uint16",
          "name": "_remoteChainId",
          "type": "uint16"
        },
        {
          "indexed": false,
          "internalType": "bytes",
          "name": "_remoteAddress",
          "type": "bytes"
        }
      ],
      "name": "SetTrustedRemoteAddress",
      "type": "event"
    },
    {
      "anonymous": false,
      "inputs": [
        {
          "indexed": true,
          "internalType": "address",
          "name": "token",
          "type": "address"
        },
        {
          "indexed": false,
          "internalType": "uint256",
          "name": "amount",
          "type": "uint256"
        },
        {
          "indexed": false,
          "internalType": "address",
          "name": "sender",
          "type": "address"
        }
      ],
      "name": "SgReceived",
      "type": "event"
    },
    {
      "anonymous": false,
      "inputs": [
        {
          "indexed": false,
          "internalType": "uint16",
          "name": "chainId",
          "type": "uint16"
        },
        {
          "indexed": false,
          "internalType": "address",
          "name": "strategy",
          "type": "address"
        },
        {
          "indexed": false,
          "internalType": "uint256",
          "name": "gain",
          "type": "uint256"
        },
        {
          "indexed": false,
          "internalType": "uint256",
          "name": "loss",
          "type": "uint256"
        },
        {
          "indexed": false,
          "internalType": "uint256",
          "name": "debtPaid",
          "type": "uint256"
        },
        {
          "indexed": false,
          "internalType": "uint256",
          "name": "totalGain",
          "type": "uint256"
        },
        {
          "indexed": false,
          "internalType": "uint256",
          "name": "totalLoss",
          "type": "uint256"
        },
        {
          "indexed": false,
          "internalType": "uint256",
          "name": "totalDebt",
          "type": "uint256"
        },
        {
          "indexed": false,
          "internalType": "uint256",
          "name": "debtAdded",
          "type": "uint256"
        },
        {
          "indexed": false,
          "internalType": "uint256",
          "name": "debtRatio",
          "type": "uint256"
        },
        {
          "indexed": false,
          "internalType": "uint256",
          "name": "tokens",
          "type": "uint256"
        }
      ],
      "name": "StrategyReported",
      "type": "event"
    },
    {
      "anonymous": false,
      "inputs": [
        {
          "indexed": true,
          "internalType": "uint16",
          "name": "chainId",
          "type": "uint16"
        },
        {
          "indexed": true,
          "internalType": "address",
          "name": "strategy",
          "type": "address"
        },
        {
          "indexed": false,
          "internalType": "uint256",
          "name": "amount",
          "type": "uint256"
        },
        {
          "indexed": false,
          "internalType": "uint256",
          "name": "loss",
          "type": "uint256"
        },
        {
          "indexed": false,
          "internalType": "uint256",
          "name": "id",
          "type": "uint256"
        }
      ],
      "name": "StrategyWithdrawnSome",
      "type": "event"
    },
    {
      "anonymous": false,
      "inputs": [
        {
          "indexed": true,
          "internalType": "address",
          "name": "from",
          "type": "address"
        },
        {
          "indexed": true,
          "internalType": "address",
          "name": "to",
          "type": "address"
        },
        {
          "indexed": false,
          "internalType": "uint256",
          "name": "value",
          "type": "uint256"
        }
      ],
      "name": "Transfer",
      "type": "event"
    },
    {
      "inputs": [],
      "name": "DEFAULT_PAYLOAD_SIZE_LIMIT",
      "outputs": [
        {
          "internalType": "uint256",
          "name": "",
          "type": "uint256"
        }
      ],
      "stateMutability": "view",
      "type": "function"
    },
    {
      "inputs": [],
      "name": "MAX_BPS",
      "outputs": [
        {
          "internalType": "uint256",
          "name": "",
          "type": "uint256"
        }
      ],
      "stateMutability": "view",
      "type": "function"
    },
    {
      "inputs": [
        {
          "internalType": "uint16",
          "name": "_chainId",
          "type": "uint16"
        },
        {
          "internalType": "address",
          "name": "_strategy",
          "type": "address"
        },
        {
          "internalType": "uint256",
          "name": "_debtRatio",
          "type": "uint256"
        },
        {
          "internalType": "uint256",
          "name": "_performanceFee",
          "type": "uint256"
        },
        {
          "internalType": "address",
          "name": "_strategist",
          "type": "address"
        }
      ],
      "name": "addStrategy",
      "outputs": [],
      "stateMutability": "nonpayable",
      "type": "function"
    },
    {
      "inputs": [
        {
          "internalType": "address",
          "name": "owner",
          "type": "address"
        },
        {
          "internalType": "address",
          "name": "spender",
          "type": "address"
        }
      ],
      "name": "allowance",
      "outputs": [
        {
          "internalType": "uint256",
          "name": "",
          "type": "uint256"
        }
      ],
      "stateMutability": "view",
      "type": "function"
    },
    {
      "inputs": [
        {
          "internalType": "address",
          "name": "spender",
          "type": "address"
        },
        {
          "internalType": "uint256",
          "name": "amount",
          "type": "uint256"
        }
      ],
      "name": "approve",
      "outputs": [
        {
          "internalType": "bool",
          "name": "",
          "type": "bool"
        }
      ],
      "stateMutability": "nonpayable",
      "type": "function"
    },
    {
      "inputs": [
        {
          "internalType": "address",
          "name": "account",
          "type": "address"
        }
      ],
      "name": "balanceOf",
      "outputs": [
        {
          "internalType": "uint256",
          "name": "",
          "type": "uint256"
        }
      ],
      "stateMutability": "view",
      "type": "function"
    },
    {
      "inputs": [
        {
          "internalType": "uint16",
          "name": "_chainId",
          "type": "uint16"
        },
        {
          "internalType": "address",
          "name": "_strategy",
          "type": "address"
        }
      ],
      "name": "creditAvailable",
      "outputs": [
        {
          "internalType": "uint256",
          "name": "",
          "type": "uint256"
        }
      ],
      "stateMutability": "view",
      "type": "function"
    },
    {
      "inputs": [
        {
          "internalType": "uint16",
          "name": "_chainId",
          "type": "uint16"
        },
        {
          "internalType": "address",
          "name": "_strategy",
          "type": "address"
        }
      ],
      "name": "debtOutstanding",
      "outputs": [
        {
          "internalType": "uint256",
          "name": "",
          "type": "uint256"
        }
      ],
      "stateMutability": "view",
      "type": "function"
    },
    {
      "inputs": [],
      "name": "decimals",
      "outputs": [
        {
          "internalType": "uint8",
          "name": "",
          "type": "uint8"
        }
      ],
      "stateMutability": "view",
      "type": "function"
    },
    {
      "inputs": [
        {
          "internalType": "address",
          "name": "spender",
          "type": "address"
        },
        {
          "internalType": "uint256",
          "name": "subtractedValue",
          "type": "uint256"
        }
      ],
      "name": "decreaseAllowance",
      "outputs": [
        {
          "internalType": "bool",
          "name": "",
          "type": "bool"
        }
      ],
      "stateMutability": "nonpayable",
      "type": "function"
    },
    {
      "inputs": [
        {
          "internalType": "uint256",
          "name": "_amount",
          "type": "uint256"
        },
        {
          "internalType": "address",
          "name": "_recipient",
          "type": "address"
        }
      ],
      "name": "deposit",
      "outputs": [
        {
          "internalType": "uint256",
          "name": "",
          "type": "uint256"
        }
      ],
      "stateMutability": "nonpayable",
      "type": "function"
    },
    {
      "inputs": [],
      "name": "emergencyShutdown",
      "outputs": [
        {
          "internalType": "bool",
          "name": "",
          "type": "bool"
        }
      ],
      "stateMutability": "view",
      "type": "function"
    },
    {
      "inputs": [
        {
          "internalType": "uint16",
          "name": "",
          "type": "uint16"
        },
        {
          "internalType": "bytes",
          "name": "",
          "type": "bytes"
        },
        {
          "internalType": "uint64",
          "name": "",
          "type": "uint64"
        }
      ],
      "name": "failedMessages",
      "outputs": [
        {
          "internalType": "bytes32",
          "name": "",
          "type": "bytes32"
        }
      ],
      "stateMutability": "view",
      "type": "function"
    },
    {
      "inputs": [
        {
          "internalType": "uint16",
          "name": "_srcChainId",
          "type": "uint16"
        },
        {
          "internalType": "bytes",
          "name": "_srcAddress",
          "type": "bytes"
        }
      ],
      "name": "forceResumeReceive",
      "outputs": [],
      "stateMutability": "nonpayable",
      "type": "function"
    },
    {
      "inputs": [
        {
          "internalType": "uint16",
          "name": "_version",
          "type": "uint16"
        },
        {
          "internalType": "uint16",
          "name": "_chainId",
          "type": "uint16"
        },
        {
          "internalType": "address",
          "name": "",
          "type": "address"
        },
        {
          "internalType": "uint256",
          "name": "_configType",
          "type": "uint256"
        }
      ],
      "name": "getConfig",
      "outputs": [
        {
          "internalType": "bytes",
          "name": "",
          "type": "bytes"
        }
      ],
      "stateMutability": "view",
      "type": "function"
    },
    {
      "inputs": [
        {
          "internalType": "uint16",
          "name": "_remoteChainId",
          "type": "uint16"
        }
      ],
      "name": "getTrustedRemoteAddress",
      "outputs": [
        {
          "internalType": "bytes",
          "name": "",
          "type": "bytes"
        }
      ],
      "stateMutability": "view",
      "type": "function"
    },
    {
      "inputs": [],
      "name": "governance",
      "outputs": [
        {
          "internalType": "address",
          "name": "",
          "type": "address"
        }
      ],
      "stateMutability": "view",
      "type": "function"
    },
    {
      "inputs": [],
      "name": "handleWithdrawals",
      "outputs": [],
      "stateMutability": "nonpayable",
      "type": "function"
    },
    {
      "inputs": [
        {
          "internalType": "address",
          "name": "spender",
          "type": "address"
        },
        {
          "internalType": "uint256",
          "name": "addedValue",
          "type": "uint256"
        }
      ],
      "name": "increaseAllowance",
      "outputs": [
        {
          "internalType": "bool",
          "name": "",
          "type": "bool"
        }
      ],
      "stateMutability": "nonpayable",
      "type": "function"
    },
    {
      "inputs": [
        {
          "internalType": "address",
          "name": "_governance",
          "type": "address"
        },
        {
          "internalType": "address",
          "name": "_lzEndpoint",
          "type": "address"
        },
        {
          "internalType": "contract IERC20",
          "name": "_token",
          "type": "address"
        },
        {
          "internalType": "address",
          "name": "_sgBridge",
          "type": "address"
        },
        {
          "internalType": "address",
          "name": "_sgRouter",
          "type": "address"
        }
      ],
      "name": "initialize",
      "outputs": [],
      "stateMutability": "nonpayable",
      "type": "function"
    },
    {
      "inputs": [
        {
          "internalType": "uint16",
          "name": "_srcChainId",
          "type": "uint16"
        },
        {
          "internalType": "bytes",
          "name": "_srcAddress",
          "type": "bytes"
        }
      ],
      "name": "isTrustedRemote",
      "outputs": [
        {
          "internalType": "bool",
          "name": "",
          "type": "bool"
        }
      ],
      "stateMutability": "view",
      "type": "function"
    },
    {
      "inputs": [],
      "name": "lzEndpoint",
      "outputs": [
        {
          "internalType": "contract ILayerZeroEndpointUpgradeable",
          "name": "",
          "type": "address"
        }
      ],
      "stateMutability": "view",
      "type": "function"
    },
    {
      "inputs": [
        {
          "internalType": "uint16",
          "name": "_srcChainId",
          "type": "uint16"
        },
        {
          "internalType": "bytes",
          "name": "_srcAddress",
          "type": "bytes"
        },
        {
          "internalType": "uint64",
          "name": "_nonce",
          "type": "uint64"
        },
        {
          "internalType": "bytes",
          "name": "_payload",
          "type": "bytes"
        }
      ],
      "name": "lzReceive",
      "outputs": [],
      "stateMutability": "nonpayable",
      "type": "function"
    },
    {
      "inputs": [
        {
          "internalType": "uint16",
          "name": "_chainId",
          "type": "uint16"
        },
        {
          "internalType": "address",
          "name": "_oldStrategy",
          "type": "address"
        },
        {
          "internalType": "address",
          "name": "_newStrategy",
          "type": "address"
        }
      ],
      "name": "migrateStrategy",
      "outputs": [],
      "stateMutability": "nonpayable",
      "type": "function"
    },
    {
      "inputs": [
        {
          "internalType": "uint16",
          "name": "",
          "type": "uint16"
        },
        {
          "internalType": "uint16",
          "name": "",
          "type": "uint16"
        }
      ],
      "name": "minDstGasLookup",
      "outputs": [
        {
          "internalType": "uint256",
          "name": "",
          "type": "uint256"
        }
      ],
      "stateMutability": "view",
      "type": "function"
    },
    {
      "inputs": [],
      "name": "name",
      "outputs": [
        {
          "internalType": "string",
          "name": "",
          "type": "string"
        }
      ],
      "stateMutability": "view",
      "type": "function"
    },
    {
      "inputs": [
        {
          "internalType": "uint16",
          "name": "_srcChainId",
          "type": "uint16"
        },
        {
          "internalType": "bytes",
          "name": "_srcAddress",
          "type": "bytes"
        },
        {
          "internalType": "uint64",
          "name": "_nonce",
          "type": "uint64"
        },
        {
          "internalType": "bytes",
          "name": "_payload",
          "type": "bytes"
        }
      ],
      "name": "nonblockingLzReceive",
      "outputs": [],
      "stateMutability": "nonpayable",
      "type": "function"
    },
    {
      "inputs": [],
      "name": "owner",
      "outputs": [
        {
          "internalType": "address",
          "name": "",
          "type": "address"
        }
      ],
      "stateMutability": "view",
      "type": "function"
    },
    {
      "inputs": [
        {
          "internalType": "uint16",
          "name": "",
          "type": "uint16"
        }
      ],
      "name": "payloadSizeLimitLookup",
      "outputs": [
        {
          "internalType": "uint256",
          "name": "",
          "type": "uint256"
        }
      ],
      "stateMutability": "view",
      "type": "function"
    },
    {
      "inputs": [],
      "name": "precrime",
      "outputs": [
        {
          "internalType": "address",
          "name": "",
          "type": "address"
        }
      ],
      "stateMutability": "view",
      "type": "function"
    },
    {
      "inputs": [],
      "name": "pricePerShare",
      "outputs": [
        {
          "internalType": "uint256",
          "name": "",
          "type": "uint256"
        }
      ],
      "stateMutability": "view",
      "type": "function"
    },
    {
      "inputs": [],
      "name": "renounceOwnership",
      "outputs": [],
      "stateMutability": "nonpayable",
      "type": "function"
    },
    {
      "inputs": [
        {
          "internalType": "uint16",
          "name": "_srcChainId",
          "type": "uint16"
        },
        {
          "internalType": "bytes",
          "name": "_srcAddress",
          "type": "bytes"
        },
        {
          "internalType": "uint64",
          "name": "_nonce",
          "type": "uint64"
        },
        {
          "internalType": "bytes",
          "name": "_payload",
          "type": "bytes"
        }
      ],
      "name": "retryMessage",
      "outputs": [],
      "stateMutability": "payable",
      "type": "function"
    },
    {
      "inputs": [],
      "name": "revokeFunds",
      "outputs": [],
      "stateMutability": "nonpayable",
      "type": "function"
    },
    {
      "inputs": [
        {
          "internalType": "uint16",
          "name": "_chainId",
          "type": "uint16"
        },
        {
          "internalType": "address",
          "name": "_strategy",
          "type": "address"
        }
      ],
      "name": "revokeStrategy",
      "outputs": [],
      "stateMutability": "nonpayable",
      "type": "function"
    },
    {
      "inputs": [
        {
          "internalType": "uint16",
          "name": "_version",
          "type": "uint16"
        },
        {
          "internalType": "uint16",
          "name": "_chainId",
          "type": "uint16"
        },
        {
          "internalType": "uint256",
          "name": "_configType",
          "type": "uint256"
        },
        {
          "internalType": "bytes",
          "name": "_config",
          "type": "bytes"
        }
      ],
      "name": "setConfig",
      "outputs": [],
      "stateMutability": "nonpayable",
      "type": "function"
    },
    {
      "inputs": [
        {
          "internalType": "bool",
          "name": "_emergencyShutdown",
          "type": "bool"
        }
      ],
      "name": "setEmergencyShutdown",
      "outputs": [],
      "stateMutability": "nonpayable",
      "type": "function"
    },
    {
      "inputs": [
        {
          "internalType": "address",
          "name": "_newGovernance",
          "type": "address"
        }
      ],
      "name": "setGovernance",
      "outputs": [],
      "stateMutability": "nonpayable",
      "type": "function"
    },
    {
      "inputs": [
        {
          "internalType": "uint16",
          "name": "_dstChainId",
          "type": "uint16"
        },
        {
          "internalType": "uint16",
          "name": "_packetType",
          "type": "uint16"
        },
        {
          "internalType": "uint256",
          "name": "_minGas",
          "type": "uint256"
        }
      ],
      "name": "setMinDstGas",
      "outputs": [],
      "stateMutability": "nonpayable",
      "type": "function"
    },
    {
      "inputs": [
        {
          "internalType": "uint16",
          "name": "_dstChainId",
          "type": "uint16"
        },
        {
          "internalType": "uint256",
          "name": "_size",
          "type": "uint256"
        }
      ],
      "name": "setPayloadSizeLimit",
      "outputs": [],
      "stateMutability": "nonpayable",
      "type": "function"
    },
    {
      "inputs": [
        {
          "internalType": "address",
          "name": "_precrime",
          "type": "address"
        }
      ],
      "name": "setPrecrime",
      "outputs": [],
      "stateMutability": "nonpayable",
      "type": "function"
    },
    {
      "inputs": [
        {
          "internalType": "uint16",
          "name": "_version",
          "type": "uint16"
        }
      ],
      "name": "setReceiveVersion",
      "outputs": [],
      "stateMutability": "nonpayable",
      "type": "function"
    },
    {
      "inputs": [
        {
          "internalType": "uint16",
          "name": "_version",
          "type": "uint16"
        }
      ],
      "name": "setSendVersion",
      "outputs": [],
      "stateMutability": "nonpayable",
      "type": "function"
    },
    {
      "inputs": [
        {
          "internalType": "uint16",
          "name": "_srcChainId",
          "type": "uint16"
        },
        {
          "internalType": "bytes",
          "name": "_path",
          "type": "bytes"
        }
      ],
      "name": "setTrustedRemote",
      "outputs": [],
      "stateMutability": "nonpayable",
      "type": "function"
    },
    {
      "inputs": [
        {
          "internalType": "uint16",
          "name": "_remoteChainId",
          "type": "uint16"
        },
        {
          "internalType": "bytes",
          "name": "_remoteAddress",
          "type": "bytes"
        }
      ],
      "name": "setTrustedRemoteAddress",
      "outputs": [],
      "stateMutability": "nonpayable",
      "type": "function"
    },
    {
      "inputs": [],
      "name": "sgBridge",
      "outputs": [
        {
          "internalType": "contract ISgBridge",
          "name": "",
          "type": "address"
        }
      ],
      "stateMutability": "view",
      "type": "function"
    },
    {
      "inputs": [
        {
          "internalType": "uint16",
          "name": "_srcChainId",
          "type": "uint16"
        },
        {
          "internalType": "bytes",
          "name": "_srcAddress",
          "type": "bytes"
        },
        {
          "internalType": "uint256",
          "name": "",
          "type": "uint256"
        },
        {
          "internalType": "address",
          "name": "_token",
          "type": "address"
        },
        {
          "internalType": "uint256",
          "name": "_amountLD",
          "type": "uint256"
        },
        {
          "internalType": "bytes",
          "name": "_payload",
          "type": "bytes"
        }
      ],
      "name": "sgReceive",
      "outputs": [],
      "stateMutability": "nonpayable",
      "type": "function"
    },
    {
      "inputs": [],
      "name": "sgRouter",
      "outputs": [
        {
          "internalType": "address",
          "name": "",
          "type": "address"
        }
      ],
      "stateMutability": "view",
      "type": "function"
    },
    {
      "inputs": [
        {
          "internalType": "uint16",
          "name": "",
          "type": "uint16"
        },
        {
          "internalType": "address",
          "name": "",
          "type": "address"
        }
      ],
      "name": "strategies",
      "outputs": [
        {
          "internalType": "uint256",
          "name": "activation",
          "type": "uint256"
        },
        {
          "internalType": "uint256",
          "name": "debtRatio",
          "type": "uint256"
        },
        {
          "internalType": "uint256",
          "name": "totalDebt",
          "type": "uint256"
        },
        {
          "internalType": "uint256",
          "name": "totalGain",
          "type": "uint256"
        },
        {
          "internalType": "uint256",
          "name": "totalLoss",
          "type": "uint256"
        },
        {
          "internalType": "uint256",
          "name": "lastReport",
          "type": "uint256"
        },
        {
          "internalType": "uint256",
          "name": "performanceFee",
          "type": "uint256"
        },
        {
          "internalType": "address",
          "name": "strategist",
          "type": "address"
        }
      ],
      "stateMutability": "view",
      "type": "function"
    },
    {
      "inputs": [],
      "name": "symbol",
      "outputs": [
        {
          "internalType": "string",
          "name": "",
          "type": "string"
        }
      ],
      "stateMutability": "view",
      "type": "function"
    },
    {
      "inputs": [],
      "name": "token",
      "outputs": [
        {
          "internalType": "contract IERC20",
          "name": "",
          "type": "address"
        }
      ],
      "stateMutability": "view",
      "type": "function"
    },
    {
      "inputs": [],
      "name": "totalAssets",
      "outputs": [
        {
          "internalType": "uint256",
          "name": "",
          "type": "uint256"
        }
      ],
      "stateMutability": "view",
      "type": "function"
    },
    {
      "inputs": [],
      "name": "totalDebt",
      "outputs": [
        {
          "internalType": "uint256",
          "name": "",
          "type": "uint256"
        }
      ],
      "stateMutability": "view",
      "type": "function"
    },
    {
      "inputs": [],
      "name": "totalDebtRatio",
      "outputs": [
        {
          "internalType": "uint256",
          "name": "",
          "type": "uint256"
        }
      ],
      "stateMutability": "view",
      "type": "function"
    },
    {
      "inputs": [],
      "name": "totalIdle",
      "outputs": [
        {
          "internalType": "uint256",
          "name": "",
          "type": "uint256"
        }
      ],
      "stateMutability": "view",
      "type": "function"
    },
    {
      "inputs": [],
      "name": "totalSupply",
      "outputs": [
        {
          "internalType": "uint256",
          "name": "",
          "type": "uint256"
        }
      ],
      "stateMutability": "view",
      "type": "function"
    },
    {
      "inputs": [
        {
          "internalType": "address",
          "name": "to",
          "type": "address"
        },
        {
          "internalType": "uint256",
          "name": "amount",
          "type": "uint256"
        }
      ],
      "name": "transfer",
      "outputs": [
        {
          "internalType": "bool",
          "name": "",
          "type": "bool"
        }
      ],
      "stateMutability": "nonpayable",
      "type": "function"
    },
    {
      "inputs": [
        {
          "internalType": "address",
          "name": "from",
          "type": "address"
        },
        {
          "internalType": "address",
          "name": "to",
          "type": "address"
        },
        {
          "internalType": "uint256",
          "name": "amount",
          "type": "uint256"
        }
      ],
      "name": "transferFrom",
      "outputs": [
        {
          "internalType": "bool",
          "name": "",
          "type": "bool"
        }
      ],
      "stateMutability": "nonpayable",
      "type": "function"
    },
    {
      "inputs": [
        {
          "internalType": "address",
          "name": "newOwner",
          "type": "address"
        }
      ],
      "name": "transferOwnership",
      "outputs": [],
      "stateMutability": "nonpayable",
      "type": "function"
    },
    {
      "inputs": [
        {
          "internalType": "uint16",
          "name": "",
          "type": "uint16"
        }
      ],
      "name": "trustedRemoteLookup",
      "outputs": [
        {
          "internalType": "bytes",
          "name": "",
          "type": "bytes"
        }
      ],
      "stateMutability": "view",
      "type": "function"
    },
    {
      "inputs": [
        {
          "internalType": "uint16",
          "name": "_chainId",
          "type": "uint16"
        },
        {
          "internalType": "address",
          "name": "_strategy",
          "type": "address"
        },
        {
          "internalType": "uint256",
          "name": "_debtRatio",
          "type": "uint256"
        }
      ],
      "name": "updateStrategyDebtRatio",
      "outputs": [],
      "stateMutability": "nonpayable",
      "type": "function"
    },
    {
      "inputs": [
        {
          "internalType": "uint256",
          "name": "_maxShares",
          "type": "uint256"
        },
        {
          "internalType": "address",
          "name": "_recipient",
          "type": "address"
        },
        {
          "internalType": "uint256",
          "name": "_maxLoss",
          "type": "uint256"
        }
      ],
      "name": "withdraw",
      "outputs": [],
      "stateMutability": "nonpayable",
      "type": "function"
    },
    {
      "inputs": [],
      "name": "withdrawEpoch",
      "outputs": [
        {
          "internalType": "uint256",
          "name": "",
          "type": "uint256"
        }
      ],
      "stateMutability": "view",
      "type": "function"
    },
    {
      "stateMutability": "payable",
      "type": "receive"
    }
  ],
  "bytecode": "0x608060405234801561001057600080fd5b50615fb480620000216000396000f3fe6080604052600436106102db5760003560e01c80637533d788116101825780637533d788146107b15780638cfd8f5c146107d15780638da5cb5b14610809578063950c8a741461081e57806395d89b411461083e57806399530b06146108535780639aa7df94146108685780639f38369a1461087d578063a032a7121461089d578063a457c2d7146108bd578063a6c3d165146108dd578063a9059cbb146108fd578063ab033ea91461091d578063ab73ce461461093d578063ab8236f314610954578063b353aaa714610974578063baf3292d14610994578063c4461834146109b4578063cbed8b9c146109ca578063cfbcc644146109ea578063d1deba1f14610a0a578063dd62ed3e14610a1d578063df2a5b3b14610a3d578063e63697c814610a5d578063e7fda06114610a7d578063eb8d72b714610a9d578063ef34253c14610abd578063f2fde38b14610ad2578063f5ecbdbc14610af2578063fc0c546a14610b12578063fc7b9c1814610b32578063fd967f47146109b457600080fd5b80621d3567146102e757806301dc2eb11461030957806301e1d1141461033c5780630517cb761461035157806306fdde031461037f57806307e0db17146103a1578063095ea7b3146103c15780630a97c254146103f15780630df374831461041157806310ddb137146104315780631459457a1461045157806314c644021461047157806318160ddd1461049157806323b872dd146104a65780632d606843146104c65780632df9eab9146104db578063313ce567146104f15780633403c2fc1461051857806337fded911461053357806339509351146105535780633d8b38f6146105735780633f1f4fa4146105935780634067cb9e146105c057806342d65a8d1461067757806352106a49146106975780635aa6e675146106b75780635b8c41e6146106d757806366ad5c8a146107265780636e553f651461074657806370a0823114610766578063715018a61461079c57600080fd5b366102e257005b600080fd5b3480156102f357600080fd5b50610307610302366004614ded565b610b48565b005b34801561031557600080fd5b50610329610324366004614e95565b610c0b565b6040519081526020015b60405180910390f35b34801561034857600080fd5b50610329610c20565b34801561035d57600080fd5b5061010854610372906001600160a01b031681565b6040516103339190614ecc565b34801561038b57600080fd5b50610394610c3c565b6040516103339190614f30565b3480156103ad57600080fd5b506103076103bc366004614f43565b610cce565b3480156103cd57600080fd5b506103e16103dc366004614f5e565b610d3b565b6040519015158152602001610333565b3480156103fd57600080fd5b5061030761040c366004614f8a565b610d53565b34801561041d57600080fd5b5061030761042c366004614fc9565b610ee2565b34801561043d57600080fd5b5061030761044c366004614f43565b610f01565b34801561045d57600080fd5b5061030761046c366004614fe5565b610f3d565b34801561047d57600080fd5b5061030761048c366004615064565b611165565b34801561049d57600080fd5b50603554610329565b3480156104b257600080fd5b506103e16104c1366004615081565b6111c6565b3480156104d257600080fd5b506103076111ea565b3480156104e757600080fd5b5061032960fe5481565b3480156104fd57600080fd5b50610506611266565b60405160ff9091168152602001610333565b34801561052457600080fd5b50610100546103e19060ff1681565b34801561053f57600080fd5b5060fd54610372906001600160a01b031681565b34801561055f57600080fd5b506103e161056e366004614f5e565b6112d4565b34801561057f57600080fd5b506103e161058e3660046150a1565b6112f6565b34801561059f57600080fd5b506103296105ae366004614f43565b609a6020526000908152604090205481565b3480156105cc57600080fd5b506106336105db366004614e95565b610101602090815260009283526040808420909152908252902080546001820154600283015460038401546004850154600586015460068701546007909701549596949593949293919290916001600160a01b031688565b604080519889526020890197909752958701949094526060860192909252608085015260a084015260c08301526001600160a01b031660e082015261010001610333565b34801561068357600080fd5b506103076106923660046150a1565b6113c2565b3480156106a357600080fd5b506103076106b23660046150f3565b611435565b3480156106c357600080fd5b5060fb54610372906001600160a01b031681565b3480156106e357600080fd5b506103296106f236600461522e565b60c9602090815260009384526040808520845180860184018051928152908401958401959095209452929052825290205481565b34801561073257600080fd5b50610307610741366004614ded565b61167b565b34801561075257600080fd5b5061032961076136600461528b565b61174f565b34801561077257600080fd5b506103296107813660046152b0565b6001600160a01b031660009081526033602052604090205490565b3480156107a857600080fd5b5061030761175b565b3480156107bd57600080fd5b506103946107cc366004614f43565b61176f565b3480156107dd57600080fd5b506103296107ec3660046152cd565b609960209081526000928352604080842090915290825290205481565b34801561081557600080fd5b50610372611809565b34801561082a57600080fd5b50609b54610372906001600160a01b031681565b34801561084a57600080fd5b50610394611818565b34801561085f57600080fd5b50610329611827565b34801561087457600080fd5b50610329611844565b34801561088957600080fd5b50610394610898366004614f43565b6118b6565b3480156108a957600080fd5b506103076108b8366004615300565b6119cc565b3480156108c957600080fd5b506103e16108d8366004614f5e565b611db9565b3480156108e957600080fd5b506103076108f83660046150a1565b611e34565b34801561090957600080fd5b506103e1610918366004614f5e565b611ebd565b34801561092957600080fd5b506103076109383660046152b0565b611ecb565b34801561094957600080fd5b506103296101025481565b34801561096057600080fd5b5061030761096f366004615349565b611f3a565b34801561098057600080fd5b50609754610372906001600160a01b031681565b3480156109a057600080fd5b506103076109af3660046152b0565b61208a565b3480156109c057600080fd5b5061032961271081565b3480156109d657600080fd5b506103076109e53660046153e3565b6120e8565b3480156109f657600080fd5b50610307610a05366004614e95565b612161565b610307610a18366004614ded565b6121bc565b348015610a2957600080fd5b50610329610a38366004615451565b6123d2565b348015610a4957600080fd5b50610307610a5836600461546f565b6123fd565b348015610a6957600080fd5b50610307610a783660046154ab565b6124af565b348015610a8957600080fd5b50610329610a98366004614e95565b6124bf565b348015610aa957600080fd5b50610307610ab83660046150a1565b6124cb565b348015610ac957600080fd5b50610307612525565b348015610ade57600080fd5b50610307610aed3660046152b0565b612845565b348015610afe57600080fd5b50610394610b0d3660046154d2565b6128bb565b348015610b1e57600080fd5b5060fc54610372906001600160a01b031681565b348015610b3e57600080fd5b5061032960ff5481565b6097546001600160a01b03163314610b8d5760405162461bcd60e51b81526020600482015260036024820152622b189960e91b60448201526064015b60405180910390fd5b610c038686868080601f01602080910402602001604051908101604052809392919081815260200183838082843760009201919091525050604080516020601f89018190048102820181019092528781528993509150879087908190840183828082843760009201919091525061295092505050565b505050505050565b6000610c1783836129c9565b90505b92915050565b6000610c2a611844565b60ff54610c379190615535565b905090565b606060368054610c4b90615548565b80601f0160208091040260200160405190810160405280929190818152602001828054610c7790615548565b8015610cc45780601f10610c9957610100808354040283529160200191610cc4565b820191906000526020600020905b815481529060010190602001808311610ca757829003601f168201915b5050505050905090565b610cd6612a91565b6097546040516307e0db1760e01b815261ffff831660048201526001600160a01b03909116906307e0db17906024015b600060405180830381600087803b158015610d2057600080fd5b505af1158015610d34573d6000803e3d6000fd5b5050505050565b600033610d49818585612af0565b5060019392505050565b60fb546001600160a01b0316331480610d845750610d6f611809565b6001600160a01b0316336001600160a01b0316145b610da05760405162461bcd60e51b8152600401610b8490615582565b61ffff83166000908152610101602090815260408083206001600160a01b0386168452909152902054610e0f5760405162461bcd60e51b81526020600482015260176024820152765661756c743a3a496e616374697665537472617465677960481b6044820152606401610b84565b61ffff83166000908152610101602090815260408083206001600160a01b038616845290915281206001015460fe805491929091610e4e90849061559e565b909155505061ffff83166000908152610101602090815260408083206001600160a01b0386168452909152902060010181905560fe5461271090610e93908390615535565b1115610ec65760405162461bcd60e51b81526020600482015260026024820152612b1b60f11b6044820152606401610b84565b8060fe6000828254610ed89190615535565b9091555050505050565b610eea612a91565b61ffff9091166000908152609a6020526040902055565b610f09612a91565b6097546040516310ddb13760e01b815261ffff831660048201526001600160a01b03909116906310ddb13790602401610d06565b600054610100900460ff1615808015610f5d5750600054600160ff909116105b80610f7e5750610f6c30612c14565b158015610f7e575060005460ff166001145b610fe15760405162461bcd60e51b815260206004820152602e60248201527f496e697469616c697a61626c653a20636f6e747261637420697320616c72656160448201526d191e481a5b9a5d1a585b1a5e995960921b6064820152608401610b84565b6000805460ff191660011790558015611004576000805461ff0019166101001790555b61100d85612c23565b611015612c5b565b6110616040518060400160405280600f81526020016e13db5b9a58da185a5b8815985d5b1d608a1b8152506040518060400160405280600381526020016227a6ab60e91b815250612c8a565b60fb80546001600160a01b038089166001600160a01b03199283161790925560fc8054878416908316811790915560fd805487851690841617905561010880549386169390921692909217905560405163095ea7b360e01b815263095ea7b3906110d3908690600019906004016155b1565b6020604051808303816000875af11580156110f2573d6000803e3d6000fd5b505050506040513d601f19601f8201168201806040525081019061111691906155ca565b508015610c03576000805461ff0019169055604051600181527f7f26b83ff96e1f2b6a682f133852f6798a09c465da95921460cefb3847402498906020015b60405180910390a1505050505050565b60fb546001600160a01b03163314806111965750611181611809565b6001600160a01b0316336001600160a01b0316145b6111b25760405162461bcd60e51b8152600401610b8490615582565b610100805460ff1916911515919091179055565b6000336111d4858285612cbb565b6111df858585612d2f565b506001949350505050565b60fb546001600160a01b031633148061121b5750611206611809565b6001600160a01b0316336001600160a01b0316145b6112375760405162461bcd60e51b8152600401610b8490615582565b60405133904780156108fc02916000818181858888f19350505050158015611263573d6000803e3d6000fd5b50565b60fc546040805163313ce56760e01b815290516000926001600160a01b03169163313ce5679160048083019260209291908290030181865afa1580156112b0573d6000803e3d6000fd5b505050506040513d601f19601f82011682018060405250810190610c3791906155e7565b600033610d498185856112e783836123d2565b6112f19190615535565b612af0565b61ffff83166000908152609860205260408120805482919061131790615548565b80601f016020809104026020016040519081016040528092919081815260200182805461134390615548565b80156113905780601f1061136557610100808354040283529160200191611390565b820191906000526020600020905b81548152906001019060200180831161137357829003601f168201915b5050505050905083836040516113a792919061560a565b60405180910390208180519060200120149150509392505050565b6113ca612a91565b6097546040516342d65a8d60e01b81526001600160a01b03909116906342d65a8d906113fe90869086908690600401615643565b600060405180830381600087803b15801561141857600080fd5b505af115801561142c573d6000803e3d6000fd5b50505050505050565b60fb546001600160a01b03163314806114665750611451611809565b6001600160a01b0316336001600160a01b0316145b6114825760405162461bcd60e51b8152600401610b8490615582565b61ffff85166000908152610101602090815260408083206001600160a01b0388168452909152902054156114dd5760405162461bcd60e51b81526020600482015260026024820152612b1960f11b6044820152606401610b84565b6127108360fe546114ee9190615535565b11156115215760405162461bcd60e51b8152602060048201526002602482015261563360f01b6044820152606401610b84565b60405180610100016040528042815260200184815260200160008152602001600081526020016000815260200160008152602001838152602001826001600160a01b031681525061010160008761ffff1661ffff1681526020019081526020016000206000866001600160a01b03166001600160a01b03168152602001908152602001600020600082015181600001556020820151816001015560408201518160020155606082015181600301556080820151816004015560a0820151816005015560c0820151816006015560e08201518160070160006101000a8154816001600160a01b0302191690836001600160a01b0316021790555090505061164b8461010360008861ffff1661ffff168152602001908152602001600020612ec890919063ffffffff16565b5061165c61010461ffff8716612edd565b508260fe600082825461166f9190615535565b90915550505050505050565b3330146116d95760405162461bcd60e51b815260206004820152602660248201527f4e6f6e626c6f636b696e674c7a4170703a2063616c6c6572206d7573742062656044820152650204c7a4170760d41b6064820152608401610b84565b610c038686868080601f01602080910402602001604051908101604052809392919081815260200183838082843760009201919091525050604080516020601f890181900481028201810190925287815289935091508790879081908401838280828437600092019190915250612ee992505050565b6000610c178383612f87565b611763612a91565b61176d6000612feb565b565b6098602052600090815260409020805461178890615548565b80601f01602080910402602001604051908101604052809291908181526020018280546117b490615548565b80156118015780601f106117d657610100808354040283529160200191611801565b820191906000526020600020905b8154815290600101906020018083116117e457829003601f168201915b505050505081565b6065546001600160a01b031690565b606060378054610c4b90615548565b6000610c37611834611266565b61183f90600a615745565b61303d565b60fc546040516370a0823160e01b81526000916001600160a01b0316906370a0823190611875903090600401614ecc565b602060405180830381865afa158015611892573d6000803e3d6000fd5b505050506040513d601f19601f82011682018060405250810190610c379190615754565b61ffff81166000908152609860205260408120805460609291906118d990615548565b80601f016020809104026020016040519081016040528092919081815260200182805461190590615548565b80156119525780601f1061192757610100808354040283529160200191611952565b820191906000526020600020905b81548152906001019060200180831161193557829003601f168201915b5050505050905080516000036119aa5760405162461bcd60e51b815260206004820152601d60248201527f4c7a4170703a206e6f20747275737465642070617468207265636f72640000006044820152606401610b84565b6119c56000601483516119bd919061559e565b839190613072565b9392505050565b60fb546001600160a01b03163314806119fd57506119e8611809565b6001600160a01b0316336001600160a01b0316145b611a195760405162461bcd60e51b8152600401610b8490615582565b6001600160a01b038116611a545760405162461bcd60e51b8152602060048201526002602482015261563760f01b6044820152606401610b84565b61ffff83166000908152610101602090815260408083206001600160a01b0386168452909152902054611aae5760405162461bcd60e51b81526020600482015260026024820152610ac760f31b6044820152606401610b84565b61ffff83166000908152610101602090815260408083206001600160a01b038516845290915290205415611b095760405162461bcd60e51b8152602060048201526002602482015261563960f01b6044820152606401610b84565b600061010160008561ffff1661ffff1681526020019081526020016000206000846001600160a01b03166001600160a01b0316815260200190815260200160002060405180610100016040529081600082015481526020016001820154815260200160028201548152602001600382015481526020016004820154815260200160058201548152602001600682015481526020016007820160009054906101000a90046001600160a01b03166001600160a01b03166001600160a01b03168152505090506040518061010001604052808260a001518152602001826020015181526020018260400151815260200160008152602001600081526020018260a0015181526020018260c0015181526020018260e001516001600160a01b031681525061010160008661ffff1661ffff1681526020019081526020016000206000846001600160a01b03166001600160a01b03168152602001908152602001600020600082015181600001556020820151816001015560408201518160020155606082015181600301556080820151816004015560a0820151816005015560c0820151816006015560e08201518160070160006101000a8154816001600160a01b0302191690836001600160a01b03160217905550905050600061010160008661ffff1661ffff1681526020019081526020016000206000856001600160a01b03166001600160a01b0316815260200190815260200160002060010181905550600061010160008661ffff1661ffff1681526020019081526020016000206000856001600160a01b03166001600160a01b0316815260200190815260200160002060020181905550611db3848460046040518060200160405280876001600160a01b0316815250604051602001611d9f9291906157a5565b60405160208183030381529060405261317f565b50505050565b60003381611dc782866123d2565b905083811015611e275760405162461bcd60e51b815260206004820152602560248201527f45524332303a2064656372656173656420616c6c6f77616e63652062656c6f77604482015264207a65726f60d81b6064820152608401610b84565b6111df8286868403612af0565b611e3c612a91565b818130604051602001611e51939291906157ca565b60408051601f1981840301815291815261ffff8516600090815260986020522090611e7c9082615846565b507f8c0400cfe2d1199b1a725c78960bcc2a344d869b80590d0f2bd005db15a572ce838383604051611eb093929190615643565b60405180910390a1505050565b600033610d49818585612d2f565b60fb546001600160a01b0316331480611efc5750611ee7611809565b6001600160a01b0316336001600160a01b0316145b611f185760405162461bcd60e51b8152600401610b8490615582565b60fb80546001600160a01b0319166001600160a01b0392909216919091179055565b60fc546001600160a01b03848116911614611f7d5760405162461bcd60e51b815260206004820152600360248201526205631360ec1b6044820152606401610b84565b610108546001600160a01b0316331480611fa1575060fd546001600160a01b031633145b80611fc45750611faf611809565b6001600160a01b0316336001600160a01b0316145b611ff65760405162461bcd60e51b815260206004820152600360248201526256313160e81b6044820152606401610b84565b600061200486826014613072565b60405160200161201491906158ff565b60405160208183030381529060405261202c9061591b565b60601c905061203c87838561333b565b604080518481526001600160a01b0383811660208301528616917f92073a89a07a000083eb8b2575fc15e7bb936efe55d00727d6942a796d7211a7910160405180910390a250505050505050565b612092612a91565b609b80546001600160a01b0319166001600160a01b0383161790556040517f5db758e995a17ec1ad84bdef7e8c3293a0bd6179bcce400dff5d4c3d87db726b906120dd908390614ecc565b60405180910390a150565b6120f0612a91565b6097546040516332fb62e760e21b81526001600160a01b039091169063cbed8b9c906121289088908890889088908890600401615952565b600060405180830381600087803b15801561214257600080fd5b505af1158015612156573d6000803e3d6000fd5b505050505050505050565b60fb546001600160a01b0316331480612192575061217d611809565b6001600160a01b0316336001600160a01b0316145b6121ae5760405162461bcd60e51b8152600401610b8490615582565b6121b882826133d2565b5050565b61ffff8616600090815260c9602052604080822090516121df908890889061560a565b90815260408051602092819003830190206001600160401b0387166000908152925290205490508061225f5760405162461bcd60e51b815260206004820152602360248201527f4e6f6e626c6f636b696e674c7a4170703a206e6f2073746f726564206d65737360448201526261676560e81b6064820152608401610b84565b80838360405161227092919061560a565b6040518091039020146122cf5760405162461bcd60e51b815260206004820152602160248201527f4e6f6e626c6f636b696e674c7a4170703a20696e76616c6964207061796c6f616044820152601960fa1b6064820152608401610b84565b61ffff8716600090815260c9602052604080822090516122f2908990899061560a565b90815260408051602092819003830181206001600160401b038916600090815290845282902093909355601f8801829004820283018201905286825261238a918991899089908190840183828082843760009201919091525050604080516020601f8a018190048102820181019092528881528a935091508890889081908401838280828437600092019190915250612ee992505050565b7fc264d91f3adc5588250e1551f547752ca0cfa8f6b530d243b9f9f4cab10ea8e587878787856040516123c1959493929190615980565b60405180910390a150505050505050565b6001600160a01b03918216600090815260346020908152604080832093909416825291909152205490565b612405612a91565b6000811161244d5760405162461bcd60e51b81526020600482015260156024820152744c7a4170703a20696e76616c6964206d696e47617360581b6044820152606401610b84565b61ffff83811660008181526099602090815260408083209487168084529482529182902085905581519283528201929092529081018290527f9d5c7c0b934da8fefa9c7760c98383778a12dfbfc0c3b3106518f43fb9508ac090606001611eb0565b6124ba838383613447565b505050565b6000610c178383613588565b6124d3612a91565b61ffff831660009081526098602052604090206124f18284836159bb565b507ffa41487ad5d6728f0b19276fa1eddc16558578f5109fc39d2dc33c3230470dab838383604051611eb093929190615643565b60fb546001600160a01b03163314806125565750612541611809565b6001600160a01b0316336001600160a01b0316145b6125725760405162461bcd60e51b8152600401610b8490615582565b610102546000908152610106602052604090206001015460ff16156125be5760405162461bcd60e51b8152602060048201526002602482015261158d60f21b6044820152606401610b84565b6000805b610102546000908152610106602052604090205481101561263f576101025460009081526101066020526040812080548390811061260257612602615a74565b9060005260206000209060060201905061261f816002015461303d565b6126299084615535565b925050808061263790615a8a565b9150506125c2565b50612648611844565b811161265657611263613640565b6000612660611844565b61266a908361559e565b90506000805b61267b610104613956565b811080156126895750600083115b156127da57600061269c61010483613960565b61ffff81166000908152610103602052604081209192505b6126bd82613956565b811080156126cb5750600086115b156127c45760006126dc8383613960565b61ffff85166000908152610101602090815260408083206001600160a01b03851684529091528120600281015492935091900361271a5750506127b2565b600061272a89836002015461396c565b6101025460009081526101066020908152604080832061ffff8b16845260050182528083206001600160a01b03881684529091529020819055905061276f818a61559e565b98506127a186846000604051806040016040528086815260200161010254815250604051602001611d9f929190615aa3565b876127ab81615a8a565b9850505050505b806127bc81615a8a565b9150506126b4565b50505080806127d290615a8a565b915050612670565b50600081116128105760405162461bcd60e51b8152602060048201526002602482015261563560f01b6044820152606401610b84565b6101028054600090815261010660205260408082206002019390935590548152206001908101805460ff191690911790555050565b61284d612a91565b6001600160a01b0381166128b25760405162461bcd60e51b815260206004820152602660248201527f4f776e61626c653a206e6577206f776e657220697320746865207a65726f206160448201526564647265737360d01b6064820152608401610b84565b61126381612feb565b609754604051633d7b2f6f60e21b815261ffff808716600483015285166024820152306044820152606481018390526060916001600160a01b03169063f5ecbdbc90608401600060405180830381865afa15801561291d573d6000803e3d6000fd5b505050506040513d6000823e601f3d908101601f191682016040526129459190810190615b0e565b90505b949350505050565b6000806129b35a60966366ad5c8a60e01b898989896040516024016129789493929190615b42565b60408051601f198184030181529190526020810180516001600160e01b03166001600160e01b03199093169290921790915230929190613982565b9150915081610c0357610c038686868685613a0e565b6101005460009060ff16156129e057506000610c1a565b60006127106129ed610c20565b61ffff86166000908152610101602090815260408083206001600160a01b0389168452909152902060010154612a239190615b80565b612a2d9190615b97565b61ffff85166000908152610101602090815260408083206001600160a01b0388168452909152902060020154909150808211612a6e57600092505050610c1a565b612a88612a79611844565b612a83838561559e565b61396c565b95945050505050565b33612a9a611809565b6001600160a01b03161461176d5760405162461bcd60e51b815260206004820181905260248201527f4f776e61626c653a2063616c6c6572206973206e6f7420746865206f776e65726044820152606401610b84565b6001600160a01b038316612b525760405162461bcd60e51b8152602060048201526024808201527f45524332303a20617070726f76652066726f6d20746865207a65726f206164646044820152637265737360e01b6064820152608401610b84565b6001600160a01b038216612bb35760405162461bcd60e51b815260206004820152602260248201527f45524332303a20617070726f766520746f20746865207a65726f206164647265604482015261737360f01b6064820152608401610b84565b6001600160a01b0383811660008181526034602090815260408083209487168084529482529182902085905590518481527f8c5be1e5ebec7d5bd14f71427d1e84f3dd0314c0f7b2291e5b200ac8c7c3b925910160405180910390a3505050565b6001600160a01b03163b151590565b600054610100900460ff16612c4a5760405162461bcd60e51b8152600401610b8490615bb9565b612c52613aab565b61126381613adb565b600054610100900460ff16612c825760405162461bcd60e51b8152600401610b8490615bb9565b61176d613aab565b600054610100900460ff16612cb15760405162461bcd60e51b8152600401610b8490615bb9565b6121b88282613b24565b6000612cc784846123d2565b90506000198114611db35781811015612d225760405162461bcd60e51b815260206004820152601d60248201527f45524332303a20696e73756666696369656e7420616c6c6f77616e63650000006044820152606401610b84565b611db38484848403612af0565b6001600160a01b038316612d935760405162461bcd60e51b815260206004820152602560248201527f45524332303a207472616e736665722066726f6d20746865207a65726f206164604482015264647265737360d81b6064820152608401610b84565b6001600160a01b038216612df55760405162461bcd60e51b815260206004820152602360248201527f45524332303a207472616e7366657220746f20746865207a65726f206164647260448201526265737360e81b6064820152608401610b84565b6001600160a01b03831660009081526033602052604090205481811015612e6d5760405162461bcd60e51b815260206004820152602660248201527f45524332303a207472616e7366657220616d6f756e7420657863656564732062604482015265616c616e636560d01b6064820152608401610b84565b6001600160a01b038085166000818152603360205260408082208686039055928616808252908390208054860190559151600080516020615f5f83398151915290612ebb9086815260200190565b60405180910390a3611db3565b6000610c17836001600160a01b038416613b64565b6000610c178383613b64565b6000612ef784826014613072565b604051602001612f0791906158ff565b604051602081830303815290604052612f1f9061591b565b61ffff861660009081526101016020908152604080832060609490941c80845293909152902054909150612f7b5760405162461bcd60e51b815260206004820152600360248201526256323160e81b6044820152606401610b84565b610d348583600061333b565b6101005460009060ff1615612fc45760405162461bcd60e51b815260206004820152600360248201526256313360e81b6044820152606401610b84565b6000612fd08385613bb3565b60fc54909150610c17906001600160a01b0316333087613c2f565b606580546001600160a01b038381166001600160a01b0319831681179093556040519116919082907f8be0079c531659141344cd1fd0a4f28419497f9722a3daafe3b4186f6b6457e090600090a35050565b600061304860355490565b600003613053575090565b60355461305e610c20565b6130689084615b80565b610c1a9190615b97565b60608161308081601f615535565b10156130bf5760405162461bcd60e51b815260206004820152600e60248201526d736c6963655f6f766572666c6f7760901b6044820152606401610b84565b6130c98284615535565b8451101561310d5760405162461bcd60e51b8152602060048201526011602482015270736c6963655f6f75744f66426f756e647360781b6044820152606401610b84565b60608215801561312c5760405191506000825260208201604052613176565b6040519150601f8416801560200281840101858101878315602002848b0101015b8183101561316557805183526020928301920161314d565b5050858452601f01601f1916604052505b50949350505050565b61ffff83166000908152610101602090815260408083206001600160a01b0386168452909152902080546131db5760405162461bcd60e51b81526020600482015260036024820152620ac62760eb1b6044820152606401610b84565b6040516001600160601b0319606085811b8216602084015230901b16603482015260009060480160408051601f198184030181529190526097549091506000906001600160a01b03166340a7bb1087308785613235613c9a565b6040518663ffffffff1660e01b8152600401613255959493929190615c04565b6040805180830381865afa158015613271573d6000803e3d6000fd5b505050506040513d601f19601f820116820180604052508101906132959190615c58565b509050804710156132c15760405162fae2d560e21b815260048101829052476024820152604401610b84565b6097546001600160a01b031663c58031008288858830806132e0613c9a565b6040518863ffffffff1660e01b815260040161330196959493929190615c7c565b6000604051808303818588803b15801561331a57600080fd5b505af115801561332e573d6000803e3d6000fd5b5050505050505050505050565b6000828060200190518101906133519190615ce3565b905060028160048111156133675761336761576d565b03613396576000838060200190518101906133829190615d0f565b915050613390858285613cca565b50611db3565b60018160048111156133aa576133aa61576d565b03611db3576000838060200190518101906133c59190615dfa565b915050610d348582614100565b61ffff82166000908152610101602090815260408083206001600160a01b038516845290915281206001015460fe80549192909161341190849061559e565b909155505061ffff9091166000908152610101602090815260408083206001600160a01b03909416835292905290812060010155565b610102546000908152610106602052604090206001015460ff16156134945760405162461bcd60e51b81526020600482015260036024820152622b189b60e91b6044820152606401610b84565b61349f333085612d2f565b61010660006101025481526020019081526020016000206000016040518060c00160405280336001600160a01b03168152602001846001600160a01b031681526020018581526020018381526020016134f78661303d565b81526000602091820181905283546001808201865594825290829020835160069092020180546001600160a01b03199081166001600160a01b039384161782559284015194810180549093169490911693909317905560408101516002830155606081015160038301556080810151600483015560a001516005909101805460ff1916911515919091179055505050565b600080612710613596610c20565b61ffff86166000908152610101602090815260408083206001600160a01b03891684529091529020600101546135cc9190615b80565b6135d69190615b97565b61ffff85166000908152610101602090815260408083206001600160a01b0388168452909152902060020154610100549192509060ff161561361b579150610c1a9050565b81811161362d57600092505050610c1a565b613637828261559e565b92505050610c1a565b6101025460009081526101066020526040902054806136875760405162461bcd60e51b815260206004820152600360248201526256313960e81b6044820152606401610b84565b6000816001600160401b038111156136a1576136a1615142565b6040519080825280602002602001820160405280156136ca578160200160208202803683370190505b50905060005b8281101561374a57610102546000908152610106602052604081208054839081106136fd576136fd615a74565b9060005260206000209060060201905061371a816002015461303d565b83838151811061372c5761372c615a74565b6020908102919091010152508061374281615a8a565b9150506136d0565b5060005b828110156138e3576101025460009081526101066020526040812080548390811061377b5761377b615a74565b9060005260206000209060060201905060006137b28484815181106137a2576137a2615a74565b6020026020010151612a83611844565b905081600401548110156138915760008183600401546137d2919061559e565b905060008360040154612710836137e99190615b80565b6137f39190615b97565b9050836003015481111561388e5760058401805460ff191690558354600285015460405163a9059cbb60e01b8152309263a9059cbb92613841926001600160a01b03909216916004016155b1565b6020604051808303816000875af1158015613860573d6000803e3d6000fd5b505050506040513d601f19601f8201168201806040525081019061388491906155ca565b50505050506138d1565b50505b60058201805460ff1916600190811790915582015460fc546138c0916001600160a01b039182169116836142db565b6138ce3083600201546142fa565b50505b806138db81615a8a565b91505061374e565b506101025460408051918252602082018490527fc682eb885c208b8aaaa811c05902e24a4f14b388960311623a8f31404f655129910160405180910390a16101028054600090815261010660205260408120600101805460ff191690558154919061394d83615a8a565b91905055505050565b6000610c1a825490565b6000610c17838361441c565b600081831061397b5781610c17565b5090919050565b6000606060008060008661ffff166001600160401b038111156139a7576139a7615142565b6040519080825280601f01601f1916602001820160405280156139d1576020820181803683370190505b50905060008087516020890160008d8df191503d9250868311156139f3578692505b828152826000602083013e9093509150505b94509492505050565b818051906020012060c960008761ffff1661ffff16815260200190815260200160002085604051613a3f91906158ff565b9081526040805191829003602090810183206001600160401b0388166000908152915220919091557fe183f33de2837795525b4792ca4cd60535bd77c53b7e7030060bfcf5734d6b0c90613a9c9087908790879087908790615e85565b60405180910390a15050505050565b600054610100900460ff16613ad25760405162461bcd60e51b8152600401610b8490615bb9565b61176d33612feb565b600054610100900460ff16613b025760405162461bcd60e51b8152600401610b8490615bb9565b609780546001600160a01b0319166001600160a01b0392909216919091179055565b600054610100900460ff16613b4b5760405162461bcd60e51b8152600401610b8490615bb9565b6036613b578382615846565b5060376124ba8282615846565b6000818152600183016020526040812054613bab57508154600181810184556000848152602080822090930184905584548482528286019093526040902091909155610c1a565b506000610c1a565b600080613bbf60355490565b600003613bcd575081613bef565b613bd5610c20565b603554613be29085615b80565b613bec9190615b97565b90505b60008111613c255760405162461bcd60e51b815260206004820152600360248201526256313760e81b6044820152606401610b84565b610c178482614446565b6040516001600160a01b0380851660248301528316604482015260648101829052611db39085906323b872dd60e01b906084015b60408051601f198184030181529190526020810180516001600160e01b03166001600160e01b0319909316929092179091526144f5565b60408051600160f01b6020820152620f424060228083019190915282518083039091018152604290910190915290565b613cd483836145ca565b61ffff831660009081526101016020908152604080832085516001600160a01b03168452909152902054613d305760405162461bcd60e51b8152602060048201526003602482015262158c4d60ea1b6044820152606401610b84565b606082015115613d4d57613d4d83836000015184606001516147a9565b60408083015161ffff85166000908152610101602090815283822086516001600160a01b031683529052918220600301805491929091613d8e908490615535565b90915550508151600090613da3908590613588565b90506000613db582856080015161396c565b90508015613e255761ffff851660009081526101016020908152604080832087516001600160a01b0316845290915281206002018054839290613df990849061559e565b925050819055508060ff6000828254613e12919061559e565b90915550613e229050818361559e565b91505b60e084015115613e925760e084015161ffff861660009081526101016020908152604080832088516001600160a01b0316845290915281206002018054909190613e70908490615535565b909155505060e084015160ff8054600090613e8c908490615535565b90915550505b60208085015161ffff8716600081815261010180855260408083208a516001600160a01b039081168552818852828520600501969096559383529085528851909316815292529020600101541580613eed57506101005460ff165b15613efb5783610100015191505b60a084015115613f4e57613f498460a001518686600001516003604051806020016040528088815250604051602001613f35929190615ed7565b60405160208183030381529060405261489e565b613f79565b613f798585600001516003604051806020016040528087815250604051602001611d9f929190615ed7565b600061010160008761ffff1661ffff168152602001908152602001600020600086600001516001600160a01b03166001600160a01b0316815260200190815260200160002060405180610100016040529081600082015481526020016001820154815260200160028201548152602001600382015481526020016004820154815260200160058201548152602001600682015481526020016007820160009054906101000a90046001600160a01b03166001600160a01b03166001600160a01b03168152505090507f08bc8eff67f79e18165507d64024f5ca5e90a2593c7a45cb5caf7f9d843e404c8686600001518760400151886060015189608001518660600151876080015188604001518d60e001518a602001518e6040516111559b9a9998979695949392919061ffff9b909b168b526001600160a01b039990991660208b015260408a01979097526060890195909552608088019390935260a087019190915260c086015260e08501526101008401526101208301526101408201526101600190565b61ffff821660009081526101016020908152604080832084516001600160a01b0316845290915290205461415c5760405162461bcd60e51b815260206004820152600360248201526205632360ec1b6044820152606401610b84565b6040810151156141795761417982826000015183604001516147a9565b60208082015161ffff841660009081526101018352604080822085516001600160a01b031683529093529182206002018054919290916141ba90849061559e565b9091555050602081015160ff80546000906141d690849061559e565b909155505060608101516000908152610106602052604081206003018054916141fe83615a8a565b909155505060608101805160009081526101066020818152604080842061ffff88168552600401825280842086516001600160a01b031685528252808420805460ff191660011790558451845291905280822060030154925182529020600201540361426c5761426c613640565b80600001516001600160a01b03168261ffff167f046368a4ca42efbdd968b9025440eb5590bdcda7da09f4fef8ac4ef2f44a5ed08360200151846040015185606001516040516142cf939291909283526020830191909152604082015260600190565b60405180910390a35050565b6124ba8363a9059cbb60e01b8484604051602401613c639291906155b1565b6001600160a01b03821661435a5760405162461bcd60e51b815260206004820152602160248201527f45524332303a206275726e2066726f6d20746865207a65726f206164647265736044820152607360f81b6064820152608401610b84565b6001600160a01b038216600090815260336020526040902054818110156143ce5760405162461bcd60e51b815260206004820152602260248201527f45524332303a206275726e20616d6f756e7420657863656564732062616c616e604482015261636560f01b6064820152608401610b84565b6001600160a01b0383166000818152603360209081526040808320868603905560358054879003905551858152919291600080516020615f5f833981519152910160405180910390a3505050565b600082600001828154811061443357614433615a74565b9060005260206000200154905092915050565b6001600160a01b03821661449c5760405162461bcd60e51b815260206004820152601f60248201527f45524332303a206d696e7420746f20746865207a65726f2061646472657373006044820152606401610b84565b80603560008282546144ae9190615535565b90915550506001600160a01b038216600081815260336020908152604080832080548601905551848152600080516020615f5f833981519152910160405180910390a35050565b600061454a826040518060400160405280602081526020017f5361666545524332303a206c6f772d6c6576656c2063616c6c206661696c6564815250856001600160a01b031661498e9092919063ffffffff16565b905080516000148061456b57508080602001905181019061456b91906155ca565b6124ba5760405162461bcd60e51b815260206004820152602a60248201527f5361666545524332303a204552433230206f7065726174696f6e20646964206e6044820152691bdd081cdd58d8d9595960b21b6064820152608401610b84565b61ffff821660009081526101076020908152604080832084516001600160a01b031684528252808320610120850151845290915290205460ff16156146375760405162461bcd60e51b81526020600482015260036024820152622b191960e91b6044820152606401610b84565b805161012082015160405160609290921b6001600160601b0319166020830152603482015260f083901b6001600160f01b03191660548201526000906056016040516020818303038152906040528051906020012090506000816040516020016146cc91907b0ca2ba3432b932bab69029b4b3b732b21026b2b9b9b0b3b29d05199960211b8152601c810191909152603c0190565b60408051601f19818403018152918152815160209283012061ffff87166000908152610101845282812087516001600160a01b039081168352945291909120600701546101408601519193509091169061472790839061499d565b6001600160a01b0316146147635760405162461bcd60e51b815260206004820152600360248201526256323360e81b6044820152606401610b84565b505061ffff90911660009081526101076020908152604080832084516001600160a01b03168452825280832061012090940151835292905220805460ff19166001179055565b61ffff83166000908152610101602090815260408083206001600160a01b038616845290915290206002015481111561480a5760405162461bcd60e51b815260206004820152600360248201526256313560e81b6044820152606401610b84565b61ffff83166000908152610101602090815260408083206001600160a01b038616845290915281206004018054839290614845908490615535565b909155505061ffff83166000908152610101602090815260408083206001600160a01b03861684529091528120600201805483929061488590849061559e565b925050819055508060ff6000828254610ed8919061559e565b60fd54604051630dc6346160e01b81526000916001600160a01b031690630dc63461906148d390879087908790600401615ef3565b602060405180830381865afa1580156148f0573d6000803e3d6000fd5b505050506040513d601f19601f820116820180604052508101906149149190615754565b60fd5460fc54604051633920455b60e11b81529293506001600160a01b03918216926372408ab6928592614955929116908a908a908a908a90600401615f21565b6000604051808303818588803b15801561496e57600080fd5b505af1158015614982573d6000803e3d6000fd5b50505050505050505050565b606061294884846000856149c1565b60008060006149ac8585614a9c565b915091506149b981614ae1565b509392505050565b606082471015614a225760405162461bcd60e51b815260206004820152602660248201527f416464726573733a20696e73756666696369656e742062616c616e636520666f6044820152651c8818d85b1b60d21b6064820152608401610b84565b600080866001600160a01b03168587604051614a3e91906158ff565b60006040518083038185875af1925050503d8060008114614a7b576040519150601f19603f3d011682016040523d82523d6000602084013e614a80565b606091505b5091509150614a9187838387614c26565b979650505050505050565b6000808251604103614ad25760208301516040840151606085015160001a614ac687828585614c9d565b94509450505050614ada565b506000905060025b9250929050565b6000816004811115614af557614af561576d565b03614afd5750565b6001816004811115614b1157614b1161576d565b03614b595760405162461bcd60e51b815260206004820152601860248201527745434453413a20696e76616c6964207369676e617475726560401b6044820152606401610b84565b6002816004811115614b6d57614b6d61576d565b03614bba5760405162461bcd60e51b815260206004820152601f60248201527f45434453413a20696e76616c6964207369676e6174757265206c656e677468006044820152606401610b84565b6003816004811115614bce57614bce61576d565b036112635760405162461bcd60e51b815260206004820152602260248201527f45434453413a20696e76616c6964207369676e6174757265202773272076616c604482015261756560f01b6064820152608401610b84565b60608315614c93578251600003614c8c57614c4085612c14565b614c8c5760405162461bcd60e51b815260206004820152601d60248201527f416464726573733a2063616c6c20746f206e6f6e2d636f6e74726163740000006044820152606401610b84565b5081612948565b6129488383614d54565b6000806fa2a8918ca85bafe22016d0b997e4df60600160ff1b03831115614cca5750600090506003613a05565b6040805160008082526020820180845289905260ff881692820192909252606081018690526080810185905260019060a0016020604051602081039080840390855afa158015614d1e573d6000803e3d6000fd5b5050604051601f1901519150506001600160a01b038116614d4757600060019250925050613a05565b9660009650945050505050565b815115614d645781518083602001fd5b8060405162461bcd60e51b8152600401610b849190614f30565b803561ffff81168114614d9057600080fd5b919050565b60008083601f840112614da757600080fd5b5081356001600160401b03811115614dbe57600080fd5b602083019150836020828501011115614ada57600080fd5b80356001600160401b0381168114614d9057600080fd5b60008060008060008060808789031215614e0657600080fd5b614e0f87614d7e565b955060208701356001600160401b0380821115614e2b57600080fd5b614e378a838b01614d95565b9097509550859150614e4b60408a01614dd6565b94506060890135915080821115614e6157600080fd5b50614e6e89828a01614d95565b979a9699509497509295939492505050565b6001600160a01b038116811461126357600080fd5b60008060408385031215614ea857600080fd5b614eb183614d7e565b91506020830135614ec181614e80565b809150509250929050565b6001600160a01b0391909116815260200190565b60005b83811015614efb578181015183820152602001614ee3565b50506000910152565b60008151808452614f1c816020860160208601614ee0565b601f01601f19169290920160200192915050565b602081526000610c176020830184614f04565b600060208284031215614f5557600080fd5b610c1782614d7e565b60008060408385031215614f7157600080fd5b8235614f7c81614e80565b946020939093013593505050565b600080600060608486031215614f9f57600080fd5b614fa884614d7e565b92506020840135614fb881614e80565b929592945050506040919091013590565b60008060408385031215614fdc57600080fd5b614f7c83614d7e565b600080600080600060a08688031215614ffd57600080fd5b853561500881614e80565b9450602086013561501881614e80565b9350604086013561502881614e80565b9250606086013561503881614e80565b9150608086013561504881614e80565b809150509295509295909350565b801515811461126357600080fd5b60006020828403121561507657600080fd5b8135610c1781615056565b60008060006060848603121561509657600080fd5b8335614fa881614e80565b6000806000604084860312156150b657600080fd5b6150bf84614d7e565b925060208401356001600160401b038111156150da57600080fd5b6150e686828701614d95565b9497909650939450505050565b600080600080600060a0868803121561510b57600080fd5b61511486614d7e565b9450602086013561512481614e80565b93506040860135925060608601359150608086013561504881614e80565b634e487b7160e01b600052604160045260246000fd5b60405161016081016001600160401b038111828210171561517b5761517b615142565b60405290565b604051601f8201601f191681016001600160401b03811182821017156151a9576151a9615142565b604052919050565b60006001600160401b038211156151ca576151ca615142565b50601f01601f191660200190565b600082601f8301126151e957600080fd5b81356151fc6151f7826151b1565b615181565b81815284602083860101111561521157600080fd5b816020850160208301376000918101602001919091529392505050565b60008060006060848603121561524357600080fd5b61524c84614d7e565b925060208401356001600160401b0381111561526757600080fd5b615273868287016151d8565b92505061528260408501614dd6565b90509250925092565b6000806040838503121561529e57600080fd5b823591506020830135614ec181614e80565b6000602082840312156152c257600080fd5b8135610c1781614e80565b600080604083850312156152e057600080fd5b6152e983614d7e565b91506152f760208401614d7e565b90509250929050565b60008060006060848603121561531557600080fd5b61531e84614d7e565b9250602084013561532e81614e80565b9150604084013561533e81614e80565b809150509250925092565b60008060008060008060c0878903121561536257600080fd5b61536b87614d7e565b955060208701356001600160401b038082111561538757600080fd5b6153938a838b016151d8565b965060408901359550606089013591506153ac82614e80565b9093506080880135925060a088013590808211156153c957600080fd5b506153d689828a016151d8565b9150509295509295509295565b6000806000806000608086880312156153fb57600080fd5b61540486614d7e565b945061541260208701614d7e565b93506040860135925060608601356001600160401b0381111561543457600080fd5b61544088828901614d95565b969995985093965092949392505050565b6000806040838503121561546457600080fd5b8235614eb181614e80565b60008060006060848603121561548457600080fd5b61548d84614d7e565b925061549b60208501614d7e565b9150604084013590509250925092565b6000806000606084860312156154c057600080fd5b833592506020840135614fb881614e80565b600080600080608085870312156154e857600080fd5b6154f185614d7e565b93506154ff60208601614d7e565b9250604085013561550f81614e80565b9396929550929360600135925050565b634e487b7160e01b600052601160045260246000fd5b80820180821115610c1a57610c1a61551f565b600181811c9082168061555c57607f821691505b60208210810361557c57634e487b7160e01b600052602260045260246000fd5b50919050565b602080825260029082015261563160f01b604082015260600190565b81810381811115610c1a57610c1a61551f565b6001600160a01b03929092168252602082015260400190565b6000602082840312156155dc57600080fd5b8151610c1781615056565b6000602082840312156155f957600080fd5b815160ff81168114610c1757600080fd5b8183823760009101908152919050565b81835281816020850137506000828201602090810191909152601f909101601f19169091010190565b61ffff8416815260406020820152600061294560408301848661561a565b600181815b8085111561569c5781600019048211156156825761568261551f565b8085161561568f57918102915b93841c9390800290615666565b509250929050565b6000826156b357506001610c1a565b816156c057506000610c1a565b81600181146156d657600281146156e0576156fc565b6001915050610c1a565b60ff8411156156f1576156f161551f565b50506001821b610c1a565b5060208310610133831016604e8410600b841016171561571f575081810a610c1a565b6157298383615661565b806000190482111561573d5761573d61551f565b029392505050565b6000610c1760ff8416836156a4565b60006020828403121561576657600080fd5b5051919050565b634e487b7160e01b600052602160045260246000fd5b600581106157a157634e487b7160e01b600052602160045260246000fd5b9052565b604081016157b38285615783565b91516001600160a01b031660209190910152919050565b8284823760609190911b6001600160601b0319169101908152601401919050565b601f8211156124ba57600081815260208120601f850160051c810160208610156158125750805b601f850160051c820191505b81811015610c035782815560010161581e565b600019600383901b1c191660019190911b1790565b81516001600160401b0381111561585f5761585f615142565b6158738161586d8454615548565b846157eb565b602080601f8311600181146158a257600084156158905750858301515b61589a8582615831565b865550610c03565b600085815260208120601f198616915b828110156158d1578886015182559484019460019091019084016158b2565b50858210156158ef5787850151600019600388901b60f8161c191681555b5050505050600190811b01905550565b60008251615911818460208701614ee0565b9190910192915050565b805160208201516001600160601b0319808216929190601483101561594a5780818460140360031b1b83161693505b505050919050565b600061ffff808816835280871660208401525084604083015260806060830152614a9160808301848661561a565b61ffff8616815260806020820152600061599e60808301868861561a565b6001600160401b0394909416604083015250606001529392505050565b6001600160401b038311156159d2576159d2615142565b6159e6836159e08354615548565b836157eb565b6000601f841160018114615a145760008515615a025750838201355b615a0c8682615831565b845550610d34565b600083815260209020601f19861690835b82811015615a455786850135825560209485019460019092019101615a25565b5086821015615a625760001960f88860031b161c19848701351681555b505060018560011b0183555050505050565b634e487b7160e01b600052603260045260246000fd5b600060018201615a9c57615a9c61551f565b5060010190565b60608101615ab18285615783565b82516020830152602083015160408301529392505050565b600082601f830112615ada57600080fd5b8151615ae86151f7826151b1565b818152846020838601011115615afd57600080fd5b612948826020830160208701614ee0565b600060208284031215615b2057600080fd5b81516001600160401b03811115615b3657600080fd5b61294884828501615ac9565b61ffff85168152608060208201526000615b5f6080830186614f04565b6001600160401b03851660408401528281036060840152614a918185614f04565b8082028115828204841417610c1a57610c1a61551f565b600082615bb457634e487b7160e01b600052601260045260246000fd5b500490565b6020808252602b908201527f496e697469616c697a61626c653a20636f6e7472616374206973206e6f74206960408201526a6e697469616c697a696e6760a81b606082015260800190565b61ffff861681526001600160a01b038516602082015260a060408201819052600090615c3290830186614f04565b84151560608401528281036080840152615c4c8185614f04565b98975050505050505050565b60008060408385031215615c6b57600080fd5b505080516020909101519092909150565b61ffff8716815260c060208201526000615c9960c0830188614f04565b8281036040840152615cab8188614f04565b6001600160a01b0387811660608601528616608085015283810360a08501529050615cd68185614f04565b9998505050505050505050565b600060208284031215615cf557600080fd5b815160058110610c1757600080fd5b8051614d9081614e80565b60008060408385031215615d2257600080fd5b825160208401519092506001600160401b0380821115615d4157600080fd5b908401906101608287031215615d5657600080fd5b615d5e615158565b615d6783615d04565b81526020830151602082015260408301516040820152606083015160608201526080830151608082015260a083015160a082015260c083015160c082015260e083015160e08201526101008084015181830152506101208084015181830152506101408084015183811115615ddb57600080fd5b615de789828701615ac9565b8284015250508093505050509250929050565b60008082840360a0811215615e0e57600080fd5b835192506080601f1982011215615e2457600080fd5b50604051608081016001600160401b0381118282101715615e4757615e47615142565b6040526020840151615e5881614e80565b80825250604084015160208201526060840151604082015260808401516060820152809150509250929050565b61ffff8616815260a060208201526000615ea260a0830187614f04565b6001600160401b03861660408401528281036060840152615ec38186614f04565b90508281036080840152615c4c8185614f04565b60408101615ee58285615783565b825160208301529392505050565b61ffff841681526001600160a01b038316602082015260606040820181905260009061294590830184614f04565b6001600160a01b0386811682526020820186905261ffff851660408301528316606082015260a060808201819052600090614a9190830184614f0456feddf252ad1be2c89b69c2b068fc378daa952ba7f163c4a11628f55a4df523b3efa26469706673582212203f263fbef4735edb5be2a0b3c2e1861f25dcc700b3ea005768f9c3005c13d96b64736f6c63430008130033",
  "linkReferences": {},
  "deployedLinkReferences": {}
}