{
  "_format": "hh-sol-artifact-1",
  "contractName": "Vault",
  "sourceName": "contracts/Vault.sol",
  "abi": [
    {
      "inputs": [
        {
          "internalType": "uint256",
          "name": "amount",
          "type": "uint256"
        },
        {
          "internalType": "uint256",
          "name": "balance",
          "type": "uint256"
        }
      ],
      "name": "InsufficientFunds",
      "type": "error"
    },
    {
      "inputs": [],
      "name": "Vault__V1",
      "type": "error"
    },
    {
      "inputs": [],
      "name": "Vault__V10",
      "type": "error"
    },
    {
      "inputs": [],
      "name": "Vault__V11",
      "type": "error"
    },
    {
      "inputs": [],
      "name": "Vault__V12",
      "type": "error"
    },
    {
      "inputs": [],
      "name": "Vault__V13",
      "type": "error"
    },
    {
      "inputs": [],
      "name": "Vault__V14",
      "type": "error"
    },
    {
      "inputs": [],
      "name": "Vault__V15",
      "type": "error"
    },
    {
      "inputs": [],
      "name": "Vault__V16",
      "type": "error"
    },
    {
      "inputs": [],
      "name": "Vault__V17",
      "type": "error"
    },
    {
      "inputs": [],
      "name": "Vault__V2",
      "type": "error"
    },
    {
      "inputs": [],
      "name": "Vault__V3",
      "type": "error"
    },
    {
      "inputs": [],
      "name": "Vault__V4",
      "type": "error"
    },
    {
      "inputs": [],
      "name": "Vault__V5",
      "type": "error"
    },
    {
      "inputs": [],
      "name": "Vault__V6",
      "type": "error"
    },
    {
      "inputs": [],
      "name": "Vault__V7",
      "type": "error"
    },
    {
      "inputs": [],
      "name": "Vault__V8",
      "type": "error"
    },
    {
      "inputs": [],
      "name": "Vault__V9",
      "type": "error"
    },
    {
      "anonymous": false,
      "inputs": [
        {
          "indexed": true,
          "internalType": "address",
          "name": "owner",
          "type": "address"
        },
        {
          "indexed": true,
          "internalType": "address",
          "name": "spender",
          "type": "address"
        },
        {
          "indexed": false,
          "internalType": "uint256",
          "name": "value",
          "type": "uint256"
        }
      ],
      "name": "Approval",
      "type": "event"
    },
    {
      "anonymous": false,
      "inputs": [
        {
          "indexed": false,
          "internalType": "uint256",
          "name": "epochId",
          "type": "uint256"
        },
        {
          "indexed": false,
          "internalType": "uint256",
          "name": "requestCount",
          "type": "uint256"
        }
      ],
      "name": "FulfilledWithdrawEpoch",
      "type": "event"
    },
    {
      "anonymous": false,
      "inputs": [
        {
          "indexed": false,
          "internalType": "uint8",
          "name": "version",
          "type": "uint8"
        }
      ],
      "name": "Initialized",
      "type": "event"
    },
    {
      "anonymous": false,
      "inputs": [
        {
          "indexed": false,
          "internalType": "uint16",
          "name": "_srcChainId",
          "type": "uint16"
        },
        {
          "indexed": false,
          "internalType": "bytes",
          "name": "_srcAddress",
          "type": "bytes"
        },
        {
          "indexed": false,
          "internalType": "uint64",
          "name": "_nonce",
          "type": "uint64"
        },
        {
          "indexed": false,
          "internalType": "bytes",
          "name": "_payload",
          "type": "bytes"
        },
        {
          "indexed": false,
          "internalType": "bytes",
          "name": "_reason",
          "type": "bytes"
        }
      ],
      "name": "MessageFailed",
      "type": "event"
    },
    {
      "anonymous": false,
      "inputs": [
        {
          "indexed": true,
          "internalType": "address",
          "name": "previousOwner",
          "type": "address"
        },
        {
          "indexed": true,
          "internalType": "address",
          "name": "newOwner",
          "type": "address"
        }
      ],
      "name": "OwnershipTransferred",
      "type": "event"
    },
    {
      "anonymous": false,
      "inputs": [
        {
          "indexed": false,
          "internalType": "uint16",
          "name": "_srcChainId",
          "type": "uint16"
        },
        {
          "indexed": false,
          "internalType": "bytes",
          "name": "_srcAddress",
          "type": "bytes"
        },
        {
          "indexed": false,
          "internalType": "uint64",
          "name": "_nonce",
          "type": "uint64"
        },
        {
          "indexed": false,
          "internalType": "bytes32",
          "name": "_payloadHash",
          "type": "bytes32"
        }
      ],
      "name": "RetryMessageSuccess",
      "type": "event"
    },
    {
      "anonymous": false,
      "inputs": [
        {
          "indexed": false,
          "internalType": "uint16",
          "name": "_dstChainId",
          "type": "uint16"
        },
        {
          "indexed": false,
          "internalType": "uint16",
          "name": "_type",
          "type": "uint16"
        },
        {
          "indexed": false,
          "internalType": "uint256",
          "name": "_minDstGas",
          "type": "uint256"
        }
      ],
      "name": "SetMinDstGas",
      "type": "event"
    },
    {
      "anonymous": false,
      "inputs": [
        {
          "indexed": false,
          "internalType": "address",
          "name": "precrime",
          "type": "address"
        }
      ],
      "name": "SetPrecrime",
      "type": "event"
    },
    {
      "anonymous": false,
      "inputs": [
        {
          "indexed": false,
          "internalType": "uint16",
          "name": "_remoteChainId",
          "type": "uint16"
        },
        {
          "indexed": false,
          "internalType": "bytes",
          "name": "_path",
          "type": "bytes"
        }
      ],
      "name": "SetTrustedRemote",
      "type": "event"
    },
    {
      "anonymous": false,
      "inputs": [
        {
          "indexed": false,
          "internalType": "uint16",
          "name": "_remoteChainId",
          "type": "uint16"
        },
        {
          "indexed": false,
          "internalType": "bytes",
          "name": "_remoteAddress",
          "type": "bytes"
        }
      ],
      "name": "SetTrustedRemoteAddress",
      "type": "event"
    },
    {
      "anonymous": false,
      "inputs": [
        {
          "indexed": true,
          "internalType": "address",
          "name": "token",
          "type": "address"
        },
        {
          "indexed": false,
          "internalType": "uint256",
          "name": "amount",
          "type": "uint256"
        },
        {
          "indexed": false,
          "internalType": "address",
          "name": "sender",
          "type": "address"
        }
      ],
      "name": "SgReceived",
      "type": "event"
    },
    {
      "anonymous": false,
      "inputs": [
        {
          "indexed": false,
          "internalType": "uint16",
          "name": "chainId",
          "type": "uint16"
        },
        {
          "indexed": false,
          "internalType": "address",
          "name": "strategy",
          "type": "address"
        },
        {
          "indexed": false,
          "internalType": "uint256",
          "name": "gain",
          "type": "uint256"
        },
        {
          "indexed": false,
          "internalType": "uint256",
          "name": "loss",
          "type": "uint256"
        },
        {
          "indexed": false,
          "internalType": "uint256",
          "name": "debtPaid",
          "type": "uint256"
        },
        {
          "indexed": false,
          "internalType": "uint256",
          "name": "totalGain",
          "type": "uint256"
        },
        {
          "indexed": false,
          "internalType": "uint256",
          "name": "totalLoss",
          "type": "uint256"
        },
        {
          "indexed": false,
          "internalType": "uint256",
          "name": "totalDebt",
          "type": "uint256"
        },
        {
          "indexed": false,
          "internalType": "uint256",
          "name": "debtAdded",
          "type": "uint256"
        },
        {
          "indexed": false,
          "internalType": "uint256",
          "name": "debtRatio",
          "type": "uint256"
        },
        {
          "indexed": false,
          "internalType": "uint256",
          "name": "tokens",
          "type": "uint256"
        }
      ],
      "name": "StrategyReported",
      "type": "event"
    },
    {
      "anonymous": false,
      "inputs": [
        {
          "indexed": true,
          "internalType": "uint16",
          "name": "chainId",
          "type": "uint16"
        },
        {
          "indexed": true,
          "internalType": "address",
          "name": "strategy",
          "type": "address"
        },
        {
          "indexed": false,
          "internalType": "uint256",
          "name": "amount",
          "type": "uint256"
        },
        {
          "indexed": false,
          "internalType": "uint256",
          "name": "loss",
          "type": "uint256"
        },
        {
          "indexed": false,
          "internalType": "uint256",
          "name": "id",
          "type": "uint256"
        }
      ],
      "name": "StrategyWithdrawnSome",
      "type": "event"
    },
    {
      "anonymous": false,
      "inputs": [
        {
          "indexed": true,
          "internalType": "address",
          "name": "from",
          "type": "address"
        },
        {
          "indexed": true,
          "internalType": "address",
          "name": "to",
          "type": "address"
        },
        {
          "indexed": false,
          "internalType": "uint256",
          "name": "value",
          "type": "uint256"
        }
      ],
      "name": "Transfer",
      "type": "event"
    },
    {
      "inputs": [],
      "name": "DEFAULT_PAYLOAD_SIZE_LIMIT",
      "outputs": [
        {
          "internalType": "uint256",
          "name": "",
          "type": "uint256"
        }
      ],
      "stateMutability": "view",
      "type": "function"
    },
    {
      "inputs": [
        {
          "internalType": "uint16",
          "name": "_chainId",
          "type": "uint16"
        },
        {
          "internalType": "address",
          "name": "_strategy",
          "type": "address"
        },
        {
          "internalType": "uint256",
          "name": "_debtRatio",
          "type": "uint256"
        },
        {
          "internalType": "uint256",
          "name": "_performanceFee",
          "type": "uint256"
        },
        {
          "internalType": "address",
          "name": "_strategist",
          "type": "address"
        }
      ],
      "name": "addStrategy",
      "outputs": [],
      "stateMutability": "nonpayable",
      "type": "function"
    },
    {
      "inputs": [
        {
          "internalType": "address",
          "name": "owner",
          "type": "address"
        },
        {
          "internalType": "address",
          "name": "spender",
          "type": "address"
        }
      ],
      "name": "allowance",
      "outputs": [
        {
          "internalType": "uint256",
          "name": "",
          "type": "uint256"
        }
      ],
      "stateMutability": "view",
      "type": "function"
    },
    {
      "inputs": [
        {
          "internalType": "address",
          "name": "spender",
          "type": "address"
        },
        {
          "internalType": "uint256",
          "name": "amount",
          "type": "uint256"
        }
      ],
      "name": "approve",
      "outputs": [
        {
          "internalType": "bool",
          "name": "",
          "type": "bool"
        }
      ],
      "stateMutability": "nonpayable",
      "type": "function"
    },
    {
      "inputs": [
        {
          "internalType": "address",
          "name": "account",
          "type": "address"
        }
      ],
      "name": "balanceOf",
      "outputs": [
        {
          "internalType": "uint256",
          "name": "",
          "type": "uint256"
        }
      ],
      "stateMutability": "view",
      "type": "function"
    },
    {
      "inputs": [
        {
          "internalType": "uint16",
          "name": "_chainId",
          "type": "uint16"
        },
        {
          "internalType": "address",
          "name": "_strategy",
          "type": "address"
        }
      ],
      "name": "creditAvailable",
      "outputs": [
        {
          "internalType": "uint256",
          "name": "",
          "type": "uint256"
        }
      ],
      "stateMutability": "view",
      "type": "function"
    },
    {
      "inputs": [
        {
          "internalType": "uint16",
          "name": "_chainId",
          "type": "uint16"
        },
        {
          "internalType": "address",
          "name": "_strategy",
          "type": "address"
        }
      ],
      "name": "debtOutstanding",
      "outputs": [
        {
          "internalType": "uint256",
          "name": "",
          "type": "uint256"
        }
      ],
      "stateMutability": "view",
      "type": "function"
    },
    {
      "inputs": [],
      "name": "decimals",
      "outputs": [
        {
          "internalType": "uint8",
          "name": "",
          "type": "uint8"
        }
      ],
      "stateMutability": "view",
      "type": "function"
    },
    {
      "inputs": [
        {
          "internalType": "address",
          "name": "spender",
          "type": "address"
        },
        {
          "internalType": "uint256",
          "name": "subtractedValue",
          "type": "uint256"
        }
      ],
      "name": "decreaseAllowance",
      "outputs": [
        {
          "internalType": "bool",
          "name": "",
          "type": "bool"
        }
      ],
      "stateMutability": "nonpayable",
      "type": "function"
    },
    {
      "inputs": [
        {
          "internalType": "uint256",
          "name": "_amount",
          "type": "uint256"
        },
        {
          "internalType": "address",
          "name": "_recipient",
          "type": "address"
        }
      ],
      "name": "deposit",
      "outputs": [
        {
          "internalType": "uint256",
          "name": "",
          "type": "uint256"
        }
      ],
      "stateMutability": "nonpayable",
      "type": "function"
    },
    {
      "inputs": [],
      "name": "emergencyShutdown",
      "outputs": [
        {
          "internalType": "bool",
          "name": "",
          "type": "bool"
        }
      ],
      "stateMutability": "view",
      "type": "function"
    },
    {
      "inputs": [
        {
          "internalType": "uint16",
          "name": "",
          "type": "uint16"
        },
        {
          "internalType": "bytes",
          "name": "",
          "type": "bytes"
        },
        {
          "internalType": "uint64",
          "name": "",
          "type": "uint64"
        }
      ],
      "name": "failedMessages",
      "outputs": [
        {
          "internalType": "bytes32",
          "name": "",
          "type": "bytes32"
        }
      ],
      "stateMutability": "view",
      "type": "function"
    },
    {
      "inputs": [
        {
          "internalType": "uint16",
          "name": "_srcChainId",
          "type": "uint16"
        },
        {
          "internalType": "bytes",
          "name": "_srcAddress",
          "type": "bytes"
        }
      ],
      "name": "forceResumeReceive",
      "outputs": [],
      "stateMutability": "nonpayable",
      "type": "function"
    },
    {
      "inputs": [
        {
          "internalType": "uint16",
          "name": "_version",
          "type": "uint16"
        },
        {
          "internalType": "uint16",
          "name": "_chainId",
          "type": "uint16"
        },
        {
          "internalType": "address",
          "name": "",
          "type": "address"
        },
        {
          "internalType": "uint256",
          "name": "_configType",
          "type": "uint256"
        }
      ],
      "name": "getConfig",
      "outputs": [
        {
          "internalType": "bytes",
          "name": "",
          "type": "bytes"
        }
      ],
      "stateMutability": "view",
      "type": "function"
    },
    {
      "inputs": [
        {
          "internalType": "uint16",
          "name": "_remoteChainId",
          "type": "uint16"
        }
      ],
      "name": "getTrustedRemoteAddress",
      "outputs": [
        {
          "internalType": "bytes",
          "name": "",
          "type": "bytes"
        }
      ],
      "stateMutability": "view",
      "type": "function"
    },
    {
      "inputs": [],
      "name": "governance",
      "outputs": [
        {
          "internalType": "address",
          "name": "",
          "type": "address"
        }
      ],
      "stateMutability": "view",
      "type": "function"
    },
    {
      "inputs": [],
      "name": "handleWithdrawals",
      "outputs": [],
      "stateMutability": "nonpayable",
      "type": "function"
    },
    {
      "inputs": [
        {
          "internalType": "address",
          "name": "spender",
          "type": "address"
        },
        {
          "internalType": "uint256",
          "name": "addedValue",
          "type": "uint256"
        }
      ],
      "name": "increaseAllowance",
      "outputs": [
        {
          "internalType": "bool",
          "name": "",
          "type": "bool"
        }
      ],
      "stateMutability": "nonpayable",
      "type": "function"
    },
    {
      "inputs": [
        {
          "internalType": "address",
          "name": "_governance",
          "type": "address"
        },
        {
          "internalType": "address",
          "name": "_lzEndpoint",
          "type": "address"
        },
        {
          "internalType": "contract IERC20",
          "name": "_token",
          "type": "address"
        },
        {
          "internalType": "address",
          "name": "_sgBridge",
          "type": "address"
        },
        {
          "internalType": "address",
          "name": "_sgRouter",
          "type": "address"
        }
      ],
      "name": "initialize",
      "outputs": [],
      "stateMutability": "nonpayable",
      "type": "function"
    },
    {
      "inputs": [
        {
          "internalType": "uint16",
          "name": "_srcChainId",
          "type": "uint16"
        },
        {
          "internalType": "bytes",
          "name": "_srcAddress",
          "type": "bytes"
        }
      ],
      "name": "isTrustedRemote",
      "outputs": [
        {
          "internalType": "bool",
          "name": "",
          "type": "bool"
        }
      ],
      "stateMutability": "view",
      "type": "function"
    },
    {
      "inputs": [],
      "name": "lzEndpoint",
      "outputs": [
        {
          "internalType": "contract ILayerZeroEndpointUpgradeable",
          "name": "",
          "type": "address"
        }
      ],
      "stateMutability": "view",
      "type": "function"
    },
    {
      "inputs": [
        {
          "internalType": "uint16",
          "name": "_srcChainId",
          "type": "uint16"
        },
        {
          "internalType": "bytes",
          "name": "_srcAddress",
          "type": "bytes"
        },
        {
          "internalType": "uint64",
          "name": "_nonce",
          "type": "uint64"
        },
        {
          "internalType": "bytes",
          "name": "_payload",
          "type": "bytes"
        }
      ],
      "name": "lzReceive",
      "outputs": [],
      "stateMutability": "nonpayable",
      "type": "function"
    },
    {
      "inputs": [
        {
          "internalType": "uint16",
          "name": "_chainId",
          "type": "uint16"
        },
        {
          "internalType": "address",
          "name": "_oldStrategy",
          "type": "address"
        },
        {
          "internalType": "address",
          "name": "_newStrategy",
          "type": "address"
        }
      ],
      "name": "migrateStrategy",
      "outputs": [],
      "stateMutability": "nonpayable",
      "type": "function"
    },
    {
      "inputs": [
        {
          "internalType": "uint16",
          "name": "",
          "type": "uint16"
        },
        {
          "internalType": "uint16",
          "name": "",
          "type": "uint16"
        }
      ],
      "name": "minDstGasLookup",
      "outputs": [
        {
          "internalType": "uint256",
          "name": "",
          "type": "uint256"
        }
      ],
      "stateMutability": "view",
      "type": "function"
    },
    {
      "inputs": [],
      "name": "name",
      "outputs": [
        {
          "internalType": "string",
          "name": "",
          "type": "string"
        }
      ],
      "stateMutability": "view",
      "type": "function"
    },
    {
      "inputs": [
        {
          "internalType": "uint16",
          "name": "_srcChainId",
          "type": "uint16"
        },
        {
          "internalType": "bytes",
          "name": "_srcAddress",
          "type": "bytes"
        },
        {
          "internalType": "uint64",
          "name": "_nonce",
          "type": "uint64"
        },
        {
          "internalType": "bytes",
          "name": "_payload",
          "type": "bytes"
        }
      ],
      "name": "nonblockingLzReceive",
      "outputs": [],
      "stateMutability": "nonpayable",
      "type": "function"
    },
    {
      "inputs": [],
      "name": "owner",
      "outputs": [
        {
          "internalType": "address",
          "name": "",
          "type": "address"
        }
      ],
      "stateMutability": "view",
      "type": "function"
    },
    {
      "inputs": [
        {
          "internalType": "uint16",
          "name": "",
          "type": "uint16"
        }
      ],
      "name": "payloadSizeLimitLookup",
      "outputs": [
        {
          "internalType": "uint256",
          "name": "",
          "type": "uint256"
        }
      ],
      "stateMutability": "view",
      "type": "function"
    },
    {
      "inputs": [],
      "name": "precrime",
      "outputs": [
        {
          "internalType": "address",
          "name": "",
          "type": "address"
        }
      ],
      "stateMutability": "view",
      "type": "function"
    },
    {
      "inputs": [],
      "name": "pricePerShare",
      "outputs": [
        {
          "internalType": "uint256",
          "name": "",
          "type": "uint256"
        }
      ],
      "stateMutability": "view",
      "type": "function"
    },
    {
      "inputs": [],
      "name": "renounceOwnership",
      "outputs": [],
      "stateMutability": "nonpayable",
      "type": "function"
    },
    {
      "inputs": [
        {
          "internalType": "uint16",
          "name": "_srcChainId",
          "type": "uint16"
        },
        {
          "internalType": "bytes",
          "name": "_srcAddress",
          "type": "bytes"
        },
        {
          "internalType": "uint64",
          "name": "_nonce",
          "type": "uint64"
        },
        {
          "internalType": "bytes",
          "name": "_payload",
          "type": "bytes"
        }
      ],
      "name": "retryMessage",
      "outputs": [],
      "stateMutability": "payable",
      "type": "function"
    },
    {
      "inputs": [],
      "name": "revokeFunds",
      "outputs": [],
      "stateMutability": "nonpayable",
      "type": "function"
    },
    {
      "inputs": [
        {
          "internalType": "uint16",
          "name": "_chainId",
          "type": "uint16"
        },
        {
          "internalType": "address",
          "name": "_strategy",
          "type": "address"
        }
      ],
      "name": "revokeStrategy",
      "outputs": [],
      "stateMutability": "nonpayable",
      "type": "function"
    },
    {
      "inputs": [
        {
          "internalType": "uint16",
          "name": "_version",
          "type": "uint16"
        },
        {
          "internalType": "uint16",
          "name": "_chainId",
          "type": "uint16"
        },
        {
          "internalType": "uint256",
          "name": "_configType",
          "type": "uint256"
        },
        {
          "internalType": "bytes",
          "name": "_config",
          "type": "bytes"
        }
      ],
      "name": "setConfig",
      "outputs": [],
      "stateMutability": "nonpayable",
      "type": "function"
    },
    {
      "inputs": [
        {
          "internalType": "bool",
          "name": "_emergencyShutdown",
          "type": "bool"
        }
      ],
      "name": "setEmergencyShutdown",
      "outputs": [],
      "stateMutability": "nonpayable",
      "type": "function"
    },
    {
      "inputs": [
        {
          "internalType": "address",
          "name": "_newGovernance",
          "type": "address"
        }
      ],
      "name": "setGovernance",
      "outputs": [],
      "stateMutability": "nonpayable",
      "type": "function"
    },
    {
      "inputs": [
        {
          "internalType": "uint16",
          "name": "_dstChainId",
          "type": "uint16"
        },
        {
          "internalType": "uint16",
          "name": "_packetType",
          "type": "uint16"
        },
        {
          "internalType": "uint256",
          "name": "_minGas",
          "type": "uint256"
        }
      ],
      "name": "setMinDstGas",
      "outputs": [],
      "stateMutability": "nonpayable",
      "type": "function"
    },
    {
      "inputs": [
        {
          "internalType": "uint16",
          "name": "_dstChainId",
          "type": "uint16"
        },
        {
          "internalType": "uint256",
          "name": "_size",
          "type": "uint256"
        }
      ],
      "name": "setPayloadSizeLimit",
      "outputs": [],
      "stateMutability": "nonpayable",
      "type": "function"
    },
    {
      "inputs": [
        {
          "internalType": "address",
          "name": "_precrime",
          "type": "address"
        }
      ],
      "name": "setPrecrime",
      "outputs": [],
      "stateMutability": "nonpayable",
      "type": "function"
    },
    {
      "inputs": [
        {
          "internalType": "uint16",
          "name": "_version",
          "type": "uint16"
        }
      ],
      "name": "setReceiveVersion",
      "outputs": [],
      "stateMutability": "nonpayable",
      "type": "function"
    },
    {
      "inputs": [
        {
          "internalType": "uint16",
          "name": "_version",
          "type": "uint16"
        }
      ],
      "name": "setSendVersion",
      "outputs": [],
      "stateMutability": "nonpayable",
      "type": "function"
    },
    {
      "inputs": [
        {
          "internalType": "uint16",
          "name": "_chainId",
          "type": "uint16"
        },
        {
          "internalType": "address",
          "name": "_strategy",
          "type": "address"
        },
        {
          "internalType": "address",
          "name": "_newStrategist",
          "type": "address"
        }
      ],
      "name": "setStrategist",
      "outputs": [],
      "stateMutability": "nonpayable",
      "type": "function"
    },
    {
      "inputs": [
        {
          "internalType": "uint16",
          "name": "_srcChainId",
          "type": "uint16"
        },
        {
          "internalType": "bytes",
          "name": "_path",
          "type": "bytes"
        }
      ],
      "name": "setTrustedRemote",
      "outputs": [],
      "stateMutability": "nonpayable",
      "type": "function"
    },
    {
      "inputs": [
        {
          "internalType": "uint16",
          "name": "_remoteChainId",
          "type": "uint16"
        },
        {
          "internalType": "bytes",
          "name": "_remoteAddress",
          "type": "bytes"
        }
      ],
      "name": "setTrustedRemoteAddress",
      "outputs": [],
      "stateMutability": "nonpayable",
      "type": "function"
    },
    {
      "inputs": [],
      "name": "sgBridge",
      "outputs": [
        {
          "internalType": "contract ISgBridge",
          "name": "",
          "type": "address"
        }
      ],
      "stateMutability": "view",
      "type": "function"
    },
    {
      "inputs": [
        {
          "internalType": "uint16",
          "name": "_srcChainId",
          "type": "uint16"
        },
        {
          "internalType": "bytes",
          "name": "_srcAddress",
          "type": "bytes"
        },
        {
          "internalType": "uint256",
          "name": "",
          "type": "uint256"
        },
        {
          "internalType": "address",
          "name": "_token",
          "type": "address"
        },
        {
          "internalType": "uint256",
          "name": "_amountLD",
          "type": "uint256"
        },
        {
          "internalType": "bytes",
          "name": "_payload",
          "type": "bytes"
        }
      ],
      "name": "sgReceive",
      "outputs": [],
      "stateMutability": "nonpayable",
      "type": "function"
    },
    {
      "inputs": [],
      "name": "sgRouter",
      "outputs": [
        {
          "internalType": "address",
          "name": "",
          "type": "address"
        }
      ],
      "stateMutability": "view",
      "type": "function"
    },
    {
      "inputs": [
        {
          "internalType": "uint16",
          "name": "",
          "type": "uint16"
        },
        {
          "internalType": "address",
          "name": "",
          "type": "address"
        }
      ],
      "name": "strategies",
      "outputs": [
        {
          "internalType": "uint256",
          "name": "activation",
          "type": "uint256"
        },
        {
          "internalType": "uint256",
          "name": "debtRatio",
          "type": "uint256"
        },
        {
          "internalType": "uint256",
          "name": "totalDebt",
          "type": "uint256"
        },
        {
          "internalType": "uint256",
          "name": "totalGain",
          "type": "uint256"
        },
        {
          "internalType": "uint256",
          "name": "totalLoss",
          "type": "uint256"
        },
        {
          "internalType": "uint256",
          "name": "lastReport",
          "type": "uint256"
        },
        {
          "internalType": "uint256",
          "name": "performanceFee",
          "type": "uint256"
        },
        {
          "internalType": "address",
          "name": "strategist",
          "type": "address"
        }
      ],
      "stateMutability": "view",
      "type": "function"
    },
    {
      "inputs": [],
      "name": "symbol",
      "outputs": [
        {
          "internalType": "string",
          "name": "",
          "type": "string"
        }
      ],
      "stateMutability": "view",
      "type": "function"
    },
    {
      "inputs": [],
      "name": "token",
      "outputs": [
        {
          "internalType": "contract IERC20",
          "name": "",
          "type": "address"
        }
      ],
      "stateMutability": "view",
      "type": "function"
    },
    {
      "inputs": [],
      "name": "totalAssets",
      "outputs": [
        {
          "internalType": "uint256",
          "name": "",
          "type": "uint256"
        }
      ],
      "stateMutability": "view",
      "type": "function"
    },
    {
      "inputs": [],
      "name": "totalDebt",
      "outputs": [
        {
          "internalType": "uint256",
          "name": "",
          "type": "uint256"
        }
      ],
      "stateMutability": "view",
      "type": "function"
    },
    {
      "inputs": [],
      "name": "totalDebtRatio",
      "outputs": [
        {
          "internalType": "uint256",
          "name": "",
          "type": "uint256"
        }
      ],
      "stateMutability": "view",
      "type": "function"
    },
    {
      "inputs": [],
      "name": "totalIdle",
      "outputs": [
        {
          "internalType": "uint256",
          "name": "",
          "type": "uint256"
        }
      ],
      "stateMutability": "view",
      "type": "function"
    },
    {
      "inputs": [],
      "name": "totalSupply",
      "outputs": [
        {
          "internalType": "uint256",
          "name": "",
          "type": "uint256"
        }
      ],
      "stateMutability": "view",
      "type": "function"
    },
    {
      "inputs": [
        {
          "internalType": "address",
          "name": "to",
          "type": "address"
        },
        {
          "internalType": "uint256",
          "name": "amount",
          "type": "uint256"
        }
      ],
      "name": "transfer",
      "outputs": [
        {
          "internalType": "bool",
          "name": "",
          "type": "bool"
        }
      ],
      "stateMutability": "nonpayable",
      "type": "function"
    },
    {
      "inputs": [
        {
          "internalType": "address",
          "name": "from",
          "type": "address"
        },
        {
          "internalType": "address",
          "name": "to",
          "type": "address"
        },
        {
          "internalType": "uint256",
          "name": "amount",
          "type": "uint256"
        }
      ],
      "name": "transferFrom",
      "outputs": [
        {
          "internalType": "bool",
          "name": "",
          "type": "bool"
        }
      ],
      "stateMutability": "nonpayable",
      "type": "function"
    },
    {
      "inputs": [
        {
          "internalType": "address",
          "name": "newOwner",
          "type": "address"
        }
      ],
      "name": "transferOwnership",
      "outputs": [],
      "stateMutability": "nonpayable",
      "type": "function"
    },
    {
      "inputs": [
        {
          "internalType": "uint16",
          "name": "",
          "type": "uint16"
        }
      ],
      "name": "trustedRemoteLookup",
      "outputs": [
        {
          "internalType": "bytes",
          "name": "",
          "type": "bytes"
        }
      ],
      "stateMutability": "view",
      "type": "function"
    },
    {
      "inputs": [
        {
          "internalType": "uint16",
          "name": "_chainId",
          "type": "uint16"
        },
        {
          "internalType": "address",
          "name": "_strategy",
          "type": "address"
        },
        {
          "internalType": "uint256",
          "name": "_debtRatio",
          "type": "uint256"
        }
      ],
      "name": "updateStrategyDebtRatio",
      "outputs": [],
      "stateMutability": "nonpayable",
      "type": "function"
    },
    {
      "inputs": [
        {
          "internalType": "uint256",
          "name": "_maxShares",
          "type": "uint256"
        },
        {
          "internalType": "address",
          "name": "_recipient",
          "type": "address"
        },
        {
          "internalType": "uint256",
          "name": "_maxLoss",
          "type": "uint256"
        }
      ],
      "name": "withdraw",
      "outputs": [],
      "stateMutability": "nonpayable",
      "type": "function"
    },
    {
      "inputs": [],
      "name": "withdrawEpoch",
      "outputs": [
        {
          "internalType": "uint256",
          "name": "",
          "type": "uint256"
        }
      ],
      "stateMutability": "view",
      "type": "function"
    },
    {
      "inputs": [
        {
          "internalType": "uint256",
          "name": "",
          "type": "uint256"
        }
      ],
      "name": "withdrawEpochs",
      "outputs": [
        {
          "internalType": "bool",
          "name": "inProgress",
          "type": "bool"
        },
        {
          "internalType": "uint256",
          "name": "approveExpected",
          "type": "uint256"
        },
        {
          "internalType": "uint256",
          "name": "approveActual",
          "type": "uint256"
        }
      ],
      "stateMutability": "view",
      "type": "function"
    },
    {
      "stateMutability": "payable",
      "type": "receive"
    }
  ],
  "bytecode": "0x608060405234801561001057600080fd5b50615f8a80620000216000396000f3fe6080604052600436106102e65760003560e01c80637533d788116101825780637533d7881461081d5780638cfd8f5c1461083d5780638da5cb5b14610875578063950c8a741461088a57806395d89b41146108aa57806399530b06146108bf5780639aa7df94146108d45780639f38369a146108e9578063a032a71214610909578063a457c2d714610929578063a6c3d16514610949578063a9059cbb14610969578063ab033ea914610989578063ab73ce46146109a9578063ab8236f3146109c0578063b353aaa7146109e0578063baf3292d14610a00578063c446183414610a20578063cbed8b9c14610a36578063cfbcc64414610a56578063d1deba1f14610a76578063dd62ed3e14610a89578063dde4f08e14610aa9578063df2a5b3b14610ac9578063e63697c814610ae9578063e7fda06114610b09578063eb8d72b714610b29578063ef34253c14610b49578063f2fde38b14610b5e578063f5ecbdbc14610b7e578063fc0c546a14610b9e578063fc7b9c1814610bbe57600080fd5b80621d3567146102f257806301dc2eb11461031457806301e1d114146103475780630517cb761461035c57806306fdde031461038a57806307e0db17146103ac578063095ea7b3146103cc5780630a97c254146103fc5780630df374831461041c57806310ddb1371461043c5780631459457a1461045c57806314c644021461047c57806318160ddd1461049c57806323b872dd146104b15780632d606843146104d15780632df9eab9146104e6578063313ce567146104fc5780633403c2fc1461052357806337fded911461053e578063395093511461055e5780633d8b38f61461057e5780633f1f4fa41461059e5780634067cb9e146105cb57806342d65a8d1461068257806352106a49146106a25780635aa6e675146106c25780635b8c41e6146106e25780635fe1a0271461073157806366ad5c8a146107925780636e553f65146107b257806370a08231146107d2578063715018a61461080857600080fd5b366102ed57005b600080fd5b3480156102fe57600080fd5b5061031261030d366004614dc6565b610bd4565b005b34801561032057600080fd5b5061033461032f366004614e6e565b610c7d565b6040519081526020015b60405180910390f35b34801561035357600080fd5b50610334610c92565b34801561036857600080fd5b506101085461037d906001600160a01b031681565b60405161033e9190614ea5565b34801561039657600080fd5b5061039f610cae565b60405161033e9190614f09565b3480156103b857600080fd5b506103126103c7366004614f1c565b610d40565b3480156103d857600080fd5b506103ec6103e7366004614f37565b610dad565b604051901515815260200161033e565b34801561040857600080fd5b50610312610417366004614f63565b610dc5565b34801561042857600080fd5b50610312610437366004614fa2565b610ed5565b34801561044857600080fd5b50610312610457366004614f1c565b610ef4565b34801561046857600080fd5b50610312610477366004614fbe565b610f30565b34801561048857600080fd5b5061031261049736600461503d565b61115d565b3480156104a857600080fd5b50603554610334565b3480156104bd57600080fd5b506103ec6104cc36600461505a565b6111c2565b3480156104dd57600080fd5b506103126111e6565b3480156104f257600080fd5b5061033460fe5481565b34801561050857600080fd5b50610511611266565b60405160ff909116815260200161033e565b34801561052f57600080fd5b50610100546103ec9060ff1681565b34801561054a57600080fd5b5060fd5461037d906001600160a01b031681565b34801561056a57600080fd5b506103ec610579366004614f37565b6112d4565b34801561058a57600080fd5b506103ec61059936600461507a565b6112f6565b3480156105aa57600080fd5b506103346105b9366004614f1c565b609a6020526000908152604090205481565b3480156105d757600080fd5b5061063e6105e6366004614e6e565b610101602090815260009283526040808420909152908252902080546001820154600283015460038401546004850154600586015460068701546007909701549596949593949293919290916001600160a01b031688565b604080519889526020890197909752958701949094526060860192909252608085015260a084015260c08301526001600160a01b031660e08201526101000161033e565b34801561068e57600080fd5b5061031261069d36600461507a565b6113c2565b3480156106ae57600080fd5b506103126106bd3660046150cc565b611435565b3480156106ce57600080fd5b5060fb5461037d906001600160a01b031681565b3480156106ee57600080fd5b506103346106fd366004615207565b60c9602090815260009384526040808520845180860184018051928152908401958401959095209452929052825290205481565b34801561073d57600080fd5b5061077561074c366004615264565b6101066020526000908152604090206001810154600282015460039092015460ff909116919083565b60408051931515845260208401929092529082015260600161033e565b34801561079e57600080fd5b506103126107ad366004614dc6565b61165d565b3480156107be57600080fd5b506103346107cd36600461527d565b611731565b3480156107de57600080fd5b506103346107ed3660046152a2565b6001600160a01b031660009081526033602052604090205490565b34801561081457600080fd5b5061031261173d565b34801561082957600080fd5b5061039f610838366004614f1c565b611751565b34801561084957600080fd5b506103346108583660046152bf565b609960209081526000928352604080842090915290825290205481565b34801561088157600080fd5b5061037d6117eb565b34801561089657600080fd5b50609b5461037d906001600160a01b031681565b3480156108b657600080fd5b5061039f6117fa565b3480156108cb57600080fd5b50610334611809565b3480156108e057600080fd5b50610334611826565b3480156108f557600080fd5b5061039f610904366004614f1c565b611898565b34801561091557600080fd5b506103126109243660046152f2565b6119ae565b34801561093557600080fd5b506103ec610944366004614f37565b611d8e565b34801561095557600080fd5b5061031261096436600461507a565b611e09565b34801561097557600080fd5b506103ec610984366004614f37565b611e92565b34801561099557600080fd5b506103126109a43660046152a2565b611ea0565b3480156109b557600080fd5b506103346101025481565b3480156109cc57600080fd5b506103126109db36600461533b565b611f13565b3480156109ec57600080fd5b5060975461037d906001600160a01b031681565b348015610a0c57600080fd5b50610312610a1b3660046152a2565b61203d565b348015610a2c57600080fd5b5061033461271081565b348015610a4257600080fd5b50610312610a513660046153d5565b61209b565b348015610a6257600080fd5b50610312610a71366004614e6e565b612114565b610312610a84366004614dc6565b612173565b348015610a9557600080fd5b50610334610aa4366004615443565b612389565b348015610ab557600080fd5b50610312610ac43660046152f2565b6123b4565b348015610ad557600080fd5b50610312610ae4366004615461565b612448565b348015610af557600080fd5b50610312610b0436600461549d565b6124fa565b348015610b1557600080fd5b50610334610b24366004614e6e565b61250a565b348015610b3557600080fd5b50610312610b4436600461507a565b612516565b348015610b5557600080fd5b50610312612570565b348015610b6a57600080fd5b50610312610b793660046152a2565b6128c8565b348015610b8a57600080fd5b5061039f610b993660046154c4565b61293e565b348015610baa57600080fd5b5060fc5461037d906001600160a01b031681565b348015610bca57600080fd5b5061033460ff5481565b6097546001600160a01b03163314610bff5760405163017d54bf60e61b815260040160405180910390fd5b610c758686868080601f01602080910402602001604051908101604052809392919081815260200183838082843760009201919091525050604080516020601f8901819004810282018101909252878152899350915087908790819084018382808284376000920191909152506129d392505050565b505050505050565b6000610c898383612a4c565b90505b92915050565b6000610c9c611826565b60ff54610ca99190615527565b905090565b606060368054610cbd9061553a565b80601f0160208091040260200160405190810160405280929190818152602001828054610ce99061553a565b8015610d365780601f10610d0b57610100808354040283529160200191610d36565b820191906000526020600020905b815481529060010190602001808311610d1957829003601f168201915b5050505050905090565b610d48612b14565b6097546040516307e0db1760e01b815261ffff831660048201526001600160a01b03909116906307e0db17906024015b600060405180830381600087803b158015610d9257600080fd5b505af1158015610da6573d6000803e3d6000fd5b5050505050565b600033610dbb818585612b73565b5060019392505050565b60fb546001600160a01b031633141580610df85750610de26117eb565b6001600160a01b0316336001600160a01b031614155b15610e165760405163048dab2760e11b815260040160405180910390fd5b61ffff83166000908152610101602090815260408083206001600160a01b038616845290915281206001015460fe805491929091610e55908490615574565b909155505061ffff83166000908152610101602090815260408083206001600160a01b0386168452909152902060010181905560fe5461271090610e9a908390615527565b1115610eb957604051636818be9560e01b815260040160405180910390fd5b8060fe6000828254610ecb9190615527565b9091555050505050565b610edd612b14565b61ffff9091166000908152609a6020526040902055565b610efc612b14565b6097546040516310ddb13760e01b815261ffff831660048201526001600160a01b03909116906310ddb13790602401610d78565b600054610100900460ff1615808015610f505750600054600160ff909116105b80610f715750610f5f30612c97565b158015610f71575060005460ff166001145b610fd95760405162461bcd60e51b815260206004820152602e60248201527f496e697469616c697a61626c653a20636f6e747261637420697320616c72656160448201526d191e481a5b9a5d1a585b1a5e995960921b60648201526084015b60405180910390fd5b6000805460ff191660011790558015610ffc576000805461ff0019166101001790555b61100585612ca6565b61100d612cde565b6110596040518060400160405280600f81526020016e13db5b9a58da185a5b8815985d5b1d608a1b8152506040518060400160405280600381526020016227a6ab60e91b815250612d0d565b60fb80546001600160a01b038089166001600160a01b03199283161790925560fc8054878416908316811790915560fd805487851690841617905561010880549386169390921692909217905560405163095ea7b360e01b815263095ea7b3906110cb90869060001990600401615587565b6020604051808303816000875af11580156110ea573d6000803e3d6000fd5b505050506040513d601f19601f8201168201806040525081019061110e91906155a0565b508015610c75576000805461ff0019169055604051600181527f7f26b83ff96e1f2b6a682f133852f6798a09c465da95921460cefb3847402498906020015b60405180910390a1505050505050565b60fb546001600160a01b031633141580611190575061117a6117eb565b6001600160a01b0316336001600160a01b031614155b156111ae5760405163048dab2760e11b815260040160405180910390fd5b610100805460ff1916911515919091179055565b6000336111d0858285612d3e565b6111db858585612db8565b506001949350505050565b60fb546001600160a01b03163314158061121957506112036117eb565b6001600160a01b0316336001600160a01b031614155b156112375760405163048dab2760e11b815260040160405180910390fd5b60405133904780156108fc02916000818181858888f19350505050158015611263573d6000803e3d6000fd5b50565b60fc546040805163313ce56760e01b815290516000926001600160a01b03169163313ce5679160048083019260209291908290030181865afa1580156112b0573d6000803e3d6000fd5b505050506040513d601f19601f82011682018060405250810190610ca991906155bd565b600033610dbb8185856112e78383612389565b6112f19190615527565b612b73565b61ffff8316600090815260986020526040812080548291906113179061553a565b80601f01602080910402602001604051908101604052809291908181526020018280546113439061553a565b80156113905780601f1061136557610100808354040283529160200191611390565b820191906000526020600020905b81548152906001019060200180831161137357829003601f168201915b5050505050905083836040516113a79291906155e0565b60405180910390208180519060200120149150509392505050565b6113ca612b14565b6097546040516342d65a8d60e01b81526001600160a01b03909116906342d65a8d906113fe90869086908690600401615619565b600060405180830381600087803b15801561141857600080fd5b505af115801561142c573d6000803e3d6000fd5b50505050505050565b60fb546001600160a01b03163314158061146857506114526117eb565b6001600160a01b0316336001600160a01b031614155b156114865760405163048dab2760e11b815260040160405180910390fd5b61ffff85166000908152610101602090815260408083206001600160a01b038816845290915290205485908590156114d15760405163b22f530560e01b815260040160405180910390fd5b6127108560fe546114e29190615527565b111561150157604051631cd7a8d160e21b815260040160405180910390fd5b60405180610100016040528042815260200186815260200160008152602001600081526020016000815260200160008152602001858152602001846001600160a01b031681525061010160008961ffff1661ffff1681526020019081526020016000206000886001600160a01b03166001600160a01b03168152602001908152602001600020600082015181600001556020820151816001015560408201518160020155606082015181600301556080820151816004015560a0820151816005015560c0820151816006015560e08201518160070160006101000a8154816001600160a01b0302191690836001600160a01b0316021790555090505061162b8661010360008a61ffff1661ffff168152602001908152602001600020612f5190919063ffffffff16565b5061163c61010461ffff8916612f66565b508460fe600082825461164f9190615527565b909155505050505050505050565b3330146116bb5760405162461bcd60e51b815260206004820152602660248201527f4e6f6e626c6f636b696e674c7a4170703a2063616c6c6572206d7573742062656044820152650204c7a4170760d41b6064820152608401610fd0565b610c758686868080601f01602080910402602001604051908101604052809392919081815260200183838082843760009201919091525050604080516020601f890181900481028201810190925287815289935091508790879081908401838280828437600092019190915250612f7292505050565b6000610c898383612ffc565b611745612b14565b61174f600061304a565b565b6098602052600090815260409020805461176a9061553a565b80601f01602080910402602001604051908101604052809291908181526020018280546117969061553a565b80156117e35780601f106117b8576101008083540402835291602001916117e3565b820191906000526020600020905b8154815290600101906020018083116117c657829003601f168201915b505050505081565b6065546001600160a01b031690565b606060378054610cbd9061553a565b6000610ca9611816611266565b61182190600a61571b565b61309c565b60fc546040516370a0823160e01b81526000916001600160a01b0316906370a0823190611857903090600401614ea5565b602060405180830381865afa158015611874573d6000803e3d6000fd5b505050506040513d601f19601f82011682018060405250810190610ca9919061572a565b61ffff81166000908152609860205260408120805460609291906118bb9061553a565b80601f01602080910402602001604051908101604052809291908181526020018280546118e79061553a565b80156119345780601f1061190957610100808354040283529160200191611934565b820191906000526020600020905b81548152906001019060200180831161191757829003601f168201915b50505050509050805160000361198c5760405162461bcd60e51b815260206004820152601d60248201527f4c7a4170703a206e6f20747275737465642070617468207265636f72640000006044820152606401610fd0565b6119a760006014835161199f9190615574565b8391906130d1565b9392505050565b60fb546001600160a01b0316331415806119e157506119cb6117eb565b6001600160a01b0316336001600160a01b031614155b156119ff5760405163048dab2760e11b815260040160405180910390fd5b61ffff83166000908152610101602090815260408083206001600160a01b03851684529091529020548390829015611a4a5760405163b22f530560e01b815260040160405180910390fd5b6001600160a01b038316611a7157604051633337885960e01b815260040160405180910390fd5b600061010160008761ffff1661ffff1681526020019081526020016000206000866001600160a01b03166001600160a01b0316815260200190815260200160002060405180610100016040529081600082015481526020016001820154815260200160028201548152602001600382015481526020016004820154815260200160058201548152602001600682015481526020016007820160009054906101000a90046001600160a01b03166001600160a01b03166001600160a01b03168152505090506040518061010001604052808260a001518152602001826020015181526020018260400151815260200160008152602001600081526020018260a0015181526020018260c0015181526020018260e001516001600160a01b031681525061010160008861ffff1661ffff1681526020019081526020016000206000866001600160a01b03166001600160a01b03168152602001908152602001600020600082015181600001556020820151816001015560408201518160020155606082015181600301556080820151816004015560a0820151816005015560c0820151816006015560e08201518160070160006101000a8154816001600160a01b0302191690836001600160a01b03160217905550905050600061010160008861ffff1661ffff1681526020019081526020016000206000876001600160a01b03166001600160a01b0316815260200190815260200160002060010181905550600061010160008861ffff1661ffff1681526020019081526020016000206000876001600160a01b03166001600160a01b03168152602001908152602001600020600201819055508561ffff16607461ffff1603611d4a5760405163ce5494bb60e01b81526001600160a01b0386169063ce5494bb90611d13908790600401614ea5565b600060405180830381600087803b158015611d2d57600080fd5b505af1158015611d41573d6000803e3d6000fd5b50505050610c75565b610c75868660046040518060200160405280896001600160a01b0316815250604051602001611d7a92919061577b565b6040516020818303038152906040526131de565b60003381611d9c8286612389565b905083811015611dfc5760405162461bcd60e51b815260206004820152602560248201527f45524332303a2064656372656173656420616c6c6f77616e63652062656c6f77604482015264207a65726f60d81b6064820152608401610fd0565b6111db8286868403612b73565b611e11612b14565b818130604051602001611e26939291906157a0565b60408051601f1981840301815291815261ffff8516600090815260986020522090611e51908261581c565b507f8c0400cfe2d1199b1a725c78960bcc2a344d869b80590d0f2bd005db15a572ce838383604051611e8593929190615619565b60405180910390a1505050565b600033610dbb818585612db8565b60fb546001600160a01b031633141580611ed35750611ebd6117eb565b6001600160a01b0316336001600160a01b031614155b15611ef15760405163048dab2760e11b815260040160405180910390fd5b60fb80546001600160a01b0319166001600160a01b0392909216919091179055565b60fc546001600160a01b03848116911614611f41576040516319eb901f60e11b815260040160405180910390fd5b610108546001600160a01b031633141580611f67575060fd546001600160a01b03163314155b80611f8b5750611f756117eb565b6001600160a01b0316336001600160a01b031614155b15611fa9576040516302b62a2b60e51b815260040160405180910390fd5b6000611fb7868260146130d1565b604051602001611fc791906158d5565b604051602081830303815290604052611fdf906158f1565b60601c9050611fef87838561338b565b604080518481526001600160a01b0383811660208301528616917f92073a89a07a000083eb8b2575fc15e7bb936efe55d00727d6942a796d7211a7910160405180910390a250505050505050565b612045612b14565b609b80546001600160a01b0319166001600160a01b0383161790556040517f5db758e995a17ec1ad84bdef7e8c3293a0bd6179bcce400dff5d4c3d87db726b90612090908390614ea5565b60405180910390a150565b6120a3612b14565b6097546040516332fb62e760e21b81526001600160a01b039091169063cbed8b9c906120db9088908890889088908890600401615928565b600060405180830381600087803b1580156120f557600080fd5b505af1158015612109573d6000803e3d6000fd5b505050505050505050565b60fb546001600160a01b03163314158061214757506121316117eb565b6001600160a01b0316336001600160a01b031614155b156121655760405163048dab2760e11b815260040160405180910390fd5b61216f8282613422565b5050565b61ffff8616600090815260c96020526040808220905161219690889088906155e0565b90815260408051602092819003830190206001600160401b038716600090815292529020549050806122165760405162461bcd60e51b815260206004820152602360248201527f4e6f6e626c6f636b696e674c7a4170703a206e6f2073746f726564206d65737360448201526261676560e81b6064820152608401610fd0565b8083836040516122279291906155e0565b6040518091039020146122865760405162461bcd60e51b815260206004820152602160248201527f4e6f6e626c6f636b696e674c7a4170703a20696e76616c6964207061796c6f616044820152601960fa1b6064820152608401610fd0565b61ffff8716600090815260c9602052604080822090516122a990899089906155e0565b90815260408051602092819003830181206001600160401b038916600090815290845282902093909355601f88018290048202830182019052868252612341918991899089908190840183828082843760009201919091525050604080516020601f8a018190048102820181019092528881528a935091508890889081908401838280828437600092019190915250612f7292505050565b7fc264d91f3adc5588250e1551f547752ca0cfa8f6b530d243b9f9f4cab10ea8e58787878785604051612378959493929190615956565b60405180910390a150505050505050565b6001600160a01b03918216600090815260346020908152604080832093909416825291909152205490565b60fb546001600160a01b0316331415806123e757506123d16117eb565b6001600160a01b0316336001600160a01b031614155b156124055760405163048dab2760e11b815260040160405180910390fd5b61ffff929092166000908152610101602090815260408083206001600160a01b039485168452909152902060070180546001600160a01b03191691909216179055565b612450612b14565b600081116124985760405162461bcd60e51b81526020600482015260156024820152744c7a4170703a20696e76616c6964206d696e47617360581b6044820152606401610fd0565b61ffff83811660008181526099602090815260408083209487168084529482529182902085905581519283528201929092529081018290527f9d5c7c0b934da8fefa9c7760c98383778a12dfbfc0c3b3106518f43fb9508ac090606001611e85565b612505838383613497565b505050565b6000610c8983836135c3565b61251e612b14565b61ffff8316600090815260986020526040902061253c828483615991565b507ffa41487ad5d6728f0b19276fa1eddc16558578f5109fc39d2dc33c3230470dab838383604051611e8593929190615619565b60fb546001600160a01b0316331415806125a3575061258d6117eb565b6001600160a01b0316336001600160a01b031614155b156125c15760405163048dab2760e11b815260040160405180910390fd5b610102546000908152610106602052604090206001015460ff16156125f957604051630be1825960e31b815260040160405180910390fd5b6000805b610102546000908152610106602052604090205481101561267a576101025460009081526101066020526040812080548390811061263d5761263d615a4a565b9060005260206000209060060201905061265a816002015461309c565b6126649084615527565b925050808061267290615a60565b9150506125fd565b50612683611826565b81116126915761126361367b565b600061269b611826565b6126a59083615574565b90506000805b6126b661010461397f565b811080156126c45750600083115b156128925760006126d761010483613989565b61ffff81166000908152610103602052604081209192505b6126f88261397f565b811080156127065750600086115b1561287c5760006127178383613989565b61ffff85166000908152610101602090815260408083206001600160a01b03851684529091528120600281015492935091900361275557505061286a565b6000612765898360020154613995565b6101025460009081526101066020908152604080832061ffff8b16845260050182528083206001600160a01b0388168452909152902081905590506127aa818a615574565b985061ffff861660740361282957604051632e1a7d4d60e01b8152600481018290526001600160a01b03841690632e1a7d4d906024016020604051808303816000875af11580156127ff573d6000803e3d6000fd5b505050506040513d601f19601f82011682018060405250810190612823919061572a565b50612859565b61285986846000604051806040016040528086815260200161010254815250604051602001611d7a929190615a79565b8761286381615a60565b9850505050505b8061287481615a60565b9150506126ef565b505050808061288a90615a60565b9150506126ab565b506101028054600090815261010660205260408082206002019390935590548152206001908101805460ff191690911790555050565b6128d0612b14565b6001600160a01b0381166129355760405162461bcd60e51b815260206004820152602660248201527f4f776e61626c653a206e6577206f776e657220697320746865207a65726f206160448201526564647265737360d01b6064820152608401610fd0565b6112638161304a565b609754604051633d7b2f6f60e21b815261ffff808716600483015285166024820152306044820152606481018390526060916001600160a01b03169063f5ecbdbc90608401600060405180830381865afa1580156129a0573d6000803e3d6000fd5b505050506040513d6000823e601f3d908101601f191682016040526129c89190810190615ae4565b90505b949350505050565b600080612a365a60966366ad5c8a60e01b898989896040516024016129fb9493929190615b18565b60408051601f198184030181529190526020810180516001600160e01b03166001600160e01b031990931692909217909152309291906139ab565b9150915081610c7557610c758686868685613a37565b6101005460009060ff1615612a6357506000610c8c565b6000612710612a70610c92565b61ffff86166000908152610101602090815260408083206001600160a01b0389168452909152902060010154612aa69190615b56565b612ab09190615b6d565b61ffff85166000908152610101602090815260408083206001600160a01b0388168452909152902060020154909150808211612af157600092505050610c8c565b612b0b612afc611826565b612b068385615574565b613995565b95945050505050565b33612b1d6117eb565b6001600160a01b03161461174f5760405162461bcd60e51b815260206004820181905260248201527f4f776e61626c653a2063616c6c6572206973206e6f7420746865206f776e65726044820152606401610fd0565b6001600160a01b038316612bd55760405162461bcd60e51b8152602060048201526024808201527f45524332303a20617070726f76652066726f6d20746865207a65726f206164646044820152637265737360e01b6064820152608401610fd0565b6001600160a01b038216612c365760405162461bcd60e51b815260206004820152602260248201527f45524332303a20617070726f766520746f20746865207a65726f206164647265604482015261737360f01b6064820152608401610fd0565b6001600160a01b0383811660008181526034602090815260408083209487168084529482529182902085905590518481527f8c5be1e5ebec7d5bd14f71427d1e84f3dd0314c0f7b2291e5b200ac8c7c3b925910160405180910390a3505050565b6001600160a01b03163b151590565b600054610100900460ff16612ccd5760405162461bcd60e51b8152600401610fd090615b8f565b612cd5613ad4565b61126381613b04565b600054610100900460ff16612d055760405162461bcd60e51b8152600401610fd090615b8f565b61174f613ad4565b600054610100900460ff16612d345760405162461bcd60e51b8152600401610fd090615b8f565b61216f8282613b4d565b6000612d4a8484612389565b90506000198114612db25781811015612da55760405162461bcd60e51b815260206004820152601d60248201527f45524332303a20696e73756666696369656e7420616c6c6f77616e63650000006044820152606401610fd0565b612db28484848403612b73565b50505050565b6001600160a01b038316612e1c5760405162461bcd60e51b815260206004820152602560248201527f45524332303a207472616e736665722066726f6d20746865207a65726f206164604482015264647265737360d81b6064820152608401610fd0565b6001600160a01b038216612e7e5760405162461bcd60e51b815260206004820152602360248201527f45524332303a207472616e7366657220746f20746865207a65726f206164647260448201526265737360e81b6064820152608401610fd0565b6001600160a01b03831660009081526033602052604090205481811015612ef65760405162461bcd60e51b815260206004820152602660248201527f45524332303a207472616e7366657220616d6f756e7420657863656564732062604482015265616c616e636560d01b6064820152608401610fd0565b6001600160a01b038085166000818152603360205260408082208686039055928616808252908390208054860190559151600080516020615f3583398151915290612f449086815260200190565b60405180910390a3612db2565b6000610c89836001600160a01b038416613b8d565b6000610c898383613b8d565b6000612f80848260146130d1565b604051602001612f9091906158d5565b604051602081830303815290604052612fa8906158f1565b61ffff861660009081526101016020908152604080832060609490941c8084529390915281205491925003612ff05760405163429bf29b60e01b815260040160405180910390fd5b610da68583600061338b565b6101005460009060ff1615613023576040516290ebab60e11b815260040160405180910390fd5b600061302f8385613bdc565b60fc54909150610c89906001600160a01b0316333087613c43565b606580546001600160a01b038381166001600160a01b0319831681179093556040519116919082907f8be0079c531659141344cd1fd0a4f28419497f9722a3daafe3b4186f6b6457e090600090a35050565b60006130a760355490565b6000036130b2575090565b6035546130bd610c92565b6130c79084615b56565b610c8c9190615b6d565b6060816130df81601f615527565b101561311e5760405162461bcd60e51b815260206004820152600e60248201526d736c6963655f6f766572666c6f7760901b6044820152606401610fd0565b6131288284615527565b8451101561316c5760405162461bcd60e51b8152602060048201526011602482015270736c6963655f6f75744f66426f756e647360781b6044820152606401610fd0565b60608215801561318b57604051915060008252602082016040526131d5565b6040519150601f8416801560200281840101858101878315602002848b0101015b818310156131c45780518352602092830192016131ac565b5050858452601f01601f1916604052505b50949350505050565b61ffff83166000908152610101602090815260408083206001600160a01b038616845290915281205484918491900361322a5760405163d30204e160e01b815260040160405180910390fd5b6040516001600160601b0319606086811b8216602084015230901b16603482015260009060480160408051601f198184030181529190526097549091506000906001600160a01b03166340a7bb1088308885613284613cae565b6040518663ffffffff1660e01b81526004016132a4959493929190615bda565b6040805180830381865afa1580156132c0573d6000803e3d6000fd5b505050506040513d601f19601f820116820180604052508101906132e49190615c2e565b509050804710156133105760405162fae2d560e21b815260048101829052476024820152604401610fd0565b6097546001600160a01b031663c580310082898589308061332f613cae565b6040518863ffffffff1660e01b815260040161335096959493929190615c52565b6000604051808303818588803b15801561336957600080fd5b505af115801561337d573d6000803e3d6000fd5b505050505050505050505050565b6000828060200190518101906133a19190615cb9565b905060028160048111156133b7576133b7615743565b036133e6576000838060200190518101906133d29190615ce5565b9150506133e0858285613cde565b50612db2565b60018160048111156133fa576133fa615743565b03612db2576000838060200190518101906134159190615dd0565b915050610da68582614126565b61ffff82166000908152610101602090815260408083206001600160a01b038516845290915281206001015460fe805491929091613461908490615574565b909155505061ffff9091166000908152610101602090815260408083206001600160a01b03909416835292905290812060010155565b610102546000908152610106602052604090206001015460ff16156134cf57604051630be1825960e31b815260040160405180910390fd5b6134da333085612db8565b61010660006101025481526020019081526020016000206000016040518060c00160405280336001600160a01b03168152602001846001600160a01b031681526020018581526020018381526020016135328661309c565b81526000602091820181905283546001808201865594825290829020835160069092020180546001600160a01b03199081166001600160a01b039384161782559284015194810180549093169490911693909317905560408101516002830155606081015160038301556080810151600483015560a001516005909101805460ff1916911515919091179055505050565b6000806127106135d1610c92565b61ffff86166000908152610101602090815260408083206001600160a01b03891684529091529020600101546136079190615b56565b6136119190615b6d565b61ffff85166000908152610101602090815260408083206001600160a01b0388168452909152902060020154610100549192509060ff1615613656579150610c8c9050565b81811161366857600092505050610c8c565b6136728282615574565b92505050610c8c565b6101025460009081526101066020526040812054908190036136b05760405163cc58848360e01b815260040160405180910390fd5b6000816001600160401b038111156136ca576136ca61511b565b6040519080825280602002602001820160405280156136f3578160200160208202803683370190505b50905060005b82811015613773576101025460009081526101066020526040812080548390811061372657613726615a4a565b90600052602060002090600602019050613743816002015461309c565b83838151811061375557613755615a4a565b6020908102919091010152508061376b81615a60565b9150506136f9565b5060005b8281101561390c57610102546000908152610106602052604081208054839081106137a4576137a4615a4a565b9060005260206000209060060201905060006137db8484815181106137cb576137cb615a4a565b6020026020010151612b06611826565b905081600401548110156138ba5760008183600401546137fb9190615574565b905060008360040154826127106138129190615b56565b61381c9190615b6d565b905083600301548111156138b75760058401805460ff191690558354600285015460405163a9059cbb60e01b8152309263a9059cbb9261386a926001600160a01b0390921691600401615587565b6020604051808303816000875af1158015613889573d6000803e3d6000fd5b505050506040513d601f19601f820116820180604052508101906138ad91906155a0565b50505050506138fa565b50505b60058201805460ff1916600190811790915582015460fc546138e9916001600160a01b039182169116836142f3565b6138f7308360020154614312565b50505b8061390481615a60565b915050613777565b506101025460408051918252602082018490527fc682eb885c208b8aaaa811c05902e24a4f14b388960311623a8f31404f655129910160405180910390a16101028054600090815261010660205260408120600101805460ff191690558154919061397683615a60565b91905055505050565b6000610c8c825490565b6000610c898383614434565b60008183106139a45781610c89565b5090919050565b6000606060008060008661ffff166001600160401b038111156139d0576139d061511b565b6040519080825280601f01601f1916602001820160405280156139fa576020820181803683370190505b50905060008087516020890160008d8df191503d925086831115613a1c578692505b828152826000602083013e9093509150505b94509492505050565b818051906020012060c960008761ffff1661ffff16815260200190815260200160002085604051613a6891906158d5565b9081526040805191829003602090810183206001600160401b0388166000908152915220919091557fe183f33de2837795525b4792ca4cd60535bd77c53b7e7030060bfcf5734d6b0c90613ac59087908790879087908790615e5b565b60405180910390a15050505050565b600054610100900460ff16613afb5760405162461bcd60e51b8152600401610fd090615b8f565b61174f3361304a565b600054610100900460ff16613b2b5760405162461bcd60e51b8152600401610fd090615b8f565b609780546001600160a01b0319166001600160a01b0392909216919091179055565b600054610100900460ff16613b745760405162461bcd60e51b8152600401610fd090615b8f565b6036613b80838261581c565b506037612505828261581c565b6000818152600183016020526040812054613bd457508154600181810184556000848152602080822090930184905584548482528286019093526040902091909155610c8c565b506000610c8c565b600080613be860355490565b600003613bf6575081613c18565b613bfe610c92565b603554613c0b9085615b56565b613c159190615b6d565b90505b80600003613c395760405163908776f160e01b815260040160405180910390fd5b610c89848261445e565b6040516001600160a01b0380851660248301528316604482015260648101829052612db29085906323b872dd60e01b906084015b60408051601f198184030181529190526020810180516001600160e01b03166001600160e01b03199093169290921790915261450d565b60408051600160f01b6020820152620f424060228083019190915282518083039091018152604290910190915290565b613ce883836145e2565b606082015115613d0557613d058383600001518460600151614797565b60408083015161ffff85166000908152610101602090815283822086516001600160a01b031683529052918220600301805491929091613d46908490615527565b90915550508151600090613d5b9085906135c3565b90506000613d6d828560800151613995565b90508015613ddd5761ffff851660009081526101016020908152604080832087516001600160a01b0316845290915281206002018054839290613db1908490615574565b925050819055508060ff6000828254613dca9190615574565b90915550613dda90508183615574565b91505b60e084015115613e4a5760e084015161ffff861660009081526101016020908152604080832088516001600160a01b0316845290915281206002018054909190613e28908490615527565b909155505060e084015160ff8054600090613e44908490615527565b90915550505b60208085015161ffff8716600081815261010180855260408083208a516001600160a01b039081168552818852828520600501969096559383529085528851909316815292529020600101541580613ea557506101005460ff165b15613eb35783610100015191505b61ffff8516607403613f21578351604051633d3ccc2f60e01b8152600481018490526001600160a01b0390911690633d3ccc2f90602401600060405180830381600087803b158015613f0457600080fd5b505af1158015613f18573d6000803e3d6000fd5b50505050613f9f565b60a084015115613f7457613f6f8460a001518686600001516003604051806020016040528088815250604051602001613f5b929190615ead565b604051602081830303815290604052614877565b613f9f565b613f9f8585600001516003604051806020016040528087815250604051602001611d7a929190615ead565b600061010160008761ffff1661ffff168152602001908152602001600020600086600001516001600160a01b03166001600160a01b0316815260200190815260200160002060405180610100016040529081600082015481526020016001820154815260200160028201548152602001600382015481526020016004820154815260200160058201548152602001600682015481526020016007820160009054906101000a90046001600160a01b03166001600160a01b03166001600160a01b03168152505090507f08bc8eff67f79e18165507d64024f5ca5e90a2593c7a45cb5caf7f9d843e404c8686600001518760400151886060015189608001518660600151876080015188604001518d60e001518a602001518e60405161114d9b9a9998979695949392919061ffff9b909b168b526001600160a01b039990991660208b015260408a01979097526060890195909552608088019390935260a087019190915260c086015260e08501526101008401526101208301526101408201526101600190565b805161ffff83166000908152610101602090815260408083206001600160a01b0385168452909152812054849291036141725760405163d30204e160e01b815260040160405180910390fd5b60408301511561418f5761418f8484600001518560400151614797565b60208084015161ffff861660009081526101018352604080822087516001600160a01b031683529093529182206002018054919290916141d0908490615574565b9091555050602083015160ff80546000906141ec908490615574565b9091555050606083015160009081526101066020526040812060030180549161421483615a60565b909155505060608301805160009081526101066020818152604080842061ffff8a168552600401825280842088516001600160a01b031685528252808420805460ff19166001179055845184529190528082206003015492518252902060020154036142825761428261367b565b82600001516001600160a01b03168461ffff167f046368a4ca42efbdd968b9025440eb5590bdcda7da09f4fef8ac4ef2f44a5ed08560200151866040015187606001516040516142e5939291909283526020830191909152604082015260600190565b60405180910390a350505050565b6125058363a9059cbb60e01b8484604051602401613c77929190615587565b6001600160a01b0382166143725760405162461bcd60e51b815260206004820152602160248201527f45524332303a206275726e2066726f6d20746865207a65726f206164647265736044820152607360f81b6064820152608401610fd0565b6001600160a01b038216600090815260336020526040902054818110156143e65760405162461bcd60e51b815260206004820152602260248201527f45524332303a206275726e20616d6f756e7420657863656564732062616c616e604482015261636560f01b6064820152608401610fd0565b6001600160a01b0383166000818152603360209081526040808320868603905560358054879003905551858152919291600080516020615f35833981519152910160405180910390a3505050565b600082600001828154811061444b5761444b615a4a565b9060005260206000200154905092915050565b6001600160a01b0382166144b45760405162461bcd60e51b815260206004820152601f60248201527f45524332303a206d696e7420746f20746865207a65726f2061646472657373006044820152606401610fd0565b80603560008282546144c69190615527565b90915550506001600160a01b038216600081815260336020908152604080832080548601905551848152600080516020615f35833981519152910160405180910390a35050565b6000614562826040518060400160405280602081526020017f5361666545524332303a206c6f772d6c6576656c2063616c6c206661696c6564815250856001600160a01b03166149679092919063ffffffff16565b905080516000148061458357508080602001905181019061458391906155a0565b6125055760405162461bcd60e51b815260206004820152602a60248201527f5361666545524332303a204552433230206f7065726174696f6e20646964206e6044820152691bdd081cdd58d8d9595960b21b6064820152608401610fd0565b61ffff821660009081526101076020908152604080832084516001600160a01b031684528252808320610120850151845290915290205460ff161561463a5760405163443e84a960e11b815260040160405180910390fd5b805161012082015160405160609290921b6001600160601b0319166020830152603482015260f083901b6001600160f01b03191660548201526000906056016040516020818303038152906040528051906020012090506000816040516020016146cf91907b0ca2ba3432b932bab69029b4b3b732b21026b2b9b9b0b3b29d05199960211b8152601c810191909152603c0190565b60408051601f19818403018152918152815160209283012061ffff87166000908152610101845282812087516001600160a01b039081168352945291909120600701546101408601519193509091169061472a908390614976565b6001600160a01b031614614751576040516301f92d0f60e31b815260040160405180910390fd5b505061ffff90911660009081526101076020908152604080832084516001600160a01b03168452825280832061012090940151835292905220805460ff19166001179055565b61ffff83166000908152610101602090815260408083206001600160a01b03861684529091529020600201548111156147e35760405163503dd3d160e01b815260040160405180910390fd5b61ffff83166000908152610101602090815260408083206001600160a01b03861684529091528120600401805483929061481e908490615527565b909155505061ffff83166000908152610101602090815260408083206001600160a01b03861684529091528120600201805483929061485e908490615574565b925050819055508060ff6000828254610ecb9190615574565b60fd54604051630dc6346160e01b81526000916001600160a01b031690630dc63461906148ac90879087908790600401615ec9565b602060405180830381865afa1580156148c9573d6000803e3d6000fd5b505050506040513d601f19601f820116820180604052508101906148ed919061572a565b60fd5460fc54604051633920455b60e11b81529293506001600160a01b03918216926372408ab692859261492e929116908a908a908a908a90600401615ef7565b6000604051808303818588803b15801561494757600080fd5b505af115801561495b573d6000803e3d6000fd5b50505050505050505050565b60606129cb848460008561499a565b60008060006149858585614a75565b9150915061499281614aba565b509392505050565b6060824710156149fb5760405162461bcd60e51b815260206004820152602660248201527f416464726573733a20696e73756666696369656e742062616c616e636520666f6044820152651c8818d85b1b60d21b6064820152608401610fd0565b600080866001600160a01b03168587604051614a1791906158d5565b60006040518083038185875af1925050503d8060008114614a54576040519150601f19603f3d011682016040523d82523d6000602084013e614a59565b606091505b5091509150614a6a87838387614bff565b979650505050505050565b6000808251604103614aab5760208301516040840151606085015160001a614a9f87828585614c76565b94509450505050614ab3565b506000905060025b9250929050565b6000816004811115614ace57614ace615743565b03614ad65750565b6001816004811115614aea57614aea615743565b03614b325760405162461bcd60e51b815260206004820152601860248201527745434453413a20696e76616c6964207369676e617475726560401b6044820152606401610fd0565b6002816004811115614b4657614b46615743565b03614b935760405162461bcd60e51b815260206004820152601f60248201527f45434453413a20696e76616c6964207369676e6174757265206c656e677468006044820152606401610fd0565b6003816004811115614ba757614ba7615743565b036112635760405162461bcd60e51b815260206004820152602260248201527f45434453413a20696e76616c6964207369676e6174757265202773272076616c604482015261756560f01b6064820152608401610fd0565b60608315614c6c578251600003614c6557614c1985612c97565b614c655760405162461bcd60e51b815260206004820152601d60248201527f416464726573733a2063616c6c20746f206e6f6e2d636f6e74726163740000006044820152606401610fd0565b50816129cb565b6129cb8383614d2d565b6000806fa2a8918ca85bafe22016d0b997e4df60600160ff1b03831115614ca35750600090506003613a2e565b6040805160008082526020820180845289905260ff881692820192909252606081018690526080810185905260019060a0016020604051602081039080840390855afa158015614cf7573d6000803e3d6000fd5b5050604051601f1901519150506001600160a01b038116614d2057600060019250925050613a2e565b9660009650945050505050565b815115614d3d5781518083602001fd5b8060405162461bcd60e51b8152600401610fd09190614f09565b803561ffff81168114614d6957600080fd5b919050565b60008083601f840112614d8057600080fd5b5081356001600160401b03811115614d9757600080fd5b602083019150836020828501011115614ab357600080fd5b80356001600160401b0381168114614d6957600080fd5b60008060008060008060808789031215614ddf57600080fd5b614de887614d57565b955060208701356001600160401b0380821115614e0457600080fd5b614e108a838b01614d6e565b9097509550859150614e2460408a01614daf565b94506060890135915080821115614e3a57600080fd5b50614e4789828a01614d6e565b979a9699509497509295939492505050565b6001600160a01b038116811461126357600080fd5b60008060408385031215614e8157600080fd5b614e8a83614d57565b91506020830135614e9a81614e59565b809150509250929050565b6001600160a01b0391909116815260200190565b60005b83811015614ed4578181015183820152602001614ebc565b50506000910152565b60008151808452614ef5816020860160208601614eb9565b601f01601f19169290920160200192915050565b602081526000610c896020830184614edd565b600060208284031215614f2e57600080fd5b610c8982614d57565b60008060408385031215614f4a57600080fd5b8235614f5581614e59565b946020939093013593505050565b600080600060608486031215614f7857600080fd5b614f8184614d57565b92506020840135614f9181614e59565b929592945050506040919091013590565b60008060408385031215614fb557600080fd5b614f5583614d57565b600080600080600060a08688031215614fd657600080fd5b8535614fe181614e59565b94506020860135614ff181614e59565b9350604086013561500181614e59565b9250606086013561501181614e59565b9150608086013561502181614e59565b809150509295509295909350565b801515811461126357600080fd5b60006020828403121561504f57600080fd5b8135610c898161502f565b60008060006060848603121561506f57600080fd5b8335614f8181614e59565b60008060006040848603121561508f57600080fd5b61509884614d57565b925060208401356001600160401b038111156150b357600080fd5b6150bf86828701614d6e565b9497909650939450505050565b600080600080600060a086880312156150e457600080fd5b6150ed86614d57565b945060208601356150fd81614e59565b93506040860135925060608601359150608086013561502181614e59565b634e487b7160e01b600052604160045260246000fd5b60405161016081016001600160401b03811182821017156151545761515461511b565b60405290565b604051601f8201601f191681016001600160401b03811182821017156151825761518261511b565b604052919050565b60006001600160401b038211156151a3576151a361511b565b50601f01601f191660200190565b600082601f8301126151c257600080fd5b81356151d56151d08261518a565b61515a565b8181528460208386010111156151ea57600080fd5b816020850160208301376000918101602001919091529392505050565b60008060006060848603121561521c57600080fd5b61522584614d57565b925060208401356001600160401b0381111561524057600080fd5b61524c868287016151b1565b92505061525b60408501614daf565b90509250925092565b60006020828403121561527657600080fd5b5035919050565b6000806040838503121561529057600080fd5b823591506020830135614e9a81614e59565b6000602082840312156152b457600080fd5b8135610c8981614e59565b600080604083850312156152d257600080fd5b6152db83614d57565b91506152e960208401614d57565b90509250929050565b60008060006060848603121561530757600080fd5b61531084614d57565b9250602084013561532081614e59565b9150604084013561533081614e59565b809150509250925092565b60008060008060008060c0878903121561535457600080fd5b61535d87614d57565b955060208701356001600160401b038082111561537957600080fd5b6153858a838b016151b1565b9650604089013595506060890135915061539e82614e59565b9093506080880135925060a088013590808211156153bb57600080fd5b506153c889828a016151b1565b9150509295509295509295565b6000806000806000608086880312156153ed57600080fd5b6153f686614d57565b945061540460208701614d57565b93506040860135925060608601356001600160401b0381111561542657600080fd5b61543288828901614d6e565b969995985093965092949392505050565b6000806040838503121561545657600080fd5b8235614e8a81614e59565b60008060006060848603121561547657600080fd5b61547f84614d57565b925061548d60208501614d57565b9150604084013590509250925092565b6000806000606084860312156154b257600080fd5b833592506020840135614f9181614e59565b600080600080608085870312156154da57600080fd5b6154e385614d57565b93506154f160208601614d57565b9250604085013561550181614e59565b9396929550929360600135925050565b634e487b7160e01b600052601160045260246000fd5b80820180821115610c8c57610c8c615511565b600181811c9082168061554e57607f821691505b60208210810361556e57634e487b7160e01b600052602260045260246000fd5b50919050565b81810381811115610c8c57610c8c615511565b6001600160a01b03929092168252602082015260400190565b6000602082840312156155b257600080fd5b8151610c898161502f565b6000602082840312156155cf57600080fd5b815160ff81168114610c8957600080fd5b8183823760009101908152919050565b81835281816020850137506000828201602090810191909152601f909101601f19169091010190565b61ffff841681526040602082015260006129c86040830184866155f0565b600181815b8085111561567257816000190482111561565857615658615511565b8085161561566557918102915b93841c939080029061563c565b509250929050565b60008261568957506001610c8c565b8161569657506000610c8c565b81600181146156ac57600281146156b6576156d2565b6001915050610c8c565b60ff8411156156c7576156c7615511565b50506001821b610c8c565b5060208310610133831016604e8410600b84101617156156f5575081810a610c8c565b6156ff8383615637565b806000190482111561571357615713615511565b029392505050565b6000610c8960ff84168361567a565b60006020828403121561573c57600080fd5b5051919050565b634e487b7160e01b600052602160045260246000fd5b6005811061577757634e487b7160e01b600052602160045260246000fd5b9052565b604081016157898285615759565b91516001600160a01b031660209190910152919050565b8284823760609190911b6001600160601b0319169101908152601401919050565b601f82111561250557600081815260208120601f850160051c810160208610156157e85750805b601f850160051c820191505b81811015610c75578281556001016157f4565b600019600383901b1c191660019190911b1790565b81516001600160401b038111156158355761583561511b565b61584981615843845461553a565b846157c1565b602080601f83116001811461587857600084156158665750858301515b6158708582615807565b865550610c75565b600085815260208120601f198616915b828110156158a757888601518255948401946001909101908401615888565b50858210156158c55787850151600019600388901b60f8161c191681555b5050505050600190811b01905550565b600082516158e7818460208701614eb9565b9190910192915050565b805160208201516001600160601b031980821692919060148310156159205780818460140360031b1b83161693505b505050919050565b600061ffff808816835280871660208401525084604083015260806060830152614a6a6080830184866155f0565b61ffff861681526080602082015260006159746080830186886155f0565b6001600160401b0394909416604083015250606001529392505050565b6001600160401b038311156159a8576159a861511b565b6159bc836159b6835461553a565b836157c1565b6000601f8411600181146159ea57600085156159d85750838201355b6159e28682615807565b845550610da6565b600083815260209020601f19861690835b82811015615a1b57868501358255602094850194600190920191016159fb565b5086821015615a385760001960f88860031b161c19848701351681555b505060018560011b0183555050505050565b634e487b7160e01b600052603260045260246000fd5b600060018201615a7257615a72615511565b5060010190565b60608101615a878285615759565b82516020830152602083015160408301529392505050565b600082601f830112615ab057600080fd5b8151615abe6151d08261518a565b818152846020838601011115615ad357600080fd5b6129cb826020830160208701614eb9565b600060208284031215615af657600080fd5b81516001600160401b03811115615b0c57600080fd5b6129cb84828501615a9f565b61ffff85168152608060208201526000615b356080830186614edd565b6001600160401b03851660408401528281036060840152614a6a8185614edd565b8082028115828204841417610c8c57610c8c615511565b600082615b8a57634e487b7160e01b600052601260045260246000fd5b500490565b6020808252602b908201527f496e697469616c697a61626c653a20636f6e7472616374206973206e6f74206960408201526a6e697469616c697a696e6760a81b606082015260800190565b61ffff861681526001600160a01b038516602082015260a060408201819052600090615c0890830186614edd565b84151560608401528281036080840152615c228185614edd565b98975050505050505050565b60008060408385031215615c4157600080fd5b505080516020909101519092909150565b61ffff8716815260c060208201526000615c6f60c0830188614edd565b8281036040840152615c818188614edd565b6001600160a01b0387811660608601528616608085015283810360a08501529050615cac8185614edd565b9998505050505050505050565b600060208284031215615ccb57600080fd5b815160058110610c8957600080fd5b8051614d6981614e59565b60008060408385031215615cf857600080fd5b825160208401519092506001600160401b0380821115615d1757600080fd5b908401906101608287031215615d2c57600080fd5b615d34615131565b615d3d83615cda565b81526020830151602082015260408301516040820152606083015160608201526080830151608082015260a083015160a082015260c083015160c082015260e083015160e08201526101008084015181830152506101208084015181830152506101408084015183811115615db157600080fd5b615dbd89828701615a9f565b8284015250508093505050509250929050565b60008082840360a0811215615de457600080fd5b835192506080601f1982011215615dfa57600080fd5b50604051608081016001600160401b0381118282101715615e1d57615e1d61511b565b6040526020840151615e2e81614e59565b80825250604084015160208201526060840151604082015260808401516060820152809150509250929050565b61ffff8616815260a060208201526000615e7860a0830187614edd565b6001600160401b03861660408401528281036060840152615e998186614edd565b90508281036080840152615c228185614edd565b60408101615ebb8285615759565b825160208301529392505050565b61ffff841681526001600160a01b03831660208201526060604082018190526000906129c890830184614edd565b6001600160a01b0386811682526020820186905261ffff851660408301528316606082015260a060808201819052600090614a6a90830184614edd56feddf252ad1be2c89b69c2b068fc378daa952ba7f163c4a11628f55a4df523b3efa2646970667358221220b2129fec885937b08c53276df34f2b103bf0ef9ee5192c6c681db720bb841d3664736f6c63430008130033",
  "linkReferences": {},
  "deployedLinkReferences": {}
}