{
  "_format": "hh-sol-artifact-1",
  "contractName": "Vault",
  "sourceName": "contracts/Vault.sol",
  "abi": [
    {
      "inputs": [
        {
          "internalType": "uint256",
          "name": "amount",
          "type": "uint256"
        },
        {
          "internalType": "uint256",
          "name": "balance",
          "type": "uint256"
        }
      ],
      "name": "InsufficientFunds",
      "type": "error"
    },
    {
      "anonymous": false,
      "inputs": [
        {
          "indexed": true,
          "internalType": "address",
          "name": "owner",
          "type": "address"
        },
        {
          "indexed": true,
          "internalType": "address",
          "name": "spender",
          "type": "address"
        },
        {
          "indexed": false,
          "internalType": "uint256",
          "name": "value",
          "type": "uint256"
        }
      ],
      "name": "Approval",
      "type": "event"
    },
    {
      "anonymous": false,
      "inputs": [
        {
          "indexed": false,
          "internalType": "uint256",
          "name": "epochId",
          "type": "uint256"
        },
        {
          "indexed": false,
          "internalType": "uint256",
          "name": "requestCount",
          "type": "uint256"
        }
      ],
      "name": "FulfilledWithdrawEpoch",
      "type": "event"
    },
    {
      "anonymous": false,
      "inputs": [
        {
          "indexed": false,
          "internalType": "uint8",
          "name": "version",
          "type": "uint8"
        }
      ],
      "name": "Initialized",
      "type": "event"
    },
    {
      "anonymous": false,
      "inputs": [
        {
          "indexed": false,
          "internalType": "uint16",
          "name": "_srcChainId",
          "type": "uint16"
        },
        {
          "indexed": false,
          "internalType": "bytes",
          "name": "_srcAddress",
          "type": "bytes"
        },
        {
          "indexed": false,
          "internalType": "uint64",
          "name": "_nonce",
          "type": "uint64"
        },
        {
          "indexed": false,
          "internalType": "bytes",
          "name": "_payload",
          "type": "bytes"
        },
        {
          "indexed": false,
          "internalType": "bytes",
          "name": "_reason",
          "type": "bytes"
        }
      ],
      "name": "MessageFailed",
      "type": "event"
    },
    {
      "anonymous": false,
      "inputs": [
        {
          "indexed": true,
          "internalType": "address",
          "name": "previousOwner",
          "type": "address"
        },
        {
          "indexed": true,
          "internalType": "address",
          "name": "newOwner",
          "type": "address"
        }
      ],
      "name": "OwnershipTransferred",
      "type": "event"
    },
    {
      "anonymous": false,
      "inputs": [
        {
          "indexed": false,
          "internalType": "uint16",
          "name": "_srcChainId",
          "type": "uint16"
        },
        {
          "indexed": false,
          "internalType": "bytes",
          "name": "_srcAddress",
          "type": "bytes"
        },
        {
          "indexed": false,
          "internalType": "uint64",
          "name": "_nonce",
          "type": "uint64"
        },
        {
          "indexed": false,
          "internalType": "bytes32",
          "name": "_payloadHash",
          "type": "bytes32"
        }
      ],
      "name": "RetryMessageSuccess",
      "type": "event"
    },
    {
      "anonymous": false,
      "inputs": [
        {
          "indexed": false,
          "internalType": "uint16",
          "name": "_dstChainId",
          "type": "uint16"
        },
        {
          "indexed": false,
          "internalType": "uint16",
          "name": "_type",
          "type": "uint16"
        },
        {
          "indexed": false,
          "internalType": "uint256",
          "name": "_minDstGas",
          "type": "uint256"
        }
      ],
      "name": "SetMinDstGas",
      "type": "event"
    },
    {
      "anonymous": false,
      "inputs": [
        {
          "indexed": false,
          "internalType": "address",
          "name": "precrime",
          "type": "address"
        }
      ],
      "name": "SetPrecrime",
      "type": "event"
    },
    {
      "anonymous": false,
      "inputs": [
        {
          "indexed": false,
          "internalType": "uint16",
          "name": "_remoteChainId",
          "type": "uint16"
        },
        {
          "indexed": false,
          "internalType": "bytes",
          "name": "_path",
          "type": "bytes"
        }
      ],
      "name": "SetTrustedRemote",
      "type": "event"
    },
    {
      "anonymous": false,
      "inputs": [
        {
          "indexed": false,
          "internalType": "uint16",
          "name": "_remoteChainId",
          "type": "uint16"
        },
        {
          "indexed": false,
          "internalType": "bytes",
          "name": "_remoteAddress",
          "type": "bytes"
        }
      ],
      "name": "SetTrustedRemoteAddress",
      "type": "event"
    },
    {
      "anonymous": false,
      "inputs": [
        {
          "indexed": true,
          "internalType": "address",
          "name": "token",
          "type": "address"
        },
        {
          "indexed": false,
          "internalType": "uint256",
          "name": "amount",
          "type": "uint256"
        },
        {
          "indexed": false,
          "internalType": "address",
          "name": "sender",
          "type": "address"
        }
      ],
      "name": "SgReceived",
      "type": "event"
    },
    {
      "anonymous": false,
      "inputs": [
        {
          "indexed": false,
          "internalType": "uint16",
          "name": "chainId",
          "type": "uint16"
        },
        {
          "indexed": false,
          "internalType": "address",
          "name": "strategy",
          "type": "address"
        },
        {
          "indexed": false,
          "internalType": "uint256",
          "name": "gain",
          "type": "uint256"
        },
        {
          "indexed": false,
          "internalType": "uint256",
          "name": "loss",
          "type": "uint256"
        },
        {
          "indexed": false,
          "internalType": "uint256",
          "name": "debtPaid",
          "type": "uint256"
        },
        {
          "indexed": false,
          "internalType": "uint256",
          "name": "totalGain",
          "type": "uint256"
        },
        {
          "indexed": false,
          "internalType": "uint256",
          "name": "totalLoss",
          "type": "uint256"
        },
        {
          "indexed": false,
          "internalType": "uint256",
          "name": "totalDebt",
          "type": "uint256"
        },
        {
          "indexed": false,
          "internalType": "uint256",
          "name": "debtAdded",
          "type": "uint256"
        },
        {
          "indexed": false,
          "internalType": "uint256",
          "name": "debtRatio",
          "type": "uint256"
        },
        {
          "indexed": false,
          "internalType": "uint256",
          "name": "tokens",
          "type": "uint256"
        }
      ],
      "name": "StrategyReported",
      "type": "event"
    },
    {
      "anonymous": false,
      "inputs": [
        {
          "indexed": true,
          "internalType": "uint16",
          "name": "chainId",
          "type": "uint16"
        },
        {
          "indexed": true,
          "internalType": "address",
          "name": "strategy",
          "type": "address"
        },
        {
          "indexed": false,
          "internalType": "uint256",
          "name": "amount",
          "type": "uint256"
        },
        {
          "indexed": false,
          "internalType": "uint256",
          "name": "loss",
          "type": "uint256"
        },
        {
          "indexed": false,
          "internalType": "uint256",
          "name": "id",
          "type": "uint256"
        }
      ],
      "name": "StrategyWithdrawnSome",
      "type": "event"
    },
    {
      "anonymous": false,
      "inputs": [
        {
          "indexed": true,
          "internalType": "address",
          "name": "from",
          "type": "address"
        },
        {
          "indexed": true,
          "internalType": "address",
          "name": "to",
          "type": "address"
        },
        {
          "indexed": false,
          "internalType": "uint256",
          "name": "value",
          "type": "uint256"
        }
      ],
      "name": "Transfer",
      "type": "event"
    },
    {
      "inputs": [],
      "name": "DEFAULT_PAYLOAD_SIZE_LIMIT",
      "outputs": [
        {
          "internalType": "uint256",
          "name": "",
          "type": "uint256"
        }
      ],
      "stateMutability": "view",
      "type": "function"
    },
    {
      "inputs": [
        {
          "internalType": "uint16",
          "name": "_chainId",
          "type": "uint16"
        },
        {
          "internalType": "address",
          "name": "_strategy",
          "type": "address"
        },
        {
          "internalType": "uint256",
          "name": "_debtRatio",
          "type": "uint256"
        },
        {
          "internalType": "uint256",
          "name": "_performanceFee",
          "type": "uint256"
        },
        {
          "internalType": "address",
          "name": "_strategist",
          "type": "address"
        }
      ],
      "name": "addStrategy",
      "outputs": [],
      "stateMutability": "nonpayable",
      "type": "function"
    },
    {
      "inputs": [
        {
          "internalType": "address",
          "name": "owner",
          "type": "address"
        },
        {
          "internalType": "address",
          "name": "spender",
          "type": "address"
        }
      ],
      "name": "allowance",
      "outputs": [
        {
          "internalType": "uint256",
          "name": "",
          "type": "uint256"
        }
      ],
      "stateMutability": "view",
      "type": "function"
    },
    {
      "inputs": [
        {
          "internalType": "address",
          "name": "spender",
          "type": "address"
        },
        {
          "internalType": "uint256",
          "name": "amount",
          "type": "uint256"
        }
      ],
      "name": "approve",
      "outputs": [
        {
          "internalType": "bool",
          "name": "",
          "type": "bool"
        }
      ],
      "stateMutability": "nonpayable",
      "type": "function"
    },
    {
      "inputs": [
        {
          "internalType": "address",
          "name": "account",
          "type": "address"
        }
      ],
      "name": "balanceOf",
      "outputs": [
        {
          "internalType": "uint256",
          "name": "",
          "type": "uint256"
        }
      ],
      "stateMutability": "view",
      "type": "function"
    },
    {
      "inputs": [
        {
          "internalType": "uint16",
          "name": "_chainId",
          "type": "uint16"
        },
        {
          "internalType": "address",
          "name": "_strategy",
          "type": "address"
        }
      ],
      "name": "creditAvailable",
      "outputs": [
        {
          "internalType": "uint256",
          "name": "",
          "type": "uint256"
        }
      ],
      "stateMutability": "view",
      "type": "function"
    },
    {
      "inputs": [
        {
          "internalType": "uint16",
          "name": "_chainId",
          "type": "uint16"
        },
        {
          "internalType": "address",
          "name": "_strategy",
          "type": "address"
        }
      ],
      "name": "debtOutstanding",
      "outputs": [
        {
          "internalType": "uint256",
          "name": "",
          "type": "uint256"
        }
      ],
      "stateMutability": "view",
      "type": "function"
    },
    {
      "inputs": [],
      "name": "decimals",
      "outputs": [
        {
          "internalType": "uint8",
          "name": "",
          "type": "uint8"
        }
      ],
      "stateMutability": "view",
      "type": "function"
    },
    {
      "inputs": [
        {
          "internalType": "address",
          "name": "spender",
          "type": "address"
        },
        {
          "internalType": "uint256",
          "name": "subtractedValue",
          "type": "uint256"
        }
      ],
      "name": "decreaseAllowance",
      "outputs": [
        {
          "internalType": "bool",
          "name": "",
          "type": "bool"
        }
      ],
      "stateMutability": "nonpayable",
      "type": "function"
    },
    {
      "inputs": [
        {
          "internalType": "uint256",
          "name": "_amount",
          "type": "uint256"
        },
        {
          "internalType": "address",
          "name": "_recipient",
          "type": "address"
        }
      ],
      "name": "deposit",
      "outputs": [
        {
          "internalType": "uint256",
          "name": "",
          "type": "uint256"
        }
      ],
      "stateMutability": "nonpayable",
      "type": "function"
    },
    {
      "inputs": [],
      "name": "emergencyShutdown",
      "outputs": [
        {
          "internalType": "bool",
          "name": "",
          "type": "bool"
        }
      ],
      "stateMutability": "view",
      "type": "function"
    },
    {
      "inputs": [
        {
          "internalType": "uint16",
          "name": "",
          "type": "uint16"
        },
        {
          "internalType": "bytes",
          "name": "",
          "type": "bytes"
        },
        {
          "internalType": "uint64",
          "name": "",
          "type": "uint64"
        }
      ],
      "name": "failedMessages",
      "outputs": [
        {
          "internalType": "bytes32",
          "name": "",
          "type": "bytes32"
        }
      ],
      "stateMutability": "view",
      "type": "function"
    },
    {
      "inputs": [
        {
          "internalType": "uint16",
          "name": "_srcChainId",
          "type": "uint16"
        },
        {
          "internalType": "bytes",
          "name": "_srcAddress",
          "type": "bytes"
        }
      ],
      "name": "forceResumeReceive",
      "outputs": [],
      "stateMutability": "nonpayable",
      "type": "function"
    },
    {
      "inputs": [
        {
          "internalType": "uint16",
          "name": "_version",
          "type": "uint16"
        },
        {
          "internalType": "uint16",
          "name": "_chainId",
          "type": "uint16"
        },
        {
          "internalType": "address",
          "name": "",
          "type": "address"
        },
        {
          "internalType": "uint256",
          "name": "_configType",
          "type": "uint256"
        }
      ],
      "name": "getConfig",
      "outputs": [
        {
          "internalType": "bytes",
          "name": "",
          "type": "bytes"
        }
      ],
      "stateMutability": "view",
      "type": "function"
    },
    {
      "inputs": [
        {
          "internalType": "uint16",
          "name": "_remoteChainId",
          "type": "uint16"
        }
      ],
      "name": "getTrustedRemoteAddress",
      "outputs": [
        {
          "internalType": "bytes",
          "name": "",
          "type": "bytes"
        }
      ],
      "stateMutability": "view",
      "type": "function"
    },
    {
      "inputs": [],
      "name": "governance",
      "outputs": [
        {
          "internalType": "address",
          "name": "",
          "type": "address"
        }
      ],
      "stateMutability": "view",
      "type": "function"
    },
    {
      "inputs": [],
      "name": "handleWithdrawals",
      "outputs": [],
      "stateMutability": "nonpayable",
      "type": "function"
    },
    {
      "inputs": [
        {
          "internalType": "address",
          "name": "spender",
          "type": "address"
        },
        {
          "internalType": "uint256",
          "name": "addedValue",
          "type": "uint256"
        }
      ],
      "name": "increaseAllowance",
      "outputs": [
        {
          "internalType": "bool",
          "name": "",
          "type": "bool"
        }
      ],
      "stateMutability": "nonpayable",
      "type": "function"
    },
    {
      "inputs": [
        {
          "internalType": "address",
          "name": "_governance",
          "type": "address"
        },
        {
          "internalType": "address",
          "name": "_lzEndpoint",
          "type": "address"
        },
        {
          "internalType": "contract IERC20",
          "name": "_token",
          "type": "address"
        },
        {
          "internalType": "address",
          "name": "_sgBridge",
          "type": "address"
        },
        {
          "internalType": "address",
          "name": "_sgRouter",
          "type": "address"
        }
      ],
      "name": "initialize",
      "outputs": [],
      "stateMutability": "nonpayable",
      "type": "function"
    },
    {
      "inputs": [
        {
          "internalType": "uint16",
          "name": "_srcChainId",
          "type": "uint16"
        },
        {
          "internalType": "bytes",
          "name": "_srcAddress",
          "type": "bytes"
        }
      ],
      "name": "isTrustedRemote",
      "outputs": [
        {
          "internalType": "bool",
          "name": "",
          "type": "bool"
        }
      ],
      "stateMutability": "view",
      "type": "function"
    },
    {
      "inputs": [],
      "name": "lzEndpoint",
      "outputs": [
        {
          "internalType": "contract ILayerZeroEndpointUpgradeable",
          "name": "",
          "type": "address"
        }
      ],
      "stateMutability": "view",
      "type": "function"
    },
    {
      "inputs": [
        {
          "internalType": "uint16",
          "name": "_srcChainId",
          "type": "uint16"
        },
        {
          "internalType": "bytes",
          "name": "_srcAddress",
          "type": "bytes"
        },
        {
          "internalType": "uint64",
          "name": "_nonce",
          "type": "uint64"
        },
        {
          "internalType": "bytes",
          "name": "_payload",
          "type": "bytes"
        }
      ],
      "name": "lzReceive",
      "outputs": [],
      "stateMutability": "nonpayable",
      "type": "function"
    },
    {
      "inputs": [
        {
          "internalType": "uint16",
          "name": "_chainId",
          "type": "uint16"
        },
        {
          "internalType": "address",
          "name": "_oldStrategy",
          "type": "address"
        },
        {
          "internalType": "address",
          "name": "_newStrategy",
          "type": "address"
        }
      ],
      "name": "migrateStrategy",
      "outputs": [],
      "stateMutability": "nonpayable",
      "type": "function"
    },
    {
      "inputs": [
        {
          "internalType": "uint16",
          "name": "",
          "type": "uint16"
        },
        {
          "internalType": "uint16",
          "name": "",
          "type": "uint16"
        }
      ],
      "name": "minDstGasLookup",
      "outputs": [
        {
          "internalType": "uint256",
          "name": "",
          "type": "uint256"
        }
      ],
      "stateMutability": "view",
      "type": "function"
    },
    {
      "inputs": [],
      "name": "name",
      "outputs": [
        {
          "internalType": "string",
          "name": "",
          "type": "string"
        }
      ],
      "stateMutability": "view",
      "type": "function"
    },
    {
      "inputs": [
        {
          "internalType": "uint16",
          "name": "_srcChainId",
          "type": "uint16"
        },
        {
          "internalType": "bytes",
          "name": "_srcAddress",
          "type": "bytes"
        },
        {
          "internalType": "uint64",
          "name": "_nonce",
          "type": "uint64"
        },
        {
          "internalType": "bytes",
          "name": "_payload",
          "type": "bytes"
        }
      ],
      "name": "nonblockingLzReceive",
      "outputs": [],
      "stateMutability": "nonpayable",
      "type": "function"
    },
    {
      "inputs": [],
      "name": "owner",
      "outputs": [
        {
          "internalType": "address",
          "name": "",
          "type": "address"
        }
      ],
      "stateMutability": "view",
      "type": "function"
    },
    {
      "inputs": [
        {
          "internalType": "uint16",
          "name": "",
          "type": "uint16"
        }
      ],
      "name": "payloadSizeLimitLookup",
      "outputs": [
        {
          "internalType": "uint256",
          "name": "",
          "type": "uint256"
        }
      ],
      "stateMutability": "view",
      "type": "function"
    },
    {
      "inputs": [],
      "name": "precrime",
      "outputs": [
        {
          "internalType": "address",
          "name": "",
          "type": "address"
        }
      ],
      "stateMutability": "view",
      "type": "function"
    },
    {
      "inputs": [],
      "name": "pricePerShare",
      "outputs": [
        {
          "internalType": "uint256",
          "name": "",
          "type": "uint256"
        }
      ],
      "stateMutability": "view",
      "type": "function"
    },
    {
      "inputs": [],
      "name": "renounceOwnership",
      "outputs": [],
      "stateMutability": "nonpayable",
      "type": "function"
    },
    {
      "inputs": [
        {
          "internalType": "uint16",
          "name": "_srcChainId",
          "type": "uint16"
        },
        {
          "internalType": "bytes",
          "name": "_srcAddress",
          "type": "bytes"
        },
        {
          "internalType": "uint64",
          "name": "_nonce",
          "type": "uint64"
        },
        {
          "internalType": "bytes",
          "name": "_payload",
          "type": "bytes"
        }
      ],
      "name": "retryMessage",
      "outputs": [],
      "stateMutability": "payable",
      "type": "function"
    },
    {
      "inputs": [],
      "name": "revokeFunds",
      "outputs": [],
      "stateMutability": "nonpayable",
      "type": "function"
    },
    {
      "inputs": [
        {
          "internalType": "uint16",
          "name": "_chainId",
          "type": "uint16"
        },
        {
          "internalType": "address",
          "name": "_strategy",
          "type": "address"
        }
      ],
      "name": "revokeStrategy",
      "outputs": [],
      "stateMutability": "nonpayable",
      "type": "function"
    },
    {
      "inputs": [
        {
          "internalType": "uint16",
          "name": "_version",
          "type": "uint16"
        },
        {
          "internalType": "uint16",
          "name": "_chainId",
          "type": "uint16"
        },
        {
          "internalType": "uint256",
          "name": "_configType",
          "type": "uint256"
        },
        {
          "internalType": "bytes",
          "name": "_config",
          "type": "bytes"
        }
      ],
      "name": "setConfig",
      "outputs": [],
      "stateMutability": "nonpayable",
      "type": "function"
    },
    {
      "inputs": [
        {
          "internalType": "bool",
          "name": "_emergencyShutdown",
          "type": "bool"
        }
      ],
      "name": "setEmergencyShutdown",
      "outputs": [],
      "stateMutability": "nonpayable",
      "type": "function"
    },
    {
      "inputs": [
        {
          "internalType": "address",
          "name": "_newGovernance",
          "type": "address"
        }
      ],
      "name": "setGovernance",
      "outputs": [],
      "stateMutability": "nonpayable",
      "type": "function"
    },
    {
      "inputs": [
        {
          "internalType": "uint16",
          "name": "_dstChainId",
          "type": "uint16"
        },
        {
          "internalType": "uint16",
          "name": "_packetType",
          "type": "uint16"
        },
        {
          "internalType": "uint256",
          "name": "_minGas",
          "type": "uint256"
        }
      ],
      "name": "setMinDstGas",
      "outputs": [],
      "stateMutability": "nonpayable",
      "type": "function"
    },
    {
      "inputs": [
        {
          "internalType": "uint16",
          "name": "_dstChainId",
          "type": "uint16"
        },
        {
          "internalType": "uint256",
          "name": "_size",
          "type": "uint256"
        }
      ],
      "name": "setPayloadSizeLimit",
      "outputs": [],
      "stateMutability": "nonpayable",
      "type": "function"
    },
    {
      "inputs": [
        {
          "internalType": "address",
          "name": "_precrime",
          "type": "address"
        }
      ],
      "name": "setPrecrime",
      "outputs": [],
      "stateMutability": "nonpayable",
      "type": "function"
    },
    {
      "inputs": [
        {
          "internalType": "uint16",
          "name": "_version",
          "type": "uint16"
        }
      ],
      "name": "setReceiveVersion",
      "outputs": [],
      "stateMutability": "nonpayable",
      "type": "function"
    },
    {
      "inputs": [
        {
          "internalType": "uint16",
          "name": "_version",
          "type": "uint16"
        }
      ],
      "name": "setSendVersion",
      "outputs": [],
      "stateMutability": "nonpayable",
      "type": "function"
    },
    {
      "inputs": [
        {
          "internalType": "uint16",
          "name": "_chainId",
          "type": "uint16"
        },
        {
          "internalType": "address",
          "name": "_strategy",
          "type": "address"
        },
        {
          "internalType": "address",
          "name": "_newStrategist",
          "type": "address"
        }
      ],
      "name": "setStrategist",
      "outputs": [],
      "stateMutability": "nonpayable",
      "type": "function"
    },
    {
      "inputs": [
        {
          "internalType": "uint16",
          "name": "_srcChainId",
          "type": "uint16"
        },
        {
          "internalType": "bytes",
          "name": "_path",
          "type": "bytes"
        }
      ],
      "name": "setTrustedRemote",
      "outputs": [],
      "stateMutability": "nonpayable",
      "type": "function"
    },
    {
      "inputs": [
        {
          "internalType": "uint16",
          "name": "_remoteChainId",
          "type": "uint16"
        },
        {
          "internalType": "bytes",
          "name": "_remoteAddress",
          "type": "bytes"
        }
      ],
      "name": "setTrustedRemoteAddress",
      "outputs": [],
      "stateMutability": "nonpayable",
      "type": "function"
    },
    {
      "inputs": [],
      "name": "sgBridge",
      "outputs": [
        {
          "internalType": "contract ISgBridge",
          "name": "",
          "type": "address"
        }
      ],
      "stateMutability": "view",
      "type": "function"
    },
    {
      "inputs": [
        {
          "internalType": "uint16",
          "name": "_srcChainId",
          "type": "uint16"
        },
        {
          "internalType": "bytes",
          "name": "_srcAddress",
          "type": "bytes"
        },
        {
          "internalType": "uint256",
          "name": "",
          "type": "uint256"
        },
        {
          "internalType": "address",
          "name": "_token",
          "type": "address"
        },
        {
          "internalType": "uint256",
          "name": "_amountLD",
          "type": "uint256"
        },
        {
          "internalType": "bytes",
          "name": "_payload",
          "type": "bytes"
        }
      ],
      "name": "sgReceive",
      "outputs": [],
      "stateMutability": "nonpayable",
      "type": "function"
    },
    {
      "inputs": [],
      "name": "sgRouter",
      "outputs": [
        {
          "internalType": "address",
          "name": "",
          "type": "address"
        }
      ],
      "stateMutability": "view",
      "type": "function"
    },
    {
      "inputs": [
        {
          "internalType": "uint16",
          "name": "",
          "type": "uint16"
        },
        {
          "internalType": "address",
          "name": "",
          "type": "address"
        }
      ],
      "name": "strategies",
      "outputs": [
        {
          "internalType": "uint256",
          "name": "activation",
          "type": "uint256"
        },
        {
          "internalType": "uint256",
          "name": "debtRatio",
          "type": "uint256"
        },
        {
          "internalType": "uint256",
          "name": "totalDebt",
          "type": "uint256"
        },
        {
          "internalType": "uint256",
          "name": "totalGain",
          "type": "uint256"
        },
        {
          "internalType": "uint256",
          "name": "totalLoss",
          "type": "uint256"
        },
        {
          "internalType": "uint256",
          "name": "lastReport",
          "type": "uint256"
        },
        {
          "internalType": "uint256",
          "name": "performanceFee",
          "type": "uint256"
        },
        {
          "internalType": "address",
          "name": "strategist",
          "type": "address"
        }
      ],
      "stateMutability": "view",
      "type": "function"
    },
    {
      "inputs": [],
      "name": "symbol",
      "outputs": [
        {
          "internalType": "string",
          "name": "",
          "type": "string"
        }
      ],
      "stateMutability": "view",
      "type": "function"
    },
    {
      "inputs": [],
      "name": "token",
      "outputs": [
        {
          "internalType": "contract IERC20",
          "name": "",
          "type": "address"
        }
      ],
      "stateMutability": "view",
      "type": "function"
    },
    {
      "inputs": [],
      "name": "totalAssets",
      "outputs": [
        {
          "internalType": "uint256",
          "name": "",
          "type": "uint256"
        }
      ],
      "stateMutability": "view",
      "type": "function"
    },
    {
      "inputs": [],
      "name": "totalDebt",
      "outputs": [
        {
          "internalType": "uint256",
          "name": "",
          "type": "uint256"
        }
      ],
      "stateMutability": "view",
      "type": "function"
    },
    {
      "inputs": [],
      "name": "totalDebtRatio",
      "outputs": [
        {
          "internalType": "uint256",
          "name": "",
          "type": "uint256"
        }
      ],
      "stateMutability": "view",
      "type": "function"
    },
    {
      "inputs": [],
      "name": "totalIdle",
      "outputs": [
        {
          "internalType": "uint256",
          "name": "",
          "type": "uint256"
        }
      ],
      "stateMutability": "view",
      "type": "function"
    },
    {
      "inputs": [],
      "name": "totalSupply",
      "outputs": [
        {
          "internalType": "uint256",
          "name": "",
          "type": "uint256"
        }
      ],
      "stateMutability": "view",
      "type": "function"
    },
    {
      "inputs": [
        {
          "internalType": "address",
          "name": "to",
          "type": "address"
        },
        {
          "internalType": "uint256",
          "name": "amount",
          "type": "uint256"
        }
      ],
      "name": "transfer",
      "outputs": [
        {
          "internalType": "bool",
          "name": "",
          "type": "bool"
        }
      ],
      "stateMutability": "nonpayable",
      "type": "function"
    },
    {
      "inputs": [
        {
          "internalType": "address",
          "name": "from",
          "type": "address"
        },
        {
          "internalType": "address",
          "name": "to",
          "type": "address"
        },
        {
          "internalType": "uint256",
          "name": "amount",
          "type": "uint256"
        }
      ],
      "name": "transferFrom",
      "outputs": [
        {
          "internalType": "bool",
          "name": "",
          "type": "bool"
        }
      ],
      "stateMutability": "nonpayable",
      "type": "function"
    },
    {
      "inputs": [
        {
          "internalType": "address",
          "name": "newOwner",
          "type": "address"
        }
      ],
      "name": "transferOwnership",
      "outputs": [],
      "stateMutability": "nonpayable",
      "type": "function"
    },
    {
      "inputs": [
        {
          "internalType": "uint16",
          "name": "",
          "type": "uint16"
        }
      ],
      "name": "trustedRemoteLookup",
      "outputs": [
        {
          "internalType": "bytes",
          "name": "",
          "type": "bytes"
        }
      ],
      "stateMutability": "view",
      "type": "function"
    },
    {
      "inputs": [
        {
          "internalType": "uint16",
          "name": "_chainId",
          "type": "uint16"
        },
        {
          "internalType": "address",
          "name": "_strategy",
          "type": "address"
        },
        {
          "internalType": "uint256",
          "name": "_debtRatio",
          "type": "uint256"
        }
      ],
      "name": "updateStrategyDebtRatio",
      "outputs": [],
      "stateMutability": "nonpayable",
      "type": "function"
    },
    {
      "inputs": [
        {
          "internalType": "uint256",
          "name": "_maxShares",
          "type": "uint256"
        },
        {
          "internalType": "address",
          "name": "_recipient",
          "type": "address"
        },
        {
          "internalType": "uint256",
          "name": "_maxLoss",
          "type": "uint256"
        }
      ],
      "name": "withdraw",
      "outputs": [],
      "stateMutability": "nonpayable",
      "type": "function"
    },
    {
      "inputs": [],
      "name": "withdrawEpoch",
      "outputs": [
        {
          "internalType": "uint256",
          "name": "",
          "type": "uint256"
        }
      ],
      "stateMutability": "view",
      "type": "function"
    },
    {
      "stateMutability": "payable",
      "type": "receive"
    }
  ],
  "bytecode": "0x608060405234801561001057600080fd5b50615eef80620000216000396000f3fe6080604052600436106102db5760003560e01c80637533d788116101825780637533d788146107b15780638cfd8f5c146107d15780638da5cb5b14610809578063950c8a741461081e57806395d89b411461083e57806399530b06146108535780639aa7df94146108685780639f38369a1461087d578063a032a7121461089d578063a457c2d7146108bd578063a6c3d165146108dd578063a9059cbb146108fd578063ab033ea91461091d578063ab73ce461461093d578063ab8236f314610954578063b353aaa714610974578063baf3292d14610994578063c4461834146109b4578063cbed8b9c146109ca578063cfbcc644146109ea578063d1deba1f14610a0a578063dd62ed3e14610a1d578063dde4f08e14610a3d578063df2a5b3b14610a5d578063e63697c814610a7d578063e7fda06114610a9d578063eb8d72b714610abd578063ef34253c14610add578063f2fde38b14610af2578063f5ecbdbc14610b12578063fc0c546a14610b32578063fc7b9c1814610b5257600080fd5b80621d3567146102e757806301dc2eb11461030957806301e1d1141461033c5780630517cb761461035157806306fdde031461037f57806307e0db17146103a1578063095ea7b3146103c15780630a97c254146103f15780630df374831461041157806310ddb137146104315780631459457a1461045157806314c644021461047157806318160ddd1461049157806323b872dd146104a65780632d606843146104c65780632df9eab9146104db578063313ce567146104f15780633403c2fc1461051857806337fded911461053357806339509351146105535780633d8b38f6146105735780633f1f4fa4146105935780634067cb9e146105c057806342d65a8d1461067757806352106a49146106975780635aa6e675146106b75780635b8c41e6146106d757806366ad5c8a146107265780636e553f651461074657806370a0823114610766578063715018a61461079c57600080fd5b366102e257005b600080fd5b3480156102f357600080fd5b50610307610302366004614cd4565b610b68565b005b34801561031557600080fd5b50610329610324366004614d7c565b610c2b565b6040519081526020015b60405180910390f35b34801561034857600080fd5b50610329610c40565b34801561035d57600080fd5b5061010854610372906001600160a01b031681565b6040516103339190614db3565b34801561038b57600080fd5b50610394610c5c565b6040516103339190614e17565b3480156103ad57600080fd5b506103076103bc366004614e2a565b610cee565b3480156103cd57600080fd5b506103e16103dc366004614e45565b610d5b565b6040519015158152602001610333565b3480156103fd57600080fd5b5061030761040c366004614e71565b610d73565b34801561041d57600080fd5b5061030761042c366004614eb0565b610e93565b34801561043d57600080fd5b5061030761044c366004614e2a565b610eb2565b34801561045d57600080fd5b5061030761046c366004614ecc565b610eee565b34801561047d57600080fd5b5061030761048c366004614f4b565b611116565b34801561049d57600080fd5b50603554610329565b3480156104b257600080fd5b506103e16104c1366004614f68565b611177565b3480156104d257600080fd5b5061030761119b565b3480156104e757600080fd5b5061032960fe5481565b3480156104fd57600080fd5b50610506611217565b60405160ff9091168152602001610333565b34801561052457600080fd5b50610100546103e19060ff1681565b34801561053f57600080fd5b5060fd54610372906001600160a01b031681565b34801561055f57600080fd5b506103e161056e366004614e45565b611285565b34801561057f57600080fd5b506103e161058e366004614f88565b6112a7565b34801561059f57600080fd5b506103296105ae366004614e2a565b609a6020526000908152604090205481565b3480156105cc57600080fd5b506106336105db366004614d7c565b610101602090815260009283526040808420909152908252902080546001820154600283015460038401546004850154600586015460068701546007909701549596949593949293919290916001600160a01b031688565b604080519889526020890197909752958701949094526060860192909252608085015260a084015260c08301526001600160a01b031660e082015261010001610333565b34801561068357600080fd5b50610307610692366004614f88565b611373565b3480156106a357600080fd5b506103076106b2366004614fda565b6113e6565b3480156106c357600080fd5b5060fb54610372906001600160a01b031681565b3480156106e357600080fd5b506103296106f2366004615115565b60c9602090815260009384526040808520845180860184018051928152908401958401959095209452929052825290205481565b34801561073257600080fd5b50610307610741366004614cd4565b61161d565b34801561075257600080fd5b50610329610761366004615172565b6116f1565b34801561077257600080fd5b50610329610781366004615197565b6001600160a01b031660009081526033602052604090205490565b3480156107a857600080fd5b506103076116fd565b3480156107bd57600080fd5b506103946107cc366004614e2a565b611711565b3480156107dd57600080fd5b506103296107ec3660046151b4565b609960209081526000928352604080842090915290825290205481565b34801561081557600080fd5b506103726117ab565b34801561082a57600080fd5b50609b54610372906001600160a01b031681565b34801561084a57600080fd5b506103946117ba565b34801561085f57600080fd5b506103296117c9565b34801561087457600080fd5b506103296117e6565b34801561088957600080fd5b50610394610898366004614e2a565b611858565b3480156108a957600080fd5b506103076108b83660046151e7565b61196e565b3480156108c957600080fd5b506103e16108d8366004614e45565b611cea565b3480156108e957600080fd5b506103076108f8366004614f88565b611d65565b34801561090957600080fd5b506103e1610918366004614e45565b611dee565b34801561092957600080fd5b50610307610938366004615197565b611dfc565b34801561094957600080fd5b506103296101025481565b34801561096057600080fd5b5061030761096f366004615230565b611e6b565b34801561098057600080fd5b50609754610372906001600160a01b031681565b3480156109a057600080fd5b506103076109af366004615197565b611fb9565b3480156109c057600080fd5b5061032961271081565b3480156109d657600080fd5b506103076109e53660046152ca565b612017565b3480156109f657600080fd5b50610307610a05366004614d7c565b612090565b610307610a18366004614cd4565b6120eb565b348015610a2957600080fd5b50610329610a38366004615338565b612301565b348015610a4957600080fd5b50610307610a583660046151e7565b61232c565b348015610a6957600080fd5b50610307610a78366004615356565b6123bc565b348015610a8957600080fd5b50610307610a98366004615392565b61246e565b348015610aa957600080fd5b50610329610ab8366004614d7c565b61247e565b348015610ac957600080fd5b50610307610ad8366004614f88565b61248a565b348015610ae957600080fd5b506103076124e4565b348015610afe57600080fd5b50610307610b0d366004615197565b6127ba565b348015610b1e57600080fd5b50610394610b2d3660046153b9565b612830565b348015610b3e57600080fd5b5060fc54610372906001600160a01b031681565b348015610b5e57600080fd5b5061032960ff5481565b6097546001600160a01b03163314610bad5760405162461bcd60e51b815260206004820152600360248201526205631360ec1b60448201526064015b60405180910390fd5b610c238686868080601f01602080910402602001604051908101604052809392919081815260200183838082843760009201919091525050604080516020601f8901819004810282018101909252878152899350915087908790819084018382808284376000920191909152506128c592505050565b505050505050565b6000610c37838361293e565b90505b92915050565b6000610c4a6117e6565b60ff54610c57919061541c565b905090565b606060368054610c6b9061542f565b80601f0160208091040260200160405190810160405280929190818152602001828054610c979061542f565b8015610ce45780601f10610cb957610100808354040283529160200191610ce4565b820191906000526020600020905b815481529060010190602001808311610cc757829003601f168201915b5050505050905090565b610cf6612a06565b6097546040516307e0db1760e01b815261ffff831660048201526001600160a01b03909116906307e0db17906024015b600060405180830381600087803b158015610d4057600080fd5b505af1158015610d54573d6000803e3d6000fd5b5050505050565b600033610d69818585612a65565b5060019392505050565b60fb546001600160a01b0316331480610da45750610d8f6117ab565b6001600160a01b0316336001600160a01b0316145b610dc05760405162461bcd60e51b8152600401610ba490615469565b61ffff83166000908152610101602090815260408083206001600160a01b038616845290915281206001015460fe805491929091610dff908490615485565b909155505061ffff83166000908152610101602090815260408083206001600160a01b0386168452909152902060010181905560fe5461271090610e4490839061541c565b1115610e775760405162461bcd60e51b81526020600482015260026024820152612b1b60f11b6044820152606401610ba4565b8060fe6000828254610e89919061541c565b9091555050505050565b610e9b612a06565b61ffff9091166000908152609a6020526040902055565b610eba612a06565b6097546040516310ddb13760e01b815261ffff831660048201526001600160a01b03909116906310ddb13790602401610d26565b600054610100900460ff1615808015610f0e5750600054600160ff909116105b80610f2f5750610f1d30612b89565b158015610f2f575060005460ff166001145b610f925760405162461bcd60e51b815260206004820152602e60248201527f496e697469616c697a61626c653a20636f6e747261637420697320616c72656160448201526d191e481a5b9a5d1a585b1a5e995960921b6064820152608401610ba4565b6000805460ff191660011790558015610fb5576000805461ff0019166101001790555b610fbe85612b98565b610fc6612bd0565b6110126040518060400160405280600f81526020016e13db5b9a58da185a5b8815985d5b1d608a1b8152506040518060400160405280600381526020016227a6ab60e91b815250612bff565b60fb80546001600160a01b038089166001600160a01b03199283161790925560fc8054878416908316811790915560fd805487851690841617905561010880549386169390921692909217905560405163095ea7b360e01b815263095ea7b39061108490869060001990600401615498565b6020604051808303816000875af11580156110a3573d6000803e3d6000fd5b505050506040513d601f19601f820116820180604052508101906110c791906154b1565b508015610c23576000805461ff0019169055604051600181527f7f26b83ff96e1f2b6a682f133852f6798a09c465da95921460cefb3847402498906020015b60405180910390a1505050505050565b60fb546001600160a01b031633148061114757506111326117ab565b6001600160a01b0316336001600160a01b0316145b6111635760405162461bcd60e51b8152600401610ba490615469565b610100805460ff1916911515919091179055565b600033611185858285612c30565b611190858585612caa565b506001949350505050565b60fb546001600160a01b03163314806111cc57506111b76117ab565b6001600160a01b0316336001600160a01b0316145b6111e85760405162461bcd60e51b8152600401610ba490615469565b60405133904780156108fc02916000818181858888f19350505050158015611214573d6000803e3d6000fd5b50565b60fc546040805163313ce56760e01b815290516000926001600160a01b03169163313ce5679160048083019260209291908290030181865afa158015611261573d6000803e3d6000fd5b505050506040513d601f19601f82011682018060405250810190610c5791906154ce565b600033610d698185856112988383612301565b6112a2919061541c565b612a65565b61ffff8316600090815260986020526040812080548291906112c89061542f565b80601f01602080910402602001604051908101604052809291908181526020018280546112f49061542f565b80156113415780601f1061131657610100808354040283529160200191611341565b820191906000526020600020905b81548152906001019060200180831161132457829003601f168201915b5050505050905083836040516113589291906154f1565b60405180910390208180519060200120149150509392505050565b61137b612a06565b6097546040516342d65a8d60e01b81526001600160a01b03909116906342d65a8d906113af9086908690869060040161552a565b600060405180830381600087803b1580156113c957600080fd5b505af11580156113dd573d6000803e3d6000fd5b50505050505050565b60fb546001600160a01b031633148061141757506114026117ab565b6001600160a01b0316336001600160a01b0316145b6114335760405162461bcd60e51b8152600401610ba490615469565b61ffff85166000908152610101602090815260408083206001600160a01b0388168452909152902054859085901561147d5760405162461bcd60e51b8152600401610ba490615548565b6127108560fe5461148e919061541c565b11156114c15760405162461bcd60e51b8152602060048201526002602482015261563560f01b6044820152606401610ba4565b60405180610100016040528042815260200186815260200160008152602001600081526020016000815260200160008152602001858152602001846001600160a01b031681525061010160008961ffff1661ffff1681526020019081526020016000206000886001600160a01b03166001600160a01b03168152602001908152602001600020600082015181600001556020820151816001015560408201518160020155606082015181600301556080820151816004015560a0820151816005015560c0820151816006015560e08201518160070160006101000a8154816001600160a01b0302191690836001600160a01b031602179055509050506115eb8661010360008a61ffff1661ffff168152602001908152602001600020612e4390919063ffffffff16565b506115fc61010461ffff8916612e58565b508460fe600082825461160f919061541c565b909155505050505050505050565b33301461167b5760405162461bcd60e51b815260206004820152602660248201527f4e6f6e626c6f636b696e674c7a4170703a2063616c6c6572206d7573742062656044820152650204c7a4170760d41b6064820152608401610ba4565b610c238686868080601f01602080910402602001604051908101604052809392919081815260200183838082843760009201919091525050604080516020601f890181900481028201810190925287815289935091508790879081908401838280828437600092019190915250612e6492505050565b6000610c378383612f02565b611705612a06565b61170f6000612f66565b565b6098602052600090815260409020805461172a9061542f565b80601f01602080910402602001604051908101604052809291908181526020018280546117569061542f565b80156117a35780601f10611778576101008083540402835291602001916117a3565b820191906000526020600020905b81548152906001019060200180831161178657829003601f168201915b505050505081565b6065546001600160a01b031690565b606060378054610c6b9061542f565b6000610c576117d6611217565b6117e190600a615648565b612fb8565b60fc546040516370a0823160e01b81526000916001600160a01b0316906370a0823190611817903090600401614db3565b602060405180830381865afa158015611834573d6000803e3d6000fd5b505050506040513d601f19601f82011682018060405250810190610c579190615657565b61ffff811660009081526098602052604081208054606092919061187b9061542f565b80601f01602080910402602001604051908101604052809291908181526020018280546118a79061542f565b80156118f45780601f106118c9576101008083540402835291602001916118f4565b820191906000526020600020905b8154815290600101906020018083116118d757829003601f168201915b50505050509050805160000361194c5760405162461bcd60e51b815260206004820152601d60248201527f4c7a4170703a206e6f20747275737465642070617468207265636f72640000006044820152606401610ba4565b61196760006014835161195f9190615485565b839190612fed565b9392505050565b60fb546001600160a01b031633148061199f575061198a6117ab565b6001600160a01b0316336001600160a01b0316145b6119bb5760405162461bcd60e51b8152600401610ba490615469565b61ffff83166000908152610101602090815260408083206001600160a01b03851684529091529020548390829015611a055760405162461bcd60e51b8152600401610ba490615548565b6001600160a01b038316611a405760405162461bcd60e51b8152602060048201526002602482015261563760f01b6044820152606401610ba4565b600061010160008761ffff1661ffff1681526020019081526020016000206000866001600160a01b03166001600160a01b0316815260200190815260200160002060405180610100016040529081600082015481526020016001820154815260200160028201548152602001600382015481526020016004820154815260200160058201548152602001600682015481526020016007820160009054906101000a90046001600160a01b03166001600160a01b03166001600160a01b03168152505090506040518061010001604052808260a001518152602001826020015181526020018260400151815260200160008152602001600081526020018260a0015181526020018260c0015181526020018260e001516001600160a01b031681525061010160008861ffff1661ffff1681526020019081526020016000206000866001600160a01b03166001600160a01b03168152602001908152602001600020600082015181600001556020820151816001015560408201518160020155606082015181600301556080820151816004015560a0820151816005015560c0820151816006015560e08201518160070160006101000a8154816001600160a01b0302191690836001600160a01b03160217905550905050600061010160008861ffff1661ffff1681526020019081526020016000206000876001600160a01b03166001600160a01b0316815260200190815260200160002060010181905550600061010160008861ffff1661ffff1681526020019081526020016000206000876001600160a01b03166001600160a01b0316815260200190815260200160002060020181905550610c23868660046040518060200160405280896001600160a01b0316815250604051602001611cd69291906156a8565b6040516020818303038152906040526130fa565b60003381611cf88286612301565b905083811015611d585760405162461bcd60e51b815260206004820152602560248201527f45524332303a2064656372656173656420616c6c6f77616e63652062656c6f77604482015264207a65726f60d81b6064820152608401610ba4565b6111908286868403612a65565b611d6d612a06565b818130604051602001611d82939291906156cd565b60408051601f1981840301815291815261ffff8516600090815260986020522090611dad9082615749565b507f8c0400cfe2d1199b1a725c78960bcc2a344d869b80590d0f2bd005db15a572ce838383604051611de19392919061552a565b60405180910390a1505050565b600033610d69818585612caa565b60fb546001600160a01b0316331480611e2d5750611e186117ab565b6001600160a01b0316336001600160a01b0316145b611e495760405162461bcd60e51b8152600401610ba490615469565b60fb80546001600160a01b0319166001600160a01b0392909216919091179055565b60fc546001600160a01b03848116911614611ead5760405162461bcd60e51b81526020600482015260026024820152610ac760f31b6044820152606401610ba4565b610108546001600160a01b0316331480611ed1575060fd546001600160a01b031633145b80611ef45750611edf6117ab565b6001600160a01b0316336001600160a01b0316145b611f255760405162461bcd60e51b8152602060048201526002602482015261563960f01b6044820152606401610ba4565b6000611f3386826014612fed565b604051602001611f439190615802565b604051602081830303815290604052611f5b9061581e565b60601c9050611f6b8783856132a4565b604080518481526001600160a01b0383811660208301528616917f92073a89a07a000083eb8b2575fc15e7bb936efe55d00727d6942a796d7211a7910160405180910390a250505050505050565b611fc1612a06565b609b80546001600160a01b0319166001600160a01b0383161790556040517f5db758e995a17ec1ad84bdef7e8c3293a0bd6179bcce400dff5d4c3d87db726b9061200c908390614db3565b60405180910390a150565b61201f612a06565b6097546040516332fb62e760e21b81526001600160a01b039091169063cbed8b9c906120579088908890889088908890600401615855565b600060405180830381600087803b15801561207157600080fd5b505af1158015612085573d6000803e3d6000fd5b505050505050505050565b60fb546001600160a01b03163314806120c157506120ac6117ab565b6001600160a01b0316336001600160a01b0316145b6120dd5760405162461bcd60e51b8152600401610ba490615469565b6120e7828261333b565b5050565b61ffff8616600090815260c96020526040808220905161210e90889088906154f1565b90815260408051602092819003830190206001600160401b0387166000908152925290205490508061218e5760405162461bcd60e51b815260206004820152602360248201527f4e6f6e626c6f636b696e674c7a4170703a206e6f2073746f726564206d65737360448201526261676560e81b6064820152608401610ba4565b80838360405161219f9291906154f1565b6040518091039020146121fe5760405162461bcd60e51b815260206004820152602160248201527f4e6f6e626c6f636b696e674c7a4170703a20696e76616c6964207061796c6f616044820152601960fa1b6064820152608401610ba4565b61ffff8716600090815260c96020526040808220905161222190899089906154f1565b90815260408051602092819003830181206001600160401b038916600090815290845282902093909355601f880182900482028301820190528682526122b9918991899089908190840183828082843760009201919091525050604080516020601f8a018190048102820181019092528881528a935091508890889081908401838280828437600092019190915250612e6492505050565b7fc264d91f3adc5588250e1551f547752ca0cfa8f6b530d243b9f9f4cab10ea8e587878787856040516122f0959493929190615883565b60405180910390a150505050505050565b6001600160a01b03918216600090815260346020908152604080832093909416825291909152205490565b60fb546001600160a01b031633148061235d57506123486117ab565b6001600160a01b0316336001600160a01b0316145b6123795760405162461bcd60e51b8152600401610ba490615469565b61ffff929092166000908152610101602090815260408083206001600160a01b039485168452909152902060070180546001600160a01b03191691909216179055565b6123c4612a06565b6000811161240c5760405162461bcd60e51b81526020600482015260156024820152744c7a4170703a20696e76616c6964206d696e47617360581b6044820152606401610ba4565b61ffff83811660008181526099602090815260408083209487168084529482529182902085905581519283528201929092529081018290527f9d5c7c0b934da8fefa9c7760c98383778a12dfbfc0c3b3106518f43fb9508ac090606001611de1565b6124798383836133b0565b505050565b6000610c3783836134db565b612492612a06565b61ffff831660009081526098602052604090206124b08284836158be565b507ffa41487ad5d6728f0b19276fa1eddc16558578f5109fc39d2dc33c3230470dab838383604051611de19392919061552a565b60fb546001600160a01b031633148061251557506125006117ab565b6001600160a01b0316336001600160a01b0316145b6125315760405162461bcd60e51b8152600401610ba490615469565b610102546000908152610106602052604090206001015460ff16156125685760405162461bcd60e51b8152600401610ba490615977565b6000805b61010254600090815261010660205260409020548110156125e957610102546000908152610106602052604081208054839081106125ac576125ac615993565b906000526020600020906006020190506125c98160020154612fb8565b6125d3908461541c565b92505080806125e1906159a9565b91505061256c565b506125f26117e6565b811161260057611214613593565b600061260a6117e6565b6126149083615485565b90506000805b6126256101046138a9565b811080156126335750600083115b15612784576000612646610104836138b3565b61ffff81166000908152610103602052604081209192505b612667826138a9565b811080156126755750600086115b1561276e57600061268683836138b3565b61ffff85166000908152610101602090815260408083206001600160a01b0385168452909152812060028101549293509190036126c457505061275c565b60006126d48983600201546138bf565b6101025460009081526101066020908152604080832061ffff8b16845260050182528083206001600160a01b038816845290915290208190559050612719818a615485565b985061274b86846000604051806040016040528086815260200161010254815250604051602001611cd69291906159c2565b87612755816159a9565b9850505050505b80612766816159a9565b91505061265e565b505050808061277c906159a9565b91505061261a565b506101028054600090815261010660205260408082206002019390935590548152206001908101805460ff191690911790555050565b6127c2612a06565b6001600160a01b0381166128275760405162461bcd60e51b815260206004820152602660248201527f4f776e61626c653a206e6577206f776e657220697320746865207a65726f206160448201526564647265737360d01b6064820152608401610ba4565b61121481612f66565b609754604051633d7b2f6f60e21b815261ffff808716600483015285166024820152306044820152606481018390526060916001600160a01b03169063f5ecbdbc90608401600060405180830381865afa158015612892573d6000803e3d6000fd5b505050506040513d6000823e601f3d908101601f191682016040526128ba9190810190615a2d565b90505b949350505050565b6000806129285a60966366ad5c8a60e01b898989896040516024016128ed9493929190615a61565b60408051601f198184030181529190526020810180516001600160e01b03166001600160e01b031990931692909217909152309291906138d5565b9150915081610c2357610c238686868685613961565b6101005460009060ff161561295557506000610c3a565b6000612710612962610c40565b61ffff86166000908152610101602090815260408083206001600160a01b03891684529091529020600101546129989190615a9f565b6129a29190615ab6565b61ffff85166000908152610101602090815260408083206001600160a01b03881684529091529020600201549091508082116129e357600092505050610c3a565b6129fd6129ee6117e6565b6129f88385615485565b6138bf565b95945050505050565b33612a0f6117ab565b6001600160a01b03161461170f5760405162461bcd60e51b815260206004820181905260248201527f4f776e61626c653a2063616c6c6572206973206e6f7420746865206f776e65726044820152606401610ba4565b6001600160a01b038316612ac75760405162461bcd60e51b8152602060048201526024808201527f45524332303a20617070726f76652066726f6d20746865207a65726f206164646044820152637265737360e01b6064820152608401610ba4565b6001600160a01b038216612b285760405162461bcd60e51b815260206004820152602260248201527f45524332303a20617070726f766520746f20746865207a65726f206164647265604482015261737360f01b6064820152608401610ba4565b6001600160a01b0383811660008181526034602090815260408083209487168084529482529182902085905590518481527f8c5be1e5ebec7d5bd14f71427d1e84f3dd0314c0f7b2291e5b200ac8c7c3b925910160405180910390a3505050565b6001600160a01b03163b151590565b600054610100900460ff16612bbf5760405162461bcd60e51b8152600401610ba490615ad8565b612bc76139fe565b61121481613a2e565b600054610100900460ff16612bf75760405162461bcd60e51b8152600401610ba490615ad8565b61170f6139fe565b600054610100900460ff16612c265760405162461bcd60e51b8152600401610ba490615ad8565b6120e78282613a77565b6000612c3c8484612301565b90506000198114612ca45781811015612c975760405162461bcd60e51b815260206004820152601d60248201527f45524332303a20696e73756666696369656e7420616c6c6f77616e63650000006044820152606401610ba4565b612ca48484848403612a65565b50505050565b6001600160a01b038316612d0e5760405162461bcd60e51b815260206004820152602560248201527f45524332303a207472616e736665722066726f6d20746865207a65726f206164604482015264647265737360d81b6064820152608401610ba4565b6001600160a01b038216612d705760405162461bcd60e51b815260206004820152602360248201527f45524332303a207472616e7366657220746f20746865207a65726f206164647260448201526265737360e81b6064820152608401610ba4565b6001600160a01b03831660009081526033602052604090205481811015612de85760405162461bcd60e51b815260206004820152602660248201527f45524332303a207472616e7366657220616d6f756e7420657863656564732062604482015265616c616e636560d01b6064820152608401610ba4565b6001600160a01b038085166000818152603360205260408082208686039055928616808252908390208054860190559151600080516020615e9a83398151915290612e369086815260200190565b60405180910390a3612ca4565b6000610c37836001600160a01b038416613ab7565b6000610c378383613ab7565b6000612e7284826014612fed565b604051602001612e829190615802565b604051602081830303815290604052612e9a9061581e565b61ffff861660009081526101016020908152604080832060609490941c80845293909152902054909150612ef65760405162461bcd60e51b815260206004820152600360248201526256313560e81b6044820152606401610ba4565b610d54858360006132a4565b6101005460009060ff1615612f3f5760405162461bcd60e51b815260206004820152600360248201526256313160e81b6044820152606401610ba4565b6000612f4b8385613b06565b60fc54909150610c37906001600160a01b0316333087613b82565b606580546001600160a01b038381166001600160a01b0319831681179093556040519116919082907f8be0079c531659141344cd1fd0a4f28419497f9722a3daafe3b4186f6b6457e090600090a35050565b6000612fc360355490565b600003612fce575090565b603554612fd9610c40565b612fe39084615a9f565b610c3a9190615ab6565b606081612ffb81601f61541c565b101561303a5760405162461bcd60e51b815260206004820152600e60248201526d736c6963655f6f766572666c6f7760901b6044820152606401610ba4565b613044828461541c565b845110156130885760405162461bcd60e51b8152602060048201526011602482015270736c6963655f6f75744f66426f756e647360781b6044820152606401610ba4565b6060821580156130a757604051915060008252602082016040526130f1565b6040519150601f8416801560200281840101858101878315602002848b0101015b818310156130e05780518352602092830192016130c8565b5050858452601f01601f1916604052505b50949350505050565b61ffff83166000908152610101602090815260408083206001600160a01b0386168452909152902054839083906131435760405162461bcd60e51b8152600401610ba490615b23565b6040516001600160601b0319606086811b8216602084015230901b16603482015260009060480160408051601f198184030181529190526097549091506000906001600160a01b03166340a7bb108830888561319d613bed565b6040518663ffffffff1660e01b81526004016131bd959493929190615b3f565b6040805180830381865afa1580156131d9573d6000803e3d6000fd5b505050506040513d601f19601f820116820180604052508101906131fd9190615b93565b509050804710156132295760405162fae2d560e21b815260048101829052476024820152604401610ba4565b6097546001600160a01b031663c5803100828985893080613248613bed565b6040518863ffffffff1660e01b815260040161326996959493929190615bb7565b6000604051808303818588803b15801561328257600080fd5b505af1158015613296573d6000803e3d6000fd5b505050505050505050505050565b6000828060200190518101906132ba9190615c1e565b905060028160048111156132d0576132d0615670565b036132ff576000838060200190518101906132eb9190615c4a565b9150506132f9858285613c1d565b50612ca4565b600181600481111561331357613313615670565b03612ca45760008380602001905181019061332e9190615d35565b915050610d548582613ff7565b61ffff82166000908152610101602090815260408083206001600160a01b038516845290915281206001015460fe80549192909161337a908490615485565b909155505061ffff9091166000908152610101602090815260408083206001600160a01b03909416835292905290812060010155565b610102546000908152610106602052604090206001015460ff16156133e75760405162461bcd60e51b8152600401610ba490615977565b6133f2333085612caa565b61010660006101025481526020019081526020016000206000016040518060c00160405280336001600160a01b03168152602001846001600160a01b0316815260200185815260200183815260200161344a86612fb8565b81526000602091820181905283546001808201865594825290829020835160069092020180546001600160a01b03199081166001600160a01b039384161782559284015194810180549093169490911693909317905560408101516002830155606081015160038301556080810151600483015560a001516005909101805460ff1916911515919091179055505050565b6000806127106134e9610c40565b61ffff86166000908152610101602090815260408083206001600160a01b038916845290915290206001015461351f9190615a9f565b6135299190615ab6565b61ffff85166000908152610101602090815260408083206001600160a01b0388168452909152902060020154610100549192509060ff161561356e579150610c3a9050565b81811161358057600092505050610c3a565b61358a8282615485565b92505050610c3a565b6101025460009081526101066020526040902054806135da5760405162461bcd60e51b8152602060048201526003602482015262158c4d60ea1b6044820152606401610ba4565b6000816001600160401b038111156135f4576135f4615029565b60405190808252806020026020018201604052801561361d578160200160208202803683370190505b50905060005b8281101561369d576101025460009081526101066020526040812080548390811061365057613650615993565b9060005260206000209060060201905061366d8160020154612fb8565b83838151811061367f5761367f615993565b60209081029190910101525080613695816159a9565b915050613623565b5060005b8281101561383657610102546000908152610106602052604081208054839081106136ce576136ce615993565b9060005260206000209060060201905060006137058484815181106136f5576136f5615993565b60200260200101516129f86117e6565b905081600401548110156137e45760008183600401546137259190615485565b9050600083600401548261271061373c9190615a9f565b6137469190615ab6565b905083600301548111156137e15760058401805460ff191690558354600285015460405163a9059cbb60e01b8152309263a9059cbb92613794926001600160a01b0390921691600401615498565b6020604051808303816000875af11580156137b3573d6000803e3d6000fd5b505050506040513d601f19601f820116820180604052508101906137d791906154b1565b5050505050613824565b50505b60058201805460ff1916600190811790915582015460fc54613813916001600160a01b039182169116836141c2565b6138213083600201546141e1565b50505b8061382e816159a9565b9150506136a1565b506101025460408051918252602082018490527fc682eb885c208b8aaaa811c05902e24a4f14b388960311623a8f31404f655129910160405180910390a16101028054600090815261010660205260408120600101805460ff19169055815491906138a0836159a9565b91905055505050565b6000610c3a825490565b6000610c378383614303565b60008183106138ce5781610c37565b5090919050565b6000606060008060008661ffff166001600160401b038111156138fa576138fa615029565b6040519080825280601f01601f191660200182016040528015613924576020820181803683370190505b50905060008087516020890160008d8df191503d925086831115613946578692505b828152826000602083013e9093509150505b94509492505050565b818051906020012060c960008761ffff1661ffff168152602001908152602001600020856040516139929190615802565b9081526040805191829003602090810183206001600160401b0388166000908152915220919091557fe183f33de2837795525b4792ca4cd60535bd77c53b7e7030060bfcf5734d6b0c906139ef9087908790879087908790615dc0565b60405180910390a15050505050565b600054610100900460ff16613a255760405162461bcd60e51b8152600401610ba490615ad8565b61170f33612f66565b600054610100900460ff16613a555760405162461bcd60e51b8152600401610ba490615ad8565b609780546001600160a01b0319166001600160a01b0392909216919091179055565b600054610100900460ff16613a9e5760405162461bcd60e51b8152600401610ba490615ad8565b6036613aaa8382615749565b5060376124798282615749565b6000818152600183016020526040812054613afe57508154600181810184556000848152602080822090930184905584548482528286019093526040902091909155610c3a565b506000610c3a565b600080613b1260355490565b600003613b20575081613b42565b613b28610c40565b603554613b359085615a9f565b613b3f9190615ab6565b90505b60008111613b785760405162461bcd60e51b815260206004820152600360248201526256313360e81b6044820152606401610ba4565b610c37848261432d565b6040516001600160a01b0380851660248301528316604482015260648101829052612ca49085906323b872dd60e01b906084015b60408051601f198184030181529190526020810180516001600160e01b03166001600160e01b0319909316929092179091526143dc565b60408051600160f01b6020820152620f424060228083019190915282518083039091018152604290910190915290565b613c2783836144b1565b606082015115613c4457613c448383600001518460600151614690565b60408083015161ffff85166000908152610101602090815283822086516001600160a01b031683529052918220600301805491929091613c8590849061541c565b90915550508151600090613c9a9085906134db565b90506000613cac8285608001516138bf565b90508015613d1c5761ffff851660009081526101016020908152604080832087516001600160a01b0316845290915281206002018054839290613cf0908490615485565b925050819055508060ff6000828254613d099190615485565b90915550613d1990508183615485565b91505b60e084015115613d895760e084015161ffff861660009081526101016020908152604080832088516001600160a01b0316845290915281206002018054909190613d6790849061541c565b909155505060e084015160ff8054600090613d8390849061541c565b90915550505b60208085015161ffff8716600081815261010180855260408083208a516001600160a01b039081168552818852828520600501969096559383529085528851909316815292529020600101541580613de457506101005460ff165b15613df25783610100015191505b60a084015115613e4557613e408460a001518686600001516003604051806020016040528088815250604051602001613e2c929190615e12565b604051602081830303815290604052614785565b613e70565b613e708585600001516003604051806020016040528087815250604051602001611cd6929190615e12565b600061010160008761ffff1661ffff168152602001908152602001600020600086600001516001600160a01b03166001600160a01b0316815260200190815260200160002060405180610100016040529081600082015481526020016001820154815260200160028201548152602001600382015481526020016004820154815260200160058201548152602001600682015481526020016007820160009054906101000a90046001600160a01b03166001600160a01b03166001600160a01b03168152505090507f08bc8eff67f79e18165507d64024f5ca5e90a2593c7a45cb5caf7f9d843e404c8686600001518760400151886060015189608001518660600151876080015188604001518d60e001518a602001518e6040516111069b9a9998979695949392919061ffff9b909b168b526001600160a01b039990991660208b015260408a01979097526060890195909552608088019390935260a087019190915260c086015260e08501526101008401526101208301526101408201526101600190565b805161ffff83166000908152610101602090815260408083206001600160a01b03851684529091529020548391906140415760405162461bcd60e51b8152600401610ba490615b23565b60408301511561405e5761405e8484600001518560400151614690565b60208084015161ffff861660009081526101018352604080822087516001600160a01b0316835290935291822060020180549192909161409f908490615485565b9091555050602083015160ff80546000906140bb908490615485565b909155505060608301516000908152610106602052604081206003018054916140e3836159a9565b909155505060608301805160009081526101066020818152604080842061ffff8a168552600401825280842088516001600160a01b031685528252808420805460ff191660011790558451845291905280822060030154925182529020600201540361415157614151613593565b82600001516001600160a01b03168461ffff167f046368a4ca42efbdd968b9025440eb5590bdcda7da09f4fef8ac4ef2f44a5ed08560200151866040015187606001516040516141b4939291909283526020830191909152604082015260600190565b60405180910390a350505050565b6124798363a9059cbb60e01b8484604051602401613bb6929190615498565b6001600160a01b0382166142415760405162461bcd60e51b815260206004820152602160248201527f45524332303a206275726e2066726f6d20746865207a65726f206164647265736044820152607360f81b6064820152608401610ba4565b6001600160a01b038216600090815260336020526040902054818110156142b55760405162461bcd60e51b815260206004820152602260248201527f45524332303a206275726e20616d6f756e7420657863656564732062616c616e604482015261636560f01b6064820152608401610ba4565b6001600160a01b0383166000818152603360209081526040808320868603905560358054879003905551858152919291600080516020615e9a833981519152910160405180910390a3505050565b600082600001828154811061431a5761431a615993565b9060005260206000200154905092915050565b6001600160a01b0382166143835760405162461bcd60e51b815260206004820152601f60248201527f45524332303a206d696e7420746f20746865207a65726f2061646472657373006044820152606401610ba4565b8060356000828254614395919061541c565b90915550506001600160a01b038216600081815260336020908152604080832080548601905551848152600080516020615e9a833981519152910160405180910390a35050565b6000614431826040518060400160405280602081526020017f5361666545524332303a206c6f772d6c6576656c2063616c6c206661696c6564815250856001600160a01b03166148759092919063ffffffff16565b905080516000148061445257508080602001905181019061445291906154b1565b6124795760405162461bcd60e51b815260206004820152602a60248201527f5361666545524332303a204552433230206f7065726174696f6e20646964206e6044820152691bdd081cdd58d8d9595960b21b6064820152608401610ba4565b61ffff821660009081526101076020908152604080832084516001600160a01b031684528252808320610120850151845290915290205460ff161561451e5760405162461bcd60e51b81526020600482015260036024820152622b189b60e91b6044820152606401610ba4565b805161012082015160405160609290921b6001600160601b0319166020830152603482015260f083901b6001600160f01b03191660548201526000906056016040516020818303038152906040528051906020012090506000816040516020016145b391907b0ca2ba3432b932bab69029b4b3b732b21026b2b9b9b0b3b29d05199960211b8152601c810191909152603c0190565b60408051601f19818403018152918152815160209283012061ffff87166000908152610101845282812087516001600160a01b039081168352945291909120600701546101408601519193509091169061460e908390614884565b6001600160a01b03161461464a5760405162461bcd60e51b815260206004820152600360248201526256313760e81b6044820152606401610ba4565b505061ffff90911660009081526101076020908152604080832084516001600160a01b03168452825280832061012090940151835292905220805460ff19166001179055565b61ffff83166000908152610101602090815260408083206001600160a01b03861684529091529020600201548111156146f15760405162461bcd60e51b81526020600482015260036024820152622b189960e91b6044820152606401610ba4565b61ffff83166000908152610101602090815260408083206001600160a01b03861684529091528120600401805483929061472c90849061541c565b909155505061ffff83166000908152610101602090815260408083206001600160a01b03861684529091528120600201805483929061476c908490615485565b925050819055508060ff6000828254610e899190615485565b60fd54604051630dc6346160e01b81526000916001600160a01b031690630dc63461906147ba90879087908790600401615e2e565b602060405180830381865afa1580156147d7573d6000803e3d6000fd5b505050506040513d601f19601f820116820180604052508101906147fb9190615657565b60fd5460fc54604051633920455b60e11b81529293506001600160a01b03918216926372408ab692859261483c929116908a908a908a908a90600401615e5c565b6000604051808303818588803b15801561485557600080fd5b505af1158015614869573d6000803e3d6000fd5b50505050505050505050565b60606128bd84846000856148a8565b60008060006148938585614983565b915091506148a0816149c8565b509392505050565b6060824710156149095760405162461bcd60e51b815260206004820152602660248201527f416464726573733a20696e73756666696369656e742062616c616e636520666f6044820152651c8818d85b1b60d21b6064820152608401610ba4565b600080866001600160a01b031685876040516149259190615802565b60006040518083038185875af1925050503d8060008114614962576040519150601f19603f3d011682016040523d82523d6000602084013e614967565b606091505b509150915061497887838387614b0d565b979650505050505050565b60008082516041036149b95760208301516040840151606085015160001a6149ad87828585614b84565b945094505050506149c1565b506000905060025b9250929050565b60008160048111156149dc576149dc615670565b036149e45750565b60018160048111156149f8576149f8615670565b03614a405760405162461bcd60e51b815260206004820152601860248201527745434453413a20696e76616c6964207369676e617475726560401b6044820152606401610ba4565b6002816004811115614a5457614a54615670565b03614aa15760405162461bcd60e51b815260206004820152601f60248201527f45434453413a20696e76616c6964207369676e6174757265206c656e677468006044820152606401610ba4565b6003816004811115614ab557614ab5615670565b036112145760405162461bcd60e51b815260206004820152602260248201527f45434453413a20696e76616c6964207369676e6174757265202773272076616c604482015261756560f01b6064820152608401610ba4565b60608315614b7a578251600003614b7357614b2785612b89565b614b735760405162461bcd60e51b815260206004820152601d60248201527f416464726573733a2063616c6c20746f206e6f6e2d636f6e74726163740000006044820152606401610ba4565b50816128bd565b6128bd8383614c3b565b6000806fa2a8918ca85bafe22016d0b997e4df60600160ff1b03831115614bb15750600090506003613958565b6040805160008082526020820180845289905260ff881692820192909252606081018690526080810185905260019060a0016020604051602081039080840390855afa158015614c05573d6000803e3d6000fd5b5050604051601f1901519150506001600160a01b038116614c2e57600060019250925050613958565b9660009650945050505050565b815115614c4b5781518083602001fd5b8060405162461bcd60e51b8152600401610ba49190614e17565b803561ffff81168114614c7757600080fd5b919050565b60008083601f840112614c8e57600080fd5b5081356001600160401b03811115614ca557600080fd5b6020830191508360208285010111156149c157600080fd5b80356001600160401b0381168114614c7757600080fd5b60008060008060008060808789031215614ced57600080fd5b614cf687614c65565b955060208701356001600160401b0380821115614d1257600080fd5b614d1e8a838b01614c7c565b9097509550859150614d3260408a01614cbd565b94506060890135915080821115614d4857600080fd5b50614d5589828a01614c7c565b979a9699509497509295939492505050565b6001600160a01b038116811461121457600080fd5b60008060408385031215614d8f57600080fd5b614d9883614c65565b91506020830135614da881614d67565b809150509250929050565b6001600160a01b0391909116815260200190565b60005b83811015614de2578181015183820152602001614dca565b50506000910152565b60008151808452614e03816020860160208601614dc7565b601f01601f19169290920160200192915050565b602081526000610c376020830184614deb565b600060208284031215614e3c57600080fd5b610c3782614c65565b60008060408385031215614e5857600080fd5b8235614e6381614d67565b946020939093013593505050565b600080600060608486031215614e8657600080fd5b614e8f84614c65565b92506020840135614e9f81614d67565b929592945050506040919091013590565b60008060408385031215614ec357600080fd5b614e6383614c65565b600080600080600060a08688031215614ee457600080fd5b8535614eef81614d67565b94506020860135614eff81614d67565b93506040860135614f0f81614d67565b92506060860135614f1f81614d67565b91506080860135614f2f81614d67565b809150509295509295909350565b801515811461121457600080fd5b600060208284031215614f5d57600080fd5b8135610c3781614f3d565b600080600060608486031215614f7d57600080fd5b8335614e8f81614d67565b600080600060408486031215614f9d57600080fd5b614fa684614c65565b925060208401356001600160401b03811115614fc157600080fd5b614fcd86828701614c7c565b9497909650939450505050565b600080600080600060a08688031215614ff257600080fd5b614ffb86614c65565b9450602086013561500b81614d67565b935060408601359250606086013591506080860135614f2f81614d67565b634e487b7160e01b600052604160045260246000fd5b60405161016081016001600160401b038111828210171561506257615062615029565b60405290565b604051601f8201601f191681016001600160401b038111828210171561509057615090615029565b604052919050565b60006001600160401b038211156150b1576150b1615029565b50601f01601f191660200190565b600082601f8301126150d057600080fd5b81356150e36150de82615098565b615068565b8181528460208386010111156150f857600080fd5b816020850160208301376000918101602001919091529392505050565b60008060006060848603121561512a57600080fd5b61513384614c65565b925060208401356001600160401b0381111561514e57600080fd5b61515a868287016150bf565b92505061516960408501614cbd565b90509250925092565b6000806040838503121561518557600080fd5b823591506020830135614da881614d67565b6000602082840312156151a957600080fd5b8135610c3781614d67565b600080604083850312156151c757600080fd5b6151d083614c65565b91506151de60208401614c65565b90509250929050565b6000806000606084860312156151fc57600080fd5b61520584614c65565b9250602084013561521581614d67565b9150604084013561522581614d67565b809150509250925092565b60008060008060008060c0878903121561524957600080fd5b61525287614c65565b955060208701356001600160401b038082111561526e57600080fd5b61527a8a838b016150bf565b9650604089013595506060890135915061529382614d67565b9093506080880135925060a088013590808211156152b057600080fd5b506152bd89828a016150bf565b9150509295509295509295565b6000806000806000608086880312156152e257600080fd5b6152eb86614c65565b94506152f960208701614c65565b93506040860135925060608601356001600160401b0381111561531b57600080fd5b61532788828901614c7c565b969995985093965092949392505050565b6000806040838503121561534b57600080fd5b8235614d9881614d67565b60008060006060848603121561536b57600080fd5b61537484614c65565b925061538260208501614c65565b9150604084013590509250925092565b6000806000606084860312156153a757600080fd5b833592506020840135614e9f81614d67565b600080600080608085870312156153cf57600080fd5b6153d885614c65565b93506153e660208601614c65565b925060408501356153f681614d67565b9396929550929360600135925050565b634e487b7160e01b600052601160045260246000fd5b80820180821115610c3a57610c3a615406565b600181811c9082168061544357607f821691505b60208210810361546357634e487b7160e01b600052602260045260246000fd5b50919050565b602080825260029082015261563160f01b604082015260600190565b81810381811115610c3a57610c3a615406565b6001600160a01b03929092168252602082015260400190565b6000602082840312156154c357600080fd5b8151610c3781614f3d565b6000602082840312156154e057600080fd5b815160ff81168114610c3757600080fd5b8183823760009101908152919050565b81835281816020850137506000828201602090810191909152601f909101601f19169091010190565b61ffff841681526040602082015260006128ba604083018486615501565b602080825260029082015261563360f01b604082015260600190565b600181815b8085111561559f57816000190482111561558557615585615406565b8085161561559257918102915b93841c9390800290615569565b509250929050565b6000826155b657506001610c3a565b816155c357506000610c3a565b81600181146155d957600281146155e3576155ff565b6001915050610c3a565b60ff8411156155f4576155f4615406565b50506001821b610c3a565b5060208310610133831016604e8410600b8410161715615622575081810a610c3a565b61562c8383615564565b806000190482111561564057615640615406565b029392505050565b6000610c3760ff8416836155a7565b60006020828403121561566957600080fd5b5051919050565b634e487b7160e01b600052602160045260246000fd5b600581106156a457634e487b7160e01b600052602160045260246000fd5b9052565b604081016156b68285615686565b91516001600160a01b031660209190910152919050565b8284823760609190911b6001600160601b0319169101908152601401919050565b601f82111561247957600081815260208120601f850160051c810160208610156157155750805b601f850160051c820191505b81811015610c2357828155600101615721565b600019600383901b1c191660019190911b1790565b81516001600160401b0381111561576257615762615029565b61577681615770845461542f565b846156ee565b602080601f8311600181146157a557600084156157935750858301515b61579d8582615734565b865550610c23565b600085815260208120601f198616915b828110156157d4578886015182559484019460019091019084016157b5565b50858210156157f25787850151600019600388901b60f8161c191681555b5050505050600190811b01905550565b60008251615814818460208701614dc7565b9190910192915050565b805160208201516001600160601b0319808216929190601483101561584d5780818460140360031b1b83161693505b505050919050565b600061ffff808816835280871660208401525084604083015260806060830152614978608083018486615501565b61ffff861681526080602082015260006158a1608083018688615501565b6001600160401b0394909416604083015250606001529392505050565b6001600160401b038311156158d5576158d5615029565b6158e9836158e3835461542f565b836156ee565b6000601f84116001811461591757600085156159055750838201355b61590f8682615734565b845550610d54565b600083815260209020601f19861690835b828110156159485786850135825560209485019460019092019101615928565b50868210156159655760001960f88860031b161c19848701351681555b505060018560011b0183555050505050565b602080825260029082015261158d60f21b604082015260600190565b634e487b7160e01b600052603260045260246000fd5b6000600182016159bb576159bb615406565b5060010190565b606081016159d08285615686565b82516020830152602083015160408301529392505050565b600082601f8301126159f957600080fd5b8151615a076150de82615098565b818152846020838601011115615a1c57600080fd5b6128bd826020830160208701614dc7565b600060208284031215615a3f57600080fd5b81516001600160401b03811115615a5557600080fd5b6128bd848285016159e8565b61ffff85168152608060208201526000615a7e6080830186614deb565b6001600160401b038516604084015282810360608401526149788185614deb565b8082028115828204841417610c3a57610c3a615406565b600082615ad357634e487b7160e01b600052601260045260246000fd5b500490565b6020808252602b908201527f496e697469616c697a61626c653a20636f6e7472616374206973206e6f74206960408201526a6e697469616c697a696e6760a81b606082015260800190565b6020808252600290820152612b1960f11b604082015260600190565b61ffff861681526001600160a01b038516602082015260a060408201819052600090615b6d90830186614deb565b84151560608401528281036080840152615b878185614deb565b98975050505050505050565b60008060408385031215615ba657600080fd5b505080516020909101519092909150565b61ffff8716815260c060208201526000615bd460c0830188614deb565b8281036040840152615be68188614deb565b6001600160a01b0387811660608601528616608085015283810360a08501529050615c118185614deb565b9998505050505050505050565b600060208284031215615c3057600080fd5b815160058110610c3757600080fd5b8051614c7781614d67565b60008060408385031215615c5d57600080fd5b825160208401519092506001600160401b0380821115615c7c57600080fd5b908401906101608287031215615c9157600080fd5b615c9961503f565b615ca283615c3f565b81526020830151602082015260408301516040820152606083015160608201526080830151608082015260a083015160a082015260c083015160c082015260e083015160e08201526101008084015181830152506101208084015181830152506101408084015183811115615d1657600080fd5b615d22898287016159e8565b8284015250508093505050509250929050565b60008082840360a0811215615d4957600080fd5b835192506080601f1982011215615d5f57600080fd5b50604051608081016001600160401b0381118282101715615d8257615d82615029565b6040526020840151615d9381614d67565b80825250604084015160208201526060840151604082015260808401516060820152809150509250929050565b61ffff8616815260a060208201526000615ddd60a0830187614deb565b6001600160401b03861660408401528281036060840152615dfe8186614deb565b90508281036080840152615b878185614deb565b60408101615e208285615686565b825160208301529392505050565b61ffff841681526001600160a01b03831660208201526060604082018190526000906128ba90830184614deb565b6001600160a01b0386811682526020820186905261ffff851660408301528316606082015260a06080820181905260009061497890830184614deb56feddf252ad1be2c89b69c2b068fc378daa952ba7f163c4a11628f55a4df523b3efa2646970667358221220fb17a386fc483f7ff3b5c26cd372ed071c2774c295a52be64ee12639a125c02a64736f6c63430008130033",
  "linkReferences": {},
  "deployedLinkReferences": {}
}