{
  "_format": "hh-sol-artifact-1",
  "contractName": "Vault",
  "sourceName": "contracts/Vault.sol",
  "abi": [
    {
      "inputs": [
        {
          "internalType": "uint256",
          "name": "amount",
          "type": "uint256"
        },
        {
          "internalType": "uint256",
          "name": "balance",
          "type": "uint256"
        }
      ],
      "name": "InsufficientFunds",
      "type": "error"
    },
    {
      "anonymous": false,
      "inputs": [
        {
          "indexed": true,
          "internalType": "address",
          "name": "owner",
          "type": "address"
        },
        {
          "indexed": true,
          "internalType": "address",
          "name": "spender",
          "type": "address"
        },
        {
          "indexed": false,
          "internalType": "uint256",
          "name": "value",
          "type": "uint256"
        }
      ],
      "name": "Approval",
      "type": "event"
    },
    {
      "anonymous": false,
      "inputs": [
        {
          "indexed": false,
          "internalType": "uint256",
          "name": "epochId",
          "type": "uint256"
        },
        {
          "indexed": false,
          "internalType": "uint256",
          "name": "requestCount",
          "type": "uint256"
        }
      ],
      "name": "FulfilledWithdrawEpoch",
      "type": "event"
    },
    {
      "anonymous": false,
      "inputs": [
        {
          "indexed": false,
          "internalType": "uint8",
          "name": "version",
          "type": "uint8"
        }
      ],
      "name": "Initialized",
      "type": "event"
    },
    {
      "anonymous": false,
      "inputs": [
        {
          "indexed": false,
          "internalType": "uint16",
          "name": "_srcChainId",
          "type": "uint16"
        },
        {
          "indexed": false,
          "internalType": "bytes",
          "name": "_srcAddress",
          "type": "bytes"
        },
        {
          "indexed": false,
          "internalType": "uint64",
          "name": "_nonce",
          "type": "uint64"
        },
        {
          "indexed": false,
          "internalType": "bytes",
          "name": "_payload",
          "type": "bytes"
        },
        {
          "indexed": false,
          "internalType": "bytes",
          "name": "_reason",
          "type": "bytes"
        }
      ],
      "name": "MessageFailed",
      "type": "event"
    },
    {
      "anonymous": false,
      "inputs": [
        {
          "indexed": true,
          "internalType": "address",
          "name": "previousOwner",
          "type": "address"
        },
        {
          "indexed": true,
          "internalType": "address",
          "name": "newOwner",
          "type": "address"
        }
      ],
      "name": "OwnershipTransferred",
      "type": "event"
    },
    {
      "anonymous": false,
      "inputs": [
        {
          "indexed": false,
          "internalType": "uint16",
          "name": "_srcChainId",
          "type": "uint16"
        },
        {
          "indexed": false,
          "internalType": "bytes",
          "name": "_srcAddress",
          "type": "bytes"
        },
        {
          "indexed": false,
          "internalType": "uint64",
          "name": "_nonce",
          "type": "uint64"
        },
        {
          "indexed": false,
          "internalType": "bytes32",
          "name": "_payloadHash",
          "type": "bytes32"
        }
      ],
      "name": "RetryMessageSuccess",
      "type": "event"
    },
    {
      "anonymous": false,
      "inputs": [
        {
          "indexed": false,
          "internalType": "uint16",
          "name": "_dstChainId",
          "type": "uint16"
        },
        {
          "indexed": false,
          "internalType": "uint16",
          "name": "_type",
          "type": "uint16"
        },
        {
          "indexed": false,
          "internalType": "uint256",
          "name": "_minDstGas",
          "type": "uint256"
        }
      ],
      "name": "SetMinDstGas",
      "type": "event"
    },
    {
      "anonymous": false,
      "inputs": [
        {
          "indexed": false,
          "internalType": "address",
          "name": "precrime",
          "type": "address"
        }
      ],
      "name": "SetPrecrime",
      "type": "event"
    },
    {
      "anonymous": false,
      "inputs": [
        {
          "indexed": false,
          "internalType": "uint16",
          "name": "_remoteChainId",
          "type": "uint16"
        },
        {
          "indexed": false,
          "internalType": "bytes",
          "name": "_path",
          "type": "bytes"
        }
      ],
      "name": "SetTrustedRemote",
      "type": "event"
    },
    {
      "anonymous": false,
      "inputs": [
        {
          "indexed": false,
          "internalType": "uint16",
          "name": "_remoteChainId",
          "type": "uint16"
        },
        {
          "indexed": false,
          "internalType": "bytes",
          "name": "_remoteAddress",
          "type": "bytes"
        }
      ],
      "name": "SetTrustedRemoteAddress",
      "type": "event"
    },
    {
      "anonymous": false,
      "inputs": [
        {
          "indexed": true,
          "internalType": "address",
          "name": "token",
          "type": "address"
        },
        {
          "indexed": false,
          "internalType": "uint256",
          "name": "amount",
          "type": "uint256"
        },
        {
          "indexed": false,
          "internalType": "address",
          "name": "sender",
          "type": "address"
        }
      ],
      "name": "SgReceived",
      "type": "event"
    },
    {
      "anonymous": false,
      "inputs": [
        {
          "indexed": false,
          "internalType": "uint16",
          "name": "chainId",
          "type": "uint16"
        },
        {
          "indexed": false,
          "internalType": "address",
          "name": "strategy",
          "type": "address"
        },
        {
          "indexed": false,
          "internalType": "uint256",
          "name": "gain",
          "type": "uint256"
        },
        {
          "indexed": false,
          "internalType": "uint256",
          "name": "loss",
          "type": "uint256"
        },
        {
          "indexed": false,
          "internalType": "uint256",
          "name": "debtPaid",
          "type": "uint256"
        },
        {
          "indexed": false,
          "internalType": "uint256",
          "name": "totalGain",
          "type": "uint256"
        },
        {
          "indexed": false,
          "internalType": "uint256",
          "name": "totalLoss",
          "type": "uint256"
        },
        {
          "indexed": false,
          "internalType": "uint256",
          "name": "totalDebt",
          "type": "uint256"
        },
        {
          "indexed": false,
          "internalType": "uint256",
          "name": "debtAdded",
          "type": "uint256"
        },
        {
          "indexed": false,
          "internalType": "uint256",
          "name": "debtRatio",
          "type": "uint256"
        },
        {
          "indexed": false,
          "internalType": "uint256",
          "name": "tokens",
          "type": "uint256"
        }
      ],
      "name": "StrategyReported",
      "type": "event"
    },
    {
      "anonymous": false,
      "inputs": [
        {
          "indexed": true,
          "internalType": "uint16",
          "name": "chainId",
          "type": "uint16"
        },
        {
          "indexed": true,
          "internalType": "address",
          "name": "strategy",
          "type": "address"
        },
        {
          "indexed": false,
          "internalType": "uint256",
          "name": "amount",
          "type": "uint256"
        },
        {
          "indexed": false,
          "internalType": "uint256",
          "name": "loss",
          "type": "uint256"
        },
        {
          "indexed": false,
          "internalType": "uint256",
          "name": "id",
          "type": "uint256"
        }
      ],
      "name": "StrategyWithdrawnSome",
      "type": "event"
    },
    {
      "anonymous": false,
      "inputs": [
        {
          "indexed": true,
          "internalType": "address",
          "name": "from",
          "type": "address"
        },
        {
          "indexed": true,
          "internalType": "address",
          "name": "to",
          "type": "address"
        },
        {
          "indexed": false,
          "internalType": "uint256",
          "name": "value",
          "type": "uint256"
        }
      ],
      "name": "Transfer",
      "type": "event"
    },
    {
      "inputs": [],
      "name": "DEFAULT_PAYLOAD_SIZE_LIMIT",
      "outputs": [
        {
          "internalType": "uint256",
          "name": "",
          "type": "uint256"
        }
      ],
      "stateMutability": "view",
      "type": "function"
    },
    {
      "inputs": [],
      "name": "MAX_BPS",
      "outputs": [
        {
          "internalType": "uint256",
          "name": "",
          "type": "uint256"
        }
      ],
      "stateMutability": "view",
      "type": "function"
    },
    {
      "inputs": [
        {
          "internalType": "uint16",
          "name": "_chainId",
          "type": "uint16"
        },
        {
          "internalType": "address",
          "name": "_strategy",
          "type": "address"
        },
        {
          "internalType": "uint256",
          "name": "_debtRatio",
          "type": "uint256"
        },
        {
          "internalType": "uint256",
          "name": "_performanceFee",
          "type": "uint256"
        },
        {
          "internalType": "address",
          "name": "_strategist",
          "type": "address"
        }
      ],
      "name": "addStrategy",
      "outputs": [],
      "stateMutability": "nonpayable",
      "type": "function"
    },
    {
      "inputs": [
        {
          "internalType": "address",
          "name": "owner",
          "type": "address"
        },
        {
          "internalType": "address",
          "name": "spender",
          "type": "address"
        }
      ],
      "name": "allowance",
      "outputs": [
        {
          "internalType": "uint256",
          "name": "",
          "type": "uint256"
        }
      ],
      "stateMutability": "view",
      "type": "function"
    },
    {
      "inputs": [
        {
          "internalType": "address",
          "name": "spender",
          "type": "address"
        },
        {
          "internalType": "uint256",
          "name": "amount",
          "type": "uint256"
        }
      ],
      "name": "approve",
      "outputs": [
        {
          "internalType": "bool",
          "name": "",
          "type": "bool"
        }
      ],
      "stateMutability": "nonpayable",
      "type": "function"
    },
    {
      "inputs": [
        {
          "internalType": "address",
          "name": "account",
          "type": "address"
        }
      ],
      "name": "balanceOf",
      "outputs": [
        {
          "internalType": "uint256",
          "name": "",
          "type": "uint256"
        }
      ],
      "stateMutability": "view",
      "type": "function"
    },
    {
      "inputs": [],
      "name": "callMe",
      "outputs": [],
      "stateMutability": "nonpayable",
      "type": "function"
    },
    {
      "inputs": [
        {
          "internalType": "uint16",
          "name": "_chainId",
          "type": "uint16"
        },
        {
          "internalType": "address",
          "name": "_strategy",
          "type": "address"
        }
      ],
      "name": "creditAvailable",
      "outputs": [
        {
          "internalType": "uint256",
          "name": "",
          "type": "uint256"
        }
      ],
      "stateMutability": "view",
      "type": "function"
    },
    {
      "inputs": [
        {
          "internalType": "uint16",
          "name": "_chainId",
          "type": "uint16"
        },
        {
          "internalType": "address",
          "name": "_strategy",
          "type": "address"
        }
      ],
      "name": "debtOutstanding",
      "outputs": [
        {
          "internalType": "uint256",
          "name": "",
          "type": "uint256"
        }
      ],
      "stateMutability": "view",
      "type": "function"
    },
    {
      "inputs": [],
      "name": "decimals",
      "outputs": [
        {
          "internalType": "uint8",
          "name": "",
          "type": "uint8"
        }
      ],
      "stateMutability": "view",
      "type": "function"
    },
    {
      "inputs": [
        {
          "internalType": "address",
          "name": "spender",
          "type": "address"
        },
        {
          "internalType": "uint256",
          "name": "subtractedValue",
          "type": "uint256"
        }
      ],
      "name": "decreaseAllowance",
      "outputs": [
        {
          "internalType": "bool",
          "name": "",
          "type": "bool"
        }
      ],
      "stateMutability": "nonpayable",
      "type": "function"
    },
    {
      "inputs": [
        {
          "internalType": "uint256",
          "name": "_amount",
          "type": "uint256"
        },
        {
          "internalType": "address",
          "name": "_recipient",
          "type": "address"
        }
      ],
      "name": "deposit",
      "outputs": [
        {
          "internalType": "uint256",
          "name": "",
          "type": "uint256"
        }
      ],
      "stateMutability": "nonpayable",
      "type": "function"
    },
    {
      "inputs": [],
      "name": "emergencyShutdown",
      "outputs": [
        {
          "internalType": "bool",
          "name": "",
          "type": "bool"
        }
      ],
      "stateMutability": "view",
      "type": "function"
    },
    {
      "inputs": [
        {
          "internalType": "uint16",
          "name": "",
          "type": "uint16"
        },
        {
          "internalType": "bytes",
          "name": "",
          "type": "bytes"
        },
        {
          "internalType": "uint64",
          "name": "",
          "type": "uint64"
        }
      ],
      "name": "failedMessages",
      "outputs": [
        {
          "internalType": "bytes32",
          "name": "",
          "type": "bytes32"
        }
      ],
      "stateMutability": "view",
      "type": "function"
    },
    {
      "inputs": [
        {
          "internalType": "uint16",
          "name": "_srcChainId",
          "type": "uint16"
        },
        {
          "internalType": "bytes",
          "name": "_srcAddress",
          "type": "bytes"
        }
      ],
      "name": "forceResumeReceive",
      "outputs": [],
      "stateMutability": "nonpayable",
      "type": "function"
    },
    {
      "inputs": [
        {
          "internalType": "uint16",
          "name": "_version",
          "type": "uint16"
        },
        {
          "internalType": "uint16",
          "name": "_chainId",
          "type": "uint16"
        },
        {
          "internalType": "address",
          "name": "",
          "type": "address"
        },
        {
          "internalType": "uint256",
          "name": "_configType",
          "type": "uint256"
        }
      ],
      "name": "getConfig",
      "outputs": [
        {
          "internalType": "bytes",
          "name": "",
          "type": "bytes"
        }
      ],
      "stateMutability": "view",
      "type": "function"
    },
    {
      "inputs": [
        {
          "internalType": "uint16",
          "name": "_remoteChainId",
          "type": "uint16"
        }
      ],
      "name": "getTrustedRemoteAddress",
      "outputs": [
        {
          "internalType": "bytes",
          "name": "",
          "type": "bytes"
        }
      ],
      "stateMutability": "view",
      "type": "function"
    },
    {
      "inputs": [],
      "name": "governance",
      "outputs": [
        {
          "internalType": "address",
          "name": "",
          "type": "address"
        }
      ],
      "stateMutability": "view",
      "type": "function"
    },
    {
      "inputs": [],
      "name": "handleWithdrawals",
      "outputs": [],
      "stateMutability": "nonpayable",
      "type": "function"
    },
    {
      "inputs": [
        {
          "internalType": "address",
          "name": "spender",
          "type": "address"
        },
        {
          "internalType": "uint256",
          "name": "addedValue",
          "type": "uint256"
        }
      ],
      "name": "increaseAllowance",
      "outputs": [
        {
          "internalType": "bool",
          "name": "",
          "type": "bool"
        }
      ],
      "stateMutability": "nonpayable",
      "type": "function"
    },
    {
      "inputs": [
        {
          "internalType": "address",
          "name": "_governance",
          "type": "address"
        },
        {
          "internalType": "address",
          "name": "_lzEndpoint",
          "type": "address"
        },
        {
          "internalType": "contract IERC20",
          "name": "_token",
          "type": "address"
        },
        {
          "internalType": "address",
          "name": "_sgBridge",
          "type": "address"
        }
      ],
      "name": "initialize",
      "outputs": [],
      "stateMutability": "nonpayable",
      "type": "function"
    },
    {
      "inputs": [
        {
          "internalType": "uint16",
          "name": "_srcChainId",
          "type": "uint16"
        },
        {
          "internalType": "bytes",
          "name": "_srcAddress",
          "type": "bytes"
        }
      ],
      "name": "isTrustedRemote",
      "outputs": [
        {
          "internalType": "bool",
          "name": "",
          "type": "bool"
        }
      ],
      "stateMutability": "view",
      "type": "function"
    },
    {
      "inputs": [],
      "name": "lzEndpoint",
      "outputs": [
        {
          "internalType": "contract ILayerZeroEndpointUpgradeable",
          "name": "",
          "type": "address"
        }
      ],
      "stateMutability": "view",
      "type": "function"
    },
    {
      "inputs": [
        {
          "internalType": "uint16",
          "name": "_srcChainId",
          "type": "uint16"
        },
        {
          "internalType": "bytes",
          "name": "_srcAddress",
          "type": "bytes"
        },
        {
          "internalType": "uint64",
          "name": "_nonce",
          "type": "uint64"
        },
        {
          "internalType": "bytes",
          "name": "_payload",
          "type": "bytes"
        }
      ],
      "name": "lzReceive",
      "outputs": [],
      "stateMutability": "nonpayable",
      "type": "function"
    },
    {
      "inputs": [
        {
          "internalType": "uint16",
          "name": "_chainId",
          "type": "uint16"
        },
        {
          "internalType": "address",
          "name": "_oldStrategy",
          "type": "address"
        },
        {
          "internalType": "address",
          "name": "_newStrategy",
          "type": "address"
        }
      ],
      "name": "migrateStrategy",
      "outputs": [],
      "stateMutability": "nonpayable",
      "type": "function"
    },
    {
      "inputs": [
        {
          "internalType": "uint16",
          "name": "",
          "type": "uint16"
        },
        {
          "internalType": "uint16",
          "name": "",
          "type": "uint16"
        }
      ],
      "name": "minDstGasLookup",
      "outputs": [
        {
          "internalType": "uint256",
          "name": "",
          "type": "uint256"
        }
      ],
      "stateMutability": "view",
      "type": "function"
    },
    {
      "inputs": [],
      "name": "name",
      "outputs": [
        {
          "internalType": "string",
          "name": "",
          "type": "string"
        }
      ],
      "stateMutability": "view",
      "type": "function"
    },
    {
      "inputs": [
        {
          "internalType": "uint16",
          "name": "_srcChainId",
          "type": "uint16"
        },
        {
          "internalType": "bytes",
          "name": "_srcAddress",
          "type": "bytes"
        },
        {
          "internalType": "uint64",
          "name": "_nonce",
          "type": "uint64"
        },
        {
          "internalType": "bytes",
          "name": "_payload",
          "type": "bytes"
        }
      ],
      "name": "nonblockingLzReceive",
      "outputs": [],
      "stateMutability": "nonpayable",
      "type": "function"
    },
    {
      "inputs": [],
      "name": "owner",
      "outputs": [
        {
          "internalType": "address",
          "name": "",
          "type": "address"
        }
      ],
      "stateMutability": "view",
      "type": "function"
    },
    {
      "inputs": [
        {
          "internalType": "uint16",
          "name": "",
          "type": "uint16"
        }
      ],
      "name": "payloadSizeLimitLookup",
      "outputs": [
        {
          "internalType": "uint256",
          "name": "",
          "type": "uint256"
        }
      ],
      "stateMutability": "view",
      "type": "function"
    },
    {
      "inputs": [],
      "name": "precrime",
      "outputs": [
        {
          "internalType": "address",
          "name": "",
          "type": "address"
        }
      ],
      "stateMutability": "view",
      "type": "function"
    },
    {
      "inputs": [],
      "name": "pricePerShare",
      "outputs": [
        {
          "internalType": "uint256",
          "name": "",
          "type": "uint256"
        }
      ],
      "stateMutability": "view",
      "type": "function"
    },
    {
      "inputs": [],
      "name": "renounceOwnership",
      "outputs": [],
      "stateMutability": "nonpayable",
      "type": "function"
    },
    {
      "inputs": [
        {
          "internalType": "uint16",
          "name": "_srcChainId",
          "type": "uint16"
        },
        {
          "internalType": "bytes",
          "name": "_srcAddress",
          "type": "bytes"
        },
        {
          "internalType": "uint64",
          "name": "_nonce",
          "type": "uint64"
        },
        {
          "internalType": "bytes",
          "name": "_payload",
          "type": "bytes"
        }
      ],
      "name": "retryMessage",
      "outputs": [],
      "stateMutability": "payable",
      "type": "function"
    },
    {
      "inputs": [],
      "name": "revokeFunds",
      "outputs": [],
      "stateMutability": "nonpayable",
      "type": "function"
    },
    {
      "inputs": [
        {
          "internalType": "uint16",
          "name": "_chainId",
          "type": "uint16"
        },
        {
          "internalType": "address",
          "name": "_strategy",
          "type": "address"
        }
      ],
      "name": "revokeStrategy",
      "outputs": [],
      "stateMutability": "nonpayable",
      "type": "function"
    },
    {
      "inputs": [
        {
          "internalType": "uint16",
          "name": "_version",
          "type": "uint16"
        },
        {
          "internalType": "uint16",
          "name": "_chainId",
          "type": "uint16"
        },
        {
          "internalType": "uint256",
          "name": "_configType",
          "type": "uint256"
        },
        {
          "internalType": "bytes",
          "name": "_config",
          "type": "bytes"
        }
      ],
      "name": "setConfig",
      "outputs": [],
      "stateMutability": "nonpayable",
      "type": "function"
    },
    {
      "inputs": [
        {
          "internalType": "bool",
          "name": "_emergencyShutdown",
          "type": "bool"
        }
      ],
      "name": "setEmergencyShutdown",
      "outputs": [],
      "stateMutability": "nonpayable",
      "type": "function"
    },
    {
      "inputs": [
        {
          "internalType": "uint16",
          "name": "_dstChainId",
          "type": "uint16"
        },
        {
          "internalType": "uint16",
          "name": "_packetType",
          "type": "uint16"
        },
        {
          "internalType": "uint256",
          "name": "_minGas",
          "type": "uint256"
        }
      ],
      "name": "setMinDstGas",
      "outputs": [],
      "stateMutability": "nonpayable",
      "type": "function"
    },
    {
      "inputs": [
        {
          "internalType": "uint16",
          "name": "_dstChainId",
          "type": "uint16"
        },
        {
          "internalType": "uint256",
          "name": "_size",
          "type": "uint256"
        }
      ],
      "name": "setPayloadSizeLimit",
      "outputs": [],
      "stateMutability": "nonpayable",
      "type": "function"
    },
    {
      "inputs": [
        {
          "internalType": "address",
          "name": "_precrime",
          "type": "address"
        }
      ],
      "name": "setPrecrime",
      "outputs": [],
      "stateMutability": "nonpayable",
      "type": "function"
    },
    {
      "inputs": [
        {
          "internalType": "uint16",
          "name": "_version",
          "type": "uint16"
        }
      ],
      "name": "setReceiveVersion",
      "outputs": [],
      "stateMutability": "nonpayable",
      "type": "function"
    },
    {
      "inputs": [
        {
          "internalType": "uint16",
          "name": "_version",
          "type": "uint16"
        }
      ],
      "name": "setSendVersion",
      "outputs": [],
      "stateMutability": "nonpayable",
      "type": "function"
    },
    {
      "inputs": [
        {
          "internalType": "uint16",
          "name": "_srcChainId",
          "type": "uint16"
        },
        {
          "internalType": "bytes",
          "name": "_path",
          "type": "bytes"
        }
      ],
      "name": "setTrustedRemote",
      "outputs": [],
      "stateMutability": "nonpayable",
      "type": "function"
    },
    {
      "inputs": [
        {
          "internalType": "uint16",
          "name": "_remoteChainId",
          "type": "uint16"
        },
        {
          "internalType": "bytes",
          "name": "_remoteAddress",
          "type": "bytes"
        }
      ],
      "name": "setTrustedRemoteAddress",
      "outputs": [],
      "stateMutability": "nonpayable",
      "type": "function"
    },
    {
      "inputs": [],
      "name": "sgBridge",
      "outputs": [
        {
          "internalType": "contract ISgBridge",
          "name": "",
          "type": "address"
        }
      ],
      "stateMutability": "view",
      "type": "function"
    },
    {
      "inputs": [
        {
          "internalType": "uint16",
          "name": "_srcChainId",
          "type": "uint16"
        },
        {
          "internalType": "bytes",
          "name": "_srcAddress",
          "type": "bytes"
        },
        {
          "internalType": "uint256",
          "name": "",
          "type": "uint256"
        },
        {
          "internalType": "address",
          "name": "_token",
          "type": "address"
        },
        {
          "internalType": "uint256",
          "name": "_amountLD",
          "type": "uint256"
        },
        {
          "internalType": "bytes",
          "name": "_payload",
          "type": "bytes"
        }
      ],
      "name": "sgReceive",
      "outputs": [],
      "stateMutability": "nonpayable",
      "type": "function"
    },
    {
      "inputs": [
        {
          "internalType": "uint16",
          "name": "",
          "type": "uint16"
        },
        {
          "internalType": "address",
          "name": "",
          "type": "address"
        }
      ],
      "name": "strategies",
      "outputs": [
        {
          "internalType": "uint256",
          "name": "activation",
          "type": "uint256"
        },
        {
          "internalType": "uint256",
          "name": "debtRatio",
          "type": "uint256"
        },
        {
          "internalType": "uint256",
          "name": "totalDebt",
          "type": "uint256"
        },
        {
          "internalType": "uint256",
          "name": "totalGain",
          "type": "uint256"
        },
        {
          "internalType": "uint256",
          "name": "totalLoss",
          "type": "uint256"
        },
        {
          "internalType": "uint256",
          "name": "lastReport",
          "type": "uint256"
        },
        {
          "internalType": "uint256",
          "name": "performanceFee",
          "type": "uint256"
        },
        {
          "internalType": "address",
          "name": "strategist",
          "type": "address"
        }
      ],
      "stateMutability": "view",
      "type": "function"
    },
    {
      "inputs": [
        {
          "internalType": "contract IERC20",
          "name": "_token",
          "type": "address"
        }
      ],
      "name": "sweepToken",
      "outputs": [],
      "stateMutability": "nonpayable",
      "type": "function"
    },
    {
      "inputs": [],
      "name": "symbol",
      "outputs": [
        {
          "internalType": "string",
          "name": "",
          "type": "string"
        }
      ],
      "stateMutability": "view",
      "type": "function"
    },
    {
      "inputs": [],
      "name": "token",
      "outputs": [
        {
          "internalType": "contract IERC20",
          "name": "",
          "type": "address"
        }
      ],
      "stateMutability": "view",
      "type": "function"
    },
    {
      "inputs": [],
      "name": "totalAssets",
      "outputs": [
        {
          "internalType": "uint256",
          "name": "",
          "type": "uint256"
        }
      ],
      "stateMutability": "view",
      "type": "function"
    },
    {
      "inputs": [],
      "name": "totalDebt",
      "outputs": [
        {
          "internalType": "uint256",
          "name": "",
          "type": "uint256"
        }
      ],
      "stateMutability": "view",
      "type": "function"
    },
    {
      "inputs": [],
      "name": "totalDebtRatio",
      "outputs": [
        {
          "internalType": "uint256",
          "name": "",
          "type": "uint256"
        }
      ],
      "stateMutability": "view",
      "type": "function"
    },
    {
      "inputs": [],
      "name": "totalIdle",
      "outputs": [
        {
          "internalType": "uint256",
          "name": "",
          "type": "uint256"
        }
      ],
      "stateMutability": "view",
      "type": "function"
    },
    {
      "inputs": [],
      "name": "totalSupply",
      "outputs": [
        {
          "internalType": "uint256",
          "name": "",
          "type": "uint256"
        }
      ],
      "stateMutability": "view",
      "type": "function"
    },
    {
      "inputs": [
        {
          "internalType": "address",
          "name": "to",
          "type": "address"
        },
        {
          "internalType": "uint256",
          "name": "amount",
          "type": "uint256"
        }
      ],
      "name": "transfer",
      "outputs": [
        {
          "internalType": "bool",
          "name": "",
          "type": "bool"
        }
      ],
      "stateMutability": "nonpayable",
      "type": "function"
    },
    {
      "inputs": [
        {
          "internalType": "address",
          "name": "from",
          "type": "address"
        },
        {
          "internalType": "address",
          "name": "to",
          "type": "address"
        },
        {
          "internalType": "uint256",
          "name": "amount",
          "type": "uint256"
        }
      ],
      "name": "transferFrom",
      "outputs": [
        {
          "internalType": "bool",
          "name": "",
          "type": "bool"
        }
      ],
      "stateMutability": "nonpayable",
      "type": "function"
    },
    {
      "inputs": [
        {
          "internalType": "address",
          "name": "newOwner",
          "type": "address"
        }
      ],
      "name": "transferOwnership",
      "outputs": [],
      "stateMutability": "nonpayable",
      "type": "function"
    },
    {
      "inputs": [
        {
          "internalType": "uint16",
          "name": "",
          "type": "uint16"
        }
      ],
      "name": "trustedRemoteLookup",
      "outputs": [
        {
          "internalType": "bytes",
          "name": "",
          "type": "bytes"
        }
      ],
      "stateMutability": "view",
      "type": "function"
    },
    {
      "inputs": [
        {
          "internalType": "uint16",
          "name": "_chainId",
          "type": "uint16"
        },
        {
          "internalType": "address",
          "name": "_strategy",
          "type": "address"
        },
        {
          "internalType": "uint256",
          "name": "_debtRatio",
          "type": "uint256"
        }
      ],
      "name": "updateStrategyDebtRatio",
      "outputs": [],
      "stateMutability": "nonpayable",
      "type": "function"
    },
    {
      "inputs": [
        {
          "internalType": "uint256",
          "name": "_maxShares",
          "type": "uint256"
        },
        {
          "internalType": "address",
          "name": "_recipient",
          "type": "address"
        },
        {
          "internalType": "uint256",
          "name": "_maxLoss",
          "type": "uint256"
        }
      ],
      "name": "withdraw",
      "outputs": [],
      "stateMutability": "nonpayable",
      "type": "function"
    },
    {
      "inputs": [],
      "name": "withdrawEpoch",
      "outputs": [
        {
          "internalType": "uint256",
          "name": "",
          "type": "uint256"
        }
      ],
      "stateMutability": "view",
      "type": "function"
    },
    {
      "stateMutability": "payable",
      "type": "receive"
    }
  ],
  "bytecode": "0x608060405234801561001057600080fd5b50615f7d80620000216000396000f3fe6080604052600436106102db5760003560e01c80638cfd8f5c116101825780638cfd8f5c146107a55780638da5cb5b146107dd578063950c8a74146107f257806395d89b411461081257806399530b06146108275780639aa7df941461083c5780639f38369a14610851578063a032a71214610871578063a457c2d714610891578063a6c3d165146108b1578063a9059cbb146108d1578063ab73ce46146108f1578063ab8236f314610908578063b0bea72514610928578063b353aaa714610958578063baf3292d14610978578063c446183414610998578063cbed8b9c146109ae578063cfbcc644146109ce578063d1deba1f146109ee578063dd62ed3e14610a01578063df2a5b3b14610a21578063e63697c814610a41578063e7fda06114610a61578063eb8d72b714610a81578063ef34253c14610aa1578063f2fde38b14610ab6578063f5ecbdbc14610ad6578063f8c8765e14610af6578063fc0c546a14610b16578063fc7b9c1814610b36578063fd967f471461099857600080fd5b80621d3567146102e757806301dc2eb11461030957806301e1d1141461033c57806306fdde031461035157806307e0db1714610373578063095ea7b3146103935780630a97c254146103c35780630df37483146103e357806310ddb1371461040357806314c644021461042357806318160ddd146104435780631be195601461045857806323b872dd146104785780632d606843146104985780632df9eab9146104ad578063313ce567146104c35780633403c2fc146104df57806337fded91146104fa57806339509351146105275780633d8b38f6146105475780633f1f4fa4146105675780634067cb9e1461059457806342d65a8d1461064b57806352106a491461066b5780635aa6e6751461068b5780635b8c41e6146106ab57806366ad5c8a146106fa5780636e553f651461071a57806370a082311461073a578063715018a6146107705780637533d7881461078557600080fd5b366102e257005b600080fd5b3480156102f357600080fd5b50610307610302366004614de0565b610b4c565b005b34801561031557600080fd5b50610329610324366004614e88565b610c0f565b6040519081526020015b60405180910390f35b34801561034857600080fd5b50610329610c24565b34801561035d57600080fd5b50610366610c40565b6040516103339190614f0f565b34801561037f57600080fd5b5061030761038e366004614f22565b610cd2565b34801561039f57600080fd5b506103b36103ae366004614f3d565b610d3f565b6040519015158152602001610333565b3480156103cf57600080fd5b506103076103de366004614f69565b610d57565b3480156103ef57600080fd5b506103076103fe366004614fa8565b610ee6565b34801561040f57600080fd5b5061030761041e366004614f22565b610f05565b34801561042f57600080fd5b5061030761043e366004614fd2565b610f41565b34801561044f57600080fd5b50603554610329565b34801561046457600080fd5b50610307610473366004614fef565b610fa2565b34801561048457600080fd5b506103b361049336600461500c565b611074565b3480156104a457600080fd5b50610307611098565b3480156104b957600080fd5b5061032960fe5481565b3480156104cf57600080fd5b5060405160128152602001610333565b3480156104eb57600080fd5b50610100546103b39060ff1681565b34801561050657600080fd5b5060fd5461051a906001600160a01b031681565b604051610333919061502c565b34801561053357600080fd5b506103b3610542366004614f3d565b611111565b34801561055357600080fd5b506103b3610562366004615040565b611133565b34801561057357600080fd5b50610329610582366004614f22565b609a6020526000908152604090205481565b3480156105a057600080fd5b506106076105af366004614e88565b610101602090815260009283526040808420909152908252902080546001820154600283015460038401546004850154600586015460068701546007909701549596949593949293919290916001600160a01b031688565b604080519889526020890197909752958701949094526060860192909252608085015260a084015260c08301526001600160a01b031660e082015261010001610333565b34801561065757600080fd5b50610307610666366004615040565b6111ff565b34801561067757600080fd5b50610307610686366004615092565b611272565b34801561069757600080fd5b5060fb5461051a906001600160a01b031681565b3480156106b757600080fd5b506103296106c63660046151db565b60c9602090815260009384526040808520845180860184018051928152908401958401959095209452929052825290205481565b34801561070657600080fd5b50610307610715366004614de0565b6114b8565b34801561072657600080fd5b50610329610735366004615238565b61158c565b34801561074657600080fd5b50610329610755366004614fef565b6001600160a01b031660009081526033602052604090205490565b34801561077c57600080fd5b50610307611598565b34801561079157600080fd5b506103666107a0366004614f22565b6115ac565b3480156107b157600080fd5b506103296107c036600461525d565b609960209081526000928352604080842090915290825290205481565b3480156107e957600080fd5b5061051a611646565b3480156107fe57600080fd5b50609b5461051a906001600160a01b031681565b34801561081e57600080fd5b50610366611655565b34801561083357600080fd5b50610329611664565b34801561084857600080fd5b5061032961167a565b34801561085d57600080fd5b5061036661086c366004614f22565b6116ec565b34801561087d57600080fd5b5061030761088c366004615290565b611802565b34801561089d57600080fd5b506103b36108ac366004614f3d565b611bef565b3480156108bd57600080fd5b506103076108cc366004615040565b611c6a565b3480156108dd57600080fd5b506103b36108ec366004614f3d565b611cf3565b3480156108fd57600080fd5b506103296101025481565b34801561091457600080fd5b506103076109233660046152d9565b611d01565b34801561093457600080fd5b5061030761010254600090815261010660205260409020600101805460ff19169055565b34801561096457600080fd5b5060975461051a906001600160a01b031681565b34801561098457600080fd5b50610307610993366004614fef565b611e5f565b3480156109a457600080fd5b5061032961271081565b3480156109ba57600080fd5b506103076109c9366004615373565b611ebd565b3480156109da57600080fd5b506103076109e9366004614e88565b611f36565b6103076109fc366004614de0565b611f91565b348015610a0d57600080fd5b50610329610a1c3660046153e1565b6121a7565b348015610a2d57600080fd5b50610307610a3c3660046153ff565b6121d2565b348015610a4d57600080fd5b50610307610a5c36600461543b565b612284565b348015610a6d57600080fd5b50610329610a7c366004614e88565b612294565b348015610a8d57600080fd5b50610307610a9c366004615040565b6122a0565b348015610aad57600080fd5b506103076122fa565b348015610ac257600080fd5b50610307610ad1366004614fef565b61261a565b348015610ae257600080fd5b50610366610af1366004615462565b612690565b348015610b0257600080fd5b50610307610b113660046154af565b612725565b348015610b2257600080fd5b5060fc5461051a906001600160a01b031681565b348015610b4257600080fd5b5061032960ff5481565b6097546001600160a01b03163314610b915760405162461bcd60e51b81526020600482015260036024820152622b189960e91b60448201526064015b60405180910390fd5b610c078686868080601f01602080910402602001604051908101604052809392919081815260200183838082843760009201919091525050604080516020601f89018190048102820181019092528781528993509150879087908190840183828082843760009201919091525061293e92505050565b505050505050565b6000610c1b83836129b7565b90505b92915050565b6000610c2e61167a565b60ff54610c3b9190615521565b905090565b606060368054610c4f90615534565b80601f0160208091040260200160405190810160405280929190818152602001828054610c7b90615534565b8015610cc85780601f10610c9d57610100808354040283529160200191610cc8565b820191906000526020600020905b815481529060010190602001808311610cab57829003601f168201915b5050505050905090565b610cda612a7f565b6097546040516307e0db1760e01b815261ffff831660048201526001600160a01b03909116906307e0db17906024015b600060405180830381600087803b158015610d2457600080fd5b505af1158015610d38573d6000803e3d6000fd5b5050505050565b600033610d4d818585612ade565b5060019392505050565b60fb546001600160a01b0316331480610d885750610d73611646565b6001600160a01b0316336001600160a01b0316145b610da45760405162461bcd60e51b8152600401610b889061556e565b61ffff83166000908152610101602090815260408083206001600160a01b0386168452909152902054610e135760405162461bcd60e51b81526020600482015260176024820152765661756c743a3a496e616374697665537472617465677960481b6044820152606401610b88565b61ffff83166000908152610101602090815260408083206001600160a01b038616845290915281206001015460fe805491929091610e5290849061558a565b909155505061ffff83166000908152610101602090815260408083206001600160a01b0386168452909152902060010181905560fe5461271090610e97908390615521565b1115610eca5760405162461bcd60e51b81526020600482015260026024820152612b1b60f11b6044820152606401610b88565b8060fe6000828254610edc9190615521565b9091555050505050565b610eee612a7f565b61ffff9091166000908152609a6020526040902055565b610f0d612a7f565b6097546040516310ddb13760e01b815261ffff831660048201526001600160a01b03909116906310ddb13790602401610d0a565b60fb546001600160a01b0316331480610f725750610f5d611646565b6001600160a01b0316336001600160a01b0316145b610f8e5760405162461bcd60e51b8152600401610b889061556e565b610100805460ff1916911515919091179055565b60fb546001600160a01b0316331480610fd35750610fbe611646565b6001600160a01b0316336001600160a01b0316145b610fef5760405162461bcd60e51b8152600401610b889061556e565b61107133826001600160a01b03166370a08231306040518263ffffffff1660e01b815260040161101f919061502c565b602060405180830381865afa15801561103c573d6000803e3d6000fd5b505050506040513d601f19601f82011682018060405250810190611060919061559d565b6001600160a01b0384169190612c02565b50565b600033611082858285612c58565b61108d858585612ccc565b506001949350505050565b60fb546001600160a01b03163314806110c957506110b4611646565b6001600160a01b0316336001600160a01b0316145b6110e55760405162461bcd60e51b8152600401610b889061556e565b60405133904780156108fc02916000818181858888f19350505050158015611071573d6000803e3d6000fd5b600033610d4d81858561112483836121a7565b61112e9190615521565b612ade565b61ffff83166000908152609860205260408120805482919061115490615534565b80601f016020809104026020016040519081016040528092919081815260200182805461118090615534565b80156111cd5780601f106111a2576101008083540402835291602001916111cd565b820191906000526020600020905b8154815290600101906020018083116111b057829003601f168201915b5050505050905083836040516111e49291906155b6565b60405180910390208180519060200120149150509392505050565b611207612a7f565b6097546040516342d65a8d60e01b81526001600160a01b03909116906342d65a8d9061123b908690869086906004016155ef565b600060405180830381600087803b15801561125557600080fd5b505af1158015611269573d6000803e3d6000fd5b50505050505050565b60fb546001600160a01b03163314806112a3575061128e611646565b6001600160a01b0316336001600160a01b0316145b6112bf5760405162461bcd60e51b8152600401610b889061556e565b61ffff85166000908152610101602090815260408083206001600160a01b03881684529091529020541561131a5760405162461bcd60e51b81526020600482015260026024820152612b1960f11b6044820152606401610b88565b6127108360fe5461132b9190615521565b111561135e5760405162461bcd60e51b8152602060048201526002602482015261563360f01b6044820152606401610b88565b60405180610100016040528042815260200184815260200160008152602001600081526020016000815260200160008152602001838152602001826001600160a01b031681525061010160008761ffff1661ffff1681526020019081526020016000206000866001600160a01b03166001600160a01b03168152602001908152602001600020600082015181600001556020820151816001015560408201518160020155606082015181600301556080820151816004015560a0820151816005015560c0820151816006015560e08201518160070160006101000a8154816001600160a01b0302191690836001600160a01b031602179055509050506114888461010360008861ffff1661ffff168152602001908152602001600020612e6590919063ffffffff16565b5061149961010461ffff8716612e7a565b508260fe60008282546114ac9190615521565b90915550505050505050565b3330146115165760405162461bcd60e51b815260206004820152602660248201527f4e6f6e626c6f636b696e674c7a4170703a2063616c6c6572206d7573742062656044820152650204c7a4170760d41b6064820152608401610b88565b610c078686868080601f01602080910402602001604051908101604052809392919081815260200183838082843760009201919091525050604080516020601f890181900481028201810190925287815289935091508790879081908401838280828437600092019190915250612e8692505050565b6000610c1b8383612f24565b6115a0612a7f565b6115aa6000612f88565b565b609860205260009081526040902080546115c590615534565b80601f01602080910402602001604051908101604052809291908181526020018280546115f190615534565b801561163e5780601f106116135761010080835404028352916020019161163e565b820191906000526020600020905b81548152906001019060200180831161162157829003601f168201915b505050505081565b6065546001600160a01b031690565b606060378054610c4f90615534565b6000610c3b6116756012600a6156f1565b612fda565b60fc546040516370a0823160e01b81526000916001600160a01b0316906370a08231906116ab90309060040161502c565b602060405180830381865afa1580156116c8573d6000803e3d6000fd5b505050506040513d601f19601f82011682018060405250810190610c3b919061559d565b61ffff811660009081526098602052604081208054606092919061170f90615534565b80601f016020809104026020016040519081016040528092919081815260200182805461173b90615534565b80156117885780601f1061175d57610100808354040283529160200191611788565b820191906000526020600020905b81548152906001019060200180831161176b57829003601f168201915b5050505050905080516000036117e05760405162461bcd60e51b815260206004820152601d60248201527f4c7a4170703a206e6f20747275737465642070617468207265636f72640000006044820152606401610b88565b6117fb6000601483516117f3919061558a565b83919061300f565b9392505050565b60fb546001600160a01b0316331480611833575061181e611646565b6001600160a01b0316336001600160a01b0316145b61184f5760405162461bcd60e51b8152600401610b889061556e565b6001600160a01b03811661188a5760405162461bcd60e51b8152602060048201526002602482015261563760f01b6044820152606401610b88565b61ffff83166000908152610101602090815260408083206001600160a01b03861684529091529020546118e45760405162461bcd60e51b81526020600482015260026024820152610ac760f31b6044820152606401610b88565b61ffff83166000908152610101602090815260408083206001600160a01b03851684529091529020541561193f5760405162461bcd60e51b8152602060048201526002602482015261563960f01b6044820152606401610b88565b600061010160008561ffff1661ffff1681526020019081526020016000206000846001600160a01b03166001600160a01b0316815260200190815260200160002060405180610100016040529081600082015481526020016001820154815260200160028201548152602001600382015481526020016004820154815260200160058201548152602001600682015481526020016007820160009054906101000a90046001600160a01b03166001600160a01b03166001600160a01b03168152505090506040518061010001604052808260a001518152602001826020015181526020018260400151815260200160008152602001600081526020018260a0015181526020018260c0015181526020018260e001516001600160a01b031681525061010160008661ffff1661ffff1681526020019081526020016000206000846001600160a01b03166001600160a01b03168152602001908152602001600020600082015181600001556020820151816001015560408201518160020155606082015181600301556080820151816004015560a0820151816005015560c0820151816006015560e08201518160070160006101000a8154816001600160a01b0302191690836001600160a01b03160217905550905050600061010160008661ffff1661ffff1681526020019081526020016000206000856001600160a01b03166001600160a01b0316815260200190815260200160002060010181905550600061010160008661ffff1661ffff1681526020019081526020016000206000856001600160a01b03166001600160a01b0316815260200190815260200160002060020181905550611be9848460046040518060200160405280876001600160a01b0316815250604051602001611bd5929190615738565b60405160208183030381529060405261311c565b50505050565b60003381611bfd82866121a7565b905083811015611c5d5760405162461bcd60e51b815260206004820152602560248201527f45524332303a2064656372656173656420616c6c6f77616e63652062656c6f77604482015264207a65726f60d81b6064820152608401610b88565b61108d8286868403612ade565b611c72612a7f565b818130604051602001611c879392919061575d565b60408051601f1981840301815291815261ffff8516600090815260986020522090611cb290826157d9565b507f8c0400cfe2d1199b1a725c78960bcc2a344d869b80590d0f2bd005db15a572ce838383604051611ce6939291906155ef565b60405180910390a1505050565b600033610d4d818585612ccc565b60fc546001600160a01b03848116911614611d445760405162461bcd60e51b815260206004820152600360248201526205631360ec1b6044820152606401610b88565b61ffff8616600090815261010160209081526040808320338452909152902054151580611d6f575033155b611da15760405162461bcd60e51b815260206004820152600360248201526256313160e81b6044820152606401610b88565b61ffff8616600090815261010160209081526040808320338452909152812054611e0257611dd2866000601461300f565b604051602001611de29190615892565b604051602081830303815290604052611dfa906158ae565b60601c611e04565b335b9050611e118783856132d8565b604080518481526001600160a01b0383811660208301528616917f92073a89a07a000083eb8b2575fc15e7bb936efe55d00727d6942a796d7211a7910160405180910390a250505050505050565b611e67612a7f565b609b80546001600160a01b0319166001600160a01b0383161790556040517f5db758e995a17ec1ad84bdef7e8c3293a0bd6179bcce400dff5d4c3d87db726b90611eb290839061502c565b60405180910390a150565b611ec5612a7f565b6097546040516332fb62e760e21b81526001600160a01b039091169063cbed8b9c90611efd90889088908890889088906004016158e5565b600060405180830381600087803b158015611f1757600080fd5b505af1158015611f2b573d6000803e3d6000fd5b505050505050505050565b60fb546001600160a01b0316331480611f675750611f52611646565b6001600160a01b0316336001600160a01b0316145b611f835760405162461bcd60e51b8152600401610b889061556e565b611f8d828261336f565b5050565b61ffff8616600090815260c960205260408082209051611fb490889088906155b6565b90815260408051602092819003830190206001600160401b038716600090815292529020549050806120345760405162461bcd60e51b815260206004820152602360248201527f4e6f6e626c6f636b696e674c7a4170703a206e6f2073746f726564206d65737360448201526261676560e81b6064820152608401610b88565b8083836040516120459291906155b6565b6040518091039020146120a45760405162461bcd60e51b815260206004820152602160248201527f4e6f6e626c6f636b696e674c7a4170703a20696e76616c6964207061796c6f616044820152601960fa1b6064820152608401610b88565b61ffff8716600090815260c9602052604080822090516120c790899089906155b6565b90815260408051602092819003830181206001600160401b038916600090815290845282902093909355601f8801829004820283018201905286825261215f918991899089908190840183828082843760009201919091525050604080516020601f8a018190048102820181019092528881528a935091508890889081908401838280828437600092019190915250612e8692505050565b7fc264d91f3adc5588250e1551f547752ca0cfa8f6b530d243b9f9f4cab10ea8e58787878785604051612196959493929190615913565b60405180910390a150505050505050565b6001600160a01b03918216600090815260346020908152604080832093909416825291909152205490565b6121da612a7f565b600081116122225760405162461bcd60e51b81526020600482015260156024820152744c7a4170703a20696e76616c6964206d696e47617360581b6044820152606401610b88565b61ffff83811660008181526099602090815260408083209487168084529482529182902085905581519283528201929092529081018290527f9d5c7c0b934da8fefa9c7760c98383778a12dfbfc0c3b3106518f43fb9508ac090606001611ce6565b61228f8383836133e4565b505050565b6000610c1b8383613525565b6122a8612a7f565b61ffff831660009081526098602052604090206122c682848361594e565b507ffa41487ad5d6728f0b19276fa1eddc16558578f5109fc39d2dc33c3230470dab838383604051611ce6939291906155ef565b60fb546001600160a01b031633148061232b5750612316611646565b6001600160a01b0316336001600160a01b0316145b6123475760405162461bcd60e51b8152600401610b889061556e565b610102546000908152610106602052604090206001015460ff16156123935760405162461bcd60e51b8152602060048201526002602482015261158d60f21b6044820152606401610b88565b6000805b610102546000908152610106602052604090205481101561241457610102546000908152610106602052604081208054839081106123d7576123d7615a07565b906000526020600020906006020190506123f48160020154612fda565b6123fe9084615521565b925050808061240c90615a1d565b915050612397565b5061241d61167a565b811161242b576110716135dd565b600061243561167a565b61243f908361558a565b90506000805b6124506101046138f3565b8110801561245e5750600083115b156125af576000612471610104836138fd565b61ffff81166000908152610103602052604081209192505b612492826138f3565b811080156124a05750600086115b156125995760006124b183836138fd565b61ffff85166000908152610101602090815260408083206001600160a01b0385168452909152812060028101549293509190036124ef575050612587565b60006124ff898360020154613909565b6101025460009081526101066020908152604080832061ffff8b16845260050182528083206001600160a01b038816845290915290208190559050612544818a61558a565b985061257686846000604051806040016040528086815260200161010254815250604051602001611bd5929190615a36565b8761258081615a1d565b9850505050505b8061259181615a1d565b915050612489565b50505080806125a790615a1d565b915050612445565b50600081116125e55760405162461bcd60e51b8152602060048201526002602482015261563560f01b6044820152606401610b88565b6101028054600090815261010660205260408082206002019390935590548152206001908101805460ff191690911790555050565b612622612a7f565b6001600160a01b0381166126875760405162461bcd60e51b815260206004820152602660248201527f4f776e61626c653a206e6577206f776e657220697320746865207a65726f206160448201526564647265737360d01b6064820152608401610b88565b61107181612f88565b609754604051633d7b2f6f60e21b815261ffff808716600483015285166024820152306044820152606481018390526060916001600160a01b03169063f5ecbdbc90608401600060405180830381865afa1580156126f2573d6000803e3d6000fd5b505050506040513d6000823e601f3d908101601f1916820160405261271a9190810190615aa1565b90505b949350505050565b600054610100900460ff16158080156127455750600054600160ff909116105b8061276657506127543061391f565b158015612766575060005460ff166001145b6127c95760405162461bcd60e51b815260206004820152602e60248201527f496e697469616c697a61626c653a20636f6e747261637420697320616c72656160448201526d191e481a5b9a5d1a585b1a5e995960921b6064820152608401610b88565b6000805460ff1916600117905580156127ec576000805461ff0019166101001790555b6127f58461392e565b6127fd613966565b6128496040518060400160405280600f81526020016e13db5b9a58da185a5b8815985d5b1d608a1b8152506040518060400160405280600381526020016227a6ab60e91b815250613995565b60fb80546001600160a01b038088166001600160a01b03199283161790925560fc8054868416908316811790915560fd80549386169390921692909217905560405163095ea7b360e01b815263095ea7b3906128ad90859060001990600401615ad5565b6020604051808303816000875af11580156128cc573d6000803e3d6000fd5b505050506040513d601f19601f820116820180604052508101906128f09190615aee565b508015610d38576000805461ff0019169055604051600181527f7f26b83ff96e1f2b6a682f133852f6798a09c465da95921460cefb3847402498906020015b60405180910390a15050505050565b6000806129a15a60966366ad5c8a60e01b898989896040516024016129669493929190615b0b565b60408051601f198184030181529190526020810180516001600160e01b03166001600160e01b031990931692909217909152309291906139c6565b9150915081610c0757610c078686868685613a52565b6101005460009060ff16156129ce57506000610c1e565b60006127106129db610c24565b61ffff86166000908152610101602090815260408083206001600160a01b0389168452909152902060010154612a119190615b49565b612a1b9190615b60565b61ffff85166000908152610101602090815260408083206001600160a01b0388168452909152902060020154909150808211612a5c57600092505050610c1e565b612a76612a6761167a565b612a71838561558a565b613909565b95945050505050565b33612a88611646565b6001600160a01b0316146115aa5760405162461bcd60e51b815260206004820181905260248201527f4f776e61626c653a2063616c6c6572206973206e6f7420746865206f776e65726044820152606401610b88565b6001600160a01b038316612b405760405162461bcd60e51b8152602060048201526024808201527f45524332303a20617070726f76652066726f6d20746865207a65726f206164646044820152637265737360e01b6064820152608401610b88565b6001600160a01b038216612ba15760405162461bcd60e51b815260206004820152602260248201527f45524332303a20617070726f766520746f20746865207a65726f206164647265604482015261737360f01b6064820152608401610b88565b6001600160a01b0383811660008181526034602090815260408083209487168084529482529182902085905590518481527f8c5be1e5ebec7d5bd14f71427d1e84f3dd0314c0f7b2291e5b200ac8c7c3b925910160405180910390a3505050565b61228f8363a9059cbb60e01b8484604051602401612c21929190615ad5565b60408051601f198184030181529190526020810180516001600160e01b03166001600160e01b031990931692909217909152613ae0565b6000612c6484846121a7565b90506000198114611be95781811015612cbf5760405162461bcd60e51b815260206004820152601d60248201527f45524332303a20696e73756666696369656e7420616c6c6f77616e63650000006044820152606401610b88565b611be98484848403612ade565b6001600160a01b038316612d305760405162461bcd60e51b815260206004820152602560248201527f45524332303a207472616e736665722066726f6d20746865207a65726f206164604482015264647265737360d81b6064820152608401610b88565b6001600160a01b038216612d925760405162461bcd60e51b815260206004820152602360248201527f45524332303a207472616e7366657220746f20746865207a65726f206164647260448201526265737360e81b6064820152608401610b88565b6001600160a01b03831660009081526033602052604090205481811015612e0a5760405162461bcd60e51b815260206004820152602660248201527f45524332303a207472616e7366657220616d6f756e7420657863656564732062604482015265616c616e636560d01b6064820152608401610b88565b6001600160a01b038085166000818152603360205260408082208686039055928616808252908390208054860190559151600080516020615f2883398151915290612e589086815260200190565b60405180910390a3611be9565b6000610c1b836001600160a01b038416613bb5565b6000610c1b8383613bb5565b6000612e948482601461300f565b604051602001612ea49190615892565b604051602081830303815290604052612ebc906158ae565b61ffff861660009081526101016020908152604080832060609490941c80845293909152902054909150612f185760405162461bcd60e51b815260206004820152600360248201526256323160e81b6044820152606401610b88565b610d38858360006132d8565b6101005460009060ff1615612f615760405162461bcd60e51b815260206004820152600360248201526256313360e81b6044820152606401610b88565b6000612f6d8385613c04565b60fc54909150610c1b906001600160a01b0316333087613c80565b606580546001600160a01b038381166001600160a01b0319831681179093556040519116919082907f8be0079c531659141344cd1fd0a4f28419497f9722a3daafe3b4186f6b6457e090600090a35050565b6000612fe560355490565b600003612ff0575090565b603554612ffb610c24565b6130059084615b49565b610c1e9190615b60565b60608161301d81601f615521565b101561305c5760405162461bcd60e51b815260206004820152600e60248201526d736c6963655f6f766572666c6f7760901b6044820152606401610b88565b6130668284615521565b845110156130aa5760405162461bcd60e51b8152602060048201526011602482015270736c6963655f6f75744f66426f756e647360781b6044820152606401610b88565b6060821580156130c95760405191506000825260208201604052613113565b6040519150601f8416801560200281840101858101878315602002848b0101015b818310156131025780518352602092830192016130ea565b5050858452601f01601f1916604052505b50949350505050565b61ffff83166000908152610101602090815260408083206001600160a01b0386168452909152902080546131785760405162461bcd60e51b81526020600482015260036024820152620ac62760eb1b6044820152606401610b88565b6040516001600160601b0319606085811b8216602084015230901b16603482015260009060480160408051601f198184030181529190526097549091506000906001600160a01b03166340a7bb10873087856131d2613cb8565b6040518663ffffffff1660e01b81526004016131f2959493929190615b82565b6040805180830381865afa15801561320e573d6000803e3d6000fd5b505050506040513d601f19601f820116820180604052508101906132329190615bd6565b5090508047101561325e5760405162fae2d560e21b815260048101829052476024820152604401610b88565b6097546001600160a01b031663c580310082888588308061327d613cb8565b6040518863ffffffff1660e01b815260040161329e96959493929190615bfa565b6000604051808303818588803b1580156132b757600080fd5b505af11580156132cb573d6000803e3d6000fd5b5050505050505050505050565b6000828060200190518101906132ee9190615c61565b9050600281600481111561330457613304615700565b036133335760008380602001905181019061331f9190615c8d565b91505061332d858285613ce8565b50611be9565b600181600481111561334757613347615700565b03611be9576000838060200190518101906133629190615d78565b915050610d38858261412e565b61ffff82166000908152610101602090815260408083206001600160a01b038516845290915281206001015460fe8054919290916133ae90849061558a565b909155505061ffff9091166000908152610101602090815260408083206001600160a01b03909416835292905290812060010155565b610102546000908152610106602052604090206001015460ff16156134315760405162461bcd60e51b81526020600482015260036024820152622b189b60e91b6044820152606401610b88565b61343c333085612ccc565b61010660006101025481526020019081526020016000206000016040518060c00160405280336001600160a01b03168152602001846001600160a01b0316815260200185815260200183815260200161349486612fda565b81526000602091820181905283546001808201865594825290829020835160069092020180546001600160a01b03199081166001600160a01b039384161782559284015194810180549093169490911693909317905560408101516002830155606081015160038301556080810151600483015560a001516005909101805460ff1916911515919091179055505050565b600080612710613533610c24565b61ffff86166000908152610101602090815260408083206001600160a01b03891684529091529020600101546135699190615b49565b6135739190615b60565b61ffff85166000908152610101602090815260408083206001600160a01b0388168452909152902060020154610100549192509060ff16156135b8579150610c1e9050565b8181116135ca57600092505050610c1e565b6135d4828261558a565b92505050610c1e565b6101025460009081526101066020526040902054806136245760405162461bcd60e51b815260206004820152600360248201526256313960e81b6044820152606401610b88565b6000816001600160401b0381111561363e5761363e6150ef565b604051908082528060200260200182016040528015613667578160200160208202803683370190505b50905060005b828110156136e7576101025460009081526101066020526040812080548390811061369a5761369a615a07565b906000526020600020906006020190506136b78160020154612fda565b8383815181106136c9576136c9615a07565b602090810291909101015250806136df81615a1d565b91505061366d565b5060005b82811015613880576101025460009081526101066020526040812080548390811061371857613718615a07565b90600052602060002090600602019050600061374f84848151811061373f5761373f615a07565b6020026020010151612a7161167a565b9050816004015481101561382e57600081836004015461376f919061558a565b905060008360040154612710836137869190615b49565b6137909190615b60565b9050836003015481111561382b5760058401805460ff191690558354600285015460405163a9059cbb60e01b8152309263a9059cbb926137de926001600160a01b0390921691600401615ad5565b6020604051808303816000875af11580156137fd573d6000803e3d6000fd5b505050506040513d601f19601f820116820180604052508101906138219190615aee565b505050505061386e565b50505b60058201805460ff1916600190811790915582015460fc5461385d916001600160a01b03918216911683612c02565b61386b308360020154614309565b50505b8061387881615a1d565b9150506136eb565b506101025460408051918252602082018490527fc682eb885c208b8aaaa811c05902e24a4f14b388960311623a8f31404f655129910160405180910390a16101028054600090815261010660205260408120600101805460ff19169055815491906138ea83615a1d565b91905055505050565b6000610c1e825490565b6000610c1b838361442b565b60008183106139185781610c1b565b5090919050565b6001600160a01b03163b151590565b600054610100900460ff166139555760405162461bcd60e51b8152600401610b8890615e03565b61395d614455565b61107181614485565b600054610100900460ff1661398d5760405162461bcd60e51b8152600401610b8890615e03565b6115aa614455565b600054610100900460ff166139bc5760405162461bcd60e51b8152600401610b8890615e03565b611f8d82826144ce565b6000606060008060008661ffff166001600160401b038111156139eb576139eb6150ef565b6040519080825280601f01601f191660200182016040528015613a15576020820181803683370190505b50905060008087516020890160008d8df191503d925086831115613a37578692505b828152826000602083013e9093509150505b94509492505050565b818051906020012060c960008761ffff1661ffff16815260200190815260200160002085604051613a839190615892565b9081526040805191829003602090810183206001600160401b0388166000908152915220919091557fe183f33de2837795525b4792ca4cd60535bd77c53b7e7030060bfcf5734d6b0c9061292f9087908790879087908790615e4e565b6000613b35826040518060400160405280602081526020017f5361666545524332303a206c6f772d6c6576656c2063616c6c206661696c6564815250856001600160a01b031661450e9092919063ffffffff16565b9050805160001480613b56575080806020019051810190613b569190615aee565b61228f5760405162461bcd60e51b815260206004820152602a60248201527f5361666545524332303a204552433230206f7065726174696f6e20646964206e6044820152691bdd081cdd58d8d9595960b21b6064820152608401610b88565b6000818152600183016020526040812054613bfc57508154600181810184556000848152602080822090930184905584548482528286019093526040902091909155610c1e565b506000610c1e565b600080613c1060355490565b600003613c1e575081613c40565b613c26610c24565b603554613c339085615b49565b613c3d9190615b60565b90505b60008111613c765760405162461bcd60e51b815260206004820152600360248201526256313760e81b6044820152606401610b88565b610c1b848261451d565b6040516001600160a01b0380851660248301528316604482015260648101829052611be99085906323b872dd60e01b90608401612c21565b60408051600160f01b6020820152620f424060228083019190915282518083039091018152604290910190915290565b613cf283836145cc565b61ffff831660009081526101016020908152604080832085516001600160a01b03168452909152902054613d4e5760405162461bcd60e51b8152602060048201526003602482015262158c4d60ea1b6044820152606401610b88565b606082015115613d6b57613d6b83836000015184606001516147ab565b60408083015161ffff85166000908152610101602090815283822086516001600160a01b031683529052918220600301805491929091613dac908490615521565b90915550508151600090613dc1908590613525565b90506000613dd3828560800151613909565b90508015613e435761ffff851660009081526101016020908152604080832087516001600160a01b0316845290915281206002018054839290613e1790849061558a565b925050819055508060ff6000828254613e30919061558a565b90915550613e409050818361558a565b91505b60e084015115613eb05760e084015161ffff861660009081526101016020908152604080832088516001600160a01b0316845290915281206002018054909190613e8e908490615521565b909155505060e084015160ff8054600090613eaa908490615521565b90915550505b60208085015161ffff8716600081815261010180855260408083208a516001600160a01b039081168552818852828520600501969096559383529085528851909316815292529020600101541580613f0b57506101005460ff165b15613f195783610100015191505b60a084015115613f6c57613f678460a001518686600001516003604051806020016040528088815250604051602001613f53929190615ea0565b6040516020818303038152906040526148a0565b613f97565b613f978585600001516003604051806020016040528087815250604051602001611bd5929190615ea0565b600061010160008761ffff1661ffff168152602001908152602001600020600086600001516001600160a01b03166001600160a01b0316815260200190815260200160002060405180610100016040529081600082015481526020016001820154815260200160028201548152602001600382015481526020016004820154815260200160058201548152602001600682015481526020016007820160009054906101000a90046001600160a01b03166001600160a01b03166001600160a01b03168152505090507f08bc8eff67f79e18165507d64024f5ca5e90a2593c7a45cb5caf7f9d843e404c8686600001518760400151886060015189608001518660600151876080015188604001518d60e001518a602001518e60405161411e9b9a9998979695949392919061ffff9b909b168b526001600160a01b039990991660208b015260408a01979097526060890195909552608088019390935260a087019190915260c086015260e08501526101008401526101208301526101408201526101600190565b60405180910390a1505050505050565b61ffff821660009081526101016020908152604080832084516001600160a01b0316845290915290205461418a5760405162461bcd60e51b815260206004820152600360248201526205632360ec1b6044820152606401610b88565b6040810151156141a7576141a782826000015183604001516147ab565b60208082015161ffff841660009081526101018352604080822085516001600160a01b031683529093529182206002018054919290916141e890849061558a565b9091555050602081015160ff805460009061420490849061558a565b9091555050606081015160009081526101066020526040812060030180549161422c83615a1d565b909155505060608101805160009081526101066020818152604080842061ffff88168552600401825280842086516001600160a01b031685528252808420805460ff191660011790558451845291905280822060030154925182529020600201540361429a5761429a6135dd565b80600001516001600160a01b03168261ffff167f046368a4ca42efbdd968b9025440eb5590bdcda7da09f4fef8ac4ef2f44a5ed08360200151846040015185606001516040516142fd939291909283526020830191909152604082015260600190565b60405180910390a35050565b6001600160a01b0382166143695760405162461bcd60e51b815260206004820152602160248201527f45524332303a206275726e2066726f6d20746865207a65726f206164647265736044820152607360f81b6064820152608401610b88565b6001600160a01b038216600090815260336020526040902054818110156143dd5760405162461bcd60e51b815260206004820152602260248201527f45524332303a206275726e20616d6f756e7420657863656564732062616c616e604482015261636560f01b6064820152608401610b88565b6001600160a01b0383166000818152603360209081526040808320868603905560358054879003905551858152919291600080516020615f28833981519152910160405180910390a3505050565b600082600001828154811061444257614442615a07565b9060005260206000200154905092915050565b600054610100900460ff1661447c5760405162461bcd60e51b8152600401610b8890615e03565b6115aa33612f88565b600054610100900460ff166144ac5760405162461bcd60e51b8152600401610b8890615e03565b609780546001600160a01b0319166001600160a01b0392909216919091179055565b600054610100900460ff166144f55760405162461bcd60e51b8152600401610b8890615e03565b603661450183826157d9565b50603761228f82826157d9565b606061271d8484600085614990565b6001600160a01b0382166145735760405162461bcd60e51b815260206004820152601f60248201527f45524332303a206d696e7420746f20746865207a65726f2061646472657373006044820152606401610b88565b80603560008282546145859190615521565b90915550506001600160a01b038216600081815260336020908152604080832080548601905551848152600080516020615f28833981519152910160405180910390a35050565b61ffff821660009081526101076020908152604080832084516001600160a01b031684528252808320610120850151845290915290205460ff16156146395760405162461bcd60e51b81526020600482015260036024820152622b191960e91b6044820152606401610b88565b805161012082015160405160609290921b6001600160601b0319166020830152603482015260f083901b6001600160f01b03191660548201526000906056016040516020818303038152906040528051906020012090506000816040516020016146ce91907b0ca2ba3432b932bab69029b4b3b732b21026b2b9b9b0b3b29d05199960211b8152601c810191909152603c0190565b60408051601f19818403018152918152815160209283012061ffff87166000908152610101845282812087516001600160a01b0390811683529452919091206007015461014086015191935090911690614729908390614a6b565b6001600160a01b0316146147655760405162461bcd60e51b815260206004820152600360248201526256323360e81b6044820152606401610b88565b505061ffff90911660009081526101076020908152604080832084516001600160a01b03168452825280832061012090940151835292905220805460ff19166001179055565b61ffff83166000908152610101602090815260408083206001600160a01b038616845290915290206002015481111561480c5760405162461bcd60e51b815260206004820152600360248201526256313560e81b6044820152606401610b88565b61ffff83166000908152610101602090815260408083206001600160a01b038616845290915281206004018054839290614847908490615521565b909155505061ffff83166000908152610101602090815260408083206001600160a01b03861684529091528120600201805483929061488790849061558a565b925050819055508060ff6000828254610edc919061558a565b60fd54604051630dc6346160e01b81526000916001600160a01b031690630dc63461906148d590879087908790600401615ebc565b602060405180830381865afa1580156148f2573d6000803e3d6000fd5b505050506040513d601f19601f82011682018060405250810190614916919061559d565b60fd5460fc54604051633920455b60e11b81529293506001600160a01b03918216926372408ab6928592614957929116908a908a908a908a90600401615eea565b6000604051808303818588803b15801561497057600080fd5b505af1158015614984573d6000803e3d6000fd5b50505050505050505050565b6060824710156149f15760405162461bcd60e51b815260206004820152602660248201527f416464726573733a20696e73756666696369656e742062616c616e636520666f6044820152651c8818d85b1b60d21b6064820152608401610b88565b600080866001600160a01b03168587604051614a0d9190615892565b60006040518083038185875af1925050503d8060008114614a4a576040519150601f19603f3d011682016040523d82523d6000602084013e614a4f565b606091505b5091509150614a6087838387614a8f565b979650505050505050565b6000806000614a7a8585614b06565b91509150614a8781614b4b565b509392505050565b60608315614afc578251600003614af557614aa98561391f565b614af55760405162461bcd60e51b815260206004820152601d60248201527f416464726573733a2063616c6c20746f206e6f6e2d636f6e74726163740000006044820152606401610b88565b508161271d565b61271d8383614c90565b6000808251604103614b3c5760208301516040840151606085015160001a614b3087828585614cba565b94509450505050614b44565b506000905060025b9250929050565b6000816004811115614b5f57614b5f615700565b03614b675750565b6001816004811115614b7b57614b7b615700565b03614bc35760405162461bcd60e51b815260206004820152601860248201527745434453413a20696e76616c6964207369676e617475726560401b6044820152606401610b88565b6002816004811115614bd757614bd7615700565b03614c245760405162461bcd60e51b815260206004820152601f60248201527f45434453413a20696e76616c6964207369676e6174757265206c656e677468006044820152606401610b88565b6003816004811115614c3857614c38615700565b036110715760405162461bcd60e51b815260206004820152602260248201527f45434453413a20696e76616c6964207369676e6174757265202773272076616c604482015261756560f01b6064820152608401610b88565b815115614ca05781518083602001fd5b8060405162461bcd60e51b8152600401610b889190614f0f565b6000806fa2a8918ca85bafe22016d0b997e4df60600160ff1b03831115614ce75750600090506003613a49565b6040805160008082526020820180845289905260ff881692820192909252606081018690526080810185905260019060a0016020604051602081039080840390855afa158015614d3b573d6000803e3d6000fd5b5050604051601f1901519150506001600160a01b038116614d6457600060019250925050613a49565b9660009650945050505050565b803561ffff81168114614d8357600080fd5b919050565b60008083601f840112614d9a57600080fd5b5081356001600160401b03811115614db157600080fd5b602083019150836020828501011115614b4457600080fd5b80356001600160401b0381168114614d8357600080fd5b60008060008060008060808789031215614df957600080fd5b614e0287614d71565b955060208701356001600160401b0380821115614e1e57600080fd5b614e2a8a838b01614d88565b9097509550859150614e3e60408a01614dc9565b94506060890135915080821115614e5457600080fd5b50614e6189828a01614d88565b979a9699509497509295939492505050565b6001600160a01b038116811461107157600080fd5b60008060408385031215614e9b57600080fd5b614ea483614d71565b91506020830135614eb481614e73565b809150509250929050565b60005b83811015614eda578181015183820152602001614ec2565b50506000910152565b60008151808452614efb816020860160208601614ebf565b601f01601f19169290920160200192915050565b602081526000610c1b6020830184614ee3565b600060208284031215614f3457600080fd5b610c1b82614d71565b60008060408385031215614f5057600080fd5b8235614f5b81614e73565b946020939093013593505050565b600080600060608486031215614f7e57600080fd5b614f8784614d71565b92506020840135614f9781614e73565b929592945050506040919091013590565b60008060408385031215614fbb57600080fd5b614f5b83614d71565b801515811461107157600080fd5b600060208284031215614fe457600080fd5b8135610c1b81614fc4565b60006020828403121561500157600080fd5b8135610c1b81614e73565b60008060006060848603121561502157600080fd5b8335614f8781614e73565b6001600160a01b0391909116815260200190565b60008060006040848603121561505557600080fd5b61505e84614d71565b925060208401356001600160401b0381111561507957600080fd5b61508586828701614d88565b9497909650939450505050565b600080600080600060a086880312156150aa57600080fd5b6150b386614d71565b945060208601356150c381614e73565b9350604086013592506060860135915060808601356150e181614e73565b809150509295509295909350565b634e487b7160e01b600052604160045260246000fd5b60405161016081016001600160401b0381118282101715615128576151286150ef565b60405290565b604051601f8201601f191681016001600160401b0381118282101715615156576151566150ef565b604052919050565b60006001600160401b03821115615177576151776150ef565b50601f01601f191660200190565b600082601f83011261519657600080fd5b81356151a96151a48261515e565b61512e565b8181528460208386010111156151be57600080fd5b816020850160208301376000918101602001919091529392505050565b6000806000606084860312156151f057600080fd5b6151f984614d71565b925060208401356001600160401b0381111561521457600080fd5b61522086828701615185565b92505061522f60408501614dc9565b90509250925092565b6000806040838503121561524b57600080fd5b823591506020830135614eb481614e73565b6000806040838503121561527057600080fd5b61527983614d71565b915061528760208401614d71565b90509250929050565b6000806000606084860312156152a557600080fd5b6152ae84614d71565b925060208401356152be81614e73565b915060408401356152ce81614e73565b809150509250925092565b60008060008060008060c087890312156152f257600080fd5b6152fb87614d71565b955060208701356001600160401b038082111561531757600080fd5b6153238a838b01615185565b9650604089013595506060890135915061533c82614e73565b9093506080880135925060a0880135908082111561535957600080fd5b5061536689828a01615185565b9150509295509295509295565b60008060008060006080868803121561538b57600080fd5b61539486614d71565b94506153a260208701614d71565b93506040860135925060608601356001600160401b038111156153c457600080fd5b6153d088828901614d88565b969995985093965092949392505050565b600080604083850312156153f457600080fd5b8235614ea481614e73565b60008060006060848603121561541457600080fd5b61541d84614d71565b925061542b60208501614d71565b9150604084013590509250925092565b60008060006060848603121561545057600080fd5b833592506020840135614f9781614e73565b6000806000806080858703121561547857600080fd5b61548185614d71565b935061548f60208601614d71565b9250604085013561549f81614e73565b9396929550929360600135925050565b600080600080608085870312156154c557600080fd5b84356154d081614e73565b935060208501356154e081614e73565b925060408501356154f081614e73565b9150606085013561550081614e73565b939692955090935050565b634e487b7160e01b600052601160045260246000fd5b80820180821115610c1e57610c1e61550b565b600181811c9082168061554857607f821691505b60208210810361556857634e487b7160e01b600052602260045260246000fd5b50919050565b602080825260029082015261563160f01b604082015260600190565b81810381811115610c1e57610c1e61550b565b6000602082840312156155af57600080fd5b5051919050565b8183823760009101908152919050565b81835281816020850137506000828201602090810191909152601f909101601f19169091010190565b61ffff8416815260406020820152600061271a6040830184866155c6565b600181815b8085111561564857816000190482111561562e5761562e61550b565b8085161561563b57918102915b93841c9390800290615612565b509250929050565b60008261565f57506001610c1e565b8161566c57506000610c1e565b8160018114615682576002811461568c576156a8565b6001915050610c1e565b60ff84111561569d5761569d61550b565b50506001821b610c1e565b5060208310610133831016604e8410600b84101617156156cb575081810a610c1e565b6156d5838361560d565b80600019048211156156e9576156e961550b565b029392505050565b6000610c1b60ff841683615650565b634e487b7160e01b600052602160045260246000fd5b6005811061573457634e487b7160e01b600052602160045260246000fd5b9052565b604081016157468285615716565b91516001600160a01b031660209190910152919050565b8284823760609190911b6001600160601b0319169101908152601401919050565b601f82111561228f57600081815260208120601f850160051c810160208610156157a55750805b601f850160051c820191505b81811015610c07578281556001016157b1565b600019600383901b1c191660019190911b1790565b81516001600160401b038111156157f2576157f26150ef565b615806816158008454615534565b8461577e565b602080601f83116001811461583557600084156158235750858301515b61582d85826157c4565b865550610c07565b600085815260208120601f198616915b8281101561586457888601518255948401946001909101908401615845565b50858210156158825787850151600019600388901b60f8161c191681555b5050505050600190811b01905550565b600082516158a4818460208701614ebf565b9190910192915050565b805160208201516001600160601b031980821692919060148310156158dd5780818460140360031b1b83161693505b505050919050565b600061ffff808816835280871660208401525084604083015260806060830152614a606080830184866155c6565b61ffff861681526080602082015260006159316080830186886155c6565b6001600160401b0394909416604083015250606001529392505050565b6001600160401b03831115615965576159656150ef565b615979836159738354615534565b8361577e565b6000601f8411600181146159a757600085156159955750838201355b61599f86826157c4565b845550610d38565b600083815260209020601f19861690835b828110156159d857868501358255602094850194600190920191016159b8565b50868210156159f55760001960f88860031b161c19848701351681555b505060018560011b0183555050505050565b634e487b7160e01b600052603260045260246000fd5b600060018201615a2f57615a2f61550b565b5060010190565b60608101615a448285615716565b82516020830152602083015160408301529392505050565b600082601f830112615a6d57600080fd5b8151615a7b6151a48261515e565b818152846020838601011115615a9057600080fd5b61271d826020830160208701614ebf565b600060208284031215615ab357600080fd5b81516001600160401b03811115615ac957600080fd5b61271d84828501615a5c565b6001600160a01b03929092168252602082015260400190565b600060208284031215615b0057600080fd5b8151610c1b81614fc4565b61ffff85168152608060208201526000615b286080830186614ee3565b6001600160401b03851660408401528281036060840152614a608185614ee3565b8082028115828204841417610c1e57610c1e61550b565b600082615b7d57634e487b7160e01b600052601260045260246000fd5b500490565b61ffff861681526001600160a01b038516602082015260a060408201819052600090615bb090830186614ee3565b84151560608401528281036080840152615bca8185614ee3565b98975050505050505050565b60008060408385031215615be957600080fd5b505080516020909101519092909150565b61ffff8716815260c060208201526000615c1760c0830188614ee3565b8281036040840152615c298188614ee3565b6001600160a01b0387811660608601528616608085015283810360a08501529050615c548185614ee3565b9998505050505050505050565b600060208284031215615c7357600080fd5b815160058110610c1b57600080fd5b8051614d8381614e73565b60008060408385031215615ca057600080fd5b825160208401519092506001600160401b0380821115615cbf57600080fd5b908401906101608287031215615cd457600080fd5b615cdc615105565b615ce583615c82565b81526020830151602082015260408301516040820152606083015160608201526080830151608082015260a083015160a082015260c083015160c082015260e083015160e08201526101008084015181830152506101208084015181830152506101408084015183811115615d5957600080fd5b615d6589828701615a5c565b8284015250508093505050509250929050565b60008082840360a0811215615d8c57600080fd5b835192506080601f1982011215615da257600080fd5b50604051608081016001600160401b0381118282101715615dc557615dc56150ef565b6040526020840151615dd681614e73565b80825250604084015160208201526060840151604082015260808401516060820152809150509250929050565b6020808252602b908201527f496e697469616c697a61626c653a20636f6e7472616374206973206e6f74206960408201526a6e697469616c697a696e6760a81b606082015260800190565b61ffff8616815260a060208201526000615e6b60a0830187614ee3565b6001600160401b03861660408401528281036060840152615e8c8186614ee3565b90508281036080840152615bca8185614ee3565b60408101615eae8285615716565b825160208301529392505050565b61ffff841681526001600160a01b038316602082015260606040820181905260009061271a90830184614ee3565b6001600160a01b0386811682526020820186905261ffff851660408301528316606082015260a060808201819052600090614a6090830184614ee356feddf252ad1be2c89b69c2b068fc378daa952ba7f163c4a11628f55a4df523b3efa26469706673582212208937e6e8e4e060c86f7c394017f177d9dd5f10b534c7d1103894978e176ba76a64736f6c63430008130033",
  "linkReferences": {},
  "deployedLinkReferences": {}
}