{
  "_format": "hh-sol-artifact-1",
  "contractName": "Vault",
  "sourceName": "contracts/Vault.sol",
  "abi": [
    {
      "inputs": [
        {
          "internalType": "uint256",
          "name": "amount",
          "type": "uint256"
        },
        {
          "internalType": "uint256",
          "name": "balance",
          "type": "uint256"
        }
      ],
      "name": "InsufficientFunds",
      "type": "error"
    },
    {
      "anonymous": false,
      "inputs": [
        {
          "indexed": true,
          "internalType": "address",
          "name": "owner",
          "type": "address"
        },
        {
          "indexed": true,
          "internalType": "address",
          "name": "spender",
          "type": "address"
        },
        {
          "indexed": false,
          "internalType": "uint256",
          "name": "value",
          "type": "uint256"
        }
      ],
      "name": "Approval",
      "type": "event"
    },
    {
      "anonymous": false,
      "inputs": [
        {
          "indexed": false,
          "internalType": "uint256",
          "name": "epochId",
          "type": "uint256"
        },
        {
          "indexed": false,
          "internalType": "uint256",
          "name": "requestCount",
          "type": "uint256"
        }
      ],
      "name": "FulfilledWithdrawEpoch",
      "type": "event"
    },
    {
      "anonymous": false,
      "inputs": [
        {
          "indexed": false,
          "internalType": "uint8",
          "name": "version",
          "type": "uint8"
        }
      ],
      "name": "Initialized",
      "type": "event"
    },
    {
      "anonymous": false,
      "inputs": [
        {
          "indexed": false,
          "internalType": "uint16",
          "name": "_srcChainId",
          "type": "uint16"
        },
        {
          "indexed": false,
          "internalType": "bytes",
          "name": "_srcAddress",
          "type": "bytes"
        },
        {
          "indexed": false,
          "internalType": "uint64",
          "name": "_nonce",
          "type": "uint64"
        },
        {
          "indexed": false,
          "internalType": "bytes",
          "name": "_payload",
          "type": "bytes"
        },
        {
          "indexed": false,
          "internalType": "bytes",
          "name": "_reason",
          "type": "bytes"
        }
      ],
      "name": "MessageFailed",
      "type": "event"
    },
    {
      "anonymous": false,
      "inputs": [
        {
          "indexed": true,
          "internalType": "address",
          "name": "previousOwner",
          "type": "address"
        },
        {
          "indexed": true,
          "internalType": "address",
          "name": "newOwner",
          "type": "address"
        }
      ],
      "name": "OwnershipTransferred",
      "type": "event"
    },
    {
      "anonymous": false,
      "inputs": [
        {
          "indexed": false,
          "internalType": "uint16",
          "name": "_srcChainId",
          "type": "uint16"
        },
        {
          "indexed": false,
          "internalType": "bytes",
          "name": "_srcAddress",
          "type": "bytes"
        },
        {
          "indexed": false,
          "internalType": "uint64",
          "name": "_nonce",
          "type": "uint64"
        },
        {
          "indexed": false,
          "internalType": "bytes32",
          "name": "_payloadHash",
          "type": "bytes32"
        }
      ],
      "name": "RetryMessageSuccess",
      "type": "event"
    },
    {
      "anonymous": false,
      "inputs": [
        {
          "indexed": false,
          "internalType": "uint16",
          "name": "_dstChainId",
          "type": "uint16"
        },
        {
          "indexed": false,
          "internalType": "uint16",
          "name": "_type",
          "type": "uint16"
        },
        {
          "indexed": false,
          "internalType": "uint256",
          "name": "_minDstGas",
          "type": "uint256"
        }
      ],
      "name": "SetMinDstGas",
      "type": "event"
    },
    {
      "anonymous": false,
      "inputs": [
        {
          "indexed": false,
          "internalType": "address",
          "name": "precrime",
          "type": "address"
        }
      ],
      "name": "SetPrecrime",
      "type": "event"
    },
    {
      "anonymous": false,
      "inputs": [
        {
          "indexed": false,
          "internalType": "uint16",
          "name": "_remoteChainId",
          "type": "uint16"
        },
        {
          "indexed": false,
          "internalType": "bytes",
          "name": "_path",
          "type": "bytes"
        }
      ],
      "name": "SetTrustedRemote",
      "type": "event"
    },
    {
      "anonymous": false,
      "inputs": [
        {
          "indexed": false,
          "internalType": "uint16",
          "name": "_remoteChainId",
          "type": "uint16"
        },
        {
          "indexed": false,
          "internalType": "bytes",
          "name": "_remoteAddress",
          "type": "bytes"
        }
      ],
      "name": "SetTrustedRemoteAddress",
      "type": "event"
    },
    {
      "anonymous": false,
      "inputs": [
        {
          "indexed": true,
          "internalType": "address",
          "name": "token",
          "type": "address"
        },
        {
          "indexed": false,
          "internalType": "uint256",
          "name": "amount",
          "type": "uint256"
        },
        {
          "indexed": false,
          "internalType": "address",
          "name": "sender",
          "type": "address"
        }
      ],
      "name": "SgReceived",
      "type": "event"
    },
    {
      "anonymous": false,
      "inputs": [
        {
          "indexed": false,
          "internalType": "uint16",
          "name": "chainId",
          "type": "uint16"
        },
        {
          "indexed": false,
          "internalType": "address",
          "name": "strategy",
          "type": "address"
        },
        {
          "indexed": false,
          "internalType": "uint256",
          "name": "gain",
          "type": "uint256"
        },
        {
          "indexed": false,
          "internalType": "uint256",
          "name": "loss",
          "type": "uint256"
        },
        {
          "indexed": false,
          "internalType": "uint256",
          "name": "debtPaid",
          "type": "uint256"
        },
        {
          "indexed": false,
          "internalType": "uint256",
          "name": "totalGain",
          "type": "uint256"
        },
        {
          "indexed": false,
          "internalType": "uint256",
          "name": "totalLoss",
          "type": "uint256"
        },
        {
          "indexed": false,
          "internalType": "uint256",
          "name": "totalDebt",
          "type": "uint256"
        },
        {
          "indexed": false,
          "internalType": "uint256",
          "name": "debtAdded",
          "type": "uint256"
        },
        {
          "indexed": false,
          "internalType": "uint256",
          "name": "debtRatio",
          "type": "uint256"
        },
        {
          "indexed": false,
          "internalType": "uint256",
          "name": "tokens",
          "type": "uint256"
        }
      ],
      "name": "StrategyReported",
      "type": "event"
    },
    {
      "anonymous": false,
      "inputs": [
        {
          "indexed": true,
          "internalType": "uint16",
          "name": "chainId",
          "type": "uint16"
        },
        {
          "indexed": true,
          "internalType": "address",
          "name": "strategy",
          "type": "address"
        },
        {
          "indexed": false,
          "internalType": "uint256",
          "name": "amount",
          "type": "uint256"
        },
        {
          "indexed": false,
          "internalType": "uint256",
          "name": "loss",
          "type": "uint256"
        },
        {
          "indexed": false,
          "internalType": "uint256",
          "name": "id",
          "type": "uint256"
        }
      ],
      "name": "StrategyWithdrawnSome",
      "type": "event"
    },
    {
      "anonymous": false,
      "inputs": [
        {
          "indexed": true,
          "internalType": "address",
          "name": "from",
          "type": "address"
        },
        {
          "indexed": true,
          "internalType": "address",
          "name": "to",
          "type": "address"
        },
        {
          "indexed": false,
          "internalType": "uint256",
          "name": "value",
          "type": "uint256"
        }
      ],
      "name": "Transfer",
      "type": "event"
    },
    {
      "inputs": [],
      "name": "DEFAULT_MAX_LOSS",
      "outputs": [
        {
          "internalType": "uint256",
          "name": "",
          "type": "uint256"
        }
      ],
      "stateMutability": "view",
      "type": "function"
    },
    {
      "inputs": [],
      "name": "DEFAULT_PAYLOAD_SIZE_LIMIT",
      "outputs": [
        {
          "internalType": "uint256",
          "name": "",
          "type": "uint256"
        }
      ],
      "stateMutability": "view",
      "type": "function"
    },
    {
      "inputs": [],
      "name": "MAX_BPS",
      "outputs": [
        {
          "internalType": "uint256",
          "name": "",
          "type": "uint256"
        }
      ],
      "stateMutability": "view",
      "type": "function"
    },
    {
      "inputs": [],
      "name": "VALID_REPORT_THRESHOLD",
      "outputs": [
        {
          "internalType": "uint256",
          "name": "",
          "type": "uint256"
        }
      ],
      "stateMutability": "view",
      "type": "function"
    },
    {
      "inputs": [
        {
          "internalType": "uint16",
          "name": "_chainId",
          "type": "uint16"
        },
        {
          "internalType": "address",
          "name": "_strategy",
          "type": "address"
        },
        {
          "internalType": "uint256",
          "name": "_debtRatio",
          "type": "uint256"
        },
        {
          "internalType": "uint256",
          "name": "_performanceFee",
          "type": "uint256"
        },
        {
          "internalType": "address",
          "name": "_strategist",
          "type": "address"
        }
      ],
      "name": "addStrategy",
      "outputs": [],
      "stateMutability": "nonpayable",
      "type": "function"
    },
    {
      "inputs": [
        {
          "internalType": "address",
          "name": "owner",
          "type": "address"
        },
        {
          "internalType": "address",
          "name": "spender",
          "type": "address"
        }
      ],
      "name": "allowance",
      "outputs": [
        {
          "internalType": "uint256",
          "name": "",
          "type": "uint256"
        }
      ],
      "stateMutability": "view",
      "type": "function"
    },
    {
      "inputs": [
        {
          "internalType": "address",
          "name": "spender",
          "type": "address"
        },
        {
          "internalType": "uint256",
          "name": "amount",
          "type": "uint256"
        }
      ],
      "name": "approve",
      "outputs": [
        {
          "internalType": "bool",
          "name": "",
          "type": "bool"
        }
      ],
      "stateMutability": "nonpayable",
      "type": "function"
    },
    {
      "inputs": [
        {
          "internalType": "address",
          "name": "account",
          "type": "address"
        }
      ],
      "name": "balanceOf",
      "outputs": [
        {
          "internalType": "uint256",
          "name": "",
          "type": "uint256"
        }
      ],
      "stateMutability": "view",
      "type": "function"
    },
    {
      "inputs": [],
      "name": "callMe",
      "outputs": [],
      "stateMutability": "nonpayable",
      "type": "function"
    },
    {
      "inputs": [
        {
          "internalType": "uint16",
          "name": "_chainId",
          "type": "uint16"
        },
        {
          "internalType": "address",
          "name": "_strategy",
          "type": "address"
        }
      ],
      "name": "creditAvailable",
      "outputs": [
        {
          "internalType": "uint256",
          "name": "",
          "type": "uint256"
        }
      ],
      "stateMutability": "view",
      "type": "function"
    },
    {
      "inputs": [
        {
          "internalType": "uint16",
          "name": "_chainId",
          "type": "uint16"
        },
        {
          "internalType": "address",
          "name": "_strategy",
          "type": "address"
        }
      ],
      "name": "debtOutstanding",
      "outputs": [
        {
          "internalType": "uint256",
          "name": "",
          "type": "uint256"
        }
      ],
      "stateMutability": "view",
      "type": "function"
    },
    {
      "inputs": [],
      "name": "decimals",
      "outputs": [
        {
          "internalType": "uint8",
          "name": "",
          "type": "uint8"
        }
      ],
      "stateMutability": "view",
      "type": "function"
    },
    {
      "inputs": [
        {
          "internalType": "address",
          "name": "spender",
          "type": "address"
        },
        {
          "internalType": "uint256",
          "name": "subtractedValue",
          "type": "uint256"
        }
      ],
      "name": "decreaseAllowance",
      "outputs": [
        {
          "internalType": "bool",
          "name": "",
          "type": "bool"
        }
      ],
      "stateMutability": "nonpayable",
      "type": "function"
    },
    {
      "inputs": [
        {
          "internalType": "uint256",
          "name": "_amount",
          "type": "uint256"
        },
        {
          "internalType": "address",
          "name": "_recipient",
          "type": "address"
        }
      ],
      "name": "deposit",
      "outputs": [
        {
          "internalType": "uint256",
          "name": "",
          "type": "uint256"
        }
      ],
      "stateMutability": "nonpayable",
      "type": "function"
    },
    {
      "inputs": [],
      "name": "emergencyShutdown",
      "outputs": [
        {
          "internalType": "bool",
          "name": "",
          "type": "bool"
        }
      ],
      "stateMutability": "view",
      "type": "function"
    },
    {
      "inputs": [
        {
          "internalType": "uint16",
          "name": "",
          "type": "uint16"
        },
        {
          "internalType": "bytes",
          "name": "",
          "type": "bytes"
        },
        {
          "internalType": "uint64",
          "name": "",
          "type": "uint64"
        }
      ],
      "name": "failedMessages",
      "outputs": [
        {
          "internalType": "bytes32",
          "name": "",
          "type": "bytes32"
        }
      ],
      "stateMutability": "view",
      "type": "function"
    },
    {
      "inputs": [
        {
          "internalType": "uint16",
          "name": "_srcChainId",
          "type": "uint16"
        },
        {
          "internalType": "bytes",
          "name": "_srcAddress",
          "type": "bytes"
        }
      ],
      "name": "forceResumeReceive",
      "outputs": [],
      "stateMutability": "nonpayable",
      "type": "function"
    },
    {
      "inputs": [
        {
          "internalType": "uint16",
          "name": "_version",
          "type": "uint16"
        },
        {
          "internalType": "uint16",
          "name": "_chainId",
          "type": "uint16"
        },
        {
          "internalType": "address",
          "name": "",
          "type": "address"
        },
        {
          "internalType": "uint256",
          "name": "_configType",
          "type": "uint256"
        }
      ],
      "name": "getConfig",
      "outputs": [
        {
          "internalType": "bytes",
          "name": "",
          "type": "bytes"
        }
      ],
      "stateMutability": "view",
      "type": "function"
    },
    {
      "inputs": [
        {
          "internalType": "uint16",
          "name": "_remoteChainId",
          "type": "uint16"
        }
      ],
      "name": "getTrustedRemoteAddress",
      "outputs": [
        {
          "internalType": "bytes",
          "name": "",
          "type": "bytes"
        }
      ],
      "stateMutability": "view",
      "type": "function"
    },
    {
      "inputs": [],
      "name": "governance",
      "outputs": [
        {
          "internalType": "address",
          "name": "",
          "type": "address"
        }
      ],
      "stateMutability": "view",
      "type": "function"
    },
    {
      "inputs": [],
      "name": "handleWithdrawals",
      "outputs": [],
      "stateMutability": "nonpayable",
      "type": "function"
    },
    {
      "inputs": [
        {
          "internalType": "address",
          "name": "spender",
          "type": "address"
        },
        {
          "internalType": "uint256",
          "name": "addedValue",
          "type": "uint256"
        }
      ],
      "name": "increaseAllowance",
      "outputs": [
        {
          "internalType": "bool",
          "name": "",
          "type": "bool"
        }
      ],
      "stateMutability": "nonpayable",
      "type": "function"
    },
    {
      "inputs": [
        {
          "internalType": "address",
          "name": "_governance",
          "type": "address"
        },
        {
          "internalType": "address",
          "name": "_lzEndpoint",
          "type": "address"
        },
        {
          "internalType": "contract IERC20",
          "name": "_token",
          "type": "address"
        },
        {
          "internalType": "address",
          "name": "_sgBridge",
          "type": "address"
        }
      ],
      "name": "initialize",
      "outputs": [],
      "stateMutability": "nonpayable",
      "type": "function"
    },
    {
      "inputs": [
        {
          "internalType": "uint16",
          "name": "_srcChainId",
          "type": "uint16"
        },
        {
          "internalType": "bytes",
          "name": "_srcAddress",
          "type": "bytes"
        }
      ],
      "name": "isTrustedRemote",
      "outputs": [
        {
          "internalType": "bool",
          "name": "",
          "type": "bool"
        }
      ],
      "stateMutability": "view",
      "type": "function"
    },
    {
      "inputs": [],
      "name": "lzEndpoint",
      "outputs": [
        {
          "internalType": "contract ILayerZeroEndpointUpgradeable",
          "name": "",
          "type": "address"
        }
      ],
      "stateMutability": "view",
      "type": "function"
    },
    {
      "inputs": [
        {
          "internalType": "uint16",
          "name": "_srcChainId",
          "type": "uint16"
        },
        {
          "internalType": "bytes",
          "name": "_srcAddress",
          "type": "bytes"
        },
        {
          "internalType": "uint64",
          "name": "_nonce",
          "type": "uint64"
        },
        {
          "internalType": "bytes",
          "name": "_payload",
          "type": "bytes"
        }
      ],
      "name": "lzReceive",
      "outputs": [],
      "stateMutability": "nonpayable",
      "type": "function"
    },
    {
      "inputs": [
        {
          "internalType": "uint16",
          "name": "_chainId",
          "type": "uint16"
        },
        {
          "internalType": "address",
          "name": "_oldStrategy",
          "type": "address"
        },
        {
          "internalType": "address",
          "name": "_newStrategy",
          "type": "address"
        }
      ],
      "name": "migrateStrategy",
      "outputs": [],
      "stateMutability": "nonpayable",
      "type": "function"
    },
    {
      "inputs": [
        {
          "internalType": "uint16",
          "name": "",
          "type": "uint16"
        },
        {
          "internalType": "uint16",
          "name": "",
          "type": "uint16"
        }
      ],
      "name": "minDstGasLookup",
      "outputs": [
        {
          "internalType": "uint256",
          "name": "",
          "type": "uint256"
        }
      ],
      "stateMutability": "view",
      "type": "function"
    },
    {
      "inputs": [],
      "name": "name",
      "outputs": [
        {
          "internalType": "string",
          "name": "",
          "type": "string"
        }
      ],
      "stateMutability": "view",
      "type": "function"
    },
    {
      "inputs": [
        {
          "internalType": "uint16",
          "name": "_srcChainId",
          "type": "uint16"
        },
        {
          "internalType": "bytes",
          "name": "_srcAddress",
          "type": "bytes"
        },
        {
          "internalType": "uint64",
          "name": "_nonce",
          "type": "uint64"
        },
        {
          "internalType": "bytes",
          "name": "_payload",
          "type": "bytes"
        }
      ],
      "name": "nonblockingLzReceive",
      "outputs": [],
      "stateMutability": "nonpayable",
      "type": "function"
    },
    {
      "inputs": [],
      "name": "owner",
      "outputs": [
        {
          "internalType": "address",
          "name": "",
          "type": "address"
        }
      ],
      "stateMutability": "view",
      "type": "function"
    },
    {
      "inputs": [
        {
          "internalType": "uint16",
          "name": "",
          "type": "uint16"
        }
      ],
      "name": "payloadSizeLimitLookup",
      "outputs": [
        {
          "internalType": "uint256",
          "name": "",
          "type": "uint256"
        }
      ],
      "stateMutability": "view",
      "type": "function"
    },
    {
      "inputs": [],
      "name": "precrime",
      "outputs": [
        {
          "internalType": "address",
          "name": "",
          "type": "address"
        }
      ],
      "stateMutability": "view",
      "type": "function"
    },
    {
      "inputs": [],
      "name": "pricePerShare",
      "outputs": [
        {
          "internalType": "uint256",
          "name": "",
          "type": "uint256"
        }
      ],
      "stateMutability": "view",
      "type": "function"
    },
    {
      "inputs": [],
      "name": "renounceOwnership",
      "outputs": [],
      "stateMutability": "nonpayable",
      "type": "function"
    },
    {
      "inputs": [
        {
          "internalType": "uint16",
          "name": "_srcChainId",
          "type": "uint16"
        },
        {
          "internalType": "bytes",
          "name": "_srcAddress",
          "type": "bytes"
        },
        {
          "internalType": "uint64",
          "name": "_nonce",
          "type": "uint64"
        },
        {
          "internalType": "bytes",
          "name": "_payload",
          "type": "bytes"
        }
      ],
      "name": "retryMessage",
      "outputs": [],
      "stateMutability": "payable",
      "type": "function"
    },
    {
      "inputs": [],
      "name": "revokeFunds",
      "outputs": [],
      "stateMutability": "nonpayable",
      "type": "function"
    },
    {
      "inputs": [
        {
          "internalType": "uint16",
          "name": "_chainId",
          "type": "uint16"
        },
        {
          "internalType": "address",
          "name": "_strategy",
          "type": "address"
        }
      ],
      "name": "revokeStrategy",
      "outputs": [],
      "stateMutability": "nonpayable",
      "type": "function"
    },
    {
      "inputs": [
        {
          "internalType": "uint16",
          "name": "_version",
          "type": "uint16"
        },
        {
          "internalType": "uint16",
          "name": "_chainId",
          "type": "uint16"
        },
        {
          "internalType": "uint256",
          "name": "_configType",
          "type": "uint256"
        },
        {
          "internalType": "bytes",
          "name": "_config",
          "type": "bytes"
        }
      ],
      "name": "setConfig",
      "outputs": [],
      "stateMutability": "nonpayable",
      "type": "function"
    },
    {
      "inputs": [
        {
          "internalType": "bool",
          "name": "_emergencyShutdown",
          "type": "bool"
        }
      ],
      "name": "setEmergencyShutdown",
      "outputs": [],
      "stateMutability": "nonpayable",
      "type": "function"
    },
    {
      "inputs": [
        {
          "internalType": "uint16",
          "name": "_dstChainId",
          "type": "uint16"
        },
        {
          "internalType": "uint16",
          "name": "_packetType",
          "type": "uint16"
        },
        {
          "internalType": "uint256",
          "name": "_minGas",
          "type": "uint256"
        }
      ],
      "name": "setMinDstGas",
      "outputs": [],
      "stateMutability": "nonpayable",
      "type": "function"
    },
    {
      "inputs": [
        {
          "internalType": "uint16",
          "name": "_dstChainId",
          "type": "uint16"
        },
        {
          "internalType": "uint256",
          "name": "_size",
          "type": "uint256"
        }
      ],
      "name": "setPayloadSizeLimit",
      "outputs": [],
      "stateMutability": "nonpayable",
      "type": "function"
    },
    {
      "inputs": [
        {
          "internalType": "address",
          "name": "_precrime",
          "type": "address"
        }
      ],
      "name": "setPrecrime",
      "outputs": [],
      "stateMutability": "nonpayable",
      "type": "function"
    },
    {
      "inputs": [
        {
          "internalType": "uint16",
          "name": "_version",
          "type": "uint16"
        }
      ],
      "name": "setReceiveVersion",
      "outputs": [],
      "stateMutability": "nonpayable",
      "type": "function"
    },
    {
      "inputs": [
        {
          "internalType": "uint16",
          "name": "_version",
          "type": "uint16"
        }
      ],
      "name": "setSendVersion",
      "outputs": [],
      "stateMutability": "nonpayable",
      "type": "function"
    },
    {
      "inputs": [
        {
          "internalType": "uint16",
          "name": "_srcChainId",
          "type": "uint16"
        },
        {
          "internalType": "bytes",
          "name": "_path",
          "type": "bytes"
        }
      ],
      "name": "setTrustedRemote",
      "outputs": [],
      "stateMutability": "nonpayable",
      "type": "function"
    },
    {
      "inputs": [
        {
          "internalType": "uint16",
          "name": "_remoteChainId",
          "type": "uint16"
        },
        {
          "internalType": "bytes",
          "name": "_remoteAddress",
          "type": "bytes"
        }
      ],
      "name": "setTrustedRemoteAddress",
      "outputs": [],
      "stateMutability": "nonpayable",
      "type": "function"
    },
    {
      "inputs": [],
      "name": "sgBridge",
      "outputs": [
        {
          "internalType": "contract ISgBridge",
          "name": "",
          "type": "address"
        }
      ],
      "stateMutability": "view",
      "type": "function"
    },
    {
      "inputs": [
        {
          "internalType": "uint16",
          "name": "_srcChainId",
          "type": "uint16"
        },
        {
          "internalType": "bytes",
          "name": "_srcAddress",
          "type": "bytes"
        },
        {
          "internalType": "uint256",
          "name": "",
          "type": "uint256"
        },
        {
          "internalType": "address",
          "name": "_token",
          "type": "address"
        },
        {
          "internalType": "uint256",
          "name": "_amountLD",
          "type": "uint256"
        },
        {
          "internalType": "bytes",
          "name": "_payload",
          "type": "bytes"
        }
      ],
      "name": "sgReceive",
      "outputs": [],
      "stateMutability": "nonpayable",
      "type": "function"
    },
    {
      "inputs": [
        {
          "internalType": "uint16",
          "name": "",
          "type": "uint16"
        },
        {
          "internalType": "address",
          "name": "",
          "type": "address"
        }
      ],
      "name": "strategies",
      "outputs": [
        {
          "internalType": "uint256",
          "name": "activation",
          "type": "uint256"
        },
        {
          "internalType": "uint256",
          "name": "debtRatio",
          "type": "uint256"
        },
        {
          "internalType": "uint256",
          "name": "totalDebt",
          "type": "uint256"
        },
        {
          "internalType": "uint256",
          "name": "totalGain",
          "type": "uint256"
        },
        {
          "internalType": "uint256",
          "name": "totalLoss",
          "type": "uint256"
        },
        {
          "internalType": "uint256",
          "name": "lastReport",
          "type": "uint256"
        },
        {
          "internalType": "uint256",
          "name": "performanceFee",
          "type": "uint256"
        },
        {
          "internalType": "address",
          "name": "strategist",
          "type": "address"
        }
      ],
      "stateMutability": "view",
      "type": "function"
    },
    {
      "inputs": [
        {
          "internalType": "contract IERC20",
          "name": "_token",
          "type": "address"
        }
      ],
      "name": "sweepToken",
      "outputs": [],
      "stateMutability": "nonpayable",
      "type": "function"
    },
    {
      "inputs": [],
      "name": "symbol",
      "outputs": [
        {
          "internalType": "string",
          "name": "",
          "type": "string"
        }
      ],
      "stateMutability": "view",
      "type": "function"
    },
    {
      "inputs": [],
      "name": "token",
      "outputs": [
        {
          "internalType": "contract IERC20",
          "name": "",
          "type": "address"
        }
      ],
      "stateMutability": "view",
      "type": "function"
    },
    {
      "inputs": [],
      "name": "totalAssets",
      "outputs": [
        {
          "internalType": "uint256",
          "name": "",
          "type": "uint256"
        }
      ],
      "stateMutability": "view",
      "type": "function"
    },
    {
      "inputs": [],
      "name": "totalDebt",
      "outputs": [
        {
          "internalType": "uint256",
          "name": "",
          "type": "uint256"
        }
      ],
      "stateMutability": "view",
      "type": "function"
    },
    {
      "inputs": [],
      "name": "totalDebtRatio",
      "outputs": [
        {
          "internalType": "uint256",
          "name": "",
          "type": "uint256"
        }
      ],
      "stateMutability": "view",
      "type": "function"
    },
    {
      "inputs": [],
      "name": "totalIdle",
      "outputs": [
        {
          "internalType": "uint256",
          "name": "",
          "type": "uint256"
        }
      ],
      "stateMutability": "view",
      "type": "function"
    },
    {
      "inputs": [],
      "name": "totalSupply",
      "outputs": [
        {
          "internalType": "uint256",
          "name": "",
          "type": "uint256"
        }
      ],
      "stateMutability": "view",
      "type": "function"
    },
    {
      "inputs": [
        {
          "internalType": "address",
          "name": "to",
          "type": "address"
        },
        {
          "internalType": "uint256",
          "name": "amount",
          "type": "uint256"
        }
      ],
      "name": "transfer",
      "outputs": [
        {
          "internalType": "bool",
          "name": "",
          "type": "bool"
        }
      ],
      "stateMutability": "nonpayable",
      "type": "function"
    },
    {
      "inputs": [
        {
          "internalType": "address",
          "name": "from",
          "type": "address"
        },
        {
          "internalType": "address",
          "name": "to",
          "type": "address"
        },
        {
          "internalType": "uint256",
          "name": "amount",
          "type": "uint256"
        }
      ],
      "name": "transferFrom",
      "outputs": [
        {
          "internalType": "bool",
          "name": "",
          "type": "bool"
        }
      ],
      "stateMutability": "nonpayable",
      "type": "function"
    },
    {
      "inputs": [
        {
          "internalType": "address",
          "name": "newOwner",
          "type": "address"
        }
      ],
      "name": "transferOwnership",
      "outputs": [],
      "stateMutability": "nonpayable",
      "type": "function"
    },
    {
      "inputs": [
        {
          "internalType": "uint16",
          "name": "",
          "type": "uint16"
        }
      ],
      "name": "trustedRemoteLookup",
      "outputs": [
        {
          "internalType": "bytes",
          "name": "",
          "type": "bytes"
        }
      ],
      "stateMutability": "view",
      "type": "function"
    },
    {
      "inputs": [
        {
          "internalType": "uint16",
          "name": "_chainId",
          "type": "uint16"
        },
        {
          "internalType": "address",
          "name": "_strategy",
          "type": "address"
        },
        {
          "internalType": "uint256",
          "name": "_debtRatio",
          "type": "uint256"
        }
      ],
      "name": "updateStrategyDebtRatio",
      "outputs": [],
      "stateMutability": "nonpayable",
      "type": "function"
    },
    {
      "inputs": [
        {
          "internalType": "uint256",
          "name": "_maxShares",
          "type": "uint256"
        },
        {
          "internalType": "address",
          "name": "_recipient",
          "type": "address"
        },
        {
          "internalType": "uint256",
          "name": "_maxLoss",
          "type": "uint256"
        }
      ],
      "name": "withdraw",
      "outputs": [],
      "stateMutability": "nonpayable",
      "type": "function"
    },
    {
      "inputs": [],
      "name": "withdrawEpoch",
      "outputs": [
        {
          "internalType": "uint256",
          "name": "",
          "type": "uint256"
        }
      ],
      "stateMutability": "view",
      "type": "function"
    },
    {
      "stateMutability": "payable",
      "type": "receive"
    }
  ],
  "bytecode": "0x608060405234801561001057600080fd5b5061602e80620000216000396000f3fe6080604052600436106102f15760003560e01c80638da5cb5b1161018d5780638da5cb5b146107f3578063950c8a741461080857806395d89b411461082857806399530b061461083d5780639aa7df94146108525780639f38369a14610867578063a032a71214610887578063a457c2d7146108a7578063a6c3d165146108c7578063a9059cbb146108e7578063ab73ce4614610907578063ab8236f31461091e578063ae1a02e91461093e578063b0bea72514610954578063b353aaa714610969578063baf3292d14610989578063c4461834146109a9578063cbed8b9c146109bf578063cfbcc644146109df578063d1deba1f146109ff578063dd62ed3e14610a12578063df2a5b3b14610a32578063df5dbe2f14610a52578063e63697c814610a68578063e7fda06114610a88578063eb8d72b714610aa8578063ef34253c14610ac8578063f2fde38b14610add578063f5ecbdbc14610afd578063f8c8765e14610b1d578063fc0c546a14610b3d578063fc7b9c1814610b5d578063fd967f47146109a957600080fd5b80621d3567146102fd57806301dc2eb11461031f57806301e1d1141461035257806306fdde031461036757806307e0db1714610389578063095ea7b3146103a95780630a97c254146103d95780630df37483146103f957806310ddb1371461041957806314c644021461043957806318160ddd146104595780631be195601461046e57806323b872dd1461048e5780632d606843146104ae5780632df9eab9146104c3578063313ce567146104d95780633403c2fc146104f557806337fded9114610510578063395093511461053d5780633d8b38f61461055d5780633f1f4fa41461057d5780634067cb9e146105aa57806342d65a8d1461066157806352106a49146106815780635aa6e675146106a15780635b8c41e6146106c157806366ad5c8a146107105780636e553f651461073057806370a0823114610750578063715018a6146107865780637533d7881461079b5780638cfd8f5c146107bb57600080fd5b366102f857005b600080fd5b34801561030957600080fd5b5061031d610318366004614e91565b610b73565b005b34801561032b57600080fd5b5061033f61033a366004614f39565b610c36565b6040519081526020015b60405180910390f35b34801561035e57600080fd5b5061033f610c4b565b34801561037357600080fd5b5061037c610c67565b6040516103499190614fc0565b34801561039557600080fd5b5061031d6103a4366004614fd3565b610cf9565b3480156103b557600080fd5b506103c96103c4366004614fee565b610d66565b6040519015158152602001610349565b3480156103e557600080fd5b5061031d6103f436600461501a565b610d7e565b34801561040557600080fd5b5061031d610414366004615059565b610f0d565b34801561042557600080fd5b5061031d610434366004614fd3565b610f2c565b34801561044557600080fd5b5061031d610454366004615083565b610f68565b34801561046557600080fd5b5060355461033f565b34801561047a57600080fd5b5061031d6104893660046150a0565b610fc9565b34801561049a57600080fd5b506103c96104a93660046150bd565b61109b565b3480156104ba57600080fd5b5061031d6110bf565b3480156104cf57600080fd5b5061033f60fe5481565b3480156104e557600080fd5b5060405160128152602001610349565b34801561050157600080fd5b50610100546103c99060ff1681565b34801561051c57600080fd5b5060fd54610530906001600160a01b031681565b60405161034991906150dd565b34801561054957600080fd5b506103c9610558366004614fee565b611138565b34801561056957600080fd5b506103c96105783660046150f1565b61115a565b34801561058957600080fd5b5061033f610598366004614fd3565b609a6020526000908152604090205481565b3480156105b657600080fd5b5061061d6105c5366004614f39565b610101602090815260009283526040808420909152908252902080546001820154600283015460038401546004850154600586015460068701546007909701549596949593949293919290916001600160a01b031688565b604080519889526020890197909752958701949094526060860192909252608085015260a084015260c08301526001600160a01b031660e082015261010001610349565b34801561066d57600080fd5b5061031d61067c3660046150f1565b611226565b34801561068d57600080fd5b5061031d61069c366004615143565b611299565b3480156106ad57600080fd5b5060fb54610530906001600160a01b031681565b3480156106cd57600080fd5b5061033f6106dc36600461528c565b60c9602090815260009384526040808520845180860184018051928152908401958401959095209452929052825290205481565b34801561071c57600080fd5b5061031d61072b366004614e91565b6114df565b34801561073c57600080fd5b5061033f61074b3660046152e9565b6115b3565b34801561075c57600080fd5b5061033f61076b3660046150a0565b6001600160a01b031660009081526033602052604090205490565b34801561079257600080fd5b5061031d6115bf565b3480156107a757600080fd5b5061037c6107b6366004614fd3565b6115d3565b3480156107c757600080fd5b5061033f6107d636600461530e565b609960209081526000928352604080842090915290825290205481565b3480156107ff57600080fd5b5061053061166d565b34801561081457600080fd5b50609b54610530906001600160a01b031681565b34801561083457600080fd5b5061037c61167c565b34801561084957600080fd5b5061033f61168b565b34801561085e57600080fd5b5061033f6116a1565b34801561087357600080fd5b5061037c610882366004614fd3565b611713565b34801561089357600080fd5b5061031d6108a2366004615341565b611829565b3480156108b357600080fd5b506103c96108c2366004614fee565b611c16565b3480156108d357600080fd5b5061031d6108e23660046150f1565b611c91565b3480156108f357600080fd5b506103c9610902366004614fee565b611d1a565b34801561091357600080fd5b5061033f6101025481565b34801561092a57600080fd5b5061031d61093936600461538a565b611d28565b34801561094a57600080fd5b5061033f6107d081565b34801561096057600080fd5b5061031d611e86565b34801561097557600080fd5b50609754610530906001600160a01b031681565b34801561099557600080fd5b5061031d6109a43660046150a0565b611f10565b3480156109b557600080fd5b5061033f61271081565b3480156109cb57600080fd5b5061031d6109da366004615424565b611f6e565b3480156109eb57600080fd5b5061031d6109fa366004614f39565b611fe7565b61031d610a0d366004614e91565b612042565b348015610a1e57600080fd5b5061033f610a2d366004615492565b612258565b348015610a3e57600080fd5b5061031d610a4d3660046154b0565b612283565b348015610a5e57600080fd5b5061033f61546081565b348015610a7457600080fd5b5061031d610a833660046154ec565b612335565b348015610a9457600080fd5b5061033f610aa3366004614f39565b612345565b348015610ab457600080fd5b5061031d610ac33660046150f1565b612351565b348015610ad457600080fd5b5061031d6123ab565b348015610ae957600080fd5b5061031d610af83660046150a0565b6126cb565b348015610b0957600080fd5b5061037c610b18366004615513565b612741565b348015610b2957600080fd5b5061031d610b38366004615560565b6127d6565b348015610b4957600080fd5b5060fc54610530906001600160a01b031681565b348015610b6957600080fd5b5061033f60ff5481565b6097546001600160a01b03163314610bb85760405162461bcd60e51b81526020600482015260036024820152622b189960e91b60448201526064015b60405180910390fd5b610c2e8686868080601f01602080910402602001604051908101604052809392919081815260200183838082843760009201919091525050604080516020601f8901819004810282018101909252878152899350915087908790819084018382808284376000920191909152506129ef92505050565b505050505050565b6000610c428383612a68565b90505b92915050565b6000610c556116a1565b60ff54610c6291906155d2565b905090565b606060368054610c76906155e5565b80601f0160208091040260200160405190810160405280929190818152602001828054610ca2906155e5565b8015610cef5780601f10610cc457610100808354040283529160200191610cef565b820191906000526020600020905b815481529060010190602001808311610cd257829003601f168201915b5050505050905090565b610d01612b30565b6097546040516307e0db1760e01b815261ffff831660048201526001600160a01b03909116906307e0db17906024015b600060405180830381600087803b158015610d4b57600080fd5b505af1158015610d5f573d6000803e3d6000fd5b5050505050565b600033610d74818585612b8f565b5060019392505050565b60fb546001600160a01b0316331480610daf5750610d9a61166d565b6001600160a01b0316336001600160a01b0316145b610dcb5760405162461bcd60e51b8152600401610baf9061561f565b61ffff83166000908152610101602090815260408083206001600160a01b0386168452909152902054610e3a5760405162461bcd60e51b81526020600482015260176024820152765661756c743a3a496e616374697665537472617465677960481b6044820152606401610baf565b61ffff83166000908152610101602090815260408083206001600160a01b038616845290915281206001015460fe805491929091610e7990849061563b565b909155505061ffff83166000908152610101602090815260408083206001600160a01b0386168452909152902060010181905560fe5461271090610ebe9083906155d2565b1115610ef15760405162461bcd60e51b81526020600482015260026024820152612b1b60f11b6044820152606401610baf565b8060fe6000828254610f0391906155d2565b9091555050505050565b610f15612b30565b61ffff9091166000908152609a6020526040902055565b610f34612b30565b6097546040516310ddb13760e01b815261ffff831660048201526001600160a01b03909116906310ddb13790602401610d31565b60fb546001600160a01b0316331480610f995750610f8461166d565b6001600160a01b0316336001600160a01b0316145b610fb55760405162461bcd60e51b8152600401610baf9061561f565b610100805460ff1916911515919091179055565b60fb546001600160a01b0316331480610ffa5750610fe561166d565b6001600160a01b0316336001600160a01b0316145b6110165760405162461bcd60e51b8152600401610baf9061561f565b61109833826001600160a01b03166370a08231306040518263ffffffff1660e01b815260040161104691906150dd565b602060405180830381865afa158015611063573d6000803e3d6000fd5b505050506040513d601f19601f82011682018060405250810190611087919061564e565b6001600160a01b0384169190612cb3565b50565b6000336110a9858285612d09565b6110b4858585612d7d565b506001949350505050565b60fb546001600160a01b03163314806110f057506110db61166d565b6001600160a01b0316336001600160a01b0316145b61110c5760405162461bcd60e51b8152600401610baf9061561f565b60405133904780156108fc02916000818181858888f19350505050158015611098573d6000803e3d6000fd5b600033610d7481858561114b8383612258565b61115591906155d2565b612b8f565b61ffff83166000908152609860205260408120805482919061117b906155e5565b80601f01602080910402602001604051908101604052809291908181526020018280546111a7906155e5565b80156111f45780601f106111c9576101008083540402835291602001916111f4565b820191906000526020600020905b8154815290600101906020018083116111d757829003601f168201915b50505050509050838360405161120b929190615667565b60405180910390208180519060200120149150509392505050565b61122e612b30565b6097546040516342d65a8d60e01b81526001600160a01b03909116906342d65a8d90611262908690869086906004016156a0565b600060405180830381600087803b15801561127c57600080fd5b505af1158015611290573d6000803e3d6000fd5b50505050505050565b60fb546001600160a01b03163314806112ca57506112b561166d565b6001600160a01b0316336001600160a01b0316145b6112e65760405162461bcd60e51b8152600401610baf9061561f565b61ffff85166000908152610101602090815260408083206001600160a01b0388168452909152902054156113415760405162461bcd60e51b81526020600482015260026024820152612b1960f11b6044820152606401610baf565b6127108360fe5461135291906155d2565b11156113855760405162461bcd60e51b8152602060048201526002602482015261563360f01b6044820152606401610baf565b60405180610100016040528042815260200184815260200160008152602001600081526020016000815260200160008152602001838152602001826001600160a01b031681525061010160008761ffff1661ffff1681526020019081526020016000206000866001600160a01b03166001600160a01b03168152602001908152602001600020600082015181600001556020820151816001015560408201518160020155606082015181600301556080820151816004015560a0820151816005015560c0820151816006015560e08201518160070160006101000a8154816001600160a01b0302191690836001600160a01b031602179055509050506114af8461010360008861ffff1661ffff168152602001908152602001600020612f1690919063ffffffff16565b506114c061010461ffff8716612f2b565b508260fe60008282546114d391906155d2565b90915550505050505050565b33301461153d5760405162461bcd60e51b815260206004820152602660248201527f4e6f6e626c6f636b696e674c7a4170703a2063616c6c6572206d7573742062656044820152650204c7a4170760d41b6064820152608401610baf565b610c2e8686868080601f01602080910402602001604051908101604052809392919081815260200183838082843760009201919091525050604080516020601f890181900481028201810190925287815289935091508790879081908401838280828437600092019190915250612f3792505050565b6000610c428383612fd5565b6115c7612b30565b6115d16000613039565b565b609860205260009081526040902080546115ec906155e5565b80601f0160208091040260200160405190810160405280929190818152602001828054611618906155e5565b80156116655780601f1061163a57610100808354040283529160200191611665565b820191906000526020600020905b81548152906001019060200180831161164857829003601f168201915b505050505081565b6065546001600160a01b031690565b606060378054610c76906155e5565b6000610c6261169c6012600a6157a2565b61308b565b60fc546040516370a0823160e01b81526000916001600160a01b0316906370a08231906116d29030906004016150dd565b602060405180830381865afa1580156116ef573d6000803e3d6000fd5b505050506040513d601f19601f82011682018060405250810190610c62919061564e565b61ffff8116600090815260986020526040812080546060929190611736906155e5565b80601f0160208091040260200160405190810160405280929190818152602001828054611762906155e5565b80156117af5780601f10611784576101008083540402835291602001916117af565b820191906000526020600020905b81548152906001019060200180831161179257829003601f168201915b5050505050905080516000036118075760405162461bcd60e51b815260206004820152601d60248201527f4c7a4170703a206e6f20747275737465642070617468207265636f72640000006044820152606401610baf565b61182260006014835161181a919061563b565b8391906130c0565b9392505050565b60fb546001600160a01b031633148061185a575061184561166d565b6001600160a01b0316336001600160a01b0316145b6118765760405162461bcd60e51b8152600401610baf9061561f565b6001600160a01b0381166118b15760405162461bcd60e51b8152602060048201526002602482015261563760f01b6044820152606401610baf565b61ffff83166000908152610101602090815260408083206001600160a01b038616845290915290205461190b5760405162461bcd60e51b81526020600482015260026024820152610ac760f31b6044820152606401610baf565b61ffff83166000908152610101602090815260408083206001600160a01b0385168452909152902054156119665760405162461bcd60e51b8152602060048201526002602482015261563960f01b6044820152606401610baf565b600061010160008561ffff1661ffff1681526020019081526020016000206000846001600160a01b03166001600160a01b0316815260200190815260200160002060405180610100016040529081600082015481526020016001820154815260200160028201548152602001600382015481526020016004820154815260200160058201548152602001600682015481526020016007820160009054906101000a90046001600160a01b03166001600160a01b03166001600160a01b03168152505090506040518061010001604052808260a001518152602001826020015181526020018260400151815260200160008152602001600081526020018260a0015181526020018260c0015181526020018260e001516001600160a01b031681525061010160008661ffff1661ffff1681526020019081526020016000206000846001600160a01b03166001600160a01b03168152602001908152602001600020600082015181600001556020820151816001015560408201518160020155606082015181600301556080820151816004015560a0820151816005015560c0820151816006015560e08201518160070160006101000a8154816001600160a01b0302191690836001600160a01b03160217905550905050600061010160008661ffff1661ffff1681526020019081526020016000206000856001600160a01b03166001600160a01b0316815260200190815260200160002060010181905550600061010160008661ffff1661ffff1681526020019081526020016000206000856001600160a01b03166001600160a01b0316815260200190815260200160002060020181905550611c10848460046040518060200160405280876001600160a01b0316815250604051602001611bfc9291906157e9565b6040516020818303038152906040526131cd565b50505050565b60003381611c248286612258565b905083811015611c845760405162461bcd60e51b815260206004820152602560248201527f45524332303a2064656372656173656420616c6c6f77616e63652062656c6f77604482015264207a65726f60d81b6064820152608401610baf565b6110b48286868403612b8f565b611c99612b30565b818130604051602001611cae9392919061580e565b60408051601f1981840301815291815261ffff8516600090815260986020522090611cd9908261588a565b507f8c0400cfe2d1199b1a725c78960bcc2a344d869b80590d0f2bd005db15a572ce838383604051611d0d939291906156a0565b60405180910390a1505050565b600033610d74818585612d7d565b60fc546001600160a01b03848116911614611d6b5760405162461bcd60e51b815260206004820152600360248201526205631360ec1b6044820152606401610baf565b61ffff8616600090815261010160209081526040808320338452909152902054151580611d96575033155b611dc85760405162461bcd60e51b815260206004820152600360248201526256313160e81b6044820152606401610baf565b61ffff8616600090815261010160209081526040808320338452909152812054611e2957611df986600060146130c0565b604051602001611e099190615943565b604051602081830303815290604052611e219061595f565b60601c611e2b565b335b9050611e38878385613389565b604080518481526001600160a01b0383811660208301528616917f92073a89a07a000083eb8b2575fc15e7bb936efe55d00727d6942a796d7211a7910160405180910390a250505050505050565b60fc546040516370a0823160e01b81526115d19133916001600160a01b03909116906370a0823190611ebc9030906004016150dd565b602060405180830381865afa158015611ed9573d6000803e3d6000fd5b505050506040513d601f19601f82011682018060405250810190611efd919061564e565b60fc546001600160a01b03169190612cb3565b611f18612b30565b609b80546001600160a01b0319166001600160a01b0383161790556040517f5db758e995a17ec1ad84bdef7e8c3293a0bd6179bcce400dff5d4c3d87db726b90611f639083906150dd565b60405180910390a150565b611f76612b30565b6097546040516332fb62e760e21b81526001600160a01b039091169063cbed8b9c90611fae9088908890889088908890600401615996565b600060405180830381600087803b158015611fc857600080fd5b505af1158015611fdc573d6000803e3d6000fd5b505050505050505050565b60fb546001600160a01b0316331480612018575061200361166d565b6001600160a01b0316336001600160a01b0316145b6120345760405162461bcd60e51b8152600401610baf9061561f565b61203e8282613420565b5050565b61ffff8616600090815260c9602052604080822090516120659088908890615667565b90815260408051602092819003830190206001600160401b038716600090815292529020549050806120e55760405162461bcd60e51b815260206004820152602360248201527f4e6f6e626c6f636b696e674c7a4170703a206e6f2073746f726564206d65737360448201526261676560e81b6064820152608401610baf565b8083836040516120f6929190615667565b6040518091039020146121555760405162461bcd60e51b815260206004820152602160248201527f4e6f6e626c6f636b696e674c7a4170703a20696e76616c6964207061796c6f616044820152601960fa1b6064820152608401610baf565b61ffff8716600090815260c9602052604080822090516121789089908990615667565b90815260408051602092819003830181206001600160401b038916600090815290845282902093909355601f88018290048202830182019052868252612210918991899089908190840183828082843760009201919091525050604080516020601f8a018190048102820181019092528881528a935091508890889081908401838280828437600092019190915250612f3792505050565b7fc264d91f3adc5588250e1551f547752ca0cfa8f6b530d243b9f9f4cab10ea8e587878787856040516122479594939291906159c4565b60405180910390a150505050505050565b6001600160a01b03918216600090815260346020908152604080832093909416825291909152205490565b61228b612b30565b600081116122d35760405162461bcd60e51b81526020600482015260156024820152744c7a4170703a20696e76616c6964206d696e47617360581b6044820152606401610baf565b61ffff83811660008181526099602090815260408083209487168084529482529182902085905581519283528201929092529081018290527f9d5c7c0b934da8fefa9c7760c98383778a12dfbfc0c3b3106518f43fb9508ac090606001611d0d565b612340838383613495565b505050565b6000610c4283836135d6565b612359612b30565b61ffff831660009081526098602052604090206123778284836159ff565b507ffa41487ad5d6728f0b19276fa1eddc16558578f5109fc39d2dc33c3230470dab838383604051611d0d939291906156a0565b60fb546001600160a01b03163314806123dc57506123c761166d565b6001600160a01b0316336001600160a01b0316145b6123f85760405162461bcd60e51b8152600401610baf9061561f565b610102546000908152610106602052604090206001015460ff16156124445760405162461bcd60e51b8152602060048201526002602482015261158d60f21b6044820152606401610baf565b6000805b61010254600090815261010660205260409020548110156124c5576101025460009081526101066020526040812080548390811061248857612488615ab8565b906000526020600020906006020190506124a5816002015461308b565b6124af90846155d2565b92505080806124bd90615ace565b915050612448565b506124ce6116a1565b81116124dc5761109861368e565b60006124e66116a1565b6124f0908361563b565b90506000805b6125016101046139a4565b8110801561250f5750600083115b15612660576000612522610104836139ae565b61ffff81166000908152610103602052604081209192505b612543826139a4565b811080156125515750600086115b1561264a57600061256283836139ae565b61ffff85166000908152610101602090815260408083206001600160a01b0385168452909152812060028101549293509190036125a0575050612638565b60006125b08983600201546139ba565b6101025460009081526101066020908152604080832061ffff8b16845260050182528083206001600160a01b0388168452909152902081905590506125f5818a61563b565b985061262786846000604051806040016040528086815260200161010254815250604051602001611bfc929190615ae7565b8761263181615ace565b9850505050505b8061264281615ace565b91505061253a565b505050808061265890615ace565b9150506124f6565b50600081116126965760405162461bcd60e51b8152602060048201526002602482015261563560f01b6044820152606401610baf565b6101028054600090815261010660205260408082206002019390935590548152206001908101805460ff191690911790555050565b6126d3612b30565b6001600160a01b0381166127385760405162461bcd60e51b815260206004820152602660248201527f4f776e61626c653a206e6577206f776e657220697320746865207a65726f206160448201526564647265737360d01b6064820152608401610baf565b61109881613039565b609754604051633d7b2f6f60e21b815261ffff808716600483015285166024820152306044820152606481018390526060916001600160a01b03169063f5ecbdbc90608401600060405180830381865afa1580156127a3573d6000803e3d6000fd5b505050506040513d6000823e601f3d908101601f191682016040526127cb9190810190615b52565b90505b949350505050565b600054610100900460ff16158080156127f65750600054600160ff909116105b806128175750612805306139d0565b158015612817575060005460ff166001145b61287a5760405162461bcd60e51b815260206004820152602e60248201527f496e697469616c697a61626c653a20636f6e747261637420697320616c72656160448201526d191e481a5b9a5d1a585b1a5e995960921b6064820152608401610baf565b6000805460ff19166001179055801561289d576000805461ff0019166101001790555b6128a6846139df565b6128ae613a17565b6128fa6040518060400160405280600f81526020016e13db5b9a58da185a5b8815985d5b1d608a1b8152506040518060400160405280600381526020016227a6ab60e91b815250613a46565b60fb80546001600160a01b038088166001600160a01b03199283161790925560fc8054868416908316811790915560fd80549386169390921692909217905560405163095ea7b360e01b815263095ea7b39061295e90859060001990600401615b86565b6020604051808303816000875af115801561297d573d6000803e3d6000fd5b505050506040513d601f19601f820116820180604052508101906129a19190615b9f565b508015610d5f576000805461ff0019169055604051600181527f7f26b83ff96e1f2b6a682f133852f6798a09c465da95921460cefb3847402498906020015b60405180910390a15050505050565b600080612a525a60966366ad5c8a60e01b89898989604051602401612a179493929190615bbc565b60408051601f198184030181529190526020810180516001600160e01b03166001600160e01b03199093169290921790915230929190613a77565b9150915081610c2e57610c2e8686868685613b03565b6101005460009060ff1615612a7f57506000610c45565b6000612710612a8c610c4b565b61ffff86166000908152610101602090815260408083206001600160a01b0389168452909152902060010154612ac29190615bfa565b612acc9190615c11565b61ffff85166000908152610101602090815260408083206001600160a01b0388168452909152902060020154909150808211612b0d57600092505050610c45565b612b27612b186116a1565b612b22838561563b565b6139ba565b95945050505050565b33612b3961166d565b6001600160a01b0316146115d15760405162461bcd60e51b815260206004820181905260248201527f4f776e61626c653a2063616c6c6572206973206e6f7420746865206f776e65726044820152606401610baf565b6001600160a01b038316612bf15760405162461bcd60e51b8152602060048201526024808201527f45524332303a20617070726f76652066726f6d20746865207a65726f206164646044820152637265737360e01b6064820152608401610baf565b6001600160a01b038216612c525760405162461bcd60e51b815260206004820152602260248201527f45524332303a20617070726f766520746f20746865207a65726f206164647265604482015261737360f01b6064820152608401610baf565b6001600160a01b0383811660008181526034602090815260408083209487168084529482529182902085905590518481527f8c5be1e5ebec7d5bd14f71427d1e84f3dd0314c0f7b2291e5b200ac8c7c3b925910160405180910390a3505050565b6123408363a9059cbb60e01b8484604051602401612cd2929190615b86565b60408051601f198184030181529190526020810180516001600160e01b03166001600160e01b031990931692909217909152613b91565b6000612d158484612258565b90506000198114611c105781811015612d705760405162461bcd60e51b815260206004820152601d60248201527f45524332303a20696e73756666696369656e7420616c6c6f77616e63650000006044820152606401610baf565b611c108484848403612b8f565b6001600160a01b038316612de15760405162461bcd60e51b815260206004820152602560248201527f45524332303a207472616e736665722066726f6d20746865207a65726f206164604482015264647265737360d81b6064820152608401610baf565b6001600160a01b038216612e435760405162461bcd60e51b815260206004820152602360248201527f45524332303a207472616e7366657220746f20746865207a65726f206164647260448201526265737360e81b6064820152608401610baf565b6001600160a01b03831660009081526033602052604090205481811015612ebb5760405162461bcd60e51b815260206004820152602660248201527f45524332303a207472616e7366657220616d6f756e7420657863656564732062604482015265616c616e636560d01b6064820152608401610baf565b6001600160a01b038085166000818152603360205260408082208686039055928616808252908390208054860190559151600080516020615fd983398151915290612f099086815260200190565b60405180910390a3611c10565b6000610c42836001600160a01b038416613c66565b6000610c428383613c66565b6000612f45848260146130c0565b604051602001612f559190615943565b604051602081830303815290604052612f6d9061595f565b61ffff861660009081526101016020908152604080832060609490941c80845293909152902054909150612fc95760405162461bcd60e51b815260206004820152600360248201526256323160e81b6044820152606401610baf565b610d5f85836000613389565b6101005460009060ff16156130125760405162461bcd60e51b815260206004820152600360248201526256313360e81b6044820152606401610baf565b600061301e8385613cb5565b60fc54909150610c42906001600160a01b0316333087613d31565b606580546001600160a01b038381166001600160a01b0319831681179093556040519116919082907f8be0079c531659141344cd1fd0a4f28419497f9722a3daafe3b4186f6b6457e090600090a35050565b600061309660355490565b6000036130a1575090565b6035546130ac610c4b565b6130b69084615bfa565b610c459190615c11565b6060816130ce81601f6155d2565b101561310d5760405162461bcd60e51b815260206004820152600e60248201526d736c6963655f6f766572666c6f7760901b6044820152606401610baf565b61311782846155d2565b8451101561315b5760405162461bcd60e51b8152602060048201526011602482015270736c6963655f6f75744f66426f756e647360781b6044820152606401610baf565b60608215801561317a57604051915060008252602082016040526131c4565b6040519150601f8416801560200281840101858101878315602002848b0101015b818310156131b357805183526020928301920161319b565b5050858452601f01601f1916604052505b50949350505050565b61ffff83166000908152610101602090815260408083206001600160a01b0386168452909152902080546132295760405162461bcd60e51b81526020600482015260036024820152620ac62760eb1b6044820152606401610baf565b6040516001600160601b0319606085811b8216602084015230901b16603482015260009060480160408051601f198184030181529190526097549091506000906001600160a01b03166340a7bb1087308785613283613d69565b6040518663ffffffff1660e01b81526004016132a3959493929190615c33565b6040805180830381865afa1580156132bf573d6000803e3d6000fd5b505050506040513d601f19601f820116820180604052508101906132e39190615c87565b5090508047101561330f5760405162fae2d560e21b815260048101829052476024820152604401610baf565b6097546001600160a01b031663c580310082888588308061332e613d69565b6040518863ffffffff1660e01b815260040161334f96959493929190615cab565b6000604051808303818588803b15801561336857600080fd5b505af115801561337c573d6000803e3d6000fd5b5050505050505050505050565b60008280602001905181019061339f9190615d12565b905060028160048111156133b5576133b56157b1565b036133e4576000838060200190518101906133d09190615d3e565b9150506133de858285613d99565b50611c10565b60018160048111156133f8576133f86157b1565b03611c10576000838060200190518101906134139190615e29565b915050610d5f85826141df565b61ffff82166000908152610101602090815260408083206001600160a01b038516845290915281206001015460fe80549192909161345f90849061563b565b909155505061ffff9091166000908152610101602090815260408083206001600160a01b03909416835292905290812060010155565b610102546000908152610106602052604090206001015460ff16156134e25760405162461bcd60e51b81526020600482015260036024820152622b189b60e91b6044820152606401610baf565b6134ed333085612d7d565b61010660006101025481526020019081526020016000206000016040518060c00160405280336001600160a01b03168152602001846001600160a01b031681526020018581526020018381526020016135458661308b565b81526000602091820181905283546001808201865594825290829020835160069092020180546001600160a01b03199081166001600160a01b039384161782559284015194810180549093169490911693909317905560408101516002830155606081015160038301556080810151600483015560a001516005909101805460ff1916911515919091179055505050565b6000806127106135e4610c4b565b61ffff86166000908152610101602090815260408083206001600160a01b038916845290915290206001015461361a9190615bfa565b6136249190615c11565b61ffff85166000908152610101602090815260408083206001600160a01b0388168452909152902060020154610100549192509060ff1615613669579150610c459050565b81811161367b57600092505050610c45565b613685828261563b565b92505050610c45565b6101025460009081526101066020526040902054806136d55760405162461bcd60e51b815260206004820152600360248201526256313960e81b6044820152606401610baf565b6000816001600160401b038111156136ef576136ef6151a0565b604051908082528060200260200182016040528015613718578160200160208202803683370190505b50905060005b82811015613798576101025460009081526101066020526040812080548390811061374b5761374b615ab8565b90600052602060002090600602019050613768816002015461308b565b83838151811061377a5761377a615ab8565b6020908102919091010152508061379081615ace565b91505061371e565b5060005b8281101561393157610102546000908152610106602052604081208054839081106137c9576137c9615ab8565b9060005260206000209060060201905060006138008484815181106137f0576137f0615ab8565b6020026020010151612b226116a1565b905081600401548110156138df576000818360040154613820919061563b565b905060008360040154612710836138379190615bfa565b6138419190615c11565b905083600301548111156138dc5760058401805460ff191690558354600285015460405163a9059cbb60e01b8152309263a9059cbb9261388f926001600160a01b0390921691600401615b86565b6020604051808303816000875af11580156138ae573d6000803e3d6000fd5b505050506040513d601f19601f820116820180604052508101906138d29190615b9f565b505050505061391f565b50505b60058201805460ff1916600190811790915582015460fc5461390e916001600160a01b03918216911683612cb3565b61391c3083600201546143ba565b50505b8061392981615ace565b91505061379c565b506101025460408051918252602082018490527fc682eb885c208b8aaaa811c05902e24a4f14b388960311623a8f31404f655129910160405180910390a16101028054600090815261010660205260408120600101805460ff191690558154919061399b83615ace565b91905055505050565b6000610c45825490565b6000610c4283836144dc565b60008183106139c95781610c42565b5090919050565b6001600160a01b03163b151590565b600054610100900460ff16613a065760405162461bcd60e51b8152600401610baf90615eb4565b613a0e614506565b61109881614536565b600054610100900460ff16613a3e5760405162461bcd60e51b8152600401610baf90615eb4565b6115d1614506565b600054610100900460ff16613a6d5760405162461bcd60e51b8152600401610baf90615eb4565b61203e828261457f565b6000606060008060008661ffff166001600160401b03811115613a9c57613a9c6151a0565b6040519080825280601f01601f191660200182016040528015613ac6576020820181803683370190505b50905060008087516020890160008d8df191503d925086831115613ae8578692505b828152826000602083013e9093509150505b94509492505050565b818051906020012060c960008761ffff1661ffff16815260200190815260200160002085604051613b349190615943565b9081526040805191829003602090810183206001600160401b0388166000908152915220919091557fe183f33de2837795525b4792ca4cd60535bd77c53b7e7030060bfcf5734d6b0c906129e09087908790879087908790615eff565b6000613be6826040518060400160405280602081526020017f5361666545524332303a206c6f772d6c6576656c2063616c6c206661696c6564815250856001600160a01b03166145bf9092919063ffffffff16565b9050805160001480613c07575080806020019051810190613c079190615b9f565b6123405760405162461bcd60e51b815260206004820152602a60248201527f5361666545524332303a204552433230206f7065726174696f6e20646964206e6044820152691bdd081cdd58d8d9595960b21b6064820152608401610baf565b6000818152600183016020526040812054613cad57508154600181810184556000848152602080822090930184905584548482528286019093526040902091909155610c45565b506000610c45565b600080613cc160355490565b600003613ccf575081613cf1565b613cd7610c4b565b603554613ce49085615bfa565b613cee9190615c11565b90505b60008111613d275760405162461bcd60e51b815260206004820152600360248201526256313760e81b6044820152606401610baf565b610c4284826145ce565b6040516001600160a01b0380851660248301528316604482015260648101829052611c109085906323b872dd60e01b90608401612cd2565b60408051600160f01b6020820152620f424060228083019190915282518083039091018152604290910190915290565b613da3838361467d565b61ffff831660009081526101016020908152604080832085516001600160a01b03168452909152902054613dff5760405162461bcd60e51b8152602060048201526003602482015262158c4d60ea1b6044820152606401610baf565b606082015115613e1c57613e1c838360000151846060015161485c565b60408083015161ffff85166000908152610101602090815283822086516001600160a01b031683529052918220600301805491929091613e5d9084906155d2565b90915550508151600090613e729085906135d6565b90506000613e848285608001516139ba565b90508015613ef45761ffff851660009081526101016020908152604080832087516001600160a01b0316845290915281206002018054839290613ec890849061563b565b925050819055508060ff6000828254613ee1919061563b565b90915550613ef19050818361563b565b91505b60e084015115613f615760e084015161ffff861660009081526101016020908152604080832088516001600160a01b0316845290915281206002018054909190613f3f9084906155d2565b909155505060e084015160ff8054600090613f5b9084906155d2565b90915550505b60208085015161ffff8716600081815261010180855260408083208a516001600160a01b039081168552818852828520600501969096559383529085528851909316815292529020600101541580613fbc57506101005460ff165b15613fca5783610100015191505b60a08401511561401d576140188460a001518686600001516003604051806020016040528088815250604051602001614004929190615f51565b604051602081830303815290604052614951565b614048565b6140488585600001516003604051806020016040528087815250604051602001611bfc929190615f51565b600061010160008761ffff1661ffff168152602001908152602001600020600086600001516001600160a01b03166001600160a01b0316815260200190815260200160002060405180610100016040529081600082015481526020016001820154815260200160028201548152602001600382015481526020016004820154815260200160058201548152602001600682015481526020016007820160009054906101000a90046001600160a01b03166001600160a01b03166001600160a01b03168152505090507f08bc8eff67f79e18165507d64024f5ca5e90a2593c7a45cb5caf7f9d843e404c8686600001518760400151886060015189608001518660600151876080015188604001518d60e001518a602001518e6040516141cf9b9a9998979695949392919061ffff9b909b168b526001600160a01b039990991660208b015260408a01979097526060890195909552608088019390935260a087019190915260c086015260e08501526101008401526101208301526101408201526101600190565b60405180910390a1505050505050565b61ffff821660009081526101016020908152604080832084516001600160a01b0316845290915290205461423b5760405162461bcd60e51b815260206004820152600360248201526205632360ec1b6044820152606401610baf565b60408101511561425857614258828260000151836040015161485c565b60208082015161ffff841660009081526101018352604080822085516001600160a01b0316835290935291822060020180549192909161429990849061563b565b9091555050602081015160ff80546000906142b590849061563b565b909155505060608101516000908152610106602052604081206003018054916142dd83615ace565b909155505060608101805160009081526101066020818152604080842061ffff88168552600401825280842086516001600160a01b031685528252808420805460ff191660011790558451845291905280822060030154925182529020600201540361434b5761434b61368e565b80600001516001600160a01b03168261ffff167f046368a4ca42efbdd968b9025440eb5590bdcda7da09f4fef8ac4ef2f44a5ed08360200151846040015185606001516040516143ae939291909283526020830191909152604082015260600190565b60405180910390a35050565b6001600160a01b03821661441a5760405162461bcd60e51b815260206004820152602160248201527f45524332303a206275726e2066726f6d20746865207a65726f206164647265736044820152607360f81b6064820152608401610baf565b6001600160a01b0382166000908152603360205260409020548181101561448e5760405162461bcd60e51b815260206004820152602260248201527f45524332303a206275726e20616d6f756e7420657863656564732062616c616e604482015261636560f01b6064820152608401610baf565b6001600160a01b0383166000818152603360209081526040808320868603905560358054879003905551858152919291600080516020615fd9833981519152910160405180910390a3505050565b60008260000182815481106144f3576144f3615ab8565b9060005260206000200154905092915050565b600054610100900460ff1661452d5760405162461bcd60e51b8152600401610baf90615eb4565b6115d133613039565b600054610100900460ff1661455d5760405162461bcd60e51b8152600401610baf90615eb4565b609780546001600160a01b0319166001600160a01b0392909216919091179055565b600054610100900460ff166145a65760405162461bcd60e51b8152600401610baf90615eb4565b60366145b2838261588a565b506037612340828261588a565b60606127ce8484600085614a41565b6001600160a01b0382166146245760405162461bcd60e51b815260206004820152601f60248201527f45524332303a206d696e7420746f20746865207a65726f2061646472657373006044820152606401610baf565b806035600082825461463691906155d2565b90915550506001600160a01b038216600081815260336020908152604080832080548601905551848152600080516020615fd9833981519152910160405180910390a35050565b61ffff821660009081526101076020908152604080832084516001600160a01b031684528252808320610120850151845290915290205460ff16156146ea5760405162461bcd60e51b81526020600482015260036024820152622b191960e91b6044820152606401610baf565b805161012082015160405160609290921b6001600160601b0319166020830152603482015260f083901b6001600160f01b031916605482015260009060560160405160208183030381529060405280519060200120905060008160405160200161477f91907b0ca2ba3432b932bab69029b4b3b732b21026b2b9b9b0b3b29d05199960211b8152601c810191909152603c0190565b60408051601f19818403018152918152815160209283012061ffff87166000908152610101845282812087516001600160a01b03908116835294529190912060070154610140860151919350909116906147da908390614b1c565b6001600160a01b0316146148165760405162461bcd60e51b815260206004820152600360248201526256323360e81b6044820152606401610baf565b505061ffff90911660009081526101076020908152604080832084516001600160a01b03168452825280832061012090940151835292905220805460ff19166001179055565b61ffff83166000908152610101602090815260408083206001600160a01b03861684529091529020600201548111156148bd5760405162461bcd60e51b815260206004820152600360248201526256313560e81b6044820152606401610baf565b61ffff83166000908152610101602090815260408083206001600160a01b0386168452909152812060040180548392906148f89084906155d2565b909155505061ffff83166000908152610101602090815260408083206001600160a01b03861684529091528120600201805483929061493890849061563b565b925050819055508060ff6000828254610f03919061563b565b60fd54604051630dc6346160e01b81526000916001600160a01b031690630dc634619061498690879087908790600401615f6d565b602060405180830381865afa1580156149a3573d6000803e3d6000fd5b505050506040513d601f19601f820116820180604052508101906149c7919061564e565b60fd5460fc54604051633920455b60e11b81529293506001600160a01b03918216926372408ab6928592614a08929116908a908a908a908a90600401615f9b565b6000604051808303818588803b158015614a2157600080fd5b505af1158015614a35573d6000803e3d6000fd5b50505050505050505050565b606082471015614aa25760405162461bcd60e51b815260206004820152602660248201527f416464726573733a20696e73756666696369656e742062616c616e636520666f6044820152651c8818d85b1b60d21b6064820152608401610baf565b600080866001600160a01b03168587604051614abe9190615943565b60006040518083038185875af1925050503d8060008114614afb576040519150601f19603f3d011682016040523d82523d6000602084013e614b00565b606091505b5091509150614b1187838387614b40565b979650505050505050565b6000806000614b2b8585614bb7565b91509150614b3881614bfc565b509392505050565b60608315614bad578251600003614ba657614b5a856139d0565b614ba65760405162461bcd60e51b815260206004820152601d60248201527f416464726573733a2063616c6c20746f206e6f6e2d636f6e74726163740000006044820152606401610baf565b50816127ce565b6127ce8383614d41565b6000808251604103614bed5760208301516040840151606085015160001a614be187828585614d6b565b94509450505050614bf5565b506000905060025b9250929050565b6000816004811115614c1057614c106157b1565b03614c185750565b6001816004811115614c2c57614c2c6157b1565b03614c745760405162461bcd60e51b815260206004820152601860248201527745434453413a20696e76616c6964207369676e617475726560401b6044820152606401610baf565b6002816004811115614c8857614c886157b1565b03614cd55760405162461bcd60e51b815260206004820152601f60248201527f45434453413a20696e76616c6964207369676e6174757265206c656e677468006044820152606401610baf565b6003816004811115614ce957614ce96157b1565b036110985760405162461bcd60e51b815260206004820152602260248201527f45434453413a20696e76616c6964207369676e6174757265202773272076616c604482015261756560f01b6064820152608401610baf565b815115614d515781518083602001fd5b8060405162461bcd60e51b8152600401610baf9190614fc0565b6000806fa2a8918ca85bafe22016d0b997e4df60600160ff1b03831115614d985750600090506003613afa565b6040805160008082526020820180845289905260ff881692820192909252606081018690526080810185905260019060a0016020604051602081039080840390855afa158015614dec573d6000803e3d6000fd5b5050604051601f1901519150506001600160a01b038116614e1557600060019250925050613afa565b9660009650945050505050565b803561ffff81168114614e3457600080fd5b919050565b60008083601f840112614e4b57600080fd5b5081356001600160401b03811115614e6257600080fd5b602083019150836020828501011115614bf557600080fd5b80356001600160401b0381168114614e3457600080fd5b60008060008060008060808789031215614eaa57600080fd5b614eb387614e22565b955060208701356001600160401b0380821115614ecf57600080fd5b614edb8a838b01614e39565b9097509550859150614eef60408a01614e7a565b94506060890135915080821115614f0557600080fd5b50614f1289828a01614e39565b979a9699509497509295939492505050565b6001600160a01b038116811461109857600080fd5b60008060408385031215614f4c57600080fd5b614f5583614e22565b91506020830135614f6581614f24565b809150509250929050565b60005b83811015614f8b578181015183820152602001614f73565b50506000910152565b60008151808452614fac816020860160208601614f70565b601f01601f19169290920160200192915050565b602081526000610c426020830184614f94565b600060208284031215614fe557600080fd5b610c4282614e22565b6000806040838503121561500157600080fd5b823561500c81614f24565b946020939093013593505050565b60008060006060848603121561502f57600080fd5b61503884614e22565b9250602084013561504881614f24565b929592945050506040919091013590565b6000806040838503121561506c57600080fd5b61500c83614e22565b801515811461109857600080fd5b60006020828403121561509557600080fd5b8135610c4281615075565b6000602082840312156150b257600080fd5b8135610c4281614f24565b6000806000606084860312156150d257600080fd5b833561503881614f24565b6001600160a01b0391909116815260200190565b60008060006040848603121561510657600080fd5b61510f84614e22565b925060208401356001600160401b0381111561512a57600080fd5b61513686828701614e39565b9497909650939450505050565b600080600080600060a0868803121561515b57600080fd5b61516486614e22565b9450602086013561517481614f24565b93506040860135925060608601359150608086013561519281614f24565b809150509295509295909350565b634e487b7160e01b600052604160045260246000fd5b60405161016081016001600160401b03811182821017156151d9576151d96151a0565b60405290565b604051601f8201601f191681016001600160401b0381118282101715615207576152076151a0565b604052919050565b60006001600160401b03821115615228576152286151a0565b50601f01601f191660200190565b600082601f83011261524757600080fd5b813561525a6152558261520f565b6151df565b81815284602083860101111561526f57600080fd5b816020850160208301376000918101602001919091529392505050565b6000806000606084860312156152a157600080fd5b6152aa84614e22565b925060208401356001600160401b038111156152c557600080fd5b6152d186828701615236565b9250506152e060408501614e7a565b90509250925092565b600080604083850312156152fc57600080fd5b823591506020830135614f6581614f24565b6000806040838503121561532157600080fd5b61532a83614e22565b915061533860208401614e22565b90509250929050565b60008060006060848603121561535657600080fd5b61535f84614e22565b9250602084013561536f81614f24565b9150604084013561537f81614f24565b809150509250925092565b60008060008060008060c087890312156153a357600080fd5b6153ac87614e22565b955060208701356001600160401b03808211156153c857600080fd5b6153d48a838b01615236565b965060408901359550606089013591506153ed82614f24565b9093506080880135925060a0880135908082111561540a57600080fd5b5061541789828a01615236565b9150509295509295509295565b60008060008060006080868803121561543c57600080fd5b61544586614e22565b945061545360208701614e22565b93506040860135925060608601356001600160401b0381111561547557600080fd5b61548188828901614e39565b969995985093965092949392505050565b600080604083850312156154a557600080fd5b8235614f5581614f24565b6000806000606084860312156154c557600080fd5b6154ce84614e22565b92506154dc60208501614e22565b9150604084013590509250925092565b60008060006060848603121561550157600080fd5b83359250602084013561504881614f24565b6000806000806080858703121561552957600080fd5b61553285614e22565b935061554060208601614e22565b9250604085013561555081614f24565b9396929550929360600135925050565b6000806000806080858703121561557657600080fd5b843561558181614f24565b9350602085013561559181614f24565b925060408501356155a181614f24565b915060608501356155b181614f24565b939692955090935050565b634e487b7160e01b600052601160045260246000fd5b80820180821115610c4557610c456155bc565b600181811c908216806155f957607f821691505b60208210810361561957634e487b7160e01b600052602260045260246000fd5b50919050565b602080825260029082015261563160f01b604082015260600190565b81810381811115610c4557610c456155bc565b60006020828403121561566057600080fd5b5051919050565b8183823760009101908152919050565b81835281816020850137506000828201602090810191909152601f909101601f19169091010190565b61ffff841681526040602082015260006127cb604083018486615677565b600181815b808511156156f95781600019048211156156df576156df6155bc565b808516156156ec57918102915b93841c93908002906156c3565b509250929050565b60008261571057506001610c45565b8161571d57506000610c45565b8160018114615733576002811461573d57615759565b6001915050610c45565b60ff84111561574e5761574e6155bc565b50506001821b610c45565b5060208310610133831016604e8410600b841016171561577c575081810a610c45565b61578683836156be565b806000190482111561579a5761579a6155bc565b029392505050565b6000610c4260ff841683615701565b634e487b7160e01b600052602160045260246000fd5b600581106157e557634e487b7160e01b600052602160045260246000fd5b9052565b604081016157f782856157c7565b91516001600160a01b031660209190910152919050565b8284823760609190911b6001600160601b0319169101908152601401919050565b601f82111561234057600081815260208120601f850160051c810160208610156158565750805b601f850160051c820191505b81811015610c2e57828155600101615862565b600019600383901b1c191660019190911b1790565b81516001600160401b038111156158a3576158a36151a0565b6158b7816158b184546155e5565b8461582f565b602080601f8311600181146158e657600084156158d45750858301515b6158de8582615875565b865550610c2e565b600085815260208120601f198616915b82811015615915578886015182559484019460019091019084016158f6565b50858210156159335787850151600019600388901b60f8161c191681555b5050505050600190811b01905550565b60008251615955818460208701614f70565b9190910192915050565b805160208201516001600160601b0319808216929190601483101561598e5780818460140360031b1b83161693505b505050919050565b600061ffff808816835280871660208401525084604083015260806060830152614b11608083018486615677565b61ffff861681526080602082015260006159e2608083018688615677565b6001600160401b0394909416604083015250606001529392505050565b6001600160401b03831115615a1657615a166151a0565b615a2a83615a2483546155e5565b8361582f565b6000601f841160018114615a585760008515615a465750838201355b615a508682615875565b845550610d5f565b600083815260209020601f19861690835b82811015615a895786850135825560209485019460019092019101615a69565b5086821015615aa65760001960f88860031b161c19848701351681555b505060018560011b0183555050505050565b634e487b7160e01b600052603260045260246000fd5b600060018201615ae057615ae06155bc565b5060010190565b60608101615af582856157c7565b82516020830152602083015160408301529392505050565b600082601f830112615b1e57600080fd5b8151615b2c6152558261520f565b818152846020838601011115615b4157600080fd5b6127ce826020830160208701614f70565b600060208284031215615b6457600080fd5b81516001600160401b03811115615b7a57600080fd5b6127ce84828501615b0d565b6001600160a01b03929092168252602082015260400190565b600060208284031215615bb157600080fd5b8151610c4281615075565b61ffff85168152608060208201526000615bd96080830186614f94565b6001600160401b03851660408401528281036060840152614b118185614f94565b8082028115828204841417610c4557610c456155bc565b600082615c2e57634e487b7160e01b600052601260045260246000fd5b500490565b61ffff861681526001600160a01b038516602082015260a060408201819052600090615c6190830186614f94565b84151560608401528281036080840152615c7b8185614f94565b98975050505050505050565b60008060408385031215615c9a57600080fd5b505080516020909101519092909150565b61ffff8716815260c060208201526000615cc860c0830188614f94565b8281036040840152615cda8188614f94565b6001600160a01b0387811660608601528616608085015283810360a08501529050615d058185614f94565b9998505050505050505050565b600060208284031215615d2457600080fd5b815160058110610c4257600080fd5b8051614e3481614f24565b60008060408385031215615d5157600080fd5b825160208401519092506001600160401b0380821115615d7057600080fd5b908401906101608287031215615d8557600080fd5b615d8d6151b6565b615d9683615d33565b81526020830151602082015260408301516040820152606083015160608201526080830151608082015260a083015160a082015260c083015160c082015260e083015160e08201526101008084015181830152506101208084015181830152506101408084015183811115615e0a57600080fd5b615e1689828701615b0d565b8284015250508093505050509250929050565b60008082840360a0811215615e3d57600080fd5b835192506080601f1982011215615e5357600080fd5b50604051608081016001600160401b0381118282101715615e7657615e766151a0565b6040526020840151615e8781614f24565b80825250604084015160208201526060840151604082015260808401516060820152809150509250929050565b6020808252602b908201527f496e697469616c697a61626c653a20636f6e7472616374206973206e6f74206960408201526a6e697469616c697a696e6760a81b606082015260800190565b61ffff8616815260a060208201526000615f1c60a0830187614f94565b6001600160401b03861660408401528281036060840152615f3d8186614f94565b90508281036080840152615c7b8185614f94565b60408101615f5f82856157c7565b825160208301529392505050565b61ffff841681526001600160a01b03831660208201526060604082018190526000906127cb90830184614f94565b6001600160a01b0386811682526020820186905261ffff851660408301528316606082015260a060808201819052600090614b1190830184614f9456feddf252ad1be2c89b69c2b068fc378daa952ba7f163c4a11628f55a4df523b3efa26469706673582212200cadfff0cbe14f13b37f1880e546dd09bbcfb3f9f4aeb697a18a4e81baf8c40f64736f6c63430008130033",
  "linkReferences": {},
  "deployedLinkReferences": {}
}