{
  "_format": "hh-sol-artifact-1",
  "contractName": "Vault",
  "sourceName": "contracts/Vault.sol",
  "abi": [
    {
      "inputs": [
        {
          "internalType": "uint256",
          "name": "amount",
          "type": "uint256"
        },
        {
          "internalType": "uint256",
          "name": "balance",
          "type": "uint256"
        }
      ],
      "name": "InsufficientFunds",
      "type": "error"
    },
    {
      "anonymous": false,
      "inputs": [
        {
          "indexed": true,
          "internalType": "address",
          "name": "owner",
          "type": "address"
        },
        {
          "indexed": true,
          "internalType": "address",
          "name": "spender",
          "type": "address"
        },
        {
          "indexed": false,
          "internalType": "uint256",
          "name": "value",
          "type": "uint256"
        }
      ],
      "name": "Approval",
      "type": "event"
    },
    {
      "anonymous": false,
      "inputs": [
        {
          "indexed": false,
          "internalType": "uint256",
          "name": "epochId",
          "type": "uint256"
        },
        {
          "indexed": false,
          "internalType": "uint256",
          "name": "requestCount",
          "type": "uint256"
        }
      ],
      "name": "FulfilledWithdrawEpoch",
      "type": "event"
    },
    {
      "anonymous": false,
      "inputs": [
        {
          "indexed": false,
          "internalType": "uint8",
          "name": "version",
          "type": "uint8"
        }
      ],
      "name": "Initialized",
      "type": "event"
    },
    {
      "anonymous": false,
      "inputs": [
        {
          "indexed": false,
          "internalType": "uint16",
          "name": "_srcChainId",
          "type": "uint16"
        },
        {
          "indexed": false,
          "internalType": "bytes",
          "name": "_srcAddress",
          "type": "bytes"
        },
        {
          "indexed": false,
          "internalType": "uint64",
          "name": "_nonce",
          "type": "uint64"
        },
        {
          "indexed": false,
          "internalType": "bytes",
          "name": "_payload",
          "type": "bytes"
        },
        {
          "indexed": false,
          "internalType": "bytes",
          "name": "_reason",
          "type": "bytes"
        }
      ],
      "name": "MessageFailed",
      "type": "event"
    },
    {
      "anonymous": false,
      "inputs": [
        {
          "indexed": true,
          "internalType": "address",
          "name": "previousOwner",
          "type": "address"
        },
        {
          "indexed": true,
          "internalType": "address",
          "name": "newOwner",
          "type": "address"
        }
      ],
      "name": "OwnershipTransferred",
      "type": "event"
    },
    {
      "anonymous": false,
      "inputs": [
        {
          "indexed": false,
          "internalType": "uint16",
          "name": "_srcChainId",
          "type": "uint16"
        },
        {
          "indexed": false,
          "internalType": "bytes",
          "name": "_srcAddress",
          "type": "bytes"
        },
        {
          "indexed": false,
          "internalType": "uint64",
          "name": "_nonce",
          "type": "uint64"
        },
        {
          "indexed": false,
          "internalType": "bytes32",
          "name": "_payloadHash",
          "type": "bytes32"
        }
      ],
      "name": "RetryMessageSuccess",
      "type": "event"
    },
    {
      "anonymous": false,
      "inputs": [
        {
          "indexed": false,
          "internalType": "uint16",
          "name": "_dstChainId",
          "type": "uint16"
        },
        {
          "indexed": false,
          "internalType": "uint16",
          "name": "_type",
          "type": "uint16"
        },
        {
          "indexed": false,
          "internalType": "uint256",
          "name": "_minDstGas",
          "type": "uint256"
        }
      ],
      "name": "SetMinDstGas",
      "type": "event"
    },
    {
      "anonymous": false,
      "inputs": [
        {
          "indexed": false,
          "internalType": "address",
          "name": "precrime",
          "type": "address"
        }
      ],
      "name": "SetPrecrime",
      "type": "event"
    },
    {
      "anonymous": false,
      "inputs": [
        {
          "indexed": false,
          "internalType": "uint16",
          "name": "_remoteChainId",
          "type": "uint16"
        },
        {
          "indexed": false,
          "internalType": "bytes",
          "name": "_path",
          "type": "bytes"
        }
      ],
      "name": "SetTrustedRemote",
      "type": "event"
    },
    {
      "anonymous": false,
      "inputs": [
        {
          "indexed": false,
          "internalType": "uint16",
          "name": "_remoteChainId",
          "type": "uint16"
        },
        {
          "indexed": false,
          "internalType": "bytes",
          "name": "_remoteAddress",
          "type": "bytes"
        }
      ],
      "name": "SetTrustedRemoteAddress",
      "type": "event"
    },
    {
      "anonymous": false,
      "inputs": [
        {
          "indexed": true,
          "internalType": "address",
          "name": "token",
          "type": "address"
        },
        {
          "indexed": false,
          "internalType": "uint256",
          "name": "amount",
          "type": "uint256"
        },
        {
          "indexed": false,
          "internalType": "address",
          "name": "sender",
          "type": "address"
        }
      ],
      "name": "SgReceived",
      "type": "event"
    },
    {
      "anonymous": false,
      "inputs": [
        {
          "indexed": false,
          "internalType": "uint16",
          "name": "chainId",
          "type": "uint16"
        },
        {
          "indexed": false,
          "internalType": "address",
          "name": "strategy",
          "type": "address"
        },
        {
          "indexed": false,
          "internalType": "uint256",
          "name": "gain",
          "type": "uint256"
        },
        {
          "indexed": false,
          "internalType": "uint256",
          "name": "loss",
          "type": "uint256"
        },
        {
          "indexed": false,
          "internalType": "uint256",
          "name": "debtPaid",
          "type": "uint256"
        },
        {
          "indexed": false,
          "internalType": "uint256",
          "name": "totalGain",
          "type": "uint256"
        },
        {
          "indexed": false,
          "internalType": "uint256",
          "name": "totalLoss",
          "type": "uint256"
        },
        {
          "indexed": false,
          "internalType": "uint256",
          "name": "totalDebt",
          "type": "uint256"
        },
        {
          "indexed": false,
          "internalType": "uint256",
          "name": "debtAdded",
          "type": "uint256"
        },
        {
          "indexed": false,
          "internalType": "uint256",
          "name": "debtRatio",
          "type": "uint256"
        },
        {
          "indexed": false,
          "internalType": "uint256",
          "name": "tokens",
          "type": "uint256"
        }
      ],
      "name": "StrategyReported",
      "type": "event"
    },
    {
      "anonymous": false,
      "inputs": [
        {
          "indexed": true,
          "internalType": "uint16",
          "name": "chainId",
          "type": "uint16"
        },
        {
          "indexed": true,
          "internalType": "address",
          "name": "strategy",
          "type": "address"
        },
        {
          "indexed": false,
          "internalType": "uint256",
          "name": "amount",
          "type": "uint256"
        },
        {
          "indexed": false,
          "internalType": "uint256",
          "name": "loss",
          "type": "uint256"
        },
        {
          "indexed": false,
          "internalType": "uint256",
          "name": "id",
          "type": "uint256"
        }
      ],
      "name": "StrategyWithdrawnSome",
      "type": "event"
    },
    {
      "anonymous": false,
      "inputs": [
        {
          "indexed": true,
          "internalType": "address",
          "name": "from",
          "type": "address"
        },
        {
          "indexed": true,
          "internalType": "address",
          "name": "to",
          "type": "address"
        },
        {
          "indexed": false,
          "internalType": "uint256",
          "name": "value",
          "type": "uint256"
        }
      ],
      "name": "Transfer",
      "type": "event"
    },
    {
      "inputs": [],
      "name": "DEFAULT_PAYLOAD_SIZE_LIMIT",
      "outputs": [
        {
          "internalType": "uint256",
          "name": "",
          "type": "uint256"
        }
      ],
      "stateMutability": "view",
      "type": "function"
    },
    {
      "inputs": [
        {
          "internalType": "uint16",
          "name": "_chainId",
          "type": "uint16"
        },
        {
          "internalType": "address",
          "name": "_strategy",
          "type": "address"
        },
        {
          "internalType": "uint256",
          "name": "_debtRatio",
          "type": "uint256"
        },
        {
          "internalType": "uint256",
          "name": "_performanceFee",
          "type": "uint256"
        },
        {
          "internalType": "address",
          "name": "_strategist",
          "type": "address"
        }
      ],
      "name": "addStrategy",
      "outputs": [],
      "stateMutability": "nonpayable",
      "type": "function"
    },
    {
      "inputs": [
        {
          "internalType": "address",
          "name": "owner",
          "type": "address"
        },
        {
          "internalType": "address",
          "name": "spender",
          "type": "address"
        }
      ],
      "name": "allowance",
      "outputs": [
        {
          "internalType": "uint256",
          "name": "",
          "type": "uint256"
        }
      ],
      "stateMutability": "view",
      "type": "function"
    },
    {
      "inputs": [
        {
          "internalType": "address",
          "name": "spender",
          "type": "address"
        },
        {
          "internalType": "uint256",
          "name": "amount",
          "type": "uint256"
        }
      ],
      "name": "approve",
      "outputs": [
        {
          "internalType": "bool",
          "name": "",
          "type": "bool"
        }
      ],
      "stateMutability": "nonpayable",
      "type": "function"
    },
    {
      "inputs": [
        {
          "internalType": "address",
          "name": "account",
          "type": "address"
        }
      ],
      "name": "balanceOf",
      "outputs": [
        {
          "internalType": "uint256",
          "name": "",
          "type": "uint256"
        }
      ],
      "stateMutability": "view",
      "type": "function"
    },
    {
      "inputs": [
        {
          "internalType": "uint16",
          "name": "_chainId",
          "type": "uint16"
        },
        {
          "internalType": "address",
          "name": "_strategy",
          "type": "address"
        }
      ],
      "name": "creditAvailable",
      "outputs": [
        {
          "internalType": "uint256",
          "name": "",
          "type": "uint256"
        }
      ],
      "stateMutability": "view",
      "type": "function"
    },
    {
      "inputs": [
        {
          "internalType": "uint16",
          "name": "_chainId",
          "type": "uint16"
        },
        {
          "internalType": "address",
          "name": "_strategy",
          "type": "address"
        }
      ],
      "name": "debtOutstanding",
      "outputs": [
        {
          "internalType": "uint256",
          "name": "",
          "type": "uint256"
        }
      ],
      "stateMutability": "view",
      "type": "function"
    },
    {
      "inputs": [],
      "name": "decimals",
      "outputs": [
        {
          "internalType": "uint8",
          "name": "",
          "type": "uint8"
        }
      ],
      "stateMutability": "view",
      "type": "function"
    },
    {
      "inputs": [
        {
          "internalType": "address",
          "name": "spender",
          "type": "address"
        },
        {
          "internalType": "uint256",
          "name": "subtractedValue",
          "type": "uint256"
        }
      ],
      "name": "decreaseAllowance",
      "outputs": [
        {
          "internalType": "bool",
          "name": "",
          "type": "bool"
        }
      ],
      "stateMutability": "nonpayable",
      "type": "function"
    },
    {
      "inputs": [
        {
          "internalType": "uint256",
          "name": "_amount",
          "type": "uint256"
        },
        {
          "internalType": "address",
          "name": "_recipient",
          "type": "address"
        }
      ],
      "name": "deposit",
      "outputs": [
        {
          "internalType": "uint256",
          "name": "",
          "type": "uint256"
        }
      ],
      "stateMutability": "nonpayable",
      "type": "function"
    },
    {
      "inputs": [],
      "name": "emergencyShutdown",
      "outputs": [
        {
          "internalType": "bool",
          "name": "",
          "type": "bool"
        }
      ],
      "stateMutability": "view",
      "type": "function"
    },
    {
      "inputs": [
        {
          "internalType": "uint16",
          "name": "",
          "type": "uint16"
        },
        {
          "internalType": "bytes",
          "name": "",
          "type": "bytes"
        },
        {
          "internalType": "uint64",
          "name": "",
          "type": "uint64"
        }
      ],
      "name": "failedMessages",
      "outputs": [
        {
          "internalType": "bytes32",
          "name": "",
          "type": "bytes32"
        }
      ],
      "stateMutability": "view",
      "type": "function"
    },
    {
      "inputs": [
        {
          "internalType": "uint16",
          "name": "_srcChainId",
          "type": "uint16"
        },
        {
          "internalType": "bytes",
          "name": "_srcAddress",
          "type": "bytes"
        }
      ],
      "name": "forceResumeReceive",
      "outputs": [],
      "stateMutability": "nonpayable",
      "type": "function"
    },
    {
      "inputs": [
        {
          "internalType": "uint16",
          "name": "_version",
          "type": "uint16"
        },
        {
          "internalType": "uint16",
          "name": "_chainId",
          "type": "uint16"
        },
        {
          "internalType": "address",
          "name": "",
          "type": "address"
        },
        {
          "internalType": "uint256",
          "name": "_configType",
          "type": "uint256"
        }
      ],
      "name": "getConfig",
      "outputs": [
        {
          "internalType": "bytes",
          "name": "",
          "type": "bytes"
        }
      ],
      "stateMutability": "view",
      "type": "function"
    },
    {
      "inputs": [
        {
          "internalType": "uint16",
          "name": "_remoteChainId",
          "type": "uint16"
        }
      ],
      "name": "getTrustedRemoteAddress",
      "outputs": [
        {
          "internalType": "bytes",
          "name": "",
          "type": "bytes"
        }
      ],
      "stateMutability": "view",
      "type": "function"
    },
    {
      "inputs": [],
      "name": "governance",
      "outputs": [
        {
          "internalType": "address",
          "name": "",
          "type": "address"
        }
      ],
      "stateMutability": "view",
      "type": "function"
    },
    {
      "inputs": [],
      "name": "handleWithdrawals",
      "outputs": [],
      "stateMutability": "nonpayable",
      "type": "function"
    },
    {
      "inputs": [
        {
          "internalType": "address",
          "name": "spender",
          "type": "address"
        },
        {
          "internalType": "uint256",
          "name": "addedValue",
          "type": "uint256"
        }
      ],
      "name": "increaseAllowance",
      "outputs": [
        {
          "internalType": "bool",
          "name": "",
          "type": "bool"
        }
      ],
      "stateMutability": "nonpayable",
      "type": "function"
    },
    {
      "inputs": [
        {
          "internalType": "address",
          "name": "_governance",
          "type": "address"
        },
        {
          "internalType": "address",
          "name": "_lzEndpoint",
          "type": "address"
        },
        {
          "internalType": "contract IERC20",
          "name": "_token",
          "type": "address"
        },
        {
          "internalType": "address",
          "name": "_sgRouter",
          "type": "address"
        }
      ],
      "name": "initialize",
      "outputs": [],
      "stateMutability": "nonpayable",
      "type": "function"
    },
    {
      "inputs": [
        {
          "internalType": "uint16",
          "name": "_srcChainId",
          "type": "uint16"
        },
        {
          "internalType": "bytes",
          "name": "_srcAddress",
          "type": "bytes"
        }
      ],
      "name": "isTrustedRemote",
      "outputs": [
        {
          "internalType": "bool",
          "name": "",
          "type": "bool"
        }
      ],
      "stateMutability": "view",
      "type": "function"
    },
    {
      "inputs": [],
      "name": "lzEndpoint",
      "outputs": [
        {
          "internalType": "contract ILayerZeroEndpointUpgradeable",
          "name": "",
          "type": "address"
        }
      ],
      "stateMutability": "view",
      "type": "function"
    },
    {
      "inputs": [
        {
          "internalType": "uint16",
          "name": "_srcChainId",
          "type": "uint16"
        },
        {
          "internalType": "bytes",
          "name": "_srcAddress",
          "type": "bytes"
        },
        {
          "internalType": "uint64",
          "name": "_nonce",
          "type": "uint64"
        },
        {
          "internalType": "bytes",
          "name": "_payload",
          "type": "bytes"
        }
      ],
      "name": "lzReceive",
      "outputs": [],
      "stateMutability": "nonpayable",
      "type": "function"
    },
    {
      "inputs": [
        {
          "internalType": "uint16",
          "name": "_chainId",
          "type": "uint16"
        },
        {
          "internalType": "address",
          "name": "_oldStrategy",
          "type": "address"
        },
        {
          "internalType": "address",
          "name": "_newStrategy",
          "type": "address"
        }
      ],
      "name": "migrateStrategy",
      "outputs": [],
      "stateMutability": "nonpayable",
      "type": "function"
    },
    {
      "inputs": [
        {
          "internalType": "uint16",
          "name": "",
          "type": "uint16"
        },
        {
          "internalType": "uint16",
          "name": "",
          "type": "uint16"
        }
      ],
      "name": "minDstGasLookup",
      "outputs": [
        {
          "internalType": "uint256",
          "name": "",
          "type": "uint256"
        }
      ],
      "stateMutability": "view",
      "type": "function"
    },
    {
      "inputs": [],
      "name": "name",
      "outputs": [
        {
          "internalType": "string",
          "name": "",
          "type": "string"
        }
      ],
      "stateMutability": "view",
      "type": "function"
    },
    {
      "inputs": [
        {
          "internalType": "uint16",
          "name": "_srcChainId",
          "type": "uint16"
        },
        {
          "internalType": "bytes",
          "name": "_srcAddress",
          "type": "bytes"
        },
        {
          "internalType": "uint64",
          "name": "_nonce",
          "type": "uint64"
        },
        {
          "internalType": "bytes",
          "name": "_payload",
          "type": "bytes"
        }
      ],
      "name": "nonblockingLzReceive",
      "outputs": [],
      "stateMutability": "nonpayable",
      "type": "function"
    },
    {
      "inputs": [],
      "name": "owner",
      "outputs": [
        {
          "internalType": "address",
          "name": "",
          "type": "address"
        }
      ],
      "stateMutability": "view",
      "type": "function"
    },
    {
      "inputs": [
        {
          "internalType": "uint16",
          "name": "",
          "type": "uint16"
        }
      ],
      "name": "payloadSizeLimitLookup",
      "outputs": [
        {
          "internalType": "uint256",
          "name": "",
          "type": "uint256"
        }
      ],
      "stateMutability": "view",
      "type": "function"
    },
    {
      "inputs": [],
      "name": "precrime",
      "outputs": [
        {
          "internalType": "address",
          "name": "",
          "type": "address"
        }
      ],
      "stateMutability": "view",
      "type": "function"
    },
    {
      "inputs": [],
      "name": "pricePerShare",
      "outputs": [
        {
          "internalType": "uint256",
          "name": "",
          "type": "uint256"
        }
      ],
      "stateMutability": "view",
      "type": "function"
    },
    {
      "inputs": [],
      "name": "renounceOwnership",
      "outputs": [],
      "stateMutability": "nonpayable",
      "type": "function"
    },
    {
      "inputs": [
        {
          "internalType": "uint16",
          "name": "_srcChainId",
          "type": "uint16"
        },
        {
          "internalType": "bytes",
          "name": "_srcAddress",
          "type": "bytes"
        },
        {
          "internalType": "uint64",
          "name": "_nonce",
          "type": "uint64"
        },
        {
          "internalType": "bytes",
          "name": "_payload",
          "type": "bytes"
        }
      ],
      "name": "retryMessage",
      "outputs": [],
      "stateMutability": "payable",
      "type": "function"
    },
    {
      "inputs": [],
      "name": "revokeFunds",
      "outputs": [],
      "stateMutability": "nonpayable",
      "type": "function"
    },
    {
      "inputs": [
        {
          "internalType": "uint16",
          "name": "_chainId",
          "type": "uint16"
        },
        {
          "internalType": "address",
          "name": "_strategy",
          "type": "address"
        }
      ],
      "name": "revokeStrategy",
      "outputs": [],
      "stateMutability": "nonpayable",
      "type": "function"
    },
    {
      "inputs": [
        {
          "internalType": "uint16",
          "name": "_version",
          "type": "uint16"
        },
        {
          "internalType": "uint16",
          "name": "_chainId",
          "type": "uint16"
        },
        {
          "internalType": "uint256",
          "name": "_configType",
          "type": "uint256"
        },
        {
          "internalType": "bytes",
          "name": "_config",
          "type": "bytes"
        }
      ],
      "name": "setConfig",
      "outputs": [],
      "stateMutability": "nonpayable",
      "type": "function"
    },
    {
      "inputs": [
        {
          "internalType": "bool",
          "name": "_emergencyShutdown",
          "type": "bool"
        }
      ],
      "name": "setEmergencyShutdown",
      "outputs": [],
      "stateMutability": "nonpayable",
      "type": "function"
    },
    {
      "inputs": [
        {
          "internalType": "address",
          "name": "_newGovernance",
          "type": "address"
        }
      ],
      "name": "setGovernance",
      "outputs": [],
      "stateMutability": "nonpayable",
      "type": "function"
    },
    {
      "inputs": [
        {
          "internalType": "uint16",
          "name": "_dstChainId",
          "type": "uint16"
        },
        {
          "internalType": "uint16",
          "name": "_packetType",
          "type": "uint16"
        },
        {
          "internalType": "uint256",
          "name": "_minGas",
          "type": "uint256"
        }
      ],
      "name": "setMinDstGas",
      "outputs": [],
      "stateMutability": "nonpayable",
      "type": "function"
    },
    {
      "inputs": [
        {
          "internalType": "uint16",
          "name": "_dstChainId",
          "type": "uint16"
        },
        {
          "internalType": "uint256",
          "name": "_size",
          "type": "uint256"
        }
      ],
      "name": "setPayloadSizeLimit",
      "outputs": [],
      "stateMutability": "nonpayable",
      "type": "function"
    },
    {
      "inputs": [
        {
          "internalType": "address",
          "name": "_precrime",
          "type": "address"
        }
      ],
      "name": "setPrecrime",
      "outputs": [],
      "stateMutability": "nonpayable",
      "type": "function"
    },
    {
      "inputs": [
        {
          "internalType": "uint16",
          "name": "_version",
          "type": "uint16"
        }
      ],
      "name": "setReceiveVersion",
      "outputs": [],
      "stateMutability": "nonpayable",
      "type": "function"
    },
    {
      "inputs": [
        {
          "internalType": "uint16",
          "name": "_version",
          "type": "uint16"
        }
      ],
      "name": "setSendVersion",
      "outputs": [],
      "stateMutability": "nonpayable",
      "type": "function"
    },
    {
      "inputs": [
        {
          "internalType": "address",
          "name": "_newSgBridge",
          "type": "address"
        }
      ],
      "name": "setSgBridge",
      "outputs": [],
      "stateMutability": "nonpayable",
      "type": "function"
    },
    {
      "inputs": [
        {
          "internalType": "uint16",
          "name": "_chainId",
          "type": "uint16"
        },
        {
          "internalType": "address",
          "name": "_strategy",
          "type": "address"
        },
        {
          "internalType": "address",
          "name": "_newStrategist",
          "type": "address"
        }
      ],
      "name": "setStrategist",
      "outputs": [],
      "stateMutability": "nonpayable",
      "type": "function"
    },
    {
      "inputs": [
        {
          "internalType": "uint16",
          "name": "_srcChainId",
          "type": "uint16"
        },
        {
          "internalType": "bytes",
          "name": "_path",
          "type": "bytes"
        }
      ],
      "name": "setTrustedRemote",
      "outputs": [],
      "stateMutability": "nonpayable",
      "type": "function"
    },
    {
      "inputs": [
        {
          "internalType": "uint16",
          "name": "_remoteChainId",
          "type": "uint16"
        },
        {
          "internalType": "bytes",
          "name": "_remoteAddress",
          "type": "bytes"
        }
      ],
      "name": "setTrustedRemoteAddress",
      "outputs": [],
      "stateMutability": "nonpayable",
      "type": "function"
    },
    {
      "inputs": [],
      "name": "sgBridge",
      "outputs": [
        {
          "internalType": "contract ISgBridge",
          "name": "",
          "type": "address"
        }
      ],
      "stateMutability": "view",
      "type": "function"
    },
    {
      "inputs": [
        {
          "internalType": "uint16",
          "name": "_srcChainId",
          "type": "uint16"
        },
        {
          "internalType": "bytes",
          "name": "_srcAddress",
          "type": "bytes"
        },
        {
          "internalType": "uint256",
          "name": "",
          "type": "uint256"
        },
        {
          "internalType": "address",
          "name": "_token",
          "type": "address"
        },
        {
          "internalType": "uint256",
          "name": "_amountLD",
          "type": "uint256"
        },
        {
          "internalType": "bytes",
          "name": "_payload",
          "type": "bytes"
        }
      ],
      "name": "sgReceive",
      "outputs": [],
      "stateMutability": "nonpayable",
      "type": "function"
    },
    {
      "inputs": [],
      "name": "sgRouter",
      "outputs": [
        {
          "internalType": "address",
          "name": "",
          "type": "address"
        }
      ],
      "stateMutability": "view",
      "type": "function"
    },
    {
      "inputs": [
        {
          "internalType": "uint16",
          "name": "",
          "type": "uint16"
        },
        {
          "internalType": "address",
          "name": "",
          "type": "address"
        }
      ],
      "name": "strategies",
      "outputs": [
        {
          "internalType": "uint256",
          "name": "activation",
          "type": "uint256"
        },
        {
          "internalType": "uint256",
          "name": "debtRatio",
          "type": "uint256"
        },
        {
          "internalType": "uint256",
          "name": "totalDebt",
          "type": "uint256"
        },
        {
          "internalType": "uint256",
          "name": "totalGain",
          "type": "uint256"
        },
        {
          "internalType": "uint256",
          "name": "totalLoss",
          "type": "uint256"
        },
        {
          "internalType": "uint256",
          "name": "lastReport",
          "type": "uint256"
        },
        {
          "internalType": "uint256",
          "name": "performanceFee",
          "type": "uint256"
        },
        {
          "internalType": "address",
          "name": "strategist",
          "type": "address"
        }
      ],
      "stateMutability": "view",
      "type": "function"
    },
    {
      "inputs": [],
      "name": "symbol",
      "outputs": [
        {
          "internalType": "string",
          "name": "",
          "type": "string"
        }
      ],
      "stateMutability": "view",
      "type": "function"
    },
    {
      "inputs": [],
      "name": "token",
      "outputs": [
        {
          "internalType": "contract IERC20",
          "name": "",
          "type": "address"
        }
      ],
      "stateMutability": "view",
      "type": "function"
    },
    {
      "inputs": [],
      "name": "totalAssets",
      "outputs": [
        {
          "internalType": "uint256",
          "name": "",
          "type": "uint256"
        }
      ],
      "stateMutability": "view",
      "type": "function"
    },
    {
      "inputs": [],
      "name": "totalDebt",
      "outputs": [
        {
          "internalType": "uint256",
          "name": "",
          "type": "uint256"
        }
      ],
      "stateMutability": "view",
      "type": "function"
    },
    {
      "inputs": [],
      "name": "totalDebtRatio",
      "outputs": [
        {
          "internalType": "uint256",
          "name": "",
          "type": "uint256"
        }
      ],
      "stateMutability": "view",
      "type": "function"
    },
    {
      "inputs": [],
      "name": "totalIdle",
      "outputs": [
        {
          "internalType": "uint256",
          "name": "",
          "type": "uint256"
        }
      ],
      "stateMutability": "view",
      "type": "function"
    },
    {
      "inputs": [],
      "name": "totalSupply",
      "outputs": [
        {
          "internalType": "uint256",
          "name": "",
          "type": "uint256"
        }
      ],
      "stateMutability": "view",
      "type": "function"
    },
    {
      "inputs": [
        {
          "internalType": "address",
          "name": "to",
          "type": "address"
        },
        {
          "internalType": "uint256",
          "name": "amount",
          "type": "uint256"
        }
      ],
      "name": "transfer",
      "outputs": [
        {
          "internalType": "bool",
          "name": "",
          "type": "bool"
        }
      ],
      "stateMutability": "nonpayable",
      "type": "function"
    },
    {
      "inputs": [
        {
          "internalType": "address",
          "name": "from",
          "type": "address"
        },
        {
          "internalType": "address",
          "name": "to",
          "type": "address"
        },
        {
          "internalType": "uint256",
          "name": "amount",
          "type": "uint256"
        }
      ],
      "name": "transferFrom",
      "outputs": [
        {
          "internalType": "bool",
          "name": "",
          "type": "bool"
        }
      ],
      "stateMutability": "nonpayable",
      "type": "function"
    },
    {
      "inputs": [
        {
          "internalType": "address",
          "name": "newOwner",
          "type": "address"
        }
      ],
      "name": "transferOwnership",
      "outputs": [],
      "stateMutability": "nonpayable",
      "type": "function"
    },
    {
      "inputs": [
        {
          "internalType": "uint16",
          "name": "",
          "type": "uint16"
        }
      ],
      "name": "trustedRemoteLookup",
      "outputs": [
        {
          "internalType": "bytes",
          "name": "",
          "type": "bytes"
        }
      ],
      "stateMutability": "view",
      "type": "function"
    },
    {
      "inputs": [
        {
          "internalType": "uint16",
          "name": "_chainId",
          "type": "uint16"
        },
        {
          "internalType": "address",
          "name": "_strategy",
          "type": "address"
        },
        {
          "internalType": "uint256",
          "name": "_debtRatio",
          "type": "uint256"
        }
      ],
      "name": "updateStrategyDebtRatio",
      "outputs": [],
      "stateMutability": "nonpayable",
      "type": "function"
    },
    {
      "inputs": [
        {
          "internalType": "uint256",
          "name": "_maxShares",
          "type": "uint256"
        },
        {
          "internalType": "address",
          "name": "_recipient",
          "type": "address"
        },
        {
          "internalType": "uint256",
          "name": "_maxLoss",
          "type": "uint256"
        }
      ],
      "name": "withdraw",
      "outputs": [],
      "stateMutability": "nonpayable",
      "type": "function"
    },
    {
      "inputs": [],
      "name": "withdrawEpoch",
      "outputs": [
        {
          "internalType": "uint256",
          "name": "",
          "type": "uint256"
        }
      ],
      "stateMutability": "view",
      "type": "function"
    },
    {
      "inputs": [
        {
          "internalType": "uint256",
          "name": "",
          "type": "uint256"
        }
      ],
      "name": "withdrawEpochs",
      "outputs": [
        {
          "internalType": "bool",
          "name": "inProgress",
          "type": "bool"
        },
        {
          "internalType": "uint256",
          "name": "approveExpected",
          "type": "uint256"
        },
        {
          "internalType": "uint256",
          "name": "approveActual",
          "type": "uint256"
        }
      ],
      "stateMutability": "view",
      "type": "function"
    },
    {
      "stateMutability": "payable",
      "type": "receive"
    }
  ],
  "bytecode": "0x608080604052346100165761544c908161001c8239f35b600080fdfe6080604052600436101561001b575b361561001957600080fd5b005b60003560e01c80621d35671461042a57806301dc2eb11461042557806301e1d114146104205780630517cb761461041b578063057724d81461041657806306fdde031461041157806307e0db171461040c578063095ea7b3146104075780630a97c254146104025780630df37483146103fd57806310ddb137146103f857806314c64402146103f357806318160ddd146103ee57806323b872dd146103e95780632d606843146103e45780632df9eab9146103df578063313ce567146103da5780633403c2fc146103d557806337fded91146103d057806339509351146103cb5780633d8b38f6146103c65780633f1f4fa4146103c15780634067cb9e146103bc57806342d65a8d146103b757806352106a49146103b25780635aa6e675146103ad5780635b8c41e6146103a85780635fe1a027146103a357806366ad5c8a1461039e5780636e553f651461039957806370a0823114610394578063715018a61461038f5780637533d7881461038a5780638cfd8f5c146103855780638da5cb5b14610380578063950c8a741461037b57806395d89b411461037657806399530b06146103715780639aa7df941461036c5780639f38369a14610367578063a032a71214610362578063a457c2d71461035d578063a6c3d16514610358578063a9059cbb14610353578063ab033ea91461034e578063ab73ce4614610349578063ab8236f314610344578063b353aaa71461033f578063baf3292d1461033a578063c446183414610335578063cbed8b9c14610330578063cfbcc6441461032b578063d1deba1f14610326578063dd62ed3e14610321578063dde4f08e1461031c578063df2a5b3b14610317578063e63697c814610312578063e7fda0611461030d578063eb8d72b714610308578063ef34253c14610303578063f2fde38b146102fe578063f5ecbdbc146102f9578063f8c8765e146102f4578063fc0c546a146102ef5763fc7b9c180361000e576128f0565b6128c7565b6127b1565b6126fe565b61266d565b612612565b6124ec565b6124bc565b612415565b61233e565b6122fe565b6122b4565b61217a565b6120e2565b61201c565b611fff565b611f8f565b611f66565b611dfb565b611ddc565b611d7c565b611d52565b611bf1565b611b51565b6119f9565b611926565b61190b565b6118d9565b611847565b61181e565b6117f5565b6117b0565b61175d565b61162b565b6115ee565b61147f565b611367565b61131b565b61127b565b6110a7565b610f75565b610f0a565b610e5e565b610df8565b610d74565b610cef565b610cc6565b610ca2565b610c7c565b610c5e565b610c0a565b610b3c565b610b1e565b610ac9565b610a57565b610a1c565b610945565b610910565b610898565b6107ca565b61068e565b610664565b610649565b610606565b610500565b6004359061ffff8216820361044057565b600080fd5b6024359061ffff8216820361044057565b9181601f84011215610440578235916001600160401b038311610440576020838186019501011161044057565b604435906001600160401b038216820361044057565b9060806003198301126104405760043561ffff8116810361044057916001600160401b039060243582811161044057816104d591600401610456565b9390939260443581811681036104405792606435918211610440576104fc91600401610456565b9091565b346104405761050e36610499565b60975490949293906001600160a01b031633036105be5761053c926105349136916111fb565b9336916111fb565b906105ac5a604051633356ae4560e11b602082015261ffff8716602482015260806044820152906105a68261059861057760a483018a610791565b6001600160401b038816606484015282810360231901608484015288610791565b03601f19810184528361114f565b30613b90565b9390156105b557005b61001994613adf565b60405162461bcd60e51b815260206004820152600360248201526205631360ec1b6044820152606490fd5b6001600160a01b031690565b6001600160a01b0381160361044057565b3461044057604036600319011261044057602061063661062461042f565b60243590610631826105f5565b614873565b604051908152f35b600091031261044057565b34610440576000366003190112610440576020610636613498565b3461044057600036600319011261044057610108546040516001600160a01b039091168152602090f35b346104405760203660031901126104405760006004356106ad816105f5565b60fb546020906001600160a01b0390811633148015610761575b6106d090613437565b60448160fc541693604051958693849263095ea7b360e01b84521695866004840152811960248401525af191821561075c576100199261072e575b5060fd80546001600160a01b0319166001600160a01b0392909216919091179055565b61074e9060203d8111610755575b610746818361114f565b810190613468565b503861070b565b503d61073c565b612975565b50606554811633146106c7565b60005b8381106107815750506000910152565b8181015183820152602001610771565b906020916107aa8151809281855285808601910161076e565b601f01601f1916010190565b9060206107c7928181520190610791565b90565b346104405760008060031936011261089557604051816036546107ec8161168d565b8084529060019081811690811561086d5750600114610826575b610822846108168188038261114f565b604051918291826107b6565b0390f35b60368352602094506000805160206153378339815191525b82841061085a5750505081610822936108169282010193610806565b805485850187015292850192810161083e565b61082296506108169450602092508593915060ff191682840152151560051b82010193610806565b80fd5b346104405760006020366003190112610895576108b361042f565b6108bb612ce7565b6097546001600160a01b0316908290823b1561090c57602461ffff918360405195869485936307e0db1760e01b85521660048401525af1801561075c57610900575080f35b610909906110e6565b80f35b5080fd5b346104405760403660031901126104405761093a600435610930816105f5565b6024359033612ef8565b602060405160018152f35b346104405760603660031901126104405761095e61042f565b60243561096a816105f5565b60fb546044359261ffff9161099490336001600160a01b0391821614908115610a0e575b50613437565b16906000928284526101018060205260016109b28460408820610e47565b01549360fe54948503948511610a09576109e3610a049484936001936109099860fe55895260205260408820610e47565b015560fe546109ff6127106109f88484612b92565b11156139ae565b612b92565b60fe55565b612a8d565b90506065541633143861098e565b346104405760403660031901126104405761ffff610a3861042f565b610a40612ce7565b16600052609a602052602435604060002055600080f35b34610440576000602036600319011261089557610a7261042f565b610a7a612ce7565b6097546001600160a01b0316908290823b1561090c57602461ffff918360405195869485936310ddb13760e01b85521660048401525af1801561075c57610900575080f35b8015150361044057565b3461044057602036600319011261044057600435610ae681610abf565b60fb54610b0790336001600160a01b0391821614908115610a0e5750613437565b6101009060ff801983541691151516179055600080f35b34610440576000366003190112610440576020603554604051908152f35b3461044057606036600319011261044057600435610b59816105f5565b602435610b65816105f5565b6044359060018060a01b0383166000526034602052610b88336040600020610e47565b549260018401610ba9575b610b9d9350612e29565b60405160018152602090f35b828410610bc557610bc083610b9d95033383612ef8565b610b93565b60405162461bcd60e51b815260206004820152601d60248201527f45524332303a20696e73756666696369656e7420616c6c6f77616e63650000006044820152606490fd5b34610440576000806003193601126108955760fb54610c3d90336001600160a01b0391821614908115610a0e5750613437565b8080808047818115610c55575b3390f11561075c5780f35b506108fc610c4a565b3461044057600036600319011261044057602060fe54604051908152f35b34610440576000366003190112610440576020610c976133c7565b60ff60405191168152f35b3461044057600036600319011261044057602060ff61010054166040519015158152f35b346104405760003660031901126104405760fd546040516001600160a01b039091168152602090f35b3461044057604036600319011261044057600435610d0c816105f5565b336000526034602052610d23816040600020610e47565b546024358101809111610a095761093a9133612ef8565b9060406003198301126104405760043561ffff811681036104405791602435906001600160401b038211610440576104fc91600401610456565b3461044057602061ffff610dc1610d8a36610d3a565b9390911660005260988452610dac610db36040600020604051928380926116c7565b038261114f565b8481519101209236916111fb565b82815191012014604051908152f35b61ffff16600052610101602052604060002090565b9061ffff16600052602052604060002090565b346104405760203660031901126104405761ffff610e1461042f565b16600052609a6020526020604060002054604051908152f35b6001600160a01b0316600090815260336020526040902090565b9060018060a01b0316600052602052604060002090565b3461044057604036600319011261044057610e9e610e7a61042f565b61ffff60243591610e8a836105f5565b166000526101016020526040600020610e47565b8054600182015460028301546003840154600485015460058601546006870154600790970154604080519788526020880196909652948601939093526060850191909152608084015260a083015260c08201929092526001600160a01b0390911660e082015261010090f35b3461044057610f1836610d3a565b610f23929192612ce7565b6097546000938492916001600160a01b031690813b15610f715783610f5f95604051968795869485936342d65a8d60e01b8552600485016129a2565b03925af1801561075c57610900575080f35b8380fd5b346104405760a0366003190112610440576040610909610a04610f9661042f565b61109e60243591610fa6836105f5565b6110986044359361109360843593610fbd856105f5565b60fb54610fde90336001600160a01b0391821614908115610a0e5750613437565b61107e61ffff8216956110086110018660009e8f8b815261010160205220610e47565b5415613524565b61102161271061101a8b60fe54612b92565b1115613555565b61106761102c611172565b914283528a60208401528d60408401528d60608401528d60808401528d60a084015260643560c084015260e083019060018060a01b03169052565b6110798561107485610dd0565b610e47565b613586565b61ffff16600052610103602052604060002090565b6135e0565b50613626565b5060fe54612b92565b346104405760003660031901126104405760fb546040516001600160a01b039091168152602090f35b634e487b7160e01b600052604160045260246000fd5b6001600160401b0381116110f957604052565b6110d0565b60c081019081106001600160401b038211176110f957604052565b608081019081106001600160401b038211176110f957604052565b604081019081106001600160401b038211176110f957604052565b601f909101601f19168101906001600160401b038211908210176110f957604052565b6040519061010082016001600160401b038111838210176110f957604052565b60405190602082016001600160401b038111838210176110f957604052565b604051906111be82611134565b565b6040519061016082016001600160401b038111838210176110f957604052565b6001600160401b0381116110f957601f01601f191660200190565b929192611207826111e0565b91611215604051938461114f565b829481845281830111610440578281602093846000960137010152565b9080601f83011215610440578160206107c7933591016111fb565b906112606020928281519485920161076e565b0190565b9060018060401b0316600052602052604060002090565b346104405760603660031901126104405761129461042f565b6024356001600160401b03811161044057610822916112eb60206112bf6112f9943690600401611232565b61ffff6112ca610483565b941660005260c982526040600020826040519483868095519384920161076e565b820190815203019020611264565b546040519081529081906020820190565b600052610106602052604060002090565b34610440576020366003190112610440576004356000526101066020526060604060002060ff600182015416906003600282015491015490604051921515835260208301526040820152f35b346104405761137536610499565b939290915030330361142b576113a26113d69261139a6113f1956113a89436916111fb565b9536916111fb565b93612c1c565b6113d16020604051836113c4829551809285808601910161076e565b810103808452018261114f565b613aaa565b60601c61ffff84166000526101016020526040600020610e47565b54156114005761001991613e9a565b60405162461bcd60e51b815260206004820152600360248201526256313560e81b6044820152606490fd5b60405162461bcd60e51b815260206004820152602660248201527f4e6f6e626c6f636b696e674c7a4170703a2063616c6c6572206d7573742062656044820152650204c7a4170760d41b6064820152608490fd5b3461044057604080600319360112610440576024356004356114a0826105f5565b60ff61010054166115c457603554806115a35781925b8315611579576001600160a01b03811691821561153557916114f16108229694926114ec6114e78861152797612b92565b603555565b610e2d565b80548601905583518581526000906000805160206153b783398151915290602090a361151e60fc546105e9565b30903390613bdb565b519081529081906020820190565b855162461bcd60e51b815260206004820152601f60248201527f45524332303a206d696e7420746f20746865207a65726f2061646472657373006044820152606490fd5b845162461bcd60e51b815260206004820152600360248201526256313360e81b6044820152606490fd5b6115be6115b082846145ac565b6115b8613498565b906145bf565b926114b6565b825162461bcd60e51b815260206004820152600360248201526256313160e81b6044820152606490fd5b346104405760203660031901126104405760043561160b816105f5565b60018060a01b031660005260336020526020604060002054604051908152f35b346104405760008060031936011261089557611645612ce7565b606580546001600160a01b0319811690915581906001600160a01b03166000805160206153978339815191528280a380f35b634e487b7160e01b600052600060045260246000fd5b90600182811c921680156116bd575b60208310146116a757565b634e487b7160e01b600052602260045260246000fd5b91607f169161169c565b90600092918054916116d88361168d565b91828252600193848116908160001461173a57506001146116fa575b50505050565b90919394506000526020928360002092846000945b8386106117265750505050010190388080806116f4565b80548587018301529401938590820161170f565b9294505050602093945060ff191683830152151560051b010190388080806116f4565b346104405760203660031901126104405761ffff61177961042f565b166000526098602052610822610dac61179c6040600020604051928380926116c7565b604051918291602083526020830190610791565b346104405760403660031901126104405760206117ec6117ce61042f565b61ffff6117d9610445565b9116600052609983526040600020610de5565b54604051908152f35b34610440576000366003190112610440576065546040516001600160a01b039091168152602090f35b3461044057600036600319011261044057609b546040516001600160a01b039091168152602090f35b346104405760008060031936011261089557604051816037546118698161168d565b8084529060019081811690811561086d575060011461189257610822846108168188038261114f565b60378352602094506000805160206153d78339815191525b8284106118c65750505081610822936108169282010193610806565b80548585018701529285019281016118aa565b346104405760003660031901126104405760ff6118f46133c7565b16604d8111610a0957610636602091600a0a6145df565b346104405760003660031901126104405760206106366134be565b346104405760203660031901126104405761ffff61194261042f565b166000526098602052610dac6119626040600020604051928380926116c7565b805115611980576108168161197a6108229351612aa3565b90612c67565b60405162461bcd60e51b815260206004820152601d60248201527f4c7a4170703a206e6f20747275737465642070617468207265636f72640000006044820152606490fd5b60609060031901126104405760043561ffff8116810361044057906024356119ec816105f5565b906044356107c7816105f5565b3461044057611b3e610909611a0d366119c5565b9391611a2d60018060a01b038060fb54163314908115610a0e5750613437565b611b4c60009561ffff83168752610101602052611a506110018260408a20610e47565b611adc611a68611a638661107487610dd0565b6139df565b611acf60a0820151602083015192604081015191611a8e60e060c08401519301516105e9565b92611a97611172565b82815260208101969096526040860152606085018d9052608085018d905260a085015260c08401526001600160a01b031660e0830152565b6110798361107487610dd0565b866001611aec8661107487610dd0565b0155866002611afe8661107487610dd0565b0155611b1a611b0b611192565b6001600160a01b039092168252565b604080516004602082015291516001600160a01b0316908201529384906060820190565b03601f19810185528461114f565b614637565b3461044057604036600319011261044057600435611b6e816105f5565b60243590336000526034602052611b89816040600020610e47565b5491808310611b9e57610b9d92039033612ef8565b60405162461bcd60e51b815260206004820152602560248201527f45524332303a2064656372656173656420616c6c6f77616e63652062656c6f77604482015264207a65726f60d81b6064820152608490fd5b3461044057611bff36610d3a565b9190611c09612ce7565b604051916020848382860137611c346034858781013060601b8582015203601481018752018561114f565b61ffff821660009081526098825260408120855191959092906001600160401b0383116110f957611c6f83611c69865461168d565b86612a53565b81601f8411600114611cce57509180611cbd94928899946000805160206153778339815191529992611cc3575b50508160011b916000199060031b1c19161790555b604051938493846129a2565b0390a180f35b015190503880611c9c565b9190601f198416611ce486600052602060002090565b9389905b828210611d3a5750509260019285926000805160206153778339815191529a9b96611cbd989610611d21575b505050811b019055611cb1565b015160001960f88460031b161c19169055388080611d14565b80600186978294978701518155019601940190611ce8565b346104405760403660031901126104405761093a600435611d72816105f5565b6024359033612e29565b3461044057602036600319011261044057600435611d99816105f5565b60fb54906001600160a01b039033828416148015611dcf575b611dbb90613437565b6001600160a01b031990921691161760fb55005b5060655482163314611db2565b3461044057600036600319011261044057602061010254604051908152f35b346104405760c036600319011261044057611e1461042f565b6001600160401b0360243581811161044057611e34903690600401611232565b9160643592611e42846105f5565b6084359060a4359384116104405781611f1791611f11611f0b611efd6113d1611eed611e937f92073a89a07a000083eb8b2575fc15e7bb936efe55d00727d6942a796d7211a79b3690600401611232565b95611ec0611ead611ea8611ea860fc546105e9565b6105e9565b6001600160a01b03909e169d8e14613a48565b611ecf611ea8610108546105e9565b33148015611f4d575b8015611f32575b611ee890613a79565b612c1c565b604051928391602083019061124d565b03601f19810183528261114f565b60601c90565b94613f5b565b604080519182526001600160a01b03929092166020820152a2005b50611ee8611f44611ea86065546105e9565b33149050611edf565b50611f5f611ea8611ea860fd546105e9565b3314611ed8565b34610440576000366003190112610440576097546040516001600160a01b039091168152602090f35b34610440576020366003190112610440577f5db758e995a17ec1ad84bdef7e8c3293a0bd6179bcce400dff5d4c3d87db726b6020600435611fcf816105f5565b611fd7612ce7565b609b80546001600160a01b0319166001600160a01b03929092169182179055604051908152a1005b346104405760003660031901126104405760206040516127108152f35b346104405760803660031901126104405761203561042f565b61203d610445565b6064356001600160401b0381116104405761205c903690600401610456565b9092612066612ce7565b6097546001600160a01b031690813b1561044057600080946120bf604051978896879586946332fb62e760e21b865261ffff80921660048701521660248501526044356044850152608060648501526084840191612981565b03925af1801561075c576120cf57005b806120dc610019926110e6565b8061063e565b34610440576040366003190112610440576120fb61042f565b61ffff6024359161210b836105f5565b60fb5461212c90336001600160a01b0391821614908115610a0e5750613437565b16906000918083526101019182602052600161214b8260408720610e47565b01549060fe54918203918211610a095784936001936121759360fe55855260205260408420610e47565b015580f35b61218336610499565b9161ffff869492961660005260c96020526121b781604060002060206040518092878b833787820190815203019020611264565b54918215612263576122528461224b7fc264d91f3adc5588250e1551f547752ca0cfa8f6b530d243b9f9f4cab10ea8e5996000612237876122328d8961222c8f61225e9f8f61220b6122189236908d6111fb565b6020815191012014612af7565b61ffff1660005260c9602052604060002090565b91612ade565b611264565b5561224336868c6111fb565b9236916111fb565b9087614e57565b60405195869586612b4d565b0390a1005b60405162461bcd60e51b815260206004820152602360248201527f4e6f6e626c6f636b696e674c7a4170703a206e6f2073746f726564206d65737360448201526261676560e81b6064820152608490fd5b346104405760403660031901126104405760206117ec6004356122d6816105f5565b602435906122e3826105f5565b6001600160a01b031660009081526034845260409020610e47565b346104405761001961ffff6007612338612317366119c5565b949091610e8a60018060a01b038060fb54163314908115610a0e5750613437565b01612abf565b346104405760603660031901126104405761235761042f565b61235f610445565b6044359161236b612ce7565b82156123d85761225e7f9d5c7c0b934da8fefa9c7760c98383778a12dfbfc0c3b3106518f43fb9508ac09361ffff83166000526099602052806123b2856040600020610de5565b556040519384938460409194939294606082019561ffff80921683521660208201520152565b60405162461bcd60e51b81526020600482015260156024820152744c7a4170703a20696e76616c6964206d696e47617360581b6044820152606490fd5b3461044057606036600319011261044057600435610909602435612438816105f5565b610102928354936000948552610106908160205261246060ff600160408920015416156136eb565b61246b833033612e29565b548552602052604084209061247f816145df565b906040519361248d856110fe565b3385526001600160a01b0316602085015260408401526044356060840152608083015260a0820184905261450d565b346104405760403660031901126104405760206106366124da61042f565b602435906124e7826105f5565b6148ea565b34610440576124fa36610d3a565b9190612504612ce7565b60009161ffff81168352602060988152604084209060018060401b0386116110f95761253a86612534845461168d565b84612a53565b8490601f8711600114612590575094611cbd918186976000805160206153f78339815191529791612585575b508260011b906000198460031b1c1916179055604051938493846129a2565b905085013538612566565b90601f1987166125a584600052602060002090565b9287905b8282106125fa57505091611cbd9391886000805160206153f7833981519152989994106125e0575b5050600182811b019055611cb1565b860135600019600385901b60f8161c1916905538806125d1565b80600185968294968b013581550195019301906125a9565b34610440576000806003193601126108955760fb5461264590336001600160a01b0391821614908115610a0e5750613437565b61010254815261010660205261266560ff600160408420015416156136eb565b610909613767565b346104405760203660031901126104405760043561268a816105f5565b612692612ce7565b6001600160a01b038116156126aa5761001990612d3f565b60405162461bcd60e51b815260206004820152602660248201527f4f776e61626c653a206e6577206f776e657220697320746865207a65726f206160448201526564647265737360d01b6064820152608490fd5b346104405760803660031901126104405761271761042f565b6000612721610445565b9161272d6044356105f5565b609754604051633d7b2f6f60e21b815261ffff92831660048201529390911660248401523060448401526064803590840152829060849082906001600160a01b03165afa801561075c5761082291600091612790575b50604051918291826107b6565b6127ab913d8091833e6127a3818361114f565b810190612950565b38612783565b34610440576080366003190112610440576004356127ce816105f5565b6128376024356127dd816105f5565b6044356127e9816105f5565b606435916127f6836105f5565b6000549461281b60ff8760081c1615809781986128b9575b8115612899575b5061300c565b8561282e600160ff196000541617600055565b6128805761306f565b61283d57005b61284d61ff001960005416600055565b604051600181527f7f26b83ff96e1f2b6a682f133852f6798a09c465da95921460cefb384740249890806020810161225e565b61289461010061ff00196000541617600055565b61306f565b303b159150816128ab575b5038612815565b6001915060ff1614386128a4565b600160ff821610915061280e565b346104405760003660031901126104405760fc546040516001600160a01b039091168152602090f35b3461044057600036600319011261044057602060ff54604051908152f35b81601f82011215610440578051612924816111e0565b92612932604051948561114f565b81845260208284010111610440576107c7916020808501910161076e565b906020828203126104405781516001600160401b038111610440576107c7920161290e565b6040513d6000823e3d90fd5b908060209392818452848401376000828201840152601f01601f1916010190565b60409061ffff6107c795931681528160208201520191612981565b8181106129c8575050565b600081556001016129bd565b90601f82116129e1575050565b6111be9160366000526020600020906020601f840160051c83019310612a0f575b601f0160051c01906129bd565b9091508190612a02565b90601f8211612a26575050565b6111be9160376000526020600020906020601f840160051c83019310612a0f57601f0160051c01906129bd565b9190601f8111612a6257505050565b6111be926000526020600020906020601f840160051c83019310612a0f57601f0160051c01906129bd565b634e487b7160e01b600052601160045260246000fd5b601319810191908211610a0957565b91908203918211610a0957565b80546001600160a01b0319166001600160a01b03909216919091179055565b6020919283604051948593843782019081520301902090565b15612afe57565b60405162461bcd60e51b815260206004820152602160248201527f4e6f6e626c6f636b696e674c7a4170703a20696e76616c6964207061796c6f616044820152601960fa1b6064820152608490fd5b9160609361ffff612b709398979698168452608060208501526080840191612981565b6001600160401b0390951660408201520152565b90601f8201809211610a0957565b91908201809211610a0957565b15612ba657565b60405162461bcd60e51b815260206004820152600e60248201526d736c6963655f6f766572666c6f7760901b6044820152606490fd5b15612be357565b60405162461bcd60e51b8152602060048201526011602482015270736c6963655f6f75744f66426f756e647360781b6044820152606490fd5b612c2a601482511015612bdc565b6040519060148083019101602883015b808310612c5457505060148252601f01601f191660405290565b9091825181526020809101920190612c3a565b612c7b82612c7481612b84565b1015612b9f565b612c888282511015612bdc565b81612ca0575050604051600081526020810160405290565b60405191601f811691821560051b808486010193838501920101905b808410612cd45750508252601f01601f191660405290565b9092835181526020809101930190612cbc565b6065546001600160a01b03163303612cfb57565b606460405162461bcd60e51b815260206004820152602060248201527f4f776e61626c653a2063616c6c6572206973206e6f7420746865206f776e65726044820152fd5b606580546001600160a01b039283166001600160a01b031982168117909255909116600080516020615397833981519152600080a3565b15612d7d57565b60405162461bcd60e51b815260206004820152602360248201527f45524332303a207472616e7366657220746f20746865207a65726f206164647260448201526265737360e81b6064820152608490fd5b15612dd557565b60405162461bcd60e51b815260206004820152602660248201527f45524332303a207472616e7366657220616d6f756e7420657863656564732062604482015265616c616e636560d01b6064820152608490fd5b916001600160a01b038084169290918315612ea557612e8a826000805160206153b783398151915294612ea0941696612e63881515612d76565b612e8484612e7083610e2d565b54612e7d82821015612dce565b0391610e2d565b55610e2d565b8054820190556040519081529081906020820190565b0390a3565b60405162461bcd60e51b815260206004820152602560248201527f45524332303a207472616e736665722066726f6d20746865207a65726f206164604482015264647265737360d81b6064820152608490fd5b6001600160a01b038082169291908315612fbb578216938415612f6b5780612f5a7f8c5be1e5ebec7d5bd14f71427d1e84f3dd0314c0f7b2291e5b200ac8c7c3b92594611074612ea09560018060a01b03166000526034602052604060002090565b556040519081529081906020820190565b60405162461bcd60e51b815260206004820152602260248201527f45524332303a20617070726f766520746f20746865207a65726f206164647265604482015261737360f01b6064820152608490fd5b60405162461bcd60e51b8152602060048201526024808201527f45524332303a20617070726f76652066726f6d20746865207a65726f206164646044820152637265737360e01b6064820152608490fd5b1561301357565b60405162461bcd60e51b815260206004820152602e60248201527f496e697469616c697a61626c653a20636f6e747261637420697320616c72656160448201526d191e481a5b9a5d1a585b1a5e995960921b6064820152608490fd5b906130d360009161308f60ff845460081c1661308a81613292565b613292565b61309833612d3f565b60ff835460081c16906130aa82613292565b609780546001600160a01b0319166001600160a01b039290921691909117905561308a81613292565b6130dc33612d3f565b604051906130e982611134565b600f825260206e13db5b9a58da185a5b8815985d5b1d608a1b818401526040519261311384611134565b600384526227a6ab60e91b8285015261313660ff845460081c1661308a81613292565b8051926001600160401b0384116110f95761315b8461315660365461168d565b6129d4565b82601f851160011461320e575093836131bf946131e1979461319d946111be9b9a9892613203575b50508160011b916000199060031b1c1916176036556132f2565b60fb80546001600160a01b0319166001600160a01b0392909216919091179055565b60fc80546001600160a01b0319166001600160a01b0392909216919091179055565b61010880546001600160a01b0319166001600160a01b03909216919091179055565b015190503880613183565b6036600052600080516020615337833981519152939291601f198616915b82821061327a575050846131e1979461319d946111be9b9a98946131bf9860019510613261575b505050811b016036556132f2565b015160001960f88460031b161c19169055388080613253565b8060018697829497870151815501960194019061322c565b1561329957565b60405162461bcd60e51b815260206004820152602b60248201527f496e697469616c697a61626c653a20636f6e7472616374206973206e6f74206960448201526a6e697469616c697a696e6760a81b6064820152608490fd5b80519091906001600160401b0381116110f9576133198161331460375461168d565b612a19565b602080601f8311600114613355575081929360009261334a575b50508160011b916000199060031b1c191617603755565b015190503880613333565b6037600052601f198316949091906000805160206153d7833981519152926000905b8782106133af575050836001959610613396575b505050811b01603755565b015160001960f88460031b161c1916905538808061338b565b80600185968294968601518155019501930190613377565b60fc5460405163313ce56760e01b815290602090829060049082906001600160a01b03165afa90811561075c576000916133ff575090565b6020813d821161342f575b816134176020938361114f565b8101031261090c57519060ff82168203610895575090565b3d915061340a565b1561343e57565b60405162461bcd60e51b8152602060048201526002602482015261563160f01b6044820152606490fd5b9081602091031261044057516107c781610abf565b6001600160a01b039091168152602081019190915260400190565b60ff546134a36134be565b8101809111610a095790565b90816020910312610440575190565b60fc546040516370a0823160e01b815230600482015290602090829060249082906001600160a01b03165afa90811561075c576000916134fc575090565b6107c7915060203d811161351d575b613515818361114f565b8101906134af565b503d61350b565b1561352b57565b60405162461bcd60e51b8152602060048201526002602482015261563360f01b6044820152606490fd5b1561355c57565b60405162461bcd60e51b8152602060048201526002602482015261563560f01b6044820152606490fd5b60076111be92805183556020810151600184015560408101516002840155606081015160038401556080810151600484015560a0810151600584015560c0810151600684015560e060018060a01b03910151169101612abf565b6107c7916001600160a01b031690613682565b634e487b7160e01b600052603260045260246000fd5b80548210156136215760005260206000200190600090565b6135f3565b6000818152610105908160205260408120541560001461367c5761010480549290600160401b8410156110f957600184018082558410156136215784604094828552602085200155549382526020522055600190565b91505090565b60018101908260005281602052604060002054156000146136e3578054600160401b8110156110f9578060016136bb9201835582613609565b81549060031b9085821b91600019901b19161790555491600052602052604060002055600190565b505050600090565b156136f257565b60405162461bcd60e51b8152602060048201526002602482015261158d60f21b6044820152606490fd5b6000198114610a095760010190565b8054821015613621576000526006602060002091020190600090565b6005111561375157565b634e487b7160e01b600052602160045260246000fd5b600090816101028054935b61377b8561130a565b548310156137bb576137af6137b5916137a960026137a18761379c8b61130a565b61372b565b5001546145df565b90612b92565b9261371c565b91613772565b915092506137c76134be565b811115613964576137e3906137dd9392936134be565b90612ab2565b60009283925b6101045484108061395b575b1561392b5761380d61380685613981565b61ffff1690565b926138278461ffff16600052610103602052604060002090565b956000905b8754821080613922575b15613908578361384c611ea8611ea8858c61399a565b9387600261385d8761107484610dd0565b015480156138f957926138a2611074846138e89461389c8b6138866138ed9a6138f39c9a61396f565b9485936005613896869a5461130a565b01610de5565b55612ab2565b966138e289546138b06111b1565b938452602090818501526105986040519485928301919091604060206060830194600084528051828501520151910152565b8a614637565b61371c565b9161371c565b9061382c565b5050935050906138f39061371c565b93959196505061391991935061371c565b929093916137e9565b50821515613836565b6111be93506001925061394d91946002613945835461130a565b01555461130a565b01805460ff19166001179055565b508215156137f5565b5090506111be6149d6565b908082101561397c575090565b905090565b6101048054821015613621576000526020600020015490565b906139a491613609565b90549060031b1c90565b156139b557565b60405162461bcd60e51b81526020600482015260026024820152612b1b60f11b6044820152606490fd5b906111be613a3860076139f0611172565b948054865260018101546020870152600281015460408701526003810154606087015260048101546080870152600581015460a0870152600681015460c087015201546105e9565b6001600160a01b031660e0840152565b15613a4f57565b60405162461bcd60e51b81526020600482015260026024820152610ac760f31b6044820152606490fd5b15613a8057565b60405162461bcd60e51b8152602060048201526002602482015261563960f01b6044820152606490fd5b80516020909101516001600160601b0319808216939290919060148110613ad057505050565b60140360031b82901b16169150565b9193613b7d7fe183f33de2837795525b4792ca4cd60535bd77c53b7e7030060bfcf5734d6b0c95613b8b939561ffff815160208301209616958660005260c9602052613b43836112eb60208b6040600020826040519483868095519384920161076e565b55613b60604051978897885260a0602089015260a0880190610791565b6001600160401b0390921660408701528582036060870152610791565b908382036080850152610791565b0390a1565b9092916000809160405195613ba4876110fe565b6096875282602088019560a036883760208451940192f1903d9060968211613bd2575b6000908286523e9190565b60969150613bc7565b6040516323b872dd60e01b60208201526001600160a01b03928316602482015292909116604483015260648083019390935291815260a08101918183106001600160401b038411176110f9576111be926040525b604051613cac916001600160a01b0316613c4882611134565b6000806020958685527f5361666545524332303a206c6f772d6c6576656c2063616c6c206661696c656487860152868151910182855af13d15613d34573d91613c90836111e0565b92613c9e604051948561114f565b83523d60008785013e613d38565b805190828215928315613d1c575b50505015613cc55750565b6084906040519062461bcd60e51b82526004820152602a60248201527f5361666545524332303a204552433230206f7065726174696f6e20646964206e6044820152691bdd081cdd58d8d9595960b21b6064820152fd5b613d2c9350820181019101613468565b388281613cba565b6060915b91929015613d9a5750815115613d4c575090565b3b15613d555790565b60405162461bcd60e51b815260206004820152601d60248201527f416464726573733a2063616c6c20746f206e6f6e2d636f6e74726163740000006044820152606490fd5b825190915015613dad5750805190602001fd5b60405162461bcd60e51b8152908190613dc990600483016107b6565b0390fd5b51906111be826105f5565b9190604083820312610440578251602084015190936001600160401b03919082821161044057016101608184031261044057613e126111c0565b92613e1c82613dcd565b84526020820151602085015260408201516040850152606082015160608501526080820151608085015260a082015160a085015260c082015160c085015260e082015160e085015261010080830151908501526101208083015190850152610140928383015190811161044057613e93920161290e565b9082015290565b908051906020818181019381010312610440578151600581101561044057613ec181613747565b60028103613ee757506111be9291602082613edf9351010190613dd8565b919050613fb9565b6001919250613ef581613747565b14613efe575050565b80805181010360a0811261044057608090601f190112610440576111be9160a060405192613f2b84611119565b6040810151613f39816105f5565b8452606081015160208501526080810151604085015201516060830152614d03565b91908051906020818181019381010312610440578151600581101561044057613f8381613747565b60028103613fa957506111be9391602082613fa19351010190613dd8565b919050614279565b90925060019150613ef581613747565b9060008051602061535783398151915291613fd48282614fd6565b613b8b6060830180518061425f575b5060408401938451614015600361400c613ffc88610dd0565b61400686516105e9565b90610e47565b01918254612b92565b905561402a61402482516105e9565b856148ea565b6080820161403981518361396f565b80614223575b5060e08301918251806141eb575b506020840151600561406b6140618a610dd0565b61400688516105e9565b0155600161408561407b89610dd0565b61400687516105e9565b01541580156141de575b6141d2575b60a0840180518891901561418a57916140e0916140f393516140ee6140b989516105e9565b936140c2611192565b90815260405195869160208301600381529051602082015260400190565b03601f19810186528561114f565b614ed5565b61410c614105611a6361407b89610dd0565b93516105e9565b965193519051606084015190608085015192602060408701519551960151966040519a8b9a8b969293610140989460009a96929c9b979361ffff6101608b019e168a5260018060a01b031660208a015260408901526060880152608087015260a086015260c085015260e08401526101008301526101208201520152565b50506105986141cd916141c76141a087516105e9565b916141a9611192565b90815260405193849160208301600381529051602082015260400190565b88614637565b6140f3565b50610100830151614094565b506101005460ff1661408f565b614206600261400c6141fc8b610dd0565b61400689516105e9565b905561421d614218845160ff54612b92565b60ff55565b3861404d565b614258919260026142366140618a610dd0565b01614242838254612ab2565b90556142536142188360ff54612ab2565b612ab2565b903861403f565b6142739061426d86516105e9565b85614472565b38613fe3565b613b8b600080516020615357833981519152936142968484614fd6565b60608401805180614458575b50604085019485516142bb600361400c613ffc89610dd0565b90556142d06142ca82516105e9565b866148ea565b608082016142df81518361396f565b8061443e575b5060e0830191825180614415575b50602084015160056143076140618b610dd0565b0155600161431761407b8a610dd0565b0154158015614408575b6143fc575b60a084018051899190156143db57916140e09161434b93516140ee6140b989516105e9565b61435d614105611a6361407b8a610dd0565b975193519051606084015190608085015192602060408701519551960151966040519b8c9b8c979491926101409996939c9b9a9794919c61ffff6101608b019e168a5260018060a01b031660208a015260408901526060880152608087015260a086015260c085015260e08401526101008301526101208201520152565b50506105986143f7916143f16141a087516105e9565b89614637565b61434b565b50610100830151614326565b506101005460ff16614321565b614426600261400c6141fc8c610dd0565b9055614438614218845160ff54612b92565b386142f3565b614451919260026142366140618b610dd0565b90386142e5565b61446c9061446687516105e9565b86614472565b386142a2565b909161ffff8216600052610101602052806002614493856040600020610e47565b0154106144e25760026144cc846110748560046144b96111be996110746142189a610dd0565b016144c5878254612b92565b9055610dd0565b016144d8828254612ab2565b905560ff54612ab2565b60405162461bcd60e51b81526020600482015260036024820152622b189960e91b6044820152606490fd5b8054600160401b8110156110f95761452a9160018201815561372b565b61459057600560a06111be9361455b600180841b0361454c8184511687612abf565b60208301511660018601612abf565b6040810151600285015560608101516003850155608081015160048501550151151591019060ff801983541691151516179055565b611677565b9061271091828102928184041490151715610a0957565b81810292918115918404141715610a0957565b81156145c9570490565b634e487b7160e01b600052601260045260246000fd5b6035548015614602576145fd6107c7926145f7613498565b906145ac565b6145bf565b5090565b1561460d57565b60405162461bcd60e51b81526020600482015260026024820152612b1960f11b6044820152606490fd5b9091611b3e9060009261ffff8116845261010160205261469760409561466a61466282898920610e47565b541515614606565b86516001600160601b0319606092831b811660208301523090921b90911660348201529384906048820190565b6146ce6146a8611ea86097546105e9565b92866146b261483b565b81518094819263040a7bb160e41b8352853089600486016147a0565b0381875afa91821561075c57869261475a575b5081471061473d576146f161483b565b96843b156147395761471b90519788968795869462c5803160e81b865230923092600488016147e3565b03925af1801561075c5761472c5750565b806120dc6111be926110e6565b8680fd5b865162fae2d560e21b815260048101839052476024820152604490fd5b61477b919250873d8911614783575b614773818361114f565b81019061478a565b5090386146e1565b503d614769565b9190826040910312610440576020825192015190565b926107c7949261ffff6147ce9316855260018060a01b0316602085015260a0604085015260a0840190610791565b91600060608201526080818403910152610791565b926148086107c797959361ffff6148169416865260c0602087015260c0860190610791565b908482036040860152610791565b6001600160a01b0391821660608401529316608082015280830360a090910152610791565b604051600160f01b6020820152620f42406022808301919091528152606081016001600160401b038111828210176110f95760405290565b9060ff61010054166148e3576148bd60029161ffff84166000526101016020526110746127106148b660016148ac856040600020610e47565b01546145f7613498565b0494610dd0565b015490818111156148e3576148d06134be565b918103908111610a09576107c79161396f565b5050600090565b9061491860029161ffff84166000526101016020526110746127106148b660016148ac856040600020610e47565b01549060ff610100541660001461492d575090565b80821161493b575050600090565b8103908111610a095790565b1561494e57565b60405162461bcd60e51b8152602060048201526003602482015262158c4d60ea1b6044820152606490fd5b6001600160401b0381116110f95760051b60200190565b9061499a82614979565b6149a7604051918261114f565b82815280926149b8601f1991614979565b0190602036910137565b80518210156136215760209160051b010190565b61010280546149e48161130a565b54906149f1821515614947565b6149fa82614990565b600091825b848110614bab575050815b838110614a845750505081614a786001614a6d614a7e947fc682eb885c208b8aaaa811c05902e24a4f14b388960311623a8f31404f655129614a656111be985492604051918291858360209093929193604081019481520152565b0390a161130a565b01805460ff19169055565b5461371c565b61010255565b614a928161379c875461130a565b5090614ab0614aa182856149c2565b51614aaa6134be565b9061396f565b91600480820154808510614b0d575b5050600281614b00614b0895614ae260056138e89601600160ff19825416179055565b614aed60fc546105e9565b614afa60018501546105e9565b90614cd7565b015430614bd6565b614a0a565b806145fd614b1e87614b2394612ab2565b614595565b600383015410614b335780614abf565b60058201805460ff19169055614b7093506002614b5083546105e9565b9201546040518095819263a9059cbb60e01b83526020958695840161347d565b038188305af192831561075c57614b0893614b8d575b505061371c565b81614ba392903d1061075557610746818361114f565b503880614b86565b80614bc160026137a1614bd19461379c8761130a565b614bcb82866149c2565b5261371c565b6149ff565b6001600160a01b038116908115614c8857614bf081610e2d565b54838110614c3857836000805160206153b783398151915292614c1a600096612ea0940391610e2d565b55614c288160355403603555565b6040519081529081906020820190565b60405162461bcd60e51b815260206004820152602260248201527f45524332303a206275726e20616d6f756e7420657863656564732062616c616e604482015261636560f01b6064820152608490fd5b60405162461bcd60e51b815260206004820152602160248201527f45524332303a206275726e2066726f6d20746865207a65726f206164647265736044820152607360f81b6064820152608490fd5b614cfe6111be939261059860405194859263a9059cbb60e01b60208501526024840161347d565b613c2f565b907f046368a4ca42efbdd968b9025440eb5590bdcda7da09f4fef8ac4ef2f44a5ed060018060a01b038083511692614d5161466261ffff871695866000526101016020526040600020610e47565b612ea06040820195865180614e3d575b50614e0a60208401938451614d866002614d7d613ffc87610dd0565b01918254612ab2565b9055614d98614218865160ff54612ab2565b614de2614dd5614dcb60608401956003614db2885161130a565b01614dbd815461371c565b90556004613896885161130a565b61400684516105e9565b805460ff19166001179055565b6002614dee845161130a565b01546003614dfc855161130a565b015414614e30575b516105e9565b925196519051906040519485941697846040919493926060820195825260208201520152565b614e386149d6565b614e04565b614e5190614e4b85516105e9565b83614472565b38614d61565b91906113d66113a8614e6892612c1c565b5415611400576111be91613e9a565b6107c7939261ffff60609316825260018060a01b031660208201528160408201520190610791565b919361ffff60a0946107c79796600180881b03809516865260208601521660408401521660608201528160808201520190610791565b929192614ee6611ea860fd546105e9565b90604051630dc6346160e01b815260208180614f07888a8960048501614e77565b0381865afa90811561075c57600091614f54575b50614f2a611ea860fc546105e9565b833b156104405761471b60009660405198899788968795633920455b60e11b875260048701614e9f565b614f6c915060203d811161351d57613515818361114f565b38614f1b565b15614f7957565b60405162461bcd60e51b81526020600482015260036024820152622b189b60e91b6044820152606490fd5b15614fab57565b60405162461bcd60e51b815260206004820152600360248201526256313760e81b6044820152606490fd5b614dd59061514f6111be9361400661514861500d6150038661ffff16600052610107602052604060002090565b61400685516105e9565b9461503a61503461502d6101208701988951600052602052604060002090565b5460ff1690565b15614f72565b6151336150f68261504b87516105e9565b895160405160609290921b6001600160601b03191660208301908152603483019190915260f09290921b6001600160f01b031916605482015260368152601f19919061509860568261114f565b519020906150e760405191826150db602082019586603c917b0ca2ba3432b932bab69029b4b3b732b21026b2b9b9b0b3b29d05199960211b8252601c8201520190565b0390810183528261114f565b5190206101408701519061515f565b615122611ea8600761511461510a87610dd0565b6140068b516105e9565b01546001600160a01b031690565b6001600160a01b0390911614614fa4565b61ffff16600052610107602052604060002090565b91516105e9565b9051600052602052604060002090565b6107c79161516c9161528a565b91909161517881613747565b806151805750565b61518981613747565b600181036151d15760405162461bcd60e51b815260206004820152601860248201527745434453413a20696e76616c6964207369676e617475726560401b6044820152606490fd5b6151da81613747565b600281036152275760405162461bcd60e51b815260206004820152601f60248201527f45434453413a20696e76616c6964207369676e6174757265206c656e677468006044820152606490fd5b80615233600392613747565b1461523a57565b60405162461bcd60e51b815260206004820152602260248201527f45434453413a20696e76616c6964207369676e6174757265202773272076616c604482015261756560f01b6064820152608490fd5b9060418151146000146152b4576104fc916020820151906060604084015193015160001a906152be565b5050600090600290565b9291906fa2a8918ca85bafe22016d0b997e4df60600160ff1b03831161532a5791608094939160ff602094604051948552168484015260408301526060820152600093849182805260015afa1561075c5781516001600160a01b03811615615324579190565b50600190565b5050505060009060039056fe4a11f94e20a93c79f6ec743a1954ec4fc2c08429ae2122118bf234b2185c81b808bc8eff67f79e18165507d64024f5ca5e90a2593c7a45cb5caf7f9d843e404c8c0400cfe2d1199b1a725c78960bcc2a344d869b80590d0f2bd005db15a572ce8be0079c531659141344cd1fd0a4f28419497f9722a3daafe3b4186f6b6457e0ddf252ad1be2c89b69c2b068fc378daa952ba7f163c4a11628f55a4df523b3ef42a7b7dd785cd69714a189dffb3fd7d7174edc9ece837694ce50f7078f7c31aefa41487ad5d6728f0b19276fa1eddc16558578f5109fc39d2dc33c3230470daba26469706673582212207dee9b2124e11db750c6581c9b4dfdab6f99c3b35f2c4163c7e159d5740d505864736f6c63430008130033",
  "linkReferences": {},
  "deployedLinkReferences": {}
}