{
  "_format": "hh-sol-artifact-1",
  "contractName": "HopStrategy",
  "sourceName": "contracts/strategies/HopStrategy.sol",
  "abi": [
    {
      "inputs": [
        {
          "internalType": "uint256",
          "name": "messageType",
          "type": "uint256"
        }
      ],
      "name": "IncorrectMessageType",
      "type": "error"
    },
    {
      "inputs": [
        {
          "internalType": "uint256",
          "name": "amount",
          "type": "uint256"
        },
        {
          "internalType": "uint256",
          "name": "balance",
          "type": "uint256"
        }
      ],
      "name": "InsufficientFunds",
      "type": "error"
    },
    {
      "inputs": [],
      "name": "T",
      "type": "error"
    },
    {
      "anonymous": false,
      "inputs": [
        {
          "indexed": false,
          "internalType": "uint256",
          "name": "debtOutstanding",
          "type": "uint256"
        }
      ],
      "name": "AdjustedPosition",
      "type": "event"
    },
    {
      "anonymous": false,
      "inputs": [
        {
          "indexed": false,
          "internalType": "uint8",
          "name": "version",
          "type": "uint8"
        }
      ],
      "name": "Initialized",
      "type": "event"
    },
    {
      "anonymous": false,
      "inputs": [
        {
          "indexed": false,
          "internalType": "uint16",
          "name": "_srcChainId",
          "type": "uint16"
        },
        {
          "indexed": false,
          "internalType": "bytes",
          "name": "_srcAddress",
          "type": "bytes"
        },
        {
          "indexed": false,
          "internalType": "uint64",
          "name": "_nonce",
          "type": "uint64"
        },
        {
          "indexed": false,
          "internalType": "bytes",
          "name": "_payload",
          "type": "bytes"
        },
        {
          "indexed": false,
          "internalType": "bytes",
          "name": "_reason",
          "type": "bytes"
        }
      ],
      "name": "MessageFailed",
      "type": "event"
    },
    {
      "anonymous": false,
      "inputs": [
        {
          "indexed": true,
          "internalType": "address",
          "name": "previousOwner",
          "type": "address"
        },
        {
          "indexed": true,
          "internalType": "address",
          "name": "newOwner",
          "type": "address"
        }
      ],
      "name": "OwnershipTransferred",
      "type": "event"
    },
    {
      "anonymous": false,
      "inputs": [
        {
          "indexed": false,
          "internalType": "uint16",
          "name": "_srcChainId",
          "type": "uint16"
        },
        {
          "indexed": false,
          "internalType": "bytes",
          "name": "_srcAddress",
          "type": "bytes"
        },
        {
          "indexed": false,
          "internalType": "uint64",
          "name": "_nonce",
          "type": "uint64"
        },
        {
          "indexed": false,
          "internalType": "bytes32",
          "name": "_payloadHash",
          "type": "bytes32"
        }
      ],
      "name": "RetryMessageSuccess",
      "type": "event"
    },
    {
      "anonymous": false,
      "inputs": [
        {
          "indexed": false,
          "internalType": "uint16",
          "name": "_dstChainId",
          "type": "uint16"
        },
        {
          "indexed": false,
          "internalType": "uint16",
          "name": "_type",
          "type": "uint16"
        },
        {
          "indexed": false,
          "internalType": "uint256",
          "name": "_minDstGas",
          "type": "uint256"
        }
      ],
      "name": "SetMinDstGas",
      "type": "event"
    },
    {
      "anonymous": false,
      "inputs": [
        {
          "indexed": false,
          "internalType": "address",
          "name": "precrime",
          "type": "address"
        }
      ],
      "name": "SetPrecrime",
      "type": "event"
    },
    {
      "anonymous": false,
      "inputs": [
        {
          "indexed": false,
          "internalType": "uint16",
          "name": "_remoteChainId",
          "type": "uint16"
        },
        {
          "indexed": false,
          "internalType": "bytes",
          "name": "_path",
          "type": "bytes"
        }
      ],
      "name": "SetTrustedRemote",
      "type": "event"
    },
    {
      "anonymous": false,
      "inputs": [
        {
          "indexed": false,
          "internalType": "uint16",
          "name": "_remoteChainId",
          "type": "uint16"
        },
        {
          "indexed": false,
          "internalType": "bytes",
          "name": "_remoteAddress",
          "type": "bytes"
        }
      ],
      "name": "SetTrustedRemoteAddress",
      "type": "event"
    },
    {
      "anonymous": false,
      "inputs": [
        {
          "indexed": true,
          "internalType": "address",
          "name": "token",
          "type": "address"
        },
        {
          "indexed": false,
          "internalType": "uint256",
          "name": "amount",
          "type": "uint256"
        },
        {
          "indexed": false,
          "internalType": "address",
          "name": "sender",
          "type": "address"
        }
      ],
      "name": "SgReceived",
      "type": "event"
    },
    {
      "anonymous": false,
      "inputs": [
        {
          "indexed": false,
          "internalType": "address",
          "name": "newStrategy",
          "type": "address"
        }
      ],
      "name": "StrategyMigrated",
      "type": "event"
    },
    {
      "anonymous": false,
      "inputs": [
        {
          "indexed": false,
          "internalType": "uint256",
          "name": "profit",
          "type": "uint256"
        },
        {
          "indexed": false,
          "internalType": "uint256",
          "name": "loss",
          "type": "uint256"
        },
        {
          "indexed": false,
          "internalType": "uint256",
          "name": "debtPayment",
          "type": "uint256"
        },
        {
          "indexed": false,
          "internalType": "uint256",
          "name": "giveToStrategy",
          "type": "uint256"
        },
        {
          "indexed": false,
          "internalType": "uint256",
          "name": "requestFromStrategy",
          "type": "uint256"
        },
        {
          "indexed": false,
          "internalType": "uint256",
          "name": "creditAvailable",
          "type": "uint256"
        },
        {
          "indexed": false,
          "internalType": "uint256",
          "name": "totalAssets",
          "type": "uint256"
        }
      ],
      "name": "StrategyReported",
      "type": "event"
    },
    {
      "inputs": [],
      "name": "DEFAULT_PAYLOAD_SIZE_LIMIT",
      "outputs": [
        {
          "internalType": "uint256",
          "name": "",
          "type": "uint256"
        }
      ],
      "stateMutability": "view",
      "type": "function"
    },
    {
      "inputs": [],
      "name": "DEFAULT_SLIPPAGE",
      "outputs": [
        {
          "internalType": "uint256",
          "name": "",
          "type": "uint256"
        }
      ],
      "stateMutability": "view",
      "type": "function"
    },
    {
      "inputs": [
        {
          "internalType": "uint256",
          "name": "_debtOutstanding",
          "type": "uint256"
        }
      ],
      "name": "adjustPosition",
      "outputs": [],
      "stateMutability": "nonpayable",
      "type": "function"
    },
    {
      "inputs": [],
      "name": "balanceOfWant",
      "outputs": [
        {
          "internalType": "uint256",
          "name": "",
          "type": "uint256"
        }
      ],
      "stateMutability": "view",
      "type": "function"
    },
    {
      "inputs": [
        {
          "internalType": "uint256",
          "name": "epoch",
          "type": "uint256"
        }
      ],
      "name": "callMe",
      "outputs": [],
      "stateMutability": "nonpayable",
      "type": "function"
    },
    {
      "inputs": [],
      "name": "clearWant",
      "outputs": [],
      "stateMutability": "nonpayable",
      "type": "function"
    },
    {
      "inputs": [],
      "name": "currentChainId",
      "outputs": [
        {
          "internalType": "uint16",
          "name": "",
          "type": "uint16"
        }
      ],
      "stateMutability": "view",
      "type": "function"
    },
    {
      "inputs": [],
      "name": "emergencyExit",
      "outputs": [
        {
          "internalType": "bool",
          "name": "",
          "type": "bool"
        }
      ],
      "stateMutability": "view",
      "type": "function"
    },
    {
      "inputs": [],
      "name": "estimatedTotalAssets",
      "outputs": [
        {
          "internalType": "uint256",
          "name": "",
          "type": "uint256"
        }
      ],
      "stateMutability": "view",
      "type": "function"
    },
    {
      "inputs": [
        {
          "internalType": "uint16",
          "name": "",
          "type": "uint16"
        },
        {
          "internalType": "bytes",
          "name": "",
          "type": "bytes"
        },
        {
          "internalType": "uint64",
          "name": "",
          "type": "uint64"
        }
      ],
      "name": "failedMessages",
      "outputs": [
        {
          "internalType": "bytes32",
          "name": "",
          "type": "bytes32"
        }
      ],
      "stateMutability": "view",
      "type": "function"
    },
    {
      "inputs": [
        {
          "internalType": "uint16",
          "name": "_srcChainId",
          "type": "uint16"
        },
        {
          "internalType": "bytes",
          "name": "_srcAddress",
          "type": "bytes"
        }
      ],
      "name": "forceResumeReceive",
      "outputs": [],
      "stateMutability": "nonpayable",
      "type": "function"
    },
    {
      "inputs": [
        {
          "internalType": "uint16",
          "name": "_version",
          "type": "uint16"
        },
        {
          "internalType": "uint16",
          "name": "_chainId",
          "type": "uint16"
        },
        {
          "internalType": "address",
          "name": "",
          "type": "address"
        },
        {
          "internalType": "uint256",
          "name": "_configType",
          "type": "uint256"
        }
      ],
      "name": "getConfig",
      "outputs": [
        {
          "internalType": "bytes",
          "name": "",
          "type": "bytes"
        }
      ],
      "stateMutability": "view",
      "type": "function"
    },
    {
      "inputs": [
        {
          "internalType": "bytes32",
          "name": "_messageHash",
          "type": "bytes32"
        }
      ],
      "name": "getEthSignedMessageHash",
      "outputs": [
        {
          "internalType": "bytes32",
          "name": "",
          "type": "bytes32"
        }
      ],
      "stateMutability": "pure",
      "type": "function"
    },
    {
      "inputs": [
        {
          "internalType": "uint16",
          "name": "_remoteChainId",
          "type": "uint16"
        }
      ],
      "name": "getTrustedRemoteAddress",
      "outputs": [
        {
          "internalType": "bytes",
          "name": "",
          "type": "bytes"
        }
      ],
      "stateMutability": "view",
      "type": "function"
    },
    {
      "inputs": [
        {
          "internalType": "uint256",
          "name": "_totalDebt",
          "type": "uint256"
        },
        {
          "internalType": "uint256",
          "name": "_debtOutstanding",
          "type": "uint256"
        },
        {
          "internalType": "uint256",
          "name": "_creditAvailable",
          "type": "uint256"
        },
        {
          "internalType": "uint256",
          "name": "_debtRatio",
          "type": "uint256"
        },
        {
          "internalType": "bytes",
          "name": "_signature",
          "type": "bytes"
        }
      ],
      "name": "harvest",
      "outputs": [],
      "stateMutability": "nonpayable",
      "type": "function"
    },
    {
      "inputs": [
        {
          "internalType": "address",
          "name": "_lzEndpoint",
          "type": "address"
        },
        {
          "internalType": "address",
          "name": "_strategist",
          "type": "address"
        },
        {
          "internalType": "contract IERC20",
          "name": "_want",
          "type": "address"
        },
        {
          "internalType": "address",
          "name": "_vault",
          "type": "address"
        },
        {
          "internalType": "uint16",
          "name": "_vaultChainId",
          "type": "uint16"
        },
        {
          "internalType": "uint16",
          "name": "_currentChainId",
          "type": "uint16"
        },
        {
          "internalType": "address",
          "name": "_sgBridge",
          "type": "address"
        },
        {
          "internalType": "address",
          "name": "_router",
          "type": "address"
        }
      ],
      "name": "initialize",
      "outputs": [],
      "stateMutability": "nonpayable",
      "type": "function"
    },
    {
      "inputs": [
        {
          "internalType": "uint16",
          "name": "_srcChainId",
          "type": "uint16"
        },
        {
          "internalType": "bytes",
          "name": "_srcAddress",
          "type": "bytes"
        }
      ],
      "name": "isTrustedRemote",
      "outputs": [
        {
          "internalType": "bool",
          "name": "",
          "type": "bool"
        }
      ],
      "stateMutability": "view",
      "type": "function"
    },
    {
      "inputs": [],
      "name": "lzEndpoint",
      "outputs": [
        {
          "internalType": "contract ILayerZeroEndpointUpgradeable",
          "name": "",
          "type": "address"
        }
      ],
      "stateMutability": "view",
      "type": "function"
    },
    {
      "inputs": [
        {
          "internalType": "uint16",
          "name": "_srcChainId",
          "type": "uint16"
        },
        {
          "internalType": "bytes",
          "name": "_srcAddress",
          "type": "bytes"
        },
        {
          "internalType": "uint64",
          "name": "_nonce",
          "type": "uint64"
        },
        {
          "internalType": "bytes",
          "name": "_payload",
          "type": "bytes"
        }
      ],
      "name": "lzReceive",
      "outputs": [],
      "stateMutability": "nonpayable",
      "type": "function"
    },
    {
      "inputs": [
        {
          "internalType": "uint16",
          "name": "",
          "type": "uint16"
        },
        {
          "internalType": "uint16",
          "name": "",
          "type": "uint16"
        }
      ],
      "name": "minDstGasLookup",
      "outputs": [
        {
          "internalType": "uint256",
          "name": "",
          "type": "uint256"
        }
      ],
      "stateMutability": "view",
      "type": "function"
    },
    {
      "inputs": [],
      "name": "name",
      "outputs": [
        {
          "internalType": "string",
          "name": "",
          "type": "string"
        }
      ],
      "stateMutability": "pure",
      "type": "function"
    },
    {
      "inputs": [
        {
          "internalType": "uint16",
          "name": "_srcChainId",
          "type": "uint16"
        },
        {
          "internalType": "bytes",
          "name": "_srcAddress",
          "type": "bytes"
        },
        {
          "internalType": "uint64",
          "name": "_nonce",
          "type": "uint64"
        },
        {
          "internalType": "bytes",
          "name": "_payload",
          "type": "bytes"
        }
      ],
      "name": "nonblockingLzReceive",
      "outputs": [],
      "stateMutability": "nonpayable",
      "type": "function"
    },
    {
      "inputs": [],
      "name": "owner",
      "outputs": [
        {
          "internalType": "address",
          "name": "",
          "type": "address"
        }
      ],
      "stateMutability": "view",
      "type": "function"
    },
    {
      "inputs": [
        {
          "internalType": "uint16",
          "name": "",
          "type": "uint16"
        }
      ],
      "name": "payloadSizeLimitLookup",
      "outputs": [
        {
          "internalType": "uint256",
          "name": "",
          "type": "uint256"
        }
      ],
      "stateMutability": "view",
      "type": "function"
    },
    {
      "inputs": [],
      "name": "precrime",
      "outputs": [
        {
          "internalType": "address",
          "name": "",
          "type": "address"
        }
      ],
      "stateMutability": "view",
      "type": "function"
    },
    {
      "inputs": [],
      "name": "renounceOwnership",
      "outputs": [],
      "stateMutability": "nonpayable",
      "type": "function"
    },
    {
      "inputs": [
        {
          "internalType": "uint16",
          "name": "_srcChainId",
          "type": "uint16"
        },
        {
          "internalType": "bytes",
          "name": "_srcAddress",
          "type": "bytes"
        },
        {
          "internalType": "uint64",
          "name": "_nonce",
          "type": "uint64"
        },
        {
          "internalType": "bytes",
          "name": "_payload",
          "type": "bytes"
        }
      ],
      "name": "retryMessage",
      "outputs": [],
      "stateMutability": "payable",
      "type": "function"
    },
    {
      "inputs": [],
      "name": "revokeFunds",
      "outputs": [],
      "stateMutability": "nonpayable",
      "type": "function"
    },
    {
      "inputs": [
        {
          "internalType": "uint16",
          "name": "_version",
          "type": "uint16"
        },
        {
          "internalType": "uint16",
          "name": "_chainId",
          "type": "uint16"
        },
        {
          "internalType": "uint256",
          "name": "_configType",
          "type": "uint256"
        },
        {
          "internalType": "bytes",
          "name": "_config",
          "type": "bytes"
        }
      ],
      "name": "setConfig",
      "outputs": [],
      "stateMutability": "nonpayable",
      "type": "function"
    },
    {
      "inputs": [
        {
          "internalType": "bool",
          "name": "_emergencyExit",
          "type": "bool"
        }
      ],
      "name": "setEmergencyExit",
      "outputs": [],
      "stateMutability": "nonpayable",
      "type": "function"
    },
    {
      "inputs": [
        {
          "internalType": "uint16",
          "name": "_dstChainId",
          "type": "uint16"
        },
        {
          "internalType": "uint16",
          "name": "_packetType",
          "type": "uint16"
        },
        {
          "internalType": "uint256",
          "name": "_minGas",
          "type": "uint256"
        }
      ],
      "name": "setMinDstGas",
      "outputs": [],
      "stateMutability": "nonpayable",
      "type": "function"
    },
    {
      "inputs": [
        {
          "internalType": "uint16",
          "name": "_dstChainId",
          "type": "uint16"
        },
        {
          "internalType": "uint256",
          "name": "_size",
          "type": "uint256"
        }
      ],
      "name": "setPayloadSizeLimit",
      "outputs": [],
      "stateMutability": "nonpayable",
      "type": "function"
    },
    {
      "inputs": [
        {
          "internalType": "address",
          "name": "_precrime",
          "type": "address"
        }
      ],
      "name": "setPrecrime",
      "outputs": [],
      "stateMutability": "nonpayable",
      "type": "function"
    },
    {
      "inputs": [
        {
          "internalType": "uint16",
          "name": "_version",
          "type": "uint16"
        }
      ],
      "name": "setReceiveVersion",
      "outputs": [],
      "stateMutability": "nonpayable",
      "type": "function"
    },
    {
      "inputs": [
        {
          "internalType": "uint16",
          "name": "_version",
          "type": "uint16"
        }
      ],
      "name": "setSendVersion",
      "outputs": [],
      "stateMutability": "nonpayable",
      "type": "function"
    },
    {
      "inputs": [
        {
          "internalType": "uint256",
          "name": "_slippage",
          "type": "uint256"
        }
      ],
      "name": "setSlippage",
      "outputs": [],
      "stateMutability": "nonpayable",
      "type": "function"
    },
    {
      "inputs": [
        {
          "internalType": "address",
          "name": "_strategist",
          "type": "address"
        }
      ],
      "name": "setStrategist",
      "outputs": [],
      "stateMutability": "nonpayable",
      "type": "function"
    },
    {
      "inputs": [
        {
          "internalType": "uint16",
          "name": "_srcChainId",
          "type": "uint16"
        },
        {
          "internalType": "bytes",
          "name": "_path",
          "type": "bytes"
        }
      ],
      "name": "setTrustedRemote",
      "outputs": [],
      "stateMutability": "nonpayable",
      "type": "function"
    },
    {
      "inputs": [
        {
          "internalType": "uint16",
          "name": "_remoteChainId",
          "type": "uint16"
        },
        {
          "internalType": "bytes",
          "name": "_remoteAddress",
          "type": "bytes"
        }
      ],
      "name": "setTrustedRemoteAddress",
      "outputs": [],
      "stateMutability": "nonpayable",
      "type": "function"
    },
    {
      "inputs": [],
      "name": "sgBridge",
      "outputs": [
        {
          "internalType": "contract ISgBridge",
          "name": "",
          "type": "address"
        }
      ],
      "stateMutability": "view",
      "type": "function"
    },
    {
      "inputs": [
        {
          "internalType": "uint16",
          "name": "",
          "type": "uint16"
        },
        {
          "internalType": "bytes",
          "name": "_srcAddress",
          "type": "bytes"
        },
        {
          "internalType": "uint256",
          "name": "",
          "type": "uint256"
        },
        {
          "internalType": "address",
          "name": "_token",
          "type": "address"
        },
        {
          "internalType": "uint256",
          "name": "_amountLD",
          "type": "uint256"
        },
        {
          "internalType": "bytes",
          "name": "",
          "type": "bytes"
        }
      ],
      "name": "sgReceive",
      "outputs": [],
      "stateMutability": "nonpayable",
      "type": "function"
    },
    {
      "inputs": [],
      "name": "sgRouter",
      "outputs": [
        {
          "internalType": "contract IStargateRouter",
          "name": "",
          "type": "address"
        }
      ],
      "stateMutability": "view",
      "type": "function"
    },
    {
      "inputs": [],
      "name": "slippage",
      "outputs": [
        {
          "internalType": "uint256",
          "name": "",
          "type": "uint256"
        }
      ],
      "stateMutability": "view",
      "type": "function"
    },
    {
      "inputs": [],
      "name": "strategist",
      "outputs": [
        {
          "internalType": "address",
          "name": "",
          "type": "address"
        }
      ],
      "stateMutability": "view",
      "type": "function"
    },
    {
      "inputs": [],
      "name": "strategistSignMessageHash",
      "outputs": [
        {
          "internalType": "bytes32",
          "name": "",
          "type": "bytes32"
        }
      ],
      "stateMutability": "view",
      "type": "function"
    },
    {
      "inputs": [
        {
          "internalType": "contract IERC20",
          "name": "_token",
          "type": "address"
        }
      ],
      "name": "sweepToken",
      "outputs": [],
      "stateMutability": "nonpayable",
      "type": "function"
    },
    {
      "inputs": [
        {
          "internalType": "address",
          "name": "newOwner",
          "type": "address"
        }
      ],
      "name": "transferOwnership",
      "outputs": [],
      "stateMutability": "nonpayable",
      "type": "function"
    },
    {
      "inputs": [
        {
          "internalType": "uint16",
          "name": "",
          "type": "uint16"
        }
      ],
      "name": "trustedRemoteLookup",
      "outputs": [
        {
          "internalType": "bytes",
          "name": "",
          "type": "bytes"
        }
      ],
      "stateMutability": "view",
      "type": "function"
    },
    {
      "inputs": [],
      "name": "vault",
      "outputs": [
        {
          "internalType": "address",
          "name": "",
          "type": "address"
        }
      ],
      "stateMutability": "view",
      "type": "function"
    },
    {
      "inputs": [],
      "name": "vaultChainId",
      "outputs": [
        {
          "internalType": "uint16",
          "name": "",
          "type": "uint16"
        }
      ],
      "stateMutability": "view",
      "type": "function"
    },
    {
      "inputs": [],
      "name": "want",
      "outputs": [
        {
          "internalType": "contract IERC20",
          "name": "",
          "type": "address"
        }
      ],
      "stateMutability": "view",
      "type": "function"
    },
    {
      "inputs": [],
      "name": "wantDecimals",
      "outputs": [
        {
          "internalType": "uint8",
          "name": "",
          "type": "uint8"
        }
      ],
      "stateMutability": "view",
      "type": "function"
    },
    {
      "stateMutability": "payable",
      "type": "receive"
    }
  ],
  "bytecode": "0x608060405234801561001057600080fd5b5061582080620000216000396000f3fe6080604052600436106102525760003560e01c80621d35671461025e5780630517cb761461028057806306fdde03146102b657806307e0db17146102f35780630df374831461031357806310ddb137146103335780631be19560146103535780631cdb539f146103735780631f1fcd51146103935780631fe4a686146103b35780632d606843146103d357806337fded91146103e85780633d3ccc2f1461040d5780633d8b38f61461042d5780633e032a3b1461045d5780633f1f4fa41461048157806342d65a8d146104ae57806345ee0755146104ce578063495f881e146104ee5780635641ec031461050e578063567ad85d14610528578063593178de1461055d5780635b8c41e61461057257806366ad5c8a146105c15780636cbadbfa146105e1578063715018a6146106035780637533d788146106185780638cfd8f5c146106385780638da5cb5b14610670578063950c8a74146106855780639606647d146106a55780639f38369a146106ba578063a6c3d165146106da578063a8798510146106fa578063ab8236f314610710578063adf076e614610730578063b353aaa714610763578063baf3292d14610783578063c1a3d44c146107a3578063c4461834146107b8578063c7b9d530146107ce578063cbed8b9c146107ee578063d1deba1f1461080e578063df2a5b3b14610821578063e73620c314610841578063eb8d72b714610861578063efbb5cb014610881578063f0fa55a914610896578063f2fde38b146108b6578063f5ecbdbc146108d6578063fa540801146108f6578063fbfa77cf1461091657600080fd5b3661025957005b600080fd5b34801561026a57600080fd5b5061027e61027936600461443f565b610936565b005b34801561028c57600080fd5b5060ce546102a0906001600160a01b031681565b6040516102ad91906144d2565b60405180910390f35b3480156102c257600080fd5b5060408051808201909152600b81526a486f70537472617465677960a81b60208201525b6040516102ad9190614536565b3480156102ff57600080fd5b5061027e61030e366004614549565b610a1f565b34801561031f57600080fd5b5061027e61032e366004614564565b610a8c565b34801561033f57600080fd5b5061027e61034e366004614549565b610aab565b34801561035f57600080fd5b5061027e61036e3660046145a3565b610ae7565b34801561037f57600080fd5b5061027e61038e3660046145c0565b610b74565b34801561039f57600080fd5b5060ca546102a0906001600160a01b031681565b3480156103bf57600080fd5b5060c9546102a0906001600160a01b031681565b3480156103df57600080fd5b5061027e610d59565b3480156103f457600080fd5b5060cd546102a09061010090046001600160a01b031681565b34801561041957600080fd5b5061027e610428366004614665565b610d9a565b34801561043957600080fd5b5061044d61044836600461467e565b610dd0565b60405190151581526020016102ad565b34801561046957600080fd5b5061047360cc5481565b6040519081526020016102ad565b34801561048d57600080fd5b5061047361049c366004614549565b60686020526000908152604090205481565b3480156104ba57600080fd5b5061027e6104c936600461467e565b610e9d565b3480156104da57600080fd5b5061027e6104e93660046146de565b610f10565b3480156104fa57600080fd5b5061027e6105093660046147e6565b610f2b565b34801561051a57600080fd5b5060cd5461044d9060ff1681565b34801561053457600080fd5b5060cb5461054a90600160a01b900461ffff1681565b60405161ffff90911681526020016102ad565b34801561056957600080fd5b506104736111cf565b34801561057e57600080fd5b5061047361058d366004614849565b6097602090815260009384526040808520845180860184018051928152908401958401959095209452929052825290205481565b3480156105cd57600080fd5b5061027e6105dc36600461443f565b61122d565b3480156105ed57600080fd5b5060cb5461054a90600160b01b900461ffff1681565b34801561060f57600080fd5b5061027e611301565b34801561062457600080fd5b506102e6610633366004614549565b611315565b34801561064457600080fd5b506104736106533660046148a6565b606760209081526000928352604080842090915290825290205481565b34801561067c57600080fd5b506102a06113af565b34801561069157600080fd5b506069546102a0906001600160a01b031681565b3480156106b157600080fd5b5061027e6113be565b3480156106c657600080fd5b506102e66106d5366004614549565b611451565b3480156106e657600080fd5b5061027e6106f536600461467e565b611560565b34801561070657600080fd5b5061047361264881565b34801561071c57600080fd5b5061027e61072b3660046148d9565b6115e9565b34801561073c57600080fd5b5060cb5461075190600160c01b900460ff1681565b60405160ff90911681526020016102ad565b34801561076f57600080fd5b506065546102a0906001600160a01b031681565b34801561078f57600080fd5b5061027e61079e3660046145a3565b6116e7565b3480156107af57600080fd5b5061047361173a565b3480156107c457600080fd5b5061047361271081565b3480156107da57600080fd5b5061027e6107e93660046145a3565b6117b1565b3480156107fa57600080fd5b5061027e610809366004614973565b6117db565b61027e61081c36600461443f565b611849565b34801561082d57600080fd5b5061027e61083c3660046149e1565b611a5f565b34801561084d57600080fd5b5061027e61085c366004614665565b611b11565b34801561086d57600080fd5b5061027e61087c36600461467e565b611b31565b34801561088d57600080fd5b50610473611b8b565b3480156108a257600080fd5b5061027e6108b1366004614665565b611bc9565b3480156108c257600080fd5b5061027e6108d13660046145a3565b611bd6565b3480156108e257600080fd5b506102e66108f1366004614a1d565b611c4c565b34801561090257600080fd5b50610473610911366004614665565b611ce1565b34801561092257600080fd5b5060cb546102a0906001600160a01b031681565b6065546001600160a01b031633146109a15760405162461bcd60e51b815260206004820152602360248201527f4261736553747261746567793a3a496e76616c6964456e64706f696e7443616c6044820152623632b960e91b60648201526084015b60405180910390fd5b610a178686868080601f01602080910402602001604051908101604052809392919081815260200183838082843760009201919091525050604080516020601f890181900481028201810190925287815289935091508790879081908401838280828437600092019190915250611d3392505050565b505050505050565b610a27611dac565b6065546040516307e0db1760e01b815261ffff831660048201526001600160a01b03909116906307e0db17906024015b600060405180830381600087803b158015610a7157600080fd5b505af1158015610a85573d6000803e3d6000fd5b5050505050565b610a94611dac565b61ffff909116600090815260686020526040902055565b610ab3611dac565b6065546040516310ddb13760e01b815261ffff831660048201526001600160a01b03909116906310ddb13790602401610a57565b610aef611e0b565b610b7133826001600160a01b03166370a08231306040518263ffffffff1660e01b8152600401610b1f91906144d2565b602060405180830381865afa158015610b3c573d6000803e3d6000fd5b505050506040513d601f19601f82011682018060405250810190610b609190614a6a565b6001600160a01b0384169190611e64565b50565b600054610100900460ff1615808015610b945750600054600160ff909116105b80610bb55750610ba330611ebf565b158015610bb5575060005460ff166001145b610c185760405162461bcd60e51b815260206004820152602e60248201527f496e697469616c697a61626c653a20636f6e747261637420697320616c72656160448201526d191e481a5b9a5d1a585b1a5e995960921b6064820152608401610998565b6000805460ff191660011790558015610c3b576000805461ff0019166101001790555b610c4e8989898989898989612648611ece565b610c7d73b67c014fa700e69681a673876eb8bafaa36bff7160008051602061578b8339815191526000196120ad565b610cac73b67c014fa700e69681a673876eb8bafaa36bff716000805160206157ab8339815191526000196120ad565b610ce173c5102fe9359fd9a28f877a67e36b0f050d81a3cc73e592427a0aece92de3edee1f18e0157c058615646000196120ad565b60ca54610d08906001600160a01b03166000805160206157ab8339815191526000196120ad565b8015610d4e576000805461ff0019169055604051600181527f7f26b83ff96e1f2b6a682f133852f6798a09c465da95921460cefb38474024989060200160405180910390a15b505050505050505050565b610d61611e0b565b60c9546040516001600160a01b03909116904780156108fc02916000818181858888f19350505050158015610b71573d6000803e3d6000fd5b610da2611e0b565b610dab816121b1565b6040518181526000805160206157cb833981519152906020015b60405180910390a150565b61ffff831660009081526066602052604081208054829190610df190614a83565b80601f0160208091040260200160405190810160405280929190818152602001828054610e1d90614a83565b8015610e6a5780601f10610e3f57610100808354040283529160200191610e6a565b820191906000526020600020905b815481529060010190602001808311610e4d57829003601f168201915b505050505090508383604051610e81929190614abd565b60405180910390208180519060200120149150505b9392505050565b610ea5611dac565b6065546040516342d65a8d60e01b81526001600160a01b03909116906342d65a8d90610ed990869086908690600401614af6565b600060405180830381600087803b158015610ef357600080fd5b505af1158015610f07573d6000803e3d6000fd5b50505050505050565b610f18611e0b565b60cd805460ff1916911515919091179055565b610f33611e0b565b610f3c8161243b565b60cd546000908190819060ff1615610fe8578415610f9c5760405162461bcd60e51b815260206004820152601e60248201527f4261736553747261746567793a3a44656274526174696f4e6f745a65726f00006044820152606401610998565b6000610fa66124c1565b905087811015610fc157610fba8189614b2a565b9250610fd6565b87811115610fd657610fd38882614b2a565b93505b610fe08389614b2a565b915050610ffa565b610ff2888861262a565b919450925090505b60006110068285614b3d565b9050600080888310156110285761101d838a614b2a565b915060009050611039565b600091506110368984614b2a565b90505b6000604051806101600160405280306001600160a01b031681526020014281526020018881526020018781526020018681526020018481526020018381526020018b815260200183611089611b8b565b6110939190614b2a565b815260200160d060008154809291906110ab90614b50565b9091555081526020018990529050811561110b5760cb5460405161110691849161ffff600160a01b830416916001600160a01b0316906110f2906002908790602001614ba1565b604051602081830303815290604052612721565b611136565b611136600282604051602001611122929190614ba1565b6040516020818303038152906040526127fb565b7fb983e09c034e9c52b5e547cb0589967992b97717733f580cc5ad0afcdc4b522b8160400151826060015183608001518460a001518560c001518660e001518761010001516040516111b99796959493929190968752602087019590955260408601939093526060850191909152608084015260a083015260c082015260e00190565b60405180910390a1505050505050505050505050565b60d05460cb546040513060601b6001600160601b03191660208201526034810192909252600160b01b900460f01b6001600160f01b031916605482015260009060560160405160208183030381529060405280519060200120905090565b33301461128b5760405162461bcd60e51b815260206004820152602660248201527f4e6f6e626c6f636b696e674c7a4170703a2063616c6c6572206d7573742062656044820152650204c7a4170760d41b6064820152608401610998565b610a178686868080601f01602080910402602001604051908101604052809392919081815260200183838082843760009201919091525050604080516020601f89018190048102820181019092528781528993509150879087908190840183828082843760009201919091525061297b92505050565b611309611dac565b6113136000612a91565b565b6066602052600090815260409020805461132e90614a83565b80601f016020809104026020016040519081016040528092919081815260200182805461135a90614a83565b80156113a75780601f1061137c576101008083540402835291602001916113a7565b820191906000526020600020905b81548152906001019060200180831161138a57829003601f168201915b505050505081565b6033546001600160a01b031690565b6113c6611e0b565b60ca546040516370a0823160e01b8152611313916001916001600160a01b03909116906370a08231906113fd9030906004016144d2565b602060405180830381865afa15801561141a573d6000803e3d6000fd5b505050506040513d601f19601f8201168201806040525081019061143e9190614a6a565b60ca546001600160a01b03169190611e64565b61ffff811660009081526066602052604081208054606092919061147490614a83565b80601f01602080910402602001604051908101604052809291908181526020018280546114a090614a83565b80156114ed5780601f106114c2576101008083540402835291602001916114ed565b820191906000526020600020905b8154815290600101906020018083116114d057829003601f168201915b5050505050905080516000036115455760405162461bcd60e51b815260206004820152601d60248201527f4c7a4170703a206e6f20747275737465642070617468207265636f72640000006044820152606401610998565b610e966000601483516115589190614b2a565b839190612ae3565b611568611dac565b81813060405160200161157d93929190614c5d565b60408051601f1981840301815291815261ffff85166000908152606660205220906115a89082614cd9565b507f8c0400cfe2d1199b1a725c78960bcc2a344d869b80590d0f2bd005db15a572ce8383836040516115dc93929190614af6565b60405180910390a1505050565b60ce546001600160a01b0316331480611611575060cd5461010090046001600160a01b031633145b61165c5760405162461bcd60e51b815260206004820152601c60248201527b53674272696467653a3a526f757465724f724272696467654f6e6c7960201b6044820152606401610998565b600061166a86826014612ae3565b60405160200161167a9190614d92565b60405160208183030381529060405261169290614dae565b6040805185815260609290921c6020830181905292506001600160a01b038616917f92073a89a07a000083eb8b2575fc15e7bb936efe55d00727d6942a796d7211a7910160405180910390a250505050505050565b6116ef611dac565b606980546001600160a01b0319166001600160a01b0383161790556040517f5db758e995a17ec1ad84bdef7e8c3293a0bd6179bcce400dff5d4c3d87db726b90610dc59083906144d2565b60ca546040516370a0823160e01b81526000916001600160a01b0316906370a082319061176b9030906004016144d2565b602060405180830381865afa158015611788573d6000803e3d6000fd5b505050506040513d601f19601f820116820180604052508101906117ac9190614a6a565b905090565b6117b9611dac565b60c980546001600160a01b0319166001600160a01b0392909216919091179055565b6117e3611dac565b6065546040516332fb62e760e21b81526001600160a01b039091169063cbed8b9c9061181b9088908890889088908890600401614de5565b600060405180830381600087803b15801561183557600080fd5b505af1158015610d4e573d6000803e3d6000fd5b61ffff8616600090815260976020526040808220905161186c9088908890614abd565b90815260408051602092819003830190206001600160401b038716600090815292529020549050806118ec5760405162461bcd60e51b815260206004820152602360248201527f4e6f6e626c6f636b696e674c7a4170703a206e6f2073746f726564206d65737360448201526261676560e81b6064820152608401610998565b8083836040516118fd929190614abd565b60405180910390201461195c5760405162461bcd60e51b815260206004820152602160248201527f4e6f6e626c6f636b696e674c7a4170703a20696e76616c6964207061796c6f616044820152601960fa1b6064820152608401610998565b61ffff8716600090815260976020526040808220905161197f9089908990614abd565b90815260408051602092819003830181206001600160401b038916600090815290845282902093909355601f88018290048202830182019052868252611a17918991899089908190840183828082843760009201919091525050604080516020601f8a018190048102820181019092528881528a93509150889088908190840183828082843760009201919091525061297b92505050565b7fc264d91f3adc5588250e1551f547752ca0cfa8f6b530d243b9f9f4cab10ea8e58787878785604051611a4e959493929190614e13565b60405180910390a150505050505050565b611a67611dac565b60008111611aaf5760405162461bcd60e51b81526020600482015260156024820152744c7a4170703a20696e76616c6964206d696e47617360581b6044820152606401610998565b61ffff83811660008181526067602090815260408083209487168084529482529182902085905581519283528201929092529081018290527f9d5c7c0b934da8fefa9c7760c98383778a12dfbfc0c3b3106518f43fb9508ac0906060016115dc565b611b19611dac565b600090815260cf60205260409020805460ff19169055565b611b39611dac565b61ffff83166000908152606660205260409020611b57828483614e4e565b507ffa41487ad5d6728f0b19276fa1eddc16558578f5109fc39d2dc33c3230470dab8383836040516115dc93929190614af6565b6000611b9d611b98612bf0565b612c22565b611ba561173a565b611bb5611bb0612ca0565b612cd4565b611bbf9190614b3d565b6117ac9190614b3d565b611bd1611e0b565b60cc55565b611bde611dac565b6001600160a01b038116611c435760405162461bcd60e51b815260206004820152602660248201527f4f776e61626c653a206e6577206f776e657220697320746865207a65726f206160448201526564647265737360d01b6064820152608401610998565b610b7181612a91565b606554604051633d7b2f6f60e21b815261ffff808716600483015285166024820152306044820152606481018390526060916001600160a01b03169063f5ecbdbc90608401600060405180830381865afa158015611cae573d6000803e3d6000fd5b505050506040513d6000823e601f3d908101601f19168201604052611cd69190810190614f07565b90505b949350505050565b6040517b0ca2ba3432b932bab69029b4b3b732b21026b2b9b9b0b3b29d05199960211b6020820152603c8101829052600090605c01604051602081830303815290604052805190602001209050919050565b600080611d965a60966366ad5c8a60e01b89898989604051602401611d5b9493929190614f74565b60408051601f198184030181529190526020810180516001600160e01b03166001600160e01b03199093169290921790915230929190612d61565b9150915081610a1757610a178686868685612ded565b33611db56113af565b6001600160a01b0316146113135760405162461bcd60e51b815260206004820181905260248201527f4f776e61626c653a2063616c6c6572206973206e6f7420746865206f776e65726044820152606401610998565b60c9546001600160a01b031633146113135760405162461bcd60e51b815260206004820152601c60248201527b10985cd954dd1c985d1959de4e8e93db9b1e54dd1c985d1959da5cdd60221b6044820152606401610998565b611eba8363a9059cbb60e01b8484604051602401611e83929190614fb2565b60408051601f198184030181529190526020810180516001600160e01b03166001600160e01b031990931692909217909152612e8a565b505050565b6001600160a01b03163b151590565b600054610100900460ff16611ef55760405162461bcd60e51b815260040161099890614fcb565b611efe89612f5f565b60c980546001600160a01b03808b166001600160a01b03199283161790925560ca80548a8416908316811790915560cb8054938a1661ffff8a16600160a01b029093166001600160b01b0319909416939093179190911790915560cc8290556040805163313ce56760e01b8152905163313ce567916004808201926020929091908290030181865afa158015611f98573d6000803e3d6000fd5b505050506040513d601f19601f82011682018060405250810190611fbc9190615016565b60cb8054600060d05562ffffff60b01b1916600160c01b60ff939093169290920261ffff60b01b191691909117600160b01b61ffff87160217905560cd8054610100600160a81b0319166101006001600160a01b03868116919091029190911790915560ce80546001600160a01b03191684831617905560ca5460405163095ea7b360e01b815291169063095ea7b39061205e90869060001990600401614fb2565b6020604051808303816000875af115801561207d573d6000803e3d6000fd5b505050506040513d601f19601f820116820180604052508101906120a19190615039565b50505050505050505050565b8015806121275750604051636eb1769f60e11b81523060048201526001600160a01b03838116602483015284169063dd62ed3e90604401602060405180830381865afa158015612101573d6000803e3d6000fd5b505050506040513d601f19601f820116820180604052508101906121259190614a6a565b155b6121925760405162461bcd60e51b815260206004820152603660248201527f5361666545524332303a20617070726f76652066726f6d206e6f6e2d7a65726f60448201527520746f206e6f6e2d7a65726f20616c6c6f77616e636560501b6064820152608401610998565b611eba8363095ea7b360e01b8484604051602401611e83929190614fb2565b60cd5460ff16156121bf5750565b6121c7612f97565b60006121d161173a565b90506000828211156121ea576121e78383614b2a565b90505b8015611eba57604080516002808252606082018352600092602083019080368337019050509050818160008151811061222557612225615056565b60200260200101818152505060008160018151811061224657612246615056565b602090810291909101015260cc5460405163f9273ffb60e01b8152600091612710916000805160206157ab8339815191529063f9273ffb9061229190309088906001906004016150a7565b602060405180830381865afa1580156122ae573d6000803e3d6000fd5b505050506040513d601f19601f820116820180604052508101906122d29190614a6a565b6122dc91906150dd565b6122e6919061510a565b604051634d49e87d60e01b81529091506000805160206157ab83398151915290634d49e87d9061231e9085908590429060040161511e565b6020604051808303816000875af115801561233d573d6000803e3d6000fd5b505050506040513d601f19601f820116820180604052508101906123619190614a6a565b506040516370a0823160e01b815260009073b67c014fa700e69681a673876eb8bafaa36bff71906370a082319061239c9030906004016144d2565b602060405180830381865afa1580156123b9573d6000803e3d6000fd5b505050506040513d601f19601f820116820180604052508101906123dd9190614a6a565b60405163534a7e1d60e11b81526004810182905290915060008051602061578b8339815191529063a694fc3a90602401600060405180830381600087803b15801561242757600080fd5b505af11580156120a1573d6000803e3d6000fd5b60006124456111cf565b9050600061245282611ce1565b60c9549091506001600160a01b031661246b8285613079565b6001600160a01b031614611eba5760405162461bcd60e51b815260206004820152601e60248201527f4261736553747261746567793a3a496e76616c69645369676e617475726500006044820152606401610998565b60006124cb612f97565b60006124d5612ca0565b604051632e1a7d4d60e01b81526004810182905290915060008051602061578b83398151915290632e1a7d4d90602401600060405180830381600087803b15801561251f57600080fd5b505af1158015612533573d6000803e3d6000fd5b50506040516301f1d0ab60e51b81526000805160206157ab8339815191529250633e3a1560915061256f90849060009081904290600401615143565b6020604051808303816000875af115801561258e573d6000803e3d6000fd5b505050506040513d601f19601f820116820180604052508101906125b29190614a6a565b5060ca546040516370a0823160e01b81526001600160a01b03909116906370a08231906125e39030906004016144d2565b602060405180830381865afa158015612600573d6000803e3d6000fd5b505050506040513d601f19601f820116820180604052508101906126249190614a6a565b91505090565b600080600080612638611b8b565b90508581106126565761264b8682614b2a565b935060009250612667565b600093506126648187614b2a565b92505b6126796126748587614b3d565b61309d565b505060ca546040516370a0823160e01b81526000916001600160a01b0316906370a08231906126ac9030906004016144d2565b602060405180830381865afa1580156126c9573d6000803e3d6000fd5b505050506040513d601f19601f820116820180604052508101906126ed9190614a6a565b90508481116127025780945060009250612718565b61271561270f8683614b2a565b876131d2565b92505b50509250925092565b60cd54604051630dc6346160e01b815260009161010090046001600160a01b031690630dc634619061275b90879087908790600401615161565b602060405180830381865afa158015612778573d6000803e3d6000fd5b505050506040513d601f19601f8201168201806040525081019061279c9190614a6a565b60cd5460ca54604051633920455b60e11b81529293506001600160a01b036101009092048216926372408ab69285926127e2929116908a908a908a908a9060040161518f565b6000604051808303818588803b15801561242757600080fd5b60cb5460408051606083811b6001600160601b03199081166020840152309182901b16603483015282516028818403018152604890920190925260655490926000926001600160a01b03909216916340a7bb109161ffff600160a01b909104169086856128666131e8565b6040518663ffffffff1660e01b81526004016128869594939291906151cc565b6040805180830381865afa1580156128a2573d6000803e3d6000fd5b505050506040513d601f19601f820116820180604052508101906128c69190615220565b509050804710156128f25760405162fae2d560e21b815260048101829052476024820152604401610998565b60655460cb546001600160a01b039091169063c5803100908390600160a01b900461ffff16858730806129236131e8565b6040518863ffffffff1660e01b815260040161294496959493929190615244565b6000604051808303818588803b15801561295d57600080fd5b505af1158015612971573d6000803e3d6000fd5b5050505050505050565b60cb5461ffff858116600160a01b90920416146129e55760405162461bcd60e51b815260206004820152602260248201527f4261736553747261746567793a3a5661756c74436861696e49644d69736d61746044820152610c6d60f31b6064820152608401610998565b60006129f384826014612ae3565b604051602001612a039190614d92565b604051602081830303815290604052612a1b90614dae565b60cb5460609190911c91506001600160a01b03168114612a885760405162461bcd60e51b815260206004820152602260248201527f4261736553747261746567793a3a5661756c74416464726573734d69736d61746044820152610c6d60f31b6064820152608401610998565b610a8582613218565b603380546001600160a01b038381166001600160a01b0319831681179093556040519116919082907f8be0079c531659141344cd1fd0a4f28419497f9722a3daafe3b4186f6b6457e090600090a35050565b606081612af181601f614b3d565b1015612b305760405162461bcd60e51b815260206004820152600e60248201526d736c6963655f6f766572666c6f7760901b6044820152606401610998565b612b3a8284614b3d565b84511015612b7e5760405162461bcd60e51b8152602060048201526011602482015270736c6963655f6f75744f66426f756e647360781b6044820152606401610998565b606082158015612b9d5760405191506000825260208201604052612be7565b6040519150601f8416801560200281840101858101878315602002848b0101015b81831015612bd6578051835260209283019201612bbe565b5050858452601f01601f1916604052505b50949350505050565b6040516246613160e11b815260009060008051602061578b83398151915290628cc2629061176b9030906004016144d2565b60ca54600090612c9a9073c31e54c7a869b9fcbecc14363cf510d1c41fa443907382af49447d8a07e3bd95bd0d56f35241523fbab1906001600160a01b0316612c957344ca2be2bd6a7203ccdbb63eed8382274f737a1573c5102fe9359fd9a28f877a67e36b0f050d81a3cc8489613345565b613345565b92915050565b6040516370a0823160e01b815260009060008051602061578b833981519152906370a082319061176b9030906004016144d2565b600081600003612ce657506000919050565b604051630262267d60e61b815230600482015260248101839052600060448201526000805160206157ab833981519152906398899f4090606401602060405180830381865afa158015612d3d573d6000803e3d6000fd5b505050506040513d601f19601f82011682018060405250810190612c9a9190614a6a565b6000606060008060008661ffff166001600160401b03811115612d8657612d866146fb565b6040519080825280601f01601f191660200182016040528015612db0576020820181803683370190505b50905060008087516020890160008d8df191503d925086831115612dd2578692505b828152826000602083013e9093509150505b94509492505050565b8180519060200120609760008761ffff1661ffff16815260200190815260200160002085604051612e1e9190614d92565b9081526040805191829003602090810183206001600160401b0388166000908152915220919091557fe183f33de2837795525b4792ca4cd60535bd77c53b7e7030060bfcf5734d6b0c90612e7b90879087908790879087906152ab565b60405180910390a15050505050565b6000612edf826040518060400160405280602081526020017f5361666545524332303a206c6f772d6c6576656c2063616c6c206661696c6564815250856001600160a01b031661336d9092919063ffffffff16565b9050805160001480612f00575080806020019051810190612f009190615039565b611eba5760405162461bcd60e51b815260206004820152602a60248201527f5361666545524332303a204552433230206f7065726174696f6e20646964206e6044820152691bdd081cdd58d8d9595960b21b6064820152608401610998565b600054610100900460ff16612f865760405162461bcd60e51b815260040161099890614fcb565b612f8e61337c565b610b71816133ac565b60008051602061578b8339815191526001600160a01b0316633d18b9126040518163ffffffff1660e01b8152600401600060405180830381600087803b158015612fe057600080fd5b505af1158015612ff4573d6000803e3d6000fd5b50506040516370a0823160e01b8152611313925073c5102fe9359fd9a28f877a67e36b0f050d81a3cc91506370a08231906130339030906004016144d2565b602060405180830381865afa158015613050573d6000803e3d6000fd5b505050506040513d601f19601f820116820180604052508101906130749190614a6a565b6133f5565b6000806000613088858561357e565b91509150613095816135c3565b509392505050565b60ca546040516370a0823160e01b8152600091829182916001600160a01b0316906370a08231906130d29030906004016144d2565b602060405180830381865afa1580156130ef573d6000803e3d6000fd5b505050506040513d601f19601f820116820180604052508101906131139190614a6a565b905083811061312757509192600092509050565b6131396131348286614b2a565b613708565b60ca546040516370a0823160e01b81526001600160a01b03909116906370a08231906131699030906004016144d2565b602060405180830381865afa158015613186573d6000803e3d6000fd5b505050506040513d601f19601f820116820180604052508101906131aa9190614a6a565b9050808411156131c8579150816131c18185614b2a565b91506131cc565b8392505b50915091565b60008183106131e15781610e96565b5090919050565b60408051600160f01b6020820152620f424060228083019190915282518083039091018152604290910190915290565b60008180602001905181019061322e91906152fd565b9050600381600481111561324457613244614b69565b036132975760008280602001905181019061325f919061531e565b91505061326f81600001516121b1565b80516040519081526000805160206157cb8339815191529060200160405180910390a1505050565b60008160048111156132ab576132ab614b69565b036132d2576000828060200190518101906132c69190615361565b915050611eba8161375e565b60048160048111156132e6576132e6614b69565b036133415760008280602001905181019061330191906153cc565b9150506133118160000151613888565b80516040517f7c9a2d2ec51230d7dbed27f113a325b7e20aef7b049e68b2339257b5edff5bea916115dc916144d2565b5050565b600080613354866107086138c7565b50905061336381848787613b10565b9695505050505050565b6060611cd98484600085613c17565b600054610100900460ff166133a35760405162461bcd60e51b815260040161099890614fcb565b61131333612a91565b600054610100900460ff166133d35760405162461bcd60e51b815260040161099890614fcb565b606580546001600160a01b0319166001600160a01b0392909216919091179055565b806000036134005750565b61343b6040518060a001604052806060815260200160006001600160a01b031681526020016000815260200160008152602001600081525090565b604080517331440bfa4d67f668a3e1de99f8dac3c1436068f360621b602082015261017760eb1b60348201527382af49447d8a07e3bd95bd0d56f35241523fbab160601b6037820152607d60ea1b604b8201526001720d1eb3cbf69c6bd6f96b78144375982844946760631b0319604e82015281516042818303018152606290910190915260006134cb84612c22565b8284523060208501524260408501526060840185905260cc54909150612710906134f590836150dd565b6134ff919061510a565b608084015260405163c04b8d5960e01b815273e592427a0aece92de3edee1f18e0157c058615649063c04b8d599061353b90869060040161541a565b6020604051808303816000875af115801561355a573d6000803e3d6000fd5b505050506040513d601f19601f82011682018060405250810190610a859190614a6a565b60008082516041036135b45760208301516040840151606085015160001a6135a887828585613ce7565b945094505050506135bc565b506000905060025b9250929050565b60008160048111156135d7576135d7614b69565b036135df5750565b60018160048111156135f3576135f3614b69565b0361363b5760405162461bcd60e51b815260206004820152601860248201527745434453413a20696e76616c6964207369676e617475726560401b6044820152606401610998565b600281600481111561364f5761364f614b69565b0361369c5760405162461bcd60e51b815260206004820152601f60248201527f45434453413a20696e76616c6964207369676e6174757265206c656e677468006044820152606401610998565b60038160048111156136b0576136b0614b69565b03610b715760405162461bcd60e51b815260206004820152602260248201527f45434453413a20696e76616c6964207369676e6174757265202773272076616c604482015261756560f01b6064820152608401610998565b806000036137135750565b8061371f611b98612bf0565b1061372c57610b71612f97565b6000613753613739612ca0565b613744611b98612bf0565b61374e9085614b2a565b6131d2565b905061334181613d91565b602080820151600090815260cf909152604090205460ff16156137c35760405162461bcd60e51b815260206004820152601e60248201527f4261736553747261746567793a3a416c726561647957697468647261776e00006044820152606401610998565b6000806137d3836000015161309d565b91509150600060016040518060800160405280306001600160a01b03168152602001858152602001848152602001866020015181525060405160200161381a929190615472565b60408051601f198184030181529190529050821561385b5760cb5461385690849061ffff600160a01b820416906001600160a01b031684612721565b613864565b613864816127fb565b505050602090810151600090815260cf90915260409020805460ff19166001179055565b61389181613f46565b60ca546040516370a0823160e01b8152610b719183916001600160a01b03909116906370a08231906113fd9030906004016144d2565b6000808263ffffffff166000036139055760405162461bcd60e51b8152602060048201526002602482015261042560f41b6044820152606401610998565b604080516002808252606082018352600092602083019080368337019050509050838160008151811061393a5761393a615056565b602002602001019063ffffffff16908163ffffffff168152505060008160018151811061396957613969615056565b602002602001019063ffffffff16908163ffffffff1681525050600080866001600160a01b031663883bdbfd846040518263ffffffff1660e01b81526004016139b291906154b4565b600060405180830381865afa1580156139cf573d6000803e3d6000fd5b505050506040513d6000823e601f3d908101601f191682016040526139f79190810190615590565b91509150600082600081518110613a1057613a10615056565b602002602001015183600181518110613a2b57613a2b615056565b6020026020010151613a3d919061565b565b9050600082600081518110613a5457613a54615056565b602002602001015183600181518110613a6f57613a6f615056565b6020026020010151613a819190615688565b9050613a9363ffffffff8916836156af565b965060008260060b128015613ab95750613ab363ffffffff8916836156ed565b60060b15155b15613acc5786613ac88161570f565b9750505b6000613ae56001600160a01b0363ffffffff8b16615732565b9050613b01600160201b600160c01b03602084901b1682615764565b96505050505050509250929050565b600080613b1c86613f6a565b90506001600160801b036001600160a01b03821611613ba2576000613b4a6001600160a01b038316806150dd565b9050836001600160a01b0316856001600160a01b031610613b8257613b7d600160c01b876001600160801b031683614282565b613b9a565b613b9a81876001600160801b0316600160c01b614282565b925050612be7565b6000613bbc6001600160a01b03831680600160401b614282565b9050836001600160a01b0316856001600160a01b031610613bf457613bef600160801b876001600160801b031683614282565b613c0c565b613c0c81876001600160801b0316600160801b614282565b979650505050505050565b606082471015613c785760405162461bcd60e51b815260206004820152602660248201527f416464726573733a20696e73756666696369656e742062616c616e636520666f6044820152651c8818d85b1b60d21b6064820152608401610998565b600080866001600160a01b03168587604051613c949190614d92565b60006040518083038185875af1925050503d8060008114613cd1576040519150601f19603f3d011682016040523d82523d6000602084013e613cd6565b606091505b5091509150613c0c87838387614334565b6000806fa2a8918ca85bafe22016d0b997e4df60600160ff1b03831115613d145750600090506003612de4565b600060018787878760405160008152602001604052604051613d399493929190615143565b6020604051602081039080840390855afa158015613d5b573d6000803e3d6000fd5b5050604051601f1901519150506001600160a01b038116613d8457600060019250925050612de4565b9660009650945050505050565b613d99612f97565b6040805160028082526060820183526000926020830190803683370190505090508181600081518110613dce57613dce615056565b602002602001018181525050600081600181518110613def57613def615056565b602090810291909101015260405163f9273ffb60e01b81526000906000805160206157ab8339815191529063f9273ffb90613e32903090869086906004016150a7565b602060405180830381865afa158015613e4f573d6000803e3d6000fd5b505050506040513d601f19601f82011682018060405250810190613e739190614a6a565b9050613e7d61173a565b811115613e8f57613e8c61173a565b90505b604051632e1a7d4d60e01b81526004810182905260008051602061578b83398151915290632e1a7d4d90602401600060405180830381600087803b158015613ed657600080fd5b505af1158015613eea573d6000803e3d6000fd5b50505050600061271060cc5485613f0191906150dd565b613f0b919061510a565b6040516301f1d0ab60e51b81529091506000805160206157ab83398151915290633e3a15609061353b90859060009086904290600401615143565b6000613f506124c1565b60ca54909150613341906001600160a01b03168383611e64565b60008060008360020b12613f81578260020b613f89565b8260020b6000035b9050620d89e8811115613faf576040516315e4079d60e11b815260040160405180910390fd5b600081600116600003613fc657600160801b613fd8565b6ffffcb933bd6fad37aa2d162d1a5940015b6001600160881b031690506002821615614002576ffff97272373d413259a46990580e213a0260801c5b6004821615614021576ffff2e50f5f656932ef12357cf3c7fdcc0260801c5b6008821615614040576fffe5caca7e10e4e61c3624eaa0941cd00260801c5b601082161561405f576fffcb9843d60f6159c9db58835c9266440260801c5b602082161561407e576fff973b41fa98c081472e6896dfb254c00260801c5b604082161561409d576fff2ea16466c96a3843ec78b326b528610260801c5b60808216156140bc576ffe5dee046a99a2a811c461f1969c30530260801c5b6101008216156140dc576ffcbe86c7900a88aedcffc83b479aa3a40260801c5b6102008216156140fc576ff987a7253ac413176f2b074cf7815e540260801c5b61040082161561411c576ff3392b0822b70005940c7a398e4b70f30260801c5b61080082161561413c576fe7159475a2c29b7443b29c7fa6e889d90260801c5b61100082161561415c576fd097f3bdfd2022b8845ad8f792aa58250260801c5b61200082161561417c576fa9f746462d870fdf8a65dc1f90e061e50260801c5b61400082161561419c576f70d869a156d2a1b890bb3df62baf32f70260801c5b6180008216156141bc576f31be135f97d08fd981231505542fcfa60260801c5b620100008216156141dd576f09aa508b5b7a84e1c677de54f3e99bc90260801c5b620200008216156141fd576e5d6af8dedb81196699c329225ee6040260801c5b6204000082161561421c576d2216e584f5fa1ea926041bedfe980260801c5b62080000821615614239576b048a170391f7dc42444e8fa20260801c5b60008460020b131561425a578060001981614256576142566150f4565b0490505b600160201b81061561426d576001614270565b60005b60ff16602082901c0192505050919050565b60008080600019858709858702925082811083820303915050806000036142bb57600084116142b057600080fd5b508290049050610e96565b8084116142c757600080fd5b6000848688096000868103871696879004966002600389028118808a02820302808a02820302808a02820302808a02820302808a02820302808a02909103029181900381900460010186841190950394909402919094039290920491909117919091029150509392505050565b606083156143a157825160000361439a5761434e85611ebf565b61439a5760405162461bcd60e51b815260206004820152601d60248201527f416464726573733a2063616c6c20746f206e6f6e2d636f6e74726163740000006044820152606401610998565b5081611cd9565b611cd983838151156143b65781518083602001fd5b8060405162461bcd60e51b81526004016109989190614536565b803561ffff811681146143e257600080fd5b919050565b60008083601f8401126143f957600080fd5b5081356001600160401b0381111561441057600080fd5b6020830191508360208285010111156135bc57600080fd5b80356001600160401b03811681146143e257600080fd5b6000806000806000806080878903121561445857600080fd5b614461876143d0565b955060208701356001600160401b038082111561447d57600080fd5b6144898a838b016143e7565b909750955085915061449d60408a01614428565b945060608901359150808211156144b357600080fd5b506144c089828a016143e7565b979a9699509497509295939492505050565b6001600160a01b0391909116815260200190565b60005b838110156145015781810151838201526020016144e9565b50506000910152565b600081518084526145228160208601602086016144e6565b601f01601f19169290920160200192915050565b602081526000610e96602083018461450a565b60006020828403121561455b57600080fd5b610e96826143d0565b6000806040838503121561457757600080fd5b614580836143d0565b946020939093013593505050565b6001600160a01b0381168114610b7157600080fd5b6000602082840312156145b557600080fd5b8135610e968161458e565b600080600080600080600080610100898b0312156145dd57600080fd5b88356145e88161458e565b975060208901356145f88161458e565b965060408901356146088161458e565b955060608901356146188161458e565b945061462660808a016143d0565b935061463460a08a016143d0565b925060c08901356146448161458e565b915060e08901356146548161458e565b809150509295985092959890939650565b60006020828403121561467757600080fd5b5035919050565b60008060006040848603121561469357600080fd5b61469c846143d0565b925060208401356001600160401b038111156146b757600080fd5b6146c3868287016143e7565b9497909650939450505050565b8015158114610b7157600080fd5b6000602082840312156146f057600080fd5b8135610e96816146d0565b634e487b7160e01b600052604160045260246000fd5b604051602081016001600160401b0381118282101715614733576147336146fb565b60405290565b604051601f8201601f191681016001600160401b0381118282101715614761576147616146fb565b604052919050565b60006001600160401b03821115614782576147826146fb565b50601f01601f191660200190565b600082601f8301126147a157600080fd5b81356147b46147af82614769565b614739565b8181528460208386010111156147c957600080fd5b816020850160208301376000918101602001919091529392505050565b600080600080600060a086880312156147fe57600080fd5b8535945060208601359350604086013592506060860135915060808601356001600160401b0381111561483057600080fd5b61483c88828901614790565b9150509295509295909350565b60008060006060848603121561485e57600080fd5b614867846143d0565b925060208401356001600160401b0381111561488257600080fd5b61488e86828701614790565b92505061489d60408501614428565b90509250925092565b600080604083850312156148b957600080fd5b6148c2836143d0565b91506148d0602084016143d0565b90509250929050565b60008060008060008060c087890312156148f257600080fd5b6148fb876143d0565b955060208701356001600160401b038082111561491757600080fd5b6149238a838b01614790565b9650604089013595506060890135915061493c8261458e565b9093506080880135925060a0880135908082111561495957600080fd5b5061496689828a01614790565b9150509295509295509295565b60008060008060006080868803121561498b57600080fd5b614994866143d0565b94506149a2602087016143d0565b93506040860135925060608601356001600160401b038111156149c457600080fd5b6149d0888289016143e7565b969995985093965092949392505050565b6000806000606084860312156149f657600080fd5b6149ff846143d0565b9250614a0d602085016143d0565b9150604084013590509250925092565b60008060008060808587031215614a3357600080fd5b614a3c856143d0565b9350614a4a602086016143d0565b92506040850135614a5a8161458e565b9396929550929360600135925050565b600060208284031215614a7c57600080fd5b5051919050565b600181811c90821680614a9757607f821691505b602082108103614ab757634e487b7160e01b600052602260045260246000fd5b50919050565b8183823760009101908152919050565b81835281816020850137506000828201602090810191909152601f909101601f19169091010190565b61ffff84168152604060208201526000611cd6604083018486614acd565b634e487b7160e01b600052601160045260246000fd5b81810381811115612c9a57612c9a614b14565b80820180821115612c9a57612c9a614b14565b600060018201614b6257614b62614b14565b5060010190565b634e487b7160e01b600052602160045260246000fd5b60058110614b9d57634e487b7160e01b600052602160045260246000fd5b9052565b614bab8184614b7f565b60406020820152614bc86040820183516001600160a01b03169052565b6020820151606082015260408201516080820152606082015160a0820152608082015160c082015260a082015160e0820152600060c0830151610100818185015260e08501519150610120828186015281860151925061014091508282860152808601519250506101608281860152818601519250806101808601525050614c546101a084018261450a565b95945050505050565b8284823760609190911b6001600160601b0319169101908152601401919050565b601f821115611eba57600081815260208120601f850160051c81016020861015614ca55750805b601f850160051c820191505b81811015610a1757828155600101614cb1565b600019600383901b1c191660019190911b1790565b81516001600160401b03811115614cf257614cf26146fb565b614d0681614d008454614a83565b84614c7e565b602080601f831160018114614d355760008415614d235750858301515b614d2d8582614cc4565b865550610a17565b600085815260208120601f198616915b82811015614d6457888601518255948401946001909101908401614d45565b5085821015614d825787850151600019600388901b60f8161c191681555b5050505050600190811b01905550565b60008251614da48184602087016144e6565b9190910192915050565b805160208201516001600160601b03198082169291906014831015614ddd5780818460140360031b1b83161693505b505050919050565b600061ffff808816835280871660208401525084604083015260806060830152613c0c608083018486614acd565b61ffff86168152608060208201526000614e31608083018688614acd565b6001600160401b0394909416604083015250606001529392505050565b6001600160401b03831115614e6557614e656146fb565b614e7983614e738354614a83565b83614c7e565b6000601f841160018114614ea75760008515614e955750838201355b614e9f8682614cc4565b845550610a85565b600083815260209020601f19861690835b82811015614ed85786850135825560209485019460019092019101614eb8565b5086821015614ef55760001960f88860031b161c19848701351681555b505060018560011b0183555050505050565b600060208284031215614f1957600080fd5b81516001600160401b03811115614f2f57600080fd5b8201601f81018413614f4057600080fd5b8051614f4e6147af82614769565b818152856020838501011115614f6357600080fd5b614c548260208301602086016144e6565b61ffff85168152608060208201526000614f91608083018661450a565b6001600160401b03851660408401528281036060840152613c0c818561450a565b6001600160a01b03929092168252602082015260400190565b6020808252602b908201527f496e697469616c697a61626c653a20636f6e7472616374206973206e6f74206960408201526a6e697469616c697a696e6760a81b606082015260800190565b60006020828403121561502857600080fd5b815160ff81168114610e9657600080fd5b60006020828403121561504b57600080fd5b8151610e96816146d0565b634e487b7160e01b600052603260045260246000fd5b600081518084526020808501945080840160005b8381101561509c57815187529582019590820190600101615080565b509495945050505050565b6001600160a01b03841681526060602082018190526000906150cb9083018561506c565b90508215156040830152949350505050565b8082028115828204841417612c9a57612c9a614b14565b634e487b7160e01b600052601260045260246000fd5b600082615119576151196150f4565b500490565b606081526000615131606083018661506c565b60208301949094525060400152919050565b93845260ff9290921660208401526040830152606082015260800190565b61ffff841681526001600160a01b0383166020820152606060408201819052600090611cd69083018461450a565b6001600160a01b0386811682526020820186905261ffff851660408301528316606082015260a060808201819052600090613c0c9083018461450a565b61ffff861681526001600160a01b038516602082015260a0604082018190526000906151fa9083018661450a565b84151560608401528281036080840152615214818561450a565b98975050505050505050565b6000806040838503121561523357600080fd5b505080516020909101519092909150565b61ffff8716815260c06020820152600061526160c083018861450a565b8281036040840152615273818861450a565b6001600160a01b0387811660608601528616608085015283810360a0850152905061529e818561450a565b9998505050505050505050565b61ffff8616815260a0602082015260006152c860a083018761450a565b6001600160401b038616604084015282810360608401526152e9818661450a565b90508281036080840152615214818561450a565b60006020828403121561530f57600080fd5b815160058110610e9657600080fd5b600080828403604081121561533257600080fd5b835192506020601f198201121561534857600080fd5b50615351614711565b6020939093015183525092909150565b600080828403606081121561537557600080fd5b835192506040601f198201121561538b57600080fd5b50604080519081016001600160401b03811182821017156153ae576153ae6146fb565b60409081526020858101518352940151938101939093525092909150565b60008082840360408112156153e057600080fd5b835192506020601f19820112156153f657600080fd5b506153ff614711565b602084015161540d8161458e565b8152919491935090915050565b602081526000825160a0602084015261543660c084018261450a565b905060018060a01b0360208501511660408401526040840151606084015260608401516080840152608084015160a08401528091505092915050565b60a081016154808285614b7f565b60018060a01b0383511660208301526020830151604083015260408301516060830152606083015160808301529392505050565b6020808252825182820181905260009190848201906040850190845b818110156154f257835163ffffffff16835292840192918401916001016154d0565b50909695505050505050565b60006001600160401b03821115615517576155176146fb565b5060051b60200190565b600082601f83011261553257600080fd5b815160206155426147af836154fe565b82815260059290921b8401810191818101908684111561556157600080fd5b8286015b848110156155855780516155788161458e565b8352918301918301615565565b509695505050505050565b600080604083850312156155a357600080fd5b82516001600160401b03808211156155ba57600080fd5b818501915085601f8301126155ce57600080fd5b815160206155de6147af836154fe565b82815260059290921b840181019181810190898411156155fd57600080fd5b948201945b8386101561562b5785518060060b811461561c5760008081fd5b82529482019490820190615602565b9188015191965090935050508082111561564457600080fd5b5061565185828601615521565b9150509250929050565b600682810b9082900b03667fffffffffffff198112667fffffffffffff82131715612c9a57612c9a614b14565b6001600160a01b038281168282160390808211156156a8576156a8614b14565b5092915050565b60008160060b8360060b806156c6576156c66150f4565b667fffffffffffff198214600019821416156156e4576156e4614b14565b90059392505050565b60008260060b80615700576157006150f4565b808360060b0791505092915050565b60008160020b627fffff19810361572857615728614b14565b6000190192915050565b6001600160c01b0382811682821681810283169291811582850482141761575b5761575b614b14565b50505092915050565b60006001600160c01b038381168061577e5761577e6150f4565b9216919091049291505056fe000000000000000000000000b0cabfe930642ad3e7decdc741884d8c3f7ebc7000000000000000000000000010541b07d8ad2647dc6cd67abd4c03575dade261b0c58532a125fc3c0adccaef396bf65344a4d5781cec2e4c593e6b611d75f150a26469706673582212208e4b187f3450abc62b69540540738c88155c83fb27845bc22db584301fcf252e64736f6c63430008130033",
  "linkReferences": {},
  "deployedLinkReferences": {}
}