{
  "_format": "hh-sol-artifact-1",
  "contractName": "HopStrategy",
  "sourceName": "contracts/strategies/HopStrategy.sol",
  "abi": [
    {
      "inputs": [
        {
          "internalType": "uint256",
          "name": "messageType",
          "type": "uint256"
        }
      ],
      "name": "IncorrectMessageType",
      "type": "error"
    },
    {
      "inputs": [
        {
          "internalType": "uint256",
          "name": "amount",
          "type": "uint256"
        },
        {
          "internalType": "uint256",
          "name": "balance",
          "type": "uint256"
        }
      ],
      "name": "InsufficientFunds",
      "type": "error"
    },
    {
      "inputs": [],
      "name": "T",
      "type": "error"
    },
    {
      "anonymous": false,
      "inputs": [
        {
          "indexed": false,
          "internalType": "uint256",
          "name": "debtOutstanding",
          "type": "uint256"
        }
      ],
      "name": "AdjustedPosition",
      "type": "event"
    },
    {
      "anonymous": false,
      "inputs": [
        {
          "indexed": false,
          "internalType": "uint8",
          "name": "version",
          "type": "uint8"
        }
      ],
      "name": "Initialized",
      "type": "event"
    },
    {
      "anonymous": false,
      "inputs": [
        {
          "indexed": false,
          "internalType": "uint16",
          "name": "_srcChainId",
          "type": "uint16"
        },
        {
          "indexed": false,
          "internalType": "bytes",
          "name": "_srcAddress",
          "type": "bytes"
        },
        {
          "indexed": false,
          "internalType": "uint64",
          "name": "_nonce",
          "type": "uint64"
        },
        {
          "indexed": false,
          "internalType": "bytes",
          "name": "_payload",
          "type": "bytes"
        },
        {
          "indexed": false,
          "internalType": "bytes",
          "name": "_reason",
          "type": "bytes"
        }
      ],
      "name": "MessageFailed",
      "type": "event"
    },
    {
      "anonymous": false,
      "inputs": [
        {
          "indexed": true,
          "internalType": "address",
          "name": "previousOwner",
          "type": "address"
        },
        {
          "indexed": true,
          "internalType": "address",
          "name": "newOwner",
          "type": "address"
        }
      ],
      "name": "OwnershipTransferred",
      "type": "event"
    },
    {
      "anonymous": false,
      "inputs": [
        {
          "indexed": false,
          "internalType": "uint16",
          "name": "_srcChainId",
          "type": "uint16"
        },
        {
          "indexed": false,
          "internalType": "bytes",
          "name": "_srcAddress",
          "type": "bytes"
        },
        {
          "indexed": false,
          "internalType": "uint64",
          "name": "_nonce",
          "type": "uint64"
        },
        {
          "indexed": false,
          "internalType": "bytes32",
          "name": "_payloadHash",
          "type": "bytes32"
        }
      ],
      "name": "RetryMessageSuccess",
      "type": "event"
    },
    {
      "anonymous": false,
      "inputs": [
        {
          "indexed": false,
          "internalType": "uint16",
          "name": "_dstChainId",
          "type": "uint16"
        },
        {
          "indexed": false,
          "internalType": "uint16",
          "name": "_type",
          "type": "uint16"
        },
        {
          "indexed": false,
          "internalType": "uint256",
          "name": "_minDstGas",
          "type": "uint256"
        }
      ],
      "name": "SetMinDstGas",
      "type": "event"
    },
    {
      "anonymous": false,
      "inputs": [
        {
          "indexed": false,
          "internalType": "address",
          "name": "precrime",
          "type": "address"
        }
      ],
      "name": "SetPrecrime",
      "type": "event"
    },
    {
      "anonymous": false,
      "inputs": [
        {
          "indexed": false,
          "internalType": "uint16",
          "name": "_remoteChainId",
          "type": "uint16"
        },
        {
          "indexed": false,
          "internalType": "bytes",
          "name": "_path",
          "type": "bytes"
        }
      ],
      "name": "SetTrustedRemote",
      "type": "event"
    },
    {
      "anonymous": false,
      "inputs": [
        {
          "indexed": false,
          "internalType": "uint16",
          "name": "_remoteChainId",
          "type": "uint16"
        },
        {
          "indexed": false,
          "internalType": "bytes",
          "name": "_remoteAddress",
          "type": "bytes"
        }
      ],
      "name": "SetTrustedRemoteAddress",
      "type": "event"
    },
    {
      "anonymous": false,
      "inputs": [
        {
          "indexed": true,
          "internalType": "address",
          "name": "token",
          "type": "address"
        },
        {
          "indexed": false,
          "internalType": "uint256",
          "name": "amount",
          "type": "uint256"
        },
        {
          "indexed": false,
          "internalType": "address",
          "name": "sender",
          "type": "address"
        }
      ],
      "name": "SgReceived",
      "type": "event"
    },
    {
      "anonymous": false,
      "inputs": [
        {
          "indexed": false,
          "internalType": "address",
          "name": "newStrategy",
          "type": "address"
        }
      ],
      "name": "StrategyMigrated",
      "type": "event"
    },
    {
      "anonymous": false,
      "inputs": [
        {
          "indexed": false,
          "internalType": "uint256",
          "name": "profit",
          "type": "uint256"
        },
        {
          "indexed": false,
          "internalType": "uint256",
          "name": "loss",
          "type": "uint256"
        },
        {
          "indexed": false,
          "internalType": "uint256",
          "name": "debtPayment",
          "type": "uint256"
        },
        {
          "indexed": false,
          "internalType": "uint256",
          "name": "giveToStrategy",
          "type": "uint256"
        },
        {
          "indexed": false,
          "internalType": "uint256",
          "name": "requestFromStrategy",
          "type": "uint256"
        },
        {
          "indexed": false,
          "internalType": "uint256",
          "name": "creditAvailable",
          "type": "uint256"
        },
        {
          "indexed": false,
          "internalType": "uint256",
          "name": "totalAssets",
          "type": "uint256"
        }
      ],
      "name": "StrategyReported",
      "type": "event"
    },
    {
      "inputs": [],
      "name": "DEFAULT_PAYLOAD_SIZE_LIMIT",
      "outputs": [
        {
          "internalType": "uint256",
          "name": "",
          "type": "uint256"
        }
      ],
      "stateMutability": "view",
      "type": "function"
    },
    {
      "inputs": [
        {
          "internalType": "uint256",
          "name": "_debtOutstanding",
          "type": "uint256"
        }
      ],
      "name": "adjustPosition",
      "outputs": [],
      "stateMutability": "nonpayable",
      "type": "function"
    },
    {
      "inputs": [],
      "name": "balanceOfWant",
      "outputs": [
        {
          "internalType": "uint256",
          "name": "",
          "type": "uint256"
        }
      ],
      "stateMutability": "view",
      "type": "function"
    },
    {
      "inputs": [
        {
          "internalType": "uint256",
          "name": "epoch",
          "type": "uint256"
        }
      ],
      "name": "callMe",
      "outputs": [],
      "stateMutability": "nonpayable",
      "type": "function"
    },
    {
      "inputs": [],
      "name": "clearWant",
      "outputs": [],
      "stateMutability": "nonpayable",
      "type": "function"
    },
    {
      "inputs": [],
      "name": "currentChainId",
      "outputs": [
        {
          "internalType": "uint16",
          "name": "",
          "type": "uint16"
        }
      ],
      "stateMutability": "view",
      "type": "function"
    },
    {
      "inputs": [],
      "name": "emergencyExit",
      "outputs": [
        {
          "internalType": "bool",
          "name": "",
          "type": "bool"
        }
      ],
      "stateMutability": "view",
      "type": "function"
    },
    {
      "inputs": [],
      "name": "estimatedTotalAssets",
      "outputs": [
        {
          "internalType": "uint256",
          "name": "",
          "type": "uint256"
        }
      ],
      "stateMutability": "view",
      "type": "function"
    },
    {
      "inputs": [
        {
          "internalType": "uint16",
          "name": "",
          "type": "uint16"
        },
        {
          "internalType": "bytes",
          "name": "",
          "type": "bytes"
        },
        {
          "internalType": "uint64",
          "name": "",
          "type": "uint64"
        }
      ],
      "name": "failedMessages",
      "outputs": [
        {
          "internalType": "bytes32",
          "name": "",
          "type": "bytes32"
        }
      ],
      "stateMutability": "view",
      "type": "function"
    },
    {
      "inputs": [
        {
          "internalType": "uint16",
          "name": "_srcChainId",
          "type": "uint16"
        },
        {
          "internalType": "bytes",
          "name": "_srcAddress",
          "type": "bytes"
        }
      ],
      "name": "forceResumeReceive",
      "outputs": [],
      "stateMutability": "nonpayable",
      "type": "function"
    },
    {
      "inputs": [
        {
          "internalType": "uint16",
          "name": "_version",
          "type": "uint16"
        },
        {
          "internalType": "uint16",
          "name": "_chainId",
          "type": "uint16"
        },
        {
          "internalType": "address",
          "name": "",
          "type": "address"
        },
        {
          "internalType": "uint256",
          "name": "_configType",
          "type": "uint256"
        }
      ],
      "name": "getConfig",
      "outputs": [
        {
          "internalType": "bytes",
          "name": "",
          "type": "bytes"
        }
      ],
      "stateMutability": "view",
      "type": "function"
    },
    {
      "inputs": [
        {
          "internalType": "bytes32",
          "name": "_messageHash",
          "type": "bytes32"
        }
      ],
      "name": "getEthSignedMessageHash",
      "outputs": [
        {
          "internalType": "bytes32",
          "name": "",
          "type": "bytes32"
        }
      ],
      "stateMutability": "pure",
      "type": "function"
    },
    {
      "inputs": [
        {
          "internalType": "uint16",
          "name": "_remoteChainId",
          "type": "uint16"
        }
      ],
      "name": "getTrustedRemoteAddress",
      "outputs": [
        {
          "internalType": "bytes",
          "name": "",
          "type": "bytes"
        }
      ],
      "stateMutability": "view",
      "type": "function"
    },
    {
      "inputs": [
        {
          "internalType": "uint256",
          "name": "_totalDebt",
          "type": "uint256"
        },
        {
          "internalType": "uint256",
          "name": "_debtOutstanding",
          "type": "uint256"
        },
        {
          "internalType": "uint256",
          "name": "_creditAvailable",
          "type": "uint256"
        },
        {
          "internalType": "uint256",
          "name": "_debtRatio",
          "type": "uint256"
        },
        {
          "internalType": "bytes",
          "name": "_signature",
          "type": "bytes"
        }
      ],
      "name": "harvest",
      "outputs": [],
      "stateMutability": "nonpayable",
      "type": "function"
    },
    {
      "inputs": [
        {
          "internalType": "address",
          "name": "_lzEndpoint",
          "type": "address"
        },
        {
          "internalType": "address",
          "name": "_strategist",
          "type": "address"
        },
        {
          "internalType": "contract IERC20",
          "name": "_want",
          "type": "address"
        },
        {
          "internalType": "address",
          "name": "_vault",
          "type": "address"
        },
        {
          "internalType": "uint16",
          "name": "_vaultChainId",
          "type": "uint16"
        },
        {
          "internalType": "address",
          "name": "_sgBridge",
          "type": "address"
        },
        {
          "internalType": "address",
          "name": "_sgRouter",
          "type": "address"
        },
        {
          "internalType": "uint256",
          "name": "_slippage",
          "type": "uint256"
        }
      ],
      "name": "initialize",
      "outputs": [],
      "stateMutability": "nonpayable",
      "type": "function"
    },
    {
      "inputs": [
        {
          "internalType": "uint16",
          "name": "_srcChainId",
          "type": "uint16"
        },
        {
          "internalType": "bytes",
          "name": "_srcAddress",
          "type": "bytes"
        }
      ],
      "name": "isTrustedRemote",
      "outputs": [
        {
          "internalType": "bool",
          "name": "",
          "type": "bool"
        }
      ],
      "stateMutability": "view",
      "type": "function"
    },
    {
      "inputs": [],
      "name": "lzEndpoint",
      "outputs": [
        {
          "internalType": "contract ILayerZeroEndpointUpgradeable",
          "name": "",
          "type": "address"
        }
      ],
      "stateMutability": "view",
      "type": "function"
    },
    {
      "inputs": [
        {
          "internalType": "uint16",
          "name": "_srcChainId",
          "type": "uint16"
        },
        {
          "internalType": "bytes",
          "name": "_srcAddress",
          "type": "bytes"
        },
        {
          "internalType": "uint64",
          "name": "_nonce",
          "type": "uint64"
        },
        {
          "internalType": "bytes",
          "name": "_payload",
          "type": "bytes"
        }
      ],
      "name": "lzReceive",
      "outputs": [],
      "stateMutability": "nonpayable",
      "type": "function"
    },
    {
      "inputs": [
        {
          "internalType": "uint16",
          "name": "",
          "type": "uint16"
        },
        {
          "internalType": "uint16",
          "name": "",
          "type": "uint16"
        }
      ],
      "name": "minDstGasLookup",
      "outputs": [
        {
          "internalType": "uint256",
          "name": "",
          "type": "uint256"
        }
      ],
      "stateMutability": "view",
      "type": "function"
    },
    {
      "inputs": [],
      "name": "name",
      "outputs": [
        {
          "internalType": "string",
          "name": "",
          "type": "string"
        }
      ],
      "stateMutability": "pure",
      "type": "function"
    },
    {
      "inputs": [
        {
          "internalType": "uint16",
          "name": "_srcChainId",
          "type": "uint16"
        },
        {
          "internalType": "bytes",
          "name": "_srcAddress",
          "type": "bytes"
        },
        {
          "internalType": "uint64",
          "name": "_nonce",
          "type": "uint64"
        },
        {
          "internalType": "bytes",
          "name": "_payload",
          "type": "bytes"
        }
      ],
      "name": "nonblockingLzReceive",
      "outputs": [],
      "stateMutability": "nonpayable",
      "type": "function"
    },
    {
      "inputs": [],
      "name": "owner",
      "outputs": [
        {
          "internalType": "address",
          "name": "",
          "type": "address"
        }
      ],
      "stateMutability": "view",
      "type": "function"
    },
    {
      "inputs": [
        {
          "internalType": "uint16",
          "name": "",
          "type": "uint16"
        }
      ],
      "name": "payloadSizeLimitLookup",
      "outputs": [
        {
          "internalType": "uint256",
          "name": "",
          "type": "uint256"
        }
      ],
      "stateMutability": "view",
      "type": "function"
    },
    {
      "inputs": [],
      "name": "precrime",
      "outputs": [
        {
          "internalType": "address",
          "name": "",
          "type": "address"
        }
      ],
      "stateMutability": "view",
      "type": "function"
    },
    {
      "inputs": [],
      "name": "renounceOwnership",
      "outputs": [],
      "stateMutability": "nonpayable",
      "type": "function"
    },
    {
      "inputs": [
        {
          "internalType": "uint16",
          "name": "_srcChainId",
          "type": "uint16"
        },
        {
          "internalType": "bytes",
          "name": "_srcAddress",
          "type": "bytes"
        },
        {
          "internalType": "uint64",
          "name": "_nonce",
          "type": "uint64"
        },
        {
          "internalType": "bytes",
          "name": "_payload",
          "type": "bytes"
        }
      ],
      "name": "retryMessage",
      "outputs": [],
      "stateMutability": "payable",
      "type": "function"
    },
    {
      "inputs": [],
      "name": "revokeFunds",
      "outputs": [],
      "stateMutability": "nonpayable",
      "type": "function"
    },
    {
      "inputs": [
        {
          "internalType": "uint16",
          "name": "_version",
          "type": "uint16"
        },
        {
          "internalType": "uint16",
          "name": "_chainId",
          "type": "uint16"
        },
        {
          "internalType": "uint256",
          "name": "_configType",
          "type": "uint256"
        },
        {
          "internalType": "bytes",
          "name": "_config",
          "type": "bytes"
        }
      ],
      "name": "setConfig",
      "outputs": [],
      "stateMutability": "nonpayable",
      "type": "function"
    },
    {
      "inputs": [
        {
          "internalType": "bool",
          "name": "_emergencyExit",
          "type": "bool"
        }
      ],
      "name": "setEmergencyExit",
      "outputs": [],
      "stateMutability": "nonpayable",
      "type": "function"
    },
    {
      "inputs": [
        {
          "internalType": "uint16",
          "name": "_dstChainId",
          "type": "uint16"
        },
        {
          "internalType": "uint16",
          "name": "_packetType",
          "type": "uint16"
        },
        {
          "internalType": "uint256",
          "name": "_minGas",
          "type": "uint256"
        }
      ],
      "name": "setMinDstGas",
      "outputs": [],
      "stateMutability": "nonpayable",
      "type": "function"
    },
    {
      "inputs": [
        {
          "internalType": "uint16",
          "name": "_dstChainId",
          "type": "uint16"
        },
        {
          "internalType": "uint256",
          "name": "_size",
          "type": "uint256"
        }
      ],
      "name": "setPayloadSizeLimit",
      "outputs": [],
      "stateMutability": "nonpayable",
      "type": "function"
    },
    {
      "inputs": [
        {
          "internalType": "address",
          "name": "_precrime",
          "type": "address"
        }
      ],
      "name": "setPrecrime",
      "outputs": [],
      "stateMutability": "nonpayable",
      "type": "function"
    },
    {
      "inputs": [
        {
          "internalType": "uint16",
          "name": "_version",
          "type": "uint16"
        }
      ],
      "name": "setReceiveVersion",
      "outputs": [],
      "stateMutability": "nonpayable",
      "type": "function"
    },
    {
      "inputs": [
        {
          "internalType": "uint16",
          "name": "_version",
          "type": "uint16"
        }
      ],
      "name": "setSendVersion",
      "outputs": [],
      "stateMutability": "nonpayable",
      "type": "function"
    },
    {
      "inputs": [
        {
          "internalType": "uint256",
          "name": "_slippage",
          "type": "uint256"
        }
      ],
      "name": "setSlippage",
      "outputs": [],
      "stateMutability": "nonpayable",
      "type": "function"
    },
    {
      "inputs": [
        {
          "internalType": "address",
          "name": "_strategist",
          "type": "address"
        }
      ],
      "name": "setStrategist",
      "outputs": [],
      "stateMutability": "nonpayable",
      "type": "function"
    },
    {
      "inputs": [
        {
          "internalType": "uint16",
          "name": "_srcChainId",
          "type": "uint16"
        },
        {
          "internalType": "bytes",
          "name": "_path",
          "type": "bytes"
        }
      ],
      "name": "setTrustedRemote",
      "outputs": [],
      "stateMutability": "nonpayable",
      "type": "function"
    },
    {
      "inputs": [
        {
          "internalType": "uint16",
          "name": "_remoteChainId",
          "type": "uint16"
        },
        {
          "internalType": "bytes",
          "name": "_remoteAddress",
          "type": "bytes"
        }
      ],
      "name": "setTrustedRemoteAddress",
      "outputs": [],
      "stateMutability": "nonpayable",
      "type": "function"
    },
    {
      "inputs": [],
      "name": "sgBridge",
      "outputs": [
        {
          "internalType": "contract ISgBridge",
          "name": "",
          "type": "address"
        }
      ],
      "stateMutability": "view",
      "type": "function"
    },
    {
      "inputs": [
        {
          "internalType": "uint16",
          "name": "",
          "type": "uint16"
        },
        {
          "internalType": "bytes",
          "name": "_srcAddress",
          "type": "bytes"
        },
        {
          "internalType": "uint256",
          "name": "",
          "type": "uint256"
        },
        {
          "internalType": "address",
          "name": "_token",
          "type": "address"
        },
        {
          "internalType": "uint256",
          "name": "_amountLD",
          "type": "uint256"
        },
        {
          "internalType": "bytes",
          "name": "",
          "type": "bytes"
        }
      ],
      "name": "sgReceive",
      "outputs": [],
      "stateMutability": "nonpayable",
      "type": "function"
    },
    {
      "inputs": [],
      "name": "sgRouter",
      "outputs": [
        {
          "internalType": "contract IStargateRouter",
          "name": "",
          "type": "address"
        }
      ],
      "stateMutability": "view",
      "type": "function"
    },
    {
      "inputs": [],
      "name": "slippage",
      "outputs": [
        {
          "internalType": "uint256",
          "name": "",
          "type": "uint256"
        }
      ],
      "stateMutability": "view",
      "type": "function"
    },
    {
      "inputs": [],
      "name": "strategist",
      "outputs": [
        {
          "internalType": "address",
          "name": "",
          "type": "address"
        }
      ],
      "stateMutability": "view",
      "type": "function"
    },
    {
      "inputs": [],
      "name": "strategistSignMessageHash",
      "outputs": [
        {
          "internalType": "bytes32",
          "name": "",
          "type": "bytes32"
        }
      ],
      "stateMutability": "view",
      "type": "function"
    },
    {
      "inputs": [
        {
          "internalType": "contract IERC20",
          "name": "_token",
          "type": "address"
        }
      ],
      "name": "sweepToken",
      "outputs": [],
      "stateMutability": "nonpayable",
      "type": "function"
    },
    {
      "inputs": [
        {
          "internalType": "address",
          "name": "newOwner",
          "type": "address"
        }
      ],
      "name": "transferOwnership",
      "outputs": [],
      "stateMutability": "nonpayable",
      "type": "function"
    },
    {
      "inputs": [
        {
          "internalType": "uint16",
          "name": "",
          "type": "uint16"
        }
      ],
      "name": "trustedRemoteLookup",
      "outputs": [
        {
          "internalType": "bytes",
          "name": "",
          "type": "bytes"
        }
      ],
      "stateMutability": "view",
      "type": "function"
    },
    {
      "inputs": [],
      "name": "vault",
      "outputs": [
        {
          "internalType": "address",
          "name": "",
          "type": "address"
        }
      ],
      "stateMutability": "view",
      "type": "function"
    },
    {
      "inputs": [],
      "name": "vaultChainId",
      "outputs": [
        {
          "internalType": "uint16",
          "name": "",
          "type": "uint16"
        }
      ],
      "stateMutability": "view",
      "type": "function"
    },
    {
      "inputs": [],
      "name": "want",
      "outputs": [
        {
          "internalType": "contract IERC20",
          "name": "",
          "type": "address"
        }
      ],
      "stateMutability": "view",
      "type": "function"
    },
    {
      "inputs": [],
      "name": "wantDecimals",
      "outputs": [
        {
          "internalType": "uint8",
          "name": "",
          "type": "uint8"
        }
      ],
      "stateMutability": "view",
      "type": "function"
    },
    {
      "stateMutability": "payable",
      "type": "receive"
    }
  ],
  "bytecode": "0x608060405234801561001057600080fd5b506157f680620000216000396000f3fe6080604052600436106102475760003560e01c80621d3567146102535780630517cb761461027557806306fdde03146102ab57806307e0db17146102e85780630df374831461030857806310ddb137146103285780631be19560146103485780631f1fcd51146103685780631fe4a686146103885780632d606843146103a857806337fded91146103bd5780633d3ccc2f146103e25780633d8b38f6146104025780633e032a3b146104325780633f1f4fa41461045657806342d65a8d1461048357806345ee0755146104a3578063495f881e146104c35780635641ec03146104e3578063567ad85d146104fd578063593178de146105325780635b8c41e61461054757806366ad5c8a146105965780636cbadbfa146105b6578063715018a6146105d85780637533d788146105ed5780637f5555651461060d5780638cfd8f5c1461062d5780638da5cb5b14610665578063950c8a741461067a5780639606647d1461069a5780639f38369a146106af578063a6c3d165146106cf578063ab8236f3146106ef578063adf076e61461070f578063b353aaa714610742578063baf3292d14610762578063c1a3d44c14610782578063c446183414610797578063c7b9d530146107ad578063cbed8b9c146107cd578063d1deba1f146107ed578063df2a5b3b14610800578063e73620c314610820578063eb8d72b714610840578063efbb5cb014610860578063f0fa55a914610875578063f2fde38b14610895578063f5ecbdbc146108b5578063fa540801146108d5578063fbfa77cf146108f557600080fd5b3661024e57005b600080fd5b34801561025f57600080fd5b5061027361026e36600461441c565b610915565b005b34801561028157600080fd5b5060ce54610295906001600160a01b031681565b6040516102a291906144af565b60405180910390f35b3480156102b757600080fd5b5060408051808201909152600b81526a486f70537472617465677960a81b60208201525b6040516102a29190614513565b3480156102f457600080fd5b50610273610303366004614526565b6109fe565b34801561031457600080fd5b50610273610323366004614541565b610a6b565b34801561033457600080fd5b50610273610343366004614526565b610a8a565b34801561035457600080fd5b50610273610363366004614580565b610ac6565b34801561037457600080fd5b5060ca54610295906001600160a01b031681565b34801561039457600080fd5b5060c954610295906001600160a01b031681565b3480156103b457600080fd5b50610273610b53565b3480156103c957600080fd5b5060cd546102959061010090046001600160a01b031681565b3480156103ee57600080fd5b506102736103fd36600461459d565b610b94565b34801561040e57600080fd5b5061042261041d3660046145b6565b610bca565b60405190151581526020016102a2565b34801561043e57600080fd5b5061044860cc5481565b6040519081526020016102a2565b34801561046257600080fd5b50610448610471366004614526565b60686020526000908152604090205481565b34801561048f57600080fd5b5061027361049e3660046145b6565b610c97565b3480156104af57600080fd5b506102736104be366004614616565b610d0a565b3480156104cf57600080fd5b506102736104de36600461471e565b610d25565b3480156104ef57600080fd5b5060cd546104229060ff1681565b34801561050957600080fd5b5060cb5461051f90600160a01b900461ffff1681565b60405161ffff90911681526020016102a2565b34801561053e57600080fd5b50610448610fc9565b34801561055357600080fd5b50610448610562366004614781565b6097602090815260009384526040808520845180860184018051928152908401958401959095209452929052825290205481565b3480156105a257600080fd5b506102736105b136600461441c565b611027565b3480156105c257600080fd5b5060cb5461051f90600160b01b900461ffff1681565b3480156105e457600080fd5b506102736110fb565b3480156105f957600080fd5b506102db610608366004614526565b61110f565b34801561061957600080fd5b506102736106283660046147de565b6111a9565b34801561063957600080fd5b5061044861064836600461487c565b606760209081526000928352604080842090915290825290205481565b34801561067157600080fd5b5061029561138c565b34801561068657600080fd5b50606954610295906001600160a01b031681565b3480156106a657600080fd5b5061027361139b565b3480156106bb57600080fd5b506102db6106ca366004614526565b61142e565b3480156106db57600080fd5b506102736106ea3660046145b6565b61153d565b3480156106fb57600080fd5b5061027361070a3660046148af565b6115c6565b34801561071b57600080fd5b5060cb5461073090600160c01b900460ff1681565b60405160ff90911681526020016102a2565b34801561074e57600080fd5b50606554610295906001600160a01b031681565b34801561076e57600080fd5b5061027361077d366004614580565b6116c4565b34801561078e57600080fd5b50610448611717565b3480156107a357600080fd5b5061044861271081565b3480156107b957600080fd5b506102736107c8366004614580565b61178e565b3480156107d957600080fd5b506102736107e8366004614949565b6117b8565b6102736107fb36600461441c565b611826565b34801561080c57600080fd5b5061027361081b3660046149b7565b611a3c565b34801561082c57600080fd5b5061027361083b36600461459d565b611aee565b34801561084c57600080fd5b5061027361085b3660046145b6565b611b0e565b34801561086c57600080fd5b50610448611b68565b34801561088157600080fd5b5061027361089036600461459d565b611ba6565b3480156108a157600080fd5b506102736108b0366004614580565b611bb3565b3480156108c157600080fd5b506102db6108d03660046149f3565b611c29565b3480156108e157600080fd5b506104486108f036600461459d565b611cbe565b34801561090157600080fd5b5060cb54610295906001600160a01b031681565b6065546001600160a01b031633146109805760405162461bcd60e51b815260206004820152602360248201527f4261736553747261746567793a3a496e76616c6964456e64706f696e7443616c6044820152623632b960e91b60648201526084015b60405180910390fd5b6109f68686868080601f01602080910402602001604051908101604052809392919081815260200183838082843760009201919091525050604080516020601f890181900481028201810190925287815289935091508790879081908401838280828437600092019190915250611d1092505050565b505050505050565b610a06611d89565b6065546040516307e0db1760e01b815261ffff831660048201526001600160a01b03909116906307e0db17906024015b600060405180830381600087803b158015610a5057600080fd5b505af1158015610a64573d6000803e3d6000fd5b5050505050565b610a73611d89565b61ffff909116600090815260686020526040902055565b610a92611d89565b6065546040516310ddb13760e01b815261ffff831660048201526001600160a01b03909116906310ddb13790602401610a36565b610ace611de8565b610b5033826001600160a01b03166370a08231306040518263ffffffff1660e01b8152600401610afe91906144af565b602060405180830381865afa158015610b1b573d6000803e3d6000fd5b505050506040513d601f19601f82011682018060405250810190610b3f9190614a40565b6001600160a01b0384169190611e41565b50565b610b5b611de8565b60c9546040516001600160a01b03909116904780156108fc02916000818181858888f19350505050158015610b50573d6000803e3d6000fd5b610b9c611de8565b610ba581611e9c565b6040518181526000805160206157a1833981519152906020015b60405180910390a150565b61ffff831660009081526066602052604081208054829190610beb90614a59565b80601f0160208091040260200160405190810160405280929190818152602001828054610c1790614a59565b8015610c645780601f10610c3957610100808354040283529160200191610c64565b820191906000526020600020905b815481529060010190602001808311610c4757829003601f168201915b505050505090508383604051610c7b929190614a93565b60405180910390208180519060200120149150505b9392505050565b610c9f611d89565b6065546040516342d65a8d60e01b81526001600160a01b03909116906342d65a8d90610cd390869086908690600401614acc565b600060405180830381600087803b158015610ced57600080fd5b505af1158015610d01573d6000803e3d6000fd5b50505050505050565b610d12611de8565b60cd805460ff1916911515919091179055565b610d2d611de8565b610d3681612132565b60cd546000908190819060ff1615610de2578415610d965760405162461bcd60e51b815260206004820152601e60248201527f4261736553747261746567793a3a44656274526174696f4e6f745a65726f00006044820152606401610977565b6000610da06121b8565b905087811015610dbb57610db48189614b00565b9250610dd0565b87811115610dd057610dcd8882614b00565b93505b610dda8389614b00565b915050610df4565b610dec8888612321565b919450925090505b6000610e008285614b13565b905060008088831015610e2257610e17838a614b00565b915060009050610e33565b60009150610e308984614b00565b90505b6000604051806101600160405280306001600160a01b031681526020014281526020018881526020018781526020018681526020018481526020018381526020018b815260200183610e83611b68565b610e8d9190614b00565b815260200160d06000815480929190610ea590614b26565b90915550815260200189905290508115610f055760cb54604051610f0091849161ffff600160a01b830416916001600160a01b031690610eec906002908790602001614b77565b604051602081830303815290604052612418565b610f30565b610f30600282604051602001610f1c929190614b77565b6040516020818303038152906040526124f2565b7fb983e09c034e9c52b5e547cb0589967992b97717733f580cc5ad0afcdc4b522b8160400151826060015183608001518460a001518560c001518660e00151876101000151604051610fb39796959493929190968752602087019590955260408601939093526060850191909152608084015260a083015260c082015260e00190565b60405180910390a1505050505050505050505050565b60d05460cb546040513060601b6001600160601b03191660208201526034810192909252600160b01b900460f01b6001600160f01b031916605482015260009060560160405160208183030381529060405280519060200120905090565b3330146110855760405162461bcd60e51b815260206004820152602660248201527f4e6f6e626c6f636b696e674c7a4170703a2063616c6c6572206d7573742062656044820152650204c7a4170760d41b6064820152608401610977565b6109f68686868080601f01602080910402602001604051908101604052809392919081815260200183838082843760009201919091525050604080516020601f89018190048102820181019092528781528993509150879087908190840183828082843760009201919091525061267292505050565b611103611d89565b61110d6000612788565b565b6066602052600090815260409020805461112890614a59565b80601f016020809104026020016040519081016040528092919081815260200182805461115490614a59565b80156111a15780601f10611176576101008083540402835291602001916111a1565b820191906000526020600020905b81548152906001019060200180831161118457829003601f168201915b505050505081565b600054610100900460ff16158080156111c95750600054600160ff909116105b806111ea57506111d8306127da565b1580156111ea575060005460ff166001145b61124d5760405162461bcd60e51b815260206004820152602e60248201527f496e697469616c697a61626c653a20636f6e747261637420697320616c72656160448201526d191e481a5b9a5d1a585b1a5e995960921b6064820152608401610977565b6000805460ff191660011790558015611270576000805461ff0019166101001790555b6112818989898989468a8a8a6127e9565b6112b073b67c014fa700e69681a673876eb8bafaa36bff716000805160206157618339815191526000196129bc565b6112df73b67c014fa700e69681a673876eb8bafaa36bff716000805160206157818339815191526000196129bc565b61131473c5102fe9359fd9a28f877a67e36b0f050d81a3cc73e592427a0aece92de3edee1f18e0157c058615646000196129bc565b60ca5461133b906001600160a01b03166000805160206157818339815191526000196129bc565b8015611381576000805461ff0019169055604051600181527f7f26b83ff96e1f2b6a682f133852f6798a09c465da95921460cefb38474024989060200160405180910390a15b505050505050505050565b6033546001600160a01b031690565b6113a3611de8565b60ca546040516370a0823160e01b815261110d916001916001600160a01b03909116906370a08231906113da9030906004016144af565b602060405180830381865afa1580156113f7573d6000803e3d6000fd5b505050506040513d601f19601f8201168201806040525081019061141b9190614a40565b60ca546001600160a01b03169190611e41565b61ffff811660009081526066602052604081208054606092919061145190614a59565b80601f016020809104026020016040519081016040528092919081815260200182805461147d90614a59565b80156114ca5780601f1061149f576101008083540402835291602001916114ca565b820191906000526020600020905b8154815290600101906020018083116114ad57829003601f168201915b5050505050905080516000036115225760405162461bcd60e51b815260206004820152601d60248201527f4c7a4170703a206e6f20747275737465642070617468207265636f72640000006044820152606401610977565b610c906000601483516115359190614b00565b839190612ac0565b611545611d89565b81813060405160200161155a93929190614c33565b60408051601f1981840301815291815261ffff85166000908152606660205220906115859082614caf565b507f8c0400cfe2d1199b1a725c78960bcc2a344d869b80590d0f2bd005db15a572ce8383836040516115b993929190614acc565b60405180910390a1505050565b60ce546001600160a01b03163314806115ee575060cd5461010090046001600160a01b031633145b6116395760405162461bcd60e51b815260206004820152601c60248201527b53674272696467653a3a526f757465724f724272696467654f6e6c7960201b6044820152606401610977565b600061164786826014612ac0565b6040516020016116579190614d68565b60405160208183030381529060405261166f90614d84565b6040805185815260609290921c6020830181905292506001600160a01b038616917f92073a89a07a000083eb8b2575fc15e7bb936efe55d00727d6942a796d7211a7910160405180910390a250505050505050565b6116cc611d89565b606980546001600160a01b0319166001600160a01b0383161790556040517f5db758e995a17ec1ad84bdef7e8c3293a0bd6179bcce400dff5d4c3d87db726b90610bbf9083906144af565b60ca546040516370a0823160e01b81526000916001600160a01b0316906370a08231906117489030906004016144af565b602060405180830381865afa158015611765573d6000803e3d6000fd5b505050506040513d601f19601f820116820180604052508101906117899190614a40565b905090565b611796611d89565b60c980546001600160a01b0319166001600160a01b0392909216919091179055565b6117c0611d89565b6065546040516332fb62e760e21b81526001600160a01b039091169063cbed8b9c906117f89088908890889088908890600401614dbb565b600060405180830381600087803b15801561181257600080fd5b505af1158015611381573d6000803e3d6000fd5b61ffff861660009081526097602052604080822090516118499088908890614a93565b90815260408051602092819003830190206001600160401b038716600090815292529020549050806118c95760405162461bcd60e51b815260206004820152602360248201527f4e6f6e626c6f636b696e674c7a4170703a206e6f2073746f726564206d65737360448201526261676560e81b6064820152608401610977565b8083836040516118da929190614a93565b6040518091039020146119395760405162461bcd60e51b815260206004820152602160248201527f4e6f6e626c6f636b696e674c7a4170703a20696e76616c6964207061796c6f616044820152601960fa1b6064820152608401610977565b61ffff8716600090815260976020526040808220905161195c9089908990614a93565b90815260408051602092819003830181206001600160401b038916600090815290845282902093909355601f880182900482028301820190528682526119f4918991899089908190840183828082843760009201919091525050604080516020601f8a018190048102820181019092528881528a93509150889088908190840183828082843760009201919091525061267292505050565b7fc264d91f3adc5588250e1551f547752ca0cfa8f6b530d243b9f9f4cab10ea8e58787878785604051611a2b959493929190614de9565b60405180910390a150505050505050565b611a44611d89565b60008111611a8c5760405162461bcd60e51b81526020600482015260156024820152744c7a4170703a20696e76616c6964206d696e47617360581b6044820152606401610977565b61ffff83811660008181526067602090815260408083209487168084529482529182902085905581519283528201929092529081018290527f9d5c7c0b934da8fefa9c7760c98383778a12dfbfc0c3b3106518f43fb9508ac0906060016115b9565b611af6611d89565b600090815260cf60205260409020805460ff19169055565b611b16611d89565b61ffff83166000908152606660205260409020611b34828483614e24565b507ffa41487ad5d6728f0b19276fa1eddc16558578f5109fc39d2dc33c3230470dab8383836040516115b993929190614acc565b6000611b7a611b75612bcd565b612bff565b611b82611717565b611b92611b8d612c7d565b612cb1565b611b9c9190614b13565b6117899190614b13565b611bae611de8565b60cc55565b611bbb611d89565b6001600160a01b038116611c205760405162461bcd60e51b815260206004820152602660248201527f4f776e61626c653a206e6577206f776e657220697320746865207a65726f206160448201526564647265737360d01b6064820152608401610977565b610b5081612788565b606554604051633d7b2f6f60e21b815261ffff808716600483015285166024820152306044820152606481018390526060916001600160a01b03169063f5ecbdbc90608401600060405180830381865afa158015611c8b573d6000803e3d6000fd5b505050506040513d6000823e601f3d908101601f19168201604052611cb39190810190614edd565b90505b949350505050565b6040517b0ca2ba3432b932bab69029b4b3b732b21026b2b9b9b0b3b29d05199960211b6020820152603c8101829052600090605c01604051602081830303815290604052805190602001209050919050565b600080611d735a60966366ad5c8a60e01b89898989604051602401611d389493929190614f4a565b60408051601f198184030181529190526020810180516001600160e01b03166001600160e01b03199093169290921790915230929190612d3e565b91509150816109f6576109f68686868685612dca565b33611d9261138c565b6001600160a01b03161461110d5760405162461bcd60e51b815260206004820181905260248201527f4f776e61626c653a2063616c6c6572206973206e6f7420746865206f776e65726044820152606401610977565b60c9546001600160a01b0316331461110d5760405162461bcd60e51b815260206004820152601c60248201527b10985cd954dd1c985d1959de4e8e93db9b1e54dd1c985d1959da5cdd60221b6044820152606401610977565b611e978363a9059cbb60e01b8484604051602401611e60929190614f88565b60408051601f198184030181529190526020810180516001600160e01b03166001600160e01b031990931692909217909152612e67565b505050565b60cd5460ff1615611eaa5750565b611eb2612f3c565b6000611ebc611717565b9050600082821115611ed557611ed28383614b00565b90505b8015611e97576040805160028082526060820183526000926020830190803683370190505090508181600081518110611f1057611f10614fa1565b602002602001018181525050600081600181518110611f3157611f31614fa1565b602090810291909101015260cc5460405163f9273ffb60e01b8152600091612710916000805160206157818339815191529063f9273ffb90611f7c9030908890600190600401614ff2565b602060405180830381865afa158015611f99573d6000803e3d6000fd5b505050506040513d601f19601f82011682018060405250810190611fbd9190614a40565b611fc79190615028565b611fd19190615055565b604051634d49e87d60e01b815290915060008051602061578183398151915290634d49e87d9061200990859085904290600401615069565b6020604051808303816000875af1158015612028573d6000803e3d6000fd5b505050506040513d601f19601f8201168201806040525081019061204c9190614a40565b506040516370a0823160e01b815260009073b67c014fa700e69681a673876eb8bafaa36bff71906370a08231906120879030906004016144af565b602060405180830381865afa1580156120a4573d6000803e3d6000fd5b505050506040513d601f19601f820116820180604052508101906120c89190614a40565b60405163534a7e1d60e11b8152600481018290529091506000805160206157618339815191529063a694fc3a90602401600060405180830381600087803b15801561211257600080fd5b505af1158015612126573d6000803e3d6000fd5b50505050505050505050565b600061213c610fc9565b9050600061214982611cbe565b60c9549091506001600160a01b0316612162828561301e565b6001600160a01b031614611e975760405162461bcd60e51b815260206004820152601e60248201527f4261736553747261746567793a3a496e76616c69645369676e617475726500006044820152606401610977565b60006121c2612f3c565b60006121cc611717565b604051632e1a7d4d60e01b81526004810182905290915060008051602061576183398151915290632e1a7d4d90602401600060405180830381600087803b15801561221657600080fd5b505af115801561222a573d6000803e3d6000fd5b50506040516301f1d0ab60e51b81526000805160206157818339815191529250633e3a156091506122669084906000908190429060040161508e565b6020604051808303816000875af1158015612285573d6000803e3d6000fd5b505050506040513d601f19601f820116820180604052508101906122a99190614a40565b5060ca546040516370a0823160e01b81526001600160a01b03909116906370a08231906122da9030906004016144af565b602060405180830381865afa1580156122f7573d6000803e3d6000fd5b505050506040513d601f19601f8201168201806040525081019061231b9190614a40565b91505090565b60008060008061232f611b68565b905085811061234d576123428682614b00565b93506000925061235e565b6000935061235b8187614b00565b92505b61237061236b8587614b13565b613042565b505060ca546040516370a0823160e01b81526000916001600160a01b0316906370a08231906123a39030906004016144af565b602060405180830381865afa1580156123c0573d6000803e3d6000fd5b505050506040513d601f19601f820116820180604052508101906123e49190614a40565b90508481116123f9578094506000925061240f565b61240c6124068683614b00565b87613177565b92505b50509250925092565b60cd54604051630dc6346160e01b815260009161010090046001600160a01b031690630dc6346190612452908790879087906004016150ac565b602060405180830381865afa15801561246f573d6000803e3d6000fd5b505050506040513d601f19601f820116820180604052508101906124939190614a40565b60cd5460ca54604051633920455b60e11b81529293506001600160a01b036101009092048216926372408ab69285926124d9929116908a908a908a908a906004016150da565b6000604051808303818588803b15801561211257600080fd5b60cb5460408051606083811b6001600160601b03199081166020840152309182901b16603483015282516028818403018152604890920190925260655490926000926001600160a01b03909216916340a7bb109161ffff600160a01b9091041690868561255d61318d565b6040518663ffffffff1660e01b815260040161257d959493929190615117565b6040805180830381865afa158015612599573d6000803e3d6000fd5b505050506040513d601f19601f820116820180604052508101906125bd919061516b565b509050804710156125e95760405162fae2d560e21b815260048101829052476024820152604401610977565b60655460cb546001600160a01b039091169063c5803100908390600160a01b900461ffff168587308061261a61318d565b6040518863ffffffff1660e01b815260040161263b9695949392919061518f565b6000604051808303818588803b15801561265457600080fd5b505af1158015612668573d6000803e3d6000fd5b5050505050505050565b60cb5461ffff858116600160a01b90920416146126dc5760405162461bcd60e51b815260206004820152602260248201527f4261736553747261746567793a3a5661756c74436861696e49644d69736d61746044820152610c6d60f31b6064820152608401610977565b60006126ea84826014612ac0565b6040516020016126fa9190614d68565b60405160208183030381529060405261271290614d84565b60cb5460609190911c91506001600160a01b0316811461277f5760405162461bcd60e51b815260206004820152602260248201527f4261736553747261746567793a3a5661756c74416464726573734d69736d61746044820152610c6d60f31b6064820152608401610977565b610a64826131bd565b603380546001600160a01b038381166001600160a01b0319831681179093556040519116919082907f8be0079c531659141344cd1fd0a4f28419497f9722a3daafe3b4186f6b6457e090600090a35050565b6001600160a01b03163b151590565b600054610100900460ff166128105760405162461bcd60e51b8152600401610977906151f6565b612819896132ea565b60c980546001600160a01b03808b166001600160a01b03199283161790925560ca80548a8416908316811790915560cb8054938a1661ffff8a16600160a01b029093166001600160b01b0319909416939093179190911790915560cc8290556040805163313ce56760e01b8152905163313ce567916004808201926020929091908290030181865afa1580156128b3573d6000803e3d6000fd5b505050506040513d601f19601f820116820180604052508101906128d79190615241565b60cb8054600060d05562ffffff60b01b1916600160c01b60ff939093169290920261ffff60b01b191691909117600160b01b61ffff87160217905560cd8054610100600160a81b0319166101006001600160a01b03868116919091029190911790915560ce80546001600160a01b03191684831617905560ca5460405163095ea7b360e01b815291169063095ea7b39061297990869060001990600401614f88565b6020604051808303816000875af1158015612998573d6000803e3d6000fd5b505050506040513d601f19601f820116820180604052508101906121269190615264565b801580612a365750604051636eb1769f60e11b81523060048201526001600160a01b03838116602483015284169063dd62ed3e90604401602060405180830381865afa158015612a10573d6000803e3d6000fd5b505050506040513d601f19601f82011682018060405250810190612a349190614a40565b155b612aa15760405162461bcd60e51b815260206004820152603660248201527f5361666545524332303a20617070726f76652066726f6d206e6f6e2d7a65726f60448201527520746f206e6f6e2d7a65726f20616c6c6f77616e636560501b6064820152608401610977565b611e978363095ea7b360e01b8484604051602401611e60929190614f88565b606081612ace81601f614b13565b1015612b0d5760405162461bcd60e51b815260206004820152600e60248201526d736c6963655f6f766572666c6f7760901b6044820152606401610977565b612b178284614b13565b84511015612b5b5760405162461bcd60e51b8152602060048201526011602482015270736c6963655f6f75744f66426f756e647360781b6044820152606401610977565b606082158015612b7a5760405191506000825260208201604052612bc4565b6040519150601f8416801560200281840101858101878315602002848b0101015b81831015612bb3578051835260209283019201612b9b565b5050858452601f01601f1916604052505b50949350505050565b6040516246613160e11b815260009060008051602061576183398151915290628cc262906117489030906004016144af565b60ca54600090612c779073c31e54c7a869b9fcbecc14363cf510d1c41fa443907382af49447d8a07e3bd95bd0d56f35241523fbab1906001600160a01b0316612c727344ca2be2bd6a7203ccdbb63eed8382274f737a1573c5102fe9359fd9a28f877a67e36b0f050d81a3cc8489613322565b613322565b92915050565b6040516370a0823160e01b8152600090600080516020615761833981519152906370a08231906117489030906004016144af565b600081600003612cc357506000919050565b604051630262267d60e61b81523060048201526024810183905260006044820152600080516020615781833981519152906398899f4090606401602060405180830381865afa158015612d1a573d6000803e3d6000fd5b505050506040513d601f19601f82011682018060405250810190612c779190614a40565b6000606060008060008661ffff166001600160401b03811115612d6357612d63614633565b6040519080825280601f01601f191660200182016040528015612d8d576020820181803683370190505b50905060008087516020890160008d8df191503d925086831115612daf578692505b828152826000602083013e9093509150505b94509492505050565b8180519060200120609760008761ffff1661ffff16815260200190815260200160002085604051612dfb9190614d68565b9081526040805191829003602090810183206001600160401b0388166000908152915220919091557fe183f33de2837795525b4792ca4cd60535bd77c53b7e7030060bfcf5734d6b0c90612e589087908790879087908790615281565b60405180910390a15050505050565b6000612ebc826040518060400160405280602081526020017f5361666545524332303a206c6f772d6c6576656c2063616c6c206661696c6564815250856001600160a01b031661334a9092919063ffffffff16565b9050805160001480612edd575080806020019051810190612edd9190615264565b611e975760405162461bcd60e51b815260206004820152602a60248201527f5361666545524332303a204552433230206f7065726174696f6e20646964206e6044820152691bdd081cdd58d8d9595960b21b6064820152608401610977565b6000805160206157618339815191526001600160a01b0316633d18b9126040518163ffffffff1660e01b8152600401600060405180830381600087803b158015612f8557600080fd5b505af1158015612f99573d6000803e3d6000fd5b50506040516370a0823160e01b815261110d925073c5102fe9359fd9a28f877a67e36b0f050d81a3cc91506370a0823190612fd89030906004016144af565b602060405180830381865afa158015612ff5573d6000803e3d6000fd5b505050506040513d601f19601f820116820180604052508101906130199190614a40565b613359565b600080600061302d85856134e2565b9150915061303a81613527565b509392505050565b60ca546040516370a0823160e01b8152600091829182916001600160a01b0316906370a08231906130779030906004016144af565b602060405180830381865afa158015613094573d6000803e3d6000fd5b505050506040513d601f19601f820116820180604052508101906130b89190614a40565b90508381106130cc57509192600092509050565b6130de6130d98286614b00565b61366c565b60ca546040516370a0823160e01b81526001600160a01b03909116906370a082319061310e9030906004016144af565b602060405180830381865afa15801561312b573d6000803e3d6000fd5b505050506040513d601f19601f8201168201806040525081019061314f9190614a40565b90508084111561316d579150816131668185614b00565b9150613171565b8392505b50915091565b60008183106131865781610c90565b5090919050565b60408051600160f01b6020820152620f424060228083019190915282518083039091018152604290910190915290565b6000818060200190518101906131d391906152d3565b905060038160048111156131e9576131e9614b3f565b0361323c5760008280602001905181019061320491906152f4565b9150506132148160000151611e9c565b80516040519081526000805160206157a18339815191529060200160405180910390a1505050565b600081600481111561325057613250614b3f565b036132775760008280602001905181019061326b9190615337565b915050611e97816136c2565b600481600481111561328b5761328b614b3f565b036132e6576000828060200190518101906132a691906153a2565b9150506132b681600001516137ec565b80516040517f7c9a2d2ec51230d7dbed27f113a325b7e20aef7b049e68b2339257b5edff5bea916115b9916144af565b5050565b600054610100900460ff166133115760405162461bcd60e51b8152600401610977906151f6565b61331961382b565b610b508161385b565b600080613331866107086138a4565b50905061334081848787613aed565b9695505050505050565b6060611cb68484600085613bf4565b806000036133645750565b61339f6040518060a001604052806060815260200160006001600160a01b031681526020016000815260200160008152602001600081525090565b604080517331440bfa4d67f668a3e1de99f8dac3c1436068f360621b602082015261017760eb1b60348201527382af49447d8a07e3bd95bd0d56f35241523fbab160601b6037820152607d60ea1b604b8201526001720d1eb3cbf69c6bd6f96b78144375982844946760631b0319604e820152815160428183030181526062909101909152600061342f84612bff565b8284523060208501524260408501526060840185905260cc54909150612710906134599083615028565b6134639190615055565b608084015260405163c04b8d5960e01b815273e592427a0aece92de3edee1f18e0157c058615649063c04b8d599061349f9086906004016153f0565b6020604051808303816000875af11580156134be573d6000803e3d6000fd5b505050506040513d601f19601f82011682018060405250810190610a649190614a40565b60008082516041036135185760208301516040840151606085015160001a61350c87828585613cc4565b94509450505050613520565b506000905060025b9250929050565b600081600481111561353b5761353b614b3f565b036135435750565b600181600481111561355757613557614b3f565b0361359f5760405162461bcd60e51b815260206004820152601860248201527745434453413a20696e76616c6964207369676e617475726560401b6044820152606401610977565b60028160048111156135b3576135b3614b3f565b036136005760405162461bcd60e51b815260206004820152601f60248201527f45434453413a20696e76616c6964207369676e6174757265206c656e677468006044820152606401610977565b600381600481111561361457613614614b3f565b03610b505760405162461bcd60e51b815260206004820152602260248201527f45434453413a20696e76616c6964207369676e6174757265202773272076616c604482015261756560f01b6064820152608401610977565b806000036136775750565b80613683611b75612bcd565b1061369057610b50612f3c565b60006136b761369d612c7d565b6136a8611b75612bcd565b6136b29085614b00565b613177565b90506132e681613d6e565b602080820151600090815260cf909152604090205460ff16156137275760405162461bcd60e51b815260206004820152601e60248201527f4261736553747261746567793a3a416c726561647957697468647261776e00006044820152606401610977565b6000806137378360000151613042565b91509150600060016040518060800160405280306001600160a01b03168152602001858152602001848152602001866020015181525060405160200161377e929190615448565b60408051601f19818403018152919052905082156137bf5760cb546137ba90849061ffff600160a01b820416906001600160a01b031684612418565b6137c8565b6137c8816124f2565b505050602090810151600090815260cf90915260409020805460ff19166001179055565b6137f581613f23565b60ca546040516370a0823160e01b8152610b509183916001600160a01b03909116906370a08231906113da9030906004016144af565b600054610100900460ff166138525760405162461bcd60e51b8152600401610977906151f6565b61110d33612788565b600054610100900460ff166138825760405162461bcd60e51b8152600401610977906151f6565b606580546001600160a01b0319166001600160a01b0392909216919091179055565b6000808263ffffffff166000036138e25760405162461bcd60e51b8152602060048201526002602482015261042560f41b6044820152606401610977565b604080516002808252606082018352600092602083019080368337019050509050838160008151811061391757613917614fa1565b602002602001019063ffffffff16908163ffffffff168152505060008160018151811061394657613946614fa1565b602002602001019063ffffffff16908163ffffffff1681525050600080866001600160a01b031663883bdbfd846040518263ffffffff1660e01b815260040161398f919061548a565b600060405180830381865afa1580156139ac573d6000803e3d6000fd5b505050506040513d6000823e601f3d908101601f191682016040526139d49190810190615566565b915091506000826000815181106139ed576139ed614fa1565b602002602001015183600181518110613a0857613a08614fa1565b6020026020010151613a1a9190615631565b9050600082600081518110613a3157613a31614fa1565b602002602001015183600181518110613a4c57613a4c614fa1565b6020026020010151613a5e919061565e565b9050613a7063ffffffff891683615685565b965060008260060b128015613a965750613a9063ffffffff8916836156c3565b60060b15155b15613aa95786613aa5816156e5565b9750505b6000613ac26001600160a01b0363ffffffff8b16615708565b9050613ade600160201b600160c01b03602084901b168261573a565b96505050505050509250929050565b600080613af986613f47565b90506001600160801b036001600160a01b03821611613b7f576000613b276001600160a01b03831680615028565b9050836001600160a01b0316856001600160a01b031610613b5f57613b5a600160c01b876001600160801b03168361425f565b613b77565b613b7781876001600160801b0316600160c01b61425f565b925050612bc4565b6000613b996001600160a01b03831680600160401b61425f565b9050836001600160a01b0316856001600160a01b031610613bd157613bcc600160801b876001600160801b03168361425f565b613be9565b613be981876001600160801b0316600160801b61425f565b979650505050505050565b606082471015613c555760405162461bcd60e51b815260206004820152602660248201527f416464726573733a20696e73756666696369656e742062616c616e636520666f6044820152651c8818d85b1b60d21b6064820152608401610977565b600080866001600160a01b03168587604051613c719190614d68565b60006040518083038185875af1925050503d8060008114613cae576040519150601f19603f3d011682016040523d82523d6000602084013e613cb3565b606091505b5091509150613be987838387614311565b6000806fa2a8918ca85bafe22016d0b997e4df60600160ff1b03831115613cf15750600090506003612dc1565b600060018787878760405160008152602001604052604051613d16949392919061508e565b6020604051602081039080840390855afa158015613d38573d6000803e3d6000fd5b5050604051601f1901519150506001600160a01b038116613d6157600060019250925050612dc1565b9660009650945050505050565b613d76612f3c565b6040805160028082526060820183526000926020830190803683370190505090508181600081518110613dab57613dab614fa1565b602002602001018181525050600081600181518110613dcc57613dcc614fa1565b602090810291909101015260405163f9273ffb60e01b81526000906000805160206157818339815191529063f9273ffb90613e0f90309086908690600401614ff2565b602060405180830381865afa158015613e2c573d6000803e3d6000fd5b505050506040513d601f19601f82011682018060405250810190613e509190614a40565b9050613e5a611717565b811115613e6c57613e69611717565b90505b604051632e1a7d4d60e01b81526004810182905260008051602061576183398151915290632e1a7d4d90602401600060405180830381600087803b158015613eb357600080fd5b505af1158015613ec7573d6000803e3d6000fd5b50505050600061271060cc5485613ede9190615028565b613ee89190615055565b6040516301f1d0ab60e51b815290915060008051602061578183398151915290633e3a15609061349f9085906000908690429060040161508e565b6000613f2d6121b8565b60ca549091506132e6906001600160a01b03168383611e41565b60008060008360020b12613f5e578260020b613f66565b8260020b6000035b9050620d89e8811115613f8c576040516315e4079d60e11b815260040160405180910390fd5b600081600116600003613fa357600160801b613fb5565b6ffffcb933bd6fad37aa2d162d1a5940015b6001600160881b031690506002821615613fdf576ffff97272373d413259a46990580e213a0260801c5b6004821615613ffe576ffff2e50f5f656932ef12357cf3c7fdcc0260801c5b600882161561401d576fffe5caca7e10e4e61c3624eaa0941cd00260801c5b601082161561403c576fffcb9843d60f6159c9db58835c9266440260801c5b602082161561405b576fff973b41fa98c081472e6896dfb254c00260801c5b604082161561407a576fff2ea16466c96a3843ec78b326b528610260801c5b6080821615614099576ffe5dee046a99a2a811c461f1969c30530260801c5b6101008216156140b9576ffcbe86c7900a88aedcffc83b479aa3a40260801c5b6102008216156140d9576ff987a7253ac413176f2b074cf7815e540260801c5b6104008216156140f9576ff3392b0822b70005940c7a398e4b70f30260801c5b610800821615614119576fe7159475a2c29b7443b29c7fa6e889d90260801c5b611000821615614139576fd097f3bdfd2022b8845ad8f792aa58250260801c5b612000821615614159576fa9f746462d870fdf8a65dc1f90e061e50260801c5b614000821615614179576f70d869a156d2a1b890bb3df62baf32f70260801c5b618000821615614199576f31be135f97d08fd981231505542fcfa60260801c5b620100008216156141ba576f09aa508b5b7a84e1c677de54f3e99bc90260801c5b620200008216156141da576e5d6af8dedb81196699c329225ee6040260801c5b620400008216156141f9576d2216e584f5fa1ea926041bedfe980260801c5b62080000821615614216576b048a170391f7dc42444e8fa20260801c5b60008460020b13156142375780600019816142335761423361503f565b0490505b600160201b81061561424a57600161424d565b60005b60ff16602082901c0192505050919050565b6000808060001985870985870292508281108382030391505080600003614298576000841161428d57600080fd5b508290049050610c90565b8084116142a457600080fd5b6000848688096000868103871696879004966002600389028118808a02820302808a02820302808a02820302808a02820302808a02820302808a02909103029181900381900460010186841190950394909402919094039290920491909117919091029150509392505050565b6060831561437e5782516000036143775761432b856127da565b6143775760405162461bcd60e51b815260206004820152601d60248201527f416464726573733a2063616c6c20746f206e6f6e2d636f6e74726163740000006044820152606401610977565b5081611cb6565b611cb683838151156143935781518083602001fd5b8060405162461bcd60e51b81526004016109779190614513565b803561ffff811681146143bf57600080fd5b919050565b60008083601f8401126143d657600080fd5b5081356001600160401b038111156143ed57600080fd5b60208301915083602082850101111561352057600080fd5b80356001600160401b03811681146143bf57600080fd5b6000806000806000806080878903121561443557600080fd5b61443e876143ad565b955060208701356001600160401b038082111561445a57600080fd5b6144668a838b016143c4565b909750955085915061447a60408a01614405565b9450606089013591508082111561449057600080fd5b5061449d89828a016143c4565b979a9699509497509295939492505050565b6001600160a01b0391909116815260200190565b60005b838110156144de5781810151838201526020016144c6565b50506000910152565b600081518084526144ff8160208601602086016144c3565b601f01601f19169290920160200192915050565b602081526000610c9060208301846144e7565b60006020828403121561453857600080fd5b610c90826143ad565b6000806040838503121561455457600080fd5b61455d836143ad565b946020939093013593505050565b6001600160a01b0381168114610b5057600080fd5b60006020828403121561459257600080fd5b8135610c908161456b565b6000602082840312156145af57600080fd5b5035919050565b6000806000604084860312156145cb57600080fd5b6145d4846143ad565b925060208401356001600160401b038111156145ef57600080fd5b6145fb868287016143c4565b9497909650939450505050565b8015158114610b5057600080fd5b60006020828403121561462857600080fd5b8135610c9081614608565b634e487b7160e01b600052604160045260246000fd5b604051602081016001600160401b038111828210171561466b5761466b614633565b60405290565b604051601f8201601f191681016001600160401b038111828210171561469957614699614633565b604052919050565b60006001600160401b038211156146ba576146ba614633565b50601f01601f191660200190565b600082601f8301126146d957600080fd5b81356146ec6146e7826146a1565b614671565b81815284602083860101111561470157600080fd5b816020850160208301376000918101602001919091529392505050565b600080600080600060a0868803121561473657600080fd5b8535945060208601359350604086013592506060860135915060808601356001600160401b0381111561476857600080fd5b614774888289016146c8565b9150509295509295909350565b60008060006060848603121561479657600080fd5b61479f846143ad565b925060208401356001600160401b038111156147ba57600080fd5b6147c6868287016146c8565b9250506147d560408501614405565b90509250925092565b600080600080600080600080610100898b0312156147fb57600080fd5b88356148068161456b565b975060208901356148168161456b565b965060408901356148268161456b565b955060608901356148368161456b565b945061484460808a016143ad565b935060a08901356148548161456b565b925060c08901356148648161456b565b8092505060e089013590509295985092959890939650565b6000806040838503121561488f57600080fd5b614898836143ad565b91506148a6602084016143ad565b90509250929050565b60008060008060008060c087890312156148c857600080fd5b6148d1876143ad565b955060208701356001600160401b03808211156148ed57600080fd5b6148f98a838b016146c8565b965060408901359550606089013591506149128261456b565b9093506080880135925060a0880135908082111561492f57600080fd5b5061493c89828a016146c8565b9150509295509295509295565b60008060008060006080868803121561496157600080fd5b61496a866143ad565b9450614978602087016143ad565b93506040860135925060608601356001600160401b0381111561499a57600080fd5b6149a6888289016143c4565b969995985093965092949392505050565b6000806000606084860312156149cc57600080fd5b6149d5846143ad565b92506149e3602085016143ad565b9150604084013590509250925092565b60008060008060808587031215614a0957600080fd5b614a12856143ad565b9350614a20602086016143ad565b92506040850135614a308161456b565b9396929550929360600135925050565b600060208284031215614a5257600080fd5b5051919050565b600181811c90821680614a6d57607f821691505b602082108103614a8d57634e487b7160e01b600052602260045260246000fd5b50919050565b8183823760009101908152919050565b81835281816020850137506000828201602090810191909152601f909101601f19169091010190565b61ffff84168152604060208201526000611cb3604083018486614aa3565b634e487b7160e01b600052601160045260246000fd5b81810381811115612c7757612c77614aea565b80820180821115612c7757612c77614aea565b600060018201614b3857614b38614aea565b5060010190565b634e487b7160e01b600052602160045260246000fd5b60058110614b7357634e487b7160e01b600052602160045260246000fd5b9052565b614b818184614b55565b60406020820152614b9e6040820183516001600160a01b03169052565b6020820151606082015260408201516080820152606082015160a0820152608082015160c082015260a082015160e0820152600060c0830151610100818185015260e08501519150610120828186015281860151925061014091508282860152808601519250506101608281860152818601519250806101808601525050614c2a6101a08401826144e7565b95945050505050565b8284823760609190911b6001600160601b0319169101908152601401919050565b601f821115611e9757600081815260208120601f850160051c81016020861015614c7b5750805b601f850160051c820191505b818110156109f657828155600101614c87565b600019600383901b1c191660019190911b1790565b81516001600160401b03811115614cc857614cc8614633565b614cdc81614cd68454614a59565b84614c54565b602080601f831160018114614d0b5760008415614cf95750858301515b614d038582614c9a565b8655506109f6565b600085815260208120601f198616915b82811015614d3a57888601518255948401946001909101908401614d1b565b5085821015614d585787850151600019600388901b60f8161c191681555b5050505050600190811b01905550565b60008251614d7a8184602087016144c3565b9190910192915050565b805160208201516001600160601b03198082169291906014831015614db35780818460140360031b1b83161693505b505050919050565b600061ffff808816835280871660208401525084604083015260806060830152613be9608083018486614aa3565b61ffff86168152608060208201526000614e07608083018688614aa3565b6001600160401b0394909416604083015250606001529392505050565b6001600160401b03831115614e3b57614e3b614633565b614e4f83614e498354614a59565b83614c54565b6000601f841160018114614e7d5760008515614e6b5750838201355b614e758682614c9a565b845550610a64565b600083815260209020601f19861690835b82811015614eae5786850135825560209485019460019092019101614e8e565b5086821015614ecb5760001960f88860031b161c19848701351681555b505060018560011b0183555050505050565b600060208284031215614eef57600080fd5b81516001600160401b03811115614f0557600080fd5b8201601f81018413614f1657600080fd5b8051614f246146e7826146a1565b818152856020838501011115614f3957600080fd5b614c2a8260208301602086016144c3565b61ffff85168152608060208201526000614f6760808301866144e7565b6001600160401b03851660408401528281036060840152613be981856144e7565b6001600160a01b03929092168252602082015260400190565b634e487b7160e01b600052603260045260246000fd5b600081518084526020808501945080840160005b83811015614fe757815187529582019590820190600101614fcb565b509495945050505050565b6001600160a01b038416815260606020820181905260009061501690830185614fb7565b90508215156040830152949350505050565b8082028115828204841417612c7757612c77614aea565b634e487b7160e01b600052601260045260246000fd5b6000826150645761506461503f565b500490565b60608152600061507c6060830186614fb7565b60208301949094525060400152919050565b93845260ff9290921660208401526040830152606082015260800190565b61ffff841681526001600160a01b0383166020820152606060408201819052600090611cb3908301846144e7565b6001600160a01b0386811682526020820186905261ffff851660408301528316606082015260a060808201819052600090613be9908301846144e7565b61ffff861681526001600160a01b038516602082015260a060408201819052600090615145908301866144e7565b8415156060840152828103608084015261515f81856144e7565b98975050505050505050565b6000806040838503121561517e57600080fd5b505080516020909101519092909150565b61ffff8716815260c0602082015260006151ac60c08301886144e7565b82810360408401526151be81886144e7565b6001600160a01b0387811660608601528616608085015283810360a085015290506151e981856144e7565b9998505050505050505050565b6020808252602b908201527f496e697469616c697a61626c653a20636f6e7472616374206973206e6f74206960408201526a6e697469616c697a696e6760a81b606082015260800190565b60006020828403121561525357600080fd5b815160ff81168114610c9057600080fd5b60006020828403121561527657600080fd5b8151610c9081614608565b61ffff8616815260a06020820152600061529e60a08301876144e7565b6001600160401b038616604084015282810360608401526152bf81866144e7565b9050828103608084015261515f81856144e7565b6000602082840312156152e557600080fd5b815160058110610c9057600080fd5b600080828403604081121561530857600080fd5b835192506020601f198201121561531e57600080fd5b50615327614649565b6020939093015183525092909150565b600080828403606081121561534b57600080fd5b835192506040601f198201121561536157600080fd5b50604080519081016001600160401b038111828210171561538457615384614633565b60409081526020858101518352940151938101939093525092909150565b60008082840360408112156153b657600080fd5b835192506020601f19820112156153cc57600080fd5b506153d5614649565b60208401516153e38161456b565b8152919491935090915050565b602081526000825160a0602084015261540c60c08401826144e7565b905060018060a01b0360208501511660408401526040840151606084015260608401516080840152608084015160a08401528091505092915050565b60a081016154568285614b55565b60018060a01b0383511660208301526020830151604083015260408301516060830152606083015160808301529392505050565b6020808252825182820181905260009190848201906040850190845b818110156154c857835163ffffffff16835292840192918401916001016154a6565b50909695505050505050565b60006001600160401b038211156154ed576154ed614633565b5060051b60200190565b600082601f83011261550857600080fd5b815160206155186146e7836154d4565b82815260059290921b8401810191818101908684111561553757600080fd5b8286015b8481101561555b57805161554e8161456b565b835291830191830161553b565b509695505050505050565b6000806040838503121561557957600080fd5b82516001600160401b038082111561559057600080fd5b818501915085601f8301126155a457600080fd5b815160206155b46146e7836154d4565b82815260059290921b840181019181810190898411156155d357600080fd5b948201945b838610156156015785518060060b81146155f25760008081fd5b825294820194908201906155d8565b9188015191965090935050508082111561561a57600080fd5b50615627858286016154f7565b9150509250929050565b600682810b9082900b03667fffffffffffff198112667fffffffffffff82131715612c7757612c77614aea565b6001600160a01b0382811682821603908082111561567e5761567e614aea565b5092915050565b60008160060b8360060b8061569c5761569c61503f565b667fffffffffffff198214600019821416156156ba576156ba614aea565b90059392505050565b60008260060b806156d6576156d661503f565b808360060b0791505092915050565b60008160020b627fffff1981036156fe576156fe614aea565b6000190192915050565b6001600160c01b0382811682821681810283169291811582850482141761573157615731614aea565b50505092915050565b60006001600160c01b03838116806157545761575461503f565b9216919091049291505056fe000000000000000000000000b0cabfe930642ad3e7decdc741884d8c3f7ebc7000000000000000000000000010541b07d8ad2647dc6cd67abd4c03575dade261b0c58532a125fc3c0adccaef396bf65344a4d5781cec2e4c593e6b611d75f150a264697066735822122083e20b09c2b989fddd66ac558472a420ceac1b36bf26cd325aa6b2c46eb4e16264736f6c63430008130033",
  "linkReferences": {},
  "deployedLinkReferences": {}
}