{
  "_format": "hh-sol-artifact-1",
  "contractName": "HopStrategy",
  "sourceName": "contracts/strategies/HopStrategy.sol",
  "abi": [
    {
      "inputs": [
        {
          "internalType": "uint256",
          "name": "messageType",
          "type": "uint256"
        }
      ],
      "name": "IncorrectMessageType",
      "type": "error"
    },
    {
      "inputs": [],
      "name": "InitializeQuoteBufferWithHopToWantValue",
      "type": "error"
    },
    {
      "inputs": [
        {
          "internalType": "uint256",
          "name": "amount",
          "type": "uint256"
        },
        {
          "internalType": "uint256",
          "name": "balance",
          "type": "uint256"
        }
      ],
      "name": "InsufficientFunds",
      "type": "error"
    },
    {
      "inputs": [],
      "name": "T",
      "type": "error"
    },
    {
      "anonymous": false,
      "inputs": [
        {
          "indexed": false,
          "internalType": "uint256",
          "name": "debtOutstanding",
          "type": "uint256"
        }
      ],
      "name": "AdjustedPosition",
      "type": "event"
    },
    {
      "anonymous": false,
      "inputs": [
        {
          "indexed": true,
          "internalType": "bytes",
          "name": "lowLevelErrorData",
          "type": "bytes"
        }
      ],
      "name": "EmergencyQuoteOnAlternativeDEX",
      "type": "event"
    },
    {
      "anonymous": false,
      "inputs": [
        {
          "indexed": true,
          "internalType": "bytes",
          "name": "lowLevelErrorData",
          "type": "bytes"
        }
      ],
      "name": "EmergencySwapOnAlternativeDEX",
      "type": "event"
    },
    {
      "anonymous": false,
      "inputs": [
        {
          "indexed": false,
          "internalType": "uint8",
          "name": "version",
          "type": "uint8"
        }
      ],
      "name": "Initialized",
      "type": "event"
    },
    {
      "anonymous": false,
      "inputs": [
        {
          "indexed": false,
          "internalType": "uint16",
          "name": "_srcChainId",
          "type": "uint16"
        },
        {
          "indexed": false,
          "internalType": "bytes",
          "name": "_srcAddress",
          "type": "bytes"
        },
        {
          "indexed": false,
          "internalType": "uint64",
          "name": "_nonce",
          "type": "uint64"
        },
        {
          "indexed": false,
          "internalType": "bytes",
          "name": "_payload",
          "type": "bytes"
        },
        {
          "indexed": false,
          "internalType": "bytes",
          "name": "_reason",
          "type": "bytes"
        }
      ],
      "name": "MessageFailed",
      "type": "event"
    },
    {
      "anonymous": false,
      "inputs": [
        {
          "indexed": true,
          "internalType": "address",
          "name": "src",
          "type": "address"
        },
        {
          "indexed": true,
          "internalType": "address",
          "name": "dst",
          "type": "address"
        },
        {
          "indexed": true,
          "internalType": "uint256",
          "name": "amountOut",
          "type": "uint256"
        },
        {
          "indexed": false,
          "internalType": "uint256",
          "name": "amountIn",
          "type": "uint256"
        }
      ],
      "name": "Notified",
      "type": "event"
    },
    {
      "anonymous": false,
      "inputs": [
        {
          "indexed": true,
          "internalType": "address",
          "name": "previousOwner",
          "type": "address"
        },
        {
          "indexed": true,
          "internalType": "address",
          "name": "newOwner",
          "type": "address"
        }
      ],
      "name": "OwnershipTransferred",
      "type": "event"
    },
    {
      "anonymous": false,
      "inputs": [
        {
          "indexed": true,
          "internalType": "address",
          "name": "src",
          "type": "address"
        },
        {
          "indexed": true,
          "internalType": "address",
          "name": "dst",
          "type": "address"
        },
        {
          "indexed": true,
          "internalType": "uint256",
          "name": "amount",
          "type": "uint256"
        }
      ],
      "name": "Quote",
      "type": "event"
    },
    {
      "anonymous": false,
      "inputs": [
        {
          "indexed": false,
          "internalType": "uint16",
          "name": "_srcChainId",
          "type": "uint16"
        },
        {
          "indexed": false,
          "internalType": "bytes",
          "name": "_srcAddress",
          "type": "bytes"
        },
        {
          "indexed": false,
          "internalType": "uint64",
          "name": "_nonce",
          "type": "uint64"
        },
        {
          "indexed": false,
          "internalType": "bytes32",
          "name": "_payloadHash",
          "type": "bytes32"
        }
      ],
      "name": "RetryMessageSuccess",
      "type": "event"
    },
    {
      "anonymous": false,
      "inputs": [
        {
          "indexed": true,
          "internalType": "bytes32",
          "name": "role",
          "type": "bytes32"
        },
        {
          "indexed": true,
          "internalType": "bytes32",
          "name": "previousAdminRole",
          "type": "bytes32"
        },
        {
          "indexed": true,
          "internalType": "bytes32",
          "name": "newAdminRole",
          "type": "bytes32"
        }
      ],
      "name": "RoleAdminChanged",
      "type": "event"
    },
    {
      "anonymous": false,
      "inputs": [
        {
          "indexed": true,
          "internalType": "bytes32",
          "name": "role",
          "type": "bytes32"
        },
        {
          "indexed": true,
          "internalType": "address",
          "name": "account",
          "type": "address"
        },
        {
          "indexed": true,
          "internalType": "address",
          "name": "sender",
          "type": "address"
        }
      ],
      "name": "RoleGranted",
      "type": "event"
    },
    {
      "anonymous": false,
      "inputs": [
        {
          "indexed": true,
          "internalType": "bytes32",
          "name": "role",
          "type": "bytes32"
        },
        {
          "indexed": true,
          "internalType": "address",
          "name": "account",
          "type": "address"
        },
        {
          "indexed": true,
          "internalType": "address",
          "name": "sender",
          "type": "address"
        }
      ],
      "name": "RoleRevoked",
      "type": "event"
    },
    {
      "anonymous": false,
      "inputs": [
        {
          "indexed": false,
          "internalType": "uint16",
          "name": "_dstChainId",
          "type": "uint16"
        },
        {
          "indexed": false,
          "internalType": "uint16",
          "name": "_type",
          "type": "uint16"
        },
        {
          "indexed": false,
          "internalType": "uint256",
          "name": "_minDstGas",
          "type": "uint256"
        }
      ],
      "name": "SetMinDstGas",
      "type": "event"
    },
    {
      "anonymous": false,
      "inputs": [
        {
          "indexed": false,
          "internalType": "address",
          "name": "precrime",
          "type": "address"
        }
      ],
      "name": "SetPrecrime",
      "type": "event"
    },
    {
      "anonymous": false,
      "inputs": [
        {
          "indexed": false,
          "internalType": "uint16",
          "name": "_remoteChainId",
          "type": "uint16"
        },
        {
          "indexed": false,
          "internalType": "bytes",
          "name": "_path",
          "type": "bytes"
        }
      ],
      "name": "SetTrustedRemote",
      "type": "event"
    },
    {
      "anonymous": false,
      "inputs": [
        {
          "indexed": false,
          "internalType": "uint16",
          "name": "_remoteChainId",
          "type": "uint16"
        },
        {
          "indexed": false,
          "internalType": "bytes",
          "name": "_remoteAddress",
          "type": "bytes"
        }
      ],
      "name": "SetTrustedRemoteAddress",
      "type": "event"
    },
    {
      "anonymous": false,
      "inputs": [
        {
          "indexed": true,
          "internalType": "address",
          "name": "token",
          "type": "address"
        },
        {
          "indexed": false,
          "internalType": "uint256",
          "name": "amount",
          "type": "uint256"
        },
        {
          "indexed": false,
          "internalType": "address",
          "name": "sender",
          "type": "address"
        }
      ],
      "name": "SgReceived",
      "type": "event"
    },
    {
      "anonymous": false,
      "inputs": [
        {
          "indexed": false,
          "internalType": "address",
          "name": "newStrategy",
          "type": "address"
        }
      ],
      "name": "StrategyMigrated",
      "type": "event"
    },
    {
      "anonymous": false,
      "inputs": [
        {
          "indexed": false,
          "internalType": "uint256",
          "name": "profit",
          "type": "uint256"
        },
        {
          "indexed": false,
          "internalType": "uint256",
          "name": "loss",
          "type": "uint256"
        },
        {
          "indexed": false,
          "internalType": "uint256",
          "name": "debtPayment",
          "type": "uint256"
        },
        {
          "indexed": false,
          "internalType": "uint256",
          "name": "giveToStrategy",
          "type": "uint256"
        },
        {
          "indexed": false,
          "internalType": "uint256",
          "name": "requestFromStrategy",
          "type": "uint256"
        },
        {
          "indexed": false,
          "internalType": "uint256",
          "name": "creditAvailable",
          "type": "uint256"
        },
        {
          "indexed": false,
          "internalType": "uint256",
          "name": "totalAssets",
          "type": "uint256"
        }
      ],
      "name": "StrategyReported",
      "type": "event"
    },
    {
      "anonymous": false,
      "inputs": [
        {
          "indexed": true,
          "internalType": "address",
          "name": "src",
          "type": "address"
        },
        {
          "indexed": true,
          "internalType": "address",
          "name": "dst",
          "type": "address"
        },
        {
          "indexed": true,
          "internalType": "uint256",
          "name": "amount",
          "type": "uint256"
        }
      ],
      "name": "Swap",
      "type": "event"
    },
    {
      "inputs": [],
      "name": "DEFAULT_ADMIN_ROLE",
      "outputs": [
        {
          "internalType": "bytes32",
          "name": "",
          "type": "bytes32"
        }
      ],
      "stateMutability": "view",
      "type": "function"
    },
    {
      "inputs": [],
      "name": "DEFAULT_PAYLOAD_SIZE_LIMIT",
      "outputs": [
        {
          "internalType": "uint256",
          "name": "",
          "type": "uint256"
        }
      ],
      "stateMutability": "view",
      "type": "function"
    },
    {
      "inputs": [],
      "name": "QUOTE_OPERATION_PROVIDER",
      "outputs": [
        {
          "internalType": "bytes32",
          "name": "",
          "type": "bytes32"
        }
      ],
      "stateMutability": "view",
      "type": "function"
    },
    {
      "inputs": [
        {
          "internalType": "uint256",
          "name": "_debtOutstanding",
          "type": "uint256"
        }
      ],
      "name": "adjustPosition",
      "outputs": [],
      "stateMutability": "nonpayable",
      "type": "function"
    },
    {
      "inputs": [],
      "name": "balanceOfWant",
      "outputs": [
        {
          "internalType": "uint256",
          "name": "",
          "type": "uint256"
        }
      ],
      "stateMutability": "view",
      "type": "function"
    },
    {
      "inputs": [
        {
          "internalType": "uint256",
          "name": "epoch",
          "type": "uint256"
        }
      ],
      "name": "callMe",
      "outputs": [],
      "stateMutability": "nonpayable",
      "type": "function"
    },
    {
      "inputs": [],
      "name": "clearWant",
      "outputs": [],
      "stateMutability": "nonpayable",
      "type": "function"
    },
    {
      "inputs": [],
      "name": "currentChainId",
      "outputs": [
        {
          "internalType": "uint16",
          "name": "",
          "type": "uint16"
        }
      ],
      "stateMutability": "view",
      "type": "function"
    },
    {
      "inputs": [],
      "name": "emergencyExit",
      "outputs": [
        {
          "internalType": "bool",
          "name": "",
          "type": "bool"
        }
      ],
      "stateMutability": "view",
      "type": "function"
    },
    {
      "inputs": [],
      "name": "estimatedTotalAssets",
      "outputs": [
        {
          "internalType": "uint256",
          "name": "",
          "type": "uint256"
        }
      ],
      "stateMutability": "view",
      "type": "function"
    },
    {
      "inputs": [
        {
          "internalType": "uint16",
          "name": "",
          "type": "uint16"
        },
        {
          "internalType": "bytes",
          "name": "",
          "type": "bytes"
        },
        {
          "internalType": "uint64",
          "name": "",
          "type": "uint64"
        }
      ],
      "name": "failedMessages",
      "outputs": [
        {
          "internalType": "bytes32",
          "name": "",
          "type": "bytes32"
        }
      ],
      "stateMutability": "view",
      "type": "function"
    },
    {
      "inputs": [
        {
          "internalType": "uint16",
          "name": "_srcChainId",
          "type": "uint16"
        },
        {
          "internalType": "bytes",
          "name": "_srcAddress",
          "type": "bytes"
        }
      ],
      "name": "forceResumeReceive",
      "outputs": [],
      "stateMutability": "nonpayable",
      "type": "function"
    },
    {
      "inputs": [
        {
          "internalType": "uint16",
          "name": "_version",
          "type": "uint16"
        },
        {
          "internalType": "uint16",
          "name": "_chainId",
          "type": "uint16"
        },
        {
          "internalType": "address",
          "name": "",
          "type": "address"
        },
        {
          "internalType": "uint256",
          "name": "_configType",
          "type": "uint256"
        }
      ],
      "name": "getConfig",
      "outputs": [
        {
          "internalType": "bytes",
          "name": "",
          "type": "bytes"
        }
      ],
      "stateMutability": "view",
      "type": "function"
    },
    {
      "inputs": [
        {
          "internalType": "bytes32",
          "name": "_messageHash",
          "type": "bytes32"
        }
      ],
      "name": "getEthSignedMessageHash",
      "outputs": [
        {
          "internalType": "bytes32",
          "name": "",
          "type": "bytes32"
        }
      ],
      "stateMutability": "pure",
      "type": "function"
    },
    {
      "inputs": [
        {
          "internalType": "bytes32",
          "name": "role",
          "type": "bytes32"
        }
      ],
      "name": "getRoleAdmin",
      "outputs": [
        {
          "internalType": "bytes32",
          "name": "",
          "type": "bytes32"
        }
      ],
      "stateMutability": "view",
      "type": "function"
    },
    {
      "inputs": [
        {
          "internalType": "uint16",
          "name": "_remoteChainId",
          "type": "uint16"
        }
      ],
      "name": "getTrustedRemoteAddress",
      "outputs": [
        {
          "internalType": "bytes",
          "name": "",
          "type": "bytes"
        }
      ],
      "stateMutability": "view",
      "type": "function"
    },
    {
      "inputs": [
        {
          "internalType": "bytes32",
          "name": "role",
          "type": "bytes32"
        },
        {
          "internalType": "address",
          "name": "account",
          "type": "address"
        }
      ],
      "name": "grantRole",
      "outputs": [],
      "stateMutability": "nonpayable",
      "type": "function"
    },
    {
      "inputs": [
        {
          "internalType": "uint256",
          "name": "_totalDebt",
          "type": "uint256"
        },
        {
          "internalType": "uint256",
          "name": "_debtOutstanding",
          "type": "uint256"
        },
        {
          "internalType": "uint256",
          "name": "_creditAvailable",
          "type": "uint256"
        },
        {
          "internalType": "uint256",
          "name": "_debtRatio",
          "type": "uint256"
        },
        {
          "internalType": "bytes",
          "name": "_signature",
          "type": "bytes"
        }
      ],
      "name": "harvest",
      "outputs": [],
      "stateMutability": "nonpayable",
      "type": "function"
    },
    {
      "inputs": [
        {
          "internalType": "bytes32",
          "name": "role",
          "type": "bytes32"
        },
        {
          "internalType": "address",
          "name": "account",
          "type": "address"
        }
      ],
      "name": "hasRole",
      "outputs": [
        {
          "internalType": "bool",
          "name": "",
          "type": "bool"
        }
      ],
      "stateMutability": "view",
      "type": "function"
    },
    {
      "inputs": [
        {
          "internalType": "address",
          "name": "_lzEndpoint",
          "type": "address"
        },
        {
          "internalType": "address",
          "name": "_strategist",
          "type": "address"
        },
        {
          "internalType": "contract IERC20",
          "name": "_want",
          "type": "address"
        },
        {
          "internalType": "address",
          "name": "_vault",
          "type": "address"
        },
        {
          "internalType": "uint16",
          "name": "_vaultChainId",
          "type": "uint16"
        },
        {
          "internalType": "address",
          "name": "_sgBridge",
          "type": "address"
        },
        {
          "internalType": "address",
          "name": "_sgRouter",
          "type": "address"
        },
        {
          "internalType": "uint256",
          "name": "_slippage",
          "type": "uint256"
        }
      ],
      "name": "initialize",
      "outputs": [],
      "stateMutability": "nonpayable",
      "type": "function"
    },
    {
      "inputs": [],
      "name": "initializeQuoteBufferWithHopToWantValue",
      "outputs": [],
      "stateMutability": "nonpayable",
      "type": "function"
    },
    {
      "inputs": [
        {
          "internalType": "uint16",
          "name": "_srcChainId",
          "type": "uint16"
        },
        {
          "internalType": "bytes",
          "name": "_srcAddress",
          "type": "bytes"
        }
      ],
      "name": "isTrustedRemote",
      "outputs": [
        {
          "internalType": "bool",
          "name": "",
          "type": "bool"
        }
      ],
      "stateMutability": "view",
      "type": "function"
    },
    {
      "inputs": [],
      "name": "lzEndpoint",
      "outputs": [
        {
          "internalType": "contract ILayerZeroEndpointUpgradeable",
          "name": "",
          "type": "address"
        }
      ],
      "stateMutability": "view",
      "type": "function"
    },
    {
      "inputs": [
        {
          "internalType": "uint16",
          "name": "_srcChainId",
          "type": "uint16"
        },
        {
          "internalType": "bytes",
          "name": "_srcAddress",
          "type": "bytes"
        },
        {
          "internalType": "uint64",
          "name": "_nonce",
          "type": "uint64"
        },
        {
          "internalType": "bytes",
          "name": "_payload",
          "type": "bytes"
        }
      ],
      "name": "lzReceive",
      "outputs": [],
      "stateMutability": "nonpayable",
      "type": "function"
    },
    {
      "inputs": [
        {
          "internalType": "uint16",
          "name": "",
          "type": "uint16"
        },
        {
          "internalType": "uint16",
          "name": "",
          "type": "uint16"
        }
      ],
      "name": "minDstGasLookup",
      "outputs": [
        {
          "internalType": "uint256",
          "name": "",
          "type": "uint256"
        }
      ],
      "stateMutability": "view",
      "type": "function"
    },
    {
      "inputs": [],
      "name": "name",
      "outputs": [
        {
          "internalType": "string",
          "name": "",
          "type": "string"
        }
      ],
      "stateMutability": "pure",
      "type": "function"
    },
    {
      "inputs": [
        {
          "internalType": "uint16",
          "name": "_srcChainId",
          "type": "uint16"
        },
        {
          "internalType": "bytes",
          "name": "_srcAddress",
          "type": "bytes"
        },
        {
          "internalType": "uint64",
          "name": "_nonce",
          "type": "uint64"
        },
        {
          "internalType": "bytes",
          "name": "_payload",
          "type": "bytes"
        }
      ],
      "name": "nonblockingLzReceive",
      "outputs": [],
      "stateMutability": "nonpayable",
      "type": "function"
    },
    {
      "inputs": [
        {
          "internalType": "address",
          "name": "",
          "type": "address"
        },
        {
          "internalType": "address",
          "name": "",
          "type": "address"
        },
        {
          "internalType": "uint256",
          "name": "amountOut",
          "type": "uint256"
        },
        {
          "internalType": "uint256",
          "name": "",
          "type": "uint256"
        }
      ],
      "name": "notifyCallback",
      "outputs": [],
      "stateMutability": "nonpayable",
      "type": "function"
    },
    {
      "inputs": [],
      "name": "owner",
      "outputs": [
        {
          "internalType": "address",
          "name": "",
          "type": "address"
        }
      ],
      "stateMutability": "view",
      "type": "function"
    },
    {
      "inputs": [
        {
          "internalType": "uint16",
          "name": "",
          "type": "uint16"
        }
      ],
      "name": "payloadSizeLimitLookup",
      "outputs": [
        {
          "internalType": "uint256",
          "name": "",
          "type": "uint256"
        }
      ],
      "stateMutability": "view",
      "type": "function"
    },
    {
      "inputs": [],
      "name": "precrime",
      "outputs": [
        {
          "internalType": "address",
          "name": "",
          "type": "address"
        }
      ],
      "stateMutability": "view",
      "type": "function"
    },
    {
      "inputs": [],
      "name": "renounceOwnership",
      "outputs": [],
      "stateMutability": "nonpayable",
      "type": "function"
    },
    {
      "inputs": [
        {
          "internalType": "bytes32",
          "name": "role",
          "type": "bytes32"
        },
        {
          "internalType": "address",
          "name": "account",
          "type": "address"
        }
      ],
      "name": "renounceRole",
      "outputs": [],
      "stateMutability": "nonpayable",
      "type": "function"
    },
    {
      "inputs": [
        {
          "internalType": "uint16",
          "name": "_srcChainId",
          "type": "uint16"
        },
        {
          "internalType": "bytes",
          "name": "_srcAddress",
          "type": "bytes"
        },
        {
          "internalType": "uint64",
          "name": "_nonce",
          "type": "uint64"
        },
        {
          "internalType": "bytes",
          "name": "_payload",
          "type": "bytes"
        }
      ],
      "name": "retryMessage",
      "outputs": [],
      "stateMutability": "payable",
      "type": "function"
    },
    {
      "inputs": [],
      "name": "revokeFunds",
      "outputs": [],
      "stateMutability": "nonpayable",
      "type": "function"
    },
    {
      "inputs": [
        {
          "internalType": "bytes32",
          "name": "role",
          "type": "bytes32"
        },
        {
          "internalType": "address",
          "name": "account",
          "type": "address"
        }
      ],
      "name": "revokeRole",
      "outputs": [],
      "stateMutability": "nonpayable",
      "type": "function"
    },
    {
      "inputs": [
        {
          "internalType": "uint16",
          "name": "_version",
          "type": "uint16"
        },
        {
          "internalType": "uint16",
          "name": "_chainId",
          "type": "uint16"
        },
        {
          "internalType": "uint256",
          "name": "_configType",
          "type": "uint256"
        },
        {
          "internalType": "bytes",
          "name": "_config",
          "type": "bytes"
        }
      ],
      "name": "setConfig",
      "outputs": [],
      "stateMutability": "nonpayable",
      "type": "function"
    },
    {
      "inputs": [
        {
          "internalType": "bool",
          "name": "_emergencyExit",
          "type": "bool"
        }
      ],
      "name": "setEmergencyExit",
      "outputs": [],
      "stateMutability": "nonpayable",
      "type": "function"
    },
    {
      "inputs": [
        {
          "internalType": "uint16",
          "name": "_dstChainId",
          "type": "uint16"
        },
        {
          "internalType": "uint16",
          "name": "_packetType",
          "type": "uint16"
        },
        {
          "internalType": "uint256",
          "name": "_minGas",
          "type": "uint256"
        }
      ],
      "name": "setMinDstGas",
      "outputs": [],
      "stateMutability": "nonpayable",
      "type": "function"
    },
    {
      "inputs": [
        {
          "internalType": "uint16",
          "name": "_dstChainId",
          "type": "uint16"
        },
        {
          "internalType": "uint256",
          "name": "_size",
          "type": "uint256"
        }
      ],
      "name": "setPayloadSizeLimit",
      "outputs": [],
      "stateMutability": "nonpayable",
      "type": "function"
    },
    {
      "inputs": [
        {
          "internalType": "address",
          "name": "_precrime",
          "type": "address"
        }
      ],
      "name": "setPrecrime",
      "outputs": [],
      "stateMutability": "nonpayable",
      "type": "function"
    },
    {
      "inputs": [
        {
          "internalType": "uint16",
          "name": "_version",
          "type": "uint16"
        }
      ],
      "name": "setReceiveVersion",
      "outputs": [],
      "stateMutability": "nonpayable",
      "type": "function"
    },
    {
      "inputs": [
        {
          "internalType": "uint16",
          "name": "_version",
          "type": "uint16"
        }
      ],
      "name": "setSendVersion",
      "outputs": [],
      "stateMutability": "nonpayable",
      "type": "function"
    },
    {
      "inputs": [
        {
          "internalType": "uint256",
          "name": "_slippage",
          "type": "uint256"
        }
      ],
      "name": "setSlippage",
      "outputs": [],
      "stateMutability": "nonpayable",
      "type": "function"
    },
    {
      "inputs": [
        {
          "internalType": "address",
          "name": "_strategist",
          "type": "address"
        }
      ],
      "name": "setStrategist",
      "outputs": [],
      "stateMutability": "nonpayable",
      "type": "function"
    },
    {
      "inputs": [
        {
          "internalType": "address",
          "name": "_swapHelper",
          "type": "address"
        }
      ],
      "name": "setSwapHelper",
      "outputs": [],
      "stateMutability": "nonpayable",
      "type": "function"
    },
    {
      "inputs": [
        {
          "internalType": "uint16",
          "name": "_srcChainId",
          "type": "uint16"
        },
        {
          "internalType": "bytes",
          "name": "_path",
          "type": "bytes"
        }
      ],
      "name": "setTrustedRemote",
      "outputs": [],
      "stateMutability": "nonpayable",
      "type": "function"
    },
    {
      "inputs": [
        {
          "internalType": "uint16",
          "name": "_remoteChainId",
          "type": "uint16"
        },
        {
          "internalType": "bytes",
          "name": "_remoteAddress",
          "type": "bytes"
        }
      ],
      "name": "setTrustedRemoteAddress",
      "outputs": [],
      "stateMutability": "nonpayable",
      "type": "function"
    },
    {
      "inputs": [],
      "name": "sgBridge",
      "outputs": [
        {
          "internalType": "contract ISgBridge",
          "name": "",
          "type": "address"
        }
      ],
      "stateMutability": "view",
      "type": "function"
    },
    {
      "inputs": [
        {
          "internalType": "uint16",
          "name": "",
          "type": "uint16"
        },
        {
          "internalType": "bytes",
          "name": "_srcAddress",
          "type": "bytes"
        },
        {
          "internalType": "uint256",
          "name": "",
          "type": "uint256"
        },
        {
          "internalType": "address",
          "name": "_token",
          "type": "address"
        },
        {
          "internalType": "uint256",
          "name": "_amountLD",
          "type": "uint256"
        },
        {
          "internalType": "bytes",
          "name": "",
          "type": "bytes"
        }
      ],
      "name": "sgReceive",
      "outputs": [],
      "stateMutability": "nonpayable",
      "type": "function"
    },
    {
      "inputs": [],
      "name": "sgRouter",
      "outputs": [
        {
          "internalType": "contract IStargateRouter",
          "name": "",
          "type": "address"
        }
      ],
      "stateMutability": "view",
      "type": "function"
    },
    {
      "inputs": [],
      "name": "slippage",
      "outputs": [
        {
          "internalType": "uint256",
          "name": "",
          "type": "uint256"
        }
      ],
      "stateMutability": "view",
      "type": "function"
    },
    {
      "inputs": [],
      "name": "strategist",
      "outputs": [
        {
          "internalType": "address",
          "name": "",
          "type": "address"
        }
      ],
      "stateMutability": "view",
      "type": "function"
    },
    {
      "inputs": [],
      "name": "strategistSignMessageHash",
      "outputs": [
        {
          "internalType": "bytes32",
          "name": "",
          "type": "bytes32"
        }
      ],
      "stateMutability": "view",
      "type": "function"
    },
    {
      "inputs": [
        {
          "internalType": "bytes4",
          "name": "interfaceId",
          "type": "bytes4"
        }
      ],
      "name": "supportsInterface",
      "outputs": [
        {
          "internalType": "bool",
          "name": "",
          "type": "bool"
        }
      ],
      "stateMutability": "view",
      "type": "function"
    },
    {
      "inputs": [],
      "name": "swapHelper",
      "outputs": [
        {
          "internalType": "contract ISwapHelper",
          "name": "",
          "type": "address"
        }
      ],
      "stateMutability": "view",
      "type": "function"
    },
    {
      "inputs": [
        {
          "internalType": "contract IERC20",
          "name": "_token",
          "type": "address"
        }
      ],
      "name": "sweepToken",
      "outputs": [],
      "stateMutability": "nonpayable",
      "type": "function"
    },
    {
      "inputs": [
        {
          "internalType": "address",
          "name": "newOwner",
          "type": "address"
        }
      ],
      "name": "transferOwnership",
      "outputs": [],
      "stateMutability": "nonpayable",
      "type": "function"
    },
    {
      "inputs": [
        {
          "internalType": "uint16",
          "name": "",
          "type": "uint16"
        }
      ],
      "name": "trustedRemoteLookup",
      "outputs": [
        {
          "internalType": "bytes",
          "name": "",
          "type": "bytes"
        }
      ],
      "stateMutability": "view",
      "type": "function"
    },
    {
      "inputs": [],
      "name": "vault",
      "outputs": [
        {
          "internalType": "address",
          "name": "",
          "type": "address"
        }
      ],
      "stateMutability": "view",
      "type": "function"
    },
    {
      "inputs": [],
      "name": "vaultChainId",
      "outputs": [
        {
          "internalType": "uint16",
          "name": "",
          "type": "uint16"
        }
      ],
      "stateMutability": "view",
      "type": "function"
    },
    {
      "inputs": [],
      "name": "want",
      "outputs": [
        {
          "internalType": "contract IERC20",
          "name": "",
          "type": "address"
        }
      ],
      "stateMutability": "view",
      "type": "function"
    },
    {
      "inputs": [],
      "name": "wantDecimals",
      "outputs": [
        {
          "internalType": "uint8",
          "name": "",
          "type": "uint8"
        }
      ],
      "stateMutability": "view",
      "type": "function"
    },
    {
      "stateMutability": "payable",
      "type": "receive"
    }
  ],
  "bytecode": "0x6080806040523461001757615fa490816200001d8239f35b600080fdfe6080604052600436101561001b575b361561001957600080fd5b005b60003560e01c80621d35671461040a57806301ffc9a7146104055780630517cb761461040057806306fdde03146103fb57806307e0db17146103f65780630df37483146103f15780630fc6a11c146103ec57806310ddb137146103e75780631be19560146103e25780631f1fcd51146103dd5780631fe4a686146103d8578063237ea53f146103d3578063248a9ca3146103ce5780632d606843146103c95780632f2ff15d146103c457806336568abe146103bf57806337fded91146103ba5780633d3ccc2f146103b55780633d8b38f6146103b05780633e032a3b146103ab5780633f1f4fa4146103a657806342d65a8d146103a157806345ee07551461039c578063495f881e146103975780635641ec0314610392578063567ad85d1461038d578063593178de146103885780635b8c41e61461038357806366ad5c8a1461037e5780636cbadbfa14610379578063715018a6146103745780637533d7881461036f5780637f5555651461036a5780638cfd8f5c146103655780638da5cb5b1461036057806391d148541461035b578063950c8a74146103565780639606647d146103515780639f38369a1461034c578063a217fddf14610347578063a6c3d16514610342578063ab8236f31461033d578063abe06ef714610338578063adf076e614610333578063b353aaa71461032e578063baf3292d14610329578063c1a3d44c14610324578063c44618341461031f578063c7b9d5301461031a578063cbed8b9c14610315578063d1deba1f14610310578063d547741f1461030b578063d73cd47f14610306578063df2a5b3b14610301578063e73620c3146102fc578063eb8d72b7146102f7578063efbb5cb0146102f2578063f056dffe146102ed578063f0fa55a9146102e8578063f2fde38b146102e3578063f5ecbdbc146102de578063fa540801146102d95763fbfa77cf0361000e5761245c565b61243e565b61238b565b6122fa565b6122d9565b6121c9565b6121ae565b612088565b612054565b611f6f565b611f28565b611ee5565b611db8565b611cf2565b611cab565b611c8e565b611c73565b611c03565b611bda565b611bb6565b611b8d565b611a65565b611904565b6118e8565b61183d565b611798565b61176f565b61172a565b611701565b6116ae565b611566565b61151d565b6113f1565b6113cc565b611293565b611204565b6111b3565b61118e565b61116b565b610ef4565b610d51565b610cdc565b610ca7565b610c89565b610c3e565b610bc5565b610b98565b610b02565b610a4f565b610a0a565b6109da565b6109b1565b610988565b61094c565b6108b6565b61083d565b610813565b6107d8565b610758565b610708565b610683565b610616565b6104e0565b6004359061ffff8216820361042057565b600080fd5b6024359061ffff8216820361042057565b9181601f84011215610420578235916001600160401b038311610420576020838186019501011161042057565b604435906001600160401b038216820361042057565b9060806003198301126104205760043561ffff8116810361042057916001600160401b039060243582811161042057816104b591600401610436565b9390939260443581811681036104205792606435918211610420576104dc91600401610436565b9091565b34610420576104ee36610479565b60655490949293906001600160a01b031633036105c55761051c92610514913691610ea2565b933691610ea2565b905a926040519360208501633356ae4560e11b815261ffff87166024870152608060448701526105858661057761055660a48301876106cf565b6001600160401b0388166064840152828103602319016084840152886106cf565b03601f198101885287610e25565b6000918291826105936129ae565b9851923090f13d609681116105bd575b8086526000602087013e156105b457005b6100199461307b565b5060966105a3565b60405162461bcd60e51b815260206004820152602360248201527f4261736553747261746567793a3a496e76616c6964456e64706f696e7443616c6044820152623632b960e91b6064820152608490fd5b346104205760203660031901126104205760043563ffffffff60e01b811680910361042057602090637965db0b60e01b811490811561065b575b506040519015158152f35b6301ffc9a760e01b14905038610650565b600091031261042057565b6001600160a01b031690565b346104205760003660031901126104205760ce546040516001600160a01b039091168152602090f35b60005b8381106106bf5750506000910152565b81810151838201526020016106af565b906020916106e8815180928185528580860191016106ac565b601f01601f1916010190565b9060206107059281815201906106cf565b90565b346104205760003660031901126104205761075460405161072881610dd4565b600b81526a486f70537472617465677960a81b60208201526040519182916020835260208301906106cf565b0390f35b3461042057600060203660031901126107d55761077361040f565b61077b6128f6565b6065546001600160a01b0316908290823b156107d157602461ffff918360405195869485936307e0db1760e01b85521660048401525af180156107cc576107c0575080f35b6107c990610da1565b80f35b6124e3565b5080fd5b80fd5b346104205760403660031901126104205761ffff6107f461040f565b6107fc6128f6565b166000526068602052602435604060002055600080f35b3461042057600036600319011261042057610135546040516001600160a01b039091168152602090f35b3461042057600060203660031901126107d55761085861040f565b6108606128f6565b6065546001600160a01b0316908290823b156107d157602461ffff918360405195869485936310ddb13760e01b85521660048401525af180156107cc576107c0575080f35b6001600160a01b0381160361042057565b34610420576020366003190112610420576004356108d3816108a5565b6108db613373565b6040516370a0823160e01b8152306004820152906020826024816001600160a01b0385165afa9081156107cc576100199260009261091c575b503390612c13565b61093e91925060203d8111610945575b6109368183610e25565b810190612b8f565b9038610914565b503d61092c565b346104205760003660031901126104205760ca546040516001600160a01b039091168152602090f35b6001600160a01b03909116815260200190565b346104205760003660031901126104205760c9546040516001600160a01b039091168152602090f35b34610420576000366003190112610420576020604051600080516020615ecf8339815191528152f35b34610420576020366003190112610420576004356000526101036020526020600160406000200154604051908152f35b34610420576000806003193601126107d557610a24613373565b8080808060018060a01b0360c954164790828215610a46575bf1156107cc5780f35b506108fc610a3d565b3461042057604036600319011261042057600435602435610a6f816108a5565b60009180835261010380602052610a8c60016040862001546127c2565b8184528060205260ff610aa284604087206127ab565b541615610aad578380f35b818452602052610ac082604085206127ab565b805460ff1916600117905533916001600160a01b0316907f2f8788117e7eff1d82e926ec794901d17c78024a50270940304540a733656f0d8480a43880808380f35b3461042057604036600319011261042057602435610b1f816108a5565b336001600160a01b03821603610b3b5761001990600435612879565b60405162461bcd60e51b815260206004820152602f60248201527f416363657373436f6e74726f6c3a2063616e206f6e6c792072656e6f756e636560448201526e103937b632b9903337b91039b2b63360891b6064820152608490fd5b346104205760003660031901126104205760cd5460405160089190911c6001600160a01b03168152602090f35b3461042057602036600319011261042057600080516020615f0f8339815191526020600435610bf2613373565b610bfb8161444f565b604051908152a1005b9060406003198301126104205760043561ffff811681036104205791602435906001600160401b038211610420576104dc91600401610436565b3461042057602061ffff610c7a610c5436610c04565b9390911660005260668452610c6c6040600020611477565b848151910120923691610ea2565b82815191012014604051908152f35b3461042057600036600319011261042057602060cc54604051908152f35b346104205760203660031901126104205761ffff610cc361040f565b1660005260686020526020604060002054604051908152f35b3461042057610cea36610c04565b610cf59291926128f6565b6065546000938492916001600160a01b031690813b15610d435783610d3195604051968795869485936342d65a8d60e01b855260048501612510565b03925af180156107cc576107c0575080f35b8380fd5b8015150361042057565b3461042057602036600319011261042057600435610d6e81610d47565b610d76613373565b60ff801960cd5416911515161760cd55600080f35b634e487b7160e01b600052604160045260246000fd5b6001600160401b038111610db457604052565b610d8b565b602081019081106001600160401b03821117610db457604052565b604081019081106001600160401b03821117610db457604052565b606081019081106001600160401b03821117610db457604052565b608081019081106001600160401b03821117610db457604052565b601f909101601f19168101906001600160401b03821190821017610db457604052565b6040519061016082016001600160401b03811183821017610db457604052565b60405190608082016001600160401b03811183821017610db457604052565b6001600160401b038111610db457601f01601f191660200190565b929192610eae82610e87565b91610ebc6040519384610e25565b829481845281830111610420578281602093846000960137010152565b9080601f830112156104205781602061070593359101610ea2565b346104205760a0366003190112610420576084356044356024356001600160401b03831161042057610f4b7fb983e09c034e9c52b5e547cb0589967992b97717733f580cc5ad0afcdc4b522b933690600401610ed9565b90610f54613373565b610f5d8261312c565b60008092610f6d60cd5460ff1690565b1561115057610f7e60643515612f31565b610f86614727565b938385101561111e5750610fa8610fa184956110d595612595565b8095612595565b945b610fb48684612656565b60008282101561110c5750610fc99082612595565b926000905b610fdf82610fda6142f0565b612595565b9360d05492610ff5610ff085612f7d565b60d055565b610ffd610e48565b308152914260208401526040830193845260608301998a52608083019a8b5260a0830197885260c0830182815260e08401968752610100840197885261012084019590955261014083015280156110da576110929161106c9161107a60cb549260405194859160208301612fac565b03601f198101855284610e25565b6001600160a01b0382169160a01c61ffff169061392b565b51955196519351905191519251936040519788978893909796959260c0959260e08601998652602086015260408501526060840152608083015260a08201520152565b0390a1005b506110f46111026111079260405192839160208301612fac565b03601f198101835282610e25565b613aa1565b611092565b82611118919592612595565b90610fce565b83856110d595839711611137575b5090610fa891612595565b81610fa89392955061114891612595565b93909161112c565b9250506111626110d5916004356133cb565b94909390610faa565b3461042057600036600319011261042057602060ff60cd54166040519015158152f35b3461042057600036600319011261042057602061ffff60cb5460a01c16604051908152f35b346104205760003660031901126104205760206111ce612efa565b604051908152f35b906111e9602092828151948592016106ac565b0190565b9060018060401b0316600052602052604060002090565b346104205760603660031901126104205761121d61040f565b6024356001600160401b03811161042057610754916112746020611248611282943690600401610ed9565b61ffff611253610463565b941660005260978252604060002082604051948386809551938492016106ac565b8201908152030190206111ed565b546040519081529081906020820190565b34610420576112a136610479565b9392909150303303611378576112c4926112bc913691610ea2565b923691610ea2565b9060cb549261ffff808560a01c16911603611328576100199261131061130a6110f46113056112f5611323966126e0565b60405192839160208301906111d6565b613046565b60601c90565b6001600160a01b039081169116146134ae565b613606565b60405162461bcd60e51b815260206004820152602260248201527f4261736553747261746567793a3a5661756c74436861696e49644d69736d61746044820152610c6d60f31b6064820152608490fd5b60405162461bcd60e51b815260206004820152602660248201527f4e6f6e626c6f636b696e674c7a4170703a2063616c6c6572206d7573742062656044820152650204c7a4170760d41b6064820152608490fd5b3461042057600036600319011261042057602061ffff60cb5460b01c16604051908152f35b34610420576000806003193601126107d55761140b6128f6565b603380546001600160a01b0319811690915581906001600160a01b0316600080516020615e8f8339815191528280a380f35b90600182811c9216801561146d575b602083101461145757565b634e487b7160e01b600052602260045260246000fd5b91607f169161144c565b906040519182600082549261148b8461143d565b9081845260019485811690816000146114fa57506001146114b7575b50506114b592500383610e25565b565b9093915060005260209081600020936000915b8183106114e25750506114b5935082010138806114a7565b855488840185015294850194879450918301916114ca565b9150506114b594506020925060ff191682840152151560051b82010138806114a7565b346104205760203660031901126104205761ffff61153961040f565b1660005260666020526107546115526040600020611477565b6040519182916020835260208301906106cf565b346104205761010036600319011261042057600435611584816108a5565b60243590611591826108a5565b6044359061159e826108a5565b606435916115ab836108a5565b6084359261ffff841684036104205761161e9360a435916115cb836108a5565b60c435936115d8856108a5565b600054976115fd60ff8a60081c1615809a819b6116a0575b8115611680575b50613bdc565b88611610600160ff196000541617600055565b611667575b60e43596613c3f565b61162457005b61163461ff001960005416600055565b604051600181527f7f26b83ff96e1f2b6a682f133852f6798a09c465da95921460cefb38474024989080602081016110d5565b61167b61010061ff00196000541617600055565b611615565b303b15915081611692575b50386115f7565b6001915060ff16143861168b565b600160ff82161091506115f0565b346104205760403660031901126104205760206116f86116cc61040f565b61ffff6116d7610425565b91166000526067835260406000209061ffff16600052602052604060002090565b54604051908152f35b34610420576000366003190112610420576033546040516001600160a01b039091168152602090f35b3461042057604036600319011261042057602060ff61176360243561174e816108a5565b600435600052610103845260406000206127ab565b54166040519015158152f35b34610420576000366003190112610420576069546040516001600160a01b039091168152602090f35b34610420576000806003193601126107d5576117b2613373565b60ca546040516370a0823160e01b8152306004820152906001600160a01b0316602082602481845afa9081156107cc576107c992849261181d575b506040519163a9059cbb60e01b60208401526001602484015260448301526044825261181882610e0a565b612d3f565b61183691925060203d8111610945576109368183610e25565b90386117ed565b346104205760203660031901126104205761ffff61185961040f565b16600052606660205261186f6040600020611477565b8051156118a357805160131981019190821161189e57610754916118929161272b565b604051918291826106f4565b61257f565b60405162461bcd60e51b815260206004820152601d60248201527f4c7a4170703a206e6f20747275737465642070617468207265636f72640000006044820152606490fd5b3461042057600036600319011261042057602060405160008152f35b346104205761191236610c04565b919061191c6128f6565b6040519160208483828601376119476034858781013060601b85820152036014810187520185610e25565b61ffff821660009081526066825260408120855191959092906001600160401b038311610db4576119828361197c865461143d565b8661252b565b81601f84116001146119e1575091806119d09492889994600080516020615e4f83398151915299926119d6575b50508160011b916000199060031b1c19161790555b60405193849384612510565b0390a180f35b0151905038806119af565b9190601f1984166119f786600052602060002090565b9389905b828210611a4d575050926001928592600080516020615e4f8339815191529a9b966119d0989610611a34575b505050811b0190556119c4565b015160001960f88460031b161c19169055388080611a27565b806001869782949787015181550196019401906119fb565b346104205760c036600319011261042057611a7e61040f565b506001600160401b0360243581811161042057611a9f903690600401610ed9565b60643591611aac836108a5565b60a43590811161042057611ac4903690600401610ed9565b5060ce546001600160a01b0390811633148015611b7d575b15611b3957611b1761130a6110f46113056112f57f92073a89a07a000083eb8b2575fc15e7bb936efe55d00727d6942a796d7211a7966126e0565b6040805160843581526001600160a01b039290921660208301529190931692a2005b60405162461bcd60e51b815260206004820152601c60248201527b53674272696467653a3a526f757465724f724272696467654f6e6c7960201b6044820152606490fd5b508060cd5460081c163314611adc565b3461042057600036600319011261042057611ba661427b565b610019611bb16148a2565b614932565b3461042057600036600319011261042057602060ff60cb5460c01c16604051908152f35b34610420576000366003190112610420576065546040516001600160a01b039091168152602090f35b34610420576020366003190112610420577f5db758e995a17ec1ad84bdef7e8c3293a0bd6179bcce400dff5d4c3d87db726b6020600435611c43816108a5565b611c4b6128f6565b606980546001600160a01b0319166001600160a01b03929092169182179055604051908152a1005b346104205760003660031901126104205760206111ce612b9e565b346104205760003660031901126104205760206040516127108152f35b3461042057602036600319011261042057600435611cc8816108a5565b611cd06128f6565b60c980546001600160a01b0319166001600160a01b0392909216919091179055005b3461042057608036600319011261042057611d0b61040f565b611d13610425565b6064356001600160401b03811161042057611d32903690600401610436565b9092611d3c6128f6565b6065546001600160a01b031690813b156104205760008094611d95604051978896879586946332fb62e760e21b865261ffff809216600487015216602485015260443560448501526080606485015260848401916124ef565b03925af180156107cc57611da557005b80611db261001992610da1565b8061066c565b611dc136610479565b9161ffff86949296166000526097602052611df581604060002060206040518092878b8337878201908152030190206111ed565b54918215611e9457611e8884611e817fc264d91f3adc5588250e1551f547752ca0cfa8f6b530d243b9f9f4cab10ea8e5996000611e7587611e708d89611e6a8f6110d59f8f611e49611e569236908d610ea2565b60208151910120146125bb565b61ffff166000526097602052604060002090565b916125a2565b6111ed565b556112bc36868c610ea2565b9087613505565b60405195869586612611565b60405162461bcd60e51b815260206004820152602360248201527f4e6f6e626c6f636b696e674c7a4170703a206e6f2073746f726564206d65737360448201526261676560e81b6064820152608490fd5b3461042057604036600319011261042057610019602435600435611f08826108a5565b80600052610103602052611f236001604060002001546127c2565b612879565b3461042057602036600319011261042057600435611f45816108a5565b611f4d61427b565b61013580546001600160a01b0319166001600160a01b03909216919091179055005b3461042057606036600319011261042057611f8861040f565b611f90610425565b60443591611f9c6128f6565b8215612017576110d57f9d5c7c0b934da8fefa9c7760c98383778a12dfbfc0c3b3106518f43fb9508ac09361ffff8316600052606760205280611ff18560406000209061ffff16600052602052604060002090565b556040519384938460409194939294606082019561ffff80921683521660208201520152565b60405162461bcd60e51b81526020600482015260156024820152744c7a4170703a20696e76616c6964206d696e47617360581b6044820152606490fd5b346104205760203660031901126104205761206d6128f6565b600435600090815260cf60205260409020805460ff19169055005b346104205761209636610c04565b91906120a06128f6565b60009161ffff81168352602060668152604084209060018060401b038611610db4576120d6866120d0845461143d565b8461252b565b8490601f871160011461212c5750946119d091818697600080516020615eef8339815191529791612121575b508260011b906000198460031b1c191617905560405193849384612510565b905085013538612102565b90601f19871661214184600052602060002090565b9287905b828210612196575050916119d0939188600080516020615eef8339815191529899941061217c575b5050600182811b0190556119c4565b860135600019600385901b60f8161c19169055388061216d565b80600185968294968b01358155019501930190612145565b346104205760003660031901126104205760206111ce6142f0565b34610420576080366003190112610420576121e56004356108a5565b6121f06024356108a5565b600080516020615ecf83398151915260005261010360205260ff612234337f3baea6bac6d40bb23e7a0c173a239a2a34c89aba451ebd319fcdee42f72214996127ab565b5416156122445760443561013655005b6122d560486122bd61225533612a90565b6110f4612260612b10565b60405194859376020b1b1b2b9b9a1b7b73a3937b61d1030b1b1b7bab73a1604d1b602086015261229a8151809260206037890191016106ac565b84017001034b99036b4b9b9b4b733903937b6329607d1b603782015201906111d6565b60405162461bcd60e51b8152918291600483016106f4565b0390fd5b34610420576020366003190112610420576122f2613373565b60043560cc55005b3461042057602036600319011261042057600435612317816108a5565b61231f6128f6565b6001600160a01b03811615612337576100199061294e565b60405162461bcd60e51b815260206004820152602660248201527f4f776e61626c653a206e6577206f776e657220697320746865207a65726f206160448201526564647265737360d01b6064820152608490fd5b34610420576080366003190112610420576123a461040f565b60006123ae610425565b916123ba6044356108a5565b606554604051633d7b2f6f60e21b815261ffff92831660048201529390911660248401523060448401526064803590840152829060849082906001600160a01b03165afa80156107cc576107549160009161241d575b50604051918291826106f4565b612438913d8091833e6124308183610e25565b810190612485565b38612410565b346104205760203660031901126104205760206111ce600435612eb8565b346104205760003660031901126104205760cb546040516001600160a01b039091168152602090f35b602081830312610420578051906001600160401b038211610420570181601f820112156104205780516124b781610e87565b926124c56040519485610e25565b818452602082840101116104205761070591602080850191016106ac565b6040513d6000823e3d90fd5b908060209392818452848401376000828201840152601f01601f1916010190565b60409061ffff610705959316815281602082015201916124ef565b90601f811161253957505050565b600091825260208220906020601f850160051c83019410612575575b601f0160051c01915b82811061256a57505050565b81815560010161255e565b9092508290612555565b634e487b7160e01b600052601160045260246000fd5b9190820391821161189e57565b6020919283604051948593843782019081520301902090565b156125c257565b60405162461bcd60e51b815260206004820152602160248201527f4e6f6e626c6f636b696e674c7a4170703a20696e76616c6964207061796c6f616044820152601960fa1b6064820152608490fd5b9160609361ffff61263493989796981684526080602085015260808401916124ef565b6001600160401b0390951660408201520152565b90601f820180921161189e57565b9190820180921161189e57565b1561266a57565b60405162461bcd60e51b815260206004820152600e60248201526d736c6963655f6f766572666c6f7760901b6044820152606490fd5b156126a757565b60405162461bcd60e51b8152602060048201526011602482015270736c6963655f6f75744f66426f756e647360781b6044820152606490fd5b6126ee6014825110156126a0565b6040519060148083019101602883015b80831061271857505060148252601f01601f191660405290565b90918251815260208091019201906126fe565b61273f8261273881612648565b1015612663565b61274c82825110156126a0565b81612764575050604051600081526020810160405290565b60405191601f811691821560051b808486010193838501920101905b8084106127985750508252601f01601f191660405290565b9092835181526020809101930190612780565b9060018060a01b0316600052602052604060002090565b8060005261010360205260ff6127dc3360406000206127ab565b5416156127e65750565b6127ef33612a90565b6127f76129d9565b91603061280384612a0a565b53607861280f84612a17565b5360415b60018111612832576122d560486122bd856110f4886122608815612a45565b90600f81169060108210156128745761286f916f181899199a1a9b1b9c1cb0b131b232b360811b901a6128658487612a27565b5360041c91612a38565b612813565b6129f4565b6000908082526101038060205260ff61289585604086206127ab565b54166128a2575b50505050565b8183526020526128b583604084206127ab565b805460ff1916905533926001600160a01b0316917ff6391f5c32d9c69d2a47ea670b442974b53935d1edc7fd64eb21e047a839171b9080a43880808061289c565b6033546001600160a01b0316330361290a57565b606460405162461bcd60e51b815260206004820152602060248201527f4f776e61626c653a2063616c6c6572206973206e6f7420746865206f776e65726044820152fd5b603380546001600160a01b039283166001600160a01b031982168117909255909116600080516020615e8f833981519152600080a3565b9060648202918083046064149015171561189e57565b8181029291811591840414171561189e57565b6040519060c082016001600160401b03811183821017610db4576040526096825260a0366020840137565b604051906129e682610e0a565b604282526060366020840137565b634e487b7160e01b600052603260045260246000fd5b8051156128745760200190565b8051600110156128745760210190565b908151811015612874570160200190565b801561189e576000190190565b15612a4c57565b606460405162461bcd60e51b815260206004820152602060248201527f537472696e67733a20686578206c656e67746820696e73756666696369656e746044820152fd5b60405190612a9d82610def565b602a825260403660208401376030612ab483612a0a565b536078612ac083612a17565b536029905b60018211612ad857610705915015612a45565b600f811690601082101561287457612b0a916f181899199a1a9b1b9c1cb0b131b232b360811b901a6128658486612a27565b90612ac5565b600080516020615ecf833981519152612b276129d9565b906030612b3383612a0a565b536078612b3f83612a17565b536041905b60018211612b5757610705915015612a45565b600f811690601082101561287457612b89916f181899199a1a9b1b9c1cb0b131b232b360811b901a6128658486612a27565b90612b44565b90816020910312610420575190565b60ca546040516370a0823160e01b815230600482015290602090829060249082906001600160a01b03165afa9081156107cc57600091612bdc575090565b610705915060203d8111610945576109368183610e25565b600080516020615eaf8339815191528152600019602082015260400190565b60405163a9059cbb60e01b60208201526001600160a01b0390921660248301526044808301939093529181526114b59161181882610e0a565b90816020910312610420575161070581610d47565b612cb7604051612c7081610dd4565b600080602094858452600080516020615e6f8339815191528685015285815191018273b67c014fa700e69681a673876eb8bafaa36bff715af1612cb1612d8b565b90612dbb565b805190828215928315612d27575b50505015612cd05750565b6084906040519062461bcd60e51b82526004820152602a60248201527f5361666545524332303a204552433230206f7065726174696f6e20646964206e6044820152691bdd081cdd58d8d9595960b21b6064820152fd5b612d379350820181019101612c4c565b388281612cc5565b604051612cb7916001600160a01b0316612d5882610dd4565b600080602095868552600080516020615e6f83398151915287860152868151910182855af1612d85612d8b565b91612e88565b3d15612db6573d90612d9c82610e87565b91612daa6040519384610e25565b82523d6000602084013e565b606090565b90919015612e315750805115612dce5790565b73b67c014fa700e69681a673876eb8bafaa36bff713b15612dec5790565b60405162461bcd60e51b815260206004820152601d60248201527f416464726573733a2063616c6c20746f206e6f6e2d636f6e74726163740000006044820152606490fd5b815115612e415750805190602001fd5b60405162461bcd60e51b81529081906122d590600483016106f4565b90919015612e315750805115612e705790565b600080516020615f4f8339815191523b15612dec5790565b91929015612ea55750815115612e9c575090565b3b15612dec5790565b825190915015612e415750805190602001fd5b60405160208101917b0ca2ba3432b932bab69029b4b3b732b21026b2b9b9b0b3b29d05199960211b8352603c820152603c8152612ef481610def565b51902090565b60d05460cb546040519060208201923060601b8452603483015261ffff60f01b9060401b16605482015260368152612ef481610def565b15612f3857565b60405162461bcd60e51b815260206004820152601e60248201527f4261736553747261746567793a3a44656274526174696f4e6f745a65726f00006044820152606490fd5b600019811461189e5760010190565b60051115612f9657565b634e487b7160e01b600052602160045260246000fd5b6002815260406020820181905282516001600160a01b03169082015261070591906101a0906020830151606082015260408301516080820152606083015160a0820152608083015160c082015260a083015160e082015260c0830151610100908183015260e084015190610120918284015284015190610140918284015284015193610160948584015201519261018082015201906106cf565b80516020909101516001600160601b031980821693929091906014811061306c57505050565b60140360031b82901b16169150565b91936131197fe183f33de2837795525b4792ca4cd60535bd77c53b7e7030060bfcf5734d6b0c95613127939561ffff815160208301209616958660005260976020526130df8361127460208b604060002082604051948386809551938492016106ac565b556130fc604051978897885260a0602089015260a08801906106cf565b6001600160401b03909216604087015285820360608701526106cf565b9083820360808501526106cf565b0390a1565b6131486131509161314361313e612efa565b612eb8565b6132c7565b9190916131ac565b60c9546001600160a01b0390811691160361316757565b60405162461bcd60e51b815260206004820152601e60248201527f4261736553747261746567793a3a496e76616c69645369676e617475726500006044820152606490fd5b6131b581612f8c565b806131bd5750565b6131c681612f8c565b6001810361320e5760405162461bcd60e51b815260206004820152601860248201527745434453413a20696e76616c6964207369676e617475726560401b6044820152606490fd5b61321781612f8c565b600281036132645760405162461bcd60e51b815260206004820152601f60248201527f45434453413a20696e76616c6964207369676e6174757265206c656e677468006044820152606490fd5b80613270600392612f8c565b1461327757565b60405162461bcd60e51b815260206004820152602260248201527f45434453413a20696e76616c6964207369676e6174757265202773272076616c604482015261756560f01b6064820152608490fd5b9060418151146000146132f1576104dc916020820151906060604084015193015160001a906132fb565b5050600090600290565b9291906fa2a8918ca85bafe22016d0b997e4df60600160ff1b0383116133675791608094939160ff602094604051948552168484015260408301526060820152600093849182805260015afa156107cc5781516001600160a01b03811615613361579190565b50600190565b50505050600090600390565b60c9546001600160a01b0316330361338757565b60405162461bcd60e51b815260206004820152601c60248201527b10985cd954dd1c985d1959de4e8e93db9b1e54dd1c985d1959da5cdd60221b6044820152606490fd5b906133d46142f0565b82811061348a57916133e69192612595565b906000915b6133fd6133f88284612656565b614629565b505061341261340d60ca54610677565b610677565b91602060405180946370a0823160e01b825281806134333060048301610975565b03915afa9283156107cc5760009361346a575b5081831161345657505091600090565b61346582610705939694612595565b61349c565b61348391935060203d8111610945576109368183610e25565b9138613446565b61349690600093612595565b916133eb565b90808210156134a9575090565b905090565b156134b557565b60405162461bcd60e51b815260206004820152602260248201527f4261736553747261746567793a3a5661756c74416464726573734d69736d61746044820152610c6d60f31b6064820152608490fd5b919060cb549261ffff808560a01c16911603611328576114b59261131061130a6110f46113056112f5611323966126e0565b90816020910312610420575160058110156104205790565b809291039160408312610420576020815193601f1901126104205760206040519161357983610db9565b0151613584816108a5565b815290565b809291039160608312610420576040815193601f190112610420576040805191908201906001600160401b03821183831017610db4576040918252602081015183520151602082015290565b809291039160408312610420576020815193601f190112610420576020604051916135ff83610db9565b0151815290565b80519061361b60208083019383010183613537565b61362481612f8c565b6003810361366d5750613650600080516020615f0f8339815191529260208361312794510101906135d5565b905061365c815161444f565b516040519081529081906020820190565b61367681612f8c565b8061369757506114b5916020826136909351010190613589565b9050613756565b806136a3600492612f8c565b146136ac575050565b6136fe6136e47f7c9a2d2ec51230d7dbed27f113a325b7e20aef7b049e68b2339257b5edff5bea93602084613127955101019061354f565b90506136f86136f38251610677565b613852565b51610677565b60405191829182610975565b1561371157565b60405162461bcd60e51b815260206004820152601e60248201527f4261736553747261746567793a3a416c726561647957697468647261776e00006044820152606490fd5b6138366114b5916138006110f461379f6020840193613799613794613790613789885160005260cf602052604060002090565b5460ff1690565b1590565b61370a565b51614629565b84939193516137ac610e68565b30815291602083810187815260408086019384526060808701958652815160019481019490945295516001600160a01b03169083015251938101939093525160808301525160a082015291829060c0820190565b81156138435760cb54613825926001600160a01b0382169160a01c61ffff169061392b565b5160005260cf602052604060002090565b805460ff19166001179055565b61384d9150613aa1565b613825565b61385a614727565b60ca546001600160a01b03916138739184908416612c13565b60ca5416604051916370a0823160e01b8352306004840152602083602481855afa9182156107cc576114b5936000936138ad575b50612c13565b6138c691935060203d8111610945576109368183610e25565b91386138a7565b610705939261ffff60609316825260018060a01b0316602082015281604082015201906106cf565b919361ffff60a0946107059796600180881b038095168652602086015216604084015216606082015281608082015201906106cf565b60cd549293926139469060081c6001600160a01b0316610677565b90604051630dc6346160e01b815260208180613967888a89600485016138cd565b0381865afa9081156107cc576000916139d2575b5061398a61340d60ca54610677565b833b15610420576139b460009660405198899788968795633920455b60e11b8752600487016138f5565b03925af180156107cc576139c55750565b80611db26114b592610da1565b6139ea915060203d8111610945576109368183610e25565b3861397b565b9190826040910312610420576020825192015190565b92610705949261ffff613a349316855260018060a01b0316602085015260a0604085015260a08401906106cf565b916000606082015260808184039101526106cf565b92613a6e61070597959361ffff613a7c9416865260c0602087015260c08601906106cf565b9084820360408601526106cf565b6001600160a01b0391821660608401529316608082015280830360a0909101526106cf565b60cb54604080516001600160601b0319606084811b8216602084015230901b1660348201529091613adf82604881015b03601f198101845283610e25565b61ffff613af061340d606554610677565b9160a01c16613b1d84613b01613bb9565b81518093819263040a7bb160e41b83528a308860048601613a06565b0381865afa9081156107cc57600091613b8b575b50804710613b6d57613b41613bb9565b95833b15610420576139b4600096519788968795869462c5803160e81b86523092309260048801613a49565b845162fae2d560e21b81526004810191909152476024820152604490fd5b613bab9150853d8711613bb2575b613ba38183610e25565b8101906139f0565b5038613b31565b503d613b99565b604051600160f01b6020820152620f424060228201526022815261070581610def565b15613be357565b60405162461bcd60e51b815260206004820152602e60248201527f496e697469616c697a61626c653a20636f6e747261637420697320616c72656160448201526d191e481a5b9a5d1a585b1a5e995960921b6064820152608490fd5b93613cbc613cff9493613c9a613cdd94613c78613d049a9b9c99613c7360ff60005460081c16613c6e81613eb9565b613eb9565b61422a565b60c980546001600160a01b0319166001600160a01b0392909216919091179055565b60ca80546001600160a01b0319166001600160a01b0392909216919091179055565b60cb805461ffff60a01b191660a09290921b61ffff60a01b16919091179055565b60cb80546001600160a01b0319166001600160a01b0392909216919091179055565b60cc55565b613d1861340d61340d61340d60ca54610677565b91604051809363313ce56760e01b825281600460209687935afa9283156107cc57613ddf8593613d6f600096613e22958891613e8c575b5060cb805460ff60c01b191660c09290921b60ff60c01b16919091179055565b613d79600060d055565b60cb805461ffff60b01b19164660b01b61ffff60b01b1617905560cd8054610100600160a81b031916600885901b610100600160a81b03161790556001600160a01b039060ce8054919092166001600160a01b03166001600160a01b0319909116179055565b613ded61340d60ca54610677565b60405163095ea7b360e01b81526001600160a01b03909216600483015260001960248301529093849283919082906044820190565b03925af180156107cc57613e5e575b5050613e3b613f84565b613e43614036565b613e4b6140b6565b6114b5613e5960ca54610677565b614199565b81613e7d92903d10613e85575b613e758183610e25565b810190612c4c565b503880613e31565b503d613e6b565b613eac9150873d8911613eb2575b613ea48183610e25565b810190614211565b38613d4f565b503d613e9a565b15613ec057565b60405162461bcd60e51b815260206004820152602b60248201527f496e697469616c697a61626c653a20636f6e7472616374206973206e6f74206960448201526a6e697469616c697a696e6760a81b6064820152608490fd5b15613f2057565b60405162461bcd60e51b815260206004820152603660248201527f5361666545524332303a20617070726f76652066726f6d206e6f6e2d7a65726f60448201527520746f206e6f6e2d7a65726f20616c6c6f77616e636560501b6064820152608490fd5b604051636eb1769f60e11b8152306004820152600080516020615e2f8339815191526024820181905260208260448173b67c014fa700e69681a673876eb8bafaa36bff715afa9182156107cc576114b592613fe891600091614018575b5015613f19565b6040519063095ea7b360e01b6020830152602482015260001960448201526044815261401381610e0a565b612c61565b614030915060203d8111610945576109368183610e25565b38613fe1565b604051636eb1769f60e11b8152306004820152600080516020615eaf833981519152602482015260208160448173b67c014fa700e69681a673876eb8bafaa36bff715afa80156107cc5761409291600091614018575015613f19565b60405163095ea7b360e01b60208201526114b590614013816110f460248201612bf4565b604051636eb1769f60e11b815230600482015273e592427a0aece92de3edee1f18e0157c0586156460248201819052602091600080516020615f4f83398151915291908381604481865afa80156107cc57612cb7936141216000939284938491614182575015613f19565b604051938685019063095ea7b360e01b82526024860152821960448601526044855261414c85610e0a565b826040519561415a87610dd4565b888752600080516020615e6f8339815191528988015251925af161417c612d8b565b90612e5d565b6140309150883d8a11610945576109368183610e25565b604051636eb1769f60e11b8152306004820152600080516020615eaf8339815191526024820152906020826044816001600160a01b0385165afa9182156107cc576114b5926141f091600091614018575015613f19565b60405163095ea7b360e01b60208201529061181882613ad160248201612bf4565b90816020910312610420575160ff811681036104205790565b61423f60ff60005460081c16613c6e81613eb9565b6142483361294e565b61425960ff60005460081c16613eb9565b606580546001600160a01b0319166001600160a01b0392909216919091179055565b60c9546001600160a01b0316331480156142e7575b1561429757565b60405162461bcd60e51b815260206004820152602260248201527f4261736553747261746567793a3a4f6e6c79537472617465676973744f725365604482015261363360f11b6064820152608490fd5b50303314614290565b60ff61013754161561432d5761430c614307614866565b6148dd565b614314612b9e565b810180911161189e5761013654810180911161189e5790565b604051630570e54b60e51b8152600490fd5b6001600160401b038111610db45760051b60200190565b6040519061436382610def565b600282526040366020840137565b8051600110156128745760400190565b90815180825260208080930193019160005b8281106143a1575050505090565b835185529381019392810192600101614393565b92916143da604091600193848060a01b03168652606060208701526060860190614381565b930152565b92916143da60409160009360018060a01b03168652606060208701526060860190614381565b634e487b7160e01b600052601260045260246000fd5b8015614428576000190490565b614405565b61444560409295949395606083526060830190614381565b9460208201520152565b60cd5460ff1661447d57614461615a80565b614469612b9e565b90600091818111614618575b505080614480575b50565b614488614356565b9061449282612a0a565b52600061449e82614371565b5260405163f9273ffb60e01b815260209190806144bf8330600484016143b5565b03918382600080516020615eaf8339815191529481865afa9283156107cc576145046144fc6145249587956000916145fb575b5060cc549061299b565b612710900490565b6000604051809681958294634d49e87d60e01b845242916004850161442d565b03925af180156107cc576145de575b506040516370a0823160e01b81528181806145513060048301610975565b038173b67c014fa700e69681a673876eb8bafaa36bff715afa9182156107cc576000926145c1575b5050600080516020615e2f833981519152803b156104205760405163534a7e1d60e11b815260048101929092526000908290602490829084905af180156107cc576139c55750565b6145d79250803d10610945576109368183610e25565b3880614579565b6145f490823d8411610945576109368183610e25565b5038614533565b6146129150863d8811610945576109368183610e25565b386144f2565b6146229250612595565b3880614475565b90600061463a61340d60ca54610677565b9060405191826370a0823160e01b91828252602094859181806146603060048301610975565b03915afa9081156107cc5760009161470a575b50858110156147015761468961468e9187612595565b6158c8565b8261469d61340d60ca54610677565b604051928352829081806146b43060048301610975565b03915afa9283156107cc576000936146e2575b5050818411156146dd5750806107059193612595565b919050565b6146f9929350803d10610945576109368183610e25565b9038806146c7565b50505050600090565b6147219150843d8611610945576109368183610e25565b38614673565b61472f615a80565b614737612b9e565b600080516020615e2f83398151915290813b1561042057604051632e1a7d4d60e01b815260048101829052916000908390602490829084905af19182156107cc576147bb92614853575b506040516301f1d0ab60e51b8152600481019190915260006024820181905260448201524260648201526020918290829081906084820190565b03816000600080516020615eaf8339815191525af180156107cc57614836575b506147ea61340d60ca54610677565b8160405180926370a0823160e01b825281806148093060048301610975565b03915afa9182156107cc5760009261482057505090565b6107059250803d10610945576109368183610e25565b61484c90823d8411610945576109368183610e25565b50386147db565b80611db261486092610da1565b38614781565b6040516370a0823160e01b8152306004820152602081602481600080516020615e2f8339815191525afa9081156107cc57600091612bdc575090565b6040516246613160e11b8152306004820152602081602481600080516020615e2f8339815191525afa9081156107cc57600091612bdc575090565b801561492c5760405190630262267d60e61b8252306004830152602482015260006044820152602081606481600080516020615eaf8339815191525afa9081156107cc57600091612bdc575090565b50600090565b9060018060a01b0360ca54169160ff19926101379184835416835561495c61340d61013554610677565b91823b1561042057604051634d1dde7b60e01b8152600080516020615f4f83398151915260048201527382af49447d8a07e3bd95bd0d56f35241523fbab1602482015260448101839052600193614a0b93600092909183908290606490829084905af19081614a50575b50614a14576149fd600080516020615f2f833981519152916149f86149f26149ec612d8b565b92614b7c565b61013655565b614a63565b9180a25b6101365490614a83565b93825416179055565b90600080516020615f4f833981519152600080516020615e0f833981519152827382af49447d8a07e3bd95bd0d56f35241523fbab193a4614a01565b80611db2614a5d92610da1565b386149c6565b614a7b906020604051928284809451938492016106ac565b810103902090565b61013760ff198154169055614a9d61340d61013554610677565b90813b1561042057604051634d1dde7b60e01b81527382af49447d8a07e3bd95bd0d56f35241523fbab160048201526001600160a01b03821660248201526044810184905260009283908290606490829084905af19081614b69575b50614b3257614b27906149f86149f2600080516020615f2f8339815191529495614b21612d8b565b93614ce0565b9180a25b6101365490565b6001600160a01b0316907382af49447d8a07e3bd95bd0d56f35241523fbab190600080516020615e0f8339815191529080a4614b2b565b80611db2614b7692610da1565b38614af9565b614bc49060009081614b8c614356565b614b9f614b9882612a0a565b6107089052565b81614ba982614371565b526040518095819263883bdbfd60e01b835260048301614f01565b03817344ca2be2bd6a7203ccdbb63eed8382274f737a155afa9182156107cc5761070593818094614cb2575b5050614c1e81614c18614c0b614c12614c0b614c4496614371565b5160060b90565b92612a0a565b90614f42565b92614c3e614c31614c12614c3184614371565b516001600160a01b031690565b90614f67565b9160060b916107089283810560020b93600082129182614ca3575b5050614c8e575b614c7e9060201b600160201b600160c01b0316614f95565b506001600160801b031690614fb1565b91614c9b614c7e91614f80565b929050614c66565b0760060b151590503880614c5f565b614c1e9450614c44925090614cd8913d8091833e614cd08183610e25565b810190614e64565b939091614bf0565b614d219160009081614cf0614356565b614cfc614b9882612a0a565b81614d0682614371565b526040518096819263883bdbfd60e01b835260048301614f01565b038173c31e54c7a869b9fcbecc14363cf510d1c41fa4435afa9182156107cc5761070594818094614dd6575b5050614c1e81614c18614c0b614c12614c0b614d6896614371565b9160060b916107089283810560020b93600082129182614dc7575b5050614db2575b614da29060201b600160201b600160c01b0316614f95565b506001600160801b03169061534e565b91614dbf614da291614f80565b929050614d8a565b0760060b151590503880614d83565b614c1e9450614d68925090614df4913d8091833e614cd08183610e25565b939091614d4d565b81601f8201121561042057805191614e138361433f565b92614e216040519485610e25565b808452602092838086019260051b820101928311610420578301905b828210614e4b575050505090565b8380918351614e59816108a5565b815201910190614e3d565b9190916040818403126104205780516001600160401b0393908481116104205782019381601f8601121561042057845194614e9e8661433f565b90614eac6040519283610e25565b868252602096878084019160051b83010191858311610420578801905b828210614ee85750505094830151908111610420576107059201614dfc565b81518060060b8103610420578152908801908801614ec9565b6020908160408183019282815285518094520193019160005b828110614f28575050505090565b835163ffffffff1685529381019392810192600101614f1a565b600691820b910b0390667fffffffffffff198212667fffffffffffff83131761189e57565b6001600160a01b03918216908216039190821161189e57565b60020b627fffff19811461189e576000190190565b6001600160c01b031680156144285761070860e160a31b030490565b60020b60008112156153485780600003905b620d89e8821161533657600182161561532c576ffffcb933bd6fad37aa2d162d1a5940015b6001600160881b03169160028116615310575b600481166152f4575b600881166152d8575b601081166152bc575b602081166152a0575b60408116615284575b608090818116615269575b610100811661524e575b6102008116615233575b6104008116615218575b61080081166151fd575b61100081166151e2575b61200081166151c7575b61400081166151ac575b6180008116615191575b620100008116615176575b62020000811661515c575b620400008116615142575b6208000016615127575b50600012615119575b63ffffffff8116615111576000905b60201c60ff91909116016001600160a01b0316906001600160801b038083116150fd576150f6836107059461299b565b9116615852565b61510a8361070594615735565b911661577a565b6001906150c6565b6151229061441b565b6150b7565b6b048a170391f7dc42444e8fa26000929302901c91906150ae565b6d2216e584f5fa1ea926041bedfe98909302811c926150a4565b926e5d6af8dedb81196699c329225ee60402811c92615099565b926f09aa508b5b7a84e1c677de54f3e99bc902811c9261508e565b926f31be135f97d08fd981231505542fcfa602811c92615083565b926f70d869a156d2a1b890bb3df62baf32f702811c92615079565b926fa9f746462d870fdf8a65dc1f90e061e502811c9261506f565b926fd097f3bdfd2022b8845ad8f792aa582502811c92615065565b926fe7159475a2c29b7443b29c7fa6e889d902811c9261505b565b926ff3392b0822b70005940c7a398e4b70f302811c92615051565b926ff987a7253ac413176f2b074cf7815e5402811c92615047565b926ffcbe86c7900a88aedcffc83b479aa3a402811c9261503d565b926ffe5dee046a99a2a811c461f1969c305302811c92615033565b916fff2ea16466c96a3843ec78b326b528610260801c91615028565b916fff973b41fa98c081472e6896dfb254c00260801c9161501f565b916fffcb9843d60f6159c9db58835c9266440260801c91615016565b916fffe5caca7e10e4e61c3624eaa0941cd00260801c9161500d565b916ffff2e50f5f656932ef12357cf3c7fdcc0260801c91615004565b916ffff97272373d413259a46990580e213a0260801c91614ffb565b600160801b614fe8565b6040516315e4079d60e11b8152600490fd5b80614fc3565b90919060020b600081121561572857806000035b620d89e881116153365760ff91600182161561571e576ffffcb933bd6fad37aa2d162d1a5940015b6001600160881b03169160028116615702575b600481166156e6575b600881166156ca575b601081166156ae575b60208116615692575b60408116615676575b60809081811661565b575b6101008116615640575b6102008116615625575b610400811661560a575b61080081166155ef575b61100081166155d4575b61200081166155b9575b614000811661559e575b6180008116615583575b620100008116615568575b62020000811661554e575b620400008116615534575b6208000016615519575b5060001261550b575b63ffffffff8116615503576000905b6001600160801b03926001600160a01b03921660209190911c0181168281116154c757806154959161299b565b92167382af49447d8a07e3bd95bd0d56f35241523fbab110156154bd57610705921690615883565b6107059216615852565b806154d191615735565b92167382af49447d8a07e3bd95bd0d56f35241523fbab110156154f95761070592169061580d565b610705921661577a565b600190615468565b6155149061441b565b615459565b6b048a170391f7dc42444e8fa26000929302901c9190615450565b6d2216e584f5fa1ea926041bedfe98909302811c92615446565b926e5d6af8dedb81196699c329225ee60402811c9261543b565b926f09aa508b5b7a84e1c677de54f3e99bc902811c92615430565b926f31be135f97d08fd981231505542fcfa602811c92615425565b926f70d869a156d2a1b890bb3df62baf32f702811c9261541b565b926fa9f746462d870fdf8a65dc1f90e061e502811c92615411565b926fd097f3bdfd2022b8845ad8f792aa582502811c92615407565b926fe7159475a2c29b7443b29c7fa6e889d902811c926153fd565b926ff3392b0822b70005940c7a398e4b70f302811c926153f3565b926ff987a7253ac413176f2b074cf7815e5402811c926153e9565b926ffcbe86c7900a88aedcffc83b479aa3a402811c926153df565b926ffe5dee046a99a2a811c461f1969c305302811c926153d5565b916fff2ea16466c96a3843ec78b326b528610260801c916153ca565b916fff973b41fa98c081472e6896dfb254c00260801c916153c1565b916fffcb9843d60f6159c9db58835c9266440260801c916153b8565b916fffe5caca7e10e4e61c3624eaa0941cd00260801c916153af565b916ffff2e50f5f656932ef12357cf3c7fdcc0260801c916153a6565b916ffff97272373d413259a46990580e213a0260801c9161539d565b600160801b61538a565b80615362565b1561042057565b600019828209908281029283808410930392808403931461577157600160401b9183831115610420570990828211900360c01b910360401c1790565b50505060401c90565b90600160801b90600019838309928060801b928380861095039480860395146157fa579082916157ab86841161572e565b0981806000031680920460028082600302188083028203028083028203028083028203028083028203028083028203028092029003029360018380600003040190848311900302920304170290565b5050915061580982151561572e565b0490565b600019828209908281029283808410930392808403931461584957600160801b9183831115610420570990828211900360801b910360801c1790565b50505060801c90565b90600160c01b90600019838309928060c01b928380861095039480860395146157fa579082916157ab86841161572e565b60001982820990828102928380841093039280840393146158bf57600160c01b9183831115610420570990828211900360401b910360c01c1790565b50505060c01c90565b801561447d57806158da611bb16148a2565b106158e857506114b5615a80565b6158f0614866565b906158fc611bb16148a2565b810390811161189e5761590e9161349c565b615916615a80565b61591e614356565b908061592983612a0a565b526000908161593784614371565b5260405163f9273ffb60e01b81528061595660209530600484016143df565b038482600080516020615eaf8339815191529281845afa9182156107cc578492615a61575b5081615985612b9e565b10615a51575b600080516020615e2f83398151915293843b156107d557604051632e1a7d4d60e01b8152600481018490529481908690602490829084905af19485156107cc576144fc87956159e692615a1c98615a44575060cc549061299b565b6040516301f1d0ab60e51b8152600481019490945260006024850152604484015242606484015291938492839182906084820190565b03925af180156107cc57615a2e575050565b8161447d92903d10610945576109368183610e25565b80611db261461292610da1565b9050615a5b612b9e565b9061598b565b615a79919250853d8711610945576109368183610e25565b903861597b565b600080516020615e2f833981519152803b156104205760008091600460405180948193631e8c5c8960e11b83525af180156107cc57615b22575b506040516370a0823160e01b815260208180615ad93060048301610975565b0381600080516020615f4f8339815191525afa80156107cc576114b591600091615b04575b50615b35565b615b1c915060203d8111610945576109368183610e25565b38615afe565b80611db2615b2f92610da1565b38615aba565b801561447d57615b52615b4c6144fc60cc54612985565b60ff1690565b90615b6261340d61013554610677565b91823b15610420576040516310cabd1d60e01b8152600080516020615f4f833981519152600482015273ff970a61a04b1ca14834a43f5de4533ebddb5cc860248201526044810183905260ff91909116606482015260009283908290608490829084905af19081615c59575b50615c0e57615c097fab2169d52de19835827d46106e22dfb1c4261618a79928c57f4b4b0c2cfe4f93916149f8615c03612d8b565b91615cf2565b9180a2565b90600080516020615f4f8339815191527fea368a40e9570069bb8e6511d668293ad2e1f03b0d982431fd223de9f3b70ca68273ff970a61a04b1ca14834a43f5de4533ebddb5cc893a4565b80611db2615c6692610da1565b38615bce565b6040519060a082016001600160401b03811183821017610db4576040526000608083606081528260208201528260408201528260608201520152565b6020815260a06080615cc5845183602086015260c08501906106cf565b93600180841b03602082015116604085015260408101516060850152606081015182850152015191015290565b6020615dcf91615db06144fc615d06615c6c565b6040517331440bfa4d67f668a3e1de99f8dac3c1436068f360621b86820190815261017760eb1b60148201527382af49447d8a07e3bd95bd0d56f35241523fbab160601b6017820152607d60ea1b602b8201526001720d1eb3cbf69c6bd6f96b78144375982844946760631b0319602e82015291949091615d8b908390604201613ad1565b615d9481614932565b9185523086860152426040860152606085015260cc549061299b565b60808201526040518093819263c04b8d5960e01b835260048301615ca8565b0381600073e592427a0aece92de3edee1f18e0157c058615645af180156107cc57615df75750565b61447d9060203d8111610945576109368183610e2556fee47a58d87426c749b0bf81083c60c31e2ec1cfae38d60931162d521cc9850070000000000000000000000000b0cabfe930642ad3e7decdc741884d8c3f7ebc708c0400cfe2d1199b1a725c78960bcc2a344d869b80590d0f2bd005db15a572ce5361666545524332303a206c6f772d6c6576656c2063616c6c206661696c65648be0079c531659141344cd1fd0a4f28419497f9722a3daafe3b4186f6b6457e000000000000000000000000010541b07d8ad2647dc6cd67abd4c03575dade2616d1efadb607420c71e8f966ae6611a2b817ec83a98f82ae24284fd004cf9d40cfa41487ad5d6728f0b19276fa1eddc16558578f5109fc39d2dc33c3230470dabb0c58532a125fc3c0adccaef396bf65344a4d5781cec2e4c593e6b611d75f150af2dd20a54732d7c0bcd33221cf4894e12eb02888fbdabf5c3705562ffe4cbfc000000000000000000000000c5102fe9359fd9a28f877a67e36b0f050d81a3cca264697066735822122065e83b08162cfda1f6cd19098980b1aa9b487e182585b950eeef3816cbbacae264736f6c63430008130033",
  "linkReferences": {},
  "deployedLinkReferences": {}
}