{
  "_format": "hh-sol-artifact-1",
  "contractName": "HopStrategy",
  "sourceName": "contracts/strategies/HopStrategy.sol",
  "abi": [
    {
      "inputs": [
        {
          "internalType": "uint256",
          "name": "messageType",
          "type": "uint256"
        }
      ],
      "name": "IncorrectMessageType",
      "type": "error"
    },
    {
      "inputs": [],
      "name": "InitializeQuoteBufferWithHopToWantValue",
      "type": "error"
    },
    {
      "inputs": [
        {
          "internalType": "uint256",
          "name": "amount",
          "type": "uint256"
        },
        {
          "internalType": "uint256",
          "name": "balance",
          "type": "uint256"
        }
      ],
      "name": "InsufficientFunds",
      "type": "error"
    },
    {
      "inputs": [],
      "name": "T",
      "type": "error"
    },
    {
      "anonymous": false,
      "inputs": [
        {
          "indexed": false,
          "internalType": "uint256",
          "name": "debtOutstanding",
          "type": "uint256"
        }
      ],
      "name": "AdjustedPosition",
      "type": "event"
    },
    {
      "anonymous": false,
      "inputs": [
        {
          "indexed": false,
          "internalType": "uint8",
          "name": "version",
          "type": "uint8"
        }
      ],
      "name": "Initialized",
      "type": "event"
    },
    {
      "anonymous": false,
      "inputs": [
        {
          "indexed": false,
          "internalType": "uint16",
          "name": "_srcChainId",
          "type": "uint16"
        },
        {
          "indexed": false,
          "internalType": "bytes",
          "name": "_srcAddress",
          "type": "bytes"
        },
        {
          "indexed": false,
          "internalType": "uint64",
          "name": "_nonce",
          "type": "uint64"
        },
        {
          "indexed": false,
          "internalType": "bytes",
          "name": "_payload",
          "type": "bytes"
        },
        {
          "indexed": false,
          "internalType": "bytes",
          "name": "_reason",
          "type": "bytes"
        }
      ],
      "name": "MessageFailed",
      "type": "event"
    },
    {
      "anonymous": false,
      "inputs": [
        {
          "indexed": true,
          "internalType": "address",
          "name": "previousOwner",
          "type": "address"
        },
        {
          "indexed": true,
          "internalType": "address",
          "name": "newOwner",
          "type": "address"
        }
      ],
      "name": "OwnershipTransferred",
      "type": "event"
    },
    {
      "anonymous": false,
      "inputs": [
        {
          "indexed": false,
          "internalType": "uint16",
          "name": "_srcChainId",
          "type": "uint16"
        },
        {
          "indexed": false,
          "internalType": "bytes",
          "name": "_srcAddress",
          "type": "bytes"
        },
        {
          "indexed": false,
          "internalType": "uint64",
          "name": "_nonce",
          "type": "uint64"
        },
        {
          "indexed": false,
          "internalType": "bytes32",
          "name": "_payloadHash",
          "type": "bytes32"
        }
      ],
      "name": "RetryMessageSuccess",
      "type": "event"
    },
    {
      "anonymous": false,
      "inputs": [
        {
          "indexed": true,
          "internalType": "bytes32",
          "name": "role",
          "type": "bytes32"
        },
        {
          "indexed": true,
          "internalType": "bytes32",
          "name": "previousAdminRole",
          "type": "bytes32"
        },
        {
          "indexed": true,
          "internalType": "bytes32",
          "name": "newAdminRole",
          "type": "bytes32"
        }
      ],
      "name": "RoleAdminChanged",
      "type": "event"
    },
    {
      "anonymous": false,
      "inputs": [
        {
          "indexed": true,
          "internalType": "bytes32",
          "name": "role",
          "type": "bytes32"
        },
        {
          "indexed": true,
          "internalType": "address",
          "name": "account",
          "type": "address"
        },
        {
          "indexed": true,
          "internalType": "address",
          "name": "sender",
          "type": "address"
        }
      ],
      "name": "RoleGranted",
      "type": "event"
    },
    {
      "anonymous": false,
      "inputs": [
        {
          "indexed": true,
          "internalType": "bytes32",
          "name": "role",
          "type": "bytes32"
        },
        {
          "indexed": true,
          "internalType": "address",
          "name": "account",
          "type": "address"
        },
        {
          "indexed": true,
          "internalType": "address",
          "name": "sender",
          "type": "address"
        }
      ],
      "name": "RoleRevoked",
      "type": "event"
    },
    {
      "anonymous": false,
      "inputs": [
        {
          "indexed": false,
          "internalType": "uint16",
          "name": "_dstChainId",
          "type": "uint16"
        },
        {
          "indexed": false,
          "internalType": "uint16",
          "name": "_type",
          "type": "uint16"
        },
        {
          "indexed": false,
          "internalType": "uint256",
          "name": "_minDstGas",
          "type": "uint256"
        }
      ],
      "name": "SetMinDstGas",
      "type": "event"
    },
    {
      "anonymous": false,
      "inputs": [
        {
          "indexed": false,
          "internalType": "address",
          "name": "precrime",
          "type": "address"
        }
      ],
      "name": "SetPrecrime",
      "type": "event"
    },
    {
      "anonymous": false,
      "inputs": [
        {
          "indexed": false,
          "internalType": "uint16",
          "name": "_remoteChainId",
          "type": "uint16"
        },
        {
          "indexed": false,
          "internalType": "bytes",
          "name": "_path",
          "type": "bytes"
        }
      ],
      "name": "SetTrustedRemote",
      "type": "event"
    },
    {
      "anonymous": false,
      "inputs": [
        {
          "indexed": false,
          "internalType": "uint16",
          "name": "_remoteChainId",
          "type": "uint16"
        },
        {
          "indexed": false,
          "internalType": "bytes",
          "name": "_remoteAddress",
          "type": "bytes"
        }
      ],
      "name": "SetTrustedRemoteAddress",
      "type": "event"
    },
    {
      "anonymous": false,
      "inputs": [
        {
          "indexed": true,
          "internalType": "address",
          "name": "token",
          "type": "address"
        },
        {
          "indexed": false,
          "internalType": "uint256",
          "name": "amount",
          "type": "uint256"
        },
        {
          "indexed": false,
          "internalType": "address",
          "name": "sender",
          "type": "address"
        }
      ],
      "name": "SgReceived",
      "type": "event"
    },
    {
      "anonymous": false,
      "inputs": [
        {
          "indexed": false,
          "internalType": "address",
          "name": "newStrategy",
          "type": "address"
        }
      ],
      "name": "StrategyMigrated",
      "type": "event"
    },
    {
      "anonymous": false,
      "inputs": [
        {
          "indexed": false,
          "internalType": "uint256",
          "name": "profit",
          "type": "uint256"
        },
        {
          "indexed": false,
          "internalType": "uint256",
          "name": "loss",
          "type": "uint256"
        },
        {
          "indexed": false,
          "internalType": "uint256",
          "name": "debtPayment",
          "type": "uint256"
        },
        {
          "indexed": false,
          "internalType": "uint256",
          "name": "giveToStrategy",
          "type": "uint256"
        },
        {
          "indexed": false,
          "internalType": "uint256",
          "name": "requestFromStrategy",
          "type": "uint256"
        },
        {
          "indexed": false,
          "internalType": "uint256",
          "name": "creditAvailable",
          "type": "uint256"
        },
        {
          "indexed": false,
          "internalType": "uint256",
          "name": "totalAssets",
          "type": "uint256"
        }
      ],
      "name": "StrategyReported",
      "type": "event"
    },
    {
      "inputs": [],
      "name": "DEFAULT_ADMIN_ROLE",
      "outputs": [
        {
          "internalType": "bytes32",
          "name": "",
          "type": "bytes32"
        }
      ],
      "stateMutability": "view",
      "type": "function"
    },
    {
      "inputs": [],
      "name": "DEFAULT_PAYLOAD_SIZE_LIMIT",
      "outputs": [
        {
          "internalType": "uint256",
          "name": "",
          "type": "uint256"
        }
      ],
      "stateMutability": "view",
      "type": "function"
    },
    {
      "inputs": [
        {
          "internalType": "uint256",
          "name": "_debtOutstanding",
          "type": "uint256"
        }
      ],
      "name": "adjustPosition",
      "outputs": [],
      "stateMutability": "nonpayable",
      "type": "function"
    },
    {
      "inputs": [],
      "name": "balanceOfWant",
      "outputs": [
        {
          "internalType": "uint256",
          "name": "",
          "type": "uint256"
        }
      ],
      "stateMutability": "view",
      "type": "function"
    },
    {
      "inputs": [
        {
          "internalType": "uint256",
          "name": "epoch",
          "type": "uint256"
        }
      ],
      "name": "callMe",
      "outputs": [],
      "stateMutability": "nonpayable",
      "type": "function"
    },
    {
      "inputs": [],
      "name": "clearWant",
      "outputs": [],
      "stateMutability": "nonpayable",
      "type": "function"
    },
    {
      "inputs": [],
      "name": "currentChainId",
      "outputs": [
        {
          "internalType": "uint16",
          "name": "",
          "type": "uint16"
        }
      ],
      "stateMutability": "view",
      "type": "function"
    },
    {
      "inputs": [],
      "name": "emergencyExit",
      "outputs": [
        {
          "internalType": "bool",
          "name": "",
          "type": "bool"
        }
      ],
      "stateMutability": "view",
      "type": "function"
    },
    {
      "inputs": [],
      "name": "estimatedTotalAssets",
      "outputs": [
        {
          "internalType": "uint256",
          "name": "",
          "type": "uint256"
        }
      ],
      "stateMutability": "view",
      "type": "function"
    },
    {
      "inputs": [
        {
          "internalType": "uint16",
          "name": "",
          "type": "uint16"
        },
        {
          "internalType": "bytes",
          "name": "",
          "type": "bytes"
        },
        {
          "internalType": "uint64",
          "name": "",
          "type": "uint64"
        }
      ],
      "name": "failedMessages",
      "outputs": [
        {
          "internalType": "bytes32",
          "name": "",
          "type": "bytes32"
        }
      ],
      "stateMutability": "view",
      "type": "function"
    },
    {
      "inputs": [
        {
          "internalType": "uint16",
          "name": "_srcChainId",
          "type": "uint16"
        },
        {
          "internalType": "bytes",
          "name": "_srcAddress",
          "type": "bytes"
        }
      ],
      "name": "forceResumeReceive",
      "outputs": [],
      "stateMutability": "nonpayable",
      "type": "function"
    },
    {
      "inputs": [
        {
          "internalType": "uint16",
          "name": "_version",
          "type": "uint16"
        },
        {
          "internalType": "uint16",
          "name": "_chainId",
          "type": "uint16"
        },
        {
          "internalType": "address",
          "name": "",
          "type": "address"
        },
        {
          "internalType": "uint256",
          "name": "_configType",
          "type": "uint256"
        }
      ],
      "name": "getConfig",
      "outputs": [
        {
          "internalType": "bytes",
          "name": "",
          "type": "bytes"
        }
      ],
      "stateMutability": "view",
      "type": "function"
    },
    {
      "inputs": [
        {
          "internalType": "bytes32",
          "name": "_messageHash",
          "type": "bytes32"
        }
      ],
      "name": "getEthSignedMessageHash",
      "outputs": [
        {
          "internalType": "bytes32",
          "name": "",
          "type": "bytes32"
        }
      ],
      "stateMutability": "pure",
      "type": "function"
    },
    {
      "inputs": [
        {
          "internalType": "bytes32",
          "name": "role",
          "type": "bytes32"
        }
      ],
      "name": "getRoleAdmin",
      "outputs": [
        {
          "internalType": "bytes32",
          "name": "",
          "type": "bytes32"
        }
      ],
      "stateMutability": "view",
      "type": "function"
    },
    {
      "inputs": [
        {
          "internalType": "uint16",
          "name": "_remoteChainId",
          "type": "uint16"
        }
      ],
      "name": "getTrustedRemoteAddress",
      "outputs": [
        {
          "internalType": "bytes",
          "name": "",
          "type": "bytes"
        }
      ],
      "stateMutability": "view",
      "type": "function"
    },
    {
      "inputs": [
        {
          "internalType": "bytes32",
          "name": "role",
          "type": "bytes32"
        },
        {
          "internalType": "address",
          "name": "account",
          "type": "address"
        }
      ],
      "name": "grantRole",
      "outputs": [],
      "stateMutability": "nonpayable",
      "type": "function"
    },
    {
      "inputs": [
        {
          "internalType": "uint256",
          "name": "_totalDebt",
          "type": "uint256"
        },
        {
          "internalType": "uint256",
          "name": "_debtOutstanding",
          "type": "uint256"
        },
        {
          "internalType": "uint256",
          "name": "_creditAvailable",
          "type": "uint256"
        },
        {
          "internalType": "uint256",
          "name": "_debtRatio",
          "type": "uint256"
        },
        {
          "internalType": "bytes",
          "name": "_signature",
          "type": "bytes"
        }
      ],
      "name": "harvest",
      "outputs": [],
      "stateMutability": "nonpayable",
      "type": "function"
    },
    {
      "inputs": [
        {
          "internalType": "bytes32",
          "name": "role",
          "type": "bytes32"
        },
        {
          "internalType": "address",
          "name": "account",
          "type": "address"
        }
      ],
      "name": "hasRole",
      "outputs": [
        {
          "internalType": "bool",
          "name": "",
          "type": "bool"
        }
      ],
      "stateMutability": "view",
      "type": "function"
    },
    {
      "inputs": [
        {
          "internalType": "address",
          "name": "_lzEndpoint",
          "type": "address"
        },
        {
          "internalType": "address",
          "name": "_strategist",
          "type": "address"
        },
        {
          "internalType": "contract IERC20",
          "name": "_want",
          "type": "address"
        },
        {
          "internalType": "address",
          "name": "_vault",
          "type": "address"
        },
        {
          "internalType": "uint16",
          "name": "_vaultChainId",
          "type": "uint16"
        },
        {
          "internalType": "address",
          "name": "_sgBridge",
          "type": "address"
        },
        {
          "internalType": "address",
          "name": "_sgRouter",
          "type": "address"
        },
        {
          "internalType": "uint256",
          "name": "_slippage",
          "type": "uint256"
        }
      ],
      "name": "initialize",
      "outputs": [],
      "stateMutability": "nonpayable",
      "type": "function"
    },
    {
      "inputs": [],
      "name": "initializeQuoteBufferWithHopToWantValue",
      "outputs": [],
      "stateMutability": "nonpayable",
      "type": "function"
    },
    {
      "inputs": [
        {
          "internalType": "uint16",
          "name": "_srcChainId",
          "type": "uint16"
        },
        {
          "internalType": "bytes",
          "name": "_srcAddress",
          "type": "bytes"
        }
      ],
      "name": "isTrustedRemote",
      "outputs": [
        {
          "internalType": "bool",
          "name": "",
          "type": "bool"
        }
      ],
      "stateMutability": "view",
      "type": "function"
    },
    {
      "inputs": [],
      "name": "lzEndpoint",
      "outputs": [
        {
          "internalType": "contract ILayerZeroEndpointUpgradeable",
          "name": "",
          "type": "address"
        }
      ],
      "stateMutability": "view",
      "type": "function"
    },
    {
      "inputs": [
        {
          "internalType": "uint16",
          "name": "_srcChainId",
          "type": "uint16"
        },
        {
          "internalType": "bytes",
          "name": "_srcAddress",
          "type": "bytes"
        },
        {
          "internalType": "uint64",
          "name": "_nonce",
          "type": "uint64"
        },
        {
          "internalType": "bytes",
          "name": "_payload",
          "type": "bytes"
        }
      ],
      "name": "lzReceive",
      "outputs": [],
      "stateMutability": "nonpayable",
      "type": "function"
    },
    {
      "inputs": [
        {
          "internalType": "uint16",
          "name": "",
          "type": "uint16"
        },
        {
          "internalType": "uint16",
          "name": "",
          "type": "uint16"
        }
      ],
      "name": "minDstGasLookup",
      "outputs": [
        {
          "internalType": "uint256",
          "name": "",
          "type": "uint256"
        }
      ],
      "stateMutability": "view",
      "type": "function"
    },
    {
      "inputs": [],
      "name": "name",
      "outputs": [
        {
          "internalType": "string",
          "name": "",
          "type": "string"
        }
      ],
      "stateMutability": "pure",
      "type": "function"
    },
    {
      "inputs": [
        {
          "internalType": "uint16",
          "name": "_srcChainId",
          "type": "uint16"
        },
        {
          "internalType": "bytes",
          "name": "_srcAddress",
          "type": "bytes"
        },
        {
          "internalType": "uint64",
          "name": "_nonce",
          "type": "uint64"
        },
        {
          "internalType": "bytes",
          "name": "_payload",
          "type": "bytes"
        }
      ],
      "name": "nonblockingLzReceive",
      "outputs": [],
      "stateMutability": "nonpayable",
      "type": "function"
    },
    {
      "inputs": [
        {
          "internalType": "address",
          "name": "",
          "type": "address"
        },
        {
          "internalType": "address",
          "name": "",
          "type": "address"
        },
        {
          "internalType": "uint256",
          "name": "amountOut",
          "type": "uint256"
        },
        {
          "internalType": "uint256",
          "name": "",
          "type": "uint256"
        }
      ],
      "name": "notifyCallback",
      "outputs": [],
      "stateMutability": "nonpayable",
      "type": "function"
    },
    {
      "inputs": [],
      "name": "owner",
      "outputs": [
        {
          "internalType": "address",
          "name": "",
          "type": "address"
        }
      ],
      "stateMutability": "view",
      "type": "function"
    },
    {
      "inputs": [
        {
          "internalType": "uint16",
          "name": "",
          "type": "uint16"
        }
      ],
      "name": "payloadSizeLimitLookup",
      "outputs": [
        {
          "internalType": "uint256",
          "name": "",
          "type": "uint256"
        }
      ],
      "stateMutability": "view",
      "type": "function"
    },
    {
      "inputs": [],
      "name": "precrime",
      "outputs": [
        {
          "internalType": "address",
          "name": "",
          "type": "address"
        }
      ],
      "stateMutability": "view",
      "type": "function"
    },
    {
      "inputs": [],
      "name": "renounceOwnership",
      "outputs": [],
      "stateMutability": "nonpayable",
      "type": "function"
    },
    {
      "inputs": [
        {
          "internalType": "bytes32",
          "name": "role",
          "type": "bytes32"
        },
        {
          "internalType": "address",
          "name": "account",
          "type": "address"
        }
      ],
      "name": "renounceRole",
      "outputs": [],
      "stateMutability": "nonpayable",
      "type": "function"
    },
    {
      "inputs": [
        {
          "internalType": "uint16",
          "name": "_srcChainId",
          "type": "uint16"
        },
        {
          "internalType": "bytes",
          "name": "_srcAddress",
          "type": "bytes"
        },
        {
          "internalType": "uint64",
          "name": "_nonce",
          "type": "uint64"
        },
        {
          "internalType": "bytes",
          "name": "_payload",
          "type": "bytes"
        }
      ],
      "name": "retryMessage",
      "outputs": [],
      "stateMutability": "payable",
      "type": "function"
    },
    {
      "inputs": [],
      "name": "revokeFunds",
      "outputs": [],
      "stateMutability": "nonpayable",
      "type": "function"
    },
    {
      "inputs": [
        {
          "internalType": "bytes32",
          "name": "role",
          "type": "bytes32"
        },
        {
          "internalType": "address",
          "name": "account",
          "type": "address"
        }
      ],
      "name": "revokeRole",
      "outputs": [],
      "stateMutability": "nonpayable",
      "type": "function"
    },
    {
      "inputs": [
        {
          "internalType": "uint16",
          "name": "_version",
          "type": "uint16"
        },
        {
          "internalType": "uint16",
          "name": "_chainId",
          "type": "uint16"
        },
        {
          "internalType": "uint256",
          "name": "_configType",
          "type": "uint256"
        },
        {
          "internalType": "bytes",
          "name": "_config",
          "type": "bytes"
        }
      ],
      "name": "setConfig",
      "outputs": [],
      "stateMutability": "nonpayable",
      "type": "function"
    },
    {
      "inputs": [
        {
          "internalType": "bool",
          "name": "_emergencyExit",
          "type": "bool"
        }
      ],
      "name": "setEmergencyExit",
      "outputs": [],
      "stateMutability": "nonpayable",
      "type": "function"
    },
    {
      "inputs": [
        {
          "internalType": "uint16",
          "name": "_dstChainId",
          "type": "uint16"
        },
        {
          "internalType": "uint16",
          "name": "_packetType",
          "type": "uint16"
        },
        {
          "internalType": "uint256",
          "name": "_minGas",
          "type": "uint256"
        }
      ],
      "name": "setMinDstGas",
      "outputs": [],
      "stateMutability": "nonpayable",
      "type": "function"
    },
    {
      "inputs": [
        {
          "internalType": "uint16",
          "name": "_dstChainId",
          "type": "uint16"
        },
        {
          "internalType": "uint256",
          "name": "_size",
          "type": "uint256"
        }
      ],
      "name": "setPayloadSizeLimit",
      "outputs": [],
      "stateMutability": "nonpayable",
      "type": "function"
    },
    {
      "inputs": [
        {
          "internalType": "address",
          "name": "_precrime",
          "type": "address"
        }
      ],
      "name": "setPrecrime",
      "outputs": [],
      "stateMutability": "nonpayable",
      "type": "function"
    },
    {
      "inputs": [
        {
          "internalType": "uint16",
          "name": "_version",
          "type": "uint16"
        }
      ],
      "name": "setReceiveVersion",
      "outputs": [],
      "stateMutability": "nonpayable",
      "type": "function"
    },
    {
      "inputs": [
        {
          "internalType": "uint16",
          "name": "_version",
          "type": "uint16"
        }
      ],
      "name": "setSendVersion",
      "outputs": [],
      "stateMutability": "nonpayable",
      "type": "function"
    },
    {
      "inputs": [
        {
          "internalType": "uint256",
          "name": "_slippage",
          "type": "uint256"
        }
      ],
      "name": "setSlippage",
      "outputs": [],
      "stateMutability": "nonpayable",
      "type": "function"
    },
    {
      "inputs": [
        {
          "internalType": "address",
          "name": "_strategist",
          "type": "address"
        }
      ],
      "name": "setStrategist",
      "outputs": [],
      "stateMutability": "nonpayable",
      "type": "function"
    },
    {
      "inputs": [
        {
          "internalType": "address",
          "name": "_swapHelper",
          "type": "address"
        }
      ],
      "name": "setSwapHelper",
      "outputs": [],
      "stateMutability": "nonpayable",
      "type": "function"
    },
    {
      "inputs": [
        {
          "internalType": "uint16",
          "name": "_srcChainId",
          "type": "uint16"
        },
        {
          "internalType": "bytes",
          "name": "_path",
          "type": "bytes"
        }
      ],
      "name": "setTrustedRemote",
      "outputs": [],
      "stateMutability": "nonpayable",
      "type": "function"
    },
    {
      "inputs": [
        {
          "internalType": "uint16",
          "name": "_remoteChainId",
          "type": "uint16"
        },
        {
          "internalType": "bytes",
          "name": "_remoteAddress",
          "type": "bytes"
        }
      ],
      "name": "setTrustedRemoteAddress",
      "outputs": [],
      "stateMutability": "nonpayable",
      "type": "function"
    },
    {
      "inputs": [],
      "name": "sgBridge",
      "outputs": [
        {
          "internalType": "contract ISgBridge",
          "name": "",
          "type": "address"
        }
      ],
      "stateMutability": "view",
      "type": "function"
    },
    {
      "inputs": [
        {
          "internalType": "uint16",
          "name": "",
          "type": "uint16"
        },
        {
          "internalType": "bytes",
          "name": "_srcAddress",
          "type": "bytes"
        },
        {
          "internalType": "uint256",
          "name": "",
          "type": "uint256"
        },
        {
          "internalType": "address",
          "name": "_token",
          "type": "address"
        },
        {
          "internalType": "uint256",
          "name": "_amountLD",
          "type": "uint256"
        },
        {
          "internalType": "bytes",
          "name": "",
          "type": "bytes"
        }
      ],
      "name": "sgReceive",
      "outputs": [],
      "stateMutability": "nonpayable",
      "type": "function"
    },
    {
      "inputs": [],
      "name": "sgRouter",
      "outputs": [
        {
          "internalType": "contract IStargateRouter",
          "name": "",
          "type": "address"
        }
      ],
      "stateMutability": "view",
      "type": "function"
    },
    {
      "inputs": [],
      "name": "slippage",
      "outputs": [
        {
          "internalType": "uint256",
          "name": "",
          "type": "uint256"
        }
      ],
      "stateMutability": "view",
      "type": "function"
    },
    {
      "inputs": [],
      "name": "strategist",
      "outputs": [
        {
          "internalType": "address",
          "name": "",
          "type": "address"
        }
      ],
      "stateMutability": "view",
      "type": "function"
    },
    {
      "inputs": [],
      "name": "strategistSignMessageHash",
      "outputs": [
        {
          "internalType": "bytes32",
          "name": "",
          "type": "bytes32"
        }
      ],
      "stateMutability": "view",
      "type": "function"
    },
    {
      "inputs": [
        {
          "internalType": "bytes4",
          "name": "interfaceId",
          "type": "bytes4"
        }
      ],
      "name": "supportsInterface",
      "outputs": [
        {
          "internalType": "bool",
          "name": "",
          "type": "bool"
        }
      ],
      "stateMutability": "view",
      "type": "function"
    },
    {
      "inputs": [],
      "name": "swapHelper",
      "outputs": [
        {
          "internalType": "contract ISwapHelper",
          "name": "",
          "type": "address"
        }
      ],
      "stateMutability": "view",
      "type": "function"
    },
    {
      "inputs": [
        {
          "internalType": "contract IERC20",
          "name": "_token",
          "type": "address"
        }
      ],
      "name": "sweepToken",
      "outputs": [],
      "stateMutability": "nonpayable",
      "type": "function"
    },
    {
      "inputs": [
        {
          "internalType": "address",
          "name": "newOwner",
          "type": "address"
        }
      ],
      "name": "transferOwnership",
      "outputs": [],
      "stateMutability": "nonpayable",
      "type": "function"
    },
    {
      "inputs": [
        {
          "internalType": "uint16",
          "name": "",
          "type": "uint16"
        }
      ],
      "name": "trustedRemoteLookup",
      "outputs": [
        {
          "internalType": "bytes",
          "name": "",
          "type": "bytes"
        }
      ],
      "stateMutability": "view",
      "type": "function"
    },
    {
      "inputs": [],
      "name": "vault",
      "outputs": [
        {
          "internalType": "address",
          "name": "",
          "type": "address"
        }
      ],
      "stateMutability": "view",
      "type": "function"
    },
    {
      "inputs": [],
      "name": "vaultChainId",
      "outputs": [
        {
          "internalType": "uint16",
          "name": "",
          "type": "uint16"
        }
      ],
      "stateMutability": "view",
      "type": "function"
    },
    {
      "inputs": [],
      "name": "want",
      "outputs": [
        {
          "internalType": "contract IERC20",
          "name": "",
          "type": "address"
        }
      ],
      "stateMutability": "view",
      "type": "function"
    },
    {
      "inputs": [],
      "name": "wantDecimals",
      "outputs": [
        {
          "internalType": "uint8",
          "name": "",
          "type": "uint8"
        }
      ],
      "stateMutability": "view",
      "type": "function"
    },
    {
      "stateMutability": "payable",
      "type": "receive"
    }
  ],
  "bytecode": "0x608060405234801561001057600080fd5b5061632180620000216000396000f3fe6080604052600436106102c05760003560e01c80621d3567146102cc57806301ffc9a7146102ee5780630517cb761461032357806306fdde031461035057806307e0db171461038d5780630df37483146103ad5780630fc6a11c146103cd57806310ddb137146103ee5780631be195601461040e5780631f1fcd511461042e5780631fe4a6861461044e578063248a9ca31461046e5780632d6068431461049c5780632f2ff15d146104b157806336568abe146104d157806337fded91146104f15780633d3ccc2f146105165780633d8b38f6146105365780633e032a3b146105565780633f1f4fa41461056c57806342d65a8d1461059957806345ee0755146105b9578063495f881e146105d95780635641ec03146105f9578063567ad85d14610613578063593178de146106485780635b8c41e61461065d57806366ad5c8a146106ac5780636cbadbfa146106cc578063715018a6146106ee5780637533d788146107035780637f555565146107235780638cfd8f5c146107435780638da5cb5b1461077b57806391d1485414610790578063950c8a74146107b05780639606647d146107d05780639f38369a146107e5578063a217fddf14610805578063a6c3d1651461081a578063ab8236f31461083a578063abe06ef71461085a578063adf076e61461086f578063b353aaa7146108a2578063baf3292d146108c2578063c1a3d44c146108e2578063c4461834146108f7578063c7b9d5301461090d578063cbed8b9c1461092d578063d1deba1f1461094d578063d547741f14610960578063d73cd47f14610980578063df2a5b3b146109a0578063e73620c3146109c0578063eb8d72b7146109e0578063efbb5cb014610a00578063f056dffe14610a15578063f0fa55a914610a35578063f2fde38b14610a55578063f5ecbdbc14610a75578063fa54080114610a95578063fbfa77cf14610ab557600080fd5b366102c757005b600080fd5b3480156102d857600080fd5b506102ec6102e7366004614e21565b610ad5565b005b3480156102fa57600080fd5b5061030e610309366004614eb4565b610bbe565b60405190151581526020015b60405180910390f35b34801561032f57600080fd5b5060ce54610343906001600160a01b031681565b60405161031a9190614ede565b34801561035c57600080fd5b5060408051808201909152600b81526a486f70537472617465677960a81b60208201525b60405161031a9190614f42565b34801561039957600080fd5b506102ec6103a8366004614f55565b610bf5565b3480156103b957600080fd5b506102ec6103c8366004614f70565b610c62565b3480156103d957600080fd5b5061013554610343906001600160a01b031681565b3480156103fa57600080fd5b506102ec610409366004614f55565b610c81565b34801561041a57600080fd5b506102ec610429366004614faf565b610cbd565b34801561043a57600080fd5b5060ca54610343906001600160a01b031681565b34801561045a57600080fd5b5060c954610343906001600160a01b031681565b34801561047a57600080fd5b5061048e610489366004614fcc565b610d4a565b60405190815260200161031a565b3480156104a857600080fd5b506102ec610d60565b3480156104bd57600080fd5b506102ec6104cc366004614fe5565b610da1565b3480156104dd57600080fd5b506102ec6104ec366004614fe5565b610dc2565b3480156104fd57600080fd5b5060cd546103439061010090046001600160a01b031681565b34801561052257600080fd5b506102ec610531366004614fcc565b610e40565b34801561054257600080fd5b5061030e610551366004615015565b610e76565b34801561056257600080fd5b5061048e60cc5481565b34801561057857600080fd5b5061048e610587366004614f55565b60686020526000908152604090205481565b3480156105a557600080fd5b506102ec6105b4366004615015565b610f43565b3480156105c557600080fd5b506102ec6105d4366004615075565b610fb6565b3480156105e557600080fd5b506102ec6105f436600461517d565b610fd1565b34801561060557600080fd5b5060cd5461030e9060ff1681565b34801561061f57600080fd5b5060cb5461063590600160a01b900461ffff1681565b60405161ffff909116815260200161031a565b34801561065457600080fd5b5061048e611275565b34801561066957600080fd5b5061048e6106783660046151e0565b6097602090815260009384526040808520845180860184018051928152908401958401959095209452929052825290205481565b3480156106b857600080fd5b506102ec6106c7366004614e21565b6112d3565b3480156106d857600080fd5b5060cb5461063590600160b01b900461ffff1681565b3480156106fa57600080fd5b506102ec6113a7565b34801561070f57600080fd5b5061038061071e366004614f55565b6113bb565b34801561072f57600080fd5b506102ec61073e36600461523d565b611455565b34801561074f57600080fd5b5061048e61075e3660046152db565b606760209081526000928352604080842090915290825290205481565b34801561078757600080fd5b50610343611640565b34801561079c57600080fd5b5061030e6107ab366004614fe5565b61164f565b3480156107bc57600080fd5b50606954610343906001600160a01b031681565b3480156107dc57600080fd5b506102ec61167b565b3480156107f157600080fd5b50610380610800366004614f55565b61170e565b34801561081157600080fd5b5061048e600081565b34801561082657600080fd5b506102ec610835366004615015565b61181d565b34801561084657600080fd5b506102ec61085536600461530e565b6118a6565b34801561086657600080fd5b506102ec6119a4565b34801561087b57600080fd5b5060cb5461089090600160c01b900460ff1681565b60405160ff909116815260200161031a565b3480156108ae57600080fd5b50606554610343906001600160a01b031681565b3480156108ce57600080fd5b506102ec6108dd366004614faf565b6119bc565b3480156108ee57600080fd5b5061048e611a0f565b34801561090357600080fd5b5061048e61271081565b34801561091957600080fd5b506102ec610928366004614faf565b611a86565b34801561093957600080fd5b506102ec6109483660046153a8565b611ab0565b6102ec61095b366004614e21565b611b1e565b34801561096c57600080fd5b506102ec61097b366004614fe5565b611d34565b34801561098c57600080fd5b506102ec61099b366004614faf565b611d50565b3480156109ac57600080fd5b506102ec6109bb366004615416565b611d7b565b3480156109cc57600080fd5b506102ec6109db366004614fcc565b611e2d565b3480156109ec57600080fd5b506102ec6109fb366004615015565b611e4d565b348015610a0c57600080fd5b5061048e611ea7565b348015610a2157600080fd5b506102ec610a30366004615452565b611efe565b348015610a4157600080fd5b506102ec610a50366004614fcc565b611f32565b348015610a6157600080fd5b506102ec610a70366004614faf565b611f3f565b348015610a8157600080fd5b50610380610a90366004615498565b611fb5565b348015610aa157600080fd5b5061048e610ab0366004614fcc565b61204a565b348015610ac157600080fd5b5060cb54610343906001600160a01b031681565b6065546001600160a01b03163314610b405760405162461bcd60e51b815260206004820152602360248201527f4261736553747261746567793a3a496e76616c6964456e64706f696e7443616c6044820152623632b960e91b60648201526084015b60405180910390fd5b610bb68686868080601f01602080910402602001604051908101604052809392919081815260200183838082843760009201919091525050604080516020601f89018190048102820181019092528781528993509150879087908190840183828082843760009201919091525061209c92505050565b505050505050565b60006001600160e01b03198216637965db0b60e01b1480610bef57506301ffc9a760e01b6001600160e01b03198316145b92915050565b610bfd612115565b6065546040516307e0db1760e01b815261ffff831660048201526001600160a01b03909116906307e0db17906024015b600060405180830381600087803b158015610c4757600080fd5b505af1158015610c5b573d6000803e3d6000fd5b5050505050565b610c6a612115565b61ffff909116600090815260686020526040902055565b610c89612115565b6065546040516310ddb13760e01b815261ffff831660048201526001600160a01b03909116906310ddb13790602401610c2d565b610cc5612174565b610d4733826001600160a01b03166370a08231306040518263ffffffff1660e01b8152600401610cf59190614ede565b602060405180830381865afa158015610d12573d6000803e3d6000fd5b505050506040513d601f19601f82011682018060405250810190610d3691906154e5565b6001600160a01b03841691906121cd565b50565b6000908152610103602052604090206001015490565b610d68612174565b60c9546040516001600160a01b03909116904780156108fc02916000818181858888f19350505050158015610d47573d6000803e3d6000fd5b610daa82610d4a565b610db381612223565b610dbd838361222d565b505050565b6001600160a01b0381163314610e325760405162461bcd60e51b815260206004820152602f60248201527f416363657373436f6e74726f6c3a2063616e206f6e6c792072656e6f756e636560448201526e103937b632b9903337b91039b2b63360891b6064820152608401610b37565b610e3c82826122b4565b5050565b610e48612174565b610e518161231c565b6040518181526000805160206162cc833981519152906020015b60405180910390a150565b61ffff831660009081526066602052604081208054829190610e97906154fe565b80601f0160208091040260200160405190810160405280929190818152602001828054610ec3906154fe565b8015610f105780601f10610ee557610100808354040283529160200191610f10565b820191906000526020600020905b815481529060010190602001808311610ef357829003601f168201915b505050505090508383604051610f27929190615538565b60405180910390208180519060200120149150505b9392505050565b610f4b612115565b6065546040516342d65a8d60e01b81526001600160a01b03909116906342d65a8d90610f7f90869086908690600401615571565b600060405180830381600087803b158015610f9957600080fd5b505af1158015610fad573d6000803e3d6000fd5b50505050505050565b610fbe612174565b60cd805460ff1916911515919091179055565b610fd9612174565b610fe2816125b2565b60cd546000908190819060ff161561108e5784156110425760405162461bcd60e51b815260206004820152601e60248201527f4261736553747261746567793a3a44656274526174696f4e6f745a65726f00006044820152606401610b37565b600061104c612638565b9050878110156110675761106081896155a5565b925061107c565b8781111561107c5761107988826155a5565b93505b61108683896155a5565b9150506110a0565b61109888886127a1565b919450925090505b60006110ac82856155b8565b9050600080888310156110ce576110c3838a6155a5565b9150600090506110df565b600091506110dc89846155a5565b90505b6000604051806101600160405280306001600160a01b031681526020014281526020018881526020018781526020018681526020018481526020018381526020018b81526020018361112f611ea7565b61113991906155a5565b815260200160d06000815480929190611151906155cb565b909155508152602001899052905081156111b15760cb546040516111ac91849161ffff600160a01b830416916001600160a01b03169061119890600290879060200161561c565b604051602081830303815290604052612898565b6111dc565b6111dc6002826040516020016111c892919061561c565b604051602081830303815290604052612972565b7fb983e09c034e9c52b5e547cb0589967992b97717733f580cc5ad0afcdc4b522b8160400151826060015183608001518460a001518560c001518660e0015187610100015160405161125f9796959493929190968752602087019590955260408601939093526060850191909152608084015260a083015260c082015260e00190565b60405180910390a1505050505050505050505050565b60d05460cb546040513060601b6001600160601b03191660208201526034810192909252600160b01b900460f01b6001600160f01b031916605482015260009060560160405160208183030381529060405280519060200120905090565b3330146113315760405162461bcd60e51b815260206004820152602660248201527f4e6f6e626c6f636b696e674c7a4170703a2063616c6c6572206d7573742062656044820152650204c7a4170760d41b6064820152608401610b37565b610bb68686868080601f01602080910402602001604051908101604052809392919081815260200183838082843760009201919091525050604080516020601f890181900481028201810190925287815289935091508790879081908401838280828437600092019190915250612af292505050565b6113af612115565b6113b96000612c08565b565b606660205260009081526040902080546113d4906154fe565b80601f0160208091040260200160405190810160405280929190818152602001828054611400906154fe565b801561144d5780601f106114225761010080835404028352916020019161144d565b820191906000526020600020905b81548152906001019060200180831161143057829003601f168201915b505050505081565b600054610100900460ff16158080156114755750600054600160ff909116105b80611496575061148430612c5a565b158015611496575060005460ff166001145b6114f95760405162461bcd60e51b815260206004820152602e60248201527f496e697469616c697a61626c653a20636f6e747261637420697320616c72656160448201526d191e481a5b9a5d1a585b1a5e995960921b6064820152608401610b37565b6000805460ff19166001179055801561151c576000805461ff0019166101001790555b611524612c69565b6115358989898989468a8a8a612c90565b61156473b67c014fa700e69681a673876eb8bafaa36bff7160008051602061628c833981519152600019612e63565b61159373b67c014fa700e69681a673876eb8bafaa36bff716000805160206162ac833981519152600019612e63565b6115c873c5102fe9359fd9a28f877a67e36b0f050d81a3cc73e592427a0aece92de3edee1f18e0157c05861564600019612e63565b60ca546115ef906001600160a01b03166000805160206162ac833981519152600019612e63565b8015611635576000805461ff0019169055604051600181527f7f26b83ff96e1f2b6a682f133852f6798a09c465da95921460cefb38474024989060200160405180910390a15b505050505050505050565b6033546001600160a01b031690565b6000918252610103602090815260408084206001600160a01b0393909316845291905290205460ff1690565b611683612174565b60ca546040516370a0823160e01b81526113b9916001916001600160a01b03909116906370a08231906116ba903090600401614ede565b602060405180830381865afa1580156116d7573d6000803e3d6000fd5b505050506040513d601f19601f820116820180604052508101906116fb91906154e5565b60ca546001600160a01b031691906121cd565b61ffff8116600090815260666020526040812080546060929190611731906154fe565b80601f016020809104026020016040519081016040528092919081815260200182805461175d906154fe565b80156117aa5780601f1061177f576101008083540402835291602001916117aa565b820191906000526020600020905b81548152906001019060200180831161178d57829003601f168201915b5050505050905080516000036118025760405162461bcd60e51b815260206004820152601d60248201527f4c7a4170703a206e6f20747275737465642070617468207265636f72640000006044820152606401610b37565b610f3c60006014835161181591906155a5565b839190612f67565b611825612115565b81813060405160200161183a939291906156d8565b60408051601f1981840301815291815261ffff85166000908152606660205220906118659082615754565b507f8c0400cfe2d1199b1a725c78960bcc2a344d869b80590d0f2bd005db15a572ce83838360405161189993929190615571565b60405180910390a1505050565b60ce546001600160a01b03163314806118ce575060cd5461010090046001600160a01b031633145b6119195760405162461bcd60e51b815260206004820152601c60248201527b53674272696467653a3a526f757465724f724272696467654f6e6c7960201b6044820152606401610b37565b600061192786826014612f67565b604051602001611937919061580d565b60405160208183030381529060405261194f90615829565b6040805185815260609290921c6020830181905292506001600160a01b038616917f92073a89a07a000083eb8b2575fc15e7bb936efe55d00727d6942a796d7211a7910160405180910390a250505050505050565b6119ac613074565b610d476119b76130e3565b613115565b6119c4612115565b606980546001600160a01b0319166001600160a01b0383161790556040517f5db758e995a17ec1ad84bdef7e8c3293a0bd6179bcce400dff5d4c3d87db726b90610e6b908390614ede565b60ca546040516370a0823160e01b81526000916001600160a01b0316906370a0823190611a40903090600401614ede565b602060405180830381865afa158015611a5d573d6000803e3d6000fd5b505050506040513d601f19601f82011682018060405250810190611a8191906154e5565b905090565b611a8e612115565b60c980546001600160a01b0319166001600160a01b0392909216919091179055565b611ab8612115565b6065546040516332fb62e760e21b81526001600160a01b039091169063cbed8b9c90611af09088908890889088908890600401615860565b600060405180830381600087803b158015611b0a57600080fd5b505af1158015611635573d6000803e3d6000fd5b61ffff86166000908152609760205260408082209051611b419088908890615538565b90815260408051602092819003830190206001600160401b03871660009081529252902054905080611bc15760405162461bcd60e51b815260206004820152602360248201527f4e6f6e626c6f636b696e674c7a4170703a206e6f2073746f726564206d65737360448201526261676560e81b6064820152608401610b37565b808383604051611bd2929190615538565b604051809103902014611c315760405162461bcd60e51b815260206004820152602160248201527f4e6f6e626c6f636b696e674c7a4170703a20696e76616c6964207061796c6f616044820152601960fa1b6064820152608401610b37565b61ffff87166000908152609760205260408082209051611c549089908990615538565b90815260408051602092819003830181206001600160401b038916600090815290845282902093909355601f88018290048202830182019052868252611cec918991899089908190840183828082843760009201919091525050604080516020601f8a018190048102820181019092528881528a935091508890889081908401838280828437600092019190915250612af292505050565b7fc264d91f3adc5588250e1551f547752ca0cfa8f6b530d243b9f9f4cab10ea8e58787878785604051611d2395949392919061588e565b60405180910390a150505050505050565b611d3d82610d4a565b611d4681612223565b610dbd83836122b4565b611d58613074565b61013580546001600160a01b0319166001600160a01b0392909216919091179055565b611d83612115565b60008111611dcb5760405162461bcd60e51b81526020600482015260156024820152744c7a4170703a20696e76616c6964206d696e47617360581b6044820152606401610b37565b61ffff83811660008181526067602090815260408083209487168084529482529182902085905581519283528201929092529081018290527f9d5c7c0b934da8fefa9c7760c98383778a12dfbfc0c3b3106518f43fb9508ac090606001611899565b611e35612115565b600090815260cf60205260409020805460ff19169055565b611e55612115565b61ffff83166000908152606660205260409020611e738284836158c9565b507ffa41487ad5d6728f0b19276fa1eddc16558578f5109fc39d2dc33c3230470dab83838360405161189993929190615571565b6101375460009060ff16611ece57604051630570e54b60e51b815260040160405180910390fd5b61013654611eda611a0f565b611eea611ee56131a1565b6131d5565b611ef491906155b8565b611a8191906155b8565b7f6d1efadb607420c71e8f966ae6611a2b817ec83a98f82ae24284fd004cf9d40c611f2881612223565b5050610136555050565b611f3a612174565b60cc55565b611f47612115565b6001600160a01b038116611fac5760405162461bcd60e51b815260206004820152602660248201527f4f776e61626c653a206e6577206f776e657220697320746865207a65726f206160448201526564647265737360d01b6064820152608401610b37565b610d4781612c08565b606554604051633d7b2f6f60e21b815261ffff808716600483015285166024820152306044820152606481018390526060916001600160a01b03169063f5ecbdbc90608401600060405180830381865afa158015612017573d6000803e3d6000fd5b505050506040513d6000823e601f3d908101601f1916820160405261203f9190810190615982565b90505b949350505050565b6040517b0ca2ba3432b932bab69029b4b3b732b21026b2b9b9b0b3b29d05199960211b6020820152603c8101829052600090605c01604051602081830303815290604052805190602001209050919050565b6000806120ff5a60966366ad5c8a60e01b898989896040516024016120c494939291906159ef565b60408051601f198184030181529190526020810180516001600160e01b03166001600160e01b03199093169290921790915230929190613262565b9150915081610bb657610bb686868686856132ee565b3361211e611640565b6001600160a01b0316146113b95760405162461bcd60e51b815260206004820181905260248201527f4f776e61626c653a2063616c6c6572206973206e6f7420746865206f776e65726044820152606401610b37565b60c9546001600160a01b031633146113b95760405162461bcd60e51b815260206004820152601c60248201527b10985cd954dd1c985d1959de4e8e93db9b1e54dd1c985d1959da5cdd60221b6044820152606401610b37565b610dbd8363a9059cbb60e01b84846040516024016121ec929190615a2d565b60408051601f198184030181529190526020810180516001600160e01b03166001600160e01b03199093169290921790915261338b565b610d478133613460565b612237828261164f565b610e3c576000828152610103602090815260408083206001600160a01b03851684529091529020805460ff191660011790556122703390565b6001600160a01b0316816001600160a01b0316837f2f8788117e7eff1d82e926ec794901d17c78024a50270940304540a733656f0d60405160405180910390a45050565b6122be828261164f565b15610e3c576000828152610103602090815260408083206001600160a01b0385168085529252808320805460ff1916905551339285917ff6391f5c32d9c69d2a47ea670b442974b53935d1edc7fd64eb21e047a839171b9190a45050565b60cd5460ff161561232a5750565b6123326134b9565b600061233c611a0f565b90506000828211156123555761235283836155a5565b90505b8015610dbd57604080516002808252606082018352600092602083019080368337019050509050818160008151811061239057612390615a46565b6020026020010181815250506000816001815181106123b1576123b1615a46565b602090810291909101015260cc5460405163f9273ffb60e01b8152600091612710916000805160206162ac8339815191529063f9273ffb906123fc9030908890600190600401615a97565b602060405180830381865afa158015612419573d6000803e3d6000fd5b505050506040513d601f19601f8201168201806040525081019061243d91906154e5565b6124479190615acd565b6124519190615afa565b604051634d49e87d60e01b81529091506000805160206162ac83398151915290634d49e87d9061248990859085904290600401615b0e565b6020604051808303816000875af11580156124a8573d6000803e3d6000fd5b505050506040513d601f19601f820116820180604052508101906124cc91906154e5565b506040516370a0823160e01b815260009073b67c014fa700e69681a673876eb8bafaa36bff71906370a0823190612507903090600401614ede565b602060405180830381865afa158015612524573d6000803e3d6000fd5b505050506040513d601f19601f8201168201806040525081019061254891906154e5565b60405163534a7e1d60e11b81526004810182905290915060008051602061628c8339815191529063a694fc3a90602401600060405180830381600087803b15801561259257600080fd5b505af11580156125a6573d6000803e3d6000fd5b50505050505050505050565b60006125bc611275565b905060006125c98261204a565b60c9549091506001600160a01b03166125e2828561359b565b6001600160a01b031614610dbd5760405162461bcd60e51b815260206004820152601e60248201527f4261736553747261746567793a3a496e76616c69645369676e617475726500006044820152606401610b37565b60006126426134b9565b600061264c611a0f565b604051632e1a7d4d60e01b81526004810182905290915060008051602061628c83398151915290632e1a7d4d90602401600060405180830381600087803b15801561269657600080fd5b505af11580156126aa573d6000803e3d6000fd5b50506040516301f1d0ab60e51b81526000805160206162ac8339815191529250633e3a156091506126e690849060009081904290600401615b33565b6020604051808303816000875af1158015612705573d6000803e3d6000fd5b505050506040513d601f19601f8201168201806040525081019061272991906154e5565b5060ca546040516370a0823160e01b81526001600160a01b03909116906370a082319061275a903090600401614ede565b602060405180830381865afa158015612777573d6000803e3d6000fd5b505050506040513d601f19601f8201168201806040525081019061279b91906154e5565b91505090565b6000806000806127af611ea7565b90508581106127cd576127c286826155a5565b9350600092506127de565b600093506127db81876155a5565b92505b6127f06127eb85876155b8565b6135bf565b505060ca546040516370a0823160e01b81526000916001600160a01b0316906370a0823190612823903090600401614ede565b602060405180830381865afa158015612840573d6000803e3d6000fd5b505050506040513d601f19601f8201168201806040525081019061286491906154e5565b9050848111612879578094506000925061288f565b61288c61288686836155a5565b876136f4565b92505b50509250925092565b60cd54604051630dc6346160e01b815260009161010090046001600160a01b031690630dc63461906128d290879087908790600401615b51565b602060405180830381865afa1580156128ef573d6000803e3d6000fd5b505050506040513d601f19601f8201168201806040525081019061291391906154e5565b60cd5460ca54604051633920455b60e11b81529293506001600160a01b036101009092048216926372408ab6928592612959929116908a908a908a908a90600401615b7f565b6000604051808303818588803b15801561259257600080fd5b60cb5460408051606083811b6001600160601b03199081166020840152309182901b16603483015282516028818403018152604890920190925260655490926000926001600160a01b03909216916340a7bb109161ffff600160a01b909104169086856129dd61370a565b6040518663ffffffff1660e01b81526004016129fd959493929190615bbc565b6040805180830381865afa158015612a19573d6000803e3d6000fd5b505050506040513d601f19601f82011682018060405250810190612a3d9190615c10565b50905080471015612a695760405162fae2d560e21b815260048101829052476024820152604401610b37565b60655460cb546001600160a01b039091169063c5803100908390600160a01b900461ffff1685873080612a9a61370a565b6040518863ffffffff1660e01b8152600401612abb96959493929190615c34565b6000604051808303818588803b158015612ad457600080fd5b505af1158015612ae8573d6000803e3d6000fd5b5050505050505050565b60cb5461ffff858116600160a01b9092041614612b5c5760405162461bcd60e51b815260206004820152602260248201527f4261736553747261746567793a3a5661756c74436861696e49644d69736d61746044820152610c6d60f31b6064820152608401610b37565b6000612b6a84826014612f67565b604051602001612b7a919061580d565b604051602081830303815290604052612b9290615829565b60cb5460609190911c91506001600160a01b03168114612bff5760405162461bcd60e51b815260206004820152602260248201527f4261736553747261746567793a3a5661756c74416464726573734d69736d61746044820152610c6d60f31b6064820152608401610b37565b610c5b8261373a565b603380546001600160a01b038381166001600160a01b0319831681179093556040519116919082907f8be0079c531659141344cd1fd0a4f28419497f9722a3daafe3b4186f6b6457e090600090a35050565b6001600160a01b03163b151590565b600054610100900460ff166113b95760405162461bcd60e51b8152600401610b3790615c9b565b600054610100900460ff16612cb75760405162461bcd60e51b8152600401610b3790615c9b565b612cc08961385b565b60c980546001600160a01b03808b166001600160a01b03199283161790925560ca80548a8416908316811790915560cb8054938a1661ffff8a16600160a01b029093166001600160b01b0319909416939093179190911790915560cc8290556040805163313ce56760e01b8152905163313ce567916004808201926020929091908290030181865afa158015612d5a573d6000803e3d6000fd5b505050506040513d601f19601f82011682018060405250810190612d7e9190615ce6565b60cb8054600060d05562ffffff60b01b1916600160c01b60ff939093169290920261ffff60b01b191691909117600160b01b61ffff87160217905560cd8054610100600160a81b0319166101006001600160a01b03868116919091029190911790915560ce80546001600160a01b03191684831617905560ca5460405163095ea7b360e01b815291169063095ea7b390612e2090869060001990600401615a2d565b6020604051808303816000875af1158015612e3f573d6000803e3d6000fd5b505050506040513d601f19601f820116820180604052508101906125a69190615d09565b801580612edd5750604051636eb1769f60e11b81523060048201526001600160a01b03838116602483015284169063dd62ed3e90604401602060405180830381865afa158015612eb7573d6000803e3d6000fd5b505050506040513d601f19601f82011682018060405250810190612edb91906154e5565b155b612f485760405162461bcd60e51b815260206004820152603660248201527f5361666545524332303a20617070726f76652066726f6d206e6f6e2d7a65726f60448201527520746f206e6f6e2d7a65726f20616c6c6f77616e636560501b6064820152608401610b37565b610dbd8363095ea7b360e01b84846040516024016121ec929190615a2d565b606081612f7581601f6155b8565b1015612fb45760405162461bcd60e51b815260206004820152600e60248201526d736c6963655f6f766572666c6f7760901b6044820152606401610b37565b612fbe82846155b8565b845110156130025760405162461bcd60e51b8152602060048201526011602482015270736c6963655f6f75744f66426f756e647360781b6044820152606401610b37565b606082158015613021576040519150600082526020820160405261306b565b6040519150601f8416801560200281840101858101878315602002848b0101015b8183101561305a578051835260209283019201613042565b5050858452601f01601f1916604052505b50949350505050565b60c9546001600160a01b031633148061308c57503330145b6113b95760405162461bcd60e51b815260206004820152602260248201527f4261736553747261746567793a3a4f6e6c79537472617465676973744f725365604482015261363360f11b6064820152608401610b37565b6040516246613160e11b815260009060008051602061628c83398151915290628cc26290611a40903090600401614ede565b60ca5460009061318d9073c31e54c7a869b9fcbecc14363cf510d1c41fa443907382af49447d8a07e3bd95bd0d56f35241523fbab1906001600160a01b03166131887344ca2be2bd6a7203ccdbb63eed8382274f737a1573c5102fe9359fd9a28f877a67e36b0f050d81a3cc8489613893565b613893565b610137805460ff1916600117905592915050565b6040516370a0823160e01b815260009060008051602061628c833981519152906370a0823190611a40903090600401614ede565b6000816000036131e757506000919050565b604051630262267d60e61b815230600482015260248101839052600060448201526000805160206162ac833981519152906398899f4090606401602060405180830381865afa15801561323e573d6000803e3d6000fd5b505050506040513d601f19601f82011682018060405250810190610bef91906154e5565b6000606060008060008661ffff166001600160401b0381111561328757613287615092565b6040519080825280601f01601f1916602001820160405280156132b1576020820181803683370190505b50905060008087516020890160008d8df191503d9250868311156132d3578692505b828152826000602083013e9093509150505b94509492505050565b8180519060200120609760008761ffff1661ffff1681526020019081526020016000208560405161331f919061580d565b9081526040805191829003602090810183206001600160401b0388166000908152915220919091557fe183f33de2837795525b4792ca4cd60535bd77c53b7e7030060bfcf5734d6b0c9061337c9087908790879087908790615d26565b60405180910390a15050505050565b60006133e0826040518060400160405280602081526020017f5361666545524332303a206c6f772d6c6576656c2063616c6c206661696c6564815250856001600160a01b03166139e69092919063ffffffff16565b90508051600014806134015750808060200190518101906134019190615d09565b610dbd5760405162461bcd60e51b815260206004820152602a60248201527f5361666545524332303a204552433230206f7065726174696f6e20646964206e6044820152691bdd081cdd58d8d9595960b21b6064820152608401610b37565b61346a828261164f565b610e3c57613477816139f5565b613482836020613a07565b604051602001613493929190615d78565b60408051601f198184030181529082905262461bcd60e51b8252610b3791600401614f42565b60008051602061628c8339815191526001600160a01b0316633d18b9126040518163ffffffff1660e01b8152600401600060405180830381600087803b15801561350257600080fd5b505af1158015613516573d6000803e3d6000fd5b50506040516370a0823160e01b81526113b9925073c5102fe9359fd9a28f877a67e36b0f050d81a3cc91506370a0823190613555903090600401614ede565b602060405180830381865afa158015613572573d6000803e3d6000fd5b505050506040513d601f19601f8201168201806040525081019061359691906154e5565b613ba2565b60008060006135aa8585613d3c565b915091506135b781613d81565b509392505050565b60ca546040516370a0823160e01b8152600091829182916001600160a01b0316906370a08231906135f4903090600401614ede565b602060405180830381865afa158015613611573d6000803e3d6000fd5b505050506040513d601f19601f8201168201806040525081019061363591906154e5565b905083811061364957509192600092509050565b61365b61365682866155a5565b613ec6565b60ca546040516370a0823160e01b81526001600160a01b03909116906370a082319061368b903090600401614ede565b602060405180830381865afa1580156136a8573d6000803e3d6000fd5b505050506040513d601f19601f820116820180604052508101906136cc91906154e5565b9050808411156136ea579150816136e381856155a5565b91506136ee565b8392505b50915091565b60008183106137035781610f3c565b5090919050565b60408051600160f01b6020820152620f424060228083019190915282518083039091018152604290910190915290565b6000818060200190518101906137509190615de7565b90506003816004811115613766576137666155e4565b036137b1576000828060200190518101906137819190615e08565b915050613791816000015161231c565b80516040519081526000805160206162cc83398151915290602001611899565b60008160048111156137c5576137c56155e4565b036137ec576000828060200190518101906137e09190615e4b565b915050610dbd81613f1c565b6004816004811115613800576138006155e4565b03610e3c5760008280602001905181019061381b9190615eb6565b91505061382b8160000151614046565b80516040517f7c9a2d2ec51230d7dbed27f113a325b7e20aef7b049e68b2339257b5edff5bea9161189991614ede565b600054610100900460ff166138825760405162461bcd60e51b8152600401610b3790615c9b565b61388a614085565b610d47816140b5565b610137805460ff1916905561013554604051634d1dde7b60e01b81526001600160a01b0385811660048301528481166024830152604482018490526000921690634d1dde7b90606401600060405180830381600087803b1580156138f657600080fd5b505af1925050508015613907575060015b613997573d808015613935576040519150601f19603f3d011682016040523d82523d6000602084013e61393a565b606091505b506000613949878787876140fe565b61013681905560405190915061396090839061580d565b604051908190038120907fecb1a7afa2f497adc862475be5cf604b2d21632f94b1403b3308ac00095bdf7190600090a250506139d9565b81836001600160a01b0316856001600160a01b03167fe47a58d87426c749b0bf81083c60c31e2ec1cfae38d60931162d521cc985007060405160405180910390a45b5061013654949350505050565b60606120428484600085614126565b6060610bef6001600160a01b03831660145b60606000613a16836002615acd565b613a219060026155b8565b6001600160401b03811115613a3857613a38615092565b6040519080825280601f01601f191660200182016040528015613a62576020820181803683370190505b509050600360fc1b81600081518110613a7d57613a7d615a46565b60200101906001600160f81b031916908160001a905350600f60fb1b81600181518110613aac57613aac615a46565b60200101906001600160f81b031916908160001a9053506000613ad0846002615acd565b613adb9060016155b8565b90505b6001811115613b53576f181899199a1a9b1b9c1cb0b131b232b360811b85600f1660108110613b0f57613b0f615a46565b1a60f81b828281518110613b2557613b25615a46565b60200101906001600160f81b031916908160001a90535060049490941c93613b4c81615f04565b9050613ade565b508315610f3c5760405162461bcd60e51b815260206004820181905260248201527f537472696e67733a20686578206c656e67746820696e73756666696369656e746044820152606401610b37565b80600003613bad5750565b600061271060cc546064613bc19190615acd565b613bcb9190615afa565b610135546040516310cabd1d60e01b815273c5102fe9359fd9a28f877a67e36b0f050d81a3cc600482015273ff970a61a04b1ca14834a43f5de4533ebddb5cc860248201526044810185905260ff831660648201529192506001600160a01b0316906310cabd1d90608401600060405180830381600087803b158015613c5057600080fd5b505af1925050508015613c61575060015b613ce1573d808015613c8f576040519150601f19603f3d011682016040523d82523d6000602084013e613c94565b606091505b50613c9e83614201565b80604051613cac919061580d565b604051908190038120907f0a2fcb3b84a0d878df7caaa7b727d5a91ae9d8c8a7c8bdef43d4af853ce904f790600090a2505050565b604051829073ff970a61a04b1ca14834a43f5de4533ebddb5cc89073c5102fe9359fd9a28f877a67e36b0f050d81a3cc907fea368a40e9570069bb8e6511d668293ad2e1f03b0d982431fd223de9f3b70ca690600090a45050565b6000808251604103613d725760208301516040840151606085015160001a613d668782858561437f565b94509450505050613d7a565b506000905060025b9250929050565b6000816004811115613d9557613d956155e4565b03613d9d5750565b6001816004811115613db157613db16155e4565b03613df95760405162461bcd60e51b815260206004820152601860248201527745434453413a20696e76616c6964207369676e617475726560401b6044820152606401610b37565b6002816004811115613e0d57613e0d6155e4565b03613e5a5760405162461bcd60e51b815260206004820152601f60248201527f45434453413a20696e76616c6964207369676e6174757265206c656e677468006044820152606401610b37565b6003816004811115613e6e57613e6e6155e4565b03610d475760405162461bcd60e51b815260206004820152602260248201527f45434453413a20696e76616c6964207369676e6174757265202773272076616c604482015261756560f01b6064820152608401610b37565b80600003613ed15750565b80613edd6119b76130e3565b10613eea57610d476134b9565b6000613f11613ef76131a1565b613f026119b76130e3565b613f0c90856155a5565b6136f4565b9050610e3c81614429565b602080820151600090815260cf909152604090205460ff1615613f815760405162461bcd60e51b815260206004820152601e60248201527f4261736553747261746567793a3a416c726561647957697468647261776e00006044820152606401610b37565b600080613f9183600001516135bf565b91509150600060016040518060800160405280306001600160a01b031681526020018581526020018481526020018660200151815250604051602001613fd8929190615f1b565b60408051601f19818403018152919052905082156140195760cb5461401490849061ffff600160a01b820416906001600160a01b031684612898565b614022565b61402281612972565b505050602090810151600090815260cf90915260409020805460ff19166001179055565b61404f816145de565b60ca546040516370a0823160e01b8152610d479183916001600160a01b03909116906370a08231906116ba903090600401614ede565b600054610100900460ff166140ac5760405162461bcd60e51b8152600401610b3790615c9b565b6113b933612c08565b600054610100900460ff166140dc5760405162461bcd60e51b8152600401610b3790615c9b565b606580546001600160a01b0319166001600160a01b0392909216919091179055565b60008061410d86610708614602565b50905061411c8184878761484b565b9695505050505050565b6060824710156141875760405162461bcd60e51b815260206004820152602660248201527f416464726573733a20696e73756666696369656e742062616c616e636520666f6044820152651c8818d85b1b60d21b6064820152608401610b37565b600080866001600160a01b031685876040516141a3919061580d565b60006040518083038185875af1925050503d80600081146141e0576040519150601f19603f3d011682016040523d82523d6000602084013e6141e5565b606091505b50915091506141f687838387614947565b979650505050505050565b61423c6040518060a001604052806060815260200160006001600160a01b031681526020016000815260200160008152602001600081525090565b604080517331440bfa4d67f668a3e1de99f8dac3c1436068f360621b602082015261017760eb1b60348201527382af49447d8a07e3bd95bd0d56f35241523fbab160601b6037820152607d60ea1b604b8201526001720d1eb3cbf69c6bd6f96b78144375982844946760631b0319604e82015281516042818303018152606290910190915260006142cc84613115565b8284523060208501524260408501526060840185905260cc54909150612710906142f69083615acd565b6143009190615afa565b608084015260405163c04b8d5960e01b815273e592427a0aece92de3edee1f18e0157c058615649063c04b8d599061433c908690600401615f5d565b6020604051808303816000875af115801561435b573d6000803e3d6000fd5b505050506040513d601f19601f82011682018060405250810190610c5b91906154e5565b6000806fa2a8918ca85bafe22016d0b997e4df60600160ff1b038311156143ac57506000905060036132e5565b6000600187878787604051600081526020016040526040516143d19493929190615b33565b6020604051602081039080840390855afa1580156143f3573d6000803e3d6000fd5b5050604051601f1901519150506001600160a01b03811661441c576000600192509250506132e5565b9660009650945050505050565b6144316134b9565b604080516002808252606082018352600092602083019080368337019050509050818160008151811061446657614466615a46565b60200260200101818152505060008160018151811061448757614487615a46565b602090810291909101015260405163f9273ffb60e01b81526000906000805160206162ac8339815191529063f9273ffb906144ca90309086908690600401615a97565b602060405180830381865afa1580156144e7573d6000803e3d6000fd5b505050506040513d601f19601f8201168201806040525081019061450b91906154e5565b9050614515611a0f565b81111561452757614524611a0f565b90505b604051632e1a7d4d60e01b81526004810182905260008051602061628c83398151915290632e1a7d4d90602401600060405180830381600087803b15801561456e57600080fd5b505af1158015614582573d6000803e3d6000fd5b50505050600061271060cc54856145999190615acd565b6145a39190615afa565b6040516301f1d0ab60e51b81529091506000805160206162ac83398151915290633e3a15609061433c90859060009086904290600401615b33565b60006145e8612638565b60ca54909150610e3c906001600160a01b031683836121cd565b6000808263ffffffff166000036146405760405162461bcd60e51b8152602060048201526002602482015261042560f41b6044820152606401610b37565b604080516002808252606082018352600092602083019080368337019050509050838160008151811061467557614675615a46565b602002602001019063ffffffff16908163ffffffff16815250506000816001815181106146a4576146a4615a46565b602002602001019063ffffffff16908163ffffffff1681525050600080866001600160a01b031663883bdbfd846040518263ffffffff1660e01b81526004016146ed9190615fb5565b600060405180830381865afa15801561470a573d6000803e3d6000fd5b505050506040513d6000823e601f3d908101601f191682016040526147329190810190616091565b9150915060008260008151811061474b5761474b615a46565b60200260200101518360018151811061476657614766615a46565b6020026020010151614778919061615c565b905060008260008151811061478f5761478f615a46565b6020026020010151836001815181106147aa576147aa615a46565b60200260200101516147bc9190616189565b90506147ce63ffffffff8916836161b0565b965060008260060b1280156147f457506147ee63ffffffff8916836161ee565b60060b15155b15614807578661480381616210565b9750505b60006148206001600160a01b0363ffffffff8b16616233565b905061483c600160201b600160c01b03602084901b1682616265565b96505050505050509250929050565b600080614857866149be565b90506001600160801b036001600160a01b038216116148dd5760006148856001600160a01b03831680615acd565b9050836001600160a01b0316856001600160a01b0316106148bd576148b8600160c01b876001600160801b031683614cd6565b6148d5565b6148d581876001600160801b0316600160c01b614cd6565b92505061306b565b60006148f76001600160a01b03831680600160401b614cd6565b9050836001600160a01b0316856001600160a01b03161061492f5761492a600160801b876001600160801b031683614cd6565b6141f6565b6141f681876001600160801b0316600160801b614cd6565b606083156149b45782516000036149ad5761496185612c5a565b6149ad5760405162461bcd60e51b815260206004820152601d60248201527f416464726573733a2063616c6c20746f206e6f6e2d636f6e74726163740000006044820152606401610b37565b5081612042565b6120428383614d88565b60008060008360020b126149d5578260020b6149dd565b8260020b6000035b9050620d89e8811115614a03576040516315e4079d60e11b815260040160405180910390fd5b600081600116600003614a1a57600160801b614a2c565b6ffffcb933bd6fad37aa2d162d1a5940015b6001600160881b031690506002821615614a56576ffff97272373d413259a46990580e213a0260801c5b6004821615614a75576ffff2e50f5f656932ef12357cf3c7fdcc0260801c5b6008821615614a94576fffe5caca7e10e4e61c3624eaa0941cd00260801c5b6010821615614ab3576fffcb9843d60f6159c9db58835c9266440260801c5b6020821615614ad2576fff973b41fa98c081472e6896dfb254c00260801c5b6040821615614af1576fff2ea16466c96a3843ec78b326b528610260801c5b6080821615614b10576ffe5dee046a99a2a811c461f1969c30530260801c5b610100821615614b30576ffcbe86c7900a88aedcffc83b479aa3a40260801c5b610200821615614b50576ff987a7253ac413176f2b074cf7815e540260801c5b610400821615614b70576ff3392b0822b70005940c7a398e4b70f30260801c5b610800821615614b90576fe7159475a2c29b7443b29c7fa6e889d90260801c5b611000821615614bb0576fd097f3bdfd2022b8845ad8f792aa58250260801c5b612000821615614bd0576fa9f746462d870fdf8a65dc1f90e061e50260801c5b614000821615614bf0576f70d869a156d2a1b890bb3df62baf32f70260801c5b618000821615614c10576f31be135f97d08fd981231505542fcfa60260801c5b62010000821615614c31576f09aa508b5b7a84e1c677de54f3e99bc90260801c5b62020000821615614c51576e5d6af8dedb81196699c329225ee6040260801c5b62040000821615614c70576d2216e584f5fa1ea926041bedfe980260801c5b62080000821615614c8d576b048a170391f7dc42444e8fa20260801c5b60008460020b1315614cae578060001981614caa57614caa615ae4565b0490505b600160201b810615614cc1576001614cc4565b60005b60ff16602082901c0192505050919050565b6000808060001985870985870292508281108382030391505080600003614d0f5760008411614d0457600080fd5b508290049050610f3c565b808411614d1b57600080fd5b6000848688096000868103871696879004966002600389028118808a02820302808a02820302808a02820302808a02820302808a02820302808a02909103029181900381900460010186841190950394909402919094039290920491909117919091029150509392505050565b815115614d985781518083602001fd5b8060405162461bcd60e51b8152600401610b379190614f42565b803561ffff81168114614dc457600080fd5b919050565b60008083601f840112614ddb57600080fd5b5081356001600160401b03811115614df257600080fd5b602083019150836020828501011115613d7a57600080fd5b80356001600160401b0381168114614dc457600080fd5b60008060008060008060808789031215614e3a57600080fd5b614e4387614db2565b955060208701356001600160401b0380821115614e5f57600080fd5b614e6b8a838b01614dc9565b9097509550859150614e7f60408a01614e0a565b94506060890135915080821115614e9557600080fd5b50614ea289828a01614dc9565b979a9699509497509295939492505050565b600060208284031215614ec657600080fd5b81356001600160e01b031981168114610f3c57600080fd5b6001600160a01b0391909116815260200190565b60005b83811015614f0d578181015183820152602001614ef5565b50506000910152565b60008151808452614f2e816020860160208601614ef2565b601f01601f19169290920160200192915050565b602081526000610f3c6020830184614f16565b600060208284031215614f6757600080fd5b610f3c82614db2565b60008060408385031215614f8357600080fd5b614f8c83614db2565b946020939093013593505050565b6001600160a01b0381168114610d4757600080fd5b600060208284031215614fc157600080fd5b8135610f3c81614f9a565b600060208284031215614fde57600080fd5b5035919050565b60008060408385031215614ff857600080fd5b82359150602083013561500a81614f9a565b809150509250929050565b60008060006040848603121561502a57600080fd5b61503384614db2565b925060208401356001600160401b0381111561504e57600080fd5b61505a86828701614dc9565b9497909650939450505050565b8015158114610d4757600080fd5b60006020828403121561508757600080fd5b8135610f3c81615067565b634e487b7160e01b600052604160045260246000fd5b604051602081016001600160401b03811182821017156150ca576150ca615092565b60405290565b604051601f8201601f191681016001600160401b03811182821017156150f8576150f8615092565b604052919050565b60006001600160401b0382111561511957615119615092565b50601f01601f191660200190565b600082601f83011261513857600080fd5b813561514b61514682615100565b6150d0565b81815284602083860101111561516057600080fd5b816020850160208301376000918101602001919091529392505050565b600080600080600060a0868803121561519557600080fd5b8535945060208601359350604086013592506060860135915060808601356001600160401b038111156151c757600080fd5b6151d388828901615127565b9150509295509295909350565b6000806000606084860312156151f557600080fd5b6151fe84614db2565b925060208401356001600160401b0381111561521957600080fd5b61522586828701615127565b92505061523460408501614e0a565b90509250925092565b600080600080600080600080610100898b03121561525a57600080fd5b883561526581614f9a565b9750602089013561527581614f9a565b9650604089013561528581614f9a565b9550606089013561529581614f9a565b94506152a360808a01614db2565b935060a08901356152b381614f9a565b925060c08901356152c381614f9a565b8092505060e089013590509295985092959890939650565b600080604083850312156152ee57600080fd5b6152f783614db2565b915061530560208401614db2565b90509250929050565b60008060008060008060c0878903121561532757600080fd5b61533087614db2565b955060208701356001600160401b038082111561534c57600080fd5b6153588a838b01615127565b9650604089013595506060890135915061537182614f9a565b9093506080880135925060a0880135908082111561538e57600080fd5b5061539b89828a01615127565b9150509295509295509295565b6000806000806000608086880312156153c057600080fd5b6153c986614db2565b94506153d760208701614db2565b93506040860135925060608601356001600160401b038111156153f957600080fd5b61540588828901614dc9565b969995985093965092949392505050565b60008060006060848603121561542b57600080fd5b61543484614db2565b925061544260208501614db2565b9150604084013590509250925092565b6000806000806080858703121561546857600080fd5b843561547381614f9a565b9350602085013561548381614f9a565b93969395505050506040820135916060013590565b600080600080608085870312156154ae57600080fd5b6154b785614db2565b93506154c560208601614db2565b925060408501356154d581614f9a565b9396929550929360600135925050565b6000602082840312156154f757600080fd5b5051919050565b600181811c9082168061551257607f821691505b60208210810361553257634e487b7160e01b600052602260045260246000fd5b50919050565b8183823760009101908152919050565b81835281816020850137506000828201602090810191909152601f909101601f19169091010190565b61ffff8416815260406020820152600061203f604083018486615548565b634e487b7160e01b600052601160045260246000fd5b81810381811115610bef57610bef61558f565b80820180821115610bef57610bef61558f565b6000600182016155dd576155dd61558f565b5060010190565b634e487b7160e01b600052602160045260246000fd5b6005811061561857634e487b7160e01b600052602160045260246000fd5b9052565b61562681846155fa565b604060208201526156436040820183516001600160a01b03169052565b6020820151606082015260408201516080820152606082015160a0820152608082015160c082015260a082015160e0820152600060c0830151610100818185015260e085015191506101208281860152818601519250610140915082828601528086015192505061016082818601528186015192508061018086015250506156cf6101a0840182614f16565b95945050505050565b8284823760609190911b6001600160601b0319169101908152601401919050565b601f821115610dbd57600081815260208120601f850160051c810160208610156157205750805b601f850160051c820191505b81811015610bb65782815560010161572c565b600019600383901b1c191660019190911b1790565b81516001600160401b0381111561576d5761576d615092565b6157818161577b84546154fe565b846156f9565b602080601f8311600181146157b0576000841561579e5750858301515b6157a8858261573f565b865550610bb6565b600085815260208120601f198616915b828110156157df578886015182559484019460019091019084016157c0565b50858210156157fd5787850151600019600388901b60f8161c191681555b5050505050600190811b01905550565b6000825161581f818460208701614ef2565b9190910192915050565b805160208201516001600160601b031980821692919060148310156158585780818460140360031b1b83161693505b505050919050565b600061ffff8088168352808716602084015250846040830152608060608301526141f6608083018486615548565b61ffff861681526080602082015260006158ac608083018688615548565b6001600160401b0394909416604083015250606001529392505050565b6001600160401b038311156158e0576158e0615092565b6158f4836158ee83546154fe565b836156f9565b6000601f84116001811461592257600085156159105750838201355b61591a868261573f565b845550610c5b565b600083815260209020601f19861690835b828110156159535786850135825560209485019460019092019101615933565b50868210156159705760001960f88860031b161c19848701351681555b505060018560011b0183555050505050565b60006020828403121561599457600080fd5b81516001600160401b038111156159aa57600080fd5b8201601f810184136159bb57600080fd5b80516159c961514682615100565b8181528560208385010111156159de57600080fd5b6156cf826020830160208601614ef2565b61ffff85168152608060208201526000615a0c6080830186614f16565b6001600160401b038516604084015282810360608401526141f68185614f16565b6001600160a01b03929092168252602082015260400190565b634e487b7160e01b600052603260045260246000fd5b600081518084526020808501945080840160005b83811015615a8c57815187529582019590820190600101615a70565b509495945050505050565b6001600160a01b0384168152606060208201819052600090615abb90830185615a5c565b90508215156040830152949350505050565b8082028115828204841417610bef57610bef61558f565b634e487b7160e01b600052601260045260246000fd5b600082615b0957615b09615ae4565b500490565b606081526000615b216060830186615a5c565b60208301949094525060400152919050565b93845260ff9290921660208401526040830152606082015260800190565b61ffff841681526001600160a01b038316602082015260606040820181905260009061203f90830184614f16565b6001600160a01b0386811682526020820186905261ffff851660408301528316606082015260a0608082018190526000906141f690830184614f16565b61ffff861681526001600160a01b038516602082015260a060408201819052600090615bea90830186614f16565b84151560608401528281036080840152615c048185614f16565b98975050505050505050565b60008060408385031215615c2357600080fd5b505080516020909101519092909150565b61ffff8716815260c060208201526000615c5160c0830188614f16565b8281036040840152615c638188614f16565b6001600160a01b0387811660608601528616608085015283810360a08501529050615c8e8185614f16565b9998505050505050505050565b6020808252602b908201527f496e697469616c697a61626c653a20636f6e7472616374206973206e6f74206960408201526a6e697469616c697a696e6760a81b606082015260800190565b600060208284031215615cf857600080fd5b815160ff81168114610f3c57600080fd5b600060208284031215615d1b57600080fd5b8151610f3c81615067565b61ffff8616815260a060208201526000615d4360a0830187614f16565b6001600160401b03861660408401528281036060840152615d648186614f16565b90508281036080840152615c048185614f16565b76020b1b1b2b9b9a1b7b73a3937b61d1030b1b1b7bab73a1604d1b815260008351615daa816017850160208801614ef2565b7001034b99036b4b9b9b4b733903937b6329607d1b6017918401918201528351615ddb816028840160208801614ef2565b01602801949350505050565b600060208284031215615df957600080fd5b815160058110610f3c57600080fd5b6000808284036040811215615e1c57600080fd5b835192506020601f1982011215615e3257600080fd5b50615e3b6150a8565b6020939093015183525092909150565b6000808284036060811215615e5f57600080fd5b835192506040601f1982011215615e7557600080fd5b50604080519081016001600160401b0381118282101715615e9857615e98615092565b60409081526020858101518352940151938101939093525092909150565b6000808284036040811215615eca57600080fd5b835192506020601f1982011215615ee057600080fd5b50615ee96150a8565b6020840151615ef781614f9a565b8152919491935090915050565b600081615f1357615f1361558f565b506000190190565b60a08101615f2982856155fa565b60018060a01b0383511660208301526020830151604083015260408301516060830152606083015160808301529392505050565b602081526000825160a06020840152615f7960c0840182614f16565b905060018060a01b0360208501511660408401526040840151606084015260608401516080840152608084015160a08401528091505092915050565b6020808252825182820181905260009190848201906040850190845b81811015615ff357835163ffffffff1683529284019291840191600101615fd1565b50909695505050505050565b60006001600160401b0382111561601857616018615092565b5060051b60200190565b600082601f83011261603357600080fd5b8151602061604361514683615fff565b82815260059290921b8401810191818101908684111561606257600080fd5b8286015b8481101561608657805161607981614f9a565b8352918301918301616066565b509695505050505050565b600080604083850312156160a457600080fd5b82516001600160401b03808211156160bb57600080fd5b818501915085601f8301126160cf57600080fd5b815160206160df61514683615fff565b82815260059290921b840181019181810190898411156160fe57600080fd5b948201945b8386101561612c5785518060060b811461611d5760008081fd5b82529482019490820190616103565b9188015191965090935050508082111561614557600080fd5b5061615285828601616022565b9150509250929050565b600682810b9082900b03667fffffffffffff198112667fffffffffffff82131715610bef57610bef61558f565b6001600160a01b038281168282160390808211156161a9576161a961558f565b5092915050565b60008160060b8360060b806161c7576161c7615ae4565b667fffffffffffff198214600019821416156161e5576161e561558f565b90059392505050565b60008260060b8061620157616201615ae4565b808360060b0791505092915050565b60008160020b627fffff1981036162295761622961558f565b6000190192915050565b6001600160c01b0382811682821681810283169291811582850482141761625c5761625c61558f565b50505092915050565b60006001600160c01b038381168061627f5761627f615ae4565b9216919091049291505056fe000000000000000000000000b0cabfe930642ad3e7decdc741884d8c3f7ebc7000000000000000000000000010541b07d8ad2647dc6cd67abd4c03575dade261b0c58532a125fc3c0adccaef396bf65344a4d5781cec2e4c593e6b611d75f150a2646970667358221220d78cfec961ed20f46bb7c266d9e860250b151bedccc7635cf9eea76e4b5c4dff64736f6c63430008130033",
  "linkReferences": {},
  "deployedLinkReferences": {}
}