{
  "_format": "hh-sol-artifact-1",
  "contractName": "HopStrategy",
  "sourceName": "contracts/strategies/HopStrategy.sol",
  "abi": [
    {
      "inputs": [
        {
          "internalType": "uint256",
          "name": "messageType",
          "type": "uint256"
        }
      ],
      "name": "IncorrectMessageType",
      "type": "error"
    },
    {
      "inputs": [],
      "name": "InitializeQuoteBufferWithHopToWantValue",
      "type": "error"
    },
    {
      "inputs": [
        {
          "internalType": "uint256",
          "name": "amount",
          "type": "uint256"
        },
        {
          "internalType": "uint256",
          "name": "balance",
          "type": "uint256"
        }
      ],
      "name": "InsufficientFunds",
      "type": "error"
    },
    {
      "inputs": [],
      "name": "T",
      "type": "error"
    },
    {
      "anonymous": false,
      "inputs": [
        {
          "indexed": false,
          "internalType": "uint256",
          "name": "debtOutstanding",
          "type": "uint256"
        }
      ],
      "name": "AdjustedPosition",
      "type": "event"
    },
    {
      "anonymous": false,
      "inputs": [
        {
          "indexed": true,
          "internalType": "bytes",
          "name": "lowLevelErrorData",
          "type": "bytes"
        }
      ],
      "name": "EmergencyQuoteOnAlternativeDEX",
      "type": "event"
    },
    {
      "anonymous": false,
      "inputs": [
        {
          "indexed": true,
          "internalType": "bytes",
          "name": "lowLevelErrorData",
          "type": "bytes"
        }
      ],
      "name": "EmergencySwapOnAlternativeDEX",
      "type": "event"
    },
    {
      "anonymous": false,
      "inputs": [
        {
          "indexed": false,
          "internalType": "uint8",
          "name": "version",
          "type": "uint8"
        }
      ],
      "name": "Initialized",
      "type": "event"
    },
    {
      "anonymous": false,
      "inputs": [
        {
          "indexed": false,
          "internalType": "uint16",
          "name": "_srcChainId",
          "type": "uint16"
        },
        {
          "indexed": false,
          "internalType": "bytes",
          "name": "_srcAddress",
          "type": "bytes"
        },
        {
          "indexed": false,
          "internalType": "uint64",
          "name": "_nonce",
          "type": "uint64"
        },
        {
          "indexed": false,
          "internalType": "bytes",
          "name": "_payload",
          "type": "bytes"
        },
        {
          "indexed": false,
          "internalType": "bytes",
          "name": "_reason",
          "type": "bytes"
        }
      ],
      "name": "MessageFailed",
      "type": "event"
    },
    {
      "anonymous": false,
      "inputs": [
        {
          "indexed": true,
          "internalType": "address",
          "name": "src",
          "type": "address"
        },
        {
          "indexed": true,
          "internalType": "address",
          "name": "dst",
          "type": "address"
        },
        {
          "indexed": true,
          "internalType": "uint256",
          "name": "amountOut",
          "type": "uint256"
        },
        {
          "indexed": false,
          "internalType": "uint256",
          "name": "amountIn",
          "type": "uint256"
        }
      ],
      "name": "Notified",
      "type": "event"
    },
    {
      "anonymous": false,
      "inputs": [
        {
          "indexed": true,
          "internalType": "address",
          "name": "previousOwner",
          "type": "address"
        },
        {
          "indexed": true,
          "internalType": "address",
          "name": "newOwner",
          "type": "address"
        }
      ],
      "name": "OwnershipTransferred",
      "type": "event"
    },
    {
      "anonymous": false,
      "inputs": [
        {
          "indexed": true,
          "internalType": "address",
          "name": "src",
          "type": "address"
        },
        {
          "indexed": true,
          "internalType": "address",
          "name": "dst",
          "type": "address"
        },
        {
          "indexed": true,
          "internalType": "uint256",
          "name": "amount",
          "type": "uint256"
        }
      ],
      "name": "Quote",
      "type": "event"
    },
    {
      "anonymous": false,
      "inputs": [
        {
          "indexed": false,
          "internalType": "uint16",
          "name": "_srcChainId",
          "type": "uint16"
        },
        {
          "indexed": false,
          "internalType": "bytes",
          "name": "_srcAddress",
          "type": "bytes"
        },
        {
          "indexed": false,
          "internalType": "uint64",
          "name": "_nonce",
          "type": "uint64"
        },
        {
          "indexed": false,
          "internalType": "bytes32",
          "name": "_payloadHash",
          "type": "bytes32"
        }
      ],
      "name": "RetryMessageSuccess",
      "type": "event"
    },
    {
      "anonymous": false,
      "inputs": [
        {
          "indexed": true,
          "internalType": "bytes32",
          "name": "role",
          "type": "bytes32"
        },
        {
          "indexed": true,
          "internalType": "bytes32",
          "name": "previousAdminRole",
          "type": "bytes32"
        },
        {
          "indexed": true,
          "internalType": "bytes32",
          "name": "newAdminRole",
          "type": "bytes32"
        }
      ],
      "name": "RoleAdminChanged",
      "type": "event"
    },
    {
      "anonymous": false,
      "inputs": [
        {
          "indexed": true,
          "internalType": "bytes32",
          "name": "role",
          "type": "bytes32"
        },
        {
          "indexed": true,
          "internalType": "address",
          "name": "account",
          "type": "address"
        },
        {
          "indexed": true,
          "internalType": "address",
          "name": "sender",
          "type": "address"
        }
      ],
      "name": "RoleGranted",
      "type": "event"
    },
    {
      "anonymous": false,
      "inputs": [
        {
          "indexed": true,
          "internalType": "bytes32",
          "name": "role",
          "type": "bytes32"
        },
        {
          "indexed": true,
          "internalType": "address",
          "name": "account",
          "type": "address"
        },
        {
          "indexed": true,
          "internalType": "address",
          "name": "sender",
          "type": "address"
        }
      ],
      "name": "RoleRevoked",
      "type": "event"
    },
    {
      "anonymous": false,
      "inputs": [
        {
          "indexed": false,
          "internalType": "uint16",
          "name": "_dstChainId",
          "type": "uint16"
        },
        {
          "indexed": false,
          "internalType": "uint16",
          "name": "_type",
          "type": "uint16"
        },
        {
          "indexed": false,
          "internalType": "uint256",
          "name": "_minDstGas",
          "type": "uint256"
        }
      ],
      "name": "SetMinDstGas",
      "type": "event"
    },
    {
      "anonymous": false,
      "inputs": [
        {
          "indexed": false,
          "internalType": "address",
          "name": "precrime",
          "type": "address"
        }
      ],
      "name": "SetPrecrime",
      "type": "event"
    },
    {
      "anonymous": false,
      "inputs": [
        {
          "indexed": false,
          "internalType": "uint16",
          "name": "_remoteChainId",
          "type": "uint16"
        },
        {
          "indexed": false,
          "internalType": "bytes",
          "name": "_path",
          "type": "bytes"
        }
      ],
      "name": "SetTrustedRemote",
      "type": "event"
    },
    {
      "anonymous": false,
      "inputs": [
        {
          "indexed": false,
          "internalType": "uint16",
          "name": "_remoteChainId",
          "type": "uint16"
        },
        {
          "indexed": false,
          "internalType": "bytes",
          "name": "_remoteAddress",
          "type": "bytes"
        }
      ],
      "name": "SetTrustedRemoteAddress",
      "type": "event"
    },
    {
      "anonymous": false,
      "inputs": [
        {
          "indexed": true,
          "internalType": "address",
          "name": "token",
          "type": "address"
        },
        {
          "indexed": false,
          "internalType": "uint256",
          "name": "amount",
          "type": "uint256"
        },
        {
          "indexed": false,
          "internalType": "address",
          "name": "sender",
          "type": "address"
        }
      ],
      "name": "SgReceived",
      "type": "event"
    },
    {
      "anonymous": false,
      "inputs": [
        {
          "indexed": false,
          "internalType": "address",
          "name": "newStrategy",
          "type": "address"
        }
      ],
      "name": "StrategyMigrated",
      "type": "event"
    },
    {
      "anonymous": false,
      "inputs": [
        {
          "indexed": false,
          "internalType": "uint256",
          "name": "profit",
          "type": "uint256"
        },
        {
          "indexed": false,
          "internalType": "uint256",
          "name": "loss",
          "type": "uint256"
        },
        {
          "indexed": false,
          "internalType": "uint256",
          "name": "debtPayment",
          "type": "uint256"
        },
        {
          "indexed": false,
          "internalType": "uint256",
          "name": "giveToStrategy",
          "type": "uint256"
        },
        {
          "indexed": false,
          "internalType": "uint256",
          "name": "requestFromStrategy",
          "type": "uint256"
        },
        {
          "indexed": false,
          "internalType": "uint256",
          "name": "creditAvailable",
          "type": "uint256"
        },
        {
          "indexed": false,
          "internalType": "uint256",
          "name": "totalAssets",
          "type": "uint256"
        }
      ],
      "name": "StrategyReported",
      "type": "event"
    },
    {
      "anonymous": false,
      "inputs": [
        {
          "indexed": true,
          "internalType": "address",
          "name": "src",
          "type": "address"
        },
        {
          "indexed": true,
          "internalType": "address",
          "name": "dst",
          "type": "address"
        },
        {
          "indexed": true,
          "internalType": "uint256",
          "name": "amount",
          "type": "uint256"
        }
      ],
      "name": "Swap",
      "type": "event"
    },
    {
      "inputs": [],
      "name": "DEFAULT_ADMIN_ROLE",
      "outputs": [
        {
          "internalType": "bytes32",
          "name": "",
          "type": "bytes32"
        }
      ],
      "stateMutability": "view",
      "type": "function"
    },
    {
      "inputs": [],
      "name": "DEFAULT_PAYLOAD_SIZE_LIMIT",
      "outputs": [
        {
          "internalType": "uint256",
          "name": "",
          "type": "uint256"
        }
      ],
      "stateMutability": "view",
      "type": "function"
    },
    {
      "inputs": [],
      "name": "QUOTE_OPERATION_PROVIDER",
      "outputs": [
        {
          "internalType": "bytes32",
          "name": "",
          "type": "bytes32"
        }
      ],
      "stateMutability": "view",
      "type": "function"
    },
    {
      "inputs": [
        {
          "internalType": "uint256",
          "name": "_debtOutstanding",
          "type": "uint256"
        }
      ],
      "name": "adjustPosition",
      "outputs": [],
      "stateMutability": "nonpayable",
      "type": "function"
    },
    {
      "inputs": [],
      "name": "balanceOfWant",
      "outputs": [
        {
          "internalType": "uint256",
          "name": "",
          "type": "uint256"
        }
      ],
      "stateMutability": "view",
      "type": "function"
    },
    {
      "inputs": [
        {
          "internalType": "uint256",
          "name": "epoch",
          "type": "uint256"
        }
      ],
      "name": "callMe",
      "outputs": [],
      "stateMutability": "nonpayable",
      "type": "function"
    },
    {
      "inputs": [],
      "name": "clearWant",
      "outputs": [],
      "stateMutability": "nonpayable",
      "type": "function"
    },
    {
      "inputs": [],
      "name": "currentChainId",
      "outputs": [
        {
          "internalType": "uint16",
          "name": "",
          "type": "uint16"
        }
      ],
      "stateMutability": "view",
      "type": "function"
    },
    {
      "inputs": [],
      "name": "emergencyExit",
      "outputs": [
        {
          "internalType": "bool",
          "name": "",
          "type": "bool"
        }
      ],
      "stateMutability": "view",
      "type": "function"
    },
    {
      "inputs": [],
      "name": "estimatedTotalAssets",
      "outputs": [
        {
          "internalType": "uint256",
          "name": "",
          "type": "uint256"
        }
      ],
      "stateMutability": "view",
      "type": "function"
    },
    {
      "inputs": [
        {
          "internalType": "uint16",
          "name": "",
          "type": "uint16"
        },
        {
          "internalType": "bytes",
          "name": "",
          "type": "bytes"
        },
        {
          "internalType": "uint64",
          "name": "",
          "type": "uint64"
        }
      ],
      "name": "failedMessages",
      "outputs": [
        {
          "internalType": "bytes32",
          "name": "",
          "type": "bytes32"
        }
      ],
      "stateMutability": "view",
      "type": "function"
    },
    {
      "inputs": [
        {
          "internalType": "uint16",
          "name": "_srcChainId",
          "type": "uint16"
        },
        {
          "internalType": "bytes",
          "name": "_srcAddress",
          "type": "bytes"
        }
      ],
      "name": "forceResumeReceive",
      "outputs": [],
      "stateMutability": "nonpayable",
      "type": "function"
    },
    {
      "inputs": [
        {
          "internalType": "uint16",
          "name": "_version",
          "type": "uint16"
        },
        {
          "internalType": "uint16",
          "name": "_chainId",
          "type": "uint16"
        },
        {
          "internalType": "address",
          "name": "",
          "type": "address"
        },
        {
          "internalType": "uint256",
          "name": "_configType",
          "type": "uint256"
        }
      ],
      "name": "getConfig",
      "outputs": [
        {
          "internalType": "bytes",
          "name": "",
          "type": "bytes"
        }
      ],
      "stateMutability": "view",
      "type": "function"
    },
    {
      "inputs": [
        {
          "internalType": "bytes32",
          "name": "_messageHash",
          "type": "bytes32"
        }
      ],
      "name": "getEthSignedMessageHash",
      "outputs": [
        {
          "internalType": "bytes32",
          "name": "",
          "type": "bytes32"
        }
      ],
      "stateMutability": "pure",
      "type": "function"
    },
    {
      "inputs": [
        {
          "internalType": "bytes32",
          "name": "role",
          "type": "bytes32"
        }
      ],
      "name": "getRoleAdmin",
      "outputs": [
        {
          "internalType": "bytes32",
          "name": "",
          "type": "bytes32"
        }
      ],
      "stateMutability": "view",
      "type": "function"
    },
    {
      "inputs": [
        {
          "internalType": "uint16",
          "name": "_remoteChainId",
          "type": "uint16"
        }
      ],
      "name": "getTrustedRemoteAddress",
      "outputs": [
        {
          "internalType": "bytes",
          "name": "",
          "type": "bytes"
        }
      ],
      "stateMutability": "view",
      "type": "function"
    },
    {
      "inputs": [
        {
          "internalType": "bytes32",
          "name": "role",
          "type": "bytes32"
        },
        {
          "internalType": "address",
          "name": "account",
          "type": "address"
        }
      ],
      "name": "grantRole",
      "outputs": [],
      "stateMutability": "nonpayable",
      "type": "function"
    },
    {
      "inputs": [
        {
          "internalType": "uint256",
          "name": "_totalDebt",
          "type": "uint256"
        },
        {
          "internalType": "uint256",
          "name": "_debtOutstanding",
          "type": "uint256"
        },
        {
          "internalType": "uint256",
          "name": "_creditAvailable",
          "type": "uint256"
        },
        {
          "internalType": "uint256",
          "name": "_debtRatio",
          "type": "uint256"
        },
        {
          "internalType": "bytes",
          "name": "_signature",
          "type": "bytes"
        }
      ],
      "name": "harvest",
      "outputs": [],
      "stateMutability": "nonpayable",
      "type": "function"
    },
    {
      "inputs": [
        {
          "internalType": "bytes32",
          "name": "role",
          "type": "bytes32"
        },
        {
          "internalType": "address",
          "name": "account",
          "type": "address"
        }
      ],
      "name": "hasRole",
      "outputs": [
        {
          "internalType": "bool",
          "name": "",
          "type": "bool"
        }
      ],
      "stateMutability": "view",
      "type": "function"
    },
    {
      "inputs": [
        {
          "internalType": "address",
          "name": "_lzEndpoint",
          "type": "address"
        },
        {
          "internalType": "address",
          "name": "_strategist",
          "type": "address"
        },
        {
          "internalType": "contract IERC20",
          "name": "_want",
          "type": "address"
        },
        {
          "internalType": "address",
          "name": "_vault",
          "type": "address"
        },
        {
          "internalType": "uint16",
          "name": "_vaultChainId",
          "type": "uint16"
        },
        {
          "internalType": "address",
          "name": "_sgBridge",
          "type": "address"
        },
        {
          "internalType": "address",
          "name": "_sgRouter",
          "type": "address"
        },
        {
          "internalType": "uint256",
          "name": "_slippage",
          "type": "uint256"
        }
      ],
      "name": "initialize",
      "outputs": [],
      "stateMutability": "nonpayable",
      "type": "function"
    },
    {
      "inputs": [],
      "name": "initializeQuoteBufferWithHopToWantValue",
      "outputs": [],
      "stateMutability": "nonpayable",
      "type": "function"
    },
    {
      "inputs": [
        {
          "internalType": "uint16",
          "name": "_srcChainId",
          "type": "uint16"
        },
        {
          "internalType": "bytes",
          "name": "_srcAddress",
          "type": "bytes"
        }
      ],
      "name": "isTrustedRemote",
      "outputs": [
        {
          "internalType": "bool",
          "name": "",
          "type": "bool"
        }
      ],
      "stateMutability": "view",
      "type": "function"
    },
    {
      "inputs": [],
      "name": "lzEndpoint",
      "outputs": [
        {
          "internalType": "contract ILayerZeroEndpointUpgradeable",
          "name": "",
          "type": "address"
        }
      ],
      "stateMutability": "view",
      "type": "function"
    },
    {
      "inputs": [
        {
          "internalType": "uint16",
          "name": "_srcChainId",
          "type": "uint16"
        },
        {
          "internalType": "bytes",
          "name": "_srcAddress",
          "type": "bytes"
        },
        {
          "internalType": "uint64",
          "name": "_nonce",
          "type": "uint64"
        },
        {
          "internalType": "bytes",
          "name": "_payload",
          "type": "bytes"
        }
      ],
      "name": "lzReceive",
      "outputs": [],
      "stateMutability": "nonpayable",
      "type": "function"
    },
    {
      "inputs": [
        {
          "internalType": "uint16",
          "name": "",
          "type": "uint16"
        },
        {
          "internalType": "uint16",
          "name": "",
          "type": "uint16"
        }
      ],
      "name": "minDstGasLookup",
      "outputs": [
        {
          "internalType": "uint256",
          "name": "",
          "type": "uint256"
        }
      ],
      "stateMutability": "view",
      "type": "function"
    },
    {
      "inputs": [],
      "name": "name",
      "outputs": [
        {
          "internalType": "string",
          "name": "",
          "type": "string"
        }
      ],
      "stateMutability": "pure",
      "type": "function"
    },
    {
      "inputs": [
        {
          "internalType": "uint16",
          "name": "_srcChainId",
          "type": "uint16"
        },
        {
          "internalType": "bytes",
          "name": "_srcAddress",
          "type": "bytes"
        },
        {
          "internalType": "uint64",
          "name": "_nonce",
          "type": "uint64"
        },
        {
          "internalType": "bytes",
          "name": "_payload",
          "type": "bytes"
        }
      ],
      "name": "nonblockingLzReceive",
      "outputs": [],
      "stateMutability": "nonpayable",
      "type": "function"
    },
    {
      "inputs": [
        {
          "internalType": "address",
          "name": "",
          "type": "address"
        },
        {
          "internalType": "address",
          "name": "",
          "type": "address"
        },
        {
          "internalType": "uint256",
          "name": "amountOut",
          "type": "uint256"
        },
        {
          "internalType": "uint256",
          "name": "",
          "type": "uint256"
        }
      ],
      "name": "notifyCallback",
      "outputs": [],
      "stateMutability": "nonpayable",
      "type": "function"
    },
    {
      "inputs": [],
      "name": "owner",
      "outputs": [
        {
          "internalType": "address",
          "name": "",
          "type": "address"
        }
      ],
      "stateMutability": "view",
      "type": "function"
    },
    {
      "inputs": [
        {
          "internalType": "uint16",
          "name": "",
          "type": "uint16"
        }
      ],
      "name": "payloadSizeLimitLookup",
      "outputs": [
        {
          "internalType": "uint256",
          "name": "",
          "type": "uint256"
        }
      ],
      "stateMutability": "view",
      "type": "function"
    },
    {
      "inputs": [],
      "name": "precrime",
      "outputs": [
        {
          "internalType": "address",
          "name": "",
          "type": "address"
        }
      ],
      "stateMutability": "view",
      "type": "function"
    },
    {
      "inputs": [],
      "name": "renounceOwnership",
      "outputs": [],
      "stateMutability": "nonpayable",
      "type": "function"
    },
    {
      "inputs": [
        {
          "internalType": "bytes32",
          "name": "role",
          "type": "bytes32"
        },
        {
          "internalType": "address",
          "name": "account",
          "type": "address"
        }
      ],
      "name": "renounceRole",
      "outputs": [],
      "stateMutability": "nonpayable",
      "type": "function"
    },
    {
      "inputs": [
        {
          "internalType": "uint16",
          "name": "_srcChainId",
          "type": "uint16"
        },
        {
          "internalType": "bytes",
          "name": "_srcAddress",
          "type": "bytes"
        },
        {
          "internalType": "uint64",
          "name": "_nonce",
          "type": "uint64"
        },
        {
          "internalType": "bytes",
          "name": "_payload",
          "type": "bytes"
        }
      ],
      "name": "retryMessage",
      "outputs": [],
      "stateMutability": "payable",
      "type": "function"
    },
    {
      "inputs": [],
      "name": "revokeFunds",
      "outputs": [],
      "stateMutability": "nonpayable",
      "type": "function"
    },
    {
      "inputs": [
        {
          "internalType": "bytes32",
          "name": "role",
          "type": "bytes32"
        },
        {
          "internalType": "address",
          "name": "account",
          "type": "address"
        }
      ],
      "name": "revokeRole",
      "outputs": [],
      "stateMutability": "nonpayable",
      "type": "function"
    },
    {
      "inputs": [
        {
          "internalType": "uint16",
          "name": "_version",
          "type": "uint16"
        },
        {
          "internalType": "uint16",
          "name": "_chainId",
          "type": "uint16"
        },
        {
          "internalType": "uint256",
          "name": "_configType",
          "type": "uint256"
        },
        {
          "internalType": "bytes",
          "name": "_config",
          "type": "bytes"
        }
      ],
      "name": "setConfig",
      "outputs": [],
      "stateMutability": "nonpayable",
      "type": "function"
    },
    {
      "inputs": [
        {
          "internalType": "bool",
          "name": "_emergencyExit",
          "type": "bool"
        }
      ],
      "name": "setEmergencyExit",
      "outputs": [],
      "stateMutability": "nonpayable",
      "type": "function"
    },
    {
      "inputs": [
        {
          "internalType": "uint16",
          "name": "_dstChainId",
          "type": "uint16"
        },
        {
          "internalType": "uint16",
          "name": "_packetType",
          "type": "uint16"
        },
        {
          "internalType": "uint256",
          "name": "_minGas",
          "type": "uint256"
        }
      ],
      "name": "setMinDstGas",
      "outputs": [],
      "stateMutability": "nonpayable",
      "type": "function"
    },
    {
      "inputs": [
        {
          "internalType": "uint16",
          "name": "_dstChainId",
          "type": "uint16"
        },
        {
          "internalType": "uint256",
          "name": "_size",
          "type": "uint256"
        }
      ],
      "name": "setPayloadSizeLimit",
      "outputs": [],
      "stateMutability": "nonpayable",
      "type": "function"
    },
    {
      "inputs": [
        {
          "internalType": "address",
          "name": "_precrime",
          "type": "address"
        }
      ],
      "name": "setPrecrime",
      "outputs": [],
      "stateMutability": "nonpayable",
      "type": "function"
    },
    {
      "inputs": [
        {
          "internalType": "uint16",
          "name": "_version",
          "type": "uint16"
        }
      ],
      "name": "setReceiveVersion",
      "outputs": [],
      "stateMutability": "nonpayable",
      "type": "function"
    },
    {
      "inputs": [
        {
          "internalType": "uint16",
          "name": "_version",
          "type": "uint16"
        }
      ],
      "name": "setSendVersion",
      "outputs": [],
      "stateMutability": "nonpayable",
      "type": "function"
    },
    {
      "inputs": [
        {
          "internalType": "uint256",
          "name": "_slippage",
          "type": "uint256"
        }
      ],
      "name": "setSlippage",
      "outputs": [],
      "stateMutability": "nonpayable",
      "type": "function"
    },
    {
      "inputs": [
        {
          "internalType": "address",
          "name": "_strategist",
          "type": "address"
        }
      ],
      "name": "setStrategist",
      "outputs": [],
      "stateMutability": "nonpayable",
      "type": "function"
    },
    {
      "inputs": [
        {
          "internalType": "address",
          "name": "_swapHelper",
          "type": "address"
        }
      ],
      "name": "setSwapHelper",
      "outputs": [],
      "stateMutability": "nonpayable",
      "type": "function"
    },
    {
      "inputs": [
        {
          "internalType": "uint16",
          "name": "_srcChainId",
          "type": "uint16"
        },
        {
          "internalType": "bytes",
          "name": "_path",
          "type": "bytes"
        }
      ],
      "name": "setTrustedRemote",
      "outputs": [],
      "stateMutability": "nonpayable",
      "type": "function"
    },
    {
      "inputs": [
        {
          "internalType": "uint16",
          "name": "_remoteChainId",
          "type": "uint16"
        },
        {
          "internalType": "bytes",
          "name": "_remoteAddress",
          "type": "bytes"
        }
      ],
      "name": "setTrustedRemoteAddress",
      "outputs": [],
      "stateMutability": "nonpayable",
      "type": "function"
    },
    {
      "inputs": [],
      "name": "sgBridge",
      "outputs": [
        {
          "internalType": "contract ISgBridge",
          "name": "",
          "type": "address"
        }
      ],
      "stateMutability": "view",
      "type": "function"
    },
    {
      "inputs": [
        {
          "internalType": "uint16",
          "name": "",
          "type": "uint16"
        },
        {
          "internalType": "bytes",
          "name": "_srcAddress",
          "type": "bytes"
        },
        {
          "internalType": "uint256",
          "name": "",
          "type": "uint256"
        },
        {
          "internalType": "address",
          "name": "_token",
          "type": "address"
        },
        {
          "internalType": "uint256",
          "name": "_amountLD",
          "type": "uint256"
        },
        {
          "internalType": "bytes",
          "name": "",
          "type": "bytes"
        }
      ],
      "name": "sgReceive",
      "outputs": [],
      "stateMutability": "nonpayable",
      "type": "function"
    },
    {
      "inputs": [],
      "name": "sgRouter",
      "outputs": [
        {
          "internalType": "contract IStargateRouter",
          "name": "",
          "type": "address"
        }
      ],
      "stateMutability": "view",
      "type": "function"
    },
    {
      "inputs": [],
      "name": "slippage",
      "outputs": [
        {
          "internalType": "uint256",
          "name": "",
          "type": "uint256"
        }
      ],
      "stateMutability": "view",
      "type": "function"
    },
    {
      "inputs": [],
      "name": "strategist",
      "outputs": [
        {
          "internalType": "address",
          "name": "",
          "type": "address"
        }
      ],
      "stateMutability": "view",
      "type": "function"
    },
    {
      "inputs": [],
      "name": "strategistSignMessageHash",
      "outputs": [
        {
          "internalType": "bytes32",
          "name": "",
          "type": "bytes32"
        }
      ],
      "stateMutability": "view",
      "type": "function"
    },
    {
      "inputs": [
        {
          "internalType": "bytes4",
          "name": "interfaceId",
          "type": "bytes4"
        }
      ],
      "name": "supportsInterface",
      "outputs": [
        {
          "internalType": "bool",
          "name": "",
          "type": "bool"
        }
      ],
      "stateMutability": "view",
      "type": "function"
    },
    {
      "inputs": [],
      "name": "swapHelper",
      "outputs": [
        {
          "internalType": "contract ISwapHelper",
          "name": "",
          "type": "address"
        }
      ],
      "stateMutability": "view",
      "type": "function"
    },
    {
      "inputs": [
        {
          "internalType": "contract IERC20",
          "name": "_token",
          "type": "address"
        }
      ],
      "name": "sweepToken",
      "outputs": [],
      "stateMutability": "nonpayable",
      "type": "function"
    },
    {
      "inputs": [
        {
          "internalType": "address",
          "name": "newOwner",
          "type": "address"
        }
      ],
      "name": "transferOwnership",
      "outputs": [],
      "stateMutability": "nonpayable",
      "type": "function"
    },
    {
      "inputs": [
        {
          "internalType": "uint16",
          "name": "",
          "type": "uint16"
        }
      ],
      "name": "trustedRemoteLookup",
      "outputs": [
        {
          "internalType": "bytes",
          "name": "",
          "type": "bytes"
        }
      ],
      "stateMutability": "view",
      "type": "function"
    },
    {
      "inputs": [],
      "name": "vault",
      "outputs": [
        {
          "internalType": "address",
          "name": "",
          "type": "address"
        }
      ],
      "stateMutability": "view",
      "type": "function"
    },
    {
      "inputs": [],
      "name": "vaultChainId",
      "outputs": [
        {
          "internalType": "uint16",
          "name": "",
          "type": "uint16"
        }
      ],
      "stateMutability": "view",
      "type": "function"
    },
    {
      "inputs": [],
      "name": "want",
      "outputs": [
        {
          "internalType": "contract IERC20",
          "name": "",
          "type": "address"
        }
      ],
      "stateMutability": "view",
      "type": "function"
    },
    {
      "inputs": [],
      "name": "wantDecimals",
      "outputs": [
        {
          "internalType": "uint8",
          "name": "",
          "type": "uint8"
        }
      ],
      "stateMutability": "view",
      "type": "function"
    },
    {
      "stateMutability": "payable",
      "type": "receive"
    }
  ],
  "bytecode": "0x608060405234801561001057600080fd5b5061635c80620000216000396000f3fe6080604052600436106102cb5760003560e01c80621d3567146102d757806301ffc9a7146102f95780630517cb761461032e57806306fdde031461035b57806307e0db17146103985780630df37483146103b85780630fc6a11c146103d857806310ddb137146103f95780631be19560146104195780631f1fcd51146104395780631fe4a68614610459578063237ea53f14610479578063248a9ca3146104a95780632d606843146104c95780632f2ff15d146104de57806336568abe146104fe57806337fded911461051e5780633d3ccc2f146105435780633d8b38f6146105635780633e032a3b146105835780633f1f4fa41461059957806342d65a8d146105c657806345ee0755146105e6578063495f881e146106065780635641ec0314610626578063567ad85d14610640578063593178de146106755780635b8c41e61461068a57806366ad5c8a146106d95780636cbadbfa146106f9578063715018a61461071b5780637533d788146107305780637f555565146107505780638cfd8f5c146107705780638da5cb5b146107a857806391d14854146107bd578063950c8a74146107dd5780639606647d146107fd5780639f38369a14610812578063a217fddf14610832578063a6c3d16514610847578063ab8236f314610867578063abe06ef714610887578063adf076e61461089c578063b353aaa7146108cf578063baf3292d146108ef578063c1a3d44c1461090f578063c446183414610924578063c7b9d5301461093a578063cbed8b9c1461095a578063d1deba1f1461097a578063d547741f1461098d578063d73cd47f146109ad578063df2a5b3b146109cd578063e73620c3146109ed578063eb8d72b714610a0d578063efbb5cb014610a2d578063f056dffe14610a42578063f0fa55a914610a62578063f2fde38b14610a82578063f5ecbdbc14610aa2578063fa54080114610ac2578063fbfa77cf14610ae257600080fd5b366102d257005b600080fd5b3480156102e357600080fd5b506102f76102f2366004614e3c565b610b02565b005b34801561030557600080fd5b50610319610314366004614ecf565b610beb565b60405190151581526020015b60405180910390f35b34801561033a57600080fd5b5060ce5461034e906001600160a01b031681565b6040516103259190614ef9565b34801561036757600080fd5b5060408051808201909152600b81526a486f70537472617465677960a81b60208201525b6040516103259190614f5d565b3480156103a457600080fd5b506102f76103b3366004614f70565b610c22565b3480156103c457600080fd5b506102f76103d3366004614f8b565b610c8f565b3480156103e457600080fd5b506101355461034e906001600160a01b031681565b34801561040557600080fd5b506102f7610414366004614f70565b610cae565b34801561042557600080fd5b506102f7610434366004614fca565b610cea565b34801561044557600080fd5b5060ca5461034e906001600160a01b031681565b34801561046557600080fd5b5060c95461034e906001600160a01b031681565b34801561048557600080fd5b5061049b6000805160206162e783398151915281565b604051908152602001610325565b3480156104b557600080fd5b5061049b6104c4366004614fe7565b610d77565b3480156104d557600080fd5b506102f7610d8d565b3480156104ea57600080fd5b506102f76104f9366004615000565b610dce565b34801561050a57600080fd5b506102f7610519366004615000565b610def565b34801561052a57600080fd5b5060cd5461034e9061010090046001600160a01b031681565b34801561054f57600080fd5b506102f761055e366004614fe7565b610e6d565b34801561056f57600080fd5b5061031961057e366004615030565b610ea3565b34801561058f57600080fd5b5061049b60cc5481565b3480156105a557600080fd5b5061049b6105b4366004614f70565b60686020526000908152604090205481565b3480156105d257600080fd5b506102f76105e1366004615030565b610f70565b3480156105f257600080fd5b506102f7610601366004615090565b610fe3565b34801561061257600080fd5b506102f7610621366004615198565b610ffe565b34801561063257600080fd5b5060cd546103199060ff1681565b34801561064c57600080fd5b5060cb5461066290600160a01b900461ffff1681565b60405161ffff9091168152602001610325565b34801561068157600080fd5b5061049b6112a2565b34801561069657600080fd5b5061049b6106a53660046151fb565b6097602090815260009384526040808520845180860184018051928152908401958401959095209452929052825290205481565b3480156106e557600080fd5b506102f76106f4366004614e3c565b611300565b34801561070557600080fd5b5060cb5461066290600160b01b900461ffff1681565b34801561072757600080fd5b506102f76113d4565b34801561073c57600080fd5b5061038b61074b366004614f70565b6113e8565b34801561075c57600080fd5b506102f761076b366004615258565b611482565b34801561077c57600080fd5b5061049b61078b3660046152f6565b606760209081526000928352604080842090915290825290205481565b3480156107b457600080fd5b5061034e61166d565b3480156107c957600080fd5b506103196107d8366004615000565b61167c565b3480156107e957600080fd5b5060695461034e906001600160a01b031681565b34801561080957600080fd5b506102f76116a8565b34801561081e57600080fd5b5061038b61082d366004614f70565b61173b565b34801561083e57600080fd5b5061049b600081565b34801561085357600080fd5b506102f7610862366004615030565b61184a565b34801561087357600080fd5b506102f7610882366004615329565b6118d3565b34801561089357600080fd5b506102f76119d1565b3480156108a857600080fd5b5060cb546108bd90600160c01b900460ff1681565b60405160ff9091168152602001610325565b3480156108db57600080fd5b5060655461034e906001600160a01b031681565b3480156108fb57600080fd5b506102f761090a366004614fca565b6119e9565b34801561091b57600080fd5b5061049b611a3c565b34801561093057600080fd5b5061049b61271081565b34801561094657600080fd5b506102f7610955366004614fca565b611ab3565b34801561096657600080fd5b506102f76109753660046153c3565b611add565b6102f7610988366004614e3c565b611b4b565b34801561099957600080fd5b506102f76109a8366004615000565b611d61565b3480156109b957600080fd5b506102f76109c8366004614fca565b611d7d565b3480156109d957600080fd5b506102f76109e8366004615431565b611da8565b3480156109f957600080fd5b506102f7610a08366004614fe7565b611e5a565b348015610a1957600080fd5b506102f7610a28366004615030565b611e7a565b348015610a3957600080fd5b5061049b611ed4565b348015610a4e57600080fd5b506102f7610a5d36600461546d565b611f2b565b348015610a6e57600080fd5b506102f7610a7d366004614fe7565b611f4d565b348015610a8e57600080fd5b506102f7610a9d366004614fca565b611f5a565b348015610aae57600080fd5b5061038b610abd3660046154b3565b611fd0565b348015610ace57600080fd5b5061049b610add366004614fe7565b612065565b348015610aee57600080fd5b5060cb5461034e906001600160a01b031681565b6065546001600160a01b03163314610b6d5760405162461bcd60e51b815260206004820152602360248201527f4261736553747261746567793a3a496e76616c6964456e64706f696e7443616c6044820152623632b960e91b60648201526084015b60405180910390fd5b610be38686868080601f01602080910402602001604051908101604052809392919081815260200183838082843760009201919091525050604080516020601f8901819004810282018101909252878152899350915087908790819084018382808284376000920191909152506120b792505050565b505050505050565b60006001600160e01b03198216637965db0b60e01b1480610c1c57506301ffc9a760e01b6001600160e01b03198316145b92915050565b610c2a612130565b6065546040516307e0db1760e01b815261ffff831660048201526001600160a01b03909116906307e0db17906024015b600060405180830381600087803b158015610c7457600080fd5b505af1158015610c88573d6000803e3d6000fd5b5050505050565b610c97612130565b61ffff909116600090815260686020526040902055565b610cb6612130565b6065546040516310ddb13760e01b815261ffff831660048201526001600160a01b03909116906310ddb13790602401610c5a565b610cf261218f565b610d7433826001600160a01b03166370a08231306040518263ffffffff1660e01b8152600401610d229190614ef9565b602060405180830381865afa158015610d3f573d6000803e3d6000fd5b505050506040513d601f19601f82011682018060405250810190610d639190615500565b6001600160a01b03841691906121e8565b50565b6000908152610103602052604090206001015490565b610d9561218f565b60c9546040516001600160a01b03909116904780156108fc02916000818181858888f19350505050158015610d74573d6000803e3d6000fd5b610dd782610d77565b610de08161223e565b610dea8383612248565b505050565b6001600160a01b0381163314610e5f5760405162461bcd60e51b815260206004820152602f60248201527f416363657373436f6e74726f6c3a2063616e206f6e6c792072656e6f756e636560448201526e103937b632b9903337b91039b2b63360891b6064820152608401610b64565b610e6982826122cf565b5050565b610e7561218f565b610e7e81612337565b604051818152600080516020616307833981519152906020015b60405180910390a150565b61ffff831660009081526066602052604081208054829190610ec490615519565b80601f0160208091040260200160405190810160405280929190818152602001828054610ef090615519565b8015610f3d5780601f10610f1257610100808354040283529160200191610f3d565b820191906000526020600020905b815481529060010190602001808311610f2057829003601f168201915b505050505090508383604051610f54929190615553565b60405180910390208180519060200120149150505b9392505050565b610f78612130565b6065546040516342d65a8d60e01b81526001600160a01b03909116906342d65a8d90610fac9086908690869060040161558c565b600060405180830381600087803b158015610fc657600080fd5b505af1158015610fda573d6000803e3d6000fd5b50505050505050565b610feb61218f565b60cd805460ff1916911515919091179055565b61100661218f565b61100f816125cd565b60cd546000908190819060ff16156110bb57841561106f5760405162461bcd60e51b815260206004820152601e60248201527f4261736553747261746567793a3a44656274526174696f4e6f745a65726f00006044820152606401610b64565b6000611079612653565b9050878110156110945761108d81896155c0565b92506110a9565b878111156110a9576110a688826155c0565b93505b6110b383896155c0565b9150506110cd565b6110c588886127bc565b919450925090505b60006110d982856155d3565b9050600080888310156110fb576110f0838a6155c0565b91506000905061110c565b6000915061110989846155c0565b90505b6000604051806101600160405280306001600160a01b031681526020014281526020018881526020018781526020018681526020018481526020018381526020018b81526020018361115c611ed4565b61116691906155c0565b815260200160d0600081548092919061117e906155e6565b909155508152602001899052905081156111de5760cb546040516111d991849161ffff600160a01b830416916001600160a01b0316906111c5906002908790602001615637565b6040516020818303038152906040526128b3565b611209565b6112096002826040516020016111f5929190615637565b60405160208183030381529060405261298d565b7fb983e09c034e9c52b5e547cb0589967992b97717733f580cc5ad0afcdc4b522b8160400151826060015183608001518460a001518560c001518660e0015187610100015160405161128c9796959493929190968752602087019590955260408601939093526060850191909152608084015260a083015260c082015260e00190565b60405180910390a1505050505050505050505050565b60d05460cb546040513060601b6001600160601b03191660208201526034810192909252600160b01b900460f01b6001600160f01b031916605482015260009060560160405160208183030381529060405280519060200120905090565b33301461135e5760405162461bcd60e51b815260206004820152602660248201527f4e6f6e626c6f636b696e674c7a4170703a2063616c6c6572206d7573742062656044820152650204c7a4170760d41b6064820152608401610b64565b610be38686868080601f01602080910402602001604051908101604052809392919081815260200183838082843760009201919091525050604080516020601f890181900481028201810190925287815289935091508790879081908401838280828437600092019190915250612b0d92505050565b6113dc612130565b6113e66000612c23565b565b6066602052600090815260409020805461140190615519565b80601f016020809104026020016040519081016040528092919081815260200182805461142d90615519565b801561147a5780601f1061144f5761010080835404028352916020019161147a565b820191906000526020600020905b81548152906001019060200180831161145d57829003601f168201915b505050505081565b600054610100900460ff16158080156114a25750600054600160ff909116105b806114c357506114b130612c75565b1580156114c3575060005460ff166001145b6115265760405162461bcd60e51b815260206004820152602e60248201527f496e697469616c697a61626c653a20636f6e747261637420697320616c72656160448201526d191e481a5b9a5d1a585b1a5e995960921b6064820152608401610b64565b6000805460ff191660011790558015611549576000805461ff0019166101001790555b611551612c84565b6115628989898989468a8a8a612cab565b61159173b67c014fa700e69681a673876eb8bafaa36bff716000805160206162a7833981519152600019612e7e565b6115c073b67c014fa700e69681a673876eb8bafaa36bff716000805160206162c7833981519152600019612e7e565b6115f573c5102fe9359fd9a28f877a67e36b0f050d81a3cc73e592427a0aece92de3edee1f18e0157c05861564600019612e7e565b60ca5461161c906001600160a01b03166000805160206162c7833981519152600019612e7e565b8015611662576000805461ff0019169055604051600181527f7f26b83ff96e1f2b6a682f133852f6798a09c465da95921460cefb38474024989060200160405180910390a15b505050505050505050565b6033546001600160a01b031690565b6000918252610103602090815260408084206001600160a01b0393909316845291905290205460ff1690565b6116b061218f565b60ca546040516370a0823160e01b81526113e6916001916001600160a01b03909116906370a08231906116e7903090600401614ef9565b602060405180830381865afa158015611704573d6000803e3d6000fd5b505050506040513d601f19601f820116820180604052508101906117289190615500565b60ca546001600160a01b031691906121e8565b61ffff811660009081526066602052604081208054606092919061175e90615519565b80601f016020809104026020016040519081016040528092919081815260200182805461178a90615519565b80156117d75780601f106117ac576101008083540402835291602001916117d7565b820191906000526020600020905b8154815290600101906020018083116117ba57829003601f168201915b50505050509050805160000361182f5760405162461bcd60e51b815260206004820152601d60248201527f4c7a4170703a206e6f20747275737465642070617468207265636f72640000006044820152606401610b64565b610f6960006014835161184291906155c0565b839190612f82565b611852612130565b818130604051602001611867939291906156f3565b60408051601f1981840301815291815261ffff8516600090815260666020522090611892908261576f565b507f8c0400cfe2d1199b1a725c78960bcc2a344d869b80590d0f2bd005db15a572ce8383836040516118c69392919061558c565b60405180910390a1505050565b60ce546001600160a01b03163314806118fb575060cd5461010090046001600160a01b031633145b6119465760405162461bcd60e51b815260206004820152601c60248201527b53674272696467653a3a526f757465724f724272696467654f6e6c7960201b6044820152606401610b64565b600061195486826014612f82565b6040516020016119649190615828565b60405160208183030381529060405261197c90615844565b6040805185815260609290921c6020830181905292506001600160a01b038616917f92073a89a07a000083eb8b2575fc15e7bb936efe55d00727d6942a796d7211a7910160405180910390a250505050505050565b6119d961308f565b610d746119e46130fe565b613130565b6119f1612130565b606980546001600160a01b0319166001600160a01b0383161790556040517f5db758e995a17ec1ad84bdef7e8c3293a0bd6179bcce400dff5d4c3d87db726b90610e98908390614ef9565b60ca546040516370a0823160e01b81526000916001600160a01b0316906370a0823190611a6d903090600401614ef9565b602060405180830381865afa158015611a8a573d6000803e3d6000fd5b505050506040513d601f19601f82011682018060405250810190611aae9190615500565b905090565b611abb612130565b60c980546001600160a01b0319166001600160a01b0392909216919091179055565b611ae5612130565b6065546040516332fb62e760e21b81526001600160a01b039091169063cbed8b9c90611b1d908890889088908890889060040161587b565b600060405180830381600087803b158015611b3757600080fd5b505af1158015611662573d6000803e3d6000fd5b61ffff86166000908152609760205260408082209051611b6e9088908890615553565b90815260408051602092819003830190206001600160401b03871660009081529252902054905080611bee5760405162461bcd60e51b815260206004820152602360248201527f4e6f6e626c6f636b696e674c7a4170703a206e6f2073746f726564206d65737360448201526261676560e81b6064820152608401610b64565b808383604051611bff929190615553565b604051809103902014611c5e5760405162461bcd60e51b815260206004820152602160248201527f4e6f6e626c6f636b696e674c7a4170703a20696e76616c6964207061796c6f616044820152601960fa1b6064820152608401610b64565b61ffff87166000908152609760205260408082209051611c819089908990615553565b90815260408051602092819003830181206001600160401b038916600090815290845282902093909355601f88018290048202830182019052868252611d19918991899089908190840183828082843760009201919091525050604080516020601f8a018190048102820181019092528881528a935091508890889081908401838280828437600092019190915250612b0d92505050565b7fc264d91f3adc5588250e1551f547752ca0cfa8f6b530d243b9f9f4cab10ea8e58787878785604051611d509594939291906158a9565b60405180910390a150505050505050565b611d6a82610d77565b611d738161223e565b610dea83836122cf565b611d8561308f565b61013580546001600160a01b0319166001600160a01b0392909216919091179055565b611db0612130565b60008111611df85760405162461bcd60e51b81526020600482015260156024820152744c7a4170703a20696e76616c6964206d696e47617360581b6044820152606401610b64565b61ffff83811660008181526067602090815260408083209487168084529482529182902085905581519283528201929092529081018290527f9d5c7c0b934da8fefa9c7760c98383778a12dfbfc0c3b3106518f43fb9508ac0906060016118c6565b611e62612130565b600090815260cf60205260409020805460ff19169055565b611e82612130565b61ffff83166000908152606660205260409020611ea08284836158e4565b507ffa41487ad5d6728f0b19276fa1eddc16558578f5109fc39d2dc33c3230470dab8383836040516118c69392919061558c565b6101375460009060ff16611efb57604051630570e54b60e51b815260040160405180910390fd5b61013654611f07611a3c565b611f17611f126131bc565b6131f0565b611f2191906155d3565b611aae91906155d3565b6000805160206162e7833981519152611f438161223e565b5050610136555050565b611f5561218f565b60cc55565b611f62612130565b6001600160a01b038116611fc75760405162461bcd60e51b815260206004820152602660248201527f4f776e61626c653a206e6577206f776e657220697320746865207a65726f206160448201526564647265737360d01b6064820152608401610b64565b610d7481612c23565b606554604051633d7b2f6f60e21b815261ffff808716600483015285166024820152306044820152606481018390526060916001600160a01b03169063f5ecbdbc90608401600060405180830381865afa158015612032573d6000803e3d6000fd5b505050506040513d6000823e601f3d908101601f1916820160405261205a919081019061599d565b90505b949350505050565b6040517b0ca2ba3432b932bab69029b4b3b732b21026b2b9b9b0b3b29d05199960211b6020820152603c8101829052600090605c01604051602081830303815290604052805190602001209050919050565b60008061211a5a60966366ad5c8a60e01b898989896040516024016120df9493929190615a0a565b60408051601f198184030181529190526020810180516001600160e01b03166001600160e01b0319909316929092179091523092919061327d565b9150915081610be357610be38686868685613309565b3361213961166d565b6001600160a01b0316146113e65760405162461bcd60e51b815260206004820181905260248201527f4f776e61626c653a2063616c6c6572206973206e6f7420746865206f776e65726044820152606401610b64565b60c9546001600160a01b031633146113e65760405162461bcd60e51b815260206004820152601c60248201527b10985cd954dd1c985d1959de4e8e93db9b1e54dd1c985d1959da5cdd60221b6044820152606401610b64565b610dea8363a9059cbb60e01b8484604051602401612207929190615a48565b60408051601f198184030181529190526020810180516001600160e01b03166001600160e01b0319909316929092179091526133a6565b610d74813361347b565b612252828261167c565b610e69576000828152610103602090815260408083206001600160a01b03851684529091529020805460ff1916600117905561228b3390565b6001600160a01b0316816001600160a01b0316837f2f8788117e7eff1d82e926ec794901d17c78024a50270940304540a733656f0d60405160405180910390a45050565b6122d9828261167c565b15610e69576000828152610103602090815260408083206001600160a01b0385168085529252808320805460ff1916905551339285917ff6391f5c32d9c69d2a47ea670b442974b53935d1edc7fd64eb21e047a839171b9190a45050565b60cd5460ff16156123455750565b61234d6134d4565b6000612357611a3c565b90506000828211156123705761236d83836155c0565b90505b8015610dea5760408051600280825260608201835260009260208301908036833701905050905081816000815181106123ab576123ab615a61565b6020026020010181815250506000816001815181106123cc576123cc615a61565b602090810291909101015260cc5460405163f9273ffb60e01b8152600091612710916000805160206162c78339815191529063f9273ffb906124179030908890600190600401615ab2565b602060405180830381865afa158015612434573d6000803e3d6000fd5b505050506040513d601f19601f820116820180604052508101906124589190615500565b6124629190615ae8565b61246c9190615b15565b604051634d49e87d60e01b81529091506000805160206162c783398151915290634d49e87d906124a490859085904290600401615b29565b6020604051808303816000875af11580156124c3573d6000803e3d6000fd5b505050506040513d601f19601f820116820180604052508101906124e79190615500565b506040516370a0823160e01b815260009073b67c014fa700e69681a673876eb8bafaa36bff71906370a0823190612522903090600401614ef9565b602060405180830381865afa15801561253f573d6000803e3d6000fd5b505050506040513d601f19601f820116820180604052508101906125639190615500565b60405163534a7e1d60e11b8152600481018290529091506000805160206162a78339815191529063a694fc3a90602401600060405180830381600087803b1580156125ad57600080fd5b505af11580156125c1573d6000803e3d6000fd5b50505050505050505050565b60006125d76112a2565b905060006125e482612065565b60c9549091506001600160a01b03166125fd82856135b6565b6001600160a01b031614610dea5760405162461bcd60e51b815260206004820152601e60248201527f4261736553747261746567793a3a496e76616c69645369676e617475726500006044820152606401610b64565b600061265d6134d4565b6000612667611a3c565b604051632e1a7d4d60e01b8152600481018290529091506000805160206162a783398151915290632e1a7d4d90602401600060405180830381600087803b1580156126b157600080fd5b505af11580156126c5573d6000803e3d6000fd5b50506040516301f1d0ab60e51b81526000805160206162c78339815191529250633e3a1560915061270190849060009081904290600401615b4e565b6020604051808303816000875af1158015612720573d6000803e3d6000fd5b505050506040513d601f19601f820116820180604052508101906127449190615500565b5060ca546040516370a0823160e01b81526001600160a01b03909116906370a0823190612775903090600401614ef9565b602060405180830381865afa158015612792573d6000803e3d6000fd5b505050506040513d601f19601f820116820180604052508101906127b69190615500565b91505090565b6000806000806127ca611ed4565b90508581106127e8576127dd86826155c0565b9350600092506127f9565b600093506127f681876155c0565b92505b61280b61280685876155d3565b6135da565b505060ca546040516370a0823160e01b81526000916001600160a01b0316906370a082319061283e903090600401614ef9565b602060405180830381865afa15801561285b573d6000803e3d6000fd5b505050506040513d601f19601f8201168201806040525081019061287f9190615500565b905084811161289457809450600092506128aa565b6128a76128a186836155c0565b8761370f565b92505b50509250925092565b60cd54604051630dc6346160e01b815260009161010090046001600160a01b031690630dc63461906128ed90879087908790600401615b6c565b602060405180830381865afa15801561290a573d6000803e3d6000fd5b505050506040513d601f19601f8201168201806040525081019061292e9190615500565b60cd5460ca54604051633920455b60e11b81529293506001600160a01b036101009092048216926372408ab6928592612974929116908a908a908a908a90600401615b9a565b6000604051808303818588803b1580156125ad57600080fd5b60cb5460408051606083811b6001600160601b03199081166020840152309182901b16603483015282516028818403018152604890920190925260655490926000926001600160a01b03909216916340a7bb109161ffff600160a01b909104169086856129f8613725565b6040518663ffffffff1660e01b8152600401612a18959493929190615bd7565b6040805180830381865afa158015612a34573d6000803e3d6000fd5b505050506040513d601f19601f82011682018060405250810190612a589190615c2b565b50905080471015612a845760405162fae2d560e21b815260048101829052476024820152604401610b64565b60655460cb546001600160a01b039091169063c5803100908390600160a01b900461ffff1685873080612ab5613725565b6040518863ffffffff1660e01b8152600401612ad696959493929190615c4f565b6000604051808303818588803b158015612aef57600080fd5b505af1158015612b03573d6000803e3d6000fd5b5050505050505050565b60cb5461ffff858116600160a01b9092041614612b775760405162461bcd60e51b815260206004820152602260248201527f4261736553747261746567793a3a5661756c74436861696e49644d69736d61746044820152610c6d60f31b6064820152608401610b64565b6000612b8584826014612f82565b604051602001612b959190615828565b604051602081830303815290604052612bad90615844565b60cb5460609190911c91506001600160a01b03168114612c1a5760405162461bcd60e51b815260206004820152602260248201527f4261736553747261746567793a3a5661756c74416464726573734d69736d61746044820152610c6d60f31b6064820152608401610b64565b610c8882613755565b603380546001600160a01b038381166001600160a01b0319831681179093556040519116919082907f8be0079c531659141344cd1fd0a4f28419497f9722a3daafe3b4186f6b6457e090600090a35050565b6001600160a01b03163b151590565b600054610100900460ff166113e65760405162461bcd60e51b8152600401610b6490615cb6565b600054610100900460ff16612cd25760405162461bcd60e51b8152600401610b6490615cb6565b612cdb89613876565b60c980546001600160a01b03808b166001600160a01b03199283161790925560ca80548a8416908316811790915560cb8054938a1661ffff8a16600160a01b029093166001600160b01b0319909416939093179190911790915560cc8290556040805163313ce56760e01b8152905163313ce567916004808201926020929091908290030181865afa158015612d75573d6000803e3d6000fd5b505050506040513d601f19601f82011682018060405250810190612d999190615d01565b60cb8054600060d05562ffffff60b01b1916600160c01b60ff939093169290920261ffff60b01b191691909117600160b01b61ffff87160217905560cd8054610100600160a81b0319166101006001600160a01b03868116919091029190911790915560ce80546001600160a01b03191684831617905560ca5460405163095ea7b360e01b815291169063095ea7b390612e3b90869060001990600401615a48565b6020604051808303816000875af1158015612e5a573d6000803e3d6000fd5b505050506040513d601f19601f820116820180604052508101906125c19190615d24565b801580612ef85750604051636eb1769f60e11b81523060048201526001600160a01b03838116602483015284169063dd62ed3e90604401602060405180830381865afa158015612ed2573d6000803e3d6000fd5b505050506040513d601f19601f82011682018060405250810190612ef69190615500565b155b612f635760405162461bcd60e51b815260206004820152603660248201527f5361666545524332303a20617070726f76652066726f6d206e6f6e2d7a65726f60448201527520746f206e6f6e2d7a65726f20616c6c6f77616e636560501b6064820152608401610b64565b610dea8363095ea7b360e01b8484604051602401612207929190615a48565b606081612f9081601f6155d3565b1015612fcf5760405162461bcd60e51b815260206004820152600e60248201526d736c6963655f6f766572666c6f7760901b6044820152606401610b64565b612fd982846155d3565b8451101561301d5760405162461bcd60e51b8152602060048201526011602482015270736c6963655f6f75744f66426f756e647360781b6044820152606401610b64565b60608215801561303c5760405191506000825260208201604052613086565b6040519150601f8416801560200281840101858101878315602002848b0101015b8183101561307557805183526020928301920161305d565b5050858452601f01601f1916604052505b50949350505050565b60c9546001600160a01b03163314806130a757503330145b6113e65760405162461bcd60e51b815260206004820152602260248201527f4261736553747261746567793a3a4f6e6c79537472617465676973744f725365604482015261363360f11b6064820152608401610b64565b6040516246613160e11b81526000906000805160206162a783398151915290628cc26290611a6d903090600401614ef9565b60ca546000906131a89073c31e54c7a869b9fcbecc14363cf510d1c41fa443907382af49447d8a07e3bd95bd0d56f35241523fbab1906001600160a01b03166131a37344ca2be2bd6a7203ccdbb63eed8382274f737a1573c5102fe9359fd9a28f877a67e36b0f050d81a3cc84896138ae565b6138ae565b610137805460ff1916600117905592915050565b6040516370a0823160e01b81526000906000805160206162a7833981519152906370a0823190611a6d903090600401614ef9565b60008160000361320257506000919050565b604051630262267d60e61b815230600482015260248101839052600060448201526000805160206162c7833981519152906398899f4090606401602060405180830381865afa158015613259573d6000803e3d6000fd5b505050506040513d601f19601f82011682018060405250810190610c1c9190615500565b6000606060008060008661ffff166001600160401b038111156132a2576132a26150ad565b6040519080825280601f01601f1916602001820160405280156132cc576020820181803683370190505b50905060008087516020890160008d8df191503d9250868311156132ee578692505b828152826000602083013e9093509150505b94509492505050565b8180519060200120609760008761ffff1661ffff1681526020019081526020016000208560405161333a9190615828565b9081526040805191829003602090810183206001600160401b0388166000908152915220919091557fe183f33de2837795525b4792ca4cd60535bd77c53b7e7030060bfcf5734d6b0c906133979087908790879087908790615d41565b60405180910390a15050505050565b60006133fb826040518060400160405280602081526020017f5361666545524332303a206c6f772d6c6576656c2063616c6c206661696c6564815250856001600160a01b0316613a019092919063ffffffff16565b905080516000148061341c57508080602001905181019061341c9190615d24565b610dea5760405162461bcd60e51b815260206004820152602a60248201527f5361666545524332303a204552433230206f7065726174696f6e20646964206e6044820152691bdd081cdd58d8d9595960b21b6064820152608401610b64565b613485828261167c565b610e695761349281613a10565b61349d836020613a22565b6040516020016134ae929190615d93565b60408051601f198184030181529082905262461bcd60e51b8252610b6491600401614f5d565b6000805160206162a78339815191526001600160a01b0316633d18b9126040518163ffffffff1660e01b8152600401600060405180830381600087803b15801561351d57600080fd5b505af1158015613531573d6000803e3d6000fd5b50506040516370a0823160e01b81526113e6925073c5102fe9359fd9a28f877a67e36b0f050d81a3cc91506370a0823190613570903090600401614ef9565b602060405180830381865afa15801561358d573d6000803e3d6000fd5b505050506040513d601f19601f820116820180604052508101906135b19190615500565b613bbd565b60008060006135c58585613d57565b915091506135d281613d9c565b509392505050565b60ca546040516370a0823160e01b8152600091829182916001600160a01b0316906370a082319061360f903090600401614ef9565b602060405180830381865afa15801561362c573d6000803e3d6000fd5b505050506040513d601f19601f820116820180604052508101906136509190615500565b905083811061366457509192600092509050565b61367661367182866155c0565b613ee1565b60ca546040516370a0823160e01b81526001600160a01b03909116906370a08231906136a6903090600401614ef9565b602060405180830381865afa1580156136c3573d6000803e3d6000fd5b505050506040513d601f19601f820116820180604052508101906136e79190615500565b905080841115613705579150816136fe81856155c0565b9150613709565b8392505b50915091565b600081831061371e5781610f69565b5090919050565b60408051600160f01b6020820152620f424060228083019190915282518083039091018152604290910190915290565b60008180602001905181019061376b9190615e02565b90506003816004811115613781576137816155ff565b036137cc5760008280602001905181019061379c9190615e23565b9150506137ac8160000151612337565b8051604051908152600080516020616307833981519152906020016118c6565b60008160048111156137e0576137e06155ff565b03613807576000828060200190518101906137fb9190615e66565b915050610dea81613f37565b600481600481111561381b5761381b6155ff565b03610e69576000828060200190518101906138369190615ed1565b9150506138468160000151614061565b80516040517f7c9a2d2ec51230d7dbed27f113a325b7e20aef7b049e68b2339257b5edff5bea916118c691614ef9565b600054610100900460ff1661389d5760405162461bcd60e51b8152600401610b6490615cb6565b6138a56140a0565b610d74816140d0565b610137805460ff1916905561013554604051634d1dde7b60e01b81526001600160a01b0385811660048301528481166024830152604482018490526000921690634d1dde7b90606401600060405180830381600087803b15801561391157600080fd5b505af1925050508015613922575060015b6139b2573d808015613950576040519150601f19603f3d011682016040523d82523d6000602084013e613955565b606091505b50600061396487878787614119565b61013681905560405190915061397b908390615828565b604051908190038120907faf2dd20a54732d7c0bcd33221cf4894e12eb02888fbdabf5c3705562ffe4cbfc90600090a250506139f4565b81836001600160a01b0316856001600160a01b03167fe47a58d87426c749b0bf81083c60c31e2ec1cfae38d60931162d521cc985007060405160405180910390a45b5061013654949350505050565b606061205d8484600085614141565b6060610c1c6001600160a01b03831660145b60606000613a31836002615ae8565b613a3c9060026155d3565b6001600160401b03811115613a5357613a536150ad565b6040519080825280601f01601f191660200182016040528015613a7d576020820181803683370190505b509050600360fc1b81600081518110613a9857613a98615a61565b60200101906001600160f81b031916908160001a905350600f60fb1b81600181518110613ac757613ac7615a61565b60200101906001600160f81b031916908160001a9053506000613aeb846002615ae8565b613af69060016155d3565b90505b6001811115613b6e576f181899199a1a9b1b9c1cb0b131b232b360811b85600f1660108110613b2a57613b2a615a61565b1a60f81b828281518110613b4057613b40615a61565b60200101906001600160f81b031916908160001a90535060049490941c93613b6781615f1f565b9050613af9565b508315610f695760405162461bcd60e51b815260206004820181905260248201527f537472696e67733a20686578206c656e67746820696e73756666696369656e746044820152606401610b64565b80600003613bc85750565b600061271060cc546064613bdc9190615ae8565b613be69190615b15565b610135546040516310cabd1d60e01b815273c5102fe9359fd9a28f877a67e36b0f050d81a3cc600482015273ff970a61a04b1ca14834a43f5de4533ebddb5cc860248201526044810185905260ff831660648201529192506001600160a01b0316906310cabd1d90608401600060405180830381600087803b158015613c6b57600080fd5b505af1925050508015613c7c575060015b613cfc573d808015613caa576040519150601f19603f3d011682016040523d82523d6000602084013e613caf565b606091505b50613cb98361421c565b80604051613cc79190615828565b604051908190038120907fab2169d52de19835827d46106e22dfb1c4261618a79928c57f4b4b0c2cfe4f9390600090a2505050565b604051829073ff970a61a04b1ca14834a43f5de4533ebddb5cc89073c5102fe9359fd9a28f877a67e36b0f050d81a3cc907fea368a40e9570069bb8e6511d668293ad2e1f03b0d982431fd223de9f3b70ca690600090a45050565b6000808251604103613d8d5760208301516040840151606085015160001a613d818782858561439a565b94509450505050613d95565b506000905060025b9250929050565b6000816004811115613db057613db06155ff565b03613db85750565b6001816004811115613dcc57613dcc6155ff565b03613e145760405162461bcd60e51b815260206004820152601860248201527745434453413a20696e76616c6964207369676e617475726560401b6044820152606401610b64565b6002816004811115613e2857613e286155ff565b03613e755760405162461bcd60e51b815260206004820152601f60248201527f45434453413a20696e76616c6964207369676e6174757265206c656e677468006044820152606401610b64565b6003816004811115613e8957613e896155ff565b03610d745760405162461bcd60e51b815260206004820152602260248201527f45434453413a20696e76616c6964207369676e6174757265202773272076616c604482015261756560f01b6064820152608401610b64565b80600003613eec5750565b80613ef86119e46130fe565b10613f0557610d746134d4565b6000613f2c613f126131bc565b613f1d6119e46130fe565b613f2790856155c0565b61370f565b9050610e6981614444565b602080820151600090815260cf909152604090205460ff1615613f9c5760405162461bcd60e51b815260206004820152601e60248201527f4261736553747261746567793a3a416c726561647957697468647261776e00006044820152606401610b64565b600080613fac83600001516135da565b91509150600060016040518060800160405280306001600160a01b031681526020018581526020018481526020018660200151815250604051602001613ff3929190615f36565b60408051601f19818403018152919052905082156140345760cb5461402f90849061ffff600160a01b820416906001600160a01b0316846128b3565b61403d565b61403d8161298d565b505050602090810151600090815260cf90915260409020805460ff19166001179055565b61406a816145f9565b60ca546040516370a0823160e01b8152610d749183916001600160a01b03909116906370a08231906116e7903090600401614ef9565b600054610100900460ff166140c75760405162461bcd60e51b8152600401610b6490615cb6565b6113e633612c23565b600054610100900460ff166140f75760405162461bcd60e51b8152600401610b6490615cb6565b606580546001600160a01b0319166001600160a01b0392909216919091179055565b6000806141288661070861461d565b50905061413781848787614866565b9695505050505050565b6060824710156141a25760405162461bcd60e51b815260206004820152602660248201527f416464726573733a20696e73756666696369656e742062616c616e636520666f6044820152651c8818d85b1b60d21b6064820152608401610b64565b600080866001600160a01b031685876040516141be9190615828565b60006040518083038185875af1925050503d80600081146141fb576040519150601f19603f3d011682016040523d82523d6000602084013e614200565b606091505b509150915061421187838387614962565b979650505050505050565b6142576040518060a001604052806060815260200160006001600160a01b031681526020016000815260200160008152602001600081525090565b604080517331440bfa4d67f668a3e1de99f8dac3c1436068f360621b602082015261017760eb1b60348201527382af49447d8a07e3bd95bd0d56f35241523fbab160601b6037820152607d60ea1b604b8201526001720d1eb3cbf69c6bd6f96b78144375982844946760631b0319604e82015281516042818303018152606290910190915260006142e784613130565b8284523060208501524260408501526060840185905260cc54909150612710906143119083615ae8565b61431b9190615b15565b608084015260405163c04b8d5960e01b815273e592427a0aece92de3edee1f18e0157c058615649063c04b8d5990614357908690600401615f78565b6020604051808303816000875af1158015614376573d6000803e3d6000fd5b505050506040513d601f19601f82011682018060405250810190610c889190615500565b6000806fa2a8918ca85bafe22016d0b997e4df60600160ff1b038311156143c75750600090506003613300565b6000600187878787604051600081526020016040526040516143ec9493929190615b4e565b6020604051602081039080840390855afa15801561440e573d6000803e3d6000fd5b5050604051601f1901519150506001600160a01b03811661443757600060019250925050613300565b9660009650945050505050565b61444c6134d4565b604080516002808252606082018352600092602083019080368337019050509050818160008151811061448157614481615a61565b6020026020010181815250506000816001815181106144a2576144a2615a61565b602090810291909101015260405163f9273ffb60e01b81526000906000805160206162c78339815191529063f9273ffb906144e590309086908690600401615ab2565b602060405180830381865afa158015614502573d6000803e3d6000fd5b505050506040513d601f19601f820116820180604052508101906145269190615500565b9050614530611a3c565b8111156145425761453f611a3c565b90505b604051632e1a7d4d60e01b8152600481018290526000805160206162a783398151915290632e1a7d4d90602401600060405180830381600087803b15801561458957600080fd5b505af115801561459d573d6000803e3d6000fd5b50505050600061271060cc54856145b49190615ae8565b6145be9190615b15565b6040516301f1d0ab60e51b81529091506000805160206162c783398151915290633e3a15609061435790859060009086904290600401615b4e565b6000614603612653565b60ca54909150610e69906001600160a01b031683836121e8565b6000808263ffffffff1660000361465b5760405162461bcd60e51b8152602060048201526002602482015261042560f41b6044820152606401610b64565b604080516002808252606082018352600092602083019080368337019050509050838160008151811061469057614690615a61565b602002602001019063ffffffff16908163ffffffff16815250506000816001815181106146bf576146bf615a61565b602002602001019063ffffffff16908163ffffffff1681525050600080866001600160a01b031663883bdbfd846040518263ffffffff1660e01b81526004016147089190615fd0565b600060405180830381865afa158015614725573d6000803e3d6000fd5b505050506040513d6000823e601f3d908101601f1916820160405261474d91908101906160ac565b9150915060008260008151811061476657614766615a61565b60200260200101518360018151811061478157614781615a61565b60200260200101516147939190616177565b90506000826000815181106147aa576147aa615a61565b6020026020010151836001815181106147c5576147c5615a61565b60200260200101516147d791906161a4565b90506147e963ffffffff8916836161cb565b965060008260060b12801561480f575061480963ffffffff891683616209565b60060b15155b15614822578661481e8161622b565b9750505b600061483b6001600160a01b0363ffffffff8b1661624e565b9050614857600160201b600160c01b03602084901b1682616280565b96505050505050509250929050565b600080614872866149d9565b90506001600160801b036001600160a01b038216116148f85760006148a06001600160a01b03831680615ae8565b9050836001600160a01b0316856001600160a01b0316106148d8576148d3600160c01b876001600160801b031683614cf1565b6148f0565b6148f081876001600160801b0316600160c01b614cf1565b925050613086565b60006149126001600160a01b03831680600160401b614cf1565b9050836001600160a01b0316856001600160a01b03161061494a57614945600160801b876001600160801b031683614cf1565b614211565b61421181876001600160801b0316600160801b614cf1565b606083156149cf5782516000036149c85761497c85612c75565b6149c85760405162461bcd60e51b815260206004820152601d60248201527f416464726573733a2063616c6c20746f206e6f6e2d636f6e74726163740000006044820152606401610b64565b508161205d565b61205d8383614da3565b60008060008360020b126149f0578260020b6149f8565b8260020b6000035b9050620d89e8811115614a1e576040516315e4079d60e11b815260040160405180910390fd5b600081600116600003614a3557600160801b614a47565b6ffffcb933bd6fad37aa2d162d1a5940015b6001600160881b031690506002821615614a71576ffff97272373d413259a46990580e213a0260801c5b6004821615614a90576ffff2e50f5f656932ef12357cf3c7fdcc0260801c5b6008821615614aaf576fffe5caca7e10e4e61c3624eaa0941cd00260801c5b6010821615614ace576fffcb9843d60f6159c9db58835c9266440260801c5b6020821615614aed576fff973b41fa98c081472e6896dfb254c00260801c5b6040821615614b0c576fff2ea16466c96a3843ec78b326b528610260801c5b6080821615614b2b576ffe5dee046a99a2a811c461f1969c30530260801c5b610100821615614b4b576ffcbe86c7900a88aedcffc83b479aa3a40260801c5b610200821615614b6b576ff987a7253ac413176f2b074cf7815e540260801c5b610400821615614b8b576ff3392b0822b70005940c7a398e4b70f30260801c5b610800821615614bab576fe7159475a2c29b7443b29c7fa6e889d90260801c5b611000821615614bcb576fd097f3bdfd2022b8845ad8f792aa58250260801c5b612000821615614beb576fa9f746462d870fdf8a65dc1f90e061e50260801c5b614000821615614c0b576f70d869a156d2a1b890bb3df62baf32f70260801c5b618000821615614c2b576f31be135f97d08fd981231505542fcfa60260801c5b62010000821615614c4c576f09aa508b5b7a84e1c677de54f3e99bc90260801c5b62020000821615614c6c576e5d6af8dedb81196699c329225ee6040260801c5b62040000821615614c8b576d2216e584f5fa1ea926041bedfe980260801c5b62080000821615614ca8576b048a170391f7dc42444e8fa20260801c5b60008460020b1315614cc9578060001981614cc557614cc5615aff565b0490505b600160201b810615614cdc576001614cdf565b60005b60ff16602082901c0192505050919050565b6000808060001985870985870292508281108382030391505080600003614d2a5760008411614d1f57600080fd5b508290049050610f69565b808411614d3657600080fd5b6000848688096000868103871696879004966002600389028118808a02820302808a02820302808a02820302808a02820302808a02820302808a02909103029181900381900460010186841190950394909402919094039290920491909117919091029150509392505050565b815115614db35781518083602001fd5b8060405162461bcd60e51b8152600401610b649190614f5d565b803561ffff81168114614ddf57600080fd5b919050565b60008083601f840112614df657600080fd5b5081356001600160401b03811115614e0d57600080fd5b602083019150836020828501011115613d9557600080fd5b80356001600160401b0381168114614ddf57600080fd5b60008060008060008060808789031215614e5557600080fd5b614e5e87614dcd565b955060208701356001600160401b0380821115614e7a57600080fd5b614e868a838b01614de4565b9097509550859150614e9a60408a01614e25565b94506060890135915080821115614eb057600080fd5b50614ebd89828a01614de4565b979a9699509497509295939492505050565b600060208284031215614ee157600080fd5b81356001600160e01b031981168114610f6957600080fd5b6001600160a01b0391909116815260200190565b60005b83811015614f28578181015183820152602001614f10565b50506000910152565b60008151808452614f49816020860160208601614f0d565b601f01601f19169290920160200192915050565b602081526000610f696020830184614f31565b600060208284031215614f8257600080fd5b610f6982614dcd565b60008060408385031215614f9e57600080fd5b614fa783614dcd565b946020939093013593505050565b6001600160a01b0381168114610d7457600080fd5b600060208284031215614fdc57600080fd5b8135610f6981614fb5565b600060208284031215614ff957600080fd5b5035919050565b6000806040838503121561501357600080fd5b82359150602083013561502581614fb5565b809150509250929050565b60008060006040848603121561504557600080fd5b61504e84614dcd565b925060208401356001600160401b0381111561506957600080fd5b61507586828701614de4565b9497909650939450505050565b8015158114610d7457600080fd5b6000602082840312156150a257600080fd5b8135610f6981615082565b634e487b7160e01b600052604160045260246000fd5b604051602081016001600160401b03811182821017156150e5576150e56150ad565b60405290565b604051601f8201601f191681016001600160401b0381118282101715615113576151136150ad565b604052919050565b60006001600160401b03821115615134576151346150ad565b50601f01601f191660200190565b600082601f83011261515357600080fd5b81356151666151618261511b565b6150eb565b81815284602083860101111561517b57600080fd5b816020850160208301376000918101602001919091529392505050565b600080600080600060a086880312156151b057600080fd5b8535945060208601359350604086013592506060860135915060808601356001600160401b038111156151e257600080fd5b6151ee88828901615142565b9150509295509295909350565b60008060006060848603121561521057600080fd5b61521984614dcd565b925060208401356001600160401b0381111561523457600080fd5b61524086828701615142565b92505061524f60408501614e25565b90509250925092565b600080600080600080600080610100898b03121561527557600080fd5b883561528081614fb5565b9750602089013561529081614fb5565b965060408901356152a081614fb5565b955060608901356152b081614fb5565b94506152be60808a01614dcd565b935060a08901356152ce81614fb5565b925060c08901356152de81614fb5565b8092505060e089013590509295985092959890939650565b6000806040838503121561530957600080fd5b61531283614dcd565b915061532060208401614dcd565b90509250929050565b60008060008060008060c0878903121561534257600080fd5b61534b87614dcd565b955060208701356001600160401b038082111561536757600080fd5b6153738a838b01615142565b9650604089013595506060890135915061538c82614fb5565b9093506080880135925060a088013590808211156153a957600080fd5b506153b689828a01615142565b9150509295509295509295565b6000806000806000608086880312156153db57600080fd5b6153e486614dcd565b94506153f260208701614dcd565b93506040860135925060608601356001600160401b0381111561541457600080fd5b61542088828901614de4565b969995985093965092949392505050565b60008060006060848603121561544657600080fd5b61544f84614dcd565b925061545d60208501614dcd565b9150604084013590509250925092565b6000806000806080858703121561548357600080fd5b843561548e81614fb5565b9350602085013561549e81614fb5565b93969395505050506040820135916060013590565b600080600080608085870312156154c957600080fd5b6154d285614dcd565b93506154e060208601614dcd565b925060408501356154f081614fb5565b9396929550929360600135925050565b60006020828403121561551257600080fd5b5051919050565b600181811c9082168061552d57607f821691505b60208210810361554d57634e487b7160e01b600052602260045260246000fd5b50919050565b8183823760009101908152919050565b81835281816020850137506000828201602090810191909152601f909101601f19169091010190565b61ffff8416815260406020820152600061205a604083018486615563565b634e487b7160e01b600052601160045260246000fd5b81810381811115610c1c57610c1c6155aa565b80820180821115610c1c57610c1c6155aa565b6000600182016155f8576155f86155aa565b5060010190565b634e487b7160e01b600052602160045260246000fd5b6005811061563357634e487b7160e01b600052602160045260246000fd5b9052565b6156418184615615565b6040602082015261565e6040820183516001600160a01b03169052565b6020820151606082015260408201516080820152606082015160a0820152608082015160c082015260a082015160e0820152600060c0830151610100818185015260e085015191506101208281860152818601519250610140915082828601528086015192505061016082818601528186015192508061018086015250506156ea6101a0840182614f31565b95945050505050565b8284823760609190911b6001600160601b0319169101908152601401919050565b601f821115610dea57600081815260208120601f850160051c8101602086101561573b5750805b601f850160051c820191505b81811015610be357828155600101615747565b600019600383901b1c191660019190911b1790565b81516001600160401b03811115615788576157886150ad565b61579c816157968454615519565b84615714565b602080601f8311600181146157cb57600084156157b95750858301515b6157c3858261575a565b865550610be3565b600085815260208120601f198616915b828110156157fa578886015182559484019460019091019084016157db565b50858210156158185787850151600019600388901b60f8161c191681555b5050505050600190811b01905550565b6000825161583a818460208701614f0d565b9190910192915050565b805160208201516001600160601b031980821692919060148310156158735780818460140360031b1b83161693505b505050919050565b600061ffff808816835280871660208401525084604083015260806060830152614211608083018486615563565b61ffff861681526080602082015260006158c7608083018688615563565b6001600160401b0394909416604083015250606001529392505050565b6001600160401b038311156158fb576158fb6150ad565b61590f836159098354615519565b83615714565b6000601f84116001811461593d576000851561592b5750838201355b615935868261575a565b845550610c88565b600083815260209020601f19861690835b8281101561596e578685013582556020948501946001909201910161594e565b508682101561598b5760001960f88860031b161c19848701351681555b505060018560011b0183555050505050565b6000602082840312156159af57600080fd5b81516001600160401b038111156159c557600080fd5b8201601f810184136159d657600080fd5b80516159e46151618261511b565b8181528560208385010111156159f957600080fd5b6156ea826020830160208601614f0d565b61ffff85168152608060208201526000615a276080830186614f31565b6001600160401b038516604084015282810360608401526142118185614f31565b6001600160a01b03929092168252602082015260400190565b634e487b7160e01b600052603260045260246000fd5b600081518084526020808501945080840160005b83811015615aa757815187529582019590820190600101615a8b565b509495945050505050565b6001600160a01b0384168152606060208201819052600090615ad690830185615a77565b90508215156040830152949350505050565b8082028115828204841417610c1c57610c1c6155aa565b634e487b7160e01b600052601260045260246000fd5b600082615b2457615b24615aff565b500490565b606081526000615b3c6060830186615a77565b60208301949094525060400152919050565b93845260ff9290921660208401526040830152606082015260800190565b61ffff841681526001600160a01b038316602082015260606040820181905260009061205a90830184614f31565b6001600160a01b0386811682526020820186905261ffff851660408301528316606082015260a06080820181905260009061421190830184614f31565b61ffff861681526001600160a01b038516602082015260a060408201819052600090615c0590830186614f31565b84151560608401528281036080840152615c1f8185614f31565b98975050505050505050565b60008060408385031215615c3e57600080fd5b505080516020909101519092909150565b61ffff8716815260c060208201526000615c6c60c0830188614f31565b8281036040840152615c7e8188614f31565b6001600160a01b0387811660608601528616608085015283810360a08501529050615ca98185614f31565b9998505050505050505050565b6020808252602b908201527f496e697469616c697a61626c653a20636f6e7472616374206973206e6f74206960408201526a6e697469616c697a696e6760a81b606082015260800190565b600060208284031215615d1357600080fd5b815160ff81168114610f6957600080fd5b600060208284031215615d3657600080fd5b8151610f6981615082565b61ffff8616815260a060208201526000615d5e60a0830187614f31565b6001600160401b03861660408401528281036060840152615d7f8186614f31565b90508281036080840152615c1f8185614f31565b76020b1b1b2b9b9a1b7b73a3937b61d1030b1b1b7bab73a1604d1b815260008351615dc5816017850160208801614f0d565b7001034b99036b4b9b9b4b733903937b6329607d1b6017918401918201528351615df6816028840160208801614f0d565b01602801949350505050565b600060208284031215615e1457600080fd5b815160058110610f6957600080fd5b6000808284036040811215615e3757600080fd5b835192506020601f1982011215615e4d57600080fd5b50615e566150c3565b6020939093015183525092909150565b6000808284036060811215615e7a57600080fd5b835192506040601f1982011215615e9057600080fd5b50604080519081016001600160401b0381118282101715615eb357615eb36150ad565b60409081526020858101518352940151938101939093525092909150565b6000808284036040811215615ee557600080fd5b835192506020601f1982011215615efb57600080fd5b50615f046150c3565b6020840151615f1281614fb5565b8152919491935090915050565b600081615f2e57615f2e6155aa565b506000190190565b60a08101615f448285615615565b60018060a01b0383511660208301526020830151604083015260408301516060830152606083015160808301529392505050565b602081526000825160a06020840152615f9460c0840182614f31565b905060018060a01b0360208501511660408401526040840151606084015260608401516080840152608084015160a08401528091505092915050565b6020808252825182820181905260009190848201906040850190845b8181101561600e57835163ffffffff1683529284019291840191600101615fec565b50909695505050505050565b60006001600160401b03821115616033576160336150ad565b5060051b60200190565b600082601f83011261604e57600080fd5b8151602061605e6151618361601a565b82815260059290921b8401810191818101908684111561607d57600080fd5b8286015b848110156160a157805161609481614fb5565b8352918301918301616081565b509695505050505050565b600080604083850312156160bf57600080fd5b82516001600160401b03808211156160d657600080fd5b818501915085601f8301126160ea57600080fd5b815160206160fa6151618361601a565b82815260059290921b8401810191818101908984111561611957600080fd5b948201945b838610156161475785518060060b81146161385760008081fd5b8252948201949082019061611e565b9188015191965090935050508082111561616057600080fd5b5061616d8582860161603d565b9150509250929050565b600682810b9082900b03667fffffffffffff198112667fffffffffffff82131715610c1c57610c1c6155aa565b6001600160a01b038281168282160390808211156161c4576161c46155aa565b5092915050565b60008160060b8360060b806161e2576161e2615aff565b667fffffffffffff19821460001982141615616200576162006155aa565b90059392505050565b60008260060b8061621c5761621c615aff565b808360060b0791505092915050565b60008160020b627fffff198103616244576162446155aa565b6000190192915050565b6001600160c01b03828116828216818102831692918115828504821417616277576162776155aa565b50505092915050565b60006001600160c01b038381168061629a5761629a615aff565b9216919091049291505056fe000000000000000000000000b0cabfe930642ad3e7decdc741884d8c3f7ebc7000000000000000000000000010541b07d8ad2647dc6cd67abd4c03575dade2616d1efadb607420c71e8f966ae6611a2b817ec83a98f82ae24284fd004cf9d40cb0c58532a125fc3c0adccaef396bf65344a4d5781cec2e4c593e6b611d75f150a2646970667358221220e831c2ea604d33955f868d86300ae17bbe67821fbdf4eb4f19091e898d41dcdf64736f6c63430008130033",
  "linkReferences": {},
  "deployedLinkReferences": {}
}