{
  "_format": "hh-sol-artifact-1",
  "contractName": "HopStrategy",
  "sourceName": "contracts/strategies/HopStrategy.sol",
  "abi": [
    {
      "inputs": [
        {
          "internalType": "uint256",
          "name": "messageType",
          "type": "uint256"
        }
      ],
      "name": "IncorrectMessageType",
      "type": "error"
    },
    {
      "inputs": [],
      "name": "InitializeQuoteBufferWithHopToWantValue",
      "type": "error"
    },
    {
      "inputs": [
        {
          "internalType": "uint256",
          "name": "amount",
          "type": "uint256"
        },
        {
          "internalType": "uint256",
          "name": "balance",
          "type": "uint256"
        }
      ],
      "name": "InsufficientFunds",
      "type": "error"
    },
    {
      "inputs": [],
      "name": "SwapHelperOnly",
      "type": "error"
    },
    {
      "inputs": [],
      "name": "T",
      "type": "error"
    },
    {
      "anonymous": false,
      "inputs": [
        {
          "indexed": false,
          "internalType": "uint256",
          "name": "debtOutstanding",
          "type": "uint256"
        }
      ],
      "name": "AdjustedPosition",
      "type": "event"
    },
    {
      "anonymous": false,
      "inputs": [
        {
          "indexed": true,
          "internalType": "address",
          "name": "src",
          "type": "address"
        },
        {
          "indexed": true,
          "internalType": "address",
          "name": "dst",
          "type": "address"
        },
        {
          "indexed": true,
          "internalType": "uint256",
          "name": "amount",
          "type": "uint256"
        },
        {
          "indexed": false,
          "internalType": "bytes",
          "name": "lowLevelErrorData",
          "type": "bytes"
        }
      ],
      "name": "EmergencyQuoteOnAlternativeDEX",
      "type": "event"
    },
    {
      "anonymous": false,
      "inputs": [
        {
          "indexed": true,
          "internalType": "address",
          "name": "src",
          "type": "address"
        },
        {
          "indexed": true,
          "internalType": "address",
          "name": "dst",
          "type": "address"
        },
        {
          "indexed": true,
          "internalType": "uint256",
          "name": "amount",
          "type": "uint256"
        },
        {
          "indexed": false,
          "internalType": "bytes",
          "name": "lowLevelErrorData",
          "type": "bytes"
        }
      ],
      "name": "EmergencySwapOnAlternativeDEX",
      "type": "event"
    },
    {
      "anonymous": false,
      "inputs": [
        {
          "indexed": false,
          "internalType": "uint8",
          "name": "version",
          "type": "uint8"
        }
      ],
      "name": "Initialized",
      "type": "event"
    },
    {
      "anonymous": false,
      "inputs": [
        {
          "indexed": false,
          "internalType": "uint16",
          "name": "_srcChainId",
          "type": "uint16"
        },
        {
          "indexed": false,
          "internalType": "bytes",
          "name": "_srcAddress",
          "type": "bytes"
        },
        {
          "indexed": false,
          "internalType": "uint64",
          "name": "_nonce",
          "type": "uint64"
        },
        {
          "indexed": false,
          "internalType": "bytes",
          "name": "_payload",
          "type": "bytes"
        },
        {
          "indexed": false,
          "internalType": "bytes",
          "name": "_reason",
          "type": "bytes"
        }
      ],
      "name": "MessageFailed",
      "type": "event"
    },
    {
      "anonymous": false,
      "inputs": [
        {
          "indexed": true,
          "internalType": "address",
          "name": "src",
          "type": "address"
        },
        {
          "indexed": true,
          "internalType": "address",
          "name": "dst",
          "type": "address"
        },
        {
          "indexed": true,
          "internalType": "uint256",
          "name": "amountOut",
          "type": "uint256"
        },
        {
          "indexed": false,
          "internalType": "uint256",
          "name": "amountIn",
          "type": "uint256"
        }
      ],
      "name": "Notified",
      "type": "event"
    },
    {
      "anonymous": false,
      "inputs": [
        {
          "indexed": true,
          "internalType": "address",
          "name": "previousOwner",
          "type": "address"
        },
        {
          "indexed": true,
          "internalType": "address",
          "name": "newOwner",
          "type": "address"
        }
      ],
      "name": "OwnershipTransferred",
      "type": "event"
    },
    {
      "anonymous": false,
      "inputs": [
        {
          "indexed": true,
          "internalType": "address",
          "name": "src",
          "type": "address"
        },
        {
          "indexed": true,
          "internalType": "address",
          "name": "dst",
          "type": "address"
        },
        {
          "indexed": true,
          "internalType": "uint256",
          "name": "amount",
          "type": "uint256"
        }
      ],
      "name": "Quote",
      "type": "event"
    },
    {
      "anonymous": false,
      "inputs": [
        {
          "indexed": false,
          "internalType": "uint16",
          "name": "_srcChainId",
          "type": "uint16"
        },
        {
          "indexed": false,
          "internalType": "bytes",
          "name": "_srcAddress",
          "type": "bytes"
        },
        {
          "indexed": false,
          "internalType": "uint64",
          "name": "_nonce",
          "type": "uint64"
        },
        {
          "indexed": false,
          "internalType": "bytes32",
          "name": "_payloadHash",
          "type": "bytes32"
        }
      ],
      "name": "RetryMessageSuccess",
      "type": "event"
    },
    {
      "anonymous": false,
      "inputs": [
        {
          "indexed": false,
          "internalType": "uint16",
          "name": "_dstChainId",
          "type": "uint16"
        },
        {
          "indexed": false,
          "internalType": "uint16",
          "name": "_type",
          "type": "uint16"
        },
        {
          "indexed": false,
          "internalType": "uint256",
          "name": "_minDstGas",
          "type": "uint256"
        }
      ],
      "name": "SetMinDstGas",
      "type": "event"
    },
    {
      "anonymous": false,
      "inputs": [
        {
          "indexed": false,
          "internalType": "address",
          "name": "precrime",
          "type": "address"
        }
      ],
      "name": "SetPrecrime",
      "type": "event"
    },
    {
      "anonymous": false,
      "inputs": [
        {
          "indexed": false,
          "internalType": "uint16",
          "name": "_remoteChainId",
          "type": "uint16"
        },
        {
          "indexed": false,
          "internalType": "bytes",
          "name": "_path",
          "type": "bytes"
        }
      ],
      "name": "SetTrustedRemote",
      "type": "event"
    },
    {
      "anonymous": false,
      "inputs": [
        {
          "indexed": false,
          "internalType": "uint16",
          "name": "_remoteChainId",
          "type": "uint16"
        },
        {
          "indexed": false,
          "internalType": "bytes",
          "name": "_remoteAddress",
          "type": "bytes"
        }
      ],
      "name": "SetTrustedRemoteAddress",
      "type": "event"
    },
    {
      "anonymous": false,
      "inputs": [
        {
          "indexed": true,
          "internalType": "address",
          "name": "token",
          "type": "address"
        },
        {
          "indexed": false,
          "internalType": "uint256",
          "name": "amount",
          "type": "uint256"
        },
        {
          "indexed": false,
          "internalType": "address",
          "name": "sender",
          "type": "address"
        }
      ],
      "name": "SgReceived",
      "type": "event"
    },
    {
      "anonymous": false,
      "inputs": [
        {
          "indexed": false,
          "internalType": "address",
          "name": "newStrategy",
          "type": "address"
        }
      ],
      "name": "StrategyMigrated",
      "type": "event"
    },
    {
      "anonymous": false,
      "inputs": [
        {
          "indexed": false,
          "internalType": "uint256",
          "name": "profit",
          "type": "uint256"
        },
        {
          "indexed": false,
          "internalType": "uint256",
          "name": "loss",
          "type": "uint256"
        },
        {
          "indexed": false,
          "internalType": "uint256",
          "name": "debtPayment",
          "type": "uint256"
        },
        {
          "indexed": false,
          "internalType": "uint256",
          "name": "giveToStrategy",
          "type": "uint256"
        },
        {
          "indexed": false,
          "internalType": "uint256",
          "name": "requestFromStrategy",
          "type": "uint256"
        },
        {
          "indexed": false,
          "internalType": "uint256",
          "name": "creditAvailable",
          "type": "uint256"
        },
        {
          "indexed": false,
          "internalType": "uint256",
          "name": "totalAssets",
          "type": "uint256"
        }
      ],
      "name": "StrategyReported",
      "type": "event"
    },
    {
      "anonymous": false,
      "inputs": [
        {
          "indexed": true,
          "internalType": "address",
          "name": "src",
          "type": "address"
        },
        {
          "indexed": true,
          "internalType": "address",
          "name": "dst",
          "type": "address"
        },
        {
          "indexed": true,
          "internalType": "uint256",
          "name": "amount",
          "type": "uint256"
        }
      ],
      "name": "Swap",
      "type": "event"
    },
    {
      "inputs": [],
      "name": "DEFAULT_PAYLOAD_SIZE_LIMIT",
      "outputs": [
        {
          "internalType": "uint256",
          "name": "",
          "type": "uint256"
        }
      ],
      "stateMutability": "view",
      "type": "function"
    },
    {
      "inputs": [
        {
          "internalType": "uint256",
          "name": "_debtOutstanding",
          "type": "uint256"
        }
      ],
      "name": "adjustPosition",
      "outputs": [],
      "stateMutability": "nonpayable",
      "type": "function"
    },
    {
      "inputs": [],
      "name": "balanceOfWant",
      "outputs": [
        {
          "internalType": "uint256",
          "name": "",
          "type": "uint256"
        }
      ],
      "stateMutability": "view",
      "type": "function"
    },
    {
      "inputs": [
        {
          "internalType": "uint256",
          "name": "epoch",
          "type": "uint256"
        }
      ],
      "name": "callMe",
      "outputs": [],
      "stateMutability": "nonpayable",
      "type": "function"
    },
    {
      "inputs": [],
      "name": "clearWant",
      "outputs": [],
      "stateMutability": "nonpayable",
      "type": "function"
    },
    {
      "inputs": [],
      "name": "currentChainId",
      "outputs": [
        {
          "internalType": "uint16",
          "name": "",
          "type": "uint16"
        }
      ],
      "stateMutability": "view",
      "type": "function"
    },
    {
      "inputs": [],
      "name": "emergencyExit",
      "outputs": [
        {
          "internalType": "bool",
          "name": "",
          "type": "bool"
        }
      ],
      "stateMutability": "view",
      "type": "function"
    },
    {
      "inputs": [],
      "name": "estimatedTotalAssets",
      "outputs": [
        {
          "internalType": "uint256",
          "name": "",
          "type": "uint256"
        }
      ],
      "stateMutability": "view",
      "type": "function"
    },
    {
      "inputs": [
        {
          "internalType": "uint16",
          "name": "",
          "type": "uint16"
        },
        {
          "internalType": "bytes",
          "name": "",
          "type": "bytes"
        },
        {
          "internalType": "uint64",
          "name": "",
          "type": "uint64"
        }
      ],
      "name": "failedMessages",
      "outputs": [
        {
          "internalType": "bytes32",
          "name": "",
          "type": "bytes32"
        }
      ],
      "stateMutability": "view",
      "type": "function"
    },
    {
      "inputs": [
        {
          "internalType": "uint16",
          "name": "_srcChainId",
          "type": "uint16"
        },
        {
          "internalType": "bytes",
          "name": "_srcAddress",
          "type": "bytes"
        }
      ],
      "name": "forceResumeReceive",
      "outputs": [],
      "stateMutability": "nonpayable",
      "type": "function"
    },
    {
      "inputs": [
        {
          "internalType": "uint16",
          "name": "_version",
          "type": "uint16"
        },
        {
          "internalType": "uint16",
          "name": "_chainId",
          "type": "uint16"
        },
        {
          "internalType": "address",
          "name": "",
          "type": "address"
        },
        {
          "internalType": "uint256",
          "name": "_configType",
          "type": "uint256"
        }
      ],
      "name": "getConfig",
      "outputs": [
        {
          "internalType": "bytes",
          "name": "",
          "type": "bytes"
        }
      ],
      "stateMutability": "view",
      "type": "function"
    },
    {
      "inputs": [
        {
          "internalType": "bytes32",
          "name": "_messageHash",
          "type": "bytes32"
        }
      ],
      "name": "getEthSignedMessageHash",
      "outputs": [
        {
          "internalType": "bytes32",
          "name": "",
          "type": "bytes32"
        }
      ],
      "stateMutability": "pure",
      "type": "function"
    },
    {
      "inputs": [
        {
          "internalType": "uint16",
          "name": "_remoteChainId",
          "type": "uint16"
        }
      ],
      "name": "getTrustedRemoteAddress",
      "outputs": [
        {
          "internalType": "bytes",
          "name": "",
          "type": "bytes"
        }
      ],
      "stateMutability": "view",
      "type": "function"
    },
    {
      "inputs": [
        {
          "internalType": "uint256",
          "name": "_totalDebt",
          "type": "uint256"
        },
        {
          "internalType": "uint256",
          "name": "_debtOutstanding",
          "type": "uint256"
        },
        {
          "internalType": "uint256",
          "name": "_creditAvailable",
          "type": "uint256"
        },
        {
          "internalType": "uint256",
          "name": "_debtRatio",
          "type": "uint256"
        },
        {
          "internalType": "bytes",
          "name": "_signature",
          "type": "bytes"
        }
      ],
      "name": "harvest",
      "outputs": [],
      "stateMutability": "nonpayable",
      "type": "function"
    },
    {
      "inputs": [
        {
          "internalType": "address",
          "name": "_lzEndpoint",
          "type": "address"
        },
        {
          "internalType": "address",
          "name": "_strategist",
          "type": "address"
        },
        {
          "internalType": "contract IERC20",
          "name": "_want",
          "type": "address"
        },
        {
          "internalType": "address",
          "name": "_vault",
          "type": "address"
        },
        {
          "internalType": "uint16",
          "name": "_vaultChainId",
          "type": "uint16"
        },
        {
          "internalType": "address",
          "name": "_sgBridge",
          "type": "address"
        },
        {
          "internalType": "address",
          "name": "_sgRouter",
          "type": "address"
        },
        {
          "internalType": "uint256",
          "name": "_slippage",
          "type": "uint256"
        }
      ],
      "name": "initialize",
      "outputs": [],
      "stateMutability": "nonpayable",
      "type": "function"
    },
    {
      "inputs": [],
      "name": "initializeQuoteBufferWithHopToWantValue",
      "outputs": [],
      "stateMutability": "nonpayable",
      "type": "function"
    },
    {
      "inputs": [
        {
          "internalType": "uint16",
          "name": "_srcChainId",
          "type": "uint16"
        },
        {
          "internalType": "bytes",
          "name": "_srcAddress",
          "type": "bytes"
        }
      ],
      "name": "isTrustedRemote",
      "outputs": [
        {
          "internalType": "bool",
          "name": "",
          "type": "bool"
        }
      ],
      "stateMutability": "view",
      "type": "function"
    },
    {
      "inputs": [],
      "name": "lzEndpoint",
      "outputs": [
        {
          "internalType": "contract ILayerZeroEndpointUpgradeable",
          "name": "",
          "type": "address"
        }
      ],
      "stateMutability": "view",
      "type": "function"
    },
    {
      "inputs": [
        {
          "internalType": "uint16",
          "name": "_srcChainId",
          "type": "uint16"
        },
        {
          "internalType": "bytes",
          "name": "_srcAddress",
          "type": "bytes"
        },
        {
          "internalType": "uint64",
          "name": "_nonce",
          "type": "uint64"
        },
        {
          "internalType": "bytes",
          "name": "_payload",
          "type": "bytes"
        }
      ],
      "name": "lzReceive",
      "outputs": [],
      "stateMutability": "nonpayable",
      "type": "function"
    },
    {
      "inputs": [
        {
          "internalType": "uint16",
          "name": "",
          "type": "uint16"
        },
        {
          "internalType": "uint16",
          "name": "",
          "type": "uint16"
        }
      ],
      "name": "minDstGasLookup",
      "outputs": [
        {
          "internalType": "uint256",
          "name": "",
          "type": "uint256"
        }
      ],
      "stateMutability": "view",
      "type": "function"
    },
    {
      "inputs": [],
      "name": "name",
      "outputs": [
        {
          "internalType": "string",
          "name": "",
          "type": "string"
        }
      ],
      "stateMutability": "pure",
      "type": "function"
    },
    {
      "inputs": [
        {
          "internalType": "uint16",
          "name": "_srcChainId",
          "type": "uint16"
        },
        {
          "internalType": "bytes",
          "name": "_srcAddress",
          "type": "bytes"
        },
        {
          "internalType": "uint64",
          "name": "_nonce",
          "type": "uint64"
        },
        {
          "internalType": "bytes",
          "name": "_payload",
          "type": "bytes"
        }
      ],
      "name": "nonblockingLzReceive",
      "outputs": [],
      "stateMutability": "nonpayable",
      "type": "function"
    },
    {
      "inputs": [
        {
          "internalType": "address",
          "name": "",
          "type": "address"
        },
        {
          "internalType": "address",
          "name": "",
          "type": "address"
        },
        {
          "internalType": "uint256",
          "name": "amountOut",
          "type": "uint256"
        },
        {
          "internalType": "uint256",
          "name": "",
          "type": "uint256"
        }
      ],
      "name": "notifyCallback",
      "outputs": [],
      "stateMutability": "nonpayable",
      "type": "function"
    },
    {
      "inputs": [],
      "name": "owner",
      "outputs": [
        {
          "internalType": "address",
          "name": "",
          "type": "address"
        }
      ],
      "stateMutability": "view",
      "type": "function"
    },
    {
      "inputs": [
        {
          "internalType": "uint16",
          "name": "",
          "type": "uint16"
        }
      ],
      "name": "payloadSizeLimitLookup",
      "outputs": [
        {
          "internalType": "uint256",
          "name": "",
          "type": "uint256"
        }
      ],
      "stateMutability": "view",
      "type": "function"
    },
    {
      "inputs": [],
      "name": "precrime",
      "outputs": [
        {
          "internalType": "address",
          "name": "",
          "type": "address"
        }
      ],
      "stateMutability": "view",
      "type": "function"
    },
    {
      "inputs": [],
      "name": "renounceOwnership",
      "outputs": [],
      "stateMutability": "nonpayable",
      "type": "function"
    },
    {
      "inputs": [
        {
          "internalType": "uint16",
          "name": "_srcChainId",
          "type": "uint16"
        },
        {
          "internalType": "bytes",
          "name": "_srcAddress",
          "type": "bytes"
        },
        {
          "internalType": "uint64",
          "name": "_nonce",
          "type": "uint64"
        },
        {
          "internalType": "bytes",
          "name": "_payload",
          "type": "bytes"
        }
      ],
      "name": "retryMessage",
      "outputs": [],
      "stateMutability": "payable",
      "type": "function"
    },
    {
      "inputs": [],
      "name": "revokeFunds",
      "outputs": [],
      "stateMutability": "nonpayable",
      "type": "function"
    },
    {
      "inputs": [
        {
          "internalType": "uint16",
          "name": "_version",
          "type": "uint16"
        },
        {
          "internalType": "uint16",
          "name": "_chainId",
          "type": "uint16"
        },
        {
          "internalType": "uint256",
          "name": "_configType",
          "type": "uint256"
        },
        {
          "internalType": "bytes",
          "name": "_config",
          "type": "bytes"
        }
      ],
      "name": "setConfig",
      "outputs": [],
      "stateMutability": "nonpayable",
      "type": "function"
    },
    {
      "inputs": [
        {
          "internalType": "bool",
          "name": "_emergencyExit",
          "type": "bool"
        }
      ],
      "name": "setEmergencyExit",
      "outputs": [],
      "stateMutability": "nonpayable",
      "type": "function"
    },
    {
      "inputs": [
        {
          "internalType": "uint16",
          "name": "_dstChainId",
          "type": "uint16"
        },
        {
          "internalType": "uint16",
          "name": "_packetType",
          "type": "uint16"
        },
        {
          "internalType": "uint256",
          "name": "_minGas",
          "type": "uint256"
        }
      ],
      "name": "setMinDstGas",
      "outputs": [],
      "stateMutability": "nonpayable",
      "type": "function"
    },
    {
      "inputs": [
        {
          "internalType": "uint16",
          "name": "_dstChainId",
          "type": "uint16"
        },
        {
          "internalType": "uint256",
          "name": "_size",
          "type": "uint256"
        }
      ],
      "name": "setPayloadSizeLimit",
      "outputs": [],
      "stateMutability": "nonpayable",
      "type": "function"
    },
    {
      "inputs": [
        {
          "internalType": "address",
          "name": "_precrime",
          "type": "address"
        }
      ],
      "name": "setPrecrime",
      "outputs": [],
      "stateMutability": "nonpayable",
      "type": "function"
    },
    {
      "inputs": [
        {
          "internalType": "uint16",
          "name": "_version",
          "type": "uint16"
        }
      ],
      "name": "setReceiveVersion",
      "outputs": [],
      "stateMutability": "nonpayable",
      "type": "function"
    },
    {
      "inputs": [
        {
          "internalType": "uint16",
          "name": "_version",
          "type": "uint16"
        }
      ],
      "name": "setSendVersion",
      "outputs": [],
      "stateMutability": "nonpayable",
      "type": "function"
    },
    {
      "inputs": [
        {
          "internalType": "uint256",
          "name": "_slippage",
          "type": "uint256"
        }
      ],
      "name": "setSlippage",
      "outputs": [],
      "stateMutability": "nonpayable",
      "type": "function"
    },
    {
      "inputs": [
        {
          "internalType": "address",
          "name": "_strategist",
          "type": "address"
        }
      ],
      "name": "setStrategist",
      "outputs": [],
      "stateMutability": "nonpayable",
      "type": "function"
    },
    {
      "inputs": [
        {
          "components": [
            {
              "internalType": "contract ISwapHelper",
              "name": "swapHelper",
              "type": "address"
            },
            {
              "internalType": "uint256",
              "name": "quoteBuffer",
              "type": "uint256"
            },
            {
              "internalType": "bool",
              "name": "isQuoteBufferContainsHopToWantValue",
              "type": "bool"
            }
          ],
          "internalType": "struct SwapHelperDTO",
          "name": "__swapHelperDTO",
          "type": "tuple"
        }
      ],
      "name": "setSwapHelperDTO",
      "outputs": [],
      "stateMutability": "nonpayable",
      "type": "function"
    },
    {
      "inputs": [
        {
          "internalType": "uint16",
          "name": "_srcChainId",
          "type": "uint16"
        },
        {
          "internalType": "bytes",
          "name": "_path",
          "type": "bytes"
        }
      ],
      "name": "setTrustedRemote",
      "outputs": [],
      "stateMutability": "nonpayable",
      "type": "function"
    },
    {
      "inputs": [
        {
          "internalType": "uint16",
          "name": "_remoteChainId",
          "type": "uint16"
        },
        {
          "internalType": "bytes",
          "name": "_remoteAddress",
          "type": "bytes"
        }
      ],
      "name": "setTrustedRemoteAddress",
      "outputs": [],
      "stateMutability": "nonpayable",
      "type": "function"
    },
    {
      "inputs": [],
      "name": "sgBridge",
      "outputs": [
        {
          "internalType": "contract ISgBridge",
          "name": "",
          "type": "address"
        }
      ],
      "stateMutability": "view",
      "type": "function"
    },
    {
      "inputs": [
        {
          "internalType": "uint16",
          "name": "",
          "type": "uint16"
        },
        {
          "internalType": "bytes",
          "name": "_srcAddress",
          "type": "bytes"
        },
        {
          "internalType": "uint256",
          "name": "",
          "type": "uint256"
        },
        {
          "internalType": "address",
          "name": "_token",
          "type": "address"
        },
        {
          "internalType": "uint256",
          "name": "_amountLD",
          "type": "uint256"
        },
        {
          "internalType": "bytes",
          "name": "",
          "type": "bytes"
        }
      ],
      "name": "sgReceive",
      "outputs": [],
      "stateMutability": "nonpayable",
      "type": "function"
    },
    {
      "inputs": [],
      "name": "sgRouter",
      "outputs": [
        {
          "internalType": "contract IStargateRouter",
          "name": "",
          "type": "address"
        }
      ],
      "stateMutability": "view",
      "type": "function"
    },
    {
      "inputs": [],
      "name": "slippage",
      "outputs": [
        {
          "internalType": "uint256",
          "name": "",
          "type": "uint256"
        }
      ],
      "stateMutability": "view",
      "type": "function"
    },
    {
      "inputs": [],
      "name": "strategist",
      "outputs": [
        {
          "internalType": "address",
          "name": "",
          "type": "address"
        }
      ],
      "stateMutability": "view",
      "type": "function"
    },
    {
      "inputs": [],
      "name": "strategistSignMessageHash",
      "outputs": [
        {
          "internalType": "bytes32",
          "name": "",
          "type": "bytes32"
        }
      ],
      "stateMutability": "view",
      "type": "function"
    },
    {
      "inputs": [
        {
          "internalType": "contract IERC20",
          "name": "_token",
          "type": "address"
        }
      ],
      "name": "sweepToken",
      "outputs": [],
      "stateMutability": "nonpayable",
      "type": "function"
    },
    {
      "inputs": [
        {
          "internalType": "address",
          "name": "newOwner",
          "type": "address"
        }
      ],
      "name": "transferOwnership",
      "outputs": [],
      "stateMutability": "nonpayable",
      "type": "function"
    },
    {
      "inputs": [
        {
          "internalType": "uint16",
          "name": "",
          "type": "uint16"
        }
      ],
      "name": "trustedRemoteLookup",
      "outputs": [
        {
          "internalType": "bytes",
          "name": "",
          "type": "bytes"
        }
      ],
      "stateMutability": "view",
      "type": "function"
    },
    {
      "inputs": [],
      "name": "vault",
      "outputs": [
        {
          "internalType": "address",
          "name": "",
          "type": "address"
        }
      ],
      "stateMutability": "view",
      "type": "function"
    },
    {
      "inputs": [],
      "name": "vaultChainId",
      "outputs": [
        {
          "internalType": "uint16",
          "name": "",
          "type": "uint16"
        }
      ],
      "stateMutability": "view",
      "type": "function"
    },
    {
      "inputs": [],
      "name": "want",
      "outputs": [
        {
          "internalType": "contract IERC20",
          "name": "",
          "type": "address"
        }
      ],
      "stateMutability": "view",
      "type": "function"
    },
    {
      "inputs": [],
      "name": "wantDecimals",
      "outputs": [
        {
          "internalType": "uint8",
          "name": "",
          "type": "uint8"
        }
      ],
      "stateMutability": "view",
      "type": "function"
    },
    {
      "stateMutability": "payable",
      "type": "receive"
    }
  ],
  "bytecode": "0x608060405234801561001057600080fd5b50615f1f80620000216000396000f3fe6080604052600436106102685760003560e01c80621d3567146102745780630517cb761461029657806306fdde03146102cc57806307e0db17146103095780630df374831461032957806310ddb137146103495780631be19560146103695780631f1fcd51146103895780631fe4a686146103a95780632d606843146103c957806337fded91146103de5780633d3ccc2f146104035780633d8b38f6146104235780633e032a3b146104535780633f1f4fa41461047757806342d65a8d146104a457806345ee0755146104c4578063495f881e146104e45780635641ec0314610504578063567ad85d1461051e578063593178de146105535780635b8c41e61461056857806366ad5c8a146105b75780636cbadbfa146105d7578063715018a6146105f95780637533d7881461060e5780637f5555651461062e5780638cfd8f5c1461064e5780638da5cb5b14610686578063950c8a741461069b5780639606647d146106bb5780639f38369a146106d0578063a4ef57ab146106f0578063a6c3d16514610710578063ab8236f314610730578063abe06ef714610750578063adf076e614610765578063b353aaa714610798578063baf3292d146107b8578063c1a3d44c146107d8578063c4461834146107ed578063c7b9d53014610803578063cbed8b9c14610823578063d1deba1f14610843578063df2a5b3b14610856578063e73620c314610876578063eb8d72b714610896578063efbb5cb0146108b6578063f056dffe146108cb578063f0fa55a9146108eb578063f2fde38b1461090b578063f5ecbdbc1461092b578063fa5408011461094b578063fbfa77cf1461096b57600080fd5b3661026f57005b600080fd5b34801561028057600080fd5b5061029461028f366004614a77565b61098b565b005b3480156102a257600080fd5b5060ce546102b6906001600160a01b031681565b6040516102c39190614b0a565b60405180910390f35b3480156102d857600080fd5b5060408051808201909152600b81526a486f70537472617465677960a81b60208201525b6040516102c39190614b6e565b34801561031557600080fd5b50610294610324366004614b81565b610a74565b34801561033557600080fd5b50610294610344366004614b9c565b610ae1565b34801561035557600080fd5b50610294610364366004614b81565b610b00565b34801561037557600080fd5b50610294610384366004614bdb565b610b3c565b34801561039557600080fd5b5060ca546102b6906001600160a01b031681565b3480156103b557600080fd5b5060c9546102b6906001600160a01b031681565b3480156103d557600080fd5b50610294610bc9565b3480156103ea57600080fd5b5060cd546102b69061010090046001600160a01b031681565b34801561040f57600080fd5b5061029461041e366004614bf8565b610c0a565b34801561042f57600080fd5b5061044361043e366004614c11565b610c40565b60405190151581526020016102c3565b34801561045f57600080fd5b5061046960cc5481565b6040519081526020016102c3565b34801561048357600080fd5b50610469610492366004614b81565b60686020526000908152604090205481565b3480156104b057600080fd5b506102946104bf366004614c11565b610d0d565b3480156104d057600080fd5b506102946104df366004614c71565b610d80565b3480156104f057600080fd5b506102946104ff366004614d79565b610d9b565b34801561051057600080fd5b5060cd546104439060ff1681565b34801561052a57600080fd5b5060cb5461054090600160a01b900461ffff1681565b60405161ffff90911681526020016102c3565b34801561055f57600080fd5b5061046961103f565b34801561057457600080fd5b50610469610583366004614ddc565b6097602090815260009384526040808520845180860184018051928152908401958401959095209452929052825290205481565b3480156105c357600080fd5b506102946105d2366004614a77565b61109d565b3480156105e357600080fd5b5060cb5461054090600160b01b900461ffff1681565b34801561060557600080fd5b50610294611171565b34801561061a57600080fd5b506102fc610629366004614b81565b611185565b34801561063a57600080fd5b50610294610649366004614e39565b61121f565b34801561065a57600080fd5b50610469610669366004614ed7565b606760209081526000928352604080842090915290825290205481565b34801561069257600080fd5b506102b66113fc565b3480156106a757600080fd5b506069546102b6906001600160a01b031681565b3480156106c757600080fd5b5061029461140b565b3480156106dc57600080fd5b506102fc6106eb366004614b81565b61149e565b3480156106fc57600080fd5b5061029461070b366004614f0a565b6115ad565b34801561071c57600080fd5b5061029461072b366004614c11565b6115f5565b34801561073c57600080fd5b5061029461074b366004614f72565b61167e565b34801561075c57600080fd5b5061029461177c565b34801561077157600080fd5b5060cb5461078690600160c01b900460ff1681565b60405160ff90911681526020016102c3565b3480156107a457600080fd5b506065546102b6906001600160a01b031681565b3480156107c457600080fd5b506102946107d3366004614bdb565b6117a5565b3480156107e457600080fd5b506104696117f8565b3480156107f957600080fd5b5061046961271081565b34801561080f57600080fd5b5061029461081e366004614bdb565b61186f565b34801561082f57600080fd5b5061029461083e36600461500c565b611899565b610294610851366004614a77565b611907565b34801561086257600080fd5b5061029461087136600461507a565b611b1d565b34801561088257600080fd5b50610294610891366004614bf8565b611bcf565b3480156108a257600080fd5b506102946108b1366004614c11565b611bef565b3480156108c257600080fd5b50610469611c49565b3480156108d757600080fd5b506102946108e63660046150b6565b611c9f565b3480156108f757600080fd5b50610294610906366004614bf8565b611cd2565b34801561091757600080fd5b50610294610926366004614bdb565b611cdf565b34801561093757600080fd5b506102fc6109463660046150fc565b611d55565b34801561095757600080fd5b50610469610966366004614bf8565b611dea565b34801561097757600080fd5b5060cb546102b6906001600160a01b031681565b6065546001600160a01b031633146109f65760405162461bcd60e51b815260206004820152602360248201527f4261736553747261746567793a3a496e76616c6964456e64706f696e7443616c6044820152623632b960e91b60648201526084015b60405180910390fd5b610a6c8686868080601f01602080910402602001604051908101604052809392919081815260200183838082843760009201919091525050604080516020601f890181900481028201810190925287815289935091508790879081908401838280828437600092019190915250611e3c92505050565b505050505050565b610a7c611eb5565b6065546040516307e0db1760e01b815261ffff831660048201526001600160a01b03909116906307e0db17906024015b600060405180830381600087803b158015610ac657600080fd5b505af1158015610ada573d6000803e3d6000fd5b5050505050565b610ae9611eb5565b61ffff909116600090815260686020526040902055565b610b08611eb5565b6065546040516310ddb13760e01b815261ffff831660048201526001600160a01b03909116906310ddb13790602401610aac565b610b44611f14565b610bc633826001600160a01b03166370a08231306040518263ffffffff1660e01b8152600401610b749190614b0a565b602060405180830381865afa158015610b91573d6000803e3d6000fd5b505050506040513d601f19601f82011682018060405250810190610bb59190615149565b6001600160a01b0384169190611f6d565b50565b610bd1611f14565b60c9546040516001600160a01b03909116904780156108fc02916000818181858888f19350505050158015610bc6573d6000803e3d6000fd5b610c12611f14565b610c1b81611fc8565b604051818152600080516020615eaa833981519152906020015b60405180910390a150565b61ffff831660009081526066602052604081208054829190610c6190615162565b80601f0160208091040260200160405190810160405280929190818152602001828054610c8d90615162565b8015610cda5780601f10610caf57610100808354040283529160200191610cda565b820191906000526020600020905b815481529060010190602001808311610cbd57829003601f168201915b505050505090508383604051610cf192919061519c565b60405180910390208180519060200120149150505b9392505050565b610d15611eb5565b6065546040516342d65a8d60e01b81526001600160a01b03909116906342d65a8d90610d49908690869086906004016151d5565b600060405180830381600087803b158015610d6357600080fd5b505af1158015610d77573d6000803e3d6000fd5b50505050505050565b610d88611f14565b60cd805460ff1916911515919091179055565b610da3611f14565b610dac8161225e565b60cd546000908190819060ff1615610e58578415610e0c5760405162461bcd60e51b815260206004820152601e60248201527f4261736553747261746567793a3a44656274526174696f4e6f745a65726f000060448201526064016109ed565b6000610e166122e4565b905087811015610e3157610e2a8189615209565b9250610e46565b87811115610e4657610e438882615209565b93505b610e508389615209565b915050610e6a565b610e62888861244d565b919450925090505b6000610e76828561521c565b905060008088831015610e9857610e8d838a615209565b915060009050610ea9565b60009150610ea68984615209565b90505b6000604051806101600160405280306001600160a01b031681526020014281526020018881526020018781526020018681526020018481526020018381526020018b815260200183610ef9611c49565b610f039190615209565b815260200160d06000815480929190610f1b9061522f565b90915550815260200189905290508115610f7b5760cb54604051610f7691849161ffff600160a01b830416916001600160a01b031690610f62906002908790602001615280565b604051602081830303815290604052612544565b610fa6565b610fa6600282604051602001610f92929190615280565b60405160208183030381529060405261261e565b7fb983e09c034e9c52b5e547cb0589967992b97717733f580cc5ad0afcdc4b522b8160400151826060015183608001518460a001518560c001518660e001518761010001516040516110299796959493929190968752602087019590955260408601939093526060850191909152608084015260a083015260c082015260e00190565b60405180910390a1505050505050505050505050565b60d05460cb546040513060601b6001600160601b03191660208201526034810192909252600160b01b900460f01b6001600160f01b031916605482015260009060560160405160208183030381529060405280519060200120905090565b3330146110fb5760405162461bcd60e51b815260206004820152602660248201527f4e6f6e626c6f636b696e674c7a4170703a2063616c6c6572206d7573742062656044820152650204c7a4170760d41b60648201526084016109ed565b610a6c8686868080601f01602080910402602001604051908101604052809392919081815260200183838082843760009201919091525050604080516020601f89018190048102820181019092528781528993509150879087908190840183828082843760009201919091525061279e92505050565b611179611eb5565b61118360006128b4565b565b6066602052600090815260409020805461119e90615162565b80601f01602080910402602001604051908101604052809291908181526020018280546111ca90615162565b80156112175780601f106111ec57610100808354040283529160200191611217565b820191906000526020600020905b8154815290600101906020018083116111fa57829003601f168201915b505050505081565b600054610100900460ff161580801561123f5750600054600160ff909116105b80611260575061124e30612906565b158015611260575060005460ff166001145b6112c35760405162461bcd60e51b815260206004820152602e60248201527f496e697469616c697a61626c653a20636f6e747261637420697320616c72656160448201526d191e481a5b9a5d1a585b1a5e995960921b60648201526084016109ed565b6000805460ff1916600117905580156112e6576000805461ff0019166101001790555b6112f78989898989468a8a8a612915565b61132673b67c014fa700e69681a673876eb8bafaa36bff71600080516020615e6a833981519152600019612ae8565b61135573b67c014fa700e69681a673876eb8bafaa36bff71600080516020615e8a833981519152600019612ae8565b611384600080516020615eca83398151915273e592427a0aece92de3edee1f18e0157c05861564600019612ae8565b60ca546113ab906001600160a01b0316600080516020615e8a833981519152600019612ae8565b80156113f1576000805461ff0019169055604051600181527f7f26b83ff96e1f2b6a682f133852f6798a09c465da95921460cefb38474024989060200160405180910390a15b505050505050505050565b6033546001600160a01b031690565b611413611f14565b60ca546040516370a0823160e01b8152611183916001916001600160a01b03909116906370a082319061144a903090600401614b0a565b602060405180830381865afa158015611467573d6000803e3d6000fd5b505050506040513d601f19601f8201168201806040525081019061148b9190615149565b60ca546001600160a01b03169190611f6d565b61ffff81166000908152606660205260408120805460609291906114c190615162565b80601f01602080910402602001604051908101604052809291908181526020018280546114ed90615162565b801561153a5780601f1061150f5761010080835404028352916020019161153a565b820191906000526020600020905b81548152906001019060200180831161151d57829003601f168201915b5050505050905080516000036115925760405162461bcd60e51b815260206004820152601d60248201527f4c7a4170703a206e6f20747275737465642070617468207265636f726400000060448201526064016109ed565b610d066000601483516115a59190615209565b839190612bec565b6115b5612cf9565b805160d180546001600160a01b0319166001600160a01b03909216919091179055602081015160d2556040015160d3805460ff1916911515919091179055565b6115fd611eb5565b8181306040516020016116129392919061533c565b60408051601f1981840301815291815261ffff851660009081526066602052209061163d90826153b8565b507f8c0400cfe2d1199b1a725c78960bcc2a344d869b80590d0f2bd005db15a572ce838383604051611671939291906151d5565b60405180910390a1505050565b60ce546001600160a01b03163314806116a6575060cd5461010090046001600160a01b031633145b6116f15760405162461bcd60e51b815260206004820152601c60248201527b53674272696467653a3a526f757465724f724272696467654f6e6c7960201b60448201526064016109ed565b60006116ff86826014612bec565b60405160200161170f9190615471565b6040516020818303038152906040526117279061548d565b6040805185815260609290921c6020830181905292506001600160a01b038616917f92073a89a07a000083eb8b2575fc15e7bb936efe55d00727d6942a796d7211a7910160405180910390a250505050505050565b611784612cf9565b610bc660d1612d68611794612e0a565b60ca546001600160a01b0316612e3c565b6117ad611eb5565b606980546001600160a01b0319166001600160a01b0383161790556040517f5db758e995a17ec1ad84bdef7e8c3293a0bd6179bcce400dff5d4c3d87db726b90610c35908390614b0a565b60ca546040516370a0823160e01b81526000916001600160a01b0316906370a0823190611829903090600401614b0a565b602060405180830381865afa158015611846573d6000803e3d6000fd5b505050506040513d601f19601f8201168201806040525081019061186a9190615149565b905090565b611877611eb5565b60c980546001600160a01b0319166001600160a01b0392909216919091179055565b6118a1611eb5565b6065546040516332fb62e760e21b81526001600160a01b039091169063cbed8b9c906118d990889088908890889088906004016154c4565b600060405180830381600087803b1580156118f357600080fd5b505af11580156113f1573d6000803e3d6000fd5b61ffff8616600090815260976020526040808220905161192a908890889061519c565b90815260408051602092819003830190206001600160401b038716600090815292529020549050806119aa5760405162461bcd60e51b815260206004820152602360248201527f4e6f6e626c6f636b696e674c7a4170703a206e6f2073746f726564206d65737360448201526261676560e81b60648201526084016109ed565b8083836040516119bb92919061519c565b604051809103902014611a1a5760405162461bcd60e51b815260206004820152602160248201527f4e6f6e626c6f636b696e674c7a4170703a20696e76616c6964207061796c6f616044820152601960fa1b60648201526084016109ed565b61ffff87166000908152609760205260408082209051611a3d908990899061519c565b90815260408051602092819003830181206001600160401b038916600090815290845282902093909355601f88018290048202830182019052868252611ad5918991899089908190840183828082843760009201919091525050604080516020601f8a018190048102820181019092528881528a93509150889088908190840183828082843760009201919091525061279e92505050565b7fc264d91f3adc5588250e1551f547752ca0cfa8f6b530d243b9f9f4cab10ea8e58787878785604051611b0c9594939291906154f2565b60405180910390a150505050505050565b611b25611eb5565b60008111611b6d5760405162461bcd60e51b81526020600482015260156024820152744c7a4170703a20696e76616c6964206d696e47617360581b60448201526064016109ed565b61ffff83811660008181526067602090815260408083209487168084529482529182902085905581519283528201929092529081018290527f9d5c7c0b934da8fefa9c7760c98383778a12dfbfc0c3b3106518f43fb9508ac090606001611671565b611bd7611eb5565b600090815260cf60205260409020805460ff19169055565b611bf7611eb5565b61ffff83166000908152606660205260409020611c1582848361552d565b507ffa41487ad5d6728f0b19276fa1eddc16558578f5109fc39d2dc33c3230470dab838383604051611671939291906151d5565b60d35460009060ff16611c6f57604051630570e54b60e51b815260040160405180910390fd5b60d254611c7a6117f8565b611c8b611c85612ed3565b30612f07565b611c95919061521c565b61186a919061521c565b60d1546001600160a01b03163314611cca57604051630336158960e61b815260040160405180910390fd5b5060d2555050565b611cda611f14565b60cc55565b611ce7611eb5565b6001600160a01b038116611d4c5760405162461bcd60e51b815260206004820152602660248201527f4f776e61626c653a206e6577206f776e657220697320746865207a65726f206160448201526564647265737360d01b60648201526084016109ed565b610bc6816128b4565b606554604051633d7b2f6f60e21b815261ffff808716600483015285166024820152306044820152606481018390526060916001600160a01b03169063f5ecbdbc90608401600060405180830381865afa158015611db7573d6000803e3d6000fd5b505050506040513d6000823e601f3d908101601f19168201604052611ddf91908101906155e6565b90505b949350505050565b6040517b0ca2ba3432b932bab69029b4b3b732b21026b2b9b9b0b3b29d05199960211b6020820152603c8101829052600090605c01604051602081830303815290604052805190602001209050919050565b600080611e9f5a60966366ad5c8a60e01b89898989604051602401611e649493929190615653565b60408051601f198184030181529190526020810180516001600160e01b03166001600160e01b03199093169290921790915230929190612fa6565b9150915081610a6c57610a6c8686868685613032565b33611ebe6113fc565b6001600160a01b0316146111835760405162461bcd60e51b815260206004820181905260248201527f4f776e61626c653a2063616c6c6572206973206e6f7420746865206f776e657260448201526064016109ed565b60c9546001600160a01b031633146111835760405162461bcd60e51b815260206004820152601c60248201527b10985cd954dd1c985d1959de4e8e93db9b1e54dd1c985d1959da5cdd60221b60448201526064016109ed565b611fc38363a9059cbb60e01b8484604051602401611f8c929190615691565b60408051601f198184030181529190526020810180516001600160e01b03166001600160e01b0319909316929092179091526130cf565b505050565b60cd5460ff1615611fd65750565b611fde6131a4565b6000611fe86117f8565b905060008282111561200157611ffe8383615209565b90505b8015611fc357604080516002808252606082018352600092602083019080368337019050509050818160008151811061203c5761203c6156aa565b60200260200101818152505060008160018151811061205d5761205d6156aa565b602090810291909101015260cc5460405163f9273ffb60e01b815260009161271091600080516020615e8a8339815191529063f9273ffb906120a890309088906001906004016156fb565b602060405180830381865afa1580156120c5573d6000803e3d6000fd5b505050506040513d601f19601f820116820180604052508101906120e99190615149565b6120f39190615731565b6120fd919061575e565b604051634d49e87d60e01b8152909150600080516020615e8a83398151915290634d49e87d9061213590859085904290600401615772565b6020604051808303816000875af1158015612154573d6000803e3d6000fd5b505050506040513d601f19601f820116820180604052508101906121789190615149565b506040516370a0823160e01b815260009073b67c014fa700e69681a673876eb8bafaa36bff71906370a08231906121b3903090600401614b0a565b602060405180830381865afa1580156121d0573d6000803e3d6000fd5b505050506040513d601f19601f820116820180604052508101906121f49190615149565b60405163534a7e1d60e11b815260048101829052909150600080516020615e6a8339815191529063a694fc3a90602401600060405180830381600087803b15801561223e57600080fd5b505af1158015612252573d6000803e3d6000fd5b50505050505050505050565b600061226861103f565b9050600061227582611dea565b60c9549091506001600160a01b031661228e828561328a565b6001600160a01b031614611fc35760405162461bcd60e51b815260206004820152601e60248201527f4261736553747261746567793a3a496e76616c69645369676e6174757265000060448201526064016109ed565b60006122ee6131a4565b60006122f86117f8565b604051632e1a7d4d60e01b815260048101829052909150600080516020615e6a83398151915290632e1a7d4d90602401600060405180830381600087803b15801561234257600080fd5b505af1158015612356573d6000803e3d6000fd5b50506040516301f1d0ab60e51b8152600080516020615e8a8339815191529250633e3a1560915061239290849060009081904290600401615797565b6020604051808303816000875af11580156123b1573d6000803e3d6000fd5b505050506040513d601f19601f820116820180604052508101906123d59190615149565b5060ca546040516370a0823160e01b81526001600160a01b03909116906370a0823190612406903090600401614b0a565b602060405180830381865afa158015612423573d6000803e3d6000fd5b505050506040513d601f19601f820116820180604052508101906124479190615149565b91505090565b60008060008061245b611c49565b90508581106124795761246e8682615209565b93506000925061248a565b600093506124878187615209565b92505b61249c612497858761521c565b6132ae565b505060ca546040516370a0823160e01b81526000916001600160a01b0316906370a08231906124cf903090600401614b0a565b602060405180830381865afa1580156124ec573d6000803e3d6000fd5b505050506040513d601f19601f820116820180604052508101906125109190615149565b9050848111612525578094506000925061253b565b6125386125328683615209565b876133e3565b92505b50509250925092565b60cd54604051630dc6346160e01b815260009161010090046001600160a01b031690630dc634619061257e908790879087906004016157b5565b602060405180830381865afa15801561259b573d6000803e3d6000fd5b505050506040513d601f19601f820116820180604052508101906125bf9190615149565b60cd5460ca54604051633920455b60e11b81529293506001600160a01b036101009092048216926372408ab6928592612605929116908a908a908a908a906004016157e3565b6000604051808303818588803b15801561223e57600080fd5b60cb5460408051606083811b6001600160601b03199081166020840152309182901b16603483015282516028818403018152604890920190925260655490926000926001600160a01b03909216916340a7bb109161ffff600160a01b909104169086856126896133f9565b6040518663ffffffff1660e01b81526004016126a9959493929190615820565b6040805180830381865afa1580156126c5573d6000803e3d6000fd5b505050506040513d601f19601f820116820180604052508101906126e99190615874565b509050804710156127155760405162fae2d560e21b8152600481018290524760248201526044016109ed565b60655460cb546001600160a01b039091169063c5803100908390600160a01b900461ffff16858730806127466133f9565b6040518863ffffffff1660e01b815260040161276796959493929190615898565b6000604051808303818588803b15801561278057600080fd5b505af1158015612794573d6000803e3d6000fd5b5050505050505050565b60cb5461ffff858116600160a01b90920416146128085760405162461bcd60e51b815260206004820152602260248201527f4261736553747261746567793a3a5661756c74436861696e49644d69736d61746044820152610c6d60f31b60648201526084016109ed565b600061281684826014612bec565b6040516020016128269190615471565b60405160208183030381529060405261283e9061548d565b60cb5460609190911c91506001600160a01b031681146128ab5760405162461bcd60e51b815260206004820152602260248201527f4261736553747261746567793a3a5661756c74416464726573734d69736d61746044820152610c6d60f31b60648201526084016109ed565b610ada82613429565b603380546001600160a01b038381166001600160a01b0319831681179093556040519116919082907f8be0079c531659141344cd1fd0a4f28419497f9722a3daafe3b4186f6b6457e090600090a35050565b6001600160a01b03163b151590565b600054610100900460ff1661293c5760405162461bcd60e51b81526004016109ed906158ff565b61294589613556565b60c980546001600160a01b03808b166001600160a01b03199283161790925560ca80548a8416908316811790915560cb8054938a1661ffff8a16600160a01b029093166001600160b01b0319909416939093179190911790915560cc8290556040805163313ce56760e01b8152905163313ce567916004808201926020929091908290030181865afa1580156129df573d6000803e3d6000fd5b505050506040513d601f19601f82011682018060405250810190612a03919061594a565b60cb8054600060d05562ffffff60b01b1916600160c01b60ff939093169290920261ffff60b01b191691909117600160b01b61ffff87160217905560cd8054610100600160a81b0319166101006001600160a01b03868116919091029190911790915560ce80546001600160a01b03191684831617905560ca5460405163095ea7b360e01b815291169063095ea7b390612aa590869060001990600401615691565b6020604051808303816000875af1158015612ac4573d6000803e3d6000fd5b505050506040513d601f19601f82011682018060405250810190612252919061596d565b801580612b625750604051636eb1769f60e11b81523060048201526001600160a01b03838116602483015284169063dd62ed3e90604401602060405180830381865afa158015612b3c573d6000803e3d6000fd5b505050506040513d601f19601f82011682018060405250810190612b609190615149565b155b612bcd5760405162461bcd60e51b815260206004820152603660248201527f5361666545524332303a20617070726f76652066726f6d206e6f6e2d7a65726f60448201527520746f206e6f6e2d7a65726f20616c6c6f77616e636560501b60648201526084016109ed565b611fc38363095ea7b360e01b8484604051602401611f8c929190615691565b606081612bfa81601f61521c565b1015612c395760405162461bcd60e51b815260206004820152600e60248201526d736c6963655f6f766572666c6f7760901b60448201526064016109ed565b612c43828461521c565b84511015612c875760405162461bcd60e51b8152602060048201526011602482015270736c6963655f6f75744f66426f756e647360781b60448201526064016109ed565b606082158015612ca65760405191506000825260208201604052612cf0565b6040519150601f8416801560200281840101858101878315602002848b0101015b81831015612cdf578051835260209283019201612cc7565b5050858452601f01601f1916604052505b50949350505050565b60c9546001600160a01b0316331480612d1157503330145b6111835760405162461bcd60e51b815260206004820152602260248201527f4261736553747261746567793a3a4f6e6c79537472617465676973744f725365604482015261363360f11b60648201526084016109ed565b8051600003612db75781836001600160a01b0316856001600160a01b03167fe47a58d87426c749b0bf81083c60c31e2ec1cfae38d60931162d521cc985007060405160405180910390a4612e04565b81836001600160a01b0316856001600160a01b03167f2587c98086a53a3541f325db5ea28a5b772d19a0037252fcf080a4617b9651dd84604051612dfb9190614b6e565b60405180910390a45b50505050565b6040516246613160e11b8152600090600080516020615e6a83398151915290628cc26290611829903090600401614b0a565b6000612e8285857344ca2be2bd6a7203ccdbb63eed8382274f737a15600080516020615eca8339815191527382af49447d8a07e3bd95bd0d56f35241523fbab18861358e565b9050612eba858573c31e54c7a869b9fcbecc14363cf510d1c41fa4437382af49447d8a07e3bd95bd0d56f35241523fbab1868661358e565b6002909501805460ff1916600117905550929392505050565b6040516370a0823160e01b8152600090600080516020615e6a833981519152906370a0823190611829903090600401614b0a565b600082600003612f1957506000612fa0565b604051630262267d60e61b81526001600160a01b03831660048201526024810184905260006044820152600080516020615e8a833981519152906398899f4090606401602060405180830381865afa158015612f79573d6000803e3d6000fd5b505050506040513d601f19601f82011682018060405250810190612f9d9190615149565b90505b92915050565b6000606060008060008661ffff166001600160401b03811115612fcb57612fcb614c8e565b6040519080825280601f01601f191660200182016040528015612ff5576020820181803683370190505b50905060008087516020890160008d8df191503d925086831115613017578692505b828152826000602083013e9093509150505b94509492505050565b8180519060200120609760008761ffff1661ffff168152602001908152602001600020856040516130639190615471565b9081526040805191829003602090810183206001600160401b0388166000908152915220919091557fe183f33de2837795525b4792ca4cd60535bd77c53b7e7030060bfcf5734d6b0c906130c0908790879087908790879061598a565b60405180910390a15050505050565b6000613124826040518060400160405280602081526020017f5361666545524332303a206c6f772d6c6576656c2063616c6c206661696c6564815250856001600160a01b03166136a59092919063ffffffff16565b9050805160001480613145575080806020019051810190613145919061596d565b611fc35760405162461bcd60e51b815260206004820152602a60248201527f5361666545524332303a204552433230206f7065726174696f6e20646964206e6044820152691bdd081cdd58d8d9595960b21b60648201526084016109ed565b600080516020615e6a8339815191526001600160a01b0316633d18b9126040518163ffffffff1660e01b8152600401600060405180830381600087803b1580156131ed57600080fd5b505af1158015613201573d6000803e3d6000fd5b50506040516370a0823160e01b8152611183925060d191506136b490600080516020615eca833981519152906370a0823190613241903090600401614b0a565b602060405180830381865afa15801561325e573d6000803e3d6000fd5b505050506040513d601f19601f820116820180604052508101906132829190615149565b60cc54613747565b600080600061329985856138bf565b915091506132a681613904565b509392505050565b60ca546040516370a0823160e01b8152600091829182916001600160a01b0316906370a08231906132e3903090600401614b0a565b602060405180830381865afa158015613300573d6000803e3d6000fd5b505050506040513d601f19601f820116820180604052508101906133249190615149565b905083811061333857509192600092509050565b61334a6133458286615209565b613a49565b60ca546040516370a0823160e01b81526001600160a01b03909116906370a082319061337a903090600401614b0a565b602060405180830381865afa158015613397573d6000803e3d6000fd5b505050506040513d601f19601f820116820180604052508101906133bb9190615149565b9050808411156133d9579150816133d28185615209565b91506133dd565b8392505b50915091565b60008183106133f25781612f9d565b5090919050565b60408051600160f01b6020820152620f424060228083019190915282518083039091018152604290910190915290565b60008180602001905181019061343f91906159dc565b9050600381600481111561345557613455615248565b036134a85760008280602001905181019061347091906159fd565b9150506134808160000151611fc8565b8051604051908152600080516020615eaa8339815191529060200160405180910390a1505050565b60008160048111156134bc576134bc615248565b036134e3576000828060200190518101906134d79190615a40565b915050611fc381613aa9565b60048160048111156134f7576134f7615248565b03613552576000828060200190518101906135129190615aab565b9150506135228160000151613bd3565b80516040517f7c9a2d2ec51230d7dbed27f113a325b7e20aef7b049e68b2339257b5edff5bea9161167191614b0a565b5050565b600054610100900460ff1661357d5760405162461bcd60e51b81526004016109ed906158ff565b613585613c12565b610bc681613c42565b60028601805460ff191690558554604051634d1dde7b60e01b81526001600160a01b0385811660048301528481166024830152604482018490526000921690634d1dde7b90606401600060405180830381600087803b1580156135f057600080fd5b505af1925050508015613601575060015b613663573d80801561362f576040519150601f19603f3d011682016040523d82523d6000602084013e613634565b606091505b50600061364387878787613c8b565b60018a01819055905061365c8686868563ffffffff8d16565b5050613695565b613695848484600060405160200161367d91815260200190565b6040516020818303038152906040528a63ffffffff16565b5050506001909301549392505050565b6060611de28484600085613cb3565b80516000036137035781836001600160a01b0316856001600160a01b03167fea368a40e9570069bb8e6511d668293ad2e1f03b0d982431fd223de9f3b70ca660405160405180910390a4612e04565b81836001600160a01b0316856001600160a01b03167f583bc203f4bd38722d9ba88ecb248da508149e0e405a42dbc1b1f7d55a8be0c184604051612dfb9190614b6e565b8115612e0457600061271061375d836064615731565b613767919061575e565b85546040516310cabd1d60e01b8152600080516020615eca833981519152600482015273ff970a61a04b1ca14834a43f5de4533ebddb5cc860248201526044810186905260ff831660648201529192506001600160a01b0316906310cabd1d90608401600060405180830381600087803b1580156137e457600080fd5b505af19250505080156137f5575060015b61386b573d808015613823576040519150601f19603f3d011682016040523d82523d6000602084013e613828565b606091505b506138338484613d8e565b613865600080516020615eca83398151915273ff970a61a04b1ca14834a43f5de4533ebddb5cc886848963ffffffff16565b50610ada565b610ada600080516020615eca83398151915273ff970a61a04b1ca14834a43f5de4533ebddb5cc88560006040516020016138a791815260200190565b6040516020818303038152906040528863ffffffff16565b60008082516041036138f55760208301516040840151606085015160001a6138e987828585613f07565b945094505050506138fd565b506000905060025b9250929050565b600081600481111561391857613918615248565b036139205750565b600181600481111561393457613934615248565b0361397c5760405162461bcd60e51b815260206004820152601860248201527745434453413a20696e76616c6964207369676e617475726560401b60448201526064016109ed565b600281600481111561399057613990615248565b036139dd5760405162461bcd60e51b815260206004820152601f60248201527f45434453413a20696e76616c6964207369676e6174757265206c656e6774680060448201526064016109ed565b60038160048111156139f1576139f1615248565b03610bc65760405162461bcd60e51b815260206004820152602260248201527f45434453413a20696e76616c6964207369676e6174757265202773272076616c604482015261756560f01b60648201526084016109ed565b80600003613a545750565b80613a6560d1612d68611794612e0a565b10613a7257610bc66131a4565b6000613a9e613a7f612ed3565b613a8f60d1612d68611794612e0a565b613a999085615209565b6133e3565b905061355281613fb1565b602080820151600090815260cf909152604090205460ff1615613b0e5760405162461bcd60e51b815260206004820152601e60248201527f4261736553747261746567793a3a416c726561647957697468647261776e000060448201526064016109ed565b600080613b1e83600001516132ae565b91509150600060016040518060800160405280306001600160a01b031681526020018581526020018481526020018660200151815250604051602001613b65929190615af9565b60408051601f1981840301815291905290508215613ba65760cb54613ba190849061ffff600160a01b820416906001600160a01b031684612544565b613baf565b613baf8161261e565b505050602090810151600090815260cf90915260409020805460ff19166001179055565b613bdc816141a9565b60ca546040516370a0823160e01b8152610bc69183916001600160a01b03909116906370a082319061144a903090600401614b0a565b600054610100900460ff16613c395760405162461bcd60e51b81526004016109ed906158ff565b611183336128b4565b600054610100900460ff16613c695760405162461bcd60e51b81526004016109ed906158ff565b606580546001600160a01b0319166001600160a01b0392909216919091179055565b600080613c9a866107086141cd565b509050613ca981848787614416565b9695505050505050565b606082471015613d145760405162461bcd60e51b815260206004820152602660248201527f416464726573733a20696e73756666696369656e742062616c616e636520666f6044820152651c8818d85b1b60d21b60648201526084016109ed565b600080866001600160a01b03168587604051613d309190615471565b60006040518083038185875af1925050503d8060008114613d6d576040519150601f19603f3d011682016040523d82523d6000602084013e613d72565b606091505b5091509150613d8387838387614512565b979650505050505050565b613dc96040518060a001604052806060815260200160006001600160a01b031681526020016000815260200160008152602001600081525090565b604080517331440bfa4d67f668a3e1de99f8dac3c1436068f360621b602082015261017760eb1b60348201527382af49447d8a07e3bd95bd0d56f35241523fbab160601b6037820152607d60ea1b604b8201526001720d1eb3cbf69c6bd6f96b78144375982844946760631b0319604e8201528151604281830301815260629091019091526000613e5985614589565b828452306020850152426040850152606084018690529050612710613e7e8583615731565b613e88919061575e565b608084015260405163c04b8d5960e01b815273e592427a0aece92de3edee1f18e0157c058615649063c04b8d5990613ec4908690600401615b3b565b6020604051808303816000875af1158015613ee3573d6000803e3d6000fd5b505050506040513d601f19601f82011682018060405250810190610a6c9190615149565b6000806fa2a8918ca85bafe22016d0b997e4df60600160ff1b03831115613f345750600090506003613029565b600060018787878760405160008152602001604052604051613f599493929190615797565b6020604051602081039080840390855afa158015613f7b573d6000803e3d6000fd5b5050604051601f1901519150506001600160a01b038116613fa457600060019250925050613029565b9660009650945050505050565b613fb96131a4565b6040805160028082526060820183526000926020830190803683370190505090508181600081518110613fee57613fee6156aa565b60200260200101818152505060008160018151811061400f5761400f6156aa565b602090810291909101015260405163f9273ffb60e01b8152600090600080516020615e8a8339815191529063f9273ffb90614052903090869086906004016156fb565b602060405180830381865afa15801561406f573d6000803e3d6000fd5b505050506040513d601f19601f820116820180604052508101906140939190615149565b905061409d6117f8565b8111156140af576140ac6117f8565b90505b604051632e1a7d4d60e01b815260048101829052600080516020615e6a83398151915290632e1a7d4d90602401600060405180830381600087803b1580156140f657600080fd5b505af115801561410a573d6000803e3d6000fd5b50505050600061271060cc54856141219190615731565b61412b919061575e565b6040516301f1d0ab60e51b8152909150600080516020615e8a83398151915290633e3a15609061416690859060009086904290600401615797565b6020604051808303816000875af1158015614185573d6000803e3d6000fd5b505050506040513d601f19601f82011682018060405250810190610ada9190615149565b60006141b36122e4565b60ca54909150613552906001600160a01b03168383611f6d565b6000808263ffffffff1660000361420b5760405162461bcd60e51b8152602060048201526002602482015261042560f41b60448201526064016109ed565b6040805160028082526060820183526000926020830190803683370190505090508381600081518110614240576142406156aa565b602002602001019063ffffffff16908163ffffffff168152505060008160018151811061426f5761426f6156aa565b602002602001019063ffffffff16908163ffffffff1681525050600080866001600160a01b031663883bdbfd846040518263ffffffff1660e01b81526004016142b89190615b93565b600060405180830381865afa1580156142d5573d6000803e3d6000fd5b505050506040513d6000823e601f3d908101601f191682016040526142fd9190810190615c6f565b91509150600082600081518110614316576143166156aa565b602002602001015183600181518110614331576143316156aa565b60200260200101516143439190615d3a565b905060008260008151811061435a5761435a6156aa565b602002602001015183600181518110614375576143756156aa565b60200260200101516143879190615d67565b905061439963ffffffff891683615d8e565b965060008260060b1280156143bf57506143b963ffffffff891683615dcc565b60060b15155b156143d257866143ce81615dee565b9750505b60006143eb6001600160a01b0363ffffffff8b16615e11565b9050614407600160201b600160c01b03602084901b1682615e43565b96505050505050509250929050565b60008061442286614614565b90506001600160801b036001600160a01b038216116144a85760006144506001600160a01b03831680615731565b9050836001600160a01b0316856001600160a01b03161061448857614483600160c01b876001600160801b03168361492c565b6144a0565b6144a081876001600160801b0316600160c01b61492c565b925050612cf0565b60006144c26001600160a01b03831680600160401b61492c565b9050836001600160a01b0316856001600160a01b0316106144fa576144f5600160801b876001600160801b03168361492c565b613d83565b613d8381876001600160801b0316600160801b61492c565b6060831561457f5782516000036145785761452c85612906565b6145785760405162461bcd60e51b815260206004820152601d60248201527f416464726573733a2063616c6c20746f206e6f6e2d636f6e747261637400000060448201526064016109ed565b5081611de2565b611de283836149de565b6000612fa073c31e54c7a869b9fcbecc14363cf510d1c41fa4437382af49447d8a07e3bd95bd0d56f35241523fbab173ff970a61a04b1ca14834a43f5de4533ebddb5cc861460f7344ca2be2bd6a7203ccdbb63eed8382274f737a15600080516020615eca8339815191527382af49447d8a07e3bd95bd0d56f35241523fbab189613c8b565b613c8b565b60008060008360020b1261462b578260020b614633565b8260020b6000035b9050620d89e8811115614659576040516315e4079d60e11b815260040160405180910390fd5b60008160011660000361467057600160801b614682565b6ffffcb933bd6fad37aa2d162d1a5940015b6001600160881b0316905060028216156146ac576ffff97272373d413259a46990580e213a0260801c5b60048216156146cb576ffff2e50f5f656932ef12357cf3c7fdcc0260801c5b60088216156146ea576fffe5caca7e10e4e61c3624eaa0941cd00260801c5b6010821615614709576fffcb9843d60f6159c9db58835c9266440260801c5b6020821615614728576fff973b41fa98c081472e6896dfb254c00260801c5b6040821615614747576fff2ea16466c96a3843ec78b326b528610260801c5b6080821615614766576ffe5dee046a99a2a811c461f1969c30530260801c5b610100821615614786576ffcbe86c7900a88aedcffc83b479aa3a40260801c5b6102008216156147a6576ff987a7253ac413176f2b074cf7815e540260801c5b6104008216156147c6576ff3392b0822b70005940c7a398e4b70f30260801c5b6108008216156147e6576fe7159475a2c29b7443b29c7fa6e889d90260801c5b611000821615614806576fd097f3bdfd2022b8845ad8f792aa58250260801c5b612000821615614826576fa9f746462d870fdf8a65dc1f90e061e50260801c5b614000821615614846576f70d869a156d2a1b890bb3df62baf32f70260801c5b618000821615614866576f31be135f97d08fd981231505542fcfa60260801c5b62010000821615614887576f09aa508b5b7a84e1c677de54f3e99bc90260801c5b620200008216156148a7576e5d6af8dedb81196699c329225ee6040260801c5b620400008216156148c6576d2216e584f5fa1ea926041bedfe980260801c5b620800008216156148e3576b048a170391f7dc42444e8fa20260801c5b60008460020b131561490457806000198161490057614900615748565b0490505b600160201b81061561491757600161491a565b60005b60ff16602082901c0192505050919050565b6000808060001985870985870292508281108382030391505080600003614965576000841161495a57600080fd5b508290049050610d06565b80841161497157600080fd5b6000848688096000868103871696879004966002600389028118808a02820302808a02820302808a02820302808a02820302808a02820302808a02909103029181900381900460010186841190950394909402919094039290920491909117919091029150509392505050565b8151156149ee5781518083602001fd5b8060405162461bcd60e51b81526004016109ed9190614b6e565b803561ffff81168114614a1a57600080fd5b919050565b60008083601f840112614a3157600080fd5b5081356001600160401b03811115614a4857600080fd5b6020830191508360208285010111156138fd57600080fd5b80356001600160401b0381168114614a1a57600080fd5b60008060008060008060808789031215614a9057600080fd5b614a9987614a08565b955060208701356001600160401b0380821115614ab557600080fd5b614ac18a838b01614a1f565b9097509550859150614ad560408a01614a60565b94506060890135915080821115614aeb57600080fd5b50614af889828a01614a1f565b979a9699509497509295939492505050565b6001600160a01b0391909116815260200190565b60005b83811015614b39578181015183820152602001614b21565b50506000910152565b60008151808452614b5a816020860160208601614b1e565b601f01601f19169290920160200192915050565b602081526000612f9d6020830184614b42565b600060208284031215614b9357600080fd5b612f9d82614a08565b60008060408385031215614baf57600080fd5b614bb883614a08565b946020939093013593505050565b6001600160a01b0381168114610bc657600080fd5b600060208284031215614bed57600080fd5b8135610d0681614bc6565b600060208284031215614c0a57600080fd5b5035919050565b600080600060408486031215614c2657600080fd5b614c2f84614a08565b925060208401356001600160401b03811115614c4a57600080fd5b614c5686828701614a1f565b9497909650939450505050565b8015158114610bc657600080fd5b600060208284031215614c8357600080fd5b8135610d0681614c63565b634e487b7160e01b600052604160045260246000fd5b604051602081016001600160401b0381118282101715614cc657614cc6614c8e565b60405290565b604051601f8201601f191681016001600160401b0381118282101715614cf457614cf4614c8e565b604052919050565b60006001600160401b03821115614d1557614d15614c8e565b50601f01601f191660200190565b600082601f830112614d3457600080fd5b8135614d47614d4282614cfc565b614ccc565b818152846020838601011115614d5c57600080fd5b816020850160208301376000918101602001919091529392505050565b600080600080600060a08688031215614d9157600080fd5b8535945060208601359350604086013592506060860135915060808601356001600160401b03811115614dc357600080fd5b614dcf88828901614d23565b9150509295509295909350565b600080600060608486031215614df157600080fd5b614dfa84614a08565b925060208401356001600160401b03811115614e1557600080fd5b614e2186828701614d23565b925050614e3060408501614a60565b90509250925092565b600080600080600080600080610100898b031215614e5657600080fd5b8835614e6181614bc6565b97506020890135614e7181614bc6565b96506040890135614e8181614bc6565b95506060890135614e9181614bc6565b9450614e9f60808a01614a08565b935060a0890135614eaf81614bc6565b925060c0890135614ebf81614bc6565b8092505060e089013590509295985092959890939650565b60008060408385031215614eea57600080fd5b614ef383614a08565b9150614f0160208401614a08565b90509250929050565b600060608284031215614f1c57600080fd5b604051606081016001600160401b0381118282101715614f3e57614f3e614c8e565b6040528235614f4c81614bc6565b8152602083810135908201526040830135614f6681614c63565b60408201529392505050565b60008060008060008060c08789031215614f8b57600080fd5b614f9487614a08565b955060208701356001600160401b0380821115614fb057600080fd5b614fbc8a838b01614d23565b96506040890135955060608901359150614fd582614bc6565b9093506080880135925060a08801359080821115614ff257600080fd5b50614fff89828a01614d23565b9150509295509295509295565b60008060008060006080868803121561502457600080fd5b61502d86614a08565b945061503b60208701614a08565b93506040860135925060608601356001600160401b0381111561505d57600080fd5b61506988828901614a1f565b969995985093965092949392505050565b60008060006060848603121561508f57600080fd5b61509884614a08565b92506150a660208501614a08565b9150604084013590509250925092565b600080600080608085870312156150cc57600080fd5b84356150d781614bc6565b935060208501356150e781614bc6565b93969395505050506040820135916060013590565b6000806000806080858703121561511257600080fd5b61511b85614a08565b935061512960208601614a08565b9250604085013561513981614bc6565b9396929550929360600135925050565b60006020828403121561515b57600080fd5b5051919050565b600181811c9082168061517657607f821691505b60208210810361519657634e487b7160e01b600052602260045260246000fd5b50919050565b8183823760009101908152919050565b81835281816020850137506000828201602090810191909152601f909101601f19169091010190565b61ffff84168152604060208201526000611ddf6040830184866151ac565b634e487b7160e01b600052601160045260246000fd5b81810381811115612fa057612fa06151f3565b80820180821115612fa057612fa06151f3565b600060018201615241576152416151f3565b5060010190565b634e487b7160e01b600052602160045260246000fd5b6005811061527c57634e487b7160e01b600052602160045260246000fd5b9052565b61528a818461525e565b604060208201526152a76040820183516001600160a01b03169052565b6020820151606082015260408201516080820152606082015160a0820152608082015160c082015260a082015160e0820152600060c0830151610100818185015260e085015191506101208281860152818601519250610140915082828601528086015192505061016082818601528186015192508061018086015250506153336101a0840182614b42565b95945050505050565b8284823760609190911b6001600160601b0319169101908152601401919050565b601f821115611fc357600081815260208120601f850160051c810160208610156153845750805b601f850160051c820191505b81811015610a6c57828155600101615390565b600019600383901b1c191660019190911b1790565b81516001600160401b038111156153d1576153d1614c8e565b6153e5816153df8454615162565b8461535d565b602080601f83116001811461541457600084156154025750858301515b61540c85826153a3565b865550610a6c565b600085815260208120601f198616915b8281101561544357888601518255948401946001909101908401615424565b50858210156154615787850151600019600388901b60f8161c191681555b5050505050600190811b01905550565b60008251615483818460208701614b1e565b9190910192915050565b805160208201516001600160601b031980821692919060148310156154bc5780818460140360031b1b83161693505b505050919050565b600061ffff808816835280871660208401525084604083015260806060830152613d836080830184866151ac565b61ffff861681526080602082015260006155106080830186886151ac565b6001600160401b0394909416604083015250606001529392505050565b6001600160401b0383111561554457615544614c8e565b615558836155528354615162565b8361535d565b6000601f84116001811461558657600085156155745750838201355b61557e86826153a3565b845550610ada565b600083815260209020601f19861690835b828110156155b75786850135825560209485019460019092019101615597565b50868210156155d45760001960f88860031b161c19848701351681555b505060018560011b0183555050505050565b6000602082840312156155f857600080fd5b81516001600160401b0381111561560e57600080fd5b8201601f8101841361561f57600080fd5b805161562d614d4282614cfc565b81815285602083850101111561564257600080fd5b615333826020830160208601614b1e565b61ffff851681526080602082015260006156706080830186614b42565b6001600160401b03851660408401528281036060840152613d838185614b42565b6001600160a01b03929092168252602082015260400190565b634e487b7160e01b600052603260045260246000fd5b600081518084526020808501945080840160005b838110156156f0578151875295820195908201906001016156d4565b509495945050505050565b6001600160a01b038416815260606020820181905260009061571f908301856156c0565b90508215156040830152949350505050565b8082028115828204841417612fa057612fa06151f3565b634e487b7160e01b600052601260045260246000fd5b60008261576d5761576d615748565b500490565b60608152600061578560608301866156c0565b60208301949094525060400152919050565b93845260ff9290921660208401526040830152606082015260800190565b61ffff841681526001600160a01b0383166020820152606060408201819052600090611ddf90830184614b42565b6001600160a01b0386811682526020820186905261ffff851660408301528316606082015260a060808201819052600090613d8390830184614b42565b61ffff861681526001600160a01b038516602082015260a06040820181905260009061584e90830186614b42565b841515606084015282810360808401526158688185614b42565b98975050505050505050565b6000806040838503121561588757600080fd5b505080516020909101519092909150565b61ffff8716815260c0602082015260006158b560c0830188614b42565b82810360408401526158c78188614b42565b6001600160a01b0387811660608601528616608085015283810360a085015290506158f28185614b42565b9998505050505050505050565b6020808252602b908201527f496e697469616c697a61626c653a20636f6e7472616374206973206e6f74206960408201526a6e697469616c697a696e6760a81b606082015260800190565b60006020828403121561595c57600080fd5b815160ff81168114610d0657600080fd5b60006020828403121561597f57600080fd5b8151610d0681614c63565b61ffff8616815260a0602082015260006159a760a0830187614b42565b6001600160401b038616604084015282810360608401526159c88186614b42565b905082810360808401526158688185614b42565b6000602082840312156159ee57600080fd5b815160058110610d0657600080fd5b6000808284036040811215615a1157600080fd5b835192506020601f1982011215615a2757600080fd5b50615a30614ca4565b6020939093015183525092909150565b6000808284036060811215615a5457600080fd5b835192506040601f1982011215615a6a57600080fd5b50604080519081016001600160401b0381118282101715615a8d57615a8d614c8e565b60409081526020858101518352940151938101939093525092909150565b6000808284036040811215615abf57600080fd5b835192506020601f1982011215615ad557600080fd5b50615ade614ca4565b6020840151615aec81614bc6565b8152919491935090915050565b60a08101615b07828561525e565b60018060a01b0383511660208301526020830151604083015260408301516060830152606083015160808301529392505050565b602081526000825160a06020840152615b5760c0840182614b42565b905060018060a01b0360208501511660408401526040840151606084015260608401516080840152608084015160a08401528091505092915050565b6020808252825182820181905260009190848201906040850190845b81811015615bd157835163ffffffff1683529284019291840191600101615baf565b50909695505050505050565b60006001600160401b03821115615bf657615bf6614c8e565b5060051b60200190565b600082601f830112615c1157600080fd5b81516020615c21614d4283615bdd565b82815260059290921b84018101918181019086841115615c4057600080fd5b8286015b84811015615c64578051615c5781614bc6565b8352918301918301615c44565b509695505050505050565b60008060408385031215615c8257600080fd5b82516001600160401b0380821115615c9957600080fd5b818501915085601f830112615cad57600080fd5b81516020615cbd614d4283615bdd565b82815260059290921b84018101918181019089841115615cdc57600080fd5b948201945b83861015615d0a5785518060060b8114615cfb5760008081fd5b82529482019490820190615ce1565b91880151919650909350505080821115615d2357600080fd5b50615d3085828601615c00565b9150509250929050565b600682810b9082900b03667fffffffffffff198112667fffffffffffff82131715612fa057612fa06151f3565b6001600160a01b03828116828216039080821115615d8757615d876151f3565b5092915050565b60008160060b8360060b80615da557615da5615748565b667fffffffffffff19821460001982141615615dc357615dc36151f3565b90059392505050565b60008260060b80615ddf57615ddf615748565b808360060b0791505092915050565b60008160020b627fffff198103615e0757615e076151f3565b6000190192915050565b6001600160c01b03828116828216818102831692918115828504821417615e3a57615e3a6151f3565b50505092915050565b60006001600160c01b0383811680615e5d57615e5d615748565b9216919091049291505056fe000000000000000000000000b0cabfe930642ad3e7decdc741884d8c3f7ebc7000000000000000000000000010541b07d8ad2647dc6cd67abd4c03575dade261b0c58532a125fc3c0adccaef396bf65344a4d5781cec2e4c593e6b611d75f150000000000000000000000000c5102fe9359fd9a28f877a67e36b0f050d81a3cca264697066735822122059f3f94865473543648435225212f5a56aa5c42bbf4b4fa41d85d372dcb1794664736f6c63430008130033",
  "linkReferences": {},
  "deployedLinkReferences": {}
}