{
  "_format": "hh-sol-artifact-1",
  "contractName": "HopStrategy",
  "sourceName": "contracts/strategies/HopStrategy.sol",
  "abi": [
    {
      "inputs": [
        {
          "internalType": "uint256",
          "name": "messageType",
          "type": "uint256"
        }
      ],
      "name": "IncorrectMessageType",
      "type": "error"
    },
    {
      "inputs": [],
      "name": "InitializeQuoteBufferWithHopToWantValue",
      "type": "error"
    },
    {
      "inputs": [
        {
          "internalType": "uint256",
          "name": "amount",
          "type": "uint256"
        },
        {
          "internalType": "uint256",
          "name": "balance",
          "type": "uint256"
        }
      ],
      "name": "InsufficientFunds",
      "type": "error"
    },
    {
      "inputs": [],
      "name": "T",
      "type": "error"
    },
    {
      "anonymous": false,
      "inputs": [
        {
          "indexed": false,
          "internalType": "uint256",
          "name": "debtOutstanding",
          "type": "uint256"
        }
      ],
      "name": "AdjustedPosition",
      "type": "event"
    },
    {
      "anonymous": false,
      "inputs": [
        {
          "indexed": false,
          "internalType": "uint8",
          "name": "version",
          "type": "uint8"
        }
      ],
      "name": "Initialized",
      "type": "event"
    },
    {
      "anonymous": false,
      "inputs": [
        {
          "indexed": false,
          "internalType": "uint16",
          "name": "_srcChainId",
          "type": "uint16"
        },
        {
          "indexed": false,
          "internalType": "bytes",
          "name": "_srcAddress",
          "type": "bytes"
        },
        {
          "indexed": false,
          "internalType": "uint64",
          "name": "_nonce",
          "type": "uint64"
        },
        {
          "indexed": false,
          "internalType": "bytes",
          "name": "_payload",
          "type": "bytes"
        },
        {
          "indexed": false,
          "internalType": "bytes",
          "name": "_reason",
          "type": "bytes"
        }
      ],
      "name": "MessageFailed",
      "type": "event"
    },
    {
      "anonymous": false,
      "inputs": [
        {
          "indexed": true,
          "internalType": "address",
          "name": "previousOwner",
          "type": "address"
        },
        {
          "indexed": true,
          "internalType": "address",
          "name": "newOwner",
          "type": "address"
        }
      ],
      "name": "OwnershipTransferred",
      "type": "event"
    },
    {
      "anonymous": false,
      "inputs": [
        {
          "indexed": false,
          "internalType": "uint16",
          "name": "_srcChainId",
          "type": "uint16"
        },
        {
          "indexed": false,
          "internalType": "bytes",
          "name": "_srcAddress",
          "type": "bytes"
        },
        {
          "indexed": false,
          "internalType": "uint64",
          "name": "_nonce",
          "type": "uint64"
        },
        {
          "indexed": false,
          "internalType": "bytes32",
          "name": "_payloadHash",
          "type": "bytes32"
        }
      ],
      "name": "RetryMessageSuccess",
      "type": "event"
    },
    {
      "anonymous": false,
      "inputs": [
        {
          "indexed": true,
          "internalType": "bytes32",
          "name": "role",
          "type": "bytes32"
        },
        {
          "indexed": true,
          "internalType": "bytes32",
          "name": "previousAdminRole",
          "type": "bytes32"
        },
        {
          "indexed": true,
          "internalType": "bytes32",
          "name": "newAdminRole",
          "type": "bytes32"
        }
      ],
      "name": "RoleAdminChanged",
      "type": "event"
    },
    {
      "anonymous": false,
      "inputs": [
        {
          "indexed": true,
          "internalType": "bytes32",
          "name": "role",
          "type": "bytes32"
        },
        {
          "indexed": true,
          "internalType": "address",
          "name": "account",
          "type": "address"
        },
        {
          "indexed": true,
          "internalType": "address",
          "name": "sender",
          "type": "address"
        }
      ],
      "name": "RoleGranted",
      "type": "event"
    },
    {
      "anonymous": false,
      "inputs": [
        {
          "indexed": true,
          "internalType": "bytes32",
          "name": "role",
          "type": "bytes32"
        },
        {
          "indexed": true,
          "internalType": "address",
          "name": "account",
          "type": "address"
        },
        {
          "indexed": true,
          "internalType": "address",
          "name": "sender",
          "type": "address"
        }
      ],
      "name": "RoleRevoked",
      "type": "event"
    },
    {
      "anonymous": false,
      "inputs": [
        {
          "indexed": false,
          "internalType": "uint16",
          "name": "_dstChainId",
          "type": "uint16"
        },
        {
          "indexed": false,
          "internalType": "uint16",
          "name": "_type",
          "type": "uint16"
        },
        {
          "indexed": false,
          "internalType": "uint256",
          "name": "_minDstGas",
          "type": "uint256"
        }
      ],
      "name": "SetMinDstGas",
      "type": "event"
    },
    {
      "anonymous": false,
      "inputs": [
        {
          "indexed": false,
          "internalType": "address",
          "name": "precrime",
          "type": "address"
        }
      ],
      "name": "SetPrecrime",
      "type": "event"
    },
    {
      "anonymous": false,
      "inputs": [
        {
          "indexed": false,
          "internalType": "uint16",
          "name": "_remoteChainId",
          "type": "uint16"
        },
        {
          "indexed": false,
          "internalType": "bytes",
          "name": "_path",
          "type": "bytes"
        }
      ],
      "name": "SetTrustedRemote",
      "type": "event"
    },
    {
      "anonymous": false,
      "inputs": [
        {
          "indexed": false,
          "internalType": "uint16",
          "name": "_remoteChainId",
          "type": "uint16"
        },
        {
          "indexed": false,
          "internalType": "bytes",
          "name": "_remoteAddress",
          "type": "bytes"
        }
      ],
      "name": "SetTrustedRemoteAddress",
      "type": "event"
    },
    {
      "anonymous": false,
      "inputs": [
        {
          "indexed": true,
          "internalType": "address",
          "name": "token",
          "type": "address"
        },
        {
          "indexed": false,
          "internalType": "uint256",
          "name": "amount",
          "type": "uint256"
        },
        {
          "indexed": false,
          "internalType": "address",
          "name": "sender",
          "type": "address"
        }
      ],
      "name": "SgReceived",
      "type": "event"
    },
    {
      "anonymous": false,
      "inputs": [
        {
          "indexed": false,
          "internalType": "address",
          "name": "newStrategy",
          "type": "address"
        }
      ],
      "name": "StrategyMigrated",
      "type": "event"
    },
    {
      "anonymous": false,
      "inputs": [
        {
          "indexed": false,
          "internalType": "uint256",
          "name": "profit",
          "type": "uint256"
        },
        {
          "indexed": false,
          "internalType": "uint256",
          "name": "loss",
          "type": "uint256"
        },
        {
          "indexed": false,
          "internalType": "uint256",
          "name": "debtPayment",
          "type": "uint256"
        },
        {
          "indexed": false,
          "internalType": "uint256",
          "name": "giveToStrategy",
          "type": "uint256"
        },
        {
          "indexed": false,
          "internalType": "uint256",
          "name": "requestFromStrategy",
          "type": "uint256"
        },
        {
          "indexed": false,
          "internalType": "uint256",
          "name": "creditAvailable",
          "type": "uint256"
        },
        {
          "indexed": false,
          "internalType": "uint256",
          "name": "totalAssets",
          "type": "uint256"
        }
      ],
      "name": "StrategyReported",
      "type": "event"
    },
    {
      "inputs": [],
      "name": "DEFAULT_ADMIN_ROLE",
      "outputs": [
        {
          "internalType": "bytes32",
          "name": "",
          "type": "bytes32"
        }
      ],
      "stateMutability": "view",
      "type": "function"
    },
    {
      "inputs": [],
      "name": "DEFAULT_PAYLOAD_SIZE_LIMIT",
      "outputs": [
        {
          "internalType": "uint256",
          "name": "",
          "type": "uint256"
        }
      ],
      "stateMutability": "view",
      "type": "function"
    },
    {
      "inputs": [
        {
          "internalType": "uint256",
          "name": "_debtOutstanding",
          "type": "uint256"
        }
      ],
      "name": "adjustPosition",
      "outputs": [],
      "stateMutability": "nonpayable",
      "type": "function"
    },
    {
      "inputs": [],
      "name": "balanceOfWant",
      "outputs": [
        {
          "internalType": "uint256",
          "name": "",
          "type": "uint256"
        }
      ],
      "stateMutability": "view",
      "type": "function"
    },
    {
      "inputs": [
        {
          "internalType": "uint256",
          "name": "epoch",
          "type": "uint256"
        }
      ],
      "name": "callMe",
      "outputs": [],
      "stateMutability": "nonpayable",
      "type": "function"
    },
    {
      "inputs": [],
      "name": "clearWant",
      "outputs": [],
      "stateMutability": "nonpayable",
      "type": "function"
    },
    {
      "inputs": [],
      "name": "currentChainId",
      "outputs": [
        {
          "internalType": "uint16",
          "name": "",
          "type": "uint16"
        }
      ],
      "stateMutability": "view",
      "type": "function"
    },
    {
      "inputs": [],
      "name": "emergencyExit",
      "outputs": [
        {
          "internalType": "bool",
          "name": "",
          "type": "bool"
        }
      ],
      "stateMutability": "view",
      "type": "function"
    },
    {
      "inputs": [],
      "name": "estimatedTotalAssets",
      "outputs": [
        {
          "internalType": "uint256",
          "name": "",
          "type": "uint256"
        }
      ],
      "stateMutability": "view",
      "type": "function"
    },
    {
      "inputs": [
        {
          "internalType": "uint16",
          "name": "",
          "type": "uint16"
        },
        {
          "internalType": "bytes",
          "name": "",
          "type": "bytes"
        },
        {
          "internalType": "uint64",
          "name": "",
          "type": "uint64"
        }
      ],
      "name": "failedMessages",
      "outputs": [
        {
          "internalType": "bytes32",
          "name": "",
          "type": "bytes32"
        }
      ],
      "stateMutability": "view",
      "type": "function"
    },
    {
      "inputs": [
        {
          "internalType": "uint16",
          "name": "_srcChainId",
          "type": "uint16"
        },
        {
          "internalType": "bytes",
          "name": "_srcAddress",
          "type": "bytes"
        }
      ],
      "name": "forceResumeReceive",
      "outputs": [],
      "stateMutability": "nonpayable",
      "type": "function"
    },
    {
      "inputs": [
        {
          "internalType": "uint16",
          "name": "_version",
          "type": "uint16"
        },
        {
          "internalType": "uint16",
          "name": "_chainId",
          "type": "uint16"
        },
        {
          "internalType": "address",
          "name": "",
          "type": "address"
        },
        {
          "internalType": "uint256",
          "name": "_configType",
          "type": "uint256"
        }
      ],
      "name": "getConfig",
      "outputs": [
        {
          "internalType": "bytes",
          "name": "",
          "type": "bytes"
        }
      ],
      "stateMutability": "view",
      "type": "function"
    },
    {
      "inputs": [
        {
          "internalType": "bytes32",
          "name": "_messageHash",
          "type": "bytes32"
        }
      ],
      "name": "getEthSignedMessageHash",
      "outputs": [
        {
          "internalType": "bytes32",
          "name": "",
          "type": "bytes32"
        }
      ],
      "stateMutability": "pure",
      "type": "function"
    },
    {
      "inputs": [
        {
          "internalType": "bytes32",
          "name": "role",
          "type": "bytes32"
        }
      ],
      "name": "getRoleAdmin",
      "outputs": [
        {
          "internalType": "bytes32",
          "name": "",
          "type": "bytes32"
        }
      ],
      "stateMutability": "view",
      "type": "function"
    },
    {
      "inputs": [
        {
          "internalType": "uint16",
          "name": "_remoteChainId",
          "type": "uint16"
        }
      ],
      "name": "getTrustedRemoteAddress",
      "outputs": [
        {
          "internalType": "bytes",
          "name": "",
          "type": "bytes"
        }
      ],
      "stateMutability": "view",
      "type": "function"
    },
    {
      "inputs": [
        {
          "internalType": "bytes32",
          "name": "role",
          "type": "bytes32"
        },
        {
          "internalType": "address",
          "name": "account",
          "type": "address"
        }
      ],
      "name": "grantRole",
      "outputs": [],
      "stateMutability": "nonpayable",
      "type": "function"
    },
    {
      "inputs": [
        {
          "internalType": "uint256",
          "name": "_totalDebt",
          "type": "uint256"
        },
        {
          "internalType": "uint256",
          "name": "_debtOutstanding",
          "type": "uint256"
        },
        {
          "internalType": "uint256",
          "name": "_creditAvailable",
          "type": "uint256"
        },
        {
          "internalType": "uint256",
          "name": "_debtRatio",
          "type": "uint256"
        },
        {
          "internalType": "bytes",
          "name": "_signature",
          "type": "bytes"
        }
      ],
      "name": "harvest",
      "outputs": [],
      "stateMutability": "nonpayable",
      "type": "function"
    },
    {
      "inputs": [
        {
          "internalType": "bytes32",
          "name": "role",
          "type": "bytes32"
        },
        {
          "internalType": "address",
          "name": "account",
          "type": "address"
        }
      ],
      "name": "hasRole",
      "outputs": [
        {
          "internalType": "bool",
          "name": "",
          "type": "bool"
        }
      ],
      "stateMutability": "view",
      "type": "function"
    },
    {
      "inputs": [
        {
          "internalType": "address",
          "name": "_lzEndpoint",
          "type": "address"
        },
        {
          "internalType": "address",
          "name": "_strategist",
          "type": "address"
        },
        {
          "internalType": "contract IERC20",
          "name": "_want",
          "type": "address"
        },
        {
          "internalType": "address",
          "name": "_vault",
          "type": "address"
        },
        {
          "internalType": "uint16",
          "name": "_vaultChainId",
          "type": "uint16"
        },
        {
          "internalType": "address",
          "name": "_sgBridge",
          "type": "address"
        },
        {
          "internalType": "address",
          "name": "_sgRouter",
          "type": "address"
        },
        {
          "internalType": "uint256",
          "name": "_slippage",
          "type": "uint256"
        }
      ],
      "name": "initialize",
      "outputs": [],
      "stateMutability": "nonpayable",
      "type": "function"
    },
    {
      "inputs": [],
      "name": "initializeQuoteBufferWithHopToWantValue",
      "outputs": [],
      "stateMutability": "nonpayable",
      "type": "function"
    },
    {
      "inputs": [
        {
          "internalType": "uint16",
          "name": "_srcChainId",
          "type": "uint16"
        },
        {
          "internalType": "bytes",
          "name": "_srcAddress",
          "type": "bytes"
        }
      ],
      "name": "isTrustedRemote",
      "outputs": [
        {
          "internalType": "bool",
          "name": "",
          "type": "bool"
        }
      ],
      "stateMutability": "view",
      "type": "function"
    },
    {
      "inputs": [],
      "name": "lzEndpoint",
      "outputs": [
        {
          "internalType": "contract ILayerZeroEndpointUpgradeable",
          "name": "",
          "type": "address"
        }
      ],
      "stateMutability": "view",
      "type": "function"
    },
    {
      "inputs": [
        {
          "internalType": "uint16",
          "name": "_srcChainId",
          "type": "uint16"
        },
        {
          "internalType": "bytes",
          "name": "_srcAddress",
          "type": "bytes"
        },
        {
          "internalType": "uint64",
          "name": "_nonce",
          "type": "uint64"
        },
        {
          "internalType": "bytes",
          "name": "_payload",
          "type": "bytes"
        }
      ],
      "name": "lzReceive",
      "outputs": [],
      "stateMutability": "nonpayable",
      "type": "function"
    },
    {
      "inputs": [
        {
          "internalType": "uint16",
          "name": "",
          "type": "uint16"
        },
        {
          "internalType": "uint16",
          "name": "",
          "type": "uint16"
        }
      ],
      "name": "minDstGasLookup",
      "outputs": [
        {
          "internalType": "uint256",
          "name": "",
          "type": "uint256"
        }
      ],
      "stateMutability": "view",
      "type": "function"
    },
    {
      "inputs": [],
      "name": "name",
      "outputs": [
        {
          "internalType": "string",
          "name": "",
          "type": "string"
        }
      ],
      "stateMutability": "pure",
      "type": "function"
    },
    {
      "inputs": [
        {
          "internalType": "uint16",
          "name": "_srcChainId",
          "type": "uint16"
        },
        {
          "internalType": "bytes",
          "name": "_srcAddress",
          "type": "bytes"
        },
        {
          "internalType": "uint64",
          "name": "_nonce",
          "type": "uint64"
        },
        {
          "internalType": "bytes",
          "name": "_payload",
          "type": "bytes"
        }
      ],
      "name": "nonblockingLzReceive",
      "outputs": [],
      "stateMutability": "nonpayable",
      "type": "function"
    },
    {
      "inputs": [
        {
          "internalType": "address",
          "name": "",
          "type": "address"
        },
        {
          "internalType": "address",
          "name": "",
          "type": "address"
        },
        {
          "internalType": "uint256",
          "name": "amountOut",
          "type": "uint256"
        },
        {
          "internalType": "uint256",
          "name": "",
          "type": "uint256"
        }
      ],
      "name": "notifyCallback",
      "outputs": [],
      "stateMutability": "nonpayable",
      "type": "function"
    },
    {
      "inputs": [],
      "name": "owner",
      "outputs": [
        {
          "internalType": "address",
          "name": "",
          "type": "address"
        }
      ],
      "stateMutability": "view",
      "type": "function"
    },
    {
      "inputs": [
        {
          "internalType": "uint16",
          "name": "",
          "type": "uint16"
        }
      ],
      "name": "payloadSizeLimitLookup",
      "outputs": [
        {
          "internalType": "uint256",
          "name": "",
          "type": "uint256"
        }
      ],
      "stateMutability": "view",
      "type": "function"
    },
    {
      "inputs": [],
      "name": "precrime",
      "outputs": [
        {
          "internalType": "address",
          "name": "",
          "type": "address"
        }
      ],
      "stateMutability": "view",
      "type": "function"
    },
    {
      "inputs": [],
      "name": "renounceOwnership",
      "outputs": [],
      "stateMutability": "nonpayable",
      "type": "function"
    },
    {
      "inputs": [
        {
          "internalType": "bytes32",
          "name": "role",
          "type": "bytes32"
        },
        {
          "internalType": "address",
          "name": "account",
          "type": "address"
        }
      ],
      "name": "renounceRole",
      "outputs": [],
      "stateMutability": "nonpayable",
      "type": "function"
    },
    {
      "inputs": [
        {
          "internalType": "uint16",
          "name": "_srcChainId",
          "type": "uint16"
        },
        {
          "internalType": "bytes",
          "name": "_srcAddress",
          "type": "bytes"
        },
        {
          "internalType": "uint64",
          "name": "_nonce",
          "type": "uint64"
        },
        {
          "internalType": "bytes",
          "name": "_payload",
          "type": "bytes"
        }
      ],
      "name": "retryMessage",
      "outputs": [],
      "stateMutability": "payable",
      "type": "function"
    },
    {
      "inputs": [],
      "name": "revokeFunds",
      "outputs": [],
      "stateMutability": "nonpayable",
      "type": "function"
    },
    {
      "inputs": [
        {
          "internalType": "bytes32",
          "name": "role",
          "type": "bytes32"
        },
        {
          "internalType": "address",
          "name": "account",
          "type": "address"
        }
      ],
      "name": "revokeRole",
      "outputs": [],
      "stateMutability": "nonpayable",
      "type": "function"
    },
    {
      "inputs": [
        {
          "internalType": "uint16",
          "name": "_version",
          "type": "uint16"
        },
        {
          "internalType": "uint16",
          "name": "_chainId",
          "type": "uint16"
        },
        {
          "internalType": "uint256",
          "name": "_configType",
          "type": "uint256"
        },
        {
          "internalType": "bytes",
          "name": "_config",
          "type": "bytes"
        }
      ],
      "name": "setConfig",
      "outputs": [],
      "stateMutability": "nonpayable",
      "type": "function"
    },
    {
      "inputs": [
        {
          "internalType": "bool",
          "name": "_emergencyExit",
          "type": "bool"
        }
      ],
      "name": "setEmergencyExit",
      "outputs": [],
      "stateMutability": "nonpayable",
      "type": "function"
    },
    {
      "inputs": [
        {
          "internalType": "uint16",
          "name": "_dstChainId",
          "type": "uint16"
        },
        {
          "internalType": "uint16",
          "name": "_packetType",
          "type": "uint16"
        },
        {
          "internalType": "uint256",
          "name": "_minGas",
          "type": "uint256"
        }
      ],
      "name": "setMinDstGas",
      "outputs": [],
      "stateMutability": "nonpayable",
      "type": "function"
    },
    {
      "inputs": [
        {
          "internalType": "uint16",
          "name": "_dstChainId",
          "type": "uint16"
        },
        {
          "internalType": "uint256",
          "name": "_size",
          "type": "uint256"
        }
      ],
      "name": "setPayloadSizeLimit",
      "outputs": [],
      "stateMutability": "nonpayable",
      "type": "function"
    },
    {
      "inputs": [
        {
          "internalType": "address",
          "name": "_precrime",
          "type": "address"
        }
      ],
      "name": "setPrecrime",
      "outputs": [],
      "stateMutability": "nonpayable",
      "type": "function"
    },
    {
      "inputs": [
        {
          "internalType": "uint16",
          "name": "_version",
          "type": "uint16"
        }
      ],
      "name": "setReceiveVersion",
      "outputs": [],
      "stateMutability": "nonpayable",
      "type": "function"
    },
    {
      "inputs": [
        {
          "internalType": "uint16",
          "name": "_version",
          "type": "uint16"
        }
      ],
      "name": "setSendVersion",
      "outputs": [],
      "stateMutability": "nonpayable",
      "type": "function"
    },
    {
      "inputs": [
        {
          "internalType": "uint256",
          "name": "_slippage",
          "type": "uint256"
        }
      ],
      "name": "setSlippage",
      "outputs": [],
      "stateMutability": "nonpayable",
      "type": "function"
    },
    {
      "inputs": [
        {
          "internalType": "address",
          "name": "_strategist",
          "type": "address"
        }
      ],
      "name": "setStrategist",
      "outputs": [],
      "stateMutability": "nonpayable",
      "type": "function"
    },
    {
      "inputs": [
        {
          "internalType": "address",
          "name": "_swapHelper",
          "type": "address"
        }
      ],
      "name": "setSwapHelper",
      "outputs": [],
      "stateMutability": "nonpayable",
      "type": "function"
    },
    {
      "inputs": [
        {
          "internalType": "uint16",
          "name": "_srcChainId",
          "type": "uint16"
        },
        {
          "internalType": "bytes",
          "name": "_path",
          "type": "bytes"
        }
      ],
      "name": "setTrustedRemote",
      "outputs": [],
      "stateMutability": "nonpayable",
      "type": "function"
    },
    {
      "inputs": [
        {
          "internalType": "uint16",
          "name": "_remoteChainId",
          "type": "uint16"
        },
        {
          "internalType": "bytes",
          "name": "_remoteAddress",
          "type": "bytes"
        }
      ],
      "name": "setTrustedRemoteAddress",
      "outputs": [],
      "stateMutability": "nonpayable",
      "type": "function"
    },
    {
      "inputs": [],
      "name": "sgBridge",
      "outputs": [
        {
          "internalType": "contract ISgBridge",
          "name": "",
          "type": "address"
        }
      ],
      "stateMutability": "view",
      "type": "function"
    },
    {
      "inputs": [
        {
          "internalType": "uint16",
          "name": "",
          "type": "uint16"
        },
        {
          "internalType": "bytes",
          "name": "_srcAddress",
          "type": "bytes"
        },
        {
          "internalType": "uint256",
          "name": "",
          "type": "uint256"
        },
        {
          "internalType": "address",
          "name": "_token",
          "type": "address"
        },
        {
          "internalType": "uint256",
          "name": "_amountLD",
          "type": "uint256"
        },
        {
          "internalType": "bytes",
          "name": "",
          "type": "bytes"
        }
      ],
      "name": "sgReceive",
      "outputs": [],
      "stateMutability": "nonpayable",
      "type": "function"
    },
    {
      "inputs": [],
      "name": "sgRouter",
      "outputs": [
        {
          "internalType": "contract IStargateRouter",
          "name": "",
          "type": "address"
        }
      ],
      "stateMutability": "view",
      "type": "function"
    },
    {
      "inputs": [],
      "name": "slippage",
      "outputs": [
        {
          "internalType": "uint256",
          "name": "",
          "type": "uint256"
        }
      ],
      "stateMutability": "view",
      "type": "function"
    },
    {
      "inputs": [],
      "name": "strategist",
      "outputs": [
        {
          "internalType": "address",
          "name": "",
          "type": "address"
        }
      ],
      "stateMutability": "view",
      "type": "function"
    },
    {
      "inputs": [],
      "name": "strategistSignMessageHash",
      "outputs": [
        {
          "internalType": "bytes32",
          "name": "",
          "type": "bytes32"
        }
      ],
      "stateMutability": "view",
      "type": "function"
    },
    {
      "inputs": [
        {
          "internalType": "bytes4",
          "name": "interfaceId",
          "type": "bytes4"
        }
      ],
      "name": "supportsInterface",
      "outputs": [
        {
          "internalType": "bool",
          "name": "",
          "type": "bool"
        }
      ],
      "stateMutability": "view",
      "type": "function"
    },
    {
      "inputs": [],
      "name": "swapHelper",
      "outputs": [
        {
          "internalType": "contract ISwapHelper",
          "name": "",
          "type": "address"
        }
      ],
      "stateMutability": "view",
      "type": "function"
    },
    {
      "inputs": [
        {
          "internalType": "contract IERC20",
          "name": "_token",
          "type": "address"
        }
      ],
      "name": "sweepToken",
      "outputs": [],
      "stateMutability": "nonpayable",
      "type": "function"
    },
    {
      "inputs": [
        {
          "internalType": "address",
          "name": "newOwner",
          "type": "address"
        }
      ],
      "name": "transferOwnership",
      "outputs": [],
      "stateMutability": "nonpayable",
      "type": "function"
    },
    {
      "inputs": [
        {
          "internalType": "uint16",
          "name": "",
          "type": "uint16"
        }
      ],
      "name": "trustedRemoteLookup",
      "outputs": [
        {
          "internalType": "bytes",
          "name": "",
          "type": "bytes"
        }
      ],
      "stateMutability": "view",
      "type": "function"
    },
    {
      "inputs": [],
      "name": "vault",
      "outputs": [
        {
          "internalType": "address",
          "name": "",
          "type": "address"
        }
      ],
      "stateMutability": "view",
      "type": "function"
    },
    {
      "inputs": [],
      "name": "vaultChainId",
      "outputs": [
        {
          "internalType": "uint16",
          "name": "",
          "type": "uint16"
        }
      ],
      "stateMutability": "view",
      "type": "function"
    },
    {
      "inputs": [],
      "name": "want",
      "outputs": [
        {
          "internalType": "contract IERC20",
          "name": "",
          "type": "address"
        }
      ],
      "stateMutability": "view",
      "type": "function"
    },
    {
      "inputs": [],
      "name": "wantDecimals",
      "outputs": [
        {
          "internalType": "uint8",
          "name": "",
          "type": "uint8"
        }
      ],
      "stateMutability": "view",
      "type": "function"
    },
    {
      "stateMutability": "payable",
      "type": "receive"
    }
  ],
  "bytecode": "0x608060405234801561001057600080fd5b506163b080620000216000396000f3fe6080604052600436106103305760003560e01c80637f555565116101a7578063c4461834116100ed578063eb8d72b711610090578063eb8d72b714610a6a578063efbb5cb014610a8a578063f056dffe14610a9f578063f0fa55a914610abf578063f2fde38b14610adf578063f5ecbdbc14610aff578063fa54080114610b1f578063fbfa77cf14610b3f57600080fd5b8063c446183414610981578063c7b9d53014610997578063cbed8b9c146109b7578063d1deba1f146109d7578063d547741f146109ea578063d73cd47f14610a0a578063df2a5b3b14610a2a578063e73620c314610a4a57600080fd5b8063a217fddf11610155578063a217fddf1461088f578063a6c3d165146108a4578063ab8236f3146108c4578063abe06ef7146108e4578063adf076e6146108f9578063b353aaa71461092c578063baf3292d1461094c578063c1a3d44c1461096c57600080fd5b80637f555565146107a45780638cfd8f5c146107c45780638da5cb5b146107fc57806391d148541461081a578063950c8a741461083a5780639606647d1461085a5780639f38369a1461086f57600080fd5b806337fded91116102775780635641ec031161021a5780635641ec031461067a578063567ad85d14610694578063593178de146106c95780635b8c41e6146106de57806366ad5c8a1461072d5780636cbadbfa1461074d578063715018a61461076f5780637533d7881461078457600080fd5b806337fded91146105725780633d3ccc2f146105975780633d8b38f6146105b75780633e032a3b146105d75780633f1f4fa4146105ed57806342d65a8d1461061a57806345ee07551461063a578063495f881e1461065a57600080fd5b806310ddb137116102df57806310ddb1371461045e5780631be195601461047e5780631f1fcd511461049e5780631fe4a686146104be578063248a9ca3146104de5780632d6068431461051d5780632f2ff15d1461053257806336568abe1461055257600080fd5b80621d35671461033c57806301ffc9a71461035e5780630517cb761461039357806306fdde03146103c057806307e0db17146103fd5780630df374831461041d5780630fc6a11c1461043d57600080fd5b3661033757005b600080fd5b34801561034857600080fd5b5061035c610357366004614f2e565b610b5f565b005b34801561036a57600080fd5b5061037e610379366004614fc1565b610c48565b60405190151581526020015b60405180910390f35b34801561039f57600080fd5b5060ce546103b3906001600160a01b031681565b60405161038a9190614feb565b3480156103cc57600080fd5b5060408051808201909152600b81526a486f70537472617465677960a81b60208201525b60405161038a919061504f565b34801561040957600080fd5b5061035c610418366004615062565b610c7f565b34801561042957600080fd5b5061035c61043836600461507d565b610cec565b34801561044957600080fd5b50610135546103b3906001600160a01b031681565b34801561046a57600080fd5b5061035c610479366004615062565b610d0b565b34801561048a57600080fd5b5061035c6104993660046150bc565b610d47565b3480156104aa57600080fd5b5060ca546103b3906001600160a01b031681565b3480156104ca57600080fd5b5060c9546103b3906001600160a01b031681565b3480156104ea57600080fd5b5061050f6104f93660046150d9565b6000908152610103602052604090206001015490565b60405190815260200161038a565b34801561052957600080fd5b5061035c610dd4565b34801561053e57600080fd5b5061035c61054d3660046150f2565b610e15565b34801561055e57600080fd5b5061035c61056d3660046150f2565b610e40565b34801561057e57600080fd5b5060cd546103b39061010090046001600160a01b031681565b3480156105a357600080fd5b5061035c6105b23660046150d9565b610ebe565b3480156105c357600080fd5b5061037e6105d2366004615122565b610f06565b3480156105e357600080fd5b5061050f60cc5481565b3480156105f957600080fd5b5061050f610608366004615062565b60686020526000908152604090205481565b34801561062657600080fd5b5061035c610635366004615122565b610fd3565b34801561064657600080fd5b5061035c610655366004615182565b611046565b34801561066657600080fd5b5061035c61067536600461528a565b611061565b34801561068657600080fd5b5060cd5461037e9060ff1681565b3480156106a057600080fd5b5060cb546106b690600160a01b900461ffff1681565b60405161ffff909116815260200161038a565b3480156106d557600080fd5b5061050f611305565b3480156106ea57600080fd5b5061050f6106f93660046152ed565b6097602090815260009384526040808520845180860184018051928152908401958401959095209452929052825290205481565b34801561073957600080fd5b5061035c610748366004614f2e565b611363565b34801561075957600080fd5b5060cb546106b690600160b01b900461ffff1681565b34801561077b57600080fd5b5061035c611437565b34801561079057600080fd5b506103f061079f366004615062565b61144b565b3480156107b057600080fd5b5061035c6107bf36600461534a565b6114e5565b3480156107d057600080fd5b5061050f6107df3660046153e8565b606760209081526000928352604080842090915290825290205481565b34801561080857600080fd5b506033546001600160a01b03166103b3565b34801561082657600080fd5b5061037e6108353660046150f2565b6116db565b34801561084657600080fd5b506069546103b3906001600160a01b031681565b34801561086657600080fd5b5061035c611707565b34801561087b57600080fd5b506103f061088a366004615062565b61179a565b34801561089b57600080fd5b5061050f600081565b3480156108b057600080fd5b5061035c6108bf366004615122565b6118a9565b3480156108d057600080fd5b5061035c6108df36600461541b565b611932565b3480156108f057600080fd5b5061035c611a31565b34801561090557600080fd5b5060cb5461091a90600160c01b900460ff1681565b60405160ff909116815260200161038a565b34801561093857600080fd5b506065546103b3906001600160a01b031681565b34801561095857600080fd5b5061035c6109673660046150bc565b611a49565b34801561097857600080fd5b5061050f611a9c565b34801561098d57600080fd5b5061050f61271081565b3480156109a357600080fd5b5061035c6109b23660046150bc565b611b13565b3480156109c357600080fd5b5061035c6109d23660046154b5565b611b3d565b61035c6109e5366004614f2e565b611bab565b3480156109f657600080fd5b5061035c610a053660046150f2565b611dc1565b348015610a1657600080fd5b5061035c610a253660046150bc565b611de7565b348015610a3657600080fd5b5061035c610a45366004615523565b611e12565b348015610a5657600080fd5b5061035c610a653660046150d9565b611ec4565b348015610a7657600080fd5b5061035c610a85366004615122565b611ee4565b348015610a9657600080fd5b5061050f611f3e565b348015610aab57600080fd5b5061035c610aba36600461555f565b611f95565b348015610acb57600080fd5b5061035c610ada3660046150d9565b611fc9565b348015610aeb57600080fd5b5061035c610afa3660046150bc565b611fd6565b348015610b0b57600080fd5b506103f0610b1a3660046155a5565b61204c565b348015610b2b57600080fd5b5061050f610b3a3660046150d9565b6120e1565b348015610b4b57600080fd5b5060cb546103b3906001600160a01b031681565b6065546001600160a01b03163314610bca5760405162461bcd60e51b815260206004820152602360248201527f4261736553747261746567793a3a496e76616c6964456e64706f696e7443616c6044820152623632b960e91b60648201526084015b60405180910390fd5b610c408686868080601f01602080910402602001604051908101604052809392919081815260200183838082843760009201919091525050604080516020601f89018190048102820181019092528781528993509150879087908190840183828082843760009201919091525061213492505050565b505050505050565b60006001600160e01b03198216637965db0b60e01b1480610c7957506301ffc9a760e01b6001600160e01b03198316145b92915050565b610c876121ad565b6065546040516307e0db1760e01b815261ffff831660048201526001600160a01b03909116906307e0db17906024015b600060405180830381600087803b158015610cd157600080fd5b505af1158015610ce5573d6000803e3d6000fd5b5050505050565b610cf46121ad565b61ffff909116600090815260686020526040902055565b610d136121ad565b6065546040516310ddb13760e01b815261ffff831660048201526001600160a01b03909116906310ddb13790602401610cb7565b610d4f612207565b610dd133826001600160a01b03166370a08231306040518263ffffffff1660e01b8152600401610d7f9190614feb565b602060405180830381865afa158015610d9c573d6000803e3d6000fd5b505050506040513d601f19601f82011682018060405250810190610dc091906155f2565b6001600160a01b0384169190612261565b50565b610ddc612207565b60c9546040516001600160a01b03909116904780156108fc02916000818181858888f19350505050158015610dd1573d6000803e3d6000fd5b60008281526101036020526040902060010154610e31816122b7565b610e3b83836122c1565b505050565b6001600160a01b0381163314610eb05760405162461bcd60e51b815260206004820152602f60248201527f416363657373436f6e74726f6c3a2063616e206f6e6c792072656e6f756e636560448201526e103937b632b9903337b91039b2b63360891b6064820152608401610bc1565b610eba8282612348565b5050565b610ec6612207565b610ecf816123b0565b6040518181527fb0c58532a125fc3c0adccaef396bf65344a4d5781cec2e4c593e6b611d75f150906020015b60405180910390a150565b61ffff831660009081526066602052604081208054829190610f279061560b565b80601f0160208091040260200160405190810160405280929190818152602001828054610f539061560b565b8015610fa05780601f10610f7557610100808354040283529160200191610fa0565b820191906000526020600020905b815481529060010190602001808311610f8357829003601f168201915b505050505090508383604051610fb7929190615645565b60405180910390208180519060200120149150505b9392505050565b610fdb6121ad565b6065546040516342d65a8d60e01b81526001600160a01b03909116906342d65a8d9061100f9086908690869060040161567e565b600060405180830381600087803b15801561102957600080fd5b505af115801561103d573d6000803e3d6000fd5b50505050505050565b61104e612207565b60cd805460ff1916911515919091179055565b611069612207565b61107281612658565b60cd546000908190819060ff161561111e5784156110d25760405162461bcd60e51b815260206004820152601e60248201527f4261736553747261746567793a3a44656274526174696f4e6f745a65726f00006044820152606401610bc1565b60006110dc6126de565b9050878110156110f7576110f081896156b2565b925061110c565b8781111561110c5761110988826156b2565b93505b61111683896156b2565b915050611130565b611128888861285c565b919450925090505b600061113c82856156c5565b90506000808883101561115e57611153838a6156b2565b91506000905061116f565b6000915061116c89846156b2565b90505b6000604051806101600160405280306001600160a01b031681526020014281526020018881526020018781526020018681526020018481526020018381526020018b8152602001836111bf611f3e565b6111c991906156b2565b815260200160d060008154809291906111e1906156d8565b909155508152602001899052905081156112415760cb5460405161123c91849161ffff600160a01b830416916001600160a01b031690611228906002908790602001615729565b604051602081830303815290604052612953565b61126c565b61126c600282604051602001611258929190615729565b604051602081830303815290604052612a2d565b7fb983e09c034e9c52b5e547cb0589967992b97717733f580cc5ad0afcdc4b522b8160400151826060015183608001518460a001518560c001518660e001518761010001516040516112ef9796959493929190968752602087019590955260408601939093526060850191909152608084015260a083015260c082015260e00190565b60405180910390a1505050505050505050505050565b60d05460cb546040513060601b6001600160601b03191660208201526034810192909252600160b01b900460f01b6001600160f01b031916605482015260009060560160405160208183030381529060405280519060200120905090565b3330146113c15760405162461bcd60e51b815260206004820152602660248201527f4e6f6e626c6f636b696e674c7a4170703a2063616c6c6572206d7573742062656044820152650204c7a4170760d41b6064820152608401610bc1565b610c408686868080601f01602080910402602001604051908101604052809392919081815260200183838082843760009201919091525050604080516020601f890181900481028201810190925287815289935091508790879081908401838280828437600092019190915250612bad92505050565b61143f6121ad565b6114496000612cc3565b565b606660205260009081526040902080546114649061560b565b80601f01602080910402602001604051908101604052809291908181526020018280546114909061560b565b80156114dd5780601f106114b2576101008083540402835291602001916114dd565b820191906000526020600020905b8154815290600101906020018083116114c057829003601f168201915b505050505081565b600054610100900460ff16158080156115055750600054600160ff909116105b8061151f5750303b15801561151f575060005460ff166001145b6115825760405162461bcd60e51b815260206004820152602e60248201527f496e697469616c697a61626c653a20636f6e747261637420697320616c72656160448201526d191e481a5b9a5d1a585b1a5e995960921b6064820152608401610bc1565b6000805460ff1916600117905580156115a5576000805461ff0019166101001790555b6115ad612d15565b6115be8989898989468a8a8a612d3c565b6115f373b67c014fa700e69681a673876eb8bafaa36bff7173b0cabfe930642ad3e7decdc741884d8c3f7ebc70600019612f0f565b61162873b67c014fa700e69681a673876eb8bafaa36bff717310541b07d8ad2647dc6cd67abd4c03575dade261600019612f0f565b61165d73c5102fe9359fd9a28f877a67e36b0f050d81a3cc73e592427a0aece92de3edee1f18e0157c05861564600019612f0f565b60ca5461168a906001600160a01b03167310541b07d8ad2647dc6cd67abd4c03575dade261600019612f0f565b80156116d0576000805461ff0019169055604051600181527f7f26b83ff96e1f2b6a682f133852f6798a09c465da95921460cefb38474024989060200160405180910390a15b505050505050505050565b6000918252610103602090815260408084206001600160a01b0393909316845291905290205460ff1690565b61170f612207565b60ca546040516370a0823160e01b8152611449916001916001600160a01b03909116906370a0823190611746903090600401614feb565b602060405180830381865afa158015611763573d6000803e3d6000fd5b505050506040513d601f19601f8201168201806040525081019061178791906155f2565b60ca546001600160a01b03169190612261565b61ffff81166000908152606660205260408120805460609291906117bd9061560b565b80601f01602080910402602001604051908101604052809291908181526020018280546117e99061560b565b80156118365780601f1061180b57610100808354040283529160200191611836565b820191906000526020600020905b81548152906001019060200180831161181957829003601f168201915b50505050509050805160000361188e5760405162461bcd60e51b815260206004820152601d60248201527f4c7a4170703a206e6f20747275737465642070617468207265636f72640000006044820152606401610bc1565b610fcc6000601483516118a191906156b2565b839190613013565b6118b16121ad565b8181306040516020016118c6939291906157e5565b60408051601f1981840301815291815261ffff85166000908152606660205220906118f19082615861565b507f8c0400cfe2d1199b1a725c78960bcc2a344d869b80590d0f2bd005db15a572ce8383836040516119259392919061567e565b60405180910390a1505050565b60ce546001600160a01b031633148061195a575060cd5461010090046001600160a01b031633145b6119a65760405162461bcd60e51b815260206004820152601c60248201527f53674272696467653a3a526f757465724f724272696467654f6e6c79000000006044820152606401610bc1565b60006119b486826014613013565b6040516020016119c4919061591a565b6040516020818303038152906040526119dc90615936565b6040805185815260609290921c6020830181905292506001600160a01b038616917f92073a89a07a000083eb8b2575fc15e7bb936efe55d00727d6942a796d7211a7910160405180910390a250505050505050565b611a39613120565b610dd1611a4461318f565b6131c7565b611a516121ad565b606980546001600160a01b0319166001600160a01b0383161790556040517f5db758e995a17ec1ad84bdef7e8c3293a0bd6179bcce400dff5d4c3d87db726b90610efb908390614feb565b60ca546040516370a0823160e01b81526000916001600160a01b0316906370a0823190611acd903090600401614feb565b602060405180830381865afa158015611aea573d6000803e3d6000fd5b505050506040513d601f19601f82011682018060405250810190611b0e91906155f2565b905090565b611b1b6121ad565b60c980546001600160a01b0319166001600160a01b0392909216919091179055565b611b456121ad565b6065546040516332fb62e760e21b81526001600160a01b039091169063cbed8b9c90611b7d908890889088908890889060040161596d565b600060405180830381600087803b158015611b9757600080fd5b505af11580156116d0573d6000803e3d6000fd5b61ffff86166000908152609760205260408082209051611bce9088908890615645565b90815260408051602092819003830190206001600160401b03871660009081529252902054905080611c4e5760405162461bcd60e51b815260206004820152602360248201527f4e6f6e626c6f636b696e674c7a4170703a206e6f2073746f726564206d65737360448201526261676560e81b6064820152608401610bc1565b808383604051611c5f929190615645565b604051809103902014611cbe5760405162461bcd60e51b815260206004820152602160248201527f4e6f6e626c6f636b696e674c7a4170703a20696e76616c6964207061796c6f616044820152601960fa1b6064820152608401610bc1565b61ffff87166000908152609760205260408082209051611ce19089908990615645565b90815260408051602092819003830181206001600160401b038916600090815290845282902093909355601f88018290048202830182019052868252611d79918991899089908190840183828082843760009201919091525050604080516020601f8a018190048102820181019092528881528a935091508890889081908401838280828437600092019190915250612bad92505050565b7fc264d91f3adc5588250e1551f547752ca0cfa8f6b530d243b9f9f4cab10ea8e58787878785604051611db095949392919061599b565b60405180910390a150505050505050565b60008281526101036020526040902060010154611ddd816122b7565b610e3b8383612348565b611def613120565b61013580546001600160a01b0319166001600160a01b0392909216919091179055565b611e1a6121ad565b60008111611e625760405162461bcd60e51b81526020600482015260156024820152744c7a4170703a20696e76616c6964206d696e47617360581b6044820152606401610bc1565b61ffff83811660008181526067602090815260408083209487168084529482529182902085905581519283528201929092529081018290527f9d5c7c0b934da8fefa9c7760c98383778a12dfbfc0c3b3106518f43fb9508ac090606001611925565b611ecc6121ad565b600090815260cf60205260409020805460ff19169055565b611eec6121ad565b61ffff83166000908152606660205260409020611f0a8284836159d6565b507ffa41487ad5d6728f0b19276fa1eddc16558578f5109fc39d2dc33c3230470dab8383836040516119259392919061567e565b6101375460009060ff16611f6557604051630570e54b60e51b815260040160405180910390fd5b61013654611f71611a9c565b611f81611f7c613253565b61328d565b611f8b91906156c5565b611b0e91906156c5565b7f6d1efadb607420c71e8f966ae6611a2b817ec83a98f82ae24284fd004cf9d40c611fbf816122b7565b5050610136555050565b611fd1612207565b60cc55565b611fde6121ad565b6001600160a01b0381166120435760405162461bcd60e51b815260206004820152602660248201527f4f776e61626c653a206e6577206f776e657220697320746865207a65726f206160448201526564647265737360d01b6064820152608401610bc1565b610dd181612cc3565b606554604051633d7b2f6f60e21b815261ffff808716600483015285166024820152306044820152606481018390526060916001600160a01b03169063f5ecbdbc90608401600060405180830381865afa1580156120ae573d6000803e3d6000fd5b505050506040513d6000823e601f3d908101601f191682016040526120d69190810190615a8f565b90505b949350505050565b6040517f19457468657265756d205369676e6564204d6573736167653a0a3332000000006020820152603c8101829052600090605c01604051602081830303815290604052805190602001209050919050565b6000806121975a60966366ad5c8a60e01b8989898960405160240161215c9493929190615afc565b60408051601f198184030181529190526020810180516001600160e01b03166001600160e01b03199093169290921790915230929190613320565b9150915081610c4057610c4086868686856133ac565b6033546001600160a01b031633146114495760405162461bcd60e51b815260206004820181905260248201527f4f776e61626c653a2063616c6c6572206973206e6f7420746865206f776e65726044820152606401610bc1565b60c9546001600160a01b031633146114495760405162461bcd60e51b815260206004820152601c60248201527f4261736553747261746567793a3a4f6e6c7953747261746567697374000000006044820152606401610bc1565b610e3b8363a9059cbb60e01b8484604051602401612280929190615b3a565b60408051601f198184030181529190526020810180516001600160e01b03166001600160e01b031990931692909217909152613449565b610dd1813361351e565b6122cb82826116db565b610eba576000828152610103602090815260408083206001600160a01b03851684529091529020805460ff191660011790556123043390565b6001600160a01b0316816001600160a01b0316837f2f8788117e7eff1d82e926ec794901d17c78024a50270940304540a733656f0d60405160405180910390a45050565b61235282826116db565b15610eba576000828152610103602090815260408083206001600160a01b0385168085529252808320805460ff1916905551339285917ff6391f5c32d9c69d2a47ea670b442974b53935d1edc7fd64eb21e047a839171b9190a45050565b60cd5460ff16156123be5750565b6123c6613577565b60006123d0611a9c565b90506000828211156123e9576123e683836156b2565b90505b8015610e3b57604080516002808252606082018352600092602083019080368337019050509050818160008151811061242457612424615b53565b60200260200101818152505060008160018151811061244557612445615b53565b602090810291909101015260cc5460405163f9273ffb60e01b8152600091612710917310541b07d8ad2647dc6cd67abd4c03575dade2619063f9273ffb906124969030908890600190600401615ba4565b602060405180830381865afa1580156124b3573d6000803e3d6000fd5b505050506040513d601f19601f820116820180604052508101906124d791906155f2565b6124e19190615bda565b6124eb9190615c07565b604051634d49e87d60e01b81529091507310541b07d8ad2647dc6cd67abd4c03575dade26190634d49e87d9061252990859085904290600401615c1b565b6020604051808303816000875af1158015612548573d6000803e3d6000fd5b505050506040513d601f19601f8201168201806040525081019061256c91906155f2565b506040516370a0823160e01b815260009073b67c014fa700e69681a673876eb8bafaa36bff71906370a08231906125a7903090600401614feb565b602060405180830381865afa1580156125c4573d6000803e3d6000fd5b505050506040513d601f19601f820116820180604052508101906125e891906155f2565b60405163534a7e1d60e11b81526004810182905290915073b0cabfe930642ad3e7decdc741884d8c3f7ebc709063a694fc3a90602401600060405180830381600087803b15801561263857600080fd5b505af115801561264c573d6000803e3d6000fd5b50505050505050505050565b6000612662611305565b9050600061266f826120e1565b60c9549091506001600160a01b0316612688828561365f565b6001600160a01b031614610e3b5760405162461bcd60e51b815260206004820152601e60248201527f4261736553747261746567793a3a496e76616c69645369676e617475726500006044820152606401610bc1565b60006126e8613577565b60006126f2611a9c565b604051632e1a7d4d60e01b81526004810182905290915073b0cabfe930642ad3e7decdc741884d8c3f7ebc7090632e1a7d4d90602401600060405180830381600087803b15801561274257600080fd5b505af1158015612756573d6000803e3d6000fd5b50506040516301f1d0ab60e51b81526004810184905260006024820181905260448201524260648201527310541b07d8ad2647dc6cd67abd4c03575dade2619250633e3a156091506084016020604051808303816000875af11580156127c0573d6000803e3d6000fd5b505050506040513d601f19601f820116820180604052508101906127e491906155f2565b5060ca546040516370a0823160e01b81526001600160a01b03909116906370a0823190612815903090600401614feb565b602060405180830381865afa158015612832573d6000803e3d6000fd5b505050506040513d601f19601f8201168201806040525081019061285691906155f2565b91505090565b60008060008061286a611f3e565b90508581106128885761287d86826156b2565b935060009250612899565b6000935061289681876156b2565b92505b6128ab6128a685876156c5565b613683565b505060ca546040516370a0823160e01b81526000916001600160a01b0316906370a08231906128de903090600401614feb565b602060405180830381865afa1580156128fb573d6000803e3d6000fd5b505050506040513d601f19601f8201168201806040525081019061291f91906155f2565b9050848111612934578094506000925061294a565b61294761294186836156b2565b876137b8565b92505b50509250925092565b60cd54604051630dc6346160e01b815260009161010090046001600160a01b031690630dc634619061298d90879087908790600401615c40565b602060405180830381865afa1580156129aa573d6000803e3d6000fd5b505050506040513d601f19601f820116820180604052508101906129ce91906155f2565b60cd5460ca54604051633920455b60e11b81529293506001600160a01b036101009092048216926372408ab6928592612a14929116908a908a908a908a90600401615c6e565b6000604051808303818588803b15801561263857600080fd5b60cb5460408051606083811b6001600160601b03199081166020840152309182901b16603483015282516028818403018152604890920190925260655490926000926001600160a01b03909216916340a7bb109161ffff600160a01b90910416908685612a986137ce565b6040518663ffffffff1660e01b8152600401612ab8959493929190615cab565b6040805180830381865afa158015612ad4573d6000803e3d6000fd5b505050506040513d601f19601f82011682018060405250810190612af89190615cff565b50905080471015612b245760405162fae2d560e21b815260048101829052476024820152604401610bc1565b60655460cb546001600160a01b039091169063c5803100908390600160a01b900461ffff1685873080612b556137ce565b6040518863ffffffff1660e01b8152600401612b7696959493929190615d23565b6000604051808303818588803b158015612b8f57600080fd5b505af1158015612ba3573d6000803e3d6000fd5b5050505050505050565b60cb5461ffff858116600160a01b9092041614612c175760405162461bcd60e51b815260206004820152602260248201527f4261736553747261746567793a3a5661756c74436861696e49644d69736d61746044820152610c6d60f31b6064820152608401610bc1565b6000612c2584826014613013565b604051602001612c35919061591a565b604051602081830303815290604052612c4d90615936565b60cb5460609190911c91506001600160a01b03168114612cba5760405162461bcd60e51b815260206004820152602260248201527f4261736553747261746567793a3a5661756c74416464726573734d69736d61746044820152610c6d60f31b6064820152608401610bc1565b610ce5826137fe565b603380546001600160a01b038381166001600160a01b0319831681179093556040519116919082907f8be0079c531659141344cd1fd0a4f28419497f9722a3daafe3b4186f6b6457e090600090a35050565b600054610100900460ff166114495760405162461bcd60e51b8152600401610bc190615d8a565b600054610100900460ff16612d635760405162461bcd60e51b8152600401610bc190615d8a565b612d6c89613931565b60c980546001600160a01b03808b166001600160a01b03199283161790925560ca80548a8416908316811790915560cb8054938a1661ffff8a16600160a01b029093166001600160b01b0319909416939093179190911790915560cc8290556040805163313ce56760e01b8152905163313ce567916004808201926020929091908290030181865afa158015612e06573d6000803e3d6000fd5b505050506040513d601f19601f82011682018060405250810190612e2a9190615dd5565b60cb8054600060d05562ffffff60b01b1916600160c01b60ff939093169290920261ffff60b01b191691909117600160b01b61ffff87160217905560cd8054610100600160a81b0319166101006001600160a01b03868116919091029190911790915560ce80546001600160a01b03191684831617905560ca5460405163095ea7b360e01b815291169063095ea7b390612ecc90869060001990600401615b3a565b6020604051808303816000875af1158015612eeb573d6000803e3d6000fd5b505050506040513d601f19601f8201168201806040525081019061264c9190615df8565b801580612f895750604051636eb1769f60e11b81523060048201526001600160a01b03838116602483015284169063dd62ed3e90604401602060405180830381865afa158015612f63573d6000803e3d6000fd5b505050506040513d601f19601f82011682018060405250810190612f8791906155f2565b155b612ff45760405162461bcd60e51b815260206004820152603660248201527f5361666545524332303a20617070726f76652066726f6d206e6f6e2d7a65726f60448201527520746f206e6f6e2d7a65726f20616c6c6f77616e636560501b6064820152608401610bc1565b610e3b8363095ea7b360e01b8484604051602401612280929190615b3a565b60608161302181601f6156c5565b10156130605760405162461bcd60e51b815260206004820152600e60248201526d736c6963655f6f766572666c6f7760901b6044820152606401610bc1565b61306a82846156c5565b845110156130ae5760405162461bcd60e51b8152602060048201526011602482015270736c6963655f6f75744f66426f756e647360781b6044820152606401610bc1565b6060821580156130cd5760405191506000825260208201604052613117565b6040519150601f8416801560200281840101858101878315602002848b0101015b818310156131065780518352602092830192016130ee565b5050858452601f01601f1916604052505b50949350505050565b60c9546001600160a01b031633148061313857503330145b6114495760405162461bcd60e51b815260206004820152602260248201527f4261736553747261746567793a3a4f6e6c79537472617465676973744f725365604482015261363360f11b6064820152608401610bc1565b6040516246613160e11b815260009073b0cabfe930642ad3e7decdc741884d8c3f7ebc7090628cc26290611acd903090600401614feb565b60ca5460009061323f9073c31e54c7a869b9fcbecc14363cf510d1c41fa443907382af49447d8a07e3bd95bd0d56f35241523fbab1906001600160a01b031661323a7344ca2be2bd6a7203ccdbb63eed8382274f737a1573c5102fe9359fd9a28f877a67e36b0f050d81a3cc8489613969565b613969565b610137805460ff1916600117905592915050565b6040516370a0823160e01b815260009073b0cabfe930642ad3e7decdc741884d8c3f7ebc70906370a0823190611acd903090600401614feb565b60008160000361329f57506000919050565b604051630262267d60e61b815230600482015260248101839052600060448201527310541b07d8ad2647dc6cd67abd4c03575dade261906398899f4090606401602060405180830381865afa1580156132fc573d6000803e3d6000fd5b505050506040513d601f19601f82011682018060405250810190610c7991906155f2565b6000606060008060008661ffff166001600160401b038111156133455761334561519f565b6040519080825280601f01601f19166020018201604052801561336f576020820181803683370190505b50905060008087516020890160008d8df191503d925086831115613391578692505b828152826000602083013e9093509150505b94509492505050565b8180519060200120609760008761ffff1661ffff168152602001908152602001600020856040516133dd919061591a565b9081526040805191829003602090810183206001600160401b0388166000908152915220919091557fe183f33de2837795525b4792ca4cd60535bd77c53b7e7030060bfcf5734d6b0c9061343a9087908790879087908790615e15565b60405180910390a15050505050565b600061349e826040518060400160405280602081526020017f5361666545524332303a206c6f772d6c6576656c2063616c6c206661696c6564815250856001600160a01b0316613abc9092919063ffffffff16565b90508051600014806134bf5750808060200190518101906134bf9190615df8565b610e3b5760405162461bcd60e51b815260206004820152602a60248201527f5361666545524332303a204552433230206f7065726174696f6e20646964206e6044820152691bdd081cdd58d8d9595960b21b6064820152608401610bc1565b61352882826116db565b610eba5761353581613acb565b613540836020613add565b604051602001613551929190615e67565b60408051601f198184030181529082905262461bcd60e51b8252610bc19160040161504f565b73b0cabfe930642ad3e7decdc741884d8c3f7ebc706001600160a01b0316633d18b9126040518163ffffffff1660e01b8152600401600060405180830381600087803b1580156135c657600080fd5b505af11580156135da573d6000803e3d6000fd5b50506040516370a0823160e01b8152611449925073c5102fe9359fd9a28f877a67e36b0f050d81a3cc91506370a0823190613619903090600401614feb565b602060405180830381865afa158015613636573d6000803e3d6000fd5b505050506040513d601f19601f8201168201806040525081019061365a91906155f2565b613c78565b600080600061366e8585613e12565b9150915061367b81613e57565b509392505050565b60ca546040516370a0823160e01b8152600091829182916001600160a01b0316906370a08231906136b8903090600401614feb565b602060405180830381865afa1580156136d5573d6000803e3d6000fd5b505050506040513d601f19601f820116820180604052508101906136f991906155f2565b905083811061370d57509192600092509050565b61371f61371a82866156b2565b613f9c565b60ca546040516370a0823160e01b81526001600160a01b03909116906370a082319061374f903090600401614feb565b602060405180830381865afa15801561376c573d6000803e3d6000fd5b505050506040513d601f19601f8201168201806040525081019061379091906155f2565b9050808411156137ae579150816137a781856156b2565b91506137b2565b8392505b50915091565b60008183106137c75781610fcc565b5090919050565b60408051600160f01b6020820152620f424060228083019190915282518083039091018152604290910190915290565b6000818060200190518101906138149190615ed6565b9050600381600481111561382a5761382a6156f1565b03613887576000828060200190518101906138459190615ef7565b91505061385581600001516123b0565b80516040519081527fb0c58532a125fc3c0adccaef396bf65344a4d5781cec2e4c593e6b611d75f15090602001611925565b600081600481111561389b5761389b6156f1565b036138c2576000828060200190518101906138b69190615f3a565b915050610e3b81613ff2565b60048160048111156138d6576138d66156f1565b03610eba576000828060200190518101906138f19190615fa5565b915050613901816000015161411c565b80516040517f7c9a2d2ec51230d7dbed27f113a325b7e20aef7b049e68b2339257b5edff5bea9161192591614feb565b600054610100900460ff166139585760405162461bcd60e51b8152600401610bc190615d8a565b61396061415b565b610dd18161418b565b610137805460ff1916905561013554604051634d1dde7b60e01b81526001600160a01b0385811660048301528481166024830152604482018490526000921690634d1dde7b90606401600060405180830381600087803b1580156139cc57600080fd5b505af19250505080156139dd575060015b613a6d573d808015613a0b576040519150601f19603f3d011682016040523d82523d6000602084013e613a10565b606091505b506000613a1f878787876141d4565b610136819055604051909150613a3690839061591a565b604051908190038120907fecb1a7afa2f497adc862475be5cf604b2d21632f94b1403b3308ac00095bdf7190600090a25050613aaf565b81836001600160a01b0316856001600160a01b03167fe47a58d87426c749b0bf81083c60c31e2ec1cfae38d60931162d521cc985007060405160405180910390a45b5061013654949350505050565b60606120d984846000856141fc565b6060610c796001600160a01b03831660145b60606000613aec836002615bda565b613af79060026156c5565b6001600160401b03811115613b0e57613b0e61519f565b6040519080825280601f01601f191660200182016040528015613b38576020820181803683370190505b509050600360fc1b81600081518110613b5357613b53615b53565b60200101906001600160f81b031916908160001a905350600f60fb1b81600181518110613b8257613b82615b53565b60200101906001600160f81b031916908160001a9053506000613ba6846002615bda565b613bb19060016156c5565b90505b6001811115613c29576f181899199a1a9b1b9c1cb0b131b232b360811b85600f1660108110613be557613be5615b53565b1a60f81b828281518110613bfb57613bfb615b53565b60200101906001600160f81b031916908160001a90535060049490941c93613c2281615ff3565b9050613bb4565b508315610fcc5760405162461bcd60e51b815260206004820181905260248201527f537472696e67733a20686578206c656e67746820696e73756666696369656e746044820152606401610bc1565b80600003613c835750565b600061271060cc546064613c979190615bda565b613ca19190615c07565b610135546040516310cabd1d60e01b815273c5102fe9359fd9a28f877a67e36b0f050d81a3cc600482015273ff970a61a04b1ca14834a43f5de4533ebddb5cc860248201526044810185905260ff831660648201529192506001600160a01b0316906310cabd1d90608401600060405180830381600087803b158015613d2657600080fd5b505af1925050508015613d37575060015b613db7573d808015613d65576040519150601f19603f3d011682016040523d82523d6000602084013e613d6a565b606091505b50613d74836142d7565b80604051613d82919061591a565b604051908190038120907f0a2fcb3b84a0d878df7caaa7b727d5a91ae9d8c8a7c8bdef43d4af853ce904f790600090a2505050565b604051829073ff970a61a04b1ca14834a43f5de4533ebddb5cc89073c5102fe9359fd9a28f877a67e36b0f050d81a3cc907fea368a40e9570069bb8e6511d668293ad2e1f03b0d982431fd223de9f3b70ca690600090a45050565b6000808251604103613e485760208301516040840151606085015160001a613e3c8782858561445b565b94509450505050613e50565b506000905060025b9250929050565b6000816004811115613e6b57613e6b6156f1565b03613e735750565b6001816004811115613e8757613e876156f1565b03613ecf5760405162461bcd60e51b815260206004820152601860248201527745434453413a20696e76616c6964207369676e617475726560401b6044820152606401610bc1565b6002816004811115613ee357613ee36156f1565b03613f305760405162461bcd60e51b815260206004820152601f60248201527f45434453413a20696e76616c6964207369676e6174757265206c656e677468006044820152606401610bc1565b6003816004811115613f4457613f446156f1565b03610dd15760405162461bcd60e51b815260206004820152602260248201527f45434453413a20696e76616c6964207369676e6174757265202773272076616c604482015261756560f01b6064820152608401610bc1565b80600003613fa75750565b80613fb3611a4461318f565b10613fc057610dd1613577565b6000613fe7613fcd613253565b613fd8611a4461318f565b613fe290856156b2565b6137b8565b9050610eba81614512565b602080820151600090815260cf909152604090205460ff16156140575760405162461bcd60e51b815260206004820152601e60248201527f4261736553747261746567793a3a416c726561647957697468647261776e00006044820152606401610bc1565b6000806140678360000151613683565b91509150600060016040518060800160405280306001600160a01b0316815260200185815260200184815260200186602001518152506040516020016140ae92919061600a565b60408051601f19818403018152919052905082156140ef5760cb546140ea90849061ffff600160a01b820416906001600160a01b031684612953565b6140f8565b6140f881612a2d565b505050602090810151600090815260cf90915260409020805460ff19166001179055565b614125816146e7565b60ca546040516370a0823160e01b8152610dd19183916001600160a01b03909116906370a0823190611746903090600401614feb565b600054610100900460ff166141825760405162461bcd60e51b8152600401610bc190615d8a565b61144933612cc3565b600054610100900460ff166141b25760405162461bcd60e51b8152600401610bc190615d8a565b606580546001600160a01b0319166001600160a01b0392909216919091179055565b6000806141e38661070861470b565b5090506141f281848787614955565b9695505050505050565b60608247101561425d5760405162461bcd60e51b815260206004820152602660248201527f416464726573733a20696e73756666696369656e742062616c616e636520666f6044820152651c8818d85b1b60d21b6064820152608401610bc1565b600080866001600160a01b03168587604051614279919061591a565b60006040518083038185875af1925050503d80600081146142b6576040519150601f19603f3d011682016040523d82523d6000602084013e6142bb565b606091505b50915091506142cc87838387614a51565b979650505050505050565b6143126040518060a001604052806060815260200160006001600160a01b031681526020016000815260200160008152602001600081525090565b604080517331440bfa4d67f668a3e1de99f8dac3c1436068f360621b602082015261017760eb1b60348201527382af49447d8a07e3bd95bd0d56f35241523fbab160601b6037820152607d60ea1b604b8201527fff970a61a04b1ca14834a43f5de4533ebddb5cc8000000000000000000000000604e82015281516042818303018152606290910190915260006143a8846131c7565b8284523060208501524260408501526060840185905260cc54909150612710906143d29083615bda565b6143dc9190615c07565b608084015260405163c04b8d5960e01b815273e592427a0aece92de3edee1f18e0157c058615649063c04b8d599061441890869060040161604c565b6020604051808303816000875af1158015614437573d6000803e3d6000fd5b505050506040513d601f19601f82011682018060405250810190610ce591906155f2565b6000806fa2a8918ca85bafe22016d0b997e4df60600160ff1b0383111561448857506000905060036133a3565b6040805160008082526020820180845289905260ff881692820192909252606081018690526080810185905260019060a0016020604051602081039080840390855afa1580156144dc573d6000803e3d6000fd5b5050604051601f1901519150506001600160a01b038116614505576000600192509250506133a3565b9660009650945050505050565b61451a613577565b604080516002808252606082018352600092602083019080368337019050509050818160008151811061454f5761454f615b53565b60200260200101818152505060008160018151811061457057614570615b53565b602090810291909101015260405163f9273ffb60e01b81526000907310541b07d8ad2647dc6cd67abd4c03575dade2619063f9273ffb906145b990309086908690600401615ba4565b602060405180830381865afa1580156145d6573d6000803e3d6000fd5b505050506040513d601f19601f820116820180604052508101906145fa91906155f2565b9050614604611a9c565b81111561461657614613611a9c565b90505b604051632e1a7d4d60e01b81526004810182905273b0cabfe930642ad3e7decdc741884d8c3f7ebc7090632e1a7d4d90602401600060405180830381600087803b15801561466357600080fd5b505af1158015614677573d6000803e3d6000fd5b50505050600061271060cc548561468e9190615bda565b6146989190615c07565b6040516301f1d0ab60e51b81526004810184905260006024820152604481018290524260648201529091507310541b07d8ad2647dc6cd67abd4c03575dade26190633e3a156090608401614418565b60006146f16126de565b60ca54909150610eba906001600160a01b03168383612261565b6000808263ffffffff166000036147495760405162461bcd60e51b8152602060048201526002602482015261042560f41b6044820152606401610bc1565b604080516002808252606082018352600092602083019080368337019050509050838160008151811061477e5761477e615b53565b602002602001019063ffffffff16908163ffffffff16815250506000816001815181106147ad576147ad615b53565b602002602001019063ffffffff16908163ffffffff1681525050600080866001600160a01b031663883bdbfd846040518263ffffffff1660e01b81526004016147f691906160a4565b600060405180830381865afa158015614813573d6000803e3d6000fd5b505050506040513d6000823e601f3d908101601f1916820160405261483b9190810190616180565b9150915060008260008151811061485457614854615b53565b60200260200101518360018151811061486f5761486f615b53565b6020026020010151614881919061624b565b905060008260008151811061489857614898615b53565b6020026020010151836001815181106148b3576148b3615b53565b60200260200101516148c59190616278565b90506148d763ffffffff89168361629f565b965060008260060b1280156148fd57506148f763ffffffff8916836162dd565b60060b15155b15614910578661490c816162ff565b9750505b60006149296001600160a01b0363ffffffff8b16616322565b9050614946640100000000600160c01b03602084901b1682616354565b96505050505050509250929050565b60008061496186614aca565b90506001600160801b036001600160a01b038216116149e757600061498f6001600160a01b03831680615bda565b9050836001600160a01b0316856001600160a01b0316106149c7576149c2600160c01b876001600160801b031683614de3565b6149df565b6149df81876001600160801b0316600160c01b614de3565b925050613117565b6000614a016001600160a01b03831680600160401b614de3565b9050836001600160a01b0316856001600160a01b031610614a3957614a34600160801b876001600160801b031683614de3565b6142cc565b6142cc81876001600160801b0316600160801b614de3565b60608315614ac0578251600003614ab9576001600160a01b0385163b614ab95760405162461bcd60e51b815260206004820152601d60248201527f416464726573733a2063616c6c20746f206e6f6e2d636f6e74726163740000006044820152606401610bc1565b50816120d9565b6120d98383614e95565b60008060008360020b12614ae1578260020b614ae9565b8260020b6000035b9050620d89e8811115614b0f576040516315e4079d60e11b815260040160405180910390fd5b600081600116600003614b2657600160801b614b38565b6ffffcb933bd6fad37aa2d162d1a5940015b6001600160881b031690506002821615614b62576ffff97272373d413259a46990580e213a0260801c5b6004821615614b81576ffff2e50f5f656932ef12357cf3c7fdcc0260801c5b6008821615614ba0576fffe5caca7e10e4e61c3624eaa0941cd00260801c5b6010821615614bbf576fffcb9843d60f6159c9db58835c9266440260801c5b6020821615614bde576fff973b41fa98c081472e6896dfb254c00260801c5b6040821615614bfd576fff2ea16466c96a3843ec78b326b528610260801c5b6080821615614c1c576ffe5dee046a99a2a811c461f1969c30530260801c5b610100821615614c3c576ffcbe86c7900a88aedcffc83b479aa3a40260801c5b610200821615614c5c576ff987a7253ac413176f2b074cf7815e540260801c5b610400821615614c7c576ff3392b0822b70005940c7a398e4b70f30260801c5b610800821615614c9c576fe7159475a2c29b7443b29c7fa6e889d90260801c5b611000821615614cbc576fd097f3bdfd2022b8845ad8f792aa58250260801c5b612000821615614cdc576fa9f746462d870fdf8a65dc1f90e061e50260801c5b614000821615614cfc576f70d869a156d2a1b890bb3df62baf32f70260801c5b618000821615614d1c576f31be135f97d08fd981231505542fcfa60260801c5b62010000821615614d3d576f09aa508b5b7a84e1c677de54f3e99bc90260801c5b62020000821615614d5d576e5d6af8dedb81196699c329225ee6040260801c5b62040000821615614d7c576d2216e584f5fa1ea926041bedfe980260801c5b62080000821615614d99576b048a170391f7dc42444e8fa20260801c5b60008460020b1315614dba578060001981614db657614db6615bf1565b0490505b640100000000810615614dce576001614dd1565b60005b60ff16602082901c0192505050919050565b6000808060001985870985870292508281108382030391505080600003614e1c5760008411614e1157600080fd5b508290049050610fcc565b808411614e2857600080fd5b6000848688096000868103871696879004966002600389028118808a02820302808a02820302808a02820302808a02820302808a02820302808a02909103029181900381900460010186841190950394909402919094039290920491909117919091029150509392505050565b815115614ea55781518083602001fd5b8060405162461bcd60e51b8152600401610bc1919061504f565b803561ffff81168114614ed157600080fd5b919050565b60008083601f840112614ee857600080fd5b5081356001600160401b03811115614eff57600080fd5b602083019150836020828501011115613e5057600080fd5b80356001600160401b0381168114614ed157600080fd5b60008060008060008060808789031215614f4757600080fd5b614f5087614ebf565b955060208701356001600160401b0380821115614f6c57600080fd5b614f788a838b01614ed6565b9097509550859150614f8c60408a01614f17565b94506060890135915080821115614fa257600080fd5b50614faf89828a01614ed6565b979a9699509497509295939492505050565b600060208284031215614fd357600080fd5b81356001600160e01b031981168114610fcc57600080fd5b6001600160a01b0391909116815260200190565b60005b8381101561501a578181015183820152602001615002565b50506000910152565b6000815180845261503b816020860160208601614fff565b601f01601f19169290920160200192915050565b602081526000610fcc6020830184615023565b60006020828403121561507457600080fd5b610fcc82614ebf565b6000806040838503121561509057600080fd5b61509983614ebf565b946020939093013593505050565b6001600160a01b0381168114610dd157600080fd5b6000602082840312156150ce57600080fd5b8135610fcc816150a7565b6000602082840312156150eb57600080fd5b5035919050565b6000806040838503121561510557600080fd5b823591506020830135615117816150a7565b809150509250929050565b60008060006040848603121561513757600080fd5b61514084614ebf565b925060208401356001600160401b0381111561515b57600080fd5b61516786828701614ed6565b9497909650939450505050565b8015158114610dd157600080fd5b60006020828403121561519457600080fd5b8135610fcc81615174565b634e487b7160e01b600052604160045260246000fd5b604051602081016001600160401b03811182821017156151d7576151d761519f565b60405290565b604051601f8201601f191681016001600160401b03811182821017156152055761520561519f565b604052919050565b60006001600160401b038211156152265761522661519f565b50601f01601f191660200190565b600082601f83011261524557600080fd5b81356152586152538261520d565b6151dd565b81815284602083860101111561526d57600080fd5b816020850160208301376000918101602001919091529392505050565b600080600080600060a086880312156152a257600080fd5b8535945060208601359350604086013592506060860135915060808601356001600160401b038111156152d457600080fd5b6152e088828901615234565b9150509295509295909350565b60008060006060848603121561530257600080fd5b61530b84614ebf565b925060208401356001600160401b0381111561532657600080fd5b61533286828701615234565b92505061534160408501614f17565b90509250925092565b600080600080600080600080610100898b03121561536757600080fd5b8835615372816150a7565b97506020890135615382816150a7565b96506040890135615392816150a7565b955060608901356153a2816150a7565b94506153b060808a01614ebf565b935060a08901356153c0816150a7565b925060c08901356153d0816150a7565b8092505060e089013590509295985092959890939650565b600080604083850312156153fb57600080fd5b61540483614ebf565b915061541260208401614ebf565b90509250929050565b60008060008060008060c0878903121561543457600080fd5b61543d87614ebf565b955060208701356001600160401b038082111561545957600080fd5b6154658a838b01615234565b9650604089013595506060890135915061547e826150a7565b9093506080880135925060a0880135908082111561549b57600080fd5b506154a889828a01615234565b9150509295509295509295565b6000806000806000608086880312156154cd57600080fd5b6154d686614ebf565b94506154e460208701614ebf565b93506040860135925060608601356001600160401b0381111561550657600080fd5b61551288828901614ed6565b969995985093965092949392505050565b60008060006060848603121561553857600080fd5b61554184614ebf565b925061554f60208501614ebf565b9150604084013590509250925092565b6000806000806080858703121561557557600080fd5b8435615580816150a7565b93506020850135615590816150a7565b93969395505050506040820135916060013590565b600080600080608085870312156155bb57600080fd5b6155c485614ebf565b93506155d260208601614ebf565b925060408501356155e2816150a7565b9396929550929360600135925050565b60006020828403121561560457600080fd5b5051919050565b600181811c9082168061561f57607f821691505b60208210810361563f57634e487b7160e01b600052602260045260246000fd5b50919050565b8183823760009101908152919050565b81835281816020850137506000828201602090810191909152601f909101601f19169091010190565b61ffff841681526040602082015260006120d6604083018486615655565b634e487b7160e01b600052601160045260246000fd5b81810381811115610c7957610c7961569c565b80820180821115610c7957610c7961569c565b6000600182016156ea576156ea61569c565b5060010190565b634e487b7160e01b600052602160045260246000fd5b6005811061572557634e487b7160e01b600052602160045260246000fd5b9052565b6157338184615707565b604060208201526157506040820183516001600160a01b03169052565b6020820151606082015260408201516080820152606082015160a0820152608082015160c082015260a082015160e0820152600060c0830151610100818185015260e085015191506101208281860152818601519250610140915082828601528086015192505061016082818601528186015192508061018086015250506157dc6101a0840182615023565b95945050505050565b8284823760609190911b6001600160601b0319169101908152601401919050565b601f821115610e3b57600081815260208120601f850160051c8101602086101561582d5750805b601f850160051c820191505b81811015610c4057828155600101615839565b600019600383901b1c191660019190911b1790565b81516001600160401b0381111561587a5761587a61519f565b61588e81615888845461560b565b84615806565b602080601f8311600181146158bd57600084156158ab5750858301515b6158b5858261584c565b865550610c40565b600085815260208120601f198616915b828110156158ec578886015182559484019460019091019084016158cd565b508582101561590a5787850151600019600388901b60f8161c191681555b5050505050600190811b01905550565b6000825161592c818460208701614fff565b9190910192915050565b805160208201516001600160601b031980821692919060148310156159655780818460140360031b1b83161693505b505050919050565b600061ffff8088168352808716602084015250846040830152608060608301526142cc608083018486615655565b61ffff861681526080602082015260006159b9608083018688615655565b6001600160401b0394909416604083015250606001529392505050565b6001600160401b038311156159ed576159ed61519f565b615a01836159fb835461560b565b83615806565b6000601f841160018114615a2f5760008515615a1d5750838201355b615a27868261584c565b845550610ce5565b600083815260209020601f19861690835b82811015615a605786850135825560209485019460019092019101615a40565b5086821015615a7d5760001960f88860031b161c19848701351681555b505060018560011b0183555050505050565b600060208284031215615aa157600080fd5b81516001600160401b03811115615ab757600080fd5b8201601f81018413615ac857600080fd5b8051615ad66152538261520d565b818152856020838501011115615aeb57600080fd5b6157dc826020830160208601614fff565b61ffff85168152608060208201526000615b196080830186615023565b6001600160401b038516604084015282810360608401526142cc8185615023565b6001600160a01b03929092168252602082015260400190565b634e487b7160e01b600052603260045260246000fd5b600081518084526020808501945080840160005b83811015615b9957815187529582019590820190600101615b7d565b509495945050505050565b6001600160a01b0384168152606060208201819052600090615bc890830185615b69565b90508215156040830152949350505050565b8082028115828204841417610c7957610c7961569c565b634e487b7160e01b600052601260045260246000fd5b600082615c1657615c16615bf1565b500490565b606081526000615c2e6060830186615b69565b60208301949094525060400152919050565b61ffff841681526001600160a01b03831660208201526060604082018190526000906120d690830184615023565b6001600160a01b0386811682526020820186905261ffff851660408301528316606082015260a0608082018190526000906142cc90830184615023565b61ffff861681526001600160a01b038516602082015260a060408201819052600090615cd990830186615023565b84151560608401528281036080840152615cf38185615023565b98975050505050505050565b60008060408385031215615d1257600080fd5b505080516020909101519092909150565b61ffff8716815260c060208201526000615d4060c0830188615023565b8281036040840152615d528188615023565b6001600160a01b0387811660608601528616608085015283810360a08501529050615d7d8185615023565b9998505050505050505050565b6020808252602b908201527f496e697469616c697a61626c653a20636f6e7472616374206973206e6f74206960408201526a6e697469616c697a696e6760a81b606082015260800190565b600060208284031215615de757600080fd5b815160ff81168114610fcc57600080fd5b600060208284031215615e0a57600080fd5b8151610fcc81615174565b61ffff8616815260a060208201526000615e3260a0830187615023565b6001600160401b03861660408401528281036060840152615e538186615023565b90508281036080840152615cf38185615023565b76020b1b1b2b9b9a1b7b73a3937b61d1030b1b1b7bab73a1604d1b815260008351615e99816017850160208801614fff565b7001034b99036b4b9b9b4b733903937b6329607d1b6017918401918201528351615eca816028840160208801614fff565b01602801949350505050565b600060208284031215615ee857600080fd5b815160058110610fcc57600080fd5b6000808284036040811215615f0b57600080fd5b835192506020601f1982011215615f2157600080fd5b50615f2a6151b5565b6020939093015183525092909150565b6000808284036060811215615f4e57600080fd5b835192506040601f1982011215615f6457600080fd5b50604051604081018181106001600160401b0382111715615f8757615f8761519f565b60409081526020858101518352940151938101939093525092909150565b6000808284036040811215615fb957600080fd5b835192506020601f1982011215615fcf57600080fd5b50615fd86151b5565b6020840151615fe6816150a7565b8152919491935090915050565b6000816160025761600261569c565b506000190190565b60a081016160188285615707565b60018060a01b0383511660208301526020830151604083015260408301516060830152606083015160808301529392505050565b602081526000825160a0602084015261606860c0840182615023565b905060018060a01b0360208501511660408401526040840151606084015260608401516080840152608084015160a08401528091505092915050565b6020808252825182820181905260009190848201906040850190845b818110156160e257835163ffffffff16835292840192918401916001016160c0565b50909695505050505050565b60006001600160401b038211156161075761610761519f565b5060051b60200190565b600082601f83011261612257600080fd5b81516020616132615253836160ee565b82815260059290921b8401810191818101908684111561615157600080fd5b8286015b84811015616175578051616168816150a7565b8352918301918301616155565b509695505050505050565b6000806040838503121561619357600080fd5b82516001600160401b03808211156161aa57600080fd5b818501915085601f8301126161be57600080fd5b815160206161ce615253836160ee565b82815260059290921b840181019181810190898411156161ed57600080fd5b948201945b8386101561621b5785518060060b811461620c5760008081fd5b825294820194908201906161f2565b9188015191965090935050508082111561623457600080fd5b5061624185828601616111565b9150509250929050565b600682810b9082900b03667fffffffffffff198112667fffffffffffff82131715610c7957610c7961569c565b6001600160a01b038281168282160390808211156162985761629861569c565b5092915050565b60008160060b8360060b806162b6576162b6615bf1565b667fffffffffffff198214600019821416156162d4576162d461569c565b90059392505050565b60008260060b806162f0576162f0615bf1565b808360060b0791505092915050565b60008160020b627fffff1981036163185761631861569c565b6000190192915050565b6001600160c01b0382811682821681810283169291811582850482141761634b5761634b61569c565b50505092915050565b60006001600160c01b038381168061636e5761636e615bf1565b9216919091049291505056fea264697066735822122091bfd2b36cb3028b6a7132e96bb31df56e280ba1f1a465d3d301cf2cd833890564736f6c63430008130033",
  "linkReferences": {},
  "deployedLinkReferences": {}
}