{
  "_format": "hh-sol-artifact-1",
  "contractName": "HopStrategy",
  "sourceName": "contracts/strategies/HopStrategy.sol",
  "abi": [
    {
      "inputs": [
        {
          "internalType": "uint256",
          "name": "messageType",
          "type": "uint256"
        }
      ],
      "name": "IncorrectMessageType",
      "type": "error"
    },
    {
      "inputs": [
        {
          "internalType": "uint256",
          "name": "amount",
          "type": "uint256"
        },
        {
          "internalType": "uint256",
          "name": "balance",
          "type": "uint256"
        }
      ],
      "name": "InsufficientFunds",
      "type": "error"
    },
    {
      "inputs": [],
      "name": "T",
      "type": "error"
    },
    {
      "anonymous": false,
      "inputs": [
        {
          "indexed": false,
          "internalType": "uint256",
          "name": "debtOutstanding",
          "type": "uint256"
        }
      ],
      "name": "AdjustedPosition",
      "type": "event"
    },
    {
      "anonymous": false,
      "inputs": [
        {
          "indexed": true,
          "internalType": "bytes",
          "name": "lowLevelErrorData",
          "type": "bytes"
        }
      ],
      "name": "EmergencySwapOnUniswapV3",
      "type": "event"
    },
    {
      "anonymous": false,
      "inputs": [
        {
          "indexed": false,
          "internalType": "uint8",
          "name": "version",
          "type": "uint8"
        }
      ],
      "name": "Initialized",
      "type": "event"
    },
    {
      "anonymous": false,
      "inputs": [
        {
          "indexed": false,
          "internalType": "uint16",
          "name": "_srcChainId",
          "type": "uint16"
        },
        {
          "indexed": false,
          "internalType": "bytes",
          "name": "_srcAddress",
          "type": "bytes"
        },
        {
          "indexed": false,
          "internalType": "uint64",
          "name": "_nonce",
          "type": "uint64"
        },
        {
          "indexed": false,
          "internalType": "bytes",
          "name": "_payload",
          "type": "bytes"
        },
        {
          "indexed": false,
          "internalType": "bytes",
          "name": "_reason",
          "type": "bytes"
        }
      ],
      "name": "MessageFailed",
      "type": "event"
    },
    {
      "anonymous": false,
      "inputs": [
        {
          "indexed": true,
          "internalType": "address",
          "name": "previousOwner",
          "type": "address"
        },
        {
          "indexed": true,
          "internalType": "address",
          "name": "newOwner",
          "type": "address"
        }
      ],
      "name": "OwnershipTransferred",
      "type": "event"
    },
    {
      "anonymous": false,
      "inputs": [
        {
          "indexed": false,
          "internalType": "uint16",
          "name": "_srcChainId",
          "type": "uint16"
        },
        {
          "indexed": false,
          "internalType": "bytes",
          "name": "_srcAddress",
          "type": "bytes"
        },
        {
          "indexed": false,
          "internalType": "uint64",
          "name": "_nonce",
          "type": "uint64"
        },
        {
          "indexed": false,
          "internalType": "bytes32",
          "name": "_payloadHash",
          "type": "bytes32"
        }
      ],
      "name": "RetryMessageSuccess",
      "type": "event"
    },
    {
      "anonymous": false,
      "inputs": [
        {
          "indexed": true,
          "internalType": "bytes32",
          "name": "role",
          "type": "bytes32"
        },
        {
          "indexed": true,
          "internalType": "bytes32",
          "name": "previousAdminRole",
          "type": "bytes32"
        },
        {
          "indexed": true,
          "internalType": "bytes32",
          "name": "newAdminRole",
          "type": "bytes32"
        }
      ],
      "name": "RoleAdminChanged",
      "type": "event"
    },
    {
      "anonymous": false,
      "inputs": [
        {
          "indexed": true,
          "internalType": "bytes32",
          "name": "role",
          "type": "bytes32"
        },
        {
          "indexed": true,
          "internalType": "address",
          "name": "account",
          "type": "address"
        },
        {
          "indexed": true,
          "internalType": "address",
          "name": "sender",
          "type": "address"
        }
      ],
      "name": "RoleGranted",
      "type": "event"
    },
    {
      "anonymous": false,
      "inputs": [
        {
          "indexed": true,
          "internalType": "bytes32",
          "name": "role",
          "type": "bytes32"
        },
        {
          "indexed": true,
          "internalType": "address",
          "name": "account",
          "type": "address"
        },
        {
          "indexed": true,
          "internalType": "address",
          "name": "sender",
          "type": "address"
        }
      ],
      "name": "RoleRevoked",
      "type": "event"
    },
    {
      "anonymous": false,
      "inputs": [
        {
          "indexed": false,
          "internalType": "uint16",
          "name": "_dstChainId",
          "type": "uint16"
        },
        {
          "indexed": false,
          "internalType": "uint16",
          "name": "_type",
          "type": "uint16"
        },
        {
          "indexed": false,
          "internalType": "uint256",
          "name": "_minDstGas",
          "type": "uint256"
        }
      ],
      "name": "SetMinDstGas",
      "type": "event"
    },
    {
      "anonymous": false,
      "inputs": [
        {
          "indexed": false,
          "internalType": "address",
          "name": "precrime",
          "type": "address"
        }
      ],
      "name": "SetPrecrime",
      "type": "event"
    },
    {
      "anonymous": false,
      "inputs": [
        {
          "indexed": false,
          "internalType": "uint16",
          "name": "_remoteChainId",
          "type": "uint16"
        },
        {
          "indexed": false,
          "internalType": "bytes",
          "name": "_path",
          "type": "bytes"
        }
      ],
      "name": "SetTrustedRemote",
      "type": "event"
    },
    {
      "anonymous": false,
      "inputs": [
        {
          "indexed": false,
          "internalType": "uint16",
          "name": "_remoteChainId",
          "type": "uint16"
        },
        {
          "indexed": false,
          "internalType": "bytes",
          "name": "_remoteAddress",
          "type": "bytes"
        }
      ],
      "name": "SetTrustedRemoteAddress",
      "type": "event"
    },
    {
      "anonymous": false,
      "inputs": [
        {
          "indexed": true,
          "internalType": "address",
          "name": "token",
          "type": "address"
        },
        {
          "indexed": false,
          "internalType": "uint256",
          "name": "amount",
          "type": "uint256"
        },
        {
          "indexed": false,
          "internalType": "address",
          "name": "sender",
          "type": "address"
        }
      ],
      "name": "SgReceived",
      "type": "event"
    },
    {
      "anonymous": false,
      "inputs": [
        {
          "indexed": false,
          "internalType": "address",
          "name": "newStrategy",
          "type": "address"
        }
      ],
      "name": "StrategyMigrated",
      "type": "event"
    },
    {
      "anonymous": false,
      "inputs": [
        {
          "indexed": false,
          "internalType": "uint256",
          "name": "profit",
          "type": "uint256"
        },
        {
          "indexed": false,
          "internalType": "uint256",
          "name": "loss",
          "type": "uint256"
        },
        {
          "indexed": false,
          "internalType": "uint256",
          "name": "debtPayment",
          "type": "uint256"
        },
        {
          "indexed": false,
          "internalType": "uint256",
          "name": "giveToStrategy",
          "type": "uint256"
        },
        {
          "indexed": false,
          "internalType": "uint256",
          "name": "requestFromStrategy",
          "type": "uint256"
        },
        {
          "indexed": false,
          "internalType": "uint256",
          "name": "creditAvailable",
          "type": "uint256"
        },
        {
          "indexed": false,
          "internalType": "uint256",
          "name": "totalAssets",
          "type": "uint256"
        }
      ],
      "name": "StrategyReported",
      "type": "event"
    },
    {
      "anonymous": false,
      "inputs": [
        {
          "indexed": true,
          "internalType": "address",
          "name": "src",
          "type": "address"
        },
        {
          "indexed": true,
          "internalType": "address",
          "name": "dst",
          "type": "address"
        },
        {
          "indexed": true,
          "internalType": "uint256",
          "name": "amount",
          "type": "uint256"
        }
      ],
      "name": "Swap",
      "type": "event"
    },
    {
      "inputs": [],
      "name": "DEFAULT_ADMIN_ROLE",
      "outputs": [
        {
          "internalType": "bytes32",
          "name": "",
          "type": "bytes32"
        }
      ],
      "stateMutability": "view",
      "type": "function"
    },
    {
      "inputs": [],
      "name": "DEFAULT_PAYLOAD_SIZE_LIMIT",
      "outputs": [
        {
          "internalType": "uint256",
          "name": "",
          "type": "uint256"
        }
      ],
      "stateMutability": "view",
      "type": "function"
    },
    {
      "inputs": [],
      "name": "MAX_BPS",
      "outputs": [
        {
          "internalType": "uint256",
          "name": "",
          "type": "uint256"
        }
      ],
      "stateMutability": "view",
      "type": "function"
    },
    {
      "inputs": [],
      "name": "QUOTE_OPERATION_PROVIDER",
      "outputs": [
        {
          "internalType": "bytes32",
          "name": "",
          "type": "bytes32"
        }
      ],
      "stateMutability": "view",
      "type": "function"
    },
    {
      "inputs": [
        {
          "internalType": "uint256",
          "name": "_debtOutstanding",
          "type": "uint256"
        }
      ],
      "name": "adjustPosition",
      "outputs": [],
      "stateMutability": "nonpayable",
      "type": "function"
    },
    {
      "inputs": [],
      "name": "balanceOfWant",
      "outputs": [
        {
          "internalType": "uint256",
          "name": "",
          "type": "uint256"
        }
      ],
      "stateMutability": "view",
      "type": "function"
    },
    {
      "inputs": [
        {
          "internalType": "uint256",
          "name": "epoch",
          "type": "uint256"
        }
      ],
      "name": "callMe",
      "outputs": [],
      "stateMutability": "nonpayable",
      "type": "function"
    },
    {
      "inputs": [],
      "name": "clearWant",
      "outputs": [],
      "stateMutability": "nonpayable",
      "type": "function"
    },
    {
      "inputs": [],
      "name": "currentChainId",
      "outputs": [
        {
          "internalType": "uint16",
          "name": "",
          "type": "uint16"
        }
      ],
      "stateMutability": "view",
      "type": "function"
    },
    {
      "inputs": [],
      "name": "emergencyExit",
      "outputs": [
        {
          "internalType": "bool",
          "name": "",
          "type": "bool"
        }
      ],
      "stateMutability": "view",
      "type": "function"
    },
    {
      "inputs": [],
      "name": "estimatedTotalAssets",
      "outputs": [
        {
          "internalType": "uint256",
          "name": "",
          "type": "uint256"
        }
      ],
      "stateMutability": "view",
      "type": "function"
    },
    {
      "inputs": [
        {
          "internalType": "uint16",
          "name": "",
          "type": "uint16"
        },
        {
          "internalType": "bytes",
          "name": "",
          "type": "bytes"
        },
        {
          "internalType": "uint64",
          "name": "",
          "type": "uint64"
        }
      ],
      "name": "failedMessages",
      "outputs": [
        {
          "internalType": "bytes32",
          "name": "",
          "type": "bytes32"
        }
      ],
      "stateMutability": "view",
      "type": "function"
    },
    {
      "inputs": [
        {
          "internalType": "uint16",
          "name": "_srcChainId",
          "type": "uint16"
        },
        {
          "internalType": "bytes",
          "name": "_srcAddress",
          "type": "bytes"
        }
      ],
      "name": "forceResumeReceive",
      "outputs": [],
      "stateMutability": "nonpayable",
      "type": "function"
    },
    {
      "inputs": [
        {
          "internalType": "uint16",
          "name": "_version",
          "type": "uint16"
        },
        {
          "internalType": "uint16",
          "name": "_chainId",
          "type": "uint16"
        },
        {
          "internalType": "address",
          "name": "",
          "type": "address"
        },
        {
          "internalType": "uint256",
          "name": "_configType",
          "type": "uint256"
        }
      ],
      "name": "getConfig",
      "outputs": [
        {
          "internalType": "bytes",
          "name": "",
          "type": "bytes"
        }
      ],
      "stateMutability": "view",
      "type": "function"
    },
    {
      "inputs": [
        {
          "internalType": "bytes32",
          "name": "_messageHash",
          "type": "bytes32"
        }
      ],
      "name": "getEthSignedMessageHash",
      "outputs": [
        {
          "internalType": "bytes32",
          "name": "",
          "type": "bytes32"
        }
      ],
      "stateMutability": "pure",
      "type": "function"
    },
    {
      "inputs": [
        {
          "internalType": "bytes32",
          "name": "role",
          "type": "bytes32"
        }
      ],
      "name": "getRoleAdmin",
      "outputs": [
        {
          "internalType": "bytes32",
          "name": "",
          "type": "bytes32"
        }
      ],
      "stateMutability": "view",
      "type": "function"
    },
    {
      "inputs": [
        {
          "internalType": "uint16",
          "name": "_remoteChainId",
          "type": "uint16"
        }
      ],
      "name": "getTrustedRemoteAddress",
      "outputs": [
        {
          "internalType": "bytes",
          "name": "",
          "type": "bytes"
        }
      ],
      "stateMutability": "view",
      "type": "function"
    },
    {
      "inputs": [
        {
          "internalType": "bytes32",
          "name": "role",
          "type": "bytes32"
        },
        {
          "internalType": "address",
          "name": "account",
          "type": "address"
        }
      ],
      "name": "grantRole",
      "outputs": [],
      "stateMutability": "nonpayable",
      "type": "function"
    },
    {
      "inputs": [
        {
          "internalType": "uint256",
          "name": "_totalDebt",
          "type": "uint256"
        },
        {
          "internalType": "uint256",
          "name": "_debtOutstanding",
          "type": "uint256"
        },
        {
          "internalType": "uint256",
          "name": "_creditAvailable",
          "type": "uint256"
        },
        {
          "internalType": "uint256",
          "name": "_debtRatio",
          "type": "uint256"
        },
        {
          "internalType": "bytes",
          "name": "_signature",
          "type": "bytes"
        }
      ],
      "name": "harvest",
      "outputs": [],
      "stateMutability": "nonpayable",
      "type": "function"
    },
    {
      "inputs": [
        {
          "internalType": "bytes32",
          "name": "role",
          "type": "bytes32"
        },
        {
          "internalType": "address",
          "name": "account",
          "type": "address"
        }
      ],
      "name": "hasRole",
      "outputs": [
        {
          "internalType": "bool",
          "name": "",
          "type": "bool"
        }
      ],
      "stateMutability": "view",
      "type": "function"
    },
    {
      "inputs": [
        {
          "internalType": "address",
          "name": "_lzEndpoint",
          "type": "address"
        },
        {
          "internalType": "address",
          "name": "_strategist",
          "type": "address"
        },
        {
          "internalType": "contract IERC20",
          "name": "_want",
          "type": "address"
        },
        {
          "internalType": "address",
          "name": "_vault",
          "type": "address"
        },
        {
          "internalType": "uint16",
          "name": "_vaultChainId",
          "type": "uint16"
        },
        {
          "internalType": "address",
          "name": "_sgBridge",
          "type": "address"
        },
        {
          "internalType": "address",
          "name": "_sgRouter",
          "type": "address"
        },
        {
          "internalType": "uint256",
          "name": "_slippage",
          "type": "uint256"
        }
      ],
      "name": "initialize",
      "outputs": [],
      "stateMutability": "nonpayable",
      "type": "function"
    },
    {
      "inputs": [
        {
          "internalType": "uint16",
          "name": "_srcChainId",
          "type": "uint16"
        },
        {
          "internalType": "bytes",
          "name": "_srcAddress",
          "type": "bytes"
        }
      ],
      "name": "isTrustedRemote",
      "outputs": [
        {
          "internalType": "bool",
          "name": "",
          "type": "bool"
        }
      ],
      "stateMutability": "view",
      "type": "function"
    },
    {
      "inputs": [],
      "name": "lzEndpoint",
      "outputs": [
        {
          "internalType": "contract ILayerZeroEndpointUpgradeable",
          "name": "",
          "type": "address"
        }
      ],
      "stateMutability": "view",
      "type": "function"
    },
    {
      "inputs": [
        {
          "internalType": "uint16",
          "name": "_srcChainId",
          "type": "uint16"
        },
        {
          "internalType": "bytes",
          "name": "_srcAddress",
          "type": "bytes"
        },
        {
          "internalType": "uint64",
          "name": "_nonce",
          "type": "uint64"
        },
        {
          "internalType": "bytes",
          "name": "_payload",
          "type": "bytes"
        }
      ],
      "name": "lzReceive",
      "outputs": [],
      "stateMutability": "nonpayable",
      "type": "function"
    },
    {
      "inputs": [
        {
          "internalType": "uint16",
          "name": "",
          "type": "uint16"
        },
        {
          "internalType": "uint16",
          "name": "",
          "type": "uint16"
        }
      ],
      "name": "minDstGasLookup",
      "outputs": [
        {
          "internalType": "uint256",
          "name": "",
          "type": "uint256"
        }
      ],
      "stateMutability": "view",
      "type": "function"
    },
    {
      "inputs": [],
      "name": "name",
      "outputs": [
        {
          "internalType": "string",
          "name": "",
          "type": "string"
        }
      ],
      "stateMutability": "pure",
      "type": "function"
    },
    {
      "inputs": [
        {
          "internalType": "uint16",
          "name": "_srcChainId",
          "type": "uint16"
        },
        {
          "internalType": "bytes",
          "name": "_srcAddress",
          "type": "bytes"
        },
        {
          "internalType": "uint64",
          "name": "_nonce",
          "type": "uint64"
        },
        {
          "internalType": "bytes",
          "name": "_payload",
          "type": "bytes"
        }
      ],
      "name": "nonblockingLzReceive",
      "outputs": [],
      "stateMutability": "nonpayable",
      "type": "function"
    },
    {
      "inputs": [
        {
          "internalType": "address",
          "name": "src",
          "type": "address"
        },
        {
          "internalType": "address",
          "name": "dst",
          "type": "address"
        },
        {
          "internalType": "uint256",
          "name": "amountOut",
          "type": "uint256"
        },
        {
          "internalType": "uint256",
          "name": "amountIn",
          "type": "uint256"
        }
      ],
      "name": "notifyCallback",
      "outputs": [],
      "stateMutability": "nonpayable",
      "type": "function"
    },
    {
      "inputs": [],
      "name": "owner",
      "outputs": [
        {
          "internalType": "address",
          "name": "",
          "type": "address"
        }
      ],
      "stateMutability": "view",
      "type": "function"
    },
    {
      "inputs": [
        {
          "internalType": "uint16",
          "name": "",
          "type": "uint16"
        }
      ],
      "name": "payloadSizeLimitLookup",
      "outputs": [
        {
          "internalType": "uint256",
          "name": "",
          "type": "uint256"
        }
      ],
      "stateMutability": "view",
      "type": "function"
    },
    {
      "inputs": [],
      "name": "precrime",
      "outputs": [
        {
          "internalType": "address",
          "name": "",
          "type": "address"
        }
      ],
      "stateMutability": "view",
      "type": "function"
    },
    {
      "inputs": [],
      "name": "renounceOwnership",
      "outputs": [],
      "stateMutability": "nonpayable",
      "type": "function"
    },
    {
      "inputs": [
        {
          "internalType": "bytes32",
          "name": "role",
          "type": "bytes32"
        },
        {
          "internalType": "address",
          "name": "account",
          "type": "address"
        }
      ],
      "name": "renounceRole",
      "outputs": [],
      "stateMutability": "nonpayable",
      "type": "function"
    },
    {
      "inputs": [
        {
          "internalType": "uint16",
          "name": "_srcChainId",
          "type": "uint16"
        },
        {
          "internalType": "bytes",
          "name": "_srcAddress",
          "type": "bytes"
        },
        {
          "internalType": "uint64",
          "name": "_nonce",
          "type": "uint64"
        },
        {
          "internalType": "bytes",
          "name": "_payload",
          "type": "bytes"
        }
      ],
      "name": "retryMessage",
      "outputs": [],
      "stateMutability": "payable",
      "type": "function"
    },
    {
      "inputs": [],
      "name": "revokeFunds",
      "outputs": [],
      "stateMutability": "nonpayable",
      "type": "function"
    },
    {
      "inputs": [
        {
          "internalType": "bytes32",
          "name": "role",
          "type": "bytes32"
        },
        {
          "internalType": "address",
          "name": "account",
          "type": "address"
        }
      ],
      "name": "revokeRole",
      "outputs": [],
      "stateMutability": "nonpayable",
      "type": "function"
    },
    {
      "inputs": [
        {
          "internalType": "uint16",
          "name": "_version",
          "type": "uint16"
        },
        {
          "internalType": "uint16",
          "name": "_chainId",
          "type": "uint16"
        },
        {
          "internalType": "uint256",
          "name": "_configType",
          "type": "uint256"
        },
        {
          "internalType": "bytes",
          "name": "_config",
          "type": "bytes"
        }
      ],
      "name": "setConfig",
      "outputs": [],
      "stateMutability": "nonpayable",
      "type": "function"
    },
    {
      "inputs": [
        {
          "internalType": "bool",
          "name": "_emergencyExit",
          "type": "bool"
        }
      ],
      "name": "setEmergencyExit",
      "outputs": [],
      "stateMutability": "nonpayable",
      "type": "function"
    },
    {
      "inputs": [
        {
          "internalType": "uint16",
          "name": "_dstChainId",
          "type": "uint16"
        },
        {
          "internalType": "uint16",
          "name": "_packetType",
          "type": "uint16"
        },
        {
          "internalType": "uint256",
          "name": "_minGas",
          "type": "uint256"
        }
      ],
      "name": "setMinDstGas",
      "outputs": [],
      "stateMutability": "nonpayable",
      "type": "function"
    },
    {
      "inputs": [
        {
          "internalType": "uint16",
          "name": "_dstChainId",
          "type": "uint16"
        },
        {
          "internalType": "uint256",
          "name": "_size",
          "type": "uint256"
        }
      ],
      "name": "setPayloadSizeLimit",
      "outputs": [],
      "stateMutability": "nonpayable",
      "type": "function"
    },
    {
      "inputs": [
        {
          "internalType": "address",
          "name": "_precrime",
          "type": "address"
        }
      ],
      "name": "setPrecrime",
      "outputs": [],
      "stateMutability": "nonpayable",
      "type": "function"
    },
    {
      "inputs": [
        {
          "internalType": "uint16",
          "name": "_version",
          "type": "uint16"
        }
      ],
      "name": "setReceiveVersion",
      "outputs": [],
      "stateMutability": "nonpayable",
      "type": "function"
    },
    {
      "inputs": [
        {
          "internalType": "uint16",
          "name": "_version",
          "type": "uint16"
        }
      ],
      "name": "setSendVersion",
      "outputs": [],
      "stateMutability": "nonpayable",
      "type": "function"
    },
    {
      "inputs": [
        {
          "internalType": "uint256",
          "name": "_slippage",
          "type": "uint256"
        }
      ],
      "name": "setSlippage",
      "outputs": [],
      "stateMutability": "nonpayable",
      "type": "function"
    },
    {
      "inputs": [
        {
          "internalType": "address",
          "name": "_strategist",
          "type": "address"
        }
      ],
      "name": "setStrategist",
      "outputs": [],
      "stateMutability": "nonpayable",
      "type": "function"
    },
    {
      "inputs": [
        {
          "internalType": "address",
          "name": "_swapHelper",
          "type": "address"
        }
      ],
      "name": "setSwapHelper",
      "outputs": [],
      "stateMutability": "nonpayable",
      "type": "function"
    },
    {
      "inputs": [
        {
          "internalType": "uint16",
          "name": "_srcChainId",
          "type": "uint16"
        },
        {
          "internalType": "bytes",
          "name": "_path",
          "type": "bytes"
        }
      ],
      "name": "setTrustedRemote",
      "outputs": [],
      "stateMutability": "nonpayable",
      "type": "function"
    },
    {
      "inputs": [
        {
          "internalType": "uint16",
          "name": "_remoteChainId",
          "type": "uint16"
        },
        {
          "internalType": "bytes",
          "name": "_remoteAddress",
          "type": "bytes"
        }
      ],
      "name": "setTrustedRemoteAddress",
      "outputs": [],
      "stateMutability": "nonpayable",
      "type": "function"
    },
    {
      "inputs": [],
      "name": "sgBridge",
      "outputs": [
        {
          "internalType": "contract ISgBridge",
          "name": "",
          "type": "address"
        }
      ],
      "stateMutability": "view",
      "type": "function"
    },
    {
      "inputs": [
        {
          "internalType": "uint16",
          "name": "",
          "type": "uint16"
        },
        {
          "internalType": "bytes",
          "name": "_srcAddress",
          "type": "bytes"
        },
        {
          "internalType": "uint256",
          "name": "",
          "type": "uint256"
        },
        {
          "internalType": "address",
          "name": "_token",
          "type": "address"
        },
        {
          "internalType": "uint256",
          "name": "_amountLD",
          "type": "uint256"
        },
        {
          "internalType": "bytes",
          "name": "",
          "type": "bytes"
        }
      ],
      "name": "sgReceive",
      "outputs": [],
      "stateMutability": "nonpayable",
      "type": "function"
    },
    {
      "inputs": [],
      "name": "sgRouter",
      "outputs": [
        {
          "internalType": "contract IStargateRouter",
          "name": "",
          "type": "address"
        }
      ],
      "stateMutability": "view",
      "type": "function"
    },
    {
      "inputs": [],
      "name": "slippage",
      "outputs": [
        {
          "internalType": "uint256",
          "name": "",
          "type": "uint256"
        }
      ],
      "stateMutability": "view",
      "type": "function"
    },
    {
      "inputs": [],
      "name": "strategist",
      "outputs": [
        {
          "internalType": "address",
          "name": "",
          "type": "address"
        }
      ],
      "stateMutability": "view",
      "type": "function"
    },
    {
      "inputs": [],
      "name": "strategistSignMessageHash",
      "outputs": [
        {
          "internalType": "bytes32",
          "name": "",
          "type": "bytes32"
        }
      ],
      "stateMutability": "view",
      "type": "function"
    },
    {
      "inputs": [
        {
          "internalType": "bytes4",
          "name": "interfaceId",
          "type": "bytes4"
        }
      ],
      "name": "supportsInterface",
      "outputs": [
        {
          "internalType": "bool",
          "name": "",
          "type": "bool"
        }
      ],
      "stateMutability": "view",
      "type": "function"
    },
    {
      "inputs": [],
      "name": "swapHelper",
      "outputs": [
        {
          "internalType": "contract ISwapHelper",
          "name": "",
          "type": "address"
        }
      ],
      "stateMutability": "view",
      "type": "function"
    },
    {
      "inputs": [
        {
          "internalType": "contract IERC20",
          "name": "_token",
          "type": "address"
        }
      ],
      "name": "sweepToken",
      "outputs": [],
      "stateMutability": "nonpayable",
      "type": "function"
    },
    {
      "inputs": [
        {
          "internalType": "address",
          "name": "newOwner",
          "type": "address"
        }
      ],
      "name": "transferOwnership",
      "outputs": [],
      "stateMutability": "nonpayable",
      "type": "function"
    },
    {
      "inputs": [
        {
          "internalType": "uint16",
          "name": "",
          "type": "uint16"
        }
      ],
      "name": "trustedRemoteLookup",
      "outputs": [
        {
          "internalType": "bytes",
          "name": "",
          "type": "bytes"
        }
      ],
      "stateMutability": "view",
      "type": "function"
    },
    {
      "inputs": [],
      "name": "vault",
      "outputs": [
        {
          "internalType": "address",
          "name": "",
          "type": "address"
        }
      ],
      "stateMutability": "view",
      "type": "function"
    },
    {
      "inputs": [],
      "name": "vaultChainId",
      "outputs": [
        {
          "internalType": "uint16",
          "name": "",
          "type": "uint16"
        }
      ],
      "stateMutability": "view",
      "type": "function"
    },
    {
      "inputs": [],
      "name": "want",
      "outputs": [
        {
          "internalType": "contract IERC20",
          "name": "",
          "type": "address"
        }
      ],
      "stateMutability": "view",
      "type": "function"
    },
    {
      "inputs": [],
      "name": "wantDecimals",
      "outputs": [
        {
          "internalType": "uint8",
          "name": "",
          "type": "uint8"
        }
      ],
      "stateMutability": "view",
      "type": "function"
    },
    {
      "stateMutability": "payable",
      "type": "receive"
    }
  ],
  "bytecode": "0x608060405234801561001057600080fd5b506161b080620000216000396000f3fe6080604052600436106102db5760003560e01c80637533d788116101825780637533d788146107405780637f555565146107605780638cfd8f5c146107805780638da5cb5b146107b857806391d14854146107cd578063950c8a74146107ed5780639606647d1461080d5780639f38369a14610822578063a217fddf14610842578063a6c3d16514610857578063ab8236f314610877578063adf076e614610897578063b353aaa7146108ca578063baf3292d146108ea578063c1a3d44c1461090a578063c44618341461091f578063c7b9d53014610935578063cbed8b9c14610955578063d1deba1f14610975578063d547741f14610988578063d73cd47f146109a8578063df2a5b3b146109c8578063e73620c3146109e8578063eb8d72b714610a08578063efbb5cb014610a28578063f056dffe14610a3d578063f0fa55a914610a5d578063f2fde38b14610a7d578063f5ecbdbc14610a9d578063fa54080114610abd578063fbfa77cf14610add578063fd967f471461091f57600080fd5b80621d3567146102e757806301ffc9a7146103095780630517cb761461033e57806306fdde031461036b57806307e0db17146103a85780630df37483146103c85780630fc6a11c146103e857806310ddb137146104095780631be19560146104295780631f1fcd51146104495780631fe4a68614610469578063237ea53f14610489578063248a9ca3146104b95780632d606843146104d95780632f2ff15d146104ee57806336568abe1461050e57806337fded911461052e5780633d3ccc2f146105535780633d8b38f6146105735780633e032a3b146105935780633f1f4fa4146105a957806342d65a8d146105d657806345ee0755146105f6578063495f881e146106165780635641ec0314610636578063567ad85d14610650578063593178de146106855780635b8c41e61461069a57806366ad5c8a146106e95780636cbadbfa14610709578063715018a61461072b57600080fd5b366102e257005b600080fd5b3480156102f357600080fd5b50610307610302366004614c90565b610afd565b005b34801561031557600080fd5b50610329610324366004614d23565b610be6565b60405190151581526020015b60405180910390f35b34801561034a57600080fd5b5060ce5461035e906001600160a01b031681565b6040516103359190614d4d565b34801561037757600080fd5b5060408051808201909152600b81526a486f70537472617465677960a81b60208201525b6040516103359190614db1565b3480156103b457600080fd5b506103076103c3366004614dc4565b610c1d565b3480156103d457600080fd5b506103076103e3366004614ddf565b610c8a565b3480156103f457600080fd5b506101355461035e906001600160a01b031681565b34801561041557600080fd5b50610307610424366004614dc4565b610ca9565b34801561043557600080fd5b50610307610444366004614e1e565b610ce5565b34801561045557600080fd5b5060ca5461035e906001600160a01b031681565b34801561047557600080fd5b5060c95461035e906001600160a01b031681565b34801561049557600080fd5b506104ab60008051602061613b83398151915281565b604051908152602001610335565b3480156104c557600080fd5b506104ab6104d4366004614e3b565b610d72565b3480156104e557600080fd5b50610307610d88565b3480156104fa57600080fd5b50610307610509366004614e54565b610dc9565b34801561051a57600080fd5b50610307610529366004614e54565b610dea565b34801561053a57600080fd5b5060cd5461035e9061010090046001600160a01b031681565b34801561055f57600080fd5b5061030761056e366004614e3b565b610e68565b34801561057f57600080fd5b5061032961058e366004614e84565b610e9e565b34801561059f57600080fd5b506104ab60cc5481565b3480156105b557600080fd5b506104ab6105c4366004614dc4565b60686020526000908152604090205481565b3480156105e257600080fd5b506103076105f1366004614e84565b610f6b565b34801561060257600080fd5b50610307610611366004614ee4565b610fde565b34801561062257600080fd5b50610307610631366004614fec565b610ff9565b34801561064257600080fd5b5060cd546103299060ff1681565b34801561065c57600080fd5b5060cb5461067290600160a01b900461ffff1681565b60405161ffff9091168152602001610335565b34801561069157600080fd5b506104ab61129d565b3480156106a657600080fd5b506104ab6106b536600461504f565b6097602090815260009384526040808520845180860184018051928152908401958401959095209452929052825290205481565b3480156106f557600080fd5b50610307610704366004614c90565b6112fb565b34801561071557600080fd5b5060cb5461067290600160b01b900461ffff1681565b34801561073757600080fd5b506103076113cf565b34801561074c57600080fd5b5061039b61075b366004614dc4565b6113e3565b34801561076c57600080fd5b5061030761077b3660046150ac565b61147d565b34801561078c57600080fd5b506104ab61079b36600461514a565b606760209081526000928352604080842090915290825290205481565b3480156107c457600080fd5b5061035e611668565b3480156107d957600080fd5b506103296107e8366004614e54565b611677565b3480156107f957600080fd5b5060695461035e906001600160a01b031681565b34801561081957600080fd5b506103076116a3565b34801561082e57600080fd5b5061039b61083d366004614dc4565b611736565b34801561084e57600080fd5b506104ab600081565b34801561086357600080fd5b50610307610872366004614e84565b611845565b34801561088357600080fd5b5061030761089236600461517d565b6118ce565b3480156108a357600080fd5b5060cb546108b890600160c01b900460ff1681565b60405160ff9091168152602001610335565b3480156108d657600080fd5b5060655461035e906001600160a01b031681565b3480156108f657600080fd5b50610307610905366004614e1e565b6119cc565b34801561091657600080fd5b506104ab611a1f565b34801561092b57600080fd5b506104ab61271081565b34801561094157600080fd5b50610307610950366004614e1e565b611a96565b34801561096157600080fd5b50610307610970366004615217565b611ac0565b610307610983366004614c90565b611b2e565b34801561099457600080fd5b506103076109a3366004614e54565b611d44565b3480156109b457600080fd5b506103076109c3366004614e1e565b611d60565b3480156109d457600080fd5b506103076109e3366004615285565b611d8b565b3480156109f457600080fd5b50610307610a03366004614e3b565b611e3d565b348015610a1457600080fd5b50610307610a23366004614e84565b611e5d565b348015610a3457600080fd5b506104ab611eb7565b348015610a4957600080fd5b50610307610a583660046152c1565b611ef5565b348015610a6957600080fd5b50610307610a78366004614e3b565b611f0d565b348015610a8957600080fd5b50610307610a98366004614e1e565b611f1a565b348015610aa957600080fd5b5061039b610ab8366004615307565b611f90565b348015610ac957600080fd5b506104ab610ad8366004614e3b565b612025565b348015610ae957600080fd5b5060cb5461035e906001600160a01b031681565b6065546001600160a01b03163314610b685760405162461bcd60e51b815260206004820152602360248201527f4261736553747261746567793a3a496e76616c6964456e64706f696e7443616c6044820152623632b960e91b60648201526084015b60405180910390fd5b610bde8686868080601f01602080910402602001604051908101604052809392919081815260200183838082843760009201919091525050604080516020601f89018190048102820181019092528781528993509150879087908190840183828082843760009201919091525061207792505050565b505050505050565b60006001600160e01b03198216637965db0b60e01b1480610c1757506301ffc9a760e01b6001600160e01b03198316145b92915050565b610c256120f0565b6065546040516307e0db1760e01b815261ffff831660048201526001600160a01b03909116906307e0db17906024015b600060405180830381600087803b158015610c6f57600080fd5b505af1158015610c83573d6000803e3d6000fd5b5050505050565b610c926120f0565b61ffff909116600090815260686020526040902055565b610cb16120f0565b6065546040516310ddb13760e01b815261ffff831660048201526001600160a01b03909116906310ddb13790602401610c55565b610ced61214f565b610d6f33826001600160a01b03166370a08231306040518263ffffffff1660e01b8152600401610d1d9190614d4d565b602060405180830381865afa158015610d3a573d6000803e3d6000fd5b505050506040513d601f19601f82011682018060405250810190610d5e9190615354565b6001600160a01b03841691906121a8565b50565b6000908152610103602052604090206001015490565b610d9061214f565b60c9546040516001600160a01b03909116904780156108fc02916000818181858888f19350505050158015610d6f573d6000803e3d6000fd5b610dd282610d72565b610ddb816121fe565b610de58383612208565b505050565b6001600160a01b0381163314610e5a5760405162461bcd60e51b815260206004820152602f60248201527f416363657373436f6e74726f6c3a2063616e206f6e6c792072656e6f756e636560448201526e103937b632b9903337b91039b2b63360891b6064820152608401610b5f565b610e64828261228f565b5050565b610e7061214f565b610e79816122f7565b60405181815260008051602061615b833981519152906020015b60405180910390a150565b61ffff831660009081526066602052604081208054829190610ebf9061536d565b80601f0160208091040260200160405190810160405280929190818152602001828054610eeb9061536d565b8015610f385780601f10610f0d57610100808354040283529160200191610f38565b820191906000526020600020905b815481529060010190602001808311610f1b57829003601f168201915b505050505090508383604051610f4f9291906153a7565b60405180910390208180519060200120149150505b9392505050565b610f736120f0565b6065546040516342d65a8d60e01b81526001600160a01b03909116906342d65a8d90610fa7908690869086906004016153e0565b600060405180830381600087803b158015610fc157600080fd5b505af1158015610fd5573d6000803e3d6000fd5b50505050505050565b610fe661214f565b60cd805460ff1916911515919091179055565b61100161214f565b61100a8161258d565b60cd546000908190819060ff16156110b657841561106a5760405162461bcd60e51b815260206004820152601e60248201527f4261736553747261746567793a3a44656274526174696f4e6f745a65726f00006044820152606401610b5f565b6000611074612613565b90508781101561108f576110888189615414565b92506110a4565b878111156110a4576110a18882615414565b93505b6110ae8389615414565b9150506110c8565b6110c0888861277c565b919450925090505b60006110d48285615427565b9050600080888310156110f6576110eb838a615414565b915060009050611107565b600091506111048984615414565b90505b6000604051806101600160405280306001600160a01b031681526020014281526020018881526020018781526020018681526020018481526020018381526020018b815260200183611157611eb7565b6111619190615414565b815260200160d060008154809291906111799061543a565b909155508152602001899052905081156111d95760cb546040516111d491849161ffff600160a01b830416916001600160a01b0316906111c090600290879060200161548b565b604051602081830303815290604052612873565b611204565b6112046002826040516020016111f092919061548b565b60405160208183030381529060405261294d565b7fb983e09c034e9c52b5e547cb0589967992b97717733f580cc5ad0afcdc4b522b8160400151826060015183608001518460a001518560c001518660e001518761010001516040516112879796959493929190968752602087019590955260408601939093526060850191909152608084015260a083015260c082015260e00190565b60405180910390a1505050505050505050505050565b60d05460cb546040513060601b6001600160601b03191660208201526034810192909252600160b01b900460f01b6001600160f01b031916605482015260009060560160405160208183030381529060405280519060200120905090565b3330146113595760405162461bcd60e51b815260206004820152602660248201527f4e6f6e626c6f636b696e674c7a4170703a2063616c6c6572206d7573742062656044820152650204c7a4170760d41b6064820152608401610b5f565b610bde8686868080601f01602080910402602001604051908101604052809392919081815260200183838082843760009201919091525050604080516020601f890181900481028201810190925287815289935091508790879081908401838280828437600092019190915250612acd92505050565b6113d76120f0565b6113e16000612be3565b565b606660205260009081526040902080546113fc9061536d565b80601f01602080910402602001604051908101604052809291908181526020018280546114289061536d565b80156114755780601f1061144a57610100808354040283529160200191611475565b820191906000526020600020905b81548152906001019060200180831161145857829003601f168201915b505050505081565b600054610100900460ff161580801561149d5750600054600160ff909116105b806114be57506114ac30612c35565b1580156114be575060005460ff166001145b6115215760405162461bcd60e51b815260206004820152602e60248201527f496e697469616c697a61626c653a20636f6e747261637420697320616c72656160448201526d191e481a5b9a5d1a585b1a5e995960921b6064820152608401610b5f565b6000805460ff191660011790558015611544576000805461ff0019166101001790555b61154c612c44565b61155d8989898989468a8a8a612c6b565b61158c73b67c014fa700e69681a673876eb8bafaa36bff716000805160206160fb833981519152600019612e3e565b6115bb73b67c014fa700e69681a673876eb8bafaa36bff7160008051602061611b833981519152600019612e3e565b6115f073c5102fe9359fd9a28f877a67e36b0f050d81a3cc73e592427a0aece92de3edee1f18e0157c05861564600019612e3e565b60ca54611617906001600160a01b031660008051602061611b833981519152600019612e3e565b801561165d576000805461ff0019169055604051600181527f7f26b83ff96e1f2b6a682f133852f6798a09c465da95921460cefb38474024989060200160405180910390a15b505050505050505050565b6033546001600160a01b031690565b6000918252610103602090815260408084206001600160a01b0393909316845291905290205460ff1690565b6116ab61214f565b60ca546040516370a0823160e01b81526113e1916001916001600160a01b03909116906370a08231906116e2903090600401614d4d565b602060405180830381865afa1580156116ff573d6000803e3d6000fd5b505050506040513d601f19601f820116820180604052508101906117239190615354565b60ca546001600160a01b031691906121a8565b61ffff81166000908152606660205260408120805460609291906117599061536d565b80601f01602080910402602001604051908101604052809291908181526020018280546117859061536d565b80156117d25780601f106117a7576101008083540402835291602001916117d2565b820191906000526020600020905b8154815290600101906020018083116117b557829003601f168201915b50505050509050805160000361182a5760405162461bcd60e51b815260206004820152601d60248201527f4c7a4170703a206e6f20747275737465642070617468207265636f72640000006044820152606401610b5f565b610f6460006014835161183d9190615414565b839190612f42565b61184d6120f0565b81813060405160200161186293929190615547565b60408051601f1981840301815291815261ffff851660009081526066602052209061188d90826155c3565b507f8c0400cfe2d1199b1a725c78960bcc2a344d869b80590d0f2bd005db15a572ce8383836040516118c1939291906153e0565b60405180910390a1505050565b60ce546001600160a01b03163314806118f6575060cd5461010090046001600160a01b031633145b6119415760405162461bcd60e51b815260206004820152601c60248201527b53674272696467653a3a526f757465724f724272696467654f6e6c7960201b6044820152606401610b5f565b600061194f86826014612f42565b60405160200161195f919061567c565b60405160208183030381529060405261197790615698565b6040805185815260609290921c6020830181905292506001600160a01b038616917f92073a89a07a000083eb8b2575fc15e7bb936efe55d00727d6942a796d7211a7910160405180910390a250505050505050565b6119d46120f0565b606980546001600160a01b0319166001600160a01b0383161790556040517f5db758e995a17ec1ad84bdef7e8c3293a0bd6179bcce400dff5d4c3d87db726b90610e93908390614d4d565b60ca546040516370a0823160e01b81526000916001600160a01b0316906370a0823190611a50903090600401614d4d565b602060405180830381865afa158015611a6d573d6000803e3d6000fd5b505050506040513d601f19601f82011682018060405250810190611a919190615354565b905090565b611a9e6120f0565b60c980546001600160a01b0319166001600160a01b0392909216919091179055565b611ac86120f0565b6065546040516332fb62e760e21b81526001600160a01b039091169063cbed8b9c90611b0090889088908890889088906004016156cf565b600060405180830381600087803b158015611b1a57600080fd5b505af115801561165d573d6000803e3d6000fd5b61ffff86166000908152609760205260408082209051611b5190889088906153a7565b90815260408051602092819003830190206001600160401b03871660009081529252902054905080611bd15760405162461bcd60e51b815260206004820152602360248201527f4e6f6e626c6f636b696e674c7a4170703a206e6f2073746f726564206d65737360448201526261676560e81b6064820152608401610b5f565b808383604051611be29291906153a7565b604051809103902014611c415760405162461bcd60e51b815260206004820152602160248201527f4e6f6e626c6f636b696e674c7a4170703a20696e76616c6964207061796c6f616044820152601960fa1b6064820152608401610b5f565b61ffff87166000908152609760205260408082209051611c6490899089906153a7565b90815260408051602092819003830181206001600160401b038916600090815290845282902093909355601f88018290048202830182019052868252611cfc918991899089908190840183828082843760009201919091525050604080516020601f8a018190048102820181019092528881528a935091508890889081908401838280828437600092019190915250612acd92505050565b7fc264d91f3adc5588250e1551f547752ca0cfa8f6b530d243b9f9f4cab10ea8e58787878785604051611d339594939291906156fd565b60405180910390a150505050505050565b611d4d82610d72565b611d56816121fe565b610de5838361228f565b611d6861304f565b61013580546001600160a01b0319166001600160a01b0392909216919091179055565b611d936120f0565b60008111611ddb5760405162461bcd60e51b81526020600482015260156024820152744c7a4170703a20696e76616c6964206d696e47617360581b6044820152606401610b5f565b61ffff83811660008181526067602090815260408083209487168084529482529182902085905581519283528201929092529081018290527f9d5c7c0b934da8fefa9c7760c98383778a12dfbfc0c3b3106518f43fb9508ac0906060016118c1565b611e456120f0565b600090815260cf60205260409020805460ff19169055565b611e656120f0565b61ffff83166000908152606660205260409020611e83828483615738565b507ffa41487ad5d6728f0b19276fa1eddc16558578f5109fc39d2dc33c3230470dab8383836040516118c1939291906153e0565b6000611ec9611ec46130be565b6130f0565b611ed1611a1f565b611ee1611edc613168565b61319c565b611eeb9190615427565b611a919190615427565b60008051602061613b833981519152610c83816121fe565b611f1561214f565b60cc55565b611f226120f0565b6001600160a01b038116611f875760405162461bcd60e51b815260206004820152602660248201527f4f776e61626c653a206e6577206f776e657220697320746865207a65726f206160448201526564647265737360d01b6064820152608401610b5f565b610d6f81612be3565b606554604051633d7b2f6f60e21b815261ffff808716600483015285166024820152306044820152606481018390526060916001600160a01b03169063f5ecbdbc90608401600060405180830381865afa158015611ff2573d6000803e3d6000fd5b505050506040513d6000823e601f3d908101601f1916820160405261201a91908101906157f1565b90505b949350505050565b6040517b0ca2ba3432b932bab69029b4b3b732b21026b2b9b9b0b3b29d05199960211b6020820152603c8101829052600090605c01604051602081830303815290604052805190602001209050919050565b6000806120da5a60966366ad5c8a60e01b8989898960405160240161209f949392919061585e565b60408051601f198184030181529190526020810180516001600160e01b03166001600160e01b03199093169290921790915230929190613229565b9150915081610bde57610bde86868686856132b5565b336120f9611668565b6001600160a01b0316146113e15760405162461bcd60e51b815260206004820181905260248201527f4f776e61626c653a2063616c6c6572206973206e6f7420746865206f776e65726044820152606401610b5f565b60c9546001600160a01b031633146113e15760405162461bcd60e51b815260206004820152601c60248201527b10985cd954dd1c985d1959de4e8e93db9b1e54dd1c985d1959da5cdd60221b6044820152606401610b5f565b610de58363a9059cbb60e01b84846040516024016121c792919061589c565b60408051601f198184030181529190526020810180516001600160e01b03166001600160e01b031990931692909217909152613352565b610d6f8133613427565b6122128282611677565b610e64576000828152610103602090815260408083206001600160a01b03851684529091529020805460ff1916600117905561224b3390565b6001600160a01b0316816001600160a01b0316837f2f8788117e7eff1d82e926ec794901d17c78024a50270940304540a733656f0d60405160405180910390a45050565b6122998282611677565b15610e64576000828152610103602090815260408083206001600160a01b0385168085529252808320805460ff1916905551339285917ff6391f5c32d9c69d2a47ea670b442974b53935d1edc7fd64eb21e047a839171b9190a45050565b60cd5460ff16156123055750565b61230d613480565b6000612317611a1f565b90506000828211156123305761232d8383615414565b90505b8015610de557604080516002808252606082018352600092602083019080368337019050509050818160008151811061236b5761236b6158b5565b60200260200101818152505060008160018151811061238c5761238c6158b5565b602090810291909101015260cc5460405163f9273ffb60e01b81526000916127109160008051602061611b8339815191529063f9273ffb906123d79030908890600190600401615906565b602060405180830381865afa1580156123f4573d6000803e3d6000fd5b505050506040513d601f19601f820116820180604052508101906124189190615354565b612422919061593c565b61242c9190615969565b604051634d49e87d60e01b815290915060008051602061611b83398151915290634d49e87d906124649085908590429060040161597d565b6020604051808303816000875af1158015612483573d6000803e3d6000fd5b505050506040513d601f19601f820116820180604052508101906124a79190615354565b506040516370a0823160e01b815260009073b67c014fa700e69681a673876eb8bafaa36bff71906370a08231906124e2903090600401614d4d565b602060405180830381865afa1580156124ff573d6000803e3d6000fd5b505050506040513d601f19601f820116820180604052508101906125239190615354565b60405163534a7e1d60e11b8152600481018290529091506000805160206160fb8339815191529063a694fc3a90602401600060405180830381600087803b15801561256d57600080fd5b505af1158015612581573d6000803e3d6000fd5b50505050505050505050565b600061259761129d565b905060006125a482612025565b60c9549091506001600160a01b03166125bd8285613562565b6001600160a01b031614610de55760405162461bcd60e51b815260206004820152601e60248201527f4261736553747261746567793a3a496e76616c69645369676e617475726500006044820152606401610b5f565b600061261d613480565b6000612627611a1f565b604051632e1a7d4d60e01b8152600481018290529091506000805160206160fb83398151915290632e1a7d4d90602401600060405180830381600087803b15801561267157600080fd5b505af1158015612685573d6000803e3d6000fd5b50506040516301f1d0ab60e51b815260008051602061611b8339815191529250633e3a156091506126c1908490600090819042906004016159a2565b6020604051808303816000875af11580156126e0573d6000803e3d6000fd5b505050506040513d601f19601f820116820180604052508101906127049190615354565b5060ca546040516370a0823160e01b81526001600160a01b03909116906370a0823190612735903090600401614d4d565b602060405180830381865afa158015612752573d6000803e3d6000fd5b505050506040513d601f19601f820116820180604052508101906127769190615354565b91505090565b60008060008061278a611eb7565b90508581106127a85761279d8682615414565b9350600092506127b9565b600093506127b68187615414565b92505b6127cb6127c68587615427565b613586565b505060ca546040516370a0823160e01b81526000916001600160a01b0316906370a08231906127fe903090600401614d4d565b602060405180830381865afa15801561281b573d6000803e3d6000fd5b505050506040513d601f19601f8201168201806040525081019061283f9190615354565b9050848111612854578094506000925061286a565b6128676128618683615414565b876136bb565b92505b50509250925092565b60cd54604051630dc6346160e01b815260009161010090046001600160a01b031690630dc63461906128ad908790879087906004016159c0565b602060405180830381865afa1580156128ca573d6000803e3d6000fd5b505050506040513d601f19601f820116820180604052508101906128ee9190615354565b60cd5460ca54604051633920455b60e11b81529293506001600160a01b036101009092048216926372408ab6928592612934929116908a908a908a908a906004016159ee565b6000604051808303818588803b15801561256d57600080fd5b60cb5460408051606083811b6001600160601b03199081166020840152309182901b16603483015282516028818403018152604890920190925260655490926000926001600160a01b03909216916340a7bb109161ffff600160a01b909104169086856129b86136d1565b6040518663ffffffff1660e01b81526004016129d8959493929190615a2b565b6040805180830381865afa1580156129f4573d6000803e3d6000fd5b505050506040513d601f19601f82011682018060405250810190612a189190615a7f565b50905080471015612a445760405162fae2d560e21b815260048101829052476024820152604401610b5f565b60655460cb546001600160a01b039091169063c5803100908390600160a01b900461ffff1685873080612a756136d1565b6040518863ffffffff1660e01b8152600401612a9696959493929190615aa3565b6000604051808303818588803b158015612aaf57600080fd5b505af1158015612ac3573d6000803e3d6000fd5b5050505050505050565b60cb5461ffff858116600160a01b9092041614612b375760405162461bcd60e51b815260206004820152602260248201527f4261736553747261746567793a3a5661756c74436861696e49644d69736d61746044820152610c6d60f31b6064820152608401610b5f565b6000612b4584826014612f42565b604051602001612b55919061567c565b604051602081830303815290604052612b6d90615698565b60cb5460609190911c91506001600160a01b03168114612bda5760405162461bcd60e51b815260206004820152602260248201527f4261736553747261746567793a3a5661756c74416464726573734d69736d61746044820152610c6d60f31b6064820152608401610b5f565b610c8382613701565b603380546001600160a01b038381166001600160a01b0319831681179093556040519116919082907f8be0079c531659141344cd1fd0a4f28419497f9722a3daafe3b4186f6b6457e090600090a35050565b6001600160a01b03163b151590565b600054610100900460ff166113e15760405162461bcd60e51b8152600401610b5f90615b0a565b600054610100900460ff16612c925760405162461bcd60e51b8152600401610b5f90615b0a565b612c9b89613822565b60c980546001600160a01b03808b166001600160a01b03199283161790925560ca80548a8416908316811790915560cb8054938a1661ffff8a16600160a01b029093166001600160b01b0319909416939093179190911790915560cc8290556040805163313ce56760e01b8152905163313ce567916004808201926020929091908290030181865afa158015612d35573d6000803e3d6000fd5b505050506040513d601f19601f82011682018060405250810190612d599190615b55565b60cb8054600060d05562ffffff60b01b1916600160c01b60ff939093169290920261ffff60b01b191691909117600160b01b61ffff87160217905560cd8054610100600160a81b0319166101006001600160a01b03868116919091029190911790915560ce80546001600160a01b03191684831617905560ca5460405163095ea7b360e01b815291169063095ea7b390612dfb9086906000199060040161589c565b6020604051808303816000875af1158015612e1a573d6000803e3d6000fd5b505050506040513d601f19601f820116820180604052508101906125819190615b78565b801580612eb85750604051636eb1769f60e11b81523060048201526001600160a01b03838116602483015284169063dd62ed3e90604401602060405180830381865afa158015612e92573d6000803e3d6000fd5b505050506040513d601f19601f82011682018060405250810190612eb69190615354565b155b612f235760405162461bcd60e51b815260206004820152603660248201527f5361666545524332303a20617070726f76652066726f6d206e6f6e2d7a65726f60448201527520746f206e6f6e2d7a65726f20616c6c6f77616e636560501b6064820152608401610b5f565b610de58363095ea7b360e01b84846040516024016121c792919061589c565b606081612f5081601f615427565b1015612f8f5760405162461bcd60e51b815260206004820152600e60248201526d736c6963655f6f766572666c6f7760901b6044820152606401610b5f565b612f998284615427565b84511015612fdd5760405162461bcd60e51b8152602060048201526011602482015270736c6963655f6f75744f66426f756e647360781b6044820152606401610b5f565b606082158015612ffc5760405191506000825260208201604052613046565b6040519150601f8416801560200281840101858101878315602002848b0101015b8183101561303557805183526020928301920161301d565b5050858452601f01601f1916604052505b50949350505050565b60c9546001600160a01b031633148061306757503330145b6113e15760405162461bcd60e51b815260206004820152602260248201527f4261736553747261746567793a3a4f6e6c79537472617465676973744f725365604482015261363360f11b6064820152608401610b5f565b6040516246613160e11b81526000906000805160206160fb83398151915290628cc26290611a50903090600401614d4d565b60ca54600090610c179073c31e54c7a869b9fcbecc14363cf510d1c41fa443907382af49447d8a07e3bd95bd0d56f35241523fbab1906001600160a01b03166131637344ca2be2bd6a7203ccdbb63eed8382274f737a1573c5102fe9359fd9a28f877a67e36b0f050d81a3cc848961385a565b61385a565b6040516370a0823160e01b81526000906000805160206160fb833981519152906370a0823190611a50903090600401614d4d565b6000816000036131ae57506000919050565b604051630262267d60e61b8152306004820152602481018390526000604482015260008051602061611b833981519152906398899f4090606401602060405180830381865afa158015613205573d6000803e3d6000fd5b505050506040513d601f19601f82011682018060405250810190610c179190615354565b6000606060008060008661ffff166001600160401b0381111561324e5761324e614f01565b6040519080825280601f01601f191660200182016040528015613278576020820181803683370190505b50905060008087516020890160008d8df191503d92508683111561329a578692505b828152826000602083013e9093509150505b94509492505050565b8180519060200120609760008761ffff1661ffff168152602001908152602001600020856040516132e6919061567c565b9081526040805191829003602090810183206001600160401b0388166000908152915220919091557fe183f33de2837795525b4792ca4cd60535bd77c53b7e7030060bfcf5734d6b0c906133439087908790879087908790615b95565b60405180910390a15050505050565b60006133a7826040518060400160405280602081526020017f5361666545524332303a206c6f772d6c6576656c2063616c6c206661696c6564815250856001600160a01b03166138829092919063ffffffff16565b90508051600014806133c85750808060200190518101906133c89190615b78565b610de55760405162461bcd60e51b815260206004820152602a60248201527f5361666545524332303a204552433230206f7065726174696f6e20646964206e6044820152691bdd081cdd58d8d9595960b21b6064820152608401610b5f565b6134318282611677565b610e645761343e81613891565b6134498360206138a3565b60405160200161345a929190615be7565b60408051601f198184030181529082905262461bcd60e51b8252610b5f91600401614db1565b6000805160206160fb8339815191526001600160a01b0316633d18b9126040518163ffffffff1660e01b8152600401600060405180830381600087803b1580156134c957600080fd5b505af11580156134dd573d6000803e3d6000fd5b50506040516370a0823160e01b81526113e1925073c5102fe9359fd9a28f877a67e36b0f050d81a3cc91506370a082319061351c903090600401614d4d565b602060405180830381865afa158015613539573d6000803e3d6000fd5b505050506040513d601f19601f8201168201806040525081019061355d9190615354565b613a3e565b60008060006135718585613bd8565b9150915061357e81613c1d565b509392505050565b60ca546040516370a0823160e01b8152600091829182916001600160a01b0316906370a08231906135bb903090600401614d4d565b602060405180830381865afa1580156135d8573d6000803e3d6000fd5b505050506040513d601f19601f820116820180604052508101906135fc9190615354565b905083811061361057509192600092509050565b61362261361d8286615414565b613d62565b60ca546040516370a0823160e01b81526001600160a01b03909116906370a0823190613652903090600401614d4d565b602060405180830381865afa15801561366f573d6000803e3d6000fd5b505050506040513d601f19601f820116820180604052508101906136939190615354565b9050808411156136b1579150816136aa8185615414565b91506136b5565b8392505b50915091565b60008183106136ca5781610f64565b5090919050565b60408051600160f01b6020820152620f424060228083019190915282518083039091018152604290910190915290565b6000818060200190518101906137179190615c56565b9050600381600481111561372d5761372d615453565b03613778576000828060200190518101906137489190615c77565b91505061375881600001516122f7565b805160405190815260008051602061615b833981519152906020016118c1565b600081600481111561378c5761378c615453565b036137b3576000828060200190518101906137a79190615cba565b915050610de581613db8565b60048160048111156137c7576137c7615453565b03610e64576000828060200190518101906137e29190615d25565b9150506137f28160000151613ee2565b80516040517f7c9a2d2ec51230d7dbed27f113a325b7e20aef7b049e68b2339257b5edff5bea916118c191614d4d565b600054610100900460ff166138495760405162461bcd60e51b8152600401610b5f90615b0a565b613851613f21565b610d6f81613f51565b60008061386986610708613f9a565b509050613878818487876141e3565b9695505050505050565b606061201d84846000856142ea565b6060610c176001600160a01b03831660145b606060006138b283600261593c565b6138bd906002615427565b6001600160401b038111156138d4576138d4614f01565b6040519080825280601f01601f1916602001820160405280156138fe576020820181803683370190505b509050600360fc1b81600081518110613919576139196158b5565b60200101906001600160f81b031916908160001a905350600f60fb1b81600181518110613948576139486158b5565b60200101906001600160f81b031916908160001a905350600061396c84600261593c565b613977906001615427565b90505b60018111156139ef576f181899199a1a9b1b9c1cb0b131b232b360811b85600f16601081106139ab576139ab6158b5565b1a60f81b8282815181106139c1576139c16158b5565b60200101906001600160f81b031916908160001a90535060049490941c936139e881615d73565b905061397a565b508315610f645760405162461bcd60e51b815260206004820181905260248201527f537472696e67733a20686578206c656e67746820696e73756666696369656e746044820152606401610b5f565b80600003613a495750565b600061271060cc546064613a5d919061593c565b613a679190615969565b610135546040516310cabd1d60e01b815273c5102fe9359fd9a28f877a67e36b0f050d81a3cc600482015273ff970a61a04b1ca14834a43f5de4533ebddb5cc860248201526044810185905260ff831660648201529192506001600160a01b0316906310cabd1d90608401600060405180830381600087803b158015613aec57600080fd5b505af1925050508015613afd575060015b613b7d573d808015613b2b576040519150601f19603f3d011682016040523d82523d6000602084013e613b30565b606091505b50613b3a836143ba565b80604051613b48919061567c565b604051908190038120907f0a2fcb3b84a0d878df7caaa7b727d5a91ae9d8c8a7c8bdef43d4af853ce904f790600090a2505050565b604051829073ff970a61a04b1ca14834a43f5de4533ebddb5cc89073c5102fe9359fd9a28f877a67e36b0f050d81a3cc907fea368a40e9570069bb8e6511d668293ad2e1f03b0d982431fd223de9f3b70ca690600090a45050565b6000808251604103613c0e5760208301516040840151606085015160001a613c0287828585614538565b94509450505050613c16565b506000905060025b9250929050565b6000816004811115613c3157613c31615453565b03613c395750565b6001816004811115613c4d57613c4d615453565b03613c955760405162461bcd60e51b815260206004820152601860248201527745434453413a20696e76616c6964207369676e617475726560401b6044820152606401610b5f565b6002816004811115613ca957613ca9615453565b03613cf65760405162461bcd60e51b815260206004820152601f60248201527f45434453413a20696e76616c6964207369676e6174757265206c656e677468006044820152606401610b5f565b6003816004811115613d0a57613d0a615453565b03610d6f5760405162461bcd60e51b815260206004820152602260248201527f45434453413a20696e76616c6964207369676e6174757265202773272076616c604482015261756560f01b6064820152608401610b5f565b80600003613d6d5750565b80613d79611ec46130be565b10613d8657610d6f613480565b6000613dad613d93613168565b613d9e611ec46130be565b613da89085615414565b6136bb565b9050610e64816145e2565b602080820151600090815260cf909152604090205460ff1615613e1d5760405162461bcd60e51b815260206004820152601e60248201527f4261736553747261746567793a3a416c726561647957697468647261776e00006044820152606401610b5f565b600080613e2d8360000151613586565b91509150600060016040518060800160405280306001600160a01b031681526020018581526020018481526020018660200151815250604051602001613e74929190615d8a565b60408051601f1981840301815291905290508215613eb55760cb54613eb090849061ffff600160a01b820416906001600160a01b031684612873565b613ebe565b613ebe8161294d565b505050602090810151600090815260cf90915260409020805460ff19166001179055565b613eeb81614797565b60ca546040516370a0823160e01b8152610d6f9183916001600160a01b03909116906370a08231906116e2903090600401614d4d565b600054610100900460ff16613f485760405162461bcd60e51b8152600401610b5f90615b0a565b6113e133612be3565b600054610100900460ff16613f785760405162461bcd60e51b8152600401610b5f90615b0a565b606580546001600160a01b0319166001600160a01b0392909216919091179055565b6000808263ffffffff16600003613fd85760405162461bcd60e51b8152602060048201526002602482015261042560f41b6044820152606401610b5f565b604080516002808252606082018352600092602083019080368337019050509050838160008151811061400d5761400d6158b5565b602002602001019063ffffffff16908163ffffffff168152505060008160018151811061403c5761403c6158b5565b602002602001019063ffffffff16908163ffffffff1681525050600080866001600160a01b031663883bdbfd846040518263ffffffff1660e01b81526004016140859190615dcc565b600060405180830381865afa1580156140a2573d6000803e3d6000fd5b505050506040513d6000823e601f3d908101601f191682016040526140ca9190810190615ea8565b915091506000826000815181106140e3576140e36158b5565b6020026020010151836001815181106140fe576140fe6158b5565b60200260200101516141109190615f73565b9050600082600081518110614127576141276158b5565b602002602001015183600181518110614142576141426158b5565b60200260200101516141549190615fa0565b905061416663ffffffff891683615fc7565b965060008260060b12801561418c575061418663ffffffff891683616005565b60060b15155b1561419f578661419b81616027565b9750505b60006141b86001600160a01b0363ffffffff8b1661604a565b90506141d4600160201b600160c01b03602084901b168261607c565b96505050505050509250929050565b6000806141ef866147bb565b90506001600160801b036001600160a01b0382161161427557600061421d6001600160a01b0383168061593c565b9050836001600160a01b0316856001600160a01b03161061425557614250600160c01b876001600160801b031683614ad3565b61426d565b61426d81876001600160801b0316600160c01b614ad3565b925050613046565b600061428f6001600160a01b03831680600160401b614ad3565b9050836001600160a01b0316856001600160a01b0316106142c7576142c2600160801b876001600160801b031683614ad3565b6142df565b6142df81876001600160801b0316600160801b614ad3565b979650505050505050565b60608247101561434b5760405162461bcd60e51b815260206004820152602660248201527f416464726573733a20696e73756666696369656e742062616c616e636520666f6044820152651c8818d85b1b60d21b6064820152608401610b5f565b600080866001600160a01b03168587604051614367919061567c565b60006040518083038185875af1925050503d80600081146143a4576040519150601f19603f3d011682016040523d82523d6000602084013e6143a9565b606091505b50915091506142df87838387614b85565b6143f56040518060a001604052806060815260200160006001600160a01b031681526020016000815260200160008152602001600081525090565b604080517331440bfa4d67f668a3e1de99f8dac3c1436068f360621b602082015261017760eb1b60348201527382af49447d8a07e3bd95bd0d56f35241523fbab160601b6037820152607d60ea1b604b8201526001720d1eb3cbf69c6bd6f96b78144375982844946760631b0319604e8201528151604281830301815260629091019091526000614485846130f0565b8284523060208501524260408501526060840185905260cc54909150612710906144af908361593c565b6144b99190615969565b608084015260405163c04b8d5960e01b815273e592427a0aece92de3edee1f18e0157c058615649063c04b8d59906144f59086906004016160a2565b6020604051808303816000875af1158015614514573d6000803e3d6000fd5b505050506040513d601f19601f82011682018060405250810190610c839190615354565b6000806fa2a8918ca85bafe22016d0b997e4df60600160ff1b0383111561456557506000905060036132ac565b60006001878787876040516000815260200160405260405161458a94939291906159a2565b6020604051602081039080840390855afa1580156145ac573d6000803e3d6000fd5b5050604051601f1901519150506001600160a01b0381166145d5576000600192509250506132ac565b9660009650945050505050565b6145ea613480565b604080516002808252606082018352600092602083019080368337019050509050818160008151811061461f5761461f6158b5565b602002602001018181525050600081600181518110614640576146406158b5565b602090810291909101015260405163f9273ffb60e01b815260009060008051602061611b8339815191529063f9273ffb9061468390309086908690600401615906565b602060405180830381865afa1580156146a0573d6000803e3d6000fd5b505050506040513d601f19601f820116820180604052508101906146c49190615354565b90506146ce611a1f565b8111156146e0576146dd611a1f565b90505b604051632e1a7d4d60e01b8152600481018290526000805160206160fb83398151915290632e1a7d4d90602401600060405180830381600087803b15801561472757600080fd5b505af115801561473b573d6000803e3d6000fd5b50505050600061271060cc5485614752919061593c565b61475c9190615969565b6040516301f1d0ab60e51b815290915060008051602061611b83398151915290633e3a1560906144f5908590600090869042906004016159a2565b60006147a1612613565b60ca54909150610e64906001600160a01b031683836121a8565b60008060008360020b126147d2578260020b6147da565b8260020b6000035b9050620d89e8811115614800576040516315e4079d60e11b815260040160405180910390fd5b60008160011660000361481757600160801b614829565b6ffffcb933bd6fad37aa2d162d1a5940015b6001600160881b031690506002821615614853576ffff97272373d413259a46990580e213a0260801c5b6004821615614872576ffff2e50f5f656932ef12357cf3c7fdcc0260801c5b6008821615614891576fffe5caca7e10e4e61c3624eaa0941cd00260801c5b60108216156148b0576fffcb9843d60f6159c9db58835c9266440260801c5b60208216156148cf576fff973b41fa98c081472e6896dfb254c00260801c5b60408216156148ee576fff2ea16466c96a3843ec78b326b528610260801c5b608082161561490d576ffe5dee046a99a2a811c461f1969c30530260801c5b61010082161561492d576ffcbe86c7900a88aedcffc83b479aa3a40260801c5b61020082161561494d576ff987a7253ac413176f2b074cf7815e540260801c5b61040082161561496d576ff3392b0822b70005940c7a398e4b70f30260801c5b61080082161561498d576fe7159475a2c29b7443b29c7fa6e889d90260801c5b6110008216156149ad576fd097f3bdfd2022b8845ad8f792aa58250260801c5b6120008216156149cd576fa9f746462d870fdf8a65dc1f90e061e50260801c5b6140008216156149ed576f70d869a156d2a1b890bb3df62baf32f70260801c5b618000821615614a0d576f31be135f97d08fd981231505542fcfa60260801c5b62010000821615614a2e576f09aa508b5b7a84e1c677de54f3e99bc90260801c5b62020000821615614a4e576e5d6af8dedb81196699c329225ee6040260801c5b62040000821615614a6d576d2216e584f5fa1ea926041bedfe980260801c5b62080000821615614a8a576b048a170391f7dc42444e8fa20260801c5b60008460020b1315614aab578060001981614aa757614aa7615953565b0490505b600160201b810615614abe576001614ac1565b60005b60ff16602082901c0192505050919050565b6000808060001985870985870292508281108382030391505080600003614b0c5760008411614b0157600080fd5b508290049050610f64565b808411614b1857600080fd5b6000848688096000868103871696879004966002600389028118808a02820302808a02820302808a02820302808a02820302808a02820302808a02909103029181900381900460010186841190950394909402919094039290920491909117919091029150509392505050565b60608315614bf2578251600003614beb57614b9f85612c35565b614beb5760405162461bcd60e51b815260206004820152601d60248201527f416464726573733a2063616c6c20746f206e6f6e2d636f6e74726163740000006044820152606401610b5f565b508161201d565b61201d8383815115614c075781518083602001fd5b8060405162461bcd60e51b8152600401610b5f9190614db1565b803561ffff81168114614c3357600080fd5b919050565b60008083601f840112614c4a57600080fd5b5081356001600160401b03811115614c6157600080fd5b602083019150836020828501011115613c1657600080fd5b80356001600160401b0381168114614c3357600080fd5b60008060008060008060808789031215614ca957600080fd5b614cb287614c21565b955060208701356001600160401b0380821115614cce57600080fd5b614cda8a838b01614c38565b9097509550859150614cee60408a01614c79565b94506060890135915080821115614d0457600080fd5b50614d1189828a01614c38565b979a9699509497509295939492505050565b600060208284031215614d3557600080fd5b81356001600160e01b031981168114610f6457600080fd5b6001600160a01b0391909116815260200190565b60005b83811015614d7c578181015183820152602001614d64565b50506000910152565b60008151808452614d9d816020860160208601614d61565b601f01601f19169290920160200192915050565b602081526000610f646020830184614d85565b600060208284031215614dd657600080fd5b610f6482614c21565b60008060408385031215614df257600080fd5b614dfb83614c21565b946020939093013593505050565b6001600160a01b0381168114610d6f57600080fd5b600060208284031215614e3057600080fd5b8135610f6481614e09565b600060208284031215614e4d57600080fd5b5035919050565b60008060408385031215614e6757600080fd5b823591506020830135614e7981614e09565b809150509250929050565b600080600060408486031215614e9957600080fd5b614ea284614c21565b925060208401356001600160401b03811115614ebd57600080fd5b614ec986828701614c38565b9497909650939450505050565b8015158114610d6f57600080fd5b600060208284031215614ef657600080fd5b8135610f6481614ed6565b634e487b7160e01b600052604160045260246000fd5b604051602081016001600160401b0381118282101715614f3957614f39614f01565b60405290565b604051601f8201601f191681016001600160401b0381118282101715614f6757614f67614f01565b604052919050565b60006001600160401b03821115614f8857614f88614f01565b50601f01601f191660200190565b600082601f830112614fa757600080fd5b8135614fba614fb582614f6f565b614f3f565b818152846020838601011115614fcf57600080fd5b816020850160208301376000918101602001919091529392505050565b600080600080600060a0868803121561500457600080fd5b8535945060208601359350604086013592506060860135915060808601356001600160401b0381111561503657600080fd5b61504288828901614f96565b9150509295509295909350565b60008060006060848603121561506457600080fd5b61506d84614c21565b925060208401356001600160401b0381111561508857600080fd5b61509486828701614f96565b9250506150a360408501614c79565b90509250925092565b600080600080600080600080610100898b0312156150c957600080fd5b88356150d481614e09565b975060208901356150e481614e09565b965060408901356150f481614e09565b9550606089013561510481614e09565b945061511260808a01614c21565b935060a089013561512281614e09565b925060c089013561513281614e09565b8092505060e089013590509295985092959890939650565b6000806040838503121561515d57600080fd5b61516683614c21565b915061517460208401614c21565b90509250929050565b60008060008060008060c0878903121561519657600080fd5b61519f87614c21565b955060208701356001600160401b03808211156151bb57600080fd5b6151c78a838b01614f96565b965060408901359550606089013591506151e082614e09565b9093506080880135925060a088013590808211156151fd57600080fd5b5061520a89828a01614f96565b9150509295509295509295565b60008060008060006080868803121561522f57600080fd5b61523886614c21565b945061524660208701614c21565b93506040860135925060608601356001600160401b0381111561526857600080fd5b61527488828901614c38565b969995985093965092949392505050565b60008060006060848603121561529a57600080fd5b6152a384614c21565b92506152b160208501614c21565b9150604084013590509250925092565b600080600080608085870312156152d757600080fd5b84356152e281614e09565b935060208501356152f281614e09565b93969395505050506040820135916060013590565b6000806000806080858703121561531d57600080fd5b61532685614c21565b935061533460208601614c21565b9250604085013561534481614e09565b9396929550929360600135925050565b60006020828403121561536657600080fd5b5051919050565b600181811c9082168061538157607f821691505b6020821081036153a157634e487b7160e01b600052602260045260246000fd5b50919050565b8183823760009101908152919050565b81835281816020850137506000828201602090810191909152601f909101601f19169091010190565b61ffff8416815260406020820152600061201a6040830184866153b7565b634e487b7160e01b600052601160045260246000fd5b81810381811115610c1757610c176153fe565b80820180821115610c1757610c176153fe565b60006001820161544c5761544c6153fe565b5060010190565b634e487b7160e01b600052602160045260246000fd5b6005811061548757634e487b7160e01b600052602160045260246000fd5b9052565b6154958184615469565b604060208201526154b26040820183516001600160a01b03169052565b6020820151606082015260408201516080820152606082015160a0820152608082015160c082015260a082015160e0820152600060c0830151610100818185015260e0850151915061012082818601528186015192506101409150828286015280860151925050610160828186015281860151925080610180860152505061553e6101a0840182614d85565b95945050505050565b8284823760609190911b6001600160601b0319169101908152601401919050565b601f821115610de557600081815260208120601f850160051c8101602086101561558f5750805b601f850160051c820191505b81811015610bde5782815560010161559b565b600019600383901b1c191660019190911b1790565b81516001600160401b038111156155dc576155dc614f01565b6155f0816155ea845461536d565b84615568565b602080601f83116001811461561f576000841561560d5750858301515b61561785826155ae565b865550610bde565b600085815260208120601f198616915b8281101561564e5788860151825594840194600190910190840161562f565b508582101561566c5787850151600019600388901b60f8161c191681555b5050505050600190811b01905550565b6000825161568e818460208701614d61565b9190910192915050565b805160208201516001600160601b031980821692919060148310156156c75780818460140360031b1b83161693505b505050919050565b600061ffff8088168352808716602084015250846040830152608060608301526142df6080830184866153b7565b61ffff8616815260806020820152600061571b6080830186886153b7565b6001600160401b0394909416604083015250606001529392505050565b6001600160401b0383111561574f5761574f614f01565b6157638361575d835461536d565b83615568565b6000601f841160018114615791576000851561577f5750838201355b61578986826155ae565b845550610c83565b600083815260209020601f19861690835b828110156157c257868501358255602094850194600190920191016157a2565b50868210156157df5760001960f88860031b161c19848701351681555b505060018560011b0183555050505050565b60006020828403121561580357600080fd5b81516001600160401b0381111561581957600080fd5b8201601f8101841361582a57600080fd5b8051615838614fb582614f6f565b81815285602083850101111561584d57600080fd5b61553e826020830160208601614d61565b61ffff8516815260806020820152600061587b6080830186614d85565b6001600160401b038516604084015282810360608401526142df8185614d85565b6001600160a01b03929092168252602082015260400190565b634e487b7160e01b600052603260045260246000fd5b600081518084526020808501945080840160005b838110156158fb578151875295820195908201906001016158df565b509495945050505050565b6001600160a01b038416815260606020820181905260009061592a908301856158cb565b90508215156040830152949350505050565b8082028115828204841417610c1757610c176153fe565b634e487b7160e01b600052601260045260246000fd5b60008261597857615978615953565b500490565b60608152600061599060608301866158cb565b60208301949094525060400152919050565b93845260ff9290921660208401526040830152606082015260800190565b61ffff841681526001600160a01b038316602082015260606040820181905260009061201a90830184614d85565b6001600160a01b0386811682526020820186905261ffff851660408301528316606082015260a0608082018190526000906142df90830184614d85565b61ffff861681526001600160a01b038516602082015260a060408201819052600090615a5990830186614d85565b84151560608401528281036080840152615a738185614d85565b98975050505050505050565b60008060408385031215615a9257600080fd5b505080516020909101519092909150565b61ffff8716815260c060208201526000615ac060c0830188614d85565b8281036040840152615ad28188614d85565b6001600160a01b0387811660608601528616608085015283810360a08501529050615afd8185614d85565b9998505050505050505050565b6020808252602b908201527f496e697469616c697a61626c653a20636f6e7472616374206973206e6f74206960408201526a6e697469616c697a696e6760a81b606082015260800190565b600060208284031215615b6757600080fd5b815160ff81168114610f6457600080fd5b600060208284031215615b8a57600080fd5b8151610f6481614ed6565b61ffff8616815260a060208201526000615bb260a0830187614d85565b6001600160401b03861660408401528281036060840152615bd38186614d85565b90508281036080840152615a738185614d85565b76020b1b1b2b9b9a1b7b73a3937b61d1030b1b1b7bab73a1604d1b815260008351615c19816017850160208801614d61565b7001034b99036b4b9b9b4b733903937b6329607d1b6017918401918201528351615c4a816028840160208801614d61565b01602801949350505050565b600060208284031215615c6857600080fd5b815160058110610f6457600080fd5b6000808284036040811215615c8b57600080fd5b835192506020601f1982011215615ca157600080fd5b50615caa614f17565b6020939093015183525092909150565b6000808284036060811215615cce57600080fd5b835192506040601f1982011215615ce457600080fd5b50604080519081016001600160401b0381118282101715615d0757615d07614f01565b60409081526020858101518352940151938101939093525092909150565b6000808284036040811215615d3957600080fd5b835192506020601f1982011215615d4f57600080fd5b50615d58614f17565b6020840151615d6681614e09565b8152919491935090915050565b600081615d8257615d826153fe565b506000190190565b60a08101615d988285615469565b60018060a01b0383511660208301526020830151604083015260408301516060830152606083015160808301529392505050565b6020808252825182820181905260009190848201906040850190845b81811015615e0a57835163ffffffff1683529284019291840191600101615de8565b50909695505050505050565b60006001600160401b03821115615e2f57615e2f614f01565b5060051b60200190565b600082601f830112615e4a57600080fd5b81516020615e5a614fb583615e16565b82815260059290921b84018101918181019086841115615e7957600080fd5b8286015b84811015615e9d578051615e9081614e09565b8352918301918301615e7d565b509695505050505050565b60008060408385031215615ebb57600080fd5b82516001600160401b0380821115615ed257600080fd5b818501915085601f830112615ee657600080fd5b81516020615ef6614fb583615e16565b82815260059290921b84018101918181019089841115615f1557600080fd5b948201945b83861015615f435785518060060b8114615f345760008081fd5b82529482019490820190615f1a565b91880151919650909350505080821115615f5c57600080fd5b50615f6985828601615e39565b9150509250929050565b600682810b9082900b03667fffffffffffff198112667fffffffffffff82131715610c1757610c176153fe565b6001600160a01b03828116828216039080821115615fc057615fc06153fe565b5092915050565b60008160060b8360060b80615fde57615fde615953565b667fffffffffffff19821460001982141615615ffc57615ffc6153fe565b90059392505050565b60008260060b8061601857616018615953565b808360060b0791505092915050565b60008160020b627fffff198103616040576160406153fe565b6000190192915050565b6001600160c01b03828116828216818102831692918115828504821417616073576160736153fe565b50505092915050565b60006001600160c01b038381168061609657616096615953565b92169190910492915050565b602081526000825160a060208401526160be60c0840182614d85565b905060018060a01b0360208501511660408401526040840151606084015260608401516080840152608084015160a0840152809150509291505056fe000000000000000000000000b0cabfe930642ad3e7decdc741884d8c3f7ebc7000000000000000000000000010541b07d8ad2647dc6cd67abd4c03575dade2616d1efadb607420c71e8f966ae6611a2b817ec83a98f82ae24284fd004cf9d40cb0c58532a125fc3c0adccaef396bf65344a4d5781cec2e4c593e6b611d75f150a2646970667358221220b972818722250dcd8362f974e8c7e82c852a641195d4e676d9cb47f331179a0264736f6c63430008130033",
  "linkReferences": {},
  "deployedLinkReferences": {}
}