{
  "_format": "hh-sol-artifact-1",
  "contractName": "HopStrategy",
  "sourceName": "contracts/strategies/HopStrategy.sol",
  "abi": [
    {
      "inputs": [
        {
          "internalType": "uint256",
          "name": "messageType",
          "type": "uint256"
        }
      ],
      "name": "IncorrectMessageType",
      "type": "error"
    },
    {
      "inputs": [],
      "name": "InitializeQuoteBufferWithHopToWantValue",
      "type": "error"
    },
    {
      "inputs": [
        {
          "internalType": "uint256",
          "name": "amount",
          "type": "uint256"
        },
        {
          "internalType": "uint256",
          "name": "balance",
          "type": "uint256"
        }
      ],
      "name": "InsufficientFunds",
      "type": "error"
    },
    {
      "inputs": [],
      "name": "T",
      "type": "error"
    },
    {
      "anonymous": false,
      "inputs": [
        {
          "indexed": false,
          "internalType": "uint256",
          "name": "debtOutstanding",
          "type": "uint256"
        }
      ],
      "name": "AdjustedPosition",
      "type": "event"
    },
    {
      "anonymous": false,
      "inputs": [
        {
          "indexed": true,
          "internalType": "address",
          "name": "src",
          "type": "address"
        },
        {
          "indexed": true,
          "internalType": "address",
          "name": "dst",
          "type": "address"
        },
        {
          "indexed": true,
          "internalType": "uint256",
          "name": "amount",
          "type": "uint256"
        },
        {
          "indexed": false,
          "internalType": "bytes",
          "name": "lowLevelErrorData",
          "type": "bytes"
        }
      ],
      "name": "EmergencyQuoteOnAlternativeDEX",
      "type": "event"
    },
    {
      "anonymous": false,
      "inputs": [
        {
          "indexed": true,
          "internalType": "address",
          "name": "src",
          "type": "address"
        },
        {
          "indexed": true,
          "internalType": "address",
          "name": "dst",
          "type": "address"
        },
        {
          "indexed": true,
          "internalType": "uint256",
          "name": "amount",
          "type": "uint256"
        },
        {
          "indexed": false,
          "internalType": "bytes",
          "name": "lowLevelErrorData",
          "type": "bytes"
        }
      ],
      "name": "EmergencySwapOnAlternativeDEX",
      "type": "event"
    },
    {
      "anonymous": false,
      "inputs": [
        {
          "indexed": false,
          "internalType": "uint8",
          "name": "version",
          "type": "uint8"
        }
      ],
      "name": "Initialized",
      "type": "event"
    },
    {
      "anonymous": false,
      "inputs": [
        {
          "indexed": false,
          "internalType": "uint16",
          "name": "_srcChainId",
          "type": "uint16"
        },
        {
          "indexed": false,
          "internalType": "bytes",
          "name": "_srcAddress",
          "type": "bytes"
        },
        {
          "indexed": false,
          "internalType": "uint64",
          "name": "_nonce",
          "type": "uint64"
        },
        {
          "indexed": false,
          "internalType": "bytes",
          "name": "_payload",
          "type": "bytes"
        },
        {
          "indexed": false,
          "internalType": "bytes",
          "name": "_reason",
          "type": "bytes"
        }
      ],
      "name": "MessageFailed",
      "type": "event"
    },
    {
      "anonymous": false,
      "inputs": [
        {
          "indexed": true,
          "internalType": "address",
          "name": "src",
          "type": "address"
        },
        {
          "indexed": true,
          "internalType": "address",
          "name": "dst",
          "type": "address"
        },
        {
          "indexed": true,
          "internalType": "uint256",
          "name": "amountOut",
          "type": "uint256"
        },
        {
          "indexed": false,
          "internalType": "uint256",
          "name": "amountIn",
          "type": "uint256"
        }
      ],
      "name": "Notified",
      "type": "event"
    },
    {
      "anonymous": false,
      "inputs": [
        {
          "indexed": true,
          "internalType": "address",
          "name": "previousOwner",
          "type": "address"
        },
        {
          "indexed": true,
          "internalType": "address",
          "name": "newOwner",
          "type": "address"
        }
      ],
      "name": "OwnershipTransferred",
      "type": "event"
    },
    {
      "anonymous": false,
      "inputs": [
        {
          "indexed": true,
          "internalType": "address",
          "name": "src",
          "type": "address"
        },
        {
          "indexed": true,
          "internalType": "address",
          "name": "dst",
          "type": "address"
        },
        {
          "indexed": true,
          "internalType": "uint256",
          "name": "amount",
          "type": "uint256"
        }
      ],
      "name": "Quote",
      "type": "event"
    },
    {
      "anonymous": false,
      "inputs": [
        {
          "indexed": false,
          "internalType": "uint16",
          "name": "_srcChainId",
          "type": "uint16"
        },
        {
          "indexed": false,
          "internalType": "bytes",
          "name": "_srcAddress",
          "type": "bytes"
        },
        {
          "indexed": false,
          "internalType": "uint64",
          "name": "_nonce",
          "type": "uint64"
        },
        {
          "indexed": false,
          "internalType": "bytes32",
          "name": "_payloadHash",
          "type": "bytes32"
        }
      ],
      "name": "RetryMessageSuccess",
      "type": "event"
    },
    {
      "anonymous": false,
      "inputs": [
        {
          "indexed": true,
          "internalType": "bytes32",
          "name": "role",
          "type": "bytes32"
        },
        {
          "indexed": true,
          "internalType": "bytes32",
          "name": "previousAdminRole",
          "type": "bytes32"
        },
        {
          "indexed": true,
          "internalType": "bytes32",
          "name": "newAdminRole",
          "type": "bytes32"
        }
      ],
      "name": "RoleAdminChanged",
      "type": "event"
    },
    {
      "anonymous": false,
      "inputs": [
        {
          "indexed": true,
          "internalType": "bytes32",
          "name": "role",
          "type": "bytes32"
        },
        {
          "indexed": true,
          "internalType": "address",
          "name": "account",
          "type": "address"
        },
        {
          "indexed": true,
          "internalType": "address",
          "name": "sender",
          "type": "address"
        }
      ],
      "name": "RoleGranted",
      "type": "event"
    },
    {
      "anonymous": false,
      "inputs": [
        {
          "indexed": true,
          "internalType": "bytes32",
          "name": "role",
          "type": "bytes32"
        },
        {
          "indexed": true,
          "internalType": "address",
          "name": "account",
          "type": "address"
        },
        {
          "indexed": true,
          "internalType": "address",
          "name": "sender",
          "type": "address"
        }
      ],
      "name": "RoleRevoked",
      "type": "event"
    },
    {
      "anonymous": false,
      "inputs": [
        {
          "indexed": false,
          "internalType": "uint16",
          "name": "_dstChainId",
          "type": "uint16"
        },
        {
          "indexed": false,
          "internalType": "uint16",
          "name": "_type",
          "type": "uint16"
        },
        {
          "indexed": false,
          "internalType": "uint256",
          "name": "_minDstGas",
          "type": "uint256"
        }
      ],
      "name": "SetMinDstGas",
      "type": "event"
    },
    {
      "anonymous": false,
      "inputs": [
        {
          "indexed": false,
          "internalType": "address",
          "name": "precrime",
          "type": "address"
        }
      ],
      "name": "SetPrecrime",
      "type": "event"
    },
    {
      "anonymous": false,
      "inputs": [
        {
          "indexed": false,
          "internalType": "uint16",
          "name": "_remoteChainId",
          "type": "uint16"
        },
        {
          "indexed": false,
          "internalType": "bytes",
          "name": "_path",
          "type": "bytes"
        }
      ],
      "name": "SetTrustedRemote",
      "type": "event"
    },
    {
      "anonymous": false,
      "inputs": [
        {
          "indexed": false,
          "internalType": "uint16",
          "name": "_remoteChainId",
          "type": "uint16"
        },
        {
          "indexed": false,
          "internalType": "bytes",
          "name": "_remoteAddress",
          "type": "bytes"
        }
      ],
      "name": "SetTrustedRemoteAddress",
      "type": "event"
    },
    {
      "anonymous": false,
      "inputs": [
        {
          "indexed": true,
          "internalType": "address",
          "name": "token",
          "type": "address"
        },
        {
          "indexed": false,
          "internalType": "uint256",
          "name": "amount",
          "type": "uint256"
        },
        {
          "indexed": false,
          "internalType": "address",
          "name": "sender",
          "type": "address"
        }
      ],
      "name": "SgReceived",
      "type": "event"
    },
    {
      "anonymous": false,
      "inputs": [
        {
          "indexed": false,
          "internalType": "address",
          "name": "newStrategy",
          "type": "address"
        }
      ],
      "name": "StrategyMigrated",
      "type": "event"
    },
    {
      "anonymous": false,
      "inputs": [
        {
          "indexed": false,
          "internalType": "uint256",
          "name": "profit",
          "type": "uint256"
        },
        {
          "indexed": false,
          "internalType": "uint256",
          "name": "loss",
          "type": "uint256"
        },
        {
          "indexed": false,
          "internalType": "uint256",
          "name": "debtPayment",
          "type": "uint256"
        },
        {
          "indexed": false,
          "internalType": "uint256",
          "name": "giveToStrategy",
          "type": "uint256"
        },
        {
          "indexed": false,
          "internalType": "uint256",
          "name": "requestFromStrategy",
          "type": "uint256"
        },
        {
          "indexed": false,
          "internalType": "uint256",
          "name": "creditAvailable",
          "type": "uint256"
        },
        {
          "indexed": false,
          "internalType": "uint256",
          "name": "totalAssets",
          "type": "uint256"
        }
      ],
      "name": "StrategyReported",
      "type": "event"
    },
    {
      "anonymous": false,
      "inputs": [
        {
          "indexed": true,
          "internalType": "address",
          "name": "src",
          "type": "address"
        },
        {
          "indexed": true,
          "internalType": "address",
          "name": "dst",
          "type": "address"
        },
        {
          "indexed": true,
          "internalType": "uint256",
          "name": "amount",
          "type": "uint256"
        }
      ],
      "name": "Swap",
      "type": "event"
    },
    {
      "inputs": [],
      "name": "DEFAULT_ADMIN_ROLE",
      "outputs": [
        {
          "internalType": "bytes32",
          "name": "",
          "type": "bytes32"
        }
      ],
      "stateMutability": "view",
      "type": "function"
    },
    {
      "inputs": [],
      "name": "DEFAULT_PAYLOAD_SIZE_LIMIT",
      "outputs": [
        {
          "internalType": "uint256",
          "name": "",
          "type": "uint256"
        }
      ],
      "stateMutability": "view",
      "type": "function"
    },
    {
      "inputs": [],
      "name": "QUOTE_OPERATION_PROVIDER",
      "outputs": [
        {
          "internalType": "bytes32",
          "name": "",
          "type": "bytes32"
        }
      ],
      "stateMutability": "view",
      "type": "function"
    },
    {
      "inputs": [
        {
          "internalType": "uint256",
          "name": "_debtOutstanding",
          "type": "uint256"
        }
      ],
      "name": "adjustPosition",
      "outputs": [],
      "stateMutability": "nonpayable",
      "type": "function"
    },
    {
      "inputs": [],
      "name": "balanceOfWant",
      "outputs": [
        {
          "internalType": "uint256",
          "name": "",
          "type": "uint256"
        }
      ],
      "stateMutability": "view",
      "type": "function"
    },
    {
      "inputs": [
        {
          "internalType": "uint256",
          "name": "epoch",
          "type": "uint256"
        }
      ],
      "name": "callMe",
      "outputs": [],
      "stateMutability": "nonpayable",
      "type": "function"
    },
    {
      "inputs": [],
      "name": "clearWant",
      "outputs": [],
      "stateMutability": "nonpayable",
      "type": "function"
    },
    {
      "inputs": [],
      "name": "currentChainId",
      "outputs": [
        {
          "internalType": "uint16",
          "name": "",
          "type": "uint16"
        }
      ],
      "stateMutability": "view",
      "type": "function"
    },
    {
      "inputs": [],
      "name": "emergencyExit",
      "outputs": [
        {
          "internalType": "bool",
          "name": "",
          "type": "bool"
        }
      ],
      "stateMutability": "view",
      "type": "function"
    },
    {
      "inputs": [],
      "name": "estimatedTotalAssets",
      "outputs": [
        {
          "internalType": "uint256",
          "name": "",
          "type": "uint256"
        }
      ],
      "stateMutability": "view",
      "type": "function"
    },
    {
      "inputs": [
        {
          "internalType": "uint16",
          "name": "",
          "type": "uint16"
        },
        {
          "internalType": "bytes",
          "name": "",
          "type": "bytes"
        },
        {
          "internalType": "uint64",
          "name": "",
          "type": "uint64"
        }
      ],
      "name": "failedMessages",
      "outputs": [
        {
          "internalType": "bytes32",
          "name": "",
          "type": "bytes32"
        }
      ],
      "stateMutability": "view",
      "type": "function"
    },
    {
      "inputs": [
        {
          "internalType": "uint16",
          "name": "_srcChainId",
          "type": "uint16"
        },
        {
          "internalType": "bytes",
          "name": "_srcAddress",
          "type": "bytes"
        }
      ],
      "name": "forceResumeReceive",
      "outputs": [],
      "stateMutability": "nonpayable",
      "type": "function"
    },
    {
      "inputs": [
        {
          "internalType": "uint16",
          "name": "_version",
          "type": "uint16"
        },
        {
          "internalType": "uint16",
          "name": "_chainId",
          "type": "uint16"
        },
        {
          "internalType": "address",
          "name": "",
          "type": "address"
        },
        {
          "internalType": "uint256",
          "name": "_configType",
          "type": "uint256"
        }
      ],
      "name": "getConfig",
      "outputs": [
        {
          "internalType": "bytes",
          "name": "",
          "type": "bytes"
        }
      ],
      "stateMutability": "view",
      "type": "function"
    },
    {
      "inputs": [
        {
          "internalType": "bytes32",
          "name": "_messageHash",
          "type": "bytes32"
        }
      ],
      "name": "getEthSignedMessageHash",
      "outputs": [
        {
          "internalType": "bytes32",
          "name": "",
          "type": "bytes32"
        }
      ],
      "stateMutability": "pure",
      "type": "function"
    },
    {
      "inputs": [
        {
          "internalType": "bytes32",
          "name": "role",
          "type": "bytes32"
        }
      ],
      "name": "getRoleAdmin",
      "outputs": [
        {
          "internalType": "bytes32",
          "name": "",
          "type": "bytes32"
        }
      ],
      "stateMutability": "view",
      "type": "function"
    },
    {
      "inputs": [
        {
          "internalType": "uint16",
          "name": "_remoteChainId",
          "type": "uint16"
        }
      ],
      "name": "getTrustedRemoteAddress",
      "outputs": [
        {
          "internalType": "bytes",
          "name": "",
          "type": "bytes"
        }
      ],
      "stateMutability": "view",
      "type": "function"
    },
    {
      "inputs": [
        {
          "internalType": "bytes32",
          "name": "role",
          "type": "bytes32"
        },
        {
          "internalType": "address",
          "name": "account",
          "type": "address"
        }
      ],
      "name": "grantRole",
      "outputs": [],
      "stateMutability": "nonpayable",
      "type": "function"
    },
    {
      "inputs": [
        {
          "internalType": "uint256",
          "name": "_totalDebt",
          "type": "uint256"
        },
        {
          "internalType": "uint256",
          "name": "_debtOutstanding",
          "type": "uint256"
        },
        {
          "internalType": "uint256",
          "name": "_creditAvailable",
          "type": "uint256"
        },
        {
          "internalType": "uint256",
          "name": "_debtRatio",
          "type": "uint256"
        },
        {
          "internalType": "bytes",
          "name": "_signature",
          "type": "bytes"
        }
      ],
      "name": "harvest",
      "outputs": [],
      "stateMutability": "nonpayable",
      "type": "function"
    },
    {
      "inputs": [
        {
          "internalType": "bytes32",
          "name": "role",
          "type": "bytes32"
        },
        {
          "internalType": "address",
          "name": "account",
          "type": "address"
        }
      ],
      "name": "hasRole",
      "outputs": [
        {
          "internalType": "bool",
          "name": "",
          "type": "bool"
        }
      ],
      "stateMutability": "view",
      "type": "function"
    },
    {
      "inputs": [
        {
          "internalType": "address",
          "name": "_lzEndpoint",
          "type": "address"
        },
        {
          "internalType": "address",
          "name": "_strategist",
          "type": "address"
        },
        {
          "internalType": "contract IERC20",
          "name": "_want",
          "type": "address"
        },
        {
          "internalType": "address",
          "name": "_vault",
          "type": "address"
        },
        {
          "internalType": "uint16",
          "name": "_vaultChainId",
          "type": "uint16"
        },
        {
          "internalType": "address",
          "name": "_sgBridge",
          "type": "address"
        },
        {
          "internalType": "address",
          "name": "_sgRouter",
          "type": "address"
        },
        {
          "internalType": "uint256",
          "name": "_slippage",
          "type": "uint256"
        }
      ],
      "name": "initialize",
      "outputs": [],
      "stateMutability": "nonpayable",
      "type": "function"
    },
    {
      "inputs": [],
      "name": "initializeQuoteBufferWithHopToWantValue",
      "outputs": [],
      "stateMutability": "nonpayable",
      "type": "function"
    },
    {
      "inputs": [
        {
          "internalType": "uint16",
          "name": "_srcChainId",
          "type": "uint16"
        },
        {
          "internalType": "bytes",
          "name": "_srcAddress",
          "type": "bytes"
        }
      ],
      "name": "isTrustedRemote",
      "outputs": [
        {
          "internalType": "bool",
          "name": "",
          "type": "bool"
        }
      ],
      "stateMutability": "view",
      "type": "function"
    },
    {
      "inputs": [],
      "name": "lzEndpoint",
      "outputs": [
        {
          "internalType": "contract ILayerZeroEndpointUpgradeable",
          "name": "",
          "type": "address"
        }
      ],
      "stateMutability": "view",
      "type": "function"
    },
    {
      "inputs": [
        {
          "internalType": "uint16",
          "name": "_srcChainId",
          "type": "uint16"
        },
        {
          "internalType": "bytes",
          "name": "_srcAddress",
          "type": "bytes"
        },
        {
          "internalType": "uint64",
          "name": "_nonce",
          "type": "uint64"
        },
        {
          "internalType": "bytes",
          "name": "_payload",
          "type": "bytes"
        }
      ],
      "name": "lzReceive",
      "outputs": [],
      "stateMutability": "nonpayable",
      "type": "function"
    },
    {
      "inputs": [
        {
          "internalType": "uint16",
          "name": "",
          "type": "uint16"
        },
        {
          "internalType": "uint16",
          "name": "",
          "type": "uint16"
        }
      ],
      "name": "minDstGasLookup",
      "outputs": [
        {
          "internalType": "uint256",
          "name": "",
          "type": "uint256"
        }
      ],
      "stateMutability": "view",
      "type": "function"
    },
    {
      "inputs": [],
      "name": "name",
      "outputs": [
        {
          "internalType": "string",
          "name": "",
          "type": "string"
        }
      ],
      "stateMutability": "pure",
      "type": "function"
    },
    {
      "inputs": [
        {
          "internalType": "uint16",
          "name": "_srcChainId",
          "type": "uint16"
        },
        {
          "internalType": "bytes",
          "name": "_srcAddress",
          "type": "bytes"
        },
        {
          "internalType": "uint64",
          "name": "_nonce",
          "type": "uint64"
        },
        {
          "internalType": "bytes",
          "name": "_payload",
          "type": "bytes"
        }
      ],
      "name": "nonblockingLzReceive",
      "outputs": [],
      "stateMutability": "nonpayable",
      "type": "function"
    },
    {
      "inputs": [
        {
          "internalType": "address",
          "name": "",
          "type": "address"
        },
        {
          "internalType": "address",
          "name": "",
          "type": "address"
        },
        {
          "internalType": "uint256",
          "name": "amountOut",
          "type": "uint256"
        },
        {
          "internalType": "uint256",
          "name": "",
          "type": "uint256"
        }
      ],
      "name": "notifyCallback",
      "outputs": [],
      "stateMutability": "nonpayable",
      "type": "function"
    },
    {
      "inputs": [],
      "name": "owner",
      "outputs": [
        {
          "internalType": "address",
          "name": "",
          "type": "address"
        }
      ],
      "stateMutability": "view",
      "type": "function"
    },
    {
      "inputs": [
        {
          "internalType": "uint16",
          "name": "",
          "type": "uint16"
        }
      ],
      "name": "payloadSizeLimitLookup",
      "outputs": [
        {
          "internalType": "uint256",
          "name": "",
          "type": "uint256"
        }
      ],
      "stateMutability": "view",
      "type": "function"
    },
    {
      "inputs": [],
      "name": "precrime",
      "outputs": [
        {
          "internalType": "address",
          "name": "",
          "type": "address"
        }
      ],
      "stateMutability": "view",
      "type": "function"
    },
    {
      "inputs": [],
      "name": "renounceOwnership",
      "outputs": [],
      "stateMutability": "nonpayable",
      "type": "function"
    },
    {
      "inputs": [
        {
          "internalType": "bytes32",
          "name": "role",
          "type": "bytes32"
        },
        {
          "internalType": "address",
          "name": "account",
          "type": "address"
        }
      ],
      "name": "renounceRole",
      "outputs": [],
      "stateMutability": "nonpayable",
      "type": "function"
    },
    {
      "inputs": [
        {
          "internalType": "uint16",
          "name": "_srcChainId",
          "type": "uint16"
        },
        {
          "internalType": "bytes",
          "name": "_srcAddress",
          "type": "bytes"
        },
        {
          "internalType": "uint64",
          "name": "_nonce",
          "type": "uint64"
        },
        {
          "internalType": "bytes",
          "name": "_payload",
          "type": "bytes"
        }
      ],
      "name": "retryMessage",
      "outputs": [],
      "stateMutability": "payable",
      "type": "function"
    },
    {
      "inputs": [],
      "name": "revokeFunds",
      "outputs": [],
      "stateMutability": "nonpayable",
      "type": "function"
    },
    {
      "inputs": [
        {
          "internalType": "bytes32",
          "name": "role",
          "type": "bytes32"
        },
        {
          "internalType": "address",
          "name": "account",
          "type": "address"
        }
      ],
      "name": "revokeRole",
      "outputs": [],
      "stateMutability": "nonpayable",
      "type": "function"
    },
    {
      "inputs": [
        {
          "internalType": "uint16",
          "name": "_version",
          "type": "uint16"
        },
        {
          "internalType": "uint16",
          "name": "_chainId",
          "type": "uint16"
        },
        {
          "internalType": "uint256",
          "name": "_configType",
          "type": "uint256"
        },
        {
          "internalType": "bytes",
          "name": "_config",
          "type": "bytes"
        }
      ],
      "name": "setConfig",
      "outputs": [],
      "stateMutability": "nonpayable",
      "type": "function"
    },
    {
      "inputs": [
        {
          "internalType": "bool",
          "name": "_emergencyExit",
          "type": "bool"
        }
      ],
      "name": "setEmergencyExit",
      "outputs": [],
      "stateMutability": "nonpayable",
      "type": "function"
    },
    {
      "inputs": [
        {
          "internalType": "uint16",
          "name": "_dstChainId",
          "type": "uint16"
        },
        {
          "internalType": "uint16",
          "name": "_packetType",
          "type": "uint16"
        },
        {
          "internalType": "uint256",
          "name": "_minGas",
          "type": "uint256"
        }
      ],
      "name": "setMinDstGas",
      "outputs": [],
      "stateMutability": "nonpayable",
      "type": "function"
    },
    {
      "inputs": [
        {
          "internalType": "uint16",
          "name": "_dstChainId",
          "type": "uint16"
        },
        {
          "internalType": "uint256",
          "name": "_size",
          "type": "uint256"
        }
      ],
      "name": "setPayloadSizeLimit",
      "outputs": [],
      "stateMutability": "nonpayable",
      "type": "function"
    },
    {
      "inputs": [
        {
          "internalType": "address",
          "name": "_precrime",
          "type": "address"
        }
      ],
      "name": "setPrecrime",
      "outputs": [],
      "stateMutability": "nonpayable",
      "type": "function"
    },
    {
      "inputs": [
        {
          "internalType": "uint16",
          "name": "_version",
          "type": "uint16"
        }
      ],
      "name": "setReceiveVersion",
      "outputs": [],
      "stateMutability": "nonpayable",
      "type": "function"
    },
    {
      "inputs": [
        {
          "internalType": "uint16",
          "name": "_version",
          "type": "uint16"
        }
      ],
      "name": "setSendVersion",
      "outputs": [],
      "stateMutability": "nonpayable",
      "type": "function"
    },
    {
      "inputs": [
        {
          "internalType": "uint256",
          "name": "_slippage",
          "type": "uint256"
        }
      ],
      "name": "setSlippage",
      "outputs": [],
      "stateMutability": "nonpayable",
      "type": "function"
    },
    {
      "inputs": [
        {
          "internalType": "address",
          "name": "_strategist",
          "type": "address"
        }
      ],
      "name": "setStrategist",
      "outputs": [],
      "stateMutability": "nonpayable",
      "type": "function"
    },
    {
      "inputs": [
        {
          "components": [
            {
              "internalType": "contract ISwapHelper",
              "name": "swapHelper",
              "type": "address"
            },
            {
              "internalType": "uint256",
              "name": "quoteBuffer",
              "type": "uint256"
            },
            {
              "internalType": "bool",
              "name": "isQuoteBufferContainsHopToWantValue",
              "type": "bool"
            }
          ],
          "internalType": "struct SwapHelperDTO",
          "name": "__swapHelperDTO",
          "type": "tuple"
        }
      ],
      "name": "setSwapHelperDTO",
      "outputs": [],
      "stateMutability": "nonpayable",
      "type": "function"
    },
    {
      "inputs": [
        {
          "internalType": "uint16",
          "name": "_srcChainId",
          "type": "uint16"
        },
        {
          "internalType": "bytes",
          "name": "_path",
          "type": "bytes"
        }
      ],
      "name": "setTrustedRemote",
      "outputs": [],
      "stateMutability": "nonpayable",
      "type": "function"
    },
    {
      "inputs": [
        {
          "internalType": "uint16",
          "name": "_remoteChainId",
          "type": "uint16"
        },
        {
          "internalType": "bytes",
          "name": "_remoteAddress",
          "type": "bytes"
        }
      ],
      "name": "setTrustedRemoteAddress",
      "outputs": [],
      "stateMutability": "nonpayable",
      "type": "function"
    },
    {
      "inputs": [],
      "name": "sgBridge",
      "outputs": [
        {
          "internalType": "contract ISgBridge",
          "name": "",
          "type": "address"
        }
      ],
      "stateMutability": "view",
      "type": "function"
    },
    {
      "inputs": [
        {
          "internalType": "uint16",
          "name": "",
          "type": "uint16"
        },
        {
          "internalType": "bytes",
          "name": "_srcAddress",
          "type": "bytes"
        },
        {
          "internalType": "uint256",
          "name": "",
          "type": "uint256"
        },
        {
          "internalType": "address",
          "name": "_token",
          "type": "address"
        },
        {
          "internalType": "uint256",
          "name": "_amountLD",
          "type": "uint256"
        },
        {
          "internalType": "bytes",
          "name": "",
          "type": "bytes"
        }
      ],
      "name": "sgReceive",
      "outputs": [],
      "stateMutability": "nonpayable",
      "type": "function"
    },
    {
      "inputs": [],
      "name": "sgRouter",
      "outputs": [
        {
          "internalType": "contract IStargateRouter",
          "name": "",
          "type": "address"
        }
      ],
      "stateMutability": "view",
      "type": "function"
    },
    {
      "inputs": [],
      "name": "slippage",
      "outputs": [
        {
          "internalType": "uint256",
          "name": "",
          "type": "uint256"
        }
      ],
      "stateMutability": "view",
      "type": "function"
    },
    {
      "inputs": [],
      "name": "strategist",
      "outputs": [
        {
          "internalType": "address",
          "name": "",
          "type": "address"
        }
      ],
      "stateMutability": "view",
      "type": "function"
    },
    {
      "inputs": [],
      "name": "strategistSignMessageHash",
      "outputs": [
        {
          "internalType": "bytes32",
          "name": "",
          "type": "bytes32"
        }
      ],
      "stateMutability": "view",
      "type": "function"
    },
    {
      "inputs": [
        {
          "internalType": "bytes4",
          "name": "interfaceId",
          "type": "bytes4"
        }
      ],
      "name": "supportsInterface",
      "outputs": [
        {
          "internalType": "bool",
          "name": "",
          "type": "bool"
        }
      ],
      "stateMutability": "view",
      "type": "function"
    },
    {
      "inputs": [
        {
          "internalType": "contract IERC20",
          "name": "_token",
          "type": "address"
        }
      ],
      "name": "sweepToken",
      "outputs": [],
      "stateMutability": "nonpayable",
      "type": "function"
    },
    {
      "inputs": [
        {
          "internalType": "address",
          "name": "newOwner",
          "type": "address"
        }
      ],
      "name": "transferOwnership",
      "outputs": [],
      "stateMutability": "nonpayable",
      "type": "function"
    },
    {
      "inputs": [
        {
          "internalType": "uint16",
          "name": "",
          "type": "uint16"
        }
      ],
      "name": "trustedRemoteLookup",
      "outputs": [
        {
          "internalType": "bytes",
          "name": "",
          "type": "bytes"
        }
      ],
      "stateMutability": "view",
      "type": "function"
    },
    {
      "inputs": [],
      "name": "vault",
      "outputs": [
        {
          "internalType": "address",
          "name": "",
          "type": "address"
        }
      ],
      "stateMutability": "view",
      "type": "function"
    },
    {
      "inputs": [],
      "name": "vaultChainId",
      "outputs": [
        {
          "internalType": "uint16",
          "name": "",
          "type": "uint16"
        }
      ],
      "stateMutability": "view",
      "type": "function"
    },
    {
      "inputs": [],
      "name": "want",
      "outputs": [
        {
          "internalType": "contract IERC20",
          "name": "",
          "type": "address"
        }
      ],
      "stateMutability": "view",
      "type": "function"
    },
    {
      "inputs": [],
      "name": "wantDecimals",
      "outputs": [
        {
          "internalType": "uint8",
          "name": "",
          "type": "uint8"
        }
      ],
      "stateMutability": "view",
      "type": "function"
    },
    {
      "stateMutability": "payable",
      "type": "receive"
    }
  ],
  "bytecode": "0x608060405234801561001057600080fd5b506165aa80620000216000396000f3fe6080604052600436106102c05760003560e01c80621d3567146102cc57806301ffc9a7146102ee5780630517cb761461032357806306fdde031461035057806307e0db171461038d5780630df37483146103ad57806310ddb137146103cd5780631be19560146103ed5780631f1fcd511461040d5780631fe4a6861461042d578063237ea53f1461044d578063248a9ca31461047d5780632d6068431461049d5780632f2ff15d146104b257806336568abe146104d257806337fded91146104f25780633d3ccc2f146105175780633d8b38f6146105375780633e032a3b146105575780633f1f4fa41461056d57806342d65a8d1461059a57806345ee0755146105ba578063495f881e146105da5780635641ec03146105fa578063567ad85d14610614578063593178de146106495780635b8c41e61461065e57806366ad5c8a146106ad5780636cbadbfa146106cd578063715018a6146106ef5780637533d788146107045780637f555565146107245780638cfd8f5c146107445780638da5cb5b1461077c57806391d1485414610791578063950c8a74146107b15780639606647d146107d15780639f38369a146107e6578063a217fddf14610806578063a4ef57ab1461081b578063a6c3d1651461083b578063ab8236f31461085b578063abe06ef71461087b578063adf076e614610890578063b353aaa7146108c3578063baf3292d146108e3578063c1a3d44c14610903578063c446183414610918578063c7b9d5301461092e578063cbed8b9c1461094e578063d1deba1f1461096e578063d547741f14610981578063df2a5b3b146109a1578063e73620c3146109c1578063eb8d72b7146109e1578063efbb5cb014610a01578063f056dffe14610a16578063f0fa55a914610a36578063f2fde38b14610a56578063f5ecbdbc14610a76578063fa54080114610a96578063fbfa77cf14610ab657600080fd5b366102c757005b600080fd5b3480156102d857600080fd5b506102ec6102e7366004615002565b610ad6565b005b3480156102fa57600080fd5b5061030e610309366004615095565b610bbf565b60405190151581526020015b60405180910390f35b34801561032f57600080fd5b5060ce54610343906001600160a01b031681565b60405161031a91906150bf565b34801561035c57600080fd5b5060408051808201909152600b81526a486f70537472617465677960a81b60208201525b60405161031a9190615123565b34801561039957600080fd5b506102ec6103a8366004615136565b610bf6565b3480156103b957600080fd5b506102ec6103c8366004615151565b610c63565b3480156103d957600080fd5b506102ec6103e8366004615136565b610c82565b3480156103f957600080fd5b506102ec610408366004615190565b610cbe565b34801561041957600080fd5b5060ca54610343906001600160a01b031681565b34801561043957600080fd5b5060c954610343906001600160a01b031681565b34801561045957600080fd5b5061046f60008051602061651583398151915281565b60405190815260200161031a565b34801561048957600080fd5b5061046f6104983660046151ad565b610d4b565b3480156104a957600080fd5b506102ec610d61565b3480156104be57600080fd5b506102ec6104cd3660046151c6565b610da2565b3480156104de57600080fd5b506102ec6104ed3660046151c6565b610dc3565b3480156104fe57600080fd5b5060cd546103439061010090046001600160a01b031681565b34801561052357600080fd5b506102ec6105323660046151ad565b610e41565b34801561054357600080fd5b5061030e6105523660046151f6565b610e77565b34801561056357600080fd5b5061046f60cc5481565b34801561057957600080fd5b5061046f610588366004615136565b60686020526000908152604090205481565b3480156105a657600080fd5b506102ec6105b53660046151f6565b610f44565b3480156105c657600080fd5b506102ec6105d5366004615256565b610fb7565b3480156105e657600080fd5b506102ec6105f536600461535e565b610fd2565b34801561060657600080fd5b5060cd5461030e9060ff1681565b34801561062057600080fd5b5060cb5461063690600160a01b900461ffff1681565b60405161ffff909116815260200161031a565b34801561065557600080fd5b5061046f611276565b34801561066a57600080fd5b5061046f6106793660046153c1565b6097602090815260009384526040808520845180860184018051928152908401958401959095209452929052825290205481565b3480156106b957600080fd5b506102ec6106c8366004615002565b6112d4565b3480156106d957600080fd5b5060cb5461063690600160b01b900461ffff1681565b3480156106fb57600080fd5b506102ec6113a8565b34801561071057600080fd5b5061038061071f366004615136565b6113bc565b34801561073057600080fd5b506102ec61073f36600461541e565b611456565b34801561075057600080fd5b5061046f61075f3660046154bc565b606760209081526000928352604080842090915290825290205481565b34801561078857600080fd5b5061034361163b565b34801561079d57600080fd5b5061030e6107ac3660046151c6565b61164a565b3480156107bd57600080fd5b50606954610343906001600160a01b031681565b3480156107dd57600080fd5b506102ec611676565b3480156107f257600080fd5b50610380610801366004615136565b611709565b34801561081257600080fd5b5061046f600081565b34801561082757600080fd5b506102ec6108363660046154ef565b611818565b34801561084757600080fd5b506102ec6108563660046151f6565b611863565b34801561086757600080fd5b506102ec610876366004615557565b6118ec565b34801561088757600080fd5b506102ec6119ea565b34801561089c57600080fd5b5060cb546108b190600160c01b900460ff1681565b60405160ff909116815260200161031a565b3480156108cf57600080fd5b50606554610343906001600160a01b031681565b3480156108ef57600080fd5b506102ec6108fe366004615190565b611a14565b34801561090f57600080fd5b5061046f611a67565b34801561092457600080fd5b5061046f61271081565b34801561093a57600080fd5b506102ec610949366004615190565b611ade565b34801561095a57600080fd5b506102ec6109693660046155f1565b611b08565b6102ec61097c366004615002565b611b76565b34801561098d57600080fd5b506102ec61099c3660046151c6565b611d8c565b3480156109ad57600080fd5b506102ec6109bc36600461565f565b611da8565b3480156109cd57600080fd5b506102ec6109dc3660046151ad565b611e5a565b3480156109ed57600080fd5b506102ec6109fc3660046151f6565b611e7a565b348015610a0d57600080fd5b5061046f611ed4565b348015610a2257600080fd5b506102ec610a3136600461569b565b611f2c565b348015610a4257600080fd5b506102ec610a513660046151ad565b611f4e565b348015610a6257600080fd5b506102ec610a71366004615190565b611f5b565b348015610a8257600080fd5b50610380610a913660046156e1565b611fd1565b348015610aa257600080fd5b5061046f610ab13660046151ad565b612066565b348015610ac257600080fd5b5060cb54610343906001600160a01b031681565b6065546001600160a01b03163314610b415760405162461bcd60e51b815260206004820152602360248201527f4261736553747261746567793a3a496e76616c6964456e64706f696e7443616c6044820152623632b960e91b60648201526084015b60405180910390fd5b610bb78686868080601f01602080910402602001604051908101604052809392919081815260200183838082843760009201919091525050604080516020601f8901819004810282018101909252878152899350915087908790819084018382808284376000920191909152506120b892505050565b505050505050565b60006001600160e01b03198216637965db0b60e01b1480610bf057506301ffc9a760e01b6001600160e01b03198316145b92915050565b610bfe612131565b6065546040516307e0db1760e01b815261ffff831660048201526001600160a01b03909116906307e0db17906024015b600060405180830381600087803b158015610c4857600080fd5b505af1158015610c5c573d6000803e3d6000fd5b5050505050565b610c6b612131565b61ffff909116600090815260686020526040902055565b610c8a612131565b6065546040516310ddb13760e01b815261ffff831660048201526001600160a01b03909116906310ddb13790602401610c2e565b610cc6612190565b610d4833826001600160a01b03166370a08231306040518263ffffffff1660e01b8152600401610cf691906150bf565b602060405180830381865afa158015610d13573d6000803e3d6000fd5b505050506040513d601f19601f82011682018060405250810190610d37919061572e565b6001600160a01b03841691906121e9565b50565b6000908152610103602052604090206001015490565b610d69612190565b60c9546040516001600160a01b03909116904780156108fc02916000818181858888f19350505050158015610d48573d6000803e3d6000fd5b610dab82610d4b565b610db48161223f565b610dbe8383612249565b505050565b6001600160a01b0381163314610e335760405162461bcd60e51b815260206004820152602f60248201527f416363657373436f6e74726f6c3a2063616e206f6e6c792072656e6f756e636560448201526e103937b632b9903337b91039b2b63360891b6064820152608401610b38565b610e3d82826122d0565b5050565b610e49612190565b610e5281612338565b604051818152600080516020616535833981519152906020015b60405180910390a150565b61ffff831660009081526066602052604081208054829190610e9890615747565b80601f0160208091040260200160405190810160405280929190818152602001828054610ec490615747565b8015610f115780601f10610ee657610100808354040283529160200191610f11565b820191906000526020600020905b815481529060010190602001808311610ef457829003601f168201915b505050505090508383604051610f28929190615781565b60405180910390208180519060200120149150505b9392505050565b610f4c612131565b6065546040516342d65a8d60e01b81526001600160a01b03909116906342d65a8d90610f80908690869086906004016157ba565b600060405180830381600087803b158015610f9a57600080fd5b505af1158015610fae573d6000803e3d6000fd5b50505050505050565b610fbf612190565b60cd805460ff1916911515919091179055565b610fda612190565b610fe3816125ce565b60cd546000908190819060ff161561108f5784156110435760405162461bcd60e51b815260206004820152601e60248201527f4261736553747261746567793a3a44656274526174696f4e6f745a65726f00006044820152606401610b38565b600061104d612654565b9050878110156110685761106181896157ee565b925061107d565b8781111561107d5761107a88826157ee565b93505b61108783896157ee565b9150506110a1565b61109988886127bd565b919450925090505b60006110ad8285615801565b9050600080888310156110cf576110c4838a6157ee565b9150600090506110e0565b600091506110dd89846157ee565b90505b6000604051806101600160405280306001600160a01b031681526020014281526020018881526020018781526020018681526020018481526020018381526020018b815260200183611130611ed4565b61113a91906157ee565b815260200160d0600081548092919061115290615814565b909155508152602001899052905081156111b25760cb546040516111ad91849161ffff600160a01b830416916001600160a01b031690611199906002908790602001615865565b6040516020818303038152906040526128b4565b6111dd565b6111dd6002826040516020016111c9929190615865565b60405160208183030381529060405261298e565b7fb983e09c034e9c52b5e547cb0589967992b97717733f580cc5ad0afcdc4b522b8160400151826060015183608001518460a001518560c001518660e001518761010001516040516112609796959493929190968752602087019590955260408601939093526060850191909152608084015260a083015260c082015260e00190565b60405180910390a1505050505050505050505050565b60d05460cb546040513060601b6001600160601b03191660208201526034810192909252600160b01b900460f01b6001600160f01b031916605482015260009060560160405160208183030381529060405280519060200120905090565b3330146113325760405162461bcd60e51b815260206004820152602660248201527f4e6f6e626c6f636b696e674c7a4170703a2063616c6c6572206d7573742062656044820152650204c7a4170760d41b6064820152608401610b38565b610bb78686868080601f01602080910402602001604051908101604052809392919081815260200183838082843760009201919091525050604080516020601f890181900481028201810190925287815289935091508790879081908401838280828437600092019190915250612b0e92505050565b6113b0612131565b6113ba6000612c24565b565b606660205260009081526040902080546113d590615747565b80601f016020809104026020016040519081016040528092919081815260200182805461140190615747565b801561144e5780601f106114235761010080835404028352916020019161144e565b820191906000526020600020905b81548152906001019060200180831161143157829003601f168201915b505050505081565b600054610100900460ff16158080156114765750600054600160ff909116105b80611497575061148530612c76565b158015611497575060005460ff166001145b6114fa5760405162461bcd60e51b815260206004820152602e60248201527f496e697469616c697a61626c653a20636f6e747261637420697320616c72656160448201526d191e481a5b9a5d1a585b1a5e995960921b6064820152608401610b38565b6000805460ff19166001179055801561151d576000805461ff0019166101001790555b611525612c85565b6115368989898989468a8a8a612cac565b61156573b67c014fa700e69681a673876eb8bafaa36bff716000805160206164d5833981519152600019612e7f565b61159473b67c014fa700e69681a673876eb8bafaa36bff716000805160206164f5833981519152600019612e7f565b6115c360008051602061655583398151915273e592427a0aece92de3edee1f18e0157c05861564600019612e7f565b60ca546115ea906001600160a01b03166000805160206164f5833981519152600019612e7f565b8015611630576000805461ff0019169055604051600181527f7f26b83ff96e1f2b6a682f133852f6798a09c465da95921460cefb38474024989060200160405180910390a15b505050505050505050565b6033546001600160a01b031690565b6000918252610103602090815260408084206001600160a01b0393909316845291905290205460ff1690565b61167e612190565b60ca546040516370a0823160e01b81526113ba916001916001600160a01b03909116906370a08231906116b59030906004016150bf565b602060405180830381865afa1580156116d2573d6000803e3d6000fd5b505050506040513d601f19601f820116820180604052508101906116f6919061572e565b60ca546001600160a01b031691906121e9565b61ffff811660009081526066602052604081208054606092919061172c90615747565b80601f016020809104026020016040519081016040528092919081815260200182805461175890615747565b80156117a55780601f1061177a576101008083540402835291602001916117a5565b820191906000526020600020905b81548152906001019060200180831161178857829003601f168201915b5050505050905080516000036117fd5760405162461bcd60e51b815260206004820152601d60248201527f4c7a4170703a206e6f20747275737465642070617468207265636f72640000006044820152606401610b38565b610f3d60006014835161181091906157ee565b839190612f83565b611820613090565b805161013580546001600160a01b0319166001600160a01b0390921691909117905560208101516101365560400151610137805460ff1916911515919091179055565b61186b612131565b81813060405160200161188093929190615921565b60408051601f1981840301815291815261ffff85166000908152606660205220906118ab908261599d565b507f8c0400cfe2d1199b1a725c78960bcc2a344d869b80590d0f2bd005db15a572ce8383836040516118df939291906157ba565b60405180910390a1505050565b60ce546001600160a01b0316331480611914575060cd5461010090046001600160a01b031633145b61195f5760405162461bcd60e51b815260206004820152601c60248201527b53674272696467653a3a526f757465724f724272696467654f6e6c7960201b6044820152606401610b38565b600061196d86826014612f83565b60405160200161197d9190615a56565b60405160208183030381529060405261199590615a72565b6040805185815260609290921c6020830181905292506001600160a01b038616917f92073a89a07a000083eb8b2575fc15e7bb936efe55d00727d6942a796d7211a7910160405180910390a250505050505050565b6119f2613090565b610d486101356130ff611a036131a1565b60ca546001600160a01b03166131d3565b611a1c612131565b606980546001600160a01b0319166001600160a01b0383161790556040517f5db758e995a17ec1ad84bdef7e8c3293a0bd6179bcce400dff5d4c3d87db726b90610e6c9083906150bf565b60ca546040516370a0823160e01b81526000916001600160a01b0316906370a0823190611a989030906004016150bf565b602060405180830381865afa158015611ab5573d6000803e3d6000fd5b505050506040513d601f19601f82011682018060405250810190611ad9919061572e565b905090565b611ae6612131565b60c980546001600160a01b0319166001600160a01b0392909216919091179055565b611b10612131565b6065546040516332fb62e760e21b81526001600160a01b039091169063cbed8b9c90611b489088908890889088908890600401615aa9565b600060405180830381600087803b158015611b6257600080fd5b505af1158015611630573d6000803e3d6000fd5b61ffff86166000908152609760205260408082209051611b999088908890615781565b90815260408051602092819003830190206001600160401b03871660009081529252902054905080611c195760405162461bcd60e51b815260206004820152602360248201527f4e6f6e626c6f636b696e674c7a4170703a206e6f2073746f726564206d65737360448201526261676560e81b6064820152608401610b38565b808383604051611c2a929190615781565b604051809103902014611c895760405162461bcd60e51b815260206004820152602160248201527f4e6f6e626c6f636b696e674c7a4170703a20696e76616c6964207061796c6f616044820152601960fa1b6064820152608401610b38565b61ffff87166000908152609760205260408082209051611cac9089908990615781565b90815260408051602092819003830181206001600160401b038916600090815290845282902093909355601f88018290048202830182019052868252611d44918991899089908190840183828082843760009201919091525050604080516020601f8a018190048102820181019092528881528a935091508890889081908401838280828437600092019190915250612b0e92505050565b7fc264d91f3adc5588250e1551f547752ca0cfa8f6b530d243b9f9f4cab10ea8e58787878785604051611d7b959493929190615ad7565b60405180910390a150505050505050565b611d9582610d4b565b611d9e8161223f565b610dbe83836122d0565b611db0612131565b60008111611df85760405162461bcd60e51b81526020600482015260156024820152744c7a4170703a20696e76616c6964206d696e47617360581b6044820152606401610b38565b61ffff83811660008181526067602090815260408083209487168084529482529182902085905581519283528201929092529081018290527f9d5c7c0b934da8fefa9c7760c98383778a12dfbfc0c3b3106518f43fb9508ac0906060016118df565b611e62612131565b600090815260cf60205260409020805460ff19169055565b611e82612131565b61ffff83166000908152606660205260409020611ea0828483615b12565b507ffa41487ad5d6728f0b19276fa1eddc16558578f5109fc39d2dc33c3230470dab8383836040516118df939291906157ba565b6101375460009060ff16611efb57604051630570e54b60e51b815260040160405180910390fd5b61013654611f07611a67565b611f18611f1261326a565b3061329e565b611f229190615801565b611ad99190615801565b600080516020616515833981519152611f448161223f565b5050610136555050565b611f56612190565b60cc55565b611f63612131565b6001600160a01b038116611fc85760405162461bcd60e51b815260206004820152602660248201527f4f776e61626c653a206e6577206f776e657220697320746865207a65726f206160448201526564647265737360d01b6064820152608401610b38565b610d4881612c24565b606554604051633d7b2f6f60e21b815261ffff808716600483015285166024820152306044820152606481018390526060916001600160a01b03169063f5ecbdbc90608401600060405180830381865afa158015612033573d6000803e3d6000fd5b505050506040513d6000823e601f3d908101601f1916820160405261205b9190810190615bcb565b90505b949350505050565b6040517b0ca2ba3432b932bab69029b4b3b732b21026b2b9b9b0b3b29d05199960211b6020820152603c8101829052600090605c01604051602081830303815290604052805190602001209050919050565b60008061211b5a60966366ad5c8a60e01b898989896040516024016120e09493929190615c38565b60408051601f198184030181529190526020810180516001600160e01b03166001600160e01b03199093169290921790915230929190613334565b9150915081610bb757610bb786868686856133c0565b3361213a61163b565b6001600160a01b0316146113ba5760405162461bcd60e51b815260206004820181905260248201527f4f776e61626c653a2063616c6c6572206973206e6f7420746865206f776e65726044820152606401610b38565b60c9546001600160a01b031633146113ba5760405162461bcd60e51b815260206004820152601c60248201527b10985cd954dd1c985d1959de4e8e93db9b1e54dd1c985d1959da5cdd60221b6044820152606401610b38565b610dbe8363a9059cbb60e01b8484604051602401612208929190615c76565b60408051601f198184030181529190526020810180516001600160e01b03166001600160e01b03199093169290921790915261345d565b610d488133613532565b612253828261164a565b610e3d576000828152610103602090815260408083206001600160a01b03851684529091529020805460ff1916600117905561228c3390565b6001600160a01b0316816001600160a01b0316837f2f8788117e7eff1d82e926ec794901d17c78024a50270940304540a733656f0d60405160405180910390a45050565b6122da828261164a565b15610e3d576000828152610103602090815260408083206001600160a01b0385168085529252808320805460ff1916905551339285917ff6391f5c32d9c69d2a47ea670b442974b53935d1edc7fd64eb21e047a839171b9190a45050565b60cd5460ff16156123465750565b61234e61358b565b6000612358611a67565b90506000828211156123715761236e83836157ee565b90505b8015610dbe5760408051600280825260608201835260009260208301908036833701905050905081816000815181106123ac576123ac615c8f565b6020026020010181815250506000816001815181106123cd576123cd615c8f565b602090810291909101015260cc5460405163f9273ffb60e01b8152600091612710916000805160206164f58339815191529063f9273ffb906124189030908890600190600401615ce0565b602060405180830381865afa158015612435573d6000803e3d6000fd5b505050506040513d601f19601f82011682018060405250810190612459919061572e565b6124639190615d16565b61246d9190615d43565b604051634d49e87d60e01b81529091506000805160206164f583398151915290634d49e87d906124a590859085904290600401615d57565b6020604051808303816000875af11580156124c4573d6000803e3d6000fd5b505050506040513d601f19601f820116820180604052508101906124e8919061572e565b506040516370a0823160e01b815260009073b67c014fa700e69681a673876eb8bafaa36bff71906370a08231906125239030906004016150bf565b602060405180830381865afa158015612540573d6000803e3d6000fd5b505050506040513d601f19601f82011682018060405250810190612564919061572e565b60405163534a7e1d60e11b8152600481018290529091506000805160206164d58339815191529063a694fc3a90602401600060405180830381600087803b1580156125ae57600080fd5b505af11580156125c2573d6000803e3d6000fd5b50505050505050505050565b60006125d8611276565b905060006125e582612066565b60c9549091506001600160a01b03166125fe8285613672565b6001600160a01b031614610dbe5760405162461bcd60e51b815260206004820152601e60248201527f4261736553747261746567793a3a496e76616c69645369676e617475726500006044820152606401610b38565b600061265e61358b565b6000612668611a67565b604051632e1a7d4d60e01b8152600481018290529091506000805160206164d583398151915290632e1a7d4d90602401600060405180830381600087803b1580156126b257600080fd5b505af11580156126c6573d6000803e3d6000fd5b50506040516301f1d0ab60e51b81526000805160206164f58339815191529250633e3a1560915061270290849060009081904290600401615d7c565b6020604051808303816000875af1158015612721573d6000803e3d6000fd5b505050506040513d601f19601f82011682018060405250810190612745919061572e565b5060ca546040516370a0823160e01b81526001600160a01b03909116906370a08231906127769030906004016150bf565b602060405180830381865afa158015612793573d6000803e3d6000fd5b505050506040513d601f19601f820116820180604052508101906127b7919061572e565b91505090565b6000806000806127cb611ed4565b90508581106127e9576127de86826157ee565b9350600092506127fa565b600093506127f781876157ee565b92505b61280c6128078587615801565b613696565b505060ca546040516370a0823160e01b81526000916001600160a01b0316906370a082319061283f9030906004016150bf565b602060405180830381865afa15801561285c573d6000803e3d6000fd5b505050506040513d601f19601f82011682018060405250810190612880919061572e565b905084811161289557809450600092506128ab565b6128a86128a286836157ee565b876137cb565b92505b50509250925092565b60cd54604051630dc6346160e01b815260009161010090046001600160a01b031690630dc63461906128ee90879087908790600401615d9a565b602060405180830381865afa15801561290b573d6000803e3d6000fd5b505050506040513d601f19601f8201168201806040525081019061292f919061572e565b60cd5460ca54604051633920455b60e11b81529293506001600160a01b036101009092048216926372408ab6928592612975929116908a908a908a908a90600401615dc8565b6000604051808303818588803b1580156125ae57600080fd5b60cb5460408051606083811b6001600160601b03199081166020840152309182901b16603483015282516028818403018152604890920190925260655490926000926001600160a01b03909216916340a7bb109161ffff600160a01b909104169086856129f96137e1565b6040518663ffffffff1660e01b8152600401612a19959493929190615e05565b6040805180830381865afa158015612a35573d6000803e3d6000fd5b505050506040513d601f19601f82011682018060405250810190612a599190615e59565b50905080471015612a855760405162fae2d560e21b815260048101829052476024820152604401610b38565b60655460cb546001600160a01b039091169063c5803100908390600160a01b900461ffff1685873080612ab66137e1565b6040518863ffffffff1660e01b8152600401612ad796959493929190615e7d565b6000604051808303818588803b158015612af057600080fd5b505af1158015612b04573d6000803e3d6000fd5b5050505050505050565b60cb5461ffff858116600160a01b9092041614612b785760405162461bcd60e51b815260206004820152602260248201527f4261736553747261746567793a3a5661756c74436861696e49644d69736d61746044820152610c6d60f31b6064820152608401610b38565b6000612b8684826014612f83565b604051602001612b969190615a56565b604051602081830303815290604052612bae90615a72565b60cb5460609190911c91506001600160a01b03168114612c1b5760405162461bcd60e51b815260206004820152602260248201527f4261736553747261746567793a3a5661756c74416464726573734d69736d61746044820152610c6d60f31b6064820152608401610b38565b610c5c82613811565b603380546001600160a01b038381166001600160a01b0319831681179093556040519116919082907f8be0079c531659141344cd1fd0a4f28419497f9722a3daafe3b4186f6b6457e090600090a35050565b6001600160a01b03163b151590565b600054610100900460ff166113ba5760405162461bcd60e51b8152600401610b3890615ee4565b600054610100900460ff16612cd35760405162461bcd60e51b8152600401610b3890615ee4565b612cdc89613932565b60c980546001600160a01b03808b166001600160a01b03199283161790925560ca80548a8416908316811790915560cb8054938a1661ffff8a16600160a01b029093166001600160b01b0319909416939093179190911790915560cc8290556040805163313ce56760e01b8152905163313ce567916004808201926020929091908290030181865afa158015612d76573d6000803e3d6000fd5b505050506040513d601f19601f82011682018060405250810190612d9a9190615f2f565b60cb8054600060d05562ffffff60b01b1916600160c01b60ff939093169290920261ffff60b01b191691909117600160b01b61ffff87160217905560cd8054610100600160a81b0319166101006001600160a01b03868116919091029190911790915560ce80546001600160a01b03191684831617905560ca5460405163095ea7b360e01b815291169063095ea7b390612e3c90869060001990600401615c76565b6020604051808303816000875af1158015612e5b573d6000803e3d6000fd5b505050506040513d601f19601f820116820180604052508101906125c29190615f52565b801580612ef95750604051636eb1769f60e11b81523060048201526001600160a01b03838116602483015284169063dd62ed3e90604401602060405180830381865afa158015612ed3573d6000803e3d6000fd5b505050506040513d601f19601f82011682018060405250810190612ef7919061572e565b155b612f645760405162461bcd60e51b815260206004820152603660248201527f5361666545524332303a20617070726f76652066726f6d206e6f6e2d7a65726f60448201527520746f206e6f6e2d7a65726f20616c6c6f77616e636560501b6064820152608401610b38565b610dbe8363095ea7b360e01b8484604051602401612208929190615c76565b606081612f9181601f615801565b1015612fd05760405162461bcd60e51b815260206004820152600e60248201526d736c6963655f6f766572666c6f7760901b6044820152606401610b38565b612fda8284615801565b8451101561301e5760405162461bcd60e51b8152602060048201526011602482015270736c6963655f6f75744f66426f756e647360781b6044820152606401610b38565b60608215801561303d5760405191506000825260208201604052613087565b6040519150601f8416801560200281840101858101878315602002848b0101015b8183101561307657805183526020928301920161305e565b5050858452601f01601f1916604052505b50949350505050565b60c9546001600160a01b03163314806130a857503330145b6113ba5760405162461bcd60e51b815260206004820152602260248201527f4261736553747261746567793a3a4f6e6c79537472617465676973744f725365604482015261363360f11b6064820152608401610b38565b805160000361314e5781836001600160a01b0316856001600160a01b03167fe47a58d87426c749b0bf81083c60c31e2ec1cfae38d60931162d521cc985007060405160405180910390a461319b565b81836001600160a01b0316856001600160a01b03167f2587c98086a53a3541f325db5ea28a5b772d19a0037252fcf080a4617b9651dd846040516131929190615123565b60405180910390a45b50505050565b6040516246613160e11b81526000906000805160206164d583398151915290628cc26290611a989030906004016150bf565b600061321985857344ca2be2bd6a7203ccdbb63eed8382274f737a156000805160206165558339815191527382af49447d8a07e3bd95bd0d56f35241523fbab18861396a565b9050613251858573c31e54c7a869b9fcbecc14363cf510d1c41fa4437382af49447d8a07e3bd95bd0d56f35241523fbab1868661396a565b6002909501805460ff1916600117905550929392505050565b6040516370a0823160e01b81526000906000805160206164d5833981519152906370a0823190611a989030906004016150bf565b6000826000036132b057506000610bf0565b604051630262267d60e61b81526001600160a01b038316600482015260248101849052600060448201526000805160206164f5833981519152906398899f4090606401602060405180830381865afa158015613310573d6000803e3d6000fd5b505050506040513d601f19601f82011682018060405250810190610f3d919061572e565b6000606060008060008661ffff166001600160401b0381111561335957613359615273565b6040519080825280601f01601f191660200182016040528015613383576020820181803683370190505b50905060008087516020890160008d8df191503d9250868311156133a5578692505b828152826000602083013e9093509150505b94509492505050565b8180519060200120609760008761ffff1661ffff168152602001908152602001600020856040516133f19190615a56565b9081526040805191829003602090810183206001600160401b0388166000908152915220919091557fe183f33de2837795525b4792ca4cd60535bd77c53b7e7030060bfcf5734d6b0c9061344e9087908790879087908790615f6f565b60405180910390a15050505050565b60006134b2826040518060400160405280602081526020017f5361666545524332303a206c6f772d6c6576656c2063616c6c206661696c6564815250856001600160a01b0316613a819092919063ffffffff16565b90508051600014806134d35750808060200190518101906134d39190615f52565b610dbe5760405162461bcd60e51b815260206004820152602a60248201527f5361666545524332303a204552433230206f7065726174696f6e20646964206e6044820152691bdd081cdd58d8d9595960b21b6064820152608401610b38565b61353c828261164a565b610e3d5761354981613a90565b613554836020613aa2565b604051602001613565929190615fc1565b60408051601f198184030181529082905262461bcd60e51b8252610b3891600401615123565b6000805160206164d58339815191526001600160a01b0316633d18b9126040518163ffffffff1660e01b8152600401600060405180830381600087803b1580156135d457600080fd5b505af11580156135e8573d6000803e3d6000fd5b50506040516370a0823160e01b81526113ba92506101359150613c3d90600080516020616555833981519152906370a08231906136299030906004016150bf565b602060405180830381865afa158015613646573d6000803e3d6000fd5b505050506040513d601f19601f8201168201806040525081019061366a919061572e565b60cc54613cd0565b60008060006136818585613e48565b9150915061368e81613e8d565b509392505050565b60ca546040516370a0823160e01b8152600091829182916001600160a01b0316906370a08231906136cb9030906004016150bf565b602060405180830381865afa1580156136e8573d6000803e3d6000fd5b505050506040513d601f19601f8201168201806040525081019061370c919061572e565b905083811061372057509192600092509050565b61373261372d82866157ee565b613fd2565b60ca546040516370a0823160e01b81526001600160a01b03909116906370a08231906137629030906004016150bf565b602060405180830381865afa15801561377f573d6000803e3d6000fd5b505050506040513d601f19601f820116820180604052508101906137a3919061572e565b9050808411156137c1579150816137ba81856157ee565b91506137c5565b8392505b50915091565b60008183106137da5781610f3d565b5090919050565b60408051600160f01b6020820152620f424060228083019190915282518083039091018152604290910190915290565b6000818060200190518101906138279190616030565b9050600381600481111561383d5761383d61582d565b03613888576000828060200190518101906138589190616051565b9150506138688160000151612338565b8051604051908152600080516020616535833981519152906020016118df565b600081600481111561389c5761389c61582d565b036138c3576000828060200190518101906138b79190616094565b915050610dbe81614034565b60048160048111156138d7576138d761582d565b03610e3d576000828060200190518101906138f291906160ff565b915050613902816000015161415e565b80516040517f7c9a2d2ec51230d7dbed27f113a325b7e20aef7b049e68b2339257b5edff5bea916118df916150bf565b600054610100900460ff166139595760405162461bcd60e51b8152600401610b3890615ee4565b61396161419d565b610d48816141cd565b60028601805460ff191690558554604051634d1dde7b60e01b81526001600160a01b0385811660048301528481166024830152604482018490526000921690634d1dde7b90606401600060405180830381600087803b1580156139cc57600080fd5b505af19250505080156139dd575060015b613a3f573d808015613a0b576040519150601f19603f3d011682016040523d82523d6000602084013e613a10565b606091505b506000613a1f87878787614216565b60018a018190559050613a388686868563ffffffff8d16565b5050613a71565b613a718484846000604051602001613a5991815260200190565b6040516020818303038152906040528a63ffffffff16565b5050506001909301549392505050565b606061205e848460008561423e565b6060610bf06001600160a01b03831660145b60606000613ab1836002615d16565b613abc906002615801565b6001600160401b03811115613ad357613ad3615273565b6040519080825280601f01601f191660200182016040528015613afd576020820181803683370190505b509050600360fc1b81600081518110613b1857613b18615c8f565b60200101906001600160f81b031916908160001a905350600f60fb1b81600181518110613b4757613b47615c8f565b60200101906001600160f81b031916908160001a9053506000613b6b846002615d16565b613b76906001615801565b90505b6001811115613bee576f181899199a1a9b1b9c1cb0b131b232b360811b85600f1660108110613baa57613baa615c8f565b1a60f81b828281518110613bc057613bc0615c8f565b60200101906001600160f81b031916908160001a90535060049490941c93613be78161614d565b9050613b79565b508315610f3d5760405162461bcd60e51b815260206004820181905260248201527f537472696e67733a20686578206c656e67746820696e73756666696369656e746044820152606401610b38565b8051600003613c8c5781836001600160a01b0316856001600160a01b03167fea368a40e9570069bb8e6511d668293ad2e1f03b0d982431fd223de9f3b70ca660405160405180910390a461319b565b81836001600160a01b0316856001600160a01b03167f583bc203f4bd38722d9ba88ecb248da508149e0e405a42dbc1b1f7d55a8be0c1846040516131929190615123565b811561319b576000612710613ce6836064615d16565b613cf09190615d43565b85546040516310cabd1d60e01b8152600080516020616555833981519152600482015273ff970a61a04b1ca14834a43f5de4533ebddb5cc860248201526044810186905260ff831660648201529192506001600160a01b0316906310cabd1d90608401600060405180830381600087803b158015613d6d57600080fd5b505af1925050508015613d7e575060015b613df4573d808015613dac576040519150601f19603f3d011682016040523d82523d6000602084013e613db1565b606091505b50613dbc8484614319565b613dee60008051602061655583398151915273ff970a61a04b1ca14834a43f5de4533ebddb5cc886848963ffffffff16565b50610c5c565b610c5c60008051602061655583398151915273ff970a61a04b1ca14834a43f5de4533ebddb5cc8856000604051602001613e3091815260200190565b6040516020818303038152906040528863ffffffff16565b6000808251604103613e7e5760208301516040840151606085015160001a613e7287828585614492565b94509450505050613e86565b506000905060025b9250929050565b6000816004811115613ea157613ea161582d565b03613ea95750565b6001816004811115613ebd57613ebd61582d565b03613f055760405162461bcd60e51b815260206004820152601860248201527745434453413a20696e76616c6964207369676e617475726560401b6044820152606401610b38565b6002816004811115613f1957613f1961582d565b03613f665760405162461bcd60e51b815260206004820152601f60248201527f45434453413a20696e76616c6964207369676e6174757265206c656e677468006044820152606401610b38565b6003816004811115613f7a57613f7a61582d565b03610d485760405162461bcd60e51b815260206004820152602260248201527f45434453413a20696e76616c6964207369676e6174757265202773272076616c604482015261756560f01b6064820152608401610b38565b80600003613fdd5750565b80613fef6101356130ff611a036131a1565b10613ffc57610d4861358b565b600061402961400961326a565b61401a6101356130ff611a036131a1565b61402490856157ee565b6137cb565b9050610e3d8161453c565b602080820151600090815260cf909152604090205460ff16156140995760405162461bcd60e51b815260206004820152601e60248201527f4261736553747261746567793a3a416c726561647957697468647261776e00006044820152606401610b38565b6000806140a98360000151613696565b91509150600060016040518060800160405280306001600160a01b0316815260200185815260200184815260200186602001518152506040516020016140f0929190616164565b60408051601f19818403018152919052905082156141315760cb5461412c90849061ffff600160a01b820416906001600160a01b0316846128b4565b61413a565b61413a8161298e565b505050602090810151600090815260cf90915260409020805460ff19166001179055565b61416781614734565b60ca546040516370a0823160e01b8152610d489183916001600160a01b03909116906370a08231906116b59030906004016150bf565b600054610100900460ff166141c45760405162461bcd60e51b8152600401610b3890615ee4565b6113ba33612c24565b600054610100900460ff166141f45760405162461bcd60e51b8152600401610b3890615ee4565b606580546001600160a01b0319166001600160a01b0392909216919091179055565b60008061422586610708614758565b509050614234818487876149a1565b9695505050505050565b60608247101561429f5760405162461bcd60e51b815260206004820152602660248201527f416464726573733a20696e73756666696369656e742062616c616e636520666f6044820152651c8818d85b1b60d21b6064820152608401610b38565b600080866001600160a01b031685876040516142bb9190615a56565b60006040518083038185875af1925050503d80600081146142f8576040519150601f19603f3d011682016040523d82523d6000602084013e6142fd565b606091505b509150915061430e87838387614a9d565b979650505050505050565b6143546040518060a001604052806060815260200160006001600160a01b031681526020016000815260200160008152602001600081525090565b604080517331440bfa4d67f668a3e1de99f8dac3c1436068f360621b602082015261017760eb1b60348201527382af49447d8a07e3bd95bd0d56f35241523fbab160601b6037820152607d60ea1b604b8201526001720d1eb3cbf69c6bd6f96b78144375982844946760631b0319604e82015281516042818303018152606290910190915260006143e485614b14565b8284523060208501524260408501526060840186905290506127106144098583615d16565b6144139190615d43565b608084015260405163c04b8d5960e01b815273e592427a0aece92de3edee1f18e0157c058615649063c04b8d599061444f9086906004016161a6565b6020604051808303816000875af115801561446e573d6000803e3d6000fd5b505050506040513d601f19601f82011682018060405250810190610bb7919061572e565b6000806fa2a8918ca85bafe22016d0b997e4df60600160ff1b038311156144bf57506000905060036133b7565b6000600187878787604051600081526020016040526040516144e49493929190615d7c565b6020604051602081039080840390855afa158015614506573d6000803e3d6000fd5b5050604051601f1901519150506001600160a01b03811661452f576000600192509250506133b7565b9660009650945050505050565b61454461358b565b604080516002808252606082018352600092602083019080368337019050509050818160008151811061457957614579615c8f565b60200260200101818152505060008160018151811061459a5761459a615c8f565b602090810291909101015260405163f9273ffb60e01b81526000906000805160206164f58339815191529063f9273ffb906145dd90309086908690600401615ce0565b602060405180830381865afa1580156145fa573d6000803e3d6000fd5b505050506040513d601f19601f8201168201806040525081019061461e919061572e565b9050614628611a67565b81111561463a57614637611a67565b90505b604051632e1a7d4d60e01b8152600481018290526000805160206164d583398151915290632e1a7d4d90602401600060405180830381600087803b15801561468157600080fd5b505af1158015614695573d6000803e3d6000fd5b50505050600061271060cc54856146ac9190615d16565b6146b69190615d43565b6040516301f1d0ab60e51b81529091506000805160206164f583398151915290633e3a1560906146f190859060009086904290600401615d7c565b6020604051808303816000875af1158015614710573d6000803e3d6000fd5b505050506040513d601f19601f82011682018060405250810190610c5c919061572e565b600061473e612654565b60ca54909150610e3d906001600160a01b031683836121e9565b6000808263ffffffff166000036147965760405162461bcd60e51b8152602060048201526002602482015261042560f41b6044820152606401610b38565b60408051600280825260608201835260009260208301908036833701905050905083816000815181106147cb576147cb615c8f565b602002602001019063ffffffff16908163ffffffff16815250506000816001815181106147fa576147fa615c8f565b602002602001019063ffffffff16908163ffffffff1681525050600080866001600160a01b031663883bdbfd846040518263ffffffff1660e01b815260040161484391906161fe565b600060405180830381865afa158015614860573d6000803e3d6000fd5b505050506040513d6000823e601f3d908101601f1916820160405261488891908101906162da565b915091506000826000815181106148a1576148a1615c8f565b6020026020010151836001815181106148bc576148bc615c8f565b60200260200101516148ce91906163a5565b90506000826000815181106148e5576148e5615c8f565b60200260200101518360018151811061490057614900615c8f565b602002602001015161491291906163d2565b905061492463ffffffff8916836163f9565b965060008260060b12801561494a575061494463ffffffff891683616437565b60060b15155b1561495d578661495981616459565b9750505b60006149766001600160a01b0363ffffffff8b1661647c565b9050614992600160201b600160c01b03602084901b16826164ae565b96505050505050509250929050565b6000806149ad86614b9f565b90506001600160801b036001600160a01b03821611614a335760006149db6001600160a01b03831680615d16565b9050836001600160a01b0316856001600160a01b031610614a1357614a0e600160c01b876001600160801b031683614eb7565b614a2b565b614a2b81876001600160801b0316600160c01b614eb7565b925050613087565b6000614a4d6001600160a01b03831680600160401b614eb7565b9050836001600160a01b0316856001600160a01b031610614a8557614a80600160801b876001600160801b031683614eb7565b61430e565b61430e81876001600160801b0316600160801b614eb7565b60608315614b0a578251600003614b0357614ab785612c76565b614b035760405162461bcd60e51b815260206004820152601d60248201527f416464726573733a2063616c6c20746f206e6f6e2d636f6e74726163740000006044820152606401610b38565b508161205e565b61205e8383614f69565b6000610bf073c31e54c7a869b9fcbecc14363cf510d1c41fa4437382af49447d8a07e3bd95bd0d56f35241523fbab173ff970a61a04b1ca14834a43f5de4533ebddb5cc8614b9a7344ca2be2bd6a7203ccdbb63eed8382274f737a156000805160206165558339815191527382af49447d8a07e3bd95bd0d56f35241523fbab189614216565b614216565b60008060008360020b12614bb6578260020b614bbe565b8260020b6000035b9050620d89e8811115614be4576040516315e4079d60e11b815260040160405180910390fd5b600081600116600003614bfb57600160801b614c0d565b6ffffcb933bd6fad37aa2d162d1a5940015b6001600160881b031690506002821615614c37576ffff97272373d413259a46990580e213a0260801c5b6004821615614c56576ffff2e50f5f656932ef12357cf3c7fdcc0260801c5b6008821615614c75576fffe5caca7e10e4e61c3624eaa0941cd00260801c5b6010821615614c94576fffcb9843d60f6159c9db58835c9266440260801c5b6020821615614cb3576fff973b41fa98c081472e6896dfb254c00260801c5b6040821615614cd2576fff2ea16466c96a3843ec78b326b528610260801c5b6080821615614cf1576ffe5dee046a99a2a811c461f1969c30530260801c5b610100821615614d11576ffcbe86c7900a88aedcffc83b479aa3a40260801c5b610200821615614d31576ff987a7253ac413176f2b074cf7815e540260801c5b610400821615614d51576ff3392b0822b70005940c7a398e4b70f30260801c5b610800821615614d71576fe7159475a2c29b7443b29c7fa6e889d90260801c5b611000821615614d91576fd097f3bdfd2022b8845ad8f792aa58250260801c5b612000821615614db1576fa9f746462d870fdf8a65dc1f90e061e50260801c5b614000821615614dd1576f70d869a156d2a1b890bb3df62baf32f70260801c5b618000821615614df1576f31be135f97d08fd981231505542fcfa60260801c5b62010000821615614e12576f09aa508b5b7a84e1c677de54f3e99bc90260801c5b62020000821615614e32576e5d6af8dedb81196699c329225ee6040260801c5b62040000821615614e51576d2216e584f5fa1ea926041bedfe980260801c5b62080000821615614e6e576b048a170391f7dc42444e8fa20260801c5b60008460020b1315614e8f578060001981614e8b57614e8b615d2d565b0490505b600160201b810615614ea2576001614ea5565b60005b60ff16602082901c0192505050919050565b6000808060001985870985870292508281108382030391505080600003614ef05760008411614ee557600080fd5b508290049050610f3d565b808411614efc57600080fd5b6000848688096000868103871696879004966002600389028118808a02820302808a02820302808a02820302808a02820302808a02820302808a02909103029181900381900460010186841190950394909402919094039290920491909117919091029150509392505050565b815115614f795781518083602001fd5b8060405162461bcd60e51b8152600401610b389190615123565b803561ffff81168114614fa557600080fd5b919050565b60008083601f840112614fbc57600080fd5b5081356001600160401b03811115614fd357600080fd5b602083019150836020828501011115613e8657600080fd5b80356001600160401b0381168114614fa557600080fd5b6000806000806000806080878903121561501b57600080fd5b61502487614f93565b955060208701356001600160401b038082111561504057600080fd5b61504c8a838b01614faa565b909750955085915061506060408a01614feb565b9450606089013591508082111561507657600080fd5b5061508389828a01614faa565b979a9699509497509295939492505050565b6000602082840312156150a757600080fd5b81356001600160e01b031981168114610f3d57600080fd5b6001600160a01b0391909116815260200190565b60005b838110156150ee5781810151838201526020016150d6565b50506000910152565b6000815180845261510f8160208601602086016150d3565b601f01601f19169290920160200192915050565b602081526000610f3d60208301846150f7565b60006020828403121561514857600080fd5b610f3d82614f93565b6000806040838503121561516457600080fd5b61516d83614f93565b946020939093013593505050565b6001600160a01b0381168114610d4857600080fd5b6000602082840312156151a257600080fd5b8135610f3d8161517b565b6000602082840312156151bf57600080fd5b5035919050565b600080604083850312156151d957600080fd5b8235915060208301356151eb8161517b565b809150509250929050565b60008060006040848603121561520b57600080fd5b61521484614f93565b925060208401356001600160401b0381111561522f57600080fd5b61523b86828701614faa565b9497909650939450505050565b8015158114610d4857600080fd5b60006020828403121561526857600080fd5b8135610f3d81615248565b634e487b7160e01b600052604160045260246000fd5b604051602081016001600160401b03811182821017156152ab576152ab615273565b60405290565b604051601f8201601f191681016001600160401b03811182821017156152d9576152d9615273565b604052919050565b60006001600160401b038211156152fa576152fa615273565b50601f01601f191660200190565b600082601f83011261531957600080fd5b813561532c615327826152e1565b6152b1565b81815284602083860101111561534157600080fd5b816020850160208301376000918101602001919091529392505050565b600080600080600060a0868803121561537657600080fd5b8535945060208601359350604086013592506060860135915060808601356001600160401b038111156153a857600080fd5b6153b488828901615308565b9150509295509295909350565b6000806000606084860312156153d657600080fd5b6153df84614f93565b925060208401356001600160401b038111156153fa57600080fd5b61540686828701615308565b92505061541560408501614feb565b90509250925092565b600080600080600080600080610100898b03121561543b57600080fd5b88356154468161517b565b975060208901356154568161517b565b965060408901356154668161517b565b955060608901356154768161517b565b945061548460808a01614f93565b935060a08901356154948161517b565b925060c08901356154a48161517b565b8092505060e089013590509295985092959890939650565b600080604083850312156154cf57600080fd5b6154d883614f93565b91506154e660208401614f93565b90509250929050565b60006060828403121561550157600080fd5b604051606081016001600160401b038111828210171561552357615523615273565b60405282356155318161517b565b815260208381013590820152604083013561554b81615248565b60408201529392505050565b60008060008060008060c0878903121561557057600080fd5b61557987614f93565b955060208701356001600160401b038082111561559557600080fd5b6155a18a838b01615308565b965060408901359550606089013591506155ba8261517b565b9093506080880135925060a088013590808211156155d757600080fd5b506155e489828a01615308565b9150509295509295509295565b60008060008060006080868803121561560957600080fd5b61561286614f93565b945061562060208701614f93565b93506040860135925060608601356001600160401b0381111561564257600080fd5b61564e88828901614faa565b969995985093965092949392505050565b60008060006060848603121561567457600080fd5b61567d84614f93565b925061568b60208501614f93565b9150604084013590509250925092565b600080600080608085870312156156b157600080fd5b84356156bc8161517b565b935060208501356156cc8161517b565b93969395505050506040820135916060013590565b600080600080608085870312156156f757600080fd5b61570085614f93565b935061570e60208601614f93565b9250604085013561571e8161517b565b9396929550929360600135925050565b60006020828403121561574057600080fd5b5051919050565b600181811c9082168061575b57607f821691505b60208210810361577b57634e487b7160e01b600052602260045260246000fd5b50919050565b8183823760009101908152919050565b81835281816020850137506000828201602090810191909152601f909101601f19169091010190565b61ffff8416815260406020820152600061205b604083018486615791565b634e487b7160e01b600052601160045260246000fd5b81810381811115610bf057610bf06157d8565b80820180821115610bf057610bf06157d8565b600060018201615826576158266157d8565b5060010190565b634e487b7160e01b600052602160045260246000fd5b6005811061586157634e487b7160e01b600052602160045260246000fd5b9052565b61586f8184615843565b6040602082015261588c6040820183516001600160a01b03169052565b6020820151606082015260408201516080820152606082015160a0820152608082015160c082015260a082015160e0820152600060c0830151610100818185015260e085015191506101208281860152818601519250610140915082828601528086015192505061016082818601528186015192508061018086015250506159186101a08401826150f7565b95945050505050565b8284823760609190911b6001600160601b0319169101908152601401919050565b601f821115610dbe57600081815260208120601f850160051c810160208610156159695750805b601f850160051c820191505b81811015610bb757828155600101615975565b600019600383901b1c191660019190911b1790565b81516001600160401b038111156159b6576159b6615273565b6159ca816159c48454615747565b84615942565b602080601f8311600181146159f957600084156159e75750858301515b6159f18582615988565b865550610bb7565b600085815260208120601f198616915b82811015615a2857888601518255948401946001909101908401615a09565b5085821015615a465787850151600019600388901b60f8161c191681555b5050505050600190811b01905550565b60008251615a688184602087016150d3565b9190910192915050565b805160208201516001600160601b03198082169291906014831015615aa15780818460140360031b1b83161693505b505050919050565b600061ffff80881683528087166020840152508460408301526080606083015261430e608083018486615791565b61ffff86168152608060208201526000615af5608083018688615791565b6001600160401b0394909416604083015250606001529392505050565b6001600160401b03831115615b2957615b29615273565b615b3d83615b378354615747565b83615942565b6000601f841160018114615b6b5760008515615b595750838201355b615b638682615988565b845550610c5c565b600083815260209020601f19861690835b82811015615b9c5786850135825560209485019460019092019101615b7c565b5086821015615bb95760001960f88860031b161c19848701351681555b505060018560011b0183555050505050565b600060208284031215615bdd57600080fd5b81516001600160401b03811115615bf357600080fd5b8201601f81018413615c0457600080fd5b8051615c12615327826152e1565b818152856020838501011115615c2757600080fd5b6159188260208301602086016150d3565b61ffff85168152608060208201526000615c5560808301866150f7565b6001600160401b0385166040840152828103606084015261430e81856150f7565b6001600160a01b03929092168252602082015260400190565b634e487b7160e01b600052603260045260246000fd5b600081518084526020808501945080840160005b83811015615cd557815187529582019590820190600101615cb9565b509495945050505050565b6001600160a01b0384168152606060208201819052600090615d0490830185615ca5565b90508215156040830152949350505050565b8082028115828204841417610bf057610bf06157d8565b634e487b7160e01b600052601260045260246000fd5b600082615d5257615d52615d2d565b500490565b606081526000615d6a6060830186615ca5565b60208301949094525060400152919050565b93845260ff9290921660208401526040830152606082015260800190565b61ffff841681526001600160a01b038316602082015260606040820181905260009061205b908301846150f7565b6001600160a01b0386811682526020820186905261ffff851660408301528316606082015260a06080820181905260009061430e908301846150f7565b61ffff861681526001600160a01b038516602082015260a060408201819052600090615e33908301866150f7565b84151560608401528281036080840152615e4d81856150f7565b98975050505050505050565b60008060408385031215615e6c57600080fd5b505080516020909101519092909150565b61ffff8716815260c060208201526000615e9a60c08301886150f7565b8281036040840152615eac81886150f7565b6001600160a01b0387811660608601528616608085015283810360a08501529050615ed781856150f7565b9998505050505050505050565b6020808252602b908201527f496e697469616c697a61626c653a20636f6e7472616374206973206e6f74206960408201526a6e697469616c697a696e6760a81b606082015260800190565b600060208284031215615f4157600080fd5b815160ff81168114610f3d57600080fd5b600060208284031215615f6457600080fd5b8151610f3d81615248565b61ffff8616815260a060208201526000615f8c60a08301876150f7565b6001600160401b03861660408401528281036060840152615fad81866150f7565b90508281036080840152615e4d81856150f7565b76020b1b1b2b9b9a1b7b73a3937b61d1030b1b1b7bab73a1604d1b815260008351615ff38160178501602088016150d3565b7001034b99036b4b9b9b4b733903937b6329607d1b60179184019182015283516160248160288401602088016150d3565b01602801949350505050565b60006020828403121561604257600080fd5b815160058110610f3d57600080fd5b600080828403604081121561606557600080fd5b835192506020601f198201121561607b57600080fd5b50616084615289565b6020939093015183525092909150565b60008082840360608112156160a857600080fd5b835192506040601f19820112156160be57600080fd5b50604080519081016001600160401b03811182821017156160e1576160e1615273565b60409081526020858101518352940151938101939093525092909150565b600080828403604081121561611357600080fd5b835192506020601f198201121561612957600080fd5b50616132615289565b60208401516161408161517b565b8152919491935090915050565b60008161615c5761615c6157d8565b506000190190565b60a081016161728285615843565b60018060a01b0383511660208301526020830151604083015260408301516060830152606083015160808301529392505050565b602081526000825160a060208401526161c260c08401826150f7565b905060018060a01b0360208501511660408401526040840151606084015260608401516080840152608084015160a08401528091505092915050565b6020808252825182820181905260009190848201906040850190845b8181101561623c57835163ffffffff168352928401929184019160010161621a565b50909695505050505050565b60006001600160401b0382111561626157616261615273565b5060051b60200190565b600082601f83011261627c57600080fd5b8151602061628c61532783616248565b82815260059290921b840181019181810190868411156162ab57600080fd5b8286015b848110156162cf5780516162c28161517b565b83529183019183016162af565b509695505050505050565b600080604083850312156162ed57600080fd5b82516001600160401b038082111561630457600080fd5b818501915085601f83011261631857600080fd5b8151602061632861532783616248565b82815260059290921b8401810191818101908984111561634757600080fd5b948201945b838610156163755785518060060b81146163665760008081fd5b8252948201949082019061634c565b9188015191965090935050508082111561638e57600080fd5b5061639b8582860161626b565b9150509250929050565b600682810b9082900b03667fffffffffffff198112667fffffffffffff82131715610bf057610bf06157d8565b6001600160a01b038281168282160390808211156163f2576163f26157d8565b5092915050565b60008160060b8360060b8061641057616410615d2d565b667fffffffffffff1982146000198214161561642e5761642e6157d8565b90059392505050565b60008260060b8061644a5761644a615d2d565b808360060b0791505092915050565b60008160020b627fffff198103616472576164726157d8565b6000190192915050565b6001600160c01b038281168282168181028316929181158285048214176164a5576164a56157d8565b50505092915050565b60006001600160c01b03838116806164c8576164c8615d2d565b9216919091049291505056fe000000000000000000000000b0cabfe930642ad3e7decdc741884d8c3f7ebc7000000000000000000000000010541b07d8ad2647dc6cd67abd4c03575dade2616d1efadb607420c71e8f966ae6611a2b817ec83a98f82ae24284fd004cf9d40cb0c58532a125fc3c0adccaef396bf65344a4d5781cec2e4c593e6b611d75f150000000000000000000000000c5102fe9359fd9a28f877a67e36b0f050d81a3cca2646970667358221220058fd1fd778b477c69fc8a7add8ae54fabfd8b4b755179d030107077bc1cde7064736f6c63430008130033",
  "linkReferences": {},
  "deployedLinkReferences": {}
}