{
  "_format": "hh-sol-artifact-1",
  "contractName": "HopStrategy",
  "sourceName": "contracts/strategies/HopStrategy.sol",
  "abi": [
    {
      "inputs": [
        {
          "internalType": "uint256",
          "name": "messageType",
          "type": "uint256"
        }
      ],
      "name": "IncorrectMessageType",
      "type": "error"
    },
    {
      "inputs": [
        {
          "internalType": "uint256",
          "name": "amount",
          "type": "uint256"
        },
        {
          "internalType": "uint256",
          "name": "balance",
          "type": "uint256"
        }
      ],
      "name": "InsufficientFunds",
      "type": "error"
    },
    {
      "inputs": [],
      "name": "T",
      "type": "error"
    },
    {
      "anonymous": false,
      "inputs": [
        {
          "indexed": false,
          "internalType": "uint256",
          "name": "debtOutstanding",
          "type": "uint256"
        }
      ],
      "name": "AdjustedPosition",
      "type": "event"
    },
    {
      "anonymous": false,
      "inputs": [
        {
          "indexed": false,
          "internalType": "uint8",
          "name": "version",
          "type": "uint8"
        }
      ],
      "name": "Initialized",
      "type": "event"
    },
    {
      "anonymous": false,
      "inputs": [
        {
          "indexed": false,
          "internalType": "uint16",
          "name": "_srcChainId",
          "type": "uint16"
        },
        {
          "indexed": false,
          "internalType": "bytes",
          "name": "_srcAddress",
          "type": "bytes"
        },
        {
          "indexed": false,
          "internalType": "uint64",
          "name": "_nonce",
          "type": "uint64"
        },
        {
          "indexed": false,
          "internalType": "bytes",
          "name": "_payload",
          "type": "bytes"
        },
        {
          "indexed": false,
          "internalType": "bytes",
          "name": "_reason",
          "type": "bytes"
        }
      ],
      "name": "MessageFailed",
      "type": "event"
    },
    {
      "anonymous": false,
      "inputs": [
        {
          "indexed": true,
          "internalType": "address",
          "name": "previousOwner",
          "type": "address"
        },
        {
          "indexed": true,
          "internalType": "address",
          "name": "newOwner",
          "type": "address"
        }
      ],
      "name": "OwnershipTransferred",
      "type": "event"
    },
    {
      "anonymous": false,
      "inputs": [
        {
          "indexed": false,
          "internalType": "uint16",
          "name": "_srcChainId",
          "type": "uint16"
        },
        {
          "indexed": false,
          "internalType": "bytes",
          "name": "_srcAddress",
          "type": "bytes"
        },
        {
          "indexed": false,
          "internalType": "uint64",
          "name": "_nonce",
          "type": "uint64"
        },
        {
          "indexed": false,
          "internalType": "bytes32",
          "name": "_payloadHash",
          "type": "bytes32"
        }
      ],
      "name": "RetryMessageSuccess",
      "type": "event"
    },
    {
      "anonymous": false,
      "inputs": [
        {
          "indexed": false,
          "internalType": "uint16",
          "name": "_dstChainId",
          "type": "uint16"
        },
        {
          "indexed": false,
          "internalType": "uint16",
          "name": "_type",
          "type": "uint16"
        },
        {
          "indexed": false,
          "internalType": "uint256",
          "name": "_minDstGas",
          "type": "uint256"
        }
      ],
      "name": "SetMinDstGas",
      "type": "event"
    },
    {
      "anonymous": false,
      "inputs": [
        {
          "indexed": false,
          "internalType": "address",
          "name": "precrime",
          "type": "address"
        }
      ],
      "name": "SetPrecrime",
      "type": "event"
    },
    {
      "anonymous": false,
      "inputs": [
        {
          "indexed": false,
          "internalType": "uint16",
          "name": "_remoteChainId",
          "type": "uint16"
        },
        {
          "indexed": false,
          "internalType": "bytes",
          "name": "_path",
          "type": "bytes"
        }
      ],
      "name": "SetTrustedRemote",
      "type": "event"
    },
    {
      "anonymous": false,
      "inputs": [
        {
          "indexed": false,
          "internalType": "uint16",
          "name": "_remoteChainId",
          "type": "uint16"
        },
        {
          "indexed": false,
          "internalType": "bytes",
          "name": "_remoteAddress",
          "type": "bytes"
        }
      ],
      "name": "SetTrustedRemoteAddress",
      "type": "event"
    },
    {
      "anonymous": false,
      "inputs": [
        {
          "indexed": true,
          "internalType": "address",
          "name": "token",
          "type": "address"
        },
        {
          "indexed": false,
          "internalType": "uint256",
          "name": "amount",
          "type": "uint256"
        },
        {
          "indexed": false,
          "internalType": "address",
          "name": "sender",
          "type": "address"
        }
      ],
      "name": "SgReceived",
      "type": "event"
    },
    {
      "anonymous": false,
      "inputs": [
        {
          "indexed": false,
          "internalType": "address",
          "name": "newStrategy",
          "type": "address"
        }
      ],
      "name": "StrategyMigrated",
      "type": "event"
    },
    {
      "anonymous": false,
      "inputs": [
        {
          "indexed": false,
          "internalType": "uint256",
          "name": "profit",
          "type": "uint256"
        },
        {
          "indexed": false,
          "internalType": "uint256",
          "name": "loss",
          "type": "uint256"
        },
        {
          "indexed": false,
          "internalType": "uint256",
          "name": "debtPayment",
          "type": "uint256"
        },
        {
          "indexed": false,
          "internalType": "uint256",
          "name": "giveToStrategy",
          "type": "uint256"
        },
        {
          "indexed": false,
          "internalType": "uint256",
          "name": "requestFromStrategy",
          "type": "uint256"
        },
        {
          "indexed": false,
          "internalType": "uint256",
          "name": "creditAvailable",
          "type": "uint256"
        },
        {
          "indexed": false,
          "internalType": "uint256",
          "name": "totalAssets",
          "type": "uint256"
        }
      ],
      "name": "StrategyReported",
      "type": "event"
    },
    {
      "inputs": [],
      "name": "DEFAULT_PAYLOAD_SIZE_LIMIT",
      "outputs": [
        {
          "internalType": "uint256",
          "name": "",
          "type": "uint256"
        }
      ],
      "stateMutability": "view",
      "type": "function"
    },
    {
      "inputs": [],
      "name": "DEFAULT_SLIPPAGE",
      "outputs": [
        {
          "internalType": "uint256",
          "name": "",
          "type": "uint256"
        }
      ],
      "stateMutability": "view",
      "type": "function"
    },
    {
      "inputs": [
        {
          "internalType": "uint256",
          "name": "_debtOutstanding",
          "type": "uint256"
        }
      ],
      "name": "adjustPosition",
      "outputs": [],
      "stateMutability": "nonpayable",
      "type": "function"
    },
    {
      "inputs": [],
      "name": "balanceOfWant",
      "outputs": [
        {
          "internalType": "uint256",
          "name": "",
          "type": "uint256"
        }
      ],
      "stateMutability": "view",
      "type": "function"
    },
    {
      "inputs": [
        {
          "internalType": "uint256",
          "name": "epoch",
          "type": "uint256"
        }
      ],
      "name": "callMe",
      "outputs": [],
      "stateMutability": "nonpayable",
      "type": "function"
    },
    {
      "inputs": [],
      "name": "clearWant",
      "outputs": [],
      "stateMutability": "nonpayable",
      "type": "function"
    },
    {
      "inputs": [],
      "name": "currentChainId",
      "outputs": [
        {
          "internalType": "uint16",
          "name": "",
          "type": "uint16"
        }
      ],
      "stateMutability": "view",
      "type": "function"
    },
    {
      "inputs": [],
      "name": "emergencyExit",
      "outputs": [
        {
          "internalType": "bool",
          "name": "",
          "type": "bool"
        }
      ],
      "stateMutability": "view",
      "type": "function"
    },
    {
      "inputs": [],
      "name": "estimatedTotalAssets",
      "outputs": [
        {
          "internalType": "uint256",
          "name": "",
          "type": "uint256"
        }
      ],
      "stateMutability": "view",
      "type": "function"
    },
    {
      "inputs": [
        {
          "internalType": "uint16",
          "name": "",
          "type": "uint16"
        },
        {
          "internalType": "bytes",
          "name": "",
          "type": "bytes"
        },
        {
          "internalType": "uint64",
          "name": "",
          "type": "uint64"
        }
      ],
      "name": "failedMessages",
      "outputs": [
        {
          "internalType": "bytes32",
          "name": "",
          "type": "bytes32"
        }
      ],
      "stateMutability": "view",
      "type": "function"
    },
    {
      "inputs": [
        {
          "internalType": "uint16",
          "name": "_srcChainId",
          "type": "uint16"
        },
        {
          "internalType": "bytes",
          "name": "_srcAddress",
          "type": "bytes"
        }
      ],
      "name": "forceResumeReceive",
      "outputs": [],
      "stateMutability": "nonpayable",
      "type": "function"
    },
    {
      "inputs": [
        {
          "internalType": "uint16",
          "name": "_version",
          "type": "uint16"
        },
        {
          "internalType": "uint16",
          "name": "_chainId",
          "type": "uint16"
        },
        {
          "internalType": "address",
          "name": "",
          "type": "address"
        },
        {
          "internalType": "uint256",
          "name": "_configType",
          "type": "uint256"
        }
      ],
      "name": "getConfig",
      "outputs": [
        {
          "internalType": "bytes",
          "name": "",
          "type": "bytes"
        }
      ],
      "stateMutability": "view",
      "type": "function"
    },
    {
      "inputs": [
        {
          "internalType": "bytes32",
          "name": "_messageHash",
          "type": "bytes32"
        }
      ],
      "name": "getEthSignedMessageHash",
      "outputs": [
        {
          "internalType": "bytes32",
          "name": "",
          "type": "bytes32"
        }
      ],
      "stateMutability": "pure",
      "type": "function"
    },
    {
      "inputs": [
        {
          "internalType": "uint16",
          "name": "_remoteChainId",
          "type": "uint16"
        }
      ],
      "name": "getTrustedRemoteAddress",
      "outputs": [
        {
          "internalType": "bytes",
          "name": "",
          "type": "bytes"
        }
      ],
      "stateMutability": "view",
      "type": "function"
    },
    {
      "inputs": [
        {
          "internalType": "uint256",
          "name": "_totalDebt",
          "type": "uint256"
        },
        {
          "internalType": "uint256",
          "name": "_debtOutstanding",
          "type": "uint256"
        },
        {
          "internalType": "uint256",
          "name": "_creditAvailable",
          "type": "uint256"
        },
        {
          "internalType": "uint256",
          "name": "_debtRatio",
          "type": "uint256"
        },
        {
          "internalType": "bytes",
          "name": "_signature",
          "type": "bytes"
        }
      ],
      "name": "harvest",
      "outputs": [],
      "stateMutability": "nonpayable",
      "type": "function"
    },
    {
      "inputs": [
        {
          "internalType": "address",
          "name": "_lzEndpoint",
          "type": "address"
        },
        {
          "internalType": "address",
          "name": "_strategist",
          "type": "address"
        },
        {
          "internalType": "contract IERC20",
          "name": "_want",
          "type": "address"
        },
        {
          "internalType": "address",
          "name": "_vault",
          "type": "address"
        },
        {
          "internalType": "uint16",
          "name": "_vaultChainId",
          "type": "uint16"
        },
        {
          "internalType": "uint16",
          "name": "_currentChainId",
          "type": "uint16"
        },
        {
          "internalType": "address",
          "name": "_sgBridge",
          "type": "address"
        },
        {
          "internalType": "address",
          "name": "_router",
          "type": "address"
        }
      ],
      "name": "initialize",
      "outputs": [],
      "stateMutability": "nonpayable",
      "type": "function"
    },
    {
      "inputs": [
        {
          "internalType": "uint16",
          "name": "_srcChainId",
          "type": "uint16"
        },
        {
          "internalType": "bytes",
          "name": "_srcAddress",
          "type": "bytes"
        }
      ],
      "name": "isTrustedRemote",
      "outputs": [
        {
          "internalType": "bool",
          "name": "",
          "type": "bool"
        }
      ],
      "stateMutability": "view",
      "type": "function"
    },
    {
      "inputs": [],
      "name": "lzEndpoint",
      "outputs": [
        {
          "internalType": "contract ILayerZeroEndpointUpgradeable",
          "name": "",
          "type": "address"
        }
      ],
      "stateMutability": "view",
      "type": "function"
    },
    {
      "inputs": [
        {
          "internalType": "uint16",
          "name": "_srcChainId",
          "type": "uint16"
        },
        {
          "internalType": "bytes",
          "name": "_srcAddress",
          "type": "bytes"
        },
        {
          "internalType": "uint64",
          "name": "_nonce",
          "type": "uint64"
        },
        {
          "internalType": "bytes",
          "name": "_payload",
          "type": "bytes"
        }
      ],
      "name": "lzReceive",
      "outputs": [],
      "stateMutability": "nonpayable",
      "type": "function"
    },
    {
      "inputs": [
        {
          "internalType": "uint16",
          "name": "",
          "type": "uint16"
        },
        {
          "internalType": "uint16",
          "name": "",
          "type": "uint16"
        }
      ],
      "name": "minDstGasLookup",
      "outputs": [
        {
          "internalType": "uint256",
          "name": "",
          "type": "uint256"
        }
      ],
      "stateMutability": "view",
      "type": "function"
    },
    {
      "inputs": [],
      "name": "name",
      "outputs": [
        {
          "internalType": "string",
          "name": "",
          "type": "string"
        }
      ],
      "stateMutability": "pure",
      "type": "function"
    },
    {
      "inputs": [
        {
          "internalType": "uint16",
          "name": "_srcChainId",
          "type": "uint16"
        },
        {
          "internalType": "bytes",
          "name": "_srcAddress",
          "type": "bytes"
        },
        {
          "internalType": "uint64",
          "name": "_nonce",
          "type": "uint64"
        },
        {
          "internalType": "bytes",
          "name": "_payload",
          "type": "bytes"
        }
      ],
      "name": "nonblockingLzReceive",
      "outputs": [],
      "stateMutability": "nonpayable",
      "type": "function"
    },
    {
      "inputs": [],
      "name": "owner",
      "outputs": [
        {
          "internalType": "address",
          "name": "",
          "type": "address"
        }
      ],
      "stateMutability": "view",
      "type": "function"
    },
    {
      "inputs": [
        {
          "internalType": "uint16",
          "name": "",
          "type": "uint16"
        }
      ],
      "name": "payloadSizeLimitLookup",
      "outputs": [
        {
          "internalType": "uint256",
          "name": "",
          "type": "uint256"
        }
      ],
      "stateMutability": "view",
      "type": "function"
    },
    {
      "inputs": [],
      "name": "precrime",
      "outputs": [
        {
          "internalType": "address",
          "name": "",
          "type": "address"
        }
      ],
      "stateMutability": "view",
      "type": "function"
    },
    {
      "inputs": [],
      "name": "renounceOwnership",
      "outputs": [],
      "stateMutability": "nonpayable",
      "type": "function"
    },
    {
      "inputs": [
        {
          "internalType": "uint16",
          "name": "_srcChainId",
          "type": "uint16"
        },
        {
          "internalType": "bytes",
          "name": "_srcAddress",
          "type": "bytes"
        },
        {
          "internalType": "uint64",
          "name": "_nonce",
          "type": "uint64"
        },
        {
          "internalType": "bytes",
          "name": "_payload",
          "type": "bytes"
        }
      ],
      "name": "retryMessage",
      "outputs": [],
      "stateMutability": "payable",
      "type": "function"
    },
    {
      "inputs": [],
      "name": "revokeFunds",
      "outputs": [],
      "stateMutability": "nonpayable",
      "type": "function"
    },
    {
      "inputs": [
        {
          "internalType": "uint16",
          "name": "_version",
          "type": "uint16"
        },
        {
          "internalType": "uint16",
          "name": "_chainId",
          "type": "uint16"
        },
        {
          "internalType": "uint256",
          "name": "_configType",
          "type": "uint256"
        },
        {
          "internalType": "bytes",
          "name": "_config",
          "type": "bytes"
        }
      ],
      "name": "setConfig",
      "outputs": [],
      "stateMutability": "nonpayable",
      "type": "function"
    },
    {
      "inputs": [
        {
          "internalType": "bool",
          "name": "_emergencyExit",
          "type": "bool"
        }
      ],
      "name": "setEmergencyExit",
      "outputs": [],
      "stateMutability": "nonpayable",
      "type": "function"
    },
    {
      "inputs": [
        {
          "internalType": "uint16",
          "name": "_dstChainId",
          "type": "uint16"
        },
        {
          "internalType": "uint16",
          "name": "_packetType",
          "type": "uint16"
        },
        {
          "internalType": "uint256",
          "name": "_minGas",
          "type": "uint256"
        }
      ],
      "name": "setMinDstGas",
      "outputs": [],
      "stateMutability": "nonpayable",
      "type": "function"
    },
    {
      "inputs": [
        {
          "internalType": "uint16",
          "name": "_dstChainId",
          "type": "uint16"
        },
        {
          "internalType": "uint256",
          "name": "_size",
          "type": "uint256"
        }
      ],
      "name": "setPayloadSizeLimit",
      "outputs": [],
      "stateMutability": "nonpayable",
      "type": "function"
    },
    {
      "inputs": [
        {
          "internalType": "address",
          "name": "_precrime",
          "type": "address"
        }
      ],
      "name": "setPrecrime",
      "outputs": [],
      "stateMutability": "nonpayable",
      "type": "function"
    },
    {
      "inputs": [
        {
          "internalType": "uint16",
          "name": "_version",
          "type": "uint16"
        }
      ],
      "name": "setReceiveVersion",
      "outputs": [],
      "stateMutability": "nonpayable",
      "type": "function"
    },
    {
      "inputs": [
        {
          "internalType": "uint16",
          "name": "_version",
          "type": "uint16"
        }
      ],
      "name": "setSendVersion",
      "outputs": [],
      "stateMutability": "nonpayable",
      "type": "function"
    },
    {
      "inputs": [
        {
          "internalType": "uint256",
          "name": "_slippage",
          "type": "uint256"
        }
      ],
      "name": "setSlippage",
      "outputs": [],
      "stateMutability": "nonpayable",
      "type": "function"
    },
    {
      "inputs": [
        {
          "internalType": "address",
          "name": "_strategist",
          "type": "address"
        }
      ],
      "name": "setStrategist",
      "outputs": [],
      "stateMutability": "nonpayable",
      "type": "function"
    },
    {
      "inputs": [
        {
          "internalType": "uint16",
          "name": "_srcChainId",
          "type": "uint16"
        },
        {
          "internalType": "bytes",
          "name": "_path",
          "type": "bytes"
        }
      ],
      "name": "setTrustedRemote",
      "outputs": [],
      "stateMutability": "nonpayable",
      "type": "function"
    },
    {
      "inputs": [
        {
          "internalType": "uint16",
          "name": "_remoteChainId",
          "type": "uint16"
        },
        {
          "internalType": "bytes",
          "name": "_remoteAddress",
          "type": "bytes"
        }
      ],
      "name": "setTrustedRemoteAddress",
      "outputs": [],
      "stateMutability": "nonpayable",
      "type": "function"
    },
    {
      "inputs": [],
      "name": "sgBridge",
      "outputs": [
        {
          "internalType": "contract ISgBridge",
          "name": "",
          "type": "address"
        }
      ],
      "stateMutability": "view",
      "type": "function"
    },
    {
      "inputs": [
        {
          "internalType": "uint16",
          "name": "",
          "type": "uint16"
        },
        {
          "internalType": "bytes",
          "name": "_srcAddress",
          "type": "bytes"
        },
        {
          "internalType": "uint256",
          "name": "",
          "type": "uint256"
        },
        {
          "internalType": "address",
          "name": "_token",
          "type": "address"
        },
        {
          "internalType": "uint256",
          "name": "_amountLD",
          "type": "uint256"
        },
        {
          "internalType": "bytes",
          "name": "",
          "type": "bytes"
        }
      ],
      "name": "sgReceive",
      "outputs": [],
      "stateMutability": "nonpayable",
      "type": "function"
    },
    {
      "inputs": [],
      "name": "sgRouter",
      "outputs": [
        {
          "internalType": "contract IStargateRouter",
          "name": "",
          "type": "address"
        }
      ],
      "stateMutability": "view",
      "type": "function"
    },
    {
      "inputs": [],
      "name": "slippage",
      "outputs": [
        {
          "internalType": "uint256",
          "name": "",
          "type": "uint256"
        }
      ],
      "stateMutability": "view",
      "type": "function"
    },
    {
      "inputs": [],
      "name": "strategist",
      "outputs": [
        {
          "internalType": "address",
          "name": "",
          "type": "address"
        }
      ],
      "stateMutability": "view",
      "type": "function"
    },
    {
      "inputs": [],
      "name": "strategistSignMessageHash",
      "outputs": [
        {
          "internalType": "bytes32",
          "name": "",
          "type": "bytes32"
        }
      ],
      "stateMutability": "view",
      "type": "function"
    },
    {
      "inputs": [
        {
          "internalType": "contract IERC20",
          "name": "_token",
          "type": "address"
        }
      ],
      "name": "sweepToken",
      "outputs": [],
      "stateMutability": "nonpayable",
      "type": "function"
    },
    {
      "inputs": [
        {
          "internalType": "address",
          "name": "newOwner",
          "type": "address"
        }
      ],
      "name": "transferOwnership",
      "outputs": [],
      "stateMutability": "nonpayable",
      "type": "function"
    },
    {
      "inputs": [
        {
          "internalType": "uint16",
          "name": "",
          "type": "uint16"
        }
      ],
      "name": "trustedRemoteLookup",
      "outputs": [
        {
          "internalType": "bytes",
          "name": "",
          "type": "bytes"
        }
      ],
      "stateMutability": "view",
      "type": "function"
    },
    {
      "inputs": [],
      "name": "vault",
      "outputs": [
        {
          "internalType": "address",
          "name": "",
          "type": "address"
        }
      ],
      "stateMutability": "view",
      "type": "function"
    },
    {
      "inputs": [],
      "name": "vaultChainId",
      "outputs": [
        {
          "internalType": "uint16",
          "name": "",
          "type": "uint16"
        }
      ],
      "stateMutability": "view",
      "type": "function"
    },
    {
      "inputs": [],
      "name": "want",
      "outputs": [
        {
          "internalType": "contract IERC20",
          "name": "",
          "type": "address"
        }
      ],
      "stateMutability": "view",
      "type": "function"
    },
    {
      "inputs": [],
      "name": "wantDecimals",
      "outputs": [
        {
          "internalType": "uint8",
          "name": "",
          "type": "uint8"
        }
      ],
      "stateMutability": "view",
      "type": "function"
    },
    {
      "stateMutability": "payable",
      "type": "receive"
    }
  ],
  "bytecode": "0x60808060405234610016576153da908161001c8239f35b600080fdfe6080604052600436101561001b575b361561001957600080fd5b005b60003560e01c80621d35671461035a5780630517cb761461035557806306fdde031461035057806307e0db171461034b5780630df374831461034657806310ddb137146103415780631be195601461033c5780631cdb539f146103375780631f1fcd51146103325780631fe4a6861461032d5780632d6068431461032857806337fded91146103235780633d3ccc2f1461031e5780633d8b38f6146103195780633e032a3b146103145780633f1f4fa41461030f57806342d65a8d1461030a57806345ee075514610305578063495f881e146103005780635641ec03146102fb578063567ad85d146102f6578063593178de146102f15780635b8c41e6146102ec57806366ad5c8a146102e75780636cbadbfa146102e2578063715018a6146102dd5780637533d788146102d85780638cfd8f5c146102d35780638da5cb5b146102ce578063950c8a74146102c95780639606647d146102c45780639f38369a146102bf578063a6c3d165146102ba578063a8798510146102b5578063ab8236f3146102b0578063adf076e6146102ab578063b353aaa7146102a6578063baf3292d146102a1578063c1a3d44c1461029c578063c446183414610297578063c7b9d53014610292578063cbed8b9c1461028d578063d1deba1f14610288578063df2a5b3b14610283578063e73620c31461027e578063eb8d72b714610279578063efbb5cb014610274578063f0fa55a91461026f578063f2fde38b1461026a578063f5ecbdbc14610265578063fa540801146102605763fbfa77cf0361000e57611eeb565b611ecd565b611e1a565b611d89565b611d68565b611d4d565b611c27565b611bf3565b611b0e565b6119e1565b61191b565b6118d4565b6118b7565b61189c565b61182c565b611803565b6117df565b6116b7565b61169a565b611539565b61148e565b6113e9565b6113c0565b611397565b611344565b6112fb565b6111cf565b6111aa565b611071565b610fe2565b610f91565b610f6c565b610f49565b610cd2565b610b14565b610a9f565b610a6a565b610a4c565b610a01565b610988565b61095b565b610916565b6108ed565b6108b1565b61082e565b610798565b61071f565b6106e4565b610664565b610614565b61058f565b610430565b6004359061ffff8216820361037057565b600080fd5b6024359061ffff8216820361037057565b9181601f84011215610370578235916001600160401b038311610370576020838186019501011161037057565b604435906001600160401b038216820361037057565b9060806003198301126103705760043561ffff8116810361037057916001600160401b0390602435828111610370578161040591600401610386565b93909392604435818116810361037057926064359182116103705761042c91600401610386565b9091565b346103705761043e366103c9565b60655490949293906001600160a01b031633036105275761046c92610464913691610c80565b933691610c80565b905a604051633356ae4560e11b6020820190815261ffff871660248301526080604483015294916104d6826104c86104a760a48301876105db565b6001600160401b0388166064840152828103602319016084840152886105db565b03601f198101845283610c03565b60008091604051976104e789610b97565b609689528260208a019560a036883751923090f1903d906096821161051e575b6000908288523e1561051557005b610019946127dd565b60969150610507565b60405162461bcd60e51b815260206004820152602360248201527f4261736553747261746567793a3a496e76616c6964456e64706f696e7443616c6044820152623632b960e91b6064820152608490fd5b600091031261037057565b6001600160a01b031690565b346103705760003660031901126103705760ce546040516001600160a01b039091168152602090f35b60005b8381106105cb5750506000910152565b81810151838201526020016105bb565b906020916105f4815180928185528580860191016105b8565b601f01601f1916010190565b9060206106119281815201906105db565b90565b346103705760003660031901126103705761066060405161063481610bb2565b600b81526a486f70537472617465677960a81b60208201526040519182916020835260208301906105db565b0390f35b3461037057600060203660031901126106e15761067f61035f565b61068761223a565b6065546001600160a01b0316908290823b156106dd57602461ffff918360405195869485936307e0db1760e01b85521660048401525af180156106d8576106cc575080f35b6106d590610b64565b80f35b611f72565b5080fd5b80fd5b346103705760403660031901126103705761ffff61070061035f565b61070861223a565b166000526068602052602435604060002055600080f35b3461037057600060203660031901126106e15761073a61035f565b61074261223a565b6065546001600160a01b0316908290823b156106dd57602461ffff918360405195869485936310ddb13760e01b85521660048401525af180156106d8576106cc575080f35b6001600160a01b0381160361037057565b34610370576020366003190112610370576004356107b581610787565b6107bd612ad5565b6040516370a0823160e01b8152306004820152906020826024816001600160a01b0385165afa9081156106d857610019926000926107fe575b50339061234d565b61082091925060203d8111610827575b6108188183610c03565b8101906122c9565b90386107f6565b503d61080e565b34610370576101003660031901126103705760043561084c81610787565b6024359061085982610787565b6044359161086683610787565b60643561087281610787565b60843561ffff9182821682036103705760a4359283168303610370576100199560c4359461089f86610787565b60e435966108ac88610787565b613334565b346103705760003660031901126103705760ca546040516001600160a01b039091168152602090f35b6001600160a01b03909116815260200190565b346103705760003660031901126103705760c9546040516001600160a01b039091168152602090f35b34610370576000806003193601126106e157610930612ad5565b8080808060018060a01b0360c954164790828215610952575bf1156106d85780f35b506108fc610949565b346103705760003660031901126103705760cd5460405160089190911c6001600160a01b03168152602090f35b346103705760203660031901126103705760008051602061538583398151915260206004356109b5612ad5565b6109be81613c65565b604051908152a1005b9060406003198301126103705760043561ffff811681036103705791602435906001600160401b0382116103705761042c91600401610386565b3461037057602061ffff610a3d610a17366109c7565b9390911660005260668452610a2f6040600020611255565b848151910120923691610c80565b82815191012014604051908152f35b3461037057600036600319011261037057602060cc54604051908152f35b346103705760203660031901126103705761ffff610a8661035f565b1660005260686020526020604060002054604051908152f35b3461037057610aad366109c7565b610ab892919261223a565b6065546000938492916001600160a01b031690813b15610b065783610af495604051968795869485936342d65a8d60e01b855260048501611f9f565b03925af180156106d8576106cc575080f35b8380fd5b8015150361037057565b3461037057602036600319011261037057600435610b3181610b0a565b610b39612ad5565b60ff801960cd5416911515161760cd55600080f35b634e487b7160e01b600052604160045260246000fd5b6001600160401b038111610b7757604052565b610b4e565b602081019081106001600160401b03821117610b7757604052565b60c081019081106001600160401b03821117610b7757604052565b604081019081106001600160401b03821117610b7757604052565b606081019081106001600160401b03821117610b7757604052565b608081019081106001600160401b03821117610b7757604052565b601f909101601f19168101906001600160401b03821190821017610b7757604052565b6040519061016082016001600160401b03811183821017610b7757604052565b60405190608082016001600160401b03811183821017610b7757604052565b6001600160401b038111610b7757601f01601f191660200190565b929192610c8c82610c65565b91610c9a6040519384610c03565b829481845281830111610370578281602093846000960137010152565b9080601f830112156103705781602061061193359101610c80565b346103705760a0366003190112610370576084356044356024356001600160401b03831161037057610d297fb983e09c034e9c52b5e547cb0589967992b97717733f580cc5ad0afcdc4b522b933690600401610cb7565b90610d32612ad5565b610d3b8261288e565b60008092610d4b60cd5460ff1690565b15610f2e57610d5c60643515612693565b610d64613f3d565b9383851015610efc5750610d86610d7f8495610eb395612024565b8095612024565b945b610d9286846120e5565b600082821015610eea5750610da79082612024565b926000905b610dbd82610db8613add565b612024565b9360d05492610dd3610dce856126df565b60d055565b610ddb610c26565b308152914260208401526040830193845260608301998a52608083019a8b5260a0830197885260c0830182815260e0840196875261010084019788526101208401959095526101408301528015610eb857610e7091610e4a91610e5860cb54926040519485916020830161270e565b03601f198101855284610c03565b6001600160a01b0382169160a01c61ffff169061308d565b51955196519351905191519251936040519788978893909796959260c0959260e08601998652602086015260408501526060840152608083015260a08201520152565b0390a1005b50610ed2610ee0610ee5926040519283916020830161270e565b03601f198101835282610c03565b613203565b610e70565b82610ef6919592612024565b90610dac565b8385610eb395839711610f15575b5090610d8691612024565b81610d8693929550610f2691612024565b939091610f0a565b925050610f40610eb391600435612b2d565b94909390610d88565b3461037057600036600319011261037057602060ff60cd54166040519015158152f35b3461037057600036600319011261037057602061ffff60cb5460a01c16604051908152f35b34610370576000366003190112610370576020610fac61265c565b604051908152f35b90610fc7602092828151948592016105b8565b0190565b9060018060401b0316600052602052604060002090565b3461037057606036600319011261037057610ffb61035f565b6024356001600160401b03811161037057610660916110526020611026611060943690600401610cb7565b61ffff6110316103b3565b941660005260978252604060002082604051948386809551938492016105b8565b820190815203019020610fcb565b546040519081529081906020820190565b346103705761107f366103c9565b9392909150303303611156576110a29261109a913691610c80565b923691610c80565b9060cb549261ffff808560a01c1691160361110657610019926110ee6110e8610ed26110e36110d36111019661216f565b6040519283916020830190610fb4565b6127a8565b60601c90565b6001600160a01b03908116911614612c10565b612d68565b60405162461bcd60e51b815260206004820152602260248201527f4261736553747261746567793a3a5661756c74436861696e49644d69736d61746044820152610c6d60f31b6064820152608490fd5b60405162461bcd60e51b815260206004820152602660248201527f4e6f6e626c6f636b696e674c7a4170703a2063616c6c6572206d7573742062656044820152650204c7a4170760d41b6064820152608490fd5b3461037057600036600319011261037057602061ffff60cb5460b01c16604051908152f35b34610370576000806003193601126106e1576111e961223a565b603380546001600160a01b0319811690915581906001600160a01b03166000805160206153258339815191528280a380f35b90600182811c9216801561124b575b602083101461123557565b634e487b7160e01b600052602260045260246000fd5b91607f169161122a565b90604051918260008254926112698461121b565b9081845260019485811690816000146112d85750600114611295575b505061129392500383610c03565b565b9093915060005260209081600020936000915b8183106112c057505061129393508201013880611285565b855488840185015294850194879450918301916112a8565b91505061129394506020925060ff191682840152151560051b8201013880611285565b346103705760203660031901126103705761ffff61131761035f565b1660005260666020526106606113306040600020611255565b6040519182916020835260208301906105db565b3461037057604036600319011261037057602061138e61136261035f565b61ffff61136d610375565b91166000526067835260406000209061ffff16600052602052604060002090565b54604051908152f35b34610370576000366003190112610370576033546040516001600160a01b039091168152602090f35b34610370576000366003190112610370576069546040516001600160a01b039091168152602090f35b34610370576000806003193601126106e157611403612ad5565b60ca546040516370a0823160e01b8152306004820152906001600160a01b0316602082602481845afa9081156106d8576106d592849261146e575b506040519163a9059cbb60e01b60208401526001602484015260448301526044825261146982610be8565b6124a0565b61148791925060203d8111610827576108188183610c03565b903861143e565b346103705760203660031901126103705761ffff6114aa61035f565b1660005260666020526114c06040600020611255565b8051156114f45780516013198101919082116114ef57610660916114e3916121ba565b60405191829182610600565b61200e565b60405162461bcd60e51b815260206004820152601d60248201527f4c7a4170703a206e6f20747275737465642070617468207265636f72640000006044820152606490fd5b3461037057611547366109c7565b919061155161223a565b60405191602084838286013761157c6034858781013060601b85820152036014810187520185610c03565b61ffff821660009081526066825260408120855191959092906001600160401b038311610b77576115b7836115b1865461121b565b86611fba565b81601f84116001146116165750918061160594928899946000805160206152e5833981519152999261160b575b50508160011b916000199060031b1c19161790555b60405193849384611f9f565b0390a180f35b0151905038806115e4565b9190601f19841661162c86600052602060002090565b9389905b8282106116825750509260019285926000805160206152e58339815191529a9b96611605989610611669575b505050811b0190556115f9565b015160001960f88460031b161c1916905538808061165c565b80600186978294978701518155019601940190611630565b346103705760003660031901126103705760206040516126488152f35b346103705760c0366003190112610370576116d061035f565b506001600160401b03602435818111610370576116f1903690600401610cb7565b606435916116fe83610787565b60a43590811161037057611716903690600401610cb7565b5060ce546001600160a01b03908116331480156117cf575b1561178b576117696110e8610ed26110e36110d37f92073a89a07a000083eb8b2575fc15e7bb936efe55d00727d6942a796d7211a79661216f565b6040805160843581526001600160a01b039290921660208301529190931692a2005b60405162461bcd60e51b815260206004820152601c60248201527b53674272696467653a3a526f757465724f724272696467654f6e6c7960201b6044820152606490fd5b508060cd5460081c16331461172e565b3461037057600036600319011261037057602060ff60cb5460c01c16604051908152f35b34610370576000366003190112610370576065546040516001600160a01b039091168152602090f35b34610370576020366003190112610370577f5db758e995a17ec1ad84bdef7e8c3293a0bd6179bcce400dff5d4c3d87db726b602060043561186c81610787565b61187461223a565b606980546001600160a01b0319166001600160a01b03929092169182179055604051908152a1005b34610370576000366003190112610370576020610fac6122d8565b346103705760003660031901126103705760206040516127108152f35b34610370576020366003190112610370576004356118f181610787565b6118f961223a565b60c980546001600160a01b0319166001600160a01b0392909216919091179055005b346103705760803660031901126103705761193461035f565b61193c610375565b6064356001600160401b0381116103705761195b903690600401610386565b909261196561223a565b6065546001600160a01b031690813b1561037057600080946119be604051978896879586946332fb62e760e21b865261ffff80921660048701521660248501526044356044850152608060648501526084840191611f7e565b03925af180156106d8576119ce57005b806119db61001992610b64565b80610578565b6119ea366103c9565b9161ffff86949296166000526097602052611a1e81604060002060206040518092878b833787820190815203019020610fcb565b54918215611abd57611ab184611aaa7fc264d91f3adc5588250e1551f547752ca0cfa8f6b530d243b9f9f4cab10ea8e5996000611a9e87611a998d89611a938f610eb39f8f611a72611a7f9236908d610c80565b602081519101201461204a565b61ffff166000526097602052604060002090565b91612031565b610fcb565b5561109a36868c610c80565b9087612c67565b604051958695866120a0565b60405162461bcd60e51b815260206004820152602360248201527f4e6f6e626c6f636b696e674c7a4170703a206e6f2073746f726564206d65737360448201526261676560e81b6064820152608490fd5b3461037057606036600319011261037057611b2761035f565b611b2f610375565b60443591611b3b61223a565b8215611bb657610eb37f9d5c7c0b934da8fefa9c7760c98383778a12dfbfc0c3b3106518f43fb9508ac09361ffff8316600052606760205280611b908560406000209061ffff16600052602052604060002090565b556040519384938460409194939294606082019561ffff80921683521660208201520152565b60405162461bcd60e51b81526020600482015260156024820152744c7a4170703a20696e76616c6964206d696e47617360581b6044820152606490fd5b3461037057602036600319011261037057611c0c61223a565b600435600090815260cf60205260409020805460ff19169055005b3461037057611c35366109c7565b9190611c3f61223a565b60009161ffff81168352602060668152604084209060018060401b038611610b7757611c7586611c6f845461121b565b84611fba565b8490601f8711600114611ccb575094611605918186976000805160206153658339815191529791611cc0575b508260011b906000198460031b1c191617905560405193849384611f9f565b905085013538611ca1565b90601f198716611ce084600052602060002090565b9287905b828210611d355750509161160593918860008051602061536583398151915298999410611d1b575b5050600182811b0190556115f9565b860135600019600385901b60f8161c191690553880611d0c565b80600185968294968b01358155019501930190611ce4565b34610370576000366003190112610370576020610fac613add565b3461037057602036600319011261037057611d81612ad5565b60043560cc55005b3461037057602036600319011261037057600435611da681610787565b611dae61223a565b6001600160a01b03811615611dc65761001990612292565b60405162461bcd60e51b815260206004820152602660248201527f4f776e61626c653a206e6577206f776e657220697320746865207a65726f206160448201526564647265737360d01b6064820152608490fd5b3461037057608036600319011261037057611e3361035f565b6000611e3d610375565b91611e49604435610787565b606554604051633d7b2f6f60e21b815261ffff92831660048201529390911660248401523060448401526064803590840152829060849082906001600160a01b03165afa80156106d85761066091600091611eac575b5060405191829182610600565b611ec7913d8091833e611ebf8183610c03565b810190611f14565b38611e9f565b34610370576020366003190112610370576020610fac60043561261a565b346103705760003660031901126103705760cb546040516001600160a01b039091168152602090f35b602081830312610370578051906001600160401b038211610370570181601f82011215610370578051611f4681610c65565b92611f546040519485610c03565b818452602082840101116103705761061191602080850191016105b8565b6040513d6000823e3d90fd5b908060209392818452848401376000828201840152601f01601f1916010190565b60409061ffff61061195931681528160208201520191611f7e565b90601f8111611fc857505050565b600091825260208220906020601f850160051c83019410612004575b601f0160051c01915b828110611ff957505050565b818155600101611fed565b9092508290611fe4565b634e487b7160e01b600052601160045260246000fd5b919082039182116114ef57565b6020919283604051948593843782019081520301902090565b1561205157565b60405162461bcd60e51b815260206004820152602160248201527f4e6f6e626c6f636b696e674c7a4170703a20696e76616c6964207061796c6f616044820152601960fa1b6064820152608490fd5b9160609361ffff6120c39398979698168452608060208501526080840191611f7e565b6001600160401b0390951660408201520152565b90601f82018092116114ef57565b919082018092116114ef57565b156120f957565b60405162461bcd60e51b815260206004820152600e60248201526d736c6963655f6f766572666c6f7760901b6044820152606490fd5b1561213657565b60405162461bcd60e51b8152602060048201526011602482015270736c6963655f6f75744f66426f756e647360781b6044820152606490fd5b61217d60148251101561212f565b6040519060148083019101602883015b8083106121a757505060148252601f01601f191660405290565b909182518152602080910192019061218d565b6121ce826121c7816120d7565b10156120f2565b6121db828251101561212f565b816121f3575050604051600081526020810160405290565b60405191601f811691821560051b808486010193838501920101905b8084106122275750508252601f01601f191660405290565b909283518152602080910193019061220f565b6033546001600160a01b0316330361224e57565b606460405162461bcd60e51b815260206004820152602060248201527f4f776e61626c653a2063616c6c6572206973206e6f7420746865206f776e65726044820152fd5b603380546001600160a01b039283166001600160a01b031982168117909255909116600080516020615325833981519152600080a3565b90816020910312610370575190565b60ca546040516370a0823160e01b815230600482015290602090829060249082906001600160a01b03165afa9081156106d857600091612316575090565b610611915060203d8111610827576108188183610c03565b6000805160206153458339815191528152600019602082015260400190565b60405163a9059cbb60e01b60208201526001600160a01b0390921660248301526044808301939093529181526112939161146982610be8565b90816020910312610370575161061181610b0a565b6124106040516123aa81610bb2565b6000806020948584526000805160206153058339815191528685015285815191018273b67c014fa700e69681a673876eb8bafaa36bff715af13d15612498573d906123f482610c65565b916124026040519384610c03565b82523d60008684013e612513565b805190828215928315612480575b505050156124295750565b6084906040519062461bcd60e51b82526004820152602a60248201527f5361666545524332303a204552433230206f7065726174696f6e20646964206e6044820152691bdd081cdd58d8d9595960b21b6064820152fd5b6124909350820181019101612386565b38828161241e565b606090612513565b604051612410916001600160a01b03166124b982610bb2565b60008060209586855260008051602061530583398151915287860152868151910182855af13d1561250b573d916124ef83610c65565b926124fd6040519485610c03565b83523d60008785013e6125ea565b6060916125ea565b9091901561258957508051156125265790565b73b67c014fa700e69681a673876eb8bafaa36bff713b156125445790565b60405162461bcd60e51b815260206004820152601d60248201527f416464726573733a2063616c6c20746f206e6f6e2d636f6e74726163740000006044820152606490fd5b8151156125995750805190602001fd5b60405162461bcd60e51b81529081906125b59060048301610600565b0390fd5b9091901561258957508051156125cc5790565b73c5102fe9359fd9a28f877a67e36b0f050d81a3cc3b156125445790565b9192901561260757508151156125fe575090565b3b156125445790565b8251909150156125995750805190602001fd5b60405160208101917b0ca2ba3432b932bab69029b4b3b732b21026b2b9b9b0b3b29d05199960211b8352603c820152603c815261265681610bcd565b51902090565b60d05460cb546040519060208201923060601b8452603483015261ffff60f01b9060401b1660548201526036815261265681610bcd565b1561269a57565b60405162461bcd60e51b815260206004820152601e60248201527f4261736553747261746567793a3a44656274526174696f4e6f745a65726f00006044820152606490fd5b60001981146114ef5760010190565b600511156126f857565b634e487b7160e01b600052602160045260246000fd5b6002815260406020820181905282516001600160a01b03169082015261061191906101a0906020830151606082015260408301516080820152606083015160a0820152608083015160c082015260a083015160e082015260c0830151610100908183015260e084015190610120918284015284015190610140918284015284015193610160948584015201519261018082015201906105db565b80516020909101516001600160601b03198082169392909190601481106127ce57505050565b60140360031b82901b16169150565b919361287b7fe183f33de2837795525b4792ca4cd60535bd77c53b7e7030060bfcf5734d6b0c95612889939561ffff815160208301209616958660005260976020526128418361105260208b604060002082604051948386809551938492016105b8565b5561285e604051978897885260a0602089015260a08801906105db565b6001600160401b03909216604087015285820360608701526105db565b9083820360808501526105db565b0390a1565b6128aa6128b2916128a56128a061265c565b61261a565b612a29565b91909161290e565b60c9546001600160a01b039081169116036128c957565b60405162461bcd60e51b815260206004820152601e60248201527f4261736553747261746567793a3a496e76616c69645369676e617475726500006044820152606490fd5b612917816126ee565b8061291f5750565b612928816126ee565b600181036129705760405162461bcd60e51b815260206004820152601860248201527745434453413a20696e76616c6964207369676e617475726560401b6044820152606490fd5b612979816126ee565b600281036129c65760405162461bcd60e51b815260206004820152601f60248201527f45434453413a20696e76616c6964207369676e6174757265206c656e677468006044820152606490fd5b806129d26003926126ee565b146129d957565b60405162461bcd60e51b815260206004820152602260248201527f45434453413a20696e76616c6964207369676e6174757265202773272076616c604482015261756560f01b6064820152608490fd5b906041815114600014612a535761042c916020820151906060604084015193015160001a90612a5d565b5050600090600290565b9291906fa2a8918ca85bafe22016d0b997e4df60600160ff1b038311612ac95791608094939160ff602094604051948552168484015260408301526060820152600093849182805260015afa156106d85781516001600160a01b03811615612ac3579190565b50600190565b50505050600090600390565b60c9546001600160a01b03163303612ae957565b60405162461bcd60e51b815260206004820152601c60248201527b10985cd954dd1c985d1959de4e8e93db9b1e54dd1c985d1959da5cdd60221b6044820152606490fd5b90612b36613add565b828110612bec5791612b489192612024565b906000915b612b5f612b5a82846120e5565b613e3f565b5050612b74612b6f60ca54610583565b610583565b91602060405180946370a0823160e01b82528180612b9530600483016108da565b03915afa9283156106d857600093612bcc575b50818311612bb857505091600090565b612bc782610611939694612024565b612bfe565b612be591935060203d8111610827576108188183610c03565b9138612ba8565b612bf890600093612024565b91612b4d565b9080821015612c0b575090565b905090565b15612c1757565b60405162461bcd60e51b815260206004820152602260248201527f4261736553747261746567793a3a5661756c74416464726573734d69736d61746044820152610c6d60f31b6064820152608490fd5b919060cb549261ffff808560a01c1691160361110657611293926110ee6110e8610ed26110e36110d36111019661216f565b90816020910312610370575160058110156103705790565b809291039160408312610370576020815193601f19011261037057602060405191612cdb83610b7c565b0151612ce681610787565b815290565b809291039160608312610370576040815193601f190112610370576040805191908201906001600160401b03821183831017610b77576040918252602081015183520151602082015290565b809291039160408312610370576020815193601f19011261037057602060405191612d6183610b7c565b0151815290565b805190612d7d60208083019383010183612c99565b612d86816126ee565b60038103612dcf5750612db2600080516020615385833981519152926020836128899451010190612d37565b9050612dbe8151613c65565b516040519081529081906020820190565b612dd8816126ee565b80612df9575061129391602082612df29351010190612ceb565b9050612eb8565b80612e056004926126ee565b14612e0e575050565b612e60612e467f7c9a2d2ec51230d7dbed27f113a325b7e20aef7b049e68b2339257b5edff5bea936020846128899551010190612cb1565b9050612e5a612e558251610583565b612fb4565b51610583565b604051918291826108da565b15612e7357565b60405162461bcd60e51b815260206004820152601e60248201527f4261736553747261746567793a3a416c726561647957697468647261776e00006044820152606490fd5b612f9861129391612f62610ed2612f016020840193612efb612ef6612ef2612eeb885160005260cf602052604060002090565b5460ff1690565b1590565b612e6c565b51613e3f565b8493919351612f0e610c46565b30815291602083810187815260408086019384526060808701958652815160019481019490945295516001600160a01b03169083015251938101939093525160808301525160a082015291829060c0820190565b8115612fa55760cb54612f87926001600160a01b0382169160a01c61ffff169061308d565b5160005260cf602052604060002090565b805460ff19166001179055565b612faf9150613203565b612f87565b612fbc613f3d565b60ca546001600160a01b0391612fd5918490841661234d565b60ca5416604051916370a0823160e01b8352306004840152602083602481855afa9182156106d8576112939360009361300f575b5061234d565b61302891935060203d8111610827576108188183610c03565b9138613009565b610611939261ffff60609316825260018060a01b0316602082015281604082015201906105db565b919361ffff60a0946106119796600180881b038095168652602086015216604084015216606082015281608082015201906105db565b60cd549293926130a89060081c6001600160a01b0316610583565b90604051630dc6346160e01b8152602081806130c9888a896004850161302f565b0381865afa9081156106d857600091613134575b506130ec612b6f60ca54610583565b833b156103705761311660009660405198899788968795633920455b60e11b875260048701613057565b03925af180156106d8576131275750565b806119db61129392610b64565b61314c915060203d8111610827576108188183610c03565b386130dd565b9190826040910312610370576020825192015190565b92610611949261ffff6131969316855260018060a01b0316602085015260a0604085015260a08401906105db565b916000606082015260808184039101526105db565b926131d061061197959361ffff6131de9416865260c0602087015260c08601906105db565b9084820360408601526105db565b6001600160a01b0391821660608401529316608082015280830360a0909101526105db565b60cb54604080516001600160601b0319606084811b8216602084015230901b166034820152909161323782604881016104c8565b61ffff613248612b6f606554610583565b9160a01c1661327584613259613311565b81518093819263040a7bb160e41b83528a308860048601613168565b0381865afa9081156106d8576000916132e3575b508047106132c557613299613311565b95833b1561037057613116600096519788968795869462c5803160e81b865230923092600488016131ab565b845162fae2d560e21b81526004810191909152476024820152604490fd5b6133039150853d871161330a575b6132fb8183610c03565b810190613152565b5038613289565b503d6132f1565b604051600160f01b6020820152620f424060228201526022815261061181610bcd565b95939196949290966000549760ff8960081c16158099819a61345c575b811561343c575b50156133e05761337e9789613375600160ff196000541617600055565b6133c75761346a565b61338457565b61339461ff001960005416600055565b604051600181527f7f26b83ff96e1f2b6a682f133852f6798a09c465da95921460cefb3847402498908060208101612889565b6133db61010061ff00196000541617600055565b61346a565b60405162461bcd60e51b815260206004820152602e60248201527f496e697469616c697a61626c653a20636f6e747261637420697320616c72656160448201526d191e481a5b9a5d1a585b1a5e995960921b6064820152608490fd5b303b1591508161344e575b5038613358565b6001915060ff161438613447565b600160ff8216109150613351565b6134fb926134b861351d96936134966134da949b9a9b61349160ff60005460081c16613a0e565b613a87565b60c980546001600160a01b0319166001600160a01b0392909216919091179055565b60ca80546001600160a01b0319166001600160a01b0392909216919091179055565b60cb805461ffff60a01b191660a09290921b61ffff60a01b16919091179055565b60cb80546001600160a01b0319166001600160a01b0392909216919091179055565b61352861264860cc55565b61353c612b6f612b6f612b6f60ca54610583565b9060405193849263313ce56760e01b845283600460209788935afa9283156106d8576000946135c361365294613598899761360f958a916136bc575b5060cb805460ff60c01b191660c09290921b60ff60c01b16919091179055565b6135a2600060d055565b60cb805461ffff60b01b191660b09290921b61ffff60b01b16919091179055565b60cd8054610100600160a81b031916600885901b610100600160a81b03161790556001600160a01b039060ce8054919092166001600160a01b03166001600160a01b0319909116179055565b61361d612b6f60ca54610583565b60405163095ea7b360e01b81526001600160a01b03909216600483015260001960248301529093849283919082906044820190565b03925af180156106d85761368e575b505061366b613754565b613673613806565b61367b613886565b61129361368960ca54610583565b613996565b816136ad92903d106136b5575b6136a58183610c03565b810190612386565b503880613661565b503d61369b565b6136dc9150893d8b116136e2575b6136d48183610c03565b810190613a6e565b38613578565b503d6136ca565b156136f057565b60405162461bcd60e51b815260206004820152603660248201527f5361666545524332303a20617070726f76652066726f6d206e6f6e2d7a65726f60448201527520746f206e6f6e2d7a65726f20616c6c6f77616e636560501b6064820152608490fd5b604051636eb1769f60e11b81523060048201526000805160206152c58339815191526024820181905260208260448173b67c014fa700e69681a673876eb8bafaa36bff715afa9182156106d857611293926137b8916000916137e8575b50156136e9565b6040519063095ea7b360e01b602083015260248201526000196044820152604481526137e381610be8565b61239b565b613800915060203d8111610827576108188183610c03565b386137b1565b604051636eb1769f60e11b8152306004820152600080516020615345833981519152602482015260208160448173b67c014fa700e69681a673876eb8bafaa36bff715afa80156106d857613862916000916137e85750156136e9565b60405163095ea7b360e01b6020820152611293906137e381610ed26024820161232e565b604051636eb1769f60e11b815230600482015273e592427a0aece92de3edee1f18e0157c058615646024820181905260209173c5102fe9359fd9a28f877a67e36b0f050d81a3cc91908381604481865afa80156106d857612410936138f7600093928493849161397f5750156136e9565b604051938685019063095ea7b360e01b82526024860152821960448601526044855261392285610be8565b826040519561393087610bb2565b8887526000805160206153058339815191528988015251925af13d15613977573d9061395b82610c65565b916139696040519384610c03565b82523d60008684013e6125b9565b6060906125b9565b6138009150883d8a11610827576108188183610c03565b604051636eb1769f60e11b81523060048201526000805160206153458339815191526024820152906020826044816001600160a01b0385165afa9182156106d857611293926139ed916000916137e85750156136e9565b60405163095ea7b360e01b602082015290611469826104c86024820161232e565b15613a1557565b60405162461bcd60e51b815260206004820152602b60248201527f496e697469616c697a61626c653a20636f6e7472616374206973206e6f74206960448201526a6e697469616c697a696e6760a81b6064820152608490fd5b90816020910312610370575160ff811681036103705790565b613aa160ff60005460081c16613a9c81613a0e565b613a0e565b613aaa33612292565b613abb60ff60005460081c16613a0e565b606580546001600160a01b0319166001600160a01b0392909216919091179055565b613aed613ae861407c565b6140f3565b613af56122d8565b81018091116114ef57613b0e613b096140b8565b614148565b81018091116114ef5790565b6001600160401b038111610b775760051b60200190565b60405190613b3e82610bcd565b600282526040366020840137565b634e487b7160e01b600052603260045260246000fd5b805115613b6f5760200190565b613b4c565b805160011015613b6f5760400190565b90815180825260208080930193019160005b828110613ba4575050505090565b835185529381019392810192600101613b96565b9291613bdd604091600193848060a01b03168652606060208701526060860190613b84565b930152565b9291613bdd60409160009360018060a01b03168652606060208701526060860190613b84565b818102929181159184041417156114ef57565b634e487b7160e01b600052601260045260246000fd5b8015613c3e576000190490565b613c1b565b613c5b60409295949395606083526060830190613b84565b9460208201520152565b60cd5460ff16613c9357613c77615061565b613c7f6122d8565b90600091818111613e2e575b505080613c96575b50565b613c9e613b31565b90613ca882613b62565b526000613cb482613b74565b5260405163f9273ffb60e01b81526020919080613cd5833060048401613bb8565b039183826000805160206153458339815191529481865afa9283156106d857613d1a613d12613d3a958795600091613e11575b5060cc5490613c08565b612710900490565b6000604051809681958294634d49e87d60e01b8452429160048501613c43565b03925af180156106d857613df4575b506040516370a0823160e01b8152818180613d6730600483016108da565b038173b67c014fa700e69681a673876eb8bafaa36bff715afa9182156106d857600092613dd7575b50506000805160206152c5833981519152803b156103705760405163534a7e1d60e11b815260048101929092526000908290602490829084905af180156106d8576131275750565b613ded9250803d10610827576108188183610c03565b3880613d8f565b613e0a90823d8411610827576108188183610c03565b5038613d49565b613e289150863d8811610827576108188183610c03565b38613d08565b613e389250612024565b3880613c8b565b906000613e50612b6f60ca54610583565b9060405191826370a0823160e01b9182825260209485918180613e7630600483016108da565b03915afa9081156106d857600091613f20575b5085811015613f1757613e9f613ea49187612024565b614ea9565b82613eb3612b6f60ca54610583565b60405192835282908180613eca30600483016108da565b03915afa9283156106d857600093613ef8575b505081841115613ef35750806106119193612024565b919050565b613f0f929350803d10610827576108188183610c03565b903880613edd565b50505050600090565b613f379150843d8611610827576108188183610c03565b38613e89565b613f45615061565b613f4d61407c565b6000805160206152c583398151915290813b1561037057604051632e1a7d4d60e01b815260048101829052916000908390602490829084905af19182156106d857613fd192614069575b506040516301f1d0ab60e51b8152600481019190915260006024820181905260448201524260648201526020918290829081906084820190565b038160006000805160206153458339815191525af180156106d85761404c575b50614000612b6f60ca54610583565b8160405180926370a0823160e01b8252818061401f30600483016108da565b03915afa9182156106d85760009261403657505090565b6106119250803d10610827576108188183610c03565b61406290823d8411610827576108188183610c03565b5038613ff1565b806119db61407692610b64565b38613f97565b6040516370a0823160e01b81523060048201526020816024816000805160206152c58339815191525afa9081156106d857600091612316575090565b6040516246613160e11b81523060048201526020816024816000805160206152c58339815191525afa9081156106d857600091612316575090565b80156141425760405190630262267d60e61b82523060048301526024820152600060448201526020816064816000805160206153458339815191525afa9081156106d857600091612316575090565b50600090565b60018060a01b0360ca541661419a60009283614162613b31565b61417561416e82613b62565b6107089052565b8161417f82613b74565b526040518094819263883bdbfd60e01b8352600483016144e2565b03817344ca2be2bd6a7203ccdbb63eed8382274f737a155afa9081156106d857846142699361061196918094614293575b50506141f9816141f36141e66141ed6141e661421f96613b74565b5160060b90565b92613b62565b90614523565b9261421961420c6141ed61420c84613b74565b516001600160a01b031690565b90614548565b9160060b916107089283810560020b93600082129182614284575b505061426f575b6142599060201b600160201b600160c01b0316614576565b506001600160801b031690614592565b906142c1565b9161427c61425991614561565b929050614241565b0760060b15159050388061423a565b6141f9945061421f9250906142b9913d8091833e6142b18183610c03565b810190614445565b9390916141cb565b61430291600090816142d1613b31565b6142dd61416e82613b62565b816142e782613b74565b526040518096819263883bdbfd60e01b8352600483016144e2565b038173c31e54c7a869b9fcbecc14363cf510d1c41fa4435afa9182156106d857610611948180946143b7575b50506141f9816141f36141e66141ed6141e661434996613b74565b9160060b916107089283810560020b936000821291826143a8575b5050614393575b6143839060201b600160201b600160c01b0316614576565b506001600160801b03169061492f565b916143a061438391614561565b92905061436b565b0760060b151590503880614364565b6141f994506143499250906143d5913d8091833e6142b18183610c03565b93909161432e565b81601f82011215610370578051916143f483613b1a565b926144026040519485610c03565b808452602092838086019260051b820101928311610370578301905b82821061442c575050505090565b838091835161443a81610787565b81520191019061441e565b9190916040818403126103705780516001600160401b0393908481116103705782019381601f860112156103705784519461447f86613b1a565b9061448d6040519283610c03565b868252602096878084019160051b83010191858311610370578801905b8282106144c957505050948301519081116103705761061192016143dd565b81518060060b81036103705781529088019088016144aa565b6020908160408183019282815285518094520193019160005b828110614509575050505090565b835163ffffffff16855293810193928101926001016144fb565b600691820b910b0390667fffffffffffff198212667fffffffffffff8313176114ef57565b6001600160a01b0391821690821603919082116114ef57565b60020b627fffff1981146114ef576000190190565b6001600160c01b03168015613c3e5761070860e160a31b030490565b60020b60008112156149295780600003905b620d89e8821161491757600182161561490d576ffffcb933bd6fad37aa2d162d1a5940015b6001600160881b031691600281166148f1575b600481166148d5575b600881166148b9575b6010811661489d575b60208116614881575b60408116614865575b60809081811661484a575b610100811661482f575b6102008116614814575b61040081166147f9575b61080081166147de575b61100081166147c3575b61200081166147a8575b614000811661478d575b6180008116614772575b620100008116614757575b62020000811661473d575b620400008116614723575b6208000016614708575b506000126146fa575b63ffffffff81166146f2576000905b60201c60ff91909116016001600160a01b0316906001600160801b038083116146de576146d78361061194613c08565b9116614e33565b6146eb8361061194614d16565b9116614d5b565b6001906146a7565b61470390613c31565b614698565b6b048a170391f7dc42444e8fa26000929302901c919061468f565b6d2216e584f5fa1ea926041bedfe98909302811c92614685565b926e5d6af8dedb81196699c329225ee60402811c9261467a565b926f09aa508b5b7a84e1c677de54f3e99bc902811c9261466f565b926f31be135f97d08fd981231505542fcfa602811c92614664565b926f70d869a156d2a1b890bb3df62baf32f702811c9261465a565b926fa9f746462d870fdf8a65dc1f90e061e502811c92614650565b926fd097f3bdfd2022b8845ad8f792aa582502811c92614646565b926fe7159475a2c29b7443b29c7fa6e889d902811c9261463c565b926ff3392b0822b70005940c7a398e4b70f302811c92614632565b926ff987a7253ac413176f2b074cf7815e5402811c92614628565b926ffcbe86c7900a88aedcffc83b479aa3a402811c9261461e565b926ffe5dee046a99a2a811c461f1969c305302811c92614614565b916fff2ea16466c96a3843ec78b326b528610260801c91614609565b916fff973b41fa98c081472e6896dfb254c00260801c91614600565b916fffcb9843d60f6159c9db58835c9266440260801c916145f7565b916fffe5caca7e10e4e61c3624eaa0941cd00260801c916145ee565b916ffff2e50f5f656932ef12357cf3c7fdcc0260801c916145e5565b916ffff97272373d413259a46990580e213a0260801c916145dc565b600160801b6145c9565b6040516315e4079d60e11b8152600490fd5b806145a4565b90919060020b6000811215614d0957806000035b620d89e881116149175760ff916001821615614cff576ffffcb933bd6fad37aa2d162d1a5940015b6001600160881b03169160028116614ce3575b60048116614cc7575b60088116614cab575b60108116614c8f575b60208116614c73575b60408116614c57575b608090818116614c3c575b6101008116614c21575b6102008116614c06575b6104008116614beb575b6108008116614bd0575b6110008116614bb5575b6120008116614b9a575b6140008116614b7f575b6180008116614b64575b620100008116614b49575b620200008116614b2f575b620400008116614b15575b6208000016614afa575b50600012614aec575b63ffffffff8116614ae4576000905b6001600160801b03926001600160a01b03921660209190911c018116828111614aa85780614a7691613c08565b92167382af49447d8a07e3bd95bd0d56f35241523fbab11015614a9e57610611921690614e64565b6106119216614e33565b80614ab291614d16565b92167382af49447d8a07e3bd95bd0d56f35241523fbab11015614ada57610611921690614dee565b6106119216614d5b565b600190614a49565b614af590613c31565b614a3a565b6b048a170391f7dc42444e8fa26000929302901c9190614a31565b6d2216e584f5fa1ea926041bedfe98909302811c92614a27565b926e5d6af8dedb81196699c329225ee60402811c92614a1c565b926f09aa508b5b7a84e1c677de54f3e99bc902811c92614a11565b926f31be135f97d08fd981231505542fcfa602811c92614a06565b926f70d869a156d2a1b890bb3df62baf32f702811c926149fc565b926fa9f746462d870fdf8a65dc1f90e061e502811c926149f2565b926fd097f3bdfd2022b8845ad8f792aa582502811c926149e8565b926fe7159475a2c29b7443b29c7fa6e889d902811c926149de565b926ff3392b0822b70005940c7a398e4b70f302811c926149d4565b926ff987a7253ac413176f2b074cf7815e5402811c926149ca565b926ffcbe86c7900a88aedcffc83b479aa3a402811c926149c0565b926ffe5dee046a99a2a811c461f1969c305302811c926149b6565b916fff2ea16466c96a3843ec78b326b528610260801c916149ab565b916fff973b41fa98c081472e6896dfb254c00260801c916149a2565b916fffcb9843d60f6159c9db58835c9266440260801c91614999565b916fffe5caca7e10e4e61c3624eaa0941cd00260801c91614990565b916ffff2e50f5f656932ef12357cf3c7fdcc0260801c91614987565b916ffff97272373d413259a46990580e213a0260801c9161497e565b600160801b61496b565b80614943565b1561037057565b6000198282099082810292838084109303928084039314614d5257600160401b9183831115610370570990828211900360c01b910360401c1790565b50505060401c90565b90600160801b90600019838309928060801b92838086109503948086039514614ddb57908291614d8c868411614d0f565b0981806000031680920460028082600302188083028203028083028203028083028203028083028203028083028203028092029003029360018380600003040190848311900302920304170290565b50509150614dea821515614d0f565b0490565b6000198282099082810292838084109303928084039314614e2a57600160801b9183831115610370570990828211900360801b910360801c1790565b50505060801c90565b90600160c01b90600019838309928060c01b92838086109503948086039514614ddb57908291614d8c868411614d0f565b6000198282099082810292838084109303928084039314614ea057600160c01b9183831115610370570990828211900360401b910360c01c1790565b50505060c01c90565b8015613c935780614ebb613b096140b8565b10614ec95750611293615061565b614ed161407c565b90614edd613b096140b8565b81039081116114ef57614eef91612bfe565b614ef7615061565b614eff613b31565b9080614f0a83613b62565b5260009081614f1884613b74565b5260405163f9273ffb60e01b815280614f376020953060048401613be2565b0384826000805160206153458339815191529281845afa9182156106d8578492615042575b5081614f666122d8565b10615032575b6000805160206152c583398151915293843b156106e157604051632e1a7d4d60e01b8152600481018490529481908690602490829084905af19485156106d857613d128795614fc792614ffd98615025575060cc5490613c08565b6040516301f1d0ab60e51b8152600481019490945260006024850152604484015242606484015291938492839182906084820190565b03925af180156106d85761500f575050565b81613c9392903d10610827576108188183610c03565b806119db613e2892610b64565b905061503c6122d8565b90614f6c565b61505a919250853d8711610827576108188183610c03565b9038614f5c565b6000805160206152c5833981519152803b156103705760008091600460405180948193631e8c5c8960e11b83525af180156106d857615109575b506040516370a0823160e01b8152602081806150ba30600483016108da565b038173c5102fe9359fd9a28f877a67e36b0f050d81a3cc5afa80156106d857611293916000916150eb575b506151a2565b615103915060203d8111610827576108188183610c03565b386150e5565b806119db61511692610b64565b3861509b565b6040519060a082016001600160401b03811183821017610b77576040526000608083606081528260208201528260408201528260608201520152565b6020815260a06080615175845183602086015260c08501906105db565b93600180841b03602082015116604085015260408101516060850152606081015182850152015191015290565b8015613c9357602061528591615266613d126151bc61511c565b6040517331440bfa4d67f668a3e1de99f8dac3c1436068f360621b86820190815261017760eb1b60148201527382af49447d8a07e3bd95bd0d56f35241523fbab160601b6017820152607d60ea1b602b8201526001720d1eb3cbf69c6bd6f96b78144375982844946760631b0319602e820152919490916152419083906042016104c8565b61524a81614148565b9185523086860152426040860152606085015260cc5490613c08565b60808201526040518093819263c04b8d5960e01b835260048301615158565b0381600073e592427a0aece92de3edee1f18e0157c058615645af180156106d8576152ad5750565b613c939060203d8111610827576108188183610c0356fe000000000000000000000000b0cabfe930642ad3e7decdc741884d8c3f7ebc708c0400cfe2d1199b1a725c78960bcc2a344d869b80590d0f2bd005db15a572ce5361666545524332303a206c6f772d6c6576656c2063616c6c206661696c65648be0079c531659141344cd1fd0a4f28419497f9722a3daafe3b4186f6b6457e000000000000000000000000010541b07d8ad2647dc6cd67abd4c03575dade261fa41487ad5d6728f0b19276fa1eddc16558578f5109fc39d2dc33c3230470dabb0c58532a125fc3c0adccaef396bf65344a4d5781cec2e4c593e6b611d75f150a26469706673582212203e842dae070e15b4d66400c007dc42ce2a581bf46dd5e7bdd5e7966d6136f8a364736f6c63430008130033",
  "linkReferences": {},
  "deployedLinkReferences": {}
}