{
  "_format": "hh-sol-artifact-1",
  "contractName": "HopStrategy",
  "sourceName": "contracts/strategies/HopStrategy.sol",
  "abi": [
    {
      "inputs": [
        {
          "internalType": "uint256",
          "name": "messageType",
          "type": "uint256"
        }
      ],
      "name": "IncorrectMessageType",
      "type": "error"
    },
    {
      "inputs": [
        {
          "internalType": "uint256",
          "name": "amount",
          "type": "uint256"
        },
        {
          "internalType": "uint256",
          "name": "balance",
          "type": "uint256"
        }
      ],
      "name": "InsufficientFunds",
      "type": "error"
    },
    {
      "inputs": [],
      "name": "T",
      "type": "error"
    },
    {
      "anonymous": false,
      "inputs": [
        {
          "indexed": false,
          "internalType": "uint256",
          "name": "debtOutstanding",
          "type": "uint256"
        }
      ],
      "name": "AdjustedPosition",
      "type": "event"
    },
    {
      "anonymous": false,
      "inputs": [
        {
          "indexed": false,
          "internalType": "uint8",
          "name": "version",
          "type": "uint8"
        }
      ],
      "name": "Initialized",
      "type": "event"
    },
    {
      "anonymous": false,
      "inputs": [
        {
          "indexed": false,
          "internalType": "uint16",
          "name": "_srcChainId",
          "type": "uint16"
        },
        {
          "indexed": false,
          "internalType": "bytes",
          "name": "_srcAddress",
          "type": "bytes"
        },
        {
          "indexed": false,
          "internalType": "uint64",
          "name": "_nonce",
          "type": "uint64"
        },
        {
          "indexed": false,
          "internalType": "bytes",
          "name": "_payload",
          "type": "bytes"
        },
        {
          "indexed": false,
          "internalType": "bytes",
          "name": "_reason",
          "type": "bytes"
        }
      ],
      "name": "MessageFailed",
      "type": "event"
    },
    {
      "anonymous": false,
      "inputs": [
        {
          "indexed": true,
          "internalType": "address",
          "name": "previousOwner",
          "type": "address"
        },
        {
          "indexed": true,
          "internalType": "address",
          "name": "newOwner",
          "type": "address"
        }
      ],
      "name": "OwnershipTransferred",
      "type": "event"
    },
    {
      "anonymous": false,
      "inputs": [
        {
          "indexed": false,
          "internalType": "uint16",
          "name": "_srcChainId",
          "type": "uint16"
        },
        {
          "indexed": false,
          "internalType": "bytes",
          "name": "_srcAddress",
          "type": "bytes"
        },
        {
          "indexed": false,
          "internalType": "uint64",
          "name": "_nonce",
          "type": "uint64"
        },
        {
          "indexed": false,
          "internalType": "bytes32",
          "name": "_payloadHash",
          "type": "bytes32"
        }
      ],
      "name": "RetryMessageSuccess",
      "type": "event"
    },
    {
      "anonymous": false,
      "inputs": [
        {
          "indexed": false,
          "internalType": "uint16",
          "name": "_dstChainId",
          "type": "uint16"
        },
        {
          "indexed": false,
          "internalType": "uint16",
          "name": "_type",
          "type": "uint16"
        },
        {
          "indexed": false,
          "internalType": "uint256",
          "name": "_minDstGas",
          "type": "uint256"
        }
      ],
      "name": "SetMinDstGas",
      "type": "event"
    },
    {
      "anonymous": false,
      "inputs": [
        {
          "indexed": false,
          "internalType": "address",
          "name": "precrime",
          "type": "address"
        }
      ],
      "name": "SetPrecrime",
      "type": "event"
    },
    {
      "anonymous": false,
      "inputs": [
        {
          "indexed": false,
          "internalType": "uint16",
          "name": "_remoteChainId",
          "type": "uint16"
        },
        {
          "indexed": false,
          "internalType": "bytes",
          "name": "_path",
          "type": "bytes"
        }
      ],
      "name": "SetTrustedRemote",
      "type": "event"
    },
    {
      "anonymous": false,
      "inputs": [
        {
          "indexed": false,
          "internalType": "uint16",
          "name": "_remoteChainId",
          "type": "uint16"
        },
        {
          "indexed": false,
          "internalType": "bytes",
          "name": "_remoteAddress",
          "type": "bytes"
        }
      ],
      "name": "SetTrustedRemoteAddress",
      "type": "event"
    },
    {
      "anonymous": false,
      "inputs": [
        {
          "indexed": true,
          "internalType": "address",
          "name": "token",
          "type": "address"
        },
        {
          "indexed": false,
          "internalType": "uint256",
          "name": "amount",
          "type": "uint256"
        },
        {
          "indexed": false,
          "internalType": "address",
          "name": "sender",
          "type": "address"
        }
      ],
      "name": "SgReceived",
      "type": "event"
    },
    {
      "anonymous": false,
      "inputs": [
        {
          "indexed": false,
          "internalType": "address",
          "name": "newStrategy",
          "type": "address"
        }
      ],
      "name": "StrategyMigrated",
      "type": "event"
    },
    {
      "anonymous": false,
      "inputs": [
        {
          "indexed": false,
          "internalType": "uint256",
          "name": "profit",
          "type": "uint256"
        },
        {
          "indexed": false,
          "internalType": "uint256",
          "name": "loss",
          "type": "uint256"
        },
        {
          "indexed": false,
          "internalType": "uint256",
          "name": "debtPayment",
          "type": "uint256"
        },
        {
          "indexed": false,
          "internalType": "uint256",
          "name": "giveToStrategy",
          "type": "uint256"
        },
        {
          "indexed": false,
          "internalType": "uint256",
          "name": "requestFromStrategy",
          "type": "uint256"
        },
        {
          "indexed": false,
          "internalType": "uint256",
          "name": "creditAvailable",
          "type": "uint256"
        },
        {
          "indexed": false,
          "internalType": "uint256",
          "name": "totalAssets",
          "type": "uint256"
        }
      ],
      "name": "StrategyReported",
      "type": "event"
    },
    {
      "inputs": [],
      "name": "DEFAULT_PAYLOAD_SIZE_LIMIT",
      "outputs": [
        {
          "internalType": "uint256",
          "name": "",
          "type": "uint256"
        }
      ],
      "stateMutability": "view",
      "type": "function"
    },
    {
      "inputs": [
        {
          "internalType": "uint256",
          "name": "_debtOutstanding",
          "type": "uint256"
        }
      ],
      "name": "adjustPosition",
      "outputs": [],
      "stateMutability": "nonpayable",
      "type": "function"
    },
    {
      "inputs": [],
      "name": "balanceOfWant",
      "outputs": [
        {
          "internalType": "uint256",
          "name": "",
          "type": "uint256"
        }
      ],
      "stateMutability": "view",
      "type": "function"
    },
    {
      "inputs": [],
      "name": "callMe",
      "outputs": [],
      "stateMutability": "nonpayable",
      "type": "function"
    },
    {
      "inputs": [],
      "name": "clearWant",
      "outputs": [],
      "stateMutability": "nonpayable",
      "type": "function"
    },
    {
      "inputs": [],
      "name": "currentChainId",
      "outputs": [
        {
          "internalType": "uint16",
          "name": "",
          "type": "uint16"
        }
      ],
      "stateMutability": "view",
      "type": "function"
    },
    {
      "inputs": [],
      "name": "emergencyExit",
      "outputs": [
        {
          "internalType": "bool",
          "name": "",
          "type": "bool"
        }
      ],
      "stateMutability": "view",
      "type": "function"
    },
    {
      "inputs": [],
      "name": "estimatedTotalAssets",
      "outputs": [
        {
          "internalType": "uint256",
          "name": "",
          "type": "uint256"
        }
      ],
      "stateMutability": "view",
      "type": "function"
    },
    {
      "inputs": [
        {
          "internalType": "uint16",
          "name": "",
          "type": "uint16"
        },
        {
          "internalType": "bytes",
          "name": "",
          "type": "bytes"
        },
        {
          "internalType": "uint64",
          "name": "",
          "type": "uint64"
        }
      ],
      "name": "failedMessages",
      "outputs": [
        {
          "internalType": "bytes32",
          "name": "",
          "type": "bytes32"
        }
      ],
      "stateMutability": "view",
      "type": "function"
    },
    {
      "inputs": [
        {
          "internalType": "uint16",
          "name": "_srcChainId",
          "type": "uint16"
        },
        {
          "internalType": "bytes",
          "name": "_srcAddress",
          "type": "bytes"
        }
      ],
      "name": "forceResumeReceive",
      "outputs": [],
      "stateMutability": "nonpayable",
      "type": "function"
    },
    {
      "inputs": [
        {
          "internalType": "uint16",
          "name": "_version",
          "type": "uint16"
        },
        {
          "internalType": "uint16",
          "name": "_chainId",
          "type": "uint16"
        },
        {
          "internalType": "address",
          "name": "",
          "type": "address"
        },
        {
          "internalType": "uint256",
          "name": "_configType",
          "type": "uint256"
        }
      ],
      "name": "getConfig",
      "outputs": [
        {
          "internalType": "bytes",
          "name": "",
          "type": "bytes"
        }
      ],
      "stateMutability": "view",
      "type": "function"
    },
    {
      "inputs": [
        {
          "internalType": "bytes32",
          "name": "_messageHash",
          "type": "bytes32"
        }
      ],
      "name": "getEthSignedMessageHash",
      "outputs": [
        {
          "internalType": "bytes32",
          "name": "",
          "type": "bytes32"
        }
      ],
      "stateMutability": "pure",
      "type": "function"
    },
    {
      "inputs": [
        {
          "internalType": "uint16",
          "name": "_remoteChainId",
          "type": "uint16"
        }
      ],
      "name": "getTrustedRemoteAddress",
      "outputs": [
        {
          "internalType": "bytes",
          "name": "",
          "type": "bytes"
        }
      ],
      "stateMutability": "view",
      "type": "function"
    },
    {
      "inputs": [
        {
          "internalType": "uint256",
          "name": "_totalDebt",
          "type": "uint256"
        },
        {
          "internalType": "uint256",
          "name": "_debtOutstanding",
          "type": "uint256"
        },
        {
          "internalType": "uint256",
          "name": "_creditAvailable",
          "type": "uint256"
        },
        {
          "internalType": "uint256",
          "name": "_debtRatio",
          "type": "uint256"
        },
        {
          "internalType": "bytes",
          "name": "_signature",
          "type": "bytes"
        }
      ],
      "name": "harvest",
      "outputs": [],
      "stateMutability": "nonpayable",
      "type": "function"
    },
    {
      "inputs": [
        {
          "internalType": "address",
          "name": "_lzEndpoint",
          "type": "address"
        },
        {
          "internalType": "address",
          "name": "_strategist",
          "type": "address"
        },
        {
          "internalType": "contract IERC20",
          "name": "_want",
          "type": "address"
        },
        {
          "internalType": "address",
          "name": "_vault",
          "type": "address"
        },
        {
          "internalType": "uint16",
          "name": "_vaultChainId",
          "type": "uint16"
        },
        {
          "internalType": "address",
          "name": "_sgBridge",
          "type": "address"
        },
        {
          "internalType": "address",
          "name": "_router",
          "type": "address"
        },
        {
          "internalType": "uint256",
          "name": "_slippage",
          "type": "uint256"
        }
      ],
      "name": "initialize",
      "outputs": [],
      "stateMutability": "nonpayable",
      "type": "function"
    },
    {
      "inputs": [
        {
          "internalType": "uint16",
          "name": "_srcChainId",
          "type": "uint16"
        },
        {
          "internalType": "bytes",
          "name": "_srcAddress",
          "type": "bytes"
        }
      ],
      "name": "isTrustedRemote",
      "outputs": [
        {
          "internalType": "bool",
          "name": "",
          "type": "bool"
        }
      ],
      "stateMutability": "view",
      "type": "function"
    },
    {
      "inputs": [],
      "name": "lzEndpoint",
      "outputs": [
        {
          "internalType": "contract ILayerZeroEndpointUpgradeable",
          "name": "",
          "type": "address"
        }
      ],
      "stateMutability": "view",
      "type": "function"
    },
    {
      "inputs": [
        {
          "internalType": "uint16",
          "name": "_srcChainId",
          "type": "uint16"
        },
        {
          "internalType": "bytes",
          "name": "_srcAddress",
          "type": "bytes"
        },
        {
          "internalType": "uint64",
          "name": "_nonce",
          "type": "uint64"
        },
        {
          "internalType": "bytes",
          "name": "_payload",
          "type": "bytes"
        }
      ],
      "name": "lzReceive",
      "outputs": [],
      "stateMutability": "nonpayable",
      "type": "function"
    },
    {
      "inputs": [
        {
          "internalType": "uint16",
          "name": "",
          "type": "uint16"
        },
        {
          "internalType": "uint16",
          "name": "",
          "type": "uint16"
        }
      ],
      "name": "minDstGasLookup",
      "outputs": [
        {
          "internalType": "uint256",
          "name": "",
          "type": "uint256"
        }
      ],
      "stateMutability": "view",
      "type": "function"
    },
    {
      "inputs": [],
      "name": "name",
      "outputs": [
        {
          "internalType": "string",
          "name": "",
          "type": "string"
        }
      ],
      "stateMutability": "pure",
      "type": "function"
    },
    {
      "inputs": [
        {
          "internalType": "uint16",
          "name": "_srcChainId",
          "type": "uint16"
        },
        {
          "internalType": "bytes",
          "name": "_srcAddress",
          "type": "bytes"
        },
        {
          "internalType": "uint64",
          "name": "_nonce",
          "type": "uint64"
        },
        {
          "internalType": "bytes",
          "name": "_payload",
          "type": "bytes"
        }
      ],
      "name": "nonblockingLzReceive",
      "outputs": [],
      "stateMutability": "nonpayable",
      "type": "function"
    },
    {
      "inputs": [],
      "name": "owner",
      "outputs": [
        {
          "internalType": "address",
          "name": "",
          "type": "address"
        }
      ],
      "stateMutability": "view",
      "type": "function"
    },
    {
      "inputs": [
        {
          "internalType": "uint16",
          "name": "",
          "type": "uint16"
        }
      ],
      "name": "payloadSizeLimitLookup",
      "outputs": [
        {
          "internalType": "uint256",
          "name": "",
          "type": "uint256"
        }
      ],
      "stateMutability": "view",
      "type": "function"
    },
    {
      "inputs": [],
      "name": "precrime",
      "outputs": [
        {
          "internalType": "address",
          "name": "",
          "type": "address"
        }
      ],
      "stateMutability": "view",
      "type": "function"
    },
    {
      "inputs": [],
      "name": "renounceOwnership",
      "outputs": [],
      "stateMutability": "nonpayable",
      "type": "function"
    },
    {
      "inputs": [
        {
          "internalType": "uint16",
          "name": "_srcChainId",
          "type": "uint16"
        },
        {
          "internalType": "bytes",
          "name": "_srcAddress",
          "type": "bytes"
        },
        {
          "internalType": "uint64",
          "name": "_nonce",
          "type": "uint64"
        },
        {
          "internalType": "bytes",
          "name": "_payload",
          "type": "bytes"
        }
      ],
      "name": "retryMessage",
      "outputs": [],
      "stateMutability": "payable",
      "type": "function"
    },
    {
      "inputs": [],
      "name": "revokeFunds",
      "outputs": [],
      "stateMutability": "nonpayable",
      "type": "function"
    },
    {
      "inputs": [
        {
          "internalType": "uint16",
          "name": "_version",
          "type": "uint16"
        },
        {
          "internalType": "uint16",
          "name": "_chainId",
          "type": "uint16"
        },
        {
          "internalType": "uint256",
          "name": "_configType",
          "type": "uint256"
        },
        {
          "internalType": "bytes",
          "name": "_config",
          "type": "bytes"
        }
      ],
      "name": "setConfig",
      "outputs": [],
      "stateMutability": "nonpayable",
      "type": "function"
    },
    {
      "inputs": [
        {
          "internalType": "bool",
          "name": "_emergencyExit",
          "type": "bool"
        }
      ],
      "name": "setEmergencyExit",
      "outputs": [],
      "stateMutability": "nonpayable",
      "type": "function"
    },
    {
      "inputs": [
        {
          "internalType": "uint16",
          "name": "_dstChainId",
          "type": "uint16"
        },
        {
          "internalType": "uint16",
          "name": "_packetType",
          "type": "uint16"
        },
        {
          "internalType": "uint256",
          "name": "_minGas",
          "type": "uint256"
        }
      ],
      "name": "setMinDstGas",
      "outputs": [],
      "stateMutability": "nonpayable",
      "type": "function"
    },
    {
      "inputs": [
        {
          "internalType": "uint16",
          "name": "_dstChainId",
          "type": "uint16"
        },
        {
          "internalType": "uint256",
          "name": "_size",
          "type": "uint256"
        }
      ],
      "name": "setPayloadSizeLimit",
      "outputs": [],
      "stateMutability": "nonpayable",
      "type": "function"
    },
    {
      "inputs": [
        {
          "internalType": "address",
          "name": "_precrime",
          "type": "address"
        }
      ],
      "name": "setPrecrime",
      "outputs": [],
      "stateMutability": "nonpayable",
      "type": "function"
    },
    {
      "inputs": [
        {
          "internalType": "uint16",
          "name": "_version",
          "type": "uint16"
        }
      ],
      "name": "setReceiveVersion",
      "outputs": [],
      "stateMutability": "nonpayable",
      "type": "function"
    },
    {
      "inputs": [
        {
          "internalType": "uint16",
          "name": "_version",
          "type": "uint16"
        }
      ],
      "name": "setSendVersion",
      "outputs": [],
      "stateMutability": "nonpayable",
      "type": "function"
    },
    {
      "inputs": [
        {
          "internalType": "uint256",
          "name": "_slippage",
          "type": "uint256"
        }
      ],
      "name": "setSlippage",
      "outputs": [],
      "stateMutability": "nonpayable",
      "type": "function"
    },
    {
      "inputs": [
        {
          "internalType": "uint16",
          "name": "_srcChainId",
          "type": "uint16"
        },
        {
          "internalType": "bytes",
          "name": "_path",
          "type": "bytes"
        }
      ],
      "name": "setTrustedRemote",
      "outputs": [],
      "stateMutability": "nonpayable",
      "type": "function"
    },
    {
      "inputs": [
        {
          "internalType": "uint16",
          "name": "_remoteChainId",
          "type": "uint16"
        },
        {
          "internalType": "bytes",
          "name": "_remoteAddress",
          "type": "bytes"
        }
      ],
      "name": "setTrustedRemoteAddress",
      "outputs": [],
      "stateMutability": "nonpayable",
      "type": "function"
    },
    {
      "inputs": [],
      "name": "sgBridge",
      "outputs": [
        {
          "internalType": "contract ISgBridge",
          "name": "",
          "type": "address"
        }
      ],
      "stateMutability": "view",
      "type": "function"
    },
    {
      "inputs": [
        {
          "internalType": "uint16",
          "name": "",
          "type": "uint16"
        },
        {
          "internalType": "bytes",
          "name": "_srcAddress",
          "type": "bytes"
        },
        {
          "internalType": "uint256",
          "name": "",
          "type": "uint256"
        },
        {
          "internalType": "address",
          "name": "_token",
          "type": "address"
        },
        {
          "internalType": "uint256",
          "name": "_amountLD",
          "type": "uint256"
        },
        {
          "internalType": "bytes",
          "name": "",
          "type": "bytes"
        }
      ],
      "name": "sgReceive",
      "outputs": [],
      "stateMutability": "nonpayable",
      "type": "function"
    },
    {
      "inputs": [],
      "name": "sgRouter",
      "outputs": [
        {
          "internalType": "contract IStargateRouter",
          "name": "",
          "type": "address"
        }
      ],
      "stateMutability": "view",
      "type": "function"
    },
    {
      "inputs": [],
      "name": "slippage",
      "outputs": [
        {
          "internalType": "uint256",
          "name": "",
          "type": "uint256"
        }
      ],
      "stateMutability": "view",
      "type": "function"
    },
    {
      "inputs": [],
      "name": "strategist",
      "outputs": [
        {
          "internalType": "address",
          "name": "",
          "type": "address"
        }
      ],
      "stateMutability": "view",
      "type": "function"
    },
    {
      "inputs": [],
      "name": "strategistSignMessageHash",
      "outputs": [
        {
          "internalType": "bytes32",
          "name": "",
          "type": "bytes32"
        }
      ],
      "stateMutability": "view",
      "type": "function"
    },
    {
      "inputs": [
        {
          "internalType": "contract IERC20",
          "name": "_token",
          "type": "address"
        }
      ],
      "name": "sweepToken",
      "outputs": [],
      "stateMutability": "nonpayable",
      "type": "function"
    },
    {
      "inputs": [
        {
          "internalType": "address",
          "name": "newOwner",
          "type": "address"
        }
      ],
      "name": "transferOwnership",
      "outputs": [],
      "stateMutability": "nonpayable",
      "type": "function"
    },
    {
      "inputs": [
        {
          "internalType": "uint16",
          "name": "",
          "type": "uint16"
        }
      ],
      "name": "trustedRemoteLookup",
      "outputs": [
        {
          "internalType": "bytes",
          "name": "",
          "type": "bytes"
        }
      ],
      "stateMutability": "view",
      "type": "function"
    },
    {
      "inputs": [],
      "name": "vault",
      "outputs": [
        {
          "internalType": "address",
          "name": "",
          "type": "address"
        }
      ],
      "stateMutability": "view",
      "type": "function"
    },
    {
      "inputs": [],
      "name": "vaultChainId",
      "outputs": [
        {
          "internalType": "uint16",
          "name": "",
          "type": "uint16"
        }
      ],
      "stateMutability": "view",
      "type": "function"
    },
    {
      "inputs": [],
      "name": "want",
      "outputs": [
        {
          "internalType": "contract IERC20",
          "name": "",
          "type": "address"
        }
      ],
      "stateMutability": "view",
      "type": "function"
    },
    {
      "inputs": [],
      "name": "wantDecimals",
      "outputs": [
        {
          "internalType": "uint8",
          "name": "",
          "type": "uint8"
        }
      ],
      "stateMutability": "view",
      "type": "function"
    },
    {
      "stateMutability": "payable",
      "type": "receive"
    }
  ],
  "bytecode": "0x608060405234801561001057600080fd5b506155cb80620000216000396000f3fe60806040526004361061023c5760003560e01c80621d3567146102485780630517cb761461026a57806306fdde03146102a057806307e0db17146102dd5780630df37483146102fd57806310ddb1371461031d5780631be195601461033d5780631f1fcd511461035d5780631fe4a6861461037d5780632d6068431461039d57806337fded91146103b25780633d3ccc2f146103d75780633d8b38f6146103f75780633e032a3b146104275780633f1f4fa41461044b57806342d65a8d1461047857806345ee075514610498578063495f881e146104b85780635641ec03146104d8578063567ad85d146104f2578063593178de146105275780635b8c41e61461053c57806366ad5c8a1461058b5780636cbadbfa146105ab578063715018a6146105cd5780637533d788146105e25780637f555565146106025780638cfd8f5c146106225780638da5cb5b1461065a578063950c8a741461066f5780639606647d1461068f5780639f38369a146106a4578063a6c3d165146106c4578063ab8236f3146106e4578063adf076e614610704578063b0bea72514610737578063b353aaa714610743578063baf3292d14610763578063c1a3d44c14610783578063c446183414610798578063cbed8b9c146107ae578063d1deba1f146107ce578063df2a5b3b146107e1578063eb8d72b714610801578063efbb5cb014610821578063f0fa55a914610836578063f2fde38b14610856578063f5ecbdbc14610876578063fa54080114610896578063fbfa77cf146108b657600080fd5b3661024357005b600080fd5b34801561025457600080fd5b50610268610263366004614231565b6108d6565b005b34801561027657600080fd5b5060ce5461028a906001600160a01b031681565b60405161029791906142c4565b60405180910390f35b3480156102ac57600080fd5b5060408051808201909152600b81526a486f70537472617465677960a81b60208201525b6040516102979190614328565b3480156102e957600080fd5b506102686102f836600461433b565b6109bf565b34801561030957600080fd5b50610268610318366004614356565b610a2c565b34801561032957600080fd5b5061026861033836600461433b565b610a4b565b34801561034957600080fd5b50610268610358366004614395565b610a87565b34801561036957600080fd5b5060ca5461028a906001600160a01b031681565b34801561038957600080fd5b5060c95461028a906001600160a01b031681565b3480156103a957600080fd5b50610268610b14565b3480156103be57600080fd5b5060cd5461028a9061010090046001600160a01b031681565b3480156103e357600080fd5b506102686103f23660046143b2565b610b55565b34801561040357600080fd5b506104176104123660046143cb565b610b8b565b6040519015158152602001610297565b34801561043357600080fd5b5061043d60cc5481565b604051908152602001610297565b34801561045757600080fd5b5061043d61046636600461433b565b60686020526000908152604090205481565b34801561048457600080fd5b506102686104933660046143cb565b610c58565b3480156104a457600080fd5b506102686104b336600461442b565b610ccb565b3480156104c457600080fd5b506102686104d3366004614533565b610ce6565b3480156104e457600080fd5b5060cd546104179060ff1681565b3480156104fe57600080fd5b5060cb5461051490600160a01b900461ffff1681565b60405161ffff9091168152602001610297565b34801561053357600080fd5b5061043d610f8a565b34801561054857600080fd5b5061043d610557366004614596565b6097602090815260009384526040808520845180860184018051928152908401958401959095209452929052825290205481565b34801561059757600080fd5b506102686105a6366004614231565b610fe8565b3480156105b757600080fd5b5060cb5461051490600160b01b900461ffff1681565b3480156105d957600080fd5b506102686110bc565b3480156105ee57600080fd5b506102d06105fd36600461433b565b6110d0565b34801561060e57600080fd5b5061026861061d3660046145f3565b61116a565b34801561062e57600080fd5b5061043d61063d366004614691565b606760209081526000928352604080842090915290825290205481565b34801561066657600080fd5b5061028a61132a565b34801561067b57600080fd5b5060695461028a906001600160a01b031681565b34801561069b57600080fd5b50610268611339565b3480156106b057600080fd5b506102d06106bf36600461433b565b6113cc565b3480156106d057600080fd5b506102686106df3660046143cb565b6114db565b3480156106f057600080fd5b506102686106ff3660046146c4565b611564565b34801561071057600080fd5b5060cb5461072590600160c01b900460ff1681565b60405160ff9091168152602001610297565b34801561026857600080fd5b34801561074f57600080fd5b5060655461028a906001600160a01b031681565b34801561076f57600080fd5b5061026861077e366004614395565b611688565b34801561078f57600080fd5b5061043d6116db565b3480156107a457600080fd5b5061043d61271081565b3480156107ba57600080fd5b506102686107c936600461475e565b611752565b6102686107dc366004614231565b6117c0565b3480156107ed57600080fd5b506102686107fc3660046147cc565b6119d6565b34801561080d57600080fd5b5061026861081c3660046143cb565b611a88565b34801561082d57600080fd5b5061043d611ae2565b34801561084257600080fd5b506102686108513660046143b2565b611b20565b34801561086257600080fd5b50610268610871366004614395565b611b2d565b34801561088257600080fd5b506102d0610891366004614808565b611ba3565b3480156108a257600080fd5b5061043d6108b13660046143b2565b611c38565b3480156108c257600080fd5b5060cb5461028a906001600160a01b031681565b6065546001600160a01b031633146109415760405162461bcd60e51b815260206004820152602360248201527f4261736553747261746567793a3a496e76616c6964456e64706f696e7443616c6044820152623632b960e91b60648201526084015b60405180910390fd5b6109b78686868080601f01602080910402602001604051908101604052809392919081815260200183838082843760009201919091525050604080516020601f890181900481028201810190925287815289935091508790879081908401838280828437600092019190915250611c8a92505050565b505050505050565b6109c7611d03565b6065546040516307e0db1760e01b815261ffff831660048201526001600160a01b03909116906307e0db17906024015b600060405180830381600087803b158015610a1157600080fd5b505af1158015610a25573d6000803e3d6000fd5b5050505050565b610a34611d03565b61ffff909116600090815260686020526040902055565b610a53611d03565b6065546040516310ddb13760e01b815261ffff831660048201526001600160a01b03909116906310ddb137906024016109f7565b610a8f611d62565b610b1133826001600160a01b03166370a08231306040518263ffffffff1660e01b8152600401610abf91906142c4565b602060405180830381865afa158015610adc573d6000803e3d6000fd5b505050506040513d601f19601f82011682018060405250810190610b009190614855565b6001600160a01b0384169190611dbb565b50565b610b1c611d62565b60c9546040516001600160a01b03909116904780156108fc02916000818181858888f19350505050158015610b11573d6000803e3d6000fd5b610b5d611d62565b610b6681611e16565b604051818152600080516020615576833981519152906020015b60405180910390a150565b61ffff831660009081526066602052604081208054829190610bac9061486e565b80601f0160208091040260200160405190810160405280929190818152602001828054610bd89061486e565b8015610c255780601f10610bfa57610100808354040283529160200191610c25565b820191906000526020600020905b815481529060010190602001808311610c0857829003601f168201915b505050505090508383604051610c3c9291906148a8565b60405180910390208180519060200120149150505b9392505050565b610c60611d03565b6065546040516342d65a8d60e01b81526001600160a01b03909116906342d65a8d90610c94908690869086906004016148e1565b600060405180830381600087803b158015610cae57600080fd5b505af1158015610cc2573d6000803e3d6000fd5b50505050505050565b610cd3611d62565b60cd805460ff1916911515919091179055565b610cee611d62565b610cf781612076565b60cd546000908190819060ff1615610da3578415610d575760405162461bcd60e51b815260206004820152601e60248201527f4261736553747261746567793a3a44656274526174696f4e6f745a65726f00006044820152606401610938565b6000610d616120fc565b905087811015610d7c57610d758189614915565b9250610d91565b87811115610d9157610d8e8882614915565b93505b610d9b8389614915565b915050610db5565b610dad888861213e565b919450925090505b6000610dc18285614928565b905060008088831015610de357610dd8838a614915565b915060009050610df4565b60009150610df18984614915565b90505b6000604051806101600160405280306001600160a01b031681526020014281526020018881526020018781526020018681526020018481526020018381526020018b815260200183610e44611ae2565b610e4e9190614915565b815260200160d06000815480929190610e669061493b565b90915550815260200189905290508115610ec65760cb54604051610ec191849161ffff600160a01b830416916001600160a01b031690610ead90600290879060200161498c565b604051602081830303815290604052612235565b610ef1565b610ef1600282604051602001610edd92919061498c565b60405160208183030381529060405261232f565b7fb983e09c034e9c52b5e547cb0589967992b97717733f580cc5ad0afcdc4b522b8160400151826060015183608001518460a001518560c001518660e00151876101000151604051610f749796959493929190968752602087019590955260408601939093526060850191909152608084015260a083015260c082015260e00190565b60405180910390a1505050505050505050505050565b60d05460cb546040513060601b6001600160601b03191660208201526034810192909252600160b01b900460f01b6001600160f01b031916605482015260009060560160405160208183030381529060405280519060200120905090565b3330146110465760405162461bcd60e51b815260206004820152602660248201527f4e6f6e626c6f636b696e674c7a4170703a2063616c6c6572206d7573742062656044820152650204c7a4170760d41b6064820152608401610938565b6109b78686868080601f01602080910402602001604051908101604052809392919081815260200183838082843760009201919091525050604080516020601f8901819004810282018101909252878152899350915087908790819084018382808284376000920191909152506124af92505050565b6110c4611d03565b6110ce60006125c5565b565b606660205260009081526040902080546110e99061486e565b80601f01602080910402602001604051908101604052809291908181526020018280546111159061486e565b80156111625780601f1061113757610100808354040283529160200191611162565b820191906000526020600020905b81548152906001019060200180831161114557829003601f168201915b505050505081565b600054610100900460ff161580801561118a5750600054600160ff909116105b806111ab575061119930612617565b1580156111ab575060005460ff166001145b61120e5760405162461bcd60e51b815260206004820152602e60248201527f496e697469616c697a61626c653a20636f6e747261637420697320616c72656160448201526d191e481a5b9a5d1a585b1a5e995960921b6064820152608401610938565b6000805460ff191660011790558015611231576000805461ff0019166101001790555b6112428989898989468a8a8a612626565b61127773b67c014fa700e69681a673876eb8bafaa36bff7173b0cabfe930642ad3e7decdc741884d8c3f7ebc706000196127f9565b6112ac73c5102fe9359fd9a28f877a67e36b0f050d81a3cc73e592427a0aece92de3edee1f18e0157c058615646000196127f9565b60ca546112d9906001600160a01b03167310541b07d8ad2647dc6cd67abd4c03575dade2616000196127f9565b801561131f576000805461ff0019169055604051600181527f7f26b83ff96e1f2b6a682f133852f6798a09c465da95921460cefb38474024989060200160405180910390a15b505050505050505050565b6033546001600160a01b031690565b611341611d62565b60ca546040516370a0823160e01b81526110ce916001916001600160a01b03909116906370a08231906113789030906004016142c4565b602060405180830381865afa158015611395573d6000803e3d6000fd5b505050506040513d601f19601f820116820180604052508101906113b99190614855565b60ca546001600160a01b03169190611dbb565b61ffff81166000908152606660205260408120805460609291906113ef9061486e565b80601f016020809104026020016040519081016040528092919081815260200182805461141b9061486e565b80156114685780601f1061143d57610100808354040283529160200191611468565b820191906000526020600020905b81548152906001019060200180831161144b57829003601f168201915b5050505050905080516000036114c05760405162461bcd60e51b815260206004820152601d60248201527f4c7a4170703a206e6f20747275737465642070617468207265636f72640000006044820152606401610938565b610c516000601483516114d39190614915565b8391906128fd565b6114e3611d03565b8181306040516020016114f893929190614a48565b60408051601f1981840301815291815261ffff85166000908152606660205220906115239082614ac4565b507f8c0400cfe2d1199b1a725c78960bcc2a344d869b80590d0f2bd005db15a572ce838383604051611557939291906148e1565b60405180910390a1505050565b60ce546001600160a01b031633148061158c575060cd5461010090046001600160a01b031633145b6115d75760405162461bcd60e51b815260206004820152601c60248201527b53674272696467653a3a526f757465724f724272696467654f6e6c7960201b6044820152606401610938565b60cb546000906001600160a01b03163314611629576115f986600060146128fd565b6040516020016116099190614b7d565b60405160208183030381529060405261162190614b99565b60601c611636565b60cb546001600160a01b03165b604080518581526001600160a01b038084166020830152929350918616917f92073a89a07a000083eb8b2575fc15e7bb936efe55d00727d6942a796d7211a7910160405180910390a250505050505050565b611690611d03565b606980546001600160a01b0319166001600160a01b0383161790556040517f5db758e995a17ec1ad84bdef7e8c3293a0bd6179bcce400dff5d4c3d87db726b90610b809083906142c4565b60ca546040516370a0823160e01b81526000916001600160a01b0316906370a082319061170c9030906004016142c4565b602060405180830381865afa158015611729573d6000803e3d6000fd5b505050506040513d601f19601f8201168201806040525081019061174d9190614855565b905090565b61175a611d03565b6065546040516332fb62e760e21b81526001600160a01b039091169063cbed8b9c906117929088908890889088908890600401614bd0565b600060405180830381600087803b1580156117ac57600080fd5b505af115801561131f573d6000803e3d6000fd5b61ffff861660009081526097602052604080822090516117e390889088906148a8565b90815260408051602092819003830190206001600160401b038716600090815292529020549050806118635760405162461bcd60e51b815260206004820152602360248201527f4e6f6e626c6f636b696e674c7a4170703a206e6f2073746f726564206d65737360448201526261676560e81b6064820152608401610938565b8083836040516118749291906148a8565b6040518091039020146118d35760405162461bcd60e51b815260206004820152602160248201527f4e6f6e626c6f636b696e674c7a4170703a20696e76616c6964207061796c6f616044820152601960fa1b6064820152608401610938565b61ffff871660009081526097602052604080822090516118f690899089906148a8565b90815260408051602092819003830181206001600160401b038916600090815290845282902093909355601f8801829004820283018201905286825261198e918991899089908190840183828082843760009201919091525050604080516020601f8a018190048102820181019092528881528a9350915088908890819084018382808284376000920191909152506124af92505050565b7fc264d91f3adc5588250e1551f547752ca0cfa8f6b530d243b9f9f4cab10ea8e587878787856040516119c5959493929190614bfe565b60405180910390a150505050505050565b6119de611d03565b60008111611a265760405162461bcd60e51b81526020600482015260156024820152744c7a4170703a20696e76616c6964206d696e47617360581b6044820152606401610938565b61ffff83811660008181526067602090815260408083209487168084529482529182902085905581519283528201929092529081018290527f9d5c7c0b934da8fefa9c7760c98383778a12dfbfc0c3b3106518f43fb9508ac090606001611557565b611a90611d03565b61ffff83166000908152606660205260409020611aae828483614c39565b507ffa41487ad5d6728f0b19276fa1eddc16558578f5109fc39d2dc33c3230470dab838383604051611557939291906148e1565b6000611af4611aef612a0a565b612a42565b611afc6116db565b611b0c611b07612ac0565b612afa565b611b169190614928565b61174d9190614928565b611b28611d62565b60cc55565b611b35611d03565b6001600160a01b038116611b9a5760405162461bcd60e51b815260206004820152602660248201527f4f776e61626c653a206e6577206f776e657220697320746865207a65726f206160448201526564647265737360d01b6064820152608401610938565b610b11816125c5565b606554604051633d7b2f6f60e21b815261ffff808716600483015285166024820152306044820152606481018390526060916001600160a01b03169063f5ecbdbc90608401600060405180830381865afa158015611c05573d6000803e3d6000fd5b505050506040513d6000823e601f3d908101601f19168201604052611c2d9190810190614cf2565b90505b949350505050565b6040517b0ca2ba3432b932bab69029b4b3b732b21026b2b9b9b0b3b29d05199960211b6020820152603c8101829052600090605c01604051602081830303815290604052805190602001209050919050565b600080611ced5a60966366ad5c8a60e01b89898989604051602401611cb29493929190614d5f565b60408051601f198184030181529190526020810180516001600160e01b03166001600160e01b03199093169290921790915230929190612b7e565b91509150816109b7576109b78686868685612c0a565b33611d0c61132a565b6001600160a01b0316146110ce5760405162461bcd60e51b815260206004820181905260248201527f4f776e61626c653a2063616c6c6572206973206e6f7420746865206f776e65726044820152606401610938565b60c9546001600160a01b031633146110ce5760405162461bcd60e51b815260206004820152601c60248201527b10985cd954dd1c985d1959de4e8e93db9b1e54dd1c985d1959da5cdd60221b6044820152606401610938565b611e118363a9059cbb60e01b8484604051602401611dda929190614d9d565b60408051601f198184030181529190526020810180516001600160e01b03166001600160e01b031990931692909217909152612ca7565b505050565b60cd5460ff1615611e245750565b6000611e2e6116db565b9050611e38612d7c565b8015612072576040805160028082526060820183526000926020830190803683370190505090508181600081518110611e7357611e73614db6565b602002602001018181525050600081600181518110611e9457611e94614db6565b602090810291909101015260cc5460405163f9273ffb60e01b8152600091612710917310541b07d8ad2647dc6cd67abd4c03575dade2619063f9273ffb90611ee59030908890600190600401614e07565b602060405180830381865afa158015611f02573d6000803e3d6000fd5b505050506040513d601f19601f82011682018060405250810190611f269190614855565b611f309190614e3d565b611f3a9190614e6a565b604051634d49e87d60e01b81529091507310541b07d8ad2647dc6cd67abd4c03575dade26190634d49e87d90611f7890859085904290600401614e7e565b6020604051808303816000875af1158015611f97573d6000803e3d6000fd5b505050506040513d601f19601f82011682018060405250810190611fbb9190614855565b506040516370a0823160e01b815260009073b67c014fa700e69681a673876eb8bafaa36bff71906370a0823190611ff69030906004016142c4565b602060405180830381865afa158015612013573d6000803e3d6000fd5b505050506040513d601f19601f820116820180604052508101906120379190614855565b60405163534a7e1d60e11b81526004810182905290915073b0cabfe930642ad3e7decdc741884d8c3f7ebc709063a694fc3a90602401611792565b5050565b6000612080610f8a565b9050600061208d82611c38565b60c9549091506001600160a01b03166120a68285612e64565b6001600160a01b031614611e115760405162461bcd60e51b815260206004820152601e60248201527f4261736553747261746567793a3a496e76616c69645369676e617475726500006044820152606401610938565b600061210e612109612ac0565b612e88565b60ca546040516370a0823160e01b81526001600160a01b03909116906370a082319061170c9030906004016142c4565b60008060008061214c611ae2565b905085811061216a5761215f8682614915565b93506000925061217b565b600093506121788187614915565b92505b61218d6121888587614928565b613079565b505060ca546040516370a0823160e01b81526000916001600160a01b0316906370a08231906121c09030906004016142c4565b602060405180830381865afa1580156121dd573d6000803e3d6000fd5b505050506040513d601f19601f820116820180604052508101906122019190614855565b9050848111612216578094506000925061222c565b6122296122238683614915565b876131ae565b92505b50509250925092565b60cd54604051630dc6346160e01b815260009161010090046001600160a01b031690630dc634619061226f90879087908790600401614ea3565b602060405180830381865afa15801561228c573d6000803e3d6000fd5b505050506040513d601f19601f820116820180604052508101906122b09190614855565b60cd5460ca54604051633920455b60e11b81529293506001600160a01b036101009092048216926372408ab69285926122f6929116908a908a908a908a90600401614ed1565b6000604051808303818588803b15801561230f57600080fd5b505af1158015612323573d6000803e3d6000fd5b50505050505050505050565b60cb5460408051606083811b6001600160601b03199081166020840152309182901b16603483015282516028818403018152604890920190925260655490926000926001600160a01b03909216916340a7bb109161ffff600160a01b9091041690868561239a6131c4565b6040518663ffffffff1660e01b81526004016123ba959493929190614f0e565b6040805180830381865afa1580156123d6573d6000803e3d6000fd5b505050506040513d601f19601f820116820180604052508101906123fa9190614f62565b509050804710156124265760405162fae2d560e21b815260048101829052476024820152604401610938565b60655460cb546001600160a01b039091169063c5803100908390600160a01b900461ffff16858730806124576131c4565b6040518863ffffffff1660e01b815260040161247896959493929190614f86565b6000604051808303818588803b15801561249157600080fd5b505af11580156124a5573d6000803e3d6000fd5b5050505050505050565b60cb5461ffff858116600160a01b90920416146125195760405162461bcd60e51b815260206004820152602260248201527f4261736553747261746567793a3a5661756c74436861696e49644d69736d61746044820152610c6d60f31b6064820152608401610938565b6000612527848260146128fd565b6040516020016125379190614b7d565b60405160208183030381529060405261254f90614b99565b60cb5460609190911c91506001600160a01b031681146125bc5760405162461bcd60e51b815260206004820152602260248201527f4261736553747261746567793a3a5661756c74416464726573734d69736d61746044820152610c6d60f31b6064820152608401610938565b610a25826131f4565b603380546001600160a01b038381166001600160a01b0319831681179093556040519116919082907f8be0079c531659141344cd1fd0a4f28419497f9722a3daafe3b4186f6b6457e090600090a35050565b6001600160a01b03163b151590565b600054610100900460ff1661264d5760405162461bcd60e51b815260040161093890614fed565b61265689613315565b60c980546001600160a01b03808b166001600160a01b03199283161790925560ca80548a8416908316811790915560cb8054938a1661ffff8a16600160a01b029093166001600160b01b0319909416939093179190911790915560cc8290556040805163313ce56760e01b8152905163313ce567916004808201926020929091908290030181865afa1580156126f0573d6000803e3d6000fd5b505050506040513d601f19601f820116820180604052508101906127149190615038565b60cb8054600060d05562ffffff60b01b1916600160c01b60ff939093169290920261ffff60b01b191691909117600160b01b61ffff87160217905560cd8054610100600160a81b0319166101006001600160a01b03868116919091029190911790915560ce80546001600160a01b03191684831617905560ca5460405163095ea7b360e01b815291169063095ea7b3906127b690869060001990600401614d9d565b6020604051808303816000875af11580156127d5573d6000803e3d6000fd5b505050506040513d601f19601f82011682018060405250810190612323919061505b565b8015806128735750604051636eb1769f60e11b81523060048201526001600160a01b03838116602483015284169063dd62ed3e90604401602060405180830381865afa15801561284d573d6000803e3d6000fd5b505050506040513d601f19601f820116820180604052508101906128719190614855565b155b6128de5760405162461bcd60e51b815260206004820152603660248201527f5361666545524332303a20617070726f76652066726f6d206e6f6e2d7a65726f60448201527520746f206e6f6e2d7a65726f20616c6c6f77616e636560501b6064820152608401610938565b611e118363095ea7b360e01b8484604051602401611dda929190614d9d565b60608161290b81601f614928565b101561294a5760405162461bcd60e51b815260206004820152600e60248201526d736c6963655f6f766572666c6f7760901b6044820152606401610938565b6129548284614928565b845110156129985760405162461bcd60e51b8152602060048201526011602482015270736c6963655f6f75744f66426f756e647360781b6044820152606401610938565b6060821580156129b75760405191506000825260208201604052612a01565b6040519150601f8416801560200281840101858101878315602002848b0101015b818310156129f05780518352602092830192016129d8565b5050858452601f01601f1916604052505b50949350505050565b6040516246613160e11b815260009073b0cabfe930642ad3e7decdc741884d8c3f7ebc7090628cc2629061170c9030906004016142c4565b60ca54600090612aba9073c6962004f452be9203591991d15f6b388e09e8d0907382af49447d8a07e3bd95bd0d56f35241523fbab1906001600160a01b0316612ab57344ca2be2bd6a7203ccdbb63eed8382274f737a1573c5102fe9359fd9a28f877a67e36b0f050d81a3cc848961334d565b61334d565b92915050565b6040516370a0823160e01b815260009073b0cabfe930642ad3e7decdc741884d8c3f7ebc70906370a082319061170c9030906004016142c4565b604051630262267d60e61b815230600482015260248101829052600060448201819052907310541b07d8ad2647dc6cd67abd4c03575dade261906398899f4090606401602060405180830381865afa158015612b5a573d6000803e3d6000fd5b505050506040513d601f19601f82011682018060405250810190612aba9190614855565b6000606060008060008661ffff166001600160401b03811115612ba357612ba3614448565b6040519080825280601f01601f191660200182016040528015612bcd576020820181803683370190505b50905060008087516020890160008d8df191503d925086831115612bef578692505b828152826000602083013e9093509150505b94509492505050565b8180519060200120609760008761ffff1661ffff16815260200190815260200160002085604051612c3b9190614b7d565b9081526040805191829003602090810183206001600160401b0388166000908152915220919091557fe183f33de2837795525b4792ca4cd60535bd77c53b7e7030060bfcf5734d6b0c90612c989087908790879087908790615078565b60405180910390a15050505050565b6000612cfc826040518060400160405280602081526020017f5361666545524332303a206c6f772d6c6576656c2063616c6c206661696c6564815250856001600160a01b03166133759092919063ffffffff16565b9050805160001480612d1d575080806020019051810190612d1d919061505b565b611e115760405162461bcd60e51b815260206004820152602a60248201527f5361666545524332303a204552433230206f7065726174696f6e20646964206e6044820152691bdd081cdd58d8d9595960b21b6064820152608401610938565b73b0cabfe930642ad3e7decdc741884d8c3f7ebc706001600160a01b0316633d18b9126040518163ffffffff1660e01b8152600401600060405180830381600087803b158015612dcb57600080fd5b505af1158015612ddf573d6000803e3d6000fd5b50506040516370a0823160e01b81526110ce925073c5102fe9359fd9a28f877a67e36b0f050d81a3cc91506370a0823190612e1e9030906004016142c4565b602060405180830381865afa158015612e3b573d6000803e3d6000fd5b505050506040513d601f19601f82011682018060405250810190612e5f9190614855565b613384565b6000806000612e7385856134b7565b91509150612e80816134fc565b509392505050565b612e90612d7c565b6040805160028082526060820183526000926020830190803683370190505090508181600081518110612ec557612ec5614db6565b602002602001018181525050600081600181518110612ee657612ee6614db6565b602090810291909101015260405163f9273ffb60e01b81526000907310541b07d8ad2647dc6cd67abd4c03575dade2619063f9273ffb90612f2f90309086908690600401614e07565b602060405180830381865afa158015612f4c573d6000803e3d6000fd5b505050506040513d601f19601f82011682018060405250810190612f709190614855565b604051632e1a7d4d60e01b81526004810182905290915073b0cabfe930642ad3e7decdc741884d8c3f7ebc7090632e1a7d4d90602401600060405180830381600087803b158015612fc057600080fd5b505af1158015612fd4573d6000803e3d6000fd5b50505050600061271060cc5485612feb9190614e3d565b612ff59190614e6a565b6040516301f1d0ab60e51b81529091507310541b07d8ad2647dc6cd67abd4c03575dade26190633e3a156090613036908590600090869042906004016150ca565b6020604051808303816000875af1158015613055573d6000803e3d6000fd5b505050506040513d601f19601f82011682018060405250810190610a259190614855565b60ca546040516370a0823160e01b8152600091829182916001600160a01b0316906370a08231906130ae9030906004016142c4565b602060405180830381865afa1580156130cb573d6000803e3d6000fd5b505050506040513d601f19601f820116820180604052508101906130ef9190614855565b905083811061310357509192600092509050565b6131156131108286614915565b613641565b60ca546040516370a0823160e01b81526001600160a01b03909116906370a08231906131459030906004016142c4565b602060405180830381865afa158015613162573d6000803e3d6000fd5b505050506040513d601f19601f820116820180604052508101906131869190614855565b9050808411156131a45791508161319d8185614915565b91506131a8565b8392505b50915091565b60008183106131bd5781610c51565b5090919050565b60408051600160f01b6020820152620f424060228083019190915282518083039091018152604290910190915290565b60008180602001905181019061320a91906150e8565b9050600381600481111561322057613220614954565b0361326b5760008280602001905181019061323b9190615109565b91505061324b8160000151611e16565b805160405190815260008051602061557683398151915290602001611557565b600081600481111561327f5761327f614954565b036132a65760008280602001905181019061329a919061514c565b915050611e118161368c565b60048160048111156132ba576132ba614954565b03612072576000828060200190518101906132d591906151b7565b9150506132e581600001516137b6565b80516040517f7c9a2d2ec51230d7dbed27f113a325b7e20aef7b049e68b2339257b5edff5bea91611557916142c4565b600054610100900460ff1661333c5760405162461bcd60e51b815260040161093890614fed565b6133446137f5565b610b1181613825565b60008061335c8661070861386e565b50905061336b81848787613ab7565b9695505050505050565b6060611c308484600085613bbe565b6133bf6040518060a001604052806060815260200160006001600160a01b031681526020016000815260200160008152602001600081525090565b604080517331440bfa4d67f668a3e1de99f8dac3c1436068f360621b6020820152610bb860348201527382af49447d8a07e3bd95bd0d56f35241523fbab160601b60548201526101f4606882015273af88d065e77c8cc2239327c5edb3a432268e583160601b60888201528151607c818303018152609c909101909152600061344784612a42565b8284523060208501524260408501526060840185905260cc54909150612710906134719083614e3d565b61347b9190614e6a565b608084015260405163c04b8d5960e01b815273e592427a0aece92de3edee1f18e0157c058615649063c04b8d5990613036908690600401615205565b60008082516041036134ed5760208301516040840151606085015160001a6134e187828585613c8e565b945094505050506134f5565b506000905060025b9250929050565b600081600481111561351057613510614954565b036135185750565b600181600481111561352c5761352c614954565b036135745760405162461bcd60e51b815260206004820152601860248201527745434453413a20696e76616c6964207369676e617475726560401b6044820152606401610938565b600281600481111561358857613588614954565b036135d55760405162461bcd60e51b815260206004820152601f60248201527f45434453413a20696e76616c6964207369676e6174757265206c656e677468006044820152606401610938565b60038160048111156135e9576135e9614954565b03610b115760405162461bcd60e51b815260206004820152602260248201527f45434453413a20696e76616c6964207369676e6174757265202773272076616c604482015261756560f01b6064820152608401610938565b8061364d611aef612a0a565b1061365a57610b11612d7c565b6000613681613667612ac0565b613672611aef612a0a565b61367c9085614915565b6131ae565b905061207281612e88565b602080820151600090815260cf909152604090205460ff16156136f15760405162461bcd60e51b815260206004820152601e60248201527f4261736553747261746567793a3a416c726561647957697468647261776e00006044820152606401610938565b6000806137018360000151613079565b91509150600060016040518060800160405280306001600160a01b03168152602001858152602001848152602001866020015181525060405160200161374892919061525d565b60408051601f19818403018152919052905082156137895760cb5461378490849061ffff600160a01b820416906001600160a01b031684612235565b613792565b6137928161232f565b505050602090810151600090815260cf90915260409020805460ff19166001179055565b6137bf81613d38565b60ca546040516370a0823160e01b8152610b119183916001600160a01b03909116906370a08231906113789030906004016142c4565b600054610100900460ff1661381c5760405162461bcd60e51b815260040161093890614fed565b6110ce336125c5565b600054610100900460ff1661384c5760405162461bcd60e51b815260040161093890614fed565b606580546001600160a01b0319166001600160a01b0392909216919091179055565b6000808263ffffffff166000036138ac5760405162461bcd60e51b8152602060048201526002602482015261042560f41b6044820152606401610938565b60408051600280825260608201835260009260208301908036833701905050905083816000815181106138e1576138e1614db6565b602002602001019063ffffffff16908163ffffffff168152505060008160018151811061391057613910614db6565b602002602001019063ffffffff16908163ffffffff1681525050600080866001600160a01b031663883bdbfd846040518263ffffffff1660e01b8152600401613959919061529f565b600060405180830381865afa158015613976573d6000803e3d6000fd5b505050506040513d6000823e601f3d908101601f1916820160405261399e919081019061537b565b915091506000826000815181106139b7576139b7614db6565b6020026020010151836001815181106139d2576139d2614db6565b60200260200101516139e49190615446565b90506000826000815181106139fb576139fb614db6565b602002602001015183600181518110613a1657613a16614db6565b6020026020010151613a289190615473565b9050613a3a63ffffffff89168361549a565b965060008260060b128015613a605750613a5a63ffffffff8916836154d8565b60060b15155b15613a735786613a6f816154fa565b9750505b6000613a8c6001600160a01b0363ffffffff8b1661551d565b9050613aa8600160201b600160c01b03602084901b168261554f565b96505050505050509250929050565b600080613ac386613d5c565b90506001600160801b036001600160a01b03821611613b49576000613af16001600160a01b03831680614e3d565b9050836001600160a01b0316856001600160a01b031610613b2957613b24600160c01b876001600160801b031683614074565b613b41565b613b4181876001600160801b0316600160c01b614074565b925050612a01565b6000613b636001600160a01b03831680600160401b614074565b9050836001600160a01b0316856001600160a01b031610613b9b57613b96600160801b876001600160801b031683614074565b613bb3565b613bb381876001600160801b0316600160801b614074565b979650505050505050565b606082471015613c1f5760405162461bcd60e51b815260206004820152602660248201527f416464726573733a20696e73756666696369656e742062616c616e636520666f6044820152651c8818d85b1b60d21b6064820152608401610938565b600080866001600160a01b03168587604051613c3b9190614b7d565b60006040518083038185875af1925050503d8060008114613c78576040519150601f19603f3d011682016040523d82523d6000602084013e613c7d565b606091505b5091509150613bb387838387614126565b6000806fa2a8918ca85bafe22016d0b997e4df60600160ff1b03831115613cbb5750600090506003612c01565b600060018787878760405160008152602001604052604051613ce094939291906150ca565b6020604051602081039080840390855afa158015613d02573d6000803e3d6000fd5b5050604051601f1901519150506001600160a01b038116613d2b57600060019250925050612c01565b9660009650945050505050565b6000613d426120fc565b60ca54909150612072906001600160a01b03168383611dbb565b60008060008360020b12613d73578260020b613d7b565b8260020b6000035b9050620d89e8811115613da1576040516315e4079d60e11b815260040160405180910390fd5b600081600116600003613db857600160801b613dca565b6ffffcb933bd6fad37aa2d162d1a5940015b6001600160881b031690506002821615613df4576ffff97272373d413259a46990580e213a0260801c5b6004821615613e13576ffff2e50f5f656932ef12357cf3c7fdcc0260801c5b6008821615613e32576fffe5caca7e10e4e61c3624eaa0941cd00260801c5b6010821615613e51576fffcb9843d60f6159c9db58835c9266440260801c5b6020821615613e70576fff973b41fa98c081472e6896dfb254c00260801c5b6040821615613e8f576fff2ea16466c96a3843ec78b326b528610260801c5b6080821615613eae576ffe5dee046a99a2a811c461f1969c30530260801c5b610100821615613ece576ffcbe86c7900a88aedcffc83b479aa3a40260801c5b610200821615613eee576ff987a7253ac413176f2b074cf7815e540260801c5b610400821615613f0e576ff3392b0822b70005940c7a398e4b70f30260801c5b610800821615613f2e576fe7159475a2c29b7443b29c7fa6e889d90260801c5b611000821615613f4e576fd097f3bdfd2022b8845ad8f792aa58250260801c5b612000821615613f6e576fa9f746462d870fdf8a65dc1f90e061e50260801c5b614000821615613f8e576f70d869a156d2a1b890bb3df62baf32f70260801c5b618000821615613fae576f31be135f97d08fd981231505542fcfa60260801c5b62010000821615613fcf576f09aa508b5b7a84e1c677de54f3e99bc90260801c5b62020000821615613fef576e5d6af8dedb81196699c329225ee6040260801c5b6204000082161561400e576d2216e584f5fa1ea926041bedfe980260801c5b6208000082161561402b576b048a170391f7dc42444e8fa20260801c5b60008460020b131561404c57806000198161404857614048614e54565b0490505b600160201b81061561405f576001614062565b60005b60ff16602082901c0192505050919050565b60008080600019858709858702925082811083820303915050806000036140ad57600084116140a257600080fd5b508290049050610c51565b8084116140b957600080fd5b6000848688096000868103871696879004966002600389028118808a02820302808a02820302808a02820302808a02820302808a02820302808a02909103029181900381900460010186841190950394909402919094039290920491909117919091029150509392505050565b6060831561419357825160000361418c5761414085612617565b61418c5760405162461bcd60e51b815260206004820152601d60248201527f416464726573733a2063616c6c20746f206e6f6e2d636f6e74726163740000006044820152606401610938565b5081611c30565b611c3083838151156141a85781518083602001fd5b8060405162461bcd60e51b81526004016109389190614328565b803561ffff811681146141d457600080fd5b919050565b60008083601f8401126141eb57600080fd5b5081356001600160401b0381111561420257600080fd5b6020830191508360208285010111156134f557600080fd5b80356001600160401b03811681146141d457600080fd5b6000806000806000806080878903121561424a57600080fd5b614253876141c2565b955060208701356001600160401b038082111561426f57600080fd5b61427b8a838b016141d9565b909750955085915061428f60408a0161421a565b945060608901359150808211156142a557600080fd5b506142b289828a016141d9565b979a9699509497509295939492505050565b6001600160a01b0391909116815260200190565b60005b838110156142f35781810151838201526020016142db565b50506000910152565b600081518084526143148160208601602086016142d8565b601f01601f19169290920160200192915050565b602081526000610c5160208301846142fc565b60006020828403121561434d57600080fd5b610c51826141c2565b6000806040838503121561436957600080fd5b614372836141c2565b946020939093013593505050565b6001600160a01b0381168114610b1157600080fd5b6000602082840312156143a757600080fd5b8135610c5181614380565b6000602082840312156143c457600080fd5b5035919050565b6000806000604084860312156143e057600080fd5b6143e9846141c2565b925060208401356001600160401b0381111561440457600080fd5b614410868287016141d9565b9497909650939450505050565b8015158114610b1157600080fd5b60006020828403121561443d57600080fd5b8135610c518161441d565b634e487b7160e01b600052604160045260246000fd5b604051602081016001600160401b038111828210171561448057614480614448565b60405290565b604051601f8201601f191681016001600160401b03811182821017156144ae576144ae614448565b604052919050565b60006001600160401b038211156144cf576144cf614448565b50601f01601f191660200190565b600082601f8301126144ee57600080fd5b81356145016144fc826144b6565b614486565b81815284602083860101111561451657600080fd5b816020850160208301376000918101602001919091529392505050565b600080600080600060a0868803121561454b57600080fd5b8535945060208601359350604086013592506060860135915060808601356001600160401b0381111561457d57600080fd5b614589888289016144dd565b9150509295509295909350565b6000806000606084860312156145ab57600080fd5b6145b4846141c2565b925060208401356001600160401b038111156145cf57600080fd5b6145db868287016144dd565b9250506145ea6040850161421a565b90509250925092565b600080600080600080600080610100898b03121561461057600080fd5b883561461b81614380565b9750602089013561462b81614380565b9650604089013561463b81614380565b9550606089013561464b81614380565b945061465960808a016141c2565b935060a089013561466981614380565b925060c089013561467981614380565b8092505060e089013590509295985092959890939650565b600080604083850312156146a457600080fd5b6146ad836141c2565b91506146bb602084016141c2565b90509250929050565b60008060008060008060c087890312156146dd57600080fd5b6146e6876141c2565b955060208701356001600160401b038082111561470257600080fd5b61470e8a838b016144dd565b9650604089013595506060890135915061472782614380565b9093506080880135925060a0880135908082111561474457600080fd5b5061475189828a016144dd565b9150509295509295509295565b60008060008060006080868803121561477657600080fd5b61477f866141c2565b945061478d602087016141c2565b93506040860135925060608601356001600160401b038111156147af57600080fd5b6147bb888289016141d9565b969995985093965092949392505050565b6000806000606084860312156147e157600080fd5b6147ea846141c2565b92506147f8602085016141c2565b9150604084013590509250925092565b6000806000806080858703121561481e57600080fd5b614827856141c2565b9350614835602086016141c2565b9250604085013561484581614380565b9396929550929360600135925050565b60006020828403121561486757600080fd5b5051919050565b600181811c9082168061488257607f821691505b6020821081036148a257634e487b7160e01b600052602260045260246000fd5b50919050565b8183823760009101908152919050565b81835281816020850137506000828201602090810191909152601f909101601f19169091010190565b61ffff84168152604060208201526000611c2d6040830184866148b8565b634e487b7160e01b600052601160045260246000fd5b81810381811115612aba57612aba6148ff565b80820180821115612aba57612aba6148ff565b60006001820161494d5761494d6148ff565b5060010190565b634e487b7160e01b600052602160045260246000fd5b6005811061498857634e487b7160e01b600052602160045260246000fd5b9052565b614996818461496a565b604060208201526149b36040820183516001600160a01b03169052565b6020820151606082015260408201516080820152606082015160a0820152608082015160c082015260a082015160e0820152600060c0830151610100818185015260e08501519150610120828186015281860151925061014091508282860152808601519250506101608281860152818601519250806101808601525050614a3f6101a08401826142fc565b95945050505050565b8284823760609190911b6001600160601b0319169101908152601401919050565b601f821115611e1157600081815260208120601f850160051c81016020861015614a905750805b601f850160051c820191505b818110156109b757828155600101614a9c565b600019600383901b1c191660019190911b1790565b81516001600160401b03811115614add57614add614448565b614af181614aeb845461486e565b84614a69565b602080601f831160018114614b205760008415614b0e5750858301515b614b188582614aaf565b8655506109b7565b600085815260208120601f198616915b82811015614b4f57888601518255948401946001909101908401614b30565b5085821015614b6d5787850151600019600388901b60f8161c191681555b5050505050600190811b01905550565b60008251614b8f8184602087016142d8565b9190910192915050565b805160208201516001600160601b03198082169291906014831015614bc85780818460140360031b1b83161693505b505050919050565b600061ffff808816835280871660208401525084604083015260806060830152613bb36080830184866148b8565b61ffff86168152608060208201526000614c1c6080830186886148b8565b6001600160401b0394909416604083015250606001529392505050565b6001600160401b03831115614c5057614c50614448565b614c6483614c5e835461486e565b83614a69565b6000601f841160018114614c925760008515614c805750838201355b614c8a8682614aaf565b845550610a25565b600083815260209020601f19861690835b82811015614cc35786850135825560209485019460019092019101614ca3565b5086821015614ce05760001960f88860031b161c19848701351681555b505060018560011b0183555050505050565b600060208284031215614d0457600080fd5b81516001600160401b03811115614d1a57600080fd5b8201601f81018413614d2b57600080fd5b8051614d396144fc826144b6565b818152856020838501011115614d4e57600080fd5b614a3f8260208301602086016142d8565b61ffff85168152608060208201526000614d7c60808301866142fc565b6001600160401b03851660408401528281036060840152613bb381856142fc565b6001600160a01b03929092168252602082015260400190565b634e487b7160e01b600052603260045260246000fd5b600081518084526020808501945080840160005b83811015614dfc57815187529582019590820190600101614de0565b509495945050505050565b6001600160a01b0384168152606060208201819052600090614e2b90830185614dcc565b90508215156040830152949350505050565b8082028115828204841417612aba57612aba6148ff565b634e487b7160e01b600052601260045260246000fd5b600082614e7957614e79614e54565b500490565b606081526000614e916060830186614dcc565b60208301949094525060400152919050565b61ffff841681526001600160a01b0383166020820152606060408201819052600090611c2d908301846142fc565b6001600160a01b0386811682526020820186905261ffff851660408301528316606082015260a060808201819052600090613bb3908301846142fc565b61ffff861681526001600160a01b038516602082015260a060408201819052600090614f3c908301866142fc565b84151560608401528281036080840152614f5681856142fc565b98975050505050505050565b60008060408385031215614f7557600080fd5b505080516020909101519092909150565b61ffff8716815260c060208201526000614fa360c08301886142fc565b8281036040840152614fb581886142fc565b6001600160a01b0387811660608601528616608085015283810360a08501529050614fe081856142fc565b9998505050505050505050565b6020808252602b908201527f496e697469616c697a61626c653a20636f6e7472616374206973206e6f74206960408201526a6e697469616c697a696e6760a81b606082015260800190565b60006020828403121561504a57600080fd5b815160ff81168114610c5157600080fd5b60006020828403121561506d57600080fd5b8151610c518161441d565b61ffff8616815260a06020820152600061509560a08301876142fc565b6001600160401b038616604084015282810360608401526150b681866142fc565b90508281036080840152614f5681856142fc565b93845260ff9290921660208401526040830152606082015260800190565b6000602082840312156150fa57600080fd5b815160058110610c5157600080fd5b600080828403604081121561511d57600080fd5b835192506020601f198201121561513357600080fd5b5061513c61445e565b6020939093015183525092909150565b600080828403606081121561516057600080fd5b835192506040601f198201121561517657600080fd5b50604080519081016001600160401b038111828210171561519957615199614448565b60409081526020858101518352940151938101939093525092909150565b60008082840360408112156151cb57600080fd5b835192506020601f19820112156151e157600080fd5b506151ea61445e565b60208401516151f881614380565b8152919491935090915050565b602081526000825160a0602084015261522160c08401826142fc565b905060018060a01b0360208501511660408401526040840151606084015260608401516080840152608084015160a08401528091505092915050565b60a0810161526b828561496a565b60018060a01b0383511660208301526020830151604083015260408301516060830152606083015160808301529392505050565b6020808252825182820181905260009190848201906040850190845b818110156152dd57835163ffffffff16835292840192918401916001016152bb565b50909695505050505050565b60006001600160401b0382111561530257615302614448565b5060051b60200190565b600082601f83011261531d57600080fd5b8151602061532d6144fc836152e9565b82815260059290921b8401810191818101908684111561534c57600080fd5b8286015b8481101561537057805161536381614380565b8352918301918301615350565b509695505050505050565b6000806040838503121561538e57600080fd5b82516001600160401b03808211156153a557600080fd5b818501915085601f8301126153b957600080fd5b815160206153c96144fc836152e9565b82815260059290921b840181019181810190898411156153e857600080fd5b948201945b838610156154165785518060060b81146154075760008081fd5b825294820194908201906153ed565b9188015191965090935050508082111561542f57600080fd5b5061543c8582860161530c565b9150509250929050565b600682810b9082900b03667fffffffffffff198112667fffffffffffff82131715612aba57612aba6148ff565b6001600160a01b03828116828216039080821115615493576154936148ff565b5092915050565b60008160060b8360060b806154b1576154b1614e54565b667fffffffffffff198214600019821416156154cf576154cf6148ff565b90059392505050565b60008260060b806154eb576154eb614e54565b808360060b0791505092915050565b60008160020b627fffff198103615513576155136148ff565b6000190192915050565b6001600160c01b03828116828216818102831692918115828504821417615546576155466148ff565b50505092915050565b60006001600160c01b038381168061556957615569614e54565b9216919091049291505056feb0c58532a125fc3c0adccaef396bf65344a4d5781cec2e4c593e6b611d75f150a2646970667358221220fef4aa44cfc45e03e33b6c972dc1d909f6c87bc603d41f9cbcfcfdd1ce074bba64736f6c63430008130033",
  "linkReferences": {},
  "deployedLinkReferences": {}
}