{
  "_format": "hh-sol-artifact-1",
  "contractName": "MockPearlStrategy",
  "sourceName": "contracts/mock/MockPearlStrategy.sol",
  "abi": [
    {
      "inputs": [
        {
          "internalType": "uint256",
          "name": "messageType",
          "type": "uint256"
        }
      ],
      "name": "IncorrectMessageType",
      "type": "error"
    },
    {
      "inputs": [
        {
          "internalType": "uint256",
          "name": "amount",
          "type": "uint256"
        },
        {
          "internalType": "uint256",
          "name": "balance",
          "type": "uint256"
        }
      ],
      "name": "InsufficientFunds",
      "type": "error"
    },
    {
      "inputs": [],
      "name": "SwapHelperOnly",
      "type": "error"
    },
    {
      "anonymous": false,
      "inputs": [
        {
          "indexed": false,
          "internalType": "uint256",
          "name": "debtOutstanding",
          "type": "uint256"
        }
      ],
      "name": "AdjustedPosition",
      "type": "event"
    },
    {
      "anonymous": false,
      "inputs": [
        {
          "indexed": false,
          "internalType": "uint8",
          "name": "version",
          "type": "uint8"
        }
      ],
      "name": "Initialized",
      "type": "event"
    },
    {
      "anonymous": false,
      "inputs": [
        {
          "indexed": false,
          "internalType": "uint16",
          "name": "_srcChainId",
          "type": "uint16"
        },
        {
          "indexed": false,
          "internalType": "bytes",
          "name": "_srcAddress",
          "type": "bytes"
        },
        {
          "indexed": false,
          "internalType": "uint64",
          "name": "_nonce",
          "type": "uint64"
        },
        {
          "indexed": false,
          "internalType": "bytes",
          "name": "_payload",
          "type": "bytes"
        },
        {
          "indexed": false,
          "internalType": "bytes",
          "name": "_reason",
          "type": "bytes"
        }
      ],
      "name": "MessageFailed",
      "type": "event"
    },
    {
      "anonymous": false,
      "inputs": [
        {
          "indexed": true,
          "internalType": "address",
          "name": "src",
          "type": "address"
        },
        {
          "indexed": true,
          "internalType": "address",
          "name": "dst",
          "type": "address"
        },
        {
          "indexed": true,
          "internalType": "uint256",
          "name": "amountOut",
          "type": "uint256"
        },
        {
          "indexed": false,
          "internalType": "uint256",
          "name": "amountIn",
          "type": "uint256"
        }
      ],
      "name": "Notified",
      "type": "event"
    },
    {
      "anonymous": false,
      "inputs": [
        {
          "indexed": true,
          "internalType": "address",
          "name": "previousOwner",
          "type": "address"
        },
        {
          "indexed": true,
          "internalType": "address",
          "name": "newOwner",
          "type": "address"
        }
      ],
      "name": "OwnershipTransferred",
      "type": "event"
    },
    {
      "anonymous": false,
      "inputs": [
        {
          "indexed": false,
          "internalType": "uint16",
          "name": "_srcChainId",
          "type": "uint16"
        },
        {
          "indexed": false,
          "internalType": "bytes",
          "name": "_srcAddress",
          "type": "bytes"
        },
        {
          "indexed": false,
          "internalType": "uint64",
          "name": "_nonce",
          "type": "uint64"
        },
        {
          "indexed": false,
          "internalType": "bytes32",
          "name": "_payloadHash",
          "type": "bytes32"
        }
      ],
      "name": "RetryMessageSuccess",
      "type": "event"
    },
    {
      "anonymous": false,
      "inputs": [
        {
          "indexed": false,
          "internalType": "uint16",
          "name": "_dstChainId",
          "type": "uint16"
        },
        {
          "indexed": false,
          "internalType": "uint16",
          "name": "_type",
          "type": "uint16"
        },
        {
          "indexed": false,
          "internalType": "uint256",
          "name": "_minDstGas",
          "type": "uint256"
        }
      ],
      "name": "SetMinDstGas",
      "type": "event"
    },
    {
      "anonymous": false,
      "inputs": [
        {
          "indexed": false,
          "internalType": "address",
          "name": "precrime",
          "type": "address"
        }
      ],
      "name": "SetPrecrime",
      "type": "event"
    },
    {
      "anonymous": false,
      "inputs": [
        {
          "indexed": false,
          "internalType": "uint16",
          "name": "_remoteChainId",
          "type": "uint16"
        },
        {
          "indexed": false,
          "internalType": "bytes",
          "name": "_path",
          "type": "bytes"
        }
      ],
      "name": "SetTrustedRemote",
      "type": "event"
    },
    {
      "anonymous": false,
      "inputs": [
        {
          "indexed": false,
          "internalType": "uint16",
          "name": "_remoteChainId",
          "type": "uint16"
        },
        {
          "indexed": false,
          "internalType": "bytes",
          "name": "_remoteAddress",
          "type": "bytes"
        }
      ],
      "name": "SetTrustedRemoteAddress",
      "type": "event"
    },
    {
      "anonymous": false,
      "inputs": [
        {
          "indexed": true,
          "internalType": "address",
          "name": "token",
          "type": "address"
        },
        {
          "indexed": false,
          "internalType": "uint256",
          "name": "amount",
          "type": "uint256"
        },
        {
          "indexed": false,
          "internalType": "address",
          "name": "sender",
          "type": "address"
        }
      ],
      "name": "SgReceived",
      "type": "event"
    },
    {
      "anonymous": false,
      "inputs": [
        {
          "indexed": false,
          "internalType": "address",
          "name": "newStrategy",
          "type": "address"
        }
      ],
      "name": "StrategyMigrated",
      "type": "event"
    },
    {
      "anonymous": false,
      "inputs": [
        {
          "indexed": false,
          "internalType": "uint256",
          "name": "profit",
          "type": "uint256"
        },
        {
          "indexed": false,
          "internalType": "uint256",
          "name": "loss",
          "type": "uint256"
        },
        {
          "indexed": false,
          "internalType": "uint256",
          "name": "debtPayment",
          "type": "uint256"
        },
        {
          "indexed": false,
          "internalType": "uint256",
          "name": "giveToStrategy",
          "type": "uint256"
        },
        {
          "indexed": false,
          "internalType": "uint256",
          "name": "requestFromStrategy",
          "type": "uint256"
        },
        {
          "indexed": false,
          "internalType": "uint256",
          "name": "creditAvailable",
          "type": "uint256"
        },
        {
          "indexed": false,
          "internalType": "uint256",
          "name": "totalAssets",
          "type": "uint256"
        }
      ],
      "name": "StrategyReported",
      "type": "event"
    },
    {
      "inputs": [],
      "name": "DEFAULT_PAYLOAD_SIZE_LIMIT",
      "outputs": [
        {
          "internalType": "uint256",
          "name": "",
          "type": "uint256"
        }
      ],
      "stateMutability": "view",
      "type": "function"
    },
    {
      "inputs": [],
      "name": "DEFAULT_SLIPPAGE",
      "outputs": [
        {
          "internalType": "uint256",
          "name": "",
          "type": "uint256"
        }
      ],
      "stateMutability": "view",
      "type": "function"
    },
    {
      "inputs": [
        {
          "internalType": "uint256",
          "name": "_debtOutstanding",
          "type": "uint256"
        }
      ],
      "name": "adjustPosition",
      "outputs": [],
      "stateMutability": "nonpayable",
      "type": "function"
    },
    {
      "inputs": [],
      "name": "adjustedTo1InchSlippage",
      "outputs": [
        {
          "internalType": "uint8",
          "name": "",
          "type": "uint8"
        }
      ],
      "stateMutability": "view",
      "type": "function"
    },
    {
      "inputs": [],
      "name": "balanceOfLpStaked",
      "outputs": [
        {
          "internalType": "uint256",
          "name": "",
          "type": "uint256"
        }
      ],
      "stateMutability": "view",
      "type": "function"
    },
    {
      "inputs": [],
      "name": "balanceOfPearlRewards",
      "outputs": [
        {
          "internalType": "uint256",
          "name": "",
          "type": "uint256"
        }
      ],
      "stateMutability": "view",
      "type": "function"
    },
    {
      "inputs": [],
      "name": "balanceOfWant",
      "outputs": [
        {
          "internalType": "uint256",
          "name": "",
          "type": "uint256"
        }
      ],
      "stateMutability": "view",
      "type": "function"
    },
    {
      "inputs": [
        {
          "internalType": "uint256",
          "name": "epoch",
          "type": "uint256"
        }
      ],
      "name": "callMe",
      "outputs": [],
      "stateMutability": "nonpayable",
      "type": "function"
    },
    {
      "inputs": [],
      "name": "clearWant",
      "outputs": [],
      "stateMutability": "nonpayable",
      "type": "function"
    },
    {
      "inputs": [],
      "name": "currentChainId",
      "outputs": [
        {
          "internalType": "uint16",
          "name": "",
          "type": "uint16"
        }
      ],
      "stateMutability": "view",
      "type": "function"
    },
    {
      "inputs": [
        {
          "internalType": "uint256",
          "name": "_daiAmount",
          "type": "uint256"
        }
      ],
      "name": "daiToWant",
      "outputs": [
        {
          "internalType": "uint256",
          "name": "",
          "type": "uint256"
        }
      ],
      "stateMutability": "view",
      "type": "function"
    },
    {
      "inputs": [],
      "name": "emergencyExit",
      "outputs": [
        {
          "internalType": "bool",
          "name": "",
          "type": "bool"
        }
      ],
      "stateMutability": "view",
      "type": "function"
    },
    {
      "inputs": [],
      "name": "estimatedTotalAssets",
      "outputs": [
        {
          "internalType": "uint256",
          "name": "",
          "type": "uint256"
        }
      ],
      "stateMutability": "view",
      "type": "function"
    },
    {
      "inputs": [
        {
          "internalType": "uint256",
          "name": "_stakedLpTokens",
          "type": "uint256"
        }
      ],
      "name": "exitPosition",
      "outputs": [],
      "stateMutability": "nonpayable",
      "type": "function"
    },
    {
      "inputs": [
        {
          "internalType": "uint16",
          "name": "",
          "type": "uint16"
        },
        {
          "internalType": "bytes",
          "name": "",
          "type": "bytes"
        },
        {
          "internalType": "uint64",
          "name": "",
          "type": "uint64"
        }
      ],
      "name": "failedMessages",
      "outputs": [
        {
          "internalType": "bytes32",
          "name": "",
          "type": "bytes32"
        }
      ],
      "stateMutability": "view",
      "type": "function"
    },
    {
      "inputs": [
        {
          "internalType": "uint16",
          "name": "_srcChainId",
          "type": "uint16"
        },
        {
          "internalType": "bytes",
          "name": "_srcAddress",
          "type": "bytes"
        }
      ],
      "name": "forceResumeReceive",
      "outputs": [],
      "stateMutability": "nonpayable",
      "type": "function"
    },
    {
      "inputs": [
        {
          "internalType": "uint16",
          "name": "_version",
          "type": "uint16"
        },
        {
          "internalType": "uint16",
          "name": "_chainId",
          "type": "uint16"
        },
        {
          "internalType": "address",
          "name": "",
          "type": "address"
        },
        {
          "internalType": "uint256",
          "name": "_configType",
          "type": "uint256"
        }
      ],
      "name": "getConfig",
      "outputs": [
        {
          "internalType": "bytes",
          "name": "",
          "type": "bytes"
        }
      ],
      "stateMutability": "view",
      "type": "function"
    },
    {
      "inputs": [
        {
          "internalType": "bytes32",
          "name": "_messageHash",
          "type": "bytes32"
        }
      ],
      "name": "getEthSignedMessageHash",
      "outputs": [
        {
          "internalType": "bytes32",
          "name": "",
          "type": "bytes32"
        }
      ],
      "stateMutability": "pure",
      "type": "function"
    },
    {
      "inputs": [
        {
          "internalType": "uint16",
          "name": "_remoteChainId",
          "type": "uint16"
        }
      ],
      "name": "getTrustedRemoteAddress",
      "outputs": [
        {
          "internalType": "bytes",
          "name": "",
          "type": "bytes"
        }
      ],
      "stateMutability": "view",
      "type": "function"
    },
    {
      "inputs": [
        {
          "internalType": "uint256",
          "name": "_totalDebt",
          "type": "uint256"
        },
        {
          "internalType": "uint256",
          "name": "_debtOutstanding",
          "type": "uint256"
        },
        {
          "internalType": "uint256",
          "name": "_creditAvailable",
          "type": "uint256"
        },
        {
          "internalType": "uint256",
          "name": "_debtRatio",
          "type": "uint256"
        },
        {
          "internalType": "bytes",
          "name": "_signature",
          "type": "bytes"
        }
      ],
      "name": "harvest",
      "outputs": [],
      "stateMutability": "nonpayable",
      "type": "function"
    },
    {
      "inputs": [
        {
          "internalType": "address",
          "name": "_lzEndpoint",
          "type": "address"
        },
        {
          "internalType": "address",
          "name": "_strategist",
          "type": "address"
        },
        {
          "internalType": "contract IERC20",
          "name": "_want",
          "type": "address"
        },
        {
          "internalType": "address",
          "name": "_vault",
          "type": "address"
        },
        {
          "internalType": "uint16",
          "name": "_vaultChainId",
          "type": "uint16"
        },
        {
          "internalType": "uint16",
          "name": "_currentChainId",
          "type": "uint16"
        },
        {
          "internalType": "address",
          "name": "_sgBridge",
          "type": "address"
        },
        {
          "internalType": "address",
          "name": "_router",
          "type": "address"
        },
        {
          "internalType": "address",
          "name": "_swapHelper",
          "type": "address"
        }
      ],
      "name": "initialize",
      "outputs": [],
      "stateMutability": "nonpayable",
      "type": "function"
    },
    {
      "inputs": [
        {
          "internalType": "uint16",
          "name": "_srcChainId",
          "type": "uint16"
        },
        {
          "internalType": "bytes",
          "name": "_srcAddress",
          "type": "bytes"
        }
      ],
      "name": "isTrustedRemote",
      "outputs": [
        {
          "internalType": "bool",
          "name": "",
          "type": "bool"
        }
      ],
      "stateMutability": "view",
      "type": "function"
    },
    {
      "inputs": [],
      "name": "liquidateAllPositions",
      "outputs": [
        {
          "internalType": "uint256",
          "name": "",
          "type": "uint256"
        }
      ],
      "stateMutability": "nonpayable",
      "type": "function"
    },
    {
      "inputs": [
        {
          "internalType": "uint256",
          "name": "_amountNeeded",
          "type": "uint256"
        }
      ],
      "name": "liquidatePosition",
      "outputs": [],
      "stateMutability": "nonpayable",
      "type": "function"
    },
    {
      "inputs": [],
      "name": "lzEndpoint",
      "outputs": [
        {
          "internalType": "contract ILayerZeroEndpointUpgradeable",
          "name": "",
          "type": "address"
        }
      ],
      "stateMutability": "view",
      "type": "function"
    },
    {
      "inputs": [
        {
          "internalType": "uint16",
          "name": "_srcChainId",
          "type": "uint16"
        },
        {
          "internalType": "bytes",
          "name": "_srcAddress",
          "type": "bytes"
        },
        {
          "internalType": "uint64",
          "name": "_nonce",
          "type": "uint64"
        },
        {
          "internalType": "bytes",
          "name": "_payload",
          "type": "bytes"
        }
      ],
      "name": "lzReceive",
      "outputs": [],
      "stateMutability": "nonpayable",
      "type": "function"
    },
    {
      "inputs": [
        {
          "internalType": "uint16",
          "name": "",
          "type": "uint16"
        },
        {
          "internalType": "uint16",
          "name": "",
          "type": "uint16"
        }
      ],
      "name": "minDstGasLookup",
      "outputs": [
        {
          "internalType": "uint256",
          "name": "",
          "type": "uint256"
        }
      ],
      "stateMutability": "view",
      "type": "function"
    },
    {
      "inputs": [],
      "name": "name",
      "outputs": [
        {
          "internalType": "string",
          "name": "",
          "type": "string"
        }
      ],
      "stateMutability": "pure",
      "type": "function"
    },
    {
      "inputs": [
        {
          "internalType": "uint16",
          "name": "_srcChainId",
          "type": "uint16"
        },
        {
          "internalType": "bytes",
          "name": "_srcAddress",
          "type": "bytes"
        },
        {
          "internalType": "uint64",
          "name": "_nonce",
          "type": "uint64"
        },
        {
          "internalType": "bytes",
          "name": "_payload",
          "type": "bytes"
        }
      ],
      "name": "nonblockingLzReceive",
      "outputs": [],
      "stateMutability": "nonpayable",
      "type": "function"
    },
    {
      "inputs": [
        {
          "internalType": "address",
          "name": "src",
          "type": "address"
        },
        {
          "internalType": "address",
          "name": "dst",
          "type": "address"
        },
        {
          "internalType": "uint256",
          "name": "amountOut",
          "type": "uint256"
        },
        {
          "internalType": "uint256",
          "name": "amountIn",
          "type": "uint256"
        }
      ],
      "name": "notifyCallback",
      "outputs": [],
      "stateMutability": "nonpayable",
      "type": "function"
    },
    {
      "inputs": [],
      "name": "owner",
      "outputs": [
        {
          "internalType": "address",
          "name": "",
          "type": "address"
        }
      ],
      "stateMutability": "view",
      "type": "function"
    },
    {
      "inputs": [
        {
          "internalType": "uint16",
          "name": "",
          "type": "uint16"
        }
      ],
      "name": "payloadSizeLimitLookup",
      "outputs": [
        {
          "internalType": "uint256",
          "name": "",
          "type": "uint256"
        }
      ],
      "stateMutability": "view",
      "type": "function"
    },
    {
      "inputs": [
        {
          "internalType": "uint256",
          "name": "_pearlAmount",
          "type": "uint256"
        }
      ],
      "name": "pearlToWant",
      "outputs": [
        {
          "internalType": "uint256",
          "name": "",
          "type": "uint256"
        }
      ],
      "stateMutability": "view",
      "type": "function"
    },
    {
      "inputs": [],
      "name": "precrime",
      "outputs": [
        {
          "internalType": "address",
          "name": "",
          "type": "address"
        }
      ],
      "stateMutability": "view",
      "type": "function"
    },
    {
      "inputs": [],
      "name": "renounceOwnership",
      "outputs": [],
      "stateMutability": "nonpayable",
      "type": "function"
    },
    {
      "inputs": [
        {
          "internalType": "uint16",
          "name": "_srcChainId",
          "type": "uint16"
        },
        {
          "internalType": "bytes",
          "name": "_srcAddress",
          "type": "bytes"
        },
        {
          "internalType": "uint64",
          "name": "_nonce",
          "type": "uint64"
        },
        {
          "internalType": "bytes",
          "name": "_payload",
          "type": "bytes"
        }
      ],
      "name": "retryMessage",
      "outputs": [],
      "stateMutability": "payable",
      "type": "function"
    },
    {
      "inputs": [],
      "name": "revokeFunds",
      "outputs": [],
      "stateMutability": "nonpayable",
      "type": "function"
    },
    {
      "inputs": [
        {
          "internalType": "uint256",
          "name": "_pearlAmount",
          "type": "uint256"
        }
      ],
      "name": "sellPearl",
      "outputs": [],
      "stateMutability": "nonpayable",
      "type": "function"
    },
    {
      "inputs": [
        {
          "internalType": "uint256",
          "name": "_usdrAmount",
          "type": "uint256"
        }
      ],
      "name": "sellUsdr",
      "outputs": [],
      "stateMutability": "nonpayable",
      "type": "function"
    },
    {
      "inputs": [
        {
          "internalType": "uint16",
          "name": "_version",
          "type": "uint16"
        },
        {
          "internalType": "uint16",
          "name": "_chainId",
          "type": "uint16"
        },
        {
          "internalType": "uint256",
          "name": "_configType",
          "type": "uint256"
        },
        {
          "internalType": "bytes",
          "name": "_config",
          "type": "bytes"
        }
      ],
      "name": "setConfig",
      "outputs": [],
      "stateMutability": "nonpayable",
      "type": "function"
    },
    {
      "inputs": [
        {
          "internalType": "bool",
          "name": "_emergencyExit",
          "type": "bool"
        }
      ],
      "name": "setEmergencyExit",
      "outputs": [],
      "stateMutability": "nonpayable",
      "type": "function"
    },
    {
      "inputs": [
        {
          "internalType": "uint16",
          "name": "_dstChainId",
          "type": "uint16"
        },
        {
          "internalType": "uint16",
          "name": "_packetType",
          "type": "uint16"
        },
        {
          "internalType": "uint256",
          "name": "_minGas",
          "type": "uint256"
        }
      ],
      "name": "setMinDstGas",
      "outputs": [],
      "stateMutability": "nonpayable",
      "type": "function"
    },
    {
      "inputs": [
        {
          "internalType": "uint16",
          "name": "_dstChainId",
          "type": "uint16"
        },
        {
          "internalType": "uint256",
          "name": "_size",
          "type": "uint256"
        }
      ],
      "name": "setPayloadSizeLimit",
      "outputs": [],
      "stateMutability": "nonpayable",
      "type": "function"
    },
    {
      "inputs": [
        {
          "internalType": "address",
          "name": "_precrime",
          "type": "address"
        }
      ],
      "name": "setPrecrime",
      "outputs": [],
      "stateMutability": "nonpayable",
      "type": "function"
    },
    {
      "inputs": [
        {
          "internalType": "uint16",
          "name": "_version",
          "type": "uint16"
        }
      ],
      "name": "setReceiveVersion",
      "outputs": [],
      "stateMutability": "nonpayable",
      "type": "function"
    },
    {
      "inputs": [
        {
          "internalType": "uint16",
          "name": "_version",
          "type": "uint16"
        }
      ],
      "name": "setSendVersion",
      "outputs": [],
      "stateMutability": "nonpayable",
      "type": "function"
    },
    {
      "inputs": [
        {
          "internalType": "uint256",
          "name": "_slippage",
          "type": "uint256"
        }
      ],
      "name": "setSlippage",
      "outputs": [],
      "stateMutability": "nonpayable",
      "type": "function"
    },
    {
      "inputs": [
        {
          "internalType": "address",
          "name": "_strategist",
          "type": "address"
        }
      ],
      "name": "setStrategist",
      "outputs": [],
      "stateMutability": "nonpayable",
      "type": "function"
    },
    {
      "inputs": [
        {
          "internalType": "address",
          "name": "__swapHelper",
          "type": "address"
        }
      ],
      "name": "setSwapHelper",
      "outputs": [],
      "stateMutability": "nonpayable",
      "type": "function"
    },
    {
      "inputs": [
        {
          "internalType": "uint16",
          "name": "_srcChainId",
          "type": "uint16"
        },
        {
          "internalType": "bytes",
          "name": "_path",
          "type": "bytes"
        }
      ],
      "name": "setTrustedRemote",
      "outputs": [],
      "stateMutability": "nonpayable",
      "type": "function"
    },
    {
      "inputs": [
        {
          "internalType": "uint16",
          "name": "_remoteChainId",
          "type": "uint16"
        },
        {
          "internalType": "bytes",
          "name": "_remoteAddress",
          "type": "bytes"
        }
      ],
      "name": "setTrustedRemoteAddress",
      "outputs": [],
      "stateMutability": "nonpayable",
      "type": "function"
    },
    {
      "inputs": [],
      "name": "sgBridge",
      "outputs": [
        {
          "internalType": "contract ISgBridge",
          "name": "",
          "type": "address"
        }
      ],
      "stateMutability": "view",
      "type": "function"
    },
    {
      "inputs": [
        {
          "internalType": "uint16",
          "name": "",
          "type": "uint16"
        },
        {
          "internalType": "bytes",
          "name": "_srcAddress",
          "type": "bytes"
        },
        {
          "internalType": "uint256",
          "name": "",
          "type": "uint256"
        },
        {
          "internalType": "address",
          "name": "_token",
          "type": "address"
        },
        {
          "internalType": "uint256",
          "name": "_amountLD",
          "type": "uint256"
        },
        {
          "internalType": "bytes",
          "name": "",
          "type": "bytes"
        }
      ],
      "name": "sgReceive",
      "outputs": [],
      "stateMutability": "nonpayable",
      "type": "function"
    },
    {
      "inputs": [],
      "name": "sgRouter",
      "outputs": [
        {
          "internalType": "contract IStargateRouter",
          "name": "",
          "type": "address"
        }
      ],
      "stateMutability": "view",
      "type": "function"
    },
    {
      "inputs": [],
      "name": "slippage",
      "outputs": [
        {
          "internalType": "uint256",
          "name": "",
          "type": "uint256"
        }
      ],
      "stateMutability": "view",
      "type": "function"
    },
    {
      "inputs": [],
      "name": "strategist",
      "outputs": [
        {
          "internalType": "address",
          "name": "",
          "type": "address"
        }
      ],
      "stateMutability": "view",
      "type": "function"
    },
    {
      "inputs": [],
      "name": "strategistSignMessageHash",
      "outputs": [
        {
          "internalType": "bytes32",
          "name": "",
          "type": "bytes32"
        }
      ],
      "stateMutability": "view",
      "type": "function"
    },
    {
      "inputs": [],
      "name": "swapHelper",
      "outputs": [
        {
          "internalType": "contract IOraclizedSwapHelper",
          "name": "",
          "type": "address"
        }
      ],
      "stateMutability": "view",
      "type": "function"
    },
    {
      "inputs": [
        {
          "internalType": "contract IERC20",
          "name": "_token",
          "type": "address"
        }
      ],
      "name": "sweepToken",
      "outputs": [],
      "stateMutability": "nonpayable",
      "type": "function"
    },
    {
      "inputs": [
        {
          "internalType": "address",
          "name": "newOwner",
          "type": "address"
        }
      ],
      "name": "transferOwnership",
      "outputs": [],
      "stateMutability": "nonpayable",
      "type": "function"
    },
    {
      "inputs": [
        {
          "internalType": "uint16",
          "name": "",
          "type": "uint16"
        }
      ],
      "name": "trustedRemoteLookup",
      "outputs": [
        {
          "internalType": "bytes",
          "name": "",
          "type": "bytes"
        }
      ],
      "stateMutability": "view",
      "type": "function"
    },
    {
      "inputs": [
        {
          "internalType": "uint256",
          "name": "_usdrLpAmount",
          "type": "uint256"
        }
      ],
      "name": "usdrLpToWant",
      "outputs": [
        {
          "internalType": "uint256",
          "name": "",
          "type": "uint256"
        }
      ],
      "stateMutability": "view",
      "type": "function"
    },
    {
      "inputs": [
        {
          "internalType": "uint256",
          "name": "_usdrAmount",
          "type": "uint256"
        }
      ],
      "name": "usdrToWant",
      "outputs": [
        {
          "internalType": "uint256",
          "name": "",
          "type": "uint256"
        }
      ],
      "stateMutability": "view",
      "type": "function"
    },
    {
      "inputs": [],
      "name": "vault",
      "outputs": [
        {
          "internalType": "address",
          "name": "",
          "type": "address"
        }
      ],
      "stateMutability": "view",
      "type": "function"
    },
    {
      "inputs": [],
      "name": "vaultChainId",
      "outputs": [
        {
          "internalType": "uint16",
          "name": "",
          "type": "uint16"
        }
      ],
      "stateMutability": "view",
      "type": "function"
    },
    {
      "inputs": [],
      "name": "want",
      "outputs": [
        {
          "internalType": "contract IERC20",
          "name": "",
          "type": "address"
        }
      ],
      "stateMutability": "view",
      "type": "function"
    },
    {
      "inputs": [],
      "name": "wantDecimals",
      "outputs": [
        {
          "internalType": "uint8",
          "name": "",
          "type": "uint8"
        }
      ],
      "stateMutability": "view",
      "type": "function"
    },
    {
      "inputs": [
        {
          "internalType": "uint256",
          "name": "_wantAmount",
          "type": "uint256"
        }
      ],
      "name": "wantToUsdrLp",
      "outputs": [
        {
          "internalType": "uint256",
          "name": "",
          "type": "uint256"
        }
      ],
      "stateMutability": "view",
      "type": "function"
    },
    {
      "inputs": [
        {
          "internalType": "uint256",
          "name": "_amountNeeded",
          "type": "uint256"
        }
      ],
      "name": "withdrawSome",
      "outputs": [],
      "stateMutability": "nonpayable",
      "type": "function"
    },
    {
      "stateMutability": "payable",
      "type": "receive"
    }
  ],
  "bytecode": "0x608060405234801561001057600080fd5b50615d7b80620000216000396000f3fe60806040526004361061030d5760003560e01c80621d3567146103195780630517cb761461033b57806306fdde031461037157806307e0db17146103b05780630df37483146103d05780630fc6a11c146103f057806310ddb137146104105780631be19560146104305780631f1fcd51146104505780631fe4a686146104705780632d6068431461049057806337fded91146104a55780633d3ccc2f146104ca5780633d8b38f6146104ea5780633e032a3b1461051a5780633eae11121461053e5780633f1f4fa41461055e57806342d65a8d1461058b57806345ee0755146105ab578063495f881e146105cb5780634a5f58d1146105eb57806350bb4beb1461060b5780635641ec0314610620578063567ad85d1461063a578063593178de1461066f5780635b8c41e61461068457806366ad5c8a146106d35780636cbadbfa146106f3578063715018a6146107155780637533d7881461072a57806378dc90591461074a5780638cfd8f5c1461076a5780638da5cb5b146107a25780638f4508d0146107b7578063950c8a74146107cc5780639589c990146107ec5780639606647d1461080c5780639f38369a14610821578063a6c3d16514610841578063a879851014610861578063a9e5082414610877578063ab8236f314610897578063adf076e6146108b7578063ae9b051c146108ea578063b353aaa71461090a578063baf3292d1461092a578063bd7638bf1461094a578063bd79ac131461096a578063c1a3d44c1461098a578063c1feb7ff1461099f578063c4461834146109c0578063c7b9d530146109d6578063cbed8b9c146109f6578063cdddd4e514610a16578063d1deba1f14610a36578063d56739ac14610a49578063d73cd47f14610a5e578063df2a5b3b14610a7e578063e73620c314610a9e578063e964404414610abe578063eb8d72b714610ade578063efbb5cb014610afe578063f056dffe14610b13578063f0fa55a914610b33578063f2fde38b14610b53578063f5ecbdbc14610b73578063fa54080114610b93578063fbfa77cf14610bb3578063fcb988a414610bd357600080fd5b3661031457005b600080fd5b34801561032557600080fd5b50610339610334366004614b43565b610bf3565b005b34801561034757600080fd5b5060ce5461035b906001600160a01b031681565b6040516103689190614bd6565b60405180910390f35b34801561037d57600080fd5b5060408051808201909152600d81526c506561726c537472617465677960981b60208201525b6040516103689190614c3a565b3480156103bc57600080fd5b506103396103cb366004614c4d565b610cdc565b3480156103dc57600080fd5b506103396103eb366004614c68565b610d49565b3480156103fc57600080fd5b5060d15461035b906001600160a01b031681565b34801561041c57600080fd5b5061033961042b366004614c4d565b610d68565b34801561043c57600080fd5b5061033961044b366004614ca7565b610da4565b34801561045c57600080fd5b5060ca5461035b906001600160a01b031681565b34801561047c57600080fd5b5060c95461035b906001600160a01b031681565b34801561049c57600080fd5b50610339610e31565b3480156104b157600080fd5b5060cd5461035b9061010090046001600160a01b031681565b3480156104d657600080fd5b506103396104e5366004614cc4565b610e72565b3480156104f657600080fd5b5061050a610505366004614cdd565b610ea8565b6040519015158152602001610368565b34801561052657600080fd5b5061053060cc5481565b604051908152602001610368565b34801561054a57600080fd5b50610530610559366004614cc4565b610f75565b34801561056a57600080fd5b50610530610579366004614c4d565b60686020526000908152604090205481565b34801561059757600080fd5b506103396105a6366004614cdd565b611003565b3480156105b757600080fd5b506103396105c6366004614d3d565b611076565b3480156105d757600080fd5b506103396105e6366004614e45565b611091565b3480156105f757600080fd5b50610339610606366004614cc4565b611335565b34801561061757600080fd5b5061053061133e565b34801561062c57600080fd5b5060cd5461050a9060ff1681565b34801561064657600080fd5b5060cb5461065c90600160a01b900461ffff1681565b60405161ffff9091168152602001610368565b34801561067b57600080fd5b5061053061134d565b34801561069057600080fd5b5061053061069f366004614ea8565b6097602090815260009384526040808520845180860184018051928152908401958401959095209452929052825290205481565b3480156106df57600080fd5b506103396106ee366004614b43565b6113ab565b3480156106ff57600080fd5b5060cb5461065c90600160b01b900461ffff1681565b34801561072157600080fd5b5061033961147f565b34801561073657600080fd5b506103a3610745366004614c4d565b611493565b34801561075657600080fd5b50610339610765366004614cc4565b61152d565b34801561077657600080fd5b50610530610785366004614f05565b606760209081526000928352604080842090915290825290205481565b3480156107ae57600080fd5b5061035b611536565b3480156107c357600080fd5b50610530611545565b3480156107d857600080fd5b5060695461035b906001600160a01b031681565b3480156107f857600080fd5b50610530610807366004614cc4565b6115ba565b34801561081857600080fd5b50610339611652565b34801561082d57600080fd5b506103a361083c366004614c4d565b6116e5565b34801561084d57600080fd5b5061033961085c366004614cdd565b6117f4565b34801561086d57600080fd5b5061053061264881565b34801561088357600080fd5b50610530610892366004614cc4565b61187d565b3480156108a357600080fd5b506103396108b2366004614f38565b611936565b3480156108c357600080fd5b5060cb546108d890600160c01b900460ff1681565b60405160ff9091168152602001610368565b3480156108f657600080fd5b50610339610905366004614cc4565b611a30565b34801561091657600080fd5b5060655461035b906001600160a01b031681565b34801561093657600080fd5b50610339610945366004614ca7565b611a39565b34801561095657600080fd5b50610339610965366004614fd2565b611a8c565b34801561097657600080fd5b50610530610985366004614cc4565b611d8d565b34801561099657600080fd5b50610530611de5565b3480156109ab57600080fd5b5060d1546108d890600160a01b900460ff1681565b3480156109cc57600080fd5b5061053061271081565b3480156109e257600080fd5b506103396109f1366004614ca7565b611e16565b348015610a0257600080fd5b50610339610a1136600461508a565b611e40565b348015610a2257600080fd5b50610339610a31366004614cc4565b611eb9565b610339610a44366004614b43565b611ec7565b348015610a5557600080fd5b506105306120dd565b348015610a6a57600080fd5b50610339610a79366004614ca7565b61210f565b348015610a8a57600080fd5b50610339610a993660046150f8565b612139565b348015610aaa57600080fd5b50610339610ab9366004614cc4565b6121eb565b348015610aca57600080fd5b50610339610ad9366004614cc4565b61220b565b348015610aea57600080fd5b50610339610af9366004614cdd565b612214565b348015610b0a57600080fd5b5061053061226e565b348015610b1f57600080fd5b50610339610b2e366004615134565b612388565b348015610b3f57600080fd5b50610339610b4e366004614cc4565b612407565b348015610b5f57600080fd5b50610339610b6e366004614ca7565b612414565b348015610b7f57600080fd5b506103a3610b8e36600461517a565b61248a565b348015610b9f57600080fd5b50610530610bae366004614cc4565b61251d565b348015610bbf57600080fd5b5060cb5461035b906001600160a01b031681565b348015610bdf57600080fd5b50610530610bee366004614cc4565b61256f565b6065546001600160a01b03163314610c5e5760405162461bcd60e51b815260206004820152602360248201527f4261736553747261746567793a3a496e76616c6964456e64706f696e7443616c6044820152623632b960e91b60648201526084015b60405180910390fd5b610cd48686868080601f01602080910402602001604051908101604052809392919081815260200183838082843760009201919091525050604080516020601f89018190048102820181019092528781528993509150879087908190840183828082843760009201919091525061277392505050565b505050505050565b610ce46127ec565b6065546040516307e0db1760e01b815261ffff831660048201526001600160a01b03909116906307e0db17906024015b600060405180830381600087803b158015610d2e57600080fd5b505af1158015610d42573d6000803e3d6000fd5b5050505050565b610d516127ec565b61ffff909116600090815260686020526040902055565b610d706127ec565b6065546040516310ddb13760e01b815261ffff831660048201526001600160a01b03909116906310ddb13790602401610d14565b610dac61284b565b610e2e33826001600160a01b03166370a08231306040518263ffffffff1660e01b8152600401610ddc9190614bd6565b602060405180830381865afa158015610df9573d6000803e3d6000fd5b505050506040513d601f19601f82011682018060405250810190610e1d91906151c7565b6001600160a01b03841691906128a4565b50565b610e3961284b565b60c9546040516001600160a01b03909116904780156108fc02916000818181858888f19350505050158015610e2e573d6000803e3d6000fd5b610e7a61284b565b610e83816128fa565b604051818152600080516020615d26833981519152906020015b60405180910390a150565b61ffff831660009081526066602052604081208054829190610ec9906151e0565b80601f0160208091040260200160405190810160405280929190818152602001828054610ef5906151e0565b8015610f425780601f10610f1757610100808354040283529160200191610f42565b820191906000526020600020905b815481529060010190602001808311610f2557829003601f168201915b505050505090508383604051610f5992919061521a565b60405180910390208180519060200120149150505b9392505050565b6000610ffd82600080516020615d068339815191526001600160a01b031663313ce5676040518163ffffffff1660e01b8152600401602060405180830381865afa158015610fc7573d6000803e3d6000fd5b505050506040513d601f19601f82011682018060405250810190610feb919061522a565b60cb54600160c01b900460ff16612f21565b92915050565b61100b6127ec565b6065546040516342d65a8d60e01b81526001600160a01b03909116906342d65a8d9061103f90869086908690600401615276565b600060405180830381600087803b15801561105957600080fd5b505af115801561106d573d6000803e3d6000fd5b50505050505050565b61107e61284b565b60cd805460ff1916911515919091179055565b61109961284b565b6110a281612f76565b60cd546000908190819060ff161561114e5784156111025760405162461bcd60e51b815260206004820152601e60248201527f4261736553747261746567793a3a44656274526174696f4e6f745a65726f00006044820152606401610c55565b600061110c612ffc565b9050878110156111275761112081896152aa565b925061113c565b8781111561113c5761113988826152aa565b93505b61114683896152aa565b915050611160565b611158888861303e565b919450925090505b600061116c82856152bd565b90506000808883101561118e57611183838a6152aa565b91506000905061119f565b6000915061119c89846152aa565b90505b6000604051806101600160405280306001600160a01b031681526020014281526020018881526020018781526020018681526020018481526020018381526020018b8152602001836111ef61226e565b6111f991906152aa565b815260200160d06000815480929190611211906152d0565b909155508152602001899052905081156112715760cb5460405161126c91849161ffff600160a01b830416916001600160a01b031690611258906002908790602001615321565b604051602081830303815290604052613135565b61129c565b61129c600282604051602001611288929190615321565b604051602081830303815290604052613223565b7fb983e09c034e9c52b5e547cb0589967992b97717733f580cc5ad0afcdc4b522b8160400151826060015183608001518460a001518560c001518660e0015187610100015160405161131f9796959493929190968752602087019590955260408601939093526060850191909152608084015260a083015260c082015260e00190565b60405180910390a1505050505050505050505050565b610e2e816133a3565b6000611348612ffc565b905090565b60d05460cb546040513060601b6001600160601b03191660208201526034810192909252600160b01b900460f01b6001600160f01b031916605482015260009060560160405160208183030381529060405280519060200120905090565b3330146114095760405162461bcd60e51b815260206004820152602660248201527f4e6f6e626c6f636b696e674c7a4170703a2063616c6c6572206d7573742062656044820152650204c7a4170760d41b6064820152608401610c55565b610cd48686868080601f01602080910402602001604051908101604052809392919081815260200183838082843760009201919091525050604080516020601f89018190048102820181019092528781528993509150879087908190840183828082843760009201919091525061340192505050565b6114876127ec565b6114916000613517565b565b606660205260009081526040902080546114ac906151e0565b80601f01602080910402602001604051908101604052809291908181526020018280546114d8906151e0565b80156115255780601f106114fa57610100808354040283529160200191611525565b820191906000526020600020905b81548152906001019060200180831161150857829003601f168201915b505050505081565b610e2e81613569565b6033546001600160a01b031690565b6040516370a0823160e01b8152600090600080516020615ca6833981519152906370a0823190611579903090600401614bd6565b602060405180830381865afa158015611596573d6000803e3d6000fd5b505050506040513d601f19601f8201168201806040525081019061134891906151c7565b6040516328bd9fc160e11b8152600090819073f68c20d6c50706f6c6bd8ee184382518c93b368c9063517b3f829061160690600080516020615cc68339815191529087906004016153d4565b602060405180830381865afa158015611623573d6000803e3d6000fd5b505050506040513d601f19601f8201168201806040525081019061164791906151c7565b9050610f6e81610f75565b61165a61284b565b60ca546040516370a0823160e01b8152611491916001916001600160a01b03909116906370a0823190611691903090600401614bd6565b602060405180830381865afa1580156116ae573d6000803e3d6000fd5b505050506040513d601f19601f820116820180604052508101906116d291906151c7565b60ca546001600160a01b031691906128a4565b61ffff8116600090815260666020526040812080546060929190611708906151e0565b80601f0160208091040260200160405190810160405280929190818152602001828054611734906151e0565b80156117815780601f1061175657610100808354040283529160200191611781565b820191906000526020600020905b81548152906001019060200180831161176457829003601f168201915b5050505050905080516000036117d95760405162461bcd60e51b815260206004820152601d60248201527f4c7a4170703a206e6f20747275737465642070617468207265636f72640000006044820152606401610c55565b610f6e6000601483516117ec91906152aa565b83919061385d565b6117fc6127ec565b818130604051602001611811939291906153ed565b60408051601f1981840301815291815261ffff851660009081526066602052209061183c9082615469565b507f8c0400cfe2d1199b1a725c78960bcc2a344d869b80590d0f2bd005db15a572ce83838360405161187093929190615276565b60405180910390a1505050565b60ca546040516310e1b98f60e21b815260009182918291600080516020615c8683398151915291634386e63c916118d7916001600160a01b0390911690600080516020615d06833981519152906001908a90600401615522565b6040805180830381865afa1580156118f3573d6000803e3d6000fd5b505050506040513d601f19601f82011682018060405250810190611917919061554d565b9150915061192481610f75565b61192e90836152bd565b949350505050565b60ce546001600160a01b031633148061195e575060cd5461010090046001600160a01b031633145b6119a95760405162461bcd60e51b815260206004820152601c60248201527b53674272696467653a3a526f757465724f724272696467654f6e6c7960201b6044820152606401610c55565b60006119b78682601461385d565b6040516020016119c79190615571565b6040516020818303038152906040526119df9061558d565b60601c9050836001600160a01b03167f92073a89a07a000083eb8b2575fc15e7bb936efe55d00727d6942a796d7211a78483604051611a1f9291906155c4565b60405180910390a250505050505050565b610e2e8161396a565b611a416127ec565b606980546001600160a01b0319166001600160a01b0383161790556040517f5db758e995a17ec1ad84bdef7e8c3293a0bd6179bcce400dff5d4c3d87db726b90610e9d908390614bd6565b600054610100900460ff1615808015611aac5750600054600160ff909116105b80611acd5750611abb30613a4f565b158015611acd575060005460ff166001145b611b305760405162461bcd60e51b815260206004820152602e60248201527f496e697469616c697a61626c653a20636f6e747261637420697320616c72656160448201526d191e481a5b9a5d1a585b1a5e995960921b6064820152608401610c55565b6000805460ff191660011790558015611b53576000805461ff0019166101001790555b611b668a8a8a8a8a8a8a8a612648613a5e565b60ca54611b93906001600160a01b03167368b3465833fb72a70ecdf485e0e4c7bd8665fc45600019613c31565b60ca54611bba906001600160a01b0316600080516020615c86833981519152600019613c31565b60d180546001600160a01b0319166001600160a01b038416179055611bfe600080516020615d06833981519152600080516020615c86833981519152600019613c31565b611c27600080516020615ce6833981519152600080516020615ca6833981519152600019613c31565b611c50600080516020615ce6833981519152600080516020615c86833981519152600019613c31565b611c85738f3cf7ad23cd3cadbd9735aff958023239c6a06373195f7b233947d51f4c3b756ad41a5ddb34cebce0600019613c31565b611cae600080516020615cc6833981519152600080516020615c86833981519152600019613c31565b611cc9600080516020615d0683398151915283600019613c31565b611cea738f3cf7ad23cd3cadbd9735aff958023239c6a06383600019613c31565b611d05600080516020615cc683398151915283600019613c31565b61271060cc546064611d1791906155db565b611d2191906155f2565b60d160146101000a81548160ff021916908360ff1602179055508015611d81576000805461ff0019169055604051600181527f7f26b83ff96e1f2b6a682f133852f6798a09c465da95921460cefb38474024989060200160405180910390a15b50505050505050505050565b6000610ffd82738f3cf7ad23cd3cadbd9735aff958023239c6a0636001600160a01b031663313ce5676040518163ffffffff1660e01b8152600401602060405180830381865afa158015610fc7573d6000803e3d6000fd5b60ca546040516370a0823160e01b81526000916001600160a01b0316906370a0823190611579903090600401614bd6565b611e1e6127ec565b60c980546001600160a01b0319166001600160a01b0392909216919091179055565b611e486127ec565b6065546040516332fb62e760e21b81526001600160a01b039091169063cbed8b9c90611e809088908890889088908890600401615614565b600060405180830381600087803b158015611e9a57600080fd5b505af1158015611eae573d6000803e3d6000fd5b505050505050505050565b611ec281613d35565b505050565b61ffff86166000908152609760205260408082209051611eea908890889061521a565b90815260408051602092819003830190206001600160401b03871660009081529252902054905080611f6a5760405162461bcd60e51b815260206004820152602360248201527f4e6f6e626c6f636b696e674c7a4170703a206e6f2073746f726564206d65737360448201526261676560e81b6064820152608401610c55565b808383604051611f7b92919061521a565b604051809103902014611fda5760405162461bcd60e51b815260206004820152602160248201527f4e6f6e626c6f636b696e674c7a4170703a20696e76616c6964207061796c6f616044820152601960fa1b6064820152608401610c55565b61ffff87166000908152609760205260408082209051611ffd908990899061521a565b90815260408051602092819003830181206001600160401b038916600090815290845282902093909355601f88018290048202830182019052868252612095918991899089908190840183828082843760009201919091525050604080516020601f8a018190048102820181019092528881528a93509150889088908190840183828082843760009201919091525061340192505050565b7fc264d91f3adc5588250e1551f547752ca0cfa8f6b530d243b9f9f4cab10ea8e587878787856040516120cc959493929190615642565b60405180910390a150505050505050565b6040516246613160e11b8152600090600080516020615ca683398151915290628cc26290611579903090600401614bd6565b612117613e6a565b60d180546001600160a01b0319166001600160a01b0392909216919091179055565b6121416127ec565b600081116121895760405162461bcd60e51b81526020600482015260156024820152744c7a4170703a20696e76616c6964206d696e47617360581b6044820152606401610c55565b61ffff83811660008181526067602090815260408083209487168084529482529182902085905581519283528201929092529081018290527f9d5c7c0b934da8fefa9c7760c98383778a12dfbfc0c3b3106518f43fb9508ac090606001611870565b6121f36127ec565b600090815260cf60205260409020805460ff19169055565b610e2e81613ed9565b61221c6127ec565b61ffff8316600090815260666020526040902061223a82848361567d565b507ffa41487ad5d6728f0b19276fa1eddc16558578f5109fc39d2dc33c3230470dab83838360405161187093929190615276565b600061227b610892611545565b6040516370a0823160e01b815261230390600080516020615cc6833981519152906370a08231906122b0903090600401614bd6565b602060405180830381865afa1580156122cd573d6000803e3d6000fd5b505050506040513d601f19601f820116820180604052508101906122f191906151c7565b6122f96120dd565b61080791906152bd565b60ca546040516370a0823160e01b81526001600160a01b03909116906370a0823190612333903090600401614bd6565b602060405180830381865afa158015612350573d6000803e3d6000fd5b505050506040513d601f19601f8201168201806040525081019061237491906151c7565b61237e91906152bd565b61134891906152bd565b60d1546001600160a01b031633146123b357604051630336158960e61b815260040160405180910390fd5b81836001600160a01b0316856001600160a01b03167f9b2db766e04dc7ee1cc19d1415531ad5b3fd566db4f745d9a8ad51e3d3fe1bd7846040516123f991815260200190565b60405180910390a450505050565b61240f61284b565b60cc55565b61241c6127ec565b6001600160a01b0381166124815760405162461bcd60e51b815260206004820152602660248201527f4f776e61626c653a206e6577206f776e657220697320746865207a65726f206160448201526564647265737360d01b6064820152608401610c55565b610e2e81613517565b606554604051633d7b2f6f60e21b815261ffff808716600483015285166024820152306044820152606481018390526060916001600160a01b03169063f5ecbdbc90608401600060405180830381865afa1580156124ec573d6000803e3d6000fd5b505050506040513d6000823e601f3d908101601f191682016040526125149190810190615736565b95945050505050565b6040517b0ca2ba3432b932bab69029b4b3b732b21026b2b9b9b0b3b29d05199960211b6020820152603c8101829052600090605c01604051602081830303815290604052805190602001209050919050565b6000806125f0600080516020615ce68339815191526001600160a01b031663313ce5676040518163ffffffff1660e01b8152600401602060405180830381865afa1580156125c1573d6000803e3d6000fd5b505050506040513d601f19601f820116820180604052508101906125e5919061522a565b61089290600a615887565b9050600061267d8460cb60189054906101000a900460ff16600080516020615ce68339815191526001600160a01b031663313ce5676040518163ffffffff1660e01b8152600401602060405180830381865afa158015612654573d6000803e3d6000fd5b505050506040513d601f19601f82011682018060405250810190612678919061522a565b612f21565b905060006126e18360cb60189054906101000a900460ff16600080516020615ce68339815191526001600160a01b031663313ce5676040518163ffffffff1660e01b8152600401602060405180830381865afa158015612654573d6000803e3d6000fd5b905080600080516020615ce68339815191526001600160a01b031663313ce5676040518163ffffffff1660e01b8152600401602060405180830381865afa158015612730573d6000803e3d6000fd5b505050506040513d601f19601f82011682018060405250810190612754919061522a565b61275f90600a615887565b61276990846155db565b61251491906155f2565b6000806127d65a60966366ad5c8a60e01b8989898960405160240161279b9493929190615896565b60408051601f198184030181529190526020810180516001600160e01b03166001600160e01b03199093169290921790915230929190613f37565b9150915081610cd457610cd48686868685613fc3565b336127f5611536565b6001600160a01b0316146114915760405162461bcd60e51b815260206004820181905260248201527f4f776e61626c653a2063616c6c6572206973206e6f7420746865206f776e65726044820152606401610c55565b60c9546001600160a01b031633146114915760405162461bcd60e51b815260206004820152601c60248201527b10985cd954dd1c985d1959de4e8e93db9b1e54dd1c985d1959da5cdd60221b6044820152606401610c55565b611ec28363a9059cbb60e01b84846040516024016128c39291906153d4565b60408051601f198184030181529190526020810180516001600160e01b03166001600160e01b031990931692909217909152614060565b600080516020615ca68339815191526001600160a01b0316633d18b9126040518163ffffffff1660e01b8152600401600060405180830381600087803b15801561294357600080fd5b505af1158015612957573d6000803e3d6000fd5b50506040516370a0823160e01b81526129d69250600080516020615cc683398151915291506370a0823190612990903090600401614bd6565b602060405180830381865afa1580156129ad573d6000803e3d6000fd5b505050506040513d601f19601f820116820180604052508101906129d191906151c7565b6133a3565b60ca546040516370a0823160e01b81526000916001600160a01b0316906370a0823190612a07903090600401614bd6565b602060405180830381865afa158015612a24573d6000803e3d6000fd5b505050506040513d601f19601f82011682018060405250810190612a4891906151c7565b905081811115612afe576000612a5e83836152aa565b90506000612a6d6002836155f2565b60d15460ca546040516310cabd1d60e01b81529293506001600160a01b03808316936310cabd1d93612ac99390921691738f3cf7ad23cd3cadbd9735aff958023239c6a06391879160ff600160a01b90910416906004016158d4565b600060405180830381600087803b158015612ae357600080fd5b505af1158015612af7573d6000803e3d6000fd5b5050505050505b6040516370a0823160e01b8152600090738f3cf7ad23cd3cadbd9735aff958023239c6a063906370a0823190612b38903090600401614bd6565b602060405180830381865afa158015612b55573d6000803e3d6000fd5b505050506040513d601f19601f82011682018060405250810190612b7991906151c7565b90508015612bff5760405163a39fc2c560e01b815273195f7b233947d51f4c3b756ad41a5ddb34cebce09063a39fc2c590612bba90849030906004016155c4565b6020604051808303816000875af1158015612bd9573d6000803e3d6000fd5b505050506040513d601f19601f82011682018060405250810190612bfd91906151c7565b505b6040516370a0823160e01b8152600090600080516020615d06833981519152906370a0823190612c33903090600401614bd6565b602060405180830381865afa158015612c50573d6000803e3d6000fd5b505050506040513d601f19601f82011682018060405250810190612c7491906151c7565b60ca546040516370a0823160e01b81529192506001600160a01b0316906370a0823190612ca5903090600401614bd6565b602060405180830381865afa158015612cc2573d6000803e3d6000fd5b505050506040513d601f19601f82011682018060405250810190612ce691906151c7565b9250600081118015612cf85750600083115b15612e725760ca546040516326283ecf60e21b81526001600160a01b039091166004820152600080516020615d0683398151915260248201526001604482015260648101849052608481018290526000908190600080516020615c86833981519152906398a0fb3c9060a401606060405180830381865afa158015612d81573d6000803e3d6000fd5b505050506040513d601f19601f82011682018060405250810190612da591906158ff565b5060ca54604051635a47ddc360e01b81526001600160a01b039091166004820152600080516020615d068339815191526024820152600160448201819052606482018490526084820183905260a4820181905260c48201523060e4820152426101048201529193509150600080516020615c8683398151915290635a47ddc390610124016060604051808303816000875af1158015612e48573d6000803e3d6000fd5b505050506040513d601f19601f82011682018060405250810190612e6c91906158ff565b50505050505b6040516370a0823160e01b8152600090600080516020615ce6833981519152906370a0823190612ea6903090600401614bd6565b602060405180830381865afa158015612ec3573d6000803e3d6000fd5b505050506040513d601f19601f82011682018060405250810190612ee791906151c7565b90508015610d425760405163b6b55f2560e01b815260048101829052600080516020615ca68339815191529063b6b55f2590602401611e80565b60008260ff168260ff161115612f5757612f3b838361592d565b612f4690600a615887565b612f5090856155db565b9050610f6e565b612f61828461592d565b612f6c90600a615887565b612f5090856155f2565b6000612f8061134d565b90506000612f8d8261251d565b60c9549091506001600160a01b0316612fa68285614135565b6001600160a01b031614611ec25760405162461bcd60e51b815260206004820152601e60248201527f4261736553747261746567793a3a496e76616c69645369676e617475726500006044820152606401610c55565b600061300e613009611545565b613569565b60ca546040516370a0823160e01b81526001600160a01b03909116906370a0823190611579903090600401614bd6565b60008060008061304c61226e565b905085811061306a5761305f86826152aa565b93506000925061307b565b6000935061307881876152aa565b92505b61308d61308885876152bd565b613d35565b505060ca546040516370a0823160e01b81526000916001600160a01b0316906370a08231906130c0903090600401614bd6565b602060405180830381865afa1580156130dd573d6000803e3d6000fd5b505050506040513d601f19601f8201168201806040525081019061310191906151c7565b9050848111613116578094506000925061312c565b61312961312386836152aa565b87614159565b92505b50509250925092565b60cd54604051630dc6346160e01b815260009161010090046001600160a01b031690630dc634619061316f90879087908790600401615946565b602060405180830381865afa15801561318c573d6000803e3d6000fd5b505050506040513d601f19601f820116820180604052508101906131b091906151c7565b60cd5460ca54604051633920455b60e11b81529293506001600160a01b036101009092048216926372408ab69285926131f6929116908a908a908a908a90600401615974565b6000604051808303818588803b15801561320f57600080fd5b505af1158015611d81573d6000803e3d6000fd5b60cb5460408051606083811b6001600160601b03199081166020840152309182901b16603483015282516028818403018152604890920190925260655490926000926001600160a01b03909216916340a7bb109161ffff600160a01b9091041690868561328e61416f565b6040518663ffffffff1660e01b81526004016132ae9594939291906159b1565b6040805180830381865afa1580156132ca573d6000803e3d6000fd5b505050506040513d601f19601f820116820180604052508101906132ee919061554d565b5090508047101561331a5760405162fae2d560e21b815260048101829052476024820152604401610c55565b60655460cb546001600160a01b039091169063c5803100908390600160a01b900461ffff168587308061334b61416f565b6040518863ffffffff1660e01b815260040161336c96959493929190615a05565b6000604051808303818588803b15801561338557600080fd5b505af1158015613399573d6000803e3d6000fd5b5050505050505050565b806000036133ae5750565b60d15460ca546040516310cabd1d60e01b81526001600160a01b03808416936310cabd1d93610d1493600080516020615cc683398151915293909116918791600160a01b90910460ff16906004016158d4565b60cb5461ffff858116600160a01b909204161461346b5760405162461bcd60e51b815260206004820152602260248201527f4261736553747261746567793a3a5661756c74436861696e49644d69736d61746044820152610c6d60f31b6064820152608401610c55565b60006134798482601461385d565b6040516020016134899190615571565b6040516020818303038152906040526134a19061558d565b60cb5460609190911c91506001600160a01b0316811461350e5760405162461bcd60e51b815260206004820152602260248201527f4261736553747261746567793a3a5661756c74416464726573734d69736d61746044820152610c6d60f31b6064820152608401610c55565b610d428261419f565b603380546001600160a01b038381166001600160a01b0319831681179093556040519116919082907f8be0079c531659141344cd1fd0a4f28419497f9722a3daafe3b4186f6b6457e090600090a35050565b600080516020615ca68339815191526001600160a01b0316633d18b9126040518163ffffffff1660e01b8152600401600060405180830381600087803b1580156135b257600080fd5b505af11580156135c6573d6000803e3d6000fd5b50506040516370a0823160e01b81526135ff9250600080516020615cc683398151915291506370a0823190612990903090600401614bd6565b8060000361360a5750565b604051632e1a7d4d60e01b815260048101829052600080516020615ca683398151915290632e1a7d4d90602401600060405180830381600087803b15801561365157600080fd5b505af1158015613665573d6000803e3d6000fd5b505060ca546040516310e1b98f60e21b815260009350839250600080516020615c8683398151915291634386e63c916136bf916001600160a01b031690600080516020615d06833981519152906001908990600401615522565b6040805180830381865afa1580156136db573d6000803e3d6000fd5b505050506040513d601f19601f820116820180604052508101906136ff919061554d565b60ca549193509150600080516020615c8683398151915290630dede6c4906001600160a01b0316600080516020615d06833981519152600187613741886142c0565b61374a886142c0565b6040516001600160e01b031960e089901b1681526001600160a01b03968716600482015295909416602486015291151560448501526064840152608483015260a48201523060c48201524260e48201526101040160408051808303816000875af11580156137bc573d6000803e3d6000fd5b505050506040513d601f19601f820116820180604052508101906137e0919061554d565b50506040516370a0823160e01b8152611ec290600080516020615d06833981519152906370a0823190613817903090600401614bd6565b602060405180830381865afa158015613834573d6000803e3d6000fd5b505050506040513d601f19601f8201168201806040525081019061385891906151c7565b613ed9565b60608161386b81601f6152bd565b10156138aa5760405162461bcd60e51b815260206004820152600e60248201526d736c6963655f6f766572666c6f7760901b6044820152606401610c55565b6138b482846152bd565b845110156138f85760405162461bcd60e51b8152602060048201526011602482015270736c6963655f6f75744f66426f756e647360781b6044820152606401610c55565b6060821580156139175760405191506000825260208201604052613961565b6040519150601f8416801560200281840101858101878315602002848b0101015b81831015613950578051835260209283019201613938565b5050858452601f01601f1916604052505b50949350505050565b806000036139755750565b60006139826108076120dd565b9050818110613a2557600080516020615ca68339815191526001600160a01b0316633d18b9126040518163ffffffff1660e01b8152600401600060405180830381600087803b1580156139d457600080fd5b505af11580156139e8573d6000803e3d6000fd5b50506040516370a0823160e01b8152613a219250600080516020615cc683398151915291506370a0823190612990903090600401614bd6565b5050565b6000613a44613a37610bee84866152aa565b613a3f611545565b614159565b9050611ec281613569565b6001600160a01b03163b151590565b600054610100900460ff16613a855760405162461bcd60e51b8152600401610c5590615a6c565b613a8e896142dd565b60c980546001600160a01b03808b166001600160a01b03199283161790925560ca80548a8416908316811790915560cb8054938a1661ffff8a16600160a01b029093166001600160b01b0319909416939093179190911790915560cc8290556040805163313ce56760e01b8152905163313ce567916004808201926020929091908290030181865afa158015613b28573d6000803e3d6000fd5b505050506040513d601f19601f82011682018060405250810190613b4c919061522a565b60cb8054600060d05562ffffff60b01b1916600160c01b60ff939093169290920261ffff60b01b191691909117600160b01b61ffff87160217905560cd8054610100600160a81b0319166101006001600160a01b03868116919091029190911790915560ce80546001600160a01b03191684831617905560ca5460405163095ea7b360e01b815291169063095ea7b390613bee908690600019906004016153d4565b6020604051808303816000875af1158015613c0d573d6000803e3d6000fd5b505050506040513d601f19601f82011682018060405250810190611d819190615ab7565b801580613cab5750604051636eb1769f60e11b81523060048201526001600160a01b03838116602483015284169063dd62ed3e90604401602060405180830381865afa158015613c85573d6000803e3d6000fd5b505050506040513d601f19601f82011682018060405250810190613ca991906151c7565b155b613d165760405162461bcd60e51b815260206004820152603660248201527f5361666545524332303a20617070726f76652066726f6d206e6f6e2d7a65726f60448201527520746f206e6f6e2d7a65726f20616c6c6f77616e636560501b6064820152608401610c55565b611ec28363095ea7b360e01b84846040516024016128c39291906153d4565b60ca546040516370a0823160e01b8152600091829182916001600160a01b0316906370a0823190613d6a903090600401614bd6565b602060405180830381865afa158015613d87573d6000803e3d6000fd5b505050506040513d601f19601f82011682018060405250810190613dab91906151c7565b9050838110613dbf57509192600092509050565b613dd1613dcc82866152aa565b61396a565b60ca546040516370a0823160e01b81526001600160a01b03909116906370a0823190613e01903090600401614bd6565b602060405180830381865afa158015613e1e573d6000803e3d6000fd5b505050506040513d601f19601f82011682018060405250810190613e4291906151c7565b905080841115613e6057915081613e5981856152aa565b9150613e64565b8392505b50915091565b60c9546001600160a01b0316331480613e8257503330145b6114915760405162461bcd60e51b815260206004820152602260248201527f4261736553747261746567793a3a4f6e6c79537472617465676973744f725365604482015261363360f11b6064820152608401610c55565b80600003613ee45750565b60d15460ca546040516310cabd1d60e01b81526001600160a01b03808416936310cabd1d93610d1493600080516020615d0683398151915293909116918791600160a01b90910460ff16906004016158d4565b6000606060008060008661ffff166001600160401b03811115613f5c57613f5c614d5a565b6040519080825280601f01601f191660200182016040528015613f86576020820181803683370190505b50905060008087516020890160008d8df191503d925086831115613fa8578692505b828152826000602083013e9093509150505b94509492505050565b8180519060200120609760008761ffff1661ffff16815260200190815260200160002085604051613ff49190615571565b9081526040805191829003602090810183206001600160401b0388166000908152915220919091557fe183f33de2837795525b4792ca4cd60535bd77c53b7e7030060bfcf5734d6b0c906140519087908790879087908790615ad4565b60405180910390a15050505050565b60006140b5826040518060400160405280602081526020017f5361666545524332303a206c6f772d6c6576656c2063616c6c206661696c6564815250856001600160a01b03166143159092919063ffffffff16565b90508051600014806140d65750808060200190518101906140d69190615ab7565b611ec25760405162461bcd60e51b815260206004820152602a60248201527f5361666545524332303a204552433230206f7065726174696f6e20646964206e6044820152691bdd081cdd58d8d9595960b21b6064820152608401610c55565b60008060006141448585614324565b9150915061415181614369565b509392505050565b60008183106141685781610f6e565b5090919050565b60408051600160f01b6020820152620f424060228083019190915282518083039091018152604290910190915290565b6000818060200190518101906141b59190615b26565b905060038160048111156141cb576141cb6152e9565b03614216576000828060200190518101906141e69190615b47565b9150506141f681600001516128fa565b8051604051908152600080516020615d2683398151915290602001611870565b600081600481111561422a5761422a6152e9565b03614251576000828060200190518101906142459190615b8a565b915050611ec2816144ae565b6004816004811115614265576142656152e9565b03613a21576000828060200190518101906142809190615bf5565b91505061429081600001516145d8565b80516040517f7c9a2d2ec51230d7dbed27f113a325b7e20aef7b049e68b2339257b5edff5bea9161187091614bd6565b600061271060cc54836142d391906155db565b610ffd91906155f2565b600054610100900460ff166143045760405162461bcd60e51b8152600401610c5590615a6c565b61430c614617565b610e2e81614647565b606061192e8484600085614690565b600080825160410361435a5760208301516040840151606085015160001a61434e8782858561476b565b94509450505050614362565b506000905060025b9250929050565b600081600481111561437d5761437d6152e9565b036143855750565b6001816004811115614399576143996152e9565b036143e15760405162461bcd60e51b815260206004820152601860248201527745434453413a20696e76616c6964207369676e617475726560401b6044820152606401610c55565b60028160048111156143f5576143f56152e9565b036144425760405162461bcd60e51b815260206004820152601f60248201527f45434453413a20696e76616c6964207369676e6174757265206c656e677468006044820152606401610c55565b6003816004811115614456576144566152e9565b03610e2e5760405162461bcd60e51b815260206004820152602260248201527f45434453413a20696e76616c6964207369676e6174757265202773272076616c604482015261756560f01b6064820152608401610c55565b602080820151600090815260cf909152604090205460ff16156145135760405162461bcd60e51b815260206004820152601e60248201527f4261736553747261746567793a3a416c726561647957697468647261776e00006044820152606401610c55565b6000806145238360000151613d35565b91509150600060016040518060800160405280306001600160a01b03168152602001858152602001848152602001866020015181525060405160200161456a929190615c43565b60408051601f19818403018152919052905082156145ab5760cb546145a690849061ffff600160a01b820416906001600160a01b031684613135565b6145b4565b6145b481613223565b505050602090810151600090815260cf90915260409020805460ff19166001179055565b6145e181614822565b60ca546040516370a0823160e01b8152610e2e9183916001600160a01b03909116906370a0823190611691903090600401614bd6565b600054610100900460ff1661463e5760405162461bcd60e51b8152600401610c5590615a6c565b61149133613517565b600054610100900460ff1661466e5760405162461bcd60e51b8152600401610c5590615a6c565b606580546001600160a01b0319166001600160a01b0392909216919091179055565b6060824710156146f15760405162461bcd60e51b815260206004820152602660248201527f416464726573733a20696e73756666696369656e742062616c616e636520666f6044820152651c8818d85b1b60d21b6064820152608401610c55565b600080866001600160a01b0316858760405161470d9190615571565b60006040518083038185875af1925050503d806000811461474a576040519150601f19603f3d011682016040523d82523d6000602084013e61474f565b606091505b509150915061476087838387614a38565b979650505050505050565b6000806fa2a8918ca85bafe22016d0b997e4df60600160ff1b038311156147985750600090506003613fba565b6040805160008082526020820180845289905260ff881692820192909252606081018690526080810185905260019060a0016020604051602081039080840390855afa1580156147ec573d6000803e3d6000fd5b5050604051601f1901519150506001600160a01b03811661481557600060019250925050613fba565b9660009650945050505050565b600080516020615ca6833981519152632e1a7d4d61483e611545565b6040518263ffffffff1660e01b815260040161485c91815260200190565b600060405180830381600087803b15801561487657600080fd5b505af115801561488a573d6000803e3d6000fd5b50506040516370a0823160e01b815261491c9250839150600080516020615ce6833981519152906370a08231906148c5903090600401614bd6565b602060405180830381865afa1580156148e2573d6000803e3d6000fd5b505050506040513d601f19601f8201168201806040525081019061490691906151c7565b600080516020615ce683398151915291906128a4565b6040516370a0823160e01b81526149aa908290600080516020615d06833981519152906370a0823190614953903090600401614bd6565b602060405180830381865afa158015614970573d6000803e3d6000fd5b505050506040513d601f19601f8201168201806040525081019061499491906151c7565b600080516020615d0683398151915291906128a4565b6040516370a0823160e01b8152610e2e908290600080516020615cc6833981519152906370a08231906149e1903090600401614bd6565b602060405180830381865afa1580156149fe573d6000803e3d6000fd5b505050506040513d601f19601f82011682018060405250810190614a2291906151c7565b600080516020615cc683398151915291906128a4565b60608315614aa5578251600003614a9e57614a5285613a4f565b614a9e5760405162461bcd60e51b815260206004820152601d60248201527f416464726573733a2063616c6c20746f206e6f6e2d636f6e74726163740000006044820152606401610c55565b508161192e565b61192e8383815115614aba5781518083602001fd5b8060405162461bcd60e51b8152600401610c559190614c3a565b803561ffff81168114614ae657600080fd5b919050565b60008083601f840112614afd57600080fd5b5081356001600160401b03811115614b1457600080fd5b60208301915083602082850101111561436257600080fd5b80356001600160401b0381168114614ae657600080fd5b60008060008060008060808789031215614b5c57600080fd5b614b6587614ad4565b955060208701356001600160401b0380821115614b8157600080fd5b614b8d8a838b01614aeb565b9097509550859150614ba160408a01614b2c565b94506060890135915080821115614bb757600080fd5b50614bc489828a01614aeb565b979a9699509497509295939492505050565b6001600160a01b0391909116815260200190565b60005b83811015614c05578181015183820152602001614bed565b50506000910152565b60008151808452614c26816020860160208601614bea565b601f01601f19169290920160200192915050565b602081526000610f6e6020830184614c0e565b600060208284031215614c5f57600080fd5b610f6e82614ad4565b60008060408385031215614c7b57600080fd5b614c8483614ad4565b946020939093013593505050565b6001600160a01b0381168114610e2e57600080fd5b600060208284031215614cb957600080fd5b8135610f6e81614c92565b600060208284031215614cd657600080fd5b5035919050565b600080600060408486031215614cf257600080fd5b614cfb84614ad4565b925060208401356001600160401b03811115614d1657600080fd5b614d2286828701614aeb565b9497909650939450505050565b8015158114610e2e57600080fd5b600060208284031215614d4f57600080fd5b8135610f6e81614d2f565b634e487b7160e01b600052604160045260246000fd5b604051602081016001600160401b0381118282101715614d9257614d92614d5a565b60405290565b604051601f8201601f191681016001600160401b0381118282101715614dc057614dc0614d5a565b604052919050565b60006001600160401b03821115614de157614de1614d5a565b50601f01601f191660200190565b600082601f830112614e0057600080fd5b8135614e13614e0e82614dc8565b614d98565b818152846020838601011115614e2857600080fd5b816020850160208301376000918101602001919091529392505050565b600080600080600060a08688031215614e5d57600080fd5b8535945060208601359350604086013592506060860135915060808601356001600160401b03811115614e8f57600080fd5b614e9b88828901614def565b9150509295509295909350565b600080600060608486031215614ebd57600080fd5b614ec684614ad4565b925060208401356001600160401b03811115614ee157600080fd5b614eed86828701614def565b925050614efc60408501614b2c565b90509250925092565b60008060408385031215614f1857600080fd5b614f2183614ad4565b9150614f2f60208401614ad4565b90509250929050565b60008060008060008060c08789031215614f5157600080fd5b614f5a87614ad4565b955060208701356001600160401b0380821115614f7657600080fd5b614f828a838b01614def565b96506040890135955060608901359150614f9b82614c92565b9093506080880135925060a08801359080821115614fb857600080fd5b50614fc589828a01614def565b9150509295509295509295565b60008060008060008060008060006101208a8c031215614ff157600080fd5b8935614ffc81614c92565b985060208a013561500c81614c92565b975060408a013561501c81614c92565b965060608a013561502c81614c92565b955061503a60808b01614ad4565b945061504860a08b01614ad4565b935060c08a013561505881614c92565b925060e08a013561506881614c92565b91506101008a013561507981614c92565b809150509295985092959850929598565b6000806000806000608086880312156150a257600080fd5b6150ab86614ad4565b94506150b960208701614ad4565b93506040860135925060608601356001600160401b038111156150db57600080fd5b6150e788828901614aeb565b969995985093965092949392505050565b60008060006060848603121561510d57600080fd5b61511684614ad4565b925061512460208501614ad4565b9150604084013590509250925092565b6000806000806080858703121561514a57600080fd5b843561515581614c92565b9350602085013561516581614c92565b93969395505050506040820135916060013590565b6000806000806080858703121561519057600080fd5b61519985614ad4565b93506151a760208601614ad4565b925060408501356151b781614c92565b9396929550929360600135925050565b6000602082840312156151d957600080fd5b5051919050565b600181811c908216806151f457607f821691505b60208210810361521457634e487b7160e01b600052602260045260246000fd5b50919050565b8183823760009101908152919050565b60006020828403121561523c57600080fd5b815160ff81168114610f6e57600080fd5b81835281816020850137506000828201602090810191909152601f909101601f19169091010190565b61ffff8416815260406020820152600061251460408301848661524d565b634e487b7160e01b600052601160045260246000fd5b81810381811115610ffd57610ffd615294565b80820180821115610ffd57610ffd615294565b6000600182016152e2576152e2615294565b5060010190565b634e487b7160e01b600052602160045260246000fd5b6005811061531d57634e487b7160e01b600052602160045260246000fd5b9052565b61532b81846152ff565b604060208201526153486040820183516001600160a01b03169052565b6020820151606082015260408201516080820152606082015160a0820152608082015160c082015260a082015160e0820152600060c0830151610100818185015260e085015191506101208281860152818601519250610140915082828601528086015192505061016082818601528186015192508061018086015250506125146101a0840182614c0e565b6001600160a01b03929092168252602082015260400190565b8284823760609190911b6001600160601b0319169101908152601401919050565b601f821115611ec257600081815260208120601f850160051c810160208610156154355750805b601f850160051c820191505b81811015610cd457828155600101615441565b600019600383901b1c191660019190911b1790565b81516001600160401b0381111561548257615482614d5a565b6154968161549084546151e0565b8461540e565b602080601f8311600181146154c557600084156154b35750858301515b6154bd8582615454565b865550610cd4565b600085815260208120601f198616915b828110156154f4578886015182559484019460019091019084016154d5565b50858210156155125787850151600019600388901b60f8161c191681555b5050505050600190811b01905550565b6001600160a01b03948516815292909316602083015215156040820152606081019190915260800190565b6000806040838503121561556057600080fd5b505080516020909101519092909150565b60008251615583818460208701614bea565b9190910192915050565b805160208201516001600160601b031980821692919060148310156155bc5780818460140360031b1b83161693505b505050919050565b9182526001600160a01b0316602082015260400190565b8082028115828204841417610ffd57610ffd615294565b60008261560f57634e487b7160e01b600052601260045260246000fd5b500490565b600061ffff80881683528087166020840152508460408301526080606083015261476060808301848661524d565b61ffff8616815260806020820152600061566060808301868861524d565b6001600160401b0394909416604083015250606001529392505050565b6001600160401b0383111561569457615694614d5a565b6156a8836156a283546151e0565b8361540e565b6000601f8411600181146156d657600085156156c45750838201355b6156ce8682615454565b845550610d42565b600083815260209020601f19861690835b8281101561570757868501358255602094850194600190920191016156e7565b50868210156157245760001960f88860031b161c19848701351681555b505060018560011b0183555050505050565b60006020828403121561574857600080fd5b81516001600160401b0381111561575e57600080fd5b8201601f8101841361576f57600080fd5b805161577d614e0e82614dc8565b81815285602083850101111561579257600080fd5b612514826020830160208601614bea565b600181815b808511156157de5781600019048211156157c4576157c4615294565b808516156157d157918102915b93841c93908002906157a8565b509250929050565b6000826157f557506001610ffd565b8161580257506000610ffd565b816001811461581857600281146158225761583e565b6001915050610ffd565b60ff84111561583357615833615294565b50506001821b610ffd565b5060208310610133831016604e8410600b8410161715615861575081810a610ffd565b61586b83836157a3565b806000190482111561587f5761587f615294565b029392505050565b6000610f6e60ff8416836157e6565b61ffff851681526080602082015260006158b36080830186614c0e565b6001600160401b038516604084015282810360608401526147608185614c0e565b6001600160a01b039485168152929093166020830152604082015260ff909116606082015260800190565b60008060006060848603121561591457600080fd5b8351925060208401519150604084015190509250925092565b60ff8281168282160390811115610ffd57610ffd615294565b61ffff841681526001600160a01b038316602082015260606040820181905260009061251490830184614c0e565b6001600160a01b0386811682526020820186905261ffff851660408301528316606082015260a06080820181905260009061476090830184614c0e565b61ffff861681526001600160a01b038516602082015260a0604082018190526000906159df90830186614c0e565b841515606084015282810360808401526159f98185614c0e565b98975050505050505050565b61ffff8716815260c060208201526000615a2260c0830188614c0e565b8281036040840152615a348188614c0e565b6001600160a01b0387811660608601528616608085015283810360a08501529050615a5f8185614c0e565b9998505050505050505050565b6020808252602b908201527f496e697469616c697a61626c653a20636f6e7472616374206973206e6f74206960408201526a6e697469616c697a696e6760a81b606082015260800190565b600060208284031215615ac957600080fd5b8151610f6e81614d2f565b61ffff8616815260a060208201526000615af160a0830187614c0e565b6001600160401b03861660408401528281036060840152615b128186614c0e565b905082810360808401526159f98185614c0e565b600060208284031215615b3857600080fd5b815160058110610f6e57600080fd5b6000808284036040811215615b5b57600080fd5b835192506020601f1982011215615b7157600080fd5b50615b7a614d70565b6020939093015183525092909150565b6000808284036060811215615b9e57600080fd5b835192506040601f1982011215615bb457600080fd5b50604080519081016001600160401b0381118282101715615bd757615bd7614d5a565b60409081526020858101518352940151938101939093525092909150565b6000808284036040811215615c0957600080fd5b835192506020601f1982011215615c1f57600080fd5b50615c28614d70565b6020840151615c3681614c92565b8152919491935090915050565b60a08101615c5182856152ff565b60018060a01b038351166020830152602083015160408301526040830151606083015260608301516080830152939250505056fe000000000000000000000000cc25c0fd84737f44a7d38649b69491bbf0c7f08300000000000000000000000097bd59a8202f8263c2ec39cf6cf6b438d0b458760000000000000000000000007238390d5f6f64e67c3211c343a410e2a3dec142000000000000000000000000d17cb0f162f133e339c0bbfc18c36c357e681d6b00000000000000000000000040379a439d4f6795b6fc9aa5687db461677a2dbab0c58532a125fc3c0adccaef396bf65344a4d5781cec2e4c593e6b611d75f150a26469706673582212201da0295c71e5489ed1327511f4d33545878237b6575b08b3a3f834f423017fd864736f6c63430008130033",
  "linkReferences": {},
  "deployedLinkReferences": {}
}