{
  "_format": "hh-sol-artifact-1",
  "contractName": "MockPearlStrategy",
  "sourceName": "contracts/mock/MockPearlStrategy.sol",
  "abi": [
    {
      "inputs": [
        {
          "internalType": "uint256",
          "name": "messageType",
          "type": "uint256"
        }
      ],
      "name": "IncorrectMessageType",
      "type": "error"
    },
    {
      "inputs": [
        {
          "internalType": "uint256",
          "name": "amount",
          "type": "uint256"
        },
        {
          "internalType": "uint256",
          "name": "balance",
          "type": "uint256"
        }
      ],
      "name": "InsufficientFunds",
      "type": "error"
    },
    {
      "anonymous": false,
      "inputs": [
        {
          "indexed": false,
          "internalType": "uint256",
          "name": "debtOutstanding",
          "type": "uint256"
        }
      ],
      "name": "AdjustedPosition",
      "type": "event"
    },
    {
      "anonymous": false,
      "inputs": [
        {
          "indexed": true,
          "internalType": "bytes",
          "name": "lowLevelErrorData",
          "type": "bytes"
        }
      ],
      "name": "EmergencyQuoteOnAlternativeDEX",
      "type": "event"
    },
    {
      "anonymous": false,
      "inputs": [
        {
          "indexed": true,
          "internalType": "bytes",
          "name": "lowLevelErrorData",
          "type": "bytes"
        }
      ],
      "name": "EmergencySwapOnAlternativeDEX",
      "type": "event"
    },
    {
      "anonymous": false,
      "inputs": [
        {
          "indexed": true,
          "internalType": "bytes",
          "name": "lowLevelErrorData",
          "type": "bytes"
        }
      ],
      "name": "EmergencySwapOnPearlRouter",
      "type": "event"
    },
    {
      "anonymous": false,
      "inputs": [
        {
          "indexed": false,
          "internalType": "uint8",
          "name": "version",
          "type": "uint8"
        }
      ],
      "name": "Initialized",
      "type": "event"
    },
    {
      "anonymous": false,
      "inputs": [
        {
          "indexed": false,
          "internalType": "uint16",
          "name": "_srcChainId",
          "type": "uint16"
        },
        {
          "indexed": false,
          "internalType": "bytes",
          "name": "_srcAddress",
          "type": "bytes"
        },
        {
          "indexed": false,
          "internalType": "uint64",
          "name": "_nonce",
          "type": "uint64"
        },
        {
          "indexed": false,
          "internalType": "bytes",
          "name": "_payload",
          "type": "bytes"
        },
        {
          "indexed": false,
          "internalType": "bytes",
          "name": "_reason",
          "type": "bytes"
        }
      ],
      "name": "MessageFailed",
      "type": "event"
    },
    {
      "anonymous": false,
      "inputs": [
        {
          "indexed": true,
          "internalType": "address",
          "name": "src",
          "type": "address"
        },
        {
          "indexed": true,
          "internalType": "address",
          "name": "dst",
          "type": "address"
        },
        {
          "indexed": true,
          "internalType": "uint256",
          "name": "amountOut",
          "type": "uint256"
        },
        {
          "indexed": false,
          "internalType": "uint256",
          "name": "amountIn",
          "type": "uint256"
        }
      ],
      "name": "Notified",
      "type": "event"
    },
    {
      "anonymous": false,
      "inputs": [
        {
          "indexed": true,
          "internalType": "address",
          "name": "previousOwner",
          "type": "address"
        },
        {
          "indexed": true,
          "internalType": "address",
          "name": "newOwner",
          "type": "address"
        }
      ],
      "name": "OwnershipTransferred",
      "type": "event"
    },
    {
      "anonymous": false,
      "inputs": [
        {
          "indexed": true,
          "internalType": "address",
          "name": "src",
          "type": "address"
        },
        {
          "indexed": true,
          "internalType": "address",
          "name": "dst",
          "type": "address"
        },
        {
          "indexed": true,
          "internalType": "uint256",
          "name": "amount",
          "type": "uint256"
        }
      ],
      "name": "Quote",
      "type": "event"
    },
    {
      "anonymous": false,
      "inputs": [
        {
          "indexed": false,
          "internalType": "uint16",
          "name": "_srcChainId",
          "type": "uint16"
        },
        {
          "indexed": false,
          "internalType": "bytes",
          "name": "_srcAddress",
          "type": "bytes"
        },
        {
          "indexed": false,
          "internalType": "uint64",
          "name": "_nonce",
          "type": "uint64"
        },
        {
          "indexed": false,
          "internalType": "bytes32",
          "name": "_payloadHash",
          "type": "bytes32"
        }
      ],
      "name": "RetryMessageSuccess",
      "type": "event"
    },
    {
      "anonymous": false,
      "inputs": [
        {
          "indexed": true,
          "internalType": "bytes32",
          "name": "role",
          "type": "bytes32"
        },
        {
          "indexed": true,
          "internalType": "bytes32",
          "name": "previousAdminRole",
          "type": "bytes32"
        },
        {
          "indexed": true,
          "internalType": "bytes32",
          "name": "newAdminRole",
          "type": "bytes32"
        }
      ],
      "name": "RoleAdminChanged",
      "type": "event"
    },
    {
      "anonymous": false,
      "inputs": [
        {
          "indexed": true,
          "internalType": "bytes32",
          "name": "role",
          "type": "bytes32"
        },
        {
          "indexed": true,
          "internalType": "address",
          "name": "account",
          "type": "address"
        },
        {
          "indexed": true,
          "internalType": "address",
          "name": "sender",
          "type": "address"
        }
      ],
      "name": "RoleGranted",
      "type": "event"
    },
    {
      "anonymous": false,
      "inputs": [
        {
          "indexed": true,
          "internalType": "bytes32",
          "name": "role",
          "type": "bytes32"
        },
        {
          "indexed": true,
          "internalType": "address",
          "name": "account",
          "type": "address"
        },
        {
          "indexed": true,
          "internalType": "address",
          "name": "sender",
          "type": "address"
        }
      ],
      "name": "RoleRevoked",
      "type": "event"
    },
    {
      "anonymous": false,
      "inputs": [
        {
          "indexed": false,
          "internalType": "uint16",
          "name": "_dstChainId",
          "type": "uint16"
        },
        {
          "indexed": false,
          "internalType": "uint16",
          "name": "_type",
          "type": "uint16"
        },
        {
          "indexed": false,
          "internalType": "uint256",
          "name": "_minDstGas",
          "type": "uint256"
        }
      ],
      "name": "SetMinDstGas",
      "type": "event"
    },
    {
      "anonymous": false,
      "inputs": [
        {
          "indexed": false,
          "internalType": "address",
          "name": "precrime",
          "type": "address"
        }
      ],
      "name": "SetPrecrime",
      "type": "event"
    },
    {
      "anonymous": false,
      "inputs": [
        {
          "indexed": false,
          "internalType": "uint16",
          "name": "_remoteChainId",
          "type": "uint16"
        },
        {
          "indexed": false,
          "internalType": "bytes",
          "name": "_path",
          "type": "bytes"
        }
      ],
      "name": "SetTrustedRemote",
      "type": "event"
    },
    {
      "anonymous": false,
      "inputs": [
        {
          "indexed": false,
          "internalType": "uint16",
          "name": "_remoteChainId",
          "type": "uint16"
        },
        {
          "indexed": false,
          "internalType": "bytes",
          "name": "_remoteAddress",
          "type": "bytes"
        }
      ],
      "name": "SetTrustedRemoteAddress",
      "type": "event"
    },
    {
      "anonymous": false,
      "inputs": [
        {
          "indexed": true,
          "internalType": "address",
          "name": "token",
          "type": "address"
        },
        {
          "indexed": false,
          "internalType": "uint256",
          "name": "amount",
          "type": "uint256"
        },
        {
          "indexed": false,
          "internalType": "address",
          "name": "sender",
          "type": "address"
        }
      ],
      "name": "SgReceived",
      "type": "event"
    },
    {
      "anonymous": false,
      "inputs": [
        {
          "indexed": false,
          "internalType": "address",
          "name": "newStrategy",
          "type": "address"
        }
      ],
      "name": "StrategyMigrated",
      "type": "event"
    },
    {
      "anonymous": false,
      "inputs": [
        {
          "indexed": false,
          "internalType": "uint256",
          "name": "profit",
          "type": "uint256"
        },
        {
          "indexed": false,
          "internalType": "uint256",
          "name": "loss",
          "type": "uint256"
        },
        {
          "indexed": false,
          "internalType": "uint256",
          "name": "debtPayment",
          "type": "uint256"
        },
        {
          "indexed": false,
          "internalType": "uint256",
          "name": "giveToStrategy",
          "type": "uint256"
        },
        {
          "indexed": false,
          "internalType": "uint256",
          "name": "requestFromStrategy",
          "type": "uint256"
        },
        {
          "indexed": false,
          "internalType": "uint256",
          "name": "creditAvailable",
          "type": "uint256"
        },
        {
          "indexed": false,
          "internalType": "uint256",
          "name": "totalAssets",
          "type": "uint256"
        }
      ],
      "name": "StrategyReported",
      "type": "event"
    },
    {
      "anonymous": false,
      "inputs": [
        {
          "indexed": true,
          "internalType": "address",
          "name": "src",
          "type": "address"
        },
        {
          "indexed": true,
          "internalType": "address",
          "name": "dst",
          "type": "address"
        },
        {
          "indexed": true,
          "internalType": "uint256",
          "name": "amount",
          "type": "uint256"
        }
      ],
      "name": "Swap",
      "type": "event"
    },
    {
      "inputs": [],
      "name": "DEFAULT_ADMIN_ROLE",
      "outputs": [
        {
          "internalType": "bytes32",
          "name": "",
          "type": "bytes32"
        }
      ],
      "stateMutability": "view",
      "type": "function"
    },
    {
      "inputs": [],
      "name": "DEFAULT_PAYLOAD_SIZE_LIMIT",
      "outputs": [
        {
          "internalType": "uint256",
          "name": "",
          "type": "uint256"
        }
      ],
      "stateMutability": "view",
      "type": "function"
    },
    {
      "inputs": [],
      "name": "DEFAULT_SLIPPAGE",
      "outputs": [
        {
          "internalType": "uint256",
          "name": "",
          "type": "uint256"
        }
      ],
      "stateMutability": "view",
      "type": "function"
    },
    {
      "inputs": [],
      "name": "QUOTE_OPERATION_PROVIDER",
      "outputs": [
        {
          "internalType": "bytes32",
          "name": "",
          "type": "bytes32"
        }
      ],
      "stateMutability": "view",
      "type": "function"
    },
    {
      "inputs": [
        {
          "internalType": "uint256",
          "name": "_debtOutstanding",
          "type": "uint256"
        }
      ],
      "name": "adjustPosition",
      "outputs": [],
      "stateMutability": "nonpayable",
      "type": "function"
    },
    {
      "inputs": [],
      "name": "balanceOfLpStaked",
      "outputs": [
        {
          "internalType": "uint256",
          "name": "",
          "type": "uint256"
        }
      ],
      "stateMutability": "view",
      "type": "function"
    },
    {
      "inputs": [],
      "name": "balanceOfPearlRewards",
      "outputs": [
        {
          "internalType": "uint256",
          "name": "",
          "type": "uint256"
        }
      ],
      "stateMutability": "view",
      "type": "function"
    },
    {
      "inputs": [],
      "name": "balanceOfWant",
      "outputs": [
        {
          "internalType": "uint256",
          "name": "",
          "type": "uint256"
        }
      ],
      "stateMutability": "view",
      "type": "function"
    },
    {
      "inputs": [
        {
          "internalType": "uint256",
          "name": "epoch",
          "type": "uint256"
        }
      ],
      "name": "callMe",
      "outputs": [],
      "stateMutability": "nonpayable",
      "type": "function"
    },
    {
      "inputs": [],
      "name": "clearWant",
      "outputs": [],
      "stateMutability": "nonpayable",
      "type": "function"
    },
    {
      "inputs": [],
      "name": "currentChainId",
      "outputs": [
        {
          "internalType": "uint16",
          "name": "",
          "type": "uint16"
        }
      ],
      "stateMutability": "view",
      "type": "function"
    },
    {
      "inputs": [
        {
          "internalType": "uint256",
          "name": "_daiAmount",
          "type": "uint256"
        }
      ],
      "name": "daiToWant",
      "outputs": [
        {
          "internalType": "uint256",
          "name": "",
          "type": "uint256"
        }
      ],
      "stateMutability": "view",
      "type": "function"
    },
    {
      "inputs": [],
      "name": "emergencyExit",
      "outputs": [
        {
          "internalType": "bool",
          "name": "",
          "type": "bool"
        }
      ],
      "stateMutability": "view",
      "type": "function"
    },
    {
      "inputs": [],
      "name": "estimatedTotalAssets",
      "outputs": [
        {
          "internalType": "uint256",
          "name": "",
          "type": "uint256"
        }
      ],
      "stateMutability": "view",
      "type": "function"
    },
    {
      "inputs": [
        {
          "internalType": "uint256",
          "name": "_stakedLpTokens",
          "type": "uint256"
        }
      ],
      "name": "exitPosition",
      "outputs": [],
      "stateMutability": "nonpayable",
      "type": "function"
    },
    {
      "inputs": [
        {
          "internalType": "uint16",
          "name": "",
          "type": "uint16"
        },
        {
          "internalType": "bytes",
          "name": "",
          "type": "bytes"
        },
        {
          "internalType": "uint64",
          "name": "",
          "type": "uint64"
        }
      ],
      "name": "failedMessages",
      "outputs": [
        {
          "internalType": "bytes32",
          "name": "",
          "type": "bytes32"
        }
      ],
      "stateMutability": "view",
      "type": "function"
    },
    {
      "inputs": [
        {
          "internalType": "uint16",
          "name": "_srcChainId",
          "type": "uint16"
        },
        {
          "internalType": "bytes",
          "name": "_srcAddress",
          "type": "bytes"
        }
      ],
      "name": "forceResumeReceive",
      "outputs": [],
      "stateMutability": "nonpayable",
      "type": "function"
    },
    {
      "inputs": [
        {
          "internalType": "uint16",
          "name": "_version",
          "type": "uint16"
        },
        {
          "internalType": "uint16",
          "name": "_chainId",
          "type": "uint16"
        },
        {
          "internalType": "address",
          "name": "",
          "type": "address"
        },
        {
          "internalType": "uint256",
          "name": "_configType",
          "type": "uint256"
        }
      ],
      "name": "getConfig",
      "outputs": [
        {
          "internalType": "bytes",
          "name": "",
          "type": "bytes"
        }
      ],
      "stateMutability": "view",
      "type": "function"
    },
    {
      "inputs": [
        {
          "internalType": "bytes32",
          "name": "_messageHash",
          "type": "bytes32"
        }
      ],
      "name": "getEthSignedMessageHash",
      "outputs": [
        {
          "internalType": "bytes32",
          "name": "",
          "type": "bytes32"
        }
      ],
      "stateMutability": "pure",
      "type": "function"
    },
    {
      "inputs": [
        {
          "internalType": "bytes32",
          "name": "role",
          "type": "bytes32"
        }
      ],
      "name": "getRoleAdmin",
      "outputs": [
        {
          "internalType": "bytes32",
          "name": "",
          "type": "bytes32"
        }
      ],
      "stateMutability": "view",
      "type": "function"
    },
    {
      "inputs": [
        {
          "internalType": "uint16",
          "name": "_remoteChainId",
          "type": "uint16"
        }
      ],
      "name": "getTrustedRemoteAddress",
      "outputs": [
        {
          "internalType": "bytes",
          "name": "",
          "type": "bytes"
        }
      ],
      "stateMutability": "view",
      "type": "function"
    },
    {
      "inputs": [
        {
          "internalType": "bytes32",
          "name": "role",
          "type": "bytes32"
        },
        {
          "internalType": "address",
          "name": "account",
          "type": "address"
        }
      ],
      "name": "grantRole",
      "outputs": [],
      "stateMutability": "nonpayable",
      "type": "function"
    },
    {
      "inputs": [
        {
          "internalType": "uint256",
          "name": "_totalDebt",
          "type": "uint256"
        },
        {
          "internalType": "uint256",
          "name": "_debtOutstanding",
          "type": "uint256"
        },
        {
          "internalType": "uint256",
          "name": "_creditAvailable",
          "type": "uint256"
        },
        {
          "internalType": "uint256",
          "name": "_debtRatio",
          "type": "uint256"
        },
        {
          "internalType": "bytes",
          "name": "_signature",
          "type": "bytes"
        }
      ],
      "name": "harvest",
      "outputs": [],
      "stateMutability": "nonpayable",
      "type": "function"
    },
    {
      "inputs": [
        {
          "internalType": "bytes32",
          "name": "role",
          "type": "bytes32"
        },
        {
          "internalType": "address",
          "name": "account",
          "type": "address"
        }
      ],
      "name": "hasRole",
      "outputs": [
        {
          "internalType": "bool",
          "name": "",
          "type": "bool"
        }
      ],
      "stateMutability": "view",
      "type": "function"
    },
    {
      "inputs": [
        {
          "internalType": "address",
          "name": "_lzEndpoint",
          "type": "address"
        },
        {
          "internalType": "address",
          "name": "_strategist",
          "type": "address"
        },
        {
          "internalType": "contract IERC20",
          "name": "_want",
          "type": "address"
        },
        {
          "internalType": "address",
          "name": "_vault",
          "type": "address"
        },
        {
          "internalType": "uint16",
          "name": "_vaultChainId",
          "type": "uint16"
        },
        {
          "internalType": "uint16",
          "name": "_currentChainId",
          "type": "uint16"
        },
        {
          "internalType": "address",
          "name": "_sgBridge",
          "type": "address"
        },
        {
          "internalType": "address",
          "name": "_router",
          "type": "address"
        }
      ],
      "name": "initialize",
      "outputs": [],
      "stateMutability": "nonpayable",
      "type": "function"
    },
    {
      "inputs": [
        {
          "internalType": "uint16",
          "name": "_srcChainId",
          "type": "uint16"
        },
        {
          "internalType": "bytes",
          "name": "_srcAddress",
          "type": "bytes"
        }
      ],
      "name": "isTrustedRemote",
      "outputs": [
        {
          "internalType": "bool",
          "name": "",
          "type": "bool"
        }
      ],
      "stateMutability": "view",
      "type": "function"
    },
    {
      "inputs": [],
      "name": "liquidateAllPositions",
      "outputs": [
        {
          "internalType": "uint256",
          "name": "",
          "type": "uint256"
        }
      ],
      "stateMutability": "nonpayable",
      "type": "function"
    },
    {
      "inputs": [
        {
          "internalType": "uint256",
          "name": "_amountNeeded",
          "type": "uint256"
        }
      ],
      "name": "liquidatePosition",
      "outputs": [],
      "stateMutability": "nonpayable",
      "type": "function"
    },
    {
      "inputs": [],
      "name": "lzEndpoint",
      "outputs": [
        {
          "internalType": "contract ILayerZeroEndpointUpgradeable",
          "name": "",
          "type": "address"
        }
      ],
      "stateMutability": "view",
      "type": "function"
    },
    {
      "inputs": [
        {
          "internalType": "uint16",
          "name": "_srcChainId",
          "type": "uint16"
        },
        {
          "internalType": "bytes",
          "name": "_srcAddress",
          "type": "bytes"
        },
        {
          "internalType": "uint64",
          "name": "_nonce",
          "type": "uint64"
        },
        {
          "internalType": "bytes",
          "name": "_payload",
          "type": "bytes"
        }
      ],
      "name": "lzReceive",
      "outputs": [],
      "stateMutability": "nonpayable",
      "type": "function"
    },
    {
      "inputs": [
        {
          "internalType": "uint16",
          "name": "",
          "type": "uint16"
        },
        {
          "internalType": "uint16",
          "name": "",
          "type": "uint16"
        }
      ],
      "name": "minDstGasLookup",
      "outputs": [
        {
          "internalType": "uint256",
          "name": "",
          "type": "uint256"
        }
      ],
      "stateMutability": "view",
      "type": "function"
    },
    {
      "inputs": [],
      "name": "name",
      "outputs": [
        {
          "internalType": "string",
          "name": "",
          "type": "string"
        }
      ],
      "stateMutability": "pure",
      "type": "function"
    },
    {
      "inputs": [
        {
          "internalType": "uint16",
          "name": "_srcChainId",
          "type": "uint16"
        },
        {
          "internalType": "bytes",
          "name": "_srcAddress",
          "type": "bytes"
        },
        {
          "internalType": "uint64",
          "name": "_nonce",
          "type": "uint64"
        },
        {
          "internalType": "bytes",
          "name": "_payload",
          "type": "bytes"
        }
      ],
      "name": "nonblockingLzReceive",
      "outputs": [],
      "stateMutability": "nonpayable",
      "type": "function"
    },
    {
      "inputs": [
        {
          "internalType": "address",
          "name": "",
          "type": "address"
        },
        {
          "internalType": "address",
          "name": "",
          "type": "address"
        },
        {
          "internalType": "uint256",
          "name": "amountOut",
          "type": "uint256"
        },
        {
          "internalType": "uint256",
          "name": "",
          "type": "uint256"
        }
      ],
      "name": "notifyCallback",
      "outputs": [],
      "stateMutability": "nonpayable",
      "type": "function"
    },
    {
      "inputs": [],
      "name": "owner",
      "outputs": [
        {
          "internalType": "address",
          "name": "",
          "type": "address"
        }
      ],
      "stateMutability": "view",
      "type": "function"
    },
    {
      "inputs": [
        {
          "internalType": "uint16",
          "name": "",
          "type": "uint16"
        }
      ],
      "name": "payloadSizeLimitLookup",
      "outputs": [
        {
          "internalType": "uint256",
          "name": "",
          "type": "uint256"
        }
      ],
      "stateMutability": "view",
      "type": "function"
    },
    {
      "inputs": [
        {
          "internalType": "uint256",
          "name": "_pearlAmount",
          "type": "uint256"
        }
      ],
      "name": "pearlToWant",
      "outputs": [
        {
          "internalType": "uint256",
          "name": "",
          "type": "uint256"
        }
      ],
      "stateMutability": "view",
      "type": "function"
    },
    {
      "inputs": [],
      "name": "precrime",
      "outputs": [
        {
          "internalType": "address",
          "name": "",
          "type": "address"
        }
      ],
      "stateMutability": "view",
      "type": "function"
    },
    {
      "inputs": [],
      "name": "renounceOwnership",
      "outputs": [],
      "stateMutability": "nonpayable",
      "type": "function"
    },
    {
      "inputs": [
        {
          "internalType": "bytes32",
          "name": "role",
          "type": "bytes32"
        },
        {
          "internalType": "address",
          "name": "account",
          "type": "address"
        }
      ],
      "name": "renounceRole",
      "outputs": [],
      "stateMutability": "nonpayable",
      "type": "function"
    },
    {
      "inputs": [
        {
          "internalType": "uint16",
          "name": "_srcChainId",
          "type": "uint16"
        },
        {
          "internalType": "bytes",
          "name": "_srcAddress",
          "type": "bytes"
        },
        {
          "internalType": "uint64",
          "name": "_nonce",
          "type": "uint64"
        },
        {
          "internalType": "bytes",
          "name": "_payload",
          "type": "bytes"
        }
      ],
      "name": "retryMessage",
      "outputs": [],
      "stateMutability": "payable",
      "type": "function"
    },
    {
      "inputs": [],
      "name": "revokeFunds",
      "outputs": [],
      "stateMutability": "nonpayable",
      "type": "function"
    },
    {
      "inputs": [
        {
          "internalType": "bytes32",
          "name": "role",
          "type": "bytes32"
        },
        {
          "internalType": "address",
          "name": "account",
          "type": "address"
        }
      ],
      "name": "revokeRole",
      "outputs": [],
      "stateMutability": "nonpayable",
      "type": "function"
    },
    {
      "inputs": [
        {
          "internalType": "uint256",
          "name": "_pearlAmount",
          "type": "uint256"
        }
      ],
      "name": "sellPearl",
      "outputs": [],
      "stateMutability": "nonpayable",
      "type": "function"
    },
    {
      "inputs": [
        {
          "internalType": "uint256",
          "name": "_usdrAmount",
          "type": "uint256"
        }
      ],
      "name": "sellUsdr",
      "outputs": [],
      "stateMutability": "nonpayable",
      "type": "function"
    },
    {
      "inputs": [
        {
          "internalType": "uint16",
          "name": "_version",
          "type": "uint16"
        },
        {
          "internalType": "uint16",
          "name": "_chainId",
          "type": "uint16"
        },
        {
          "internalType": "uint256",
          "name": "_configType",
          "type": "uint256"
        },
        {
          "internalType": "bytes",
          "name": "_config",
          "type": "bytes"
        }
      ],
      "name": "setConfig",
      "outputs": [],
      "stateMutability": "nonpayable",
      "type": "function"
    },
    {
      "inputs": [
        {
          "internalType": "bool",
          "name": "_emergencyExit",
          "type": "bool"
        }
      ],
      "name": "setEmergencyExit",
      "outputs": [],
      "stateMutability": "nonpayable",
      "type": "function"
    },
    {
      "inputs": [
        {
          "internalType": "uint16",
          "name": "_dstChainId",
          "type": "uint16"
        },
        {
          "internalType": "uint16",
          "name": "_packetType",
          "type": "uint16"
        },
        {
          "internalType": "uint256",
          "name": "_minGas",
          "type": "uint256"
        }
      ],
      "name": "setMinDstGas",
      "outputs": [],
      "stateMutability": "nonpayable",
      "type": "function"
    },
    {
      "inputs": [
        {
          "internalType": "uint16",
          "name": "_dstChainId",
          "type": "uint16"
        },
        {
          "internalType": "uint256",
          "name": "_size",
          "type": "uint256"
        }
      ],
      "name": "setPayloadSizeLimit",
      "outputs": [],
      "stateMutability": "nonpayable",
      "type": "function"
    },
    {
      "inputs": [
        {
          "internalType": "address",
          "name": "_precrime",
          "type": "address"
        }
      ],
      "name": "setPrecrime",
      "outputs": [],
      "stateMutability": "nonpayable",
      "type": "function"
    },
    {
      "inputs": [
        {
          "internalType": "uint16",
          "name": "_version",
          "type": "uint16"
        }
      ],
      "name": "setReceiveVersion",
      "outputs": [],
      "stateMutability": "nonpayable",
      "type": "function"
    },
    {
      "inputs": [
        {
          "internalType": "uint16",
          "name": "_version",
          "type": "uint16"
        }
      ],
      "name": "setSendVersion",
      "outputs": [],
      "stateMutability": "nonpayable",
      "type": "function"
    },
    {
      "inputs": [
        {
          "internalType": "uint256",
          "name": "_slippage",
          "type": "uint256"
        }
      ],
      "name": "setSlippage",
      "outputs": [],
      "stateMutability": "nonpayable",
      "type": "function"
    },
    {
      "inputs": [
        {
          "internalType": "address",
          "name": "_strategist",
          "type": "address"
        }
      ],
      "name": "setStrategist",
      "outputs": [],
      "stateMutability": "nonpayable",
      "type": "function"
    },
    {
      "inputs": [
        {
          "internalType": "address",
          "name": "_swapHelper",
          "type": "address"
        }
      ],
      "name": "setSwapHelper",
      "outputs": [],
      "stateMutability": "nonpayable",
      "type": "function"
    },
    {
      "inputs": [
        {
          "internalType": "uint16",
          "name": "_srcChainId",
          "type": "uint16"
        },
        {
          "internalType": "bytes",
          "name": "_path",
          "type": "bytes"
        }
      ],
      "name": "setTrustedRemote",
      "outputs": [],
      "stateMutability": "nonpayable",
      "type": "function"
    },
    {
      "inputs": [
        {
          "internalType": "uint16",
          "name": "_remoteChainId",
          "type": "uint16"
        },
        {
          "internalType": "bytes",
          "name": "_remoteAddress",
          "type": "bytes"
        }
      ],
      "name": "setTrustedRemoteAddress",
      "outputs": [],
      "stateMutability": "nonpayable",
      "type": "function"
    },
    {
      "inputs": [],
      "name": "sgBridge",
      "outputs": [
        {
          "internalType": "contract ISgBridge",
          "name": "",
          "type": "address"
        }
      ],
      "stateMutability": "view",
      "type": "function"
    },
    {
      "inputs": [
        {
          "internalType": "uint16",
          "name": "",
          "type": "uint16"
        },
        {
          "internalType": "bytes",
          "name": "_srcAddress",
          "type": "bytes"
        },
        {
          "internalType": "uint256",
          "name": "",
          "type": "uint256"
        },
        {
          "internalType": "address",
          "name": "_token",
          "type": "address"
        },
        {
          "internalType": "uint256",
          "name": "_amountLD",
          "type": "uint256"
        },
        {
          "internalType": "bytes",
          "name": "",
          "type": "bytes"
        }
      ],
      "name": "sgReceive",
      "outputs": [],
      "stateMutability": "nonpayable",
      "type": "function"
    },
    {
      "inputs": [],
      "name": "sgRouter",
      "outputs": [
        {
          "internalType": "contract IStargateRouter",
          "name": "",
          "type": "address"
        }
      ],
      "stateMutability": "view",
      "type": "function"
    },
    {
      "inputs": [],
      "name": "slippage",
      "outputs": [
        {
          "internalType": "uint256",
          "name": "",
          "type": "uint256"
        }
      ],
      "stateMutability": "view",
      "type": "function"
    },
    {
      "inputs": [],
      "name": "strategist",
      "outputs": [
        {
          "internalType": "address",
          "name": "",
          "type": "address"
        }
      ],
      "stateMutability": "view",
      "type": "function"
    },
    {
      "inputs": [],
      "name": "strategistSignMessageHash",
      "outputs": [
        {
          "internalType": "bytes32",
          "name": "",
          "type": "bytes32"
        }
      ],
      "stateMutability": "view",
      "type": "function"
    },
    {
      "inputs": [
        {
          "internalType": "bytes4",
          "name": "interfaceId",
          "type": "bytes4"
        }
      ],
      "name": "supportsInterface",
      "outputs": [
        {
          "internalType": "bool",
          "name": "",
          "type": "bool"
        }
      ],
      "stateMutability": "view",
      "type": "function"
    },
    {
      "inputs": [],
      "name": "swapHelper",
      "outputs": [
        {
          "internalType": "contract ISwapHelper",
          "name": "",
          "type": "address"
        }
      ],
      "stateMutability": "view",
      "type": "function"
    },
    {
      "inputs": [
        {
          "internalType": "contract IERC20",
          "name": "_token",
          "type": "address"
        }
      ],
      "name": "sweepToken",
      "outputs": [],
      "stateMutability": "nonpayable",
      "type": "function"
    },
    {
      "inputs": [
        {
          "internalType": "address",
          "name": "newOwner",
          "type": "address"
        }
      ],
      "name": "transferOwnership",
      "outputs": [],
      "stateMutability": "nonpayable",
      "type": "function"
    },
    {
      "inputs": [
        {
          "internalType": "uint16",
          "name": "",
          "type": "uint16"
        }
      ],
      "name": "trustedRemoteLookup",
      "outputs": [
        {
          "internalType": "bytes",
          "name": "",
          "type": "bytes"
        }
      ],
      "stateMutability": "view",
      "type": "function"
    },
    {
      "inputs": [
        {
          "internalType": "uint256",
          "name": "_usdrLpAmount",
          "type": "uint256"
        }
      ],
      "name": "usdrLpToWant",
      "outputs": [
        {
          "internalType": "uint256",
          "name": "",
          "type": "uint256"
        }
      ],
      "stateMutability": "view",
      "type": "function"
    },
    {
      "inputs": [
        {
          "internalType": "uint256",
          "name": "_usdrAmount",
          "type": "uint256"
        }
      ],
      "name": "usdrToWant",
      "outputs": [
        {
          "internalType": "uint256",
          "name": "",
          "type": "uint256"
        }
      ],
      "stateMutability": "view",
      "type": "function"
    },
    {
      "inputs": [],
      "name": "vault",
      "outputs": [
        {
          "internalType": "address",
          "name": "",
          "type": "address"
        }
      ],
      "stateMutability": "view",
      "type": "function"
    },
    {
      "inputs": [],
      "name": "vaultChainId",
      "outputs": [
        {
          "internalType": "uint16",
          "name": "",
          "type": "uint16"
        }
      ],
      "stateMutability": "view",
      "type": "function"
    },
    {
      "inputs": [],
      "name": "want",
      "outputs": [
        {
          "internalType": "contract IERC20",
          "name": "",
          "type": "address"
        }
      ],
      "stateMutability": "view",
      "type": "function"
    },
    {
      "inputs": [],
      "name": "wantDecimals",
      "outputs": [
        {
          "internalType": "uint8",
          "name": "",
          "type": "uint8"
        }
      ],
      "stateMutability": "view",
      "type": "function"
    },
    {
      "inputs": [
        {
          "internalType": "uint256",
          "name": "_wantAmount",
          "type": "uint256"
        }
      ],
      "name": "wantToUsdrLp",
      "outputs": [
        {
          "internalType": "uint256",
          "name": "",
          "type": "uint256"
        }
      ],
      "stateMutability": "view",
      "type": "function"
    },
    {
      "inputs": [
        {
          "internalType": "uint256",
          "name": "_amountNeeded",
          "type": "uint256"
        }
      ],
      "name": "withdrawSome",
      "outputs": [],
      "stateMutability": "nonpayable",
      "type": "function"
    },
    {
      "stateMutability": "payable",
      "type": "receive"
    }
  ],
  "bytecode": "0x608060405234801561001057600080fd5b5061696180620000216000396000f3fe60806040526004361061035a5760003560e01c80621d35671461036657806301ffc9a7146103885780630517cb76146103bd57806306fdde03146103ea57806307e0db17146104295780630df37483146104495780630fc6a11c1461046957806310ddb1371461048a5780631be19560146104aa5780631cdb539f146104ca5780631f1fcd51146104ea5780631fe4a6861461050a578063237ea53f1461052a578063248a9ca31461055a5780632d6068431461057a5780632f2ff15d1461058f57806336568abe146105af57806337fded91146105cf5780633d3ccc2f146105f45780633d8b38f6146106145780633e032a3b146106345780633eae11121461064a5780633f1f4fa41461066a57806342d65a8d1461069757806345ee0755146106b7578063495f881e146106d75780634a5f58d1146106f757806350bb4beb146107175780635641ec031461072c578063567ad85d14610746578063593178de1461077b5780635b8c41e61461079057806366ad5c8a146107df5780636cbadbfa146107ff578063715018a6146108215780637533d7881461083657806378dc9059146108565780638cfd8f5c146108765780638da5cb5b146108ae5780638f4508d0146108c357806391d14854146108d8578063950c8a74146108f85780639589c990146109185780639606647d146109385780639f38369a1461094d578063a217fddf1461096d578063a6c3d16514610982578063a8798510146109a2578063a9e50824146109b8578063ab8236f3146109d8578063adf076e6146109f8578063ae9b051c14610a2b578063b353aaa714610a4b578063baf3292d14610a6b578063bd79ac1314610a8b578063c1a3d44c14610aab578063c446183414610ac0578063c7b9d53014610ad6578063cbed8b9c14610af6578063cdddd4e514610b16578063d1deba1f14610b36578063d547741f14610b49578063d56739ac14610b69578063d73cd47f14610b7e578063df2a5b3b14610b9e578063e73620c314610bbe578063e964404414610bde578063eb8d72b714610bfe578063efbb5cb014610c1e578063f056dffe14610c33578063f0fa55a914610c53578063f2fde38b14610c73578063f5ecbdbc14610c93578063fa54080114610cb3578063fbfa77cf14610cd3578063fcb988a414610cf357600080fd5b3661036157005b600080fd5b34801561037257600080fd5b5061038661038136600461548b565b610d13565b005b34801561039457600080fd5b506103a86103a336600461551e565b610dfc565b60405190151581526020015b60405180910390f35b3480156103c957600080fd5b5060ce546103dd906001600160a01b031681565b6040516103b49190615548565b3480156103f657600080fd5b5060408051808201909152600d81526c506561726c537472617465677960981b60208201525b6040516103b491906155ac565b34801561043557600080fd5b506103866104443660046155bf565b610e33565b34801561045557600080fd5b506103866104643660046155da565b610ea0565b34801561047557600080fd5b50610135546103dd906001600160a01b031681565b34801561049657600080fd5b506103866104a53660046155bf565b610ebf565b3480156104b657600080fd5b506103866104c5366004615619565b610efb565b3480156104d657600080fd5b506103866104e5366004615636565b610f88565b3480156104f657600080fd5b5060ca546103dd906001600160a01b031681565b34801561051657600080fd5b5060c9546103dd906001600160a01b031681565b34801561053657600080fd5b5061054c6000805160206168cc83398151915281565b6040519081526020016103b4565b34801561056657600080fd5b5061054c6105753660046156e8565b6111e8565b34801561058657600080fd5b506103866111fe565b34801561059b57600080fd5b506103866105aa366004615701565b61123f565b3480156105bb57600080fd5b506103866105ca366004615701565b611260565b3480156105db57600080fd5b5060cd546103dd9061010090046001600160a01b031681565b34801561060057600080fd5b5061038661060f3660046156e8565b6112de565b34801561062057600080fd5b506103a861062f366004615731565b611314565b34801561064057600080fd5b5061054c60cc5481565b34801561065657600080fd5b5061054c6106653660046156e8565b6113e1565b34801561067657600080fd5b5061054c6106853660046155bf565b60686020526000908152604090205481565b3480156106a357600080fd5b506103866106b2366004615731565b611469565b3480156106c357600080fd5b506103866106d2366004615791565b6114dc565b3480156106e357600080fd5b506103866106f2366004615899565b6114f7565b34801561070357600080fd5b506103866107123660046156e8565b61179b565b34801561072357600080fd5b5061054c6117a4565b34801561073857600080fd5b5060cd546103a89060ff1681565b34801561075257600080fd5b5060cb5461076890600160a01b900461ffff1681565b60405161ffff90911681526020016103b4565b34801561078757600080fd5b5061054c6117b3565b34801561079c57600080fd5b5061054c6107ab3660046158fc565b6097602090815260009384526040808520845180860184018051928152908401958401959095209452929052825290205481565b3480156107eb57600080fd5b506103866107fa36600461548b565b611811565b34801561080b57600080fd5b5060cb5461076890600160b01b900461ffff1681565b34801561082d57600080fd5b506103866118e5565b34801561084257600080fd5b5061041c6108513660046155bf565b6118f9565b34801561086257600080fd5b506103866108713660046156e8565b611993565b34801561088257600080fd5b5061054c610891366004615959565b606760209081526000928352604080842090915290825290205481565b3480156108ba57600080fd5b506103dd61199c565b3480156108cf57600080fd5b5061054c6119ab565b3480156108e457600080fd5b506103a86108f3366004615701565b611a20565b34801561090457600080fd5b506069546103dd906001600160a01b031681565b34801561092457600080fd5b5061054c6109333660046156e8565b611a4c565b34801561094457600080fd5b50610386611ae4565b34801561095957600080fd5b5061041c6109683660046155bf565b611b77565b34801561097957600080fd5b5061054c600081565b34801561098e57600080fd5b5061038661099d366004615731565b611c86565b3480156109ae57600080fd5b5061054c61264881565b3480156109c457600080fd5b5061054c6109d33660046156e8565b611d0f565b3480156109e457600080fd5b506103866109f336600461598c565b611dc8565b348015610a0457600080fd5b5060cb54610a1990600160c01b900460ff1681565b60405160ff90911681526020016103b4565b348015610a3757600080fd5b50610386610a463660046156e8565b611ec2565b348015610a5757600080fd5b506065546103dd906001600160a01b031681565b348015610a7757600080fd5b50610386610a86366004615619565b611ecb565b348015610a9757600080fd5b5061054c610aa63660046156e8565b611f1e565b348015610ab757600080fd5b5061054c611f76565b348015610acc57600080fd5b5061054c61271081565b348015610ae257600080fd5b50610386610af1366004615619565b611fa7565b348015610b0257600080fd5b50610386610b11366004615a26565b611fd1565b348015610b2257600080fd5b50610386610b313660046156e8565b61203f565b610386610b4436600461548b565b612048565b348015610b5557600080fd5b50610386610b64366004615701565b61225e565b348015610b7557600080fd5b5061054c61227a565b348015610b8a57600080fd5b50610386610b99366004615619565b6122ac565b348015610baa57600080fd5b50610386610bb9366004615a94565b6122d7565b348015610bca57600080fd5b50610386610bd93660046156e8565b612389565b348015610bea57600080fd5b50610386610bf93660046156e8565b6123a9565b348015610c0a57600080fd5b50610386610c19366004615731565b6123b2565b348015610c2a57600080fd5b5061054c61240c565b348015610c3f57600080fd5b50610386610c4e366004615ad0565b612526565b348015610c5f57600080fd5b50610386610c6e3660046156e8565b612548565b348015610c7f57600080fd5b50610386610c8e366004615619565b612555565b348015610c9f57600080fd5b5061041c610cae366004615b16565b6125cb565b348015610cbf57600080fd5b5061054c610cce3660046156e8565b61265e565b348015610cdf57600080fd5b5060cb546103dd906001600160a01b031681565b348015610cff57600080fd5b5061054c610d0e3660046156e8565b6126b0565b6065546001600160a01b03163314610d7e5760405162461bcd60e51b815260206004820152602360248201527f4261736553747261746567793a3a496e76616c6964456e64706f696e7443616c6044820152623632b960e91b60648201526084015b60405180910390fd5b610df48686868080601f01602080910402602001604051908101604052809392919081815260200183838082843760009201919091525050604080516020601f8901819004810282018101909252878152899350915087908790819084018382808284376000920191909152506128b492505050565b505050505050565b60006001600160e01b03198216637965db0b60e01b1480610e2d57506301ffc9a760e01b6001600160e01b03198316145b92915050565b610e3b61292d565b6065546040516307e0db1760e01b815261ffff831660048201526001600160a01b03909116906307e0db17906024015b600060405180830381600087803b158015610e8557600080fd5b505af1158015610e99573d6000803e3d6000fd5b5050505050565b610ea861292d565b61ffff909116600090815260686020526040902055565b610ec761292d565b6065546040516310ddb13760e01b815261ffff831660048201526001600160a01b03909116906310ddb13790602401610e6b565b610f0361298c565b610f8533826001600160a01b03166370a08231306040518263ffffffff1660e01b8152600401610f339190615548565b602060405180830381865afa158015610f50573d6000803e3d6000fd5b505050506040513d601f19601f82011682018060405250810190610f749190615b63565b6001600160a01b03841691906129e5565b50565b600054610100900460ff1615808015610fa85750600054600160ff909116105b80610fc95750610fb730612a3b565b158015610fc9575060005460ff166001145b61102c5760405162461bcd60e51b815260206004820152602e60248201527f496e697469616c697a61626c653a20636f6e747261637420697320616c72656160448201526d191e481a5b9a5d1a585b1a5e995960921b6064820152608401610d75565b6000805460ff19166001179055801561104f576000805461ff0019166101001790555b611057612a4a565b61106a8989898989898989612648612a71565b60ca54611097906001600160a01b03167368b3465833fb72a70ecdf485e0e4c7bd8665fc45600019612c50565b60ca546110be906001600160a01b031660008051602061682c833981519152600019612c50565b6110e76000805160206168ec83398151915260008051602061682c833981519152600019612c50565b6111106000805160206168ac83398151915260008051602061686c833981519152600019612c50565b6111396000805160206168ac83398151915260008051602061682c833981519152600019612c50565b61116e738f3cf7ad23cd3cadbd9735aff958023239c6a06373195f7b233947d51f4c3b756ad41a5ddb34cebce0600019612c50565b61119760008051602061688c83398151915260008051602061682c833981519152600019612c50565b80156111dd576000805461ff0019169055604051600181527f7f26b83ff96e1f2b6a682f133852f6798a09c465da95921460cefb38474024989060200160405180910390a15b505050505050505050565b6000908152610103602052604090206001015490565b61120661298c565b60c9546040516001600160a01b03909116904780156108fc02916000818181858888f19350505050158015610f85573d6000803e3d6000fd5b611248826111e8565b61125181612d54565b61125b8383612d5e565b505050565b6001600160a01b03811633146112d05760405162461bcd60e51b815260206004820152602f60248201527f416363657373436f6e74726f6c3a2063616e206f6e6c792072656e6f756e636560448201526e103937b632b9903337b91039b2b63360891b6064820152608401610d75565b6112da8282612de5565b5050565b6112e661298c565b6112ef81612e4d565b60405181815260008051602061690c833981519152906020015b60405180910390a150565b61ffff83166000908152606660205260408120805482919061133590615b7c565b80601f016020809104026020016040519081016040528092919081815260200182805461136190615b7c565b80156113ae5780601f10611383576101008083540402835291602001916113ae565b820191906000526020600020905b81548152906001019060200180831161139157829003601f168201915b5050505050905083836040516113c5929190615bb6565b60405180910390208180519060200120149150505b9392505050565b6000610e2d826000805160206168ec8339815191526001600160a01b031663313ce5676040518163ffffffff1660e01b8152600401602060405180830381865afa158015611433573d6000803e3d6000fd5b505050506040513d601f19601f820116820180604052508101906114579190615bc6565b60cb54600160c01b900460ff1661354a565b61147161292d565b6065546040516342d65a8d60e01b81526001600160a01b03909116906342d65a8d906114a590869086908690600401615c12565b600060405180830381600087803b1580156114bf57600080fd5b505af11580156114d3573d6000803e3d6000fd5b50505050505050565b6114e461298c565b60cd805460ff1916911515919091179055565b6114ff61298c565b6115088161359f565b60cd546000908190819060ff16156115b45784156115685760405162461bcd60e51b815260206004820152601e60248201527f4261736553747261746567793a3a44656274526174696f4e6f745a65726f00006044820152606401610d75565b6000611572613625565b90508781101561158d576115868189615c46565b92506115a2565b878111156115a25761159f8882615c46565b93505b6115ac8389615c46565b9150506115c6565b6115be8888613667565b919450925090505b60006115d28285615c59565b9050600080888310156115f4576115e9838a615c46565b915060009050611605565b600091506116028984615c46565b90505b6000604051806101600160405280306001600160a01b031681526020014281526020018881526020018781526020018681526020018481526020018381526020018b81526020018361165561240c565b61165f9190615c46565b815260200160d0600081548092919061167790615c6c565b909155508152602001899052905081156116d75760cb546040516116d291849161ffff600160a01b830416916001600160a01b0316906116be906002908790602001615cbd565b60405160208183030381529060405261375e565b611702565b6117026002826040516020016116ee929190615cbd565b60405160208183030381529060405261384c565b7fb983e09c034e9c52b5e547cb0589967992b97717733f580cc5ad0afcdc4b522b8160400151826060015183608001518460a001518560c001518660e001518761010001516040516117859796959493929190968752602087019590955260408601939093526060850191909152608084015260a083015260c082015260e00190565b60405180910390a1505050505050505050505050565b610f85816139cc565b60006117ae613625565b905090565b60d05460cb546040513060601b6001600160601b03191660208201526034810192909252600160b01b900460f01b6001600160f01b031916605482015260009060560160405160208183030381529060405280519060200120905090565b33301461186f5760405162461bcd60e51b815260206004820152602660248201527f4e6f6e626c6f636b696e674c7a4170703a2063616c6c6572206d7573742062656044820152650204c7a4170760d41b6064820152608401610d75565b610df48686868080601f01602080910402602001604051908101604052809392919081815260200183838082843760009201919091525050604080516020601f890181900481028201810190925287815289935091508790879081908401838280828437600092019190915250613b1e92505050565b6118ed61292d565b6118f76000613c34565b565b6066602052600090815260409020805461191290615b7c565b80601f016020809104026020016040519081016040528092919081815260200182805461193e90615b7c565b801561198b5780601f106119605761010080835404028352916020019161198b565b820191906000526020600020905b81548152906001019060200180831161196e57829003601f168201915b505050505081565b610f8581613c86565b6033546001600160a01b031690565b6040516370a0823160e01b815260009060008051602061686c833981519152906370a08231906119df903090600401615548565b602060405180830381865afa1580156119fc573d6000803e3d6000fd5b505050506040513d601f19601f820116820180604052508101906117ae9190615b63565b6000918252610103602090815260408084206001600160a01b0393909316845291905290205460ff1690565b6040516328bd9fc160e11b8152600090819073f68c20d6c50706f6c6bd8ee184382518c93b368c9063517b3f8290611a989060008051602061688c833981519152908790600401615d68565b602060405180830381865afa158015611ab5573d6000803e3d6000fd5b505050506040513d601f19601f82011682018060405250810190611ad99190615b63565b90506113da816113e1565b611aec61298c565b60ca546040516370a0823160e01b81526118f7916001916001600160a01b03909116906370a0823190611b23903090600401615548565b602060405180830381865afa158015611b40573d6000803e3d6000fd5b505050506040513d601f19601f82011682018060405250810190611b649190615b63565b60ca546001600160a01b031691906129e5565b61ffff8116600090815260666020526040812080546060929190611b9a90615b7c565b80601f0160208091040260200160405190810160405280929190818152602001828054611bc690615b7c565b8015611c135780601f10611be857610100808354040283529160200191611c13565b820191906000526020600020905b815481529060010190602001808311611bf657829003601f168201915b505050505090508051600003611c6b5760405162461bcd60e51b815260206004820152601d60248201527f4c7a4170703a206e6f20747275737465642070617468207265636f72640000006044820152606401610d75565b6113da600060148351611c7e9190615c46565b839190613f7a565b611c8e61292d565b818130604051602001611ca393929190615d81565b60408051601f1981840301815291815261ffff8516600090815260666020522090611cce9082615dfd565b507f8c0400cfe2d1199b1a725c78960bcc2a344d869b80590d0f2bd005db15a572ce838383604051611d0293929190615c12565b60405180910390a1505050565b60ca546040516310e1b98f60e21b81526000918291829160008051602061682c83398151915291634386e63c91611d69916001600160a01b03909116906000805160206168ec833981519152906001908a90600401615eb6565b6040805180830381865afa158015611d85573d6000803e3d6000fd5b505050506040513d601f19601f82011682018060405250810190611da99190615ee1565b91509150611db6816113e1565b611dc09083615c59565b949350505050565b60ce546001600160a01b0316331480611df0575060cd5461010090046001600160a01b031633145b611e3b5760405162461bcd60e51b815260206004820152601c60248201527b53674272696467653a3a526f757465724f724272696467654f6e6c7960201b6044820152606401610d75565b6000611e4986826014613f7a565b604051602001611e599190615f05565b604051602081830303815290604052611e7190615f21565b60601c9050836001600160a01b03167f92073a89a07a000083eb8b2575fc15e7bb936efe55d00727d6942a796d7211a78483604051611eb1929190615f58565b60405180910390a250505050505050565b610f8581614087565b611ed361292d565b606980546001600160a01b0319166001600160a01b0383161790556040517f5db758e995a17ec1ad84bdef7e8c3293a0bd6179bcce400dff5d4c3d87db726b90611309908390615548565b6000610e2d82738f3cf7ad23cd3cadbd9735aff958023239c6a0636001600160a01b031663313ce5676040518163ffffffff1660e01b8152600401602060405180830381865afa158015611433573d6000803e3d6000fd5b60ca546040516370a0823160e01b81526000916001600160a01b0316906370a08231906119df903090600401615548565b611faf61292d565b60c980546001600160a01b0319166001600160a01b0392909216919091179055565b611fd961292d565b6065546040516332fb62e760e21b81526001600160a01b039091169063cbed8b9c906120119088908890889088908890600401615f6f565b600060405180830381600087803b15801561202b57600080fd5b505af11580156111dd573d6000803e3d6000fd5b61125b81614168565b61ffff8616600090815260976020526040808220905161206b9088908890615bb6565b90815260408051602092819003830190206001600160401b038716600090815292529020549050806120eb5760405162461bcd60e51b815260206004820152602360248201527f4e6f6e626c6f636b696e674c7a4170703a206e6f2073746f726564206d65737360448201526261676560e81b6064820152608401610d75565b8083836040516120fc929190615bb6565b60405180910390201461215b5760405162461bcd60e51b815260206004820152602160248201527f4e6f6e626c6f636b696e674c7a4170703a20696e76616c6964207061796c6f616044820152601960fa1b6064820152608401610d75565b61ffff8716600090815260976020526040808220905161217e9089908990615bb6565b90815260408051602092819003830181206001600160401b038916600090815290845282902093909355601f88018290048202830182019052868252612216918991899089908190840183828082843760009201919091525050604080516020601f8a018190048102820181019092528881528a935091508890889081908401838280828437600092019190915250613b1e92505050565b7fc264d91f3adc5588250e1551f547752ca0cfa8f6b530d243b9f9f4cab10ea8e5878787878560405161224d959493929190615f9d565b60405180910390a150505050505050565b612267826111e8565b61227081612d54565b61125b8383612de5565b6040516246613160e11b815260009060008051602061686c83398151915290628cc262906119df903090600401615548565b6122b461429d565b61013580546001600160a01b0319166001600160a01b0392909216919091179055565b6122df61292d565b600081116123275760405162461bcd60e51b81526020600482015260156024820152744c7a4170703a20696e76616c6964206d696e47617360581b6044820152606401610d75565b61ffff83811660008181526067602090815260408083209487168084529482529182902085905581519283528201929092529081018290527f9d5c7c0b934da8fefa9c7760c98383778a12dfbfc0c3b3106518f43fb9508ac090606001611d02565b61239161292d565b600090815260cf60205260409020805460ff19169055565b610f858161430c565b6123ba61292d565b61ffff831660009081526066602052604090206123d8828483615fd8565b507ffa41487ad5d6728f0b19276fa1eddc16558578f5109fc39d2dc33c3230470dab838383604051611d0293929190615c12565b60006124196109d36119ab565b6040516370a0823160e01b81526124a19060008051602061688c833981519152906370a082319061244e903090600401615548565b602060405180830381865afa15801561246b573d6000803e3d6000fd5b505050506040513d601f19601f8201168201806040525081019061248f9190615b63565b61249761227a565b6109339190615c59565b60ca546040516370a0823160e01b81526001600160a01b03909116906370a08231906124d1903090600401615548565b602060405180830381865afa1580156124ee573d6000803e3d6000fd5b505050506040513d601f19601f820116820180604052508101906125129190615b63565b61251c9190615c59565b6117ae9190615c59565b6000805160206168cc83398151915261253e81612d54565b5050610136555050565b61255061298c565b60cc55565b61255d61292d565b6001600160a01b0381166125c25760405162461bcd60e51b815260206004820152602660248201527f4f776e61626c653a206e6577206f776e657220697320746865207a65726f206160448201526564647265737360d01b6064820152608401610d75565b610f8581613c34565b606554604051633d7b2f6f60e21b815261ffff808716600483015285166024820152306044820152606481018390526060916001600160a01b03169063f5ecbdbc90608401600060405180830381865afa15801561262d573d6000803e3d6000fd5b505050506040513d6000823e601f3d908101601f191682016040526126559190810190616091565b95945050505050565b6040517b0ca2ba3432b932bab69029b4b3b732b21026b2b9b9b0b3b29d05199960211b6020820152603c8101829052600090605c01604051602081830303815290604052805190602001209050919050565b6000806127316000805160206168ac8339815191526001600160a01b031663313ce5676040518163ffffffff1660e01b8152600401602060405180830381865afa158015612702573d6000803e3d6000fd5b505050506040513d601f19601f820116820180604052508101906127269190615bc6565b6109d390600a6161e2565b905060006127be8460cb60189054906101000a900460ff166000805160206168ac8339815191526001600160a01b031663313ce5676040518163ffffffff1660e01b8152600401602060405180830381865afa158015612795573d6000803e3d6000fd5b505050506040513d601f19601f820116820180604052508101906127b99190615bc6565b61354a565b905060006128228360cb60189054906101000a900460ff166000805160206168ac8339815191526001600160a01b031663313ce5676040518163ffffffff1660e01b8152600401602060405180830381865afa158015612795573d6000803e3d6000fd5b9050806000805160206168ac8339815191526001600160a01b031663313ce5676040518163ffffffff1660e01b8152600401602060405180830381865afa158015612871573d6000803e3d6000fd5b505050506040513d601f19601f820116820180604052508101906128959190615bc6565b6128a090600a6161e2565b6128aa90846161f1565b6126559190616208565b6000806129175a60966366ad5c8a60e01b898989896040516024016128dc949392919061622a565b60408051601f198184030181529190526020810180516001600160e01b03166001600160e01b0319909316929092179091523092919061441c565b9150915081610df457610df486868686856144a8565b3361293661199c565b6001600160a01b0316146118f75760405162461bcd60e51b815260206004820181905260248201527f4f776e61626c653a2063616c6c6572206973206e6f7420746865206f776e65726044820152606401610d75565b60c9546001600160a01b031633146118f75760405162461bcd60e51b815260206004820152601c60248201527b10985cd954dd1c985d1959de4e8e93db9b1e54dd1c985d1959da5cdd60221b6044820152606401610d75565b61125b8363a9059cbb60e01b8484604051602401612a04929190615d68565b60408051601f198184030181529190526020810180516001600160e01b03166001600160e01b031990931692909217909152614545565b6001600160a01b03163b151590565b600054610100900460ff166118f75760405162461bcd60e51b8152600401610d7590616268565b600054610100900460ff16612a985760405162461bcd60e51b8152600401610d7590616268565b612aa18961461a565b60c980546001600160a01b03808b166001600160a01b03199283161790925560ca80548a8416908316811790915560cb8054938a1661ffff8a16600160a01b029093166001600160b01b0319909416939093179190911790915560cc8290556040805163313ce56760e01b8152905163313ce567916004808201926020929091908290030181865afa158015612b3b573d6000803e3d6000fd5b505050506040513d601f19601f82011682018060405250810190612b5f9190615bc6565b60cb8054600060d05562ffffff60b01b1916600160c01b60ff939093169290920261ffff60b01b191691909117600160b01b61ffff87160217905560cd8054610100600160a81b0319166101006001600160a01b03868116919091029190911790915560ce80546001600160a01b03191684831617905560ca5460405163095ea7b360e01b815291169063095ea7b390612c0190869060001990600401615d68565b6020604051808303816000875af1158015612c20573d6000803e3d6000fd5b505050506040513d601f19601f82011682018060405250810190612c4491906162b3565b50505050505050505050565b801580612cca5750604051636eb1769f60e11b81523060048201526001600160a01b03838116602483015284169063dd62ed3e90604401602060405180830381865afa158015612ca4573d6000803e3d6000fd5b505050506040513d601f19601f82011682018060405250810190612cc89190615b63565b155b612d355760405162461bcd60e51b815260206004820152603660248201527f5361666545524332303a20617070726f76652066726f6d206e6f6e2d7a65726f60448201527520746f206e6f6e2d7a65726f20616c6c6f77616e636560501b6064820152608401610d75565b61125b8363095ea7b360e01b8484604051602401612a04929190615d68565b610f858133614652565b612d688282611a20565b6112da576000828152610103602090815260408083206001600160a01b03851684529091529020805460ff19166001179055612da13390565b6001600160a01b0316816001600160a01b0316837f2f8788117e7eff1d82e926ec794901d17c78024a50270940304540a733656f0d60405160405180910390a45050565b612def8282611a20565b156112da576000828152610103602090815260408083206001600160a01b0385168085529252808320805460ff1916905551339285917ff6391f5c32d9c69d2a47ea670b442974b53935d1edc7fd64eb21e047a839171b9190a45050565b60008051602061686c8339815191526001600160a01b0316633d18b9126040518163ffffffff1660e01b8152600401600060405180830381600087803b158015612e9657600080fd5b505af1158015612eaa573d6000803e3d6000fd5b50506040516370a0823160e01b8152612f29925060008051602061688c83398151915291506370a0823190612ee3903090600401615548565b602060405180830381865afa158015612f00573d6000803e3d6000fd5b505050506040513d601f19601f82011682018060405250810190612f249190615b63565b6139cc565b60ca546040516370a0823160e01b81526000916001600160a01b0316906370a0823190612f5a903090600401615548565b602060405180830381865afa158015612f77573d6000803e3d6000fd5b505050506040513d601f19601f82011682018060405250810190612f9b9190615b63565b905081811115613127576000612fb18383615c46565b90506000612fc0600283616208565b9050600061302a8260cb60189054906101000a900460ff16738f3cf7ad23cd3cadbd9735aff958023239c6a0636001600160a01b031663313ce5676040518163ffffffff1660e01b8152600401602060405180830381865afa158015612795573d6000803e3d6000fd5b6040805160808101825260ca546001600160601b0319606091821b1660a0830152601960ea1b60b4830152738f3cf7ad23cd3cadbd9735aff958023239c6a06360601b60b7830152825160ab81840301815260cb8301845282523060208301529181018590529192506000919081016130a2846146ab565b905260405163b858183f60e01b81529091507368b3465833fb72a70ecdf485e0e4c7bd8665fc459063b858183f906130de9084906004016162d0565b6020604051808303816000875af11580156130fd573d6000803e3d6000fd5b505050506040513d601f19601f820116820180604052508101906131219190615b63565b50505050505b6040516370a0823160e01b8152600090738f3cf7ad23cd3cadbd9735aff958023239c6a063906370a0823190613161903090600401615548565b602060405180830381865afa15801561317e573d6000803e3d6000fd5b505050506040513d601f19601f820116820180604052508101906131a29190615b63565b905080156132285760405163a39fc2c560e01b815273195f7b233947d51f4c3b756ad41a5ddb34cebce09063a39fc2c5906131e39084903090600401615f58565b6020604051808303816000875af1158015613202573d6000803e3d6000fd5b505050506040513d601f19601f820116820180604052508101906132269190615b63565b505b6040516370a0823160e01b81526000906000805160206168ec833981519152906370a082319061325c903090600401615548565b602060405180830381865afa158015613279573d6000803e3d6000fd5b505050506040513d601f19601f8201168201806040525081019061329d9190615b63565b60ca546040516370a0823160e01b81529192506001600160a01b0316906370a08231906132ce903090600401615548565b602060405180830381865afa1580156132eb573d6000803e3d6000fd5b505050506040513d601f19601f8201168201806040525081019061330f9190615b63565b92506000811180156133215750600083115b1561349b5760ca546040516326283ecf60e21b81526001600160a01b0390911660048201526000805160206168ec8339815191526024820152600160448201526064810184905260848101829052600090819060008051602061682c833981519152906398a0fb3c9060a401606060405180830381865afa1580156133aa573d6000803e3d6000fd5b505050506040513d601f19601f820116820180604052508101906133ce919061631e565b5060ca54604051635a47ddc360e01b81526001600160a01b0390911660048201526000805160206168ec8339815191526024820152600160448201819052606482018490526084820183905260a4820181905260c48201523060e482015242610104820152919350915060008051602061682c83398151915290635a47ddc390610124016060604051808303816000875af1158015613471573d6000803e3d6000fd5b505050506040513d601f19601f82011682018060405250810190613495919061631e565b50505050505b6040516370a0823160e01b81526000906000805160206168ac833981519152906370a08231906134cf903090600401615548565b602060405180830381865afa1580156134ec573d6000803e3d6000fd5b505050506040513d601f19601f820116820180604052508101906135109190615b63565b90508015610e995760405163b6b55f2560e01b81526004810182905260008051602061686c8339815191529063b6b55f2590602401612011565b60008260ff168260ff16111561358057613564838361634c565b61356f90600a6161e2565b61357990856161f1565b90506113da565b61358a828461634c565b61359590600a6161e2565b6135799085616208565b60006135a96117b3565b905060006135b68261265e565b60c9549091506001600160a01b03166135cf82856146c8565b6001600160a01b03161461125b5760405162461bcd60e51b815260206004820152601e60248201527f4261736553747261746567793a3a496e76616c69645369676e617475726500006044820152606401610d75565b60006136376136326119ab565b613c86565b60ca546040516370a0823160e01b81526001600160a01b03909116906370a08231906119df903090600401615548565b60008060008061367561240c565b9050858110613693576136888682615c46565b9350600092506136a4565b600093506136a18187615c46565b92505b6136b66136b18587615c59565b614168565b505060ca546040516370a0823160e01b81526000916001600160a01b0316906370a08231906136e9903090600401615548565b602060405180830381865afa158015613706573d6000803e3d6000fd5b505050506040513d601f19601f8201168201806040525081019061372a9190615b63565b905084811161373f5780945060009250613755565b61375261374c8683615c46565b876146ec565b92505b50509250925092565b60cd54604051630dc6346160e01b815260009161010090046001600160a01b031690630dc634619061379890879087908790600401616365565b602060405180830381865afa1580156137b5573d6000803e3d6000fd5b505050506040513d601f19601f820116820180604052508101906137d99190615b63565b60cd5460ca54604051633920455b60e11b81529293506001600160a01b036101009092048216926372408ab692859261381f929116908a908a908a908a90600401616393565b6000604051808303818588803b15801561383857600080fd5b505af1158015612c44573d6000803e3d6000fd5b60cb5460408051606083811b6001600160601b03199081166020840152309182901b16603483015282516028818403018152604890920190925260655490926000926001600160a01b03909216916340a7bb109161ffff600160a01b909104169086856138b7614702565b6040518663ffffffff1660e01b81526004016138d79594939291906163d0565b6040805180830381865afa1580156138f3573d6000803e3d6000fd5b505050506040513d601f19601f820116820180604052508101906139179190615ee1565b509050804710156139435760405162fae2d560e21b815260048101829052476024820152604401610d75565b60655460cb546001600160a01b039091169063c5803100908390600160a01b900461ffff1685873080613974614702565b6040518863ffffffff1660e01b815260040161399596959493929190616424565b6000604051808303818588803b1580156139ae57600080fd5b505af11580156139c2573d6000803e3d6000fd5b5050505050505050565b806000036139d75750565b6101355460ca546001600160a01b03918216916310cabd1d9160008051602061688c833981519152911684612710613a1261264860646161f1565b613a1c9190616208565b6040518563ffffffff1660e01b8152600401613a3b949392919061648b565b600060405180830381600087803b158015613a5557600080fd5b505af1925050508015613a66575060015b613ae5573d808015613a94576040519150601f19603f3d011682016040523d82523d6000602084013e613a99565b606091505b50613aa382614732565b80604051613ab19190615f05565b604051908190038120907fab2169d52de19835827d46106e22dfb1c4261618a79928c57f4b4b0c2cfe4f9390600090a25050565b60ca5460405182916001600160a01b03169060008051602061688c8339815191529060008051602061684c83398151915290600090a450565b60cb5461ffff858116600160a01b9092041614613b885760405162461bcd60e51b815260206004820152602260248201527f4261736553747261746567793a3a5661756c74436861696e49644d69736d61746044820152610c6d60f31b6064820152608401610d75565b6000613b9684826014613f7a565b604051602001613ba69190615f05565b604051602081830303815290604052613bbe90615f21565b60cb5460609190911c91506001600160a01b03168114613c2b5760405162461bcd60e51b815260206004820152602260248201527f4261736553747261746567793a3a5661756c74416464726573734d69736d61746044820152610c6d60f31b6064820152608401610d75565b610e99826148be565b603380546001600160a01b038381166001600160a01b0319831681179093556040519116919082907f8be0079c531659141344cd1fd0a4f28419497f9722a3daafe3b4186f6b6457e090600090a35050565b60008051602061686c8339815191526001600160a01b0316633d18b9126040518163ffffffff1660e01b8152600401600060405180830381600087803b158015613ccf57600080fd5b505af1158015613ce3573d6000803e3d6000fd5b50506040516370a0823160e01b8152613d1c925060008051602061688c83398151915291506370a0823190612ee3903090600401615548565b80600003613d275750565b604051632e1a7d4d60e01b81526004810182905260008051602061686c83398151915290632e1a7d4d90602401600060405180830381600087803b158015613d6e57600080fd5b505af1158015613d82573d6000803e3d6000fd5b505060ca546040516310e1b98f60e21b81526000935083925060008051602061682c83398151915291634386e63c91613ddc916001600160a01b0316906000805160206168ec833981519152906001908990600401615eb6565b6040805180830381865afa158015613df8573d6000803e3d6000fd5b505050506040513d601f19601f82011682018060405250810190613e1c9190615ee1565b60ca54919350915060008051602061682c83398151915290630dede6c4906001600160a01b03166000805160206168ec833981519152600187613e5e886146ab565b613e67886146ab565b6040516001600160e01b031960e089901b1681526001600160a01b03968716600482015295909416602486015291151560448501526064840152608483015260a48201523060c48201524260e48201526101040160408051808303816000875af1158015613ed9573d6000803e3d6000fd5b505050506040513d601f19601f82011682018060405250810190613efd9190615ee1565b50506040516370a0823160e01b815261125b906000805160206168ec833981519152906370a0823190613f34903090600401615548565b602060405180830381865afa158015613f51573d6000803e3d6000fd5b505050506040513d601f19601f82011682018060405250810190613f759190615b63565b61430c565b606081613f8881601f615c59565b1015613fc75760405162461bcd60e51b815260206004820152600e60248201526d736c6963655f6f766572666c6f7760901b6044820152606401610d75565b613fd18284615c59565b845110156140155760405162461bcd60e51b8152602060048201526011602482015270736c6963655f6f75744f66426f756e647360781b6044820152606401610d75565b606082158015614034576040519150600082526020820160405261407e565b6040519150601f8416801560200281840101858101878315602002848b0101015b8183101561406d578051835260209283019201614055565b5050858452601f01601f1916604052505b50949350505050565b806000036140925750565b600061409f61093361227a565b905081811061413e5760008051602061686c8339815191526001600160a01b0316633d18b9126040518163ffffffff1660e01b8152600401600060405180830381600087803b1580156140f157600080fd5b505af1158015614105573d6000803e3d6000fd5b50506040516370a0823160e01b81526112da925060008051602061688c83398151915291506370a0823190612ee3903090600401615548565b600061415d614150610d0e8486615c46565b6141586119ab565b6146ec565b905061125b81613c86565b60ca546040516370a0823160e01b8152600091829182916001600160a01b0316906370a082319061419d903090600401615548565b602060405180830381865afa1580156141ba573d6000803e3d6000fd5b505050506040513d601f19601f820116820180604052508101906141de9190615b63565b90508381106141f257509192600092509050565b6142046141ff8286615c46565b614087565b60ca546040516370a0823160e01b81526001600160a01b03909116906370a0823190614234903090600401615548565b602060405180830381865afa158015614251573d6000803e3d6000fd5b505050506040513d601f19601f820116820180604052508101906142759190615b63565b9050808411156142935791508161428c8185615c46565b9150614297565b8392505b50915091565b60c9546001600160a01b03163314806142b557503330145b6118f75760405162461bcd60e51b815260206004820152602260248201527f4261736553747261746567793a3a4f6e6c79537472617465676973744f725365604482015261363360f11b6064820152608401610d75565b806000036143175750565b6101355460ca546001600160a01b03918216916310cabd1d916000805160206168ec83398151915291168461271061435261264860646161f1565b61435c9190616208565b6040518563ffffffff1660e01b815260040161437b949392919061648b565b600060405180830381600087803b15801561439557600080fd5b505af19250505080156143a6575060015b6143e3573d8080156143d4576040519150601f19603f3d011682016040523d82523d6000602084013e6143d9565b606091505b50613aa3826149df565b60ca5460405182916001600160a01b0316906000805160206168ec8339815191529060008051602061684c83398151915290600090a450565b6000606060008060008661ffff166001600160401b03811115614441576144416157ae565b6040519080825280601f01601f19166020018201604052801561446b576020820181803683370190505b50905060008087516020890160008d8df191503d92508683111561448d578692505b828152826000602083013e9093509150505b94509492505050565b8180519060200120609760008761ffff1661ffff168152602001908152602001600020856040516144d99190615f05565b9081526040805191829003602090810183206001600160401b0388166000908152915220919091557fe183f33de2837795525b4792ca4cd60535bd77c53b7e7030060bfcf5734d6b0c9061453690879087908790879087906164b6565b60405180910390a15050505050565b600061459a826040518060400160405280602081526020017f5361666545524332303a206c6f772d6c6576656c2063616c6c206661696c6564815250856001600160a01b0316614ab09092919063ffffffff16565b90508051600014806145bb5750808060200190518101906145bb91906162b3565b61125b5760405162461bcd60e51b815260206004820152602a60248201527f5361666545524332303a204552433230206f7065726174696f6e20646964206e6044820152691bdd081cdd58d8d9595960b21b6064820152608401610d75565b600054610100900460ff166146415760405162461bcd60e51b8152600401610d7590616268565b614649614abf565b610f8581614aef565b61465c8282611a20565b6112da5761466981614b38565b614674836020614b4a565b604051602001614685929190616508565b60408051601f198184030181529082905262461bcd60e51b8252610d75916004016155ac565b600061271060cc54836146be91906161f1565b610e2d9190616208565b60008060006146d78585614ce5565b915091506146e481614d2a565b509392505050565b60008183106146fb57816113da565b5090919050565b60408051600160f01b6020820152620f424060228083019190915282518083039091018152604290910190915290565b60408051600280825260608201909252600091816020015b604080516060810182526000808252602080830182905292820152825260001990920191018161474a5750506040805160608101825260008051602061688c83398151915281526000805160206168ec833981519152602082015260009181018290528251929350918391906147c2576147c2616577565b602090810291909101810191909152604080516060810182526000805160206168ec833981519152815260ca546001600160a01b03169281019290925260019082018190528251839190811061481a5761481a616577565b6020026020010181905250600061483083611a4c565b905060008051602061682c83398151915263f41766d884614850846146ab565b8530426040518663ffffffff1660e01b815260040161487395949392919061658d565b6000604051808303816000875af19250505080156148b357506040513d6000823e601f3d908101601f191682016040526148b0919081019061661c565b60015b1561125b5750505050565b6000818060200190518101906148d491906166b5565b905060038160048111156148ea576148ea615c85565b036149355760008280602001905181019061490591906166d6565b9150506149158160000151612e4d565b805160405190815260008051602061690c83398151915290602001611d02565b600081600481111561494957614949615c85565b03614970576000828060200190518101906149649190616719565b91505061125b81614e6f565b600481600481111561498457614984615c85565b036112da5760008280602001905181019061499f9190616784565b9150506149af8160000151614f99565b80516040517f7c9a2d2ec51230d7dbed27f113a325b7e20aef7b049e68b2339257b5edff5bea91611d0291615548565b60006149ea826113e1565b905060008051602061682c8339815191526313dcfc5983614a0a846146ab565b60ca5460405160e085901b6001600160e01b0319168152600481019390935260248301919091526000805160206168ec83398151915260448301526001600160a01b03166064820152600160848201523060a48201524260c482015260e4016000604051808303816000875af1158015614a88573d6000803e3d6000fd5b505050506040513d6000823e601f3d908101601f1916820160405261125b919081019061661c565b6060611dc08484600085614fd8565b600054610100900460ff16614ae65760405162461bcd60e51b8152600401610d7590616268565b6118f733613c34565b600054610100900460ff16614b165760405162461bcd60e51b8152600401610d7590616268565b606580546001600160a01b0319166001600160a01b0392909216919091179055565b6060610e2d6001600160a01b03831660145b60606000614b598360026161f1565b614b64906002615c59565b6001600160401b03811115614b7b57614b7b6157ae565b6040519080825280601f01601f191660200182016040528015614ba5576020820181803683370190505b509050600360fc1b81600081518110614bc057614bc0616577565b60200101906001600160f81b031916908160001a905350600f60fb1b81600181518110614bef57614bef616577565b60200101906001600160f81b031916908160001a9053506000614c138460026161f1565b614c1e906001615c59565b90505b6001811115614c96576f181899199a1a9b1b9c1cb0b131b232b360811b85600f1660108110614c5257614c52616577565b1a60f81b828281518110614c6857614c68616577565b60200101906001600160f81b031916908160001a90535060049490941c93614c8f816167d2565b9050614c21565b5083156113da5760405162461bcd60e51b815260206004820181905260248201527f537472696e67733a20686578206c656e67746820696e73756666696369656e746044820152606401610d75565b6000808251604103614d1b5760208301516040840151606085015160001a614d0f878285856150b3565b94509450505050614d23565b506000905060025b9250929050565b6000816004811115614d3e57614d3e615c85565b03614d465750565b6001816004811115614d5a57614d5a615c85565b03614da25760405162461bcd60e51b815260206004820152601860248201527745434453413a20696e76616c6964207369676e617475726560401b6044820152606401610d75565b6002816004811115614db657614db6615c85565b03614e035760405162461bcd60e51b815260206004820152601f60248201527f45434453413a20696e76616c6964207369676e6174757265206c656e677468006044820152606401610d75565b6003816004811115614e1757614e17615c85565b03610f855760405162461bcd60e51b815260206004820152602260248201527f45434453413a20696e76616c6964207369676e6174757265202773272076616c604482015261756560f01b6064820152608401610d75565b602080820151600090815260cf909152604090205460ff1615614ed45760405162461bcd60e51b815260206004820152601e60248201527f4261736553747261746567793a3a416c726561647957697468647261776e00006044820152606401610d75565b600080614ee48360000151614168565b91509150600060016040518060800160405280306001600160a01b031681526020018581526020018481526020018660200151815250604051602001614f2b9291906167e9565b60408051601f1981840301815291905290508215614f6c5760cb54614f6790849061ffff600160a01b820416906001600160a01b03168461375e565b614f75565b614f758161384c565b505050602090810151600090815260cf90915260409020805460ff19166001179055565b614fa28161516a565b60ca546040516370a0823160e01b8152610f859183916001600160a01b03909116906370a0823190611b23903090600401615548565b6060824710156150395760405162461bcd60e51b815260206004820152602660248201527f416464726573733a20696e73756666696369656e742062616c616e636520666f6044820152651c8818d85b1b60d21b6064820152608401610d75565b600080866001600160a01b031685876040516150559190615f05565b60006040518083038185875af1925050503d8060008114615092576040519150601f19603f3d011682016040523d82523d6000602084013e615097565b606091505b50915091506150a887838387615380565b979650505050505050565b6000806fa2a8918ca85bafe22016d0b997e4df60600160ff1b038311156150e0575060009050600361449f565b6040805160008082526020820180845289905260ff881692820192909252606081018690526080810185905260019060a0016020604051602081039080840390855afa158015615134573d6000803e3d6000fd5b5050604051601f1901519150506001600160a01b03811661515d5760006001925092505061449f565b9660009650945050505050565b60008051602061686c833981519152632e1a7d4d6151866119ab565b6040518263ffffffff1660e01b81526004016151a491815260200190565b600060405180830381600087803b1580156151be57600080fd5b505af11580156151d2573d6000803e3d6000fd5b50506040516370a0823160e01b815261526492508391506000805160206168ac833981519152906370a082319061520d903090600401615548565b602060405180830381865afa15801561522a573d6000803e3d6000fd5b505050506040513d601f19601f8201168201806040525081019061524e9190615b63565b6000805160206168ac83398151915291906129e5565b6040516370a0823160e01b81526152f29082906000805160206168ec833981519152906370a082319061529b903090600401615548565b602060405180830381865afa1580156152b8573d6000803e3d6000fd5b505050506040513d601f19601f820116820180604052508101906152dc9190615b63565b6000805160206168ec83398151915291906129e5565b6040516370a0823160e01b8152610f8590829060008051602061688c833981519152906370a0823190615329903090600401615548565b602060405180830381865afa158015615346573d6000803e3d6000fd5b505050506040513d601f19601f8201168201806040525081019061536a9190615b63565b60008051602061688c83398151915291906129e5565b606083156153ed5782516000036153e65761539a85612a3b565b6153e65760405162461bcd60e51b815260206004820152601d60248201527f416464726573733a2063616c6c20746f206e6f6e2d636f6e74726163740000006044820152606401610d75565b5081611dc0565b611dc083838151156154025781518083602001fd5b8060405162461bcd60e51b8152600401610d7591906155ac565b803561ffff8116811461542e57600080fd5b919050565b60008083601f84011261544557600080fd5b5081356001600160401b0381111561545c57600080fd5b602083019150836020828501011115614d2357600080fd5b80356001600160401b038116811461542e57600080fd5b600080600080600080608087890312156154a457600080fd5b6154ad8761541c565b955060208701356001600160401b03808211156154c957600080fd5b6154d58a838b01615433565b90975095508591506154e960408a01615474565b945060608901359150808211156154ff57600080fd5b5061550c89828a01615433565b979a9699509497509295939492505050565b60006020828403121561553057600080fd5b81356001600160e01b0319811681146113da57600080fd5b6001600160a01b0391909116815260200190565b60005b8381101561557757818101518382015260200161555f565b50506000910152565b6000815180845261559881602086016020860161555c565b601f01601f19169290920160200192915050565b6020815260006113da6020830184615580565b6000602082840312156155d157600080fd5b6113da8261541c565b600080604083850312156155ed57600080fd5b6155f68361541c565b946020939093013593505050565b6001600160a01b0381168114610f8557600080fd5b60006020828403121561562b57600080fd5b81356113da81615604565b600080600080600080600080610100898b03121561565357600080fd5b883561565e81615604565b9750602089013561566e81615604565b9650604089013561567e81615604565b9550606089013561568e81615604565b945061569c60808a0161541c565b93506156aa60a08a0161541c565b925060c08901356156ba81615604565b915060e08901356156ca81615604565b809150509295985092959890939650565b6001600160a01b03169052565b6000602082840312156156fa57600080fd5b5035919050565b6000806040838503121561571457600080fd5b82359150602083013561572681615604565b809150509250929050565b60008060006040848603121561574657600080fd5b61574f8461541c565b925060208401356001600160401b0381111561576a57600080fd5b61577686828701615433565b9497909650939450505050565b8015158114610f8557600080fd5b6000602082840312156157a357600080fd5b81356113da81615783565b634e487b7160e01b600052604160045260246000fd5b604051602081016001600160401b03811182821017156157e6576157e66157ae565b60405290565b604051601f8201601f191681016001600160401b0381118282101715615814576158146157ae565b604052919050565b60006001600160401b03821115615835576158356157ae565b50601f01601f191660200190565b600082601f83011261585457600080fd5b81356158676158628261581c565b6157ec565b81815284602083860101111561587c57600080fd5b816020850160208301376000918101602001919091529392505050565b600080600080600060a086880312156158b157600080fd5b8535945060208601359350604086013592506060860135915060808601356001600160401b038111156158e357600080fd5b6158ef88828901615843565b9150509295509295909350565b60008060006060848603121561591157600080fd5b61591a8461541c565b925060208401356001600160401b0381111561593557600080fd5b61594186828701615843565b92505061595060408501615474565b90509250925092565b6000806040838503121561596c57600080fd5b6159758361541c565b91506159836020840161541c565b90509250929050565b60008060008060008060c087890312156159a557600080fd5b6159ae8761541c565b955060208701356001600160401b03808211156159ca57600080fd5b6159d68a838b01615843565b965060408901359550606089013591506159ef82615604565b9093506080880135925060a08801359080821115615a0c57600080fd5b50615a1989828a01615843565b9150509295509295509295565b600080600080600060808688031215615a3e57600080fd5b615a478661541c565b9450615a556020870161541c565b93506040860135925060608601356001600160401b03811115615a7757600080fd5b615a8388828901615433565b969995985093965092949392505050565b600080600060608486031215615aa957600080fd5b615ab28461541c565b9250615ac06020850161541c565b9150604084013590509250925092565b60008060008060808587031215615ae657600080fd5b8435615af181615604565b93506020850135615b0181615604565b93969395505050506040820135916060013590565b60008060008060808587031215615b2c57600080fd5b615b358561541c565b9350615b436020860161541c565b92506040850135615b5381615604565b9396929550929360600135925050565b600060208284031215615b7557600080fd5b5051919050565b600181811c90821680615b9057607f821691505b602082108103615bb057634e487b7160e01b600052602260045260246000fd5b50919050565b8183823760009101908152919050565b600060208284031215615bd857600080fd5b815160ff811681146113da57600080fd5b81835281816020850137506000828201602090810191909152601f909101601f19169091010190565b61ffff84168152604060208201526000612655604083018486615be9565b634e487b7160e01b600052601160045260246000fd5b81810381811115610e2d57610e2d615c30565b80820180821115610e2d57610e2d615c30565b600060018201615c7e57615c7e615c30565b5060010190565b634e487b7160e01b600052602160045260246000fd5b60058110615cb957634e487b7160e01b600052602160045260246000fd5b9052565b615cc78184615c9b565b60406020820152615cdc6040820183516156db565b6020820151606082015260408201516080820152606082015160a0820152608082015160c082015260a082015160e0820152600060c0830151610100818185015260e085015191506101208281860152818601519250610140915082828601528086015192505061016082818601528186015192508061018086015250506126556101a0840182615580565b6001600160a01b03929092168252602082015260400190565b8284823760609190911b6001600160601b0319169101908152601401919050565b601f82111561125b57600081815260208120601f850160051c81016020861015615dc95750805b601f850160051c820191505b81811015610df457828155600101615dd5565b600019600383901b1c191660019190911b1790565b81516001600160401b03811115615e1657615e166157ae565b615e2a81615e248454615b7c565b84615da2565b602080601f831160018114615e595760008415615e475750858301515b615e518582615de8565b865550610df4565b600085815260208120601f198616915b82811015615e8857888601518255948401946001909101908401615e69565b5085821015615ea65787850151600019600388901b60f8161c191681555b5050505050600190811b01905550565b6001600160a01b03948516815292909316602083015215156040820152606081019190915260800190565b60008060408385031215615ef457600080fd5b505080516020909101519092909150565b60008251615f1781846020870161555c565b9190910192915050565b805160208201516001600160601b03198082169291906014831015615f505780818460140360031b1b83161693505b505050919050565b9182526001600160a01b0316602082015260400190565b600061ffff8088168352808716602084015250846040830152608060608301526150a8608083018486615be9565b61ffff86168152608060208201526000615fbb608083018688615be9565b6001600160401b0394909416604083015250606001529392505050565b6001600160401b03831115615fef57615fef6157ae565b61600383615ffd8354615b7c565b83615da2565b6000601f841160018114616031576000851561601f5750838201355b6160298682615de8565b845550610e99565b600083815260209020601f19861690835b828110156160625786850135825560209485019460019092019101616042565b508682101561607f5760001960f88860031b161c19848701351681555b505060018560011b0183555050505050565b6000602082840312156160a357600080fd5b81516001600160401b038111156160b957600080fd5b8201601f810184136160ca57600080fd5b80516160d86158628261581c565b8181528560208385010111156160ed57600080fd5b61265582602083016020860161555c565b600181815b8085111561613957816000190482111561611f5761611f615c30565b8085161561612c57918102915b93841c9390800290616103565b509250929050565b60008261615057506001610e2d565b8161615d57506000610e2d565b8160018114616173576002811461617d57616199565b6001915050610e2d565b60ff84111561618e5761618e615c30565b50506001821b610e2d565b5060208310610133831016604e8410600b84101617156161bc575081810a610e2d565b6161c683836160fe565b80600019048211156161da576161da615c30565b029392505050565b60006113da60ff841683616141565b8082028115828204841417610e2d57610e2d615c30565b60008261622557634e487b7160e01b600052601260045260246000fd5b500490565b61ffff851681526080602082015260006162476080830186615580565b6001600160401b038516604084015282810360608401526150a88185615580565b6020808252602b908201527f496e697469616c697a61626c653a20636f6e7472616374206973206e6f74206960408201526a6e697469616c697a696e6760a81b606082015260800190565b6000602082840312156162c557600080fd5b81516113da81615783565b6020815260008251608060208401526162ec60a0840182615580565b905060018060a01b03602085015116604084015260408401516060840152606084015160808401528091505092915050565b60008060006060848603121561633357600080fd5b8351925060208401519150604084015190509250925092565b60ff8281168282160390811115610e2d57610e2d615c30565b61ffff841681526001600160a01b038316602082015260606040820181905260009061265590830184615580565b6001600160a01b0386811682526020820186905261ffff851660408301528316606082015260a0608082018190526000906150a890830184615580565b61ffff861681526001600160a01b038516602082015260a0604082018190526000906163fe90830186615580565b841515606084015282810360808401526164188185615580565b98975050505050505050565b61ffff8716815260c06020820152600061644160c0830188615580565b82810360408401526164538188615580565b6001600160a01b0387811660608601528616608085015283810360a0850152905061647e8185615580565b9998505050505050505050565b6001600160a01b039485168152929093166020830152604082015260ff909116606082015260800190565b61ffff8616815260a0602082015260006164d360a0830187615580565b6001600160401b038616604084015282810360608401526164f48186615580565b905082810360808401526164188185615580565b76020b1b1b2b9b9a1b7b73a3937b61d1030b1b1b7bab73a1604d1b81526000835161653a81601785016020880161555c565b7001034b99036b4b9b9b4b733903937b6329607d1b601791840191820152835161656b81602884016020880161555c565b01602801949350505050565b634e487b7160e01b600052603260045260246000fd5b600060a0820187835260208781850152604060a08186015282885180855260c087019150838a01945060005b818110156165f657855180516001600160a01b039081168552868201511686850152840151151584840152948401946060909201916001016165b9565b50508094505050505061660c60608301856156db565b8260808301529695505050505050565b6000602080838503121561662f57600080fd5b82516001600160401b038082111561664657600080fd5b818501915085601f83011261665a57600080fd5b81518181111561666c5761666c6157ae565b8060051b915061667d8483016157ec565b818152918301840191848101908884111561669757600080fd5b938501935b838510156164185784518252938501939085019061669c565b6000602082840312156166c757600080fd5b8151600581106113da57600080fd5b60008082840360408112156166ea57600080fd5b835192506020601f198201121561670057600080fd5b506167096157c4565b6020939093015183525092909150565b600080828403606081121561672d57600080fd5b835192506040601f198201121561674357600080fd5b50604080519081016001600160401b0381118282101715616766576167666157ae565b60409081526020858101518352940151938101939093525092909150565b600080828403604081121561679857600080fd5b835192506020601f19820112156167ae57600080fd5b506167b76157c4565b60208401516167c581615604565b8152919491935090915050565b6000816167e1576167e1615c30565b506000190190565b60a081016167f78285615c9b565b60018060a01b038351166020830152602083015160408301526040830151606083015260608301516080830152939250505056fe000000000000000000000000cc25c0fd84737f44a7d38649b69491bbf0c7f083ea368a40e9570069bb8e6511d668293ad2e1f03b0d982431fd223de9f3b70ca600000000000000000000000097bd59a8202f8263c2ec39cf6cf6b438d0b458760000000000000000000000007238390d5f6f64e67c3211c343a410e2a3dec142000000000000000000000000d17cb0f162f133e339c0bbfc18c36c357e681d6b6d1efadb607420c71e8f966ae6611a2b817ec83a98f82ae24284fd004cf9d40c00000000000000000000000040379a439d4f6795b6fc9aa5687db461677a2dbab0c58532a125fc3c0adccaef396bf65344a4d5781cec2e4c593e6b611d75f150a2646970667358221220527f35fb3d682b41fa3ecc24baa1e6859a6e3f01097a1ac8de2f5e0ae43cd65a64736f6c63430008130033",
  "linkReferences": {},
  "deployedLinkReferences": {}
}