{
  "_format": "hh-sol-artifact-1",
  "contractName": "MockPearlStrategy",
  "sourceName": "contracts/mock/MockPearlStrategy.sol",
  "abi": [
    {
      "inputs": [
        {
          "internalType": "uint256",
          "name": "messageType",
          "type": "uint256"
        }
      ],
      "name": "IncorrectMessageType",
      "type": "error"
    },
    {
      "inputs": [
        {
          "internalType": "uint256",
          "name": "amount",
          "type": "uint256"
        },
        {
          "internalType": "uint256",
          "name": "balance",
          "type": "uint256"
        }
      ],
      "name": "InsufficientFunds",
      "type": "error"
    },
    {
      "anonymous": false,
      "inputs": [
        {
          "indexed": false,
          "internalType": "uint256",
          "name": "debtOutstanding",
          "type": "uint256"
        }
      ],
      "name": "AdjustedPosition",
      "type": "event"
    },
    {
      "anonymous": false,
      "inputs": [
        {
          "indexed": true,
          "internalType": "bytes",
          "name": "lowLevelErrorData",
          "type": "bytes"
        }
      ],
      "name": "EmergencyQuoteOnAlternativeDEX",
      "type": "event"
    },
    {
      "anonymous": false,
      "inputs": [
        {
          "indexed": true,
          "internalType": "bytes",
          "name": "lowLevelErrorData",
          "type": "bytes"
        }
      ],
      "name": "EmergencySwapOnAlternativeDEX",
      "type": "event"
    },
    {
      "anonymous": false,
      "inputs": [
        {
          "indexed": false,
          "internalType": "uint8",
          "name": "version",
          "type": "uint8"
        }
      ],
      "name": "Initialized",
      "type": "event"
    },
    {
      "anonymous": false,
      "inputs": [
        {
          "indexed": false,
          "internalType": "uint16",
          "name": "_srcChainId",
          "type": "uint16"
        },
        {
          "indexed": false,
          "internalType": "bytes",
          "name": "_srcAddress",
          "type": "bytes"
        },
        {
          "indexed": false,
          "internalType": "uint64",
          "name": "_nonce",
          "type": "uint64"
        },
        {
          "indexed": false,
          "internalType": "bytes",
          "name": "_payload",
          "type": "bytes"
        },
        {
          "indexed": false,
          "internalType": "bytes",
          "name": "_reason",
          "type": "bytes"
        }
      ],
      "name": "MessageFailed",
      "type": "event"
    },
    {
      "anonymous": false,
      "inputs": [
        {
          "indexed": true,
          "internalType": "address",
          "name": "src",
          "type": "address"
        },
        {
          "indexed": true,
          "internalType": "address",
          "name": "dst",
          "type": "address"
        },
        {
          "indexed": true,
          "internalType": "uint256",
          "name": "amountOut",
          "type": "uint256"
        },
        {
          "indexed": false,
          "internalType": "uint256",
          "name": "amountIn",
          "type": "uint256"
        }
      ],
      "name": "Notified",
      "type": "event"
    },
    {
      "anonymous": false,
      "inputs": [
        {
          "indexed": true,
          "internalType": "address",
          "name": "previousOwner",
          "type": "address"
        },
        {
          "indexed": true,
          "internalType": "address",
          "name": "newOwner",
          "type": "address"
        }
      ],
      "name": "OwnershipTransferred",
      "type": "event"
    },
    {
      "anonymous": false,
      "inputs": [
        {
          "indexed": true,
          "internalType": "address",
          "name": "src",
          "type": "address"
        },
        {
          "indexed": true,
          "internalType": "address",
          "name": "dst",
          "type": "address"
        },
        {
          "indexed": true,
          "internalType": "uint256",
          "name": "amount",
          "type": "uint256"
        }
      ],
      "name": "Quote",
      "type": "event"
    },
    {
      "anonymous": false,
      "inputs": [
        {
          "indexed": false,
          "internalType": "uint16",
          "name": "_srcChainId",
          "type": "uint16"
        },
        {
          "indexed": false,
          "internalType": "bytes",
          "name": "_srcAddress",
          "type": "bytes"
        },
        {
          "indexed": false,
          "internalType": "uint64",
          "name": "_nonce",
          "type": "uint64"
        },
        {
          "indexed": false,
          "internalType": "bytes32",
          "name": "_payloadHash",
          "type": "bytes32"
        }
      ],
      "name": "RetryMessageSuccess",
      "type": "event"
    },
    {
      "anonymous": false,
      "inputs": [
        {
          "indexed": true,
          "internalType": "bytes32",
          "name": "role",
          "type": "bytes32"
        },
        {
          "indexed": true,
          "internalType": "bytes32",
          "name": "previousAdminRole",
          "type": "bytes32"
        },
        {
          "indexed": true,
          "internalType": "bytes32",
          "name": "newAdminRole",
          "type": "bytes32"
        }
      ],
      "name": "RoleAdminChanged",
      "type": "event"
    },
    {
      "anonymous": false,
      "inputs": [
        {
          "indexed": true,
          "internalType": "bytes32",
          "name": "role",
          "type": "bytes32"
        },
        {
          "indexed": true,
          "internalType": "address",
          "name": "account",
          "type": "address"
        },
        {
          "indexed": true,
          "internalType": "address",
          "name": "sender",
          "type": "address"
        }
      ],
      "name": "RoleGranted",
      "type": "event"
    },
    {
      "anonymous": false,
      "inputs": [
        {
          "indexed": true,
          "internalType": "bytes32",
          "name": "role",
          "type": "bytes32"
        },
        {
          "indexed": true,
          "internalType": "address",
          "name": "account",
          "type": "address"
        },
        {
          "indexed": true,
          "internalType": "address",
          "name": "sender",
          "type": "address"
        }
      ],
      "name": "RoleRevoked",
      "type": "event"
    },
    {
      "anonymous": false,
      "inputs": [
        {
          "indexed": false,
          "internalType": "uint16",
          "name": "_dstChainId",
          "type": "uint16"
        },
        {
          "indexed": false,
          "internalType": "uint16",
          "name": "_type",
          "type": "uint16"
        },
        {
          "indexed": false,
          "internalType": "uint256",
          "name": "_minDstGas",
          "type": "uint256"
        }
      ],
      "name": "SetMinDstGas",
      "type": "event"
    },
    {
      "anonymous": false,
      "inputs": [
        {
          "indexed": false,
          "internalType": "address",
          "name": "precrime",
          "type": "address"
        }
      ],
      "name": "SetPrecrime",
      "type": "event"
    },
    {
      "anonymous": false,
      "inputs": [
        {
          "indexed": false,
          "internalType": "uint16",
          "name": "_remoteChainId",
          "type": "uint16"
        },
        {
          "indexed": false,
          "internalType": "bytes",
          "name": "_path",
          "type": "bytes"
        }
      ],
      "name": "SetTrustedRemote",
      "type": "event"
    },
    {
      "anonymous": false,
      "inputs": [
        {
          "indexed": false,
          "internalType": "uint16",
          "name": "_remoteChainId",
          "type": "uint16"
        },
        {
          "indexed": false,
          "internalType": "bytes",
          "name": "_remoteAddress",
          "type": "bytes"
        }
      ],
      "name": "SetTrustedRemoteAddress",
      "type": "event"
    },
    {
      "anonymous": false,
      "inputs": [
        {
          "indexed": true,
          "internalType": "address",
          "name": "token",
          "type": "address"
        },
        {
          "indexed": false,
          "internalType": "uint256",
          "name": "amount",
          "type": "uint256"
        },
        {
          "indexed": false,
          "internalType": "address",
          "name": "sender",
          "type": "address"
        }
      ],
      "name": "SgReceived",
      "type": "event"
    },
    {
      "anonymous": false,
      "inputs": [
        {
          "indexed": false,
          "internalType": "address",
          "name": "newStrategy",
          "type": "address"
        }
      ],
      "name": "StrategyMigrated",
      "type": "event"
    },
    {
      "anonymous": false,
      "inputs": [
        {
          "indexed": false,
          "internalType": "uint256",
          "name": "profit",
          "type": "uint256"
        },
        {
          "indexed": false,
          "internalType": "uint256",
          "name": "loss",
          "type": "uint256"
        },
        {
          "indexed": false,
          "internalType": "uint256",
          "name": "debtPayment",
          "type": "uint256"
        },
        {
          "indexed": false,
          "internalType": "uint256",
          "name": "giveToStrategy",
          "type": "uint256"
        },
        {
          "indexed": false,
          "internalType": "uint256",
          "name": "requestFromStrategy",
          "type": "uint256"
        },
        {
          "indexed": false,
          "internalType": "uint256",
          "name": "creditAvailable",
          "type": "uint256"
        },
        {
          "indexed": false,
          "internalType": "uint256",
          "name": "totalAssets",
          "type": "uint256"
        }
      ],
      "name": "StrategyReported",
      "type": "event"
    },
    {
      "anonymous": false,
      "inputs": [
        {
          "indexed": true,
          "internalType": "address",
          "name": "src",
          "type": "address"
        },
        {
          "indexed": true,
          "internalType": "address",
          "name": "dst",
          "type": "address"
        },
        {
          "indexed": true,
          "internalType": "uint256",
          "name": "amount",
          "type": "uint256"
        }
      ],
      "name": "Swap",
      "type": "event"
    },
    {
      "inputs": [],
      "name": "DEFAULT_ADMIN_ROLE",
      "outputs": [
        {
          "internalType": "bytes32",
          "name": "",
          "type": "bytes32"
        }
      ],
      "stateMutability": "view",
      "type": "function"
    },
    {
      "inputs": [],
      "name": "DEFAULT_PAYLOAD_SIZE_LIMIT",
      "outputs": [
        {
          "internalType": "uint256",
          "name": "",
          "type": "uint256"
        }
      ],
      "stateMutability": "view",
      "type": "function"
    },
    {
      "inputs": [],
      "name": "DEFAULT_SLIPPAGE",
      "outputs": [
        {
          "internalType": "uint256",
          "name": "",
          "type": "uint256"
        }
      ],
      "stateMutability": "view",
      "type": "function"
    },
    {
      "inputs": [],
      "name": "QUOTE_OPERATION_PROVIDER",
      "outputs": [
        {
          "internalType": "bytes32",
          "name": "",
          "type": "bytes32"
        }
      ],
      "stateMutability": "view",
      "type": "function"
    },
    {
      "inputs": [
        {
          "internalType": "uint256",
          "name": "_debtOutstanding",
          "type": "uint256"
        }
      ],
      "name": "adjustPosition",
      "outputs": [],
      "stateMutability": "nonpayable",
      "type": "function"
    },
    {
      "inputs": [],
      "name": "balanceOfLpStaked",
      "outputs": [
        {
          "internalType": "uint256",
          "name": "",
          "type": "uint256"
        }
      ],
      "stateMutability": "view",
      "type": "function"
    },
    {
      "inputs": [],
      "name": "balanceOfPearlRewards",
      "outputs": [
        {
          "internalType": "uint256",
          "name": "",
          "type": "uint256"
        }
      ],
      "stateMutability": "view",
      "type": "function"
    },
    {
      "inputs": [],
      "name": "balanceOfWant",
      "outputs": [
        {
          "internalType": "uint256",
          "name": "",
          "type": "uint256"
        }
      ],
      "stateMutability": "view",
      "type": "function"
    },
    {
      "inputs": [
        {
          "internalType": "uint256",
          "name": "epoch",
          "type": "uint256"
        }
      ],
      "name": "callMe",
      "outputs": [],
      "stateMutability": "nonpayable",
      "type": "function"
    },
    {
      "inputs": [],
      "name": "clearWant",
      "outputs": [],
      "stateMutability": "nonpayable",
      "type": "function"
    },
    {
      "inputs": [],
      "name": "currentChainId",
      "outputs": [
        {
          "internalType": "uint16",
          "name": "",
          "type": "uint16"
        }
      ],
      "stateMutability": "view",
      "type": "function"
    },
    {
      "inputs": [
        {
          "internalType": "uint256",
          "name": "_daiAmount",
          "type": "uint256"
        }
      ],
      "name": "daiToWant",
      "outputs": [
        {
          "internalType": "uint256",
          "name": "",
          "type": "uint256"
        }
      ],
      "stateMutability": "view",
      "type": "function"
    },
    {
      "inputs": [],
      "name": "emergencyExit",
      "outputs": [
        {
          "internalType": "bool",
          "name": "",
          "type": "bool"
        }
      ],
      "stateMutability": "view",
      "type": "function"
    },
    {
      "inputs": [],
      "name": "estimatedTotalAssets",
      "outputs": [
        {
          "internalType": "uint256",
          "name": "",
          "type": "uint256"
        }
      ],
      "stateMutability": "view",
      "type": "function"
    },
    {
      "inputs": [
        {
          "internalType": "uint256",
          "name": "_stakedLpTokens",
          "type": "uint256"
        }
      ],
      "name": "exitPosition",
      "outputs": [],
      "stateMutability": "nonpayable",
      "type": "function"
    },
    {
      "inputs": [
        {
          "internalType": "uint16",
          "name": "",
          "type": "uint16"
        },
        {
          "internalType": "bytes",
          "name": "",
          "type": "bytes"
        },
        {
          "internalType": "uint64",
          "name": "",
          "type": "uint64"
        }
      ],
      "name": "failedMessages",
      "outputs": [
        {
          "internalType": "bytes32",
          "name": "",
          "type": "bytes32"
        }
      ],
      "stateMutability": "view",
      "type": "function"
    },
    {
      "inputs": [
        {
          "internalType": "uint16",
          "name": "_srcChainId",
          "type": "uint16"
        },
        {
          "internalType": "bytes",
          "name": "_srcAddress",
          "type": "bytes"
        }
      ],
      "name": "forceResumeReceive",
      "outputs": [],
      "stateMutability": "nonpayable",
      "type": "function"
    },
    {
      "inputs": [
        {
          "internalType": "uint16",
          "name": "_version",
          "type": "uint16"
        },
        {
          "internalType": "uint16",
          "name": "_chainId",
          "type": "uint16"
        },
        {
          "internalType": "address",
          "name": "",
          "type": "address"
        },
        {
          "internalType": "uint256",
          "name": "_configType",
          "type": "uint256"
        }
      ],
      "name": "getConfig",
      "outputs": [
        {
          "internalType": "bytes",
          "name": "",
          "type": "bytes"
        }
      ],
      "stateMutability": "view",
      "type": "function"
    },
    {
      "inputs": [
        {
          "internalType": "bytes32",
          "name": "_messageHash",
          "type": "bytes32"
        }
      ],
      "name": "getEthSignedMessageHash",
      "outputs": [
        {
          "internalType": "bytes32",
          "name": "",
          "type": "bytes32"
        }
      ],
      "stateMutability": "pure",
      "type": "function"
    },
    {
      "inputs": [
        {
          "internalType": "bytes32",
          "name": "role",
          "type": "bytes32"
        }
      ],
      "name": "getRoleAdmin",
      "outputs": [
        {
          "internalType": "bytes32",
          "name": "",
          "type": "bytes32"
        }
      ],
      "stateMutability": "view",
      "type": "function"
    },
    {
      "inputs": [
        {
          "internalType": "uint16",
          "name": "_remoteChainId",
          "type": "uint16"
        }
      ],
      "name": "getTrustedRemoteAddress",
      "outputs": [
        {
          "internalType": "bytes",
          "name": "",
          "type": "bytes"
        }
      ],
      "stateMutability": "view",
      "type": "function"
    },
    {
      "inputs": [
        {
          "internalType": "bytes32",
          "name": "role",
          "type": "bytes32"
        },
        {
          "internalType": "address",
          "name": "account",
          "type": "address"
        }
      ],
      "name": "grantRole",
      "outputs": [],
      "stateMutability": "nonpayable",
      "type": "function"
    },
    {
      "inputs": [
        {
          "internalType": "uint256",
          "name": "_totalDebt",
          "type": "uint256"
        },
        {
          "internalType": "uint256",
          "name": "_debtOutstanding",
          "type": "uint256"
        },
        {
          "internalType": "uint256",
          "name": "_creditAvailable",
          "type": "uint256"
        },
        {
          "internalType": "uint256",
          "name": "_debtRatio",
          "type": "uint256"
        },
        {
          "internalType": "bytes",
          "name": "_signature",
          "type": "bytes"
        }
      ],
      "name": "harvest",
      "outputs": [],
      "stateMutability": "nonpayable",
      "type": "function"
    },
    {
      "inputs": [
        {
          "internalType": "bytes32",
          "name": "role",
          "type": "bytes32"
        },
        {
          "internalType": "address",
          "name": "account",
          "type": "address"
        }
      ],
      "name": "hasRole",
      "outputs": [
        {
          "internalType": "bool",
          "name": "",
          "type": "bool"
        }
      ],
      "stateMutability": "view",
      "type": "function"
    },
    {
      "inputs": [
        {
          "internalType": "address",
          "name": "_lzEndpoint",
          "type": "address"
        },
        {
          "internalType": "address",
          "name": "_strategist",
          "type": "address"
        },
        {
          "internalType": "contract IERC20",
          "name": "_want",
          "type": "address"
        },
        {
          "internalType": "address",
          "name": "_vault",
          "type": "address"
        },
        {
          "internalType": "uint16",
          "name": "_vaultChainId",
          "type": "uint16"
        },
        {
          "internalType": "uint16",
          "name": "_currentChainId",
          "type": "uint16"
        },
        {
          "internalType": "address",
          "name": "_sgBridge",
          "type": "address"
        },
        {
          "internalType": "address",
          "name": "_router",
          "type": "address"
        }
      ],
      "name": "initialize",
      "outputs": [],
      "stateMutability": "nonpayable",
      "type": "function"
    },
    {
      "inputs": [
        {
          "internalType": "uint16",
          "name": "_srcChainId",
          "type": "uint16"
        },
        {
          "internalType": "bytes",
          "name": "_srcAddress",
          "type": "bytes"
        }
      ],
      "name": "isTrustedRemote",
      "outputs": [
        {
          "internalType": "bool",
          "name": "",
          "type": "bool"
        }
      ],
      "stateMutability": "view",
      "type": "function"
    },
    {
      "inputs": [],
      "name": "liquidateAllPositions",
      "outputs": [
        {
          "internalType": "uint256",
          "name": "",
          "type": "uint256"
        }
      ],
      "stateMutability": "nonpayable",
      "type": "function"
    },
    {
      "inputs": [
        {
          "internalType": "uint256",
          "name": "_amountNeeded",
          "type": "uint256"
        }
      ],
      "name": "liquidatePosition",
      "outputs": [],
      "stateMutability": "nonpayable",
      "type": "function"
    },
    {
      "inputs": [],
      "name": "lzEndpoint",
      "outputs": [
        {
          "internalType": "contract ILayerZeroEndpointUpgradeable",
          "name": "",
          "type": "address"
        }
      ],
      "stateMutability": "view",
      "type": "function"
    },
    {
      "inputs": [
        {
          "internalType": "uint16",
          "name": "_srcChainId",
          "type": "uint16"
        },
        {
          "internalType": "bytes",
          "name": "_srcAddress",
          "type": "bytes"
        },
        {
          "internalType": "uint64",
          "name": "_nonce",
          "type": "uint64"
        },
        {
          "internalType": "bytes",
          "name": "_payload",
          "type": "bytes"
        }
      ],
      "name": "lzReceive",
      "outputs": [],
      "stateMutability": "nonpayable",
      "type": "function"
    },
    {
      "inputs": [
        {
          "internalType": "uint16",
          "name": "",
          "type": "uint16"
        },
        {
          "internalType": "uint16",
          "name": "",
          "type": "uint16"
        }
      ],
      "name": "minDstGasLookup",
      "outputs": [
        {
          "internalType": "uint256",
          "name": "",
          "type": "uint256"
        }
      ],
      "stateMutability": "view",
      "type": "function"
    },
    {
      "inputs": [],
      "name": "name",
      "outputs": [
        {
          "internalType": "string",
          "name": "",
          "type": "string"
        }
      ],
      "stateMutability": "pure",
      "type": "function"
    },
    {
      "inputs": [
        {
          "internalType": "uint16",
          "name": "_srcChainId",
          "type": "uint16"
        },
        {
          "internalType": "bytes",
          "name": "_srcAddress",
          "type": "bytes"
        },
        {
          "internalType": "uint64",
          "name": "_nonce",
          "type": "uint64"
        },
        {
          "internalType": "bytes",
          "name": "_payload",
          "type": "bytes"
        }
      ],
      "name": "nonblockingLzReceive",
      "outputs": [],
      "stateMutability": "nonpayable",
      "type": "function"
    },
    {
      "inputs": [
        {
          "internalType": "address",
          "name": "src",
          "type": "address"
        },
        {
          "internalType": "address",
          "name": "dst",
          "type": "address"
        },
        {
          "internalType": "uint256",
          "name": "amountOut",
          "type": "uint256"
        },
        {
          "internalType": "uint256",
          "name": "amountIn",
          "type": "uint256"
        }
      ],
      "name": "notifyCallback",
      "outputs": [],
      "stateMutability": "nonpayable",
      "type": "function"
    },
    {
      "inputs": [],
      "name": "owner",
      "outputs": [
        {
          "internalType": "address",
          "name": "",
          "type": "address"
        }
      ],
      "stateMutability": "view",
      "type": "function"
    },
    {
      "inputs": [
        {
          "internalType": "uint16",
          "name": "",
          "type": "uint16"
        }
      ],
      "name": "payloadSizeLimitLookup",
      "outputs": [
        {
          "internalType": "uint256",
          "name": "",
          "type": "uint256"
        }
      ],
      "stateMutability": "view",
      "type": "function"
    },
    {
      "inputs": [
        {
          "internalType": "uint256",
          "name": "_pearlAmount",
          "type": "uint256"
        }
      ],
      "name": "pearlToWant",
      "outputs": [
        {
          "internalType": "uint256",
          "name": "",
          "type": "uint256"
        }
      ],
      "stateMutability": "view",
      "type": "function"
    },
    {
      "inputs": [],
      "name": "precrime",
      "outputs": [
        {
          "internalType": "address",
          "name": "",
          "type": "address"
        }
      ],
      "stateMutability": "view",
      "type": "function"
    },
    {
      "inputs": [],
      "name": "renounceOwnership",
      "outputs": [],
      "stateMutability": "nonpayable",
      "type": "function"
    },
    {
      "inputs": [
        {
          "internalType": "bytes32",
          "name": "role",
          "type": "bytes32"
        },
        {
          "internalType": "address",
          "name": "account",
          "type": "address"
        }
      ],
      "name": "renounceRole",
      "outputs": [],
      "stateMutability": "nonpayable",
      "type": "function"
    },
    {
      "inputs": [
        {
          "internalType": "uint16",
          "name": "_srcChainId",
          "type": "uint16"
        },
        {
          "internalType": "bytes",
          "name": "_srcAddress",
          "type": "bytes"
        },
        {
          "internalType": "uint64",
          "name": "_nonce",
          "type": "uint64"
        },
        {
          "internalType": "bytes",
          "name": "_payload",
          "type": "bytes"
        }
      ],
      "name": "retryMessage",
      "outputs": [],
      "stateMutability": "payable",
      "type": "function"
    },
    {
      "inputs": [],
      "name": "revokeFunds",
      "outputs": [],
      "stateMutability": "nonpayable",
      "type": "function"
    },
    {
      "inputs": [
        {
          "internalType": "bytes32",
          "name": "role",
          "type": "bytes32"
        },
        {
          "internalType": "address",
          "name": "account",
          "type": "address"
        }
      ],
      "name": "revokeRole",
      "outputs": [],
      "stateMutability": "nonpayable",
      "type": "function"
    },
    {
      "inputs": [
        {
          "internalType": "uint256",
          "name": "_pearlAmount",
          "type": "uint256"
        }
      ],
      "name": "sellPearl",
      "outputs": [],
      "stateMutability": "nonpayable",
      "type": "function"
    },
    {
      "inputs": [
        {
          "internalType": "uint256",
          "name": "_usdrAmount",
          "type": "uint256"
        }
      ],
      "name": "sellUsdr",
      "outputs": [],
      "stateMutability": "nonpayable",
      "type": "function"
    },
    {
      "inputs": [
        {
          "internalType": "uint16",
          "name": "_version",
          "type": "uint16"
        },
        {
          "internalType": "uint16",
          "name": "_chainId",
          "type": "uint16"
        },
        {
          "internalType": "uint256",
          "name": "_configType",
          "type": "uint256"
        },
        {
          "internalType": "bytes",
          "name": "_config",
          "type": "bytes"
        }
      ],
      "name": "setConfig",
      "outputs": [],
      "stateMutability": "nonpayable",
      "type": "function"
    },
    {
      "inputs": [
        {
          "internalType": "bool",
          "name": "_emergencyExit",
          "type": "bool"
        }
      ],
      "name": "setEmergencyExit",
      "outputs": [],
      "stateMutability": "nonpayable",
      "type": "function"
    },
    {
      "inputs": [
        {
          "internalType": "uint16",
          "name": "_dstChainId",
          "type": "uint16"
        },
        {
          "internalType": "uint16",
          "name": "_packetType",
          "type": "uint16"
        },
        {
          "internalType": "uint256",
          "name": "_minGas",
          "type": "uint256"
        }
      ],
      "name": "setMinDstGas",
      "outputs": [],
      "stateMutability": "nonpayable",
      "type": "function"
    },
    {
      "inputs": [
        {
          "internalType": "uint16",
          "name": "_dstChainId",
          "type": "uint16"
        },
        {
          "internalType": "uint256",
          "name": "_size",
          "type": "uint256"
        }
      ],
      "name": "setPayloadSizeLimit",
      "outputs": [],
      "stateMutability": "nonpayable",
      "type": "function"
    },
    {
      "inputs": [
        {
          "internalType": "address",
          "name": "_precrime",
          "type": "address"
        }
      ],
      "name": "setPrecrime",
      "outputs": [],
      "stateMutability": "nonpayable",
      "type": "function"
    },
    {
      "inputs": [
        {
          "internalType": "uint16",
          "name": "_version",
          "type": "uint16"
        }
      ],
      "name": "setReceiveVersion",
      "outputs": [],
      "stateMutability": "nonpayable",
      "type": "function"
    },
    {
      "inputs": [
        {
          "internalType": "uint16",
          "name": "_version",
          "type": "uint16"
        }
      ],
      "name": "setSendVersion",
      "outputs": [],
      "stateMutability": "nonpayable",
      "type": "function"
    },
    {
      "inputs": [
        {
          "internalType": "uint256",
          "name": "_slippage",
          "type": "uint256"
        }
      ],
      "name": "setSlippage",
      "outputs": [],
      "stateMutability": "nonpayable",
      "type": "function"
    },
    {
      "inputs": [
        {
          "internalType": "address",
          "name": "_strategist",
          "type": "address"
        }
      ],
      "name": "setStrategist",
      "outputs": [],
      "stateMutability": "nonpayable",
      "type": "function"
    },
    {
      "inputs": [
        {
          "internalType": "address",
          "name": "_swapHelper",
          "type": "address"
        }
      ],
      "name": "setSwapHelper",
      "outputs": [],
      "stateMutability": "nonpayable",
      "type": "function"
    },
    {
      "inputs": [
        {
          "internalType": "uint16",
          "name": "_srcChainId",
          "type": "uint16"
        },
        {
          "internalType": "bytes",
          "name": "_path",
          "type": "bytes"
        }
      ],
      "name": "setTrustedRemote",
      "outputs": [],
      "stateMutability": "nonpayable",
      "type": "function"
    },
    {
      "inputs": [
        {
          "internalType": "uint16",
          "name": "_remoteChainId",
          "type": "uint16"
        },
        {
          "internalType": "bytes",
          "name": "_remoteAddress",
          "type": "bytes"
        }
      ],
      "name": "setTrustedRemoteAddress",
      "outputs": [],
      "stateMutability": "nonpayable",
      "type": "function"
    },
    {
      "inputs": [],
      "name": "sgBridge",
      "outputs": [
        {
          "internalType": "contract ISgBridge",
          "name": "",
          "type": "address"
        }
      ],
      "stateMutability": "view",
      "type": "function"
    },
    {
      "inputs": [
        {
          "internalType": "uint16",
          "name": "",
          "type": "uint16"
        },
        {
          "internalType": "bytes",
          "name": "_srcAddress",
          "type": "bytes"
        },
        {
          "internalType": "uint256",
          "name": "",
          "type": "uint256"
        },
        {
          "internalType": "address",
          "name": "_token",
          "type": "address"
        },
        {
          "internalType": "uint256",
          "name": "_amountLD",
          "type": "uint256"
        },
        {
          "internalType": "bytes",
          "name": "",
          "type": "bytes"
        }
      ],
      "name": "sgReceive",
      "outputs": [],
      "stateMutability": "nonpayable",
      "type": "function"
    },
    {
      "inputs": [],
      "name": "sgRouter",
      "outputs": [
        {
          "internalType": "contract IStargateRouter",
          "name": "",
          "type": "address"
        }
      ],
      "stateMutability": "view",
      "type": "function"
    },
    {
      "inputs": [],
      "name": "slippage",
      "outputs": [
        {
          "internalType": "uint256",
          "name": "",
          "type": "uint256"
        }
      ],
      "stateMutability": "view",
      "type": "function"
    },
    {
      "inputs": [],
      "name": "strategist",
      "outputs": [
        {
          "internalType": "address",
          "name": "",
          "type": "address"
        }
      ],
      "stateMutability": "view",
      "type": "function"
    },
    {
      "inputs": [],
      "name": "strategistSignMessageHash",
      "outputs": [
        {
          "internalType": "bytes32",
          "name": "",
          "type": "bytes32"
        }
      ],
      "stateMutability": "view",
      "type": "function"
    },
    {
      "inputs": [
        {
          "internalType": "bytes4",
          "name": "interfaceId",
          "type": "bytes4"
        }
      ],
      "name": "supportsInterface",
      "outputs": [
        {
          "internalType": "bool",
          "name": "",
          "type": "bool"
        }
      ],
      "stateMutability": "view",
      "type": "function"
    },
    {
      "inputs": [],
      "name": "swapHelper",
      "outputs": [
        {
          "internalType": "contract ISwapHelper",
          "name": "",
          "type": "address"
        }
      ],
      "stateMutability": "view",
      "type": "function"
    },
    {
      "inputs": [
        {
          "internalType": "contract IERC20",
          "name": "_token",
          "type": "address"
        }
      ],
      "name": "sweepToken",
      "outputs": [],
      "stateMutability": "nonpayable",
      "type": "function"
    },
    {
      "inputs": [
        {
          "internalType": "address",
          "name": "newOwner",
          "type": "address"
        }
      ],
      "name": "transferOwnership",
      "outputs": [],
      "stateMutability": "nonpayable",
      "type": "function"
    },
    {
      "inputs": [
        {
          "internalType": "uint16",
          "name": "",
          "type": "uint16"
        }
      ],
      "name": "trustedRemoteLookup",
      "outputs": [
        {
          "internalType": "bytes",
          "name": "",
          "type": "bytes"
        }
      ],
      "stateMutability": "view",
      "type": "function"
    },
    {
      "inputs": [
        {
          "internalType": "uint256",
          "name": "_usdrLpAmount",
          "type": "uint256"
        }
      ],
      "name": "usdrLpToWant",
      "outputs": [
        {
          "internalType": "uint256",
          "name": "",
          "type": "uint256"
        }
      ],
      "stateMutability": "view",
      "type": "function"
    },
    {
      "inputs": [
        {
          "internalType": "uint256",
          "name": "_usdrAmount",
          "type": "uint256"
        }
      ],
      "name": "usdrToWant",
      "outputs": [
        {
          "internalType": "uint256",
          "name": "",
          "type": "uint256"
        }
      ],
      "stateMutability": "view",
      "type": "function"
    },
    {
      "inputs": [],
      "name": "vault",
      "outputs": [
        {
          "internalType": "address",
          "name": "",
          "type": "address"
        }
      ],
      "stateMutability": "view",
      "type": "function"
    },
    {
      "inputs": [],
      "name": "vaultChainId",
      "outputs": [
        {
          "internalType": "uint16",
          "name": "",
          "type": "uint16"
        }
      ],
      "stateMutability": "view",
      "type": "function"
    },
    {
      "inputs": [],
      "name": "want",
      "outputs": [
        {
          "internalType": "contract IERC20",
          "name": "",
          "type": "address"
        }
      ],
      "stateMutability": "view",
      "type": "function"
    },
    {
      "inputs": [],
      "name": "wantDecimals",
      "outputs": [
        {
          "internalType": "uint8",
          "name": "",
          "type": "uint8"
        }
      ],
      "stateMutability": "view",
      "type": "function"
    },
    {
      "inputs": [
        {
          "internalType": "uint256",
          "name": "_wantAmount",
          "type": "uint256"
        }
      ],
      "name": "wantToUsdrLp",
      "outputs": [
        {
          "internalType": "uint256",
          "name": "",
          "type": "uint256"
        }
      ],
      "stateMutability": "view",
      "type": "function"
    },
    {
      "inputs": [
        {
          "internalType": "uint256",
          "name": "_amountNeeded",
          "type": "uint256"
        }
      ],
      "name": "withdrawSome",
      "outputs": [],
      "stateMutability": "nonpayable",
      "type": "function"
    },
    {
      "stateMutability": "payable",
      "type": "receive"
    }
  ],
  "bytecode": "0x608060405234801561001057600080fd5b506169ac80620000216000396000f3fe60806040526004361061035a5760003560e01c80621d35671461036657806301ffc9a7146103885780630517cb76146103bd57806306fdde03146103ea57806307e0db17146104295780630df37483146104495780630fc6a11c1461046957806310ddb1371461048a5780631be19560146104aa5780631cdb539f146104ca5780631f1fcd51146104ea5780631fe4a6861461050a578063237ea53f1461052a578063248a9ca31461055a5780632d6068431461057a5780632f2ff15d1461058f57806336568abe146105af57806337fded91146105cf5780633d3ccc2f146105f45780633d8b38f6146106145780633e032a3b146106345780633eae11121461064a5780633f1f4fa41461066a57806342d65a8d1461069757806345ee0755146106b7578063495f881e146106d75780634a5f58d1146106f757806350bb4beb146107175780635641ec031461072c578063567ad85d14610746578063593178de1461077b5780635b8c41e61461079057806366ad5c8a146107df5780636cbadbfa146107ff578063715018a6146108215780637533d7881461083657806378dc9059146108565780638cfd8f5c146108765780638da5cb5b146108ae5780638f4508d0146108c357806391d14854146108d8578063950c8a74146108f85780639589c990146109185780639606647d146109385780639f38369a1461094d578063a217fddf1461096d578063a6c3d16514610982578063a8798510146109a2578063a9e50824146109b8578063ab8236f3146109d8578063adf076e6146109f8578063ae9b051c14610a2b578063b353aaa714610a4b578063baf3292d14610a6b578063bd79ac1314610a8b578063c1a3d44c14610aab578063c446183414610ac0578063c7b9d53014610ad6578063cbed8b9c14610af6578063cdddd4e514610b16578063d1deba1f14610b36578063d547741f14610b49578063d56739ac14610b69578063d73cd47f14610b7e578063df2a5b3b14610b9e578063e73620c314610bbe578063e964404414610bde578063eb8d72b714610bfe578063efbb5cb014610c1e578063f056dffe14610c33578063f0fa55a914610c53578063f2fde38b14610c73578063f5ecbdbc14610c93578063fa54080114610cb3578063fbfa77cf14610cd3578063fcb988a414610cf357600080fd5b3661036157005b600080fd5b34801561037257600080fd5b506103866103813660046154d6565b610d13565b005b34801561039457600080fd5b506103a86103a3366004615569565b610dfc565b60405190151581526020015b60405180910390f35b3480156103c957600080fd5b5060ce546103dd906001600160a01b031681565b6040516103b49190615593565b3480156103f657600080fd5b5060408051808201909152600d81526c506561726c537472617465677960981b60208201525b6040516103b491906155f7565b34801561043557600080fd5b5061038661044436600461560a565b610e33565b34801561045557600080fd5b50610386610464366004615625565b610ea0565b34801561047557600080fd5b50610135546103dd906001600160a01b031681565b34801561049657600080fd5b506103866104a536600461560a565b610ebf565b3480156104b657600080fd5b506103866104c5366004615664565b610efb565b3480156104d657600080fd5b506103866104e5366004615681565b610f88565b3480156104f657600080fd5b5060ca546103dd906001600160a01b031681565b34801561051657600080fd5b5060c9546103dd906001600160a01b031681565b34801561053657600080fd5b5061054c60008051602061691783398151915281565b6040519081526020016103b4565b34801561056657600080fd5b5061054c610575366004615733565b6111e8565b34801561058657600080fd5b506103866111fe565b34801561059b57600080fd5b506103866105aa36600461574c565b61123f565b3480156105bb57600080fd5b506103866105ca36600461574c565b611260565b3480156105db57600080fd5b5060cd546103dd9061010090046001600160a01b031681565b34801561060057600080fd5b5061038661060f366004615733565b6112de565b34801561062057600080fd5b506103a861062f36600461577c565b611314565b34801561064057600080fd5b5061054c60cc5481565b34801561065657600080fd5b5061054c610665366004615733565b6113e1565b34801561067657600080fd5b5061054c61068536600461560a565b60686020526000908152604090205481565b3480156106a357600080fd5b506103866106b236600461577c565b611469565b3480156106c357600080fd5b506103866106d23660046157dc565b6114dc565b3480156106e357600080fd5b506103866106f23660046158e4565b6114f7565b34801561070357600080fd5b50610386610712366004615733565b61179b565b34801561072357600080fd5b5061054c6117a4565b34801561073857600080fd5b5060cd546103a89060ff1681565b34801561075257600080fd5b5060cb5461076890600160a01b900461ffff1681565b60405161ffff90911681526020016103b4565b34801561078757600080fd5b5061054c6117b3565b34801561079c57600080fd5b5061054c6107ab366004615947565b6097602090815260009384526040808520845180860184018051928152908401958401959095209452929052825290205481565b3480156107eb57600080fd5b506103866107fa3660046154d6565b611811565b34801561080b57600080fd5b5060cb5461076890600160b01b900461ffff1681565b34801561082d57600080fd5b506103866118e5565b34801561084257600080fd5b5061041c61085136600461560a565b6118f9565b34801561086257600080fd5b50610386610871366004615733565b611993565b34801561088257600080fd5b5061054c6108913660046159a4565b606760209081526000928352604080842090915290825290205481565b3480156108ba57600080fd5b506103dd61199c565b3480156108cf57600080fd5b5061054c6119ab565b3480156108e457600080fd5b506103a86108f336600461574c565b611a20565b34801561090457600080fd5b506069546103dd906001600160a01b031681565b34801561092457600080fd5b5061054c610933366004615733565b611a4c565b34801561094457600080fd5b50610386611ae4565b34801561095957600080fd5b5061041c61096836600461560a565b611b77565b34801561097957600080fd5b5061054c600081565b34801561098e57600080fd5b5061038661099d36600461577c565b611c86565b3480156109ae57600080fd5b5061054c61264881565b3480156109c457600080fd5b5061054c6109d3366004615733565b611d0f565b3480156109e457600080fd5b506103866109f33660046159d7565b611dc8565b348015610a0457600080fd5b5060cb54610a1990600160c01b900460ff1681565b60405160ff90911681526020016103b4565b348015610a3757600080fd5b50610386610a46366004615733565b611ec2565b348015610a5757600080fd5b506065546103dd906001600160a01b031681565b348015610a7757600080fd5b50610386610a86366004615664565b611ecb565b348015610a9757600080fd5b5061054c610aa6366004615733565b611f1e565b348015610ab757600080fd5b5061054c611f76565b348015610acc57600080fd5b5061054c61271081565b348015610ae257600080fd5b50610386610af1366004615664565b611fa7565b348015610b0257600080fd5b50610386610b11366004615a71565b611fd1565b348015610b2257600080fd5b50610386610b31366004615733565b61203f565b610386610b443660046154d6565b612048565b348015610b5557600080fd5b50610386610b6436600461574c565b61225e565b348015610b7557600080fd5b5061054c61227a565b348015610b8a57600080fd5b50610386610b99366004615664565b6122ac565b348015610baa57600080fd5b50610386610bb9366004615adf565b6122d7565b348015610bca57600080fd5b50610386610bd9366004615733565b612389565b348015610bea57600080fd5b50610386610bf9366004615733565b6123a9565b348015610c0a57600080fd5b50610386610c1936600461577c565b6123b2565b348015610c2a57600080fd5b5061054c61240c565b348015610c3f57600080fd5b50610386610c4e366004615b1b565b612526565b348015610c5f57600080fd5b50610386610c6e366004615733565b612593565b348015610c7f57600080fd5b50610386610c8e366004615664565b6125a0565b348015610c9f57600080fd5b5061041c610cae366004615b61565b612616565b348015610cbf57600080fd5b5061054c610cce366004615733565b6126a9565b348015610cdf57600080fd5b5060cb546103dd906001600160a01b031681565b348015610cff57600080fd5b5061054c610d0e366004615733565b6126fb565b6065546001600160a01b03163314610d7e5760405162461bcd60e51b815260206004820152602360248201527f4261736553747261746567793a3a496e76616c6964456e64706f696e7443616c6044820152623632b960e91b60648201526084015b60405180910390fd5b610df48686868080601f01602080910402602001604051908101604052809392919081815260200183838082843760009201919091525050604080516020601f8901819004810282018101909252878152899350915087908790819084018382808284376000920191909152506128ff92505050565b505050505050565b60006001600160e01b03198216637965db0b60e01b1480610e2d57506301ffc9a760e01b6001600160e01b03198316145b92915050565b610e3b612978565b6065546040516307e0db1760e01b815261ffff831660048201526001600160a01b03909116906307e0db17906024015b600060405180830381600087803b158015610e8557600080fd5b505af1158015610e99573d6000803e3d6000fd5b5050505050565b610ea8612978565b61ffff909116600090815260686020526040902055565b610ec7612978565b6065546040516310ddb13760e01b815261ffff831660048201526001600160a01b03909116906310ddb13790602401610e6b565b610f036129d7565b610f8533826001600160a01b03166370a08231306040518263ffffffff1660e01b8152600401610f339190615593565b602060405180830381865afa158015610f50573d6000803e3d6000fd5b505050506040513d601f19601f82011682018060405250810190610f749190615bae565b6001600160a01b0384169190612a30565b50565b600054610100900460ff1615808015610fa85750600054600160ff909116105b80610fc95750610fb730612a86565b158015610fc9575060005460ff166001145b61102c5760405162461bcd60e51b815260206004820152602e60248201527f496e697469616c697a61626c653a20636f6e747261637420697320616c72656160448201526d191e481a5b9a5d1a585b1a5e995960921b6064820152608401610d75565b6000805460ff19166001179055801561104f576000805461ff0019166101001790555b611057612a95565b61106a8989898989898989612648612abc565b60ca54611097906001600160a01b03167368b3465833fb72a70ecdf485e0e4c7bd8665fc45600019612c9b565b60ca546110be906001600160a01b0316600080516020616877833981519152600019612c9b565b6110e7600080516020616937833981519152600080516020616877833981519152600019612c9b565b6111106000805160206168f78339815191526000805160206168b7833981519152600019612c9b565b6111396000805160206168f7833981519152600080516020616877833981519152600019612c9b565b61116e738f3cf7ad23cd3cadbd9735aff958023239c6a06373195f7b233947d51f4c3b756ad41a5ddb34cebce0600019612c9b565b6111976000805160206168d7833981519152600080516020616877833981519152600019612c9b565b80156111dd576000805461ff0019169055604051600181527f7f26b83ff96e1f2b6a682f133852f6798a09c465da95921460cefb38474024989060200160405180910390a15b505050505050505050565b6000908152610103602052604090206001015490565b6112066129d7565b60c9546040516001600160a01b03909116904780156108fc02916000818181858888f19350505050158015610f85573d6000803e3d6000fd5b611248826111e8565b61125181612d9f565b61125b8383612da9565b505050565b6001600160a01b03811633146112d05760405162461bcd60e51b815260206004820152602f60248201527f416363657373436f6e74726f6c3a2063616e206f6e6c792072656e6f756e636560448201526e103937b632b9903337b91039b2b63360891b6064820152608401610d75565b6112da8282612e30565b5050565b6112e66129d7565b6112ef81612e98565b604051818152600080516020616957833981519152906020015b60405180910390a150565b61ffff83166000908152606660205260408120805482919061133590615bc7565b80601f016020809104026020016040519081016040528092919081815260200182805461136190615bc7565b80156113ae5780601f10611383576101008083540402835291602001916113ae565b820191906000526020600020905b81548152906001019060200180831161139157829003601f168201915b5050505050905083836040516113c5929190615c01565b60405180910390208180519060200120149150505b9392505050565b6000610e2d826000805160206169378339815191526001600160a01b031663313ce5676040518163ffffffff1660e01b8152600401602060405180830381865afa158015611433573d6000803e3d6000fd5b505050506040513d601f19601f820116820180604052508101906114579190615c11565b60cb54600160c01b900460ff16613595565b611471612978565b6065546040516342d65a8d60e01b81526001600160a01b03909116906342d65a8d906114a590869086908690600401615c5d565b600060405180830381600087803b1580156114bf57600080fd5b505af11580156114d3573d6000803e3d6000fd5b50505050505050565b6114e46129d7565b60cd805460ff1916911515919091179055565b6114ff6129d7565b611508816135ea565b60cd546000908190819060ff16156115b45784156115685760405162461bcd60e51b815260206004820152601e60248201527f4261736553747261746567793a3a44656274526174696f4e6f745a65726f00006044820152606401610d75565b6000611572613670565b90508781101561158d576115868189615c91565b92506115a2565b878111156115a25761159f8882615c91565b93505b6115ac8389615c91565b9150506115c6565b6115be88886136b2565b919450925090505b60006115d28285615ca4565b9050600080888310156115f4576115e9838a615c91565b915060009050611605565b600091506116028984615c91565b90505b6000604051806101600160405280306001600160a01b031681526020014281526020018881526020018781526020018681526020018481526020018381526020018b81526020018361165561240c565b61165f9190615c91565b815260200160d0600081548092919061167790615cb7565b909155508152602001899052905081156116d75760cb546040516116d291849161ffff600160a01b830416916001600160a01b0316906116be906002908790602001615d08565b6040516020818303038152906040526137a9565b611702565b6117026002826040516020016116ee929190615d08565b604051602081830303815290604052613897565b7fb983e09c034e9c52b5e547cb0589967992b97717733f580cc5ad0afcdc4b522b8160400151826060015183608001518460a001518560c001518660e001518761010001516040516117859796959493929190968752602087019590955260408601939093526060850191909152608084015260a083015260c082015260e00190565b60405180910390a1505050505050505050505050565b610f8581613a17565b60006117ae613670565b905090565b60d05460cb546040513060601b6001600160601b03191660208201526034810192909252600160b01b900460f01b6001600160f01b031916605482015260009060560160405160208183030381529060405280519060200120905090565b33301461186f5760405162461bcd60e51b815260206004820152602660248201527f4e6f6e626c6f636b696e674c7a4170703a2063616c6c6572206d7573742062656044820152650204c7a4170760d41b6064820152608401610d75565b610df48686868080601f01602080910402602001604051908101604052809392919081815260200183838082843760009201919091525050604080516020601f890181900481028201810190925287815289935091508790879081908401838280828437600092019190915250613b6992505050565b6118ed612978565b6118f76000613c7f565b565b6066602052600090815260409020805461191290615bc7565b80601f016020809104026020016040519081016040528092919081815260200182805461193e90615bc7565b801561198b5780601f106119605761010080835404028352916020019161198b565b820191906000526020600020905b81548152906001019060200180831161196e57829003601f168201915b505050505081565b610f8581613cd1565b6033546001600160a01b031690565b6040516370a0823160e01b81526000906000805160206168b7833981519152906370a08231906119df903090600401615593565b602060405180830381865afa1580156119fc573d6000803e3d6000fd5b505050506040513d601f19601f820116820180604052508101906117ae9190615bae565b6000918252610103602090815260408084206001600160a01b0393909316845291905290205460ff1690565b6040516328bd9fc160e11b8152600090819073f68c20d6c50706f6c6bd8ee184382518c93b368c9063517b3f8290611a98906000805160206168d7833981519152908790600401615db3565b602060405180830381865afa158015611ab5573d6000803e3d6000fd5b505050506040513d601f19601f82011682018060405250810190611ad99190615bae565b90506113da816113e1565b611aec6129d7565b60ca546040516370a0823160e01b81526118f7916001916001600160a01b03909116906370a0823190611b23903090600401615593565b602060405180830381865afa158015611b40573d6000803e3d6000fd5b505050506040513d601f19601f82011682018060405250810190611b649190615bae565b60ca546001600160a01b03169190612a30565b61ffff8116600090815260666020526040812080546060929190611b9a90615bc7565b80601f0160208091040260200160405190810160405280929190818152602001828054611bc690615bc7565b8015611c135780601f10611be857610100808354040283529160200191611c13565b820191906000526020600020905b815481529060010190602001808311611bf657829003601f168201915b505050505090508051600003611c6b5760405162461bcd60e51b815260206004820152601d60248201527f4c7a4170703a206e6f20747275737465642070617468207265636f72640000006044820152606401610d75565b6113da600060148351611c7e9190615c91565b839190613fc5565b611c8e612978565b818130604051602001611ca393929190615dcc565b60408051601f1981840301815291815261ffff8516600090815260666020522090611cce9082615e48565b507f8c0400cfe2d1199b1a725c78960bcc2a344d869b80590d0f2bd005db15a572ce838383604051611d0293929190615c5d565b60405180910390a1505050565b60ca546040516310e1b98f60e21b81526000918291829160008051602061687783398151915291634386e63c91611d69916001600160a01b0390911690600080516020616937833981519152906001908a90600401615f01565b6040805180830381865afa158015611d85573d6000803e3d6000fd5b505050506040513d601f19601f82011682018060405250810190611da99190615f2c565b91509150611db6816113e1565b611dc09083615ca4565b949350505050565b60ce546001600160a01b0316331480611df0575060cd5461010090046001600160a01b031633145b611e3b5760405162461bcd60e51b815260206004820152601c60248201527b53674272696467653a3a526f757465724f724272696467654f6e6c7960201b6044820152606401610d75565b6000611e4986826014613fc5565b604051602001611e599190615f50565b604051602081830303815290604052611e7190615f6c565b60601c9050836001600160a01b03167f92073a89a07a000083eb8b2575fc15e7bb936efe55d00727d6942a796d7211a78483604051611eb1929190615fa3565b60405180910390a250505050505050565b610f85816140d2565b611ed3612978565b606980546001600160a01b0319166001600160a01b0383161790556040517f5db758e995a17ec1ad84bdef7e8c3293a0bd6179bcce400dff5d4c3d87db726b90611309908390615593565b6000610e2d82738f3cf7ad23cd3cadbd9735aff958023239c6a0636001600160a01b031663313ce5676040518163ffffffff1660e01b8152600401602060405180830381865afa158015611433573d6000803e3d6000fd5b60ca546040516370a0823160e01b81526000916001600160a01b0316906370a08231906119df903090600401615593565b611faf612978565b60c980546001600160a01b0319166001600160a01b0392909216919091179055565b611fd9612978565b6065546040516332fb62e760e21b81526001600160a01b039091169063cbed8b9c906120119088908890889088908890600401615fba565b600060405180830381600087803b15801561202b57600080fd5b505af11580156111dd573d6000803e3d6000fd5b61125b816141b3565b61ffff8616600090815260976020526040808220905161206b9088908890615c01565b90815260408051602092819003830190206001600160401b038716600090815292529020549050806120eb5760405162461bcd60e51b815260206004820152602360248201527f4e6f6e626c6f636b696e674c7a4170703a206e6f2073746f726564206d65737360448201526261676560e81b6064820152608401610d75565b8083836040516120fc929190615c01565b60405180910390201461215b5760405162461bcd60e51b815260206004820152602160248201527f4e6f6e626c6f636b696e674c7a4170703a20696e76616c6964207061796c6f616044820152601960fa1b6064820152608401610d75565b61ffff8716600090815260976020526040808220905161217e9089908990615c01565b90815260408051602092819003830181206001600160401b038916600090815290845282902093909355601f88018290048202830182019052868252612216918991899089908190840183828082843760009201919091525050604080516020601f8a018190048102820181019092528881528a935091508890889081908401838280828437600092019190915250613b6992505050565b7fc264d91f3adc5588250e1551f547752ca0cfa8f6b530d243b9f9f4cab10ea8e5878787878560405161224d959493929190615fe8565b60405180910390a150505050505050565b612267826111e8565b61227081612d9f565b61125b8383612e30565b6040516246613160e11b81526000906000805160206168b783398151915290628cc262906119df903090600401615593565b6122b46142e8565b61013580546001600160a01b0319166001600160a01b0392909216919091179055565b6122df612978565b600081116123275760405162461bcd60e51b81526020600482015260156024820152744c7a4170703a20696e76616c6964206d696e47617360581b6044820152606401610d75565b61ffff83811660008181526067602090815260408083209487168084529482529182902085905581519283528201929092529081018290527f9d5c7c0b934da8fefa9c7760c98383778a12dfbfc0c3b3106518f43fb9508ac090606001611d02565b612391612978565b600090815260cf60205260409020805460ff19169055565b610f8581614357565b6123ba612978565b61ffff831660009081526066602052604090206123d8828483616023565b507ffa41487ad5d6728f0b19276fa1eddc16558578f5109fc39d2dc33c3230470dab838383604051611d0293929190615c5d565b60006124196109d36119ab565b6040516370a0823160e01b81526124a1906000805160206168d7833981519152906370a082319061244e903090600401615593565b602060405180830381865afa15801561246b573d6000803e3d6000fd5b505050506040513d601f19601f8201168201806040525081019061248f9190615bae565b61249761227a565b6109339190615ca4565b60ca546040516370a0823160e01b81526001600160a01b03909116906370a08231906124d1903090600401615593565b602060405180830381865afa1580156124ee573d6000803e3d6000fd5b505050506040513d601f19601f820116820180604052508101906125129190615bae565b61251c9190615ca4565b6117ae9190615ca4565b60008051602061691783398151915261253e81612d9f565b82846001600160a01b0316866001600160a01b03167f9b2db766e04dc7ee1cc19d1415531ad5b3fd566db4f745d9a8ad51e3d3fe1bd78560405161258491815260200190565b60405180910390a45050505050565b61259b6129d7565b60cc55565b6125a8612978565b6001600160a01b03811661260d5760405162461bcd60e51b815260206004820152602660248201527f4f776e61626c653a206e6577206f776e657220697320746865207a65726f206160448201526564647265737360d01b6064820152608401610d75565b610f8581613c7f565b606554604051633d7b2f6f60e21b815261ffff808716600483015285166024820152306044820152606481018390526060916001600160a01b03169063f5ecbdbc90608401600060405180830381865afa158015612678573d6000803e3d6000fd5b505050506040513d6000823e601f3d908101601f191682016040526126a091908101906160dc565b95945050505050565b6040517b0ca2ba3432b932bab69029b4b3b732b21026b2b9b9b0b3b29d05199960211b6020820152603c8101829052600090605c01604051602081830303815290604052805190602001209050919050565b60008061277c6000805160206168f78339815191526001600160a01b031663313ce5676040518163ffffffff1660e01b8152600401602060405180830381865afa15801561274d573d6000803e3d6000fd5b505050506040513d601f19601f820116820180604052508101906127719190615c11565b6109d390600a61622d565b905060006128098460cb60189054906101000a900460ff166000805160206168f78339815191526001600160a01b031663313ce5676040518163ffffffff1660e01b8152600401602060405180830381865afa1580156127e0573d6000803e3d6000fd5b505050506040513d601f19601f820116820180604052508101906128049190615c11565b613595565b9050600061286d8360cb60189054906101000a900460ff166000805160206168f78339815191526001600160a01b031663313ce5676040518163ffffffff1660e01b8152600401602060405180830381865afa1580156127e0573d6000803e3d6000fd5b9050806000805160206168f78339815191526001600160a01b031663313ce5676040518163ffffffff1660e01b8152600401602060405180830381865afa1580156128bc573d6000803e3d6000fd5b505050506040513d601f19601f820116820180604052508101906128e09190615c11565b6128eb90600a61622d565b6128f5908461623c565b6126a09190616253565b6000806129625a60966366ad5c8a60e01b898989896040516024016129279493929190616275565b60408051601f198184030181529190526020810180516001600160e01b03166001600160e01b03199093169290921790915230929190614467565b9150915081610df457610df486868686856144f3565b3361298161199c565b6001600160a01b0316146118f75760405162461bcd60e51b815260206004820181905260248201527f4f776e61626c653a2063616c6c6572206973206e6f7420746865206f776e65726044820152606401610d75565b60c9546001600160a01b031633146118f75760405162461bcd60e51b815260206004820152601c60248201527b10985cd954dd1c985d1959de4e8e93db9b1e54dd1c985d1959da5cdd60221b6044820152606401610d75565b61125b8363a9059cbb60e01b8484604051602401612a4f929190615db3565b60408051601f198184030181529190526020810180516001600160e01b03166001600160e01b031990931692909217909152614590565b6001600160a01b03163b151590565b600054610100900460ff166118f75760405162461bcd60e51b8152600401610d75906162b3565b600054610100900460ff16612ae35760405162461bcd60e51b8152600401610d75906162b3565b612aec89614665565b60c980546001600160a01b03808b166001600160a01b03199283161790925560ca80548a8416908316811790915560cb8054938a1661ffff8a16600160a01b029093166001600160b01b0319909416939093179190911790915560cc8290556040805163313ce56760e01b8152905163313ce567916004808201926020929091908290030181865afa158015612b86573d6000803e3d6000fd5b505050506040513d601f19601f82011682018060405250810190612baa9190615c11565b60cb8054600060d05562ffffff60b01b1916600160c01b60ff939093169290920261ffff60b01b191691909117600160b01b61ffff87160217905560cd8054610100600160a81b0319166101006001600160a01b03868116919091029190911790915560ce80546001600160a01b03191684831617905560ca5460405163095ea7b360e01b815291169063095ea7b390612c4c90869060001990600401615db3565b6020604051808303816000875af1158015612c6b573d6000803e3d6000fd5b505050506040513d601f19601f82011682018060405250810190612c8f91906162fe565b50505050505050505050565b801580612d155750604051636eb1769f60e11b81523060048201526001600160a01b03838116602483015284169063dd62ed3e90604401602060405180830381865afa158015612cef573d6000803e3d6000fd5b505050506040513d601f19601f82011682018060405250810190612d139190615bae565b155b612d805760405162461bcd60e51b815260206004820152603660248201527f5361666545524332303a20617070726f76652066726f6d206e6f6e2d7a65726f60448201527520746f206e6f6e2d7a65726f20616c6c6f77616e636560501b6064820152608401610d75565b61125b8363095ea7b360e01b8484604051602401612a4f929190615db3565b610f85813361469d565b612db38282611a20565b6112da576000828152610103602090815260408083206001600160a01b03851684529091529020805460ff19166001179055612dec3390565b6001600160a01b0316816001600160a01b0316837f2f8788117e7eff1d82e926ec794901d17c78024a50270940304540a733656f0d60405160405180910390a45050565b612e3a8282611a20565b156112da576000828152610103602090815260408083206001600160a01b0385168085529252808320805460ff1916905551339285917ff6391f5c32d9c69d2a47ea670b442974b53935d1edc7fd64eb21e047a839171b9190a45050565b6000805160206168b78339815191526001600160a01b0316633d18b9126040518163ffffffff1660e01b8152600401600060405180830381600087803b158015612ee157600080fd5b505af1158015612ef5573d6000803e3d6000fd5b50506040516370a0823160e01b8152612f7492506000805160206168d783398151915291506370a0823190612f2e903090600401615593565b602060405180830381865afa158015612f4b573d6000803e3d6000fd5b505050506040513d601f19601f82011682018060405250810190612f6f9190615bae565b613a17565b60ca546040516370a0823160e01b81526000916001600160a01b0316906370a0823190612fa5903090600401615593565b602060405180830381865afa158015612fc2573d6000803e3d6000fd5b505050506040513d601f19601f82011682018060405250810190612fe69190615bae565b905081811115613172576000612ffc8383615c91565b9050600061300b600283616253565b905060006130758260cb60189054906101000a900460ff16738f3cf7ad23cd3cadbd9735aff958023239c6a0636001600160a01b031663313ce5676040518163ffffffff1660e01b8152600401602060405180830381865afa1580156127e0573d6000803e3d6000fd5b6040805160808101825260ca546001600160601b0319606091821b1660a0830152601960ea1b60b4830152738f3cf7ad23cd3cadbd9735aff958023239c6a06360601b60b7830152825160ab81840301815260cb8301845282523060208301529181018590529192506000919081016130ed846146f6565b905260405163b858183f60e01b81529091507368b3465833fb72a70ecdf485e0e4c7bd8665fc459063b858183f9061312990849060040161631b565b6020604051808303816000875af1158015613148573d6000803e3d6000fd5b505050506040513d601f19601f8201168201806040525081019061316c9190615bae565b50505050505b6040516370a0823160e01b8152600090738f3cf7ad23cd3cadbd9735aff958023239c6a063906370a08231906131ac903090600401615593565b602060405180830381865afa1580156131c9573d6000803e3d6000fd5b505050506040513d601f19601f820116820180604052508101906131ed9190615bae565b905080156132735760405163a39fc2c560e01b815273195f7b233947d51f4c3b756ad41a5ddb34cebce09063a39fc2c59061322e9084903090600401615fa3565b6020604051808303816000875af115801561324d573d6000803e3d6000fd5b505050506040513d601f19601f820116820180604052508101906132719190615bae565b505b6040516370a0823160e01b8152600090600080516020616937833981519152906370a08231906132a7903090600401615593565b602060405180830381865afa1580156132c4573d6000803e3d6000fd5b505050506040513d601f19601f820116820180604052508101906132e89190615bae565b60ca546040516370a0823160e01b81529192506001600160a01b0316906370a0823190613319903090600401615593565b602060405180830381865afa158015613336573d6000803e3d6000fd5b505050506040513d601f19601f8201168201806040525081019061335a9190615bae565b925060008111801561336c5750600083115b156134e65760ca546040516326283ecf60e21b81526001600160a01b03909116600482015260008051602061693783398151915260248201526001604482015260648101849052608481018290526000908190600080516020616877833981519152906398a0fb3c9060a401606060405180830381865afa1580156133f5573d6000803e3d6000fd5b505050506040513d601f19601f820116820180604052508101906134199190616369565b5060ca54604051635a47ddc360e01b81526001600160a01b0390911660048201526000805160206169378339815191526024820152600160448201819052606482018490526084820183905260a4820181905260c48201523060e482015242610104820152919350915060008051602061687783398151915290635a47ddc390610124016060604051808303816000875af11580156134bc573d6000803e3d6000fd5b505050506040513d601f19601f820116820180604052508101906134e09190616369565b50505050505b6040516370a0823160e01b81526000906000805160206168f7833981519152906370a082319061351a903090600401615593565b602060405180830381865afa158015613537573d6000803e3d6000fd5b505050506040513d601f19601f8201168201806040525081019061355b9190615bae565b90508015610e995760405163b6b55f2560e01b8152600481018290526000805160206168b78339815191529063b6b55f2590602401612011565b60008260ff168260ff1611156135cb576135af8383616397565b6135ba90600a61622d565b6135c4908561623c565b90506113da565b6135d58284616397565b6135e090600a61622d565b6135c49085616253565b60006135f46117b3565b90506000613601826126a9565b60c9549091506001600160a01b031661361a8285614713565b6001600160a01b03161461125b5760405162461bcd60e51b815260206004820152601e60248201527f4261736553747261746567793a3a496e76616c69645369676e617475726500006044820152606401610d75565b600061368261367d6119ab565b613cd1565b60ca546040516370a0823160e01b81526001600160a01b03909116906370a08231906119df903090600401615593565b6000806000806136c061240c565b90508581106136de576136d38682615c91565b9350600092506136ef565b600093506136ec8187615c91565b92505b6137016136fc8587615ca4565b6141b3565b505060ca546040516370a0823160e01b81526000916001600160a01b0316906370a0823190613734903090600401615593565b602060405180830381865afa158015613751573d6000803e3d6000fd5b505050506040513d601f19601f820116820180604052508101906137759190615bae565b905084811161378a57809450600092506137a0565b61379d6137978683615c91565b87614737565b92505b50509250925092565b60cd54604051630dc6346160e01b815260009161010090046001600160a01b031690630dc63461906137e3908790879087906004016163b0565b602060405180830381865afa158015613800573d6000803e3d6000fd5b505050506040513d601f19601f820116820180604052508101906138249190615bae565b60cd5460ca54604051633920455b60e11b81529293506001600160a01b036101009092048216926372408ab692859261386a929116908a908a908a908a906004016163de565b6000604051808303818588803b15801561388357600080fd5b505af1158015612c8f573d6000803e3d6000fd5b60cb5460408051606083811b6001600160601b03199081166020840152309182901b16603483015282516028818403018152604890920190925260655490926000926001600160a01b03909216916340a7bb109161ffff600160a01b9091041690868561390261474d565b6040518663ffffffff1660e01b815260040161392295949392919061641b565b6040805180830381865afa15801561393e573d6000803e3d6000fd5b505050506040513d601f19601f820116820180604052508101906139629190615f2c565b5090508047101561398e5760405162fae2d560e21b815260048101829052476024820152604401610d75565b60655460cb546001600160a01b039091169063c5803100908390600160a01b900461ffff16858730806139bf61474d565b6040518863ffffffff1660e01b81526004016139e09695949392919061646f565b6000604051808303818588803b1580156139f957600080fd5b505af1158015613a0d573d6000803e3d6000fd5b5050505050505050565b80600003613a225750565b6101355460ca546001600160a01b03918216916310cabd1d916000805160206168d7833981519152911684612710613a5d612648606461623c565b613a679190616253565b6040518563ffffffff1660e01b8152600401613a8694939291906164d6565b600060405180830381600087803b158015613aa057600080fd5b505af1925050508015613ab1575060015b613b30573d808015613adf576040519150601f19603f3d011682016040523d82523d6000602084013e613ae4565b606091505b50613aee8261477d565b80604051613afc9190615f50565b604051908190038120907fab2169d52de19835827d46106e22dfb1c4261618a79928c57f4b4b0c2cfe4f9390600090a25050565b60ca5460405182916001600160a01b0316906000805160206168d78339815191529060008051602061689783398151915290600090a450565b60cb5461ffff858116600160a01b9092041614613bd35760405162461bcd60e51b815260206004820152602260248201527f4261736553747261746567793a3a5661756c74436861696e49644d69736d61746044820152610c6d60f31b6064820152608401610d75565b6000613be184826014613fc5565b604051602001613bf19190615f50565b604051602081830303815290604052613c0990615f6c565b60cb5460609190911c91506001600160a01b03168114613c765760405162461bcd60e51b815260206004820152602260248201527f4261736553747261746567793a3a5661756c74416464726573734d69736d61746044820152610c6d60f31b6064820152608401610d75565b610e9982614909565b603380546001600160a01b038381166001600160a01b0319831681179093556040519116919082907f8be0079c531659141344cd1fd0a4f28419497f9722a3daafe3b4186f6b6457e090600090a35050565b6000805160206168b78339815191526001600160a01b0316633d18b9126040518163ffffffff1660e01b8152600401600060405180830381600087803b158015613d1a57600080fd5b505af1158015613d2e573d6000803e3d6000fd5b50506040516370a0823160e01b8152613d6792506000805160206168d783398151915291506370a0823190612f2e903090600401615593565b80600003613d725750565b604051632e1a7d4d60e01b8152600481018290526000805160206168b783398151915290632e1a7d4d90602401600060405180830381600087803b158015613db957600080fd5b505af1158015613dcd573d6000803e3d6000fd5b505060ca546040516310e1b98f60e21b81526000935083925060008051602061687783398151915291634386e63c91613e27916001600160a01b031690600080516020616937833981519152906001908990600401615f01565b6040805180830381865afa158015613e43573d6000803e3d6000fd5b505050506040513d601f19601f82011682018060405250810190613e679190615f2c565b60ca54919350915060008051602061687783398151915290630dede6c4906001600160a01b0316600080516020616937833981519152600187613ea9886146f6565b613eb2886146f6565b6040516001600160e01b031960e089901b1681526001600160a01b03968716600482015295909416602486015291151560448501526064840152608483015260a48201523060c48201524260e48201526101040160408051808303816000875af1158015613f24573d6000803e3d6000fd5b505050506040513d601f19601f82011682018060405250810190613f489190615f2c565b50506040516370a0823160e01b815261125b90600080516020616937833981519152906370a0823190613f7f903090600401615593565b602060405180830381865afa158015613f9c573d6000803e3d6000fd5b505050506040513d601f19601f82011682018060405250810190613fc09190615bae565b614357565b606081613fd381601f615ca4565b10156140125760405162461bcd60e51b815260206004820152600e60248201526d736c6963655f6f766572666c6f7760901b6044820152606401610d75565b61401c8284615ca4565b845110156140605760405162461bcd60e51b8152602060048201526011602482015270736c6963655f6f75744f66426f756e647360781b6044820152606401610d75565b60608215801561407f57604051915060008252602082016040526140c9565b6040519150601f8416801560200281840101858101878315602002848b0101015b818310156140b85780518352602092830192016140a0565b5050858452601f01601f1916604052505b50949350505050565b806000036140dd5750565b60006140ea61093361227a565b9050818110614189576000805160206168b78339815191526001600160a01b0316633d18b9126040518163ffffffff1660e01b8152600401600060405180830381600087803b15801561413c57600080fd5b505af1158015614150573d6000803e3d6000fd5b50506040516370a0823160e01b81526112da92506000805160206168d783398151915291506370a0823190612f2e903090600401615593565b60006141a861419b610d0e8486615c91565b6141a36119ab565b614737565b905061125b81613cd1565b60ca546040516370a0823160e01b8152600091829182916001600160a01b0316906370a08231906141e8903090600401615593565b602060405180830381865afa158015614205573d6000803e3d6000fd5b505050506040513d601f19601f820116820180604052508101906142299190615bae565b905083811061423d57509192600092509050565b61424f61424a8286615c91565b6140d2565b60ca546040516370a0823160e01b81526001600160a01b03909116906370a082319061427f903090600401615593565b602060405180830381865afa15801561429c573d6000803e3d6000fd5b505050506040513d601f19601f820116820180604052508101906142c09190615bae565b9050808411156142de579150816142d78185615c91565b91506142e2565b8392505b50915091565b60c9546001600160a01b031633148061430057503330145b6118f75760405162461bcd60e51b815260206004820152602260248201527f4261736553747261746567793a3a4f6e6c79537472617465676973744f725365604482015261363360f11b6064820152608401610d75565b806000036143625750565b6101355460ca546001600160a01b03918216916310cabd1d9160008051602061693783398151915291168461271061439d612648606461623c565b6143a79190616253565b6040518563ffffffff1660e01b81526004016143c694939291906164d6565b600060405180830381600087803b1580156143e057600080fd5b505af19250505080156143f1575060015b61442e573d80801561441f576040519150601f19603f3d011682016040523d82523d6000602084013e614424565b606091505b50613aee82614a2a565b60ca5460405182916001600160a01b0316906000805160206169378339815191529060008051602061689783398151915290600090a450565b6000606060008060008661ffff166001600160401b0381111561448c5761448c6157f9565b6040519080825280601f01601f1916602001820160405280156144b6576020820181803683370190505b50905060008087516020890160008d8df191503d9250868311156144d8578692505b828152826000602083013e9093509150505b94509492505050565b8180519060200120609760008761ffff1661ffff168152602001908152602001600020856040516145249190615f50565b9081526040805191829003602090810183206001600160401b0388166000908152915220919091557fe183f33de2837795525b4792ca4cd60535bd77c53b7e7030060bfcf5734d6b0c906145819087908790879087908790616501565b60405180910390a15050505050565b60006145e5826040518060400160405280602081526020017f5361666545524332303a206c6f772d6c6576656c2063616c6c206661696c6564815250856001600160a01b0316614afb9092919063ffffffff16565b905080516000148061460657508080602001905181019061460691906162fe565b61125b5760405162461bcd60e51b815260206004820152602a60248201527f5361666545524332303a204552433230206f7065726174696f6e20646964206e6044820152691bdd081cdd58d8d9595960b21b6064820152608401610d75565b600054610100900460ff1661468c5760405162461bcd60e51b8152600401610d75906162b3565b614694614b0a565b610f8581614b3a565b6146a78282611a20565b6112da576146b481614b83565b6146bf836020614b95565b6040516020016146d0929190616553565b60408051601f198184030181529082905262461bcd60e51b8252610d75916004016155f7565b600061271060cc5483614709919061623c565b610e2d9190616253565b60008060006147228585614d30565b9150915061472f81614d75565b509392505050565b600081831061474657816113da565b5090919050565b60408051600160f01b6020820152620f424060228083019190915282518083039091018152604290910190915290565b60408051600280825260608201909252600091816020015b6040805160608101825260008082526020808301829052928201528252600019909201910181614795575050604080516060810182526000805160206168d783398151915281526000805160206169378339815191526020820152600091810182905282519293509183919061480d5761480d6165c2565b60209081029190910181019190915260408051606081018252600080516020616937833981519152815260ca546001600160a01b031692810192909252600190820181905282518391908110614865576148656165c2565b6020026020010181905250600061487b83611a4c565b905060008051602061687783398151915263f41766d88461489b846146f6565b8530426040518663ffffffff1660e01b81526004016148be9594939291906165d8565b6000604051808303816000875af19250505080156148fe57506040513d6000823e601f3d908101601f191682016040526148fb9190810190616667565b60015b1561125b5750505050565b60008180602001905181019061491f9190616700565b9050600381600481111561493557614935615cd0565b03614980576000828060200190518101906149509190616721565b9150506149608160000151612e98565b805160405190815260008051602061695783398151915290602001611d02565b600081600481111561499457614994615cd0565b036149bb576000828060200190518101906149af9190616764565b91505061125b81614eba565b60048160048111156149cf576149cf615cd0565b036112da576000828060200190518101906149ea91906167cf565b9150506149fa8160000151614fe4565b80516040517f7c9a2d2ec51230d7dbed27f113a325b7e20aef7b049e68b2339257b5edff5bea91611d0291615593565b6000614a35826113e1565b90506000805160206168778339815191526313dcfc5983614a55846146f6565b60ca5460405160e085901b6001600160e01b03191681526004810193909352602483019190915260008051602061693783398151915260448301526001600160a01b03166064820152600160848201523060a48201524260c482015260e4016000604051808303816000875af1158015614ad3573d6000803e3d6000fd5b505050506040513d6000823e601f3d908101601f1916820160405261125b9190810190616667565b6060611dc08484600085615023565b600054610100900460ff16614b315760405162461bcd60e51b8152600401610d75906162b3565b6118f733613c7f565b600054610100900460ff16614b615760405162461bcd60e51b8152600401610d75906162b3565b606580546001600160a01b0319166001600160a01b0392909216919091179055565b6060610e2d6001600160a01b03831660145b60606000614ba483600261623c565b614baf906002615ca4565b6001600160401b03811115614bc657614bc66157f9565b6040519080825280601f01601f191660200182016040528015614bf0576020820181803683370190505b509050600360fc1b81600081518110614c0b57614c0b6165c2565b60200101906001600160f81b031916908160001a905350600f60fb1b81600181518110614c3a57614c3a6165c2565b60200101906001600160f81b031916908160001a9053506000614c5e84600261623c565b614c69906001615ca4565b90505b6001811115614ce1576f181899199a1a9b1b9c1cb0b131b232b360811b85600f1660108110614c9d57614c9d6165c2565b1a60f81b828281518110614cb357614cb36165c2565b60200101906001600160f81b031916908160001a90535060049490941c93614cda8161681d565b9050614c6c565b5083156113da5760405162461bcd60e51b815260206004820181905260248201527f537472696e67733a20686578206c656e67746820696e73756666696369656e746044820152606401610d75565b6000808251604103614d665760208301516040840151606085015160001a614d5a878285856150fe565b94509450505050614d6e565b506000905060025b9250929050565b6000816004811115614d8957614d89615cd0565b03614d915750565b6001816004811115614da557614da5615cd0565b03614ded5760405162461bcd60e51b815260206004820152601860248201527745434453413a20696e76616c6964207369676e617475726560401b6044820152606401610d75565b6002816004811115614e0157614e01615cd0565b03614e4e5760405162461bcd60e51b815260206004820152601f60248201527f45434453413a20696e76616c6964207369676e6174757265206c656e677468006044820152606401610d75565b6003816004811115614e6257614e62615cd0565b03610f855760405162461bcd60e51b815260206004820152602260248201527f45434453413a20696e76616c6964207369676e6174757265202773272076616c604482015261756560f01b6064820152608401610d75565b602080820151600090815260cf909152604090205460ff1615614f1f5760405162461bcd60e51b815260206004820152601e60248201527f4261736553747261746567793a3a416c726561647957697468647261776e00006044820152606401610d75565b600080614f2f83600001516141b3565b91509150600060016040518060800160405280306001600160a01b031681526020018581526020018481526020018660200151815250604051602001614f76929190616834565b60408051601f1981840301815291905290508215614fb75760cb54614fb290849061ffff600160a01b820416906001600160a01b0316846137a9565b614fc0565b614fc081613897565b505050602090810151600090815260cf90915260409020805460ff19166001179055565b614fed816151b5565b60ca546040516370a0823160e01b8152610f859183916001600160a01b03909116906370a0823190611b23903090600401615593565b6060824710156150845760405162461bcd60e51b815260206004820152602660248201527f416464726573733a20696e73756666696369656e742062616c616e636520666f6044820152651c8818d85b1b60d21b6064820152608401610d75565b600080866001600160a01b031685876040516150a09190615f50565b60006040518083038185875af1925050503d80600081146150dd576040519150601f19603f3d011682016040523d82523d6000602084013e6150e2565b606091505b50915091506150f3878383876153cb565b979650505050505050565b6000806fa2a8918ca85bafe22016d0b997e4df60600160ff1b0383111561512b57506000905060036144ea565b6040805160008082526020820180845289905260ff881692820192909252606081018690526080810185905260019060a0016020604051602081039080840390855afa15801561517f573d6000803e3d6000fd5b5050604051601f1901519150506001600160a01b0381166151a8576000600192509250506144ea565b9660009650945050505050565b6000805160206168b7833981519152632e1a7d4d6151d16119ab565b6040518263ffffffff1660e01b81526004016151ef91815260200190565b600060405180830381600087803b15801561520957600080fd5b505af115801561521d573d6000803e3d6000fd5b50506040516370a0823160e01b81526152af92508391506000805160206168f7833981519152906370a0823190615258903090600401615593565b602060405180830381865afa158015615275573d6000803e3d6000fd5b505050506040513d601f19601f820116820180604052508101906152999190615bae565b6000805160206168f78339815191529190612a30565b6040516370a0823160e01b815261533d908290600080516020616937833981519152906370a08231906152e6903090600401615593565b602060405180830381865afa158015615303573d6000803e3d6000fd5b505050506040513d601f19601f820116820180604052508101906153279190615bae565b6000805160206169378339815191529190612a30565b6040516370a0823160e01b8152610f859082906000805160206168d7833981519152906370a0823190615374903090600401615593565b602060405180830381865afa158015615391573d6000803e3d6000fd5b505050506040513d601f19601f820116820180604052508101906153b59190615bae565b6000805160206168d78339815191529190612a30565b60608315615438578251600003615431576153e585612a86565b6154315760405162461bcd60e51b815260206004820152601d60248201527f416464726573733a2063616c6c20746f206e6f6e2d636f6e74726163740000006044820152606401610d75565b5081611dc0565b611dc0838381511561544d5781518083602001fd5b8060405162461bcd60e51b8152600401610d7591906155f7565b803561ffff8116811461547957600080fd5b919050565b60008083601f84011261549057600080fd5b5081356001600160401b038111156154a757600080fd5b602083019150836020828501011115614d6e57600080fd5b80356001600160401b038116811461547957600080fd5b600080600080600080608087890312156154ef57600080fd5b6154f887615467565b955060208701356001600160401b038082111561551457600080fd5b6155208a838b0161547e565b909750955085915061553460408a016154bf565b9450606089013591508082111561554a57600080fd5b5061555789828a0161547e565b979a9699509497509295939492505050565b60006020828403121561557b57600080fd5b81356001600160e01b0319811681146113da57600080fd5b6001600160a01b0391909116815260200190565b60005b838110156155c25781810151838201526020016155aa565b50506000910152565b600081518084526155e38160208601602086016155a7565b601f01601f19169290920160200192915050565b6020815260006113da60208301846155cb565b60006020828403121561561c57600080fd5b6113da82615467565b6000806040838503121561563857600080fd5b61564183615467565b946020939093013593505050565b6001600160a01b0381168114610f8557600080fd5b60006020828403121561567657600080fd5b81356113da8161564f565b600080600080600080600080610100898b03121561569e57600080fd5b88356156a98161564f565b975060208901356156b98161564f565b965060408901356156c98161564f565b955060608901356156d98161564f565b94506156e760808a01615467565b93506156f560a08a01615467565b925060c08901356157058161564f565b915060e08901356157158161564f565b809150509295985092959890939650565b6001600160a01b03169052565b60006020828403121561574557600080fd5b5035919050565b6000806040838503121561575f57600080fd5b8235915060208301356157718161564f565b809150509250929050565b60008060006040848603121561579157600080fd5b61579a84615467565b925060208401356001600160401b038111156157b557600080fd5b6157c18682870161547e565b9497909650939450505050565b8015158114610f8557600080fd5b6000602082840312156157ee57600080fd5b81356113da816157ce565b634e487b7160e01b600052604160045260246000fd5b604051602081016001600160401b0381118282101715615831576158316157f9565b60405290565b604051601f8201601f191681016001600160401b038111828210171561585f5761585f6157f9565b604052919050565b60006001600160401b03821115615880576158806157f9565b50601f01601f191660200190565b600082601f83011261589f57600080fd5b81356158b26158ad82615867565b615837565b8181528460208386010111156158c757600080fd5b816020850160208301376000918101602001919091529392505050565b600080600080600060a086880312156158fc57600080fd5b8535945060208601359350604086013592506060860135915060808601356001600160401b0381111561592e57600080fd5b61593a8882890161588e565b9150509295509295909350565b60008060006060848603121561595c57600080fd5b61596584615467565b925060208401356001600160401b0381111561598057600080fd5b61598c8682870161588e565b92505061599b604085016154bf565b90509250925092565b600080604083850312156159b757600080fd5b6159c083615467565b91506159ce60208401615467565b90509250929050565b60008060008060008060c087890312156159f057600080fd5b6159f987615467565b955060208701356001600160401b0380821115615a1557600080fd5b615a218a838b0161588e565b96506040890135955060608901359150615a3a8261564f565b9093506080880135925060a08801359080821115615a5757600080fd5b50615a6489828a0161588e565b9150509295509295509295565b600080600080600060808688031215615a8957600080fd5b615a9286615467565b9450615aa060208701615467565b93506040860135925060608601356001600160401b03811115615ac257600080fd5b615ace8882890161547e565b969995985093965092949392505050565b600080600060608486031215615af457600080fd5b615afd84615467565b9250615b0b60208501615467565b9150604084013590509250925092565b60008060008060808587031215615b3157600080fd5b8435615b3c8161564f565b93506020850135615b4c8161564f565b93969395505050506040820135916060013590565b60008060008060808587031215615b7757600080fd5b615b8085615467565b9350615b8e60208601615467565b92506040850135615b9e8161564f565b9396929550929360600135925050565b600060208284031215615bc057600080fd5b5051919050565b600181811c90821680615bdb57607f821691505b602082108103615bfb57634e487b7160e01b600052602260045260246000fd5b50919050565b8183823760009101908152919050565b600060208284031215615c2357600080fd5b815160ff811681146113da57600080fd5b81835281816020850137506000828201602090810191909152601f909101601f19169091010190565b61ffff841681526040602082015260006126a0604083018486615c34565b634e487b7160e01b600052601160045260246000fd5b81810381811115610e2d57610e2d615c7b565b80820180821115610e2d57610e2d615c7b565b600060018201615cc957615cc9615c7b565b5060010190565b634e487b7160e01b600052602160045260246000fd5b60058110615d0457634e487b7160e01b600052602160045260246000fd5b9052565b615d128184615ce6565b60406020820152615d27604082018351615726565b6020820151606082015260408201516080820152606082015160a0820152608082015160c082015260a082015160e0820152600060c0830151610100818185015260e085015191506101208281860152818601519250610140915082828601528086015192505061016082818601528186015192508061018086015250506126a06101a08401826155cb565b6001600160a01b03929092168252602082015260400190565b8284823760609190911b6001600160601b0319169101908152601401919050565b601f82111561125b57600081815260208120601f850160051c81016020861015615e145750805b601f850160051c820191505b81811015610df457828155600101615e20565b600019600383901b1c191660019190911b1790565b81516001600160401b03811115615e6157615e616157f9565b615e7581615e6f8454615bc7565b84615ded565b602080601f831160018114615ea45760008415615e925750858301515b615e9c8582615e33565b865550610df4565b600085815260208120601f198616915b82811015615ed357888601518255948401946001909101908401615eb4565b5085821015615ef15787850151600019600388901b60f8161c191681555b5050505050600190811b01905550565b6001600160a01b03948516815292909316602083015215156040820152606081019190915260800190565b60008060408385031215615f3f57600080fd5b505080516020909101519092909150565b60008251615f628184602087016155a7565b9190910192915050565b805160208201516001600160601b03198082169291906014831015615f9b5780818460140360031b1b83161693505b505050919050565b9182526001600160a01b0316602082015260400190565b600061ffff8088168352808716602084015250846040830152608060608301526150f3608083018486615c34565b61ffff86168152608060208201526000616006608083018688615c34565b6001600160401b0394909416604083015250606001529392505050565b6001600160401b0383111561603a5761603a6157f9565b61604e836160488354615bc7565b83615ded565b6000601f84116001811461607c576000851561606a5750838201355b6160748682615e33565b845550610e99565b600083815260209020601f19861690835b828110156160ad578685013582556020948501946001909201910161608d565b50868210156160ca5760001960f88860031b161c19848701351681555b505060018560011b0183555050505050565b6000602082840312156160ee57600080fd5b81516001600160401b0381111561610457600080fd5b8201601f8101841361611557600080fd5b80516161236158ad82615867565b81815285602083850101111561613857600080fd5b6126a08260208301602086016155a7565b600181815b8085111561618457816000190482111561616a5761616a615c7b565b8085161561617757918102915b93841c939080029061614e565b509250929050565b60008261619b57506001610e2d565b816161a857506000610e2d565b81600181146161be57600281146161c8576161e4565b6001915050610e2d565b60ff8411156161d9576161d9615c7b565b50506001821b610e2d565b5060208310610133831016604e8410600b8410161715616207575081810a610e2d565b6162118383616149565b806000190482111561622557616225615c7b565b029392505050565b60006113da60ff84168361618c565b8082028115828204841417610e2d57610e2d615c7b565b60008261627057634e487b7160e01b600052601260045260246000fd5b500490565b61ffff8516815260806020820152600061629260808301866155cb565b6001600160401b038516604084015282810360608401526150f381856155cb565b6020808252602b908201527f496e697469616c697a61626c653a20636f6e7472616374206973206e6f74206960408201526a6e697469616c697a696e6760a81b606082015260800190565b60006020828403121561631057600080fd5b81516113da816157ce565b60208152600082516080602084015261633760a08401826155cb565b905060018060a01b03602085015116604084015260408401516060840152606084015160808401528091505092915050565b60008060006060848603121561637e57600080fd5b8351925060208401519150604084015190509250925092565b60ff8281168282160390811115610e2d57610e2d615c7b565b61ffff841681526001600160a01b03831660208201526060604082018190526000906126a0908301846155cb565b6001600160a01b0386811682526020820186905261ffff851660408301528316606082015260a0608082018190526000906150f3908301846155cb565b61ffff861681526001600160a01b038516602082015260a060408201819052600090616449908301866155cb565b8415156060840152828103608084015261646381856155cb565b98975050505050505050565b61ffff8716815260c06020820152600061648c60c08301886155cb565b828103604084015261649e81886155cb565b6001600160a01b0387811660608601528616608085015283810360a085015290506164c981856155cb565b9998505050505050505050565b6001600160a01b039485168152929093166020830152604082015260ff909116606082015260800190565b61ffff8616815260a06020820152600061651e60a08301876155cb565b6001600160401b0386166040840152828103606084015261653f81866155cb565b9050828103608084015261646381856155cb565b76020b1b1b2b9b9a1b7b73a3937b61d1030b1b1b7bab73a1604d1b8152600083516165858160178501602088016155a7565b7001034b99036b4b9b9b4b733903937b6329607d1b60179184019182015283516165b68160288401602088016155a7565b01602801949350505050565b634e487b7160e01b600052603260045260246000fd5b600060a0820187835260208781850152604060a08186015282885180855260c087019150838a01945060005b8181101561664157855180516001600160a01b03908116855286820151168685015284015115158484015294840194606090920191600101616604565b5050809450505050506166576060830185615726565b8260808301529695505050505050565b6000602080838503121561667a57600080fd5b82516001600160401b038082111561669157600080fd5b818501915085601f8301126166a557600080fd5b8151818111156166b7576166b76157f9565b8060051b91506166c8848301615837565b81815291830184019184810190888411156166e257600080fd5b938501935b83851015616463578451825293850193908501906166e7565b60006020828403121561671257600080fd5b8151600581106113da57600080fd5b600080828403604081121561673557600080fd5b835192506020601f198201121561674b57600080fd5b5061675461580f565b6020939093015183525092909150565b600080828403606081121561677857600080fd5b835192506040601f198201121561678e57600080fd5b50604080519081016001600160401b03811182821017156167b1576167b16157f9565b60409081526020858101518352940151938101939093525092909150565b60008082840360408112156167e357600080fd5b835192506020601f19820112156167f957600080fd5b5061680261580f565b60208401516168108161564f565b8152919491935090915050565b60008161682c5761682c615c7b565b506000190190565b60a081016168428285615ce6565b60018060a01b038351166020830152602083015160408301526040830151606083015260608301516080830152939250505056fe000000000000000000000000cc25c0fd84737f44a7d38649b69491bbf0c7f083ea368a40e9570069bb8e6511d668293ad2e1f03b0d982431fd223de9f3b70ca600000000000000000000000097bd59a8202f8263c2ec39cf6cf6b438d0b458760000000000000000000000007238390d5f6f64e67c3211c343a410e2a3dec142000000000000000000000000d17cb0f162f133e339c0bbfc18c36c357e681d6b6d1efadb607420c71e8f966ae6611a2b817ec83a98f82ae24284fd004cf9d40c00000000000000000000000040379a439d4f6795b6fc9aa5687db461677a2dbab0c58532a125fc3c0adccaef396bf65344a4d5781cec2e4c593e6b611d75f150a2646970667358221220c3081a72a71e781251d4f283ed5e9408d8bcb1f0707098afcad1402082c38a9e64736f6c63430008130033",
  "linkReferences": {},
  "deployedLinkReferences": {}
}