{
  "_format": "hh-sol-artifact-1",
  "contractName": "MockPearlStrategy",
  "sourceName": "contracts/mock/MockPearlStrategy.sol",
  "abi": [
    {
      "inputs": [
        {
          "internalType": "uint256",
          "name": "messageType",
          "type": "uint256"
        }
      ],
      "name": "IncorrectMessageType",
      "type": "error"
    },
    {
      "inputs": [
        {
          "internalType": "uint256",
          "name": "amount",
          "type": "uint256"
        },
        {
          "internalType": "uint256",
          "name": "balance",
          "type": "uint256"
        }
      ],
      "name": "InsufficientFunds",
      "type": "error"
    },
    {
      "anonymous": false,
      "inputs": [
        {
          "indexed": false,
          "internalType": "uint256",
          "name": "debtOutstanding",
          "type": "uint256"
        }
      ],
      "name": "AdjustedPosition",
      "type": "event"
    },
    {
      "anonymous": false,
      "inputs": [
        {
          "indexed": false,
          "internalType": "uint8",
          "name": "version",
          "type": "uint8"
        }
      ],
      "name": "Initialized",
      "type": "event"
    },
    {
      "anonymous": false,
      "inputs": [
        {
          "indexed": false,
          "internalType": "uint16",
          "name": "_srcChainId",
          "type": "uint16"
        },
        {
          "indexed": false,
          "internalType": "bytes",
          "name": "_srcAddress",
          "type": "bytes"
        },
        {
          "indexed": false,
          "internalType": "uint64",
          "name": "_nonce",
          "type": "uint64"
        },
        {
          "indexed": false,
          "internalType": "bytes",
          "name": "_payload",
          "type": "bytes"
        },
        {
          "indexed": false,
          "internalType": "bytes",
          "name": "_reason",
          "type": "bytes"
        }
      ],
      "name": "MessageFailed",
      "type": "event"
    },
    {
      "anonymous": false,
      "inputs": [
        {
          "indexed": true,
          "internalType": "address",
          "name": "previousOwner",
          "type": "address"
        },
        {
          "indexed": true,
          "internalType": "address",
          "name": "newOwner",
          "type": "address"
        }
      ],
      "name": "OwnershipTransferred",
      "type": "event"
    },
    {
      "anonymous": false,
      "inputs": [
        {
          "indexed": false,
          "internalType": "uint16",
          "name": "_srcChainId",
          "type": "uint16"
        },
        {
          "indexed": false,
          "internalType": "bytes",
          "name": "_srcAddress",
          "type": "bytes"
        },
        {
          "indexed": false,
          "internalType": "uint64",
          "name": "_nonce",
          "type": "uint64"
        },
        {
          "indexed": false,
          "internalType": "bytes32",
          "name": "_payloadHash",
          "type": "bytes32"
        }
      ],
      "name": "RetryMessageSuccess",
      "type": "event"
    },
    {
      "anonymous": false,
      "inputs": [
        {
          "indexed": false,
          "internalType": "uint16",
          "name": "_dstChainId",
          "type": "uint16"
        },
        {
          "indexed": false,
          "internalType": "uint16",
          "name": "_type",
          "type": "uint16"
        },
        {
          "indexed": false,
          "internalType": "uint256",
          "name": "_minDstGas",
          "type": "uint256"
        }
      ],
      "name": "SetMinDstGas",
      "type": "event"
    },
    {
      "anonymous": false,
      "inputs": [
        {
          "indexed": false,
          "internalType": "address",
          "name": "precrime",
          "type": "address"
        }
      ],
      "name": "SetPrecrime",
      "type": "event"
    },
    {
      "anonymous": false,
      "inputs": [
        {
          "indexed": false,
          "internalType": "uint16",
          "name": "_remoteChainId",
          "type": "uint16"
        },
        {
          "indexed": false,
          "internalType": "bytes",
          "name": "_path",
          "type": "bytes"
        }
      ],
      "name": "SetTrustedRemote",
      "type": "event"
    },
    {
      "anonymous": false,
      "inputs": [
        {
          "indexed": false,
          "internalType": "uint16",
          "name": "_remoteChainId",
          "type": "uint16"
        },
        {
          "indexed": false,
          "internalType": "bytes",
          "name": "_remoteAddress",
          "type": "bytes"
        }
      ],
      "name": "SetTrustedRemoteAddress",
      "type": "event"
    },
    {
      "anonymous": false,
      "inputs": [
        {
          "indexed": true,
          "internalType": "address",
          "name": "token",
          "type": "address"
        },
        {
          "indexed": false,
          "internalType": "uint256",
          "name": "amount",
          "type": "uint256"
        },
        {
          "indexed": false,
          "internalType": "address",
          "name": "sender",
          "type": "address"
        }
      ],
      "name": "SgReceived",
      "type": "event"
    },
    {
      "anonymous": false,
      "inputs": [
        {
          "indexed": false,
          "internalType": "address",
          "name": "newStrategy",
          "type": "address"
        }
      ],
      "name": "StrategyMigrated",
      "type": "event"
    },
    {
      "anonymous": false,
      "inputs": [
        {
          "indexed": false,
          "internalType": "uint256",
          "name": "profit",
          "type": "uint256"
        },
        {
          "indexed": false,
          "internalType": "uint256",
          "name": "loss",
          "type": "uint256"
        },
        {
          "indexed": false,
          "internalType": "uint256",
          "name": "debtPayment",
          "type": "uint256"
        },
        {
          "indexed": false,
          "internalType": "uint256",
          "name": "giveToStrategy",
          "type": "uint256"
        },
        {
          "indexed": false,
          "internalType": "uint256",
          "name": "requestFromStrategy",
          "type": "uint256"
        },
        {
          "indexed": false,
          "internalType": "uint256",
          "name": "creditAvailable",
          "type": "uint256"
        },
        {
          "indexed": false,
          "internalType": "uint256",
          "name": "totalAssets",
          "type": "uint256"
        }
      ],
      "name": "StrategyReported",
      "type": "event"
    },
    {
      "inputs": [],
      "name": "DEFAULT_PAYLOAD_SIZE_LIMIT",
      "outputs": [
        {
          "internalType": "uint256",
          "name": "",
          "type": "uint256"
        }
      ],
      "stateMutability": "view",
      "type": "function"
    },
    {
      "inputs": [],
      "name": "DEFAULT_SLIPPAGE",
      "outputs": [
        {
          "internalType": "uint256",
          "name": "",
          "type": "uint256"
        }
      ],
      "stateMutability": "view",
      "type": "function"
    },
    {
      "inputs": [
        {
          "internalType": "uint256",
          "name": "_debtOutstanding",
          "type": "uint256"
        }
      ],
      "name": "adjustPosition",
      "outputs": [],
      "stateMutability": "nonpayable",
      "type": "function"
    },
    {
      "inputs": [],
      "name": "balanceOfLpStaked",
      "outputs": [
        {
          "internalType": "uint256",
          "name": "",
          "type": "uint256"
        }
      ],
      "stateMutability": "view",
      "type": "function"
    },
    {
      "inputs": [],
      "name": "balanceOfPearlRewards",
      "outputs": [
        {
          "internalType": "uint256",
          "name": "",
          "type": "uint256"
        }
      ],
      "stateMutability": "view",
      "type": "function"
    },
    {
      "inputs": [],
      "name": "balanceOfWant",
      "outputs": [
        {
          "internalType": "uint256",
          "name": "",
          "type": "uint256"
        }
      ],
      "stateMutability": "view",
      "type": "function"
    },
    {
      "inputs": [],
      "name": "callMe",
      "outputs": [],
      "stateMutability": "nonpayable",
      "type": "function"
    },
    {
      "inputs": [],
      "name": "clearWant",
      "outputs": [],
      "stateMutability": "nonpayable",
      "type": "function"
    },
    {
      "inputs": [],
      "name": "currentChainId",
      "outputs": [
        {
          "internalType": "uint16",
          "name": "",
          "type": "uint16"
        }
      ],
      "stateMutability": "view",
      "type": "function"
    },
    {
      "inputs": [
        {
          "internalType": "uint256",
          "name": "_daiAmount",
          "type": "uint256"
        }
      ],
      "name": "daiToWant",
      "outputs": [
        {
          "internalType": "uint256",
          "name": "",
          "type": "uint256"
        }
      ],
      "stateMutability": "view",
      "type": "function"
    },
    {
      "inputs": [],
      "name": "emergencyExit",
      "outputs": [
        {
          "internalType": "bool",
          "name": "",
          "type": "bool"
        }
      ],
      "stateMutability": "view",
      "type": "function"
    },
    {
      "inputs": [],
      "name": "estimatedTotalAssets",
      "outputs": [
        {
          "internalType": "uint256",
          "name": "",
          "type": "uint256"
        }
      ],
      "stateMutability": "view",
      "type": "function"
    },
    {
      "inputs": [
        {
          "internalType": "uint256",
          "name": "_stakedLpTokens",
          "type": "uint256"
        }
      ],
      "name": "exitPosition",
      "outputs": [],
      "stateMutability": "nonpayable",
      "type": "function"
    },
    {
      "inputs": [
        {
          "internalType": "uint16",
          "name": "",
          "type": "uint16"
        },
        {
          "internalType": "bytes",
          "name": "",
          "type": "bytes"
        },
        {
          "internalType": "uint64",
          "name": "",
          "type": "uint64"
        }
      ],
      "name": "failedMessages",
      "outputs": [
        {
          "internalType": "bytes32",
          "name": "",
          "type": "bytes32"
        }
      ],
      "stateMutability": "view",
      "type": "function"
    },
    {
      "inputs": [
        {
          "internalType": "uint16",
          "name": "_srcChainId",
          "type": "uint16"
        },
        {
          "internalType": "bytes",
          "name": "_srcAddress",
          "type": "bytes"
        }
      ],
      "name": "forceResumeReceive",
      "outputs": [],
      "stateMutability": "nonpayable",
      "type": "function"
    },
    {
      "inputs": [
        {
          "internalType": "uint16",
          "name": "_version",
          "type": "uint16"
        },
        {
          "internalType": "uint16",
          "name": "_chainId",
          "type": "uint16"
        },
        {
          "internalType": "address",
          "name": "",
          "type": "address"
        },
        {
          "internalType": "uint256",
          "name": "_configType",
          "type": "uint256"
        }
      ],
      "name": "getConfig",
      "outputs": [
        {
          "internalType": "bytes",
          "name": "",
          "type": "bytes"
        }
      ],
      "stateMutability": "view",
      "type": "function"
    },
    {
      "inputs": [
        {
          "internalType": "bytes32",
          "name": "_messageHash",
          "type": "bytes32"
        }
      ],
      "name": "getEthSignedMessageHash",
      "outputs": [
        {
          "internalType": "bytes32",
          "name": "",
          "type": "bytes32"
        }
      ],
      "stateMutability": "pure",
      "type": "function"
    },
    {
      "inputs": [
        {
          "internalType": "uint16",
          "name": "_remoteChainId",
          "type": "uint16"
        }
      ],
      "name": "getTrustedRemoteAddress",
      "outputs": [
        {
          "internalType": "bytes",
          "name": "",
          "type": "bytes"
        }
      ],
      "stateMutability": "view",
      "type": "function"
    },
    {
      "inputs": [
        {
          "internalType": "uint256",
          "name": "_totalDebt",
          "type": "uint256"
        },
        {
          "internalType": "uint256",
          "name": "_debtOutstanding",
          "type": "uint256"
        },
        {
          "internalType": "uint256",
          "name": "_creditAvailable",
          "type": "uint256"
        },
        {
          "internalType": "uint256",
          "name": "_debtRatio",
          "type": "uint256"
        },
        {
          "internalType": "bytes",
          "name": "_signature",
          "type": "bytes"
        }
      ],
      "name": "harvest",
      "outputs": [],
      "stateMutability": "nonpayable",
      "type": "function"
    },
    {
      "inputs": [
        {
          "internalType": "address",
          "name": "_lzEndpoint",
          "type": "address"
        },
        {
          "internalType": "address",
          "name": "_strategist",
          "type": "address"
        },
        {
          "internalType": "contract IERC20",
          "name": "_want",
          "type": "address"
        },
        {
          "internalType": "address",
          "name": "_vault",
          "type": "address"
        },
        {
          "internalType": "uint16",
          "name": "_vaultChainId",
          "type": "uint16"
        },
        {
          "internalType": "uint16",
          "name": "_currentChainId",
          "type": "uint16"
        },
        {
          "internalType": "address",
          "name": "_sgBridge",
          "type": "address"
        },
        {
          "internalType": "address",
          "name": "_router",
          "type": "address"
        }
      ],
      "name": "initialize",
      "outputs": [],
      "stateMutability": "nonpayable",
      "type": "function"
    },
    {
      "inputs": [
        {
          "internalType": "uint16",
          "name": "_srcChainId",
          "type": "uint16"
        },
        {
          "internalType": "bytes",
          "name": "_srcAddress",
          "type": "bytes"
        }
      ],
      "name": "isTrustedRemote",
      "outputs": [
        {
          "internalType": "bool",
          "name": "",
          "type": "bool"
        }
      ],
      "stateMutability": "view",
      "type": "function"
    },
    {
      "inputs": [],
      "name": "liquidateAllPositions",
      "outputs": [
        {
          "internalType": "uint256",
          "name": "",
          "type": "uint256"
        }
      ],
      "stateMutability": "nonpayable",
      "type": "function"
    },
    {
      "inputs": [
        {
          "internalType": "uint256",
          "name": "_amountNeeded",
          "type": "uint256"
        }
      ],
      "name": "liquidatePosition",
      "outputs": [],
      "stateMutability": "nonpayable",
      "type": "function"
    },
    {
      "inputs": [],
      "name": "lzEndpoint",
      "outputs": [
        {
          "internalType": "contract ILayerZeroEndpointUpgradeable",
          "name": "",
          "type": "address"
        }
      ],
      "stateMutability": "view",
      "type": "function"
    },
    {
      "inputs": [
        {
          "internalType": "uint16",
          "name": "_srcChainId",
          "type": "uint16"
        },
        {
          "internalType": "bytes",
          "name": "_srcAddress",
          "type": "bytes"
        },
        {
          "internalType": "uint64",
          "name": "_nonce",
          "type": "uint64"
        },
        {
          "internalType": "bytes",
          "name": "_payload",
          "type": "bytes"
        }
      ],
      "name": "lzReceive",
      "outputs": [],
      "stateMutability": "nonpayable",
      "type": "function"
    },
    {
      "inputs": [
        {
          "internalType": "uint16",
          "name": "",
          "type": "uint16"
        },
        {
          "internalType": "uint16",
          "name": "",
          "type": "uint16"
        }
      ],
      "name": "minDstGasLookup",
      "outputs": [
        {
          "internalType": "uint256",
          "name": "",
          "type": "uint256"
        }
      ],
      "stateMutability": "view",
      "type": "function"
    },
    {
      "inputs": [],
      "name": "name",
      "outputs": [
        {
          "internalType": "string",
          "name": "",
          "type": "string"
        }
      ],
      "stateMutability": "pure",
      "type": "function"
    },
    {
      "inputs": [
        {
          "internalType": "uint16",
          "name": "_srcChainId",
          "type": "uint16"
        },
        {
          "internalType": "bytes",
          "name": "_srcAddress",
          "type": "bytes"
        },
        {
          "internalType": "uint64",
          "name": "_nonce",
          "type": "uint64"
        },
        {
          "internalType": "bytes",
          "name": "_payload",
          "type": "bytes"
        }
      ],
      "name": "nonblockingLzReceive",
      "outputs": [],
      "stateMutability": "nonpayable",
      "type": "function"
    },
    {
      "inputs": [],
      "name": "owner",
      "outputs": [
        {
          "internalType": "address",
          "name": "",
          "type": "address"
        }
      ],
      "stateMutability": "view",
      "type": "function"
    },
    {
      "inputs": [
        {
          "internalType": "uint16",
          "name": "",
          "type": "uint16"
        }
      ],
      "name": "payloadSizeLimitLookup",
      "outputs": [
        {
          "internalType": "uint256",
          "name": "",
          "type": "uint256"
        }
      ],
      "stateMutability": "view",
      "type": "function"
    },
    {
      "inputs": [
        {
          "internalType": "uint256",
          "name": "_pearlAmount",
          "type": "uint256"
        }
      ],
      "name": "pearlToWant",
      "outputs": [
        {
          "internalType": "uint256",
          "name": "",
          "type": "uint256"
        }
      ],
      "stateMutability": "view",
      "type": "function"
    },
    {
      "inputs": [],
      "name": "precrime",
      "outputs": [
        {
          "internalType": "address",
          "name": "",
          "type": "address"
        }
      ],
      "stateMutability": "view",
      "type": "function"
    },
    {
      "inputs": [],
      "name": "renounceOwnership",
      "outputs": [],
      "stateMutability": "nonpayable",
      "type": "function"
    },
    {
      "inputs": [
        {
          "internalType": "uint16",
          "name": "_srcChainId",
          "type": "uint16"
        },
        {
          "internalType": "bytes",
          "name": "_srcAddress",
          "type": "bytes"
        },
        {
          "internalType": "uint64",
          "name": "_nonce",
          "type": "uint64"
        },
        {
          "internalType": "bytes",
          "name": "_payload",
          "type": "bytes"
        }
      ],
      "name": "retryMessage",
      "outputs": [],
      "stateMutability": "payable",
      "type": "function"
    },
    {
      "inputs": [],
      "name": "revokeFunds",
      "outputs": [],
      "stateMutability": "nonpayable",
      "type": "function"
    },
    {
      "inputs": [
        {
          "internalType": "uint256",
          "name": "_pearlAmount",
          "type": "uint256"
        }
      ],
      "name": "sellPearl",
      "outputs": [],
      "stateMutability": "nonpayable",
      "type": "function"
    },
    {
      "inputs": [
        {
          "internalType": "uint256",
          "name": "_usdrAmount",
          "type": "uint256"
        }
      ],
      "name": "sellUsdr",
      "outputs": [],
      "stateMutability": "nonpayable",
      "type": "function"
    },
    {
      "inputs": [
        {
          "internalType": "uint16",
          "name": "_version",
          "type": "uint16"
        },
        {
          "internalType": "uint16",
          "name": "_chainId",
          "type": "uint16"
        },
        {
          "internalType": "uint256",
          "name": "_configType",
          "type": "uint256"
        },
        {
          "internalType": "bytes",
          "name": "_config",
          "type": "bytes"
        }
      ],
      "name": "setConfig",
      "outputs": [],
      "stateMutability": "nonpayable",
      "type": "function"
    },
    {
      "inputs": [
        {
          "internalType": "bool",
          "name": "_emergencyExit",
          "type": "bool"
        }
      ],
      "name": "setEmergencyExit",
      "outputs": [],
      "stateMutability": "nonpayable",
      "type": "function"
    },
    {
      "inputs": [
        {
          "internalType": "uint16",
          "name": "_dstChainId",
          "type": "uint16"
        },
        {
          "internalType": "uint16",
          "name": "_packetType",
          "type": "uint16"
        },
        {
          "internalType": "uint256",
          "name": "_minGas",
          "type": "uint256"
        }
      ],
      "name": "setMinDstGas",
      "outputs": [],
      "stateMutability": "nonpayable",
      "type": "function"
    },
    {
      "inputs": [
        {
          "internalType": "uint16",
          "name": "_dstChainId",
          "type": "uint16"
        },
        {
          "internalType": "uint256",
          "name": "_size",
          "type": "uint256"
        }
      ],
      "name": "setPayloadSizeLimit",
      "outputs": [],
      "stateMutability": "nonpayable",
      "type": "function"
    },
    {
      "inputs": [
        {
          "internalType": "address",
          "name": "_precrime",
          "type": "address"
        }
      ],
      "name": "setPrecrime",
      "outputs": [],
      "stateMutability": "nonpayable",
      "type": "function"
    },
    {
      "inputs": [
        {
          "internalType": "uint16",
          "name": "_version",
          "type": "uint16"
        }
      ],
      "name": "setReceiveVersion",
      "outputs": [],
      "stateMutability": "nonpayable",
      "type": "function"
    },
    {
      "inputs": [
        {
          "internalType": "uint16",
          "name": "_version",
          "type": "uint16"
        }
      ],
      "name": "setSendVersion",
      "outputs": [],
      "stateMutability": "nonpayable",
      "type": "function"
    },
    {
      "inputs": [
        {
          "internalType": "uint256",
          "name": "_slippage",
          "type": "uint256"
        }
      ],
      "name": "setSlippage",
      "outputs": [],
      "stateMutability": "nonpayable",
      "type": "function"
    },
    {
      "inputs": [
        {
          "internalType": "uint16",
          "name": "_srcChainId",
          "type": "uint16"
        },
        {
          "internalType": "bytes",
          "name": "_path",
          "type": "bytes"
        }
      ],
      "name": "setTrustedRemote",
      "outputs": [],
      "stateMutability": "nonpayable",
      "type": "function"
    },
    {
      "inputs": [
        {
          "internalType": "uint16",
          "name": "_remoteChainId",
          "type": "uint16"
        },
        {
          "internalType": "bytes",
          "name": "_remoteAddress",
          "type": "bytes"
        }
      ],
      "name": "setTrustedRemoteAddress",
      "outputs": [],
      "stateMutability": "nonpayable",
      "type": "function"
    },
    {
      "inputs": [],
      "name": "sgBridge",
      "outputs": [
        {
          "internalType": "contract ISgBridge",
          "name": "",
          "type": "address"
        }
      ],
      "stateMutability": "view",
      "type": "function"
    },
    {
      "inputs": [
        {
          "internalType": "uint16",
          "name": "",
          "type": "uint16"
        },
        {
          "internalType": "bytes",
          "name": "_srcAddress",
          "type": "bytes"
        },
        {
          "internalType": "uint256",
          "name": "",
          "type": "uint256"
        },
        {
          "internalType": "address",
          "name": "_token",
          "type": "address"
        },
        {
          "internalType": "uint256",
          "name": "_amountLD",
          "type": "uint256"
        },
        {
          "internalType": "bytes",
          "name": "",
          "type": "bytes"
        }
      ],
      "name": "sgReceive",
      "outputs": [],
      "stateMutability": "nonpayable",
      "type": "function"
    },
    {
      "inputs": [],
      "name": "sgRouter",
      "outputs": [
        {
          "internalType": "contract IStargateRouter",
          "name": "",
          "type": "address"
        }
      ],
      "stateMutability": "view",
      "type": "function"
    },
    {
      "inputs": [],
      "name": "slippage",
      "outputs": [
        {
          "internalType": "uint256",
          "name": "",
          "type": "uint256"
        }
      ],
      "stateMutability": "view",
      "type": "function"
    },
    {
      "inputs": [],
      "name": "strategist",
      "outputs": [
        {
          "internalType": "address",
          "name": "",
          "type": "address"
        }
      ],
      "stateMutability": "view",
      "type": "function"
    },
    {
      "inputs": [],
      "name": "strategistSignMessageHash",
      "outputs": [
        {
          "internalType": "bytes32",
          "name": "",
          "type": "bytes32"
        }
      ],
      "stateMutability": "view",
      "type": "function"
    },
    {
      "inputs": [
        {
          "internalType": "contract IERC20",
          "name": "_token",
          "type": "address"
        }
      ],
      "name": "sweepToken",
      "outputs": [],
      "stateMutability": "nonpayable",
      "type": "function"
    },
    {
      "inputs": [
        {
          "internalType": "address",
          "name": "newOwner",
          "type": "address"
        }
      ],
      "name": "transferOwnership",
      "outputs": [],
      "stateMutability": "nonpayable",
      "type": "function"
    },
    {
      "inputs": [
        {
          "internalType": "uint16",
          "name": "",
          "type": "uint16"
        }
      ],
      "name": "trustedRemoteLookup",
      "outputs": [
        {
          "internalType": "bytes",
          "name": "",
          "type": "bytes"
        }
      ],
      "stateMutability": "view",
      "type": "function"
    },
    {
      "inputs": [
        {
          "internalType": "uint256",
          "name": "_usdrLpAmount",
          "type": "uint256"
        }
      ],
      "name": "usdrLpToWant",
      "outputs": [
        {
          "internalType": "uint256",
          "name": "",
          "type": "uint256"
        }
      ],
      "stateMutability": "view",
      "type": "function"
    },
    {
      "inputs": [],
      "name": "usdrToUsdcRate",
      "outputs": [
        {
          "internalType": "uint256",
          "name": "",
          "type": "uint256"
        }
      ],
      "stateMutability": "view",
      "type": "function"
    },
    {
      "inputs": [
        {
          "internalType": "uint256",
          "name": "_usdrAmount",
          "type": "uint256"
        }
      ],
      "name": "usdrToWant",
      "outputs": [
        {
          "internalType": "uint256",
          "name": "",
          "type": "uint256"
        }
      ],
      "stateMutability": "view",
      "type": "function"
    },
    {
      "inputs": [],
      "name": "vault",
      "outputs": [
        {
          "internalType": "address",
          "name": "",
          "type": "address"
        }
      ],
      "stateMutability": "view",
      "type": "function"
    },
    {
      "inputs": [],
      "name": "vaultChainId",
      "outputs": [
        {
          "internalType": "uint16",
          "name": "",
          "type": "uint16"
        }
      ],
      "stateMutability": "view",
      "type": "function"
    },
    {
      "inputs": [],
      "name": "want",
      "outputs": [
        {
          "internalType": "contract IERC20",
          "name": "",
          "type": "address"
        }
      ],
      "stateMutability": "view",
      "type": "function"
    },
    {
      "inputs": [],
      "name": "wantDecimals",
      "outputs": [
        {
          "internalType": "uint8",
          "name": "",
          "type": "uint8"
        }
      ],
      "stateMutability": "view",
      "type": "function"
    },
    {
      "inputs": [
        {
          "internalType": "uint256",
          "name": "_wantAmount",
          "type": "uint256"
        }
      ],
      "name": "wantToUsdrLp",
      "outputs": [
        {
          "internalType": "uint256",
          "name": "",
          "type": "uint256"
        }
      ],
      "stateMutability": "view",
      "type": "function"
    },
    {
      "inputs": [
        {
          "internalType": "uint256",
          "name": "_amountNeeded",
          "type": "uint256"
        }
      ],
      "name": "withdrawSome",
      "outputs": [],
      "stateMutability": "nonpayable",
      "type": "function"
    },
    {
      "stateMutability": "payable",
      "type": "receive"
    }
  ],
  "bytecode": "0x608060405234801561001057600080fd5b50615f2a80620000216000396000f3fe6080604052600436106102f15760003560e01c80638da5cb5b1161018d5780638da5cb5b146107865780638f4508d01461079b578063950c8a74146107b05780639589c990146107d05780639606647d146107f05780639f38369a14610805578063a6c3d16514610825578063a879851014610845578063a9e508241461085b578063ab8236f31461087b578063adf076e61461089b578063ae9b051c146108ce578063b0bea725146108ee578063b353aaa7146108fa578063baf3292d1461091a578063bd79ac131461093a578063c1a3d44c1461095a578063c44618341461096f578063ca2e283514610985578063cbed8b9c1461099a578063cdddd4e5146109ba578063d1deba1f146109da578063d56739ac146109ed578063df2a5b3b14610a02578063e964404414610a22578063eb8d72b714610a42578063efbb5cb014610a62578063f0fa55a914610a77578063f2fde38b14610a97578063f5ecbdbc14610ab7578063fa54080114610ad7578063fbfa77cf14610af7578063fcb988a414610b1757600080fd5b80621d3567146102fd5780630517cb761461031f57806306fdde031461035557806307e0db17146103945780630df37483146103b457806310ddb137146103d45780631be19560146103f45780631cdb539f146104145780631f1fcd51146104345780631fe4a686146104545780632d6068431461047457806337fded91146104895780633d3ccc2f146104ae5780633d8b38f6146104ce5780633e032a3b146104fe5780633eae1112146105225780633f1f4fa41461054257806342d65a8d1461056f57806345ee07551461058f578063495f881e146105af5780634a5f58d1146105cf57806350bb4beb146105ef5780635641ec0314610604578063567ad85d1461061e578063593178de146106535780635b8c41e61461066857806366ad5c8a146106b75780636cbadbfa146106d7578063715018a6146106f95780637533d7881461070e57806378dc90591461072e5780638cfd8f5c1461074e57600080fd5b366102f857005b600080fd5b34801561030957600080fd5b5061031d610318366004614bd4565b610b37565b005b34801561032b57600080fd5b5060ce5461033f906001600160a01b031681565b60405161034c9190614c67565b60405180910390f35b34801561036157600080fd5b5060408051808201909152600d81526c506561726c537472617465677960981b60208201525b60405161034c9190614ccb565b3480156103a057600080fd5b5061031d6103af366004614cde565b610c20565b3480156103c057600080fd5b5061031d6103cf366004614cf9565b610c8d565b3480156103e057600080fd5b5061031d6103ef366004614cde565b610cac565b34801561040057600080fd5b5061031d61040f366004614d38565b610ce8565b34801561042057600080fd5b5061031d61042f366004614d55565b610d75565b34801561044057600080fd5b5060ca5461033f906001600160a01b031681565b34801561046057600080fd5b5060c95461033f906001600160a01b031681565b34801561048057600080fd5b5061031d610fd9565b34801561049557600080fd5b5060cd5461033f9061010090046001600160a01b031681565b3480156104ba57600080fd5b5061031d6104c9366004614e07565b61101a565b3480156104da57600080fd5b506104ee6104e9366004614e20565b611050565b604051901515815260200161034c565b34801561050a57600080fd5b5061051460cc5481565b60405190815260200161034c565b34801561052e57600080fd5b5061051461053d366004614e07565b61111d565b34801561054e57600080fd5b5061051461055d366004614cde565b60686020526000908152604090205481565b34801561057b57600080fd5b5061031d61058a366004614e20565b6111ab565b34801561059b57600080fd5b5061031d6105aa366004614e80565b61121e565b3480156105bb57600080fd5b5061031d6105ca366004614f88565b611239565b3480156105db57600080fd5b5061031d6105ea366004614e07565b6114dd565b3480156105fb57600080fd5b506105146114e6565b34801561061057600080fd5b5060cd546104ee9060ff1681565b34801561062a57600080fd5b5060cb5461064090600160a01b900461ffff1681565b60405161ffff909116815260200161034c565b34801561065f57600080fd5b506105146114f5565b34801561067457600080fd5b50610514610683366004614feb565b6097602090815260009384526040808520845180860184018051928152908401958401959095209452929052825290205481565b3480156106c357600080fd5b5061031d6106d2366004614bd4565b611553565b3480156106e357600080fd5b5060cb5461064090600160b01b900461ffff1681565b34801561070557600080fd5b5061031d611627565b34801561071a57600080fd5b50610387610729366004614cde565b61163b565b34801561073a57600080fd5b5061031d610749366004614e07565b6116d5565b34801561075a57600080fd5b50610514610769366004615048565b606760209081526000928352604080842090915290825290205481565b34801561079257600080fd5b5061033f6116de565b3480156107a757600080fd5b506105146116ed565b3480156107bc57600080fd5b5060695461033f906001600160a01b031681565b3480156107dc57600080fd5b506105146107eb366004614e07565b611762565b3480156107fc57600080fd5b5061031d6117fa565b34801561081157600080fd5b50610387610820366004614cde565b61188d565b34801561083157600080fd5b5061031d610840366004614e20565b61199c565b34801561085157600080fd5b5061051461264881565b34801561086757600080fd5b50610514610876366004614e07565b611a25565b34801561088757600080fd5b5061031d61089636600461507b565b611ade565b3480156108a757600080fd5b5060cb546108bc90600160c01b900460ff1681565b60405160ff909116815260200161034c565b3480156108da57600080fd5b5061031d6108e9366004614e07565b611bfe565b34801561031d57600080fd5b34801561090657600080fd5b5060655461033f906001600160a01b031681565b34801561092657600080fd5b5061031d610935366004614d38565b611c07565b34801561094657600080fd5b50610514610955366004614e07565b611c5a565b34801561096657600080fd5b50610514611cb2565b34801561097b57600080fd5b5061051461271081565b34801561099157600080fd5b50610514611ce3565b3480156109a657600080fd5b5061031d6109b5366004615115565b611dc7565b3480156109c657600080fd5b5061031d6109d5366004614e07565b611e35565b61031d6109e8366004614bd4565b611e43565b3480156109f957600080fd5b50610514612059565b348015610a0e57600080fd5b5061031d610a1d366004615183565b61208b565b348015610a2e57600080fd5b5061031d610a3d366004614e07565b61213d565b348015610a4e57600080fd5b5061031d610a5d366004614e20565b612146565b348015610a6e57600080fd5b506105146121a0565b348015610a8357600080fd5b5061031d610a92366004614e07565b6122ba565b348015610aa357600080fd5b5061031d610ab2366004614d38565b6122c7565b348015610ac357600080fd5b50610387610ad23660046151bf565b61233d565b348015610ae357600080fd5b50610514610af2366004614e07565b6123d0565b348015610b0357600080fd5b5060cb5461033f906001600160a01b031681565b348015610b2357600080fd5b50610514610b32366004614e07565b612422565b6065546001600160a01b03163314610ba25760405162461bcd60e51b815260206004820152602360248201527f4261736553747261746567793a3a496e76616c6964456e64706f696e7443616c6044820152623632b960e91b60648201526084015b60405180910390fd5b610c188686868080601f01602080910402602001604051908101604052809392919081815260200183838082843760009201919091525050604080516020601f8901819004810282018101909252878152899350915087908790819084018382808284376000920191909152506124ca92505050565b505050505050565b610c28612543565b6065546040516307e0db1760e01b815261ffff831660048201526001600160a01b03909116906307e0db17906024015b600060405180830381600087803b158015610c7257600080fd5b505af1158015610c86573d6000803e3d6000fd5b5050505050565b610c95612543565b61ffff909116600090815260686020526040902055565b610cb4612543565b6065546040516310ddb13760e01b815261ffff831660048201526001600160a01b03909116906310ddb13790602401610c58565b610cf06125a2565b610d7233826001600160a01b03166370a08231306040518263ffffffff1660e01b8152600401610d209190614c67565b602060405180830381865afa158015610d3d573d6000803e3d6000fd5b505050506040513d601f19601f82011682018060405250810190610d61919061520c565b6001600160a01b03841691906125fb565b50565b600054610100900460ff1615808015610d955750600054600160ff909116105b80610db65750610da430612651565b158015610db6575060005460ff166001145b610e195760405162461bcd60e51b815260206004820152602e60248201527f496e697469616c697a61626c653a20636f6e747261637420697320616c72656160448201526d191e481a5b9a5d1a585b1a5e995960921b6064820152608401610b99565b6000805460ff191660011790558015610e3c576000805461ff0019166101001790555b610e4f8989898989898989612648612660565b60ca54610e7c906001600160a01b03167368b3465833fb72a70ecdf485e0e4c7bd8665fc4560001961283f565b60ca54610ea3906001600160a01b0316600080516020615e5583398151915260001961283f565b610ecc600080516020615eb5833981519152600080516020615e5583398151915260001961283f565b610efb73d17cb0f162f133e339c0bbfc18c36c357e681d6b600080516020615e7583398151915260001961283f565b610f2a73d17cb0f162f133e339c0bbfc18c36c357e681d6b600080516020615e5583398151915260001961283f565b610f5f738f3cf7ad23cd3cadbd9735aff958023239c6a06373195f7b233947d51f4c3b756ad41a5ddb34cebce060001961283f565b610f88600080516020615e95833981519152600080516020615e5583398151915260001961283f565b8015610fce576000805461ff0019169055604051600181527f7f26b83ff96e1f2b6a682f133852f6798a09c465da95921460cefb38474024989060200160405180910390a15b505050505050505050565b610fe16125a2565b60c9546040516001600160a01b03909116904780156108fc02916000818181858888f19350505050158015610d72573d6000803e3d6000fd5b6110226125a2565b61102b81612943565b604051818152600080516020615ed5833981519152906020015b60405180910390a150565b61ffff83166000908152606660205260408120805482919061107190615225565b80601f016020809104026020016040519081016040528092919081815260200182805461109d90615225565b80156110ea5780601f106110bf576101008083540402835291602001916110ea565b820191906000526020600020905b8154815290600101906020018083116110cd57829003601f168201915b50505050509050838360405161110192919061525f565b60405180910390208180519060200120149150505b9392505050565b60006111a582600080516020615eb58339815191526001600160a01b031663313ce5676040518163ffffffff1660e01b8152600401602060405180830381865afa15801561116f573d6000803e3d6000fd5b505050506040513d601f19601f82011682018060405250810190611193919061526f565b60cb54600160c01b900460ff16613060565b92915050565b6111b3612543565b6065546040516342d65a8d60e01b81526001600160a01b03909116906342d65a8d906111e7908690869086906004016152bb565b600060405180830381600087803b15801561120157600080fd5b505af1158015611215573d6000803e3d6000fd5b50505050505050565b6112266125a2565b60cd805460ff1916911515919091179055565b6112416125a2565b61124a816130b5565b60cd546000908190819060ff16156112f65784156112aa5760405162461bcd60e51b815260206004820152601e60248201527f4261736553747261746567793a3a44656274526174696f4e6f745a65726f00006044820152606401610b99565b60006112b461313b565b9050878110156112cf576112c881896152ef565b92506112e4565b878111156112e4576112e188826152ef565b93505b6112ee83896152ef565b915050611308565b611300888861317d565b919450925090505b60006113148285615302565b9050600080888310156113365761132b838a6152ef565b915060009050611347565b6000915061134489846152ef565b90505b6000604051806101600160405280306001600160a01b031681526020014281526020018881526020018781526020018681526020018481526020018381526020018b8152602001836113976121a0565b6113a191906152ef565b815260200160d060008154809291906113b990615315565b909155508152602001899052905081156114195760cb5460405161141491849161ffff600160a01b830416916001600160a01b031690611400906002908790602001615366565b604051602081830303815290604052613274565b611444565b611444600282604051602001611430929190615366565b604051602081830303815290604052613362565b7fb983e09c034e9c52b5e547cb0589967992b97717733f580cc5ad0afcdc4b522b8160400151826060015183608001518460a001518560c001518660e001518761010001516040516114c79796959493929190968752602087019590955260408601939093526060850191909152608084015260a083015260c082015260e00190565b60405180910390a1505050505050505050505050565b610d72816134e2565b60006114f061313b565b905090565b60d05460cb546040513060601b6001600160601b03191660208201526034810192909252600160b01b900460f01b6001600160f01b031916605482015260009060560160405160208183030381529060405280519060200120905090565b3330146115b15760405162461bcd60e51b815260206004820152602660248201527f4e6f6e626c6f636b696e674c7a4170703a2063616c6c6572206d7573742062656044820152650204c7a4170760d41b6064820152608401610b99565b610c188686868080601f01602080910402602001604051908101604052809392919081815260200183838082843760009201919091525050604080516020601f89018190048102820181019092528781528993509150879087908190840183828082843760009201919091525061367b92505050565b61162f612543565b6116396000613791565b565b6066602052600090815260409020805461165490615225565b80601f016020809104026020016040519081016040528092919081815260200182805461168090615225565b80156116cd5780601f106116a2576101008083540402835291602001916116cd565b820191906000526020600020905b8154815290600101906020018083116116b057829003601f168201915b505050505081565b610d72816137e3565b6033546001600160a01b031690565b6040516370a0823160e01b8152600090600080516020615e75833981519152906370a0823190611721903090600401614c67565b602060405180830381865afa15801561173e573d6000803e3d6000fd5b505050506040513d601f19601f820116820180604052508101906114f0919061520c565b6040516328bd9fc160e11b8152600090819073f68c20d6c50706f6c6bd8ee184382518c93b368c9063517b3f82906117ae90600080516020615e95833981519152908790600401615411565b602060405180830381865afa1580156117cb573d6000803e3d6000fd5b505050506040513d601f19601f820116820180604052508101906117ef919061520c565b90506111168161111d565b6118026125a2565b60ca546040516370a0823160e01b8152611639916001916001600160a01b03909116906370a0823190611839903090600401614c67565b602060405180830381865afa158015611856573d6000803e3d6000fd5b505050506040513d601f19601f8201168201806040525081019061187a919061520c565b60ca546001600160a01b031691906125fb565b61ffff81166000908152606660205260408120805460609291906118b090615225565b80601f01602080910402602001604051908101604052809291908181526020018280546118dc90615225565b80156119295780601f106118fe57610100808354040283529160200191611929565b820191906000526020600020905b81548152906001019060200180831161190c57829003601f168201915b5050505050905080516000036119815760405162461bcd60e51b815260206004820152601d60248201527f4c7a4170703a206e6f20747275737465642070617468207265636f72640000006044820152606401610b99565b61111660006014835161199491906152ef565b839190613ad7565b6119a4612543565b8181306040516020016119b99392919061542a565b60408051601f1981840301815291815261ffff85166000908152606660205220906119e490826154a6565b507f8c0400cfe2d1199b1a725c78960bcc2a344d869b80590d0f2bd005db15a572ce838383604051611a18939291906152bb565b60405180910390a1505050565b60ca546040516310e1b98f60e21b815260009182918291600080516020615e5583398151915291634386e63c91611a7f916001600160a01b0390911690600080516020615eb5833981519152906001908a9060040161555f565b6040805180830381865afa158015611a9b573d6000803e3d6000fd5b505050506040513d601f19601f82011682018060405250810190611abf919061558a565b91509150611acc8161111d565b611ad69083615302565b949350505050565b60ce546001600160a01b0316331480611b06575060cd5461010090046001600160a01b031633145b611b515760405162461bcd60e51b815260206004820152601c60248201527b53674272696467653a3a526f757465724f724272696467654f6e6c7960201b6044820152606401610b99565b60cb546000906001600160a01b03163314611ba357611b738660006014613ad7565b604051602001611b8391906155ae565b604051602081830303815290604052611b9b906155ca565b60601c611bb0565b60cb546001600160a01b03165b9050836001600160a01b03167f92073a89a07a000083eb8b2575fc15e7bb936efe55d00727d6942a796d7211a78483604051611bed929190615601565b60405180910390a250505050505050565b610d7281613be4565b611c0f612543565b606980546001600160a01b0319166001600160a01b0383161790556040517f5db758e995a17ec1ad84bdef7e8c3293a0bd6179bcce400dff5d4c3d87db726b90611045908390614c67565b60006111a582738f3cf7ad23cd3cadbd9735aff958023239c6a0636001600160a01b031663313ce5676040518163ffffffff1660e01b8152600401602060405180830381865afa15801561116f573d6000803e3d6000fd5b60ca546040516370a0823160e01b81526000916001600160a01b0316906370a0823190611721903090600401614c67565b600080600073d17cb0f162f133e339c0bbfc18c36c357e681d6b6001600160a01b0316630902f1ac6040518163ffffffff1660e01b8152600401606060405180830381865afa158015611d3a573d6000803e3d6000fd5b505050506040513d601f19601f82011682018060405250810190611d5e9190615618565b5060ca549193509150600090611d8e908390600080516020615eb5833981519152906001600160a01b0316613cc9565b60cb549091508190611dab90600160c01b900460ff16600a61572a565b611db59085615739565b611dbf9190615750565b935050505090565b611dcf612543565b6065546040516332fb62e760e21b81526001600160a01b039091169063cbed8b9c90611e079088908890889088908890600401615772565b600060405180830381600087803b158015611e2157600080fd5b505af1158015610fce573d6000803e3d6000fd5b611e3e81613dab565b505050565b61ffff86166000908152609760205260408082209051611e66908890889061525f565b90815260408051602092819003830190206001600160401b03871660009081529252902054905080611ee65760405162461bcd60e51b815260206004820152602360248201527f4e6f6e626c6f636b696e674c7a4170703a206e6f2073746f726564206d65737360448201526261676560e81b6064820152608401610b99565b808383604051611ef792919061525f565b604051809103902014611f565760405162461bcd60e51b815260206004820152602160248201527f4e6f6e626c6f636b696e674c7a4170703a20696e76616c6964207061796c6f616044820152601960fa1b6064820152608401610b99565b61ffff87166000908152609760205260408082209051611f79908990899061525f565b90815260408051602092819003830181206001600160401b038916600090815290845282902093909355601f88018290048202830182019052868252612011918991899089908190840183828082843760009201919091525050604080516020601f8a018190048102820181019092528881528a93509150889088908190840183828082843760009201919091525061367b92505050565b7fc264d91f3adc5588250e1551f547752ca0cfa8f6b530d243b9f9f4cab10ea8e587878787856040516120489594939291906157a0565b60405180910390a150505050505050565b6040516246613160e11b8152600090600080516020615e7583398151915290628cc26290611721903090600401614c67565b612093612543565b600081116120db5760405162461bcd60e51b81526020600482015260156024820152744c7a4170703a20696e76616c6964206d696e47617360581b6044820152606401610b99565b61ffff83811660008181526067602090815260408083209487168084529482529182902085905581519283528201929092529081018290527f9d5c7c0b934da8fefa9c7760c98383778a12dfbfc0c3b3106518f43fb9508ac090606001611a18565b610d7281613ee0565b61214e612543565b61ffff8316600090815260666020526040902061216c8284836157db565b507ffa41487ad5d6728f0b19276fa1eddc16558578f5109fc39d2dc33c3230470dab838383604051611a18939291906152bb565b60006121ad6108766116ed565b6040516370a0823160e01b815261223590600080516020615e95833981519152906370a08231906121e2903090600401614c67565b602060405180830381865afa1580156121ff573d6000803e3d6000fd5b505050506040513d601f19601f82011682018060405250810190612223919061520c565b61222b612059565b6107eb9190615302565b60ca546040516370a0823160e01b81526001600160a01b03909116906370a0823190612265903090600401614c67565b602060405180830381865afa158015612282573d6000803e3d6000fd5b505050506040513d601f19601f820116820180604052508101906122a6919061520c565b6122b09190615302565b6114f09190615302565b6122c26125a2565b60cc55565b6122cf612543565b6001600160a01b0381166123345760405162461bcd60e51b815260206004820152602660248201527f4f776e61626c653a206e6577206f776e657220697320746865207a65726f206160448201526564647265737360d01b6064820152608401610b99565b610d7281613791565b606554604051633d7b2f6f60e21b815261ffff808716600483015285166024820152306044820152606481018390526060916001600160a01b03169063f5ecbdbc90608401600060405180830381865afa15801561239f573d6000803e3d6000fd5b505050506040513d6000823e601f3d908101601f191682016040526123c79190810190615894565b95945050505050565b6040517b0ca2ba3432b932bab69029b4b3b732b21026b2b9b9b0b3b29d05199960211b6020820152603c8101829052600090605c01604051602081830303815290604052805190602001209050919050565b60ca546040516326283ecf60e21b81526000918291600080516020615e55833981519152916398a0fb3c9161247c916001600160a01b031690600080516020615eb583398151915290600190899060001990600401615901565b606060405180830381865afa158015612499573d6000803e3d6000fd5b505050506040513d601f19601f820116820180604052508101906124bd9190615618565b9250505061111681611a25565b60008061252d5a60966366ad5c8a60e01b898989896040516024016124f29493929190615932565b60408051601f198184030181529190526020810180516001600160e01b03166001600160e01b03199093169290921790915230929190613fbc565b9150915081610c1857610c188686868685614048565b3361254c6116de565b6001600160a01b0316146116395760405162461bcd60e51b815260206004820181905260248201527f4f776e61626c653a2063616c6c6572206973206e6f7420746865206f776e65726044820152606401610b99565b60c9546001600160a01b031633146116395760405162461bcd60e51b815260206004820152601c60248201527b10985cd954dd1c985d1959de4e8e93db9b1e54dd1c985d1959da5cdd60221b6044820152606401610b99565b611e3e8363a9059cbb60e01b848460405160240161261a929190615411565b60408051601f198184030181529190526020810180516001600160e01b03166001600160e01b0319909316929092179091526140e5565b6001600160a01b03163b151590565b600054610100900460ff166126875760405162461bcd60e51b8152600401610b9990615970565b612690896141ba565b60c980546001600160a01b03808b166001600160a01b03199283161790925560ca80548a8416908316811790915560cb8054938a1661ffff8a16600160a01b029093166001600160b01b0319909416939093179190911790915560cc8290556040805163313ce56760e01b8152905163313ce567916004808201926020929091908290030181865afa15801561272a573d6000803e3d6000fd5b505050506040513d601f19601f8201168201806040525081019061274e919061526f565b60cb8054600060d05562ffffff60b01b1916600160c01b60ff939093169290920261ffff60b01b191691909117600160b01b61ffff87160217905560cd8054610100600160a81b0319166101006001600160a01b03868116919091029190911790915560ce80546001600160a01b03191684831617905560ca5460405163095ea7b360e01b815291169063095ea7b3906127f090869060001990600401615411565b6020604051808303816000875af115801561280f573d6000803e3d6000fd5b505050506040513d601f19601f8201168201806040525081019061283391906159bb565b50505050505050505050565b8015806128b95750604051636eb1769f60e11b81523060048201526001600160a01b03838116602483015284169063dd62ed3e90604401602060405180830381865afa158015612893573d6000803e3d6000fd5b505050506040513d601f19601f820116820180604052508101906128b7919061520c565b155b6129245760405162461bcd60e51b815260206004820152603660248201527f5361666545524332303a20617070726f76652066726f6d206e6f6e2d7a65726f60448201527520746f206e6f6e2d7a65726f20616c6c6f77616e636560501b6064820152608401610b99565b611e3e8363095ea7b360e01b848460405160240161261a929190615411565b600080516020615e758339815191526001600160a01b0316633d18b9126040518163ffffffff1660e01b8152600401600060405180830381600087803b15801561298c57600080fd5b505af11580156129a0573d6000803e3d6000fd5b50506040516370a0823160e01b8152612a1f9250600080516020615e9583398151915291506370a08231906129d9903090600401614c67565b602060405180830381865afa1580156129f6573d6000803e3d6000fd5b505050506040513d601f19601f82011682018060405250810190612a1a919061520c565b6134e2565b60ca546040516370a0823160e01b81526000916001600160a01b0316906370a0823190612a50903090600401614c67565b602060405180830381865afa158015612a6d573d6000803e3d6000fd5b505050506040513d601f19601f82011682018060405250810190612a91919061520c565b905081811115612c46576000612aa783836152ef565b90506000612ab6600283615750565b90506000612b498260cb60189054906101000a900460ff16738f3cf7ad23cd3cadbd9735aff958023239c6a0636001600160a01b031663313ce5676040518163ffffffff1660e01b8152600401602060405180830381865afa158015612b20573d6000803e3d6000fd5b505050506040513d601f19601f82011682018060405250810190612b44919061526f565b613060565b6040805160808101825260ca546001600160601b0319606091821b1660a0830152601960ea1b60b4830152738f3cf7ad23cd3cadbd9735aff958023239c6a06360601b60b7830152825160ab81840301815260cb830184528252306020830152918101859052919250600091908101612bc1846141f2565b905260405163b858183f60e01b81529091507368b3465833fb72a70ecdf485e0e4c7bd8665fc459063b858183f90612bfd9084906004016159d8565b6020604051808303816000875af1158015612c1c573d6000803e3d6000fd5b505050506040513d601f19601f82011682018060405250810190612c40919061520c565b50505050505b6040516370a0823160e01b8152600090738f3cf7ad23cd3cadbd9735aff958023239c6a063906370a0823190612c80903090600401614c67565b602060405180830381865afa158015612c9d573d6000803e3d6000fd5b505050506040513d601f19601f82011682018060405250810190612cc1919061520c565b90508015612d475760405163a39fc2c560e01b815273195f7b233947d51f4c3b756ad41a5ddb34cebce09063a39fc2c590612d029084903090600401615601565b6020604051808303816000875af1158015612d21573d6000803e3d6000fd5b505050506040513d601f19601f82011682018060405250810190612d45919061520c565b505b6040516370a0823160e01b8152600090600080516020615eb5833981519152906370a0823190612d7b903090600401614c67565b602060405180830381865afa158015612d98573d6000803e3d6000fd5b505050506040513d601f19601f82011682018060405250810190612dbc919061520c565b60ca546040516370a0823160e01b81529192506001600160a01b0316906370a0823190612ded903090600401614c67565b602060405180830381865afa158015612e0a573d6000803e3d6000fd5b505050506040513d601f19601f82011682018060405250810190612e2e919061520c565b9250600081118015612e405750600083115b15612fab5760ca546040516326283ecf60e21b81526000918291600080516020615e55833981519152916398a0fb3c91612e9d916001600160a01b031690600080516020615eb5833981519152906001908b908a90600401615901565b606060405180830381865afa158015612eba573d6000803e3d6000fd5b505050506040513d601f19601f82011682018060405250810190612ede9190615618565b5060ca54604051635a47ddc360e01b81526001600160a01b039091166004820152600080516020615eb58339815191526024820152600160448201819052606482018490526084820183905260a4820181905260c48201523060e4820152426101048201529193509150600080516020615e5583398151915290635a47ddc390610124016060604051808303816000875af1158015612f81573d6000803e3d6000fd5b505050506040513d601f19601f82011682018060405250810190612fa59190615618565b50505050505b6040516370a0823160e01b815260009073d17cb0f162f133e339c0bbfc18c36c357e681d6b906370a0823190612fe5903090600401614c67565b602060405180830381865afa158015613002573d6000803e3d6000fd5b505050506040513d601f19601f82011682018060405250810190613026919061520c565b90508015610c865760405163b6b55f2560e01b815260048101829052600080516020615e758339815191529063b6b55f2590602401611e07565b60008260ff168260ff1611156130965761307a8383615a26565b61308590600a61572a565b61308f9085615739565b9050611116565b6130a08284615a26565b6130ab90600a61572a565b61308f9085615750565b60006130bf6114f5565b905060006130cc826123d0565b60c9549091506001600160a01b03166130e5828561420f565b6001600160a01b031614611e3e5760405162461bcd60e51b815260206004820152601e60248201527f4261736553747261746567793a3a496e76616c69645369676e617475726500006044820152606401610b99565b600061314d6131486116ed565b6137e3565b60ca546040516370a0823160e01b81526001600160a01b03909116906370a0823190611721903090600401614c67565b60008060008061318b6121a0565b90508581106131a95761319e86826152ef565b9350600092506131ba565b600093506131b781876152ef565b92505b6131cc6131c78587615302565b613dab565b505060ca546040516370a0823160e01b81526000916001600160a01b0316906370a08231906131ff903090600401614c67565b602060405180830381865afa15801561321c573d6000803e3d6000fd5b505050506040513d601f19601f82011682018060405250810190613240919061520c565b9050848111613255578094506000925061326b565b61326861326286836152ef565b87614233565b92505b50509250925092565b60cd54604051630dc6346160e01b815260009161010090046001600160a01b031690630dc63461906132ae90879087908790600401615a3f565b602060405180830381865afa1580156132cb573d6000803e3d6000fd5b505050506040513d601f19601f820116820180604052508101906132ef919061520c565b60cd5460ca54604051633920455b60e11b81529293506001600160a01b036101009092048216926372408ab6928592613335929116908a908a908a908a90600401615a6d565b6000604051808303818588803b15801561334e57600080fd5b505af1158015612833573d6000803e3d6000fd5b60cb5460408051606083811b6001600160601b03199081166020840152309182901b16603483015282516028818403018152604890920190925260655490926000926001600160a01b03909216916340a7bb109161ffff600160a01b909104169086856133cd614249565b6040518663ffffffff1660e01b81526004016133ed959493929190615aaa565b6040805180830381865afa158015613409573d6000803e3d6000fd5b505050506040513d601f19601f8201168201806040525081019061342d919061558a565b509050804710156134595760405162fae2d560e21b815260048101829052476024820152604401610b99565b60655460cb546001600160a01b039091169063c5803100908390600160a01b900461ffff168587308061348a614249565b6040518863ffffffff1660e01b81526004016134ab96959493929190615afe565b6000604051808303818588803b1580156134c457600080fd5b505af11580156134d8573d6000803e3d6000fd5b5050505050505050565b806000036134ed5750565b60408051600280825260608201909252600091816020015b604080516060810182526000808252602080830182905292820152825260001990920191018161350557505060408051606081018252600080516020615e958339815191528152600080516020615eb58339815191526020820152600091810182905282519293509183919061357d5761357d615b65565b60209081029190910181019190915260408051606081018252600080516020615eb5833981519152815260ca546001600160a01b0316928101929092526001908201819052825183919081106135d5576135d5615b65565b602002602001018190525060006135eb83611762565b9050600080516020615e5583398151915263f41766d88461360b846141f2565b8530426040518663ffffffff1660e01b815260040161362e959493929190615b7b565b6000604051808303816000875af115801561364d573d6000803e3d6000fd5b505050506040513d6000823e601f3d908101601f191682016040526136759190810190615c0a565b50505050565b60cb5461ffff858116600160a01b90920416146136e55760405162461bcd60e51b815260206004820152602260248201527f4261736553747261746567793a3a5661756c74436861696e49644d69736d61746044820152610c6d60f31b6064820152608401610b99565b60006136f384826014613ad7565b60405160200161370391906155ae565b60405160208183030381529060405261371b906155ca565b60cb5460609190911c91506001600160a01b031681146137885760405162461bcd60e51b815260206004820152602260248201527f4261736553747261746567793a3a5661756c74416464726573734d69736d61746044820152610c6d60f31b6064820152608401610b99565b610c8682614279565b603380546001600160a01b038381166001600160a01b0319831681179093556040519116919082907f8be0079c531659141344cd1fd0a4f28419497f9722a3daafe3b4186f6b6457e090600090a35050565b600080516020615e758339815191526001600160a01b0316633d18b9126040518163ffffffff1660e01b8152600401600060405180830381600087803b15801561382c57600080fd5b505af1158015613840573d6000803e3d6000fd5b50506040516370a0823160e01b81526138799250600080516020615e9583398151915291506370a08231906129d9903090600401614c67565b806000036138845750565b604051632e1a7d4d60e01b815260048101829052600080516020615e7583398151915290632e1a7d4d90602401600060405180830381600087803b1580156138cb57600080fd5b505af11580156138df573d6000803e3d6000fd5b505060ca546040516310e1b98f60e21b815260009350839250600080516020615e5583398151915291634386e63c91613939916001600160a01b031690600080516020615eb583398151915290600190899060040161555f565b6040805180830381865afa158015613955573d6000803e3d6000fd5b505050506040513d601f19601f82011682018060405250810190613979919061558a565b60ca549193509150600080516020615e5583398151915290630dede6c4906001600160a01b0316600080516020615eb58339815191526001876139bb886141f2565b6139c4886141f2565b6040516001600160e01b031960e089901b1681526001600160a01b03968716600482015295909416602486015291151560448501526064840152608483015260a48201523060c48201524260e48201526101040160408051808303816000875af1158015613a36573d6000803e3d6000fd5b505050506040513d601f19601f82011682018060405250810190613a5a919061558a565b50506040516370a0823160e01b8152611e3e90600080516020615eb5833981519152906370a0823190613a91903090600401614c67565b602060405180830381865afa158015613aae573d6000803e3d6000fd5b505050506040513d601f19601f82011682018060405250810190613ad2919061520c565b613ee0565b606081613ae581601f615302565b1015613b245760405162461bcd60e51b815260206004820152600e60248201526d736c6963655f6f766572666c6f7760901b6044820152606401610b99565b613b2e8284615302565b84511015613b725760405162461bcd60e51b8152602060048201526011602482015270736c6963655f6f75744f66426f756e647360781b6044820152606401610b99565b606082158015613b915760405191506000825260208201604052613bdb565b6040519150601f8416801560200281840101858101878315602002848b0101015b81831015613bca578051835260209283019201613bb2565b5050858452601f01601f1916604052505b50949350505050565b80600003613bef5750565b6000613bfc6107eb612059565b9050818110613c9f57600080516020615e758339815191526001600160a01b0316633d18b9126040518163ffffffff1660e01b8152600401600060405180830381600087803b158015613c4e57600080fd5b505af1158015613c62573d6000803e3d6000fd5b50506040516370a0823160e01b8152613c9b9250600080516020615e9583398151915291506370a08231906129d9903090600401614c67565b5050565b6000613cbe613cb1610b3284866152ef565b613cb96116ed565b614233565b9050611e3e816137e3565b600080836001600160a01b031663313ce5676040518163ffffffff1660e01b8152600401602060405180830381865afa158015613d0a573d6000803e3d6000fd5b505050506040513d601f19601f82011682018060405250810190613d2e919061526f565b90506000836001600160a01b031663313ce5676040518163ffffffff1660e01b8152600401602060405180830381865afa158015613d70573d6000803e3d6000fd5b505050506040513d601f19601f82011682018060405250810190613d94919061526f565b9050613da1868383613060565b9695505050505050565b60ca546040516370a0823160e01b8152600091829182916001600160a01b0316906370a0823190613de0903090600401614c67565b602060405180830381865afa158015613dfd573d6000803e3d6000fd5b505050506040513d601f19601f82011682018060405250810190613e21919061520c565b9050838110613e3557509192600092509050565b613e47613e4282866152ef565b613be4565b60ca546040516370a0823160e01b81526001600160a01b03909116906370a0823190613e77903090600401614c67565b602060405180830381865afa158015613e94573d6000803e3d6000fd5b505050506040513d601f19601f82011682018060405250810190613eb8919061520c565b905080841115613ed657915081613ecf81856152ef565b9150613eda565b8392505b50915091565b80600003613eeb5750565b6000613ef68261111d565b9050600080516020615e558339815191526313dcfc5983613f16846141f2565b60ca5460405160e085901b6001600160e01b031916815260048101939093526024830191909152600080516020615eb583398151915260448301526001600160a01b03166064820152600160848201523060a48201524260c482015260e4016000604051808303816000875af1158015613f94573d6000803e3d6000fd5b505050506040513d6000823e601f3d908101601f19168201604052611e3e9190810190615c0a565b6000606060008060008661ffff166001600160401b03811115613fe157613fe1614e9d565b6040519080825280601f01601f19166020018201604052801561400b576020820181803683370190505b50905060008087516020890160008d8df191503d92508683111561402d578692505b828152826000602083013e9093509150505b94509492505050565b8180519060200120609760008761ffff1661ffff1681526020019081526020016000208560405161407991906155ae565b9081526040805191829003602090810183206001600160401b0388166000908152915220919091557fe183f33de2837795525b4792ca4cd60535bd77c53b7e7030060bfcf5734d6b0c906140d69087908790879087908790615ca3565b60405180910390a15050505050565b600061413a826040518060400160405280602081526020017f5361666545524332303a206c6f772d6c6576656c2063616c6c206661696c6564815250856001600160a01b031661439a9092919063ffffffff16565b905080516000148061415b57508080602001905181019061415b91906159bb565b611e3e5760405162461bcd60e51b815260206004820152602a60248201527f5361666545524332303a204552433230206f7065726174696f6e20646964206e6044820152691bdd081cdd58d8d9595960b21b6064820152608401610b99565b600054610100900460ff166141e15760405162461bcd60e51b8152600401610b9990615970565b6141e96143a9565b610d72816143d9565b600061271060cc54836142059190615739565b6111a59190615750565b600080600061421e8585614422565b9150915061422b81614467565b509392505050565b60008183106142425781611116565b5090919050565b60408051600160f01b6020820152620f424060228083019190915282518083039091018152604290910190915290565b60008180602001905181019061428f9190615cf5565b905060038160048111156142a5576142a561532e565b036142f0576000828060200190518101906142c09190615d16565b9150506142d08160000151612943565b8051604051908152600080516020615ed583398151915290602001611a18565b60008160048111156143045761430461532e565b0361432b5760008280602001905181019061431f9190615d59565b915050611e3e816145ac565b600481600481111561433f5761433f61532e565b03613c9b5760008280602001905181019061435a9190615dc4565b91505061436a81600001516146d6565b80516040517f7c9a2d2ec51230d7dbed27f113a325b7e20aef7b049e68b2339257b5edff5bea91611a1891614c67565b6060611ad68484600085614715565b600054610100900460ff166143d05760405162461bcd60e51b8152600401610b9990615970565b61163933613791565b600054610100900460ff166144005760405162461bcd60e51b8152600401610b9990615970565b606580546001600160a01b0319166001600160a01b0392909216919091179055565b60008082516041036144585760208301516040840151606085015160001a61444c878285856147f0565b94509450505050614460565b506000905060025b9250929050565b600081600481111561447b5761447b61532e565b036144835750565b60018160048111156144975761449761532e565b036144df5760405162461bcd60e51b815260206004820152601860248201527745434453413a20696e76616c6964207369676e617475726560401b6044820152606401610b99565b60028160048111156144f3576144f361532e565b036145405760405162461bcd60e51b815260206004820152601f60248201527f45434453413a20696e76616c6964207369676e6174757265206c656e677468006044820152606401610b99565b60038160048111156145545761455461532e565b03610d725760405162461bcd60e51b815260206004820152602260248201527f45434453413a20696e76616c6964207369676e6174757265202773272076616c604482015261756560f01b6064820152608401610b99565b602080820151600090815260cf909152604090205460ff16156146115760405162461bcd60e51b815260206004820152601e60248201527f4261736553747261746567793a3a416c726561647957697468647261776e00006044820152606401610b99565b6000806146218360000151613dab565b91509150600060016040518060800160405280306001600160a01b031681526020018581526020018481526020018660200151815250604051602001614668929190615e12565b60408051601f19818403018152919052905082156146a95760cb546146a490849061ffff600160a01b820416906001600160a01b031684613274565b6146b2565b6146b281613362565b505050602090810151600090815260cf90915260409020805460ff19166001179055565b6146df816148a7565b60ca546040516370a0823160e01b8152610d729183916001600160a01b03909116906370a0823190611839903090600401614c67565b6060824710156147765760405162461bcd60e51b815260206004820152602660248201527f416464726573733a20696e73756666696369656e742062616c616e636520666f6044820152651c8818d85b1b60d21b6064820152608401610b99565b600080866001600160a01b0316858760405161479291906155ae565b60006040518083038185875af1925050503d80600081146147cf576040519150601f19603f3d011682016040523d82523d6000602084013e6147d4565b606091505b50915091506147e587838387614ac9565b979650505050505050565b6000806fa2a8918ca85bafe22016d0b997e4df60600160ff1b0383111561481d575060009050600361403f565b6040805160008082526020820180845289905260ff881692820192909252606081018690526080810185905260019060a0016020604051602081039080840390855afa158015614871573d6000803e3d6000fd5b5050604051601f1901519150506001600160a01b03811661489a5760006001925092505061403f565b9660009650945050505050565b600080516020615e75833981519152632e1a7d4d6148c36116ed565b6040518263ffffffff1660e01b81526004016148e191815260200190565b600060405180830381600087803b1580156148fb57600080fd5b505af115801561490f573d6000803e3d6000fd5b50506040516370a0823160e01b81526149ad925083915073d17cb0f162f133e339c0bbfc18c36c357e681d6b906370a0823190614950903090600401614c67565b602060405180830381865afa15801561496d573d6000803e3d6000fd5b505050506040513d601f19601f82011682018060405250810190614991919061520c565b73d17cb0f162f133e339c0bbfc18c36c357e681d6b91906125fb565b6040516370a0823160e01b8152614a3b908290600080516020615eb5833981519152906370a08231906149e4903090600401614c67565b602060405180830381865afa158015614a01573d6000803e3d6000fd5b505050506040513d601f19601f82011682018060405250810190614a25919061520c565b600080516020615eb583398151915291906125fb565b6040516370a0823160e01b8152610d72908290600080516020615e95833981519152906370a0823190614a72903090600401614c67565b602060405180830381865afa158015614a8f573d6000803e3d6000fd5b505050506040513d601f19601f82011682018060405250810190614ab3919061520c565b600080516020615e9583398151915291906125fb565b60608315614b36578251600003614b2f57614ae385612651565b614b2f5760405162461bcd60e51b815260206004820152601d60248201527f416464726573733a2063616c6c20746f206e6f6e2d636f6e74726163740000006044820152606401610b99565b5081611ad6565b611ad68383815115614b4b5781518083602001fd5b8060405162461bcd60e51b8152600401610b999190614ccb565b803561ffff81168114614b7757600080fd5b919050565b60008083601f840112614b8e57600080fd5b5081356001600160401b03811115614ba557600080fd5b60208301915083602082850101111561446057600080fd5b80356001600160401b0381168114614b7757600080fd5b60008060008060008060808789031215614bed57600080fd5b614bf687614b65565b955060208701356001600160401b0380821115614c1257600080fd5b614c1e8a838b01614b7c565b9097509550859150614c3260408a01614bbd565b94506060890135915080821115614c4857600080fd5b50614c5589828a01614b7c565b979a9699509497509295939492505050565b6001600160a01b0391909116815260200190565b60005b83811015614c96578181015183820152602001614c7e565b50506000910152565b60008151808452614cb7816020860160208601614c7b565b601f01601f19169290920160200192915050565b6020815260006111166020830184614c9f565b600060208284031215614cf057600080fd5b61111682614b65565b60008060408385031215614d0c57600080fd5b614d1583614b65565b946020939093013593505050565b6001600160a01b0381168114610d7257600080fd5b600060208284031215614d4a57600080fd5b813561111681614d23565b600080600080600080600080610100898b031215614d7257600080fd5b8835614d7d81614d23565b97506020890135614d8d81614d23565b96506040890135614d9d81614d23565b95506060890135614dad81614d23565b9450614dbb60808a01614b65565b9350614dc960a08a01614b65565b925060c0890135614dd981614d23565b915060e0890135614de981614d23565b809150509295985092959890939650565b6001600160a01b03169052565b600060208284031215614e1957600080fd5b5035919050565b600080600060408486031215614e3557600080fd5b614e3e84614b65565b925060208401356001600160401b03811115614e5957600080fd5b614e6586828701614b7c565b9497909650939450505050565b8015158114610d7257600080fd5b600060208284031215614e9257600080fd5b813561111681614e72565b634e487b7160e01b600052604160045260246000fd5b604051602081016001600160401b0381118282101715614ed557614ed5614e9d565b60405290565b604051601f8201601f191681016001600160401b0381118282101715614f0357614f03614e9d565b604052919050565b60006001600160401b03821115614f2457614f24614e9d565b50601f01601f191660200190565b600082601f830112614f4357600080fd5b8135614f56614f5182614f0b565b614edb565b818152846020838601011115614f6b57600080fd5b816020850160208301376000918101602001919091529392505050565b600080600080600060a08688031215614fa057600080fd5b8535945060208601359350604086013592506060860135915060808601356001600160401b03811115614fd257600080fd5b614fde88828901614f32565b9150509295509295909350565b60008060006060848603121561500057600080fd5b61500984614b65565b925060208401356001600160401b0381111561502457600080fd5b61503086828701614f32565b92505061503f60408501614bbd565b90509250925092565b6000806040838503121561505b57600080fd5b61506483614b65565b915061507260208401614b65565b90509250929050565b60008060008060008060c0878903121561509457600080fd5b61509d87614b65565b955060208701356001600160401b03808211156150b957600080fd5b6150c58a838b01614f32565b965060408901359550606089013591506150de82614d23565b9093506080880135925060a088013590808211156150fb57600080fd5b5061510889828a01614f32565b9150509295509295509295565b60008060008060006080868803121561512d57600080fd5b61513686614b65565b945061514460208701614b65565b93506040860135925060608601356001600160401b0381111561516657600080fd5b61517288828901614b7c565b969995985093965092949392505050565b60008060006060848603121561519857600080fd5b6151a184614b65565b92506151af60208501614b65565b9150604084013590509250925092565b600080600080608085870312156151d557600080fd5b6151de85614b65565b93506151ec60208601614b65565b925060408501356151fc81614d23565b9396929550929360600135925050565b60006020828403121561521e57600080fd5b5051919050565b600181811c9082168061523957607f821691505b60208210810361525957634e487b7160e01b600052602260045260246000fd5b50919050565b8183823760009101908152919050565b60006020828403121561528157600080fd5b815160ff8116811461111657600080fd5b81835281816020850137506000828201602090810191909152601f909101601f19169091010190565b61ffff841681526040602082015260006123c7604083018486615292565b634e487b7160e01b600052601160045260246000fd5b818103818111156111a5576111a56152d9565b808201808211156111a5576111a56152d9565b600060018201615327576153276152d9565b5060010190565b634e487b7160e01b600052602160045260246000fd5b6005811061536257634e487b7160e01b600052602160045260246000fd5b9052565b6153708184615344565b60406020820152615385604082018351614dfa565b6020820151606082015260408201516080820152606082015160a0820152608082015160c082015260a082015160e0820152600060c0830151610100818185015260e085015191506101208281860152818601519250610140915082828601528086015192505061016082818601528186015192508061018086015250506123c76101a0840182614c9f565b6001600160a01b03929092168252602082015260400190565b8284823760609190911b6001600160601b0319169101908152601401919050565b601f821115611e3e57600081815260208120601f850160051c810160208610156154725750805b601f850160051c820191505b81811015610c185782815560010161547e565b600019600383901b1c191660019190911b1790565b81516001600160401b038111156154bf576154bf614e9d565b6154d3816154cd8454615225565b8461544b565b602080601f83116001811461550257600084156154f05750858301515b6154fa8582615491565b865550610c18565b600085815260208120601f198616915b8281101561553157888601518255948401946001909101908401615512565b508582101561554f5787850151600019600388901b60f8161c191681555b5050505050600190811b01905550565b6001600160a01b03948516815292909316602083015215156040820152606081019190915260800190565b6000806040838503121561559d57600080fd5b505080516020909101519092909150565b600082516155c0818460208701614c7b565b9190910192915050565b805160208201516001600160601b031980821692919060148310156155f95780818460140360031b1b83161693505b505050919050565b9182526001600160a01b0316602082015260400190565b60008060006060848603121561562d57600080fd5b8351925060208401519150604084015190509250925092565b600181815b80851115615681578160001904821115615667576156676152d9565b8085161561567457918102915b93841c939080029061564b565b509250929050565b600082615698575060016111a5565b816156a5575060006111a5565b81600181146156bb57600281146156c5576156e1565b60019150506111a5565b60ff8411156156d6576156d66152d9565b50506001821b6111a5565b5060208310610133831016604e8410600b8410161715615704575081810a6111a5565b61570e8383615646565b8060001904821115615722576157226152d9565b029392505050565b600061111660ff841683615689565b80820281158282048414176111a5576111a56152d9565b60008261576d57634e487b7160e01b600052601260045260246000fd5b500490565b600061ffff8088168352808716602084015250846040830152608060608301526147e5608083018486615292565b61ffff861681526080602082015260006157be608083018688615292565b6001600160401b0394909416604083015250606001529392505050565b6001600160401b038311156157f2576157f2614e9d565b615806836158008354615225565b8361544b565b6000601f84116001811461583457600085156158225750838201355b61582c8682615491565b845550610c86565b600083815260209020601f19861690835b828110156158655786850135825560209485019460019092019101615845565b50868210156158825760001960f88860031b161c19848701351681555b505060018560011b0183555050505050565b6000602082840312156158a657600080fd5b81516001600160401b038111156158bc57600080fd5b8201601f810184136158cd57600080fd5b80516158db614f5182614f0b565b8181528560208385010111156158f057600080fd5b6123c7826020830160208601614c7b565b6001600160a01b03958616815293909416602084015290151560408301526060820152608081019190915260a00190565b61ffff8516815260806020820152600061594f6080830186614c9f565b6001600160401b038516604084015282810360608401526147e58185614c9f565b6020808252602b908201527f496e697469616c697a61626c653a20636f6e7472616374206973206e6f74206960408201526a6e697469616c697a696e6760a81b606082015260800190565b6000602082840312156159cd57600080fd5b815161111681614e72565b6020815260008251608060208401526159f460a0840182614c9f565b905060018060a01b03602085015116604084015260408401516060840152606084015160808401528091505092915050565b60ff82811682821603908111156111a5576111a56152d9565b61ffff841681526001600160a01b03831660208201526060604082018190526000906123c790830184614c9f565b6001600160a01b0386811682526020820186905261ffff851660408301528316606082015260a0608082018190526000906147e590830184614c9f565b61ffff861681526001600160a01b038516602082015260a060408201819052600090615ad890830186614c9f565b84151560608401528281036080840152615af28185614c9f565b98975050505050505050565b61ffff8716815260c060208201526000615b1b60c0830188614c9f565b8281036040840152615b2d8188614c9f565b6001600160a01b0387811660608601528616608085015283810360a08501529050615b588185614c9f565b9998505050505050505050565b634e487b7160e01b600052603260045260246000fd5b600060a0820187835260208781850152604060a08186015282885180855260c087019150838a01945060005b81811015615be457855180516001600160a01b03908116855286820151168685015284015115158484015294840194606090920191600101615ba7565b505080945050505050615bfa6060830185614dfa565b8260808301529695505050505050565b60006020808385031215615c1d57600080fd5b82516001600160401b0380821115615c3457600080fd5b818501915085601f830112615c4857600080fd5b815181811115615c5a57615c5a614e9d565b8060051b9150615c6b848301614edb565b8181529183018401918481019088841115615c8557600080fd5b938501935b83851015615af257845182529385019390850190615c8a565b61ffff8616815260a060208201526000615cc060a0830187614c9f565b6001600160401b03861660408401528281036060840152615ce18186614c9f565b90508281036080840152615af28185614c9f565b600060208284031215615d0757600080fd5b81516005811061111657600080fd5b6000808284036040811215615d2a57600080fd5b835192506020601f1982011215615d4057600080fd5b50615d49614eb3565b6020939093015183525092909150565b6000808284036060811215615d6d57600080fd5b835192506040601f1982011215615d8357600080fd5b50604080519081016001600160401b0381118282101715615da657615da6614e9d565b60409081526020858101518352940151938101939093525092909150565b6000808284036040811215615dd857600080fd5b835192506020601f1982011215615dee57600080fd5b50615df7614eb3565b6020840151615e0581614d23565b8152919491935090915050565b60a08101615e208285615344565b60018060a01b038351166020830152602083015160408301526040830151606083015260608301516080830152939250505056fe000000000000000000000000cc25c0fd84737f44a7d38649b69491bbf0c7f08300000000000000000000000097bd59a8202f8263c2ec39cf6cf6b438d0b458760000000000000000000000007238390d5f6f64e67c3211c343a410e2a3dec14200000000000000000000000040379a439d4f6795b6fc9aa5687db461677a2dbab0c58532a125fc3c0adccaef396bf65344a4d5781cec2e4c593e6b611d75f150a2646970667358221220bf8a134b518aa35f995be0f2959277854b977e57eace7d9a424a60e309e4c98f64736f6c63430008130033",
  "linkReferences": {},
  "deployedLinkReferences": {}
}