{
  "_format": "hh-sol-artifact-1",
  "contractName": "MockPearlStrategy",
  "sourceName": "contracts/mock/MockPearlStrategy.sol",
  "abi": [
    {
      "inputs": [
        {
          "internalType": "uint256",
          "name": "messageType",
          "type": "uint256"
        }
      ],
      "name": "IncorrectMessageType",
      "type": "error"
    },
    {
      "inputs": [
        {
          "internalType": "uint256",
          "name": "amount",
          "type": "uint256"
        },
        {
          "internalType": "uint256",
          "name": "balance",
          "type": "uint256"
        }
      ],
      "name": "InsufficientFunds",
      "type": "error"
    },
    {
      "anonymous": false,
      "inputs": [
        {
          "indexed": false,
          "internalType": "uint256",
          "name": "debtOutstanding",
          "type": "uint256"
        }
      ],
      "name": "AdjustedPosition",
      "type": "event"
    },
    {
      "anonymous": false,
      "inputs": [
        {
          "indexed": false,
          "internalType": "uint8",
          "name": "version",
          "type": "uint8"
        }
      ],
      "name": "Initialized",
      "type": "event"
    },
    {
      "anonymous": false,
      "inputs": [
        {
          "indexed": false,
          "internalType": "uint16",
          "name": "_srcChainId",
          "type": "uint16"
        },
        {
          "indexed": false,
          "internalType": "bytes",
          "name": "_srcAddress",
          "type": "bytes"
        },
        {
          "indexed": false,
          "internalType": "uint64",
          "name": "_nonce",
          "type": "uint64"
        },
        {
          "indexed": false,
          "internalType": "bytes",
          "name": "_payload",
          "type": "bytes"
        },
        {
          "indexed": false,
          "internalType": "bytes",
          "name": "_reason",
          "type": "bytes"
        }
      ],
      "name": "MessageFailed",
      "type": "event"
    },
    {
      "anonymous": false,
      "inputs": [
        {
          "indexed": true,
          "internalType": "address",
          "name": "previousOwner",
          "type": "address"
        },
        {
          "indexed": true,
          "internalType": "address",
          "name": "newOwner",
          "type": "address"
        }
      ],
      "name": "OwnershipTransferred",
      "type": "event"
    },
    {
      "anonymous": false,
      "inputs": [
        {
          "indexed": false,
          "internalType": "uint16",
          "name": "_srcChainId",
          "type": "uint16"
        },
        {
          "indexed": false,
          "internalType": "bytes",
          "name": "_srcAddress",
          "type": "bytes"
        },
        {
          "indexed": false,
          "internalType": "uint64",
          "name": "_nonce",
          "type": "uint64"
        },
        {
          "indexed": false,
          "internalType": "bytes32",
          "name": "_payloadHash",
          "type": "bytes32"
        }
      ],
      "name": "RetryMessageSuccess",
      "type": "event"
    },
    {
      "anonymous": false,
      "inputs": [
        {
          "indexed": false,
          "internalType": "uint16",
          "name": "_dstChainId",
          "type": "uint16"
        },
        {
          "indexed": false,
          "internalType": "uint16",
          "name": "_type",
          "type": "uint16"
        },
        {
          "indexed": false,
          "internalType": "uint256",
          "name": "_minDstGas",
          "type": "uint256"
        }
      ],
      "name": "SetMinDstGas",
      "type": "event"
    },
    {
      "anonymous": false,
      "inputs": [
        {
          "indexed": false,
          "internalType": "address",
          "name": "precrime",
          "type": "address"
        }
      ],
      "name": "SetPrecrime",
      "type": "event"
    },
    {
      "anonymous": false,
      "inputs": [
        {
          "indexed": false,
          "internalType": "uint16",
          "name": "_remoteChainId",
          "type": "uint16"
        },
        {
          "indexed": false,
          "internalType": "bytes",
          "name": "_path",
          "type": "bytes"
        }
      ],
      "name": "SetTrustedRemote",
      "type": "event"
    },
    {
      "anonymous": false,
      "inputs": [
        {
          "indexed": false,
          "internalType": "uint16",
          "name": "_remoteChainId",
          "type": "uint16"
        },
        {
          "indexed": false,
          "internalType": "bytes",
          "name": "_remoteAddress",
          "type": "bytes"
        }
      ],
      "name": "SetTrustedRemoteAddress",
      "type": "event"
    },
    {
      "anonymous": false,
      "inputs": [
        {
          "indexed": true,
          "internalType": "address",
          "name": "token",
          "type": "address"
        },
        {
          "indexed": false,
          "internalType": "uint256",
          "name": "amount",
          "type": "uint256"
        },
        {
          "indexed": false,
          "internalType": "address",
          "name": "sender",
          "type": "address"
        }
      ],
      "name": "SgReceived",
      "type": "event"
    },
    {
      "anonymous": false,
      "inputs": [
        {
          "indexed": false,
          "internalType": "address",
          "name": "newStrategy",
          "type": "address"
        }
      ],
      "name": "StrategyMigrated",
      "type": "event"
    },
    {
      "anonymous": false,
      "inputs": [
        {
          "indexed": false,
          "internalType": "uint256",
          "name": "profit",
          "type": "uint256"
        },
        {
          "indexed": false,
          "internalType": "uint256",
          "name": "loss",
          "type": "uint256"
        },
        {
          "indexed": false,
          "internalType": "uint256",
          "name": "debtPayment",
          "type": "uint256"
        },
        {
          "indexed": false,
          "internalType": "uint256",
          "name": "giveToStrategy",
          "type": "uint256"
        },
        {
          "indexed": false,
          "internalType": "uint256",
          "name": "requestFromStrategy",
          "type": "uint256"
        },
        {
          "indexed": false,
          "internalType": "uint256",
          "name": "creditAvailable",
          "type": "uint256"
        },
        {
          "indexed": false,
          "internalType": "uint256",
          "name": "totalAssets",
          "type": "uint256"
        }
      ],
      "name": "StrategyReported",
      "type": "event"
    },
    {
      "inputs": [],
      "name": "DEFAULT_PAYLOAD_SIZE_LIMIT",
      "outputs": [
        {
          "internalType": "uint256",
          "name": "",
          "type": "uint256"
        }
      ],
      "stateMutability": "view",
      "type": "function"
    },
    {
      "inputs": [],
      "name": "DEFAULT_SLIPPAGE",
      "outputs": [
        {
          "internalType": "uint256",
          "name": "",
          "type": "uint256"
        }
      ],
      "stateMutability": "view",
      "type": "function"
    },
    {
      "inputs": [
        {
          "internalType": "uint256",
          "name": "_debtOutstanding",
          "type": "uint256"
        }
      ],
      "name": "adjustPosition",
      "outputs": [],
      "stateMutability": "nonpayable",
      "type": "function"
    },
    {
      "inputs": [],
      "name": "balanceOfLpStaked",
      "outputs": [
        {
          "internalType": "uint256",
          "name": "",
          "type": "uint256"
        }
      ],
      "stateMutability": "view",
      "type": "function"
    },
    {
      "inputs": [],
      "name": "balanceOfPearlRewards",
      "outputs": [
        {
          "internalType": "uint256",
          "name": "",
          "type": "uint256"
        }
      ],
      "stateMutability": "view",
      "type": "function"
    },
    {
      "inputs": [],
      "name": "balanceOfWant",
      "outputs": [
        {
          "internalType": "uint256",
          "name": "",
          "type": "uint256"
        }
      ],
      "stateMutability": "view",
      "type": "function"
    },
    {
      "inputs": [
        {
          "internalType": "uint256",
          "name": "epoch",
          "type": "uint256"
        }
      ],
      "name": "callMe",
      "outputs": [],
      "stateMutability": "nonpayable",
      "type": "function"
    },
    {
      "inputs": [],
      "name": "clearWant",
      "outputs": [],
      "stateMutability": "nonpayable",
      "type": "function"
    },
    {
      "inputs": [],
      "name": "currentChainId",
      "outputs": [
        {
          "internalType": "uint16",
          "name": "",
          "type": "uint16"
        }
      ],
      "stateMutability": "view",
      "type": "function"
    },
    {
      "inputs": [
        {
          "internalType": "uint256",
          "name": "_daiAmount",
          "type": "uint256"
        }
      ],
      "name": "daiToWant",
      "outputs": [
        {
          "internalType": "uint256",
          "name": "",
          "type": "uint256"
        }
      ],
      "stateMutability": "view",
      "type": "function"
    },
    {
      "inputs": [],
      "name": "emergencyExit",
      "outputs": [
        {
          "internalType": "bool",
          "name": "",
          "type": "bool"
        }
      ],
      "stateMutability": "view",
      "type": "function"
    },
    {
      "inputs": [],
      "name": "estimatedTotalAssets",
      "outputs": [
        {
          "internalType": "uint256",
          "name": "",
          "type": "uint256"
        }
      ],
      "stateMutability": "view",
      "type": "function"
    },
    {
      "inputs": [
        {
          "internalType": "uint256",
          "name": "_stakedLpTokens",
          "type": "uint256"
        }
      ],
      "name": "exitPosition",
      "outputs": [],
      "stateMutability": "nonpayable",
      "type": "function"
    },
    {
      "inputs": [
        {
          "internalType": "uint16",
          "name": "",
          "type": "uint16"
        },
        {
          "internalType": "bytes",
          "name": "",
          "type": "bytes"
        },
        {
          "internalType": "uint64",
          "name": "",
          "type": "uint64"
        }
      ],
      "name": "failedMessages",
      "outputs": [
        {
          "internalType": "bytes32",
          "name": "",
          "type": "bytes32"
        }
      ],
      "stateMutability": "view",
      "type": "function"
    },
    {
      "inputs": [
        {
          "internalType": "uint16",
          "name": "_srcChainId",
          "type": "uint16"
        },
        {
          "internalType": "bytes",
          "name": "_srcAddress",
          "type": "bytes"
        }
      ],
      "name": "forceResumeReceive",
      "outputs": [],
      "stateMutability": "nonpayable",
      "type": "function"
    },
    {
      "inputs": [
        {
          "internalType": "uint16",
          "name": "_version",
          "type": "uint16"
        },
        {
          "internalType": "uint16",
          "name": "_chainId",
          "type": "uint16"
        },
        {
          "internalType": "address",
          "name": "",
          "type": "address"
        },
        {
          "internalType": "uint256",
          "name": "_configType",
          "type": "uint256"
        }
      ],
      "name": "getConfig",
      "outputs": [
        {
          "internalType": "bytes",
          "name": "",
          "type": "bytes"
        }
      ],
      "stateMutability": "view",
      "type": "function"
    },
    {
      "inputs": [
        {
          "internalType": "bytes32",
          "name": "_messageHash",
          "type": "bytes32"
        }
      ],
      "name": "getEthSignedMessageHash",
      "outputs": [
        {
          "internalType": "bytes32",
          "name": "",
          "type": "bytes32"
        }
      ],
      "stateMutability": "pure",
      "type": "function"
    },
    {
      "inputs": [
        {
          "internalType": "uint16",
          "name": "_remoteChainId",
          "type": "uint16"
        }
      ],
      "name": "getTrustedRemoteAddress",
      "outputs": [
        {
          "internalType": "bytes",
          "name": "",
          "type": "bytes"
        }
      ],
      "stateMutability": "view",
      "type": "function"
    },
    {
      "inputs": [
        {
          "internalType": "uint256",
          "name": "_totalDebt",
          "type": "uint256"
        },
        {
          "internalType": "uint256",
          "name": "_debtOutstanding",
          "type": "uint256"
        },
        {
          "internalType": "uint256",
          "name": "_creditAvailable",
          "type": "uint256"
        },
        {
          "internalType": "uint256",
          "name": "_debtRatio",
          "type": "uint256"
        },
        {
          "internalType": "bytes",
          "name": "_signature",
          "type": "bytes"
        }
      ],
      "name": "harvest",
      "outputs": [],
      "stateMutability": "nonpayable",
      "type": "function"
    },
    {
      "inputs": [
        {
          "internalType": "address",
          "name": "_lzEndpoint",
          "type": "address"
        },
        {
          "internalType": "address",
          "name": "_strategist",
          "type": "address"
        },
        {
          "internalType": "contract IERC20",
          "name": "_want",
          "type": "address"
        },
        {
          "internalType": "address",
          "name": "_vault",
          "type": "address"
        },
        {
          "internalType": "uint16",
          "name": "_vaultChainId",
          "type": "uint16"
        },
        {
          "internalType": "uint16",
          "name": "_currentChainId",
          "type": "uint16"
        },
        {
          "internalType": "address",
          "name": "_sgBridge",
          "type": "address"
        },
        {
          "internalType": "address",
          "name": "_router",
          "type": "address"
        }
      ],
      "name": "initialize",
      "outputs": [],
      "stateMutability": "nonpayable",
      "type": "function"
    },
    {
      "inputs": [
        {
          "internalType": "uint16",
          "name": "_srcChainId",
          "type": "uint16"
        },
        {
          "internalType": "bytes",
          "name": "_srcAddress",
          "type": "bytes"
        }
      ],
      "name": "isTrustedRemote",
      "outputs": [
        {
          "internalType": "bool",
          "name": "",
          "type": "bool"
        }
      ],
      "stateMutability": "view",
      "type": "function"
    },
    {
      "inputs": [],
      "name": "liquidateAllPositions",
      "outputs": [
        {
          "internalType": "uint256",
          "name": "",
          "type": "uint256"
        }
      ],
      "stateMutability": "nonpayable",
      "type": "function"
    },
    {
      "inputs": [
        {
          "internalType": "uint256",
          "name": "_amountNeeded",
          "type": "uint256"
        }
      ],
      "name": "liquidatePosition",
      "outputs": [],
      "stateMutability": "nonpayable",
      "type": "function"
    },
    {
      "inputs": [],
      "name": "lzEndpoint",
      "outputs": [
        {
          "internalType": "contract ILayerZeroEndpointUpgradeable",
          "name": "",
          "type": "address"
        }
      ],
      "stateMutability": "view",
      "type": "function"
    },
    {
      "inputs": [
        {
          "internalType": "uint16",
          "name": "_srcChainId",
          "type": "uint16"
        },
        {
          "internalType": "bytes",
          "name": "_srcAddress",
          "type": "bytes"
        },
        {
          "internalType": "uint64",
          "name": "_nonce",
          "type": "uint64"
        },
        {
          "internalType": "bytes",
          "name": "_payload",
          "type": "bytes"
        }
      ],
      "name": "lzReceive",
      "outputs": [],
      "stateMutability": "nonpayable",
      "type": "function"
    },
    {
      "inputs": [
        {
          "internalType": "uint16",
          "name": "",
          "type": "uint16"
        },
        {
          "internalType": "uint16",
          "name": "",
          "type": "uint16"
        }
      ],
      "name": "minDstGasLookup",
      "outputs": [
        {
          "internalType": "uint256",
          "name": "",
          "type": "uint256"
        }
      ],
      "stateMutability": "view",
      "type": "function"
    },
    {
      "inputs": [],
      "name": "name",
      "outputs": [
        {
          "internalType": "string",
          "name": "",
          "type": "string"
        }
      ],
      "stateMutability": "pure",
      "type": "function"
    },
    {
      "inputs": [
        {
          "internalType": "uint16",
          "name": "_srcChainId",
          "type": "uint16"
        },
        {
          "internalType": "bytes",
          "name": "_srcAddress",
          "type": "bytes"
        },
        {
          "internalType": "uint64",
          "name": "_nonce",
          "type": "uint64"
        },
        {
          "internalType": "bytes",
          "name": "_payload",
          "type": "bytes"
        }
      ],
      "name": "nonblockingLzReceive",
      "outputs": [],
      "stateMutability": "nonpayable",
      "type": "function"
    },
    {
      "inputs": [],
      "name": "owner",
      "outputs": [
        {
          "internalType": "address",
          "name": "",
          "type": "address"
        }
      ],
      "stateMutability": "view",
      "type": "function"
    },
    {
      "inputs": [
        {
          "internalType": "uint16",
          "name": "",
          "type": "uint16"
        }
      ],
      "name": "payloadSizeLimitLookup",
      "outputs": [
        {
          "internalType": "uint256",
          "name": "",
          "type": "uint256"
        }
      ],
      "stateMutability": "view",
      "type": "function"
    },
    {
      "inputs": [
        {
          "internalType": "uint256",
          "name": "_pearlAmount",
          "type": "uint256"
        }
      ],
      "name": "pearlToWant",
      "outputs": [
        {
          "internalType": "uint256",
          "name": "",
          "type": "uint256"
        }
      ],
      "stateMutability": "view",
      "type": "function"
    },
    {
      "inputs": [],
      "name": "precrime",
      "outputs": [
        {
          "internalType": "address",
          "name": "",
          "type": "address"
        }
      ],
      "stateMutability": "view",
      "type": "function"
    },
    {
      "inputs": [],
      "name": "renounceOwnership",
      "outputs": [],
      "stateMutability": "nonpayable",
      "type": "function"
    },
    {
      "inputs": [
        {
          "internalType": "uint16",
          "name": "_srcChainId",
          "type": "uint16"
        },
        {
          "internalType": "bytes",
          "name": "_srcAddress",
          "type": "bytes"
        },
        {
          "internalType": "uint64",
          "name": "_nonce",
          "type": "uint64"
        },
        {
          "internalType": "bytes",
          "name": "_payload",
          "type": "bytes"
        }
      ],
      "name": "retryMessage",
      "outputs": [],
      "stateMutability": "payable",
      "type": "function"
    },
    {
      "inputs": [],
      "name": "revokeFunds",
      "outputs": [],
      "stateMutability": "nonpayable",
      "type": "function"
    },
    {
      "inputs": [
        {
          "internalType": "uint256",
          "name": "_pearlAmount",
          "type": "uint256"
        }
      ],
      "name": "sellPearl",
      "outputs": [],
      "stateMutability": "nonpayable",
      "type": "function"
    },
    {
      "inputs": [
        {
          "internalType": "uint256",
          "name": "_usdrAmount",
          "type": "uint256"
        }
      ],
      "name": "sellUsdr",
      "outputs": [],
      "stateMutability": "nonpayable",
      "type": "function"
    },
    {
      "inputs": [
        {
          "internalType": "uint16",
          "name": "_version",
          "type": "uint16"
        },
        {
          "internalType": "uint16",
          "name": "_chainId",
          "type": "uint16"
        },
        {
          "internalType": "uint256",
          "name": "_configType",
          "type": "uint256"
        },
        {
          "internalType": "bytes",
          "name": "_config",
          "type": "bytes"
        }
      ],
      "name": "setConfig",
      "outputs": [],
      "stateMutability": "nonpayable",
      "type": "function"
    },
    {
      "inputs": [
        {
          "internalType": "bool",
          "name": "_emergencyExit",
          "type": "bool"
        }
      ],
      "name": "setEmergencyExit",
      "outputs": [],
      "stateMutability": "nonpayable",
      "type": "function"
    },
    {
      "inputs": [
        {
          "internalType": "uint16",
          "name": "_dstChainId",
          "type": "uint16"
        },
        {
          "internalType": "uint16",
          "name": "_packetType",
          "type": "uint16"
        },
        {
          "internalType": "uint256",
          "name": "_minGas",
          "type": "uint256"
        }
      ],
      "name": "setMinDstGas",
      "outputs": [],
      "stateMutability": "nonpayable",
      "type": "function"
    },
    {
      "inputs": [
        {
          "internalType": "uint16",
          "name": "_dstChainId",
          "type": "uint16"
        },
        {
          "internalType": "uint256",
          "name": "_size",
          "type": "uint256"
        }
      ],
      "name": "setPayloadSizeLimit",
      "outputs": [],
      "stateMutability": "nonpayable",
      "type": "function"
    },
    {
      "inputs": [
        {
          "internalType": "address",
          "name": "_precrime",
          "type": "address"
        }
      ],
      "name": "setPrecrime",
      "outputs": [],
      "stateMutability": "nonpayable",
      "type": "function"
    },
    {
      "inputs": [
        {
          "internalType": "uint16",
          "name": "_version",
          "type": "uint16"
        }
      ],
      "name": "setReceiveVersion",
      "outputs": [],
      "stateMutability": "nonpayable",
      "type": "function"
    },
    {
      "inputs": [
        {
          "internalType": "uint16",
          "name": "_version",
          "type": "uint16"
        }
      ],
      "name": "setSendVersion",
      "outputs": [],
      "stateMutability": "nonpayable",
      "type": "function"
    },
    {
      "inputs": [
        {
          "internalType": "uint256",
          "name": "_slippage",
          "type": "uint256"
        }
      ],
      "name": "setSlippage",
      "outputs": [],
      "stateMutability": "nonpayable",
      "type": "function"
    },
    {
      "inputs": [
        {
          "internalType": "address",
          "name": "_strategist",
          "type": "address"
        }
      ],
      "name": "setStrategist",
      "outputs": [],
      "stateMutability": "nonpayable",
      "type": "function"
    },
    {
      "inputs": [
        {
          "internalType": "uint16",
          "name": "_srcChainId",
          "type": "uint16"
        },
        {
          "internalType": "bytes",
          "name": "_path",
          "type": "bytes"
        }
      ],
      "name": "setTrustedRemote",
      "outputs": [],
      "stateMutability": "nonpayable",
      "type": "function"
    },
    {
      "inputs": [
        {
          "internalType": "uint16",
          "name": "_remoteChainId",
          "type": "uint16"
        },
        {
          "internalType": "bytes",
          "name": "_remoteAddress",
          "type": "bytes"
        }
      ],
      "name": "setTrustedRemoteAddress",
      "outputs": [],
      "stateMutability": "nonpayable",
      "type": "function"
    },
    {
      "inputs": [],
      "name": "sgBridge",
      "outputs": [
        {
          "internalType": "contract ISgBridge",
          "name": "",
          "type": "address"
        }
      ],
      "stateMutability": "view",
      "type": "function"
    },
    {
      "inputs": [
        {
          "internalType": "uint16",
          "name": "",
          "type": "uint16"
        },
        {
          "internalType": "bytes",
          "name": "_srcAddress",
          "type": "bytes"
        },
        {
          "internalType": "uint256",
          "name": "",
          "type": "uint256"
        },
        {
          "internalType": "address",
          "name": "_token",
          "type": "address"
        },
        {
          "internalType": "uint256",
          "name": "_amountLD",
          "type": "uint256"
        },
        {
          "internalType": "bytes",
          "name": "",
          "type": "bytes"
        }
      ],
      "name": "sgReceive",
      "outputs": [],
      "stateMutability": "nonpayable",
      "type": "function"
    },
    {
      "inputs": [],
      "name": "sgRouter",
      "outputs": [
        {
          "internalType": "contract IStargateRouter",
          "name": "",
          "type": "address"
        }
      ],
      "stateMutability": "view",
      "type": "function"
    },
    {
      "inputs": [],
      "name": "slippage",
      "outputs": [
        {
          "internalType": "uint256",
          "name": "",
          "type": "uint256"
        }
      ],
      "stateMutability": "view",
      "type": "function"
    },
    {
      "inputs": [],
      "name": "strategist",
      "outputs": [
        {
          "internalType": "address",
          "name": "",
          "type": "address"
        }
      ],
      "stateMutability": "view",
      "type": "function"
    },
    {
      "inputs": [],
      "name": "strategistSignMessageHash",
      "outputs": [
        {
          "internalType": "bytes32",
          "name": "",
          "type": "bytes32"
        }
      ],
      "stateMutability": "view",
      "type": "function"
    },
    {
      "inputs": [
        {
          "internalType": "contract IERC20",
          "name": "_token",
          "type": "address"
        }
      ],
      "name": "sweepToken",
      "outputs": [],
      "stateMutability": "nonpayable",
      "type": "function"
    },
    {
      "inputs": [
        {
          "internalType": "address",
          "name": "newOwner",
          "type": "address"
        }
      ],
      "name": "transferOwnership",
      "outputs": [],
      "stateMutability": "nonpayable",
      "type": "function"
    },
    {
      "inputs": [
        {
          "internalType": "uint16",
          "name": "",
          "type": "uint16"
        }
      ],
      "name": "trustedRemoteLookup",
      "outputs": [
        {
          "internalType": "bytes",
          "name": "",
          "type": "bytes"
        }
      ],
      "stateMutability": "view",
      "type": "function"
    },
    {
      "inputs": [
        {
          "internalType": "uint256",
          "name": "_usdrLpAmount",
          "type": "uint256"
        }
      ],
      "name": "usdrLpToWant",
      "outputs": [
        {
          "internalType": "uint256",
          "name": "",
          "type": "uint256"
        }
      ],
      "stateMutability": "view",
      "type": "function"
    },
    {
      "inputs": [
        {
          "internalType": "uint256",
          "name": "_usdrAmount",
          "type": "uint256"
        }
      ],
      "name": "usdrToWant",
      "outputs": [
        {
          "internalType": "uint256",
          "name": "",
          "type": "uint256"
        }
      ],
      "stateMutability": "view",
      "type": "function"
    },
    {
      "inputs": [],
      "name": "vault",
      "outputs": [
        {
          "internalType": "address",
          "name": "",
          "type": "address"
        }
      ],
      "stateMutability": "view",
      "type": "function"
    },
    {
      "inputs": [],
      "name": "vaultChainId",
      "outputs": [
        {
          "internalType": "uint16",
          "name": "",
          "type": "uint16"
        }
      ],
      "stateMutability": "view",
      "type": "function"
    },
    {
      "inputs": [],
      "name": "want",
      "outputs": [
        {
          "internalType": "contract IERC20",
          "name": "",
          "type": "address"
        }
      ],
      "stateMutability": "view",
      "type": "function"
    },
    {
      "inputs": [],
      "name": "wantDecimals",
      "outputs": [
        {
          "internalType": "uint8",
          "name": "",
          "type": "uint8"
        }
      ],
      "stateMutability": "view",
      "type": "function"
    },
    {
      "inputs": [
        {
          "internalType": "uint256",
          "name": "_wantAmount",
          "type": "uint256"
        }
      ],
      "name": "wantToUsdrLp",
      "outputs": [
        {
          "internalType": "uint256",
          "name": "",
          "type": "uint256"
        }
      ],
      "stateMutability": "view",
      "type": "function"
    },
    {
      "inputs": [
        {
          "internalType": "uint256",
          "name": "_amountNeeded",
          "type": "uint256"
        }
      ],
      "name": "withdrawSome",
      "outputs": [],
      "stateMutability": "nonpayable",
      "type": "function"
    },
    {
      "stateMutability": "payable",
      "type": "receive"
    }
  ],
  "bytecode": "0x608060405234801561001057600080fd5b50615eb880620000216000396000f3fe6080604052600436106102f15760003560e01c80638da5cb5b1161018d5780638da5cb5b146107865780638f4508d01461079b578063950c8a74146107b05780639589c990146107d05780639606647d146107f05780639f38369a14610805578063a6c3d16514610825578063a879851014610845578063a9e508241461085b578063ab8236f31461087b578063adf076e61461089b578063ae9b051c146108ce578063b353aaa7146108ee578063baf3292d1461090e578063bd79ac131461092e578063c1a3d44c1461094e578063c446183414610963578063c7b9d53014610979578063cbed8b9c14610999578063cdddd4e5146109b9578063d1deba1f146109d9578063d56739ac146109ec578063df2a5b3b14610a01578063e73620c314610a21578063e964404414610a41578063eb8d72b714610a61578063efbb5cb014610a81578063f0fa55a914610a96578063f2fde38b14610ab6578063f5ecbdbc14610ad6578063fa54080114610af6578063fbfa77cf14610b16578063fcb988a414610b3657600080fd5b80621d3567146102fd5780630517cb761461031f57806306fdde031461035557806307e0db17146103945780630df37483146103b457806310ddb137146103d45780631be19560146103f45780631cdb539f146104145780631f1fcd51146104345780631fe4a686146104545780632d6068431461047457806337fded91146104895780633d3ccc2f146104ae5780633d8b38f6146104ce5780633e032a3b146104fe5780633eae1112146105225780633f1f4fa41461054257806342d65a8d1461056f57806345ee07551461058f578063495f881e146105af5780634a5f58d1146105cf57806350bb4beb146105ef5780635641ec0314610604578063567ad85d1461061e578063593178de146106535780635b8c41e61461066857806366ad5c8a146106b75780636cbadbfa146106d7578063715018a6146106f95780637533d7881461070e57806378dc90591461072e5780638cfd8f5c1461074e57600080fd5b366102f857005b600080fd5b34801561030957600080fd5b5061031d610318366004614b73565b610b56565b005b34801561032b57600080fd5b5060ce5461033f906001600160a01b031681565b60405161034c9190614c06565b60405180910390f35b34801561036157600080fd5b5060408051808201909152600d81526c506561726c537472617465677960981b60208201525b60405161034c9190614c6a565b3480156103a057600080fd5b5061031d6103af366004614c7d565b610c3f565b3480156103c057600080fd5b5061031d6103cf366004614c98565b610cac565b3480156103e057600080fd5b5061031d6103ef366004614c7d565b610ccb565b34801561040057600080fd5b5061031d61040f366004614cd7565b610d07565b34801561042057600080fd5b5061031d61042f366004614cf4565b610d94565b34801561044057600080fd5b5060ca5461033f906001600160a01b031681565b34801561046057600080fd5b5060c95461033f906001600160a01b031681565b34801561048057600080fd5b5061031d610fec565b34801561049557600080fd5b5060cd5461033f9061010090046001600160a01b031681565b3480156104ba57600080fd5b5061031d6104c9366004614da6565b61102d565b3480156104da57600080fd5b506104ee6104e9366004614dbf565b611063565b604051901515815260200161034c565b34801561050a57600080fd5b5061051460cc5481565b60405190815260200161034c565b34801561052e57600080fd5b5061051461053d366004614da6565b611130565b34801561054e57600080fd5b5061051461055d366004614c7d565b60686020526000908152604090205481565b34801561057b57600080fd5b5061031d61058a366004614dbf565b6111be565b34801561059b57600080fd5b5061031d6105aa366004614e1f565b611231565b3480156105bb57600080fd5b5061031d6105ca366004614f27565b61124c565b3480156105db57600080fd5b5061031d6105ea366004614da6565b6114f0565b3480156105fb57600080fd5b506105146114f9565b34801561061057600080fd5b5060cd546104ee9060ff1681565b34801561062a57600080fd5b5060cb5461064090600160a01b900461ffff1681565b60405161ffff909116815260200161034c565b34801561065f57600080fd5b50610514611508565b34801561067457600080fd5b50610514610683366004614f8a565b6097602090815260009384526040808520845180860184018051928152908401958401959095209452929052825290205481565b3480156106c357600080fd5b5061031d6106d2366004614b73565b611566565b3480156106e357600080fd5b5060cb5461064090600160b01b900461ffff1681565b34801561070557600080fd5b5061031d61163a565b34801561071a57600080fd5b50610387610729366004614c7d565b61164e565b34801561073a57600080fd5b5061031d610749366004614da6565b6116e8565b34801561075a57600080fd5b50610514610769366004614fe7565b606760209081526000928352604080842090915290825290205481565b34801561079257600080fd5b5061033f6116f1565b3480156107a757600080fd5b50610514611700565b3480156107bc57600080fd5b5060695461033f906001600160a01b031681565b3480156107dc57600080fd5b506105146107eb366004614da6565b611775565b3480156107fc57600080fd5b5061031d61180d565b34801561081157600080fd5b50610387610820366004614c7d565b6118a0565b34801561083157600080fd5b5061031d610840366004614dbf565b6119af565b34801561085157600080fd5b5061051461264881565b34801561086757600080fd5b50610514610876366004614da6565b611a38565b34801561088757600080fd5b5061031d61089636600461501a565b611af1565b3480156108a757600080fd5b5060cb546108bc90600160c01b900460ff1681565b60405160ff909116815260200161034c565b3480156108da57600080fd5b5061031d6108e9366004614da6565b611beb565b3480156108fa57600080fd5b5060655461033f906001600160a01b031681565b34801561091a57600080fd5b5061031d610929366004614cd7565b611bf4565b34801561093a57600080fd5b50610514610949366004614da6565b611c47565b34801561095a57600080fd5b50610514611c9f565b34801561096f57600080fd5b5061051461271081565b34801561098557600080fd5b5061031d610994366004614cd7565b611cd0565b3480156109a557600080fd5b5061031d6109b43660046150b4565b611cfa565b3480156109c557600080fd5b5061031d6109d4366004614da6565b611d68565b61031d6109e7366004614b73565b611d76565b3480156109f857600080fd5b50610514611f8c565b348015610a0d57600080fd5b5061031d610a1c366004615122565b611fbe565b348015610a2d57600080fd5b5061031d610a3c366004614da6565b612070565b348015610a4d57600080fd5b5061031d610a5c366004614da6565b612090565b348015610a6d57600080fd5b5061031d610a7c366004614dbf565b612099565b348015610a8d57600080fd5b506105146120f3565b348015610aa257600080fd5b5061031d610ab1366004614da6565b61220d565b348015610ac257600080fd5b5061031d610ad1366004614cd7565b61221a565b348015610ae257600080fd5b50610387610af136600461515e565b612290565b348015610b0257600080fd5b50610514610b11366004614da6565b612323565b348015610b2257600080fd5b5060cb5461033f906001600160a01b031681565b348015610b4257600080fd5b50610514610b51366004614da6565b612375565b6065546001600160a01b03163314610bc15760405162461bcd60e51b815260206004820152602360248201527f4261736553747261746567793a3a496e76616c6964456e64706f696e7443616c6044820152623632b960e91b60648201526084015b60405180910390fd5b610c378686868080601f01602080910402602001604051908101604052809392919081815260200183838082843760009201919091525050604080516020601f89018190048102820181019092528781528993509150879087908190840183828082843760009201919091525061257992505050565b505050505050565b610c476125f2565b6065546040516307e0db1760e01b815261ffff831660048201526001600160a01b03909116906307e0db17906024015b600060405180830381600087803b158015610c9157600080fd5b505af1158015610ca5573d6000803e3d6000fd5b5050505050565b610cb46125f2565b61ffff909116600090815260686020526040902055565b610cd36125f2565b6065546040516310ddb13760e01b815261ffff831660048201526001600160a01b03909116906310ddb13790602401610c77565b610d0f612651565b610d9133826001600160a01b03166370a08231306040518263ffffffff1660e01b8152600401610d3f9190614c06565b602060405180830381865afa158015610d5c573d6000803e3d6000fd5b505050506040513d601f19601f82011682018060405250810190610d8091906151ab565b6001600160a01b03841691906126aa565b50565b600054610100900460ff1615808015610db45750600054600160ff909116105b80610dd55750610dc330612700565b158015610dd5575060005460ff166001145b610e385760405162461bcd60e51b815260206004820152602e60248201527f496e697469616c697a61626c653a20636f6e747261637420697320616c72656160448201526d191e481a5b9a5d1a585b1a5e995960921b6064820152608401610bb8565b6000805460ff191660011790558015610e5b576000805461ff0019166101001790555b610e6e898989898989898961264861270f565b60ca54610e9b906001600160a01b03167368b3465833fb72a70ecdf485e0e4c7bd8665fc456000196128ee565b60ca54610ec2906001600160a01b0316600080516020615dc38339815191526000196128ee565b610eeb600080516020615e43833981519152600080516020615dc38339815191526000196128ee565b610f14600080516020615e23833981519152600080516020615de38339815191526000196128ee565b610f3d600080516020615e23833981519152600080516020615dc38339815191526000196128ee565b610f72738f3cf7ad23cd3cadbd9735aff958023239c6a06373195f7b233947d51f4c3b756ad41a5ddb34cebce06000196128ee565b610f9b600080516020615e03833981519152600080516020615dc38339815191526000196128ee565b8015610fe1576000805461ff0019169055604051600181527f7f26b83ff96e1f2b6a682f133852f6798a09c465da95921460cefb38474024989060200160405180910390a15b505050505050505050565b610ff4612651565b60c9546040516001600160a01b03909116904780156108fc02916000818181858888f19350505050158015610d91573d6000803e3d6000fd5b611035612651565b61103e816129f2565b604051818152600080516020615e63833981519152906020015b60405180910390a150565b61ffff831660009081526066602052604081208054829190611084906151c4565b80601f01602080910402602001604051908101604052809291908181526020018280546110b0906151c4565b80156110fd5780601f106110d2576101008083540402835291602001916110fd565b820191906000526020600020905b8154815290600101906020018083116110e057829003601f168201915b5050505050905083836040516111149291906151fe565b60405180910390208180519060200120149150505b9392505050565b60006111b882600080516020615e438339815191526001600160a01b031663313ce5676040518163ffffffff1660e01b8152600401602060405180830381865afa158015611182573d6000803e3d6000fd5b505050506040513d601f19601f820116820180604052508101906111a6919061520e565b60cb54600160c01b900460ff166130ef565b92915050565b6111c66125f2565b6065546040516342d65a8d60e01b81526001600160a01b03909116906342d65a8d906111fa9086908690869060040161525a565b600060405180830381600087803b15801561121457600080fd5b505af1158015611228573d6000803e3d6000fd5b50505050505050565b611239612651565b60cd805460ff1916911515919091179055565b611254612651565b61125d81613144565b60cd546000908190819060ff16156113095784156112bd5760405162461bcd60e51b815260206004820152601e60248201527f4261736553747261746567793a3a44656274526174696f4e6f745a65726f00006044820152606401610bb8565b60006112c76131ca565b9050878110156112e2576112db818961528e565b92506112f7565b878111156112f7576112f4888261528e565b93505b611301838961528e565b91505061131b565b611313888861320c565b919450925090505b600061132782856152a1565b9050600080888310156113495761133e838a61528e565b91506000905061135a565b60009150611357898461528e565b90505b6000604051806101600160405280306001600160a01b031681526020014281526020018881526020018781526020018681526020018481526020018381526020018b8152602001836113aa6120f3565b6113b4919061528e565b815260200160d060008154809291906113cc906152b4565b9091555081526020018990529050811561142c5760cb5460405161142791849161ffff600160a01b830416916001600160a01b031690611413906002908790602001615305565b604051602081830303815290604052613303565b611457565b611457600282604051602001611443929190615305565b6040516020818303038152906040526133f1565b7fb983e09c034e9c52b5e547cb0589967992b97717733f580cc5ad0afcdc4b522b8160400151826060015183608001518460a001518560c001518660e001518761010001516040516114da9796959493929190968752602087019590955260408601939093526060850191909152608084015260a083015260c082015260e00190565b60405180910390a1505050505050505050505050565b610d9181613571565b60006115036131ca565b905090565b60d05460cb546040513060601b6001600160601b03191660208201526034810192909252600160b01b900460f01b6001600160f01b031916605482015260009060560160405160208183030381529060405280519060200120905090565b3330146115c45760405162461bcd60e51b815260206004820152602660248201527f4e6f6e626c6f636b696e674c7a4170703a2063616c6c6572206d7573742062656044820152650204c7a4170760d41b6064820152608401610bb8565b610c378686868080601f01602080910402602001604051908101604052809392919081815260200183838082843760009201919091525050604080516020601f89018190048102820181019092528781528993509150879087908190840183828082843760009201919091525061370892505050565b6116426125f2565b61164c600061381e565b565b60666020526000908152604090208054611667906151c4565b80601f0160208091040260200160405190810160405280929190818152602001828054611693906151c4565b80156116e05780601f106116b5576101008083540402835291602001916116e0565b820191906000526020600020905b8154815290600101906020018083116116c357829003601f168201915b505050505081565b610d9181613870565b6033546001600160a01b031690565b6040516370a0823160e01b8152600090600080516020615de3833981519152906370a0823190611734903090600401614c06565b602060405180830381865afa158015611751573d6000803e3d6000fd5b505050506040513d601f19601f8201168201806040525081019061150391906151ab565b6040516328bd9fc160e11b8152600090819073f68c20d6c50706f6c6bd8ee184382518c93b368c9063517b3f82906117c190600080516020615e038339815191529087906004016153b0565b602060405180830381865afa1580156117de573d6000803e3d6000fd5b505050506040513d601f19601f8201168201806040525081019061180291906151ab565b905061112981611130565b611815612651565b60ca546040516370a0823160e01b815261164c916001916001600160a01b03909116906370a082319061184c903090600401614c06565b602060405180830381865afa158015611869573d6000803e3d6000fd5b505050506040513d601f19601f8201168201806040525081019061188d91906151ab565b60ca546001600160a01b031691906126aa565b61ffff81166000908152606660205260408120805460609291906118c3906151c4565b80601f01602080910402602001604051908101604052809291908181526020018280546118ef906151c4565b801561193c5780601f106119115761010080835404028352916020019161193c565b820191906000526020600020905b81548152906001019060200180831161191f57829003601f168201915b5050505050905080516000036119945760405162461bcd60e51b815260206004820152601d60248201527f4c7a4170703a206e6f20747275737465642070617468207265636f72640000006044820152606401610bb8565b6111296000601483516119a7919061528e565b839190613b64565b6119b76125f2565b8181306040516020016119cc939291906153c9565b60408051601f1981840301815291815261ffff85166000908152606660205220906119f79082615445565b507f8c0400cfe2d1199b1a725c78960bcc2a344d869b80590d0f2bd005db15a572ce838383604051611a2b9392919061525a565b60405180910390a1505050565b60ca546040516310e1b98f60e21b815260009182918291600080516020615dc383398151915291634386e63c91611a92916001600160a01b0390911690600080516020615e43833981519152906001908a906004016154fe565b6040805180830381865afa158015611aae573d6000803e3d6000fd5b505050506040513d601f19601f82011682018060405250810190611ad29190615529565b91509150611adf81611130565b611ae990836152a1565b949350505050565b60ce546001600160a01b0316331480611b19575060cd5461010090046001600160a01b031633145b611b645760405162461bcd60e51b815260206004820152601c60248201527b53674272696467653a3a526f757465724f724272696467654f6e6c7960201b6044820152606401610bb8565b6000611b7286826014613b64565b604051602001611b82919061554d565b604051602081830303815290604052611b9a90615569565b60601c9050836001600160a01b03167f92073a89a07a000083eb8b2575fc15e7bb936efe55d00727d6942a796d7211a78483604051611bda9291906155a0565b60405180910390a250505050505050565b610d9181613c71565b611bfc6125f2565b606980546001600160a01b0319166001600160a01b0383161790556040517f5db758e995a17ec1ad84bdef7e8c3293a0bd6179bcce400dff5d4c3d87db726b90611058908390614c06565b60006111b882738f3cf7ad23cd3cadbd9735aff958023239c6a0636001600160a01b031663313ce5676040518163ffffffff1660e01b8152600401602060405180830381865afa158015611182573d6000803e3d6000fd5b60ca546040516370a0823160e01b81526000916001600160a01b0316906370a0823190611734903090600401614c06565b611cd86125f2565b60c980546001600160a01b0319166001600160a01b0392909216919091179055565b611d026125f2565b6065546040516332fb62e760e21b81526001600160a01b039091169063cbed8b9c90611d3a90889088908890889088906004016155b7565b600060405180830381600087803b158015611d5457600080fd5b505af1158015610fe1573d6000803e3d6000fd5b611d7181613d56565b505050565b61ffff86166000908152609760205260408082209051611d9990889088906151fe565b90815260408051602092819003830190206001600160401b03871660009081529252902054905080611e195760405162461bcd60e51b815260206004820152602360248201527f4e6f6e626c6f636b696e674c7a4170703a206e6f2073746f726564206d65737360448201526261676560e81b6064820152608401610bb8565b808383604051611e2a9291906151fe565b604051809103902014611e895760405162461bcd60e51b815260206004820152602160248201527f4e6f6e626c6f636b696e674c7a4170703a20696e76616c6964207061796c6f616044820152601960fa1b6064820152608401610bb8565b61ffff87166000908152609760205260408082209051611eac90899089906151fe565b90815260408051602092819003830181206001600160401b038916600090815290845282902093909355601f88018290048202830182019052868252611f44918991899089908190840183828082843760009201919091525050604080516020601f8a018190048102820181019092528881528a93509150889088908190840183828082843760009201919091525061370892505050565b7fc264d91f3adc5588250e1551f547752ca0cfa8f6b530d243b9f9f4cab10ea8e58787878785604051611f7b9594939291906155e5565b60405180910390a150505050505050565b6040516246613160e11b8152600090600080516020615de383398151915290628cc26290611734903090600401614c06565b611fc66125f2565b6000811161200e5760405162461bcd60e51b81526020600482015260156024820152744c7a4170703a20696e76616c6964206d696e47617360581b6044820152606401610bb8565b61ffff83811660008181526067602090815260408083209487168084529482529182902085905581519283528201929092529081018290527f9d5c7c0b934da8fefa9c7760c98383778a12dfbfc0c3b3106518f43fb9508ac090606001611a2b565b6120786125f2565b600090815260cf60205260409020805460ff19169055565b610d9181613e8b565b6120a16125f2565b61ffff831660009081526066602052604090206120bf828483615620565b507ffa41487ad5d6728f0b19276fa1eddc16558578f5109fc39d2dc33c3230470dab838383604051611a2b9392919061525a565b6000612100610876611700565b6040516370a0823160e01b815261218890600080516020615e03833981519152906370a0823190612135903090600401614c06565b602060405180830381865afa158015612152573d6000803e3d6000fd5b505050506040513d601f19601f8201168201806040525081019061217691906151ab565b61217e611f8c565b6107eb91906152a1565b60ca546040516370a0823160e01b81526001600160a01b03909116906370a08231906121b8903090600401614c06565b602060405180830381865afa1580156121d5573d6000803e3d6000fd5b505050506040513d601f19601f820116820180604052508101906121f991906151ab565b61220391906152a1565b61150391906152a1565b612215612651565b60cc55565b6122226125f2565b6001600160a01b0381166122875760405162461bcd60e51b815260206004820152602660248201527f4f776e61626c653a206e6577206f776e657220697320746865207a65726f206160448201526564647265737360d01b6064820152608401610bb8565b610d918161381e565b606554604051633d7b2f6f60e21b815261ffff808716600483015285166024820152306044820152606481018390526060916001600160a01b03169063f5ecbdbc90608401600060405180830381865afa1580156122f2573d6000803e3d6000fd5b505050506040513d6000823e601f3d908101601f1916820160405261231a91908101906156d9565b95945050505050565b6040517b0ca2ba3432b932bab69029b4b3b732b21026b2b9b9b0b3b29d05199960211b6020820152603c8101829052600090605c01604051602081830303815290604052805190602001209050919050565b6000806123f6600080516020615e238339815191526001600160a01b031663313ce5676040518163ffffffff1660e01b8152600401602060405180830381865afa1580156123c7573d6000803e3d6000fd5b505050506040513d601f19601f820116820180604052508101906123eb919061520e565b61087690600a61582a565b905060006124838460cb60189054906101000a900460ff16600080516020615e238339815191526001600160a01b031663313ce5676040518163ffffffff1660e01b8152600401602060405180830381865afa15801561245a573d6000803e3d6000fd5b505050506040513d601f19601f8201168201806040525081019061247e919061520e565b6130ef565b905060006124e78360cb60189054906101000a900460ff16600080516020615e238339815191526001600160a01b031663313ce5676040518163ffffffff1660e01b8152600401602060405180830381865afa15801561245a573d6000803e3d6000fd5b905080600080516020615e238339815191526001600160a01b031663313ce5676040518163ffffffff1660e01b8152600401602060405180830381865afa158015612536573d6000803e3d6000fd5b505050506040513d601f19601f8201168201806040525081019061255a919061520e565b61256590600a61582a565b61256f9084615839565b61231a9190615850565b6000806125dc5a60966366ad5c8a60e01b898989896040516024016125a19493929190615872565b60408051601f198184030181529190526020810180516001600160e01b03166001600160e01b03199093169290921790915230929190613f67565b9150915081610c3757610c378686868685613ff3565b336125fb6116f1565b6001600160a01b03161461164c5760405162461bcd60e51b815260206004820181905260248201527f4f776e61626c653a2063616c6c6572206973206e6f7420746865206f776e65726044820152606401610bb8565b60c9546001600160a01b0316331461164c5760405162461bcd60e51b815260206004820152601c60248201527b10985cd954dd1c985d1959de4e8e93db9b1e54dd1c985d1959da5cdd60221b6044820152606401610bb8565b611d718363a9059cbb60e01b84846040516024016126c99291906153b0565b60408051601f198184030181529190526020810180516001600160e01b03166001600160e01b031990931692909217909152614090565b6001600160a01b03163b151590565b600054610100900460ff166127365760405162461bcd60e51b8152600401610bb8906158b0565b61273f89614165565b60c980546001600160a01b03808b166001600160a01b03199283161790925560ca80548a8416908316811790915560cb8054938a1661ffff8a16600160a01b029093166001600160b01b0319909416939093179190911790915560cc8290556040805163313ce56760e01b8152905163313ce567916004808201926020929091908290030181865afa1580156127d9573d6000803e3d6000fd5b505050506040513d601f19601f820116820180604052508101906127fd919061520e565b60cb8054600060d05562ffffff60b01b1916600160c01b60ff939093169290920261ffff60b01b191691909117600160b01b61ffff87160217905560cd8054610100600160a81b0319166101006001600160a01b03868116919091029190911790915560ce80546001600160a01b03191684831617905560ca5460405163095ea7b360e01b815291169063095ea7b39061289f908690600019906004016153b0565b6020604051808303816000875af11580156128be573d6000803e3d6000fd5b505050506040513d601f19601f820116820180604052508101906128e291906158fb565b50505050505050505050565b8015806129685750604051636eb1769f60e11b81523060048201526001600160a01b03838116602483015284169063dd62ed3e90604401602060405180830381865afa158015612942573d6000803e3d6000fd5b505050506040513d601f19601f8201168201806040525081019061296691906151ab565b155b6129d35760405162461bcd60e51b815260206004820152603660248201527f5361666545524332303a20617070726f76652066726f6d206e6f6e2d7a65726f60448201527520746f206e6f6e2d7a65726f20616c6c6f77616e636560501b6064820152608401610bb8565b611d718363095ea7b360e01b84846040516024016126c99291906153b0565b600080516020615de38339815191526001600160a01b0316633d18b9126040518163ffffffff1660e01b8152600401600060405180830381600087803b158015612a3b57600080fd5b505af1158015612a4f573d6000803e3d6000fd5b50506040516370a0823160e01b8152612ace9250600080516020615e0383398151915291506370a0823190612a88903090600401614c06565b602060405180830381865afa158015612aa5573d6000803e3d6000fd5b505050506040513d601f19601f82011682018060405250810190612ac991906151ab565b613571565b60ca546040516370a0823160e01b81526000916001600160a01b0316906370a0823190612aff903090600401614c06565b602060405180830381865afa158015612b1c573d6000803e3d6000fd5b505050506040513d601f19601f82011682018060405250810190612b4091906151ab565b905081811115612ccc576000612b56838361528e565b90506000612b65600283615850565b90506000612bcf8260cb60189054906101000a900460ff16738f3cf7ad23cd3cadbd9735aff958023239c6a0636001600160a01b031663313ce5676040518163ffffffff1660e01b8152600401602060405180830381865afa15801561245a573d6000803e3d6000fd5b6040805160808101825260ca546001600160601b0319606091821b1660a0830152601960ea1b60b4830152738f3cf7ad23cd3cadbd9735aff958023239c6a06360601b60b7830152825160ab81840301815260cb830184528252306020830152918101859052919250600091908101612c478461419d565b905260405163b858183f60e01b81529091507368b3465833fb72a70ecdf485e0e4c7bd8665fc459063b858183f90612c83908490600401615918565b6020604051808303816000875af1158015612ca2573d6000803e3d6000fd5b505050506040513d601f19601f82011682018060405250810190612cc691906151ab565b50505050505b6040516370a0823160e01b8152600090738f3cf7ad23cd3cadbd9735aff958023239c6a063906370a0823190612d06903090600401614c06565b602060405180830381865afa158015612d23573d6000803e3d6000fd5b505050506040513d601f19601f82011682018060405250810190612d4791906151ab565b90508015612dcd5760405163a39fc2c560e01b815273195f7b233947d51f4c3b756ad41a5ddb34cebce09063a39fc2c590612d8890849030906004016155a0565b6020604051808303816000875af1158015612da7573d6000803e3d6000fd5b505050506040513d601f19601f82011682018060405250810190612dcb91906151ab565b505b6040516370a0823160e01b8152600090600080516020615e43833981519152906370a0823190612e01903090600401614c06565b602060405180830381865afa158015612e1e573d6000803e3d6000fd5b505050506040513d601f19601f82011682018060405250810190612e4291906151ab565b60ca546040516370a0823160e01b81529192506001600160a01b0316906370a0823190612e73903090600401614c06565b602060405180830381865afa158015612e90573d6000803e3d6000fd5b505050506040513d601f19601f82011682018060405250810190612eb491906151ab565b9250600081118015612ec65750600083115b156130405760ca546040516326283ecf60e21b81526001600160a01b039091166004820152600080516020615e4383398151915260248201526001604482015260648101849052608481018290526000908190600080516020615dc3833981519152906398a0fb3c9060a401606060405180830381865afa158015612f4f573d6000803e3d6000fd5b505050506040513d601f19601f82011682018060405250810190612f739190615966565b5060ca54604051635a47ddc360e01b81526001600160a01b039091166004820152600080516020615e438339815191526024820152600160448201819052606482018490526084820183905260a4820181905260c48201523060e4820152426101048201529193509150600080516020615dc383398151915290635a47ddc390610124016060604051808303816000875af1158015613016573d6000803e3d6000fd5b505050506040513d601f19601f8201168201806040525081019061303a9190615966565b50505050505b6040516370a0823160e01b8152600090600080516020615e23833981519152906370a0823190613074903090600401614c06565b602060405180830381865afa158015613091573d6000803e3d6000fd5b505050506040513d601f19601f820116820180604052508101906130b591906151ab565b90508015610ca55760405163b6b55f2560e01b815260048101829052600080516020615de38339815191529063b6b55f2590602401611d3a565b60008260ff168260ff161115613125576131098383615994565b61311490600a61582a565b61311e9085615839565b9050611129565b61312f8284615994565b61313a90600a61582a565b61311e9085615850565b600061314e611508565b9050600061315b82612323565b60c9549091506001600160a01b031661317482856141ba565b6001600160a01b031614611d715760405162461bcd60e51b815260206004820152601e60248201527f4261736553747261746567793a3a496e76616c69645369676e617475726500006044820152606401610bb8565b60006131dc6131d7611700565b613870565b60ca546040516370a0823160e01b81526001600160a01b03909116906370a0823190611734903090600401614c06565b60008060008061321a6120f3565b90508581106132385761322d868261528e565b935060009250613249565b60009350613246818761528e565b92505b61325b61325685876152a1565b613d56565b505060ca546040516370a0823160e01b81526000916001600160a01b0316906370a082319061328e903090600401614c06565b602060405180830381865afa1580156132ab573d6000803e3d6000fd5b505050506040513d601f19601f820116820180604052508101906132cf91906151ab565b90508481116132e457809450600092506132fa565b6132f76132f1868361528e565b876141de565b92505b50509250925092565b60cd54604051630dc6346160e01b815260009161010090046001600160a01b031690630dc634619061333d908790879087906004016159ad565b602060405180830381865afa15801561335a573d6000803e3d6000fd5b505050506040513d601f19601f8201168201806040525081019061337e91906151ab565b60cd5460ca54604051633920455b60e11b81529293506001600160a01b036101009092048216926372408ab69285926133c4929116908a908a908a908a906004016159db565b6000604051808303818588803b1580156133dd57600080fd5b505af11580156128e2573d6000803e3d6000fd5b60cb5460408051606083811b6001600160601b03199081166020840152309182901b16603483015282516028818403018152604890920190925260655490926000926001600160a01b03909216916340a7bb109161ffff600160a01b9091041690868561345c6141f4565b6040518663ffffffff1660e01b815260040161347c959493929190615a18565b6040805180830381865afa158015613498573d6000803e3d6000fd5b505050506040513d601f19601f820116820180604052508101906134bc9190615529565b509050804710156134e85760405162fae2d560e21b815260048101829052476024820152604401610bb8565b60655460cb546001600160a01b039091169063c5803100908390600160a01b900461ffff16858730806135196141f4565b6040518863ffffffff1660e01b815260040161353a96959493929190615a6c565b6000604051808303818588803b15801561355357600080fd5b505af1158015613567573d6000803e3d6000fd5b5050505050505050565b8060000361357c5750565b60408051600280825260608201909252600091816020015b604080516060810182526000808252602080830182905292820152825260001990920191018161359457505060408051606081018252600080516020615e038339815191528152600080516020615e438339815191526020820152600091810182905282519293509183919061360c5761360c615ad3565b60209081029190910181019190915260408051606081018252600080516020615e43833981519152815260ca546001600160a01b03169281019290925260019082018190528251839190811061366457613664615ad3565b6020026020010181905250600061367a83611775565b9050600080516020615dc383398151915263f41766d88461369a8461419d565b8530426040518663ffffffff1660e01b81526004016136bd959493929190615ae9565b6000604051808303816000875af19250505080156136fd57506040513d6000823e601f3d908101601f191682016040526136fa9190810190615b78565b60015b15611d715750505050565b60cb5461ffff858116600160a01b90920416146137725760405162461bcd60e51b815260206004820152602260248201527f4261736553747261746567793a3a5661756c74436861696e49644d69736d61746044820152610c6d60f31b6064820152608401610bb8565b600061378084826014613b64565b604051602001613790919061554d565b6040516020818303038152906040526137a890615569565b60cb5460609190911c91506001600160a01b031681146138155760405162461bcd60e51b815260206004820152602260248201527f4261736553747261746567793a3a5661756c74416464726573734d69736d61746044820152610c6d60f31b6064820152608401610bb8565b610ca582614224565b603380546001600160a01b038381166001600160a01b0319831681179093556040519116919082907f8be0079c531659141344cd1fd0a4f28419497f9722a3daafe3b4186f6b6457e090600090a35050565b600080516020615de38339815191526001600160a01b0316633d18b9126040518163ffffffff1660e01b8152600401600060405180830381600087803b1580156138b957600080fd5b505af11580156138cd573d6000803e3d6000fd5b50506040516370a0823160e01b81526139069250600080516020615e0383398151915291506370a0823190612a88903090600401614c06565b806000036139115750565b604051632e1a7d4d60e01b815260048101829052600080516020615de383398151915290632e1a7d4d90602401600060405180830381600087803b15801561395857600080fd5b505af115801561396c573d6000803e3d6000fd5b505060ca546040516310e1b98f60e21b815260009350839250600080516020615dc383398151915291634386e63c916139c6916001600160a01b031690600080516020615e438339815191529060019089906004016154fe565b6040805180830381865afa1580156139e2573d6000803e3d6000fd5b505050506040513d601f19601f82011682018060405250810190613a069190615529565b60ca549193509150600080516020615dc383398151915290630dede6c4906001600160a01b0316600080516020615e43833981519152600187613a488861419d565b613a518861419d565b6040516001600160e01b031960e089901b1681526001600160a01b03968716600482015295909416602486015291151560448501526064840152608483015260a48201523060c48201524260e48201526101040160408051808303816000875af1158015613ac3573d6000803e3d6000fd5b505050506040513d601f19601f82011682018060405250810190613ae79190615529565b50506040516370a0823160e01b8152611d7190600080516020615e43833981519152906370a0823190613b1e903090600401614c06565b602060405180830381865afa158015613b3b573d6000803e3d6000fd5b505050506040513d601f19601f82011682018060405250810190613b5f91906151ab565b613e8b565b606081613b7281601f6152a1565b1015613bb15760405162461bcd60e51b815260206004820152600e60248201526d736c6963655f6f766572666c6f7760901b6044820152606401610bb8565b613bbb82846152a1565b84511015613bff5760405162461bcd60e51b8152602060048201526011602482015270736c6963655f6f75744f66426f756e647360781b6044820152606401610bb8565b606082158015613c1e5760405191506000825260208201604052613c68565b6040519150601f8416801560200281840101858101878315602002848b0101015b81831015613c57578051835260209283019201613c3f565b5050858452601f01601f1916604052505b50949350505050565b80600003613c7c5750565b6000613c896107eb611f8c565b9050818110613d2c57600080516020615de38339815191526001600160a01b0316633d18b9126040518163ffffffff1660e01b8152600401600060405180830381600087803b158015613cdb57600080fd5b505af1158015613cef573d6000803e3d6000fd5b50506040516370a0823160e01b8152613d289250600080516020615e0383398151915291506370a0823190612a88903090600401614c06565b5050565b6000613d4b613d3e610b51848661528e565b613d46611700565b6141de565b9050611d7181613870565b60ca546040516370a0823160e01b8152600091829182916001600160a01b0316906370a0823190613d8b903090600401614c06565b602060405180830381865afa158015613da8573d6000803e3d6000fd5b505050506040513d601f19601f82011682018060405250810190613dcc91906151ab565b9050838110613de057509192600092509050565b613df2613ded828661528e565b613c71565b60ca546040516370a0823160e01b81526001600160a01b03909116906370a0823190613e22903090600401614c06565b602060405180830381865afa158015613e3f573d6000803e3d6000fd5b505050506040513d601f19601f82011682018060405250810190613e6391906151ab565b905080841115613e8157915081613e7a818561528e565b9150613e85565b8392505b50915091565b80600003613e965750565b6000613ea182611130565b9050600080516020615dc38339815191526313dcfc5983613ec18461419d565b60ca5460405160e085901b6001600160e01b031916815260048101939093526024830191909152600080516020615e4383398151915260448301526001600160a01b03166064820152600160848201523060a48201524260c482015260e4016000604051808303816000875af1158015613f3f573d6000803e3d6000fd5b505050506040513d6000823e601f3d908101601f19168201604052611d719190810190615b78565b6000606060008060008661ffff166001600160401b03811115613f8c57613f8c614e3c565b6040519080825280601f01601f191660200182016040528015613fb6576020820181803683370190505b50905060008087516020890160008d8df191503d925086831115613fd8578692505b828152826000602083013e9093509150505b94509492505050565b8180519060200120609760008761ffff1661ffff16815260200190815260200160002085604051614024919061554d565b9081526040805191829003602090810183206001600160401b0388166000908152915220919091557fe183f33de2837795525b4792ca4cd60535bd77c53b7e7030060bfcf5734d6b0c906140819087908790879087908790615c11565b60405180910390a15050505050565b60006140e5826040518060400160405280602081526020017f5361666545524332303a206c6f772d6c6576656c2063616c6c206661696c6564815250856001600160a01b03166143459092919063ffffffff16565b905080516000148061410657508080602001905181019061410691906158fb565b611d715760405162461bcd60e51b815260206004820152602a60248201527f5361666545524332303a204552433230206f7065726174696f6e20646964206e6044820152691bdd081cdd58d8d9595960b21b6064820152608401610bb8565b600054610100900460ff1661418c5760405162461bcd60e51b8152600401610bb8906158b0565b614194614354565b610d9181614384565b600061271060cc54836141b09190615839565b6111b89190615850565b60008060006141c985856143cd565b915091506141d681614412565b509392505050565b60008183106141ed5781611129565b5090919050565b60408051600160f01b6020820152620f424060228083019190915282518083039091018152604290910190915290565b60008180602001905181019061423a9190615c63565b90506003816004811115614250576142506152cd565b0361429b5760008280602001905181019061426b9190615c84565b91505061427b81600001516129f2565b8051604051908152600080516020615e6383398151915290602001611a2b565b60008160048111156142af576142af6152cd565b036142d6576000828060200190518101906142ca9190615cc7565b915050611d7181614557565b60048160048111156142ea576142ea6152cd565b03613d28576000828060200190518101906143059190615d32565b9150506143158160000151614681565b80516040517f7c9a2d2ec51230d7dbed27f113a325b7e20aef7b049e68b2339257b5edff5bea91611a2b91614c06565b6060611ae984846000856146c0565b600054610100900460ff1661437b5760405162461bcd60e51b8152600401610bb8906158b0565b61164c3361381e565b600054610100900460ff166143ab5760405162461bcd60e51b8152600401610bb8906158b0565b606580546001600160a01b0319166001600160a01b0392909216919091179055565b60008082516041036144035760208301516040840151606085015160001a6143f78782858561479b565b9450945050505061440b565b506000905060025b9250929050565b6000816004811115614426576144266152cd565b0361442e5750565b6001816004811115614442576144426152cd565b0361448a5760405162461bcd60e51b815260206004820152601860248201527745434453413a20696e76616c6964207369676e617475726560401b6044820152606401610bb8565b600281600481111561449e5761449e6152cd565b036144eb5760405162461bcd60e51b815260206004820152601f60248201527f45434453413a20696e76616c6964207369676e6174757265206c656e677468006044820152606401610bb8565b60038160048111156144ff576144ff6152cd565b03610d915760405162461bcd60e51b815260206004820152602260248201527f45434453413a20696e76616c6964207369676e6174757265202773272076616c604482015261756560f01b6064820152608401610bb8565b602080820151600090815260cf909152604090205460ff16156145bc5760405162461bcd60e51b815260206004820152601e60248201527f4261736553747261746567793a3a416c726561647957697468647261776e00006044820152606401610bb8565b6000806145cc8360000151613d56565b91509150600060016040518060800160405280306001600160a01b031681526020018581526020018481526020018660200151815250604051602001614613929190615d80565b60408051601f19818403018152919052905082156146545760cb5461464f90849061ffff600160a01b820416906001600160a01b031684613303565b61465d565b61465d816133f1565b505050602090810151600090815260cf90915260409020805460ff19166001179055565b61468a81614852565b60ca546040516370a0823160e01b8152610d919183916001600160a01b03909116906370a082319061184c903090600401614c06565b6060824710156147215760405162461bcd60e51b815260206004820152602660248201527f416464726573733a20696e73756666696369656e742062616c616e636520666f6044820152651c8818d85b1b60d21b6064820152608401610bb8565b600080866001600160a01b0316858760405161473d919061554d565b60006040518083038185875af1925050503d806000811461477a576040519150601f19603f3d011682016040523d82523d6000602084013e61477f565b606091505b509150915061479087838387614a68565b979650505050505050565b6000806fa2a8918ca85bafe22016d0b997e4df60600160ff1b038311156147c85750600090506003613fea565b6040805160008082526020820180845289905260ff881692820192909252606081018690526080810185905260019060a0016020604051602081039080840390855afa15801561481c573d6000803e3d6000fd5b5050604051601f1901519150506001600160a01b03811661484557600060019250925050613fea565b9660009650945050505050565b600080516020615de3833981519152632e1a7d4d61486e611700565b6040518263ffffffff1660e01b815260040161488c91815260200190565b600060405180830381600087803b1580156148a657600080fd5b505af11580156148ba573d6000803e3d6000fd5b50506040516370a0823160e01b815261494c9250839150600080516020615e23833981519152906370a08231906148f5903090600401614c06565b602060405180830381865afa158015614912573d6000803e3d6000fd5b505050506040513d601f19601f8201168201806040525081019061493691906151ab565b600080516020615e2383398151915291906126aa565b6040516370a0823160e01b81526149da908290600080516020615e43833981519152906370a0823190614983903090600401614c06565b602060405180830381865afa1580156149a0573d6000803e3d6000fd5b505050506040513d601f19601f820116820180604052508101906149c491906151ab565b600080516020615e4383398151915291906126aa565b6040516370a0823160e01b8152610d91908290600080516020615e03833981519152906370a0823190614a11903090600401614c06565b602060405180830381865afa158015614a2e573d6000803e3d6000fd5b505050506040513d601f19601f82011682018060405250810190614a5291906151ab565b600080516020615e0383398151915291906126aa565b60608315614ad5578251600003614ace57614a8285612700565b614ace5760405162461bcd60e51b815260206004820152601d60248201527f416464726573733a2063616c6c20746f206e6f6e2d636f6e74726163740000006044820152606401610bb8565b5081611ae9565b611ae98383815115614aea5781518083602001fd5b8060405162461bcd60e51b8152600401610bb89190614c6a565b803561ffff81168114614b1657600080fd5b919050565b60008083601f840112614b2d57600080fd5b5081356001600160401b03811115614b4457600080fd5b60208301915083602082850101111561440b57600080fd5b80356001600160401b0381168114614b1657600080fd5b60008060008060008060808789031215614b8c57600080fd5b614b9587614b04565b955060208701356001600160401b0380821115614bb157600080fd5b614bbd8a838b01614b1b565b9097509550859150614bd160408a01614b5c565b94506060890135915080821115614be757600080fd5b50614bf489828a01614b1b565b979a9699509497509295939492505050565b6001600160a01b0391909116815260200190565b60005b83811015614c35578181015183820152602001614c1d565b50506000910152565b60008151808452614c56816020860160208601614c1a565b601f01601f19169290920160200192915050565b6020815260006111296020830184614c3e565b600060208284031215614c8f57600080fd5b61112982614b04565b60008060408385031215614cab57600080fd5b614cb483614b04565b946020939093013593505050565b6001600160a01b0381168114610d9157600080fd5b600060208284031215614ce957600080fd5b813561112981614cc2565b600080600080600080600080610100898b031215614d1157600080fd5b8835614d1c81614cc2565b97506020890135614d2c81614cc2565b96506040890135614d3c81614cc2565b95506060890135614d4c81614cc2565b9450614d5a60808a01614b04565b9350614d6860a08a01614b04565b925060c0890135614d7881614cc2565b915060e0890135614d8881614cc2565b809150509295985092959890939650565b6001600160a01b03169052565b600060208284031215614db857600080fd5b5035919050565b600080600060408486031215614dd457600080fd5b614ddd84614b04565b925060208401356001600160401b03811115614df857600080fd5b614e0486828701614b1b565b9497909650939450505050565b8015158114610d9157600080fd5b600060208284031215614e3157600080fd5b813561112981614e11565b634e487b7160e01b600052604160045260246000fd5b604051602081016001600160401b0381118282101715614e7457614e74614e3c565b60405290565b604051601f8201601f191681016001600160401b0381118282101715614ea257614ea2614e3c565b604052919050565b60006001600160401b03821115614ec357614ec3614e3c565b50601f01601f191660200190565b600082601f830112614ee257600080fd5b8135614ef5614ef082614eaa565b614e7a565b818152846020838601011115614f0a57600080fd5b816020850160208301376000918101602001919091529392505050565b600080600080600060a08688031215614f3f57600080fd5b8535945060208601359350604086013592506060860135915060808601356001600160401b03811115614f7157600080fd5b614f7d88828901614ed1565b9150509295509295909350565b600080600060608486031215614f9f57600080fd5b614fa884614b04565b925060208401356001600160401b03811115614fc357600080fd5b614fcf86828701614ed1565b925050614fde60408501614b5c565b90509250925092565b60008060408385031215614ffa57600080fd5b61500383614b04565b915061501160208401614b04565b90509250929050565b60008060008060008060c0878903121561503357600080fd5b61503c87614b04565b955060208701356001600160401b038082111561505857600080fd5b6150648a838b01614ed1565b9650604089013595506060890135915061507d82614cc2565b9093506080880135925060a0880135908082111561509a57600080fd5b506150a789828a01614ed1565b9150509295509295509295565b6000806000806000608086880312156150cc57600080fd5b6150d586614b04565b94506150e360208701614b04565b93506040860135925060608601356001600160401b0381111561510557600080fd5b61511188828901614b1b565b969995985093965092949392505050565b60008060006060848603121561513757600080fd5b61514084614b04565b925061514e60208501614b04565b9150604084013590509250925092565b6000806000806080858703121561517457600080fd5b61517d85614b04565b935061518b60208601614b04565b9250604085013561519b81614cc2565b9396929550929360600135925050565b6000602082840312156151bd57600080fd5b5051919050565b600181811c908216806151d857607f821691505b6020821081036151f857634e487b7160e01b600052602260045260246000fd5b50919050565b8183823760009101908152919050565b60006020828403121561522057600080fd5b815160ff8116811461112957600080fd5b81835281816020850137506000828201602090810191909152601f909101601f19169091010190565b61ffff8416815260406020820152600061231a604083018486615231565b634e487b7160e01b600052601160045260246000fd5b818103818111156111b8576111b8615278565b808201808211156111b8576111b8615278565b6000600182016152c6576152c6615278565b5060010190565b634e487b7160e01b600052602160045260246000fd5b6005811061530157634e487b7160e01b600052602160045260246000fd5b9052565b61530f81846152e3565b60406020820152615324604082018351614d99565b6020820151606082015260408201516080820152606082015160a0820152608082015160c082015260a082015160e0820152600060c0830151610100818185015260e0850151915061012082818601528186015192506101409150828286015280860151925050610160828186015281860151925080610180860152505061231a6101a0840182614c3e565b6001600160a01b03929092168252602082015260400190565b8284823760609190911b6001600160601b0319169101908152601401919050565b601f821115611d7157600081815260208120601f850160051c810160208610156154115750805b601f850160051c820191505b81811015610c375782815560010161541d565b600019600383901b1c191660019190911b1790565b81516001600160401b0381111561545e5761545e614e3c565b6154728161546c84546151c4565b846153ea565b602080601f8311600181146154a1576000841561548f5750858301515b6154998582615430565b865550610c37565b600085815260208120601f198616915b828110156154d0578886015182559484019460019091019084016154b1565b50858210156154ee5787850151600019600388901b60f8161c191681555b5050505050600190811b01905550565b6001600160a01b03948516815292909316602083015215156040820152606081019190915260800190565b6000806040838503121561553c57600080fd5b505080516020909101519092909150565b6000825161555f818460208701614c1a565b9190910192915050565b805160208201516001600160601b031980821692919060148310156155985780818460140360031b1b83161693505b505050919050565b9182526001600160a01b0316602082015260400190565b600061ffff808816835280871660208401525084604083015260806060830152614790608083018486615231565b61ffff86168152608060208201526000615603608083018688615231565b6001600160401b0394909416604083015250606001529392505050565b6001600160401b0383111561563757615637614e3c565b61564b8361564583546151c4565b836153ea565b6000601f84116001811461567957600085156156675750838201355b6156718682615430565b845550610ca5565b600083815260209020601f19861690835b828110156156aa578685013582556020948501946001909201910161568a565b50868210156156c75760001960f88860031b161c19848701351681555b505060018560011b0183555050505050565b6000602082840312156156eb57600080fd5b81516001600160401b0381111561570157600080fd5b8201601f8101841361571257600080fd5b8051615720614ef082614eaa565b81815285602083850101111561573557600080fd5b61231a826020830160208601614c1a565b600181815b8085111561578157816000190482111561576757615767615278565b8085161561577457918102915b93841c939080029061574b565b509250929050565b600082615798575060016111b8565b816157a5575060006111b8565b81600181146157bb57600281146157c5576157e1565b60019150506111b8565b60ff8411156157d6576157d6615278565b50506001821b6111b8565b5060208310610133831016604e8410600b8410161715615804575081810a6111b8565b61580e8383615746565b806000190482111561582257615822615278565b029392505050565b600061112960ff841683615789565b80820281158282048414176111b8576111b8615278565b60008261586d57634e487b7160e01b600052601260045260246000fd5b500490565b61ffff8516815260806020820152600061588f6080830186614c3e565b6001600160401b038516604084015282810360608401526147908185614c3e565b6020808252602b908201527f496e697469616c697a61626c653a20636f6e7472616374206973206e6f74206960408201526a6e697469616c697a696e6760a81b606082015260800190565b60006020828403121561590d57600080fd5b815161112981614e11565b60208152600082516080602084015261593460a0840182614c3e565b905060018060a01b03602085015116604084015260408401516060840152606084015160808401528091505092915050565b60008060006060848603121561597b57600080fd5b8351925060208401519150604084015190509250925092565b60ff82811682821603908111156111b8576111b8615278565b61ffff841681526001600160a01b038316602082015260606040820181905260009061231a90830184614c3e565b6001600160a01b0386811682526020820186905261ffff851660408301528316606082015260a06080820181905260009061479090830184614c3e565b61ffff861681526001600160a01b038516602082015260a060408201819052600090615a4690830186614c3e565b84151560608401528281036080840152615a608185614c3e565b98975050505050505050565b61ffff8716815260c060208201526000615a8960c0830188614c3e565b8281036040840152615a9b8188614c3e565b6001600160a01b0387811660608601528616608085015283810360a08501529050615ac68185614c3e565b9998505050505050505050565b634e487b7160e01b600052603260045260246000fd5b600060a0820187835260208781850152604060a08186015282885180855260c087019150838a01945060005b81811015615b5257855180516001600160a01b03908116855286820151168685015284015115158484015294840194606090920191600101615b15565b505080945050505050615b686060830185614d99565b8260808301529695505050505050565b60006020808385031215615b8b57600080fd5b82516001600160401b0380821115615ba257600080fd5b818501915085601f830112615bb657600080fd5b815181811115615bc857615bc8614e3c565b8060051b9150615bd9848301614e7a565b8181529183018401918481019088841115615bf357600080fd5b938501935b83851015615a6057845182529385019390850190615bf8565b61ffff8616815260a060208201526000615c2e60a0830187614c3e565b6001600160401b03861660408401528281036060840152615c4f8186614c3e565b90508281036080840152615a608185614c3e565b600060208284031215615c7557600080fd5b81516005811061112957600080fd5b6000808284036040811215615c9857600080fd5b835192506020601f1982011215615cae57600080fd5b50615cb7614e52565b6020939093015183525092909150565b6000808284036060811215615cdb57600080fd5b835192506040601f1982011215615cf157600080fd5b50604080519081016001600160401b0381118282101715615d1457615d14614e3c565b60409081526020858101518352940151938101939093525092909150565b6000808284036040811215615d4657600080fd5b835192506020601f1982011215615d5c57600080fd5b50615d65614e52565b6020840151615d7381614cc2565b8152919491935090915050565b60a08101615d8e82856152e3565b60018060a01b038351166020830152602083015160408301526040830151606083015260608301516080830152939250505056fe000000000000000000000000cc25c0fd84737f44a7d38649b69491bbf0c7f08300000000000000000000000097bd59a8202f8263c2ec39cf6cf6b438d0b458760000000000000000000000007238390d5f6f64e67c3211c343a410e2a3dec142000000000000000000000000d17cb0f162f133e339c0bbfc18c36c357e681d6b00000000000000000000000040379a439d4f6795b6fc9aa5687db461677a2dbab0c58532a125fc3c0adccaef396bf65344a4d5781cec2e4c593e6b611d75f150a264697066735822122074bcc1b1421da1404efc43f8178682f1e92df83abe479247999695ea3061e84e64736f6c63430008130033",
  "linkReferences": {},
  "deployedLinkReferences": {}
}