{
  "_format": "hh-sol-artifact-1",
  "contractName": "MockPearlStrategy",
  "sourceName": "contracts/mock/MockPearlStrategy.sol",
  "abi": [
    {
      "inputs": [
        {
          "internalType": "uint256",
          "name": "messageType",
          "type": "uint256"
        }
      ],
      "name": "IncorrectMessageType",
      "type": "error"
    },
    {
      "inputs": [
        {
          "internalType": "uint256",
          "name": "amount",
          "type": "uint256"
        },
        {
          "internalType": "uint256",
          "name": "balance",
          "type": "uint256"
        }
      ],
      "name": "InsufficientFunds",
      "type": "error"
    },
    {
      "inputs": [],
      "name": "SwapHelperOnly",
      "type": "error"
    },
    {
      "anonymous": false,
      "inputs": [
        {
          "indexed": false,
          "internalType": "uint256",
          "name": "debtOutstanding",
          "type": "uint256"
        }
      ],
      "name": "AdjustedPosition",
      "type": "event"
    },
    {
      "anonymous": false,
      "inputs": [
        {
          "indexed": true,
          "internalType": "address",
          "name": "src",
          "type": "address"
        },
        {
          "indexed": true,
          "internalType": "address",
          "name": "dst",
          "type": "address"
        },
        {
          "indexed": true,
          "internalType": "uint256",
          "name": "amount",
          "type": "uint256"
        },
        {
          "indexed": false,
          "internalType": "bytes",
          "name": "lowLevelErrorData",
          "type": "bytes"
        }
      ],
      "name": "EmergencyQuoteOnAlternativeDEX",
      "type": "event"
    },
    {
      "anonymous": false,
      "inputs": [
        {
          "indexed": true,
          "internalType": "address",
          "name": "src",
          "type": "address"
        },
        {
          "indexed": true,
          "internalType": "address",
          "name": "dst",
          "type": "address"
        },
        {
          "indexed": true,
          "internalType": "uint256",
          "name": "amount",
          "type": "uint256"
        },
        {
          "indexed": false,
          "internalType": "bytes",
          "name": "lowLevelErrorData",
          "type": "bytes"
        }
      ],
      "name": "EmergencySwapOnAlternativeDEX",
      "type": "event"
    },
    {
      "anonymous": false,
      "inputs": [
        {
          "indexed": false,
          "internalType": "uint8",
          "name": "version",
          "type": "uint8"
        }
      ],
      "name": "Initialized",
      "type": "event"
    },
    {
      "anonymous": false,
      "inputs": [
        {
          "indexed": false,
          "internalType": "uint16",
          "name": "_srcChainId",
          "type": "uint16"
        },
        {
          "indexed": false,
          "internalType": "bytes",
          "name": "_srcAddress",
          "type": "bytes"
        },
        {
          "indexed": false,
          "internalType": "uint64",
          "name": "_nonce",
          "type": "uint64"
        },
        {
          "indexed": false,
          "internalType": "bytes",
          "name": "_payload",
          "type": "bytes"
        },
        {
          "indexed": false,
          "internalType": "bytes",
          "name": "_reason",
          "type": "bytes"
        }
      ],
      "name": "MessageFailed",
      "type": "event"
    },
    {
      "anonymous": false,
      "inputs": [
        {
          "indexed": true,
          "internalType": "address",
          "name": "src",
          "type": "address"
        },
        {
          "indexed": true,
          "internalType": "address",
          "name": "dst",
          "type": "address"
        },
        {
          "indexed": true,
          "internalType": "uint256",
          "name": "amountOut",
          "type": "uint256"
        },
        {
          "indexed": false,
          "internalType": "uint256",
          "name": "amountIn",
          "type": "uint256"
        }
      ],
      "name": "Notified",
      "type": "event"
    },
    {
      "anonymous": false,
      "inputs": [
        {
          "indexed": true,
          "internalType": "address",
          "name": "previousOwner",
          "type": "address"
        },
        {
          "indexed": true,
          "internalType": "address",
          "name": "newOwner",
          "type": "address"
        }
      ],
      "name": "OwnershipTransferred",
      "type": "event"
    },
    {
      "anonymous": false,
      "inputs": [
        {
          "indexed": true,
          "internalType": "address",
          "name": "src",
          "type": "address"
        },
        {
          "indexed": true,
          "internalType": "address",
          "name": "dst",
          "type": "address"
        },
        {
          "indexed": true,
          "internalType": "uint256",
          "name": "amount",
          "type": "uint256"
        }
      ],
      "name": "Quote",
      "type": "event"
    },
    {
      "anonymous": false,
      "inputs": [
        {
          "indexed": false,
          "internalType": "uint16",
          "name": "_srcChainId",
          "type": "uint16"
        },
        {
          "indexed": false,
          "internalType": "bytes",
          "name": "_srcAddress",
          "type": "bytes"
        },
        {
          "indexed": false,
          "internalType": "uint64",
          "name": "_nonce",
          "type": "uint64"
        },
        {
          "indexed": false,
          "internalType": "bytes32",
          "name": "_payloadHash",
          "type": "bytes32"
        }
      ],
      "name": "RetryMessageSuccess",
      "type": "event"
    },
    {
      "anonymous": false,
      "inputs": [
        {
          "indexed": false,
          "internalType": "uint16",
          "name": "_dstChainId",
          "type": "uint16"
        },
        {
          "indexed": false,
          "internalType": "uint16",
          "name": "_type",
          "type": "uint16"
        },
        {
          "indexed": false,
          "internalType": "uint256",
          "name": "_minDstGas",
          "type": "uint256"
        }
      ],
      "name": "SetMinDstGas",
      "type": "event"
    },
    {
      "anonymous": false,
      "inputs": [
        {
          "indexed": false,
          "internalType": "address",
          "name": "precrime",
          "type": "address"
        }
      ],
      "name": "SetPrecrime",
      "type": "event"
    },
    {
      "anonymous": false,
      "inputs": [
        {
          "indexed": false,
          "internalType": "uint16",
          "name": "_remoteChainId",
          "type": "uint16"
        },
        {
          "indexed": false,
          "internalType": "bytes",
          "name": "_path",
          "type": "bytes"
        }
      ],
      "name": "SetTrustedRemote",
      "type": "event"
    },
    {
      "anonymous": false,
      "inputs": [
        {
          "indexed": false,
          "internalType": "uint16",
          "name": "_remoteChainId",
          "type": "uint16"
        },
        {
          "indexed": false,
          "internalType": "bytes",
          "name": "_remoteAddress",
          "type": "bytes"
        }
      ],
      "name": "SetTrustedRemoteAddress",
      "type": "event"
    },
    {
      "anonymous": false,
      "inputs": [
        {
          "indexed": true,
          "internalType": "address",
          "name": "token",
          "type": "address"
        },
        {
          "indexed": false,
          "internalType": "uint256",
          "name": "amount",
          "type": "uint256"
        },
        {
          "indexed": false,
          "internalType": "address",
          "name": "sender",
          "type": "address"
        }
      ],
      "name": "SgReceived",
      "type": "event"
    },
    {
      "anonymous": false,
      "inputs": [
        {
          "indexed": false,
          "internalType": "address",
          "name": "newStrategy",
          "type": "address"
        }
      ],
      "name": "StrategyMigrated",
      "type": "event"
    },
    {
      "anonymous": false,
      "inputs": [
        {
          "indexed": false,
          "internalType": "uint256",
          "name": "profit",
          "type": "uint256"
        },
        {
          "indexed": false,
          "internalType": "uint256",
          "name": "loss",
          "type": "uint256"
        },
        {
          "indexed": false,
          "internalType": "uint256",
          "name": "debtPayment",
          "type": "uint256"
        },
        {
          "indexed": false,
          "internalType": "uint256",
          "name": "giveToStrategy",
          "type": "uint256"
        },
        {
          "indexed": false,
          "internalType": "uint256",
          "name": "requestFromStrategy",
          "type": "uint256"
        },
        {
          "indexed": false,
          "internalType": "uint256",
          "name": "creditAvailable",
          "type": "uint256"
        },
        {
          "indexed": false,
          "internalType": "uint256",
          "name": "totalAssets",
          "type": "uint256"
        }
      ],
      "name": "StrategyReported",
      "type": "event"
    },
    {
      "anonymous": false,
      "inputs": [
        {
          "indexed": true,
          "internalType": "address",
          "name": "src",
          "type": "address"
        },
        {
          "indexed": true,
          "internalType": "address",
          "name": "dst",
          "type": "address"
        },
        {
          "indexed": true,
          "internalType": "uint256",
          "name": "amount",
          "type": "uint256"
        }
      ],
      "name": "Swap",
      "type": "event"
    },
    {
      "inputs": [],
      "name": "DEFAULT_PAYLOAD_SIZE_LIMIT",
      "outputs": [
        {
          "internalType": "uint256",
          "name": "",
          "type": "uint256"
        }
      ],
      "stateMutability": "view",
      "type": "function"
    },
    {
      "inputs": [
        {
          "internalType": "uint256",
          "name": "_debtOutstanding",
          "type": "uint256"
        }
      ],
      "name": "adjustPosition",
      "outputs": [],
      "stateMutability": "nonpayable",
      "type": "function"
    },
    {
      "inputs": [],
      "name": "balanceOfLpStaked",
      "outputs": [
        {
          "internalType": "uint256",
          "name": "",
          "type": "uint256"
        }
      ],
      "stateMutability": "view",
      "type": "function"
    },
    {
      "inputs": [],
      "name": "balanceOfPearlRewards",
      "outputs": [
        {
          "internalType": "uint256",
          "name": "",
          "type": "uint256"
        }
      ],
      "stateMutability": "view",
      "type": "function"
    },
    {
      "inputs": [],
      "name": "balanceOfWant",
      "outputs": [
        {
          "internalType": "uint256",
          "name": "",
          "type": "uint256"
        }
      ],
      "stateMutability": "view",
      "type": "function"
    },
    {
      "inputs": [
        {
          "internalType": "uint256",
          "name": "epoch",
          "type": "uint256"
        }
      ],
      "name": "callMe",
      "outputs": [],
      "stateMutability": "nonpayable",
      "type": "function"
    },
    {
      "inputs": [],
      "name": "clearWant",
      "outputs": [],
      "stateMutability": "nonpayable",
      "type": "function"
    },
    {
      "inputs": [],
      "name": "currentChainId",
      "outputs": [
        {
          "internalType": "uint16",
          "name": "",
          "type": "uint16"
        }
      ],
      "stateMutability": "view",
      "type": "function"
    },
    {
      "inputs": [
        {
          "internalType": "uint256",
          "name": "_daiAmount",
          "type": "uint256"
        }
      ],
      "name": "daiToWant",
      "outputs": [
        {
          "internalType": "uint256",
          "name": "",
          "type": "uint256"
        }
      ],
      "stateMutability": "view",
      "type": "function"
    },
    {
      "inputs": [],
      "name": "emergencyExit",
      "outputs": [
        {
          "internalType": "bool",
          "name": "",
          "type": "bool"
        }
      ],
      "stateMutability": "view",
      "type": "function"
    },
    {
      "inputs": [],
      "name": "estimatedTotalAssets",
      "outputs": [
        {
          "internalType": "uint256",
          "name": "",
          "type": "uint256"
        }
      ],
      "stateMutability": "view",
      "type": "function"
    },
    {
      "inputs": [
        {
          "internalType": "uint256",
          "name": "_stakedLpTokens",
          "type": "uint256"
        }
      ],
      "name": "exitPosition",
      "outputs": [],
      "stateMutability": "nonpayable",
      "type": "function"
    },
    {
      "inputs": [
        {
          "internalType": "uint16",
          "name": "",
          "type": "uint16"
        },
        {
          "internalType": "bytes",
          "name": "",
          "type": "bytes"
        },
        {
          "internalType": "uint64",
          "name": "",
          "type": "uint64"
        }
      ],
      "name": "failedMessages",
      "outputs": [
        {
          "internalType": "bytes32",
          "name": "",
          "type": "bytes32"
        }
      ],
      "stateMutability": "view",
      "type": "function"
    },
    {
      "inputs": [
        {
          "internalType": "uint16",
          "name": "_srcChainId",
          "type": "uint16"
        },
        {
          "internalType": "bytes",
          "name": "_srcAddress",
          "type": "bytes"
        }
      ],
      "name": "forceResumeReceive",
      "outputs": [],
      "stateMutability": "nonpayable",
      "type": "function"
    },
    {
      "inputs": [
        {
          "internalType": "uint16",
          "name": "_version",
          "type": "uint16"
        },
        {
          "internalType": "uint16",
          "name": "_chainId",
          "type": "uint16"
        },
        {
          "internalType": "address",
          "name": "",
          "type": "address"
        },
        {
          "internalType": "uint256",
          "name": "_configType",
          "type": "uint256"
        }
      ],
      "name": "getConfig",
      "outputs": [
        {
          "internalType": "bytes",
          "name": "",
          "type": "bytes"
        }
      ],
      "stateMutability": "view",
      "type": "function"
    },
    {
      "inputs": [
        {
          "internalType": "bytes32",
          "name": "_messageHash",
          "type": "bytes32"
        }
      ],
      "name": "getEthSignedMessageHash",
      "outputs": [
        {
          "internalType": "bytes32",
          "name": "",
          "type": "bytes32"
        }
      ],
      "stateMutability": "pure",
      "type": "function"
    },
    {
      "inputs": [
        {
          "internalType": "uint16",
          "name": "_remoteChainId",
          "type": "uint16"
        }
      ],
      "name": "getTrustedRemoteAddress",
      "outputs": [
        {
          "internalType": "bytes",
          "name": "",
          "type": "bytes"
        }
      ],
      "stateMutability": "view",
      "type": "function"
    },
    {
      "inputs": [
        {
          "internalType": "uint256",
          "name": "_totalDebt",
          "type": "uint256"
        },
        {
          "internalType": "uint256",
          "name": "_debtOutstanding",
          "type": "uint256"
        },
        {
          "internalType": "uint256",
          "name": "_creditAvailable",
          "type": "uint256"
        },
        {
          "internalType": "uint256",
          "name": "_debtRatio",
          "type": "uint256"
        },
        {
          "internalType": "bytes",
          "name": "_signature",
          "type": "bytes"
        }
      ],
      "name": "harvest",
      "outputs": [],
      "stateMutability": "nonpayable",
      "type": "function"
    },
    {
      "inputs": [
        {
          "internalType": "address",
          "name": "_lzEndpoint",
          "type": "address"
        },
        {
          "internalType": "address",
          "name": "_strategist",
          "type": "address"
        },
        {
          "internalType": "contract IERC20",
          "name": "_want",
          "type": "address"
        },
        {
          "internalType": "address",
          "name": "_vault",
          "type": "address"
        },
        {
          "internalType": "uint16",
          "name": "_vaultChainId",
          "type": "uint16"
        },
        {
          "internalType": "uint16",
          "name": "_currentChainId",
          "type": "uint16"
        },
        {
          "internalType": "address",
          "name": "_sgBridge",
          "type": "address"
        },
        {
          "internalType": "address",
          "name": "_router",
          "type": "address"
        }
      ],
      "name": "initialize",
      "outputs": [],
      "stateMutability": "nonpayable",
      "type": "function"
    },
    {
      "inputs": [
        {
          "internalType": "uint16",
          "name": "_srcChainId",
          "type": "uint16"
        },
        {
          "internalType": "bytes",
          "name": "_srcAddress",
          "type": "bytes"
        }
      ],
      "name": "isTrustedRemote",
      "outputs": [
        {
          "internalType": "bool",
          "name": "",
          "type": "bool"
        }
      ],
      "stateMutability": "view",
      "type": "function"
    },
    {
      "inputs": [],
      "name": "liquidateAllPositions",
      "outputs": [
        {
          "internalType": "uint256",
          "name": "",
          "type": "uint256"
        }
      ],
      "stateMutability": "nonpayable",
      "type": "function"
    },
    {
      "inputs": [
        {
          "internalType": "uint256",
          "name": "_amountNeeded",
          "type": "uint256"
        }
      ],
      "name": "liquidatePosition",
      "outputs": [],
      "stateMutability": "nonpayable",
      "type": "function"
    },
    {
      "inputs": [],
      "name": "lzEndpoint",
      "outputs": [
        {
          "internalType": "contract ILayerZeroEndpointUpgradeable",
          "name": "",
          "type": "address"
        }
      ],
      "stateMutability": "view",
      "type": "function"
    },
    {
      "inputs": [
        {
          "internalType": "uint16",
          "name": "_srcChainId",
          "type": "uint16"
        },
        {
          "internalType": "bytes",
          "name": "_srcAddress",
          "type": "bytes"
        },
        {
          "internalType": "uint64",
          "name": "_nonce",
          "type": "uint64"
        },
        {
          "internalType": "bytes",
          "name": "_payload",
          "type": "bytes"
        }
      ],
      "name": "lzReceive",
      "outputs": [],
      "stateMutability": "nonpayable",
      "type": "function"
    },
    {
      "inputs": [
        {
          "internalType": "uint16",
          "name": "",
          "type": "uint16"
        },
        {
          "internalType": "uint16",
          "name": "",
          "type": "uint16"
        }
      ],
      "name": "minDstGasLookup",
      "outputs": [
        {
          "internalType": "uint256",
          "name": "",
          "type": "uint256"
        }
      ],
      "stateMutability": "view",
      "type": "function"
    },
    {
      "inputs": [],
      "name": "name",
      "outputs": [
        {
          "internalType": "string",
          "name": "",
          "type": "string"
        }
      ],
      "stateMutability": "pure",
      "type": "function"
    },
    {
      "inputs": [
        {
          "internalType": "uint16",
          "name": "_srcChainId",
          "type": "uint16"
        },
        {
          "internalType": "bytes",
          "name": "_srcAddress",
          "type": "bytes"
        },
        {
          "internalType": "uint64",
          "name": "_nonce",
          "type": "uint64"
        },
        {
          "internalType": "bytes",
          "name": "_payload",
          "type": "bytes"
        }
      ],
      "name": "nonblockingLzReceive",
      "outputs": [],
      "stateMutability": "nonpayable",
      "type": "function"
    },
    {
      "inputs": [
        {
          "internalType": "address",
          "name": "src",
          "type": "address"
        },
        {
          "internalType": "address",
          "name": "dst",
          "type": "address"
        },
        {
          "internalType": "uint256",
          "name": "amountOut",
          "type": "uint256"
        },
        {
          "internalType": "uint256",
          "name": "amountIn",
          "type": "uint256"
        }
      ],
      "name": "notifyCallback",
      "outputs": [],
      "stateMutability": "nonpayable",
      "type": "function"
    },
    {
      "inputs": [],
      "name": "owner",
      "outputs": [
        {
          "internalType": "address",
          "name": "",
          "type": "address"
        }
      ],
      "stateMutability": "view",
      "type": "function"
    },
    {
      "inputs": [
        {
          "internalType": "uint16",
          "name": "",
          "type": "uint16"
        }
      ],
      "name": "payloadSizeLimitLookup",
      "outputs": [
        {
          "internalType": "uint256",
          "name": "",
          "type": "uint256"
        }
      ],
      "stateMutability": "view",
      "type": "function"
    },
    {
      "inputs": [
        {
          "internalType": "uint256",
          "name": "_pearlAmount",
          "type": "uint256"
        }
      ],
      "name": "pearlToWant",
      "outputs": [
        {
          "internalType": "uint256",
          "name": "",
          "type": "uint256"
        }
      ],
      "stateMutability": "view",
      "type": "function"
    },
    {
      "inputs": [],
      "name": "precrime",
      "outputs": [
        {
          "internalType": "address",
          "name": "",
          "type": "address"
        }
      ],
      "stateMutability": "view",
      "type": "function"
    },
    {
      "inputs": [],
      "name": "renounceOwnership",
      "outputs": [],
      "stateMutability": "nonpayable",
      "type": "function"
    },
    {
      "inputs": [
        {
          "internalType": "uint16",
          "name": "_srcChainId",
          "type": "uint16"
        },
        {
          "internalType": "bytes",
          "name": "_srcAddress",
          "type": "bytes"
        },
        {
          "internalType": "uint64",
          "name": "_nonce",
          "type": "uint64"
        },
        {
          "internalType": "bytes",
          "name": "_payload",
          "type": "bytes"
        }
      ],
      "name": "retryMessage",
      "outputs": [],
      "stateMutability": "payable",
      "type": "function"
    },
    {
      "inputs": [],
      "name": "revokeFunds",
      "outputs": [],
      "stateMutability": "nonpayable",
      "type": "function"
    },
    {
      "inputs": [
        {
          "internalType": "uint256",
          "name": "_pearlAmount",
          "type": "uint256"
        }
      ],
      "name": "sellPearl",
      "outputs": [],
      "stateMutability": "nonpayable",
      "type": "function"
    },
    {
      "inputs": [
        {
          "internalType": "uint256",
          "name": "_usdrAmount",
          "type": "uint256"
        }
      ],
      "name": "sellUsdr",
      "outputs": [],
      "stateMutability": "nonpayable",
      "type": "function"
    },
    {
      "inputs": [
        {
          "internalType": "uint16",
          "name": "_version",
          "type": "uint16"
        },
        {
          "internalType": "uint16",
          "name": "_chainId",
          "type": "uint16"
        },
        {
          "internalType": "uint256",
          "name": "_configType",
          "type": "uint256"
        },
        {
          "internalType": "bytes",
          "name": "_config",
          "type": "bytes"
        }
      ],
      "name": "setConfig",
      "outputs": [],
      "stateMutability": "nonpayable",
      "type": "function"
    },
    {
      "inputs": [
        {
          "internalType": "bool",
          "name": "_emergencyExit",
          "type": "bool"
        }
      ],
      "name": "setEmergencyExit",
      "outputs": [],
      "stateMutability": "nonpayable",
      "type": "function"
    },
    {
      "inputs": [
        {
          "internalType": "uint16",
          "name": "_dstChainId",
          "type": "uint16"
        },
        {
          "internalType": "uint16",
          "name": "_packetType",
          "type": "uint16"
        },
        {
          "internalType": "uint256",
          "name": "_minGas",
          "type": "uint256"
        }
      ],
      "name": "setMinDstGas",
      "outputs": [],
      "stateMutability": "nonpayable",
      "type": "function"
    },
    {
      "inputs": [
        {
          "internalType": "uint16",
          "name": "_dstChainId",
          "type": "uint16"
        },
        {
          "internalType": "uint256",
          "name": "_size",
          "type": "uint256"
        }
      ],
      "name": "setPayloadSizeLimit",
      "outputs": [],
      "stateMutability": "nonpayable",
      "type": "function"
    },
    {
      "inputs": [
        {
          "internalType": "address",
          "name": "_precrime",
          "type": "address"
        }
      ],
      "name": "setPrecrime",
      "outputs": [],
      "stateMutability": "nonpayable",
      "type": "function"
    },
    {
      "inputs": [
        {
          "internalType": "uint16",
          "name": "_version",
          "type": "uint16"
        }
      ],
      "name": "setReceiveVersion",
      "outputs": [],
      "stateMutability": "nonpayable",
      "type": "function"
    },
    {
      "inputs": [
        {
          "internalType": "uint16",
          "name": "_version",
          "type": "uint16"
        }
      ],
      "name": "setSendVersion",
      "outputs": [],
      "stateMutability": "nonpayable",
      "type": "function"
    },
    {
      "inputs": [
        {
          "internalType": "uint256",
          "name": "_slippage",
          "type": "uint256"
        }
      ],
      "name": "setSlippage",
      "outputs": [],
      "stateMutability": "nonpayable",
      "type": "function"
    },
    {
      "inputs": [
        {
          "internalType": "address",
          "name": "_strategist",
          "type": "address"
        }
      ],
      "name": "setStrategist",
      "outputs": [],
      "stateMutability": "nonpayable",
      "type": "function"
    },
    {
      "inputs": [
        {
          "components": [
            {
              "internalType": "contract ISwapHelper",
              "name": "swapHelper",
              "type": "address"
            },
            {
              "internalType": "uint256",
              "name": "quoteBuffer",
              "type": "uint256"
            },
            {
              "internalType": "bool",
              "name": "isQuoteBufferContainsHopToWantValue",
              "type": "bool"
            }
          ],
          "internalType": "struct SwapHelperDTO",
          "name": "__swapHelperDTO",
          "type": "tuple"
        }
      ],
      "name": "setSwapHelperDTO",
      "outputs": [],
      "stateMutability": "nonpayable",
      "type": "function"
    },
    {
      "inputs": [
        {
          "internalType": "uint16",
          "name": "_srcChainId",
          "type": "uint16"
        },
        {
          "internalType": "bytes",
          "name": "_path",
          "type": "bytes"
        }
      ],
      "name": "setTrustedRemote",
      "outputs": [],
      "stateMutability": "nonpayable",
      "type": "function"
    },
    {
      "inputs": [
        {
          "internalType": "uint16",
          "name": "_remoteChainId",
          "type": "uint16"
        },
        {
          "internalType": "bytes",
          "name": "_remoteAddress",
          "type": "bytes"
        }
      ],
      "name": "setTrustedRemoteAddress",
      "outputs": [],
      "stateMutability": "nonpayable",
      "type": "function"
    },
    {
      "inputs": [],
      "name": "sgBridge",
      "outputs": [
        {
          "internalType": "contract ISgBridge",
          "name": "",
          "type": "address"
        }
      ],
      "stateMutability": "view",
      "type": "function"
    },
    {
      "inputs": [
        {
          "internalType": "uint16",
          "name": "",
          "type": "uint16"
        },
        {
          "internalType": "bytes",
          "name": "_srcAddress",
          "type": "bytes"
        },
        {
          "internalType": "uint256",
          "name": "",
          "type": "uint256"
        },
        {
          "internalType": "address",
          "name": "_token",
          "type": "address"
        },
        {
          "internalType": "uint256",
          "name": "_amountLD",
          "type": "uint256"
        },
        {
          "internalType": "bytes",
          "name": "",
          "type": "bytes"
        }
      ],
      "name": "sgReceive",
      "outputs": [],
      "stateMutability": "nonpayable",
      "type": "function"
    },
    {
      "inputs": [],
      "name": "sgRouter",
      "outputs": [
        {
          "internalType": "contract IStargateRouter",
          "name": "",
          "type": "address"
        }
      ],
      "stateMutability": "view",
      "type": "function"
    },
    {
      "inputs": [],
      "name": "slippage",
      "outputs": [
        {
          "internalType": "uint256",
          "name": "",
          "type": "uint256"
        }
      ],
      "stateMutability": "view",
      "type": "function"
    },
    {
      "inputs": [],
      "name": "strategist",
      "outputs": [
        {
          "internalType": "address",
          "name": "",
          "type": "address"
        }
      ],
      "stateMutability": "view",
      "type": "function"
    },
    {
      "inputs": [],
      "name": "strategistSignMessageHash",
      "outputs": [
        {
          "internalType": "bytes32",
          "name": "",
          "type": "bytes32"
        }
      ],
      "stateMutability": "view",
      "type": "function"
    },
    {
      "inputs": [],
      "name": "swapHelper",
      "outputs": [
        {
          "internalType": "contract ISwapHelper",
          "name": "",
          "type": "address"
        }
      ],
      "stateMutability": "view",
      "type": "function"
    },
    {
      "inputs": [
        {
          "internalType": "contract IERC20",
          "name": "_token",
          "type": "address"
        }
      ],
      "name": "sweepToken",
      "outputs": [],
      "stateMutability": "nonpayable",
      "type": "function"
    },
    {
      "inputs": [
        {
          "internalType": "address",
          "name": "newOwner",
          "type": "address"
        }
      ],
      "name": "transferOwnership",
      "outputs": [],
      "stateMutability": "nonpayable",
      "type": "function"
    },
    {
      "inputs": [
        {
          "internalType": "uint16",
          "name": "",
          "type": "uint16"
        }
      ],
      "name": "trustedRemoteLookup",
      "outputs": [
        {
          "internalType": "bytes",
          "name": "",
          "type": "bytes"
        }
      ],
      "stateMutability": "view",
      "type": "function"
    },
    {
      "inputs": [
        {
          "internalType": "uint256",
          "name": "_usdrLpAmount",
          "type": "uint256"
        }
      ],
      "name": "usdrLpToWant",
      "outputs": [
        {
          "internalType": "uint256",
          "name": "",
          "type": "uint256"
        }
      ],
      "stateMutability": "view",
      "type": "function"
    },
    {
      "inputs": [
        {
          "internalType": "uint256",
          "name": "_usdrAmount",
          "type": "uint256"
        }
      ],
      "name": "usdrToWant",
      "outputs": [
        {
          "internalType": "uint256",
          "name": "",
          "type": "uint256"
        }
      ],
      "stateMutability": "view",
      "type": "function"
    },
    {
      "inputs": [],
      "name": "vault",
      "outputs": [
        {
          "internalType": "address",
          "name": "",
          "type": "address"
        }
      ],
      "stateMutability": "view",
      "type": "function"
    },
    {
      "inputs": [],
      "name": "vaultChainId",
      "outputs": [
        {
          "internalType": "uint16",
          "name": "",
          "type": "uint16"
        }
      ],
      "stateMutability": "view",
      "type": "function"
    },
    {
      "inputs": [],
      "name": "want",
      "outputs": [
        {
          "internalType": "contract IERC20",
          "name": "",
          "type": "address"
        }
      ],
      "stateMutability": "view",
      "type": "function"
    },
    {
      "inputs": [],
      "name": "wantDecimals",
      "outputs": [
        {
          "internalType": "uint8",
          "name": "",
          "type": "uint8"
        }
      ],
      "stateMutability": "view",
      "type": "function"
    },
    {
      "inputs": [
        {
          "internalType": "uint256",
          "name": "_wantAmount",
          "type": "uint256"
        }
      ],
      "name": "wantToUsdrLp",
      "outputs": [
        {
          "internalType": "uint256",
          "name": "",
          "type": "uint256"
        }
      ],
      "stateMutability": "view",
      "type": "function"
    },
    {
      "inputs": [
        {
          "internalType": "uint256",
          "name": "_amountNeeded",
          "type": "uint256"
        }
      ],
      "name": "withdrawSome",
      "outputs": [],
      "stateMutability": "nonpayable",
      "type": "function"
    },
    {
      "stateMutability": "payable",
      "type": "receive"
    }
  ],
  "bytecode": "0x608060405234801561001057600080fd5b5061658980620000216000396000f3fe6080604052600436106102f75760003560e01c80621d3567146103035780630517cb761461032557806306fdde031461035b57806307e0db171461039a5780630df37483146103ba5780630fc6a11c146103da57806310ddb137146103fa5780631be195601461041a5780631cdb539f1461043a5780631f1fcd511461045a5780631fe4a6861461047a5780632d6068431461049a57806337fded91146104af5780633d3ccc2f146104d45780633d8b38f6146104f45780633e032a3b146105245780633eae1112146105485780633f1f4fa41461056857806342d65a8d1461059557806345ee0755146105b5578063495f881e146105d55780634a5f58d1146105f557806350bb4beb146106155780635641ec031461062a578063567ad85d14610644578063593178de146106795780635b8c41e61461068e57806366ad5c8a146106dd5780636cbadbfa146106fd578063715018a61461071f5780637533d7881461073457806378dc9059146107545780638cfd8f5c146107745780638da5cb5b146107ac5780638f4508d0146107c1578063950c8a74146107d65780639589c990146107f65780639606647d146108165780639f38369a1461082b578063a4ef57ab1461084b578063a6c3d1651461086b578063a9e508241461088b578063ab8236f3146108ab578063adf076e6146108cb578063ae9b051c146108fe578063b353aaa71461091e578063baf3292d1461093e578063bd79ac131461095e578063c1a3d44c1461097e578063c446183414610993578063c7b9d530146109a9578063cbed8b9c146109c9578063cdddd4e5146109e9578063d1deba1f14610a09578063d56739ac14610a1c578063df2a5b3b14610a31578063e73620c314610a51578063e964404414610a71578063eb8d72b714610a91578063efbb5cb014610ab1578063f056dffe14610ac6578063f0fa55a914610ae6578063f2fde38b14610b06578063f5ecbdbc14610b26578063fa54080114610b46578063fbfa77cf14610b66578063fcb988a414610b8657600080fd5b366102fe57005b600080fd5b34801561030f57600080fd5b5061032361031e36600461516b565b610ba6565b005b34801561033157600080fd5b5060ce54610345906001600160a01b031681565b60405161035291906151fe565b60405180910390f35b34801561036757600080fd5b5060408051808201909152600d81526c506561726c537472617465677960981b60208201525b6040516103529190615262565b3480156103a657600080fd5b506103236103b5366004615275565b610c8f565b3480156103c657600080fd5b506103236103d5366004615290565b610cfc565b3480156103e657600080fd5b5060d454610345906001600160a01b031681565b34801561040657600080fd5b50610323610415366004615275565b610d1b565b34801561042657600080fd5b506103236104353660046152cf565b610d57565b34801561044657600080fd5b506103236104553660046152ec565b610de4565b34801561046657600080fd5b5060ca54610345906001600160a01b031681565b34801561048657600080fd5b5060c954610345906001600160a01b031681565b3480156104a657600080fd5b5061032361103c565b3480156104bb57600080fd5b5060cd546103459061010090046001600160a01b031681565b3480156104e057600080fd5b506103236104ef36600461539e565b61107d565b34801561050057600080fd5b5061051461050f3660046153b7565b6110b3565b6040519015158152602001610352565b34801561053057600080fd5b5061053a60cc5481565b604051908152602001610352565b34801561055457600080fd5b5061053a61056336600461539e565b611180565b34801561057457600080fd5b5061053a610583366004615275565b60686020526000908152604090205481565b3480156105a157600080fd5b506103236105b03660046153b7565b611211565b3480156105c157600080fd5b506103236105d0366004615417565b611284565b3480156105e157600080fd5b506103236105f036600461551f565b61129f565b34801561060157600080fd5b5061032361061036600461539e565b611543565b34801561062157600080fd5b5061053a611572565b34801561063657600080fd5b5060cd546105149060ff1681565b34801561065057600080fd5b5060cb5461066690600160a01b900461ffff1681565b60405161ffff9091168152602001610352565b34801561068557600080fd5b5061053a611581565b34801561069a57600080fd5b5061053a6106a9366004615582565b6097602090815260009384526040808520845180860184018051928152908401958401959095209452929052825290205481565b3480156106e957600080fd5b506103236106f836600461516b565b6115df565b34801561070957600080fd5b5060cb5461066690600160b01b900461ffff1681565b34801561072b57600080fd5b506103236116b3565b34801561074057600080fd5b5061038d61074f366004615275565b6116c7565b34801561076057600080fd5b5061032361076f36600461539e565b611761565b34801561078057600080fd5b5061053a61078f3660046155df565b606760209081526000928352604080842090915290825290205481565b3480156107b857600080fd5b5061034561176a565b3480156107cd57600080fd5b5061053a611779565b3480156107e257600080fd5b50606954610345906001600160a01b031681565b34801561080257600080fd5b5061053a61081136600461539e565b6117ee565b34801561082257600080fd5b5061032361183c565b34801561083757600080fd5b5061038d610846366004615275565b6118cf565b34801561085757600080fd5b50610323610866366004615612565b6119de565b34801561087757600080fd5b506103236108863660046153b7565b611a26565b34801561089757600080fd5b5061053a6108a636600461539e565b611aaf565b3480156108b757600080fd5b506103236108c636600461567a565b611b68565b3480156108d757600080fd5b5060cb546108ec90600160c01b900460ff1681565b60405160ff9091168152602001610352565b34801561090a57600080fd5b5061032361091936600461539e565b611c62565b34801561092a57600080fd5b50606554610345906001600160a01b031681565b34801561094a57600080fd5b506103236109593660046152cf565b611c6b565b34801561096a57600080fd5b5061053a61097936600461539e565b611cbe565b34801561098a57600080fd5b5061053a611d4c565b34801561099f57600080fd5b5061053a61271081565b3480156109b557600080fd5b506103236109c43660046152cf565b611d7d565b3480156109d557600080fd5b506103236109e4366004615714565b611da7565b3480156109f557600080fd5b50610323610a0436600461539e565b611e15565b610323610a1736600461516b565b611e23565b348015610a2857600080fd5b5061053a612039565b348015610a3d57600080fd5b50610323610a4c366004615782565b61206b565b348015610a5d57600080fd5b50610323610a6c36600461539e565b61211d565b348015610a7d57600080fd5b50610323610a8c36600461539e565b61213d565b348015610a9d57600080fd5b50610323610aac3660046153b7565b61216c565b348015610abd57600080fd5b5061053a6121c6565b348015610ad257600080fd5b50610323610ae13660046157be565b6122e0565b348015610af257600080fd5b50610323610b0136600461539e565b61235f565b348015610b1257600080fd5b50610323610b213660046152cf565b61236c565b348015610b3257600080fd5b5061038d610b41366004615804565b6123e2565b348015610b5257600080fd5b5061053a610b6136600461539e565b612475565b348015610b7257600080fd5b5060cb54610345906001600160a01b031681565b348015610b9257600080fd5b5061053a610ba136600461539e565b6124c7565b6065546001600160a01b03163314610c115760405162461bcd60e51b815260206004820152602360248201527f4261736553747261746567793a3a496e76616c6964456e64706f696e7443616c6044820152623632b960e91b60648201526084015b60405180910390fd5b610c878686868080601f01602080910402602001604051908101604052809392919081815260200183838082843760009201919091525050604080516020601f8901819004810282018101909252878152899350915087908790819084018382808284376000920191909152506126cb92505050565b505050505050565b610c97612744565b6065546040516307e0db1760e01b815261ffff831660048201526001600160a01b03909116906307e0db17906024015b600060405180830381600087803b158015610ce157600080fd5b505af1158015610cf5573d6000803e3d6000fd5b5050505050565b610d04612744565b61ffff909116600090815260686020526040902055565b610d23612744565b6065546040516310ddb13760e01b815261ffff831660048201526001600160a01b03909116906310ddb13790602401610cc7565b610d5f6127a3565b610de133826001600160a01b03166370a08231306040518263ffffffff1660e01b8152600401610d8f91906151fe565b602060405180830381865afa158015610dac573d6000803e3d6000fd5b505050506040513d601f19601f82011682018060405250810190610dd09190615851565b6001600160a01b03841691906127fc565b50565b600054610100900460ff1615808015610e045750600054600160ff909116105b80610e255750610e1330612852565b158015610e25575060005460ff166001145b610e885760405162461bcd60e51b815260206004820152602e60248201527f496e697469616c697a61626c653a20636f6e747261637420697320616c72656160448201526d191e481a5b9a5d1a585b1a5e995960921b6064820152608401610c08565b6000805460ff191660011790558015610eab576000805461ff0019166101001790555b610ebe8989898989898989612648612861565b60ca54610eeb906001600160a01b03167368b3465833fb72a70ecdf485e0e4c7bd8665fc45600019612a40565b60ca54610f12906001600160a01b0316600080516020616494833981519152600019612a40565b610f3b600080516020616514833981519152600080516020616494833981519152600019612a40565b610f646000805160206164f48339815191526000805160206164b4833981519152600019612a40565b610f8d6000805160206164f4833981519152600080516020616494833981519152600019612a40565b610fc2738f3cf7ad23cd3cadbd9735aff958023239c6a06373195f7b233947d51f4c3b756ad41a5ddb34cebce0600019612a40565b610feb6000805160206164d4833981519152600080516020616494833981519152600019612a40565b8015611031576000805461ff0019169055604051600181527f7f26b83ff96e1f2b6a682f133852f6798a09c465da95921460cefb38474024989060200160405180910390a15b505050505050505050565b6110446127a3565b60c9546040516001600160a01b03909116904780156108fc02916000818181858888f19350505050158015610de1573d6000803e3d6000fd5b6110856127a3565b61108e81612b44565b604051818152600080516020616534833981519152906020015b60405180910390a150565b61ffff8316600090815260666020526040812080548291906110d49061586a565b80601f01602080910402602001604051908101604052809291908181526020018280546111009061586a565b801561114d5780601f106111225761010080835404028352916020019161114d565b820191906000526020600020905b81548152906001019060200180831161113057829003601f168201915b5050505050905083836040516111649291906158a4565b60405180910390208180519060200120149150505b9392505050565b60cb546040516346b14b7760e11b815260048101839052600160c01b90910460ff16602482015260009073__$c227fba7995d6bae65c253a840cdb49c5a$__90638d6296ee906044015b602060405180830381865af41580156111e7573d6000803e3d6000fd5b505050506040513d601f19601f8201168201806040525081019061120b9190615851565b92915050565b611219612744565b6065546040516342d65a8d60e01b81526001600160a01b03909116906342d65a8d9061124d908690869086906004016158dd565b600060405180830381600087803b15801561126757600080fd5b505af115801561127b573d6000803e3d6000fd5b50505050505050565b61128c6127a3565b60cd805460ff1916911515919091179055565b6112a76127a3565b6112b081613265565b60cd546000908190819060ff161561135c5784156113105760405162461bcd60e51b815260206004820152601e60248201527f4261736553747261746567793a3a44656274526174696f4e6f745a65726f00006044820152606401610c08565b600061131a6132eb565b9050878110156113355761132e8189615911565b925061134a565b8781111561134a576113478882615911565b93505b6113548389615911565b91505061136e565b611366888861332d565b919450925090505b600061137a8285615924565b90506000808883101561139c57611391838a615911565b9150600090506113ad565b600091506113aa8984615911565b90505b6000604051806101600160405280306001600160a01b031681526020014281526020018881526020018781526020018681526020018481526020018381526020018b8152602001836113fd6121c6565b6114079190615911565b815260200160d0600081548092919061141f90615937565b9091555081526020018990529050811561147f5760cb5460405161147a91849161ffff600160a01b830416916001600160a01b031690611466906002908790602001615988565b604051602081830303815290604052613424565b6114aa565b6114aa600282604051602001611496929190615988565b604051602081830303815290604052613512565b7fb983e09c034e9c52b5e547cb0589967992b97717733f580cc5ad0afcdc4b522b8160400151826060015183608001518460a001518560c001518660e0015187610100015160405161152d9796959493929190968752602087019590955260408601939093526060850191909152608084015260a083015260c082015260e00190565b60405180910390a1505050505050505050505050565b60ca5460cb54610de19183916001600160a01b0390911690600160c01b900460ff1660d161369261372b613736565b600061157c6132eb565b905090565b60d05460cb546040513060601b6001600160601b03191660208201526034810192909252600160b01b900460f01b6001600160f01b031916605482015260009060560160405160208183030381529060405280519060200120905090565b33301461163d5760405162461bcd60e51b815260206004820152602660248201527f4e6f6e626c6f636b696e674c7a4170703a2063616c6c6572206d7573742062656044820152650204c7a4170760d41b6064820152608401610c08565b610c878686868080601f01602080910402602001604051908101604052809392919081815260200183838082843760009201919091525050604080516020601f89018190048102820181019092528781528993509150879087908190840183828082843760009201919091525061386592505050565b6116bb612744565b6116c5600061397b565b565b606660205260009081526040902080546116e09061586a565b80601f016020809104026020016040519081016040528092919081815260200182805461170c9061586a565b80156117595780601f1061172e57610100808354040283529160200191611759565b820191906000526020600020905b81548152906001019060200180831161173c57829003601f168201915b505050505081565b610de1816139cd565b6033546001600160a01b031690565b6040516370a0823160e01b81526000906000805160206164b4833981519152906370a08231906117ad9030906004016151fe565b602060405180830381865afa1580156117ca573d6000803e3d6000fd5b505050506040513d601f19601f8201168201806040525081019061157c9190615851565b60cb5460405163aaed66e960e01b815260048101839052600160c01b90910460ff16602482015260009073__$c227fba7995d6bae65c253a840cdb49c5a$__9063aaed66e9906044016111ca565b6118446127a3565b60ca546040516370a0823160e01b81526116c5916001916001600160a01b03909116906370a082319061187b9030906004016151fe565b602060405180830381865afa158015611898573d6000803e3d6000fd5b505050506040513d601f19601f820116820180604052508101906118bc9190615851565b60ca546001600160a01b031691906127fc565b61ffff81166000908152606660205260408120805460609291906118f29061586a565b80601f016020809104026020016040519081016040528092919081815260200182805461191e9061586a565b801561196b5780601f106119405761010080835404028352916020019161196b565b820191906000526020600020905b81548152906001019060200180831161194e57829003601f168201915b5050505050905080516000036119c35760405162461bcd60e51b815260206004820152601d60248201527f4c7a4170703a206e6f20747275737465642070617468207265636f72640000006044820152606401610c08565b6111796000601483516119d69190615911565b839190613ce5565b6119e6613df2565b805160d180546001600160a01b0319166001600160a01b03909216919091179055602081015160d2556040015160d3805460ff1916911515919091179055565b611a2e612744565b818130604051602001611a4393929190615a33565b60408051601f1981840301815291815261ffff8516600090815260666020522090611a6e9082615aaf565b507f8c0400cfe2d1199b1a725c78960bcc2a344d869b80590d0f2bd005db15a572ce838383604051611aa2939291906158dd565b60405180910390a1505050565b60ca546040516310e1b98f60e21b81526000918291829160008051602061649483398151915291634386e63c91611b09916001600160a01b0390911690600080516020616514833981519152906001908a90600401615b68565b6040805180830381865afa158015611b25573d6000803e3d6000fd5b505050506040513d601f19601f82011682018060405250810190611b499190615b93565b91509150611b5681611180565b611b609083615924565b949350505050565b60ce546001600160a01b0316331480611b90575060cd5461010090046001600160a01b031633145b611bdb5760405162461bcd60e51b815260206004820152601c60248201527b53674272696467653a3a526f757465724f724272696467654f6e6c7960201b6044820152606401610c08565b6000611be986826014613ce5565b604051602001611bf99190615bb7565b604051602081830303815290604052611c1190615bd3565b60601c9050836001600160a01b03167f92073a89a07a000083eb8b2575fc15e7bb936efe55d00727d6942a796d7211a78483604051611c51929190615c0a565b60405180910390a250505050505050565b610de181613e61565b611c73612744565b606980546001600160a01b0319166001600160a01b0383161790556040517f5db758e995a17ec1ad84bdef7e8c3293a0bd6179bcce400dff5d4c3d87db726b906110a89083906151fe565b600061120b82738f3cf7ad23cd3cadbd9735aff958023239c6a0636001600160a01b031663313ce5676040518163ffffffff1660e01b8152600401602060405180830381865afa158015611d16573d6000803e3d6000fd5b505050506040513d601f19601f82011682018060405250810190611d3a9190615c21565b60cb54600160c01b900460ff16613f46565b60ca546040516370a0823160e01b81526000916001600160a01b0316906370a08231906117ad9030906004016151fe565b611d85612744565b60c980546001600160a01b0319166001600160a01b0392909216919091179055565b611daf612744565b6065546040516332fb62e760e21b81526001600160a01b039091169063cbed8b9c90611de79088908890889088908890600401615c44565b600060405180830381600087803b158015611e0157600080fd5b505af1158015611031573d6000803e3d6000fd5b611e1e81613f9b565b505050565b61ffff86166000908152609760205260408082209051611e4690889088906158a4565b90815260408051602092819003830190206001600160401b03871660009081529252902054905080611ec65760405162461bcd60e51b815260206004820152602360248201527f4e6f6e626c6f636b696e674c7a4170703a206e6f2073746f726564206d65737360448201526261676560e81b6064820152608401610c08565b808383604051611ed79291906158a4565b604051809103902014611f365760405162461bcd60e51b815260206004820152602160248201527f4e6f6e626c6f636b696e674c7a4170703a20696e76616c6964207061796c6f616044820152601960fa1b6064820152608401610c08565b61ffff87166000908152609760205260408082209051611f5990899089906158a4565b90815260408051602092819003830181206001600160401b038916600090815290845282902093909355601f88018290048202830182019052868252611ff1918991899089908190840183828082843760009201919091525050604080516020601f8a018190048102820181019092528881528a93509150889088908190840183828082843760009201919091525061386592505050565b7fc264d91f3adc5588250e1551f547752ca0cfa8f6b530d243b9f9f4cab10ea8e58787878785604051612028959493929190615c72565b60405180910390a150505050505050565b6040516246613160e11b81526000906000805160206164b483398151915290628cc262906117ad9030906004016151fe565b612073612744565b600081116120bb5760405162461bcd60e51b81526020600482015260156024820152744c7a4170703a20696e76616c6964206d696e47617360581b6044820152606401610c08565b61ffff83811660008181526067602090815260408083209487168084529482529182902085905581519283528201929092529081018290527f9d5c7c0b934da8fefa9c7760c98383778a12dfbfc0c3b3106518f43fb9508ac090606001611aa2565b612125612744565b600090815260cf60205260409020805460ff19169055565b60ca5460cb54610de19183916001600160a01b0390911690600160c01b900460ff1660d161369261372b6140d0565b612174612744565b61ffff83166000908152606660205260409020612192828483615cad565b507ffa41487ad5d6728f0b19276fa1eddc16558578f5109fc39d2dc33c3230470dab838383604051611aa2939291906158dd565b60006121d36108a6611779565b6040516370a0823160e01b815261225b906000805160206164d4833981519152906370a08231906122089030906004016151fe565b602060405180830381865afa158015612225573d6000803e3d6000fd5b505050506040513d601f19601f820116820180604052508101906122499190615851565b612251612039565b6108119190615924565b60ca546040516370a0823160e01b81526001600160a01b03909116906370a082319061228b9030906004016151fe565b602060405180830381865afa1580156122a8573d6000803e3d6000fd5b505050506040513d601f19601f820116820180604052508101906122cc9190615851565b6122d69190615924565b61157c9190615924565b60d1546001600160a01b0316331461230b57604051630336158960e61b815260040160405180910390fd5b81836001600160a01b0316856001600160a01b03167f9b2db766e04dc7ee1cc19d1415531ad5b3fd566db4f745d9a8ad51e3d3fe1bd78460405161235191815260200190565b60405180910390a450505050565b6123676127a3565b60cc55565b612374612744565b6001600160a01b0381166123d95760405162461bcd60e51b815260206004820152602660248201527f4f776e61626c653a206e6577206f776e657220697320746865207a65726f206160448201526564647265737360d01b6064820152608401610c08565b610de18161397b565b606554604051633d7b2f6f60e21b815261ffff808716600483015285166024820152306044820152606481018390526060916001600160a01b03169063f5ecbdbc90608401600060405180830381865afa158015612444573d6000803e3d6000fd5b505050506040513d6000823e601f3d908101601f1916820160405261246c9190810190615d66565b95945050505050565b6040517b0ca2ba3432b932bab69029b4b3b732b21026b2b9b9b0b3b29d05199960211b6020820152603c8101829052600090605c01604051602081830303815290604052805190602001209050919050565b6000806125486000805160206164f48339815191526001600160a01b031663313ce5676040518163ffffffff1660e01b8152600401602060405180830381865afa158015612519573d6000803e3d6000fd5b505050506040513d601f19601f8201168201806040525081019061253d9190615c21565b6108a690600a615eb7565b905060006125d58460cb60189054906101000a900460ff166000805160206164f48339815191526001600160a01b031663313ce5676040518163ffffffff1660e01b8152600401602060405180830381865afa1580156125ac573d6000803e3d6000fd5b505050506040513d601f19601f820116820180604052508101906125d09190615c21565b613f46565b905060006126398360cb60189054906101000a900460ff166000805160206164f48339815191526001600160a01b031663313ce5676040518163ffffffff1660e01b8152600401602060405180830381865afa1580156125ac573d6000803e3d6000fd5b9050806000805160206164f48339815191526001600160a01b031663313ce5676040518163ffffffff1660e01b8152600401602060405180830381865afa158015612688573d6000803e3d6000fd5b505050506040513d601f19601f820116820180604052508101906126ac9190615c21565b6126b790600a615eb7565b6126c19084615ec6565b61246c9190615edd565b60008061272e5a60966366ad5c8a60e01b898989896040516024016126f39493929190615eff565b60408051601f198184030181529190526020810180516001600160e01b03166001600160e01b031990931692909217909152309291906141e1565b9150915081610c8757610c87868686868561426d565b3361274d61176a565b6001600160a01b0316146116c55760405162461bcd60e51b815260206004820181905260248201527f4f776e61626c653a2063616c6c6572206973206e6f7420746865206f776e65726044820152606401610c08565b60c9546001600160a01b031633146116c55760405162461bcd60e51b815260206004820152601c60248201527b10985cd954dd1c985d1959de4e8e93db9b1e54dd1c985d1959da5cdd60221b6044820152606401610c08565b611e1e8363a9059cbb60e01b848460405160240161281b929190615f3d565b60408051601f198184030181529190526020810180516001600160e01b03166001600160e01b03199093169290921790915261430a565b6001600160a01b03163b151590565b600054610100900460ff166128885760405162461bcd60e51b8152600401610c0890615f56565b612891896143df565b60c980546001600160a01b03808b166001600160a01b03199283161790925560ca80548a8416908316811790915560cb8054938a1661ffff8a16600160a01b029093166001600160b01b0319909416939093179190911790915560cc8290556040805163313ce56760e01b8152905163313ce567916004808201926020929091908290030181865afa15801561292b573d6000803e3d6000fd5b505050506040513d601f19601f8201168201806040525081019061294f9190615c21565b60cb8054600060d05562ffffff60b01b1916600160c01b60ff939093169290920261ffff60b01b191691909117600160b01b61ffff87160217905560cd8054610100600160a81b0319166101006001600160a01b03868116919091029190911790915560ce80546001600160a01b03191684831617905560ca5460405163095ea7b360e01b815291169063095ea7b3906129f190869060001990600401615f3d565b6020604051808303816000875af1158015612a10573d6000803e3d6000fd5b505050506040513d601f19601f82011682018060405250810190612a349190615fa1565b50505050505050505050565b801580612aba5750604051636eb1769f60e11b81523060048201526001600160a01b03838116602483015284169063dd62ed3e90604401602060405180830381865afa158015612a94573d6000803e3d6000fd5b505050506040513d601f19601f82011682018060405250810190612ab89190615851565b155b612b255760405162461bcd60e51b815260206004820152603660248201527f5361666545524332303a20617070726f76652066726f6d206e6f6e2d7a65726f60448201527520746f206e6f6e2d7a65726f20616c6c6f77616e636560501b6064820152608401610c08565b611e1e8363095ea7b360e01b848460405160240161281b929190615f3d565b6000805160206164b48339815191526001600160a01b0316633d18b9126040518163ffffffff1660e01b8152600401600060405180830381600087803b158015612b8d57600080fd5b505af1158015612ba1573d6000803e3d6000fd5b50506040516370a0823160e01b8152612c4492506000805160206164d483398151915291506370a0823190612bda9030906004016151fe565b602060405180830381865afa158015612bf7573d6000803e3d6000fd5b505050506040513d601f19601f82011682018060405250810190612c1b9190615851565b60ca5460cb546001600160a01b0390911690600160c01b900460ff1660d161369261372b613736565b60ca546040516370a0823160e01b81526000916001600160a01b0316906370a0823190612c759030906004016151fe565b602060405180830381865afa158015612c92573d6000803e3d6000fd5b505050506040513d601f19601f82011682018060405250810190612cb69190615851565b905081811115612e42576000612ccc8383615911565b90506000612cdb600283615edd565b90506000612d458260cb60189054906101000a900460ff16738f3cf7ad23cd3cadbd9735aff958023239c6a0636001600160a01b031663313ce5676040518163ffffffff1660e01b8152600401602060405180830381865afa1580156125ac573d6000803e3d6000fd5b6040805160808101825260ca546001600160601b0319606091821b1660a0830152601960ea1b60b4830152738f3cf7ad23cd3cadbd9735aff958023239c6a06360601b60b7830152825160ab81840301815260cb830184528252306020830152918101859052919250600091908101612dbd84614417565b905260405163b858183f60e01b81529091507368b3465833fb72a70ecdf485e0e4c7bd8665fc459063b858183f90612df9908490600401615fbe565b6020604051808303816000875af1158015612e18573d6000803e3d6000fd5b505050506040513d601f19601f82011682018060405250810190612e3c9190615851565b50505050505b6040516370a0823160e01b8152600090738f3cf7ad23cd3cadbd9735aff958023239c6a063906370a0823190612e7c9030906004016151fe565b602060405180830381865afa158015612e99573d6000803e3d6000fd5b505050506040513d601f19601f82011682018060405250810190612ebd9190615851565b90508015612f435760405163a39fc2c560e01b815273195f7b233947d51f4c3b756ad41a5ddb34cebce09063a39fc2c590612efe9084903090600401615c0a565b6020604051808303816000875af1158015612f1d573d6000803e3d6000fd5b505050506040513d601f19601f82011682018060405250810190612f419190615851565b505b6040516370a0823160e01b8152600090600080516020616514833981519152906370a0823190612f779030906004016151fe565b602060405180830381865afa158015612f94573d6000803e3d6000fd5b505050506040513d601f19601f82011682018060405250810190612fb89190615851565b60ca546040516370a0823160e01b81529192506001600160a01b0316906370a0823190612fe99030906004016151fe565b602060405180830381865afa158015613006573d6000803e3d6000fd5b505050506040513d601f19601f8201168201806040525081019061302a9190615851565b925060008111801561303c5750600083115b156131b65760ca546040516326283ecf60e21b81526001600160a01b03909116600482015260008051602061651483398151915260248201526001604482015260648101849052608481018290526000908190600080516020616494833981519152906398a0fb3c9060a401606060405180830381865afa1580156130c5573d6000803e3d6000fd5b505050506040513d601f19601f820116820180604052508101906130e9919061600c565b5060ca54604051635a47ddc360e01b81526001600160a01b0390911660048201526000805160206165148339815191526024820152600160448201819052606482018490526084820183905260a4820181905260c48201523060e482015242610104820152919350915060008051602061649483398151915290635a47ddc390610124016060604051808303816000875af115801561318c573d6000803e3d6000fd5b505050506040513d601f19601f820116820180604052508101906131b0919061600c565b50505050505b6040516370a0823160e01b81526000906000805160206164f4833981519152906370a08231906131ea9030906004016151fe565b602060405180830381865afa158015613207573d6000803e3d6000fd5b505050506040513d601f19601f8201168201806040525081019061322b9190615851565b90508015610cf55760405163b6b55f2560e01b8152600481018290526000805160206164b48339815191529063b6b55f2590602401611de7565b600061326f611581565b9050600061327c82612475565b60c9549091506001600160a01b03166132958285614434565b6001600160a01b031614611e1e5760405162461bcd60e51b815260206004820152601e60248201527f4261736553747261746567793a3a496e76616c69645369676e617475726500006044820152606401610c08565b60006132fd6132f8611779565b6139cd565b60ca546040516370a0823160e01b81526001600160a01b03909116906370a08231906117ad9030906004016151fe565b60008060008061333b6121c6565b90508581106133595761334e8682615911565b93506000925061336a565b600093506133678187615911565b92505b61337c6133778587615924565b613f9b565b505060ca546040516370a0823160e01b81526000916001600160a01b0316906370a08231906133af9030906004016151fe565b602060405180830381865afa1580156133cc573d6000803e3d6000fd5b505050506040513d601f19601f820116820180604052508101906133f09190615851565b9050848111613405578094506000925061341b565b6134186134128683615911565b87614458565b92505b50509250925092565b60cd54604051630dc6346160e01b815260009161010090046001600160a01b031690630dc634619061345e9087908790879060040161603a565b602060405180830381865afa15801561347b573d6000803e3d6000fd5b505050506040513d601f19601f8201168201806040525081019061349f9190615851565b60cd5460ca54604051633920455b60e11b81529293506001600160a01b036101009092048216926372408ab69285926134e5929116908a908a908a908a90600401616068565b6000604051808303818588803b1580156134fe57600080fd5b505af1158015612a34573d6000803e3d6000fd5b60cb5460408051606083811b6001600160601b03199081166020840152309182901b16603483015282516028818403018152604890920190925260655490926000926001600160a01b03909216916340a7bb109161ffff600160a01b9091041690868561357d61446e565b6040518663ffffffff1660e01b815260040161359d9594939291906160a5565b6040805180830381865afa1580156135b9573d6000803e3d6000fd5b505050506040513d601f19601f820116820180604052508101906135dd9190615b93565b509050804710156136095760405162fae2d560e21b815260048101829052476024820152604401610c08565b60655460cb546001600160a01b039091169063c5803100908390600160a01b900461ffff168587308061363a61446e565b6040518863ffffffff1660e01b815260040161365b969594939291906160f9565b6000604051808303818588803b15801561367457600080fd5b505af1158015613688573d6000803e3d6000fd5b5050505050505050565b80516000036136e15781836001600160a01b0316856001600160a01b03167fea368a40e9570069bb8e6511d668293ad2e1f03b0d982431fd223de9f3b70ca660405160405180910390a4613725565b81836001600160a01b0316856001600160a01b03167f583bc203f4bd38722d9ba88ecb248da508149e0e405a42dbc1b1f7d55a8be0c1846040516123519190615262565b50505050565b600061120b82614417565b8515610c875782546001600160a01b03166310cabd1d6000805160206164d4833981519152878961271061376d6126486064615ec6565b6137779190615edd565b6040518563ffffffff1660e01b81526004016137969493929190616160565b600060405180830381600087803b1580156137b057600080fd5b505af19250505080156137c1575060015b613825573d8080156137ef576040519150601f19603f3d011682016040523d82523d6000602084013e6137f4565b606091505b506138018786888561449e565b61381f6000805160206164d48339815191528789848763ffffffff16565b50610c87565b610c876000805160206164d48339815191528688600060405160200161384d91815260200190565b6040516020818303038152906040528663ffffffff16565b60cb5461ffff858116600160a01b90920416146138cf5760405162461bcd60e51b815260206004820152602260248201527f4261736553747261746567793a3a5661756c74436861696e49644d69736d61746044820152610c6d60f31b6064820152608401610c08565b60006138dd84826014613ce5565b6040516020016138ed9190615bb7565b60405160208183030381529060405261390590615bd3565b60cb5460609190911c91506001600160a01b031681146139725760405162461bcd60e51b815260206004820152602260248201527f4261736553747261746567793a3a5661756c74416464726573734d69736d61746044820152610c6d60f31b6064820152608401610c08565b610cf582614636565b603380546001600160a01b038381166001600160a01b0319831681179093556040519116919082907f8be0079c531659141344cd1fd0a4f28419497f9722a3daafe3b4186f6b6457e090600090a35050565b6000805160206164b48339815191526001600160a01b0316633d18b9126040518163ffffffff1660e01b8152600401600060405180830381600087803b158015613a1657600080fd5b505af1158015613a2a573d6000803e3d6000fd5b50506040516370a0823160e01b8152613a6392506000805160206164d483398151915291506370a0823190612bda9030906004016151fe565b80600003613a6e5750565b604051632e1a7d4d60e01b8152600481018290526000805160206164b483398151915290632e1a7d4d90602401600060405180830381600087803b158015613ab557600080fd5b505af1158015613ac9573d6000803e3d6000fd5b505060ca546040516310e1b98f60e21b81526000935083925060008051602061649483398151915291634386e63c91613b23916001600160a01b031690600080516020616514833981519152906001908990600401615b68565b6040805180830381865afa158015613b3f573d6000803e3d6000fd5b505050506040513d601f19601f82011682018060405250810190613b639190615b93565b60ca54919350915060008051602061649483398151915290630dede6c4906001600160a01b0316600080516020616514833981519152600187613ba588614417565b613bae88614417565b6040516001600160e01b031960e089901b1681526001600160a01b03968716600482015295909416602486015291151560448501526064840152608483015260a48201523060c48201524260e48201526101040160408051808303816000875af1158015613c20573d6000803e3d6000fd5b505050506040513d601f19601f82011682018060405250810190613c449190615b93565b50506040516370a0823160e01b8152611e1e90600080516020616514833981519152906370a0823190613c7b9030906004016151fe565b602060405180830381865afa158015613c98573d6000803e3d6000fd5b505050506040513d601f19601f82011682018060405250810190613cbc9190615851565b60ca5460cb546001600160a01b0390911690600160c01b900460ff1660d161369261372b6140d0565b606081613cf381601f615924565b1015613d325760405162461bcd60e51b815260206004820152600e60248201526d736c6963655f6f766572666c6f7760901b6044820152606401610c08565b613d3c8284615924565b84511015613d805760405162461bcd60e51b8152602060048201526011602482015270736c6963655f6f75744f66426f756e647360781b6044820152606401610c08565b606082158015613d9f5760405191506000825260208201604052613de9565b6040519150601f8416801560200281840101858101878315602002848b0101015b81831015613dd8578051835260209283019201613dc0565b5050858452601f01601f1916604052505b50949350505050565b60c9546001600160a01b0316331480613e0a57503330145b6116c55760405162461bcd60e51b815260206004820152602260248201527f4261736553747261746567793a3a4f6e6c79537472617465676973744f725365604482015261363360f11b6064820152608401610c08565b80600003613e6c5750565b6000613e79610811612039565b9050818110613f1c576000805160206164b48339815191526001600160a01b0316633d18b9126040518163ffffffff1660e01b8152600401600060405180830381600087803b158015613ecb57600080fd5b505af1158015613edf573d6000803e3d6000fd5b50506040516370a0823160e01b8152613f1892506000805160206164d483398151915291506370a0823190612bda9030906004016151fe565b5050565b6000613f3b613f2e610ba18486615911565b613f36611779565b614458565b9050611e1e816139cd565b60008260ff168260ff161115613f7c57613f60838361618b565b613f6b90600a615eb7565b613f759085615ec6565b9050611179565b613f86828461618b565b613f9190600a615eb7565b613f759085615edd565b60ca546040516370a0823160e01b8152600091829182916001600160a01b0316906370a0823190613fd09030906004016151fe565b602060405180830381865afa158015613fed573d6000803e3d6000fd5b505050506040513d601f19601f820116820180604052508101906140119190615851565b905083811061402557509192600092509050565b6140376140328286615911565b613e61565b60ca546040516370a0823160e01b81526001600160a01b03909116906370a08231906140679030906004016151fe565b602060405180830381865afa158015614084573d6000803e3d6000fd5b505050506040513d601f19601f820116820180604052508101906140a89190615851565b9050808411156140c6579150816140bf8185615911565b91506140ca565b8392505b50915091565b8515610c875782546001600160a01b03166310cabd1d60008051602061651483398151915287896127106141076126486064615ec6565b6141119190615edd565b6040518563ffffffff1660e01b81526004016141309493929190616160565b600060405180830381600087803b15801561414a57600080fd5b505af192505050801561415b575060015b6141b9573d808015614189576040519150601f19603f3d011682016040523d82523d6000602084013e61418e565b606091505b5061419b87868885614757565b61381f6000805160206165148339815191528789848763ffffffff16565b610c876000805160206165148339815191528688600060405160200161384d91815260200190565b6000606060008060008661ffff166001600160401b0381111561420657614206615434565b6040519080825280601f01601f191660200182016040528015614230576020820181803683370190505b50905060008087516020890160008d8df191503d925086831115614252578692505b828152826000602083013e9093509150505b94509492505050565b8180519060200120609760008761ffff1661ffff1681526020019081526020016000208560405161429e9190615bb7565b9081526040805191829003602090810183206001600160401b0388166000908152915220919091557fe183f33de2837795525b4792ca4cd60535bd77c53b7e7030060bfcf5734d6b0c906142fb90879087908790879087906161a4565b60405180910390a15050505050565b600061435f826040518060400160405280602081526020017f5361666545524332303a206c6f772d6c6576656c2063616c6c206661696c6564815250856001600160a01b03166148289092919063ffffffff16565b90508051600014806143805750808060200190518101906143809190615fa1565b611e1e5760405162461bcd60e51b815260206004820152602a60248201527f5361666545524332303a204552433230206f7065726174696f6e20646964206e6044820152691bdd081cdd58d8d9595960b21b6064820152608401610c08565b600054610100900460ff166144065760405162461bcd60e51b8152600401610c0890615f56565b61440e614837565b610de181614867565b600061271060cc548361442a9190615ec6565b61120b9190615edd565b600080600061444385856148b0565b91509150614450816148f5565b509392505050565b60008183106144675781611179565b5090919050565b60408051600160f01b6020820152620f424060228083019190915282518083039091018152604290910190915290565b60408051600280825260608201909252600091816020015b60408051606081018252600080825260208083018290529282015282526000199092019101816144b6575050604080516060810182526000805160206164d483398151915281526000805160206165148339815191526020820152600091810182905282519293509183919061452e5761452e6161f6565b602002602001018190525060405180606001604052806000805160206165148339815191526001600160a01b03168152602001846001600160a01b03168152602001600115158152508160018151811061458a5761458a6161f6565b602002602001018190525060006145a18686614a3a565b905060008051602061649483398151915263f41766d8876145c58463ffffffff8816565b8530426040518663ffffffff1660e01b81526004016145e895949392919061620c565b6000604051808303816000875af192505050801561462857506040513d6000823e601f3d908101601f19168201604052614625919081019061629b565b60015b15610c875750505050505050565b60008180602001905181019061464c9190616334565b9050600381600481111561466257614662615950565b036146ad5760008280602001905181019061467d9190616355565b91505061468d8160000151612b44565b805160405190815260008051602061653483398151915290602001611aa2565b60008160048111156146c1576146c1615950565b036146e8576000828060200190518101906146dc9190616398565b915050611e1e81614ad3565b60048160048111156146fc576146fc615950565b03613f18576000828060200190518101906147179190616403565b9150506147278160000151614bfd565b80516040517f7c9a2d2ec51230d7dbed27f113a325b7e20aef7b049e68b2339257b5edff5bea91611aa2916151fe565b60006147638585614c3c565b90506000805160206164948339815191526313dcfc59866147878463ffffffff8716565b6040516001600160e01b031960e085901b1681526004810192909252602482015260008051602061651483398151915260448201526001600160a01b0386166064820152600160848201523060a48201524260c482015260e4016000604051808303816000875af1158015614800573d6000803e3d6000fd5b505050506040513d6000823e601f3d908101601f19168201604052610c87919081019061629b565b6060611b608484600085614cb8565b600054610100900460ff1661485e5760405162461bcd60e51b8152600401610c0890615f56565b6116c53361397b565b600054610100900460ff1661488e5760405162461bcd60e51b8152600401610c0890615f56565b606580546001600160a01b0319166001600160a01b0392909216919091179055565b60008082516041036148e65760208301516040840151606085015160001a6148da87828585614d93565b945094505050506148ee565b506000905060025b9250929050565b600081600481111561490957614909615950565b036149115750565b600181600481111561492557614925615950565b0361496d5760405162461bcd60e51b815260206004820152601860248201527745434453413a20696e76616c6964207369676e617475726560401b6044820152606401610c08565b600281600481111561498157614981615950565b036149ce5760405162461bcd60e51b815260206004820152601f60248201527f45434453413a20696e76616c6964207369676e6174757265206c656e677468006044820152606401610c08565b60038160048111156149e2576149e2615950565b03610de15760405162461bcd60e51b815260206004820152602260248201527f45434453413a20696e76616c6964207369676e6174757265202773272076616c604482015261756560f01b6064820152608401610c08565b6040516328bd9fc160e11b8152600090819073f68c20d6c50706f6c6bd8ee184382518c93b368c9063517b3f8290614a86906000805160206164d4833981519152908890600401615f3d565b602060405180830381865afa158015614aa3573d6000803e3d6000fd5b505050506040513d601f19601f82011682018060405250810190614ac79190615851565b9050611b608184614c3c565b602080820151600090815260cf909152604090205460ff1615614b385760405162461bcd60e51b815260206004820152601e60248201527f4261736553747261746567793a3a416c726561647957697468647261776e00006044820152606401610c08565b600080614b488360000151613f9b565b91509150600060016040518060800160405280306001600160a01b031681526020018581526020018481526020018660200151815250604051602001614b8f929190616451565b60408051601f1981840301815291905290508215614bd05760cb54614bcb90849061ffff600160a01b820416906001600160a01b031684613424565b614bd9565b614bd981613512565b505050602090810151600090815260cf90915260409020805460ff19166001179055565b614c0681614e4a565b60ca546040516370a0823160e01b8152610de19183916001600160a01b03909116906370a082319061187b9030906004016151fe565b6000611179836000805160206165148339815191526001600160a01b031663313ce5676040518163ffffffff1660e01b8152600401602060405180830381865afa158015614c8e573d6000803e3d6000fd5b505050506040513d601f19601f82011682018060405250810190614cb29190615c21565b84613f46565b606082471015614d195760405162461bcd60e51b815260206004820152602660248201527f416464726573733a20696e73756666696369656e742062616c616e636520666f6044820152651c8818d85b1b60d21b6064820152608401610c08565b600080866001600160a01b03168587604051614d359190615bb7565b60006040518083038185875af1925050503d8060008114614d72576040519150601f19603f3d011682016040523d82523d6000602084013e614d77565b606091505b5091509150614d8887838387615060565b979650505050505050565b6000806fa2a8918ca85bafe22016d0b997e4df60600160ff1b03831115614dc05750600090506003614264565b6040805160008082526020820180845289905260ff881692820192909252606081018690526080810185905260019060a0016020604051602081039080840390855afa158015614e14573d6000803e3d6000fd5b5050604051601f1901519150506001600160a01b038116614e3d57600060019250925050614264565b9660009650945050505050565b6000805160206164b4833981519152632e1a7d4d614e66611779565b6040518263ffffffff1660e01b8152600401614e8491815260200190565b600060405180830381600087803b158015614e9e57600080fd5b505af1158015614eb2573d6000803e3d6000fd5b50506040516370a0823160e01b8152614f4492508391506000805160206164f4833981519152906370a0823190614eed9030906004016151fe565b602060405180830381865afa158015614f0a573d6000803e3d6000fd5b505050506040513d601f19601f82011682018060405250810190614f2e9190615851565b6000805160206164f483398151915291906127fc565b6040516370a0823160e01b8152614fd2908290600080516020616514833981519152906370a0823190614f7b9030906004016151fe565b602060405180830381865afa158015614f98573d6000803e3d6000fd5b505050506040513d601f19601f82011682018060405250810190614fbc9190615851565b60008051602061651483398151915291906127fc565b6040516370a0823160e01b8152610de19082906000805160206164d4833981519152906370a08231906150099030906004016151fe565b602060405180830381865afa158015615026573d6000803e3d6000fd5b505050506040513d601f19601f8201168201806040525081019061504a9190615851565b6000805160206164d483398151915291906127fc565b606083156150cd5782516000036150c65761507a85612852565b6150c65760405162461bcd60e51b815260206004820152601d60248201527f416464726573733a2063616c6c20746f206e6f6e2d636f6e74726163740000006044820152606401610c08565b5081611b60565b611b6083838151156150e25781518083602001fd5b8060405162461bcd60e51b8152600401610c089190615262565b803561ffff8116811461510e57600080fd5b919050565b60008083601f84011261512557600080fd5b5081356001600160401b0381111561513c57600080fd5b6020830191508360208285010111156148ee57600080fd5b80356001600160401b038116811461510e57600080fd5b6000806000806000806080878903121561518457600080fd5b61518d876150fc565b955060208701356001600160401b03808211156151a957600080fd5b6151b58a838b01615113565b90975095508591506151c960408a01615154565b945060608901359150808211156151df57600080fd5b506151ec89828a01615113565b979a9699509497509295939492505050565b6001600160a01b0391909116815260200190565b60005b8381101561522d578181015183820152602001615215565b50506000910152565b6000815180845261524e816020860160208601615212565b601f01601f19169290920160200192915050565b6020815260006111796020830184615236565b60006020828403121561528757600080fd5b611179826150fc565b600080604083850312156152a357600080fd5b6152ac836150fc565b946020939093013593505050565b6001600160a01b0381168114610de157600080fd5b6000602082840312156152e157600080fd5b8135611179816152ba565b600080600080600080600080610100898b03121561530957600080fd5b8835615314816152ba565b97506020890135615324816152ba565b96506040890135615334816152ba565b95506060890135615344816152ba565b945061535260808a016150fc565b935061536060a08a016150fc565b925060c0890135615370816152ba565b915060e0890135615380816152ba565b809150509295985092959890939650565b6001600160a01b03169052565b6000602082840312156153b057600080fd5b5035919050565b6000806000604084860312156153cc57600080fd5b6153d5846150fc565b925060208401356001600160401b038111156153f057600080fd5b6153fc86828701615113565b9497909650939450505050565b8015158114610de157600080fd5b60006020828403121561542957600080fd5b813561117981615409565b634e487b7160e01b600052604160045260246000fd5b604051602081016001600160401b038111828210171561546c5761546c615434565b60405290565b604051601f8201601f191681016001600160401b038111828210171561549a5761549a615434565b604052919050565b60006001600160401b038211156154bb576154bb615434565b50601f01601f191660200190565b600082601f8301126154da57600080fd5b81356154ed6154e8826154a2565b615472565b81815284602083860101111561550257600080fd5b816020850160208301376000918101602001919091529392505050565b600080600080600060a0868803121561553757600080fd5b8535945060208601359350604086013592506060860135915060808601356001600160401b0381111561556957600080fd5b615575888289016154c9565b9150509295509295909350565b60008060006060848603121561559757600080fd5b6155a0846150fc565b925060208401356001600160401b038111156155bb57600080fd5b6155c7868287016154c9565b9250506155d660408501615154565b90509250925092565b600080604083850312156155f257600080fd5b6155fb836150fc565b9150615609602084016150fc565b90509250929050565b60006060828403121561562457600080fd5b604051606081016001600160401b038111828210171561564657615646615434565b6040528235615654816152ba565b815260208381013590820152604083013561566e81615409565b60408201529392505050565b60008060008060008060c0878903121561569357600080fd5b61569c876150fc565b955060208701356001600160401b03808211156156b857600080fd5b6156c48a838b016154c9565b965060408901359550606089013591506156dd826152ba565b9093506080880135925060a088013590808211156156fa57600080fd5b5061570789828a016154c9565b9150509295509295509295565b60008060008060006080868803121561572c57600080fd5b615735866150fc565b9450615743602087016150fc565b93506040860135925060608601356001600160401b0381111561576557600080fd5b61577188828901615113565b969995985093965092949392505050565b60008060006060848603121561579757600080fd5b6157a0846150fc565b92506157ae602085016150fc565b9150604084013590509250925092565b600080600080608085870312156157d457600080fd5b84356157df816152ba565b935060208501356157ef816152ba565b93969395505050506040820135916060013590565b6000806000806080858703121561581a57600080fd5b615823856150fc565b9350615831602086016150fc565b92506040850135615841816152ba565b9396929550929360600135925050565b60006020828403121561586357600080fd5b5051919050565b600181811c9082168061587e57607f821691505b60208210810361589e57634e487b7160e01b600052602260045260246000fd5b50919050565b8183823760009101908152919050565b81835281816020850137506000828201602090810191909152601f909101601f19169091010190565b61ffff8416815260406020820152600061246c6040830184866158b4565b634e487b7160e01b600052601160045260246000fd5b8181038181111561120b5761120b6158fb565b8082018082111561120b5761120b6158fb565b600060018201615949576159496158fb565b5060010190565b634e487b7160e01b600052602160045260246000fd5b6005811061598457634e487b7160e01b600052602160045260246000fd5b9052565b6159928184615966565b604060208201526159a7604082018351615391565b6020820151606082015260408201516080820152606082015160a0820152608082015160c082015260a082015160e0820152600060c0830151610100818185015260e0850151915061012082818601528186015192506101409150828286015280860151925050610160828186015281860151925080610180860152505061246c6101a0840182615236565b8284823760609190911b6001600160601b0319169101908152601401919050565b601f821115611e1e57600081815260208120601f850160051c81016020861015615a7b5750805b601f850160051c820191505b81811015610c8757828155600101615a87565b600019600383901b1c191660019190911b1790565b81516001600160401b03811115615ac857615ac8615434565b615adc81615ad6845461586a565b84615a54565b602080601f831160018114615b0b5760008415615af95750858301515b615b038582615a9a565b865550610c87565b600085815260208120601f198616915b82811015615b3a57888601518255948401946001909101908401615b1b565b5085821015615b585787850151600019600388901b60f8161c191681555b5050505050600190811b01905550565b6001600160a01b03948516815292909316602083015215156040820152606081019190915260800190565b60008060408385031215615ba657600080fd5b505080516020909101519092909150565b60008251615bc9818460208701615212565b9190910192915050565b805160208201516001600160601b03198082169291906014831015615c025780818460140360031b1b83161693505b505050919050565b9182526001600160a01b0316602082015260400190565b600060208284031215615c3357600080fd5b815160ff8116811461117957600080fd5b600061ffff808816835280871660208401525084604083015260806060830152614d886080830184866158b4565b61ffff86168152608060208201526000615c906080830186886158b4565b6001600160401b0394909416604083015250606001529392505050565b6001600160401b03831115615cc457615cc4615434565b615cd883615cd2835461586a565b83615a54565b6000601f841160018114615d065760008515615cf45750838201355b615cfe8682615a9a565b845550610cf5565b600083815260209020601f19861690835b82811015615d375786850135825560209485019460019092019101615d17565b5086821015615d545760001960f88860031b161c19848701351681555b505060018560011b0183555050505050565b600060208284031215615d7857600080fd5b81516001600160401b03811115615d8e57600080fd5b8201601f81018413615d9f57600080fd5b8051615dad6154e8826154a2565b818152856020838501011115615dc257600080fd5b61246c826020830160208601615212565b600181815b80851115615e0e578160001904821115615df457615df46158fb565b80851615615e0157918102915b93841c9390800290615dd8565b509250929050565b600082615e255750600161120b565b81615e325750600061120b565b8160018114615e485760028114615e5257615e6e565b600191505061120b565b60ff841115615e6357615e636158fb565b50506001821b61120b565b5060208310610133831016604e8410600b8410161715615e91575081810a61120b565b615e9b8383615dd3565b8060001904821115615eaf57615eaf6158fb565b029392505050565b600061117960ff841683615e16565b808202811582820484141761120b5761120b6158fb565b600082615efa57634e487b7160e01b600052601260045260246000fd5b500490565b61ffff85168152608060208201526000615f1c6080830186615236565b6001600160401b03851660408401528281036060840152614d888185615236565b6001600160a01b03929092168252602082015260400190565b6020808252602b908201527f496e697469616c697a61626c653a20636f6e7472616374206973206e6f74206960408201526a6e697469616c697a696e6760a81b606082015260800190565b600060208284031215615fb357600080fd5b815161117981615409565b602081526000825160806020840152615fda60a0840182615236565b905060018060a01b03602085015116604084015260408401516060840152606084015160808401528091505092915050565b60008060006060848603121561602157600080fd5b8351925060208401519150604084015190509250925092565b61ffff841681526001600160a01b038316602082015260606040820181905260009061246c90830184615236565b6001600160a01b0386811682526020820186905261ffff851660408301528316606082015260a060808201819052600090614d8890830184615236565b61ffff861681526001600160a01b038516602082015260a0604082018190526000906160d390830186615236565b841515606084015282810360808401526160ed8185615236565b98975050505050505050565b61ffff8716815260c06020820152600061611660c0830188615236565b82810360408401526161288188615236565b6001600160a01b0387811660608601528616608085015283810360a085015290506161538185615236565b9998505050505050505050565b6001600160a01b039485168152929093166020830152604082015260ff909116606082015260800190565b60ff828116828216039081111561120b5761120b6158fb565b61ffff8616815260a0602082015260006161c160a0830187615236565b6001600160401b038616604084015282810360608401526161e28186615236565b905082810360808401526160ed8185615236565b634e487b7160e01b600052603260045260246000fd5b600060a0820187835260208781850152604060a08186015282885180855260c087019150838a01945060005b8181101561627557855180516001600160a01b03908116855286820151168685015284015115158484015294840194606090920191600101616238565b50508094505050505061628b6060830185615391565b8260808301529695505050505050565b600060208083850312156162ae57600080fd5b82516001600160401b03808211156162c557600080fd5b818501915085601f8301126162d957600080fd5b8151818111156162eb576162eb615434565b8060051b91506162fc848301615472565b818152918301840191848101908884111561631657600080fd5b938501935b838510156160ed5784518252938501939085019061631b565b60006020828403121561634657600080fd5b81516005811061117957600080fd5b600080828403604081121561636957600080fd5b835192506020601f198201121561637f57600080fd5b5061638861544a565b6020939093015183525092909150565b60008082840360608112156163ac57600080fd5b835192506040601f19820112156163c257600080fd5b50604080519081016001600160401b03811182821017156163e5576163e5615434565b60409081526020858101518352940151938101939093525092909150565b600080828403604081121561641757600080fd5b835192506020601f198201121561642d57600080fd5b5061643661544a565b6020840151616444816152ba565b8152919491935090915050565b60a0810161645f8285615966565b60018060a01b038351166020830152602083015160408301526040830151606083015260608301516080830152939250505056fe000000000000000000000000cc25c0fd84737f44a7d38649b69491bbf0c7f08300000000000000000000000097bd59a8202f8263c2ec39cf6cf6b438d0b458760000000000000000000000007238390d5f6f64e67c3211c343a410e2a3dec142000000000000000000000000d17cb0f162f133e339c0bbfc18c36c357e681d6b00000000000000000000000040379a439d4f6795b6fc9aa5687db461677a2dbab0c58532a125fc3c0adccaef396bf65344a4d5781cec2e4c593e6b611d75f150a26469706673582212203adfb431c53fa120b91a3cb938ddea30f29724478176bf6d4597951504006d6f64736f6c63430008130033",
  "linkReferences": {
    "contracts/strategies/utils/PearlStrategyLib.sol": {
      "PearlStrategyLib": [
        {
          "length": 20,
          "start": 4557
        },
        {
          "length": 20,
          "start": 6203
        }
      ]
    }
  },
  "deployedLinkReferences": {
    "contracts/strategies/utils/PearlStrategyLib.sol": {
      "PearlStrategyLib": [
        {
          "length": 20,
          "start": 4524
        },
        {
          "length": 20,
          "start": 6170
        }
      ]
    }
  }
}