{
  "_format": "hh-sol-artifact-1",
  "contractName": "MockPearlStrategy",
  "sourceName": "contracts/mock/MockPearlStrategy.sol",
  "abi": [
    {
      "inputs": [
        {
          "internalType": "uint256",
          "name": "messageType",
          "type": "uint256"
        }
      ],
      "name": "IncorrectMessageType",
      "type": "error"
    },
    {
      "inputs": [
        {
          "internalType": "uint256",
          "name": "amount",
          "type": "uint256"
        },
        {
          "internalType": "uint256",
          "name": "balance",
          "type": "uint256"
        }
      ],
      "name": "InsufficientFunds",
      "type": "error"
    },
    {
      "anonymous": false,
      "inputs": [
        {
          "indexed": false,
          "internalType": "uint256",
          "name": "debtOutstanding",
          "type": "uint256"
        }
      ],
      "name": "AdjustedPosition",
      "type": "event"
    },
    {
      "anonymous": false,
      "inputs": [
        {
          "indexed": false,
          "internalType": "uint8",
          "name": "version",
          "type": "uint8"
        }
      ],
      "name": "Initialized",
      "type": "event"
    },
    {
      "anonymous": false,
      "inputs": [
        {
          "indexed": false,
          "internalType": "uint16",
          "name": "_srcChainId",
          "type": "uint16"
        },
        {
          "indexed": false,
          "internalType": "bytes",
          "name": "_srcAddress",
          "type": "bytes"
        },
        {
          "indexed": false,
          "internalType": "uint64",
          "name": "_nonce",
          "type": "uint64"
        },
        {
          "indexed": false,
          "internalType": "bytes",
          "name": "_payload",
          "type": "bytes"
        },
        {
          "indexed": false,
          "internalType": "bytes",
          "name": "_reason",
          "type": "bytes"
        }
      ],
      "name": "MessageFailed",
      "type": "event"
    },
    {
      "anonymous": false,
      "inputs": [
        {
          "indexed": true,
          "internalType": "address",
          "name": "previousOwner",
          "type": "address"
        },
        {
          "indexed": true,
          "internalType": "address",
          "name": "newOwner",
          "type": "address"
        }
      ],
      "name": "OwnershipTransferred",
      "type": "event"
    },
    {
      "anonymous": false,
      "inputs": [
        {
          "indexed": false,
          "internalType": "uint16",
          "name": "_srcChainId",
          "type": "uint16"
        },
        {
          "indexed": false,
          "internalType": "bytes",
          "name": "_srcAddress",
          "type": "bytes"
        },
        {
          "indexed": false,
          "internalType": "uint64",
          "name": "_nonce",
          "type": "uint64"
        },
        {
          "indexed": false,
          "internalType": "bytes32",
          "name": "_payloadHash",
          "type": "bytes32"
        }
      ],
      "name": "RetryMessageSuccess",
      "type": "event"
    },
    {
      "anonymous": false,
      "inputs": [
        {
          "indexed": false,
          "internalType": "uint16",
          "name": "_dstChainId",
          "type": "uint16"
        },
        {
          "indexed": false,
          "internalType": "uint16",
          "name": "_type",
          "type": "uint16"
        },
        {
          "indexed": false,
          "internalType": "uint256",
          "name": "_minDstGas",
          "type": "uint256"
        }
      ],
      "name": "SetMinDstGas",
      "type": "event"
    },
    {
      "anonymous": false,
      "inputs": [
        {
          "indexed": false,
          "internalType": "address",
          "name": "precrime",
          "type": "address"
        }
      ],
      "name": "SetPrecrime",
      "type": "event"
    },
    {
      "anonymous": false,
      "inputs": [
        {
          "indexed": false,
          "internalType": "uint16",
          "name": "_remoteChainId",
          "type": "uint16"
        },
        {
          "indexed": false,
          "internalType": "bytes",
          "name": "_path",
          "type": "bytes"
        }
      ],
      "name": "SetTrustedRemote",
      "type": "event"
    },
    {
      "anonymous": false,
      "inputs": [
        {
          "indexed": false,
          "internalType": "uint16",
          "name": "_remoteChainId",
          "type": "uint16"
        },
        {
          "indexed": false,
          "internalType": "bytes",
          "name": "_remoteAddress",
          "type": "bytes"
        }
      ],
      "name": "SetTrustedRemoteAddress",
      "type": "event"
    },
    {
      "anonymous": false,
      "inputs": [
        {
          "indexed": true,
          "internalType": "address",
          "name": "token",
          "type": "address"
        },
        {
          "indexed": false,
          "internalType": "uint256",
          "name": "amount",
          "type": "uint256"
        },
        {
          "indexed": false,
          "internalType": "address",
          "name": "sender",
          "type": "address"
        }
      ],
      "name": "SgReceived",
      "type": "event"
    },
    {
      "anonymous": false,
      "inputs": [
        {
          "indexed": false,
          "internalType": "address",
          "name": "newStrategy",
          "type": "address"
        }
      ],
      "name": "StrategyMigrated",
      "type": "event"
    },
    {
      "anonymous": false,
      "inputs": [
        {
          "indexed": false,
          "internalType": "uint256",
          "name": "profit",
          "type": "uint256"
        },
        {
          "indexed": false,
          "internalType": "uint256",
          "name": "loss",
          "type": "uint256"
        },
        {
          "indexed": false,
          "internalType": "uint256",
          "name": "debtPayment",
          "type": "uint256"
        },
        {
          "indexed": false,
          "internalType": "uint256",
          "name": "giveToStrategy",
          "type": "uint256"
        },
        {
          "indexed": false,
          "internalType": "uint256",
          "name": "requestFromStrategy",
          "type": "uint256"
        },
        {
          "indexed": false,
          "internalType": "uint256",
          "name": "creditAvailable",
          "type": "uint256"
        },
        {
          "indexed": false,
          "internalType": "uint256",
          "name": "totalAssets",
          "type": "uint256"
        }
      ],
      "name": "StrategyReported",
      "type": "event"
    },
    {
      "inputs": [],
      "name": "DEFAULT_PAYLOAD_SIZE_LIMIT",
      "outputs": [
        {
          "internalType": "uint256",
          "name": "",
          "type": "uint256"
        }
      ],
      "stateMutability": "view",
      "type": "function"
    },
    {
      "inputs": [],
      "name": "DEFAULT_SLIPPAGE",
      "outputs": [
        {
          "internalType": "uint256",
          "name": "",
          "type": "uint256"
        }
      ],
      "stateMutability": "view",
      "type": "function"
    },
    {
      "inputs": [
        {
          "internalType": "uint256",
          "name": "_debtOutstanding",
          "type": "uint256"
        }
      ],
      "name": "adjustPosition",
      "outputs": [],
      "stateMutability": "nonpayable",
      "type": "function"
    },
    {
      "inputs": [],
      "name": "balanceOfLpStaked",
      "outputs": [
        {
          "internalType": "uint256",
          "name": "",
          "type": "uint256"
        }
      ],
      "stateMutability": "view",
      "type": "function"
    },
    {
      "inputs": [],
      "name": "balanceOfPearlRewards",
      "outputs": [
        {
          "internalType": "uint256",
          "name": "",
          "type": "uint256"
        }
      ],
      "stateMutability": "view",
      "type": "function"
    },
    {
      "inputs": [],
      "name": "balanceOfWant",
      "outputs": [
        {
          "internalType": "uint256",
          "name": "",
          "type": "uint256"
        }
      ],
      "stateMutability": "view",
      "type": "function"
    },
    {
      "inputs": [
        {
          "internalType": "uint256",
          "name": "epoch",
          "type": "uint256"
        }
      ],
      "name": "callMe",
      "outputs": [],
      "stateMutability": "nonpayable",
      "type": "function"
    },
    {
      "inputs": [],
      "name": "clearWant",
      "outputs": [],
      "stateMutability": "nonpayable",
      "type": "function"
    },
    {
      "inputs": [],
      "name": "currentChainId",
      "outputs": [
        {
          "internalType": "uint16",
          "name": "",
          "type": "uint16"
        }
      ],
      "stateMutability": "view",
      "type": "function"
    },
    {
      "inputs": [
        {
          "internalType": "uint256",
          "name": "_daiAmount",
          "type": "uint256"
        }
      ],
      "name": "daiToWant",
      "outputs": [
        {
          "internalType": "uint256",
          "name": "",
          "type": "uint256"
        }
      ],
      "stateMutability": "view",
      "type": "function"
    },
    {
      "inputs": [],
      "name": "emergencyExit",
      "outputs": [
        {
          "internalType": "bool",
          "name": "",
          "type": "bool"
        }
      ],
      "stateMutability": "view",
      "type": "function"
    },
    {
      "inputs": [],
      "name": "estimatedTotalAssets",
      "outputs": [
        {
          "internalType": "uint256",
          "name": "",
          "type": "uint256"
        }
      ],
      "stateMutability": "view",
      "type": "function"
    },
    {
      "inputs": [
        {
          "internalType": "uint256",
          "name": "_stakedLpTokens",
          "type": "uint256"
        }
      ],
      "name": "exitPosition",
      "outputs": [],
      "stateMutability": "nonpayable",
      "type": "function"
    },
    {
      "inputs": [
        {
          "internalType": "uint16",
          "name": "",
          "type": "uint16"
        },
        {
          "internalType": "bytes",
          "name": "",
          "type": "bytes"
        },
        {
          "internalType": "uint64",
          "name": "",
          "type": "uint64"
        }
      ],
      "name": "failedMessages",
      "outputs": [
        {
          "internalType": "bytes32",
          "name": "",
          "type": "bytes32"
        }
      ],
      "stateMutability": "view",
      "type": "function"
    },
    {
      "inputs": [
        {
          "internalType": "uint16",
          "name": "_srcChainId",
          "type": "uint16"
        },
        {
          "internalType": "bytes",
          "name": "_srcAddress",
          "type": "bytes"
        }
      ],
      "name": "forceResumeReceive",
      "outputs": [],
      "stateMutability": "nonpayable",
      "type": "function"
    },
    {
      "inputs": [
        {
          "internalType": "uint16",
          "name": "_version",
          "type": "uint16"
        },
        {
          "internalType": "uint16",
          "name": "_chainId",
          "type": "uint16"
        },
        {
          "internalType": "address",
          "name": "",
          "type": "address"
        },
        {
          "internalType": "uint256",
          "name": "_configType",
          "type": "uint256"
        }
      ],
      "name": "getConfig",
      "outputs": [
        {
          "internalType": "bytes",
          "name": "",
          "type": "bytes"
        }
      ],
      "stateMutability": "view",
      "type": "function"
    },
    {
      "inputs": [
        {
          "internalType": "bytes32",
          "name": "_messageHash",
          "type": "bytes32"
        }
      ],
      "name": "getEthSignedMessageHash",
      "outputs": [
        {
          "internalType": "bytes32",
          "name": "",
          "type": "bytes32"
        }
      ],
      "stateMutability": "pure",
      "type": "function"
    },
    {
      "inputs": [
        {
          "internalType": "uint16",
          "name": "_remoteChainId",
          "type": "uint16"
        }
      ],
      "name": "getTrustedRemoteAddress",
      "outputs": [
        {
          "internalType": "bytes",
          "name": "",
          "type": "bytes"
        }
      ],
      "stateMutability": "view",
      "type": "function"
    },
    {
      "inputs": [
        {
          "internalType": "uint256",
          "name": "_totalDebt",
          "type": "uint256"
        },
        {
          "internalType": "uint256",
          "name": "_debtOutstanding",
          "type": "uint256"
        },
        {
          "internalType": "uint256",
          "name": "_creditAvailable",
          "type": "uint256"
        },
        {
          "internalType": "uint256",
          "name": "_debtRatio",
          "type": "uint256"
        },
        {
          "internalType": "bytes",
          "name": "_signature",
          "type": "bytes"
        }
      ],
      "name": "harvest",
      "outputs": [],
      "stateMutability": "nonpayable",
      "type": "function"
    },
    {
      "inputs": [
        {
          "internalType": "address",
          "name": "_lzEndpoint",
          "type": "address"
        },
        {
          "internalType": "address",
          "name": "_strategist",
          "type": "address"
        },
        {
          "internalType": "contract IERC20",
          "name": "_want",
          "type": "address"
        },
        {
          "internalType": "address",
          "name": "_vault",
          "type": "address"
        },
        {
          "internalType": "uint16",
          "name": "_vaultChainId",
          "type": "uint16"
        },
        {
          "internalType": "uint16",
          "name": "_currentChainId",
          "type": "uint16"
        },
        {
          "internalType": "address",
          "name": "_sgBridge",
          "type": "address"
        },
        {
          "internalType": "address",
          "name": "_router",
          "type": "address"
        }
      ],
      "name": "initialize",
      "outputs": [],
      "stateMutability": "nonpayable",
      "type": "function"
    },
    {
      "inputs": [
        {
          "internalType": "uint16",
          "name": "_srcChainId",
          "type": "uint16"
        },
        {
          "internalType": "bytes",
          "name": "_srcAddress",
          "type": "bytes"
        }
      ],
      "name": "isTrustedRemote",
      "outputs": [
        {
          "internalType": "bool",
          "name": "",
          "type": "bool"
        }
      ],
      "stateMutability": "view",
      "type": "function"
    },
    {
      "inputs": [],
      "name": "liquidateAllPositions",
      "outputs": [
        {
          "internalType": "uint256",
          "name": "",
          "type": "uint256"
        }
      ],
      "stateMutability": "nonpayable",
      "type": "function"
    },
    {
      "inputs": [
        {
          "internalType": "uint256",
          "name": "_amountNeeded",
          "type": "uint256"
        }
      ],
      "name": "liquidatePosition",
      "outputs": [],
      "stateMutability": "nonpayable",
      "type": "function"
    },
    {
      "inputs": [],
      "name": "lzEndpoint",
      "outputs": [
        {
          "internalType": "contract ILayerZeroEndpointUpgradeable",
          "name": "",
          "type": "address"
        }
      ],
      "stateMutability": "view",
      "type": "function"
    },
    {
      "inputs": [
        {
          "internalType": "uint16",
          "name": "_srcChainId",
          "type": "uint16"
        },
        {
          "internalType": "bytes",
          "name": "_srcAddress",
          "type": "bytes"
        },
        {
          "internalType": "uint64",
          "name": "_nonce",
          "type": "uint64"
        },
        {
          "internalType": "bytes",
          "name": "_payload",
          "type": "bytes"
        }
      ],
      "name": "lzReceive",
      "outputs": [],
      "stateMutability": "nonpayable",
      "type": "function"
    },
    {
      "inputs": [
        {
          "internalType": "uint16",
          "name": "",
          "type": "uint16"
        },
        {
          "internalType": "uint16",
          "name": "",
          "type": "uint16"
        }
      ],
      "name": "minDstGasLookup",
      "outputs": [
        {
          "internalType": "uint256",
          "name": "",
          "type": "uint256"
        }
      ],
      "stateMutability": "view",
      "type": "function"
    },
    {
      "inputs": [],
      "name": "name",
      "outputs": [
        {
          "internalType": "string",
          "name": "",
          "type": "string"
        }
      ],
      "stateMutability": "pure",
      "type": "function"
    },
    {
      "inputs": [
        {
          "internalType": "uint16",
          "name": "_srcChainId",
          "type": "uint16"
        },
        {
          "internalType": "bytes",
          "name": "_srcAddress",
          "type": "bytes"
        },
        {
          "internalType": "uint64",
          "name": "_nonce",
          "type": "uint64"
        },
        {
          "internalType": "bytes",
          "name": "_payload",
          "type": "bytes"
        }
      ],
      "name": "nonblockingLzReceive",
      "outputs": [],
      "stateMutability": "nonpayable",
      "type": "function"
    },
    {
      "inputs": [],
      "name": "owner",
      "outputs": [
        {
          "internalType": "address",
          "name": "",
          "type": "address"
        }
      ],
      "stateMutability": "view",
      "type": "function"
    },
    {
      "inputs": [
        {
          "internalType": "uint16",
          "name": "",
          "type": "uint16"
        }
      ],
      "name": "payloadSizeLimitLookup",
      "outputs": [
        {
          "internalType": "uint256",
          "name": "",
          "type": "uint256"
        }
      ],
      "stateMutability": "view",
      "type": "function"
    },
    {
      "inputs": [
        {
          "internalType": "uint256",
          "name": "_pearlAmount",
          "type": "uint256"
        }
      ],
      "name": "pearlToWant",
      "outputs": [
        {
          "internalType": "uint256",
          "name": "",
          "type": "uint256"
        }
      ],
      "stateMutability": "view",
      "type": "function"
    },
    {
      "inputs": [],
      "name": "precrime",
      "outputs": [
        {
          "internalType": "address",
          "name": "",
          "type": "address"
        }
      ],
      "stateMutability": "view",
      "type": "function"
    },
    {
      "inputs": [],
      "name": "renounceOwnership",
      "outputs": [],
      "stateMutability": "nonpayable",
      "type": "function"
    },
    {
      "inputs": [
        {
          "internalType": "uint16",
          "name": "_srcChainId",
          "type": "uint16"
        },
        {
          "internalType": "bytes",
          "name": "_srcAddress",
          "type": "bytes"
        },
        {
          "internalType": "uint64",
          "name": "_nonce",
          "type": "uint64"
        },
        {
          "internalType": "bytes",
          "name": "_payload",
          "type": "bytes"
        }
      ],
      "name": "retryMessage",
      "outputs": [],
      "stateMutability": "payable",
      "type": "function"
    },
    {
      "inputs": [],
      "name": "revokeFunds",
      "outputs": [],
      "stateMutability": "nonpayable",
      "type": "function"
    },
    {
      "inputs": [
        {
          "internalType": "uint256",
          "name": "_pearlAmount",
          "type": "uint256"
        }
      ],
      "name": "sellPearl",
      "outputs": [],
      "stateMutability": "nonpayable",
      "type": "function"
    },
    {
      "inputs": [
        {
          "internalType": "uint256",
          "name": "_usdrAmount",
          "type": "uint256"
        }
      ],
      "name": "sellUsdr",
      "outputs": [],
      "stateMutability": "nonpayable",
      "type": "function"
    },
    {
      "inputs": [
        {
          "internalType": "uint16",
          "name": "_version",
          "type": "uint16"
        },
        {
          "internalType": "uint16",
          "name": "_chainId",
          "type": "uint16"
        },
        {
          "internalType": "uint256",
          "name": "_configType",
          "type": "uint256"
        },
        {
          "internalType": "bytes",
          "name": "_config",
          "type": "bytes"
        }
      ],
      "name": "setConfig",
      "outputs": [],
      "stateMutability": "nonpayable",
      "type": "function"
    },
    {
      "inputs": [
        {
          "internalType": "bool",
          "name": "_emergencyExit",
          "type": "bool"
        }
      ],
      "name": "setEmergencyExit",
      "outputs": [],
      "stateMutability": "nonpayable",
      "type": "function"
    },
    {
      "inputs": [
        {
          "internalType": "uint16",
          "name": "_dstChainId",
          "type": "uint16"
        },
        {
          "internalType": "uint16",
          "name": "_packetType",
          "type": "uint16"
        },
        {
          "internalType": "uint256",
          "name": "_minGas",
          "type": "uint256"
        }
      ],
      "name": "setMinDstGas",
      "outputs": [],
      "stateMutability": "nonpayable",
      "type": "function"
    },
    {
      "inputs": [
        {
          "internalType": "uint16",
          "name": "_dstChainId",
          "type": "uint16"
        },
        {
          "internalType": "uint256",
          "name": "_size",
          "type": "uint256"
        }
      ],
      "name": "setPayloadSizeLimit",
      "outputs": [],
      "stateMutability": "nonpayable",
      "type": "function"
    },
    {
      "inputs": [
        {
          "internalType": "address",
          "name": "_precrime",
          "type": "address"
        }
      ],
      "name": "setPrecrime",
      "outputs": [],
      "stateMutability": "nonpayable",
      "type": "function"
    },
    {
      "inputs": [
        {
          "internalType": "uint16",
          "name": "_version",
          "type": "uint16"
        }
      ],
      "name": "setReceiveVersion",
      "outputs": [],
      "stateMutability": "nonpayable",
      "type": "function"
    },
    {
      "inputs": [
        {
          "internalType": "uint16",
          "name": "_version",
          "type": "uint16"
        }
      ],
      "name": "setSendVersion",
      "outputs": [],
      "stateMutability": "nonpayable",
      "type": "function"
    },
    {
      "inputs": [
        {
          "internalType": "uint256",
          "name": "_slippage",
          "type": "uint256"
        }
      ],
      "name": "setSlippage",
      "outputs": [],
      "stateMutability": "nonpayable",
      "type": "function"
    },
    {
      "inputs": [
        {
          "internalType": "uint16",
          "name": "_srcChainId",
          "type": "uint16"
        },
        {
          "internalType": "bytes",
          "name": "_path",
          "type": "bytes"
        }
      ],
      "name": "setTrustedRemote",
      "outputs": [],
      "stateMutability": "nonpayable",
      "type": "function"
    },
    {
      "inputs": [
        {
          "internalType": "uint16",
          "name": "_remoteChainId",
          "type": "uint16"
        },
        {
          "internalType": "bytes",
          "name": "_remoteAddress",
          "type": "bytes"
        }
      ],
      "name": "setTrustedRemoteAddress",
      "outputs": [],
      "stateMutability": "nonpayable",
      "type": "function"
    },
    {
      "inputs": [],
      "name": "sgBridge",
      "outputs": [
        {
          "internalType": "contract ISgBridge",
          "name": "",
          "type": "address"
        }
      ],
      "stateMutability": "view",
      "type": "function"
    },
    {
      "inputs": [
        {
          "internalType": "uint16",
          "name": "",
          "type": "uint16"
        },
        {
          "internalType": "bytes",
          "name": "_srcAddress",
          "type": "bytes"
        },
        {
          "internalType": "uint256",
          "name": "",
          "type": "uint256"
        },
        {
          "internalType": "address",
          "name": "_token",
          "type": "address"
        },
        {
          "internalType": "uint256",
          "name": "_amountLD",
          "type": "uint256"
        },
        {
          "internalType": "bytes",
          "name": "",
          "type": "bytes"
        }
      ],
      "name": "sgReceive",
      "outputs": [],
      "stateMutability": "nonpayable",
      "type": "function"
    },
    {
      "inputs": [],
      "name": "sgRouter",
      "outputs": [
        {
          "internalType": "contract IStargateRouter",
          "name": "",
          "type": "address"
        }
      ],
      "stateMutability": "view",
      "type": "function"
    },
    {
      "inputs": [],
      "name": "slippage",
      "outputs": [
        {
          "internalType": "uint256",
          "name": "",
          "type": "uint256"
        }
      ],
      "stateMutability": "view",
      "type": "function"
    },
    {
      "inputs": [],
      "name": "strategist",
      "outputs": [
        {
          "internalType": "address",
          "name": "",
          "type": "address"
        }
      ],
      "stateMutability": "view",
      "type": "function"
    },
    {
      "inputs": [],
      "name": "strategistSignMessageHash",
      "outputs": [
        {
          "internalType": "bytes32",
          "name": "",
          "type": "bytes32"
        }
      ],
      "stateMutability": "view",
      "type": "function"
    },
    {
      "inputs": [
        {
          "internalType": "contract IERC20",
          "name": "_token",
          "type": "address"
        }
      ],
      "name": "sweepToken",
      "outputs": [],
      "stateMutability": "nonpayable",
      "type": "function"
    },
    {
      "inputs": [
        {
          "internalType": "address",
          "name": "newOwner",
          "type": "address"
        }
      ],
      "name": "transferOwnership",
      "outputs": [],
      "stateMutability": "nonpayable",
      "type": "function"
    },
    {
      "inputs": [
        {
          "internalType": "uint16",
          "name": "",
          "type": "uint16"
        }
      ],
      "name": "trustedRemoteLookup",
      "outputs": [
        {
          "internalType": "bytes",
          "name": "",
          "type": "bytes"
        }
      ],
      "stateMutability": "view",
      "type": "function"
    },
    {
      "inputs": [
        {
          "internalType": "uint256",
          "name": "_usdrLpAmount",
          "type": "uint256"
        }
      ],
      "name": "usdrLpToWant",
      "outputs": [
        {
          "internalType": "uint256",
          "name": "",
          "type": "uint256"
        }
      ],
      "stateMutability": "view",
      "type": "function"
    },
    {
      "inputs": [],
      "name": "usdrToUsdcRate",
      "outputs": [
        {
          "internalType": "uint256",
          "name": "",
          "type": "uint256"
        }
      ],
      "stateMutability": "view",
      "type": "function"
    },
    {
      "inputs": [
        {
          "internalType": "uint256",
          "name": "_usdrAmount",
          "type": "uint256"
        }
      ],
      "name": "usdrToWant",
      "outputs": [
        {
          "internalType": "uint256",
          "name": "",
          "type": "uint256"
        }
      ],
      "stateMutability": "view",
      "type": "function"
    },
    {
      "inputs": [],
      "name": "vault",
      "outputs": [
        {
          "internalType": "address",
          "name": "",
          "type": "address"
        }
      ],
      "stateMutability": "view",
      "type": "function"
    },
    {
      "inputs": [],
      "name": "vaultChainId",
      "outputs": [
        {
          "internalType": "uint16",
          "name": "",
          "type": "uint16"
        }
      ],
      "stateMutability": "view",
      "type": "function"
    },
    {
      "inputs": [],
      "name": "want",
      "outputs": [
        {
          "internalType": "contract IERC20",
          "name": "",
          "type": "address"
        }
      ],
      "stateMutability": "view",
      "type": "function"
    },
    {
      "inputs": [],
      "name": "wantDecimals",
      "outputs": [
        {
          "internalType": "uint8",
          "name": "",
          "type": "uint8"
        }
      ],
      "stateMutability": "view",
      "type": "function"
    },
    {
      "inputs": [
        {
          "internalType": "uint256",
          "name": "_wantAmount",
          "type": "uint256"
        }
      ],
      "name": "wantToUsdrLp",
      "outputs": [
        {
          "internalType": "uint256",
          "name": "",
          "type": "uint256"
        }
      ],
      "stateMutability": "view",
      "type": "function"
    },
    {
      "inputs": [
        {
          "internalType": "uint256",
          "name": "_amountNeeded",
          "type": "uint256"
        }
      ],
      "name": "withdrawSome",
      "outputs": [],
      "stateMutability": "nonpayable",
      "type": "function"
    },
    {
      "stateMutability": "payable",
      "type": "receive"
    }
  ],
  "bytecode": "0x608060405234801561001057600080fd5b50615f5e80620000216000396000f3fe6080604052600436106102f15760003560e01c80638da5cb5b1161018d5780638da5cb5b146107865780638f4508d01461079b578063950c8a74146107b05780639589c990146107d05780639606647d146107f05780639f38369a14610805578063a6c3d16514610825578063a879851014610845578063a9e508241461085b578063ab8236f31461087b578063adf076e61461089b578063ae9b051c146108ce578063b353aaa7146108ee578063baf3292d1461090e578063bd79ac131461092e578063c1a3d44c1461094e578063c446183414610963578063ca2e283514610979578063cbed8b9c1461098e578063cdddd4e5146109ae578063d1deba1f146109ce578063d56739ac146109e1578063df2a5b3b146109f6578063e73620c314610a16578063e964404414610a36578063eb8d72b714610a56578063efbb5cb014610a76578063f0fa55a914610a8b578063f2fde38b14610aab578063f5ecbdbc14610acb578063fa54080114610aeb578063fbfa77cf14610b0b578063fcb988a414610b2b57600080fd5b80621d3567146102fd5780630517cb761461031f57806306fdde031461035557806307e0db17146103945780630df37483146103b457806310ddb137146103d45780631be19560146103f45780631cdb539f146104145780631f1fcd51146104345780631fe4a686146104545780632d6068431461047457806337fded91146104895780633d3ccc2f146104ae5780633d8b38f6146104ce5780633e032a3b146104fe5780633eae1112146105225780633f1f4fa41461054257806342d65a8d1461056f57806345ee07551461058f578063495f881e146105af5780634a5f58d1146105cf57806350bb4beb146105ef5780635641ec0314610604578063567ad85d1461061e578063593178de146106535780635b8c41e61461066857806366ad5c8a146106b75780636cbadbfa146106d7578063715018a6146106f95780637533d7881461070e57806378dc90591461072e5780638cfd8f5c1461074e57600080fd5b366102f857005b600080fd5b34801561030957600080fd5b5061031d610318366004614c08565b610b4b565b005b34801561032b57600080fd5b5060ce5461033f906001600160a01b031681565b60405161034c9190614c9b565b60405180910390f35b34801561036157600080fd5b5060408051808201909152600d81526c506561726c537472617465677960981b60208201525b60405161034c9190614cff565b3480156103a057600080fd5b5061031d6103af366004614d12565b610c34565b3480156103c057600080fd5b5061031d6103cf366004614d2d565b610ca1565b3480156103e057600080fd5b5061031d6103ef366004614d12565b610cc0565b34801561040057600080fd5b5061031d61040f366004614d6c565b610cfc565b34801561042057600080fd5b5061031d61042f366004614d89565b610d89565b34801561044057600080fd5b5060ca5461033f906001600160a01b031681565b34801561046057600080fd5b5060c95461033f906001600160a01b031681565b34801561048057600080fd5b5061031d610fed565b34801561049557600080fd5b5060cd5461033f9061010090046001600160a01b031681565b3480156104ba57600080fd5b5061031d6104c9366004614e3b565b61102e565b3480156104da57600080fd5b506104ee6104e9366004614e54565b611064565b604051901515815260200161034c565b34801561050a57600080fd5b5061051460cc5481565b60405190815260200161034c565b34801561052e57600080fd5b5061051461053d366004614e3b565b611131565b34801561054e57600080fd5b5061051461055d366004614d12565b60686020526000908152604090205481565b34801561057b57600080fd5b5061031d61058a366004614e54565b6111bf565b34801561059b57600080fd5b5061031d6105aa366004614eb4565b611232565b3480156105bb57600080fd5b5061031d6105ca366004614fbc565b61124d565b3480156105db57600080fd5b5061031d6105ea366004614e3b565b6114f1565b3480156105fb57600080fd5b506105146114fa565b34801561061057600080fd5b5060cd546104ee9060ff1681565b34801561062a57600080fd5b5060cb5461064090600160a01b900461ffff1681565b60405161ffff909116815260200161034c565b34801561065f57600080fd5b50610514611509565b34801561067457600080fd5b5061051461068336600461501f565b6097602090815260009384526040808520845180860184018051928152908401958401959095209452929052825290205481565b3480156106c357600080fd5b5061031d6106d2366004614c08565b611567565b3480156106e357600080fd5b5060cb5461064090600160b01b900461ffff1681565b34801561070557600080fd5b5061031d61163b565b34801561071a57600080fd5b50610387610729366004614d12565b61164f565b34801561073a57600080fd5b5061031d610749366004614e3b565b6116e9565b34801561075a57600080fd5b5061051461076936600461507c565b606760209081526000928352604080842090915290825290205481565b34801561079257600080fd5b5061033f6116f2565b3480156107a757600080fd5b50610514611701565b3480156107bc57600080fd5b5060695461033f906001600160a01b031681565b3480156107dc57600080fd5b506105146107eb366004614e3b565b611776565b3480156107fc57600080fd5b5061031d61180e565b34801561081157600080fd5b50610387610820366004614d12565b6118a1565b34801561083157600080fd5b5061031d610840366004614e54565b6119b0565b34801561085157600080fd5b5061051461264881565b34801561086757600080fd5b50610514610876366004614e3b565b611a39565b34801561088757600080fd5b5061031d6108963660046150af565b611af2565b3480156108a757600080fd5b5060cb546108bc90600160c01b900460ff1681565b60405160ff909116815260200161034c565b3480156108da57600080fd5b5061031d6108e9366004614e3b565b611c12565b3480156108fa57600080fd5b5060655461033f906001600160a01b031681565b34801561091a57600080fd5b5061031d610929366004614d6c565b611c1b565b34801561093a57600080fd5b50610514610949366004614e3b565b611c6e565b34801561095a57600080fd5b50610514611cc6565b34801561096f57600080fd5b5061051461271081565b34801561098557600080fd5b50610514611cf7565b34801561099a57600080fd5b5061031d6109a9366004615149565b611ddb565b3480156109ba57600080fd5b5061031d6109c9366004614e3b565b611e49565b61031d6109dc366004614c08565b611e57565b3480156109ed57600080fd5b5061051461206d565b348015610a0257600080fd5b5061031d610a113660046151b7565b61209f565b348015610a2257600080fd5b5061031d610a31366004614e3b565b612151565b348015610a4257600080fd5b5061031d610a51366004614e3b565b612171565b348015610a6257600080fd5b5061031d610a71366004614e54565b61217a565b348015610a8257600080fd5b506105146121d4565b348015610a9757600080fd5b5061031d610aa6366004614e3b565b6122ee565b348015610ab757600080fd5b5061031d610ac6366004614d6c565b6122fb565b348015610ad757600080fd5b50610387610ae63660046151f3565b612371565b348015610af757600080fd5b50610514610b06366004614e3b565b612404565b348015610b1757600080fd5b5060cb5461033f906001600160a01b031681565b348015610b3757600080fd5b50610514610b46366004614e3b565b612456565b6065546001600160a01b03163314610bb65760405162461bcd60e51b815260206004820152602360248201527f4261736553747261746567793a3a496e76616c6964456e64706f696e7443616c6044820152623632b960e91b60648201526084015b60405180910390fd5b610c2c8686868080601f01602080910402602001604051908101604052809392919081815260200183838082843760009201919091525050604080516020601f8901819004810282018101909252878152899350915087908790819084018382808284376000920191909152506124fe92505050565b505050505050565b610c3c612577565b6065546040516307e0db1760e01b815261ffff831660048201526001600160a01b03909116906307e0db17906024015b600060405180830381600087803b158015610c8657600080fd5b505af1158015610c9a573d6000803e3d6000fd5b5050505050565b610ca9612577565b61ffff909116600090815260686020526040902055565b610cc8612577565b6065546040516310ddb13760e01b815261ffff831660048201526001600160a01b03909116906310ddb13790602401610c6c565b610d046125d6565b610d8633826001600160a01b03166370a08231306040518263ffffffff1660e01b8152600401610d349190614c9b565b602060405180830381865afa158015610d51573d6000803e3d6000fd5b505050506040513d601f19601f82011682018060405250810190610d759190615240565b6001600160a01b038416919061262f565b50565b600054610100900460ff1615808015610da95750600054600160ff909116105b80610dca5750610db830612685565b158015610dca575060005460ff166001145b610e2d5760405162461bcd60e51b815260206004820152602e60248201527f496e697469616c697a61626c653a20636f6e747261637420697320616c72656160448201526d191e481a5b9a5d1a585b1a5e995960921b6064820152608401610bad565b6000805460ff191660011790558015610e50576000805461ff0019166101001790555b610e638989898989898989612648612694565b60ca54610e90906001600160a01b03167368b3465833fb72a70ecdf485e0e4c7bd8665fc45600019612873565b60ca54610eb7906001600160a01b0316600080516020615e89833981519152600019612873565b610ee0600080516020615ee9833981519152600080516020615e89833981519152600019612873565b610f0f73d17cb0f162f133e339c0bbfc18c36c357e681d6b600080516020615ea9833981519152600019612873565b610f3e73d17cb0f162f133e339c0bbfc18c36c357e681d6b600080516020615e89833981519152600019612873565b610f73738f3cf7ad23cd3cadbd9735aff958023239c6a06373195f7b233947d51f4c3b756ad41a5ddb34cebce0600019612873565b610f9c600080516020615ec9833981519152600080516020615e89833981519152600019612873565b8015610fe2576000805461ff0019169055604051600181527f7f26b83ff96e1f2b6a682f133852f6798a09c465da95921460cefb38474024989060200160405180910390a15b505050505050505050565b610ff56125d6565b60c9546040516001600160a01b03909116904780156108fc02916000818181858888f19350505050158015610d86573d6000803e3d6000fd5b6110366125d6565b61103f81612977565b604051818152600080516020615f09833981519152906020015b60405180910390a150565b61ffff83166000908152606660205260408120805482919061108590615259565b80601f01602080910402602001604051908101604052809291908181526020018280546110b190615259565b80156110fe5780601f106110d3576101008083540402835291602001916110fe565b820191906000526020600020905b8154815290600101906020018083116110e157829003601f168201915b505050505090508383604051611115929190615293565b60405180910390208180519060200120149150505b9392505050565b60006111b982600080516020615ee98339815191526001600160a01b031663313ce5676040518163ffffffff1660e01b8152600401602060405180830381865afa158015611183573d6000803e3d6000fd5b505050506040513d601f19601f820116820180604052508101906111a791906152a3565b60cb54600160c01b900460ff16613094565b92915050565b6111c7612577565b6065546040516342d65a8d60e01b81526001600160a01b03909116906342d65a8d906111fb908690869086906004016152ef565b600060405180830381600087803b15801561121557600080fd5b505af1158015611229573d6000803e3d6000fd5b50505050505050565b61123a6125d6565b60cd805460ff1916911515919091179055565b6112556125d6565b61125e816130e9565b60cd546000908190819060ff161561130a5784156112be5760405162461bcd60e51b815260206004820152601e60248201527f4261736553747261746567793a3a44656274526174696f4e6f745a65726f00006044820152606401610bad565b60006112c861316f565b9050878110156112e3576112dc8189615323565b92506112f8565b878111156112f8576112f58882615323565b93505b6113028389615323565b91505061131c565b61131488886131b1565b919450925090505b60006113288285615336565b90506000808883101561134a5761133f838a615323565b91506000905061135b565b600091506113588984615323565b90505b6000604051806101600160405280306001600160a01b031681526020014281526020018881526020018781526020018681526020018481526020018381526020018b8152602001836113ab6121d4565b6113b59190615323565b815260200160d060008154809291906113cd90615349565b9091555081526020018990529050811561142d5760cb5460405161142891849161ffff600160a01b830416916001600160a01b03169061141490600290879060200161539a565b6040516020818303038152906040526132a8565b611458565b61145860028260405160200161144492919061539a565b604051602081830303815290604052613396565b7fb983e09c034e9c52b5e547cb0589967992b97717733f580cc5ad0afcdc4b522b8160400151826060015183608001518460a001518560c001518660e001518761010001516040516114db9796959493929190968752602087019590955260408601939093526060850191909152608084015260a083015260c082015260e00190565b60405180910390a1505050505050505050505050565b610d8681613516565b600061150461316f565b905090565b60d05460cb546040513060601b6001600160601b03191660208201526034810192909252600160b01b900460f01b6001600160f01b031916605482015260009060560160405160208183030381529060405280519060200120905090565b3330146115c55760405162461bcd60e51b815260206004820152602660248201527f4e6f6e626c6f636b696e674c7a4170703a2063616c6c6572206d7573742062656044820152650204c7a4170760d41b6064820152608401610bad565b610c2c8686868080601f01602080910402602001604051908101604052809392919081815260200183838082843760009201919091525050604080516020601f8901819004810282018101909252878152899350915087908790819084018382808284376000920191909152506136af92505050565b611643612577565b61164d60006137c5565b565b6066602052600090815260409020805461166890615259565b80601f016020809104026020016040519081016040528092919081815260200182805461169490615259565b80156116e15780601f106116b6576101008083540402835291602001916116e1565b820191906000526020600020905b8154815290600101906020018083116116c457829003601f168201915b505050505081565b610d8681613817565b6033546001600160a01b031690565b6040516370a0823160e01b8152600090600080516020615ea9833981519152906370a0823190611735903090600401614c9b565b602060405180830381865afa158015611752573d6000803e3d6000fd5b505050506040513d601f19601f820116820180604052508101906115049190615240565b6040516328bd9fc160e11b8152600090819073f68c20d6c50706f6c6bd8ee184382518c93b368c9063517b3f82906117c290600080516020615ec9833981519152908790600401615445565b602060405180830381865afa1580156117df573d6000803e3d6000fd5b505050506040513d601f19601f820116820180604052508101906118039190615240565b905061112a81611131565b6118166125d6565b60ca546040516370a0823160e01b815261164d916001916001600160a01b03909116906370a082319061184d903090600401614c9b565b602060405180830381865afa15801561186a573d6000803e3d6000fd5b505050506040513d601f19601f8201168201806040525081019061188e9190615240565b60ca546001600160a01b0316919061262f565b61ffff81166000908152606660205260408120805460609291906118c490615259565b80601f01602080910402602001604051908101604052809291908181526020018280546118f090615259565b801561193d5780601f106119125761010080835404028352916020019161193d565b820191906000526020600020905b81548152906001019060200180831161192057829003601f168201915b5050505050905080516000036119955760405162461bcd60e51b815260206004820152601d60248201527f4c7a4170703a206e6f20747275737465642070617468207265636f72640000006044820152606401610bad565b61112a6000601483516119a89190615323565b839190613b0b565b6119b8612577565b8181306040516020016119cd9392919061545e565b60408051601f1981840301815291815261ffff85166000908152606660205220906119f890826154da565b507f8c0400cfe2d1199b1a725c78960bcc2a344d869b80590d0f2bd005db15a572ce838383604051611a2c939291906152ef565b60405180910390a1505050565b60ca546040516310e1b98f60e21b815260009182918291600080516020615e8983398151915291634386e63c91611a93916001600160a01b0390911690600080516020615ee9833981519152906001908a90600401615593565b6040805180830381865afa158015611aaf573d6000803e3d6000fd5b505050506040513d601f19601f82011682018060405250810190611ad391906155be565b91509150611ae081611131565b611aea9083615336565b949350505050565b60ce546001600160a01b0316331480611b1a575060cd5461010090046001600160a01b031633145b611b655760405162461bcd60e51b815260206004820152601c60248201527b53674272696467653a3a526f757465724f724272696467654f6e6c7960201b6044820152606401610bad565b60cb546000906001600160a01b03163314611bb757611b878660006014613b0b565b604051602001611b9791906155e2565b604051602081830303815290604052611baf906155fe565b60601c611bc4565b60cb546001600160a01b03165b9050836001600160a01b03167f92073a89a07a000083eb8b2575fc15e7bb936efe55d00727d6942a796d7211a78483604051611c01929190615635565b60405180910390a250505050505050565b610d8681613c18565b611c23612577565b606980546001600160a01b0319166001600160a01b0383161790556040517f5db758e995a17ec1ad84bdef7e8c3293a0bd6179bcce400dff5d4c3d87db726b90611059908390614c9b565b60006111b982738f3cf7ad23cd3cadbd9735aff958023239c6a0636001600160a01b031663313ce5676040518163ffffffff1660e01b8152600401602060405180830381865afa158015611183573d6000803e3d6000fd5b60ca546040516370a0823160e01b81526000916001600160a01b0316906370a0823190611735903090600401614c9b565b600080600073d17cb0f162f133e339c0bbfc18c36c357e681d6b6001600160a01b0316630902f1ac6040518163ffffffff1660e01b8152600401606060405180830381865afa158015611d4e573d6000803e3d6000fd5b505050506040513d601f19601f82011682018060405250810190611d72919061564c565b5060ca549193509150600090611da2908390600080516020615ee9833981519152906001600160a01b0316613cfd565b60cb549091508190611dbf90600160c01b900460ff16600a61575e565b611dc9908561576d565b611dd39190615784565b935050505090565b611de3612577565b6065546040516332fb62e760e21b81526001600160a01b039091169063cbed8b9c90611e1b90889088908890889088906004016157a6565b600060405180830381600087803b158015611e3557600080fd5b505af1158015610fe2573d6000803e3d6000fd5b611e5281613ddf565b505050565b61ffff86166000908152609760205260408082209051611e7a9088908890615293565b90815260408051602092819003830190206001600160401b03871660009081529252902054905080611efa5760405162461bcd60e51b815260206004820152602360248201527f4e6f6e626c6f636b696e674c7a4170703a206e6f2073746f726564206d65737360448201526261676560e81b6064820152608401610bad565b808383604051611f0b929190615293565b604051809103902014611f6a5760405162461bcd60e51b815260206004820152602160248201527f4e6f6e626c6f636b696e674c7a4170703a20696e76616c6964207061796c6f616044820152601960fa1b6064820152608401610bad565b61ffff87166000908152609760205260408082209051611f8d9089908990615293565b90815260408051602092819003830181206001600160401b038916600090815290845282902093909355601f88018290048202830182019052868252612025918991899089908190840183828082843760009201919091525050604080516020601f8a018190048102820181019092528881528a9350915088908890819084018382808284376000920191909152506136af92505050565b7fc264d91f3adc5588250e1551f547752ca0cfa8f6b530d243b9f9f4cab10ea8e5878787878560405161205c9594939291906157d4565b60405180910390a150505050505050565b6040516246613160e11b8152600090600080516020615ea983398151915290628cc26290611735903090600401614c9b565b6120a7612577565b600081116120ef5760405162461bcd60e51b81526020600482015260156024820152744c7a4170703a20696e76616c6964206d696e47617360581b6044820152606401610bad565b61ffff83811660008181526067602090815260408083209487168084529482529182902085905581519283528201929092529081018290527f9d5c7c0b934da8fefa9c7760c98383778a12dfbfc0c3b3106518f43fb9508ac090606001611a2c565b612159612577565b600090815260cf60205260409020805460ff19169055565b610d8681613f14565b612182612577565b61ffff831660009081526066602052604090206121a082848361580f565b507ffa41487ad5d6728f0b19276fa1eddc16558578f5109fc39d2dc33c3230470dab838383604051611a2c939291906152ef565b60006121e1610876611701565b6040516370a0823160e01b815261226990600080516020615ec9833981519152906370a0823190612216903090600401614c9b565b602060405180830381865afa158015612233573d6000803e3d6000fd5b505050506040513d601f19601f820116820180604052508101906122579190615240565b61225f61206d565b6107eb9190615336565b60ca546040516370a0823160e01b81526001600160a01b03909116906370a0823190612299903090600401614c9b565b602060405180830381865afa1580156122b6573d6000803e3d6000fd5b505050506040513d601f19601f820116820180604052508101906122da9190615240565b6122e49190615336565b6115049190615336565b6122f66125d6565b60cc55565b612303612577565b6001600160a01b0381166123685760405162461bcd60e51b815260206004820152602660248201527f4f776e61626c653a206e6577206f776e657220697320746865207a65726f206160448201526564647265737360d01b6064820152608401610bad565b610d86816137c5565b606554604051633d7b2f6f60e21b815261ffff808716600483015285166024820152306044820152606481018390526060916001600160a01b03169063f5ecbdbc90608401600060405180830381865afa1580156123d3573d6000803e3d6000fd5b505050506040513d6000823e601f3d908101601f191682016040526123fb91908101906158c8565b95945050505050565b6040517b0ca2ba3432b932bab69029b4b3b732b21026b2b9b9b0b3b29d05199960211b6020820152603c8101829052600090605c01604051602081830303815290604052805190602001209050919050565b60ca546040516326283ecf60e21b81526000918291600080516020615e89833981519152916398a0fb3c916124b0916001600160a01b031690600080516020615ee983398151915290600190899060001990600401615935565b606060405180830381865afa1580156124cd573d6000803e3d6000fd5b505050506040513d601f19601f820116820180604052508101906124f1919061564c565b9250505061112a81611a39565b6000806125615a60966366ad5c8a60e01b898989896040516024016125269493929190615966565b60408051601f198184030181529190526020810180516001600160e01b03166001600160e01b03199093169290921790915230929190613ff0565b9150915081610c2c57610c2c868686868561407c565b336125806116f2565b6001600160a01b03161461164d5760405162461bcd60e51b815260206004820181905260248201527f4f776e61626c653a2063616c6c6572206973206e6f7420746865206f776e65726044820152606401610bad565b60c9546001600160a01b0316331461164d5760405162461bcd60e51b815260206004820152601c60248201527b10985cd954dd1c985d1959de4e8e93db9b1e54dd1c985d1959da5cdd60221b6044820152606401610bad565b611e528363a9059cbb60e01b848460405160240161264e929190615445565b60408051601f198184030181529190526020810180516001600160e01b03166001600160e01b031990931692909217909152614119565b6001600160a01b03163b151590565b600054610100900460ff166126bb5760405162461bcd60e51b8152600401610bad906159a4565b6126c4896141ee565b60c980546001600160a01b03808b166001600160a01b03199283161790925560ca80548a8416908316811790915560cb8054938a1661ffff8a16600160a01b029093166001600160b01b0319909416939093179190911790915560cc8290556040805163313ce56760e01b8152905163313ce567916004808201926020929091908290030181865afa15801561275e573d6000803e3d6000fd5b505050506040513d601f19601f8201168201806040525081019061278291906152a3565b60cb8054600060d05562ffffff60b01b1916600160c01b60ff939093169290920261ffff60b01b191691909117600160b01b61ffff87160217905560cd8054610100600160a81b0319166101006001600160a01b03868116919091029190911790915560ce80546001600160a01b03191684831617905560ca5460405163095ea7b360e01b815291169063095ea7b39061282490869060001990600401615445565b6020604051808303816000875af1158015612843573d6000803e3d6000fd5b505050506040513d601f19601f8201168201806040525081019061286791906159ef565b50505050505050505050565b8015806128ed5750604051636eb1769f60e11b81523060048201526001600160a01b03838116602483015284169063dd62ed3e90604401602060405180830381865afa1580156128c7573d6000803e3d6000fd5b505050506040513d601f19601f820116820180604052508101906128eb9190615240565b155b6129585760405162461bcd60e51b815260206004820152603660248201527f5361666545524332303a20617070726f76652066726f6d206e6f6e2d7a65726f60448201527520746f206e6f6e2d7a65726f20616c6c6f77616e636560501b6064820152608401610bad565b611e528363095ea7b360e01b848460405160240161264e929190615445565b600080516020615ea98339815191526001600160a01b0316633d18b9126040518163ffffffff1660e01b8152600401600060405180830381600087803b1580156129c057600080fd5b505af11580156129d4573d6000803e3d6000fd5b50506040516370a0823160e01b8152612a539250600080516020615ec983398151915291506370a0823190612a0d903090600401614c9b565b602060405180830381865afa158015612a2a573d6000803e3d6000fd5b505050506040513d601f19601f82011682018060405250810190612a4e9190615240565b613516565b60ca546040516370a0823160e01b81526000916001600160a01b0316906370a0823190612a84903090600401614c9b565b602060405180830381865afa158015612aa1573d6000803e3d6000fd5b505050506040513d601f19601f82011682018060405250810190612ac59190615240565b905081811115612c7a576000612adb8383615323565b90506000612aea600283615784565b90506000612b7d8260cb60189054906101000a900460ff16738f3cf7ad23cd3cadbd9735aff958023239c6a0636001600160a01b031663313ce5676040518163ffffffff1660e01b8152600401602060405180830381865afa158015612b54573d6000803e3d6000fd5b505050506040513d601f19601f82011682018060405250810190612b7891906152a3565b613094565b6040805160808101825260ca546001600160601b0319606091821b1660a0830152601960ea1b60b4830152738f3cf7ad23cd3cadbd9735aff958023239c6a06360601b60b7830152825160ab81840301815260cb830184528252306020830152918101859052919250600091908101612bf584614226565b905260405163b858183f60e01b81529091507368b3465833fb72a70ecdf485e0e4c7bd8665fc459063b858183f90612c31908490600401615a0c565b6020604051808303816000875af1158015612c50573d6000803e3d6000fd5b505050506040513d601f19601f82011682018060405250810190612c749190615240565b50505050505b6040516370a0823160e01b8152600090738f3cf7ad23cd3cadbd9735aff958023239c6a063906370a0823190612cb4903090600401614c9b565b602060405180830381865afa158015612cd1573d6000803e3d6000fd5b505050506040513d601f19601f82011682018060405250810190612cf59190615240565b90508015612d7b5760405163a39fc2c560e01b815273195f7b233947d51f4c3b756ad41a5ddb34cebce09063a39fc2c590612d369084903090600401615635565b6020604051808303816000875af1158015612d55573d6000803e3d6000fd5b505050506040513d601f19601f82011682018060405250810190612d799190615240565b505b6040516370a0823160e01b8152600090600080516020615ee9833981519152906370a0823190612daf903090600401614c9b565b602060405180830381865afa158015612dcc573d6000803e3d6000fd5b505050506040513d601f19601f82011682018060405250810190612df09190615240565b60ca546040516370a0823160e01b81529192506001600160a01b0316906370a0823190612e21903090600401614c9b565b602060405180830381865afa158015612e3e573d6000803e3d6000fd5b505050506040513d601f19601f82011682018060405250810190612e629190615240565b9250600081118015612e745750600083115b15612fdf5760ca546040516326283ecf60e21b81526000918291600080516020615e89833981519152916398a0fb3c91612ed1916001600160a01b031690600080516020615ee9833981519152906001908b908a90600401615935565b606060405180830381865afa158015612eee573d6000803e3d6000fd5b505050506040513d601f19601f82011682018060405250810190612f12919061564c565b5060ca54604051635a47ddc360e01b81526001600160a01b039091166004820152600080516020615ee98339815191526024820152600160448201819052606482018490526084820183905260a4820181905260c48201523060e4820152426101048201529193509150600080516020615e8983398151915290635a47ddc390610124016060604051808303816000875af1158015612fb5573d6000803e3d6000fd5b505050506040513d601f19601f82011682018060405250810190612fd9919061564c565b50505050505b6040516370a0823160e01b815260009073d17cb0f162f133e339c0bbfc18c36c357e681d6b906370a0823190613019903090600401614c9b565b602060405180830381865afa158015613036573d6000803e3d6000fd5b505050506040513d601f19601f8201168201806040525081019061305a9190615240565b90508015610c9a5760405163b6b55f2560e01b815260048101829052600080516020615ea98339815191529063b6b55f2590602401611e1b565b60008260ff168260ff1611156130ca576130ae8383615a5a565b6130b990600a61575e565b6130c3908561576d565b905061112a565b6130d48284615a5a565b6130df90600a61575e565b6130c39085615784565b60006130f3611509565b9050600061310082612404565b60c9549091506001600160a01b03166131198285614243565b6001600160a01b031614611e525760405162461bcd60e51b815260206004820152601e60248201527f4261736553747261746567793a3a496e76616c69645369676e617475726500006044820152606401610bad565b600061318161317c611701565b613817565b60ca546040516370a0823160e01b81526001600160a01b03909116906370a0823190611735903090600401614c9b565b6000806000806131bf6121d4565b90508581106131dd576131d28682615323565b9350600092506131ee565b600093506131eb8187615323565b92505b6132006131fb8587615336565b613ddf565b505060ca546040516370a0823160e01b81526000916001600160a01b0316906370a0823190613233903090600401614c9b565b602060405180830381865afa158015613250573d6000803e3d6000fd5b505050506040513d601f19601f820116820180604052508101906132749190615240565b9050848111613289578094506000925061329f565b61329c6132968683615323565b87614267565b92505b50509250925092565b60cd54604051630dc6346160e01b815260009161010090046001600160a01b031690630dc63461906132e290879087908790600401615a73565b602060405180830381865afa1580156132ff573d6000803e3d6000fd5b505050506040513d601f19601f820116820180604052508101906133239190615240565b60cd5460ca54604051633920455b60e11b81529293506001600160a01b036101009092048216926372408ab6928592613369929116908a908a908a908a90600401615aa1565b6000604051808303818588803b15801561338257600080fd5b505af1158015612867573d6000803e3d6000fd5b60cb5460408051606083811b6001600160601b03199081166020840152309182901b16603483015282516028818403018152604890920190925260655490926000926001600160a01b03909216916340a7bb109161ffff600160a01b9091041690868561340161427d565b6040518663ffffffff1660e01b8152600401613421959493929190615ade565b6040805180830381865afa15801561343d573d6000803e3d6000fd5b505050506040513d601f19601f8201168201806040525081019061346191906155be565b5090508047101561348d5760405162fae2d560e21b815260048101829052476024820152604401610bad565b60655460cb546001600160a01b039091169063c5803100908390600160a01b900461ffff16858730806134be61427d565b6040518863ffffffff1660e01b81526004016134df96959493929190615b32565b6000604051808303818588803b1580156134f857600080fd5b505af115801561350c573d6000803e3d6000fd5b5050505050505050565b806000036135215750565b60408051600280825260608201909252600091816020015b604080516060810182526000808252602080830182905292820152825260001990920191018161353957505060408051606081018252600080516020615ec98339815191528152600080516020615ee9833981519152602082015260009181018290528251929350918391906135b1576135b1615b99565b60209081029190910181019190915260408051606081018252600080516020615ee9833981519152815260ca546001600160a01b03169281019290925260019082018190528251839190811061360957613609615b99565b6020026020010181905250600061361f83611776565b9050600080516020615e8983398151915263f41766d88461363f84614226565b8530426040518663ffffffff1660e01b8152600401613662959493929190615baf565b6000604051808303816000875af1158015613681573d6000803e3d6000fd5b505050506040513d6000823e601f3d908101601f191682016040526136a99190810190615c3e565b50505050565b60cb5461ffff858116600160a01b90920416146137195760405162461bcd60e51b815260206004820152602260248201527f4261736553747261746567793a3a5661756c74436861696e49644d69736d61746044820152610c6d60f31b6064820152608401610bad565b600061372784826014613b0b565b60405160200161373791906155e2565b60405160208183030381529060405261374f906155fe565b60cb5460609190911c91506001600160a01b031681146137bc5760405162461bcd60e51b815260206004820152602260248201527f4261736553747261746567793a3a5661756c74416464726573734d69736d61746044820152610c6d60f31b6064820152608401610bad565b610c9a826142ad565b603380546001600160a01b038381166001600160a01b0319831681179093556040519116919082907f8be0079c531659141344cd1fd0a4f28419497f9722a3daafe3b4186f6b6457e090600090a35050565b600080516020615ea98339815191526001600160a01b0316633d18b9126040518163ffffffff1660e01b8152600401600060405180830381600087803b15801561386057600080fd5b505af1158015613874573d6000803e3d6000fd5b50506040516370a0823160e01b81526138ad9250600080516020615ec983398151915291506370a0823190612a0d903090600401614c9b565b806000036138b85750565b604051632e1a7d4d60e01b815260048101829052600080516020615ea983398151915290632e1a7d4d90602401600060405180830381600087803b1580156138ff57600080fd5b505af1158015613913573d6000803e3d6000fd5b505060ca546040516310e1b98f60e21b815260009350839250600080516020615e8983398151915291634386e63c9161396d916001600160a01b031690600080516020615ee9833981519152906001908990600401615593565b6040805180830381865afa158015613989573d6000803e3d6000fd5b505050506040513d601f19601f820116820180604052508101906139ad91906155be565b60ca549193509150600080516020615e8983398151915290630dede6c4906001600160a01b0316600080516020615ee98339815191526001876139ef88614226565b6139f888614226565b6040516001600160e01b031960e089901b1681526001600160a01b03968716600482015295909416602486015291151560448501526064840152608483015260a48201523060c48201524260e48201526101040160408051808303816000875af1158015613a6a573d6000803e3d6000fd5b505050506040513d601f19601f82011682018060405250810190613a8e91906155be565b50506040516370a0823160e01b8152611e5290600080516020615ee9833981519152906370a0823190613ac5903090600401614c9b565b602060405180830381865afa158015613ae2573d6000803e3d6000fd5b505050506040513d601f19601f82011682018060405250810190613b069190615240565b613f14565b606081613b1981601f615336565b1015613b585760405162461bcd60e51b815260206004820152600e60248201526d736c6963655f6f766572666c6f7760901b6044820152606401610bad565b613b628284615336565b84511015613ba65760405162461bcd60e51b8152602060048201526011602482015270736c6963655f6f75744f66426f756e647360781b6044820152606401610bad565b606082158015613bc55760405191506000825260208201604052613c0f565b6040519150601f8416801560200281840101858101878315602002848b0101015b81831015613bfe578051835260209283019201613be6565b5050858452601f01601f1916604052505b50949350505050565b80600003613c235750565b6000613c306107eb61206d565b9050818110613cd357600080516020615ea98339815191526001600160a01b0316633d18b9126040518163ffffffff1660e01b8152600401600060405180830381600087803b158015613c8257600080fd5b505af1158015613c96573d6000803e3d6000fd5b50506040516370a0823160e01b8152613ccf9250600080516020615ec983398151915291506370a0823190612a0d903090600401614c9b565b5050565b6000613cf2613ce5610b468486615323565b613ced611701565b614267565b9050611e5281613817565b600080836001600160a01b031663313ce5676040518163ffffffff1660e01b8152600401602060405180830381865afa158015613d3e573d6000803e3d6000fd5b505050506040513d601f19601f82011682018060405250810190613d6291906152a3565b90506000836001600160a01b031663313ce5676040518163ffffffff1660e01b8152600401602060405180830381865afa158015613da4573d6000803e3d6000fd5b505050506040513d601f19601f82011682018060405250810190613dc891906152a3565b9050613dd5868383613094565b9695505050505050565b60ca546040516370a0823160e01b8152600091829182916001600160a01b0316906370a0823190613e14903090600401614c9b565b602060405180830381865afa158015613e31573d6000803e3d6000fd5b505050506040513d601f19601f82011682018060405250810190613e559190615240565b9050838110613e6957509192600092509050565b613e7b613e768286615323565b613c18565b60ca546040516370a0823160e01b81526001600160a01b03909116906370a0823190613eab903090600401614c9b565b602060405180830381865afa158015613ec8573d6000803e3d6000fd5b505050506040513d601f19601f82011682018060405250810190613eec9190615240565b905080841115613f0a57915081613f038185615323565b9150613f0e565b8392505b50915091565b80600003613f1f5750565b6000613f2a82611131565b9050600080516020615e898339815191526313dcfc5983613f4a84614226565b60ca5460405160e085901b6001600160e01b031916815260048101939093526024830191909152600080516020615ee983398151915260448301526001600160a01b03166064820152600160848201523060a48201524260c482015260e4016000604051808303816000875af1158015613fc8573d6000803e3d6000fd5b505050506040513d6000823e601f3d908101601f19168201604052611e529190810190615c3e565b6000606060008060008661ffff166001600160401b0381111561401557614015614ed1565b6040519080825280601f01601f19166020018201604052801561403f576020820181803683370190505b50905060008087516020890160008d8df191503d925086831115614061578692505b828152826000602083013e9093509150505b94509492505050565b8180519060200120609760008761ffff1661ffff168152602001908152602001600020856040516140ad91906155e2565b9081526040805191829003602090810183206001600160401b0388166000908152915220919091557fe183f33de2837795525b4792ca4cd60535bd77c53b7e7030060bfcf5734d6b0c9061410a9087908790879087908790615cd7565b60405180910390a15050505050565b600061416e826040518060400160405280602081526020017f5361666545524332303a206c6f772d6c6576656c2063616c6c206661696c6564815250856001600160a01b03166143ce9092919063ffffffff16565b905080516000148061418f57508080602001905181019061418f91906159ef565b611e525760405162461bcd60e51b815260206004820152602a60248201527f5361666545524332303a204552433230206f7065726174696f6e20646964206e6044820152691bdd081cdd58d8d9595960b21b6064820152608401610bad565b600054610100900460ff166142155760405162461bcd60e51b8152600401610bad906159a4565b61421d6143dd565b610d868161440d565b600061271060cc5483614239919061576d565b6111b99190615784565b60008060006142528585614456565b9150915061425f8161449b565b509392505050565b6000818310614276578161112a565b5090919050565b60408051600160f01b6020820152620f424060228083019190915282518083039091018152604290910190915290565b6000818060200190518101906142c39190615d29565b905060038160048111156142d9576142d9615362565b03614324576000828060200190518101906142f49190615d4a565b9150506143048160000151612977565b8051604051908152600080516020615f0983398151915290602001611a2c565b600081600481111561433857614338615362565b0361435f576000828060200190518101906143539190615d8d565b915050611e52816145e0565b600481600481111561437357614373615362565b03613ccf5760008280602001905181019061438e9190615df8565b91505061439e816000015161470a565b80516040517f7c9a2d2ec51230d7dbed27f113a325b7e20aef7b049e68b2339257b5edff5bea91611a2c91614c9b565b6060611aea8484600085614749565b600054610100900460ff166144045760405162461bcd60e51b8152600401610bad906159a4565b61164d336137c5565b600054610100900460ff166144345760405162461bcd60e51b8152600401610bad906159a4565b606580546001600160a01b0319166001600160a01b0392909216919091179055565b600080825160410361448c5760208301516040840151606085015160001a61448087828585614824565b94509450505050614494565b506000905060025b9250929050565b60008160048111156144af576144af615362565b036144b75750565b60018160048111156144cb576144cb615362565b036145135760405162461bcd60e51b815260206004820152601860248201527745434453413a20696e76616c6964207369676e617475726560401b6044820152606401610bad565b600281600481111561452757614527615362565b036145745760405162461bcd60e51b815260206004820152601f60248201527f45434453413a20696e76616c6964207369676e6174757265206c656e677468006044820152606401610bad565b600381600481111561458857614588615362565b03610d865760405162461bcd60e51b815260206004820152602260248201527f45434453413a20696e76616c6964207369676e6174757265202773272076616c604482015261756560f01b6064820152608401610bad565b602080820151600090815260cf909152604090205460ff16156146455760405162461bcd60e51b815260206004820152601e60248201527f4261736553747261746567793a3a416c726561647957697468647261776e00006044820152606401610bad565b6000806146558360000151613ddf565b91509150600060016040518060800160405280306001600160a01b03168152602001858152602001848152602001866020015181525060405160200161469c929190615e46565b60408051601f19818403018152919052905082156146dd5760cb546146d890849061ffff600160a01b820416906001600160a01b0316846132a8565b6146e6565b6146e681613396565b505050602090810151600090815260cf90915260409020805460ff19166001179055565b614713816148db565b60ca546040516370a0823160e01b8152610d869183916001600160a01b03909116906370a082319061184d903090600401614c9b565b6060824710156147aa5760405162461bcd60e51b815260206004820152602660248201527f416464726573733a20696e73756666696369656e742062616c616e636520666f6044820152651c8818d85b1b60d21b6064820152608401610bad565b600080866001600160a01b031685876040516147c691906155e2565b60006040518083038185875af1925050503d8060008114614803576040519150601f19603f3d011682016040523d82523d6000602084013e614808565b606091505b509150915061481987838387614afd565b979650505050505050565b6000806fa2a8918ca85bafe22016d0b997e4df60600160ff1b038311156148515750600090506003614073565b6040805160008082526020820180845289905260ff881692820192909252606081018690526080810185905260019060a0016020604051602081039080840390855afa1580156148a5573d6000803e3d6000fd5b5050604051601f1901519150506001600160a01b0381166148ce57600060019250925050614073565b9660009650945050505050565b600080516020615ea9833981519152632e1a7d4d6148f7611701565b6040518263ffffffff1660e01b815260040161491591815260200190565b600060405180830381600087803b15801561492f57600080fd5b505af1158015614943573d6000803e3d6000fd5b50506040516370a0823160e01b81526149e1925083915073d17cb0f162f133e339c0bbfc18c36c357e681d6b906370a0823190614984903090600401614c9b565b602060405180830381865afa1580156149a1573d6000803e3d6000fd5b505050506040513d601f19601f820116820180604052508101906149c59190615240565b73d17cb0f162f133e339c0bbfc18c36c357e681d6b919061262f565b6040516370a0823160e01b8152614a6f908290600080516020615ee9833981519152906370a0823190614a18903090600401614c9b565b602060405180830381865afa158015614a35573d6000803e3d6000fd5b505050506040513d601f19601f82011682018060405250810190614a599190615240565b600080516020615ee9833981519152919061262f565b6040516370a0823160e01b8152610d86908290600080516020615ec9833981519152906370a0823190614aa6903090600401614c9b565b602060405180830381865afa158015614ac3573d6000803e3d6000fd5b505050506040513d601f19601f82011682018060405250810190614ae79190615240565b600080516020615ec9833981519152919061262f565b60608315614b6a578251600003614b6357614b1785612685565b614b635760405162461bcd60e51b815260206004820152601d60248201527f416464726573733a2063616c6c20746f206e6f6e2d636f6e74726163740000006044820152606401610bad565b5081611aea565b611aea8383815115614b7f5781518083602001fd5b8060405162461bcd60e51b8152600401610bad9190614cff565b803561ffff81168114614bab57600080fd5b919050565b60008083601f840112614bc257600080fd5b5081356001600160401b03811115614bd957600080fd5b60208301915083602082850101111561449457600080fd5b80356001600160401b0381168114614bab57600080fd5b60008060008060008060808789031215614c2157600080fd5b614c2a87614b99565b955060208701356001600160401b0380821115614c4657600080fd5b614c528a838b01614bb0565b9097509550859150614c6660408a01614bf1565b94506060890135915080821115614c7c57600080fd5b50614c8989828a01614bb0565b979a9699509497509295939492505050565b6001600160a01b0391909116815260200190565b60005b83811015614cca578181015183820152602001614cb2565b50506000910152565b60008151808452614ceb816020860160208601614caf565b601f01601f19169290920160200192915050565b60208152600061112a6020830184614cd3565b600060208284031215614d2457600080fd5b61112a82614b99565b60008060408385031215614d4057600080fd5b614d4983614b99565b946020939093013593505050565b6001600160a01b0381168114610d8657600080fd5b600060208284031215614d7e57600080fd5b813561112a81614d57565b600080600080600080600080610100898b031215614da657600080fd5b8835614db181614d57565b97506020890135614dc181614d57565b96506040890135614dd181614d57565b95506060890135614de181614d57565b9450614def60808a01614b99565b9350614dfd60a08a01614b99565b925060c0890135614e0d81614d57565b915060e0890135614e1d81614d57565b809150509295985092959890939650565b6001600160a01b03169052565b600060208284031215614e4d57600080fd5b5035919050565b600080600060408486031215614e6957600080fd5b614e7284614b99565b925060208401356001600160401b03811115614e8d57600080fd5b614e9986828701614bb0565b9497909650939450505050565b8015158114610d8657600080fd5b600060208284031215614ec657600080fd5b813561112a81614ea6565b634e487b7160e01b600052604160045260246000fd5b604051602081016001600160401b0381118282101715614f0957614f09614ed1565b60405290565b604051601f8201601f191681016001600160401b0381118282101715614f3757614f37614ed1565b604052919050565b60006001600160401b03821115614f5857614f58614ed1565b50601f01601f191660200190565b600082601f830112614f7757600080fd5b8135614f8a614f8582614f3f565b614f0f565b818152846020838601011115614f9f57600080fd5b816020850160208301376000918101602001919091529392505050565b600080600080600060a08688031215614fd457600080fd5b8535945060208601359350604086013592506060860135915060808601356001600160401b0381111561500657600080fd5b61501288828901614f66565b9150509295509295909350565b60008060006060848603121561503457600080fd5b61503d84614b99565b925060208401356001600160401b0381111561505857600080fd5b61506486828701614f66565b92505061507360408501614bf1565b90509250925092565b6000806040838503121561508f57600080fd5b61509883614b99565b91506150a660208401614b99565b90509250929050565b60008060008060008060c087890312156150c857600080fd5b6150d187614b99565b955060208701356001600160401b03808211156150ed57600080fd5b6150f98a838b01614f66565b9650604089013595506060890135915061511282614d57565b9093506080880135925060a0880135908082111561512f57600080fd5b5061513c89828a01614f66565b9150509295509295509295565b60008060008060006080868803121561516157600080fd5b61516a86614b99565b945061517860208701614b99565b93506040860135925060608601356001600160401b0381111561519a57600080fd5b6151a688828901614bb0565b969995985093965092949392505050565b6000806000606084860312156151cc57600080fd5b6151d584614b99565b92506151e360208501614b99565b9150604084013590509250925092565b6000806000806080858703121561520957600080fd5b61521285614b99565b935061522060208601614b99565b9250604085013561523081614d57565b9396929550929360600135925050565b60006020828403121561525257600080fd5b5051919050565b600181811c9082168061526d57607f821691505b60208210810361528d57634e487b7160e01b600052602260045260246000fd5b50919050565b8183823760009101908152919050565b6000602082840312156152b557600080fd5b815160ff8116811461112a57600080fd5b81835281816020850137506000828201602090810191909152601f909101601f19169091010190565b61ffff841681526040602082015260006123fb6040830184866152c6565b634e487b7160e01b600052601160045260246000fd5b818103818111156111b9576111b961530d565b808201808211156111b9576111b961530d565b60006001820161535b5761535b61530d565b5060010190565b634e487b7160e01b600052602160045260246000fd5b6005811061539657634e487b7160e01b600052602160045260246000fd5b9052565b6153a48184615378565b604060208201526153b9604082018351614e2e565b6020820151606082015260408201516080820152606082015160a0820152608082015160c082015260a082015160e0820152600060c0830151610100818185015260e085015191506101208281860152818601519250610140915082828601528086015192505061016082818601528186015192508061018086015250506123fb6101a0840182614cd3565b6001600160a01b03929092168252602082015260400190565b8284823760609190911b6001600160601b0319169101908152601401919050565b601f821115611e5257600081815260208120601f850160051c810160208610156154a65750805b601f850160051c820191505b81811015610c2c578281556001016154b2565b600019600383901b1c191660019190911b1790565b81516001600160401b038111156154f3576154f3614ed1565b615507816155018454615259565b8461547f565b602080601f83116001811461553657600084156155245750858301515b61552e85826154c5565b865550610c2c565b600085815260208120601f198616915b8281101561556557888601518255948401946001909101908401615546565b50858210156155835787850151600019600388901b60f8161c191681555b5050505050600190811b01905550565b6001600160a01b03948516815292909316602083015215156040820152606081019190915260800190565b600080604083850312156155d157600080fd5b505080516020909101519092909150565b600082516155f4818460208701614caf565b9190910192915050565b805160208201516001600160601b0319808216929190601483101561562d5780818460140360031b1b83161693505b505050919050565b9182526001600160a01b0316602082015260400190565b60008060006060848603121561566157600080fd5b8351925060208401519150604084015190509250925092565b600181815b808511156156b557816000190482111561569b5761569b61530d565b808516156156a857918102915b93841c939080029061567f565b509250929050565b6000826156cc575060016111b9565b816156d9575060006111b9565b81600181146156ef57600281146156f957615715565b60019150506111b9565b60ff84111561570a5761570a61530d565b50506001821b6111b9565b5060208310610133831016604e8410600b8410161715615738575081810a6111b9565b615742838361567a565b80600019048211156157565761575661530d565b029392505050565b600061112a60ff8416836156bd565b80820281158282048414176111b9576111b961530d565b6000826157a157634e487b7160e01b600052601260045260246000fd5b500490565b600061ffff8088168352808716602084015250846040830152608060608301526148196080830184866152c6565b61ffff861681526080602082015260006157f26080830186886152c6565b6001600160401b0394909416604083015250606001529392505050565b6001600160401b0383111561582657615826614ed1565b61583a836158348354615259565b8361547f565b6000601f84116001811461586857600085156158565750838201355b61586086826154c5565b845550610c9a565b600083815260209020601f19861690835b828110156158995786850135825560209485019460019092019101615879565b50868210156158b65760001960f88860031b161c19848701351681555b505060018560011b0183555050505050565b6000602082840312156158da57600080fd5b81516001600160401b038111156158f057600080fd5b8201601f8101841361590157600080fd5b805161590f614f8582614f3f565b81815285602083850101111561592457600080fd5b6123fb826020830160208601614caf565b6001600160a01b03958616815293909416602084015290151560408301526060820152608081019190915260a00190565b61ffff851681526080602082015260006159836080830186614cd3565b6001600160401b038516604084015282810360608401526148198185614cd3565b6020808252602b908201527f496e697469616c697a61626c653a20636f6e7472616374206973206e6f74206960408201526a6e697469616c697a696e6760a81b606082015260800190565b600060208284031215615a0157600080fd5b815161112a81614ea6565b602081526000825160806020840152615a2860a0840182614cd3565b905060018060a01b03602085015116604084015260408401516060840152606084015160808401528091505092915050565b60ff82811682821603908111156111b9576111b961530d565b61ffff841681526001600160a01b03831660208201526060604082018190526000906123fb90830184614cd3565b6001600160a01b0386811682526020820186905261ffff851660408301528316606082015260a06080820181905260009061481990830184614cd3565b61ffff861681526001600160a01b038516602082015260a060408201819052600090615b0c90830186614cd3565b84151560608401528281036080840152615b268185614cd3565b98975050505050505050565b61ffff8716815260c060208201526000615b4f60c0830188614cd3565b8281036040840152615b618188614cd3565b6001600160a01b0387811660608601528616608085015283810360a08501529050615b8c8185614cd3565b9998505050505050505050565b634e487b7160e01b600052603260045260246000fd5b600060a0820187835260208781850152604060a08186015282885180855260c087019150838a01945060005b81811015615c1857855180516001600160a01b03908116855286820151168685015284015115158484015294840194606090920191600101615bdb565b505080945050505050615c2e6060830185614e2e565b8260808301529695505050505050565b60006020808385031215615c5157600080fd5b82516001600160401b0380821115615c6857600080fd5b818501915085601f830112615c7c57600080fd5b815181811115615c8e57615c8e614ed1565b8060051b9150615c9f848301614f0f565b8181529183018401918481019088841115615cb957600080fd5b938501935b83851015615b2657845182529385019390850190615cbe565b61ffff8616815260a060208201526000615cf460a0830187614cd3565b6001600160401b03861660408401528281036060840152615d158186614cd3565b90508281036080840152615b268185614cd3565b600060208284031215615d3b57600080fd5b81516005811061112a57600080fd5b6000808284036040811215615d5e57600080fd5b835192506020601f1982011215615d7457600080fd5b50615d7d614ee7565b6020939093015183525092909150565b6000808284036060811215615da157600080fd5b835192506040601f1982011215615db757600080fd5b50604080519081016001600160401b0381118282101715615dda57615dda614ed1565b60409081526020858101518352940151938101939093525092909150565b6000808284036040811215615e0c57600080fd5b835192506020601f1982011215615e2257600080fd5b50615e2b614ee7565b6020840151615e3981614d57565b8152919491935090915050565b60a08101615e548285615378565b60018060a01b038351166020830152602083015160408301526040830151606083015260608301516080830152939250505056fe000000000000000000000000cc25c0fd84737f44a7d38649b69491bbf0c7f08300000000000000000000000097bd59a8202f8263c2ec39cf6cf6b438d0b458760000000000000000000000007238390d5f6f64e67c3211c343a410e2a3dec14200000000000000000000000040379a439d4f6795b6fc9aa5687db461677a2dbab0c58532a125fc3c0adccaef396bf65344a4d5781cec2e4c593e6b611d75f150a26469706673582212201a1c232207390b96ec58bb2f5e8aa6b329cf5d0f5ee6e91be6dc93ba372b27c264736f6c63430008130033",
  "linkReferences": {},
  "deployedLinkReferences": {}
}