{
  "_format": "hh-sol-artifact-1",
  "contractName": "MockPearlStrategy",
  "sourceName": "contracts/mock/MockPearlStrategy.sol",
  "abi": [
    {
      "inputs": [
        {
          "internalType": "uint256",
          "name": "messageType",
          "type": "uint256"
        }
      ],
      "name": "IncorrectMessageType",
      "type": "error"
    },
    {
      "inputs": [
        {
          "internalType": "uint256",
          "name": "amount",
          "type": "uint256"
        },
        {
          "internalType": "uint256",
          "name": "balance",
          "type": "uint256"
        }
      ],
      "name": "InsufficientFunds",
      "type": "error"
    },
    {
      "inputs": [],
      "name": "SwapHelperOnly",
      "type": "error"
    },
    {
      "anonymous": false,
      "inputs": [
        {
          "indexed": false,
          "internalType": "uint256",
          "name": "debtOutstanding",
          "type": "uint256"
        }
      ],
      "name": "AdjustedPosition",
      "type": "event"
    },
    {
      "anonymous": false,
      "inputs": [
        {
          "indexed": true,
          "internalType": "address",
          "name": "src",
          "type": "address"
        },
        {
          "indexed": true,
          "internalType": "address",
          "name": "dst",
          "type": "address"
        },
        {
          "indexed": true,
          "internalType": "uint256",
          "name": "amount",
          "type": "uint256"
        },
        {
          "indexed": false,
          "internalType": "bytes",
          "name": "lowLevelErrorData",
          "type": "bytes"
        }
      ],
      "name": "EmergencyQuoteOnAlternativeDEX",
      "type": "event"
    },
    {
      "anonymous": false,
      "inputs": [
        {
          "indexed": true,
          "internalType": "address",
          "name": "src",
          "type": "address"
        },
        {
          "indexed": true,
          "internalType": "address",
          "name": "dst",
          "type": "address"
        },
        {
          "indexed": true,
          "internalType": "uint256",
          "name": "amount",
          "type": "uint256"
        },
        {
          "indexed": false,
          "internalType": "bytes",
          "name": "lowLevelErrorData",
          "type": "bytes"
        }
      ],
      "name": "EmergencySwapOnAlternativeDEX",
      "type": "event"
    },
    {
      "anonymous": false,
      "inputs": [
        {
          "indexed": false,
          "internalType": "uint8",
          "name": "version",
          "type": "uint8"
        }
      ],
      "name": "Initialized",
      "type": "event"
    },
    {
      "anonymous": false,
      "inputs": [
        {
          "indexed": false,
          "internalType": "uint16",
          "name": "_srcChainId",
          "type": "uint16"
        },
        {
          "indexed": false,
          "internalType": "bytes",
          "name": "_srcAddress",
          "type": "bytes"
        },
        {
          "indexed": false,
          "internalType": "uint64",
          "name": "_nonce",
          "type": "uint64"
        },
        {
          "indexed": false,
          "internalType": "bytes",
          "name": "_payload",
          "type": "bytes"
        },
        {
          "indexed": false,
          "internalType": "bytes",
          "name": "_reason",
          "type": "bytes"
        }
      ],
      "name": "MessageFailed",
      "type": "event"
    },
    {
      "anonymous": false,
      "inputs": [
        {
          "indexed": true,
          "internalType": "address",
          "name": "src",
          "type": "address"
        },
        {
          "indexed": true,
          "internalType": "address",
          "name": "dst",
          "type": "address"
        },
        {
          "indexed": true,
          "internalType": "uint256",
          "name": "amountOut",
          "type": "uint256"
        },
        {
          "indexed": false,
          "internalType": "uint256",
          "name": "amountIn",
          "type": "uint256"
        }
      ],
      "name": "Notified",
      "type": "event"
    },
    {
      "anonymous": false,
      "inputs": [
        {
          "indexed": true,
          "internalType": "address",
          "name": "previousOwner",
          "type": "address"
        },
        {
          "indexed": true,
          "internalType": "address",
          "name": "newOwner",
          "type": "address"
        }
      ],
      "name": "OwnershipTransferred",
      "type": "event"
    },
    {
      "anonymous": false,
      "inputs": [
        {
          "indexed": true,
          "internalType": "address",
          "name": "src",
          "type": "address"
        },
        {
          "indexed": true,
          "internalType": "address",
          "name": "dst",
          "type": "address"
        },
        {
          "indexed": true,
          "internalType": "uint256",
          "name": "amount",
          "type": "uint256"
        }
      ],
      "name": "Quote",
      "type": "event"
    },
    {
      "anonymous": false,
      "inputs": [
        {
          "indexed": false,
          "internalType": "uint16",
          "name": "_srcChainId",
          "type": "uint16"
        },
        {
          "indexed": false,
          "internalType": "bytes",
          "name": "_srcAddress",
          "type": "bytes"
        },
        {
          "indexed": false,
          "internalType": "uint64",
          "name": "_nonce",
          "type": "uint64"
        },
        {
          "indexed": false,
          "internalType": "bytes32",
          "name": "_payloadHash",
          "type": "bytes32"
        }
      ],
      "name": "RetryMessageSuccess",
      "type": "event"
    },
    {
      "anonymous": false,
      "inputs": [
        {
          "indexed": false,
          "internalType": "uint16",
          "name": "_dstChainId",
          "type": "uint16"
        },
        {
          "indexed": false,
          "internalType": "uint16",
          "name": "_type",
          "type": "uint16"
        },
        {
          "indexed": false,
          "internalType": "uint256",
          "name": "_minDstGas",
          "type": "uint256"
        }
      ],
      "name": "SetMinDstGas",
      "type": "event"
    },
    {
      "anonymous": false,
      "inputs": [
        {
          "indexed": false,
          "internalType": "address",
          "name": "precrime",
          "type": "address"
        }
      ],
      "name": "SetPrecrime",
      "type": "event"
    },
    {
      "anonymous": false,
      "inputs": [
        {
          "indexed": false,
          "internalType": "uint16",
          "name": "_remoteChainId",
          "type": "uint16"
        },
        {
          "indexed": false,
          "internalType": "bytes",
          "name": "_path",
          "type": "bytes"
        }
      ],
      "name": "SetTrustedRemote",
      "type": "event"
    },
    {
      "anonymous": false,
      "inputs": [
        {
          "indexed": false,
          "internalType": "uint16",
          "name": "_remoteChainId",
          "type": "uint16"
        },
        {
          "indexed": false,
          "internalType": "bytes",
          "name": "_remoteAddress",
          "type": "bytes"
        }
      ],
      "name": "SetTrustedRemoteAddress",
      "type": "event"
    },
    {
      "anonymous": false,
      "inputs": [
        {
          "indexed": true,
          "internalType": "address",
          "name": "token",
          "type": "address"
        },
        {
          "indexed": false,
          "internalType": "uint256",
          "name": "amount",
          "type": "uint256"
        },
        {
          "indexed": false,
          "internalType": "address",
          "name": "sender",
          "type": "address"
        }
      ],
      "name": "SgReceived",
      "type": "event"
    },
    {
      "anonymous": false,
      "inputs": [
        {
          "indexed": false,
          "internalType": "address",
          "name": "newStrategy",
          "type": "address"
        }
      ],
      "name": "StrategyMigrated",
      "type": "event"
    },
    {
      "anonymous": false,
      "inputs": [
        {
          "indexed": false,
          "internalType": "uint256",
          "name": "profit",
          "type": "uint256"
        },
        {
          "indexed": false,
          "internalType": "uint256",
          "name": "loss",
          "type": "uint256"
        },
        {
          "indexed": false,
          "internalType": "uint256",
          "name": "debtPayment",
          "type": "uint256"
        },
        {
          "indexed": false,
          "internalType": "uint256",
          "name": "giveToStrategy",
          "type": "uint256"
        },
        {
          "indexed": false,
          "internalType": "uint256",
          "name": "requestFromStrategy",
          "type": "uint256"
        },
        {
          "indexed": false,
          "internalType": "uint256",
          "name": "creditAvailable",
          "type": "uint256"
        },
        {
          "indexed": false,
          "internalType": "uint256",
          "name": "totalAssets",
          "type": "uint256"
        }
      ],
      "name": "StrategyReported",
      "type": "event"
    },
    {
      "anonymous": false,
      "inputs": [
        {
          "indexed": true,
          "internalType": "address",
          "name": "src",
          "type": "address"
        },
        {
          "indexed": true,
          "internalType": "address",
          "name": "dst",
          "type": "address"
        },
        {
          "indexed": true,
          "internalType": "uint256",
          "name": "amount",
          "type": "uint256"
        }
      ],
      "name": "Swap",
      "type": "event"
    },
    {
      "inputs": [],
      "name": "DEFAULT_PAYLOAD_SIZE_LIMIT",
      "outputs": [
        {
          "internalType": "uint256",
          "name": "",
          "type": "uint256"
        }
      ],
      "stateMutability": "view",
      "type": "function"
    },
    {
      "inputs": [
        {
          "internalType": "uint256",
          "name": "_debtOutstanding",
          "type": "uint256"
        }
      ],
      "name": "adjustPosition",
      "outputs": [],
      "stateMutability": "nonpayable",
      "type": "function"
    },
    {
      "inputs": [],
      "name": "balanceOfWant",
      "outputs": [
        {
          "internalType": "uint256",
          "name": "",
          "type": "uint256"
        }
      ],
      "stateMutability": "view",
      "type": "function"
    },
    {
      "inputs": [
        {
          "internalType": "uint256",
          "name": "epoch",
          "type": "uint256"
        }
      ],
      "name": "callMe",
      "outputs": [],
      "stateMutability": "nonpayable",
      "type": "function"
    },
    {
      "inputs": [],
      "name": "clearWant",
      "outputs": [],
      "stateMutability": "nonpayable",
      "type": "function"
    },
    {
      "inputs": [],
      "name": "currentChainId",
      "outputs": [
        {
          "internalType": "uint16",
          "name": "",
          "type": "uint16"
        }
      ],
      "stateMutability": "view",
      "type": "function"
    },
    {
      "inputs": [],
      "name": "emergencyExit",
      "outputs": [
        {
          "internalType": "bool",
          "name": "",
          "type": "bool"
        }
      ],
      "stateMutability": "view",
      "type": "function"
    },
    {
      "inputs": [],
      "name": "estimatedTotalAssets",
      "outputs": [
        {
          "internalType": "uint256",
          "name": "",
          "type": "uint256"
        }
      ],
      "stateMutability": "view",
      "type": "function"
    },
    {
      "inputs": [
        {
          "internalType": "uint256",
          "name": "_stakedLpTokens",
          "type": "uint256"
        }
      ],
      "name": "exitPosition",
      "outputs": [],
      "stateMutability": "nonpayable",
      "type": "function"
    },
    {
      "inputs": [
        {
          "internalType": "uint16",
          "name": "",
          "type": "uint16"
        },
        {
          "internalType": "bytes",
          "name": "",
          "type": "bytes"
        },
        {
          "internalType": "uint64",
          "name": "",
          "type": "uint64"
        }
      ],
      "name": "failedMessages",
      "outputs": [
        {
          "internalType": "bytes32",
          "name": "",
          "type": "bytes32"
        }
      ],
      "stateMutability": "view",
      "type": "function"
    },
    {
      "inputs": [
        {
          "internalType": "uint16",
          "name": "_srcChainId",
          "type": "uint16"
        },
        {
          "internalType": "bytes",
          "name": "_srcAddress",
          "type": "bytes"
        }
      ],
      "name": "forceResumeReceive",
      "outputs": [],
      "stateMutability": "nonpayable",
      "type": "function"
    },
    {
      "inputs": [
        {
          "internalType": "uint16",
          "name": "_version",
          "type": "uint16"
        },
        {
          "internalType": "uint16",
          "name": "_chainId",
          "type": "uint16"
        },
        {
          "internalType": "address",
          "name": "",
          "type": "address"
        },
        {
          "internalType": "uint256",
          "name": "_configType",
          "type": "uint256"
        }
      ],
      "name": "getConfig",
      "outputs": [
        {
          "internalType": "bytes",
          "name": "",
          "type": "bytes"
        }
      ],
      "stateMutability": "view",
      "type": "function"
    },
    {
      "inputs": [
        {
          "internalType": "bytes32",
          "name": "_messageHash",
          "type": "bytes32"
        }
      ],
      "name": "getEthSignedMessageHash",
      "outputs": [
        {
          "internalType": "bytes32",
          "name": "",
          "type": "bytes32"
        }
      ],
      "stateMutability": "pure",
      "type": "function"
    },
    {
      "inputs": [
        {
          "internalType": "uint16",
          "name": "_remoteChainId",
          "type": "uint16"
        }
      ],
      "name": "getTrustedRemoteAddress",
      "outputs": [
        {
          "internalType": "bytes",
          "name": "",
          "type": "bytes"
        }
      ],
      "stateMutability": "view",
      "type": "function"
    },
    {
      "inputs": [
        {
          "internalType": "uint256",
          "name": "_totalDebt",
          "type": "uint256"
        },
        {
          "internalType": "uint256",
          "name": "_debtOutstanding",
          "type": "uint256"
        },
        {
          "internalType": "uint256",
          "name": "_creditAvailable",
          "type": "uint256"
        },
        {
          "internalType": "uint256",
          "name": "_debtRatio",
          "type": "uint256"
        },
        {
          "internalType": "bytes",
          "name": "_signature",
          "type": "bytes"
        }
      ],
      "name": "harvest",
      "outputs": [],
      "stateMutability": "nonpayable",
      "type": "function"
    },
    {
      "inputs": [
        {
          "internalType": "address",
          "name": "_lzEndpoint",
          "type": "address"
        },
        {
          "internalType": "address",
          "name": "_strategist",
          "type": "address"
        },
        {
          "internalType": "contract IERC20",
          "name": "_want",
          "type": "address"
        },
        {
          "internalType": "address",
          "name": "_vault",
          "type": "address"
        },
        {
          "internalType": "uint16",
          "name": "_vaultChainId",
          "type": "uint16"
        },
        {
          "internalType": "uint16",
          "name": "_currentChainId",
          "type": "uint16"
        },
        {
          "internalType": "address",
          "name": "_sgBridge",
          "type": "address"
        },
        {
          "internalType": "address",
          "name": "_router",
          "type": "address"
        }
      ],
      "name": "initialize",
      "outputs": [],
      "stateMutability": "nonpayable",
      "type": "function"
    },
    {
      "inputs": [
        {
          "internalType": "uint16",
          "name": "_srcChainId",
          "type": "uint16"
        },
        {
          "internalType": "bytes",
          "name": "_srcAddress",
          "type": "bytes"
        }
      ],
      "name": "isTrustedRemote",
      "outputs": [
        {
          "internalType": "bool",
          "name": "",
          "type": "bool"
        }
      ],
      "stateMutability": "view",
      "type": "function"
    },
    {
      "inputs": [],
      "name": "liquidateAllPositions",
      "outputs": [
        {
          "internalType": "uint256",
          "name": "",
          "type": "uint256"
        }
      ],
      "stateMutability": "nonpayable",
      "type": "function"
    },
    {
      "inputs": [
        {
          "internalType": "uint256",
          "name": "_amountNeeded",
          "type": "uint256"
        }
      ],
      "name": "liquidatePosition",
      "outputs": [],
      "stateMutability": "nonpayable",
      "type": "function"
    },
    {
      "inputs": [],
      "name": "lzEndpoint",
      "outputs": [
        {
          "internalType": "contract ILayerZeroEndpointUpgradeable",
          "name": "",
          "type": "address"
        }
      ],
      "stateMutability": "view",
      "type": "function"
    },
    {
      "inputs": [
        {
          "internalType": "uint16",
          "name": "_srcChainId",
          "type": "uint16"
        },
        {
          "internalType": "bytes",
          "name": "_srcAddress",
          "type": "bytes"
        },
        {
          "internalType": "uint64",
          "name": "_nonce",
          "type": "uint64"
        },
        {
          "internalType": "bytes",
          "name": "_payload",
          "type": "bytes"
        }
      ],
      "name": "lzReceive",
      "outputs": [],
      "stateMutability": "nonpayable",
      "type": "function"
    },
    {
      "inputs": [
        {
          "internalType": "uint16",
          "name": "",
          "type": "uint16"
        },
        {
          "internalType": "uint16",
          "name": "",
          "type": "uint16"
        }
      ],
      "name": "minDstGasLookup",
      "outputs": [
        {
          "internalType": "uint256",
          "name": "",
          "type": "uint256"
        }
      ],
      "stateMutability": "view",
      "type": "function"
    },
    {
      "inputs": [],
      "name": "name",
      "outputs": [
        {
          "internalType": "string",
          "name": "",
          "type": "string"
        }
      ],
      "stateMutability": "pure",
      "type": "function"
    },
    {
      "inputs": [
        {
          "internalType": "uint16",
          "name": "_srcChainId",
          "type": "uint16"
        },
        {
          "internalType": "bytes",
          "name": "_srcAddress",
          "type": "bytes"
        },
        {
          "internalType": "uint64",
          "name": "_nonce",
          "type": "uint64"
        },
        {
          "internalType": "bytes",
          "name": "_payload",
          "type": "bytes"
        }
      ],
      "name": "nonblockingLzReceive",
      "outputs": [],
      "stateMutability": "nonpayable",
      "type": "function"
    },
    {
      "inputs": [
        {
          "internalType": "address",
          "name": "src",
          "type": "address"
        },
        {
          "internalType": "address",
          "name": "dst",
          "type": "address"
        },
        {
          "internalType": "uint256",
          "name": "amountOut",
          "type": "uint256"
        },
        {
          "internalType": "uint256",
          "name": "amountIn",
          "type": "uint256"
        }
      ],
      "name": "notifyCallback",
      "outputs": [],
      "stateMutability": "nonpayable",
      "type": "function"
    },
    {
      "inputs": [],
      "name": "owner",
      "outputs": [
        {
          "internalType": "address",
          "name": "",
          "type": "address"
        }
      ],
      "stateMutability": "view",
      "type": "function"
    },
    {
      "inputs": [
        {
          "internalType": "uint16",
          "name": "",
          "type": "uint16"
        }
      ],
      "name": "payloadSizeLimitLookup",
      "outputs": [
        {
          "internalType": "uint256",
          "name": "",
          "type": "uint256"
        }
      ],
      "stateMutability": "view",
      "type": "function"
    },
    {
      "inputs": [],
      "name": "precrime",
      "outputs": [
        {
          "internalType": "address",
          "name": "",
          "type": "address"
        }
      ],
      "stateMutability": "view",
      "type": "function"
    },
    {
      "inputs": [],
      "name": "renounceOwnership",
      "outputs": [],
      "stateMutability": "nonpayable",
      "type": "function"
    },
    {
      "inputs": [
        {
          "internalType": "uint16",
          "name": "_srcChainId",
          "type": "uint16"
        },
        {
          "internalType": "bytes",
          "name": "_srcAddress",
          "type": "bytes"
        },
        {
          "internalType": "uint64",
          "name": "_nonce",
          "type": "uint64"
        },
        {
          "internalType": "bytes",
          "name": "_payload",
          "type": "bytes"
        }
      ],
      "name": "retryMessage",
      "outputs": [],
      "stateMutability": "payable",
      "type": "function"
    },
    {
      "inputs": [],
      "name": "revokeFunds",
      "outputs": [],
      "stateMutability": "nonpayable",
      "type": "function"
    },
    {
      "inputs": [
        {
          "internalType": "uint256",
          "name": "_pearlAmount",
          "type": "uint256"
        }
      ],
      "name": "sellPearl",
      "outputs": [],
      "stateMutability": "nonpayable",
      "type": "function"
    },
    {
      "inputs": [
        {
          "internalType": "uint256",
          "name": "_usdrAmount",
          "type": "uint256"
        }
      ],
      "name": "sellUsdr",
      "outputs": [],
      "stateMutability": "nonpayable",
      "type": "function"
    },
    {
      "inputs": [
        {
          "internalType": "uint16",
          "name": "_version",
          "type": "uint16"
        },
        {
          "internalType": "uint16",
          "name": "_chainId",
          "type": "uint16"
        },
        {
          "internalType": "uint256",
          "name": "_configType",
          "type": "uint256"
        },
        {
          "internalType": "bytes",
          "name": "_config",
          "type": "bytes"
        }
      ],
      "name": "setConfig",
      "outputs": [],
      "stateMutability": "nonpayable",
      "type": "function"
    },
    {
      "inputs": [
        {
          "internalType": "bool",
          "name": "_emergencyExit",
          "type": "bool"
        }
      ],
      "name": "setEmergencyExit",
      "outputs": [],
      "stateMutability": "nonpayable",
      "type": "function"
    },
    {
      "inputs": [
        {
          "internalType": "uint16",
          "name": "_dstChainId",
          "type": "uint16"
        },
        {
          "internalType": "uint16",
          "name": "_packetType",
          "type": "uint16"
        },
        {
          "internalType": "uint256",
          "name": "_minGas",
          "type": "uint256"
        }
      ],
      "name": "setMinDstGas",
      "outputs": [],
      "stateMutability": "nonpayable",
      "type": "function"
    },
    {
      "inputs": [
        {
          "internalType": "uint16",
          "name": "_dstChainId",
          "type": "uint16"
        },
        {
          "internalType": "uint256",
          "name": "_size",
          "type": "uint256"
        }
      ],
      "name": "setPayloadSizeLimit",
      "outputs": [],
      "stateMutability": "nonpayable",
      "type": "function"
    },
    {
      "inputs": [
        {
          "internalType": "address",
          "name": "_precrime",
          "type": "address"
        }
      ],
      "name": "setPrecrime",
      "outputs": [],
      "stateMutability": "nonpayable",
      "type": "function"
    },
    {
      "inputs": [
        {
          "internalType": "uint16",
          "name": "_version",
          "type": "uint16"
        }
      ],
      "name": "setReceiveVersion",
      "outputs": [],
      "stateMutability": "nonpayable",
      "type": "function"
    },
    {
      "inputs": [
        {
          "internalType": "uint16",
          "name": "_version",
          "type": "uint16"
        }
      ],
      "name": "setSendVersion",
      "outputs": [],
      "stateMutability": "nonpayable",
      "type": "function"
    },
    {
      "inputs": [
        {
          "internalType": "uint256",
          "name": "_slippage",
          "type": "uint256"
        }
      ],
      "name": "setSlippage",
      "outputs": [],
      "stateMutability": "nonpayable",
      "type": "function"
    },
    {
      "inputs": [
        {
          "internalType": "address",
          "name": "_strategist",
          "type": "address"
        }
      ],
      "name": "setStrategist",
      "outputs": [],
      "stateMutability": "nonpayable",
      "type": "function"
    },
    {
      "inputs": [
        {
          "components": [
            {
              "internalType": "contract ISwapHelper",
              "name": "swapHelper",
              "type": "address"
            },
            {
              "internalType": "uint256",
              "name": "quoteBuffer",
              "type": "uint256"
            },
            {
              "internalType": "bool",
              "name": "isQuoteBufferContainsHopToWantValue",
              "type": "bool"
            }
          ],
          "internalType": "struct SwapHelperDTO",
          "name": "__swapHelperDTO",
          "type": "tuple"
        }
      ],
      "name": "setSwapHelperDTO",
      "outputs": [],
      "stateMutability": "nonpayable",
      "type": "function"
    },
    {
      "inputs": [
        {
          "internalType": "uint16",
          "name": "_srcChainId",
          "type": "uint16"
        },
        {
          "internalType": "bytes",
          "name": "_path",
          "type": "bytes"
        }
      ],
      "name": "setTrustedRemote",
      "outputs": [],
      "stateMutability": "nonpayable",
      "type": "function"
    },
    {
      "inputs": [
        {
          "internalType": "uint16",
          "name": "_remoteChainId",
          "type": "uint16"
        },
        {
          "internalType": "bytes",
          "name": "_remoteAddress",
          "type": "bytes"
        }
      ],
      "name": "setTrustedRemoteAddress",
      "outputs": [],
      "stateMutability": "nonpayable",
      "type": "function"
    },
    {
      "inputs": [],
      "name": "sgBridge",
      "outputs": [
        {
          "internalType": "contract ISgBridge",
          "name": "",
          "type": "address"
        }
      ],
      "stateMutability": "view",
      "type": "function"
    },
    {
      "inputs": [
        {
          "internalType": "uint16",
          "name": "",
          "type": "uint16"
        },
        {
          "internalType": "bytes",
          "name": "_srcAddress",
          "type": "bytes"
        },
        {
          "internalType": "uint256",
          "name": "",
          "type": "uint256"
        },
        {
          "internalType": "address",
          "name": "_token",
          "type": "address"
        },
        {
          "internalType": "uint256",
          "name": "_amountLD",
          "type": "uint256"
        },
        {
          "internalType": "bytes",
          "name": "",
          "type": "bytes"
        }
      ],
      "name": "sgReceive",
      "outputs": [],
      "stateMutability": "nonpayable",
      "type": "function"
    },
    {
      "inputs": [],
      "name": "sgRouter",
      "outputs": [
        {
          "internalType": "contract IStargateRouter",
          "name": "",
          "type": "address"
        }
      ],
      "stateMutability": "view",
      "type": "function"
    },
    {
      "inputs": [],
      "name": "slippage",
      "outputs": [
        {
          "internalType": "uint256",
          "name": "",
          "type": "uint256"
        }
      ],
      "stateMutability": "view",
      "type": "function"
    },
    {
      "inputs": [],
      "name": "strategist",
      "outputs": [
        {
          "internalType": "address",
          "name": "",
          "type": "address"
        }
      ],
      "stateMutability": "view",
      "type": "function"
    },
    {
      "inputs": [],
      "name": "strategistSignMessageHash",
      "outputs": [
        {
          "internalType": "bytes32",
          "name": "",
          "type": "bytes32"
        }
      ],
      "stateMutability": "view",
      "type": "function"
    },
    {
      "inputs": [
        {
          "internalType": "contract IERC20",
          "name": "_token",
          "type": "address"
        }
      ],
      "name": "sweepToken",
      "outputs": [],
      "stateMutability": "nonpayable",
      "type": "function"
    },
    {
      "inputs": [
        {
          "internalType": "address",
          "name": "newOwner",
          "type": "address"
        }
      ],
      "name": "transferOwnership",
      "outputs": [],
      "stateMutability": "nonpayable",
      "type": "function"
    },
    {
      "inputs": [
        {
          "internalType": "uint16",
          "name": "",
          "type": "uint16"
        }
      ],
      "name": "trustedRemoteLookup",
      "outputs": [
        {
          "internalType": "bytes",
          "name": "",
          "type": "bytes"
        }
      ],
      "stateMutability": "view",
      "type": "function"
    },
    {
      "inputs": [],
      "name": "vault",
      "outputs": [
        {
          "internalType": "address",
          "name": "",
          "type": "address"
        }
      ],
      "stateMutability": "view",
      "type": "function"
    },
    {
      "inputs": [],
      "name": "vaultChainId",
      "outputs": [
        {
          "internalType": "uint16",
          "name": "",
          "type": "uint16"
        }
      ],
      "stateMutability": "view",
      "type": "function"
    },
    {
      "inputs": [],
      "name": "want",
      "outputs": [
        {
          "internalType": "contract IERC20",
          "name": "",
          "type": "address"
        }
      ],
      "stateMutability": "view",
      "type": "function"
    },
    {
      "inputs": [],
      "name": "wantDecimals",
      "outputs": [
        {
          "internalType": "uint8",
          "name": "",
          "type": "uint8"
        }
      ],
      "stateMutability": "view",
      "type": "function"
    },
    {
      "inputs": [
        {
          "internalType": "uint256",
          "name": "_amountNeeded",
          "type": "uint256"
        }
      ],
      "name": "withdrawSome",
      "outputs": [],
      "stateMutability": "nonpayable",
      "type": "function"
    },
    {
      "stateMutability": "payable",
      "type": "receive"
    }
  ],
  "bytecode": "0x608060405234801561001057600080fd5b506166a880620000216000396000f3fe60806040526004361061029f5760003560e01c80621d3567146102ab5780630517cb76146102cd57806306fdde031461030357806307e0db17146103425780630df374831461036257806310ddb137146103825780631be19560146103a25780631cdb539f146103c25780631f1fcd51146103e25780631fe4a686146104025780632d6068431461042257806337fded91146104375780633d3ccc2f1461045c5780633d8b38f61461047c5780633e032a3b146104ac5780633f1f4fa4146104d057806342d65a8d146104fd57806345ee07551461051d578063495f881e1461053d5780634a5f58d11461055d57806350bb4beb1461057d5780635641ec0314610592578063567ad85d146105ac578063593178de146105e15780635b8c41e6146105f657806366ad5c8a146106455780636cbadbfa14610665578063715018a6146106875780637533d7881461069c57806378dc9059146106bc5780638cfd8f5c146106dc5780638da5cb5b14610714578063950c8a74146107295780639606647d146107495780639f38369a1461075e578063a4ef57ab1461077e578063a6c3d1651461079e578063ab8236f3146107be578063adf076e6146107de578063ae9b051c14610811578063b353aaa714610831578063baf3292d14610851578063c1a3d44c14610871578063c446183414610886578063c7b9d5301461089c578063cbed8b9c146108bc578063cdddd4e5146108dc578063d1deba1f146108fc578063df2a5b3b1461090f578063e73620c31461092f578063e96440441461094f578063eb8d72b71461096f578063efbb5cb01461098f578063f056dffe146109a4578063f0fa55a9146109c4578063f2fde38b146109e4578063f5ecbdbc14610a04578063fa54080114610a24578063fbfa77cf14610a4457600080fd5b366102a657005b600080fd5b3480156102b757600080fd5b506102cb6102c6366004615281565b610a64565b005b3480156102d957600080fd5b5060ce546102ed906001600160a01b031681565b6040516102fa9190615314565b60405180910390f35b34801561030f57600080fd5b5060408051808201909152600d81526c506561726c537472617465677960981b60208201525b6040516102fa9190615378565b34801561034e57600080fd5b506102cb61035d36600461538b565b610b4d565b34801561036e57600080fd5b506102cb61037d3660046153a6565b610bba565b34801561038e57600080fd5b506102cb61039d36600461538b565b610bd9565b3480156103ae57600080fd5b506102cb6103bd3660046153e5565b610c15565b3480156103ce57600080fd5b506102cb6103dd366004615402565b610ca2565b3480156103ee57600080fd5b5060ca546102ed906001600160a01b031681565b34801561040e57600080fd5b5060c9546102ed906001600160a01b031681565b34801561042e57600080fd5b506102cb610efa565b34801561044357600080fd5b5060cd546102ed9061010090046001600160a01b031681565b34801561046857600080fd5b506102cb6104773660046154b4565b610f3b565b34801561048857600080fd5b5061049c6104973660046154cd565b610f71565b60405190151581526020016102fa565b3480156104b857600080fd5b506104c260cc5481565b6040519081526020016102fa565b3480156104dc57600080fd5b506104c26104eb36600461538b565b60686020526000908152604090205481565b34801561050957600080fd5b506102cb6105183660046154cd565b61103e565b34801561052957600080fd5b506102cb61053836600461552d565b6110b1565b34801561054957600080fd5b506102cb610558366004615635565b6110cc565b34801561056957600080fd5b506102cb6105783660046154b4565b611370565b34801561058957600080fd5b506104c261139f565b34801561059e57600080fd5b5060cd5461049c9060ff1681565b3480156105b857600080fd5b5060cb546105ce90600160a01b900461ffff1681565b60405161ffff90911681526020016102fa565b3480156105ed57600080fd5b506104c26113ae565b34801561060257600080fd5b506104c2610611366004615698565b6097602090815260009384526040808520845180860184018051928152908401958401959095209452929052825290205481565b34801561065157600080fd5b506102cb610660366004615281565b61140c565b34801561067157600080fd5b5060cb546105ce90600160b01b900461ffff1681565b34801561069357600080fd5b506102cb6114e0565b3480156106a857600080fd5b506103356106b736600461538b565b6114f4565b3480156106c857600080fd5b506102cb6106d73660046154b4565b61158e565b3480156106e857600080fd5b506104c26106f73660046156f5565b606760209081526000928352604080842090915290825290205481565b34801561072057600080fd5b506102ed6115bd565b34801561073557600080fd5b506069546102ed906001600160a01b031681565b34801561075557600080fd5b506102cb6115cc565b34801561076a57600080fd5b5061033561077936600461538b565b61165f565b34801561078a57600080fd5b506102cb610799366004615728565b61176e565b3480156107aa57600080fd5b506102cb6107b93660046154cd565b6117b6565b3480156107ca57600080fd5b506102cb6107d9366004615790565b61183f565b3480156107ea57600080fd5b5060cb546107ff90600160c01b900460ff1681565b60405160ff90911681526020016102fa565b34801561081d57600080fd5b506102cb61082c3660046154b4565b611939565b34801561083d57600080fd5b506065546102ed906001600160a01b031681565b34801561085d57600080fd5b506102cb61086c3660046153e5565b611968565b34801561087d57600080fd5b506104c26119bb565b34801561089257600080fd5b506104c261271081565b3480156108a857600080fd5b506102cb6108b73660046153e5565b611a2d565b3480156108c857600080fd5b506102cb6108d736600461582a565b611a57565b3480156108e857600080fd5b506102cb6108f73660046154b4565b611ac5565b6102cb61090a366004615281565b611ad3565b34801561091b57600080fd5b506102cb61092a366004615898565b611ce9565b34801561093b57600080fd5b506102cb61094a3660046154b4565b611d9b565b34801561095b57600080fd5b506102cb61096a3660046154b4565b611dbb565b34801561097b57600080fd5b506102cb61098a3660046154cd565b611dea565b34801561099b57600080fd5b506104c2611e44565b3480156109b057600080fd5b506102cb6109bf3660046158d4565b61214e565b3480156109d057600080fd5b506102cb6109df3660046154b4565b6121cd565b3480156109f057600080fd5b506102cb6109ff3660046153e5565b6121da565b348015610a1057600080fd5b50610335610a1f36600461591a565b612250565b348015610a3057600080fd5b506104c2610a3f3660046154b4565b6122e5565b348015610a5057600080fd5b5060cb546102ed906001600160a01b031681565b6065546001600160a01b03163314610acf5760405162461bcd60e51b815260206004820152602360248201527f4261736553747261746567793a3a496e76616c6964456e64706f696e7443616c6044820152623632b960e91b60648201526084015b60405180910390fd5b610b458686868080601f01602080910402602001604051908101604052809392919081815260200183838082843760009201919091525050604080516020601f89018190048102820181019092528781528993509150879087908190840183828082843760009201919091525061233792505050565b505050505050565b610b556123b0565b6065546040516307e0db1760e01b815261ffff831660048201526001600160a01b03909116906307e0db17906024015b600060405180830381600087803b158015610b9f57600080fd5b505af1158015610bb3573d6000803e3d6000fd5b5050505050565b610bc26123b0565b61ffff909116600090815260686020526040902055565b610be16123b0565b6065546040516310ddb13760e01b815261ffff831660048201526001600160a01b03909116906310ddb13790602401610b85565b610c1d61240f565b610c9f33826001600160a01b03166370a08231306040518263ffffffff1660e01b8152600401610c4d9190615314565b602060405180830381865afa158015610c6a573d6000803e3d6000fd5b505050506040513d601f19601f82011682018060405250810190610c8e9190615967565b6001600160a01b0384169190612468565b50565b600054610100900460ff1615808015610cc25750600054600160ff909116105b80610ce35750610cd1306124be565b158015610ce3575060005460ff166001145b610d465760405162461bcd60e51b815260206004820152602e60248201527f496e697469616c697a61626c653a20636f6e747261637420697320616c72656160448201526d191e481a5b9a5d1a585b1a5e995960921b6064820152608401610ac6565b6000805460ff191660011790558015610d69576000805461ff0019166101001790555b610d7c89898989898989896126486124cd565b60ca54610da9906001600160a01b03167368b3465833fb72a70ecdf485e0e4c7bd8665fc456000196126ac565b60ca54610dd0906001600160a01b03166000805160206165b38339815191526000196126ac565b610df96000805160206166338339815191526000805160206165b38339815191526000196126ac565b610e226000805160206166138339815191526000805160206165d38339815191526000196126ac565b610e4b6000805160206166138339815191526000805160206165b38339815191526000196126ac565b610e80738f3cf7ad23cd3cadbd9735aff958023239c6a06373195f7b233947d51f4c3b756ad41a5ddb34cebce06000196126ac565b610ea96000805160206165f38339815191526000805160206165b38339815191526000196126ac565b8015610eef576000805461ff0019169055604051600181527f7f26b83ff96e1f2b6a682f133852f6798a09c465da95921460cefb38474024989060200160405180910390a15b505050505050505050565b610f0261240f565b60c9546040516001600160a01b03909116904780156108fc02916000818181858888f19350505050158015610c9f573d6000803e3d6000fd5b610f4361240f565b610f4c816127b0565b604051818152600080516020616653833981519152906020015b60405180910390a150565b61ffff831660009081526066602052604081208054829190610f9290615980565b80601f0160208091040260200160405190810160405280929190818152602001828054610fbe90615980565b801561100b5780601f10610fe05761010080835404028352916020019161100b565b820191906000526020600020905b815481529060010190602001808311610fee57829003601f168201915b5050505050905083836040516110229291906159ba565b60405180910390208180519060200120149150505b9392505050565b6110466123b0565b6065546040516342d65a8d60e01b81526001600160a01b03909116906342d65a8d9061107a908690869086906004016159f3565b600060405180830381600087803b15801561109457600080fd5b505af11580156110a8573d6000803e3d6000fd5b50505050505050565b6110b961240f565b60cd805460ff1916911515919091179055565b6110d461240f565b6110dd81612ef6565b60cd546000908190819060ff161561118957841561113d5760405162461bcd60e51b815260206004820152601e60248201527f4261736553747261746567793a3a44656274526174696f4e6f745a65726f00006044820152606401610ac6565b6000611147612f7c565b9050878110156111625761115b8189615a27565b9250611177565b87811115611177576111748882615a27565b93505b6111818389615a27565b91505061119b565b6111938888613047565b919450925090505b60006111a78285615a3a565b9050600080888310156111c9576111be838a615a27565b9150600090506111da565b600091506111d78984615a27565b90505b6000604051806101600160405280306001600160a01b031681526020014281526020018881526020018781526020018681526020018481526020018381526020018b81526020018361122a611e44565b6112349190615a27565b815260200160d0600081548092919061124c90615a4d565b909155508152602001899052905081156112ac5760cb546040516112a791849161ffff600160a01b830416916001600160a01b031690611293906002908790602001615a9e565b60405160208183030381529060405261313e565b6112d7565b6112d76002826040516020016112c3929190615a9e565b60405160208183030381529060405261322c565b7fb983e09c034e9c52b5e547cb0589967992b97717733f580cc5ad0afcdc4b522b8160400151826060015183608001518460a001518560c001518660e0015187610100015160405161135a9796959493929190968752602087019590955260408601939093526060850191909152608084015260a083015260c082015260e00190565b60405180910390a1505050505050505050505050565b60ca5460cb54610c9f9183916001600160a01b0390911690600160c01b900460ff1660d16133ac613445613456565b60006113a9612f7c565b905090565b60d05460cb546040513060601b6001600160601b03191660208201526034810192909252600160b01b900460f01b6001600160f01b031916605482015260009060560160405160208183030381529060405280519060200120905090565b33301461146a5760405162461bcd60e51b815260206004820152602660248201527f4e6f6e626c6f636b696e674c7a4170703a2063616c6c6572206d7573742062656044820152650204c7a4170760d41b6064820152608401610ac6565b610b458686868080601f01602080910402602001604051908101604052809392919081815260200183838082843760009201919091525050604080516020601f89018190048102820181019092528781528993509150879087908190840183828082843760009201919091525061358592505050565b6114e86123b0565b6114f2600061369b565b565b6066602052600090815260409020805461150d90615980565b80601f016020809104026020016040519081016040528092919081815260200182805461153990615980565b80156115865780601f1061155b57610100808354040283529160200191611586565b820191906000526020600020905b81548152906001019060200180831161156957829003601f168201915b505050505081565b60ca5460cb54610c9f9183916001600160a01b0390911690600160c01b900460ff1660d16133ac6134456136ed565b6033546001600160a01b031690565b6115d461240f565b60ca546040516370a0823160e01b81526114f2916001916001600160a01b03909116906370a082319061160b903090600401615314565b602060405180830381865afa158015611628573d6000803e3d6000fd5b505050506040513d601f19601f8201168201806040525081019061164c9190615967565b60ca546001600160a01b03169190612468565b61ffff811660009081526066602052604081208054606092919061168290615980565b80601f01602080910402602001604051908101604052809291908181526020018280546116ae90615980565b80156116fb5780601f106116d0576101008083540402835291602001916116fb565b820191906000526020600020905b8154815290600101906020018083116116de57829003601f168201915b5050505050905080516000036117535760405162461bcd60e51b815260206004820152601d60248201527f4c7a4170703a206e6f20747275737465642070617468207265636f72640000006044820152606401610ac6565b6110376000601483516117669190615a27565b839190613a1c565b611776613b29565b805160d180546001600160a01b0319166001600160a01b03909216919091179055602081015160d2556040015160d3805460ff1916911515919091179055565b6117be6123b0565b8181306040516020016117d393929190615b52565b60408051601f1981840301815291815261ffff85166000908152606660205220906117fe9082615bce565b507f8c0400cfe2d1199b1a725c78960bcc2a344d869b80590d0f2bd005db15a572ce838383604051611832939291906159f3565b60405180910390a1505050565b60ce546001600160a01b0316331480611867575060cd5461010090046001600160a01b031633145b6118b25760405162461bcd60e51b815260206004820152601c60248201527b53674272696467653a3a526f757465724f724272696467654f6e6c7960201b6044820152606401610ac6565b60006118c086826014613a1c565b6040516020016118d09190615c87565b6040516020818303038152906040526118e890615ca3565b60601c9050836001600160a01b03167f92073a89a07a000083eb8b2575fc15e7bb936efe55d00727d6942a796d7211a78483604051611928929190615cda565b60405180910390a250505050505050565b60ca5460cb54610c9f9183916001600160a01b0390911690600160c01b900460ff1660d16133ac613445613b98565b6119706123b0565b606980546001600160a01b0319166001600160a01b0383161790556040517f5db758e995a17ec1ad84bdef7e8c3293a0bd6179bcce400dff5d4c3d87db726b90610f66908390615314565b60ca546040516370a0823160e01b81526000916001600160a01b0316906370a08231906119ec903090600401615314565b602060405180830381865afa158015611a09573d6000803e3d6000fd5b505050506040513d601f19601f820116820180604052508101906113a99190615967565b611a356123b0565b60c980546001600160a01b0319166001600160a01b0392909216919091179055565b611a5f6123b0565b6065546040516332fb62e760e21b81526001600160a01b039091169063cbed8b9c90611a979088908890889088908890600401615cf1565b600060405180830381600087803b158015611ab157600080fd5b505af1158015610eef573d6000803e3d6000fd5b611ace81613ce5565b505050565b61ffff86166000908152609760205260408082209051611af690889088906159ba565b90815260408051602092819003830190206001600160401b03871660009081529252902054905080611b765760405162461bcd60e51b815260206004820152602360248201527f4e6f6e626c6f636b696e674c7a4170703a206e6f2073746f726564206d65737360448201526261676560e81b6064820152608401610ac6565b808383604051611b879291906159ba565b604051809103902014611be65760405162461bcd60e51b815260206004820152602160248201527f4e6f6e626c6f636b696e674c7a4170703a20696e76616c6964207061796c6f616044820152601960fa1b6064820152608401610ac6565b61ffff87166000908152609760205260408082209051611c0990899089906159ba565b90815260408051602092819003830181206001600160401b038916600090815290845282902093909355601f88018290048202830182019052868252611ca1918991899089908190840183828082843760009201919091525050604080516020601f8a018190048102820181019092528881528a93509150889088908190840183828082843760009201919091525061358592505050565b7fc264d91f3adc5588250e1551f547752ca0cfa8f6b530d243b9f9f4cab10ea8e58787878785604051611cd8959493929190615d1f565b60405180910390a150505050505050565b611cf16123b0565b60008111611d395760405162461bcd60e51b81526020600482015260156024820152744c7a4170703a20696e76616c6964206d696e47617360581b6044820152606401610ac6565b61ffff83811660008181526067602090815260408083209487168084529482529182902085905581519283528201929092529081018290527f9d5c7c0b934da8fefa9c7760c98383778a12dfbfc0c3b3106518f43fb9508ac090606001611832565b611da36123b0565b600090815260cf60205260409020805460ff19169055565b60ca5460cb54610c9f9183916001600160a01b0390911690600160c01b900460ff1660d16133ac613445613e3e565b611df26123b0565b61ffff83166000908152606660205260409020611e10828483615d5a565b507ffa41487ad5d6728f0b19276fa1eddc16558578f5109fc39d2dc33c3230470dab838383604051611832939291906159f3565b600073__$c227fba7995d6bae65c253a840cdb49c5a$__6330d15a9d73__$c227fba7995d6bae65c253a840cdb49c5a$__638f4508d06040518163ffffffff1660e01b8152600401602060405180830381865af4158015611ea9573d6000803e3d6000fd5b505050506040513d601f19601f82011682018060405250810190611ecd9190615967565b60ca5460cb5460405160e085901b6001600160e01b031916815260048101939093526001600160a01b039091166024830152600160c01b900460ff166044820152606401602060405180830381865af4158015611f2e573d6000803e3d6000fd5b505050506040513d601f19601f82011682018060405250810190611f529190615967565b6040516370a0823160e01b815273__$c227fba7995d6bae65c253a840cdb49c5a$__9063af8e3954906000805160206165f3833981519152906370a0823190611f9f903090600401615314565b602060405180830381865afa158015611fbc573d6000803e3d6000fd5b505050506040513d601f19601f82011682018060405250810190611fe09190615967565b73__$c227fba7995d6bae65c253a840cdb49c5a$__63d56739ac6040518163ffffffff1660e01b8152600401602060405180830381865af4158015612029573d6000803e3d6000fd5b505050506040513d601f19601f8201168201806040525081019061204d9190615967565b6120579190615a3a565b60cb5460405160e084901b6001600160e01b03191681526004810192909252600160c01b900460ff166024820152604401602060405180830381865af41580156120a5573d6000803e3d6000fd5b505050506040513d601f19601f820116820180604052508101906120c99190615967565b60ca546040516370a0823160e01b81526001600160a01b03909116906370a08231906120f9903090600401615314565b602060405180830381865afa158015612116573d6000803e3d6000fd5b505050506040513d601f19601f8201168201806040525081019061213a9190615967565b6121449190615a3a565b6113a99190615a3a565b60d1546001600160a01b0316331461217957604051630336158960e61b815260040160405180910390fd5b81836001600160a01b0316856001600160a01b03167f9b2db766e04dc7ee1cc19d1415531ad5b3fd566db4f745d9a8ad51e3d3fe1bd7846040516121bf91815260200190565b60405180910390a450505050565b6121d561240f565b60cc55565b6121e26123b0565b6001600160a01b0381166122475760405162461bcd60e51b815260206004820152602660248201527f4f776e61626c653a206e6577206f776e657220697320746865207a65726f206160448201526564647265737360d01b6064820152608401610ac6565b610c9f8161369b565b606554604051633d7b2f6f60e21b815261ffff808716600483015285166024820152306044820152606481018390526060916001600160a01b03169063f5ecbdbc90608401600060405180830381865afa1580156122b2573d6000803e3d6000fd5b505050506040513d6000823e601f3d908101601f191682016040526122da9190810190615e13565b90505b949350505050565b6040517b0ca2ba3432b932bab69029b4b3b732b21026b2b9b9b0b3b29d05199960211b6020820152603c8101829052600090605c01604051602081830303815290604052805190602001209050919050565b60008061239a5a60966366ad5c8a60e01b8989898960405160240161235f9493929190615e80565b60408051601f198184030181529190526020810180516001600160e01b03166001600160e01b03199093169290921790915230929190613f4f565b9150915081610b4557610b458686868685613fdb565b336123b96115bd565b6001600160a01b0316146114f25760405162461bcd60e51b815260206004820181905260248201527f4f776e61626c653a2063616c6c6572206973206e6f7420746865206f776e65726044820152606401610ac6565b60c9546001600160a01b031633146114f25760405162461bcd60e51b815260206004820152601c60248201527b10985cd954dd1c985d1959de4e8e93db9b1e54dd1c985d1959da5cdd60221b6044820152606401610ac6565b611ace8363a9059cbb60e01b8484604051602401612487929190615ebe565b60408051601f198184030181529190526020810180516001600160e01b03166001600160e01b031990931692909217909152614078565b6001600160a01b03163b151590565b600054610100900460ff166124f45760405162461bcd60e51b8152600401610ac690615ed7565b6124fd8961414d565b60c980546001600160a01b03808b166001600160a01b03199283161790925560ca80548a8416908316811790915560cb8054938a1661ffff8a16600160a01b029093166001600160b01b0319909416939093179190911790915560cc8290556040805163313ce56760e01b8152905163313ce567916004808201926020929091908290030181865afa158015612597573d6000803e3d6000fd5b505050506040513d601f19601f820116820180604052508101906125bb9190615f22565b60cb8054600060d05562ffffff60b01b1916600160c01b60ff939093169290920261ffff60b01b191691909117600160b01b61ffff87160217905560cd8054610100600160a81b0319166101006001600160a01b03868116919091029190911790915560ce80546001600160a01b03191684831617905560ca5460405163095ea7b360e01b815291169063095ea7b39061265d90869060001990600401615ebe565b6020604051808303816000875af115801561267c573d6000803e3d6000fd5b505050506040513d601f19601f820116820180604052508101906126a09190615f45565b50505050505050505050565b8015806127265750604051636eb1769f60e11b81523060048201526001600160a01b03838116602483015284169063dd62ed3e90604401602060405180830381865afa158015612700573d6000803e3d6000fd5b505050506040513d601f19601f820116820180604052508101906127249190615967565b155b6127915760405162461bcd60e51b815260206004820152603660248201527f5361666545524332303a20617070726f76652066726f6d206e6f6e2d7a65726f60448201527520746f206e6f6e2d7a65726f20616c6c6f77616e636560501b6064820152608401610ac6565b611ace8363095ea7b360e01b8484604051602401612487929190615ebe565b6000805160206165d38339815191526001600160a01b0316633d18b9126040518163ffffffff1660e01b8152600401600060405180830381600087803b1580156127f957600080fd5b505af115801561280d573d6000803e3d6000fd5b50506040516370a0823160e01b81526128b092506000805160206165f383398151915291506370a0823190612846903090600401615314565b602060405180830381865afa158015612863573d6000803e3d6000fd5b505050506040513d601f19601f820116820180604052508101906128879190615967565b60ca5460cb546001600160a01b0390911690600160c01b900460ff1660d16133ac613445613456565b60ca546040516370a0823160e01b81526000916001600160a01b0316906370a08231906128e1903090600401615314565b602060405180830381865afa1580156128fe573d6000803e3d6000fd5b505050506040513d601f19601f820116820180604052508101906129229190615967565b905081811115612ad3576000600261293a8484615a27565b6129449190615f62565b905060006129d78260cb60189054906101000a900460ff16738f3cf7ad23cd3cadbd9735aff958023239c6a0636001600160a01b031663313ce5676040518163ffffffff1660e01b8152600401602060405180830381865afa1580156129ae573d6000803e3d6000fd5b505050506040513d601f19601f820116820180604052508101906129d29190615f22565b614185565b6040805160808101825260ca546001600160601b0319606091821b1660a0830152601960ea1b60b4830152738f3cf7ad23cd3cadbd9735aff958023239c6a06360601b60b7830152825160ab81840301815260cb830184528252306020830152918101859052919250600091908101612a4f846141da565b905260405163b858183f60e01b81529091507368b3465833fb72a70ecdf485e0e4c7bd8665fc459063b858183f90612a8b908490600401615f84565b6020604051808303816000875af1158015612aaa573d6000803e3d6000fd5b505050506040513d601f19601f82011682018060405250810190612ace9190615967565b505050505b6040516370a0823160e01b8152600090738f3cf7ad23cd3cadbd9735aff958023239c6a063906370a0823190612b0d903090600401615314565b602060405180830381865afa158015612b2a573d6000803e3d6000fd5b505050506040513d601f19601f82011682018060405250810190612b4e9190615967565b90508015612bd45760405163a39fc2c560e01b815273195f7b233947d51f4c3b756ad41a5ddb34cebce09063a39fc2c590612b8f9084903090600401615cda565b6020604051808303816000875af1158015612bae573d6000803e3d6000fd5b505050506040513d601f19601f82011682018060405250810190612bd29190615967565b505b6040516370a0823160e01b8152600090600080516020616633833981519152906370a0823190612c08903090600401615314565b602060405180830381865afa158015612c25573d6000803e3d6000fd5b505050506040513d601f19601f82011682018060405250810190612c499190615967565b60ca546040516370a0823160e01b81529192506001600160a01b0316906370a0823190612c7a903090600401615314565b602060405180830381865afa158015612c97573d6000803e3d6000fd5b505050506040513d601f19601f82011682018060405250810190612cbb9190615967565b9250600081118015612ccd5750600083115b15612e475760ca546040516326283ecf60e21b81526001600160a01b039091166004820152600080516020616633833981519152602482015260016044820152606481018490526084810182905260009081906000805160206165b3833981519152906398a0fb3c9060a401606060405180830381865afa158015612d56573d6000803e3d6000fd5b505050506040513d601f19601f82011682018060405250810190612d7a9190615fd2565b5060ca54604051635a47ddc360e01b81526001600160a01b0390911660048201526000805160206166338339815191526024820152600160448201819052606482018490526084820183905260a4820181905260c48201523060e48201524261010482015291935091506000805160206165b383398151915290635a47ddc390610124016060604051808303816000875af1158015612e1d573d6000803e3d6000fd5b505050506040513d601f19601f82011682018060405250810190612e419190615fd2565b50505050505b6040516370a0823160e01b8152600090600080516020616613833981519152906370a0823190612e7b903090600401615314565b602060405180830381865afa158015612e98573d6000803e3d6000fd5b505050506040513d601f19601f82011682018060405250810190612ebc9190615967565b90508015610bb35760405163b6b55f2560e01b8152600481018290526000805160206165d38339815191529063b6b55f2590602401611a97565b6000612f006113ae565b90506000612f0d826122e5565b60c9549091506001600160a01b0316612f2682856141f7565b6001600160a01b031614611ace5760405162461bcd60e51b815260206004820152601e60248201527f4261736553747261746567793a3a496e76616c69645369676e617475726500006044820152606401610ac6565b600061301773__$c227fba7995d6bae65c253a840cdb49c5a$__638f4508d06040518163ffffffff1660e01b8152600401602060405180830381865af4158015612fca573d6000803e3d6000fd5b505050506040513d601f19601f82011682018060405250810190612fee9190615967565b60ca5460cb546001600160a01b0390911690600160c01b900460ff1660d16133ac6134456136ed565b60ca546040516370a0823160e01b81526001600160a01b03909116906370a08231906119ec903090600401615314565b600080600080613055611e44565b9050858110613073576130688682615a27565b935060009250613084565b600093506130818187615a27565b92505b6130966130918587615a3a565b613ce5565b505060ca546040516370a0823160e01b81526000916001600160a01b0316906370a08231906130c9903090600401615314565b602060405180830381865afa1580156130e6573d6000803e3d6000fd5b505050506040513d601f19601f8201168201806040525081019061310a9190615967565b905084811161311f5780945060009250613135565b61313261312c8683615a27565b8761421b565b92505b50509250925092565b60cd54604051630dc6346160e01b815260009161010090046001600160a01b031690630dc634619061317890879087908790600401616000565b602060405180830381865afa158015613195573d6000803e3d6000fd5b505050506040513d601f19601f820116820180604052508101906131b99190615967565b60cd5460ca54604051633920455b60e11b81529293506001600160a01b036101009092048216926372408ab69285926131ff929116908a908a908a908a9060040161602e565b6000604051808303818588803b15801561321857600080fd5b505af11580156126a0573d6000803e3d6000fd5b60cb5460408051606083811b6001600160601b03199081166020840152309182901b16603483015282516028818403018152604890920190925260655490926000926001600160a01b03909216916340a7bb109161ffff600160a01b90910416908685613297614231565b6040518663ffffffff1660e01b81526004016132b795949392919061606b565b6040805180830381865afa1580156132d3573d6000803e3d6000fd5b505050506040513d601f19601f820116820180604052508101906132f791906160bf565b509050804710156133235760405162fae2d560e21b815260048101829052476024820152604401610ac6565b60655460cb546001600160a01b039091169063c5803100908390600160a01b900461ffff1685873080613354614231565b6040518863ffffffff1660e01b8152600401613375969594939291906160e3565b6000604051808303818588803b15801561338e57600080fd5b505af11580156133a2573d6000803e3d6000fd5b5050505050505050565b80516000036133fb5781836001600160a01b0316856001600160a01b03167fea368a40e9570069bb8e6511d668293ad2e1f03b0d982431fd223de9f3b70ca660405160405180910390a461343f565b81836001600160a01b0316856001600160a01b03167f583bc203f4bd38722d9ba88ecb248da508149e0e405a42dbc1b1f7d55a8be0c1846040516121bf9190615378565b50505050565b6000613450826141da565b92915050565b8515610b455782546001600160a01b03166310cabd1d6000805160206165f3833981519152878961271061348d612648606461614a565b6134979190615f62565b6040518563ffffffff1660e01b81526004016134b69493929190616161565b600060405180830381600087803b1580156134d057600080fd5b505af19250505080156134e1575060015b613545573d80801561350f576040519150601f19603f3d011682016040523d82523d6000602084013e613514565b606091505b5061352187868885614261565b61353f6000805160206165f38339815191528789848763ffffffff16565b50610b45565b610b456000805160206165f38339815191528688600060405160200161356d91815260200190565b6040516020818303038152906040528663ffffffff16565b60cb5461ffff858116600160a01b90920416146135ef5760405162461bcd60e51b815260206004820152602260248201527f4261736553747261746567793a3a5661756c74436861696e49644d69736d61746044820152610c6d60f31b6064820152608401610ac6565b60006135fd84826014613a1c565b60405160200161360d9190615c87565b60405160208183030381529060405261362590615ca3565b60cb5460609190911c91506001600160a01b031681146136925760405162461bcd60e51b815260206004820152602260248201527f4261736553747261746567793a3a5661756c74416464726573734d69736d61746044820152610c6d60f31b6064820152608401610ac6565b610bb3826143f9565b603380546001600160a01b038381166001600160a01b0319831681179093556040519116919082907f8be0079c531659141344cd1fd0a4f28419497f9722a3daafe3b4186f6b6457e090600090a35050565b6000805160206165d38339815191526001600160a01b0316633d18b9126040518163ffffffff1660e01b8152600401600060405180830381600087803b15801561373657600080fd5b505af115801561374a573d6000803e3d6000fd5b50506040516370a0823160e01b81526137ce92506000805160206165f383398151915291506370a0823190613783903090600401615314565b602060405180830381865afa1580156137a0573d6000803e3d6000fd5b505050506040513d601f19601f820116820180604052508101906137c49190615967565b8686868686613456565b8515610b4557604051632e1a7d4d60e01b8152600481018790526000805160206165d383398151915290632e1a7d4d90602401600060405180830381600087803b15801561381b57600080fd5b505af115801561382f573d6000803e3d6000fd5b50506040516310e1b98f60e21b8152600092508291506000805160206165b383398151915290634386e63c9061387e908a90600080516020616633833981519152906001908e9060040161618c565b6040805180830381865afa15801561389a573d6000803e3d6000fd5b505050506040513d601f19601f820116820180604052508101906138be91906160bf565b90925090506000805160206165b3833981519152630dede6c48860008051602061663383398151915260018c6138f78863ffffffff8b16565b613904888b63ffffffff16565b6040516001600160e01b031960e089901b1681526001600160a01b03968716600482015295909416602486015291151560448501526064840152608483015260a48201523060c48201524260e48201526101040160408051808303816000875af1158015613976573d6000803e3d6000fd5b505050506040513d601f19601f8201168201806040525081019061399a91906160bf565b50506040516370a0823160e01b81526133a290600080516020616633833981519152906370a08231906139d1903090600401615314565b602060405180830381865afa1580156139ee573d6000803e3d6000fd5b505050506040513d601f19601f82011682018060405250810190613a129190615967565b8888888888613e3e565b606081613a2a81601f615a3a565b1015613a695760405162461bcd60e51b815260206004820152600e60248201526d736c6963655f6f766572666c6f7760901b6044820152606401610ac6565b613a738284615a3a565b84511015613ab75760405162461bcd60e51b8152602060048201526011602482015270736c6963655f6f75744f66426f756e647360781b6044820152606401610ac6565b606082158015613ad65760405191506000825260208201604052613b20565b6040519150601f8416801560200281840101858101878315602002848b0101015b81831015613b0f578051835260209283019201613af7565b5050858452601f01601f1916604052505b50949350505050565b60c9546001600160a01b0316331480613b4157503330145b6114f25760405162461bcd60e51b815260206004820152602260248201527f4261736553747261746567793a3a4f6e6c79537472617465676973744f725365604482015261363360f11b6064820152608401610ac6565b8515610b45576000613bb1613bab614526565b86614558565b9050868110613ca0576000805160206165d38339815191526001600160a01b0316633d18b9126040518163ffffffff1660e01b8152600401600060405180830381600087803b158015613c0357600080fd5b505af1158015613c17573d6000803e3d6000fd5b50506040516370a0823160e01b8152613c9b92506000805160206165f383398151915291506370a0823190613c50903090600401615314565b602060405180830381865afa158015613c6d573d6000803e3d6000fd5b505050506040513d601f19601f82011682018060405250810190613c919190615967565b8787878787613456565b6110a8565b6000613cb6613caf838a615a27565b88886145f1565b90506000613cc26147c0565b90506000818311613cd35782613cd5565b815b90506126a0818a8a8a8a8a6136ed565b60ca546040516370a0823160e01b8152600091829182916001600160a01b0316906370a0823190613d1a903090600401615314565b602060405180830381865afa158015613d37573d6000803e3d6000fd5b505050506040513d601f19601f82011682018060405250810190613d5b9190615967565b9050838110613d6f57509192600092509050565b613da5613d7c8286615a27565b60ca5460cb546001600160a01b0390911690600160c01b900460ff1660d16133ac613445613b98565b60ca546040516370a0823160e01b81526001600160a01b03909116906370a0823190613dd5903090600401615314565b602060405180830381865afa158015613df2573d6000803e3d6000fd5b505050506040513d601f19601f82011682018060405250810190613e169190615967565b905080841115613e3457915081613e2d8185615a27565b9150613e38565b8392505b50915091565b8515610b455782546001600160a01b03166310cabd1d6000805160206166338339815191528789612710613e75612648606461614a565b613e7f9190615f62565b6040518563ffffffff1660e01b8152600401613e9e9493929190616161565b600060405180830381600087803b158015613eb857600080fd5b505af1925050508015613ec9575060015b613f27573d808015613ef7576040519150601f19603f3d011682016040523d82523d6000602084013e613efc565b606091505b50613f09878688856147f4565b61353f6000805160206166338339815191528789848763ffffffff16565b610b456000805160206166338339815191528688600060405160200161356d91815260200190565b6000606060008060008661ffff166001600160401b03811115613f7457613f7461554a565b6040519080825280601f01601f191660200182016040528015613f9e576020820181803683370190505b50905060008087516020890160008d8df191503d925086831115613fc0578692505b828152826000602083013e9093509150505b94509492505050565b8180519060200120609760008761ffff1661ffff1681526020019081526020016000208560405161400c9190615c87565b9081526040805191829003602090810183206001600160401b0388166000908152915220919091557fe183f33de2837795525b4792ca4cd60535bd77c53b7e7030060bfcf5734d6b0c9061406990879087908790879087906161b7565b60405180910390a15050505050565b60006140cd826040518060400160405280602081526020017f5361666545524332303a206c6f772d6c6576656c2063616c6c206661696c6564815250856001600160a01b03166148c59092919063ffffffff16565b90508051600014806140ee5750808060200190518101906140ee9190615f45565b611ace5760405162461bcd60e51b815260206004820152602a60248201527f5361666545524332303a204552433230206f7065726174696f6e20646964206e6044820152691bdd081cdd58d8d9595960b21b6064820152608401610ac6565b600054610100900460ff166141745760405162461bcd60e51b8152600401610ac690615ed7565b61417c6148d4565b610c9f81614904565b60008260ff168260ff1611156141bb5761419f8383616209565b6141aa90600a616306565b6141b4908561614a565b9050611037565b6141c58284616209565b6141d090600a616306565b6141b49085615f62565b600061271060cc54836141ed919061614a565b6134509190615f62565b6000806000614206858561494d565b9150915061421381614992565b509392505050565b600081831061422a5781611037565b5090919050565b60408051600160f01b6020820152620f424060228083019190915282518083039091018152604290910190915290565b60408051600280825260608201909252600091816020015b6040805160608101825260008082526020808301829052928201528252600019909201910181614279575050604080516060810182526000805160206165f38339815191528152600080516020616633833981519152602082015260009181018290528251929350918391906142f1576142f1616315565b602002602001018190525060405180606001604052806000805160206166338339815191526001600160a01b03168152602001846001600160a01b03168152602001600115158152508160018151811061434d5761434d616315565b602002602001018190525060006143648686614558565b90506000805160206165b383398151915263f41766d8876143888463ffffffff8816565b8530426040518663ffffffff1660e01b81526004016143ab95949392919061632b565b6000604051808303816000875af19250505080156143eb57506040513d6000823e601f3d908101601f191682016040526143e891908101906163ba565b60015b15610b455750505050505050565b60008180602001905181019061440f9190616453565b9050600381600481111561442557614425615a66565b03614478576000828060200190518101906144409190616474565b91505061445081600001516127b0565b80516040519081526000805160206166538339815191529060200160405180910390a1505050565b600081600481111561448c5761448c615a66565b036144b3576000828060200190518101906144a791906164b7565b915050611ace81614ad7565b60048160048111156144c7576144c7615a66565b03614522576000828060200190518101906144e29190616522565b9150506144f28160000151614c01565b80516040517f7c9a2d2ec51230d7dbed27f113a325b7e20aef7b049e68b2339257b5edff5bea9161183291615314565b5050565b6040516246613160e11b81526000906000805160206165d383398151915290628cc262906119ec903090600401615314565b6040516328bd9fc160e11b8152600090819073f68c20d6c50706f6c6bd8ee184382518c93b368c9063517b3f82906145a4906000805160206165f3833981519152908890600401615ebe565b602060405180830381865afa1580156145c1573d6000803e3d6000fd5b505050506040513d601f19601f820116820180604052508101906145e59190615967565b90506122dd8184614c40565b6000806146796000805160206166138339815191526001600160a01b031663313ce5676040518163ffffffff1660e01b8152600401602060405180830381865afa158015614643573d6000803e3d6000fd5b505050506040513d601f19601f820116820180604052508101906146679190615f22565b61467290600a616306565b8585614cbc565b905060006146ce86856000805160206166138339815191526001600160a01b031663313ce5676040518163ffffffff1660e01b8152600401602060405180830381865afa1580156129ae573d6000803e3d6000fd5b9050600061472383866000805160206166138339815191526001600160a01b031663313ce5676040518163ffffffff1660e01b8152600401602060405180830381865afa1580156129ae573d6000803e3d6000fd5b9050806000805160206166138339815191526001600160a01b031663313ce5676040518163ffffffff1660e01b8152600401602060405180830381865afa158015614772573d6000803e3d6000fd5b505050506040513d601f19601f820116820180604052508101906147969190615f22565b6147a190600a616306565b6147ab908461614a565b6147b59190615f62565b979650505050505050565b6040516370a0823160e01b81526000906000805160206165d3833981519152906370a08231906119ec903090600401615314565b60006148008585614c40565b90506000805160206165b38339815191526313dcfc59866148248463ffffffff8716565b6040516001600160e01b031960e085901b1681526004810192909252602482015260008051602061663383398151915260448201526001600160a01b0386166064820152600160848201523060a48201524260c482015260e4016000604051808303816000875af115801561489d573d6000803e3d6000fd5b505050506040513d6000823e601f3d908101601f19168201604052610b4591908101906163ba565b60606122dd8484600085614d6b565b600054610100900460ff166148fb5760405162461bcd60e51b8152600401610ac690615ed7565b6114f23361369b565b600054610100900460ff1661492b5760405162461bcd60e51b8152600401610ac690615ed7565b606580546001600160a01b0319166001600160a01b0392909216919091179055565b60008082516041036149835760208301516040840151606085015160001a61497787828585614e3b565b9450945050505061498b565b506000905060025b9250929050565b60008160048111156149a6576149a6615a66565b036149ae5750565b60018160048111156149c2576149c2615a66565b03614a0a5760405162461bcd60e51b815260206004820152601860248201527745434453413a20696e76616c6964207369676e617475726560401b6044820152606401610ac6565b6002816004811115614a1e57614a1e615a66565b03614a6b5760405162461bcd60e51b815260206004820152601f60248201527f45434453413a20696e76616c6964207369676e6174757265206c656e677468006044820152606401610ac6565b6003816004811115614a7f57614a7f615a66565b03610c9f5760405162461bcd60e51b815260206004820152602260248201527f45434453413a20696e76616c6964207369676e6174757265202773272076616c604482015261756560f01b6064820152608401610ac6565b602080820151600090815260cf909152604090205460ff1615614b3c5760405162461bcd60e51b815260206004820152601e60248201527f4261736553747261746567793a3a416c726561647957697468647261776e00006044820152606401610ac6565b600080614b4c8360000151613ce5565b91509150600060016040518060800160405280306001600160a01b031681526020018581526020018481526020018660200151815250604051602001614b93929190616570565b60408051601f1981840301815291905290508215614bd45760cb54614bcf90849061ffff600160a01b820416906001600160a01b03168461313e565b614bdd565b614bdd8161322c565b505050602090810151600090815260cf90915260409020805460ff19166001179055565b614c0a81614ef2565b60ca546040516370a0823160e01b8152610c9f9183916001600160a01b03909116906370a082319061160b903090600401615314565b6000611037836000805160206166338339815191526001600160a01b031663313ce5676040518163ffffffff1660e01b8152600401602060405180830381865afa158015614c92573d6000803e3d6000fd5b505050506040513d601f19601f82011682018060405250810190614cb69190615f22565b84614185565b6040516310e1b98f60e21b8152600090819081906000805160206165b383398151915290634386e63c90614d09908890600080516020616633833981519152906001908c9060040161618c565b6040805180830381865afa158015614d25573d6000803e3d6000fd5b505050506040513d601f19601f82011682018060405250810190614d4991906160bf565b91509150614d578185614c40565b614d619083615a3a565b9695505050505050565b606082471015614dcc5760405162461bcd60e51b815260206004820152602660248201527f416464726573733a20696e73756666696369656e742062616c616e636520666f6044820152651c8818d85b1b60d21b6064820152608401610ac6565b600080866001600160a01b03168587604051614de89190615c87565b60006040518083038185875af1925050503d8060008114614e25576040519150601f19603f3d011682016040523d82523d6000602084013e614e2a565b606091505b50915091506147b587838387615176565b6000806fa2a8918ca85bafe22016d0b997e4df60600160ff1b03831115614e685750600090506003613fd2565b6040805160008082526020820180845289905260ff881692820192909252606081018690526080810185905260019060a0016020604051602081039080840390855afa158015614ebc573d6000803e3d6000fd5b5050604051601f1901519150506001600160a01b038116614ee557600060019250925050613fd2565b9660009650945050505050565b6000805160206165d38339815191526001600160a01b0316632e1a7d4d73__$c227fba7995d6bae65c253a840cdb49c5a$__638f4508d06040518163ffffffff1660e01b8152600401602060405180830381865af4158015614f58573d6000803e3d6000fd5b505050506040513d601f19601f82011682018060405250810190614f7c9190615967565b6040518263ffffffff1660e01b8152600401614f9a91815260200190565b600060405180830381600087803b158015614fb457600080fd5b505af1158015614fc8573d6000803e3d6000fd5b50506040516370a0823160e01b815261505a9250839150600080516020616613833981519152906370a0823190615003903090600401615314565b602060405180830381865afa158015615020573d6000803e3d6000fd5b505050506040513d601f19601f820116820180604052508101906150449190615967565b6000805160206166138339815191529190612468565b6040516370a0823160e01b81526150e8908290600080516020616633833981519152906370a0823190615091903090600401615314565b602060405180830381865afa1580156150ae573d6000803e3d6000fd5b505050506040513d601f19601f820116820180604052508101906150d29190615967565b6000805160206166338339815191529190612468565b6040516370a0823160e01b8152610c9f9082906000805160206165f3833981519152906370a082319061511f903090600401615314565b602060405180830381865afa15801561513c573d6000803e3d6000fd5b505050506040513d601f19601f820116820180604052508101906151609190615967565b6000805160206165f38339815191529190612468565b606083156151e35782516000036151dc57615190856124be565b6151dc5760405162461bcd60e51b815260206004820152601d60248201527f416464726573733a2063616c6c20746f206e6f6e2d636f6e74726163740000006044820152606401610ac6565b50816122dd565b6122dd83838151156151f85781518083602001fd5b8060405162461bcd60e51b8152600401610ac69190615378565b803561ffff8116811461522457600080fd5b919050565b60008083601f84011261523b57600080fd5b5081356001600160401b0381111561525257600080fd5b60208301915083602082850101111561498b57600080fd5b80356001600160401b038116811461522457600080fd5b6000806000806000806080878903121561529a57600080fd5b6152a387615212565b955060208701356001600160401b03808211156152bf57600080fd5b6152cb8a838b01615229565b90975095508591506152df60408a0161526a565b945060608901359150808211156152f557600080fd5b5061530289828a01615229565b979a9699509497509295939492505050565b6001600160a01b0391909116815260200190565b60005b8381101561534357818101518382015260200161532b565b50506000910152565b60008151808452615364816020860160208601615328565b601f01601f19169290920160200192915050565b602081526000611037602083018461534c565b60006020828403121561539d57600080fd5b61103782615212565b600080604083850312156153b957600080fd5b6153c283615212565b946020939093013593505050565b6001600160a01b0381168114610c9f57600080fd5b6000602082840312156153f757600080fd5b8135611037816153d0565b600080600080600080600080610100898b03121561541f57600080fd5b883561542a816153d0565b9750602089013561543a816153d0565b9650604089013561544a816153d0565b9550606089013561545a816153d0565b945061546860808a01615212565b935061547660a08a01615212565b925060c0890135615486816153d0565b915060e0890135615496816153d0565b809150509295985092959890939650565b6001600160a01b03169052565b6000602082840312156154c657600080fd5b5035919050565b6000806000604084860312156154e257600080fd5b6154eb84615212565b925060208401356001600160401b0381111561550657600080fd5b61551286828701615229565b9497909650939450505050565b8015158114610c9f57600080fd5b60006020828403121561553f57600080fd5b81356110378161551f565b634e487b7160e01b600052604160045260246000fd5b604051602081016001600160401b03811182821017156155825761558261554a565b60405290565b604051601f8201601f191681016001600160401b03811182821017156155b0576155b061554a565b604052919050565b60006001600160401b038211156155d1576155d161554a565b50601f01601f191660200190565b600082601f8301126155f057600080fd5b81356156036155fe826155b8565b615588565b81815284602083860101111561561857600080fd5b816020850160208301376000918101602001919091529392505050565b600080600080600060a0868803121561564d57600080fd5b8535945060208601359350604086013592506060860135915060808601356001600160401b0381111561567f57600080fd5b61568b888289016155df565b9150509295509295909350565b6000806000606084860312156156ad57600080fd5b6156b684615212565b925060208401356001600160401b038111156156d157600080fd5b6156dd868287016155df565b9250506156ec6040850161526a565b90509250925092565b6000806040838503121561570857600080fd5b61571183615212565b915061571f60208401615212565b90509250929050565b60006060828403121561573a57600080fd5b604051606081016001600160401b038111828210171561575c5761575c61554a565b604052823561576a816153d0565b81526020838101359082015260408301356157848161551f565b60408201529392505050565b60008060008060008060c087890312156157a957600080fd5b6157b287615212565b955060208701356001600160401b03808211156157ce57600080fd5b6157da8a838b016155df565b965060408901359550606089013591506157f3826153d0565b9093506080880135925060a0880135908082111561581057600080fd5b5061581d89828a016155df565b9150509295509295509295565b60008060008060006080868803121561584257600080fd5b61584b86615212565b945061585960208701615212565b93506040860135925060608601356001600160401b0381111561587b57600080fd5b61588788828901615229565b969995985093965092949392505050565b6000806000606084860312156158ad57600080fd5b6158b684615212565b92506158c460208501615212565b9150604084013590509250925092565b600080600080608085870312156158ea57600080fd5b84356158f5816153d0565b93506020850135615905816153d0565b93969395505050506040820135916060013590565b6000806000806080858703121561593057600080fd5b61593985615212565b935061594760208601615212565b92506040850135615957816153d0565b9396929550929360600135925050565b60006020828403121561597957600080fd5b5051919050565b600181811c9082168061599457607f821691505b6020821081036159b457634e487b7160e01b600052602260045260246000fd5b50919050565b8183823760009101908152919050565b81835281816020850137506000828201602090810191909152601f909101601f19169091010190565b61ffff841681526040602082015260006122da6040830184866159ca565b634e487b7160e01b600052601160045260246000fd5b8181038181111561345057613450615a11565b8082018082111561345057613450615a11565b600060018201615a5f57615a5f615a11565b5060010190565b634e487b7160e01b600052602160045260246000fd5b60058110615a9a57634e487b7160e01b600052602160045260246000fd5b9052565b615aa88184615a7c565b60406020820152615abd6040820183516154a7565b6020820151606082015260408201516080820152606082015160a0820152608082015160c082015260a082015160e0820152600060c0830151610100818185015260e08501519150610120828186015281860151925061014091508282860152808601519250506101608281860152818601519250806101808601525050615b496101a084018261534c565b95945050505050565b8284823760609190911b6001600160601b0319169101908152601401919050565b601f821115611ace57600081815260208120601f850160051c81016020861015615b9a5750805b601f850160051c820191505b81811015610b4557828155600101615ba6565b600019600383901b1c191660019190911b1790565b81516001600160401b03811115615be757615be761554a565b615bfb81615bf58454615980565b84615b73565b602080601f831160018114615c2a5760008415615c185750858301515b615c228582615bb9565b865550610b45565b600085815260208120601f198616915b82811015615c5957888601518255948401946001909101908401615c3a565b5085821015615c775787850151600019600388901b60f8161c191681555b5050505050600190811b01905550565b60008251615c99818460208701615328565b9190910192915050565b805160208201516001600160601b03198082169291906014831015615cd25780818460140360031b1b83161693505b505050919050565b9182526001600160a01b0316602082015260400190565b600061ffff8088168352808716602084015250846040830152608060608301526147b56080830184866159ca565b61ffff86168152608060208201526000615d3d6080830186886159ca565b6001600160401b0394909416604083015250606001529392505050565b6001600160401b03831115615d7157615d7161554a565b615d8583615d7f8354615980565b83615b73565b6000601f841160018114615db35760008515615da15750838201355b615dab8682615bb9565b845550610bb3565b600083815260209020601f19861690835b82811015615de45786850135825560209485019460019092019101615dc4565b5086821015615e015760001960f88860031b161c19848701351681555b505060018560011b0183555050505050565b600060208284031215615e2557600080fd5b81516001600160401b03811115615e3b57600080fd5b8201601f81018413615e4c57600080fd5b8051615e5a6155fe826155b8565b818152856020838501011115615e6f57600080fd5b615b49826020830160208601615328565b61ffff85168152608060208201526000615e9d608083018661534c565b6001600160401b038516604084015282810360608401526147b5818561534c565b6001600160a01b03929092168252602082015260400190565b6020808252602b908201527f496e697469616c697a61626c653a20636f6e7472616374206973206e6f74206960408201526a6e697469616c697a696e6760a81b606082015260800190565b600060208284031215615f3457600080fd5b815160ff8116811461103757600080fd5b600060208284031215615f5757600080fd5b81516110378161551f565b600082615f7f57634e487b7160e01b600052601260045260246000fd5b500490565b602081526000825160806020840152615fa060a084018261534c565b905060018060a01b03602085015116604084015260408401516060840152606084015160808401528091505092915050565b600080600060608486031215615fe757600080fd5b8351925060208401519150604084015190509250925092565b61ffff841681526001600160a01b03831660208201526060604082018190526000906122da9083018461534c565b6001600160a01b0386811682526020820186905261ffff851660408301528316606082015260a0608082018190526000906147b59083018461534c565b61ffff861681526001600160a01b038516602082015260a0604082018190526000906160999083018661534c565b841515606084015282810360808401526160b3818561534c565b98975050505050505050565b600080604083850312156160d257600080fd5b505080516020909101519092909150565b61ffff8716815260c06020820152600061610060c083018861534c565b8281036040840152616112818861534c565b6001600160a01b0387811660608601528616608085015283810360a0850152905061613d818561534c565b9998505050505050505050565b808202811582820484141761345057613450615a11565b6001600160a01b039485168152929093166020830152604082015260ff909116606082015260800190565b6001600160a01b03948516815292909316602083015215156040820152606081019190915260800190565b61ffff8616815260a0602082015260006161d460a083018761534c565b6001600160401b038616604084015282810360608401526161f5818661534c565b905082810360808401526160b3818561534c565b60ff828116828216039081111561345057613450615a11565b600181815b8085111561625d57816000190482111561624357616243615a11565b8085161561625057918102915b93841c9390800290616227565b509250929050565b60008261627457506001613450565b8161628157506000613450565b816001811461629757600281146162a1576162bd565b6001915050613450565b60ff8411156162b2576162b2615a11565b50506001821b613450565b5060208310610133831016604e8410600b84101617156162e0575081810a613450565b6162ea8383616222565b80600019048211156162fe576162fe615a11565b029392505050565b600061103760ff841683616265565b634e487b7160e01b600052603260045260246000fd5b600060a0820187835260208781850152604060a08186015282885180855260c087019150838a01945060005b8181101561639457855180516001600160a01b03908116855286820151168685015284015115158484015294840194606090920191600101616357565b5050809450505050506163aa60608301856154a7565b8260808301529695505050505050565b600060208083850312156163cd57600080fd5b82516001600160401b03808211156163e457600080fd5b818501915085601f8301126163f857600080fd5b81518181111561640a5761640a61554a565b8060051b915061641b848301615588565b818152918301840191848101908884111561643557600080fd5b938501935b838510156160b35784518252938501939085019061643a565b60006020828403121561646557600080fd5b81516005811061103757600080fd5b600080828403604081121561648857600080fd5b835192506020601f198201121561649e57600080fd5b506164a7615560565b6020939093015183525092909150565b60008082840360608112156164cb57600080fd5b835192506040601f19820112156164e157600080fd5b50604080519081016001600160401b03811182821017156165045761650461554a565b60409081526020858101518352940151938101939093525092909150565b600080828403604081121561653657600080fd5b835192506020601f198201121561654c57600080fd5b50616555615560565b6020840151616563816153d0565b8152919491935090915050565b60a0810161657e8285615a7c565b60018060a01b038351166020830152602083015160408301526040830151606083015260608301516080830152939250505056fe000000000000000000000000cc25c0fd84737f44a7d38649b69491bbf0c7f08300000000000000000000000097bd59a8202f8263c2ec39cf6cf6b438d0b458760000000000000000000000007238390d5f6f64e67c3211c343a410e2a3dec142000000000000000000000000d17cb0f162f133e339c0bbfc18c36c357e681d6b00000000000000000000000040379a439d4f6795b6fc9aa5687db461677a2dbab0c58532a125fc3c0adccaef396bf65344a4d5781cec2e4c593e6b611d75f150a2646970667358221220126e89586dcde8d0e72af4b108b3ae1217a0f0ac5a3224f45d0702116261250a64736f6c63430008130033",
  "linkReferences": {
    "contracts/strategies/utils/PearlStrategyLib.sol": {
      "PearlStrategyLib": [
        {
          "length": 20,
          "start": 7785
        },
        {
          "length": 20,
          "start": 7811
        },
        {
          "length": 20,
          "start": 8066
        },
        {
          "length": 20,
          "start": 8195
        },
        {
          "length": 20,
          "start": 12196
        },
        {
          "length": 20,
          "start": 20274
        }
      ]
    }
  },
  "deployedLinkReferences": {
    "contracts/strategies/utils/PearlStrategyLib.sol": {
      "PearlStrategyLib": [
        {
          "length": 20,
          "start": 7752
        },
        {
          "length": 20,
          "start": 7778
        },
        {
          "length": 20,
          "start": 8033
        },
        {
          "length": 20,
          "start": 8162
        },
        {
          "length": 20,
          "start": 12163
        },
        {
          "length": 20,
          "start": 20241
        }
      ]
    }
  }
}