{
  "_format": "hh-sol-artifact-1",
  "contractName": "MockPearlStrategy",
  "sourceName": "contracts/mock/MockPearlStrategy.sol",
  "abi": [
    {
      "inputs": [
        {
          "internalType": "uint256",
          "name": "messageType",
          "type": "uint256"
        }
      ],
      "name": "IncorrectMessageType",
      "type": "error"
    },
    {
      "inputs": [
        {
          "internalType": "uint256",
          "name": "amount",
          "type": "uint256"
        },
        {
          "internalType": "uint256",
          "name": "balance",
          "type": "uint256"
        }
      ],
      "name": "InsufficientFunds",
      "type": "error"
    },
    {
      "anonymous": false,
      "inputs": [
        {
          "indexed": false,
          "internalType": "uint256",
          "name": "debtOutstanding",
          "type": "uint256"
        }
      ],
      "name": "AdjustedPosition",
      "type": "event"
    },
    {
      "anonymous": false,
      "inputs": [
        {
          "indexed": false,
          "internalType": "uint8",
          "name": "version",
          "type": "uint8"
        }
      ],
      "name": "Initialized",
      "type": "event"
    },
    {
      "anonymous": false,
      "inputs": [
        {
          "indexed": false,
          "internalType": "uint16",
          "name": "_srcChainId",
          "type": "uint16"
        },
        {
          "indexed": false,
          "internalType": "bytes",
          "name": "_srcAddress",
          "type": "bytes"
        },
        {
          "indexed": false,
          "internalType": "uint64",
          "name": "_nonce",
          "type": "uint64"
        },
        {
          "indexed": false,
          "internalType": "bytes",
          "name": "_payload",
          "type": "bytes"
        },
        {
          "indexed": false,
          "internalType": "bytes",
          "name": "_reason",
          "type": "bytes"
        }
      ],
      "name": "MessageFailed",
      "type": "event"
    },
    {
      "anonymous": false,
      "inputs": [
        {
          "indexed": true,
          "internalType": "address",
          "name": "previousOwner",
          "type": "address"
        },
        {
          "indexed": true,
          "internalType": "address",
          "name": "newOwner",
          "type": "address"
        }
      ],
      "name": "OwnershipTransferred",
      "type": "event"
    },
    {
      "anonymous": false,
      "inputs": [
        {
          "indexed": false,
          "internalType": "uint16",
          "name": "_srcChainId",
          "type": "uint16"
        },
        {
          "indexed": false,
          "internalType": "bytes",
          "name": "_srcAddress",
          "type": "bytes"
        },
        {
          "indexed": false,
          "internalType": "uint64",
          "name": "_nonce",
          "type": "uint64"
        },
        {
          "indexed": false,
          "internalType": "bytes32",
          "name": "_payloadHash",
          "type": "bytes32"
        }
      ],
      "name": "RetryMessageSuccess",
      "type": "event"
    },
    {
      "anonymous": false,
      "inputs": [
        {
          "indexed": false,
          "internalType": "uint16",
          "name": "_dstChainId",
          "type": "uint16"
        },
        {
          "indexed": false,
          "internalType": "uint16",
          "name": "_type",
          "type": "uint16"
        },
        {
          "indexed": false,
          "internalType": "uint256",
          "name": "_minDstGas",
          "type": "uint256"
        }
      ],
      "name": "SetMinDstGas",
      "type": "event"
    },
    {
      "anonymous": false,
      "inputs": [
        {
          "indexed": false,
          "internalType": "address",
          "name": "precrime",
          "type": "address"
        }
      ],
      "name": "SetPrecrime",
      "type": "event"
    },
    {
      "anonymous": false,
      "inputs": [
        {
          "indexed": false,
          "internalType": "uint16",
          "name": "_remoteChainId",
          "type": "uint16"
        },
        {
          "indexed": false,
          "internalType": "bytes",
          "name": "_path",
          "type": "bytes"
        }
      ],
      "name": "SetTrustedRemote",
      "type": "event"
    },
    {
      "anonymous": false,
      "inputs": [
        {
          "indexed": false,
          "internalType": "uint16",
          "name": "_remoteChainId",
          "type": "uint16"
        },
        {
          "indexed": false,
          "internalType": "bytes",
          "name": "_remoteAddress",
          "type": "bytes"
        }
      ],
      "name": "SetTrustedRemoteAddress",
      "type": "event"
    },
    {
      "anonymous": false,
      "inputs": [
        {
          "indexed": true,
          "internalType": "address",
          "name": "token",
          "type": "address"
        },
        {
          "indexed": false,
          "internalType": "uint256",
          "name": "amount",
          "type": "uint256"
        },
        {
          "indexed": false,
          "internalType": "address",
          "name": "sender",
          "type": "address"
        }
      ],
      "name": "SgReceived",
      "type": "event"
    },
    {
      "anonymous": false,
      "inputs": [
        {
          "indexed": false,
          "internalType": "address",
          "name": "newStrategy",
          "type": "address"
        }
      ],
      "name": "StrategyMigrated",
      "type": "event"
    },
    {
      "anonymous": false,
      "inputs": [
        {
          "indexed": false,
          "internalType": "uint256",
          "name": "profit",
          "type": "uint256"
        },
        {
          "indexed": false,
          "internalType": "uint256",
          "name": "loss",
          "type": "uint256"
        },
        {
          "indexed": false,
          "internalType": "uint256",
          "name": "debtPayment",
          "type": "uint256"
        },
        {
          "indexed": false,
          "internalType": "uint256",
          "name": "giveToStrategy",
          "type": "uint256"
        },
        {
          "indexed": false,
          "internalType": "uint256",
          "name": "requestFromStrategy",
          "type": "uint256"
        },
        {
          "indexed": false,
          "internalType": "uint256",
          "name": "creditAvailable",
          "type": "uint256"
        },
        {
          "indexed": false,
          "internalType": "uint256",
          "name": "totalAssets",
          "type": "uint256"
        }
      ],
      "name": "StrategyReported",
      "type": "event"
    },
    {
      "inputs": [],
      "name": "DEFAULT_PAYLOAD_SIZE_LIMIT",
      "outputs": [
        {
          "internalType": "uint256",
          "name": "",
          "type": "uint256"
        }
      ],
      "stateMutability": "view",
      "type": "function"
    },
    {
      "inputs": [],
      "name": "DEFAULT_SLIPPAGE",
      "outputs": [
        {
          "internalType": "uint256",
          "name": "",
          "type": "uint256"
        }
      ],
      "stateMutability": "view",
      "type": "function"
    },
    {
      "inputs": [
        {
          "internalType": "uint256",
          "name": "_debtOutstanding",
          "type": "uint256"
        }
      ],
      "name": "adjustPosition",
      "outputs": [],
      "stateMutability": "nonpayable",
      "type": "function"
    },
    {
      "inputs": [],
      "name": "balanceOfLpStaked",
      "outputs": [
        {
          "internalType": "uint256",
          "name": "",
          "type": "uint256"
        }
      ],
      "stateMutability": "view",
      "type": "function"
    },
    {
      "inputs": [],
      "name": "balanceOfPearlRewards",
      "outputs": [
        {
          "internalType": "uint256",
          "name": "",
          "type": "uint256"
        }
      ],
      "stateMutability": "view",
      "type": "function"
    },
    {
      "inputs": [],
      "name": "balanceOfWant",
      "outputs": [
        {
          "internalType": "uint256",
          "name": "",
          "type": "uint256"
        }
      ],
      "stateMutability": "view",
      "type": "function"
    },
    {
      "inputs": [
        {
          "internalType": "uint256",
          "name": "epoch",
          "type": "uint256"
        }
      ],
      "name": "callMe",
      "outputs": [],
      "stateMutability": "nonpayable",
      "type": "function"
    },
    {
      "inputs": [],
      "name": "clearWant",
      "outputs": [],
      "stateMutability": "nonpayable",
      "type": "function"
    },
    {
      "inputs": [],
      "name": "currentChainId",
      "outputs": [
        {
          "internalType": "uint16",
          "name": "",
          "type": "uint16"
        }
      ],
      "stateMutability": "view",
      "type": "function"
    },
    {
      "inputs": [
        {
          "internalType": "uint256",
          "name": "_daiAmount",
          "type": "uint256"
        }
      ],
      "name": "daiToWant",
      "outputs": [
        {
          "internalType": "uint256",
          "name": "",
          "type": "uint256"
        }
      ],
      "stateMutability": "view",
      "type": "function"
    },
    {
      "inputs": [],
      "name": "emergencyExit",
      "outputs": [
        {
          "internalType": "bool",
          "name": "",
          "type": "bool"
        }
      ],
      "stateMutability": "view",
      "type": "function"
    },
    {
      "inputs": [],
      "name": "estimatedTotalAssets",
      "outputs": [
        {
          "internalType": "uint256",
          "name": "",
          "type": "uint256"
        }
      ],
      "stateMutability": "view",
      "type": "function"
    },
    {
      "inputs": [
        {
          "internalType": "uint256",
          "name": "_stakedLpTokens",
          "type": "uint256"
        }
      ],
      "name": "exitPosition",
      "outputs": [],
      "stateMutability": "nonpayable",
      "type": "function"
    },
    {
      "inputs": [
        {
          "internalType": "uint16",
          "name": "",
          "type": "uint16"
        },
        {
          "internalType": "bytes",
          "name": "",
          "type": "bytes"
        },
        {
          "internalType": "uint64",
          "name": "",
          "type": "uint64"
        }
      ],
      "name": "failedMessages",
      "outputs": [
        {
          "internalType": "bytes32",
          "name": "",
          "type": "bytes32"
        }
      ],
      "stateMutability": "view",
      "type": "function"
    },
    {
      "inputs": [
        {
          "internalType": "uint16",
          "name": "_srcChainId",
          "type": "uint16"
        },
        {
          "internalType": "bytes",
          "name": "_srcAddress",
          "type": "bytes"
        }
      ],
      "name": "forceResumeReceive",
      "outputs": [],
      "stateMutability": "nonpayable",
      "type": "function"
    },
    {
      "inputs": [
        {
          "internalType": "uint16",
          "name": "_version",
          "type": "uint16"
        },
        {
          "internalType": "uint16",
          "name": "_chainId",
          "type": "uint16"
        },
        {
          "internalType": "address",
          "name": "",
          "type": "address"
        },
        {
          "internalType": "uint256",
          "name": "_configType",
          "type": "uint256"
        }
      ],
      "name": "getConfig",
      "outputs": [
        {
          "internalType": "bytes",
          "name": "",
          "type": "bytes"
        }
      ],
      "stateMutability": "view",
      "type": "function"
    },
    {
      "inputs": [
        {
          "internalType": "bytes32",
          "name": "_messageHash",
          "type": "bytes32"
        }
      ],
      "name": "getEthSignedMessageHash",
      "outputs": [
        {
          "internalType": "bytes32",
          "name": "",
          "type": "bytes32"
        }
      ],
      "stateMutability": "pure",
      "type": "function"
    },
    {
      "inputs": [
        {
          "internalType": "uint16",
          "name": "_remoteChainId",
          "type": "uint16"
        }
      ],
      "name": "getTrustedRemoteAddress",
      "outputs": [
        {
          "internalType": "bytes",
          "name": "",
          "type": "bytes"
        }
      ],
      "stateMutability": "view",
      "type": "function"
    },
    {
      "inputs": [
        {
          "internalType": "uint256",
          "name": "_totalDebt",
          "type": "uint256"
        },
        {
          "internalType": "uint256",
          "name": "_debtOutstanding",
          "type": "uint256"
        },
        {
          "internalType": "uint256",
          "name": "_creditAvailable",
          "type": "uint256"
        },
        {
          "internalType": "uint256",
          "name": "_debtRatio",
          "type": "uint256"
        },
        {
          "internalType": "bytes",
          "name": "_signature",
          "type": "bytes"
        }
      ],
      "name": "harvest",
      "outputs": [],
      "stateMutability": "nonpayable",
      "type": "function"
    },
    {
      "inputs": [
        {
          "internalType": "address",
          "name": "_lzEndpoint",
          "type": "address"
        },
        {
          "internalType": "address",
          "name": "_strategist",
          "type": "address"
        },
        {
          "internalType": "contract IERC20",
          "name": "_want",
          "type": "address"
        },
        {
          "internalType": "address",
          "name": "_vault",
          "type": "address"
        },
        {
          "internalType": "uint16",
          "name": "_vaultChainId",
          "type": "uint16"
        },
        {
          "internalType": "uint16",
          "name": "_currentChainId",
          "type": "uint16"
        },
        {
          "internalType": "address",
          "name": "_sgBridge",
          "type": "address"
        },
        {
          "internalType": "address",
          "name": "_router",
          "type": "address"
        }
      ],
      "name": "initialize",
      "outputs": [],
      "stateMutability": "nonpayable",
      "type": "function"
    },
    {
      "inputs": [
        {
          "internalType": "uint16",
          "name": "_srcChainId",
          "type": "uint16"
        },
        {
          "internalType": "bytes",
          "name": "_srcAddress",
          "type": "bytes"
        }
      ],
      "name": "isTrustedRemote",
      "outputs": [
        {
          "internalType": "bool",
          "name": "",
          "type": "bool"
        }
      ],
      "stateMutability": "view",
      "type": "function"
    },
    {
      "inputs": [],
      "name": "liquidateAllPositions",
      "outputs": [
        {
          "internalType": "uint256",
          "name": "",
          "type": "uint256"
        }
      ],
      "stateMutability": "nonpayable",
      "type": "function"
    },
    {
      "inputs": [
        {
          "internalType": "uint256",
          "name": "_amountNeeded",
          "type": "uint256"
        }
      ],
      "name": "liquidatePosition",
      "outputs": [],
      "stateMutability": "nonpayable",
      "type": "function"
    },
    {
      "inputs": [],
      "name": "lzEndpoint",
      "outputs": [
        {
          "internalType": "contract ILayerZeroEndpointUpgradeable",
          "name": "",
          "type": "address"
        }
      ],
      "stateMutability": "view",
      "type": "function"
    },
    {
      "inputs": [
        {
          "internalType": "uint16",
          "name": "_srcChainId",
          "type": "uint16"
        },
        {
          "internalType": "bytes",
          "name": "_srcAddress",
          "type": "bytes"
        },
        {
          "internalType": "uint64",
          "name": "_nonce",
          "type": "uint64"
        },
        {
          "internalType": "bytes",
          "name": "_payload",
          "type": "bytes"
        }
      ],
      "name": "lzReceive",
      "outputs": [],
      "stateMutability": "nonpayable",
      "type": "function"
    },
    {
      "inputs": [
        {
          "internalType": "uint16",
          "name": "",
          "type": "uint16"
        },
        {
          "internalType": "uint16",
          "name": "",
          "type": "uint16"
        }
      ],
      "name": "minDstGasLookup",
      "outputs": [
        {
          "internalType": "uint256",
          "name": "",
          "type": "uint256"
        }
      ],
      "stateMutability": "view",
      "type": "function"
    },
    {
      "inputs": [],
      "name": "name",
      "outputs": [
        {
          "internalType": "string",
          "name": "",
          "type": "string"
        }
      ],
      "stateMutability": "pure",
      "type": "function"
    },
    {
      "inputs": [
        {
          "internalType": "uint16",
          "name": "_srcChainId",
          "type": "uint16"
        },
        {
          "internalType": "bytes",
          "name": "_srcAddress",
          "type": "bytes"
        },
        {
          "internalType": "uint64",
          "name": "_nonce",
          "type": "uint64"
        },
        {
          "internalType": "bytes",
          "name": "_payload",
          "type": "bytes"
        }
      ],
      "name": "nonblockingLzReceive",
      "outputs": [],
      "stateMutability": "nonpayable",
      "type": "function"
    },
    {
      "inputs": [],
      "name": "owner",
      "outputs": [
        {
          "internalType": "address",
          "name": "",
          "type": "address"
        }
      ],
      "stateMutability": "view",
      "type": "function"
    },
    {
      "inputs": [
        {
          "internalType": "uint16",
          "name": "",
          "type": "uint16"
        }
      ],
      "name": "payloadSizeLimitLookup",
      "outputs": [
        {
          "internalType": "uint256",
          "name": "",
          "type": "uint256"
        }
      ],
      "stateMutability": "view",
      "type": "function"
    },
    {
      "inputs": [
        {
          "internalType": "uint256",
          "name": "_pearlAmount",
          "type": "uint256"
        }
      ],
      "name": "pearlToWant",
      "outputs": [
        {
          "internalType": "uint256",
          "name": "",
          "type": "uint256"
        }
      ],
      "stateMutability": "view",
      "type": "function"
    },
    {
      "inputs": [],
      "name": "precrime",
      "outputs": [
        {
          "internalType": "address",
          "name": "",
          "type": "address"
        }
      ],
      "stateMutability": "view",
      "type": "function"
    },
    {
      "inputs": [],
      "name": "renounceOwnership",
      "outputs": [],
      "stateMutability": "nonpayable",
      "type": "function"
    },
    {
      "inputs": [
        {
          "internalType": "uint16",
          "name": "_srcChainId",
          "type": "uint16"
        },
        {
          "internalType": "bytes",
          "name": "_srcAddress",
          "type": "bytes"
        },
        {
          "internalType": "uint64",
          "name": "_nonce",
          "type": "uint64"
        },
        {
          "internalType": "bytes",
          "name": "_payload",
          "type": "bytes"
        }
      ],
      "name": "retryMessage",
      "outputs": [],
      "stateMutability": "payable",
      "type": "function"
    },
    {
      "inputs": [],
      "name": "revokeFunds",
      "outputs": [],
      "stateMutability": "nonpayable",
      "type": "function"
    },
    {
      "inputs": [
        {
          "internalType": "uint256",
          "name": "_pearlAmount",
          "type": "uint256"
        }
      ],
      "name": "sellPearl",
      "outputs": [],
      "stateMutability": "nonpayable",
      "type": "function"
    },
    {
      "inputs": [
        {
          "internalType": "uint256",
          "name": "_usdrAmount",
          "type": "uint256"
        }
      ],
      "name": "sellUsdr",
      "outputs": [],
      "stateMutability": "nonpayable",
      "type": "function"
    },
    {
      "inputs": [
        {
          "internalType": "uint16",
          "name": "_version",
          "type": "uint16"
        },
        {
          "internalType": "uint16",
          "name": "_chainId",
          "type": "uint16"
        },
        {
          "internalType": "uint256",
          "name": "_configType",
          "type": "uint256"
        },
        {
          "internalType": "bytes",
          "name": "_config",
          "type": "bytes"
        }
      ],
      "name": "setConfig",
      "outputs": [],
      "stateMutability": "nonpayable",
      "type": "function"
    },
    {
      "inputs": [
        {
          "internalType": "bool",
          "name": "_emergencyExit",
          "type": "bool"
        }
      ],
      "name": "setEmergencyExit",
      "outputs": [],
      "stateMutability": "nonpayable",
      "type": "function"
    },
    {
      "inputs": [
        {
          "internalType": "uint16",
          "name": "_dstChainId",
          "type": "uint16"
        },
        {
          "internalType": "uint16",
          "name": "_packetType",
          "type": "uint16"
        },
        {
          "internalType": "uint256",
          "name": "_minGas",
          "type": "uint256"
        }
      ],
      "name": "setMinDstGas",
      "outputs": [],
      "stateMutability": "nonpayable",
      "type": "function"
    },
    {
      "inputs": [
        {
          "internalType": "uint16",
          "name": "_dstChainId",
          "type": "uint16"
        },
        {
          "internalType": "uint256",
          "name": "_size",
          "type": "uint256"
        }
      ],
      "name": "setPayloadSizeLimit",
      "outputs": [],
      "stateMutability": "nonpayable",
      "type": "function"
    },
    {
      "inputs": [
        {
          "internalType": "address",
          "name": "_precrime",
          "type": "address"
        }
      ],
      "name": "setPrecrime",
      "outputs": [],
      "stateMutability": "nonpayable",
      "type": "function"
    },
    {
      "inputs": [
        {
          "internalType": "uint16",
          "name": "_version",
          "type": "uint16"
        }
      ],
      "name": "setReceiveVersion",
      "outputs": [],
      "stateMutability": "nonpayable",
      "type": "function"
    },
    {
      "inputs": [
        {
          "internalType": "uint16",
          "name": "_version",
          "type": "uint16"
        }
      ],
      "name": "setSendVersion",
      "outputs": [],
      "stateMutability": "nonpayable",
      "type": "function"
    },
    {
      "inputs": [
        {
          "internalType": "uint256",
          "name": "_slippage",
          "type": "uint256"
        }
      ],
      "name": "setSlippage",
      "outputs": [],
      "stateMutability": "nonpayable",
      "type": "function"
    },
    {
      "inputs": [
        {
          "internalType": "address",
          "name": "_strategist",
          "type": "address"
        }
      ],
      "name": "setStrategist",
      "outputs": [],
      "stateMutability": "nonpayable",
      "type": "function"
    },
    {
      "inputs": [
        {
          "internalType": "uint16",
          "name": "_srcChainId",
          "type": "uint16"
        },
        {
          "internalType": "bytes",
          "name": "_path",
          "type": "bytes"
        }
      ],
      "name": "setTrustedRemote",
      "outputs": [],
      "stateMutability": "nonpayable",
      "type": "function"
    },
    {
      "inputs": [
        {
          "internalType": "uint16",
          "name": "_remoteChainId",
          "type": "uint16"
        },
        {
          "internalType": "bytes",
          "name": "_remoteAddress",
          "type": "bytes"
        }
      ],
      "name": "setTrustedRemoteAddress",
      "outputs": [],
      "stateMutability": "nonpayable",
      "type": "function"
    },
    {
      "inputs": [],
      "name": "sgBridge",
      "outputs": [
        {
          "internalType": "contract ISgBridge",
          "name": "",
          "type": "address"
        }
      ],
      "stateMutability": "view",
      "type": "function"
    },
    {
      "inputs": [
        {
          "internalType": "uint16",
          "name": "",
          "type": "uint16"
        },
        {
          "internalType": "bytes",
          "name": "_srcAddress",
          "type": "bytes"
        },
        {
          "internalType": "uint256",
          "name": "",
          "type": "uint256"
        },
        {
          "internalType": "address",
          "name": "_token",
          "type": "address"
        },
        {
          "internalType": "uint256",
          "name": "_amountLD",
          "type": "uint256"
        },
        {
          "internalType": "bytes",
          "name": "",
          "type": "bytes"
        }
      ],
      "name": "sgReceive",
      "outputs": [],
      "stateMutability": "nonpayable",
      "type": "function"
    },
    {
      "inputs": [],
      "name": "sgRouter",
      "outputs": [
        {
          "internalType": "contract IStargateRouter",
          "name": "",
          "type": "address"
        }
      ],
      "stateMutability": "view",
      "type": "function"
    },
    {
      "inputs": [],
      "name": "slippage",
      "outputs": [
        {
          "internalType": "uint256",
          "name": "",
          "type": "uint256"
        }
      ],
      "stateMutability": "view",
      "type": "function"
    },
    {
      "inputs": [],
      "name": "strategist",
      "outputs": [
        {
          "internalType": "address",
          "name": "",
          "type": "address"
        }
      ],
      "stateMutability": "view",
      "type": "function"
    },
    {
      "inputs": [],
      "name": "strategistSignMessageHash",
      "outputs": [
        {
          "internalType": "bytes32",
          "name": "",
          "type": "bytes32"
        }
      ],
      "stateMutability": "view",
      "type": "function"
    },
    {
      "inputs": [
        {
          "internalType": "contract IERC20",
          "name": "_token",
          "type": "address"
        }
      ],
      "name": "sweepToken",
      "outputs": [],
      "stateMutability": "nonpayable",
      "type": "function"
    },
    {
      "inputs": [
        {
          "internalType": "address",
          "name": "newOwner",
          "type": "address"
        }
      ],
      "name": "transferOwnership",
      "outputs": [],
      "stateMutability": "nonpayable",
      "type": "function"
    },
    {
      "inputs": [
        {
          "internalType": "uint16",
          "name": "",
          "type": "uint16"
        }
      ],
      "name": "trustedRemoteLookup",
      "outputs": [
        {
          "internalType": "bytes",
          "name": "",
          "type": "bytes"
        }
      ],
      "stateMutability": "view",
      "type": "function"
    },
    {
      "inputs": [
        {
          "internalType": "uint256",
          "name": "_usdrLpAmount",
          "type": "uint256"
        }
      ],
      "name": "usdrLpToWant",
      "outputs": [
        {
          "internalType": "uint256",
          "name": "",
          "type": "uint256"
        }
      ],
      "stateMutability": "view",
      "type": "function"
    },
    {
      "inputs": [],
      "name": "usdrToUsdcRate",
      "outputs": [
        {
          "internalType": "uint256",
          "name": "",
          "type": "uint256"
        }
      ],
      "stateMutability": "view",
      "type": "function"
    },
    {
      "inputs": [
        {
          "internalType": "uint256",
          "name": "_usdrAmount",
          "type": "uint256"
        }
      ],
      "name": "usdrToWant",
      "outputs": [
        {
          "internalType": "uint256",
          "name": "",
          "type": "uint256"
        }
      ],
      "stateMutability": "view",
      "type": "function"
    },
    {
      "inputs": [],
      "name": "vault",
      "outputs": [
        {
          "internalType": "address",
          "name": "",
          "type": "address"
        }
      ],
      "stateMutability": "view",
      "type": "function"
    },
    {
      "inputs": [],
      "name": "vaultChainId",
      "outputs": [
        {
          "internalType": "uint16",
          "name": "",
          "type": "uint16"
        }
      ],
      "stateMutability": "view",
      "type": "function"
    },
    {
      "inputs": [],
      "name": "want",
      "outputs": [
        {
          "internalType": "contract IERC20",
          "name": "",
          "type": "address"
        }
      ],
      "stateMutability": "view",
      "type": "function"
    },
    {
      "inputs": [],
      "name": "wantDecimals",
      "outputs": [
        {
          "internalType": "uint8",
          "name": "",
          "type": "uint8"
        }
      ],
      "stateMutability": "view",
      "type": "function"
    },
    {
      "inputs": [
        {
          "internalType": "uint256",
          "name": "_wantAmount",
          "type": "uint256"
        }
      ],
      "name": "wantToUsdrLp",
      "outputs": [
        {
          "internalType": "uint256",
          "name": "",
          "type": "uint256"
        }
      ],
      "stateMutability": "view",
      "type": "function"
    },
    {
      "inputs": [
        {
          "internalType": "uint256",
          "name": "_amountNeeded",
          "type": "uint256"
        }
      ],
      "name": "withdrawSome",
      "outputs": [],
      "stateMutability": "nonpayable",
      "type": "function"
    },
    {
      "stateMutability": "payable",
      "type": "receive"
    }
  ],
  "bytecode": "0x608060405234801561001057600080fd5b50615f8b80620000216000396000f3fe6080604052600436106102fc5760003560e01c80638f4508d01161018d5780638f4508d0146107a6578063950c8a74146107bb5780639589c990146107db5780639606647d146107fb5780639f38369a14610810578063a6c3d16514610830578063a879851014610850578063a9e5082414610866578063ab8236f314610886578063adf076e6146108a6578063ae9b051c146108d9578063b353aaa7146108f9578063baf3292d14610919578063bd79ac1314610939578063c1a3d44c14610959578063c44618341461096e578063c7b9d53014610984578063ca2e2835146109a4578063cbed8b9c146109b9578063cdddd4e5146109d9578063d1deba1f146109f9578063d56739ac14610a0c578063df2a5b3b14610a21578063e73620c314610a41578063e964404414610a61578063eb8d72b714610a81578063efbb5cb014610aa1578063f0fa55a914610ab6578063f2fde38b14610ad6578063f5ecbdbc14610af6578063fa54080114610b16578063fbfa77cf14610b36578063fcb988a414610b5657600080fd5b80621d3567146103085780630517cb761461032a57806306fdde031461036057806307e0db171461039f5780630df37483146103bf57806310ddb137146103df5780631be19560146103ff5780631cdb539f1461041f5780631f1fcd511461043f5780631fe4a6861461045f5780632d6068431461047f57806337fded91146104945780633d3ccc2f146104b95780633d8b38f6146104d95780633e032a3b146105095780633eae11121461052d5780633f1f4fa41461054d57806342d65a8d1461057a57806345ee07551461059a578063495f881e146105ba5780634a5f58d1146105da57806350bb4beb146105fa5780635641ec031461060f578063567ad85d14610629578063593178de1461065e5780635b8c41e61461067357806366ad5c8a146106c25780636cbadbfa146106e2578063715018a6146107045780637533d7881461071957806378dc9059146107395780638cfd8f5c146107595780638da5cb5b1461079157600080fd5b3661030357005b600080fd5b34801561031457600080fd5b50610328610323366004614c35565b610b76565b005b34801561033657600080fd5b5060ce5461034a906001600160a01b031681565b6040516103579190614cc8565b60405180910390f35b34801561036c57600080fd5b5060408051808201909152600d81526c506561726c537472617465677960981b60208201525b6040516103579190614d2c565b3480156103ab57600080fd5b506103286103ba366004614d3f565b610c5f565b3480156103cb57600080fd5b506103286103da366004614d5a565b610ccc565b3480156103eb57600080fd5b506103286103fa366004614d3f565b610ceb565b34801561040b57600080fd5b5061032861041a366004614d99565b610d27565b34801561042b57600080fd5b5061032861043a366004614db6565b610db4565b34801561044b57600080fd5b5060ca5461034a906001600160a01b031681565b34801561046b57600080fd5b5060c95461034a906001600160a01b031681565b34801561048b57600080fd5b50610328611018565b3480156104a057600080fd5b5060cd5461034a9061010090046001600160a01b031681565b3480156104c557600080fd5b506103286104d4366004614e68565b611059565b3480156104e557600080fd5b506104f96104f4366004614e81565b61108f565b6040519015158152602001610357565b34801561051557600080fd5b5061051f60cc5481565b604051908152602001610357565b34801561053957600080fd5b5061051f610548366004614e68565b61115c565b34801561055957600080fd5b5061051f610568366004614d3f565b60686020526000908152604090205481565b34801561058657600080fd5b50610328610595366004614e81565b6111ea565b3480156105a657600080fd5b506103286105b5366004614ee1565b61125d565b3480156105c657600080fd5b506103286105d5366004614fe9565b611278565b3480156105e657600080fd5b506103286105f5366004614e68565b61151c565b34801561060657600080fd5b5061051f611525565b34801561061b57600080fd5b5060cd546104f99060ff1681565b34801561063557600080fd5b5060cb5461064b90600160a01b900461ffff1681565b60405161ffff9091168152602001610357565b34801561066a57600080fd5b5061051f611534565b34801561067f57600080fd5b5061051f61068e36600461504c565b6097602090815260009384526040808520845180860184018051928152908401958401959095209452929052825290205481565b3480156106ce57600080fd5b506103286106dd366004614c35565b611592565b3480156106ee57600080fd5b5060cb5461064b90600160b01b900461ffff1681565b34801561071057600080fd5b50610328611666565b34801561072557600080fd5b50610392610734366004614d3f565b61167a565b34801561074557600080fd5b50610328610754366004614e68565b611714565b34801561076557600080fd5b5061051f6107743660046150a9565b606760209081526000928352604080842090915290825290205481565b34801561079d57600080fd5b5061034a61171d565b3480156107b257600080fd5b5061051f61172c565b3480156107c757600080fd5b5060695461034a906001600160a01b031681565b3480156107e757600080fd5b5061051f6107f6366004614e68565b6117a1565b34801561080757600080fd5b50610328611839565b34801561081c57600080fd5b5061039261082b366004614d3f565b6118cc565b34801561083c57600080fd5b5061032861084b366004614e81565b6119db565b34801561085c57600080fd5b5061051f61264881565b34801561087257600080fd5b5061051f610881366004614e68565b611a64565b34801561089257600080fd5b506103286108a13660046150dc565b611b1d565b3480156108b257600080fd5b5060cb546108c790600160c01b900460ff1681565b60405160ff9091168152602001610357565b3480156108e557600080fd5b506103286108f4366004614e68565b611c17565b34801561090557600080fd5b5060655461034a906001600160a01b031681565b34801561092557600080fd5b50610328610934366004614d99565b611c20565b34801561094557600080fd5b5061051f610954366004614e68565b611c73565b34801561096557600080fd5b5061051f611ccb565b34801561097a57600080fd5b5061051f61271081565b34801561099057600080fd5b5061032861099f366004614d99565b611cfc565b3480156109b057600080fd5b5061051f611d26565b3480156109c557600080fd5b506103286109d4366004615176565b611e0a565b3480156109e557600080fd5b506103286109f4366004614e68565b611e78565b610328610a07366004614c35565b611e86565b348015610a1857600080fd5b5061051f61209c565b348015610a2d57600080fd5b50610328610a3c3660046151e4565b6120ce565b348015610a4d57600080fd5b50610328610a5c366004614e68565b612180565b348015610a6d57600080fd5b50610328610a7c366004614e68565b6121a0565b348015610a8d57600080fd5b50610328610a9c366004614e81565b6121a9565b348015610aad57600080fd5b5061051f612203565b348015610ac257600080fd5b50610328610ad1366004614e68565b61231d565b348015610ae257600080fd5b50610328610af1366004614d99565b61232a565b348015610b0257600080fd5b50610392610b11366004615220565b6123a0565b348015610b2257600080fd5b5061051f610b31366004614e68565b612433565b348015610b4257600080fd5b5060cb5461034a906001600160a01b031681565b348015610b6257600080fd5b5061051f610b71366004614e68565b612485565b6065546001600160a01b03163314610be15760405162461bcd60e51b815260206004820152602360248201527f4261736553747261746567793a3a496e76616c6964456e64706f696e7443616c6044820152623632b960e91b60648201526084015b60405180910390fd5b610c578686868080601f01602080910402602001604051908101604052809392919081815260200183838082843760009201919091525050604080516020601f89018190048102820181019092528781528993509150879087908190840183828082843760009201919091525061252d92505050565b505050505050565b610c676125a6565b6065546040516307e0db1760e01b815261ffff831660048201526001600160a01b03909116906307e0db17906024015b600060405180830381600087803b158015610cb157600080fd5b505af1158015610cc5573d6000803e3d6000fd5b5050505050565b610cd46125a6565b61ffff909116600090815260686020526040902055565b610cf36125a6565b6065546040516310ddb13760e01b815261ffff831660048201526001600160a01b03909116906310ddb13790602401610c97565b610d2f612605565b610db133826001600160a01b03166370a08231306040518263ffffffff1660e01b8152600401610d5f9190614cc8565b602060405180830381865afa158015610d7c573d6000803e3d6000fd5b505050506040513d601f19601f82011682018060405250810190610da0919061526d565b6001600160a01b038416919061265e565b50565b600054610100900460ff1615808015610dd45750600054600160ff909116105b80610df55750610de3306126b4565b158015610df5575060005460ff166001145b610e585760405162461bcd60e51b815260206004820152602e60248201527f496e697469616c697a61626c653a20636f6e747261637420697320616c72656160448201526d191e481a5b9a5d1a585b1a5e995960921b6064820152608401610bd8565b6000805460ff191660011790558015610e7b576000805461ff0019166101001790555b610e8e89898989898989896126486126c3565b60ca54610ebb906001600160a01b03167368b3465833fb72a70ecdf485e0e4c7bd8665fc456000196128a2565b60ca54610ee2906001600160a01b0316600080516020615eb68339815191526000196128a2565b610f0b600080516020615f16833981519152600080516020615eb68339815191526000196128a2565b610f3a73d17cb0f162f133e339c0bbfc18c36c357e681d6b600080516020615ed68339815191526000196128a2565b610f6973d17cb0f162f133e339c0bbfc18c36c357e681d6b600080516020615eb68339815191526000196128a2565b610f9e738f3cf7ad23cd3cadbd9735aff958023239c6a06373195f7b233947d51f4c3b756ad41a5ddb34cebce06000196128a2565b610fc7600080516020615ef6833981519152600080516020615eb68339815191526000196128a2565b801561100d576000805461ff0019169055604051600181527f7f26b83ff96e1f2b6a682f133852f6798a09c465da95921460cefb38474024989060200160405180910390a15b505050505050505050565b611020612605565b60c9546040516001600160a01b03909116904780156108fc02916000818181858888f19350505050158015610db1573d6000803e3d6000fd5b611061612605565b61106a816129a6565b604051818152600080516020615f36833981519152906020015b60405180910390a150565b61ffff8316600090815260666020526040812080548291906110b090615286565b80601f01602080910402602001604051908101604052809291908181526020018280546110dc90615286565b80156111295780601f106110fe57610100808354040283529160200191611129565b820191906000526020600020905b81548152906001019060200180831161110c57829003601f168201915b5050505050905083836040516111409291906152c0565b60405180910390208180519060200120149150505b9392505050565b60006111e482600080516020615f168339815191526001600160a01b031663313ce5676040518163ffffffff1660e01b8152600401602060405180830381865afa1580156111ae573d6000803e3d6000fd5b505050506040513d601f19601f820116820180604052508101906111d291906152d0565b60cb54600160c01b900460ff166130c3565b92915050565b6111f26125a6565b6065546040516342d65a8d60e01b81526001600160a01b03909116906342d65a8d906112269086908690869060040161531c565b600060405180830381600087803b15801561124057600080fd5b505af1158015611254573d6000803e3d6000fd5b50505050505050565b611265612605565b60cd805460ff1916911515919091179055565b611280612605565b61128981613118565b60cd546000908190819060ff16156113355784156112e95760405162461bcd60e51b815260206004820152601e60248201527f4261736553747261746567793a3a44656274526174696f4e6f745a65726f00006044820152606401610bd8565b60006112f361319e565b90508781101561130e576113078189615350565b9250611323565b87811115611323576113208882615350565b93505b61132d8389615350565b915050611347565b61133f88886131e0565b919450925090505b60006113538285615363565b9050600080888310156113755761136a838a615350565b915060009050611386565b600091506113838984615350565b90505b6000604051806101600160405280306001600160a01b031681526020014281526020018881526020018781526020018681526020018481526020018381526020018b8152602001836113d6612203565b6113e09190615350565b815260200160d060008154809291906113f890615376565b909155508152602001899052905081156114585760cb5460405161145391849161ffff600160a01b830416916001600160a01b03169061143f9060029087906020016153c7565b6040516020818303038152906040526132d7565b611483565b61148360028260405160200161146f9291906153c7565b6040516020818303038152906040526133c5565b7fb983e09c034e9c52b5e547cb0589967992b97717733f580cc5ad0afcdc4b522b8160400151826060015183608001518460a001518560c001518660e001518761010001516040516115069796959493929190968752602087019590955260408601939093526060850191909152608084015260a083015260c082015260e00190565b60405180910390a1505050505050505050505050565b610db181613545565b600061152f61319e565b905090565b60d05460cb546040513060601b6001600160601b03191660208201526034810192909252600160b01b900460f01b6001600160f01b031916605482015260009060560160405160208183030381529060405280519060200120905090565b3330146115f05760405162461bcd60e51b815260206004820152602660248201527f4e6f6e626c6f636b696e674c7a4170703a2063616c6c6572206d7573742062656044820152650204c7a4170760d41b6064820152608401610bd8565b610c578686868080601f01602080910402602001604051908101604052809392919081815260200183838082843760009201919091525050604080516020601f8901819004810282018101909252878152899350915087908790819084018382808284376000920191909152506136dc92505050565b61166e6125a6565b61167860006137f2565b565b6066602052600090815260409020805461169390615286565b80601f01602080910402602001604051908101604052809291908181526020018280546116bf90615286565b801561170c5780601f106116e15761010080835404028352916020019161170c565b820191906000526020600020905b8154815290600101906020018083116116ef57829003601f168201915b505050505081565b610db181613844565b6033546001600160a01b031690565b6040516370a0823160e01b8152600090600080516020615ed6833981519152906370a0823190611760903090600401614cc8565b602060405180830381865afa15801561177d573d6000803e3d6000fd5b505050506040513d601f19601f8201168201806040525081019061152f919061526d565b6040516328bd9fc160e11b8152600090819073f68c20d6c50706f6c6bd8ee184382518c93b368c9063517b3f82906117ed90600080516020615ef6833981519152908790600401615472565b602060405180830381865afa15801561180a573d6000803e3d6000fd5b505050506040513d601f19601f8201168201806040525081019061182e919061526d565b90506111558161115c565b611841612605565b60ca546040516370a0823160e01b8152611678916001916001600160a01b03909116906370a0823190611878903090600401614cc8565b602060405180830381865afa158015611895573d6000803e3d6000fd5b505050506040513d601f19601f820116820180604052508101906118b9919061526d565b60ca546001600160a01b0316919061265e565b61ffff81166000908152606660205260408120805460609291906118ef90615286565b80601f016020809104026020016040519081016040528092919081815260200182805461191b90615286565b80156119685780601f1061193d57610100808354040283529160200191611968565b820191906000526020600020905b81548152906001019060200180831161194b57829003601f168201915b5050505050905080516000036119c05760405162461bcd60e51b815260206004820152601d60248201527f4c7a4170703a206e6f20747275737465642070617468207265636f72640000006044820152606401610bd8565b6111556000601483516119d39190615350565b839190613b38565b6119e36125a6565b8181306040516020016119f89392919061548b565b60408051601f1981840301815291815261ffff8516600090815260666020522090611a239082615507565b507f8c0400cfe2d1199b1a725c78960bcc2a344d869b80590d0f2bd005db15a572ce838383604051611a579392919061531c565b60405180910390a1505050565b60ca546040516310e1b98f60e21b815260009182918291600080516020615eb683398151915291634386e63c91611abe916001600160a01b0390911690600080516020615f16833981519152906001908a906004016155c0565b6040805180830381865afa158015611ada573d6000803e3d6000fd5b505050506040513d601f19601f82011682018060405250810190611afe91906155eb565b91509150611b0b8161115c565b611b159083615363565b949350505050565b60ce546001600160a01b0316331480611b45575060cd5461010090046001600160a01b031633145b611b905760405162461bcd60e51b815260206004820152601c60248201527b53674272696467653a3a526f757465724f724272696467654f6e6c7960201b6044820152606401610bd8565b6000611b9e86826014613b38565b604051602001611bae919061560f565b604051602081830303815290604052611bc69061562b565b60601c9050836001600160a01b03167f92073a89a07a000083eb8b2575fc15e7bb936efe55d00727d6942a796d7211a78483604051611c06929190615662565b60405180910390a250505050505050565b610db181613c45565b611c286125a6565b606980546001600160a01b0319166001600160a01b0383161790556040517f5db758e995a17ec1ad84bdef7e8c3293a0bd6179bcce400dff5d4c3d87db726b90611084908390614cc8565b60006111e482738f3cf7ad23cd3cadbd9735aff958023239c6a0636001600160a01b031663313ce5676040518163ffffffff1660e01b8152600401602060405180830381865afa1580156111ae573d6000803e3d6000fd5b60ca546040516370a0823160e01b81526000916001600160a01b0316906370a0823190611760903090600401614cc8565b611d046125a6565b60c980546001600160a01b0319166001600160a01b0392909216919091179055565b600080600073d17cb0f162f133e339c0bbfc18c36c357e681d6b6001600160a01b0316630902f1ac6040518163ffffffff1660e01b8152600401606060405180830381865afa158015611d7d573d6000803e3d6000fd5b505050506040513d601f19601f82011682018060405250810190611da19190615679565b5060ca549193509150600090611dd1908390600080516020615f16833981519152906001600160a01b0316613d2a565b60cb549091508190611dee90600160c01b900460ff16600a61578b565b611df8908561579a565b611e0291906157b1565b935050505090565b611e126125a6565b6065546040516332fb62e760e21b81526001600160a01b039091169063cbed8b9c90611e4a90889088908890889088906004016157d3565b600060405180830381600087803b158015611e6457600080fd5b505af115801561100d573d6000803e3d6000fd5b611e8181613e0c565b505050565b61ffff86166000908152609760205260408082209051611ea990889088906152c0565b90815260408051602092819003830190206001600160401b03871660009081529252902054905080611f295760405162461bcd60e51b815260206004820152602360248201527f4e6f6e626c6f636b696e674c7a4170703a206e6f2073746f726564206d65737360448201526261676560e81b6064820152608401610bd8565b808383604051611f3a9291906152c0565b604051809103902014611f995760405162461bcd60e51b815260206004820152602160248201527f4e6f6e626c6f636b696e674c7a4170703a20696e76616c6964207061796c6f616044820152601960fa1b6064820152608401610bd8565b61ffff87166000908152609760205260408082209051611fbc90899089906152c0565b90815260408051602092819003830181206001600160401b038916600090815290845282902093909355601f88018290048202830182019052868252612054918991899089908190840183828082843760009201919091525050604080516020601f8a018190048102820181019092528881528a9350915088908890819084018382808284376000920191909152506136dc92505050565b7fc264d91f3adc5588250e1551f547752ca0cfa8f6b530d243b9f9f4cab10ea8e5878787878560405161208b959493929190615801565b60405180910390a150505050505050565b6040516246613160e11b8152600090600080516020615ed683398151915290628cc26290611760903090600401614cc8565b6120d66125a6565b6000811161211e5760405162461bcd60e51b81526020600482015260156024820152744c7a4170703a20696e76616c6964206d696e47617360581b6044820152606401610bd8565b61ffff83811660008181526067602090815260408083209487168084529482529182902085905581519283528201929092529081018290527f9d5c7c0b934da8fefa9c7760c98383778a12dfbfc0c3b3106518f43fb9508ac090606001611a57565b6121886125a6565b600090815260cf60205260409020805460ff19169055565b610db181613f41565b6121b16125a6565b61ffff831660009081526066602052604090206121cf82848361583c565b507ffa41487ad5d6728f0b19276fa1eddc16558578f5109fc39d2dc33c3230470dab838383604051611a579392919061531c565b600061221061088161172c565b6040516370a0823160e01b815261229890600080516020615ef6833981519152906370a0823190612245903090600401614cc8565b602060405180830381865afa158015612262573d6000803e3d6000fd5b505050506040513d601f19601f82011682018060405250810190612286919061526d565b61228e61209c565b6107f69190615363565b60ca546040516370a0823160e01b81526001600160a01b03909116906370a08231906122c8903090600401614cc8565b602060405180830381865afa1580156122e5573d6000803e3d6000fd5b505050506040513d601f19601f82011682018060405250810190612309919061526d565b6123139190615363565b61152f9190615363565b612325612605565b60cc55565b6123326125a6565b6001600160a01b0381166123975760405162461bcd60e51b815260206004820152602660248201527f4f776e61626c653a206e6577206f776e657220697320746865207a65726f206160448201526564647265737360d01b6064820152608401610bd8565b610db1816137f2565b606554604051633d7b2f6f60e21b815261ffff808716600483015285166024820152306044820152606481018390526060916001600160a01b03169063f5ecbdbc90608401600060405180830381865afa158015612402573d6000803e3d6000fd5b505050506040513d6000823e601f3d908101601f1916820160405261242a91908101906158f5565b95945050505050565b6040517b0ca2ba3432b932bab69029b4b3b732b21026b2b9b9b0b3b29d05199960211b6020820152603c8101829052600090605c01604051602081830303815290604052805190602001209050919050565b60ca546040516326283ecf60e21b81526000918291600080516020615eb6833981519152916398a0fb3c916124df916001600160a01b031690600080516020615f1683398151915290600190899060001990600401615962565b606060405180830381865afa1580156124fc573d6000803e3d6000fd5b505050506040513d601f19601f820116820180604052508101906125209190615679565b9250505061115581611a64565b6000806125905a60966366ad5c8a60e01b898989896040516024016125559493929190615993565b60408051601f198184030181529190526020810180516001600160e01b03166001600160e01b0319909316929092179091523092919061401d565b9150915081610c5757610c5786868686856140a9565b336125af61171d565b6001600160a01b0316146116785760405162461bcd60e51b815260206004820181905260248201527f4f776e61626c653a2063616c6c6572206973206e6f7420746865206f776e65726044820152606401610bd8565b60c9546001600160a01b031633146116785760405162461bcd60e51b815260206004820152601c60248201527b10985cd954dd1c985d1959de4e8e93db9b1e54dd1c985d1959da5cdd60221b6044820152606401610bd8565b611e818363a9059cbb60e01b848460405160240161267d929190615472565b60408051601f198184030181529190526020810180516001600160e01b03166001600160e01b031990931692909217909152614146565b6001600160a01b03163b151590565b600054610100900460ff166126ea5760405162461bcd60e51b8152600401610bd8906159d1565b6126f38961421b565b60c980546001600160a01b03808b166001600160a01b03199283161790925560ca80548a8416908316811790915560cb8054938a1661ffff8a16600160a01b029093166001600160b01b0319909416939093179190911790915560cc8290556040805163313ce56760e01b8152905163313ce567916004808201926020929091908290030181865afa15801561278d573d6000803e3d6000fd5b505050506040513d601f19601f820116820180604052508101906127b191906152d0565b60cb8054600060d05562ffffff60b01b1916600160c01b60ff939093169290920261ffff60b01b191691909117600160b01b61ffff87160217905560cd8054610100600160a81b0319166101006001600160a01b03868116919091029190911790915560ce80546001600160a01b03191684831617905560ca5460405163095ea7b360e01b815291169063095ea7b39061285390869060001990600401615472565b6020604051808303816000875af1158015612872573d6000803e3d6000fd5b505050506040513d601f19601f820116820180604052508101906128969190615a1c565b50505050505050505050565b80158061291c5750604051636eb1769f60e11b81523060048201526001600160a01b03838116602483015284169063dd62ed3e90604401602060405180830381865afa1580156128f6573d6000803e3d6000fd5b505050506040513d601f19601f8201168201806040525081019061291a919061526d565b155b6129875760405162461bcd60e51b815260206004820152603660248201527f5361666545524332303a20617070726f76652066726f6d206e6f6e2d7a65726f60448201527520746f206e6f6e2d7a65726f20616c6c6f77616e636560501b6064820152608401610bd8565b611e818363095ea7b360e01b848460405160240161267d929190615472565b600080516020615ed68339815191526001600160a01b0316633d18b9126040518163ffffffff1660e01b8152600401600060405180830381600087803b1580156129ef57600080fd5b505af1158015612a03573d6000803e3d6000fd5b50506040516370a0823160e01b8152612a829250600080516020615ef683398151915291506370a0823190612a3c903090600401614cc8565b602060405180830381865afa158015612a59573d6000803e3d6000fd5b505050506040513d601f19601f82011682018060405250810190612a7d919061526d565b613545565b60ca546040516370a0823160e01b81526000916001600160a01b0316906370a0823190612ab3903090600401614cc8565b602060405180830381865afa158015612ad0573d6000803e3d6000fd5b505050506040513d601f19601f82011682018060405250810190612af4919061526d565b905081811115612ca9576000612b0a8383615350565b90506000612b196002836157b1565b90506000612bac8260cb60189054906101000a900460ff16738f3cf7ad23cd3cadbd9735aff958023239c6a0636001600160a01b031663313ce5676040518163ffffffff1660e01b8152600401602060405180830381865afa158015612b83573d6000803e3d6000fd5b505050506040513d601f19601f82011682018060405250810190612ba791906152d0565b6130c3565b6040805160808101825260ca546001600160601b0319606091821b1660a0830152601960ea1b60b4830152738f3cf7ad23cd3cadbd9735aff958023239c6a06360601b60b7830152825160ab81840301815260cb830184528252306020830152918101859052919250600091908101612c2484614253565b905260405163b858183f60e01b81529091507368b3465833fb72a70ecdf485e0e4c7bd8665fc459063b858183f90612c60908490600401615a39565b6020604051808303816000875af1158015612c7f573d6000803e3d6000fd5b505050506040513d601f19601f82011682018060405250810190612ca3919061526d565b50505050505b6040516370a0823160e01b8152600090738f3cf7ad23cd3cadbd9735aff958023239c6a063906370a0823190612ce3903090600401614cc8565b602060405180830381865afa158015612d00573d6000803e3d6000fd5b505050506040513d601f19601f82011682018060405250810190612d24919061526d565b90508015612daa5760405163a39fc2c560e01b815273195f7b233947d51f4c3b756ad41a5ddb34cebce09063a39fc2c590612d659084903090600401615662565b6020604051808303816000875af1158015612d84573d6000803e3d6000fd5b505050506040513d601f19601f82011682018060405250810190612da8919061526d565b505b6040516370a0823160e01b8152600090600080516020615f16833981519152906370a0823190612dde903090600401614cc8565b602060405180830381865afa158015612dfb573d6000803e3d6000fd5b505050506040513d601f19601f82011682018060405250810190612e1f919061526d565b60ca546040516370a0823160e01b81529192506001600160a01b0316906370a0823190612e50903090600401614cc8565b602060405180830381865afa158015612e6d573d6000803e3d6000fd5b505050506040513d601f19601f82011682018060405250810190612e91919061526d565b9250600081118015612ea35750600083115b1561300e5760ca546040516326283ecf60e21b81526000918291600080516020615eb6833981519152916398a0fb3c91612f00916001600160a01b031690600080516020615f16833981519152906001908b908a90600401615962565b606060405180830381865afa158015612f1d573d6000803e3d6000fd5b505050506040513d601f19601f82011682018060405250810190612f419190615679565b5060ca54604051635a47ddc360e01b81526001600160a01b039091166004820152600080516020615f168339815191526024820152600160448201819052606482018490526084820183905260a4820181905260c48201523060e4820152426101048201529193509150600080516020615eb683398151915290635a47ddc390610124016060604051808303816000875af1158015612fe4573d6000803e3d6000fd5b505050506040513d601f19601f820116820180604052508101906130089190615679565b50505050505b6040516370a0823160e01b815260009073d17cb0f162f133e339c0bbfc18c36c357e681d6b906370a0823190613048903090600401614cc8565b602060405180830381865afa158015613065573d6000803e3d6000fd5b505050506040513d601f19601f82011682018060405250810190613089919061526d565b90508015610cc55760405163b6b55f2560e01b815260048101829052600080516020615ed68339815191529063b6b55f2590602401611e4a565b60008260ff168260ff1611156130f9576130dd8383615a87565b6130e890600a61578b565b6130f2908561579a565b9050611155565b6131038284615a87565b61310e90600a61578b565b6130f290856157b1565b6000613122611534565b9050600061312f82612433565b60c9549091506001600160a01b03166131488285614270565b6001600160a01b031614611e815760405162461bcd60e51b815260206004820152601e60248201527f4261736553747261746567793a3a496e76616c69645369676e617475726500006044820152606401610bd8565b60006131b06131ab61172c565b613844565b60ca546040516370a0823160e01b81526001600160a01b03909116906370a0823190611760903090600401614cc8565b6000806000806131ee612203565b905085811061320c576132018682615350565b93506000925061321d565b6000935061321a8187615350565b92505b61322f61322a8587615363565b613e0c565b505060ca546040516370a0823160e01b81526000916001600160a01b0316906370a0823190613262903090600401614cc8565b602060405180830381865afa15801561327f573d6000803e3d6000fd5b505050506040513d601f19601f820116820180604052508101906132a3919061526d565b90508481116132b857809450600092506132ce565b6132cb6132c58683615350565b87614294565b92505b50509250925092565b60cd54604051630dc6346160e01b815260009161010090046001600160a01b031690630dc634619061331190879087908790600401615aa0565b602060405180830381865afa15801561332e573d6000803e3d6000fd5b505050506040513d601f19601f82011682018060405250810190613352919061526d565b60cd5460ca54604051633920455b60e11b81529293506001600160a01b036101009092048216926372408ab6928592613398929116908a908a908a908a90600401615ace565b6000604051808303818588803b1580156133b157600080fd5b505af1158015612896573d6000803e3d6000fd5b60cb5460408051606083811b6001600160601b03199081166020840152309182901b16603483015282516028818403018152604890920190925260655490926000926001600160a01b03909216916340a7bb109161ffff600160a01b909104169086856134306142aa565b6040518663ffffffff1660e01b8152600401613450959493929190615b0b565b6040805180830381865afa15801561346c573d6000803e3d6000fd5b505050506040513d601f19601f8201168201806040525081019061349091906155eb565b509050804710156134bc5760405162fae2d560e21b815260048101829052476024820152604401610bd8565b60655460cb546001600160a01b039091169063c5803100908390600160a01b900461ffff16858730806134ed6142aa565b6040518863ffffffff1660e01b815260040161350e96959493929190615b5f565b6000604051808303818588803b15801561352757600080fd5b505af115801561353b573d6000803e3d6000fd5b5050505050505050565b806000036135505750565b60408051600280825260608201909252600091816020015b604080516060810182526000808252602080830182905292820152825260001990920191018161356857505060408051606081018252600080516020615ef68339815191528152600080516020615f16833981519152602082015260009181018290528251929350918391906135e0576135e0615bc6565b60209081029190910181019190915260408051606081018252600080516020615f16833981519152815260ca546001600160a01b03169281019290925260019082018190528251839190811061363857613638615bc6565b6020026020010181905250600061364e836117a1565b9050600080516020615eb683398151915263f41766d88461366e84614253565b8530426040518663ffffffff1660e01b8152600401613691959493929190615bdc565b6000604051808303816000875af19250505080156136d157506040513d6000823e601f3d908101601f191682016040526136ce9190810190615c6b565b60015b15611e815750505050565b60cb5461ffff858116600160a01b90920416146137465760405162461bcd60e51b815260206004820152602260248201527f4261736553747261746567793a3a5661756c74436861696e49644d69736d61746044820152610c6d60f31b6064820152608401610bd8565b600061375484826014613b38565b604051602001613764919061560f565b60405160208183030381529060405261377c9061562b565b60cb5460609190911c91506001600160a01b031681146137e95760405162461bcd60e51b815260206004820152602260248201527f4261736553747261746567793a3a5661756c74416464726573734d69736d61746044820152610c6d60f31b6064820152608401610bd8565b610cc5826142da565b603380546001600160a01b038381166001600160a01b0319831681179093556040519116919082907f8be0079c531659141344cd1fd0a4f28419497f9722a3daafe3b4186f6b6457e090600090a35050565b600080516020615ed68339815191526001600160a01b0316633d18b9126040518163ffffffff1660e01b8152600401600060405180830381600087803b15801561388d57600080fd5b505af11580156138a1573d6000803e3d6000fd5b50506040516370a0823160e01b81526138da9250600080516020615ef683398151915291506370a0823190612a3c903090600401614cc8565b806000036138e55750565b604051632e1a7d4d60e01b815260048101829052600080516020615ed683398151915290632e1a7d4d90602401600060405180830381600087803b15801561392c57600080fd5b505af1158015613940573d6000803e3d6000fd5b505060ca546040516310e1b98f60e21b815260009350839250600080516020615eb683398151915291634386e63c9161399a916001600160a01b031690600080516020615f168339815191529060019089906004016155c0565b6040805180830381865afa1580156139b6573d6000803e3d6000fd5b505050506040513d601f19601f820116820180604052508101906139da91906155eb565b60ca549193509150600080516020615eb683398151915290630dede6c4906001600160a01b0316600080516020615f16833981519152600187613a1c88614253565b613a2588614253565b6040516001600160e01b031960e089901b1681526001600160a01b03968716600482015295909416602486015291151560448501526064840152608483015260a48201523060c48201524260e48201526101040160408051808303816000875af1158015613a97573d6000803e3d6000fd5b505050506040513d601f19601f82011682018060405250810190613abb91906155eb565b50506040516370a0823160e01b8152611e8190600080516020615f16833981519152906370a0823190613af2903090600401614cc8565b602060405180830381865afa158015613b0f573d6000803e3d6000fd5b505050506040513d601f19601f82011682018060405250810190613b33919061526d565b613f41565b606081613b4681601f615363565b1015613b855760405162461bcd60e51b815260206004820152600e60248201526d736c6963655f6f766572666c6f7760901b6044820152606401610bd8565b613b8f8284615363565b84511015613bd35760405162461bcd60e51b8152602060048201526011602482015270736c6963655f6f75744f66426f756e647360781b6044820152606401610bd8565b606082158015613bf25760405191506000825260208201604052613c3c565b6040519150601f8416801560200281840101858101878315602002848b0101015b81831015613c2b578051835260209283019201613c13565b5050858452601f01601f1916604052505b50949350505050565b80600003613c505750565b6000613c5d6107f661209c565b9050818110613d0057600080516020615ed68339815191526001600160a01b0316633d18b9126040518163ffffffff1660e01b8152600401600060405180830381600087803b158015613caf57600080fd5b505af1158015613cc3573d6000803e3d6000fd5b50506040516370a0823160e01b8152613cfc9250600080516020615ef683398151915291506370a0823190612a3c903090600401614cc8565b5050565b6000613d1f613d12610b718486615350565b613d1a61172c565b614294565b9050611e8181613844565b600080836001600160a01b031663313ce5676040518163ffffffff1660e01b8152600401602060405180830381865afa158015613d6b573d6000803e3d6000fd5b505050506040513d601f19601f82011682018060405250810190613d8f91906152d0565b90506000836001600160a01b031663313ce5676040518163ffffffff1660e01b8152600401602060405180830381865afa158015613dd1573d6000803e3d6000fd5b505050506040513d601f19601f82011682018060405250810190613df591906152d0565b9050613e028683836130c3565b9695505050505050565b60ca546040516370a0823160e01b8152600091829182916001600160a01b0316906370a0823190613e41903090600401614cc8565b602060405180830381865afa158015613e5e573d6000803e3d6000fd5b505050506040513d601f19601f82011682018060405250810190613e82919061526d565b9050838110613e9657509192600092509050565b613ea8613ea38286615350565b613c45565b60ca546040516370a0823160e01b81526001600160a01b03909116906370a0823190613ed8903090600401614cc8565b602060405180830381865afa158015613ef5573d6000803e3d6000fd5b505050506040513d601f19601f82011682018060405250810190613f19919061526d565b905080841115613f3757915081613f308185615350565b9150613f3b565b8392505b50915091565b80600003613f4c5750565b6000613f578261115c565b9050600080516020615eb68339815191526313dcfc5983613f7784614253565b60ca5460405160e085901b6001600160e01b031916815260048101939093526024830191909152600080516020615f1683398151915260448301526001600160a01b03166064820152600160848201523060a48201524260c482015260e4016000604051808303816000875af1158015613ff5573d6000803e3d6000fd5b505050506040513d6000823e601f3d908101601f19168201604052611e819190810190615c6b565b6000606060008060008661ffff166001600160401b0381111561404257614042614efe565b6040519080825280601f01601f19166020018201604052801561406c576020820181803683370190505b50905060008087516020890160008d8df191503d92508683111561408e578692505b828152826000602083013e9093509150505b94509492505050565b8180519060200120609760008761ffff1661ffff168152602001908152602001600020856040516140da919061560f565b9081526040805191829003602090810183206001600160401b0388166000908152915220919091557fe183f33de2837795525b4792ca4cd60535bd77c53b7e7030060bfcf5734d6b0c906141379087908790879087908790615d04565b60405180910390a15050505050565b600061419b826040518060400160405280602081526020017f5361666545524332303a206c6f772d6c6576656c2063616c6c206661696c6564815250856001600160a01b03166143fb9092919063ffffffff16565b90508051600014806141bc5750808060200190518101906141bc9190615a1c565b611e815760405162461bcd60e51b815260206004820152602a60248201527f5361666545524332303a204552433230206f7065726174696f6e20646964206e6044820152691bdd081cdd58d8d9595960b21b6064820152608401610bd8565b600054610100900460ff166142425760405162461bcd60e51b8152600401610bd8906159d1565b61424a61440a565b610db18161443a565b600061271060cc5483614266919061579a565b6111e491906157b1565b600080600061427f8585614483565b9150915061428c816144c8565b509392505050565b60008183106142a35781611155565b5090919050565b60408051600160f01b6020820152620f424060228083019190915282518083039091018152604290910190915290565b6000818060200190518101906142f09190615d56565b905060038160048111156143065761430661538f565b03614351576000828060200190518101906143219190615d77565b91505061433181600001516129a6565b8051604051908152600080516020615f3683398151915290602001611a57565b60008160048111156143655761436561538f565b0361438c576000828060200190518101906143809190615dba565b915050611e818161460d565b60048160048111156143a0576143a061538f565b03613cfc576000828060200190518101906143bb9190615e25565b9150506143cb8160000151614737565b80516040517f7c9a2d2ec51230d7dbed27f113a325b7e20aef7b049e68b2339257b5edff5bea91611a5791614cc8565b6060611b158484600085614776565b600054610100900460ff166144315760405162461bcd60e51b8152600401610bd8906159d1565b611678336137f2565b600054610100900460ff166144615760405162461bcd60e51b8152600401610bd8906159d1565b606580546001600160a01b0319166001600160a01b0392909216919091179055565b60008082516041036144b95760208301516040840151606085015160001a6144ad87828585614851565b945094505050506144c1565b506000905060025b9250929050565b60008160048111156144dc576144dc61538f565b036144e45750565b60018160048111156144f8576144f861538f565b036145405760405162461bcd60e51b815260206004820152601860248201527745434453413a20696e76616c6964207369676e617475726560401b6044820152606401610bd8565b60028160048111156145545761455461538f565b036145a15760405162461bcd60e51b815260206004820152601f60248201527f45434453413a20696e76616c6964207369676e6174757265206c656e677468006044820152606401610bd8565b60038160048111156145b5576145b561538f565b03610db15760405162461bcd60e51b815260206004820152602260248201527f45434453413a20696e76616c6964207369676e6174757265202773272076616c604482015261756560f01b6064820152608401610bd8565b602080820151600090815260cf909152604090205460ff16156146725760405162461bcd60e51b815260206004820152601e60248201527f4261736553747261746567793a3a416c726561647957697468647261776e00006044820152606401610bd8565b6000806146828360000151613e0c565b91509150600060016040518060800160405280306001600160a01b0316815260200185815260200184815260200186602001518152506040516020016146c9929190615e73565b60408051601f198184030181529190529050821561470a5760cb5461470590849061ffff600160a01b820416906001600160a01b0316846132d7565b614713565b614713816133c5565b505050602090810151600090815260cf90915260409020805460ff19166001179055565b61474081614908565b60ca546040516370a0823160e01b8152610db19183916001600160a01b03909116906370a0823190611878903090600401614cc8565b6060824710156147d75760405162461bcd60e51b815260206004820152602660248201527f416464726573733a20696e73756666696369656e742062616c616e636520666f6044820152651c8818d85b1b60d21b6064820152608401610bd8565b600080866001600160a01b031685876040516147f3919061560f565b60006040518083038185875af1925050503d8060008114614830576040519150601f19603f3d011682016040523d82523d6000602084013e614835565b606091505b509150915061484687838387614b2a565b979650505050505050565b6000806fa2a8918ca85bafe22016d0b997e4df60600160ff1b0383111561487e57506000905060036140a0565b6040805160008082526020820180845289905260ff881692820192909252606081018690526080810185905260019060a0016020604051602081039080840390855afa1580156148d2573d6000803e3d6000fd5b5050604051601f1901519150506001600160a01b0381166148fb576000600192509250506140a0565b9660009650945050505050565b600080516020615ed6833981519152632e1a7d4d61492461172c565b6040518263ffffffff1660e01b815260040161494291815260200190565b600060405180830381600087803b15801561495c57600080fd5b505af1158015614970573d6000803e3d6000fd5b50506040516370a0823160e01b8152614a0e925083915073d17cb0f162f133e339c0bbfc18c36c357e681d6b906370a08231906149b1903090600401614cc8565b602060405180830381865afa1580156149ce573d6000803e3d6000fd5b505050506040513d601f19601f820116820180604052508101906149f2919061526d565b73d17cb0f162f133e339c0bbfc18c36c357e681d6b919061265e565b6040516370a0823160e01b8152614a9c908290600080516020615f16833981519152906370a0823190614a45903090600401614cc8565b602060405180830381865afa158015614a62573d6000803e3d6000fd5b505050506040513d601f19601f82011682018060405250810190614a86919061526d565b600080516020615f16833981519152919061265e565b6040516370a0823160e01b8152610db1908290600080516020615ef6833981519152906370a0823190614ad3903090600401614cc8565b602060405180830381865afa158015614af0573d6000803e3d6000fd5b505050506040513d601f19601f82011682018060405250810190614b14919061526d565b600080516020615ef6833981519152919061265e565b60608315614b97578251600003614b9057614b44856126b4565b614b905760405162461bcd60e51b815260206004820152601d60248201527f416464726573733a2063616c6c20746f206e6f6e2d636f6e74726163740000006044820152606401610bd8565b5081611b15565b611b158383815115614bac5781518083602001fd5b8060405162461bcd60e51b8152600401610bd89190614d2c565b803561ffff81168114614bd857600080fd5b919050565b60008083601f840112614bef57600080fd5b5081356001600160401b03811115614c0657600080fd5b6020830191508360208285010111156144c157600080fd5b80356001600160401b0381168114614bd857600080fd5b60008060008060008060808789031215614c4e57600080fd5b614c5787614bc6565b955060208701356001600160401b0380821115614c7357600080fd5b614c7f8a838b01614bdd565b9097509550859150614c9360408a01614c1e565b94506060890135915080821115614ca957600080fd5b50614cb689828a01614bdd565b979a9699509497509295939492505050565b6001600160a01b0391909116815260200190565b60005b83811015614cf7578181015183820152602001614cdf565b50506000910152565b60008151808452614d18816020860160208601614cdc565b601f01601f19169290920160200192915050565b6020815260006111556020830184614d00565b600060208284031215614d5157600080fd5b61115582614bc6565b60008060408385031215614d6d57600080fd5b614d7683614bc6565b946020939093013593505050565b6001600160a01b0381168114610db157600080fd5b600060208284031215614dab57600080fd5b813561115581614d84565b600080600080600080600080610100898b031215614dd357600080fd5b8835614dde81614d84565b97506020890135614dee81614d84565b96506040890135614dfe81614d84565b95506060890135614e0e81614d84565b9450614e1c60808a01614bc6565b9350614e2a60a08a01614bc6565b925060c0890135614e3a81614d84565b915060e0890135614e4a81614d84565b809150509295985092959890939650565b6001600160a01b03169052565b600060208284031215614e7a57600080fd5b5035919050565b600080600060408486031215614e9657600080fd5b614e9f84614bc6565b925060208401356001600160401b03811115614eba57600080fd5b614ec686828701614bdd565b9497909650939450505050565b8015158114610db157600080fd5b600060208284031215614ef357600080fd5b813561115581614ed3565b634e487b7160e01b600052604160045260246000fd5b604051602081016001600160401b0381118282101715614f3657614f36614efe565b60405290565b604051601f8201601f191681016001600160401b0381118282101715614f6457614f64614efe565b604052919050565b60006001600160401b03821115614f8557614f85614efe565b50601f01601f191660200190565b600082601f830112614fa457600080fd5b8135614fb7614fb282614f6c565b614f3c565b818152846020838601011115614fcc57600080fd5b816020850160208301376000918101602001919091529392505050565b600080600080600060a0868803121561500157600080fd5b8535945060208601359350604086013592506060860135915060808601356001600160401b0381111561503357600080fd5b61503f88828901614f93565b9150509295509295909350565b60008060006060848603121561506157600080fd5b61506a84614bc6565b925060208401356001600160401b0381111561508557600080fd5b61509186828701614f93565b9250506150a060408501614c1e565b90509250925092565b600080604083850312156150bc57600080fd5b6150c583614bc6565b91506150d360208401614bc6565b90509250929050565b60008060008060008060c087890312156150f557600080fd5b6150fe87614bc6565b955060208701356001600160401b038082111561511a57600080fd5b6151268a838b01614f93565b9650604089013595506060890135915061513f82614d84565b9093506080880135925060a0880135908082111561515c57600080fd5b5061516989828a01614f93565b9150509295509295509295565b60008060008060006080868803121561518e57600080fd5b61519786614bc6565b94506151a560208701614bc6565b93506040860135925060608601356001600160401b038111156151c757600080fd5b6151d388828901614bdd565b969995985093965092949392505050565b6000806000606084860312156151f957600080fd5b61520284614bc6565b925061521060208501614bc6565b9150604084013590509250925092565b6000806000806080858703121561523657600080fd5b61523f85614bc6565b935061524d60208601614bc6565b9250604085013561525d81614d84565b9396929550929360600135925050565b60006020828403121561527f57600080fd5b5051919050565b600181811c9082168061529a57607f821691505b6020821081036152ba57634e487b7160e01b600052602260045260246000fd5b50919050565b8183823760009101908152919050565b6000602082840312156152e257600080fd5b815160ff8116811461115557600080fd5b81835281816020850137506000828201602090810191909152601f909101601f19169091010190565b61ffff8416815260406020820152600061242a6040830184866152f3565b634e487b7160e01b600052601160045260246000fd5b818103818111156111e4576111e461533a565b808201808211156111e4576111e461533a565b6000600182016153885761538861533a565b5060010190565b634e487b7160e01b600052602160045260246000fd5b600581106153c357634e487b7160e01b600052602160045260246000fd5b9052565b6153d181846153a5565b604060208201526153e6604082018351614e5b565b6020820151606082015260408201516080820152606082015160a0820152608082015160c082015260a082015160e0820152600060c0830151610100818185015260e0850151915061012082818601528186015192506101409150828286015280860151925050610160828186015281860151925080610180860152505061242a6101a0840182614d00565b6001600160a01b03929092168252602082015260400190565b8284823760609190911b6001600160601b0319169101908152601401919050565b601f821115611e8157600081815260208120601f850160051c810160208610156154d35750805b601f850160051c820191505b81811015610c57578281556001016154df565b600019600383901b1c191660019190911b1790565b81516001600160401b0381111561552057615520614efe565b6155348161552e8454615286565b846154ac565b602080601f83116001811461556357600084156155515750858301515b61555b85826154f2565b865550610c57565b600085815260208120601f198616915b8281101561559257888601518255948401946001909101908401615573565b50858210156155b05787850151600019600388901b60f8161c191681555b5050505050600190811b01905550565b6001600160a01b03948516815292909316602083015215156040820152606081019190915260800190565b600080604083850312156155fe57600080fd5b505080516020909101519092909150565b60008251615621818460208701614cdc565b9190910192915050565b805160208201516001600160601b0319808216929190601483101561565a5780818460140360031b1b83161693505b505050919050565b9182526001600160a01b0316602082015260400190565b60008060006060848603121561568e57600080fd5b8351925060208401519150604084015190509250925092565b600181815b808511156156e25781600019048211156156c8576156c861533a565b808516156156d557918102915b93841c93908002906156ac565b509250929050565b6000826156f9575060016111e4565b81615706575060006111e4565b816001811461571c576002811461572657615742565b60019150506111e4565b60ff8411156157375761573761533a565b50506001821b6111e4565b5060208310610133831016604e8410600b8410161715615765575081810a6111e4565b61576f83836156a7565b80600019048211156157835761578361533a565b029392505050565b600061115560ff8416836156ea565b80820281158282048414176111e4576111e461533a565b6000826157ce57634e487b7160e01b600052601260045260246000fd5b500490565b600061ffff8088168352808716602084015250846040830152608060608301526148466080830184866152f3565b61ffff8616815260806020820152600061581f6080830186886152f3565b6001600160401b0394909416604083015250606001529392505050565b6001600160401b0383111561585357615853614efe565b615867836158618354615286565b836154ac565b6000601f84116001811461589557600085156158835750838201355b61588d86826154f2565b845550610cc5565b600083815260209020601f19861690835b828110156158c657868501358255602094850194600190920191016158a6565b50868210156158e35760001960f88860031b161c19848701351681555b505060018560011b0183555050505050565b60006020828403121561590757600080fd5b81516001600160401b0381111561591d57600080fd5b8201601f8101841361592e57600080fd5b805161593c614fb282614f6c565b81815285602083850101111561595157600080fd5b61242a826020830160208601614cdc565b6001600160a01b03958616815293909416602084015290151560408301526060820152608081019190915260a00190565b61ffff851681526080602082015260006159b06080830186614d00565b6001600160401b038516604084015282810360608401526148468185614d00565b6020808252602b908201527f496e697469616c697a61626c653a20636f6e7472616374206973206e6f74206960408201526a6e697469616c697a696e6760a81b606082015260800190565b600060208284031215615a2e57600080fd5b815161115581614ed3565b602081526000825160806020840152615a5560a0840182614d00565b905060018060a01b03602085015116604084015260408401516060840152606084015160808401528091505092915050565b60ff82811682821603908111156111e4576111e461533a565b61ffff841681526001600160a01b038316602082015260606040820181905260009061242a90830184614d00565b6001600160a01b0386811682526020820186905261ffff851660408301528316606082015260a06080820181905260009061484690830184614d00565b61ffff861681526001600160a01b038516602082015260a060408201819052600090615b3990830186614d00565b84151560608401528281036080840152615b538185614d00565b98975050505050505050565b61ffff8716815260c060208201526000615b7c60c0830188614d00565b8281036040840152615b8e8188614d00565b6001600160a01b0387811660608601528616608085015283810360a08501529050615bb98185614d00565b9998505050505050505050565b634e487b7160e01b600052603260045260246000fd5b600060a0820187835260208781850152604060a08186015282885180855260c087019150838a01945060005b81811015615c4557855180516001600160a01b03908116855286820151168685015284015115158484015294840194606090920191600101615c08565b505080945050505050615c5b6060830185614e5b565b8260808301529695505050505050565b60006020808385031215615c7e57600080fd5b82516001600160401b0380821115615c9557600080fd5b818501915085601f830112615ca957600080fd5b815181811115615cbb57615cbb614efe565b8060051b9150615ccc848301614f3c565b8181529183018401918481019088841115615ce657600080fd5b938501935b83851015615b5357845182529385019390850190615ceb565b61ffff8616815260a060208201526000615d2160a0830187614d00565b6001600160401b03861660408401528281036060840152615d428186614d00565b90508281036080840152615b538185614d00565b600060208284031215615d6857600080fd5b81516005811061115557600080fd5b6000808284036040811215615d8b57600080fd5b835192506020601f1982011215615da157600080fd5b50615daa614f14565b6020939093015183525092909150565b6000808284036060811215615dce57600080fd5b835192506040601f1982011215615de457600080fd5b50604080519081016001600160401b0381118282101715615e0757615e07614efe565b60409081526020858101518352940151938101939093525092909150565b6000808284036040811215615e3957600080fd5b835192506020601f1982011215615e4f57600080fd5b50615e58614f14565b6020840151615e6681614d84565b8152919491935090915050565b60a08101615e8182856153a5565b60018060a01b038351166020830152602083015160408301526040830151606083015260608301516080830152939250505056fe000000000000000000000000cc25c0fd84737f44a7d38649b69491bbf0c7f08300000000000000000000000097bd59a8202f8263c2ec39cf6cf6b438d0b458760000000000000000000000007238390d5f6f64e67c3211c343a410e2a3dec14200000000000000000000000040379a439d4f6795b6fc9aa5687db461677a2dbab0c58532a125fc3c0adccaef396bf65344a4d5781cec2e4c593e6b611d75f150a2646970667358221220e803af077dc62301493a6b86225ffb5f05e29018f9d39ca5a29901d4db4bdb6864736f6c63430008130033",
  "linkReferences": {},
  "deployedLinkReferences": {}
}