{
  "_format": "hh-sol-artifact-1",
  "contractName": "MockPearlStrategy",
  "sourceName": "contracts/mock/MockPearlStrategy.sol",
  "abi": [
    {
      "inputs": [
        {
          "internalType": "uint256",
          "name": "messageType",
          "type": "uint256"
        }
      ],
      "name": "IncorrectMessageType",
      "type": "error"
    },
    {
      "inputs": [
        {
          "internalType": "uint256",
          "name": "amount",
          "type": "uint256"
        },
        {
          "internalType": "uint256",
          "name": "balance",
          "type": "uint256"
        }
      ],
      "name": "InsufficientFunds",
      "type": "error"
    },
    {
      "anonymous": false,
      "inputs": [
        {
          "indexed": false,
          "internalType": "uint256",
          "name": "debtOutstanding",
          "type": "uint256"
        }
      ],
      "name": "AdjustedPosition",
      "type": "event"
    },
    {
      "anonymous": false,
      "inputs": [
        {
          "indexed": true,
          "internalType": "bytes",
          "name": "lowLevelErrorData",
          "type": "bytes"
        }
      ],
      "name": "EmergencyQuoteOnAlternativeDEX",
      "type": "event"
    },
    {
      "anonymous": false,
      "inputs": [
        {
          "indexed": true,
          "internalType": "bytes",
          "name": "lowLevelErrorData",
          "type": "bytes"
        }
      ],
      "name": "EmergencySwapOnAlternativeDEX",
      "type": "event"
    },
    {
      "anonymous": false,
      "inputs": [
        {
          "indexed": false,
          "internalType": "uint8",
          "name": "version",
          "type": "uint8"
        }
      ],
      "name": "Initialized",
      "type": "event"
    },
    {
      "anonymous": false,
      "inputs": [
        {
          "indexed": false,
          "internalType": "uint16",
          "name": "_srcChainId",
          "type": "uint16"
        },
        {
          "indexed": false,
          "internalType": "bytes",
          "name": "_srcAddress",
          "type": "bytes"
        },
        {
          "indexed": false,
          "internalType": "uint64",
          "name": "_nonce",
          "type": "uint64"
        },
        {
          "indexed": false,
          "internalType": "bytes",
          "name": "_payload",
          "type": "bytes"
        },
        {
          "indexed": false,
          "internalType": "bytes",
          "name": "_reason",
          "type": "bytes"
        }
      ],
      "name": "MessageFailed",
      "type": "event"
    },
    {
      "anonymous": false,
      "inputs": [
        {
          "indexed": true,
          "internalType": "address",
          "name": "src",
          "type": "address"
        },
        {
          "indexed": true,
          "internalType": "address",
          "name": "dst",
          "type": "address"
        },
        {
          "indexed": true,
          "internalType": "uint256",
          "name": "amountOut",
          "type": "uint256"
        },
        {
          "indexed": false,
          "internalType": "uint256",
          "name": "amountIn",
          "type": "uint256"
        }
      ],
      "name": "Notified",
      "type": "event"
    },
    {
      "anonymous": false,
      "inputs": [
        {
          "indexed": true,
          "internalType": "address",
          "name": "previousOwner",
          "type": "address"
        },
        {
          "indexed": true,
          "internalType": "address",
          "name": "newOwner",
          "type": "address"
        }
      ],
      "name": "OwnershipTransferred",
      "type": "event"
    },
    {
      "anonymous": false,
      "inputs": [
        {
          "indexed": true,
          "internalType": "address",
          "name": "src",
          "type": "address"
        },
        {
          "indexed": true,
          "internalType": "address",
          "name": "dst",
          "type": "address"
        },
        {
          "indexed": true,
          "internalType": "uint256",
          "name": "amount",
          "type": "uint256"
        }
      ],
      "name": "Quote",
      "type": "event"
    },
    {
      "anonymous": false,
      "inputs": [
        {
          "indexed": false,
          "internalType": "uint16",
          "name": "_srcChainId",
          "type": "uint16"
        },
        {
          "indexed": false,
          "internalType": "bytes",
          "name": "_srcAddress",
          "type": "bytes"
        },
        {
          "indexed": false,
          "internalType": "uint64",
          "name": "_nonce",
          "type": "uint64"
        },
        {
          "indexed": false,
          "internalType": "bytes32",
          "name": "_payloadHash",
          "type": "bytes32"
        }
      ],
      "name": "RetryMessageSuccess",
      "type": "event"
    },
    {
      "anonymous": false,
      "inputs": [
        {
          "indexed": true,
          "internalType": "bytes32",
          "name": "role",
          "type": "bytes32"
        },
        {
          "indexed": true,
          "internalType": "bytes32",
          "name": "previousAdminRole",
          "type": "bytes32"
        },
        {
          "indexed": true,
          "internalType": "bytes32",
          "name": "newAdminRole",
          "type": "bytes32"
        }
      ],
      "name": "RoleAdminChanged",
      "type": "event"
    },
    {
      "anonymous": false,
      "inputs": [
        {
          "indexed": true,
          "internalType": "bytes32",
          "name": "role",
          "type": "bytes32"
        },
        {
          "indexed": true,
          "internalType": "address",
          "name": "account",
          "type": "address"
        },
        {
          "indexed": true,
          "internalType": "address",
          "name": "sender",
          "type": "address"
        }
      ],
      "name": "RoleGranted",
      "type": "event"
    },
    {
      "anonymous": false,
      "inputs": [
        {
          "indexed": true,
          "internalType": "bytes32",
          "name": "role",
          "type": "bytes32"
        },
        {
          "indexed": true,
          "internalType": "address",
          "name": "account",
          "type": "address"
        },
        {
          "indexed": true,
          "internalType": "address",
          "name": "sender",
          "type": "address"
        }
      ],
      "name": "RoleRevoked",
      "type": "event"
    },
    {
      "anonymous": false,
      "inputs": [
        {
          "indexed": false,
          "internalType": "uint16",
          "name": "_dstChainId",
          "type": "uint16"
        },
        {
          "indexed": false,
          "internalType": "uint16",
          "name": "_type",
          "type": "uint16"
        },
        {
          "indexed": false,
          "internalType": "uint256",
          "name": "_minDstGas",
          "type": "uint256"
        }
      ],
      "name": "SetMinDstGas",
      "type": "event"
    },
    {
      "anonymous": false,
      "inputs": [
        {
          "indexed": false,
          "internalType": "address",
          "name": "precrime",
          "type": "address"
        }
      ],
      "name": "SetPrecrime",
      "type": "event"
    },
    {
      "anonymous": false,
      "inputs": [
        {
          "indexed": false,
          "internalType": "uint16",
          "name": "_remoteChainId",
          "type": "uint16"
        },
        {
          "indexed": false,
          "internalType": "bytes",
          "name": "_path",
          "type": "bytes"
        }
      ],
      "name": "SetTrustedRemote",
      "type": "event"
    },
    {
      "anonymous": false,
      "inputs": [
        {
          "indexed": false,
          "internalType": "uint16",
          "name": "_remoteChainId",
          "type": "uint16"
        },
        {
          "indexed": false,
          "internalType": "bytes",
          "name": "_remoteAddress",
          "type": "bytes"
        }
      ],
      "name": "SetTrustedRemoteAddress",
      "type": "event"
    },
    {
      "anonymous": false,
      "inputs": [
        {
          "indexed": true,
          "internalType": "address",
          "name": "token",
          "type": "address"
        },
        {
          "indexed": false,
          "internalType": "uint256",
          "name": "amount",
          "type": "uint256"
        },
        {
          "indexed": false,
          "internalType": "address",
          "name": "sender",
          "type": "address"
        }
      ],
      "name": "SgReceived",
      "type": "event"
    },
    {
      "anonymous": false,
      "inputs": [
        {
          "indexed": false,
          "internalType": "address",
          "name": "newStrategy",
          "type": "address"
        }
      ],
      "name": "StrategyMigrated",
      "type": "event"
    },
    {
      "anonymous": false,
      "inputs": [
        {
          "indexed": false,
          "internalType": "uint256",
          "name": "profit",
          "type": "uint256"
        },
        {
          "indexed": false,
          "internalType": "uint256",
          "name": "loss",
          "type": "uint256"
        },
        {
          "indexed": false,
          "internalType": "uint256",
          "name": "debtPayment",
          "type": "uint256"
        },
        {
          "indexed": false,
          "internalType": "uint256",
          "name": "giveToStrategy",
          "type": "uint256"
        },
        {
          "indexed": false,
          "internalType": "uint256",
          "name": "requestFromStrategy",
          "type": "uint256"
        },
        {
          "indexed": false,
          "internalType": "uint256",
          "name": "creditAvailable",
          "type": "uint256"
        },
        {
          "indexed": false,
          "internalType": "uint256",
          "name": "totalAssets",
          "type": "uint256"
        }
      ],
      "name": "StrategyReported",
      "type": "event"
    },
    {
      "anonymous": false,
      "inputs": [
        {
          "indexed": true,
          "internalType": "address",
          "name": "src",
          "type": "address"
        },
        {
          "indexed": true,
          "internalType": "address",
          "name": "dst",
          "type": "address"
        },
        {
          "indexed": true,
          "internalType": "uint256",
          "name": "amount",
          "type": "uint256"
        }
      ],
      "name": "Swap",
      "type": "event"
    },
    {
      "inputs": [],
      "name": "DEFAULT_ADMIN_ROLE",
      "outputs": [
        {
          "internalType": "bytes32",
          "name": "",
          "type": "bytes32"
        }
      ],
      "stateMutability": "view",
      "type": "function"
    },
    {
      "inputs": [],
      "name": "DEFAULT_PAYLOAD_SIZE_LIMIT",
      "outputs": [
        {
          "internalType": "uint256",
          "name": "",
          "type": "uint256"
        }
      ],
      "stateMutability": "view",
      "type": "function"
    },
    {
      "inputs": [],
      "name": "QUOTE_OPERATION_PROVIDER",
      "outputs": [
        {
          "internalType": "bytes32",
          "name": "",
          "type": "bytes32"
        }
      ],
      "stateMutability": "view",
      "type": "function"
    },
    {
      "inputs": [
        {
          "internalType": "uint256",
          "name": "_debtOutstanding",
          "type": "uint256"
        }
      ],
      "name": "adjustPosition",
      "outputs": [],
      "stateMutability": "nonpayable",
      "type": "function"
    },
    {
      "inputs": [],
      "name": "balanceOfLpStaked",
      "outputs": [
        {
          "internalType": "uint256",
          "name": "",
          "type": "uint256"
        }
      ],
      "stateMutability": "view",
      "type": "function"
    },
    {
      "inputs": [],
      "name": "balanceOfPearlRewards",
      "outputs": [
        {
          "internalType": "uint256",
          "name": "",
          "type": "uint256"
        }
      ],
      "stateMutability": "view",
      "type": "function"
    },
    {
      "inputs": [],
      "name": "balanceOfWant",
      "outputs": [
        {
          "internalType": "uint256",
          "name": "",
          "type": "uint256"
        }
      ],
      "stateMutability": "view",
      "type": "function"
    },
    {
      "inputs": [
        {
          "internalType": "uint256",
          "name": "epoch",
          "type": "uint256"
        }
      ],
      "name": "callMe",
      "outputs": [],
      "stateMutability": "nonpayable",
      "type": "function"
    },
    {
      "inputs": [],
      "name": "clearWant",
      "outputs": [],
      "stateMutability": "nonpayable",
      "type": "function"
    },
    {
      "inputs": [],
      "name": "currentChainId",
      "outputs": [
        {
          "internalType": "uint16",
          "name": "",
          "type": "uint16"
        }
      ],
      "stateMutability": "view",
      "type": "function"
    },
    {
      "inputs": [
        {
          "internalType": "uint256",
          "name": "_daiAmount",
          "type": "uint256"
        }
      ],
      "name": "daiToWant",
      "outputs": [
        {
          "internalType": "uint256",
          "name": "",
          "type": "uint256"
        }
      ],
      "stateMutability": "view",
      "type": "function"
    },
    {
      "inputs": [],
      "name": "emergencyExit",
      "outputs": [
        {
          "internalType": "bool",
          "name": "",
          "type": "bool"
        }
      ],
      "stateMutability": "view",
      "type": "function"
    },
    {
      "inputs": [],
      "name": "estimatedTotalAssets",
      "outputs": [
        {
          "internalType": "uint256",
          "name": "",
          "type": "uint256"
        }
      ],
      "stateMutability": "view",
      "type": "function"
    },
    {
      "inputs": [
        {
          "internalType": "uint256",
          "name": "_stakedLpTokens",
          "type": "uint256"
        }
      ],
      "name": "exitPosition",
      "outputs": [],
      "stateMutability": "nonpayable",
      "type": "function"
    },
    {
      "inputs": [
        {
          "internalType": "uint16",
          "name": "",
          "type": "uint16"
        },
        {
          "internalType": "bytes",
          "name": "",
          "type": "bytes"
        },
        {
          "internalType": "uint64",
          "name": "",
          "type": "uint64"
        }
      ],
      "name": "failedMessages",
      "outputs": [
        {
          "internalType": "bytes32",
          "name": "",
          "type": "bytes32"
        }
      ],
      "stateMutability": "view",
      "type": "function"
    },
    {
      "inputs": [
        {
          "internalType": "uint16",
          "name": "_srcChainId",
          "type": "uint16"
        },
        {
          "internalType": "bytes",
          "name": "_srcAddress",
          "type": "bytes"
        }
      ],
      "name": "forceResumeReceive",
      "outputs": [],
      "stateMutability": "nonpayable",
      "type": "function"
    },
    {
      "inputs": [
        {
          "internalType": "uint16",
          "name": "_version",
          "type": "uint16"
        },
        {
          "internalType": "uint16",
          "name": "_chainId",
          "type": "uint16"
        },
        {
          "internalType": "address",
          "name": "",
          "type": "address"
        },
        {
          "internalType": "uint256",
          "name": "_configType",
          "type": "uint256"
        }
      ],
      "name": "getConfig",
      "outputs": [
        {
          "internalType": "bytes",
          "name": "",
          "type": "bytes"
        }
      ],
      "stateMutability": "view",
      "type": "function"
    },
    {
      "inputs": [
        {
          "internalType": "bytes32",
          "name": "_messageHash",
          "type": "bytes32"
        }
      ],
      "name": "getEthSignedMessageHash",
      "outputs": [
        {
          "internalType": "bytes32",
          "name": "",
          "type": "bytes32"
        }
      ],
      "stateMutability": "pure",
      "type": "function"
    },
    {
      "inputs": [
        {
          "internalType": "bytes32",
          "name": "role",
          "type": "bytes32"
        }
      ],
      "name": "getRoleAdmin",
      "outputs": [
        {
          "internalType": "bytes32",
          "name": "",
          "type": "bytes32"
        }
      ],
      "stateMutability": "view",
      "type": "function"
    },
    {
      "inputs": [
        {
          "internalType": "uint16",
          "name": "_remoteChainId",
          "type": "uint16"
        }
      ],
      "name": "getTrustedRemoteAddress",
      "outputs": [
        {
          "internalType": "bytes",
          "name": "",
          "type": "bytes"
        }
      ],
      "stateMutability": "view",
      "type": "function"
    },
    {
      "inputs": [
        {
          "internalType": "bytes32",
          "name": "role",
          "type": "bytes32"
        },
        {
          "internalType": "address",
          "name": "account",
          "type": "address"
        }
      ],
      "name": "grantRole",
      "outputs": [],
      "stateMutability": "nonpayable",
      "type": "function"
    },
    {
      "inputs": [
        {
          "internalType": "uint256",
          "name": "_totalDebt",
          "type": "uint256"
        },
        {
          "internalType": "uint256",
          "name": "_debtOutstanding",
          "type": "uint256"
        },
        {
          "internalType": "uint256",
          "name": "_creditAvailable",
          "type": "uint256"
        },
        {
          "internalType": "uint256",
          "name": "_debtRatio",
          "type": "uint256"
        },
        {
          "internalType": "bytes",
          "name": "_signature",
          "type": "bytes"
        }
      ],
      "name": "harvest",
      "outputs": [],
      "stateMutability": "nonpayable",
      "type": "function"
    },
    {
      "inputs": [
        {
          "internalType": "bytes32",
          "name": "role",
          "type": "bytes32"
        },
        {
          "internalType": "address",
          "name": "account",
          "type": "address"
        }
      ],
      "name": "hasRole",
      "outputs": [
        {
          "internalType": "bool",
          "name": "",
          "type": "bool"
        }
      ],
      "stateMutability": "view",
      "type": "function"
    },
    {
      "inputs": [
        {
          "internalType": "address",
          "name": "_lzEndpoint",
          "type": "address"
        },
        {
          "internalType": "address",
          "name": "_strategist",
          "type": "address"
        },
        {
          "internalType": "contract IERC20",
          "name": "_want",
          "type": "address"
        },
        {
          "internalType": "address",
          "name": "_vault",
          "type": "address"
        },
        {
          "internalType": "uint16",
          "name": "_vaultChainId",
          "type": "uint16"
        },
        {
          "internalType": "uint16",
          "name": "_currentChainId",
          "type": "uint16"
        },
        {
          "internalType": "address",
          "name": "_sgBridge",
          "type": "address"
        },
        {
          "internalType": "address",
          "name": "_router",
          "type": "address"
        }
      ],
      "name": "initialize",
      "outputs": [],
      "stateMutability": "nonpayable",
      "type": "function"
    },
    {
      "inputs": [
        {
          "internalType": "uint16",
          "name": "_srcChainId",
          "type": "uint16"
        },
        {
          "internalType": "bytes",
          "name": "_srcAddress",
          "type": "bytes"
        }
      ],
      "name": "isTrustedRemote",
      "outputs": [
        {
          "internalType": "bool",
          "name": "",
          "type": "bool"
        }
      ],
      "stateMutability": "view",
      "type": "function"
    },
    {
      "inputs": [],
      "name": "liquidateAllPositions",
      "outputs": [
        {
          "internalType": "uint256",
          "name": "",
          "type": "uint256"
        }
      ],
      "stateMutability": "nonpayable",
      "type": "function"
    },
    {
      "inputs": [
        {
          "internalType": "uint256",
          "name": "_amountNeeded",
          "type": "uint256"
        }
      ],
      "name": "liquidatePosition",
      "outputs": [],
      "stateMutability": "nonpayable",
      "type": "function"
    },
    {
      "inputs": [],
      "name": "lzEndpoint",
      "outputs": [
        {
          "internalType": "contract ILayerZeroEndpointUpgradeable",
          "name": "",
          "type": "address"
        }
      ],
      "stateMutability": "view",
      "type": "function"
    },
    {
      "inputs": [
        {
          "internalType": "uint16",
          "name": "_srcChainId",
          "type": "uint16"
        },
        {
          "internalType": "bytes",
          "name": "_srcAddress",
          "type": "bytes"
        },
        {
          "internalType": "uint64",
          "name": "_nonce",
          "type": "uint64"
        },
        {
          "internalType": "bytes",
          "name": "_payload",
          "type": "bytes"
        }
      ],
      "name": "lzReceive",
      "outputs": [],
      "stateMutability": "nonpayable",
      "type": "function"
    },
    {
      "inputs": [
        {
          "internalType": "uint16",
          "name": "",
          "type": "uint16"
        },
        {
          "internalType": "uint16",
          "name": "",
          "type": "uint16"
        }
      ],
      "name": "minDstGasLookup",
      "outputs": [
        {
          "internalType": "uint256",
          "name": "",
          "type": "uint256"
        }
      ],
      "stateMutability": "view",
      "type": "function"
    },
    {
      "inputs": [],
      "name": "name",
      "outputs": [
        {
          "internalType": "string",
          "name": "",
          "type": "string"
        }
      ],
      "stateMutability": "pure",
      "type": "function"
    },
    {
      "inputs": [
        {
          "internalType": "uint16",
          "name": "_srcChainId",
          "type": "uint16"
        },
        {
          "internalType": "bytes",
          "name": "_srcAddress",
          "type": "bytes"
        },
        {
          "internalType": "uint64",
          "name": "_nonce",
          "type": "uint64"
        },
        {
          "internalType": "bytes",
          "name": "_payload",
          "type": "bytes"
        }
      ],
      "name": "nonblockingLzReceive",
      "outputs": [],
      "stateMutability": "nonpayable",
      "type": "function"
    },
    {
      "inputs": [
        {
          "internalType": "address",
          "name": "src",
          "type": "address"
        },
        {
          "internalType": "address",
          "name": "dst",
          "type": "address"
        },
        {
          "internalType": "uint256",
          "name": "amountOut",
          "type": "uint256"
        },
        {
          "internalType": "uint256",
          "name": "amountIn",
          "type": "uint256"
        }
      ],
      "name": "notifyCallback",
      "outputs": [],
      "stateMutability": "nonpayable",
      "type": "function"
    },
    {
      "inputs": [],
      "name": "owner",
      "outputs": [
        {
          "internalType": "address",
          "name": "",
          "type": "address"
        }
      ],
      "stateMutability": "view",
      "type": "function"
    },
    {
      "inputs": [
        {
          "internalType": "uint16",
          "name": "",
          "type": "uint16"
        }
      ],
      "name": "payloadSizeLimitLookup",
      "outputs": [
        {
          "internalType": "uint256",
          "name": "",
          "type": "uint256"
        }
      ],
      "stateMutability": "view",
      "type": "function"
    },
    {
      "inputs": [
        {
          "internalType": "uint256",
          "name": "_pearlAmount",
          "type": "uint256"
        }
      ],
      "name": "pearlToWant",
      "outputs": [
        {
          "internalType": "uint256",
          "name": "",
          "type": "uint256"
        }
      ],
      "stateMutability": "view",
      "type": "function"
    },
    {
      "inputs": [],
      "name": "precrime",
      "outputs": [
        {
          "internalType": "address",
          "name": "",
          "type": "address"
        }
      ],
      "stateMutability": "view",
      "type": "function"
    },
    {
      "inputs": [],
      "name": "renounceOwnership",
      "outputs": [],
      "stateMutability": "nonpayable",
      "type": "function"
    },
    {
      "inputs": [
        {
          "internalType": "bytes32",
          "name": "role",
          "type": "bytes32"
        },
        {
          "internalType": "address",
          "name": "account",
          "type": "address"
        }
      ],
      "name": "renounceRole",
      "outputs": [],
      "stateMutability": "nonpayable",
      "type": "function"
    },
    {
      "inputs": [
        {
          "internalType": "uint16",
          "name": "_srcChainId",
          "type": "uint16"
        },
        {
          "internalType": "bytes",
          "name": "_srcAddress",
          "type": "bytes"
        },
        {
          "internalType": "uint64",
          "name": "_nonce",
          "type": "uint64"
        },
        {
          "internalType": "bytes",
          "name": "_payload",
          "type": "bytes"
        }
      ],
      "name": "retryMessage",
      "outputs": [],
      "stateMutability": "payable",
      "type": "function"
    },
    {
      "inputs": [],
      "name": "revokeFunds",
      "outputs": [],
      "stateMutability": "nonpayable",
      "type": "function"
    },
    {
      "inputs": [
        {
          "internalType": "bytes32",
          "name": "role",
          "type": "bytes32"
        },
        {
          "internalType": "address",
          "name": "account",
          "type": "address"
        }
      ],
      "name": "revokeRole",
      "outputs": [],
      "stateMutability": "nonpayable",
      "type": "function"
    },
    {
      "inputs": [
        {
          "internalType": "uint256",
          "name": "_pearlAmount",
          "type": "uint256"
        }
      ],
      "name": "sellPearl",
      "outputs": [],
      "stateMutability": "nonpayable",
      "type": "function"
    },
    {
      "inputs": [
        {
          "internalType": "uint256",
          "name": "_usdrAmount",
          "type": "uint256"
        }
      ],
      "name": "sellUsdr",
      "outputs": [],
      "stateMutability": "nonpayable",
      "type": "function"
    },
    {
      "inputs": [
        {
          "internalType": "uint16",
          "name": "_version",
          "type": "uint16"
        },
        {
          "internalType": "uint16",
          "name": "_chainId",
          "type": "uint16"
        },
        {
          "internalType": "uint256",
          "name": "_configType",
          "type": "uint256"
        },
        {
          "internalType": "bytes",
          "name": "_config",
          "type": "bytes"
        }
      ],
      "name": "setConfig",
      "outputs": [],
      "stateMutability": "nonpayable",
      "type": "function"
    },
    {
      "inputs": [
        {
          "internalType": "bool",
          "name": "_emergencyExit",
          "type": "bool"
        }
      ],
      "name": "setEmergencyExit",
      "outputs": [],
      "stateMutability": "nonpayable",
      "type": "function"
    },
    {
      "inputs": [
        {
          "internalType": "uint16",
          "name": "_dstChainId",
          "type": "uint16"
        },
        {
          "internalType": "uint16",
          "name": "_packetType",
          "type": "uint16"
        },
        {
          "internalType": "uint256",
          "name": "_minGas",
          "type": "uint256"
        }
      ],
      "name": "setMinDstGas",
      "outputs": [],
      "stateMutability": "nonpayable",
      "type": "function"
    },
    {
      "inputs": [
        {
          "internalType": "uint16",
          "name": "_dstChainId",
          "type": "uint16"
        },
        {
          "internalType": "uint256",
          "name": "_size",
          "type": "uint256"
        }
      ],
      "name": "setPayloadSizeLimit",
      "outputs": [],
      "stateMutability": "nonpayable",
      "type": "function"
    },
    {
      "inputs": [
        {
          "internalType": "address",
          "name": "_precrime",
          "type": "address"
        }
      ],
      "name": "setPrecrime",
      "outputs": [],
      "stateMutability": "nonpayable",
      "type": "function"
    },
    {
      "inputs": [
        {
          "internalType": "uint16",
          "name": "_version",
          "type": "uint16"
        }
      ],
      "name": "setReceiveVersion",
      "outputs": [],
      "stateMutability": "nonpayable",
      "type": "function"
    },
    {
      "inputs": [
        {
          "internalType": "uint16",
          "name": "_version",
          "type": "uint16"
        }
      ],
      "name": "setSendVersion",
      "outputs": [],
      "stateMutability": "nonpayable",
      "type": "function"
    },
    {
      "inputs": [
        {
          "internalType": "uint256",
          "name": "_slippage",
          "type": "uint256"
        }
      ],
      "name": "setSlippage",
      "outputs": [],
      "stateMutability": "nonpayable",
      "type": "function"
    },
    {
      "inputs": [
        {
          "internalType": "address",
          "name": "_strategist",
          "type": "address"
        }
      ],
      "name": "setStrategist",
      "outputs": [],
      "stateMutability": "nonpayable",
      "type": "function"
    },
    {
      "inputs": [
        {
          "internalType": "address",
          "name": "_swapHelper",
          "type": "address"
        }
      ],
      "name": "setSwapHelper",
      "outputs": [],
      "stateMutability": "nonpayable",
      "type": "function"
    },
    {
      "inputs": [
        {
          "internalType": "uint16",
          "name": "_srcChainId",
          "type": "uint16"
        },
        {
          "internalType": "bytes",
          "name": "_path",
          "type": "bytes"
        }
      ],
      "name": "setTrustedRemote",
      "outputs": [],
      "stateMutability": "nonpayable",
      "type": "function"
    },
    {
      "inputs": [
        {
          "internalType": "uint16",
          "name": "_remoteChainId",
          "type": "uint16"
        },
        {
          "internalType": "bytes",
          "name": "_remoteAddress",
          "type": "bytes"
        }
      ],
      "name": "setTrustedRemoteAddress",
      "outputs": [],
      "stateMutability": "nonpayable",
      "type": "function"
    },
    {
      "inputs": [],
      "name": "sgBridge",
      "outputs": [
        {
          "internalType": "contract ISgBridge",
          "name": "",
          "type": "address"
        }
      ],
      "stateMutability": "view",
      "type": "function"
    },
    {
      "inputs": [
        {
          "internalType": "uint16",
          "name": "",
          "type": "uint16"
        },
        {
          "internalType": "bytes",
          "name": "_srcAddress",
          "type": "bytes"
        },
        {
          "internalType": "uint256",
          "name": "",
          "type": "uint256"
        },
        {
          "internalType": "address",
          "name": "_token",
          "type": "address"
        },
        {
          "internalType": "uint256",
          "name": "_amountLD",
          "type": "uint256"
        },
        {
          "internalType": "bytes",
          "name": "",
          "type": "bytes"
        }
      ],
      "name": "sgReceive",
      "outputs": [],
      "stateMutability": "nonpayable",
      "type": "function"
    },
    {
      "inputs": [],
      "name": "sgRouter",
      "outputs": [
        {
          "internalType": "contract IStargateRouter",
          "name": "",
          "type": "address"
        }
      ],
      "stateMutability": "view",
      "type": "function"
    },
    {
      "inputs": [],
      "name": "slippage",
      "outputs": [
        {
          "internalType": "uint256",
          "name": "",
          "type": "uint256"
        }
      ],
      "stateMutability": "view",
      "type": "function"
    },
    {
      "inputs": [],
      "name": "strategist",
      "outputs": [
        {
          "internalType": "address",
          "name": "",
          "type": "address"
        }
      ],
      "stateMutability": "view",
      "type": "function"
    },
    {
      "inputs": [],
      "name": "strategistSignMessageHash",
      "outputs": [
        {
          "internalType": "bytes32",
          "name": "",
          "type": "bytes32"
        }
      ],
      "stateMutability": "view",
      "type": "function"
    },
    {
      "inputs": [
        {
          "internalType": "bytes4",
          "name": "interfaceId",
          "type": "bytes4"
        }
      ],
      "name": "supportsInterface",
      "outputs": [
        {
          "internalType": "bool",
          "name": "",
          "type": "bool"
        }
      ],
      "stateMutability": "view",
      "type": "function"
    },
    {
      "inputs": [],
      "name": "swapHelper",
      "outputs": [
        {
          "internalType": "contract ISwapHelper",
          "name": "",
          "type": "address"
        }
      ],
      "stateMutability": "view",
      "type": "function"
    },
    {
      "inputs": [
        {
          "internalType": "contract IERC20",
          "name": "_token",
          "type": "address"
        }
      ],
      "name": "sweepToken",
      "outputs": [],
      "stateMutability": "nonpayable",
      "type": "function"
    },
    {
      "inputs": [
        {
          "internalType": "address",
          "name": "newOwner",
          "type": "address"
        }
      ],
      "name": "transferOwnership",
      "outputs": [],
      "stateMutability": "nonpayable",
      "type": "function"
    },
    {
      "inputs": [
        {
          "internalType": "uint16",
          "name": "",
          "type": "uint16"
        }
      ],
      "name": "trustedRemoteLookup",
      "outputs": [
        {
          "internalType": "bytes",
          "name": "",
          "type": "bytes"
        }
      ],
      "stateMutability": "view",
      "type": "function"
    },
    {
      "inputs": [
        {
          "internalType": "uint256",
          "name": "_usdrLpAmount",
          "type": "uint256"
        }
      ],
      "name": "usdrLpToWant",
      "outputs": [
        {
          "internalType": "uint256",
          "name": "",
          "type": "uint256"
        }
      ],
      "stateMutability": "view",
      "type": "function"
    },
    {
      "inputs": [
        {
          "internalType": "uint256",
          "name": "_usdrAmount",
          "type": "uint256"
        }
      ],
      "name": "usdrToWant",
      "outputs": [
        {
          "internalType": "uint256",
          "name": "",
          "type": "uint256"
        }
      ],
      "stateMutability": "view",
      "type": "function"
    },
    {
      "inputs": [],
      "name": "vault",
      "outputs": [
        {
          "internalType": "address",
          "name": "",
          "type": "address"
        }
      ],
      "stateMutability": "view",
      "type": "function"
    },
    {
      "inputs": [],
      "name": "vaultChainId",
      "outputs": [
        {
          "internalType": "uint16",
          "name": "",
          "type": "uint16"
        }
      ],
      "stateMutability": "view",
      "type": "function"
    },
    {
      "inputs": [],
      "name": "want",
      "outputs": [
        {
          "internalType": "contract IERC20",
          "name": "",
          "type": "address"
        }
      ],
      "stateMutability": "view",
      "type": "function"
    },
    {
      "inputs": [],
      "name": "wantDecimals",
      "outputs": [
        {
          "internalType": "uint8",
          "name": "",
          "type": "uint8"
        }
      ],
      "stateMutability": "view",
      "type": "function"
    },
    {
      "inputs": [
        {
          "internalType": "uint256",
          "name": "_wantAmount",
          "type": "uint256"
        }
      ],
      "name": "wantToUsdrLp",
      "outputs": [
        {
          "internalType": "uint256",
          "name": "",
          "type": "uint256"
        }
      ],
      "stateMutability": "view",
      "type": "function"
    },
    {
      "inputs": [
        {
          "internalType": "uint256",
          "name": "_amountNeeded",
          "type": "uint256"
        }
      ],
      "name": "withdrawSome",
      "outputs": [],
      "stateMutability": "nonpayable",
      "type": "function"
    },
    {
      "stateMutability": "payable",
      "type": "receive"
    }
  ],
  "bytecode": "0x60808060405234610017576161e590816200001d8239f35b600080fdfe6080604052600436101561001b575b361561001957600080fd5b005b60003560e01c80621d3567146104ca57806301ffc9a7146104c55780630517cb76146104c057806306fdde03146104bb57806307e0db17146104b65780630df37483146104b15780630fc6a11c146104ac57806310ddb137146104a75780631be19560146104a25780631cdb539f1461049d5780631f1fcd51146104985780631fe4a68614610493578063237ea53f1461048e578063248a9ca3146104895780632d606843146104845780632f2ff15d1461047f57806336568abe1461047a57806337fded91146104755780633d3ccc2f146104705780633d8b38f61461046b5780633e032a3b146104665780633eae1112146104615780633f1f4fa41461045c57806342d65a8d1461045757806345ee075514610452578063495f881e1461044d5780634a5f58d11461044857806350bb4beb146104435780635641ec031461043e578063567ad85d14610439578063593178de146104345780635b8c41e61461042f57806366ad5c8a1461042a5780636cbadbfa14610425578063715018a6146104205780637533d7881461041b57806378dc9059146104165780638cfd8f5c146104115780638da5cb5b1461040c5780638f4508d01461040757806391d1485414610402578063950c8a74146103fd5780639589c990146103f85780639606647d146103f35780639f38369a146103ee578063a217fddf146103e9578063a6c3d165146103e4578063a9e50824146103df578063ab8236f3146103da578063adf076e6146103d5578063ae9b051c146103d0578063b353aaa7146103cb578063baf3292d146103c6578063bd79ac13146103c1578063c1a3d44c146103bc578063c4461834146103b7578063c7b9d530146103b2578063cbed8b9c146103ad578063cdddd4e5146103a8578063d1deba1f146103a3578063d547741f1461039e578063d56739ac14610399578063d73cd47f14610394578063df2a5b3b1461038f578063e73620c31461038a578063e964404414610385578063eb8d72b714610380578063efbb5cb01461037b578063f056dffe14610376578063f0fa55a914610371578063f2fde38b1461036c578063f5ecbdbc14610367578063fa54080114610362578063fbfa77cf1461035d5763fcb988a40361000e57612738565b61270f565b6126f1565b61263e565b6125ad565b61258c565b612440565b612425565b6122ff565b6122e3565b6122af565b6121ca565b612118565b6120fd565b6120ba565b611f8d565b611f71565b611eab565b611e64565b611e47565b611dd3565b611d30565b611cc0565b611c97565b611c7b565b611c57565b611b37565b611b19565b6119b8565b61199c565b6118f1565b61184c565b61182e565b611805565b6117c0565b6117a5565b61177c565b611729565b61170d565b6116c4565b61159a565b611575565b61143c565b6113ad565b611364565b61133f565b61131c565b611301565b6112e5565b61106e565b610ebc565b610e47565b610e12565b610dec565b610dce565b610d83565b610d0a565b610cdd565b610c47565b610b94565b610b4f565b610b1f565b610af6565b610acd565b610a91565b610a0e565b610978565b6108ff565b6108d5565b61089a565b61081a565b6107c8565b610743565b6106d6565b6105a0565b6004359061ffff821682036104e057565b600080fd5b6024359061ffff821682036104e057565b9181601f840112156104e0578235916001600160401b0383116104e057602083818601950101116104e057565b604435906001600160401b03821682036104e057565b9060806003198301126104e05760043561ffff811681036104e057916001600160401b03906024358281116104e05781610575916004016104f6565b9390939260443581811681036104e057926064359182116104e05761059c916004016104f6565b9091565b346104e0576105ae36610539565b60655490949293906001600160a01b03163303610685576105dc926105d491369161101c565b93369161101c565b905a926040519360208501633356ae4560e11b815261ffff87166024870152608060448701526106458661063761061660a483018761078f565b6001600160401b03881660648401528281036023190160848401528861078f565b03601f198101885287610f90565b600091829182610653612c69565b9851923090f13d6096811161067d575b8086526000602087013e1561067457005b61001994613497565b506096610663565b60405162461bcd60e51b815260206004820152602360248201527f4261736553747261746567793a3a496e76616c6964456e64706f696e7443616c6044820152623632b960e91b6064820152608490fd5b346104e05760203660031901126104e05760043563ffffffff60e01b81168091036104e057602090637965db0b60e01b811490811561071b575b506040519015158152f35b6301ffc9a760e01b14905038610710565b60009103126104e057565b6001600160a01b031690565b346104e05760003660031901126104e05760ce546040516001600160a01b039091168152602090f35b60005b83811061077f5750506000910152565b818101518382015260200161076f565b906020916107a88151809281855285808601910161076c565b601f01601f1916010190565b9060206107c592818152019061078f565b90565b346104e05760003660031901126104e0576108166040516107e881610f5a565b600d81526c506561726c537472617465677960981b602082015260405191829160208352602083019061078f565b0390f35b346104e05760006020366003190112610897576108356104cf565b61083d612bc7565b6065546001600160a01b0316908290823b1561089357602461ffff918360405195869485936307e0db1760e01b85521660048401525af1801561088e57610882575080f35b61088b90610f0c565b80f35b6127b4565b5080fd5b80fd5b346104e05760403660031901126104e05761ffff6108b66104cf565b6108be612bc7565b166000526068602052602435604060002055600080f35b346104e05760003660031901126104e057610135546040516001600160a01b039091168152602090f35b346104e057600060203660031901126108975761091a6104cf565b610922612bc7565b6065546001600160a01b0316908290823b1561089357602461ffff918360405195869485936310ddb13760e01b85521660048401525af1801561088e57610882575080f35b6001600160a01b038116036104e057565b346104e05760203660031901126104e05760043561099581610967565b61099d61378f565b6040516370a0823160e01b8152306004820152906020826024816001600160a01b0385165afa90811561088e57610019926000926109de575b503390612f17565b610a0091925060203d8111610a07575b6109f88183610f90565b810190612e4a565b90386109d6565b503d6109ee565b346104e0576101003660031901126104e057600435610a2c81610967565b60243590610a3982610967565b60443591610a4683610967565b606435610a5281610967565b60843561ffff9182821682036104e05760a43592831683036104e0576100199560c43594610a7f86610967565b60e43596610a8c88610967565b614164565b346104e05760003660031901126104e05760ca546040516001600160a01b039091168152602090f35b6001600160a01b03909116815260200190565b346104e05760003660031901126104e05760c9546040516001600160a01b039091168152602090f35b346104e05760003660031901126104e05760206040516000805160206161308339815191528152f35b346104e05760203660031901126104e0576004356000526101036020526020600160406000200154604051908152f35b346104e05760008060031936011261089757610b6961378f565b8080808060018060a01b0360c954164790828215610b8b575bf11561088e5780f35b506108fc610b82565b346104e05760403660031901126104e057600435602435610bb481610967565b60009180835261010380602052610bd16001604086200154612a93565b8184528060205260ff610be78460408720612a7c565b541615610bf2578380f35b818452602052610c058260408520612a7c565b805460ff1916600117905533916001600160a01b0316907f2f8788117e7eff1d82e926ec794901d17c78024a50270940304540a733656f0d8480a43880808380f35b346104e05760403660031901126104e057602435610c6481610967565b336001600160a01b03821603610c805761001990600435612b4a565b60405162461bcd60e51b815260206004820152602f60248201527f416363657373436f6e74726f6c3a2063616e206f6e6c792072656e6f756e636560448201526e103937b632b9903337b91039b2b63360891b6064820152608490fd5b346104e05760003660031901126104e05760cd5460405160089190911c6001600160a01b03168152602090f35b346104e05760203660031901126104e0576000805160206161908339815191526020600435610d3761378f565b610d40816159a3565b604051908152a1005b9060406003198301126104e05760043561ffff811681036104e05791602435906001600160401b0382116104e05761059c916004016104f6565b346104e057602061ffff610dbf610d9936610d49565b9390911660005260668452610db16040600020611620565b84815191012092369161101c565b82815191012014604051908152f35b346104e05760003660031901126104e057602060cc54604051908152f35b346104e05760203660031901126104e0576020610e0a600435614b86565b604051908152f35b346104e05760203660031901126104e05761ffff610e2e6104cf565b1660005260686020526020604060002054604051908152f35b346104e057610e5536610d49565b610e60929192612bc7565b6065546000938492916001600160a01b031690813b15610eae5783610e9c95604051968795869485936342d65a8d60e01b8552600485016127e1565b03925af1801561088e57610882575080f35b8380fd5b801515036104e057565b346104e05760203660031901126104e057600435610ed981610eb2565b610ee161378f565b60ff801960cd5416911515161760cd55600080f35b634e487b7160e01b600052604160045260246000fd5b6001600160401b038111610f1f57604052565b610ef6565b602081019081106001600160401b03821117610f1f57604052565b606081019081106001600160401b03821117610f1f57604052565b604081019081106001600160401b03821117610f1f57604052565b608081019081106001600160401b03821117610f1f57604052565b601f909101601f19168101906001600160401b03821190821017610f1f57604052565b6040519061016082016001600160401b03811183821017610f1f57604052565b60405190608082016001600160401b03811183821017610f1f57604052565b60405190610fff82610f3f565b565b6001600160401b038111610f1f57601f01601f191660200190565b92919261102882611001565b916110366040519384610f90565b8294818452818301116104e0578281602093846000960137010152565b9080601f830112156104e0578160206107c59335910161101c565b346104e05760a03660031901126104e0576084356044356024356001600160401b0383116104e0576110c57fb983e09c034e9c52b5e547cb0589967992b97717733f580cc5ad0afcdc4b522b933690600401611053565b906110ce61378f565b6110d782613548565b600080926110e760cd5460ff1690565b156112ca576110f860643515613321565b6111006158fb565b9383851015611298575061112261111b849561124f95612866565b8095612866565b945b61112e8684612927565b60008282101561128657506111439082612866565b926000905b61115982611154614e33565b612866565b9360d0549261116f61116a8561336d565b60d055565b611177610fb3565b308152914260208401526040830193845260608301998a52608083019a8b5260a0830197885260c0830182815260e08401968752610100840197885261012084019590955261014083015280156112545761120c916111e6916111f460cb5492604051948591602083016133af565b03601f198101855284610f90565b6001600160a01b0382169160a01c61ffff1690613ebd565b51955196519351905191519251936040519788978893909796959260c0959260e08601998652602086015260408501526060840152608083015260a08201520152565b0390a1005b5061126e61127c61128192604051928391602083016133af565b03601f198101835282610f90565b614033565b61120c565b82611292919592612866565b90611148565b838561124f958397116112b1575b509061112291612866565b81611122939295506112c291612866565b9390916112a6565b9250506112dc61124f916004356137e7565b94909390611124565b346104e05760203660031901126104e05761001960043561519d565b346104e05760003660031901126104e0576020610e0a6158fb565b346104e05760003660031901126104e057602060ff60cd54166040519015158152f35b346104e05760003660031901126104e057602061ffff60cb5460a01c16604051908152f35b346104e05760003660031901126104e0576020610e0a6132ea565b906113926020928281519485920161076c565b0190565b9060018060401b0316600052602052604060002090565b346104e05760603660031901126104e0576113c66104cf565b6024356001600160401b0381116104e0576108169161141d60206113f161142b943690600401611053565b61ffff6113fc610523565b9416600052609782526040600020826040519483868095519384920161076c565b820190815203019020611396565b546040519081529081906020820190565b346104e05761144a36610539565b93929091503033036115215761146d9261146591369161101c565b92369161101c565b9060cb549261ffff808560a01c169116036114d157610019926114b96114b361126e6114ae61149e6114cc966129b1565b604051928391602083019061137f565b613449565b60601c90565b6001600160a01b039081169116146138ca565b613a22565b60405162461bcd60e51b815260206004820152602260248201527f4261736553747261746567793a3a5661756c74436861696e49644d69736d61746044820152610c6d60f31b6064820152608490fd5b60405162461bcd60e51b815260206004820152602660248201527f4e6f6e626c6f636b696e674c7a4170703a2063616c6c6572206d7573742062656044820152650204c7a4170760d41b6064820152608490fd5b346104e05760003660031901126104e057602061ffff60cb5460b01c16604051908152f35b346104e057600080600319360112610897576115b4612bc7565b603380546001600160a01b0319811690915581906001600160a01b03166000805160206160f08339815191528280a380f35b90600182811c92168015611616575b602083101461160057565b634e487b7160e01b600052602260045260246000fd5b91607f16916115f5565b9060405191826000825492611634846115e6565b9081845260019485811690816000146116a1575060011461165e575b5050610fff92500383610f90565b9093915060005260209081600020936000915b818310611689575050610fff93508201013880611650565b85548884018501529485019487945091830191611671565b915050610fff94506020925060ff191682840152151560051b8201013880611650565b346104e05760203660031901126104e05761ffff6116e06104cf565b1660005260666020526108166116f96040600020611620565b60405191829160208352602083019061078f565b346104e05760203660031901126104e057610019600435615556565b346104e05760403660031901126104e05760206117736117476104cf565b61ffff6117526104e5565b91166000526067835260406000209061ffff16600052602052604060002090565b54604051908152f35b346104e05760003660031901126104e0576033546040516001600160a01b039091168152602090f35b346104e05760003660031901126104e0576020610e0a614ad0565b346104e05760403660031901126104e057602060ff6117f96024356117e481610967565b60043560005261010384526040600020612a7c565b54166040519015158152f35b346104e05760003660031901126104e0576069546040516001600160a01b039091168152602090f35b346104e05760203660031901126104e0576020610e0a600435614b0c565b346104e0576000806003193601126108975761186661378f565b60ca546040516370a0823160e01b8152306004820152906001600160a01b0316602082602481845afa90811561088e5761088b9284926118d1575b506040519163a9059cbb60e01b6020840152600160248401526044830152604482526118cc82610f75565b6130d9565b6118ea91925060203d8111610a07576109f88183610f90565b90386118a1565b346104e05760203660031901126104e05761ffff61190d6104cf565b1660005260666020526119236040600020611620565b8051156119575780516013198101919082116119525761081691611946916129fc565b604051918291826107b4565b612850565b60405162461bcd60e51b815260206004820152601d60248201527f4c7a4170703a206e6f20747275737465642070617468207265636f72640000006044820152606490fd5b346104e05760003660031901126104e057602060405160008152f35b346104e0576119c636610d49565b91906119d0612bc7565b6040519160208483828601376119fb6034858781013060601b85820152036014810187520185610f90565b61ffff821660009081526066825260408120855191959092906001600160401b038311610f1f57611a3683611a3086546115e6565b866127fc565b81601f8411600114611a9557509180611a8494928899946000805160206160708339815191529992611a8a575b50508160011b916000199060031b1c19161790555b604051938493846127e1565b0390a180f35b015190503880611a63565b9190601f198416611aab86600052602060002090565b9389905b828210611b015750509260019285926000805160206160708339815191529a9b96611a84989610611ae8575b505050811b019055611a78565b015160001960f88460031b161c19169055388080611adb565b80600186978294978701518155019601940190611aaf565b346104e05760203660031901126104e0576020610e0a600435614c21565b346104e05760c03660031901126104e057611b506104cf565b506001600160401b036024358181116104e057611b71903690600401611053565b60643591611b7e83610967565b60a4359081116104e057611b96903690600401611053565b5060ce546001600160a01b0390811633148015611c47575b15611c0357611be96114b361126e6114ae61149e7f92073a89a07a000083eb8b2575fc15e7bb936efe55d00727d6942a796d7211a7966129b1565b92611bfe60405192839216946084358361347e565b0390a2005b60405162461bcd60e51b815260206004820152601c60248201527b53674272696467653a3a526f757465724f724272696467654f6e6c7960201b6044820152606490fd5b508060cd5460081c163314611bae565b346104e05760003660031901126104e057602060ff60cb5460c01c16604051908152f35b346104e05760203660031901126104e057610019600435615460565b346104e05760003660031901126104e0576065546040516001600160a01b039091168152602090f35b346104e05760203660031901126104e0577f5db758e995a17ec1ad84bdef7e8c3293a0bd6179bcce400dff5d4c3d87db726b6020600435611d0081610967565b611d08612bc7565b606980546001600160a01b0319166001600160a01b03929092169182179055604051908152a1005b346104e05760203660031901126104e05760405163313ce56760e01b8152602081600481738f3cf7ad23cd3cadbd9735aff958023239c6a0635afa90811561088e5761081691611d9591600091611da5575b5060ff60cb5460c01c1690600435615fd2565b6040519081529081906020820190565b611dc6915060203d8111611dcc575b611dbe8183610f90565b810190614a13565b38611d82565b503d611db4565b346104e05760003660031901126104e05760ca546040516370a0823160e01b815230600482015290602090829060249082906001600160a01b03165afa801561088e57602091600091611e2a575b50604051908152f35b611e419150823d8111610a07576109f88183610f90565b38611e21565b346104e05760003660031901126104e05760206040516127108152f35b346104e05760203660031901126104e057600435611e8181610967565b611e89612bc7565b60c980546001600160a01b0319166001600160a01b0392909216919091179055005b346104e05760803660031901126104e057611ec46104cf565b611ecc6104e5565b6064356001600160401b0381116104e057611eeb9036906004016104f6565b9092611ef5612bc7565b6065546001600160a01b031690813b156104e05760008094611f4e604051978896879586946332fb62e760e21b865261ffff809216600487015216602485015260443560448501526080606485015260848401916127c0565b03925af1801561088e57611f5e57005b80611f6b61001992610f0c565b8061072c565b346104e05760203660031901126104e0576100196004356157fd565b611f9636610539565b9161ffff86949296166000526097602052611fca81604060002060206040518092878b833787820190815203019020611396565b549182156120695761205d846120567fc264d91f3adc5588250e1551f547752ca0cfa8f6b530d243b9f9f4cab10ea8e599600061204a876120458d8961203f8f61124f9f8f61201e61202b9236908d61101c565b602081519101201461288c565b61ffff166000526097602052604060002090565b91612873565b611396565b5561146536868c61101c565b9087613921565b604051958695866128e2565b60405162461bcd60e51b815260206004820152602360248201527f4e6f6e626c6f636b696e674c7a4170703a206e6f2073746f726564206d65737360448201526261676560e81b6064820152608490fd5b346104e05760403660031901126104e0576100196024356004356120dd82610967565b806000526101036020526120f8600160406000200154612a93565b612b4a565b346104e05760003660031901126104e0576020610e0a614a7d565b346104e05760203660031901126104e05760043561213581610967565b60c9546001600160a01b0316331480156121c1575b156121715761013580546001600160a01b0319166001600160a01b03909216919091179055005b60405162461bcd60e51b815260206004820152602260248201527f4261736553747261746567793a3a4f6e6c79537472617465676973744f725365604482015261363360f11b6064820152608490fd5b5030331461214a565b346104e05760603660031901126104e0576121e36104cf565b6121eb6104e5565b604435916121f7612bc7565b82156122725761124f7f9d5c7c0b934da8fefa9c7760c98383778a12dfbfc0c3b3106518f43fb9508ac09361ffff831660005260676020528061224c8560406000209061ffff16600052602052604060002090565b556040519384938460409194939294606082019561ffff80921683521660208201520152565b60405162461bcd60e51b81526020600482015260156024820152744c7a4170703a20696e76616c6964206d696e47617360581b6044820152606490fd5b346104e05760203660031901126104e0576122c8612bc7565b600435600090815260cf60205260409020805460ff19169055005b346104e05760203660031901126104e057610019600435614f44565b346104e05761230d36610d49565b9190612317612bc7565b60009161ffff81168352602060668152604084209060018060401b038611610f1f5761234d8661234784546115e6565b846127fc565b8490601f87116001146123a3575094611a84918186976000805160206161708339815191529791612398575b508260011b906000198460031b1c1916179055604051938493846127e1565b905085013538612379565b90601f1987166123b884600052602060002090565b9287905b82821061240d57505091611a84939188600080516020616170833981519152989994106123f3575b5050600182811b019055611a78565b860135600019600385901b60f8161c1916905538806123e4565b80600185968294968b013581550195019301906123bc565b346104e05760003660031901126104e0576020610e0a614e33565b346104e05760803660031901126104e05760043561245d81610967565b6024359061246a82610967565b60008051602061613083398151915260005261010360205260ff6124ae337f3baea6bac6d40bb23e7a0c173a239a2a34c89aba451ebd319fcdee42f7221499612a7c565b5416156124f7576040516064358152604435926001600160a01b039081169216907f9b2db766e04dc7ee1cc19d1415531ad5b3fd566db4f745d9a8ad51e3d3fe1bd790602090a4005b612588604861257061250833612d4b565b61126e612513612dcb565b60405194859376020b1b1b2b9b9a1b7b73a3937b61d1030b1b1b7bab73a1604d1b602086015261254d81518092602060378901910161076c565b84017001034b99036b4b9b9b4b733903937b6329607d1b6037820152019061137f565b60405162461bcd60e51b8152918291600483016107b4565b0390fd5b346104e05760203660031901126104e0576125a561378f565b60043560cc55005b346104e05760203660031901126104e0576004356125ca81610967565b6125d2612bc7565b6001600160a01b038116156125ea5761001990612c1f565b60405162461bcd60e51b815260206004820152602660248201527f4f776e61626c653a206e6577206f776e657220697320746865207a65726f206160448201526564647265737360d01b6064820152608490fd5b346104e05760803660031901126104e0576126576104cf565b60006126616104e5565b9161266d604435610967565b606554604051633d7b2f6f60e21b815261ffff92831660048201529390911660248401523060448401526064803590840152829060849082906001600160a01b03165afa801561088e57610816916000916126d0575b50604051918291826107b4565b6126eb913d8091833e6126e38183610f90565b810190612756565b386126c3565b346104e05760203660031901126104e0576020610e0a6004356132a8565b346104e05760003660031901126104e05760cb546040516001600160a01b039091168152602090f35b346104e05760203660031901126104e0576020610e0a600435614cde565b6020818303126104e0578051906001600160401b0382116104e0570181601f820112156104e057805161278881611001565b926127966040519485610f90565b818452602082840101116104e0576107c5916020808501910161076c565b6040513d6000823e3d90fd5b908060209392818452848401376000828201840152601f01601f1916010190565b60409061ffff6107c5959316815281602082015201916127c0565b90601f811161280a57505050565b600091825260208220906020601f850160051c83019410612846575b601f0160051c01915b82811061283b57505050565b81815560010161282f565b9092508290612826565b634e487b7160e01b600052601160045260246000fd5b9190820391821161195257565b6020919283604051948593843782019081520301902090565b1561289357565b60405162461bcd60e51b815260206004820152602160248201527f4e6f6e626c6f636b696e674c7a4170703a20696e76616c6964207061796c6f616044820152601960fa1b6064820152608490fd5b9160609361ffff61290593989796981684526080602085015260808401916127c0565b6001600160401b0390951660408201520152565b90601f820180921161195257565b9190820180921161195257565b1561293b57565b60405162461bcd60e51b815260206004820152600e60248201526d736c6963655f6f766572666c6f7760901b6044820152606490fd5b1561297857565b60405162461bcd60e51b8152602060048201526011602482015270736c6963655f6f75744f66426f756e647360781b6044820152606490fd5b6129bf601482511015612971565b6040519060148083019101602883015b8083106129e957505060148252601f01601f191660405290565b90918251815260208091019201906129cf565b612a1082612a0981612919565b1015612934565b612a1d8282511015612971565b81612a35575050604051600081526020810160405290565b60405191601f811691821560051b808486010193838501920101905b808410612a695750508252601f01601f191660405290565b9092835181526020809101930190612a51565b9060018060a01b0316600052602052604060002090565b8060005261010360205260ff612aad336040600020612a7c565b541615612ab75750565b612ac033612d4b565b612ac8612c94565b916030612ad484612cc5565b536078612ae084612cd2565b5360415b60018111612b035761258860486125708561126e886125138815612d00565b90600f8116906010821015612b4557612b40916f181899199a1a9b1b9c1cb0b131b232b360811b901a612b368487612ce2565b5360041c91612cf3565b612ae4565b612caf565b6000908082526101038060205260ff612b668560408620612a7c565b5416612b73575b50505050565b818352602052612b868360408420612a7c565b805460ff1916905533926001600160a01b0316917ff6391f5c32d9c69d2a47ea670b442974b53935d1edc7fd64eb21e047a839171b9080a438808080612b6d565b6033546001600160a01b03163303612bdb57565b606460405162461bcd60e51b815260206004820152602060248201527f4f776e61626c653a2063616c6c6572206973206e6f7420746865206f776e65726044820152fd5b603380546001600160a01b039283166001600160a01b0319821681179092559091166000805160206160f0833981519152600080a3565b8181029291811591840414171561195257565b6040519060c082016001600160401b03811183821017610f1f576040526096825260a0366020840137565b60405190612ca182610f75565b604282526060366020840137565b634e487b7160e01b600052603260045260246000fd5b805115612b455760200190565b805160011015612b455760210190565b908151811015612b45570160200190565b8015611952576000190190565b15612d0757565b606460405162461bcd60e51b815260206004820152602060248201527f537472696e67733a20686578206c656e67746820696e73756666696369656e746044820152fd5b60405190612d5882610f3f565b602a825260403660208401376030612d6f83612cc5565b536078612d7b83612cd2565b536029905b60018211612d93576107c5915015612d00565b600f8116906010821015612b4557612dc5916f181899199a1a9b1b9c1cb0b131b232b360811b901a612b368486612ce2565b90612d80565b600080516020616130833981519152612de2612c94565b906030612dee83612cc5565b536078612dfa83612cd2565b536041905b60018211612e12576107c5915015612d00565b600f8116906010821015612b4557612e44916f181899199a1a9b1b9c1cb0b131b232b360811b901a612b368486612ce2565b90612dff565b908160209103126104e0575190565b6000805160206160108339815191528152600019602082015260400190565b6001600160a01b039091168152602081019190915260400190565b90612eba610fff9261126e60405193849263a9059cbb60e01b602085015260248401612e78565b612f61565b90612ee6610fff9261126e60405193849263a9059cbb60e01b602085015260248401612e78565b613039565b90612f12610fff9261126e60405193849263a9059cbb60e01b602085015260248401612e78565b613089565b6118cc610fff9392612f3e60405194859263a9059cbb60e01b602085015260248401612e78565b03601f198101845283610f90565b908160209103126104e057516107c581610eb2565b612fb1604051612f7081610f5a565b600080602094858452600080516020616090833981519152868501528581519101826000805160206161108339815191525af1612fab613125565b90613155565b805190828215928315613021575b50505015612fca5750565b6084906040519062461bcd60e51b82526004820152602a60248201527f5361666545524332303a204552433230206f7065726174696f6e20646964206e6044820152691bdd081cdd58d8d9595960b21b6064820152fd5b6130319350820181019101612f4c565b388281612fbf565b612fb160405161304881610f5a565b600080602094858452600080516020616090833981519152868501528581519101826000805160206161508339815191525af1613083613125565b906131f1565b612fb160405161309881610f5a565b600080602094858452600080516020616090833981519152868501528581519101826000805160206160d08339815191525af16130d3613125565b9061321c565b604051612fb1916001600160a01b03166130f282610f5a565b60008060209586855260008051602061609083398151915287860152868151910182855af161311f613125565b91613278565b3d15613150573d9061313682611001565b916131446040519384610f90565b82523d6000602084013e565b606090565b909190156131c557508051156131685790565b6000805160206161108339815191523b156131805790565b60405162461bcd60e51b815260206004820152601d60248201527f416464726573733a2063616c6c20746f206e6f6e2d636f6e74726163740000006044820152606490fd5b8151156131d55750805190602001fd5b60405162461bcd60e51b815290819061258890600483016107b4565b909190156131c557508051156132045790565b6000805160206161508339815191523b156131805790565b909190156131c5575080511561322f5790565b6000805160206160d08339815191523b156131805790565b909190156131c5575080511561325a5790565b738f3cf7ad23cd3cadbd9735aff958023239c6a0633b156131805790565b91929015613295575081511561328c575090565b3b156131805790565b8251909150156131d55750805190602001fd5b60405160208101917b0ca2ba3432b932bab69029b4b3b732b21026b2b9b9b0b3b29d05199960211b8352603c820152603c81526132e481610f3f565b51902090565b60d05460cb546040519060208201923060601b8452603483015261ffff60f01b9060401b166054820152603681526132e481610f3f565b1561332857565b60405162461bcd60e51b815260206004820152601e60248201527f4261736553747261746567793a3a44656274526174696f4e6f745a65726f00006044820152606490fd5b60001981146119525760010190565b6000805160206161508339815191529052565b6005111561339957565b634e487b7160e01b600052602160045260246000fd5b6002815260406020820181905282516001600160a01b0316908201526107c591906101a0906020830151606082015260408301516080820152606083015160a0820152608083015160c082015260a083015160e082015260c0830151610100908183015260e0840151906101209182840152840151906101409182840152840151936101609485840152015192610180820152019061078f565b80516020909101516001600160601b031980821693929091906014811061346f57505050565b60140360031b82901b16169150565b9081526001600160a01b03909116602082015260400190565b91936135357fe183f33de2837795525b4792ca4cd60535bd77c53b7e7030060bfcf5734d6b0c95613543939561ffff815160208301209616958660005260976020526134fb8361141d60208b6040600020826040519483868095519384920161076c565b55613518604051978897885260a0602089015260a088019061078f565b6001600160401b039092166040870152858203606087015261078f565b90838203608085015261078f565b0390a1565b61356461356c9161355f61355a6132ea565b6132a8565b6136e3565b9190916135c8565b60c9546001600160a01b0390811691160361358357565b60405162461bcd60e51b815260206004820152601e60248201527f4261736553747261746567793a3a496e76616c69645369676e617475726500006044820152606490fd5b6135d18161338f565b806135d95750565b6135e28161338f565b6001810361362a5760405162461bcd60e51b815260206004820152601860248201527745434453413a20696e76616c6964207369676e617475726560401b6044820152606490fd5b6136338161338f565b600281036136805760405162461bcd60e51b815260206004820152601f60248201527f45434453413a20696e76616c6964207369676e6174757265206c656e677468006044820152606490fd5b8061368c60039261338f565b1461369357565b60405162461bcd60e51b815260206004820152602260248201527f45434453413a20696e76616c6964207369676e6174757265202773272076616c604482015261756560f01b6064820152608490fd5b90604181511460001461370d5761059c916020820151906060604084015193015160001a90613717565b5050600090600290565b9291906fa2a8918ca85bafe22016d0b997e4df60600160ff1b0383116137835791608094939160ff602094604051948552168484015260408301526060820152600093849182805260015afa1561088e5781516001600160a01b0381161561377d579190565b50600190565b50505050600090600390565b60c9546001600160a01b031633036137a357565b60405162461bcd60e51b815260206004820152601c60248201527b10985cd954dd1c985d1959de4e8e93db9b1e54dd1c985d1959da5cdd60221b6044820152606490fd5b906137f0614e33565b8281106138a657916138029192612866565b906000915b6138196138148284612927565b6157fd565b505061382e61382960ca54610737565b610737565b91602060405180946370a0823160e01b8252818061384f3060048301610aba565b03915afa92831561088e57600093613886575b5081831161387257505091600090565b613881826107c5939694612866565b6138b8565b61389f91935060203d8111610a07576109f88183610f90565b9138613862565b6138b290600093612866565b91613807565b90808210156138c5575090565b905090565b156138d157565b60405162461bcd60e51b815260206004820152602260248201527f4261736553747261746567793a3a5661756c74416464726573734d69736d61746044820152610c6d60f31b6064820152608490fd5b919060cb549261ffff808560a01c169116036114d157610fff926114b96114b361126e6114ae61149e6114cc966129b1565b908160209103126104e0575160058110156104e05790565b8092910391604083126104e0576020815193601f1901126104e05760206040519161399583610f24565b01516139a081610967565b815290565b8092910391606083126104e0576040815193601f1901126104e0576040805191908201906001600160401b03821183831017610f1f576040918252602081015183520151602082015290565b8092910391604083126104e0576020815193601f1901126104e057602060405191613a1b83610f24565b0151815290565b805190613a3760208083019383010183613953565b613a408161338f565b60038103613a895750613a6c6000805160206161908339815191529260208361354394510101906139f1565b9050613a7881516159a3565b516040519081529081906020820190565b613a928161338f565b80613ab35750610fff91602082613aac93510101906139a5565b9050613b72565b80613abf60049261338f565b14613ac8575050565b613b1a613b007f7c9a2d2ec51230d7dbed27f113a325b7e20aef7b049e68b2339257b5edff5bea93602084613543955101019061396b565b9050613b14613b0f8251610737565b613c6e565b51610737565b60405191829182610aba565b15613b2d57565b60405162461bcd60e51b815260206004820152601e60248201527f4261736553747261746567793a3a416c726561647957697468647261776e00006044820152606490fd5b613c52610fff91613c1c61126e613bbb6020840193613bb5613bb0613bac613ba5885160005260cf602052604060002090565b5460ff1690565b1590565b613b26565b516157fd565b8493919351613bc8610fd3565b30815291602083810187815260408086019384526060808701958652815160019481019490945295516001600160a01b03169083015251938101939093525160808301525160a082015291829060c0820190565b8115613c5f5760cb54613c41926001600160a01b0382169160a01c61ffff1690613ebd565b5160005260cf602052604060002090565b805460ff19166001179055565b613c699150614033565b613c41565b613c76614ad0565b906000805160206160b083398151915291823b156104e057604051632e1a7d4d60e01b8152600481019190915260009283908290602490829084905af1801561088e57613e4c575b506040516370a0823160e01b80825260209291838180613ce13060048301610aba565b03816000805160206161108339815191525afa801561088e57613d0c918691613e2f575b5083612e93565b604051818152838180613d223060048301610aba565b03816000805160206161508339815191525afa801561088e57613d4d918691613e12575b5083612ebf565b604051818152838180613d633060048301610aba565b03816000805160206160d08339815191525afa801561088e57613d8e918691613df5575b5083612eeb565b613d9960ca54610737565b90604051908152838180613db03060048301610aba565b03816001600160a01b0386165afa93841561088e57610fff9594613dd6575b5050612f17565b613ded929450803d10610a07576109f88183610f90565b913880613dcf565b613e0c9150853d8711610a07576109f88183610f90565b38613d87565b613e299150853d8711610a07576109f88183610f90565b38613d46565b613e469150853d8711610a07576109f88183610f90565b38613d05565b80611f6b613e5992610f0c565b38613cbe565b6107c5939261ffff60609316825260018060a01b03166020820152816040820152019061078f565b919361ffff60a0946107c59796600180881b0380951686526020860152166040840152166060820152816080820152019061078f565b60cd54929392613ed89060081c6001600160a01b0316610737565b90604051630dc6346160e01b815260208180613ef9888a8960048501613e5f565b0381865afa90811561088e57600091613f64575b50613f1c61382960ca54610737565b833b156104e057613f4660009660405198899788968795633920455b60e11b875260048701613e87565b03925af1801561088e57613f575750565b80611f6b610fff92610f0c565b613f7c915060203d8111610a07576109f88183610f90565b38613f0d565b91908260409103126104e0576020825192015190565b926107c5949261ffff613fc69316855260018060a01b0316602085015260a0604085015260a084019061078f565b9160006060820152608081840391015261078f565b926140006107c597959361ffff61400e9416865260c0602087015260c086019061078f565b90848203604086015261078f565b6001600160a01b0391821660608401529316608082015280830360a09091015261078f565b60cb54604080516001600160601b0319606084811b8216602084015230901b16603482015290916140678260488101612f3e565b61ffff614078613829606554610737565b9160a01c166140a584614089614141565b81518093819263040a7bb160e41b83528a308860048601613f98565b0381865afa90811561088e57600091614113575b508047106140f5576140c9614141565b95833b156104e057613f46600096519788968795869462c5803160e81b86523092309260048801613fdb565b845162fae2d560e21b81526004810191909152476024820152604490fd5b6141339150853d871161413a575b61412b8183610f90565b810190613f82565b50386140b9565b503d614121565b604051600160f01b6020820152620f42406022820152602281526107c581610f3f565b95939196949290966000549760ff8960081c16158099819a61428c575b811561426c575b5015614210576141ae97896141a5600160ff196000541617600055565b6141f75761429a565b6141b457565b6141c461ff001960005416600055565b604051600181527f7f26b83ff96e1f2b6a682f133852f6798a09c465da95921460cefb3847402498908060208101613543565b61420b61010061ff00196000541617600055565b61429a565b60405162461bcd60e51b815260206004820152602e60248201527f496e697469616c697a61626c653a20636f6e747261637420697320616c72656160448201526d191e481a5b9a5d1a585b1a5e995960921b6064820152608490fd5b303b1591508161427e575b5038614188565b6001915060ff161438614277565b600160ff8216109150614181565b614334926142f161435696936142cf614313949b9a9b6142ca60ff60005460081c166142c581614535565b614535565b614a2c565b60c980546001600160a01b0319166001600160a01b0392909216919091179055565b60ca80546001600160a01b0319166001600160a01b0392909216919091179055565b60cb805461ffff60a01b191660a09290921b61ffff60a01b16919091179055565b60cb80546001600160a01b0319166001600160a01b0392909216919091179055565b61436161264860cc55565b61437561382961382961382960ca54610737565b9060405193849263313ce56760e01b845283600460209788935afa92831561088e576000946143fc61448b946143d18997614448958a91614518575b5060cb805460ff60c01b191660c09290921b60ff60c01b16919091179055565b6143db600060d055565b60cb805461ffff60b01b191660b09290921b61ffff60b01b16919091179055565b60cd8054610100600160a81b031916600885901b610100600160a81b03161790556001600160a01b039060ce8054919092166001600160a01b03166001600160a01b0319909116179055565b61445661382960ca54610737565b60405163095ea7b360e01b81526001600160a01b03909216600483015260001960248301529093849283919082906044820190565b03925af1801561088e576144ea575b50506144af6144aa60ca54610737565b614600565b6144c26144bd60ca54610737565b6146bc565b6144ca614734565b6144d26147ae565b6144da614836565b6144e26148b0565b610fff614999565b8161450992903d10614511575b6145018183610f90565b810190612f4c565b50388061449a565b503d6144f7565b61452f9150893d8b11611dcc57611dbe8183610f90565b386143b1565b1561453c57565b60405162461bcd60e51b815260206004820152602b60248201527f496e697469616c697a61626c653a20636f6e7472616374206973206e6f74206960448201526a6e697469616c697a696e6760a81b6064820152608490fd5b1561459c57565b60405162461bcd60e51b815260206004820152603660248201527f5361666545524332303a20617070726f76652066726f6d206e6f6e2d7a65726f60448201527520746f206e6f6e2d7a65726f20616c6c6f77616e636560501b6064820152608490fd5b604051636eb1769f60e11b81523060048201527368b3465833fb72a70ecdf485e0e4c7bd8665fc456024820152906020826044816001600160a01b0385165afa91821561088e57610fff9261465e9160009161469e575b5015614595565b60405163095ea7b360e01b60208201527368b3465833fb72a70ecdf485e0e4c7bd8665fc4560248201526000196044820152906118cc8260648101612f3e565b6146b6915060203d8111610a07576109f88183610f90565b38614657565b604051636eb1769f60e11b81523060048201526000805160206160108339815191526024820152906020826044816001600160a01b0385165afa91821561088e57610fff926147139160009161469e575015614595565b60405163095ea7b360e01b6020820152906118cc82612f3e60248201612e59565b604051636eb1769f60e11b815230600482015260008051602061601083398151915260248201526020816044816000805160206161508339815191525afa801561088e5761478a9160009161469e575015614595565b60405163095ea7b360e01b6020820152610fff90612ee68161126e60248201612e59565b604051636eb1769f60e11b81523060048201526000805160206160b0833981519152602482018190526020826044816000805160206161108339815191525afa91821561088e57610fff9261480b9160009161469e575015614595565b6040519063095ea7b360e01b60208301526024820152600019604482015260448152612eba81610f75565b604051636eb1769f60e11b815230600482015260008051602061601083398151915260248201526020816044816000805160206161108339815191525afa801561088e5761488c9160009161469e575015614595565b60405163095ea7b360e01b6020820152610fff90612eba8161126e60248201612e59565b604051636eb1769f60e11b815230600482015273195f7b233947d51f4c3b756ad41a5ddb34cebce060248201819052602091738f3cf7ad23cd3cadbd9735aff958023239c6a06391908381604481865afa801561088e57612fb1936149216000939284938491614982575015614595565b604051938685019063095ea7b360e01b82526024860152821960448601526044855261494c85610f75565b826040519561495a87610f5a565b8887526000805160206160908339815191528988015251925af161497c613125565b90613247565b6146b69150883d8a11610a07576109f88183610f90565b604051636eb1769f60e11b815230600482015260008051602061601083398151915260248201526020816044816000805160206160d08339815191525afa801561088e576149ef9160009161469e575015614595565b60405163095ea7b360e01b6020820152610fff90612f128161126e60248201612e59565b908160209103126104e0575160ff811681036104e05790565b614a4160ff60005460081c166142c581614535565b614a4a33612c1f565b614a5b60ff60005460081c16614535565b606580546001600160a01b0319166001600160a01b0392909216919091179055565b6040516246613160e11b81523060048201526020816024816000805160206160b08339815191525afa90811561088e57600091614ab8575090565b6107c5915060203d8111610a07576109f88183610f90565b6040516370a0823160e01b81523060048201526020816024816000805160206160b08339815191525afa90811561088e57600091614ab8575090565b604051906328bd9fc160e11b82526000805160206160d08339815191526004830152602482015260208160448173f68c20d6c50706f6c6bd8ee184382518c93b368c5afa801561088e576107c591600091614b68575b50614b86565b614b80915060203d8111610a07576109f88183610f90565b38614b62565b60405163313ce56760e01b8152906020826004816000805160206161508339815191525afa801561088e576107c592600091614bcd575b5060ff60cb5460c01c1691615fd2565b614be5915060203d8111611dcc57611dbe8183610f90565b38614bbd565b6001600160a01b039091168152600080516020616150833981519152602082015260016040820152606081019190915260800190565b60ca54604080516310e1b98f60e21b815292909183918291614c5091906001600160a01b031660048401614beb565b03816000805160206160108339815191525afa801561088e576000918291614c89575b50614c7d90614b86565b81018091116119525790565b614c7d9250614ca6915060403d811161413a5761412b8183610f90565b9091614c73565b60ff16604d811161195257600a0a90565b8115614cc8570490565b634e487b7160e01b600052601260045260246000fd5b60405163313ce56760e01b90818152602092600080516020616110833981519152918481600481865afa90811561088e57614d2a91614d2591600091614e16575b50614cad565b614c21565b60cb5460c01c60ff16916040518581528681600481885afa90811561088e57614d5d928591600093614dfe575b50615fd2565b91604051908582528682600481885afa90811561088e578793614d8793600093614ddf5750615fd2565b9360046040518095819382525afa93841561088e576107c594614dbd93614db792600092614dc2575b5050614cad565b90612c56565b614cbe565b614dd89250803d10611dcc57611dbe8183610f90565b3880614db0565b614df7919350853d8711611dcc57611dbe8183610f90565b9138614d57565b614df7919350893d8b11611dcc57611dbe8183610f90565b614e2d9150873d8911611dcc57611dbe8183610f90565b38614d1f565b614e4161382960ca54610737565b60405190816370a0823160e01b9182825260209384918180614e663060048301610aba565b03915afa90811561088e57600091614f07575b50614e82614a7d565b91604051908152838180614e993060048301610aba565b03816000805160206160d08339815191525afa93841561088e576107c594614edd94614ed793614ed293600093614ee8575b5050612927565b614b0c565b90612927565b614ed7614d25614ad0565b614eff929350803d10610a07576109f88183610f90565b903880614ecb565b614f1e9150833d8511610a07576109f88183610f90565b38614e79565b614f3c9060206040519282848094519384920161076c565b810103902090565b801561504857614f5961382961013554610737565b90614f6861382960ca54610737565b91803b156104e0576040516310cabd1d60e01b815260008051602061615083398151915260048201526001600160a01b0393909316602484015260448301829052606260648401526000929083908290608490829084905af19081615035575b50614ffb57614ff660008051602061603083398151915291614ff1614feb613125565b916150db565b614f24565b9180a2565b9060008051602061615083398151915260008051602061605083398151915260018060a01b0361502f61382960ca54610737565b169280a4565b80611f6b61504292610f0c565b38614fc8565b50565b6001600160401b038111610f1f5760051b60200190565b60209081818403126104e0578051906001600160401b0382116104e057019180601f840112156104e05782516150978161504b565b936150a56040519586610f90565b818552838086019260051b8201019283116104e0578301905b8282106150cc575050505090565b815181529083019083016150be565b6127106150f36150ea83614b86565b60cc5490612c56565b60ca546040516313dcfc5960e01b81526004810194909452919004602483015260008051602061615083398151915260448301526001600160a01b03166064820152600160848201523060a48201524260c482015260008160e481836000805160206160108339815191525af1801561088e5761516d5750565b615048903d806000833e6151818183610f90565b810190615062565b6151996127109160cc5490612c56565b0490565b8015615048576151b261382961013554610737565b906151c161382960ca54610737565b91803b156104e0576040516310cabd1d60e01b81526000805160206160d083398151915260048201526001600160a01b0393909316602484015260448301829052606260648401526000929083908290608490829084905af1908161527e575b5061524a57614ff660008051602061603083398151915291614ff1615244613125565b91615378565b906000805160206160d083398151915260008051602061605083398151915260018060a01b0361502f61382960ca54610737565b80611f6b61528b92610f0c565b38615221565b604090815161529f81610f3f565b600281528092600090815b8181106152b75750505050565b60209082516152c581610f3f565b84815282858183015285858301528287010152016152aa565b805160011015612b455760400190565b9291909594939560a084019084526020918285015260409160a08386015283518092528060c086019401926000905b838210615340575050506001600160a01b03909616606084015250935060800152565b845180516001600160a01b0390811688528185015116878501528101511515868201526060909501949382019360019091019061531d565b6000615382615291565b9161538b610ff2565b6000805160206160d083398151915281526153a86020820161337c565b8260408201526153b784612cc5565b526153c183612cc5565b506153d061382960ca54610737565b6153f56153db610ff2565b916153e58361337c565b6001600160a01b03166020830152565b60016040820152615405846152de565b5261540f836152de565b5061542161541c82614b0c565b615189565b604051631e82ecdb60e31b81529384928392615445924292309290600487016152ee565b0381836000805160206160108339815191525af161516d5750565b801561504857615471614ed2614a7d565b908082106155305750506000805160206160b0833981519152803b156104e05760008091600460405180948193631e8c5c8960e11b83525af1801561088e5761551d575b506040516370a0823160e01b8152602081806154d43060048301610aba565b03816000805160206160d08339815191525afa801561088e57610fff916000916154ff575b5061519d565b615517915060203d8111610a07576109f88183610f90565b386154f9565b80611f6b61552a92610f0c565b386154b5565b615548615543610fff9361555693612866565b614cde565b615550614ad0565b906138b8565b6000805160206160b0833981519152803b156104e05760408051631e8c5c8960e11b8152600093600492918581858183895af1801561088e576157ea575b5081516370a0823160e01b80825260209590918681806155b6308a8301610aba565b03816000805160206160d08339815191525afa801561088e576155df9189916157d3575061519d565b82156157ca57803b156157c6578684518092632e1a7d4d60e01b825281838161560f898c83019190602083019252565b03925af1801561088e576157b3575b5061562d61382960ca54610737565b83516310e1b98f60e21b81529290836156498383898401614beb565b0385856000805160206160108339815191529281845afa801561088e57898794899782908394615791575b506157059061569660cc54809261568f612710948592612c56565b0496612c56565b885163037b79b160e21b81526001600160a01b039098169c88019c8d5260008051602061615083398151915260208e0152600160408e015260608d019390935260808c019490945292900460a08a01523060c08a01524260e08a01529297889384929091839161010090910190565b03925af192831561088e5761572d948694615775575b50519384928392835230908301610aba565b03816000805160206161508339815191525afa91821561088e57610fff9392615758575b5050614f44565b61576e9250803d10610a07576109f88183610f90565b3880615751565b61578b90823d841161413a5761412b8183610f90565b5061571b565b61570594506157ad9150873d891161413a5761412b8183610f90565b93615674565b80611f6b6157c092610f0c565b3861561e565b8680fd5b50505050505050565b6155179150883d8a11610a07576109f88183610f90565b80611f6b6157f792610f0c565b38615594565b90600061580e61382960ca54610737565b9060405191826370a0823160e01b91828252602094859181806158343060048301610aba565b03915afa90811561088e576000916158de575b50858110156158d55761585d6158629187612866565b615460565b8261587161382960ca54610737565b604051928352829081806158883060048301610aba565b03915afa92831561088e576000936158b6575b5050818411156158b15750806107c59193612866565b919050565b6158cd929350803d10610a07576109f88183610f90565b90388061589b565b50505050600090565b6158f59150843d8611610a07576109f88183610f90565b38615847565b615906615556614ad0565b60ca546040516370a0823160e01b815230600482015290602090829060249082906001600160a01b03165afa90811561088e57600091614ab8575090565b6020815260806060615961845183602086015260a085019061078f565b60208501516001600160a01b03166040858101919091528501518285015293015191015290565b908160609103126104e0578051916040602083015192015190565b906000805160206160b0833981519152803b156104e057604092835191631e8c5c8960e11b83526000926004908481838183875af1801561088e57615fab575b5085516370a0823160e01b8082526020949091858180615a0530888301610aba565b03816000805160206160d08339815191525afa801561088e57615a2e918891615f94575061519d565b615a3c61382960ca54610737565b908851838152868180615a5130898301610aba565b0381865afa90811561088e578891615f77575b50818111615e0b575b5050508651818152848180615a8430878301610aba565b0381738f3cf7ad23cd3cadbd9735aff958023239c6a0635afa90811561088e578691615dee575b508481615d87575b50508651818152848180615ac930878301610aba565b03816000805160206161508339815191525afa90811561088e578691615d6a575b50615af961382960ca54610737565b885191838352868380615b0e30898301610aba565b0381855afa92831561088e578893615d4b575b5080151580615d42575b615bed575b5050508651908152838180615b4730868301610aba565b03816000805160206161108339815191525afa93841561088e578594615bce575b505082615b78575b505050509050565b813b15610eae5783615ba295965180968195829463b6b55f2560e01b845283019190602083019252565b03925af1801561088e57615bbb575b8080808493615b70565b80611f6b615bc892610f0c565b38615bb1565b615be5929450803d10610a07576109f88183610f90565b913880615b68565b89516326283ecf60e21b81526001600160a01b038316868201908152600080516020616150833981519152602082015260016040820152606081810195909552608081019290925290819060a001039083816000805160206160108339815191529381855afa91821561088e5784928a88938e82918394615d1c575b5051635a47ddc360e01b81526001600160a01b0390971694870194855260008051602061615083398151915260208601526001604086018190526060860191909152608085019290925260a0840182905260c08401919091523060e08401524261010084015284928391908290610120015b03925af1801561088e57615cf0575b80615b30565b81615d0f92903d10615d15575b615d078183610f90565b810190615988565b50615cea565b503d615cfd565b615d39919450615cdb9250873d8911615d1557615d078183610f90565b50939091615c69565b50821515615b2b565b615d63919350873d8911610a07576109f88183610f90565b9138615b21565b615d819150853d8711610a07576109f88183610f90565b38615aea565b885163a39fc2c560e01b81529182908190615da690309088840161347e565b03818973195f7b233947d51f4c3b756ad41a5ddb34cebce05af1801561088e57615dd1575b84615ab3565b615de790853d8711610a07576109f88183610f90565b5038615dcb565b615e059150853d8711610a07576109f88183610f90565b38615aab565b615e1e91615e1891612866565b60011c90565b90615e2f60cb5460ff9060c01c1690565b895163313ce56760e01b81529287848781738f3cf7ad23cd3cadbd9735aff958023239c6a0635afa92831561088e57615edc8c6150ea61271093615e858d988f98615f0f9b615ece9a92615f58575b5088615fd2565b925160609190911b6001600160601b031916888201908152601960ea1b6014820152738f3cf7ad23cd3cadbd9735aff958023239c6a06360601b601782015290968791602b0190565b03601f198101875286610f90565b0490615ee6610fd3565b92835230848401528b830152606082015289518093819263b858183f60e01b8352878301615944565b0381897368b3465833fb72a70ecdf485e0e4c7bd8665fc455af1801561088e57615f3b575b8080615a6d565b615f5190853d8711610a07576109f88183610f90565b5038615f34565b615f709192508b3d8d11611dcc57611dbe8183610f90565b9038615e7e565b615f8e9150873d8911610a07576109f88183610f90565b38615a64565b6155179150873d8911610a07576109f88183610f90565b80611f6b615fb892610f0c565b386159e3565b9060ff8091169116039060ff821161195257565b909160ff831660ff821611600014615ff957615ff46107c593614db792615fbe565b614cad565b615ff4616009916107c594615fbe565b90614cbe56fe000000000000000000000000cc25c0fd84737f44a7d38649b69491bbf0c7f083ab2169d52de19835827d46106e22dfb1c4261618a79928c57f4b4b0c2cfe4f93ea368a40e9570069bb8e6511d668293ad2e1f03b0d982431fd223de9f3b70ca68c0400cfe2d1199b1a725c78960bcc2a344d869b80590d0f2bd005db15a572ce5361666545524332303a206c6f772d6c6576656c2063616c6c206661696c656400000000000000000000000097bd59a8202f8263c2ec39cf6cf6b438d0b458760000000000000000000000007238390d5f6f64e67c3211c343a410e2a3dec1428be0079c531659141344cd1fd0a4f28419497f9722a3daafe3b4186f6b6457e0000000000000000000000000d17cb0f162f133e339c0bbfc18c36c357e681d6b6d1efadb607420c71e8f966ae6611a2b817ec83a98f82ae24284fd004cf9d40c00000000000000000000000040379a439d4f6795b6fc9aa5687db461677a2dbafa41487ad5d6728f0b19276fa1eddc16558578f5109fc39d2dc33c3230470dabb0c58532a125fc3c0adccaef396bf65344a4d5781cec2e4c593e6b611d75f150a26469706673582212201cec097fccc13c58cde986bfe2be954a3443a87914ffb3dbe1e949eefb53913564736f6c63430008130033",
  "linkReferences": {},
  "deployedLinkReferences": {}
}