{
  "_format": "hh-sol-artifact-1",
  "contractName": "MockPearlStrategy",
  "sourceName": "contracts/mock/MockPearlStrategy.sol",
  "abi": [
    {
      "inputs": [
        {
          "internalType": "uint256",
          "name": "messageType",
          "type": "uint256"
        }
      ],
      "name": "IncorrectMessageType",
      "type": "error"
    },
    {
      "inputs": [
        {
          "internalType": "uint256",
          "name": "amount",
          "type": "uint256"
        },
        {
          "internalType": "uint256",
          "name": "balance",
          "type": "uint256"
        }
      ],
      "name": "InsufficientFunds",
      "type": "error"
    },
    {
      "inputs": [],
      "name": "SwapHelperOnly",
      "type": "error"
    },
    {
      "anonymous": false,
      "inputs": [
        {
          "indexed": false,
          "internalType": "uint256",
          "name": "debtOutstanding",
          "type": "uint256"
        }
      ],
      "name": "AdjustedPosition",
      "type": "event"
    },
    {
      "anonymous": false,
      "inputs": [
        {
          "indexed": true,
          "internalType": "address",
          "name": "src",
          "type": "address"
        },
        {
          "indexed": true,
          "internalType": "address",
          "name": "dst",
          "type": "address"
        },
        {
          "indexed": true,
          "internalType": "uint256",
          "name": "amount",
          "type": "uint256"
        },
        {
          "indexed": false,
          "internalType": "bytes",
          "name": "lowLevelErrorData",
          "type": "bytes"
        }
      ],
      "name": "EmergencyQuoteOnAlternativeDEX",
      "type": "event"
    },
    {
      "anonymous": false,
      "inputs": [
        {
          "indexed": true,
          "internalType": "address",
          "name": "src",
          "type": "address"
        },
        {
          "indexed": true,
          "internalType": "address",
          "name": "dst",
          "type": "address"
        },
        {
          "indexed": true,
          "internalType": "uint256",
          "name": "amount",
          "type": "uint256"
        },
        {
          "indexed": false,
          "internalType": "bytes",
          "name": "lowLevelErrorData",
          "type": "bytes"
        }
      ],
      "name": "EmergencySwapOnAlternativeDEX",
      "type": "event"
    },
    {
      "anonymous": false,
      "inputs": [
        {
          "indexed": false,
          "internalType": "uint8",
          "name": "version",
          "type": "uint8"
        }
      ],
      "name": "Initialized",
      "type": "event"
    },
    {
      "anonymous": false,
      "inputs": [
        {
          "indexed": false,
          "internalType": "uint16",
          "name": "_srcChainId",
          "type": "uint16"
        },
        {
          "indexed": false,
          "internalType": "bytes",
          "name": "_srcAddress",
          "type": "bytes"
        },
        {
          "indexed": false,
          "internalType": "uint64",
          "name": "_nonce",
          "type": "uint64"
        },
        {
          "indexed": false,
          "internalType": "bytes",
          "name": "_payload",
          "type": "bytes"
        },
        {
          "indexed": false,
          "internalType": "bytes",
          "name": "_reason",
          "type": "bytes"
        }
      ],
      "name": "MessageFailed",
      "type": "event"
    },
    {
      "anonymous": false,
      "inputs": [
        {
          "indexed": true,
          "internalType": "address",
          "name": "src",
          "type": "address"
        },
        {
          "indexed": true,
          "internalType": "address",
          "name": "dst",
          "type": "address"
        },
        {
          "indexed": true,
          "internalType": "uint256",
          "name": "amountOut",
          "type": "uint256"
        },
        {
          "indexed": false,
          "internalType": "uint256",
          "name": "amountIn",
          "type": "uint256"
        }
      ],
      "name": "Notified",
      "type": "event"
    },
    {
      "anonymous": false,
      "inputs": [
        {
          "indexed": true,
          "internalType": "address",
          "name": "previousOwner",
          "type": "address"
        },
        {
          "indexed": true,
          "internalType": "address",
          "name": "newOwner",
          "type": "address"
        }
      ],
      "name": "OwnershipTransferred",
      "type": "event"
    },
    {
      "anonymous": false,
      "inputs": [
        {
          "indexed": true,
          "internalType": "address",
          "name": "src",
          "type": "address"
        },
        {
          "indexed": true,
          "internalType": "address",
          "name": "dst",
          "type": "address"
        },
        {
          "indexed": true,
          "internalType": "uint256",
          "name": "amount",
          "type": "uint256"
        }
      ],
      "name": "Quote",
      "type": "event"
    },
    {
      "anonymous": false,
      "inputs": [
        {
          "indexed": false,
          "internalType": "uint16",
          "name": "_srcChainId",
          "type": "uint16"
        },
        {
          "indexed": false,
          "internalType": "bytes",
          "name": "_srcAddress",
          "type": "bytes"
        },
        {
          "indexed": false,
          "internalType": "uint64",
          "name": "_nonce",
          "type": "uint64"
        },
        {
          "indexed": false,
          "internalType": "bytes32",
          "name": "_payloadHash",
          "type": "bytes32"
        }
      ],
      "name": "RetryMessageSuccess",
      "type": "event"
    },
    {
      "anonymous": false,
      "inputs": [
        {
          "indexed": false,
          "internalType": "uint16",
          "name": "_dstChainId",
          "type": "uint16"
        },
        {
          "indexed": false,
          "internalType": "uint16",
          "name": "_type",
          "type": "uint16"
        },
        {
          "indexed": false,
          "internalType": "uint256",
          "name": "_minDstGas",
          "type": "uint256"
        }
      ],
      "name": "SetMinDstGas",
      "type": "event"
    },
    {
      "anonymous": false,
      "inputs": [
        {
          "indexed": false,
          "internalType": "address",
          "name": "precrime",
          "type": "address"
        }
      ],
      "name": "SetPrecrime",
      "type": "event"
    },
    {
      "anonymous": false,
      "inputs": [
        {
          "indexed": false,
          "internalType": "uint16",
          "name": "_remoteChainId",
          "type": "uint16"
        },
        {
          "indexed": false,
          "internalType": "bytes",
          "name": "_path",
          "type": "bytes"
        }
      ],
      "name": "SetTrustedRemote",
      "type": "event"
    },
    {
      "anonymous": false,
      "inputs": [
        {
          "indexed": false,
          "internalType": "uint16",
          "name": "_remoteChainId",
          "type": "uint16"
        },
        {
          "indexed": false,
          "internalType": "bytes",
          "name": "_remoteAddress",
          "type": "bytes"
        }
      ],
      "name": "SetTrustedRemoteAddress",
      "type": "event"
    },
    {
      "anonymous": false,
      "inputs": [
        {
          "indexed": true,
          "internalType": "address",
          "name": "token",
          "type": "address"
        },
        {
          "indexed": false,
          "internalType": "uint256",
          "name": "amount",
          "type": "uint256"
        },
        {
          "indexed": false,
          "internalType": "address",
          "name": "sender",
          "type": "address"
        }
      ],
      "name": "SgReceived",
      "type": "event"
    },
    {
      "anonymous": false,
      "inputs": [
        {
          "indexed": false,
          "internalType": "address",
          "name": "newStrategy",
          "type": "address"
        }
      ],
      "name": "StrategyMigrated",
      "type": "event"
    },
    {
      "anonymous": false,
      "inputs": [
        {
          "indexed": false,
          "internalType": "uint256",
          "name": "profit",
          "type": "uint256"
        },
        {
          "indexed": false,
          "internalType": "uint256",
          "name": "loss",
          "type": "uint256"
        },
        {
          "indexed": false,
          "internalType": "uint256",
          "name": "debtPayment",
          "type": "uint256"
        },
        {
          "indexed": false,
          "internalType": "uint256",
          "name": "giveToStrategy",
          "type": "uint256"
        },
        {
          "indexed": false,
          "internalType": "uint256",
          "name": "requestFromStrategy",
          "type": "uint256"
        },
        {
          "indexed": false,
          "internalType": "uint256",
          "name": "creditAvailable",
          "type": "uint256"
        },
        {
          "indexed": false,
          "internalType": "uint256",
          "name": "totalAssets",
          "type": "uint256"
        }
      ],
      "name": "StrategyReported",
      "type": "event"
    },
    {
      "anonymous": false,
      "inputs": [
        {
          "indexed": true,
          "internalType": "address",
          "name": "src",
          "type": "address"
        },
        {
          "indexed": true,
          "internalType": "address",
          "name": "dst",
          "type": "address"
        },
        {
          "indexed": true,
          "internalType": "uint256",
          "name": "amount",
          "type": "uint256"
        }
      ],
      "name": "Swap",
      "type": "event"
    },
    {
      "inputs": [],
      "name": "DEFAULT_PAYLOAD_SIZE_LIMIT",
      "outputs": [
        {
          "internalType": "uint256",
          "name": "",
          "type": "uint256"
        }
      ],
      "stateMutability": "view",
      "type": "function"
    },
    {
      "inputs": [
        {
          "internalType": "uint256",
          "name": "_debtOutstanding",
          "type": "uint256"
        }
      ],
      "name": "adjustPosition",
      "outputs": [],
      "stateMutability": "nonpayable",
      "type": "function"
    },
    {
      "inputs": [],
      "name": "balanceOfWant",
      "outputs": [
        {
          "internalType": "uint256",
          "name": "",
          "type": "uint256"
        }
      ],
      "stateMutability": "view",
      "type": "function"
    },
    {
      "inputs": [
        {
          "internalType": "uint256",
          "name": "epoch",
          "type": "uint256"
        }
      ],
      "name": "callMe",
      "outputs": [],
      "stateMutability": "nonpayable",
      "type": "function"
    },
    {
      "inputs": [],
      "name": "clearWant",
      "outputs": [],
      "stateMutability": "nonpayable",
      "type": "function"
    },
    {
      "inputs": [],
      "name": "currentChainId",
      "outputs": [
        {
          "internalType": "uint16",
          "name": "",
          "type": "uint16"
        }
      ],
      "stateMutability": "view",
      "type": "function"
    },
    {
      "inputs": [],
      "name": "emergencyExit",
      "outputs": [
        {
          "internalType": "bool",
          "name": "",
          "type": "bool"
        }
      ],
      "stateMutability": "view",
      "type": "function"
    },
    {
      "inputs": [],
      "name": "estimatedTotalAssets",
      "outputs": [
        {
          "internalType": "uint256",
          "name": "",
          "type": "uint256"
        }
      ],
      "stateMutability": "view",
      "type": "function"
    },
    {
      "inputs": [
        {
          "internalType": "uint256",
          "name": "_stakedLpTokens",
          "type": "uint256"
        }
      ],
      "name": "exitPosition",
      "outputs": [],
      "stateMutability": "nonpayable",
      "type": "function"
    },
    {
      "inputs": [
        {
          "internalType": "uint16",
          "name": "",
          "type": "uint16"
        },
        {
          "internalType": "bytes",
          "name": "",
          "type": "bytes"
        },
        {
          "internalType": "uint64",
          "name": "",
          "type": "uint64"
        }
      ],
      "name": "failedMessages",
      "outputs": [
        {
          "internalType": "bytes32",
          "name": "",
          "type": "bytes32"
        }
      ],
      "stateMutability": "view",
      "type": "function"
    },
    {
      "inputs": [
        {
          "internalType": "uint16",
          "name": "_srcChainId",
          "type": "uint16"
        },
        {
          "internalType": "bytes",
          "name": "_srcAddress",
          "type": "bytes"
        }
      ],
      "name": "forceResumeReceive",
      "outputs": [],
      "stateMutability": "nonpayable",
      "type": "function"
    },
    {
      "inputs": [
        {
          "internalType": "uint16",
          "name": "_version",
          "type": "uint16"
        },
        {
          "internalType": "uint16",
          "name": "_chainId",
          "type": "uint16"
        },
        {
          "internalType": "address",
          "name": "",
          "type": "address"
        },
        {
          "internalType": "uint256",
          "name": "_configType",
          "type": "uint256"
        }
      ],
      "name": "getConfig",
      "outputs": [
        {
          "internalType": "bytes",
          "name": "",
          "type": "bytes"
        }
      ],
      "stateMutability": "view",
      "type": "function"
    },
    {
      "inputs": [
        {
          "internalType": "bytes32",
          "name": "_messageHash",
          "type": "bytes32"
        }
      ],
      "name": "getEthSignedMessageHash",
      "outputs": [
        {
          "internalType": "bytes32",
          "name": "",
          "type": "bytes32"
        }
      ],
      "stateMutability": "pure",
      "type": "function"
    },
    {
      "inputs": [
        {
          "internalType": "uint16",
          "name": "_remoteChainId",
          "type": "uint16"
        }
      ],
      "name": "getTrustedRemoteAddress",
      "outputs": [
        {
          "internalType": "bytes",
          "name": "",
          "type": "bytes"
        }
      ],
      "stateMutability": "view",
      "type": "function"
    },
    {
      "inputs": [
        {
          "internalType": "uint256",
          "name": "_totalDebt",
          "type": "uint256"
        },
        {
          "internalType": "uint256",
          "name": "_debtOutstanding",
          "type": "uint256"
        },
        {
          "internalType": "uint256",
          "name": "_creditAvailable",
          "type": "uint256"
        },
        {
          "internalType": "uint256",
          "name": "_debtRatio",
          "type": "uint256"
        },
        {
          "internalType": "bytes",
          "name": "_signature",
          "type": "bytes"
        }
      ],
      "name": "harvest",
      "outputs": [],
      "stateMutability": "nonpayable",
      "type": "function"
    },
    {
      "inputs": [
        {
          "internalType": "address",
          "name": "_lzEndpoint",
          "type": "address"
        },
        {
          "internalType": "address",
          "name": "_strategist",
          "type": "address"
        },
        {
          "internalType": "contract IERC20",
          "name": "_want",
          "type": "address"
        },
        {
          "internalType": "address",
          "name": "_vault",
          "type": "address"
        },
        {
          "internalType": "uint16",
          "name": "_vaultChainId",
          "type": "uint16"
        },
        {
          "internalType": "uint16",
          "name": "_currentChainId",
          "type": "uint16"
        },
        {
          "internalType": "address",
          "name": "_sgBridge",
          "type": "address"
        },
        {
          "internalType": "address",
          "name": "_router",
          "type": "address"
        }
      ],
      "name": "initialize",
      "outputs": [],
      "stateMutability": "nonpayable",
      "type": "function"
    },
    {
      "inputs": [
        {
          "internalType": "uint16",
          "name": "_srcChainId",
          "type": "uint16"
        },
        {
          "internalType": "bytes",
          "name": "_srcAddress",
          "type": "bytes"
        }
      ],
      "name": "isTrustedRemote",
      "outputs": [
        {
          "internalType": "bool",
          "name": "",
          "type": "bool"
        }
      ],
      "stateMutability": "view",
      "type": "function"
    },
    {
      "inputs": [],
      "name": "liquidateAllPositions",
      "outputs": [
        {
          "internalType": "uint256",
          "name": "",
          "type": "uint256"
        }
      ],
      "stateMutability": "nonpayable",
      "type": "function"
    },
    {
      "inputs": [
        {
          "internalType": "uint256",
          "name": "_amountNeeded",
          "type": "uint256"
        }
      ],
      "name": "liquidatePosition",
      "outputs": [],
      "stateMutability": "nonpayable",
      "type": "function"
    },
    {
      "inputs": [],
      "name": "lzEndpoint",
      "outputs": [
        {
          "internalType": "contract ILayerZeroEndpointUpgradeable",
          "name": "",
          "type": "address"
        }
      ],
      "stateMutability": "view",
      "type": "function"
    },
    {
      "inputs": [
        {
          "internalType": "uint16",
          "name": "_srcChainId",
          "type": "uint16"
        },
        {
          "internalType": "bytes",
          "name": "_srcAddress",
          "type": "bytes"
        },
        {
          "internalType": "uint64",
          "name": "_nonce",
          "type": "uint64"
        },
        {
          "internalType": "bytes",
          "name": "_payload",
          "type": "bytes"
        }
      ],
      "name": "lzReceive",
      "outputs": [],
      "stateMutability": "nonpayable",
      "type": "function"
    },
    {
      "inputs": [
        {
          "internalType": "uint16",
          "name": "",
          "type": "uint16"
        },
        {
          "internalType": "uint16",
          "name": "",
          "type": "uint16"
        }
      ],
      "name": "minDstGasLookup",
      "outputs": [
        {
          "internalType": "uint256",
          "name": "",
          "type": "uint256"
        }
      ],
      "stateMutability": "view",
      "type": "function"
    },
    {
      "inputs": [],
      "name": "name",
      "outputs": [
        {
          "internalType": "string",
          "name": "",
          "type": "string"
        }
      ],
      "stateMutability": "pure",
      "type": "function"
    },
    {
      "inputs": [
        {
          "internalType": "uint16",
          "name": "_srcChainId",
          "type": "uint16"
        },
        {
          "internalType": "bytes",
          "name": "_srcAddress",
          "type": "bytes"
        },
        {
          "internalType": "uint64",
          "name": "_nonce",
          "type": "uint64"
        },
        {
          "internalType": "bytes",
          "name": "_payload",
          "type": "bytes"
        }
      ],
      "name": "nonblockingLzReceive",
      "outputs": [],
      "stateMutability": "nonpayable",
      "type": "function"
    },
    {
      "inputs": [
        {
          "internalType": "address",
          "name": "src",
          "type": "address"
        },
        {
          "internalType": "address",
          "name": "dst",
          "type": "address"
        },
        {
          "internalType": "uint256",
          "name": "amountOut",
          "type": "uint256"
        },
        {
          "internalType": "uint256",
          "name": "amountIn",
          "type": "uint256"
        }
      ],
      "name": "notifyCallback",
      "outputs": [],
      "stateMutability": "nonpayable",
      "type": "function"
    },
    {
      "inputs": [],
      "name": "owner",
      "outputs": [
        {
          "internalType": "address",
          "name": "",
          "type": "address"
        }
      ],
      "stateMutability": "view",
      "type": "function"
    },
    {
      "inputs": [
        {
          "internalType": "uint16",
          "name": "",
          "type": "uint16"
        }
      ],
      "name": "payloadSizeLimitLookup",
      "outputs": [
        {
          "internalType": "uint256",
          "name": "",
          "type": "uint256"
        }
      ],
      "stateMutability": "view",
      "type": "function"
    },
    {
      "inputs": [],
      "name": "precrime",
      "outputs": [
        {
          "internalType": "address",
          "name": "",
          "type": "address"
        }
      ],
      "stateMutability": "view",
      "type": "function"
    },
    {
      "inputs": [],
      "name": "renounceOwnership",
      "outputs": [],
      "stateMutability": "nonpayable",
      "type": "function"
    },
    {
      "inputs": [
        {
          "internalType": "uint16",
          "name": "_srcChainId",
          "type": "uint16"
        },
        {
          "internalType": "bytes",
          "name": "_srcAddress",
          "type": "bytes"
        },
        {
          "internalType": "uint64",
          "name": "_nonce",
          "type": "uint64"
        },
        {
          "internalType": "bytes",
          "name": "_payload",
          "type": "bytes"
        }
      ],
      "name": "retryMessage",
      "outputs": [],
      "stateMutability": "payable",
      "type": "function"
    },
    {
      "inputs": [],
      "name": "revokeFunds",
      "outputs": [],
      "stateMutability": "nonpayable",
      "type": "function"
    },
    {
      "inputs": [
        {
          "internalType": "uint256",
          "name": "_pearlAmount",
          "type": "uint256"
        }
      ],
      "name": "sellPearl",
      "outputs": [],
      "stateMutability": "nonpayable",
      "type": "function"
    },
    {
      "inputs": [
        {
          "internalType": "uint256",
          "name": "_usdrAmount",
          "type": "uint256"
        }
      ],
      "name": "sellUsdr",
      "outputs": [],
      "stateMutability": "nonpayable",
      "type": "function"
    },
    {
      "inputs": [
        {
          "internalType": "uint16",
          "name": "_version",
          "type": "uint16"
        },
        {
          "internalType": "uint16",
          "name": "_chainId",
          "type": "uint16"
        },
        {
          "internalType": "uint256",
          "name": "_configType",
          "type": "uint256"
        },
        {
          "internalType": "bytes",
          "name": "_config",
          "type": "bytes"
        }
      ],
      "name": "setConfig",
      "outputs": [],
      "stateMutability": "nonpayable",
      "type": "function"
    },
    {
      "inputs": [
        {
          "internalType": "bool",
          "name": "_emergencyExit",
          "type": "bool"
        }
      ],
      "name": "setEmergencyExit",
      "outputs": [],
      "stateMutability": "nonpayable",
      "type": "function"
    },
    {
      "inputs": [
        {
          "internalType": "uint16",
          "name": "_dstChainId",
          "type": "uint16"
        },
        {
          "internalType": "uint16",
          "name": "_packetType",
          "type": "uint16"
        },
        {
          "internalType": "uint256",
          "name": "_minGas",
          "type": "uint256"
        }
      ],
      "name": "setMinDstGas",
      "outputs": [],
      "stateMutability": "nonpayable",
      "type": "function"
    },
    {
      "inputs": [
        {
          "internalType": "uint16",
          "name": "_dstChainId",
          "type": "uint16"
        },
        {
          "internalType": "uint256",
          "name": "_size",
          "type": "uint256"
        }
      ],
      "name": "setPayloadSizeLimit",
      "outputs": [],
      "stateMutability": "nonpayable",
      "type": "function"
    },
    {
      "inputs": [
        {
          "internalType": "address",
          "name": "_precrime",
          "type": "address"
        }
      ],
      "name": "setPrecrime",
      "outputs": [],
      "stateMutability": "nonpayable",
      "type": "function"
    },
    {
      "inputs": [
        {
          "internalType": "uint16",
          "name": "_version",
          "type": "uint16"
        }
      ],
      "name": "setReceiveVersion",
      "outputs": [],
      "stateMutability": "nonpayable",
      "type": "function"
    },
    {
      "inputs": [
        {
          "internalType": "uint16",
          "name": "_version",
          "type": "uint16"
        }
      ],
      "name": "setSendVersion",
      "outputs": [],
      "stateMutability": "nonpayable",
      "type": "function"
    },
    {
      "inputs": [
        {
          "internalType": "uint256",
          "name": "_slippage",
          "type": "uint256"
        }
      ],
      "name": "setSlippage",
      "outputs": [],
      "stateMutability": "nonpayable",
      "type": "function"
    },
    {
      "inputs": [
        {
          "internalType": "address",
          "name": "_strategist",
          "type": "address"
        }
      ],
      "name": "setStrategist",
      "outputs": [],
      "stateMutability": "nonpayable",
      "type": "function"
    },
    {
      "inputs": [
        {
          "components": [
            {
              "internalType": "contract ISwapHelper",
              "name": "swapHelper",
              "type": "address"
            },
            {
              "internalType": "uint256",
              "name": "quoteBuffer",
              "type": "uint256"
            },
            {
              "internalType": "bool",
              "name": "isQuoteBufferContainsHopToWantValue",
              "type": "bool"
            }
          ],
          "internalType": "struct SwapHelperDTO",
          "name": "__swapHelperDTO",
          "type": "tuple"
        }
      ],
      "name": "setSwapHelperDTO",
      "outputs": [],
      "stateMutability": "nonpayable",
      "type": "function"
    },
    {
      "inputs": [
        {
          "internalType": "uint16",
          "name": "_srcChainId",
          "type": "uint16"
        },
        {
          "internalType": "bytes",
          "name": "_path",
          "type": "bytes"
        }
      ],
      "name": "setTrustedRemote",
      "outputs": [],
      "stateMutability": "nonpayable",
      "type": "function"
    },
    {
      "inputs": [
        {
          "internalType": "uint16",
          "name": "_remoteChainId",
          "type": "uint16"
        },
        {
          "internalType": "bytes",
          "name": "_remoteAddress",
          "type": "bytes"
        }
      ],
      "name": "setTrustedRemoteAddress",
      "outputs": [],
      "stateMutability": "nonpayable",
      "type": "function"
    },
    {
      "inputs": [],
      "name": "sgBridge",
      "outputs": [
        {
          "internalType": "contract ISgBridge",
          "name": "",
          "type": "address"
        }
      ],
      "stateMutability": "view",
      "type": "function"
    },
    {
      "inputs": [
        {
          "internalType": "uint16",
          "name": "",
          "type": "uint16"
        },
        {
          "internalType": "bytes",
          "name": "_srcAddress",
          "type": "bytes"
        },
        {
          "internalType": "uint256",
          "name": "",
          "type": "uint256"
        },
        {
          "internalType": "address",
          "name": "_token",
          "type": "address"
        },
        {
          "internalType": "uint256",
          "name": "_amountLD",
          "type": "uint256"
        },
        {
          "internalType": "bytes",
          "name": "",
          "type": "bytes"
        }
      ],
      "name": "sgReceive",
      "outputs": [],
      "stateMutability": "nonpayable",
      "type": "function"
    },
    {
      "inputs": [],
      "name": "sgRouter",
      "outputs": [
        {
          "internalType": "contract IStargateRouter",
          "name": "",
          "type": "address"
        }
      ],
      "stateMutability": "view",
      "type": "function"
    },
    {
      "inputs": [],
      "name": "slippage",
      "outputs": [
        {
          "internalType": "uint256",
          "name": "",
          "type": "uint256"
        }
      ],
      "stateMutability": "view",
      "type": "function"
    },
    {
      "inputs": [],
      "name": "strategist",
      "outputs": [
        {
          "internalType": "address",
          "name": "",
          "type": "address"
        }
      ],
      "stateMutability": "view",
      "type": "function"
    },
    {
      "inputs": [],
      "name": "strategistSignMessageHash",
      "outputs": [
        {
          "internalType": "bytes32",
          "name": "",
          "type": "bytes32"
        }
      ],
      "stateMutability": "view",
      "type": "function"
    },
    {
      "inputs": [],
      "name": "swapHelper",
      "outputs": [
        {
          "internalType": "contract ISwapHelper",
          "name": "",
          "type": "address"
        }
      ],
      "stateMutability": "view",
      "type": "function"
    },
    {
      "inputs": [
        {
          "internalType": "contract IERC20",
          "name": "_token",
          "type": "address"
        }
      ],
      "name": "sweepToken",
      "outputs": [],
      "stateMutability": "nonpayable",
      "type": "function"
    },
    {
      "inputs": [
        {
          "internalType": "address",
          "name": "newOwner",
          "type": "address"
        }
      ],
      "name": "transferOwnership",
      "outputs": [],
      "stateMutability": "nonpayable",
      "type": "function"
    },
    {
      "inputs": [
        {
          "internalType": "uint16",
          "name": "",
          "type": "uint16"
        }
      ],
      "name": "trustedRemoteLookup",
      "outputs": [
        {
          "internalType": "bytes",
          "name": "",
          "type": "bytes"
        }
      ],
      "stateMutability": "view",
      "type": "function"
    },
    {
      "inputs": [],
      "name": "vault",
      "outputs": [
        {
          "internalType": "address",
          "name": "",
          "type": "address"
        }
      ],
      "stateMutability": "view",
      "type": "function"
    },
    {
      "inputs": [],
      "name": "vaultChainId",
      "outputs": [
        {
          "internalType": "uint16",
          "name": "",
          "type": "uint16"
        }
      ],
      "stateMutability": "view",
      "type": "function"
    },
    {
      "inputs": [],
      "name": "want",
      "outputs": [
        {
          "internalType": "contract IERC20",
          "name": "",
          "type": "address"
        }
      ],
      "stateMutability": "view",
      "type": "function"
    },
    {
      "inputs": [],
      "name": "wantDecimals",
      "outputs": [
        {
          "internalType": "uint8",
          "name": "",
          "type": "uint8"
        }
      ],
      "stateMutability": "view",
      "type": "function"
    },
    {
      "inputs": [
        {
          "internalType": "uint256",
          "name": "_amountNeeded",
          "type": "uint256"
        }
      ],
      "name": "withdrawSome",
      "outputs": [],
      "stateMutability": "nonpayable",
      "type": "function"
    },
    {
      "stateMutability": "payable",
      "type": "receive"
    }
  ],
  "bytecode": "0x608060405234801561001057600080fd5b506166d780620000216000396000f3fe6080604052600436106102aa5760003560e01c80621d3567146102b65780630517cb76146102d857806306fdde031461030e57806307e0db171461034d5780630df374831461036d5780630fc6a11c1461038d57806310ddb137146103ad5780631be19560146103cd5780631cdb539f146103ed5780631f1fcd511461040d5780631fe4a6861461042d5780632d6068431461044d57806337fded91146104625780633d3ccc2f146104875780633d8b38f6146104a75780633e032a3b146104d75780633f1f4fa4146104fb57806342d65a8d1461052857806345ee075514610548578063495f881e146105685780634a5f58d11461058857806350bb4beb146105a85780635641ec03146105bd578063567ad85d146105d7578063593178de1461060c5780635b8c41e61461062157806366ad5c8a146106705780636cbadbfa14610690578063715018a6146106b25780637533d788146106c757806378dc9059146106e75780638cfd8f5c146107075780638da5cb5b1461073f578063950c8a74146107545780639606647d146107745780639f38369a14610789578063a4ef57ab146107a9578063a6c3d165146107c9578063ab8236f3146107e9578063adf076e614610809578063ae9b051c1461083c578063b353aaa71461085c578063baf3292d1461087c578063c1a3d44c1461089c578063c4461834146108b1578063c7b9d530146108c7578063cbed8b9c146108e7578063cdddd4e514610907578063d1deba1f14610927578063df2a5b3b1461093a578063e73620c31461095a578063e96440441461097a578063eb8d72b71461099a578063efbb5cb0146109ba578063f056dffe146109cf578063f0fa55a9146109ef578063f2fde38b14610a0f578063f5ecbdbc14610a2f578063fa54080114610a4f578063fbfa77cf14610a6f57600080fd5b366102b157005b600080fd5b3480156102c257600080fd5b506102d66102d13660046152b0565b610a8f565b005b3480156102e457600080fd5b5060ce546102f8906001600160a01b031681565b6040516103059190615343565b60405180910390f35b34801561031a57600080fd5b5060408051808201909152600d81526c506561726c537472617465677960981b60208201525b60405161030591906153a7565b34801561035957600080fd5b506102d66103683660046153ba565b610b78565b34801561037957600080fd5b506102d66103883660046153d5565b610be5565b34801561039957600080fd5b5060d4546102f8906001600160a01b031681565b3480156103b957600080fd5b506102d66103c83660046153ba565b610c04565b3480156103d957600080fd5b506102d66103e8366004615414565b610c40565b3480156103f957600080fd5b506102d6610408366004615431565b610ccd565b34801561041957600080fd5b5060ca546102f8906001600160a01b031681565b34801561043957600080fd5b5060c9546102f8906001600160a01b031681565b34801561045957600080fd5b506102d6610f25565b34801561046e57600080fd5b5060cd546102f89061010090046001600160a01b031681565b34801561049357600080fd5b506102d66104a23660046154e3565b610f66565b3480156104b357600080fd5b506104c76104c23660046154fc565b610f9c565b6040519015158152602001610305565b3480156104e357600080fd5b506104ed60cc5481565b604051908152602001610305565b34801561050757600080fd5b506104ed6105163660046153ba565b60686020526000908152604090205481565b34801561053457600080fd5b506102d66105433660046154fc565b611069565b34801561055457600080fd5b506102d661056336600461555c565b6110dc565b34801561057457600080fd5b506102d6610583366004615664565b6110f7565b34801561059457600080fd5b506102d66105a33660046154e3565b61139b565b3480156105b457600080fd5b506104ed6113ca565b3480156105c957600080fd5b5060cd546104c79060ff1681565b3480156105e357600080fd5b5060cb546105f990600160a01b900461ffff1681565b60405161ffff9091168152602001610305565b34801561061857600080fd5b506104ed6113d9565b34801561062d57600080fd5b506104ed61063c3660046156c7565b6097602090815260009384526040808520845180860184018051928152908401958401959095209452929052825290205481565b34801561067c57600080fd5b506102d661068b3660046152b0565b611437565b34801561069c57600080fd5b5060cb546105f990600160b01b900461ffff1681565b3480156106be57600080fd5b506102d661150b565b3480156106d357600080fd5b506103406106e23660046153ba565b61151f565b3480156106f357600080fd5b506102d66107023660046154e3565b6115b9565b34801561071357600080fd5b506104ed610722366004615724565b606760209081526000928352604080842090915290825290205481565b34801561074b57600080fd5b506102f86115e8565b34801561076057600080fd5b506069546102f8906001600160a01b031681565b34801561078057600080fd5b506102d66115f7565b34801561079557600080fd5b506103406107a43660046153ba565b61168a565b3480156107b557600080fd5b506102d66107c4366004615757565b611799565b3480156107d557600080fd5b506102d66107e43660046154fc565b6117e1565b3480156107f557600080fd5b506102d66108043660046157bf565b61186a565b34801561081557600080fd5b5060cb5461082a90600160c01b900460ff1681565b60405160ff9091168152602001610305565b34801561084857600080fd5b506102d66108573660046154e3565b611964565b34801561086857600080fd5b506065546102f8906001600160a01b031681565b34801561088857600080fd5b506102d6610897366004615414565b611993565b3480156108a857600080fd5b506104ed6119e6565b3480156108bd57600080fd5b506104ed61271081565b3480156108d357600080fd5b506102d66108e2366004615414565b611a58565b3480156108f357600080fd5b506102d6610902366004615859565b611a82565b34801561091357600080fd5b506102d66109223660046154e3565b611af0565b6102d66109353660046152b0565b611afe565b34801561094657600080fd5b506102d66109553660046158c7565b611d14565b34801561096657600080fd5b506102d66109753660046154e3565b611dc6565b34801561098657600080fd5b506102d66109953660046154e3565b611de6565b3480156109a657600080fd5b506102d66109b53660046154fc565b611e15565b3480156109c657600080fd5b506104ed611e6f565b3480156109db57600080fd5b506102d66109ea366004615903565b612179565b3480156109fb57600080fd5b506102d6610a0a3660046154e3565b6121f8565b348015610a1b57600080fd5b506102d6610a2a366004615414565b612205565b348015610a3b57600080fd5b50610340610a4a366004615949565b61227b565b348015610a5b57600080fd5b506104ed610a6a3660046154e3565b612310565b348015610a7b57600080fd5b5060cb546102f8906001600160a01b031681565b6065546001600160a01b03163314610afa5760405162461bcd60e51b815260206004820152602360248201527f4261736553747261746567793a3a496e76616c6964456e64706f696e7443616c6044820152623632b960e91b60648201526084015b60405180910390fd5b610b708686868080601f01602080910402602001604051908101604052809392919081815260200183838082843760009201919091525050604080516020601f89018190048102820181019092528781528993509150879087908190840183828082843760009201919091525061236292505050565b505050505050565b610b806123db565b6065546040516307e0db1760e01b815261ffff831660048201526001600160a01b03909116906307e0db17906024015b600060405180830381600087803b158015610bca57600080fd5b505af1158015610bde573d6000803e3d6000fd5b5050505050565b610bed6123db565b61ffff909116600090815260686020526040902055565b610c0c6123db565b6065546040516310ddb13760e01b815261ffff831660048201526001600160a01b03909116906310ddb13790602401610bb0565b610c4861243a565b610cca33826001600160a01b03166370a08231306040518263ffffffff1660e01b8152600401610c789190615343565b602060405180830381865afa158015610c95573d6000803e3d6000fd5b505050506040513d601f19601f82011682018060405250810190610cb99190615996565b6001600160a01b0384169190612493565b50565b600054610100900460ff1615808015610ced5750600054600160ff909116105b80610d0e5750610cfc306124e9565b158015610d0e575060005460ff166001145b610d715760405162461bcd60e51b815260206004820152602e60248201527f496e697469616c697a61626c653a20636f6e747261637420697320616c72656160448201526d191e481a5b9a5d1a585b1a5e995960921b6064820152608401610af1565b6000805460ff191660011790558015610d94576000805461ff0019166101001790555b610da789898989898989896126486124f8565b60ca54610dd4906001600160a01b03167368b3465833fb72a70ecdf485e0e4c7bd8665fc456000196126d7565b60ca54610dfb906001600160a01b03166000805160206165e28339815191526000196126d7565b610e246000805160206166628339815191526000805160206165e28339815191526000196126d7565b610e4d6000805160206166428339815191526000805160206166028339815191526000196126d7565b610e766000805160206166428339815191526000805160206165e28339815191526000196126d7565b610eab738f3cf7ad23cd3cadbd9735aff958023239c6a06373195f7b233947d51f4c3b756ad41a5ddb34cebce06000196126d7565b610ed46000805160206166228339815191526000805160206165e28339815191526000196126d7565b8015610f1a576000805461ff0019169055604051600181527f7f26b83ff96e1f2b6a682f133852f6798a09c465da95921460cefb38474024989060200160405180910390a15b505050505050505050565b610f2d61243a565b60c9546040516001600160a01b03909116904780156108fc02916000818181858888f19350505050158015610cca573d6000803e3d6000fd5b610f6e61243a565b610f77816127db565b604051818152600080516020616682833981519152906020015b60405180910390a150565b61ffff831660009081526066602052604081208054829190610fbd906159af565b80601f0160208091040260200160405190810160405280929190818152602001828054610fe9906159af565b80156110365780601f1061100b57610100808354040283529160200191611036565b820191906000526020600020905b81548152906001019060200180831161101957829003601f168201915b50505050509050838360405161104d9291906159e9565b60405180910390208180519060200120149150505b9392505050565b6110716123db565b6065546040516342d65a8d60e01b81526001600160a01b03909116906342d65a8d906110a590869086908690600401615a22565b600060405180830381600087803b1580156110bf57600080fd5b505af11580156110d3573d6000803e3d6000fd5b50505050505050565b6110e461243a565b60cd805460ff1916911515919091179055565b6110ff61243a565b61110881612f25565b60cd546000908190819060ff16156111b45784156111685760405162461bcd60e51b815260206004820152601e60248201527f4261736553747261746567793a3a44656274526174696f4e6f745a65726f00006044820152606401610af1565b6000611172612fab565b90508781101561118d576111868189615a56565b92506111a2565b878111156111a25761119f8882615a56565b93505b6111ac8389615a56565b9150506111c6565b6111be8888613076565b919450925090505b60006111d28285615a69565b9050600080888310156111f4576111e9838a615a56565b915060009050611205565b600091506112028984615a56565b90505b6000604051806101600160405280306001600160a01b031681526020014281526020018881526020018781526020018681526020018481526020018381526020018b815260200183611255611e6f565b61125f9190615a56565b815260200160d0600081548092919061127790615a7c565b909155508152602001899052905081156112d75760cb546040516112d291849161ffff600160a01b830416916001600160a01b0316906112be906002908790602001615acd565b60405160208183030381529060405261316d565b611302565b6113026002826040516020016112ee929190615acd565b60405160208183030381529060405261325b565b7fb983e09c034e9c52b5e547cb0589967992b97717733f580cc5ad0afcdc4b522b8160400151826060015183608001518460a001518560c001518660e001518761010001516040516113859796959493929190968752602087019590955260408601939093526060850191909152608084015260a083015260c082015260e00190565b60405180910390a1505050505050505050505050565b60ca5460cb54610cca9183916001600160a01b0390911690600160c01b900460ff1660d16133db613474613485565b60006113d4612fab565b905090565b60d05460cb546040513060601b6001600160601b03191660208201526034810192909252600160b01b900460f01b6001600160f01b031916605482015260009060560160405160208183030381529060405280519060200120905090565b3330146114955760405162461bcd60e51b815260206004820152602660248201527f4e6f6e626c6f636b696e674c7a4170703a2063616c6c6572206d7573742062656044820152650204c7a4170760d41b6064820152608401610af1565b610b708686868080601f01602080910402602001604051908101604052809392919081815260200183838082843760009201919091525050604080516020601f8901819004810282018101909252878152899350915087908790819084018382808284376000920191909152506135b492505050565b6115136123db565b61151d60006136ca565b565b60666020526000908152604090208054611538906159af565b80601f0160208091040260200160405190810160405280929190818152602001828054611564906159af565b80156115b15780601f10611586576101008083540402835291602001916115b1565b820191906000526020600020905b81548152906001019060200180831161159457829003601f168201915b505050505081565b60ca5460cb54610cca9183916001600160a01b0390911690600160c01b900460ff1660d16133db61347461371c565b6033546001600160a01b031690565b6115ff61243a565b60ca546040516370a0823160e01b815261151d916001916001600160a01b03909116906370a0823190611636903090600401615343565b602060405180830381865afa158015611653573d6000803e3d6000fd5b505050506040513d601f19601f820116820180604052508101906116779190615996565b60ca546001600160a01b03169190612493565b61ffff81166000908152606660205260408120805460609291906116ad906159af565b80601f01602080910402602001604051908101604052809291908181526020018280546116d9906159af565b80156117265780601f106116fb57610100808354040283529160200191611726565b820191906000526020600020905b81548152906001019060200180831161170957829003601f168201915b50505050509050805160000361177e5760405162461bcd60e51b815260206004820152601d60248201527f4c7a4170703a206e6f20747275737465642070617468207265636f72640000006044820152606401610af1565b6110626000601483516117919190615a56565b839190613a4b565b6117a1613b58565b805160d180546001600160a01b0319166001600160a01b03909216919091179055602081015160d2556040015160d3805460ff1916911515919091179055565b6117e96123db565b8181306040516020016117fe93929190615b81565b60408051601f1981840301815291815261ffff85166000908152606660205220906118299082615bfd565b507f8c0400cfe2d1199b1a725c78960bcc2a344d869b80590d0f2bd005db15a572ce83838360405161185d93929190615a22565b60405180910390a1505050565b60ce546001600160a01b0316331480611892575060cd5461010090046001600160a01b031633145b6118dd5760405162461bcd60e51b815260206004820152601c60248201527b53674272696467653a3a526f757465724f724272696467654f6e6c7960201b6044820152606401610af1565b60006118eb86826014613a4b565b6040516020016118fb9190615cb6565b60405160208183030381529060405261191390615cd2565b60601c9050836001600160a01b03167f92073a89a07a000083eb8b2575fc15e7bb936efe55d00727d6942a796d7211a78483604051611953929190615d09565b60405180910390a250505050505050565b60ca5460cb54610cca9183916001600160a01b0390911690600160c01b900460ff1660d16133db613474613bc7565b61199b6123db565b606980546001600160a01b0319166001600160a01b0383161790556040517f5db758e995a17ec1ad84bdef7e8c3293a0bd6179bcce400dff5d4c3d87db726b90610f91908390615343565b60ca546040516370a0823160e01b81526000916001600160a01b0316906370a0823190611a17903090600401615343565b602060405180830381865afa158015611a34573d6000803e3d6000fd5b505050506040513d601f19601f820116820180604052508101906113d49190615996565b611a606123db565b60c980546001600160a01b0319166001600160a01b0392909216919091179055565b611a8a6123db565b6065546040516332fb62e760e21b81526001600160a01b039091169063cbed8b9c90611ac29088908890889088908890600401615d20565b600060405180830381600087803b158015611adc57600080fd5b505af1158015610f1a573d6000803e3d6000fd5b611af981613d14565b505050565b61ffff86166000908152609760205260408082209051611b2190889088906159e9565b90815260408051602092819003830190206001600160401b03871660009081529252902054905080611ba15760405162461bcd60e51b815260206004820152602360248201527f4e6f6e626c6f636b696e674c7a4170703a206e6f2073746f726564206d65737360448201526261676560e81b6064820152608401610af1565b808383604051611bb29291906159e9565b604051809103902014611c115760405162461bcd60e51b815260206004820152602160248201527f4e6f6e626c6f636b696e674c7a4170703a20696e76616c6964207061796c6f616044820152601960fa1b6064820152608401610af1565b61ffff87166000908152609760205260408082209051611c3490899089906159e9565b90815260408051602092819003830181206001600160401b038916600090815290845282902093909355601f88018290048202830182019052868252611ccc918991899089908190840183828082843760009201919091525050604080516020601f8a018190048102820181019092528881528a9350915088908890819084018382808284376000920191909152506135b492505050565b7fc264d91f3adc5588250e1551f547752ca0cfa8f6b530d243b9f9f4cab10ea8e58787878785604051611d03959493929190615d4e565b60405180910390a150505050505050565b611d1c6123db565b60008111611d645760405162461bcd60e51b81526020600482015260156024820152744c7a4170703a20696e76616c6964206d696e47617360581b6044820152606401610af1565b61ffff83811660008181526067602090815260408083209487168084529482529182902085905581519283528201929092529081018290527f9d5c7c0b934da8fefa9c7760c98383778a12dfbfc0c3b3106518f43fb9508ac09060600161185d565b611dce6123db565b600090815260cf60205260409020805460ff19169055565b60ca5460cb54610cca9183916001600160a01b0390911690600160c01b900460ff1660d16133db613474613e6d565b611e1d6123db565b61ffff83166000908152606660205260409020611e3b828483615d89565b507ffa41487ad5d6728f0b19276fa1eddc16558578f5109fc39d2dc33c3230470dab83838360405161185d93929190615a22565b600073__$c227fba7995d6bae65c253a840cdb49c5a$__6330d15a9d73__$c227fba7995d6bae65c253a840cdb49c5a$__638f4508d06040518163ffffffff1660e01b8152600401602060405180830381865af4158015611ed4573d6000803e3d6000fd5b505050506040513d601f19601f82011682018060405250810190611ef89190615996565b60ca5460cb5460405160e085901b6001600160e01b031916815260048101939093526001600160a01b039091166024830152600160c01b900460ff166044820152606401602060405180830381865af4158015611f59573d6000803e3d6000fd5b505050506040513d601f19601f82011682018060405250810190611f7d9190615996565b6040516370a0823160e01b815273__$c227fba7995d6bae65c253a840cdb49c5a$__9063af8e395490600080516020616622833981519152906370a0823190611fca903090600401615343565b602060405180830381865afa158015611fe7573d6000803e3d6000fd5b505050506040513d601f19601f8201168201806040525081019061200b9190615996565b73__$c227fba7995d6bae65c253a840cdb49c5a$__63d56739ac6040518163ffffffff1660e01b8152600401602060405180830381865af4158015612054573d6000803e3d6000fd5b505050506040513d601f19601f820116820180604052508101906120789190615996565b6120829190615a69565b60cb5460405160e084901b6001600160e01b03191681526004810192909252600160c01b900460ff166024820152604401602060405180830381865af41580156120d0573d6000803e3d6000fd5b505050506040513d601f19601f820116820180604052508101906120f49190615996565b60ca546040516370a0823160e01b81526001600160a01b03909116906370a0823190612124903090600401615343565b602060405180830381865afa158015612141573d6000803e3d6000fd5b505050506040513d601f19601f820116820180604052508101906121659190615996565b61216f9190615a69565b6113d49190615a69565b60d1546001600160a01b031633146121a457604051630336158960e61b815260040160405180910390fd5b81836001600160a01b0316856001600160a01b03167f9b2db766e04dc7ee1cc19d1415531ad5b3fd566db4f745d9a8ad51e3d3fe1bd7846040516121ea91815260200190565b60405180910390a450505050565b61220061243a565b60cc55565b61220d6123db565b6001600160a01b0381166122725760405162461bcd60e51b815260206004820152602660248201527f4f776e61626c653a206e6577206f776e657220697320746865207a65726f206160448201526564647265737360d01b6064820152608401610af1565b610cca816136ca565b606554604051633d7b2f6f60e21b815261ffff808716600483015285166024820152306044820152606481018390526060916001600160a01b03169063f5ecbdbc90608401600060405180830381865afa1580156122dd573d6000803e3d6000fd5b505050506040513d6000823e601f3d908101601f191682016040526123059190810190615e42565b90505b949350505050565b6040517b0ca2ba3432b932bab69029b4b3b732b21026b2b9b9b0b3b29d05199960211b6020820152603c8101829052600090605c01604051602081830303815290604052805190602001209050919050565b6000806123c55a60966366ad5c8a60e01b8989898960405160240161238a9493929190615eaf565b60408051601f198184030181529190526020810180516001600160e01b03166001600160e01b03199093169290921790915230929190613f7e565b9150915081610b7057610b70868686868561400a565b336123e46115e8565b6001600160a01b03161461151d5760405162461bcd60e51b815260206004820181905260248201527f4f776e61626c653a2063616c6c6572206973206e6f7420746865206f776e65726044820152606401610af1565b60c9546001600160a01b0316331461151d5760405162461bcd60e51b815260206004820152601c60248201527b10985cd954dd1c985d1959de4e8e93db9b1e54dd1c985d1959da5cdd60221b6044820152606401610af1565b611af98363a9059cbb60e01b84846040516024016124b2929190615eed565b60408051601f198184030181529190526020810180516001600160e01b03166001600160e01b0319909316929092179091526140a7565b6001600160a01b03163b151590565b600054610100900460ff1661251f5760405162461bcd60e51b8152600401610af190615f06565b6125288961417c565b60c980546001600160a01b03808b166001600160a01b03199283161790925560ca80548a8416908316811790915560cb8054938a1661ffff8a16600160a01b029093166001600160b01b0319909416939093179190911790915560cc8290556040805163313ce56760e01b8152905163313ce567916004808201926020929091908290030181865afa1580156125c2573d6000803e3d6000fd5b505050506040513d601f19601f820116820180604052508101906125e69190615f51565b60cb8054600060d05562ffffff60b01b1916600160c01b60ff939093169290920261ffff60b01b191691909117600160b01b61ffff87160217905560cd8054610100600160a81b0319166101006001600160a01b03868116919091029190911790915560ce80546001600160a01b03191684831617905560ca5460405163095ea7b360e01b815291169063095ea7b39061268890869060001990600401615eed565b6020604051808303816000875af11580156126a7573d6000803e3d6000fd5b505050506040513d601f19601f820116820180604052508101906126cb9190615f74565b50505050505050505050565b8015806127515750604051636eb1769f60e11b81523060048201526001600160a01b03838116602483015284169063dd62ed3e90604401602060405180830381865afa15801561272b573d6000803e3d6000fd5b505050506040513d601f19601f8201168201806040525081019061274f9190615996565b155b6127bc5760405162461bcd60e51b815260206004820152603660248201527f5361666545524332303a20617070726f76652066726f6d206e6f6e2d7a65726f60448201527520746f206e6f6e2d7a65726f20616c6c6f77616e636560501b6064820152608401610af1565b611af98363095ea7b360e01b84846040516024016124b2929190615eed565b6000805160206166028339815191526001600160a01b0316633d18b9126040518163ffffffff1660e01b8152600401600060405180830381600087803b15801561282457600080fd5b505af1158015612838573d6000803e3d6000fd5b50506040516370a0823160e01b81526128db925060008051602061662283398151915291506370a0823190612871903090600401615343565b602060405180830381865afa15801561288e573d6000803e3d6000fd5b505050506040513d601f19601f820116820180604052508101906128b29190615996565b60ca5460cb546001600160a01b0390911690600160c01b900460ff1660d16133db613474613485565b60ca546040516370a0823160e01b81526000916001600160a01b0316906370a082319061290c903090600401615343565b602060405180830381865afa158015612929573d6000803e3d6000fd5b505050506040513d601f19601f8201168201806040525081019061294d9190615996565b905081811115612b025760006129638383615a56565b90506000612972600283615f91565b90506000612a058260cb60189054906101000a900460ff16738f3cf7ad23cd3cadbd9735aff958023239c6a0636001600160a01b031663313ce5676040518163ffffffff1660e01b8152600401602060405180830381865afa1580156129dc573d6000803e3d6000fd5b505050506040513d601f19601f82011682018060405250810190612a009190615f51565b6141b4565b6040805160808101825260ca546001600160601b0319606091821b1660a0830152601960ea1b60b4830152738f3cf7ad23cd3cadbd9735aff958023239c6a06360601b60b7830152825160ab81840301815260cb830184528252306020830152918101859052919250600091908101612a7d84614209565b905260405163b858183f60e01b81529091507368b3465833fb72a70ecdf485e0e4c7bd8665fc459063b858183f90612ab9908490600401615fb3565b6020604051808303816000875af1158015612ad8573d6000803e3d6000fd5b505050506040513d601f19601f82011682018060405250810190612afc9190615996565b50505050505b6040516370a0823160e01b8152600090738f3cf7ad23cd3cadbd9735aff958023239c6a063906370a0823190612b3c903090600401615343565b602060405180830381865afa158015612b59573d6000803e3d6000fd5b505050506040513d601f19601f82011682018060405250810190612b7d9190615996565b90508015612c035760405163a39fc2c560e01b815273195f7b233947d51f4c3b756ad41a5ddb34cebce09063a39fc2c590612bbe9084903090600401615d09565b6020604051808303816000875af1158015612bdd573d6000803e3d6000fd5b505050506040513d601f19601f82011682018060405250810190612c019190615996565b505b6040516370a0823160e01b8152600090600080516020616662833981519152906370a0823190612c37903090600401615343565b602060405180830381865afa158015612c54573d6000803e3d6000fd5b505050506040513d601f19601f82011682018060405250810190612c789190615996565b60ca546040516370a0823160e01b81529192506001600160a01b0316906370a0823190612ca9903090600401615343565b602060405180830381865afa158015612cc6573d6000803e3d6000fd5b505050506040513d601f19601f82011682018060405250810190612cea9190615996565b9250600081118015612cfc5750600083115b15612e765760ca546040516326283ecf60e21b81526001600160a01b039091166004820152600080516020616662833981519152602482015260016044820152606481018490526084810182905260009081906000805160206165e2833981519152906398a0fb3c9060a401606060405180830381865afa158015612d85573d6000803e3d6000fd5b505050506040513d601f19601f82011682018060405250810190612da99190616001565b5060ca54604051635a47ddc360e01b81526001600160a01b0390911660048201526000805160206166628339815191526024820152600160448201819052606482018490526084820183905260a4820181905260c48201523060e48201524261010482015291935091506000805160206165e283398151915290635a47ddc390610124016060604051808303816000875af1158015612e4c573d6000803e3d6000fd5b505050506040513d601f19601f82011682018060405250810190612e709190616001565b50505050505b6040516370a0823160e01b8152600090600080516020616642833981519152906370a0823190612eaa903090600401615343565b602060405180830381865afa158015612ec7573d6000803e3d6000fd5b505050506040513d601f19601f82011682018060405250810190612eeb9190615996565b90508015610bde5760405163b6b55f2560e01b8152600481018290526000805160206166028339815191529063b6b55f2590602401611ac2565b6000612f2f6113d9565b90506000612f3c82612310565b60c9549091506001600160a01b0316612f558285614226565b6001600160a01b031614611af95760405162461bcd60e51b815260206004820152601e60248201527f4261736553747261746567793a3a496e76616c69645369676e617475726500006044820152606401610af1565b600061304673__$c227fba7995d6bae65c253a840cdb49c5a$__638f4508d06040518163ffffffff1660e01b8152600401602060405180830381865af4158015612ff9573d6000803e3d6000fd5b505050506040513d601f19601f8201168201806040525081019061301d9190615996565b60ca5460cb546001600160a01b0390911690600160c01b900460ff1660d16133db61347461371c565b60ca546040516370a0823160e01b81526001600160a01b03909116906370a0823190611a17903090600401615343565b600080600080613084611e6f565b90508581106130a2576130978682615a56565b9350600092506130b3565b600093506130b08187615a56565b92505b6130c56130c08587615a69565b613d14565b505060ca546040516370a0823160e01b81526000916001600160a01b0316906370a08231906130f8903090600401615343565b602060405180830381865afa158015613115573d6000803e3d6000fd5b505050506040513d601f19601f820116820180604052508101906131399190615996565b905084811161314e5780945060009250613164565b61316161315b8683615a56565b8761424a565b92505b50509250925092565b60cd54604051630dc6346160e01b815260009161010090046001600160a01b031690630dc63461906131a79087908790879060040161602f565b602060405180830381865afa1580156131c4573d6000803e3d6000fd5b505050506040513d601f19601f820116820180604052508101906131e89190615996565b60cd5460ca54604051633920455b60e11b81529293506001600160a01b036101009092048216926372408ab692859261322e929116908a908a908a908a9060040161605d565b6000604051808303818588803b15801561324757600080fd5b505af11580156126cb573d6000803e3d6000fd5b60cb5460408051606083811b6001600160601b03199081166020840152309182901b16603483015282516028818403018152604890920190925260655490926000926001600160a01b03909216916340a7bb109161ffff600160a01b909104169086856132c6614260565b6040518663ffffffff1660e01b81526004016132e695949392919061609a565b6040805180830381865afa158015613302573d6000803e3d6000fd5b505050506040513d601f19601f8201168201806040525081019061332691906160ee565b509050804710156133525760405162fae2d560e21b815260048101829052476024820152604401610af1565b60655460cb546001600160a01b039091169063c5803100908390600160a01b900461ffff1685873080613383614260565b6040518863ffffffff1660e01b81526004016133a496959493929190616112565b6000604051808303818588803b1580156133bd57600080fd5b505af11580156133d1573d6000803e3d6000fd5b5050505050505050565b805160000361342a5781836001600160a01b0316856001600160a01b03167fea368a40e9570069bb8e6511d668293ad2e1f03b0d982431fd223de9f3b70ca660405160405180910390a461346e565b81836001600160a01b0316856001600160a01b03167f583bc203f4bd38722d9ba88ecb248da508149e0e405a42dbc1b1f7d55a8be0c1846040516121ea91906153a7565b50505050565b600061347f82614209565b92915050565b8515610b705782546001600160a01b03166310cabd1d60008051602061662283398151915287896127106134bc6126486064616179565b6134c69190615f91565b6040518563ffffffff1660e01b81526004016134e59493929190616190565b600060405180830381600087803b1580156134ff57600080fd5b505af1925050508015613510575060015b613574573d80801561353e576040519150601f19603f3d011682016040523d82523d6000602084013e613543565b606091505b5061355087868885614290565b61356e6000805160206166228339815191528789848763ffffffff16565b50610b70565b610b706000805160206166228339815191528688600060405160200161359c91815260200190565b6040516020818303038152906040528663ffffffff16565b60cb5461ffff858116600160a01b909204161461361e5760405162461bcd60e51b815260206004820152602260248201527f4261736553747261746567793a3a5661756c74436861696e49644d69736d61746044820152610c6d60f31b6064820152608401610af1565b600061362c84826014613a4b565b60405160200161363c9190615cb6565b60405160208183030381529060405261365490615cd2565b60cb5460609190911c91506001600160a01b031681146136c15760405162461bcd60e51b815260206004820152602260248201527f4261736553747261746567793a3a5661756c74416464726573734d69736d61746044820152610c6d60f31b6064820152608401610af1565b610bde82614428565b603380546001600160a01b038381166001600160a01b0319831681179093556040519116919082907f8be0079c531659141344cd1fd0a4f28419497f9722a3daafe3b4186f6b6457e090600090a35050565b6000805160206166028339815191526001600160a01b0316633d18b9126040518163ffffffff1660e01b8152600401600060405180830381600087803b15801561376557600080fd5b505af1158015613779573d6000803e3d6000fd5b50506040516370a0823160e01b81526137fd925060008051602061662283398151915291506370a08231906137b2903090600401615343565b602060405180830381865afa1580156137cf573d6000803e3d6000fd5b505050506040513d601f19601f820116820180604052508101906137f39190615996565b8686868686613485565b8515610b7057604051632e1a7d4d60e01b81526004810187905260008051602061660283398151915290632e1a7d4d90602401600060405180830381600087803b15801561384a57600080fd5b505af115801561385e573d6000803e3d6000fd5b50506040516310e1b98f60e21b8152600092508291506000805160206165e283398151915290634386e63c906138ad908a90600080516020616662833981519152906001908e906004016161bb565b6040805180830381865afa1580156138c9573d6000803e3d6000fd5b505050506040513d601f19601f820116820180604052508101906138ed91906160ee565b90925090506000805160206165e2833981519152630dede6c48860008051602061666283398151915260018c6139268863ffffffff8b16565b613933888b63ffffffff16565b6040516001600160e01b031960e089901b1681526001600160a01b03968716600482015295909416602486015291151560448501526064840152608483015260a48201523060c48201524260e48201526101040160408051808303816000875af11580156139a5573d6000803e3d6000fd5b505050506040513d601f19601f820116820180604052508101906139c991906160ee565b50506040516370a0823160e01b81526133d190600080516020616662833981519152906370a0823190613a00903090600401615343565b602060405180830381865afa158015613a1d573d6000803e3d6000fd5b505050506040513d601f19601f82011682018060405250810190613a419190615996565b8888888888613e6d565b606081613a5981601f615a69565b1015613a985760405162461bcd60e51b815260206004820152600e60248201526d736c6963655f6f766572666c6f7760901b6044820152606401610af1565b613aa28284615a69565b84511015613ae65760405162461bcd60e51b8152602060048201526011602482015270736c6963655f6f75744f66426f756e647360781b6044820152606401610af1565b606082158015613b055760405191506000825260208201604052613b4f565b6040519150601f8416801560200281840101858101878315602002848b0101015b81831015613b3e578051835260209283019201613b26565b5050858452601f01601f1916604052505b50949350505050565b60c9546001600160a01b0316331480613b7057503330145b61151d5760405162461bcd60e51b815260206004820152602260248201527f4261736553747261746567793a3a4f6e6c79537472617465676973744f725365604482015261363360f11b6064820152608401610af1565b8515610b70576000613be0613bda614555565b86614587565b9050868110613ccf576000805160206166028339815191526001600160a01b0316633d18b9126040518163ffffffff1660e01b8152600401600060405180830381600087803b158015613c3257600080fd5b505af1158015613c46573d6000803e3d6000fd5b50506040516370a0823160e01b8152613cca925060008051602061662283398151915291506370a0823190613c7f903090600401615343565b602060405180830381865afa158015613c9c573d6000803e3d6000fd5b505050506040513d601f19601f82011682018060405250810190613cc09190615996565b8787878787613485565b6110d3565b6000613ce5613cde838a615a56565b8888614620565b90506000613cf16147ef565b90506000818311613d025782613d04565b815b90506126cb818a8a8a8a8a61371c565b60ca546040516370a0823160e01b8152600091829182916001600160a01b0316906370a0823190613d49903090600401615343565b602060405180830381865afa158015613d66573d6000803e3d6000fd5b505050506040513d601f19601f82011682018060405250810190613d8a9190615996565b9050838110613d9e57509192600092509050565b613dd4613dab8286615a56565b60ca5460cb546001600160a01b0390911690600160c01b900460ff1660d16133db613474613bc7565b60ca546040516370a0823160e01b81526001600160a01b03909116906370a0823190613e04903090600401615343565b602060405180830381865afa158015613e21573d6000803e3d6000fd5b505050506040513d601f19601f82011682018060405250810190613e459190615996565b905080841115613e6357915081613e5c8185615a56565b9150613e67565b8392505b50915091565b8515610b705782546001600160a01b03166310cabd1d6000805160206166628339815191528789612710613ea46126486064616179565b613eae9190615f91565b6040518563ffffffff1660e01b8152600401613ecd9493929190616190565b600060405180830381600087803b158015613ee757600080fd5b505af1925050508015613ef8575060015b613f56573d808015613f26576040519150601f19603f3d011682016040523d82523d6000602084013e613f2b565b606091505b50613f3887868885614823565b61356e6000805160206166628339815191528789848763ffffffff16565b610b706000805160206166628339815191528688600060405160200161359c91815260200190565b6000606060008060008661ffff166001600160401b03811115613fa357613fa3615579565b6040519080825280601f01601f191660200182016040528015613fcd576020820181803683370190505b50905060008087516020890160008d8df191503d925086831115613fef578692505b828152826000602083013e9093509150505b94509492505050565b8180519060200120609760008761ffff1661ffff1681526020019081526020016000208560405161403b9190615cb6565b9081526040805191829003602090810183206001600160401b0388166000908152915220919091557fe183f33de2837795525b4792ca4cd60535bd77c53b7e7030060bfcf5734d6b0c9061409890879087908790879087906161e6565b60405180910390a15050505050565b60006140fc826040518060400160405280602081526020017f5361666545524332303a206c6f772d6c6576656c2063616c6c206661696c6564815250856001600160a01b03166148f49092919063ffffffff16565b905080516000148061411d57508080602001905181019061411d9190615f74565b611af95760405162461bcd60e51b815260206004820152602a60248201527f5361666545524332303a204552433230206f7065726174696f6e20646964206e6044820152691bdd081cdd58d8d9595960b21b6064820152608401610af1565b600054610100900460ff166141a35760405162461bcd60e51b8152600401610af190615f06565b6141ab614903565b610cca81614933565b60008260ff168260ff1611156141ea576141ce8383616238565b6141d990600a616335565b6141e39085616179565b9050611062565b6141f48284616238565b6141ff90600a616335565b6141e39085615f91565b600061271060cc548361421c9190616179565b61347f9190615f91565b6000806000614235858561497c565b91509150614242816149c1565b509392505050565b60008183106142595781611062565b5090919050565b60408051600160f01b6020820152620f424060228083019190915282518083039091018152604290910190915290565b60408051600280825260608201909252600091816020015b60408051606081018252600080825260208083018290529282015282526000199092019101816142a85750506040805160608101825260008051602061662283398151915281526000805160206166628339815191526020820152600091810182905282519293509183919061432057614320616344565b602002602001018190525060405180606001604052806000805160206166628339815191526001600160a01b03168152602001846001600160a01b03168152602001600115158152508160018151811061437c5761437c616344565b602002602001018190525060006143938686614587565b90506000805160206165e283398151915263f41766d8876143b78463ffffffff8816565b8530426040518663ffffffff1660e01b81526004016143da95949392919061635a565b6000604051808303816000875af192505050801561441a57506040513d6000823e601f3d908101601f1916820160405261441791908101906163e9565b60015b15610b705750505050505050565b60008180602001905181019061443e9190616482565b9050600381600481111561445457614454615a95565b036144a75760008280602001905181019061446f91906164a3565b91505061447f81600001516127db565b80516040519081526000805160206166828339815191529060200160405180910390a1505050565b60008160048111156144bb576144bb615a95565b036144e2576000828060200190518101906144d691906164e6565b915050611af981614b06565b60048160048111156144f6576144f6615a95565b03614551576000828060200190518101906145119190616551565b9150506145218160000151614c30565b80516040517f7c9a2d2ec51230d7dbed27f113a325b7e20aef7b049e68b2339257b5edff5bea9161185d91615343565b5050565b6040516246613160e11b815260009060008051602061660283398151915290628cc26290611a17903090600401615343565b6040516328bd9fc160e11b8152600090819073f68c20d6c50706f6c6bd8ee184382518c93b368c9063517b3f82906145d390600080516020616622833981519152908890600401615eed565b602060405180830381865afa1580156145f0573d6000803e3d6000fd5b505050506040513d601f19601f820116820180604052508101906146149190615996565b90506123088184614c6f565b6000806146a86000805160206166428339815191526001600160a01b031663313ce5676040518163ffffffff1660e01b8152600401602060405180830381865afa158015614672573d6000803e3d6000fd5b505050506040513d601f19601f820116820180604052508101906146969190615f51565b6146a190600a616335565b8585614ceb565b905060006146fd86856000805160206166428339815191526001600160a01b031663313ce5676040518163ffffffff1660e01b8152600401602060405180830381865afa1580156129dc573d6000803e3d6000fd5b9050600061475283866000805160206166428339815191526001600160a01b031663313ce5676040518163ffffffff1660e01b8152600401602060405180830381865afa1580156129dc573d6000803e3d6000fd5b9050806000805160206166428339815191526001600160a01b031663313ce5676040518163ffffffff1660e01b8152600401602060405180830381865afa1580156147a1573d6000803e3d6000fd5b505050506040513d601f19601f820116820180604052508101906147c59190615f51565b6147d090600a616335565b6147da9084616179565b6147e49190615f91565b979650505050505050565b6040516370a0823160e01b8152600090600080516020616602833981519152906370a0823190611a17903090600401615343565b600061482f8585614c6f565b90506000805160206165e28339815191526313dcfc59866148538463ffffffff8716565b6040516001600160e01b031960e085901b1681526004810192909252602482015260008051602061666283398151915260448201526001600160a01b0386166064820152600160848201523060a48201524260c482015260e4016000604051808303816000875af11580156148cc573d6000803e3d6000fd5b505050506040513d6000823e601f3d908101601f19168201604052610b7091908101906163e9565b60606123088484600085614d9a565b600054610100900460ff1661492a5760405162461bcd60e51b8152600401610af190615f06565b61151d336136ca565b600054610100900460ff1661495a5760405162461bcd60e51b8152600401610af190615f06565b606580546001600160a01b0319166001600160a01b0392909216919091179055565b60008082516041036149b25760208301516040840151606085015160001a6149a687828585614e6a565b945094505050506149ba565b506000905060025b9250929050565b60008160048111156149d5576149d5615a95565b036149dd5750565b60018160048111156149f1576149f1615a95565b03614a395760405162461bcd60e51b815260206004820152601860248201527745434453413a20696e76616c6964207369676e617475726560401b6044820152606401610af1565b6002816004811115614a4d57614a4d615a95565b03614a9a5760405162461bcd60e51b815260206004820152601f60248201527f45434453413a20696e76616c6964207369676e6174757265206c656e677468006044820152606401610af1565b6003816004811115614aae57614aae615a95565b03610cca5760405162461bcd60e51b815260206004820152602260248201527f45434453413a20696e76616c6964207369676e6174757265202773272076616c604482015261756560f01b6064820152608401610af1565b602080820151600090815260cf909152604090205460ff1615614b6b5760405162461bcd60e51b815260206004820152601e60248201527f4261736553747261746567793a3a416c726561647957697468647261776e00006044820152606401610af1565b600080614b7b8360000151613d14565b91509150600060016040518060800160405280306001600160a01b031681526020018581526020018481526020018660200151815250604051602001614bc292919061659f565b60408051601f1981840301815291905290508215614c035760cb54614bfe90849061ffff600160a01b820416906001600160a01b03168461316d565b614c0c565b614c0c8161325b565b505050602090810151600090815260cf90915260409020805460ff19166001179055565b614c3981614f21565b60ca546040516370a0823160e01b8152610cca9183916001600160a01b03909116906370a0823190611636903090600401615343565b6000611062836000805160206166628339815191526001600160a01b031663313ce5676040518163ffffffff1660e01b8152600401602060405180830381865afa158015614cc1573d6000803e3d6000fd5b505050506040513d601f19601f82011682018060405250810190614ce59190615f51565b846141b4565b6040516310e1b98f60e21b8152600090819081906000805160206165e283398151915290634386e63c90614d38908890600080516020616662833981519152906001908c906004016161bb565b6040805180830381865afa158015614d54573d6000803e3d6000fd5b505050506040513d601f19601f82011682018060405250810190614d7891906160ee565b91509150614d868185614c6f565b614d909083615a69565b9695505050505050565b606082471015614dfb5760405162461bcd60e51b815260206004820152602660248201527f416464726573733a20696e73756666696369656e742062616c616e636520666f6044820152651c8818d85b1b60d21b6064820152608401610af1565b600080866001600160a01b03168587604051614e179190615cb6565b60006040518083038185875af1925050503d8060008114614e54576040519150601f19603f3d011682016040523d82523d6000602084013e614e59565b606091505b50915091506147e4878383876151a5565b6000806fa2a8918ca85bafe22016d0b997e4df60600160ff1b03831115614e975750600090506003614001565b6040805160008082526020820180845289905260ff881692820192909252606081018690526080810185905260019060a0016020604051602081039080840390855afa158015614eeb573d6000803e3d6000fd5b5050604051601f1901519150506001600160a01b038116614f1457600060019250925050614001565b9660009650945050505050565b6000805160206166028339815191526001600160a01b0316632e1a7d4d73__$c227fba7995d6bae65c253a840cdb49c5a$__638f4508d06040518163ffffffff1660e01b8152600401602060405180830381865af4158015614f87573d6000803e3d6000fd5b505050506040513d601f19601f82011682018060405250810190614fab9190615996565b6040518263ffffffff1660e01b8152600401614fc991815260200190565b600060405180830381600087803b158015614fe357600080fd5b505af1158015614ff7573d6000803e3d6000fd5b50506040516370a0823160e01b81526150899250839150600080516020616642833981519152906370a0823190615032903090600401615343565b602060405180830381865afa15801561504f573d6000803e3d6000fd5b505050506040513d601f19601f820116820180604052508101906150739190615996565b6000805160206166428339815191529190612493565b6040516370a0823160e01b8152615117908290600080516020616662833981519152906370a08231906150c0903090600401615343565b602060405180830381865afa1580156150dd573d6000803e3d6000fd5b505050506040513d601f19601f820116820180604052508101906151019190615996565b6000805160206166628339815191529190612493565b6040516370a0823160e01b8152610cca908290600080516020616622833981519152906370a082319061514e903090600401615343565b602060405180830381865afa15801561516b573d6000803e3d6000fd5b505050506040513d601f19601f8201168201806040525081019061518f9190615996565b6000805160206166228339815191529190612493565b6060831561521257825160000361520b576151bf856124e9565b61520b5760405162461bcd60e51b815260206004820152601d60248201527f416464726573733a2063616c6c20746f206e6f6e2d636f6e74726163740000006044820152606401610af1565b5081612308565b61230883838151156152275781518083602001fd5b8060405162461bcd60e51b8152600401610af191906153a7565b803561ffff8116811461525357600080fd5b919050565b60008083601f84011261526a57600080fd5b5081356001600160401b0381111561528157600080fd5b6020830191508360208285010111156149ba57600080fd5b80356001600160401b038116811461525357600080fd5b600080600080600080608087890312156152c957600080fd5b6152d287615241565b955060208701356001600160401b03808211156152ee57600080fd5b6152fa8a838b01615258565b909750955085915061530e60408a01615299565b9450606089013591508082111561532457600080fd5b5061533189828a01615258565b979a9699509497509295939492505050565b6001600160a01b0391909116815260200190565b60005b8381101561537257818101518382015260200161535a565b50506000910152565b60008151808452615393816020860160208601615357565b601f01601f19169290920160200192915050565b602081526000611062602083018461537b565b6000602082840312156153cc57600080fd5b61106282615241565b600080604083850312156153e857600080fd5b6153f183615241565b946020939093013593505050565b6001600160a01b0381168114610cca57600080fd5b60006020828403121561542657600080fd5b8135611062816153ff565b600080600080600080600080610100898b03121561544e57600080fd5b8835615459816153ff565b97506020890135615469816153ff565b96506040890135615479816153ff565b95506060890135615489816153ff565b945061549760808a01615241565b93506154a560a08a01615241565b925060c08901356154b5816153ff565b915060e08901356154c5816153ff565b809150509295985092959890939650565b6001600160a01b03169052565b6000602082840312156154f557600080fd5b5035919050565b60008060006040848603121561551157600080fd5b61551a84615241565b925060208401356001600160401b0381111561553557600080fd5b61554186828701615258565b9497909650939450505050565b8015158114610cca57600080fd5b60006020828403121561556e57600080fd5b81356110628161554e565b634e487b7160e01b600052604160045260246000fd5b604051602081016001600160401b03811182821017156155b1576155b1615579565b60405290565b604051601f8201601f191681016001600160401b03811182821017156155df576155df615579565b604052919050565b60006001600160401b0382111561560057615600615579565b50601f01601f191660200190565b600082601f83011261561f57600080fd5b813561563261562d826155e7565b6155b7565b81815284602083860101111561564757600080fd5b816020850160208301376000918101602001919091529392505050565b600080600080600060a0868803121561567c57600080fd5b8535945060208601359350604086013592506060860135915060808601356001600160401b038111156156ae57600080fd5b6156ba8882890161560e565b9150509295509295909350565b6000806000606084860312156156dc57600080fd5b6156e584615241565b925060208401356001600160401b0381111561570057600080fd5b61570c8682870161560e565b92505061571b60408501615299565b90509250925092565b6000806040838503121561573757600080fd5b61574083615241565b915061574e60208401615241565b90509250929050565b60006060828403121561576957600080fd5b604051606081016001600160401b038111828210171561578b5761578b615579565b6040528235615799816153ff565b81526020838101359082015260408301356157b38161554e565b60408201529392505050565b60008060008060008060c087890312156157d857600080fd5b6157e187615241565b955060208701356001600160401b03808211156157fd57600080fd5b6158098a838b0161560e565b96506040890135955060608901359150615822826153ff565b9093506080880135925060a0880135908082111561583f57600080fd5b5061584c89828a0161560e565b9150509295509295509295565b60008060008060006080868803121561587157600080fd5b61587a86615241565b945061588860208701615241565b93506040860135925060608601356001600160401b038111156158aa57600080fd5b6158b688828901615258565b969995985093965092949392505050565b6000806000606084860312156158dc57600080fd5b6158e584615241565b92506158f360208501615241565b9150604084013590509250925092565b6000806000806080858703121561591957600080fd5b8435615924816153ff565b93506020850135615934816153ff565b93969395505050506040820135916060013590565b6000806000806080858703121561595f57600080fd5b61596885615241565b935061597660208601615241565b92506040850135615986816153ff565b9396929550929360600135925050565b6000602082840312156159a857600080fd5b5051919050565b600181811c908216806159c357607f821691505b6020821081036159e357634e487b7160e01b600052602260045260246000fd5b50919050565b8183823760009101908152919050565b81835281816020850137506000828201602090810191909152601f909101601f19169091010190565b61ffff841681526040602082015260006123056040830184866159f9565b634e487b7160e01b600052601160045260246000fd5b8181038181111561347f5761347f615a40565b8082018082111561347f5761347f615a40565b600060018201615a8e57615a8e615a40565b5060010190565b634e487b7160e01b600052602160045260246000fd5b60058110615ac957634e487b7160e01b600052602160045260246000fd5b9052565b615ad78184615aab565b60406020820152615aec6040820183516154d6565b6020820151606082015260408201516080820152606082015160a0820152608082015160c082015260a082015160e0820152600060c0830151610100818185015260e08501519150610120828186015281860151925061014091508282860152808601519250506101608281860152818601519250806101808601525050615b786101a084018261537b565b95945050505050565b8284823760609190911b6001600160601b0319169101908152601401919050565b601f821115611af957600081815260208120601f850160051c81016020861015615bc95750805b601f850160051c820191505b81811015610b7057828155600101615bd5565b600019600383901b1c191660019190911b1790565b81516001600160401b03811115615c1657615c16615579565b615c2a81615c2484546159af565b84615ba2565b602080601f831160018114615c595760008415615c475750858301515b615c518582615be8565b865550610b70565b600085815260208120601f198616915b82811015615c8857888601518255948401946001909101908401615c69565b5085821015615ca65787850151600019600388901b60f8161c191681555b5050505050600190811b01905550565b60008251615cc8818460208701615357565b9190910192915050565b805160208201516001600160601b03198082169291906014831015615d015780818460140360031b1b83161693505b505050919050565b9182526001600160a01b0316602082015260400190565b600061ffff8088168352808716602084015250846040830152608060608301526147e46080830184866159f9565b61ffff86168152608060208201526000615d6c6080830186886159f9565b6001600160401b0394909416604083015250606001529392505050565b6001600160401b03831115615da057615da0615579565b615db483615dae83546159af565b83615ba2565b6000601f841160018114615de25760008515615dd05750838201355b615dda8682615be8565b845550610bde565b600083815260209020601f19861690835b82811015615e135786850135825560209485019460019092019101615df3565b5086821015615e305760001960f88860031b161c19848701351681555b505060018560011b0183555050505050565b600060208284031215615e5457600080fd5b81516001600160401b03811115615e6a57600080fd5b8201601f81018413615e7b57600080fd5b8051615e8961562d826155e7565b818152856020838501011115615e9e57600080fd5b615b78826020830160208601615357565b61ffff85168152608060208201526000615ecc608083018661537b565b6001600160401b038516604084015282810360608401526147e4818561537b565b6001600160a01b03929092168252602082015260400190565b6020808252602b908201527f496e697469616c697a61626c653a20636f6e7472616374206973206e6f74206960408201526a6e697469616c697a696e6760a81b606082015260800190565b600060208284031215615f6357600080fd5b815160ff8116811461106257600080fd5b600060208284031215615f8657600080fd5b81516110628161554e565b600082615fae57634e487b7160e01b600052601260045260246000fd5b500490565b602081526000825160806020840152615fcf60a084018261537b565b905060018060a01b03602085015116604084015260408401516060840152606084015160808401528091505092915050565b60008060006060848603121561601657600080fd5b8351925060208401519150604084015190509250925092565b61ffff841681526001600160a01b03831660208201526060604082018190526000906123059083018461537b565b6001600160a01b0386811682526020820186905261ffff851660408301528316606082015260a0608082018190526000906147e49083018461537b565b61ffff861681526001600160a01b038516602082015260a0604082018190526000906160c89083018661537b565b841515606084015282810360808401526160e2818561537b565b98975050505050505050565b6000806040838503121561610157600080fd5b505080516020909101519092909150565b61ffff8716815260c06020820152600061612f60c083018861537b565b8281036040840152616141818861537b565b6001600160a01b0387811660608601528616608085015283810360a0850152905061616c818561537b565b9998505050505050505050565b808202811582820484141761347f5761347f615a40565b6001600160a01b039485168152929093166020830152604082015260ff909116606082015260800190565b6001600160a01b03948516815292909316602083015215156040820152606081019190915260800190565b61ffff8616815260a06020820152600061620360a083018761537b565b6001600160401b03861660408401528281036060840152616224818661537b565b905082810360808401526160e2818561537b565b60ff828116828216039081111561347f5761347f615a40565b600181815b8085111561628c57816000190482111561627257616272615a40565b8085161561627f57918102915b93841c9390800290616256565b509250929050565b6000826162a35750600161347f565b816162b05750600061347f565b81600181146162c657600281146162d0576162ec565b600191505061347f565b60ff8411156162e1576162e1615a40565b50506001821b61347f565b5060208310610133831016604e8410600b841016171561630f575081810a61347f565b6163198383616251565b806000190482111561632d5761632d615a40565b029392505050565b600061106260ff841683616294565b634e487b7160e01b600052603260045260246000fd5b600060a0820187835260208781850152604060a08186015282885180855260c087019150838a01945060005b818110156163c357855180516001600160a01b03908116855286820151168685015284015115158484015294840194606090920191600101616386565b5050809450505050506163d960608301856154d6565b8260808301529695505050505050565b600060208083850312156163fc57600080fd5b82516001600160401b038082111561641357600080fd5b818501915085601f83011261642757600080fd5b81518181111561643957616439615579565b8060051b915061644a8483016155b7565b818152918301840191848101908884111561646457600080fd5b938501935b838510156160e257845182529385019390850190616469565b60006020828403121561649457600080fd5b81516005811061106257600080fd5b60008082840360408112156164b757600080fd5b835192506020601f19820112156164cd57600080fd5b506164d661558f565b6020939093015183525092909150565b60008082840360608112156164fa57600080fd5b835192506040601f198201121561651057600080fd5b50604080519081016001600160401b038111828210171561653357616533615579565b60409081526020858101518352940151938101939093525092909150565b600080828403604081121561656557600080fd5b835192506020601f198201121561657b57600080fd5b5061658461558f565b6020840151616592816153ff565b8152919491935090915050565b60a081016165ad8285615aab565b60018060a01b038351166020830152602083015160408301526040830151606083015260608301516080830152939250505056fe000000000000000000000000cc25c0fd84737f44a7d38649b69491bbf0c7f08300000000000000000000000097bd59a8202f8263c2ec39cf6cf6b438d0b458760000000000000000000000007238390d5f6f64e67c3211c343a410e2a3dec142000000000000000000000000d17cb0f162f133e339c0bbfc18c36c357e681d6b00000000000000000000000040379a439d4f6795b6fc9aa5687db461677a2dbab0c58532a125fc3c0adccaef396bf65344a4d5781cec2e4c593e6b611d75f150a2646970667358221220b3200e30e72a7a03e3448535c42ab323e644fe2f50b4fed3d3d5c4c4b4d06b7364736f6c63430008130033",
  "linkReferences": {
    "contracts/strategies/utils/PearlStrategyLib.sol": {
      "PearlStrategyLib": [
        {
          "length": 20,
          "start": 7828
        },
        {
          "length": 20,
          "start": 7854
        },
        {
          "length": 20,
          "start": 8109
        },
        {
          "length": 20,
          "start": 8238
        },
        {
          "length": 20,
          "start": 12243
        },
        {
          "length": 20,
          "start": 20321
        }
      ]
    }
  },
  "deployedLinkReferences": {
    "contracts/strategies/utils/PearlStrategyLib.sol": {
      "PearlStrategyLib": [
        {
          "length": 20,
          "start": 7795
        },
        {
          "length": 20,
          "start": 7821
        },
        {
          "length": 20,
          "start": 8076
        },
        {
          "length": 20,
          "start": 8205
        },
        {
          "length": 20,
          "start": 12210
        },
        {
          "length": 20,
          "start": 20288
        }
      ]
    }
  }
}