{
  "_format": "hh-sol-artifact-1",
  "contractName": "MockPearlStrategy",
  "sourceName": "contracts/mock/MockPearlStrategy.sol",
  "abi": [
    {
      "inputs": [
        {
          "internalType": "uint256",
          "name": "messageType",
          "type": "uint256"
        }
      ],
      "name": "IncorrectMessageType",
      "type": "error"
    },
    {
      "inputs": [
        {
          "internalType": "uint256",
          "name": "amount",
          "type": "uint256"
        },
        {
          "internalType": "uint256",
          "name": "balance",
          "type": "uint256"
        }
      ],
      "name": "InsufficientFunds",
      "type": "error"
    },
    {
      "anonymous": false,
      "inputs": [
        {
          "indexed": false,
          "internalType": "uint256",
          "name": "debtOutstanding",
          "type": "uint256"
        }
      ],
      "name": "AdjustedPosition",
      "type": "event"
    },
    {
      "anonymous": false,
      "inputs": [
        {
          "indexed": false,
          "internalType": "uint8",
          "name": "version",
          "type": "uint8"
        }
      ],
      "name": "Initialized",
      "type": "event"
    },
    {
      "anonymous": false,
      "inputs": [
        {
          "indexed": false,
          "internalType": "uint16",
          "name": "_srcChainId",
          "type": "uint16"
        },
        {
          "indexed": false,
          "internalType": "bytes",
          "name": "_srcAddress",
          "type": "bytes"
        },
        {
          "indexed": false,
          "internalType": "uint64",
          "name": "_nonce",
          "type": "uint64"
        },
        {
          "indexed": false,
          "internalType": "bytes",
          "name": "_payload",
          "type": "bytes"
        },
        {
          "indexed": false,
          "internalType": "bytes",
          "name": "_reason",
          "type": "bytes"
        }
      ],
      "name": "MessageFailed",
      "type": "event"
    },
    {
      "anonymous": false,
      "inputs": [
        {
          "indexed": true,
          "internalType": "address",
          "name": "previousOwner",
          "type": "address"
        },
        {
          "indexed": true,
          "internalType": "address",
          "name": "newOwner",
          "type": "address"
        }
      ],
      "name": "OwnershipTransferred",
      "type": "event"
    },
    {
      "anonymous": false,
      "inputs": [
        {
          "indexed": false,
          "internalType": "uint16",
          "name": "_srcChainId",
          "type": "uint16"
        },
        {
          "indexed": false,
          "internalType": "bytes",
          "name": "_srcAddress",
          "type": "bytes"
        },
        {
          "indexed": false,
          "internalType": "uint64",
          "name": "_nonce",
          "type": "uint64"
        },
        {
          "indexed": false,
          "internalType": "bytes32",
          "name": "_payloadHash",
          "type": "bytes32"
        }
      ],
      "name": "RetryMessageSuccess",
      "type": "event"
    },
    {
      "anonymous": false,
      "inputs": [
        {
          "indexed": false,
          "internalType": "uint16",
          "name": "_dstChainId",
          "type": "uint16"
        },
        {
          "indexed": false,
          "internalType": "uint16",
          "name": "_type",
          "type": "uint16"
        },
        {
          "indexed": false,
          "internalType": "uint256",
          "name": "_minDstGas",
          "type": "uint256"
        }
      ],
      "name": "SetMinDstGas",
      "type": "event"
    },
    {
      "anonymous": false,
      "inputs": [
        {
          "indexed": false,
          "internalType": "address",
          "name": "precrime",
          "type": "address"
        }
      ],
      "name": "SetPrecrime",
      "type": "event"
    },
    {
      "anonymous": false,
      "inputs": [
        {
          "indexed": false,
          "internalType": "uint16",
          "name": "_remoteChainId",
          "type": "uint16"
        },
        {
          "indexed": false,
          "internalType": "bytes",
          "name": "_path",
          "type": "bytes"
        }
      ],
      "name": "SetTrustedRemote",
      "type": "event"
    },
    {
      "anonymous": false,
      "inputs": [
        {
          "indexed": false,
          "internalType": "uint16",
          "name": "_remoteChainId",
          "type": "uint16"
        },
        {
          "indexed": false,
          "internalType": "bytes",
          "name": "_remoteAddress",
          "type": "bytes"
        }
      ],
      "name": "SetTrustedRemoteAddress",
      "type": "event"
    },
    {
      "anonymous": false,
      "inputs": [
        {
          "indexed": true,
          "internalType": "address",
          "name": "token",
          "type": "address"
        },
        {
          "indexed": false,
          "internalType": "uint256",
          "name": "amount",
          "type": "uint256"
        },
        {
          "indexed": false,
          "internalType": "address",
          "name": "sender",
          "type": "address"
        }
      ],
      "name": "SgReceived",
      "type": "event"
    },
    {
      "anonymous": false,
      "inputs": [
        {
          "indexed": false,
          "internalType": "address",
          "name": "newStrategy",
          "type": "address"
        }
      ],
      "name": "StrategyMigrated",
      "type": "event"
    },
    {
      "anonymous": false,
      "inputs": [
        {
          "indexed": false,
          "internalType": "uint256",
          "name": "profit",
          "type": "uint256"
        },
        {
          "indexed": false,
          "internalType": "uint256",
          "name": "loss",
          "type": "uint256"
        },
        {
          "indexed": false,
          "internalType": "uint256",
          "name": "debtPayment",
          "type": "uint256"
        },
        {
          "indexed": false,
          "internalType": "uint256",
          "name": "giveToStrategy",
          "type": "uint256"
        },
        {
          "indexed": false,
          "internalType": "uint256",
          "name": "requestFromStrategy",
          "type": "uint256"
        },
        {
          "indexed": false,
          "internalType": "uint256",
          "name": "creditAvailable",
          "type": "uint256"
        },
        {
          "indexed": false,
          "internalType": "uint256",
          "name": "totalAssets",
          "type": "uint256"
        }
      ],
      "name": "StrategyReported",
      "type": "event"
    },
    {
      "inputs": [],
      "name": "DEFAULT_PAYLOAD_SIZE_LIMIT",
      "outputs": [
        {
          "internalType": "uint256",
          "name": "",
          "type": "uint256"
        }
      ],
      "stateMutability": "view",
      "type": "function"
    },
    {
      "inputs": [],
      "name": "DEFAULT_SLIPPAGE",
      "outputs": [
        {
          "internalType": "uint256",
          "name": "",
          "type": "uint256"
        }
      ],
      "stateMutability": "view",
      "type": "function"
    },
    {
      "inputs": [
        {
          "internalType": "uint256",
          "name": "_debtOutstanding",
          "type": "uint256"
        }
      ],
      "name": "adjustPosition",
      "outputs": [],
      "stateMutability": "nonpayable",
      "type": "function"
    },
    {
      "inputs": [],
      "name": "balanceOfLpStaked",
      "outputs": [
        {
          "internalType": "uint256",
          "name": "",
          "type": "uint256"
        }
      ],
      "stateMutability": "view",
      "type": "function"
    },
    {
      "inputs": [],
      "name": "balanceOfPearlRewards",
      "outputs": [
        {
          "internalType": "uint256",
          "name": "",
          "type": "uint256"
        }
      ],
      "stateMutability": "view",
      "type": "function"
    },
    {
      "inputs": [],
      "name": "balanceOfWant",
      "outputs": [
        {
          "internalType": "uint256",
          "name": "",
          "type": "uint256"
        }
      ],
      "stateMutability": "view",
      "type": "function"
    },
    {
      "inputs": [
        {
          "internalType": "uint256",
          "name": "epoch",
          "type": "uint256"
        }
      ],
      "name": "callMe",
      "outputs": [],
      "stateMutability": "nonpayable",
      "type": "function"
    },
    {
      "inputs": [],
      "name": "clearWant",
      "outputs": [],
      "stateMutability": "nonpayable",
      "type": "function"
    },
    {
      "inputs": [],
      "name": "currentChainId",
      "outputs": [
        {
          "internalType": "uint16",
          "name": "",
          "type": "uint16"
        }
      ],
      "stateMutability": "view",
      "type": "function"
    },
    {
      "inputs": [
        {
          "internalType": "uint256",
          "name": "_daiAmount",
          "type": "uint256"
        }
      ],
      "name": "daiToWant",
      "outputs": [
        {
          "internalType": "uint256",
          "name": "",
          "type": "uint256"
        }
      ],
      "stateMutability": "view",
      "type": "function"
    },
    {
      "inputs": [],
      "name": "emergencyExit",
      "outputs": [
        {
          "internalType": "bool",
          "name": "",
          "type": "bool"
        }
      ],
      "stateMutability": "view",
      "type": "function"
    },
    {
      "inputs": [],
      "name": "estimatedTotalAssets",
      "outputs": [
        {
          "internalType": "uint256",
          "name": "",
          "type": "uint256"
        }
      ],
      "stateMutability": "view",
      "type": "function"
    },
    {
      "inputs": [
        {
          "internalType": "uint256",
          "name": "_stakedLpTokens",
          "type": "uint256"
        }
      ],
      "name": "exitPosition",
      "outputs": [],
      "stateMutability": "nonpayable",
      "type": "function"
    },
    {
      "inputs": [
        {
          "internalType": "uint16",
          "name": "",
          "type": "uint16"
        },
        {
          "internalType": "bytes",
          "name": "",
          "type": "bytes"
        },
        {
          "internalType": "uint64",
          "name": "",
          "type": "uint64"
        }
      ],
      "name": "failedMessages",
      "outputs": [
        {
          "internalType": "bytes32",
          "name": "",
          "type": "bytes32"
        }
      ],
      "stateMutability": "view",
      "type": "function"
    },
    {
      "inputs": [
        {
          "internalType": "uint16",
          "name": "_srcChainId",
          "type": "uint16"
        },
        {
          "internalType": "bytes",
          "name": "_srcAddress",
          "type": "bytes"
        }
      ],
      "name": "forceResumeReceive",
      "outputs": [],
      "stateMutability": "nonpayable",
      "type": "function"
    },
    {
      "inputs": [
        {
          "internalType": "uint16",
          "name": "_version",
          "type": "uint16"
        },
        {
          "internalType": "uint16",
          "name": "_chainId",
          "type": "uint16"
        },
        {
          "internalType": "address",
          "name": "",
          "type": "address"
        },
        {
          "internalType": "uint256",
          "name": "_configType",
          "type": "uint256"
        }
      ],
      "name": "getConfig",
      "outputs": [
        {
          "internalType": "bytes",
          "name": "",
          "type": "bytes"
        }
      ],
      "stateMutability": "view",
      "type": "function"
    },
    {
      "inputs": [
        {
          "internalType": "bytes32",
          "name": "_messageHash",
          "type": "bytes32"
        }
      ],
      "name": "getEthSignedMessageHash",
      "outputs": [
        {
          "internalType": "bytes32",
          "name": "",
          "type": "bytes32"
        }
      ],
      "stateMutability": "pure",
      "type": "function"
    },
    {
      "inputs": [
        {
          "internalType": "uint16",
          "name": "_remoteChainId",
          "type": "uint16"
        }
      ],
      "name": "getTrustedRemoteAddress",
      "outputs": [
        {
          "internalType": "bytes",
          "name": "",
          "type": "bytes"
        }
      ],
      "stateMutability": "view",
      "type": "function"
    },
    {
      "inputs": [
        {
          "internalType": "uint256",
          "name": "_totalDebt",
          "type": "uint256"
        },
        {
          "internalType": "uint256",
          "name": "_debtOutstanding",
          "type": "uint256"
        },
        {
          "internalType": "uint256",
          "name": "_creditAvailable",
          "type": "uint256"
        },
        {
          "internalType": "uint256",
          "name": "_debtRatio",
          "type": "uint256"
        },
        {
          "internalType": "bytes",
          "name": "_signature",
          "type": "bytes"
        }
      ],
      "name": "harvest",
      "outputs": [],
      "stateMutability": "nonpayable",
      "type": "function"
    },
    {
      "inputs": [
        {
          "internalType": "address",
          "name": "_lzEndpoint",
          "type": "address"
        },
        {
          "internalType": "address",
          "name": "_strategist",
          "type": "address"
        },
        {
          "internalType": "contract IERC20",
          "name": "_want",
          "type": "address"
        },
        {
          "internalType": "address",
          "name": "_vault",
          "type": "address"
        },
        {
          "internalType": "uint16",
          "name": "_vaultChainId",
          "type": "uint16"
        },
        {
          "internalType": "uint16",
          "name": "_currentChainId",
          "type": "uint16"
        },
        {
          "internalType": "address",
          "name": "_sgBridge",
          "type": "address"
        },
        {
          "internalType": "address",
          "name": "_router",
          "type": "address"
        }
      ],
      "name": "initialize",
      "outputs": [],
      "stateMutability": "nonpayable",
      "type": "function"
    },
    {
      "inputs": [
        {
          "internalType": "uint16",
          "name": "_srcChainId",
          "type": "uint16"
        },
        {
          "internalType": "bytes",
          "name": "_srcAddress",
          "type": "bytes"
        }
      ],
      "name": "isTrustedRemote",
      "outputs": [
        {
          "internalType": "bool",
          "name": "",
          "type": "bool"
        }
      ],
      "stateMutability": "view",
      "type": "function"
    },
    {
      "inputs": [],
      "name": "liquidateAllPositions",
      "outputs": [
        {
          "internalType": "uint256",
          "name": "",
          "type": "uint256"
        }
      ],
      "stateMutability": "nonpayable",
      "type": "function"
    },
    {
      "inputs": [
        {
          "internalType": "uint256",
          "name": "_amountNeeded",
          "type": "uint256"
        }
      ],
      "name": "liquidatePosition",
      "outputs": [],
      "stateMutability": "nonpayable",
      "type": "function"
    },
    {
      "inputs": [],
      "name": "lzEndpoint",
      "outputs": [
        {
          "internalType": "contract ILayerZeroEndpointUpgradeable",
          "name": "",
          "type": "address"
        }
      ],
      "stateMutability": "view",
      "type": "function"
    },
    {
      "inputs": [
        {
          "internalType": "uint16",
          "name": "_srcChainId",
          "type": "uint16"
        },
        {
          "internalType": "bytes",
          "name": "_srcAddress",
          "type": "bytes"
        },
        {
          "internalType": "uint64",
          "name": "_nonce",
          "type": "uint64"
        },
        {
          "internalType": "bytes",
          "name": "_payload",
          "type": "bytes"
        }
      ],
      "name": "lzReceive",
      "outputs": [],
      "stateMutability": "nonpayable",
      "type": "function"
    },
    {
      "inputs": [
        {
          "internalType": "uint16",
          "name": "",
          "type": "uint16"
        },
        {
          "internalType": "uint16",
          "name": "",
          "type": "uint16"
        }
      ],
      "name": "minDstGasLookup",
      "outputs": [
        {
          "internalType": "uint256",
          "name": "",
          "type": "uint256"
        }
      ],
      "stateMutability": "view",
      "type": "function"
    },
    {
      "inputs": [],
      "name": "name",
      "outputs": [
        {
          "internalType": "string",
          "name": "",
          "type": "string"
        }
      ],
      "stateMutability": "pure",
      "type": "function"
    },
    {
      "inputs": [
        {
          "internalType": "uint16",
          "name": "_srcChainId",
          "type": "uint16"
        },
        {
          "internalType": "bytes",
          "name": "_srcAddress",
          "type": "bytes"
        },
        {
          "internalType": "uint64",
          "name": "_nonce",
          "type": "uint64"
        },
        {
          "internalType": "bytes",
          "name": "_payload",
          "type": "bytes"
        }
      ],
      "name": "nonblockingLzReceive",
      "outputs": [],
      "stateMutability": "nonpayable",
      "type": "function"
    },
    {
      "inputs": [],
      "name": "owner",
      "outputs": [
        {
          "internalType": "address",
          "name": "",
          "type": "address"
        }
      ],
      "stateMutability": "view",
      "type": "function"
    },
    {
      "inputs": [
        {
          "internalType": "uint16",
          "name": "",
          "type": "uint16"
        }
      ],
      "name": "payloadSizeLimitLookup",
      "outputs": [
        {
          "internalType": "uint256",
          "name": "",
          "type": "uint256"
        }
      ],
      "stateMutability": "view",
      "type": "function"
    },
    {
      "inputs": [
        {
          "internalType": "uint256",
          "name": "_pearlAmount",
          "type": "uint256"
        }
      ],
      "name": "pearlToWant",
      "outputs": [
        {
          "internalType": "uint256",
          "name": "",
          "type": "uint256"
        }
      ],
      "stateMutability": "view",
      "type": "function"
    },
    {
      "inputs": [],
      "name": "precrime",
      "outputs": [
        {
          "internalType": "address",
          "name": "",
          "type": "address"
        }
      ],
      "stateMutability": "view",
      "type": "function"
    },
    {
      "inputs": [],
      "name": "renounceOwnership",
      "outputs": [],
      "stateMutability": "nonpayable",
      "type": "function"
    },
    {
      "inputs": [
        {
          "internalType": "uint16",
          "name": "_srcChainId",
          "type": "uint16"
        },
        {
          "internalType": "bytes",
          "name": "_srcAddress",
          "type": "bytes"
        },
        {
          "internalType": "uint64",
          "name": "_nonce",
          "type": "uint64"
        },
        {
          "internalType": "bytes",
          "name": "_payload",
          "type": "bytes"
        }
      ],
      "name": "retryMessage",
      "outputs": [],
      "stateMutability": "payable",
      "type": "function"
    },
    {
      "inputs": [],
      "name": "revokeFunds",
      "outputs": [],
      "stateMutability": "nonpayable",
      "type": "function"
    },
    {
      "inputs": [
        {
          "internalType": "uint256",
          "name": "_pearlAmount",
          "type": "uint256"
        }
      ],
      "name": "sellPearl",
      "outputs": [],
      "stateMutability": "nonpayable",
      "type": "function"
    },
    {
      "inputs": [
        {
          "internalType": "uint256",
          "name": "_usdrAmount",
          "type": "uint256"
        }
      ],
      "name": "sellUsdr",
      "outputs": [],
      "stateMutability": "nonpayable",
      "type": "function"
    },
    {
      "inputs": [
        {
          "internalType": "uint16",
          "name": "_version",
          "type": "uint16"
        },
        {
          "internalType": "uint16",
          "name": "_chainId",
          "type": "uint16"
        },
        {
          "internalType": "uint256",
          "name": "_configType",
          "type": "uint256"
        },
        {
          "internalType": "bytes",
          "name": "_config",
          "type": "bytes"
        }
      ],
      "name": "setConfig",
      "outputs": [],
      "stateMutability": "nonpayable",
      "type": "function"
    },
    {
      "inputs": [
        {
          "internalType": "bool",
          "name": "_emergencyExit",
          "type": "bool"
        }
      ],
      "name": "setEmergencyExit",
      "outputs": [],
      "stateMutability": "nonpayable",
      "type": "function"
    },
    {
      "inputs": [
        {
          "internalType": "uint16",
          "name": "_dstChainId",
          "type": "uint16"
        },
        {
          "internalType": "uint16",
          "name": "_packetType",
          "type": "uint16"
        },
        {
          "internalType": "uint256",
          "name": "_minGas",
          "type": "uint256"
        }
      ],
      "name": "setMinDstGas",
      "outputs": [],
      "stateMutability": "nonpayable",
      "type": "function"
    },
    {
      "inputs": [
        {
          "internalType": "uint16",
          "name": "_dstChainId",
          "type": "uint16"
        },
        {
          "internalType": "uint256",
          "name": "_size",
          "type": "uint256"
        }
      ],
      "name": "setPayloadSizeLimit",
      "outputs": [],
      "stateMutability": "nonpayable",
      "type": "function"
    },
    {
      "inputs": [
        {
          "internalType": "address",
          "name": "_precrime",
          "type": "address"
        }
      ],
      "name": "setPrecrime",
      "outputs": [],
      "stateMutability": "nonpayable",
      "type": "function"
    },
    {
      "inputs": [
        {
          "internalType": "uint16",
          "name": "_version",
          "type": "uint16"
        }
      ],
      "name": "setReceiveVersion",
      "outputs": [],
      "stateMutability": "nonpayable",
      "type": "function"
    },
    {
      "inputs": [
        {
          "internalType": "uint16",
          "name": "_version",
          "type": "uint16"
        }
      ],
      "name": "setSendVersion",
      "outputs": [],
      "stateMutability": "nonpayable",
      "type": "function"
    },
    {
      "inputs": [
        {
          "internalType": "uint256",
          "name": "_slippage",
          "type": "uint256"
        }
      ],
      "name": "setSlippage",
      "outputs": [],
      "stateMutability": "nonpayable",
      "type": "function"
    },
    {
      "inputs": [
        {
          "internalType": "address",
          "name": "_strategist",
          "type": "address"
        }
      ],
      "name": "setStrategist",
      "outputs": [],
      "stateMutability": "nonpayable",
      "type": "function"
    },
    {
      "inputs": [
        {
          "internalType": "uint16",
          "name": "_srcChainId",
          "type": "uint16"
        },
        {
          "internalType": "bytes",
          "name": "_path",
          "type": "bytes"
        }
      ],
      "name": "setTrustedRemote",
      "outputs": [],
      "stateMutability": "nonpayable",
      "type": "function"
    },
    {
      "inputs": [
        {
          "internalType": "uint16",
          "name": "_remoteChainId",
          "type": "uint16"
        },
        {
          "internalType": "bytes",
          "name": "_remoteAddress",
          "type": "bytes"
        }
      ],
      "name": "setTrustedRemoteAddress",
      "outputs": [],
      "stateMutability": "nonpayable",
      "type": "function"
    },
    {
      "inputs": [],
      "name": "sgBridge",
      "outputs": [
        {
          "internalType": "contract ISgBridge",
          "name": "",
          "type": "address"
        }
      ],
      "stateMutability": "view",
      "type": "function"
    },
    {
      "inputs": [
        {
          "internalType": "uint16",
          "name": "",
          "type": "uint16"
        },
        {
          "internalType": "bytes",
          "name": "_srcAddress",
          "type": "bytes"
        },
        {
          "internalType": "uint256",
          "name": "",
          "type": "uint256"
        },
        {
          "internalType": "address",
          "name": "_token",
          "type": "address"
        },
        {
          "internalType": "uint256",
          "name": "_amountLD",
          "type": "uint256"
        },
        {
          "internalType": "bytes",
          "name": "",
          "type": "bytes"
        }
      ],
      "name": "sgReceive",
      "outputs": [],
      "stateMutability": "nonpayable",
      "type": "function"
    },
    {
      "inputs": [],
      "name": "sgRouter",
      "outputs": [
        {
          "internalType": "contract IStargateRouter",
          "name": "",
          "type": "address"
        }
      ],
      "stateMutability": "view",
      "type": "function"
    },
    {
      "inputs": [],
      "name": "slippage",
      "outputs": [
        {
          "internalType": "uint256",
          "name": "",
          "type": "uint256"
        }
      ],
      "stateMutability": "view",
      "type": "function"
    },
    {
      "inputs": [],
      "name": "strategist",
      "outputs": [
        {
          "internalType": "address",
          "name": "",
          "type": "address"
        }
      ],
      "stateMutability": "view",
      "type": "function"
    },
    {
      "inputs": [],
      "name": "strategistSignMessageHash",
      "outputs": [
        {
          "internalType": "bytes32",
          "name": "",
          "type": "bytes32"
        }
      ],
      "stateMutability": "view",
      "type": "function"
    },
    {
      "inputs": [
        {
          "internalType": "contract IERC20",
          "name": "_token",
          "type": "address"
        }
      ],
      "name": "sweepToken",
      "outputs": [],
      "stateMutability": "nonpayable",
      "type": "function"
    },
    {
      "inputs": [
        {
          "internalType": "address",
          "name": "newOwner",
          "type": "address"
        }
      ],
      "name": "transferOwnership",
      "outputs": [],
      "stateMutability": "nonpayable",
      "type": "function"
    },
    {
      "inputs": [
        {
          "internalType": "uint16",
          "name": "",
          "type": "uint16"
        }
      ],
      "name": "trustedRemoteLookup",
      "outputs": [
        {
          "internalType": "bytes",
          "name": "",
          "type": "bytes"
        }
      ],
      "stateMutability": "view",
      "type": "function"
    },
    {
      "inputs": [
        {
          "internalType": "uint256",
          "name": "_usdrLpAmount",
          "type": "uint256"
        }
      ],
      "name": "usdrLpToWant",
      "outputs": [
        {
          "internalType": "uint256",
          "name": "",
          "type": "uint256"
        }
      ],
      "stateMutability": "view",
      "type": "function"
    },
    {
      "inputs": [],
      "name": "usdrToUsdcRate",
      "outputs": [
        {
          "internalType": "uint256",
          "name": "",
          "type": "uint256"
        }
      ],
      "stateMutability": "view",
      "type": "function"
    },
    {
      "inputs": [
        {
          "internalType": "uint256",
          "name": "_usdrAmount",
          "type": "uint256"
        }
      ],
      "name": "usdrToWant",
      "outputs": [
        {
          "internalType": "uint256",
          "name": "",
          "type": "uint256"
        }
      ],
      "stateMutability": "view",
      "type": "function"
    },
    {
      "inputs": [],
      "name": "vault",
      "outputs": [
        {
          "internalType": "address",
          "name": "",
          "type": "address"
        }
      ],
      "stateMutability": "view",
      "type": "function"
    },
    {
      "inputs": [],
      "name": "vaultChainId",
      "outputs": [
        {
          "internalType": "uint16",
          "name": "",
          "type": "uint16"
        }
      ],
      "stateMutability": "view",
      "type": "function"
    },
    {
      "inputs": [],
      "name": "want",
      "outputs": [
        {
          "internalType": "contract IERC20",
          "name": "",
          "type": "address"
        }
      ],
      "stateMutability": "view",
      "type": "function"
    },
    {
      "inputs": [],
      "name": "wantDecimals",
      "outputs": [
        {
          "internalType": "uint8",
          "name": "",
          "type": "uint8"
        }
      ],
      "stateMutability": "view",
      "type": "function"
    },
    {
      "inputs": [
        {
          "internalType": "uint256",
          "name": "_wantAmount",
          "type": "uint256"
        }
      ],
      "name": "wantToUsdrLp",
      "outputs": [
        {
          "internalType": "uint256",
          "name": "",
          "type": "uint256"
        }
      ],
      "stateMutability": "view",
      "type": "function"
    },
    {
      "inputs": [
        {
          "internalType": "uint256",
          "name": "_amountNeeded",
          "type": "uint256"
        }
      ],
      "name": "withdrawSome",
      "outputs": [],
      "stateMutability": "nonpayable",
      "type": "function"
    },
    {
      "stateMutability": "payable",
      "type": "receive"
    }
  ],
  "bytecode": "0x608060405234801561001057600080fd5b50615fb380620000216000396000f3fe6080604052600436106102fc5760003560e01c80638f4508d01161018d5780638f4508d0146107a6578063950c8a74146107bb5780639589c990146107db5780639606647d146107fb5780639f38369a14610810578063a6c3d16514610830578063a879851014610850578063a9e5082414610866578063ab8236f314610886578063adf076e6146108a6578063ae9b051c146108d9578063b353aaa7146108f9578063baf3292d14610919578063bd79ac1314610939578063c1a3d44c14610959578063c44618341461096e578063c7b9d53014610984578063ca2e2835146109a4578063cbed8b9c146109b9578063cdddd4e5146109d9578063d1deba1f146109f9578063d56739ac14610a0c578063df2a5b3b14610a21578063e73620c314610a41578063e964404414610a61578063eb8d72b714610a81578063efbb5cb014610aa1578063f0fa55a914610ab6578063f2fde38b14610ad6578063f5ecbdbc14610af6578063fa54080114610b16578063fbfa77cf14610b36578063fcb988a414610b5657600080fd5b80621d3567146103085780630517cb761461032a57806306fdde031461036057806307e0db171461039f5780630df37483146103bf57806310ddb137146103df5780631be19560146103ff5780631cdb539f1461041f5780631f1fcd511461043f5780631fe4a6861461045f5780632d6068431461047f57806337fded91146104945780633d3ccc2f146104b95780633d8b38f6146104d95780633e032a3b146105095780633eae11121461052d5780633f1f4fa41461054d57806342d65a8d1461057a57806345ee07551461059a578063495f881e146105ba5780634a5f58d1146105da57806350bb4beb146105fa5780635641ec031461060f578063567ad85d14610629578063593178de1461065e5780635b8c41e61461067357806366ad5c8a146106c25780636cbadbfa146106e2578063715018a6146107045780637533d7881461071957806378dc9059146107395780638cfd8f5c146107595780638da5cb5b1461079157600080fd5b3661030357005b600080fd5b34801561031457600080fd5b50610328610323366004614c5d565b610b76565b005b34801561033657600080fd5b5060ce5461034a906001600160a01b031681565b6040516103579190614cf0565b60405180910390f35b34801561036c57600080fd5b5060408051808201909152600d81526c506561726c537472617465677960981b60208201525b6040516103579190614d54565b3480156103ab57600080fd5b506103286103ba366004614d67565b610c5f565b3480156103cb57600080fd5b506103286103da366004614d82565b610ccc565b3480156103eb57600080fd5b506103286103fa366004614d67565b610ceb565b34801561040b57600080fd5b5061032861041a366004614dc1565b610d27565b34801561042b57600080fd5b5061032861043a366004614dde565b610db4565b34801561044b57600080fd5b5060ca5461034a906001600160a01b031681565b34801561046b57600080fd5b5060c95461034a906001600160a01b031681565b34801561048b57600080fd5b50610328611018565b3480156104a057600080fd5b5060cd5461034a9061010090046001600160a01b031681565b3480156104c557600080fd5b506103286104d4366004614e90565b611059565b3480156104e557600080fd5b506104f96104f4366004614ea9565b61108f565b6040519015158152602001610357565b34801561051557600080fd5b5061051f60cc5481565b604051908152602001610357565b34801561053957600080fd5b5061051f610548366004614e90565b61115c565b34801561055957600080fd5b5061051f610568366004614d67565b60686020526000908152604090205481565b34801561058657600080fd5b50610328610595366004614ea9565b6111ea565b3480156105a657600080fd5b506103286105b5366004614f09565b61125d565b3480156105c657600080fd5b506103286105d5366004615011565b611278565b3480156105e657600080fd5b506103286105f5366004614e90565b61151c565b34801561060657600080fd5b5061051f611525565b34801561061b57600080fd5b5060cd546104f99060ff1681565b34801561063557600080fd5b5060cb5461064b90600160a01b900461ffff1681565b60405161ffff9091168152602001610357565b34801561066a57600080fd5b5061051f611534565b34801561067f57600080fd5b5061051f61068e366004615074565b6097602090815260009384526040808520845180860184018051928152908401958401959095209452929052825290205481565b3480156106ce57600080fd5b506103286106dd366004614c5d565b611592565b3480156106ee57600080fd5b5060cb5461064b90600160b01b900461ffff1681565b34801561071057600080fd5b50610328611666565b34801561072557600080fd5b50610392610734366004614d67565b61167a565b34801561074557600080fd5b50610328610754366004614e90565b611714565b34801561076557600080fd5b5061051f6107743660046150d1565b606760209081526000928352604080842090915290825290205481565b34801561079d57600080fd5b5061034a61171d565b3480156107b257600080fd5b5061051f61172c565b3480156107c757600080fd5b5060695461034a906001600160a01b031681565b3480156107e757600080fd5b5061051f6107f6366004614e90565b6117a1565b34801561080757600080fd5b50610328611839565b34801561081c57600080fd5b5061039261082b366004614d67565b6118cc565b34801561083c57600080fd5b5061032861084b366004614ea9565b6119db565b34801561085c57600080fd5b5061051f61264881565b34801561087257600080fd5b5061051f610881366004614e90565b611a64565b34801561089257600080fd5b506103286108a1366004615104565b611b1d565b3480156108b257600080fd5b5060cb546108c790600160c01b900460ff1681565b60405160ff9091168152602001610357565b3480156108e557600080fd5b506103286108f4366004614e90565b611c3d565b34801561090557600080fd5b5060655461034a906001600160a01b031681565b34801561092557600080fd5b50610328610934366004614dc1565b611c46565b34801561094557600080fd5b5061051f610954366004614e90565b611c99565b34801561096557600080fd5b5061051f611cf1565b34801561097a57600080fd5b5061051f61271081565b34801561099057600080fd5b5061032861099f366004614dc1565b611d22565b3480156109b057600080fd5b5061051f611d4c565b3480156109c557600080fd5b506103286109d436600461519e565b611e30565b3480156109e557600080fd5b506103286109f4366004614e90565b611e9e565b610328610a07366004614c5d565b611eac565b348015610a1857600080fd5b5061051f6120c2565b348015610a2d57600080fd5b50610328610a3c36600461520c565b6120f4565b348015610a4d57600080fd5b50610328610a5c366004614e90565b6121a6565b348015610a6d57600080fd5b50610328610a7c366004614e90565b6121c6565b348015610a8d57600080fd5b50610328610a9c366004614ea9565b6121cf565b348015610aad57600080fd5b5061051f612229565b348015610ac257600080fd5b50610328610ad1366004614e90565b612343565b348015610ae257600080fd5b50610328610af1366004614dc1565b612350565b348015610b0257600080fd5b50610392610b11366004615248565b6123c6565b348015610b2257600080fd5b5061051f610b31366004614e90565b612459565b348015610b4257600080fd5b5060cb5461034a906001600160a01b031681565b348015610b6257600080fd5b5061051f610b71366004614e90565b6124ab565b6065546001600160a01b03163314610be15760405162461bcd60e51b815260206004820152602360248201527f4261736553747261746567793a3a496e76616c6964456e64706f696e7443616c6044820152623632b960e91b60648201526084015b60405180910390fd5b610c578686868080601f01602080910402602001604051908101604052809392919081815260200183838082843760009201919091525050604080516020601f89018190048102820181019092528781528993509150879087908190840183828082843760009201919091525061255392505050565b505050505050565b610c676125cc565b6065546040516307e0db1760e01b815261ffff831660048201526001600160a01b03909116906307e0db17906024015b600060405180830381600087803b158015610cb157600080fd5b505af1158015610cc5573d6000803e3d6000fd5b5050505050565b610cd46125cc565b61ffff909116600090815260686020526040902055565b610cf36125cc565b6065546040516310ddb13760e01b815261ffff831660048201526001600160a01b03909116906310ddb13790602401610c97565b610d2f61262b565b610db133826001600160a01b03166370a08231306040518263ffffffff1660e01b8152600401610d5f9190614cf0565b602060405180830381865afa158015610d7c573d6000803e3d6000fd5b505050506040513d601f19601f82011682018060405250810190610da09190615295565b6001600160a01b0384169190612684565b50565b600054610100900460ff1615808015610dd45750600054600160ff909116105b80610df55750610de3306126da565b158015610df5575060005460ff166001145b610e585760405162461bcd60e51b815260206004820152602e60248201527f496e697469616c697a61626c653a20636f6e747261637420697320616c72656160448201526d191e481a5b9a5d1a585b1a5e995960921b6064820152608401610bd8565b6000805460ff191660011790558015610e7b576000805461ff0019166101001790555b610e8e89898989898989896126486126e9565b60ca54610ebb906001600160a01b03167368b3465833fb72a70ecdf485e0e4c7bd8665fc456000196128c8565b60ca54610ee2906001600160a01b0316600080516020615ede8339815191526000196128c8565b610f0b600080516020615f3e833981519152600080516020615ede8339815191526000196128c8565b610f3a73d17cb0f162f133e339c0bbfc18c36c357e681d6b600080516020615efe8339815191526000196128c8565b610f6973d17cb0f162f133e339c0bbfc18c36c357e681d6b600080516020615ede8339815191526000196128c8565b610f9e738f3cf7ad23cd3cadbd9735aff958023239c6a06373195f7b233947d51f4c3b756ad41a5ddb34cebce06000196128c8565b610fc7600080516020615f1e833981519152600080516020615ede8339815191526000196128c8565b801561100d576000805461ff0019169055604051600181527f7f26b83ff96e1f2b6a682f133852f6798a09c465da95921460cefb38474024989060200160405180910390a15b505050505050505050565b61102061262b565b60c9546040516001600160a01b03909116904780156108fc02916000818181858888f19350505050158015610db1573d6000803e3d6000fd5b61106161262b565b61106a816129cc565b604051818152600080516020615f5e833981519152906020015b60405180910390a150565b61ffff8316600090815260666020526040812080548291906110b0906152ae565b80601f01602080910402602001604051908101604052809291908181526020018280546110dc906152ae565b80156111295780601f106110fe57610100808354040283529160200191611129565b820191906000526020600020905b81548152906001019060200180831161110c57829003601f168201915b5050505050905083836040516111409291906152e8565b60405180910390208180519060200120149150505b9392505050565b60006111e482600080516020615f3e8339815191526001600160a01b031663313ce5676040518163ffffffff1660e01b8152600401602060405180830381865afa1580156111ae573d6000803e3d6000fd5b505050506040513d601f19601f820116820180604052508101906111d291906152f8565b60cb54600160c01b900460ff166130e9565b92915050565b6111f26125cc565b6065546040516342d65a8d60e01b81526001600160a01b03909116906342d65a8d9061122690869086908690600401615344565b600060405180830381600087803b15801561124057600080fd5b505af1158015611254573d6000803e3d6000fd5b50505050505050565b61126561262b565b60cd805460ff1916911515919091179055565b61128061262b565b6112898161313e565b60cd546000908190819060ff16156113355784156112e95760405162461bcd60e51b815260206004820152601e60248201527f4261736553747261746567793a3a44656274526174696f4e6f745a65726f00006044820152606401610bd8565b60006112f36131c4565b90508781101561130e576113078189615378565b9250611323565b87811115611323576113208882615378565b93505b61132d8389615378565b915050611347565b61133f8888613206565b919450925090505b6000611353828561538b565b9050600080888310156113755761136a838a615378565b915060009050611386565b600091506113838984615378565b90505b6000604051806101600160405280306001600160a01b031681526020014281526020018881526020018781526020018681526020018481526020018381526020018b8152602001836113d6612229565b6113e09190615378565b815260200160d060008154809291906113f89061539e565b909155508152602001899052905081156114585760cb5460405161145391849161ffff600160a01b830416916001600160a01b03169061143f9060029087906020016153ef565b6040516020818303038152906040526132fd565b611483565b61148360028260405160200161146f9291906153ef565b6040516020818303038152906040526133eb565b7fb983e09c034e9c52b5e547cb0589967992b97717733f580cc5ad0afcdc4b522b8160400151826060015183608001518460a001518560c001518660e001518761010001516040516115069796959493929190968752602087019590955260408601939093526060850191909152608084015260a083015260c082015260e00190565b60405180910390a1505050505050505050505050565b610db18161356b565b600061152f6131c4565b905090565b60d05460cb546040513060601b6001600160601b03191660208201526034810192909252600160b01b900460f01b6001600160f01b031916605482015260009060560160405160208183030381529060405280519060200120905090565b3330146115f05760405162461bcd60e51b815260206004820152602660248201527f4e6f6e626c6f636b696e674c7a4170703a2063616c6c6572206d7573742062656044820152650204c7a4170760d41b6064820152608401610bd8565b610c578686868080601f01602080910402602001604051908101604052809392919081815260200183838082843760009201919091525050604080516020601f89018190048102820181019092528781528993509150879087908190840183828082843760009201919091525061370492505050565b61166e6125cc565b611678600061381a565b565b60666020526000908152604090208054611693906152ae565b80601f01602080910402602001604051908101604052809291908181526020018280546116bf906152ae565b801561170c5780601f106116e15761010080835404028352916020019161170c565b820191906000526020600020905b8154815290600101906020018083116116ef57829003601f168201915b505050505081565b610db18161386c565b6033546001600160a01b031690565b6040516370a0823160e01b8152600090600080516020615efe833981519152906370a0823190611760903090600401614cf0565b602060405180830381865afa15801561177d573d6000803e3d6000fd5b505050506040513d601f19601f8201168201806040525081019061152f9190615295565b6040516328bd9fc160e11b8152600090819073f68c20d6c50706f6c6bd8ee184382518c93b368c9063517b3f82906117ed90600080516020615f1e83398151915290879060040161549a565b602060405180830381865afa15801561180a573d6000803e3d6000fd5b505050506040513d601f19601f8201168201806040525081019061182e9190615295565b90506111558161115c565b61184161262b565b60ca546040516370a0823160e01b8152611678916001916001600160a01b03909116906370a0823190611878903090600401614cf0565b602060405180830381865afa158015611895573d6000803e3d6000fd5b505050506040513d601f19601f820116820180604052508101906118b99190615295565b60ca546001600160a01b03169190612684565b61ffff81166000908152606660205260408120805460609291906118ef906152ae565b80601f016020809104026020016040519081016040528092919081815260200182805461191b906152ae565b80156119685780601f1061193d57610100808354040283529160200191611968565b820191906000526020600020905b81548152906001019060200180831161194b57829003601f168201915b5050505050905080516000036119c05760405162461bcd60e51b815260206004820152601d60248201527f4c7a4170703a206e6f20747275737465642070617468207265636f72640000006044820152606401610bd8565b6111556000601483516119d39190615378565b839190613b60565b6119e36125cc565b8181306040516020016119f8939291906154b3565b60408051601f1981840301815291815261ffff8516600090815260666020522090611a23908261552f565b507f8c0400cfe2d1199b1a725c78960bcc2a344d869b80590d0f2bd005db15a572ce838383604051611a5793929190615344565b60405180910390a1505050565b60ca546040516310e1b98f60e21b815260009182918291600080516020615ede83398151915291634386e63c91611abe916001600160a01b0390911690600080516020615f3e833981519152906001908a906004016155e8565b6040805180830381865afa158015611ada573d6000803e3d6000fd5b505050506040513d601f19601f82011682018060405250810190611afe9190615613565b91509150611b0b8161115c565b611b15908361538b565b949350505050565b60ce546001600160a01b0316331480611b45575060cd5461010090046001600160a01b031633145b611b905760405162461bcd60e51b815260206004820152601c60248201527b53674272696467653a3a526f757465724f724272696467654f6e6c7960201b6044820152606401610bd8565b60cb546000906001600160a01b03163314611be257611bb28660006014613b60565b604051602001611bc29190615637565b604051602081830303815290604052611bda90615653565b60601c611bef565b60cb546001600160a01b03165b9050836001600160a01b03167f92073a89a07a000083eb8b2575fc15e7bb936efe55d00727d6942a796d7211a78483604051611c2c92919061568a565b60405180910390a250505050505050565b610db181613c6d565b611c4e6125cc565b606980546001600160a01b0319166001600160a01b0383161790556040517f5db758e995a17ec1ad84bdef7e8c3293a0bd6179bcce400dff5d4c3d87db726b90611084908390614cf0565b60006111e482738f3cf7ad23cd3cadbd9735aff958023239c6a0636001600160a01b031663313ce5676040518163ffffffff1660e01b8152600401602060405180830381865afa1580156111ae573d6000803e3d6000fd5b60ca546040516370a0823160e01b81526000916001600160a01b0316906370a0823190611760903090600401614cf0565b611d2a6125cc565b60c980546001600160a01b0319166001600160a01b0392909216919091179055565b600080600073d17cb0f162f133e339c0bbfc18c36c357e681d6b6001600160a01b0316630902f1ac6040518163ffffffff1660e01b8152600401606060405180830381865afa158015611da3573d6000803e3d6000fd5b505050506040513d601f19601f82011682018060405250810190611dc791906156a1565b5060ca549193509150600090611df7908390600080516020615f3e833981519152906001600160a01b0316613d52565b60cb549091508190611e1490600160c01b900460ff16600a6157b3565b611e1e90856157c2565b611e2891906157d9565b935050505090565b611e386125cc565b6065546040516332fb62e760e21b81526001600160a01b039091169063cbed8b9c90611e7090889088908890889088906004016157fb565b600060405180830381600087803b158015611e8a57600080fd5b505af115801561100d573d6000803e3d6000fd5b611ea781613e34565b505050565b61ffff86166000908152609760205260408082209051611ecf90889088906152e8565b90815260408051602092819003830190206001600160401b03871660009081529252902054905080611f4f5760405162461bcd60e51b815260206004820152602360248201527f4e6f6e626c6f636b696e674c7a4170703a206e6f2073746f726564206d65737360448201526261676560e81b6064820152608401610bd8565b808383604051611f609291906152e8565b604051809103902014611fbf5760405162461bcd60e51b815260206004820152602160248201527f4e6f6e626c6f636b696e674c7a4170703a20696e76616c6964207061796c6f616044820152601960fa1b6064820152608401610bd8565b61ffff87166000908152609760205260408082209051611fe290899089906152e8565b90815260408051602092819003830181206001600160401b038916600090815290845282902093909355601f8801829004820283018201905286825261207a918991899089908190840183828082843760009201919091525050604080516020601f8a018190048102820181019092528881528a93509150889088908190840183828082843760009201919091525061370492505050565b7fc264d91f3adc5588250e1551f547752ca0cfa8f6b530d243b9f9f4cab10ea8e587878787856040516120b1959493929190615829565b60405180910390a150505050505050565b6040516246613160e11b8152600090600080516020615efe83398151915290628cc26290611760903090600401614cf0565b6120fc6125cc565b600081116121445760405162461bcd60e51b81526020600482015260156024820152744c7a4170703a20696e76616c6964206d696e47617360581b6044820152606401610bd8565b61ffff83811660008181526067602090815260408083209487168084529482529182902085905581519283528201929092529081018290527f9d5c7c0b934da8fefa9c7760c98383778a12dfbfc0c3b3106518f43fb9508ac090606001611a57565b6121ae6125cc565b600090815260cf60205260409020805460ff19169055565b610db181613f69565b6121d76125cc565b61ffff831660009081526066602052604090206121f5828483615864565b507ffa41487ad5d6728f0b19276fa1eddc16558578f5109fc39d2dc33c3230470dab838383604051611a5793929190615344565b600061223661088161172c565b6040516370a0823160e01b81526122be90600080516020615f1e833981519152906370a082319061226b903090600401614cf0565b602060405180830381865afa158015612288573d6000803e3d6000fd5b505050506040513d601f19601f820116820180604052508101906122ac9190615295565b6122b46120c2565b6107f6919061538b565b60ca546040516370a0823160e01b81526001600160a01b03909116906370a08231906122ee903090600401614cf0565b602060405180830381865afa15801561230b573d6000803e3d6000fd5b505050506040513d601f19601f8201168201806040525081019061232f9190615295565b612339919061538b565b61152f919061538b565b61234b61262b565b60cc55565b6123586125cc565b6001600160a01b0381166123bd5760405162461bcd60e51b815260206004820152602660248201527f4f776e61626c653a206e6577206f776e657220697320746865207a65726f206160448201526564647265737360d01b6064820152608401610bd8565b610db18161381a565b606554604051633d7b2f6f60e21b815261ffff808716600483015285166024820152306044820152606481018390526060916001600160a01b03169063f5ecbdbc90608401600060405180830381865afa158015612428573d6000803e3d6000fd5b505050506040513d6000823e601f3d908101601f19168201604052612450919081019061591d565b95945050505050565b6040517b0ca2ba3432b932bab69029b4b3b732b21026b2b9b9b0b3b29d05199960211b6020820152603c8101829052600090605c01604051602081830303815290604052805190602001209050919050565b60ca546040516326283ecf60e21b81526000918291600080516020615ede833981519152916398a0fb3c91612505916001600160a01b031690600080516020615f3e8339815191529060019089906000199060040161598a565b606060405180830381865afa158015612522573d6000803e3d6000fd5b505050506040513d601f19601f8201168201806040525081019061254691906156a1565b9250505061115581611a64565b6000806125b65a60966366ad5c8a60e01b8989898960405160240161257b94939291906159bb565b60408051601f198184030181529190526020810180516001600160e01b03166001600160e01b03199093169290921790915230929190614045565b9150915081610c5757610c5786868686856140d1565b336125d561171d565b6001600160a01b0316146116785760405162461bcd60e51b815260206004820181905260248201527f4f776e61626c653a2063616c6c6572206973206e6f7420746865206f776e65726044820152606401610bd8565b60c9546001600160a01b031633146116785760405162461bcd60e51b815260206004820152601c60248201527b10985cd954dd1c985d1959de4e8e93db9b1e54dd1c985d1959da5cdd60221b6044820152606401610bd8565b611ea78363a9059cbb60e01b84846040516024016126a392919061549a565b60408051601f198184030181529190526020810180516001600160e01b03166001600160e01b03199093169290921790915261416e565b6001600160a01b03163b151590565b600054610100900460ff166127105760405162461bcd60e51b8152600401610bd8906159f9565b61271989614243565b60c980546001600160a01b03808b166001600160a01b03199283161790925560ca80548a8416908316811790915560cb8054938a1661ffff8a16600160a01b029093166001600160b01b0319909416939093179190911790915560cc8290556040805163313ce56760e01b8152905163313ce567916004808201926020929091908290030181865afa1580156127b3573d6000803e3d6000fd5b505050506040513d601f19601f820116820180604052508101906127d791906152f8565b60cb8054600060d05562ffffff60b01b1916600160c01b60ff939093169290920261ffff60b01b191691909117600160b01b61ffff87160217905560cd8054610100600160a81b0319166101006001600160a01b03868116919091029190911790915560ce80546001600160a01b03191684831617905560ca5460405163095ea7b360e01b815291169063095ea7b3906128799086906000199060040161549a565b6020604051808303816000875af1158015612898573d6000803e3d6000fd5b505050506040513d601f19601f820116820180604052508101906128bc9190615a44565b50505050505050505050565b8015806129425750604051636eb1769f60e11b81523060048201526001600160a01b03838116602483015284169063dd62ed3e90604401602060405180830381865afa15801561291c573d6000803e3d6000fd5b505050506040513d601f19601f820116820180604052508101906129409190615295565b155b6129ad5760405162461bcd60e51b815260206004820152603660248201527f5361666545524332303a20617070726f76652066726f6d206e6f6e2d7a65726f60448201527520746f206e6f6e2d7a65726f20616c6c6f77616e636560501b6064820152608401610bd8565b611ea78363095ea7b360e01b84846040516024016126a392919061549a565b600080516020615efe8339815191526001600160a01b0316633d18b9126040518163ffffffff1660e01b8152600401600060405180830381600087803b158015612a1557600080fd5b505af1158015612a29573d6000803e3d6000fd5b50506040516370a0823160e01b8152612aa89250600080516020615f1e83398151915291506370a0823190612a62903090600401614cf0565b602060405180830381865afa158015612a7f573d6000803e3d6000fd5b505050506040513d601f19601f82011682018060405250810190612aa39190615295565b61356b565b60ca546040516370a0823160e01b81526000916001600160a01b0316906370a0823190612ad9903090600401614cf0565b602060405180830381865afa158015612af6573d6000803e3d6000fd5b505050506040513d601f19601f82011682018060405250810190612b1a9190615295565b905081811115612ccf576000612b308383615378565b90506000612b3f6002836157d9565b90506000612bd28260cb60189054906101000a900460ff16738f3cf7ad23cd3cadbd9735aff958023239c6a0636001600160a01b031663313ce5676040518163ffffffff1660e01b8152600401602060405180830381865afa158015612ba9573d6000803e3d6000fd5b505050506040513d601f19601f82011682018060405250810190612bcd91906152f8565b6130e9565b6040805160808101825260ca546001600160601b0319606091821b1660a0830152601960ea1b60b4830152738f3cf7ad23cd3cadbd9735aff958023239c6a06360601b60b7830152825160ab81840301815260cb830184528252306020830152918101859052919250600091908101612c4a8461427b565b905260405163b858183f60e01b81529091507368b3465833fb72a70ecdf485e0e4c7bd8665fc459063b858183f90612c86908490600401615a61565b6020604051808303816000875af1158015612ca5573d6000803e3d6000fd5b505050506040513d601f19601f82011682018060405250810190612cc99190615295565b50505050505b6040516370a0823160e01b8152600090738f3cf7ad23cd3cadbd9735aff958023239c6a063906370a0823190612d09903090600401614cf0565b602060405180830381865afa158015612d26573d6000803e3d6000fd5b505050506040513d601f19601f82011682018060405250810190612d4a9190615295565b90508015612dd05760405163a39fc2c560e01b815273195f7b233947d51f4c3b756ad41a5ddb34cebce09063a39fc2c590612d8b908490309060040161568a565b6020604051808303816000875af1158015612daa573d6000803e3d6000fd5b505050506040513d601f19601f82011682018060405250810190612dce9190615295565b505b6040516370a0823160e01b8152600090600080516020615f3e833981519152906370a0823190612e04903090600401614cf0565b602060405180830381865afa158015612e21573d6000803e3d6000fd5b505050506040513d601f19601f82011682018060405250810190612e459190615295565b60ca546040516370a0823160e01b81529192506001600160a01b0316906370a0823190612e76903090600401614cf0565b602060405180830381865afa158015612e93573d6000803e3d6000fd5b505050506040513d601f19601f82011682018060405250810190612eb79190615295565b9250600081118015612ec95750600083115b156130345760ca546040516326283ecf60e21b81526000918291600080516020615ede833981519152916398a0fb3c91612f26916001600160a01b031690600080516020615f3e833981519152906001908b908a9060040161598a565b606060405180830381865afa158015612f43573d6000803e3d6000fd5b505050506040513d601f19601f82011682018060405250810190612f6791906156a1565b5060ca54604051635a47ddc360e01b81526001600160a01b039091166004820152600080516020615f3e8339815191526024820152600160448201819052606482018490526084820183905260a4820181905260c48201523060e4820152426101048201529193509150600080516020615ede83398151915290635a47ddc390610124016060604051808303816000875af115801561300a573d6000803e3d6000fd5b505050506040513d601f19601f8201168201806040525081019061302e91906156a1565b50505050505b6040516370a0823160e01b815260009073d17cb0f162f133e339c0bbfc18c36c357e681d6b906370a082319061306e903090600401614cf0565b602060405180830381865afa15801561308b573d6000803e3d6000fd5b505050506040513d601f19601f820116820180604052508101906130af9190615295565b90508015610cc55760405163b6b55f2560e01b815260048101829052600080516020615efe8339815191529063b6b55f2590602401611e70565b60008260ff168260ff16111561311f576131038383615aaf565b61310e90600a6157b3565b61311890856157c2565b9050611155565b6131298284615aaf565b61313490600a6157b3565b61311890856157d9565b6000613148611534565b9050600061315582612459565b60c9549091506001600160a01b031661316e8285614298565b6001600160a01b031614611ea75760405162461bcd60e51b815260206004820152601e60248201527f4261736553747261746567793a3a496e76616c69645369676e617475726500006044820152606401610bd8565b60006131d66131d161172c565b61386c565b60ca546040516370a0823160e01b81526001600160a01b03909116906370a0823190611760903090600401614cf0565b600080600080613214612229565b9050858110613232576132278682615378565b935060009250613243565b600093506132408187615378565b92505b613255613250858761538b565b613e34565b505060ca546040516370a0823160e01b81526000916001600160a01b0316906370a0823190613288903090600401614cf0565b602060405180830381865afa1580156132a5573d6000803e3d6000fd5b505050506040513d601f19601f820116820180604052508101906132c99190615295565b90508481116132de57809450600092506132f4565b6132f16132eb8683615378565b876142bc565b92505b50509250925092565b60cd54604051630dc6346160e01b815260009161010090046001600160a01b031690630dc634619061333790879087908790600401615ac8565b602060405180830381865afa158015613354573d6000803e3d6000fd5b505050506040513d601f19601f820116820180604052508101906133789190615295565b60cd5460ca54604051633920455b60e11b81529293506001600160a01b036101009092048216926372408ab69285926133be929116908a908a908a908a90600401615af6565b6000604051808303818588803b1580156133d757600080fd5b505af11580156128bc573d6000803e3d6000fd5b60cb5460408051606083811b6001600160601b03199081166020840152309182901b16603483015282516028818403018152604890920190925260655490926000926001600160a01b03909216916340a7bb109161ffff600160a01b909104169086856134566142d2565b6040518663ffffffff1660e01b8152600401613476959493929190615b33565b6040805180830381865afa158015613492573d6000803e3d6000fd5b505050506040513d601f19601f820116820180604052508101906134b69190615613565b509050804710156134e25760405162fae2d560e21b815260048101829052476024820152604401610bd8565b60655460cb546001600160a01b039091169063c5803100908390600160a01b900461ffff16858730806135136142d2565b6040518863ffffffff1660e01b815260040161353496959493929190615b87565b6000604051808303818588803b15801561354d57600080fd5b505af1158015613561573d6000803e3d6000fd5b5050505050505050565b806000036135765750565b60408051600280825260608201909252600091816020015b604080516060810182526000808252602080830182905292820152825260001990920191018161358e57505060408051606081018252600080516020615f1e8339815191528152600080516020615f3e8339815191526020820152600091810182905282519293509183919061360657613606615bee565b60209081029190910181019190915260408051606081018252600080516020615f3e833981519152815260ca546001600160a01b03169281019290925260019082018190528251839190811061365e5761365e615bee565b60200260200101819052506000613674836117a1565b9050600080516020615ede83398151915263f41766d8846136948461427b565b8530426040518663ffffffff1660e01b81526004016136b7959493929190615c04565b6000604051808303816000875af11580156136d6573d6000803e3d6000fd5b505050506040513d6000823e601f3d908101601f191682016040526136fe9190810190615c93565b50505050565b60cb5461ffff858116600160a01b909204161461376e5760405162461bcd60e51b815260206004820152602260248201527f4261736553747261746567793a3a5661756c74436861696e49644d69736d61746044820152610c6d60f31b6064820152608401610bd8565b600061377c84826014613b60565b60405160200161378c9190615637565b6040516020818303038152906040526137a490615653565b60cb5460609190911c91506001600160a01b031681146138115760405162461bcd60e51b815260206004820152602260248201527f4261736553747261746567793a3a5661756c74416464726573734d69736d61746044820152610c6d60f31b6064820152608401610bd8565b610cc582614302565b603380546001600160a01b038381166001600160a01b0319831681179093556040519116919082907f8be0079c531659141344cd1fd0a4f28419497f9722a3daafe3b4186f6b6457e090600090a35050565b600080516020615efe8339815191526001600160a01b0316633d18b9126040518163ffffffff1660e01b8152600401600060405180830381600087803b1580156138b557600080fd5b505af11580156138c9573d6000803e3d6000fd5b50506040516370a0823160e01b81526139029250600080516020615f1e83398151915291506370a0823190612a62903090600401614cf0565b8060000361390d5750565b604051632e1a7d4d60e01b815260048101829052600080516020615efe83398151915290632e1a7d4d90602401600060405180830381600087803b15801561395457600080fd5b505af1158015613968573d6000803e3d6000fd5b505060ca546040516310e1b98f60e21b815260009350839250600080516020615ede83398151915291634386e63c916139c2916001600160a01b031690600080516020615f3e8339815191529060019089906004016155e8565b6040805180830381865afa1580156139de573d6000803e3d6000fd5b505050506040513d601f19601f82011682018060405250810190613a029190615613565b60ca549193509150600080516020615ede83398151915290630dede6c4906001600160a01b0316600080516020615f3e833981519152600187613a448861427b565b613a4d8861427b565b6040516001600160e01b031960e089901b1681526001600160a01b03968716600482015295909416602486015291151560448501526064840152608483015260a48201523060c48201524260e48201526101040160408051808303816000875af1158015613abf573d6000803e3d6000fd5b505050506040513d601f19601f82011682018060405250810190613ae39190615613565b50506040516370a0823160e01b8152611ea790600080516020615f3e833981519152906370a0823190613b1a903090600401614cf0565b602060405180830381865afa158015613b37573d6000803e3d6000fd5b505050506040513d601f19601f82011682018060405250810190613b5b9190615295565b613f69565b606081613b6e81601f61538b565b1015613bad5760405162461bcd60e51b815260206004820152600e60248201526d736c6963655f6f766572666c6f7760901b6044820152606401610bd8565b613bb7828461538b565b84511015613bfb5760405162461bcd60e51b8152602060048201526011602482015270736c6963655f6f75744f66426f756e647360781b6044820152606401610bd8565b606082158015613c1a5760405191506000825260208201604052613c64565b6040519150601f8416801560200281840101858101878315602002848b0101015b81831015613c53578051835260209283019201613c3b565b5050858452601f01601f1916604052505b50949350505050565b80600003613c785750565b6000613c856107f66120c2565b9050818110613d2857600080516020615efe8339815191526001600160a01b0316633d18b9126040518163ffffffff1660e01b8152600401600060405180830381600087803b158015613cd757600080fd5b505af1158015613ceb573d6000803e3d6000fd5b50506040516370a0823160e01b8152613d249250600080516020615f1e83398151915291506370a0823190612a62903090600401614cf0565b5050565b6000613d47613d3a610b718486615378565b613d4261172c565b6142bc565b9050611ea78161386c565b600080836001600160a01b031663313ce5676040518163ffffffff1660e01b8152600401602060405180830381865afa158015613d93573d6000803e3d6000fd5b505050506040513d601f19601f82011682018060405250810190613db791906152f8565b90506000836001600160a01b031663313ce5676040518163ffffffff1660e01b8152600401602060405180830381865afa158015613df9573d6000803e3d6000fd5b505050506040513d601f19601f82011682018060405250810190613e1d91906152f8565b9050613e2a8683836130e9565b9695505050505050565b60ca546040516370a0823160e01b8152600091829182916001600160a01b0316906370a0823190613e69903090600401614cf0565b602060405180830381865afa158015613e86573d6000803e3d6000fd5b505050506040513d601f19601f82011682018060405250810190613eaa9190615295565b9050838110613ebe57509192600092509050565b613ed0613ecb8286615378565b613c6d565b60ca546040516370a0823160e01b81526001600160a01b03909116906370a0823190613f00903090600401614cf0565b602060405180830381865afa158015613f1d573d6000803e3d6000fd5b505050506040513d601f19601f82011682018060405250810190613f419190615295565b905080841115613f5f57915081613f588185615378565b9150613f63565b8392505b50915091565b80600003613f745750565b6000613f7f8261115c565b9050600080516020615ede8339815191526313dcfc5983613f9f8461427b565b60ca5460405160e085901b6001600160e01b031916815260048101939093526024830191909152600080516020615f3e83398151915260448301526001600160a01b03166064820152600160848201523060a48201524260c482015260e4016000604051808303816000875af115801561401d573d6000803e3d6000fd5b505050506040513d6000823e601f3d908101601f19168201604052611ea79190810190615c93565b6000606060008060008661ffff166001600160401b0381111561406a5761406a614f26565b6040519080825280601f01601f191660200182016040528015614094576020820181803683370190505b50905060008087516020890160008d8df191503d9250868311156140b6578692505b828152826000602083013e9093509150505b94509492505050565b8180519060200120609760008761ffff1661ffff168152602001908152602001600020856040516141029190615637565b9081526040805191829003602090810183206001600160401b0388166000908152915220919091557fe183f33de2837795525b4792ca4cd60535bd77c53b7e7030060bfcf5734d6b0c9061415f9087908790879087908790615d2c565b60405180910390a15050505050565b60006141c3826040518060400160405280602081526020017f5361666545524332303a206c6f772d6c6576656c2063616c6c206661696c6564815250856001600160a01b03166144239092919063ffffffff16565b90508051600014806141e45750808060200190518101906141e49190615a44565b611ea75760405162461bcd60e51b815260206004820152602a60248201527f5361666545524332303a204552433230206f7065726174696f6e20646964206e6044820152691bdd081cdd58d8d9595960b21b6064820152608401610bd8565b600054610100900460ff1661426a5760405162461bcd60e51b8152600401610bd8906159f9565b614272614432565b610db181614462565b600061271060cc548361428e91906157c2565b6111e491906157d9565b60008060006142a785856144ab565b915091506142b4816144f0565b509392505050565b60008183106142cb5781611155565b5090919050565b60408051600160f01b6020820152620f424060228083019190915282518083039091018152604290910190915290565b6000818060200190518101906143189190615d7e565b9050600381600481111561432e5761432e6153b7565b03614379576000828060200190518101906143499190615d9f565b91505061435981600001516129cc565b8051604051908152600080516020615f5e83398151915290602001611a57565b600081600481111561438d5761438d6153b7565b036143b4576000828060200190518101906143a89190615de2565b915050611ea781614635565b60048160048111156143c8576143c86153b7565b03613d24576000828060200190518101906143e39190615e4d565b9150506143f3816000015161475f565b80516040517f7c9a2d2ec51230d7dbed27f113a325b7e20aef7b049e68b2339257b5edff5bea91611a5791614cf0565b6060611b15848460008561479e565b600054610100900460ff166144595760405162461bcd60e51b8152600401610bd8906159f9565b6116783361381a565b600054610100900460ff166144895760405162461bcd60e51b8152600401610bd8906159f9565b606580546001600160a01b0319166001600160a01b0392909216919091179055565b60008082516041036144e15760208301516040840151606085015160001a6144d587828585614879565b945094505050506144e9565b506000905060025b9250929050565b6000816004811115614504576145046153b7565b0361450c5750565b6001816004811115614520576145206153b7565b036145685760405162461bcd60e51b815260206004820152601860248201527745434453413a20696e76616c6964207369676e617475726560401b6044820152606401610bd8565b600281600481111561457c5761457c6153b7565b036145c95760405162461bcd60e51b815260206004820152601f60248201527f45434453413a20696e76616c6964207369676e6174757265206c656e677468006044820152606401610bd8565b60038160048111156145dd576145dd6153b7565b03610db15760405162461bcd60e51b815260206004820152602260248201527f45434453413a20696e76616c6964207369676e6174757265202773272076616c604482015261756560f01b6064820152608401610bd8565b602080820151600090815260cf909152604090205460ff161561469a5760405162461bcd60e51b815260206004820152601e60248201527f4261736553747261746567793a3a416c726561647957697468647261776e00006044820152606401610bd8565b6000806146aa8360000151613e34565b91509150600060016040518060800160405280306001600160a01b0316815260200185815260200184815260200186602001518152506040516020016146f1929190615e9b565b60408051601f19818403018152919052905082156147325760cb5461472d90849061ffff600160a01b820416906001600160a01b0316846132fd565b61473b565b61473b816133eb565b505050602090810151600090815260cf90915260409020805460ff19166001179055565b61476881614930565b60ca546040516370a0823160e01b8152610db19183916001600160a01b03909116906370a0823190611878903090600401614cf0565b6060824710156147ff5760405162461bcd60e51b815260206004820152602660248201527f416464726573733a20696e73756666696369656e742062616c616e636520666f6044820152651c8818d85b1b60d21b6064820152608401610bd8565b600080866001600160a01b0316858760405161481b9190615637565b60006040518083038185875af1925050503d8060008114614858576040519150601f19603f3d011682016040523d82523d6000602084013e61485d565b606091505b509150915061486e87838387614b52565b979650505050505050565b6000806fa2a8918ca85bafe22016d0b997e4df60600160ff1b038311156148a657506000905060036140c8565b6040805160008082526020820180845289905260ff881692820192909252606081018690526080810185905260019060a0016020604051602081039080840390855afa1580156148fa573d6000803e3d6000fd5b5050604051601f1901519150506001600160a01b038116614923576000600192509250506140c8565b9660009650945050505050565b600080516020615efe833981519152632e1a7d4d61494c61172c565b6040518263ffffffff1660e01b815260040161496a91815260200190565b600060405180830381600087803b15801561498457600080fd5b505af1158015614998573d6000803e3d6000fd5b50506040516370a0823160e01b8152614a36925083915073d17cb0f162f133e339c0bbfc18c36c357e681d6b906370a08231906149d9903090600401614cf0565b602060405180830381865afa1580156149f6573d6000803e3d6000fd5b505050506040513d601f19601f82011682018060405250810190614a1a9190615295565b73d17cb0f162f133e339c0bbfc18c36c357e681d6b9190612684565b6040516370a0823160e01b8152614ac4908290600080516020615f3e833981519152906370a0823190614a6d903090600401614cf0565b602060405180830381865afa158015614a8a573d6000803e3d6000fd5b505050506040513d601f19601f82011682018060405250810190614aae9190615295565b600080516020615f3e8339815191529190612684565b6040516370a0823160e01b8152610db1908290600080516020615f1e833981519152906370a0823190614afb903090600401614cf0565b602060405180830381865afa158015614b18573d6000803e3d6000fd5b505050506040513d601f19601f82011682018060405250810190614b3c9190615295565b600080516020615f1e8339815191529190612684565b60608315614bbf578251600003614bb857614b6c856126da565b614bb85760405162461bcd60e51b815260206004820152601d60248201527f416464726573733a2063616c6c20746f206e6f6e2d636f6e74726163740000006044820152606401610bd8565b5081611b15565b611b158383815115614bd45781518083602001fd5b8060405162461bcd60e51b8152600401610bd89190614d54565b803561ffff81168114614c0057600080fd5b919050565b60008083601f840112614c1757600080fd5b5081356001600160401b03811115614c2e57600080fd5b6020830191508360208285010111156144e957600080fd5b80356001600160401b0381168114614c0057600080fd5b60008060008060008060808789031215614c7657600080fd5b614c7f87614bee565b955060208701356001600160401b0380821115614c9b57600080fd5b614ca78a838b01614c05565b9097509550859150614cbb60408a01614c46565b94506060890135915080821115614cd157600080fd5b50614cde89828a01614c05565b979a9699509497509295939492505050565b6001600160a01b0391909116815260200190565b60005b83811015614d1f578181015183820152602001614d07565b50506000910152565b60008151808452614d40816020860160208601614d04565b601f01601f19169290920160200192915050565b6020815260006111556020830184614d28565b600060208284031215614d7957600080fd5b61115582614bee565b60008060408385031215614d9557600080fd5b614d9e83614bee565b946020939093013593505050565b6001600160a01b0381168114610db157600080fd5b600060208284031215614dd357600080fd5b813561115581614dac565b600080600080600080600080610100898b031215614dfb57600080fd5b8835614e0681614dac565b97506020890135614e1681614dac565b96506040890135614e2681614dac565b95506060890135614e3681614dac565b9450614e4460808a01614bee565b9350614e5260a08a01614bee565b925060c0890135614e6281614dac565b915060e0890135614e7281614dac565b809150509295985092959890939650565b6001600160a01b03169052565b600060208284031215614ea257600080fd5b5035919050565b600080600060408486031215614ebe57600080fd5b614ec784614bee565b925060208401356001600160401b03811115614ee257600080fd5b614eee86828701614c05565b9497909650939450505050565b8015158114610db157600080fd5b600060208284031215614f1b57600080fd5b813561115581614efb565b634e487b7160e01b600052604160045260246000fd5b604051602081016001600160401b0381118282101715614f5e57614f5e614f26565b60405290565b604051601f8201601f191681016001600160401b0381118282101715614f8c57614f8c614f26565b604052919050565b60006001600160401b03821115614fad57614fad614f26565b50601f01601f191660200190565b600082601f830112614fcc57600080fd5b8135614fdf614fda82614f94565b614f64565b818152846020838601011115614ff457600080fd5b816020850160208301376000918101602001919091529392505050565b600080600080600060a0868803121561502957600080fd5b8535945060208601359350604086013592506060860135915060808601356001600160401b0381111561505b57600080fd5b61506788828901614fbb565b9150509295509295909350565b60008060006060848603121561508957600080fd5b61509284614bee565b925060208401356001600160401b038111156150ad57600080fd5b6150b986828701614fbb565b9250506150c860408501614c46565b90509250925092565b600080604083850312156150e457600080fd5b6150ed83614bee565b91506150fb60208401614bee565b90509250929050565b60008060008060008060c0878903121561511d57600080fd5b61512687614bee565b955060208701356001600160401b038082111561514257600080fd5b61514e8a838b01614fbb565b9650604089013595506060890135915061516782614dac565b9093506080880135925060a0880135908082111561518457600080fd5b5061519189828a01614fbb565b9150509295509295509295565b6000806000806000608086880312156151b657600080fd5b6151bf86614bee565b94506151cd60208701614bee565b93506040860135925060608601356001600160401b038111156151ef57600080fd5b6151fb88828901614c05565b969995985093965092949392505050565b60008060006060848603121561522157600080fd5b61522a84614bee565b925061523860208501614bee565b9150604084013590509250925092565b6000806000806080858703121561525e57600080fd5b61526785614bee565b935061527560208601614bee565b9250604085013561528581614dac565b9396929550929360600135925050565b6000602082840312156152a757600080fd5b5051919050565b600181811c908216806152c257607f821691505b6020821081036152e257634e487b7160e01b600052602260045260246000fd5b50919050565b8183823760009101908152919050565b60006020828403121561530a57600080fd5b815160ff8116811461115557600080fd5b81835281816020850137506000828201602090810191909152601f909101601f19169091010190565b61ffff8416815260406020820152600061245060408301848661531b565b634e487b7160e01b600052601160045260246000fd5b818103818111156111e4576111e4615362565b808201808211156111e4576111e4615362565b6000600182016153b0576153b0615362565b5060010190565b634e487b7160e01b600052602160045260246000fd5b600581106153eb57634e487b7160e01b600052602160045260246000fd5b9052565b6153f981846153cd565b6040602082015261540e604082018351614e83565b6020820151606082015260408201516080820152606082015160a0820152608082015160c082015260a082015160e0820152600060c0830151610100818185015260e085015191506101208281860152818601519250610140915082828601528086015192505061016082818601528186015192508061018086015250506124506101a0840182614d28565b6001600160a01b03929092168252602082015260400190565b8284823760609190911b6001600160601b0319169101908152601401919050565b601f821115611ea757600081815260208120601f850160051c810160208610156154fb5750805b601f850160051c820191505b81811015610c5757828155600101615507565b600019600383901b1c191660019190911b1790565b81516001600160401b0381111561554857615548614f26565b61555c8161555684546152ae565b846154d4565b602080601f83116001811461558b57600084156155795750858301515b615583858261551a565b865550610c57565b600085815260208120601f198616915b828110156155ba5788860151825594840194600190910190840161559b565b50858210156155d85787850151600019600388901b60f8161c191681555b5050505050600190811b01905550565b6001600160a01b03948516815292909316602083015215156040820152606081019190915260800190565b6000806040838503121561562657600080fd5b505080516020909101519092909150565b60008251615649818460208701614d04565b9190910192915050565b805160208201516001600160601b031980821692919060148310156156825780818460140360031b1b83161693505b505050919050565b9182526001600160a01b0316602082015260400190565b6000806000606084860312156156b657600080fd5b8351925060208401519150604084015190509250925092565b600181815b8085111561570a5781600019048211156156f0576156f0615362565b808516156156fd57918102915b93841c93908002906156d4565b509250929050565b600082615721575060016111e4565b8161572e575060006111e4565b8160018114615744576002811461574e5761576a565b60019150506111e4565b60ff84111561575f5761575f615362565b50506001821b6111e4565b5060208310610133831016604e8410600b841016171561578d575081810a6111e4565b61579783836156cf565b80600019048211156157ab576157ab615362565b029392505050565b600061115560ff841683615712565b80820281158282048414176111e4576111e4615362565b6000826157f657634e487b7160e01b600052601260045260246000fd5b500490565b600061ffff80881683528087166020840152508460408301526080606083015261486e60808301848661531b565b61ffff8616815260806020820152600061584760808301868861531b565b6001600160401b0394909416604083015250606001529392505050565b6001600160401b0383111561587b5761587b614f26565b61588f8361588983546152ae565b836154d4565b6000601f8411600181146158bd57600085156158ab5750838201355b6158b5868261551a565b845550610cc5565b600083815260209020601f19861690835b828110156158ee57868501358255602094850194600190920191016158ce565b508682101561590b5760001960f88860031b161c19848701351681555b505060018560011b0183555050505050565b60006020828403121561592f57600080fd5b81516001600160401b0381111561594557600080fd5b8201601f8101841361595657600080fd5b8051615964614fda82614f94565b81815285602083850101111561597957600080fd5b612450826020830160208601614d04565b6001600160a01b03958616815293909416602084015290151560408301526060820152608081019190915260a00190565b61ffff851681526080602082015260006159d86080830186614d28565b6001600160401b0385166040840152828103606084015261486e8185614d28565b6020808252602b908201527f496e697469616c697a61626c653a20636f6e7472616374206973206e6f74206960408201526a6e697469616c697a696e6760a81b606082015260800190565b600060208284031215615a5657600080fd5b815161115581614efb565b602081526000825160806020840152615a7d60a0840182614d28565b905060018060a01b03602085015116604084015260408401516060840152606084015160808401528091505092915050565b60ff82811682821603908111156111e4576111e4615362565b61ffff841681526001600160a01b038316602082015260606040820181905260009061245090830184614d28565b6001600160a01b0386811682526020820186905261ffff851660408301528316606082015260a06080820181905260009061486e90830184614d28565b61ffff861681526001600160a01b038516602082015260a060408201819052600090615b6190830186614d28565b84151560608401528281036080840152615b7b8185614d28565b98975050505050505050565b61ffff8716815260c060208201526000615ba460c0830188614d28565b8281036040840152615bb68188614d28565b6001600160a01b0387811660608601528616608085015283810360a08501529050615be18185614d28565b9998505050505050505050565b634e487b7160e01b600052603260045260246000fd5b600060a0820187835260208781850152604060a08186015282885180855260c087019150838a01945060005b81811015615c6d57855180516001600160a01b03908116855286820151168685015284015115158484015294840194606090920191600101615c30565b505080945050505050615c836060830185614e83565b8260808301529695505050505050565b60006020808385031215615ca657600080fd5b82516001600160401b0380821115615cbd57600080fd5b818501915085601f830112615cd157600080fd5b815181811115615ce357615ce3614f26565b8060051b9150615cf4848301614f64565b8181529183018401918481019088841115615d0e57600080fd5b938501935b83851015615b7b57845182529385019390850190615d13565b61ffff8616815260a060208201526000615d4960a0830187614d28565b6001600160401b03861660408401528281036060840152615d6a8186614d28565b90508281036080840152615b7b8185614d28565b600060208284031215615d9057600080fd5b81516005811061115557600080fd5b6000808284036040811215615db357600080fd5b835192506020601f1982011215615dc957600080fd5b50615dd2614f3c565b6020939093015183525092909150565b6000808284036060811215615df657600080fd5b835192506040601f1982011215615e0c57600080fd5b50604080519081016001600160401b0381118282101715615e2f57615e2f614f26565b60409081526020858101518352940151938101939093525092909150565b6000808284036040811215615e6157600080fd5b835192506020601f1982011215615e7757600080fd5b50615e80614f3c565b6020840151615e8e81614dac565b8152919491935090915050565b60a08101615ea982856153cd565b60018060a01b038351166020830152602083015160408301526040830151606083015260608301516080830152939250505056fe000000000000000000000000cc25c0fd84737f44a7d38649b69491bbf0c7f08300000000000000000000000097bd59a8202f8263c2ec39cf6cf6b438d0b458760000000000000000000000007238390d5f6f64e67c3211c343a410e2a3dec14200000000000000000000000040379a439d4f6795b6fc9aa5687db461677a2dbab0c58532a125fc3c0adccaef396bf65344a4d5781cec2e4c593e6b611d75f150a2646970667358221220c7b66977bf3e3b2939bac213c14cb2bb44d279746ac379afdada9b09aa244ebb64736f6c63430008130033",
  "linkReferences": {},
  "deployedLinkReferences": {}
}