{
  "_format": "hh-sol-artifact-1",
  "contractName": "MockPearlStrategy",
  "sourceName": "contracts/mock/MockPearlStrategy.sol",
  "abi": [
    {
      "inputs": [
        {
          "internalType": "uint256",
          "name": "messageType",
          "type": "uint256"
        }
      ],
      "name": "IncorrectMessageType",
      "type": "error"
    },
    {
      "inputs": [
        {
          "internalType": "uint256",
          "name": "amount",
          "type": "uint256"
        },
        {
          "internalType": "uint256",
          "name": "balance",
          "type": "uint256"
        }
      ],
      "name": "InsufficientFunds",
      "type": "error"
    },
    {
      "inputs": [],
      "name": "SwapHelperOnly",
      "type": "error"
    },
    {
      "anonymous": false,
      "inputs": [
        {
          "indexed": false,
          "internalType": "uint256",
          "name": "debtOutstanding",
          "type": "uint256"
        }
      ],
      "name": "AdjustedPosition",
      "type": "event"
    },
    {
      "anonymous": false,
      "inputs": [
        {
          "indexed": false,
          "internalType": "uint8",
          "name": "version",
          "type": "uint8"
        }
      ],
      "name": "Initialized",
      "type": "event"
    },
    {
      "anonymous": false,
      "inputs": [
        {
          "indexed": false,
          "internalType": "uint16",
          "name": "_srcChainId",
          "type": "uint16"
        },
        {
          "indexed": false,
          "internalType": "bytes",
          "name": "_srcAddress",
          "type": "bytes"
        },
        {
          "indexed": false,
          "internalType": "uint64",
          "name": "_nonce",
          "type": "uint64"
        },
        {
          "indexed": false,
          "internalType": "bytes",
          "name": "_payload",
          "type": "bytes"
        },
        {
          "indexed": false,
          "internalType": "bytes",
          "name": "_reason",
          "type": "bytes"
        }
      ],
      "name": "MessageFailed",
      "type": "event"
    },
    {
      "anonymous": false,
      "inputs": [
        {
          "indexed": true,
          "internalType": "address",
          "name": "src",
          "type": "address"
        },
        {
          "indexed": true,
          "internalType": "address",
          "name": "dst",
          "type": "address"
        },
        {
          "indexed": true,
          "internalType": "uint256",
          "name": "amountOut",
          "type": "uint256"
        },
        {
          "indexed": false,
          "internalType": "uint256",
          "name": "amountIn",
          "type": "uint256"
        }
      ],
      "name": "Notified",
      "type": "event"
    },
    {
      "anonymous": false,
      "inputs": [
        {
          "indexed": true,
          "internalType": "address",
          "name": "previousOwner",
          "type": "address"
        },
        {
          "indexed": true,
          "internalType": "address",
          "name": "newOwner",
          "type": "address"
        }
      ],
      "name": "OwnershipTransferred",
      "type": "event"
    },
    {
      "anonymous": false,
      "inputs": [
        {
          "indexed": false,
          "internalType": "uint16",
          "name": "_srcChainId",
          "type": "uint16"
        },
        {
          "indexed": false,
          "internalType": "bytes",
          "name": "_srcAddress",
          "type": "bytes"
        },
        {
          "indexed": false,
          "internalType": "uint64",
          "name": "_nonce",
          "type": "uint64"
        },
        {
          "indexed": false,
          "internalType": "bytes32",
          "name": "_payloadHash",
          "type": "bytes32"
        }
      ],
      "name": "RetryMessageSuccess",
      "type": "event"
    },
    {
      "anonymous": false,
      "inputs": [
        {
          "indexed": false,
          "internalType": "uint16",
          "name": "_dstChainId",
          "type": "uint16"
        },
        {
          "indexed": false,
          "internalType": "uint16",
          "name": "_type",
          "type": "uint16"
        },
        {
          "indexed": false,
          "internalType": "uint256",
          "name": "_minDstGas",
          "type": "uint256"
        }
      ],
      "name": "SetMinDstGas",
      "type": "event"
    },
    {
      "anonymous": false,
      "inputs": [
        {
          "indexed": false,
          "internalType": "address",
          "name": "precrime",
          "type": "address"
        }
      ],
      "name": "SetPrecrime",
      "type": "event"
    },
    {
      "anonymous": false,
      "inputs": [
        {
          "indexed": false,
          "internalType": "uint16",
          "name": "_remoteChainId",
          "type": "uint16"
        },
        {
          "indexed": false,
          "internalType": "bytes",
          "name": "_path",
          "type": "bytes"
        }
      ],
      "name": "SetTrustedRemote",
      "type": "event"
    },
    {
      "anonymous": false,
      "inputs": [
        {
          "indexed": false,
          "internalType": "uint16",
          "name": "_remoteChainId",
          "type": "uint16"
        },
        {
          "indexed": false,
          "internalType": "bytes",
          "name": "_remoteAddress",
          "type": "bytes"
        }
      ],
      "name": "SetTrustedRemoteAddress",
      "type": "event"
    },
    {
      "anonymous": false,
      "inputs": [
        {
          "indexed": true,
          "internalType": "address",
          "name": "token",
          "type": "address"
        },
        {
          "indexed": false,
          "internalType": "uint256",
          "name": "amount",
          "type": "uint256"
        },
        {
          "indexed": false,
          "internalType": "address",
          "name": "sender",
          "type": "address"
        }
      ],
      "name": "SgReceived",
      "type": "event"
    },
    {
      "anonymous": false,
      "inputs": [
        {
          "indexed": false,
          "internalType": "address",
          "name": "newStrategy",
          "type": "address"
        }
      ],
      "name": "StrategyMigrated",
      "type": "event"
    },
    {
      "anonymous": false,
      "inputs": [
        {
          "indexed": false,
          "internalType": "uint256",
          "name": "profit",
          "type": "uint256"
        },
        {
          "indexed": false,
          "internalType": "uint256",
          "name": "loss",
          "type": "uint256"
        },
        {
          "indexed": false,
          "internalType": "uint256",
          "name": "debtPayment",
          "type": "uint256"
        },
        {
          "indexed": false,
          "internalType": "uint256",
          "name": "giveToStrategy",
          "type": "uint256"
        },
        {
          "indexed": false,
          "internalType": "uint256",
          "name": "requestFromStrategy",
          "type": "uint256"
        },
        {
          "indexed": false,
          "internalType": "uint256",
          "name": "creditAvailable",
          "type": "uint256"
        },
        {
          "indexed": false,
          "internalType": "uint256",
          "name": "totalAssets",
          "type": "uint256"
        }
      ],
      "name": "StrategyReported",
      "type": "event"
    },
    {
      "inputs": [],
      "name": "DEFAULT_PAYLOAD_SIZE_LIMIT",
      "outputs": [
        {
          "internalType": "uint256",
          "name": "",
          "type": "uint256"
        }
      ],
      "stateMutability": "view",
      "type": "function"
    },
    {
      "inputs": [],
      "name": "DEFAULT_SLIPPAGE",
      "outputs": [
        {
          "internalType": "uint256",
          "name": "",
          "type": "uint256"
        }
      ],
      "stateMutability": "view",
      "type": "function"
    },
    {
      "inputs": [
        {
          "internalType": "uint256",
          "name": "_debtOutstanding",
          "type": "uint256"
        }
      ],
      "name": "adjustPosition",
      "outputs": [],
      "stateMutability": "nonpayable",
      "type": "function"
    },
    {
      "inputs": [],
      "name": "adjustedTo1InchSlippage",
      "outputs": [
        {
          "internalType": "uint8",
          "name": "",
          "type": "uint8"
        }
      ],
      "stateMutability": "view",
      "type": "function"
    },
    {
      "inputs": [],
      "name": "balanceOfLpStaked",
      "outputs": [
        {
          "internalType": "uint256",
          "name": "",
          "type": "uint256"
        }
      ],
      "stateMutability": "view",
      "type": "function"
    },
    {
      "inputs": [],
      "name": "balanceOfPearlRewards",
      "outputs": [
        {
          "internalType": "uint256",
          "name": "",
          "type": "uint256"
        }
      ],
      "stateMutability": "view",
      "type": "function"
    },
    {
      "inputs": [],
      "name": "balanceOfWant",
      "outputs": [
        {
          "internalType": "uint256",
          "name": "",
          "type": "uint256"
        }
      ],
      "stateMutability": "view",
      "type": "function"
    },
    {
      "inputs": [
        {
          "internalType": "uint256",
          "name": "epoch",
          "type": "uint256"
        }
      ],
      "name": "callMe",
      "outputs": [],
      "stateMutability": "nonpayable",
      "type": "function"
    },
    {
      "inputs": [],
      "name": "clearWant",
      "outputs": [],
      "stateMutability": "nonpayable",
      "type": "function"
    },
    {
      "inputs": [],
      "name": "currentChainId",
      "outputs": [
        {
          "internalType": "uint16",
          "name": "",
          "type": "uint16"
        }
      ],
      "stateMutability": "view",
      "type": "function"
    },
    {
      "inputs": [
        {
          "internalType": "uint256",
          "name": "_daiAmount",
          "type": "uint256"
        }
      ],
      "name": "daiToWant",
      "outputs": [
        {
          "internalType": "uint256",
          "name": "",
          "type": "uint256"
        }
      ],
      "stateMutability": "view",
      "type": "function"
    },
    {
      "inputs": [],
      "name": "emergencyExit",
      "outputs": [
        {
          "internalType": "bool",
          "name": "",
          "type": "bool"
        }
      ],
      "stateMutability": "view",
      "type": "function"
    },
    {
      "inputs": [],
      "name": "estimatedTotalAssets",
      "outputs": [
        {
          "internalType": "uint256",
          "name": "",
          "type": "uint256"
        }
      ],
      "stateMutability": "view",
      "type": "function"
    },
    {
      "inputs": [
        {
          "internalType": "uint256",
          "name": "_stakedLpTokens",
          "type": "uint256"
        }
      ],
      "name": "exitPosition",
      "outputs": [],
      "stateMutability": "nonpayable",
      "type": "function"
    },
    {
      "inputs": [
        {
          "internalType": "uint16",
          "name": "",
          "type": "uint16"
        },
        {
          "internalType": "bytes",
          "name": "",
          "type": "bytes"
        },
        {
          "internalType": "uint64",
          "name": "",
          "type": "uint64"
        }
      ],
      "name": "failedMessages",
      "outputs": [
        {
          "internalType": "bytes32",
          "name": "",
          "type": "bytes32"
        }
      ],
      "stateMutability": "view",
      "type": "function"
    },
    {
      "inputs": [
        {
          "internalType": "uint16",
          "name": "_srcChainId",
          "type": "uint16"
        },
        {
          "internalType": "bytes",
          "name": "_srcAddress",
          "type": "bytes"
        }
      ],
      "name": "forceResumeReceive",
      "outputs": [],
      "stateMutability": "nonpayable",
      "type": "function"
    },
    {
      "inputs": [
        {
          "internalType": "uint16",
          "name": "_version",
          "type": "uint16"
        },
        {
          "internalType": "uint16",
          "name": "_chainId",
          "type": "uint16"
        },
        {
          "internalType": "address",
          "name": "",
          "type": "address"
        },
        {
          "internalType": "uint256",
          "name": "_configType",
          "type": "uint256"
        }
      ],
      "name": "getConfig",
      "outputs": [
        {
          "internalType": "bytes",
          "name": "",
          "type": "bytes"
        }
      ],
      "stateMutability": "view",
      "type": "function"
    },
    {
      "inputs": [
        {
          "internalType": "bytes32",
          "name": "_messageHash",
          "type": "bytes32"
        }
      ],
      "name": "getEthSignedMessageHash",
      "outputs": [
        {
          "internalType": "bytes32",
          "name": "",
          "type": "bytes32"
        }
      ],
      "stateMutability": "pure",
      "type": "function"
    },
    {
      "inputs": [
        {
          "internalType": "uint16",
          "name": "_remoteChainId",
          "type": "uint16"
        }
      ],
      "name": "getTrustedRemoteAddress",
      "outputs": [
        {
          "internalType": "bytes",
          "name": "",
          "type": "bytes"
        }
      ],
      "stateMutability": "view",
      "type": "function"
    },
    {
      "inputs": [
        {
          "internalType": "uint256",
          "name": "_totalDebt",
          "type": "uint256"
        },
        {
          "internalType": "uint256",
          "name": "_debtOutstanding",
          "type": "uint256"
        },
        {
          "internalType": "uint256",
          "name": "_creditAvailable",
          "type": "uint256"
        },
        {
          "internalType": "uint256",
          "name": "_debtRatio",
          "type": "uint256"
        },
        {
          "internalType": "bytes",
          "name": "_signature",
          "type": "bytes"
        }
      ],
      "name": "harvest",
      "outputs": [],
      "stateMutability": "nonpayable",
      "type": "function"
    },
    {
      "inputs": [
        {
          "internalType": "address",
          "name": "_lzEndpoint",
          "type": "address"
        },
        {
          "internalType": "address",
          "name": "_strategist",
          "type": "address"
        },
        {
          "internalType": "contract IERC20Metadata",
          "name": "_want",
          "type": "address"
        },
        {
          "internalType": "address",
          "name": "_vault",
          "type": "address"
        },
        {
          "internalType": "uint16",
          "name": "_vaultChainId",
          "type": "uint16"
        },
        {
          "internalType": "uint16",
          "name": "_currentChainId",
          "type": "uint16"
        },
        {
          "internalType": "address",
          "name": "_sgBridge",
          "type": "address"
        },
        {
          "internalType": "address",
          "name": "_router",
          "type": "address"
        },
        {
          "internalType": "address",
          "name": "_swapHelper",
          "type": "address"
        }
      ],
      "name": "initialize",
      "outputs": [],
      "stateMutability": "nonpayable",
      "type": "function"
    },
    {
      "inputs": [
        {
          "internalType": "uint16",
          "name": "_srcChainId",
          "type": "uint16"
        },
        {
          "internalType": "bytes",
          "name": "_srcAddress",
          "type": "bytes"
        }
      ],
      "name": "isTrustedRemote",
      "outputs": [
        {
          "internalType": "bool",
          "name": "",
          "type": "bool"
        }
      ],
      "stateMutability": "view",
      "type": "function"
    },
    {
      "inputs": [],
      "name": "liquidateAllPositions",
      "outputs": [
        {
          "internalType": "uint256",
          "name": "",
          "type": "uint256"
        }
      ],
      "stateMutability": "nonpayable",
      "type": "function"
    },
    {
      "inputs": [
        {
          "internalType": "uint256",
          "name": "_amountNeeded",
          "type": "uint256"
        }
      ],
      "name": "liquidatePosition",
      "outputs": [],
      "stateMutability": "nonpayable",
      "type": "function"
    },
    {
      "inputs": [],
      "name": "lzEndpoint",
      "outputs": [
        {
          "internalType": "contract ILayerZeroEndpointUpgradeable",
          "name": "",
          "type": "address"
        }
      ],
      "stateMutability": "view",
      "type": "function"
    },
    {
      "inputs": [
        {
          "internalType": "uint16",
          "name": "_srcChainId",
          "type": "uint16"
        },
        {
          "internalType": "bytes",
          "name": "_srcAddress",
          "type": "bytes"
        },
        {
          "internalType": "uint64",
          "name": "_nonce",
          "type": "uint64"
        },
        {
          "internalType": "bytes",
          "name": "_payload",
          "type": "bytes"
        }
      ],
      "name": "lzReceive",
      "outputs": [],
      "stateMutability": "nonpayable",
      "type": "function"
    },
    {
      "inputs": [
        {
          "internalType": "uint16",
          "name": "",
          "type": "uint16"
        },
        {
          "internalType": "uint16",
          "name": "",
          "type": "uint16"
        }
      ],
      "name": "minDstGasLookup",
      "outputs": [
        {
          "internalType": "uint256",
          "name": "",
          "type": "uint256"
        }
      ],
      "stateMutability": "view",
      "type": "function"
    },
    {
      "inputs": [],
      "name": "name",
      "outputs": [
        {
          "internalType": "string",
          "name": "",
          "type": "string"
        }
      ],
      "stateMutability": "pure",
      "type": "function"
    },
    {
      "inputs": [
        {
          "internalType": "uint16",
          "name": "_srcChainId",
          "type": "uint16"
        },
        {
          "internalType": "bytes",
          "name": "_srcAddress",
          "type": "bytes"
        },
        {
          "internalType": "uint64",
          "name": "_nonce",
          "type": "uint64"
        },
        {
          "internalType": "bytes",
          "name": "_payload",
          "type": "bytes"
        }
      ],
      "name": "nonblockingLzReceive",
      "outputs": [],
      "stateMutability": "nonpayable",
      "type": "function"
    },
    {
      "inputs": [
        {
          "internalType": "address",
          "name": "src",
          "type": "address"
        },
        {
          "internalType": "address",
          "name": "dst",
          "type": "address"
        },
        {
          "internalType": "uint256",
          "name": "amountOut",
          "type": "uint256"
        },
        {
          "internalType": "uint256",
          "name": "amountIn",
          "type": "uint256"
        }
      ],
      "name": "notifyCallback",
      "outputs": [],
      "stateMutability": "nonpayable",
      "type": "function"
    },
    {
      "inputs": [],
      "name": "owner",
      "outputs": [
        {
          "internalType": "address",
          "name": "",
          "type": "address"
        }
      ],
      "stateMutability": "view",
      "type": "function"
    },
    {
      "inputs": [
        {
          "internalType": "uint16",
          "name": "",
          "type": "uint16"
        }
      ],
      "name": "payloadSizeLimitLookup",
      "outputs": [
        {
          "internalType": "uint256",
          "name": "",
          "type": "uint256"
        }
      ],
      "stateMutability": "view",
      "type": "function"
    },
    {
      "inputs": [
        {
          "internalType": "uint256",
          "name": "_pearlAmount",
          "type": "uint256"
        }
      ],
      "name": "pearlToWant",
      "outputs": [
        {
          "internalType": "uint256",
          "name": "",
          "type": "uint256"
        }
      ],
      "stateMutability": "view",
      "type": "function"
    },
    {
      "inputs": [],
      "name": "precrime",
      "outputs": [
        {
          "internalType": "address",
          "name": "",
          "type": "address"
        }
      ],
      "stateMutability": "view",
      "type": "function"
    },
    {
      "inputs": [],
      "name": "renounceOwnership",
      "outputs": [],
      "stateMutability": "nonpayable",
      "type": "function"
    },
    {
      "inputs": [
        {
          "internalType": "uint16",
          "name": "_srcChainId",
          "type": "uint16"
        },
        {
          "internalType": "bytes",
          "name": "_srcAddress",
          "type": "bytes"
        },
        {
          "internalType": "uint64",
          "name": "_nonce",
          "type": "uint64"
        },
        {
          "internalType": "bytes",
          "name": "_payload",
          "type": "bytes"
        }
      ],
      "name": "retryMessage",
      "outputs": [],
      "stateMutability": "payable",
      "type": "function"
    },
    {
      "inputs": [],
      "name": "revokeFunds",
      "outputs": [],
      "stateMutability": "nonpayable",
      "type": "function"
    },
    {
      "inputs": [
        {
          "internalType": "uint256",
          "name": "_pearlAmount",
          "type": "uint256"
        }
      ],
      "name": "sellPearl",
      "outputs": [],
      "stateMutability": "nonpayable",
      "type": "function"
    },
    {
      "inputs": [
        {
          "internalType": "uint256",
          "name": "_usdrAmount",
          "type": "uint256"
        }
      ],
      "name": "sellUsdr",
      "outputs": [],
      "stateMutability": "nonpayable",
      "type": "function"
    },
    {
      "inputs": [
        {
          "internalType": "uint16",
          "name": "_version",
          "type": "uint16"
        },
        {
          "internalType": "uint16",
          "name": "_chainId",
          "type": "uint16"
        },
        {
          "internalType": "uint256",
          "name": "_configType",
          "type": "uint256"
        },
        {
          "internalType": "bytes",
          "name": "_config",
          "type": "bytes"
        }
      ],
      "name": "setConfig",
      "outputs": [],
      "stateMutability": "nonpayable",
      "type": "function"
    },
    {
      "inputs": [
        {
          "internalType": "bool",
          "name": "_emergencyExit",
          "type": "bool"
        }
      ],
      "name": "setEmergencyExit",
      "outputs": [],
      "stateMutability": "nonpayable",
      "type": "function"
    },
    {
      "inputs": [
        {
          "internalType": "uint16",
          "name": "_dstChainId",
          "type": "uint16"
        },
        {
          "internalType": "uint16",
          "name": "_packetType",
          "type": "uint16"
        },
        {
          "internalType": "uint256",
          "name": "_minGas",
          "type": "uint256"
        }
      ],
      "name": "setMinDstGas",
      "outputs": [],
      "stateMutability": "nonpayable",
      "type": "function"
    },
    {
      "inputs": [
        {
          "internalType": "uint16",
          "name": "_dstChainId",
          "type": "uint16"
        },
        {
          "internalType": "uint256",
          "name": "_size",
          "type": "uint256"
        }
      ],
      "name": "setPayloadSizeLimit",
      "outputs": [],
      "stateMutability": "nonpayable",
      "type": "function"
    },
    {
      "inputs": [
        {
          "internalType": "address",
          "name": "_precrime",
          "type": "address"
        }
      ],
      "name": "setPrecrime",
      "outputs": [],
      "stateMutability": "nonpayable",
      "type": "function"
    },
    {
      "inputs": [
        {
          "internalType": "uint16",
          "name": "_version",
          "type": "uint16"
        }
      ],
      "name": "setReceiveVersion",
      "outputs": [],
      "stateMutability": "nonpayable",
      "type": "function"
    },
    {
      "inputs": [
        {
          "internalType": "uint16",
          "name": "_version",
          "type": "uint16"
        }
      ],
      "name": "setSendVersion",
      "outputs": [],
      "stateMutability": "nonpayable",
      "type": "function"
    },
    {
      "inputs": [
        {
          "internalType": "uint256",
          "name": "_slippage",
          "type": "uint256"
        }
      ],
      "name": "setSlippage",
      "outputs": [],
      "stateMutability": "nonpayable",
      "type": "function"
    },
    {
      "inputs": [
        {
          "internalType": "address",
          "name": "_strategist",
          "type": "address"
        }
      ],
      "name": "setStrategist",
      "outputs": [],
      "stateMutability": "nonpayable",
      "type": "function"
    },
    {
      "inputs": [
        {
          "internalType": "address",
          "name": "__swapHelper",
          "type": "address"
        }
      ],
      "name": "setSwapHelper",
      "outputs": [],
      "stateMutability": "nonpayable",
      "type": "function"
    },
    {
      "inputs": [
        {
          "internalType": "uint16",
          "name": "_srcChainId",
          "type": "uint16"
        },
        {
          "internalType": "bytes",
          "name": "_path",
          "type": "bytes"
        }
      ],
      "name": "setTrustedRemote",
      "outputs": [],
      "stateMutability": "nonpayable",
      "type": "function"
    },
    {
      "inputs": [
        {
          "internalType": "uint16",
          "name": "_remoteChainId",
          "type": "uint16"
        },
        {
          "internalType": "bytes",
          "name": "_remoteAddress",
          "type": "bytes"
        }
      ],
      "name": "setTrustedRemoteAddress",
      "outputs": [],
      "stateMutability": "nonpayable",
      "type": "function"
    },
    {
      "inputs": [],
      "name": "sgBridge",
      "outputs": [
        {
          "internalType": "contract ISgBridge",
          "name": "",
          "type": "address"
        }
      ],
      "stateMutability": "view",
      "type": "function"
    },
    {
      "inputs": [
        {
          "internalType": "uint16",
          "name": "",
          "type": "uint16"
        },
        {
          "internalType": "bytes",
          "name": "_srcAddress",
          "type": "bytes"
        },
        {
          "internalType": "uint256",
          "name": "",
          "type": "uint256"
        },
        {
          "internalType": "address",
          "name": "_token",
          "type": "address"
        },
        {
          "internalType": "uint256",
          "name": "_amountLD",
          "type": "uint256"
        },
        {
          "internalType": "bytes",
          "name": "",
          "type": "bytes"
        }
      ],
      "name": "sgReceive",
      "outputs": [],
      "stateMutability": "nonpayable",
      "type": "function"
    },
    {
      "inputs": [],
      "name": "sgRouter",
      "outputs": [
        {
          "internalType": "contract IStargateRouter",
          "name": "",
          "type": "address"
        }
      ],
      "stateMutability": "view",
      "type": "function"
    },
    {
      "inputs": [],
      "name": "slippage",
      "outputs": [
        {
          "internalType": "uint256",
          "name": "",
          "type": "uint256"
        }
      ],
      "stateMutability": "view",
      "type": "function"
    },
    {
      "inputs": [],
      "name": "strategist",
      "outputs": [
        {
          "internalType": "address",
          "name": "",
          "type": "address"
        }
      ],
      "stateMutability": "view",
      "type": "function"
    },
    {
      "inputs": [],
      "name": "strategistSignMessageHash",
      "outputs": [
        {
          "internalType": "bytes32",
          "name": "",
          "type": "bytes32"
        }
      ],
      "stateMutability": "view",
      "type": "function"
    },
    {
      "inputs": [],
      "name": "swapHelper",
      "outputs": [
        {
          "internalType": "contract IOraclizedSwapHelper",
          "name": "",
          "type": "address"
        }
      ],
      "stateMutability": "view",
      "type": "function"
    },
    {
      "inputs": [
        {
          "internalType": "contract IERC20",
          "name": "_token",
          "type": "address"
        }
      ],
      "name": "sweepToken",
      "outputs": [],
      "stateMutability": "nonpayable",
      "type": "function"
    },
    {
      "inputs": [
        {
          "internalType": "address",
          "name": "newOwner",
          "type": "address"
        }
      ],
      "name": "transferOwnership",
      "outputs": [],
      "stateMutability": "nonpayable",
      "type": "function"
    },
    {
      "inputs": [
        {
          "internalType": "uint16",
          "name": "",
          "type": "uint16"
        }
      ],
      "name": "trustedRemoteLookup",
      "outputs": [
        {
          "internalType": "bytes",
          "name": "",
          "type": "bytes"
        }
      ],
      "stateMutability": "view",
      "type": "function"
    },
    {
      "inputs": [
        {
          "internalType": "uint256",
          "name": "_usdrLpAmount",
          "type": "uint256"
        }
      ],
      "name": "usdrLpToWant",
      "outputs": [
        {
          "internalType": "uint256",
          "name": "",
          "type": "uint256"
        }
      ],
      "stateMutability": "view",
      "type": "function"
    },
    {
      "inputs": [
        {
          "internalType": "uint256",
          "name": "_usdrAmount",
          "type": "uint256"
        }
      ],
      "name": "usdrToWant",
      "outputs": [
        {
          "internalType": "uint256",
          "name": "",
          "type": "uint256"
        }
      ],
      "stateMutability": "view",
      "type": "function"
    },
    {
      "inputs": [],
      "name": "vault",
      "outputs": [
        {
          "internalType": "address",
          "name": "",
          "type": "address"
        }
      ],
      "stateMutability": "view",
      "type": "function"
    },
    {
      "inputs": [],
      "name": "vaultChainId",
      "outputs": [
        {
          "internalType": "uint16",
          "name": "",
          "type": "uint16"
        }
      ],
      "stateMutability": "view",
      "type": "function"
    },
    {
      "inputs": [],
      "name": "want",
      "outputs": [
        {
          "internalType": "contract IERC20",
          "name": "",
          "type": "address"
        }
      ],
      "stateMutability": "view",
      "type": "function"
    },
    {
      "inputs": [],
      "name": "wantDecimals",
      "outputs": [
        {
          "internalType": "uint8",
          "name": "",
          "type": "uint8"
        }
      ],
      "stateMutability": "view",
      "type": "function"
    },
    {
      "inputs": [
        {
          "internalType": "uint256",
          "name": "_wantAmount",
          "type": "uint256"
        }
      ],
      "name": "wantToUsdrLp",
      "outputs": [
        {
          "internalType": "uint256",
          "name": "",
          "type": "uint256"
        }
      ],
      "stateMutability": "view",
      "type": "function"
    },
    {
      "inputs": [
        {
          "internalType": "uint256",
          "name": "_amountNeeded",
          "type": "uint256"
        }
      ],
      "name": "withdrawSome",
      "outputs": [],
      "stateMutability": "nonpayable",
      "type": "function"
    },
    {
      "stateMutability": "payable",
      "type": "receive"
    }
  ],
  "bytecode": "0x608060405234801561001057600080fd5b50615df680620000216000396000f3fe60806040526004361061030d5760003560e01c80621d3567146103195780630517cb761461033b57806306fdde031461037157806307e0db17146103b05780630df37483146103d05780630fc6a11c146103f057806310ddb137146104105780631be19560146104305780631f1fcd51146104505780631fe4a686146104705780632d6068431461049057806337fded91146104a55780633d3ccc2f146104ca5780633d8b38f6146104ea5780633e032a3b1461051a5780633eae11121461053e5780633f1f4fa41461055e57806342d65a8d1461058b57806345ee0755146105ab578063495f881e146105cb5780634a5f58d1146105eb57806350bb4beb1461060b5780635641ec0314610620578063567ad85d1461063a578063593178de1461066f5780635b8c41e61461068457806366ad5c8a146106d35780636cbadbfa146106f3578063715018a6146107155780637533d7881461072a57806378dc90591461074a5780638cfd8f5c1461076a5780638da5cb5b146107a25780638f4508d0146107b7578063950c8a74146107cc5780639589c990146107ec5780639606647d1461080c5780639f38369a14610821578063a6c3d16514610841578063a879851014610861578063a9e5082414610877578063ab8236f314610897578063adf076e6146108b7578063ae9b051c146108ea578063b353aaa71461090a578063baf3292d1461092a578063bd7638bf1461094a578063bd79ac131461096a578063c1a3d44c1461098a578063c1feb7ff1461099f578063c4461834146109c0578063c7b9d530146109d6578063cbed8b9c146109f6578063cdddd4e514610a16578063d1deba1f14610a36578063d56739ac14610a49578063d73cd47f14610a5e578063df2a5b3b14610a7e578063e73620c314610a9e578063e964404414610abe578063eb8d72b714610ade578063efbb5cb014610afe578063f056dffe14610b13578063f0fa55a914610b33578063f2fde38b14610b53578063f5ecbdbc14610b73578063fa54080114610b93578063fbfa77cf14610bb3578063fcb988a414610bd357600080fd5b3661031457005b600080fd5b34801561032557600080fd5b50610339610334366004614bbe565b610bf3565b005b34801561034757600080fd5b5060ce5461035b906001600160a01b031681565b6040516103689190614c51565b60405180910390f35b34801561037d57600080fd5b5060408051808201909152600d81526c506561726c537472617465677960981b60208201525b6040516103689190614cb5565b3480156103bc57600080fd5b506103396103cb366004614cc8565b610cdc565b3480156103dc57600080fd5b506103396103eb366004614ce3565b610d49565b3480156103fc57600080fd5b5060d15461035b906001600160a01b031681565b34801561041c57600080fd5b5061033961042b366004614cc8565b610d68565b34801561043c57600080fd5b5061033961044b366004614d22565b610da4565b34801561045c57600080fd5b5060ca5461035b906001600160a01b031681565b34801561047c57600080fd5b5060c95461035b906001600160a01b031681565b34801561049c57600080fd5b50610339610e31565b3480156104b157600080fd5b5060cd5461035b9061010090046001600160a01b031681565b3480156104d657600080fd5b506103396104e5366004614d3f565b610e72565b3480156104f657600080fd5b5061050a610505366004614d58565b610ea8565b6040519015158152602001610368565b34801561052657600080fd5b5061053060cc5481565b604051908152602001610368565b34801561054a57600080fd5b50610530610559366004614d3f565b610f75565b34801561056a57600080fd5b50610530610579366004614cc8565b60686020526000908152604090205481565b34801561059757600080fd5b506103396105a6366004614d58565b610fa5565b3480156105b757600080fd5b506103396105c6366004614db8565b611018565b3480156105d757600080fd5b506103396105e6366004614ec0565b611033565b3480156105f757600080fd5b50610339610606366004614d3f565b6112d7565b34801561061757600080fd5b506105306112e0565b34801561062c57600080fd5b5060cd5461050a9060ff1681565b34801561064657600080fd5b5060cb5461065c90600160a01b900461ffff1681565b60405161ffff9091168152602001610368565b34801561067b57600080fd5b506105306112ef565b34801561069057600080fd5b5061053061069f366004614f23565b6097602090815260009384526040808520845180860184018051928152908401958401959095209452929052825290205481565b3480156106df57600080fd5b506103396106ee366004614bbe565b61134d565b3480156106ff57600080fd5b5060cb5461065c90600160b01b900461ffff1681565b34801561072157600080fd5b50610339611421565b34801561073657600080fd5b506103a3610745366004614cc8565b611435565b34801561075657600080fd5b50610339610765366004614d3f565b6114cf565b34801561077657600080fd5b50610530610785366004614f80565b606760209081526000928352604080842090915290825290205481565b3480156107ae57600080fd5b5061035b6114d8565b3480156107c357600080fd5b506105306114e7565b3480156107d857600080fd5b5060695461035b906001600160a01b031681565b3480156107f857600080fd5b50610530610807366004614d3f565b61155c565b34801561081857600080fd5b506103396115aa565b34801561082d57600080fd5b506103a361083c366004614cc8565b61163d565b34801561084d57600080fd5b5061033961085c366004614d58565b61174c565b34801561086d57600080fd5b5061053061264881565b34801561088357600080fd5b50610530610892366004614d3f565b6117d5565b3480156108a357600080fd5b506103396108b2366004614fb3565b61188e565b3480156108c357600080fd5b5060cb546108d890600160c01b900460ff1681565b60405160ff9091168152602001610368565b3480156108f657600080fd5b50610339610905366004614d3f565b611988565b34801561091657600080fd5b5060655461035b906001600160a01b031681565b34801561093657600080fd5b50610339610945366004614d22565b611991565b34801561095657600080fd5b5061033961096536600461504d565b6119e4565b34801561097657600080fd5b50610530610985366004614d3f565b611ce5565b34801561099657600080fd5b50610530611d73565b3480156109ab57600080fd5b5060d1546108d890600160a01b900460ff1681565b3480156109cc57600080fd5b5061053061271081565b3480156109e257600080fd5b506103396109f1366004614d22565b611da4565b348015610a0257600080fd5b50610339610a11366004615105565b611dce565b348015610a2257600080fd5b50610339610a31366004614d3f565b611e47565b610339610a44366004614bbe565b611e55565b348015610a5557600080fd5b5061053061206b565b348015610a6a57600080fd5b50610339610a79366004614d22565b61209d565b348015610a8a57600080fd5b50610339610a99366004615173565b6120c7565b348015610aaa57600080fd5b50610339610ab9366004614d3f565b612179565b348015610aca57600080fd5b50610339610ad9366004614d3f565b612199565b348015610aea57600080fd5b50610339610af9366004614d58565b6121a2565b348015610b0a57600080fd5b506105306121fc565b348015610b1f57600080fd5b50610339610b2e3660046151af565b612316565b348015610b3f57600080fd5b50610339610b4e366004614d3f565b612395565b348015610b5f57600080fd5b50610339610b6e366004614d22565b6123a2565b348015610b7f57600080fd5b506103a3610b8e3660046151f5565b612418565b348015610b9f57600080fd5b50610530610bae366004614d3f565b6124ab565b348015610bbf57600080fd5b5060cb5461035b906001600160a01b031681565b348015610bdf57600080fd5b50610530610bee366004614d3f565b6124fd565b6065546001600160a01b03163314610c5e5760405162461bcd60e51b815260206004820152602360248201527f4261736553747261746567793a3a496e76616c6964456e64706f696e7443616c6044820152623632b960e91b60648201526084015b60405180910390fd5b610cd48686868080601f01602080910402602001604051908101604052809392919081815260200183838082843760009201919091525050604080516020601f89018190048102820181019092528781528993509150879087908190840183828082843760009201919091525061270192505050565b505050505050565b610ce461277a565b6065546040516307e0db1760e01b815261ffff831660048201526001600160a01b03909116906307e0db17906024015b600060405180830381600087803b158015610d2e57600080fd5b505af1158015610d42573d6000803e3d6000fd5b5050505050565b610d5161277a565b61ffff909116600090815260686020526040902055565b610d7061277a565b6065546040516310ddb13760e01b815261ffff831660048201526001600160a01b03909116906310ddb13790602401610d14565b610dac6127d9565b610e2e33826001600160a01b03166370a08231306040518263ffffffff1660e01b8152600401610ddc9190614c51565b602060405180830381865afa158015610df9573d6000803e3d6000fd5b505050506040513d601f19601f82011682018060405250810190610e1d9190615242565b6001600160a01b0384169190612832565b50565b610e396127d9565b60c9546040516001600160a01b03909116904780156108fc02916000818181858888f19350505050158015610e2e573d6000803e3d6000fd5b610e7a6127d9565b610e8381612888565b604051818152600080516020615da1833981519152906020015b60405180910390a150565b61ffff831660009081526066602052604081208054829190610ec99061525b565b80601f0160208091040260200160405190810160405280929190818152602001828054610ef59061525b565b8015610f425780601f10610f1757610100808354040283529160200191610f42565b820191906000526020600020905b815481529060010190602001808311610f2557829003601f168201915b505050505090508383604051610f59929190615295565b60405180910390208180519060200120149150505b9392505050565b6000610f9f82600080516020615d8183398151915260cb60189054906101000a900460ff16612eaf565b92915050565b610fad61277a565b6065546040516342d65a8d60e01b81526001600160a01b03909116906342d65a8d90610fe1908690869086906004016152ce565b600060405180830381600087803b158015610ffb57600080fd5b505af115801561100f573d6000803e3d6000fd5b50505050505050565b6110206127d9565b60cd805460ff1916911515919091179055565b61103b6127d9565b61104481612f1d565b60cd546000908190819060ff16156110f05784156110a45760405162461bcd60e51b815260206004820152601e60248201527f4261736553747261746567793a3a44656274526174696f4e6f745a65726f00006044820152606401610c55565b60006110ae612fa3565b9050878110156110c9576110c28189615302565b92506110de565b878111156110de576110db8882615302565b93505b6110e88389615302565b915050611102565b6110fa8888612fe5565b919450925090505b600061110e8285615315565b90506000808883101561113057611125838a615302565b915060009050611141565b6000915061113e8984615302565b90505b6000604051806101600160405280306001600160a01b031681526020014281526020018881526020018781526020018681526020018481526020018381526020018b8152602001836111916121fc565b61119b9190615302565b815260200160d060008154809291906111b390615328565b909155508152602001899052905081156112135760cb5460405161120e91849161ffff600160a01b830416916001600160a01b0316906111fa906002908790602001615379565b6040516020818303038152906040526130dc565b61123e565b61123e60028260405160200161122a929190615379565b6040516020818303038152906040526131ca565b7fb983e09c034e9c52b5e547cb0589967992b97717733f580cc5ad0afcdc4b522b8160400151826060015183608001518460a001518560c001518660e001518761010001516040516112c19796959493929190968752602087019590955260408601939093526060850191909152608084015260a083015260c082015260e00190565b60405180910390a1505050505050505050505050565b610e2e8161334a565b60006112ea612fa3565b905090565b60d05460cb546040513060601b6001600160601b03191660208201526034810192909252600160b01b900460f01b6001600160f01b031916605482015260009060560160405160208183030381529060405280519060200120905090565b3330146113ab5760405162461bcd60e51b815260206004820152602660248201527f4e6f6e626c6f636b696e674c7a4170703a2063616c6c6572206d7573742062656044820152650204c7a4170760d41b6064820152608401610c55565b610cd48686868080601f01602080910402602001604051908101604052809392919081815260200183838082843760009201919091525050604080516020601f8901819004810282018101909252878152899350915087908790819084018382808284376000920191909152506133a892505050565b61142961277a565b61143360006134be565b565b6066602052600090815260409020805461144e9061525b565b80601f016020809104026020016040519081016040528092919081815260200182805461147a9061525b565b80156114c75780601f1061149c576101008083540402835291602001916114c7565b820191906000526020600020905b8154815290600101906020018083116114aa57829003601f168201915b505050505081565b610e2e81613510565b6033546001600160a01b031690565b6040516370a0823160e01b8152600090600080516020615d21833981519152906370a082319061151b903090600401614c51565b602060405180830381865afa158015611538573d6000803e3d6000fd5b505050506040513d601f19601f820116820180604052508101906112ea9190615242565b6000610f9f8273f68c20d6c50706f6c6bd8ee184382518c93b368c600080516020615d41833981519152600080516020615d8183398151915260cb60189054906101000a900460ff16613804565b6115b26127d9565b60ca546040516370a0823160e01b8152611433916001916001600160a01b03909116906370a08231906115e9903090600401614c51565b602060405180830381865afa158015611606573d6000803e3d6000fd5b505050506040513d601f19601f8201168201806040525081019061162a9190615242565b60ca546001600160a01b03169190612832565b61ffff81166000908152606660205260408120805460609291906116609061525b565b80601f016020809104026020016040519081016040528092919081815260200182805461168c9061525b565b80156116d95780601f106116ae576101008083540402835291602001916116d9565b820191906000526020600020905b8154815290600101906020018083116116bc57829003601f168201915b5050505050905080516000036117315760405162461bcd60e51b815260206004820152601d60248201527f4c7a4170703a206e6f20747275737465642070617468207265636f72640000006044820152606401610c55565b610f6e6000601483516117449190615302565b83919061388e565b61175461277a565b8181306040516020016117699392919061542c565b60408051601f1981840301815291815261ffff851660009081526066602052209061179490826154a8565b507f8c0400cfe2d1199b1a725c78960bcc2a344d869b80590d0f2bd005db15a572ce8383836040516117c8939291906152ce565b60405180910390a1505050565b60ca546040516310e1b98f60e21b815260009182918291600080516020615d0183398151915291634386e63c9161182f916001600160a01b0390911690600080516020615d81833981519152906001908a90600401615561565b6040805180830381865afa15801561184b573d6000803e3d6000fd5b505050506040513d601f19601f8201168201806040525081019061186f919061558c565b9150915061187c81610f75565b6118869083615315565b949350505050565b60ce546001600160a01b03163314806118b6575060cd5461010090046001600160a01b031633145b6119015760405162461bcd60e51b815260206004820152601c60248201527b53674272696467653a3a526f757465724f724272696467654f6e6c7960201b6044820152606401610c55565b600061190f8682601461388e565b60405160200161191f91906155b0565b604051602081830303815290604052611937906155cc565b60601c9050836001600160a01b03167f92073a89a07a000083eb8b2575fc15e7bb936efe55d00727d6942a796d7211a78483604051611977929190615603565b60405180910390a250505050505050565b610e2e8161399b565b61199961277a565b606980546001600160a01b0319166001600160a01b0383161790556040517f5db758e995a17ec1ad84bdef7e8c3293a0bd6179bcce400dff5d4c3d87db726b90610e9d908390614c51565b600054610100900460ff1615808015611a045750600054600160ff909116105b80611a255750611a1330613a80565b158015611a25575060005460ff166001145b611a885760405162461bcd60e51b815260206004820152602e60248201527f496e697469616c697a61626c653a20636f6e747261637420697320616c72656160448201526d191e481a5b9a5d1a585b1a5e995960921b6064820152608401610c55565b6000805460ff191660011790558015611aab576000805461ff0019166101001790555b611abe8a8a8a8a8a8a8a8a612648613a8f565b60ca54611aeb906001600160a01b03167368b3465833fb72a70ecdf485e0e4c7bd8665fc45600019613c62565b60ca54611b12906001600160a01b0316600080516020615d01833981519152600019613c62565b60d180546001600160a01b0319166001600160a01b038416179055611b56600080516020615d81833981519152600080516020615d01833981519152600019613c62565b611b7f600080516020615d61833981519152600080516020615d21833981519152600019613c62565b611ba8600080516020615d61833981519152600080516020615d01833981519152600019613c62565b611bdd738f3cf7ad23cd3cadbd9735aff958023239c6a06373195f7b233947d51f4c3b756ad41a5ddb34cebce0600019613c62565b611c06600080516020615d41833981519152600080516020615d01833981519152600019613c62565b611c21600080516020615d8183398151915283600019613c62565b611c42738f3cf7ad23cd3cadbd9735aff958023239c6a06383600019613c62565b611c5d600080516020615d4183398151915283600019613c62565b61271060cc546064611c6f919061561a565b611c799190615631565b60d160146101000a81548160ff021916908360ff1602179055508015611cd9576000805461ff0019169055604051600181527f7f26b83ff96e1f2b6a682f133852f6798a09c465da95921460cefb38474024989060200160405180910390a15b50505050505050505050565b6000610f9f82738f3cf7ad23cd3cadbd9735aff958023239c6a0636001600160a01b031663313ce5676040518163ffffffff1660e01b8152600401602060405180830381865afa158015611d3d573d6000803e3d6000fd5b505050506040513d601f19601f82011682018060405250810190611d619190615653565b60cb54600160c01b900460ff16613d66565b60ca546040516370a0823160e01b81526000916001600160a01b0316906370a082319061151b903090600401614c51565b611dac61277a565b60c980546001600160a01b0319166001600160a01b0392909216919091179055565b611dd661277a565b6065546040516332fb62e760e21b81526001600160a01b039091169063cbed8b9c90611e0e9088908890889088908890600401615676565b600060405180830381600087803b158015611e2857600080fd5b505af1158015611e3c573d6000803e3d6000fd5b505050505050505050565b611e5081613dbb565b505050565b61ffff86166000908152609760205260408082209051611e789088908890615295565b90815260408051602092819003830190206001600160401b03871660009081529252902054905080611ef85760405162461bcd60e51b815260206004820152602360248201527f4e6f6e626c6f636b696e674c7a4170703a206e6f2073746f726564206d65737360448201526261676560e81b6064820152608401610c55565b808383604051611f09929190615295565b604051809103902014611f685760405162461bcd60e51b815260206004820152602160248201527f4e6f6e626c6f636b696e674c7a4170703a20696e76616c6964207061796c6f616044820152601960fa1b6064820152608401610c55565b61ffff87166000908152609760205260408082209051611f8b9089908990615295565b90815260408051602092819003830181206001600160401b038916600090815290845282902093909355601f88018290048202830182019052868252612023918991899089908190840183828082843760009201919091525050604080516020601f8a018190048102820181019092528881528a9350915088908890819084018382808284376000920191909152506133a892505050565b7fc264d91f3adc5588250e1551f547752ca0cfa8f6b530d243b9f9f4cab10ea8e5878787878560405161205a9594939291906156a4565b60405180910390a150505050505050565b6040516246613160e11b8152600090600080516020615d2183398151915290628cc2629061151b903090600401614c51565b6120a5613ef0565b60d180546001600160a01b0319166001600160a01b0392909216919091179055565b6120cf61277a565b600081116121175760405162461bcd60e51b81526020600482015260156024820152744c7a4170703a20696e76616c6964206d696e47617360581b6044820152606401610c55565b61ffff83811660008181526067602090815260408083209487168084529482529182902085905581519283528201929092529081018290527f9d5c7c0b934da8fefa9c7760c98383778a12dfbfc0c3b3106518f43fb9508ac0906060016117c8565b61218161277a565b600090815260cf60205260409020805460ff19169055565b610e2e81613f5f565b6121aa61277a565b61ffff831660009081526066602052604090206121c88284836156df565b507ffa41487ad5d6728f0b19276fa1eddc16558578f5109fc39d2dc33c3230470dab8383836040516117c8939291906152ce565b60006122096108926114e7565b6040516370a0823160e01b815261229190600080516020615d41833981519152906370a082319061223e903090600401614c51565b602060405180830381865afa15801561225b573d6000803e3d6000fd5b505050506040513d601f19601f8201168201806040525081019061227f9190615242565b61228761206b565b6108079190615315565b60ca546040516370a0823160e01b81526001600160a01b03909116906370a08231906122c1903090600401614c51565b602060405180830381865afa1580156122de573d6000803e3d6000fd5b505050506040513d601f19601f820116820180604052508101906123029190615242565b61230c9190615315565b6112ea9190615315565b60d1546001600160a01b0316331461234157604051630336158960e61b815260040160405180910390fd5b81836001600160a01b0316856001600160a01b03167f9b2db766e04dc7ee1cc19d1415531ad5b3fd566db4f745d9a8ad51e3d3fe1bd78460405161238791815260200190565b60405180910390a450505050565b61239d6127d9565b60cc55565b6123aa61277a565b6001600160a01b03811661240f5760405162461bcd60e51b815260206004820152602660248201527f4f776e61626c653a206e6577206f776e657220697320746865207a65726f206160448201526564647265737360d01b6064820152608401610c55565b610e2e816134be565b606554604051633d7b2f6f60e21b815261ffff808716600483015285166024820152306044820152606481018390526060916001600160a01b03169063f5ecbdbc90608401600060405180830381865afa15801561247a573d6000803e3d6000fd5b505050506040513d6000823e601f3d908101601f191682016040526124a29190810190615798565b95945050505050565b6040517b0ca2ba3432b932bab69029b4b3b732b21026b2b9b9b0b3b29d05199960211b6020820152603c8101829052600090605c01604051602081830303815290604052805190602001209050919050565b60008061257e600080516020615d618339815191526001600160a01b031663313ce5676040518163ffffffff1660e01b8152600401602060405180830381865afa15801561254f573d6000803e3d6000fd5b505050506040513d601f19601f820116820180604052508101906125739190615653565b61089290600a6158e9565b9050600061260b8460cb60189054906101000a900460ff16600080516020615d618339815191526001600160a01b031663313ce5676040518163ffffffff1660e01b8152600401602060405180830381865afa1580156125e2573d6000803e3d6000fd5b505050506040513d601f19601f820116820180604052508101906126069190615653565b613d66565b9050600061266f8360cb60189054906101000a900460ff16600080516020615d618339815191526001600160a01b031663313ce5676040518163ffffffff1660e01b8152600401602060405180830381865afa1580156125e2573d6000803e3d6000fd5b905080600080516020615d618339815191526001600160a01b031663313ce5676040518163ffffffff1660e01b8152600401602060405180830381865afa1580156126be573d6000803e3d6000fd5b505050506040513d601f19601f820116820180604052508101906126e29190615653565b6126ed90600a6158e9565b6126f7908461561a565b6124a29190615631565b6000806127645a60966366ad5c8a60e01b8989898960405160240161272994939291906158f8565b60408051601f198184030181529190526020810180516001600160e01b03166001600160e01b03199093169290921790915230929190613fbd565b9150915081610cd457610cd48686868685614049565b336127836114d8565b6001600160a01b0316146114335760405162461bcd60e51b815260206004820181905260248201527f4f776e61626c653a2063616c6c6572206973206e6f7420746865206f776e65726044820152606401610c55565b60c9546001600160a01b031633146114335760405162461bcd60e51b815260206004820152601c60248201527b10985cd954dd1c985d1959de4e8e93db9b1e54dd1c985d1959da5cdd60221b6044820152606401610c55565b611e508363a9059cbb60e01b8484604051602401612851929190615936565b60408051601f198184030181529190526020810180516001600160e01b03166001600160e01b0319909316929092179091526140e6565b600080516020615d218339815191526001600160a01b0316633d18b9126040518163ffffffff1660e01b8152600401600060405180830381600087803b1580156128d157600080fd5b505af11580156128e5573d6000803e3d6000fd5b50506040516370a0823160e01b81526129649250600080516020615d4183398151915291506370a082319061291e903090600401614c51565b602060405180830381865afa15801561293b573d6000803e3d6000fd5b505050506040513d601f19601f8201168201806040525081019061295f9190615242565b61334a565b60ca546040516370a0823160e01b81526000916001600160a01b0316906370a0823190612995903090600401614c51565b602060405180830381865afa1580156129b2573d6000803e3d6000fd5b505050506040513d601f19601f820116820180604052508101906129d69190615242565b905081811115612a8c5760006129ec8383615302565b905060006129fb600283615631565b60d15460ca546040516310cabd1d60e01b81529293506001600160a01b03808316936310cabd1d93612a579390921691738f3cf7ad23cd3cadbd9735aff958023239c6a06391879160ff600160a01b909104169060040161594f565b600060405180830381600087803b158015612a7157600080fd5b505af1158015612a85573d6000803e3d6000fd5b5050505050505b6040516370a0823160e01b8152600090738f3cf7ad23cd3cadbd9735aff958023239c6a063906370a0823190612ac6903090600401614c51565b602060405180830381865afa158015612ae3573d6000803e3d6000fd5b505050506040513d601f19601f82011682018060405250810190612b079190615242565b90508015612b8d5760405163a39fc2c560e01b815273195f7b233947d51f4c3b756ad41a5ddb34cebce09063a39fc2c590612b489084903090600401615603565b6020604051808303816000875af1158015612b67573d6000803e3d6000fd5b505050506040513d601f19601f82011682018060405250810190612b8b9190615242565b505b6040516370a0823160e01b8152600090600080516020615d81833981519152906370a0823190612bc1903090600401614c51565b602060405180830381865afa158015612bde573d6000803e3d6000fd5b505050506040513d601f19601f82011682018060405250810190612c029190615242565b60ca546040516370a0823160e01b81529192506001600160a01b0316906370a0823190612c33903090600401614c51565b602060405180830381865afa158015612c50573d6000803e3d6000fd5b505050506040513d601f19601f82011682018060405250810190612c749190615242565b9250600081118015612c865750600083115b15612e005760ca546040516326283ecf60e21b81526001600160a01b039091166004820152600080516020615d8183398151915260248201526001604482015260648101849052608481018290526000908190600080516020615d01833981519152906398a0fb3c9060a401606060405180830381865afa158015612d0f573d6000803e3d6000fd5b505050506040513d601f19601f82011682018060405250810190612d33919061597a565b5060ca54604051635a47ddc360e01b81526001600160a01b039091166004820152600080516020615d818339815191526024820152600160448201819052606482018490526084820183905260a4820181905260c48201523060e4820152426101048201529193509150600080516020615d0183398151915290635a47ddc390610124016060604051808303816000875af1158015612dd6573d6000803e3d6000fd5b505050506040513d601f19601f82011682018060405250810190612dfa919061597a565b50505050505b6040516370a0823160e01b8152600090600080516020615d61833981519152906370a0823190612e34903090600401614c51565b602060405180830381865afa158015612e51573d6000803e3d6000fd5b505050506040513d601f19601f82011682018060405250810190612e759190615242565b90508015610d425760405163b6b55f2560e01b815260048101829052600080516020615d218339815191529063b6b55f2590602401611e0e565b600061188684846001600160a01b031663313ce5676040518163ffffffff1660e01b8152600401602060405180830381865afa158015612ef3573d6000803e3d6000fd5b505050506040513d601f19601f82011682018060405250810190612f179190615653565b84613d66565b6000612f276112ef565b90506000612f34826124ab565b60c9549091506001600160a01b0316612f4d82856141bb565b6001600160a01b031614611e505760405162461bcd60e51b815260206004820152601e60248201527f4261736553747261746567793a3a496e76616c69645369676e617475726500006044820152606401610c55565b6000612fb5612fb06114e7565b613510565b60ca546040516370a0823160e01b81526001600160a01b03909116906370a082319061151b903090600401614c51565b600080600080612ff36121fc565b9050858110613011576130068682615302565b935060009250613022565b6000935061301f8187615302565b92505b61303461302f8587615315565b613dbb565b505060ca546040516370a0823160e01b81526000916001600160a01b0316906370a0823190613067903090600401614c51565b602060405180830381865afa158015613084573d6000803e3d6000fd5b505050506040513d601f19601f820116820180604052508101906130a89190615242565b90508481116130bd57809450600092506130d3565b6130d06130ca8683615302565b876141df565b92505b50509250925092565b60cd54604051630dc6346160e01b815260009161010090046001600160a01b031690630dc6346190613116908790879087906004016159a8565b602060405180830381865afa158015613133573d6000803e3d6000fd5b505050506040513d601f19601f820116820180604052508101906131579190615242565b60cd5460ca54604051633920455b60e11b81529293506001600160a01b036101009092048216926372408ab692859261319d929116908a908a908a908a906004016159d6565b6000604051808303818588803b1580156131b657600080fd5b505af1158015611cd9573d6000803e3d6000fd5b60cb5460408051606083811b6001600160601b03199081166020840152309182901b16603483015282516028818403018152604890920190925260655490926000926001600160a01b03909216916340a7bb109161ffff600160a01b909104169086856132356141f5565b6040518663ffffffff1660e01b8152600401613255959493929190615a13565b6040805180830381865afa158015613271573d6000803e3d6000fd5b505050506040513d601f19601f82011682018060405250810190613295919061558c565b509050804710156132c15760405162fae2d560e21b815260048101829052476024820152604401610c55565b60655460cb546001600160a01b039091169063c5803100908390600160a01b900461ffff16858730806132f26141f5565b6040518863ffffffff1660e01b815260040161331396959493929190615a67565b6000604051808303818588803b15801561332c57600080fd5b505af1158015613340573d6000803e3d6000fd5b5050505050505050565b806000036133555750565b60d15460ca546040516310cabd1d60e01b81526001600160a01b03808416936310cabd1d93610d1493600080516020615d4183398151915293909116918791600160a01b90910460ff169060040161594f565b60cb5461ffff858116600160a01b90920416146134125760405162461bcd60e51b815260206004820152602260248201527f4261736553747261746567793a3a5661756c74436861696e49644d69736d61746044820152610c6d60f31b6064820152608401610c55565b60006134208482601461388e565b60405160200161343091906155b0565b604051602081830303815290604052613448906155cc565b60cb5460609190911c91506001600160a01b031681146134b55760405162461bcd60e51b815260206004820152602260248201527f4261736553747261746567793a3a5661756c74416464726573734d69736d61746044820152610c6d60f31b6064820152608401610c55565b610d4282614225565b603380546001600160a01b038381166001600160a01b0319831681179093556040519116919082907f8be0079c531659141344cd1fd0a4f28419497f9722a3daafe3b4186f6b6457e090600090a35050565b600080516020615d218339815191526001600160a01b0316633d18b9126040518163ffffffff1660e01b8152600401600060405180830381600087803b15801561355957600080fd5b505af115801561356d573d6000803e3d6000fd5b50506040516370a0823160e01b81526135a69250600080516020615d4183398151915291506370a082319061291e903090600401614c51565b806000036135b15750565b604051632e1a7d4d60e01b815260048101829052600080516020615d2183398151915290632e1a7d4d90602401600060405180830381600087803b1580156135f857600080fd5b505af115801561360c573d6000803e3d6000fd5b505060ca546040516310e1b98f60e21b815260009350839250600080516020615d0183398151915291634386e63c91613666916001600160a01b031690600080516020615d81833981519152906001908990600401615561565b6040805180830381865afa158015613682573d6000803e3d6000fd5b505050506040513d601f19601f820116820180604052508101906136a6919061558c565b60ca549193509150600080516020615d0183398151915290630dede6c4906001600160a01b0316600080516020615d818339815191526001876136e888614346565b6136f188614346565b6040516001600160e01b031960e089901b1681526001600160a01b03968716600482015295909416602486015291151560448501526064840152608483015260a48201523060c48201524260e48201526101040160408051808303816000875af1158015613763573d6000803e3d6000fd5b505050506040513d601f19601f82011682018060405250810190613787919061558c565b50506040516370a0823160e01b8152611e5090600080516020615d81833981519152906370a08231906137be903090600401614c51565b602060405180830381865afa1580156137db573d6000803e3d6000fd5b505050506040513d601f19601f820116820180604052508101906137ff9190615242565b613f5f565b600080856001600160a01b031663517b3f8286896040518363ffffffff1660e01b8152600401613835929190615936565b602060405180830381865afa158015613852573d6000803e3d6000fd5b505050506040513d601f19601f820116820180604052508101906138769190615242565b9050613883818585612eaf565b979650505050505050565b60608161389c81601f615315565b10156138db5760405162461bcd60e51b815260206004820152600e60248201526d736c6963655f6f766572666c6f7760901b6044820152606401610c55565b6138e58284615315565b845110156139295760405162461bcd60e51b8152602060048201526011602482015270736c6963655f6f75744f66426f756e647360781b6044820152606401610c55565b6060821580156139485760405191506000825260208201604052613992565b6040519150601f8416801560200281840101858101878315602002848b0101015b81831015613981578051835260209283019201613969565b5050858452601f01601f1916604052505b50949350505050565b806000036139a65750565b60006139b361080761206b565b9050818110613a5657600080516020615d218339815191526001600160a01b0316633d18b9126040518163ffffffff1660e01b8152600401600060405180830381600087803b158015613a0557600080fd5b505af1158015613a19573d6000803e3d6000fd5b50506040516370a0823160e01b8152613a529250600080516020615d4183398151915291506370a082319061291e903090600401614c51565b5050565b6000613a75613a68610bee8486615302565b613a706114e7565b6141df565b9050611e5081613510565b6001600160a01b03163b151590565b600054610100900460ff16613ab65760405162461bcd60e51b8152600401610c5590615ace565b613abf89614363565b60c980546001600160a01b03808b166001600160a01b03199283161790925560ca80548a8416908316811790915560cb8054938a1661ffff8a16600160a01b029093166001600160b01b0319909416939093179190911790915560cc8290556040805163313ce56760e01b8152905163313ce567916004808201926020929091908290030181865afa158015613b59573d6000803e3d6000fd5b505050506040513d601f19601f82011682018060405250810190613b7d9190615653565b60cb8054600060d05562ffffff60b01b1916600160c01b60ff939093169290920261ffff60b01b191691909117600160b01b61ffff87160217905560cd8054610100600160a81b0319166101006001600160a01b03868116919091029190911790915560ce80546001600160a01b03191684831617905560ca5460405163095ea7b360e01b815291169063095ea7b390613c1f90869060001990600401615936565b6020604051808303816000875af1158015613c3e573d6000803e3d6000fd5b505050506040513d601f19601f82011682018060405250810190611cd99190615b19565b801580613cdc5750604051636eb1769f60e11b81523060048201526001600160a01b03838116602483015284169063dd62ed3e90604401602060405180830381865afa158015613cb6573d6000803e3d6000fd5b505050506040513d601f19601f82011682018060405250810190613cda9190615242565b155b613d475760405162461bcd60e51b815260206004820152603660248201527f5361666545524332303a20617070726f76652066726f6d206e6f6e2d7a65726f60448201527520746f206e6f6e2d7a65726f20616c6c6f77616e636560501b6064820152608401610c55565b611e508363095ea7b360e01b8484604051602401612851929190615936565b60008260ff168260ff161115613d9c57613d808383615b36565b613d8b90600a6158e9565b613d95908561561a565b9050610f6e565b613da68284615b36565b613db190600a6158e9565b613d959085615631565b60ca546040516370a0823160e01b8152600091829182916001600160a01b0316906370a0823190613df0903090600401614c51565b602060405180830381865afa158015613e0d573d6000803e3d6000fd5b505050506040513d601f19601f82011682018060405250810190613e319190615242565b9050838110613e4557509192600092509050565b613e57613e528286615302565b61399b565b60ca546040516370a0823160e01b81526001600160a01b03909116906370a0823190613e87903090600401614c51565b602060405180830381865afa158015613ea4573d6000803e3d6000fd5b505050506040513d601f19601f82011682018060405250810190613ec89190615242565b905080841115613ee657915081613edf8185615302565b9150613eea565b8392505b50915091565b60c9546001600160a01b0316331480613f0857503330145b6114335760405162461bcd60e51b815260206004820152602260248201527f4261736553747261746567793a3a4f6e6c79537472617465676973744f725365604482015261363360f11b6064820152608401610c55565b80600003613f6a5750565b60d15460ca546040516310cabd1d60e01b81526001600160a01b03808416936310cabd1d93610d1493600080516020615d8183398151915293909116918791600160a01b90910460ff169060040161594f565b6000606060008060008661ffff166001600160401b03811115613fe257613fe2614dd5565b6040519080825280601f01601f19166020018201604052801561400c576020820181803683370190505b50905060008087516020890160008d8df191503d92508683111561402e578692505b828152826000602083013e9093509150505b94509492505050565b8180519060200120609760008761ffff1661ffff1681526020019081526020016000208560405161407a91906155b0565b9081526040805191829003602090810183206001600160401b0388166000908152915220919091557fe183f33de2837795525b4792ca4cd60535bd77c53b7e7030060bfcf5734d6b0c906140d79087908790879087908790615b4f565b60405180910390a15050505050565b600061413b826040518060400160405280602081526020017f5361666545524332303a206c6f772d6c6576656c2063616c6c206661696c6564815250856001600160a01b031661439b9092919063ffffffff16565b905080516000148061415c57508080602001905181019061415c9190615b19565b611e505760405162461bcd60e51b815260206004820152602a60248201527f5361666545524332303a204552433230206f7065726174696f6e20646964206e6044820152691bdd081cdd58d8d9595960b21b6064820152608401610c55565b60008060006141ca85856143aa565b915091506141d7816143ef565b509392505050565b60008183106141ee5781610f6e565b5090919050565b60408051600160f01b6020820152620f424060228083019190915282518083039091018152604290910190915290565b60008180602001905181019061423b9190615ba1565b9050600381600481111561425157614251615341565b0361429c5760008280602001905181019061426c9190615bc2565b91505061427c8160000151612888565b8051604051908152600080516020615da1833981519152906020016117c8565b60008160048111156142b0576142b0615341565b036142d7576000828060200190518101906142cb9190615c05565b915050611e5081614534565b60048160048111156142eb576142eb615341565b03613a52576000828060200190518101906143069190615c70565b915050614316816000015161465e565b80516040517f7c9a2d2ec51230d7dbed27f113a325b7e20aef7b049e68b2339257b5edff5bea916117c891614c51565b600061271060cc5483614359919061561a565b610f9f9190615631565b600054610100900460ff1661438a5760405162461bcd60e51b8152600401610c5590615ace565b61439261469d565b610e2e816146cd565b60606118868484600085614716565b60008082516041036143e05760208301516040840151606085015160001a6143d4878285856147e6565b945094505050506143e8565b506000905060025b9250929050565b600081600481111561440357614403615341565b0361440b5750565b600181600481111561441f5761441f615341565b036144675760405162461bcd60e51b815260206004820152601860248201527745434453413a20696e76616c6964207369676e617475726560401b6044820152606401610c55565b600281600481111561447b5761447b615341565b036144c85760405162461bcd60e51b815260206004820152601f60248201527f45434453413a20696e76616c6964207369676e6174757265206c656e677468006044820152606401610c55565b60038160048111156144dc576144dc615341565b03610e2e5760405162461bcd60e51b815260206004820152602260248201527f45434453413a20696e76616c6964207369676e6174757265202773272076616c604482015261756560f01b6064820152608401610c55565b602080820151600090815260cf909152604090205460ff16156145995760405162461bcd60e51b815260206004820152601e60248201527f4261736553747261746567793a3a416c726561647957697468647261776e00006044820152606401610c55565b6000806145a98360000151613dbb565b91509150600060016040518060800160405280306001600160a01b0316815260200185815260200184815260200186602001518152506040516020016145f0929190615cbe565b60408051601f19818403018152919052905082156146315760cb5461462c90849061ffff600160a01b820416906001600160a01b0316846130dc565b61463a565b61463a816131ca565b505050602090810151600090815260cf90915260409020805460ff19166001179055565b6146678161489d565b60ca546040516370a0823160e01b8152610e2e9183916001600160a01b03909116906370a08231906115e9903090600401614c51565b600054610100900460ff166146c45760405162461bcd60e51b8152600401610c5590615ace565b611433336134be565b600054610100900460ff166146f45760405162461bcd60e51b8152600401610c5590615ace565b606580546001600160a01b0319166001600160a01b0392909216919091179055565b6060824710156147775760405162461bcd60e51b815260206004820152602660248201527f416464726573733a20696e73756666696369656e742062616c616e636520666f6044820152651c8818d85b1b60d21b6064820152608401610c55565b600080866001600160a01b0316858760405161479391906155b0565b60006040518083038185875af1925050503d80600081146147d0576040519150601f19603f3d011682016040523d82523d6000602084013e6147d5565b606091505b509150915061388387838387614ab3565b6000806fa2a8918ca85bafe22016d0b997e4df60600160ff1b038311156148135750600090506003614040565b6040805160008082526020820180845289905260ff881692820192909252606081018690526080810185905260019060a0016020604051602081039080840390855afa158015614867573d6000803e3d6000fd5b5050604051601f1901519150506001600160a01b03811661489057600060019250925050614040565b9660009650945050505050565b600080516020615d21833981519152632e1a7d4d6148b96114e7565b6040518263ffffffff1660e01b81526004016148d791815260200190565b600060405180830381600087803b1580156148f157600080fd5b505af1158015614905573d6000803e3d6000fd5b50506040516370a0823160e01b81526149979250839150600080516020615d61833981519152906370a0823190614940903090600401614c51565b602060405180830381865afa15801561495d573d6000803e3d6000fd5b505050506040513d601f19601f820116820180604052508101906149819190615242565b600080516020615d618339815191529190612832565b6040516370a0823160e01b8152614a25908290600080516020615d81833981519152906370a08231906149ce903090600401614c51565b602060405180830381865afa1580156149eb573d6000803e3d6000fd5b505050506040513d601f19601f82011682018060405250810190614a0f9190615242565b600080516020615d818339815191529190612832565b6040516370a0823160e01b8152610e2e908290600080516020615d41833981519152906370a0823190614a5c903090600401614c51565b602060405180830381865afa158015614a79573d6000803e3d6000fd5b505050506040513d601f19601f82011682018060405250810190614a9d9190615242565b600080516020615d418339815191529190612832565b60608315614b20578251600003614b1957614acd85613a80565b614b195760405162461bcd60e51b815260206004820152601d60248201527f416464726573733a2063616c6c20746f206e6f6e2d636f6e74726163740000006044820152606401610c55565b5081611886565b6118868383815115614b355781518083602001fd5b8060405162461bcd60e51b8152600401610c559190614cb5565b803561ffff81168114614b6157600080fd5b919050565b60008083601f840112614b7857600080fd5b5081356001600160401b03811115614b8f57600080fd5b6020830191508360208285010111156143e857600080fd5b80356001600160401b0381168114614b6157600080fd5b60008060008060008060808789031215614bd757600080fd5b614be087614b4f565b955060208701356001600160401b0380821115614bfc57600080fd5b614c088a838b01614b66565b9097509550859150614c1c60408a01614ba7565b94506060890135915080821115614c3257600080fd5b50614c3f89828a01614b66565b979a9699509497509295939492505050565b6001600160a01b0391909116815260200190565b60005b83811015614c80578181015183820152602001614c68565b50506000910152565b60008151808452614ca1816020860160208601614c65565b601f01601f19169290920160200192915050565b602081526000610f6e6020830184614c89565b600060208284031215614cda57600080fd5b610f6e82614b4f565b60008060408385031215614cf657600080fd5b614cff83614b4f565b946020939093013593505050565b6001600160a01b0381168114610e2e57600080fd5b600060208284031215614d3457600080fd5b8135610f6e81614d0d565b600060208284031215614d5157600080fd5b5035919050565b600080600060408486031215614d6d57600080fd5b614d7684614b4f565b925060208401356001600160401b03811115614d9157600080fd5b614d9d86828701614b66565b9497909650939450505050565b8015158114610e2e57600080fd5b600060208284031215614dca57600080fd5b8135610f6e81614daa565b634e487b7160e01b600052604160045260246000fd5b604051602081016001600160401b0381118282101715614e0d57614e0d614dd5565b60405290565b604051601f8201601f191681016001600160401b0381118282101715614e3b57614e3b614dd5565b604052919050565b60006001600160401b03821115614e5c57614e5c614dd5565b50601f01601f191660200190565b600082601f830112614e7b57600080fd5b8135614e8e614e8982614e43565b614e13565b818152846020838601011115614ea357600080fd5b816020850160208301376000918101602001919091529392505050565b600080600080600060a08688031215614ed857600080fd5b8535945060208601359350604086013592506060860135915060808601356001600160401b03811115614f0a57600080fd5b614f1688828901614e6a565b9150509295509295909350565b600080600060608486031215614f3857600080fd5b614f4184614b4f565b925060208401356001600160401b03811115614f5c57600080fd5b614f6886828701614e6a565b925050614f7760408501614ba7565b90509250925092565b60008060408385031215614f9357600080fd5b614f9c83614b4f565b9150614faa60208401614b4f565b90509250929050565b60008060008060008060c08789031215614fcc57600080fd5b614fd587614b4f565b955060208701356001600160401b0380821115614ff157600080fd5b614ffd8a838b01614e6a565b9650604089013595506060890135915061501682614d0d565b9093506080880135925060a0880135908082111561503357600080fd5b5061504089828a01614e6a565b9150509295509295509295565b60008060008060008060008060006101208a8c03121561506c57600080fd5b893561507781614d0d565b985060208a013561508781614d0d565b975060408a013561509781614d0d565b965060608a01356150a781614d0d565b95506150b560808b01614b4f565b94506150c360a08b01614b4f565b935060c08a01356150d381614d0d565b925060e08a01356150e381614d0d565b91506101008a01356150f481614d0d565b809150509295985092959850929598565b60008060008060006080868803121561511d57600080fd5b61512686614b4f565b945061513460208701614b4f565b93506040860135925060608601356001600160401b0381111561515657600080fd5b61516288828901614b66565b969995985093965092949392505050565b60008060006060848603121561518857600080fd5b61519184614b4f565b925061519f60208501614b4f565b9150604084013590509250925092565b600080600080608085870312156151c557600080fd5b84356151d081614d0d565b935060208501356151e081614d0d565b93969395505050506040820135916060013590565b6000806000806080858703121561520b57600080fd5b61521485614b4f565b935061522260208601614b4f565b9250604085013561523281614d0d565b9396929550929360600135925050565b60006020828403121561525457600080fd5b5051919050565b600181811c9082168061526f57607f821691505b60208210810361528f57634e487b7160e01b600052602260045260246000fd5b50919050565b8183823760009101908152919050565b81835281816020850137506000828201602090810191909152601f909101601f19169091010190565b61ffff841681526040602082015260006124a26040830184866152a5565b634e487b7160e01b600052601160045260246000fd5b81810381811115610f9f57610f9f6152ec565b80820180821115610f9f57610f9f6152ec565b60006001820161533a5761533a6152ec565b5060010190565b634e487b7160e01b600052602160045260246000fd5b6005811061537557634e487b7160e01b600052602160045260246000fd5b9052565b6153838184615357565b604060208201526153a06040820183516001600160a01b03169052565b6020820151606082015260408201516080820152606082015160a0820152608082015160c082015260a082015160e0820152600060c0830151610100818185015260e085015191506101208281860152818601519250610140915082828601528086015192505061016082818601528186015192508061018086015250506124a26101a0840182614c89565b8284823760609190911b6001600160601b0319169101908152601401919050565b601f821115611e5057600081815260208120601f850160051c810160208610156154745750805b601f850160051c820191505b81811015610cd457828155600101615480565b600019600383901b1c191660019190911b1790565b81516001600160401b038111156154c1576154c1614dd5565b6154d5816154cf845461525b565b8461544d565b602080601f83116001811461550457600084156154f25750858301515b6154fc8582615493565b865550610cd4565b600085815260208120601f198616915b8281101561553357888601518255948401946001909101908401615514565b50858210156155515787850151600019600388901b60f8161c191681555b5050505050600190811b01905550565b6001600160a01b03948516815292909316602083015215156040820152606081019190915260800190565b6000806040838503121561559f57600080fd5b505080516020909101519092909150565b600082516155c2818460208701614c65565b9190910192915050565b805160208201516001600160601b031980821692919060148310156155fb5780818460140360031b1b83161693505b505050919050565b9182526001600160a01b0316602082015260400190565b8082028115828204841417610f9f57610f9f6152ec565b60008261564e57634e487b7160e01b600052601260045260246000fd5b500490565b60006020828403121561566557600080fd5b815160ff81168114610f6e57600080fd5b600061ffff8088168352808716602084015250846040830152608060608301526138836080830184866152a5565b61ffff861681526080602082015260006156c26080830186886152a5565b6001600160401b0394909416604083015250606001529392505050565b6001600160401b038311156156f6576156f6614dd5565b61570a83615704835461525b565b8361544d565b6000601f84116001811461573857600085156157265750838201355b6157308682615493565b845550610d42565b600083815260209020601f19861690835b828110156157695786850135825560209485019460019092019101615749565b50868210156157865760001960f88860031b161c19848701351681555b505060018560011b0183555050505050565b6000602082840312156157aa57600080fd5b81516001600160401b038111156157c057600080fd5b8201601f810184136157d157600080fd5b80516157df614e8982614e43565b8181528560208385010111156157f457600080fd5b6124a2826020830160208601614c65565b600181815b80851115615840578160001904821115615826576158266152ec565b8085161561583357918102915b93841c939080029061580a565b509250929050565b60008261585757506001610f9f565b8161586457506000610f9f565b816001811461587a5760028114615884576158a0565b6001915050610f9f565b60ff841115615895576158956152ec565b50506001821b610f9f565b5060208310610133831016604e8410600b84101617156158c3575081810a610f9f565b6158cd8383615805565b80600019048211156158e1576158e16152ec565b029392505050565b6000610f6e60ff841683615848565b61ffff851681526080602082015260006159156080830186614c89565b6001600160401b038516604084015282810360608401526138838185614c89565b6001600160a01b03929092168252602082015260400190565b6001600160a01b039485168152929093166020830152604082015260ff909116606082015260800190565b60008060006060848603121561598f57600080fd5b8351925060208401519150604084015190509250925092565b61ffff841681526001600160a01b03831660208201526060604082018190526000906124a290830184614c89565b6001600160a01b0386811682526020820186905261ffff851660408301528316606082015260a06080820181905260009061388390830184614c89565b61ffff861681526001600160a01b038516602082015260a060408201819052600090615a4190830186614c89565b84151560608401528281036080840152615a5b8185614c89565b98975050505050505050565b61ffff8716815260c060208201526000615a8460c0830188614c89565b8281036040840152615a968188614c89565b6001600160a01b0387811660608601528616608085015283810360a08501529050615ac18185614c89565b9998505050505050505050565b6020808252602b908201527f496e697469616c697a61626c653a20636f6e7472616374206973206e6f74206960408201526a6e697469616c697a696e6760a81b606082015260800190565b600060208284031215615b2b57600080fd5b8151610f6e81614daa565b60ff8281168282160390811115610f9f57610f9f6152ec565b61ffff8616815260a060208201526000615b6c60a0830187614c89565b6001600160401b03861660408401528281036060840152615b8d8186614c89565b90508281036080840152615a5b8185614c89565b600060208284031215615bb357600080fd5b815160058110610f6e57600080fd5b6000808284036040811215615bd657600080fd5b835192506020601f1982011215615bec57600080fd5b50615bf5614deb565b6020939093015183525092909150565b6000808284036060811215615c1957600080fd5b835192506040601f1982011215615c2f57600080fd5b50604080519081016001600160401b0381118282101715615c5257615c52614dd5565b60409081526020858101518352940151938101939093525092909150565b6000808284036040811215615c8457600080fd5b835192506020601f1982011215615c9a57600080fd5b50615ca3614deb565b6020840151615cb181614d0d565b8152919491935090915050565b60a08101615ccc8285615357565b60018060a01b038351166020830152602083015160408301526040830151606083015260608301516080830152939250505056fe000000000000000000000000cc25c0fd84737f44a7d38649b69491bbf0c7f08300000000000000000000000097bd59a8202f8263c2ec39cf6cf6b438d0b458760000000000000000000000007238390d5f6f64e67c3211c343a410e2a3dec142000000000000000000000000d17cb0f162f133e339c0bbfc18c36c357e681d6b00000000000000000000000040379a439d4f6795b6fc9aa5687db461677a2dbab0c58532a125fc3c0adccaef396bf65344a4d5781cec2e4c593e6b611d75f150a264697066735822122096722eebd4b9b5c0ca83f450708ad6f2b2d4c1eabeeab14a12ebe1de00d6a06d64736f6c63430008130033",
  "linkReferences": {},
  "deployedLinkReferences": {}
}