{
  "_format": "hh-sol-artifact-1",
  "contractName": "MockPearlStrategy",
  "sourceName": "contracts/mock/MockPearlStrategy.sol",
  "abi": [
    {
      "inputs": [
        {
          "internalType": "uint256",
          "name": "messageType",
          "type": "uint256"
        }
      ],
      "name": "IncorrectMessageType",
      "type": "error"
    },
    {
      "inputs": [
        {
          "internalType": "uint256",
          "name": "amount",
          "type": "uint256"
        },
        {
          "internalType": "uint256",
          "name": "balance",
          "type": "uint256"
        }
      ],
      "name": "InsufficientFunds",
      "type": "error"
    },
    {
      "anonymous": false,
      "inputs": [
        {
          "indexed": false,
          "internalType": "uint256",
          "name": "debtOutstanding",
          "type": "uint256"
        }
      ],
      "name": "AdjustedPosition",
      "type": "event"
    },
    {
      "anonymous": false,
      "inputs": [
        {
          "indexed": false,
          "internalType": "uint8",
          "name": "version",
          "type": "uint8"
        }
      ],
      "name": "Initialized",
      "type": "event"
    },
    {
      "anonymous": false,
      "inputs": [
        {
          "indexed": false,
          "internalType": "uint16",
          "name": "_srcChainId",
          "type": "uint16"
        },
        {
          "indexed": false,
          "internalType": "bytes",
          "name": "_srcAddress",
          "type": "bytes"
        },
        {
          "indexed": false,
          "internalType": "uint64",
          "name": "_nonce",
          "type": "uint64"
        },
        {
          "indexed": false,
          "internalType": "bytes",
          "name": "_payload",
          "type": "bytes"
        },
        {
          "indexed": false,
          "internalType": "bytes",
          "name": "_reason",
          "type": "bytes"
        }
      ],
      "name": "MessageFailed",
      "type": "event"
    },
    {
      "anonymous": false,
      "inputs": [
        {
          "indexed": true,
          "internalType": "address",
          "name": "previousOwner",
          "type": "address"
        },
        {
          "indexed": true,
          "internalType": "address",
          "name": "newOwner",
          "type": "address"
        }
      ],
      "name": "OwnershipTransferred",
      "type": "event"
    },
    {
      "anonymous": false,
      "inputs": [
        {
          "indexed": false,
          "internalType": "uint16",
          "name": "_srcChainId",
          "type": "uint16"
        },
        {
          "indexed": false,
          "internalType": "bytes",
          "name": "_srcAddress",
          "type": "bytes"
        },
        {
          "indexed": false,
          "internalType": "uint64",
          "name": "_nonce",
          "type": "uint64"
        },
        {
          "indexed": false,
          "internalType": "bytes32",
          "name": "_payloadHash",
          "type": "bytes32"
        }
      ],
      "name": "RetryMessageSuccess",
      "type": "event"
    },
    {
      "anonymous": false,
      "inputs": [
        {
          "indexed": false,
          "internalType": "uint16",
          "name": "_dstChainId",
          "type": "uint16"
        },
        {
          "indexed": false,
          "internalType": "uint16",
          "name": "_type",
          "type": "uint16"
        },
        {
          "indexed": false,
          "internalType": "uint256",
          "name": "_minDstGas",
          "type": "uint256"
        }
      ],
      "name": "SetMinDstGas",
      "type": "event"
    },
    {
      "anonymous": false,
      "inputs": [
        {
          "indexed": false,
          "internalType": "address",
          "name": "precrime",
          "type": "address"
        }
      ],
      "name": "SetPrecrime",
      "type": "event"
    },
    {
      "anonymous": false,
      "inputs": [
        {
          "indexed": false,
          "internalType": "uint16",
          "name": "_remoteChainId",
          "type": "uint16"
        },
        {
          "indexed": false,
          "internalType": "bytes",
          "name": "_path",
          "type": "bytes"
        }
      ],
      "name": "SetTrustedRemote",
      "type": "event"
    },
    {
      "anonymous": false,
      "inputs": [
        {
          "indexed": false,
          "internalType": "uint16",
          "name": "_remoteChainId",
          "type": "uint16"
        },
        {
          "indexed": false,
          "internalType": "bytes",
          "name": "_remoteAddress",
          "type": "bytes"
        }
      ],
      "name": "SetTrustedRemoteAddress",
      "type": "event"
    },
    {
      "anonymous": false,
      "inputs": [
        {
          "indexed": true,
          "internalType": "address",
          "name": "token",
          "type": "address"
        },
        {
          "indexed": false,
          "internalType": "uint256",
          "name": "amount",
          "type": "uint256"
        },
        {
          "indexed": false,
          "internalType": "address",
          "name": "sender",
          "type": "address"
        }
      ],
      "name": "SgReceived",
      "type": "event"
    },
    {
      "anonymous": false,
      "inputs": [
        {
          "indexed": false,
          "internalType": "address",
          "name": "newStrategy",
          "type": "address"
        }
      ],
      "name": "StrategyMigrated",
      "type": "event"
    },
    {
      "anonymous": false,
      "inputs": [
        {
          "indexed": false,
          "internalType": "uint256",
          "name": "profit",
          "type": "uint256"
        },
        {
          "indexed": false,
          "internalType": "uint256",
          "name": "loss",
          "type": "uint256"
        },
        {
          "indexed": false,
          "internalType": "uint256",
          "name": "debtPayment",
          "type": "uint256"
        },
        {
          "indexed": false,
          "internalType": "uint256",
          "name": "giveToStrategy",
          "type": "uint256"
        },
        {
          "indexed": false,
          "internalType": "uint256",
          "name": "requestFromStrategy",
          "type": "uint256"
        },
        {
          "indexed": false,
          "internalType": "uint256",
          "name": "creditAvailable",
          "type": "uint256"
        },
        {
          "indexed": false,
          "internalType": "uint256",
          "name": "totalAssets",
          "type": "uint256"
        }
      ],
      "name": "StrategyReported",
      "type": "event"
    },
    {
      "inputs": [],
      "name": "DEFAULT_PAYLOAD_SIZE_LIMIT",
      "outputs": [
        {
          "internalType": "uint256",
          "name": "",
          "type": "uint256"
        }
      ],
      "stateMutability": "view",
      "type": "function"
    },
    {
      "inputs": [],
      "name": "DEFAULT_SLIPPAGE",
      "outputs": [
        {
          "internalType": "uint256",
          "name": "",
          "type": "uint256"
        }
      ],
      "stateMutability": "view",
      "type": "function"
    },
    {
      "inputs": [
        {
          "internalType": "uint256",
          "name": "_debtOutstanding",
          "type": "uint256"
        }
      ],
      "name": "adjustPosition",
      "outputs": [],
      "stateMutability": "nonpayable",
      "type": "function"
    },
    {
      "inputs": [],
      "name": "balanceOfLpStaked",
      "outputs": [
        {
          "internalType": "uint256",
          "name": "",
          "type": "uint256"
        }
      ],
      "stateMutability": "view",
      "type": "function"
    },
    {
      "inputs": [],
      "name": "balanceOfPearlRewards",
      "outputs": [
        {
          "internalType": "uint256",
          "name": "",
          "type": "uint256"
        }
      ],
      "stateMutability": "view",
      "type": "function"
    },
    {
      "inputs": [],
      "name": "balanceOfWant",
      "outputs": [
        {
          "internalType": "uint256",
          "name": "",
          "type": "uint256"
        }
      ],
      "stateMutability": "view",
      "type": "function"
    },
    {
      "inputs": [
        {
          "internalType": "uint256",
          "name": "epoch",
          "type": "uint256"
        }
      ],
      "name": "callMe",
      "outputs": [],
      "stateMutability": "nonpayable",
      "type": "function"
    },
    {
      "inputs": [],
      "name": "clearWant",
      "outputs": [],
      "stateMutability": "nonpayable",
      "type": "function"
    },
    {
      "inputs": [],
      "name": "currentChainId",
      "outputs": [
        {
          "internalType": "uint16",
          "name": "",
          "type": "uint16"
        }
      ],
      "stateMutability": "view",
      "type": "function"
    },
    {
      "inputs": [
        {
          "internalType": "uint256",
          "name": "_daiAmount",
          "type": "uint256"
        }
      ],
      "name": "daiToWant",
      "outputs": [
        {
          "internalType": "uint256",
          "name": "",
          "type": "uint256"
        }
      ],
      "stateMutability": "view",
      "type": "function"
    },
    {
      "inputs": [],
      "name": "emergencyExit",
      "outputs": [
        {
          "internalType": "bool",
          "name": "",
          "type": "bool"
        }
      ],
      "stateMutability": "view",
      "type": "function"
    },
    {
      "inputs": [],
      "name": "estimatedTotalAssets",
      "outputs": [
        {
          "internalType": "uint256",
          "name": "",
          "type": "uint256"
        }
      ],
      "stateMutability": "view",
      "type": "function"
    },
    {
      "inputs": [
        {
          "internalType": "uint256",
          "name": "_stakedLpTokens",
          "type": "uint256"
        }
      ],
      "name": "exitPosition",
      "outputs": [],
      "stateMutability": "nonpayable",
      "type": "function"
    },
    {
      "inputs": [
        {
          "internalType": "uint16",
          "name": "",
          "type": "uint16"
        },
        {
          "internalType": "bytes",
          "name": "",
          "type": "bytes"
        },
        {
          "internalType": "uint64",
          "name": "",
          "type": "uint64"
        }
      ],
      "name": "failedMessages",
      "outputs": [
        {
          "internalType": "bytes32",
          "name": "",
          "type": "bytes32"
        }
      ],
      "stateMutability": "view",
      "type": "function"
    },
    {
      "inputs": [
        {
          "internalType": "uint16",
          "name": "_srcChainId",
          "type": "uint16"
        },
        {
          "internalType": "bytes",
          "name": "_srcAddress",
          "type": "bytes"
        }
      ],
      "name": "forceResumeReceive",
      "outputs": [],
      "stateMutability": "nonpayable",
      "type": "function"
    },
    {
      "inputs": [
        {
          "internalType": "uint16",
          "name": "_version",
          "type": "uint16"
        },
        {
          "internalType": "uint16",
          "name": "_chainId",
          "type": "uint16"
        },
        {
          "internalType": "address",
          "name": "",
          "type": "address"
        },
        {
          "internalType": "uint256",
          "name": "_configType",
          "type": "uint256"
        }
      ],
      "name": "getConfig",
      "outputs": [
        {
          "internalType": "bytes",
          "name": "",
          "type": "bytes"
        }
      ],
      "stateMutability": "view",
      "type": "function"
    },
    {
      "inputs": [
        {
          "internalType": "bytes32",
          "name": "_messageHash",
          "type": "bytes32"
        }
      ],
      "name": "getEthSignedMessageHash",
      "outputs": [
        {
          "internalType": "bytes32",
          "name": "",
          "type": "bytes32"
        }
      ],
      "stateMutability": "pure",
      "type": "function"
    },
    {
      "inputs": [
        {
          "internalType": "uint16",
          "name": "_remoteChainId",
          "type": "uint16"
        }
      ],
      "name": "getTrustedRemoteAddress",
      "outputs": [
        {
          "internalType": "bytes",
          "name": "",
          "type": "bytes"
        }
      ],
      "stateMutability": "view",
      "type": "function"
    },
    {
      "inputs": [
        {
          "internalType": "uint256",
          "name": "_totalDebt",
          "type": "uint256"
        },
        {
          "internalType": "uint256",
          "name": "_debtOutstanding",
          "type": "uint256"
        },
        {
          "internalType": "uint256",
          "name": "_creditAvailable",
          "type": "uint256"
        },
        {
          "internalType": "uint256",
          "name": "_debtRatio",
          "type": "uint256"
        },
        {
          "internalType": "bytes",
          "name": "_signature",
          "type": "bytes"
        }
      ],
      "name": "harvest",
      "outputs": [],
      "stateMutability": "nonpayable",
      "type": "function"
    },
    {
      "inputs": [
        {
          "internalType": "address",
          "name": "_lzEndpoint",
          "type": "address"
        },
        {
          "internalType": "address",
          "name": "_strategist",
          "type": "address"
        },
        {
          "internalType": "contract IERC20",
          "name": "_want",
          "type": "address"
        },
        {
          "internalType": "address",
          "name": "_vault",
          "type": "address"
        },
        {
          "internalType": "uint16",
          "name": "_vaultChainId",
          "type": "uint16"
        },
        {
          "internalType": "uint16",
          "name": "_currentChainId",
          "type": "uint16"
        },
        {
          "internalType": "address",
          "name": "_sgBridge",
          "type": "address"
        },
        {
          "internalType": "address",
          "name": "_router",
          "type": "address"
        }
      ],
      "name": "initialize",
      "outputs": [],
      "stateMutability": "nonpayable",
      "type": "function"
    },
    {
      "inputs": [
        {
          "internalType": "uint16",
          "name": "_srcChainId",
          "type": "uint16"
        },
        {
          "internalType": "bytes",
          "name": "_srcAddress",
          "type": "bytes"
        }
      ],
      "name": "isTrustedRemote",
      "outputs": [
        {
          "internalType": "bool",
          "name": "",
          "type": "bool"
        }
      ],
      "stateMutability": "view",
      "type": "function"
    },
    {
      "inputs": [],
      "name": "liquidateAllPositions",
      "outputs": [
        {
          "internalType": "uint256",
          "name": "",
          "type": "uint256"
        }
      ],
      "stateMutability": "nonpayable",
      "type": "function"
    },
    {
      "inputs": [
        {
          "internalType": "uint256",
          "name": "_amountNeeded",
          "type": "uint256"
        }
      ],
      "name": "liquidatePosition",
      "outputs": [],
      "stateMutability": "nonpayable",
      "type": "function"
    },
    {
      "inputs": [],
      "name": "lzEndpoint",
      "outputs": [
        {
          "internalType": "contract ILayerZeroEndpointUpgradeable",
          "name": "",
          "type": "address"
        }
      ],
      "stateMutability": "view",
      "type": "function"
    },
    {
      "inputs": [
        {
          "internalType": "uint16",
          "name": "_srcChainId",
          "type": "uint16"
        },
        {
          "internalType": "bytes",
          "name": "_srcAddress",
          "type": "bytes"
        },
        {
          "internalType": "uint64",
          "name": "_nonce",
          "type": "uint64"
        },
        {
          "internalType": "bytes",
          "name": "_payload",
          "type": "bytes"
        }
      ],
      "name": "lzReceive",
      "outputs": [],
      "stateMutability": "nonpayable",
      "type": "function"
    },
    {
      "inputs": [
        {
          "internalType": "uint16",
          "name": "",
          "type": "uint16"
        },
        {
          "internalType": "uint16",
          "name": "",
          "type": "uint16"
        }
      ],
      "name": "minDstGasLookup",
      "outputs": [
        {
          "internalType": "uint256",
          "name": "",
          "type": "uint256"
        }
      ],
      "stateMutability": "view",
      "type": "function"
    },
    {
      "inputs": [],
      "name": "name",
      "outputs": [
        {
          "internalType": "string",
          "name": "",
          "type": "string"
        }
      ],
      "stateMutability": "pure",
      "type": "function"
    },
    {
      "inputs": [
        {
          "internalType": "uint16",
          "name": "_srcChainId",
          "type": "uint16"
        },
        {
          "internalType": "bytes",
          "name": "_srcAddress",
          "type": "bytes"
        },
        {
          "internalType": "uint64",
          "name": "_nonce",
          "type": "uint64"
        },
        {
          "internalType": "bytes",
          "name": "_payload",
          "type": "bytes"
        }
      ],
      "name": "nonblockingLzReceive",
      "outputs": [],
      "stateMutability": "nonpayable",
      "type": "function"
    },
    {
      "inputs": [],
      "name": "owner",
      "outputs": [
        {
          "internalType": "address",
          "name": "",
          "type": "address"
        }
      ],
      "stateMutability": "view",
      "type": "function"
    },
    {
      "inputs": [
        {
          "internalType": "uint16",
          "name": "",
          "type": "uint16"
        }
      ],
      "name": "payloadSizeLimitLookup",
      "outputs": [
        {
          "internalType": "uint256",
          "name": "",
          "type": "uint256"
        }
      ],
      "stateMutability": "view",
      "type": "function"
    },
    {
      "inputs": [
        {
          "internalType": "uint256",
          "name": "_pearlAmount",
          "type": "uint256"
        }
      ],
      "name": "pearlToWant",
      "outputs": [
        {
          "internalType": "uint256",
          "name": "",
          "type": "uint256"
        }
      ],
      "stateMutability": "view",
      "type": "function"
    },
    {
      "inputs": [],
      "name": "precrime",
      "outputs": [
        {
          "internalType": "address",
          "name": "",
          "type": "address"
        }
      ],
      "stateMutability": "view",
      "type": "function"
    },
    {
      "inputs": [],
      "name": "renounceOwnership",
      "outputs": [],
      "stateMutability": "nonpayable",
      "type": "function"
    },
    {
      "inputs": [
        {
          "internalType": "uint16",
          "name": "_srcChainId",
          "type": "uint16"
        },
        {
          "internalType": "bytes",
          "name": "_srcAddress",
          "type": "bytes"
        },
        {
          "internalType": "uint64",
          "name": "_nonce",
          "type": "uint64"
        },
        {
          "internalType": "bytes",
          "name": "_payload",
          "type": "bytes"
        }
      ],
      "name": "retryMessage",
      "outputs": [],
      "stateMutability": "payable",
      "type": "function"
    },
    {
      "inputs": [],
      "name": "revokeFunds",
      "outputs": [],
      "stateMutability": "nonpayable",
      "type": "function"
    },
    {
      "inputs": [
        {
          "internalType": "uint256",
          "name": "_pearlAmount",
          "type": "uint256"
        }
      ],
      "name": "sellPearl",
      "outputs": [],
      "stateMutability": "nonpayable",
      "type": "function"
    },
    {
      "inputs": [
        {
          "internalType": "uint256",
          "name": "_usdrAmount",
          "type": "uint256"
        }
      ],
      "name": "sellUsdr",
      "outputs": [],
      "stateMutability": "nonpayable",
      "type": "function"
    },
    {
      "inputs": [
        {
          "internalType": "uint16",
          "name": "_version",
          "type": "uint16"
        },
        {
          "internalType": "uint16",
          "name": "_chainId",
          "type": "uint16"
        },
        {
          "internalType": "uint256",
          "name": "_configType",
          "type": "uint256"
        },
        {
          "internalType": "bytes",
          "name": "_config",
          "type": "bytes"
        }
      ],
      "name": "setConfig",
      "outputs": [],
      "stateMutability": "nonpayable",
      "type": "function"
    },
    {
      "inputs": [
        {
          "internalType": "bool",
          "name": "_emergencyExit",
          "type": "bool"
        }
      ],
      "name": "setEmergencyExit",
      "outputs": [],
      "stateMutability": "nonpayable",
      "type": "function"
    },
    {
      "inputs": [
        {
          "internalType": "uint16",
          "name": "_dstChainId",
          "type": "uint16"
        },
        {
          "internalType": "uint16",
          "name": "_packetType",
          "type": "uint16"
        },
        {
          "internalType": "uint256",
          "name": "_minGas",
          "type": "uint256"
        }
      ],
      "name": "setMinDstGas",
      "outputs": [],
      "stateMutability": "nonpayable",
      "type": "function"
    },
    {
      "inputs": [
        {
          "internalType": "uint16",
          "name": "_dstChainId",
          "type": "uint16"
        },
        {
          "internalType": "uint256",
          "name": "_size",
          "type": "uint256"
        }
      ],
      "name": "setPayloadSizeLimit",
      "outputs": [],
      "stateMutability": "nonpayable",
      "type": "function"
    },
    {
      "inputs": [
        {
          "internalType": "address",
          "name": "_precrime",
          "type": "address"
        }
      ],
      "name": "setPrecrime",
      "outputs": [],
      "stateMutability": "nonpayable",
      "type": "function"
    },
    {
      "inputs": [
        {
          "internalType": "uint16",
          "name": "_version",
          "type": "uint16"
        }
      ],
      "name": "setReceiveVersion",
      "outputs": [],
      "stateMutability": "nonpayable",
      "type": "function"
    },
    {
      "inputs": [
        {
          "internalType": "uint16",
          "name": "_version",
          "type": "uint16"
        }
      ],
      "name": "setSendVersion",
      "outputs": [],
      "stateMutability": "nonpayable",
      "type": "function"
    },
    {
      "inputs": [
        {
          "internalType": "uint256",
          "name": "_slippage",
          "type": "uint256"
        }
      ],
      "name": "setSlippage",
      "outputs": [],
      "stateMutability": "nonpayable",
      "type": "function"
    },
    {
      "inputs": [
        {
          "internalType": "address",
          "name": "_strategist",
          "type": "address"
        }
      ],
      "name": "setStrategist",
      "outputs": [],
      "stateMutability": "nonpayable",
      "type": "function"
    },
    {
      "inputs": [
        {
          "internalType": "uint16",
          "name": "_srcChainId",
          "type": "uint16"
        },
        {
          "internalType": "bytes",
          "name": "_path",
          "type": "bytes"
        }
      ],
      "name": "setTrustedRemote",
      "outputs": [],
      "stateMutability": "nonpayable",
      "type": "function"
    },
    {
      "inputs": [
        {
          "internalType": "uint16",
          "name": "_remoteChainId",
          "type": "uint16"
        },
        {
          "internalType": "bytes",
          "name": "_remoteAddress",
          "type": "bytes"
        }
      ],
      "name": "setTrustedRemoteAddress",
      "outputs": [],
      "stateMutability": "nonpayable",
      "type": "function"
    },
    {
      "inputs": [],
      "name": "sgBridge",
      "outputs": [
        {
          "internalType": "contract ISgBridge",
          "name": "",
          "type": "address"
        }
      ],
      "stateMutability": "view",
      "type": "function"
    },
    {
      "inputs": [
        {
          "internalType": "uint16",
          "name": "",
          "type": "uint16"
        },
        {
          "internalType": "bytes",
          "name": "_srcAddress",
          "type": "bytes"
        },
        {
          "internalType": "uint256",
          "name": "",
          "type": "uint256"
        },
        {
          "internalType": "address",
          "name": "_token",
          "type": "address"
        },
        {
          "internalType": "uint256",
          "name": "_amountLD",
          "type": "uint256"
        },
        {
          "internalType": "bytes",
          "name": "",
          "type": "bytes"
        }
      ],
      "name": "sgReceive",
      "outputs": [],
      "stateMutability": "nonpayable",
      "type": "function"
    },
    {
      "inputs": [],
      "name": "sgRouter",
      "outputs": [
        {
          "internalType": "contract IStargateRouter",
          "name": "",
          "type": "address"
        }
      ],
      "stateMutability": "view",
      "type": "function"
    },
    {
      "inputs": [],
      "name": "slippage",
      "outputs": [
        {
          "internalType": "uint256",
          "name": "",
          "type": "uint256"
        }
      ],
      "stateMutability": "view",
      "type": "function"
    },
    {
      "inputs": [],
      "name": "strategist",
      "outputs": [
        {
          "internalType": "address",
          "name": "",
          "type": "address"
        }
      ],
      "stateMutability": "view",
      "type": "function"
    },
    {
      "inputs": [],
      "name": "strategistSignMessageHash",
      "outputs": [
        {
          "internalType": "bytes32",
          "name": "",
          "type": "bytes32"
        }
      ],
      "stateMutability": "view",
      "type": "function"
    },
    {
      "inputs": [
        {
          "internalType": "contract IERC20",
          "name": "_token",
          "type": "address"
        }
      ],
      "name": "sweepToken",
      "outputs": [],
      "stateMutability": "nonpayable",
      "type": "function"
    },
    {
      "inputs": [
        {
          "internalType": "address",
          "name": "newOwner",
          "type": "address"
        }
      ],
      "name": "transferOwnership",
      "outputs": [],
      "stateMutability": "nonpayable",
      "type": "function"
    },
    {
      "inputs": [
        {
          "internalType": "uint16",
          "name": "",
          "type": "uint16"
        }
      ],
      "name": "trustedRemoteLookup",
      "outputs": [
        {
          "internalType": "bytes",
          "name": "",
          "type": "bytes"
        }
      ],
      "stateMutability": "view",
      "type": "function"
    },
    {
      "inputs": [
        {
          "internalType": "uint256",
          "name": "_usdrLpAmount",
          "type": "uint256"
        }
      ],
      "name": "usdrLpToWant",
      "outputs": [
        {
          "internalType": "uint256",
          "name": "",
          "type": "uint256"
        }
      ],
      "stateMutability": "view",
      "type": "function"
    },
    {
      "inputs": [
        {
          "internalType": "uint256",
          "name": "_usdrAmount",
          "type": "uint256"
        }
      ],
      "name": "usdrToWant",
      "outputs": [
        {
          "internalType": "uint256",
          "name": "",
          "type": "uint256"
        }
      ],
      "stateMutability": "view",
      "type": "function"
    },
    {
      "inputs": [],
      "name": "vault",
      "outputs": [
        {
          "internalType": "address",
          "name": "",
          "type": "address"
        }
      ],
      "stateMutability": "view",
      "type": "function"
    },
    {
      "inputs": [],
      "name": "vaultChainId",
      "outputs": [
        {
          "internalType": "uint16",
          "name": "",
          "type": "uint16"
        }
      ],
      "stateMutability": "view",
      "type": "function"
    },
    {
      "inputs": [],
      "name": "want",
      "outputs": [
        {
          "internalType": "contract IERC20",
          "name": "",
          "type": "address"
        }
      ],
      "stateMutability": "view",
      "type": "function"
    },
    {
      "inputs": [],
      "name": "wantDecimals",
      "outputs": [
        {
          "internalType": "uint8",
          "name": "",
          "type": "uint8"
        }
      ],
      "stateMutability": "view",
      "type": "function"
    },
    {
      "inputs": [
        {
          "internalType": "uint256",
          "name": "_wantAmount",
          "type": "uint256"
        }
      ],
      "name": "wantToUsdrLp",
      "outputs": [
        {
          "internalType": "uint256",
          "name": "",
          "type": "uint256"
        }
      ],
      "stateMutability": "view",
      "type": "function"
    },
    {
      "inputs": [
        {
          "internalType": "uint256",
          "name": "_amountNeeded",
          "type": "uint256"
        }
      ],
      "name": "withdrawSome",
      "outputs": [],
      "stateMutability": "nonpayable",
      "type": "function"
    },
    {
      "stateMutability": "payable",
      "type": "receive"
    }
  ],
  "bytecode": "0x60808060405234610017576157db90816200001d8239f35b600080fdfe6080604052600436101561001b575b361561001957600080fd5b005b60003560e01c80621d35671461042a5780630517cb761461042557806306fdde031461042057806307e0db171461041b5780630df374831461041657806310ddb137146104115780631be195601461040c5780631cdb539f146104075780631f1fcd51146104025780631fe4a686146103fd5780632d606843146103f857806337fded91146103f35780633d3ccc2f146103ee5780633d8b38f6146103e95780633e032a3b146103e45780633eae1112146103df5780633f1f4fa4146103da57806342d65a8d146103d557806345ee0755146103d0578063495f881e146103cb5780634a5f58d1146103c657806350bb4beb146103c15780635641ec03146103bc578063567ad85d146103b7578063593178de146103b25780635b8c41e6146103ad57806366ad5c8a146103a85780636cbadbfa146103a3578063715018a61461039e5780637533d7881461039957806378dc9059146103945780638cfd8f5c1461038f5780638da5cb5b1461038a5780638f4508d014610385578063950c8a74146103805780639589c9901461037b5780639606647d146103765780639f38369a14610371578063a6c3d1651461036c578063a879851014610367578063a9e5082414610362578063ab8236f31461035d578063adf076e614610358578063ae9b051c14610353578063b353aaa71461034e578063baf3292d14610349578063bd79ac1314610344578063c1a3d44c1461033f578063c44618341461033a578063c7b9d53014610335578063cbed8b9c14610330578063cdddd4e51461032b578063d1deba1f14610326578063d56739ac14610321578063df2a5b3b1461031c578063e73620c314610317578063e964404414610312578063eb8d72b71461030d578063efbb5cb014610308578063f0fa55a914610303578063f2fde38b146102fe578063f5ecbdbc146102f9578063fa540801146102f4578063fbfa77cf146102ef5763fcb988a40361000e5761221e565b6121f5565b6121d7565b612124565b612093565b612072565b612057565b611f31565b611f15565b611ee1565b611dfc565b611de1565b611cb4565b611c98565b611bd2565b611b8b565b611b6e565b611afa565b611a57565b6119e7565b6119be565b6119a2565b61197e565b61185e565b611840565b611823565b6116c2565b611617565b611572565b611554565b61152b565b611510565b6114e7565b611494565b611478565b61142f565b611305565b6112e0565b6111a7565b611118565b6110cf565b6110aa565b611087565b61106c565b611050565b610dd9565b610c0c565b610b97565b610b62565b610b3c565b610b1e565b610ad3565b610a5a565b610a2d565b6109e8565b6109bf565b610983565b610900565b61086a565b6107f1565b6107b6565b610736565b6106e4565b61065f565b610500565b6004359061ffff8216820361044057565b600080fd5b6024359061ffff8216820361044057565b9181601f84011215610440578235916001600160401b038311610440576020838186019501011161044057565b604435906001600160401b038216820361044057565b9060806003198301126104405760043561ffff8116810361044057916001600160401b039060243582811161044057816104d591600401610456565b9390939260443581811681036104405792606435918211610440576104fc91600401610456565b9091565b346104405761050e36610499565b60655490949293906001600160a01b031633036105f75761053c92610534913691610d87565b933691610d87565b905a604051633356ae4560e11b6020820190815261ffff871660248301526080604483015294916105a68261059861057760a48301876106ab565b6001600160401b0388166064840152828103602319016084840152886106ab565b03601f198101845283610cfb565b60008091604051976105b789610caa565b609689528260208a019560a036883751923090f1903d90609682116105ee575b6000908288523e156105e557005b61001994612ca0565b609691506105d7565b60405162461bcd60e51b815260206004820152602360248201527f4261736553747261746567793a3a496e76616c6964456e64706f696e7443616c6044820152623632b960e91b6064820152608490fd5b600091031261044057565b6001600160a01b031690565b346104405760003660031901126104405760ce546040516001600160a01b039091168152602090f35b60005b83811061069b5750506000910152565b818101518382015260200161068b565b906020916106c481518092818552858086019101610688565b601f01601f1916010190565b9060206106e19281815201906106ab565b90565b346104405760003660031901126104405761073260405161070481610cc5565b600d81526c506561726c537472617465677960981b60208201526040519182916020835260208301906106ab565b0390f35b3461044057600060203660031901126107b35761075161042f565b610759612562565b6065546001600160a01b0316908290823b156107af57602461ffff918360405195869485936307e0db1760e01b85521660048401525af180156107aa5761079e575080f35b6107a790610c5c565b80f35b61229a565b5080fd5b80fd5b346104405760403660031901126104405761ffff6107d261042f565b6107da612562565b166000526068602052602435604060002055600080f35b3461044057600060203660031901126107b35761080c61042f565b610814612562565b6065546001600160a01b0316908290823b156107af57602461ffff918360405195869485936310ddb13760e01b85521660048401525af180156107aa5761079e575080f35b6001600160a01b0381160361044057565b346104405760203660031901126104405760043561088781610859565b61088f612f98565b6040516370a0823160e01b8152306004820152906020826024816001600160a01b0385165afa9081156107aa57610019926000926108d0575b5033906126be565b6108f291925060203d81116108f9575b6108ea8183610cfb565b8101906125f1565b90386108c8565b503d6108e0565b34610440576101003660031901126104405760043561091e81610859565b6024359061092b82610859565b6044359161093883610859565b60643561094481610859565b60843561ffff9182821682036104405760a4359283168303610440576100199560c4359461097186610859565b60e4359661097e88610859565b61396d565b346104405760003660031901126104405760ca546040516001600160a01b039091168152602090f35b6001600160a01b03909116815260200190565b346104405760003660031901126104405760c9546040516001600160a01b039091168152602090f35b34610440576000806003193601126107b357610a02612f98565b8080808060018060a01b0360c954164790828215610a24575bf1156107aa5780f35b506108fc610a1b565b346104405760003660031901126104405760cd5460405160089190911c6001600160a01b03168152602090f35b34610440576020366003190112610440576000805160206157868339815191526020600435610a87612f98565b610a9081614ff9565b604051908152a1005b9060406003198301126104405760043561ffff811681036104405791602435906001600160401b038211610440576104fc91600401610456565b3461044057602061ffff610b0f610ae936610a99565b9390911660005260668452610b01604060002061138b565b848151910120923691610d87565b82815191012014604051908152f35b3461044057600036600319011261044057602060cc54604051908152f35b34610440576020366003190112610440576020610b5a6004356143b2565b604051908152f35b346104405760203660031901126104405761ffff610b7e61042f565b1660005260686020526020604060002054604051908152f35b3461044057610ba536610a99565b610bb0929192612562565b6065546000938492916001600160a01b031690813b15610bfe5783610bec95604051968795869485936342d65a8d60e01b8552600485016122c7565b03925af180156107aa5761079e575080f35b8380fd5b8015150361044057565b3461044057602036600319011261044057600435610c2981610c02565b610c31612f98565b60ff801960cd5416911515161760cd55600080f35b634e487b7160e01b600052604160045260246000fd5b6001600160401b038111610c6f57604052565b610c46565b602081019081106001600160401b03821117610c6f57604052565b606081019081106001600160401b03821117610c6f57604052565b60c081019081106001600160401b03821117610c6f57604052565b604081019081106001600160401b03821117610c6f57604052565b608081019081106001600160401b03821117610c6f57604052565b601f909101601f19168101906001600160401b03821190821017610c6f57604052565b6040519061016082016001600160401b03811183821017610c6f57604052565b60405190608082016001600160401b03811183821017610c6f57604052565b60405190610d6a82610c8f565b565b6001600160401b038111610c6f57601f01601f191660200190565b929192610d9382610d6c565b91610da16040519384610cfb565b829481845281830111610440578281602093846000960137010152565b9080601f83011215610440578160206106e193359101610d87565b346104405760a0366003190112610440576084356044356024356001600160401b03831161044057610e307fb983e09c034e9c52b5e547cb0589967992b97717733f580cc5ad0afcdc4b522b933690600401610dbe565b90610e39612f98565b610e4282612d51565b60008092610e5260cd5460ff1690565b1561103557610e6360643515612b2a565b610e6b614f51565b93838510156110035750610e8d610e868495610fba9561234c565b809561234c565b945b610e99868461240d565b600082821015610ff15750610eae908261234c565b926000905b610ec482610ebf614672565b61234c565b9360d05492610eda610ed585612b76565b60d055565b610ee2610d1e565b308152914260208401526040830193845260608301998a52608083019a8b5260a0830197885260c0830182815260e0840196875261010084019788526101208401959095526101408301528015610fbf57610f7791610f5191610f5f60cb549260405194859160208301612bb8565b03601f198101855284610cfb565b6001600160a01b0382169160a01c61ffff16906136c6565b51955196519351905191519251936040519788978893909796959260c0959260e08601998652602086015260408501526060840152608083015260a08201520152565b0390a1005b50610fd9610fe7610fec9260405192839160208301612bb8565b03601f198101835282610cfb565b61383c565b610f77565b82610ffd91959261234c565b90610eb3565b8385610fba9583971161101c575b5090610e8d9161234c565b81610e8d9392955061102d9161234c565b939091611011565b925050611047610fba91600435612ff0565b94909390610e8f565b34610440576020366003190112610440576100196004356149c8565b34610440576000366003190112610440576020610b5a614f51565b3461044057600036600319011261044057602060ff60cd54166040519015158152f35b3461044057600036600319011261044057602061ffff60cb5460a01c16604051908152f35b34610440576000366003190112610440576020610b5a612af3565b906110fd60209282815194859201610688565b0190565b9060018060401b0316600052602052604060002090565b346104405760603660031901126104405761113161042f565b6024356001600160401b0381116104405761073291611188602061115c611196943690600401610dbe565b61ffff611167610483565b94166000526097825260406000208260405194838680955193849201610688565b820190815203019020611101565b546040519081529081906020820190565b34610440576111b536610499565b939290915030330361128c576111d8926111d0913691610d87565b923691610d87565b9060cb549261ffff808560a01c1691160361123c576100199261122461121e610fd961121961120961123796612497565b60405192839160208301906110ea565b612c52565b60601c90565b6001600160a01b039081169116146130d3565b61322b565b60405162461bcd60e51b815260206004820152602260248201527f4261736553747261746567793a3a5661756c74436861696e49644d69736d61746044820152610c6d60f31b6064820152608490fd5b60405162461bcd60e51b815260206004820152602660248201527f4e6f6e626c6f636b696e674c7a4170703a2063616c6c6572206d7573742062656044820152650204c7a4170760d41b6064820152608490fd5b3461044057600036600319011261044057602061ffff60cb5460b01c16604051908152f35b34610440576000806003193601126107b35761131f612562565b603380546001600160a01b0319811690915581906001600160a01b03166000805160206157068339815191528280a380f35b90600182811c92168015611381575b602083101461136b57565b634e487b7160e01b600052602260045260246000fd5b91607f1691611360565b906040519182600082549261139f84611351565b90818452600194858116908160001461140c57506001146113c9575b5050610d6a92500383610cfb565b9093915060005260209081600020936000915b8183106113f4575050610d6a935082010138806113bb565b855488840185015294850194879450918301916113dc565b915050610d6a94506020925060ff191682840152151560051b82010138806113bb565b346104405760203660031901126104405761ffff61144b61042f565b166000526066602052610732611464604060002061138b565b6040519182916020835260208301906106ab565b3461044057602036600319011261044057610019600435614bac565b346104405760403660031901126104405760206114de6114b261042f565b61ffff6114bd610445565b91166000526067835260406000209061ffff16600052602052604060002090565b54604051908152f35b34610440576000366003190112610440576033546040516001600160a01b039091168152602090f35b34610440576000366003190112610440576020610b5a6142fc565b34610440576000366003190112610440576069546040516001600160a01b039091168152602090f35b34610440576020366003190112610440576020610b5a600435614338565b34610440576000806003193601126107b35761158c612f98565b60ca546040516370a0823160e01b8152306004820152906001600160a01b0316602082602481845afa9081156107aa576107a79284926115f7575b506040519163a9059cbb60e01b6020840152600160248401526044830152604482526115f282610ce0565b6128e7565b61161091925060203d81116108f9576108ea8183610cfb565b90386115c7565b346104405760203660031901126104405761ffff61163361042f565b166000526066602052611649604060002061138b565b80511561167d578051601319810191908211611678576107329161166c916124e2565b604051918291826106d0565b612336565b60405162461bcd60e51b815260206004820152601d60248201527f4c7a4170703a206e6f20747275737465642070617468207265636f72640000006044820152606490fd5b34610440576116d036610a99565b91906116da612562565b6040519160208483828601376117056034858781013060601b85820152036014810187520185610cfb565b61ffff821660009081526066825260408120855191959092906001600160401b038311610c6f576117408361173a8654611351565b866122e2565b81601f841160011461179f5750918061178e94928899946000805160206156868339815191529992611794575b50508160011b916000199060031b1c19161790555b604051938493846122c7565b0390a180f35b01519050388061176d565b9190601f1984166117b586600052602060002090565b9389905b82821061180b5750509260019285926000805160206156868339815191529a9b9661178e9896106117f2575b505050811b019055611782565b015160001960f88460031b161c191690553880806117e5565b806001869782949787015181550196019401906117b9565b346104405760003660031901126104405760206040516126488152f35b34610440576020366003190112610440576020610b5a60043561444d565b346104405760c03660031901126104405761187761042f565b506001600160401b0360243581811161044057611898903690600401610dbe565b606435916118a583610859565b60a435908111610440576118bd903690600401610dbe565b5060ce546001600160a01b039081163314801561196e575b1561192a5761191061121e610fd96112196112097f92073a89a07a000083eb8b2575fc15e7bb936efe55d00727d6942a796d7211a796612497565b92611925604051928392169460843583612c87565b0390a2005b60405162461bcd60e51b815260206004820152601c60248201527b53674272696467653a3a526f757465724f724272696467654f6e6c7960201b6044820152606490fd5b508060cd5460081c1633146118d5565b3461044057600036600319011261044057602060ff60cb5460c01c16604051908152f35b3461044057602036600319011261044057610019600435614ab6565b34610440576000366003190112610440576065546040516001600160a01b039091168152602090f35b34610440576020366003190112610440577f5db758e995a17ec1ad84bdef7e8c3293a0bd6179bcce400dff5d4c3d87db726b6020600435611a2781610859565b611a2f612562565b606980546001600160a01b0319166001600160a01b03929092169182179055604051908152a1005b346104405760203660031901126104405760405163313ce56760e01b8152602081600481738f3cf7ad23cd3cadbd9735aff958023239c6a0635afa9081156107aa5761073291611abc91600091611acc575b5060ff60cb5460c01c1690600435615628565b6040519081529081906020820190565b611aed915060203d8111611af3575b611ae58183610cfb565b81019061423a565b38611aa9565b503d611adb565b346104405760003660031901126104405760ca546040516370a0823160e01b815230600482015290602090829060249082906001600160a01b03165afa80156107aa57602091600091611b51575b50604051908152f35b611b689150823d81116108f9576108ea8183610cfb565b38611b48565b346104405760003660031901126104405760206040516127108152f35b3461044057602036600319011261044057600435611ba881610859565b611bb0612562565b60c980546001600160a01b0319166001600160a01b0392909216919091179055005b3461044057608036600319011261044057611beb61042f565b611bf3610445565b6064356001600160401b03811161044057611c12903690600401610456565b9092611c1c612562565b6065546001600160a01b031690813b156104405760008094611c75604051978896879586946332fb62e760e21b865261ffff809216600487015216602485015260443560448501526080606485015260848401916122a6565b03925af180156107aa57611c8557005b80611c9261001992610c5c565b80610648565b3461044057602036600319011261044057610019600435614e53565b611cbd36610499565b9161ffff86949296166000526097602052611cf181604060002060206040518092878b833787820190815203019020611101565b54918215611d9057611d8484611d7d7fc264d91f3adc5588250e1551f547752ca0cfa8f6b530d243b9f9f4cab10ea8e5996000611d7187611d6c8d89611d668f610fba9f8f611d45611d529236908d610d87565b6020815191012014612372565b61ffff166000526097602052604060002090565b91612359565b611101565b556111d036868c610d87565b908761312a565b604051958695866123c8565b60405162461bcd60e51b815260206004820152602360248201527f4e6f6e626c6f636b696e674c7a4170703a206e6f2073746f726564206d65737360448201526261676560e81b6064820152608490fd5b34610440576000366003190112610440576020610b5a6142a9565b3461044057606036600319011261044057611e1561042f565b611e1d610445565b60443591611e29612562565b8215611ea457610fba7f9d5c7c0b934da8fefa9c7760c98383778a12dfbfc0c3b3106518f43fb9508ac09361ffff8316600052606760205280611e7e8560406000209061ffff16600052602052604060002090565b556040519384938460409194939294606082019561ffff80921683521660208201520152565b60405162461bcd60e51b81526020600482015260156024820152744c7a4170703a20696e76616c6964206d696e47617360581b6044820152606490fd5b3461044057602036600319011261044057611efa612562565b600435600090815260cf60205260409020805460ff19169055005b34610440576020366003190112610440576100196004356147f3565b3461044057611f3f36610a99565b9190611f49612562565b60009161ffff81168352602060668152604084209060018060401b038611610c6f57611f7f86611f798454611351565b846122e2565b8490601f8711600114611fd557509461178e918186976000805160206157668339815191529791611fca575b508260011b906000198460031b1c1916179055604051938493846122c7565b905085013538611fab565b90601f198716611fea84600052602060002090565b9287905b82821061203f5750509161178e93918860008051602061576683398151915298999410612025575b5050600182811b019055611782565b860135600019600385901b60f8161c191690553880612016565b80600185968294968b01358155019501930190611fee565b34610440576000366003190112610440576020610b5a614672565b346104405760203660031901126104405761208b612f98565b60043560cc55005b34610440576020366003190112610440576004356120b081610859565b6120b8612562565b6001600160a01b038116156120d057610019906125ba565b60405162461bcd60e51b815260206004820152602660248201527f4f776e61626c653a206e6577206f776e657220697320746865207a65726f206160448201526564647265737360d01b6064820152608490fd5b346104405760803660031901126104405761213d61042f565b6000612147610445565b91612153604435610859565b606554604051633d7b2f6f60e21b815261ffff92831660048201529390911660248401523060448401526064803590840152829060849082906001600160a01b03165afa80156107aa57610732916000916121b6575b50604051918291826106d0565b6121d1913d8091833e6121c98183610cfb565b81019061223c565b386121a9565b34610440576020366003190112610440576020610b5a600435612ab1565b346104405760003660031901126104405760cb546040516001600160a01b039091168152602090f35b34610440576020366003190112610440576020610b5a60043561451d565b602081830312610440578051906001600160401b038211610440570181601f8201121561044057805161226e81610d6c565b9261227c6040519485610cfb565b81845260208284010111610440576106e19160208085019101610688565b6040513d6000823e3d90fd5b908060209392818452848401376000828201840152601f01601f1916010190565b60409061ffff6106e1959316815281602082015201916122a6565b90601f81116122f057505050565b600091825260208220906020601f850160051c8301941061232c575b601f0160051c01915b82811061232157505050565b818155600101612315565b909250829061230c565b634e487b7160e01b600052601160045260246000fd5b9190820391821161167857565b6020919283604051948593843782019081520301902090565b1561237957565b60405162461bcd60e51b815260206004820152602160248201527f4e6f6e626c6f636b696e674c7a4170703a20696e76616c6964207061796c6f616044820152601960fa1b6064820152608490fd5b9160609361ffff6123eb93989796981684526080602085015260808401916122a6565b6001600160401b0390951660408201520152565b90601f820180921161167857565b9190820180921161167857565b1561242157565b60405162461bcd60e51b815260206004820152600e60248201526d736c6963655f6f766572666c6f7760901b6044820152606490fd5b1561245e57565b60405162461bcd60e51b8152602060048201526011602482015270736c6963655f6f75744f66426f756e647360781b6044820152606490fd5b6124a5601482511015612457565b6040519060148083019101602883015b8083106124cf57505060148252601f01601f191660405290565b90918251815260208091019201906124b5565b6124f6826124ef816123ff565b101561241a565b6125038282511015612457565b8161251b575050604051600081526020810160405290565b60405191601f811691821560051b808486010193838501920101905b80841061254f5750508252601f01601f191660405290565b9092835181526020809101930190612537565b6033546001600160a01b0316330361257657565b606460405162461bcd60e51b815260206004820152602060248201527f4f776e61626c653a2063616c6c6572206973206e6f7420746865206f776e65726044820152fd5b603380546001600160a01b039283166001600160a01b031982168117909255909116600080516020615706833981519152600080a3565b90816020910312610440575190565b6000805160206156668339815191528152600019602082015260400190565b6001600160a01b039091168152602081019190915260400190565b90612661610d6a92610fd960405193849263a9059cbb60e01b60208501526024840161261f565b6126fa565b9061268d610d6a92610fd960405193849263a9059cbb60e01b60208501526024840161261f565b6127f9565b906126b9610d6a92610fd960405193849263a9059cbb60e01b60208501526024840161261f565b612870565b6115f2610d6a939261059860405194859263a9059cbb60e01b60208501526024840161261f565b9081602091031261044057516106e181610c02565b61276960405161270981610cc5565b6000806020948584526000805160206156a6833981519152868501528581519101826000805160206157268339815191525af13d156127f1573d9061274d82610d6c565b9161275b6040519384610cfb565b82523d60008684013e61295a565b8051908282159283156127d9575b505050156127825750565b6084906040519062461bcd60e51b82526004820152602a60248201527f5361666545524332303a204552433230206f7065726174696f6e20646964206e6044820152691bdd081cdd58d8d9595960b21b6064820152fd5b6127e993508201810191016126e5565b388281612777565b60609061295a565b61276960405161280881610cc5565b6000806020948584526000805160206156a6833981519152868501528581519101826000805160206157468339815191525af13d15612868573d9061284c82610d6c565b9161285a6040519384610cfb565b82523d60008684013e6129fa565b6060906129fa565b61276960405161287f81610cc5565b6000806020948584526000805160206156a6833981519152868501528581519101826000805160206156e68339815191525af13d156128df573d906128c382610d6c565b916128d16040519384610cfb565b82523d60008684013e612a25565b606090612a25565b604051612769916001600160a01b031661290082610cc5565b6000806020958685526000805160206156a683398151915287860152868151910182855af13d15612952573d9161293683610d6c565b926129446040519485610cfb565b83523d60008785013e612a81565b606091612a81565b909190156129ca575080511561296d5790565b6000805160206157268339815191523b156129855790565b60405162461bcd60e51b815260206004820152601d60248201527f416464726573733a2063616c6c20746f206e6f6e2d636f6e74726163740000006044820152606490fd5b8151156129da5750805190602001fd5b60405162461bcd60e51b81529081906129f690600483016106d0565b0390fd5b909190156129ca5750805115612a0d5790565b6000805160206157468339815191523b156129855790565b909190156129ca5750805115612a385790565b6000805160206156e68339815191523b156129855790565b909190156129ca5750805115612a635790565b738f3cf7ad23cd3cadbd9735aff958023239c6a0633b156129855790565b91929015612a9e5750815115612a95575090565b3b156129855790565b8251909150156129da5750805190602001fd5b60405160208101917b0ca2ba3432b932bab69029b4b3b732b21026b2b9b9b0b3b29d05199960211b8352603c820152603c8152612aed81610c8f565b51902090565b60d05460cb546040519060208201923060601b8452603483015261ffff60f01b9060401b16605482015260368152612aed81610c8f565b15612b3157565b60405162461bcd60e51b815260206004820152601e60248201527f4261736553747261746567793a3a44656274526174696f4e6f745a65726f00006044820152606490fd5b60001981146116785760010190565b6000805160206157468339815191529052565b60051115612ba257565b634e487b7160e01b600052602160045260246000fd5b6002815260406020820181905282516001600160a01b0316908201526106e191906101a0906020830151606082015260408301516080820152606083015160a0820152608083015160c082015260a083015160e082015260c0830151610100908183015260e084015190610120918284015284015190610140918284015284015193610160948584015201519261018082015201906106ab565b80516020909101516001600160601b0319808216939290919060148110612c7857505050565b60140360031b82901b16169150565b9081526001600160a01b03909116602082015260400190565b9193612d3e7fe183f33de2837795525b4792ca4cd60535bd77c53b7e7030060bfcf5734d6b0c95612d4c939561ffff81516020830120961695866000526097602052612d048361118860208b60406000208260405194838680955193849201610688565b55612d21604051978897885260a0602089015260a08801906106ab565b6001600160401b03909216604087015285820360608701526106ab565b9083820360808501526106ab565b0390a1565b612d6d612d7591612d68612d63612af3565b612ab1565b612eec565b919091612dd1565b60c9546001600160a01b03908116911603612d8c57565b60405162461bcd60e51b815260206004820152601e60248201527f4261736553747261746567793a3a496e76616c69645369676e617475726500006044820152606490fd5b612dda81612b98565b80612de25750565b612deb81612b98565b60018103612e335760405162461bcd60e51b815260206004820152601860248201527745434453413a20696e76616c6964207369676e617475726560401b6044820152606490fd5b612e3c81612b98565b60028103612e895760405162461bcd60e51b815260206004820152601f60248201527f45434453413a20696e76616c6964207369676e6174757265206c656e677468006044820152606490fd5b80612e95600392612b98565b14612e9c57565b60405162461bcd60e51b815260206004820152602260248201527f45434453413a20696e76616c6964207369676e6174757265202773272076616c604482015261756560f01b6064820152608490fd5b906041815114600014612f16576104fc916020820151906060604084015193015160001a90612f20565b5050600090600290565b9291906fa2a8918ca85bafe22016d0b997e4df60600160ff1b038311612f8c5791608094939160ff602094604051948552168484015260408301526060820152600093849182805260015afa156107aa5781516001600160a01b03811615612f86579190565b50600190565b50505050600090600390565b60c9546001600160a01b03163303612fac57565b60405162461bcd60e51b815260206004820152601c60248201527b10985cd954dd1c985d1959de4e8e93db9b1e54dd1c985d1959da5cdd60221b6044820152606490fd5b90612ff9614672565b8281106130af579161300b919261234c565b906000915b61302261301d828461240d565b614e53565b505061303761303260ca54610653565b610653565b91602060405180946370a0823160e01b8252818061305830600483016109ac565b03915afa9283156107aa5760009361308f575b5081831161307b57505091600090565b61308a826106e193969461234c565b6130c1565b6130a891935060203d81116108f9576108ea8183610cfb565b913861306b565b6130bb9060009361234c565b91613010565b90808210156130ce575090565b905090565b156130da57565b60405162461bcd60e51b815260206004820152602260248201527f4261736553747261746567793a3a5661756c74416464726573734d69736d61746044820152610c6d60f31b6064820152608490fd5b919060cb549261ffff808560a01c1691160361123c57610d6a9261122461121e610fd961121961120961123796612497565b90816020910312610440575160058110156104405790565b809291039160408312610440576020815193601f1901126104405760206040519161319e83610c74565b01516131a981610859565b815290565b809291039160608312610440576040815193601f190112610440576040805191908201906001600160401b03821183831017610c6f576040918252602081015183520151602082015290565b809291039160408312610440576020815193601f1901126104405760206040519161322483610c74565b0151815290565b8051906132406020808301938301018361315c565b61324981612b98565b60038103613292575061327560008051602061578683398151915292602083612d4c94510101906131fa565b90506132818151614ff9565b516040519081529081906020820190565b61329b81612b98565b806132bc5750610d6a916020826132b593510101906131ae565b905061337b565b806132c8600492612b98565b146132d1575050565b6133236133097f7c9a2d2ec51230d7dbed27f113a325b7e20aef7b049e68b2339257b5edff5bea93602084612d4c9551010190613174565b905061331d6133188251610653565b613477565b51610653565b604051918291826109ac565b1561333657565b60405162461bcd60e51b815260206004820152601e60248201527f4261736553747261746567793a3a416c726561647957697468647261776e00006044820152606490fd5b61345b610d6a91613425610fd96133c460208401936133be6133b96133b56133ae885160005260cf602052604060002090565b5460ff1690565b1590565b61332f565b51614e53565b84939193516133d1610d3e565b30815291602083810187815260408086019384526060808701958652815160019481019490945295516001600160a01b03169083015251938101939093525160808301525160a082015291829060c0820190565b81156134685760cb5461344a926001600160a01b0382169160a01c61ffff16906136c6565b5160005260cf602052604060002090565b805460ff19166001179055565b613472915061383c565b61344a565b61347f6142fc565b906000805160206156c683398151915291823b1561044057604051632e1a7d4d60e01b8152600481019190915260009283908290602490829084905af180156107aa57613655575b506040516370a0823160e01b808252602092918381806134ea30600483016109ac565b03816000805160206157268339815191525afa80156107aa57613515918691613638575b508361263a565b60405181815283818061352b30600483016109ac565b03816000805160206157468339815191525afa80156107aa5761355691869161361b575b5083612666565b60405181815283818061356c30600483016109ac565b03816000805160206156e68339815191525afa80156107aa576135979186916135fe575b5083612692565b6135a260ca54610653565b906040519081528381806135b930600483016109ac565b03816001600160a01b0386165afa9384156107aa57610d6a95946135df575b50506126be565b6135f6929450803d106108f9576108ea8183610cfb565b9138806135d8565b6136159150853d87116108f9576108ea8183610cfb565b38613590565b6136329150853d87116108f9576108ea8183610cfb565b3861354f565b61364f9150853d87116108f9576108ea8183610cfb565b3861350e565b80611c9261366292610c5c565b386134c7565b6106e1939261ffff60609316825260018060a01b0316602082015281604082015201906106ab565b919361ffff60a0946106e19796600180881b038095168652602086015216604084015216606082015281608082015201906106ab565b60cd549293926136e19060081c6001600160a01b0316610653565b90604051630dc6346160e01b815260208180613702888a8960048501613668565b0381865afa9081156107aa5760009161376d575b5061372561303260ca54610653565b833b156104405761374f60009660405198899788968795633920455b60e11b875260048701613690565b03925af180156107aa576137605750565b80611c92610d6a92610c5c565b613785915060203d81116108f9576108ea8183610cfb565b38613716565b9190826040910312610440576020825192015190565b926106e1949261ffff6137cf9316855260018060a01b0316602085015260a0604085015260a08401906106ab565b916000606082015260808184039101526106ab565b926138096106e197959361ffff6138179416865260c0602087015260c08601906106ab565b9084820360408601526106ab565b6001600160a01b0391821660608401529316608082015280830360a0909101526106ab565b60cb54604080516001600160601b0319606084811b8216602084015230901b16603482015290916138708260488101610598565b61ffff613881613032606554610653565b9160a01c166138ae8461389261394a565b81518093819263040a7bb160e41b83528a3088600486016137a1565b0381865afa9081156107aa5760009161391c575b508047106138fe576138d261394a565b95833b156104405761374f600096519788968795869462c5803160e81b865230923092600488016137e4565b845162fae2d560e21b81526004810191909152476024820152604490fd5b61393c9150853d8711613943575b6139348183610cfb565b81019061378b565b50386138c2565b503d61392a565b604051600160f01b6020820152620f42406022820152602281526106e181610c8f565b95939196949290966000549760ff8960081c16158099819a613a95575b8115613a75575b5015613a19576139b797896139ae600160ff196000541617600055565b613a0057613aa3565b6139bd57565b6139cd61ff001960005416600055565b604051600181527f7f26b83ff96e1f2b6a682f133852f6798a09c465da95921460cefb3847402498908060208101612d4c565b613a1461010061ff00196000541617600055565b613aa3565b60405162461bcd60e51b815260206004820152602e60248201527f496e697469616c697a61626c653a20636f6e747261637420697320616c72656160448201526d191e481a5b9a5d1a585b1a5e995960921b6064820152608490fd5b303b15915081613a87575b5038613991565b6001915060ff161438613a80565b600160ff821610915061398a565b613b3492613af1613b569693613acf613b13949b9a9b613aca60ff60005460081c166141da565b614253565b60c980546001600160a01b0319166001600160a01b0392909216919091179055565b60ca80546001600160a01b0319166001600160a01b0392909216919091179055565b60cb805461ffff60a01b191660a09290921b61ffff60a01b16919091179055565b60cb80546001600160a01b0319166001600160a01b0392909216919091179055565b613b6161264860cc55565b613b7561303261303261303260ca54610653565b9060405193849263313ce56760e01b845283600460209788935afa9283156107aa57600094613bfc613c8b94613bd18997613c48958a91613d18575b5060cb805460ff60c01b191660c09290921b60ff60c01b16919091179055565b613bdb600060d055565b60cb805461ffff60b01b191660b09290921b61ffff60b01b16919091179055565b60cd8054610100600160a81b031916600885901b610100600160a81b03161790556001600160a01b039060ce8054919092166001600160a01b03166001600160a01b0319909116179055565b613c5661303260ca54610653565b60405163095ea7b360e01b81526001600160a01b03909216600483015260001960248301529093849283919082906044820190565b03925af180156107aa57613cea575b5050613caf613caa60ca54610653565b613da0565b613cc2613cbd60ca54610653565b613e5c565b613cca613ed4565b613cd2613f4e565b613cda613fd6565b613ce2614050565b610d6a614160565b81613d0992903d10613d11575b613d018183610cfb565b8101906126e5565b503880613c9a565b503d613cf7565b613d2f9150893d8b11611af357611ae58183610cfb565b38613bb1565b15613d3c57565b60405162461bcd60e51b815260206004820152603660248201527f5361666545524332303a20617070726f76652066726f6d206e6f6e2d7a65726f60448201527520746f206e6f6e2d7a65726f20616c6c6f77616e636560501b6064820152608490fd5b604051636eb1769f60e11b81523060048201527368b3465833fb72a70ecdf485e0e4c7bd8665fc456024820152906020826044816001600160a01b0385165afa9182156107aa57610d6a92613dfe91600091613e3e575b5015613d35565b60405163095ea7b360e01b60208201527368b3465833fb72a70ecdf485e0e4c7bd8665fc4560248201526000196044820152906115f28260648101610598565b613e56915060203d81116108f9576108ea8183610cfb565b38613df7565b604051636eb1769f60e11b81523060048201526000805160206156668339815191526024820152906020826044816001600160a01b0385165afa9182156107aa57610d6a92613eb391600091613e3e575015613d35565b60405163095ea7b360e01b6020820152906115f28261059860248201612600565b604051636eb1769f60e11b815230600482015260008051602061566683398151915260248201526020816044816000805160206157468339815191525afa80156107aa57613f2a91600091613e3e575015613d35565b60405163095ea7b360e01b6020820152610d6a9061268d81610fd960248201612600565b604051636eb1769f60e11b81523060048201526000805160206156c6833981519152602482018190526020826044816000805160206157268339815191525afa9182156107aa57610d6a92613fab91600091613e3e575015613d35565b6040519063095ea7b360e01b6020830152602482015260001960448201526044815261266181610ce0565b604051636eb1769f60e11b815230600482015260008051602061566683398151915260248201526020816044816000805160206157268339815191525afa80156107aa5761402c91600091613e3e575015613d35565b60405163095ea7b360e01b6020820152610d6a9061266181610fd960248201612600565b604051636eb1769f60e11b815230600482015273195f7b233947d51f4c3b756ad41a5ddb34cebce060248201819052602091738f3cf7ad23cd3cadbd9735aff958023239c6a06391908381604481865afa80156107aa57612769936140c16000939284938491614149575015613d35565b604051938685019063095ea7b360e01b8252602486015282196044860152604485526140ec85610ce0565b82604051956140fa87610cc5565b8887526000805160206156a68339815191528988015251925af13d15614141573d9061412582610d6c565b916141336040519384610cfb565b82523d60008684013e612a50565b606090612a50565b613e569150883d8a116108f9576108ea8183610cfb565b604051636eb1769f60e11b815230600482015260008051602061566683398151915260248201526020816044816000805160206156e68339815191525afa80156107aa576141b691600091613e3e575015613d35565b60405163095ea7b360e01b6020820152610d6a906126b981610fd960248201612600565b156141e157565b60405162461bcd60e51b815260206004820152602b60248201527f496e697469616c697a61626c653a20636f6e7472616374206973206e6f74206960448201526a6e697469616c697a696e6760a81b6064820152608490fd5b90816020910312610440575160ff811681036104405790565b61426d60ff60005460081c16614268816141da565b6141da565b614276336125ba565b61428760ff60005460081c166141da565b606580546001600160a01b0319166001600160a01b0392909216919091179055565b6040516246613160e11b81523060048201526020816024816000805160206156c68339815191525afa9081156107aa576000916142e4575090565b6106e1915060203d81116108f9576108ea8183610cfb565b6040516370a0823160e01b81523060048201526020816024816000805160206156c68339815191525afa9081156107aa576000916142e4575090565b604051906328bd9fc160e11b82526000805160206156e68339815191526004830152602482015260208160448173f68c20d6c50706f6c6bd8ee184382518c93b368c5afa80156107aa576106e191600091614394575b506143b2565b6143ac915060203d81116108f9576108ea8183610cfb565b3861438e565b60405163313ce56760e01b8152906020826004816000805160206157468339815191525afa80156107aa576106e1926000916143f9575b5060ff60cb5460c01c1691615628565b614411915060203d8111611af357611ae58183610cfb565b386143e9565b6001600160a01b039091168152600080516020615746833981519152602082015260016040820152606081019190915260800190565b60ca54604080516310e1b98f60e21b81529290918391829161447c91906001600160a01b031660048401614417565b03816000805160206156668339815191525afa80156107aa5760009182916144b5575b506144a9906143b2565b81018091116116785790565b6144a992506144d2915060403d8111613943576139348183610cfb565b909161449f565b60ff16604d811161167857600a0a90565b8181029291811591840414171561167857565b8115614507570490565b634e487b7160e01b600052601260045260246000fd5b60405163313ce56760e01b90818152602092600080516020615726833981519152918481600481865afa9081156107aa576145699161456491600091614655575b506144d9565b61444d565b60cb5460c01c60ff16916040518581528681600481885afa9081156107aa5761459c92859160009361463d575b50615628565b91604051908582528682600481885afa9081156107aa5787936145c69360009361461e5750615628565b9360046040518095819382525afa9384156107aa576106e1946145fc936145f692600092614601575b50506144d9565b906144ea565b6144fd565b6146179250803d10611af357611ae58183610cfb565b38806145ef565b614636919350853d8711611af357611ae58183610cfb565b9138614596565b614636919350893d8b11611af357611ae58183610cfb565b61466c9150873d8911611af357611ae58183610cfb565b3861455e565b61468061303260ca54610653565b60405190816370a0823160e01b91828252602093849181806146a530600483016109ac565b03915afa9081156107aa57600091614746575b506146c16142a9565b916040519081528381806146d830600483016109ac565b03816000805160206156e68339815191525afa9384156107aa576106e19461471c946147169361471193600093614727575b505061240d565b614338565b9061240d565b6147166145646142fc565b61473e929350803d106108f9576108ea8183610cfb565b90388061470a565b61475d9150833d85116108f9576108ea8183610cfb565b386146b8565b6001600160401b038111610c6f5760051b60200190565b6020908181840312610440578051906001600160401b03821161044057019180601f840112156104405782516147af81614763565b936147bd6040519586610cfb565b818552838086019260051b820101928311610440578301905b8282106147e4575050505090565b815181529083019083016147d6565b80156148a757612710614811614808836143b2565b60cc54906144ea565b60ca546040516313dcfc5960e01b81526004810194909452919004602483015260008051602061574683398151915260448301526001600160a01b03166064820152600160848201523060a48201524260c482015260008160e481836000805160206156668339815191525af180156107aa5761488b5750565b6148a7903d806000833e61489f8183610cfb565b81019061477a565b50565b6148ba6127109160cc54906144ea565b0490565b60409081516148cc81610c8f565b600281528092600090815b8181106148e45750505050565b60209082516148f281610c8f565b84815282858183015285858301528287010152016148d7565b8051156149185760200190565b634e487b7160e01b600052603260045260246000fd5b8051600110156149185760400190565b9291909594939560a084019084526020918285015260409160a08386015283518092528060c086019401926000905b838210614990575050506001600160a01b03909616606084015250935060800152565b845180516001600160a01b0390811688528185015116878501528101511515868201526060909501949382019360019091019061496d565b80156148a75760006149d86148be565b916149e1610d5d565b6000805160206156e683398151915281526149fe60208201612b85565b826040820152614a0d8461490b565b52614a178361490b565b50614a2661303260ca54610653565b614a4b614a31610d5d565b91614a3b83612b85565b6001600160a01b03166020830152565b60016040820152614a5b8461492e565b52614a658361492e565b50614a77614a7282614338565b6148aa565b604051631e82ecdb60e31b81529384928392614a9b9242923092906004870161493e565b0381836000805160206156668339815191525af161488b5750565b80156148a757614ac76147116142a9565b90808210614b865750506000805160206156c6833981519152803b156104405760008091600460405180948193631e8c5c8960e11b83525af180156107aa57614b73575b506040516370a0823160e01b815260208180614b2a30600483016109ac565b03816000805160206156e68339815191525afa80156107aa57610d6a91600091614b55575b506149c8565b614b6d915060203d81116108f9576108ea8183610cfb565b38614b4f565b80611c92614b8092610c5c565b38614b0b565b614b9e614b99610d6a93614bac9361234c565b61451d565b614ba66142fc565b906130c1565b6000805160206156c6833981519152803b156104405760408051631e8c5c8960e11b8152600093600492918581858183895af180156107aa57614e40575b5081516370a0823160e01b8082526020959091868180614c0c308a83016109ac565b03816000805160206156e68339815191525afa80156107aa57614c35918991614e2957506149c8565b8215614e2057803b15614e1c578684518092632e1a7d4d60e01b8252818381614c65898c83019190602083019252565b03925af180156107aa57614e09575b50614c8361303260ca54610653565b83516310e1b98f60e21b8152929083614c9f8383898401614417565b0385856000805160206156668339815191529281845afa80156107aa57898794899782908394614de7575b50614d5b90614cec60cc548092614ce56127109485926144ea565b04966144ea565b885163037b79b160e21b81526001600160a01b039098169c88019c8d5260008051602061574683398151915260208e0152600160408e015260608d019390935260808c019490945292900460a08a01523060c08a01524260e08a01529297889384929091839161010090910190565b03925af19283156107aa57614d83948694614dcb575b505193849283928352309083016109ac565b03816000805160206157468339815191525afa9182156107aa57610d6a9392614dae575b50506147f3565b614dc49250803d106108f9576108ea8183610cfb565b3880614da7565b614de190823d8411613943576139348183610cfb565b50614d71565b614d5b9450614e039150873d8911613943576139348183610cfb565b93614cca565b80611c92614e1692610c5c565b38614c74565b8680fd5b50505050505050565b614b6d9150883d8a116108f9576108ea8183610cfb565b80611c92614e4d92610c5c565b38614bea565b906000614e6461303260ca54610653565b9060405191826370a0823160e01b9182825260209485918180614e8a30600483016109ac565b03915afa9081156107aa57600091614f34575b5085811015614f2b57614eb3614eb8918761234c565b614ab6565b82614ec761303260ca54610653565b60405192835282908180614ede30600483016109ac565b03915afa9283156107aa57600093614f0c575b505081841115614f075750806106e1919361234c565b919050565b614f23929350803d106108f9576108ea8183610cfb565b903880614ef1565b50505050600090565b614f4b9150843d86116108f9576108ea8183610cfb565b38614e9d565b614f5c614bac6142fc565b60ca546040516370a0823160e01b815230600482015290602090829060249082906001600160a01b03165afa9081156107aa576000916142e4575090565b6020815260806060614fb7845183602086015260a08501906106ab565b60208501516001600160a01b03166040858101919091528501518285015293015191015290565b90816060910312610440578051916040602083015192015190565b906000805160206156c6833981519152803b1561044057604092835191631e8c5c8960e11b83526000926004908481838183875af180156107aa57615601575b5085516370a0823160e01b808252602094909185818061505b308883016109ac565b03816000805160206156e68339815191525afa80156107aa576150849188916155ea57506149c8565b61509261303260ca54610653565b9088518381528681806150a7308983016109ac565b0381865afa9081156107aa5788916155cd575b50818111615461575b50505086518181528481806150da308783016109ac565b0381738f3cf7ad23cd3cadbd9735aff958023239c6a0635afa9081156107aa578691615444575b5084816153dd575b5050865181815284818061511f308783016109ac565b03816000805160206157468339815191525afa9081156107aa5786916153c0575b5061514f61303260ca54610653565b885191838352868380615164308983016109ac565b0381855afa9283156107aa5788936153a1575b5080151580615398575b615243575b505050865190815283818061519d308683016109ac565b03816000805160206157268339815191525afa9384156107aa578594615224575b5050826151ce575b505050509050565b813b15610bfe57836151f895965180968195829463b6b55f2560e01b845283019190602083019252565b03925af180156107aa57615211575b80808084936151c6565b80611c9261521e92610c5c565b38615207565b61523b929450803d106108f9576108ea8183610cfb565b9138806151be565b89516326283ecf60e21b81526001600160a01b038316868201908152600080516020615746833981519152602082015260016040820152606081810195909552608081019290925290819060a001039083816000805160206156668339815191529381855afa9182156107aa5784928a88938e82918394615372575b5051635a47ddc360e01b81526001600160a01b0390971694870194855260008051602061574683398151915260208601526001604086018190526060860191909152608085019290925260a0840182905260c08401919091523060e08401524261010084015284928391908290610120015b03925af180156107aa57615346575b80615186565b8161536592903d1061536b575b61535d8183610cfb565b810190614fde565b50615340565b503d615353565b61538f9194506153319250873d891161536b5761535d8183610cfb565b509390916152bf565b50821515615181565b6153b9919350873d89116108f9576108ea8183610cfb565b9138615177565b6153d79150853d87116108f9576108ea8183610cfb565b38615140565b885163a39fc2c560e01b815291829081906153fc903090888401612c87565b03818973195f7b233947d51f4c3b756ad41a5ddb34cebce05af180156107aa57615427575b84615109565b61543d90853d87116108f9576108ea8183610cfb565b5038615421565b61545b9150853d87116108f9576108ea8183610cfb565b38615101565b6154749161546e9161234c565b60011c90565b9061548560cb5460ff9060c01c1690565b895163313ce56760e01b81529287848781738f3cf7ad23cd3cadbd9735aff958023239c6a0635afa9283156107aa576155328c614808612710936154db8d988f986155659b6155249a926155ae575b5088615628565b925160609190911b6001600160601b031916888201908152601960ea1b6014820152738f3cf7ad23cd3cadbd9735aff958023239c6a06360601b601782015290968791602b0190565b03601f198101875286610cfb565b049061553c610d3e565b92835230848401528b830152606082015289518093819263b858183f60e01b8352878301614f9a565b0381897368b3465833fb72a70ecdf485e0e4c7bd8665fc455af180156107aa57615591575b80806150c3565b6155a790853d87116108f9576108ea8183610cfb565b503861558a565b6155c69192508b3d8d11611af357611ae58183610cfb565b90386154d4565b6155e49150873d89116108f9576108ea8183610cfb565b386150ba565b614b6d9150873d89116108f9576108ea8183610cfb565b80611c9261560e92610c5c565b38615039565b9060ff8091169116039060ff821161167857565b909160ff831660ff82161160001461564f5761564a6106e1936145f692615614565b6144d9565b61564a61565f916106e194615614565b906144fd56fe000000000000000000000000cc25c0fd84737f44a7d38649b69491bbf0c7f0838c0400cfe2d1199b1a725c78960bcc2a344d869b80590d0f2bd005db15a572ce5361666545524332303a206c6f772d6c6576656c2063616c6c206661696c656400000000000000000000000097bd59a8202f8263c2ec39cf6cf6b438d0b458760000000000000000000000007238390d5f6f64e67c3211c343a410e2a3dec1428be0079c531659141344cd1fd0a4f28419497f9722a3daafe3b4186f6b6457e0000000000000000000000000d17cb0f162f133e339c0bbfc18c36c357e681d6b00000000000000000000000040379a439d4f6795b6fc9aa5687db461677a2dbafa41487ad5d6728f0b19276fa1eddc16558578f5109fc39d2dc33c3230470dabb0c58532a125fc3c0adccaef396bf65344a4d5781cec2e4c593e6b611d75f150a26469706673582212206dc8de93b5239d1a6e91edfb3a5a10d088b500c222ef4683d5cab2d86381e3ae64736f6c63430008130033",
  "linkReferences": {},
  "deployedLinkReferences": {}
}