{
  "_format": "hh-sol-artifact-1",
  "contractName": "HSLib",
  "sourceName": "contracts/strategies/hopStrategy/HSLib.sol",
  "abi": [
    {
      "inputs": [],
      "name": "MAX_BPS",
      "outputs": [
        {
          "internalType": "uint256",
          "name": "",
          "type": "uint256"
        }
      ],
      "stateMutability": "view",
      "type": "function"
    }
  ],
  "bytecode": "0x6088610038600b82828239805160001a607314602b57634e487b7160e01b600052600060045260246000fd5b30600052607381538281f3fe730000000000000000000000000000000000000000301460806040526004361060335760003560e01c8063fd967f47146038575b600080fd5b604061271081565b60405190815260200160405180910390f3fea2646970667358221220f1b3513e0b10a5827a0e18592376f183627c0c270e8e42c5b4ea35d05dbde94664736f6c63430008130033",
  "linkReferences": {},
  "deployedLinkReferences": {}
}