{
  "_format": "hh-sol-artifact-1",
  "contractName": "TestStrategy",
  "sourceName": "contracts/mock/TestStrategy.sol",
  "abi": [
    {
      "inputs": [
        {
          "internalType": "uint256",
          "name": "messageType",
          "type": "uint256"
        }
      ],
      "name": "IncorrectMessageType",
      "type": "error"
    },
    {
      "inputs": [
        {
          "internalType": "uint256",
          "name": "amount",
          "type": "uint256"
        },
        {
          "internalType": "uint256",
          "name": "balance",
          "type": "uint256"
        }
      ],
      "name": "InsufficientFunds",
      "type": "error"
    },
    {
      "anonymous": false,
      "inputs": [
        {
          "indexed": false,
          "internalType": "uint256",
          "name": "debtOutstanding",
          "type": "uint256"
        }
      ],
      "name": "AdjustedPosition",
      "type": "event"
    },
    {
      "anonymous": false,
      "inputs": [
        {
          "indexed": false,
          "internalType": "uint8",
          "name": "version",
          "type": "uint8"
        }
      ],
      "name": "Initialized",
      "type": "event"
    },
    {
      "anonymous": false,
      "inputs": [
        {
          "indexed": false,
          "internalType": "uint16",
          "name": "_srcChainId",
          "type": "uint16"
        },
        {
          "indexed": false,
          "internalType": "bytes",
          "name": "_srcAddress",
          "type": "bytes"
        },
        {
          "indexed": false,
          "internalType": "uint64",
          "name": "_nonce",
          "type": "uint64"
        },
        {
          "indexed": false,
          "internalType": "bytes",
          "name": "_payload",
          "type": "bytes"
        },
        {
          "indexed": false,
          "internalType": "bytes",
          "name": "_reason",
          "type": "bytes"
        }
      ],
      "name": "MessageFailed",
      "type": "event"
    },
    {
      "anonymous": false,
      "inputs": [
        {
          "indexed": true,
          "internalType": "address",
          "name": "previousOwner",
          "type": "address"
        },
        {
          "indexed": true,
          "internalType": "address",
          "name": "newOwner",
          "type": "address"
        }
      ],
      "name": "OwnershipTransferred",
      "type": "event"
    },
    {
      "anonymous": false,
      "inputs": [
        {
          "indexed": false,
          "internalType": "uint16",
          "name": "_srcChainId",
          "type": "uint16"
        },
        {
          "indexed": false,
          "internalType": "bytes",
          "name": "_srcAddress",
          "type": "bytes"
        },
        {
          "indexed": false,
          "internalType": "uint64",
          "name": "_nonce",
          "type": "uint64"
        },
        {
          "indexed": false,
          "internalType": "bytes32",
          "name": "_payloadHash",
          "type": "bytes32"
        }
      ],
      "name": "RetryMessageSuccess",
      "type": "event"
    },
    {
      "anonymous": false,
      "inputs": [
        {
          "indexed": false,
          "internalType": "uint16",
          "name": "_dstChainId",
          "type": "uint16"
        },
        {
          "indexed": false,
          "internalType": "uint16",
          "name": "_type",
          "type": "uint16"
        },
        {
          "indexed": false,
          "internalType": "uint256",
          "name": "_minDstGas",
          "type": "uint256"
        }
      ],
      "name": "SetMinDstGas",
      "type": "event"
    },
    {
      "anonymous": false,
      "inputs": [
        {
          "indexed": false,
          "internalType": "address",
          "name": "precrime",
          "type": "address"
        }
      ],
      "name": "SetPrecrime",
      "type": "event"
    },
    {
      "anonymous": false,
      "inputs": [
        {
          "indexed": false,
          "internalType": "uint16",
          "name": "_remoteChainId",
          "type": "uint16"
        },
        {
          "indexed": false,
          "internalType": "bytes",
          "name": "_path",
          "type": "bytes"
        }
      ],
      "name": "SetTrustedRemote",
      "type": "event"
    },
    {
      "anonymous": false,
      "inputs": [
        {
          "indexed": false,
          "internalType": "uint16",
          "name": "_remoteChainId",
          "type": "uint16"
        },
        {
          "indexed": false,
          "internalType": "bytes",
          "name": "_remoteAddress",
          "type": "bytes"
        }
      ],
      "name": "SetTrustedRemoteAddress",
      "type": "event"
    },
    {
      "anonymous": false,
      "inputs": [
        {
          "indexed": true,
          "internalType": "address",
          "name": "token",
          "type": "address"
        },
        {
          "indexed": false,
          "internalType": "uint256",
          "name": "amount",
          "type": "uint256"
        },
        {
          "indexed": false,
          "internalType": "address",
          "name": "sender",
          "type": "address"
        }
      ],
      "name": "SgReceived",
      "type": "event"
    },
    {
      "anonymous": false,
      "inputs": [
        {
          "indexed": false,
          "internalType": "address",
          "name": "newStrategy",
          "type": "address"
        }
      ],
      "name": "StrategyMigrated",
      "type": "event"
    },
    {
      "anonymous": false,
      "inputs": [
        {
          "indexed": false,
          "internalType": "uint256",
          "name": "profit",
          "type": "uint256"
        },
        {
          "indexed": false,
          "internalType": "uint256",
          "name": "loss",
          "type": "uint256"
        },
        {
          "indexed": false,
          "internalType": "uint256",
          "name": "debtPayment",
          "type": "uint256"
        },
        {
          "indexed": false,
          "internalType": "uint256",
          "name": "giveToStrategy",
          "type": "uint256"
        },
        {
          "indexed": false,
          "internalType": "uint256",
          "name": "requestFromStrategy",
          "type": "uint256"
        },
        {
          "indexed": false,
          "internalType": "uint256",
          "name": "creditAvailable",
          "type": "uint256"
        },
        {
          "indexed": false,
          "internalType": "uint256",
          "name": "totalAssets",
          "type": "uint256"
        }
      ],
      "name": "StrategyReported",
      "type": "event"
    },
    {
      "inputs": [],
      "name": "DEFAULT_PAYLOAD_SIZE_LIMIT",
      "outputs": [
        {
          "internalType": "uint256",
          "name": "",
          "type": "uint256"
        }
      ],
      "stateMutability": "view",
      "type": "function"
    },
    {
      "inputs": [
        {
          "internalType": "uint256",
          "name": "_debtOutstanding",
          "type": "uint256"
        }
      ],
      "name": "adjustPosition",
      "outputs": [],
      "stateMutability": "nonpayable",
      "type": "function"
    },
    {
      "inputs": [],
      "name": "balanceOfWant",
      "outputs": [
        {
          "internalType": "uint256",
          "name": "",
          "type": "uint256"
        }
      ],
      "stateMutability": "view",
      "type": "function"
    },
    {
      "inputs": [
        {
          "internalType": "uint256",
          "name": "epoch",
          "type": "uint256"
        }
      ],
      "name": "callMe",
      "outputs": [],
      "stateMutability": "nonpayable",
      "type": "function"
    },
    {
      "inputs": [],
      "name": "clearWant",
      "outputs": [],
      "stateMutability": "nonpayable",
      "type": "function"
    },
    {
      "inputs": [],
      "name": "currentChainId",
      "outputs": [
        {
          "internalType": "uint16",
          "name": "",
          "type": "uint16"
        }
      ],
      "stateMutability": "view",
      "type": "function"
    },
    {
      "inputs": [],
      "name": "emergencyExit",
      "outputs": [
        {
          "internalType": "bool",
          "name": "",
          "type": "bool"
        }
      ],
      "stateMutability": "view",
      "type": "function"
    },
    {
      "inputs": [],
      "name": "estimatedTotalAssets",
      "outputs": [
        {
          "internalType": "uint256",
          "name": "",
          "type": "uint256"
        }
      ],
      "stateMutability": "view",
      "type": "function"
    },
    {
      "inputs": [
        {
          "internalType": "uint16",
          "name": "",
          "type": "uint16"
        },
        {
          "internalType": "bytes",
          "name": "",
          "type": "bytes"
        },
        {
          "internalType": "uint64",
          "name": "",
          "type": "uint64"
        }
      ],
      "name": "failedMessages",
      "outputs": [
        {
          "internalType": "bytes32",
          "name": "",
          "type": "bytes32"
        }
      ],
      "stateMutability": "view",
      "type": "function"
    },
    {
      "inputs": [
        {
          "internalType": "uint16",
          "name": "_srcChainId",
          "type": "uint16"
        },
        {
          "internalType": "bytes",
          "name": "_srcAddress",
          "type": "bytes"
        }
      ],
      "name": "forceResumeReceive",
      "outputs": [],
      "stateMutability": "nonpayable",
      "type": "function"
    },
    {
      "inputs": [
        {
          "internalType": "uint16",
          "name": "_version",
          "type": "uint16"
        },
        {
          "internalType": "uint16",
          "name": "_chainId",
          "type": "uint16"
        },
        {
          "internalType": "address",
          "name": "",
          "type": "address"
        },
        {
          "internalType": "uint256",
          "name": "_configType",
          "type": "uint256"
        }
      ],
      "name": "getConfig",
      "outputs": [
        {
          "internalType": "bytes",
          "name": "",
          "type": "bytes"
        }
      ],
      "stateMutability": "view",
      "type": "function"
    },
    {
      "inputs": [
        {
          "internalType": "bytes32",
          "name": "_messageHash",
          "type": "bytes32"
        }
      ],
      "name": "getEthSignedMessageHash",
      "outputs": [
        {
          "internalType": "bytes32",
          "name": "",
          "type": "bytes32"
        }
      ],
      "stateMutability": "pure",
      "type": "function"
    },
    {
      "inputs": [
        {
          "internalType": "uint16",
          "name": "_remoteChainId",
          "type": "uint16"
        }
      ],
      "name": "getTrustedRemoteAddress",
      "outputs": [
        {
          "internalType": "bytes",
          "name": "",
          "type": "bytes"
        }
      ],
      "stateMutability": "view",
      "type": "function"
    },
    {
      "inputs": [
        {
          "internalType": "uint256",
          "name": "_totalDebt",
          "type": "uint256"
        },
        {
          "internalType": "uint256",
          "name": "_debtOutstanding",
          "type": "uint256"
        },
        {
          "internalType": "uint256",
          "name": "_creditAvailable",
          "type": "uint256"
        },
        {
          "internalType": "uint256",
          "name": "_debtRatio",
          "type": "uint256"
        },
        {
          "internalType": "bytes",
          "name": "_signature",
          "type": "bytes"
        }
      ],
      "name": "harvest",
      "outputs": [],
      "stateMutability": "nonpayable",
      "type": "function"
    },
    {
      "inputs": [
        {
          "internalType": "address",
          "name": "_lzEndpoint",
          "type": "address"
        },
        {
          "internalType": "address",
          "name": "_strategist",
          "type": "address"
        },
        {
          "internalType": "contract IERC20",
          "name": "_want",
          "type": "address"
        },
        {
          "internalType": "address",
          "name": "_vault",
          "type": "address"
        },
        {
          "internalType": "uint16",
          "name": "_vaultChainId",
          "type": "uint16"
        },
        {
          "internalType": "uint16",
          "name": "_currentChainId",
          "type": "uint16"
        },
        {
          "internalType": "address",
          "name": "_sgBridge",
          "type": "address"
        },
        {
          "internalType": "address",
          "name": "_sgRouter",
          "type": "address"
        },
        {
          "internalType": "uint256",
          "name": "_slippage",
          "type": "uint256"
        }
      ],
      "name": "initialize",
      "outputs": [],
      "stateMutability": "nonpayable",
      "type": "function"
    },
    {
      "inputs": [
        {
          "internalType": "uint16",
          "name": "_srcChainId",
          "type": "uint16"
        },
        {
          "internalType": "bytes",
          "name": "_srcAddress",
          "type": "bytes"
        }
      ],
      "name": "isTrustedRemote",
      "outputs": [
        {
          "internalType": "bool",
          "name": "",
          "type": "bool"
        }
      ],
      "stateMutability": "view",
      "type": "function"
    },
    {
      "inputs": [],
      "name": "lzEndpoint",
      "outputs": [
        {
          "internalType": "contract ILayerZeroEndpointUpgradeable",
          "name": "",
          "type": "address"
        }
      ],
      "stateMutability": "view",
      "type": "function"
    },
    {
      "inputs": [
        {
          "internalType": "uint16",
          "name": "_srcChainId",
          "type": "uint16"
        },
        {
          "internalType": "bytes",
          "name": "_srcAddress",
          "type": "bytes"
        },
        {
          "internalType": "uint64",
          "name": "_nonce",
          "type": "uint64"
        },
        {
          "internalType": "bytes",
          "name": "_payload",
          "type": "bytes"
        }
      ],
      "name": "lzReceive",
      "outputs": [],
      "stateMutability": "nonpayable",
      "type": "function"
    },
    {
      "inputs": [
        {
          "internalType": "uint16",
          "name": "",
          "type": "uint16"
        },
        {
          "internalType": "uint16",
          "name": "",
          "type": "uint16"
        }
      ],
      "name": "minDstGasLookup",
      "outputs": [
        {
          "internalType": "uint256",
          "name": "",
          "type": "uint256"
        }
      ],
      "stateMutability": "view",
      "type": "function"
    },
    {
      "inputs": [],
      "name": "name",
      "outputs": [
        {
          "internalType": "string",
          "name": "",
          "type": "string"
        }
      ],
      "stateMutability": "pure",
      "type": "function"
    },
    {
      "inputs": [
        {
          "internalType": "uint16",
          "name": "_srcChainId",
          "type": "uint16"
        },
        {
          "internalType": "bytes",
          "name": "_srcAddress",
          "type": "bytes"
        },
        {
          "internalType": "uint64",
          "name": "_nonce",
          "type": "uint64"
        },
        {
          "internalType": "bytes",
          "name": "_payload",
          "type": "bytes"
        }
      ],
      "name": "nonblockingLzReceive",
      "outputs": [],
      "stateMutability": "nonpayable",
      "type": "function"
    },
    {
      "inputs": [],
      "name": "owner",
      "outputs": [
        {
          "internalType": "address",
          "name": "",
          "type": "address"
        }
      ],
      "stateMutability": "view",
      "type": "function"
    },
    {
      "inputs": [
        {
          "internalType": "uint16",
          "name": "",
          "type": "uint16"
        }
      ],
      "name": "payloadSizeLimitLookup",
      "outputs": [
        {
          "internalType": "uint256",
          "name": "",
          "type": "uint256"
        }
      ],
      "stateMutability": "view",
      "type": "function"
    },
    {
      "inputs": [],
      "name": "precrime",
      "outputs": [
        {
          "internalType": "address",
          "name": "",
          "type": "address"
        }
      ],
      "stateMutability": "view",
      "type": "function"
    },
    {
      "inputs": [],
      "name": "renounceOwnership",
      "outputs": [],
      "stateMutability": "nonpayable",
      "type": "function"
    },
    {
      "inputs": [
        {
          "internalType": "uint16",
          "name": "_srcChainId",
          "type": "uint16"
        },
        {
          "internalType": "bytes",
          "name": "_srcAddress",
          "type": "bytes"
        },
        {
          "internalType": "uint64",
          "name": "_nonce",
          "type": "uint64"
        },
        {
          "internalType": "bytes",
          "name": "_payload",
          "type": "bytes"
        }
      ],
      "name": "retryMessage",
      "outputs": [],
      "stateMutability": "payable",
      "type": "function"
    },
    {
      "inputs": [],
      "name": "revokeFunds",
      "outputs": [],
      "stateMutability": "nonpayable",
      "type": "function"
    },
    {
      "inputs": [
        {
          "internalType": "uint16",
          "name": "_version",
          "type": "uint16"
        },
        {
          "internalType": "uint16",
          "name": "_chainId",
          "type": "uint16"
        },
        {
          "internalType": "uint256",
          "name": "_configType",
          "type": "uint256"
        },
        {
          "internalType": "bytes",
          "name": "_config",
          "type": "bytes"
        }
      ],
      "name": "setConfig",
      "outputs": [],
      "stateMutability": "nonpayable",
      "type": "function"
    },
    {
      "inputs": [
        {
          "internalType": "bool",
          "name": "_emergencyExit",
          "type": "bool"
        }
      ],
      "name": "setEmergencyExit",
      "outputs": [],
      "stateMutability": "nonpayable",
      "type": "function"
    },
    {
      "inputs": [
        {
          "internalType": "uint16",
          "name": "_dstChainId",
          "type": "uint16"
        },
        {
          "internalType": "uint16",
          "name": "_packetType",
          "type": "uint16"
        },
        {
          "internalType": "uint256",
          "name": "_minGas",
          "type": "uint256"
        }
      ],
      "name": "setMinDstGas",
      "outputs": [],
      "stateMutability": "nonpayable",
      "type": "function"
    },
    {
      "inputs": [
        {
          "internalType": "uint16",
          "name": "_dstChainId",
          "type": "uint16"
        },
        {
          "internalType": "uint256",
          "name": "_size",
          "type": "uint256"
        }
      ],
      "name": "setPayloadSizeLimit",
      "outputs": [],
      "stateMutability": "nonpayable",
      "type": "function"
    },
    {
      "inputs": [
        {
          "internalType": "address",
          "name": "_precrime",
          "type": "address"
        }
      ],
      "name": "setPrecrime",
      "outputs": [],
      "stateMutability": "nonpayable",
      "type": "function"
    },
    {
      "inputs": [
        {
          "internalType": "uint16",
          "name": "_version",
          "type": "uint16"
        }
      ],
      "name": "setReceiveVersion",
      "outputs": [],
      "stateMutability": "nonpayable",
      "type": "function"
    },
    {
      "inputs": [
        {
          "internalType": "uint16",
          "name": "_version",
          "type": "uint16"
        }
      ],
      "name": "setSendVersion",
      "outputs": [],
      "stateMutability": "nonpayable",
      "type": "function"
    },
    {
      "inputs": [
        {
          "internalType": "uint256",
          "name": "_slippage",
          "type": "uint256"
        }
      ],
      "name": "setSlippage",
      "outputs": [],
      "stateMutability": "nonpayable",
      "type": "function"
    },
    {
      "inputs": [
        {
          "internalType": "uint16",
          "name": "_srcChainId",
          "type": "uint16"
        },
        {
          "internalType": "bytes",
          "name": "_path",
          "type": "bytes"
        }
      ],
      "name": "setTrustedRemote",
      "outputs": [],
      "stateMutability": "nonpayable",
      "type": "function"
    },
    {
      "inputs": [
        {
          "internalType": "uint16",
          "name": "_remoteChainId",
          "type": "uint16"
        },
        {
          "internalType": "bytes",
          "name": "_remoteAddress",
          "type": "bytes"
        }
      ],
      "name": "setTrustedRemoteAddress",
      "outputs": [],
      "stateMutability": "nonpayable",
      "type": "function"
    },
    {
      "inputs": [],
      "name": "sgBridge",
      "outputs": [
        {
          "internalType": "contract ISgBridge",
          "name": "",
          "type": "address"
        }
      ],
      "stateMutability": "view",
      "type": "function"
    },
    {
      "inputs": [
        {
          "internalType": "uint16",
          "name": "",
          "type": "uint16"
        },
        {
          "internalType": "bytes",
          "name": "_srcAddress",
          "type": "bytes"
        },
        {
          "internalType": "uint256",
          "name": "",
          "type": "uint256"
        },
        {
          "internalType": "address",
          "name": "_token",
          "type": "address"
        },
        {
          "internalType": "uint256",
          "name": "_amountLD",
          "type": "uint256"
        },
        {
          "internalType": "bytes",
          "name": "",
          "type": "bytes"
        }
      ],
      "name": "sgReceive",
      "outputs": [],
      "stateMutability": "nonpayable",
      "type": "function"
    },
    {
      "inputs": [],
      "name": "sgRouter",
      "outputs": [
        {
          "internalType": "contract IStargateRouter",
          "name": "",
          "type": "address"
        }
      ],
      "stateMutability": "view",
      "type": "function"
    },
    {
      "inputs": [],
      "name": "slippage",
      "outputs": [
        {
          "internalType": "uint256",
          "name": "",
          "type": "uint256"
        }
      ],
      "stateMutability": "view",
      "type": "function"
    },
    {
      "inputs": [],
      "name": "strategist",
      "outputs": [
        {
          "internalType": "address",
          "name": "",
          "type": "address"
        }
      ],
      "stateMutability": "view",
      "type": "function"
    },
    {
      "inputs": [],
      "name": "strategistSignMessageHash",
      "outputs": [
        {
          "internalType": "bytes32",
          "name": "",
          "type": "bytes32"
        }
      ],
      "stateMutability": "view",
      "type": "function"
    },
    {
      "inputs": [
        {
          "internalType": "contract IERC20",
          "name": "_token",
          "type": "address"
        }
      ],
      "name": "sweepToken",
      "outputs": [],
      "stateMutability": "nonpayable",
      "type": "function"
    },
    {
      "inputs": [
        {
          "internalType": "address",
          "name": "newOwner",
          "type": "address"
        }
      ],
      "name": "transferOwnership",
      "outputs": [],
      "stateMutability": "nonpayable",
      "type": "function"
    },
    {
      "inputs": [
        {
          "internalType": "uint16",
          "name": "",
          "type": "uint16"
        }
      ],
      "name": "trustedRemoteLookup",
      "outputs": [
        {
          "internalType": "bytes",
          "name": "",
          "type": "bytes"
        }
      ],
      "stateMutability": "view",
      "type": "function"
    },
    {
      "inputs": [],
      "name": "vault",
      "outputs": [
        {
          "internalType": "address",
          "name": "",
          "type": "address"
        }
      ],
      "stateMutability": "view",
      "type": "function"
    },
    {
      "inputs": [],
      "name": "vaultChainId",
      "outputs": [
        {
          "internalType": "uint16",
          "name": "",
          "type": "uint16"
        }
      ],
      "stateMutability": "view",
      "type": "function"
    },
    {
      "inputs": [],
      "name": "want",
      "outputs": [
        {
          "internalType": "contract IERC20",
          "name": "",
          "type": "address"
        }
      ],
      "stateMutability": "view",
      "type": "function"
    },
    {
      "inputs": [],
      "name": "wantDecimals",
      "outputs": [
        {
          "internalType": "uint8",
          "name": "",
          "type": "uint8"
        }
      ],
      "stateMutability": "view",
      "type": "function"
    },
    {
      "stateMutability": "payable",
      "type": "receive"
    }
  ],
  "bytecode": "0x608060405234801561001057600080fd5b50613fe0806100206000396000f3fe60806040526004361061023c5760003560e01c80621d3567146102485780630517cb761461026a57806306fdde03146102a057806307e0db17146102de5780630df37483146102fe57806310ddb1371461031e5780631be195601461033e5780631f1fcd511461035e5780631fe4a6861461037e5780632d6068431461039e57806337fded91146103b35780633d3ccc2f146103d85780633d8b38f6146103f85780633e032a3b146104285780633f1f4fa41461044c57806342d65a8d1461047957806345ee075514610499578063495f881e146104b95780635641ec03146104d9578063567ad85d146104f3578063593178de146105285780635b8c41e61461053d57806366ad5c8a1461058c5780636cbadbfa146105ac578063715018a6146105ce5780637533d788146105e35780638cfd8f5c146106035780638da5cb5b1461063b578063950c8a74146106505780639606647d146106705780639f38369a14610685578063a6c3d165146106a5578063ab8236f3146106c5578063adf076e6146106e5578063b353aaa714610718578063baf3292d14610738578063c1a3d44c14610758578063c44618341461076d578063c9dd180b14610783578063cbed8b9c146107a3578063d1deba1f146107c3578063df2a5b3b146107d6578063e73620c3146107f6578063eb8d72b714610816578063efbb5cb014610758578063f0fa55a914610836578063f2fde38b14610856578063f5ecbdbc14610876578063fa54080114610896578063fbfa77cf146108b657600080fd5b3661024357005b600080fd5b34801561025457600080fd5b5061026861026336600461306e565b6108d6565b005b34801561027657600080fd5b5060ce5461028a906001600160a01b031681565b6040516102979190613101565b60405180910390f35b3480156102ac57600080fd5b5060408051808201909152600c81526b54657374537472617465677960a01b60208201525b6040516102979190613165565b3480156102ea57600080fd5b506102686102f9366004613178565b6109bf565b34801561030a57600080fd5b50610268610319366004613193565b610a2c565b34801561032a57600080fd5b50610268610339366004613178565b610a4b565b34801561034a57600080fd5b506102686103593660046131d2565b610a87565b34801561036a57600080fd5b5060ca5461028a906001600160a01b031681565b34801561038a57600080fd5b5060c95461028a906001600160a01b031681565b3480156103aa57600080fd5b50610268610b14565b3480156103bf57600080fd5b5060cd5461028a9061010090046001600160a01b031681565b3480156103e457600080fd5b506102686103f33660046131ef565b610b55565b34801561040457600080fd5b50610418610413366004613208565b610b8b565b6040519015158152602001610297565b34801561043457600080fd5b5061043e60cc5481565b604051908152602001610297565b34801561045857600080fd5b5061043e610467366004613178565b60686020526000908152604090205481565b34801561048557600080fd5b50610268610494366004613208565b610c57565b3480156104a557600080fd5b506102686104b4366004613268565b610cca565b3480156104c557600080fd5b506102686104d4366004613370565b610ce5565b3480156104e557600080fd5b5060cd546104189060ff1681565b3480156104ff57600080fd5b5060cb5461051590600160a01b900461ffff1681565b60405161ffff9091168152602001610297565b34801561053457600080fd5b5061043e610f89565b34801561054957600080fd5b5061043e6105583660046133d3565b6097602090815260009384526040808520845180860184018051928152908401958401959095209452929052825290205481565b34801561059857600080fd5b506102686105a736600461306e565b610fe7565b3480156105b857600080fd5b5060cb5461051590600160b01b900461ffff1681565b3480156105da57600080fd5b506102686110bb565b3480156105ef57600080fd5b506102d16105fe366004613178565b6110cf565b34801561060f57600080fd5b5061043e61061e366004613430565b606760209081526000928352604080842090915290825290205481565b34801561064757600080fd5b5061028a611169565b34801561065c57600080fd5b5060695461028a906001600160a01b031681565b34801561067c57600080fd5b50610268611178565b34801561069157600080fd5b506102d16106a0366004613178565b61120b565b3480156106b157600080fd5b506102686106c0366004613208565b611321565b3480156106d157600080fd5b506102686106e0366004613463565b6113aa565b3480156106f157600080fd5b5060cb5461070690600160c01b900460ff1681565b60405160ff9091168152602001610297565b34801561072457600080fd5b5060655461028a906001600160a01b031681565b34801561074457600080fd5b506102686107533660046131d2565b6114ce565b34801561076457600080fd5b5061043e611521565b34801561077957600080fd5b5061043e61271081565b34801561078f57600080fd5b5061026861079e3660046134fd565b611598565b3480156107af57600080fd5b506102686107be3660046135ac565b6116c2565b6102686107d136600461306e565b61173b565b3480156107e257600080fd5b506102686107f136600461361a565b611951565b34801561080257600080fd5b506102686108113660046131ef565b611a03565b34801561082257600080fd5b50610268610831366004613208565b611a23565b34801561084257600080fd5b506102686108513660046131ef565b611a7d565b34801561086257600080fd5b506102686108713660046131d2565b611a8a565b34801561088257600080fd5b506102d1610891366004613656565b611b00565b3480156108a257600080fd5b5061043e6108b13660046131ef565b611b95565b3480156108c257600080fd5b5060cb5461028a906001600160a01b031681565b6065546001600160a01b031633146109415760405162461bcd60e51b815260206004820152602360248201527f4261736553747261746567793a3a496e76616c6964456e64706f696e7443616c6044820152623632b960e91b60648201526084015b60405180910390fd5b6109b78686868080601f01602080910402602001604051908101604052809392919081815260200183838082843760009201919091525050604080516020601f890181900481028201810190925287815289935091508790879081908401838280828437600092019190915250611be792505050565b505050505050565b6109c7611c60565b6065546040516307e0db1760e01b815261ffff831660048201526001600160a01b03909116906307e0db17906024015b600060405180830381600087803b158015610a1157600080fd5b505af1158015610a25573d6000803e3d6000fd5b5050505050565b610a34611c60565b61ffff909116600090815260686020526040902055565b610a53611c60565b6065546040516310ddb13760e01b815261ffff831660048201526001600160a01b03909116906310ddb137906024016109f7565b610a8f611cbf565b610b1133826001600160a01b03166370a08231306040518263ffffffff1660e01b8152600401610abf9190613101565b602060405180830381865afa158015610adc573d6000803e3d6000fd5b505050506040513d601f19601f82011682018060405250810190610b0091906136a3565b6001600160a01b0384169190611d18565b50565b610b1c611cbf565b60c9546040516001600160a01b03909116904780156108fc02916000818181858888f19350505050158015610b11573d6000803e3d6000fd5b610b5d611cbf565b610b6681611d73565b604051818152600080516020613f8b833981519152906020015b60405180910390a150565b61ffff831660009081526066602052604081208054829190610bac906136bc565b80601f0160208091040260200160405190810160405280929190818152602001828054610bd8906136bc565b8015610c255780601f10610bfa57610100808354040283529160200191610c25565b820191906000526020600020905b815481529060010190602001808311610c0857829003601f168201915b505050505090508383604051610c3c9291906136f6565b60405180910390208180519060200120149150509392505050565b610c5f611c60565b6065546040516342d65a8d60e01b81526001600160a01b03909116906342d65a8d90610c939086908690869060040161372f565b600060405180830381600087803b158015610cad57600080fd5b505af1158015610cc1573d6000803e3d6000fd5b50505050505050565b610cd2611cbf565b60cd805460ff1916911515919091179055565b610ced611cbf565b610cf681611da5565b60cd546000908190819060ff1615610da2578415610d565760405162461bcd60e51b815260206004820152601e60248201527f4261736553747261746567793a3a44656274526174696f4e6f745a65726f00006044820152606401610938565b6000610d60611521565b905087811015610d7b57610d748189613763565b9250610d90565b87811115610d9057610d8d8882613763565b93505b610d9a8389613763565b915050610db4565b610dac8888611e2b565b919450925090505b6000610dc08285613776565b905060008088831015610de257610dd7838a613763565b915060009050610df3565b60009150610df08984613763565b90505b6000604051806101600160405280306001600160a01b031681526020014281526020018881526020018781526020018681526020018481526020018381526020018b815260200183610e43611521565b610e4d9190613763565b815260200160d06000815480929190610e6590613789565b90915550815260200189905290508115610ec55760cb54604051610ec091849161ffff600160a01b830416916001600160a01b031690610eac9060029087906020016137da565b604051602081830303815290604052611f22565b610ef0565b610ef0600282604051602001610edc9291906137da565b604051602081830303815290604052612010565b7fb983e09c034e9c52b5e547cb0589967992b97717733f580cc5ad0afcdc4b522b8160400151826060015183608001518460a001518560c001518660e00151876101000151604051610f739796959493929190968752602087019590955260408601939093526060850191909152608084015260a083015260c082015260e00190565b60405180910390a1505050505050505050505050565b60d05460cb546040513060601b6001600160601b03191660208201526034810192909252600160b01b900460f01b6001600160f01b031916605482015260009060560160405160208183030381529060405280519060200120905090565b3330146110455760405162461bcd60e51b815260206004820152602660248201527f4e6f6e626c6f636b696e674c7a4170703a2063616c6c6572206d7573742062656044820152650204c7a4170760d41b6064820152608401610938565b6109b78686868080601f01602080910402602001604051908101604052809392919081815260200183838082843760009201919091525050604080516020601f89018190048102820181019092528781528993509150879087908190840183828082843760009201919091525061219092505050565b6110c3611c60565b6110cd60006122a6565b565b606660205260009081526040902080546110e8906136bc565b80601f0160208091040260200160405190810160405280929190818152602001828054611114906136bc565b80156111615780601f1061113657610100808354040283529160200191611161565b820191906000526020600020905b81548152906001019060200180831161114457829003601f168201915b505050505081565b6033546001600160a01b031690565b611180611cbf565b60ca546040516370a0823160e01b81526110cd916001916001600160a01b03909116906370a08231906111b7903090600401613101565b602060405180830381865afa1580156111d4573d6000803e3d6000fd5b505050506040513d601f19601f820116820180604052508101906111f891906136a3565b60ca546001600160a01b03169190611d18565b61ffff811660009081526066602052604081208054606092919061122e906136bc565b80601f016020809104026020016040519081016040528092919081815260200182805461125a906136bc565b80156112a75780601f1061127c576101008083540402835291602001916112a7565b820191906000526020600020905b81548152906001019060200180831161128a57829003601f168201915b5050505050905080516000036112ff5760405162461bcd60e51b815260206004820152601d60248201527f4c7a4170703a206e6f20747275737465642070617468207265636f72640000006044820152606401610938565b61131a6000601483516113129190613763565b8391906122f8565b9392505050565b611329611c60565b81813060405160200161133e93929190613896565b60408051601f1981840301815291815261ffff85166000908152606660205220906113699082613912565b507f8c0400cfe2d1199b1a725c78960bcc2a344d869b80590d0f2bd005db15a572ce83838360405161139d9392919061372f565b60405180910390a1505050565b60ce546001600160a01b03163314806113d2575060cd5461010090046001600160a01b031633145b61141d5760405162461bcd60e51b815260206004820152601c60248201527b53674272696467653a3a526f757465724f724272696467654f6e6c7960201b6044820152606401610938565b60cb546000906001600160a01b0316331461146f5761143f86600060146122f8565b60405160200161144f91906139cb565b604051602081830303815290604052611467906139e7565b60601c61147c565b60cb546001600160a01b03165b604080518581526001600160a01b038084166020830152929350918616917f92073a89a07a000083eb8b2575fc15e7bb936efe55d00727d6942a796d7211a7910160405180910390a250505050505050565b6114d6611c60565b606980546001600160a01b0319166001600160a01b0383161790556040517f5db758e995a17ec1ad84bdef7e8c3293a0bd6179bcce400dff5d4c3d87db726b90610b80908390613101565b60ca546040516370a0823160e01b81526000916001600160a01b0316906370a0823190611552903090600401613101565b602060405180830381865afa15801561156f573d6000803e3d6000fd5b505050506040513d601f19601f8201168201806040525081019061159391906136a3565b905090565b600054610100900460ff16158080156115b85750600054600160ff909116105b806115d957506115c730612405565b1580156115d9575060005460ff166001145b61163c5760405162461bcd60e51b815260206004820152602e60248201527f496e697469616c697a61626c653a20636f6e747261637420697320616c72656160448201526d191e481a5b9a5d1a585b1a5e995960921b6064820152608401610938565b6000805460ff19166001179055801561165f576000805461ff0019166101001790555b6116708a8a8a8a8a8a8a8a8a612414565b80156116b6576000805461ff0019169055604051600181527f7f26b83ff96e1f2b6a682f133852f6798a09c465da95921460cefb38474024989060200160405180910390a15b50505050505050505050565b6116ca611c60565b6065546040516332fb62e760e21b81526001600160a01b039091169063cbed8b9c906117029088908890889088908890600401613a1e565b600060405180830381600087803b15801561171c57600080fd5b505af1158015611730573d6000803e3d6000fd5b505050505050505050565b61ffff8616600090815260976020526040808220905161175e90889088906136f6565b90815260408051602092819003830190206001600160401b038716600090815292529020549050806117de5760405162461bcd60e51b815260206004820152602360248201527f4e6f6e626c6f636b696e674c7a4170703a206e6f2073746f726564206d65737360448201526261676560e81b6064820152608401610938565b8083836040516117ef9291906136f6565b60405180910390201461184e5760405162461bcd60e51b815260206004820152602160248201527f4e6f6e626c6f636b696e674c7a4170703a20696e76616c6964207061796c6f616044820152601960fa1b6064820152608401610938565b61ffff8716600090815260976020526040808220905161187190899089906136f6565b90815260408051602092819003830181206001600160401b038916600090815290845282902093909355601f88018290048202830182019052868252611909918991899089908190840183828082843760009201919091525050604080516020601f8a018190048102820181019092528881528a93509150889088908190840183828082843760009201919091525061219092505050565b7fc264d91f3adc5588250e1551f547752ca0cfa8f6b530d243b9f9f4cab10ea8e58787878785604051611940959493929190613a4c565b60405180910390a150505050505050565b611959611c60565b600081116119a15760405162461bcd60e51b81526020600482015260156024820152744c7a4170703a20696e76616c6964206d696e47617360581b6044820152606401610938565b61ffff83811660008181526067602090815260408083209487168084529482529182902085905581519283528201929092529081018290527f9d5c7c0b934da8fefa9c7760c98383778a12dfbfc0c3b3106518f43fb9508ac09060600161139d565b611a0b611c60565b600090815260cf60205260409020805460ff19169055565b611a2b611c60565b61ffff83166000908152606660205260409020611a49828483613a87565b507ffa41487ad5d6728f0b19276fa1eddc16558578f5109fc39d2dc33c3230470dab83838360405161139d9392919061372f565b611a85611cbf565b60cc55565b611a92611c60565b6001600160a01b038116611af75760405162461bcd60e51b815260206004820152602660248201527f4f776e61626c653a206e6577206f776e657220697320746865207a65726f206160448201526564647265737360d01b6064820152608401610938565b610b11816122a6565b606554604051633d7b2f6f60e21b815261ffff808716600483015285166024820152306044820152606481018390526060916001600160a01b03169063f5ecbdbc90608401600060405180830381865afa158015611b62573d6000803e3d6000fd5b505050506040513d6000823e601f3d908101601f19168201604052611b8a9190810190613b40565b90505b949350505050565b6040517b0ca2ba3432b932bab69029b4b3b732b21026b2b9b9b0b3b29d05199960211b6020820152603c8101829052600090605c01604051602081830303815290604052805190602001209050919050565b600080611c4a5a60966366ad5c8a60e01b89898989604051602401611c0f9493929190613bad565b60408051601f198184030181529190526020810180516001600160e01b03166001600160e01b031990931692909217909152309291906125e7565b91509150816109b7576109b78686868685612673565b33611c69611169565b6001600160a01b0316146110cd5760405162461bcd60e51b815260206004820181905260248201527f4f776e61626c653a2063616c6c6572206973206e6f7420746865206f776e65726044820152606401610938565b60c9546001600160a01b031633146110cd5760405162461bcd60e51b815260206004820152601c60248201527b10985cd954dd1c985d1959de4e8e93db9b1e54dd1c985d1959da5cdd60221b6044820152606401610938565b611d6e8363a9059cbb60e01b8484604051602401611d37929190613beb565b60408051601f198184030181529190526020810180516001600160e01b03166001600160e01b031990931692909217909152612710565b505050565b60cd5460ff1615611d815750565b80611d8a611521565b1115610b1157600081611d9b611521565b611d6e9190613763565b6000611daf610f89565b90506000611dbc82611b95565b60c9549091506001600160a01b0316611dd582856127e5565b6001600160a01b031614611d6e5760405162461bcd60e51b815260206004820152601e60248201527f4261736553747261746567793a3a496e76616c69645369676e617475726500006044820152606401610938565b600080600080611e39611521565b9050858110611e5757611e4c8682613763565b935060009250611e68565b60009350611e658187613763565b92505b611e7a611e758587613776565b61280b565b505060ca546040516370a0823160e01b81526000916001600160a01b0316906370a0823190611ead903090600401613101565b602060405180830381865afa158015611eca573d6000803e3d6000fd5b505050506040513d601f19601f82011682018060405250810190611eee91906136a3565b9050848111611f035780945060009250611f19565b611f16611f108683613763565b876128b4565b92505b50509250925092565b60cd54604051630dc6346160e01b815260009161010090046001600160a01b031690630dc6346190611f5c90879087908790600401613c04565b602060405180830381865afa158015611f79573d6000803e3d6000fd5b505050506040513d601f19601f82011682018060405250810190611f9d91906136a3565b60cd5460ca54604051633920455b60e11b81529293506001600160a01b036101009092048216926372408ab6928592611fe3929116908a908a908a908a90600401613c32565b6000604051808303818588803b158015611ffc57600080fd5b505af11580156116b6573d6000803e3d6000fd5b60cb5460408051606083811b6001600160601b03199081166020840152309182901b16603483015282516028818403018152604890920190925260655490926000926001600160a01b03909216916340a7bb109161ffff600160a01b9091041690868561207b6128ca565b6040518663ffffffff1660e01b815260040161209b959493929190613c6f565b6040805180830381865afa1580156120b7573d6000803e3d6000fd5b505050506040513d601f19601f820116820180604052508101906120db9190613cc3565b509050804710156121075760405162fae2d560e21b815260048101829052476024820152604401610938565b60655460cb546001600160a01b039091169063c5803100908390600160a01b900461ffff16858730806121386128ca565b6040518863ffffffff1660e01b815260040161215996959493929190613ce7565b6000604051808303818588803b15801561217257600080fd5b505af1158015612186573d6000803e3d6000fd5b5050505050505050565b60cb5461ffff858116600160a01b90920416146121fa5760405162461bcd60e51b815260206004820152602260248201527f4261736553747261746567793a3a5661756c74436861696e49644d69736d61746044820152610c6d60f31b6064820152608401610938565b6000612208848260146122f8565b60405160200161221891906139cb565b604051602081830303815290604052612230906139e7565b60cb5460609190911c91506001600160a01b0316811461229d5760405162461bcd60e51b815260206004820152602260248201527f4261736553747261746567793a3a5661756c74416464726573734d69736d61746044820152610c6d60f31b6064820152608401610938565b610a25826128fa565b603380546001600160a01b038381166001600160a01b0319831681179093556040519116919082907f8be0079c531659141344cd1fd0a4f28419497f9722a3daafe3b4186f6b6457e090600090a35050565b60608161230681601f613776565b10156123455760405162461bcd60e51b815260206004820152600e60248201526d736c6963655f6f766572666c6f7760901b6044820152606401610938565b61234f8284613776565b845110156123935760405162461bcd60e51b8152602060048201526011602482015270736c6963655f6f75744f66426f756e647360781b6044820152606401610938565b6060821580156123b257604051915060008252602082016040526123fc565b6040519150601f8416801560200281840101858101878315602002848b0101015b818310156123eb5780518352602092830192016123d3565b5050858452601f01601f1916604052505b50949350505050565b6001600160a01b03163b151590565b600054610100900460ff1661243b5760405162461bcd60e51b815260040161093890613d4e565b61244489612a27565b60c980546001600160a01b03808b166001600160a01b03199283161790925560ca80548a8416908316811790915560cb8054938a1661ffff8a16600160a01b029093166001600160b01b0319909416939093179190911790915560cc8290556040805163313ce56760e01b8152905163313ce567916004808201926020929091908290030181865afa1580156124de573d6000803e3d6000fd5b505050506040513d601f19601f820116820180604052508101906125029190613d99565b60cb8054600060d05562ffffff60b01b1916600160c01b60ff939093169290920261ffff60b01b191691909117600160b01b61ffff87160217905560cd8054610100600160a81b0319166101006001600160a01b03868116919091029190911790915560ce80546001600160a01b03191684831617905560ca5460405163095ea7b360e01b815291169063095ea7b3906125a490869060001990600401613beb565b6020604051808303816000875af11580156125c3573d6000803e3d6000fd5b505050506040513d601f19601f820116820180604052508101906116b69190613dbc565b6000606060008060008661ffff166001600160401b0381111561260c5761260c613285565b6040519080825280601f01601f191660200182016040528015612636576020820181803683370190505b50905060008087516020890160008d8df191503d925086831115612658578692505b828152826000602083013e9093509150505b94509492505050565b8180519060200120609760008761ffff1661ffff168152602001908152602001600020856040516126a491906139cb565b9081526040805191829003602090810183206001600160401b0388166000908152915220919091557fe183f33de2837795525b4792ca4cd60535bd77c53b7e7030060bfcf5734d6b0c906127019087908790879087908790613dd9565b60405180910390a15050505050565b6000612765826040518060400160405280602081526020017f5361666545524332303a206c6f772d6c6576656c2063616c6c206661696c6564815250856001600160a01b0316612a5f9092919063ffffffff16565b90508051600014806127865750808060200190518101906127869190613dbc565b611d6e5760405162461bcd60e51b815260206004820152602a60248201527f5361666545524332303a204552433230206f7065726174696f6e20646964206e6044820152691bdd081cdd58d8d9595960b21b6064820152608401610938565b60008060006127f48585612a6e565b9150915061280181612ab3565b5090505b92915050565b60ca546040516370a0823160e01b8152600091829182916001600160a01b0316906370a0823190612840903090600401613101565b602060405180830381865afa15801561285d573d6000803e3d6000fd5b505050506040513d601f19601f8201168201806040525081019061288191906136a3565b90508381116128905780612892565b835b92508383106128a25760006128ac565b6128ac8385613763565b915050915091565b60008183106128c3578161131a565b5090919050565b60408051600160f01b6020820152620f424060228083019190915282518083039091018152604290910190915290565b6000818060200190518101906129109190613e2b565b90506003816004811115612926576129266137a2565b03612979576000828060200190518101906129419190613e4c565b9150506129518160000151611d73565b8051604051908152600080516020613f8b8339815191529060200160405180910390a1505050565b600081600481111561298d5761298d6137a2565b036129b4576000828060200190518101906129a89190613e8f565b915050611d6e81612bf8565b60048160048111156129c8576129c86137a2565b03612a23576000828060200190518101906129e39190613efa565b9150506129f38160000151612d22565b80516040517f7c9a2d2ec51230d7dbed27f113a325b7e20aef7b049e68b2339257b5edff5bea9161139d91613101565b5050565b600054610100900460ff16612a4e5760405162461bcd60e51b815260040161093890613d4e565b612a56612d58565b610b1181612d88565b6060611b8d8484600085612dd1565b6000808251604103612aa45760208301516040840151606085015160001a612a9887828585612eac565b94509450505050612aac565b506000905060025b9250929050565b6000816004811115612ac757612ac76137a2565b03612acf5750565b6001816004811115612ae357612ae36137a2565b03612b2b5760405162461bcd60e51b815260206004820152601860248201527745434453413a20696e76616c6964207369676e617475726560401b6044820152606401610938565b6002816004811115612b3f57612b3f6137a2565b03612b8c5760405162461bcd60e51b815260206004820152601f60248201527f45434453413a20696e76616c6964207369676e6174757265206c656e677468006044820152606401610938565b6003816004811115612ba057612ba06137a2565b03610b115760405162461bcd60e51b815260206004820152602260248201527f45434453413a20696e76616c6964207369676e6174757265202773272076616c604482015261756560f01b6064820152608401610938565b602080820151600090815260cf909152604090205460ff1615612c5d5760405162461bcd60e51b815260206004820152601e60248201527f4261736553747261746567793a3a416c726561647957697468647261776e00006044820152606401610938565b600080612c6d836000015161280b565b91509150600060016040518060800160405280306001600160a01b031681526020018581526020018481526020018660200151815250604051602001612cb4929190613f48565b60408051601f1981840301815291905290508215612cf55760cb54612cf090849061ffff600160a01b820416906001600160a01b031684611f22565b612cfe565b612cfe81612010565b505050602090810151600090815260cf90915260409020805460ff19166001179055565b60ca546040516370a0823160e01b8152610b119183916001600160a01b03909116906370a08231906111b7903090600401613101565b600054610100900460ff16612d7f5760405162461bcd60e51b815260040161093890613d4e565b6110cd336122a6565b600054610100900460ff16612daf5760405162461bcd60e51b815260040161093890613d4e565b606580546001600160a01b0319166001600160a01b0392909216919091179055565b606082471015612e325760405162461bcd60e51b815260206004820152602660248201527f416464726573733a20696e73756666696369656e742062616c616e636520666f6044820152651c8818d85b1b60d21b6064820152608401610938565b600080866001600160a01b03168587604051612e4e91906139cb565b60006040518083038185875af1925050503d8060008114612e8b576040519150601f19603f3d011682016040523d82523d6000602084013e612e90565b606091505b5091509150612ea187838387612f63565b979650505050505050565b6000806fa2a8918ca85bafe22016d0b997e4df60600160ff1b03831115612ed9575060009050600361266a565b6040805160008082526020820180845289905260ff881692820192909252606081018690526080810185905260019060a0016020604051602081039080840390855afa158015612f2d573d6000803e3d6000fd5b5050604051601f1901519150506001600160a01b038116612f565760006001925092505061266a565b9660009650945050505050565b60608315612fd0578251600003612fc957612f7d85612405565b612fc95760405162461bcd60e51b815260206004820152601d60248201527f416464726573733a2063616c6c20746f206e6f6e2d636f6e74726163740000006044820152606401610938565b5081611b8d565b611b8d8383815115612fe55781518083602001fd5b8060405162461bcd60e51b81526004016109389190613165565b803561ffff8116811461301157600080fd5b919050565b60008083601f84011261302857600080fd5b5081356001600160401b0381111561303f57600080fd5b602083019150836020828501011115612aac57600080fd5b80356001600160401b038116811461301157600080fd5b6000806000806000806080878903121561308757600080fd5b61309087612fff565b955060208701356001600160401b03808211156130ac57600080fd5b6130b88a838b01613016565b90975095508591506130cc60408a01613057565b945060608901359150808211156130e257600080fd5b506130ef89828a01613016565b979a9699509497509295939492505050565b6001600160a01b0391909116815260200190565b60005b83811015613130578181015183820152602001613118565b50506000910152565b60008151808452613151816020860160208601613115565b601f01601f19169290920160200192915050565b60208152600061131a6020830184613139565b60006020828403121561318a57600080fd5b61131a82612fff565b600080604083850312156131a657600080fd5b6131af83612fff565b946020939093013593505050565b6001600160a01b0381168114610b1157600080fd5b6000602082840312156131e457600080fd5b813561131a816131bd565b60006020828403121561320157600080fd5b5035919050565b60008060006040848603121561321d57600080fd5b61322684612fff565b925060208401356001600160401b0381111561324157600080fd5b61324d86828701613016565b9497909650939450505050565b8015158114610b1157600080fd5b60006020828403121561327a57600080fd5b813561131a8161325a565b634e487b7160e01b600052604160045260246000fd5b604051602081016001600160401b03811182821017156132bd576132bd613285565b60405290565b604051601f8201601f191681016001600160401b03811182821017156132eb576132eb613285565b604052919050565b60006001600160401b0382111561330c5761330c613285565b50601f01601f191660200190565b600082601f83011261332b57600080fd5b813561333e613339826132f3565b6132c3565b81815284602083860101111561335357600080fd5b816020850160208301376000918101602001919091529392505050565b600080600080600060a0868803121561338857600080fd5b8535945060208601359350604086013592506060860135915060808601356001600160401b038111156133ba57600080fd5b6133c68882890161331a565b9150509295509295909350565b6000806000606084860312156133e857600080fd5b6133f184612fff565b925060208401356001600160401b0381111561340c57600080fd5b6134188682870161331a565b92505061342760408501613057565b90509250925092565b6000806040838503121561344357600080fd5b61344c83612fff565b915061345a60208401612fff565b90509250929050565b60008060008060008060c0878903121561347c57600080fd5b61348587612fff565b955060208701356001600160401b03808211156134a157600080fd5b6134ad8a838b0161331a565b965060408901359550606089013591506134c6826131bd565b9093506080880135925060a088013590808211156134e357600080fd5b506134f089828a0161331a565b9150509295509295509295565b60008060008060008060008060006101208a8c03121561351c57600080fd5b8935613527816131bd565b985060208a0135613537816131bd565b975060408a0135613547816131bd565b965060608a0135613557816131bd565b955061356560808b01612fff565b945061357360a08b01612fff565b935060c08a0135613583816131bd565b925060e08a0135613593816131bd565b809250506101008a013590509295985092959850929598565b6000806000806000608086880312156135c457600080fd5b6135cd86612fff565b94506135db60208701612fff565b93506040860135925060608601356001600160401b038111156135fd57600080fd5b61360988828901613016565b969995985093965092949392505050565b60008060006060848603121561362f57600080fd5b61363884612fff565b925061364660208501612fff565b9150604084013590509250925092565b6000806000806080858703121561366c57600080fd5b61367585612fff565b935061368360208601612fff565b92506040850135613693816131bd565b9396929550929360600135925050565b6000602082840312156136b557600080fd5b5051919050565b600181811c908216806136d057607f821691505b6020821081036136f057634e487b7160e01b600052602260045260246000fd5b50919050565b8183823760009101908152919050565b81835281816020850137506000828201602090810191909152601f909101601f19169091010190565b61ffff84168152604060208201526000611b8a604083018486613706565b634e487b7160e01b600052601160045260246000fd5b818103818111156128055761280561374d565b808201808211156128055761280561374d565b60006001820161379b5761379b61374d565b5060010190565b634e487b7160e01b600052602160045260246000fd5b600581106137d657634e487b7160e01b600052602160045260246000fd5b9052565b6137e481846137b8565b604060208201526138016040820183516001600160a01b03169052565b6020820151606082015260408201516080820152606082015160a0820152608082015160c082015260a082015160e0820152600060c0830151610100818185015260e0850151915061012082818601528186015192506101409150828286015280860151925050610160828186015281860151925080610180860152505061388d6101a0840182613139565b95945050505050565b8284823760609190911b6001600160601b0319169101908152601401919050565b601f821115611d6e57600081815260208120601f850160051c810160208610156138de5750805b601f850160051c820191505b818110156109b7578281556001016138ea565b600019600383901b1c191660019190911b1790565b81516001600160401b0381111561392b5761392b613285565b61393f8161393984546136bc565b846138b7565b602080601f83116001811461396e576000841561395c5750858301515b61396685826138fd565b8655506109b7565b600085815260208120601f198616915b8281101561399d5788860151825594840194600190910190840161397e565b50858210156139bb5787850151600019600388901b60f8161c191681555b5050505050600190811b01905550565b600082516139dd818460208701613115565b9190910192915050565b805160208201516001600160601b03198082169291906014831015613a165780818460140360031b1b83161693505b505050919050565b600061ffff808816835280871660208401525084604083015260806060830152612ea1608083018486613706565b61ffff86168152608060208201526000613a6a608083018688613706565b6001600160401b0394909416604083015250606001529392505050565b6001600160401b03831115613a9e57613a9e613285565b613ab283613aac83546136bc565b836138b7565b6000601f841160018114613ae05760008515613ace5750838201355b613ad886826138fd565b845550610a25565b600083815260209020601f19861690835b82811015613b115786850135825560209485019460019092019101613af1565b5086821015613b2e5760001960f88860031b161c19848701351681555b505060018560011b0183555050505050565b600060208284031215613b5257600080fd5b81516001600160401b03811115613b6857600080fd5b8201601f81018413613b7957600080fd5b8051613b87613339826132f3565b818152856020838501011115613b9c57600080fd5b61388d826020830160208601613115565b61ffff85168152608060208201526000613bca6080830186613139565b6001600160401b03851660408401528281036060840152612ea18185613139565b6001600160a01b03929092168252602082015260400190565b61ffff841681526001600160a01b0383166020820152606060408201819052600090611b8a90830184613139565b6001600160a01b0386811682526020820186905261ffff851660408301528316606082015260a060808201819052600090612ea190830184613139565b61ffff861681526001600160a01b038516602082015260a060408201819052600090613c9d90830186613139565b84151560608401528281036080840152613cb78185613139565b98975050505050505050565b60008060408385031215613cd657600080fd5b505080516020909101519092909150565b61ffff8716815260c060208201526000613d0460c0830188613139565b8281036040840152613d168188613139565b6001600160a01b0387811660608601528616608085015283810360a08501529050613d418185613139565b9998505050505050505050565b6020808252602b908201527f496e697469616c697a61626c653a20636f6e7472616374206973206e6f74206960408201526a6e697469616c697a696e6760a81b606082015260800190565b600060208284031215613dab57600080fd5b815160ff8116811461131a57600080fd5b600060208284031215613dce57600080fd5b815161131a8161325a565b61ffff8616815260a060208201526000613df660a0830187613139565b6001600160401b03861660408401528281036060840152613e178186613139565b90508281036080840152613cb78185613139565b600060208284031215613e3d57600080fd5b81516005811061131a57600080fd5b6000808284036040811215613e6057600080fd5b835192506020601f1982011215613e7657600080fd5b50613e7f61329b565b6020939093015183525092909150565b6000808284036060811215613ea357600080fd5b835192506040601f1982011215613eb957600080fd5b50604080519081016001600160401b0381118282101715613edc57613edc613285565b60409081526020858101518352940151938101939093525092909150565b6000808284036040811215613f0e57600080fd5b835192506020601f1982011215613f2457600080fd5b50613f2d61329b565b6020840151613f3b816131bd565b8152919491935090915050565b60a08101613f5682856137b8565b60018060a01b038351166020830152602083015160408301526040830151606083015260608301516080830152939250505056feb0c58532a125fc3c0adccaef396bf65344a4d5781cec2e4c593e6b611d75f150a264697066735822122007f5840b8db54b6e44ef8fa7905a8ed3315f4ce406749568756478b8bbcc6e0e64736f6c63430008130033",
  "linkReferences": {},
  "deployedLinkReferences": {}
}