{
  "_format": "hh-sol-artifact-1",
  "contractName": "TestStrategy",
  "sourceName": "contracts/mock/TestStrategy.sol",
  "abi": [
    {
      "inputs": [
        {
          "internalType": "uint256",
          "name": "messageType",
          "type": "uint256"
        }
      ],
      "name": "IncorrectMessageType",
      "type": "error"
    },
    {
      "inputs": [
        {
          "internalType": "uint256",
          "name": "amount",
          "type": "uint256"
        },
        {
          "internalType": "uint256",
          "name": "balance",
          "type": "uint256"
        }
      ],
      "name": "InsufficientFunds",
      "type": "error"
    },
    {
      "anonymous": false,
      "inputs": [
        {
          "indexed": false,
          "internalType": "uint256",
          "name": "debtOutstanding",
          "type": "uint256"
        }
      ],
      "name": "AdjustedPosition",
      "type": "event"
    },
    {
      "anonymous": false,
      "inputs": [
        {
          "indexed": false,
          "internalType": "uint8",
          "name": "version",
          "type": "uint8"
        }
      ],
      "name": "Initialized",
      "type": "event"
    },
    {
      "anonymous": false,
      "inputs": [
        {
          "indexed": false,
          "internalType": "uint16",
          "name": "_srcChainId",
          "type": "uint16"
        },
        {
          "indexed": false,
          "internalType": "bytes",
          "name": "_srcAddress",
          "type": "bytes"
        },
        {
          "indexed": false,
          "internalType": "uint64",
          "name": "_nonce",
          "type": "uint64"
        },
        {
          "indexed": false,
          "internalType": "bytes",
          "name": "_payload",
          "type": "bytes"
        },
        {
          "indexed": false,
          "internalType": "bytes",
          "name": "_reason",
          "type": "bytes"
        }
      ],
      "name": "MessageFailed",
      "type": "event"
    },
    {
      "anonymous": false,
      "inputs": [
        {
          "indexed": true,
          "internalType": "address",
          "name": "previousOwner",
          "type": "address"
        },
        {
          "indexed": true,
          "internalType": "address",
          "name": "newOwner",
          "type": "address"
        }
      ],
      "name": "OwnershipTransferred",
      "type": "event"
    },
    {
      "anonymous": false,
      "inputs": [
        {
          "indexed": false,
          "internalType": "uint16",
          "name": "_srcChainId",
          "type": "uint16"
        },
        {
          "indexed": false,
          "internalType": "bytes",
          "name": "_srcAddress",
          "type": "bytes"
        },
        {
          "indexed": false,
          "internalType": "uint64",
          "name": "_nonce",
          "type": "uint64"
        },
        {
          "indexed": false,
          "internalType": "bytes32",
          "name": "_payloadHash",
          "type": "bytes32"
        }
      ],
      "name": "RetryMessageSuccess",
      "type": "event"
    },
    {
      "anonymous": false,
      "inputs": [
        {
          "indexed": false,
          "internalType": "uint16",
          "name": "_dstChainId",
          "type": "uint16"
        },
        {
          "indexed": false,
          "internalType": "uint16",
          "name": "_type",
          "type": "uint16"
        },
        {
          "indexed": false,
          "internalType": "uint256",
          "name": "_minDstGas",
          "type": "uint256"
        }
      ],
      "name": "SetMinDstGas",
      "type": "event"
    },
    {
      "anonymous": false,
      "inputs": [
        {
          "indexed": false,
          "internalType": "address",
          "name": "precrime",
          "type": "address"
        }
      ],
      "name": "SetPrecrime",
      "type": "event"
    },
    {
      "anonymous": false,
      "inputs": [
        {
          "indexed": false,
          "internalType": "uint16",
          "name": "_remoteChainId",
          "type": "uint16"
        },
        {
          "indexed": false,
          "internalType": "bytes",
          "name": "_path",
          "type": "bytes"
        }
      ],
      "name": "SetTrustedRemote",
      "type": "event"
    },
    {
      "anonymous": false,
      "inputs": [
        {
          "indexed": false,
          "internalType": "uint16",
          "name": "_remoteChainId",
          "type": "uint16"
        },
        {
          "indexed": false,
          "internalType": "bytes",
          "name": "_remoteAddress",
          "type": "bytes"
        }
      ],
      "name": "SetTrustedRemoteAddress",
      "type": "event"
    },
    {
      "anonymous": false,
      "inputs": [
        {
          "indexed": true,
          "internalType": "address",
          "name": "token",
          "type": "address"
        },
        {
          "indexed": false,
          "internalType": "uint256",
          "name": "amount",
          "type": "uint256"
        },
        {
          "indexed": false,
          "internalType": "address",
          "name": "sender",
          "type": "address"
        }
      ],
      "name": "SgReceived",
      "type": "event"
    },
    {
      "anonymous": false,
      "inputs": [
        {
          "indexed": false,
          "internalType": "address",
          "name": "newStrategy",
          "type": "address"
        }
      ],
      "name": "StrategyMigrated",
      "type": "event"
    },
    {
      "anonymous": false,
      "inputs": [
        {
          "indexed": false,
          "internalType": "uint256",
          "name": "profit",
          "type": "uint256"
        },
        {
          "indexed": false,
          "internalType": "uint256",
          "name": "loss",
          "type": "uint256"
        },
        {
          "indexed": false,
          "internalType": "uint256",
          "name": "debtPayment",
          "type": "uint256"
        },
        {
          "indexed": false,
          "internalType": "uint256",
          "name": "giveToStrategy",
          "type": "uint256"
        },
        {
          "indexed": false,
          "internalType": "uint256",
          "name": "requestFromStrategy",
          "type": "uint256"
        },
        {
          "indexed": false,
          "internalType": "uint256",
          "name": "creditAvailable",
          "type": "uint256"
        },
        {
          "indexed": false,
          "internalType": "uint256",
          "name": "totalAssets",
          "type": "uint256"
        }
      ],
      "name": "StrategyReported",
      "type": "event"
    },
    {
      "inputs": [],
      "name": "DEFAULT_PAYLOAD_SIZE_LIMIT",
      "outputs": [
        {
          "internalType": "uint256",
          "name": "",
          "type": "uint256"
        }
      ],
      "stateMutability": "view",
      "type": "function"
    },
    {
      "inputs": [
        {
          "internalType": "uint256",
          "name": "_debtOutstanding",
          "type": "uint256"
        }
      ],
      "name": "adjustPosition",
      "outputs": [],
      "stateMutability": "nonpayable",
      "type": "function"
    },
    {
      "inputs": [],
      "name": "balanceOfWant",
      "outputs": [
        {
          "internalType": "uint256",
          "name": "",
          "type": "uint256"
        }
      ],
      "stateMutability": "view",
      "type": "function"
    },
    {
      "inputs": [],
      "name": "callMe",
      "outputs": [],
      "stateMutability": "nonpayable",
      "type": "function"
    },
    {
      "inputs": [],
      "name": "clearWant",
      "outputs": [],
      "stateMutability": "nonpayable",
      "type": "function"
    },
    {
      "inputs": [],
      "name": "currentChainId",
      "outputs": [
        {
          "internalType": "uint16",
          "name": "",
          "type": "uint16"
        }
      ],
      "stateMutability": "view",
      "type": "function"
    },
    {
      "inputs": [],
      "name": "emergencyExit",
      "outputs": [
        {
          "internalType": "bool",
          "name": "",
          "type": "bool"
        }
      ],
      "stateMutability": "view",
      "type": "function"
    },
    {
      "inputs": [],
      "name": "estimatedTotalAssets",
      "outputs": [
        {
          "internalType": "uint256",
          "name": "",
          "type": "uint256"
        }
      ],
      "stateMutability": "view",
      "type": "function"
    },
    {
      "inputs": [
        {
          "internalType": "uint16",
          "name": "",
          "type": "uint16"
        },
        {
          "internalType": "bytes",
          "name": "",
          "type": "bytes"
        },
        {
          "internalType": "uint64",
          "name": "",
          "type": "uint64"
        }
      ],
      "name": "failedMessages",
      "outputs": [
        {
          "internalType": "bytes32",
          "name": "",
          "type": "bytes32"
        }
      ],
      "stateMutability": "view",
      "type": "function"
    },
    {
      "inputs": [
        {
          "internalType": "uint16",
          "name": "_srcChainId",
          "type": "uint16"
        },
        {
          "internalType": "bytes",
          "name": "_srcAddress",
          "type": "bytes"
        }
      ],
      "name": "forceResumeReceive",
      "outputs": [],
      "stateMutability": "nonpayable",
      "type": "function"
    },
    {
      "inputs": [
        {
          "internalType": "uint16",
          "name": "_version",
          "type": "uint16"
        },
        {
          "internalType": "uint16",
          "name": "_chainId",
          "type": "uint16"
        },
        {
          "internalType": "address",
          "name": "",
          "type": "address"
        },
        {
          "internalType": "uint256",
          "name": "_configType",
          "type": "uint256"
        }
      ],
      "name": "getConfig",
      "outputs": [
        {
          "internalType": "bytes",
          "name": "",
          "type": "bytes"
        }
      ],
      "stateMutability": "view",
      "type": "function"
    },
    {
      "inputs": [
        {
          "internalType": "bytes32",
          "name": "_messageHash",
          "type": "bytes32"
        }
      ],
      "name": "getEthSignedMessageHash",
      "outputs": [
        {
          "internalType": "bytes32",
          "name": "",
          "type": "bytes32"
        }
      ],
      "stateMutability": "pure",
      "type": "function"
    },
    {
      "inputs": [
        {
          "internalType": "uint16",
          "name": "_remoteChainId",
          "type": "uint16"
        }
      ],
      "name": "getTrustedRemoteAddress",
      "outputs": [
        {
          "internalType": "bytes",
          "name": "",
          "type": "bytes"
        }
      ],
      "stateMutability": "view",
      "type": "function"
    },
    {
      "inputs": [
        {
          "internalType": "uint256",
          "name": "_totalDebt",
          "type": "uint256"
        },
        {
          "internalType": "uint256",
          "name": "_debtOutstanding",
          "type": "uint256"
        },
        {
          "internalType": "uint256",
          "name": "_creditAvailable",
          "type": "uint256"
        },
        {
          "internalType": "uint256",
          "name": "_debtRatio",
          "type": "uint256"
        },
        {
          "internalType": "bytes",
          "name": "_signature",
          "type": "bytes"
        }
      ],
      "name": "harvest",
      "outputs": [],
      "stateMutability": "nonpayable",
      "type": "function"
    },
    {
      "inputs": [
        {
          "internalType": "address",
          "name": "_lzEndpoint",
          "type": "address"
        },
        {
          "internalType": "address",
          "name": "_strategist",
          "type": "address"
        },
        {
          "internalType": "contract IERC20",
          "name": "_want",
          "type": "address"
        },
        {
          "internalType": "address",
          "name": "_vault",
          "type": "address"
        },
        {
          "internalType": "uint16",
          "name": "_vaultChainId",
          "type": "uint16"
        },
        {
          "internalType": "uint16",
          "name": "_currentChainId",
          "type": "uint16"
        },
        {
          "internalType": "address",
          "name": "_sgBridge",
          "type": "address"
        },
        {
          "internalType": "address",
          "name": "_sgRouter",
          "type": "address"
        },
        {
          "internalType": "uint256",
          "name": "_slippage",
          "type": "uint256"
        }
      ],
      "name": "initialize",
      "outputs": [],
      "stateMutability": "nonpayable",
      "type": "function"
    },
    {
      "inputs": [
        {
          "internalType": "uint16",
          "name": "_srcChainId",
          "type": "uint16"
        },
        {
          "internalType": "bytes",
          "name": "_srcAddress",
          "type": "bytes"
        }
      ],
      "name": "isTrustedRemote",
      "outputs": [
        {
          "internalType": "bool",
          "name": "",
          "type": "bool"
        }
      ],
      "stateMutability": "view",
      "type": "function"
    },
    {
      "inputs": [],
      "name": "lzEndpoint",
      "outputs": [
        {
          "internalType": "contract ILayerZeroEndpointUpgradeable",
          "name": "",
          "type": "address"
        }
      ],
      "stateMutability": "view",
      "type": "function"
    },
    {
      "inputs": [
        {
          "internalType": "uint16",
          "name": "_srcChainId",
          "type": "uint16"
        },
        {
          "internalType": "bytes",
          "name": "_srcAddress",
          "type": "bytes"
        },
        {
          "internalType": "uint64",
          "name": "_nonce",
          "type": "uint64"
        },
        {
          "internalType": "bytes",
          "name": "_payload",
          "type": "bytes"
        }
      ],
      "name": "lzReceive",
      "outputs": [],
      "stateMutability": "nonpayable",
      "type": "function"
    },
    {
      "inputs": [
        {
          "internalType": "uint16",
          "name": "",
          "type": "uint16"
        },
        {
          "internalType": "uint16",
          "name": "",
          "type": "uint16"
        }
      ],
      "name": "minDstGasLookup",
      "outputs": [
        {
          "internalType": "uint256",
          "name": "",
          "type": "uint256"
        }
      ],
      "stateMutability": "view",
      "type": "function"
    },
    {
      "inputs": [],
      "name": "name",
      "outputs": [
        {
          "internalType": "string",
          "name": "",
          "type": "string"
        }
      ],
      "stateMutability": "pure",
      "type": "function"
    },
    {
      "inputs": [
        {
          "internalType": "uint16",
          "name": "_srcChainId",
          "type": "uint16"
        },
        {
          "internalType": "bytes",
          "name": "_srcAddress",
          "type": "bytes"
        },
        {
          "internalType": "uint64",
          "name": "_nonce",
          "type": "uint64"
        },
        {
          "internalType": "bytes",
          "name": "_payload",
          "type": "bytes"
        }
      ],
      "name": "nonblockingLzReceive",
      "outputs": [],
      "stateMutability": "nonpayable",
      "type": "function"
    },
    {
      "inputs": [],
      "name": "owner",
      "outputs": [
        {
          "internalType": "address",
          "name": "",
          "type": "address"
        }
      ],
      "stateMutability": "view",
      "type": "function"
    },
    {
      "inputs": [
        {
          "internalType": "uint16",
          "name": "",
          "type": "uint16"
        }
      ],
      "name": "payloadSizeLimitLookup",
      "outputs": [
        {
          "internalType": "uint256",
          "name": "",
          "type": "uint256"
        }
      ],
      "stateMutability": "view",
      "type": "function"
    },
    {
      "inputs": [],
      "name": "precrime",
      "outputs": [
        {
          "internalType": "address",
          "name": "",
          "type": "address"
        }
      ],
      "stateMutability": "view",
      "type": "function"
    },
    {
      "inputs": [],
      "name": "renounceOwnership",
      "outputs": [],
      "stateMutability": "nonpayable",
      "type": "function"
    },
    {
      "inputs": [
        {
          "internalType": "uint16",
          "name": "_srcChainId",
          "type": "uint16"
        },
        {
          "internalType": "bytes",
          "name": "_srcAddress",
          "type": "bytes"
        },
        {
          "internalType": "uint64",
          "name": "_nonce",
          "type": "uint64"
        },
        {
          "internalType": "bytes",
          "name": "_payload",
          "type": "bytes"
        }
      ],
      "name": "retryMessage",
      "outputs": [],
      "stateMutability": "payable",
      "type": "function"
    },
    {
      "inputs": [],
      "name": "revokeFunds",
      "outputs": [],
      "stateMutability": "nonpayable",
      "type": "function"
    },
    {
      "inputs": [
        {
          "internalType": "uint16",
          "name": "_version",
          "type": "uint16"
        },
        {
          "internalType": "uint16",
          "name": "_chainId",
          "type": "uint16"
        },
        {
          "internalType": "uint256",
          "name": "_configType",
          "type": "uint256"
        },
        {
          "internalType": "bytes",
          "name": "_config",
          "type": "bytes"
        }
      ],
      "name": "setConfig",
      "outputs": [],
      "stateMutability": "nonpayable",
      "type": "function"
    },
    {
      "inputs": [
        {
          "internalType": "bool",
          "name": "_emergencyExit",
          "type": "bool"
        }
      ],
      "name": "setEmergencyExit",
      "outputs": [],
      "stateMutability": "nonpayable",
      "type": "function"
    },
    {
      "inputs": [
        {
          "internalType": "uint16",
          "name": "_dstChainId",
          "type": "uint16"
        },
        {
          "internalType": "uint16",
          "name": "_packetType",
          "type": "uint16"
        },
        {
          "internalType": "uint256",
          "name": "_minGas",
          "type": "uint256"
        }
      ],
      "name": "setMinDstGas",
      "outputs": [],
      "stateMutability": "nonpayable",
      "type": "function"
    },
    {
      "inputs": [
        {
          "internalType": "uint16",
          "name": "_dstChainId",
          "type": "uint16"
        },
        {
          "internalType": "uint256",
          "name": "_size",
          "type": "uint256"
        }
      ],
      "name": "setPayloadSizeLimit",
      "outputs": [],
      "stateMutability": "nonpayable",
      "type": "function"
    },
    {
      "inputs": [
        {
          "internalType": "address",
          "name": "_precrime",
          "type": "address"
        }
      ],
      "name": "setPrecrime",
      "outputs": [],
      "stateMutability": "nonpayable",
      "type": "function"
    },
    {
      "inputs": [
        {
          "internalType": "uint16",
          "name": "_version",
          "type": "uint16"
        }
      ],
      "name": "setReceiveVersion",
      "outputs": [],
      "stateMutability": "nonpayable",
      "type": "function"
    },
    {
      "inputs": [
        {
          "internalType": "uint16",
          "name": "_version",
          "type": "uint16"
        }
      ],
      "name": "setSendVersion",
      "outputs": [],
      "stateMutability": "nonpayable",
      "type": "function"
    },
    {
      "inputs": [
        {
          "internalType": "uint256",
          "name": "_slippage",
          "type": "uint256"
        }
      ],
      "name": "setSlippage",
      "outputs": [],
      "stateMutability": "nonpayable",
      "type": "function"
    },
    {
      "inputs": [
        {
          "internalType": "uint16",
          "name": "_srcChainId",
          "type": "uint16"
        },
        {
          "internalType": "bytes",
          "name": "_path",
          "type": "bytes"
        }
      ],
      "name": "setTrustedRemote",
      "outputs": [],
      "stateMutability": "nonpayable",
      "type": "function"
    },
    {
      "inputs": [
        {
          "internalType": "uint16",
          "name": "_remoteChainId",
          "type": "uint16"
        },
        {
          "internalType": "bytes",
          "name": "_remoteAddress",
          "type": "bytes"
        }
      ],
      "name": "setTrustedRemoteAddress",
      "outputs": [],
      "stateMutability": "nonpayable",
      "type": "function"
    },
    {
      "inputs": [],
      "name": "sgBridge",
      "outputs": [
        {
          "internalType": "contract ISgBridge",
          "name": "",
          "type": "address"
        }
      ],
      "stateMutability": "view",
      "type": "function"
    },
    {
      "inputs": [
        {
          "internalType": "uint16",
          "name": "",
          "type": "uint16"
        },
        {
          "internalType": "bytes",
          "name": "_srcAddress",
          "type": "bytes"
        },
        {
          "internalType": "uint256",
          "name": "",
          "type": "uint256"
        },
        {
          "internalType": "address",
          "name": "_token",
          "type": "address"
        },
        {
          "internalType": "uint256",
          "name": "_amountLD",
          "type": "uint256"
        },
        {
          "internalType": "bytes",
          "name": "",
          "type": "bytes"
        }
      ],
      "name": "sgReceive",
      "outputs": [],
      "stateMutability": "nonpayable",
      "type": "function"
    },
    {
      "inputs": [],
      "name": "sgRouter",
      "outputs": [
        {
          "internalType": "contract IStargateRouter",
          "name": "",
          "type": "address"
        }
      ],
      "stateMutability": "view",
      "type": "function"
    },
    {
      "inputs": [],
      "name": "slippage",
      "outputs": [
        {
          "internalType": "uint256",
          "name": "",
          "type": "uint256"
        }
      ],
      "stateMutability": "view",
      "type": "function"
    },
    {
      "inputs": [],
      "name": "strategist",
      "outputs": [
        {
          "internalType": "address",
          "name": "",
          "type": "address"
        }
      ],
      "stateMutability": "view",
      "type": "function"
    },
    {
      "inputs": [],
      "name": "strategistSignMessageHash",
      "outputs": [
        {
          "internalType": "bytes32",
          "name": "",
          "type": "bytes32"
        }
      ],
      "stateMutability": "view",
      "type": "function"
    },
    {
      "inputs": [
        {
          "internalType": "contract IERC20",
          "name": "_token",
          "type": "address"
        }
      ],
      "name": "sweepToken",
      "outputs": [],
      "stateMutability": "nonpayable",
      "type": "function"
    },
    {
      "inputs": [
        {
          "internalType": "address",
          "name": "newOwner",
          "type": "address"
        }
      ],
      "name": "transferOwnership",
      "outputs": [],
      "stateMutability": "nonpayable",
      "type": "function"
    },
    {
      "inputs": [
        {
          "internalType": "uint16",
          "name": "",
          "type": "uint16"
        }
      ],
      "name": "trustedRemoteLookup",
      "outputs": [
        {
          "internalType": "bytes",
          "name": "",
          "type": "bytes"
        }
      ],
      "stateMutability": "view",
      "type": "function"
    },
    {
      "inputs": [],
      "name": "vault",
      "outputs": [
        {
          "internalType": "address",
          "name": "",
          "type": "address"
        }
      ],
      "stateMutability": "view",
      "type": "function"
    },
    {
      "inputs": [],
      "name": "vaultChainId",
      "outputs": [
        {
          "internalType": "uint16",
          "name": "",
          "type": "uint16"
        }
      ],
      "stateMutability": "view",
      "type": "function"
    },
    {
      "inputs": [],
      "name": "want",
      "outputs": [
        {
          "internalType": "contract IERC20",
          "name": "",
          "type": "address"
        }
      ],
      "stateMutability": "view",
      "type": "function"
    },
    {
      "inputs": [],
      "name": "wantDecimals",
      "outputs": [
        {
          "internalType": "uint8",
          "name": "",
          "type": "uint8"
        }
      ],
      "stateMutability": "view",
      "type": "function"
    },
    {
      "stateMutability": "payable",
      "type": "receive"
    }
  ],
  "bytecode": "0x608060405234801561001057600080fd5b50613fac806100206000396000f3fe60806040526004361061023c5760003560e01c80621d3567146102485780630517cb761461026a57806306fdde03146102a057806307e0db17146102de5780630df37483146102fe57806310ddb1371461031e5780631be195601461033e5780631f1fcd511461035e5780631fe4a6861461037e5780632d6068431461039e57806337fded91146103b35780633d3ccc2f146103d85780633d8b38f6146103f85780633e032a3b146104285780633f1f4fa41461044c57806342d65a8d1461047957806345ee075514610499578063495f881e146104b95780635641ec03146104d9578063567ad85d146104f3578063593178de146105285780635b8c41e61461053d57806366ad5c8a1461058c5780636cbadbfa146105ac578063715018a6146105ce5780637533d788146105e35780638cfd8f5c146106035780638da5cb5b1461063b578063950c8a74146106505780639606647d146106705780639f38369a14610685578063a6c3d165146106a5578063ab8236f3146106c5578063adf076e6146106e5578063b0bea72514610718578063b353aaa714610724578063baf3292d14610744578063c1a3d44c14610764578063c446183414610779578063c9dd180b1461078f578063cbed8b9c146107af578063d1deba1f146107cf578063df2a5b3b146107e2578063eb8d72b714610802578063efbb5cb014610764578063f0fa55a914610822578063f2fde38b14610842578063f5ecbdbc14610862578063fa54080114610882578063fbfa77cf146108a257600080fd5b3661024357005b600080fd5b34801561025457600080fd5b5061026861026336600461303a565b6108c2565b005b34801561027657600080fd5b5060ce5461028a906001600160a01b031681565b60405161029791906130cd565b60405180910390f35b3480156102ac57600080fd5b5060408051808201909152600c81526b54657374537472617465677960a01b60208201525b6040516102979190613131565b3480156102ea57600080fd5b506102686102f9366004613144565b6109ab565b34801561030a57600080fd5b5061026861031936600461315f565b610a18565b34801561032a57600080fd5b50610268610339366004613144565b610a37565b34801561034a57600080fd5b5061026861035936600461319e565b610a73565b34801561036a57600080fd5b5060ca5461028a906001600160a01b031681565b34801561038a57600080fd5b5060c95461028a906001600160a01b031681565b3480156103aa57600080fd5b50610268610b00565b3480156103bf57600080fd5b5060cd5461028a9061010090046001600160a01b031681565b3480156103e457600080fd5b506102686103f33660046131bb565b610b41565b34801561040457600080fd5b506104186104133660046131d4565b610b77565b6040519015158152602001610297565b34801561043457600080fd5b5061043e60cc5481565b604051908152602001610297565b34801561045857600080fd5b5061043e610467366004613144565b60686020526000908152604090205481565b34801561048557600080fd5b506102686104943660046131d4565b610c43565b3480156104a557600080fd5b506102686104b4366004613234565b610cb6565b3480156104c557600080fd5b506102686104d436600461333c565b610cd1565b3480156104e557600080fd5b5060cd546104189060ff1681565b3480156104ff57600080fd5b5060cb5461051590600160a01b900461ffff1681565b60405161ffff9091168152602001610297565b34801561053457600080fd5b5061043e610f75565b34801561054957600080fd5b5061043e61055836600461339f565b6097602090815260009384526040808520845180860184018051928152908401958401959095209452929052825290205481565b34801561059857600080fd5b506102686105a736600461303a565b610fd3565b3480156105b857600080fd5b5060cb5461051590600160b01b900461ffff1681565b3480156105da57600080fd5b506102686110a7565b3480156105ef57600080fd5b506102d16105fe366004613144565b6110bb565b34801561060f57600080fd5b5061043e61061e3660046133fc565b606760209081526000928352604080842090915290825290205481565b34801561064757600080fd5b5061028a611155565b34801561065c57600080fd5b5060695461028a906001600160a01b031681565b34801561067c57600080fd5b50610268611164565b34801561069157600080fd5b506102d16106a0366004613144565b6111f7565b3480156106b157600080fd5b506102686106c03660046131d4565b61130d565b3480156106d157600080fd5b506102686106e036600461342f565b611396565b3480156106f157600080fd5b5060cb5461070690600160c01b900460ff1681565b60405160ff9091168152602001610297565b34801561026857600080fd5b34801561073057600080fd5b5060655461028a906001600160a01b031681565b34801561075057600080fd5b5061026861075f36600461319e565b6114ba565b34801561077057600080fd5b5061043e61150d565b34801561078557600080fd5b5061043e61271081565b34801561079b57600080fd5b506102686107aa3660046134c9565b611584565b3480156107bb57600080fd5b506102686107ca366004613578565b6116ae565b6102686107dd36600461303a565b611727565b3480156107ee57600080fd5b506102686107fd3660046135e6565b61193d565b34801561080e57600080fd5b5061026861081d3660046131d4565b6119ef565b34801561082e57600080fd5b5061026861083d3660046131bb565b611a49565b34801561084e57600080fd5b5061026861085d36600461319e565b611a56565b34801561086e57600080fd5b506102d161087d366004613622565b611acc565b34801561088e57600080fd5b5061043e61089d3660046131bb565b611b61565b3480156108ae57600080fd5b5060cb5461028a906001600160a01b031681565b6065546001600160a01b0316331461092d5760405162461bcd60e51b815260206004820152602360248201527f4261736553747261746567793a3a496e76616c6964456e64706f696e7443616c6044820152623632b960e91b60648201526084015b60405180910390fd5b6109a38686868080601f01602080910402602001604051908101604052809392919081815260200183838082843760009201919091525050604080516020601f890181900481028201810190925287815289935091508790879081908401838280828437600092019190915250611bb392505050565b505050505050565b6109b3611c2c565b6065546040516307e0db1760e01b815261ffff831660048201526001600160a01b03909116906307e0db17906024015b600060405180830381600087803b1580156109fd57600080fd5b505af1158015610a11573d6000803e3d6000fd5b5050505050565b610a20611c2c565b61ffff909116600090815260686020526040902055565b610a3f611c2c565b6065546040516310ddb13760e01b815261ffff831660048201526001600160a01b03909116906310ddb137906024016109e3565b610a7b611c8b565b610afd33826001600160a01b03166370a08231306040518263ffffffff1660e01b8152600401610aab91906130cd565b602060405180830381865afa158015610ac8573d6000803e3d6000fd5b505050506040513d601f19601f82011682018060405250810190610aec919061366f565b6001600160a01b0384169190611ce4565b50565b610b08611c8b565b60c9546040516001600160a01b03909116904780156108fc02916000818181858888f19350505050158015610afd573d6000803e3d6000fd5b610b49611c8b565b610b5281611d3f565b604051818152600080516020613f57833981519152906020015b60405180910390a150565b61ffff831660009081526066602052604081208054829190610b9890613688565b80601f0160208091040260200160405190810160405280929190818152602001828054610bc490613688565b8015610c115780601f10610be657610100808354040283529160200191610c11565b820191906000526020600020905b815481529060010190602001808311610bf457829003601f168201915b505050505090508383604051610c289291906136c2565b60405180910390208180519060200120149150509392505050565b610c4b611c2c565b6065546040516342d65a8d60e01b81526001600160a01b03909116906342d65a8d90610c7f908690869086906004016136fb565b600060405180830381600087803b158015610c9957600080fd5b505af1158015610cad573d6000803e3d6000fd5b50505050505050565b610cbe611c8b565b60cd805460ff1916911515919091179055565b610cd9611c8b565b610ce281611d71565b60cd546000908190819060ff1615610d8e578415610d425760405162461bcd60e51b815260206004820152601e60248201527f4261736553747261746567793a3a44656274526174696f4e6f745a65726f00006044820152606401610924565b6000610d4c61150d565b905087811015610d6757610d60818961372f565b9250610d7c565b87811115610d7c57610d79888261372f565b93505b610d86838961372f565b915050610da0565b610d988888611df7565b919450925090505b6000610dac8285613742565b905060008088831015610dce57610dc3838a61372f565b915060009050610ddf565b60009150610ddc898461372f565b90505b6000604051806101600160405280306001600160a01b031681526020014281526020018881526020018781526020018681526020018481526020018381526020018b815260200183610e2f61150d565b610e39919061372f565b815260200160d06000815480929190610e5190613755565b90915550815260200189905290508115610eb15760cb54604051610eac91849161ffff600160a01b830416916001600160a01b031690610e989060029087906020016137a6565b604051602081830303815290604052611eee565b610edc565b610edc600282604051602001610ec89291906137a6565b604051602081830303815290604052611fdc565b7fb983e09c034e9c52b5e547cb0589967992b97717733f580cc5ad0afcdc4b522b8160400151826060015183608001518460a001518560c001518660e00151876101000151604051610f5f9796959493929190968752602087019590955260408601939093526060850191909152608084015260a083015260c082015260e00190565b60405180910390a1505050505050505050505050565b60d05460cb546040513060601b6001600160601b03191660208201526034810192909252600160b01b900460f01b6001600160f01b031916605482015260009060560160405160208183030381529060405280519060200120905090565b3330146110315760405162461bcd60e51b815260206004820152602660248201527f4e6f6e626c6f636b696e674c7a4170703a2063616c6c6572206d7573742062656044820152650204c7a4170760d41b6064820152608401610924565b6109a38686868080601f01602080910402602001604051908101604052809392919081815260200183838082843760009201919091525050604080516020601f89018190048102820181019092528781528993509150879087908190840183828082843760009201919091525061215c92505050565b6110af611c2c565b6110b96000612272565b565b606660205260009081526040902080546110d490613688565b80601f016020809104026020016040519081016040528092919081815260200182805461110090613688565b801561114d5780601f106111225761010080835404028352916020019161114d565b820191906000526020600020905b81548152906001019060200180831161113057829003601f168201915b505050505081565b6033546001600160a01b031690565b61116c611c8b565b60ca546040516370a0823160e01b81526110b9916001916001600160a01b03909116906370a08231906111a39030906004016130cd565b602060405180830381865afa1580156111c0573d6000803e3d6000fd5b505050506040513d601f19601f820116820180604052508101906111e4919061366f565b60ca546001600160a01b03169190611ce4565b61ffff811660009081526066602052604081208054606092919061121a90613688565b80601f016020809104026020016040519081016040528092919081815260200182805461124690613688565b80156112935780601f1061126857610100808354040283529160200191611293565b820191906000526020600020905b81548152906001019060200180831161127657829003601f168201915b5050505050905080516000036112eb5760405162461bcd60e51b815260206004820152601d60248201527f4c7a4170703a206e6f20747275737465642070617468207265636f72640000006044820152606401610924565b6113066000601483516112fe919061372f565b8391906122c4565b9392505050565b611315611c2c565b81813060405160200161132a93929190613862565b60408051601f1981840301815291815261ffff851660009081526066602052209061135590826138de565b507f8c0400cfe2d1199b1a725c78960bcc2a344d869b80590d0f2bd005db15a572ce838383604051611389939291906136fb565b60405180910390a1505050565b60ce546001600160a01b03163314806113be575060cd5461010090046001600160a01b031633145b6114095760405162461bcd60e51b815260206004820152601c60248201527b53674272696467653a3a526f757465724f724272696467654f6e6c7960201b6044820152606401610924565b60cb546000906001600160a01b0316331461145b5761142b86600060146122c4565b60405160200161143b9190613997565b604051602081830303815290604052611453906139b3565b60601c611468565b60cb546001600160a01b03165b604080518581526001600160a01b038084166020830152929350918616917f92073a89a07a000083eb8b2575fc15e7bb936efe55d00727d6942a796d7211a7910160405180910390a250505050505050565b6114c2611c2c565b606980546001600160a01b0319166001600160a01b0383161790556040517f5db758e995a17ec1ad84bdef7e8c3293a0bd6179bcce400dff5d4c3d87db726b90610b6c9083906130cd565b60ca546040516370a0823160e01b81526000916001600160a01b0316906370a082319061153e9030906004016130cd565b602060405180830381865afa15801561155b573d6000803e3d6000fd5b505050506040513d601f19601f8201168201806040525081019061157f919061366f565b905090565b600054610100900460ff16158080156115a45750600054600160ff909116105b806115c557506115b3306123d1565b1580156115c5575060005460ff166001145b6116285760405162461bcd60e51b815260206004820152602e60248201527f496e697469616c697a61626c653a20636f6e747261637420697320616c72656160448201526d191e481a5b9a5d1a585b1a5e995960921b6064820152608401610924565b6000805460ff19166001179055801561164b576000805461ff0019166101001790555b61165c8a8a8a8a8a8a8a8a8a6123e0565b80156116a2576000805461ff0019169055604051600181527f7f26b83ff96e1f2b6a682f133852f6798a09c465da95921460cefb38474024989060200160405180910390a15b50505050505050505050565b6116b6611c2c565b6065546040516332fb62e760e21b81526001600160a01b039091169063cbed8b9c906116ee90889088908890889088906004016139ea565b600060405180830381600087803b15801561170857600080fd5b505af115801561171c573d6000803e3d6000fd5b505050505050505050565b61ffff8616600090815260976020526040808220905161174a90889088906136c2565b90815260408051602092819003830190206001600160401b038716600090815292529020549050806117ca5760405162461bcd60e51b815260206004820152602360248201527f4e6f6e626c6f636b696e674c7a4170703a206e6f2073746f726564206d65737360448201526261676560e81b6064820152608401610924565b8083836040516117db9291906136c2565b60405180910390201461183a5760405162461bcd60e51b815260206004820152602160248201527f4e6f6e626c6f636b696e674c7a4170703a20696e76616c6964207061796c6f616044820152601960fa1b6064820152608401610924565b61ffff8716600090815260976020526040808220905161185d90899089906136c2565b90815260408051602092819003830181206001600160401b038916600090815290845282902093909355601f880182900482028301820190528682526118f5918991899089908190840183828082843760009201919091525050604080516020601f8a018190048102820181019092528881528a93509150889088908190840183828082843760009201919091525061215c92505050565b7fc264d91f3adc5588250e1551f547752ca0cfa8f6b530d243b9f9f4cab10ea8e5878787878560405161192c959493929190613a18565b60405180910390a150505050505050565b611945611c2c565b6000811161198d5760405162461bcd60e51b81526020600482015260156024820152744c7a4170703a20696e76616c6964206d696e47617360581b6044820152606401610924565b61ffff83811660008181526067602090815260408083209487168084529482529182902085905581519283528201929092529081018290527f9d5c7c0b934da8fefa9c7760c98383778a12dfbfc0c3b3106518f43fb9508ac090606001611389565b6119f7611c2c565b61ffff83166000908152606660205260409020611a15828483613a53565b507ffa41487ad5d6728f0b19276fa1eddc16558578f5109fc39d2dc33c3230470dab838383604051611389939291906136fb565b611a51611c8b565b60cc55565b611a5e611c2c565b6001600160a01b038116611ac35760405162461bcd60e51b815260206004820152602660248201527f4f776e61626c653a206e6577206f776e657220697320746865207a65726f206160448201526564647265737360d01b6064820152608401610924565b610afd81612272565b606554604051633d7b2f6f60e21b815261ffff808716600483015285166024820152306044820152606481018390526060916001600160a01b03169063f5ecbdbc90608401600060405180830381865afa158015611b2e573d6000803e3d6000fd5b505050506040513d6000823e601f3d908101601f19168201604052611b569190810190613b0c565b90505b949350505050565b6040517b0ca2ba3432b932bab69029b4b3b732b21026b2b9b9b0b3b29d05199960211b6020820152603c8101829052600090605c01604051602081830303815290604052805190602001209050919050565b600080611c165a60966366ad5c8a60e01b89898989604051602401611bdb9493929190613b79565b60408051601f198184030181529190526020810180516001600160e01b03166001600160e01b031990931692909217909152309291906125b3565b91509150816109a3576109a3868686868561263f565b33611c35611155565b6001600160a01b0316146110b95760405162461bcd60e51b815260206004820181905260248201527f4f776e61626c653a2063616c6c6572206973206e6f7420746865206f776e65726044820152606401610924565b60c9546001600160a01b031633146110b95760405162461bcd60e51b815260206004820152601c60248201527b10985cd954dd1c985d1959de4e8e93db9b1e54dd1c985d1959da5cdd60221b6044820152606401610924565b611d3a8363a9059cbb60e01b8484604051602401611d03929190613bb7565b60408051601f198184030181529190526020810180516001600160e01b03166001600160e01b0319909316929092179091526126dc565b505050565b60cd5460ff1615611d4d5750565b80611d5661150d565b1115610afd57600081611d6761150d565b611d3a919061372f565b6000611d7b610f75565b90506000611d8882611b61565b60c9549091506001600160a01b0316611da182856127b1565b6001600160a01b031614611d3a5760405162461bcd60e51b815260206004820152601e60248201527f4261736553747261746567793a3a496e76616c69645369676e617475726500006044820152606401610924565b600080600080611e0561150d565b9050858110611e2357611e18868261372f565b935060009250611e34565b60009350611e31818761372f565b92505b611e46611e418587613742565b6127d7565b505060ca546040516370a0823160e01b81526000916001600160a01b0316906370a0823190611e799030906004016130cd565b602060405180830381865afa158015611e96573d6000803e3d6000fd5b505050506040513d601f19601f82011682018060405250810190611eba919061366f565b9050848111611ecf5780945060009250611ee5565b611ee2611edc868361372f565b87612880565b92505b50509250925092565b60cd54604051630dc6346160e01b815260009161010090046001600160a01b031690630dc6346190611f2890879087908790600401613bd0565b602060405180830381865afa158015611f45573d6000803e3d6000fd5b505050506040513d601f19601f82011682018060405250810190611f69919061366f565b60cd5460ca54604051633920455b60e11b81529293506001600160a01b036101009092048216926372408ab6928592611faf929116908a908a908a908a90600401613bfe565b6000604051808303818588803b158015611fc857600080fd5b505af11580156116a2573d6000803e3d6000fd5b60cb5460408051606083811b6001600160601b03199081166020840152309182901b16603483015282516028818403018152604890920190925260655490926000926001600160a01b03909216916340a7bb109161ffff600160a01b90910416908685612047612896565b6040518663ffffffff1660e01b8152600401612067959493929190613c3b565b6040805180830381865afa158015612083573d6000803e3d6000fd5b505050506040513d601f19601f820116820180604052508101906120a79190613c8f565b509050804710156120d35760405162fae2d560e21b815260048101829052476024820152604401610924565b60655460cb546001600160a01b039091169063c5803100908390600160a01b900461ffff1685873080612104612896565b6040518863ffffffff1660e01b815260040161212596959493929190613cb3565b6000604051808303818588803b15801561213e57600080fd5b505af1158015612152573d6000803e3d6000fd5b5050505050505050565b60cb5461ffff858116600160a01b90920416146121c65760405162461bcd60e51b815260206004820152602260248201527f4261736553747261746567793a3a5661756c74436861696e49644d69736d61746044820152610c6d60f31b6064820152608401610924565b60006121d4848260146122c4565b6040516020016121e49190613997565b6040516020818303038152906040526121fc906139b3565b60cb5460609190911c91506001600160a01b031681146122695760405162461bcd60e51b815260206004820152602260248201527f4261736553747261746567793a3a5661756c74416464726573734d69736d61746044820152610c6d60f31b6064820152608401610924565b610a11826128c6565b603380546001600160a01b038381166001600160a01b0319831681179093556040519116919082907f8be0079c531659141344cd1fd0a4f28419497f9722a3daafe3b4186f6b6457e090600090a35050565b6060816122d281601f613742565b10156123115760405162461bcd60e51b815260206004820152600e60248201526d736c6963655f6f766572666c6f7760901b6044820152606401610924565b61231b8284613742565b8451101561235f5760405162461bcd60e51b8152602060048201526011602482015270736c6963655f6f75744f66426f756e647360781b6044820152606401610924565b60608215801561237e57604051915060008252602082016040526123c8565b6040519150601f8416801560200281840101858101878315602002848b0101015b818310156123b757805183526020928301920161239f565b5050858452601f01601f1916604052505b50949350505050565b6001600160a01b03163b151590565b600054610100900460ff166124075760405162461bcd60e51b815260040161092490613d1a565b612410896129f3565b60c980546001600160a01b03808b166001600160a01b03199283161790925560ca80548a8416908316811790915560cb8054938a1661ffff8a16600160a01b029093166001600160b01b0319909416939093179190911790915560cc8290556040805163313ce56760e01b8152905163313ce567916004808201926020929091908290030181865afa1580156124aa573d6000803e3d6000fd5b505050506040513d601f19601f820116820180604052508101906124ce9190613d65565b60cb8054600060d05562ffffff60b01b1916600160c01b60ff939093169290920261ffff60b01b191691909117600160b01b61ffff87160217905560cd8054610100600160a81b0319166101006001600160a01b03868116919091029190911790915560ce80546001600160a01b03191684831617905560ca5460405163095ea7b360e01b815291169063095ea7b39061257090869060001990600401613bb7565b6020604051808303816000875af115801561258f573d6000803e3d6000fd5b505050506040513d601f19601f820116820180604052508101906116a29190613d88565b6000606060008060008661ffff166001600160401b038111156125d8576125d8613251565b6040519080825280601f01601f191660200182016040528015612602576020820181803683370190505b50905060008087516020890160008d8df191503d925086831115612624578692505b828152826000602083013e9093509150505b94509492505050565b8180519060200120609760008761ffff1661ffff168152602001908152602001600020856040516126709190613997565b9081526040805191829003602090810183206001600160401b0388166000908152915220919091557fe183f33de2837795525b4792ca4cd60535bd77c53b7e7030060bfcf5734d6b0c906126cd9087908790879087908790613da5565b60405180910390a15050505050565b6000612731826040518060400160405280602081526020017f5361666545524332303a206c6f772d6c6576656c2063616c6c206661696c6564815250856001600160a01b0316612a2b9092919063ffffffff16565b90508051600014806127525750808060200190518101906127529190613d88565b611d3a5760405162461bcd60e51b815260206004820152602a60248201527f5361666545524332303a204552433230206f7065726174696f6e20646964206e6044820152691bdd081cdd58d8d9595960b21b6064820152608401610924565b60008060006127c08585612a3a565b915091506127cd81612a7f565b5090505b92915050565b60ca546040516370a0823160e01b8152600091829182916001600160a01b0316906370a082319061280c9030906004016130cd565b602060405180830381865afa158015612829573d6000803e3d6000fd5b505050506040513d601f19601f8201168201806040525081019061284d919061366f565b905083811161285c578061285e565b835b925083831061286e576000612878565b612878838561372f565b915050915091565b600081831061288f5781611306565b5090919050565b60408051600160f01b6020820152620f424060228083019190915282518083039091018152604290910190915290565b6000818060200190518101906128dc9190613df7565b905060038160048111156128f2576128f261376e565b036129455760008280602001905181019061290d9190613e18565b91505061291d8160000151611d3f565b8051604051908152600080516020613f578339815191529060200160405180910390a1505050565b60008160048111156129595761295961376e565b03612980576000828060200190518101906129749190613e5b565b915050611d3a81612bc4565b60048160048111156129945761299461376e565b036129ef576000828060200190518101906129af9190613ec6565b9150506129bf8160000151612cee565b80516040517f7c9a2d2ec51230d7dbed27f113a325b7e20aef7b049e68b2339257b5edff5bea91611389916130cd565b5050565b600054610100900460ff16612a1a5760405162461bcd60e51b815260040161092490613d1a565b612a22612d24565b610afd81612d54565b6060611b598484600085612d9d565b6000808251604103612a705760208301516040840151606085015160001a612a6487828585612e78565b94509450505050612a78565b506000905060025b9250929050565b6000816004811115612a9357612a9361376e565b03612a9b5750565b6001816004811115612aaf57612aaf61376e565b03612af75760405162461bcd60e51b815260206004820152601860248201527745434453413a20696e76616c6964207369676e617475726560401b6044820152606401610924565b6002816004811115612b0b57612b0b61376e565b03612b585760405162461bcd60e51b815260206004820152601f60248201527f45434453413a20696e76616c6964207369676e6174757265206c656e677468006044820152606401610924565b6003816004811115612b6c57612b6c61376e565b03610afd5760405162461bcd60e51b815260206004820152602260248201527f45434453413a20696e76616c6964207369676e6174757265202773272076616c604482015261756560f01b6064820152608401610924565b602080820151600090815260cf909152604090205460ff1615612c295760405162461bcd60e51b815260206004820152601e60248201527f4261736553747261746567793a3a416c726561647957697468647261776e00006044820152606401610924565b600080612c3983600001516127d7565b91509150600060016040518060800160405280306001600160a01b031681526020018581526020018481526020018660200151815250604051602001612c80929190613f14565b60408051601f1981840301815291905290508215612cc15760cb54612cbc90849061ffff600160a01b820416906001600160a01b031684611eee565b612cca565b612cca81611fdc565b505050602090810151600090815260cf90915260409020805460ff19166001179055565b60ca546040516370a0823160e01b8152610afd9183916001600160a01b03909116906370a08231906111a39030906004016130cd565b600054610100900460ff16612d4b5760405162461bcd60e51b815260040161092490613d1a565b6110b933612272565b600054610100900460ff16612d7b5760405162461bcd60e51b815260040161092490613d1a565b606580546001600160a01b0319166001600160a01b0392909216919091179055565b606082471015612dfe5760405162461bcd60e51b815260206004820152602660248201527f416464726573733a20696e73756666696369656e742062616c616e636520666f6044820152651c8818d85b1b60d21b6064820152608401610924565b600080866001600160a01b03168587604051612e1a9190613997565b60006040518083038185875af1925050503d8060008114612e57576040519150601f19603f3d011682016040523d82523d6000602084013e612e5c565b606091505b5091509150612e6d87838387612f2f565b979650505050505050565b6000806fa2a8918ca85bafe22016d0b997e4df60600160ff1b03831115612ea55750600090506003612636565b6040805160008082526020820180845289905260ff881692820192909252606081018690526080810185905260019060a0016020604051602081039080840390855afa158015612ef9573d6000803e3d6000fd5b5050604051601f1901519150506001600160a01b038116612f2257600060019250925050612636565b9660009650945050505050565b60608315612f9c578251600003612f9557612f49856123d1565b612f955760405162461bcd60e51b815260206004820152601d60248201527f416464726573733a2063616c6c20746f206e6f6e2d636f6e74726163740000006044820152606401610924565b5081611b59565b611b598383815115612fb15781518083602001fd5b8060405162461bcd60e51b81526004016109249190613131565b803561ffff81168114612fdd57600080fd5b919050565b60008083601f840112612ff457600080fd5b5081356001600160401b0381111561300b57600080fd5b602083019150836020828501011115612a7857600080fd5b80356001600160401b0381168114612fdd57600080fd5b6000806000806000806080878903121561305357600080fd5b61305c87612fcb565b955060208701356001600160401b038082111561307857600080fd5b6130848a838b01612fe2565b909750955085915061309860408a01613023565b945060608901359150808211156130ae57600080fd5b506130bb89828a01612fe2565b979a9699509497509295939492505050565b6001600160a01b0391909116815260200190565b60005b838110156130fc5781810151838201526020016130e4565b50506000910152565b6000815180845261311d8160208601602086016130e1565b601f01601f19169290920160200192915050565b6020815260006113066020830184613105565b60006020828403121561315657600080fd5b61130682612fcb565b6000806040838503121561317257600080fd5b61317b83612fcb565b946020939093013593505050565b6001600160a01b0381168114610afd57600080fd5b6000602082840312156131b057600080fd5b813561130681613189565b6000602082840312156131cd57600080fd5b5035919050565b6000806000604084860312156131e957600080fd5b6131f284612fcb565b925060208401356001600160401b0381111561320d57600080fd5b61321986828701612fe2565b9497909650939450505050565b8015158114610afd57600080fd5b60006020828403121561324657600080fd5b813561130681613226565b634e487b7160e01b600052604160045260246000fd5b604051602081016001600160401b038111828210171561328957613289613251565b60405290565b604051601f8201601f191681016001600160401b03811182821017156132b7576132b7613251565b604052919050565b60006001600160401b038211156132d8576132d8613251565b50601f01601f191660200190565b600082601f8301126132f757600080fd5b813561330a613305826132bf565b61328f565b81815284602083860101111561331f57600080fd5b816020850160208301376000918101602001919091529392505050565b600080600080600060a0868803121561335457600080fd5b8535945060208601359350604086013592506060860135915060808601356001600160401b0381111561338657600080fd5b613392888289016132e6565b9150509295509295909350565b6000806000606084860312156133b457600080fd5b6133bd84612fcb565b925060208401356001600160401b038111156133d857600080fd5b6133e4868287016132e6565b9250506133f360408501613023565b90509250925092565b6000806040838503121561340f57600080fd5b61341883612fcb565b915061342660208401612fcb565b90509250929050565b60008060008060008060c0878903121561344857600080fd5b61345187612fcb565b955060208701356001600160401b038082111561346d57600080fd5b6134798a838b016132e6565b9650604089013595506060890135915061349282613189565b9093506080880135925060a088013590808211156134af57600080fd5b506134bc89828a016132e6565b9150509295509295509295565b60008060008060008060008060006101208a8c0312156134e857600080fd5b89356134f381613189565b985060208a013561350381613189565b975060408a013561351381613189565b965060608a013561352381613189565b955061353160808b01612fcb565b945061353f60a08b01612fcb565b935060c08a013561354f81613189565b925060e08a013561355f81613189565b809250506101008a013590509295985092959850929598565b60008060008060006080868803121561359057600080fd5b61359986612fcb565b94506135a760208701612fcb565b93506040860135925060608601356001600160401b038111156135c957600080fd5b6135d588828901612fe2565b969995985093965092949392505050565b6000806000606084860312156135fb57600080fd5b61360484612fcb565b925061361260208501612fcb565b9150604084013590509250925092565b6000806000806080858703121561363857600080fd5b61364185612fcb565b935061364f60208601612fcb565b9250604085013561365f81613189565b9396929550929360600135925050565b60006020828403121561368157600080fd5b5051919050565b600181811c9082168061369c57607f821691505b6020821081036136bc57634e487b7160e01b600052602260045260246000fd5b50919050565b8183823760009101908152919050565b81835281816020850137506000828201602090810191909152601f909101601f19169091010190565b61ffff84168152604060208201526000611b566040830184866136d2565b634e487b7160e01b600052601160045260246000fd5b818103818111156127d1576127d1613719565b808201808211156127d1576127d1613719565b60006001820161376757613767613719565b5060010190565b634e487b7160e01b600052602160045260246000fd5b600581106137a257634e487b7160e01b600052602160045260246000fd5b9052565b6137b08184613784565b604060208201526137cd6040820183516001600160a01b03169052565b6020820151606082015260408201516080820152606082015160a0820152608082015160c082015260a082015160e0820152600060c0830151610100818185015260e085015191506101208281860152818601519250610140915082828601528086015192505061016082818601528186015192508061018086015250506138596101a0840182613105565b95945050505050565b8284823760609190911b6001600160601b0319169101908152601401919050565b601f821115611d3a57600081815260208120601f850160051c810160208610156138aa5750805b601f850160051c820191505b818110156109a3578281556001016138b6565b600019600383901b1c191660019190911b1790565b81516001600160401b038111156138f7576138f7613251565b61390b816139058454613688565b84613883565b602080601f83116001811461393a57600084156139285750858301515b61393285826138c9565b8655506109a3565b600085815260208120601f198616915b828110156139695788860151825594840194600190910190840161394a565b50858210156139875787850151600019600388901b60f8161c191681555b5050505050600190811b01905550565b600082516139a98184602087016130e1565b9190910192915050565b805160208201516001600160601b031980821692919060148310156139e25780818460140360031b1b83161693505b505050919050565b600061ffff808816835280871660208401525084604083015260806060830152612e6d6080830184866136d2565b61ffff86168152608060208201526000613a366080830186886136d2565b6001600160401b0394909416604083015250606001529392505050565b6001600160401b03831115613a6a57613a6a613251565b613a7e83613a788354613688565b83613883565b6000601f841160018114613aac5760008515613a9a5750838201355b613aa486826138c9565b845550610a11565b600083815260209020601f19861690835b82811015613add5786850135825560209485019460019092019101613abd565b5086821015613afa5760001960f88860031b161c19848701351681555b505060018560011b0183555050505050565b600060208284031215613b1e57600080fd5b81516001600160401b03811115613b3457600080fd5b8201601f81018413613b4557600080fd5b8051613b53613305826132bf565b818152856020838501011115613b6857600080fd5b6138598260208301602086016130e1565b61ffff85168152608060208201526000613b966080830186613105565b6001600160401b03851660408401528281036060840152612e6d8185613105565b6001600160a01b03929092168252602082015260400190565b61ffff841681526001600160a01b0383166020820152606060408201819052600090611b5690830184613105565b6001600160a01b0386811682526020820186905261ffff851660408301528316606082015260a060808201819052600090612e6d90830184613105565b61ffff861681526001600160a01b038516602082015260a060408201819052600090613c6990830186613105565b84151560608401528281036080840152613c838185613105565b98975050505050505050565b60008060408385031215613ca257600080fd5b505080516020909101519092909150565b61ffff8716815260c060208201526000613cd060c0830188613105565b8281036040840152613ce28188613105565b6001600160a01b0387811660608601528616608085015283810360a08501529050613d0d8185613105565b9998505050505050505050565b6020808252602b908201527f496e697469616c697a61626c653a20636f6e7472616374206973206e6f74206960408201526a6e697469616c697a696e6760a81b606082015260800190565b600060208284031215613d7757600080fd5b815160ff8116811461130657600080fd5b600060208284031215613d9a57600080fd5b815161130681613226565b61ffff8616815260a060208201526000613dc260a0830187613105565b6001600160401b03861660408401528281036060840152613de38186613105565b90508281036080840152613c838185613105565b600060208284031215613e0957600080fd5b81516005811061130657600080fd5b6000808284036040811215613e2c57600080fd5b835192506020601f1982011215613e4257600080fd5b50613e4b613267565b6020939093015183525092909150565b6000808284036060811215613e6f57600080fd5b835192506040601f1982011215613e8557600080fd5b50604080519081016001600160401b0381118282101715613ea857613ea8613251565b60409081526020858101518352940151938101939093525092909150565b6000808284036040811215613eda57600080fd5b835192506020601f1982011215613ef057600080fd5b50613ef9613267565b6020840151613f0781613189565b8152919491935090915050565b60a08101613f228285613784565b60018060a01b038351166020830152602083015160408301526040830151606083015260608301516080830152939250505056feb0c58532a125fc3c0adccaef396bf65344a4d5781cec2e4c593e6b611d75f150a2646970667358221220c63f71c4a8f305037f65410465de23f07c1aefcc89e528885b901db7b5673cca64736f6c63430008130033",
  "linkReferences": {},
  "deployedLinkReferences": {}
}