{
  "_format": "hh-sol-artifact-1",
  "contractName": "TestStrategy",
  "sourceName": "contracts/mock/TestStrategy.sol",
  "abi": [
    {
      "inputs": [
        {
          "internalType": "uint256",
          "name": "messageType",
          "type": "uint256"
        }
      ],
      "name": "IncorrectMessageType",
      "type": "error"
    },
    {
      "inputs": [
        {
          "internalType": "uint256",
          "name": "amount",
          "type": "uint256"
        },
        {
          "internalType": "uint256",
          "name": "balance",
          "type": "uint256"
        }
      ],
      "name": "InsufficientFunds",
      "type": "error"
    },
    {
      "anonymous": false,
      "inputs": [
        {
          "indexed": false,
          "internalType": "uint256",
          "name": "debtOutstanding",
          "type": "uint256"
        }
      ],
      "name": "AdjustedPosition",
      "type": "event"
    },
    {
      "anonymous": false,
      "inputs": [
        {
          "indexed": false,
          "internalType": "uint8",
          "name": "version",
          "type": "uint8"
        }
      ],
      "name": "Initialized",
      "type": "event"
    },
    {
      "anonymous": false,
      "inputs": [
        {
          "indexed": false,
          "internalType": "uint16",
          "name": "_srcChainId",
          "type": "uint16"
        },
        {
          "indexed": false,
          "internalType": "bytes",
          "name": "_srcAddress",
          "type": "bytes"
        },
        {
          "indexed": false,
          "internalType": "uint64",
          "name": "_nonce",
          "type": "uint64"
        },
        {
          "indexed": false,
          "internalType": "bytes",
          "name": "_payload",
          "type": "bytes"
        },
        {
          "indexed": false,
          "internalType": "bytes",
          "name": "_reason",
          "type": "bytes"
        }
      ],
      "name": "MessageFailed",
      "type": "event"
    },
    {
      "anonymous": false,
      "inputs": [
        {
          "indexed": true,
          "internalType": "address",
          "name": "previousOwner",
          "type": "address"
        },
        {
          "indexed": true,
          "internalType": "address",
          "name": "newOwner",
          "type": "address"
        }
      ],
      "name": "OwnershipTransferred",
      "type": "event"
    },
    {
      "anonymous": false,
      "inputs": [
        {
          "indexed": false,
          "internalType": "uint16",
          "name": "_srcChainId",
          "type": "uint16"
        },
        {
          "indexed": false,
          "internalType": "bytes",
          "name": "_srcAddress",
          "type": "bytes"
        },
        {
          "indexed": false,
          "internalType": "uint64",
          "name": "_nonce",
          "type": "uint64"
        },
        {
          "indexed": false,
          "internalType": "bytes32",
          "name": "_payloadHash",
          "type": "bytes32"
        }
      ],
      "name": "RetryMessageSuccess",
      "type": "event"
    },
    {
      "anonymous": false,
      "inputs": [
        {
          "indexed": false,
          "internalType": "uint16",
          "name": "_dstChainId",
          "type": "uint16"
        },
        {
          "indexed": false,
          "internalType": "uint16",
          "name": "_type",
          "type": "uint16"
        },
        {
          "indexed": false,
          "internalType": "uint256",
          "name": "_minDstGas",
          "type": "uint256"
        }
      ],
      "name": "SetMinDstGas",
      "type": "event"
    },
    {
      "anonymous": false,
      "inputs": [
        {
          "indexed": false,
          "internalType": "address",
          "name": "precrime",
          "type": "address"
        }
      ],
      "name": "SetPrecrime",
      "type": "event"
    },
    {
      "anonymous": false,
      "inputs": [
        {
          "indexed": false,
          "internalType": "uint16",
          "name": "_remoteChainId",
          "type": "uint16"
        },
        {
          "indexed": false,
          "internalType": "bytes",
          "name": "_path",
          "type": "bytes"
        }
      ],
      "name": "SetTrustedRemote",
      "type": "event"
    },
    {
      "anonymous": false,
      "inputs": [
        {
          "indexed": false,
          "internalType": "uint16",
          "name": "_remoteChainId",
          "type": "uint16"
        },
        {
          "indexed": false,
          "internalType": "bytes",
          "name": "_remoteAddress",
          "type": "bytes"
        }
      ],
      "name": "SetTrustedRemoteAddress",
      "type": "event"
    },
    {
      "anonymous": false,
      "inputs": [
        {
          "indexed": true,
          "internalType": "address",
          "name": "token",
          "type": "address"
        },
        {
          "indexed": false,
          "internalType": "uint256",
          "name": "amount",
          "type": "uint256"
        },
        {
          "indexed": false,
          "internalType": "address",
          "name": "sender",
          "type": "address"
        }
      ],
      "name": "SgReceived",
      "type": "event"
    },
    {
      "anonymous": false,
      "inputs": [
        {
          "indexed": false,
          "internalType": "address",
          "name": "newStrategy",
          "type": "address"
        }
      ],
      "name": "StrategyMigrated",
      "type": "event"
    },
    {
      "anonymous": false,
      "inputs": [
        {
          "indexed": false,
          "internalType": "uint256",
          "name": "profit",
          "type": "uint256"
        },
        {
          "indexed": false,
          "internalType": "uint256",
          "name": "loss",
          "type": "uint256"
        },
        {
          "indexed": false,
          "internalType": "uint256",
          "name": "debtPayment",
          "type": "uint256"
        },
        {
          "indexed": false,
          "internalType": "uint256",
          "name": "giveToStrategy",
          "type": "uint256"
        },
        {
          "indexed": false,
          "internalType": "uint256",
          "name": "requestFromStrategy",
          "type": "uint256"
        },
        {
          "indexed": false,
          "internalType": "uint256",
          "name": "creditAvailable",
          "type": "uint256"
        },
        {
          "indexed": false,
          "internalType": "uint256",
          "name": "totalAssets",
          "type": "uint256"
        }
      ],
      "name": "StrategyReported",
      "type": "event"
    },
    {
      "inputs": [],
      "name": "DEFAULT_PAYLOAD_SIZE_LIMIT",
      "outputs": [
        {
          "internalType": "uint256",
          "name": "",
          "type": "uint256"
        }
      ],
      "stateMutability": "view",
      "type": "function"
    },
    {
      "inputs": [
        {
          "internalType": "uint256",
          "name": "_debtOutstanding",
          "type": "uint256"
        }
      ],
      "name": "adjustPosition",
      "outputs": [],
      "stateMutability": "nonpayable",
      "type": "function"
    },
    {
      "inputs": [],
      "name": "balanceOfWant",
      "outputs": [
        {
          "internalType": "uint256",
          "name": "",
          "type": "uint256"
        }
      ],
      "stateMutability": "view",
      "type": "function"
    },
    {
      "inputs": [
        {
          "internalType": "uint256",
          "name": "epoch",
          "type": "uint256"
        }
      ],
      "name": "callMe",
      "outputs": [],
      "stateMutability": "nonpayable",
      "type": "function"
    },
    {
      "inputs": [],
      "name": "clearWant",
      "outputs": [],
      "stateMutability": "nonpayable",
      "type": "function"
    },
    {
      "inputs": [],
      "name": "currentChainId",
      "outputs": [
        {
          "internalType": "uint16",
          "name": "",
          "type": "uint16"
        }
      ],
      "stateMutability": "view",
      "type": "function"
    },
    {
      "inputs": [],
      "name": "emergencyExit",
      "outputs": [
        {
          "internalType": "bool",
          "name": "",
          "type": "bool"
        }
      ],
      "stateMutability": "view",
      "type": "function"
    },
    {
      "inputs": [],
      "name": "estimatedTotalAssets",
      "outputs": [
        {
          "internalType": "uint256",
          "name": "",
          "type": "uint256"
        }
      ],
      "stateMutability": "view",
      "type": "function"
    },
    {
      "inputs": [
        {
          "internalType": "uint16",
          "name": "",
          "type": "uint16"
        },
        {
          "internalType": "bytes",
          "name": "",
          "type": "bytes"
        },
        {
          "internalType": "uint64",
          "name": "",
          "type": "uint64"
        }
      ],
      "name": "failedMessages",
      "outputs": [
        {
          "internalType": "bytes32",
          "name": "",
          "type": "bytes32"
        }
      ],
      "stateMutability": "view",
      "type": "function"
    },
    {
      "inputs": [
        {
          "internalType": "uint16",
          "name": "_srcChainId",
          "type": "uint16"
        },
        {
          "internalType": "bytes",
          "name": "_srcAddress",
          "type": "bytes"
        }
      ],
      "name": "forceResumeReceive",
      "outputs": [],
      "stateMutability": "nonpayable",
      "type": "function"
    },
    {
      "inputs": [
        {
          "internalType": "uint16",
          "name": "_version",
          "type": "uint16"
        },
        {
          "internalType": "uint16",
          "name": "_chainId",
          "type": "uint16"
        },
        {
          "internalType": "address",
          "name": "",
          "type": "address"
        },
        {
          "internalType": "uint256",
          "name": "_configType",
          "type": "uint256"
        }
      ],
      "name": "getConfig",
      "outputs": [
        {
          "internalType": "bytes",
          "name": "",
          "type": "bytes"
        }
      ],
      "stateMutability": "view",
      "type": "function"
    },
    {
      "inputs": [
        {
          "internalType": "bytes32",
          "name": "_messageHash",
          "type": "bytes32"
        }
      ],
      "name": "getEthSignedMessageHash",
      "outputs": [
        {
          "internalType": "bytes32",
          "name": "",
          "type": "bytes32"
        }
      ],
      "stateMutability": "pure",
      "type": "function"
    },
    {
      "inputs": [
        {
          "internalType": "uint16",
          "name": "_remoteChainId",
          "type": "uint16"
        }
      ],
      "name": "getTrustedRemoteAddress",
      "outputs": [
        {
          "internalType": "bytes",
          "name": "",
          "type": "bytes"
        }
      ],
      "stateMutability": "view",
      "type": "function"
    },
    {
      "inputs": [
        {
          "internalType": "uint256",
          "name": "_totalDebt",
          "type": "uint256"
        },
        {
          "internalType": "uint256",
          "name": "_debtOutstanding",
          "type": "uint256"
        },
        {
          "internalType": "uint256",
          "name": "_creditAvailable",
          "type": "uint256"
        },
        {
          "internalType": "uint256",
          "name": "_debtRatio",
          "type": "uint256"
        },
        {
          "internalType": "bytes",
          "name": "_signature",
          "type": "bytes"
        }
      ],
      "name": "harvest",
      "outputs": [],
      "stateMutability": "nonpayable",
      "type": "function"
    },
    {
      "inputs": [
        {
          "internalType": "address",
          "name": "_lzEndpoint",
          "type": "address"
        },
        {
          "internalType": "address",
          "name": "_strategist",
          "type": "address"
        },
        {
          "internalType": "contract IERC20",
          "name": "_want",
          "type": "address"
        },
        {
          "internalType": "address",
          "name": "_vault",
          "type": "address"
        },
        {
          "internalType": "uint16",
          "name": "_vaultChainId",
          "type": "uint16"
        },
        {
          "internalType": "uint16",
          "name": "_currentChainId",
          "type": "uint16"
        },
        {
          "internalType": "address",
          "name": "_sgBridge",
          "type": "address"
        },
        {
          "internalType": "address",
          "name": "_sgRouter",
          "type": "address"
        },
        {
          "internalType": "uint256",
          "name": "_slippage",
          "type": "uint256"
        }
      ],
      "name": "initialize",
      "outputs": [],
      "stateMutability": "nonpayable",
      "type": "function"
    },
    {
      "inputs": [
        {
          "internalType": "uint16",
          "name": "_srcChainId",
          "type": "uint16"
        },
        {
          "internalType": "bytes",
          "name": "_srcAddress",
          "type": "bytes"
        }
      ],
      "name": "isTrustedRemote",
      "outputs": [
        {
          "internalType": "bool",
          "name": "",
          "type": "bool"
        }
      ],
      "stateMutability": "view",
      "type": "function"
    },
    {
      "inputs": [],
      "name": "lzEndpoint",
      "outputs": [
        {
          "internalType": "contract ILayerZeroEndpointUpgradeable",
          "name": "",
          "type": "address"
        }
      ],
      "stateMutability": "view",
      "type": "function"
    },
    {
      "inputs": [
        {
          "internalType": "uint16",
          "name": "_srcChainId",
          "type": "uint16"
        },
        {
          "internalType": "bytes",
          "name": "_srcAddress",
          "type": "bytes"
        },
        {
          "internalType": "uint64",
          "name": "_nonce",
          "type": "uint64"
        },
        {
          "internalType": "bytes",
          "name": "_payload",
          "type": "bytes"
        }
      ],
      "name": "lzReceive",
      "outputs": [],
      "stateMutability": "nonpayable",
      "type": "function"
    },
    {
      "inputs": [
        {
          "internalType": "uint16",
          "name": "",
          "type": "uint16"
        },
        {
          "internalType": "uint16",
          "name": "",
          "type": "uint16"
        }
      ],
      "name": "minDstGasLookup",
      "outputs": [
        {
          "internalType": "uint256",
          "name": "",
          "type": "uint256"
        }
      ],
      "stateMutability": "view",
      "type": "function"
    },
    {
      "inputs": [],
      "name": "name",
      "outputs": [
        {
          "internalType": "string",
          "name": "",
          "type": "string"
        }
      ],
      "stateMutability": "pure",
      "type": "function"
    },
    {
      "inputs": [
        {
          "internalType": "uint16",
          "name": "_srcChainId",
          "type": "uint16"
        },
        {
          "internalType": "bytes",
          "name": "_srcAddress",
          "type": "bytes"
        },
        {
          "internalType": "uint64",
          "name": "_nonce",
          "type": "uint64"
        },
        {
          "internalType": "bytes",
          "name": "_payload",
          "type": "bytes"
        }
      ],
      "name": "nonblockingLzReceive",
      "outputs": [],
      "stateMutability": "nonpayable",
      "type": "function"
    },
    {
      "inputs": [],
      "name": "owner",
      "outputs": [
        {
          "internalType": "address",
          "name": "",
          "type": "address"
        }
      ],
      "stateMutability": "view",
      "type": "function"
    },
    {
      "inputs": [
        {
          "internalType": "uint16",
          "name": "",
          "type": "uint16"
        }
      ],
      "name": "payloadSizeLimitLookup",
      "outputs": [
        {
          "internalType": "uint256",
          "name": "",
          "type": "uint256"
        }
      ],
      "stateMutability": "view",
      "type": "function"
    },
    {
      "inputs": [],
      "name": "precrime",
      "outputs": [
        {
          "internalType": "address",
          "name": "",
          "type": "address"
        }
      ],
      "stateMutability": "view",
      "type": "function"
    },
    {
      "inputs": [],
      "name": "renounceOwnership",
      "outputs": [],
      "stateMutability": "nonpayable",
      "type": "function"
    },
    {
      "inputs": [
        {
          "internalType": "uint16",
          "name": "_srcChainId",
          "type": "uint16"
        },
        {
          "internalType": "bytes",
          "name": "_srcAddress",
          "type": "bytes"
        },
        {
          "internalType": "uint64",
          "name": "_nonce",
          "type": "uint64"
        },
        {
          "internalType": "bytes",
          "name": "_payload",
          "type": "bytes"
        }
      ],
      "name": "retryMessage",
      "outputs": [],
      "stateMutability": "payable",
      "type": "function"
    },
    {
      "inputs": [],
      "name": "revokeFunds",
      "outputs": [],
      "stateMutability": "nonpayable",
      "type": "function"
    },
    {
      "inputs": [
        {
          "internalType": "uint16",
          "name": "_version",
          "type": "uint16"
        },
        {
          "internalType": "uint16",
          "name": "_chainId",
          "type": "uint16"
        },
        {
          "internalType": "uint256",
          "name": "_configType",
          "type": "uint256"
        },
        {
          "internalType": "bytes",
          "name": "_config",
          "type": "bytes"
        }
      ],
      "name": "setConfig",
      "outputs": [],
      "stateMutability": "nonpayable",
      "type": "function"
    },
    {
      "inputs": [
        {
          "internalType": "bool",
          "name": "_emergencyExit",
          "type": "bool"
        }
      ],
      "name": "setEmergencyExit",
      "outputs": [],
      "stateMutability": "nonpayable",
      "type": "function"
    },
    {
      "inputs": [
        {
          "internalType": "uint16",
          "name": "_dstChainId",
          "type": "uint16"
        },
        {
          "internalType": "uint16",
          "name": "_packetType",
          "type": "uint16"
        },
        {
          "internalType": "uint256",
          "name": "_minGas",
          "type": "uint256"
        }
      ],
      "name": "setMinDstGas",
      "outputs": [],
      "stateMutability": "nonpayable",
      "type": "function"
    },
    {
      "inputs": [
        {
          "internalType": "uint16",
          "name": "_dstChainId",
          "type": "uint16"
        },
        {
          "internalType": "uint256",
          "name": "_size",
          "type": "uint256"
        }
      ],
      "name": "setPayloadSizeLimit",
      "outputs": [],
      "stateMutability": "nonpayable",
      "type": "function"
    },
    {
      "inputs": [
        {
          "internalType": "address",
          "name": "_precrime",
          "type": "address"
        }
      ],
      "name": "setPrecrime",
      "outputs": [],
      "stateMutability": "nonpayable",
      "type": "function"
    },
    {
      "inputs": [
        {
          "internalType": "uint16",
          "name": "_version",
          "type": "uint16"
        }
      ],
      "name": "setReceiveVersion",
      "outputs": [],
      "stateMutability": "nonpayable",
      "type": "function"
    },
    {
      "inputs": [
        {
          "internalType": "uint16",
          "name": "_version",
          "type": "uint16"
        }
      ],
      "name": "setSendVersion",
      "outputs": [],
      "stateMutability": "nonpayable",
      "type": "function"
    },
    {
      "inputs": [
        {
          "internalType": "uint256",
          "name": "_slippage",
          "type": "uint256"
        }
      ],
      "name": "setSlippage",
      "outputs": [],
      "stateMutability": "nonpayable",
      "type": "function"
    },
    {
      "inputs": [
        {
          "internalType": "address",
          "name": "_strategist",
          "type": "address"
        }
      ],
      "name": "setStrategist",
      "outputs": [],
      "stateMutability": "nonpayable",
      "type": "function"
    },
    {
      "inputs": [
        {
          "internalType": "uint16",
          "name": "_srcChainId",
          "type": "uint16"
        },
        {
          "internalType": "bytes",
          "name": "_path",
          "type": "bytes"
        }
      ],
      "name": "setTrustedRemote",
      "outputs": [],
      "stateMutability": "nonpayable",
      "type": "function"
    },
    {
      "inputs": [
        {
          "internalType": "uint16",
          "name": "_remoteChainId",
          "type": "uint16"
        },
        {
          "internalType": "bytes",
          "name": "_remoteAddress",
          "type": "bytes"
        }
      ],
      "name": "setTrustedRemoteAddress",
      "outputs": [],
      "stateMutability": "nonpayable",
      "type": "function"
    },
    {
      "inputs": [],
      "name": "sgBridge",
      "outputs": [
        {
          "internalType": "contract ISgBridge",
          "name": "",
          "type": "address"
        }
      ],
      "stateMutability": "view",
      "type": "function"
    },
    {
      "inputs": [
        {
          "internalType": "uint16",
          "name": "",
          "type": "uint16"
        },
        {
          "internalType": "bytes",
          "name": "_srcAddress",
          "type": "bytes"
        },
        {
          "internalType": "uint256",
          "name": "",
          "type": "uint256"
        },
        {
          "internalType": "address",
          "name": "_token",
          "type": "address"
        },
        {
          "internalType": "uint256",
          "name": "_amountLD",
          "type": "uint256"
        },
        {
          "internalType": "bytes",
          "name": "",
          "type": "bytes"
        }
      ],
      "name": "sgReceive",
      "outputs": [],
      "stateMutability": "nonpayable",
      "type": "function"
    },
    {
      "inputs": [],
      "name": "sgRouter",
      "outputs": [
        {
          "internalType": "contract IStargateRouter",
          "name": "",
          "type": "address"
        }
      ],
      "stateMutability": "view",
      "type": "function"
    },
    {
      "inputs": [],
      "name": "slippage",
      "outputs": [
        {
          "internalType": "uint256",
          "name": "",
          "type": "uint256"
        }
      ],
      "stateMutability": "view",
      "type": "function"
    },
    {
      "inputs": [],
      "name": "strategist",
      "outputs": [
        {
          "internalType": "address",
          "name": "",
          "type": "address"
        }
      ],
      "stateMutability": "view",
      "type": "function"
    },
    {
      "inputs": [],
      "name": "strategistSignMessageHash",
      "outputs": [
        {
          "internalType": "bytes32",
          "name": "",
          "type": "bytes32"
        }
      ],
      "stateMutability": "view",
      "type": "function"
    },
    {
      "inputs": [
        {
          "internalType": "contract IERC20",
          "name": "_token",
          "type": "address"
        }
      ],
      "name": "sweepToken",
      "outputs": [],
      "stateMutability": "nonpayable",
      "type": "function"
    },
    {
      "inputs": [
        {
          "internalType": "address",
          "name": "newOwner",
          "type": "address"
        }
      ],
      "name": "transferOwnership",
      "outputs": [],
      "stateMutability": "nonpayable",
      "type": "function"
    },
    {
      "inputs": [
        {
          "internalType": "uint16",
          "name": "",
          "type": "uint16"
        }
      ],
      "name": "trustedRemoteLookup",
      "outputs": [
        {
          "internalType": "bytes",
          "name": "",
          "type": "bytes"
        }
      ],
      "stateMutability": "view",
      "type": "function"
    },
    {
      "inputs": [],
      "name": "vault",
      "outputs": [
        {
          "internalType": "address",
          "name": "",
          "type": "address"
        }
      ],
      "stateMutability": "view",
      "type": "function"
    },
    {
      "inputs": [],
      "name": "vaultChainId",
      "outputs": [
        {
          "internalType": "uint16",
          "name": "",
          "type": "uint16"
        }
      ],
      "stateMutability": "view",
      "type": "function"
    },
    {
      "inputs": [],
      "name": "want",
      "outputs": [
        {
          "internalType": "contract IERC20",
          "name": "",
          "type": "address"
        }
      ],
      "stateMutability": "view",
      "type": "function"
    },
    {
      "inputs": [],
      "name": "wantDecimals",
      "outputs": [
        {
          "internalType": "uint8",
          "name": "",
          "type": "uint8"
        }
      ],
      "stateMutability": "view",
      "type": "function"
    },
    {
      "stateMutability": "payable",
      "type": "receive"
    }
  ],
  "bytecode": "0x608060405234801561001057600080fd5b50614035806100206000396000f3fe6080604052600436106102475760003560e01c80621d3567146102535780630517cb761461027557806306fdde03146102ab57806307e0db17146102e95780630df374831461030957806310ddb137146103295780631be19560146103495780631f1fcd51146103695780631fe4a686146103895780632d606843146103a957806337fded91146103be5780633d3ccc2f146103e35780633d8b38f6146104035780633e032a3b146104335780633f1f4fa41461045757806342d65a8d1461048457806345ee0755146104a4578063495f881e146104c45780635641ec03146104e4578063567ad85d146104fe578063593178de146105335780635b8c41e61461054857806366ad5c8a146105975780636cbadbfa146105b7578063715018a6146105d95780637533d788146105ee5780638cfd8f5c1461060e5780638da5cb5b14610646578063950c8a741461065b5780639606647d1461067b5780639f38369a14610690578063a6c3d165146106b0578063ab8236f3146106d0578063adf076e6146106f0578063b353aaa714610723578063baf3292d14610743578063c1a3d44c14610763578063c446183414610778578063c7b9d5301461078e578063c9dd180b146107ae578063cbed8b9c146107ce578063d1deba1f146107ee578063df2a5b3b14610801578063e73620c314610821578063eb8d72b714610841578063efbb5cb014610763578063f0fa55a914610861578063f2fde38b14610881578063f5ecbdbc146108a1578063fa540801146108c1578063fbfa77cf146108e157600080fd5b3661024e57005b600080fd5b34801561025f57600080fd5b5061027361026e3660046130c3565b610901565b005b34801561028157600080fd5b5060ce54610295906001600160a01b031681565b6040516102a29190613156565b60405180910390f35b3480156102b757600080fd5b5060408051808201909152600c81526b54657374537472617465677960a01b60208201525b6040516102a291906131ba565b3480156102f557600080fd5b506102736103043660046131cd565b6109ea565b34801561031557600080fd5b506102736103243660046131e8565b610a57565b34801561033557600080fd5b506102736103443660046131cd565b610a76565b34801561035557600080fd5b50610273610364366004613227565b610ab2565b34801561037557600080fd5b5060ca54610295906001600160a01b031681565b34801561039557600080fd5b5060c954610295906001600160a01b031681565b3480156103b557600080fd5b50610273610b3f565b3480156103ca57600080fd5b5060cd546102959061010090046001600160a01b031681565b3480156103ef57600080fd5b506102736103fe366004613244565b610b80565b34801561040f57600080fd5b5061042361041e36600461325d565b610bb6565b60405190151581526020016102a2565b34801561043f57600080fd5b5061044960cc5481565b6040519081526020016102a2565b34801561046357600080fd5b506104496104723660046131cd565b60686020526000908152604090205481565b34801561049057600080fd5b5061027361049f36600461325d565b610c82565b3480156104b057600080fd5b506102736104bf3660046132bd565b610cf5565b3480156104d057600080fd5b506102736104df3660046133c5565b610d10565b3480156104f057600080fd5b5060cd546104239060ff1681565b34801561050a57600080fd5b5060cb5461052090600160a01b900461ffff1681565b60405161ffff90911681526020016102a2565b34801561053f57600080fd5b50610449610fb4565b34801561055457600080fd5b50610449610563366004613428565b6097602090815260009384526040808520845180860184018051928152908401958401959095209452929052825290205481565b3480156105a357600080fd5b506102736105b23660046130c3565b611012565b3480156105c357600080fd5b5060cb5461052090600160b01b900461ffff1681565b3480156105e557600080fd5b506102736110e6565b3480156105fa57600080fd5b506102dc6106093660046131cd565b6110fa565b34801561061a57600080fd5b50610449610629366004613485565b606760209081526000928352604080842090915290825290205481565b34801561065257600080fd5b50610295611194565b34801561066757600080fd5b50606954610295906001600160a01b031681565b34801561068757600080fd5b506102736111a3565b34801561069c57600080fd5b506102dc6106ab3660046131cd565b611236565b3480156106bc57600080fd5b506102736106cb36600461325d565b61134c565b3480156106dc57600080fd5b506102736106eb3660046134b8565b6113d5565b3480156106fc57600080fd5b5060cb5461071190600160c01b900460ff1681565b60405160ff90911681526020016102a2565b34801561072f57600080fd5b50606554610295906001600160a01b031681565b34801561074f57600080fd5b5061027361075e366004613227565b6114f9565b34801561076f57600080fd5b5061044961154c565b34801561078457600080fd5b5061044961271081565b34801561079a57600080fd5b506102736107a9366004613227565b6115c3565b3480156107ba57600080fd5b506102736107c9366004613552565b6115ed565b3480156107da57600080fd5b506102736107e9366004613601565b611717565b6102736107fc3660046130c3565b611790565b34801561080d57600080fd5b5061027361081c36600461366f565b6119a6565b34801561082d57600080fd5b5061027361083c366004613244565b611a58565b34801561084d57600080fd5b5061027361085c36600461325d565b611a78565b34801561086d57600080fd5b5061027361087c366004613244565b611ad2565b34801561088d57600080fd5b5061027361089c366004613227565b611adf565b3480156108ad57600080fd5b506102dc6108bc3660046136ab565b611b55565b3480156108cd57600080fd5b506104496108dc366004613244565b611bea565b3480156108ed57600080fd5b5060cb54610295906001600160a01b031681565b6065546001600160a01b0316331461096c5760405162461bcd60e51b815260206004820152602360248201527f4261736553747261746567793a3a496e76616c6964456e64706f696e7443616c6044820152623632b960e91b60648201526084015b60405180910390fd5b6109e28686868080601f01602080910402602001604051908101604052809392919081815260200183838082843760009201919091525050604080516020601f890181900481028201810190925287815289935091508790879081908401838280828437600092019190915250611c3c92505050565b505050505050565b6109f2611cb5565b6065546040516307e0db1760e01b815261ffff831660048201526001600160a01b03909116906307e0db17906024015b600060405180830381600087803b158015610a3c57600080fd5b505af1158015610a50573d6000803e3d6000fd5b5050505050565b610a5f611cb5565b61ffff909116600090815260686020526040902055565b610a7e611cb5565b6065546040516310ddb13760e01b815261ffff831660048201526001600160a01b03909116906310ddb13790602401610a22565b610aba611d14565b610b3c33826001600160a01b03166370a08231306040518263ffffffff1660e01b8152600401610aea9190613156565b602060405180830381865afa158015610b07573d6000803e3d6000fd5b505050506040513d601f19601f82011682018060405250810190610b2b91906136f8565b6001600160a01b0384169190611d6d565b50565b610b47611d14565b60c9546040516001600160a01b03909116904780156108fc02916000818181858888f19350505050158015610b3c573d6000803e3d6000fd5b610b88611d14565b610b9181611dc8565b604051818152600080516020613fe0833981519152906020015b60405180910390a150565b61ffff831660009081526066602052604081208054829190610bd790613711565b80601f0160208091040260200160405190810160405280929190818152602001828054610c0390613711565b8015610c505780601f10610c2557610100808354040283529160200191610c50565b820191906000526020600020905b815481529060010190602001808311610c3357829003601f168201915b505050505090508383604051610c6792919061374b565b60405180910390208180519060200120149150509392505050565b610c8a611cb5565b6065546040516342d65a8d60e01b81526001600160a01b03909116906342d65a8d90610cbe90869086908690600401613784565b600060405180830381600087803b158015610cd857600080fd5b505af1158015610cec573d6000803e3d6000fd5b50505050505050565b610cfd611d14565b60cd805460ff1916911515919091179055565b610d18611d14565b610d2181611dfa565b60cd546000908190819060ff1615610dcd578415610d815760405162461bcd60e51b815260206004820152601e60248201527f4261736553747261746567793a3a44656274526174696f4e6f745a65726f00006044820152606401610963565b6000610d8b61154c565b905087811015610da657610d9f81896137b8565b9250610dbb565b87811115610dbb57610db888826137b8565b93505b610dc583896137b8565b915050610ddf565b610dd78888611e80565b919450925090505b6000610deb82856137cb565b905060008088831015610e0d57610e02838a6137b8565b915060009050610e1e565b60009150610e1b89846137b8565b90505b6000604051806101600160405280306001600160a01b031681526020014281526020018881526020018781526020018681526020018481526020018381526020018b815260200183610e6e61154c565b610e7891906137b8565b815260200160d06000815480929190610e90906137de565b90915550815260200189905290508115610ef05760cb54604051610eeb91849161ffff600160a01b830416916001600160a01b031690610ed790600290879060200161382f565b604051602081830303815290604052611f77565b610f1b565b610f1b600282604051602001610f0792919061382f565b604051602081830303815290604052612065565b7fb983e09c034e9c52b5e547cb0589967992b97717733f580cc5ad0afcdc4b522b8160400151826060015183608001518460a001518560c001518660e00151876101000151604051610f9e9796959493929190968752602087019590955260408601939093526060850191909152608084015260a083015260c082015260e00190565b60405180910390a1505050505050505050505050565b60d05460cb546040513060601b6001600160601b03191660208201526034810192909252600160b01b900460f01b6001600160f01b031916605482015260009060560160405160208183030381529060405280519060200120905090565b3330146110705760405162461bcd60e51b815260206004820152602660248201527f4e6f6e626c6f636b696e674c7a4170703a2063616c6c6572206d7573742062656044820152650204c7a4170760d41b6064820152608401610963565b6109e28686868080601f01602080910402602001604051908101604052809392919081815260200183838082843760009201919091525050604080516020601f8901819004810282018101909252878152899350915087908790819084018382808284376000920191909152506121e592505050565b6110ee611cb5565b6110f860006122fb565b565b6066602052600090815260409020805461111390613711565b80601f016020809104026020016040519081016040528092919081815260200182805461113f90613711565b801561118c5780601f106111615761010080835404028352916020019161118c565b820191906000526020600020905b81548152906001019060200180831161116f57829003601f168201915b505050505081565b6033546001600160a01b031690565b6111ab611d14565b60ca546040516370a0823160e01b81526110f8916001916001600160a01b03909116906370a08231906111e2903090600401613156565b602060405180830381865afa1580156111ff573d6000803e3d6000fd5b505050506040513d601f19601f8201168201806040525081019061122391906136f8565b60ca546001600160a01b03169190611d6d565b61ffff811660009081526066602052604081208054606092919061125990613711565b80601f016020809104026020016040519081016040528092919081815260200182805461128590613711565b80156112d25780601f106112a7576101008083540402835291602001916112d2565b820191906000526020600020905b8154815290600101906020018083116112b557829003601f168201915b50505050509050805160000361132a5760405162461bcd60e51b815260206004820152601d60248201527f4c7a4170703a206e6f20747275737465642070617468207265636f72640000006044820152606401610963565b61134560006014835161133d91906137b8565b83919061234d565b9392505050565b611354611cb5565b818130604051602001611369939291906138eb565b60408051601f1981840301815291815261ffff85166000908152606660205220906113949082613967565b507f8c0400cfe2d1199b1a725c78960bcc2a344d869b80590d0f2bd005db15a572ce8383836040516113c893929190613784565b60405180910390a1505050565b60ce546001600160a01b03163314806113fd575060cd5461010090046001600160a01b031633145b6114485760405162461bcd60e51b815260206004820152601c60248201527b53674272696467653a3a526f757465724f724272696467654f6e6c7960201b6044820152606401610963565b60cb546000906001600160a01b0316331461149a5761146a866000601461234d565b60405160200161147a9190613a20565b60405160208183030381529060405261149290613a3c565b60601c6114a7565b60cb546001600160a01b03165b604080518581526001600160a01b038084166020830152929350918616917f92073a89a07a000083eb8b2575fc15e7bb936efe55d00727d6942a796d7211a7910160405180910390a250505050505050565b611501611cb5565b606980546001600160a01b0319166001600160a01b0383161790556040517f5db758e995a17ec1ad84bdef7e8c3293a0bd6179bcce400dff5d4c3d87db726b90610bab908390613156565b60ca546040516370a0823160e01b81526000916001600160a01b0316906370a082319061157d903090600401613156565b602060405180830381865afa15801561159a573d6000803e3d6000fd5b505050506040513d601f19601f820116820180604052508101906115be91906136f8565b905090565b6115cb611cb5565b60c980546001600160a01b0319166001600160a01b0392909216919091179055565b600054610100900460ff161580801561160d5750600054600160ff909116105b8061162e575061161c3061245a565b15801561162e575060005460ff166001145b6116915760405162461bcd60e51b815260206004820152602e60248201527f496e697469616c697a61626c653a20636f6e747261637420697320616c72656160448201526d191e481a5b9a5d1a585b1a5e995960921b6064820152608401610963565b6000805460ff1916600117905580156116b4576000805461ff0019166101001790555b6116c58a8a8a8a8a8a8a8a8a612469565b801561170b576000805461ff0019169055604051600181527f7f26b83ff96e1f2b6a682f133852f6798a09c465da95921460cefb38474024989060200160405180910390a15b50505050505050505050565b61171f611cb5565b6065546040516332fb62e760e21b81526001600160a01b039091169063cbed8b9c906117579088908890889088908890600401613a73565b600060405180830381600087803b15801561177157600080fd5b505af1158015611785573d6000803e3d6000fd5b505050505050505050565b61ffff861660009081526097602052604080822090516117b3908890889061374b565b90815260408051602092819003830190206001600160401b038716600090815292529020549050806118335760405162461bcd60e51b815260206004820152602360248201527f4e6f6e626c6f636b696e674c7a4170703a206e6f2073746f726564206d65737360448201526261676560e81b6064820152608401610963565b80838360405161184492919061374b565b6040518091039020146118a35760405162461bcd60e51b815260206004820152602160248201527f4e6f6e626c6f636b696e674c7a4170703a20696e76616c6964207061796c6f616044820152601960fa1b6064820152608401610963565b61ffff871660009081526097602052604080822090516118c6908990899061374b565b90815260408051602092819003830181206001600160401b038916600090815290845282902093909355601f8801829004820283018201905286825261195e918991899089908190840183828082843760009201919091525050604080516020601f8a018190048102820181019092528881528a9350915088908890819084018382808284376000920191909152506121e592505050565b7fc264d91f3adc5588250e1551f547752ca0cfa8f6b530d243b9f9f4cab10ea8e58787878785604051611995959493929190613aa1565b60405180910390a150505050505050565b6119ae611cb5565b600081116119f65760405162461bcd60e51b81526020600482015260156024820152744c7a4170703a20696e76616c6964206d696e47617360581b6044820152606401610963565b61ffff83811660008181526067602090815260408083209487168084529482529182902085905581519283528201929092529081018290527f9d5c7c0b934da8fefa9c7760c98383778a12dfbfc0c3b3106518f43fb9508ac0906060016113c8565b611a60611cb5565b600090815260cf60205260409020805460ff19169055565b611a80611cb5565b61ffff83166000908152606660205260409020611a9e828483613adc565b507ffa41487ad5d6728f0b19276fa1eddc16558578f5109fc39d2dc33c3230470dab8383836040516113c893929190613784565b611ada611d14565b60cc55565b611ae7611cb5565b6001600160a01b038116611b4c5760405162461bcd60e51b815260206004820152602660248201527f4f776e61626c653a206e6577206f776e657220697320746865207a65726f206160448201526564647265737360d01b6064820152608401610963565b610b3c816122fb565b606554604051633d7b2f6f60e21b815261ffff808716600483015285166024820152306044820152606481018390526060916001600160a01b03169063f5ecbdbc90608401600060405180830381865afa158015611bb7573d6000803e3d6000fd5b505050506040513d6000823e601f3d908101601f19168201604052611bdf9190810190613b95565b90505b949350505050565b6040517b0ca2ba3432b932bab69029b4b3b732b21026b2b9b9b0b3b29d05199960211b6020820152603c8101829052600090605c01604051602081830303815290604052805190602001209050919050565b600080611c9f5a60966366ad5c8a60e01b89898989604051602401611c649493929190613c02565b60408051601f198184030181529190526020810180516001600160e01b03166001600160e01b0319909316929092179091523092919061263c565b91509150816109e2576109e286868686856126c8565b33611cbe611194565b6001600160a01b0316146110f85760405162461bcd60e51b815260206004820181905260248201527f4f776e61626c653a2063616c6c6572206973206e6f7420746865206f776e65726044820152606401610963565b60c9546001600160a01b031633146110f85760405162461bcd60e51b815260206004820152601c60248201527b10985cd954dd1c985d1959de4e8e93db9b1e54dd1c985d1959da5cdd60221b6044820152606401610963565b611dc38363a9059cbb60e01b8484604051602401611d8c929190613c40565b60408051601f198184030181529190526020810180516001600160e01b03166001600160e01b031990931692909217909152612765565b505050565b60cd5460ff1615611dd65750565b80611ddf61154c565b1115610b3c57600081611df061154c565b611dc391906137b8565b6000611e04610fb4565b90506000611e1182611bea565b60c9549091506001600160a01b0316611e2a828561283a565b6001600160a01b031614611dc35760405162461bcd60e51b815260206004820152601e60248201527f4261736553747261746567793a3a496e76616c69645369676e617475726500006044820152606401610963565b600080600080611e8e61154c565b9050858110611eac57611ea186826137b8565b935060009250611ebd565b60009350611eba81876137b8565b92505b611ecf611eca85876137cb565b612860565b505060ca546040516370a0823160e01b81526000916001600160a01b0316906370a0823190611f02903090600401613156565b602060405180830381865afa158015611f1f573d6000803e3d6000fd5b505050506040513d601f19601f82011682018060405250810190611f4391906136f8565b9050848111611f585780945060009250611f6e565b611f6b611f6586836137b8565b87612909565b92505b50509250925092565b60cd54604051630dc6346160e01b815260009161010090046001600160a01b031690630dc6346190611fb190879087908790600401613c59565b602060405180830381865afa158015611fce573d6000803e3d6000fd5b505050506040513d601f19601f82011682018060405250810190611ff291906136f8565b60cd5460ca54604051633920455b60e11b81529293506001600160a01b036101009092048216926372408ab6928592612038929116908a908a908a908a90600401613c87565b6000604051808303818588803b15801561205157600080fd5b505af115801561170b573d6000803e3d6000fd5b60cb5460408051606083811b6001600160601b03199081166020840152309182901b16603483015282516028818403018152604890920190925260655490926000926001600160a01b03909216916340a7bb109161ffff600160a01b909104169086856120d061291f565b6040518663ffffffff1660e01b81526004016120f0959493929190613cc4565b6040805180830381865afa15801561210c573d6000803e3d6000fd5b505050506040513d601f19601f820116820180604052508101906121309190613d18565b5090508047101561215c5760405162fae2d560e21b815260048101829052476024820152604401610963565b60655460cb546001600160a01b039091169063c5803100908390600160a01b900461ffff168587308061218d61291f565b6040518863ffffffff1660e01b81526004016121ae96959493929190613d3c565b6000604051808303818588803b1580156121c757600080fd5b505af11580156121db573d6000803e3d6000fd5b5050505050505050565b60cb5461ffff858116600160a01b909204161461224f5760405162461bcd60e51b815260206004820152602260248201527f4261736553747261746567793a3a5661756c74436861696e49644d69736d61746044820152610c6d60f31b6064820152608401610963565b600061225d8482601461234d565b60405160200161226d9190613a20565b60405160208183030381529060405261228590613a3c565b60cb5460609190911c91506001600160a01b031681146122f25760405162461bcd60e51b815260206004820152602260248201527f4261736553747261746567793a3a5661756c74416464726573734d69736d61746044820152610c6d60f31b6064820152608401610963565b610a508261294f565b603380546001600160a01b038381166001600160a01b0319831681179093556040519116919082907f8be0079c531659141344cd1fd0a4f28419497f9722a3daafe3b4186f6b6457e090600090a35050565b60608161235b81601f6137cb565b101561239a5760405162461bcd60e51b815260206004820152600e60248201526d736c6963655f6f766572666c6f7760901b6044820152606401610963565b6123a482846137cb565b845110156123e85760405162461bcd60e51b8152602060048201526011602482015270736c6963655f6f75744f66426f756e647360781b6044820152606401610963565b6060821580156124075760405191506000825260208201604052612451565b6040519150601f8416801560200281840101858101878315602002848b0101015b81831015612440578051835260209283019201612428565b5050858452601f01601f1916604052505b50949350505050565b6001600160a01b03163b151590565b600054610100900460ff166124905760405162461bcd60e51b815260040161096390613da3565b61249989612a7c565b60c980546001600160a01b03808b166001600160a01b03199283161790925560ca80548a8416908316811790915560cb8054938a1661ffff8a16600160a01b029093166001600160b01b0319909416939093179190911790915560cc8290556040805163313ce56760e01b8152905163313ce567916004808201926020929091908290030181865afa158015612533573d6000803e3d6000fd5b505050506040513d601f19601f820116820180604052508101906125579190613dee565b60cb8054600060d05562ffffff60b01b1916600160c01b60ff939093169290920261ffff60b01b191691909117600160b01b61ffff87160217905560cd8054610100600160a81b0319166101006001600160a01b03868116919091029190911790915560ce80546001600160a01b03191684831617905560ca5460405163095ea7b360e01b815291169063095ea7b3906125f990869060001990600401613c40565b6020604051808303816000875af1158015612618573d6000803e3d6000fd5b505050506040513d601f19601f8201168201806040525081019061170b9190613e11565b6000606060008060008661ffff166001600160401b03811115612661576126616132da565b6040519080825280601f01601f19166020018201604052801561268b576020820181803683370190505b50905060008087516020890160008d8df191503d9250868311156126ad578692505b828152826000602083013e9093509150505b94509492505050565b8180519060200120609760008761ffff1661ffff168152602001908152602001600020856040516126f99190613a20565b9081526040805191829003602090810183206001600160401b0388166000908152915220919091557fe183f33de2837795525b4792ca4cd60535bd77c53b7e7030060bfcf5734d6b0c906127569087908790879087908790613e2e565b60405180910390a15050505050565b60006127ba826040518060400160405280602081526020017f5361666545524332303a206c6f772d6c6576656c2063616c6c206661696c6564815250856001600160a01b0316612ab49092919063ffffffff16565b90508051600014806127db5750808060200190518101906127db9190613e11565b611dc35760405162461bcd60e51b815260206004820152602a60248201527f5361666545524332303a204552433230206f7065726174696f6e20646964206e6044820152691bdd081cdd58d8d9595960b21b6064820152608401610963565b60008060006128498585612ac3565b9150915061285681612b08565b5090505b92915050565b60ca546040516370a0823160e01b8152600091829182916001600160a01b0316906370a0823190612895903090600401613156565b602060405180830381865afa1580156128b2573d6000803e3d6000fd5b505050506040513d601f19601f820116820180604052508101906128d691906136f8565b90508381116128e557806128e7565b835b92508383106128f7576000612901565b61290183856137b8565b915050915091565b60008183106129185781611345565b5090919050565b60408051600160f01b6020820152620f424060228083019190915282518083039091018152604290910190915290565b6000818060200190518101906129659190613e80565b9050600381600481111561297b5761297b6137f7565b036129ce576000828060200190518101906129969190613ea1565b9150506129a68160000151611dc8565b8051604051908152600080516020613fe08339815191529060200160405180910390a1505050565b60008160048111156129e2576129e26137f7565b03612a09576000828060200190518101906129fd9190613ee4565b915050611dc381612c4d565b6004816004811115612a1d57612a1d6137f7565b03612a7857600082806020019051810190612a389190613f4f565b915050612a488160000151612d77565b80516040517f7c9a2d2ec51230d7dbed27f113a325b7e20aef7b049e68b2339257b5edff5bea916113c891613156565b5050565b600054610100900460ff16612aa35760405162461bcd60e51b815260040161096390613da3565b612aab612dad565b610b3c81612ddd565b6060611be28484600085612e26565b6000808251604103612af95760208301516040840151606085015160001a612aed87828585612f01565b94509450505050612b01565b506000905060025b9250929050565b6000816004811115612b1c57612b1c6137f7565b03612b245750565b6001816004811115612b3857612b386137f7565b03612b805760405162461bcd60e51b815260206004820152601860248201527745434453413a20696e76616c6964207369676e617475726560401b6044820152606401610963565b6002816004811115612b9457612b946137f7565b03612be15760405162461bcd60e51b815260206004820152601f60248201527f45434453413a20696e76616c6964207369676e6174757265206c656e677468006044820152606401610963565b6003816004811115612bf557612bf56137f7565b03610b3c5760405162461bcd60e51b815260206004820152602260248201527f45434453413a20696e76616c6964207369676e6174757265202773272076616c604482015261756560f01b6064820152608401610963565b602080820151600090815260cf909152604090205460ff1615612cb25760405162461bcd60e51b815260206004820152601e60248201527f4261736553747261746567793a3a416c726561647957697468647261776e00006044820152606401610963565b600080612cc28360000151612860565b91509150600060016040518060800160405280306001600160a01b031681526020018581526020018481526020018660200151815250604051602001612d09929190613f9d565b60408051601f1981840301815291905290508215612d4a5760cb54612d4590849061ffff600160a01b820416906001600160a01b031684611f77565b612d53565b612d5381612065565b505050602090810151600090815260cf90915260409020805460ff19166001179055565b60ca546040516370a0823160e01b8152610b3c9183916001600160a01b03909116906370a08231906111e2903090600401613156565b600054610100900460ff16612dd45760405162461bcd60e51b815260040161096390613da3565b6110f8336122fb565b600054610100900460ff16612e045760405162461bcd60e51b815260040161096390613da3565b606580546001600160a01b0319166001600160a01b0392909216919091179055565b606082471015612e875760405162461bcd60e51b815260206004820152602660248201527f416464726573733a20696e73756666696369656e742062616c616e636520666f6044820152651c8818d85b1b60d21b6064820152608401610963565b600080866001600160a01b03168587604051612ea39190613a20565b60006040518083038185875af1925050503d8060008114612ee0576040519150601f19603f3d011682016040523d82523d6000602084013e612ee5565b606091505b5091509150612ef687838387612fb8565b979650505050505050565b6000806fa2a8918ca85bafe22016d0b997e4df60600160ff1b03831115612f2e57506000905060036126bf565b6040805160008082526020820180845289905260ff881692820192909252606081018690526080810185905260019060a0016020604051602081039080840390855afa158015612f82573d6000803e3d6000fd5b5050604051601f1901519150506001600160a01b038116612fab576000600192509250506126bf565b9660009650945050505050565b6060831561302557825160000361301e57612fd28561245a565b61301e5760405162461bcd60e51b815260206004820152601d60248201527f416464726573733a2063616c6c20746f206e6f6e2d636f6e74726163740000006044820152606401610963565b5081611be2565b611be2838381511561303a5781518083602001fd5b8060405162461bcd60e51b815260040161096391906131ba565b803561ffff8116811461306657600080fd5b919050565b60008083601f84011261307d57600080fd5b5081356001600160401b0381111561309457600080fd5b602083019150836020828501011115612b0157600080fd5b80356001600160401b038116811461306657600080fd5b600080600080600080608087890312156130dc57600080fd5b6130e587613054565b955060208701356001600160401b038082111561310157600080fd5b61310d8a838b0161306b565b909750955085915061312160408a016130ac565b9450606089013591508082111561313757600080fd5b5061314489828a0161306b565b979a9699509497509295939492505050565b6001600160a01b0391909116815260200190565b60005b8381101561318557818101518382015260200161316d565b50506000910152565b600081518084526131a681602086016020860161316a565b601f01601f19169290920160200192915050565b602081526000611345602083018461318e565b6000602082840312156131df57600080fd5b61134582613054565b600080604083850312156131fb57600080fd5b61320483613054565b946020939093013593505050565b6001600160a01b0381168114610b3c57600080fd5b60006020828403121561323957600080fd5b813561134581613212565b60006020828403121561325657600080fd5b5035919050565b60008060006040848603121561327257600080fd5b61327b84613054565b925060208401356001600160401b0381111561329657600080fd5b6132a28682870161306b565b9497909650939450505050565b8015158114610b3c57600080fd5b6000602082840312156132cf57600080fd5b8135611345816132af565b634e487b7160e01b600052604160045260246000fd5b604051602081016001600160401b0381118282101715613312576133126132da565b60405290565b604051601f8201601f191681016001600160401b0381118282101715613340576133406132da565b604052919050565b60006001600160401b03821115613361576133616132da565b50601f01601f191660200190565b600082601f83011261338057600080fd5b813561339361338e82613348565b613318565b8181528460208386010111156133a857600080fd5b816020850160208301376000918101602001919091529392505050565b600080600080600060a086880312156133dd57600080fd5b8535945060208601359350604086013592506060860135915060808601356001600160401b0381111561340f57600080fd5b61341b8882890161336f565b9150509295509295909350565b60008060006060848603121561343d57600080fd5b61344684613054565b925060208401356001600160401b0381111561346157600080fd5b61346d8682870161336f565b92505061347c604085016130ac565b90509250925092565b6000806040838503121561349857600080fd5b6134a183613054565b91506134af60208401613054565b90509250929050565b60008060008060008060c087890312156134d157600080fd5b6134da87613054565b955060208701356001600160401b03808211156134f657600080fd5b6135028a838b0161336f565b9650604089013595506060890135915061351b82613212565b9093506080880135925060a0880135908082111561353857600080fd5b5061354589828a0161336f565b9150509295509295509295565b60008060008060008060008060006101208a8c03121561357157600080fd5b893561357c81613212565b985060208a013561358c81613212565b975060408a013561359c81613212565b965060608a01356135ac81613212565b95506135ba60808b01613054565b94506135c860a08b01613054565b935060c08a01356135d881613212565b925060e08a01356135e881613212565b809250506101008a013590509295985092959850929598565b60008060008060006080868803121561361957600080fd5b61362286613054565b945061363060208701613054565b93506040860135925060608601356001600160401b0381111561365257600080fd5b61365e8882890161306b565b969995985093965092949392505050565b60008060006060848603121561368457600080fd5b61368d84613054565b925061369b60208501613054565b9150604084013590509250925092565b600080600080608085870312156136c157600080fd5b6136ca85613054565b93506136d860208601613054565b925060408501356136e881613212565b9396929550929360600135925050565b60006020828403121561370a57600080fd5b5051919050565b600181811c9082168061372557607f821691505b60208210810361374557634e487b7160e01b600052602260045260246000fd5b50919050565b8183823760009101908152919050565b81835281816020850137506000828201602090810191909152601f909101601f19169091010190565b61ffff84168152604060208201526000611bdf60408301848661375b565b634e487b7160e01b600052601160045260246000fd5b8181038181111561285a5761285a6137a2565b8082018082111561285a5761285a6137a2565b6000600182016137f0576137f06137a2565b5060010190565b634e487b7160e01b600052602160045260246000fd5b6005811061382b57634e487b7160e01b600052602160045260246000fd5b9052565b613839818461380d565b604060208201526138566040820183516001600160a01b03169052565b6020820151606082015260408201516080820152606082015160a0820152608082015160c082015260a082015160e0820152600060c0830151610100818185015260e085015191506101208281860152818601519250610140915082828601528086015192505061016082818601528186015192508061018086015250506138e26101a084018261318e565b95945050505050565b8284823760609190911b6001600160601b0319169101908152601401919050565b601f821115611dc357600081815260208120601f850160051c810160208610156139335750805b601f850160051c820191505b818110156109e25782815560010161393f565b600019600383901b1c191660019190911b1790565b81516001600160401b03811115613980576139806132da565b6139948161398e8454613711565b8461390c565b602080601f8311600181146139c357600084156139b15750858301515b6139bb8582613952565b8655506109e2565b600085815260208120601f198616915b828110156139f2578886015182559484019460019091019084016139d3565b5085821015613a105787850151600019600388901b60f8161c191681555b5050505050600190811b01905550565b60008251613a3281846020870161316a565b9190910192915050565b805160208201516001600160601b03198082169291906014831015613a6b5780818460140360031b1b83161693505b505050919050565b600061ffff808816835280871660208401525084604083015260806060830152612ef660808301848661375b565b61ffff86168152608060208201526000613abf60808301868861375b565b6001600160401b0394909416604083015250606001529392505050565b6001600160401b03831115613af357613af36132da565b613b0783613b018354613711565b8361390c565b6000601f841160018114613b355760008515613b235750838201355b613b2d8682613952565b845550610a50565b600083815260209020601f19861690835b82811015613b665786850135825560209485019460019092019101613b46565b5086821015613b835760001960f88860031b161c19848701351681555b505060018560011b0183555050505050565b600060208284031215613ba757600080fd5b81516001600160401b03811115613bbd57600080fd5b8201601f81018413613bce57600080fd5b8051613bdc61338e82613348565b818152856020838501011115613bf157600080fd5b6138e282602083016020860161316a565b61ffff85168152608060208201526000613c1f608083018661318e565b6001600160401b03851660408401528281036060840152612ef6818561318e565b6001600160a01b03929092168252602082015260400190565b61ffff841681526001600160a01b0383166020820152606060408201819052600090611bdf9083018461318e565b6001600160a01b0386811682526020820186905261ffff851660408301528316606082015260a060808201819052600090612ef69083018461318e565b61ffff861681526001600160a01b038516602082015260a060408201819052600090613cf29083018661318e565b84151560608401528281036080840152613d0c818561318e565b98975050505050505050565b60008060408385031215613d2b57600080fd5b505080516020909101519092909150565b61ffff8716815260c060208201526000613d5960c083018861318e565b8281036040840152613d6b818861318e565b6001600160a01b0387811660608601528616608085015283810360a08501529050613d96818561318e565b9998505050505050505050565b6020808252602b908201527f496e697469616c697a61626c653a20636f6e7472616374206973206e6f74206960408201526a6e697469616c697a696e6760a81b606082015260800190565b600060208284031215613e0057600080fd5b815160ff8116811461134557600080fd5b600060208284031215613e2357600080fd5b8151611345816132af565b61ffff8616815260a060208201526000613e4b60a083018761318e565b6001600160401b03861660408401528281036060840152613e6c818661318e565b90508281036080840152613d0c818561318e565b600060208284031215613e9257600080fd5b81516005811061134557600080fd5b6000808284036040811215613eb557600080fd5b835192506020601f1982011215613ecb57600080fd5b50613ed46132f0565b6020939093015183525092909150565b6000808284036060811215613ef857600080fd5b835192506040601f1982011215613f0e57600080fd5b50604080519081016001600160401b0381118282101715613f3157613f316132da565b60409081526020858101518352940151938101939093525092909150565b6000808284036040811215613f6357600080fd5b835192506020601f1982011215613f7957600080fd5b50613f826132f0565b6020840151613f9081613212565b8152919491935090915050565b60a08101613fab828561380d565b60018060a01b038351166020830152602083015160408301526040830151606083015260608301516080830152939250505056feb0c58532a125fc3c0adccaef396bf65344a4d5781cec2e4c593e6b611d75f150a2646970667358221220e1fa0b09b93c97c0dc55350583b92dc94a3d027432ac122195e944fe4439f0b264736f6c63430008130033",
  "linkReferences": {},
  "deployedLinkReferences": {}
}