{
  "_format": "hh-sol-artifact-1",
  "contractName": "PikaStrategy",
  "sourceName": "contracts/strategies/PikaStrategy.sol",
  "abi": [
    {
      "inputs": [
        {
          "internalType": "uint256",
          "name": "messageType",
          "type": "uint256"
        }
      ],
      "name": "IncorrectMessageType",
      "type": "error"
    },
    {
      "inputs": [
        {
          "internalType": "uint256",
          "name": "amount",
          "type": "uint256"
        },
        {
          "internalType": "uint256",
          "name": "balance",
          "type": "uint256"
        }
      ],
      "name": "InsufficientFunds",
      "type": "error"
    },
    {
      "inputs": [],
      "name": "T",
      "type": "error"
    },
    {
      "anonymous": false,
      "inputs": [
        {
          "indexed": false,
          "internalType": "uint256",
          "name": "debtOutstanding",
          "type": "uint256"
        }
      ],
      "name": "AdjustedPosition",
      "type": "event"
    },
    {
      "anonymous": false,
      "inputs": [
        {
          "indexed": false,
          "internalType": "uint8",
          "name": "version",
          "type": "uint8"
        }
      ],
      "name": "Initialized",
      "type": "event"
    },
    {
      "anonymous": false,
      "inputs": [
        {
          "indexed": false,
          "internalType": "uint16",
          "name": "_srcChainId",
          "type": "uint16"
        },
        {
          "indexed": false,
          "internalType": "bytes",
          "name": "_srcAddress",
          "type": "bytes"
        },
        {
          "indexed": false,
          "internalType": "uint64",
          "name": "_nonce",
          "type": "uint64"
        },
        {
          "indexed": false,
          "internalType": "bytes",
          "name": "_payload",
          "type": "bytes"
        },
        {
          "indexed": false,
          "internalType": "bytes",
          "name": "_reason",
          "type": "bytes"
        }
      ],
      "name": "MessageFailed",
      "type": "event"
    },
    {
      "anonymous": false,
      "inputs": [
        {
          "indexed": true,
          "internalType": "address",
          "name": "previousOwner",
          "type": "address"
        },
        {
          "indexed": true,
          "internalType": "address",
          "name": "newOwner",
          "type": "address"
        }
      ],
      "name": "OwnershipTransferred",
      "type": "event"
    },
    {
      "anonymous": false,
      "inputs": [
        {
          "indexed": false,
          "internalType": "uint16",
          "name": "_srcChainId",
          "type": "uint16"
        },
        {
          "indexed": false,
          "internalType": "bytes",
          "name": "_srcAddress",
          "type": "bytes"
        },
        {
          "indexed": false,
          "internalType": "uint64",
          "name": "_nonce",
          "type": "uint64"
        },
        {
          "indexed": false,
          "internalType": "bytes32",
          "name": "_payloadHash",
          "type": "bytes32"
        }
      ],
      "name": "RetryMessageSuccess",
      "type": "event"
    },
    {
      "anonymous": false,
      "inputs": [
        {
          "indexed": false,
          "internalType": "uint16",
          "name": "_dstChainId",
          "type": "uint16"
        },
        {
          "indexed": false,
          "internalType": "uint16",
          "name": "_type",
          "type": "uint16"
        },
        {
          "indexed": false,
          "internalType": "uint256",
          "name": "_minDstGas",
          "type": "uint256"
        }
      ],
      "name": "SetMinDstGas",
      "type": "event"
    },
    {
      "anonymous": false,
      "inputs": [
        {
          "indexed": false,
          "internalType": "address",
          "name": "precrime",
          "type": "address"
        }
      ],
      "name": "SetPrecrime",
      "type": "event"
    },
    {
      "anonymous": false,
      "inputs": [
        {
          "indexed": false,
          "internalType": "uint16",
          "name": "_remoteChainId",
          "type": "uint16"
        },
        {
          "indexed": false,
          "internalType": "bytes",
          "name": "_path",
          "type": "bytes"
        }
      ],
      "name": "SetTrustedRemote",
      "type": "event"
    },
    {
      "anonymous": false,
      "inputs": [
        {
          "indexed": false,
          "internalType": "uint16",
          "name": "_remoteChainId",
          "type": "uint16"
        },
        {
          "indexed": false,
          "internalType": "bytes",
          "name": "_remoteAddress",
          "type": "bytes"
        }
      ],
      "name": "SetTrustedRemoteAddress",
      "type": "event"
    },
    {
      "anonymous": false,
      "inputs": [
        {
          "indexed": true,
          "internalType": "address",
          "name": "token",
          "type": "address"
        },
        {
          "indexed": false,
          "internalType": "uint256",
          "name": "amount",
          "type": "uint256"
        },
        {
          "indexed": false,
          "internalType": "address",
          "name": "sender",
          "type": "address"
        }
      ],
      "name": "SgReceived",
      "type": "event"
    },
    {
      "anonymous": false,
      "inputs": [
        {
          "indexed": false,
          "internalType": "address",
          "name": "newStrategy",
          "type": "address"
        }
      ],
      "name": "StrategyMigrated",
      "type": "event"
    },
    {
      "anonymous": false,
      "inputs": [
        {
          "indexed": false,
          "internalType": "uint256",
          "name": "profit",
          "type": "uint256"
        },
        {
          "indexed": false,
          "internalType": "uint256",
          "name": "loss",
          "type": "uint256"
        },
        {
          "indexed": false,
          "internalType": "uint256",
          "name": "debtPayment",
          "type": "uint256"
        },
        {
          "indexed": false,
          "internalType": "uint256",
          "name": "giveToStrategy",
          "type": "uint256"
        },
        {
          "indexed": false,
          "internalType": "uint256",
          "name": "requestFromStrategy",
          "type": "uint256"
        },
        {
          "indexed": false,
          "internalType": "uint256",
          "name": "creditAvailable",
          "type": "uint256"
        },
        {
          "indexed": false,
          "internalType": "uint256",
          "name": "totalAssets",
          "type": "uint256"
        }
      ],
      "name": "StrategyReported",
      "type": "event"
    },
    {
      "inputs": [],
      "name": "DEFAULT_PAYLOAD_SIZE_LIMIT",
      "outputs": [
        {
          "internalType": "uint256",
          "name": "",
          "type": "uint256"
        }
      ],
      "stateMutability": "view",
      "type": "function"
    },
    {
      "inputs": [
        {
          "internalType": "uint256",
          "name": "_debtOutstanding",
          "type": "uint256"
        }
      ],
      "name": "adjustPosition",
      "outputs": [],
      "stateMutability": "nonpayable",
      "type": "function"
    },
    {
      "inputs": [],
      "name": "balanceOfWant",
      "outputs": [
        {
          "internalType": "uint256",
          "name": "",
          "type": "uint256"
        }
      ],
      "stateMutability": "view",
      "type": "function"
    },
    {
      "inputs": [
        {
          "internalType": "uint256",
          "name": "epoch",
          "type": "uint256"
        }
      ],
      "name": "callMe",
      "outputs": [],
      "stateMutability": "nonpayable",
      "type": "function"
    },
    {
      "inputs": [],
      "name": "clearWant",
      "outputs": [],
      "stateMutability": "nonpayable",
      "type": "function"
    },
    {
      "inputs": [],
      "name": "currentChainId",
      "outputs": [
        {
          "internalType": "uint16",
          "name": "",
          "type": "uint16"
        }
      ],
      "stateMutability": "view",
      "type": "function"
    },
    {
      "inputs": [],
      "name": "emergencyExit",
      "outputs": [
        {
          "internalType": "bool",
          "name": "",
          "type": "bool"
        }
      ],
      "stateMutability": "view",
      "type": "function"
    },
    {
      "inputs": [],
      "name": "estimatedTotalAssets",
      "outputs": [
        {
          "internalType": "uint256",
          "name": "amount",
          "type": "uint256"
        }
      ],
      "stateMutability": "view",
      "type": "function"
    },
    {
      "inputs": [
        {
          "internalType": "uint16",
          "name": "",
          "type": "uint16"
        },
        {
          "internalType": "bytes",
          "name": "",
          "type": "bytes"
        },
        {
          "internalType": "uint64",
          "name": "",
          "type": "uint64"
        }
      ],
      "name": "failedMessages",
      "outputs": [
        {
          "internalType": "bytes32",
          "name": "",
          "type": "bytes32"
        }
      ],
      "stateMutability": "view",
      "type": "function"
    },
    {
      "inputs": [
        {
          "internalType": "uint16",
          "name": "_srcChainId",
          "type": "uint16"
        },
        {
          "internalType": "bytes",
          "name": "_srcAddress",
          "type": "bytes"
        }
      ],
      "name": "forceResumeReceive",
      "outputs": [],
      "stateMutability": "nonpayable",
      "type": "function"
    },
    {
      "inputs": [
        {
          "internalType": "uint16",
          "name": "_version",
          "type": "uint16"
        },
        {
          "internalType": "uint16",
          "name": "_chainId",
          "type": "uint16"
        },
        {
          "internalType": "address",
          "name": "",
          "type": "address"
        },
        {
          "internalType": "uint256",
          "name": "_configType",
          "type": "uint256"
        }
      ],
      "name": "getConfig",
      "outputs": [
        {
          "internalType": "bytes",
          "name": "",
          "type": "bytes"
        }
      ],
      "stateMutability": "view",
      "type": "function"
    },
    {
      "inputs": [
        {
          "internalType": "bytes32",
          "name": "_messageHash",
          "type": "bytes32"
        }
      ],
      "name": "getEthSignedMessageHash",
      "outputs": [
        {
          "internalType": "bytes32",
          "name": "",
          "type": "bytes32"
        }
      ],
      "stateMutability": "pure",
      "type": "function"
    },
    {
      "inputs": [
        {
          "internalType": "uint16",
          "name": "_remoteChainId",
          "type": "uint16"
        }
      ],
      "name": "getTrustedRemoteAddress",
      "outputs": [
        {
          "internalType": "bytes",
          "name": "",
          "type": "bytes"
        }
      ],
      "stateMutability": "view",
      "type": "function"
    },
    {
      "inputs": [
        {
          "internalType": "uint256",
          "name": "_totalDebt",
          "type": "uint256"
        },
        {
          "internalType": "uint256",
          "name": "_debtOutstanding",
          "type": "uint256"
        },
        {
          "internalType": "uint256",
          "name": "_creditAvailable",
          "type": "uint256"
        },
        {
          "internalType": "uint256",
          "name": "_debtRatio",
          "type": "uint256"
        },
        {
          "internalType": "bytes",
          "name": "_signature",
          "type": "bytes"
        }
      ],
      "name": "harvest",
      "outputs": [],
      "stateMutability": "nonpayable",
      "type": "function"
    },
    {
      "inputs": [
        {
          "internalType": "address",
          "name": "_lzEndpoint",
          "type": "address"
        },
        {
          "internalType": "address",
          "name": "_strategist",
          "type": "address"
        },
        {
          "internalType": "contract IERC20",
          "name": "_want",
          "type": "address"
        },
        {
          "internalType": "address",
          "name": "_vault",
          "type": "address"
        },
        {
          "internalType": "uint16",
          "name": "_vaultChainId",
          "type": "uint16"
        },
        {
          "internalType": "uint16",
          "name": "_currentChainId",
          "type": "uint16"
        },
        {
          "internalType": "address",
          "name": "_sgBridge",
          "type": "address"
        },
        {
          "internalType": "address",
          "name": "_router",
          "type": "address"
        },
        {
          "internalType": "uint256",
          "name": "_slippage",
          "type": "uint256"
        }
      ],
      "name": "initialize",
      "outputs": [],
      "stateMutability": "nonpayable",
      "type": "function"
    },
    {
      "inputs": [
        {
          "internalType": "uint16",
          "name": "_srcChainId",
          "type": "uint16"
        },
        {
          "internalType": "bytes",
          "name": "_srcAddress",
          "type": "bytes"
        }
      ],
      "name": "isTrustedRemote",
      "outputs": [
        {
          "internalType": "bool",
          "name": "",
          "type": "bool"
        }
      ],
      "stateMutability": "view",
      "type": "function"
    },
    {
      "inputs": [],
      "name": "lzEndpoint",
      "outputs": [
        {
          "internalType": "contract ILayerZeroEndpointUpgradeable",
          "name": "",
          "type": "address"
        }
      ],
      "stateMutability": "view",
      "type": "function"
    },
    {
      "inputs": [
        {
          "internalType": "uint16",
          "name": "_srcChainId",
          "type": "uint16"
        },
        {
          "internalType": "bytes",
          "name": "_srcAddress",
          "type": "bytes"
        },
        {
          "internalType": "uint64",
          "name": "_nonce",
          "type": "uint64"
        },
        {
          "internalType": "bytes",
          "name": "_payload",
          "type": "bytes"
        }
      ],
      "name": "lzReceive",
      "outputs": [],
      "stateMutability": "nonpayable",
      "type": "function"
    },
    {
      "inputs": [
        {
          "internalType": "uint16",
          "name": "",
          "type": "uint16"
        },
        {
          "internalType": "uint16",
          "name": "",
          "type": "uint16"
        }
      ],
      "name": "minDstGasLookup",
      "outputs": [
        {
          "internalType": "uint256",
          "name": "",
          "type": "uint256"
        }
      ],
      "stateMutability": "view",
      "type": "function"
    },
    {
      "inputs": [],
      "name": "name",
      "outputs": [
        {
          "internalType": "string",
          "name": "",
          "type": "string"
        }
      ],
      "stateMutability": "pure",
      "type": "function"
    },
    {
      "inputs": [
        {
          "internalType": "uint16",
          "name": "_srcChainId",
          "type": "uint16"
        },
        {
          "internalType": "bytes",
          "name": "_srcAddress",
          "type": "bytes"
        },
        {
          "internalType": "uint64",
          "name": "_nonce",
          "type": "uint64"
        },
        {
          "internalType": "bytes",
          "name": "_payload",
          "type": "bytes"
        }
      ],
      "name": "nonblockingLzReceive",
      "outputs": [],
      "stateMutability": "nonpayable",
      "type": "function"
    },
    {
      "inputs": [],
      "name": "owner",
      "outputs": [
        {
          "internalType": "address",
          "name": "",
          "type": "address"
        }
      ],
      "stateMutability": "view",
      "type": "function"
    },
    {
      "inputs": [
        {
          "internalType": "uint16",
          "name": "",
          "type": "uint16"
        }
      ],
      "name": "payloadSizeLimitLookup",
      "outputs": [
        {
          "internalType": "uint256",
          "name": "",
          "type": "uint256"
        }
      ],
      "stateMutability": "view",
      "type": "function"
    },
    {
      "inputs": [],
      "name": "precrime",
      "outputs": [
        {
          "internalType": "address",
          "name": "",
          "type": "address"
        }
      ],
      "stateMutability": "view",
      "type": "function"
    },
    {
      "inputs": [],
      "name": "renounceOwnership",
      "outputs": [],
      "stateMutability": "nonpayable",
      "type": "function"
    },
    {
      "inputs": [
        {
          "internalType": "uint16",
          "name": "_srcChainId",
          "type": "uint16"
        },
        {
          "internalType": "bytes",
          "name": "_srcAddress",
          "type": "bytes"
        },
        {
          "internalType": "uint64",
          "name": "_nonce",
          "type": "uint64"
        },
        {
          "internalType": "bytes",
          "name": "_payload",
          "type": "bytes"
        }
      ],
      "name": "retryMessage",
      "outputs": [],
      "stateMutability": "payable",
      "type": "function"
    },
    {
      "inputs": [],
      "name": "revokeFunds",
      "outputs": [],
      "stateMutability": "nonpayable",
      "type": "function"
    },
    {
      "inputs": [
        {
          "internalType": "uint16",
          "name": "_version",
          "type": "uint16"
        },
        {
          "internalType": "uint16",
          "name": "_chainId",
          "type": "uint16"
        },
        {
          "internalType": "uint256",
          "name": "_configType",
          "type": "uint256"
        },
        {
          "internalType": "bytes",
          "name": "_config",
          "type": "bytes"
        }
      ],
      "name": "setConfig",
      "outputs": [],
      "stateMutability": "nonpayable",
      "type": "function"
    },
    {
      "inputs": [
        {
          "internalType": "bool",
          "name": "_emergencyExit",
          "type": "bool"
        }
      ],
      "name": "setEmergencyExit",
      "outputs": [],
      "stateMutability": "nonpayable",
      "type": "function"
    },
    {
      "inputs": [
        {
          "internalType": "uint16",
          "name": "_dstChainId",
          "type": "uint16"
        },
        {
          "internalType": "uint16",
          "name": "_packetType",
          "type": "uint16"
        },
        {
          "internalType": "uint256",
          "name": "_minGas",
          "type": "uint256"
        }
      ],
      "name": "setMinDstGas",
      "outputs": [],
      "stateMutability": "nonpayable",
      "type": "function"
    },
    {
      "inputs": [
        {
          "internalType": "uint16",
          "name": "_dstChainId",
          "type": "uint16"
        },
        {
          "internalType": "uint256",
          "name": "_size",
          "type": "uint256"
        }
      ],
      "name": "setPayloadSizeLimit",
      "outputs": [],
      "stateMutability": "nonpayable",
      "type": "function"
    },
    {
      "inputs": [
        {
          "internalType": "address",
          "name": "_precrime",
          "type": "address"
        }
      ],
      "name": "setPrecrime",
      "outputs": [],
      "stateMutability": "nonpayable",
      "type": "function"
    },
    {
      "inputs": [
        {
          "internalType": "uint16",
          "name": "_version",
          "type": "uint16"
        }
      ],
      "name": "setReceiveVersion",
      "outputs": [],
      "stateMutability": "nonpayable",
      "type": "function"
    },
    {
      "inputs": [
        {
          "internalType": "uint16",
          "name": "_version",
          "type": "uint16"
        }
      ],
      "name": "setSendVersion",
      "outputs": [],
      "stateMutability": "nonpayable",
      "type": "function"
    },
    {
      "inputs": [
        {
          "internalType": "uint256",
          "name": "_slippage",
          "type": "uint256"
        }
      ],
      "name": "setSlippage",
      "outputs": [],
      "stateMutability": "nonpayable",
      "type": "function"
    },
    {
      "inputs": [
        {
          "internalType": "address",
          "name": "_strategist",
          "type": "address"
        }
      ],
      "name": "setStrategist",
      "outputs": [],
      "stateMutability": "nonpayable",
      "type": "function"
    },
    {
      "inputs": [
        {
          "internalType": "uint16",
          "name": "_srcChainId",
          "type": "uint16"
        },
        {
          "internalType": "bytes",
          "name": "_path",
          "type": "bytes"
        }
      ],
      "name": "setTrustedRemote",
      "outputs": [],
      "stateMutability": "nonpayable",
      "type": "function"
    },
    {
      "inputs": [
        {
          "internalType": "uint16",
          "name": "_remoteChainId",
          "type": "uint16"
        },
        {
          "internalType": "bytes",
          "name": "_remoteAddress",
          "type": "bytes"
        }
      ],
      "name": "setTrustedRemoteAddress",
      "outputs": [],
      "stateMutability": "nonpayable",
      "type": "function"
    },
    {
      "inputs": [],
      "name": "sgBridge",
      "outputs": [
        {
          "internalType": "contract ISgBridge",
          "name": "",
          "type": "address"
        }
      ],
      "stateMutability": "view",
      "type": "function"
    },
    {
      "inputs": [
        {
          "internalType": "uint16",
          "name": "",
          "type": "uint16"
        },
        {
          "internalType": "bytes",
          "name": "_srcAddress",
          "type": "bytes"
        },
        {
          "internalType": "uint256",
          "name": "",
          "type": "uint256"
        },
        {
          "internalType": "address",
          "name": "_token",
          "type": "address"
        },
        {
          "internalType": "uint256",
          "name": "_amountLD",
          "type": "uint256"
        },
        {
          "internalType": "bytes",
          "name": "",
          "type": "bytes"
        }
      ],
      "name": "sgReceive",
      "outputs": [],
      "stateMutability": "nonpayable",
      "type": "function"
    },
    {
      "inputs": [],
      "name": "sgRouter",
      "outputs": [
        {
          "internalType": "contract IStargateRouter",
          "name": "",
          "type": "address"
        }
      ],
      "stateMutability": "view",
      "type": "function"
    },
    {
      "inputs": [],
      "name": "slippage",
      "outputs": [
        {
          "internalType": "uint256",
          "name": "",
          "type": "uint256"
        }
      ],
      "stateMutability": "view",
      "type": "function"
    },
    {
      "inputs": [],
      "name": "strategist",
      "outputs": [
        {
          "internalType": "address",
          "name": "",
          "type": "address"
        }
      ],
      "stateMutability": "view",
      "type": "function"
    },
    {
      "inputs": [],
      "name": "strategistSignMessageHash",
      "outputs": [
        {
          "internalType": "bytes32",
          "name": "",
          "type": "bytes32"
        }
      ],
      "stateMutability": "view",
      "type": "function"
    },
    {
      "inputs": [
        {
          "internalType": "contract IERC20",
          "name": "_token",
          "type": "address"
        }
      ],
      "name": "sweepToken",
      "outputs": [],
      "stateMutability": "nonpayable",
      "type": "function"
    },
    {
      "inputs": [
        {
          "internalType": "address",
          "name": "newOwner",
          "type": "address"
        }
      ],
      "name": "transferOwnership",
      "outputs": [],
      "stateMutability": "nonpayable",
      "type": "function"
    },
    {
      "inputs": [
        {
          "internalType": "uint16",
          "name": "",
          "type": "uint16"
        }
      ],
      "name": "trustedRemoteLookup",
      "outputs": [
        {
          "internalType": "bytes",
          "name": "",
          "type": "bytes"
        }
      ],
      "stateMutability": "view",
      "type": "function"
    },
    {
      "inputs": [],
      "name": "vault",
      "outputs": [
        {
          "internalType": "address",
          "name": "",
          "type": "address"
        }
      ],
      "stateMutability": "view",
      "type": "function"
    },
    {
      "inputs": [],
      "name": "vaultChainId",
      "outputs": [
        {
          "internalType": "uint16",
          "name": "",
          "type": "uint16"
        }
      ],
      "stateMutability": "view",
      "type": "function"
    },
    {
      "inputs": [],
      "name": "want",
      "outputs": [
        {
          "internalType": "contract IERC20",
          "name": "",
          "type": "address"
        }
      ],
      "stateMutability": "view",
      "type": "function"
    },
    {
      "inputs": [],
      "name": "wantDecimals",
      "outputs": [
        {
          "internalType": "uint8",
          "name": "",
          "type": "uint8"
        }
      ],
      "stateMutability": "view",
      "type": "function"
    },
    {
      "stateMutability": "payable",
      "type": "receive"
    }
  ],
  "bytecode": "0x6080806040523461001657615181908161001c8239f35b600080fdfe6080604052600436101561001b575b361561001957600080fd5b005b60003560e01c80621d35671461034a5780630517cb761461034557806306fdde031461034057806307e0db171461033b5780630df374831461033657806310ddb137146103315780631be195601461032c5780631f1fcd51146103275780631fe4a686146103225780632d6068431461031d57806337fded91146103185780633d3ccc2f146103135780633d8b38f61461030e5780633e032a3b146103095780633f1f4fa41461030457806342d65a8d146102ff57806345ee0755146102fa578063495f881e146102f55780635641ec03146102f0578063567ad85d146102eb578063593178de146102e65780635b8c41e6146102e157806366ad5c8a146102dc5780636cbadbfa146102d7578063715018a6146102d25780637533d788146102cd5780638cfd8f5c146102c85780638da5cb5b146102c3578063950c8a74146102be5780639606647d146102b95780639f38369a146102b4578063a6c3d165146102af578063ab8236f3146102aa578063adf076e6146102a5578063b353aaa7146102a0578063baf3292d1461029b578063c1a3d44c14610296578063c446183414610291578063c7b9d5301461028c578063c9dd180b14610287578063cbed8b9c14610282578063d1deba1f1461027d578063df2a5b3b14610278578063e73620c314610273578063eb8d72b71461026e578063efbb5cb014610269578063f0fa55a914610264578063f2fde38b1461025f578063f5ecbdbc1461025a578063fa540801146102555763fbfa77cf0361000e57611f9b565b611f7d565b611eca565b611e39565b611e18565b611dfd565b611cd7565b611ca3565b611bbe565b611a91565b6119cb565b611943565b6118fc565b6118df565b61186b565b6117fb565b6117d2565b6117ae565b61168e565b61152d565b611482565b61133e565b611315565b6112ec565b611299565b611250565b611124565b6110ff565b610fc6565b610f37565b610ee6565b610ec1565b610e9e565b610c27565b610a84565b610a0f565b6109da565b6109bc565b610971565b6108fa565b6108cd565b610888565b61085f565b610823565b61078d565b610714565b6106d9565b610659565b610604565b61057f565b610420565b6004359061ffff8216820361036057565b600080fd5b6024359061ffff8216820361036057565b9181601f84011215610360578235916001600160401b038311610360576020838186019501011161036057565b604435906001600160401b038216820361036057565b9060806003198301126103605760043561ffff8116810361036057916001600160401b039060243582811161036057816103f591600401610376565b93909392604435818116810361036057926064359182116103605761041c91600401610376565b9091565b346103605761042e366103b9565b60655490949293906001600160a01b031633036105175761045c92610454913691610bd5565b933691610bd5565b905a604051633356ae4560e11b6020820190815261ffff871660248301526080604483015294916104c6826104b861049760a48301876105cb565b6001600160401b0388166064840152828103602319016084840152886105cb565b03601f198101845283610b58565b60008091604051976104d789610b07565b609689528260208a019560a036883751923090f1903d906096821161050e575b6000908288523e1561050557005b61001994612809565b609691506104f7565b60405162461bcd60e51b815260206004820152602360248201527f4261736553747261746567793a3a496e76616c6964456e64706f696e7443616c6044820152623632b960e91b6064820152608490fd5b600091031261036057565b6001600160a01b031690565b346103605760003660031901126103605760ce546040516001600160a01b039091168152602090f35b60005b8381106105bb5750506000910152565b81810151838201526020016105ab565b906020916105e4815180928185528580860191016105a8565b601f01601f1916010190565b9060206106019281815201906105cb565b90565b346103605760003660031901126103605761065560405161062481610b22565b601081526f50696b6120563420537472617465677960801b60208201526040519182916020835260208301906105cb565b0390f35b3461036057600060203660031901126106d65761067461034f565b61067c6122ea565b6065546001600160a01b0316908290823b156106d257602461ffff918360405195869485936307e0db1760e01b85521660048401525af180156106cd576106c1575080f35b6106ca90610ad4565b80f35b612022565b5080fd5b80fd5b346103605760403660031901126103605761ffff6106f561034f565b6106fd6122ea565b166000526068602052602435604060002055600080f35b3461036057600060203660031901126106d65761072f61034f565b6107376122ea565b6065546001600160a01b0316908290823b156106d257602461ffff918360405195869485936310ddb13760e01b85521660048401525af180156106cd576106c1575080f35b6001600160a01b0381160361036057565b34610360576020366003190112610360576004356107aa8161077c565b6107b2612b01565b6040516370a0823160e01b8152306004820152906020826024816001600160a01b0385165afa9081156106cd57610019926000926107f3575b503390612453565b61081591925060203d811161081c575b61080d8183610b58565b810190612379565b90386107eb565b503d610803565b346103605760003660031901126103605760ca546040516001600160a01b039091168152602090f35b6001600160a01b03909116815260200190565b346103605760003660031901126103605760c9546040516001600160a01b039091168152602090f35b34610360576000806003193601126106d6576108a2612b01565b8080808060018060a01b0360c9541647908282156108c4575bf1156106cd5780f35b506108fc6108bb565b346103605760003660031901126103605760cd5460405160089190911c6001600160a01b03168152602090f35b3461036057602036600319011261036057610913612b01565b61091b613956565b60008051602061512c83398151915260206040516004358152a1005b9060406003198301126103605760043561ffff811681036103605791602435906001600160401b0382116103605761041c91600401610376565b3461036057602061ffff6109ad61098736610937565b939091166000526066845261099f60406000206111aa565b848151910120923691610bd5565b82815191012014604051908152f35b3461036057600036600319011261036057602060cc54604051908152f35b346103605760203660031901126103605761ffff6109f661034f565b1660005260686020526020604060002054604051908152f35b3461036057610a1d36610937565b610a289291926122ea565b6065546000938492916001600160a01b031690813b15610a765783610a6495604051968795869485936342d65a8d60e01b85526004850161204f565b03925af180156106cd576106c1575080f35b8380fd5b8015150361036057565b3461036057602036600319011261036057600435610aa181610a7a565b610aa9612b01565b60ff801960cd5416911515161760cd55600080f35b634e487b7160e01b600052604160045260246000fd5b6001600160401b038111610ae757604052565b610abe565b602081019081106001600160401b03821117610ae757604052565b60c081019081106001600160401b03821117610ae757604052565b604081019081106001600160401b03821117610ae757604052565b606081019081106001600160401b03821117610ae757604052565b601f909101601f19168101906001600160401b03821190821017610ae757604052565b6040519061016082016001600160401b03811183821017610ae757604052565b60405190608082016001600160401b03811183821017610ae757604052565b6001600160401b038111610ae757601f01601f191660200190565b929192610be182610bba565b91610bef6040519384610b58565b829481845281830111610360578281602093846000960137010152565b9080601f830112156103605781602061060193359101610bd5565b346103605760a0366003190112610360576084356044356024356001600160401b03831161036057610c7e7fb983e09c034e9c52b5e547cb0589967992b97717733f580cc5ad0afcdc4b522b933690600401610c0c565b90610c87612b01565b610c90826128ba565b60008092610ca060cd5460ff1690565b15610e8357610cb1606435156126a6565b610cb961409c565b9383851015610e515750610cdb610cd48495610e08956120d4565b80956120d4565b945b610ce78684612195565b600082821015610e3f5750610cfc90826120d4565b926000905b610d1282610d0d6140e5565b6120d4565b9360d05492610d28610d23856126f2565b60d055565b610d30610b7b565b308152914260208401526040830193845260608301998a52608083019a8b5260a0830197885260c0830182815260e0840196875261010084019788526101208401959095526101408301528015610e0d57610dc591610d9f91610dad60cb549260405194859160208301612721565b03601f198101855284610b58565b6001600160a01b0382169160a01c61ffff169061325c565b51955196519351905191519251936040519788978893909796959260c0959260e08601998652602086015260408501526060840152608083015260a08201520152565b0390a1005b50610e27610e35610e3a9260405192839160208301612721565b03601f198101835282610b58565b6133d2565b610dc5565b82610e4b9195926120d4565b90610d01565b8385610e0895839711610e6a575b5090610cdb916120d4565b81610cdb93929550610e7b916120d4565b939091610e5f565b925050610e95610e0891600435612b59565b94909390610cdd565b3461036057600036600319011261036057602060ff60cd54166040519015158152f35b3461036057600036600319011261036057602061ffff60cb5460a01c16604051908152f35b34610360576000366003190112610360576020610f0161266f565b604051908152f35b90610f1c602092828151948592016105a8565b0190565b9060018060401b0316600052602052604060002090565b3461036057606036600319011261036057610f5061034f565b6024356001600160401b0381116103605761065591610fa76020610f7b610fb5943690600401610c0c565b61ffff610f866103a3565b941660005260978252604060002082604051948386809551938492016105a8565b820190815203019020610f20565b546040519081529081906020820190565b3461036057610fd4366103b9565b93929091503033036110ab57610ff792610fef913691610bd5565b923691610bd5565b9060cb549261ffff808560a01c1691160361105b576100199261104361103d610e276110386110286110569661221f565b6040519283916020830190610f09565b6127bb565b60601c90565b6001600160a01b03908116911614612c3c565b612d94565b60405162461bcd60e51b815260206004820152602260248201527f4261736553747261746567793a3a5661756c74436861696e49644d69736d61746044820152610c6d60f31b6064820152608490fd5b60405162461bcd60e51b815260206004820152602660248201527f4e6f6e626c6f636b696e674c7a4170703a2063616c6c6572206d7573742062656044820152650204c7a4170760d41b6064820152608490fd5b3461036057600036600319011261036057602061ffff60cb5460b01c16604051908152f35b34610360576000806003193601126106d65761113e6122ea565b603380546001600160a01b0319811690915581906001600160a01b03166000805160206150ec8339815191528280a380f35b90600182811c921680156111a0575b602083101461118a57565b634e487b7160e01b600052602260045260246000fd5b91607f169161117f565b90604051918260008254926111be84611170565b90818452600194858116908160001461122d57506001146111ea575b50506111e892500383610b58565b565b9093915060005260209081600020936000915b8183106112155750506111e8935082010138806111da565b855488840185015294850194879450918301916111fd565b9150506111e894506020925060ff191682840152151560051b82010138806111da565b346103605760203660031901126103605761ffff61126c61034f565b16600052606660205261065561128560406000206111aa565b6040519182916020835260208301906105cb565b346103605760403660031901126103605760206112e36112b761034f565b61ffff6112c2610365565b91166000526067835260406000209061ffff16600052602052604060002090565b54604051908152f35b34610360576000366003190112610360576033546040516001600160a01b039091168152602090f35b34610360576000366003190112610360576069546040516001600160a01b039091168152602090f35b34610360576000806003193601126106d657611358612b01565b60ca546040516370a0823160e01b81523060048201526001600160a01b03909116906020908181602481865afa80156106cd576106ca9361142e928692611463575b508580604051936113d9856113cb8982019363a9059cbb60e01b855260248301919060206040840193600181520152565b03601f198101875286610b58565b604051946113e686610b22565b8786526000805160206150cc83398151915288870152519082855af13d1561145b573d9161141383610bba565b926114216040519485610b58565b83523d888785013e6125fd565b8051918215928315611443575b5050506124f8565b61145393508201810191016124e3565b38808061143b565b6060916125fd565b61147b919250843d861161081c5761080d8183610b58565b903861139a565b346103605760203660031901126103605761ffff61149e61034f565b1660005260666020526114b460406000206111aa565b8051156114e85780516013198101919082116114e357610655916114d79161226a565b604051918291826105f0565b6120be565b60405162461bcd60e51b815260206004820152601d60248201527f4c7a4170703a206e6f20747275737465642070617468207265636f72640000006044820152606490fd5b346103605761153b36610937565b91906115456122ea565b6040519160208483828601376115706034858781013060601b85820152036014810187520185610b58565b61ffff821660009081526066825260408120855191959092906001600160401b038311610ae7576115ab836115a58654611170565b8661206a565b81601f841160011461160a575091806115f994928899946000805160206150ac83398151915299926115ff575b50508160011b916000199060031b1c19161790555b6040519384938461204f565b0390a180f35b0151905038806115d8565b9190601f19841661162086600052602060002090565b9389905b8282106116765750509260019285926000805160206150ac8339815191529a9b966115f998961061165d575b505050811b0190556115ed565b015160001960f88460031b161c19169055388080611650565b80600186978294978701518155019601940190611624565b346103605760c0366003190112610360576116a761034f565b506001600160401b03602435818111610360576116c8903690600401610c0c565b606435916116d58361077c565b60a435908111610360576116ed903690600401610c0c565b5060ce546001600160a01b039081163314801561179e575b1561175a5761174061103d610e276110386110287f92073a89a07a000083eb8b2575fc15e7bb936efe55d00727d6942a796d7211a79661221f565b926117556040519283921694608435836127f0565b0390a2005b60405162461bcd60e51b815260206004820152601c60248201527b53674272696467653a3a526f757465724f724272696467654f6e6c7960201b6044820152606490fd5b508060cd5460081c163314611705565b3461036057600036600319011261036057602060ff60cb5460c01c16604051908152f35b34610360576000366003190112610360576065546040516001600160a01b039091168152602090f35b34610360576020366003190112610360577f5db758e995a17ec1ad84bdef7e8c3293a0bd6179bcce400dff5d4c3d87db726b602060043561183b8161077c565b6118436122ea565b606980546001600160a01b0319166001600160a01b03929092169182179055604051908152a1005b346103605760003660031901126103605760ca546040516370a0823160e01b815230600482015290602090829060249082906001600160a01b03165afa80156106cd576020916000916118c2575b50604051908152f35b6118d99150823d811161081c5761080d8183610b58565b386118b9565b346103605760003660031901126103605760206040516127108152f35b34610360576020366003190112610360576004356119198161077c565b6119216122ea565b60c980546001600160a01b0319166001600160a01b0392909216919091179055005b3461036057610120366003190112610360576004356119618161077c565b6024359061196e8261077c565b6044359161197b8361077c565b606435926119888461077c565b61ffff60843581811681036103605760a4359182168203610360576100199560c435936119b48561077c565b60e435956119c18761077c565b6101043597613503565b34610360576080366003190112610360576119e461034f565b6119ec610365565b6064356001600160401b03811161036057611a0b903690600401610376565b9092611a156122ea565b6065546001600160a01b031690813b156103605760008094611a6e604051978896879586946332fb62e760e21b865261ffff8092166004870152166024850152604435604485015260806064850152608484019161202e565b03925af180156106cd57611a7e57005b80611a8b61001992610ad4565b80610568565b611a9a366103b9565b9161ffff86949296166000526097602052611ace81604060002060206040518092878b833787820190815203019020610f20565b54918215611b6d57611b6184611b5a7fc264d91f3adc5588250e1551f547752ca0cfa8f6b530d243b9f9f4cab10ea8e5996000611b4e87611b498d89611b438f610e089f8f611b22611b2f9236908d610bd5565b60208151910120146120fa565b61ffff166000526097602052604060002090565b916120e1565b610f20565b55610fef36868c610bd5565b9087612c93565b60405195869586612150565b60405162461bcd60e51b815260206004820152602360248201527f4e6f6e626c6f636b696e674c7a4170703a206e6f2073746f726564206d65737360448201526261676560e81b6064820152608490fd5b3461036057606036600319011261036057611bd761034f565b611bdf610365565b60443591611beb6122ea565b8215611c6657610e087f9d5c7c0b934da8fefa9c7760c98383778a12dfbfc0c3b3106518f43fb9508ac09361ffff8316600052606760205280611c408560406000209061ffff16600052602052604060002090565b556040519384938460409194939294606082019561ffff80921683521660208201520152565b60405162461bcd60e51b81526020600482015260156024820152744c7a4170703a20696e76616c6964206d696e47617360581b6044820152606490fd5b3461036057602036600319011261036057611cbc6122ea565b600435600090815260cf60205260409020805460ff19169055005b3461036057611ce536610937565b9190611cef6122ea565b60009161ffff81168352602060668152604084209060018060401b038611610ae757611d2586611d1f8454611170565b8461206a565b8490601f8711600114611d7b5750946115f99181869760008051602061510c8339815191529791611d70575b508260011b906000198460031b1c19161790556040519384938461204f565b905085013538611d51565b90601f198716611d9084600052602060002090565b9287905b828210611de5575050916115f993918860008051602061510c83398151915298999410611dcb575b5050600182811b0190556115ed565b860135600019600385901b60f8161c191690553880611dbc565b80600185968294968b01358155019501930190611d94565b34610360576000366003190112610360576020610f016140e5565b3461036057602036600319011261036057611e31612b01565b60043560cc55005b3461036057602036600319011261036057600435611e568161077c565b611e5e6122ea565b6001600160a01b03811615611e765761001990612342565b60405162461bcd60e51b815260206004820152602660248201527f4f776e61626c653a206e6577206f776e657220697320746865207a65726f206160448201526564647265737360d01b6064820152608490fd5b3461036057608036600319011261036057611ee361034f565b6000611eed610365565b91611ef960443561077c565b606554604051633d7b2f6f60e21b815261ffff92831660048201529390911660248401523060448401526064803590840152829060849082906001600160a01b03165afa80156106cd5761065591600091611f5c575b50604051918291826105f0565b611f77913d8091833e611f6f8183610b58565b810190611fc4565b38611f4f565b34610360576020366003190112610360576020610f0160043561262d565b346103605760003660031901126103605760cb546040516001600160a01b039091168152602090f35b602081830312610360578051906001600160401b038211610360570181601f82011215610360578051611ff681610bba565b926120046040519485610b58565b818452602082840101116103605761060191602080850191016105a8565b6040513d6000823e3d90fd5b908060209392818452848401376000828201840152601f01601f1916010190565b60409061ffff6106019593168152816020820152019161202e565b90601f811161207857505050565b600091825260208220906020601f850160051c830194106120b4575b601f0160051c01915b8281106120a957505050565b81815560010161209d565b9092508290612094565b634e487b7160e01b600052601160045260246000fd5b919082039182116114e357565b6020919283604051948593843782019081520301902090565b1561210157565b60405162461bcd60e51b815260206004820152602160248201527f4e6f6e626c6f636b696e674c7a4170703a20696e76616c6964207061796c6f616044820152601960fa1b6064820152608490fd5b9160609361ffff612173939897969816845260806020850152608084019161202e565b6001600160401b0390951660408201520152565b90601f82018092116114e357565b919082018092116114e357565b156121a957565b60405162461bcd60e51b815260206004820152600e60248201526d736c6963655f6f766572666c6f7760901b6044820152606490fd5b156121e657565b60405162461bcd60e51b8152602060048201526011602482015270736c6963655f6f75744f66426f756e647360781b6044820152606490fd5b61222d6014825110156121df565b6040519060148083019101602883015b80831061225757505060148252601f01601f191660405290565b909182518152602080910192019061223d565b61227e8261227781612187565b10156121a2565b61228b82825110156121df565b816122a3575050604051600081526020810160405290565b60405191601f811691821560051b808486010193838501920101905b8084106122d75750508252601f01601f191660405290565b90928351815260208091019301906122bf565b6033546001600160a01b031633036122fe57565b606460405162461bcd60e51b815260206004820152602060248201527f4f776e61626c653a2063616c6c6572206973206e6f7420746865206f776e65726044820152fd5b603380546001600160a01b039283166001600160a01b0319821681179092559091166000805160206150ec833981519152600080a3565b90816020910312610360575190565b6001600160a01b039091168152602081019190915260400190565b9061142e6111e892600080604051926123e1846123d36020988983019463a9059cbb60e01b865260248401612388565b03601f198101865285610b58565b604051936123ee85610b22565b8685526000805160206150cc83398151915287860152519082739a601c5bb360811d96a23689066af316a30c30275af13d1561244b573d9061242f82610bba565b9161243d6040519384610b58565b82523d60008684013e612557565b606090612557565b61142e906111e8939260008060405193612484856113cb6020998a83019763a9059cbb60e01b895260248401612388565b60018060a01b0316926040519461249a86610b22565b8786526000805160206150cc83398151915288870152519082855af13d1561145b573d916124c783610bba565b926124d56040519485610b58565b83523d60008785013e6125fd565b90816020910312610360575161060181610a7a565b156124ff57565b60405162461bcd60e51b815260206004820152602a60248201527f5361666545524332303a204552433230206f7065726174696f6e20646964206e6044820152691bdd081cdd58d8d9595960b21b6064820152608490fd5b909190156125cd575080511561256a5790565b739a601c5bb360811d96a23689066af316a30c30273b156125885790565b60405162461bcd60e51b815260206004820152601d60248201527f416464726573733a2063616c6c20746f206e6f6e2d636f6e74726163740000006044820152606490fd5b8151156125dd5750805190602001fd5b60405162461bcd60e51b81529081906125f990600483016105f0565b0390fd5b9192901561261a5750815115612611575090565b3b156125885790565b8251909150156125dd5750805190602001fd5b60405160208101917b0ca2ba3432b932bab69029b4b3b732b21026b2b9b9b0b3b29d05199960211b8352603c820152603c815261266981610b3d565b51902090565b60d05460cb546040519060208201923060601b8452603483015261ffff60f01b9060401b1660548201526036815261266981610b3d565b156126ad57565b60405162461bcd60e51b815260206004820152601e60248201527f4261736553747261746567793a3a44656274526174696f4e6f745a65726f00006044820152606490fd5b60001981146114e35760010190565b6005111561270b57565b634e487b7160e01b600052602160045260246000fd5b6002815260406020820181905282516001600160a01b03169082015261060191906101a0906020830151606082015260408301516080820152606083015160a0820152608083015160c082015260a083015160e082015260c0830151610100908183015260e084015190610120918284015284015190610140918284015284015193610160948584015201519261018082015201906105cb565b80516020909101516001600160601b03198082169392909190601481106127e157505050565b60140360031b82901b16169150565b9081526001600160a01b03909116602082015260400190565b91936128a77fe183f33de2837795525b4792ca4cd60535bd77c53b7e7030060bfcf5734d6b0c956128b5939561ffff8151602083012096169586600052609760205261286d83610fa760208b604060002082604051948386809551938492016105a8565b5561288a604051978897885260a0602089015260a08801906105cb565b6001600160401b03909216604087015285820360608701526105cb565b9083820360808501526105cb565b0390a1565b6128d66128de916128d16128cc61266f565b61262d565b612a55565b91909161293a565b60c9546001600160a01b039081169116036128f557565b60405162461bcd60e51b815260206004820152601e60248201527f4261736553747261746567793a3a496e76616c69645369676e617475726500006044820152606490fd5b61294381612701565b8061294b5750565b61295481612701565b6001810361299c5760405162461bcd60e51b815260206004820152601860248201527745434453413a20696e76616c6964207369676e617475726560401b6044820152606490fd5b6129a581612701565b600281036129f25760405162461bcd60e51b815260206004820152601f60248201527f45434453413a20696e76616c6964207369676e6174757265206c656e677468006044820152606490fd5b806129fe600392612701565b14612a0557565b60405162461bcd60e51b815260206004820152602260248201527f45434453413a20696e76616c6964207369676e6174757265202773272076616c604482015261756560f01b6064820152608490fd5b906041815114600014612a7f5761041c916020820151906060604084015193015160001a90612a89565b5050600090600290565b9291906fa2a8918ca85bafe22016d0b997e4df60600160ff1b038311612af55791608094939160ff602094604051948552168484015260408301526060820152600093849182805260015afa156106cd5781516001600160a01b03811615612aef579190565b50600190565b50505050600090600390565b60c9546001600160a01b03163303612b1557565b60405162461bcd60e51b815260206004820152601c60248201527b10985cd954dd1c985d1959de4e8e93db9b1e54dd1c985d1959da5cdd60221b6044820152606490fd5b90612b626140e5565b828110612c185791612b7491926120d4565b906000915b612b8b612b868284612195565b6139dc565b5050612ba0612b9b60ca54610573565b610573565b91602060405180946370a0823160e01b82528180612bc1306004830161084c565b03915afa9283156106cd57600093612bf8575b50818311612be457505091600090565b612bf3826106019396946120d4565b612c2a565b612c1191935060203d811161081c5761080d8183610b58565b9138612bd4565b612c24906000936120d4565b91612b79565b9080821015612c37575090565b905090565b15612c4357565b60405162461bcd60e51b815260206004820152602260248201527f4261736553747261746567793a3a5661756c74416464726573734d69736d61746044820152610c6d60f31b6064820152608490fd5b919060cb549261ffff808560a01c1691160361105b576111e89261104361103d610e276110386110286110569661221f565b90816020910312610360575160058110156103605790565b809291039160408312610360576020815193601f19011261036057602060405191612d0783610aec565b0151612d128161077c565b815290565b809291039160608312610360576040815193601f190112610360576040805191908201906001600160401b03821183831017610ae7576040918252602081015183520151602082015290565b809291039160408312610360576020815193601f19011261036057602060405191612d8d83610aec565b0151815290565b805190612da960208083019383010183612cc5565b612db281612701565b60038103612df95750612dde60008051602061512c833981519152926020836128b59451010190612d63565b9050612de8613956565b516040519081529081906020820190565b612e0281612701565b80612e2357506111e891602082612e1c9351010190612d17565b9050612ee2565b80612e2f600492612701565b14612e38575050565b612e8a612e707f7c9a2d2ec51230d7dbed27f113a325b7e20aef7b049e68b2339257b5edff5bea936020846128b59551010190612cdd565b9050612e84612e7f8251610573565b612fde565b51610573565b6040519182918261084c565b15612e9d57565b60405162461bcd60e51b815260206004820152601e60248201527f4261736553747261746567793a3a416c726561647957697468647261776e00006044820152606490fd5b612fc26111e891612f8c610e27612f2b6020840193612f25612f20612f1c612f15885160005260cf602052604060002090565b5460ff1690565b1590565b612e96565b516139dc565b8493919351612f38610b9b565b30815291602083810187815260408086019384526060808701958652815160019481019490945295516001600160a01b03169083015251938101939093525160808301525160a082015291829060c0820190565b8115612fcf5760cb54612fb1926001600160a01b0382169160a01c61ffff169061325c565b5160005260cf602052604060002090565b805460ff19166001179055565b612fd991506133d2565b612fb1565b612fee612fe961424a565b613f75565b73a6cac988e3bf78c54f3803b790485eb8df3fbaeb90813b15610360576040518092631e8c5c8960e11b82528160046000958680945af180156106cd576131eb575b506040516370a0823160e01b80825260209291838180613053306004830161084c565b0381731508fbb7928aedc86bee68c91bc4afcf493b0e785afa9081156106cd5785916131ce575b507321a4a5c00ab2fd749ebec8282456d93351459f2a90813b156131ca5760405163b6b55f2560e01b815260048101919091529085908290602490829084905af180156106cd576131b7575b506130cf613c4a565b6040518181528381806130e5306004830161084c565b0381739a601c5bb360811d96a23689066af316a30c30275afa80156106cd5761311691869161319a575b50836123a3565b61313361312460ca54610573565b8361312d6142b8565b91612453565b61313e60ca54610573565b90604051908152838180613155306004830161084c565b03816001600160a01b0386165afa9384156106cd576111e8959461317b575b5050612453565b613192929450803d1061081c5761080d8183610b58565b913880613174565b6131b19150853d871161081c5761080d8183610b58565b3861310f565b80611a8b6131c492610ad4565b386130c6565b8580fd5b6131e59150843d861161081c5761080d8183610b58565b3861307a565b80611a8b6131f892610ad4565b38613030565b610601939261ffff60609316825260018060a01b0316602082015281604082015201906105cb565b919361ffff60a0946106019796600180881b038095168652602086015216604084015216606082015281608082015201906105cb565b60cd549293926132779060081c6001600160a01b0316610573565b90604051630dc6346160e01b815260208180613298888a89600485016131fe565b0381865afa9081156106cd57600091613303575b506132bb612b9b60ca54610573565b833b15610360576132e560009660405198899788968795633920455b60e11b875260048701613226565b03925af180156106cd576132f65750565b80611a8b6111e892610ad4565b61331b915060203d811161081c5761080d8183610b58565b386132ac565b9190826040910312610360576020825192015190565b92610601949261ffff6133659316855260018060a01b0316602085015260a0604085015260a08401906105cb565b916000606082015260808184039101526105cb565b9261339f61060197959361ffff6133ad9416865260c0602087015260c08601906105cb565b9084820360408601526105cb565b6001600160a01b0391821660608401529316608082015280830360a0909101526105cb565b60cb54604080516001600160601b0319606084811b8216602084015230901b166034820152909161340682604881016104b8565b61ffff613417612b9b606554610573565b9160a01c16613444846134286134e0565b81518093819263040a7bb160e41b83528a308860048601613337565b0381865afa9081156106cd576000916134b2575b50804710613494576134686134e0565b95833b15610360576132e5600096519788968795869462c5803160e81b8652309230926004880161337a565b845162fae2d560e21b81526004810191909152476024820152604490fd5b6134d29150853d87116134d9575b6134ca8183610b58565b810190613321565b5038613458565b503d6134c0565b604051600160f01b6020820152620f424060228201526022815261060181610b3d565b96949290979593916000549860ff8a60081c1615809a819b61362b575b811561360b575b50156135af5761354d988a613544600160ff196000541617600055565b61359657613699565b61355357565b61356361ff001960005416600055565b604051600181527f7f26b83ff96e1f2b6a682f133852f6798a09c465da95921460cefb38474024989080602081016128b5565b6135aa61010061ff00196000541617600055565b613699565b60405162461bcd60e51b815260206004820152602e60248201527f496e697469616c697a61626c653a20636f6e747261637420697320616c72656160448201526d191e481a5b9a5d1a585b1a5e995960921b6064820152608490fd5b303b1591508161361d575b5038613527565b6001915060ff161438613616565b600160ff8216109150613520565b1561364057565b60405162461bcd60e51b815260206004820152602b60248201527f496e697469616c697a61626c653a20636f6e7472616374206973206e6f74206960448201526a6e697469616c697a696e6760a81b6064820152608490fd5b9361370d61375094936136eb61372e946136c96137559a9b9d996136c460ff60005460081c16613639565b613900565b60c980546001600160a01b0319166001600160a01b0392909216919091179055565b60ca80546001600160a01b0319166001600160a01b0392909216919091179055565b60cb805461ffff60a01b191660a09290921b61ffff60a01b16919091179055565b60cb80546001600160a01b0319166001600160a01b0392909216919091179055565b60cc55565b613769612b9b612b9b612b9b60ca54610573565b9060405193849263313ce56760e01b845283600460209788935afa9283156106cd576000946137f061387f946137c5899761383c958a916138ba575b5060cb805460ff60c01b191660c09290921b60ff60c01b16919091179055565b6137cf600060d055565b60cb805461ffff60b01b191660b09290921b61ffff60b01b16919091179055565b60cd8054610100600160a81b031916600885901b610100600160a81b03161790556001600160a01b039060ce8054919092166001600160a01b03166001600160a01b0319909116179055565b61384a612b9b60ca54610573565b60405163095ea7b360e01b81526001600160a01b03909216600483015260001960248301529093849283919082906044820190565b03925af180156106cd57613891575050565b816138b092903d106138b3575b6138a88183610b58565b8101906124e3565b50565b503d61389e565b6138da9150893d8b116138e0575b6138d28183610b58565b8101906138e7565b386137a5565b503d6138c8565b90816020910312610360575160ff811681036103605790565b61391a60ff60005460081c1661391581613639565b613639565b61392333612342565b61393460ff60005460081c16613639565b606580546001600160a01b0319166001600160a01b0392909216919091179055565b60ff60cd54166111e857613968613c4a565b6139706142b8565b61397657565b61397e6142b8565b739b86b2be8edb2958089e522fe0eb7dd5935975ab803b1561036057604051637acb775760e01b81529160009183918290849082906139c2903090600484016127f0565b03925af180156106cd576139d35750565b6111e890610ad4565b9060006139ed612b9b60ca54610573565b9060405191826370a0823160e01b9182825260209485918180613a13306004830161084c565b03915afa9081156106cd57600091613abd575b5085811015613ab457613a3c613a4191876120d4565b613ada565b82613a50612b9b60ca54610573565b60405192835282908180613a67306004830161084c565b03915afa9283156106cd57600093613a95575b505081841115613a9057508061060191936120d4565b919050565b613aac929350803d1061081c5761080d8183610b58565b903880613a7a565b50505050600090565b613ad49150843d861161081c5761080d8183610b58565b38613a26565b80613ae3613b2e565b10613af157506111e8613c02565b80613afa613b88565b10613b0857506111e8613c4a565b613b1061424a565b613b18613b88565b82039182116114e3576111e891612fe991612c2a565b604051635ff329af60e01b815230600482015260208160248173060c4cb78f1a4508ad84cf2a65c6df9afe3253fe5afa9081156106cd57600091613b70575090565b610601915060203d811161081c5761080d8183610b58565b613b90613b2e565b604051635aacb6f360e01b81523060048201526020816024817321a4a5c00ab2fd749ebec8282456d93351459f2a5afa80156106cd57613bd891600091613be4575b506142fa565b81018091116114e35790565b613bfc915060203d811161081c5761080d8183610b58565b38613bd2565b73060c4cb78f1a4508ad84cf2a65c6df9afe3253fe803b15610360576000809160246040518094819363d279c19160e01b83523060048401525af180156106cd576139d35750565b613c52613c02565b7321a4a5c00ab2fd749ebec8282456d93351459f2a803b15610360576000809160046040518094819363d1058e5960e01b83525af180156106cd57613d00575b506040516370a0823160e01b815260208180613cb1306004830161084c565b0381739a601c5bb360811d96a23689066af316a30c30275afa80156106cd576111e891600091613ce2575b50613dde565b613cfa915060203d811161081c5761080d8183610b58565b38613cdc565b80611a8b613d0d92610ad4565b38613c92565b6040519060a082016001600160401b03811183821017610ae7576040526000608083606081528260208201528260408201528260608201520152565b818102929181159184041417156114e357565b634e487b7160e01b600052601260045260246000fd5b8015613d85576000190490565b613d62565b8115613d85570490565b6020815260a06080613db1845183602086015260c08501906105cb565b93600180841b03602082015116604085015260408101516060850152606081015182850152015191015290565b6020613ead91613e8e613e86613df2613d13565b604051739a601c5bb360811d96a23689066af316a30c302760601b86820190815261271060148201819052600360611b602160f91b0160348301526048820152737f5c764cbc14f9669b88837ca1490cca17c3160760601b606882015291949091613e61908390607c016104b8565b613e6a816142fa565b9185523086860152426040860152606085015260cc5490613d4f565b612710900490565b60808201526040518093819263c04b8d5960e01b835260048301613d94565b038160007368b3465833fb72a70ecdf485e0e4c7bd8665fc455af180156106cd57613ed55750565b6138b09060203d811161081c5761080d8183610b58565b51906001600160801b038216820361036057565b908160809103126103605760405190608082016001600160401b03811183821017610ae7576040528051613f338161077c565b825260208101516001600160601b038116810361036057613f6d916060916020850152613f6260408201613eec565b604085015201613eec565b606082015290565b613f7d613c4a565b6040516303d3b32360e51b815280613f98306004830161084c565b0390608081739b86b2be8edb2958089e522fe0eb7dd5935975ab9381855afa80156106cd5761401e9160009161406e575b5061401861400c6020613ffd613ff7613feb604087015160018060801b031690565b6001600160801b031690565b88613d4f565b9301516001600160601b031690565b6001600160601b031690565b90613d8a565b91614027575050565b803b1561036057604051635c833bfd60e01b81523060048201819052602482019390935260448101929092526000908290606490829084905af180156106cd576132f65750565b61408f915060803d8111614095575b6140878183610b58565b810190613f00565b38613fc9565b503d61407d565b6140a7612fe961424a565b60ca546040516370a0823160e01b815230600482015290602090829060249082906001600160a01b03165afa9081156106cd57600091613b70575090565b6140ed61424a565b6140f56142b8565b81018091116114e357604051635ff329af60e01b81526020919082818061411f306004830161084c565b038173060c4cb78f1a4508ad84cf2a65c6df9afe3253fe5afa9081156106cd5760009161422d575b506040516246613160e11b815290838280614165306004830161084c565b038173a6cac988e3bf78c54f3803b790485eb8df3fbaeb5afa9182156106cd576141a09261419a9160009161421657506142fa565b90612195565b604051635aacb6f360e01b8152908382806141be306004830161084c565b03817321a4a5c00ab2fd749ebec8282456d93351459f2a5afa9384156106cd576106019461419a9361419a926000926141f9575b50506142fa565b61420f9250803d1061081c5761080d8183610b58565b38806141f2565b613bfc9150863d881161081c5761080d8183610b58565b6142449150833d851161081c5761080d8183610b58565b38614147565b6040516303d3b32360e51b8152306004820152608081602481739b86b2be8edb2958089e522fe0eb7dd5935975ab5afa9081156106cd5760009161429a575b50602001516001600160601b031690565b6142b2915060803d8111614095576140878183610b58565b38614289565b6040516370a0823160e01b8152306004820152602081602481737f5c764cbc14f9669b88837ca1490cca17c316075afa9081156106cd57600091613b70575090565b60018060a01b0360ca541661434c600092836143146145a6565b614327614320826145d7565b6107089052565b81614331826145e9565b526040518094819263883bdbfd60e01b8352600483016146fe565b03817355bc964fe3b0c8cc2d4c63d65f1be7aef9bb1a3c5afa9081156106cd578461441b9361060196918094614445575b50506143ab816143a561439861439f6143986143d1966145e9565b5160060b90565b926145d7565b9061473f565b926143cb6143be61439f6143be846145e9565b516001600160a01b031690565b90614764565b9160060b916107089283810560020b93600082129182614436575b5050614421575b61440b9060201b600160201b600160c01b0316614792565b506001600160801b0316906147ae565b90614473565b9161442e61440b9161477d565b9290506143f3565b0760060b1515905038806143ec565b6143ab94506143d192509061446b913d8091833e6144638183610b58565b810190614661565b93909161437d565b6144b491600090816144836145a6565b61448f614320826145d7565b81614499826145e9565b526040518096819263883bdbfd60e01b8352600483016146fe565b03817385149247691df622eaf1a8bd0cafd40bc45154a95afa9182156106cd5761060194818094614569575b50506143ab816143a561439861439f6143986144fb966145e9565b9160060b916107089283810560020b9360008212918261455a575b5050614545575b6145359060201b600160201b600160c01b0316614792565b506001600160801b031690614b4b565b916145526145359161477d565b92905061451d565b0760060b151590503880614516565b6143ab94506144fb925090614587913d8091833e6144638183610b58565b9390916144e0565b6001600160401b038111610ae75760051b60200190565b604051906145b382610b3d565b600282526040366020840137565b634e487b7160e01b600052603260045260246000fd5b8051156145e45760200190565b6145c1565b8051600110156145e45760400190565b81601f82011215610360578051916146108361458f565b9261461e6040519485610b58565b808452602092838086019260051b820101928311610360578301905b828210614648575050505090565b83809183516146568161077c565b81520191019061463a565b9190916040818403126103605780516001600160401b0393908481116103605782019381601f860112156103605784519461469b8661458f565b906146a96040519283610b58565b868252602096878084019160051b83010191858311610360578801905b8282106146e557505050948301519081116103605761060192016145f9565b81518060060b81036103605781529088019088016146c6565b6020908160408183019282815285518094520193019160005b828110614725575050505090565b835163ffffffff1685529381019392810192600101614717565b600691820b910b0390667fffffffffffff198212667fffffffffffff8313176114e357565b6001600160a01b0391821690821603919082116114e357565b60020b627fffff1981146114e3576000190190565b6001600160c01b03168015613d855761070860e160a31b030490565b60020b6000811215614b455780600003905b620d89e88211614b33576001821615614b29576ffffcb933bd6fad37aa2d162d1a5940015b6001600160881b03169160028116614b0d575b60048116614af1575b60088116614ad5575b60108116614ab9575b60208116614a9d575b60408116614a81575b608090818116614a66575b6101008116614a4b575b6102008116614a30575b6104008116614a15575b61080081166149fa575b61100081166149df575b61200081166149c4575b61400081166149a9575b618000811661498e575b620100008116614973575b620200008116614959575b62040000811661493f575b6208000016614924575b50600012614916575b63ffffffff811661490e576000905b60201c60ff91909116016001600160a01b0316906001600160801b038083116148fa576148f38361060194613d4f565b9116615035565b6149078361060194614f18565b9116614f5d565b6001906148c3565b61491f90613d78565b6148b4565b6b048a170391f7dc42444e8fa26000929302901c91906148ab565b6d2216e584f5fa1ea926041bedfe98909302811c926148a1565b926e5d6af8dedb81196699c329225ee60402811c92614896565b926f09aa508b5b7a84e1c677de54f3e99bc902811c9261488b565b926f31be135f97d08fd981231505542fcfa602811c92614880565b926f70d869a156d2a1b890bb3df62baf32f702811c92614876565b926fa9f746462d870fdf8a65dc1f90e061e502811c9261486c565b926fd097f3bdfd2022b8845ad8f792aa582502811c92614862565b926fe7159475a2c29b7443b29c7fa6e889d902811c92614858565b926ff3392b0822b70005940c7a398e4b70f302811c9261484e565b926ff987a7253ac413176f2b074cf7815e5402811c92614844565b926ffcbe86c7900a88aedcffc83b479aa3a402811c9261483a565b926ffe5dee046a99a2a811c461f1969c305302811c92614830565b916fff2ea16466c96a3843ec78b326b528610260801c91614825565b916fff973b41fa98c081472e6896dfb254c00260801c9161481c565b916fffcb9843d60f6159c9db58835c9266440260801c91614813565b916fffe5caca7e10e4e61c3624eaa0941cd00260801c9161480a565b916ffff2e50f5f656932ef12357cf3c7fdcc0260801c91614801565b916ffff97272373d413259a46990580e213a0260801c916147f8565b600160801b6147e5565b6040516315e4079d60e11b8152600490fd5b806147c0565b90919060020b6000811215614f0b57806000035b620d89e88111614b335760ff916001821615614f01576ffffcb933bd6fad37aa2d162d1a5940015b6001600160881b03169160028116614ee5575b60048116614ec9575b60088116614ead575b60108116614e91575b60208116614e75575b60408116614e59575b608090818116614e3e575b6101008116614e23575b6102008116614e08575b6104008116614ded575b6108008116614dd2575b6110008116614db7575b6120008116614d9c575b6140008116614d81575b6180008116614d66575b620100008116614d4b575b620200008116614d31575b620400008116614d17575b6208000016614cfc575b50600012614cee575b63ffffffff8116614ce6576000905b6001600160801b03926001600160a01b03921660209190911c018116828111614cb75780614c9291613d4f565b92166006602160991b011015614cad57610601921690615066565b6106019216615035565b80614cc191614f18565b92166006602160991b011015614cdc57610601921690614ff0565b6106019216614f5d565b600190614c65565b614cf790613d78565b614c56565b6b048a170391f7dc42444e8fa26000929302901c9190614c4d565b6d2216e584f5fa1ea926041bedfe98909302811c92614c43565b926e5d6af8dedb81196699c329225ee60402811c92614c38565b926f09aa508b5b7a84e1c677de54f3e99bc902811c92614c2d565b926f31be135f97d08fd981231505542fcfa602811c92614c22565b926f70d869a156d2a1b890bb3df62baf32f702811c92614c18565b926fa9f746462d870fdf8a65dc1f90e061e502811c92614c0e565b926fd097f3bdfd2022b8845ad8f792aa582502811c92614c04565b926fe7159475a2c29b7443b29c7fa6e889d902811c92614bfa565b926ff3392b0822b70005940c7a398e4b70f302811c92614bf0565b926ff987a7253ac413176f2b074cf7815e5402811c92614be6565b926ffcbe86c7900a88aedcffc83b479aa3a402811c92614bdc565b926ffe5dee046a99a2a811c461f1969c305302811c92614bd2565b916fff2ea16466c96a3843ec78b326b528610260801c91614bc7565b916fff973b41fa98c081472e6896dfb254c00260801c91614bbe565b916fffcb9843d60f6159c9db58835c9266440260801c91614bb5565b916fffe5caca7e10e4e61c3624eaa0941cd00260801c91614bac565b916ffff2e50f5f656932ef12357cf3c7fdcc0260801c91614ba3565b916ffff97272373d413259a46990580e213a0260801c91614b9a565b600160801b614b87565b80614b5f565b1561036057565b6000198282099082810292838084109303928084039314614f5457600160401b9183831115610360570990828211900360c01b910360401c1790565b50505060401c90565b90600160801b90600019838309928060801b92838086109503948086039514614fdd57908291614f8e868411614f11565b0981806000031680920460028082600302188083028203028083028203028083028203028083028203028083028203028092029003029360018380600003040190848311900302920304170290565b50509150614fec821515614f11565b0490565b600019828209908281029283808410930392808403931461502c57600160801b9183831115610360570990828211900360801b910360801c1790565b50505060801c90565b90600160c01b90600019838309928060c01b92838086109503948086039514614fdd57908291614f8e868411614f11565b60001982820990828102928380841093039280840393146150a257600160c01b9183831115610360570990828211900360401b910360c01c1790565b50505060c01c9056fe8c0400cfe2d1199b1a725c78960bcc2a344d869b80590d0f2bd005db15a572ce5361666545524332303a206c6f772d6c6576656c2063616c6c206661696c65648be0079c531659141344cd1fd0a4f28419497f9722a3daafe3b4186f6b6457e0fa41487ad5d6728f0b19276fa1eddc16558578f5109fc39d2dc33c3230470dabb0c58532a125fc3c0adccaef396bf65344a4d5781cec2e4c593e6b611d75f150a26469706673582212209721d143af9057b54506ba14683374ff0991bf358b224c092540268082e3e27364736f6c63430008130033",
  "linkReferences": {},
  "deployedLinkReferences": {}
}