{
  "_format": "hh-sol-artifact-1",
  "contractName": "HopStrategyLib",
  "sourceName": "contracts/strategies/utils/HopStrategyLib.sol",
  "abi": [
    {
      "inputs": [],
      "name": "InitializeQuoteBufferWithHopToWantValue",
      "type": "error"
    },
    {
      "inputs": [],
      "name": "MAX_BPS",
      "outputs": [
        {
          "internalType": "uint256",
          "name": "",
          "type": "uint256"
        }
      ],
      "stateMutability": "view",
      "type": "function"
    }
  ],
  "bytecode": "0x608080604052346018576076908161001e823930815050f35b600080fdfe6080806040526004361015601257600080fd5b60003560e01c63fd967f4714602657600080fd5b6000366003190112603b578061271060209252f35b600080fdfea264697066735822122094707fed6dfdd056a51fc08a0e09c6e7be14d78818a64c2138dac054a271338d64736f6c63430008130033",
  "linkReferences": {},
  "deployedLinkReferences": {}
}