{
  "_format": "hh-sol-artifact-1",
  "contractName": "HopStrategyLib",
  "sourceName": "contracts/strategies/utils/HopStrategyLib.sol",
  "abi": [
    {
      "inputs": [],
      "name": "InitializeQuoteBufferWithHopToWantValue",
      "type": "error"
    },
    {
      "inputs": [],
      "name": "MAX_BPS",
      "outputs": [
        {
          "internalType": "uint256",
          "name": "",
          "type": "uint256"
        }
      ],
      "stateMutability": "view",
      "type": "function"
    }
  ],
  "bytecode": "0x6088610038600b82828239805160001a607314602b57634e487b7160e01b600052600060045260246000fd5b30600052607381538281f3fe730000000000000000000000000000000000000000301460806040526004361060335760003560e01c8063fd967f47146038575b600080fd5b604061271081565b60405190815260200160405180910390f3fea2646970667358221220b421e5c6cff733d207e0797bf7a6f21fae0f958124e62674dfaecee3dbf2157464736f6c63430008130033",
  "linkReferences": {},
  "deployedLinkReferences": {}
}