{
  "_format": "hh-sol-artifact-1",
  "contractName": "SgBridge",
  "sourceName": "contracts/SgBridge.sol",
  "abi": [
    {
      "inputs": [
        {
          "internalType": "address",
          "name": "token",
          "type": "address"
        },
        {
          "internalType": "uint16",
          "name": "destChainId",
          "type": "uint16"
        }
      ],
      "name": "TokenNotSupported",
      "type": "error"
    },
    {
      "anonymous": false,
      "inputs": [
        {
          "indexed": true,
          "internalType": "uint16",
          "name": "chainId",
          "type": "uint16"
        },
        {
          "indexed": false,
          "internalType": "uint256",
          "name": "amount",
          "type": "uint256"
        }
      ],
      "name": "Bridge",
      "type": "event"
    },
    {
      "anonymous": false,
      "inputs": [
        {
          "indexed": false,
          "internalType": "uint8",
          "name": "version",
          "type": "uint8"
        }
      ],
      "name": "Initialized",
      "type": "event"
    },
    {
      "anonymous": false,
      "inputs": [
        {
          "indexed": true,
          "internalType": "address",
          "name": "previousOwner",
          "type": "address"
        },
        {
          "indexed": true,
          "internalType": "address",
          "name": "newOwner",
          "type": "address"
        }
      ],
      "name": "OwnershipTransferred",
      "type": "event"
    },
    {
      "inputs": [
        {
          "internalType": "address",
          "name": "_token",
          "type": "address"
        },
        {
          "internalType": "uint256",
          "name": "_amount",
          "type": "uint256"
        },
        {
          "internalType": "uint16",
          "name": "_destChainId",
          "type": "uint16"
        },
        {
          "internalType": "address",
          "name": "_destinationAddress",
          "type": "address"
        },
        {
          "internalType": "bytes",
          "name": "_message",
          "type": "bytes"
        }
      ],
      "name": "bridge",
      "outputs": [],
      "stateMutability": "payable",
      "type": "function"
    },
    {
      "inputs": [],
      "name": "currentChainId",
      "outputs": [
        {
          "internalType": "uint16",
          "name": "",
          "type": "uint16"
        }
      ],
      "stateMutability": "view",
      "type": "function"
    },
    {
      "inputs": [],
      "name": "dstGasForCall",
      "outputs": [
        {
          "internalType": "uint256",
          "name": "",
          "type": "uint256"
        }
      ],
      "stateMutability": "view",
      "type": "function"
    },
    {
      "inputs": [
        {
          "internalType": "uint16",
          "name": "_destChainId",
          "type": "uint16"
        },
        {
          "internalType": "address",
          "name": "_destinationContract",
          "type": "address"
        },
        {
          "internalType": "bytes",
          "name": "_payload",
          "type": "bytes"
        }
      ],
      "name": "feeForBridge",
      "outputs": [
        {
          "internalType": "uint256",
          "name": "",
          "type": "uint256"
        }
      ],
      "stateMutability": "view",
      "type": "function"
    },
    {
      "inputs": [
        {
          "internalType": "address",
          "name": "_router",
          "type": "address"
        },
        {
          "internalType": "uint16",
          "name": "_currentChainId",
          "type": "uint16"
        }
      ],
      "name": "initialize",
      "outputs": [],
      "stateMutability": "nonpayable",
      "type": "function"
    },
    {
      "inputs": [],
      "name": "owner",
      "outputs": [
        {
          "internalType": "address",
          "name": "",
          "type": "address"
        }
      ],
      "stateMutability": "view",
      "type": "function"
    },
    {
      "inputs": [
        {
          "internalType": "address",
          "name": "",
          "type": "address"
        },
        {
          "internalType": "uint16",
          "name": "",
          "type": "uint16"
        }
      ],
      "name": "poolIds",
      "outputs": [
        {
          "internalType": "uint256",
          "name": "",
          "type": "uint256"
        }
      ],
      "stateMutability": "view",
      "type": "function"
    },
    {
      "inputs": [],
      "name": "renounceOwnership",
      "outputs": [],
      "stateMutability": "nonpayable",
      "type": "function"
    },
    {
      "inputs": [],
      "name": "revokeFunds",
      "outputs": [],
      "stateMutability": "nonpayable",
      "type": "function"
    },
    {
      "inputs": [],
      "name": "router",
      "outputs": [
        {
          "internalType": "contract IStargateRouter",
          "name": "",
          "type": "address"
        }
      ],
      "stateMutability": "view",
      "type": "function"
    },
    {
      "inputs": [
        {
          "internalType": "uint16",
          "name": "_currentChainId",
          "type": "uint16"
        }
      ],
      "name": "setCurrentChainId",
      "outputs": [],
      "stateMutability": "nonpayable",
      "type": "function"
    },
    {
      "inputs": [
        {
          "internalType": "uint256",
          "name": "_dstGasForCall",
          "type": "uint256"
        }
      ],
      "name": "setDstGasForCall",
      "outputs": [],
      "stateMutability": "nonpayable",
      "type": "function"
    },
    {
      "inputs": [
        {
          "internalType": "address",
          "name": "_router",
          "type": "address"
        }
      ],
      "name": "setRouter",
      "outputs": [],
      "stateMutability": "nonpayable",
      "type": "function"
    },
    {
      "inputs": [
        {
          "internalType": "uint256",
          "name": "_slippage",
          "type": "uint256"
        }
      ],
      "name": "setSlippage",
      "outputs": [],
      "stateMutability": "nonpayable",
      "type": "function"
    },
    {
      "inputs": [
        {
          "internalType": "address",
          "name": "_token",
          "type": "address"
        },
        {
          "internalType": "uint16",
          "name": "_chainId",
          "type": "uint16"
        },
        {
          "internalType": "uint256",
          "name": "_poolId",
          "type": "uint256"
        }
      ],
      "name": "setStargatePoolId",
      "outputs": [],
      "stateMutability": "nonpayable",
      "type": "function"
    },
    {
      "inputs": [],
      "name": "slippage",
      "outputs": [
        {
          "internalType": "uint256",
          "name": "",
          "type": "uint256"
        }
      ],
      "stateMutability": "view",
      "type": "function"
    },
    {
      "inputs": [
        {
          "internalType": "address",
          "name": "newOwner",
          "type": "address"
        }
      ],
      "name": "transferOwnership",
      "outputs": [],
      "stateMutability": "nonpayable",
      "type": "function"
    },
    {
      "stateMutability": "payable",
      "type": "receive"
    }
  ],
  "bytecode": "0x608060405234801561001057600080fd5b5061150e806100206000396000f3fe6080604052600436106100d25760003560e01c80630dc63461146100de57806324bb7293146101115780632bb8e169146101335780632d606843146101495780633e032a3b1461015e57806355a13fb9146101745780636cbadbfa146101ac578063715018a6146101da57806372408ab6146101ef5780637de07f04146102025780638da5cb5b14610222578063991f218814610244578063c0d7865514610264578063f0fa55a914610284578063f2fde38b146102a4578063f39e69a4146102c4578063f887ea40146102e457600080fd5b366100d957005b600080fd5b3480156100ea57600080fd5b506100fe6100f936600461104e565b610304565b6040519081526020015b60405180910390f35b34801561011d57600080fd5b5061013161012c3660046110ab565b6103d0565b005b34801561013f57600080fd5b506100fe60675481565b34801561015557600080fd5b506101316103f0565b34801561016a57600080fd5b506100fe60665481565b34801561018057600080fd5b506100fe61018f3660046110c6565b606960209081526000928352604080842090915290825290205481565b3480156101b857600080fd5b506068546101c79061ffff1681565b60405161ffff9091168152602001610108565b3480156101e657600080fd5b5061013161043b565b6101316101fd3660046110f9565b61044f565b34801561020e57600080fd5b5061013161021d366004611171565b6105de565b34801561022e57600080fd5b5061023761062d565b60405161010891906111ad565b34801561025057600080fd5b5061013161025f3660046111c1565b61063c565b34801561027057600080fd5b5061013161027f3660046111da565b610649565b34801561029057600080fd5b5061013161029f3660046111c1565b610673565b3480156102b057600080fd5b506101316102bf3660046111da565b610680565b3480156102d057600080fd5b506101316102df3660046110c6565b6106f6565b3480156102f057600080fd5b50606554610237906001600160a01b031681565b60685460009061ffff90811690851603610320575060006103c9565b6065546040516000916001600160a01b031690630a51236990879060019061034c9089906020016111f5565b60405160208183030381529060405287610364610849565b6040518663ffffffff1660e01b8152600401610384959493929190611286565b6040805180830381865afa1580156103a0573d6000803e3d6000fd5b505050506040513d601f19601f820116820180604052508101906103c491906112de565b509150505b9392505050565b6103d86108af565b6068805461ffff191661ffff92909216919091179055565b6103f86108af565b61040061062d565b6001600160a01b03166108fc479081150290604051600060405180830381858888f19350505050158015610438573d6000803e3d6000fd5b50565b6104436108af565b61044d600061090e565b565b6001600160a01b038516600090815260696020908152604080832061ffff87168452909152812054908190036104a557858460405163f7fcd8b160e01b815260040161049c929190611302565b60405180910390fd5b6001600160a01b038616600090815260696020908152604080832060685461ffff168452909152812054908190036104fc5760685460405163f7fcd8b160e01b815261049c91899161ffff90911690600401611302565b60685461ffff908116908616036105b1576105226001600160a01b038816338689610960565b836001600160a01b031663ab8236f3863060405160200161054391906111f5565b60405160208183030381529060405260008b8b896040518763ffffffff1660e01b81526004016105789695949392919061131f565b600060405180830381600087803b15801561059257600080fd5b505af11580156105a6573d6000803e3d6000fd5b5050505050506105d7565b6105c66001600160a01b038816333089610960565b6105d48682878588886109d1565b50505b5050505050565b6105e66108af565b606554610602906001600160a01b038581169116600019610b7a565b6001600160a01b03909216600090815260696020908152604080832061ffff90941683529290522055565b6033546001600160a01b031690565b6106446108af565b606755565b6106516108af565b606580546001600160a01b0319166001600160a01b0392909216919091179055565b61067b6108af565b606655565b6106886108af565b6001600160a01b0381166106ed5760405162461bcd60e51b815260206004820152602660248201527f4f776e61626c653a206e6577206f776e657220697320746865207a65726f206160448201526564647265737360d01b606482015260840161049c565b6104388161090e565b600054610100900460ff16158080156107165750600054600160ff909116105b80610737575061072530610c09565b158015610737575060005460ff166001145b61079a5760405162461bcd60e51b815260206004820152602e60248201527f496e697469616c697a61626c653a20636f6e747261637420697320616c72656160448201526d191e481a5b9a5d1a585b1a5e995960921b606482015260840161049c565b6000805460ff1916600117905580156107bd576000805461ff0019166101001790555b6107c5610c18565b606580546001600160a01b0319166001600160a01b0385161790556068805461ffff191661ffff84161790556126ac6066556207a1206067558015610844576000805461ff0019169055604051600181527f7f26b83ff96e1f2b6a682f133852f6798a09c465da95921460cefb38474024989060200160405180910390a15b505050565b61086d60405180606001604052806000815260200160008152602001606081525090565b60405180606001604052806067548152602001600081526020013060405160200161089891906111ad565b604051602081830303815290604052815250905090565b336108b861062d565b6001600160a01b03161461044d5760405162461bcd60e51b815260206004820181905260248201527f4f776e61626c653a2063616c6c6572206973206e6f7420746865206f776e6572604482015260640161049c565b603380546001600160a01b038381166001600160a01b0319831681179093556040519116919082907f8be0079c531659141344cd1fd0a4f28419497f9722a3daafe3b4186f6b6457e090600090a35050565b6040516001600160a01b03808516602483015283166044820152606481018290526109cb9085906323b872dd60e01b906084015b60408051601f198184030181529190526020810180516001600160e01b03166001600160e01b031990931692909217909152610c47565b50505050565b6000612710606654886109e49190611378565b6109ee919061139d565b6065546040519192506000916001600160a01b0390911690630a512369908890600190610a1f9089906020016111f5565b60405160208183030381529060405287610a37610849565b6040518663ffffffff1660e01b8152600401610a57959493929190611286565b6040805180830381865afa158015610a73573d6000803e3d6000fd5b505050506040513d601f19601f82011682018060405250810190610a9791906112de565b506065549091506001600160a01b0316639fbf10fc82888a89308e89610abb610849565b8d604051602001610acc91906111f5565b6040516020818303038152906040528d6040518b63ffffffff1660e01b8152600401610b00999897969594939291906113bf565b6000604051808303818588803b158015610b1957600080fd5b505af1158015610b2d573d6000803e3d6000fd5b50505050508561ffff167f42fd8c99cc73fcf1104e49cb424169f7d7b874b92fc8aedee2ce6145784b6b9389604051610b6891815260200190565b60405180910390a25050505050505050565b604080516001600160a01b038416602482015260448082018490528251808303909101815260649091019091526020810180516001600160e01b031663095ea7b360e01b179052610bcb8482610d1c565b6109cb576040516001600160a01b038416602482015260006044820152610bff90859063095ea7b360e01b90606401610994565b6109cb8482610c47565b6001600160a01b03163b151590565b600054610100900460ff16610c3f5760405162461bcd60e51b815260040161049c9061143c565b61044d610dc0565b6000610c9c826040518060400160405280602081526020017f5361666545524332303a206c6f772d6c6576656c2063616c6c206661696c6564815250856001600160a01b0316610df09092919063ffffffff16565b9050805160001480610cbd575080806020019051810190610cbd9190611487565b6108445760405162461bcd60e51b815260206004820152602a60248201527f5361666545524332303a204552433230206f7065726174696f6e20646964206e6044820152691bdd081cdd58d8d9595960b21b606482015260840161049c565b6000806000846001600160a01b031684604051610d3991906114a9565b6000604051808303816000865af19150503d8060008114610d76576040519150601f19603f3d011682016040523d82523d6000602084013e610d7b565b606091505b5091509150818015610da5575080511580610da5575080806020019051810190610da59190611487565b8015610db55750610db585610c09565b925050505b92915050565b600054610100900460ff16610de75760405162461bcd60e51b815260040161049c9061143c565b61044d3361090e565b6060610dff8484600085610e07565b949350505050565b606082471015610e685760405162461bcd60e51b815260206004820152602660248201527f416464726573733a20696e73756666696369656e742062616c616e636520666f6044820152651c8818d85b1b60d21b606482015260840161049c565b600080866001600160a01b03168587604051610e8491906114a9565b60006040518083038185875af1925050503d8060008114610ec1576040519150601f19603f3d011682016040523d82523d6000602084013e610ec6565b606091505b5091509150610ed787838387610ee2565b979650505050505050565b60608315610f4f578251600003610f4857610efc85610c09565b610f485760405162461bcd60e51b815260206004820152601d60248201527f416464726573733a2063616c6c20746f206e6f6e2d636f6e7472616374000000604482015260640161049c565b5081610dff565b610dff8383815115610f645781518083602001fd5b8060405162461bcd60e51b815260040161049c91906114c5565b803561ffff81168114610f9057600080fd5b919050565b80356001600160a01b0381168114610f9057600080fd5b634e487b7160e01b600052604160045260246000fd5b600082601f830112610fd357600080fd5b81356001600160401b0380821115610fed57610fed610fac565b604051601f8301601f19908116603f0116810190828211818310171561101557611015610fac565b8160405283815286602085880101111561102e57600080fd5b836020870160208301376000602085830101528094505050505092915050565b60008060006060848603121561106357600080fd5b61106c84610f7e565b925061107a60208501610f95565b915060408401356001600160401b0381111561109557600080fd5b6110a186828701610fc2565b9150509250925092565b6000602082840312156110bd57600080fd5b6103c982610f7e565b600080604083850312156110d957600080fd5b6110e283610f95565b91506110f060208401610f7e565b90509250929050565b600080600080600060a0868803121561111157600080fd5b61111a86610f95565b94506020860135935061112f60408701610f7e565b925061113d60608701610f95565b915060808601356001600160401b0381111561115857600080fd5b61116488828901610fc2565b9150509295509295909350565b60008060006060848603121561118657600080fd5b61118f84610f95565b925061119d60208501610f7e565b9150604084013590509250925092565b6001600160a01b0391909116815260200190565b6000602082840312156111d357600080fd5b5035919050565b6000602082840312156111ec57600080fd5b6103c982610f95565b60609190911b6001600160601b031916815260140190565b60005b83811015611228578181015183820152602001611210565b50506000910152565b6000815180845261124981602086016020860161120d565b601f01601f19169290920160200192915050565b80518252602081015160208301526000604082015160606040850152610dff6060850182611231565b61ffff8616815260ff8516602082015260a0604082015260006112ac60a0830186611231565b82810360608401526112be8186611231565b905082810360808401526112d2818561125d565b98975050505050505050565b600080604083850312156112f157600080fd5b505080516020909101519092909150565b6001600160a01b0392909216825261ffff16602082015260400190565b61ffff8716815260c06020820152600061133c60c0830188611231565b604083018790526001600160a01b03861660608401526080830185905282810360a084015261136b8185611231565b9998505050505050505050565b8082028115828204841417610dba57634e487b7160e01b600052601160045260246000fd5b6000826113ba57634e487b7160e01b600052601260045260246000fd5b500490565b600061012061ffff8c1683528a602084015289604084015260018060a01b03891660608401528760808401528660a08401528060c08401526114038184018761125d565b905082810360e08401526114178186611231565b905082810361010084015261142c8185611231565b9c9b505050505050505050505050565b6020808252602b908201527f496e697469616c697a61626c653a20636f6e7472616374206973206e6f74206960408201526a6e697469616c697a696e6760a81b606082015260800190565b60006020828403121561149957600080fd5b815180151581146103c957600080fd5b600082516114bb81846020870161120d565b9190910192915050565b6020815260006103c9602083018461123156fea2646970667358221220287fc8d179a5ca81a70ed0a95dd2d92eb80c4f2326ee5ae76a7b522fdc625f7764736f6c63430008130033",
  "linkReferences": {},
  "deployedLinkReferences": {}
}