{
  "_format": "hh-sol-artifact-1",
  "contractName": "SgBridge",
  "sourceName": "contracts/SgBridge.sol",
  "abi": [
    {
      "inputs": [
        {
          "internalType": "address",
          "name": "token",
          "type": "address"
        },
        {
          "internalType": "uint16",
          "name": "destChainId",
          "type": "uint16"
        }
      ],
      "name": "TokenNotSupported",
      "type": "error"
    },
    {
      "anonymous": false,
      "inputs": [
        {
          "indexed": true,
          "internalType": "uint16",
          "name": "chainId",
          "type": "uint16"
        },
        {
          "indexed": false,
          "internalType": "uint256",
          "name": "amount",
          "type": "uint256"
        }
      ],
      "name": "Bridge",
      "type": "event"
    },
    {
      "anonymous": false,
      "inputs": [
        {
          "indexed": false,
          "internalType": "uint8",
          "name": "version",
          "type": "uint8"
        }
      ],
      "name": "Initialized",
      "type": "event"
    },
    {
      "anonymous": false,
      "inputs": [
        {
          "indexed": true,
          "internalType": "address",
          "name": "previousOwner",
          "type": "address"
        },
        {
          "indexed": true,
          "internalType": "address",
          "name": "newOwner",
          "type": "address"
        }
      ],
      "name": "OwnershipTransferred",
      "type": "event"
    },
    {
      "inputs": [
        {
          "internalType": "address",
          "name": "_token",
          "type": "address"
        },
        {
          "internalType": "uint256",
          "name": "_amount",
          "type": "uint256"
        },
        {
          "internalType": "uint16",
          "name": "_destChainId",
          "type": "uint16"
        },
        {
          "internalType": "address",
          "name": "_destinationAddress",
          "type": "address"
        },
        {
          "internalType": "bytes",
          "name": "_message",
          "type": "bytes"
        }
      ],
      "name": "bridge",
      "outputs": [],
      "stateMutability": "payable",
      "type": "function"
    },
    {
      "inputs": [],
      "name": "currentChainId",
      "outputs": [
        {
          "internalType": "uint16",
          "name": "",
          "type": "uint16"
        }
      ],
      "stateMutability": "view",
      "type": "function"
    },
    {
      "inputs": [],
      "name": "dstGasForCall",
      "outputs": [
        {
          "internalType": "uint256",
          "name": "",
          "type": "uint256"
        }
      ],
      "stateMutability": "view",
      "type": "function"
    },
    {
      "inputs": [
        {
          "internalType": "uint16",
          "name": "_destChainId",
          "type": "uint16"
        },
        {
          "internalType": "address",
          "name": "_destinationContract",
          "type": "address"
        },
        {
          "internalType": "bytes",
          "name": "_payload",
          "type": "bytes"
        }
      ],
      "name": "feeForBridge",
      "outputs": [
        {
          "internalType": "uint256",
          "name": "",
          "type": "uint256"
        }
      ],
      "stateMutability": "view",
      "type": "function"
    },
    {
      "inputs": [
        {
          "internalType": "address",
          "name": "_router",
          "type": "address"
        },
        {
          "internalType": "uint16",
          "name": "_currentChainId",
          "type": "uint16"
        }
      ],
      "name": "initialize",
      "outputs": [],
      "stateMutability": "nonpayable",
      "type": "function"
    },
    {
      "inputs": [],
      "name": "owner",
      "outputs": [
        {
          "internalType": "address",
          "name": "",
          "type": "address"
        }
      ],
      "stateMutability": "view",
      "type": "function"
    },
    {
      "inputs": [
        {
          "internalType": "address",
          "name": "",
          "type": "address"
        },
        {
          "internalType": "uint16",
          "name": "",
          "type": "uint16"
        }
      ],
      "name": "poolIds",
      "outputs": [
        {
          "internalType": "uint256",
          "name": "",
          "type": "uint256"
        }
      ],
      "stateMutability": "view",
      "type": "function"
    },
    {
      "inputs": [],
      "name": "renounceOwnership",
      "outputs": [],
      "stateMutability": "nonpayable",
      "type": "function"
    },
    {
      "inputs": [],
      "name": "revokeFunds",
      "outputs": [],
      "stateMutability": "nonpayable",
      "type": "function"
    },
    {
      "inputs": [],
      "name": "router",
      "outputs": [
        {
          "internalType": "contract IStargateRouter",
          "name": "",
          "type": "address"
        }
      ],
      "stateMutability": "view",
      "type": "function"
    },
    {
      "inputs": [
        {
          "internalType": "uint16",
          "name": "_currentChainId",
          "type": "uint16"
        }
      ],
      "name": "setCurrentChainId",
      "outputs": [],
      "stateMutability": "nonpayable",
      "type": "function"
    },
    {
      "inputs": [
        {
          "internalType": "uint256",
          "name": "_dstGasForCall",
          "type": "uint256"
        }
      ],
      "name": "setDstGasForCall",
      "outputs": [],
      "stateMutability": "nonpayable",
      "type": "function"
    },
    {
      "inputs": [
        {
          "internalType": "address",
          "name": "_router",
          "type": "address"
        }
      ],
      "name": "setRouter",
      "outputs": [],
      "stateMutability": "nonpayable",
      "type": "function"
    },
    {
      "inputs": [
        {
          "internalType": "uint256",
          "name": "_slippage",
          "type": "uint256"
        }
      ],
      "name": "setSlippage",
      "outputs": [],
      "stateMutability": "nonpayable",
      "type": "function"
    },
    {
      "inputs": [
        {
          "internalType": "address",
          "name": "_token",
          "type": "address"
        },
        {
          "internalType": "uint16",
          "name": "_chainId",
          "type": "uint16"
        },
        {
          "internalType": "uint256",
          "name": "_poolId",
          "type": "uint256"
        }
      ],
      "name": "setStargatePoolId",
      "outputs": [],
      "stateMutability": "nonpayable",
      "type": "function"
    },
    {
      "inputs": [],
      "name": "slippage",
      "outputs": [
        {
          "internalType": "uint256",
          "name": "",
          "type": "uint256"
        }
      ],
      "stateMutability": "view",
      "type": "function"
    },
    {
      "inputs": [
        {
          "internalType": "address",
          "name": "newOwner",
          "type": "address"
        }
      ],
      "name": "transferOwnership",
      "outputs": [],
      "stateMutability": "nonpayable",
      "type": "function"
    },
    {
      "stateMutability": "payable",
      "type": "receive"
    }
  ],
  "bytecode": "0x608060405234801561001057600080fd5b50611504806100206000396000f3fe6080604052600436106100e25760003560e01c806372408ab61161008557806372408ab6146101ff5780637de07f04146102125780638da5cb5b14610232578063991f218814610264578063c0d7865514610284578063f0fa55a9146102a4578063f2fde38b146102c4578063f39e69a4146102e4578063f887ea401461030457600080fd5b80630dc63461146100ee57806324bb7293146101215780632bb8e169146101435780632d606843146101595780633e032a3b1461016e57806355a13fb9146101845780636cbadbfa146101bc578063715018a6146101ea57600080fd5b366100e957005b600080fd5b3480156100fa57600080fd5b5061010e61010936600461106e565b610324565b6040519081526020015b60405180910390f35b34801561012d57600080fd5b5061014161013c3660046110cc565b6103f0565b005b34801561014f57600080fd5b5061010e60675481565b34801561016557600080fd5b50610141610410565b34801561017a57600080fd5b5061010e60665481565b34801561019057600080fd5b5061010e61019f3660046110e7565b606960209081526000928352604080842090915290825290205481565b3480156101c857600080fd5b506068546101d79061ffff1681565b60405161ffff9091168152602001610118565b3480156101f657600080fd5b50610141610454565b61014161020d36600461111a565b610468565b34801561021e57600080fd5b5061014161022d366004611193565b610611565b34801561023e57600080fd5b506033546001600160a01b03165b6040516001600160a01b039091168152602001610118565b34801561027057600080fd5b5061014161027f3660046111cf565b610660565b34801561029057600080fd5b5061014161029f3660046111e8565b61066d565b3480156102b057600080fd5b506101416102bf3660046111cf565b610697565b3480156102d057600080fd5b506101416102df3660046111e8565b6106a4565b3480156102f057600080fd5b506101416102ff3660046110e7565b61071a565b34801561031057600080fd5b5060655461024c906001600160a01b031681565b60685460009061ffff90811690851603610340575060006103e9565b6065546040516000916001600160a01b031690630a51236990879060019061036c908990602001611203565b60405160208183030381529060405287610384610866565b6040518663ffffffff1660e01b81526004016103a4959493929190611299565b6040805180830381865afa1580156103c0573d6000803e3d6000fd5b505050506040513d601f19601f820116820180604052508101906103e491906112f1565b509150505b9392505050565b6103f86108db565b6068805461ffff191661ffff92909216919091179055565b6104186108db565b6033546040516001600160a01b03909116904780156108fc02916000818181858888f19350505050158015610451573d6000803e3d6000fd5b50565b61045c6108db565b6104666000610935565b565b6001600160a01b038516600090815260696020908152604080832061ffff87168452909152812054908190036104cb5760405163f7fcd8b160e01b81526001600160a01b038716600482015261ffff851660248201526044015b60405180910390fd5b6001600160a01b038616600090815260696020908152604080832060685461ffff1684529091528120549081900361052f5760685460405163f7fcd8b160e01b81526001600160a01b038916600482015261ffff90911660248201526044016104c2565b60685461ffff908116908616036105e4576105556001600160a01b038816338689610987565b836001600160a01b031663ab8236f386306040516020016105769190611203565b60405160208183030381529060405260008b8b896040518763ffffffff1660e01b81526004016105ab96959493929190611315565b600060405180830381600087803b1580156105c557600080fd5b505af11580156105d9573d6000803e3d6000fd5b50505050505061060a565b6105f96001600160a01b038816333089610987565b6106078682878588886109f8565b50505b5050505050565b6106196108db565b606554610635906001600160a01b038581169116600019610ba1565b6001600160a01b03909216600090815260696020908152604080832061ffff90941683529290522055565b6106686108db565b606755565b6106756108db565b606580546001600160a01b0319166001600160a01b0392909216919091179055565b61069f6108db565b606655565b6106ac6108db565b6001600160a01b0381166107115760405162461bcd60e51b815260206004820152602660248201527f4f776e61626c653a206e6577206f776e657220697320746865207a65726f206160448201526564647265737360d01b60648201526084016104c2565b61045181610935565b600054610100900460ff161580801561073a5750600054600160ff909116105b806107545750303b158015610754575060005460ff166001145b6107b75760405162461bcd60e51b815260206004820152602e60248201527f496e697469616c697a61626c653a20636f6e747261637420697320616c72656160448201526d191e481a5b9a5d1a585b1a5e995960921b60648201526084016104c2565b6000805460ff1916600117905580156107da576000805461ff0019166101001790555b6107e2610c30565b606580546001600160a01b0319166001600160a01b0385161790556068805461ffff191661ffff84161790556126ac606655620f42406067558015610861576000805461ff0019169055604051600181527f7f26b83ff96e1f2b6a682f133852f6798a09c465da95921460cefb38474024989060200160405180910390a15b505050565b61088a60405180606001604052806000815260200160008152602001606081525090565b6040518060600160405280606754815260200160008152602001306040516020016108c491906001600160a01b0391909116815260200190565b604051602081830303815290604052815250905090565b6033546001600160a01b031633146104665760405162461bcd60e51b815260206004820181905260248201527f4f776e61626c653a2063616c6c6572206973206e6f7420746865206f776e657260448201526064016104c2565b603380546001600160a01b038381166001600160a01b0319831681179093556040519116919082907f8be0079c531659141344cd1fd0a4f28419497f9722a3daafe3b4186f6b6457e090600090a35050565b6040516001600160a01b03808516602483015283166044820152606481018290526109f29085906323b872dd60e01b906084015b60408051601f198184030181529190526020810180516001600160e01b03166001600160e01b031990931692909217909152610c5f565b50505050565b600061271060665488610a0b919061136e565b610a159190611393565b6065546040519192506000916001600160a01b0390911690630a512369908890600190610a46908990602001611203565b60405160208183030381529060405287610a5e610866565b6040518663ffffffff1660e01b8152600401610a7e959493929190611299565b6040805180830381865afa158015610a9a573d6000803e3d6000fd5b505050506040513d601f19601f82011682018060405250810190610abe91906112f1565b506065549091506001600160a01b0316639fbf10fc82888a89308e89610ae2610866565b8d604051602001610af39190611203565b6040516020818303038152906040528d6040518b63ffffffff1660e01b8152600401610b27999897969594939291906113b5565b6000604051808303818588803b158015610b4057600080fd5b505af1158015610b54573d6000803e3d6000fd5b50505050508561ffff167f42fd8c99cc73fcf1104e49cb424169f7d7b874b92fc8aedee2ce6145784b6b9389604051610b8f91815260200190565b60405180910390a25050505050505050565b604080516001600160a01b038416602482015260448082018490528251808303909101815260649091019091526020810180516001600160e01b031663095ea7b360e01b179052610bf28482610d34565b6109f2576040516001600160a01b038416602482015260006044820152610c2690859063095ea7b360e01b906064016109bb565b6109f28482610c5f565b600054610100900460ff16610c575760405162461bcd60e51b81526004016104c290611432565b610466610ddd565b6000610cb4826040518060400160405280602081526020017f5361666545524332303a206c6f772d6c6576656c2063616c6c206661696c6564815250856001600160a01b0316610e0d9092919063ffffffff16565b9050805160001480610cd5575080806020019051810190610cd5919061147d565b6108615760405162461bcd60e51b815260206004820152602a60248201527f5361666545524332303a204552433230206f7065726174696f6e20646964206e6044820152691bdd081cdd58d8d9595960b21b60648201526084016104c2565b6000806000846001600160a01b031684604051610d51919061149f565b6000604051808303816000865af19150503d8060008114610d8e576040519150601f19603f3d011682016040523d82523d6000602084013e610d93565b606091505b5091509150818015610dbd575080511580610dbd575080806020019051810190610dbd919061147d565b8015610dd257506001600160a01b0385163b15155b925050505b92915050565b600054610100900460ff16610e045760405162461bcd60e51b81526004016104c290611432565b61046633610935565b6060610e1c8484600085610e24565b949350505050565b606082471015610e855760405162461bcd60e51b815260206004820152602660248201527f416464726573733a20696e73756666696369656e742062616c616e636520666f6044820152651c8818d85b1b60d21b60648201526084016104c2565b600080866001600160a01b03168587604051610ea1919061149f565b60006040518083038185875af1925050503d8060008114610ede576040519150601f19603f3d011682016040523d82523d6000602084013e610ee3565b606091505b5091509150610ef487838387610eff565b979650505050505050565b60608315610f6e578251600003610f67576001600160a01b0385163b610f675760405162461bcd60e51b815260206004820152601d60248201527f416464726573733a2063616c6c20746f206e6f6e2d636f6e747261637400000060448201526064016104c2565b5081610e1c565b610e1c8383815115610f835781518083602001fd5b8060405162461bcd60e51b81526004016104c291906114bb565b803561ffff81168114610faf57600080fd5b919050565b80356001600160a01b0381168114610faf57600080fd5b634e487b7160e01b600052604160045260246000fd5b600082601f830112610ff257600080fd5b813567ffffffffffffffff8082111561100d5761100d610fcb565b604051601f8301601f19908116603f0116810190828211818310171561103557611035610fcb565b8160405283815286602085880101111561104e57600080fd5b836020870160208301376000602085830101528094505050505092915050565b60008060006060848603121561108357600080fd5b61108c84610f9d565b925061109a60208501610fb4565b9150604084013567ffffffffffffffff8111156110b657600080fd5b6110c286828701610fe1565b9150509250925092565b6000602082840312156110de57600080fd5b6103e982610f9d565b600080604083850312156110fa57600080fd5b61110383610fb4565b915061111160208401610f9d565b90509250929050565b600080600080600060a0868803121561113257600080fd5b61113b86610fb4565b94506020860135935061115060408701610f9d565b925061115e60608701610fb4565b9150608086013567ffffffffffffffff81111561117a57600080fd5b61118688828901610fe1565b9150509295509295909350565b6000806000606084860312156111a857600080fd5b6111b184610fb4565b92506111bf60208501610f9d565b9150604084013590509250925092565b6000602082840312156111e157600080fd5b5035919050565b6000602082840312156111fa57600080fd5b6103e982610fb4565b60609190911b6bffffffffffffffffffffffff1916815260140190565b60005b8381101561123b578181015183820152602001611223565b50506000910152565b6000815180845261125c816020860160208601611220565b601f01601f19169290920160200192915050565b80518252602081015160208301526000604082015160606040850152610e1c6060850182611244565b61ffff8616815260ff8516602082015260a0604082015260006112bf60a0830186611244565b82810360608401526112d18186611244565b905082810360808401526112e58185611270565b98975050505050505050565b6000806040838503121561130457600080fd5b505080516020909101519092909150565b61ffff8716815260c06020820152600061133260c0830188611244565b604083018790526001600160a01b03861660608401526080830185905282810360a08401526113618185611244565b9998505050505050505050565b8082028115828204841417610dd757634e487b7160e01b600052601160045260246000fd5b6000826113b057634e487b7160e01b600052601260045260246000fd5b500490565b600061012061ffff8c1683528a602084015289604084015260018060a01b03891660608401528760808401528660a08401528060c08401526113f981840187611270565b905082810360e084015261140d8186611244565b90508281036101008401526114228185611244565b9c9b505050505050505050505050565b6020808252602b908201527f496e697469616c697a61626c653a20636f6e7472616374206973206e6f74206960408201526a6e697469616c697a696e6760a81b606082015260800190565b60006020828403121561148f57600080fd5b815180151581146103e957600080fd5b600082516114b1818460208701611220565b9190910192915050565b6020815260006103e9602083018461124456fea26469706673582212207861b6a27ab6de506b4ff4d9bf03bbd63ab0d493a863661ee42f1769d073f1b464736f6c63430008130033",
  "linkReferences": {},
  "deployedLinkReferences": {}
}