{
  "_format": "hh-sol-artifact-1",
  "contractName": "PearlStrategy",
  "sourceName": "contracts/strategies/PearlStrategy.sol",
  "abi": [
    {
      "inputs": [
        {
          "internalType": "uint256",
          "name": "messageType",
          "type": "uint256"
        }
      ],
      "name": "IncorrectMessageType",
      "type": "error"
    },
    {
      "inputs": [
        {
          "internalType": "uint256",
          "name": "amount",
          "type": "uint256"
        },
        {
          "internalType": "uint256",
          "name": "balance",
          "type": "uint256"
        }
      ],
      "name": "InsufficientFunds",
      "type": "error"
    },
    {
      "anonymous": false,
      "inputs": [
        {
          "indexed": false,
          "internalType": "uint256",
          "name": "debtOutstanding",
          "type": "uint256"
        }
      ],
      "name": "AdjustedPosition",
      "type": "event"
    },
    {
      "anonymous": false,
      "inputs": [
        {
          "indexed": false,
          "internalType": "uint8",
          "name": "version",
          "type": "uint8"
        }
      ],
      "name": "Initialized",
      "type": "event"
    },
    {
      "anonymous": false,
      "inputs": [
        {
          "indexed": false,
          "internalType": "uint16",
          "name": "_srcChainId",
          "type": "uint16"
        },
        {
          "indexed": false,
          "internalType": "bytes",
          "name": "_srcAddress",
          "type": "bytes"
        },
        {
          "indexed": false,
          "internalType": "uint64",
          "name": "_nonce",
          "type": "uint64"
        },
        {
          "indexed": false,
          "internalType": "bytes",
          "name": "_payload",
          "type": "bytes"
        },
        {
          "indexed": false,
          "internalType": "bytes",
          "name": "_reason",
          "type": "bytes"
        }
      ],
      "name": "MessageFailed",
      "type": "event"
    },
    {
      "anonymous": false,
      "inputs": [
        {
          "indexed": true,
          "internalType": "address",
          "name": "previousOwner",
          "type": "address"
        },
        {
          "indexed": true,
          "internalType": "address",
          "name": "newOwner",
          "type": "address"
        }
      ],
      "name": "OwnershipTransferred",
      "type": "event"
    },
    {
      "anonymous": false,
      "inputs": [
        {
          "indexed": false,
          "internalType": "uint16",
          "name": "_srcChainId",
          "type": "uint16"
        },
        {
          "indexed": false,
          "internalType": "bytes",
          "name": "_srcAddress",
          "type": "bytes"
        },
        {
          "indexed": false,
          "internalType": "uint64",
          "name": "_nonce",
          "type": "uint64"
        },
        {
          "indexed": false,
          "internalType": "bytes32",
          "name": "_payloadHash",
          "type": "bytes32"
        }
      ],
      "name": "RetryMessageSuccess",
      "type": "event"
    },
    {
      "anonymous": false,
      "inputs": [
        {
          "indexed": false,
          "internalType": "uint16",
          "name": "_dstChainId",
          "type": "uint16"
        },
        {
          "indexed": false,
          "internalType": "uint16",
          "name": "_type",
          "type": "uint16"
        },
        {
          "indexed": false,
          "internalType": "uint256",
          "name": "_minDstGas",
          "type": "uint256"
        }
      ],
      "name": "SetMinDstGas",
      "type": "event"
    },
    {
      "anonymous": false,
      "inputs": [
        {
          "indexed": false,
          "internalType": "address",
          "name": "precrime",
          "type": "address"
        }
      ],
      "name": "SetPrecrime",
      "type": "event"
    },
    {
      "anonymous": false,
      "inputs": [
        {
          "indexed": false,
          "internalType": "uint16",
          "name": "_remoteChainId",
          "type": "uint16"
        },
        {
          "indexed": false,
          "internalType": "bytes",
          "name": "_path",
          "type": "bytes"
        }
      ],
      "name": "SetTrustedRemote",
      "type": "event"
    },
    {
      "anonymous": false,
      "inputs": [
        {
          "indexed": false,
          "internalType": "uint16",
          "name": "_remoteChainId",
          "type": "uint16"
        },
        {
          "indexed": false,
          "internalType": "bytes",
          "name": "_remoteAddress",
          "type": "bytes"
        }
      ],
      "name": "SetTrustedRemoteAddress",
      "type": "event"
    },
    {
      "anonymous": false,
      "inputs": [
        {
          "indexed": true,
          "internalType": "address",
          "name": "token",
          "type": "address"
        },
        {
          "indexed": false,
          "internalType": "uint256",
          "name": "amount",
          "type": "uint256"
        },
        {
          "indexed": false,
          "internalType": "address",
          "name": "sender",
          "type": "address"
        }
      ],
      "name": "SgReceived",
      "type": "event"
    },
    {
      "anonymous": false,
      "inputs": [
        {
          "indexed": false,
          "internalType": "address",
          "name": "newStrategy",
          "type": "address"
        }
      ],
      "name": "StrategyMigrated",
      "type": "event"
    },
    {
      "anonymous": false,
      "inputs": [
        {
          "indexed": false,
          "internalType": "uint256",
          "name": "profit",
          "type": "uint256"
        },
        {
          "indexed": false,
          "internalType": "uint256",
          "name": "loss",
          "type": "uint256"
        },
        {
          "indexed": false,
          "internalType": "uint256",
          "name": "debtPayment",
          "type": "uint256"
        },
        {
          "indexed": false,
          "internalType": "uint256",
          "name": "giveToStrategy",
          "type": "uint256"
        },
        {
          "indexed": false,
          "internalType": "uint256",
          "name": "requestFromStrategy",
          "type": "uint256"
        },
        {
          "indexed": false,
          "internalType": "uint256",
          "name": "creditAvailable",
          "type": "uint256"
        },
        {
          "indexed": false,
          "internalType": "uint256",
          "name": "totalAssets",
          "type": "uint256"
        }
      ],
      "name": "StrategyReported",
      "type": "event"
    },
    {
      "inputs": [],
      "name": "DEFAULT_PAYLOAD_SIZE_LIMIT",
      "outputs": [
        {
          "internalType": "uint256",
          "name": "",
          "type": "uint256"
        }
      ],
      "stateMutability": "view",
      "type": "function"
    },
    {
      "inputs": [],
      "name": "DEFAULT_SLIPPAGE",
      "outputs": [
        {
          "internalType": "uint256",
          "name": "",
          "type": "uint256"
        }
      ],
      "stateMutability": "view",
      "type": "function"
    },
    {
      "inputs": [
        {
          "internalType": "uint256",
          "name": "_debtOutstanding",
          "type": "uint256"
        }
      ],
      "name": "adjustPosition",
      "outputs": [],
      "stateMutability": "nonpayable",
      "type": "function"
    },
    {
      "inputs": [],
      "name": "balanceOfLpStaked",
      "outputs": [
        {
          "internalType": "uint256",
          "name": "",
          "type": "uint256"
        }
      ],
      "stateMutability": "view",
      "type": "function"
    },
    {
      "inputs": [],
      "name": "balanceOfPearlRewards",
      "outputs": [
        {
          "internalType": "uint256",
          "name": "",
          "type": "uint256"
        }
      ],
      "stateMutability": "view",
      "type": "function"
    },
    {
      "inputs": [],
      "name": "balanceOfWant",
      "outputs": [
        {
          "internalType": "uint256",
          "name": "",
          "type": "uint256"
        }
      ],
      "stateMutability": "view",
      "type": "function"
    },
    {
      "inputs": [
        {
          "internalType": "uint256",
          "name": "epoch",
          "type": "uint256"
        }
      ],
      "name": "callMe",
      "outputs": [],
      "stateMutability": "nonpayable",
      "type": "function"
    },
    {
      "inputs": [],
      "name": "clearWant",
      "outputs": [],
      "stateMutability": "nonpayable",
      "type": "function"
    },
    {
      "inputs": [],
      "name": "currentChainId",
      "outputs": [
        {
          "internalType": "uint16",
          "name": "",
          "type": "uint16"
        }
      ],
      "stateMutability": "view",
      "type": "function"
    },
    {
      "inputs": [
        {
          "internalType": "uint256",
          "name": "_daiAmount",
          "type": "uint256"
        }
      ],
      "name": "daiToWant",
      "outputs": [
        {
          "internalType": "uint256",
          "name": "",
          "type": "uint256"
        }
      ],
      "stateMutability": "view",
      "type": "function"
    },
    {
      "inputs": [],
      "name": "emergencyExit",
      "outputs": [
        {
          "internalType": "bool",
          "name": "",
          "type": "bool"
        }
      ],
      "stateMutability": "view",
      "type": "function"
    },
    {
      "inputs": [],
      "name": "estimatedTotalAssets",
      "outputs": [
        {
          "internalType": "uint256",
          "name": "",
          "type": "uint256"
        }
      ],
      "stateMutability": "view",
      "type": "function"
    },
    {
      "inputs": [
        {
          "internalType": "uint16",
          "name": "",
          "type": "uint16"
        },
        {
          "internalType": "bytes",
          "name": "",
          "type": "bytes"
        },
        {
          "internalType": "uint64",
          "name": "",
          "type": "uint64"
        }
      ],
      "name": "failedMessages",
      "outputs": [
        {
          "internalType": "bytes32",
          "name": "",
          "type": "bytes32"
        }
      ],
      "stateMutability": "view",
      "type": "function"
    },
    {
      "inputs": [
        {
          "internalType": "uint16",
          "name": "_srcChainId",
          "type": "uint16"
        },
        {
          "internalType": "bytes",
          "name": "_srcAddress",
          "type": "bytes"
        }
      ],
      "name": "forceResumeReceive",
      "outputs": [],
      "stateMutability": "nonpayable",
      "type": "function"
    },
    {
      "inputs": [
        {
          "internalType": "uint16",
          "name": "_version",
          "type": "uint16"
        },
        {
          "internalType": "uint16",
          "name": "_chainId",
          "type": "uint16"
        },
        {
          "internalType": "address",
          "name": "",
          "type": "address"
        },
        {
          "internalType": "uint256",
          "name": "_configType",
          "type": "uint256"
        }
      ],
      "name": "getConfig",
      "outputs": [
        {
          "internalType": "bytes",
          "name": "",
          "type": "bytes"
        }
      ],
      "stateMutability": "view",
      "type": "function"
    },
    {
      "inputs": [
        {
          "internalType": "bytes32",
          "name": "_messageHash",
          "type": "bytes32"
        }
      ],
      "name": "getEthSignedMessageHash",
      "outputs": [
        {
          "internalType": "bytes32",
          "name": "",
          "type": "bytes32"
        }
      ],
      "stateMutability": "pure",
      "type": "function"
    },
    {
      "inputs": [
        {
          "internalType": "uint16",
          "name": "_remoteChainId",
          "type": "uint16"
        }
      ],
      "name": "getTrustedRemoteAddress",
      "outputs": [
        {
          "internalType": "bytes",
          "name": "",
          "type": "bytes"
        }
      ],
      "stateMutability": "view",
      "type": "function"
    },
    {
      "inputs": [
        {
          "internalType": "uint256",
          "name": "_totalDebt",
          "type": "uint256"
        },
        {
          "internalType": "uint256",
          "name": "_debtOutstanding",
          "type": "uint256"
        },
        {
          "internalType": "uint256",
          "name": "_creditAvailable",
          "type": "uint256"
        },
        {
          "internalType": "uint256",
          "name": "_debtRatio",
          "type": "uint256"
        },
        {
          "internalType": "bytes",
          "name": "_signature",
          "type": "bytes"
        }
      ],
      "name": "harvest",
      "outputs": [],
      "stateMutability": "nonpayable",
      "type": "function"
    },
    {
      "inputs": [
        {
          "internalType": "address",
          "name": "_lzEndpoint",
          "type": "address"
        },
        {
          "internalType": "address",
          "name": "_strategist",
          "type": "address"
        },
        {
          "internalType": "contract IERC20",
          "name": "_want",
          "type": "address"
        },
        {
          "internalType": "address",
          "name": "_vault",
          "type": "address"
        },
        {
          "internalType": "uint16",
          "name": "_vaultChainId",
          "type": "uint16"
        },
        {
          "internalType": "uint16",
          "name": "_currentChainId",
          "type": "uint16"
        },
        {
          "internalType": "address",
          "name": "_sgBridge",
          "type": "address"
        },
        {
          "internalType": "address",
          "name": "_router",
          "type": "address"
        }
      ],
      "name": "initialize",
      "outputs": [],
      "stateMutability": "nonpayable",
      "type": "function"
    },
    {
      "inputs": [
        {
          "internalType": "uint16",
          "name": "_srcChainId",
          "type": "uint16"
        },
        {
          "internalType": "bytes",
          "name": "_srcAddress",
          "type": "bytes"
        }
      ],
      "name": "isTrustedRemote",
      "outputs": [
        {
          "internalType": "bool",
          "name": "",
          "type": "bool"
        }
      ],
      "stateMutability": "view",
      "type": "function"
    },
    {
      "inputs": [],
      "name": "lzEndpoint",
      "outputs": [
        {
          "internalType": "contract ILayerZeroEndpointUpgradeable",
          "name": "",
          "type": "address"
        }
      ],
      "stateMutability": "view",
      "type": "function"
    },
    {
      "inputs": [
        {
          "internalType": "uint16",
          "name": "_srcChainId",
          "type": "uint16"
        },
        {
          "internalType": "bytes",
          "name": "_srcAddress",
          "type": "bytes"
        },
        {
          "internalType": "uint64",
          "name": "_nonce",
          "type": "uint64"
        },
        {
          "internalType": "bytes",
          "name": "_payload",
          "type": "bytes"
        }
      ],
      "name": "lzReceive",
      "outputs": [],
      "stateMutability": "nonpayable",
      "type": "function"
    },
    {
      "inputs": [
        {
          "internalType": "uint16",
          "name": "",
          "type": "uint16"
        },
        {
          "internalType": "uint16",
          "name": "",
          "type": "uint16"
        }
      ],
      "name": "minDstGasLookup",
      "outputs": [
        {
          "internalType": "uint256",
          "name": "",
          "type": "uint256"
        }
      ],
      "stateMutability": "view",
      "type": "function"
    },
    {
      "inputs": [],
      "name": "name",
      "outputs": [
        {
          "internalType": "string",
          "name": "",
          "type": "string"
        }
      ],
      "stateMutability": "pure",
      "type": "function"
    },
    {
      "inputs": [
        {
          "internalType": "uint16",
          "name": "_srcChainId",
          "type": "uint16"
        },
        {
          "internalType": "bytes",
          "name": "_srcAddress",
          "type": "bytes"
        },
        {
          "internalType": "uint64",
          "name": "_nonce",
          "type": "uint64"
        },
        {
          "internalType": "bytes",
          "name": "_payload",
          "type": "bytes"
        }
      ],
      "name": "nonblockingLzReceive",
      "outputs": [],
      "stateMutability": "nonpayable",
      "type": "function"
    },
    {
      "inputs": [],
      "name": "owner",
      "outputs": [
        {
          "internalType": "address",
          "name": "",
          "type": "address"
        }
      ],
      "stateMutability": "view",
      "type": "function"
    },
    {
      "inputs": [
        {
          "internalType": "uint16",
          "name": "",
          "type": "uint16"
        }
      ],
      "name": "payloadSizeLimitLookup",
      "outputs": [
        {
          "internalType": "uint256",
          "name": "",
          "type": "uint256"
        }
      ],
      "stateMutability": "view",
      "type": "function"
    },
    {
      "inputs": [
        {
          "internalType": "uint256",
          "name": "_pearlAmount",
          "type": "uint256"
        }
      ],
      "name": "pearlToWant",
      "outputs": [
        {
          "internalType": "uint256",
          "name": "",
          "type": "uint256"
        }
      ],
      "stateMutability": "view",
      "type": "function"
    },
    {
      "inputs": [],
      "name": "precrime",
      "outputs": [
        {
          "internalType": "address",
          "name": "",
          "type": "address"
        }
      ],
      "stateMutability": "view",
      "type": "function"
    },
    {
      "inputs": [],
      "name": "renounceOwnership",
      "outputs": [],
      "stateMutability": "nonpayable",
      "type": "function"
    },
    {
      "inputs": [
        {
          "internalType": "uint16",
          "name": "_srcChainId",
          "type": "uint16"
        },
        {
          "internalType": "bytes",
          "name": "_srcAddress",
          "type": "bytes"
        },
        {
          "internalType": "uint64",
          "name": "_nonce",
          "type": "uint64"
        },
        {
          "internalType": "bytes",
          "name": "_payload",
          "type": "bytes"
        }
      ],
      "name": "retryMessage",
      "outputs": [],
      "stateMutability": "payable",
      "type": "function"
    },
    {
      "inputs": [],
      "name": "revokeFunds",
      "outputs": [],
      "stateMutability": "nonpayable",
      "type": "function"
    },
    {
      "inputs": [
        {
          "internalType": "uint16",
          "name": "_version",
          "type": "uint16"
        },
        {
          "internalType": "uint16",
          "name": "_chainId",
          "type": "uint16"
        },
        {
          "internalType": "uint256",
          "name": "_configType",
          "type": "uint256"
        },
        {
          "internalType": "bytes",
          "name": "_config",
          "type": "bytes"
        }
      ],
      "name": "setConfig",
      "outputs": [],
      "stateMutability": "nonpayable",
      "type": "function"
    },
    {
      "inputs": [
        {
          "internalType": "bool",
          "name": "_emergencyExit",
          "type": "bool"
        }
      ],
      "name": "setEmergencyExit",
      "outputs": [],
      "stateMutability": "nonpayable",
      "type": "function"
    },
    {
      "inputs": [
        {
          "internalType": "uint16",
          "name": "_dstChainId",
          "type": "uint16"
        },
        {
          "internalType": "uint16",
          "name": "_packetType",
          "type": "uint16"
        },
        {
          "internalType": "uint256",
          "name": "_minGas",
          "type": "uint256"
        }
      ],
      "name": "setMinDstGas",
      "outputs": [],
      "stateMutability": "nonpayable",
      "type": "function"
    },
    {
      "inputs": [
        {
          "internalType": "uint16",
          "name": "_dstChainId",
          "type": "uint16"
        },
        {
          "internalType": "uint256",
          "name": "_size",
          "type": "uint256"
        }
      ],
      "name": "setPayloadSizeLimit",
      "outputs": [],
      "stateMutability": "nonpayable",
      "type": "function"
    },
    {
      "inputs": [
        {
          "internalType": "address",
          "name": "_precrime",
          "type": "address"
        }
      ],
      "name": "setPrecrime",
      "outputs": [],
      "stateMutability": "nonpayable",
      "type": "function"
    },
    {
      "inputs": [
        {
          "internalType": "uint16",
          "name": "_version",
          "type": "uint16"
        }
      ],
      "name": "setReceiveVersion",
      "outputs": [],
      "stateMutability": "nonpayable",
      "type": "function"
    },
    {
      "inputs": [
        {
          "internalType": "uint16",
          "name": "_version",
          "type": "uint16"
        }
      ],
      "name": "setSendVersion",
      "outputs": [],
      "stateMutability": "nonpayable",
      "type": "function"
    },
    {
      "inputs": [
        {
          "internalType": "uint256",
          "name": "_slippage",
          "type": "uint256"
        }
      ],
      "name": "setSlippage",
      "outputs": [],
      "stateMutability": "nonpayable",
      "type": "function"
    },
    {
      "inputs": [
        {
          "internalType": "address",
          "name": "_strategist",
          "type": "address"
        }
      ],
      "name": "setStrategist",
      "outputs": [],
      "stateMutability": "nonpayable",
      "type": "function"
    },
    {
      "inputs": [
        {
          "internalType": "uint16",
          "name": "_srcChainId",
          "type": "uint16"
        },
        {
          "internalType": "bytes",
          "name": "_path",
          "type": "bytes"
        }
      ],
      "name": "setTrustedRemote",
      "outputs": [],
      "stateMutability": "nonpayable",
      "type": "function"
    },
    {
      "inputs": [
        {
          "internalType": "uint16",
          "name": "_remoteChainId",
          "type": "uint16"
        },
        {
          "internalType": "bytes",
          "name": "_remoteAddress",
          "type": "bytes"
        }
      ],
      "name": "setTrustedRemoteAddress",
      "outputs": [],
      "stateMutability": "nonpayable",
      "type": "function"
    },
    {
      "inputs": [],
      "name": "sgBridge",
      "outputs": [
        {
          "internalType": "contract ISgBridge",
          "name": "",
          "type": "address"
        }
      ],
      "stateMutability": "view",
      "type": "function"
    },
    {
      "inputs": [
        {
          "internalType": "uint16",
          "name": "",
          "type": "uint16"
        },
        {
          "internalType": "bytes",
          "name": "_srcAddress",
          "type": "bytes"
        },
        {
          "internalType": "uint256",
          "name": "",
          "type": "uint256"
        },
        {
          "internalType": "address",
          "name": "_token",
          "type": "address"
        },
        {
          "internalType": "uint256",
          "name": "_amountLD",
          "type": "uint256"
        },
        {
          "internalType": "bytes",
          "name": "",
          "type": "bytes"
        }
      ],
      "name": "sgReceive",
      "outputs": [],
      "stateMutability": "nonpayable",
      "type": "function"
    },
    {
      "inputs": [],
      "name": "sgRouter",
      "outputs": [
        {
          "internalType": "contract IStargateRouter",
          "name": "",
          "type": "address"
        }
      ],
      "stateMutability": "view",
      "type": "function"
    },
    {
      "inputs": [],
      "name": "slippage",
      "outputs": [
        {
          "internalType": "uint256",
          "name": "",
          "type": "uint256"
        }
      ],
      "stateMutability": "view",
      "type": "function"
    },
    {
      "inputs": [],
      "name": "strategist",
      "outputs": [
        {
          "internalType": "address",
          "name": "",
          "type": "address"
        }
      ],
      "stateMutability": "view",
      "type": "function"
    },
    {
      "inputs": [],
      "name": "strategistSignMessageHash",
      "outputs": [
        {
          "internalType": "bytes32",
          "name": "",
          "type": "bytes32"
        }
      ],
      "stateMutability": "view",
      "type": "function"
    },
    {
      "inputs": [
        {
          "internalType": "contract IERC20",
          "name": "_token",
          "type": "address"
        }
      ],
      "name": "sweepToken",
      "outputs": [],
      "stateMutability": "nonpayable",
      "type": "function"
    },
    {
      "inputs": [
        {
          "internalType": "address",
          "name": "newOwner",
          "type": "address"
        }
      ],
      "name": "transferOwnership",
      "outputs": [],
      "stateMutability": "nonpayable",
      "type": "function"
    },
    {
      "inputs": [
        {
          "internalType": "uint16",
          "name": "",
          "type": "uint16"
        }
      ],
      "name": "trustedRemoteLookup",
      "outputs": [
        {
          "internalType": "bytes",
          "name": "",
          "type": "bytes"
        }
      ],
      "stateMutability": "view",
      "type": "function"
    },
    {
      "inputs": [
        {
          "internalType": "uint256",
          "name": "_usdrLpAmount",
          "type": "uint256"
        }
      ],
      "name": "usdrLpToWant",
      "outputs": [
        {
          "internalType": "uint256",
          "name": "",
          "type": "uint256"
        }
      ],
      "stateMutability": "view",
      "type": "function"
    },
    {
      "inputs": [
        {
          "internalType": "uint256",
          "name": "_usdrAmount",
          "type": "uint256"
        }
      ],
      "name": "usdrToWant",
      "outputs": [
        {
          "internalType": "uint256",
          "name": "",
          "type": "uint256"
        }
      ],
      "stateMutability": "view",
      "type": "function"
    },
    {
      "inputs": [],
      "name": "vault",
      "outputs": [
        {
          "internalType": "address",
          "name": "",
          "type": "address"
        }
      ],
      "stateMutability": "view",
      "type": "function"
    },
    {
      "inputs": [],
      "name": "vaultChainId",
      "outputs": [
        {
          "internalType": "uint16",
          "name": "",
          "type": "uint16"
        }
      ],
      "stateMutability": "view",
      "type": "function"
    },
    {
      "inputs": [],
      "name": "want",
      "outputs": [
        {
          "internalType": "contract IERC20",
          "name": "",
          "type": "address"
        }
      ],
      "stateMutability": "view",
      "type": "function"
    },
    {
      "inputs": [],
      "name": "wantDecimals",
      "outputs": [
        {
          "internalType": "uint8",
          "name": "",
          "type": "uint8"
        }
      ],
      "stateMutability": "view",
      "type": "function"
    },
    {
      "inputs": [
        {
          "internalType": "uint256",
          "name": "_wantAmount",
          "type": "uint256"
        }
      ],
      "name": "wantToUsdrLp",
      "outputs": [
        {
          "internalType": "uint256",
          "name": "",
          "type": "uint256"
        }
      ],
      "stateMutability": "view",
      "type": "function"
    },
    {
      "stateMutability": "payable",
      "type": "receive"
    }
  ],
  "bytecode": "0x608060405234801561001057600080fd5b50615d8280620000216000396000f3fe60806040526004361061029f5760003560e01c80621d3567146102ab5780630517cb76146102cd57806306fdde031461030357806307e0db17146103425780630df374831461036257806310ddb137146103825780631be19560146103a25780631cdb539f146103c25780631f1fcd51146103e25780631fe4a686146104025780632d6068431461042257806337fded91146104375780633d3ccc2f1461045c5780633d8b38f61461047c5780633e032a3b146104ac5780633eae1112146104d05780633f1f4fa4146104f057806342d65a8d1461051d57806345ee07551461053d578063495f881e1461055d5780635641ec031461057d578063567ad85d14610597578063593178de146105cc5780635b8c41e6146105e157806366ad5c8a146106305780636cbadbfa14610650578063715018a6146106725780637533d788146106875780638cfd8f5c146106a75780638da5cb5b146106df5780638f4508d0146106f4578063950c8a74146107095780639589c990146107295780639606647d146107495780639f38369a1461075e578063a6c3d1651461077e578063a87985101461079e578063a9e50824146107b4578063ab8236f3146107d4578063adf076e6146107f4578063b353aaa714610827578063baf3292d14610847578063bd79ac1314610867578063c1a3d44c14610887578063c44618341461089c578063c7b9d530146108b2578063cbed8b9c146108d2578063d1deba1f146108f2578063d56739ac14610905578063df2a5b3b1461091a578063e73620c31461093a578063eb8d72b71461095a578063efbb5cb01461097a578063f0fa55a91461098f578063f2fde38b146109af578063f5ecbdbc146109cf578063fa540801146109ef578063fbfa77cf14610a0f578063fcb988a414610a2f57600080fd5b366102a657005b600080fd5b3480156102b757600080fd5b506102cb6102c6366004614a3d565b610a4f565b005b3480156102d957600080fd5b5060ce546102ed906001600160a01b031681565b6040516102fa9190614ad0565b60405180910390f35b34801561030f57600080fd5b5060408051808201909152600d81526c506561726c537472617465677960981b60208201525b6040516102fa9190614b34565b34801561034e57600080fd5b506102cb61035d366004614b47565b610b38565b34801561036e57600080fd5b506102cb61037d366004614b62565b610ba5565b34801561038e57600080fd5b506102cb61039d366004614b47565b610bc4565b3480156103ae57600080fd5b506102cb6103bd366004614ba1565b610c00565b3480156103ce57600080fd5b506102cb6103dd366004614bbe565b610c8d565b3480156103ee57600080fd5b5060ca546102ed906001600160a01b031681565b34801561040e57600080fd5b5060c9546102ed906001600160a01b031681565b34801561042e57600080fd5b506102cb610ee5565b34801561044357600080fd5b5060cd546102ed9061010090046001600160a01b031681565b34801561046857600080fd5b506102cb610477366004614c70565b610f26565b34801561048857600080fd5b5061049c610497366004614c89565b610f5c565b60405190151581526020016102fa565b3480156104b857600080fd5b506104c260cc5481565b6040519081526020016102fa565b3480156104dc57600080fd5b506104c26104eb366004614c70565b611029565b3480156104fc57600080fd5b506104c261050b366004614b47565b60686020526000908152604090205481565b34801561052957600080fd5b506102cb610538366004614c89565b6110b7565b34801561054957600080fd5b506102cb610558366004614ce9565b61112a565b34801561056957600080fd5b506102cb610578366004614df1565b611145565b34801561058957600080fd5b5060cd5461049c9060ff1681565b3480156105a357600080fd5b5060cb546105b990600160a01b900461ffff1681565b60405161ffff90911681526020016102fa565b3480156105d857600080fd5b506104c26113e9565b3480156105ed57600080fd5b506104c26105fc366004614e54565b6097602090815260009384526040808520845180860184018051928152908401958401959095209452929052825290205481565b34801561063c57600080fd5b506102cb61064b366004614a3d565b611447565b34801561065c57600080fd5b5060cb546105b990600160b01b900461ffff1681565b34801561067e57600080fd5b506102cb61151b565b34801561069357600080fd5b506103356106a2366004614b47565b61152f565b3480156106b357600080fd5b506104c26106c2366004614eb1565b606760209081526000928352604080842090915290825290205481565b3480156106eb57600080fd5b506102ed6115c9565b34801561070057600080fd5b506104c26115d8565b34801561071557600080fd5b506069546102ed906001600160a01b031681565b34801561073557600080fd5b506104c2610744366004614c70565b611652565b34801561075557600080fd5b506102cb6116ea565b34801561076a57600080fd5b50610335610779366004614b47565b61177d565b34801561078a57600080fd5b506102cb610799366004614c89565b61188c565b3480156107aa57600080fd5b506104c261264881565b3480156107c057600080fd5b506104c26107cf366004614c70565b611915565b3480156107e057600080fd5b506102cb6107ef366004614ee4565b6119ce565b34801561080057600080fd5b5060cb5461081590600160c01b900460ff1681565b60405160ff90911681526020016102fa565b34801561083357600080fd5b506065546102ed906001600160a01b031681565b34801561085357600080fd5b506102cb610862366004614ba1565b611ac8565b34801561087357600080fd5b506104c2610882366004614c70565b611b1b565b34801561089357600080fd5b506104c2611b73565b3480156108a857600080fd5b506104c261271081565b3480156108be57600080fd5b506102cb6108cd366004614ba1565b611ba4565b3480156108de57600080fd5b506102cb6108ed366004614f7e565b611bce565b6102cb610900366004614a3d565b611c3c565b34801561091157600080fd5b506104c2611e52565b34801561092657600080fd5b506102cb610935366004614fec565b611e84565b34801561094657600080fd5b506102cb610955366004614c70565b611f36565b34801561096657600080fd5b506102cb610975366004614c89565b611f56565b34801561098657600080fd5b506104c2611fb0565b34801561099b57600080fd5b506102cb6109aa366004614c70565b6120ca565b3480156109bb57600080fd5b506102cb6109ca366004614ba1565b6120d7565b3480156109db57600080fd5b506103356109ea366004615028565b61214d565b3480156109fb57600080fd5b506104c2610a0a366004614c70565b6121e0565b348015610a1b57600080fd5b5060cb546102ed906001600160a01b031681565b348015610a3b57600080fd5b506104c2610a4a366004614c70565b612232565b6065546001600160a01b03163314610aba5760405162461bcd60e51b815260206004820152602360248201527f4261736553747261746567793a3a496e76616c6964456e64706f696e7443616c6044820152623632b960e91b60648201526084015b60405180910390fd5b610b308686868080601f01602080910402602001604051908101604052809392919081815260200183838082843760009201919091525050604080516020601f89018190048102820181019092528781528993509150879087908190840183828082843760009201919091525061243692505050565b505050505050565b610b406124af565b6065546040516307e0db1760e01b815261ffff831660048201526001600160a01b03909116906307e0db17906024015b600060405180830381600087803b158015610b8a57600080fd5b505af1158015610b9e573d6000803e3d6000fd5b5050505050565b610bad6124af565b61ffff909116600090815260686020526040902055565b610bcc6124af565b6065546040516310ddb13760e01b815261ffff831660048201526001600160a01b03909116906310ddb13790602401610b70565b610c0861250e565b610c8a33826001600160a01b03166370a08231306040518263ffffffff1660e01b8152600401610c389190614ad0565b602060405180830381865afa158015610c55573d6000803e3d6000fd5b505050506040513d601f19601f82011682018060405250810190610c799190615075565b6001600160a01b0384169190612567565b50565b600054610100900460ff1615808015610cad5750600054600160ff909116105b80610cce5750610cbc306125c2565b158015610cce575060005460ff166001145b610d315760405162461bcd60e51b815260206004820152602e60248201527f496e697469616c697a61626c653a20636f6e747261637420697320616c72656160448201526d191e481a5b9a5d1a585b1a5e995960921b6064820152608401610ab1565b6000805460ff191660011790558015610d54576000805461ff0019166101001790555b610d6789898989898989896126486125d1565b60ca54610d94906001600160a01b03167368b3465833fb72a70ecdf485e0e4c7bd8665fc456000196127b0565b60ca54610dbb906001600160a01b0316600080516020615c8d8339815191526000196127b0565b610de4600080516020615d0d833981519152600080516020615c8d8339815191526000196127b0565b610e0d600080516020615ced833981519152600080516020615cad8339815191526000196127b0565b610e36600080516020615ced833981519152600080516020615c8d8339815191526000196127b0565b610e6b738f3cf7ad23cd3cadbd9735aff958023239c6a06373195f7b233947d51f4c3b756ad41a5ddb34cebce06000196127b0565b610e94600080516020615ccd833981519152600080516020615c8d8339815191526000196127b0565b8015610eda576000805461ff0019169055604051600181527f7f26b83ff96e1f2b6a682f133852f6798a09c465da95921460cefb38474024989060200160405180910390a15b505050505050505050565b610eed61250e565b60c9546040516001600160a01b03909116904780156108fc02916000818181858888f19350505050158015610c8a573d6000803e3d6000fd5b610f2e61250e565b610f37816128b4565b604051818152600080516020615d2d833981519152906020015b60405180910390a150565b61ffff831660009081526066602052604081208054829190610f7d9061508e565b80601f0160208091040260200160405190810160405280929190818152602001828054610fa99061508e565b8015610ff65780601f10610fcb57610100808354040283529160200191610ff6565b820191906000526020600020905b815481529060010190602001808311610fd957829003601f168201915b50505050509050838360405161100d9291906150c8565b60405180910390208180519060200120149150505b9392505050565b60006110b182600080516020615d0d8339815191526001600160a01b031663313ce5676040518163ffffffff1660e01b8152600401602060405180830381865afa15801561107b573d6000803e3d6000fd5b505050506040513d601f19601f8201168201806040525081019061109f91906150d8565b60cb54600160c01b900460ff16612fb1565b92915050565b6110bf6124af565b6065546040516342d65a8d60e01b81526001600160a01b03909116906342d65a8d906110f390869086908690600401615124565b600060405180830381600087803b15801561110d57600080fd5b505af1158015611121573d6000803e3d6000fd5b50505050505050565b61113261250e565b60cd805460ff1916911515919091179055565b61114d61250e565b61115681613006565b60cd546000908190819060ff16156112025784156111b65760405162461bcd60e51b815260206004820152601e60248201527f4261736553747261746567793a3a44656274526174696f4e6f745a65726f00006044820152606401610ab1565b60006111c061308c565b9050878110156111db576111d48189615158565b92506111f0565b878111156111f0576111ed8882615158565b93505b6111fa8389615158565b915050611214565b61120c88886130ce565b919450925090505b6000611220828561516b565b90506000808883101561124257611237838a615158565b915060009050611253565b600091506112508984615158565b90505b6000604051806101600160405280306001600160a01b031681526020014281526020018881526020018781526020018681526020018481526020018381526020018b8152602001836112a3611fb0565b6112ad9190615158565b815260200160d060008154809291906112c59061517e565b909155508152602001899052905081156113255760cb5460405161132091849161ffff600160a01b830416916001600160a01b03169061130c9060029087906020016151cf565b6040516020818303038152906040526131c5565b611350565b61135060028260405160200161133c9291906151cf565b6040516020818303038152906040526132b3565b7fb983e09c034e9c52b5e547cb0589967992b97717733f580cc5ad0afcdc4b522b8160400151826060015183608001518460a001518560c001518660e001518761010001516040516113d39796959493929190968752602087019590955260408601939093526060850191909152608084015260a083015260c082015260e00190565b60405180910390a1505050505050505050505050565b60d05460cb546040513060601b6001600160601b03191660208201526034810192909252600160b01b900460f01b6001600160f01b031916605482015260009060560160405160208183030381529060405280519060200120905090565b3330146114a55760405162461bcd60e51b815260206004820152602660248201527f4e6f6e626c6f636b696e674c7a4170703a2063616c6c6572206d7573742062656044820152650204c7a4170760d41b6064820152608401610ab1565b610b308686868080601f01602080910402602001604051908101604052809392919081815260200183838082843760009201919091525050604080516020601f89018190048102820181019092528781528993509150879087908190840183828082843760009201919091525061343392505050565b6115236124af565b61152d6000613549565b565b606660205260009081526040902080546115489061508e565b80601f01602080910402602001604051908101604052809291908181526020018280546115749061508e565b80156115c15780601f10611596576101008083540402835291602001916115c1565b820191906000526020600020905b8154815290600101906020018083116115a457829003601f168201915b505050505081565b6033546001600160a01b031690565b6040516370a0823160e01b8152600090600080516020615cad833981519152906370a082319061160c903090600401614ad0565b602060405180830381865afa158015611629573d6000803e3d6000fd5b505050506040513d601f19601f8201168201806040525081019061164d9190615075565b905090565b6040516328bd9fc160e11b8152600090819073f68c20d6c50706f6c6bd8ee184382518c93b368c9063517b3f829061169e90600080516020615ccd83398151915290879060040161527a565b602060405180830381865afa1580156116bb573d6000803e3d6000fd5b505050506040513d601f19601f820116820180604052508101906116df9190615075565b905061102281611029565b6116f261250e565b60ca546040516370a0823160e01b815261152d916001916001600160a01b03909116906370a0823190611729903090600401614ad0565b602060405180830381865afa158015611746573d6000803e3d6000fd5b505050506040513d601f19601f8201168201806040525081019061176a9190615075565b60ca546001600160a01b03169190612567565b61ffff81166000908152606660205260408120805460609291906117a09061508e565b80601f01602080910402602001604051908101604052809291908181526020018280546117cc9061508e565b80156118195780601f106117ee57610100808354040283529160200191611819565b820191906000526020600020905b8154815290600101906020018083116117fc57829003601f168201915b5050505050905080516000036118715760405162461bcd60e51b815260206004820152601d60248201527f4c7a4170703a206e6f20747275737465642070617468207265636f72640000006044820152606401610ab1565b6110226000601483516118849190615158565b83919061359b565b6118946124af565b8181306040516020016118a993929190615293565b60408051601f1981840301815291815261ffff85166000908152606660205220906118d4908261530f565b507f8c0400cfe2d1199b1a725c78960bcc2a344d869b80590d0f2bd005db15a572ce83838360405161190893929190615124565b60405180910390a1505050565b60ca546040516310e1b98f60e21b815260009182918291600080516020615c8d83398151915291634386e63c9161196f916001600160a01b0390911690600080516020615d0d833981519152906001908a906004016153c8565b6040805180830381865afa15801561198b573d6000803e3d6000fd5b505050506040513d601f19601f820116820180604052508101906119af91906153f3565b915091506119bc81611029565b6119c6908361516b565b949350505050565b60ce546001600160a01b03163314806119f6575060cd5461010090046001600160a01b031633145b611a415760405162461bcd60e51b815260206004820152601c60248201527b53674272696467653a3a526f757465724f724272696467654f6e6c7960201b6044820152606401610ab1565b6000611a4f8682601461359b565b604051602001611a5f9190615417565b604051602081830303815290604052611a7790615433565b60601c9050836001600160a01b03167f92073a89a07a000083eb8b2575fc15e7bb936efe55d00727d6942a796d7211a78483604051611ab792919061546a565b60405180910390a250505050505050565b611ad06124af565b606980546001600160a01b0319166001600160a01b0383161790556040517f5db758e995a17ec1ad84bdef7e8c3293a0bd6179bcce400dff5d4c3d87db726b90610f51908390614ad0565b60006110b182738f3cf7ad23cd3cadbd9735aff958023239c6a0636001600160a01b031663313ce5676040518163ffffffff1660e01b8152600401602060405180830381865afa15801561107b573d6000803e3d6000fd5b60ca546040516370a0823160e01b81526000916001600160a01b0316906370a082319061160c903090600401614ad0565b611bac6124af565b60c980546001600160a01b0319166001600160a01b0392909216919091179055565b611bd66124af565b6065546040516332fb62e760e21b81526001600160a01b039091169063cbed8b9c90611c0e9088908890889088908890600401615481565b600060405180830381600087803b158015611c2857600080fd5b505af1158015610eda573d6000803e3d6000fd5b61ffff86166000908152609760205260408082209051611c5f90889088906150c8565b90815260408051602092819003830190206001600160401b03871660009081529252902054905080611cdf5760405162461bcd60e51b815260206004820152602360248201527f4e6f6e626c6f636b696e674c7a4170703a206e6f2073746f726564206d65737360448201526261676560e81b6064820152608401610ab1565b808383604051611cf09291906150c8565b604051809103902014611d4f5760405162461bcd60e51b815260206004820152602160248201527f4e6f6e626c6f636b696e674c7a4170703a20696e76616c6964207061796c6f616044820152601960fa1b6064820152608401610ab1565b61ffff87166000908152609760205260408082209051611d7290899089906150c8565b90815260408051602092819003830181206001600160401b038916600090815290845282902093909355601f88018290048202830182019052868252611e0a918991899089908190840183828082843760009201919091525050604080516020601f8a018190048102820181019092528881528a93509150889088908190840183828082843760009201919091525061343392505050565b7fc264d91f3adc5588250e1551f547752ca0cfa8f6b530d243b9f9f4cab10ea8e58787878785604051611e419594939291906154af565b60405180910390a150505050505050565b6040516246613160e11b8152600090600080516020615cad83398151915290628cc2629061160c903090600401614ad0565b611e8c6124af565b60008111611ed45760405162461bcd60e51b81526020600482015260156024820152744c7a4170703a20696e76616c6964206d696e47617360581b6044820152606401610ab1565b61ffff83811660008181526067602090815260408083209487168084529482529182902085905581519283528201929092529081018290527f9d5c7c0b934da8fefa9c7760c98383778a12dfbfc0c3b3106518f43fb9508ac090606001611908565b611f3e6124af565b600090815260cf60205260409020805460ff19169055565b611f5e6124af565b61ffff83166000908152606660205260409020611f7c8284836154ea565b507ffa41487ad5d6728f0b19276fa1eddc16558578f5109fc39d2dc33c3230470dab83838360405161190893929190615124565b6000611fbd6107cf6115d8565b6040516370a0823160e01b815261204590600080516020615ccd833981519152906370a0823190611ff2903090600401614ad0565b602060405180830381865afa15801561200f573d6000803e3d6000fd5b505050506040513d601f19601f820116820180604052508101906120339190615075565b61203b611e52565b610744919061516b565b60ca546040516370a0823160e01b81526001600160a01b03909116906370a0823190612075903090600401614ad0565b602060405180830381865afa158015612092573d6000803e3d6000fd5b505050506040513d601f19601f820116820180604052508101906120b69190615075565b6120c0919061516b565b61164d919061516b565b6120d261250e565b60cc55565b6120df6124af565b6001600160a01b0381166121445760405162461bcd60e51b815260206004820152602660248201527f4f776e61626c653a206e6577206f776e657220697320746865207a65726f206160448201526564647265737360d01b6064820152608401610ab1565b610c8a81613549565b606554604051633d7b2f6f60e21b815261ffff808716600483015285166024820152306044820152606481018390526060916001600160a01b03169063f5ecbdbc90608401600060405180830381865afa1580156121af573d6000803e3d6000fd5b505050506040513d6000823e601f3d908101601f191682016040526121d791908101906155a3565b95945050505050565b6040517b0ca2ba3432b932bab69029b4b3b732b21026b2b9b9b0b3b29d05199960211b6020820152603c8101829052600090605c01604051602081830303815290604052805190602001209050919050565b6000806122b3600080516020615ced8339815191526001600160a01b031663313ce5676040518163ffffffff1660e01b8152600401602060405180830381865afa158015612284573d6000803e3d6000fd5b505050506040513d601f19601f820116820180604052508101906122a891906150d8565b6107cf90600a6156f4565b905060006123408460cb60189054906101000a900460ff16600080516020615ced8339815191526001600160a01b031663313ce5676040518163ffffffff1660e01b8152600401602060405180830381865afa158015612317573d6000803e3d6000fd5b505050506040513d601f19601f8201168201806040525081019061233b91906150d8565b612fb1565b905060006123a48360cb60189054906101000a900460ff16600080516020615ced8339815191526001600160a01b031663313ce5676040518163ffffffff1660e01b8152600401602060405180830381865afa158015612317573d6000803e3d6000fd5b905080600080516020615ced8339815191526001600160a01b031663313ce5676040518163ffffffff1660e01b8152600401602060405180830381865afa1580156123f3573d6000803e3d6000fd5b505050506040513d601f19601f8201168201806040525081019061241791906150d8565b61242290600a6156f4565b61242c9084615703565b6121d7919061571a565b6000806124995a60966366ad5c8a60e01b8989898960405160240161245e949392919061573c565b60408051601f198184030181529190526020810180516001600160e01b03166001600160e01b031990931692909217909152309291906136a8565b9150915081610b3057610b308686868685613734565b336124b86115c9565b6001600160a01b03161461152d5760405162461bcd60e51b815260206004820181905260248201527f4f776e61626c653a2063616c6c6572206973206e6f7420746865206f776e65726044820152606401610ab1565b60c9546001600160a01b0316331461152d5760405162461bcd60e51b815260206004820152601c60248201527b10985cd954dd1c985d1959de4e8e93db9b1e54dd1c985d1959da5cdd60221b6044820152606401610ab1565b6125bd8363a9059cbb60e01b848460405160240161258692919061527a565b60408051601f198184030181529190526020810180516001600160e01b03166001600160e01b0319909316929092179091526137d1565b505050565b6001600160a01b03163b151590565b600054610100900460ff166125f85760405162461bcd60e51b8152600401610ab19061577a565b612601896138a6565b60c980546001600160a01b03808b166001600160a01b03199283161790925560ca80548a8416908316811790915560cb8054938a1661ffff8a16600160a01b029093166001600160b01b0319909416939093179190911790915560cc8290556040805163313ce56760e01b8152905163313ce567916004808201926020929091908290030181865afa15801561269b573d6000803e3d6000fd5b505050506040513d601f19601f820116820180604052508101906126bf91906150d8565b60cb8054600060d05562ffffff60b01b1916600160c01b60ff939093169290920261ffff60b01b191691909117600160b01b61ffff87160217905560cd8054610100600160a81b0319166101006001600160a01b03868116919091029190911790915560ce80546001600160a01b03191684831617905560ca5460405163095ea7b360e01b815291169063095ea7b3906127619086906000199060040161527a565b6020604051808303816000875af1158015612780573d6000803e3d6000fd5b505050506040513d601f19601f820116820180604052508101906127a491906157c5565b50505050505050505050565b80158061282a5750604051636eb1769f60e11b81523060048201526001600160a01b03838116602483015284169063dd62ed3e90604401602060405180830381865afa158015612804573d6000803e3d6000fd5b505050506040513d601f19601f820116820180604052508101906128289190615075565b155b6128955760405162461bcd60e51b815260206004820152603660248201527f5361666545524332303a20617070726f76652066726f6d206e6f6e2d7a65726f60448201527520746f206e6f6e2d7a65726f20616c6c6f77616e636560501b6064820152608401610ab1565b6125bd8363095ea7b360e01b848460405160240161258692919061527a565b600080516020615cad8339815191526001600160a01b0316633d18b9126040518163ffffffff1660e01b8152600401600060405180830381600087803b1580156128fd57600080fd5b505af1158015612911573d6000803e3d6000fd5b50506040516370a0823160e01b81526129909250600080516020615ccd83398151915291506370a082319061294a903090600401614ad0565b602060405180830381865afa158015612967573d6000803e3d6000fd5b505050506040513d601f19601f8201168201806040525081019061298b9190615075565b6138de565b60ca546040516370a0823160e01b81526000916001600160a01b0316906370a08231906129c1903090600401614ad0565b602060405180830381865afa1580156129de573d6000803e3d6000fd5b505050506040513d601f19601f82011682018060405250810190612a029190615075565b905081811115612b8e576000612a188383615158565b90506000612a2760028361571a565b90506000612a918260cb60189054906101000a900460ff16738f3cf7ad23cd3cadbd9735aff958023239c6a0636001600160a01b031663313ce5676040518163ffffffff1660e01b8152600401602060405180830381865afa158015612317573d6000803e3d6000fd5b6040805160808101825260ca546001600160601b0319606091821b1660a0830152601960ea1b60b4830152738f3cf7ad23cd3cadbd9735aff958023239c6a06360601b60b7830152825160ab81840301815260cb830184528252306020830152918101859052919250600091908101612b0984613a75565b905260405163b858183f60e01b81529091507368b3465833fb72a70ecdf485e0e4c7bd8665fc459063b858183f90612b459084906004016157e2565b6020604051808303816000875af1158015612b64573d6000803e3d6000fd5b505050506040513d601f19601f82011682018060405250810190612b889190615075565b50505050505b6040516370a0823160e01b8152600090738f3cf7ad23cd3cadbd9735aff958023239c6a063906370a0823190612bc8903090600401614ad0565b602060405180830381865afa158015612be5573d6000803e3d6000fd5b505050506040513d601f19601f82011682018060405250810190612c099190615075565b90508015612c8f5760405163a39fc2c560e01b815273195f7b233947d51f4c3b756ad41a5ddb34cebce09063a39fc2c590612c4a908490309060040161546a565b6020604051808303816000875af1158015612c69573d6000803e3d6000fd5b505050506040513d601f19601f82011682018060405250810190612c8d9190615075565b505b6040516370a0823160e01b8152600090600080516020615d0d833981519152906370a0823190612cc3903090600401614ad0565b602060405180830381865afa158015612ce0573d6000803e3d6000fd5b505050506040513d601f19601f82011682018060405250810190612d049190615075565b60ca546040516370a0823160e01b81529192506001600160a01b0316906370a0823190612d35903090600401614ad0565b602060405180830381865afa158015612d52573d6000803e3d6000fd5b505050506040513d601f19601f82011682018060405250810190612d769190615075565b9250600081118015612d885750600083115b15612f025760ca546040516326283ecf60e21b81526001600160a01b039091166004820152600080516020615d0d83398151915260248201526001604482015260648101849052608481018290526000908190600080516020615c8d833981519152906398a0fb3c9060a401606060405180830381865afa158015612e11573d6000803e3d6000fd5b505050506040513d601f19601f82011682018060405250810190612e359190615830565b5060ca54604051635a47ddc360e01b81526001600160a01b039091166004820152600080516020615d0d8339815191526024820152600160448201819052606482018490526084820183905260a4820181905260c48201523060e4820152426101048201529193509150600080516020615c8d83398151915290635a47ddc390610124016060604051808303816000875af1158015612ed8573d6000803e3d6000fd5b505050506040513d601f19601f82011682018060405250810190612efc9190615830565b50505050505b6040516370a0823160e01b8152600090600080516020615ced833981519152906370a0823190612f36903090600401614ad0565b602060405180830381865afa158015612f53573d6000803e3d6000fd5b505050506040513d601f19601f82011682018060405250810190612f779190615075565b90508015610b9e5760405163b6b55f2560e01b815260048101829052600080516020615cad8339815191529063b6b55f2590602401611c0e565b60008260ff168260ff161115612fe757612fcb838361585e565b612fd690600a6156f4565b612fe09085615703565b9050611022565b612ff1828461585e565b612ffc90600a6156f4565b612fe0908561571a565b60006130106113e9565b9050600061301d826121e0565b60c9549091506001600160a01b03166130368285613a92565b6001600160a01b0316146125bd5760405162461bcd60e51b815260206004820152601e60248201527f4261736553747261746567793a3a496e76616c69645369676e617475726500006044820152606401610ab1565b600061309e6130996115d8565b613ab6565b60ca546040516370a0823160e01b81526001600160a01b03909116906370a082319061160c903090600401614ad0565b6000806000806130dc611fb0565b90508581106130fa576130ef8682615158565b93506000925061310b565b600093506131088187615158565b92505b61311d613118858761516b565b613daa565b505060ca546040516370a0823160e01b81526000916001600160a01b0316906370a0823190613150903090600401614ad0565b602060405180830381865afa15801561316d573d6000803e3d6000fd5b505050506040513d601f19601f820116820180604052508101906131919190615075565b90508481116131a657809450600092506131bc565b6131b96131b38683615158565b87613edf565b92505b50509250925092565b60cd54604051630dc6346160e01b815260009161010090046001600160a01b031690630dc63461906131ff90879087908790600401615877565b602060405180830381865afa15801561321c573d6000803e3d6000fd5b505050506040513d601f19601f820116820180604052508101906132409190615075565b60cd5460ca54604051633920455b60e11b81529293506001600160a01b036101009092048216926372408ab6928592613286929116908a908a908a908a906004016158a5565b6000604051808303818588803b15801561329f57600080fd5b505af11580156127a4573d6000803e3d6000fd5b60cb5460408051606083811b6001600160601b03199081166020840152309182901b16603483015282516028818403018152604890920190925260655490926000926001600160a01b03909216916340a7bb109161ffff600160a01b9091041690868561331e613ef5565b6040518663ffffffff1660e01b815260040161333e9594939291906158e2565b6040805180830381865afa15801561335a573d6000803e3d6000fd5b505050506040513d601f19601f8201168201806040525081019061337e91906153f3565b509050804710156133aa5760405162fae2d560e21b815260048101829052476024820152604401610ab1565b60655460cb546001600160a01b039091169063c5803100908390600160a01b900461ffff16858730806133db613ef5565b6040518863ffffffff1660e01b81526004016133fc96959493929190615936565b6000604051808303818588803b15801561341557600080fd5b505af1158015613429573d6000803e3d6000fd5b5050505050505050565b60cb5461ffff858116600160a01b909204161461349d5760405162461bcd60e51b815260206004820152602260248201527f4261736553747261746567793a3a5661756c74436861696e49644d69736d61746044820152610c6d60f31b6064820152608401610ab1565b60006134ab8482601461359b565b6040516020016134bb9190615417565b6040516020818303038152906040526134d390615433565b60cb5460609190911c91506001600160a01b031681146135405760405162461bcd60e51b815260206004820152602260248201527f4261736553747261746567793a3a5661756c74416464726573734d69736d61746044820152610c6d60f31b6064820152608401610ab1565b610b9e82613f25565b603380546001600160a01b038381166001600160a01b0319831681179093556040519116919082907f8be0079c531659141344cd1fd0a4f28419497f9722a3daafe3b4186f6b6457e090600090a35050565b6060816135a981601f61516b565b10156135e85760405162461bcd60e51b815260206004820152600e60248201526d736c6963655f6f766572666c6f7760901b6044820152606401610ab1565b6135f2828461516b565b845110156136365760405162461bcd60e51b8152602060048201526011602482015270736c6963655f6f75744f66426f756e647360781b6044820152606401610ab1565b606082158015613655576040519150600082526020820160405261369f565b6040519150601f8416801560200281840101858101878315602002848b0101015b8183101561368e578051835260209283019201613676565b5050858452601f01601f1916604052505b50949350505050565b6000606060008060008661ffff166001600160401b038111156136cd576136cd614d06565b6040519080825280601f01601f1916602001820160405280156136f7576020820181803683370190505b50905060008087516020890160008d8df191503d925086831115613719578692505b828152826000602083013e9093509150505b94509492505050565b8180519060200120609760008761ffff1661ffff168152602001908152602001600020856040516137659190615417565b9081526040805191829003602090810183206001600160401b0388166000908152915220919091557fe183f33de2837795525b4792ca4cd60535bd77c53b7e7030060bfcf5734d6b0c906137c2908790879087908790879061599d565b60405180910390a15050505050565b6000613826826040518060400160405280602081526020017f5361666545524332303a206c6f772d6c6576656c2063616c6c206661696c6564815250856001600160a01b03166140529092919063ffffffff16565b905080516000148061384757508080602001905181019061384791906157c5565b6125bd5760405162461bcd60e51b815260206004820152602a60248201527f5361666545524332303a204552433230206f7065726174696f6e20646964206e6044820152691bdd081cdd58d8d9595960b21b6064820152608401610ab1565b600054610100900460ff166138cd5760405162461bcd60e51b8152600401610ab19061577a565b6138d5614061565b610c8a81614091565b806000036138e95750565b60408051600280825260608201909252600091816020015b604080516060810182526000808252602080830182905292820152825260001990920191018161390157505060408051606081018252600080516020615ccd8339815191528152600080516020615d0d83398151915260208201526000918101829052825192935091839190613979576139796159ef565b60209081029190910181019190915260408051606081018252600080516020615d0d833981519152815260ca546001600160a01b0316928101929092526001908201819052825183919081106139d1576139d16159ef565b602002602001018190525060006139e783611652565b9050600080516020615c8d83398151915263f41766d884613a0784613a75565b8530426040518663ffffffff1660e01b8152600401613a2a959493929190615a05565b6000604051808303816000875af1925050508015613a6a57506040513d6000823e601f3d908101601f19168201604052613a679190810190615a94565b60015b156125bd5750505050565b600061271060cc5483613a889190615703565b6110b1919061571a565b6000806000613aa185856140da565b91509150613aae8161411f565b509392505050565b600080516020615cad8339815191526001600160a01b0316633d18b9126040518163ffffffff1660e01b8152600401600060405180830381600087803b158015613aff57600080fd5b505af1158015613b13573d6000803e3d6000fd5b50506040516370a0823160e01b8152613b4c9250600080516020615ccd83398151915291506370a082319061294a903090600401614ad0565b80600003613b575750565b604051632e1a7d4d60e01b815260048101829052600080516020615cad83398151915290632e1a7d4d90602401600060405180830381600087803b158015613b9e57600080fd5b505af1158015613bb2573d6000803e3d6000fd5b505060ca546040516310e1b98f60e21b815260009350839250600080516020615c8d83398151915291634386e63c91613c0c916001600160a01b031690600080516020615d0d8339815191529060019089906004016153c8565b6040805180830381865afa158015613c28573d6000803e3d6000fd5b505050506040513d601f19601f82011682018060405250810190613c4c91906153f3565b60ca549193509150600080516020615c8d83398151915290630dede6c4906001600160a01b0316600080516020615d0d833981519152600187613c8e88613a75565b613c9788613a75565b6040516001600160e01b031960e089901b1681526001600160a01b03968716600482015295909416602486015291151560448501526064840152608483015260a48201523060c48201524260e48201526101040160408051808303816000875af1158015613d09573d6000803e3d6000fd5b505050506040513d601f19601f82011682018060405250810190613d2d91906153f3565b50506040516370a0823160e01b81526125bd90600080516020615d0d833981519152906370a0823190613d64903090600401614ad0565b602060405180830381865afa158015613d81573d6000803e3d6000fd5b505050506040513d601f19601f82011682018060405250810190613da59190615075565b614264565b60ca546040516370a0823160e01b8152600091829182916001600160a01b0316906370a0823190613ddf903090600401614ad0565b602060405180830381865afa158015613dfc573d6000803e3d6000fd5b505050506040513d601f19601f82011682018060405250810190613e209190615075565b9050838110613e3457509192600092509050565b613e46613e418286615158565b614340565b60ca546040516370a0823160e01b81526001600160a01b03909116906370a0823190613e76903090600401614ad0565b602060405180830381865afa158015613e93573d6000803e3d6000fd5b505050506040513d601f19601f82011682018060405250810190613eb79190615075565b905080841115613ed557915081613ece8185615158565b9150613ed9565b8392505b50915091565b6000818310613eee5781611022565b5090919050565b60408051600160f01b6020820152620f424060228083019190915282518083039091018152604290910190915290565b600081806020019051810190613f3b9190615b2d565b90506003816004811115613f5157613f51615197565b03613fa457600082806020019051810190613f6c9190615b4e565b915050613f7c81600001516128b4565b8051604051908152600080516020615d2d8339815191529060200160405180910390a1505050565b6000816004811115613fb857613fb8615197565b03613fdf57600082806020019051810190613fd39190615b91565b9150506125bd81614421565b6004816004811115613ff357613ff3615197565b0361404e5760008280602001905181019061400e9190615bfc565b91505061401e816000015161454b565b80516040517f7c9a2d2ec51230d7dbed27f113a325b7e20aef7b049e68b2339257b5edff5bea9161190891614ad0565b5050565b60606119c6848460008561458a565b600054610100900460ff166140885760405162461bcd60e51b8152600401610ab19061577a565b61152d33613549565b600054610100900460ff166140b85760405162461bcd60e51b8152600401610ab19061577a565b606580546001600160a01b0319166001600160a01b0392909216919091179055565b60008082516041036141105760208301516040840151606085015160001a61410487828585614665565b94509450505050614118565b506000905060025b9250929050565b600081600481111561413357614133615197565b0361413b5750565b600181600481111561414f5761414f615197565b036141975760405162461bcd60e51b815260206004820152601860248201527745434453413a20696e76616c6964207369676e617475726560401b6044820152606401610ab1565b60028160048111156141ab576141ab615197565b036141f85760405162461bcd60e51b815260206004820152601f60248201527f45434453413a20696e76616c6964207369676e6174757265206c656e677468006044820152606401610ab1565b600381600481111561420c5761420c615197565b03610c8a5760405162461bcd60e51b815260206004820152602260248201527f45434453413a20696e76616c6964207369676e6174757265202773272076616c604482015261756560f01b6064820152608401610ab1565b8060000361426f5750565b600061427a82611029565b9050600080516020615c8d8339815191526313dcfc598361429a84613a75565b60ca5460405160e085901b6001600160e01b031916815260048101939093526024830191909152600080516020615d0d83398151915260448301526001600160a01b03166064820152600160848201523060a48201524260c482015260e4016000604051808303816000875af1158015614318573d6000803e3d6000fd5b505050506040513d6000823e601f3d908101601f191682016040526125bd9190810190615a94565b8060000361434b5750565b6000614358610744611e52565b90508181106143f757600080516020615cad8339815191526001600160a01b0316633d18b9126040518163ffffffff1660e01b8152600401600060405180830381600087803b1580156143aa57600080fd5b505af11580156143be573d6000803e3d6000fd5b50506040516370a0823160e01b815261404e9250600080516020615ccd83398151915291506370a082319061294a903090600401614ad0565b6000614416614409610a4a8486615158565b6144116115d8565b613edf565b90506125bd81613ab6565b602080820151600090815260cf909152604090205460ff16156144865760405162461bcd60e51b815260206004820152601e60248201527f4261736553747261746567793a3a416c726561647957697468647261776e00006044820152606401610ab1565b6000806144968360000151613daa565b91509150600060016040518060800160405280306001600160a01b0316815260200185815260200184815260200186602001518152506040516020016144dd929190615c4a565b60408051601f198184030181529190529050821561451e5760cb5461451990849061ffff600160a01b820416906001600160a01b0316846131c5565b614527565b614527816132b3565b505050602090810151600090815260cf90915260409020805460ff19166001179055565b6145548161471c565b60ca546040516370a0823160e01b8152610c8a9183916001600160a01b03909116906370a0823190611729903090600401614ad0565b6060824710156145eb5760405162461bcd60e51b815260206004820152602660248201527f416464726573733a20696e73756666696369656e742062616c616e636520666f6044820152651c8818d85b1b60d21b6064820152608401610ab1565b600080866001600160a01b031685876040516146079190615417565b60006040518083038185875af1925050503d8060008114614644576040519150601f19603f3d011682016040523d82523d6000602084013e614649565b606091505b509150915061465a87838387614932565b979650505050505050565b6000806fa2a8918ca85bafe22016d0b997e4df60600160ff1b03831115614692575060009050600361372b565b6040805160008082526020820180845289905260ff881692820192909252606081018690526080810185905260019060a0016020604051602081039080840390855afa1580156146e6573d6000803e3d6000fd5b5050604051601f1901519150506001600160a01b03811661470f5760006001925092505061372b565b9660009650945050505050565b600080516020615cad833981519152632e1a7d4d6147386115d8565b6040518263ffffffff1660e01b815260040161475691815260200190565b600060405180830381600087803b15801561477057600080fd5b505af1158015614784573d6000803e3d6000fd5b50506040516370a0823160e01b81526148169250839150600080516020615ced833981519152906370a08231906147bf903090600401614ad0565b602060405180830381865afa1580156147dc573d6000803e3d6000fd5b505050506040513d601f19601f820116820180604052508101906148009190615075565b600080516020615ced8339815191529190612567565b6040516370a0823160e01b81526148a4908290600080516020615d0d833981519152906370a082319061484d903090600401614ad0565b602060405180830381865afa15801561486a573d6000803e3d6000fd5b505050506040513d601f19601f8201168201806040525081019061488e9190615075565b600080516020615d0d8339815191529190612567565b6040516370a0823160e01b8152610c8a908290600080516020615ccd833981519152906370a08231906148db903090600401614ad0565b602060405180830381865afa1580156148f8573d6000803e3d6000fd5b505050506040513d601f19601f8201168201806040525081019061491c9190615075565b600080516020615ccd8339815191529190612567565b6060831561499f5782516000036149985761494c856125c2565b6149985760405162461bcd60e51b815260206004820152601d60248201527f416464726573733a2063616c6c20746f206e6f6e2d636f6e74726163740000006044820152606401610ab1565b50816119c6565b6119c683838151156149b45781518083602001fd5b8060405162461bcd60e51b8152600401610ab19190614b34565b803561ffff811681146149e057600080fd5b919050565b60008083601f8401126149f757600080fd5b5081356001600160401b03811115614a0e57600080fd5b60208301915083602082850101111561411857600080fd5b80356001600160401b03811681146149e057600080fd5b60008060008060008060808789031215614a5657600080fd5b614a5f876149ce565b955060208701356001600160401b0380821115614a7b57600080fd5b614a878a838b016149e5565b9097509550859150614a9b60408a01614a26565b94506060890135915080821115614ab157600080fd5b50614abe89828a016149e5565b979a9699509497509295939492505050565b6001600160a01b0391909116815260200190565b60005b83811015614aff578181015183820152602001614ae7565b50506000910152565b60008151808452614b20816020860160208601614ae4565b601f01601f19169290920160200192915050565b6020815260006110226020830184614b08565b600060208284031215614b5957600080fd5b611022826149ce565b60008060408385031215614b7557600080fd5b614b7e836149ce565b946020939093013593505050565b6001600160a01b0381168114610c8a57600080fd5b600060208284031215614bb357600080fd5b813561102281614b8c565b600080600080600080600080610100898b031215614bdb57600080fd5b8835614be681614b8c565b97506020890135614bf681614b8c565b96506040890135614c0681614b8c565b95506060890135614c1681614b8c565b9450614c2460808a016149ce565b9350614c3260a08a016149ce565b925060c0890135614c4281614b8c565b915060e0890135614c5281614b8c565b809150509295985092959890939650565b6001600160a01b03169052565b600060208284031215614c8257600080fd5b5035919050565b600080600060408486031215614c9e57600080fd5b614ca7846149ce565b925060208401356001600160401b03811115614cc257600080fd5b614cce868287016149e5565b9497909650939450505050565b8015158114610c8a57600080fd5b600060208284031215614cfb57600080fd5b813561102281614cdb565b634e487b7160e01b600052604160045260246000fd5b604051602081016001600160401b0381118282101715614d3e57614d3e614d06565b60405290565b604051601f8201601f191681016001600160401b0381118282101715614d6c57614d6c614d06565b604052919050565b60006001600160401b03821115614d8d57614d8d614d06565b50601f01601f191660200190565b600082601f830112614dac57600080fd5b8135614dbf614dba82614d74565b614d44565b818152846020838601011115614dd457600080fd5b816020850160208301376000918101602001919091529392505050565b600080600080600060a08688031215614e0957600080fd5b8535945060208601359350604086013592506060860135915060808601356001600160401b03811115614e3b57600080fd5b614e4788828901614d9b565b9150509295509295909350565b600080600060608486031215614e6957600080fd5b614e72846149ce565b925060208401356001600160401b03811115614e8d57600080fd5b614e9986828701614d9b565b925050614ea860408501614a26565b90509250925092565b60008060408385031215614ec457600080fd5b614ecd836149ce565b9150614edb602084016149ce565b90509250929050565b60008060008060008060c08789031215614efd57600080fd5b614f06876149ce565b955060208701356001600160401b0380821115614f2257600080fd5b614f2e8a838b01614d9b565b96506040890135955060608901359150614f4782614b8c565b9093506080880135925060a08801359080821115614f6457600080fd5b50614f7189828a01614d9b565b9150509295509295509295565b600080600080600060808688031215614f9657600080fd5b614f9f866149ce565b9450614fad602087016149ce565b93506040860135925060608601356001600160401b03811115614fcf57600080fd5b614fdb888289016149e5565b969995985093965092949392505050565b60008060006060848603121561500157600080fd5b61500a846149ce565b9250615018602085016149ce565b9150604084013590509250925092565b6000806000806080858703121561503e57600080fd5b615047856149ce565b9350615055602086016149ce565b9250604085013561506581614b8c565b9396929550929360600135925050565b60006020828403121561508757600080fd5b5051919050565b600181811c908216806150a257607f821691505b6020821081036150c257634e487b7160e01b600052602260045260246000fd5b50919050565b8183823760009101908152919050565b6000602082840312156150ea57600080fd5b815160ff8116811461102257600080fd5b81835281816020850137506000828201602090810191909152601f909101601f19169091010190565b61ffff841681526040602082015260006121d76040830184866150fb565b634e487b7160e01b600052601160045260246000fd5b818103818111156110b1576110b1615142565b808201808211156110b1576110b1615142565b60006001820161519057615190615142565b5060010190565b634e487b7160e01b600052602160045260246000fd5b600581106151cb57634e487b7160e01b600052602160045260246000fd5b9052565b6151d981846151ad565b604060208201526151ee604082018351614c63565b6020820151606082015260408201516080820152606082015160a0820152608082015160c082015260a082015160e0820152600060c0830151610100818185015260e085015191506101208281860152818601519250610140915082828601528086015192505061016082818601528186015192508061018086015250506121d76101a0840182614b08565b6001600160a01b03929092168252602082015260400190565b8284823760609190911b6001600160601b0319169101908152601401919050565b601f8211156125bd57600081815260208120601f850160051c810160208610156152db5750805b601f850160051c820191505b81811015610b30578281556001016152e7565b600019600383901b1c191660019190911b1790565b81516001600160401b0381111561532857615328614d06565b61533c81615336845461508e565b846152b4565b602080601f83116001811461536b57600084156153595750858301515b61536385826152fa565b865550610b30565b600085815260208120601f198616915b8281101561539a5788860151825594840194600190910190840161537b565b50858210156153b85787850151600019600388901b60f8161c191681555b5050505050600190811b01905550565b6001600160a01b03948516815292909316602083015215156040820152606081019190915260800190565b6000806040838503121561540657600080fd5b505080516020909101519092909150565b60008251615429818460208701614ae4565b9190910192915050565b805160208201516001600160601b031980821692919060148310156154625780818460140360031b1b83161693505b505050919050565b9182526001600160a01b0316602082015260400190565b600061ffff80881683528087166020840152508460408301526080606083015261465a6080830184866150fb565b61ffff861681526080602082015260006154cd6080830186886150fb565b6001600160401b0394909416604083015250606001529392505050565b6001600160401b0383111561550157615501614d06565b6155158361550f835461508e565b836152b4565b6000601f84116001811461554357600085156155315750838201355b61553b86826152fa565b845550610b9e565b600083815260209020601f19861690835b828110156155745786850135825560209485019460019092019101615554565b50868210156155915760001960f88860031b161c19848701351681555b505060018560011b0183555050505050565b6000602082840312156155b557600080fd5b81516001600160401b038111156155cb57600080fd5b8201601f810184136155dc57600080fd5b80516155ea614dba82614d74565b8181528560208385010111156155ff57600080fd5b6121d7826020830160208601614ae4565b600181815b8085111561564b57816000190482111561563157615631615142565b8085161561563e57918102915b93841c9390800290615615565b509250929050565b600082615662575060016110b1565b8161566f575060006110b1565b8160018114615685576002811461568f576156ab565b60019150506110b1565b60ff8411156156a0576156a0615142565b50506001821b6110b1565b5060208310610133831016604e8410600b84101617156156ce575081810a6110b1565b6156d88383615610565b80600019048211156156ec576156ec615142565b029392505050565b600061102260ff841683615653565b80820281158282048414176110b1576110b1615142565b60008261573757634e487b7160e01b600052601260045260246000fd5b500490565b61ffff851681526080602082015260006157596080830186614b08565b6001600160401b0385166040840152828103606084015261465a8185614b08565b6020808252602b908201527f496e697469616c697a61626c653a20636f6e7472616374206973206e6f74206960408201526a6e697469616c697a696e6760a81b606082015260800190565b6000602082840312156157d757600080fd5b815161102281614cdb565b6020815260008251608060208401526157fe60a0840182614b08565b905060018060a01b03602085015116604084015260408401516060840152606084015160808401528091505092915050565b60008060006060848603121561584557600080fd5b8351925060208401519150604084015190509250925092565b60ff82811682821603908111156110b1576110b1615142565b61ffff841681526001600160a01b03831660208201526060604082018190526000906121d790830184614b08565b6001600160a01b0386811682526020820186905261ffff851660408301528316606082015260a06080820181905260009061465a90830184614b08565b61ffff861681526001600160a01b038516602082015260a06040820181905260009061591090830186614b08565b8415156060840152828103608084015261592a8185614b08565b98975050505050505050565b61ffff8716815260c06020820152600061595360c0830188614b08565b82810360408401526159658188614b08565b6001600160a01b0387811660608601528616608085015283810360a085015290506159908185614b08565b9998505050505050505050565b61ffff8616815260a0602082015260006159ba60a0830187614b08565b6001600160401b038616604084015282810360608401526159db8186614b08565b9050828103608084015261592a8185614b08565b634e487b7160e01b600052603260045260246000fd5b600060a0820187835260208781850152604060a08186015282885180855260c087019150838a01945060005b81811015615a6e57855180516001600160a01b03908116855286820151168685015284015115158484015294840194606090920191600101615a31565b505080945050505050615a846060830185614c63565b8260808301529695505050505050565b60006020808385031215615aa757600080fd5b82516001600160401b0380821115615abe57600080fd5b818501915085601f830112615ad257600080fd5b815181811115615ae457615ae4614d06565b8060051b9150615af5848301614d44565b8181529183018401918481019088841115615b0f57600080fd5b938501935b8385101561592a57845182529385019390850190615b14565b600060208284031215615b3f57600080fd5b81516005811061102257600080fd5b6000808284036040811215615b6257600080fd5b835192506020601f1982011215615b7857600080fd5b50615b81614d1c565b6020939093015183525092909150565b6000808284036060811215615ba557600080fd5b835192506040601f1982011215615bbb57600080fd5b50604080519081016001600160401b0381118282101715615bde57615bde614d06565b60409081526020858101518352940151938101939093525092909150565b6000808284036040811215615c1057600080fd5b835192506020601f1982011215615c2657600080fd5b50615c2f614d1c565b6020840151615c3d81614b8c565b8152919491935090915050565b60a08101615c5882856151ad565b60018060a01b038351166020830152602083015160408301526040830151606083015260608301516080830152939250505056fe000000000000000000000000cc25c0fd84737f44a7d38649b69491bbf0c7f08300000000000000000000000097bd59a8202f8263c2ec39cf6cf6b438d0b458760000000000000000000000007238390d5f6f64e67c3211c343a410e2a3dec142000000000000000000000000d17cb0f162f133e339c0bbfc18c36c357e681d6b00000000000000000000000040379a439d4f6795b6fc9aa5687db461677a2dbab0c58532a125fc3c0adccaef396bf65344a4d5781cec2e4c593e6b611d75f150a2646970667358221220f7b8890db2657d4192a4073a62c056f183da46c59220f446b15490ff879d904b64736f6c63430008130033",
  "linkReferences": {},
  "deployedLinkReferences": {}
}