{
  "_format": "hh-sol-artifact-1",
  "contractName": "PearlStrategy",
  "sourceName": "contracts/strategies/PearlStrategy.sol",
  "abi": [
    {
      "inputs": [
        {
          "internalType": "uint256",
          "name": "messageType",
          "type": "uint256"
        }
      ],
      "name": "IncorrectMessageType",
      "type": "error"
    },
    {
      "inputs": [
        {
          "internalType": "uint256",
          "name": "amount",
          "type": "uint256"
        },
        {
          "internalType": "uint256",
          "name": "balance",
          "type": "uint256"
        }
      ],
      "name": "InsufficientFunds",
      "type": "error"
    },
    {
      "anonymous": false,
      "inputs": [
        {
          "indexed": false,
          "internalType": "uint256",
          "name": "debtOutstanding",
          "type": "uint256"
        }
      ],
      "name": "AdjustedPosition",
      "type": "event"
    },
    {
      "anonymous": false,
      "inputs": [
        {
          "indexed": false,
          "internalType": "uint8",
          "name": "version",
          "type": "uint8"
        }
      ],
      "name": "Initialized",
      "type": "event"
    },
    {
      "anonymous": false,
      "inputs": [
        {
          "indexed": false,
          "internalType": "uint16",
          "name": "_srcChainId",
          "type": "uint16"
        },
        {
          "indexed": false,
          "internalType": "bytes",
          "name": "_srcAddress",
          "type": "bytes"
        },
        {
          "indexed": false,
          "internalType": "uint64",
          "name": "_nonce",
          "type": "uint64"
        },
        {
          "indexed": false,
          "internalType": "bytes",
          "name": "_payload",
          "type": "bytes"
        },
        {
          "indexed": false,
          "internalType": "bytes",
          "name": "_reason",
          "type": "bytes"
        }
      ],
      "name": "MessageFailed",
      "type": "event"
    },
    {
      "anonymous": false,
      "inputs": [
        {
          "indexed": true,
          "internalType": "address",
          "name": "previousOwner",
          "type": "address"
        },
        {
          "indexed": true,
          "internalType": "address",
          "name": "newOwner",
          "type": "address"
        }
      ],
      "name": "OwnershipTransferred",
      "type": "event"
    },
    {
      "anonymous": false,
      "inputs": [
        {
          "indexed": false,
          "internalType": "uint16",
          "name": "_srcChainId",
          "type": "uint16"
        },
        {
          "indexed": false,
          "internalType": "bytes",
          "name": "_srcAddress",
          "type": "bytes"
        },
        {
          "indexed": false,
          "internalType": "uint64",
          "name": "_nonce",
          "type": "uint64"
        },
        {
          "indexed": false,
          "internalType": "bytes32",
          "name": "_payloadHash",
          "type": "bytes32"
        }
      ],
      "name": "RetryMessageSuccess",
      "type": "event"
    },
    {
      "anonymous": false,
      "inputs": [
        {
          "indexed": false,
          "internalType": "uint16",
          "name": "_dstChainId",
          "type": "uint16"
        },
        {
          "indexed": false,
          "internalType": "uint16",
          "name": "_type",
          "type": "uint16"
        },
        {
          "indexed": false,
          "internalType": "uint256",
          "name": "_minDstGas",
          "type": "uint256"
        }
      ],
      "name": "SetMinDstGas",
      "type": "event"
    },
    {
      "anonymous": false,
      "inputs": [
        {
          "indexed": false,
          "internalType": "address",
          "name": "precrime",
          "type": "address"
        }
      ],
      "name": "SetPrecrime",
      "type": "event"
    },
    {
      "anonymous": false,
      "inputs": [
        {
          "indexed": false,
          "internalType": "uint16",
          "name": "_remoteChainId",
          "type": "uint16"
        },
        {
          "indexed": false,
          "internalType": "bytes",
          "name": "_path",
          "type": "bytes"
        }
      ],
      "name": "SetTrustedRemote",
      "type": "event"
    },
    {
      "anonymous": false,
      "inputs": [
        {
          "indexed": false,
          "internalType": "uint16",
          "name": "_remoteChainId",
          "type": "uint16"
        },
        {
          "indexed": false,
          "internalType": "bytes",
          "name": "_remoteAddress",
          "type": "bytes"
        }
      ],
      "name": "SetTrustedRemoteAddress",
      "type": "event"
    },
    {
      "anonymous": false,
      "inputs": [
        {
          "indexed": true,
          "internalType": "address",
          "name": "token",
          "type": "address"
        },
        {
          "indexed": false,
          "internalType": "uint256",
          "name": "amount",
          "type": "uint256"
        },
        {
          "indexed": false,
          "internalType": "address",
          "name": "sender",
          "type": "address"
        }
      ],
      "name": "SgReceived",
      "type": "event"
    },
    {
      "anonymous": false,
      "inputs": [
        {
          "indexed": false,
          "internalType": "address",
          "name": "newStrategy",
          "type": "address"
        }
      ],
      "name": "StrategyMigrated",
      "type": "event"
    },
    {
      "anonymous": false,
      "inputs": [
        {
          "indexed": false,
          "internalType": "uint256",
          "name": "profit",
          "type": "uint256"
        },
        {
          "indexed": false,
          "internalType": "uint256",
          "name": "loss",
          "type": "uint256"
        },
        {
          "indexed": false,
          "internalType": "uint256",
          "name": "debtPayment",
          "type": "uint256"
        },
        {
          "indexed": false,
          "internalType": "uint256",
          "name": "giveToStrategy",
          "type": "uint256"
        },
        {
          "indexed": false,
          "internalType": "uint256",
          "name": "requestFromStrategy",
          "type": "uint256"
        },
        {
          "indexed": false,
          "internalType": "uint256",
          "name": "creditAvailable",
          "type": "uint256"
        },
        {
          "indexed": false,
          "internalType": "uint256",
          "name": "totalAssets",
          "type": "uint256"
        }
      ],
      "name": "StrategyReported",
      "type": "event"
    },
    {
      "inputs": [],
      "name": "DEFAULT_PAYLOAD_SIZE_LIMIT",
      "outputs": [
        {
          "internalType": "uint256",
          "name": "",
          "type": "uint256"
        }
      ],
      "stateMutability": "view",
      "type": "function"
    },
    {
      "inputs": [],
      "name": "DEFAULT_SLIPPAGE",
      "outputs": [
        {
          "internalType": "uint256",
          "name": "",
          "type": "uint256"
        }
      ],
      "stateMutability": "view",
      "type": "function"
    },
    {
      "inputs": [
        {
          "internalType": "uint256",
          "name": "_debtOutstanding",
          "type": "uint256"
        }
      ],
      "name": "adjustPosition",
      "outputs": [],
      "stateMutability": "nonpayable",
      "type": "function"
    },
    {
      "inputs": [],
      "name": "balanceOfLpStaked",
      "outputs": [
        {
          "internalType": "uint256",
          "name": "",
          "type": "uint256"
        }
      ],
      "stateMutability": "view",
      "type": "function"
    },
    {
      "inputs": [],
      "name": "balanceOfPearlRewards",
      "outputs": [
        {
          "internalType": "uint256",
          "name": "",
          "type": "uint256"
        }
      ],
      "stateMutability": "view",
      "type": "function"
    },
    {
      "inputs": [],
      "name": "balanceOfWant",
      "outputs": [
        {
          "internalType": "uint256",
          "name": "",
          "type": "uint256"
        }
      ],
      "stateMutability": "view",
      "type": "function"
    },
    {
      "inputs": [],
      "name": "callMe",
      "outputs": [],
      "stateMutability": "nonpayable",
      "type": "function"
    },
    {
      "inputs": [],
      "name": "clearWant",
      "outputs": [],
      "stateMutability": "nonpayable",
      "type": "function"
    },
    {
      "inputs": [],
      "name": "currentChainId",
      "outputs": [
        {
          "internalType": "uint16",
          "name": "",
          "type": "uint16"
        }
      ],
      "stateMutability": "view",
      "type": "function"
    },
    {
      "inputs": [
        {
          "internalType": "uint256",
          "name": "_daiAmount",
          "type": "uint256"
        }
      ],
      "name": "daiToWant",
      "outputs": [
        {
          "internalType": "uint256",
          "name": "",
          "type": "uint256"
        }
      ],
      "stateMutability": "view",
      "type": "function"
    },
    {
      "inputs": [],
      "name": "emergencyExit",
      "outputs": [
        {
          "internalType": "bool",
          "name": "",
          "type": "bool"
        }
      ],
      "stateMutability": "view",
      "type": "function"
    },
    {
      "inputs": [],
      "name": "estimatedTotalAssets",
      "outputs": [
        {
          "internalType": "uint256",
          "name": "",
          "type": "uint256"
        }
      ],
      "stateMutability": "view",
      "type": "function"
    },
    {
      "inputs": [
        {
          "internalType": "uint16",
          "name": "",
          "type": "uint16"
        },
        {
          "internalType": "bytes",
          "name": "",
          "type": "bytes"
        },
        {
          "internalType": "uint64",
          "name": "",
          "type": "uint64"
        }
      ],
      "name": "failedMessages",
      "outputs": [
        {
          "internalType": "bytes32",
          "name": "",
          "type": "bytes32"
        }
      ],
      "stateMutability": "view",
      "type": "function"
    },
    {
      "inputs": [
        {
          "internalType": "uint16",
          "name": "_srcChainId",
          "type": "uint16"
        },
        {
          "internalType": "bytes",
          "name": "_srcAddress",
          "type": "bytes"
        }
      ],
      "name": "forceResumeReceive",
      "outputs": [],
      "stateMutability": "nonpayable",
      "type": "function"
    },
    {
      "inputs": [
        {
          "internalType": "uint16",
          "name": "_version",
          "type": "uint16"
        },
        {
          "internalType": "uint16",
          "name": "_chainId",
          "type": "uint16"
        },
        {
          "internalType": "address",
          "name": "",
          "type": "address"
        },
        {
          "internalType": "uint256",
          "name": "_configType",
          "type": "uint256"
        }
      ],
      "name": "getConfig",
      "outputs": [
        {
          "internalType": "bytes",
          "name": "",
          "type": "bytes"
        }
      ],
      "stateMutability": "view",
      "type": "function"
    },
    {
      "inputs": [
        {
          "internalType": "bytes32",
          "name": "_messageHash",
          "type": "bytes32"
        }
      ],
      "name": "getEthSignedMessageHash",
      "outputs": [
        {
          "internalType": "bytes32",
          "name": "",
          "type": "bytes32"
        }
      ],
      "stateMutability": "pure",
      "type": "function"
    },
    {
      "inputs": [
        {
          "internalType": "uint16",
          "name": "_remoteChainId",
          "type": "uint16"
        }
      ],
      "name": "getTrustedRemoteAddress",
      "outputs": [
        {
          "internalType": "bytes",
          "name": "",
          "type": "bytes"
        }
      ],
      "stateMutability": "view",
      "type": "function"
    },
    {
      "inputs": [],
      "name": "harvest",
      "outputs": [],
      "stateMutability": "nonpayable",
      "type": "function"
    },
    {
      "inputs": [
        {
          "internalType": "uint256",
          "name": "_totalDebt",
          "type": "uint256"
        },
        {
          "internalType": "uint256",
          "name": "_debtOutstanding",
          "type": "uint256"
        },
        {
          "internalType": "uint256",
          "name": "_creditAvailable",
          "type": "uint256"
        },
        {
          "internalType": "uint256",
          "name": "_debtRatio",
          "type": "uint256"
        },
        {
          "internalType": "bytes",
          "name": "_signature",
          "type": "bytes"
        }
      ],
      "name": "harvest",
      "outputs": [],
      "stateMutability": "nonpayable",
      "type": "function"
    },
    {
      "inputs": [
        {
          "internalType": "address",
          "name": "_lzEndpoint",
          "type": "address"
        },
        {
          "internalType": "address",
          "name": "_strategist",
          "type": "address"
        },
        {
          "internalType": "contract IERC20",
          "name": "_want",
          "type": "address"
        },
        {
          "internalType": "address",
          "name": "_vault",
          "type": "address"
        },
        {
          "internalType": "uint16",
          "name": "_vaultChainId",
          "type": "uint16"
        },
        {
          "internalType": "uint16",
          "name": "_currentChainId",
          "type": "uint16"
        },
        {
          "internalType": "address",
          "name": "_sgBridge",
          "type": "address"
        },
        {
          "internalType": "address",
          "name": "_router",
          "type": "address"
        }
      ],
      "name": "initialize",
      "outputs": [],
      "stateMutability": "nonpayable",
      "type": "function"
    },
    {
      "inputs": [
        {
          "internalType": "uint16",
          "name": "_srcChainId",
          "type": "uint16"
        },
        {
          "internalType": "bytes",
          "name": "_srcAddress",
          "type": "bytes"
        }
      ],
      "name": "isTrustedRemote",
      "outputs": [
        {
          "internalType": "bool",
          "name": "",
          "type": "bool"
        }
      ],
      "stateMutability": "view",
      "type": "function"
    },
    {
      "inputs": [],
      "name": "lzEndpoint",
      "outputs": [
        {
          "internalType": "contract ILayerZeroEndpointUpgradeable",
          "name": "",
          "type": "address"
        }
      ],
      "stateMutability": "view",
      "type": "function"
    },
    {
      "inputs": [
        {
          "internalType": "uint16",
          "name": "_srcChainId",
          "type": "uint16"
        },
        {
          "internalType": "bytes",
          "name": "_srcAddress",
          "type": "bytes"
        },
        {
          "internalType": "uint64",
          "name": "_nonce",
          "type": "uint64"
        },
        {
          "internalType": "bytes",
          "name": "_payload",
          "type": "bytes"
        }
      ],
      "name": "lzReceive",
      "outputs": [],
      "stateMutability": "nonpayable",
      "type": "function"
    },
    {
      "inputs": [
        {
          "internalType": "uint16",
          "name": "",
          "type": "uint16"
        },
        {
          "internalType": "uint16",
          "name": "",
          "type": "uint16"
        }
      ],
      "name": "minDstGasLookup",
      "outputs": [
        {
          "internalType": "uint256",
          "name": "",
          "type": "uint256"
        }
      ],
      "stateMutability": "view",
      "type": "function"
    },
    {
      "inputs": [],
      "name": "name",
      "outputs": [
        {
          "internalType": "string",
          "name": "",
          "type": "string"
        }
      ],
      "stateMutability": "pure",
      "type": "function"
    },
    {
      "inputs": [
        {
          "internalType": "uint16",
          "name": "_srcChainId",
          "type": "uint16"
        },
        {
          "internalType": "bytes",
          "name": "_srcAddress",
          "type": "bytes"
        },
        {
          "internalType": "uint64",
          "name": "_nonce",
          "type": "uint64"
        },
        {
          "internalType": "bytes",
          "name": "_payload",
          "type": "bytes"
        }
      ],
      "name": "nonblockingLzReceive",
      "outputs": [],
      "stateMutability": "nonpayable",
      "type": "function"
    },
    {
      "inputs": [],
      "name": "owner",
      "outputs": [
        {
          "internalType": "address",
          "name": "",
          "type": "address"
        }
      ],
      "stateMutability": "view",
      "type": "function"
    },
    {
      "inputs": [
        {
          "internalType": "uint16",
          "name": "",
          "type": "uint16"
        }
      ],
      "name": "payloadSizeLimitLookup",
      "outputs": [
        {
          "internalType": "uint256",
          "name": "",
          "type": "uint256"
        }
      ],
      "stateMutability": "view",
      "type": "function"
    },
    {
      "inputs": [
        {
          "internalType": "uint256",
          "name": "_pearlAmount",
          "type": "uint256"
        }
      ],
      "name": "pearlToWant",
      "outputs": [
        {
          "internalType": "uint256",
          "name": "",
          "type": "uint256"
        }
      ],
      "stateMutability": "view",
      "type": "function"
    },
    {
      "inputs": [],
      "name": "precrime",
      "outputs": [
        {
          "internalType": "address",
          "name": "",
          "type": "address"
        }
      ],
      "stateMutability": "view",
      "type": "function"
    },
    {
      "inputs": [],
      "name": "renounceOwnership",
      "outputs": [],
      "stateMutability": "nonpayable",
      "type": "function"
    },
    {
      "inputs": [
        {
          "internalType": "uint16",
          "name": "_srcChainId",
          "type": "uint16"
        },
        {
          "internalType": "bytes",
          "name": "_srcAddress",
          "type": "bytes"
        },
        {
          "internalType": "uint64",
          "name": "_nonce",
          "type": "uint64"
        },
        {
          "internalType": "bytes",
          "name": "_payload",
          "type": "bytes"
        }
      ],
      "name": "retryMessage",
      "outputs": [],
      "stateMutability": "payable",
      "type": "function"
    },
    {
      "inputs": [],
      "name": "revokeFunds",
      "outputs": [],
      "stateMutability": "nonpayable",
      "type": "function"
    },
    {
      "inputs": [
        {
          "internalType": "uint16",
          "name": "_version",
          "type": "uint16"
        },
        {
          "internalType": "uint16",
          "name": "_chainId",
          "type": "uint16"
        },
        {
          "internalType": "uint256",
          "name": "_configType",
          "type": "uint256"
        },
        {
          "internalType": "bytes",
          "name": "_config",
          "type": "bytes"
        }
      ],
      "name": "setConfig",
      "outputs": [],
      "stateMutability": "nonpayable",
      "type": "function"
    },
    {
      "inputs": [
        {
          "internalType": "bool",
          "name": "_emergencyExit",
          "type": "bool"
        }
      ],
      "name": "setEmergencyExit",
      "outputs": [],
      "stateMutability": "nonpayable",
      "type": "function"
    },
    {
      "inputs": [
        {
          "internalType": "uint16",
          "name": "_dstChainId",
          "type": "uint16"
        },
        {
          "internalType": "uint16",
          "name": "_packetType",
          "type": "uint16"
        },
        {
          "internalType": "uint256",
          "name": "_minGas",
          "type": "uint256"
        }
      ],
      "name": "setMinDstGas",
      "outputs": [],
      "stateMutability": "nonpayable",
      "type": "function"
    },
    {
      "inputs": [
        {
          "internalType": "uint16",
          "name": "_dstChainId",
          "type": "uint16"
        },
        {
          "internalType": "uint256",
          "name": "_size",
          "type": "uint256"
        }
      ],
      "name": "setPayloadSizeLimit",
      "outputs": [],
      "stateMutability": "nonpayable",
      "type": "function"
    },
    {
      "inputs": [
        {
          "internalType": "address",
          "name": "_precrime",
          "type": "address"
        }
      ],
      "name": "setPrecrime",
      "outputs": [],
      "stateMutability": "nonpayable",
      "type": "function"
    },
    {
      "inputs": [
        {
          "internalType": "uint16",
          "name": "_version",
          "type": "uint16"
        }
      ],
      "name": "setReceiveVersion",
      "outputs": [],
      "stateMutability": "nonpayable",
      "type": "function"
    },
    {
      "inputs": [
        {
          "internalType": "uint16",
          "name": "_version",
          "type": "uint16"
        }
      ],
      "name": "setSendVersion",
      "outputs": [],
      "stateMutability": "nonpayable",
      "type": "function"
    },
    {
      "inputs": [
        {
          "internalType": "uint256",
          "name": "_slippage",
          "type": "uint256"
        }
      ],
      "name": "setSlippage",
      "outputs": [],
      "stateMutability": "nonpayable",
      "type": "function"
    },
    {
      "inputs": [
        {
          "internalType": "uint16",
          "name": "_srcChainId",
          "type": "uint16"
        },
        {
          "internalType": "bytes",
          "name": "_path",
          "type": "bytes"
        }
      ],
      "name": "setTrustedRemote",
      "outputs": [],
      "stateMutability": "nonpayable",
      "type": "function"
    },
    {
      "inputs": [
        {
          "internalType": "uint16",
          "name": "_remoteChainId",
          "type": "uint16"
        },
        {
          "internalType": "bytes",
          "name": "_remoteAddress",
          "type": "bytes"
        }
      ],
      "name": "setTrustedRemoteAddress",
      "outputs": [],
      "stateMutability": "nonpayable",
      "type": "function"
    },
    {
      "inputs": [],
      "name": "sgBridge",
      "outputs": [
        {
          "internalType": "contract ISgBridge",
          "name": "",
          "type": "address"
        }
      ],
      "stateMutability": "view",
      "type": "function"
    },
    {
      "inputs": [
        {
          "internalType": "uint16",
          "name": "",
          "type": "uint16"
        },
        {
          "internalType": "bytes",
          "name": "_srcAddress",
          "type": "bytes"
        },
        {
          "internalType": "uint256",
          "name": "",
          "type": "uint256"
        },
        {
          "internalType": "address",
          "name": "_token",
          "type": "address"
        },
        {
          "internalType": "uint256",
          "name": "_amountLD",
          "type": "uint256"
        },
        {
          "internalType": "bytes",
          "name": "",
          "type": "bytes"
        }
      ],
      "name": "sgReceive",
      "outputs": [],
      "stateMutability": "nonpayable",
      "type": "function"
    },
    {
      "inputs": [],
      "name": "sgRouter",
      "outputs": [
        {
          "internalType": "contract IStargateRouter",
          "name": "",
          "type": "address"
        }
      ],
      "stateMutability": "view",
      "type": "function"
    },
    {
      "inputs": [],
      "name": "slippage",
      "outputs": [
        {
          "internalType": "uint256",
          "name": "",
          "type": "uint256"
        }
      ],
      "stateMutability": "view",
      "type": "function"
    },
    {
      "inputs": [],
      "name": "strategist",
      "outputs": [
        {
          "internalType": "address",
          "name": "",
          "type": "address"
        }
      ],
      "stateMutability": "view",
      "type": "function"
    },
    {
      "inputs": [],
      "name": "strategistSignMessageHash",
      "outputs": [
        {
          "internalType": "bytes32",
          "name": "",
          "type": "bytes32"
        }
      ],
      "stateMutability": "view",
      "type": "function"
    },
    {
      "inputs": [
        {
          "internalType": "contract IERC20",
          "name": "_token",
          "type": "address"
        }
      ],
      "name": "sweepToken",
      "outputs": [],
      "stateMutability": "nonpayable",
      "type": "function"
    },
    {
      "inputs": [
        {
          "internalType": "address",
          "name": "newOwner",
          "type": "address"
        }
      ],
      "name": "transferOwnership",
      "outputs": [],
      "stateMutability": "nonpayable",
      "type": "function"
    },
    {
      "inputs": [
        {
          "internalType": "uint16",
          "name": "",
          "type": "uint16"
        }
      ],
      "name": "trustedRemoteLookup",
      "outputs": [
        {
          "internalType": "bytes",
          "name": "",
          "type": "bytes"
        }
      ],
      "stateMutability": "view",
      "type": "function"
    },
    {
      "inputs": [
        {
          "internalType": "uint256",
          "name": "_usdrLpAmount",
          "type": "uint256"
        }
      ],
      "name": "usdrLpToWant",
      "outputs": [
        {
          "internalType": "uint256",
          "name": "",
          "type": "uint256"
        }
      ],
      "stateMutability": "view",
      "type": "function"
    },
    {
      "inputs": [
        {
          "internalType": "uint256",
          "name": "_usdrAmount",
          "type": "uint256"
        }
      ],
      "name": "usdrToWant",
      "outputs": [
        {
          "internalType": "uint256",
          "name": "",
          "type": "uint256"
        }
      ],
      "stateMutability": "view",
      "type": "function"
    },
    {
      "inputs": [],
      "name": "vault",
      "outputs": [
        {
          "internalType": "address",
          "name": "",
          "type": "address"
        }
      ],
      "stateMutability": "view",
      "type": "function"
    },
    {
      "inputs": [],
      "name": "vaultChainId",
      "outputs": [
        {
          "internalType": "uint16",
          "name": "",
          "type": "uint16"
        }
      ],
      "stateMutability": "view",
      "type": "function"
    },
    {
      "inputs": [],
      "name": "want",
      "outputs": [
        {
          "internalType": "contract IERC20",
          "name": "",
          "type": "address"
        }
      ],
      "stateMutability": "view",
      "type": "function"
    },
    {
      "inputs": [],
      "name": "wantDecimals",
      "outputs": [
        {
          "internalType": "uint8",
          "name": "",
          "type": "uint8"
        }
      ],
      "stateMutability": "view",
      "type": "function"
    },
    {
      "inputs": [
        {
          "internalType": "uint256",
          "name": "_wantAmount",
          "type": "uint256"
        }
      ],
      "name": "wantToUsdrLp",
      "outputs": [
        {
          "internalType": "uint256",
          "name": "",
          "type": "uint256"
        }
      ],
      "stateMutability": "view",
      "type": "function"
    },
    {
      "stateMutability": "payable",
      "type": "receive"
    }
  ],
  "bytecode": "0x608060405234801561001057600080fd5b50615b6080620000216000396000f3fe60806040526004361061029f5760003560e01c80621d3567146102ab5780630517cb76146102cd57806306fdde031461030357806307e0db17146103425780630df374831461036257806310ddb137146103825780631be19560146103a25780631cdb539f146103c25780631f1fcd51146103e25780631fe4a686146104025780632d6068431461042257806337fded91146104375780633d3ccc2f1461045c5780633d8b38f61461047c5780633e032a3b146104ac5780633eae1112146104d05780633f1f4fa4146104f057806342d65a8d1461051d57806345ee07551461053d5780634641257d1461055d578063495f881e146105725780635641ec0314610592578063567ad85d146105ac578063593178de146105e15780635b8c41e6146105f657806366ad5c8a146106455780636cbadbfa14610665578063715018a6146106875780637533d7881461069c5780638cfd8f5c146106bc5780638da5cb5b146106f45780638f4508d014610709578063950c8a741461071e5780639589c9901461073e5780639606647d1461075e5780639f38369a14610773578063a6c3d16514610793578063a8798510146107b3578063a9e50824146107c9578063ab8236f3146107e9578063adf076e614610809578063b0bea7251461083c578063b353aaa714610848578063baf3292d14610868578063bd79ac1314610888578063c1a3d44c146108a8578063c4461834146108bd578063cbed8b9c146108d3578063d1deba1f146108f3578063d56739ac14610906578063df2a5b3b1461091b578063eb8d72b71461093b578063efbb5cb01461095b578063f0fa55a914610970578063f2fde38b14610990578063f5ecbdbc146109b0578063fa540801146109d0578063fbfa77cf146109f0578063fcb988a414610a1057600080fd5b366102a657005b600080fd5b3480156102b757600080fd5b506102cb6102c63660046147e3565b610a30565b005b3480156102d957600080fd5b5060ce546102ed906001600160a01b031681565b6040516102fa9190614876565b60405180910390f35b34801561030f57600080fd5b5060408051808201909152600d81526c506561726c537472617465677960981b60208201525b6040516102fa91906148da565b34801561034e57600080fd5b506102cb61035d3660046148ed565b610b19565b34801561036e57600080fd5b506102cb61037d366004614908565b610b86565b34801561038e57600080fd5b506102cb61039d3660046148ed565b610ba5565b3480156103ae57600080fd5b506102cb6103bd366004614947565b610be1565b3480156103ce57600080fd5b506102cb6103dd366004614964565b610c6e565b3480156103ee57600080fd5b5060ca546102ed906001600160a01b031681565b34801561040e57600080fd5b5060c9546102ed906001600160a01b031681565b34801561042e57600080fd5b506102cb610ed8565b34801561044357600080fd5b5060cd546102ed9061010090046001600160a01b031681565b34801561046857600080fd5b506102cb610477366004614a16565b610f19565b34801561048857600080fd5b5061049c610497366004614a2f565b610f46565b60405190151581526020016102fa565b3480156104b857600080fd5b506104c260cc5481565b6040519081526020016102fa565b3480156104dc57600080fd5b506104c26104eb366004614a16565b611013565b3480156104fc57600080fd5b506104c261050b3660046148ed565b60686020526000908152604090205481565b34801561052957600080fd5b506102cb610538366004614a2f565b6110a1565b34801561054957600080fd5b506102cb610558366004614a8f565b611114565b34801561056957600080fd5b506102cb61112f565b34801561057e57600080fd5b506102cb61058d366004614b97565b61187d565b34801561059e57600080fd5b5060cd5461049c9060ff1681565b3480156105b857600080fd5b5060cb546105ce90600160a01b900461ffff1681565b60405161ffff90911681526020016102fa565b3480156105ed57600080fd5b506104c2611b21565b34801561060257600080fd5b506104c2610611366004614bfa565b6097602090815260009384526040808520845180860184018051928152908401958401959095209452929052825290205481565b34801561065157600080fd5b506102cb6106603660046147e3565b611b7f565b34801561067157600080fd5b5060cb546105ce90600160b01b900461ffff1681565b34801561069357600080fd5b506102cb611c53565b3480156106a857600080fd5b506103356106b73660046148ed565b611c67565b3480156106c857600080fd5b506104c26106d7366004614c57565b606760209081526000928352604080842090915290825290205481565b34801561070057600080fd5b506102ed611d01565b34801561071557600080fd5b506104c2611d10565b34801561072a57600080fd5b506069546102ed906001600160a01b031681565b34801561074a57600080fd5b506104c2610759366004614a16565b611d8a565b34801561076a57600080fd5b506102cb611e28565b34801561077f57600080fd5b5061033561078e3660046148ed565b611ebb565b34801561079f57600080fd5b506102cb6107ae366004614a2f565b611fca565b3480156107bf57600080fd5b506104c26125e481565b3480156107d557600080fd5b506104c26107e4366004614a16565b612053565b3480156107f557600080fd5b506102cb610804366004614c8a565b61210c565b34801561081557600080fd5b5060cb5461082a90600160c01b900460ff1681565b60405160ff90911681526020016102fa565b3480156102cb57600080fd5b34801561085457600080fd5b506065546102ed906001600160a01b031681565b34801561087457600080fd5b506102cb610883366004614947565b61222c565b34801561089457600080fd5b506104c26108a3366004614a16565b61227f565b3480156108b457600080fd5b506104c26122d7565b3480156108c957600080fd5b506104c261271081565b3480156108df57600080fd5b506102cb6108ee366004614d24565b612308565b6102cb6109013660046147e3565b612376565b34801561091257600080fd5b506104c261258c565b34801561092757600080fd5b506102cb610936366004614d92565b6125be565b34801561094757600080fd5b506102cb610956366004614a2f565b612670565b34801561096757600080fd5b506104c26126ca565b34801561097c57600080fd5b506102cb61098b366004614a16565b612767565b34801561099c57600080fd5b506102cb6109ab366004614947565b612774565b3480156109bc57600080fd5b506103356109cb366004614dce565b6127ea565b3480156109dc57600080fd5b506104c26109eb366004614a16565b61287d565b3480156109fc57600080fd5b5060cb546102ed906001600160a01b031681565b348015610a1c57600080fd5b506104c2610a2b366004614a16565b6128cf565b6065546001600160a01b03163314610a9b5760405162461bcd60e51b815260206004820152602360248201527f4261736553747261746567793a3a496e76616c6964456e64706f696e7443616c6044820152623632b960e91b60648201526084015b60405180910390fd5b610b118686868080601f01602080910402602001604051908101604052809392919081815260200183838082843760009201919091525050604080516020601f89018190048102820181019092528781528993509150879087908190840183828082843760009201919091525061297792505050565b505050505050565b610b216129f0565b6065546040516307e0db1760e01b815261ffff831660048201526001600160a01b03909116906307e0db17906024015b600060405180830381600087803b158015610b6b57600080fd5b505af1158015610b7f573d6000803e3d6000fd5b5050505050565b610b8e6129f0565b61ffff909116600090815260686020526040902055565b610bad6129f0565b6065546040516310ddb13760e01b815261ffff831660048201526001600160a01b03909116906310ddb13790602401610b51565b610be9612a4f565b610c6b33826001600160a01b03166370a08231306040518263ffffffff1660e01b8152600401610c199190614876565b602060405180830381865afa158015610c36573d6000803e3d6000fd5b505050506040513d601f19601f82011682018060405250810190610c5a9190614e1b565b6001600160a01b0384169190612aa8565b50565b600054610100900460ff1615808015610c8e5750600054600160ff909116105b80610caf5750610c9d30612b03565b158015610caf575060005460ff166001145b610d125760405162461bcd60e51b815260206004820152602e60248201527f496e697469616c697a61626c653a20636f6e747261637420697320616c72656160448201526d191e481a5b9a5d1a585b1a5e995960921b6064820152608401610a92565b6000805460ff191660011790558015610d35576000805461ff0019166101001790555b610d4889898989898989896125e4612b12565b60ca54610d75906001600160a01b03167368b3465833fb72a70ecdf485e0e4c7bd8665fc45600019612cf1565b60ca54610d9c906001600160a01b0316600080516020615acb833981519152600019612cf1565b610dc5600080516020615b0b833981519152600080516020615acb833981519152600019612cf1565b610df473f6a72bd46f53cd5103812ea1f4b5cf38099ab797600080516020615aab833981519152600019612cf1565b610e2373f6a72bd46f53cd5103812ea1f4b5cf38099ab797600080516020615acb833981519152600019612cf1565b610e58738f3cf7ad23cd3cadbd9735aff958023239c6a06373195f7b233947d51f4c3b756ad41a5ddb34cebce0600019612cf1565b610e87737238390d5f6f64e67c3211c343a410e2a3dec142600080516020615acb833981519152600019612cf1565b8015610ecd576000805461ff0019169055604051600181527f7f26b83ff96e1f2b6a682f133852f6798a09c465da95921460cefb38474024989060200160405180910390a15b505050505050505050565b610ee0612a4f565b60c9546040516001600160a01b03909116904780156108fc02916000818181858888f19350505050158015610c6b573d6000803e3d6000fd5b610f21612a4f565b604051818152600080516020615aeb833981519152906020015b60405180910390a150565b61ffff831660009081526066602052604081208054829190610f6790614e34565b80601f0160208091040260200160405190810160405280929190818152602001828054610f9390614e34565b8015610fe05780601f10610fb557610100808354040283529160200191610fe0565b820191906000526020600020905b815481529060010190602001808311610fc357829003601f168201915b505050505090508383604051610ff7929190614e6e565b60405180910390208180519060200120149150505b9392505050565b600061109b82600080516020615b0b8339815191526001600160a01b031663313ce5676040518163ffffffff1660e01b8152600401602060405180830381865afa158015611065573d6000803e3d6000fd5b505050506040513d601f19601f820116820180604052508101906110899190614e7e565b60cb54600160c01b900460ff16612df5565b92915050565b6110a96129f0565b6065546040516342d65a8d60e01b81526001600160a01b03909116906342d65a8d906110dd90869086908690600401614eca565b600060405180830381600087803b1580156110f757600080fd5b505af115801561110b573d6000803e3d6000fd5b50505050505050565b61111c612a4f565b60cd805460ff1916911515919091179055565b611137612a4f565b600080516020615aab8339815191526001600160a01b0316633d18b9126040518163ffffffff1660e01b8152600401600060405180830381600087803b15801561118057600080fd5b505af1158015611194573d6000803e3d6000fd5b50506040516370a0823160e01b81526112199250737238390d5f6f64e67c3211c343a410e2a3dec14291506370a08231906111d3903090600401614876565b602060405180830381865afa1580156111f0573d6000803e3d6000fd5b505050506040513d601f19601f820116820180604052508101906112149190614e1b565b612e4a565b60ca546040516370a0823160e01b81526000916001600160a01b0316906370a082319061124a903090600401614876565b602060405180830381865afa158015611267573d6000803e3d6000fd5b505050506040513d601f19601f8201168201806040525081019061128b9190614e1b565b9050801561142f5760006112a0600283614efe565b905060006113338260cb60189054906101000a900460ff16738f3cf7ad23cd3cadbd9735aff958023239c6a0636001600160a01b031663313ce5676040518163ffffffff1660e01b8152600401602060405180830381865afa15801561130a573d6000803e3d6000fd5b505050506040513d601f19601f8201168201806040525081019061132e9190614e7e565b612df5565b6040805160808101825260ca546001600160601b0319606091821b1660a0830152601960ea1b60b4830152738f3cf7ad23cd3cadbd9735aff958023239c6a06360601b60b7830152825160ab81840301815260cb8301845282523060208301529181018590529192506000919081016113ab84612fe3565b905260405163b858183f60e01b81529091507368b3465833fb72a70ecdf485e0e4c7bd8665fc459063b858183f906113e7908490600401614f20565b6020604051808303816000875af1158015611406573d6000803e3d6000fd5b505050506040513d601f19601f8201168201806040525081019061142a9190614e1b565b505050505b6040516370a0823160e01b8152600090738f3cf7ad23cd3cadbd9735aff958023239c6a063906370a0823190611469903090600401614876565b602060405180830381865afa158015611486573d6000803e3d6000fd5b505050506040513d601f19601f820116820180604052508101906114aa9190614e1b565b905080156115305760405163a39fc2c560e01b815273195f7b233947d51f4c3b756ad41a5ddb34cebce09063a39fc2c5906114eb9084903090600401614f6e565b6020604051808303816000875af115801561150a573d6000803e3d6000fd5b505050506040513d601f19601f8201168201806040525081019061152e9190614e1b565b505b6040516370a0823160e01b8152600090600080516020615b0b833981519152906370a0823190611564903090600401614876565b602060405180830381865afa158015611581573d6000803e3d6000fd5b505050506040513d601f19601f820116820180604052508101906115a59190614e1b565b60ca546040516370a0823160e01b81529192506001600160a01b0316906370a08231906115d6903090600401614876565b602060405180830381865afa1580156115f3573d6000803e3d6000fd5b505050506040513d601f19601f820116820180604052508101906116179190614e1b565b92506000811180156116295750600083115b156117945760ca546040516326283ecf60e21b81526000918291600080516020615acb833981519152916398a0fb3c91611686916001600160a01b031690600080516020615b0b833981519152906001908b908a90600401614f85565b606060405180830381865afa1580156116a3573d6000803e3d6000fd5b505050506040513d601f19601f820116820180604052508101906116c79190614fb6565b5060ca54604051635a47ddc360e01b81526001600160a01b039091166004820152600080516020615b0b8339815191526024820152600160448201819052606482018490526084820183905260a4820181905260c48201523060e4820152426101048201529193509150600080516020615acb83398151915290635a47ddc390610124016060604051808303816000875af115801561176a573d6000803e3d6000fd5b505050506040513d601f19601f8201168201806040525081019061178e9190614fb6565b50505050505b6040516370a0823160e01b815260009073f6a72bd46f53cd5103812ea1f4b5cf38099ab797906370a08231906117ce903090600401614876565b602060405180830381865afa1580156117eb573d6000803e3d6000fd5b505050506040513d601f19601f8201168201806040525081019061180f9190614e1b565b905080156118775760405163b6b55f2560e01b815260048101829052600080516020615aab8339815191529063b6b55f2590602401600060405180830381600087803b15801561185e57600080fd5b505af1158015611872573d6000803e3d6000fd5b505050505b50505050565b611885612a4f565b61188e81613000565b60cd546000908190819060ff161561193a5784156118ee5760405162461bcd60e51b815260206004820152601e60248201527f4261736553747261746567793a3a44656274526174696f4e6f745a65726f00006044820152606401610a92565b60006118f8613086565b9050878110156119135761190c8189614fe4565b9250611928565b87811115611928576119258882614fe4565b93505b6119328389614fe4565b91505061194c565b61194488886130c8565b919450925090505b60006119588285614ff7565b90506000808883101561197a5761196f838a614fe4565b91506000905061198b565b600091506119888984614fe4565b90505b6000604051806101600160405280306001600160a01b031681526020014281526020018881526020018781526020018681526020018481526020018381526020018b8152602001836119db6126ca565b6119e59190614fe4565b815260200160d060008154809291906119fd9061500a565b90915550815260200189905290508115611a5d5760cb54604051611a5891849161ffff600160a01b830416916001600160a01b031690611a4490600290879060200161505b565b6040516020818303038152906040526131bf565b611a88565b611a88600282604051602001611a7492919061505b565b6040516020818303038152906040526132ad565b7fb983e09c034e9c52b5e547cb0589967992b97717733f580cc5ad0afcdc4b522b8160400151826060015183608001518460a001518560c001518660e00151876101000151604051611b0b9796959493929190968752602087019590955260408601939093526060850191909152608084015260a083015260c082015260e00190565b60405180910390a1505050505050505050505050565b60d05460cb546040513060601b6001600160601b03191660208201526034810192909252600160b01b900460f01b6001600160f01b031916605482015260009060560160405160208183030381529060405280519060200120905090565b333014611bdd5760405162461bcd60e51b815260206004820152602660248201527f4e6f6e626c6f636b696e674c7a4170703a2063616c6c6572206d7573742062656044820152650204c7a4170760d41b6064820152608401610a92565b610b118686868080601f01602080910402602001604051908101604052809392919081815260200183838082843760009201919091525050604080516020601f89018190048102820181019092528781528993509150879087908190840183828082843760009201919091525061340f92505050565b611c5b6129f0565b611c656000613525565b565b60666020526000908152604090208054611c8090614e34565b80601f0160208091040260200160405190810160405280929190818152602001828054611cac90614e34565b8015611cf95780601f10611cce57610100808354040283529160200191611cf9565b820191906000526020600020905b815481529060010190602001808311611cdc57829003601f168201915b505050505081565b6033546001600160a01b031690565b6040516370a0823160e01b8152600090600080516020615aab833981519152906370a0823190611d44903090600401614876565b602060405180830381865afa158015611d61573d6000803e3d6000fd5b505050506040513d601f19601f82011682018060405250810190611d859190614e1b565b905090565b6040516328bd9fc160e11b815260009081907374ee7376ac31628a66b2bb0eb2d14b549ab372759063517b3f8290611ddc90737238390d5f6f64e67c3211c343a410e2a3dec142908790600401615106565b602060405180830381865afa158015611df9573d6000803e3d6000fd5b505050506040513d601f19601f82011682018060405250810190611e1d9190614e1b565b905061100c81611013565b611e30612a4f565b60ca546040516370a0823160e01b8152611c65916001916001600160a01b03909116906370a0823190611e67903090600401614876565b602060405180830381865afa158015611e84573d6000803e3d6000fd5b505050506040513d601f19601f82011682018060405250810190611ea89190614e1b565b60ca546001600160a01b03169190612aa8565b61ffff8116600090815260666020526040812080546060929190611ede90614e34565b80601f0160208091040260200160405190810160405280929190818152602001828054611f0a90614e34565b8015611f575780601f10611f2c57610100808354040283529160200191611f57565b820191906000526020600020905b815481529060010190602001808311611f3a57829003601f168201915b505050505090508051600003611faf5760405162461bcd60e51b815260206004820152601d60248201527f4c7a4170703a206e6f20747275737465642070617468207265636f72640000006044820152606401610a92565b61100c600060148351611fc29190614fe4565b839190613577565b611fd26129f0565b818130604051602001611fe79392919061511f565b60408051601f1981840301815291815261ffff8516600090815260666020522090612012908261519b565b507f8c0400cfe2d1199b1a725c78960bcc2a344d869b80590d0f2bd005db15a572ce83838360405161204693929190614eca565b60405180910390a1505050565b60ca546040516310e1b98f60e21b815260009182918291600080516020615acb83398151915291634386e63c916120ad916001600160a01b0390911690600080516020615b0b833981519152906001908a90600401615254565b6040805180830381865afa1580156120c9573d6000803e3d6000fd5b505050506040513d601f19601f820116820180604052508101906120ed919061527f565b915091506120fa81611013565b6121049083614ff7565b949350505050565b60ce546001600160a01b0316331480612134575060cd5461010090046001600160a01b031633145b61217f5760405162461bcd60e51b815260206004820152601c60248201527b53674272696467653a3a526f757465724f724272696467654f6e6c7960201b6044820152606401610a92565b60cb546000906001600160a01b031633146121d1576121a18660006014613577565b6040516020016121b191906152a3565b6040516020818303038152906040526121c9906152bf565b60601c6121de565b60cb546001600160a01b03165b9050836001600160a01b03167f92073a89a07a000083eb8b2575fc15e7bb936efe55d00727d6942a796d7211a7848360405161221b929190614f6e565b60405180910390a250505050505050565b6122346129f0565b606980546001600160a01b0319166001600160a01b0383161790556040517f5db758e995a17ec1ad84bdef7e8c3293a0bd6179bcce400dff5d4c3d87db726b90610f3b908390614876565b600061109b82738f3cf7ad23cd3cadbd9735aff958023239c6a0636001600160a01b031663313ce5676040518163ffffffff1660e01b8152600401602060405180830381865afa158015611065573d6000803e3d6000fd5b60ca546040516370a0823160e01b81526000916001600160a01b0316906370a0823190611d44903090600401614876565b6123106129f0565b6065546040516332fb62e760e21b81526001600160a01b039091169063cbed8b9c9061234890889088908890889088906004016152f6565b600060405180830381600087803b15801561236257600080fd5b505af1158015610ecd573d6000803e3d6000fd5b61ffff861660009081526097602052604080822090516123999088908890614e6e565b90815260408051602092819003830190206001600160401b038716600090815292529020549050806124195760405162461bcd60e51b815260206004820152602360248201527f4e6f6e626c6f636b696e674c7a4170703a206e6f2073746f726564206d65737360448201526261676560e81b6064820152608401610a92565b80838360405161242a929190614e6e565b6040518091039020146124895760405162461bcd60e51b815260206004820152602160248201527f4e6f6e626c6f636b696e674c7a4170703a20696e76616c6964207061796c6f616044820152601960fa1b6064820152608401610a92565b61ffff871660009081526097602052604080822090516124ac9089908990614e6e565b90815260408051602092819003830181206001600160401b038916600090815290845282902093909355601f88018290048202830182019052868252612544918991899089908190840183828082843760009201919091525050604080516020601f8a018190048102820181019092528881528a93509150889088908190840183828082843760009201919091525061340f92505050565b7fc264d91f3adc5588250e1551f547752ca0cfa8f6b530d243b9f9f4cab10ea8e5878787878560405161257b959493929190615324565b60405180910390a150505050505050565b6040516246613160e11b8152600090600080516020615aab83398151915290628cc26290611d44903090600401614876565b6125c66129f0565b6000811161260e5760405162461bcd60e51b81526020600482015260156024820152744c7a4170703a20696e76616c6964206d696e47617360581b6044820152606401610a92565b61ffff83811660008181526067602090815260408083209487168084529482529182902085905581519283528201929092529081018290527f9d5c7c0b934da8fefa9c7760c98383778a12dfbfc0c3b3106518f43fb9508ac090606001612046565b6126786129f0565b61ffff8316600090815260666020526040902061269682848361535f565b507ffa41487ad5d6728f0b19276fa1eddc16558578f5109fc39d2dc33c3230470dab83838360405161204693929190614eca565b60006126d76107e4611d10565b6126e261075961258c565b60ca546040516370a0823160e01b81526001600160a01b03909116906370a0823190612712903090600401614876565b602060405180830381865afa15801561272f573d6000803e3d6000fd5b505050506040513d601f19601f820116820180604052508101906127539190614e1b565b61275d9190614ff7565b611d859190614ff7565b61276f612a4f565b60cc55565b61277c6129f0565b6001600160a01b0381166127e15760405162461bcd60e51b815260206004820152602660248201527f4f776e61626c653a206e6577206f776e657220697320746865207a65726f206160448201526564647265737360d01b6064820152608401610a92565b610c6b81613525565b606554604051633d7b2f6f60e21b815261ffff808716600483015285166024820152306044820152606481018390526060916001600160a01b03169063f5ecbdbc90608401600060405180830381865afa15801561284c573d6000803e3d6000fd5b505050506040513d6000823e601f3d908101601f191682016040526128749190810190615418565b95945050505050565b6040517b0ca2ba3432b932bab69029b4b3b732b21026b2b9b9b0b3b29d05199960211b6020820152603c8101829052600090605c01604051602081830303815290604052805190602001209050919050565b60ca546040516326283ecf60e21b81526000918291600080516020615acb833981519152916398a0fb3c91612929916001600160a01b031690600080516020615b0b83398151915290600190899060001990600401614f85565b606060405180830381865afa158015612946573d6000803e3d6000fd5b505050506040513d601f19601f8201168201806040525081019061296a9190614fb6565b9250505061100c81612053565b6000806129da5a60966366ad5c8a60e01b8989898960405160240161299f9493929190615485565b60408051601f198184030181529190526020810180516001600160e01b03166001600160e01b03199093169290921790915230929190613684565b9150915081610b1157610b118686868685613710565b336129f9611d01565b6001600160a01b031614611c655760405162461bcd60e51b815260206004820181905260248201527f4f776e61626c653a2063616c6c6572206973206e6f7420746865206f776e65726044820152606401610a92565b60c9546001600160a01b03163314611c655760405162461bcd60e51b815260206004820152601c60248201527b10985cd954dd1c985d1959de4e8e93db9b1e54dd1c985d1959da5cdd60221b6044820152606401610a92565b612afe8363a9059cbb60e01b8484604051602401612ac7929190615106565b60408051601f198184030181529190526020810180516001600160e01b03166001600160e01b0319909316929092179091526137ad565b505050565b6001600160a01b03163b151590565b600054610100900460ff16612b395760405162461bcd60e51b8152600401610a92906154c3565b612b4289613882565b60c980546001600160a01b03808b166001600160a01b03199283161790925560ca80548a8416908316811790915560cb8054938a1661ffff8a16600160a01b029093166001600160b01b0319909416939093179190911790915560cc8290556040805163313ce56760e01b8152905163313ce567916004808201926020929091908290030181865afa158015612bdc573d6000803e3d6000fd5b505050506040513d601f19601f82011682018060405250810190612c009190614e7e565b60cb8054600060d05562ffffff60b01b1916600160c01b60ff939093169290920261ffff60b01b191691909117600160b01b61ffff87160217905560cd8054610100600160a81b0319166101006001600160a01b03868116919091029190911790915560ce80546001600160a01b03191684831617905560ca5460405163095ea7b360e01b815291169063095ea7b390612ca290869060001990600401615106565b6020604051808303816000875af1158015612cc1573d6000803e3d6000fd5b505050506040513d601f19601f82011682018060405250810190612ce5919061550e565b50505050505050505050565b801580612d6b5750604051636eb1769f60e11b81523060048201526001600160a01b03838116602483015284169063dd62ed3e90604401602060405180830381865afa158015612d45573d6000803e3d6000fd5b505050506040513d601f19601f82011682018060405250810190612d699190614e1b565b155b612dd65760405162461bcd60e51b815260206004820152603660248201527f5361666545524332303a20617070726f76652066726f6d206e6f6e2d7a65726f60448201527520746f206e6f6e2d7a65726f20616c6c6f77616e636560501b6064820152608401610a92565b612afe8363095ea7b360e01b8484604051602401612ac7929190615106565b60008260ff168260ff161115612e2b57612e0f838361552b565b612e1a90600a615628565b612e249085615637565b905061100c565b612e35828461552b565b612e4090600a615628565b612e249085614efe565b80600003612e555750565b60408051600280825260608201909252600091816020015b6040805160608101825260008082526020808301829052928201528252600019909201910181612e6d57505060408051606081018252737238390d5f6f64e67c3211c343a410e2a3dec1428152600080516020615b0b83398151915260208201526000918101829052825192935091839190612eeb57612eeb61564e565b60209081029190910181019190915260408051606081018252600080516020615b0b833981519152815260ca546001600160a01b031692810192909252600190820181905282518391908110612f4357612f4361564e565b60200260200101819052506000612f5983611d8a565b9050600080516020615acb83398151915263f41766d884612f7984612fe3565b8530426040518663ffffffff1660e01b8152600401612f9c959493929190615664565b6000604051808303816000875af1158015612fbb573d6000803e3d6000fd5b505050506040513d6000823e601f3d908101601f1916820160405261187791908101906156f3565b600061271060cc5483612ff69190615637565b61109b9190614efe565b600061300a611b21565b905060006130178261287d565b60c9549091506001600160a01b031661303082856138ba565b6001600160a01b031614612afe5760405162461bcd60e51b815260206004820152601e60248201527f4261736553747261746567793a3a496e76616c69645369676e617475726500006044820152606401610a92565b6000613098613093611d10565b6138de565b60ca546040516370a0823160e01b81526001600160a01b03909116906370a0823190611d44903090600401614876565b6000806000806130d66126ca565b90508581106130f4576130e98682614fe4565b935060009250613105565b600093506131028187614fe4565b92505b6131176131128587614ff7565b613c12565b505060ca546040516370a0823160e01b81526000916001600160a01b0316906370a082319061314a903090600401614876565b602060405180830381865afa158015613167573d6000803e3d6000fd5b505050506040513d601f19601f8201168201806040525081019061318b9190614e1b565b90508481116131a057809450600092506131b6565b6131b36131ad8683614fe4565b87613d47565b92505b50509250925092565b60cd54604051630dc6346160e01b815260009161010090046001600160a01b031690630dc63461906131f990879087908790600401615798565b602060405180830381865afa158015613216573d6000803e3d6000fd5b505050506040513d601f19601f8201168201806040525081019061323a9190614e1b565b60cd5460ca54604051633920455b60e11b81529293506001600160a01b036101009092048216926372408ab6928592613280929116908a908a908a908a906004016157c6565b6000604051808303818588803b15801561329957600080fd5b505af1158015612ce5573d6000803e3d6000fd5b60cb5460408051606083811b6001600160601b03199081166020840152309182901b16603483015282516028818403018152604890920190925260655490926000926001600160a01b03909216916340a7bb109161ffff600160a01b90910416908685613318613d5d565b6040518663ffffffff1660e01b8152600401613338959493929190615803565b6040805180830381865afa158015613354573d6000803e3d6000fd5b505050506040513d601f19601f82011682018060405250810190613378919061527f565b509050804710156133a45760405162fae2d560e21b815260048101829052476024820152604401610a92565b60655460cb546001600160a01b039091169063c5803100908390600160a01b900461ffff16858730806133d5613d5d565b6040518863ffffffff1660e01b81526004016133f69695949392919061584b565b6000604051808303818588803b15801561185e57600080fd5b60cb5461ffff858116600160a01b90920416146134795760405162461bcd60e51b815260206004820152602260248201527f4261736553747261746567793a3a5661756c74436861696e49644d69736d61746044820152610c6d60f31b6064820152608401610a92565b600061348784826014613577565b60405160200161349791906152a3565b6040516020818303038152906040526134af906152bf565b60cb5460609190911c91506001600160a01b0316811461351c5760405162461bcd60e51b815260206004820152602260248201527f4261736553747261746567793a3a5661756c74416464726573734d69736d61746044820152610c6d60f31b6064820152608401610a92565b610b7f82613d8d565b603380546001600160a01b038381166001600160a01b0319831681179093556040519116919082907f8be0079c531659141344cd1fd0a4f28419497f9722a3daafe3b4186f6b6457e090600090a35050565b60608161358581601f614ff7565b10156135c45760405162461bcd60e51b815260206004820152600e60248201526d736c6963655f6f766572666c6f7760901b6044820152606401610a92565b6135ce8284614ff7565b845110156136125760405162461bcd60e51b8152602060048201526011602482015270736c6963655f6f75744f66426f756e647360781b6044820152606401610a92565b606082158015613631576040519150600082526020820160405261367b565b6040519150601f8416801560200281840101858101878315602002848b0101015b8183101561366a578051835260209283019201613652565b5050858452601f01601f1916604052505b50949350505050565b6000606060008060008661ffff166001600160401b038111156136a9576136a9614aac565b6040519080825280601f01601f1916602001820160405280156136d3576020820181803683370190505b50905060008087516020890160008d8df191503d9250868311156136f5578692505b828152826000602083013e9093509150505b94509492505050565b8180519060200120609760008761ffff1661ffff1681526020019081526020016000208560405161374191906152a3565b9081526040805191829003602090810183206001600160401b0388166000908152915220919091557fe183f33de2837795525b4792ca4cd60535bd77c53b7e7030060bfcf5734d6b0c9061379e90879087908790879087906158b2565b60405180910390a15050505050565b6000613802826040518060400160405280602081526020017f5361666545524332303a206c6f772d6c6576656c2063616c6c206661696c6564815250856001600160a01b0316613eb39092919063ffffffff16565b9050805160001480613823575080806020019051810190613823919061550e565b612afe5760405162461bcd60e51b815260206004820152602a60248201527f5361666545524332303a204552433230206f7065726174696f6e20646964206e6044820152691bdd081cdd58d8d9595960b21b6064820152608401610a92565b600054610100900460ff166138a95760405162461bcd60e51b8152600401610a92906154c3565b6138b1613ec2565b610c6b81613ef2565b60008060006138c98585613f3b565b915091506138d681613f80565b509392505050565b6139186040518060400160405280600f81526020016e65786974696e673a2025732c20257360881b8152508261391384612053565b6140c5565b600080516020615aab8339815191526001600160a01b0316633d18b9126040518163ffffffff1660e01b8152600401600060405180830381600087803b15801561396157600080fd5b505af1158015613975573d6000803e3d6000fd5b50506040516370a0823160e01b81526139b49250737238390d5f6f64e67c3211c343a410e2a3dec14291506370a08231906111d3903090600401614876565b806000036139bf5750565b604051632e1a7d4d60e01b815260048101829052600080516020615aab83398151915290632e1a7d4d90602401600060405180830381600087803b158015613a0657600080fd5b505af1158015613a1a573d6000803e3d6000fd5b505060ca546040516310e1b98f60e21b815260009350839250600080516020615acb83398151915291634386e63c91613a74916001600160a01b031690600080516020615b0b833981519152906001908990600401615254565b6040805180830381865afa158015613a90573d6000803e3d6000fd5b505050506040513d601f19601f82011682018060405250810190613ab4919061527f565b60ca549193509150600080516020615acb83398151915290630dede6c4906001600160a01b0316600080516020615b0b833981519152600187613af688612fe3565b613aff88612fe3565b6040516001600160e01b031960e089901b1681526001600160a01b03968716600482015295909416602486015291151560448501526064840152608483015260a48201523060c48201524260e48201526101040160408051808303816000875af1158015613b71573d6000803e3d6000fd5b505050506040513d601f19601f82011682018060405250810190613b95919061527f565b50506040516370a0823160e01b8152612afe90600080516020615b0b833981519152906370a0823190613bcc903090600401614876565b602060405180830381865afa158015613be9573d6000803e3d6000fd5b505050506040513d601f19601f82011682018060405250810190613c0d9190614e1b565b61410c565b60ca546040516370a0823160e01b8152600091829182916001600160a01b0316906370a0823190613c47903090600401614876565b602060405180830381865afa158015613c64573d6000803e3d6000fd5b505050506040513d601f19601f82011682018060405250810190613c889190614e1b565b9050838110613c9c57509192600092509050565b613cae613ca98286614fe4565b6141e8565b60ca546040516370a0823160e01b81526001600160a01b03909116906370a0823190613cde903090600401614876565b602060405180830381865afa158015613cfb573d6000803e3d6000fd5b505050506040513d601f19601f82011682018060405250810190613d1f9190614e1b565b905080841115613d3d57915081613d368185614fe4565b9150613d41565b8392505b50915091565b6000818310613d56578161100c565b5090919050565b60408051600160f01b6020820152620f424060228083019190915282518083039091018152604290910190915290565b600081806020019051810190613da39190615904565b90506003816004811115613db957613db9615023565b03613e0557600082806020019051810190613dd49190615925565b9150613ddd9050565b8051604051908152600080516020615aeb8339815191529060200160405180910390a1505050565b6000816004811115613e1957613e19615023565b03613e4057600082806020019051810190613e349190615968565b915050612afe81614372565b6004816004811115613e5457613e54615023565b03613eaf57600082806020019051810190613e6f91906159d3565b915050613e7f816000015161449c565b80516040517f7c9a2d2ec51230d7dbed27f113a325b7e20aef7b049e68b2339257b5edff5bea9161204691614876565b5050565b606061210484846000856144d2565b600054610100900460ff16613ee95760405162461bcd60e51b8152600401610a92906154c3565b611c6533613525565b600054610100900460ff16613f195760405162461bcd60e51b8152600401610a92906154c3565b606580546001600160a01b0319166001600160a01b0392909216919091179055565b6000808251604103613f715760208301516040840151606085015160001a613f65878285856145ad565b94509450505050613f79565b506000905060025b9250929050565b6000816004811115613f9457613f94615023565b03613f9c5750565b6001816004811115613fb057613fb0615023565b03613ff85760405162461bcd60e51b815260206004820152601860248201527745434453413a20696e76616c6964207369676e617475726560401b6044820152606401610a92565b600281600481111561400c5761400c615023565b036140595760405162461bcd60e51b815260206004820152601f60248201527f45434453413a20696e76616c6964207369676e6174757265206c656e677468006044820152606401610a92565b600381600481111561406d5761406d615023565b03610c6b5760405162461bcd60e51b815260206004820152602260248201527f45434453413a20696e76616c6964207369676e6174757265202773272076616c604482015261756560f01b6064820152608401610a92565b612afe8383836040516024016140dd93929190615a21565b60408051601f198184030181529190526020810180516001600160e01b031663ca47c4eb60e01b179052614664565b806000036141175750565b600061412282611013565b9050600080516020615acb8339815191526313dcfc598361414284612fe3565b60ca5460405160e085901b6001600160e01b031916815260048101939093526024830191909152600080516020615b0b83398151915260448301526001600160a01b03166064820152600160848201523060a48201524260c482015260e4016000604051808303816000875af11580156141c0573d6000803e3d6000fd5b505050506040513d6000823e601f3d908101601f19168201604052612afe91908101906156f3565b806000036141f35750565b600061420061075961258c565b90508181106142a557600080516020615aab8339815191526001600160a01b0316633d18b9126040518163ffffffff1660e01b8152600401600060405180830381600087803b15801561425257600080fd5b505af1158015614266573d6000803e3d6000fd5b50506040516370a0823160e01b8152613eaf9250737238390d5f6f64e67c3211c343a410e2a3dec14291506370a08231906111d3903090600401614876565b60408051808201909152600e81526d77616e7420746f206c703a20257360901b60208201526142e0906142db610a2b8486614fe4565b61466d565b6143126040518060400160405280600e81526020016d77616e7420746f206c703a20257360901b8152506142db611d10565b6143486040518060400160405280600f81526020016e7072696365206f66206c703a20257360881b8152506142db6107e4611d10565b600061436761435a610a2b8486614fe4565b614362611d10565b613d47565b9050612afe816138de565b602080820151600090815260cf909152604090205460ff16156143d75760405162461bcd60e51b815260206004820152601e60248201527f4261736553747261746567793a3a416c726561647957697468647261776e00006044820152606401610a92565b6000806143e78360000151613c12565b91509150600060016040518060800160405280306001600160a01b03168152602001858152602001848152602001866020015181525060405160200161442e929190615a46565b60408051601f198184030181529190529050821561446f5760cb5461446a90849061ffff600160a01b820416906001600160a01b0316846131bf565b614478565b614478816132ad565b505050602090810151600090815260cf90915260409020805460ff19166001179055565b60ca546040516370a0823160e01b8152610c6b9183916001600160a01b03909116906370a0823190611e67903090600401614876565b6060824710156145335760405162461bcd60e51b815260206004820152602660248201527f416464726573733a20696e73756666696369656e742062616c616e636520666f6044820152651c8818d85b1b60d21b6064820152608401610a92565b600080866001600160a01b0316858760405161454f91906152a3565b60006040518083038185875af1925050503d806000811461458c576040519150601f19603f3d011682016040523d82523d6000602084013e614591565b606091505b50915091506145a2878383876146b2565b979650505050505050565b6000806fa2a8918ca85bafe22016d0b997e4df60600160ff1b038311156145da5750600090506003613707565b6040805160008082526020820180845289905260ff881692820192909252606081018690526080810185905260019060a0016020604051602081039080840390855afa15801561462e573d6000803e3d6000fd5b5050604051601f1901519150506001600160a01b03811661465757600060019250925050613707565b9660009650945050505050565b610c6b81614729565b613eaf8282604051602401614683929190615a88565b60408051601f198184030181529190526020810180516001600160e01b0316632d839cb360e21b179052614664565b6060831561471f578251600003614718576146cc85612b03565b6147185760405162461bcd60e51b815260206004820152601d60248201527f416464726573733a2063616c6c20746f206e6f6e2d636f6e74726163740000006044820152606401610a92565b5081612104565b612104838361474a565b60006a636f6e736f6c652e6c6f679050600080835160208501845afa505050565b81511561475a5781518083602001fd5b8060405162461bcd60e51b8152600401610a9291906148da565b803561ffff8116811461478657600080fd5b919050565b60008083601f84011261479d57600080fd5b5081356001600160401b038111156147b457600080fd5b602083019150836020828501011115613f7957600080fd5b80356001600160401b038116811461478657600080fd5b600080600080600080608087890312156147fc57600080fd5b61480587614774565b955060208701356001600160401b038082111561482157600080fd5b61482d8a838b0161478b565b909750955085915061484160408a016147cc565b9450606089013591508082111561485757600080fd5b5061486489828a0161478b565b979a9699509497509295939492505050565b6001600160a01b0391909116815260200190565b60005b838110156148a557818101518382015260200161488d565b50506000910152565b600081518084526148c681602086016020860161488a565b601f01601f19169290920160200192915050565b60208152600061100c60208301846148ae565b6000602082840312156148ff57600080fd5b61100c82614774565b6000806040838503121561491b57600080fd5b61492483614774565b946020939093013593505050565b6001600160a01b0381168114610c6b57600080fd5b60006020828403121561495957600080fd5b813561100c81614932565b600080600080600080600080610100898b03121561498157600080fd5b883561498c81614932565b9750602089013561499c81614932565b965060408901356149ac81614932565b955060608901356149bc81614932565b94506149ca60808a01614774565b93506149d860a08a01614774565b925060c08901356149e881614932565b915060e08901356149f881614932565b809150509295985092959890939650565b6001600160a01b03169052565b600060208284031215614a2857600080fd5b5035919050565b600080600060408486031215614a4457600080fd5b614a4d84614774565b925060208401356001600160401b03811115614a6857600080fd5b614a748682870161478b565b9497909650939450505050565b8015158114610c6b57600080fd5b600060208284031215614aa157600080fd5b813561100c81614a81565b634e487b7160e01b600052604160045260246000fd5b604051602081016001600160401b0381118282101715614ae457614ae4614aac565b60405290565b604051601f8201601f191681016001600160401b0381118282101715614b1257614b12614aac565b604052919050565b60006001600160401b03821115614b3357614b33614aac565b50601f01601f191660200190565b600082601f830112614b5257600080fd5b8135614b65614b6082614b1a565b614aea565b818152846020838601011115614b7a57600080fd5b816020850160208301376000918101602001919091529392505050565b600080600080600060a08688031215614baf57600080fd5b8535945060208601359350604086013592506060860135915060808601356001600160401b03811115614be157600080fd5b614bed88828901614b41565b9150509295509295909350565b600080600060608486031215614c0f57600080fd5b614c1884614774565b925060208401356001600160401b03811115614c3357600080fd5b614c3f86828701614b41565b925050614c4e604085016147cc565b90509250925092565b60008060408385031215614c6a57600080fd5b614c7383614774565b9150614c8160208401614774565b90509250929050565b60008060008060008060c08789031215614ca357600080fd5b614cac87614774565b955060208701356001600160401b0380821115614cc857600080fd5b614cd48a838b01614b41565b96506040890135955060608901359150614ced82614932565b9093506080880135925060a08801359080821115614d0a57600080fd5b50614d1789828a01614b41565b9150509295509295509295565b600080600080600060808688031215614d3c57600080fd5b614d4586614774565b9450614d5360208701614774565b93506040860135925060608601356001600160401b03811115614d7557600080fd5b614d818882890161478b565b969995985093965092949392505050565b600080600060608486031215614da757600080fd5b614db084614774565b9250614dbe60208501614774565b9150604084013590509250925092565b60008060008060808587031215614de457600080fd5b614ded85614774565b9350614dfb60208601614774565b92506040850135614e0b81614932565b9396929550929360600135925050565b600060208284031215614e2d57600080fd5b5051919050565b600181811c90821680614e4857607f821691505b602082108103614e6857634e487b7160e01b600052602260045260246000fd5b50919050565b8183823760009101908152919050565b600060208284031215614e9057600080fd5b815160ff8116811461100c57600080fd5b81835281816020850137506000828201602090810191909152601f909101601f19169091010190565b61ffff84168152604060208201526000612874604083018486614ea1565b634e487b7160e01b600052601160045260246000fd5b600082614f1b57634e487b7160e01b600052601260045260246000fd5b500490565b602081526000825160806020840152614f3c60a08401826148ae565b905060018060a01b03602085015116604084015260408401516060840152606084015160808401528091505092915050565b9182526001600160a01b0316602082015260400190565b6001600160a01b03958616815293909416602084015290151560408301526060820152608081019190915260a00190565b600080600060608486031215614fcb57600080fd5b8351925060208401519150604084015190509250925092565b8181038181111561109b5761109b614ee8565b8082018082111561109b5761109b614ee8565b60006001820161501c5761501c614ee8565b5060010190565b634e487b7160e01b600052602160045260246000fd5b6005811061505757634e487b7160e01b600052602160045260246000fd5b9052565b6150658184615039565b6040602082015261507a604082018351614a09565b6020820151606082015260408201516080820152606082015160a0820152608082015160c082015260a082015160e0820152600060c0830151610100818185015260e085015191506101208281860152818601519250610140915082828601528086015192505061016082818601528186015192508061018086015250506128746101a08401826148ae565b6001600160a01b03929092168252602082015260400190565b8284823760609190911b6001600160601b0319169101908152601401919050565b601f821115612afe57600081815260208120601f850160051c810160208610156151675750805b601f850160051c820191505b81811015610b1157828155600101615173565b600019600383901b1c191660019190911b1790565b81516001600160401b038111156151b4576151b4614aac565b6151c8816151c28454614e34565b84615140565b602080601f8311600181146151f757600084156151e55750858301515b6151ef8582615186565b865550610b11565b600085815260208120601f198616915b8281101561522657888601518255948401946001909101908401615207565b50858210156152445787850151600019600388901b60f8161c191681555b5050505050600190811b01905550565b6001600160a01b03948516815292909316602083015215156040820152606081019190915260800190565b6000806040838503121561529257600080fd5b505080516020909101519092909150565b600082516152b581846020870161488a565b9190910192915050565b805160208201516001600160601b031980821692919060148310156152ee5780818460140360031b1b83161693505b505050919050565b600061ffff8088168352808716602084015250846040830152608060608301526145a2608083018486614ea1565b61ffff86168152608060208201526000615342608083018688614ea1565b6001600160401b0394909416604083015250606001529392505050565b6001600160401b0383111561537657615376614aac565b61538a836153848354614e34565b83615140565b6000601f8411600181146153b857600085156153a65750838201355b6153b08682615186565b845550610b7f565b600083815260209020601f19861690835b828110156153e957868501358255602094850194600190920191016153c9565b50868210156154065760001960f88860031b161c19848701351681555b505060018560011b0183555050505050565b60006020828403121561542a57600080fd5b81516001600160401b0381111561544057600080fd5b8201601f8101841361545157600080fd5b805161545f614b6082614b1a565b81815285602083850101111561547457600080fd5b61287482602083016020860161488a565b61ffff851681526080602082015260006154a260808301866148ae565b6001600160401b038516604084015282810360608401526145a281856148ae565b6020808252602b908201527f496e697469616c697a61626c653a20636f6e7472616374206973206e6f74206960408201526a6e697469616c697a696e6760a81b606082015260800190565b60006020828403121561552057600080fd5b815161100c81614a81565b60ff828116828216039081111561109b5761109b614ee8565b600181815b8085111561557f57816000190482111561556557615565614ee8565b8085161561557257918102915b93841c9390800290615549565b509250929050565b6000826155965750600161109b565b816155a35750600061109b565b81600181146155b957600281146155c3576155df565b600191505061109b565b60ff8411156155d4576155d4614ee8565b50506001821b61109b565b5060208310610133831016604e8410600b8410161715615602575081810a61109b565b61560c8383615544565b806000190482111561562057615620614ee8565b029392505050565b600061100c60ff841683615587565b808202811582820484141761109b5761109b614ee8565b634e487b7160e01b600052603260045260246000fd5b600060a0820187835260208781850152604060a08186015282885180855260c087019150838a01945060005b818110156156cd57855180516001600160a01b03908116855286820151168685015284015115158484015294840194606090920191600101615690565b5050809450505050506156e36060830185614a09565b8260808301529695505050505050565b6000602080838503121561570657600080fd5b82516001600160401b038082111561571d57600080fd5b818501915085601f83011261573157600080fd5b81518181111561574357615743614aac565b8060051b9150615754848301614aea565b818152918301840191848101908884111561576e57600080fd5b938501935b8385101561578c57845182529385019390850190615773565b98975050505050505050565b61ffff841681526001600160a01b0383166020820152606060408201819052600090612874908301846148ae565b6001600160a01b0386811682526020820186905261ffff851660408301528316606082015260a0608082018190526000906145a2908301846148ae565b61ffff861681526001600160a01b038516602082015260a060408201819052600090615831908301866148ae565b8415156060840152828103608084015261578c81856148ae565b61ffff8716815260c06020820152600061586860c08301886148ae565b828103604084015261587a81886148ae565b6001600160a01b0387811660608601528616608085015283810360a085015290506158a581856148ae565b9998505050505050505050565b61ffff8616815260a0602082015260006158cf60a08301876148ae565b6001600160401b038616604084015282810360608401526158f081866148ae565b9050828103608084015261578c81856148ae565b60006020828403121561591657600080fd5b81516005811061100c57600080fd5b600080828403604081121561593957600080fd5b835192506020601f198201121561594f57600080fd5b50615958614ac2565b6020939093015183525092909150565b600080828403606081121561597c57600080fd5b835192506040601f198201121561599257600080fd5b50604080519081016001600160401b03811182821017156159b5576159b5614aac565b60409081526020858101518352940151938101939093525092909150565b60008082840360408112156159e757600080fd5b835192506020601f19820112156159fd57600080fd5b50615a06614ac2565b6020840151615a1481614932565b8152919491935090915050565b606081526000615a3460608301866148ae565b60208301949094525060400152919050565b60a08101615a548285615039565b60018060a01b0383511660208301526020830151604083015260408301516060830152606083015160808301529392505050565b604081526000615a9b60408301856148ae565b9050826020830152939250505056fe000000000000000000000000f4d40a328cb2320c94f009e936f840d2d8931721000000000000000000000000da822340f5e8216c277dbf66627648ff5d57b527b0c58532a125fc3c0adccaef396bf65344a4d5781cec2e4c593e6b611d75f150000000000000000000000000b5dfabd7ff7f83bab83995e72a52b97abb7bcf63a26469706673582212200af2b86910ee9ee11fd1ba0c1832774ec27f0841573dfb5cbbd78da16421d7ee64736f6c63430008130033",
  "linkReferences": {},
  "deployedLinkReferences": {}
}