{
  "_format": "hh-sol-artifact-1",
  "contractName": "PearlStrategy",
  "sourceName": "contracts/strategies/PearlStrategy.sol",
  "abi": [
    {
      "inputs": [
        {
          "internalType": "uint256",
          "name": "messageType",
          "type": "uint256"
        }
      ],
      "name": "IncorrectMessageType",
      "type": "error"
    },
    {
      "inputs": [
        {
          "internalType": "uint256",
          "name": "amount",
          "type": "uint256"
        },
        {
          "internalType": "uint256",
          "name": "balance",
          "type": "uint256"
        }
      ],
      "name": "InsufficientFunds",
      "type": "error"
    },
    {
      "anonymous": false,
      "inputs": [
        {
          "indexed": false,
          "internalType": "uint256",
          "name": "debtOutstanding",
          "type": "uint256"
        }
      ],
      "name": "AdjustedPosition",
      "type": "event"
    },
    {
      "anonymous": false,
      "inputs": [
        {
          "indexed": true,
          "internalType": "bytes",
          "name": "lowLevelErrorData",
          "type": "bytes"
        }
      ],
      "name": "EmergencyQuoteOnAlternativeDEX",
      "type": "event"
    },
    {
      "anonymous": false,
      "inputs": [
        {
          "indexed": true,
          "internalType": "bytes",
          "name": "lowLevelErrorData",
          "type": "bytes"
        }
      ],
      "name": "EmergencySwapOnAlternativeDEX",
      "type": "event"
    },
    {
      "anonymous": false,
      "inputs": [
        {
          "indexed": false,
          "internalType": "uint8",
          "name": "version",
          "type": "uint8"
        }
      ],
      "name": "Initialized",
      "type": "event"
    },
    {
      "anonymous": false,
      "inputs": [
        {
          "indexed": false,
          "internalType": "uint16",
          "name": "_srcChainId",
          "type": "uint16"
        },
        {
          "indexed": false,
          "internalType": "bytes",
          "name": "_srcAddress",
          "type": "bytes"
        },
        {
          "indexed": false,
          "internalType": "uint64",
          "name": "_nonce",
          "type": "uint64"
        },
        {
          "indexed": false,
          "internalType": "bytes",
          "name": "_payload",
          "type": "bytes"
        },
        {
          "indexed": false,
          "internalType": "bytes",
          "name": "_reason",
          "type": "bytes"
        }
      ],
      "name": "MessageFailed",
      "type": "event"
    },
    {
      "anonymous": false,
      "inputs": [
        {
          "indexed": true,
          "internalType": "address",
          "name": "src",
          "type": "address"
        },
        {
          "indexed": true,
          "internalType": "address",
          "name": "dst",
          "type": "address"
        },
        {
          "indexed": true,
          "internalType": "uint256",
          "name": "amountOut",
          "type": "uint256"
        },
        {
          "indexed": false,
          "internalType": "uint256",
          "name": "amountIn",
          "type": "uint256"
        }
      ],
      "name": "Notified",
      "type": "event"
    },
    {
      "anonymous": false,
      "inputs": [
        {
          "indexed": true,
          "internalType": "address",
          "name": "previousOwner",
          "type": "address"
        },
        {
          "indexed": true,
          "internalType": "address",
          "name": "newOwner",
          "type": "address"
        }
      ],
      "name": "OwnershipTransferred",
      "type": "event"
    },
    {
      "anonymous": false,
      "inputs": [
        {
          "indexed": true,
          "internalType": "address",
          "name": "src",
          "type": "address"
        },
        {
          "indexed": true,
          "internalType": "address",
          "name": "dst",
          "type": "address"
        },
        {
          "indexed": true,
          "internalType": "uint256",
          "name": "amount",
          "type": "uint256"
        }
      ],
      "name": "Quote",
      "type": "event"
    },
    {
      "anonymous": false,
      "inputs": [
        {
          "indexed": false,
          "internalType": "uint16",
          "name": "_srcChainId",
          "type": "uint16"
        },
        {
          "indexed": false,
          "internalType": "bytes",
          "name": "_srcAddress",
          "type": "bytes"
        },
        {
          "indexed": false,
          "internalType": "uint64",
          "name": "_nonce",
          "type": "uint64"
        },
        {
          "indexed": false,
          "internalType": "bytes32",
          "name": "_payloadHash",
          "type": "bytes32"
        }
      ],
      "name": "RetryMessageSuccess",
      "type": "event"
    },
    {
      "anonymous": false,
      "inputs": [
        {
          "indexed": true,
          "internalType": "bytes32",
          "name": "role",
          "type": "bytes32"
        },
        {
          "indexed": true,
          "internalType": "bytes32",
          "name": "previousAdminRole",
          "type": "bytes32"
        },
        {
          "indexed": true,
          "internalType": "bytes32",
          "name": "newAdminRole",
          "type": "bytes32"
        }
      ],
      "name": "RoleAdminChanged",
      "type": "event"
    },
    {
      "anonymous": false,
      "inputs": [
        {
          "indexed": true,
          "internalType": "bytes32",
          "name": "role",
          "type": "bytes32"
        },
        {
          "indexed": true,
          "internalType": "address",
          "name": "account",
          "type": "address"
        },
        {
          "indexed": true,
          "internalType": "address",
          "name": "sender",
          "type": "address"
        }
      ],
      "name": "RoleGranted",
      "type": "event"
    },
    {
      "anonymous": false,
      "inputs": [
        {
          "indexed": true,
          "internalType": "bytes32",
          "name": "role",
          "type": "bytes32"
        },
        {
          "indexed": true,
          "internalType": "address",
          "name": "account",
          "type": "address"
        },
        {
          "indexed": true,
          "internalType": "address",
          "name": "sender",
          "type": "address"
        }
      ],
      "name": "RoleRevoked",
      "type": "event"
    },
    {
      "anonymous": false,
      "inputs": [
        {
          "indexed": false,
          "internalType": "uint16",
          "name": "_dstChainId",
          "type": "uint16"
        },
        {
          "indexed": false,
          "internalType": "uint16",
          "name": "_type",
          "type": "uint16"
        },
        {
          "indexed": false,
          "internalType": "uint256",
          "name": "_minDstGas",
          "type": "uint256"
        }
      ],
      "name": "SetMinDstGas",
      "type": "event"
    },
    {
      "anonymous": false,
      "inputs": [
        {
          "indexed": false,
          "internalType": "address",
          "name": "precrime",
          "type": "address"
        }
      ],
      "name": "SetPrecrime",
      "type": "event"
    },
    {
      "anonymous": false,
      "inputs": [
        {
          "indexed": false,
          "internalType": "uint16",
          "name": "_remoteChainId",
          "type": "uint16"
        },
        {
          "indexed": false,
          "internalType": "bytes",
          "name": "_path",
          "type": "bytes"
        }
      ],
      "name": "SetTrustedRemote",
      "type": "event"
    },
    {
      "anonymous": false,
      "inputs": [
        {
          "indexed": false,
          "internalType": "uint16",
          "name": "_remoteChainId",
          "type": "uint16"
        },
        {
          "indexed": false,
          "internalType": "bytes",
          "name": "_remoteAddress",
          "type": "bytes"
        }
      ],
      "name": "SetTrustedRemoteAddress",
      "type": "event"
    },
    {
      "anonymous": false,
      "inputs": [
        {
          "indexed": true,
          "internalType": "address",
          "name": "token",
          "type": "address"
        },
        {
          "indexed": false,
          "internalType": "uint256",
          "name": "amount",
          "type": "uint256"
        },
        {
          "indexed": false,
          "internalType": "address",
          "name": "sender",
          "type": "address"
        }
      ],
      "name": "SgReceived",
      "type": "event"
    },
    {
      "anonymous": false,
      "inputs": [
        {
          "indexed": false,
          "internalType": "address",
          "name": "newStrategy",
          "type": "address"
        }
      ],
      "name": "StrategyMigrated",
      "type": "event"
    },
    {
      "anonymous": false,
      "inputs": [
        {
          "indexed": false,
          "internalType": "uint256",
          "name": "profit",
          "type": "uint256"
        },
        {
          "indexed": false,
          "internalType": "uint256",
          "name": "loss",
          "type": "uint256"
        },
        {
          "indexed": false,
          "internalType": "uint256",
          "name": "debtPayment",
          "type": "uint256"
        },
        {
          "indexed": false,
          "internalType": "uint256",
          "name": "giveToStrategy",
          "type": "uint256"
        },
        {
          "indexed": false,
          "internalType": "uint256",
          "name": "requestFromStrategy",
          "type": "uint256"
        },
        {
          "indexed": false,
          "internalType": "uint256",
          "name": "creditAvailable",
          "type": "uint256"
        },
        {
          "indexed": false,
          "internalType": "uint256",
          "name": "totalAssets",
          "type": "uint256"
        }
      ],
      "name": "StrategyReported",
      "type": "event"
    },
    {
      "anonymous": false,
      "inputs": [
        {
          "indexed": true,
          "internalType": "address",
          "name": "src",
          "type": "address"
        },
        {
          "indexed": true,
          "internalType": "address",
          "name": "dst",
          "type": "address"
        },
        {
          "indexed": true,
          "internalType": "uint256",
          "name": "amount",
          "type": "uint256"
        }
      ],
      "name": "Swap",
      "type": "event"
    },
    {
      "inputs": [],
      "name": "DEFAULT_ADMIN_ROLE",
      "outputs": [
        {
          "internalType": "bytes32",
          "name": "",
          "type": "bytes32"
        }
      ],
      "stateMutability": "view",
      "type": "function"
    },
    {
      "inputs": [],
      "name": "DEFAULT_PAYLOAD_SIZE_LIMIT",
      "outputs": [
        {
          "internalType": "uint256",
          "name": "",
          "type": "uint256"
        }
      ],
      "stateMutability": "view",
      "type": "function"
    },
    {
      "inputs": [],
      "name": "QUOTE_OPERATION_PROVIDER",
      "outputs": [
        {
          "internalType": "bytes32",
          "name": "",
          "type": "bytes32"
        }
      ],
      "stateMutability": "view",
      "type": "function"
    },
    {
      "inputs": [
        {
          "internalType": "uint256",
          "name": "_debtOutstanding",
          "type": "uint256"
        }
      ],
      "name": "adjustPosition",
      "outputs": [],
      "stateMutability": "nonpayable",
      "type": "function"
    },
    {
      "inputs": [],
      "name": "balanceOfLpStaked",
      "outputs": [
        {
          "internalType": "uint256",
          "name": "",
          "type": "uint256"
        }
      ],
      "stateMutability": "view",
      "type": "function"
    },
    {
      "inputs": [],
      "name": "balanceOfPearlRewards",
      "outputs": [
        {
          "internalType": "uint256",
          "name": "",
          "type": "uint256"
        }
      ],
      "stateMutability": "view",
      "type": "function"
    },
    {
      "inputs": [],
      "name": "balanceOfWant",
      "outputs": [
        {
          "internalType": "uint256",
          "name": "",
          "type": "uint256"
        }
      ],
      "stateMutability": "view",
      "type": "function"
    },
    {
      "inputs": [
        {
          "internalType": "uint256",
          "name": "epoch",
          "type": "uint256"
        }
      ],
      "name": "callMe",
      "outputs": [],
      "stateMutability": "nonpayable",
      "type": "function"
    },
    {
      "inputs": [],
      "name": "clearWant",
      "outputs": [],
      "stateMutability": "nonpayable",
      "type": "function"
    },
    {
      "inputs": [],
      "name": "currentChainId",
      "outputs": [
        {
          "internalType": "uint16",
          "name": "",
          "type": "uint16"
        }
      ],
      "stateMutability": "view",
      "type": "function"
    },
    {
      "inputs": [
        {
          "internalType": "uint256",
          "name": "_daiAmount",
          "type": "uint256"
        }
      ],
      "name": "daiToWant",
      "outputs": [
        {
          "internalType": "uint256",
          "name": "",
          "type": "uint256"
        }
      ],
      "stateMutability": "view",
      "type": "function"
    },
    {
      "inputs": [],
      "name": "emergencyExit",
      "outputs": [
        {
          "internalType": "bool",
          "name": "",
          "type": "bool"
        }
      ],
      "stateMutability": "view",
      "type": "function"
    },
    {
      "inputs": [],
      "name": "estimatedTotalAssets",
      "outputs": [
        {
          "internalType": "uint256",
          "name": "",
          "type": "uint256"
        }
      ],
      "stateMutability": "view",
      "type": "function"
    },
    {
      "inputs": [
        {
          "internalType": "uint16",
          "name": "",
          "type": "uint16"
        },
        {
          "internalType": "bytes",
          "name": "",
          "type": "bytes"
        },
        {
          "internalType": "uint64",
          "name": "",
          "type": "uint64"
        }
      ],
      "name": "failedMessages",
      "outputs": [
        {
          "internalType": "bytes32",
          "name": "",
          "type": "bytes32"
        }
      ],
      "stateMutability": "view",
      "type": "function"
    },
    {
      "inputs": [
        {
          "internalType": "uint16",
          "name": "_srcChainId",
          "type": "uint16"
        },
        {
          "internalType": "bytes",
          "name": "_srcAddress",
          "type": "bytes"
        }
      ],
      "name": "forceResumeReceive",
      "outputs": [],
      "stateMutability": "nonpayable",
      "type": "function"
    },
    {
      "inputs": [
        {
          "internalType": "uint16",
          "name": "_version",
          "type": "uint16"
        },
        {
          "internalType": "uint16",
          "name": "_chainId",
          "type": "uint16"
        },
        {
          "internalType": "address",
          "name": "",
          "type": "address"
        },
        {
          "internalType": "uint256",
          "name": "_configType",
          "type": "uint256"
        }
      ],
      "name": "getConfig",
      "outputs": [
        {
          "internalType": "bytes",
          "name": "",
          "type": "bytes"
        }
      ],
      "stateMutability": "view",
      "type": "function"
    },
    {
      "inputs": [
        {
          "internalType": "bytes32",
          "name": "_messageHash",
          "type": "bytes32"
        }
      ],
      "name": "getEthSignedMessageHash",
      "outputs": [
        {
          "internalType": "bytes32",
          "name": "",
          "type": "bytes32"
        }
      ],
      "stateMutability": "pure",
      "type": "function"
    },
    {
      "inputs": [
        {
          "internalType": "bytes32",
          "name": "role",
          "type": "bytes32"
        }
      ],
      "name": "getRoleAdmin",
      "outputs": [
        {
          "internalType": "bytes32",
          "name": "",
          "type": "bytes32"
        }
      ],
      "stateMutability": "view",
      "type": "function"
    },
    {
      "inputs": [
        {
          "internalType": "uint16",
          "name": "_remoteChainId",
          "type": "uint16"
        }
      ],
      "name": "getTrustedRemoteAddress",
      "outputs": [
        {
          "internalType": "bytes",
          "name": "",
          "type": "bytes"
        }
      ],
      "stateMutability": "view",
      "type": "function"
    },
    {
      "inputs": [
        {
          "internalType": "bytes32",
          "name": "role",
          "type": "bytes32"
        },
        {
          "internalType": "address",
          "name": "account",
          "type": "address"
        }
      ],
      "name": "grantRole",
      "outputs": [],
      "stateMutability": "nonpayable",
      "type": "function"
    },
    {
      "inputs": [
        {
          "internalType": "uint256",
          "name": "_totalDebt",
          "type": "uint256"
        },
        {
          "internalType": "uint256",
          "name": "_debtOutstanding",
          "type": "uint256"
        },
        {
          "internalType": "uint256",
          "name": "_creditAvailable",
          "type": "uint256"
        },
        {
          "internalType": "uint256",
          "name": "_debtRatio",
          "type": "uint256"
        },
        {
          "internalType": "bytes",
          "name": "_signature",
          "type": "bytes"
        }
      ],
      "name": "harvest",
      "outputs": [],
      "stateMutability": "nonpayable",
      "type": "function"
    },
    {
      "inputs": [
        {
          "internalType": "bytes32",
          "name": "role",
          "type": "bytes32"
        },
        {
          "internalType": "address",
          "name": "account",
          "type": "address"
        }
      ],
      "name": "hasRole",
      "outputs": [
        {
          "internalType": "bool",
          "name": "",
          "type": "bool"
        }
      ],
      "stateMutability": "view",
      "type": "function"
    },
    {
      "inputs": [
        {
          "internalType": "address",
          "name": "_lzEndpoint",
          "type": "address"
        },
        {
          "internalType": "address",
          "name": "_strategist",
          "type": "address"
        },
        {
          "internalType": "contract IERC20",
          "name": "_want",
          "type": "address"
        },
        {
          "internalType": "address",
          "name": "_vault",
          "type": "address"
        },
        {
          "internalType": "uint16",
          "name": "_vaultChainId",
          "type": "uint16"
        },
        {
          "internalType": "uint16",
          "name": "_currentChainId",
          "type": "uint16"
        },
        {
          "internalType": "address",
          "name": "_sgBridge",
          "type": "address"
        },
        {
          "internalType": "address",
          "name": "_router",
          "type": "address"
        }
      ],
      "name": "initialize",
      "outputs": [],
      "stateMutability": "nonpayable",
      "type": "function"
    },
    {
      "inputs": [
        {
          "internalType": "uint16",
          "name": "_srcChainId",
          "type": "uint16"
        },
        {
          "internalType": "bytes",
          "name": "_srcAddress",
          "type": "bytes"
        }
      ],
      "name": "isTrustedRemote",
      "outputs": [
        {
          "internalType": "bool",
          "name": "",
          "type": "bool"
        }
      ],
      "stateMutability": "view",
      "type": "function"
    },
    {
      "inputs": [],
      "name": "lzEndpoint",
      "outputs": [
        {
          "internalType": "contract ILayerZeroEndpointUpgradeable",
          "name": "",
          "type": "address"
        }
      ],
      "stateMutability": "view",
      "type": "function"
    },
    {
      "inputs": [
        {
          "internalType": "uint16",
          "name": "_srcChainId",
          "type": "uint16"
        },
        {
          "internalType": "bytes",
          "name": "_srcAddress",
          "type": "bytes"
        },
        {
          "internalType": "uint64",
          "name": "_nonce",
          "type": "uint64"
        },
        {
          "internalType": "bytes",
          "name": "_payload",
          "type": "bytes"
        }
      ],
      "name": "lzReceive",
      "outputs": [],
      "stateMutability": "nonpayable",
      "type": "function"
    },
    {
      "inputs": [
        {
          "internalType": "uint16",
          "name": "",
          "type": "uint16"
        },
        {
          "internalType": "uint16",
          "name": "",
          "type": "uint16"
        }
      ],
      "name": "minDstGasLookup",
      "outputs": [
        {
          "internalType": "uint256",
          "name": "",
          "type": "uint256"
        }
      ],
      "stateMutability": "view",
      "type": "function"
    },
    {
      "inputs": [],
      "name": "name",
      "outputs": [
        {
          "internalType": "string",
          "name": "",
          "type": "string"
        }
      ],
      "stateMutability": "pure",
      "type": "function"
    },
    {
      "inputs": [
        {
          "internalType": "uint16",
          "name": "_srcChainId",
          "type": "uint16"
        },
        {
          "internalType": "bytes",
          "name": "_srcAddress",
          "type": "bytes"
        },
        {
          "internalType": "uint64",
          "name": "_nonce",
          "type": "uint64"
        },
        {
          "internalType": "bytes",
          "name": "_payload",
          "type": "bytes"
        }
      ],
      "name": "nonblockingLzReceive",
      "outputs": [],
      "stateMutability": "nonpayable",
      "type": "function"
    },
    {
      "inputs": [
        {
          "internalType": "address",
          "name": "src",
          "type": "address"
        },
        {
          "internalType": "address",
          "name": "dst",
          "type": "address"
        },
        {
          "internalType": "uint256",
          "name": "amountOut",
          "type": "uint256"
        },
        {
          "internalType": "uint256",
          "name": "amountIn",
          "type": "uint256"
        }
      ],
      "name": "notifyCallback",
      "outputs": [],
      "stateMutability": "nonpayable",
      "type": "function"
    },
    {
      "inputs": [],
      "name": "owner",
      "outputs": [
        {
          "internalType": "address",
          "name": "",
          "type": "address"
        }
      ],
      "stateMutability": "view",
      "type": "function"
    },
    {
      "inputs": [
        {
          "internalType": "uint16",
          "name": "",
          "type": "uint16"
        }
      ],
      "name": "payloadSizeLimitLookup",
      "outputs": [
        {
          "internalType": "uint256",
          "name": "",
          "type": "uint256"
        }
      ],
      "stateMutability": "view",
      "type": "function"
    },
    {
      "inputs": [
        {
          "internalType": "uint256",
          "name": "_pearlAmount",
          "type": "uint256"
        }
      ],
      "name": "pearlToWant",
      "outputs": [
        {
          "internalType": "uint256",
          "name": "",
          "type": "uint256"
        }
      ],
      "stateMutability": "view",
      "type": "function"
    },
    {
      "inputs": [],
      "name": "precrime",
      "outputs": [
        {
          "internalType": "address",
          "name": "",
          "type": "address"
        }
      ],
      "stateMutability": "view",
      "type": "function"
    },
    {
      "inputs": [],
      "name": "renounceOwnership",
      "outputs": [],
      "stateMutability": "nonpayable",
      "type": "function"
    },
    {
      "inputs": [
        {
          "internalType": "bytes32",
          "name": "role",
          "type": "bytes32"
        },
        {
          "internalType": "address",
          "name": "account",
          "type": "address"
        }
      ],
      "name": "renounceRole",
      "outputs": [],
      "stateMutability": "nonpayable",
      "type": "function"
    },
    {
      "inputs": [
        {
          "internalType": "uint16",
          "name": "_srcChainId",
          "type": "uint16"
        },
        {
          "internalType": "bytes",
          "name": "_srcAddress",
          "type": "bytes"
        },
        {
          "internalType": "uint64",
          "name": "_nonce",
          "type": "uint64"
        },
        {
          "internalType": "bytes",
          "name": "_payload",
          "type": "bytes"
        }
      ],
      "name": "retryMessage",
      "outputs": [],
      "stateMutability": "payable",
      "type": "function"
    },
    {
      "inputs": [],
      "name": "revokeFunds",
      "outputs": [],
      "stateMutability": "nonpayable",
      "type": "function"
    },
    {
      "inputs": [
        {
          "internalType": "bytes32",
          "name": "role",
          "type": "bytes32"
        },
        {
          "internalType": "address",
          "name": "account",
          "type": "address"
        }
      ],
      "name": "revokeRole",
      "outputs": [],
      "stateMutability": "nonpayable",
      "type": "function"
    },
    {
      "inputs": [
        {
          "internalType": "uint16",
          "name": "_version",
          "type": "uint16"
        },
        {
          "internalType": "uint16",
          "name": "_chainId",
          "type": "uint16"
        },
        {
          "internalType": "uint256",
          "name": "_configType",
          "type": "uint256"
        },
        {
          "internalType": "bytes",
          "name": "_config",
          "type": "bytes"
        }
      ],
      "name": "setConfig",
      "outputs": [],
      "stateMutability": "nonpayable",
      "type": "function"
    },
    {
      "inputs": [
        {
          "internalType": "bool",
          "name": "_emergencyExit",
          "type": "bool"
        }
      ],
      "name": "setEmergencyExit",
      "outputs": [],
      "stateMutability": "nonpayable",
      "type": "function"
    },
    {
      "inputs": [
        {
          "internalType": "uint16",
          "name": "_dstChainId",
          "type": "uint16"
        },
        {
          "internalType": "uint16",
          "name": "_packetType",
          "type": "uint16"
        },
        {
          "internalType": "uint256",
          "name": "_minGas",
          "type": "uint256"
        }
      ],
      "name": "setMinDstGas",
      "outputs": [],
      "stateMutability": "nonpayable",
      "type": "function"
    },
    {
      "inputs": [
        {
          "internalType": "uint16",
          "name": "_dstChainId",
          "type": "uint16"
        },
        {
          "internalType": "uint256",
          "name": "_size",
          "type": "uint256"
        }
      ],
      "name": "setPayloadSizeLimit",
      "outputs": [],
      "stateMutability": "nonpayable",
      "type": "function"
    },
    {
      "inputs": [
        {
          "internalType": "address",
          "name": "_precrime",
          "type": "address"
        }
      ],
      "name": "setPrecrime",
      "outputs": [],
      "stateMutability": "nonpayable",
      "type": "function"
    },
    {
      "inputs": [
        {
          "internalType": "uint16",
          "name": "_version",
          "type": "uint16"
        }
      ],
      "name": "setReceiveVersion",
      "outputs": [],
      "stateMutability": "nonpayable",
      "type": "function"
    },
    {
      "inputs": [
        {
          "internalType": "uint16",
          "name": "_version",
          "type": "uint16"
        }
      ],
      "name": "setSendVersion",
      "outputs": [],
      "stateMutability": "nonpayable",
      "type": "function"
    },
    {
      "inputs": [
        {
          "internalType": "uint256",
          "name": "_slippage",
          "type": "uint256"
        }
      ],
      "name": "setSlippage",
      "outputs": [],
      "stateMutability": "nonpayable",
      "type": "function"
    },
    {
      "inputs": [
        {
          "internalType": "address",
          "name": "_strategist",
          "type": "address"
        }
      ],
      "name": "setStrategist",
      "outputs": [],
      "stateMutability": "nonpayable",
      "type": "function"
    },
    {
      "inputs": [
        {
          "internalType": "address",
          "name": "_swapHelper",
          "type": "address"
        }
      ],
      "name": "setSwapHelper",
      "outputs": [],
      "stateMutability": "nonpayable",
      "type": "function"
    },
    {
      "inputs": [
        {
          "internalType": "uint16",
          "name": "_srcChainId",
          "type": "uint16"
        },
        {
          "internalType": "bytes",
          "name": "_path",
          "type": "bytes"
        }
      ],
      "name": "setTrustedRemote",
      "outputs": [],
      "stateMutability": "nonpayable",
      "type": "function"
    },
    {
      "inputs": [
        {
          "internalType": "uint16",
          "name": "_remoteChainId",
          "type": "uint16"
        },
        {
          "internalType": "bytes",
          "name": "_remoteAddress",
          "type": "bytes"
        }
      ],
      "name": "setTrustedRemoteAddress",
      "outputs": [],
      "stateMutability": "nonpayable",
      "type": "function"
    },
    {
      "inputs": [],
      "name": "sgBridge",
      "outputs": [
        {
          "internalType": "contract ISgBridge",
          "name": "",
          "type": "address"
        }
      ],
      "stateMutability": "view",
      "type": "function"
    },
    {
      "inputs": [
        {
          "internalType": "uint16",
          "name": "",
          "type": "uint16"
        },
        {
          "internalType": "bytes",
          "name": "_srcAddress",
          "type": "bytes"
        },
        {
          "internalType": "uint256",
          "name": "",
          "type": "uint256"
        },
        {
          "internalType": "address",
          "name": "_token",
          "type": "address"
        },
        {
          "internalType": "uint256",
          "name": "_amountLD",
          "type": "uint256"
        },
        {
          "internalType": "bytes",
          "name": "",
          "type": "bytes"
        }
      ],
      "name": "sgReceive",
      "outputs": [],
      "stateMutability": "nonpayable",
      "type": "function"
    },
    {
      "inputs": [],
      "name": "sgRouter",
      "outputs": [
        {
          "internalType": "contract IStargateRouter",
          "name": "",
          "type": "address"
        }
      ],
      "stateMutability": "view",
      "type": "function"
    },
    {
      "inputs": [],
      "name": "slippage",
      "outputs": [
        {
          "internalType": "uint256",
          "name": "",
          "type": "uint256"
        }
      ],
      "stateMutability": "view",
      "type": "function"
    },
    {
      "inputs": [],
      "name": "strategist",
      "outputs": [
        {
          "internalType": "address",
          "name": "",
          "type": "address"
        }
      ],
      "stateMutability": "view",
      "type": "function"
    },
    {
      "inputs": [],
      "name": "strategistSignMessageHash",
      "outputs": [
        {
          "internalType": "bytes32",
          "name": "",
          "type": "bytes32"
        }
      ],
      "stateMutability": "view",
      "type": "function"
    },
    {
      "inputs": [
        {
          "internalType": "bytes4",
          "name": "interfaceId",
          "type": "bytes4"
        }
      ],
      "name": "supportsInterface",
      "outputs": [
        {
          "internalType": "bool",
          "name": "",
          "type": "bool"
        }
      ],
      "stateMutability": "view",
      "type": "function"
    },
    {
      "inputs": [],
      "name": "swapHelper",
      "outputs": [
        {
          "internalType": "contract ISwapHelper",
          "name": "",
          "type": "address"
        }
      ],
      "stateMutability": "view",
      "type": "function"
    },
    {
      "inputs": [
        {
          "internalType": "contract IERC20",
          "name": "_token",
          "type": "address"
        }
      ],
      "name": "sweepToken",
      "outputs": [],
      "stateMutability": "nonpayable",
      "type": "function"
    },
    {
      "inputs": [
        {
          "internalType": "address",
          "name": "newOwner",
          "type": "address"
        }
      ],
      "name": "transferOwnership",
      "outputs": [],
      "stateMutability": "nonpayable",
      "type": "function"
    },
    {
      "inputs": [
        {
          "internalType": "uint16",
          "name": "",
          "type": "uint16"
        }
      ],
      "name": "trustedRemoteLookup",
      "outputs": [
        {
          "internalType": "bytes",
          "name": "",
          "type": "bytes"
        }
      ],
      "stateMutability": "view",
      "type": "function"
    },
    {
      "inputs": [
        {
          "internalType": "uint256",
          "name": "_usdrLpAmount",
          "type": "uint256"
        }
      ],
      "name": "usdrLpToWant",
      "outputs": [
        {
          "internalType": "uint256",
          "name": "",
          "type": "uint256"
        }
      ],
      "stateMutability": "view",
      "type": "function"
    },
    {
      "inputs": [
        {
          "internalType": "uint256",
          "name": "_usdrAmount",
          "type": "uint256"
        }
      ],
      "name": "usdrToWant",
      "outputs": [
        {
          "internalType": "uint256",
          "name": "",
          "type": "uint256"
        }
      ],
      "stateMutability": "view",
      "type": "function"
    },
    {
      "inputs": [],
      "name": "vault",
      "outputs": [
        {
          "internalType": "address",
          "name": "",
          "type": "address"
        }
      ],
      "stateMutability": "view",
      "type": "function"
    },
    {
      "inputs": [],
      "name": "vaultChainId",
      "outputs": [
        {
          "internalType": "uint16",
          "name": "",
          "type": "uint16"
        }
      ],
      "stateMutability": "view",
      "type": "function"
    },
    {
      "inputs": [],
      "name": "want",
      "outputs": [
        {
          "internalType": "contract IERC20",
          "name": "",
          "type": "address"
        }
      ],
      "stateMutability": "view",
      "type": "function"
    },
    {
      "inputs": [],
      "name": "wantDecimals",
      "outputs": [
        {
          "internalType": "uint8",
          "name": "",
          "type": "uint8"
        }
      ],
      "stateMutability": "view",
      "type": "function"
    },
    {
      "inputs": [
        {
          "internalType": "uint256",
          "name": "_wantAmount",
          "type": "uint256"
        }
      ],
      "name": "wantToUsdrLp",
      "outputs": [
        {
          "internalType": "uint256",
          "name": "",
          "type": "uint256"
        }
      ],
      "stateMutability": "view",
      "type": "function"
    },
    {
      "stateMutability": "payable",
      "type": "receive"
    }
  ],
  "bytecode": "0x60808060405234610017576160e390816200001d8239f35b600080fdfe6080604052600436101561001b575b361561001957600080fd5b005b60003560e01c80621d35671461046a57806301ffc9a7146104655780630517cb761461046057806306fdde031461045b57806307e0db17146104565780630df37483146104515780630fc6a11c1461044c57806310ddb137146104475780631be19560146104425780631cdb539f1461043d5780631f1fcd51146104385780631fe4a68614610433578063237ea53f1461042e578063248a9ca3146104295780632d606843146104245780632f2ff15d1461041f57806336568abe1461041a57806337fded91146104155780633d3ccc2f146104105780633d8b38f61461040b5780633e032a3b146104065780633eae1112146104015780633f1f4fa4146103fc57806342d65a8d146103f757806345ee0755146103f2578063495f881e146103ed5780635641ec03146103e8578063567ad85d146103e3578063593178de146103de5780635b8c41e6146103d957806366ad5c8a146103d45780636cbadbfa146103cf578063715018a6146103ca5780637533d788146103c55780638cfd8f5c146103c05780638da5cb5b146103bb5780638f4508d0146103b657806391d14854146103b1578063950c8a74146103ac5780639589c990146103a75780639606647d146103a25780639f38369a1461039d578063a217fddf14610398578063a6c3d16514610393578063a9e508241461038e578063ab8236f314610389578063adf076e614610384578063b353aaa71461037f578063baf3292d1461037a578063bd79ac1314610375578063c1a3d44c14610370578063c44618341461036b578063c7b9d53014610366578063cbed8b9c14610361578063d1deba1f1461035c578063d547741f14610357578063d56739ac14610352578063d73cd47f1461034d578063df2a5b3b14610348578063e73620c314610343578063eb8d72b71461033e578063efbb5cb014610339578063f056dffe14610334578063f0fa55a91461032f578063f2fde38b1461032a578063f5ecbdbc14610325578063fa54080114610320578063fbfa77cf1461031b5763fcb988a40361000e57612631565b612608565b6125ea565b612537565b6124a6565b612485565b612339565b61231e565b6121f8565b6121c4565b6120df565b61202d565b612012565b611fcf565b611ea2565b611ddc565b611d95565b611d78565b611d04565b611c61565b611bf1565b611bc8565b611ba4565b611a84565b611a66565b611905565b6118e9565b61183e565b611799565b61177b565b611752565b61170d565b6116f2565b6116c9565b611676565b61162d565b611503565b6114de565b6113a5565b611316565b6112cd565b6112a8565b611285565b61100e565b610e5c565b610de7565b610db2565b610d8c565b610d6e565b610d23565b610caa565b610c7d565b610be7565b610b34565b610aef565b610abf565b610a96565b610a6d565b610a31565b6109ae565b610918565b61089f565b610875565b61083a565b6107ba565b610768565b6106e3565b610676565b610540565b6004359061ffff8216820361048057565b600080fd5b6024359061ffff8216820361048057565b9181601f84011215610480578235916001600160401b038311610480576020838186019501011161048057565b604435906001600160401b038216820361048057565b9060806003198301126104805760043561ffff8116810361048057916001600160401b0390602435828111610480578161051591600401610496565b93909392604435818116810361048057926064359182116104805761053c91600401610496565b9091565b346104805761054e366104d9565b60655490949293906001600160a01b031633036106255761057c92610574913691610fbc565b933691610fbc565b905a926040519360208501633356ae4560e11b815261ffff87166024870152608060448701526105e5866105d76105b660a483018761072f565b6001600160401b03881660648401528281036023190160848401528861072f565b03601f198101885287610f30565b6000918291826105f3612b62565b9851923090f13d6096811161061d575b8086526000602087013e1561061457005b61001994613390565b506096610603565b60405162461bcd60e51b815260206004820152602360248201527f4261736553747261746567793a3a496e76616c6964456e64706f696e7443616c6044820152623632b960e91b6064820152608490fd5b346104805760203660031901126104805760043563ffffffff60e01b811680910361048057602090637965db0b60e01b81149081156106bb575b506040519015158152f35b6301ffc9a760e01b149050386106b0565b600091031261048057565b6001600160a01b031690565b346104805760003660031901126104805760ce546040516001600160a01b039091168152602090f35b60005b83811061071f5750506000910152565b818101518382015260200161070f565b906020916107488151809281855285808601910161070c565b601f01601f1916010190565b90602061076592818152019061072f565b90565b34610480576000366003190112610480576107b660405161078881610efa565b600d81526c506561726c537472617465677960981b602082015260405191829160208352602083019061072f565b0390f35b346104805760006020366003190112610837576107d561046f565b6107dd612ac0565b6065546001600160a01b0316908290823b1561083357602461ffff918360405195869485936307e0db1760e01b85521660048401525af1801561082e57610822575080f35b61082b90610eac565b80f35b6126ad565b5080fd5b80fd5b346104805760403660031901126104805761ffff61085661046f565b61085e612ac0565b166000526068602052602435604060002055600080f35b3461048057600036600319011261048057610135546040516001600160a01b039091168152602090f35b346104805760006020366003190112610837576108ba61046f565b6108c2612ac0565b6065546001600160a01b0316908290823b1561083357602461ffff918360405195869485936310ddb13760e01b85521660048401525af1801561082e57610822575080f35b6001600160a01b0381160361048057565b346104805760203660031901126104805760043561093581610907565b61093d613688565b6040516370a0823160e01b8152306004820152906020826024816001600160a01b0385165afa90811561082e576100199260009261097e575b503390612e10565b6109a091925060203d81116109a7575b6109988183610f30565b810190612d43565b9038610976565b503d61098e565b3461048057610100366003190112610480576004356109cc81610907565b602435906109d982610907565b604435916109e683610907565b6064356109f281610907565b60843561ffff9182821682036104805760a4359283168303610480576100199560c43594610a1f86610907565b60e43596610a2c88610907565b61405d565b346104805760003660031901126104805760ca546040516001600160a01b039091168152602090f35b6001600160a01b03909116815260200190565b346104805760003660031901126104805760c9546040516001600160a01b039091168152602090f35b3461048057600036600319011261048057602060405160008051602061602e8339815191528152f35b34610480576020366003190112610480576004356000526101036020526020600160406000200154604051908152f35b346104805760008060031936011261083757610b09613688565b8080808060018060a01b0360c954164790828215610b2b575bf11561082e5780f35b506108fc610b22565b3461048057604036600319011261048057600435602435610b5481610907565b60009180835261010380602052610b71600160408620015461298c565b8184528060205260ff610b878460408720612975565b541615610b92578380f35b818452602052610ba58260408520612975565b805460ff1916600117905533916001600160a01b0316907f2f8788117e7eff1d82e926ec794901d17c78024a50270940304540a733656f0d8480a43880808380f35b3461048057604036600319011261048057602435610c0481610907565b336001600160a01b03821603610c205761001990600435612a43565b60405162461bcd60e51b815260206004820152602f60248201527f416363657373436f6e74726f6c3a2063616e206f6e6c792072656e6f756e636560448201526e103937b632b9903337b91039b2b63360891b6064820152608490fd5b346104805760003660031901126104805760cd5460405160089190911c6001600160a01b03168152602090f35b346104805760203660031901126104805760008051602061608e8339815191526020600435610cd7613688565b610ce0816158a1565b604051908152a1005b9060406003198301126104805760043561ffff811681036104805791602435906001600160401b0382116104805761053c91600401610496565b3461048057602061ffff610d5f610d3936610ce9565b9390911660005260668452610d516040600020611589565b848151910120923691610fbc565b82815191012014604051908152f35b3461048057600036600319011261048057602060cc54604051908152f35b34610480576020366003190112610480576020610daa600435614a7f565b604051908152f35b346104805760203660031901126104805761ffff610dce61046f565b1660005260686020526020604060002054604051908152f35b3461048057610df536610ce9565b610e00929192612ac0565b6065546000938492916001600160a01b031690813b15610e4e5783610e3c95604051968795869485936342d65a8d60e01b8552600485016126da565b03925af1801561082e57610822575080f35b8380fd5b8015150361048057565b3461048057602036600319011261048057600435610e7981610e52565b610e81613688565b60ff801960cd5416911515161760cd55600080f35b634e487b7160e01b600052604160045260246000fd5b6001600160401b038111610ebf57604052565b610e96565b602081019081106001600160401b03821117610ebf57604052565b606081019081106001600160401b03821117610ebf57604052565b604081019081106001600160401b03821117610ebf57604052565b608081019081106001600160401b03821117610ebf57604052565b601f909101601f19168101906001600160401b03821190821017610ebf57604052565b6040519061016082016001600160401b03811183821017610ebf57604052565b60405190608082016001600160401b03811183821017610ebf57604052565b60405190610f9f82610edf565b565b6001600160401b038111610ebf57601f01601f191660200190565b929192610fc882610fa1565b91610fd66040519384610f30565b829481845281830111610480578281602093846000960137010152565b9080601f830112156104805781602061076593359101610fbc565b346104805760a0366003190112610480576084356044356024356001600160401b038311610480576110657fb983e09c034e9c52b5e547cb0589967992b97717733f580cc5ad0afcdc4b522b933690600401610ff3565b9061106e613688565b61107782613441565b6000809261108760cd5460ff1690565b1561126a576110986064351561321a565b6110a06157f9565b938385101561123857506110c26110bb84956111ef9561275f565b809561275f565b945b6110ce8684612820565b60008282101561122657506110e3908261275f565b926000905b6110f9826110f4614d2c565b61275f565b9360d0549261110f61110a85613266565b60d055565b611117610f53565b308152914260208401526040830193845260608301998a52608083019a8b5260a0830197885260c0830182815260e08401968752610100840197885261012084019590955261014083015280156111f4576111ac916111869161119460cb5492604051948591602083016132a8565b03601f198101855284610f30565b6001600160a01b0382169160a01c61ffff1690613db6565b51955196519351905191519251936040519788978893909796959260c0959260e08601998652602086015260408501526060840152608083015260a08201520152565b0390a1005b5061120e61121c61122192604051928391602083016132a8565b03601f198101835282610f30565b613f2c565b6111ac565b8261123291959261275f565b906110e8565b83856111ef95839711611251575b50906110c29161275f565b816110c2939295506112629161275f565b939091611246565b92505061127c6111ef916004356136e0565b949093906110c4565b3461048057600036600319011261048057602060ff60cd54166040519015158152f35b3461048057600036600319011261048057602061ffff60cb5460a01c16604051908152f35b34610480576000366003190112610480576020610daa6131e3565b906112fb6020928281519485920161070c565b0190565b9060018060401b0316600052602052604060002090565b346104805760603660031901126104805761132f61046f565b6024356001600160401b038111610480576107b691611386602061135a611394943690600401610ff3565b61ffff6113656104c3565b9416600052609782526040600020826040519483868095519384920161070c565b8201908152030190206112ff565b546040519081529081906020820190565b34610480576113b3366104d9565b939290915030330361148a576113d6926113ce913691610fbc565b923691610fbc565b9060cb549261ffff808560a01c1691160361143a576100199261142261141c61120e611417611407611435966128aa565b60405192839160208301906112e8565b613342565b60601c90565b6001600160a01b039081169116146137c3565b61391b565b60405162461bcd60e51b815260206004820152602260248201527f4261736553747261746567793a3a5661756c74436861696e49644d69736d61746044820152610c6d60f31b6064820152608490fd5b60405162461bcd60e51b815260206004820152602660248201527f4e6f6e626c6f636b696e674c7a4170703a2063616c6c6572206d7573742062656044820152650204c7a4170760d41b6064820152608490fd5b3461048057600036600319011261048057602061ffff60cb5460b01c16604051908152f35b34610480576000806003193601126108375761151d612ac0565b603380546001600160a01b0319811690915581906001600160a01b0316600080516020615fee8339815191528280a380f35b90600182811c9216801561157f575b602083101461156957565b634e487b7160e01b600052602260045260246000fd5b91607f169161155e565b906040519182600082549261159d8461154f565b90818452600194858116908160001461160a57506001146115c7575b5050610f9f92500383610f30565b9093915060005260209081600020936000915b8183106115f2575050610f9f935082010138806115b9565b855488840185015294850194879450918301916115da565b915050610f9f94506020925060ff191682840152151560051b82010138806115b9565b346104805760203660031901126104805761ffff61164961046f565b1660005260666020526107b66116626040600020611589565b60405191829160208352602083019061072f565b346104805760403660031901126104805760206116c061169461046f565b61ffff61169f610485565b91166000526067835260406000209061ffff16600052602052604060002090565b54604051908152f35b34610480576000366003190112610480576033546040516001600160a01b039091168152602090f35b34610480576000366003190112610480576020610daa6149c9565b3461048057604036600319011261048057602060ff61174660243561173181610907565b60043560005261010384526040600020612975565b54166040519015158152f35b34610480576000366003190112610480576069546040516001600160a01b039091168152602090f35b34610480576020366003190112610480576020610daa600435614a05565b3461048057600080600319360112610837576117b3613688565b60ca546040516370a0823160e01b8152306004820152906001600160a01b0316602082602481845afa90811561082e5761082b92849261181e575b506040519163a9059cbb60e01b60208401526001602484015260448301526044825261181982610f15565b612fd2565b61183791925060203d81116109a7576109988183610f30565b90386117ee565b346104805760203660031901126104805761ffff61185a61046f565b1660005260666020526118706040600020611589565b8051156118a457805160131981019190821161189f576107b691611893916128f5565b60405191829182610754565b612749565b60405162461bcd60e51b815260206004820152601d60248201527f4c7a4170703a206e6f20747275737465642070617468207265636f72640000006044820152606490fd5b3461048057600036600319011261048057602060405160008152f35b346104805761191336610ce9565b919061191d612ac0565b6040519160208483828601376119486034858781013060601b85820152036014810187520185610f30565b61ffff821660009081526066825260408120855191959092906001600160401b038311610ebf576119838361197d865461154f565b866126f5565b81601f84116001146119e2575091806119d19492889994600080516020615f6e83398151915299926119d7575b50508160011b916000199060031b1c19161790555b604051938493846126da565b0390a180f35b0151905038806119b0565b9190601f1984166119f886600052602060002090565b9389905b828210611a4e575050926001928592600080516020615f6e8339815191529a9b966119d1989610611a35575b505050811b0190556119c5565b015160001960f88460031b161c19169055388080611a28565b806001869782949787015181550196019401906119fc565b34610480576020366003190112610480576020610daa600435614b1a565b346104805760c036600319011261048057611a9d61046f565b506001600160401b0360243581811161048057611abe903690600401610ff3565b60643591611acb83610907565b60a43590811161048057611ae3903690600401610ff3565b5060ce546001600160a01b0390811633148015611b94575b15611b5057611b3661141c61120e6114176114077f92073a89a07a000083eb8b2575fc15e7bb936efe55d00727d6942a796d7211a7966128aa565b92611b4b604051928392169460843583613377565b0390a2005b60405162461bcd60e51b815260206004820152601c60248201527b53674272696467653a3a526f757465724f724272696467654f6e6c7960201b6044820152606490fd5b508060cd5460081c163314611afb565b3461048057600036600319011261048057602060ff60cb5460c01c16604051908152f35b34610480576000366003190112610480576065546040516001600160a01b039091168152602090f35b34610480576020366003190112610480577f5db758e995a17ec1ad84bdef7e8c3293a0bd6179bcce400dff5d4c3d87db726b6020600435611c3181610907565b611c39612ac0565b606980546001600160a01b0319166001600160a01b03929092169182179055604051908152a1005b346104805760203660031901126104805760405163313ce56760e01b8152602081600481738f3cf7ad23cd3cadbd9735aff958023239c6a0635afa90811561082e576107b691611cc691600091611cd6575b5060ff60cb5460c01c1690600435615ed0565b6040519081529081906020820190565b611cf7915060203d8111611cfd575b611cef8183610f30565b81019061490c565b38611cb3565b503d611ce5565b346104805760003660031901126104805760ca546040516370a0823160e01b815230600482015290602090829060249082906001600160a01b03165afa801561082e57602091600091611d5b575b50604051908152f35b611d729150823d81116109a7576109988183610f30565b38611d52565b346104805760003660031901126104805760206040516127108152f35b3461048057602036600319011261048057600435611db281610907565b611dba612ac0565b60c980546001600160a01b0319166001600160a01b0392909216919091179055005b3461048057608036600319011261048057611df561046f565b611dfd610485565b6064356001600160401b03811161048057611e1c903690600401610496565b9092611e26612ac0565b6065546001600160a01b031690813b156104805760008094611e7f604051978896879586946332fb62e760e21b865261ffff809216600487015216602485015260443560448501526080606485015260848401916126b9565b03925af1801561082e57611e8f57005b80611e9c61001992610eac565b806106cc565b611eab366104d9565b9161ffff86949296166000526097602052611edf81604060002060206040518092878b8337878201908152030190206112ff565b54918215611f7e57611f7284611f6b7fc264d91f3adc5588250e1551f547752ca0cfa8f6b530d243b9f9f4cab10ea8e5996000611f5f87611f5a8d89611f548f6111ef9f8f611f33611f409236908d610fbc565b6020815191012014612785565b61ffff166000526097602052604060002090565b9161276c565b6112ff565b556113ce36868c610fbc565b908761381a565b604051958695866127db565b60405162461bcd60e51b815260206004820152602360248201527f4e6f6e626c6f636b696e674c7a4170703a206e6f2073746f726564206d65737360448201526261676560e81b6064820152608490fd5b3461048057604036600319011261048057610019602435600435611ff282610907565b8060005261010360205261200d60016040600020015461298c565b612a43565b34610480576000366003190112610480576020610daa614976565b346104805760203660031901126104805760043561204a81610907565b60c9546001600160a01b0316331480156120d6575b156120865761013580546001600160a01b0319166001600160a01b03909216919091179055005b60405162461bcd60e51b815260206004820152602260248201527f4261736553747261746567793a3a4f6e6c79537472617465676973744f725365604482015261363360f11b6064820152608490fd5b5030331461205f565b34610480576060366003190112610480576120f861046f565b612100610485565b6044359161210c612ac0565b8215612187576111ef7f9d5c7c0b934da8fefa9c7760c98383778a12dfbfc0c3b3106518f43fb9508ac09361ffff83166000526067602052806121618560406000209061ffff16600052602052604060002090565b556040519384938460409194939294606082019561ffff80921683521660208201520152565b60405162461bcd60e51b81526020600482015260156024820152744c7a4170703a20696e76616c6964206d696e47617360581b6044820152606490fd5b34610480576020366003190112610480576121dd612ac0565b600435600090815260cf60205260409020805460ff19169055005b346104805761220636610ce9565b9190612210612ac0565b60009161ffff81168352602060668152604084209060018060401b038611610ebf5761224686612240845461154f565b846126f5565b8490601f871160011461229c5750946119d19181869760008051602061606e8339815191529791612291575b508260011b906000198460031b1c1916179055604051938493846126da565b905085013538612272565b90601f1987166122b184600052602060002090565b9287905b828210612306575050916119d193918860008051602061606e833981519152989994106122ec575b5050600182811b0190556119c5565b860135600019600385901b60f8161c1916905538806122dd565b80600185968294968b013581550195019301906122b5565b34610480576000366003190112610480576020610daa614d2c565b346104805760803660031901126104805760043561235681610907565b6024359061236382610907565b60008051602061602e83398151915260005261010360205260ff6123a7337f3baea6bac6d40bb23e7a0c173a239a2a34c89aba451ebd319fcdee42f7221499612975565b5416156123f0576040516064358152604435926001600160a01b039081169216907f9b2db766e04dc7ee1cc19d1415531ad5b3fd566db4f745d9a8ad51e3d3fe1bd790602090a4005b612481604861246961240133612c44565b61120e61240c612cc4565b60405194859376020b1b1b2b9b9a1b7b73a3937b61d1030b1b1b7bab73a1604d1b602086015261244681518092602060378901910161070c565b84017001034b99036b4b9b9b4b733903937b6329607d1b603782015201906112e8565b60405162461bcd60e51b815291829160048301610754565b0390fd5b346104805760203660031901126104805761249e613688565b60043560cc55005b34610480576020366003190112610480576004356124c381610907565b6124cb612ac0565b6001600160a01b038116156124e35761001990612b18565b60405162461bcd60e51b815260206004820152602660248201527f4f776e61626c653a206e6577206f776e657220697320746865207a65726f206160448201526564647265737360d01b6064820152608490fd5b346104805760803660031901126104805761255061046f565b600061255a610485565b91612566604435610907565b606554604051633d7b2f6f60e21b815261ffff92831660048201529390911660248401523060448401526064803590840152829060849082906001600160a01b03165afa801561082e576107b6916000916125c9575b5060405191829182610754565b6125e4913d8091833e6125dc8183610f30565b81019061264f565b386125bc565b34610480576020366003190112610480576020610daa6004356131a1565b346104805760003660031901126104805760cb546040516001600160a01b039091168152602090f35b34610480576020366003190112610480576020610daa600435614bd7565b602081830312610480578051906001600160401b038211610480570181601f8201121561048057805161268181610fa1565b9261268f6040519485610f30565b8184526020828401011161048057610765916020808501910161070c565b6040513d6000823e3d90fd5b908060209392818452848401376000828201840152601f01601f1916010190565b60409061ffff610765959316815281602082015201916126b9565b90601f811161270357505050565b600091825260208220906020601f850160051c8301941061273f575b601f0160051c01915b82811061273457505050565b818155600101612728565b909250829061271f565b634e487b7160e01b600052601160045260246000fd5b9190820391821161189f57565b6020919283604051948593843782019081520301902090565b1561278c57565b60405162461bcd60e51b815260206004820152602160248201527f4e6f6e626c6f636b696e674c7a4170703a20696e76616c6964207061796c6f616044820152601960fa1b6064820152608490fd5b9160609361ffff6127fe93989796981684526080602085015260808401916126b9565b6001600160401b0390951660408201520152565b90601f820180921161189f57565b9190820180921161189f57565b1561283457565b60405162461bcd60e51b815260206004820152600e60248201526d736c6963655f6f766572666c6f7760901b6044820152606490fd5b1561287157565b60405162461bcd60e51b8152602060048201526011602482015270736c6963655f6f75744f66426f756e647360781b6044820152606490fd5b6128b860148251101561286a565b6040519060148083019101602883015b8083106128e257505060148252601f01601f191660405290565b90918251815260208091019201906128c8565b6129098261290281612812565b101561282d565b612916828251101561286a565b8161292e575050604051600081526020810160405290565b60405191601f811691821560051b808486010193838501920101905b8084106129625750508252601f01601f191660405290565b909283518152602080910193019061294a565b9060018060a01b0316600052602052604060002090565b8060005261010360205260ff6129a6336040600020612975565b5416156129b05750565b6129b933612c44565b6129c1612b8d565b9160306129cd84612bbe565b5360786129d984612bcb565b5360415b600181116129fc5761248160486124698561120e8861240c8815612bf9565b90600f8116906010821015612a3e57612a39916f181899199a1a9b1b9c1cb0b131b232b360811b901a612a2f8487612bdb565b5360041c91612bec565b6129dd565b612ba8565b6000908082526101038060205260ff612a5f8560408620612975565b5416612a6c575b50505050565b818352602052612a7f8360408420612975565b805460ff1916905533926001600160a01b0316917ff6391f5c32d9c69d2a47ea670b442974b53935d1edc7fd64eb21e047a839171b9080a438808080612a66565b6033546001600160a01b03163303612ad457565b606460405162461bcd60e51b815260206004820152602060248201527f4f776e61626c653a2063616c6c6572206973206e6f7420746865206f776e65726044820152fd5b603380546001600160a01b039283166001600160a01b031982168117909255909116600080516020615fee833981519152600080a3565b8181029291811591840414171561189f57565b6040519060c082016001600160401b03811183821017610ebf576040526096825260a0366020840137565b60405190612b9a82610f15565b604282526060366020840137565b634e487b7160e01b600052603260045260246000fd5b805115612a3e5760200190565b805160011015612a3e5760210190565b908151811015612a3e570160200190565b801561189f576000190190565b15612c0057565b606460405162461bcd60e51b815260206004820152602060248201527f537472696e67733a20686578206c656e67746820696e73756666696369656e746044820152fd5b60405190612c5182610edf565b602a825260403660208401376030612c6883612bbe565b536078612c7483612bcb565b536029905b60018211612c8c57610765915015612bf9565b600f8116906010821015612a3e57612cbe916f181899199a1a9b1b9c1cb0b131b232b360811b901a612a2f8486612bdb565b90612c79565b60008051602061602e833981519152612cdb612b8d565b906030612ce783612bbe565b536078612cf383612bcb565b536041905b60018211612d0b57610765915015612bf9565b600f8116906010821015612a3e57612d3d916f181899199a1a9b1b9c1cb0b131b232b360811b901a612a2f8486612bdb565b90612cf8565b90816020910312610480575190565b600080516020615f0e8339815191528152600019602082015260400190565b6001600160a01b039091168152602081019190915260400190565b90612db3610f9f9261120e60405193849263a9059cbb60e01b602085015260248401612d71565b612e5a565b90612ddf610f9f9261120e60405193849263a9059cbb60e01b602085015260248401612d71565b612f32565b90612e0b610f9f9261120e60405193849263a9059cbb60e01b602085015260248401612d71565b612f82565b611819610f9f9392612e3760405194859263a9059cbb60e01b602085015260248401612d71565b03601f198101845283610f30565b90816020910312610480575161076581610e52565b612eaa604051612e6981610efa565b600080602094858452600080516020615f8e8339815191528685015285815191018260008051602061600e8339815191525af1612ea461301e565b9061304e565b805190828215928315612f1a575b50505015612ec35750565b6084906040519062461bcd60e51b82526004820152602a60248201527f5361666545524332303a204552433230206f7065726174696f6e20646964206e6044820152691bdd081cdd58d8d9595960b21b6064820152fd5b612f2a9350820181019101612e45565b388281612eb8565b612eaa604051612f4181610efa565b600080602094858452600080516020615f8e8339815191528685015285815191018260008051602061604e8339815191525af1612f7c61301e565b906130ea565b612eaa604051612f9181610efa565b600080602094858452600080516020615f8e83398151915286850152858151910182600080516020615fce8339815191525af1612fcc61301e565b90613115565b604051612eaa916001600160a01b0316612feb82610efa565b600080602095868552600080516020615f8e83398151915287860152868151910182855af161301861301e565b91613171565b3d15613049573d9061302f82610fa1565b9161303d6040519384610f30565b82523d6000602084013e565b606090565b909190156130be57508051156130615790565b60008051602061600e8339815191523b156130795790565b60405162461bcd60e51b815260206004820152601d60248201527f416464726573733a2063616c6c20746f206e6f6e2d636f6e74726163740000006044820152606490fd5b8151156130ce5750805190602001fd5b60405162461bcd60e51b81529081906124819060048301610754565b909190156130be57508051156130fd5790565b60008051602061604e8339815191523b156130795790565b909190156130be57508051156131285790565b600080516020615fce8339815191523b156130795790565b909190156130be57508051156131535790565b738f3cf7ad23cd3cadbd9735aff958023239c6a0633b156130795790565b9192901561318e5750815115613185575090565b3b156130795790565b8251909150156130ce5750805190602001fd5b60405160208101917b0ca2ba3432b932bab69029b4b3b732b21026b2b9b9b0b3b29d05199960211b8352603c820152603c81526131dd81610edf565b51902090565b60d05460cb546040519060208201923060601b8452603483015261ffff60f01b9060401b166054820152603681526131dd81610edf565b1561322157565b60405162461bcd60e51b815260206004820152601e60248201527f4261736553747261746567793a3a44656274526174696f4e6f745a65726f00006044820152606490fd5b600019811461189f5760010190565b60008051602061604e8339815191529052565b6005111561329257565b634e487b7160e01b600052602160045260246000fd5b6002815260406020820181905282516001600160a01b03169082015261076591906101a0906020830151606082015260408301516080820152606083015160a0820152608083015160c082015260a083015160e082015260c0830151610100908183015260e0840151906101209182840152840151906101409182840152840151936101609485840152015192610180820152019061072f565b80516020909101516001600160601b031980821693929091906014811061336857505050565b60140360031b82901b16169150565b9081526001600160a01b03909116602082015260400190565b919361342e7fe183f33de2837795525b4792ca4cd60535bd77c53b7e7030060bfcf5734d6b0c9561343c939561ffff815160208301209616958660005260976020526133f48361138660208b6040600020826040519483868095519384920161070c565b55613411604051978897885260a0602089015260a088019061072f565b6001600160401b039092166040870152858203606087015261072f565b90838203608085015261072f565b0390a1565b61345d613465916134586134536131e3565b6131a1565b6135dc565b9190916134c1565b60c9546001600160a01b0390811691160361347c57565b60405162461bcd60e51b815260206004820152601e60248201527f4261736553747261746567793a3a496e76616c69645369676e617475726500006044820152606490fd5b6134ca81613288565b806134d25750565b6134db81613288565b600181036135235760405162461bcd60e51b815260206004820152601860248201527745434453413a20696e76616c6964207369676e617475726560401b6044820152606490fd5b61352c81613288565b600281036135795760405162461bcd60e51b815260206004820152601f60248201527f45434453413a20696e76616c6964207369676e6174757265206c656e677468006044820152606490fd5b80613585600392613288565b1461358c57565b60405162461bcd60e51b815260206004820152602260248201527f45434453413a20696e76616c6964207369676e6174757265202773272076616c604482015261756560f01b6064820152608490fd5b9060418151146000146136065761053c916020820151906060604084015193015160001a90613610565b5050600090600290565b9291906fa2a8918ca85bafe22016d0b997e4df60600160ff1b03831161367c5791608094939160ff602094604051948552168484015260408301526060820152600093849182805260015afa1561082e5781516001600160a01b03811615613676579190565b50600190565b50505050600090600390565b60c9546001600160a01b0316330361369c57565b60405162461bcd60e51b815260206004820152601c60248201527b10985cd954dd1c985d1959de4e8e93db9b1e54dd1c985d1959da5cdd60221b6044820152606490fd5b906136e9614d2c565b82811061379f57916136fb919261275f565b906000915b61371261370d8284612820565b614e1d565b505061372761372260ca546106d7565b6106d7565b91602060405180946370a0823160e01b825281806137483060048301610a5a565b03915afa92831561082e5760009361377f575b5081831161376b57505091600090565b61377a8261076593969461275f565b6137b1565b61379891935060203d81116109a7576109988183610f30565b913861375b565b6137ab9060009361275f565b91613700565b90808210156137be575090565b905090565b156137ca57565b60405162461bcd60e51b815260206004820152602260248201527f4261736553747261746567793a3a5661756c74416464726573734d69736d61746044820152610c6d60f31b6064820152608490fd5b919060cb549261ffff808560a01c1691160361143a57610f9f9261142261141c61120e611417611407611435966128aa565b90816020910312610480575160058110156104805790565b809291039160408312610480576020815193601f1901126104805760206040519161388e83610ec4565b015161389981610907565b815290565b809291039160608312610480576040815193601f190112610480576040805191908201906001600160401b03821183831017610ebf576040918252602081015183520151602082015290565b809291039160408312610480576020815193601f1901126104805760206040519161391483610ec4565b0151815290565b8051906139306020808301938301018361384c565b61393981613288565b60038103613982575061396560008051602061608e8339815191529260208361343c94510101906138ea565b905061397181516158a1565b516040519081529081906020820190565b61398b81613288565b806139ac5750610f9f916020826139a5935101019061389e565b9050613a6b565b806139b8600492613288565b146139c1575050565b613a136139f97f7c9a2d2ec51230d7dbed27f113a325b7e20aef7b049e68b2339257b5edff5bea9360208461343c9551010190613864565b9050613a0d613a0882516106d7565b613b67565b516106d7565b60405191829182610a5a565b15613a2657565b60405162461bcd60e51b815260206004820152601e60248201527f4261736553747261746567793a3a416c726561647957697468647261776e00006044820152606490fd5b613b4b610f9f91613b1561120e613ab46020840193613aae613aa9613aa5613a9e885160005260cf602052604060002090565b5460ff1690565b1590565b613a1f565b51614e1d565b8493919351613ac1610f73565b30815291602083810187815260408086019384526060808701958652815160019481019490945295516001600160a01b03169083015251938101939093525160808301525160a082015291829060c0820190565b8115613b585760cb54613b3a926001600160a01b0382169160a01c61ffff1690613db6565b5160005260cf602052604060002090565b805460ff19166001179055565b613b629150613f2c565b613b3a565b613b6f6149c9565b90600080516020615fae83398151915291823b1561048057604051632e1a7d4d60e01b8152600481019190915260009283908290602490829084905af1801561082e57613d45575b506040516370a0823160e01b80825260209291838180613bda3060048301610a5a565b038160008051602061600e8339815191525afa801561082e57613c05918691613d28575b5083612d8c565b604051818152838180613c1b3060048301610a5a565b038160008051602061604e8339815191525afa801561082e57613c46918691613d0b575b5083612db8565b604051818152838180613c5c3060048301610a5a565b0381600080516020615fce8339815191525afa801561082e57613c87918691613cee575b5083612de4565b613c9260ca546106d7565b90604051908152838180613ca93060048301610a5a565b03816001600160a01b0386165afa93841561082e57610f9f9594613ccf575b5050612e10565b613ce6929450803d106109a7576109988183610f30565b913880613cc8565b613d059150853d87116109a7576109988183610f30565b38613c80565b613d229150853d87116109a7576109988183610f30565b38613c3f565b613d3f9150853d87116109a7576109988183610f30565b38613bfe565b80611e9c613d5292610eac565b38613bb7565b610765939261ffff60609316825260018060a01b03166020820152816040820152019061072f565b919361ffff60a0946107659796600180881b0380951686526020860152166040840152166060820152816080820152019061072f565b60cd54929392613dd19060081c6001600160a01b03166106d7565b90604051630dc6346160e01b815260208180613df2888a8960048501613d58565b0381865afa90811561082e57600091613e5d575b50613e1561372260ca546106d7565b833b1561048057613e3f60009660405198899788968795633920455b60e11b875260048701613d80565b03925af1801561082e57613e505750565b80611e9c610f9f92610eac565b613e75915060203d81116109a7576109988183610f30565b38613e06565b9190826040910312610480576020825192015190565b92610765949261ffff613ebf9316855260018060a01b0316602085015260a0604085015260a084019061072f565b9160006060820152608081840391015261072f565b92613ef961076597959361ffff613f079416865260c0602087015260c086019061072f565b90848203604086015261072f565b6001600160a01b0391821660608401529316608082015280830360a09091015261072f565b60cb54604080516001600160601b0319606084811b8216602084015230901b1660348201529091613f608260488101612e37565b61ffff613f716137226065546106d7565b9160a01c16613f9e84613f8261403a565b81518093819263040a7bb160e41b83528a308860048601613e91565b0381865afa90811561082e5760009161400c575b50804710613fee57613fc261403a565b95833b1561048057613e3f600096519788968795869462c5803160e81b86523092309260048801613ed4565b845162fae2d560e21b81526004810191909152476024820152604490fd5b61402c9150853d8711614033575b6140248183610f30565b810190613e7b565b5038613fb2565b503d61401a565b604051600160f01b6020820152620f424060228201526022815261076581610edf565b95939196949290966000549760ff8960081c16158099819a614185575b8115614165575b5015614109576140a7978961409e600160ff196000541617600055565b6140f057614193565b6140ad57565b6140bd61ff001960005416600055565b604051600181527f7f26b83ff96e1f2b6a682f133852f6798a09c465da95921460cefb384740249890806020810161343c565b61410461010061ff00196000541617600055565b614193565b60405162461bcd60e51b815260206004820152602e60248201527f496e697469616c697a61626c653a20636f6e747261637420697320616c72656160448201526d191e481a5b9a5d1a585b1a5e995960921b6064820152608490fd5b303b15915081614177575b5038614081565b6001915060ff161438614170565b600160ff821610915061407a565b61422d926141ea61424f96936141c861420c949b9a9b6141c360ff60005460081c166141be8161442e565b61442e565b614925565b60c980546001600160a01b0319166001600160a01b0392909216919091179055565b60ca80546001600160a01b0319166001600160a01b0392909216919091179055565b60cb805461ffff60a01b191660a09290921b61ffff60a01b16919091179055565b60cb80546001600160a01b0319166001600160a01b0392909216919091179055565b61425a61264860cc55565b61426e61372261372261372260ca546106d7565b9060405193849263313ce56760e01b845283600460209788935afa92831561082e576000946142f5614384946142ca8997614341958a91614411575b5060cb805460ff60c01b191660c09290921b60ff60c01b16919091179055565b6142d4600060d055565b60cb805461ffff60b01b191660b09290921b61ffff60b01b16919091179055565b60cd8054610100600160a81b031916600885901b610100600160a81b03161790556001600160a01b039060ce8054919092166001600160a01b03166001600160a01b0319909116179055565b61434f61372260ca546106d7565b60405163095ea7b360e01b81526001600160a01b03909216600483015260001960248301529093849283919082906044820190565b03925af1801561082e576143e3575b50506143a86143a360ca546106d7565b6144f9565b6143bb6143b660ca546106d7565b6145b5565b6143c361462d565b6143cb6146a7565b6143d361472f565b6143db6147a9565b610f9f614892565b8161440292903d1061440a575b6143fa8183610f30565b810190612e45565b503880614393565b503d6143f0565b6144289150893d8b11611cfd57611cef8183610f30565b386142aa565b1561443557565b60405162461bcd60e51b815260206004820152602b60248201527f496e697469616c697a61626c653a20636f6e7472616374206973206e6f74206960448201526a6e697469616c697a696e6760a81b6064820152608490fd5b1561449557565b60405162461bcd60e51b815260206004820152603660248201527f5361666545524332303a20617070726f76652066726f6d206e6f6e2d7a65726f60448201527520746f206e6f6e2d7a65726f20616c6c6f77616e636560501b6064820152608490fd5b604051636eb1769f60e11b81523060048201527368b3465833fb72a70ecdf485e0e4c7bd8665fc456024820152906020826044816001600160a01b0385165afa91821561082e57610f9f9261455791600091614597575b501561448e565b60405163095ea7b360e01b60208201527368b3465833fb72a70ecdf485e0e4c7bd8665fc4560248201526000196044820152906118198260648101612e37565b6145af915060203d81116109a7576109988183610f30565b38614550565b604051636eb1769f60e11b8152306004820152600080516020615f0e8339815191526024820152906020826044816001600160a01b0385165afa91821561082e57610f9f9261460c9160009161459757501561448e565b60405163095ea7b360e01b60208201529061181982612e3760248201612d52565b604051636eb1769f60e11b8152306004820152600080516020615f0e833981519152602482015260208160448160008051602061604e8339815191525afa801561082e576146839160009161459757501561448e565b60405163095ea7b360e01b6020820152610f9f90612ddf8161120e60248201612d52565b604051636eb1769f60e11b8152306004820152600080516020615fae8339815191526024820181905260208260448160008051602061600e8339815191525afa91821561082e57610f9f926147049160009161459757501561448e565b6040519063095ea7b360e01b60208301526024820152600019604482015260448152612db381610f15565b604051636eb1769f60e11b8152306004820152600080516020615f0e833981519152602482015260208160448160008051602061600e8339815191525afa801561082e576147859160009161459757501561448e565b60405163095ea7b360e01b6020820152610f9f90612db38161120e60248201612d52565b604051636eb1769f60e11b815230600482015273195f7b233947d51f4c3b756ad41a5ddb34cebce060248201819052602091738f3cf7ad23cd3cadbd9735aff958023239c6a06391908381604481865afa801561082e57612eaa9361481a600093928493849161487b57501561448e565b604051938685019063095ea7b360e01b82526024860152821960448601526044855261484585610f15565b826040519561485387610efa565b888752600080516020615f8e8339815191528988015251925af161487561301e565b90613140565b6145af9150883d8a116109a7576109988183610f30565b604051636eb1769f60e11b8152306004820152600080516020615f0e8339815191526024820152602081604481600080516020615fce8339815191525afa801561082e576148e89160009161459757501561448e565b60405163095ea7b360e01b6020820152610f9f90612e0b8161120e60248201612d52565b90816020910312610480575160ff811681036104805790565b61493a60ff60005460081c166141be8161442e565b61494333612b18565b61495460ff60005460081c1661442e565b606580546001600160a01b0319166001600160a01b0392909216919091179055565b6040516246613160e11b8152306004820152602081602481600080516020615fae8339815191525afa90811561082e576000916149b1575090565b610765915060203d81116109a7576109988183610f30565b6040516370a0823160e01b8152306004820152602081602481600080516020615fae8339815191525afa90811561082e576000916149b1575090565b604051906328bd9fc160e11b8252600080516020615fce8339815191526004830152602482015260208160448173f68c20d6c50706f6c6bd8ee184382518c93b368c5afa801561082e5761076591600091614a61575b50614a7f565b614a79915060203d81116109a7576109988183610f30565b38614a5b565b60405163313ce56760e01b81529060208260048160008051602061604e8339815191525afa801561082e5761076592600091614ac6575b5060ff60cb5460c01c1691615ed0565b614ade915060203d8111611cfd57611cef8183610f30565b38614ab6565b6001600160a01b03909116815260008051602061604e833981519152602082015260016040820152606081019190915260800190565b60ca54604080516310e1b98f60e21b815292909183918291614b4991906001600160a01b031660048401614ae4565b0381600080516020615f0e8339815191525afa801561082e576000918291614b82575b50614b7690614a7f565b810180911161189f5790565b614b769250614b9f915060403d8111614033576140248183610f30565b9091614b6c565b60ff16604d811161189f57600a0a90565b8115614bc1570490565b634e487b7160e01b600052601260045260246000fd5b60405163313ce56760e01b9081815260209260008051602061600e833981519152918481600481865afa90811561082e57614c2391614c1e91600091614d0f575b50614ba6565b614b1a565b60cb5460c01c60ff16916040518581528681600481885afa90811561082e57614c56928591600093614cf7575b50615ed0565b91604051908582528682600481885afa90811561082e578793614c8093600093614cd85750615ed0565b9360046040518095819382525afa93841561082e5761076594614cb693614cb092600092614cbb575b5050614ba6565b90612b4f565b614bb7565b614cd19250803d10611cfd57611cef8183610f30565b3880614ca9565b614cf0919350853d8711611cfd57611cef8183610f30565b9138614c50565b614cf0919350893d8b11611cfd57611cef8183610f30565b614d269150873d8911611cfd57611cef8183610f30565b38614c18565b614d3a61372260ca546106d7565b60405190816370a0823160e01b9182825260209384918180614d5f3060048301610a5a565b03915afa90811561082e57600091614e00575b50614d7b614976565b91604051908152838180614d923060048301610a5a565b0381600080516020615fce8339815191525afa93841561082e5761076594614dd694614dd093614dcb93600093614de1575b5050612820565b614a05565b90612820565b614dd0614c1e6149c9565b614df8929350803d106109a7576109988183610f30565b903880614dc4565b614e179150833d85116109a7576109988183610f30565b38614d72565b906000614e2e61372260ca546106d7565b9060405191826370a0823160e01b9182825260209485918180614e543060048301610a5a565b03915afa90811561082e57600091614efe575b5085811015614ef557614e7d614e82918761275f565b614f1b565b82614e9161372260ca546106d7565b60405192835282908180614ea83060048301610a5a565b03915afa92831561082e57600093614ed6575b505081841115614ed1575080610765919361275f565b919050565b614eed929350803d106109a7576109988183610f30565b903880614ebb565b50505050600090565b614f159150843d86116109a7576109988183610f30565b38614e67565b801561501657614f2c614dcb614976565b90808210614feb575050600080516020615fae833981519152803b156104805760008091600460405180948193631e8c5c8960e11b83525af1801561082e57614fd8575b506040516370a0823160e01b815260208180614f8f3060048301610a5a565b0381600080516020615fce8339815191525afa801561082e57610f9f91600091614fba575b50615039565b614fd2915060203d81116109a7576109988183610f30565b38614fb4565b80611e9c614fe592610eac565b38614f70565b615003614ffe610f9f936150119361275f565b614bd7565b61500b6149c9565b906137b1565b6153cc565b50565b6150319060206040519282848094519384920161070c565b810103902090565b80156150165761504e613722610135546106d7565b9061505d61372260ca546106d7565b91803b15610480576040516310cabd1d60e01b8152600080516020615fce83398151915260048201526001600160a01b0393909316602484015260448301829052606260648401526000929083908290608490829084905af1908161512a575b506150f0576150eb600080516020615f2e833981519152916150e66150e061301e565b916152b4565b615019565b9180a2565b90600080516020615fce833981519152600080516020615f4e83398151915260018060a01b0361512461372260ca546106d7565b169280a4565b80611e9c61513792610eac565b386150bd565b6001600160401b038111610ebf5760051b60200190565b604090815161516281610edf565b600281528092600090815b81811061517a5750505050565b602090825161518881610edf565b848152828581830152858583015282870101520161516d565b805160011015612a3e5760400190565b6020908181840312610480578051906001600160401b03821161048057019180601f840112156104805782516151e68161513d565b936151f46040519586610f30565b818552838086019260051b820101928311610480578301905b82821061521b575050505090565b8151815290830190830161520d565b9291909594939560a084019084526020918285015260409160a08386015283518092528060c086019401926000905b83821061527c575050506001600160a01b03909616606084015250935060800152565b845180516001600160a01b03908116885281850151168785015281015115158682015260609095019493820193600190910190615259565b60006152be615154565b916152c7610f92565b600080516020615fce83398151915281526152e460208201613275565b8260408201526152f384612bbe565b526152fd83612bbe565b5061530c61372260ca546106d7565b615331615317610f92565b9161532183613275565b6001600160a01b03166020830152565b60016040820152615341846151a1565b5261534b836151a1565b5061535d61535882614a05565b6153b8565b604051631e82ecdb60e31b815293849283926153819242923092906004870161522a565b038183600080516020615f0e8339815191525af161539c5750565b615016903d806000833e6153b08183610f30565b8101906151b1565b6153c86127109160cc5490612b4f565b0490565b600080516020615fae833981519152803b156104805760408051631e8c5c8960e11b8152600093600492918581858183895af1801561082e57615660575b5081516370a0823160e01b808252602095909186818061542c308a8301610a5a565b0381600080516020615fce8339815191525afa801561082e576154559189916156495750615039565b821561564057803b1561563c578684518092632e1a7d4d60e01b8252818381615485898c83019190602083019252565b03925af1801561082e57615629575b506154a361372260ca546106d7565b83516310e1b98f60e21b81529290836154bf8383898401614ae4565b038585600080516020615f0e8339815191529281845afa801561082e57898794899782908394615607575b5061557b9061550c60cc548092615505612710948592612b4f565b0496612b4f565b885163037b79b160e21b81526001600160a01b039098169c88019c8d5260008051602061604e83398151915260208e0152600160408e015260608d019390935260808c019490945292900460a08a01523060c08a01524260e08a01529297889384929091839161010090910190565b03925af192831561082e576155a39486946155eb575b50519384928392835230908301610a5a565b038160008051602061604e8339815191525afa91821561082e57610f9f93926155ce575b5050615673565b6155e49250803d106109a7576109988183610f30565b38806155c7565b61560190823d8411614033576140248183610f30565b50615591565b61557b94506156239150873d8911614033576140248183610f30565b936154ea565b80611e9c61563692610eac565b38615494565b8680fd5b50505050505050565b614fd29150883d8a116109a7576109988183610f30565b80611e9c61566d92610eac565b3861540a565b801561501657615688613722610135546106d7565b9061569761372260ca546106d7565b91803b15610480576040516310cabd1d60e01b815260008051602061604e83398151915260048201526001600160a01b0393909316602484015260448301829052606260648401526000929083908290608490829084905af19081615754575b50615720576150eb600080516020615f2e833981519152916150e661571a61301e565b91615767565b9060008051602061604e833981519152600080516020615f4e83398151915260018060a01b0361512461372260ca546106d7565b80611e9c61576192610eac565b386156f7565b61271061577f61577683614a7f565b60cc5490612b4f565b60ca546040516313dcfc5960e01b81526004810194909452919004602483015260008051602061604e83398151915260448301526001600160a01b03166064820152600160848201523060a48201524260c482015260008160e48183600080516020615f0e8339815191525af1801561082e5761539c5750565b6158046150116149c9565b60ca546040516370a0823160e01b815230600482015290602090829060249082906001600160a01b03165afa90811561082e576000916149b1575090565b602081526080606061585f845183602086015260a085019061072f565b60208501516001600160a01b03166040858101919091528501518285015293015191015290565b90816060910312610480578051916040602083015192015190565b90600080516020615fae833981519152803b1561048057604092835191631e8c5c8960e11b83526000926004908481838183875af1801561082e57615ea9575b5085516370a0823160e01b808252602094909185818061590330888301610a5a565b0381600080516020615fce8339815191525afa801561082e5761592c918891615e925750615039565b61593a61372260ca546106d7565b90885183815286818061594f30898301610a5a565b0381865afa90811561082e578891615e75575b50818111615d09575b505050865181815284818061598230878301610a5a565b0381738f3cf7ad23cd3cadbd9735aff958023239c6a0635afa90811561082e578691615cec575b508481615c85575b505086518181528481806159c730878301610a5a565b038160008051602061604e8339815191525afa90811561082e578691615c68575b506159f761372260ca546106d7565b885191838352868380615a0c30898301610a5a565b0381855afa92831561082e578893615c49575b5080151580615c40575b615aeb575b5050508651908152838180615a4530868301610a5a565b038160008051602061600e8339815191525afa93841561082e578594615acc575b505082615a76575b505050509050565b813b15610e4e5783615aa095965180968195829463b6b55f2560e01b845283019190602083019252565b03925af1801561082e57615ab9575b8080808493615a6e565b80611e9c615ac692610eac565b38615aaf565b615ae3929450803d106109a7576109988183610f30565b913880615a66565b89516326283ecf60e21b81526001600160a01b03831686820190815260008051602061604e833981519152602082015260016040820152606081810195909552608081019290925290819060a00103908381600080516020615f0e8339815191529381855afa91821561082e5784928a88938e82918394615c1a575b5051635a47ddc360e01b81526001600160a01b0390971694870194855260008051602061604e83398151915260208601526001604086018190526060860191909152608085019290925260a0840182905260c08401919091523060e08401524261010084015284928391908290610120015b03925af1801561082e57615bee575b80615a2e565b81615c0d92903d10615c13575b615c058183610f30565b810190615886565b50615be8565b503d615bfb565b615c37919450615bd99250873d8911615c1357615c058183610f30565b50939091615b67565b50821515615a29565b615c61919350873d89116109a7576109988183610f30565b9138615a1f565b615c7f9150853d87116109a7576109988183610f30565b386159e8565b885163a39fc2c560e01b81529182908190615ca4903090888401613377565b03818973195f7b233947d51f4c3b756ad41a5ddb34cebce05af1801561082e57615ccf575b846159b1565b615ce590853d87116109a7576109988183610f30565b5038615cc9565b615d039150853d87116109a7576109988183610f30565b386159a9565b615d1c91615d169161275f565b60011c90565b90615d2d60cb5460ff9060c01c1690565b895163313ce56760e01b81529287848781738f3cf7ad23cd3cadbd9735aff958023239c6a0635afa92831561082e57615dda8c61577661271093615d838d988f98615e0d9b615dcc9a92615e56575b5088615ed0565b925160609190911b6001600160601b031916888201908152601960ea1b6014820152738f3cf7ad23cd3cadbd9735aff958023239c6a06360601b601782015290968791602b0190565b03601f198101875286610f30565b0490615de4610f73565b92835230848401528b830152606082015289518093819263b858183f60e01b8352878301615842565b0381897368b3465833fb72a70ecdf485e0e4c7bd8665fc455af1801561082e57615e39575b808061596b565b615e4f90853d87116109a7576109988183610f30565b5038615e32565b615e6e9192508b3d8d11611cfd57611cef8183610f30565b9038615d7c565b615e8c9150873d89116109a7576109988183610f30565b38615962565b614fd29150873d89116109a7576109988183610f30565b80611e9c615eb692610eac565b386158e1565b9060ff8091169116039060ff821161189f57565b909160ff831660ff821611600014615ef757615ef261076593614cb092615ebc565b614ba6565b615ef2615f079161076594615ebc565b90614bb756fe000000000000000000000000cc25c0fd84737f44a7d38649b69491bbf0c7f083ab2169d52de19835827d46106e22dfb1c4261618a79928c57f4b4b0c2cfe4f93ea368a40e9570069bb8e6511d668293ad2e1f03b0d982431fd223de9f3b70ca68c0400cfe2d1199b1a725c78960bcc2a344d869b80590d0f2bd005db15a572ce5361666545524332303a206c6f772d6c6576656c2063616c6c206661696c656400000000000000000000000097bd59a8202f8263c2ec39cf6cf6b438d0b458760000000000000000000000007238390d5f6f64e67c3211c343a410e2a3dec1428be0079c531659141344cd1fd0a4f28419497f9722a3daafe3b4186f6b6457e0000000000000000000000000d17cb0f162f133e339c0bbfc18c36c357e681d6b6d1efadb607420c71e8f966ae6611a2b817ec83a98f82ae24284fd004cf9d40c00000000000000000000000040379a439d4f6795b6fc9aa5687db461677a2dbafa41487ad5d6728f0b19276fa1eddc16558578f5109fc39d2dc33c3230470dabb0c58532a125fc3c0adccaef396bf65344a4d5781cec2e4c593e6b611d75f150a2646970667358221220df083ef5b5fdfebd8b2ac187d219388e82dbac0ae121ab78e41b1eb13fe17f0d64736f6c63430008130033",
  "linkReferences": {},
  "deployedLinkReferences": {}
}