{
  "_format": "hh-sol-artifact-1",
  "contractName": "PearlStrategy",
  "sourceName": "contracts/strategies/PearlStrategy.sol",
  "abi": [
    {
      "inputs": [
        {
          "internalType": "uint256",
          "name": "messageType",
          "type": "uint256"
        }
      ],
      "name": "IncorrectMessageType",
      "type": "error"
    },
    {
      "inputs": [
        {
          "internalType": "uint256",
          "name": "amount",
          "type": "uint256"
        },
        {
          "internalType": "uint256",
          "name": "balance",
          "type": "uint256"
        }
      ],
      "name": "InsufficientFunds",
      "type": "error"
    },
    {
      "anonymous": false,
      "inputs": [
        {
          "indexed": false,
          "internalType": "uint256",
          "name": "debtOutstanding",
          "type": "uint256"
        }
      ],
      "name": "AdjustedPosition",
      "type": "event"
    },
    {
      "anonymous": false,
      "inputs": [
        {
          "indexed": false,
          "internalType": "uint8",
          "name": "version",
          "type": "uint8"
        }
      ],
      "name": "Initialized",
      "type": "event"
    },
    {
      "anonymous": false,
      "inputs": [
        {
          "indexed": false,
          "internalType": "uint16",
          "name": "_srcChainId",
          "type": "uint16"
        },
        {
          "indexed": false,
          "internalType": "bytes",
          "name": "_srcAddress",
          "type": "bytes"
        },
        {
          "indexed": false,
          "internalType": "uint64",
          "name": "_nonce",
          "type": "uint64"
        },
        {
          "indexed": false,
          "internalType": "bytes",
          "name": "_payload",
          "type": "bytes"
        },
        {
          "indexed": false,
          "internalType": "bytes",
          "name": "_reason",
          "type": "bytes"
        }
      ],
      "name": "MessageFailed",
      "type": "event"
    },
    {
      "anonymous": false,
      "inputs": [
        {
          "indexed": true,
          "internalType": "address",
          "name": "previousOwner",
          "type": "address"
        },
        {
          "indexed": true,
          "internalType": "address",
          "name": "newOwner",
          "type": "address"
        }
      ],
      "name": "OwnershipTransferred",
      "type": "event"
    },
    {
      "anonymous": false,
      "inputs": [
        {
          "indexed": false,
          "internalType": "uint16",
          "name": "_srcChainId",
          "type": "uint16"
        },
        {
          "indexed": false,
          "internalType": "bytes",
          "name": "_srcAddress",
          "type": "bytes"
        },
        {
          "indexed": false,
          "internalType": "uint64",
          "name": "_nonce",
          "type": "uint64"
        },
        {
          "indexed": false,
          "internalType": "bytes32",
          "name": "_payloadHash",
          "type": "bytes32"
        }
      ],
      "name": "RetryMessageSuccess",
      "type": "event"
    },
    {
      "anonymous": false,
      "inputs": [
        {
          "indexed": false,
          "internalType": "uint16",
          "name": "_dstChainId",
          "type": "uint16"
        },
        {
          "indexed": false,
          "internalType": "uint16",
          "name": "_type",
          "type": "uint16"
        },
        {
          "indexed": false,
          "internalType": "uint256",
          "name": "_minDstGas",
          "type": "uint256"
        }
      ],
      "name": "SetMinDstGas",
      "type": "event"
    },
    {
      "anonymous": false,
      "inputs": [
        {
          "indexed": false,
          "internalType": "address",
          "name": "precrime",
          "type": "address"
        }
      ],
      "name": "SetPrecrime",
      "type": "event"
    },
    {
      "anonymous": false,
      "inputs": [
        {
          "indexed": false,
          "internalType": "uint16",
          "name": "_remoteChainId",
          "type": "uint16"
        },
        {
          "indexed": false,
          "internalType": "bytes",
          "name": "_path",
          "type": "bytes"
        }
      ],
      "name": "SetTrustedRemote",
      "type": "event"
    },
    {
      "anonymous": false,
      "inputs": [
        {
          "indexed": false,
          "internalType": "uint16",
          "name": "_remoteChainId",
          "type": "uint16"
        },
        {
          "indexed": false,
          "internalType": "bytes",
          "name": "_remoteAddress",
          "type": "bytes"
        }
      ],
      "name": "SetTrustedRemoteAddress",
      "type": "event"
    },
    {
      "anonymous": false,
      "inputs": [
        {
          "indexed": true,
          "internalType": "address",
          "name": "token",
          "type": "address"
        },
        {
          "indexed": false,
          "internalType": "uint256",
          "name": "amount",
          "type": "uint256"
        },
        {
          "indexed": false,
          "internalType": "address",
          "name": "sender",
          "type": "address"
        }
      ],
      "name": "SgReceived",
      "type": "event"
    },
    {
      "anonymous": false,
      "inputs": [
        {
          "indexed": false,
          "internalType": "address",
          "name": "newStrategy",
          "type": "address"
        }
      ],
      "name": "StrategyMigrated",
      "type": "event"
    },
    {
      "anonymous": false,
      "inputs": [
        {
          "indexed": false,
          "internalType": "uint256",
          "name": "profit",
          "type": "uint256"
        },
        {
          "indexed": false,
          "internalType": "uint256",
          "name": "loss",
          "type": "uint256"
        },
        {
          "indexed": false,
          "internalType": "uint256",
          "name": "debtPayment",
          "type": "uint256"
        },
        {
          "indexed": false,
          "internalType": "uint256",
          "name": "giveToStrategy",
          "type": "uint256"
        },
        {
          "indexed": false,
          "internalType": "uint256",
          "name": "requestFromStrategy",
          "type": "uint256"
        },
        {
          "indexed": false,
          "internalType": "uint256",
          "name": "creditAvailable",
          "type": "uint256"
        },
        {
          "indexed": false,
          "internalType": "uint256",
          "name": "totalAssets",
          "type": "uint256"
        }
      ],
      "name": "StrategyReported",
      "type": "event"
    },
    {
      "inputs": [],
      "name": "DEFAULT_PAYLOAD_SIZE_LIMIT",
      "outputs": [
        {
          "internalType": "uint256",
          "name": "",
          "type": "uint256"
        }
      ],
      "stateMutability": "view",
      "type": "function"
    },
    {
      "inputs": [],
      "name": "DEFAULT_SLIPPAGE",
      "outputs": [
        {
          "internalType": "uint256",
          "name": "",
          "type": "uint256"
        }
      ],
      "stateMutability": "view",
      "type": "function"
    },
    {
      "inputs": [
        {
          "internalType": "uint256",
          "name": "_debtOutstanding",
          "type": "uint256"
        }
      ],
      "name": "adjustPosition",
      "outputs": [],
      "stateMutability": "nonpayable",
      "type": "function"
    },
    {
      "inputs": [],
      "name": "balanceOfLpStaked",
      "outputs": [
        {
          "internalType": "uint256",
          "name": "",
          "type": "uint256"
        }
      ],
      "stateMutability": "view",
      "type": "function"
    },
    {
      "inputs": [],
      "name": "balanceOfPearlRewards",
      "outputs": [
        {
          "internalType": "uint256",
          "name": "",
          "type": "uint256"
        }
      ],
      "stateMutability": "view",
      "type": "function"
    },
    {
      "inputs": [],
      "name": "balanceOfWant",
      "outputs": [
        {
          "internalType": "uint256",
          "name": "",
          "type": "uint256"
        }
      ],
      "stateMutability": "view",
      "type": "function"
    },
    {
      "inputs": [
        {
          "internalType": "uint256",
          "name": "epoch",
          "type": "uint256"
        }
      ],
      "name": "callMe",
      "outputs": [],
      "stateMutability": "nonpayable",
      "type": "function"
    },
    {
      "inputs": [],
      "name": "clearWant",
      "outputs": [],
      "stateMutability": "nonpayable",
      "type": "function"
    },
    {
      "inputs": [],
      "name": "currentChainId",
      "outputs": [
        {
          "internalType": "uint16",
          "name": "",
          "type": "uint16"
        }
      ],
      "stateMutability": "view",
      "type": "function"
    },
    {
      "inputs": [
        {
          "internalType": "uint256",
          "name": "_daiAmount",
          "type": "uint256"
        }
      ],
      "name": "daiToWant",
      "outputs": [
        {
          "internalType": "uint256",
          "name": "",
          "type": "uint256"
        }
      ],
      "stateMutability": "view",
      "type": "function"
    },
    {
      "inputs": [],
      "name": "emergencyExit",
      "outputs": [
        {
          "internalType": "bool",
          "name": "",
          "type": "bool"
        }
      ],
      "stateMutability": "view",
      "type": "function"
    },
    {
      "inputs": [],
      "name": "estimatedTotalAssets",
      "outputs": [
        {
          "internalType": "uint256",
          "name": "",
          "type": "uint256"
        }
      ],
      "stateMutability": "view",
      "type": "function"
    },
    {
      "inputs": [
        {
          "internalType": "uint16",
          "name": "",
          "type": "uint16"
        },
        {
          "internalType": "bytes",
          "name": "",
          "type": "bytes"
        },
        {
          "internalType": "uint64",
          "name": "",
          "type": "uint64"
        }
      ],
      "name": "failedMessages",
      "outputs": [
        {
          "internalType": "bytes32",
          "name": "",
          "type": "bytes32"
        }
      ],
      "stateMutability": "view",
      "type": "function"
    },
    {
      "inputs": [
        {
          "internalType": "uint16",
          "name": "_srcChainId",
          "type": "uint16"
        },
        {
          "internalType": "bytes",
          "name": "_srcAddress",
          "type": "bytes"
        }
      ],
      "name": "forceResumeReceive",
      "outputs": [],
      "stateMutability": "nonpayable",
      "type": "function"
    },
    {
      "inputs": [
        {
          "internalType": "uint16",
          "name": "_version",
          "type": "uint16"
        },
        {
          "internalType": "uint16",
          "name": "_chainId",
          "type": "uint16"
        },
        {
          "internalType": "address",
          "name": "",
          "type": "address"
        },
        {
          "internalType": "uint256",
          "name": "_configType",
          "type": "uint256"
        }
      ],
      "name": "getConfig",
      "outputs": [
        {
          "internalType": "bytes",
          "name": "",
          "type": "bytes"
        }
      ],
      "stateMutability": "view",
      "type": "function"
    },
    {
      "inputs": [
        {
          "internalType": "bytes32",
          "name": "_messageHash",
          "type": "bytes32"
        }
      ],
      "name": "getEthSignedMessageHash",
      "outputs": [
        {
          "internalType": "bytes32",
          "name": "",
          "type": "bytes32"
        }
      ],
      "stateMutability": "pure",
      "type": "function"
    },
    {
      "inputs": [
        {
          "internalType": "uint16",
          "name": "_remoteChainId",
          "type": "uint16"
        }
      ],
      "name": "getTrustedRemoteAddress",
      "outputs": [
        {
          "internalType": "bytes",
          "name": "",
          "type": "bytes"
        }
      ],
      "stateMutability": "view",
      "type": "function"
    },
    {
      "inputs": [
        {
          "internalType": "uint256",
          "name": "_totalDebt",
          "type": "uint256"
        },
        {
          "internalType": "uint256",
          "name": "_debtOutstanding",
          "type": "uint256"
        },
        {
          "internalType": "uint256",
          "name": "_creditAvailable",
          "type": "uint256"
        },
        {
          "internalType": "uint256",
          "name": "_debtRatio",
          "type": "uint256"
        },
        {
          "internalType": "bytes",
          "name": "_signature",
          "type": "bytes"
        }
      ],
      "name": "harvest",
      "outputs": [],
      "stateMutability": "nonpayable",
      "type": "function"
    },
    {
      "inputs": [
        {
          "internalType": "address",
          "name": "_lzEndpoint",
          "type": "address"
        },
        {
          "internalType": "address",
          "name": "_strategist",
          "type": "address"
        },
        {
          "internalType": "contract IERC20",
          "name": "_want",
          "type": "address"
        },
        {
          "internalType": "address",
          "name": "_vault",
          "type": "address"
        },
        {
          "internalType": "uint16",
          "name": "_vaultChainId",
          "type": "uint16"
        },
        {
          "internalType": "uint16",
          "name": "_currentChainId",
          "type": "uint16"
        },
        {
          "internalType": "address",
          "name": "_sgBridge",
          "type": "address"
        },
        {
          "internalType": "address",
          "name": "_router",
          "type": "address"
        }
      ],
      "name": "initialize",
      "outputs": [],
      "stateMutability": "nonpayable",
      "type": "function"
    },
    {
      "inputs": [
        {
          "internalType": "uint16",
          "name": "_srcChainId",
          "type": "uint16"
        },
        {
          "internalType": "bytes",
          "name": "_srcAddress",
          "type": "bytes"
        }
      ],
      "name": "isTrustedRemote",
      "outputs": [
        {
          "internalType": "bool",
          "name": "",
          "type": "bool"
        }
      ],
      "stateMutability": "view",
      "type": "function"
    },
    {
      "inputs": [],
      "name": "lzEndpoint",
      "outputs": [
        {
          "internalType": "contract ILayerZeroEndpointUpgradeable",
          "name": "",
          "type": "address"
        }
      ],
      "stateMutability": "view",
      "type": "function"
    },
    {
      "inputs": [
        {
          "internalType": "uint16",
          "name": "_srcChainId",
          "type": "uint16"
        },
        {
          "internalType": "bytes",
          "name": "_srcAddress",
          "type": "bytes"
        },
        {
          "internalType": "uint64",
          "name": "_nonce",
          "type": "uint64"
        },
        {
          "internalType": "bytes",
          "name": "_payload",
          "type": "bytes"
        }
      ],
      "name": "lzReceive",
      "outputs": [],
      "stateMutability": "nonpayable",
      "type": "function"
    },
    {
      "inputs": [
        {
          "internalType": "uint16",
          "name": "",
          "type": "uint16"
        },
        {
          "internalType": "uint16",
          "name": "",
          "type": "uint16"
        }
      ],
      "name": "minDstGasLookup",
      "outputs": [
        {
          "internalType": "uint256",
          "name": "",
          "type": "uint256"
        }
      ],
      "stateMutability": "view",
      "type": "function"
    },
    {
      "inputs": [],
      "name": "name",
      "outputs": [
        {
          "internalType": "string",
          "name": "",
          "type": "string"
        }
      ],
      "stateMutability": "pure",
      "type": "function"
    },
    {
      "inputs": [
        {
          "internalType": "uint16",
          "name": "_srcChainId",
          "type": "uint16"
        },
        {
          "internalType": "bytes",
          "name": "_srcAddress",
          "type": "bytes"
        },
        {
          "internalType": "uint64",
          "name": "_nonce",
          "type": "uint64"
        },
        {
          "internalType": "bytes",
          "name": "_payload",
          "type": "bytes"
        }
      ],
      "name": "nonblockingLzReceive",
      "outputs": [],
      "stateMutability": "nonpayable",
      "type": "function"
    },
    {
      "inputs": [],
      "name": "owner",
      "outputs": [
        {
          "internalType": "address",
          "name": "",
          "type": "address"
        }
      ],
      "stateMutability": "view",
      "type": "function"
    },
    {
      "inputs": [
        {
          "internalType": "uint16",
          "name": "",
          "type": "uint16"
        }
      ],
      "name": "payloadSizeLimitLookup",
      "outputs": [
        {
          "internalType": "uint256",
          "name": "",
          "type": "uint256"
        }
      ],
      "stateMutability": "view",
      "type": "function"
    },
    {
      "inputs": [
        {
          "internalType": "uint256",
          "name": "_pearlAmount",
          "type": "uint256"
        }
      ],
      "name": "pearlToWant",
      "outputs": [
        {
          "internalType": "uint256",
          "name": "",
          "type": "uint256"
        }
      ],
      "stateMutability": "view",
      "type": "function"
    },
    {
      "inputs": [],
      "name": "precrime",
      "outputs": [
        {
          "internalType": "address",
          "name": "",
          "type": "address"
        }
      ],
      "stateMutability": "view",
      "type": "function"
    },
    {
      "inputs": [],
      "name": "renounceOwnership",
      "outputs": [],
      "stateMutability": "nonpayable",
      "type": "function"
    },
    {
      "inputs": [
        {
          "internalType": "uint16",
          "name": "_srcChainId",
          "type": "uint16"
        },
        {
          "internalType": "bytes",
          "name": "_srcAddress",
          "type": "bytes"
        },
        {
          "internalType": "uint64",
          "name": "_nonce",
          "type": "uint64"
        },
        {
          "internalType": "bytes",
          "name": "_payload",
          "type": "bytes"
        }
      ],
      "name": "retryMessage",
      "outputs": [],
      "stateMutability": "payable",
      "type": "function"
    },
    {
      "inputs": [],
      "name": "revokeFunds",
      "outputs": [],
      "stateMutability": "nonpayable",
      "type": "function"
    },
    {
      "inputs": [
        {
          "internalType": "uint16",
          "name": "_version",
          "type": "uint16"
        },
        {
          "internalType": "uint16",
          "name": "_chainId",
          "type": "uint16"
        },
        {
          "internalType": "uint256",
          "name": "_configType",
          "type": "uint256"
        },
        {
          "internalType": "bytes",
          "name": "_config",
          "type": "bytes"
        }
      ],
      "name": "setConfig",
      "outputs": [],
      "stateMutability": "nonpayable",
      "type": "function"
    },
    {
      "inputs": [
        {
          "internalType": "bool",
          "name": "_emergencyExit",
          "type": "bool"
        }
      ],
      "name": "setEmergencyExit",
      "outputs": [],
      "stateMutability": "nonpayable",
      "type": "function"
    },
    {
      "inputs": [
        {
          "internalType": "uint16",
          "name": "_dstChainId",
          "type": "uint16"
        },
        {
          "internalType": "uint16",
          "name": "_packetType",
          "type": "uint16"
        },
        {
          "internalType": "uint256",
          "name": "_minGas",
          "type": "uint256"
        }
      ],
      "name": "setMinDstGas",
      "outputs": [],
      "stateMutability": "nonpayable",
      "type": "function"
    },
    {
      "inputs": [
        {
          "internalType": "uint16",
          "name": "_dstChainId",
          "type": "uint16"
        },
        {
          "internalType": "uint256",
          "name": "_size",
          "type": "uint256"
        }
      ],
      "name": "setPayloadSizeLimit",
      "outputs": [],
      "stateMutability": "nonpayable",
      "type": "function"
    },
    {
      "inputs": [
        {
          "internalType": "address",
          "name": "_precrime",
          "type": "address"
        }
      ],
      "name": "setPrecrime",
      "outputs": [],
      "stateMutability": "nonpayable",
      "type": "function"
    },
    {
      "inputs": [
        {
          "internalType": "uint16",
          "name": "_version",
          "type": "uint16"
        }
      ],
      "name": "setReceiveVersion",
      "outputs": [],
      "stateMutability": "nonpayable",
      "type": "function"
    },
    {
      "inputs": [
        {
          "internalType": "uint16",
          "name": "_version",
          "type": "uint16"
        }
      ],
      "name": "setSendVersion",
      "outputs": [],
      "stateMutability": "nonpayable",
      "type": "function"
    },
    {
      "inputs": [
        {
          "internalType": "uint256",
          "name": "_slippage",
          "type": "uint256"
        }
      ],
      "name": "setSlippage",
      "outputs": [],
      "stateMutability": "nonpayable",
      "type": "function"
    },
    {
      "inputs": [
        {
          "internalType": "uint16",
          "name": "_srcChainId",
          "type": "uint16"
        },
        {
          "internalType": "bytes",
          "name": "_path",
          "type": "bytes"
        }
      ],
      "name": "setTrustedRemote",
      "outputs": [],
      "stateMutability": "nonpayable",
      "type": "function"
    },
    {
      "inputs": [
        {
          "internalType": "uint16",
          "name": "_remoteChainId",
          "type": "uint16"
        },
        {
          "internalType": "bytes",
          "name": "_remoteAddress",
          "type": "bytes"
        }
      ],
      "name": "setTrustedRemoteAddress",
      "outputs": [],
      "stateMutability": "nonpayable",
      "type": "function"
    },
    {
      "inputs": [],
      "name": "sgBridge",
      "outputs": [
        {
          "internalType": "contract ISgBridge",
          "name": "",
          "type": "address"
        }
      ],
      "stateMutability": "view",
      "type": "function"
    },
    {
      "inputs": [
        {
          "internalType": "uint16",
          "name": "",
          "type": "uint16"
        },
        {
          "internalType": "bytes",
          "name": "_srcAddress",
          "type": "bytes"
        },
        {
          "internalType": "uint256",
          "name": "",
          "type": "uint256"
        },
        {
          "internalType": "address",
          "name": "_token",
          "type": "address"
        },
        {
          "internalType": "uint256",
          "name": "_amountLD",
          "type": "uint256"
        },
        {
          "internalType": "bytes",
          "name": "",
          "type": "bytes"
        }
      ],
      "name": "sgReceive",
      "outputs": [],
      "stateMutability": "nonpayable",
      "type": "function"
    },
    {
      "inputs": [],
      "name": "sgRouter",
      "outputs": [
        {
          "internalType": "contract IStargateRouter",
          "name": "",
          "type": "address"
        }
      ],
      "stateMutability": "view",
      "type": "function"
    },
    {
      "inputs": [],
      "name": "slippage",
      "outputs": [
        {
          "internalType": "uint256",
          "name": "",
          "type": "uint256"
        }
      ],
      "stateMutability": "view",
      "type": "function"
    },
    {
      "inputs": [],
      "name": "strategist",
      "outputs": [
        {
          "internalType": "address",
          "name": "",
          "type": "address"
        }
      ],
      "stateMutability": "view",
      "type": "function"
    },
    {
      "inputs": [],
      "name": "strategistSignMessageHash",
      "outputs": [
        {
          "internalType": "bytes32",
          "name": "",
          "type": "bytes32"
        }
      ],
      "stateMutability": "view",
      "type": "function"
    },
    {
      "inputs": [
        {
          "internalType": "contract IERC20",
          "name": "_token",
          "type": "address"
        }
      ],
      "name": "sweepToken",
      "outputs": [],
      "stateMutability": "nonpayable",
      "type": "function"
    },
    {
      "inputs": [
        {
          "internalType": "address",
          "name": "newOwner",
          "type": "address"
        }
      ],
      "name": "transferOwnership",
      "outputs": [],
      "stateMutability": "nonpayable",
      "type": "function"
    },
    {
      "inputs": [
        {
          "internalType": "uint16",
          "name": "",
          "type": "uint16"
        }
      ],
      "name": "trustedRemoteLookup",
      "outputs": [
        {
          "internalType": "bytes",
          "name": "",
          "type": "bytes"
        }
      ],
      "stateMutability": "view",
      "type": "function"
    },
    {
      "inputs": [
        {
          "internalType": "uint256",
          "name": "_usdrLpAmount",
          "type": "uint256"
        }
      ],
      "name": "usdrLpToWant",
      "outputs": [
        {
          "internalType": "uint256",
          "name": "",
          "type": "uint256"
        }
      ],
      "stateMutability": "view",
      "type": "function"
    },
    {
      "inputs": [],
      "name": "usdrToUsdcRate",
      "outputs": [
        {
          "internalType": "uint256",
          "name": "",
          "type": "uint256"
        }
      ],
      "stateMutability": "view",
      "type": "function"
    },
    {
      "inputs": [
        {
          "internalType": "uint256",
          "name": "_usdrAmount",
          "type": "uint256"
        }
      ],
      "name": "usdrToWant",
      "outputs": [
        {
          "internalType": "uint256",
          "name": "",
          "type": "uint256"
        }
      ],
      "stateMutability": "view",
      "type": "function"
    },
    {
      "inputs": [],
      "name": "vault",
      "outputs": [
        {
          "internalType": "address",
          "name": "",
          "type": "address"
        }
      ],
      "stateMutability": "view",
      "type": "function"
    },
    {
      "inputs": [],
      "name": "vaultChainId",
      "outputs": [
        {
          "internalType": "uint16",
          "name": "",
          "type": "uint16"
        }
      ],
      "stateMutability": "view",
      "type": "function"
    },
    {
      "inputs": [],
      "name": "want",
      "outputs": [
        {
          "internalType": "contract IERC20",
          "name": "",
          "type": "address"
        }
      ],
      "stateMutability": "view",
      "type": "function"
    },
    {
      "inputs": [],
      "name": "wantDecimals",
      "outputs": [
        {
          "internalType": "uint8",
          "name": "",
          "type": "uint8"
        }
      ],
      "stateMutability": "view",
      "type": "function"
    },
    {
      "inputs": [
        {
          "internalType": "uint256",
          "name": "_wantAmount",
          "type": "uint256"
        }
      ],
      "name": "wantToUsdrLp",
      "outputs": [
        {
          "internalType": "uint256",
          "name": "",
          "type": "uint256"
        }
      ],
      "stateMutability": "view",
      "type": "function"
    },
    {
      "stateMutability": "payable",
      "type": "receive"
    }
  ],
  "bytecode": "0x608060405234801561001057600080fd5b50615e2880620000216000396000f3fe60806040526004361061029f5760003560e01c80621d3567146102ab5780630517cb76146102cd57806306fdde031461030357806307e0db17146103425780630df374831461036257806310ddb137146103825780631be19560146103a25780631cdb539f146103c25780631f1fcd51146103e25780631fe4a686146104025780632d6068431461042257806337fded91146104375780633d3ccc2f1461045c5780633d8b38f61461047c5780633e032a3b146104ac5780633eae1112146104d05780633f1f4fa4146104f057806342d65a8d1461051d57806345ee07551461053d578063495f881e1461055d5780635641ec031461057d578063567ad85d14610597578063593178de146105cc5780635b8c41e6146105e157806366ad5c8a146106305780636cbadbfa14610650578063715018a6146106725780637533d788146106875780638cfd8f5c146106a75780638da5cb5b146106df5780638f4508d0146106f4578063950c8a74146107095780639589c990146107295780639606647d146107495780639f38369a1461075e578063a6c3d1651461077e578063a87985101461079e578063a9e50824146107b4578063ab8236f3146107d4578063adf076e6146107f4578063b353aaa714610827578063baf3292d14610847578063bd79ac1314610867578063c1a3d44c14610887578063c44618341461089c578063ca2e2835146108b2578063cbed8b9c146108c7578063d1deba1f146108e7578063d56739ac146108fa578063df2a5b3b1461090f578063e73620c31461092f578063eb8d72b71461094f578063efbb5cb01461096f578063f0fa55a914610984578063f2fde38b146109a4578063f5ecbdbc146109c4578063fa540801146109e4578063fbfa77cf14610a04578063fcb988a414610a2457600080fd5b366102a657005b600080fd5b3480156102b757600080fd5b506102cb6102c6366004614ad2565b610a44565b005b3480156102d957600080fd5b5060ce546102ed906001600160a01b031681565b6040516102fa9190614b65565b60405180910390f35b34801561030f57600080fd5b5060408051808201909152600d81526c506561726c537472617465677960981b60208201525b6040516102fa9190614bc9565b34801561034e57600080fd5b506102cb61035d366004614bdc565b610b2d565b34801561036e57600080fd5b506102cb61037d366004614bf7565b610b9a565b34801561038e57600080fd5b506102cb61039d366004614bdc565b610bb9565b3480156103ae57600080fd5b506102cb6103bd366004614c36565b610bf5565b3480156103ce57600080fd5b506102cb6103dd366004614c53565b610c82565b3480156103ee57600080fd5b5060ca546102ed906001600160a01b031681565b34801561040e57600080fd5b5060c9546102ed906001600160a01b031681565b34801561042e57600080fd5b506102cb610ee6565b34801561044357600080fd5b5060cd546102ed9061010090046001600160a01b031681565b34801561046857600080fd5b506102cb610477366004614d05565b610f27565b34801561048857600080fd5b5061049c610497366004614d1e565b610f5d565b60405190151581526020016102fa565b3480156104b857600080fd5b506104c260cc5481565b6040519081526020016102fa565b3480156104dc57600080fd5b506104c26104eb366004614d05565b61102a565b3480156104fc57600080fd5b506104c261050b366004614bdc565b60686020526000908152604090205481565b34801561052957600080fd5b506102cb610538366004614d1e565b6110b8565b34801561054957600080fd5b506102cb610558366004614d7e565b61112b565b34801561056957600080fd5b506102cb610578366004614e86565b611146565b34801561058957600080fd5b5060cd5461049c9060ff1681565b3480156105a357600080fd5b5060cb546105b990600160a01b900461ffff1681565b60405161ffff90911681526020016102fa565b3480156105d857600080fd5b506104c26113ea565b3480156105ed57600080fd5b506104c26105fc366004614ee9565b6097602090815260009384526040808520845180860184018051928152908401958401959095209452929052825290205481565b34801561063c57600080fd5b506102cb61064b366004614ad2565b611448565b34801561065c57600080fd5b5060cb546105b990600160b01b900461ffff1681565b34801561067e57600080fd5b506102cb61151c565b34801561069357600080fd5b506103356106a2366004614bdc565b611530565b3480156106b357600080fd5b506104c26106c2366004614f46565b606760209081526000928352604080842090915290825290205481565b3480156106eb57600080fd5b506102ed6115ca565b34801561070057600080fd5b506104c26115d9565b34801561071557600080fd5b506069546102ed906001600160a01b031681565b34801561073557600080fd5b506104c2610744366004614d05565b611653565b34801561075557600080fd5b506102cb6116eb565b34801561076a57600080fd5b50610335610779366004614bdc565b61177e565b34801561078a57600080fd5b506102cb610799366004614d1e565b61188d565b3480156107aa57600080fd5b506104c261264881565b3480156107c057600080fd5b506104c26107cf366004614d05565b611916565b3480156107e057600080fd5b506102cb6107ef366004614f79565b6119cf565b34801561080057600080fd5b5060cb5461081590600160c01b900460ff1681565b60405160ff90911681526020016102fa565b34801561083357600080fd5b506065546102ed906001600160a01b031681565b34801561085357600080fd5b506102cb610862366004614c36565b611aef565b34801561087357600080fd5b506104c2610882366004614d05565b611b42565b34801561089357600080fd5b506104c2611b9a565b3480156108a857600080fd5b506104c261271081565b3480156108be57600080fd5b506104c2611bcb565b3480156108d357600080fd5b506102cb6108e2366004615013565b611caf565b6102cb6108f5366004614ad2565b611d1d565b34801561090657600080fd5b506104c2611f33565b34801561091b57600080fd5b506102cb61092a366004615081565b611f65565b34801561093b57600080fd5b506102cb61094a366004614d05565b612017565b34801561095b57600080fd5b506102cb61096a366004614d1e565b612037565b34801561097b57600080fd5b506104c2612091565b34801561099057600080fd5b506102cb61099f366004614d05565b6121ab565b3480156109b057600080fd5b506102cb6109bf366004614c36565b6121b8565b3480156109d057600080fd5b506103356109df3660046150bd565b61222e565b3480156109f057600080fd5b506104c26109ff366004614d05565b6122c1565b348015610a1057600080fd5b5060cb546102ed906001600160a01b031681565b348015610a3057600080fd5b506104c2610a3f366004614d05565b612313565b6065546001600160a01b03163314610aaf5760405162461bcd60e51b815260206004820152602360248201527f4261736553747261746567793a3a496e76616c6964456e64706f696e7443616c6044820152623632b960e91b60648201526084015b60405180910390fd5b610b258686868080601f01602080910402602001604051908101604052809392919081815260200183838082843760009201919091525050604080516020601f8901819004810282018101909252878152899350915087908790819084018382808284376000920191909152506123bb92505050565b505050505050565b610b35612434565b6065546040516307e0db1760e01b815261ffff831660048201526001600160a01b03909116906307e0db17906024015b600060405180830381600087803b158015610b7f57600080fd5b505af1158015610b93573d6000803e3d6000fd5b5050505050565b610ba2612434565b61ffff909116600090815260686020526040902055565b610bc1612434565b6065546040516310ddb13760e01b815261ffff831660048201526001600160a01b03909116906310ddb13790602401610b65565b610bfd612493565b610c7f33826001600160a01b03166370a08231306040518263ffffffff1660e01b8152600401610c2d9190614b65565b602060405180830381865afa158015610c4a573d6000803e3d6000fd5b505050506040513d601f19601f82011682018060405250810190610c6e919061510a565b6001600160a01b03841691906124ec565b50565b600054610100900460ff1615808015610ca25750600054600160ff909116105b80610cc35750610cb130612547565b158015610cc3575060005460ff166001145b610d265760405162461bcd60e51b815260206004820152602e60248201527f496e697469616c697a61626c653a20636f6e747261637420697320616c72656160448201526d191e481a5b9a5d1a585b1a5e995960921b6064820152608401610aa6565b6000805460ff191660011790558015610d49576000805461ff0019166101001790555b610d5c8989898989898989612648612556565b60ca54610d89906001600160a01b03167368b3465833fb72a70ecdf485e0e4c7bd8665fc45600019612735565b60ca54610db0906001600160a01b0316600080516020615d53833981519152600019612735565b610dd9600080516020615db3833981519152600080516020615d53833981519152600019612735565b610e0873d17cb0f162f133e339c0bbfc18c36c357e681d6b600080516020615d73833981519152600019612735565b610e3773d17cb0f162f133e339c0bbfc18c36c357e681d6b600080516020615d53833981519152600019612735565b610e6c738f3cf7ad23cd3cadbd9735aff958023239c6a06373195f7b233947d51f4c3b756ad41a5ddb34cebce0600019612735565b610e95600080516020615d93833981519152600080516020615d53833981519152600019612735565b8015610edb576000805461ff0019169055604051600181527f7f26b83ff96e1f2b6a682f133852f6798a09c465da95921460cefb38474024989060200160405180910390a15b505050505050505050565b610eee612493565b60c9546040516001600160a01b03909116904780156108fc02916000818181858888f19350505050158015610c7f573d6000803e3d6000fd5b610f2f612493565b610f3881612839565b604051818152600080516020615dd3833981519152906020015b60405180910390a150565b61ffff831660009081526066602052604081208054829190610f7e90615123565b80601f0160208091040260200160405190810160405280929190818152602001828054610faa90615123565b8015610ff75780601f10610fcc57610100808354040283529160200191610ff7565b820191906000526020600020905b815481529060010190602001808311610fda57829003601f168201915b50505050509050838360405161100e92919061515d565b60405180910390208180519060200120149150505b9392505050565b60006110b282600080516020615db38339815191526001600160a01b031663313ce5676040518163ffffffff1660e01b8152600401602060405180830381865afa15801561107c573d6000803e3d6000fd5b505050506040513d601f19601f820116820180604052508101906110a0919061516d565b60cb54600160c01b900460ff16612f56565b92915050565b6110c0612434565b6065546040516342d65a8d60e01b81526001600160a01b03909116906342d65a8d906110f4908690869086906004016151b9565b600060405180830381600087803b15801561110e57600080fd5b505af1158015611122573d6000803e3d6000fd5b50505050505050565b611133612493565b60cd805460ff1916911515919091179055565b61114e612493565b61115781612fab565b60cd546000908190819060ff16156112035784156111b75760405162461bcd60e51b815260206004820152601e60248201527f4261736553747261746567793a3a44656274526174696f4e6f745a65726f00006044820152606401610aa6565b60006111c1613031565b9050878110156111dc576111d581896151ed565b92506111f1565b878111156111f1576111ee88826151ed565b93505b6111fb83896151ed565b915050611215565b61120d8888613073565b919450925090505b60006112218285615200565b90506000808883101561124357611238838a6151ed565b915060009050611254565b6000915061125189846151ed565b90505b6000604051806101600160405280306001600160a01b031681526020014281526020018881526020018781526020018681526020018481526020018381526020018b8152602001836112a4612091565b6112ae91906151ed565b815260200160d060008154809291906112c690615213565b909155508152602001899052905081156113265760cb5460405161132191849161ffff600160a01b830416916001600160a01b03169061130d906002908790602001615264565b60405160208183030381529060405261316a565b611351565b61135160028260405160200161133d929190615264565b604051602081830303815290604052613258565b7fb983e09c034e9c52b5e547cb0589967992b97717733f580cc5ad0afcdc4b522b8160400151826060015183608001518460a001518560c001518660e001518761010001516040516113d49796959493929190968752602087019590955260408601939093526060850191909152608084015260a083015260c082015260e00190565b60405180910390a1505050505050505050505050565b60d05460cb546040513060601b6001600160601b03191660208201526034810192909252600160b01b900460f01b6001600160f01b031916605482015260009060560160405160208183030381529060405280519060200120905090565b3330146114a65760405162461bcd60e51b815260206004820152602660248201527f4e6f6e626c6f636b696e674c7a4170703a2063616c6c6572206d7573742062656044820152650204c7a4170760d41b6064820152608401610aa6565b610b258686868080601f01602080910402602001604051908101604052809392919081815260200183838082843760009201919091525050604080516020601f8901819004810282018101909252878152899350915087908790819084018382808284376000920191909152506133d892505050565b611524612434565b61152e60006134ee565b565b6066602052600090815260409020805461154990615123565b80601f016020809104026020016040519081016040528092919081815260200182805461157590615123565b80156115c25780601f10611597576101008083540402835291602001916115c2565b820191906000526020600020905b8154815290600101906020018083116115a557829003601f168201915b505050505081565b6033546001600160a01b031690565b6040516370a0823160e01b8152600090600080516020615d73833981519152906370a082319061160d903090600401614b65565b602060405180830381865afa15801561162a573d6000803e3d6000fd5b505050506040513d601f19601f8201168201806040525081019061164e919061510a565b905090565b6040516328bd9fc160e11b8152600090819073f68c20d6c50706f6c6bd8ee184382518c93b368c9063517b3f829061169f90600080516020615d9383398151915290879060040161530f565b602060405180830381865afa1580156116bc573d6000803e3d6000fd5b505050506040513d601f19601f820116820180604052508101906116e0919061510a565b90506110238161102a565b6116f3612493565b60ca546040516370a0823160e01b815261152e916001916001600160a01b03909116906370a082319061172a903090600401614b65565b602060405180830381865afa158015611747573d6000803e3d6000fd5b505050506040513d601f19601f8201168201806040525081019061176b919061510a565b60ca546001600160a01b031691906124ec565b61ffff81166000908152606660205260408120805460609291906117a190615123565b80601f01602080910402602001604051908101604052809291908181526020018280546117cd90615123565b801561181a5780601f106117ef5761010080835404028352916020019161181a565b820191906000526020600020905b8154815290600101906020018083116117fd57829003601f168201915b5050505050905080516000036118725760405162461bcd60e51b815260206004820152601d60248201527f4c7a4170703a206e6f20747275737465642070617468207265636f72640000006044820152606401610aa6565b61102360006014835161188591906151ed565b839190613540565b611895612434565b8181306040516020016118aa93929190615328565b60408051601f1981840301815291815261ffff85166000908152606660205220906118d590826153a4565b507f8c0400cfe2d1199b1a725c78960bcc2a344d869b80590d0f2bd005db15a572ce838383604051611909939291906151b9565b60405180910390a1505050565b60ca546040516310e1b98f60e21b815260009182918291600080516020615d5383398151915291634386e63c91611970916001600160a01b0390911690600080516020615db3833981519152906001908a9060040161545d565b6040805180830381865afa15801561198c573d6000803e3d6000fd5b505050506040513d601f19601f820116820180604052508101906119b09190615488565b915091506119bd8161102a565b6119c79083615200565b949350505050565b60ce546001600160a01b03163314806119f7575060cd5461010090046001600160a01b031633145b611a425760405162461bcd60e51b815260206004820152601c60248201527b53674272696467653a3a526f757465724f724272696467654f6e6c7960201b6044820152606401610aa6565b60cb546000906001600160a01b03163314611a9457611a648660006014613540565b604051602001611a7491906154ac565b604051602081830303815290604052611a8c906154c8565b60601c611aa1565b60cb546001600160a01b03165b9050836001600160a01b03167f92073a89a07a000083eb8b2575fc15e7bb936efe55d00727d6942a796d7211a78483604051611ade9291906154ff565b60405180910390a250505050505050565b611af7612434565b606980546001600160a01b0319166001600160a01b0383161790556040517f5db758e995a17ec1ad84bdef7e8c3293a0bd6179bcce400dff5d4c3d87db726b90610f52908390614b65565b60006110b282738f3cf7ad23cd3cadbd9735aff958023239c6a0636001600160a01b031663313ce5676040518163ffffffff1660e01b8152600401602060405180830381865afa15801561107c573d6000803e3d6000fd5b60ca546040516370a0823160e01b81526000916001600160a01b0316906370a082319061160d903090600401614b65565b600080600073d17cb0f162f133e339c0bbfc18c36c357e681d6b6001600160a01b0316630902f1ac6040518163ffffffff1660e01b8152600401606060405180830381865afa158015611c22573d6000803e3d6000fd5b505050506040513d601f19601f82011682018060405250810190611c469190615516565b5060ca549193509150600090611c76908390600080516020615db3833981519152906001600160a01b031661364d565b60cb549091508190611c9390600160c01b900460ff16600a615628565b611c9d9085615637565b611ca7919061564e565b935050505090565b611cb7612434565b6065546040516332fb62e760e21b81526001600160a01b039091169063cbed8b9c90611cef9088908890889088908890600401615670565b600060405180830381600087803b158015611d0957600080fd5b505af1158015610edb573d6000803e3d6000fd5b61ffff86166000908152609760205260408082209051611d40908890889061515d565b90815260408051602092819003830190206001600160401b03871660009081529252902054905080611dc05760405162461bcd60e51b815260206004820152602360248201527f4e6f6e626c6f636b696e674c7a4170703a206e6f2073746f726564206d65737360448201526261676560e81b6064820152608401610aa6565b808383604051611dd192919061515d565b604051809103902014611e305760405162461bcd60e51b815260206004820152602160248201527f4e6f6e626c6f636b696e674c7a4170703a20696e76616c6964207061796c6f616044820152601960fa1b6064820152608401610aa6565b61ffff87166000908152609760205260408082209051611e53908990899061515d565b90815260408051602092819003830181206001600160401b038916600090815290845282902093909355601f88018290048202830182019052868252611eeb918991899089908190840183828082843760009201919091525050604080516020601f8a018190048102820181019092528881528a9350915088908890819084018382808284376000920191909152506133d892505050565b7fc264d91f3adc5588250e1551f547752ca0cfa8f6b530d243b9f9f4cab10ea8e58787878785604051611f2295949392919061569e565b60405180910390a150505050505050565b6040516246613160e11b8152600090600080516020615d7383398151915290628cc2629061160d903090600401614b65565b611f6d612434565b60008111611fb55760405162461bcd60e51b81526020600482015260156024820152744c7a4170703a20696e76616c6964206d696e47617360581b6044820152606401610aa6565b61ffff83811660008181526067602090815260408083209487168084529482529182902085905581519283528201929092529081018290527f9d5c7c0b934da8fefa9c7760c98383778a12dfbfc0c3b3106518f43fb9508ac090606001611909565b61201f612434565b600090815260cf60205260409020805460ff19169055565b61203f612434565b61ffff8316600090815260666020526040902061205d8284836156d9565b507ffa41487ad5d6728f0b19276fa1eddc16558578f5109fc39d2dc33c3230470dab838383604051611909939291906151b9565b600061209e6107cf6115d9565b6040516370a0823160e01b815261212690600080516020615d93833981519152906370a08231906120d3903090600401614b65565b602060405180830381865afa1580156120f0573d6000803e3d6000fd5b505050506040513d601f19601f82011682018060405250810190612114919061510a565b61211c611f33565b6107449190615200565b60ca546040516370a0823160e01b81526001600160a01b03909116906370a0823190612156903090600401614b65565b602060405180830381865afa158015612173573d6000803e3d6000fd5b505050506040513d601f19601f82011682018060405250810190612197919061510a565b6121a19190615200565b61164e9190615200565b6121b3612493565b60cc55565b6121c0612434565b6001600160a01b0381166122255760405162461bcd60e51b815260206004820152602660248201527f4f776e61626c653a206e6577206f776e657220697320746865207a65726f206160448201526564647265737360d01b6064820152608401610aa6565b610c7f816134ee565b606554604051633d7b2f6f60e21b815261ffff808716600483015285166024820152306044820152606481018390526060916001600160a01b03169063f5ecbdbc90608401600060405180830381865afa158015612290573d6000803e3d6000fd5b505050506040513d6000823e601f3d908101601f191682016040526122b89190810190615792565b95945050505050565b6040517b0ca2ba3432b932bab69029b4b3b732b21026b2b9b9b0b3b29d05199960211b6020820152603c8101829052600090605c01604051602081830303815290604052805190602001209050919050565b60ca546040516326283ecf60e21b81526000918291600080516020615d53833981519152916398a0fb3c9161236d916001600160a01b031690600080516020615db3833981519152906001908990600019906004016157ff565b606060405180830381865afa15801561238a573d6000803e3d6000fd5b505050506040513d601f19601f820116820180604052508101906123ae9190615516565b9250505061102381611916565b60008061241e5a60966366ad5c8a60e01b898989896040516024016123e39493929190615830565b60408051601f198184030181529190526020810180516001600160e01b03166001600160e01b0319909316929092179091523092919061372f565b9150915081610b2557610b2586868686856137bb565b3361243d6115ca565b6001600160a01b03161461152e5760405162461bcd60e51b815260206004820181905260248201527f4f776e61626c653a2063616c6c6572206973206e6f7420746865206f776e65726044820152606401610aa6565b60c9546001600160a01b0316331461152e5760405162461bcd60e51b815260206004820152601c60248201527b10985cd954dd1c985d1959de4e8e93db9b1e54dd1c985d1959da5cdd60221b6044820152606401610aa6565b6125428363a9059cbb60e01b848460405160240161250b92919061530f565b60408051601f198184030181529190526020810180516001600160e01b03166001600160e01b031990931692909217909152613858565b505050565b6001600160a01b03163b151590565b600054610100900460ff1661257d5760405162461bcd60e51b8152600401610aa69061586e565b6125868961392d565b60c980546001600160a01b03808b166001600160a01b03199283161790925560ca80548a8416908316811790915560cb8054938a1661ffff8a16600160a01b029093166001600160b01b0319909416939093179190911790915560cc8290556040805163313ce56760e01b8152905163313ce567916004808201926020929091908290030181865afa158015612620573d6000803e3d6000fd5b505050506040513d601f19601f82011682018060405250810190612644919061516d565b60cb8054600060d05562ffffff60b01b1916600160c01b60ff939093169290920261ffff60b01b191691909117600160b01b61ffff87160217905560cd8054610100600160a81b0319166101006001600160a01b03868116919091029190911790915560ce80546001600160a01b03191684831617905560ca5460405163095ea7b360e01b815291169063095ea7b3906126e69086906000199060040161530f565b6020604051808303816000875af1158015612705573d6000803e3d6000fd5b505050506040513d601f19601f8201168201806040525081019061272991906158b9565b50505050505050505050565b8015806127af5750604051636eb1769f60e11b81523060048201526001600160a01b03838116602483015284169063dd62ed3e90604401602060405180830381865afa158015612789573d6000803e3d6000fd5b505050506040513d601f19601f820116820180604052508101906127ad919061510a565b155b61281a5760405162461bcd60e51b815260206004820152603660248201527f5361666545524332303a20617070726f76652066726f6d206e6f6e2d7a65726f60448201527520746f206e6f6e2d7a65726f20616c6c6f77616e636560501b6064820152608401610aa6565b6125428363095ea7b360e01b848460405160240161250b92919061530f565b600080516020615d738339815191526001600160a01b0316633d18b9126040518163ffffffff1660e01b8152600401600060405180830381600087803b15801561288257600080fd5b505af1158015612896573d6000803e3d6000fd5b50506040516370a0823160e01b81526129159250600080516020615d9383398151915291506370a08231906128cf903090600401614b65565b602060405180830381865afa1580156128ec573d6000803e3d6000fd5b505050506040513d601f19601f82011682018060405250810190612910919061510a565b613965565b60ca546040516370a0823160e01b81526000916001600160a01b0316906370a0823190612946903090600401614b65565b602060405180830381865afa158015612963573d6000803e3d6000fd5b505050506040513d601f19601f82011682018060405250810190612987919061510a565b905081811115612b3c57600061299d83836151ed565b905060006129ac60028361564e565b90506000612a3f8260cb60189054906101000a900460ff16738f3cf7ad23cd3cadbd9735aff958023239c6a0636001600160a01b031663313ce5676040518163ffffffff1660e01b8152600401602060405180830381865afa158015612a16573d6000803e3d6000fd5b505050506040513d601f19601f82011682018060405250810190612a3a919061516d565b612f56565b6040805160808101825260ca546001600160601b0319606091821b1660a0830152601960ea1b60b4830152738f3cf7ad23cd3cadbd9735aff958023239c6a06360601b60b7830152825160ab81840301815260cb830184528252306020830152918101859052919250600091908101612ab784613afe565b905260405163b858183f60e01b81529091507368b3465833fb72a70ecdf485e0e4c7bd8665fc459063b858183f90612af39084906004016158d6565b6020604051808303816000875af1158015612b12573d6000803e3d6000fd5b505050506040513d601f19601f82011682018060405250810190612b36919061510a565b50505050505b6040516370a0823160e01b8152600090738f3cf7ad23cd3cadbd9735aff958023239c6a063906370a0823190612b76903090600401614b65565b602060405180830381865afa158015612b93573d6000803e3d6000fd5b505050506040513d601f19601f82011682018060405250810190612bb7919061510a565b90508015612c3d5760405163a39fc2c560e01b815273195f7b233947d51f4c3b756ad41a5ddb34cebce09063a39fc2c590612bf890849030906004016154ff565b6020604051808303816000875af1158015612c17573d6000803e3d6000fd5b505050506040513d601f19601f82011682018060405250810190612c3b919061510a565b505b6040516370a0823160e01b8152600090600080516020615db3833981519152906370a0823190612c71903090600401614b65565b602060405180830381865afa158015612c8e573d6000803e3d6000fd5b505050506040513d601f19601f82011682018060405250810190612cb2919061510a565b60ca546040516370a0823160e01b81529192506001600160a01b0316906370a0823190612ce3903090600401614b65565b602060405180830381865afa158015612d00573d6000803e3d6000fd5b505050506040513d601f19601f82011682018060405250810190612d24919061510a565b9250600081118015612d365750600083115b15612ea15760ca546040516326283ecf60e21b81526000918291600080516020615d53833981519152916398a0fb3c91612d93916001600160a01b031690600080516020615db3833981519152906001908b908a906004016157ff565b606060405180830381865afa158015612db0573d6000803e3d6000fd5b505050506040513d601f19601f82011682018060405250810190612dd49190615516565b5060ca54604051635a47ddc360e01b81526001600160a01b039091166004820152600080516020615db38339815191526024820152600160448201819052606482018490526084820183905260a4820181905260c48201523060e4820152426101048201529193509150600080516020615d5383398151915290635a47ddc390610124016060604051808303816000875af1158015612e77573d6000803e3d6000fd5b505050506040513d601f19601f82011682018060405250810190612e9b9190615516565b50505050505b6040516370a0823160e01b815260009073d17cb0f162f133e339c0bbfc18c36c357e681d6b906370a0823190612edb903090600401614b65565b602060405180830381865afa158015612ef8573d6000803e3d6000fd5b505050506040513d601f19601f82011682018060405250810190612f1c919061510a565b90508015610b935760405163b6b55f2560e01b815260048101829052600080516020615d738339815191529063b6b55f2590602401611cef565b60008260ff168260ff161115612f8c57612f708383615924565b612f7b90600a615628565b612f859085615637565b9050611023565b612f968284615924565b612fa190600a615628565b612f85908561564e565b6000612fb56113ea565b90506000612fc2826122c1565b60c9549091506001600160a01b0316612fdb8285613b1b565b6001600160a01b0316146125425760405162461bcd60e51b815260206004820152601e60248201527f4261736553747261746567793a3a496e76616c69645369676e617475726500006044820152606401610aa6565b600061304361303e6115d9565b613b3f565b60ca546040516370a0823160e01b81526001600160a01b03909116906370a082319061160d903090600401614b65565b600080600080613081612091565b905085811061309f5761309486826151ed565b9350600092506130b0565b600093506130ad81876151ed565b92505b6130c26130bd8587615200565b613e33565b505060ca546040516370a0823160e01b81526000916001600160a01b0316906370a08231906130f5903090600401614b65565b602060405180830381865afa158015613112573d6000803e3d6000fd5b505050506040513d601f19601f82011682018060405250810190613136919061510a565b905084811161314b5780945060009250613161565b61315e61315886836151ed565b87613f68565b92505b50509250925092565b60cd54604051630dc6346160e01b815260009161010090046001600160a01b031690630dc63461906131a49087908790879060040161593d565b602060405180830381865afa1580156131c1573d6000803e3d6000fd5b505050506040513d601f19601f820116820180604052508101906131e5919061510a565b60cd5460ca54604051633920455b60e11b81529293506001600160a01b036101009092048216926372408ab692859261322b929116908a908a908a908a9060040161596b565b6000604051808303818588803b15801561324457600080fd5b505af1158015612729573d6000803e3d6000fd5b60cb5460408051606083811b6001600160601b03199081166020840152309182901b16603483015282516028818403018152604890920190925260655490926000926001600160a01b03909216916340a7bb109161ffff600160a01b909104169086856132c3613f7e565b6040518663ffffffff1660e01b81526004016132e39594939291906159a8565b6040805180830381865afa1580156132ff573d6000803e3d6000fd5b505050506040513d601f19601f820116820180604052508101906133239190615488565b5090508047101561334f5760405162fae2d560e21b815260048101829052476024820152604401610aa6565b60655460cb546001600160a01b039091169063c5803100908390600160a01b900461ffff1685873080613380613f7e565b6040518863ffffffff1660e01b81526004016133a1969594939291906159fc565b6000604051808303818588803b1580156133ba57600080fd5b505af11580156133ce573d6000803e3d6000fd5b5050505050505050565b60cb5461ffff858116600160a01b90920416146134425760405162461bcd60e51b815260206004820152602260248201527f4261736553747261746567793a3a5661756c74436861696e49644d69736d61746044820152610c6d60f31b6064820152608401610aa6565b600061345084826014613540565b60405160200161346091906154ac565b604051602081830303815290604052613478906154c8565b60cb5460609190911c91506001600160a01b031681146134e55760405162461bcd60e51b815260206004820152602260248201527f4261736553747261746567793a3a5661756c74416464726573734d69736d61746044820152610c6d60f31b6064820152608401610aa6565b610b9382613fae565b603380546001600160a01b038381166001600160a01b0319831681179093556040519116919082907f8be0079c531659141344cd1fd0a4f28419497f9722a3daafe3b4186f6b6457e090600090a35050565b60608161354e81601f615200565b101561358d5760405162461bcd60e51b815260206004820152600e60248201526d736c6963655f6f766572666c6f7760901b6044820152606401610aa6565b6135978284615200565b845110156135db5760405162461bcd60e51b8152602060048201526011602482015270736c6963655f6f75744f66426f756e647360781b6044820152606401610aa6565b6060821580156135fa5760405191506000825260208201604052613644565b6040519150601f8416801560200281840101858101878315602002848b0101015b8183101561363357805183526020928301920161361b565b5050858452601f01601f1916604052505b50949350505050565b600080836001600160a01b031663313ce5676040518163ffffffff1660e01b8152600401602060405180830381865afa15801561368e573d6000803e3d6000fd5b505050506040513d601f19601f820116820180604052508101906136b2919061516d565b90506000836001600160a01b031663313ce5676040518163ffffffff1660e01b8152600401602060405180830381865afa1580156136f4573d6000803e3d6000fd5b505050506040513d601f19601f82011682018060405250810190613718919061516d565b9050613725868383612f56565b9695505050505050565b6000606060008060008661ffff166001600160401b0381111561375457613754614d9b565b6040519080825280601f01601f19166020018201604052801561377e576020820181803683370190505b50905060008087516020890160008d8df191503d9250868311156137a0578692505b828152826000602083013e9093509150505b94509492505050565b8180519060200120609760008761ffff1661ffff168152602001908152602001600020856040516137ec91906154ac565b9081526040805191829003602090810183206001600160401b0388166000908152915220919091557fe183f33de2837795525b4792ca4cd60535bd77c53b7e7030060bfcf5734d6b0c906138499087908790879087908790615a63565b60405180910390a15050505050565b60006138ad826040518060400160405280602081526020017f5361666545524332303a206c6f772d6c6576656c2063616c6c206661696c6564815250856001600160a01b03166140db9092919063ffffffff16565b90508051600014806138ce5750808060200190518101906138ce91906158b9565b6125425760405162461bcd60e51b815260206004820152602a60248201527f5361666545524332303a204552433230206f7065726174696f6e20646964206e6044820152691bdd081cdd58d8d9595960b21b6064820152608401610aa6565b600054610100900460ff166139545760405162461bcd60e51b8152600401610aa69061586e565b61395c6140ea565b610c7f8161411a565b806000036139705750565b60408051600280825260608201909252600091816020015b604080516060810182526000808252602080830182905292820152825260001990920191018161398857505060408051606081018252600080516020615d938339815191528152600080516020615db383398151915260208201526000918101829052825192935091839190613a0057613a00615ab5565b60209081029190910181019190915260408051606081018252600080516020615db3833981519152815260ca546001600160a01b031692810192909252600190820181905282518391908110613a5857613a58615ab5565b60200260200101819052506000613a6e83611653565b9050600080516020615d5383398151915263f41766d884613a8e84613afe565b8530426040518663ffffffff1660e01b8152600401613ab1959493929190615acb565b6000604051808303816000875af1158015613ad0573d6000803e3d6000fd5b505050506040513d6000823e601f3d908101601f19168201604052613af89190810190615b5a565b50505050565b600061271060cc5483613b119190615637565b6110b2919061564e565b6000806000613b2a8585614163565b91509150613b37816141a8565b509392505050565b600080516020615d738339815191526001600160a01b0316633d18b9126040518163ffffffff1660e01b8152600401600060405180830381600087803b158015613b8857600080fd5b505af1158015613b9c573d6000803e3d6000fd5b50506040516370a0823160e01b8152613bd59250600080516020615d9383398151915291506370a08231906128cf903090600401614b65565b80600003613be05750565b604051632e1a7d4d60e01b815260048101829052600080516020615d7383398151915290632e1a7d4d90602401600060405180830381600087803b158015613c2757600080fd5b505af1158015613c3b573d6000803e3d6000fd5b505060ca546040516310e1b98f60e21b815260009350839250600080516020615d5383398151915291634386e63c91613c95916001600160a01b031690600080516020615db383398151915290600190899060040161545d565b6040805180830381865afa158015613cb1573d6000803e3d6000fd5b505050506040513d601f19601f82011682018060405250810190613cd59190615488565b60ca549193509150600080516020615d5383398151915290630dede6c4906001600160a01b0316600080516020615db3833981519152600187613d1788613afe565b613d2088613afe565b6040516001600160e01b031960e089901b1681526001600160a01b03968716600482015295909416602486015291151560448501526064840152608483015260a48201523060c48201524260e48201526101040160408051808303816000875af1158015613d92573d6000803e3d6000fd5b505050506040513d601f19601f82011682018060405250810190613db69190615488565b50506040516370a0823160e01b815261254290600080516020615db3833981519152906370a0823190613ded903090600401614b65565b602060405180830381865afa158015613e0a573d6000803e3d6000fd5b505050506040513d601f19601f82011682018060405250810190613e2e919061510a565b6142ed565b60ca546040516370a0823160e01b8152600091829182916001600160a01b0316906370a0823190613e68903090600401614b65565b602060405180830381865afa158015613e85573d6000803e3d6000fd5b505050506040513d601f19601f82011682018060405250810190613ea9919061510a565b9050838110613ebd57509192600092509050565b613ecf613eca82866151ed565b6143c9565b60ca546040516370a0823160e01b81526001600160a01b03909116906370a0823190613eff903090600401614b65565b602060405180830381865afa158015613f1c573d6000803e3d6000fd5b505050506040513d601f19601f82011682018060405250810190613f40919061510a565b905080841115613f5e57915081613f5781856151ed565b9150613f62565b8392505b50915091565b6000818310613f775781611023565b5090919050565b60408051600160f01b6020820152620f424060228083019190915282518083039091018152604290910190915290565b600081806020019051810190613fc49190615bf3565b90506003816004811115613fda57613fda61522c565b0361402d57600082806020019051810190613ff59190615c14565b9150506140058160000151612839565b8051604051908152600080516020615dd38339815191529060200160405180910390a1505050565b60008160048111156140415761404161522c565b036140685760008280602001905181019061405c9190615c57565b915050612542816144aa565b600481600481111561407c5761407c61522c565b036140d7576000828060200190518101906140979190615cc2565b9150506140a781600001516145d4565b80516040517f7c9a2d2ec51230d7dbed27f113a325b7e20aef7b049e68b2339257b5edff5bea9161190991614b65565b5050565b60606119c78484600085614613565b600054610100900460ff166141115760405162461bcd60e51b8152600401610aa69061586e565b61152e336134ee565b600054610100900460ff166141415760405162461bcd60e51b8152600401610aa69061586e565b606580546001600160a01b0319166001600160a01b0392909216919091179055565b60008082516041036141995760208301516040840151606085015160001a61418d878285856146ee565b945094505050506141a1565b506000905060025b9250929050565b60008160048111156141bc576141bc61522c565b036141c45750565b60018160048111156141d8576141d861522c565b036142205760405162461bcd60e51b815260206004820152601860248201527745434453413a20696e76616c6964207369676e617475726560401b6044820152606401610aa6565b60028160048111156142345761423461522c565b036142815760405162461bcd60e51b815260206004820152601f60248201527f45434453413a20696e76616c6964207369676e6174757265206c656e677468006044820152606401610aa6565b60038160048111156142955761429561522c565b03610c7f5760405162461bcd60e51b815260206004820152602260248201527f45434453413a20696e76616c6964207369676e6174757265202773272076616c604482015261756560f01b6064820152608401610aa6565b806000036142f85750565b60006143038261102a565b9050600080516020615d538339815191526313dcfc598361432384613afe565b60ca5460405160e085901b6001600160e01b031916815260048101939093526024830191909152600080516020615db383398151915260448301526001600160a01b03166064820152600160848201523060a48201524260c482015260e4016000604051808303816000875af11580156143a1573d6000803e3d6000fd5b505050506040513d6000823e601f3d908101601f191682016040526125429190810190615b5a565b806000036143d45750565b60006143e1610744611f33565b905081811061448057600080516020615d738339815191526001600160a01b0316633d18b9126040518163ffffffff1660e01b8152600401600060405180830381600087803b15801561443357600080fd5b505af1158015614447573d6000803e3d6000fd5b50506040516370a0823160e01b81526140d79250600080516020615d9383398151915291506370a08231906128cf903090600401614b65565b600061449f614492610a3f84866151ed565b61449a6115d9565b613f68565b905061254281613b3f565b602080820151600090815260cf909152604090205460ff161561450f5760405162461bcd60e51b815260206004820152601e60248201527f4261736553747261746567793a3a416c726561647957697468647261776e00006044820152606401610aa6565b60008061451f8360000151613e33565b91509150600060016040518060800160405280306001600160a01b031681526020018581526020018481526020018660200151815250604051602001614566929190615d10565b60408051601f19818403018152919052905082156145a75760cb546145a290849061ffff600160a01b820416906001600160a01b03168461316a565b6145b0565b6145b081613258565b505050602090810151600090815260cf90915260409020805460ff19166001179055565b6145dd816147a5565b60ca546040516370a0823160e01b8152610c7f9183916001600160a01b03909116906370a082319061172a903090600401614b65565b6060824710156146745760405162461bcd60e51b815260206004820152602660248201527f416464726573733a20696e73756666696369656e742062616c616e636520666f6044820152651c8818d85b1b60d21b6064820152608401610aa6565b600080866001600160a01b0316858760405161469091906154ac565b60006040518083038185875af1925050503d80600081146146cd576040519150601f19603f3d011682016040523d82523d6000602084013e6146d2565b606091505b50915091506146e3878383876149c7565b979650505050505050565b6000806fa2a8918ca85bafe22016d0b997e4df60600160ff1b0383111561471b57506000905060036137b2565b6040805160008082526020820180845289905260ff881692820192909252606081018690526080810185905260019060a0016020604051602081039080840390855afa15801561476f573d6000803e3d6000fd5b5050604051601f1901519150506001600160a01b038116614798576000600192509250506137b2565b9660009650945050505050565b600080516020615d73833981519152632e1a7d4d6147c16115d9565b6040518263ffffffff1660e01b81526004016147df91815260200190565b600060405180830381600087803b1580156147f957600080fd5b505af115801561480d573d6000803e3d6000fd5b50506040516370a0823160e01b81526148ab925083915073d17cb0f162f133e339c0bbfc18c36c357e681d6b906370a082319061484e903090600401614b65565b602060405180830381865afa15801561486b573d6000803e3d6000fd5b505050506040513d601f19601f8201168201806040525081019061488f919061510a565b73d17cb0f162f133e339c0bbfc18c36c357e681d6b91906124ec565b6040516370a0823160e01b8152614939908290600080516020615db3833981519152906370a08231906148e2903090600401614b65565b602060405180830381865afa1580156148ff573d6000803e3d6000fd5b505050506040513d601f19601f82011682018060405250810190614923919061510a565b600080516020615db383398151915291906124ec565b6040516370a0823160e01b8152610c7f908290600080516020615d93833981519152906370a0823190614970903090600401614b65565b602060405180830381865afa15801561498d573d6000803e3d6000fd5b505050506040513d601f19601f820116820180604052508101906149b1919061510a565b600080516020615d9383398151915291906124ec565b60608315614a34578251600003614a2d576149e185612547565b614a2d5760405162461bcd60e51b815260206004820152601d60248201527f416464726573733a2063616c6c20746f206e6f6e2d636f6e74726163740000006044820152606401610aa6565b50816119c7565b6119c78383815115614a495781518083602001fd5b8060405162461bcd60e51b8152600401610aa69190614bc9565b803561ffff81168114614a7557600080fd5b919050565b60008083601f840112614a8c57600080fd5b5081356001600160401b03811115614aa357600080fd5b6020830191508360208285010111156141a157600080fd5b80356001600160401b0381168114614a7557600080fd5b60008060008060008060808789031215614aeb57600080fd5b614af487614a63565b955060208701356001600160401b0380821115614b1057600080fd5b614b1c8a838b01614a7a565b9097509550859150614b3060408a01614abb565b94506060890135915080821115614b4657600080fd5b50614b5389828a01614a7a565b979a9699509497509295939492505050565b6001600160a01b0391909116815260200190565b60005b83811015614b94578181015183820152602001614b7c565b50506000910152565b60008151808452614bb5816020860160208601614b79565b601f01601f19169290920160200192915050565b6020815260006110236020830184614b9d565b600060208284031215614bee57600080fd5b61102382614a63565b60008060408385031215614c0a57600080fd5b614c1383614a63565b946020939093013593505050565b6001600160a01b0381168114610c7f57600080fd5b600060208284031215614c4857600080fd5b813561102381614c21565b600080600080600080600080610100898b031215614c7057600080fd5b8835614c7b81614c21565b97506020890135614c8b81614c21565b96506040890135614c9b81614c21565b95506060890135614cab81614c21565b9450614cb960808a01614a63565b9350614cc760a08a01614a63565b925060c0890135614cd781614c21565b915060e0890135614ce781614c21565b809150509295985092959890939650565b6001600160a01b03169052565b600060208284031215614d1757600080fd5b5035919050565b600080600060408486031215614d3357600080fd5b614d3c84614a63565b925060208401356001600160401b03811115614d5757600080fd5b614d6386828701614a7a565b9497909650939450505050565b8015158114610c7f57600080fd5b600060208284031215614d9057600080fd5b813561102381614d70565b634e487b7160e01b600052604160045260246000fd5b604051602081016001600160401b0381118282101715614dd357614dd3614d9b565b60405290565b604051601f8201601f191681016001600160401b0381118282101715614e0157614e01614d9b565b604052919050565b60006001600160401b03821115614e2257614e22614d9b565b50601f01601f191660200190565b600082601f830112614e4157600080fd5b8135614e54614e4f82614e09565b614dd9565b818152846020838601011115614e6957600080fd5b816020850160208301376000918101602001919091529392505050565b600080600080600060a08688031215614e9e57600080fd5b8535945060208601359350604086013592506060860135915060808601356001600160401b03811115614ed057600080fd5b614edc88828901614e30565b9150509295509295909350565b600080600060608486031215614efe57600080fd5b614f0784614a63565b925060208401356001600160401b03811115614f2257600080fd5b614f2e86828701614e30565b925050614f3d60408501614abb565b90509250925092565b60008060408385031215614f5957600080fd5b614f6283614a63565b9150614f7060208401614a63565b90509250929050565b60008060008060008060c08789031215614f9257600080fd5b614f9b87614a63565b955060208701356001600160401b0380821115614fb757600080fd5b614fc38a838b01614e30565b96506040890135955060608901359150614fdc82614c21565b9093506080880135925060a08801359080821115614ff957600080fd5b5061500689828a01614e30565b9150509295509295509295565b60008060008060006080868803121561502b57600080fd5b61503486614a63565b945061504260208701614a63565b93506040860135925060608601356001600160401b0381111561506457600080fd5b61507088828901614a7a565b969995985093965092949392505050565b60008060006060848603121561509657600080fd5b61509f84614a63565b92506150ad60208501614a63565b9150604084013590509250925092565b600080600080608085870312156150d357600080fd5b6150dc85614a63565b93506150ea60208601614a63565b925060408501356150fa81614c21565b9396929550929360600135925050565b60006020828403121561511c57600080fd5b5051919050565b600181811c9082168061513757607f821691505b60208210810361515757634e487b7160e01b600052602260045260246000fd5b50919050565b8183823760009101908152919050565b60006020828403121561517f57600080fd5b815160ff8116811461102357600080fd5b81835281816020850137506000828201602090810191909152601f909101601f19169091010190565b61ffff841681526040602082015260006122b8604083018486615190565b634e487b7160e01b600052601160045260246000fd5b818103818111156110b2576110b26151d7565b808201808211156110b2576110b26151d7565b600060018201615225576152256151d7565b5060010190565b634e487b7160e01b600052602160045260246000fd5b6005811061526057634e487b7160e01b600052602160045260246000fd5b9052565b61526e8184615242565b60406020820152615283604082018351614cf8565b6020820151606082015260408201516080820152606082015160a0820152608082015160c082015260a082015160e0820152600060c0830151610100818185015260e085015191506101208281860152818601519250610140915082828601528086015192505061016082818601528186015192508061018086015250506122b86101a0840182614b9d565b6001600160a01b03929092168252602082015260400190565b8284823760609190911b6001600160601b0319169101908152601401919050565b601f82111561254257600081815260208120601f850160051c810160208610156153705750805b601f850160051c820191505b81811015610b255782815560010161537c565b600019600383901b1c191660019190911b1790565b81516001600160401b038111156153bd576153bd614d9b565b6153d1816153cb8454615123565b84615349565b602080601f83116001811461540057600084156153ee5750858301515b6153f8858261538f565b865550610b25565b600085815260208120601f198616915b8281101561542f57888601518255948401946001909101908401615410565b508582101561544d5787850151600019600388901b60f8161c191681555b5050505050600190811b01905550565b6001600160a01b03948516815292909316602083015215156040820152606081019190915260800190565b6000806040838503121561549b57600080fd5b505080516020909101519092909150565b600082516154be818460208701614b79565b9190910192915050565b805160208201516001600160601b031980821692919060148310156154f75780818460140360031b1b83161693505b505050919050565b9182526001600160a01b0316602082015260400190565b60008060006060848603121561552b57600080fd5b8351925060208401519150604084015190509250925092565b600181815b8085111561557f578160001904821115615565576155656151d7565b8085161561557257918102915b93841c9390800290615549565b509250929050565b600082615596575060016110b2565b816155a3575060006110b2565b81600181146155b957600281146155c3576155df565b60019150506110b2565b60ff8411156155d4576155d46151d7565b50506001821b6110b2565b5060208310610133831016604e8410600b8410161715615602575081810a6110b2565b61560c8383615544565b8060001904821115615620576156206151d7565b029392505050565b600061102360ff841683615587565b80820281158282048414176110b2576110b26151d7565b60008261566b57634e487b7160e01b600052601260045260246000fd5b500490565b600061ffff8088168352808716602084015250846040830152608060608301526146e3608083018486615190565b61ffff861681526080602082015260006156bc608083018688615190565b6001600160401b0394909416604083015250606001529392505050565b6001600160401b038311156156f0576156f0614d9b565b615704836156fe8354615123565b83615349565b6000601f84116001811461573257600085156157205750838201355b61572a868261538f565b845550610b93565b600083815260209020601f19861690835b828110156157635786850135825560209485019460019092019101615743565b50868210156157805760001960f88860031b161c19848701351681555b505060018560011b0183555050505050565b6000602082840312156157a457600080fd5b81516001600160401b038111156157ba57600080fd5b8201601f810184136157cb57600080fd5b80516157d9614e4f82614e09565b8181528560208385010111156157ee57600080fd5b6122b8826020830160208601614b79565b6001600160a01b03958616815293909416602084015290151560408301526060820152608081019190915260a00190565b61ffff8516815260806020820152600061584d6080830186614b9d565b6001600160401b038516604084015282810360608401526146e38185614b9d565b6020808252602b908201527f496e697469616c697a61626c653a20636f6e7472616374206973206e6f74206960408201526a6e697469616c697a696e6760a81b606082015260800190565b6000602082840312156158cb57600080fd5b815161102381614d70565b6020815260008251608060208401526158f260a0840182614b9d565b905060018060a01b03602085015116604084015260408401516060840152606084015160808401528091505092915050565b60ff82811682821603908111156110b2576110b26151d7565b61ffff841681526001600160a01b03831660208201526060604082018190526000906122b890830184614b9d565b6001600160a01b0386811682526020820186905261ffff851660408301528316606082015260a0608082018190526000906146e390830184614b9d565b61ffff861681526001600160a01b038516602082015260a0604082018190526000906159d690830186614b9d565b841515606084015282810360808401526159f08185614b9d565b98975050505050505050565b61ffff8716815260c060208201526000615a1960c0830188614b9d565b8281036040840152615a2b8188614b9d565b6001600160a01b0387811660608601528616608085015283810360a08501529050615a568185614b9d565b9998505050505050505050565b61ffff8616815260a060208201526000615a8060a0830187614b9d565b6001600160401b03861660408401528281036060840152615aa18186614b9d565b905082810360808401526159f08185614b9d565b634e487b7160e01b600052603260045260246000fd5b600060a0820187835260208781850152604060a08186015282885180855260c087019150838a01945060005b81811015615b3457855180516001600160a01b03908116855286820151168685015284015115158484015294840194606090920191600101615af7565b505080945050505050615b4a6060830185614cf8565b8260808301529695505050505050565b60006020808385031215615b6d57600080fd5b82516001600160401b0380821115615b8457600080fd5b818501915085601f830112615b9857600080fd5b815181811115615baa57615baa614d9b565b8060051b9150615bbb848301614dd9565b8181529183018401918481019088841115615bd557600080fd5b938501935b838510156159f057845182529385019390850190615bda565b600060208284031215615c0557600080fd5b81516005811061102357600080fd5b6000808284036040811215615c2857600080fd5b835192506020601f1982011215615c3e57600080fd5b50615c47614db1565b6020939093015183525092909150565b6000808284036060811215615c6b57600080fd5b835192506040601f1982011215615c8157600080fd5b50604080519081016001600160401b0381118282101715615ca457615ca4614d9b565b60409081526020858101518352940151938101939093525092909150565b6000808284036040811215615cd657600080fd5b835192506020601f1982011215615cec57600080fd5b50615cf5614db1565b6020840151615d0381614c21565b8152919491935090915050565b60a08101615d1e8285615242565b60018060a01b038351166020830152602083015160408301526040830151606083015260608301516080830152939250505056fe000000000000000000000000cc25c0fd84737f44a7d38649b69491bbf0c7f08300000000000000000000000097bd59a8202f8263c2ec39cf6cf6b438d0b458760000000000000000000000007238390d5f6f64e67c3211c343a410e2a3dec14200000000000000000000000040379a439d4f6795b6fc9aa5687db461677a2dbab0c58532a125fc3c0adccaef396bf65344a4d5781cec2e4c593e6b611d75f150a2646970667358221220ef37f4bf1d452ac0f466e7174738d14226509e94b8bacae9e3a8d72410fbd0fb64736f6c63430008130033",
  "linkReferences": {},
  "deployedLinkReferences": {}
}