{
  "_format": "hh-sol-artifact-1",
  "contractName": "PearlStrategy",
  "sourceName": "contracts/strategies/PearlStrategy.sol",
  "abi": [
    {
      "inputs": [
        {
          "internalType": "uint256",
          "name": "messageType",
          "type": "uint256"
        }
      ],
      "name": "IncorrectMessageType",
      "type": "error"
    },
    {
      "inputs": [
        {
          "internalType": "uint256",
          "name": "amount",
          "type": "uint256"
        },
        {
          "internalType": "uint256",
          "name": "balance",
          "type": "uint256"
        }
      ],
      "name": "InsufficientFunds",
      "type": "error"
    },
    {
      "anonymous": false,
      "inputs": [
        {
          "indexed": false,
          "internalType": "uint256",
          "name": "debtOutstanding",
          "type": "uint256"
        }
      ],
      "name": "AdjustedPosition",
      "type": "event"
    },
    {
      "anonymous": false,
      "inputs": [
        {
          "indexed": true,
          "internalType": "bytes",
          "name": "lowLevelErrorData",
          "type": "bytes"
        }
      ],
      "name": "EmergencyQuoteOnAlternativeDEX",
      "type": "event"
    },
    {
      "anonymous": false,
      "inputs": [
        {
          "indexed": true,
          "internalType": "bytes",
          "name": "lowLevelErrorData",
          "type": "bytes"
        }
      ],
      "name": "EmergencySwapOnAlternativeDEX",
      "type": "event"
    },
    {
      "anonymous": false,
      "inputs": [
        {
          "indexed": false,
          "internalType": "uint8",
          "name": "version",
          "type": "uint8"
        }
      ],
      "name": "Initialized",
      "type": "event"
    },
    {
      "anonymous": false,
      "inputs": [
        {
          "indexed": false,
          "internalType": "uint16",
          "name": "_srcChainId",
          "type": "uint16"
        },
        {
          "indexed": false,
          "internalType": "bytes",
          "name": "_srcAddress",
          "type": "bytes"
        },
        {
          "indexed": false,
          "internalType": "uint64",
          "name": "_nonce",
          "type": "uint64"
        },
        {
          "indexed": false,
          "internalType": "bytes",
          "name": "_payload",
          "type": "bytes"
        },
        {
          "indexed": false,
          "internalType": "bytes",
          "name": "_reason",
          "type": "bytes"
        }
      ],
      "name": "MessageFailed",
      "type": "event"
    },
    {
      "anonymous": false,
      "inputs": [
        {
          "indexed": true,
          "internalType": "address",
          "name": "src",
          "type": "address"
        },
        {
          "indexed": true,
          "internalType": "address",
          "name": "dst",
          "type": "address"
        },
        {
          "indexed": true,
          "internalType": "uint256",
          "name": "amountOut",
          "type": "uint256"
        },
        {
          "indexed": false,
          "internalType": "uint256",
          "name": "amountIn",
          "type": "uint256"
        }
      ],
      "name": "Notified",
      "type": "event"
    },
    {
      "anonymous": false,
      "inputs": [
        {
          "indexed": true,
          "internalType": "address",
          "name": "previousOwner",
          "type": "address"
        },
        {
          "indexed": true,
          "internalType": "address",
          "name": "newOwner",
          "type": "address"
        }
      ],
      "name": "OwnershipTransferred",
      "type": "event"
    },
    {
      "anonymous": false,
      "inputs": [
        {
          "indexed": true,
          "internalType": "address",
          "name": "src",
          "type": "address"
        },
        {
          "indexed": true,
          "internalType": "address",
          "name": "dst",
          "type": "address"
        },
        {
          "indexed": true,
          "internalType": "uint256",
          "name": "amount",
          "type": "uint256"
        }
      ],
      "name": "Quote",
      "type": "event"
    },
    {
      "anonymous": false,
      "inputs": [
        {
          "indexed": false,
          "internalType": "uint16",
          "name": "_srcChainId",
          "type": "uint16"
        },
        {
          "indexed": false,
          "internalType": "bytes",
          "name": "_srcAddress",
          "type": "bytes"
        },
        {
          "indexed": false,
          "internalType": "uint64",
          "name": "_nonce",
          "type": "uint64"
        },
        {
          "indexed": false,
          "internalType": "bytes32",
          "name": "_payloadHash",
          "type": "bytes32"
        }
      ],
      "name": "RetryMessageSuccess",
      "type": "event"
    },
    {
      "anonymous": false,
      "inputs": [
        {
          "indexed": true,
          "internalType": "bytes32",
          "name": "role",
          "type": "bytes32"
        },
        {
          "indexed": true,
          "internalType": "bytes32",
          "name": "previousAdminRole",
          "type": "bytes32"
        },
        {
          "indexed": true,
          "internalType": "bytes32",
          "name": "newAdminRole",
          "type": "bytes32"
        }
      ],
      "name": "RoleAdminChanged",
      "type": "event"
    },
    {
      "anonymous": false,
      "inputs": [
        {
          "indexed": true,
          "internalType": "bytes32",
          "name": "role",
          "type": "bytes32"
        },
        {
          "indexed": true,
          "internalType": "address",
          "name": "account",
          "type": "address"
        },
        {
          "indexed": true,
          "internalType": "address",
          "name": "sender",
          "type": "address"
        }
      ],
      "name": "RoleGranted",
      "type": "event"
    },
    {
      "anonymous": false,
      "inputs": [
        {
          "indexed": true,
          "internalType": "bytes32",
          "name": "role",
          "type": "bytes32"
        },
        {
          "indexed": true,
          "internalType": "address",
          "name": "account",
          "type": "address"
        },
        {
          "indexed": true,
          "internalType": "address",
          "name": "sender",
          "type": "address"
        }
      ],
      "name": "RoleRevoked",
      "type": "event"
    },
    {
      "anonymous": false,
      "inputs": [
        {
          "indexed": false,
          "internalType": "uint16",
          "name": "_dstChainId",
          "type": "uint16"
        },
        {
          "indexed": false,
          "internalType": "uint16",
          "name": "_type",
          "type": "uint16"
        },
        {
          "indexed": false,
          "internalType": "uint256",
          "name": "_minDstGas",
          "type": "uint256"
        }
      ],
      "name": "SetMinDstGas",
      "type": "event"
    },
    {
      "anonymous": false,
      "inputs": [
        {
          "indexed": false,
          "internalType": "address",
          "name": "precrime",
          "type": "address"
        }
      ],
      "name": "SetPrecrime",
      "type": "event"
    },
    {
      "anonymous": false,
      "inputs": [
        {
          "indexed": false,
          "internalType": "uint16",
          "name": "_remoteChainId",
          "type": "uint16"
        },
        {
          "indexed": false,
          "internalType": "bytes",
          "name": "_path",
          "type": "bytes"
        }
      ],
      "name": "SetTrustedRemote",
      "type": "event"
    },
    {
      "anonymous": false,
      "inputs": [
        {
          "indexed": false,
          "internalType": "uint16",
          "name": "_remoteChainId",
          "type": "uint16"
        },
        {
          "indexed": false,
          "internalType": "bytes",
          "name": "_remoteAddress",
          "type": "bytes"
        }
      ],
      "name": "SetTrustedRemoteAddress",
      "type": "event"
    },
    {
      "anonymous": false,
      "inputs": [
        {
          "indexed": true,
          "internalType": "address",
          "name": "token",
          "type": "address"
        },
        {
          "indexed": false,
          "internalType": "uint256",
          "name": "amount",
          "type": "uint256"
        },
        {
          "indexed": false,
          "internalType": "address",
          "name": "sender",
          "type": "address"
        }
      ],
      "name": "SgReceived",
      "type": "event"
    },
    {
      "anonymous": false,
      "inputs": [
        {
          "indexed": false,
          "internalType": "address",
          "name": "newStrategy",
          "type": "address"
        }
      ],
      "name": "StrategyMigrated",
      "type": "event"
    },
    {
      "anonymous": false,
      "inputs": [
        {
          "indexed": false,
          "internalType": "uint256",
          "name": "profit",
          "type": "uint256"
        },
        {
          "indexed": false,
          "internalType": "uint256",
          "name": "loss",
          "type": "uint256"
        },
        {
          "indexed": false,
          "internalType": "uint256",
          "name": "debtPayment",
          "type": "uint256"
        },
        {
          "indexed": false,
          "internalType": "uint256",
          "name": "giveToStrategy",
          "type": "uint256"
        },
        {
          "indexed": false,
          "internalType": "uint256",
          "name": "requestFromStrategy",
          "type": "uint256"
        },
        {
          "indexed": false,
          "internalType": "uint256",
          "name": "creditAvailable",
          "type": "uint256"
        },
        {
          "indexed": false,
          "internalType": "uint256",
          "name": "totalAssets",
          "type": "uint256"
        }
      ],
      "name": "StrategyReported",
      "type": "event"
    },
    {
      "anonymous": false,
      "inputs": [
        {
          "indexed": true,
          "internalType": "address",
          "name": "src",
          "type": "address"
        },
        {
          "indexed": true,
          "internalType": "address",
          "name": "dst",
          "type": "address"
        },
        {
          "indexed": true,
          "internalType": "uint256",
          "name": "amount",
          "type": "uint256"
        }
      ],
      "name": "Swap",
      "type": "event"
    },
    {
      "inputs": [],
      "name": "DEFAULT_ADMIN_ROLE",
      "outputs": [
        {
          "internalType": "bytes32",
          "name": "",
          "type": "bytes32"
        }
      ],
      "stateMutability": "view",
      "type": "function"
    },
    {
      "inputs": [],
      "name": "DEFAULT_PAYLOAD_SIZE_LIMIT",
      "outputs": [
        {
          "internalType": "uint256",
          "name": "",
          "type": "uint256"
        }
      ],
      "stateMutability": "view",
      "type": "function"
    },
    {
      "inputs": [],
      "name": "DEFAULT_SLIPPAGE",
      "outputs": [
        {
          "internalType": "uint256",
          "name": "",
          "type": "uint256"
        }
      ],
      "stateMutability": "view",
      "type": "function"
    },
    {
      "inputs": [],
      "name": "QUOTE_OPERATION_PROVIDER",
      "outputs": [
        {
          "internalType": "bytes32",
          "name": "",
          "type": "bytes32"
        }
      ],
      "stateMutability": "view",
      "type": "function"
    },
    {
      "inputs": [
        {
          "internalType": "uint256",
          "name": "_debtOutstanding",
          "type": "uint256"
        }
      ],
      "name": "adjustPosition",
      "outputs": [],
      "stateMutability": "nonpayable",
      "type": "function"
    },
    {
      "inputs": [],
      "name": "balanceOfLpStaked",
      "outputs": [
        {
          "internalType": "uint256",
          "name": "",
          "type": "uint256"
        }
      ],
      "stateMutability": "view",
      "type": "function"
    },
    {
      "inputs": [],
      "name": "balanceOfPearlRewards",
      "outputs": [
        {
          "internalType": "uint256",
          "name": "",
          "type": "uint256"
        }
      ],
      "stateMutability": "view",
      "type": "function"
    },
    {
      "inputs": [],
      "name": "balanceOfWant",
      "outputs": [
        {
          "internalType": "uint256",
          "name": "",
          "type": "uint256"
        }
      ],
      "stateMutability": "view",
      "type": "function"
    },
    {
      "inputs": [
        {
          "internalType": "uint256",
          "name": "epoch",
          "type": "uint256"
        }
      ],
      "name": "callMe",
      "outputs": [],
      "stateMutability": "nonpayable",
      "type": "function"
    },
    {
      "inputs": [],
      "name": "clearWant",
      "outputs": [],
      "stateMutability": "nonpayable",
      "type": "function"
    },
    {
      "inputs": [],
      "name": "currentChainId",
      "outputs": [
        {
          "internalType": "uint16",
          "name": "",
          "type": "uint16"
        }
      ],
      "stateMutability": "view",
      "type": "function"
    },
    {
      "inputs": [
        {
          "internalType": "uint256",
          "name": "_daiAmount",
          "type": "uint256"
        }
      ],
      "name": "daiToWant",
      "outputs": [
        {
          "internalType": "uint256",
          "name": "",
          "type": "uint256"
        }
      ],
      "stateMutability": "view",
      "type": "function"
    },
    {
      "inputs": [],
      "name": "emergencyExit",
      "outputs": [
        {
          "internalType": "bool",
          "name": "",
          "type": "bool"
        }
      ],
      "stateMutability": "view",
      "type": "function"
    },
    {
      "inputs": [],
      "name": "estimatedTotalAssets",
      "outputs": [
        {
          "internalType": "uint256",
          "name": "",
          "type": "uint256"
        }
      ],
      "stateMutability": "view",
      "type": "function"
    },
    {
      "inputs": [
        {
          "internalType": "uint16",
          "name": "",
          "type": "uint16"
        },
        {
          "internalType": "bytes",
          "name": "",
          "type": "bytes"
        },
        {
          "internalType": "uint64",
          "name": "",
          "type": "uint64"
        }
      ],
      "name": "failedMessages",
      "outputs": [
        {
          "internalType": "bytes32",
          "name": "",
          "type": "bytes32"
        }
      ],
      "stateMutability": "view",
      "type": "function"
    },
    {
      "inputs": [
        {
          "internalType": "uint16",
          "name": "_srcChainId",
          "type": "uint16"
        },
        {
          "internalType": "bytes",
          "name": "_srcAddress",
          "type": "bytes"
        }
      ],
      "name": "forceResumeReceive",
      "outputs": [],
      "stateMutability": "nonpayable",
      "type": "function"
    },
    {
      "inputs": [
        {
          "internalType": "uint16",
          "name": "_version",
          "type": "uint16"
        },
        {
          "internalType": "uint16",
          "name": "_chainId",
          "type": "uint16"
        },
        {
          "internalType": "address",
          "name": "",
          "type": "address"
        },
        {
          "internalType": "uint256",
          "name": "_configType",
          "type": "uint256"
        }
      ],
      "name": "getConfig",
      "outputs": [
        {
          "internalType": "bytes",
          "name": "",
          "type": "bytes"
        }
      ],
      "stateMutability": "view",
      "type": "function"
    },
    {
      "inputs": [
        {
          "internalType": "bytes32",
          "name": "_messageHash",
          "type": "bytes32"
        }
      ],
      "name": "getEthSignedMessageHash",
      "outputs": [
        {
          "internalType": "bytes32",
          "name": "",
          "type": "bytes32"
        }
      ],
      "stateMutability": "pure",
      "type": "function"
    },
    {
      "inputs": [
        {
          "internalType": "bytes32",
          "name": "role",
          "type": "bytes32"
        }
      ],
      "name": "getRoleAdmin",
      "outputs": [
        {
          "internalType": "bytes32",
          "name": "",
          "type": "bytes32"
        }
      ],
      "stateMutability": "view",
      "type": "function"
    },
    {
      "inputs": [
        {
          "internalType": "uint16",
          "name": "_remoteChainId",
          "type": "uint16"
        }
      ],
      "name": "getTrustedRemoteAddress",
      "outputs": [
        {
          "internalType": "bytes",
          "name": "",
          "type": "bytes"
        }
      ],
      "stateMutability": "view",
      "type": "function"
    },
    {
      "inputs": [
        {
          "internalType": "bytes32",
          "name": "role",
          "type": "bytes32"
        },
        {
          "internalType": "address",
          "name": "account",
          "type": "address"
        }
      ],
      "name": "grantRole",
      "outputs": [],
      "stateMutability": "nonpayable",
      "type": "function"
    },
    {
      "inputs": [
        {
          "internalType": "uint256",
          "name": "_totalDebt",
          "type": "uint256"
        },
        {
          "internalType": "uint256",
          "name": "_debtOutstanding",
          "type": "uint256"
        },
        {
          "internalType": "uint256",
          "name": "_creditAvailable",
          "type": "uint256"
        },
        {
          "internalType": "uint256",
          "name": "_debtRatio",
          "type": "uint256"
        },
        {
          "internalType": "bytes",
          "name": "_signature",
          "type": "bytes"
        }
      ],
      "name": "harvest",
      "outputs": [],
      "stateMutability": "nonpayable",
      "type": "function"
    },
    {
      "inputs": [
        {
          "internalType": "bytes32",
          "name": "role",
          "type": "bytes32"
        },
        {
          "internalType": "address",
          "name": "account",
          "type": "address"
        }
      ],
      "name": "hasRole",
      "outputs": [
        {
          "internalType": "bool",
          "name": "",
          "type": "bool"
        }
      ],
      "stateMutability": "view",
      "type": "function"
    },
    {
      "inputs": [
        {
          "internalType": "address",
          "name": "_lzEndpoint",
          "type": "address"
        },
        {
          "internalType": "address",
          "name": "_strategist",
          "type": "address"
        },
        {
          "internalType": "contract IERC20",
          "name": "_want",
          "type": "address"
        },
        {
          "internalType": "address",
          "name": "_vault",
          "type": "address"
        },
        {
          "internalType": "uint16",
          "name": "_vaultChainId",
          "type": "uint16"
        },
        {
          "internalType": "uint16",
          "name": "_currentChainId",
          "type": "uint16"
        },
        {
          "internalType": "address",
          "name": "_sgBridge",
          "type": "address"
        },
        {
          "internalType": "address",
          "name": "_router",
          "type": "address"
        }
      ],
      "name": "initialize",
      "outputs": [],
      "stateMutability": "nonpayable",
      "type": "function"
    },
    {
      "inputs": [
        {
          "internalType": "uint16",
          "name": "_srcChainId",
          "type": "uint16"
        },
        {
          "internalType": "bytes",
          "name": "_srcAddress",
          "type": "bytes"
        }
      ],
      "name": "isTrustedRemote",
      "outputs": [
        {
          "internalType": "bool",
          "name": "",
          "type": "bool"
        }
      ],
      "stateMutability": "view",
      "type": "function"
    },
    {
      "inputs": [],
      "name": "lzEndpoint",
      "outputs": [
        {
          "internalType": "contract ILayerZeroEndpointUpgradeable",
          "name": "",
          "type": "address"
        }
      ],
      "stateMutability": "view",
      "type": "function"
    },
    {
      "inputs": [
        {
          "internalType": "uint16",
          "name": "_srcChainId",
          "type": "uint16"
        },
        {
          "internalType": "bytes",
          "name": "_srcAddress",
          "type": "bytes"
        },
        {
          "internalType": "uint64",
          "name": "_nonce",
          "type": "uint64"
        },
        {
          "internalType": "bytes",
          "name": "_payload",
          "type": "bytes"
        }
      ],
      "name": "lzReceive",
      "outputs": [],
      "stateMutability": "nonpayable",
      "type": "function"
    },
    {
      "inputs": [
        {
          "internalType": "uint16",
          "name": "",
          "type": "uint16"
        },
        {
          "internalType": "uint16",
          "name": "",
          "type": "uint16"
        }
      ],
      "name": "minDstGasLookup",
      "outputs": [
        {
          "internalType": "uint256",
          "name": "",
          "type": "uint256"
        }
      ],
      "stateMutability": "view",
      "type": "function"
    },
    {
      "inputs": [],
      "name": "name",
      "outputs": [
        {
          "internalType": "string",
          "name": "",
          "type": "string"
        }
      ],
      "stateMutability": "pure",
      "type": "function"
    },
    {
      "inputs": [
        {
          "internalType": "uint16",
          "name": "_srcChainId",
          "type": "uint16"
        },
        {
          "internalType": "bytes",
          "name": "_srcAddress",
          "type": "bytes"
        },
        {
          "internalType": "uint64",
          "name": "_nonce",
          "type": "uint64"
        },
        {
          "internalType": "bytes",
          "name": "_payload",
          "type": "bytes"
        }
      ],
      "name": "nonblockingLzReceive",
      "outputs": [],
      "stateMutability": "nonpayable",
      "type": "function"
    },
    {
      "inputs": [
        {
          "internalType": "address",
          "name": "src",
          "type": "address"
        },
        {
          "internalType": "address",
          "name": "dst",
          "type": "address"
        },
        {
          "internalType": "uint256",
          "name": "amountOut",
          "type": "uint256"
        },
        {
          "internalType": "uint256",
          "name": "amountIn",
          "type": "uint256"
        }
      ],
      "name": "notifyCallback",
      "outputs": [],
      "stateMutability": "nonpayable",
      "type": "function"
    },
    {
      "inputs": [],
      "name": "owner",
      "outputs": [
        {
          "internalType": "address",
          "name": "",
          "type": "address"
        }
      ],
      "stateMutability": "view",
      "type": "function"
    },
    {
      "inputs": [
        {
          "internalType": "uint16",
          "name": "",
          "type": "uint16"
        }
      ],
      "name": "payloadSizeLimitLookup",
      "outputs": [
        {
          "internalType": "uint256",
          "name": "",
          "type": "uint256"
        }
      ],
      "stateMutability": "view",
      "type": "function"
    },
    {
      "inputs": [
        {
          "internalType": "uint256",
          "name": "_pearlAmount",
          "type": "uint256"
        }
      ],
      "name": "pearlToWant",
      "outputs": [
        {
          "internalType": "uint256",
          "name": "",
          "type": "uint256"
        }
      ],
      "stateMutability": "view",
      "type": "function"
    },
    {
      "inputs": [],
      "name": "precrime",
      "outputs": [
        {
          "internalType": "address",
          "name": "",
          "type": "address"
        }
      ],
      "stateMutability": "view",
      "type": "function"
    },
    {
      "inputs": [],
      "name": "renounceOwnership",
      "outputs": [],
      "stateMutability": "nonpayable",
      "type": "function"
    },
    {
      "inputs": [
        {
          "internalType": "bytes32",
          "name": "role",
          "type": "bytes32"
        },
        {
          "internalType": "address",
          "name": "account",
          "type": "address"
        }
      ],
      "name": "renounceRole",
      "outputs": [],
      "stateMutability": "nonpayable",
      "type": "function"
    },
    {
      "inputs": [
        {
          "internalType": "uint16",
          "name": "_srcChainId",
          "type": "uint16"
        },
        {
          "internalType": "bytes",
          "name": "_srcAddress",
          "type": "bytes"
        },
        {
          "internalType": "uint64",
          "name": "_nonce",
          "type": "uint64"
        },
        {
          "internalType": "bytes",
          "name": "_payload",
          "type": "bytes"
        }
      ],
      "name": "retryMessage",
      "outputs": [],
      "stateMutability": "payable",
      "type": "function"
    },
    {
      "inputs": [],
      "name": "revokeFunds",
      "outputs": [],
      "stateMutability": "nonpayable",
      "type": "function"
    },
    {
      "inputs": [
        {
          "internalType": "bytes32",
          "name": "role",
          "type": "bytes32"
        },
        {
          "internalType": "address",
          "name": "account",
          "type": "address"
        }
      ],
      "name": "revokeRole",
      "outputs": [],
      "stateMutability": "nonpayable",
      "type": "function"
    },
    {
      "inputs": [
        {
          "internalType": "uint16",
          "name": "_version",
          "type": "uint16"
        },
        {
          "internalType": "uint16",
          "name": "_chainId",
          "type": "uint16"
        },
        {
          "internalType": "uint256",
          "name": "_configType",
          "type": "uint256"
        },
        {
          "internalType": "bytes",
          "name": "_config",
          "type": "bytes"
        }
      ],
      "name": "setConfig",
      "outputs": [],
      "stateMutability": "nonpayable",
      "type": "function"
    },
    {
      "inputs": [
        {
          "internalType": "bool",
          "name": "_emergencyExit",
          "type": "bool"
        }
      ],
      "name": "setEmergencyExit",
      "outputs": [],
      "stateMutability": "nonpayable",
      "type": "function"
    },
    {
      "inputs": [
        {
          "internalType": "uint16",
          "name": "_dstChainId",
          "type": "uint16"
        },
        {
          "internalType": "uint16",
          "name": "_packetType",
          "type": "uint16"
        },
        {
          "internalType": "uint256",
          "name": "_minGas",
          "type": "uint256"
        }
      ],
      "name": "setMinDstGas",
      "outputs": [],
      "stateMutability": "nonpayable",
      "type": "function"
    },
    {
      "inputs": [
        {
          "internalType": "uint16",
          "name": "_dstChainId",
          "type": "uint16"
        },
        {
          "internalType": "uint256",
          "name": "_size",
          "type": "uint256"
        }
      ],
      "name": "setPayloadSizeLimit",
      "outputs": [],
      "stateMutability": "nonpayable",
      "type": "function"
    },
    {
      "inputs": [
        {
          "internalType": "address",
          "name": "_precrime",
          "type": "address"
        }
      ],
      "name": "setPrecrime",
      "outputs": [],
      "stateMutability": "nonpayable",
      "type": "function"
    },
    {
      "inputs": [
        {
          "internalType": "uint16",
          "name": "_version",
          "type": "uint16"
        }
      ],
      "name": "setReceiveVersion",
      "outputs": [],
      "stateMutability": "nonpayable",
      "type": "function"
    },
    {
      "inputs": [
        {
          "internalType": "uint16",
          "name": "_version",
          "type": "uint16"
        }
      ],
      "name": "setSendVersion",
      "outputs": [],
      "stateMutability": "nonpayable",
      "type": "function"
    },
    {
      "inputs": [
        {
          "internalType": "uint256",
          "name": "_slippage",
          "type": "uint256"
        }
      ],
      "name": "setSlippage",
      "outputs": [],
      "stateMutability": "nonpayable",
      "type": "function"
    },
    {
      "inputs": [
        {
          "internalType": "address",
          "name": "_strategist",
          "type": "address"
        }
      ],
      "name": "setStrategist",
      "outputs": [],
      "stateMutability": "nonpayable",
      "type": "function"
    },
    {
      "inputs": [
        {
          "internalType": "address",
          "name": "_swapHelper",
          "type": "address"
        }
      ],
      "name": "setSwapHelper",
      "outputs": [],
      "stateMutability": "nonpayable",
      "type": "function"
    },
    {
      "inputs": [
        {
          "internalType": "uint16",
          "name": "_srcChainId",
          "type": "uint16"
        },
        {
          "internalType": "bytes",
          "name": "_path",
          "type": "bytes"
        }
      ],
      "name": "setTrustedRemote",
      "outputs": [],
      "stateMutability": "nonpayable",
      "type": "function"
    },
    {
      "inputs": [
        {
          "internalType": "uint16",
          "name": "_remoteChainId",
          "type": "uint16"
        },
        {
          "internalType": "bytes",
          "name": "_remoteAddress",
          "type": "bytes"
        }
      ],
      "name": "setTrustedRemoteAddress",
      "outputs": [],
      "stateMutability": "nonpayable",
      "type": "function"
    },
    {
      "inputs": [],
      "name": "sgBridge",
      "outputs": [
        {
          "internalType": "contract ISgBridge",
          "name": "",
          "type": "address"
        }
      ],
      "stateMutability": "view",
      "type": "function"
    },
    {
      "inputs": [
        {
          "internalType": "uint16",
          "name": "",
          "type": "uint16"
        },
        {
          "internalType": "bytes",
          "name": "_srcAddress",
          "type": "bytes"
        },
        {
          "internalType": "uint256",
          "name": "",
          "type": "uint256"
        },
        {
          "internalType": "address",
          "name": "_token",
          "type": "address"
        },
        {
          "internalType": "uint256",
          "name": "_amountLD",
          "type": "uint256"
        },
        {
          "internalType": "bytes",
          "name": "",
          "type": "bytes"
        }
      ],
      "name": "sgReceive",
      "outputs": [],
      "stateMutability": "nonpayable",
      "type": "function"
    },
    {
      "inputs": [],
      "name": "sgRouter",
      "outputs": [
        {
          "internalType": "contract IStargateRouter",
          "name": "",
          "type": "address"
        }
      ],
      "stateMutability": "view",
      "type": "function"
    },
    {
      "inputs": [],
      "name": "slippage",
      "outputs": [
        {
          "internalType": "uint256",
          "name": "",
          "type": "uint256"
        }
      ],
      "stateMutability": "view",
      "type": "function"
    },
    {
      "inputs": [],
      "name": "strategist",
      "outputs": [
        {
          "internalType": "address",
          "name": "",
          "type": "address"
        }
      ],
      "stateMutability": "view",
      "type": "function"
    },
    {
      "inputs": [],
      "name": "strategistSignMessageHash",
      "outputs": [
        {
          "internalType": "bytes32",
          "name": "",
          "type": "bytes32"
        }
      ],
      "stateMutability": "view",
      "type": "function"
    },
    {
      "inputs": [
        {
          "internalType": "bytes4",
          "name": "interfaceId",
          "type": "bytes4"
        }
      ],
      "name": "supportsInterface",
      "outputs": [
        {
          "internalType": "bool",
          "name": "",
          "type": "bool"
        }
      ],
      "stateMutability": "view",
      "type": "function"
    },
    {
      "inputs": [],
      "name": "swapHelper",
      "outputs": [
        {
          "internalType": "contract ISwapHelper",
          "name": "",
          "type": "address"
        }
      ],
      "stateMutability": "view",
      "type": "function"
    },
    {
      "inputs": [
        {
          "internalType": "contract IERC20",
          "name": "_token",
          "type": "address"
        }
      ],
      "name": "sweepToken",
      "outputs": [],
      "stateMutability": "nonpayable",
      "type": "function"
    },
    {
      "inputs": [
        {
          "internalType": "address",
          "name": "newOwner",
          "type": "address"
        }
      ],
      "name": "transferOwnership",
      "outputs": [],
      "stateMutability": "nonpayable",
      "type": "function"
    },
    {
      "inputs": [
        {
          "internalType": "uint16",
          "name": "",
          "type": "uint16"
        }
      ],
      "name": "trustedRemoteLookup",
      "outputs": [
        {
          "internalType": "bytes",
          "name": "",
          "type": "bytes"
        }
      ],
      "stateMutability": "view",
      "type": "function"
    },
    {
      "inputs": [
        {
          "internalType": "uint256",
          "name": "_usdrLpAmount",
          "type": "uint256"
        }
      ],
      "name": "usdrLpToWant",
      "outputs": [
        {
          "internalType": "uint256",
          "name": "",
          "type": "uint256"
        }
      ],
      "stateMutability": "view",
      "type": "function"
    },
    {
      "inputs": [
        {
          "internalType": "uint256",
          "name": "_usdrAmount",
          "type": "uint256"
        }
      ],
      "name": "usdrToWant",
      "outputs": [
        {
          "internalType": "uint256",
          "name": "",
          "type": "uint256"
        }
      ],
      "stateMutability": "view",
      "type": "function"
    },
    {
      "inputs": [],
      "name": "vault",
      "outputs": [
        {
          "internalType": "address",
          "name": "",
          "type": "address"
        }
      ],
      "stateMutability": "view",
      "type": "function"
    },
    {
      "inputs": [],
      "name": "vaultChainId",
      "outputs": [
        {
          "internalType": "uint16",
          "name": "",
          "type": "uint16"
        }
      ],
      "stateMutability": "view",
      "type": "function"
    },
    {
      "inputs": [],
      "name": "want",
      "outputs": [
        {
          "internalType": "contract IERC20",
          "name": "",
          "type": "address"
        }
      ],
      "stateMutability": "view",
      "type": "function"
    },
    {
      "inputs": [],
      "name": "wantDecimals",
      "outputs": [
        {
          "internalType": "uint8",
          "name": "",
          "type": "uint8"
        }
      ],
      "stateMutability": "view",
      "type": "function"
    },
    {
      "inputs": [
        {
          "internalType": "uint256",
          "name": "_wantAmount",
          "type": "uint256"
        }
      ],
      "name": "wantToUsdrLp",
      "outputs": [
        {
          "internalType": "uint256",
          "name": "",
          "type": "uint256"
        }
      ],
      "stateMutability": "view",
      "type": "function"
    },
    {
      "stateMutability": "payable",
      "type": "receive"
    }
  ],
  "bytecode": "0x608060405234801561001057600080fd5b5061687e80620000216000396000f3fe6080604052600436106103185760003560e01c80621d35671461032457806301ffc9a7146103465780630517cb761461037b57806306fdde03146103a857806307e0db17146103e75780630df37483146104075780630fc6a11c1461042757806310ddb137146104485780631be19560146104685780631cdb539f146104885780631f1fcd51146104a85780631fe4a686146104c8578063237ea53f146104e8578063248a9ca3146105185780632d606843146105385780632f2ff15d1461054d57806336568abe1461056d57806337fded911461058d5780633d3ccc2f146105b25780633d8b38f6146105d25780633e032a3b146105f25780633eae1112146106085780633f1f4fa41461062857806342d65a8d1461065557806345ee075514610675578063495f881e146106955780635641ec03146106b5578063567ad85d146106cf578063593178de146107045780635b8c41e61461071957806366ad5c8a146107685780636cbadbfa14610788578063715018a6146107aa5780637533d788146107bf5780638cfd8f5c146107df5780638da5cb5b146108175780638f4508d01461082c57806391d1485414610841578063950c8a74146108615780639589c990146108815780639606647d146108a15780639f38369a146108b6578063a217fddf146108d6578063a6c3d165146108eb578063a87985101461090b578063a9e5082414610921578063ab8236f314610941578063adf076e614610961578063b353aaa714610994578063baf3292d146109b4578063bd79ac13146109d4578063c1a3d44c146109f4578063c446183414610a09578063c7b9d53014610a1f578063cbed8b9c14610a3f578063d1deba1f14610a5f578063d547741f14610a72578063d56739ac14610a92578063d73cd47f14610aa7578063df2a5b3b14610ac7578063e73620c314610ae7578063eb8d72b714610b07578063efbb5cb014610b27578063f056dffe14610b3c578063f0fa55a914610b5c578063f2fde38b14610b7c578063f5ecbdbc14610b9c578063fa54080114610bbc578063fbfa77cf14610bdc578063fcb988a414610bfc57600080fd5b3661031f57005b600080fd5b34801561033057600080fd5b5061034461033f3660046153a8565b610c1c565b005b34801561035257600080fd5b5061036661036136600461543b565b610d05565b60405190151581526020015b60405180910390f35b34801561038757600080fd5b5060ce5461039b906001600160a01b031681565b6040516103729190615465565b3480156103b457600080fd5b5060408051808201909152600d81526c506561726c537472617465677960981b60208201525b60405161037291906154c9565b3480156103f357600080fd5b506103446104023660046154dc565b610d3c565b34801561041357600080fd5b506103446104223660046154f7565b610da9565b34801561043357600080fd5b506101355461039b906001600160a01b031681565b34801561045457600080fd5b506103446104633660046154dc565b610dc8565b34801561047457600080fd5b50610344610483366004615536565b610e04565b34801561049457600080fd5b506103446104a3366004615553565b610e91565b3480156104b457600080fd5b5060ca5461039b906001600160a01b031681565b3480156104d457600080fd5b5060c95461039b906001600160a01b031681565b3480156104f457600080fd5b5061050a6000805160206167e983398151915281565b604051908152602001610372565b34801561052457600080fd5b5061050a610533366004615605565b6110f1565b34801561054457600080fd5b50610344611107565b34801561055957600080fd5b5061034461056836600461561e565b611148565b34801561057957600080fd5b5061034461058836600461561e565b611169565b34801561059957600080fd5b5060cd5461039b9061010090046001600160a01b031681565b3480156105be57600080fd5b506103446105cd366004615605565b6111e7565b3480156105de57600080fd5b506103666105ed36600461564e565b61121d565b3480156105fe57600080fd5b5061050a60cc5481565b34801561061457600080fd5b5061050a610623366004615605565b6112ea565b34801561063457600080fd5b5061050a6106433660046154dc565b60686020526000908152604090205481565b34801561066157600080fd5b5061034461067036600461564e565b611372565b34801561068157600080fd5b506103446106903660046156ae565b6113e5565b3480156106a157600080fd5b506103446106b03660046157b6565b611400565b3480156106c157600080fd5b5060cd546103669060ff1681565b3480156106db57600080fd5b5060cb546106f190600160a01b900461ffff1681565b60405161ffff9091168152602001610372565b34801561071057600080fd5b5061050a6116a4565b34801561072557600080fd5b5061050a610734366004615819565b6097602090815260009384526040808520845180860184018051928152908401958401959095209452929052825290205481565b34801561077457600080fd5b506103446107833660046153a8565b611702565b34801561079457600080fd5b5060cb546106f190600160b01b900461ffff1681565b3480156107b657600080fd5b506103446117d6565b3480156107cb57600080fd5b506103da6107da3660046154dc565b6117ea565b3480156107eb57600080fd5b5061050a6107fa366004615876565b606760209081526000928352604080842090915290825290205481565b34801561082357600080fd5b5061039b611884565b34801561083857600080fd5b5061050a611893565b34801561084d57600080fd5b5061036661085c36600461561e565b61190d565b34801561086d57600080fd5b5060695461039b906001600160a01b031681565b34801561088d57600080fd5b5061050a61089c366004615605565b611939565b3480156108ad57600080fd5b506103446119d1565b3480156108c257600080fd5b506103da6108d13660046154dc565b611a64565b3480156108e257600080fd5b5061050a600081565b3480156108f757600080fd5b5061034461090636600461564e565b611b73565b34801561091757600080fd5b5061050a61264881565b34801561092d57600080fd5b5061050a61093c366004615605565b611bfc565b34801561094d57600080fd5b5061034461095c3660046158a9565b611cb5565b34801561096d57600080fd5b5060cb5461098290600160c01b900460ff1681565b60405160ff9091168152602001610372565b3480156109a057600080fd5b5060655461039b906001600160a01b031681565b3480156109c057600080fd5b506103446109cf366004615536565b611daf565b3480156109e057600080fd5b5061050a6109ef366004615605565b611e02565b348015610a0057600080fd5b5061050a611e5a565b348015610a1557600080fd5b5061050a61271081565b348015610a2b57600080fd5b50610344610a3a366004615536565b611e8b565b348015610a4b57600080fd5b50610344610a5a366004615943565b611eb5565b610344610a6d3660046153a8565b611f23565b348015610a7e57600080fd5b50610344610a8d36600461561e565b612139565b348015610a9e57600080fd5b5061050a612155565b348015610ab357600080fd5b50610344610ac2366004615536565b612187565b348015610ad357600080fd5b50610344610ae23660046159b1565b6121b2565b348015610af357600080fd5b50610344610b02366004615605565b612264565b348015610b1357600080fd5b50610344610b2236600461564e565b612284565b348015610b3357600080fd5b5061050a6122de565b348015610b4857600080fd5b50610344610b573660046159ed565b6123f8565b348015610b6857600080fd5b50610344610b77366004615605565b612465565b348015610b8857600080fd5b50610344610b97366004615536565b612472565b348015610ba857600080fd5b506103da610bb7366004615a33565b6124e8565b348015610bc857600080fd5b5061050a610bd7366004615605565b61257b565b348015610be857600080fd5b5060cb5461039b906001600160a01b031681565b348015610c0857600080fd5b5061050a610c17366004615605565b6125cd565b6065546001600160a01b03163314610c875760405162461bcd60e51b815260206004820152602360248201527f4261736553747261746567793a3a496e76616c6964456e64706f696e7443616c6044820152623632b960e91b60648201526084015b60405180910390fd5b610cfd8686868080601f01602080910402602001604051908101604052809392919081815260200183838082843760009201919091525050604080516020601f8901819004810282018101909252878152899350915087908790819084018382808284376000920191909152506127d192505050565b505050505050565b60006001600160e01b03198216637965db0b60e01b1480610d3657506301ffc9a760e01b6001600160e01b03198316145b92915050565b610d4461284a565b6065546040516307e0db1760e01b815261ffff831660048201526001600160a01b03909116906307e0db17906024015b600060405180830381600087803b158015610d8e57600080fd5b505af1158015610da2573d6000803e3d6000fd5b5050505050565b610db161284a565b61ffff909116600090815260686020526040902055565b610dd061284a565b6065546040516310ddb13760e01b815261ffff831660048201526001600160a01b03909116906310ddb13790602401610d74565b610e0c6128a9565b610e8e33826001600160a01b03166370a08231306040518263ffffffff1660e01b8152600401610e3c9190615465565b602060405180830381865afa158015610e59573d6000803e3d6000fd5b505050506040513d601f19601f82011682018060405250810190610e7d9190615a80565b6001600160a01b0384169190612902565b50565b600054610100900460ff1615808015610eb15750600054600160ff909116105b80610ed25750610ec030612958565b158015610ed2575060005460ff166001145b610f355760405162461bcd60e51b815260206004820152602e60248201527f496e697469616c697a61626c653a20636f6e747261637420697320616c72656160448201526d191e481a5b9a5d1a585b1a5e995960921b6064820152608401610c7e565b6000805460ff191660011790558015610f58576000805461ff0019166101001790555b610f60612967565b610f73898989898989898961264861298e565b60ca54610fa0906001600160a01b03167368b3465833fb72a70ecdf485e0e4c7bd8665fc45600019612b6d565b60ca54610fc7906001600160a01b0316600080516020616749833981519152600019612b6d565b610ff0600080516020616809833981519152600080516020616749833981519152600019612b6d565b6110196000805160206167c9833981519152600080516020616789833981519152600019612b6d565b6110426000805160206167c9833981519152600080516020616749833981519152600019612b6d565b611077738f3cf7ad23cd3cadbd9735aff958023239c6a06373195f7b233947d51f4c3b756ad41a5ddb34cebce0600019612b6d565b6110a06000805160206167a9833981519152600080516020616749833981519152600019612b6d565b80156110e6576000805461ff0019169055604051600181527f7f26b83ff96e1f2b6a682f133852f6798a09c465da95921460cefb38474024989060200160405180910390a15b505050505050505050565b6000908152610103602052604090206001015490565b61110f6128a9565b60c9546040516001600160a01b03909116904780156108fc02916000818181858888f19350505050158015610e8e573d6000803e3d6000fd5b611151826110f1565b61115a81612c71565b6111648383612c7b565b505050565b6001600160a01b03811633146111d95760405162461bcd60e51b815260206004820152602f60248201527f416363657373436f6e74726f6c3a2063616e206f6e6c792072656e6f756e636560448201526e103937b632b9903337b91039b2b63360891b6064820152608401610c7e565b6111e38282612d02565b5050565b6111ef6128a9565b6111f881612d6a565b604051818152600080516020616829833981519152906020015b60405180910390a150565b61ffff83166000908152606660205260408120805482919061123e90615a99565b80601f016020809104026020016040519081016040528092919081815260200182805461126a90615a99565b80156112b75780601f1061128c576101008083540402835291602001916112b7565b820191906000526020600020905b81548152906001019060200180831161129a57829003601f168201915b5050505050905083836040516112ce929190615ad3565b60405180910390208180519060200120149150505b9392505050565b6000610d36826000805160206168098339815191526001600160a01b031663313ce5676040518163ffffffff1660e01b8152600401602060405180830381865afa15801561133c573d6000803e3d6000fd5b505050506040513d601f19601f820116820180604052508101906113609190615ae3565b60cb54600160c01b900460ff16613467565b61137a61284a565b6065546040516342d65a8d60e01b81526001600160a01b03909116906342d65a8d906113ae90869086908690600401615b2f565b600060405180830381600087803b1580156113c857600080fd5b505af11580156113dc573d6000803e3d6000fd5b50505050505050565b6113ed6128a9565b60cd805460ff1916911515919091179055565b6114086128a9565b611411816134bc565b60cd546000908190819060ff16156114bd5784156114715760405162461bcd60e51b815260206004820152601e60248201527f4261736553747261746567793a3a44656274526174696f4e6f745a65726f00006044820152606401610c7e565b600061147b613542565b9050878110156114965761148f8189615b63565b92506114ab565b878111156114ab576114a88882615b63565b93505b6114b58389615b63565b9150506114cf565b6114c78888613584565b919450925090505b60006114db8285615b76565b9050600080888310156114fd576114f2838a615b63565b91506000905061150e565b6000915061150b8984615b63565b90505b6000604051806101600160405280306001600160a01b031681526020014281526020018881526020018781526020018681526020018481526020018381526020018b81526020018361155e6122de565b6115689190615b63565b815260200160d0600081548092919061158090615b89565b909155508152602001899052905081156115e05760cb546040516115db91849161ffff600160a01b830416916001600160a01b0316906115c7906002908790602001615bda565b60405160208183030381529060405261367b565b61160b565b61160b6002826040516020016115f7929190615bda565b604051602081830303815290604052613769565b7fb983e09c034e9c52b5e547cb0589967992b97717733f580cc5ad0afcdc4b522b8160400151826060015183608001518460a001518560c001518660e0015187610100015160405161168e9796959493929190968752602087019590955260408601939093526060850191909152608084015260a083015260c082015260e00190565b60405180910390a1505050505050505050505050565b60d05460cb546040513060601b6001600160601b03191660208201526034810192909252600160b01b900460f01b6001600160f01b031916605482015260009060560160405160208183030381529060405280519060200120905090565b3330146117605760405162461bcd60e51b815260206004820152602660248201527f4e6f6e626c6f636b696e674c7a4170703a2063616c6c6572206d7573742062656044820152650204c7a4170760d41b6064820152608401610c7e565b610cfd8686868080601f01602080910402602001604051908101604052809392919081815260200183838082843760009201919091525050604080516020601f8901819004810282018101909252878152899350915087908790819084018382808284376000920191909152506138e992505050565b6117de61284a565b6117e860006139ff565b565b6066602052600090815260409020805461180390615a99565b80601f016020809104026020016040519081016040528092919081815260200182805461182f90615a99565b801561187c5780601f106118515761010080835404028352916020019161187c565b820191906000526020600020905b81548152906001019060200180831161185f57829003601f168201915b505050505081565b6033546001600160a01b031690565b6040516370a0823160e01b8152600090600080516020616789833981519152906370a08231906118c7903090600401615465565b602060405180830381865afa1580156118e4573d6000803e3d6000fd5b505050506040513d601f19601f820116820180604052508101906119089190615a80565b905090565b6000918252610103602090815260408084206001600160a01b0393909316845291905290205460ff1690565b6040516328bd9fc160e11b8152600090819073f68c20d6c50706f6c6bd8ee184382518c93b368c9063517b3f8290611985906000805160206167a9833981519152908790600401615c85565b602060405180830381865afa1580156119a2573d6000803e3d6000fd5b505050506040513d601f19601f820116820180604052508101906119c69190615a80565b90506112e3816112ea565b6119d96128a9565b60ca546040516370a0823160e01b81526117e8916001916001600160a01b03909116906370a0823190611a10903090600401615465565b602060405180830381865afa158015611a2d573d6000803e3d6000fd5b505050506040513d601f19601f82011682018060405250810190611a519190615a80565b60ca546001600160a01b03169190612902565b61ffff8116600090815260666020526040812080546060929190611a8790615a99565b80601f0160208091040260200160405190810160405280929190818152602001828054611ab390615a99565b8015611b005780601f10611ad557610100808354040283529160200191611b00565b820191906000526020600020905b815481529060010190602001808311611ae357829003601f168201915b505050505090508051600003611b585760405162461bcd60e51b815260206004820152601d60248201527f4c7a4170703a206e6f20747275737465642070617468207265636f72640000006044820152606401610c7e565b6112e3600060148351611b6b9190615b63565b839190613a51565b611b7b61284a565b818130604051602001611b9093929190615c9e565b60408051601f1981840301815291815261ffff8516600090815260666020522090611bbb9082615d1a565b507f8c0400cfe2d1199b1a725c78960bcc2a344d869b80590d0f2bd005db15a572ce838383604051611bef93929190615b2f565b60405180910390a1505050565b60ca546040516310e1b98f60e21b81526000918291829160008051602061674983398151915291634386e63c91611c56916001600160a01b0390911690600080516020616809833981519152906001908a90600401615dd3565b6040805180830381865afa158015611c72573d6000803e3d6000fd5b505050506040513d601f19601f82011682018060405250810190611c969190615dfe565b91509150611ca3816112ea565b611cad9083615b76565b949350505050565b60ce546001600160a01b0316331480611cdd575060cd5461010090046001600160a01b031633145b611d285760405162461bcd60e51b815260206004820152601c60248201527b53674272696467653a3a526f757465724f724272696467654f6e6c7960201b6044820152606401610c7e565b6000611d3686826014613a51565b604051602001611d469190615e22565b604051602081830303815290604052611d5e90615e3e565b60601c9050836001600160a01b03167f92073a89a07a000083eb8b2575fc15e7bb936efe55d00727d6942a796d7211a78483604051611d9e929190615e75565b60405180910390a250505050505050565b611db761284a565b606980546001600160a01b0319166001600160a01b0383161790556040517f5db758e995a17ec1ad84bdef7e8c3293a0bd6179bcce400dff5d4c3d87db726b90611212908390615465565b6000610d3682738f3cf7ad23cd3cadbd9735aff958023239c6a0636001600160a01b031663313ce5676040518163ffffffff1660e01b8152600401602060405180830381865afa15801561133c573d6000803e3d6000fd5b60ca546040516370a0823160e01b81526000916001600160a01b0316906370a08231906118c7903090600401615465565b611e9361284a565b60c980546001600160a01b0319166001600160a01b0392909216919091179055565b611ebd61284a565b6065546040516332fb62e760e21b81526001600160a01b039091169063cbed8b9c90611ef59088908890889088908890600401615e8c565b600060405180830381600087803b158015611f0f57600080fd5b505af11580156110e6573d6000803e3d6000fd5b61ffff86166000908152609760205260408082209051611f469088908890615ad3565b90815260408051602092819003830190206001600160401b03871660009081529252902054905080611fc65760405162461bcd60e51b815260206004820152602360248201527f4e6f6e626c6f636b696e674c7a4170703a206e6f2073746f726564206d65737360448201526261676560e81b6064820152608401610c7e565b808383604051611fd7929190615ad3565b6040518091039020146120365760405162461bcd60e51b815260206004820152602160248201527f4e6f6e626c6f636b696e674c7a4170703a20696e76616c6964207061796c6f616044820152601960fa1b6064820152608401610c7e565b61ffff871660009081526097602052604080822090516120599089908990615ad3565b90815260408051602092819003830181206001600160401b038916600090815290845282902093909355601f880182900482028301820190528682526120f1918991899089908190840183828082843760009201919091525050604080516020601f8a018190048102820181019092528881528a9350915088908890819084018382808284376000920191909152506138e992505050565b7fc264d91f3adc5588250e1551f547752ca0cfa8f6b530d243b9f9f4cab10ea8e58787878785604051612128959493929190615eba565b60405180910390a150505050505050565b612142826110f1565b61214b81612c71565b6111648383612d02565b6040516246613160e11b815260009060008051602061678983398151915290628cc262906118c7903090600401615465565b61218f613b5e565b61013580546001600160a01b0319166001600160a01b0392909216919091179055565b6121ba61284a565b600081116122025760405162461bcd60e51b81526020600482015260156024820152744c7a4170703a20696e76616c6964206d696e47617360581b6044820152606401610c7e565b61ffff83811660008181526067602090815260408083209487168084529482529182902085905581519283528201929092529081018290527f9d5c7c0b934da8fefa9c7760c98383778a12dfbfc0c3b3106518f43fb9508ac090606001611bef565b61226c61284a565b600090815260cf60205260409020805460ff19169055565b61228c61284a565b61ffff831660009081526066602052604090206122aa828483615ef5565b507ffa41487ad5d6728f0b19276fa1eddc16558578f5109fc39d2dc33c3230470dab838383604051611bef93929190615b2f565b60006122eb61093c611893565b6040516370a0823160e01b8152612373906000805160206167a9833981519152906370a0823190612320903090600401615465565b602060405180830381865afa15801561233d573d6000803e3d6000fd5b505050506040513d601f19601f820116820180604052508101906123619190615a80565b612369612155565b61089c9190615b76565b60ca546040516370a0823160e01b81526001600160a01b03909116906370a08231906123a3903090600401615465565b602060405180830381865afa1580156123c0573d6000803e3d6000fd5b505050506040513d601f19601f820116820180604052508101906123e49190615a80565b6123ee9190615b76565b6119089190615b76565b6000805160206167e983398151915261241081612c71565b82846001600160a01b0316866001600160a01b03167f9b2db766e04dc7ee1cc19d1415531ad5b3fd566db4f745d9a8ad51e3d3fe1bd78560405161245691815260200190565b60405180910390a45050505050565b61246d6128a9565b60cc55565b61247a61284a565b6001600160a01b0381166124df5760405162461bcd60e51b815260206004820152602660248201527f4f776e61626c653a206e6577206f776e657220697320746865207a65726f206160448201526564647265737360d01b6064820152608401610c7e565b610e8e816139ff565b606554604051633d7b2f6f60e21b815261ffff808716600483015285166024820152306044820152606481018390526060916001600160a01b03169063f5ecbdbc90608401600060405180830381865afa15801561254a573d6000803e3d6000fd5b505050506040513d6000823e601f3d908101601f191682016040526125729190810190615fae565b95945050505050565b6040517b0ca2ba3432b932bab69029b4b3b732b21026b2b9b9b0b3b29d05199960211b6020820152603c8101829052600090605c01604051602081830303815290604052805190602001209050919050565b60008061264e6000805160206167c98339815191526001600160a01b031663313ce5676040518163ffffffff1660e01b8152600401602060405180830381865afa15801561261f573d6000803e3d6000fd5b505050506040513d601f19601f820116820180604052508101906126439190615ae3565b61093c90600a6160ff565b905060006126db8460cb60189054906101000a900460ff166000805160206167c98339815191526001600160a01b031663313ce5676040518163ffffffff1660e01b8152600401602060405180830381865afa1580156126b2573d6000803e3d6000fd5b505050506040513d601f19601f820116820180604052508101906126d69190615ae3565b613467565b9050600061273f8360cb60189054906101000a900460ff166000805160206167c98339815191526001600160a01b031663313ce5676040518163ffffffff1660e01b8152600401602060405180830381865afa1580156126b2573d6000803e3d6000fd5b9050806000805160206167c98339815191526001600160a01b031663313ce5676040518163ffffffff1660e01b8152600401602060405180830381865afa15801561278e573d6000803e3d6000fd5b505050506040513d601f19601f820116820180604052508101906127b29190615ae3565b6127bd90600a6160ff565b6127c7908461610e565b6125729190616125565b6000806128345a60966366ad5c8a60e01b898989896040516024016127f99493929190616147565b60408051601f198184030181529190526020810180516001600160e01b03166001600160e01b03199093169290921790915230929190613bcd565b9150915081610cfd57610cfd8686868685613c59565b33612853611884565b6001600160a01b0316146117e85760405162461bcd60e51b815260206004820181905260248201527f4f776e61626c653a2063616c6c6572206973206e6f7420746865206f776e65726044820152606401610c7e565b60c9546001600160a01b031633146117e85760405162461bcd60e51b815260206004820152601c60248201527b10985cd954dd1c985d1959de4e8e93db9b1e54dd1c985d1959da5cdd60221b6044820152606401610c7e565b6111648363a9059cbb60e01b8484604051602401612921929190615c85565b60408051601f198184030181529190526020810180516001600160e01b03166001600160e01b031990931692909217909152613cf6565b6001600160a01b03163b151590565b600054610100900460ff166117e85760405162461bcd60e51b8152600401610c7e90616185565b600054610100900460ff166129b55760405162461bcd60e51b8152600401610c7e90616185565b6129be89613dcb565b60c980546001600160a01b03808b166001600160a01b03199283161790925560ca80548a8416908316811790915560cb8054938a1661ffff8a16600160a01b029093166001600160b01b0319909416939093179190911790915560cc8290556040805163313ce56760e01b8152905163313ce567916004808201926020929091908290030181865afa158015612a58573d6000803e3d6000fd5b505050506040513d601f19601f82011682018060405250810190612a7c9190615ae3565b60cb8054600060d05562ffffff60b01b1916600160c01b60ff939093169290920261ffff60b01b191691909117600160b01b61ffff87160217905560cd8054610100600160a81b0319166101006001600160a01b03868116919091029190911790915560ce80546001600160a01b03191684831617905560ca5460405163095ea7b360e01b815291169063095ea7b390612b1e90869060001990600401615c85565b6020604051808303816000875af1158015612b3d573d6000803e3d6000fd5b505050506040513d601f19601f82011682018060405250810190612b6191906161d0565b50505050505050505050565b801580612be75750604051636eb1769f60e11b81523060048201526001600160a01b03838116602483015284169063dd62ed3e90604401602060405180830381865afa158015612bc1573d6000803e3d6000fd5b505050506040513d601f19601f82011682018060405250810190612be59190615a80565b155b612c525760405162461bcd60e51b815260206004820152603660248201527f5361666545524332303a20617070726f76652066726f6d206e6f6e2d7a65726f60448201527520746f206e6f6e2d7a65726f20616c6c6f77616e636560501b6064820152608401610c7e565b6111648363095ea7b360e01b8484604051602401612921929190615c85565b610e8e8133613e03565b612c85828261190d565b6111e3576000828152610103602090815260408083206001600160a01b03851684529091529020805460ff19166001179055612cbe3390565b6001600160a01b0316816001600160a01b0316837f2f8788117e7eff1d82e926ec794901d17c78024a50270940304540a733656f0d60405160405180910390a45050565b612d0c828261190d565b156111e3576000828152610103602090815260408083206001600160a01b0385168085529252808320805460ff1916905551339285917ff6391f5c32d9c69d2a47ea670b442974b53935d1edc7fd64eb21e047a839171b9190a45050565b6000805160206167898339815191526001600160a01b0316633d18b9126040518163ffffffff1660e01b8152600401600060405180830381600087803b158015612db357600080fd5b505af1158015612dc7573d6000803e3d6000fd5b50506040516370a0823160e01b8152612e4692506000805160206167a983398151915291506370a0823190612e00903090600401615465565b602060405180830381865afa158015612e1d573d6000803e3d6000fd5b505050506040513d601f19601f82011682018060405250810190612e419190615a80565b613e5c565b60ca546040516370a0823160e01b81526000916001600160a01b0316906370a0823190612e77903090600401615465565b602060405180830381865afa158015612e94573d6000803e3d6000fd5b505050506040513d601f19601f82011682018060405250810190612eb89190615a80565b905081811115613044576000612ece8383615b63565b90506000612edd600283616125565b90506000612f478260cb60189054906101000a900460ff16738f3cf7ad23cd3cadbd9735aff958023239c6a0636001600160a01b031663313ce5676040518163ffffffff1660e01b8152600401602060405180830381865afa1580156126b2573d6000803e3d6000fd5b6040805160808101825260ca546001600160601b0319606091821b1660a0830152601960ea1b60b4830152738f3cf7ad23cd3cadbd9735aff958023239c6a06360601b60b7830152825160ab81840301815260cb830184528252306020830152918101859052919250600091908101612fbf84613fae565b905260405163b858183f60e01b81529091507368b3465833fb72a70ecdf485e0e4c7bd8665fc459063b858183f90612ffb9084906004016161ed565b6020604051808303816000875af115801561301a573d6000803e3d6000fd5b505050506040513d601f19601f8201168201806040525081019061303e9190615a80565b50505050505b6040516370a0823160e01b8152600090738f3cf7ad23cd3cadbd9735aff958023239c6a063906370a082319061307e903090600401615465565b602060405180830381865afa15801561309b573d6000803e3d6000fd5b505050506040513d601f19601f820116820180604052508101906130bf9190615a80565b905080156131455760405163a39fc2c560e01b815273195f7b233947d51f4c3b756ad41a5ddb34cebce09063a39fc2c5906131009084903090600401615e75565b6020604051808303816000875af115801561311f573d6000803e3d6000fd5b505050506040513d601f19601f820116820180604052508101906131439190615a80565b505b6040516370a0823160e01b8152600090600080516020616809833981519152906370a0823190613179903090600401615465565b602060405180830381865afa158015613196573d6000803e3d6000fd5b505050506040513d601f19601f820116820180604052508101906131ba9190615a80565b60ca546040516370a0823160e01b81529192506001600160a01b0316906370a08231906131eb903090600401615465565b602060405180830381865afa158015613208573d6000803e3d6000fd5b505050506040513d601f19601f8201168201806040525081019061322c9190615a80565b925060008111801561323e5750600083115b156133b85760ca546040516326283ecf60e21b81526001600160a01b03909116600482015260008051602061680983398151915260248201526001604482015260648101849052608481018290526000908190600080516020616749833981519152906398a0fb3c9060a401606060405180830381865afa1580156132c7573d6000803e3d6000fd5b505050506040513d601f19601f820116820180604052508101906132eb919061623b565b5060ca54604051635a47ddc360e01b81526001600160a01b0390911660048201526000805160206168098339815191526024820152600160448201819052606482018490526084820183905260a4820181905260c48201523060e482015242610104820152919350915060008051602061674983398151915290635a47ddc390610124016060604051808303816000875af115801561338e573d6000803e3d6000fd5b505050506040513d601f19601f820116820180604052508101906133b2919061623b565b50505050505b6040516370a0823160e01b81526000906000805160206167c9833981519152906370a08231906133ec903090600401615465565b602060405180830381865afa158015613409573d6000803e3d6000fd5b505050506040513d601f19601f8201168201806040525081019061342d9190615a80565b90508015610da25760405163b6b55f2560e01b8152600481018290526000805160206167898339815191529063b6b55f2590602401611ef5565b60008260ff168260ff16111561349d576134818383616269565b61348c90600a6160ff565b613496908561610e565b90506112e3565b6134a78284616269565b6134b290600a6160ff565b6134969085616125565b60006134c66116a4565b905060006134d38261257b565b60c9549091506001600160a01b03166134ec8285613fcb565b6001600160a01b0316146111645760405162461bcd60e51b815260206004820152601e60248201527f4261736553747261746567793a3a496e76616c69645369676e617475726500006044820152606401610c7e565b600061355461354f611893565b613fef565b60ca546040516370a0823160e01b81526001600160a01b03909116906370a08231906118c7903090600401615465565b6000806000806135926122de565b90508581106135b0576135a58682615b63565b9350600092506135c1565b600093506135be8187615b63565b92505b6135d36135ce8587615b76565b6142e3565b505060ca546040516370a0823160e01b81526000916001600160a01b0316906370a0823190613606903090600401615465565b602060405180830381865afa158015613623573d6000803e3d6000fd5b505050506040513d601f19601f820116820180604052508101906136479190615a80565b905084811161365c5780945060009250613672565b61366f6136698683615b63565b87614418565b92505b50509250925092565b60cd54604051630dc6346160e01b815260009161010090046001600160a01b031690630dc63461906136b590879087908790600401616282565b602060405180830381865afa1580156136d2573d6000803e3d6000fd5b505050506040513d601f19601f820116820180604052508101906136f69190615a80565b60cd5460ca54604051633920455b60e11b81529293506001600160a01b036101009092048216926372408ab692859261373c929116908a908a908a908a906004016162b0565b6000604051808303818588803b15801561375557600080fd5b505af1158015612b61573d6000803e3d6000fd5b60cb5460408051606083811b6001600160601b03199081166020840152309182901b16603483015282516028818403018152604890920190925260655490926000926001600160a01b03909216916340a7bb109161ffff600160a01b909104169086856137d461442e565b6040518663ffffffff1660e01b81526004016137f49594939291906162ed565b6040805180830381865afa158015613810573d6000803e3d6000fd5b505050506040513d601f19601f820116820180604052508101906138349190615dfe565b509050804710156138605760405162fae2d560e21b815260048101829052476024820152604401610c7e565b60655460cb546001600160a01b039091169063c5803100908390600160a01b900461ffff168587308061389161442e565b6040518863ffffffff1660e01b81526004016138b296959493929190616341565b6000604051808303818588803b1580156138cb57600080fd5b505af11580156138df573d6000803e3d6000fd5b5050505050505050565b60cb5461ffff858116600160a01b90920416146139535760405162461bcd60e51b815260206004820152602260248201527f4261736553747261746567793a3a5661756c74436861696e49644d69736d61746044820152610c6d60f31b6064820152608401610c7e565b600061396184826014613a51565b6040516020016139719190615e22565b60405160208183030381529060405261398990615e3e565b60cb5460609190911c91506001600160a01b031681146139f65760405162461bcd60e51b815260206004820152602260248201527f4261736553747261746567793a3a5661756c74416464726573734d69736d61746044820152610c6d60f31b6064820152608401610c7e565b610da28261445e565b603380546001600160a01b038381166001600160a01b0319831681179093556040519116919082907f8be0079c531659141344cd1fd0a4f28419497f9722a3daafe3b4186f6b6457e090600090a35050565b606081613a5f81601f615b76565b1015613a9e5760405162461bcd60e51b815260206004820152600e60248201526d736c6963655f6f766572666c6f7760901b6044820152606401610c7e565b613aa88284615b76565b84511015613aec5760405162461bcd60e51b8152602060048201526011602482015270736c6963655f6f75744f66426f756e647360781b6044820152606401610c7e565b606082158015613b0b5760405191506000825260208201604052613b55565b6040519150601f8416801560200281840101858101878315602002848b0101015b81831015613b44578051835260209283019201613b2c565b5050858452601f01601f1916604052505b50949350505050565b60c9546001600160a01b0316331480613b7657503330145b6117e85760405162461bcd60e51b815260206004820152602260248201527f4261736553747261746567793a3a4f6e6c79537472617465676973744f725365604482015261363360f11b6064820152608401610c7e565b6000606060008060008661ffff166001600160401b03811115613bf257613bf26156cb565b6040519080825280601f01601f191660200182016040528015613c1c576020820181803683370190505b50905060008087516020890160008d8df191503d925086831115613c3e578692505b828152826000602083013e9093509150505b94509492505050565b8180519060200120609760008761ffff1661ffff16815260200190815260200160002085604051613c8a9190615e22565b9081526040805191829003602090810183206001600160401b0388166000908152915220919091557fe183f33de2837795525b4792ca4cd60535bd77c53b7e7030060bfcf5734d6b0c90613ce790879087908790879087906163a8565b60405180910390a15050505050565b6000613d4b826040518060400160405280602081526020017f5361666545524332303a206c6f772d6c6576656c2063616c6c206661696c6564815250856001600160a01b031661457f9092919063ffffffff16565b9050805160001480613d6c575080806020019051810190613d6c91906161d0565b6111645760405162461bcd60e51b815260206004820152602a60248201527f5361666545524332303a204552433230206f7065726174696f6e20646964206e6044820152691bdd081cdd58d8d9595960b21b6064820152608401610c7e565b600054610100900460ff16613df25760405162461bcd60e51b8152600401610c7e90616185565b613dfa61458e565b610e8e816145be565b613e0d828261190d565b6111e357613e1a81614607565b613e25836020614619565b604051602001613e369291906163fa565b60408051601f198184030181529082905262461bcd60e51b8252610c7e916004016154c9565b80600003613e675750565b6101355460ca546001600160a01b03918216916310cabd1d916000805160206167a9833981519152911684612710613ea2612648606461610e565b613eac9190616125565b6040518563ffffffff1660e01b8152600401613ecb9493929190616469565b600060405180830381600087803b158015613ee557600080fd5b505af1925050508015613ef6575060015b613f75573d808015613f24576040519150601f19603f3d011682016040523d82523d6000602084013e613f29565b606091505b50613f33826147b4565b80604051613f419190615e22565b604051908190038120907fab2169d52de19835827d46106e22dfb1c4261618a79928c57f4b4b0c2cfe4f9390600090a25050565b60ca5460405182916001600160a01b0316906000805160206167a98339815191529060008051602061676983398151915290600090a450565b600061271060cc5483613fc1919061610e565b610d369190616125565b6000806000613fda8585614940565b91509150613fe781614985565b509392505050565b6000805160206167898339815191526001600160a01b0316633d18b9126040518163ffffffff1660e01b8152600401600060405180830381600087803b15801561403857600080fd5b505af115801561404c573d6000803e3d6000fd5b50506040516370a0823160e01b815261408592506000805160206167a983398151915291506370a0823190612e00903090600401615465565b806000036140905750565b604051632e1a7d4d60e01b81526004810182905260008051602061678983398151915290632e1a7d4d90602401600060405180830381600087803b1580156140d757600080fd5b505af11580156140eb573d6000803e3d6000fd5b505060ca546040516310e1b98f60e21b81526000935083925060008051602061674983398151915291634386e63c91614145916001600160a01b031690600080516020616809833981519152906001908990600401615dd3565b6040805180830381865afa158015614161573d6000803e3d6000fd5b505050506040513d601f19601f820116820180604052508101906141859190615dfe565b60ca54919350915060008051602061674983398151915290630dede6c4906001600160a01b03166000805160206168098339815191526001876141c788613fae565b6141d088613fae565b6040516001600160e01b031960e089901b1681526001600160a01b03968716600482015295909416602486015291151560448501526064840152608483015260a48201523060c48201524260e48201526101040160408051808303816000875af1158015614242573d6000803e3d6000fd5b505050506040513d601f19601f820116820180604052508101906142669190615dfe565b50506040516370a0823160e01b815261116490600080516020616809833981519152906370a082319061429d903090600401615465565b602060405180830381865afa1580156142ba573d6000803e3d6000fd5b505050506040513d601f19601f820116820180604052508101906142de9190615a80565b614aca565b60ca546040516370a0823160e01b8152600091829182916001600160a01b0316906370a0823190614318903090600401615465565b602060405180830381865afa158015614335573d6000803e3d6000fd5b505050506040513d601f19601f820116820180604052508101906143599190615a80565b905083811061436d57509192600092509050565b61437f61437a8286615b63565b614bda565b60ca546040516370a0823160e01b81526001600160a01b03909116906370a08231906143af903090600401615465565b602060405180830381865afa1580156143cc573d6000803e3d6000fd5b505050506040513d601f19601f820116820180604052508101906143f09190615a80565b90508084111561440e579150816144078185615b63565b9150614412565b8392505b50915091565b600081831061442757816112e3565b5090919050565b60408051600160f01b6020820152620f424060228083019190915282518083039091018152604290910190915290565b6000818060200190518101906144749190616494565b9050600381600481111561448a5761448a615ba2565b036144d5576000828060200190518101906144a591906164b5565b9150506144b58160000151612d6a565b805160405190815260008051602061682983398151915290602001611bef565b60008160048111156144e9576144e9615ba2565b036145105760008280602001905181019061450491906164f8565b91505061116481614cbb565b600481600481111561452457614524615ba2565b036111e35760008280602001905181019061453f9190616563565b91505061454f8160000151614de5565b80516040517f7c9a2d2ec51230d7dbed27f113a325b7e20aef7b049e68b2339257b5edff5bea91611bef91615465565b6060611cad8484600085614e24565b600054610100900460ff166145b55760405162461bcd60e51b8152600401610c7e90616185565b6117e8336139ff565b600054610100900460ff166145e55760405162461bcd60e51b8152600401610c7e90616185565b606580546001600160a01b0319166001600160a01b0392909216919091179055565b6060610d366001600160a01b03831660145b6060600061462883600261610e565b614633906002615b76565b6001600160401b0381111561464a5761464a6156cb565b6040519080825280601f01601f191660200182016040528015614674576020820181803683370190505b509050600360fc1b8160008151811061468f5761468f6165b1565b60200101906001600160f81b031916908160001a905350600f60fb1b816001815181106146be576146be6165b1565b60200101906001600160f81b031916908160001a90535060006146e284600261610e565b6146ed906001615b76565b90505b6001811115614765576f181899199a1a9b1b9c1cb0b131b232b360811b85600f1660108110614721576147216165b1565b1a60f81b828281518110614737576147376165b1565b60200101906001600160f81b031916908160001a90535060049490941c9361475e816165c7565b90506146f0565b5083156112e35760405162461bcd60e51b815260206004820181905260248201527f537472696e67733a20686578206c656e67746820696e73756666696369656e746044820152606401610c7e565b60408051600280825260608201909252600091816020015b60408051606081018252600080825260208083018290529282015282526000199092019101816147cc575050604080516060810182526000805160206167a9833981519152815260008051602061680983398151915260208201526000918101829052825192935091839190614844576148446165b1565b60209081029190910181019190915260408051606081018252600080516020616809833981519152815260ca546001600160a01b03169281019290925260019082018190528251839190811061489c5761489c6165b1565b602002602001018190525060006148b283611939565b905060008051602061674983398151915263f41766d8846148d284613fae565b8530426040518663ffffffff1660e01b81526004016148f59594939291906165de565b6000604051808303816000875af192505050801561493557506040513d6000823e601f3d908101601f19168201604052614932919081019061666d565b60015b156111645750505050565b60008082516041036149765760208301516040840151606085015160001a61496a87828585614eff565b9450945050505061497e565b506000905060025b9250929050565b600081600481111561499957614999615ba2565b036149a15750565b60018160048111156149b5576149b5615ba2565b036149fd5760405162461bcd60e51b815260206004820152601860248201527745434453413a20696e76616c6964207369676e617475726560401b6044820152606401610c7e565b6002816004811115614a1157614a11615ba2565b03614a5e5760405162461bcd60e51b815260206004820152601f60248201527f45434453413a20696e76616c6964207369676e6174757265206c656e677468006044820152606401610c7e565b6003816004811115614a7257614a72615ba2565b03610e8e5760405162461bcd60e51b815260206004820152602260248201527f45434453413a20696e76616c6964207369676e6174757265202773272076616c604482015261756560f01b6064820152608401610c7e565b80600003614ad55750565b6101355460ca546001600160a01b03918216916310cabd1d91600080516020616809833981519152911684612710614b10612648606461610e565b614b1a9190616125565b6040518563ffffffff1660e01b8152600401614b399493929190616469565b600060405180830381600087803b158015614b5357600080fd5b505af1925050508015614b64575060015b614ba1573d808015614b92576040519150601f19603f3d011682016040523d82523d6000602084013e614b97565b606091505b50613f3382614fb6565b60ca5460405182916001600160a01b0316906000805160206168098339815191529060008051602061676983398151915290600090a450565b80600003614be55750565b6000614bf261089c612155565b9050818110614c91576000805160206167898339815191526001600160a01b0316633d18b9126040518163ffffffff1660e01b8152600401600060405180830381600087803b158015614c4457600080fd5b505af1158015614c58573d6000803e3d6000fd5b50506040516370a0823160e01b81526111e392506000805160206167a983398151915291506370a0823190612e00903090600401615465565b6000614cb0614ca3610c178486615b63565b614cab611893565b614418565b905061116481613fef565b602080820151600090815260cf909152604090205460ff1615614d205760405162461bcd60e51b815260206004820152601e60248201527f4261736553747261746567793a3a416c726561647957697468647261776e00006044820152606401610c7e565b600080614d3083600001516142e3565b91509150600060016040518060800160405280306001600160a01b031681526020018581526020018481526020018660200151815250604051602001614d77929190616706565b60408051601f1981840301815291905290508215614db85760cb54614db390849061ffff600160a01b820416906001600160a01b03168461367b565b614dc1565b614dc181613769565b505050602090810151600090815260cf90915260409020805460ff19166001179055565b614dee81615087565b60ca546040516370a0823160e01b8152610e8e9183916001600160a01b03909116906370a0823190611a10903090600401615465565b606082471015614e855760405162461bcd60e51b815260206004820152602660248201527f416464726573733a20696e73756666696369656e742062616c616e636520666f6044820152651c8818d85b1b60d21b6064820152608401610c7e565b600080866001600160a01b03168587604051614ea19190615e22565b60006040518083038185875af1925050503d8060008114614ede576040519150601f19603f3d011682016040523d82523d6000602084013e614ee3565b606091505b5091509150614ef48783838761529d565b979650505050505050565b6000806fa2a8918ca85bafe22016d0b997e4df60600160ff1b03831115614f2c5750600090506003613c50565b6040805160008082526020820180845289905260ff881692820192909252606081018690526080810185905260019060a0016020604051602081039080840390855afa158015614f80573d6000803e3d6000fd5b5050604051601f1901519150506001600160a01b038116614fa957600060019250925050613c50565b9660009650945050505050565b6000614fc1826112ea565b90506000805160206167498339815191526313dcfc5983614fe184613fae565b60ca5460405160e085901b6001600160e01b03191681526004810193909352602483019190915260008051602061680983398151915260448301526001600160a01b03166064820152600160848201523060a48201524260c482015260e4016000604051808303816000875af115801561505f573d6000803e3d6000fd5b505050506040513d6000823e601f3d908101601f19168201604052611164919081019061666d565b600080516020616789833981519152632e1a7d4d6150a3611893565b6040518263ffffffff1660e01b81526004016150c191815260200190565b600060405180830381600087803b1580156150db57600080fd5b505af11580156150ef573d6000803e3d6000fd5b50506040516370a0823160e01b815261518192508391506000805160206167c9833981519152906370a082319061512a903090600401615465565b602060405180830381865afa158015615147573d6000803e3d6000fd5b505050506040513d601f19601f8201168201806040525081019061516b9190615a80565b6000805160206167c98339815191529190612902565b6040516370a0823160e01b815261520f908290600080516020616809833981519152906370a08231906151b8903090600401615465565b602060405180830381865afa1580156151d5573d6000803e3d6000fd5b505050506040513d601f19601f820116820180604052508101906151f99190615a80565b6000805160206168098339815191529190612902565b6040516370a0823160e01b8152610e8e9082906000805160206167a9833981519152906370a0823190615246903090600401615465565b602060405180830381865afa158015615263573d6000803e3d6000fd5b505050506040513d601f19601f820116820180604052508101906152879190615a80565b6000805160206167a98339815191529190612902565b6060831561530a578251600003615303576152b785612958565b6153035760405162461bcd60e51b815260206004820152601d60248201527f416464726573733a2063616c6c20746f206e6f6e2d636f6e74726163740000006044820152606401610c7e565b5081611cad565b611cad838381511561531f5781518083602001fd5b8060405162461bcd60e51b8152600401610c7e91906154c9565b803561ffff8116811461534b57600080fd5b919050565b60008083601f84011261536257600080fd5b5081356001600160401b0381111561537957600080fd5b60208301915083602082850101111561497e57600080fd5b80356001600160401b038116811461534b57600080fd5b600080600080600080608087890312156153c157600080fd5b6153ca87615339565b955060208701356001600160401b03808211156153e657600080fd5b6153f28a838b01615350565b909750955085915061540660408a01615391565b9450606089013591508082111561541c57600080fd5b5061542989828a01615350565b979a9699509497509295939492505050565b60006020828403121561544d57600080fd5b81356001600160e01b0319811681146112e357600080fd5b6001600160a01b0391909116815260200190565b60005b8381101561549457818101518382015260200161547c565b50506000910152565b600081518084526154b5816020860160208601615479565b601f01601f19169290920160200192915050565b6020815260006112e3602083018461549d565b6000602082840312156154ee57600080fd5b6112e382615339565b6000806040838503121561550a57600080fd5b61551383615339565b946020939093013593505050565b6001600160a01b0381168114610e8e57600080fd5b60006020828403121561554857600080fd5b81356112e381615521565b600080600080600080600080610100898b03121561557057600080fd5b883561557b81615521565b9750602089013561558b81615521565b9650604089013561559b81615521565b955060608901356155ab81615521565b94506155b960808a01615339565b93506155c760a08a01615339565b925060c08901356155d781615521565b915060e08901356155e781615521565b809150509295985092959890939650565b6001600160a01b03169052565b60006020828403121561561757600080fd5b5035919050565b6000806040838503121561563157600080fd5b82359150602083013561564381615521565b809150509250929050565b60008060006040848603121561566357600080fd5b61566c84615339565b925060208401356001600160401b0381111561568757600080fd5b61569386828701615350565b9497909650939450505050565b8015158114610e8e57600080fd5b6000602082840312156156c057600080fd5b81356112e3816156a0565b634e487b7160e01b600052604160045260246000fd5b604051602081016001600160401b0381118282101715615703576157036156cb565b60405290565b604051601f8201601f191681016001600160401b0381118282101715615731576157316156cb565b604052919050565b60006001600160401b03821115615752576157526156cb565b50601f01601f191660200190565b600082601f83011261577157600080fd5b813561578461577f82615739565b615709565b81815284602083860101111561579957600080fd5b816020850160208301376000918101602001919091529392505050565b600080600080600060a086880312156157ce57600080fd5b8535945060208601359350604086013592506060860135915060808601356001600160401b0381111561580057600080fd5b61580c88828901615760565b9150509295509295909350565b60008060006060848603121561582e57600080fd5b61583784615339565b925060208401356001600160401b0381111561585257600080fd5b61585e86828701615760565b92505061586d60408501615391565b90509250925092565b6000806040838503121561588957600080fd5b61589283615339565b91506158a060208401615339565b90509250929050565b60008060008060008060c087890312156158c257600080fd5b6158cb87615339565b955060208701356001600160401b03808211156158e757600080fd5b6158f38a838b01615760565b9650604089013595506060890135915061590c82615521565b9093506080880135925060a0880135908082111561592957600080fd5b5061593689828a01615760565b9150509295509295509295565b60008060008060006080868803121561595b57600080fd5b61596486615339565b945061597260208701615339565b93506040860135925060608601356001600160401b0381111561599457600080fd5b6159a088828901615350565b969995985093965092949392505050565b6000806000606084860312156159c657600080fd5b6159cf84615339565b92506159dd60208501615339565b9150604084013590509250925092565b60008060008060808587031215615a0357600080fd5b8435615a0e81615521565b93506020850135615a1e81615521565b93969395505050506040820135916060013590565b60008060008060808587031215615a4957600080fd5b615a5285615339565b9350615a6060208601615339565b92506040850135615a7081615521565b9396929550929360600135925050565b600060208284031215615a9257600080fd5b5051919050565b600181811c90821680615aad57607f821691505b602082108103615acd57634e487b7160e01b600052602260045260246000fd5b50919050565b8183823760009101908152919050565b600060208284031215615af557600080fd5b815160ff811681146112e357600080fd5b81835281816020850137506000828201602090810191909152601f909101601f19169091010190565b61ffff84168152604060208201526000612572604083018486615b06565b634e487b7160e01b600052601160045260246000fd5b81810381811115610d3657610d36615b4d565b80820180821115610d3657610d36615b4d565b600060018201615b9b57615b9b615b4d565b5060010190565b634e487b7160e01b600052602160045260246000fd5b60058110615bd657634e487b7160e01b600052602160045260246000fd5b9052565b615be48184615bb8565b60406020820152615bf96040820183516155f8565b6020820151606082015260408201516080820152606082015160a0820152608082015160c082015260a082015160e0820152600060c0830151610100818185015260e085015191506101208281860152818601519250610140915082828601528086015192505061016082818601528186015192508061018086015250506125726101a084018261549d565b6001600160a01b03929092168252602082015260400190565b8284823760609190911b6001600160601b0319169101908152601401919050565b601f82111561116457600081815260208120601f850160051c81016020861015615ce65750805b601f850160051c820191505b81811015610cfd57828155600101615cf2565b600019600383901b1c191660019190911b1790565b81516001600160401b03811115615d3357615d336156cb565b615d4781615d418454615a99565b84615cbf565b602080601f831160018114615d765760008415615d645750858301515b615d6e8582615d05565b865550610cfd565b600085815260208120601f198616915b82811015615da557888601518255948401946001909101908401615d86565b5085821015615dc35787850151600019600388901b60f8161c191681555b5050505050600190811b01905550565b6001600160a01b03948516815292909316602083015215156040820152606081019190915260800190565b60008060408385031215615e1157600080fd5b505080516020909101519092909150565b60008251615e34818460208701615479565b9190910192915050565b805160208201516001600160601b03198082169291906014831015615e6d5780818460140360031b1b83161693505b505050919050565b9182526001600160a01b0316602082015260400190565b600061ffff808816835280871660208401525084604083015260806060830152614ef4608083018486615b06565b61ffff86168152608060208201526000615ed8608083018688615b06565b6001600160401b0394909416604083015250606001529392505050565b6001600160401b03831115615f0c57615f0c6156cb565b615f2083615f1a8354615a99565b83615cbf565b6000601f841160018114615f4e5760008515615f3c5750838201355b615f468682615d05565b845550610da2565b600083815260209020601f19861690835b82811015615f7f5786850135825560209485019460019092019101615f5f565b5086821015615f9c5760001960f88860031b161c19848701351681555b505060018560011b0183555050505050565b600060208284031215615fc057600080fd5b81516001600160401b03811115615fd657600080fd5b8201601f81018413615fe757600080fd5b8051615ff561577f82615739565b81815285602083850101111561600a57600080fd5b612572826020830160208601615479565b600181815b8085111561605657816000190482111561603c5761603c615b4d565b8085161561604957918102915b93841c9390800290616020565b509250929050565b60008261606d57506001610d36565b8161607a57506000610d36565b8160018114616090576002811461609a576160b6565b6001915050610d36565b60ff8411156160ab576160ab615b4d565b50506001821b610d36565b5060208310610133831016604e8410600b84101617156160d9575081810a610d36565b6160e3838361601b565b80600019048211156160f7576160f7615b4d565b029392505050565b60006112e360ff84168361605e565b8082028115828204841417610d3657610d36615b4d565b60008261614257634e487b7160e01b600052601260045260246000fd5b500490565b61ffff85168152608060208201526000616164608083018661549d565b6001600160401b03851660408401528281036060840152614ef4818561549d565b6020808252602b908201527f496e697469616c697a61626c653a20636f6e7472616374206973206e6f74206960408201526a6e697469616c697a696e6760a81b606082015260800190565b6000602082840312156161e257600080fd5b81516112e3816156a0565b60208152600082516080602084015261620960a084018261549d565b905060018060a01b03602085015116604084015260408401516060840152606084015160808401528091505092915050565b60008060006060848603121561625057600080fd5b8351925060208401519150604084015190509250925092565b60ff8281168282160390811115610d3657610d36615b4d565b61ffff841681526001600160a01b03831660208201526060604082018190526000906125729083018461549d565b6001600160a01b0386811682526020820186905261ffff851660408301528316606082015260a060808201819052600090614ef49083018461549d565b61ffff861681526001600160a01b038516602082015260a06040820181905260009061631b9083018661549d565b84151560608401528281036080840152616335818561549d565b98975050505050505050565b61ffff8716815260c06020820152600061635e60c083018861549d565b8281036040840152616370818861549d565b6001600160a01b0387811660608601528616608085015283810360a0850152905061639b818561549d565b9998505050505050505050565b61ffff8616815260a0602082015260006163c560a083018761549d565b6001600160401b038616604084015282810360608401526163e6818661549d565b90508281036080840152616335818561549d565b76020b1b1b2b9b9a1b7b73a3937b61d1030b1b1b7bab73a1604d1b81526000835161642c816017850160208801615479565b7001034b99036b4b9b9b4b733903937b6329607d1b601791840191820152835161645d816028840160208801615479565b01602801949350505050565b6001600160a01b039485168152929093166020830152604082015260ff909116606082015260800190565b6000602082840312156164a657600080fd5b8151600581106112e357600080fd5b60008082840360408112156164c957600080fd5b835192506020601f19820112156164df57600080fd5b506164e86156e1565b6020939093015183525092909150565b600080828403606081121561650c57600080fd5b835192506040601f198201121561652257600080fd5b50604080519081016001600160401b0381118282101715616545576165456156cb565b60409081526020858101518352940151938101939093525092909150565b600080828403604081121561657757600080fd5b835192506020601f198201121561658d57600080fd5b506165966156e1565b60208401516165a481615521565b8152919491935090915050565b634e487b7160e01b600052603260045260246000fd5b6000816165d6576165d6615b4d565b506000190190565b600060a0820187835260208781850152604060a08186015282885180855260c087019150838a01945060005b8181101561664757855180516001600160a01b0390811685528682015116868501528401511515848401529484019460609092019160010161660a565b50508094505050505061665d60608301856155f8565b8260808301529695505050505050565b6000602080838503121561668057600080fd5b82516001600160401b038082111561669757600080fd5b818501915085601f8301126166ab57600080fd5b8151818111156166bd576166bd6156cb565b8060051b91506166ce848301615709565b81815291830184019184810190888411156166e857600080fd5b938501935b83851015616335578451825293850193908501906166ed565b60a081016167148285615bb8565b60018060a01b038351166020830152602083015160408301526040830151606083015260608301516080830152939250505056fe000000000000000000000000cc25c0fd84737f44a7d38649b69491bbf0c7f083ea368a40e9570069bb8e6511d668293ad2e1f03b0d982431fd223de9f3b70ca600000000000000000000000097bd59a8202f8263c2ec39cf6cf6b438d0b458760000000000000000000000007238390d5f6f64e67c3211c343a410e2a3dec142000000000000000000000000d17cb0f162f133e339c0bbfc18c36c357e681d6b6d1efadb607420c71e8f966ae6611a2b817ec83a98f82ae24284fd004cf9d40c00000000000000000000000040379a439d4f6795b6fc9aa5687db461677a2dbab0c58532a125fc3c0adccaef396bf65344a4d5781cec2e4c593e6b611d75f150a2646970667358221220da58f76e6f33f419b4f63466029c0d98f83f3f63b18e97178e00323a0700b4e064736f6c63430008130033",
  "linkReferences": {},
  "deployedLinkReferences": {}
}