{
  "_format": "hh-sol-artifact-1",
  "contractName": "PearlStrategy",
  "sourceName": "contracts/strategies/PearlStrategy.sol",
  "abi": [
    {
      "inputs": [
        {
          "internalType": "uint256",
          "name": "messageType",
          "type": "uint256"
        }
      ],
      "name": "IncorrectMessageType",
      "type": "error"
    },
    {
      "inputs": [
        {
          "internalType": "uint256",
          "name": "amount",
          "type": "uint256"
        },
        {
          "internalType": "uint256",
          "name": "balance",
          "type": "uint256"
        }
      ],
      "name": "InsufficientFunds",
      "type": "error"
    },
    {
      "inputs": [],
      "name": "SwapHelperOnly",
      "type": "error"
    },
    {
      "anonymous": false,
      "inputs": [
        {
          "indexed": false,
          "internalType": "uint256",
          "name": "debtOutstanding",
          "type": "uint256"
        }
      ],
      "name": "AdjustedPosition",
      "type": "event"
    },
    {
      "anonymous": false,
      "inputs": [
        {
          "indexed": true,
          "internalType": "address",
          "name": "src",
          "type": "address"
        },
        {
          "indexed": true,
          "internalType": "address",
          "name": "dst",
          "type": "address"
        },
        {
          "indexed": true,
          "internalType": "uint256",
          "name": "amount",
          "type": "uint256"
        },
        {
          "indexed": false,
          "internalType": "bytes",
          "name": "lowLevelErrorData",
          "type": "bytes"
        }
      ],
      "name": "EmergencyQuoteOnAlternativeDEX",
      "type": "event"
    },
    {
      "anonymous": false,
      "inputs": [
        {
          "indexed": true,
          "internalType": "address",
          "name": "src",
          "type": "address"
        },
        {
          "indexed": true,
          "internalType": "address",
          "name": "dst",
          "type": "address"
        },
        {
          "indexed": true,
          "internalType": "uint256",
          "name": "amount",
          "type": "uint256"
        },
        {
          "indexed": false,
          "internalType": "bytes",
          "name": "lowLevelErrorData",
          "type": "bytes"
        }
      ],
      "name": "EmergencySwapOnAlternativeDEX",
      "type": "event"
    },
    {
      "anonymous": false,
      "inputs": [
        {
          "indexed": false,
          "internalType": "uint8",
          "name": "version",
          "type": "uint8"
        }
      ],
      "name": "Initialized",
      "type": "event"
    },
    {
      "anonymous": false,
      "inputs": [
        {
          "indexed": false,
          "internalType": "uint16",
          "name": "_srcChainId",
          "type": "uint16"
        },
        {
          "indexed": false,
          "internalType": "bytes",
          "name": "_srcAddress",
          "type": "bytes"
        },
        {
          "indexed": false,
          "internalType": "uint64",
          "name": "_nonce",
          "type": "uint64"
        },
        {
          "indexed": false,
          "internalType": "bytes",
          "name": "_payload",
          "type": "bytes"
        },
        {
          "indexed": false,
          "internalType": "bytes",
          "name": "_reason",
          "type": "bytes"
        }
      ],
      "name": "MessageFailed",
      "type": "event"
    },
    {
      "anonymous": false,
      "inputs": [
        {
          "indexed": true,
          "internalType": "address",
          "name": "src",
          "type": "address"
        },
        {
          "indexed": true,
          "internalType": "address",
          "name": "dst",
          "type": "address"
        },
        {
          "indexed": true,
          "internalType": "uint256",
          "name": "amountOut",
          "type": "uint256"
        },
        {
          "indexed": false,
          "internalType": "uint256",
          "name": "amountIn",
          "type": "uint256"
        }
      ],
      "name": "Notified",
      "type": "event"
    },
    {
      "anonymous": false,
      "inputs": [
        {
          "indexed": true,
          "internalType": "address",
          "name": "previousOwner",
          "type": "address"
        },
        {
          "indexed": true,
          "internalType": "address",
          "name": "newOwner",
          "type": "address"
        }
      ],
      "name": "OwnershipTransferred",
      "type": "event"
    },
    {
      "anonymous": false,
      "inputs": [
        {
          "indexed": true,
          "internalType": "address",
          "name": "src",
          "type": "address"
        },
        {
          "indexed": true,
          "internalType": "address",
          "name": "dst",
          "type": "address"
        },
        {
          "indexed": true,
          "internalType": "uint256",
          "name": "amount",
          "type": "uint256"
        }
      ],
      "name": "Quote",
      "type": "event"
    },
    {
      "anonymous": false,
      "inputs": [
        {
          "indexed": false,
          "internalType": "uint16",
          "name": "_srcChainId",
          "type": "uint16"
        },
        {
          "indexed": false,
          "internalType": "bytes",
          "name": "_srcAddress",
          "type": "bytes"
        },
        {
          "indexed": false,
          "internalType": "uint64",
          "name": "_nonce",
          "type": "uint64"
        },
        {
          "indexed": false,
          "internalType": "bytes32",
          "name": "_payloadHash",
          "type": "bytes32"
        }
      ],
      "name": "RetryMessageSuccess",
      "type": "event"
    },
    {
      "anonymous": false,
      "inputs": [
        {
          "indexed": false,
          "internalType": "uint16",
          "name": "_dstChainId",
          "type": "uint16"
        },
        {
          "indexed": false,
          "internalType": "uint16",
          "name": "_type",
          "type": "uint16"
        },
        {
          "indexed": false,
          "internalType": "uint256",
          "name": "_minDstGas",
          "type": "uint256"
        }
      ],
      "name": "SetMinDstGas",
      "type": "event"
    },
    {
      "anonymous": false,
      "inputs": [
        {
          "indexed": false,
          "internalType": "address",
          "name": "precrime",
          "type": "address"
        }
      ],
      "name": "SetPrecrime",
      "type": "event"
    },
    {
      "anonymous": false,
      "inputs": [
        {
          "indexed": false,
          "internalType": "uint16",
          "name": "_remoteChainId",
          "type": "uint16"
        },
        {
          "indexed": false,
          "internalType": "bytes",
          "name": "_path",
          "type": "bytes"
        }
      ],
      "name": "SetTrustedRemote",
      "type": "event"
    },
    {
      "anonymous": false,
      "inputs": [
        {
          "indexed": false,
          "internalType": "uint16",
          "name": "_remoteChainId",
          "type": "uint16"
        },
        {
          "indexed": false,
          "internalType": "bytes",
          "name": "_remoteAddress",
          "type": "bytes"
        }
      ],
      "name": "SetTrustedRemoteAddress",
      "type": "event"
    },
    {
      "anonymous": false,
      "inputs": [
        {
          "indexed": true,
          "internalType": "address",
          "name": "token",
          "type": "address"
        },
        {
          "indexed": false,
          "internalType": "uint256",
          "name": "amount",
          "type": "uint256"
        },
        {
          "indexed": false,
          "internalType": "address",
          "name": "sender",
          "type": "address"
        }
      ],
      "name": "SgReceived",
      "type": "event"
    },
    {
      "anonymous": false,
      "inputs": [
        {
          "indexed": false,
          "internalType": "address",
          "name": "newStrategy",
          "type": "address"
        }
      ],
      "name": "StrategyMigrated",
      "type": "event"
    },
    {
      "anonymous": false,
      "inputs": [
        {
          "indexed": false,
          "internalType": "uint256",
          "name": "profit",
          "type": "uint256"
        },
        {
          "indexed": false,
          "internalType": "uint256",
          "name": "loss",
          "type": "uint256"
        },
        {
          "indexed": false,
          "internalType": "uint256",
          "name": "debtPayment",
          "type": "uint256"
        },
        {
          "indexed": false,
          "internalType": "uint256",
          "name": "giveToStrategy",
          "type": "uint256"
        },
        {
          "indexed": false,
          "internalType": "uint256",
          "name": "requestFromStrategy",
          "type": "uint256"
        },
        {
          "indexed": false,
          "internalType": "uint256",
          "name": "creditAvailable",
          "type": "uint256"
        },
        {
          "indexed": false,
          "internalType": "uint256",
          "name": "totalAssets",
          "type": "uint256"
        }
      ],
      "name": "StrategyReported",
      "type": "event"
    },
    {
      "anonymous": false,
      "inputs": [
        {
          "indexed": true,
          "internalType": "address",
          "name": "src",
          "type": "address"
        },
        {
          "indexed": true,
          "internalType": "address",
          "name": "dst",
          "type": "address"
        },
        {
          "indexed": true,
          "internalType": "uint256",
          "name": "amount",
          "type": "uint256"
        }
      ],
      "name": "Swap",
      "type": "event"
    },
    {
      "inputs": [],
      "name": "DEFAULT_PAYLOAD_SIZE_LIMIT",
      "outputs": [
        {
          "internalType": "uint256",
          "name": "",
          "type": "uint256"
        }
      ],
      "stateMutability": "view",
      "type": "function"
    },
    {
      "inputs": [
        {
          "internalType": "uint256",
          "name": "_debtOutstanding",
          "type": "uint256"
        }
      ],
      "name": "adjustPosition",
      "outputs": [],
      "stateMutability": "nonpayable",
      "type": "function"
    },
    {
      "inputs": [],
      "name": "balanceOfLpStaked",
      "outputs": [
        {
          "internalType": "uint256",
          "name": "",
          "type": "uint256"
        }
      ],
      "stateMutability": "view",
      "type": "function"
    },
    {
      "inputs": [],
      "name": "balanceOfPearlRewards",
      "outputs": [
        {
          "internalType": "uint256",
          "name": "",
          "type": "uint256"
        }
      ],
      "stateMutability": "view",
      "type": "function"
    },
    {
      "inputs": [],
      "name": "balanceOfWant",
      "outputs": [
        {
          "internalType": "uint256",
          "name": "",
          "type": "uint256"
        }
      ],
      "stateMutability": "view",
      "type": "function"
    },
    {
      "inputs": [
        {
          "internalType": "uint256",
          "name": "epoch",
          "type": "uint256"
        }
      ],
      "name": "callMe",
      "outputs": [],
      "stateMutability": "nonpayable",
      "type": "function"
    },
    {
      "inputs": [],
      "name": "clearWant",
      "outputs": [],
      "stateMutability": "nonpayable",
      "type": "function"
    },
    {
      "inputs": [],
      "name": "currentChainId",
      "outputs": [
        {
          "internalType": "uint16",
          "name": "",
          "type": "uint16"
        }
      ],
      "stateMutability": "view",
      "type": "function"
    },
    {
      "inputs": [
        {
          "internalType": "uint256",
          "name": "_daiAmount",
          "type": "uint256"
        }
      ],
      "name": "daiToWant",
      "outputs": [
        {
          "internalType": "uint256",
          "name": "",
          "type": "uint256"
        }
      ],
      "stateMutability": "view",
      "type": "function"
    },
    {
      "inputs": [],
      "name": "emergencyExit",
      "outputs": [
        {
          "internalType": "bool",
          "name": "",
          "type": "bool"
        }
      ],
      "stateMutability": "view",
      "type": "function"
    },
    {
      "inputs": [],
      "name": "estimatedTotalAssets",
      "outputs": [
        {
          "internalType": "uint256",
          "name": "",
          "type": "uint256"
        }
      ],
      "stateMutability": "view",
      "type": "function"
    },
    {
      "inputs": [
        {
          "internalType": "uint16",
          "name": "",
          "type": "uint16"
        },
        {
          "internalType": "bytes",
          "name": "",
          "type": "bytes"
        },
        {
          "internalType": "uint64",
          "name": "",
          "type": "uint64"
        }
      ],
      "name": "failedMessages",
      "outputs": [
        {
          "internalType": "bytes32",
          "name": "",
          "type": "bytes32"
        }
      ],
      "stateMutability": "view",
      "type": "function"
    },
    {
      "inputs": [
        {
          "internalType": "uint16",
          "name": "_srcChainId",
          "type": "uint16"
        },
        {
          "internalType": "bytes",
          "name": "_srcAddress",
          "type": "bytes"
        }
      ],
      "name": "forceResumeReceive",
      "outputs": [],
      "stateMutability": "nonpayable",
      "type": "function"
    },
    {
      "inputs": [
        {
          "internalType": "uint16",
          "name": "_version",
          "type": "uint16"
        },
        {
          "internalType": "uint16",
          "name": "_chainId",
          "type": "uint16"
        },
        {
          "internalType": "address",
          "name": "",
          "type": "address"
        },
        {
          "internalType": "uint256",
          "name": "_configType",
          "type": "uint256"
        }
      ],
      "name": "getConfig",
      "outputs": [
        {
          "internalType": "bytes",
          "name": "",
          "type": "bytes"
        }
      ],
      "stateMutability": "view",
      "type": "function"
    },
    {
      "inputs": [
        {
          "internalType": "bytes32",
          "name": "_messageHash",
          "type": "bytes32"
        }
      ],
      "name": "getEthSignedMessageHash",
      "outputs": [
        {
          "internalType": "bytes32",
          "name": "",
          "type": "bytes32"
        }
      ],
      "stateMutability": "pure",
      "type": "function"
    },
    {
      "inputs": [
        {
          "internalType": "uint16",
          "name": "_remoteChainId",
          "type": "uint16"
        }
      ],
      "name": "getTrustedRemoteAddress",
      "outputs": [
        {
          "internalType": "bytes",
          "name": "",
          "type": "bytes"
        }
      ],
      "stateMutability": "view",
      "type": "function"
    },
    {
      "inputs": [
        {
          "internalType": "uint256",
          "name": "_totalDebt",
          "type": "uint256"
        },
        {
          "internalType": "uint256",
          "name": "_debtOutstanding",
          "type": "uint256"
        },
        {
          "internalType": "uint256",
          "name": "_creditAvailable",
          "type": "uint256"
        },
        {
          "internalType": "uint256",
          "name": "_debtRatio",
          "type": "uint256"
        },
        {
          "internalType": "bytes",
          "name": "_signature",
          "type": "bytes"
        }
      ],
      "name": "harvest",
      "outputs": [],
      "stateMutability": "nonpayable",
      "type": "function"
    },
    {
      "inputs": [
        {
          "internalType": "address",
          "name": "_lzEndpoint",
          "type": "address"
        },
        {
          "internalType": "address",
          "name": "_strategist",
          "type": "address"
        },
        {
          "internalType": "contract IERC20",
          "name": "_want",
          "type": "address"
        },
        {
          "internalType": "address",
          "name": "_vault",
          "type": "address"
        },
        {
          "internalType": "uint16",
          "name": "_vaultChainId",
          "type": "uint16"
        },
        {
          "internalType": "uint16",
          "name": "_currentChainId",
          "type": "uint16"
        },
        {
          "internalType": "address",
          "name": "_sgBridge",
          "type": "address"
        },
        {
          "internalType": "address",
          "name": "_router",
          "type": "address"
        }
      ],
      "name": "initialize",
      "outputs": [],
      "stateMutability": "nonpayable",
      "type": "function"
    },
    {
      "inputs": [
        {
          "internalType": "uint16",
          "name": "_srcChainId",
          "type": "uint16"
        },
        {
          "internalType": "bytes",
          "name": "_srcAddress",
          "type": "bytes"
        }
      ],
      "name": "isTrustedRemote",
      "outputs": [
        {
          "internalType": "bool",
          "name": "",
          "type": "bool"
        }
      ],
      "stateMutability": "view",
      "type": "function"
    },
    {
      "inputs": [],
      "name": "lzEndpoint",
      "outputs": [
        {
          "internalType": "contract ILayerZeroEndpointUpgradeable",
          "name": "",
          "type": "address"
        }
      ],
      "stateMutability": "view",
      "type": "function"
    },
    {
      "inputs": [
        {
          "internalType": "uint16",
          "name": "_srcChainId",
          "type": "uint16"
        },
        {
          "internalType": "bytes",
          "name": "_srcAddress",
          "type": "bytes"
        },
        {
          "internalType": "uint64",
          "name": "_nonce",
          "type": "uint64"
        },
        {
          "internalType": "bytes",
          "name": "_payload",
          "type": "bytes"
        }
      ],
      "name": "lzReceive",
      "outputs": [],
      "stateMutability": "nonpayable",
      "type": "function"
    },
    {
      "inputs": [
        {
          "internalType": "uint16",
          "name": "",
          "type": "uint16"
        },
        {
          "internalType": "uint16",
          "name": "",
          "type": "uint16"
        }
      ],
      "name": "minDstGasLookup",
      "outputs": [
        {
          "internalType": "uint256",
          "name": "",
          "type": "uint256"
        }
      ],
      "stateMutability": "view",
      "type": "function"
    },
    {
      "inputs": [],
      "name": "name",
      "outputs": [
        {
          "internalType": "string",
          "name": "",
          "type": "string"
        }
      ],
      "stateMutability": "pure",
      "type": "function"
    },
    {
      "inputs": [
        {
          "internalType": "uint16",
          "name": "_srcChainId",
          "type": "uint16"
        },
        {
          "internalType": "bytes",
          "name": "_srcAddress",
          "type": "bytes"
        },
        {
          "internalType": "uint64",
          "name": "_nonce",
          "type": "uint64"
        },
        {
          "internalType": "bytes",
          "name": "_payload",
          "type": "bytes"
        }
      ],
      "name": "nonblockingLzReceive",
      "outputs": [],
      "stateMutability": "nonpayable",
      "type": "function"
    },
    {
      "inputs": [
        {
          "internalType": "address",
          "name": "src",
          "type": "address"
        },
        {
          "internalType": "address",
          "name": "dst",
          "type": "address"
        },
        {
          "internalType": "uint256",
          "name": "amountOut",
          "type": "uint256"
        },
        {
          "internalType": "uint256",
          "name": "amountIn",
          "type": "uint256"
        }
      ],
      "name": "notifyCallback",
      "outputs": [],
      "stateMutability": "nonpayable",
      "type": "function"
    },
    {
      "inputs": [],
      "name": "owner",
      "outputs": [
        {
          "internalType": "address",
          "name": "",
          "type": "address"
        }
      ],
      "stateMutability": "view",
      "type": "function"
    },
    {
      "inputs": [
        {
          "internalType": "uint16",
          "name": "",
          "type": "uint16"
        }
      ],
      "name": "payloadSizeLimitLookup",
      "outputs": [
        {
          "internalType": "uint256",
          "name": "",
          "type": "uint256"
        }
      ],
      "stateMutability": "view",
      "type": "function"
    },
    {
      "inputs": [
        {
          "internalType": "uint256",
          "name": "_pearlAmount",
          "type": "uint256"
        }
      ],
      "name": "pearlToWant",
      "outputs": [
        {
          "internalType": "uint256",
          "name": "",
          "type": "uint256"
        }
      ],
      "stateMutability": "view",
      "type": "function"
    },
    {
      "inputs": [],
      "name": "precrime",
      "outputs": [
        {
          "internalType": "address",
          "name": "",
          "type": "address"
        }
      ],
      "stateMutability": "view",
      "type": "function"
    },
    {
      "inputs": [],
      "name": "renounceOwnership",
      "outputs": [],
      "stateMutability": "nonpayable",
      "type": "function"
    },
    {
      "inputs": [
        {
          "internalType": "uint16",
          "name": "_srcChainId",
          "type": "uint16"
        },
        {
          "internalType": "bytes",
          "name": "_srcAddress",
          "type": "bytes"
        },
        {
          "internalType": "uint64",
          "name": "_nonce",
          "type": "uint64"
        },
        {
          "internalType": "bytes",
          "name": "_payload",
          "type": "bytes"
        }
      ],
      "name": "retryMessage",
      "outputs": [],
      "stateMutability": "payable",
      "type": "function"
    },
    {
      "inputs": [],
      "name": "revokeFunds",
      "outputs": [],
      "stateMutability": "nonpayable",
      "type": "function"
    },
    {
      "inputs": [
        {
          "internalType": "uint16",
          "name": "_version",
          "type": "uint16"
        },
        {
          "internalType": "uint16",
          "name": "_chainId",
          "type": "uint16"
        },
        {
          "internalType": "uint256",
          "name": "_configType",
          "type": "uint256"
        },
        {
          "internalType": "bytes",
          "name": "_config",
          "type": "bytes"
        }
      ],
      "name": "setConfig",
      "outputs": [],
      "stateMutability": "nonpayable",
      "type": "function"
    },
    {
      "inputs": [
        {
          "internalType": "bool",
          "name": "_emergencyExit",
          "type": "bool"
        }
      ],
      "name": "setEmergencyExit",
      "outputs": [],
      "stateMutability": "nonpayable",
      "type": "function"
    },
    {
      "inputs": [
        {
          "internalType": "uint16",
          "name": "_dstChainId",
          "type": "uint16"
        },
        {
          "internalType": "uint16",
          "name": "_packetType",
          "type": "uint16"
        },
        {
          "internalType": "uint256",
          "name": "_minGas",
          "type": "uint256"
        }
      ],
      "name": "setMinDstGas",
      "outputs": [],
      "stateMutability": "nonpayable",
      "type": "function"
    },
    {
      "inputs": [
        {
          "internalType": "uint16",
          "name": "_dstChainId",
          "type": "uint16"
        },
        {
          "internalType": "uint256",
          "name": "_size",
          "type": "uint256"
        }
      ],
      "name": "setPayloadSizeLimit",
      "outputs": [],
      "stateMutability": "nonpayable",
      "type": "function"
    },
    {
      "inputs": [
        {
          "internalType": "address",
          "name": "_precrime",
          "type": "address"
        }
      ],
      "name": "setPrecrime",
      "outputs": [],
      "stateMutability": "nonpayable",
      "type": "function"
    },
    {
      "inputs": [
        {
          "internalType": "uint16",
          "name": "_version",
          "type": "uint16"
        }
      ],
      "name": "setReceiveVersion",
      "outputs": [],
      "stateMutability": "nonpayable",
      "type": "function"
    },
    {
      "inputs": [
        {
          "internalType": "uint16",
          "name": "_version",
          "type": "uint16"
        }
      ],
      "name": "setSendVersion",
      "outputs": [],
      "stateMutability": "nonpayable",
      "type": "function"
    },
    {
      "inputs": [
        {
          "internalType": "uint256",
          "name": "_slippage",
          "type": "uint256"
        }
      ],
      "name": "setSlippage",
      "outputs": [],
      "stateMutability": "nonpayable",
      "type": "function"
    },
    {
      "inputs": [
        {
          "internalType": "address",
          "name": "_strategist",
          "type": "address"
        }
      ],
      "name": "setStrategist",
      "outputs": [],
      "stateMutability": "nonpayable",
      "type": "function"
    },
    {
      "inputs": [
        {
          "components": [
            {
              "internalType": "contract ISwapHelper",
              "name": "swapHelper",
              "type": "address"
            },
            {
              "internalType": "uint256",
              "name": "quoteBuffer",
              "type": "uint256"
            },
            {
              "internalType": "bool",
              "name": "isQuoteBufferContainsHopToWantValue",
              "type": "bool"
            }
          ],
          "internalType": "struct SwapHelperDTO",
          "name": "__swapHelperDTO",
          "type": "tuple"
        }
      ],
      "name": "setSwapHelperDTO",
      "outputs": [],
      "stateMutability": "nonpayable",
      "type": "function"
    },
    {
      "inputs": [
        {
          "internalType": "uint16",
          "name": "_srcChainId",
          "type": "uint16"
        },
        {
          "internalType": "bytes",
          "name": "_path",
          "type": "bytes"
        }
      ],
      "name": "setTrustedRemote",
      "outputs": [],
      "stateMutability": "nonpayable",
      "type": "function"
    },
    {
      "inputs": [
        {
          "internalType": "uint16",
          "name": "_remoteChainId",
          "type": "uint16"
        },
        {
          "internalType": "bytes",
          "name": "_remoteAddress",
          "type": "bytes"
        }
      ],
      "name": "setTrustedRemoteAddress",
      "outputs": [],
      "stateMutability": "nonpayable",
      "type": "function"
    },
    {
      "inputs": [],
      "name": "sgBridge",
      "outputs": [
        {
          "internalType": "contract ISgBridge",
          "name": "",
          "type": "address"
        }
      ],
      "stateMutability": "view",
      "type": "function"
    },
    {
      "inputs": [
        {
          "internalType": "uint16",
          "name": "",
          "type": "uint16"
        },
        {
          "internalType": "bytes",
          "name": "_srcAddress",
          "type": "bytes"
        },
        {
          "internalType": "uint256",
          "name": "",
          "type": "uint256"
        },
        {
          "internalType": "address",
          "name": "_token",
          "type": "address"
        },
        {
          "internalType": "uint256",
          "name": "_amountLD",
          "type": "uint256"
        },
        {
          "internalType": "bytes",
          "name": "",
          "type": "bytes"
        }
      ],
      "name": "sgReceive",
      "outputs": [],
      "stateMutability": "nonpayable",
      "type": "function"
    },
    {
      "inputs": [],
      "name": "sgRouter",
      "outputs": [
        {
          "internalType": "contract IStargateRouter",
          "name": "",
          "type": "address"
        }
      ],
      "stateMutability": "view",
      "type": "function"
    },
    {
      "inputs": [],
      "name": "slippage",
      "outputs": [
        {
          "internalType": "uint256",
          "name": "",
          "type": "uint256"
        }
      ],
      "stateMutability": "view",
      "type": "function"
    },
    {
      "inputs": [],
      "name": "strategist",
      "outputs": [
        {
          "internalType": "address",
          "name": "",
          "type": "address"
        }
      ],
      "stateMutability": "view",
      "type": "function"
    },
    {
      "inputs": [],
      "name": "strategistSignMessageHash",
      "outputs": [
        {
          "internalType": "bytes32",
          "name": "",
          "type": "bytes32"
        }
      ],
      "stateMutability": "view",
      "type": "function"
    },
    {
      "inputs": [],
      "name": "swapHelper",
      "outputs": [
        {
          "internalType": "contract ISwapHelper",
          "name": "",
          "type": "address"
        }
      ],
      "stateMutability": "view",
      "type": "function"
    },
    {
      "inputs": [
        {
          "internalType": "contract IERC20",
          "name": "_token",
          "type": "address"
        }
      ],
      "name": "sweepToken",
      "outputs": [],
      "stateMutability": "nonpayable",
      "type": "function"
    },
    {
      "inputs": [
        {
          "internalType": "address",
          "name": "newOwner",
          "type": "address"
        }
      ],
      "name": "transferOwnership",
      "outputs": [],
      "stateMutability": "nonpayable",
      "type": "function"
    },
    {
      "inputs": [
        {
          "internalType": "uint16",
          "name": "",
          "type": "uint16"
        }
      ],
      "name": "trustedRemoteLookup",
      "outputs": [
        {
          "internalType": "bytes",
          "name": "",
          "type": "bytes"
        }
      ],
      "stateMutability": "view",
      "type": "function"
    },
    {
      "inputs": [
        {
          "internalType": "uint256",
          "name": "_usdrLpAmount",
          "type": "uint256"
        }
      ],
      "name": "usdrLpToWant",
      "outputs": [
        {
          "internalType": "uint256",
          "name": "",
          "type": "uint256"
        }
      ],
      "stateMutability": "view",
      "type": "function"
    },
    {
      "inputs": [
        {
          "internalType": "uint256",
          "name": "_usdrAmount",
          "type": "uint256"
        }
      ],
      "name": "usdrToWant",
      "outputs": [
        {
          "internalType": "uint256",
          "name": "",
          "type": "uint256"
        }
      ],
      "stateMutability": "view",
      "type": "function"
    },
    {
      "inputs": [],
      "name": "vault",
      "outputs": [
        {
          "internalType": "address",
          "name": "",
          "type": "address"
        }
      ],
      "stateMutability": "view",
      "type": "function"
    },
    {
      "inputs": [],
      "name": "vaultChainId",
      "outputs": [
        {
          "internalType": "uint16",
          "name": "",
          "type": "uint16"
        }
      ],
      "stateMutability": "view",
      "type": "function"
    },
    {
      "inputs": [],
      "name": "want",
      "outputs": [
        {
          "internalType": "contract IERC20",
          "name": "",
          "type": "address"
        }
      ],
      "stateMutability": "view",
      "type": "function"
    },
    {
      "inputs": [],
      "name": "wantDecimals",
      "outputs": [
        {
          "internalType": "uint8",
          "name": "",
          "type": "uint8"
        }
      ],
      "stateMutability": "view",
      "type": "function"
    },
    {
      "inputs": [
        {
          "internalType": "uint256",
          "name": "_wantAmount",
          "type": "uint256"
        }
      ],
      "name": "wantToUsdrLp",
      "outputs": [
        {
          "internalType": "uint256",
          "name": "",
          "type": "uint256"
        }
      ],
      "stateMutability": "view",
      "type": "function"
    },
    {
      "stateMutability": "payable",
      "type": "receive"
    }
  ],
  "bytecode": "0x608060405234801561001057600080fd5b5061641c80620000216000396000f3fe6080604052600436106102b55760003560e01c80621d3567146102c15780630517cb76146102e357806306fdde031461031957806307e0db17146103585780630df37483146103785780630fc6a11c1461039857806310ddb137146103b85780631be19560146103d85780631cdb539f146103f85780631f1fcd51146104185780631fe4a686146104385780632d6068431461045857806337fded911461046d5780633d3ccc2f146104925780633d8b38f6146104b25780633e032a3b146104e25780633eae1112146105065780633f1f4fa41461052657806342d65a8d1461055357806345ee075514610573578063495f881e146105935780635641ec03146105b3578063567ad85d146105cd578063593178de146106025780635b8c41e61461061757806366ad5c8a146106665780636cbadbfa14610686578063715018a6146106a85780637533d788146106bd5780638cfd8f5c146106dd5780638da5cb5b146107155780638f4508d01461072a578063950c8a741461073f5780639589c9901461075f5780639606647d1461077f5780639f38369a14610794578063a4ef57ab146107b4578063a6c3d165146107d4578063a9e50824146107f4578063ab8236f314610814578063adf076e614610834578063b353aaa714610867578063baf3292d14610887578063bd79ac13146108a7578063c1a3d44c146108c7578063c4461834146108dc578063c7b9d530146108f2578063cbed8b9c14610912578063d1deba1f14610932578063d56739ac14610945578063df2a5b3b1461095a578063e73620c31461097a578063eb8d72b71461099a578063efbb5cb0146109ba578063f056dffe146109cf578063f0fa55a9146109ef578063f2fde38b14610a0f578063f5ecbdbc14610a2f578063fa54080114610a4f578063fbfa77cf14610a6f578063fcb988a414610a8f57600080fd5b366102bc57005b600080fd5b3480156102cd57600080fd5b506102e16102dc366004614ffe565b610aaf565b005b3480156102ef57600080fd5b5060ce54610303906001600160a01b031681565b6040516103109190615091565b60405180910390f35b34801561032557600080fd5b5060408051808201909152600d81526c506561726c537472617465677960981b60208201525b60405161031091906150f5565b34801561036457600080fd5b506102e1610373366004615108565b610b98565b34801561038457600080fd5b506102e1610393366004615123565b610c05565b3480156103a457600080fd5b5060d454610303906001600160a01b031681565b3480156103c457600080fd5b506102e16103d3366004615108565b610c24565b3480156103e457600080fd5b506102e16103f3366004615162565b610c60565b34801561040457600080fd5b506102e161041336600461517f565b610ced565b34801561042457600080fd5b5060ca54610303906001600160a01b031681565b34801561044457600080fd5b5060c954610303906001600160a01b031681565b34801561046457600080fd5b506102e1610f45565b34801561047957600080fd5b5060cd546103039061010090046001600160a01b031681565b34801561049e57600080fd5b506102e16104ad366004615231565b610f86565b3480156104be57600080fd5b506104d26104cd36600461524a565b610fbc565b6040519015158152602001610310565b3480156104ee57600080fd5b506104f860cc5481565b604051908152602001610310565b34801561051257600080fd5b506104f8610521366004615231565b611089565b34801561053257600080fd5b506104f8610541366004615108565b60686020526000908152604090205481565b34801561055f57600080fd5b506102e161056e36600461524a565b61111a565b34801561057f57600080fd5b506102e161058e3660046152aa565b61118d565b34801561059f57600080fd5b506102e16105ae3660046153b2565b6111a8565b3480156105bf57600080fd5b5060cd546104d29060ff1681565b3480156105d957600080fd5b5060cb546105ef90600160a01b900461ffff1681565b60405161ffff9091168152602001610310565b34801561060e57600080fd5b506104f861144c565b34801561062357600080fd5b506104f8610632366004615415565b6097602090815260009384526040808520845180860184018051928152908401958401959095209452929052825290205481565b34801561067257600080fd5b506102e1610681366004614ffe565b6114aa565b34801561069257600080fd5b5060cb546105ef90600160b01b900461ffff1681565b3480156106b457600080fd5b506102e161157e565b3480156106c957600080fd5b5061034b6106d8366004615108565b611592565b3480156106e957600080fd5b506104f86106f8366004615472565b606760209081526000928352604080842090915290825290205481565b34801561072157600080fd5b5061030361162c565b34801561073657600080fd5b506104f861163b565b34801561074b57600080fd5b50606954610303906001600160a01b031681565b34801561076b57600080fd5b506104f861077a366004615231565b6116b5565b34801561078b57600080fd5b506102e1611703565b3480156107a057600080fd5b5061034b6107af366004615108565b611796565b3480156107c057600080fd5b506102e16107cf3660046154a5565b6118a5565b3480156107e057600080fd5b506102e16107ef36600461524a565b6118ed565b34801561080057600080fd5b506104f861080f366004615231565b611976565b34801561082057600080fd5b506102e161082f36600461550d565b611a2f565b34801561084057600080fd5b5060cb5461085590600160c01b900460ff1681565b60405160ff9091168152602001610310565b34801561087357600080fd5b50606554610303906001600160a01b031681565b34801561089357600080fd5b506102e16108a2366004615162565b611b29565b3480156108b357600080fd5b506104f86108c2366004615231565b611b7c565b3480156108d357600080fd5b506104f8611c0a565b3480156108e857600080fd5b506104f861271081565b3480156108fe57600080fd5b506102e161090d366004615162565b611c3b565b34801561091e57600080fd5b506102e161092d3660046155a7565b611c65565b6102e1610940366004614ffe565b611cd3565b34801561095157600080fd5b506104f8611ee9565b34801561096657600080fd5b506102e1610975366004615615565b611f1b565b34801561098657600080fd5b506102e1610995366004615231565b611fcd565b3480156109a657600080fd5b506102e16109b536600461524a565b611fed565b3480156109c657600080fd5b506104f8612047565b3480156109db57600080fd5b506102e16109ea366004615651565b612161565b3480156109fb57600080fd5b506102e1610a0a366004615231565b6121e0565b348015610a1b57600080fd5b506102e1610a2a366004615162565b6121ed565b348015610a3b57600080fd5b5061034b610a4a366004615697565b612263565b348015610a5b57600080fd5b506104f8610a6a366004615231565b6122f6565b348015610a7b57600080fd5b5060cb54610303906001600160a01b031681565b348015610a9b57600080fd5b506104f8610aaa366004615231565b612348565b6065546001600160a01b03163314610b1a5760405162461bcd60e51b815260206004820152602360248201527f4261736553747261746567793a3a496e76616c6964456e64706f696e7443616c6044820152623632b960e91b60648201526084015b60405180910390fd5b610b908686868080601f01602080910402602001604051908101604052809392919081815260200183838082843760009201919091525050604080516020601f89018190048102820181019092528781528993509150879087908190840183828082843760009201919091525061254c92505050565b505050505050565b610ba06125c5565b6065546040516307e0db1760e01b815261ffff831660048201526001600160a01b03909116906307e0db17906024015b600060405180830381600087803b158015610bea57600080fd5b505af1158015610bfe573d6000803e3d6000fd5b5050505050565b610c0d6125c5565b61ffff909116600090815260686020526040902055565b610c2c6125c5565b6065546040516310ddb13760e01b815261ffff831660048201526001600160a01b03909116906310ddb13790602401610bd0565b610c68612624565b610cea33826001600160a01b03166370a08231306040518263ffffffff1660e01b8152600401610c989190615091565b602060405180830381865afa158015610cb5573d6000803e3d6000fd5b505050506040513d601f19601f82011682018060405250810190610cd991906156e4565b6001600160a01b038416919061267d565b50565b600054610100900460ff1615808015610d0d5750600054600160ff909116105b80610d2e5750610d1c306126d8565b158015610d2e575060005460ff166001145b610d915760405162461bcd60e51b815260206004820152602e60248201527f496e697469616c697a61626c653a20636f6e747261637420697320616c72656160448201526d191e481a5b9a5d1a585b1a5e995960921b6064820152608401610b11565b6000805460ff191660011790558015610db4576000805461ff0019166101001790555b610dc789898989898989896126486126e7565b60ca54610df4906001600160a01b03167368b3465833fb72a70ecdf485e0e4c7bd8665fc456000196128c6565b60ca54610e1b906001600160a01b03166000805160206163278339815191526000196128c6565b610e446000805160206163a78339815191526000805160206163278339815191526000196128c6565b610e6d6000805160206163878339815191526000805160206163478339815191526000196128c6565b610e966000805160206163878339815191526000805160206163278339815191526000196128c6565b610ecb738f3cf7ad23cd3cadbd9735aff958023239c6a06373195f7b233947d51f4c3b756ad41a5ddb34cebce06000196128c6565b610ef46000805160206163678339815191526000805160206163278339815191526000196128c6565b8015610f3a576000805461ff0019169055604051600181527f7f26b83ff96e1f2b6a682f133852f6798a09c465da95921460cefb38474024989060200160405180910390a15b505050505050505050565b610f4d612624565b60c9546040516001600160a01b03909116904780156108fc02916000818181858888f19350505050158015610cea573d6000803e3d6000fd5b610f8e612624565b610f97816129ca565b6040518181526000805160206163c7833981519152906020015b60405180910390a150565b61ffff831660009081526066602052604081208054829190610fdd906156fd565b80601f0160208091040260200160405190810160405280929190818152602001828054611009906156fd565b80156110565780601f1061102b57610100808354040283529160200191611056565b820191906000526020600020905b81548152906001019060200180831161103957829003601f168201915b50505050509050838360405161106d929190615737565b60405180910390208180519060200120149150505b9392505050565b60cb546040516346b14b7760e11b815260048101839052600160c01b90910460ff16602482015260009073__$c227fba7995d6bae65c253a840cdb49c5a$__90638d6296ee906044015b602060405180830381865af41580156110f0573d6000803e3d6000fd5b505050506040513d601f19601f8201168201806040525081019061111491906156e4565b92915050565b6111226125c5565b6065546040516342d65a8d60e01b81526001600160a01b03909116906342d65a8d9061115690869086908690600401615770565b600060405180830381600087803b15801561117057600080fd5b505af1158015611184573d6000803e3d6000fd5b50505050505050565b611195612624565b60cd805460ff1916911515919091179055565b6111b0612624565b6111b9816130eb565b60cd546000908190819060ff16156112655784156112195760405162461bcd60e51b815260206004820152601e60248201527f4261736553747261746567793a3a44656274526174696f4e6f745a65726f00006044820152606401610b11565b6000611223613171565b90508781101561123e5761123781896157a4565b9250611253565b878111156112535761125088826157a4565b93505b61125d83896157a4565b915050611277565b61126f88886131b3565b919450925090505b600061128382856157b7565b9050600080888310156112a55761129a838a6157a4565b9150600090506112b6565b600091506112b389846157a4565b90505b6000604051806101600160405280306001600160a01b031681526020014281526020018881526020018781526020018681526020018481526020018381526020018b815260200183611306612047565b61131091906157a4565b815260200160d06000815480929190611328906157ca565b909155508152602001899052905081156113885760cb5460405161138391849161ffff600160a01b830416916001600160a01b03169061136f90600290879060200161581b565b6040516020818303038152906040526132aa565b6113b3565b6113b360028260405160200161139f92919061581b565b604051602081830303815290604052613398565b7fb983e09c034e9c52b5e547cb0589967992b97717733f580cc5ad0afcdc4b522b8160400151826060015183608001518460a001518560c001518660e001518761010001516040516114369796959493929190968752602087019590955260408601939093526060850191909152608084015260a083015260c082015260e00190565b60405180910390a1505050505050505050505050565b60d05460cb546040513060601b6001600160601b03191660208201526034810192909252600160b01b900460f01b6001600160f01b031916605482015260009060560160405160208183030381529060405280519060200120905090565b3330146115085760405162461bcd60e51b815260206004820152602660248201527f4e6f6e626c6f636b696e674c7a4170703a2063616c6c6572206d7573742062656044820152650204c7a4170760d41b6064820152608401610b11565b610b908686868080601f01602080910402602001604051908101604052809392919081815260200183838082843760009201919091525050604080516020601f89018190048102820181019092528781528993509150879087908190840183828082843760009201919091525061351892505050565b6115866125c5565b611590600061362e565b565b606660205260009081526040902080546115ab906156fd565b80601f01602080910402602001604051908101604052809291908181526020018280546115d7906156fd565b80156116245780601f106115f957610100808354040283529160200191611624565b820191906000526020600020905b81548152906001019060200180831161160757829003601f168201915b505050505081565b6033546001600160a01b031690565b6040516370a0823160e01b8152600090600080516020616347833981519152906370a082319061166f903090600401615091565b602060405180830381865afa15801561168c573d6000803e3d6000fd5b505050506040513d601f19601f820116820180604052508101906116b091906156e4565b905090565b60cb5460405163aaed66e960e01b815260048101839052600160c01b90910460ff16602482015260009073__$c227fba7995d6bae65c253a840cdb49c5a$__9063aaed66e9906044016110d3565b61170b612624565b60ca546040516370a0823160e01b8152611590916001916001600160a01b03909116906370a0823190611742903090600401615091565b602060405180830381865afa15801561175f573d6000803e3d6000fd5b505050506040513d601f19601f8201168201806040525081019061178391906156e4565b60ca546001600160a01b0316919061267d565b61ffff81166000908152606660205260408120805460609291906117b9906156fd565b80601f01602080910402602001604051908101604052809291908181526020018280546117e5906156fd565b80156118325780601f1061180757610100808354040283529160200191611832565b820191906000526020600020905b81548152906001019060200180831161181557829003601f168201915b50505050509050805160000361188a5760405162461bcd60e51b815260206004820152601d60248201527f4c7a4170703a206e6f20747275737465642070617468207265636f72640000006044820152606401610b11565b61108260006014835161189d91906157a4565b839190613680565b6118ad61378d565b805160d180546001600160a01b0319166001600160a01b03909216919091179055602081015160d2556040015160d3805460ff1916911515919091179055565b6118f56125c5565b81813060405160200161190a939291906158c6565b60408051601f1981840301815291815261ffff85166000908152606660205220906119359082615942565b507f8c0400cfe2d1199b1a725c78960bcc2a344d869b80590d0f2bd005db15a572ce83838360405161196993929190615770565b60405180910390a1505050565b60ca546040516310e1b98f60e21b81526000918291829160008051602061632783398151915291634386e63c916119d0916001600160a01b03909116906000805160206163a7833981519152906001908a906004016159fb565b6040805180830381865afa1580156119ec573d6000803e3d6000fd5b505050506040513d601f19601f82011682018060405250810190611a109190615a26565b91509150611a1d81611089565b611a2790836157b7565b949350505050565b60ce546001600160a01b0316331480611a57575060cd5461010090046001600160a01b031633145b611aa25760405162461bcd60e51b815260206004820152601c60248201527b53674272696467653a3a526f757465724f724272696467654f6e6c7960201b6044820152606401610b11565b6000611ab086826014613680565b604051602001611ac09190615a4a565b604051602081830303815290604052611ad890615a66565b60601c9050836001600160a01b03167f92073a89a07a000083eb8b2575fc15e7bb936efe55d00727d6942a796d7211a78483604051611b18929190615a9d565b60405180910390a250505050505050565b611b316125c5565b606980546001600160a01b0319166001600160a01b0383161790556040517f5db758e995a17ec1ad84bdef7e8c3293a0bd6179bcce400dff5d4c3d87db726b90610fb1908390615091565b600061111482738f3cf7ad23cd3cadbd9735aff958023239c6a0636001600160a01b031663313ce5676040518163ffffffff1660e01b8152600401602060405180830381865afa158015611bd4573d6000803e3d6000fd5b505050506040513d601f19601f82011682018060405250810190611bf89190615ab4565b60cb54600160c01b900460ff166137fc565b60ca546040516370a0823160e01b81526000916001600160a01b0316906370a082319061166f903090600401615091565b611c436125c5565b60c980546001600160a01b0319166001600160a01b0392909216919091179055565b611c6d6125c5565b6065546040516332fb62e760e21b81526001600160a01b039091169063cbed8b9c90611ca59088908890889088908890600401615ad7565b600060405180830381600087803b158015611cbf57600080fd5b505af1158015610f3a573d6000803e3d6000fd5b61ffff86166000908152609760205260408082209051611cf69088908890615737565b90815260408051602092819003830190206001600160401b03871660009081529252902054905080611d765760405162461bcd60e51b815260206004820152602360248201527f4e6f6e626c6f636b696e674c7a4170703a206e6f2073746f726564206d65737360448201526261676560e81b6064820152608401610b11565b808383604051611d87929190615737565b604051809103902014611de65760405162461bcd60e51b815260206004820152602160248201527f4e6f6e626c6f636b696e674c7a4170703a20696e76616c6964207061796c6f616044820152601960fa1b6064820152608401610b11565b61ffff87166000908152609760205260408082209051611e099089908990615737565b90815260408051602092819003830181206001600160401b038916600090815290845282902093909355601f88018290048202830182019052868252611ea1918991899089908190840183828082843760009201919091525050604080516020601f8a018190048102820181019092528881528a93509150889088908190840183828082843760009201919091525061351892505050565b7fc264d91f3adc5588250e1551f547752ca0cfa8f6b530d243b9f9f4cab10ea8e58787878785604051611ed8959493929190615b05565b60405180910390a150505050505050565b6040516246613160e11b815260009060008051602061634783398151915290628cc2629061166f903090600401615091565b611f236125c5565b60008111611f6b5760405162461bcd60e51b81526020600482015260156024820152744c7a4170703a20696e76616c6964206d696e47617360581b6044820152606401610b11565b61ffff83811660008181526067602090815260408083209487168084529482529182902085905581519283528201929092529081018290527f9d5c7c0b934da8fefa9c7760c98383778a12dfbfc0c3b3106518f43fb9508ac090606001611969565b611fd56125c5565b600090815260cf60205260409020805460ff19169055565b611ff56125c5565b61ffff83166000908152606660205260409020612013828483615b40565b507ffa41487ad5d6728f0b19276fa1eddc16558578f5109fc39d2dc33c3230470dab83838360405161196993929190615770565b600061205461080f61163b565b6040516370a0823160e01b81526120dc90600080516020616367833981519152906370a0823190612089903090600401615091565b602060405180830381865afa1580156120a6573d6000803e3d6000fd5b505050506040513d601f19601f820116820180604052508101906120ca91906156e4565b6120d2611ee9565b61077a91906157b7565b60ca546040516370a0823160e01b81526001600160a01b03909116906370a082319061210c903090600401615091565b602060405180830381865afa158015612129573d6000803e3d6000fd5b505050506040513d601f19601f8201168201806040525081019061214d91906156e4565b61215791906157b7565b6116b091906157b7565b60d1546001600160a01b0316331461218c57604051630336158960e61b815260040160405180910390fd5b81836001600160a01b0316856001600160a01b03167f9b2db766e04dc7ee1cc19d1415531ad5b3fd566db4f745d9a8ad51e3d3fe1bd7846040516121d291815260200190565b60405180910390a450505050565b6121e8612624565b60cc55565b6121f56125c5565b6001600160a01b03811661225a5760405162461bcd60e51b815260206004820152602660248201527f4f776e61626c653a206e6577206f776e657220697320746865207a65726f206160448201526564647265737360d01b6064820152608401610b11565b610cea8161362e565b606554604051633d7b2f6f60e21b815261ffff808716600483015285166024820152306044820152606481018390526060916001600160a01b03169063f5ecbdbc90608401600060405180830381865afa1580156122c5573d6000803e3d6000fd5b505050506040513d6000823e601f3d908101601f191682016040526122ed9190810190615bf9565b95945050505050565b6040517b0ca2ba3432b932bab69029b4b3b732b21026b2b9b9b0b3b29d05199960211b6020820152603c8101829052600090605c01604051602081830303815290604052805190602001209050919050565b6000806123c96000805160206163878339815191526001600160a01b031663313ce5676040518163ffffffff1660e01b8152600401602060405180830381865afa15801561239a573d6000803e3d6000fd5b505050506040513d601f19601f820116820180604052508101906123be9190615ab4565b61080f90600a615d4a565b905060006124568460cb60189054906101000a900460ff166000805160206163878339815191526001600160a01b031663313ce5676040518163ffffffff1660e01b8152600401602060405180830381865afa15801561242d573d6000803e3d6000fd5b505050506040513d601f19601f820116820180604052508101906124519190615ab4565b6137fc565b905060006124ba8360cb60189054906101000a900460ff166000805160206163878339815191526001600160a01b031663313ce5676040518163ffffffff1660e01b8152600401602060405180830381865afa15801561242d573d6000803e3d6000fd5b9050806000805160206163878339815191526001600160a01b031663313ce5676040518163ffffffff1660e01b8152600401602060405180830381865afa158015612509573d6000803e3d6000fd5b505050506040513d601f19601f8201168201806040525081019061252d9190615ab4565b61253890600a615d4a565b6125429084615d59565b6122ed9190615d70565b6000806125af5a60966366ad5c8a60e01b898989896040516024016125749493929190615d92565b60408051601f198184030181529190526020810180516001600160e01b03166001600160e01b03199093169290921790915230929190613851565b9150915081610b9057610b9086868686856138dd565b336125ce61162c565b6001600160a01b0316146115905760405162461bcd60e51b815260206004820181905260248201527f4f776e61626c653a2063616c6c6572206973206e6f7420746865206f776e65726044820152606401610b11565b60c9546001600160a01b031633146115905760405162461bcd60e51b815260206004820152601c60248201527b10985cd954dd1c985d1959de4e8e93db9b1e54dd1c985d1959da5cdd60221b6044820152606401610b11565b6126d38363a9059cbb60e01b848460405160240161269c929190615dd0565b60408051601f198184030181529190526020810180516001600160e01b03166001600160e01b03199093169290921790915261397a565b505050565b6001600160a01b03163b151590565b600054610100900460ff1661270e5760405162461bcd60e51b8152600401610b1190615de9565b61271789613a4f565b60c980546001600160a01b03808b166001600160a01b03199283161790925560ca80548a8416908316811790915560cb8054938a1661ffff8a16600160a01b029093166001600160b01b0319909416939093179190911790915560cc8290556040805163313ce56760e01b8152905163313ce567916004808201926020929091908290030181865afa1580156127b1573d6000803e3d6000fd5b505050506040513d601f19601f820116820180604052508101906127d59190615ab4565b60cb8054600060d05562ffffff60b01b1916600160c01b60ff939093169290920261ffff60b01b191691909117600160b01b61ffff87160217905560cd8054610100600160a81b0319166101006001600160a01b03868116919091029190911790915560ce80546001600160a01b03191684831617905560ca5460405163095ea7b360e01b815291169063095ea7b39061287790869060001990600401615dd0565b6020604051808303816000875af1158015612896573d6000803e3d6000fd5b505050506040513d601f19601f820116820180604052508101906128ba9190615e34565b50505050505050505050565b8015806129405750604051636eb1769f60e11b81523060048201526001600160a01b03838116602483015284169063dd62ed3e90604401602060405180830381865afa15801561291a573d6000803e3d6000fd5b505050506040513d601f19601f8201168201806040525081019061293e91906156e4565b155b6129ab5760405162461bcd60e51b815260206004820152603660248201527f5361666545524332303a20617070726f76652066726f6d206e6f6e2d7a65726f60448201527520746f206e6f6e2d7a65726f20616c6c6f77616e636560501b6064820152608401610b11565b6126d38363095ea7b360e01b848460405160240161269c929190615dd0565b6000805160206163478339815191526001600160a01b0316633d18b9126040518163ffffffff1660e01b8152600401600060405180830381600087803b158015612a1357600080fd5b505af1158015612a27573d6000803e3d6000fd5b50506040516370a0823160e01b8152612aca925060008051602061636783398151915291506370a0823190612a60903090600401615091565b602060405180830381865afa158015612a7d573d6000803e3d6000fd5b505050506040513d601f19601f82011682018060405250810190612aa191906156e4565b60ca5460cb546001600160a01b0390911690600160c01b900460ff1660d1613a87613b20613b2b565b60ca546040516370a0823160e01b81526000916001600160a01b0316906370a0823190612afb903090600401615091565b602060405180830381865afa158015612b18573d6000803e3d6000fd5b505050506040513d601f19601f82011682018060405250810190612b3c91906156e4565b905081811115612cc8576000612b5283836157a4565b90506000612b61600283615d70565b90506000612bcb8260cb60189054906101000a900460ff16738f3cf7ad23cd3cadbd9735aff958023239c6a0636001600160a01b031663313ce5676040518163ffffffff1660e01b8152600401602060405180830381865afa15801561242d573d6000803e3d6000fd5b6040805160808101825260ca546001600160601b0319606091821b1660a0830152601960ea1b60b4830152738f3cf7ad23cd3cadbd9735aff958023239c6a06360601b60b7830152825160ab81840301815260cb830184528252306020830152918101859052919250600091908101612c4384613c5a565b905260405163b858183f60e01b81529091507368b3465833fb72a70ecdf485e0e4c7bd8665fc459063b858183f90612c7f908490600401615e51565b6020604051808303816000875af1158015612c9e573d6000803e3d6000fd5b505050506040513d601f19601f82011682018060405250810190612cc291906156e4565b50505050505b6040516370a0823160e01b8152600090738f3cf7ad23cd3cadbd9735aff958023239c6a063906370a0823190612d02903090600401615091565b602060405180830381865afa158015612d1f573d6000803e3d6000fd5b505050506040513d601f19601f82011682018060405250810190612d4391906156e4565b90508015612dc95760405163a39fc2c560e01b815273195f7b233947d51f4c3b756ad41a5ddb34cebce09063a39fc2c590612d849084903090600401615a9d565b6020604051808303816000875af1158015612da3573d6000803e3d6000fd5b505050506040513d601f19601f82011682018060405250810190612dc791906156e4565b505b6040516370a0823160e01b81526000906000805160206163a7833981519152906370a0823190612dfd903090600401615091565b602060405180830381865afa158015612e1a573d6000803e3d6000fd5b505050506040513d601f19601f82011682018060405250810190612e3e91906156e4565b60ca546040516370a0823160e01b81529192506001600160a01b0316906370a0823190612e6f903090600401615091565b602060405180830381865afa158015612e8c573d6000803e3d6000fd5b505050506040513d601f19601f82011682018060405250810190612eb091906156e4565b9250600081118015612ec25750600083115b1561303c5760ca546040516326283ecf60e21b81526001600160a01b0390911660048201526000805160206163a783398151915260248201526001604482015260648101849052608481018290526000908190600080516020616327833981519152906398a0fb3c9060a401606060405180830381865afa158015612f4b573d6000803e3d6000fd5b505050506040513d601f19601f82011682018060405250810190612f6f9190615e9f565b5060ca54604051635a47ddc360e01b81526001600160a01b0390911660048201526000805160206163a78339815191526024820152600160448201819052606482018490526084820183905260a4820181905260c48201523060e482015242610104820152919350915060008051602061632783398151915290635a47ddc390610124016060604051808303816000875af1158015613012573d6000803e3d6000fd5b505050506040513d601f19601f820116820180604052508101906130369190615e9f565b50505050505b6040516370a0823160e01b8152600090600080516020616387833981519152906370a0823190613070903090600401615091565b602060405180830381865afa15801561308d573d6000803e3d6000fd5b505050506040513d601f19601f820116820180604052508101906130b191906156e4565b90508015610bfe5760405163b6b55f2560e01b8152600481018290526000805160206163478339815191529063b6b55f2590602401611ca5565b60006130f561144c565b90506000613102826122f6565b60c9549091506001600160a01b031661311b8285613c77565b6001600160a01b0316146126d35760405162461bcd60e51b815260206004820152601e60248201527f4261736553747261746567793a3a496e76616c69645369676e617475726500006044820152606401610b11565b600061318361317e61163b565b613c9b565b60ca546040516370a0823160e01b81526001600160a01b03909116906370a082319061166f903090600401615091565b6000806000806131c1612047565b90508581106131df576131d486826157a4565b9350600092506131f0565b600093506131ed81876157a4565b92505b6132026131fd85876157b7565b613fb3565b505060ca546040516370a0823160e01b81526000916001600160a01b0316906370a0823190613235903090600401615091565b602060405180830381865afa158015613252573d6000803e3d6000fd5b505050506040513d601f19601f8201168201806040525081019061327691906156e4565b905084811161328b57809450600092506132a1565b61329e61329886836157a4565b876140e8565b92505b50509250925092565b60cd54604051630dc6346160e01b815260009161010090046001600160a01b031690630dc63461906132e490879087908790600401615ecd565b602060405180830381865afa158015613301573d6000803e3d6000fd5b505050506040513d601f19601f8201168201806040525081019061332591906156e4565b60cd5460ca54604051633920455b60e11b81529293506001600160a01b036101009092048216926372408ab692859261336b929116908a908a908a908a90600401615efb565b6000604051808303818588803b15801561338457600080fd5b505af11580156128ba573d6000803e3d6000fd5b60cb5460408051606083811b6001600160601b03199081166020840152309182901b16603483015282516028818403018152604890920190925260655490926000926001600160a01b03909216916340a7bb109161ffff600160a01b909104169086856134036140fe565b6040518663ffffffff1660e01b8152600401613423959493929190615f38565b6040805180830381865afa15801561343f573d6000803e3d6000fd5b505050506040513d601f19601f820116820180604052508101906134639190615a26565b5090508047101561348f5760405162fae2d560e21b815260048101829052476024820152604401610b11565b60655460cb546001600160a01b039091169063c5803100908390600160a01b900461ffff16858730806134c06140fe565b6040518863ffffffff1660e01b81526004016134e196959493929190615f8c565b6000604051808303818588803b1580156134fa57600080fd5b505af115801561350e573d6000803e3d6000fd5b5050505050505050565b60cb5461ffff858116600160a01b90920416146135825760405162461bcd60e51b815260206004820152602260248201527f4261736553747261746567793a3a5661756c74436861696e49644d69736d61746044820152610c6d60f31b6064820152608401610b11565b600061359084826014613680565b6040516020016135a09190615a4a565b6040516020818303038152906040526135b890615a66565b60cb5460609190911c91506001600160a01b031681146136255760405162461bcd60e51b815260206004820152602260248201527f4261736553747261746567793a3a5661756c74416464726573734d69736d61746044820152610c6d60f31b6064820152608401610b11565b610bfe8261412e565b603380546001600160a01b038381166001600160a01b0319831681179093556040519116919082907f8be0079c531659141344cd1fd0a4f28419497f9722a3daafe3b4186f6b6457e090600090a35050565b60608161368e81601f6157b7565b10156136cd5760405162461bcd60e51b815260206004820152600e60248201526d736c6963655f6f766572666c6f7760901b6044820152606401610b11565b6136d782846157b7565b8451101561371b5760405162461bcd60e51b8152602060048201526011602482015270736c6963655f6f75744f66426f756e647360781b6044820152606401610b11565b60608215801561373a5760405191506000825260208201604052613784565b6040519150601f8416801560200281840101858101878315602002848b0101015b8183101561377357805183526020928301920161375b565b5050858452601f01601f1916604052505b50949350505050565b60c9546001600160a01b03163314806137a557503330145b6115905760405162461bcd60e51b815260206004820152602260248201527f4261736553747261746567793a3a4f6e6c79537472617465676973744f725365604482015261363360f11b6064820152608401610b11565b60008260ff168260ff161115613832576138168383615ff3565b61382190600a615d4a565b61382b9085615d59565b9050611082565b61383c8284615ff3565b61384790600a615d4a565b61382b9085615d70565b6000606060008060008661ffff166001600160401b03811115613876576138766152c7565b6040519080825280601f01601f1916602001820160405280156138a0576020820181803683370190505b50905060008087516020890160008d8df191503d9250868311156138c2578692505b828152826000602083013e9093509150505b94509492505050565b8180519060200120609760008761ffff1661ffff1681526020019081526020016000208560405161390e9190615a4a565b9081526040805191829003602090810183206001600160401b0388166000908152915220919091557fe183f33de2837795525b4792ca4cd60535bd77c53b7e7030060bfcf5734d6b0c9061396b908790879087908790879061600c565b60405180910390a15050505050565b60006139cf826040518060400160405280602081526020017f5361666545524332303a206c6f772d6c6576656c2063616c6c206661696c6564815250856001600160a01b031661425b9092919063ffffffff16565b90508051600014806139f05750808060200190518101906139f09190615e34565b6126d35760405162461bcd60e51b815260206004820152602a60248201527f5361666545524332303a204552433230206f7065726174696f6e20646964206e6044820152691bdd081cdd58d8d9595960b21b6064820152608401610b11565b600054610100900460ff16613a765760405162461bcd60e51b8152600401610b1190615de9565b613a7e61426a565b610cea8161429a565b8051600003613ad65781836001600160a01b0316856001600160a01b03167fea368a40e9570069bb8e6511d668293ad2e1f03b0d982431fd223de9f3b70ca660405160405180910390a4613b1a565b81836001600160a01b0316856001600160a01b03167f583bc203f4bd38722d9ba88ecb248da508149e0e405a42dbc1b1f7d55a8be0c1846040516121d291906150f5565b50505050565b600061111482613c5a565b8515610b905782546001600160a01b03166310cabd1d6000805160206163678339815191528789612710613b626126486064615d59565b613b6c9190615d70565b6040518563ffffffff1660e01b8152600401613b8b949392919061605e565b600060405180830381600087803b158015613ba557600080fd5b505af1925050508015613bb6575060015b613c1a573d808015613be4576040519150601f19603f3d011682016040523d82523d6000602084013e613be9565b606091505b50613bf6878688856142e3565b613c146000805160206163678339815191528789848763ffffffff16565b50610b90565b610b9060008051602061636783398151915286886000604051602001613c4291815260200190565b6040516020818303038152906040528663ffffffff16565b600061271060cc5483613c6d9190615d59565b6111149190615d70565b6000806000613c86858561447b565b91509150613c93816144c0565b509392505050565b6000805160206163478339815191526001600160a01b0316633d18b9126040518163ffffffff1660e01b8152600401600060405180830381600087803b158015613ce457600080fd5b505af1158015613cf8573d6000803e3d6000fd5b50506040516370a0823160e01b8152613d31925060008051602061636783398151915291506370a0823190612a60903090600401615091565b80600003613d3c5750565b604051632e1a7d4d60e01b81526004810182905260008051602061634783398151915290632e1a7d4d90602401600060405180830381600087803b158015613d8357600080fd5b505af1158015613d97573d6000803e3d6000fd5b505060ca546040516310e1b98f60e21b81526000935083925060008051602061632783398151915291634386e63c91613df1916001600160a01b0316906000805160206163a78339815191529060019089906004016159fb565b6040805180830381865afa158015613e0d573d6000803e3d6000fd5b505050506040513d601f19601f82011682018060405250810190613e319190615a26565b60ca54919350915060008051602061632783398151915290630dede6c4906001600160a01b03166000805160206163a7833981519152600187613e7388613c5a565b613e7c88613c5a565b6040516001600160e01b031960e089901b1681526001600160a01b03968716600482015295909416602486015291151560448501526064840152608483015260a48201523060c48201524260e48201526101040160408051808303816000875af1158015613eee573d6000803e3d6000fd5b505050506040513d601f19601f82011682018060405250810190613f129190615a26565b50506040516370a0823160e01b81526126d3906000805160206163a7833981519152906370a0823190613f49903090600401615091565b602060405180830381865afa158015613f66573d6000803e3d6000fd5b505050506040513d601f19601f82011682018060405250810190613f8a91906156e4565b60ca5460cb546001600160a01b0390911690600160c01b900460ff1660d1613a87613b20614605565b60ca546040516370a0823160e01b8152600091829182916001600160a01b0316906370a0823190613fe8903090600401615091565b602060405180830381865afa158015614005573d6000803e3d6000fd5b505050506040513d601f19601f8201168201806040525081019061402991906156e4565b905083811061403d57509192600092509050565b61404f61404a82866157a4565b614716565b60ca546040516370a0823160e01b81526001600160a01b03909116906370a082319061407f903090600401615091565b602060405180830381865afa15801561409c573d6000803e3d6000fd5b505050506040513d601f19601f820116820180604052508101906140c091906156e4565b9050808411156140de579150816140d781856157a4565b91506140e2565b8392505b50915091565b60008183106140f75781611082565b5090919050565b60408051600160f01b6020820152620f424060228083019190915282518083039091018152604290910190915290565b6000818060200190518101906141449190616089565b9050600381600481111561415a5761415a6157e3565b036141ad5760008280602001905181019061417591906160aa565b91505061418581600001516129ca565b80516040519081526000805160206163c78339815191529060200160405180910390a1505050565b60008160048111156141c1576141c16157e3565b036141e8576000828060200190518101906141dc91906160ed565b9150506126d3816147f7565b60048160048111156141fc576141fc6157e3565b03614257576000828060200190518101906142179190616158565b9150506142278160000151614921565b80516040517f7c9a2d2ec51230d7dbed27f113a325b7e20aef7b049e68b2339257b5edff5bea9161196991615091565b5050565b6060611a278484600085614960565b600054610100900460ff166142915760405162461bcd60e51b8152600401610b1190615de9565b6115903361362e565b600054610100900460ff166142c15760405162461bcd60e51b8152600401610b1190615de9565b606580546001600160a01b0319166001600160a01b0392909216919091179055565b60408051600280825260608201909252600091816020015b60408051606081018252600080825260208083018290529282015282526000199092019101816142fb5750506040805160608101825260008051602061636783398151915281526000805160206163a783398151915260208201526000918101829052825192935091839190614373576143736161a6565b602002602001018190525060405180606001604052806000805160206163a78339815191526001600160a01b03168152602001846001600160a01b0316815260200160011515815250816001815181106143cf576143cf6161a6565b602002602001018190525060006143e68686614a3b565b905060008051602061632783398151915263f41766d88761440a8463ffffffff8816565b8530426040518663ffffffff1660e01b815260040161442d9594939291906161bc565b6000604051808303816000875af192505050801561446d57506040513d6000823e601f3d908101601f1916820160405261446a919081019061624b565b60015b15610b905750505050505050565b60008082516041036144b15760208301516040840151606085015160001a6144a587828585614ad4565b945094505050506144b9565b506000905060025b9250929050565b60008160048111156144d4576144d46157e3565b036144dc5750565b60018160048111156144f0576144f06157e3565b036145385760405162461bcd60e51b815260206004820152601860248201527745434453413a20696e76616c6964207369676e617475726560401b6044820152606401610b11565b600281600481111561454c5761454c6157e3565b036145995760405162461bcd60e51b815260206004820152601f60248201527f45434453413a20696e76616c6964207369676e6174757265206c656e677468006044820152606401610b11565b60038160048111156145ad576145ad6157e3565b03610cea5760405162461bcd60e51b815260206004820152602260248201527f45434453413a20696e76616c6964207369676e6174757265202773272076616c604482015261756560f01b6064820152608401610b11565b8515610b905782546001600160a01b03166310cabd1d6000805160206163a7833981519152878961271061463c6126486064615d59565b6146469190615d70565b6040518563ffffffff1660e01b8152600401614665949392919061605e565b600060405180830381600087803b15801561467f57600080fd5b505af1925050508015614690575060015b6146ee573d8080156146be576040519150601f19603f3d011682016040523d82523d6000602084013e6146c3565b606091505b506146d087868885614b8b565b613c146000805160206163a78339815191528789848763ffffffff16565b610b906000805160206163a783398151915286886000604051602001613c4291815260200190565b806000036147215750565b600061472e61077a611ee9565b90508181106147cd576000805160206163478339815191526001600160a01b0316633d18b9126040518163ffffffff1660e01b8152600401600060405180830381600087803b15801561478057600080fd5b505af1158015614794573d6000803e3d6000fd5b50506040516370a0823160e01b8152614257925060008051602061636783398151915291506370a0823190612a60903090600401615091565b60006147ec6147df610aaa84866157a4565b6147e761163b565b6140e8565b90506126d381613c9b565b602080820151600090815260cf909152604090205460ff161561485c5760405162461bcd60e51b815260206004820152601e60248201527f4261736553747261746567793a3a416c726561647957697468647261776e00006044820152606401610b11565b60008061486c8360000151613fb3565b91509150600060016040518060800160405280306001600160a01b0316815260200185815260200184815260200186602001518152506040516020016148b39291906162e4565b60408051601f19818403018152919052905082156148f45760cb546148ef90849061ffff600160a01b820416906001600160a01b0316846132aa565b6148fd565b6148fd81613398565b505050602090810151600090815260cf90915260409020805460ff19166001179055565b61492a81614c5c565b60ca546040516370a0823160e01b8152610cea9183916001600160a01b03909116906370a0823190611742903090600401615091565b6060824710156149c15760405162461bcd60e51b815260206004820152602660248201527f416464726573733a20696e73756666696369656e742062616c616e636520666f6044820152651c8818d85b1b60d21b6064820152608401610b11565b600080866001600160a01b031685876040516149dd9190615a4a565b60006040518083038185875af1925050503d8060008114614a1a576040519150601f19603f3d011682016040523d82523d6000602084013e614a1f565b606091505b5091509150614a3087838387614e72565b979650505050505050565b6040516328bd9fc160e11b8152600090819073f68c20d6c50706f6c6bd8ee184382518c93b368c9063517b3f8290614a8790600080516020616367833981519152908890600401615dd0565b602060405180830381865afa158015614aa4573d6000803e3d6000fd5b505050506040513d601f19601f82011682018060405250810190614ac891906156e4565b9050611a278184614ee9565b6000806fa2a8918ca85bafe22016d0b997e4df60600160ff1b03831115614b0157506000905060036138d4565b6040805160008082526020820180845289905260ff881692820192909252606081018690526080810185905260019060a0016020604051602081039080840390855afa158015614b55573d6000803e3d6000fd5b5050604051601f1901519150506001600160a01b038116614b7e576000600192509250506138d4565b9660009650945050505050565b6000614b978585614ee9565b90506000805160206163278339815191526313dcfc5986614bbb8463ffffffff8716565b6040516001600160e01b031960e085901b168152600481019290925260248201526000805160206163a783398151915260448201526001600160a01b0386166064820152600160848201523060a48201524260c482015260e4016000604051808303816000875af1158015614c34573d6000803e3d6000fd5b505050506040513d6000823e601f3d908101601f19168201604052610b90919081019061624b565b600080516020616347833981519152632e1a7d4d614c7861163b565b6040518263ffffffff1660e01b8152600401614c9691815260200190565b600060405180830381600087803b158015614cb057600080fd5b505af1158015614cc4573d6000803e3d6000fd5b50506040516370a0823160e01b8152614d569250839150600080516020616387833981519152906370a0823190614cff903090600401615091565b602060405180830381865afa158015614d1c573d6000803e3d6000fd5b505050506040513d601f19601f82011682018060405250810190614d4091906156e4565b600080516020616387833981519152919061267d565b6040516370a0823160e01b8152614de49082906000805160206163a7833981519152906370a0823190614d8d903090600401615091565b602060405180830381865afa158015614daa573d6000803e3d6000fd5b505050506040513d601f19601f82011682018060405250810190614dce91906156e4565b6000805160206163a7833981519152919061267d565b6040516370a0823160e01b8152610cea908290600080516020616367833981519152906370a0823190614e1b903090600401615091565b602060405180830381865afa158015614e38573d6000803e3d6000fd5b505050506040513d601f19601f82011682018060405250810190614e5c91906156e4565b600080516020616367833981519152919061267d565b60608315614edf578251600003614ed857614e8c856126d8565b614ed85760405162461bcd60e51b815260206004820152601d60248201527f416464726573733a2063616c6c20746f206e6f6e2d636f6e74726163740000006044820152606401610b11565b5081611a27565b611a278383614f65565b6000611082836000805160206163a78339815191526001600160a01b031663313ce5676040518163ffffffff1660e01b8152600401602060405180830381865afa158015614f3b573d6000803e3d6000fd5b505050506040513d601f19601f82011682018060405250810190614f5f9190615ab4565b846137fc565b815115614f755781518083602001fd5b8060405162461bcd60e51b8152600401610b1191906150f5565b803561ffff81168114614fa157600080fd5b919050565b60008083601f840112614fb857600080fd5b5081356001600160401b03811115614fcf57600080fd5b6020830191508360208285010111156144b957600080fd5b80356001600160401b0381168114614fa157600080fd5b6000806000806000806080878903121561501757600080fd5b61502087614f8f565b955060208701356001600160401b038082111561503c57600080fd5b6150488a838b01614fa6565b909750955085915061505c60408a01614fe7565b9450606089013591508082111561507257600080fd5b5061507f89828a01614fa6565b979a9699509497509295939492505050565b6001600160a01b0391909116815260200190565b60005b838110156150c05781810151838201526020016150a8565b50506000910152565b600081518084526150e18160208601602086016150a5565b601f01601f19169290920160200192915050565b60208152600061108260208301846150c9565b60006020828403121561511a57600080fd5b61108282614f8f565b6000806040838503121561513657600080fd5b61513f83614f8f565b946020939093013593505050565b6001600160a01b0381168114610cea57600080fd5b60006020828403121561517457600080fd5b81356110828161514d565b600080600080600080600080610100898b03121561519c57600080fd5b88356151a78161514d565b975060208901356151b78161514d565b965060408901356151c78161514d565b955060608901356151d78161514d565b94506151e560808a01614f8f565b93506151f360a08a01614f8f565b925060c08901356152038161514d565b915060e08901356152138161514d565b809150509295985092959890939650565b6001600160a01b03169052565b60006020828403121561524357600080fd5b5035919050565b60008060006040848603121561525f57600080fd5b61526884614f8f565b925060208401356001600160401b0381111561528357600080fd5b61528f86828701614fa6565b9497909650939450505050565b8015158114610cea57600080fd5b6000602082840312156152bc57600080fd5b81356110828161529c565b634e487b7160e01b600052604160045260246000fd5b604051602081016001600160401b03811182821017156152ff576152ff6152c7565b60405290565b604051601f8201601f191681016001600160401b038111828210171561532d5761532d6152c7565b604052919050565b60006001600160401b0382111561534e5761534e6152c7565b50601f01601f191660200190565b600082601f83011261536d57600080fd5b813561538061537b82615335565b615305565b81815284602083860101111561539557600080fd5b816020850160208301376000918101602001919091529392505050565b600080600080600060a086880312156153ca57600080fd5b8535945060208601359350604086013592506060860135915060808601356001600160401b038111156153fc57600080fd5b6154088882890161535c565b9150509295509295909350565b60008060006060848603121561542a57600080fd5b61543384614f8f565b925060208401356001600160401b0381111561544e57600080fd5b61545a8682870161535c565b92505061546960408501614fe7565b90509250925092565b6000806040838503121561548557600080fd5b61548e83614f8f565b915061549c60208401614f8f565b90509250929050565b6000606082840312156154b757600080fd5b604051606081016001600160401b03811182821017156154d9576154d96152c7565b60405282356154e78161514d565b81526020838101359082015260408301356155018161529c565b60408201529392505050565b60008060008060008060c0878903121561552657600080fd5b61552f87614f8f565b955060208701356001600160401b038082111561554b57600080fd5b6155578a838b0161535c565b965060408901359550606089013591506155708261514d565b9093506080880135925060a0880135908082111561558d57600080fd5b5061559a89828a0161535c565b9150509295509295509295565b6000806000806000608086880312156155bf57600080fd5b6155c886614f8f565b94506155d660208701614f8f565b93506040860135925060608601356001600160401b038111156155f857600080fd5b61560488828901614fa6565b969995985093965092949392505050565b60008060006060848603121561562a57600080fd5b61563384614f8f565b925061564160208501614f8f565b9150604084013590509250925092565b6000806000806080858703121561566757600080fd5b84356156728161514d565b935060208501356156828161514d565b93969395505050506040820135916060013590565b600080600080608085870312156156ad57600080fd5b6156b685614f8f565b93506156c460208601614f8f565b925060408501356156d48161514d565b9396929550929360600135925050565b6000602082840312156156f657600080fd5b5051919050565b600181811c9082168061571157607f821691505b60208210810361573157634e487b7160e01b600052602260045260246000fd5b50919050565b8183823760009101908152919050565b81835281816020850137506000828201602090810191909152601f909101601f19169091010190565b61ffff841681526040602082015260006122ed604083018486615747565b634e487b7160e01b600052601160045260246000fd5b818103818111156111145761111461578e565b808201808211156111145761111461578e565b6000600182016157dc576157dc61578e565b5060010190565b634e487b7160e01b600052602160045260246000fd5b6005811061581757634e487b7160e01b600052602160045260246000fd5b9052565b61582581846157f9565b6040602082015261583a604082018351615224565b6020820151606082015260408201516080820152606082015160a0820152608082015160c082015260a082015160e0820152600060c0830151610100818185015260e085015191506101208281860152818601519250610140915082828601528086015192505061016082818601528186015192508061018086015250506122ed6101a08401826150c9565b8284823760609190911b6001600160601b0319169101908152601401919050565b601f8211156126d357600081815260208120601f850160051c8101602086101561590e5750805b601f850160051c820191505b81811015610b905782815560010161591a565b600019600383901b1c191660019190911b1790565b81516001600160401b0381111561595b5761595b6152c7565b61596f8161596984546156fd565b846158e7565b602080601f83116001811461599e576000841561598c5750858301515b615996858261592d565b865550610b90565b600085815260208120601f198616915b828110156159cd578886015182559484019460019091019084016159ae565b50858210156159eb5787850151600019600388901b60f8161c191681555b5050505050600190811b01905550565b6001600160a01b03948516815292909316602083015215156040820152606081019190915260800190565b60008060408385031215615a3957600080fd5b505080516020909101519092909150565b60008251615a5c8184602087016150a5565b9190910192915050565b805160208201516001600160601b03198082169291906014831015615a955780818460140360031b1b83161693505b505050919050565b9182526001600160a01b0316602082015260400190565b600060208284031215615ac657600080fd5b815160ff8116811461108257600080fd5b600061ffff808816835280871660208401525084604083015260806060830152614a30608083018486615747565b61ffff86168152608060208201526000615b23608083018688615747565b6001600160401b0394909416604083015250606001529392505050565b6001600160401b03831115615b5757615b576152c7565b615b6b83615b6583546156fd565b836158e7565b6000601f841160018114615b995760008515615b875750838201355b615b91868261592d565b845550610bfe565b600083815260209020601f19861690835b82811015615bca5786850135825560209485019460019092019101615baa565b5086821015615be75760001960f88860031b161c19848701351681555b505060018560011b0183555050505050565b600060208284031215615c0b57600080fd5b81516001600160401b03811115615c2157600080fd5b8201601f81018413615c3257600080fd5b8051615c4061537b82615335565b818152856020838501011115615c5557600080fd5b6122ed8260208301602086016150a5565b600181815b80851115615ca1578160001904821115615c8757615c8761578e565b80851615615c9457918102915b93841c9390800290615c6b565b509250929050565b600082615cb857506001611114565b81615cc557506000611114565b8160018114615cdb5760028114615ce557615d01565b6001915050611114565b60ff841115615cf657615cf661578e565b50506001821b611114565b5060208310610133831016604e8410600b8410161715615d24575081810a611114565b615d2e8383615c66565b8060001904821115615d4257615d4261578e565b029392505050565b600061108260ff841683615ca9565b80820281158282048414176111145761111461578e565b600082615d8d57634e487b7160e01b600052601260045260246000fd5b500490565b61ffff85168152608060208201526000615daf60808301866150c9565b6001600160401b03851660408401528281036060840152614a3081856150c9565b6001600160a01b03929092168252602082015260400190565b6020808252602b908201527f496e697469616c697a61626c653a20636f6e7472616374206973206e6f74206960408201526a6e697469616c697a696e6760a81b606082015260800190565b600060208284031215615e4657600080fd5b81516110828161529c565b602081526000825160806020840152615e6d60a08401826150c9565b905060018060a01b03602085015116604084015260408401516060840152606084015160808401528091505092915050565b600080600060608486031215615eb457600080fd5b8351925060208401519150604084015190509250925092565b61ffff841681526001600160a01b03831660208201526060604082018190526000906122ed908301846150c9565b6001600160a01b0386811682526020820186905261ffff851660408301528316606082015260a060808201819052600090614a30908301846150c9565b61ffff861681526001600160a01b038516602082015260a060408201819052600090615f66908301866150c9565b84151560608401528281036080840152615f8081856150c9565b98975050505050505050565b61ffff8716815260c060208201526000615fa960c08301886150c9565b8281036040840152615fbb81886150c9565b6001600160a01b0387811660608601528616608085015283810360a08501529050615fe681856150c9565b9998505050505050505050565b60ff82811682821603908111156111145761111461578e565b61ffff8616815260a06020820152600061602960a08301876150c9565b6001600160401b0386166040840152828103606084015261604a81866150c9565b90508281036080840152615f8081856150c9565b6001600160a01b039485168152929093166020830152604082015260ff909116606082015260800190565b60006020828403121561609b57600080fd5b81516005811061108257600080fd5b60008082840360408112156160be57600080fd5b835192506020601f19820112156160d457600080fd5b506160dd6152dd565b6020939093015183525092909150565b600080828403606081121561610157600080fd5b835192506040601f198201121561611757600080fd5b50604080519081016001600160401b038111828210171561613a5761613a6152c7565b60409081526020858101518352940151938101939093525092909150565b600080828403604081121561616c57600080fd5b835192506020601f198201121561618257600080fd5b5061618b6152dd565b60208401516161998161514d565b8152919491935090915050565b634e487b7160e01b600052603260045260246000fd5b600060a0820187835260208781850152604060a08186015282885180855260c087019150838a01945060005b8181101561622557855180516001600160a01b039081168552868201511686850152840151151584840152948401946060909201916001016161e8565b50508094505050505061623b6060830185615224565b8260808301529695505050505050565b6000602080838503121561625e57600080fd5b82516001600160401b038082111561627557600080fd5b818501915085601f83011261628957600080fd5b81518181111561629b5761629b6152c7565b8060051b91506162ac848301615305565b81815291830184019184810190888411156162c657600080fd5b938501935b83851015615f80578451825293850193908501906162cb565b60a081016162f282856157f9565b60018060a01b038351166020830152602083015160408301526040830151606083015260608301516080830152939250505056fe000000000000000000000000cc25c0fd84737f44a7d38649b69491bbf0c7f08300000000000000000000000097bd59a8202f8263c2ec39cf6cf6b438d0b458760000000000000000000000007238390d5f6f64e67c3211c343a410e2a3dec142000000000000000000000000d17cb0f162f133e339c0bbfc18c36c357e681d6b00000000000000000000000040379a439d4f6795b6fc9aa5687db461677a2dbab0c58532a125fc3c0adccaef396bf65344a4d5781cec2e4c593e6b611d75f150a264697066735822122067f10f8ee2d43d6d3b1bf0e4c5708b6d07fc137be7898a15abaaeaa797b6682964736f6c63430008130033",
  "linkReferences": {
    "contracts/strategies/utils/PearlStrategyLib.sol": {
      "PearlStrategyLib": [
        {
          "length": 20,
          "start": 4310
        },
        {
          "length": 20,
          "start": 5890
        }
      ]
    }
  },
  "deployedLinkReferences": {
    "contracts/strategies/utils/PearlStrategyLib.sol": {
      "PearlStrategyLib": [
        {
          "length": 20,
          "start": 4277
        },
        {
          "length": 20,
          "start": 5857
        }
      ]
    }
  }
}