{
  "_format": "hh-sol-artifact-1",
  "contractName": "PearlStrategy",
  "sourceName": "contracts/strategies/PearlStrategy.sol",
  "abi": [
    {
      "inputs": [
        {
          "internalType": "uint256",
          "name": "messageType",
          "type": "uint256"
        }
      ],
      "name": "IncorrectMessageType",
      "type": "error"
    },
    {
      "inputs": [
        {
          "internalType": "uint256",
          "name": "amount",
          "type": "uint256"
        },
        {
          "internalType": "uint256",
          "name": "balance",
          "type": "uint256"
        }
      ],
      "name": "InsufficientFunds",
      "type": "error"
    },
    {
      "inputs": [],
      "name": "SwapHelperOnly",
      "type": "error"
    },
    {
      "anonymous": false,
      "inputs": [
        {
          "indexed": false,
          "internalType": "uint256",
          "name": "debtOutstanding",
          "type": "uint256"
        }
      ],
      "name": "AdjustedPosition",
      "type": "event"
    },
    {
      "anonymous": false,
      "inputs": [
        {
          "indexed": true,
          "internalType": "address",
          "name": "src",
          "type": "address"
        },
        {
          "indexed": true,
          "internalType": "address",
          "name": "dst",
          "type": "address"
        },
        {
          "indexed": true,
          "internalType": "uint256",
          "name": "amount",
          "type": "uint256"
        },
        {
          "indexed": false,
          "internalType": "bytes",
          "name": "lowLevelErrorData",
          "type": "bytes"
        }
      ],
      "name": "EmergencyQuoteOnAlternativeDEX",
      "type": "event"
    },
    {
      "anonymous": false,
      "inputs": [
        {
          "indexed": true,
          "internalType": "address",
          "name": "src",
          "type": "address"
        },
        {
          "indexed": true,
          "internalType": "address",
          "name": "dst",
          "type": "address"
        },
        {
          "indexed": true,
          "internalType": "uint256",
          "name": "amount",
          "type": "uint256"
        },
        {
          "indexed": false,
          "internalType": "bytes",
          "name": "lowLevelErrorData",
          "type": "bytes"
        }
      ],
      "name": "EmergencySwapOnAlternativeDEX",
      "type": "event"
    },
    {
      "anonymous": false,
      "inputs": [
        {
          "indexed": false,
          "internalType": "uint8",
          "name": "version",
          "type": "uint8"
        }
      ],
      "name": "Initialized",
      "type": "event"
    },
    {
      "anonymous": false,
      "inputs": [
        {
          "indexed": false,
          "internalType": "uint16",
          "name": "_srcChainId",
          "type": "uint16"
        },
        {
          "indexed": false,
          "internalType": "bytes",
          "name": "_srcAddress",
          "type": "bytes"
        },
        {
          "indexed": false,
          "internalType": "uint64",
          "name": "_nonce",
          "type": "uint64"
        },
        {
          "indexed": false,
          "internalType": "bytes",
          "name": "_payload",
          "type": "bytes"
        },
        {
          "indexed": false,
          "internalType": "bytes",
          "name": "_reason",
          "type": "bytes"
        }
      ],
      "name": "MessageFailed",
      "type": "event"
    },
    {
      "anonymous": false,
      "inputs": [
        {
          "indexed": true,
          "internalType": "address",
          "name": "src",
          "type": "address"
        },
        {
          "indexed": true,
          "internalType": "address",
          "name": "dst",
          "type": "address"
        },
        {
          "indexed": true,
          "internalType": "uint256",
          "name": "amountOut",
          "type": "uint256"
        },
        {
          "indexed": false,
          "internalType": "uint256",
          "name": "amountIn",
          "type": "uint256"
        }
      ],
      "name": "Notified",
      "type": "event"
    },
    {
      "anonymous": false,
      "inputs": [
        {
          "indexed": true,
          "internalType": "address",
          "name": "previousOwner",
          "type": "address"
        },
        {
          "indexed": true,
          "internalType": "address",
          "name": "newOwner",
          "type": "address"
        }
      ],
      "name": "OwnershipTransferred",
      "type": "event"
    },
    {
      "anonymous": false,
      "inputs": [
        {
          "indexed": true,
          "internalType": "address",
          "name": "src",
          "type": "address"
        },
        {
          "indexed": true,
          "internalType": "address",
          "name": "dst",
          "type": "address"
        },
        {
          "indexed": true,
          "internalType": "uint256",
          "name": "amount",
          "type": "uint256"
        }
      ],
      "name": "Quote",
      "type": "event"
    },
    {
      "anonymous": false,
      "inputs": [
        {
          "indexed": false,
          "internalType": "uint16",
          "name": "_srcChainId",
          "type": "uint16"
        },
        {
          "indexed": false,
          "internalType": "bytes",
          "name": "_srcAddress",
          "type": "bytes"
        },
        {
          "indexed": false,
          "internalType": "uint64",
          "name": "_nonce",
          "type": "uint64"
        },
        {
          "indexed": false,
          "internalType": "bytes32",
          "name": "_payloadHash",
          "type": "bytes32"
        }
      ],
      "name": "RetryMessageSuccess",
      "type": "event"
    },
    {
      "anonymous": false,
      "inputs": [
        {
          "indexed": false,
          "internalType": "uint16",
          "name": "_dstChainId",
          "type": "uint16"
        },
        {
          "indexed": false,
          "internalType": "uint16",
          "name": "_type",
          "type": "uint16"
        },
        {
          "indexed": false,
          "internalType": "uint256",
          "name": "_minDstGas",
          "type": "uint256"
        }
      ],
      "name": "SetMinDstGas",
      "type": "event"
    },
    {
      "anonymous": false,
      "inputs": [
        {
          "indexed": false,
          "internalType": "address",
          "name": "precrime",
          "type": "address"
        }
      ],
      "name": "SetPrecrime",
      "type": "event"
    },
    {
      "anonymous": false,
      "inputs": [
        {
          "indexed": false,
          "internalType": "uint16",
          "name": "_remoteChainId",
          "type": "uint16"
        },
        {
          "indexed": false,
          "internalType": "bytes",
          "name": "_path",
          "type": "bytes"
        }
      ],
      "name": "SetTrustedRemote",
      "type": "event"
    },
    {
      "anonymous": false,
      "inputs": [
        {
          "indexed": false,
          "internalType": "uint16",
          "name": "_remoteChainId",
          "type": "uint16"
        },
        {
          "indexed": false,
          "internalType": "bytes",
          "name": "_remoteAddress",
          "type": "bytes"
        }
      ],
      "name": "SetTrustedRemoteAddress",
      "type": "event"
    },
    {
      "anonymous": false,
      "inputs": [
        {
          "indexed": true,
          "internalType": "address",
          "name": "token",
          "type": "address"
        },
        {
          "indexed": false,
          "internalType": "uint256",
          "name": "amount",
          "type": "uint256"
        },
        {
          "indexed": false,
          "internalType": "address",
          "name": "sender",
          "type": "address"
        }
      ],
      "name": "SgReceived",
      "type": "event"
    },
    {
      "anonymous": false,
      "inputs": [
        {
          "indexed": false,
          "internalType": "address",
          "name": "newStrategy",
          "type": "address"
        }
      ],
      "name": "StrategyMigrated",
      "type": "event"
    },
    {
      "anonymous": false,
      "inputs": [
        {
          "indexed": false,
          "internalType": "uint256",
          "name": "profit",
          "type": "uint256"
        },
        {
          "indexed": false,
          "internalType": "uint256",
          "name": "loss",
          "type": "uint256"
        },
        {
          "indexed": false,
          "internalType": "uint256",
          "name": "debtPayment",
          "type": "uint256"
        },
        {
          "indexed": false,
          "internalType": "uint256",
          "name": "giveToStrategy",
          "type": "uint256"
        },
        {
          "indexed": false,
          "internalType": "uint256",
          "name": "requestFromStrategy",
          "type": "uint256"
        },
        {
          "indexed": false,
          "internalType": "uint256",
          "name": "creditAvailable",
          "type": "uint256"
        },
        {
          "indexed": false,
          "internalType": "uint256",
          "name": "totalAssets",
          "type": "uint256"
        }
      ],
      "name": "StrategyReported",
      "type": "event"
    },
    {
      "anonymous": false,
      "inputs": [
        {
          "indexed": true,
          "internalType": "address",
          "name": "src",
          "type": "address"
        },
        {
          "indexed": true,
          "internalType": "address",
          "name": "dst",
          "type": "address"
        },
        {
          "indexed": true,
          "internalType": "uint256",
          "name": "amount",
          "type": "uint256"
        }
      ],
      "name": "Swap",
      "type": "event"
    },
    {
      "inputs": [],
      "name": "DEFAULT_PAYLOAD_SIZE_LIMIT",
      "outputs": [
        {
          "internalType": "uint256",
          "name": "",
          "type": "uint256"
        }
      ],
      "stateMutability": "view",
      "type": "function"
    },
    {
      "inputs": [
        {
          "internalType": "uint256",
          "name": "_debtOutstanding",
          "type": "uint256"
        }
      ],
      "name": "adjustPosition",
      "outputs": [],
      "stateMutability": "nonpayable",
      "type": "function"
    },
    {
      "inputs": [],
      "name": "balanceOfWant",
      "outputs": [
        {
          "internalType": "uint256",
          "name": "",
          "type": "uint256"
        }
      ],
      "stateMutability": "view",
      "type": "function"
    },
    {
      "inputs": [
        {
          "internalType": "uint256",
          "name": "epoch",
          "type": "uint256"
        }
      ],
      "name": "callMe",
      "outputs": [],
      "stateMutability": "nonpayable",
      "type": "function"
    },
    {
      "inputs": [],
      "name": "clearWant",
      "outputs": [],
      "stateMutability": "nonpayable",
      "type": "function"
    },
    {
      "inputs": [],
      "name": "currentChainId",
      "outputs": [
        {
          "internalType": "uint16",
          "name": "",
          "type": "uint16"
        }
      ],
      "stateMutability": "view",
      "type": "function"
    },
    {
      "inputs": [],
      "name": "emergencyExit",
      "outputs": [
        {
          "internalType": "bool",
          "name": "",
          "type": "bool"
        }
      ],
      "stateMutability": "view",
      "type": "function"
    },
    {
      "inputs": [],
      "name": "estimatedTotalAssets",
      "outputs": [
        {
          "internalType": "uint256",
          "name": "",
          "type": "uint256"
        }
      ],
      "stateMutability": "view",
      "type": "function"
    },
    {
      "inputs": [
        {
          "internalType": "uint16",
          "name": "",
          "type": "uint16"
        },
        {
          "internalType": "bytes",
          "name": "",
          "type": "bytes"
        },
        {
          "internalType": "uint64",
          "name": "",
          "type": "uint64"
        }
      ],
      "name": "failedMessages",
      "outputs": [
        {
          "internalType": "bytes32",
          "name": "",
          "type": "bytes32"
        }
      ],
      "stateMutability": "view",
      "type": "function"
    },
    {
      "inputs": [
        {
          "internalType": "uint16",
          "name": "_srcChainId",
          "type": "uint16"
        },
        {
          "internalType": "bytes",
          "name": "_srcAddress",
          "type": "bytes"
        }
      ],
      "name": "forceResumeReceive",
      "outputs": [],
      "stateMutability": "nonpayable",
      "type": "function"
    },
    {
      "inputs": [
        {
          "internalType": "uint16",
          "name": "_version",
          "type": "uint16"
        },
        {
          "internalType": "uint16",
          "name": "_chainId",
          "type": "uint16"
        },
        {
          "internalType": "address",
          "name": "",
          "type": "address"
        },
        {
          "internalType": "uint256",
          "name": "_configType",
          "type": "uint256"
        }
      ],
      "name": "getConfig",
      "outputs": [
        {
          "internalType": "bytes",
          "name": "",
          "type": "bytes"
        }
      ],
      "stateMutability": "view",
      "type": "function"
    },
    {
      "inputs": [
        {
          "internalType": "bytes32",
          "name": "_messageHash",
          "type": "bytes32"
        }
      ],
      "name": "getEthSignedMessageHash",
      "outputs": [
        {
          "internalType": "bytes32",
          "name": "",
          "type": "bytes32"
        }
      ],
      "stateMutability": "pure",
      "type": "function"
    },
    {
      "inputs": [
        {
          "internalType": "uint16",
          "name": "_remoteChainId",
          "type": "uint16"
        }
      ],
      "name": "getTrustedRemoteAddress",
      "outputs": [
        {
          "internalType": "bytes",
          "name": "",
          "type": "bytes"
        }
      ],
      "stateMutability": "view",
      "type": "function"
    },
    {
      "inputs": [
        {
          "internalType": "uint256",
          "name": "_totalDebt",
          "type": "uint256"
        },
        {
          "internalType": "uint256",
          "name": "_debtOutstanding",
          "type": "uint256"
        },
        {
          "internalType": "uint256",
          "name": "_creditAvailable",
          "type": "uint256"
        },
        {
          "internalType": "uint256",
          "name": "_debtRatio",
          "type": "uint256"
        },
        {
          "internalType": "bytes",
          "name": "_signature",
          "type": "bytes"
        }
      ],
      "name": "harvest",
      "outputs": [],
      "stateMutability": "nonpayable",
      "type": "function"
    },
    {
      "inputs": [
        {
          "internalType": "address",
          "name": "_lzEndpoint",
          "type": "address"
        },
        {
          "internalType": "address",
          "name": "_strategist",
          "type": "address"
        },
        {
          "internalType": "contract IERC20",
          "name": "_want",
          "type": "address"
        },
        {
          "internalType": "address",
          "name": "_vault",
          "type": "address"
        },
        {
          "internalType": "uint16",
          "name": "_vaultChainId",
          "type": "uint16"
        },
        {
          "internalType": "uint16",
          "name": "_currentChainId",
          "type": "uint16"
        },
        {
          "internalType": "address",
          "name": "_sgBridge",
          "type": "address"
        },
        {
          "internalType": "address",
          "name": "_router",
          "type": "address"
        }
      ],
      "name": "initialize",
      "outputs": [],
      "stateMutability": "nonpayable",
      "type": "function"
    },
    {
      "inputs": [
        {
          "internalType": "uint16",
          "name": "_srcChainId",
          "type": "uint16"
        },
        {
          "internalType": "bytes",
          "name": "_srcAddress",
          "type": "bytes"
        }
      ],
      "name": "isTrustedRemote",
      "outputs": [
        {
          "internalType": "bool",
          "name": "",
          "type": "bool"
        }
      ],
      "stateMutability": "view",
      "type": "function"
    },
    {
      "inputs": [],
      "name": "lzEndpoint",
      "outputs": [
        {
          "internalType": "contract ILayerZeroEndpointUpgradeable",
          "name": "",
          "type": "address"
        }
      ],
      "stateMutability": "view",
      "type": "function"
    },
    {
      "inputs": [
        {
          "internalType": "uint16",
          "name": "_srcChainId",
          "type": "uint16"
        },
        {
          "internalType": "bytes",
          "name": "_srcAddress",
          "type": "bytes"
        },
        {
          "internalType": "uint64",
          "name": "_nonce",
          "type": "uint64"
        },
        {
          "internalType": "bytes",
          "name": "_payload",
          "type": "bytes"
        }
      ],
      "name": "lzReceive",
      "outputs": [],
      "stateMutability": "nonpayable",
      "type": "function"
    },
    {
      "inputs": [
        {
          "internalType": "uint16",
          "name": "",
          "type": "uint16"
        },
        {
          "internalType": "uint16",
          "name": "",
          "type": "uint16"
        }
      ],
      "name": "minDstGasLookup",
      "outputs": [
        {
          "internalType": "uint256",
          "name": "",
          "type": "uint256"
        }
      ],
      "stateMutability": "view",
      "type": "function"
    },
    {
      "inputs": [],
      "name": "name",
      "outputs": [
        {
          "internalType": "string",
          "name": "",
          "type": "string"
        }
      ],
      "stateMutability": "pure",
      "type": "function"
    },
    {
      "inputs": [
        {
          "internalType": "uint16",
          "name": "_srcChainId",
          "type": "uint16"
        },
        {
          "internalType": "bytes",
          "name": "_srcAddress",
          "type": "bytes"
        },
        {
          "internalType": "uint64",
          "name": "_nonce",
          "type": "uint64"
        },
        {
          "internalType": "bytes",
          "name": "_payload",
          "type": "bytes"
        }
      ],
      "name": "nonblockingLzReceive",
      "outputs": [],
      "stateMutability": "nonpayable",
      "type": "function"
    },
    {
      "inputs": [
        {
          "internalType": "address",
          "name": "src",
          "type": "address"
        },
        {
          "internalType": "address",
          "name": "dst",
          "type": "address"
        },
        {
          "internalType": "uint256",
          "name": "amountOut",
          "type": "uint256"
        },
        {
          "internalType": "uint256",
          "name": "amountIn",
          "type": "uint256"
        }
      ],
      "name": "notifyCallback",
      "outputs": [],
      "stateMutability": "nonpayable",
      "type": "function"
    },
    {
      "inputs": [],
      "name": "owner",
      "outputs": [
        {
          "internalType": "address",
          "name": "",
          "type": "address"
        }
      ],
      "stateMutability": "view",
      "type": "function"
    },
    {
      "inputs": [
        {
          "internalType": "uint16",
          "name": "",
          "type": "uint16"
        }
      ],
      "name": "payloadSizeLimitLookup",
      "outputs": [
        {
          "internalType": "uint256",
          "name": "",
          "type": "uint256"
        }
      ],
      "stateMutability": "view",
      "type": "function"
    },
    {
      "inputs": [],
      "name": "precrime",
      "outputs": [
        {
          "internalType": "address",
          "name": "",
          "type": "address"
        }
      ],
      "stateMutability": "view",
      "type": "function"
    },
    {
      "inputs": [],
      "name": "renounceOwnership",
      "outputs": [],
      "stateMutability": "nonpayable",
      "type": "function"
    },
    {
      "inputs": [
        {
          "internalType": "uint16",
          "name": "_srcChainId",
          "type": "uint16"
        },
        {
          "internalType": "bytes",
          "name": "_srcAddress",
          "type": "bytes"
        },
        {
          "internalType": "uint64",
          "name": "_nonce",
          "type": "uint64"
        },
        {
          "internalType": "bytes",
          "name": "_payload",
          "type": "bytes"
        }
      ],
      "name": "retryMessage",
      "outputs": [],
      "stateMutability": "payable",
      "type": "function"
    },
    {
      "inputs": [],
      "name": "revokeFunds",
      "outputs": [],
      "stateMutability": "nonpayable",
      "type": "function"
    },
    {
      "inputs": [
        {
          "internalType": "uint16",
          "name": "_version",
          "type": "uint16"
        },
        {
          "internalType": "uint16",
          "name": "_chainId",
          "type": "uint16"
        },
        {
          "internalType": "uint256",
          "name": "_configType",
          "type": "uint256"
        },
        {
          "internalType": "bytes",
          "name": "_config",
          "type": "bytes"
        }
      ],
      "name": "setConfig",
      "outputs": [],
      "stateMutability": "nonpayable",
      "type": "function"
    },
    {
      "inputs": [
        {
          "internalType": "bool",
          "name": "_emergencyExit",
          "type": "bool"
        }
      ],
      "name": "setEmergencyExit",
      "outputs": [],
      "stateMutability": "nonpayable",
      "type": "function"
    },
    {
      "inputs": [
        {
          "internalType": "uint16",
          "name": "_dstChainId",
          "type": "uint16"
        },
        {
          "internalType": "uint16",
          "name": "_packetType",
          "type": "uint16"
        },
        {
          "internalType": "uint256",
          "name": "_minGas",
          "type": "uint256"
        }
      ],
      "name": "setMinDstGas",
      "outputs": [],
      "stateMutability": "nonpayable",
      "type": "function"
    },
    {
      "inputs": [
        {
          "internalType": "uint16",
          "name": "_dstChainId",
          "type": "uint16"
        },
        {
          "internalType": "uint256",
          "name": "_size",
          "type": "uint256"
        }
      ],
      "name": "setPayloadSizeLimit",
      "outputs": [],
      "stateMutability": "nonpayable",
      "type": "function"
    },
    {
      "inputs": [
        {
          "internalType": "address",
          "name": "_precrime",
          "type": "address"
        }
      ],
      "name": "setPrecrime",
      "outputs": [],
      "stateMutability": "nonpayable",
      "type": "function"
    },
    {
      "inputs": [
        {
          "internalType": "uint16",
          "name": "_version",
          "type": "uint16"
        }
      ],
      "name": "setReceiveVersion",
      "outputs": [],
      "stateMutability": "nonpayable",
      "type": "function"
    },
    {
      "inputs": [
        {
          "internalType": "uint16",
          "name": "_version",
          "type": "uint16"
        }
      ],
      "name": "setSendVersion",
      "outputs": [],
      "stateMutability": "nonpayable",
      "type": "function"
    },
    {
      "inputs": [
        {
          "internalType": "uint256",
          "name": "_slippage",
          "type": "uint256"
        }
      ],
      "name": "setSlippage",
      "outputs": [],
      "stateMutability": "nonpayable",
      "type": "function"
    },
    {
      "inputs": [
        {
          "internalType": "address",
          "name": "_strategist",
          "type": "address"
        }
      ],
      "name": "setStrategist",
      "outputs": [],
      "stateMutability": "nonpayable",
      "type": "function"
    },
    {
      "inputs": [
        {
          "components": [
            {
              "internalType": "contract ISwapHelper",
              "name": "swapHelper",
              "type": "address"
            },
            {
              "internalType": "uint256",
              "name": "quoteBuffer",
              "type": "uint256"
            },
            {
              "internalType": "bool",
              "name": "isQuoteBufferContainsHopToWantValue",
              "type": "bool"
            }
          ],
          "internalType": "struct SwapHelperDTO",
          "name": "__swapHelperDTO",
          "type": "tuple"
        }
      ],
      "name": "setSwapHelperDTO",
      "outputs": [],
      "stateMutability": "nonpayable",
      "type": "function"
    },
    {
      "inputs": [
        {
          "internalType": "uint16",
          "name": "_srcChainId",
          "type": "uint16"
        },
        {
          "internalType": "bytes",
          "name": "_path",
          "type": "bytes"
        }
      ],
      "name": "setTrustedRemote",
      "outputs": [],
      "stateMutability": "nonpayable",
      "type": "function"
    },
    {
      "inputs": [
        {
          "internalType": "uint16",
          "name": "_remoteChainId",
          "type": "uint16"
        },
        {
          "internalType": "bytes",
          "name": "_remoteAddress",
          "type": "bytes"
        }
      ],
      "name": "setTrustedRemoteAddress",
      "outputs": [],
      "stateMutability": "nonpayable",
      "type": "function"
    },
    {
      "inputs": [],
      "name": "sgBridge",
      "outputs": [
        {
          "internalType": "contract ISgBridge",
          "name": "",
          "type": "address"
        }
      ],
      "stateMutability": "view",
      "type": "function"
    },
    {
      "inputs": [
        {
          "internalType": "uint16",
          "name": "",
          "type": "uint16"
        },
        {
          "internalType": "bytes",
          "name": "_srcAddress",
          "type": "bytes"
        },
        {
          "internalType": "uint256",
          "name": "",
          "type": "uint256"
        },
        {
          "internalType": "address",
          "name": "_token",
          "type": "address"
        },
        {
          "internalType": "uint256",
          "name": "_amountLD",
          "type": "uint256"
        },
        {
          "internalType": "bytes",
          "name": "",
          "type": "bytes"
        }
      ],
      "name": "sgReceive",
      "outputs": [],
      "stateMutability": "nonpayable",
      "type": "function"
    },
    {
      "inputs": [],
      "name": "sgRouter",
      "outputs": [
        {
          "internalType": "contract IStargateRouter",
          "name": "",
          "type": "address"
        }
      ],
      "stateMutability": "view",
      "type": "function"
    },
    {
      "inputs": [],
      "name": "slippage",
      "outputs": [
        {
          "internalType": "uint256",
          "name": "",
          "type": "uint256"
        }
      ],
      "stateMutability": "view",
      "type": "function"
    },
    {
      "inputs": [],
      "name": "strategist",
      "outputs": [
        {
          "internalType": "address",
          "name": "",
          "type": "address"
        }
      ],
      "stateMutability": "view",
      "type": "function"
    },
    {
      "inputs": [],
      "name": "strategistSignMessageHash",
      "outputs": [
        {
          "internalType": "bytes32",
          "name": "",
          "type": "bytes32"
        }
      ],
      "stateMutability": "view",
      "type": "function"
    },
    {
      "inputs": [],
      "name": "swapHelper",
      "outputs": [
        {
          "internalType": "contract ISwapHelper",
          "name": "",
          "type": "address"
        }
      ],
      "stateMutability": "view",
      "type": "function"
    },
    {
      "inputs": [
        {
          "internalType": "contract IERC20",
          "name": "_token",
          "type": "address"
        }
      ],
      "name": "sweepToken",
      "outputs": [],
      "stateMutability": "nonpayable",
      "type": "function"
    },
    {
      "inputs": [
        {
          "internalType": "address",
          "name": "newOwner",
          "type": "address"
        }
      ],
      "name": "transferOwnership",
      "outputs": [],
      "stateMutability": "nonpayable",
      "type": "function"
    },
    {
      "inputs": [
        {
          "internalType": "uint16",
          "name": "",
          "type": "uint16"
        }
      ],
      "name": "trustedRemoteLookup",
      "outputs": [
        {
          "internalType": "bytes",
          "name": "",
          "type": "bytes"
        }
      ],
      "stateMutability": "view",
      "type": "function"
    },
    {
      "inputs": [],
      "name": "vault",
      "outputs": [
        {
          "internalType": "address",
          "name": "",
          "type": "address"
        }
      ],
      "stateMutability": "view",
      "type": "function"
    },
    {
      "inputs": [],
      "name": "vaultChainId",
      "outputs": [
        {
          "internalType": "uint16",
          "name": "",
          "type": "uint16"
        }
      ],
      "stateMutability": "view",
      "type": "function"
    },
    {
      "inputs": [],
      "name": "want",
      "outputs": [
        {
          "internalType": "contract IERC20",
          "name": "",
          "type": "address"
        }
      ],
      "stateMutability": "view",
      "type": "function"
    },
    {
      "inputs": [],
      "name": "wantDecimals",
      "outputs": [
        {
          "internalType": "uint8",
          "name": "",
          "type": "uint8"
        }
      ],
      "stateMutability": "view",
      "type": "function"
    },
    {
      "stateMutability": "payable",
      "type": "receive"
    }
  ],
  "bytecode": "0x608060405234801561001057600080fd5b5061651680620000216000396000f3fe6080604052600436106102685760003560e01c80621d3567146102745780630517cb761461029657806306fdde03146102cc57806307e0db171461030b5780630df374831461032b5780630fc6a11c1461034b57806310ddb1371461036b5780631be195601461038b5780631cdb539f146103ab5780631f1fcd51146103cb5780631fe4a686146103eb5780632d6068431461040b57806337fded91146104205780633d3ccc2f146104455780633d8b38f6146104655780633e032a3b146104955780633f1f4fa4146104b957806342d65a8d146104e657806345ee075514610506578063495f881e146105265780635641ec0314610546578063567ad85d14610560578063593178de146105955780635b8c41e6146105aa57806366ad5c8a146105f95780636cbadbfa14610619578063715018a61461063b5780637533d788146106505780638cfd8f5c146106705780638da5cb5b146106a8578063950c8a74146106bd5780639606647d146106dd5780639f38369a146106f2578063a4ef57ab14610712578063a6c3d16514610732578063ab8236f314610752578063adf076e614610772578063b353aaa7146107a5578063baf3292d146107c5578063c1a3d44c146107e5578063c4461834146107fa578063c7b9d53014610810578063cbed8b9c14610830578063d1deba1f14610850578063df2a5b3b14610863578063e73620c314610883578063eb8d72b7146108a3578063efbb5cb0146108c3578063f056dffe146108d8578063f0fa55a9146108f8578063f2fde38b14610918578063f5ecbdbc14610938578063fa54080114610958578063fbfa77cf1461097857600080fd5b3661026f57005b600080fd5b34801561028057600080fd5b5061029461028f3660046150ef565b610998565b005b3480156102a257600080fd5b5060ce546102b6906001600160a01b031681565b6040516102c39190615182565b60405180910390f35b3480156102d857600080fd5b5060408051808201909152600d81526c506561726c537472617465677960981b60208201525b6040516102c391906151e6565b34801561031757600080fd5b506102946103263660046151f9565b610a81565b34801561033757600080fd5b50610294610346366004615214565b610aee565b34801561035757600080fd5b5060d4546102b6906001600160a01b031681565b34801561037757600080fd5b506102946103863660046151f9565b610b0d565b34801561039757600080fd5b506102946103a6366004615253565b610b49565b3480156103b757600080fd5b506102946103c6366004615270565b610bd6565b3480156103d757600080fd5b5060ca546102b6906001600160a01b031681565b3480156103f757600080fd5b5060c9546102b6906001600160a01b031681565b34801561041757600080fd5b50610294610e2e565b34801561042c57600080fd5b5060cd546102b69061010090046001600160a01b031681565b34801561045157600080fd5b50610294610460366004615322565b610e6f565b34801561047157600080fd5b5061048561048036600461533b565b610ea5565b60405190151581526020016102c3565b3480156104a157600080fd5b506104ab60cc5481565b6040519081526020016102c3565b3480156104c557600080fd5b506104ab6104d43660046151f9565b60686020526000908152604090205481565b3480156104f257600080fd5b5061029461050136600461533b565b610f72565b34801561051257600080fd5b5061029461052136600461539b565b610fe5565b34801561053257600080fd5b506102946105413660046154a3565b611000565b34801561055257600080fd5b5060cd546104859060ff1681565b34801561056c57600080fd5b5060cb5461058290600160a01b900461ffff1681565b60405161ffff90911681526020016102c3565b3480156105a157600080fd5b506104ab6112a4565b3480156105b657600080fd5b506104ab6105c5366004615506565b6097602090815260009384526040808520845180860184018051928152908401958401959095209452929052825290205481565b34801561060557600080fd5b506102946106143660046150ef565b611302565b34801561062557600080fd5b5060cb5461058290600160b01b900461ffff1681565b34801561064757600080fd5b506102946113d6565b34801561065c57600080fd5b506102fe61066b3660046151f9565b6113ea565b34801561067c57600080fd5b506104ab61068b366004615563565b606760209081526000928352604080842090915290825290205481565b3480156106b457600080fd5b506102b6611484565b3480156106c957600080fd5b506069546102b6906001600160a01b031681565b3480156106e957600080fd5b50610294611493565b3480156106fe57600080fd5b506102fe61070d3660046151f9565b611526565b34801561071e57600080fd5b5061029461072d366004615596565b611635565b34801561073e57600080fd5b5061029461074d36600461533b565b61167d565b34801561075e57600080fd5b5061029461076d3660046155fe565b611706565b34801561077e57600080fd5b5060cb5461079390600160c01b900460ff1681565b60405160ff90911681526020016102c3565b3480156107b157600080fd5b506065546102b6906001600160a01b031681565b3480156107d157600080fd5b506102946107e0366004615253565b611800565b3480156107f157600080fd5b506104ab611853565b34801561080657600080fd5b506104ab61271081565b34801561081c57600080fd5b5061029461082b366004615253565b6118ca565b34801561083c57600080fd5b5061029461084b366004615698565b6118f4565b61029461085e3660046150ef565b611962565b34801561086f57600080fd5b5061029461087e366004615706565b611b78565b34801561088f57600080fd5b5061029461089e366004615322565b611c2a565b3480156108af57600080fd5b506102946108be36600461533b565b611c4a565b3480156108cf57600080fd5b506104ab611ca4565b3480156108e457600080fd5b506102946108f3366004615742565b611fae565b34801561090457600080fd5b50610294610913366004615322565b61202d565b34801561092457600080fd5b50610294610933366004615253565b61203a565b34801561094457600080fd5b506102fe610953366004615788565b6120b0565b34801561096457600080fd5b506104ab610973366004615322565b612145565b34801561098457600080fd5b5060cb546102b6906001600160a01b031681565b6065546001600160a01b03163314610a035760405162461bcd60e51b815260206004820152602360248201527f4261736553747261746567793a3a496e76616c6964456e64706f696e7443616c6044820152623632b960e91b60648201526084015b60405180910390fd5b610a798686868080601f01602080910402602001604051908101604052809392919081815260200183838082843760009201919091525050604080516020601f89018190048102820181019092528781528993509150879087908190840183828082843760009201919091525061219792505050565b505050505050565b610a89612210565b6065546040516307e0db1760e01b815261ffff831660048201526001600160a01b03909116906307e0db17906024015b600060405180830381600087803b158015610ad357600080fd5b505af1158015610ae7573d6000803e3d6000fd5b5050505050565b610af6612210565b61ffff909116600090815260686020526040902055565b610b15612210565b6065546040516310ddb13760e01b815261ffff831660048201526001600160a01b03909116906310ddb13790602401610ab9565b610b5161226f565b610bd333826001600160a01b03166370a08231306040518263ffffffff1660e01b8152600401610b819190615182565b602060405180830381865afa158015610b9e573d6000803e3d6000fd5b505050506040513d601f19601f82011682018060405250810190610bc291906157d5565b6001600160a01b03841691906122c8565b50565b600054610100900460ff1615808015610bf65750600054600160ff909116105b80610c175750610c0530612323565b158015610c17575060005460ff166001145b610c7a5760405162461bcd60e51b815260206004820152602e60248201527f496e697469616c697a61626c653a20636f6e747261637420697320616c72656160448201526d191e481a5b9a5d1a585b1a5e995960921b60648201526084016109fa565b6000805460ff191660011790558015610c9d576000805461ff0019166101001790555b610cb08989898989898989612648612332565b60ca54610cdd906001600160a01b03167368b3465833fb72a70ecdf485e0e4c7bd8665fc45600019612511565b60ca54610d04906001600160a01b0316600080516020616421833981519152600019612511565b610d2d6000805160206164a1833981519152600080516020616421833981519152600019612511565b610d56600080516020616481833981519152600080516020616441833981519152600019612511565b610d7f600080516020616481833981519152600080516020616421833981519152600019612511565b610db4738f3cf7ad23cd3cadbd9735aff958023239c6a06373195f7b233947d51f4c3b756ad41a5ddb34cebce0600019612511565b610ddd600080516020616461833981519152600080516020616421833981519152600019612511565b8015610e23576000805461ff0019169055604051600181527f7f26b83ff96e1f2b6a682f133852f6798a09c465da95921460cefb38474024989060200160405180910390a15b505050505050505050565b610e3661226f565b60c9546040516001600160a01b03909116904780156108fc02916000818181858888f19350505050158015610bd3573d6000803e3d6000fd5b610e7761226f565b610e8081612615565b6040518181526000805160206164c1833981519152906020015b60405180910390a150565b61ffff831660009081526066602052604081208054829190610ec6906157ee565b80601f0160208091040260200160405190810160405280929190818152602001828054610ef2906157ee565b8015610f3f5780601f10610f1457610100808354040283529160200191610f3f565b820191906000526020600020905b815481529060010190602001808311610f2257829003601f168201915b505050505090508383604051610f56929190615828565b60405180910390208180519060200120149150505b9392505050565b610f7a612210565b6065546040516342d65a8d60e01b81526001600160a01b03909116906342d65a8d90610fae90869086908690600401615861565b600060405180830381600087803b158015610fc857600080fd5b505af1158015610fdc573d6000803e3d6000fd5b50505050505050565b610fed61226f565b60cd805460ff1916911515919091179055565b61100861226f565b61101181612d5f565b60cd546000908190819060ff16156110bd5784156110715760405162461bcd60e51b815260206004820152601e60248201527f4261736553747261746567793a3a44656274526174696f4e6f745a65726f000060448201526064016109fa565b600061107b612de5565b9050878110156110965761108f8189615895565b92506110ab565b878111156110ab576110a88882615895565b93505b6110b58389615895565b9150506110cf565b6110c78888612eb0565b919450925090505b60006110db82856158a8565b9050600080888310156110fd576110f2838a615895565b91506000905061110e565b6000915061110b8984615895565b90505b6000604051806101600160405280306001600160a01b031681526020014281526020018881526020018781526020018681526020018481526020018381526020018b81526020018361115e611ca4565b6111689190615895565b815260200160d06000815480929190611180906158bb565b909155508152602001899052905081156111e05760cb546040516111db91849161ffff600160a01b830416916001600160a01b0316906111c790600290879060200161590c565b604051602081830303815290604052612fa7565b61120b565b61120b6002826040516020016111f792919061590c565b604051602081830303815290604052613095565b7fb983e09c034e9c52b5e547cb0589967992b97717733f580cc5ad0afcdc4b522b8160400151826060015183608001518460a001518560c001518660e0015187610100015160405161128e9796959493929190968752602087019590955260408601939093526060850191909152608084015260a083015260c082015260e00190565b60405180910390a1505050505050505050505050565b60d05460cb546040513060601b6001600160601b03191660208201526034810192909252600160b01b900460f01b6001600160f01b031916605482015260009060560160405160208183030381529060405280519060200120905090565b3330146113605760405162461bcd60e51b815260206004820152602660248201527f4e6f6e626c6f636b696e674c7a4170703a2063616c6c6572206d7573742062656044820152650204c7a4170760d41b60648201526084016109fa565b610a798686868080601f01602080910402602001604051908101604052809392919081815260200183838082843760009201919091525050604080516020601f89018190048102820181019092528781528993509150879087908190840183828082843760009201919091525061321592505050565b6113de612210565b6113e8600061332b565b565b60666020526000908152604090208054611403906157ee565b80601f016020809104026020016040519081016040528092919081815260200182805461142f906157ee565b801561147c5780601f106114515761010080835404028352916020019161147c565b820191906000526020600020905b81548152906001019060200180831161145f57829003601f168201915b505050505081565b6033546001600160a01b031690565b61149b61226f565b60ca546040516370a0823160e01b81526113e8916001916001600160a01b03909116906370a08231906114d2903090600401615182565b602060405180830381865afa1580156114ef573d6000803e3d6000fd5b505050506040513d601f19601f8201168201806040525081019061151391906157d5565b60ca546001600160a01b031691906122c8565b61ffff8116600090815260666020526040812080546060929190611549906157ee565b80601f0160208091040260200160405190810160405280929190818152602001828054611575906157ee565b80156115c25780601f10611597576101008083540402835291602001916115c2565b820191906000526020600020905b8154815290600101906020018083116115a557829003601f168201915b50505050509050805160000361161a5760405162461bcd60e51b815260206004820152601d60248201527f4c7a4170703a206e6f20747275737465642070617468207265636f726400000060448201526064016109fa565b610f6b60006014835161162d9190615895565b83919061337d565b61163d61348a565b805160d180546001600160a01b0319166001600160a01b03909216919091179055602081015160d2556040015160d3805460ff1916911515919091179055565b611685612210565b81813060405160200161169a939291906159c0565b60408051601f1981840301815291815261ffff85166000908152606660205220906116c59082615a3c565b507f8c0400cfe2d1199b1a725c78960bcc2a344d869b80590d0f2bd005db15a572ce8383836040516116f993929190615861565b60405180910390a1505050565b60ce546001600160a01b031633148061172e575060cd5461010090046001600160a01b031633145b6117795760405162461bcd60e51b815260206004820152601c60248201527b53674272696467653a3a526f757465724f724272696467654f6e6c7960201b60448201526064016109fa565b60006117878682601461337d565b6040516020016117979190615af5565b6040516020818303038152906040526117af90615b11565b60601c9050836001600160a01b03167f92073a89a07a000083eb8b2575fc15e7bb936efe55d00727d6942a796d7211a784836040516117ef929190615b48565b60405180910390a250505050505050565b611808612210565b606980546001600160a01b0319166001600160a01b0383161790556040517f5db758e995a17ec1ad84bdef7e8c3293a0bd6179bcce400dff5d4c3d87db726b90610e9a908390615182565b60ca546040516370a0823160e01b81526000916001600160a01b0316906370a0823190611884903090600401615182565b602060405180830381865afa1580156118a1573d6000803e3d6000fd5b505050506040513d601f19601f820116820180604052508101906118c591906157d5565b905090565b6118d2612210565b60c980546001600160a01b0319166001600160a01b0392909216919091179055565b6118fc612210565b6065546040516332fb62e760e21b81526001600160a01b039091169063cbed8b9c906119349088908890889088908890600401615b5f565b600060405180830381600087803b15801561194e57600080fd5b505af1158015610e23573d6000803e3d6000fd5b61ffff861660009081526097602052604080822090516119859088908890615828565b90815260408051602092819003830190206001600160401b03871660009081529252902054905080611a055760405162461bcd60e51b815260206004820152602360248201527f4e6f6e626c6f636b696e674c7a4170703a206e6f2073746f726564206d65737360448201526261676560e81b60648201526084016109fa565b808383604051611a16929190615828565b604051809103902014611a755760405162461bcd60e51b815260206004820152602160248201527f4e6f6e626c6f636b696e674c7a4170703a20696e76616c6964207061796c6f616044820152601960fa1b60648201526084016109fa565b61ffff87166000908152609760205260408082209051611a989089908990615828565b90815260408051602092819003830181206001600160401b038916600090815290845282902093909355601f88018290048202830182019052868252611b30918991899089908190840183828082843760009201919091525050604080516020601f8a018190048102820181019092528881528a93509150889088908190840183828082843760009201919091525061321592505050565b7fc264d91f3adc5588250e1551f547752ca0cfa8f6b530d243b9f9f4cab10ea8e58787878785604051611b67959493929190615b8d565b60405180910390a150505050505050565b611b80612210565b60008111611bc85760405162461bcd60e51b81526020600482015260156024820152744c7a4170703a20696e76616c6964206d696e47617360581b60448201526064016109fa565b61ffff83811660008181526067602090815260408083209487168084529482529182902085905581519283528201929092529081018290527f9d5c7c0b934da8fefa9c7760c98383778a12dfbfc0c3b3106518f43fb9508ac0906060016116f9565b611c32612210565b600090815260cf60205260409020805460ff19169055565b611c52612210565b61ffff83166000908152606660205260409020611c70828483615bc8565b507ffa41487ad5d6728f0b19276fa1eddc16558578f5109fc39d2dc33c3230470dab8383836040516116f993929190615861565b600073__$c227fba7995d6bae65c253a840cdb49c5a$__6330d15a9d73__$c227fba7995d6bae65c253a840cdb49c5a$__638f4508d06040518163ffffffff1660e01b8152600401602060405180830381865af4158015611d09573d6000803e3d6000fd5b505050506040513d601f19601f82011682018060405250810190611d2d91906157d5565b60ca5460cb5460405160e085901b6001600160e01b031916815260048101939093526001600160a01b039091166024830152600160c01b900460ff166044820152606401602060405180830381865af4158015611d8e573d6000803e3d6000fd5b505050506040513d601f19601f82011682018060405250810190611db291906157d5565b6040516370a0823160e01b815273__$c227fba7995d6bae65c253a840cdb49c5a$__9063af8e395490600080516020616461833981519152906370a0823190611dff903090600401615182565b602060405180830381865afa158015611e1c573d6000803e3d6000fd5b505050506040513d601f19601f82011682018060405250810190611e4091906157d5565b73__$c227fba7995d6bae65c253a840cdb49c5a$__63d56739ac6040518163ffffffff1660e01b8152600401602060405180830381865af4158015611e89573d6000803e3d6000fd5b505050506040513d601f19601f82011682018060405250810190611ead91906157d5565b611eb791906158a8565b60cb5460405160e084901b6001600160e01b03191681526004810192909252600160c01b900460ff166024820152604401602060405180830381865af4158015611f05573d6000803e3d6000fd5b505050506040513d601f19601f82011682018060405250810190611f2991906157d5565b60ca546040516370a0823160e01b81526001600160a01b03909116906370a0823190611f59903090600401615182565b602060405180830381865afa158015611f76573d6000803e3d6000fd5b505050506040513d601f19601f82011682018060405250810190611f9a91906157d5565b611fa491906158a8565b6118c591906158a8565b60d1546001600160a01b03163314611fd957604051630336158960e61b815260040160405180910390fd5b81836001600160a01b0316856001600160a01b03167f9b2db766e04dc7ee1cc19d1415531ad5b3fd566db4f745d9a8ad51e3d3fe1bd78460405161201f91815260200190565b60405180910390a450505050565b61203561226f565b60cc55565b612042612210565b6001600160a01b0381166120a75760405162461bcd60e51b815260206004820152602660248201527f4f776e61626c653a206e6577206f776e657220697320746865207a65726f206160448201526564647265737360d01b60648201526084016109fa565b610bd38161332b565b606554604051633d7b2f6f60e21b815261ffff808716600483015285166024820152306044820152606481018390526060916001600160a01b03169063f5ecbdbc90608401600060405180830381865afa158015612112573d6000803e3d6000fd5b505050506040513d6000823e601f3d908101601f1916820160405261213a9190810190615c81565b90505b949350505050565b6040517b0ca2ba3432b932bab69029b4b3b732b21026b2b9b9b0b3b29d05199960211b6020820152603c8101829052600090605c01604051602081830303815290604052805190602001209050919050565b6000806121fa5a60966366ad5c8a60e01b898989896040516024016121bf9493929190615cee565b60408051601f198184030181529190526020810180516001600160e01b03166001600160e01b031990931692909217909152309291906134f9565b9150915081610a7957610a798686868685613585565b33612219611484565b6001600160a01b0316146113e85760405162461bcd60e51b815260206004820181905260248201527f4f776e61626c653a2063616c6c6572206973206e6f7420746865206f776e657260448201526064016109fa565b60c9546001600160a01b031633146113e85760405162461bcd60e51b815260206004820152601c60248201527b10985cd954dd1c985d1959de4e8e93db9b1e54dd1c985d1959da5cdd60221b60448201526064016109fa565b61231e8363a9059cbb60e01b84846040516024016122e7929190615d2c565b60408051601f198184030181529190526020810180516001600160e01b03166001600160e01b031990931692909217909152613622565b505050565b6001600160a01b03163b151590565b600054610100900460ff166123595760405162461bcd60e51b81526004016109fa90615d45565b612362896136f7565b60c980546001600160a01b03808b166001600160a01b03199283161790925560ca80548a8416908316811790915560cb8054938a1661ffff8a16600160a01b029093166001600160b01b0319909416939093179190911790915560cc8290556040805163313ce56760e01b8152905163313ce567916004808201926020929091908290030181865afa1580156123fc573d6000803e3d6000fd5b505050506040513d601f19601f820116820180604052508101906124209190615d90565b60cb8054600060d05562ffffff60b01b1916600160c01b60ff939093169290920261ffff60b01b191691909117600160b01b61ffff87160217905560cd8054610100600160a81b0319166101006001600160a01b03868116919091029190911790915560ce80546001600160a01b03191684831617905560ca5460405163095ea7b360e01b815291169063095ea7b3906124c290869060001990600401615d2c565b6020604051808303816000875af11580156124e1573d6000803e3d6000fd5b505050506040513d601f19601f820116820180604052508101906125059190615db3565b50505050505050505050565b80158061258b5750604051636eb1769f60e11b81523060048201526001600160a01b03838116602483015284169063dd62ed3e90604401602060405180830381865afa158015612565573d6000803e3d6000fd5b505050506040513d601f19601f8201168201806040525081019061258991906157d5565b155b6125f65760405162461bcd60e51b815260206004820152603660248201527f5361666545524332303a20617070726f76652066726f6d206e6f6e2d7a65726f60448201527520746f206e6f6e2d7a65726f20616c6c6f77616e636560501b60648201526084016109fa565b61231e8363095ea7b360e01b84846040516024016122e7929190615d2c565b6000805160206164418339815191526001600160a01b0316633d18b9126040518163ffffffff1660e01b8152600401600060405180830381600087803b15801561265e57600080fd5b505af1158015612672573d6000803e3d6000fd5b50506040516370a0823160e01b8152612715925060008051602061646183398151915291506370a08231906126ab903090600401615182565b602060405180830381865afa1580156126c8573d6000803e3d6000fd5b505050506040513d601f19601f820116820180604052508101906126ec91906157d5565b60ca5460cb546001600160a01b0390911690600160c01b900460ff1660d161372f6137c86137d9565b60ca546040516370a0823160e01b81526000916001600160a01b0316906370a0823190612746903090600401615182565b602060405180830381865afa158015612763573d6000803e3d6000fd5b505050506040513d601f19601f8201168201806040525081019061278791906157d5565b90508181111561293c57600061279d8383615895565b905060006127ac600283615dd0565b9050600061283f8260cb60189054906101000a900460ff16738f3cf7ad23cd3cadbd9735aff958023239c6a0636001600160a01b031663313ce5676040518163ffffffff1660e01b8152600401602060405180830381865afa158015612816573d6000803e3d6000fd5b505050506040513d601f19601f8201168201806040525081019061283a9190615d90565b613908565b6040805160808101825260ca546001600160601b0319606091821b1660a0830152601960ea1b60b4830152738f3cf7ad23cd3cadbd9735aff958023239c6a06360601b60b7830152825160ab81840301815260cb8301845282523060208301529181018590529192506000919081016128b78461395d565b905260405163b858183f60e01b81529091507368b3465833fb72a70ecdf485e0e4c7bd8665fc459063b858183f906128f3908490600401615df2565b6020604051808303816000875af1158015612912573d6000803e3d6000fd5b505050506040513d601f19601f8201168201806040525081019061293691906157d5565b50505050505b6040516370a0823160e01b8152600090738f3cf7ad23cd3cadbd9735aff958023239c6a063906370a0823190612976903090600401615182565b602060405180830381865afa158015612993573d6000803e3d6000fd5b505050506040513d601f19601f820116820180604052508101906129b791906157d5565b90508015612a3d5760405163a39fc2c560e01b815273195f7b233947d51f4c3b756ad41a5ddb34cebce09063a39fc2c5906129f89084903090600401615b48565b6020604051808303816000875af1158015612a17573d6000803e3d6000fd5b505050506040513d601f19601f82011682018060405250810190612a3b91906157d5565b505b6040516370a0823160e01b81526000906000805160206164a1833981519152906370a0823190612a71903090600401615182565b602060405180830381865afa158015612a8e573d6000803e3d6000fd5b505050506040513d601f19601f82011682018060405250810190612ab291906157d5565b60ca546040516370a0823160e01b81529192506001600160a01b0316906370a0823190612ae3903090600401615182565b602060405180830381865afa158015612b00573d6000803e3d6000fd5b505050506040513d601f19601f82011682018060405250810190612b2491906157d5565b9250600081118015612b365750600083115b15612cb05760ca546040516326283ecf60e21b81526001600160a01b0390911660048201526000805160206164a183398151915260248201526001604482015260648101849052608481018290526000908190600080516020616421833981519152906398a0fb3c9060a401606060405180830381865afa158015612bbf573d6000803e3d6000fd5b505050506040513d601f19601f82011682018060405250810190612be39190615e40565b5060ca54604051635a47ddc360e01b81526001600160a01b0390911660048201526000805160206164a18339815191526024820152600160448201819052606482018490526084820183905260a4820181905260c48201523060e482015242610104820152919350915060008051602061642183398151915290635a47ddc390610124016060604051808303816000875af1158015612c86573d6000803e3d6000fd5b505050506040513d601f19601f82011682018060405250810190612caa9190615e40565b50505050505b6040516370a0823160e01b8152600090600080516020616481833981519152906370a0823190612ce4903090600401615182565b602060405180830381865afa158015612d01573d6000803e3d6000fd5b505050506040513d601f19601f82011682018060405250810190612d2591906157d5565b90508015610ae75760405163b6b55f2560e01b8152600481018290526000805160206164418339815191529063b6b55f2590602401611934565b6000612d696112a4565b90506000612d7682612145565b60c9549091506001600160a01b0316612d8f828561397a565b6001600160a01b03161461231e5760405162461bcd60e51b815260206004820152601e60248201527f4261736553747261746567793a3a496e76616c69645369676e6174757265000060448201526064016109fa565b6000612e8073__$c227fba7995d6bae65c253a840cdb49c5a$__638f4508d06040518163ffffffff1660e01b8152600401602060405180830381865af4158015612e33573d6000803e3d6000fd5b505050506040513d601f19601f82011682018060405250810190612e5791906157d5565b60ca5460cb546001600160a01b0390911690600160c01b900460ff1660d161372f6137c861399e565b60ca546040516370a0823160e01b81526001600160a01b03909116906370a0823190611884903090600401615182565b600080600080612ebe611ca4565b9050858110612edc57612ed18682615895565b935060009250612eed565b60009350612eea8187615895565b92505b612eff612efa85876158a8565b613ccd565b505060ca546040516370a0823160e01b81526000916001600160a01b0316906370a0823190612f32903090600401615182565b602060405180830381865afa158015612f4f573d6000803e3d6000fd5b505050506040513d601f19601f82011682018060405250810190612f7391906157d5565b9050848111612f885780945060009250612f9e565b612f9b612f958683615895565b87613e26565b92505b50509250925092565b60cd54604051630dc6346160e01b815260009161010090046001600160a01b031690630dc6346190612fe190879087908790600401615e6e565b602060405180830381865afa158015612ffe573d6000803e3d6000fd5b505050506040513d601f19601f8201168201806040525081019061302291906157d5565b60cd5460ca54604051633920455b60e11b81529293506001600160a01b036101009092048216926372408ab6928592613068929116908a908a908a908a90600401615e9c565b6000604051808303818588803b15801561308157600080fd5b505af1158015612505573d6000803e3d6000fd5b60cb5460408051606083811b6001600160601b03199081166020840152309182901b16603483015282516028818403018152604890920190925260655490926000926001600160a01b03909216916340a7bb109161ffff600160a01b90910416908685613100613e3c565b6040518663ffffffff1660e01b8152600401613120959493929190615ed9565b6040805180830381865afa15801561313c573d6000803e3d6000fd5b505050506040513d601f19601f820116820180604052508101906131609190615f2d565b5090508047101561318c5760405162fae2d560e21b8152600481018290524760248201526044016109fa565b60655460cb546001600160a01b039091169063c5803100908390600160a01b900461ffff16858730806131bd613e3c565b6040518863ffffffff1660e01b81526004016131de96959493929190615f51565b6000604051808303818588803b1580156131f757600080fd5b505af115801561320b573d6000803e3d6000fd5b5050505050505050565b60cb5461ffff858116600160a01b909204161461327f5760405162461bcd60e51b815260206004820152602260248201527f4261736553747261746567793a3a5661756c74436861696e49644d69736d61746044820152610c6d60f31b60648201526084016109fa565b600061328d8482601461337d565b60405160200161329d9190615af5565b6040516020818303038152906040526132b590615b11565b60cb5460609190911c91506001600160a01b031681146133225760405162461bcd60e51b815260206004820152602260248201527f4261736553747261746567793a3a5661756c74416464726573734d69736d61746044820152610c6d60f31b60648201526084016109fa565b610ae782613e6c565b603380546001600160a01b038381166001600160a01b0319831681179093556040519116919082907f8be0079c531659141344cd1fd0a4f28419497f9722a3daafe3b4186f6b6457e090600090a35050565b60608161338b81601f6158a8565b10156133ca5760405162461bcd60e51b815260206004820152600e60248201526d736c6963655f6f766572666c6f7760901b60448201526064016109fa565b6133d482846158a8565b845110156134185760405162461bcd60e51b8152602060048201526011602482015270736c6963655f6f75744f66426f756e647360781b60448201526064016109fa565b6060821580156134375760405191506000825260208201604052613481565b6040519150601f8416801560200281840101858101878315602002848b0101015b81831015613470578051835260209283019201613458565b5050858452601f01601f1916604052505b50949350505050565b60c9546001600160a01b03163314806134a257503330145b6113e85760405162461bcd60e51b815260206004820152602260248201527f4261736553747261746567793a3a4f6e6c79537472617465676973744f725365604482015261363360f11b60648201526084016109fa565b6000606060008060008661ffff166001600160401b0381111561351e5761351e6153b8565b6040519080825280601f01601f191660200182016040528015613548576020820181803683370190505b50905060008087516020890160008d8df191503d92508683111561356a578692505b828152826000602083013e9093509150505b94509492505050565b8180519060200120609760008761ffff1661ffff168152602001908152602001600020856040516135b69190615af5565b9081526040805191829003602090810183206001600160401b0388166000908152915220919091557fe183f33de2837795525b4792ca4cd60535bd77c53b7e7030060bfcf5734d6b0c906136139087908790879087908790615fb8565b60405180910390a15050505050565b6000613677826040518060400160405280602081526020017f5361666545524332303a206c6f772d6c6576656c2063616c6c206661696c6564815250856001600160a01b0316613f999092919063ffffffff16565b90508051600014806136985750808060200190518101906136989190615db3565b61231e5760405162461bcd60e51b815260206004820152602a60248201527f5361666545524332303a204552433230206f7065726174696f6e20646964206e6044820152691bdd081cdd58d8d9595960b21b60648201526084016109fa565b600054610100900460ff1661371e5760405162461bcd60e51b81526004016109fa90615d45565b613726613fa8565b610bd381613fd8565b805160000361377e5781836001600160a01b0316856001600160a01b03167fea368a40e9570069bb8e6511d668293ad2e1f03b0d982431fd223de9f3b70ca660405160405180910390a46137c2565b81836001600160a01b0316856001600160a01b03167f583bc203f4bd38722d9ba88ecb248da508149e0e405a42dbc1b1f7d55a8be0c18460405161201f91906151e6565b50505050565b60006137d38261395d565b92915050565b8515610a795782546001600160a01b03166310cabd1d6000805160206164618339815191528789612710613810612648606461600a565b61381a9190615dd0565b6040518563ffffffff1660e01b81526004016138399493929190616021565b600060405180830381600087803b15801561385357600080fd5b505af1925050508015613864575060015b6138c8573d808015613892576040519150601f19603f3d011682016040523d82523d6000602084013e613897565b606091505b506138a487868885614021565b6138c26000805160206164618339815191528789848763ffffffff16565b50610a79565b610a79600080516020616461833981519152868860006040516020016138f091815260200190565b6040516020818303038152906040528663ffffffff16565b60008260ff168260ff16111561393e57613922838361604c565b61392d90600a616149565b613937908561600a565b9050610f6b565b613948828461604c565b61395390600a616149565b6139379085615dd0565b600061271060cc5483613970919061600a565b6137d39190615dd0565b600080600061398985856141b9565b91509150613996816141fe565b509392505050565b6000805160206164418339815191526001600160a01b0316633d18b9126040518163ffffffff1660e01b8152600401600060405180830381600087803b1580156139e757600080fd5b505af11580156139fb573d6000803e3d6000fd5b50506040516370a0823160e01b8152613a7f925060008051602061646183398151915291506370a0823190613a34903090600401615182565b602060405180830381865afa158015613a51573d6000803e3d6000fd5b505050506040513d601f19601f82011682018060405250810190613a7591906157d5565b86868686866137d9565b8515610a7957604051632e1a7d4d60e01b81526004810187905260008051602061644183398151915290632e1a7d4d90602401600060405180830381600087803b158015613acc57600080fd5b505af1158015613ae0573d6000803e3d6000fd5b50506040516310e1b98f60e21b81526000925082915060008051602061642183398151915290634386e63c90613b2f908a906000805160206164a1833981519152906001908e90600401616158565b6040805180830381865afa158015613b4b573d6000803e3d6000fd5b505050506040513d601f19601f82011682018060405250810190613b6f9190615f2d565b9092509050600080516020616421833981519152630dede6c4886000805160206164a183398151915260018c613ba88863ffffffff8b16565b613bb5888b63ffffffff16565b6040516001600160e01b031960e089901b1681526001600160a01b03968716600482015295909416602486015291151560448501526064840152608483015260a48201523060c48201524260e48201526101040160408051808303816000875af1158015613c27573d6000803e3d6000fd5b505050506040513d601f19601f82011682018060405250810190613c4b9190615f2d565b50506040516370a0823160e01b815261320b906000805160206164a1833981519152906370a0823190613c82903090600401615182565b602060405180830381865afa158015613c9f573d6000803e3d6000fd5b505050506040513d601f19601f82011682018060405250810190613cc391906157d5565b8888888888614343565b60ca546040516370a0823160e01b8152600091829182916001600160a01b0316906370a0823190613d02903090600401615182565b602060405180830381865afa158015613d1f573d6000803e3d6000fd5b505050506040513d601f19601f82011682018060405250810190613d4391906157d5565b9050838110613d5757509192600092509050565b613d8d613d648286615895565b60ca5460cb546001600160a01b0390911690600160c01b900460ff1660d161372f6137c8614454565b60ca546040516370a0823160e01b81526001600160a01b03909116906370a0823190613dbd903090600401615182565b602060405180830381865afa158015613dda573d6000803e3d6000fd5b505050506040513d601f19601f82011682018060405250810190613dfe91906157d5565b905080841115613e1c57915081613e158185615895565b9150613e20565b8392505b50915091565b6000818310613e355781610f6b565b5090919050565b60408051600160f01b6020820152620f424060228083019190915282518083039091018152604290910190915290565b600081806020019051810190613e829190616183565b90506003816004811115613e9857613e986158d4565b03613eeb57600082806020019051810190613eb391906161a4565b915050613ec38160000151612615565b80516040519081526000805160206164c18339815191529060200160405180910390a1505050565b6000816004811115613eff57613eff6158d4565b03613f2657600082806020019051810190613f1a91906161e7565b91505061231e816145a1565b6004816004811115613f3a57613f3a6158d4565b03613f9557600082806020019051810190613f559190616252565b915050613f6581600001516146cb565b80516040517f7c9a2d2ec51230d7dbed27f113a325b7e20aef7b049e68b2339257b5edff5bea916116f991615182565b5050565b606061213d848460008561470a565b600054610100900460ff16613fcf5760405162461bcd60e51b81526004016109fa90615d45565b6113e83361332b565b600054610100900460ff16613fff5760405162461bcd60e51b81526004016109fa90615d45565b606580546001600160a01b0319166001600160a01b0392909216919091179055565b60408051600280825260608201909252600091816020015b60408051606081018252600080825260208083018290529282015282526000199092019101816140395750506040805160608101825260008051602061646183398151915281526000805160206164a1833981519152602082015260009181018290528251929350918391906140b1576140b16162a0565b602002602001018190525060405180606001604052806000805160206164a18339815191526001600160a01b03168152602001846001600160a01b03168152602001600115158152508160018151811061410d5761410d6162a0565b6020026020010181905250600061412486866147e5565b905060008051602061642183398151915263f41766d8876141488463ffffffff8816565b8530426040518663ffffffff1660e01b815260040161416b9594939291906162b6565b6000604051808303816000875af19250505080156141ab57506040513d6000823e601f3d908101601f191682016040526141a89190810190616345565b60015b15610a795750505050505050565b60008082516041036141ef5760208301516040840151606085015160001a6141e38782858561487e565b945094505050506141f7565b506000905060025b9250929050565b6000816004811115614212576142126158d4565b0361421a5750565b600181600481111561422e5761422e6158d4565b036142765760405162461bcd60e51b815260206004820152601860248201527745434453413a20696e76616c6964207369676e617475726560401b60448201526064016109fa565b600281600481111561428a5761428a6158d4565b036142d75760405162461bcd60e51b815260206004820152601f60248201527f45434453413a20696e76616c6964207369676e6174757265206c656e6774680060448201526064016109fa565b60038160048111156142eb576142eb6158d4565b03610bd35760405162461bcd60e51b815260206004820152602260248201527f45434453413a20696e76616c6964207369676e6174757265202773272076616c604482015261756560f01b60648201526084016109fa565b8515610a795782546001600160a01b03166310cabd1d6000805160206164a1833981519152878961271061437a612648606461600a565b6143849190615dd0565b6040518563ffffffff1660e01b81526004016143a39493929190616021565b600060405180830381600087803b1580156143bd57600080fd5b505af19250505080156143ce575060015b61442c573d8080156143fc576040519150601f19603f3d011682016040523d82523d6000602084013e614401565b606091505b5061440e87868885614935565b6138c26000805160206164a18339815191528789848763ffffffff16565b610a796000805160206164a1833981519152868860006040516020016138f091815260200190565b8515610a7957600061446d614467614a06565b866147e5565b905086811061455c576000805160206164418339815191526001600160a01b0316633d18b9126040518163ffffffff1660e01b8152600401600060405180830381600087803b1580156144bf57600080fd5b505af11580156144d3573d6000803e3d6000fd5b50506040516370a0823160e01b8152614557925060008051602061646183398151915291506370a082319061450c903090600401615182565b602060405180830381865afa158015614529573d6000803e3d6000fd5b505050506040513d601f19601f8201168201806040525081019061454d91906157d5565b87878787876137d9565b610fdc565b600061457261456b838a615895565b8888614a38565b9050600061457e614bfc565b9050600081831161458f5782614591565b815b9050612505818a8a8a8a8a61399e565b602080820151600090815260cf909152604090205460ff16156146065760405162461bcd60e51b815260206004820152601e60248201527f4261736553747261746567793a3a416c726561647957697468647261776e000060448201526064016109fa565b6000806146168360000151613ccd565b91509150600060016040518060800160405280306001600160a01b03168152602001858152602001848152602001866020015181525060405160200161465d9291906163de565b60408051601f198184030181529190529050821561469e5760cb5461469990849061ffff600160a01b820416906001600160a01b031684612fa7565b6146a7565b6146a781613095565b505050602090810151600090815260cf90915260409020805460ff19166001179055565b6146d481614c30565b60ca546040516370a0823160e01b8152610bd39183916001600160a01b03909116906370a08231906114d2903090600401615182565b60608247101561476b5760405162461bcd60e51b815260206004820152602660248201527f416464726573733a20696e73756666696369656e742062616c616e636520666f6044820152651c8818d85b1b60d21b60648201526084016109fa565b600080866001600160a01b031685876040516147879190615af5565b60006040518083038185875af1925050503d80600081146147c4576040519150601f19603f3d011682016040523d82523d6000602084013e6147c9565b606091505b50915091506147da87838387614eb4565b979650505050505050565b6040516328bd9fc160e11b8152600090819073f68c20d6c50706f6c6bd8ee184382518c93b368c9063517b3f829061483190600080516020616461833981519152908890600401615d2c565b602060405180830381865afa15801561484e573d6000803e3d6000fd5b505050506040513d601f19601f8201168201806040525081019061487291906157d5565b905061213d8184614f2b565b6000806fa2a8918ca85bafe22016d0b997e4df60600160ff1b038311156148ab575060009050600361357c565b6040805160008082526020820180845289905260ff881692820192909252606081018690526080810185905260019060a0016020604051602081039080840390855afa1580156148ff573d6000803e3d6000fd5b5050604051601f1901519150506001600160a01b0381166149285760006001925092505061357c565b9660009650945050505050565b60006149418585614f2b565b90506000805160206164218339815191526313dcfc59866149658463ffffffff8716565b6040516001600160e01b031960e085901b168152600481019290925260248201526000805160206164a183398151915260448201526001600160a01b0386166064820152600160848201523060a48201524260c482015260e4016000604051808303816000875af11580156149de573d6000803e3d6000fd5b505050506040513d6000823e601f3d908101601f19168201604052610a799190810190616345565b6040516246613160e11b815260009060008051602061644183398151915290628cc26290611884903090600401615182565b600080614ac06000805160206164818339815191526001600160a01b031663313ce5676040518163ffffffff1660e01b8152600401602060405180830381865afa158015614a8a573d6000803e3d6000fd5b505050506040513d601f19601f82011682018060405250810190614aae9190615d90565b614ab990600a616149565b8585614fa7565b90506000614b1586856000805160206164818339815191526001600160a01b031663313ce5676040518163ffffffff1660e01b8152600401602060405180830381865afa158015612816573d6000803e3d6000fd5b90506000614b6a83866000805160206164818339815191526001600160a01b031663313ce5676040518163ffffffff1660e01b8152600401602060405180830381865afa158015612816573d6000803e3d6000fd5b9050806000805160206164818339815191526001600160a01b031663313ce5676040518163ffffffff1660e01b8152600401602060405180830381865afa158015614bb9573d6000803e3d6000fd5b505050506040513d601f19601f82011682018060405250810190614bdd9190615d90565b614be890600a616149565b614bf2908461600a565b6147da9190615dd0565b6040516370a0823160e01b8152600090600080516020616441833981519152906370a0823190611884903090600401615182565b6000805160206164418339815191526001600160a01b0316632e1a7d4d73__$c227fba7995d6bae65c253a840cdb49c5a$__638f4508d06040518163ffffffff1660e01b8152600401602060405180830381865af4158015614c96573d6000803e3d6000fd5b505050506040513d601f19601f82011682018060405250810190614cba91906157d5565b6040518263ffffffff1660e01b8152600401614cd891815260200190565b600060405180830381600087803b158015614cf257600080fd5b505af1158015614d06573d6000803e3d6000fd5b50506040516370a0823160e01b8152614d989250839150600080516020616481833981519152906370a0823190614d41903090600401615182565b602060405180830381865afa158015614d5e573d6000803e3d6000fd5b505050506040513d601f19601f82011682018060405250810190614d8291906157d5565b60008051602061648183398151915291906122c8565b6040516370a0823160e01b8152614e269082906000805160206164a1833981519152906370a0823190614dcf903090600401615182565b602060405180830381865afa158015614dec573d6000803e3d6000fd5b505050506040513d601f19601f82011682018060405250810190614e1091906157d5565b6000805160206164a183398151915291906122c8565b6040516370a0823160e01b8152610bd3908290600080516020616461833981519152906370a0823190614e5d903090600401615182565b602060405180830381865afa158015614e7a573d6000803e3d6000fd5b505050506040513d601f19601f82011682018060405250810190614e9e91906157d5565b60008051602061646183398151915291906122c8565b60608315614f21578251600003614f1a57614ece85612323565b614f1a5760405162461bcd60e51b815260206004820152601d60248201527f416464726573733a2063616c6c20746f206e6f6e2d636f6e747261637400000060448201526064016109fa565b508161213d565b61213d8383615056565b6000610f6b836000805160206164a18339815191526001600160a01b031663313ce5676040518163ffffffff1660e01b8152600401602060405180830381865afa158015614f7d573d6000803e3d6000fd5b505050506040513d601f19601f82011682018060405250810190614fa19190615d90565b84613908565b6040516310e1b98f60e21b81526000908190819060008051602061642183398151915290634386e63c90614ff49088906000805160206164a1833981519152906001908c90600401616158565b6040805180830381865afa158015615010573d6000803e3d6000fd5b505050506040513d601f19601f820116820180604052508101906150349190615f2d565b915091506150428185614f2b565b61504c90836158a8565b9695505050505050565b8151156150665781518083602001fd5b8060405162461bcd60e51b81526004016109fa91906151e6565b803561ffff8116811461509257600080fd5b919050565b60008083601f8401126150a957600080fd5b5081356001600160401b038111156150c057600080fd5b6020830191508360208285010111156141f757600080fd5b80356001600160401b038116811461509257600080fd5b6000806000806000806080878903121561510857600080fd5b61511187615080565b955060208701356001600160401b038082111561512d57600080fd5b6151398a838b01615097565b909750955085915061514d60408a016150d8565b9450606089013591508082111561516357600080fd5b5061517089828a01615097565b979a9699509497509295939492505050565b6001600160a01b0391909116815260200190565b60005b838110156151b1578181015183820152602001615199565b50506000910152565b600081518084526151d2816020860160208601615196565b601f01601f19169290920160200192915050565b602081526000610f6b60208301846151ba565b60006020828403121561520b57600080fd5b610f6b82615080565b6000806040838503121561522757600080fd5b61523083615080565b946020939093013593505050565b6001600160a01b0381168114610bd357600080fd5b60006020828403121561526557600080fd5b8135610f6b8161523e565b600080600080600080600080610100898b03121561528d57600080fd5b88356152988161523e565b975060208901356152a88161523e565b965060408901356152b88161523e565b955060608901356152c88161523e565b94506152d660808a01615080565b93506152e460a08a01615080565b925060c08901356152f48161523e565b915060e08901356153048161523e565b809150509295985092959890939650565b6001600160a01b03169052565b60006020828403121561533457600080fd5b5035919050565b60008060006040848603121561535057600080fd5b61535984615080565b925060208401356001600160401b0381111561537457600080fd5b61538086828701615097565b9497909650939450505050565b8015158114610bd357600080fd5b6000602082840312156153ad57600080fd5b8135610f6b8161538d565b634e487b7160e01b600052604160045260246000fd5b604051602081016001600160401b03811182821017156153f0576153f06153b8565b60405290565b604051601f8201601f191681016001600160401b038111828210171561541e5761541e6153b8565b604052919050565b60006001600160401b0382111561543f5761543f6153b8565b50601f01601f191660200190565b600082601f83011261545e57600080fd5b813561547161546c82615426565b6153f6565b81815284602083860101111561548657600080fd5b816020850160208301376000918101602001919091529392505050565b600080600080600060a086880312156154bb57600080fd5b8535945060208601359350604086013592506060860135915060808601356001600160401b038111156154ed57600080fd5b6154f98882890161544d565b9150509295509295909350565b60008060006060848603121561551b57600080fd5b61552484615080565b925060208401356001600160401b0381111561553f57600080fd5b61554b8682870161544d565b92505061555a604085016150d8565b90509250925092565b6000806040838503121561557657600080fd5b61557f83615080565b915061558d60208401615080565b90509250929050565b6000606082840312156155a857600080fd5b604051606081016001600160401b03811182821017156155ca576155ca6153b8565b60405282356155d88161523e565b81526020838101359082015260408301356155f28161538d565b60408201529392505050565b60008060008060008060c0878903121561561757600080fd5b61562087615080565b955060208701356001600160401b038082111561563c57600080fd5b6156488a838b0161544d565b965060408901359550606089013591506156618261523e565b9093506080880135925060a0880135908082111561567e57600080fd5b5061568b89828a0161544d565b9150509295509295509295565b6000806000806000608086880312156156b057600080fd5b6156b986615080565b94506156c760208701615080565b93506040860135925060608601356001600160401b038111156156e957600080fd5b6156f588828901615097565b969995985093965092949392505050565b60008060006060848603121561571b57600080fd5b61572484615080565b925061573260208501615080565b9150604084013590509250925092565b6000806000806080858703121561575857600080fd5b84356157638161523e565b935060208501356157738161523e565b93969395505050506040820135916060013590565b6000806000806080858703121561579e57600080fd5b6157a785615080565b93506157b560208601615080565b925060408501356157c58161523e565b9396929550929360600135925050565b6000602082840312156157e757600080fd5b5051919050565b600181811c9082168061580257607f821691505b60208210810361582257634e487b7160e01b600052602260045260246000fd5b50919050565b8183823760009101908152919050565b81835281816020850137506000828201602090810191909152601f909101601f19169091010190565b61ffff8416815260406020820152600061213a604083018486615838565b634e487b7160e01b600052601160045260246000fd5b818103818111156137d3576137d361587f565b808201808211156137d3576137d361587f565b6000600182016158cd576158cd61587f565b5060010190565b634e487b7160e01b600052602160045260246000fd5b6005811061590857634e487b7160e01b600052602160045260246000fd5b9052565b61591681846158ea565b6040602082015261592b604082018351615315565b6020820151606082015260408201516080820152606082015160a0820152608082015160c082015260a082015160e0820152600060c0830151610100818185015260e085015191506101208281860152818601519250610140915082828601528086015192505061016082818601528186015192508061018086015250506159b76101a08401826151ba565b95945050505050565b8284823760609190911b6001600160601b0319169101908152601401919050565b601f82111561231e57600081815260208120601f850160051c81016020861015615a085750805b601f850160051c820191505b81811015610a7957828155600101615a14565b600019600383901b1c191660019190911b1790565b81516001600160401b03811115615a5557615a556153b8565b615a6981615a6384546157ee565b846159e1565b602080601f831160018114615a985760008415615a865750858301515b615a908582615a27565b865550610a79565b600085815260208120601f198616915b82811015615ac757888601518255948401946001909101908401615aa8565b5085821015615ae55787850151600019600388901b60f8161c191681555b5050505050600190811b01905550565b60008251615b07818460208701615196565b9190910192915050565b805160208201516001600160601b03198082169291906014831015615b405780818460140360031b1b83161693505b505050919050565b9182526001600160a01b0316602082015260400190565b600061ffff8088168352808716602084015250846040830152608060608301526147da608083018486615838565b61ffff86168152608060208201526000615bab608083018688615838565b6001600160401b0394909416604083015250606001529392505050565b6001600160401b03831115615bdf57615bdf6153b8565b615bf383615bed83546157ee565b836159e1565b6000601f841160018114615c215760008515615c0f5750838201355b615c198682615a27565b845550610ae7565b600083815260209020601f19861690835b82811015615c525786850135825560209485019460019092019101615c32565b5086821015615c6f5760001960f88860031b161c19848701351681555b505060018560011b0183555050505050565b600060208284031215615c9357600080fd5b81516001600160401b03811115615ca957600080fd5b8201601f81018413615cba57600080fd5b8051615cc861546c82615426565b818152856020838501011115615cdd57600080fd5b6159b7826020830160208601615196565b61ffff85168152608060208201526000615d0b60808301866151ba565b6001600160401b038516604084015282810360608401526147da81856151ba565b6001600160a01b03929092168252602082015260400190565b6020808252602b908201527f496e697469616c697a61626c653a20636f6e7472616374206973206e6f74206960408201526a6e697469616c697a696e6760a81b606082015260800190565b600060208284031215615da257600080fd5b815160ff81168114610f6b57600080fd5b600060208284031215615dc557600080fd5b8151610f6b8161538d565b600082615ded57634e487b7160e01b600052601260045260246000fd5b500490565b602081526000825160806020840152615e0e60a08401826151ba565b905060018060a01b03602085015116604084015260408401516060840152606084015160808401528091505092915050565b600080600060608486031215615e5557600080fd5b8351925060208401519150604084015190509250925092565b61ffff841681526001600160a01b038316602082015260606040820181905260009061213a908301846151ba565b6001600160a01b0386811682526020820186905261ffff851660408301528316606082015260a0608082018190526000906147da908301846151ba565b61ffff861681526001600160a01b038516602082015260a060408201819052600090615f07908301866151ba565b84151560608401528281036080840152615f2181856151ba565b98975050505050505050565b60008060408385031215615f4057600080fd5b505080516020909101519092909150565b61ffff8716815260c060208201526000615f6e60c08301886151ba565b8281036040840152615f8081886151ba565b6001600160a01b0387811660608601528616608085015283810360a08501529050615fab81856151ba565b9998505050505050505050565b61ffff8616815260a060208201526000615fd560a08301876151ba565b6001600160401b03861660408401528281036060840152615ff681866151ba565b90508281036080840152615f2181856151ba565b80820281158282048414176137d3576137d361587f565b6001600160a01b039485168152929093166020830152604082015260ff909116606082015260800190565b60ff82811682821603908111156137d3576137d361587f565b600181815b808511156160a05781600019048211156160865761608661587f565b8085161561609357918102915b93841c939080029061606a565b509250929050565b6000826160b7575060016137d3565b816160c4575060006137d3565b81600181146160da57600281146160e457616100565b60019150506137d3565b60ff8411156160f5576160f561587f565b50506001821b6137d3565b5060208310610133831016604e8410600b8410161715616123575081810a6137d3565b61612d8383616065565b80600019048211156161415761614161587f565b029392505050565b6000610f6b60ff8416836160a8565b6001600160a01b03948516815292909316602083015215156040820152606081019190915260800190565b60006020828403121561619557600080fd5b815160058110610f6b57600080fd5b60008082840360408112156161b857600080fd5b835192506020601f19820112156161ce57600080fd5b506161d76153ce565b6020939093015183525092909150565b60008082840360608112156161fb57600080fd5b835192506040601f198201121561621157600080fd5b50604080519081016001600160401b0381118282101715616234576162346153b8565b60409081526020858101518352940151938101939093525092909150565b600080828403604081121561626657600080fd5b835192506020601f198201121561627c57600080fd5b506162856153ce565b60208401516162938161523e565b8152919491935090915050565b634e487b7160e01b600052603260045260246000fd5b600060a0820187835260208781850152604060a08186015282885180855260c087019150838a01945060005b8181101561631f57855180516001600160a01b039081168552868201511686850152840151151584840152948401946060909201916001016162e2565b5050809450505050506163356060830185615315565b8260808301529695505050505050565b6000602080838503121561635857600080fd5b82516001600160401b038082111561636f57600080fd5b818501915085601f83011261638357600080fd5b815181811115616395576163956153b8565b8060051b91506163a68483016153f6565b81815291830184019184810190888411156163c057600080fd5b938501935b83851015615f21578451825293850193908501906163c5565b60a081016163ec82856158ea565b60018060a01b038351166020830152602083015160408301526040830151606083015260608301516080830152939250505056fe000000000000000000000000cc25c0fd84737f44a7d38649b69491bbf0c7f08300000000000000000000000097bd59a8202f8263c2ec39cf6cf6b438d0b458760000000000000000000000007238390d5f6f64e67c3211c343a410e2a3dec142000000000000000000000000d17cb0f162f133e339c0bbfc18c36c357e681d6b00000000000000000000000040379a439d4f6795b6fc9aa5687db461677a2dbab0c58532a125fc3c0adccaef396bf65344a4d5781cec2e4c593e6b611d75f150a2646970667358221220b5b66a5acf02dc3576cdd117389394a18c0226601c4b0c90d7b99cc77dfc739464736f6c63430008130033",
  "linkReferences": {
    "contracts/strategies/utils/PearlStrategyLib.sol": {
      "PearlStrategyLib": [
        {
          "length": 20,
          "start": 7369
        },
        {
          "length": 20,
          "start": 7395
        },
        {
          "length": 20,
          "start": 7650
        },
        {
          "length": 20,
          "start": 7779
        },
        {
          "length": 20,
          "start": 11789
        },
        {
          "length": 20,
          "start": 19568
        }
      ]
    }
  },
  "deployedLinkReferences": {
    "contracts/strategies/utils/PearlStrategyLib.sol": {
      "PearlStrategyLib": [
        {
          "length": 20,
          "start": 7336
        },
        {
          "length": 20,
          "start": 7362
        },
        {
          "length": 20,
          "start": 7617
        },
        {
          "length": 20,
          "start": 7746
        },
        {
          "length": 20,
          "start": 11756
        },
        {
          "length": 20,
          "start": 19535
        }
      ]
    }
  }
}