{
  "_format": "hh-sol-artifact-1",
  "contractName": "PearlStrategy",
  "sourceName": "contracts/strategies/PearlStrategy.sol",
  "abi": [
    {
      "inputs": [
        {
          "internalType": "uint256",
          "name": "messageType",
          "type": "uint256"
        }
      ],
      "name": "IncorrectMessageType",
      "type": "error"
    },
    {
      "inputs": [
        {
          "internalType": "uint256",
          "name": "amount",
          "type": "uint256"
        },
        {
          "internalType": "uint256",
          "name": "balance",
          "type": "uint256"
        }
      ],
      "name": "InsufficientFunds",
      "type": "error"
    },
    {
      "anonymous": false,
      "inputs": [
        {
          "indexed": false,
          "internalType": "uint256",
          "name": "debtOutstanding",
          "type": "uint256"
        }
      ],
      "name": "AdjustedPosition",
      "type": "event"
    },
    {
      "anonymous": false,
      "inputs": [
        {
          "indexed": false,
          "internalType": "uint8",
          "name": "version",
          "type": "uint8"
        }
      ],
      "name": "Initialized",
      "type": "event"
    },
    {
      "anonymous": false,
      "inputs": [
        {
          "indexed": false,
          "internalType": "uint16",
          "name": "_srcChainId",
          "type": "uint16"
        },
        {
          "indexed": false,
          "internalType": "bytes",
          "name": "_srcAddress",
          "type": "bytes"
        },
        {
          "indexed": false,
          "internalType": "uint64",
          "name": "_nonce",
          "type": "uint64"
        },
        {
          "indexed": false,
          "internalType": "bytes",
          "name": "_payload",
          "type": "bytes"
        },
        {
          "indexed": false,
          "internalType": "bytes",
          "name": "_reason",
          "type": "bytes"
        }
      ],
      "name": "MessageFailed",
      "type": "event"
    },
    {
      "anonymous": false,
      "inputs": [
        {
          "indexed": true,
          "internalType": "address",
          "name": "previousOwner",
          "type": "address"
        },
        {
          "indexed": true,
          "internalType": "address",
          "name": "newOwner",
          "type": "address"
        }
      ],
      "name": "OwnershipTransferred",
      "type": "event"
    },
    {
      "anonymous": false,
      "inputs": [
        {
          "indexed": false,
          "internalType": "uint16",
          "name": "_srcChainId",
          "type": "uint16"
        },
        {
          "indexed": false,
          "internalType": "bytes",
          "name": "_srcAddress",
          "type": "bytes"
        },
        {
          "indexed": false,
          "internalType": "uint64",
          "name": "_nonce",
          "type": "uint64"
        },
        {
          "indexed": false,
          "internalType": "bytes32",
          "name": "_payloadHash",
          "type": "bytes32"
        }
      ],
      "name": "RetryMessageSuccess",
      "type": "event"
    },
    {
      "anonymous": false,
      "inputs": [
        {
          "indexed": false,
          "internalType": "uint16",
          "name": "_dstChainId",
          "type": "uint16"
        },
        {
          "indexed": false,
          "internalType": "uint16",
          "name": "_type",
          "type": "uint16"
        },
        {
          "indexed": false,
          "internalType": "uint256",
          "name": "_minDstGas",
          "type": "uint256"
        }
      ],
      "name": "SetMinDstGas",
      "type": "event"
    },
    {
      "anonymous": false,
      "inputs": [
        {
          "indexed": false,
          "internalType": "address",
          "name": "precrime",
          "type": "address"
        }
      ],
      "name": "SetPrecrime",
      "type": "event"
    },
    {
      "anonymous": false,
      "inputs": [
        {
          "indexed": false,
          "internalType": "uint16",
          "name": "_remoteChainId",
          "type": "uint16"
        },
        {
          "indexed": false,
          "internalType": "bytes",
          "name": "_path",
          "type": "bytes"
        }
      ],
      "name": "SetTrustedRemote",
      "type": "event"
    },
    {
      "anonymous": false,
      "inputs": [
        {
          "indexed": false,
          "internalType": "uint16",
          "name": "_remoteChainId",
          "type": "uint16"
        },
        {
          "indexed": false,
          "internalType": "bytes",
          "name": "_remoteAddress",
          "type": "bytes"
        }
      ],
      "name": "SetTrustedRemoteAddress",
      "type": "event"
    },
    {
      "anonymous": false,
      "inputs": [
        {
          "indexed": true,
          "internalType": "address",
          "name": "token",
          "type": "address"
        },
        {
          "indexed": false,
          "internalType": "uint256",
          "name": "amount",
          "type": "uint256"
        },
        {
          "indexed": false,
          "internalType": "address",
          "name": "sender",
          "type": "address"
        }
      ],
      "name": "SgReceived",
      "type": "event"
    },
    {
      "anonymous": false,
      "inputs": [
        {
          "indexed": false,
          "internalType": "address",
          "name": "newStrategy",
          "type": "address"
        }
      ],
      "name": "StrategyMigrated",
      "type": "event"
    },
    {
      "anonymous": false,
      "inputs": [
        {
          "indexed": false,
          "internalType": "uint256",
          "name": "profit",
          "type": "uint256"
        },
        {
          "indexed": false,
          "internalType": "uint256",
          "name": "loss",
          "type": "uint256"
        },
        {
          "indexed": false,
          "internalType": "uint256",
          "name": "debtPayment",
          "type": "uint256"
        },
        {
          "indexed": false,
          "internalType": "uint256",
          "name": "giveToStrategy",
          "type": "uint256"
        },
        {
          "indexed": false,
          "internalType": "uint256",
          "name": "requestFromStrategy",
          "type": "uint256"
        },
        {
          "indexed": false,
          "internalType": "uint256",
          "name": "creditAvailable",
          "type": "uint256"
        },
        {
          "indexed": false,
          "internalType": "uint256",
          "name": "totalAssets",
          "type": "uint256"
        }
      ],
      "name": "StrategyReported",
      "type": "event"
    },
    {
      "inputs": [],
      "name": "DEFAULT_PAYLOAD_SIZE_LIMIT",
      "outputs": [
        {
          "internalType": "uint256",
          "name": "",
          "type": "uint256"
        }
      ],
      "stateMutability": "view",
      "type": "function"
    },
    {
      "inputs": [],
      "name": "DEFAULT_SLIPPAGE",
      "outputs": [
        {
          "internalType": "uint256",
          "name": "",
          "type": "uint256"
        }
      ],
      "stateMutability": "view",
      "type": "function"
    },
    {
      "inputs": [
        {
          "internalType": "uint256",
          "name": "_debtOutstanding",
          "type": "uint256"
        }
      ],
      "name": "adjustPosition",
      "outputs": [],
      "stateMutability": "nonpayable",
      "type": "function"
    },
    {
      "inputs": [],
      "name": "balanceOfLpStaked",
      "outputs": [
        {
          "internalType": "uint256",
          "name": "",
          "type": "uint256"
        }
      ],
      "stateMutability": "view",
      "type": "function"
    },
    {
      "inputs": [],
      "name": "balanceOfPearlRewards",
      "outputs": [
        {
          "internalType": "uint256",
          "name": "",
          "type": "uint256"
        }
      ],
      "stateMutability": "view",
      "type": "function"
    },
    {
      "inputs": [],
      "name": "balanceOfWant",
      "outputs": [
        {
          "internalType": "uint256",
          "name": "",
          "type": "uint256"
        }
      ],
      "stateMutability": "view",
      "type": "function"
    },
    {
      "inputs": [],
      "name": "callMe",
      "outputs": [],
      "stateMutability": "nonpayable",
      "type": "function"
    },
    {
      "inputs": [],
      "name": "clearWant",
      "outputs": [],
      "stateMutability": "nonpayable",
      "type": "function"
    },
    {
      "inputs": [],
      "name": "currentChainId",
      "outputs": [
        {
          "internalType": "uint16",
          "name": "",
          "type": "uint16"
        }
      ],
      "stateMutability": "view",
      "type": "function"
    },
    {
      "inputs": [
        {
          "internalType": "uint256",
          "name": "_daiAmount",
          "type": "uint256"
        }
      ],
      "name": "daiToWant",
      "outputs": [
        {
          "internalType": "uint256",
          "name": "",
          "type": "uint256"
        }
      ],
      "stateMutability": "view",
      "type": "function"
    },
    {
      "inputs": [],
      "name": "emergencyExit",
      "outputs": [
        {
          "internalType": "bool",
          "name": "",
          "type": "bool"
        }
      ],
      "stateMutability": "view",
      "type": "function"
    },
    {
      "inputs": [],
      "name": "estimatedTotalAssets",
      "outputs": [
        {
          "internalType": "uint256",
          "name": "",
          "type": "uint256"
        }
      ],
      "stateMutability": "view",
      "type": "function"
    },
    {
      "inputs": [
        {
          "internalType": "uint16",
          "name": "",
          "type": "uint16"
        },
        {
          "internalType": "bytes",
          "name": "",
          "type": "bytes"
        },
        {
          "internalType": "uint64",
          "name": "",
          "type": "uint64"
        }
      ],
      "name": "failedMessages",
      "outputs": [
        {
          "internalType": "bytes32",
          "name": "",
          "type": "bytes32"
        }
      ],
      "stateMutability": "view",
      "type": "function"
    },
    {
      "inputs": [
        {
          "internalType": "uint16",
          "name": "_srcChainId",
          "type": "uint16"
        },
        {
          "internalType": "bytes",
          "name": "_srcAddress",
          "type": "bytes"
        }
      ],
      "name": "forceResumeReceive",
      "outputs": [],
      "stateMutability": "nonpayable",
      "type": "function"
    },
    {
      "inputs": [
        {
          "internalType": "uint16",
          "name": "_version",
          "type": "uint16"
        },
        {
          "internalType": "uint16",
          "name": "_chainId",
          "type": "uint16"
        },
        {
          "internalType": "address",
          "name": "",
          "type": "address"
        },
        {
          "internalType": "uint256",
          "name": "_configType",
          "type": "uint256"
        }
      ],
      "name": "getConfig",
      "outputs": [
        {
          "internalType": "bytes",
          "name": "",
          "type": "bytes"
        }
      ],
      "stateMutability": "view",
      "type": "function"
    },
    {
      "inputs": [
        {
          "internalType": "bytes32",
          "name": "_messageHash",
          "type": "bytes32"
        }
      ],
      "name": "getEthSignedMessageHash",
      "outputs": [
        {
          "internalType": "bytes32",
          "name": "",
          "type": "bytes32"
        }
      ],
      "stateMutability": "pure",
      "type": "function"
    },
    {
      "inputs": [
        {
          "internalType": "uint16",
          "name": "_remoteChainId",
          "type": "uint16"
        }
      ],
      "name": "getTrustedRemoteAddress",
      "outputs": [
        {
          "internalType": "bytes",
          "name": "",
          "type": "bytes"
        }
      ],
      "stateMutability": "view",
      "type": "function"
    },
    {
      "inputs": [
        {
          "internalType": "uint256",
          "name": "_totalDebt",
          "type": "uint256"
        },
        {
          "internalType": "uint256",
          "name": "_debtOutstanding",
          "type": "uint256"
        },
        {
          "internalType": "uint256",
          "name": "_creditAvailable",
          "type": "uint256"
        },
        {
          "internalType": "uint256",
          "name": "_debtRatio",
          "type": "uint256"
        },
        {
          "internalType": "bytes",
          "name": "_signature",
          "type": "bytes"
        }
      ],
      "name": "harvest",
      "outputs": [],
      "stateMutability": "nonpayable",
      "type": "function"
    },
    {
      "inputs": [
        {
          "internalType": "address",
          "name": "_lzEndpoint",
          "type": "address"
        },
        {
          "internalType": "address",
          "name": "_strategist",
          "type": "address"
        },
        {
          "internalType": "contract IERC20",
          "name": "_want",
          "type": "address"
        },
        {
          "internalType": "address",
          "name": "_vault",
          "type": "address"
        },
        {
          "internalType": "uint16",
          "name": "_vaultChainId",
          "type": "uint16"
        },
        {
          "internalType": "uint16",
          "name": "_currentChainId",
          "type": "uint16"
        },
        {
          "internalType": "address",
          "name": "_sgBridge",
          "type": "address"
        },
        {
          "internalType": "address",
          "name": "_router",
          "type": "address"
        }
      ],
      "name": "initialize",
      "outputs": [],
      "stateMutability": "nonpayable",
      "type": "function"
    },
    {
      "inputs": [
        {
          "internalType": "uint16",
          "name": "_srcChainId",
          "type": "uint16"
        },
        {
          "internalType": "bytes",
          "name": "_srcAddress",
          "type": "bytes"
        }
      ],
      "name": "isTrustedRemote",
      "outputs": [
        {
          "internalType": "bool",
          "name": "",
          "type": "bool"
        }
      ],
      "stateMutability": "view",
      "type": "function"
    },
    {
      "inputs": [],
      "name": "lzEndpoint",
      "outputs": [
        {
          "internalType": "contract ILayerZeroEndpointUpgradeable",
          "name": "",
          "type": "address"
        }
      ],
      "stateMutability": "view",
      "type": "function"
    },
    {
      "inputs": [
        {
          "internalType": "uint16",
          "name": "_srcChainId",
          "type": "uint16"
        },
        {
          "internalType": "bytes",
          "name": "_srcAddress",
          "type": "bytes"
        },
        {
          "internalType": "uint64",
          "name": "_nonce",
          "type": "uint64"
        },
        {
          "internalType": "bytes",
          "name": "_payload",
          "type": "bytes"
        }
      ],
      "name": "lzReceive",
      "outputs": [],
      "stateMutability": "nonpayable",
      "type": "function"
    },
    {
      "inputs": [
        {
          "internalType": "uint16",
          "name": "",
          "type": "uint16"
        },
        {
          "internalType": "uint16",
          "name": "",
          "type": "uint16"
        }
      ],
      "name": "minDstGasLookup",
      "outputs": [
        {
          "internalType": "uint256",
          "name": "",
          "type": "uint256"
        }
      ],
      "stateMutability": "view",
      "type": "function"
    },
    {
      "inputs": [],
      "name": "name",
      "outputs": [
        {
          "internalType": "string",
          "name": "",
          "type": "string"
        }
      ],
      "stateMutability": "pure",
      "type": "function"
    },
    {
      "inputs": [
        {
          "internalType": "uint16",
          "name": "_srcChainId",
          "type": "uint16"
        },
        {
          "internalType": "bytes",
          "name": "_srcAddress",
          "type": "bytes"
        },
        {
          "internalType": "uint64",
          "name": "_nonce",
          "type": "uint64"
        },
        {
          "internalType": "bytes",
          "name": "_payload",
          "type": "bytes"
        }
      ],
      "name": "nonblockingLzReceive",
      "outputs": [],
      "stateMutability": "nonpayable",
      "type": "function"
    },
    {
      "inputs": [],
      "name": "owner",
      "outputs": [
        {
          "internalType": "address",
          "name": "",
          "type": "address"
        }
      ],
      "stateMutability": "view",
      "type": "function"
    },
    {
      "inputs": [
        {
          "internalType": "uint16",
          "name": "",
          "type": "uint16"
        }
      ],
      "name": "payloadSizeLimitLookup",
      "outputs": [
        {
          "internalType": "uint256",
          "name": "",
          "type": "uint256"
        }
      ],
      "stateMutability": "view",
      "type": "function"
    },
    {
      "inputs": [
        {
          "internalType": "uint256",
          "name": "_pearlAmount",
          "type": "uint256"
        }
      ],
      "name": "pearlToWant",
      "outputs": [
        {
          "internalType": "uint256",
          "name": "",
          "type": "uint256"
        }
      ],
      "stateMutability": "view",
      "type": "function"
    },
    {
      "inputs": [],
      "name": "precrime",
      "outputs": [
        {
          "internalType": "address",
          "name": "",
          "type": "address"
        }
      ],
      "stateMutability": "view",
      "type": "function"
    },
    {
      "inputs": [],
      "name": "renounceOwnership",
      "outputs": [],
      "stateMutability": "nonpayable",
      "type": "function"
    },
    {
      "inputs": [
        {
          "internalType": "uint16",
          "name": "_srcChainId",
          "type": "uint16"
        },
        {
          "internalType": "bytes",
          "name": "_srcAddress",
          "type": "bytes"
        },
        {
          "internalType": "uint64",
          "name": "_nonce",
          "type": "uint64"
        },
        {
          "internalType": "bytes",
          "name": "_payload",
          "type": "bytes"
        }
      ],
      "name": "retryMessage",
      "outputs": [],
      "stateMutability": "payable",
      "type": "function"
    },
    {
      "inputs": [],
      "name": "revokeFunds",
      "outputs": [],
      "stateMutability": "nonpayable",
      "type": "function"
    },
    {
      "inputs": [
        {
          "internalType": "uint16",
          "name": "_version",
          "type": "uint16"
        },
        {
          "internalType": "uint16",
          "name": "_chainId",
          "type": "uint16"
        },
        {
          "internalType": "uint256",
          "name": "_configType",
          "type": "uint256"
        },
        {
          "internalType": "bytes",
          "name": "_config",
          "type": "bytes"
        }
      ],
      "name": "setConfig",
      "outputs": [],
      "stateMutability": "nonpayable",
      "type": "function"
    },
    {
      "inputs": [
        {
          "internalType": "bool",
          "name": "_emergencyExit",
          "type": "bool"
        }
      ],
      "name": "setEmergencyExit",
      "outputs": [],
      "stateMutability": "nonpayable",
      "type": "function"
    },
    {
      "inputs": [
        {
          "internalType": "uint16",
          "name": "_dstChainId",
          "type": "uint16"
        },
        {
          "internalType": "uint16",
          "name": "_packetType",
          "type": "uint16"
        },
        {
          "internalType": "uint256",
          "name": "_minGas",
          "type": "uint256"
        }
      ],
      "name": "setMinDstGas",
      "outputs": [],
      "stateMutability": "nonpayable",
      "type": "function"
    },
    {
      "inputs": [
        {
          "internalType": "uint16",
          "name": "_dstChainId",
          "type": "uint16"
        },
        {
          "internalType": "uint256",
          "name": "_size",
          "type": "uint256"
        }
      ],
      "name": "setPayloadSizeLimit",
      "outputs": [],
      "stateMutability": "nonpayable",
      "type": "function"
    },
    {
      "inputs": [
        {
          "internalType": "address",
          "name": "_precrime",
          "type": "address"
        }
      ],
      "name": "setPrecrime",
      "outputs": [],
      "stateMutability": "nonpayable",
      "type": "function"
    },
    {
      "inputs": [
        {
          "internalType": "uint16",
          "name": "_version",
          "type": "uint16"
        }
      ],
      "name": "setReceiveVersion",
      "outputs": [],
      "stateMutability": "nonpayable",
      "type": "function"
    },
    {
      "inputs": [
        {
          "internalType": "uint16",
          "name": "_version",
          "type": "uint16"
        }
      ],
      "name": "setSendVersion",
      "outputs": [],
      "stateMutability": "nonpayable",
      "type": "function"
    },
    {
      "inputs": [
        {
          "internalType": "uint256",
          "name": "_slippage",
          "type": "uint256"
        }
      ],
      "name": "setSlippage",
      "outputs": [],
      "stateMutability": "nonpayable",
      "type": "function"
    },
    {
      "inputs": [
        {
          "internalType": "uint16",
          "name": "_srcChainId",
          "type": "uint16"
        },
        {
          "internalType": "bytes",
          "name": "_path",
          "type": "bytes"
        }
      ],
      "name": "setTrustedRemote",
      "outputs": [],
      "stateMutability": "nonpayable",
      "type": "function"
    },
    {
      "inputs": [
        {
          "internalType": "uint16",
          "name": "_remoteChainId",
          "type": "uint16"
        },
        {
          "internalType": "bytes",
          "name": "_remoteAddress",
          "type": "bytes"
        }
      ],
      "name": "setTrustedRemoteAddress",
      "outputs": [],
      "stateMutability": "nonpayable",
      "type": "function"
    },
    {
      "inputs": [],
      "name": "sgBridge",
      "outputs": [
        {
          "internalType": "contract ISgBridge",
          "name": "",
          "type": "address"
        }
      ],
      "stateMutability": "view",
      "type": "function"
    },
    {
      "inputs": [
        {
          "internalType": "uint16",
          "name": "",
          "type": "uint16"
        },
        {
          "internalType": "bytes",
          "name": "_srcAddress",
          "type": "bytes"
        },
        {
          "internalType": "uint256",
          "name": "",
          "type": "uint256"
        },
        {
          "internalType": "address",
          "name": "_token",
          "type": "address"
        },
        {
          "internalType": "uint256",
          "name": "_amountLD",
          "type": "uint256"
        },
        {
          "internalType": "bytes",
          "name": "",
          "type": "bytes"
        }
      ],
      "name": "sgReceive",
      "outputs": [],
      "stateMutability": "nonpayable",
      "type": "function"
    },
    {
      "inputs": [],
      "name": "sgRouter",
      "outputs": [
        {
          "internalType": "contract IStargateRouter",
          "name": "",
          "type": "address"
        }
      ],
      "stateMutability": "view",
      "type": "function"
    },
    {
      "inputs": [],
      "name": "slippage",
      "outputs": [
        {
          "internalType": "uint256",
          "name": "",
          "type": "uint256"
        }
      ],
      "stateMutability": "view",
      "type": "function"
    },
    {
      "inputs": [],
      "name": "strategist",
      "outputs": [
        {
          "internalType": "address",
          "name": "",
          "type": "address"
        }
      ],
      "stateMutability": "view",
      "type": "function"
    },
    {
      "inputs": [],
      "name": "strategistSignMessageHash",
      "outputs": [
        {
          "internalType": "bytes32",
          "name": "",
          "type": "bytes32"
        }
      ],
      "stateMutability": "view",
      "type": "function"
    },
    {
      "inputs": [
        {
          "internalType": "contract IERC20",
          "name": "_token",
          "type": "address"
        }
      ],
      "name": "sweepToken",
      "outputs": [],
      "stateMutability": "nonpayable",
      "type": "function"
    },
    {
      "inputs": [
        {
          "internalType": "address",
          "name": "newOwner",
          "type": "address"
        }
      ],
      "name": "transferOwnership",
      "outputs": [],
      "stateMutability": "nonpayable",
      "type": "function"
    },
    {
      "inputs": [
        {
          "internalType": "uint16",
          "name": "",
          "type": "uint16"
        }
      ],
      "name": "trustedRemoteLookup",
      "outputs": [
        {
          "internalType": "bytes",
          "name": "",
          "type": "bytes"
        }
      ],
      "stateMutability": "view",
      "type": "function"
    },
    {
      "inputs": [
        {
          "internalType": "uint256",
          "name": "_usdrLpAmount",
          "type": "uint256"
        }
      ],
      "name": "usdrLpToWant",
      "outputs": [
        {
          "internalType": "uint256",
          "name": "",
          "type": "uint256"
        }
      ],
      "stateMutability": "view",
      "type": "function"
    },
    {
      "inputs": [],
      "name": "usdrToUsdcRate",
      "outputs": [
        {
          "internalType": "uint256",
          "name": "",
          "type": "uint256"
        }
      ],
      "stateMutability": "view",
      "type": "function"
    },
    {
      "inputs": [
        {
          "internalType": "uint256",
          "name": "_usdrAmount",
          "type": "uint256"
        }
      ],
      "name": "usdrToWant",
      "outputs": [
        {
          "internalType": "uint256",
          "name": "",
          "type": "uint256"
        }
      ],
      "stateMutability": "view",
      "type": "function"
    },
    {
      "inputs": [],
      "name": "vault",
      "outputs": [
        {
          "internalType": "address",
          "name": "",
          "type": "address"
        }
      ],
      "stateMutability": "view",
      "type": "function"
    },
    {
      "inputs": [],
      "name": "vaultChainId",
      "outputs": [
        {
          "internalType": "uint16",
          "name": "",
          "type": "uint16"
        }
      ],
      "stateMutability": "view",
      "type": "function"
    },
    {
      "inputs": [],
      "name": "want",
      "outputs": [
        {
          "internalType": "contract IERC20",
          "name": "",
          "type": "address"
        }
      ],
      "stateMutability": "view",
      "type": "function"
    },
    {
      "inputs": [],
      "name": "wantDecimals",
      "outputs": [
        {
          "internalType": "uint8",
          "name": "",
          "type": "uint8"
        }
      ],
      "stateMutability": "view",
      "type": "function"
    },
    {
      "inputs": [
        {
          "internalType": "uint256",
          "name": "_wantAmount",
          "type": "uint256"
        }
      ],
      "name": "wantToUsdrLp",
      "outputs": [
        {
          "internalType": "uint256",
          "name": "",
          "type": "uint256"
        }
      ],
      "stateMutability": "view",
      "type": "function"
    },
    {
      "stateMutability": "payable",
      "type": "receive"
    }
  ],
  "bytecode": "0x608060405234801561001057600080fd5b50615df480620000216000396000f3fe60806040526004361061029f5760003560e01c80621d3567146102ab5780630517cb76146102cd57806306fdde031461030357806307e0db17146103425780630df374831461036257806310ddb137146103825780631be19560146103a25780631cdb539f146103c25780631f1fcd51146103e25780631fe4a686146104025780632d6068431461042257806337fded91146104375780633d3ccc2f1461045c5780633d8b38f61461047c5780633e032a3b146104ac5780633eae1112146104d05780633f1f4fa4146104f057806342d65a8d1461051d57806345ee07551461053d578063495f881e1461055d5780635641ec031461057d578063567ad85d14610597578063593178de146105cc5780635b8c41e6146105e157806366ad5c8a146106305780636cbadbfa14610650578063715018a6146106725780637533d788146106875780638cfd8f5c146106a75780638da5cb5b146106df5780638f4508d0146106f4578063950c8a74146107095780639589c990146107295780639606647d146107495780639f38369a1461075e578063a6c3d1651461077e578063a87985101461079e578063a9e50824146107b4578063ab8236f3146107d4578063adf076e6146107f4578063b0bea72514610827578063b353aaa714610833578063baf3292d14610853578063bd79ac1314610873578063c1a3d44c14610893578063c4461834146108a8578063ca2e2835146108be578063cbed8b9c146108d3578063d1deba1f146108f3578063d56739ac14610906578063df2a5b3b1461091b578063eb8d72b71461093b578063efbb5cb01461095b578063f0fa55a914610970578063f2fde38b14610990578063f5ecbdbc146109b0578063fa540801146109d0578063fbfa77cf146109f0578063fcb988a414610a1057600080fd5b366102a657005b600080fd5b3480156102b757600080fd5b506102cb6102c6366004614a9e565b610a30565b005b3480156102d957600080fd5b5060ce546102ed906001600160a01b031681565b6040516102fa9190614b31565b60405180910390f35b34801561030f57600080fd5b5060408051808201909152600d81526c506561726c537472617465677960981b60208201525b6040516102fa9190614b95565b34801561034e57600080fd5b506102cb61035d366004614ba8565b610b19565b34801561036e57600080fd5b506102cb61037d366004614bc3565b610b86565b34801561038e57600080fd5b506102cb61039d366004614ba8565b610ba5565b3480156103ae57600080fd5b506102cb6103bd366004614c02565b610be1565b3480156103ce57600080fd5b506102cb6103dd366004614c1f565b610c6e565b3480156103ee57600080fd5b5060ca546102ed906001600160a01b031681565b34801561040e57600080fd5b5060c9546102ed906001600160a01b031681565b34801561042e57600080fd5b506102cb610ed2565b34801561044357600080fd5b5060cd546102ed9061010090046001600160a01b031681565b34801561046857600080fd5b506102cb610477366004614cd1565b610f13565b34801561048857600080fd5b5061049c610497366004614cea565b610f49565b60405190151581526020016102fa565b3480156104b857600080fd5b506104c260cc5481565b6040519081526020016102fa565b3480156104dc57600080fd5b506104c26104eb366004614cd1565b611016565b3480156104fc57600080fd5b506104c261050b366004614ba8565b60686020526000908152604090205481565b34801561052957600080fd5b506102cb610538366004614cea565b6110a4565b34801561054957600080fd5b506102cb610558366004614d4a565b611117565b34801561056957600080fd5b506102cb610578366004614e52565b611132565b34801561058957600080fd5b5060cd5461049c9060ff1681565b3480156105a357600080fd5b5060cb546105b990600160a01b900461ffff1681565b60405161ffff90911681526020016102fa565b3480156105d857600080fd5b506104c26113d6565b3480156105ed57600080fd5b506104c26105fc366004614eb5565b6097602090815260009384526040808520845180860184018051928152908401958401959095209452929052825290205481565b34801561063c57600080fd5b506102cb61064b366004614a9e565b611434565b34801561065c57600080fd5b5060cb546105b990600160b01b900461ffff1681565b34801561067e57600080fd5b506102cb611508565b34801561069357600080fd5b506103356106a2366004614ba8565b61151c565b3480156106b357600080fd5b506104c26106c2366004614f12565b606760209081526000928352604080842090915290825290205481565b3480156106eb57600080fd5b506102ed6115b6565b34801561070057600080fd5b506104c26115c5565b34801561071557600080fd5b506069546102ed906001600160a01b031681565b34801561073557600080fd5b506104c2610744366004614cd1565b61163f565b34801561075557600080fd5b506102cb6116d7565b34801561076a57600080fd5b50610335610779366004614ba8565b61176a565b34801561078a57600080fd5b506102cb610799366004614cea565b611879565b3480156107aa57600080fd5b506104c261264881565b3480156107c057600080fd5b506104c26107cf366004614cd1565b611902565b3480156107e057600080fd5b506102cb6107ef366004614f45565b6119bb565b34801561080057600080fd5b5060cb5461081590600160c01b900460ff1681565b60405160ff90911681526020016102fa565b3480156102cb57600080fd5b34801561083f57600080fd5b506065546102ed906001600160a01b031681565b34801561085f57600080fd5b506102cb61086e366004614c02565b611adb565b34801561087f57600080fd5b506104c261088e366004614cd1565b611b2e565b34801561089f57600080fd5b506104c2611b86565b3480156108b457600080fd5b506104c261271081565b3480156108ca57600080fd5b506104c2611bb7565b3480156108df57600080fd5b506102cb6108ee366004614fdf565b611c9b565b6102cb610901366004614a9e565b611d09565b34801561091257600080fd5b506104c2611f1f565b34801561092757600080fd5b506102cb61093636600461504d565b611f51565b34801561094757600080fd5b506102cb610956366004614cea565b612003565b34801561096757600080fd5b506104c261205d565b34801561097c57600080fd5b506102cb61098b366004614cd1565b612177565b34801561099c57600080fd5b506102cb6109ab366004614c02565b612184565b3480156109bc57600080fd5b506103356109cb366004615089565b6121fa565b3480156109dc57600080fd5b506104c26109eb366004614cd1565b61228d565b3480156109fc57600080fd5b5060cb546102ed906001600160a01b031681565b348015610a1c57600080fd5b506104c2610a2b366004614cd1565b6122df565b6065546001600160a01b03163314610a9b5760405162461bcd60e51b815260206004820152602360248201527f4261736553747261746567793a3a496e76616c6964456e64706f696e7443616c6044820152623632b960e91b60648201526084015b60405180910390fd5b610b118686868080601f01602080910402602001604051908101604052809392919081815260200183838082843760009201919091525050604080516020601f89018190048102820181019092528781528993509150879087908190840183828082843760009201919091525061238792505050565b505050505050565b610b21612400565b6065546040516307e0db1760e01b815261ffff831660048201526001600160a01b03909116906307e0db17906024015b600060405180830381600087803b158015610b6b57600080fd5b505af1158015610b7f573d6000803e3d6000fd5b5050505050565b610b8e612400565b61ffff909116600090815260686020526040902055565b610bad612400565b6065546040516310ddb13760e01b815261ffff831660048201526001600160a01b03909116906310ddb13790602401610b51565b610be961245f565b610c6b33826001600160a01b03166370a08231306040518263ffffffff1660e01b8152600401610c199190614b31565b602060405180830381865afa158015610c36573d6000803e3d6000fd5b505050506040513d601f19601f82011682018060405250810190610c5a91906150d6565b6001600160a01b03841691906124b8565b50565b600054610100900460ff1615808015610c8e5750600054600160ff909116105b80610caf5750610c9d30612513565b158015610caf575060005460ff166001145b610d125760405162461bcd60e51b815260206004820152602e60248201527f496e697469616c697a61626c653a20636f6e747261637420697320616c72656160448201526d191e481a5b9a5d1a585b1a5e995960921b6064820152608401610a92565b6000805460ff191660011790558015610d35576000805461ff0019166101001790555b610d488989898989898989612648612522565b60ca54610d75906001600160a01b03167368b3465833fb72a70ecdf485e0e4c7bd8665fc45600019612701565b60ca54610d9c906001600160a01b0316600080516020615d1f833981519152600019612701565b610dc5600080516020615d7f833981519152600080516020615d1f833981519152600019612701565b610df473d17cb0f162f133e339c0bbfc18c36c357e681d6b600080516020615d3f833981519152600019612701565b610e2373d17cb0f162f133e339c0bbfc18c36c357e681d6b600080516020615d1f833981519152600019612701565b610e58738f3cf7ad23cd3cadbd9735aff958023239c6a06373195f7b233947d51f4c3b756ad41a5ddb34cebce0600019612701565b610e81600080516020615d5f833981519152600080516020615d1f833981519152600019612701565b8015610ec7576000805461ff0019169055604051600181527f7f26b83ff96e1f2b6a682f133852f6798a09c465da95921460cefb38474024989060200160405180910390a15b505050505050505050565b610eda61245f565b60c9546040516001600160a01b03909116904780156108fc02916000818181858888f19350505050158015610c6b573d6000803e3d6000fd5b610f1b61245f565b610f2481612805565b604051818152600080516020615d9f833981519152906020015b60405180910390a150565b61ffff831660009081526066602052604081208054829190610f6a906150ef565b80601f0160208091040260200160405190810160405280929190818152602001828054610f96906150ef565b8015610fe35780601f10610fb857610100808354040283529160200191610fe3565b820191906000526020600020905b815481529060010190602001808311610fc657829003601f168201915b505050505090508383604051610ffa929190615129565b60405180910390208180519060200120149150505b9392505050565b600061109e82600080516020615d7f8339815191526001600160a01b031663313ce5676040518163ffffffff1660e01b8152600401602060405180830381865afa158015611068573d6000803e3d6000fd5b505050506040513d601f19601f8201168201806040525081019061108c9190615139565b60cb54600160c01b900460ff16612f22565b92915050565b6110ac612400565b6065546040516342d65a8d60e01b81526001600160a01b03909116906342d65a8d906110e090869086908690600401615185565b600060405180830381600087803b1580156110fa57600080fd5b505af115801561110e573d6000803e3d6000fd5b50505050505050565b61111f61245f565b60cd805460ff1916911515919091179055565b61113a61245f565b61114381612f77565b60cd546000908190819060ff16156111ef5784156111a35760405162461bcd60e51b815260206004820152601e60248201527f4261736553747261746567793a3a44656274526174696f4e6f745a65726f00006044820152606401610a92565b60006111ad612ffd565b9050878110156111c8576111c181896151b9565b92506111dd565b878111156111dd576111da88826151b9565b93505b6111e783896151b9565b915050611201565b6111f9888861303f565b919450925090505b600061120d82856151cc565b90506000808883101561122f57611224838a6151b9565b915060009050611240565b6000915061123d89846151b9565b90505b6000604051806101600160405280306001600160a01b031681526020014281526020018881526020018781526020018681526020018481526020018381526020018b81526020018361129061205d565b61129a91906151b9565b815260200160d060008154809291906112b2906151df565b909155508152602001899052905081156113125760cb5460405161130d91849161ffff600160a01b830416916001600160a01b0316906112f9906002908790602001615230565b604051602081830303815290604052613136565b61133d565b61133d600282604051602001611329929190615230565b604051602081830303815290604052613224565b7fb983e09c034e9c52b5e547cb0589967992b97717733f580cc5ad0afcdc4b522b8160400151826060015183608001518460a001518560c001518660e001518761010001516040516113c09796959493929190968752602087019590955260408601939093526060850191909152608084015260a083015260c082015260e00190565b60405180910390a1505050505050505050505050565b60d05460cb546040513060601b6001600160601b03191660208201526034810192909252600160b01b900460f01b6001600160f01b031916605482015260009060560160405160208183030381529060405280519060200120905090565b3330146114925760405162461bcd60e51b815260206004820152602660248201527f4e6f6e626c6f636b696e674c7a4170703a2063616c6c6572206d7573742062656044820152650204c7a4170760d41b6064820152608401610a92565b610b118686868080601f01602080910402602001604051908101604052809392919081815260200183838082843760009201919091525050604080516020601f8901819004810282018101909252878152899350915087908790819084018382808284376000920191909152506133a492505050565b611510612400565b61151a60006134ba565b565b60666020526000908152604090208054611535906150ef565b80601f0160208091040260200160405190810160405280929190818152602001828054611561906150ef565b80156115ae5780601f10611583576101008083540402835291602001916115ae565b820191906000526020600020905b81548152906001019060200180831161159157829003601f168201915b505050505081565b6033546001600160a01b031690565b6040516370a0823160e01b8152600090600080516020615d3f833981519152906370a08231906115f9903090600401614b31565b602060405180830381865afa158015611616573d6000803e3d6000fd5b505050506040513d601f19601f8201168201806040525081019061163a91906150d6565b905090565b6040516328bd9fc160e11b8152600090819073f68c20d6c50706f6c6bd8ee184382518c93b368c9063517b3f829061168b90600080516020615d5f8339815191529087906004016152db565b602060405180830381865afa1580156116a8573d6000803e3d6000fd5b505050506040513d601f19601f820116820180604052508101906116cc91906150d6565b905061100f81611016565b6116df61245f565b60ca546040516370a0823160e01b815261151a916001916001600160a01b03909116906370a0823190611716903090600401614b31565b602060405180830381865afa158015611733573d6000803e3d6000fd5b505050506040513d601f19601f8201168201806040525081019061175791906150d6565b60ca546001600160a01b031691906124b8565b61ffff811660009081526066602052604081208054606092919061178d906150ef565b80601f01602080910402602001604051908101604052809291908181526020018280546117b9906150ef565b80156118065780601f106117db57610100808354040283529160200191611806565b820191906000526020600020905b8154815290600101906020018083116117e957829003601f168201915b50505050509050805160000361185e5760405162461bcd60e51b815260206004820152601d60248201527f4c7a4170703a206e6f20747275737465642070617468207265636f72640000006044820152606401610a92565b61100f60006014835161187191906151b9565b83919061350c565b611881612400565b818130604051602001611896939291906152f4565b60408051601f1981840301815291815261ffff85166000908152606660205220906118c19082615370565b507f8c0400cfe2d1199b1a725c78960bcc2a344d869b80590d0f2bd005db15a572ce8383836040516118f593929190615185565b60405180910390a1505050565b60ca546040516310e1b98f60e21b815260009182918291600080516020615d1f83398151915291634386e63c9161195c916001600160a01b0390911690600080516020615d7f833981519152906001908a90600401615429565b6040805180830381865afa158015611978573d6000803e3d6000fd5b505050506040513d601f19601f8201168201806040525081019061199c9190615454565b915091506119a981611016565b6119b390836151cc565b949350505050565b60ce546001600160a01b03163314806119e3575060cd5461010090046001600160a01b031633145b611a2e5760405162461bcd60e51b815260206004820152601c60248201527b53674272696467653a3a526f757465724f724272696467654f6e6c7960201b6044820152606401610a92565b60cb546000906001600160a01b03163314611a8057611a50866000601461350c565b604051602001611a609190615478565b604051602081830303815290604052611a7890615494565b60601c611a8d565b60cb546001600160a01b03165b9050836001600160a01b03167f92073a89a07a000083eb8b2575fc15e7bb936efe55d00727d6942a796d7211a78483604051611aca9291906154cb565b60405180910390a250505050505050565b611ae3612400565b606980546001600160a01b0319166001600160a01b0383161790556040517f5db758e995a17ec1ad84bdef7e8c3293a0bd6179bcce400dff5d4c3d87db726b90610f3e908390614b31565b600061109e82738f3cf7ad23cd3cadbd9735aff958023239c6a0636001600160a01b031663313ce5676040518163ffffffff1660e01b8152600401602060405180830381865afa158015611068573d6000803e3d6000fd5b60ca546040516370a0823160e01b81526000916001600160a01b0316906370a08231906115f9903090600401614b31565b600080600073d17cb0f162f133e339c0bbfc18c36c357e681d6b6001600160a01b0316630902f1ac6040518163ffffffff1660e01b8152600401606060405180830381865afa158015611c0e573d6000803e3d6000fd5b505050506040513d601f19601f82011682018060405250810190611c3291906154e2565b5060ca549193509150600090611c62908390600080516020615d7f833981519152906001600160a01b0316613619565b60cb549091508190611c7f90600160c01b900460ff16600a6155f4565b611c899085615603565b611c93919061561a565b935050505090565b611ca3612400565b6065546040516332fb62e760e21b81526001600160a01b039091169063cbed8b9c90611cdb908890889088908890889060040161563c565b600060405180830381600087803b158015611cf557600080fd5b505af1158015610ec7573d6000803e3d6000fd5b61ffff86166000908152609760205260408082209051611d2c9088908890615129565b90815260408051602092819003830190206001600160401b03871660009081529252902054905080611dac5760405162461bcd60e51b815260206004820152602360248201527f4e6f6e626c6f636b696e674c7a4170703a206e6f2073746f726564206d65737360448201526261676560e81b6064820152608401610a92565b808383604051611dbd929190615129565b604051809103902014611e1c5760405162461bcd60e51b815260206004820152602160248201527f4e6f6e626c6f636b696e674c7a4170703a20696e76616c6964207061796c6f616044820152601960fa1b6064820152608401610a92565b61ffff87166000908152609760205260408082209051611e3f9089908990615129565b90815260408051602092819003830181206001600160401b038916600090815290845282902093909355601f88018290048202830182019052868252611ed7918991899089908190840183828082843760009201919091525050604080516020601f8a018190048102820181019092528881528a9350915088908890819084018382808284376000920191909152506133a492505050565b7fc264d91f3adc5588250e1551f547752ca0cfa8f6b530d243b9f9f4cab10ea8e58787878785604051611f0e95949392919061566a565b60405180910390a150505050505050565b6040516246613160e11b8152600090600080516020615d3f83398151915290628cc262906115f9903090600401614b31565b611f59612400565b60008111611fa15760405162461bcd60e51b81526020600482015260156024820152744c7a4170703a20696e76616c6964206d696e47617360581b6044820152606401610a92565b61ffff83811660008181526067602090815260408083209487168084529482529182902085905581519283528201929092529081018290527f9d5c7c0b934da8fefa9c7760c98383778a12dfbfc0c3b3106518f43fb9508ac0906060016118f5565b61200b612400565b61ffff831660009081526066602052604090206120298284836156a5565b507ffa41487ad5d6728f0b19276fa1eddc16558578f5109fc39d2dc33c3230470dab8383836040516118f593929190615185565b600061206a6107cf6115c5565b6040516370a0823160e01b81526120f290600080516020615d5f833981519152906370a082319061209f903090600401614b31565b602060405180830381865afa1580156120bc573d6000803e3d6000fd5b505050506040513d601f19601f820116820180604052508101906120e091906150d6565b6120e8611f1f565b61074491906151cc565b60ca546040516370a0823160e01b81526001600160a01b03909116906370a0823190612122903090600401614b31565b602060405180830381865afa15801561213f573d6000803e3d6000fd5b505050506040513d601f19601f8201168201806040525081019061216391906150d6565b61216d91906151cc565b61163a91906151cc565b61217f61245f565b60cc55565b61218c612400565b6001600160a01b0381166121f15760405162461bcd60e51b815260206004820152602660248201527f4f776e61626c653a206e6577206f776e657220697320746865207a65726f206160448201526564647265737360d01b6064820152608401610a92565b610c6b816134ba565b606554604051633d7b2f6f60e21b815261ffff808716600483015285166024820152306044820152606481018390526060916001600160a01b03169063f5ecbdbc90608401600060405180830381865afa15801561225c573d6000803e3d6000fd5b505050506040513d6000823e601f3d908101601f19168201604052612284919081019061575e565b95945050505050565b6040517b0ca2ba3432b932bab69029b4b3b732b21026b2b9b9b0b3b29d05199960211b6020820152603c8101829052600090605c01604051602081830303815290604052805190602001209050919050565b60ca546040516326283ecf60e21b81526000918291600080516020615d1f833981519152916398a0fb3c91612339916001600160a01b031690600080516020615d7f833981519152906001908990600019906004016157cb565b606060405180830381865afa158015612356573d6000803e3d6000fd5b505050506040513d601f19601f8201168201806040525081019061237a91906154e2565b9250505061100f81611902565b6000806123ea5a60966366ad5c8a60e01b898989896040516024016123af94939291906157fc565b60408051601f198184030181529190526020810180516001600160e01b03166001600160e01b031990931692909217909152309291906136fb565b9150915081610b1157610b118686868685613787565b336124096115b6565b6001600160a01b03161461151a5760405162461bcd60e51b815260206004820181905260248201527f4f776e61626c653a2063616c6c6572206973206e6f7420746865206f776e65726044820152606401610a92565b60c9546001600160a01b0316331461151a5760405162461bcd60e51b815260206004820152601c60248201527b10985cd954dd1c985d1959de4e8e93db9b1e54dd1c985d1959da5cdd60221b6044820152606401610a92565b61250e8363a9059cbb60e01b84846040516024016124d79291906152db565b60408051601f198184030181529190526020810180516001600160e01b03166001600160e01b031990931692909217909152613824565b505050565b6001600160a01b03163b151590565b600054610100900460ff166125495760405162461bcd60e51b8152600401610a929061583a565b612552896138f9565b60c980546001600160a01b03808b166001600160a01b03199283161790925560ca80548a8416908316811790915560cb8054938a1661ffff8a16600160a01b029093166001600160b01b0319909416939093179190911790915560cc8290556040805163313ce56760e01b8152905163313ce567916004808201926020929091908290030181865afa1580156125ec573d6000803e3d6000fd5b505050506040513d601f19601f820116820180604052508101906126109190615139565b60cb8054600060d05562ffffff60b01b1916600160c01b60ff939093169290920261ffff60b01b191691909117600160b01b61ffff87160217905560cd8054610100600160a81b0319166101006001600160a01b03868116919091029190911790915560ce80546001600160a01b03191684831617905560ca5460405163095ea7b360e01b815291169063095ea7b3906126b2908690600019906004016152db565b6020604051808303816000875af11580156126d1573d6000803e3d6000fd5b505050506040513d601f19601f820116820180604052508101906126f59190615885565b50505050505050505050565b80158061277b5750604051636eb1769f60e11b81523060048201526001600160a01b03838116602483015284169063dd62ed3e90604401602060405180830381865afa158015612755573d6000803e3d6000fd5b505050506040513d601f19601f8201168201806040525081019061277991906150d6565b155b6127e65760405162461bcd60e51b815260206004820152603660248201527f5361666545524332303a20617070726f76652066726f6d206e6f6e2d7a65726f60448201527520746f206e6f6e2d7a65726f20616c6c6f77616e636560501b6064820152608401610a92565b61250e8363095ea7b360e01b84846040516024016124d79291906152db565b600080516020615d3f8339815191526001600160a01b0316633d18b9126040518163ffffffff1660e01b8152600401600060405180830381600087803b15801561284e57600080fd5b505af1158015612862573d6000803e3d6000fd5b50506040516370a0823160e01b81526128e19250600080516020615d5f83398151915291506370a082319061289b903090600401614b31565b602060405180830381865afa1580156128b8573d6000803e3d6000fd5b505050506040513d601f19601f820116820180604052508101906128dc91906150d6565b613931565b60ca546040516370a0823160e01b81526000916001600160a01b0316906370a0823190612912903090600401614b31565b602060405180830381865afa15801561292f573d6000803e3d6000fd5b505050506040513d601f19601f8201168201806040525081019061295391906150d6565b905081811115612b0857600061296983836151b9565b9050600061297860028361561a565b90506000612a0b8260cb60189054906101000a900460ff16738f3cf7ad23cd3cadbd9735aff958023239c6a0636001600160a01b031663313ce5676040518163ffffffff1660e01b8152600401602060405180830381865afa1580156129e2573d6000803e3d6000fd5b505050506040513d601f19601f82011682018060405250810190612a069190615139565b612f22565b6040805160808101825260ca546001600160601b0319606091821b1660a0830152601960ea1b60b4830152738f3cf7ad23cd3cadbd9735aff958023239c6a06360601b60b7830152825160ab81840301815260cb830184528252306020830152918101859052919250600091908101612a8384613aca565b905260405163b858183f60e01b81529091507368b3465833fb72a70ecdf485e0e4c7bd8665fc459063b858183f90612abf9084906004016158a2565b6020604051808303816000875af1158015612ade573d6000803e3d6000fd5b505050506040513d601f19601f82011682018060405250810190612b0291906150d6565b50505050505b6040516370a0823160e01b8152600090738f3cf7ad23cd3cadbd9735aff958023239c6a063906370a0823190612b42903090600401614b31565b602060405180830381865afa158015612b5f573d6000803e3d6000fd5b505050506040513d601f19601f82011682018060405250810190612b8391906150d6565b90508015612c095760405163a39fc2c560e01b815273195f7b233947d51f4c3b756ad41a5ddb34cebce09063a39fc2c590612bc490849030906004016154cb565b6020604051808303816000875af1158015612be3573d6000803e3d6000fd5b505050506040513d601f19601f82011682018060405250810190612c0791906150d6565b505b6040516370a0823160e01b8152600090600080516020615d7f833981519152906370a0823190612c3d903090600401614b31565b602060405180830381865afa158015612c5a573d6000803e3d6000fd5b505050506040513d601f19601f82011682018060405250810190612c7e91906150d6565b60ca546040516370a0823160e01b81529192506001600160a01b0316906370a0823190612caf903090600401614b31565b602060405180830381865afa158015612ccc573d6000803e3d6000fd5b505050506040513d601f19601f82011682018060405250810190612cf091906150d6565b9250600081118015612d025750600083115b15612e6d5760ca546040516326283ecf60e21b81526000918291600080516020615d1f833981519152916398a0fb3c91612d5f916001600160a01b031690600080516020615d7f833981519152906001908b908a906004016157cb565b606060405180830381865afa158015612d7c573d6000803e3d6000fd5b505050506040513d601f19601f82011682018060405250810190612da091906154e2565b5060ca54604051635a47ddc360e01b81526001600160a01b039091166004820152600080516020615d7f8339815191526024820152600160448201819052606482018490526084820183905260a4820181905260c48201523060e4820152426101048201529193509150600080516020615d1f83398151915290635a47ddc390610124016060604051808303816000875af1158015612e43573d6000803e3d6000fd5b505050506040513d601f19601f82011682018060405250810190612e6791906154e2565b50505050505b6040516370a0823160e01b815260009073d17cb0f162f133e339c0bbfc18c36c357e681d6b906370a0823190612ea7903090600401614b31565b602060405180830381865afa158015612ec4573d6000803e3d6000fd5b505050506040513d601f19601f82011682018060405250810190612ee891906150d6565b90508015610b7f5760405163b6b55f2560e01b815260048101829052600080516020615d3f8339815191529063b6b55f2590602401611cdb565b60008260ff168260ff161115612f5857612f3c83836158f0565b612f4790600a6155f4565b612f519085615603565b905061100f565b612f6282846158f0565b612f6d90600a6155f4565b612f51908561561a565b6000612f816113d6565b90506000612f8e8261228d565b60c9549091506001600160a01b0316612fa78285613ae7565b6001600160a01b03161461250e5760405162461bcd60e51b815260206004820152601e60248201527f4261736553747261746567793a3a496e76616c69645369676e617475726500006044820152606401610a92565b600061300f61300a6115c5565b613b0b565b60ca546040516370a0823160e01b81526001600160a01b03909116906370a08231906115f9903090600401614b31565b60008060008061304d61205d565b905085811061306b5761306086826151b9565b93506000925061307c565b6000935061307981876151b9565b92505b61308e61308985876151cc565b613dff565b505060ca546040516370a0823160e01b81526000916001600160a01b0316906370a08231906130c1903090600401614b31565b602060405180830381865afa1580156130de573d6000803e3d6000fd5b505050506040513d601f19601f8201168201806040525081019061310291906150d6565b9050848111613117578094506000925061312d565b61312a61312486836151b9565b87613f34565b92505b50509250925092565b60cd54604051630dc6346160e01b815260009161010090046001600160a01b031690630dc634619061317090879087908790600401615909565b602060405180830381865afa15801561318d573d6000803e3d6000fd5b505050506040513d601f19601f820116820180604052508101906131b191906150d6565b60cd5460ca54604051633920455b60e11b81529293506001600160a01b036101009092048216926372408ab69285926131f7929116908a908a908a908a90600401615937565b6000604051808303818588803b15801561321057600080fd5b505af11580156126f5573d6000803e3d6000fd5b60cb5460408051606083811b6001600160601b03199081166020840152309182901b16603483015282516028818403018152604890920190925260655490926000926001600160a01b03909216916340a7bb109161ffff600160a01b9091041690868561328f613f4a565b6040518663ffffffff1660e01b81526004016132af959493929190615974565b6040805180830381865afa1580156132cb573d6000803e3d6000fd5b505050506040513d601f19601f820116820180604052508101906132ef9190615454565b5090508047101561331b5760405162fae2d560e21b815260048101829052476024820152604401610a92565b60655460cb546001600160a01b039091169063c5803100908390600160a01b900461ffff168587308061334c613f4a565b6040518863ffffffff1660e01b815260040161336d969594939291906159c8565b6000604051808303818588803b15801561338657600080fd5b505af115801561339a573d6000803e3d6000fd5b5050505050505050565b60cb5461ffff858116600160a01b909204161461340e5760405162461bcd60e51b815260206004820152602260248201527f4261736553747261746567793a3a5661756c74436861696e49644d69736d61746044820152610c6d60f31b6064820152608401610a92565b600061341c8482601461350c565b60405160200161342c9190615478565b60405160208183030381529060405261344490615494565b60cb5460609190911c91506001600160a01b031681146134b15760405162461bcd60e51b815260206004820152602260248201527f4261736553747261746567793a3a5661756c74416464726573734d69736d61746044820152610c6d60f31b6064820152608401610a92565b610b7f82613f7a565b603380546001600160a01b038381166001600160a01b0319831681179093556040519116919082907f8be0079c531659141344cd1fd0a4f28419497f9722a3daafe3b4186f6b6457e090600090a35050565b60608161351a81601f6151cc565b10156135595760405162461bcd60e51b815260206004820152600e60248201526d736c6963655f6f766572666c6f7760901b6044820152606401610a92565b61356382846151cc565b845110156135a75760405162461bcd60e51b8152602060048201526011602482015270736c6963655f6f75744f66426f756e647360781b6044820152606401610a92565b6060821580156135c65760405191506000825260208201604052613610565b6040519150601f8416801560200281840101858101878315602002848b0101015b818310156135ff5780518352602092830192016135e7565b5050858452601f01601f1916604052505b50949350505050565b600080836001600160a01b031663313ce5676040518163ffffffff1660e01b8152600401602060405180830381865afa15801561365a573d6000803e3d6000fd5b505050506040513d601f19601f8201168201806040525081019061367e9190615139565b90506000836001600160a01b031663313ce5676040518163ffffffff1660e01b8152600401602060405180830381865afa1580156136c0573d6000803e3d6000fd5b505050506040513d601f19601f820116820180604052508101906136e49190615139565b90506136f1868383612f22565b9695505050505050565b6000606060008060008661ffff166001600160401b0381111561372057613720614d67565b6040519080825280601f01601f19166020018201604052801561374a576020820181803683370190505b50905060008087516020890160008d8df191503d92508683111561376c578692505b828152826000602083013e9093509150505b94509492505050565b8180519060200120609760008761ffff1661ffff168152602001908152602001600020856040516137b89190615478565b9081526040805191829003602090810183206001600160401b0388166000908152915220919091557fe183f33de2837795525b4792ca4cd60535bd77c53b7e7030060bfcf5734d6b0c906138159087908790879087908790615a2f565b60405180910390a15050505050565b6000613879826040518060400160405280602081526020017f5361666545524332303a206c6f772d6c6576656c2063616c6c206661696c6564815250856001600160a01b03166140a79092919063ffffffff16565b905080516000148061389a57508080602001905181019061389a9190615885565b61250e5760405162461bcd60e51b815260206004820152602a60248201527f5361666545524332303a204552433230206f7065726174696f6e20646964206e6044820152691bdd081cdd58d8d9595960b21b6064820152608401610a92565b600054610100900460ff166139205760405162461bcd60e51b8152600401610a929061583a565b6139286140b6565b610c6b816140e6565b8060000361393c5750565b60408051600280825260608201909252600091816020015b604080516060810182526000808252602080830182905292820152825260001990920191018161395457505060408051606081018252600080516020615d5f8339815191528152600080516020615d7f833981519152602082015260009181018290528251929350918391906139cc576139cc615a81565b60209081029190910181019190915260408051606081018252600080516020615d7f833981519152815260ca546001600160a01b031692810192909252600190820181905282518391908110613a2457613a24615a81565b60200260200101819052506000613a3a8361163f565b9050600080516020615d1f83398151915263f41766d884613a5a84613aca565b8530426040518663ffffffff1660e01b8152600401613a7d959493929190615a97565b6000604051808303816000875af1158015613a9c573d6000803e3d6000fd5b505050506040513d6000823e601f3d908101601f19168201604052613ac49190810190615b26565b50505050565b600061271060cc5483613add9190615603565b61109e919061561a565b6000806000613af6858561412f565b91509150613b0381614174565b509392505050565b600080516020615d3f8339815191526001600160a01b0316633d18b9126040518163ffffffff1660e01b8152600401600060405180830381600087803b158015613b5457600080fd5b505af1158015613b68573d6000803e3d6000fd5b50506040516370a0823160e01b8152613ba19250600080516020615d5f83398151915291506370a082319061289b903090600401614b31565b80600003613bac5750565b604051632e1a7d4d60e01b815260048101829052600080516020615d3f83398151915290632e1a7d4d90602401600060405180830381600087803b158015613bf357600080fd5b505af1158015613c07573d6000803e3d6000fd5b505060ca546040516310e1b98f60e21b815260009350839250600080516020615d1f83398151915291634386e63c91613c61916001600160a01b031690600080516020615d7f833981519152906001908990600401615429565b6040805180830381865afa158015613c7d573d6000803e3d6000fd5b505050506040513d601f19601f82011682018060405250810190613ca19190615454565b60ca549193509150600080516020615d1f83398151915290630dede6c4906001600160a01b0316600080516020615d7f833981519152600187613ce388613aca565b613cec88613aca565b6040516001600160e01b031960e089901b1681526001600160a01b03968716600482015295909416602486015291151560448501526064840152608483015260a48201523060c48201524260e48201526101040160408051808303816000875af1158015613d5e573d6000803e3d6000fd5b505050506040513d601f19601f82011682018060405250810190613d829190615454565b50506040516370a0823160e01b815261250e90600080516020615d7f833981519152906370a0823190613db9903090600401614b31565b602060405180830381865afa158015613dd6573d6000803e3d6000fd5b505050506040513d601f19601f82011682018060405250810190613dfa91906150d6565b6142b9565b60ca546040516370a0823160e01b8152600091829182916001600160a01b0316906370a0823190613e34903090600401614b31565b602060405180830381865afa158015613e51573d6000803e3d6000fd5b505050506040513d601f19601f82011682018060405250810190613e7591906150d6565b9050838110613e8957509192600092509050565b613e9b613e9682866151b9565b614395565b60ca546040516370a0823160e01b81526001600160a01b03909116906370a0823190613ecb903090600401614b31565b602060405180830381865afa158015613ee8573d6000803e3d6000fd5b505050506040513d601f19601f82011682018060405250810190613f0c91906150d6565b905080841115613f2a57915081613f2381856151b9565b9150613f2e565b8392505b50915091565b6000818310613f43578161100f565b5090919050565b60408051600160f01b6020820152620f424060228083019190915282518083039091018152604290910190915290565b600081806020019051810190613f909190615bbf565b90506003816004811115613fa657613fa66151f8565b03613ff957600082806020019051810190613fc19190615be0565b915050613fd18160000151612805565b8051604051908152600080516020615d9f8339815191529060200160405180910390a1505050565b600081600481111561400d5761400d6151f8565b03614034576000828060200190518101906140289190615c23565b91505061250e81614476565b6004816004811115614048576140486151f8565b036140a3576000828060200190518101906140639190615c8e565b91505061407381600001516145a0565b80516040517f7c9a2d2ec51230d7dbed27f113a325b7e20aef7b049e68b2339257b5edff5bea916118f591614b31565b5050565b60606119b384846000856145df565b600054610100900460ff166140dd5760405162461bcd60e51b8152600401610a929061583a565b61151a336134ba565b600054610100900460ff1661410d5760405162461bcd60e51b8152600401610a929061583a565b606580546001600160a01b0319166001600160a01b0392909216919091179055565b60008082516041036141655760208301516040840151606085015160001a614159878285856146ba565b9450945050505061416d565b506000905060025b9250929050565b6000816004811115614188576141886151f8565b036141905750565b60018160048111156141a4576141a46151f8565b036141ec5760405162461bcd60e51b815260206004820152601860248201527745434453413a20696e76616c6964207369676e617475726560401b6044820152606401610a92565b6002816004811115614200576142006151f8565b0361424d5760405162461bcd60e51b815260206004820152601f60248201527f45434453413a20696e76616c6964207369676e6174757265206c656e677468006044820152606401610a92565b6003816004811115614261576142616151f8565b03610c6b5760405162461bcd60e51b815260206004820152602260248201527f45434453413a20696e76616c6964207369676e6174757265202773272076616c604482015261756560f01b6064820152608401610a92565b806000036142c45750565b60006142cf82611016565b9050600080516020615d1f8339815191526313dcfc59836142ef84613aca565b60ca5460405160e085901b6001600160e01b031916815260048101939093526024830191909152600080516020615d7f83398151915260448301526001600160a01b03166064820152600160848201523060a48201524260c482015260e4016000604051808303816000875af115801561436d573d6000803e3d6000fd5b505050506040513d6000823e601f3d908101601f1916820160405261250e9190810190615b26565b806000036143a05750565b60006143ad610744611f1f565b905081811061444c57600080516020615d3f8339815191526001600160a01b0316633d18b9126040518163ffffffff1660e01b8152600401600060405180830381600087803b1580156143ff57600080fd5b505af1158015614413573d6000803e3d6000fd5b50506040516370a0823160e01b81526140a39250600080516020615d5f83398151915291506370a082319061289b903090600401614b31565b600061446b61445e610a2b84866151b9565b6144666115c5565b613f34565b905061250e81613b0b565b602080820151600090815260cf909152604090205460ff16156144db5760405162461bcd60e51b815260206004820152601e60248201527f4261736553747261746567793a3a416c726561647957697468647261776e00006044820152606401610a92565b6000806144eb8360000151613dff565b91509150600060016040518060800160405280306001600160a01b031681526020018581526020018481526020018660200151815250604051602001614532929190615cdc565b60408051601f19818403018152919052905082156145735760cb5461456e90849061ffff600160a01b820416906001600160a01b031684613136565b61457c565b61457c81613224565b505050602090810151600090815260cf90915260409020805460ff19166001179055565b6145a981614771565b60ca546040516370a0823160e01b8152610c6b9183916001600160a01b03909116906370a0823190611716903090600401614b31565b6060824710156146405760405162461bcd60e51b815260206004820152602660248201527f416464726573733a20696e73756666696369656e742062616c616e636520666f6044820152651c8818d85b1b60d21b6064820152608401610a92565b600080866001600160a01b0316858760405161465c9190615478565b60006040518083038185875af1925050503d8060008114614699576040519150601f19603f3d011682016040523d82523d6000602084013e61469e565b606091505b50915091506146af87838387614993565b979650505050505050565b6000806fa2a8918ca85bafe22016d0b997e4df60600160ff1b038311156146e7575060009050600361377e565b6040805160008082526020820180845289905260ff881692820192909252606081018690526080810185905260019060a0016020604051602081039080840390855afa15801561473b573d6000803e3d6000fd5b5050604051601f1901519150506001600160a01b0381166147645760006001925092505061377e565b9660009650945050505050565b600080516020615d3f833981519152632e1a7d4d61478d6115c5565b6040518263ffffffff1660e01b81526004016147ab91815260200190565b600060405180830381600087803b1580156147c557600080fd5b505af11580156147d9573d6000803e3d6000fd5b50506040516370a0823160e01b8152614877925083915073d17cb0f162f133e339c0bbfc18c36c357e681d6b906370a082319061481a903090600401614b31565b602060405180830381865afa158015614837573d6000803e3d6000fd5b505050506040513d601f19601f8201168201806040525081019061485b91906150d6565b73d17cb0f162f133e339c0bbfc18c36c357e681d6b91906124b8565b6040516370a0823160e01b8152614905908290600080516020615d7f833981519152906370a08231906148ae903090600401614b31565b602060405180830381865afa1580156148cb573d6000803e3d6000fd5b505050506040513d601f19601f820116820180604052508101906148ef91906150d6565b600080516020615d7f83398151915291906124b8565b6040516370a0823160e01b8152610c6b908290600080516020615d5f833981519152906370a082319061493c903090600401614b31565b602060405180830381865afa158015614959573d6000803e3d6000fd5b505050506040513d601f19601f8201168201806040525081019061497d91906150d6565b600080516020615d5f83398151915291906124b8565b60608315614a005782516000036149f9576149ad85612513565b6149f95760405162461bcd60e51b815260206004820152601d60248201527f416464726573733a2063616c6c20746f206e6f6e2d636f6e74726163740000006044820152606401610a92565b50816119b3565b6119b38383815115614a155781518083602001fd5b8060405162461bcd60e51b8152600401610a929190614b95565b803561ffff81168114614a4157600080fd5b919050565b60008083601f840112614a5857600080fd5b5081356001600160401b03811115614a6f57600080fd5b60208301915083602082850101111561416d57600080fd5b80356001600160401b0381168114614a4157600080fd5b60008060008060008060808789031215614ab757600080fd5b614ac087614a2f565b955060208701356001600160401b0380821115614adc57600080fd5b614ae88a838b01614a46565b9097509550859150614afc60408a01614a87565b94506060890135915080821115614b1257600080fd5b50614b1f89828a01614a46565b979a9699509497509295939492505050565b6001600160a01b0391909116815260200190565b60005b83811015614b60578181015183820152602001614b48565b50506000910152565b60008151808452614b81816020860160208601614b45565b601f01601f19169290920160200192915050565b60208152600061100f6020830184614b69565b600060208284031215614bba57600080fd5b61100f82614a2f565b60008060408385031215614bd657600080fd5b614bdf83614a2f565b946020939093013593505050565b6001600160a01b0381168114610c6b57600080fd5b600060208284031215614c1457600080fd5b813561100f81614bed565b600080600080600080600080610100898b031215614c3c57600080fd5b8835614c4781614bed565b97506020890135614c5781614bed565b96506040890135614c6781614bed565b95506060890135614c7781614bed565b9450614c8560808a01614a2f565b9350614c9360a08a01614a2f565b925060c0890135614ca381614bed565b915060e0890135614cb381614bed565b809150509295985092959890939650565b6001600160a01b03169052565b600060208284031215614ce357600080fd5b5035919050565b600080600060408486031215614cff57600080fd5b614d0884614a2f565b925060208401356001600160401b03811115614d2357600080fd5b614d2f86828701614a46565b9497909650939450505050565b8015158114610c6b57600080fd5b600060208284031215614d5c57600080fd5b813561100f81614d3c565b634e487b7160e01b600052604160045260246000fd5b604051602081016001600160401b0381118282101715614d9f57614d9f614d67565b60405290565b604051601f8201601f191681016001600160401b0381118282101715614dcd57614dcd614d67565b604052919050565b60006001600160401b03821115614dee57614dee614d67565b50601f01601f191660200190565b600082601f830112614e0d57600080fd5b8135614e20614e1b82614dd5565b614da5565b818152846020838601011115614e3557600080fd5b816020850160208301376000918101602001919091529392505050565b600080600080600060a08688031215614e6a57600080fd5b8535945060208601359350604086013592506060860135915060808601356001600160401b03811115614e9c57600080fd5b614ea888828901614dfc565b9150509295509295909350565b600080600060608486031215614eca57600080fd5b614ed384614a2f565b925060208401356001600160401b03811115614eee57600080fd5b614efa86828701614dfc565b925050614f0960408501614a87565b90509250925092565b60008060408385031215614f2557600080fd5b614f2e83614a2f565b9150614f3c60208401614a2f565b90509250929050565b60008060008060008060c08789031215614f5e57600080fd5b614f6787614a2f565b955060208701356001600160401b0380821115614f8357600080fd5b614f8f8a838b01614dfc565b96506040890135955060608901359150614fa882614bed565b9093506080880135925060a08801359080821115614fc557600080fd5b50614fd289828a01614dfc565b9150509295509295509295565b600080600080600060808688031215614ff757600080fd5b61500086614a2f565b945061500e60208701614a2f565b93506040860135925060608601356001600160401b0381111561503057600080fd5b61503c88828901614a46565b969995985093965092949392505050565b60008060006060848603121561506257600080fd5b61506b84614a2f565b925061507960208501614a2f565b9150604084013590509250925092565b6000806000806080858703121561509f57600080fd5b6150a885614a2f565b93506150b660208601614a2f565b925060408501356150c681614bed565b9396929550929360600135925050565b6000602082840312156150e857600080fd5b5051919050565b600181811c9082168061510357607f821691505b60208210810361512357634e487b7160e01b600052602260045260246000fd5b50919050565b8183823760009101908152919050565b60006020828403121561514b57600080fd5b815160ff8116811461100f57600080fd5b81835281816020850137506000828201602090810191909152601f909101601f19169091010190565b61ffff8416815260406020820152600061228460408301848661515c565b634e487b7160e01b600052601160045260246000fd5b8181038181111561109e5761109e6151a3565b8082018082111561109e5761109e6151a3565b6000600182016151f1576151f16151a3565b5060010190565b634e487b7160e01b600052602160045260246000fd5b6005811061522c57634e487b7160e01b600052602160045260246000fd5b9052565b61523a818461520e565b6040602082015261524f604082018351614cc4565b6020820151606082015260408201516080820152606082015160a0820152608082015160c082015260a082015160e0820152600060c0830151610100818185015260e085015191506101208281860152818601519250610140915082828601528086015192505061016082818601528186015192508061018086015250506122846101a0840182614b69565b6001600160a01b03929092168252602082015260400190565b8284823760609190911b6001600160601b0319169101908152601401919050565b601f82111561250e57600081815260208120601f850160051c8101602086101561533c5750805b601f850160051c820191505b81811015610b1157828155600101615348565b600019600383901b1c191660019190911b1790565b81516001600160401b0381111561538957615389614d67565b61539d8161539784546150ef565b84615315565b602080601f8311600181146153cc57600084156153ba5750858301515b6153c4858261535b565b865550610b11565b600085815260208120601f198616915b828110156153fb578886015182559484019460019091019084016153dc565b50858210156154195787850151600019600388901b60f8161c191681555b5050505050600190811b01905550565b6001600160a01b03948516815292909316602083015215156040820152606081019190915260800190565b6000806040838503121561546757600080fd5b505080516020909101519092909150565b6000825161548a818460208701614b45565b9190910192915050565b805160208201516001600160601b031980821692919060148310156154c35780818460140360031b1b83161693505b505050919050565b9182526001600160a01b0316602082015260400190565b6000806000606084860312156154f757600080fd5b8351925060208401519150604084015190509250925092565b600181815b8085111561554b578160001904821115615531576155316151a3565b8085161561553e57918102915b93841c9390800290615515565b509250929050565b6000826155625750600161109e565b8161556f5750600061109e565b8160018114615585576002811461558f576155ab565b600191505061109e565b60ff8411156155a0576155a06151a3565b50506001821b61109e565b5060208310610133831016604e8410600b84101617156155ce575081810a61109e565b6155d88383615510565b80600019048211156155ec576155ec6151a3565b029392505050565b600061100f60ff841683615553565b808202811582820484141761109e5761109e6151a3565b60008261563757634e487b7160e01b600052601260045260246000fd5b500490565b600061ffff8088168352808716602084015250846040830152608060608301526146af60808301848661515c565b61ffff8616815260806020820152600061568860808301868861515c565b6001600160401b0394909416604083015250606001529392505050565b6001600160401b038311156156bc576156bc614d67565b6156d0836156ca83546150ef565b83615315565b6000601f8411600181146156fe57600085156156ec5750838201355b6156f6868261535b565b845550610b7f565b600083815260209020601f19861690835b8281101561572f578685013582556020948501946001909201910161570f565b508682101561574c5760001960f88860031b161c19848701351681555b505060018560011b0183555050505050565b60006020828403121561577057600080fd5b81516001600160401b0381111561578657600080fd5b8201601f8101841361579757600080fd5b80516157a5614e1b82614dd5565b8181528560208385010111156157ba57600080fd5b612284826020830160208601614b45565b6001600160a01b03958616815293909416602084015290151560408301526060820152608081019190915260a00190565b61ffff851681526080602082015260006158196080830186614b69565b6001600160401b038516604084015282810360608401526146af8185614b69565b6020808252602b908201527f496e697469616c697a61626c653a20636f6e7472616374206973206e6f74206960408201526a6e697469616c697a696e6760a81b606082015260800190565b60006020828403121561589757600080fd5b815161100f81614d3c565b6020815260008251608060208401526158be60a0840182614b69565b905060018060a01b03602085015116604084015260408401516060840152606084015160808401528091505092915050565b60ff828116828216039081111561109e5761109e6151a3565b61ffff841681526001600160a01b038316602082015260606040820181905260009061228490830184614b69565b6001600160a01b0386811682526020820186905261ffff851660408301528316606082015260a0608082018190526000906146af90830184614b69565b61ffff861681526001600160a01b038516602082015260a0604082018190526000906159a290830186614b69565b841515606084015282810360808401526159bc8185614b69565b98975050505050505050565b61ffff8716815260c0602082015260006159e560c0830188614b69565b82810360408401526159f78188614b69565b6001600160a01b0387811660608601528616608085015283810360a08501529050615a228185614b69565b9998505050505050505050565b61ffff8616815260a060208201526000615a4c60a0830187614b69565b6001600160401b03861660408401528281036060840152615a6d8186614b69565b905082810360808401526159bc8185614b69565b634e487b7160e01b600052603260045260246000fd5b600060a0820187835260208781850152604060a08186015282885180855260c087019150838a01945060005b81811015615b0057855180516001600160a01b03908116855286820151168685015284015115158484015294840194606090920191600101615ac3565b505080945050505050615b166060830185614cc4565b8260808301529695505050505050565b60006020808385031215615b3957600080fd5b82516001600160401b0380821115615b5057600080fd5b818501915085601f830112615b6457600080fd5b815181811115615b7657615b76614d67565b8060051b9150615b87848301614da5565b8181529183018401918481019088841115615ba157600080fd5b938501935b838510156159bc57845182529385019390850190615ba6565b600060208284031215615bd157600080fd5b81516005811061100f57600080fd5b6000808284036040811215615bf457600080fd5b835192506020601f1982011215615c0a57600080fd5b50615c13614d7d565b6020939093015183525092909150565b6000808284036060811215615c3757600080fd5b835192506040601f1982011215615c4d57600080fd5b50604080519081016001600160401b0381118282101715615c7057615c70614d67565b60409081526020858101518352940151938101939093525092909150565b6000808284036040811215615ca257600080fd5b835192506020601f1982011215615cb857600080fd5b50615cc1614d7d565b6020840151615ccf81614bed565b8152919491935090915050565b60a08101615cea828561520e565b60018060a01b038351166020830152602083015160408301526040830151606083015260608301516080830152939250505056fe000000000000000000000000cc25c0fd84737f44a7d38649b69491bbf0c7f08300000000000000000000000097bd59a8202f8263c2ec39cf6cf6b438d0b458760000000000000000000000007238390d5f6f64e67c3211c343a410e2a3dec14200000000000000000000000040379a439d4f6795b6fc9aa5687db461677a2dbab0c58532a125fc3c0adccaef396bf65344a4d5781cec2e4c593e6b611d75f150a26469706673582212206e8f8ec65a4a508420664ab23a8037379d82f3991c0fe8a0b0c81fd6f2553e5c64736f6c63430008130033",
  "linkReferences": {},
  "deployedLinkReferences": {}
}