{
  "_format": "hh-sol-artifact-1",
  "contractName": "PearlStrategy",
  "sourceName": "contracts/strategies/PearlStrategy.sol",
  "abi": [
    {
      "inputs": [
        {
          "internalType": "uint256",
          "name": "messageType",
          "type": "uint256"
        }
      ],
      "name": "IncorrectMessageType",
      "type": "error"
    },
    {
      "inputs": [
        {
          "internalType": "uint256",
          "name": "amount",
          "type": "uint256"
        },
        {
          "internalType": "uint256",
          "name": "balance",
          "type": "uint256"
        }
      ],
      "name": "InsufficientFunds",
      "type": "error"
    },
    {
      "anonymous": false,
      "inputs": [
        {
          "indexed": false,
          "internalType": "uint256",
          "name": "debtOutstanding",
          "type": "uint256"
        }
      ],
      "name": "AdjustedPosition",
      "type": "event"
    },
    {
      "anonymous": false,
      "inputs": [
        {
          "indexed": false,
          "internalType": "uint8",
          "name": "version",
          "type": "uint8"
        }
      ],
      "name": "Initialized",
      "type": "event"
    },
    {
      "anonymous": false,
      "inputs": [
        {
          "indexed": false,
          "internalType": "uint16",
          "name": "_srcChainId",
          "type": "uint16"
        },
        {
          "indexed": false,
          "internalType": "bytes",
          "name": "_srcAddress",
          "type": "bytes"
        },
        {
          "indexed": false,
          "internalType": "uint64",
          "name": "_nonce",
          "type": "uint64"
        },
        {
          "indexed": false,
          "internalType": "bytes",
          "name": "_payload",
          "type": "bytes"
        },
        {
          "indexed": false,
          "internalType": "bytes",
          "name": "_reason",
          "type": "bytes"
        }
      ],
      "name": "MessageFailed",
      "type": "event"
    },
    {
      "anonymous": false,
      "inputs": [
        {
          "indexed": true,
          "internalType": "address",
          "name": "previousOwner",
          "type": "address"
        },
        {
          "indexed": true,
          "internalType": "address",
          "name": "newOwner",
          "type": "address"
        }
      ],
      "name": "OwnershipTransferred",
      "type": "event"
    },
    {
      "anonymous": false,
      "inputs": [
        {
          "indexed": false,
          "internalType": "uint16",
          "name": "_srcChainId",
          "type": "uint16"
        },
        {
          "indexed": false,
          "internalType": "bytes",
          "name": "_srcAddress",
          "type": "bytes"
        },
        {
          "indexed": false,
          "internalType": "uint64",
          "name": "_nonce",
          "type": "uint64"
        },
        {
          "indexed": false,
          "internalType": "bytes32",
          "name": "_payloadHash",
          "type": "bytes32"
        }
      ],
      "name": "RetryMessageSuccess",
      "type": "event"
    },
    {
      "anonymous": false,
      "inputs": [
        {
          "indexed": false,
          "internalType": "uint16",
          "name": "_dstChainId",
          "type": "uint16"
        },
        {
          "indexed": false,
          "internalType": "uint16",
          "name": "_type",
          "type": "uint16"
        },
        {
          "indexed": false,
          "internalType": "uint256",
          "name": "_minDstGas",
          "type": "uint256"
        }
      ],
      "name": "SetMinDstGas",
      "type": "event"
    },
    {
      "anonymous": false,
      "inputs": [
        {
          "indexed": false,
          "internalType": "address",
          "name": "precrime",
          "type": "address"
        }
      ],
      "name": "SetPrecrime",
      "type": "event"
    },
    {
      "anonymous": false,
      "inputs": [
        {
          "indexed": false,
          "internalType": "uint16",
          "name": "_remoteChainId",
          "type": "uint16"
        },
        {
          "indexed": false,
          "internalType": "bytes",
          "name": "_path",
          "type": "bytes"
        }
      ],
      "name": "SetTrustedRemote",
      "type": "event"
    },
    {
      "anonymous": false,
      "inputs": [
        {
          "indexed": false,
          "internalType": "uint16",
          "name": "_remoteChainId",
          "type": "uint16"
        },
        {
          "indexed": false,
          "internalType": "bytes",
          "name": "_remoteAddress",
          "type": "bytes"
        }
      ],
      "name": "SetTrustedRemoteAddress",
      "type": "event"
    },
    {
      "anonymous": false,
      "inputs": [
        {
          "indexed": true,
          "internalType": "address",
          "name": "token",
          "type": "address"
        },
        {
          "indexed": false,
          "internalType": "uint256",
          "name": "amount",
          "type": "uint256"
        },
        {
          "indexed": false,
          "internalType": "address",
          "name": "sender",
          "type": "address"
        }
      ],
      "name": "SgReceived",
      "type": "event"
    },
    {
      "anonymous": false,
      "inputs": [
        {
          "indexed": false,
          "internalType": "address",
          "name": "newStrategy",
          "type": "address"
        }
      ],
      "name": "StrategyMigrated",
      "type": "event"
    },
    {
      "anonymous": false,
      "inputs": [
        {
          "indexed": false,
          "internalType": "uint256",
          "name": "profit",
          "type": "uint256"
        },
        {
          "indexed": false,
          "internalType": "uint256",
          "name": "loss",
          "type": "uint256"
        },
        {
          "indexed": false,
          "internalType": "uint256",
          "name": "debtPayment",
          "type": "uint256"
        },
        {
          "indexed": false,
          "internalType": "uint256",
          "name": "giveToStrategy",
          "type": "uint256"
        },
        {
          "indexed": false,
          "internalType": "uint256",
          "name": "requestFromStrategy",
          "type": "uint256"
        },
        {
          "indexed": false,
          "internalType": "uint256",
          "name": "creditAvailable",
          "type": "uint256"
        },
        {
          "indexed": false,
          "internalType": "uint256",
          "name": "totalAssets",
          "type": "uint256"
        }
      ],
      "name": "StrategyReported",
      "type": "event"
    },
    {
      "inputs": [],
      "name": "DEFAULT_PAYLOAD_SIZE_LIMIT",
      "outputs": [
        {
          "internalType": "uint256",
          "name": "",
          "type": "uint256"
        }
      ],
      "stateMutability": "view",
      "type": "function"
    },
    {
      "inputs": [],
      "name": "DEFAULT_SLIPPAGE",
      "outputs": [
        {
          "internalType": "uint256",
          "name": "",
          "type": "uint256"
        }
      ],
      "stateMutability": "view",
      "type": "function"
    },
    {
      "inputs": [
        {
          "internalType": "uint256",
          "name": "_debtOutstanding",
          "type": "uint256"
        }
      ],
      "name": "adjustPosition",
      "outputs": [],
      "stateMutability": "nonpayable",
      "type": "function"
    },
    {
      "inputs": [],
      "name": "balanceOfLpStaked",
      "outputs": [
        {
          "internalType": "uint256",
          "name": "",
          "type": "uint256"
        }
      ],
      "stateMutability": "view",
      "type": "function"
    },
    {
      "inputs": [],
      "name": "balanceOfPearlRewards",
      "outputs": [
        {
          "internalType": "uint256",
          "name": "",
          "type": "uint256"
        }
      ],
      "stateMutability": "view",
      "type": "function"
    },
    {
      "inputs": [],
      "name": "balanceOfWant",
      "outputs": [
        {
          "internalType": "uint256",
          "name": "",
          "type": "uint256"
        }
      ],
      "stateMutability": "view",
      "type": "function"
    },
    {
      "inputs": [
        {
          "internalType": "uint256",
          "name": "epoch",
          "type": "uint256"
        }
      ],
      "name": "callMe",
      "outputs": [],
      "stateMutability": "nonpayable",
      "type": "function"
    },
    {
      "inputs": [],
      "name": "clearWant",
      "outputs": [],
      "stateMutability": "nonpayable",
      "type": "function"
    },
    {
      "inputs": [],
      "name": "currentChainId",
      "outputs": [
        {
          "internalType": "uint16",
          "name": "",
          "type": "uint16"
        }
      ],
      "stateMutability": "view",
      "type": "function"
    },
    {
      "inputs": [
        {
          "internalType": "uint256",
          "name": "_daiAmount",
          "type": "uint256"
        }
      ],
      "name": "daiToWant",
      "outputs": [
        {
          "internalType": "uint256",
          "name": "",
          "type": "uint256"
        }
      ],
      "stateMutability": "view",
      "type": "function"
    },
    {
      "inputs": [],
      "name": "emergencyExit",
      "outputs": [
        {
          "internalType": "bool",
          "name": "",
          "type": "bool"
        }
      ],
      "stateMutability": "view",
      "type": "function"
    },
    {
      "inputs": [],
      "name": "estimatedTotalAssets",
      "outputs": [
        {
          "internalType": "uint256",
          "name": "",
          "type": "uint256"
        }
      ],
      "stateMutability": "view",
      "type": "function"
    },
    {
      "inputs": [
        {
          "internalType": "uint16",
          "name": "",
          "type": "uint16"
        },
        {
          "internalType": "bytes",
          "name": "",
          "type": "bytes"
        },
        {
          "internalType": "uint64",
          "name": "",
          "type": "uint64"
        }
      ],
      "name": "failedMessages",
      "outputs": [
        {
          "internalType": "bytes32",
          "name": "",
          "type": "bytes32"
        }
      ],
      "stateMutability": "view",
      "type": "function"
    },
    {
      "inputs": [
        {
          "internalType": "uint16",
          "name": "_srcChainId",
          "type": "uint16"
        },
        {
          "internalType": "bytes",
          "name": "_srcAddress",
          "type": "bytes"
        }
      ],
      "name": "forceResumeReceive",
      "outputs": [],
      "stateMutability": "nonpayable",
      "type": "function"
    },
    {
      "inputs": [
        {
          "internalType": "uint16",
          "name": "_version",
          "type": "uint16"
        },
        {
          "internalType": "uint16",
          "name": "_chainId",
          "type": "uint16"
        },
        {
          "internalType": "address",
          "name": "",
          "type": "address"
        },
        {
          "internalType": "uint256",
          "name": "_configType",
          "type": "uint256"
        }
      ],
      "name": "getConfig",
      "outputs": [
        {
          "internalType": "bytes",
          "name": "",
          "type": "bytes"
        }
      ],
      "stateMutability": "view",
      "type": "function"
    },
    {
      "inputs": [
        {
          "internalType": "bytes32",
          "name": "_messageHash",
          "type": "bytes32"
        }
      ],
      "name": "getEthSignedMessageHash",
      "outputs": [
        {
          "internalType": "bytes32",
          "name": "",
          "type": "bytes32"
        }
      ],
      "stateMutability": "pure",
      "type": "function"
    },
    {
      "inputs": [
        {
          "internalType": "uint16",
          "name": "_remoteChainId",
          "type": "uint16"
        }
      ],
      "name": "getTrustedRemoteAddress",
      "outputs": [
        {
          "internalType": "bytes",
          "name": "",
          "type": "bytes"
        }
      ],
      "stateMutability": "view",
      "type": "function"
    },
    {
      "inputs": [
        {
          "internalType": "uint256",
          "name": "_totalDebt",
          "type": "uint256"
        },
        {
          "internalType": "uint256",
          "name": "_debtOutstanding",
          "type": "uint256"
        },
        {
          "internalType": "uint256",
          "name": "_creditAvailable",
          "type": "uint256"
        },
        {
          "internalType": "uint256",
          "name": "_debtRatio",
          "type": "uint256"
        },
        {
          "internalType": "bytes",
          "name": "_signature",
          "type": "bytes"
        }
      ],
      "name": "harvest",
      "outputs": [],
      "stateMutability": "nonpayable",
      "type": "function"
    },
    {
      "inputs": [
        {
          "internalType": "address",
          "name": "_lzEndpoint",
          "type": "address"
        },
        {
          "internalType": "address",
          "name": "_strategist",
          "type": "address"
        },
        {
          "internalType": "contract IERC20",
          "name": "_want",
          "type": "address"
        },
        {
          "internalType": "address",
          "name": "_vault",
          "type": "address"
        },
        {
          "internalType": "uint16",
          "name": "_vaultChainId",
          "type": "uint16"
        },
        {
          "internalType": "uint16",
          "name": "_currentChainId",
          "type": "uint16"
        },
        {
          "internalType": "address",
          "name": "_sgBridge",
          "type": "address"
        },
        {
          "internalType": "address",
          "name": "_router",
          "type": "address"
        }
      ],
      "name": "initialize",
      "outputs": [],
      "stateMutability": "nonpayable",
      "type": "function"
    },
    {
      "inputs": [
        {
          "internalType": "uint16",
          "name": "_srcChainId",
          "type": "uint16"
        },
        {
          "internalType": "bytes",
          "name": "_srcAddress",
          "type": "bytes"
        }
      ],
      "name": "isTrustedRemote",
      "outputs": [
        {
          "internalType": "bool",
          "name": "",
          "type": "bool"
        }
      ],
      "stateMutability": "view",
      "type": "function"
    },
    {
      "inputs": [],
      "name": "lzEndpoint",
      "outputs": [
        {
          "internalType": "contract ILayerZeroEndpointUpgradeable",
          "name": "",
          "type": "address"
        }
      ],
      "stateMutability": "view",
      "type": "function"
    },
    {
      "inputs": [
        {
          "internalType": "uint16",
          "name": "_srcChainId",
          "type": "uint16"
        },
        {
          "internalType": "bytes",
          "name": "_srcAddress",
          "type": "bytes"
        },
        {
          "internalType": "uint64",
          "name": "_nonce",
          "type": "uint64"
        },
        {
          "internalType": "bytes",
          "name": "_payload",
          "type": "bytes"
        }
      ],
      "name": "lzReceive",
      "outputs": [],
      "stateMutability": "nonpayable",
      "type": "function"
    },
    {
      "inputs": [
        {
          "internalType": "uint16",
          "name": "",
          "type": "uint16"
        },
        {
          "internalType": "uint16",
          "name": "",
          "type": "uint16"
        }
      ],
      "name": "minDstGasLookup",
      "outputs": [
        {
          "internalType": "uint256",
          "name": "",
          "type": "uint256"
        }
      ],
      "stateMutability": "view",
      "type": "function"
    },
    {
      "inputs": [],
      "name": "name",
      "outputs": [
        {
          "internalType": "string",
          "name": "",
          "type": "string"
        }
      ],
      "stateMutability": "pure",
      "type": "function"
    },
    {
      "inputs": [
        {
          "internalType": "uint16",
          "name": "_srcChainId",
          "type": "uint16"
        },
        {
          "internalType": "bytes",
          "name": "_srcAddress",
          "type": "bytes"
        },
        {
          "internalType": "uint64",
          "name": "_nonce",
          "type": "uint64"
        },
        {
          "internalType": "bytes",
          "name": "_payload",
          "type": "bytes"
        }
      ],
      "name": "nonblockingLzReceive",
      "outputs": [],
      "stateMutability": "nonpayable",
      "type": "function"
    },
    {
      "inputs": [],
      "name": "owner",
      "outputs": [
        {
          "internalType": "address",
          "name": "",
          "type": "address"
        }
      ],
      "stateMutability": "view",
      "type": "function"
    },
    {
      "inputs": [
        {
          "internalType": "uint16",
          "name": "",
          "type": "uint16"
        }
      ],
      "name": "payloadSizeLimitLookup",
      "outputs": [
        {
          "internalType": "uint256",
          "name": "",
          "type": "uint256"
        }
      ],
      "stateMutability": "view",
      "type": "function"
    },
    {
      "inputs": [
        {
          "internalType": "uint256",
          "name": "_pearlAmount",
          "type": "uint256"
        }
      ],
      "name": "pearlToWant",
      "outputs": [
        {
          "internalType": "uint256",
          "name": "",
          "type": "uint256"
        }
      ],
      "stateMutability": "view",
      "type": "function"
    },
    {
      "inputs": [],
      "name": "precrime",
      "outputs": [
        {
          "internalType": "address",
          "name": "",
          "type": "address"
        }
      ],
      "stateMutability": "view",
      "type": "function"
    },
    {
      "inputs": [],
      "name": "renounceOwnership",
      "outputs": [],
      "stateMutability": "nonpayable",
      "type": "function"
    },
    {
      "inputs": [
        {
          "internalType": "uint16",
          "name": "_srcChainId",
          "type": "uint16"
        },
        {
          "internalType": "bytes",
          "name": "_srcAddress",
          "type": "bytes"
        },
        {
          "internalType": "uint64",
          "name": "_nonce",
          "type": "uint64"
        },
        {
          "internalType": "bytes",
          "name": "_payload",
          "type": "bytes"
        }
      ],
      "name": "retryMessage",
      "outputs": [],
      "stateMutability": "payable",
      "type": "function"
    },
    {
      "inputs": [],
      "name": "revokeFunds",
      "outputs": [],
      "stateMutability": "nonpayable",
      "type": "function"
    },
    {
      "inputs": [
        {
          "internalType": "uint16",
          "name": "_version",
          "type": "uint16"
        },
        {
          "internalType": "uint16",
          "name": "_chainId",
          "type": "uint16"
        },
        {
          "internalType": "uint256",
          "name": "_configType",
          "type": "uint256"
        },
        {
          "internalType": "bytes",
          "name": "_config",
          "type": "bytes"
        }
      ],
      "name": "setConfig",
      "outputs": [],
      "stateMutability": "nonpayable",
      "type": "function"
    },
    {
      "inputs": [
        {
          "internalType": "bool",
          "name": "_emergencyExit",
          "type": "bool"
        }
      ],
      "name": "setEmergencyExit",
      "outputs": [],
      "stateMutability": "nonpayable",
      "type": "function"
    },
    {
      "inputs": [
        {
          "internalType": "uint16",
          "name": "_dstChainId",
          "type": "uint16"
        },
        {
          "internalType": "uint16",
          "name": "_packetType",
          "type": "uint16"
        },
        {
          "internalType": "uint256",
          "name": "_minGas",
          "type": "uint256"
        }
      ],
      "name": "setMinDstGas",
      "outputs": [],
      "stateMutability": "nonpayable",
      "type": "function"
    },
    {
      "inputs": [
        {
          "internalType": "uint16",
          "name": "_dstChainId",
          "type": "uint16"
        },
        {
          "internalType": "uint256",
          "name": "_size",
          "type": "uint256"
        }
      ],
      "name": "setPayloadSizeLimit",
      "outputs": [],
      "stateMutability": "nonpayable",
      "type": "function"
    },
    {
      "inputs": [
        {
          "internalType": "address",
          "name": "_precrime",
          "type": "address"
        }
      ],
      "name": "setPrecrime",
      "outputs": [],
      "stateMutability": "nonpayable",
      "type": "function"
    },
    {
      "inputs": [
        {
          "internalType": "uint16",
          "name": "_version",
          "type": "uint16"
        }
      ],
      "name": "setReceiveVersion",
      "outputs": [],
      "stateMutability": "nonpayable",
      "type": "function"
    },
    {
      "inputs": [
        {
          "internalType": "uint16",
          "name": "_version",
          "type": "uint16"
        }
      ],
      "name": "setSendVersion",
      "outputs": [],
      "stateMutability": "nonpayable",
      "type": "function"
    },
    {
      "inputs": [
        {
          "internalType": "uint256",
          "name": "_slippage",
          "type": "uint256"
        }
      ],
      "name": "setSlippage",
      "outputs": [],
      "stateMutability": "nonpayable",
      "type": "function"
    },
    {
      "inputs": [
        {
          "internalType": "address",
          "name": "_strategist",
          "type": "address"
        }
      ],
      "name": "setStrategist",
      "outputs": [],
      "stateMutability": "nonpayable",
      "type": "function"
    },
    {
      "inputs": [
        {
          "internalType": "uint16",
          "name": "_srcChainId",
          "type": "uint16"
        },
        {
          "internalType": "bytes",
          "name": "_path",
          "type": "bytes"
        }
      ],
      "name": "setTrustedRemote",
      "outputs": [],
      "stateMutability": "nonpayable",
      "type": "function"
    },
    {
      "inputs": [
        {
          "internalType": "uint16",
          "name": "_remoteChainId",
          "type": "uint16"
        },
        {
          "internalType": "bytes",
          "name": "_remoteAddress",
          "type": "bytes"
        }
      ],
      "name": "setTrustedRemoteAddress",
      "outputs": [],
      "stateMutability": "nonpayable",
      "type": "function"
    },
    {
      "inputs": [],
      "name": "sgBridge",
      "outputs": [
        {
          "internalType": "contract ISgBridge",
          "name": "",
          "type": "address"
        }
      ],
      "stateMutability": "view",
      "type": "function"
    },
    {
      "inputs": [
        {
          "internalType": "uint16",
          "name": "",
          "type": "uint16"
        },
        {
          "internalType": "bytes",
          "name": "_srcAddress",
          "type": "bytes"
        },
        {
          "internalType": "uint256",
          "name": "",
          "type": "uint256"
        },
        {
          "internalType": "address",
          "name": "_token",
          "type": "address"
        },
        {
          "internalType": "uint256",
          "name": "_amountLD",
          "type": "uint256"
        },
        {
          "internalType": "bytes",
          "name": "",
          "type": "bytes"
        }
      ],
      "name": "sgReceive",
      "outputs": [],
      "stateMutability": "nonpayable",
      "type": "function"
    },
    {
      "inputs": [],
      "name": "sgRouter",
      "outputs": [
        {
          "internalType": "contract IStargateRouter",
          "name": "",
          "type": "address"
        }
      ],
      "stateMutability": "view",
      "type": "function"
    },
    {
      "inputs": [],
      "name": "slippage",
      "outputs": [
        {
          "internalType": "uint256",
          "name": "",
          "type": "uint256"
        }
      ],
      "stateMutability": "view",
      "type": "function"
    },
    {
      "inputs": [],
      "name": "strategist",
      "outputs": [
        {
          "internalType": "address",
          "name": "",
          "type": "address"
        }
      ],
      "stateMutability": "view",
      "type": "function"
    },
    {
      "inputs": [],
      "name": "strategistSignMessageHash",
      "outputs": [
        {
          "internalType": "bytes32",
          "name": "",
          "type": "bytes32"
        }
      ],
      "stateMutability": "view",
      "type": "function"
    },
    {
      "inputs": [
        {
          "internalType": "contract IERC20",
          "name": "_token",
          "type": "address"
        }
      ],
      "name": "sweepToken",
      "outputs": [],
      "stateMutability": "nonpayable",
      "type": "function"
    },
    {
      "inputs": [
        {
          "internalType": "address",
          "name": "newOwner",
          "type": "address"
        }
      ],
      "name": "transferOwnership",
      "outputs": [],
      "stateMutability": "nonpayable",
      "type": "function"
    },
    {
      "inputs": [
        {
          "internalType": "uint16",
          "name": "",
          "type": "uint16"
        }
      ],
      "name": "trustedRemoteLookup",
      "outputs": [
        {
          "internalType": "bytes",
          "name": "",
          "type": "bytes"
        }
      ],
      "stateMutability": "view",
      "type": "function"
    },
    {
      "inputs": [
        {
          "internalType": "uint256",
          "name": "_usdrLpAmount",
          "type": "uint256"
        }
      ],
      "name": "usdrLpToWant",
      "outputs": [
        {
          "internalType": "uint256",
          "name": "",
          "type": "uint256"
        }
      ],
      "stateMutability": "view",
      "type": "function"
    },
    {
      "inputs": [],
      "name": "usdrToUsdcRate",
      "outputs": [
        {
          "internalType": "uint256",
          "name": "",
          "type": "uint256"
        }
      ],
      "stateMutability": "view",
      "type": "function"
    },
    {
      "inputs": [
        {
          "internalType": "uint256",
          "name": "_usdrAmount",
          "type": "uint256"
        }
      ],
      "name": "usdrToWant",
      "outputs": [
        {
          "internalType": "uint256",
          "name": "",
          "type": "uint256"
        }
      ],
      "stateMutability": "view",
      "type": "function"
    },
    {
      "inputs": [],
      "name": "vault",
      "outputs": [
        {
          "internalType": "address",
          "name": "",
          "type": "address"
        }
      ],
      "stateMutability": "view",
      "type": "function"
    },
    {
      "inputs": [],
      "name": "vaultChainId",
      "outputs": [
        {
          "internalType": "uint16",
          "name": "",
          "type": "uint16"
        }
      ],
      "stateMutability": "view",
      "type": "function"
    },
    {
      "inputs": [],
      "name": "want",
      "outputs": [
        {
          "internalType": "contract IERC20",
          "name": "",
          "type": "address"
        }
      ],
      "stateMutability": "view",
      "type": "function"
    },
    {
      "inputs": [],
      "name": "wantDecimals",
      "outputs": [
        {
          "internalType": "uint8",
          "name": "",
          "type": "uint8"
        }
      ],
      "stateMutability": "view",
      "type": "function"
    },
    {
      "inputs": [
        {
          "internalType": "uint256",
          "name": "_wantAmount",
          "type": "uint256"
        }
      ],
      "name": "wantToUsdrLp",
      "outputs": [
        {
          "internalType": "uint256",
          "name": "",
          "type": "uint256"
        }
      ],
      "stateMutability": "view",
      "type": "function"
    },
    {
      "stateMutability": "payable",
      "type": "receive"
    }
  ],
  "bytecode": "0x608060405234801561001057600080fd5b50615e5580620000216000396000f3fe6080604052600436106102aa5760003560e01c80621d3567146102b65780630517cb76146102d857806306fdde031461030e57806307e0db171461034d5780630df374831461036d57806310ddb1371461038d5780631be19560146103ad5780631cdb539f146103cd5780631f1fcd51146103ed5780631fe4a6861461040d5780632d6068431461042d57806337fded91146104425780633d3ccc2f146104675780633d8b38f6146104875780633e032a3b146104b75780633eae1112146104db5780633f1f4fa4146104fb57806342d65a8d1461052857806345ee075514610548578063495f881e146105685780635641ec0314610588578063567ad85d146105a2578063593178de146105d75780635b8c41e6146105ec57806366ad5c8a1461063b5780636cbadbfa1461065b578063715018a61461067d5780637533d788146106925780638cfd8f5c146106b25780638da5cb5b146106ea5780638f4508d0146106ff578063950c8a74146107145780639589c990146107345780639606647d146107545780639f38369a14610769578063a6c3d16514610789578063a8798510146107a9578063a9e50824146107bf578063ab8236f3146107df578063adf076e6146107ff578063b353aaa714610832578063baf3292d14610852578063bd79ac1314610872578063c1a3d44c14610892578063c4461834146108a7578063c7b9d530146108bd578063ca2e2835146108dd578063cbed8b9c146108f2578063d1deba1f14610912578063d56739ac14610925578063df2a5b3b1461093a578063e73620c31461095a578063eb8d72b71461097a578063efbb5cb01461099a578063f0fa55a9146109af578063f2fde38b146109cf578063f5ecbdbc146109ef578063fa54080114610a0f578063fbfa77cf14610a2f578063fcb988a414610a4f57600080fd5b366102b157005b600080fd5b3480156102c257600080fd5b506102d66102d1366004614aff565b610a6f565b005b3480156102e457600080fd5b5060ce546102f8906001600160a01b031681565b6040516103059190614b92565b60405180910390f35b34801561031a57600080fd5b5060408051808201909152600d81526c506561726c537472617465677960981b60208201525b6040516103059190614bf6565b34801561035957600080fd5b506102d6610368366004614c09565b610b58565b34801561037957600080fd5b506102d6610388366004614c24565b610bc5565b34801561039957600080fd5b506102d66103a8366004614c09565b610be4565b3480156103b957600080fd5b506102d66103c8366004614c63565b610c20565b3480156103d957600080fd5b506102d66103e8366004614c80565b610cad565b3480156103f957600080fd5b5060ca546102f8906001600160a01b031681565b34801561041957600080fd5b5060c9546102f8906001600160a01b031681565b34801561043957600080fd5b506102d6610f11565b34801561044e57600080fd5b5060cd546102f89061010090046001600160a01b031681565b34801561047357600080fd5b506102d6610482366004614d32565b610f52565b34801561049357600080fd5b506104a76104a2366004614d4b565b610f88565b6040519015158152602001610305565b3480156104c357600080fd5b506104cd60cc5481565b604051908152602001610305565b3480156104e757600080fd5b506104cd6104f6366004614d32565b611055565b34801561050757600080fd5b506104cd610516366004614c09565b60686020526000908152604090205481565b34801561053457600080fd5b506102d6610543366004614d4b565b6110e3565b34801561055457600080fd5b506102d6610563366004614dab565b611156565b34801561057457600080fd5b506102d6610583366004614eb3565b611171565b34801561059457600080fd5b5060cd546104a79060ff1681565b3480156105ae57600080fd5b5060cb546105c490600160a01b900461ffff1681565b60405161ffff9091168152602001610305565b3480156105e357600080fd5b506104cd611415565b3480156105f857600080fd5b506104cd610607366004614f16565b6097602090815260009384526040808520845180860184018051928152908401958401959095209452929052825290205481565b34801561064757600080fd5b506102d6610656366004614aff565b611473565b34801561066757600080fd5b5060cb546105c490600160b01b900461ffff1681565b34801561068957600080fd5b506102d6611547565b34801561069e57600080fd5b506103406106ad366004614c09565b61155b565b3480156106be57600080fd5b506104cd6106cd366004614f73565b606760209081526000928352604080842090915290825290205481565b3480156106f657600080fd5b506102f86115f5565b34801561070b57600080fd5b506104cd611604565b34801561072057600080fd5b506069546102f8906001600160a01b031681565b34801561074057600080fd5b506104cd61074f366004614d32565b61167e565b34801561076057600080fd5b506102d6611716565b34801561077557600080fd5b50610340610784366004614c09565b6117a9565b34801561079557600080fd5b506102d66107a4366004614d4b565b6118b8565b3480156107b557600080fd5b506104cd61264881565b3480156107cb57600080fd5b506104cd6107da366004614d32565b611941565b3480156107eb57600080fd5b506102d66107fa366004614fa6565b6119fa565b34801561080b57600080fd5b5060cb5461082090600160c01b900460ff1681565b60405160ff9091168152602001610305565b34801561083e57600080fd5b506065546102f8906001600160a01b031681565b34801561085e57600080fd5b506102d661086d366004614c63565b611af4565b34801561087e57600080fd5b506104cd61088d366004614d32565b611b47565b34801561089e57600080fd5b506104cd611b9f565b3480156108b357600080fd5b506104cd61271081565b3480156108c957600080fd5b506102d66108d8366004614c63565b611bd0565b3480156108e957600080fd5b506104cd611bfa565b3480156108fe57600080fd5b506102d661090d366004615040565b611cde565b6102d6610920366004614aff565b611d4c565b34801561093157600080fd5b506104cd611f62565b34801561094657600080fd5b506102d66109553660046150ae565b611f94565b34801561096657600080fd5b506102d6610975366004614d32565b612046565b34801561098657600080fd5b506102d6610995366004614d4b565b612066565b3480156109a657600080fd5b506104cd6120c0565b3480156109bb57600080fd5b506102d66109ca366004614d32565b6121da565b3480156109db57600080fd5b506102d66109ea366004614c63565b6121e7565b3480156109fb57600080fd5b50610340610a0a3660046150ea565b61225d565b348015610a1b57600080fd5b506104cd610a2a366004614d32565b6122f0565b348015610a3b57600080fd5b5060cb546102f8906001600160a01b031681565b348015610a5b57600080fd5b506104cd610a6a366004614d32565b612342565b6065546001600160a01b03163314610ada5760405162461bcd60e51b815260206004820152602360248201527f4261736553747261746567793a3a496e76616c6964456e64706f696e7443616c6044820152623632b960e91b60648201526084015b60405180910390fd5b610b508686868080601f01602080910402602001604051908101604052809392919081815260200183838082843760009201919091525050604080516020601f8901819004810282018101909252878152899350915087908790819084018382808284376000920191909152506123ea92505050565b505050505050565b610b60612463565b6065546040516307e0db1760e01b815261ffff831660048201526001600160a01b03909116906307e0db17906024015b600060405180830381600087803b158015610baa57600080fd5b505af1158015610bbe573d6000803e3d6000fd5b5050505050565b610bcd612463565b61ffff909116600090815260686020526040902055565b610bec612463565b6065546040516310ddb13760e01b815261ffff831660048201526001600160a01b03909116906310ddb13790602401610b90565b610c286124c2565b610caa33826001600160a01b03166370a08231306040518263ffffffff1660e01b8152600401610c589190614b92565b602060405180830381865afa158015610c75573d6000803e3d6000fd5b505050506040513d601f19601f82011682018060405250810190610c999190615137565b6001600160a01b038416919061251b565b50565b600054610100900460ff1615808015610ccd5750600054600160ff909116105b80610cee5750610cdc30612576565b158015610cee575060005460ff166001145b610d515760405162461bcd60e51b815260206004820152602e60248201527f496e697469616c697a61626c653a20636f6e747261637420697320616c72656160448201526d191e481a5b9a5d1a585b1a5e995960921b6064820152608401610ad1565b6000805460ff191660011790558015610d74576000805461ff0019166101001790555b610d878989898989898989612648612585565b60ca54610db4906001600160a01b03167368b3465833fb72a70ecdf485e0e4c7bd8665fc45600019612764565b60ca54610ddb906001600160a01b0316600080516020615d80833981519152600019612764565b610e04600080516020615de0833981519152600080516020615d80833981519152600019612764565b610e3373d17cb0f162f133e339c0bbfc18c36c357e681d6b600080516020615da0833981519152600019612764565b610e6273d17cb0f162f133e339c0bbfc18c36c357e681d6b600080516020615d80833981519152600019612764565b610e97738f3cf7ad23cd3cadbd9735aff958023239c6a06373195f7b233947d51f4c3b756ad41a5ddb34cebce0600019612764565b610ec0600080516020615dc0833981519152600080516020615d80833981519152600019612764565b8015610f06576000805461ff0019169055604051600181527f7f26b83ff96e1f2b6a682f133852f6798a09c465da95921460cefb38474024989060200160405180910390a15b505050505050505050565b610f196124c2565b60c9546040516001600160a01b03909116904780156108fc02916000818181858888f19350505050158015610caa573d6000803e3d6000fd5b610f5a6124c2565b610f6381612868565b604051818152600080516020615e00833981519152906020015b60405180910390a150565b61ffff831660009081526066602052604081208054829190610fa990615150565b80601f0160208091040260200160405190810160405280929190818152602001828054610fd590615150565b80156110225780601f10610ff757610100808354040283529160200191611022565b820191906000526020600020905b81548152906001019060200180831161100557829003601f168201915b50505050509050838360405161103992919061518a565b60405180910390208180519060200120149150505b9392505050565b60006110dd82600080516020615de08339815191526001600160a01b031663313ce5676040518163ffffffff1660e01b8152600401602060405180830381865afa1580156110a7573d6000803e3d6000fd5b505050506040513d601f19601f820116820180604052508101906110cb919061519a565b60cb54600160c01b900460ff16612f85565b92915050565b6110eb612463565b6065546040516342d65a8d60e01b81526001600160a01b03909116906342d65a8d9061111f908690869086906004016151e6565b600060405180830381600087803b15801561113957600080fd5b505af115801561114d573d6000803e3d6000fd5b50505050505050565b61115e6124c2565b60cd805460ff1916911515919091179055565b6111796124c2565b61118281612fda565b60cd546000908190819060ff161561122e5784156111e25760405162461bcd60e51b815260206004820152601e60248201527f4261736553747261746567793a3a44656274526174696f4e6f745a65726f00006044820152606401610ad1565b60006111ec613060565b90508781101561120757611200818961521a565b925061121c565b8781111561121c57611219888261521a565b93505b611226838961521a565b915050611240565b61123888886130a2565b919450925090505b600061124c828561522d565b90506000808883101561126e57611263838a61521a565b91506000905061127f565b6000915061127c898461521a565b90505b6000604051806101600160405280306001600160a01b031681526020014281526020018881526020018781526020018681526020018481526020018381526020018b8152602001836112cf6120c0565b6112d9919061521a565b815260200160d060008154809291906112f190615240565b909155508152602001899052905081156113515760cb5460405161134c91849161ffff600160a01b830416916001600160a01b031690611338906002908790602001615291565b604051602081830303815290604052613199565b61137c565b61137c600282604051602001611368929190615291565b604051602081830303815290604052613287565b7fb983e09c034e9c52b5e547cb0589967992b97717733f580cc5ad0afcdc4b522b8160400151826060015183608001518460a001518560c001518660e001518761010001516040516113ff9796959493929190968752602087019590955260408601939093526060850191909152608084015260a083015260c082015260e00190565b60405180910390a1505050505050505050505050565b60d05460cb546040513060601b6001600160601b03191660208201526034810192909252600160b01b900460f01b6001600160f01b031916605482015260009060560160405160208183030381529060405280519060200120905090565b3330146114d15760405162461bcd60e51b815260206004820152602660248201527f4e6f6e626c6f636b696e674c7a4170703a2063616c6c6572206d7573742062656044820152650204c7a4170760d41b6064820152608401610ad1565b610b508686868080601f01602080910402602001604051908101604052809392919081815260200183838082843760009201919091525050604080516020601f89018190048102820181019092528781528993509150879087908190840183828082843760009201919091525061340792505050565b61154f612463565b611559600061351d565b565b6066602052600090815260409020805461157490615150565b80601f01602080910402602001604051908101604052809291908181526020018280546115a090615150565b80156115ed5780601f106115c2576101008083540402835291602001916115ed565b820191906000526020600020905b8154815290600101906020018083116115d057829003601f168201915b505050505081565b6033546001600160a01b031690565b6040516370a0823160e01b8152600090600080516020615da0833981519152906370a0823190611638903090600401614b92565b602060405180830381865afa158015611655573d6000803e3d6000fd5b505050506040513d601f19601f820116820180604052508101906116799190615137565b905090565b6040516328bd9fc160e11b8152600090819073f68c20d6c50706f6c6bd8ee184382518c93b368c9063517b3f82906116ca90600080516020615dc083398151915290879060040161533c565b602060405180830381865afa1580156116e7573d6000803e3d6000fd5b505050506040513d601f19601f8201168201806040525081019061170b9190615137565b905061104e81611055565b61171e6124c2565b60ca546040516370a0823160e01b8152611559916001916001600160a01b03909116906370a0823190611755903090600401614b92565b602060405180830381865afa158015611772573d6000803e3d6000fd5b505050506040513d601f19601f820116820180604052508101906117969190615137565b60ca546001600160a01b0316919061251b565b61ffff81166000908152606660205260408120805460609291906117cc90615150565b80601f01602080910402602001604051908101604052809291908181526020018280546117f890615150565b80156118455780601f1061181a57610100808354040283529160200191611845565b820191906000526020600020905b81548152906001019060200180831161182857829003601f168201915b50505050509050805160000361189d5760405162461bcd60e51b815260206004820152601d60248201527f4c7a4170703a206e6f20747275737465642070617468207265636f72640000006044820152606401610ad1565b61104e6000601483516118b0919061521a565b83919061356f565b6118c0612463565b8181306040516020016118d593929190615355565b60408051601f1981840301815291815261ffff851660009081526066602052209061190090826153d1565b507f8c0400cfe2d1199b1a725c78960bcc2a344d869b80590d0f2bd005db15a572ce838383604051611934939291906151e6565b60405180910390a1505050565b60ca546040516310e1b98f60e21b815260009182918291600080516020615d8083398151915291634386e63c9161199b916001600160a01b0390911690600080516020615de0833981519152906001908a9060040161548a565b6040805180830381865afa1580156119b7573d6000803e3d6000fd5b505050506040513d601f19601f820116820180604052508101906119db91906154b5565b915091506119e881611055565b6119f2908361522d565b949350505050565b60ce546001600160a01b0316331480611a22575060cd5461010090046001600160a01b031633145b611a6d5760405162461bcd60e51b815260206004820152601c60248201527b53674272696467653a3a526f757465724f724272696467654f6e6c7960201b6044820152606401610ad1565b6000611a7b8682601461356f565b604051602001611a8b91906154d9565b604051602081830303815290604052611aa3906154f5565b60601c9050836001600160a01b03167f92073a89a07a000083eb8b2575fc15e7bb936efe55d00727d6942a796d7211a78483604051611ae392919061552c565b60405180910390a250505050505050565b611afc612463565b606980546001600160a01b0319166001600160a01b0383161790556040517f5db758e995a17ec1ad84bdef7e8c3293a0bd6179bcce400dff5d4c3d87db726b90610f7d908390614b92565b60006110dd82738f3cf7ad23cd3cadbd9735aff958023239c6a0636001600160a01b031663313ce5676040518163ffffffff1660e01b8152600401602060405180830381865afa1580156110a7573d6000803e3d6000fd5b60ca546040516370a0823160e01b81526000916001600160a01b0316906370a0823190611638903090600401614b92565b611bd8612463565b60c980546001600160a01b0319166001600160a01b0392909216919091179055565b600080600073d17cb0f162f133e339c0bbfc18c36c357e681d6b6001600160a01b0316630902f1ac6040518163ffffffff1660e01b8152600401606060405180830381865afa158015611c51573d6000803e3d6000fd5b505050506040513d601f19601f82011682018060405250810190611c759190615543565b5060ca549193509150600090611ca5908390600080516020615de0833981519152906001600160a01b031661367c565b60cb549091508190611cc290600160c01b900460ff16600a615655565b611ccc9085615664565b611cd6919061567b565b935050505090565b611ce6612463565b6065546040516332fb62e760e21b81526001600160a01b039091169063cbed8b9c90611d1e908890889088908890889060040161569d565b600060405180830381600087803b158015611d3857600080fd5b505af1158015610f06573d6000803e3d6000fd5b61ffff86166000908152609760205260408082209051611d6f908890889061518a565b90815260408051602092819003830190206001600160401b03871660009081529252902054905080611def5760405162461bcd60e51b815260206004820152602360248201527f4e6f6e626c6f636b696e674c7a4170703a206e6f2073746f726564206d65737360448201526261676560e81b6064820152608401610ad1565b808383604051611e0092919061518a565b604051809103902014611e5f5760405162461bcd60e51b815260206004820152602160248201527f4e6f6e626c6f636b696e674c7a4170703a20696e76616c6964207061796c6f616044820152601960fa1b6064820152608401610ad1565b61ffff87166000908152609760205260408082209051611e82908990899061518a565b90815260408051602092819003830181206001600160401b038916600090815290845282902093909355601f88018290048202830182019052868252611f1a918991899089908190840183828082843760009201919091525050604080516020601f8a018190048102820181019092528881528a93509150889088908190840183828082843760009201919091525061340792505050565b7fc264d91f3adc5588250e1551f547752ca0cfa8f6b530d243b9f9f4cab10ea8e58787878785604051611f519594939291906156cb565b60405180910390a150505050505050565b6040516246613160e11b8152600090600080516020615da083398151915290628cc26290611638903090600401614b92565b611f9c612463565b60008111611fe45760405162461bcd60e51b81526020600482015260156024820152744c7a4170703a20696e76616c6964206d696e47617360581b6044820152606401610ad1565b61ffff83811660008181526067602090815260408083209487168084529482529182902085905581519283528201929092529081018290527f9d5c7c0b934da8fefa9c7760c98383778a12dfbfc0c3b3106518f43fb9508ac090606001611934565b61204e612463565b600090815260cf60205260409020805460ff19169055565b61206e612463565b61ffff8316600090815260666020526040902061208c828483615706565b507ffa41487ad5d6728f0b19276fa1eddc16558578f5109fc39d2dc33c3230470dab838383604051611934939291906151e6565b60006120cd6107da611604565b6040516370a0823160e01b815261215590600080516020615dc0833981519152906370a0823190612102903090600401614b92565b602060405180830381865afa15801561211f573d6000803e3d6000fd5b505050506040513d601f19601f820116820180604052508101906121439190615137565b61214b611f62565b61074f919061522d565b60ca546040516370a0823160e01b81526001600160a01b03909116906370a0823190612185903090600401614b92565b602060405180830381865afa1580156121a2573d6000803e3d6000fd5b505050506040513d601f19601f820116820180604052508101906121c69190615137565b6121d0919061522d565b611679919061522d565b6121e26124c2565b60cc55565b6121ef612463565b6001600160a01b0381166122545760405162461bcd60e51b815260206004820152602660248201527f4f776e61626c653a206e6577206f776e657220697320746865207a65726f206160448201526564647265737360d01b6064820152608401610ad1565b610caa8161351d565b606554604051633d7b2f6f60e21b815261ffff808716600483015285166024820152306044820152606481018390526060916001600160a01b03169063f5ecbdbc90608401600060405180830381865afa1580156122bf573d6000803e3d6000fd5b505050506040513d6000823e601f3d908101601f191682016040526122e791908101906157bf565b95945050505050565b6040517b0ca2ba3432b932bab69029b4b3b732b21026b2b9b9b0b3b29d05199960211b6020820152603c8101829052600090605c01604051602081830303815290604052805190602001209050919050565b60ca546040516326283ecf60e21b81526000918291600080516020615d80833981519152916398a0fb3c9161239c916001600160a01b031690600080516020615de08339815191529060019089906000199060040161582c565b606060405180830381865afa1580156123b9573d6000803e3d6000fd5b505050506040513d601f19601f820116820180604052508101906123dd9190615543565b9250505061104e81611941565b60008061244d5a60966366ad5c8a60e01b89898989604051602401612412949392919061585d565b60408051601f198184030181529190526020810180516001600160e01b03166001600160e01b0319909316929092179091523092919061375e565b9150915081610b5057610b5086868686856137ea565b3361246c6115f5565b6001600160a01b0316146115595760405162461bcd60e51b815260206004820181905260248201527f4f776e61626c653a2063616c6c6572206973206e6f7420746865206f776e65726044820152606401610ad1565b60c9546001600160a01b031633146115595760405162461bcd60e51b815260206004820152601c60248201527b10985cd954dd1c985d1959de4e8e93db9b1e54dd1c985d1959da5cdd60221b6044820152606401610ad1565b6125718363a9059cbb60e01b848460405160240161253a92919061533c565b60408051601f198184030181529190526020810180516001600160e01b03166001600160e01b031990931692909217909152613887565b505050565b6001600160a01b03163b151590565b600054610100900460ff166125ac5760405162461bcd60e51b8152600401610ad19061589b565b6125b58961395c565b60c980546001600160a01b03808b166001600160a01b03199283161790925560ca80548a8416908316811790915560cb8054938a1661ffff8a16600160a01b029093166001600160b01b0319909416939093179190911790915560cc8290556040805163313ce56760e01b8152905163313ce567916004808201926020929091908290030181865afa15801561264f573d6000803e3d6000fd5b505050506040513d601f19601f82011682018060405250810190612673919061519a565b60cb8054600060d05562ffffff60b01b1916600160c01b60ff939093169290920261ffff60b01b191691909117600160b01b61ffff87160217905560cd8054610100600160a81b0319166101006001600160a01b03868116919091029190911790915560ce80546001600160a01b03191684831617905560ca5460405163095ea7b360e01b815291169063095ea7b3906127159086906000199060040161533c565b6020604051808303816000875af1158015612734573d6000803e3d6000fd5b505050506040513d601f19601f8201168201806040525081019061275891906158e6565b50505050505050505050565b8015806127de5750604051636eb1769f60e11b81523060048201526001600160a01b03838116602483015284169063dd62ed3e90604401602060405180830381865afa1580156127b8573d6000803e3d6000fd5b505050506040513d601f19601f820116820180604052508101906127dc9190615137565b155b6128495760405162461bcd60e51b815260206004820152603660248201527f5361666545524332303a20617070726f76652066726f6d206e6f6e2d7a65726f60448201527520746f206e6f6e2d7a65726f20616c6c6f77616e636560501b6064820152608401610ad1565b6125718363095ea7b360e01b848460405160240161253a92919061533c565b600080516020615da08339815191526001600160a01b0316633d18b9126040518163ffffffff1660e01b8152600401600060405180830381600087803b1580156128b157600080fd5b505af11580156128c5573d6000803e3d6000fd5b50506040516370a0823160e01b81526129449250600080516020615dc083398151915291506370a08231906128fe903090600401614b92565b602060405180830381865afa15801561291b573d6000803e3d6000fd5b505050506040513d601f19601f8201168201806040525081019061293f9190615137565b613994565b60ca546040516370a0823160e01b81526000916001600160a01b0316906370a0823190612975903090600401614b92565b602060405180830381865afa158015612992573d6000803e3d6000fd5b505050506040513d601f19601f820116820180604052508101906129b69190615137565b905081811115612b6b5760006129cc838361521a565b905060006129db60028361567b565b90506000612a6e8260cb60189054906101000a900460ff16738f3cf7ad23cd3cadbd9735aff958023239c6a0636001600160a01b031663313ce5676040518163ffffffff1660e01b8152600401602060405180830381865afa158015612a45573d6000803e3d6000fd5b505050506040513d601f19601f82011682018060405250810190612a69919061519a565b612f85565b6040805160808101825260ca546001600160601b0319606091821b1660a0830152601960ea1b60b4830152738f3cf7ad23cd3cadbd9735aff958023239c6a06360601b60b7830152825160ab81840301815260cb830184528252306020830152918101859052919250600091908101612ae684613b2b565b905260405163b858183f60e01b81529091507368b3465833fb72a70ecdf485e0e4c7bd8665fc459063b858183f90612b22908490600401615903565b6020604051808303816000875af1158015612b41573d6000803e3d6000fd5b505050506040513d601f19601f82011682018060405250810190612b659190615137565b50505050505b6040516370a0823160e01b8152600090738f3cf7ad23cd3cadbd9735aff958023239c6a063906370a0823190612ba5903090600401614b92565b602060405180830381865afa158015612bc2573d6000803e3d6000fd5b505050506040513d601f19601f82011682018060405250810190612be69190615137565b90508015612c6c5760405163a39fc2c560e01b815273195f7b233947d51f4c3b756ad41a5ddb34cebce09063a39fc2c590612c27908490309060040161552c565b6020604051808303816000875af1158015612c46573d6000803e3d6000fd5b505050506040513d601f19601f82011682018060405250810190612c6a9190615137565b505b6040516370a0823160e01b8152600090600080516020615de0833981519152906370a0823190612ca0903090600401614b92565b602060405180830381865afa158015612cbd573d6000803e3d6000fd5b505050506040513d601f19601f82011682018060405250810190612ce19190615137565b60ca546040516370a0823160e01b81529192506001600160a01b0316906370a0823190612d12903090600401614b92565b602060405180830381865afa158015612d2f573d6000803e3d6000fd5b505050506040513d601f19601f82011682018060405250810190612d539190615137565b9250600081118015612d655750600083115b15612ed05760ca546040516326283ecf60e21b81526000918291600080516020615d80833981519152916398a0fb3c91612dc2916001600160a01b031690600080516020615de0833981519152906001908b908a9060040161582c565b606060405180830381865afa158015612ddf573d6000803e3d6000fd5b505050506040513d601f19601f82011682018060405250810190612e039190615543565b5060ca54604051635a47ddc360e01b81526001600160a01b039091166004820152600080516020615de08339815191526024820152600160448201819052606482018490526084820183905260a4820181905260c48201523060e4820152426101048201529193509150600080516020615d8083398151915290635a47ddc390610124016060604051808303816000875af1158015612ea6573d6000803e3d6000fd5b505050506040513d601f19601f82011682018060405250810190612eca9190615543565b50505050505b6040516370a0823160e01b815260009073d17cb0f162f133e339c0bbfc18c36c357e681d6b906370a0823190612f0a903090600401614b92565b602060405180830381865afa158015612f27573d6000803e3d6000fd5b505050506040513d601f19601f82011682018060405250810190612f4b9190615137565b90508015610bbe5760405163b6b55f2560e01b815260048101829052600080516020615da08339815191529063b6b55f2590602401611d1e565b60008260ff168260ff161115612fbb57612f9f8383615951565b612faa90600a615655565b612fb49085615664565b905061104e565b612fc58284615951565b612fd090600a615655565b612fb4908561567b565b6000612fe4611415565b90506000612ff1826122f0565b60c9549091506001600160a01b031661300a8285613b48565b6001600160a01b0316146125715760405162461bcd60e51b815260206004820152601e60248201527f4261736553747261746567793a3a496e76616c69645369676e617475726500006044820152606401610ad1565b600061307261306d611604565b613b6c565b60ca546040516370a0823160e01b81526001600160a01b03909116906370a0823190611638903090600401614b92565b6000806000806130b06120c0565b90508581106130ce576130c3868261521a565b9350600092506130df565b600093506130dc818761521a565b92505b6130f16130ec858761522d565b613e60565b505060ca546040516370a0823160e01b81526000916001600160a01b0316906370a0823190613124903090600401614b92565b602060405180830381865afa158015613141573d6000803e3d6000fd5b505050506040513d601f19601f820116820180604052508101906131659190615137565b905084811161317a5780945060009250613190565b61318d613187868361521a565b87613f95565b92505b50509250925092565b60cd54604051630dc6346160e01b815260009161010090046001600160a01b031690630dc63461906131d39087908790879060040161596a565b602060405180830381865afa1580156131f0573d6000803e3d6000fd5b505050506040513d601f19601f820116820180604052508101906132149190615137565b60cd5460ca54604051633920455b60e11b81529293506001600160a01b036101009092048216926372408ab692859261325a929116908a908a908a908a90600401615998565b6000604051808303818588803b15801561327357600080fd5b505af1158015612758573d6000803e3d6000fd5b60cb5460408051606083811b6001600160601b03199081166020840152309182901b16603483015282516028818403018152604890920190925260655490926000926001600160a01b03909216916340a7bb109161ffff600160a01b909104169086856132f2613fab565b6040518663ffffffff1660e01b81526004016133129594939291906159d5565b6040805180830381865afa15801561332e573d6000803e3d6000fd5b505050506040513d601f19601f8201168201806040525081019061335291906154b5565b5090508047101561337e5760405162fae2d560e21b815260048101829052476024820152604401610ad1565b60655460cb546001600160a01b039091169063c5803100908390600160a01b900461ffff16858730806133af613fab565b6040518863ffffffff1660e01b81526004016133d096959493929190615a29565b6000604051808303818588803b1580156133e957600080fd5b505af11580156133fd573d6000803e3d6000fd5b5050505050505050565b60cb5461ffff858116600160a01b90920416146134715760405162461bcd60e51b815260206004820152602260248201527f4261736553747261746567793a3a5661756c74436861696e49644d69736d61746044820152610c6d60f31b6064820152608401610ad1565b600061347f8482601461356f565b60405160200161348f91906154d9565b6040516020818303038152906040526134a7906154f5565b60cb5460609190911c91506001600160a01b031681146135145760405162461bcd60e51b815260206004820152602260248201527f4261736553747261746567793a3a5661756c74416464726573734d69736d61746044820152610c6d60f31b6064820152608401610ad1565b610bbe82613fdb565b603380546001600160a01b038381166001600160a01b0319831681179093556040519116919082907f8be0079c531659141344cd1fd0a4f28419497f9722a3daafe3b4186f6b6457e090600090a35050565b60608161357d81601f61522d565b10156135bc5760405162461bcd60e51b815260206004820152600e60248201526d736c6963655f6f766572666c6f7760901b6044820152606401610ad1565b6135c6828461522d565b8451101561360a5760405162461bcd60e51b8152602060048201526011602482015270736c6963655f6f75744f66426f756e647360781b6044820152606401610ad1565b6060821580156136295760405191506000825260208201604052613673565b6040519150601f8416801560200281840101858101878315602002848b0101015b8183101561366257805183526020928301920161364a565b5050858452601f01601f1916604052505b50949350505050565b600080836001600160a01b031663313ce5676040518163ffffffff1660e01b8152600401602060405180830381865afa1580156136bd573d6000803e3d6000fd5b505050506040513d601f19601f820116820180604052508101906136e1919061519a565b90506000836001600160a01b031663313ce5676040518163ffffffff1660e01b8152600401602060405180830381865afa158015613723573d6000803e3d6000fd5b505050506040513d601f19601f82011682018060405250810190613747919061519a565b9050613754868383612f85565b9695505050505050565b6000606060008060008661ffff166001600160401b0381111561378357613783614dc8565b6040519080825280601f01601f1916602001820160405280156137ad576020820181803683370190505b50905060008087516020890160008d8df191503d9250868311156137cf578692505b828152826000602083013e9093509150505b94509492505050565b8180519060200120609760008761ffff1661ffff1681526020019081526020016000208560405161381b91906154d9565b9081526040805191829003602090810183206001600160401b0388166000908152915220919091557fe183f33de2837795525b4792ca4cd60535bd77c53b7e7030060bfcf5734d6b0c906138789087908790879087908790615a90565b60405180910390a15050505050565b60006138dc826040518060400160405280602081526020017f5361666545524332303a206c6f772d6c6576656c2063616c6c206661696c6564815250856001600160a01b03166141089092919063ffffffff16565b90508051600014806138fd5750808060200190518101906138fd91906158e6565b6125715760405162461bcd60e51b815260206004820152602a60248201527f5361666545524332303a204552433230206f7065726174696f6e20646964206e6044820152691bdd081cdd58d8d9595960b21b6064820152608401610ad1565b600054610100900460ff166139835760405162461bcd60e51b8152600401610ad19061589b565b61398b614117565b610caa81614147565b8060000361399f5750565b60408051600280825260608201909252600091816020015b60408051606081018252600080825260208083018290529282015282526000199092019101816139b757505060408051606081018252600080516020615dc08339815191528152600080516020615de083398151915260208201526000918101829052825192935091839190613a2f57613a2f615ae2565b60209081029190910181019190915260408051606081018252600080516020615de0833981519152815260ca546001600160a01b031692810192909252600190820181905282518391908110613a8757613a87615ae2565b60200260200101819052506000613a9d8361167e565b9050600080516020615d8083398151915263f41766d884613abd84613b2b565b8530426040518663ffffffff1660e01b8152600401613ae0959493929190615af8565b6000604051808303816000875af1925050508015613b2057506040513d6000823e601f3d908101601f19168201604052613b1d9190810190615b87565b60015b156125715750505050565b600061271060cc5483613b3e9190615664565b6110dd919061567b565b6000806000613b578585614190565b91509150613b64816141d5565b509392505050565b600080516020615da08339815191526001600160a01b0316633d18b9126040518163ffffffff1660e01b8152600401600060405180830381600087803b158015613bb557600080fd5b505af1158015613bc9573d6000803e3d6000fd5b50506040516370a0823160e01b8152613c029250600080516020615dc083398151915291506370a08231906128fe903090600401614b92565b80600003613c0d5750565b604051632e1a7d4d60e01b815260048101829052600080516020615da083398151915290632e1a7d4d90602401600060405180830381600087803b158015613c5457600080fd5b505af1158015613c68573d6000803e3d6000fd5b505060ca546040516310e1b98f60e21b815260009350839250600080516020615d8083398151915291634386e63c91613cc2916001600160a01b031690600080516020615de083398151915290600190899060040161548a565b6040805180830381865afa158015613cde573d6000803e3d6000fd5b505050506040513d601f19601f82011682018060405250810190613d0291906154b5565b60ca549193509150600080516020615d8083398151915290630dede6c4906001600160a01b0316600080516020615de0833981519152600187613d4488613b2b565b613d4d88613b2b565b6040516001600160e01b031960e089901b1681526001600160a01b03968716600482015295909416602486015291151560448501526064840152608483015260a48201523060c48201524260e48201526101040160408051808303816000875af1158015613dbf573d6000803e3d6000fd5b505050506040513d601f19601f82011682018060405250810190613de391906154b5565b50506040516370a0823160e01b815261257190600080516020615de0833981519152906370a0823190613e1a903090600401614b92565b602060405180830381865afa158015613e37573d6000803e3d6000fd5b505050506040513d601f19601f82011682018060405250810190613e5b9190615137565b61431a565b60ca546040516370a0823160e01b8152600091829182916001600160a01b0316906370a0823190613e95903090600401614b92565b602060405180830381865afa158015613eb2573d6000803e3d6000fd5b505050506040513d601f19601f82011682018060405250810190613ed69190615137565b9050838110613eea57509192600092509050565b613efc613ef7828661521a565b6143f6565b60ca546040516370a0823160e01b81526001600160a01b03909116906370a0823190613f2c903090600401614b92565b602060405180830381865afa158015613f49573d6000803e3d6000fd5b505050506040513d601f19601f82011682018060405250810190613f6d9190615137565b905080841115613f8b57915081613f84818561521a565b9150613f8f565b8392505b50915091565b6000818310613fa4578161104e565b5090919050565b60408051600160f01b6020820152620f424060228083019190915282518083039091018152604290910190915290565b600081806020019051810190613ff19190615c20565b9050600381600481111561400757614007615259565b0361405a576000828060200190518101906140229190615c41565b9150506140328160000151612868565b8051604051908152600080516020615e008339815191529060200160405180910390a1505050565b600081600481111561406e5761406e615259565b03614095576000828060200190518101906140899190615c84565b915050612571816144d7565b60048160048111156140a9576140a9615259565b03614104576000828060200190518101906140c49190615cef565b9150506140d48160000151614601565b80516040517f7c9a2d2ec51230d7dbed27f113a325b7e20aef7b049e68b2339257b5edff5bea9161193491614b92565b5050565b60606119f28484600085614640565b600054610100900460ff1661413e5760405162461bcd60e51b8152600401610ad19061589b565b6115593361351d565b600054610100900460ff1661416e5760405162461bcd60e51b8152600401610ad19061589b565b606580546001600160a01b0319166001600160a01b0392909216919091179055565b60008082516041036141c65760208301516040840151606085015160001a6141ba8782858561471b565b945094505050506141ce565b506000905060025b9250929050565b60008160048111156141e9576141e9615259565b036141f15750565b600181600481111561420557614205615259565b0361424d5760405162461bcd60e51b815260206004820152601860248201527745434453413a20696e76616c6964207369676e617475726560401b6044820152606401610ad1565b600281600481111561426157614261615259565b036142ae5760405162461bcd60e51b815260206004820152601f60248201527f45434453413a20696e76616c6964207369676e6174757265206c656e677468006044820152606401610ad1565b60038160048111156142c2576142c2615259565b03610caa5760405162461bcd60e51b815260206004820152602260248201527f45434453413a20696e76616c6964207369676e6174757265202773272076616c604482015261756560f01b6064820152608401610ad1565b806000036143255750565b600061433082611055565b9050600080516020615d808339815191526313dcfc598361435084613b2b565b60ca5460405160e085901b6001600160e01b031916815260048101939093526024830191909152600080516020615de083398151915260448301526001600160a01b03166064820152600160848201523060a48201524260c482015260e4016000604051808303816000875af11580156143ce573d6000803e3d6000fd5b505050506040513d6000823e601f3d908101601f191682016040526125719190810190615b87565b806000036144015750565b600061440e61074f611f62565b90508181106144ad57600080516020615da08339815191526001600160a01b0316633d18b9126040518163ffffffff1660e01b8152600401600060405180830381600087803b15801561446057600080fd5b505af1158015614474573d6000803e3d6000fd5b50506040516370a0823160e01b81526141049250600080516020615dc083398151915291506370a08231906128fe903090600401614b92565b60006144cc6144bf610a6a848661521a565b6144c7611604565b613f95565b905061257181613b6c565b602080820151600090815260cf909152604090205460ff161561453c5760405162461bcd60e51b815260206004820152601e60248201527f4261736553747261746567793a3a416c726561647957697468647261776e00006044820152606401610ad1565b60008061454c8360000151613e60565b91509150600060016040518060800160405280306001600160a01b031681526020018581526020018481526020018660200151815250604051602001614593929190615d3d565b60408051601f19818403018152919052905082156145d45760cb546145cf90849061ffff600160a01b820416906001600160a01b031684613199565b6145dd565b6145dd81613287565b505050602090810151600090815260cf90915260409020805460ff19166001179055565b61460a816147d2565b60ca546040516370a0823160e01b8152610caa9183916001600160a01b03909116906370a0823190611755903090600401614b92565b6060824710156146a15760405162461bcd60e51b815260206004820152602660248201527f416464726573733a20696e73756666696369656e742062616c616e636520666f6044820152651c8818d85b1b60d21b6064820152608401610ad1565b600080866001600160a01b031685876040516146bd91906154d9565b60006040518083038185875af1925050503d80600081146146fa576040519150601f19603f3d011682016040523d82523d6000602084013e6146ff565b606091505b5091509150614710878383876149f4565b979650505050505050565b6000806fa2a8918ca85bafe22016d0b997e4df60600160ff1b0383111561474857506000905060036137e1565b6040805160008082526020820180845289905260ff881692820192909252606081018690526080810185905260019060a0016020604051602081039080840390855afa15801561479c573d6000803e3d6000fd5b5050604051601f1901519150506001600160a01b0381166147c5576000600192509250506137e1565b9660009650945050505050565b600080516020615da0833981519152632e1a7d4d6147ee611604565b6040518263ffffffff1660e01b815260040161480c91815260200190565b600060405180830381600087803b15801561482657600080fd5b505af115801561483a573d6000803e3d6000fd5b50506040516370a0823160e01b81526148d8925083915073d17cb0f162f133e339c0bbfc18c36c357e681d6b906370a082319061487b903090600401614b92565b602060405180830381865afa158015614898573d6000803e3d6000fd5b505050506040513d601f19601f820116820180604052508101906148bc9190615137565b73d17cb0f162f133e339c0bbfc18c36c357e681d6b919061251b565b6040516370a0823160e01b8152614966908290600080516020615de0833981519152906370a082319061490f903090600401614b92565b602060405180830381865afa15801561492c573d6000803e3d6000fd5b505050506040513d601f19601f820116820180604052508101906149509190615137565b600080516020615de0833981519152919061251b565b6040516370a0823160e01b8152610caa908290600080516020615dc0833981519152906370a082319061499d903090600401614b92565b602060405180830381865afa1580156149ba573d6000803e3d6000fd5b505050506040513d601f19601f820116820180604052508101906149de9190615137565b600080516020615dc0833981519152919061251b565b60608315614a61578251600003614a5a57614a0e85612576565b614a5a5760405162461bcd60e51b815260206004820152601d60248201527f416464726573733a2063616c6c20746f206e6f6e2d636f6e74726163740000006044820152606401610ad1565b50816119f2565b6119f28383815115614a765781518083602001fd5b8060405162461bcd60e51b8152600401610ad19190614bf6565b803561ffff81168114614aa257600080fd5b919050565b60008083601f840112614ab957600080fd5b5081356001600160401b03811115614ad057600080fd5b6020830191508360208285010111156141ce57600080fd5b80356001600160401b0381168114614aa257600080fd5b60008060008060008060808789031215614b1857600080fd5b614b2187614a90565b955060208701356001600160401b0380821115614b3d57600080fd5b614b498a838b01614aa7565b9097509550859150614b5d60408a01614ae8565b94506060890135915080821115614b7357600080fd5b50614b8089828a01614aa7565b979a9699509497509295939492505050565b6001600160a01b0391909116815260200190565b60005b83811015614bc1578181015183820152602001614ba9565b50506000910152565b60008151808452614be2816020860160208601614ba6565b601f01601f19169290920160200192915050565b60208152600061104e6020830184614bca565b600060208284031215614c1b57600080fd5b61104e82614a90565b60008060408385031215614c3757600080fd5b614c4083614a90565b946020939093013593505050565b6001600160a01b0381168114610caa57600080fd5b600060208284031215614c7557600080fd5b813561104e81614c4e565b600080600080600080600080610100898b031215614c9d57600080fd5b8835614ca881614c4e565b97506020890135614cb881614c4e565b96506040890135614cc881614c4e565b95506060890135614cd881614c4e565b9450614ce660808a01614a90565b9350614cf460a08a01614a90565b925060c0890135614d0481614c4e565b915060e0890135614d1481614c4e565b809150509295985092959890939650565b6001600160a01b03169052565b600060208284031215614d4457600080fd5b5035919050565b600080600060408486031215614d6057600080fd5b614d6984614a90565b925060208401356001600160401b03811115614d8457600080fd5b614d9086828701614aa7565b9497909650939450505050565b8015158114610caa57600080fd5b600060208284031215614dbd57600080fd5b813561104e81614d9d565b634e487b7160e01b600052604160045260246000fd5b604051602081016001600160401b0381118282101715614e0057614e00614dc8565b60405290565b604051601f8201601f191681016001600160401b0381118282101715614e2e57614e2e614dc8565b604052919050565b60006001600160401b03821115614e4f57614e4f614dc8565b50601f01601f191660200190565b600082601f830112614e6e57600080fd5b8135614e81614e7c82614e36565b614e06565b818152846020838601011115614e9657600080fd5b816020850160208301376000918101602001919091529392505050565b600080600080600060a08688031215614ecb57600080fd5b8535945060208601359350604086013592506060860135915060808601356001600160401b03811115614efd57600080fd5b614f0988828901614e5d565b9150509295509295909350565b600080600060608486031215614f2b57600080fd5b614f3484614a90565b925060208401356001600160401b03811115614f4f57600080fd5b614f5b86828701614e5d565b925050614f6a60408501614ae8565b90509250925092565b60008060408385031215614f8657600080fd5b614f8f83614a90565b9150614f9d60208401614a90565b90509250929050565b60008060008060008060c08789031215614fbf57600080fd5b614fc887614a90565b955060208701356001600160401b0380821115614fe457600080fd5b614ff08a838b01614e5d565b9650604089013595506060890135915061500982614c4e565b9093506080880135925060a0880135908082111561502657600080fd5b5061503389828a01614e5d565b9150509295509295509295565b60008060008060006080868803121561505857600080fd5b61506186614a90565b945061506f60208701614a90565b93506040860135925060608601356001600160401b0381111561509157600080fd5b61509d88828901614aa7565b969995985093965092949392505050565b6000806000606084860312156150c357600080fd5b6150cc84614a90565b92506150da60208501614a90565b9150604084013590509250925092565b6000806000806080858703121561510057600080fd5b61510985614a90565b935061511760208601614a90565b9250604085013561512781614c4e565b9396929550929360600135925050565b60006020828403121561514957600080fd5b5051919050565b600181811c9082168061516457607f821691505b60208210810361518457634e487b7160e01b600052602260045260246000fd5b50919050565b8183823760009101908152919050565b6000602082840312156151ac57600080fd5b815160ff8116811461104e57600080fd5b81835281816020850137506000828201602090810191909152601f909101601f19169091010190565b61ffff841681526040602082015260006122e76040830184866151bd565b634e487b7160e01b600052601160045260246000fd5b818103818111156110dd576110dd615204565b808201808211156110dd576110dd615204565b60006001820161525257615252615204565b5060010190565b634e487b7160e01b600052602160045260246000fd5b6005811061528d57634e487b7160e01b600052602160045260246000fd5b9052565b61529b818461526f565b604060208201526152b0604082018351614d25565b6020820151606082015260408201516080820152606082015160a0820152608082015160c082015260a082015160e0820152600060c0830151610100818185015260e085015191506101208281860152818601519250610140915082828601528086015192505061016082818601528186015192508061018086015250506122e76101a0840182614bca565b6001600160a01b03929092168252602082015260400190565b8284823760609190911b6001600160601b0319169101908152601401919050565b601f82111561257157600081815260208120601f850160051c8101602086101561539d5750805b601f850160051c820191505b81811015610b50578281556001016153a9565b600019600383901b1c191660019190911b1790565b81516001600160401b038111156153ea576153ea614dc8565b6153fe816153f88454615150565b84615376565b602080601f83116001811461542d576000841561541b5750858301515b61542585826153bc565b865550610b50565b600085815260208120601f198616915b8281101561545c5788860151825594840194600190910190840161543d565b508582101561547a5787850151600019600388901b60f8161c191681555b5050505050600190811b01905550565b6001600160a01b03948516815292909316602083015215156040820152606081019190915260800190565b600080604083850312156154c857600080fd5b505080516020909101519092909150565b600082516154eb818460208701614ba6565b9190910192915050565b805160208201516001600160601b031980821692919060148310156155245780818460140360031b1b83161693505b505050919050565b9182526001600160a01b0316602082015260400190565b60008060006060848603121561555857600080fd5b8351925060208401519150604084015190509250925092565b600181815b808511156155ac57816000190482111561559257615592615204565b8085161561559f57918102915b93841c9390800290615576565b509250929050565b6000826155c3575060016110dd565b816155d0575060006110dd565b81600181146155e657600281146155f05761560c565b60019150506110dd565b60ff84111561560157615601615204565b50506001821b6110dd565b5060208310610133831016604e8410600b841016171561562f575081810a6110dd565b6156398383615571565b806000190482111561564d5761564d615204565b029392505050565b600061104e60ff8416836155b4565b80820281158282048414176110dd576110dd615204565b60008261569857634e487b7160e01b600052601260045260246000fd5b500490565b600061ffff8088168352808716602084015250846040830152608060608301526147106080830184866151bd565b61ffff861681526080602082015260006156e96080830186886151bd565b6001600160401b0394909416604083015250606001529392505050565b6001600160401b0383111561571d5761571d614dc8565b6157318361572b8354615150565b83615376565b6000601f84116001811461575f576000851561574d5750838201355b61575786826153bc565b845550610bbe565b600083815260209020601f19861690835b828110156157905786850135825560209485019460019092019101615770565b50868210156157ad5760001960f88860031b161c19848701351681555b505060018560011b0183555050505050565b6000602082840312156157d157600080fd5b81516001600160401b038111156157e757600080fd5b8201601f810184136157f857600080fd5b8051615806614e7c82614e36565b81815285602083850101111561581b57600080fd5b6122e7826020830160208601614ba6565b6001600160a01b03958616815293909416602084015290151560408301526060820152608081019190915260a00190565b61ffff8516815260806020820152600061587a6080830186614bca565b6001600160401b038516604084015282810360608401526147108185614bca565b6020808252602b908201527f496e697469616c697a61626c653a20636f6e7472616374206973206e6f74206960408201526a6e697469616c697a696e6760a81b606082015260800190565b6000602082840312156158f857600080fd5b815161104e81614d9d565b60208152600082516080602084015261591f60a0840182614bca565b905060018060a01b03602085015116604084015260408401516060840152606084015160808401528091505092915050565b60ff82811682821603908111156110dd576110dd615204565b61ffff841681526001600160a01b03831660208201526060604082018190526000906122e790830184614bca565b6001600160a01b0386811682526020820186905261ffff851660408301528316606082015260a06080820181905260009061471090830184614bca565b61ffff861681526001600160a01b038516602082015260a060408201819052600090615a0390830186614bca565b84151560608401528281036080840152615a1d8185614bca565b98975050505050505050565b61ffff8716815260c060208201526000615a4660c0830188614bca565b8281036040840152615a588188614bca565b6001600160a01b0387811660608601528616608085015283810360a08501529050615a838185614bca565b9998505050505050505050565b61ffff8616815260a060208201526000615aad60a0830187614bca565b6001600160401b03861660408401528281036060840152615ace8186614bca565b90508281036080840152615a1d8185614bca565b634e487b7160e01b600052603260045260246000fd5b600060a0820187835260208781850152604060a08186015282885180855260c087019150838a01945060005b81811015615b6157855180516001600160a01b03908116855286820151168685015284015115158484015294840194606090920191600101615b24565b505080945050505050615b776060830185614d25565b8260808301529695505050505050565b60006020808385031215615b9a57600080fd5b82516001600160401b0380821115615bb157600080fd5b818501915085601f830112615bc557600080fd5b815181811115615bd757615bd7614dc8565b8060051b9150615be8848301614e06565b8181529183018401918481019088841115615c0257600080fd5b938501935b83851015615a1d57845182529385019390850190615c07565b600060208284031215615c3257600080fd5b81516005811061104e57600080fd5b6000808284036040811215615c5557600080fd5b835192506020601f1982011215615c6b57600080fd5b50615c74614dde565b6020939093015183525092909150565b6000808284036060811215615c9857600080fd5b835192506040601f1982011215615cae57600080fd5b50604080519081016001600160401b0381118282101715615cd157615cd1614dc8565b60409081526020858101518352940151938101939093525092909150565b6000808284036040811215615d0357600080fd5b835192506020601f1982011215615d1957600080fd5b50615d22614dde565b6020840151615d3081614c4e565b8152919491935090915050565b60a08101615d4b828561526f565b60018060a01b038351166020830152602083015160408301526040830151606083015260608301516080830152939250505056fe000000000000000000000000cc25c0fd84737f44a7d38649b69491bbf0c7f08300000000000000000000000097bd59a8202f8263c2ec39cf6cf6b438d0b458760000000000000000000000007238390d5f6f64e67c3211c343a410e2a3dec14200000000000000000000000040379a439d4f6795b6fc9aa5687db461677a2dbab0c58532a125fc3c0adccaef396bf65344a4d5781cec2e4c593e6b611d75f150a2646970667358221220a461f38da2b0a3f52f48535a39f9df3caae47f1c47a3fc927a7f5c3df7699d2d64736f6c63430008130033",
  "linkReferences": {},
  "deployedLinkReferences": {}
}