{
  "_format": "hh-sol-artifact-1",
  "contractName": "PearlStrategy",
  "sourceName": "contracts/strategies/PearlStrategy.sol",
  "abi": [
    {
      "inputs": [
        {
          "internalType": "uint256",
          "name": "messageType",
          "type": "uint256"
        }
      ],
      "name": "IncorrectMessageType",
      "type": "error"
    },
    {
      "inputs": [
        {
          "internalType": "uint256",
          "name": "amount",
          "type": "uint256"
        },
        {
          "internalType": "uint256",
          "name": "balance",
          "type": "uint256"
        }
      ],
      "name": "InsufficientFunds",
      "type": "error"
    },
    {
      "inputs": [],
      "name": "SwapHelperOnly",
      "type": "error"
    },
    {
      "anonymous": false,
      "inputs": [
        {
          "indexed": false,
          "internalType": "uint256",
          "name": "debtOutstanding",
          "type": "uint256"
        }
      ],
      "name": "AdjustedPosition",
      "type": "event"
    },
    {
      "anonymous": false,
      "inputs": [
        {
          "indexed": false,
          "internalType": "uint8",
          "name": "version",
          "type": "uint8"
        }
      ],
      "name": "Initialized",
      "type": "event"
    },
    {
      "anonymous": false,
      "inputs": [
        {
          "indexed": false,
          "internalType": "uint16",
          "name": "_srcChainId",
          "type": "uint16"
        },
        {
          "indexed": false,
          "internalType": "bytes",
          "name": "_srcAddress",
          "type": "bytes"
        },
        {
          "indexed": false,
          "internalType": "uint64",
          "name": "_nonce",
          "type": "uint64"
        },
        {
          "indexed": false,
          "internalType": "bytes",
          "name": "_payload",
          "type": "bytes"
        },
        {
          "indexed": false,
          "internalType": "bytes",
          "name": "_reason",
          "type": "bytes"
        }
      ],
      "name": "MessageFailed",
      "type": "event"
    },
    {
      "anonymous": false,
      "inputs": [
        {
          "indexed": true,
          "internalType": "address",
          "name": "src",
          "type": "address"
        },
        {
          "indexed": true,
          "internalType": "address",
          "name": "dst",
          "type": "address"
        },
        {
          "indexed": true,
          "internalType": "uint256",
          "name": "amountOut",
          "type": "uint256"
        },
        {
          "indexed": false,
          "internalType": "uint256",
          "name": "amountIn",
          "type": "uint256"
        }
      ],
      "name": "Notified",
      "type": "event"
    },
    {
      "anonymous": false,
      "inputs": [
        {
          "indexed": true,
          "internalType": "address",
          "name": "previousOwner",
          "type": "address"
        },
        {
          "indexed": true,
          "internalType": "address",
          "name": "newOwner",
          "type": "address"
        }
      ],
      "name": "OwnershipTransferred",
      "type": "event"
    },
    {
      "anonymous": false,
      "inputs": [
        {
          "indexed": false,
          "internalType": "uint16",
          "name": "_srcChainId",
          "type": "uint16"
        },
        {
          "indexed": false,
          "internalType": "bytes",
          "name": "_srcAddress",
          "type": "bytes"
        },
        {
          "indexed": false,
          "internalType": "uint64",
          "name": "_nonce",
          "type": "uint64"
        },
        {
          "indexed": false,
          "internalType": "bytes32",
          "name": "_payloadHash",
          "type": "bytes32"
        }
      ],
      "name": "RetryMessageSuccess",
      "type": "event"
    },
    {
      "anonymous": false,
      "inputs": [
        {
          "indexed": false,
          "internalType": "uint16",
          "name": "_dstChainId",
          "type": "uint16"
        },
        {
          "indexed": false,
          "internalType": "uint16",
          "name": "_type",
          "type": "uint16"
        },
        {
          "indexed": false,
          "internalType": "uint256",
          "name": "_minDstGas",
          "type": "uint256"
        }
      ],
      "name": "SetMinDstGas",
      "type": "event"
    },
    {
      "anonymous": false,
      "inputs": [
        {
          "indexed": false,
          "internalType": "address",
          "name": "precrime",
          "type": "address"
        }
      ],
      "name": "SetPrecrime",
      "type": "event"
    },
    {
      "anonymous": false,
      "inputs": [
        {
          "indexed": false,
          "internalType": "uint16",
          "name": "_remoteChainId",
          "type": "uint16"
        },
        {
          "indexed": false,
          "internalType": "bytes",
          "name": "_path",
          "type": "bytes"
        }
      ],
      "name": "SetTrustedRemote",
      "type": "event"
    },
    {
      "anonymous": false,
      "inputs": [
        {
          "indexed": false,
          "internalType": "uint16",
          "name": "_remoteChainId",
          "type": "uint16"
        },
        {
          "indexed": false,
          "internalType": "bytes",
          "name": "_remoteAddress",
          "type": "bytes"
        }
      ],
      "name": "SetTrustedRemoteAddress",
      "type": "event"
    },
    {
      "anonymous": false,
      "inputs": [
        {
          "indexed": true,
          "internalType": "address",
          "name": "token",
          "type": "address"
        },
        {
          "indexed": false,
          "internalType": "uint256",
          "name": "amount",
          "type": "uint256"
        },
        {
          "indexed": false,
          "internalType": "address",
          "name": "sender",
          "type": "address"
        }
      ],
      "name": "SgReceived",
      "type": "event"
    },
    {
      "anonymous": false,
      "inputs": [
        {
          "indexed": false,
          "internalType": "address",
          "name": "newStrategy",
          "type": "address"
        }
      ],
      "name": "StrategyMigrated",
      "type": "event"
    },
    {
      "anonymous": false,
      "inputs": [
        {
          "indexed": false,
          "internalType": "uint256",
          "name": "profit",
          "type": "uint256"
        },
        {
          "indexed": false,
          "internalType": "uint256",
          "name": "loss",
          "type": "uint256"
        },
        {
          "indexed": false,
          "internalType": "uint256",
          "name": "debtPayment",
          "type": "uint256"
        },
        {
          "indexed": false,
          "internalType": "uint256",
          "name": "giveToStrategy",
          "type": "uint256"
        },
        {
          "indexed": false,
          "internalType": "uint256",
          "name": "requestFromStrategy",
          "type": "uint256"
        },
        {
          "indexed": false,
          "internalType": "uint256",
          "name": "creditAvailable",
          "type": "uint256"
        },
        {
          "indexed": false,
          "internalType": "uint256",
          "name": "totalAssets",
          "type": "uint256"
        }
      ],
      "name": "StrategyReported",
      "type": "event"
    },
    {
      "inputs": [],
      "name": "DEFAULT_PAYLOAD_SIZE_LIMIT",
      "outputs": [
        {
          "internalType": "uint256",
          "name": "",
          "type": "uint256"
        }
      ],
      "stateMutability": "view",
      "type": "function"
    },
    {
      "inputs": [],
      "name": "DEFAULT_SLIPPAGE",
      "outputs": [
        {
          "internalType": "uint256",
          "name": "",
          "type": "uint256"
        }
      ],
      "stateMutability": "view",
      "type": "function"
    },
    {
      "inputs": [
        {
          "internalType": "uint256",
          "name": "_debtOutstanding",
          "type": "uint256"
        }
      ],
      "name": "adjustPosition",
      "outputs": [],
      "stateMutability": "nonpayable",
      "type": "function"
    },
    {
      "inputs": [],
      "name": "adjustedTo1InchSlippage",
      "outputs": [
        {
          "internalType": "uint8",
          "name": "",
          "type": "uint8"
        }
      ],
      "stateMutability": "view",
      "type": "function"
    },
    {
      "inputs": [],
      "name": "balanceOfLpStaked",
      "outputs": [
        {
          "internalType": "uint256",
          "name": "",
          "type": "uint256"
        }
      ],
      "stateMutability": "view",
      "type": "function"
    },
    {
      "inputs": [],
      "name": "balanceOfPearlRewards",
      "outputs": [
        {
          "internalType": "uint256",
          "name": "",
          "type": "uint256"
        }
      ],
      "stateMutability": "view",
      "type": "function"
    },
    {
      "inputs": [],
      "name": "balanceOfWant",
      "outputs": [
        {
          "internalType": "uint256",
          "name": "",
          "type": "uint256"
        }
      ],
      "stateMutability": "view",
      "type": "function"
    },
    {
      "inputs": [
        {
          "internalType": "uint256",
          "name": "epoch",
          "type": "uint256"
        }
      ],
      "name": "callMe",
      "outputs": [],
      "stateMutability": "nonpayable",
      "type": "function"
    },
    {
      "inputs": [],
      "name": "clearWant",
      "outputs": [],
      "stateMutability": "nonpayable",
      "type": "function"
    },
    {
      "inputs": [],
      "name": "currentChainId",
      "outputs": [
        {
          "internalType": "uint16",
          "name": "",
          "type": "uint16"
        }
      ],
      "stateMutability": "view",
      "type": "function"
    },
    {
      "inputs": [
        {
          "internalType": "uint256",
          "name": "_daiAmount",
          "type": "uint256"
        }
      ],
      "name": "daiToWant",
      "outputs": [
        {
          "internalType": "uint256",
          "name": "",
          "type": "uint256"
        }
      ],
      "stateMutability": "view",
      "type": "function"
    },
    {
      "inputs": [],
      "name": "emergencyExit",
      "outputs": [
        {
          "internalType": "bool",
          "name": "",
          "type": "bool"
        }
      ],
      "stateMutability": "view",
      "type": "function"
    },
    {
      "inputs": [],
      "name": "estimatedTotalAssets",
      "outputs": [
        {
          "internalType": "uint256",
          "name": "",
          "type": "uint256"
        }
      ],
      "stateMutability": "view",
      "type": "function"
    },
    {
      "inputs": [
        {
          "internalType": "uint16",
          "name": "",
          "type": "uint16"
        },
        {
          "internalType": "bytes",
          "name": "",
          "type": "bytes"
        },
        {
          "internalType": "uint64",
          "name": "",
          "type": "uint64"
        }
      ],
      "name": "failedMessages",
      "outputs": [
        {
          "internalType": "bytes32",
          "name": "",
          "type": "bytes32"
        }
      ],
      "stateMutability": "view",
      "type": "function"
    },
    {
      "inputs": [
        {
          "internalType": "uint16",
          "name": "_srcChainId",
          "type": "uint16"
        },
        {
          "internalType": "bytes",
          "name": "_srcAddress",
          "type": "bytes"
        }
      ],
      "name": "forceResumeReceive",
      "outputs": [],
      "stateMutability": "nonpayable",
      "type": "function"
    },
    {
      "inputs": [
        {
          "internalType": "uint16",
          "name": "_version",
          "type": "uint16"
        },
        {
          "internalType": "uint16",
          "name": "_chainId",
          "type": "uint16"
        },
        {
          "internalType": "address",
          "name": "",
          "type": "address"
        },
        {
          "internalType": "uint256",
          "name": "_configType",
          "type": "uint256"
        }
      ],
      "name": "getConfig",
      "outputs": [
        {
          "internalType": "bytes",
          "name": "",
          "type": "bytes"
        }
      ],
      "stateMutability": "view",
      "type": "function"
    },
    {
      "inputs": [
        {
          "internalType": "bytes32",
          "name": "_messageHash",
          "type": "bytes32"
        }
      ],
      "name": "getEthSignedMessageHash",
      "outputs": [
        {
          "internalType": "bytes32",
          "name": "",
          "type": "bytes32"
        }
      ],
      "stateMutability": "pure",
      "type": "function"
    },
    {
      "inputs": [
        {
          "internalType": "uint16",
          "name": "_remoteChainId",
          "type": "uint16"
        }
      ],
      "name": "getTrustedRemoteAddress",
      "outputs": [
        {
          "internalType": "bytes",
          "name": "",
          "type": "bytes"
        }
      ],
      "stateMutability": "view",
      "type": "function"
    },
    {
      "inputs": [
        {
          "internalType": "uint256",
          "name": "_totalDebt",
          "type": "uint256"
        },
        {
          "internalType": "uint256",
          "name": "_debtOutstanding",
          "type": "uint256"
        },
        {
          "internalType": "uint256",
          "name": "_creditAvailable",
          "type": "uint256"
        },
        {
          "internalType": "uint256",
          "name": "_debtRatio",
          "type": "uint256"
        },
        {
          "internalType": "bytes",
          "name": "_signature",
          "type": "bytes"
        }
      ],
      "name": "harvest",
      "outputs": [],
      "stateMutability": "nonpayable",
      "type": "function"
    },
    {
      "inputs": [
        {
          "internalType": "address",
          "name": "_lzEndpoint",
          "type": "address"
        },
        {
          "internalType": "address",
          "name": "_strategist",
          "type": "address"
        },
        {
          "internalType": "contract IERC20",
          "name": "_want",
          "type": "address"
        },
        {
          "internalType": "address",
          "name": "_vault",
          "type": "address"
        },
        {
          "internalType": "uint16",
          "name": "_vaultChainId",
          "type": "uint16"
        },
        {
          "internalType": "uint16",
          "name": "_currentChainId",
          "type": "uint16"
        },
        {
          "internalType": "address",
          "name": "_sgBridge",
          "type": "address"
        },
        {
          "internalType": "address",
          "name": "_router",
          "type": "address"
        },
        {
          "internalType": "address",
          "name": "_swapHelper",
          "type": "address"
        }
      ],
      "name": "initialize",
      "outputs": [],
      "stateMutability": "nonpayable",
      "type": "function"
    },
    {
      "inputs": [
        {
          "internalType": "uint16",
          "name": "_srcChainId",
          "type": "uint16"
        },
        {
          "internalType": "bytes",
          "name": "_srcAddress",
          "type": "bytes"
        }
      ],
      "name": "isTrustedRemote",
      "outputs": [
        {
          "internalType": "bool",
          "name": "",
          "type": "bool"
        }
      ],
      "stateMutability": "view",
      "type": "function"
    },
    {
      "inputs": [],
      "name": "lzEndpoint",
      "outputs": [
        {
          "internalType": "contract ILayerZeroEndpointUpgradeable",
          "name": "",
          "type": "address"
        }
      ],
      "stateMutability": "view",
      "type": "function"
    },
    {
      "inputs": [
        {
          "internalType": "uint16",
          "name": "_srcChainId",
          "type": "uint16"
        },
        {
          "internalType": "bytes",
          "name": "_srcAddress",
          "type": "bytes"
        },
        {
          "internalType": "uint64",
          "name": "_nonce",
          "type": "uint64"
        },
        {
          "internalType": "bytes",
          "name": "_payload",
          "type": "bytes"
        }
      ],
      "name": "lzReceive",
      "outputs": [],
      "stateMutability": "nonpayable",
      "type": "function"
    },
    {
      "inputs": [
        {
          "internalType": "uint16",
          "name": "",
          "type": "uint16"
        },
        {
          "internalType": "uint16",
          "name": "",
          "type": "uint16"
        }
      ],
      "name": "minDstGasLookup",
      "outputs": [
        {
          "internalType": "uint256",
          "name": "",
          "type": "uint256"
        }
      ],
      "stateMutability": "view",
      "type": "function"
    },
    {
      "inputs": [],
      "name": "name",
      "outputs": [
        {
          "internalType": "string",
          "name": "",
          "type": "string"
        }
      ],
      "stateMutability": "pure",
      "type": "function"
    },
    {
      "inputs": [
        {
          "internalType": "uint16",
          "name": "_srcChainId",
          "type": "uint16"
        },
        {
          "internalType": "bytes",
          "name": "_srcAddress",
          "type": "bytes"
        },
        {
          "internalType": "uint64",
          "name": "_nonce",
          "type": "uint64"
        },
        {
          "internalType": "bytes",
          "name": "_payload",
          "type": "bytes"
        }
      ],
      "name": "nonblockingLzReceive",
      "outputs": [],
      "stateMutability": "nonpayable",
      "type": "function"
    },
    {
      "inputs": [
        {
          "internalType": "address",
          "name": "src",
          "type": "address"
        },
        {
          "internalType": "address",
          "name": "dst",
          "type": "address"
        },
        {
          "internalType": "uint256",
          "name": "amountOut",
          "type": "uint256"
        },
        {
          "internalType": "uint256",
          "name": "amountIn",
          "type": "uint256"
        }
      ],
      "name": "notifyCallback",
      "outputs": [],
      "stateMutability": "nonpayable",
      "type": "function"
    },
    {
      "inputs": [],
      "name": "owner",
      "outputs": [
        {
          "internalType": "address",
          "name": "",
          "type": "address"
        }
      ],
      "stateMutability": "view",
      "type": "function"
    },
    {
      "inputs": [
        {
          "internalType": "uint16",
          "name": "",
          "type": "uint16"
        }
      ],
      "name": "payloadSizeLimitLookup",
      "outputs": [
        {
          "internalType": "uint256",
          "name": "",
          "type": "uint256"
        }
      ],
      "stateMutability": "view",
      "type": "function"
    },
    {
      "inputs": [
        {
          "internalType": "uint256",
          "name": "_pearlAmount",
          "type": "uint256"
        }
      ],
      "name": "pearlToWant",
      "outputs": [
        {
          "internalType": "uint256",
          "name": "",
          "type": "uint256"
        }
      ],
      "stateMutability": "view",
      "type": "function"
    },
    {
      "inputs": [],
      "name": "precrime",
      "outputs": [
        {
          "internalType": "address",
          "name": "",
          "type": "address"
        }
      ],
      "stateMutability": "view",
      "type": "function"
    },
    {
      "inputs": [],
      "name": "renounceOwnership",
      "outputs": [],
      "stateMutability": "nonpayable",
      "type": "function"
    },
    {
      "inputs": [
        {
          "internalType": "uint16",
          "name": "_srcChainId",
          "type": "uint16"
        },
        {
          "internalType": "bytes",
          "name": "_srcAddress",
          "type": "bytes"
        },
        {
          "internalType": "uint64",
          "name": "_nonce",
          "type": "uint64"
        },
        {
          "internalType": "bytes",
          "name": "_payload",
          "type": "bytes"
        }
      ],
      "name": "retryMessage",
      "outputs": [],
      "stateMutability": "payable",
      "type": "function"
    },
    {
      "inputs": [],
      "name": "revokeFunds",
      "outputs": [],
      "stateMutability": "nonpayable",
      "type": "function"
    },
    {
      "inputs": [
        {
          "internalType": "uint16",
          "name": "_version",
          "type": "uint16"
        },
        {
          "internalType": "uint16",
          "name": "_chainId",
          "type": "uint16"
        },
        {
          "internalType": "uint256",
          "name": "_configType",
          "type": "uint256"
        },
        {
          "internalType": "bytes",
          "name": "_config",
          "type": "bytes"
        }
      ],
      "name": "setConfig",
      "outputs": [],
      "stateMutability": "nonpayable",
      "type": "function"
    },
    {
      "inputs": [
        {
          "internalType": "bool",
          "name": "_emergencyExit",
          "type": "bool"
        }
      ],
      "name": "setEmergencyExit",
      "outputs": [],
      "stateMutability": "nonpayable",
      "type": "function"
    },
    {
      "inputs": [
        {
          "internalType": "uint16",
          "name": "_dstChainId",
          "type": "uint16"
        },
        {
          "internalType": "uint16",
          "name": "_packetType",
          "type": "uint16"
        },
        {
          "internalType": "uint256",
          "name": "_minGas",
          "type": "uint256"
        }
      ],
      "name": "setMinDstGas",
      "outputs": [],
      "stateMutability": "nonpayable",
      "type": "function"
    },
    {
      "inputs": [
        {
          "internalType": "uint16",
          "name": "_dstChainId",
          "type": "uint16"
        },
        {
          "internalType": "uint256",
          "name": "_size",
          "type": "uint256"
        }
      ],
      "name": "setPayloadSizeLimit",
      "outputs": [],
      "stateMutability": "nonpayable",
      "type": "function"
    },
    {
      "inputs": [
        {
          "internalType": "address",
          "name": "_precrime",
          "type": "address"
        }
      ],
      "name": "setPrecrime",
      "outputs": [],
      "stateMutability": "nonpayable",
      "type": "function"
    },
    {
      "inputs": [
        {
          "internalType": "uint16",
          "name": "_version",
          "type": "uint16"
        }
      ],
      "name": "setReceiveVersion",
      "outputs": [],
      "stateMutability": "nonpayable",
      "type": "function"
    },
    {
      "inputs": [
        {
          "internalType": "uint16",
          "name": "_version",
          "type": "uint16"
        }
      ],
      "name": "setSendVersion",
      "outputs": [],
      "stateMutability": "nonpayable",
      "type": "function"
    },
    {
      "inputs": [
        {
          "internalType": "uint256",
          "name": "_slippage",
          "type": "uint256"
        }
      ],
      "name": "setSlippage",
      "outputs": [],
      "stateMutability": "nonpayable",
      "type": "function"
    },
    {
      "inputs": [
        {
          "internalType": "address",
          "name": "_strategist",
          "type": "address"
        }
      ],
      "name": "setStrategist",
      "outputs": [],
      "stateMutability": "nonpayable",
      "type": "function"
    },
    {
      "inputs": [
        {
          "internalType": "address",
          "name": "__swapHelper",
          "type": "address"
        }
      ],
      "name": "setSwapHelper",
      "outputs": [],
      "stateMutability": "nonpayable",
      "type": "function"
    },
    {
      "inputs": [
        {
          "internalType": "uint16",
          "name": "_srcChainId",
          "type": "uint16"
        },
        {
          "internalType": "bytes",
          "name": "_path",
          "type": "bytes"
        }
      ],
      "name": "setTrustedRemote",
      "outputs": [],
      "stateMutability": "nonpayable",
      "type": "function"
    },
    {
      "inputs": [
        {
          "internalType": "uint16",
          "name": "_remoteChainId",
          "type": "uint16"
        },
        {
          "internalType": "bytes",
          "name": "_remoteAddress",
          "type": "bytes"
        }
      ],
      "name": "setTrustedRemoteAddress",
      "outputs": [],
      "stateMutability": "nonpayable",
      "type": "function"
    },
    {
      "inputs": [],
      "name": "sgBridge",
      "outputs": [
        {
          "internalType": "contract ISgBridge",
          "name": "",
          "type": "address"
        }
      ],
      "stateMutability": "view",
      "type": "function"
    },
    {
      "inputs": [
        {
          "internalType": "uint16",
          "name": "",
          "type": "uint16"
        },
        {
          "internalType": "bytes",
          "name": "_srcAddress",
          "type": "bytes"
        },
        {
          "internalType": "uint256",
          "name": "",
          "type": "uint256"
        },
        {
          "internalType": "address",
          "name": "_token",
          "type": "address"
        },
        {
          "internalType": "uint256",
          "name": "_amountLD",
          "type": "uint256"
        },
        {
          "internalType": "bytes",
          "name": "",
          "type": "bytes"
        }
      ],
      "name": "sgReceive",
      "outputs": [],
      "stateMutability": "nonpayable",
      "type": "function"
    },
    {
      "inputs": [],
      "name": "sgRouter",
      "outputs": [
        {
          "internalType": "contract IStargateRouter",
          "name": "",
          "type": "address"
        }
      ],
      "stateMutability": "view",
      "type": "function"
    },
    {
      "inputs": [],
      "name": "slippage",
      "outputs": [
        {
          "internalType": "uint256",
          "name": "",
          "type": "uint256"
        }
      ],
      "stateMutability": "view",
      "type": "function"
    },
    {
      "inputs": [],
      "name": "strategist",
      "outputs": [
        {
          "internalType": "address",
          "name": "",
          "type": "address"
        }
      ],
      "stateMutability": "view",
      "type": "function"
    },
    {
      "inputs": [],
      "name": "strategistSignMessageHash",
      "outputs": [
        {
          "internalType": "bytes32",
          "name": "",
          "type": "bytes32"
        }
      ],
      "stateMutability": "view",
      "type": "function"
    },
    {
      "inputs": [],
      "name": "swapHelper",
      "outputs": [
        {
          "internalType": "contract IOraclizedSwapHelper",
          "name": "",
          "type": "address"
        }
      ],
      "stateMutability": "view",
      "type": "function"
    },
    {
      "inputs": [
        {
          "internalType": "contract IERC20",
          "name": "_token",
          "type": "address"
        }
      ],
      "name": "sweepToken",
      "outputs": [],
      "stateMutability": "nonpayable",
      "type": "function"
    },
    {
      "inputs": [
        {
          "internalType": "address",
          "name": "newOwner",
          "type": "address"
        }
      ],
      "name": "transferOwnership",
      "outputs": [],
      "stateMutability": "nonpayable",
      "type": "function"
    },
    {
      "inputs": [
        {
          "internalType": "uint16",
          "name": "",
          "type": "uint16"
        }
      ],
      "name": "trustedRemoteLookup",
      "outputs": [
        {
          "internalType": "bytes",
          "name": "",
          "type": "bytes"
        }
      ],
      "stateMutability": "view",
      "type": "function"
    },
    {
      "inputs": [
        {
          "internalType": "uint256",
          "name": "_usdrLpAmount",
          "type": "uint256"
        }
      ],
      "name": "usdrLpToWant",
      "outputs": [
        {
          "internalType": "uint256",
          "name": "",
          "type": "uint256"
        }
      ],
      "stateMutability": "view",
      "type": "function"
    },
    {
      "inputs": [
        {
          "internalType": "uint256",
          "name": "_usdrAmount",
          "type": "uint256"
        }
      ],
      "name": "usdrToWant",
      "outputs": [
        {
          "internalType": "uint256",
          "name": "",
          "type": "uint256"
        }
      ],
      "stateMutability": "view",
      "type": "function"
    },
    {
      "inputs": [],
      "name": "vault",
      "outputs": [
        {
          "internalType": "address",
          "name": "",
          "type": "address"
        }
      ],
      "stateMutability": "view",
      "type": "function"
    },
    {
      "inputs": [],
      "name": "vaultChainId",
      "outputs": [
        {
          "internalType": "uint16",
          "name": "",
          "type": "uint16"
        }
      ],
      "stateMutability": "view",
      "type": "function"
    },
    {
      "inputs": [],
      "name": "want",
      "outputs": [
        {
          "internalType": "contract IERC20",
          "name": "",
          "type": "address"
        }
      ],
      "stateMutability": "view",
      "type": "function"
    },
    {
      "inputs": [],
      "name": "wantDecimals",
      "outputs": [
        {
          "internalType": "uint8",
          "name": "",
          "type": "uint8"
        }
      ],
      "stateMutability": "view",
      "type": "function"
    },
    {
      "inputs": [
        {
          "internalType": "uint256",
          "name": "_wantAmount",
          "type": "uint256"
        }
      ],
      "name": "wantToUsdrLp",
      "outputs": [
        {
          "internalType": "uint256",
          "name": "",
          "type": "uint256"
        }
      ],
      "stateMutability": "view",
      "type": "function"
    },
    {
      "stateMutability": "payable",
      "type": "receive"
    }
  ],
  "bytecode": "0x608060405234801561001057600080fd5b50615c5580620000216000396000f3fe6080604052600436106102cb5760003560e01c80621d3567146102d75780630517cb76146102f957806306fdde031461032f57806307e0db171461036e5780630df374831461038e5780630fc6a11c146103ae57806310ddb137146103ce5780631be19560146103ee5780631f1fcd511461040e5780631fe4a6861461042e5780632d6068431461044e57806337fded91146104635780633d3ccc2f146104885780633d8b38f6146104a85780633e032a3b146104d85780633eae1112146104fc5780633f1f4fa41461051c57806342d65a8d1461054957806345ee075514610569578063495f881e146105895780635641ec03146105a9578063567ad85d146105c3578063593178de146105f85780635b8c41e61461060d57806366ad5c8a1461065c5780636cbadbfa1461067c578063715018a61461069e5780637533d788146106b35780638cfd8f5c146106d35780638da5cb5b1461070b5780638f4508d014610720578063950c8a74146107355780639589c990146107555780639606647d146107755780639f38369a1461078a578063a6c3d165146107aa578063a8798510146107ca578063a9e50824146107e0578063ab8236f314610800578063adf076e614610820578063b353aaa714610853578063baf3292d14610873578063bd7638bf14610893578063bd79ac13146108b3578063c1a3d44c146108d3578063c1feb7ff146108e8578063c446183414610909578063c7b9d5301461091f578063cbed8b9c1461093f578063d1deba1f1461095f578063d56739ac14610972578063d73cd47f14610987578063df2a5b3b146109a7578063e73620c3146109c7578063eb8d72b7146109e7578063efbb5cb014610a07578063f056dffe14610a1c578063f0fa55a914610a3c578063f2fde38b14610a5c578063f5ecbdbc14610a7c578063fa54080114610a9c578063fbfa77cf14610abc578063fcb988a414610adc57600080fd5b366102d257005b600080fd5b3480156102e357600080fd5b506102f76102f2366004614a1d565b610afc565b005b34801561030557600080fd5b5060ce54610319906001600160a01b031681565b6040516103269190614ab0565b60405180910390f35b34801561033b57600080fd5b5060408051808201909152600d81526c506561726c537472617465677960981b60208201525b6040516103269190614b14565b34801561037a57600080fd5b506102f7610389366004614b27565b610be5565b34801561039a57600080fd5b506102f76103a9366004614b42565b610c52565b3480156103ba57600080fd5b5060d154610319906001600160a01b031681565b3480156103da57600080fd5b506102f76103e9366004614b27565b610c71565b3480156103fa57600080fd5b506102f7610409366004614b81565b610cad565b34801561041a57600080fd5b5060ca54610319906001600160a01b031681565b34801561043a57600080fd5b5060c954610319906001600160a01b031681565b34801561045a57600080fd5b506102f7610d3a565b34801561046f57600080fd5b5060cd546103199061010090046001600160a01b031681565b34801561049457600080fd5b506102f76104a3366004614b9e565b610d7b565b3480156104b457600080fd5b506104c86104c3366004614bb7565b610db1565b6040519015158152602001610326565b3480156104e457600080fd5b506104ee60cc5481565b604051908152602001610326565b34801561050857600080fd5b506104ee610517366004614b9e565b610e7e565b34801561052857600080fd5b506104ee610537366004614b27565b60686020526000908152604090205481565b34801561055557600080fd5b506102f7610564366004614bb7565b610f0c565b34801561057557600080fd5b506102f7610584366004614c17565b610f7f565b34801561059557600080fd5b506102f76105a4366004614d1f565b610f9a565b3480156105b557600080fd5b5060cd546104c89060ff1681565b3480156105cf57600080fd5b5060cb546105e590600160a01b900461ffff1681565b60405161ffff9091168152602001610326565b34801561060457600080fd5b506104ee61123e565b34801561061957600080fd5b506104ee610628366004614d82565b6097602090815260009384526040808520845180860184018051928152908401958401959095209452929052825290205481565b34801561066857600080fd5b506102f7610677366004614a1d565b61129c565b34801561068857600080fd5b5060cb546105e590600160b01b900461ffff1681565b3480156106aa57600080fd5b506102f7611370565b3480156106bf57600080fd5b506103616106ce366004614b27565b611384565b3480156106df57600080fd5b506104ee6106ee366004614ddf565b606760209081526000928352604080842090915290825290205481565b34801561071757600080fd5b5061031961141e565b34801561072c57600080fd5b506104ee61142d565b34801561074157600080fd5b50606954610319906001600160a01b031681565b34801561076157600080fd5b506104ee610770366004614b9e565b6114a7565b34801561078157600080fd5b506102f761153f565b34801561079657600080fd5b506103616107a5366004614b27565b6115d2565b3480156107b657600080fd5b506102f76107c5366004614bb7565b6116e1565b3480156107d657600080fd5b506104ee61264881565b3480156107ec57600080fd5b506104ee6107fb366004614b9e565b61176a565b34801561080c57600080fd5b506102f761081b366004614e12565b611823565b34801561082c57600080fd5b5060cb5461084190600160c01b900460ff1681565b60405160ff9091168152602001610326565b34801561085f57600080fd5b50606554610319906001600160a01b031681565b34801561087f57600080fd5b506102f761088e366004614b81565b61191d565b34801561089f57600080fd5b506102f76108ae366004614eac565b611970565b3480156108bf57600080fd5b506104ee6108ce366004614b9e565b611c71565b3480156108df57600080fd5b506104ee611cc9565b3480156108f457600080fd5b5060d15461084190600160a01b900460ff1681565b34801561091557600080fd5b506104ee61271081565b34801561092b57600080fd5b506102f761093a366004614b81565b611cfa565b34801561094b57600080fd5b506102f761095a366004614f64565b611d24565b6102f761096d366004614a1d565b611d9d565b34801561097e57600080fd5b506104ee611fb3565b34801561099357600080fd5b506102f76109a2366004614b81565b611fe5565b3480156109b357600080fd5b506102f76109c2366004614fd2565b61200f565b3480156109d357600080fd5b506102f76109e2366004614b9e565b6120c1565b3480156109f357600080fd5b506102f7610a02366004614bb7565b6120e1565b348015610a1357600080fd5b506104ee61213b565b348015610a2857600080fd5b506102f7610a3736600461500e565b612255565b348015610a4857600080fd5b506102f7610a57366004614b9e565b6122d4565b348015610a6857600080fd5b506102f7610a77366004614b81565b6122e1565b348015610a8857600080fd5b50610361610a97366004615054565b612357565b348015610aa857600080fd5b506104ee610ab7366004614b9e565b6123ea565b348015610ac857600080fd5b5060cb54610319906001600160a01b031681565b348015610ae857600080fd5b506104ee610af7366004614b9e565b61243c565b6065546001600160a01b03163314610b675760405162461bcd60e51b815260206004820152602360248201527f4261736553747261746567793a3a496e76616c6964456e64706f696e7443616c6044820152623632b960e91b60648201526084015b60405180910390fd5b610bdd8686868080601f01602080910402602001604051908101604052809392919081815260200183838082843760009201919091525050604080516020601f89018190048102820181019092528781528993509150879087908190840183828082843760009201919091525061264092505050565b505050505050565b610bed6126b9565b6065546040516307e0db1760e01b815261ffff831660048201526001600160a01b03909116906307e0db17906024015b600060405180830381600087803b158015610c3757600080fd5b505af1158015610c4b573d6000803e3d6000fd5b5050505050565b610c5a6126b9565b61ffff909116600090815260686020526040902055565b610c796126b9565b6065546040516310ddb13760e01b815261ffff831660048201526001600160a01b03909116906310ddb13790602401610c1d565b610cb5612718565b610d3733826001600160a01b03166370a08231306040518263ffffffff1660e01b8152600401610ce59190614ab0565b602060405180830381865afa158015610d02573d6000803e3d6000fd5b505050506040513d601f19601f82011682018060405250810190610d2691906150a1565b6001600160a01b0384169190612771565b50565b610d42612718565b60c9546040516001600160a01b03909116904780156108fc02916000818181858888f19350505050158015610d37573d6000803e3d6000fd5b610d83612718565b610d8c816127cc565b604051818152600080516020615c00833981519152906020015b60405180910390a150565b61ffff831660009081526066602052604081208054829190610dd2906150ba565b80601f0160208091040260200160405190810160405280929190818152602001828054610dfe906150ba565b8015610e4b5780601f10610e2057610100808354040283529160200191610e4b565b820191906000526020600020905b815481529060010190602001808311610e2e57829003601f168201915b505050505090508383604051610e629291906150f4565b60405180910390208180519060200120149150505b9392505050565b6000610f0682600080516020615be08339815191526001600160a01b031663313ce5676040518163ffffffff1660e01b8152600401602060405180830381865afa158015610ed0573d6000803e3d6000fd5b505050506040513d601f19601f82011682018060405250810190610ef49190615104565b60cb54600160c01b900460ff16612df3565b92915050565b610f146126b9565b6065546040516342d65a8d60e01b81526001600160a01b03909116906342d65a8d90610f4890869086908690600401615150565b600060405180830381600087803b158015610f6257600080fd5b505af1158015610f76573d6000803e3d6000fd5b50505050505050565b610f87612718565b60cd805460ff1916911515919091179055565b610fa2612718565b610fab81612e48565b60cd546000908190819060ff161561105757841561100b5760405162461bcd60e51b815260206004820152601e60248201527f4261736553747261746567793a3a44656274526174696f4e6f745a65726f00006044820152606401610b5e565b6000611015612ece565b905087811015611030576110298189615184565b9250611045565b87811115611045576110428882615184565b93505b61104f8389615184565b915050611069565b6110618888612f10565b919450925090505b60006110758285615197565b9050600080888310156110975761108c838a615184565b9150600090506110a8565b600091506110a58984615184565b90505b6000604051806101600160405280306001600160a01b031681526020014281526020018881526020018781526020018681526020018481526020018381526020018b8152602001836110f861213b565b6111029190615184565b815260200160d0600081548092919061111a906151aa565b9091555081526020018990529050811561117a5760cb5460405161117591849161ffff600160a01b830416916001600160a01b0316906111619060029087906020016151fb565b604051602081830303815290604052613007565b6111a5565b6111a56002826040516020016111919291906151fb565b6040516020818303038152906040526130f5565b7fb983e09c034e9c52b5e547cb0589967992b97717733f580cc5ad0afcdc4b522b8160400151826060015183608001518460a001518560c001518660e001518761010001516040516112289796959493929190968752602087019590955260408601939093526060850191909152608084015260a083015260c082015260e00190565b60405180910390a1505050505050505050505050565b60d05460cb546040513060601b6001600160601b03191660208201526034810192909252600160b01b900460f01b6001600160f01b031916605482015260009060560160405160208183030381529060405280519060200120905090565b3330146112fa5760405162461bcd60e51b815260206004820152602660248201527f4e6f6e626c6f636b696e674c7a4170703a2063616c6c6572206d7573742062656044820152650204c7a4170760d41b6064820152608401610b5e565b610bdd8686868080601f01602080910402602001604051908101604052809392919081815260200183838082843760009201919091525050604080516020601f89018190048102820181019092528781528993509150879087908190840183828082843760009201919091525061327592505050565b6113786126b9565b611382600061338b565b565b6066602052600090815260409020805461139d906150ba565b80601f01602080910402602001604051908101604052809291908181526020018280546113c9906150ba565b80156114165780601f106113eb57610100808354040283529160200191611416565b820191906000526020600020905b8154815290600101906020018083116113f957829003601f168201915b505050505081565b6033546001600160a01b031690565b6040516370a0823160e01b8152600090600080516020615b80833981519152906370a0823190611461903090600401614ab0565b602060405180830381865afa15801561147e573d6000803e3d6000fd5b505050506040513d601f19601f820116820180604052508101906114a291906150a1565b905090565b6040516328bd9fc160e11b8152600090819073f68c20d6c50706f6c6bd8ee184382518c93b368c9063517b3f82906114f390600080516020615ba08339815191529087906004016152ae565b602060405180830381865afa158015611510573d6000803e3d6000fd5b505050506040513d601f19601f8201168201806040525081019061153491906150a1565b9050610e7781610e7e565b611547612718565b60ca546040516370a0823160e01b8152611382916001916001600160a01b03909116906370a082319061157e903090600401614ab0565b602060405180830381865afa15801561159b573d6000803e3d6000fd5b505050506040513d601f19601f820116820180604052508101906115bf91906150a1565b60ca546001600160a01b03169190612771565b61ffff81166000908152606660205260408120805460609291906115f5906150ba565b80601f0160208091040260200160405190810160405280929190818152602001828054611621906150ba565b801561166e5780601f106116435761010080835404028352916020019161166e565b820191906000526020600020905b81548152906001019060200180831161165157829003601f168201915b5050505050905080516000036116c65760405162461bcd60e51b815260206004820152601d60248201527f4c7a4170703a206e6f20747275737465642070617468207265636f72640000006044820152606401610b5e565b610e776000601483516116d99190615184565b8391906133dd565b6116e96126b9565b8181306040516020016116fe939291906152c7565b60408051601f1981840301815291815261ffff85166000908152606660205220906117299082615343565b507f8c0400cfe2d1199b1a725c78960bcc2a344d869b80590d0f2bd005db15a572ce83838360405161175d93929190615150565b60405180910390a1505050565b60ca546040516310e1b98f60e21b815260009182918291600080516020615b6083398151915291634386e63c916117c4916001600160a01b0390911690600080516020615be0833981519152906001908a906004016153fc565b6040805180830381865afa1580156117e0573d6000803e3d6000fd5b505050506040513d601f19601f820116820180604052508101906118049190615427565b9150915061181181610e7e565b61181b9083615197565b949350505050565b60ce546001600160a01b031633148061184b575060cd5461010090046001600160a01b031633145b6118965760405162461bcd60e51b815260206004820152601c60248201527b53674272696467653a3a526f757465724f724272696467654f6e6c7960201b6044820152606401610b5e565b60006118a4868260146133dd565b6040516020016118b4919061544b565b6040516020818303038152906040526118cc90615467565b60601c9050836001600160a01b03167f92073a89a07a000083eb8b2575fc15e7bb936efe55d00727d6942a796d7211a7848360405161190c92919061549e565b60405180910390a250505050505050565b6119256126b9565b606980546001600160a01b0319166001600160a01b0383161790556040517f5db758e995a17ec1ad84bdef7e8c3293a0bd6179bcce400dff5d4c3d87db726b90610da6908390614ab0565b600054610100900460ff16158080156119905750600054600160ff909116105b806119b1575061199f306134ea565b1580156119b1575060005460ff166001145b611a145760405162461bcd60e51b815260206004820152602e60248201527f496e697469616c697a61626c653a20636f6e747261637420697320616c72656160448201526d191e481a5b9a5d1a585b1a5e995960921b6064820152608401610b5e565b6000805460ff191660011790558015611a37576000805461ff0019166101001790555b611a4a8a8a8a8a8a8a8a8a6126486134f9565b60ca54611a77906001600160a01b03167368b3465833fb72a70ecdf485e0e4c7bd8665fc456000196136cc565b60ca54611a9e906001600160a01b0316600080516020615b608339815191526000196136cc565b60d180546001600160a01b0319166001600160a01b038416179055611ae2600080516020615be0833981519152600080516020615b608339815191526000196136cc565b611b0b600080516020615bc0833981519152600080516020615b808339815191526000196136cc565b611b34600080516020615bc0833981519152600080516020615b608339815191526000196136cc565b611b69738f3cf7ad23cd3cadbd9735aff958023239c6a06373195f7b233947d51f4c3b756ad41a5ddb34cebce06000196136cc565b611b92600080516020615ba0833981519152600080516020615b608339815191526000196136cc565b611bad600080516020615be0833981519152836000196136cc565b611bce738f3cf7ad23cd3cadbd9735aff958023239c6a063836000196136cc565b611be9600080516020615ba0833981519152836000196136cc565b61271060cc546064611bfb91906154b5565b611c0591906154cc565b60d160146101000a81548160ff021916908360ff1602179055508015611c65576000805461ff0019169055604051600181527f7f26b83ff96e1f2b6a682f133852f6798a09c465da95921460cefb38474024989060200160405180910390a15b50505050505050505050565b6000610f0682738f3cf7ad23cd3cadbd9735aff958023239c6a0636001600160a01b031663313ce5676040518163ffffffff1660e01b8152600401602060405180830381865afa158015610ed0573d6000803e3d6000fd5b60ca546040516370a0823160e01b81526000916001600160a01b0316906370a0823190611461903090600401614ab0565b611d026126b9565b60c980546001600160a01b0319166001600160a01b0392909216919091179055565b611d2c6126b9565b6065546040516332fb62e760e21b81526001600160a01b039091169063cbed8b9c90611d6490889088908890889088906004016154ee565b600060405180830381600087803b158015611d7e57600080fd5b505af1158015611d92573d6000803e3d6000fd5b505050505050505050565b61ffff86166000908152609760205260408082209051611dc090889088906150f4565b90815260408051602092819003830190206001600160401b03871660009081529252902054905080611e405760405162461bcd60e51b815260206004820152602360248201527f4e6f6e626c6f636b696e674c7a4170703a206e6f2073746f726564206d65737360448201526261676560e81b6064820152608401610b5e565b808383604051611e519291906150f4565b604051809103902014611eb05760405162461bcd60e51b815260206004820152602160248201527f4e6f6e626c6f636b696e674c7a4170703a20696e76616c6964207061796c6f616044820152601960fa1b6064820152608401610b5e565b61ffff87166000908152609760205260408082209051611ed390899089906150f4565b90815260408051602092819003830181206001600160401b038916600090815290845282902093909355601f88018290048202830182019052868252611f6b918991899089908190840183828082843760009201919091525050604080516020601f8a018190048102820181019092528881528a93509150889088908190840183828082843760009201919091525061327592505050565b7fc264d91f3adc5588250e1551f547752ca0cfa8f6b530d243b9f9f4cab10ea8e58787878785604051611fa295949392919061551c565b60405180910390a150505050505050565b6040516246613160e11b8152600090600080516020615b8083398151915290628cc26290611461903090600401614ab0565b611fed6137d0565b60d180546001600160a01b0319166001600160a01b0392909216919091179055565b6120176126b9565b6000811161205f5760405162461bcd60e51b81526020600482015260156024820152744c7a4170703a20696e76616c6964206d696e47617360581b6044820152606401610b5e565b61ffff83811660008181526067602090815260408083209487168084529482529182902085905581519283528201929092529081018290527f9d5c7c0b934da8fefa9c7760c98383778a12dfbfc0c3b3106518f43fb9508ac09060600161175d565b6120c96126b9565b600090815260cf60205260409020805460ff19169055565b6120e96126b9565b61ffff83166000908152606660205260409020612107828483615557565b507ffa41487ad5d6728f0b19276fa1eddc16558578f5109fc39d2dc33c3230470dab83838360405161175d93929190615150565b60006121486107fb61142d565b6040516370a0823160e01b81526121d090600080516020615ba0833981519152906370a082319061217d903090600401614ab0565b602060405180830381865afa15801561219a573d6000803e3d6000fd5b505050506040513d601f19601f820116820180604052508101906121be91906150a1565b6121c6611fb3565b6107709190615197565b60ca546040516370a0823160e01b81526001600160a01b03909116906370a0823190612200903090600401614ab0565b602060405180830381865afa15801561221d573d6000803e3d6000fd5b505050506040513d601f19601f8201168201806040525081019061224191906150a1565b61224b9190615197565b6114a29190615197565b60d1546001600160a01b0316331461228057604051630336158960e61b815260040160405180910390fd5b81836001600160a01b0316856001600160a01b03167f9b2db766e04dc7ee1cc19d1415531ad5b3fd566db4f745d9a8ad51e3d3fe1bd7846040516122c691815260200190565b60405180910390a450505050565b6122dc612718565b60cc55565b6122e96126b9565b6001600160a01b03811661234e5760405162461bcd60e51b815260206004820152602660248201527f4f776e61626c653a206e6577206f776e657220697320746865207a65726f206160448201526564647265737360d01b6064820152608401610b5e565b610d378161338b565b606554604051633d7b2f6f60e21b815261ffff808716600483015285166024820152306044820152606481018390526060916001600160a01b03169063f5ecbdbc90608401600060405180830381865afa1580156123b9573d6000803e3d6000fd5b505050506040513d6000823e601f3d908101601f191682016040526123e19190810190615610565b95945050505050565b6040517b0ca2ba3432b932bab69029b4b3b732b21026b2b9b9b0b3b29d05199960211b6020820152603c8101829052600090605c01604051602081830303815290604052805190602001209050919050565b6000806124bd600080516020615bc08339815191526001600160a01b031663313ce5676040518163ffffffff1660e01b8152600401602060405180830381865afa15801561248e573d6000803e3d6000fd5b505050506040513d601f19601f820116820180604052508101906124b29190615104565b6107fb90600a615761565b9050600061254a8460cb60189054906101000a900460ff16600080516020615bc08339815191526001600160a01b031663313ce5676040518163ffffffff1660e01b8152600401602060405180830381865afa158015612521573d6000803e3d6000fd5b505050506040513d601f19601f820116820180604052508101906125459190615104565b612df3565b905060006125ae8360cb60189054906101000a900460ff16600080516020615bc08339815191526001600160a01b031663313ce5676040518163ffffffff1660e01b8152600401602060405180830381865afa158015612521573d6000803e3d6000fd5b905080600080516020615bc08339815191526001600160a01b031663313ce5676040518163ffffffff1660e01b8152600401602060405180830381865afa1580156125fd573d6000803e3d6000fd5b505050506040513d601f19601f820116820180604052508101906126219190615104565b61262c90600a615761565b61263690846154b5565b6123e191906154cc565b6000806126a35a60966366ad5c8a60e01b898989896040516024016126689493929190615770565b60408051601f198184030181529190526020810180516001600160e01b03166001600160e01b0319909316929092179091523092919061383f565b9150915081610bdd57610bdd86868686856138cb565b336126c261141e565b6001600160a01b0316146113825760405162461bcd60e51b815260206004820181905260248201527f4f776e61626c653a2063616c6c6572206973206e6f7420746865206f776e65726044820152606401610b5e565b60c9546001600160a01b031633146113825760405162461bcd60e51b815260206004820152601c60248201527b10985cd954dd1c985d1959de4e8e93db9b1e54dd1c985d1959da5cdd60221b6044820152606401610b5e565b6127c78363a9059cbb60e01b84846040516024016127909291906152ae565b60408051601f198184030181529190526020810180516001600160e01b03166001600160e01b031990931692909217909152613968565b505050565b600080516020615b808339815191526001600160a01b0316633d18b9126040518163ffffffff1660e01b8152600401600060405180830381600087803b15801561281557600080fd5b505af1158015612829573d6000803e3d6000fd5b50506040516370a0823160e01b81526128a89250600080516020615ba083398151915291506370a0823190612862903090600401614ab0565b602060405180830381865afa15801561287f573d6000803e3d6000fd5b505050506040513d601f19601f820116820180604052508101906128a391906150a1565b613a3d565b60ca546040516370a0823160e01b81526000916001600160a01b0316906370a08231906128d9903090600401614ab0565b602060405180830381865afa1580156128f6573d6000803e3d6000fd5b505050506040513d601f19601f8201168201806040525081019061291a91906150a1565b9050818111156129d05760006129308383615184565b9050600061293f6002836154cc565b60d15460ca546040516310cabd1d60e01b81529293506001600160a01b03808316936310cabd1d9361299b9390921691738f3cf7ad23cd3cadbd9735aff958023239c6a06391879160ff600160a01b90910416906004016157ae565b600060405180830381600087803b1580156129b557600080fd5b505af11580156129c9573d6000803e3d6000fd5b5050505050505b6040516370a0823160e01b8152600090738f3cf7ad23cd3cadbd9735aff958023239c6a063906370a0823190612a0a903090600401614ab0565b602060405180830381865afa158015612a27573d6000803e3d6000fd5b505050506040513d601f19601f82011682018060405250810190612a4b91906150a1565b90508015612ad15760405163a39fc2c560e01b815273195f7b233947d51f4c3b756ad41a5ddb34cebce09063a39fc2c590612a8c908490309060040161549e565b6020604051808303816000875af1158015612aab573d6000803e3d6000fd5b505050506040513d601f19601f82011682018060405250810190612acf91906150a1565b505b6040516370a0823160e01b8152600090600080516020615be0833981519152906370a0823190612b05903090600401614ab0565b602060405180830381865afa158015612b22573d6000803e3d6000fd5b505050506040513d601f19601f82011682018060405250810190612b4691906150a1565b60ca546040516370a0823160e01b81529192506001600160a01b0316906370a0823190612b77903090600401614ab0565b602060405180830381865afa158015612b94573d6000803e3d6000fd5b505050506040513d601f19601f82011682018060405250810190612bb891906150a1565b9250600081118015612bca5750600083115b15612d445760ca546040516326283ecf60e21b81526001600160a01b039091166004820152600080516020615be083398151915260248201526001604482015260648101849052608481018290526000908190600080516020615b60833981519152906398a0fb3c9060a401606060405180830381865afa158015612c53573d6000803e3d6000fd5b505050506040513d601f19601f82011682018060405250810190612c7791906157d9565b5060ca54604051635a47ddc360e01b81526001600160a01b039091166004820152600080516020615be08339815191526024820152600160448201819052606482018490526084820183905260a4820181905260c48201523060e4820152426101048201529193509150600080516020615b6083398151915290635a47ddc390610124016060604051808303816000875af1158015612d1a573d6000803e3d6000fd5b505050506040513d601f19601f82011682018060405250810190612d3e91906157d9565b50505050505b6040516370a0823160e01b8152600090600080516020615bc0833981519152906370a0823190612d78903090600401614ab0565b602060405180830381865afa158015612d95573d6000803e3d6000fd5b505050506040513d601f19601f82011682018060405250810190612db991906150a1565b90508015610c4b5760405163b6b55f2560e01b815260048101829052600080516020615b808339815191529063b6b55f2590602401611d64565b60008260ff168260ff161115612e2957612e0d8383615807565b612e1890600a615761565b612e2290856154b5565b9050610e77565b612e338284615807565b612e3e90600a615761565b612e2290856154cc565b6000612e5261123e565b90506000612e5f826123ea565b60c9549091506001600160a01b0316612e788285613a9b565b6001600160a01b0316146127c75760405162461bcd60e51b815260206004820152601e60248201527f4261736553747261746567793a3a496e76616c69645369676e617475726500006044820152606401610b5e565b6000612ee0612edb61142d565b613abf565b60ca546040516370a0823160e01b81526001600160a01b03909116906370a0823190611461903090600401614ab0565b600080600080612f1e61213b565b9050858110612f3c57612f318682615184565b935060009250612f4d565b60009350612f4a8187615184565b92505b612f5f612f5a8587615197565b613db3565b505060ca546040516370a0823160e01b81526000916001600160a01b0316906370a0823190612f92903090600401614ab0565b602060405180830381865afa158015612faf573d6000803e3d6000fd5b505050506040513d601f19601f82011682018060405250810190612fd391906150a1565b9050848111612fe85780945060009250612ffe565b612ffb612ff58683615184565b87613ee8565b92505b50509250925092565b60cd54604051630dc6346160e01b815260009161010090046001600160a01b031690630dc634619061304190879087908790600401615820565b602060405180830381865afa15801561305e573d6000803e3d6000fd5b505050506040513d601f19601f8201168201806040525081019061308291906150a1565b60cd5460ca54604051633920455b60e11b81529293506001600160a01b036101009092048216926372408ab69285926130c8929116908a908a908a908a9060040161584e565b6000604051808303818588803b1580156130e157600080fd5b505af1158015611c65573d6000803e3d6000fd5b60cb5460408051606083811b6001600160601b03199081166020840152309182901b16603483015282516028818403018152604890920190925260655490926000926001600160a01b03909216916340a7bb109161ffff600160a01b90910416908685613160613efe565b6040518663ffffffff1660e01b815260040161318095949392919061588b565b6040805180830381865afa15801561319c573d6000803e3d6000fd5b505050506040513d601f19601f820116820180604052508101906131c09190615427565b509050804710156131ec5760405162fae2d560e21b815260048101829052476024820152604401610b5e565b60655460cb546001600160a01b039091169063c5803100908390600160a01b900461ffff168587308061321d613efe565b6040518863ffffffff1660e01b815260040161323e969594939291906158df565b6000604051808303818588803b15801561325757600080fd5b505af115801561326b573d6000803e3d6000fd5b5050505050505050565b60cb5461ffff858116600160a01b90920416146132df5760405162461bcd60e51b815260206004820152602260248201527f4261736553747261746567793a3a5661756c74436861696e49644d69736d61746044820152610c6d60f31b6064820152608401610b5e565b60006132ed848260146133dd565b6040516020016132fd919061544b565b60405160208183030381529060405261331590615467565b60cb5460609190911c91506001600160a01b031681146133825760405162461bcd60e51b815260206004820152602260248201527f4261736553747261746567793a3a5661756c74416464726573734d69736d61746044820152610c6d60f31b6064820152608401610b5e565b610c4b82613f2e565b603380546001600160a01b038381166001600160a01b0319831681179093556040519116919082907f8be0079c531659141344cd1fd0a4f28419497f9722a3daafe3b4186f6b6457e090600090a35050565b6060816133eb81601f615197565b101561342a5760405162461bcd60e51b815260206004820152600e60248201526d736c6963655f6f766572666c6f7760901b6044820152606401610b5e565b6134348284615197565b845110156134785760405162461bcd60e51b8152602060048201526011602482015270736c6963655f6f75744f66426f756e647360781b6044820152606401610b5e565b60608215801561349757604051915060008252602082016040526134e1565b6040519150601f8416801560200281840101858101878315602002848b0101015b818310156134d05780518352602092830192016134b8565b5050858452601f01601f1916604052505b50949350505050565b6001600160a01b03163b151590565b600054610100900460ff166135205760405162461bcd60e51b8152600401610b5e90615946565b6135298961405b565b60c980546001600160a01b03808b166001600160a01b03199283161790925560ca80548a8416908316811790915560cb8054938a1661ffff8a16600160a01b029093166001600160b01b0319909416939093179190911790915560cc8290556040805163313ce56760e01b8152905163313ce567916004808201926020929091908290030181865afa1580156135c3573d6000803e3d6000fd5b505050506040513d601f19601f820116820180604052508101906135e79190615104565b60cb8054600060d05562ffffff60b01b1916600160c01b60ff939093169290920261ffff60b01b191691909117600160b01b61ffff87160217905560cd8054610100600160a81b0319166101006001600160a01b03868116919091029190911790915560ce80546001600160a01b03191684831617905560ca5460405163095ea7b360e01b815291169063095ea7b390613689908690600019906004016152ae565b6020604051808303816000875af11580156136a8573d6000803e3d6000fd5b505050506040513d601f19601f82011682018060405250810190611c659190615991565b8015806137465750604051636eb1769f60e11b81523060048201526001600160a01b03838116602483015284169063dd62ed3e90604401602060405180830381865afa158015613720573d6000803e3d6000fd5b505050506040513d601f19601f8201168201806040525081019061374491906150a1565b155b6137b15760405162461bcd60e51b815260206004820152603660248201527f5361666545524332303a20617070726f76652066726f6d206e6f6e2d7a65726f60448201527520746f206e6f6e2d7a65726f20616c6c6f77616e636560501b6064820152608401610b5e565b6127c78363095ea7b360e01b84846040516024016127909291906152ae565b60c9546001600160a01b03163314806137e857503330145b6113825760405162461bcd60e51b815260206004820152602260248201527f4261736553747261746567793a3a4f6e6c79537472617465676973744f725365604482015261363360f11b6064820152608401610b5e565b6000606060008060008661ffff166001600160401b0381111561386457613864614c34565b6040519080825280601f01601f19166020018201604052801561388e576020820181803683370190505b50905060008087516020890160008d8df191503d9250868311156138b0578692505b828152826000602083013e9093509150505b94509492505050565b8180519060200120609760008761ffff1661ffff168152602001908152602001600020856040516138fc919061544b565b9081526040805191829003602090810183206001600160401b0388166000908152915220919091557fe183f33de2837795525b4792ca4cd60535bd77c53b7e7030060bfcf5734d6b0c9061395990879087908790879087906159ae565b60405180910390a15050505050565b60006139bd826040518060400160405280602081526020017f5361666545524332303a206c6f772d6c6576656c2063616c6c206661696c6564815250856001600160a01b03166140939092919063ffffffff16565b90508051600014806139de5750808060200190518101906139de9190615991565b6127c75760405162461bcd60e51b815260206004820152602a60248201527f5361666545524332303a204552433230206f7065726174696f6e20646964206e6044820152691bdd081cdd58d8d9595960b21b6064820152608401610b5e565b80600003613a485750565b60d15460ca546040516310cabd1d60e01b81526001600160a01b03808416936310cabd1d93610c1d93600080516020615ba083398151915293909116918791600160a01b90910460ff16906004016157ae565b6000806000613aaa85856140a2565b91509150613ab7816140e7565b509392505050565b600080516020615b808339815191526001600160a01b0316633d18b9126040518163ffffffff1660e01b8152600401600060405180830381600087803b158015613b0857600080fd5b505af1158015613b1c573d6000803e3d6000fd5b50506040516370a0823160e01b8152613b559250600080516020615ba083398151915291506370a0823190612862903090600401614ab0565b80600003613b605750565b604051632e1a7d4d60e01b815260048101829052600080516020615b8083398151915290632e1a7d4d90602401600060405180830381600087803b158015613ba757600080fd5b505af1158015613bbb573d6000803e3d6000fd5b505060ca546040516310e1b98f60e21b815260009350839250600080516020615b6083398151915291634386e63c91613c15916001600160a01b031690600080516020615be08339815191529060019089906004016153fc565b6040805180830381865afa158015613c31573d6000803e3d6000fd5b505050506040513d601f19601f82011682018060405250810190613c559190615427565b60ca549193509150600080516020615b6083398151915290630dede6c4906001600160a01b0316600080516020615be0833981519152600187613c978861422c565b613ca08861422c565b6040516001600160e01b031960e089901b1681526001600160a01b03968716600482015295909416602486015291151560448501526064840152608483015260a48201523060c48201524260e48201526101040160408051808303816000875af1158015613d12573d6000803e3d6000fd5b505050506040513d601f19601f82011682018060405250810190613d369190615427565b50506040516370a0823160e01b81526127c790600080516020615be0833981519152906370a0823190613d6d903090600401614ab0565b602060405180830381865afa158015613d8a573d6000803e3d6000fd5b505050506040513d601f19601f82011682018060405250810190613dae91906150a1565b614249565b60ca546040516370a0823160e01b8152600091829182916001600160a01b0316906370a0823190613de8903090600401614ab0565b602060405180830381865afa158015613e05573d6000803e3d6000fd5b505050506040513d601f19601f82011682018060405250810190613e2991906150a1565b9050838110613e3d57509192600092509050565b613e4f613e4a8286615184565b6142a7565b60ca546040516370a0823160e01b81526001600160a01b03909116906370a0823190613e7f903090600401614ab0565b602060405180830381865afa158015613e9c573d6000803e3d6000fd5b505050506040513d601f19601f82011682018060405250810190613ec091906150a1565b905080841115613ede57915081613ed78185615184565b9150613ee2565b8392505b50915091565b6000818310613ef75781610e77565b5090919050565b60408051600160f01b6020820152620f424060228083019190915282518083039091018152604290910190915290565b600081806020019051810190613f449190615a00565b90506003816004811115613f5a57613f5a6151c3565b03613fad57600082806020019051810190613f759190615a21565b915050613f8581600001516127cc565b8051604051908152600080516020615c008339815191529060200160405180910390a1505050565b6000816004811115613fc157613fc16151c3565b03613fe857600082806020019051810190613fdc9190615a64565b9150506127c781614388565b6004816004811115613ffc57613ffc6151c3565b03614057576000828060200190518101906140179190615acf565b91505061402781600001516144b2565b80516040517f7c9a2d2ec51230d7dbed27f113a325b7e20aef7b049e68b2339257b5edff5bea9161175d91614ab0565b5050565b600054610100900460ff166140825760405162461bcd60e51b8152600401610b5e90615946565b61408a6144f1565b610d3781614521565b606061181b848460008561456a565b60008082516041036140d85760208301516040840151606085015160001a6140cc87828585614645565b945094505050506140e0565b506000905060025b9250929050565b60008160048111156140fb576140fb6151c3565b036141035750565b6001816004811115614117576141176151c3565b0361415f5760405162461bcd60e51b815260206004820152601860248201527745434453413a20696e76616c6964207369676e617475726560401b6044820152606401610b5e565b6002816004811115614173576141736151c3565b036141c05760405162461bcd60e51b815260206004820152601f60248201527f45434453413a20696e76616c6964207369676e6174757265206c656e677468006044820152606401610b5e565b60038160048111156141d4576141d46151c3565b03610d375760405162461bcd60e51b815260206004820152602260248201527f45434453413a20696e76616c6964207369676e6174757265202773272076616c604482015261756560f01b6064820152608401610b5e565b600061271060cc548361423f91906154b5565b610f0691906154cc565b806000036142545750565b60d15460ca546040516310cabd1d60e01b81526001600160a01b03808416936310cabd1d93610c1d93600080516020615be083398151915293909116918791600160a01b90910460ff16906004016157ae565b806000036142b25750565b60006142bf610770611fb3565b905081811061435e57600080516020615b808339815191526001600160a01b0316633d18b9126040518163ffffffff1660e01b8152600401600060405180830381600087803b15801561431157600080fd5b505af1158015614325573d6000803e3d6000fd5b50506040516370a0823160e01b81526140579250600080516020615ba083398151915291506370a0823190612862903090600401614ab0565b600061437d614370610af78486615184565b61437861142d565b613ee8565b90506127c781613abf565b602080820151600090815260cf909152604090205460ff16156143ed5760405162461bcd60e51b815260206004820152601e60248201527f4261736553747261746567793a3a416c726561647957697468647261776e00006044820152606401610b5e565b6000806143fd8360000151613db3565b91509150600060016040518060800160405280306001600160a01b031681526020018581526020018481526020018660200151815250604051602001614444929190615b1d565b60408051601f19818403018152919052905082156144855760cb5461448090849061ffff600160a01b820416906001600160a01b031684613007565b61448e565b61448e816130f5565b505050602090810151600090815260cf90915260409020805460ff19166001179055565b6144bb816146fc565b60ca546040516370a0823160e01b8152610d379183916001600160a01b03909116906370a082319061157e903090600401614ab0565b600054610100900460ff166145185760405162461bcd60e51b8152600401610b5e90615946565b6113823361338b565b600054610100900460ff166145485760405162461bcd60e51b8152600401610b5e90615946565b606580546001600160a01b0319166001600160a01b0392909216919091179055565b6060824710156145cb5760405162461bcd60e51b815260206004820152602660248201527f416464726573733a20696e73756666696369656e742062616c616e636520666f6044820152651c8818d85b1b60d21b6064820152608401610b5e565b600080866001600160a01b031685876040516145e7919061544b565b60006040518083038185875af1925050503d8060008114614624576040519150601f19603f3d011682016040523d82523d6000602084013e614629565b606091505b509150915061463a87838387614912565b979650505050505050565b6000806fa2a8918ca85bafe22016d0b997e4df60600160ff1b0383111561467257506000905060036138c2565b6040805160008082526020820180845289905260ff881692820192909252606081018690526080810185905260019060a0016020604051602081039080840390855afa1580156146c6573d6000803e3d6000fd5b5050604051601f1901519150506001600160a01b0381166146ef576000600192509250506138c2565b9660009650945050505050565b600080516020615b80833981519152632e1a7d4d61471861142d565b6040518263ffffffff1660e01b815260040161473691815260200190565b600060405180830381600087803b15801561475057600080fd5b505af1158015614764573d6000803e3d6000fd5b50506040516370a0823160e01b81526147f69250839150600080516020615bc0833981519152906370a082319061479f903090600401614ab0565b602060405180830381865afa1580156147bc573d6000803e3d6000fd5b505050506040513d601f19601f820116820180604052508101906147e091906150a1565b600080516020615bc08339815191529190612771565b6040516370a0823160e01b8152614884908290600080516020615be0833981519152906370a082319061482d903090600401614ab0565b602060405180830381865afa15801561484a573d6000803e3d6000fd5b505050506040513d601f19601f8201168201806040525081019061486e91906150a1565b600080516020615be08339815191529190612771565b6040516370a0823160e01b8152610d37908290600080516020615ba0833981519152906370a08231906148bb903090600401614ab0565b602060405180830381865afa1580156148d8573d6000803e3d6000fd5b505050506040513d601f19601f820116820180604052508101906148fc91906150a1565b600080516020615ba08339815191529190612771565b6060831561497f5782516000036149785761492c856134ea565b6149785760405162461bcd60e51b815260206004820152601d60248201527f416464726573733a2063616c6c20746f206e6f6e2d636f6e74726163740000006044820152606401610b5e565b508161181b565b61181b83838151156149945781518083602001fd5b8060405162461bcd60e51b8152600401610b5e9190614b14565b803561ffff811681146149c057600080fd5b919050565b60008083601f8401126149d757600080fd5b5081356001600160401b038111156149ee57600080fd5b6020830191508360208285010111156140e057600080fd5b80356001600160401b03811681146149c057600080fd5b60008060008060008060808789031215614a3657600080fd5b614a3f876149ae565b955060208701356001600160401b0380821115614a5b57600080fd5b614a678a838b016149c5565b9097509550859150614a7b60408a01614a06565b94506060890135915080821115614a9157600080fd5b50614a9e89828a016149c5565b979a9699509497509295939492505050565b6001600160a01b0391909116815260200190565b60005b83811015614adf578181015183820152602001614ac7565b50506000910152565b60008151808452614b00816020860160208601614ac4565b601f01601f19169290920160200192915050565b602081526000610e776020830184614ae8565b600060208284031215614b3957600080fd5b610e77826149ae565b60008060408385031215614b5557600080fd5b614b5e836149ae565b946020939093013593505050565b6001600160a01b0381168114610d3757600080fd5b600060208284031215614b9357600080fd5b8135610e7781614b6c565b600060208284031215614bb057600080fd5b5035919050565b600080600060408486031215614bcc57600080fd5b614bd5846149ae565b925060208401356001600160401b03811115614bf057600080fd5b614bfc868287016149c5565b9497909650939450505050565b8015158114610d3757600080fd5b600060208284031215614c2957600080fd5b8135610e7781614c09565b634e487b7160e01b600052604160045260246000fd5b604051602081016001600160401b0381118282101715614c6c57614c6c614c34565b60405290565b604051601f8201601f191681016001600160401b0381118282101715614c9a57614c9a614c34565b604052919050565b60006001600160401b03821115614cbb57614cbb614c34565b50601f01601f191660200190565b600082601f830112614cda57600080fd5b8135614ced614ce882614ca2565b614c72565b818152846020838601011115614d0257600080fd5b816020850160208301376000918101602001919091529392505050565b600080600080600060a08688031215614d3757600080fd5b8535945060208601359350604086013592506060860135915060808601356001600160401b03811115614d6957600080fd5b614d7588828901614cc9565b9150509295509295909350565b600080600060608486031215614d9757600080fd5b614da0846149ae565b925060208401356001600160401b03811115614dbb57600080fd5b614dc786828701614cc9565b925050614dd660408501614a06565b90509250925092565b60008060408385031215614df257600080fd5b614dfb836149ae565b9150614e09602084016149ae565b90509250929050565b60008060008060008060c08789031215614e2b57600080fd5b614e34876149ae565b955060208701356001600160401b0380821115614e5057600080fd5b614e5c8a838b01614cc9565b96506040890135955060608901359150614e7582614b6c565b9093506080880135925060a08801359080821115614e9257600080fd5b50614e9f89828a01614cc9565b9150509295509295509295565b60008060008060008060008060006101208a8c031215614ecb57600080fd5b8935614ed681614b6c565b985060208a0135614ee681614b6c565b975060408a0135614ef681614b6c565b965060608a0135614f0681614b6c565b9550614f1460808b016149ae565b9450614f2260a08b016149ae565b935060c08a0135614f3281614b6c565b925060e08a0135614f4281614b6c565b91506101008a0135614f5381614b6c565b809150509295985092959850929598565b600080600080600060808688031215614f7c57600080fd5b614f85866149ae565b9450614f93602087016149ae565b93506040860135925060608601356001600160401b03811115614fb557600080fd5b614fc1888289016149c5565b969995985093965092949392505050565b600080600060608486031215614fe757600080fd5b614ff0846149ae565b9250614ffe602085016149ae565b9150604084013590509250925092565b6000806000806080858703121561502457600080fd5b843561502f81614b6c565b9350602085013561503f81614b6c565b93969395505050506040820135916060013590565b6000806000806080858703121561506a57600080fd5b615073856149ae565b9350615081602086016149ae565b9250604085013561509181614b6c565b9396929550929360600135925050565b6000602082840312156150b357600080fd5b5051919050565b600181811c908216806150ce57607f821691505b6020821081036150ee57634e487b7160e01b600052602260045260246000fd5b50919050565b8183823760009101908152919050565b60006020828403121561511657600080fd5b815160ff81168114610e7757600080fd5b81835281816020850137506000828201602090810191909152601f909101601f19169091010190565b61ffff841681526040602082015260006123e1604083018486615127565b634e487b7160e01b600052601160045260246000fd5b81810381811115610f0657610f0661516e565b80820180821115610f0657610f0661516e565b6000600182016151bc576151bc61516e565b5060010190565b634e487b7160e01b600052602160045260246000fd5b600581106151f757634e487b7160e01b600052602160045260246000fd5b9052565b61520581846151d9565b604060208201526152226040820183516001600160a01b03169052565b6020820151606082015260408201516080820152606082015160a0820152608082015160c082015260a082015160e0820152600060c0830151610100818185015260e085015191506101208281860152818601519250610140915082828601528086015192505061016082818601528186015192508061018086015250506123e16101a0840182614ae8565b6001600160a01b03929092168252602082015260400190565b8284823760609190911b6001600160601b0319169101908152601401919050565b601f8211156127c757600081815260208120601f850160051c8101602086101561530f5750805b601f850160051c820191505b81811015610bdd5782815560010161531b565b600019600383901b1c191660019190911b1790565b81516001600160401b0381111561535c5761535c614c34565b6153708161536a84546150ba565b846152e8565b602080601f83116001811461539f576000841561538d5750858301515b615397858261532e565b865550610bdd565b600085815260208120601f198616915b828110156153ce578886015182559484019460019091019084016153af565b50858210156153ec5787850151600019600388901b60f8161c191681555b5050505050600190811b01905550565b6001600160a01b03948516815292909316602083015215156040820152606081019190915260800190565b6000806040838503121561543a57600080fd5b505080516020909101519092909150565b6000825161545d818460208701614ac4565b9190910192915050565b805160208201516001600160601b031980821692919060148310156154965780818460140360031b1b83161693505b505050919050565b9182526001600160a01b0316602082015260400190565b8082028115828204841417610f0657610f0661516e565b6000826154e957634e487b7160e01b600052601260045260246000fd5b500490565b600061ffff80881683528087166020840152508460408301526080606083015261463a608083018486615127565b61ffff8616815260806020820152600061553a608083018688615127565b6001600160401b0394909416604083015250606001529392505050565b6001600160401b0383111561556e5761556e614c34565b6155828361557c83546150ba565b836152e8565b6000601f8411600181146155b0576000851561559e5750838201355b6155a8868261532e565b845550610c4b565b600083815260209020601f19861690835b828110156155e157868501358255602094850194600190920191016155c1565b50868210156155fe5760001960f88860031b161c19848701351681555b505060018560011b0183555050505050565b60006020828403121561562257600080fd5b81516001600160401b0381111561563857600080fd5b8201601f8101841361564957600080fd5b8051615657614ce882614ca2565b81815285602083850101111561566c57600080fd5b6123e1826020830160208601614ac4565b600181815b808511156156b857816000190482111561569e5761569e61516e565b808516156156ab57918102915b93841c9390800290615682565b509250929050565b6000826156cf57506001610f06565b816156dc57506000610f06565b81600181146156f257600281146156fc57615718565b6001915050610f06565b60ff84111561570d5761570d61516e565b50506001821b610f06565b5060208310610133831016604e8410600b841016171561573b575081810a610f06565b615745838361567d565b80600019048211156157595761575961516e565b029392505050565b6000610e7760ff8416836156c0565b61ffff8516815260806020820152600061578d6080830186614ae8565b6001600160401b0385166040840152828103606084015261463a8185614ae8565b6001600160a01b039485168152929093166020830152604082015260ff909116606082015260800190565b6000806000606084860312156157ee57600080fd5b8351925060208401519150604084015190509250925092565b60ff8281168282160390811115610f0657610f0661516e565b61ffff841681526001600160a01b03831660208201526060604082018190526000906123e190830184614ae8565b6001600160a01b0386811682526020820186905261ffff851660408301528316606082015260a06080820181905260009061463a90830184614ae8565b61ffff861681526001600160a01b038516602082015260a0604082018190526000906158b990830186614ae8565b841515606084015282810360808401526158d38185614ae8565b98975050505050505050565b61ffff8716815260c0602082015260006158fc60c0830188614ae8565b828103604084015261590e8188614ae8565b6001600160a01b0387811660608601528616608085015283810360a085015290506159398185614ae8565b9998505050505050505050565b6020808252602b908201527f496e697469616c697a61626c653a20636f6e7472616374206973206e6f74206960408201526a6e697469616c697a696e6760a81b606082015260800190565b6000602082840312156159a357600080fd5b8151610e7781614c09565b61ffff8616815260a0602082015260006159cb60a0830187614ae8565b6001600160401b038616604084015282810360608401526159ec8186614ae8565b905082810360808401526158d38185614ae8565b600060208284031215615a1257600080fd5b815160058110610e7757600080fd5b6000808284036040811215615a3557600080fd5b835192506020601f1982011215615a4b57600080fd5b50615a54614c4a565b6020939093015183525092909150565b6000808284036060811215615a7857600080fd5b835192506040601f1982011215615a8e57600080fd5b50604080519081016001600160401b0381118282101715615ab157615ab1614c34565b60409081526020858101518352940151938101939093525092909150565b6000808284036040811215615ae357600080fd5b835192506020601f1982011215615af957600080fd5b50615b02614c4a565b6020840151615b1081614b6c565b8152919491935090915050565b60a08101615b2b82856151d9565b60018060a01b038351166020830152602083015160408301526040830151606083015260608301516080830152939250505056fe000000000000000000000000cc25c0fd84737f44a7d38649b69491bbf0c7f08300000000000000000000000097bd59a8202f8263c2ec39cf6cf6b438d0b458760000000000000000000000007238390d5f6f64e67c3211c343a410e2a3dec142000000000000000000000000d17cb0f162f133e339c0bbfc18c36c357e681d6b00000000000000000000000040379a439d4f6795b6fc9aa5687db461677a2dbab0c58532a125fc3c0adccaef396bf65344a4d5781cec2e4c593e6b611d75f150a26469706673582212205a1696f29c9cd779c40d025f21ba2d04a686006a4cb6ca19fc2e385fbe40486f64736f6c63430008130033",
  "linkReferences": {},
  "deployedLinkReferences": {}
}