{
  "_format": "hh-sol-artifact-1",
  "contractName": "PearlStrategy",
  "sourceName": "contracts/strategies/PearlStrategy.sol",
  "abi": [
    {
      "inputs": [
        {
          "internalType": "uint256",
          "name": "messageType",
          "type": "uint256"
        }
      ],
      "name": "IncorrectMessageType",
      "type": "error"
    },
    {
      "inputs": [
        {
          "internalType": "uint256",
          "name": "amount",
          "type": "uint256"
        },
        {
          "internalType": "uint256",
          "name": "balance",
          "type": "uint256"
        }
      ],
      "name": "InsufficientFunds",
      "type": "error"
    },
    {
      "anonymous": false,
      "inputs": [
        {
          "indexed": false,
          "internalType": "uint256",
          "name": "debtOutstanding",
          "type": "uint256"
        }
      ],
      "name": "AdjustedPosition",
      "type": "event"
    },
    {
      "anonymous": false,
      "inputs": [
        {
          "indexed": true,
          "internalType": "bytes",
          "name": "lowLevelErrorData",
          "type": "bytes"
        }
      ],
      "name": "EmergencyQuoteOnAlternativeDEX",
      "type": "event"
    },
    {
      "anonymous": false,
      "inputs": [
        {
          "indexed": true,
          "internalType": "bytes",
          "name": "lowLevelErrorData",
          "type": "bytes"
        }
      ],
      "name": "EmergencySwapOnAlternativeDEX",
      "type": "event"
    },
    {
      "anonymous": false,
      "inputs": [
        {
          "indexed": true,
          "internalType": "bytes",
          "name": "lowLevelErrorData",
          "type": "bytes"
        }
      ],
      "name": "EmergencySwapOnPearlRouter",
      "type": "event"
    },
    {
      "anonymous": false,
      "inputs": [
        {
          "indexed": false,
          "internalType": "uint8",
          "name": "version",
          "type": "uint8"
        }
      ],
      "name": "Initialized",
      "type": "event"
    },
    {
      "anonymous": false,
      "inputs": [
        {
          "indexed": false,
          "internalType": "uint16",
          "name": "_srcChainId",
          "type": "uint16"
        },
        {
          "indexed": false,
          "internalType": "bytes",
          "name": "_srcAddress",
          "type": "bytes"
        },
        {
          "indexed": false,
          "internalType": "uint64",
          "name": "_nonce",
          "type": "uint64"
        },
        {
          "indexed": false,
          "internalType": "bytes",
          "name": "_payload",
          "type": "bytes"
        },
        {
          "indexed": false,
          "internalType": "bytes",
          "name": "_reason",
          "type": "bytes"
        }
      ],
      "name": "MessageFailed",
      "type": "event"
    },
    {
      "anonymous": false,
      "inputs": [
        {
          "indexed": true,
          "internalType": "address",
          "name": "src",
          "type": "address"
        },
        {
          "indexed": true,
          "internalType": "address",
          "name": "dst",
          "type": "address"
        },
        {
          "indexed": true,
          "internalType": "uint256",
          "name": "amountOut",
          "type": "uint256"
        },
        {
          "indexed": false,
          "internalType": "uint256",
          "name": "amountIn",
          "type": "uint256"
        }
      ],
      "name": "Notified",
      "type": "event"
    },
    {
      "anonymous": false,
      "inputs": [
        {
          "indexed": true,
          "internalType": "address",
          "name": "previousOwner",
          "type": "address"
        },
        {
          "indexed": true,
          "internalType": "address",
          "name": "newOwner",
          "type": "address"
        }
      ],
      "name": "OwnershipTransferred",
      "type": "event"
    },
    {
      "anonymous": false,
      "inputs": [
        {
          "indexed": true,
          "internalType": "address",
          "name": "src",
          "type": "address"
        },
        {
          "indexed": true,
          "internalType": "address",
          "name": "dst",
          "type": "address"
        },
        {
          "indexed": true,
          "internalType": "uint256",
          "name": "amount",
          "type": "uint256"
        }
      ],
      "name": "Quote",
      "type": "event"
    },
    {
      "anonymous": false,
      "inputs": [
        {
          "indexed": false,
          "internalType": "uint16",
          "name": "_srcChainId",
          "type": "uint16"
        },
        {
          "indexed": false,
          "internalType": "bytes",
          "name": "_srcAddress",
          "type": "bytes"
        },
        {
          "indexed": false,
          "internalType": "uint64",
          "name": "_nonce",
          "type": "uint64"
        },
        {
          "indexed": false,
          "internalType": "bytes32",
          "name": "_payloadHash",
          "type": "bytes32"
        }
      ],
      "name": "RetryMessageSuccess",
      "type": "event"
    },
    {
      "anonymous": false,
      "inputs": [
        {
          "indexed": true,
          "internalType": "bytes32",
          "name": "role",
          "type": "bytes32"
        },
        {
          "indexed": true,
          "internalType": "bytes32",
          "name": "previousAdminRole",
          "type": "bytes32"
        },
        {
          "indexed": true,
          "internalType": "bytes32",
          "name": "newAdminRole",
          "type": "bytes32"
        }
      ],
      "name": "RoleAdminChanged",
      "type": "event"
    },
    {
      "anonymous": false,
      "inputs": [
        {
          "indexed": true,
          "internalType": "bytes32",
          "name": "role",
          "type": "bytes32"
        },
        {
          "indexed": true,
          "internalType": "address",
          "name": "account",
          "type": "address"
        },
        {
          "indexed": true,
          "internalType": "address",
          "name": "sender",
          "type": "address"
        }
      ],
      "name": "RoleGranted",
      "type": "event"
    },
    {
      "anonymous": false,
      "inputs": [
        {
          "indexed": true,
          "internalType": "bytes32",
          "name": "role",
          "type": "bytes32"
        },
        {
          "indexed": true,
          "internalType": "address",
          "name": "account",
          "type": "address"
        },
        {
          "indexed": true,
          "internalType": "address",
          "name": "sender",
          "type": "address"
        }
      ],
      "name": "RoleRevoked",
      "type": "event"
    },
    {
      "anonymous": false,
      "inputs": [
        {
          "indexed": false,
          "internalType": "uint16",
          "name": "_dstChainId",
          "type": "uint16"
        },
        {
          "indexed": false,
          "internalType": "uint16",
          "name": "_type",
          "type": "uint16"
        },
        {
          "indexed": false,
          "internalType": "uint256",
          "name": "_minDstGas",
          "type": "uint256"
        }
      ],
      "name": "SetMinDstGas",
      "type": "event"
    },
    {
      "anonymous": false,
      "inputs": [
        {
          "indexed": false,
          "internalType": "address",
          "name": "precrime",
          "type": "address"
        }
      ],
      "name": "SetPrecrime",
      "type": "event"
    },
    {
      "anonymous": false,
      "inputs": [
        {
          "indexed": false,
          "internalType": "uint16",
          "name": "_remoteChainId",
          "type": "uint16"
        },
        {
          "indexed": false,
          "internalType": "bytes",
          "name": "_path",
          "type": "bytes"
        }
      ],
      "name": "SetTrustedRemote",
      "type": "event"
    },
    {
      "anonymous": false,
      "inputs": [
        {
          "indexed": false,
          "internalType": "uint16",
          "name": "_remoteChainId",
          "type": "uint16"
        },
        {
          "indexed": false,
          "internalType": "bytes",
          "name": "_remoteAddress",
          "type": "bytes"
        }
      ],
      "name": "SetTrustedRemoteAddress",
      "type": "event"
    },
    {
      "anonymous": false,
      "inputs": [
        {
          "indexed": true,
          "internalType": "address",
          "name": "token",
          "type": "address"
        },
        {
          "indexed": false,
          "internalType": "uint256",
          "name": "amount",
          "type": "uint256"
        },
        {
          "indexed": false,
          "internalType": "address",
          "name": "sender",
          "type": "address"
        }
      ],
      "name": "SgReceived",
      "type": "event"
    },
    {
      "anonymous": false,
      "inputs": [
        {
          "indexed": false,
          "internalType": "address",
          "name": "newStrategy",
          "type": "address"
        }
      ],
      "name": "StrategyMigrated",
      "type": "event"
    },
    {
      "anonymous": false,
      "inputs": [
        {
          "indexed": false,
          "internalType": "uint256",
          "name": "profit",
          "type": "uint256"
        },
        {
          "indexed": false,
          "internalType": "uint256",
          "name": "loss",
          "type": "uint256"
        },
        {
          "indexed": false,
          "internalType": "uint256",
          "name": "debtPayment",
          "type": "uint256"
        },
        {
          "indexed": false,
          "internalType": "uint256",
          "name": "giveToStrategy",
          "type": "uint256"
        },
        {
          "indexed": false,
          "internalType": "uint256",
          "name": "requestFromStrategy",
          "type": "uint256"
        },
        {
          "indexed": false,
          "internalType": "uint256",
          "name": "creditAvailable",
          "type": "uint256"
        },
        {
          "indexed": false,
          "internalType": "uint256",
          "name": "totalAssets",
          "type": "uint256"
        }
      ],
      "name": "StrategyReported",
      "type": "event"
    },
    {
      "anonymous": false,
      "inputs": [
        {
          "indexed": true,
          "internalType": "address",
          "name": "src",
          "type": "address"
        },
        {
          "indexed": true,
          "internalType": "address",
          "name": "dst",
          "type": "address"
        },
        {
          "indexed": true,
          "internalType": "uint256",
          "name": "amount",
          "type": "uint256"
        }
      ],
      "name": "Swap",
      "type": "event"
    },
    {
      "inputs": [],
      "name": "DEFAULT_ADMIN_ROLE",
      "outputs": [
        {
          "internalType": "bytes32",
          "name": "",
          "type": "bytes32"
        }
      ],
      "stateMutability": "view",
      "type": "function"
    },
    {
      "inputs": [],
      "name": "DEFAULT_PAYLOAD_SIZE_LIMIT",
      "outputs": [
        {
          "internalType": "uint256",
          "name": "",
          "type": "uint256"
        }
      ],
      "stateMutability": "view",
      "type": "function"
    },
    {
      "inputs": [],
      "name": "DEFAULT_SLIPPAGE",
      "outputs": [
        {
          "internalType": "uint256",
          "name": "",
          "type": "uint256"
        }
      ],
      "stateMutability": "view",
      "type": "function"
    },
    {
      "inputs": [],
      "name": "QUOTE_OPERATION_PROVIDER",
      "outputs": [
        {
          "internalType": "bytes32",
          "name": "",
          "type": "bytes32"
        }
      ],
      "stateMutability": "view",
      "type": "function"
    },
    {
      "inputs": [
        {
          "internalType": "uint256",
          "name": "_debtOutstanding",
          "type": "uint256"
        }
      ],
      "name": "adjustPosition",
      "outputs": [],
      "stateMutability": "nonpayable",
      "type": "function"
    },
    {
      "inputs": [],
      "name": "balanceOfLpStaked",
      "outputs": [
        {
          "internalType": "uint256",
          "name": "",
          "type": "uint256"
        }
      ],
      "stateMutability": "view",
      "type": "function"
    },
    {
      "inputs": [],
      "name": "balanceOfPearlRewards",
      "outputs": [
        {
          "internalType": "uint256",
          "name": "",
          "type": "uint256"
        }
      ],
      "stateMutability": "view",
      "type": "function"
    },
    {
      "inputs": [],
      "name": "balanceOfWant",
      "outputs": [
        {
          "internalType": "uint256",
          "name": "",
          "type": "uint256"
        }
      ],
      "stateMutability": "view",
      "type": "function"
    },
    {
      "inputs": [
        {
          "internalType": "uint256",
          "name": "epoch",
          "type": "uint256"
        }
      ],
      "name": "callMe",
      "outputs": [],
      "stateMutability": "nonpayable",
      "type": "function"
    },
    {
      "inputs": [],
      "name": "clearWant",
      "outputs": [],
      "stateMutability": "nonpayable",
      "type": "function"
    },
    {
      "inputs": [],
      "name": "currentChainId",
      "outputs": [
        {
          "internalType": "uint16",
          "name": "",
          "type": "uint16"
        }
      ],
      "stateMutability": "view",
      "type": "function"
    },
    {
      "inputs": [
        {
          "internalType": "uint256",
          "name": "_daiAmount",
          "type": "uint256"
        }
      ],
      "name": "daiToWant",
      "outputs": [
        {
          "internalType": "uint256",
          "name": "",
          "type": "uint256"
        }
      ],
      "stateMutability": "view",
      "type": "function"
    },
    {
      "inputs": [],
      "name": "emergencyExit",
      "outputs": [
        {
          "internalType": "bool",
          "name": "",
          "type": "bool"
        }
      ],
      "stateMutability": "view",
      "type": "function"
    },
    {
      "inputs": [],
      "name": "estimatedTotalAssets",
      "outputs": [
        {
          "internalType": "uint256",
          "name": "",
          "type": "uint256"
        }
      ],
      "stateMutability": "view",
      "type": "function"
    },
    {
      "inputs": [
        {
          "internalType": "uint16",
          "name": "",
          "type": "uint16"
        },
        {
          "internalType": "bytes",
          "name": "",
          "type": "bytes"
        },
        {
          "internalType": "uint64",
          "name": "",
          "type": "uint64"
        }
      ],
      "name": "failedMessages",
      "outputs": [
        {
          "internalType": "bytes32",
          "name": "",
          "type": "bytes32"
        }
      ],
      "stateMutability": "view",
      "type": "function"
    },
    {
      "inputs": [
        {
          "internalType": "uint16",
          "name": "_srcChainId",
          "type": "uint16"
        },
        {
          "internalType": "bytes",
          "name": "_srcAddress",
          "type": "bytes"
        }
      ],
      "name": "forceResumeReceive",
      "outputs": [],
      "stateMutability": "nonpayable",
      "type": "function"
    },
    {
      "inputs": [
        {
          "internalType": "uint16",
          "name": "_version",
          "type": "uint16"
        },
        {
          "internalType": "uint16",
          "name": "_chainId",
          "type": "uint16"
        },
        {
          "internalType": "address",
          "name": "",
          "type": "address"
        },
        {
          "internalType": "uint256",
          "name": "_configType",
          "type": "uint256"
        }
      ],
      "name": "getConfig",
      "outputs": [
        {
          "internalType": "bytes",
          "name": "",
          "type": "bytes"
        }
      ],
      "stateMutability": "view",
      "type": "function"
    },
    {
      "inputs": [
        {
          "internalType": "bytes32",
          "name": "_messageHash",
          "type": "bytes32"
        }
      ],
      "name": "getEthSignedMessageHash",
      "outputs": [
        {
          "internalType": "bytes32",
          "name": "",
          "type": "bytes32"
        }
      ],
      "stateMutability": "pure",
      "type": "function"
    },
    {
      "inputs": [
        {
          "internalType": "bytes32",
          "name": "role",
          "type": "bytes32"
        }
      ],
      "name": "getRoleAdmin",
      "outputs": [
        {
          "internalType": "bytes32",
          "name": "",
          "type": "bytes32"
        }
      ],
      "stateMutability": "view",
      "type": "function"
    },
    {
      "inputs": [
        {
          "internalType": "uint16",
          "name": "_remoteChainId",
          "type": "uint16"
        }
      ],
      "name": "getTrustedRemoteAddress",
      "outputs": [
        {
          "internalType": "bytes",
          "name": "",
          "type": "bytes"
        }
      ],
      "stateMutability": "view",
      "type": "function"
    },
    {
      "inputs": [
        {
          "internalType": "bytes32",
          "name": "role",
          "type": "bytes32"
        },
        {
          "internalType": "address",
          "name": "account",
          "type": "address"
        }
      ],
      "name": "grantRole",
      "outputs": [],
      "stateMutability": "nonpayable",
      "type": "function"
    },
    {
      "inputs": [
        {
          "internalType": "uint256",
          "name": "_totalDebt",
          "type": "uint256"
        },
        {
          "internalType": "uint256",
          "name": "_debtOutstanding",
          "type": "uint256"
        },
        {
          "internalType": "uint256",
          "name": "_creditAvailable",
          "type": "uint256"
        },
        {
          "internalType": "uint256",
          "name": "_debtRatio",
          "type": "uint256"
        },
        {
          "internalType": "bytes",
          "name": "_signature",
          "type": "bytes"
        }
      ],
      "name": "harvest",
      "outputs": [],
      "stateMutability": "nonpayable",
      "type": "function"
    },
    {
      "inputs": [
        {
          "internalType": "bytes32",
          "name": "role",
          "type": "bytes32"
        },
        {
          "internalType": "address",
          "name": "account",
          "type": "address"
        }
      ],
      "name": "hasRole",
      "outputs": [
        {
          "internalType": "bool",
          "name": "",
          "type": "bool"
        }
      ],
      "stateMutability": "view",
      "type": "function"
    },
    {
      "inputs": [
        {
          "internalType": "address",
          "name": "_lzEndpoint",
          "type": "address"
        },
        {
          "internalType": "address",
          "name": "_strategist",
          "type": "address"
        },
        {
          "internalType": "contract IERC20",
          "name": "_want",
          "type": "address"
        },
        {
          "internalType": "address",
          "name": "_vault",
          "type": "address"
        },
        {
          "internalType": "uint16",
          "name": "_vaultChainId",
          "type": "uint16"
        },
        {
          "internalType": "uint16",
          "name": "_currentChainId",
          "type": "uint16"
        },
        {
          "internalType": "address",
          "name": "_sgBridge",
          "type": "address"
        },
        {
          "internalType": "address",
          "name": "_router",
          "type": "address"
        }
      ],
      "name": "initialize",
      "outputs": [],
      "stateMutability": "nonpayable",
      "type": "function"
    },
    {
      "inputs": [
        {
          "internalType": "uint16",
          "name": "_srcChainId",
          "type": "uint16"
        },
        {
          "internalType": "bytes",
          "name": "_srcAddress",
          "type": "bytes"
        }
      ],
      "name": "isTrustedRemote",
      "outputs": [
        {
          "internalType": "bool",
          "name": "",
          "type": "bool"
        }
      ],
      "stateMutability": "view",
      "type": "function"
    },
    {
      "inputs": [],
      "name": "lzEndpoint",
      "outputs": [
        {
          "internalType": "contract ILayerZeroEndpointUpgradeable",
          "name": "",
          "type": "address"
        }
      ],
      "stateMutability": "view",
      "type": "function"
    },
    {
      "inputs": [
        {
          "internalType": "uint16",
          "name": "_srcChainId",
          "type": "uint16"
        },
        {
          "internalType": "bytes",
          "name": "_srcAddress",
          "type": "bytes"
        },
        {
          "internalType": "uint64",
          "name": "_nonce",
          "type": "uint64"
        },
        {
          "internalType": "bytes",
          "name": "_payload",
          "type": "bytes"
        }
      ],
      "name": "lzReceive",
      "outputs": [],
      "stateMutability": "nonpayable",
      "type": "function"
    },
    {
      "inputs": [
        {
          "internalType": "uint16",
          "name": "",
          "type": "uint16"
        },
        {
          "internalType": "uint16",
          "name": "",
          "type": "uint16"
        }
      ],
      "name": "minDstGasLookup",
      "outputs": [
        {
          "internalType": "uint256",
          "name": "",
          "type": "uint256"
        }
      ],
      "stateMutability": "view",
      "type": "function"
    },
    {
      "inputs": [],
      "name": "name",
      "outputs": [
        {
          "internalType": "string",
          "name": "",
          "type": "string"
        }
      ],
      "stateMutability": "pure",
      "type": "function"
    },
    {
      "inputs": [
        {
          "internalType": "uint16",
          "name": "_srcChainId",
          "type": "uint16"
        },
        {
          "internalType": "bytes",
          "name": "_srcAddress",
          "type": "bytes"
        },
        {
          "internalType": "uint64",
          "name": "_nonce",
          "type": "uint64"
        },
        {
          "internalType": "bytes",
          "name": "_payload",
          "type": "bytes"
        }
      ],
      "name": "nonblockingLzReceive",
      "outputs": [],
      "stateMutability": "nonpayable",
      "type": "function"
    },
    {
      "inputs": [
        {
          "internalType": "address",
          "name": "",
          "type": "address"
        },
        {
          "internalType": "address",
          "name": "",
          "type": "address"
        },
        {
          "internalType": "uint256",
          "name": "amountOut",
          "type": "uint256"
        },
        {
          "internalType": "uint256",
          "name": "",
          "type": "uint256"
        }
      ],
      "name": "notifyCallback",
      "outputs": [],
      "stateMutability": "nonpayable",
      "type": "function"
    },
    {
      "inputs": [],
      "name": "owner",
      "outputs": [
        {
          "internalType": "address",
          "name": "",
          "type": "address"
        }
      ],
      "stateMutability": "view",
      "type": "function"
    },
    {
      "inputs": [
        {
          "internalType": "uint16",
          "name": "",
          "type": "uint16"
        }
      ],
      "name": "payloadSizeLimitLookup",
      "outputs": [
        {
          "internalType": "uint256",
          "name": "",
          "type": "uint256"
        }
      ],
      "stateMutability": "view",
      "type": "function"
    },
    {
      "inputs": [
        {
          "internalType": "uint256",
          "name": "_pearlAmount",
          "type": "uint256"
        }
      ],
      "name": "pearlToWant",
      "outputs": [
        {
          "internalType": "uint256",
          "name": "",
          "type": "uint256"
        }
      ],
      "stateMutability": "view",
      "type": "function"
    },
    {
      "inputs": [],
      "name": "precrime",
      "outputs": [
        {
          "internalType": "address",
          "name": "",
          "type": "address"
        }
      ],
      "stateMutability": "view",
      "type": "function"
    },
    {
      "inputs": [],
      "name": "renounceOwnership",
      "outputs": [],
      "stateMutability": "nonpayable",
      "type": "function"
    },
    {
      "inputs": [
        {
          "internalType": "bytes32",
          "name": "role",
          "type": "bytes32"
        },
        {
          "internalType": "address",
          "name": "account",
          "type": "address"
        }
      ],
      "name": "renounceRole",
      "outputs": [],
      "stateMutability": "nonpayable",
      "type": "function"
    },
    {
      "inputs": [
        {
          "internalType": "uint16",
          "name": "_srcChainId",
          "type": "uint16"
        },
        {
          "internalType": "bytes",
          "name": "_srcAddress",
          "type": "bytes"
        },
        {
          "internalType": "uint64",
          "name": "_nonce",
          "type": "uint64"
        },
        {
          "internalType": "bytes",
          "name": "_payload",
          "type": "bytes"
        }
      ],
      "name": "retryMessage",
      "outputs": [],
      "stateMutability": "payable",
      "type": "function"
    },
    {
      "inputs": [],
      "name": "revokeFunds",
      "outputs": [],
      "stateMutability": "nonpayable",
      "type": "function"
    },
    {
      "inputs": [
        {
          "internalType": "bytes32",
          "name": "role",
          "type": "bytes32"
        },
        {
          "internalType": "address",
          "name": "account",
          "type": "address"
        }
      ],
      "name": "revokeRole",
      "outputs": [],
      "stateMutability": "nonpayable",
      "type": "function"
    },
    {
      "inputs": [
        {
          "internalType": "uint16",
          "name": "_version",
          "type": "uint16"
        },
        {
          "internalType": "uint16",
          "name": "_chainId",
          "type": "uint16"
        },
        {
          "internalType": "uint256",
          "name": "_configType",
          "type": "uint256"
        },
        {
          "internalType": "bytes",
          "name": "_config",
          "type": "bytes"
        }
      ],
      "name": "setConfig",
      "outputs": [],
      "stateMutability": "nonpayable",
      "type": "function"
    },
    {
      "inputs": [
        {
          "internalType": "bool",
          "name": "_emergencyExit",
          "type": "bool"
        }
      ],
      "name": "setEmergencyExit",
      "outputs": [],
      "stateMutability": "nonpayable",
      "type": "function"
    },
    {
      "inputs": [
        {
          "internalType": "uint16",
          "name": "_dstChainId",
          "type": "uint16"
        },
        {
          "internalType": "uint16",
          "name": "_packetType",
          "type": "uint16"
        },
        {
          "internalType": "uint256",
          "name": "_minGas",
          "type": "uint256"
        }
      ],
      "name": "setMinDstGas",
      "outputs": [],
      "stateMutability": "nonpayable",
      "type": "function"
    },
    {
      "inputs": [
        {
          "internalType": "uint16",
          "name": "_dstChainId",
          "type": "uint16"
        },
        {
          "internalType": "uint256",
          "name": "_size",
          "type": "uint256"
        }
      ],
      "name": "setPayloadSizeLimit",
      "outputs": [],
      "stateMutability": "nonpayable",
      "type": "function"
    },
    {
      "inputs": [
        {
          "internalType": "address",
          "name": "_precrime",
          "type": "address"
        }
      ],
      "name": "setPrecrime",
      "outputs": [],
      "stateMutability": "nonpayable",
      "type": "function"
    },
    {
      "inputs": [
        {
          "internalType": "uint16",
          "name": "_version",
          "type": "uint16"
        }
      ],
      "name": "setReceiveVersion",
      "outputs": [],
      "stateMutability": "nonpayable",
      "type": "function"
    },
    {
      "inputs": [
        {
          "internalType": "uint16",
          "name": "_version",
          "type": "uint16"
        }
      ],
      "name": "setSendVersion",
      "outputs": [],
      "stateMutability": "nonpayable",
      "type": "function"
    },
    {
      "inputs": [
        {
          "internalType": "uint256",
          "name": "_slippage",
          "type": "uint256"
        }
      ],
      "name": "setSlippage",
      "outputs": [],
      "stateMutability": "nonpayable",
      "type": "function"
    },
    {
      "inputs": [
        {
          "internalType": "address",
          "name": "_strategist",
          "type": "address"
        }
      ],
      "name": "setStrategist",
      "outputs": [],
      "stateMutability": "nonpayable",
      "type": "function"
    },
    {
      "inputs": [
        {
          "internalType": "address",
          "name": "_swapHelper",
          "type": "address"
        }
      ],
      "name": "setSwapHelper",
      "outputs": [],
      "stateMutability": "nonpayable",
      "type": "function"
    },
    {
      "inputs": [
        {
          "internalType": "uint16",
          "name": "_srcChainId",
          "type": "uint16"
        },
        {
          "internalType": "bytes",
          "name": "_path",
          "type": "bytes"
        }
      ],
      "name": "setTrustedRemote",
      "outputs": [],
      "stateMutability": "nonpayable",
      "type": "function"
    },
    {
      "inputs": [
        {
          "internalType": "uint16",
          "name": "_remoteChainId",
          "type": "uint16"
        },
        {
          "internalType": "bytes",
          "name": "_remoteAddress",
          "type": "bytes"
        }
      ],
      "name": "setTrustedRemoteAddress",
      "outputs": [],
      "stateMutability": "nonpayable",
      "type": "function"
    },
    {
      "inputs": [],
      "name": "sgBridge",
      "outputs": [
        {
          "internalType": "contract ISgBridge",
          "name": "",
          "type": "address"
        }
      ],
      "stateMutability": "view",
      "type": "function"
    },
    {
      "inputs": [
        {
          "internalType": "uint16",
          "name": "",
          "type": "uint16"
        },
        {
          "internalType": "bytes",
          "name": "_srcAddress",
          "type": "bytes"
        },
        {
          "internalType": "uint256",
          "name": "",
          "type": "uint256"
        },
        {
          "internalType": "address",
          "name": "_token",
          "type": "address"
        },
        {
          "internalType": "uint256",
          "name": "_amountLD",
          "type": "uint256"
        },
        {
          "internalType": "bytes",
          "name": "",
          "type": "bytes"
        }
      ],
      "name": "sgReceive",
      "outputs": [],
      "stateMutability": "nonpayable",
      "type": "function"
    },
    {
      "inputs": [],
      "name": "sgRouter",
      "outputs": [
        {
          "internalType": "contract IStargateRouter",
          "name": "",
          "type": "address"
        }
      ],
      "stateMutability": "view",
      "type": "function"
    },
    {
      "inputs": [],
      "name": "slippage",
      "outputs": [
        {
          "internalType": "uint256",
          "name": "",
          "type": "uint256"
        }
      ],
      "stateMutability": "view",
      "type": "function"
    },
    {
      "inputs": [],
      "name": "strategist",
      "outputs": [
        {
          "internalType": "address",
          "name": "",
          "type": "address"
        }
      ],
      "stateMutability": "view",
      "type": "function"
    },
    {
      "inputs": [],
      "name": "strategistSignMessageHash",
      "outputs": [
        {
          "internalType": "bytes32",
          "name": "",
          "type": "bytes32"
        }
      ],
      "stateMutability": "view",
      "type": "function"
    },
    {
      "inputs": [
        {
          "internalType": "bytes4",
          "name": "interfaceId",
          "type": "bytes4"
        }
      ],
      "name": "supportsInterface",
      "outputs": [
        {
          "internalType": "bool",
          "name": "",
          "type": "bool"
        }
      ],
      "stateMutability": "view",
      "type": "function"
    },
    {
      "inputs": [],
      "name": "swapHelper",
      "outputs": [
        {
          "internalType": "contract ISwapHelper",
          "name": "",
          "type": "address"
        }
      ],
      "stateMutability": "view",
      "type": "function"
    },
    {
      "inputs": [
        {
          "internalType": "contract IERC20",
          "name": "_token",
          "type": "address"
        }
      ],
      "name": "sweepToken",
      "outputs": [],
      "stateMutability": "nonpayable",
      "type": "function"
    },
    {
      "inputs": [
        {
          "internalType": "address",
          "name": "newOwner",
          "type": "address"
        }
      ],
      "name": "transferOwnership",
      "outputs": [],
      "stateMutability": "nonpayable",
      "type": "function"
    },
    {
      "inputs": [
        {
          "internalType": "uint16",
          "name": "",
          "type": "uint16"
        }
      ],
      "name": "trustedRemoteLookup",
      "outputs": [
        {
          "internalType": "bytes",
          "name": "",
          "type": "bytes"
        }
      ],
      "stateMutability": "view",
      "type": "function"
    },
    {
      "inputs": [
        {
          "internalType": "uint256",
          "name": "_usdrLpAmount",
          "type": "uint256"
        }
      ],
      "name": "usdrLpToWant",
      "outputs": [
        {
          "internalType": "uint256",
          "name": "",
          "type": "uint256"
        }
      ],
      "stateMutability": "view",
      "type": "function"
    },
    {
      "inputs": [
        {
          "internalType": "uint256",
          "name": "_usdrAmount",
          "type": "uint256"
        }
      ],
      "name": "usdrToWant",
      "outputs": [
        {
          "internalType": "uint256",
          "name": "",
          "type": "uint256"
        }
      ],
      "stateMutability": "view",
      "type": "function"
    },
    {
      "inputs": [],
      "name": "vault",
      "outputs": [
        {
          "internalType": "address",
          "name": "",
          "type": "address"
        }
      ],
      "stateMutability": "view",
      "type": "function"
    },
    {
      "inputs": [],
      "name": "vaultChainId",
      "outputs": [
        {
          "internalType": "uint16",
          "name": "",
          "type": "uint16"
        }
      ],
      "stateMutability": "view",
      "type": "function"
    },
    {
      "inputs": [],
      "name": "want",
      "outputs": [
        {
          "internalType": "contract IERC20",
          "name": "",
          "type": "address"
        }
      ],
      "stateMutability": "view",
      "type": "function"
    },
    {
      "inputs": [],
      "name": "wantDecimals",
      "outputs": [
        {
          "internalType": "uint8",
          "name": "",
          "type": "uint8"
        }
      ],
      "stateMutability": "view",
      "type": "function"
    },
    {
      "inputs": [
        {
          "internalType": "uint256",
          "name": "_wantAmount",
          "type": "uint256"
        }
      ],
      "name": "wantToUsdrLp",
      "outputs": [
        {
          "internalType": "uint256",
          "name": "",
          "type": "uint256"
        }
      ],
      "stateMutability": "view",
      "type": "function"
    },
    {
      "stateMutability": "payable",
      "type": "receive"
    }
  ],
  "bytecode": "0x608060405234801561001057600080fd5b5061683380620000216000396000f3fe6080604052600436106103185760003560e01c80621d35671461032457806301ffc9a7146103465780630517cb761461037b57806306fdde03146103a857806307e0db17146103e75780630df37483146104075780630fc6a11c1461042757806310ddb137146104485780631be19560146104685780631cdb539f146104885780631f1fcd51146104a85780631fe4a686146104c8578063237ea53f146104e8578063248a9ca3146105185780632d606843146105385780632f2ff15d1461054d57806336568abe1461056d57806337fded911461058d5780633d3ccc2f146105b25780633d8b38f6146105d25780633e032a3b146105f25780633eae1112146106085780633f1f4fa41461062857806342d65a8d1461065557806345ee075514610675578063495f881e146106955780635641ec03146106b5578063567ad85d146106cf578063593178de146107045780635b8c41e61461071957806366ad5c8a146107685780636cbadbfa14610788578063715018a6146107aa5780637533d788146107bf5780638cfd8f5c146107df5780638da5cb5b146108175780638f4508d01461082c57806391d1485414610841578063950c8a74146108615780639589c990146108815780639606647d146108a15780639f38369a146108b6578063a217fddf146108d6578063a6c3d165146108eb578063a87985101461090b578063a9e5082414610921578063ab8236f314610941578063adf076e614610961578063b353aaa714610994578063baf3292d146109b4578063bd79ac13146109d4578063c1a3d44c146109f4578063c446183414610a09578063c7b9d53014610a1f578063cbed8b9c14610a3f578063d1deba1f14610a5f578063d547741f14610a72578063d56739ac14610a92578063d73cd47f14610aa7578063df2a5b3b14610ac7578063e73620c314610ae7578063eb8d72b714610b07578063efbb5cb014610b27578063f056dffe14610b3c578063f0fa55a914610b5c578063f2fde38b14610b7c578063f5ecbdbc14610b9c578063fa54080114610bbc578063fbfa77cf14610bdc578063fcb988a414610bfc57600080fd5b3661031f57005b600080fd5b34801561033057600080fd5b5061034461033f36600461535d565b610c1c565b005b34801561035257600080fd5b506103666103613660046153f0565b610d05565b60405190151581526020015b60405180910390f35b34801561038757600080fd5b5060ce5461039b906001600160a01b031681565b604051610372919061541a565b3480156103b457600080fd5b5060408051808201909152600d81526c506561726c537472617465677960981b60208201525b604051610372919061547e565b3480156103f357600080fd5b50610344610402366004615491565b610d3c565b34801561041357600080fd5b506103446104223660046154ac565b610da9565b34801561043357600080fd5b506101355461039b906001600160a01b031681565b34801561045457600080fd5b50610344610463366004615491565b610dc8565b34801561047457600080fd5b506103446104833660046154eb565b610e04565b34801561049457600080fd5b506103446104a3366004615508565b610e91565b3480156104b457600080fd5b5060ca5461039b906001600160a01b031681565b3480156104d457600080fd5b5060c95461039b906001600160a01b031681565b3480156104f457600080fd5b5061050a60008051602061679e83398151915281565b604051908152602001610372565b34801561052457600080fd5b5061050a6105333660046155ba565b6110f1565b34801561054457600080fd5b50610344611107565b34801561055957600080fd5b506103446105683660046155d3565b611148565b34801561057957600080fd5b506103446105883660046155d3565b611169565b34801561059957600080fd5b5060cd5461039b9061010090046001600160a01b031681565b3480156105be57600080fd5b506103446105cd3660046155ba565b6111e7565b3480156105de57600080fd5b506103666105ed366004615603565b61121d565b3480156105fe57600080fd5b5061050a60cc5481565b34801561061457600080fd5b5061050a6106233660046155ba565b6112ea565b34801561063457600080fd5b5061050a610643366004615491565b60686020526000908152604090205481565b34801561066157600080fd5b50610344610670366004615603565b611372565b34801561068157600080fd5b50610344610690366004615663565b6113e5565b3480156106a157600080fd5b506103446106b036600461576b565b611400565b3480156106c157600080fd5b5060cd546103669060ff1681565b3480156106db57600080fd5b5060cb546106f190600160a01b900461ffff1681565b60405161ffff9091168152602001610372565b34801561071057600080fd5b5061050a6116a4565b34801561072557600080fd5b5061050a6107343660046157ce565b6097602090815260009384526040808520845180860184018051928152908401958401959095209452929052825290205481565b34801561077457600080fd5b5061034461078336600461535d565b611702565b34801561079457600080fd5b5060cb546106f190600160b01b900461ffff1681565b3480156107b657600080fd5b506103446117d6565b3480156107cb57600080fd5b506103da6107da366004615491565b6117ea565b3480156107eb57600080fd5b5061050a6107fa36600461582b565b606760209081526000928352604080842090915290825290205481565b34801561082357600080fd5b5061039b611884565b34801561083857600080fd5b5061050a611893565b34801561084d57600080fd5b5061036661085c3660046155d3565b61190d565b34801561086d57600080fd5b5060695461039b906001600160a01b031681565b34801561088d57600080fd5b5061050a61089c3660046155ba565b611939565b3480156108ad57600080fd5b506103446119d1565b3480156108c257600080fd5b506103da6108d1366004615491565b611a64565b3480156108e257600080fd5b5061050a600081565b3480156108f757600080fd5b50610344610906366004615603565b611b73565b34801561091757600080fd5b5061050a61264881565b34801561092d57600080fd5b5061050a61093c3660046155ba565b611bfc565b34801561094d57600080fd5b5061034461095c36600461585e565b611cb5565b34801561096d57600080fd5b5060cb5461098290600160c01b900460ff1681565b60405160ff9091168152602001610372565b3480156109a057600080fd5b5060655461039b906001600160a01b031681565b3480156109c057600080fd5b506103446109cf3660046154eb565b611daf565b3480156109e057600080fd5b5061050a6109ef3660046155ba565b611e02565b348015610a0057600080fd5b5061050a611e5a565b348015610a1557600080fd5b5061050a61271081565b348015610a2b57600080fd5b50610344610a3a3660046154eb565b611e8b565b348015610a4b57600080fd5b50610344610a5a3660046158f8565b611eb5565b610344610a6d36600461535d565b611f23565b348015610a7e57600080fd5b50610344610a8d3660046155d3565b612139565b348015610a9e57600080fd5b5061050a612155565b348015610ab357600080fd5b50610344610ac23660046154eb565b612187565b348015610ad357600080fd5b50610344610ae2366004615966565b6121b2565b348015610af357600080fd5b50610344610b023660046155ba565b612264565b348015610b1357600080fd5b50610344610b22366004615603565b612284565b348015610b3357600080fd5b5061050a6122de565b348015610b4857600080fd5b50610344610b573660046159a2565b6123f8565b348015610b6857600080fd5b50610344610b773660046155ba565b61241a565b348015610b8857600080fd5b50610344610b973660046154eb565b612427565b348015610ba857600080fd5b506103da610bb73660046159e8565b61249d565b348015610bc857600080fd5b5061050a610bd73660046155ba565b612530565b348015610be857600080fd5b5060cb5461039b906001600160a01b031681565b348015610c0857600080fd5b5061050a610c173660046155ba565b612582565b6065546001600160a01b03163314610c875760405162461bcd60e51b815260206004820152602360248201527f4261736553747261746567793a3a496e76616c6964456e64706f696e7443616c6044820152623632b960e91b60648201526084015b60405180910390fd5b610cfd8686868080601f01602080910402602001604051908101604052809392919081815260200183838082843760009201919091525050604080516020601f89018190048102820181019092528781528993509150879087908190840183828082843760009201919091525061278692505050565b505050505050565b60006001600160e01b03198216637965db0b60e01b1480610d3657506301ffc9a760e01b6001600160e01b03198316145b92915050565b610d446127ff565b6065546040516307e0db1760e01b815261ffff831660048201526001600160a01b03909116906307e0db17906024015b600060405180830381600087803b158015610d8e57600080fd5b505af1158015610da2573d6000803e3d6000fd5b5050505050565b610db16127ff565b61ffff909116600090815260686020526040902055565b610dd06127ff565b6065546040516310ddb13760e01b815261ffff831660048201526001600160a01b03909116906310ddb13790602401610d74565b610e0c61285e565b610e8e33826001600160a01b03166370a08231306040518263ffffffff1660e01b8152600401610e3c919061541a565b602060405180830381865afa158015610e59573d6000803e3d6000fd5b505050506040513d601f19601f82011682018060405250810190610e7d9190615a35565b6001600160a01b03841691906128b7565b50565b600054610100900460ff1615808015610eb15750600054600160ff909116105b80610ed25750610ec03061290d565b158015610ed2575060005460ff166001145b610f355760405162461bcd60e51b815260206004820152602e60248201527f496e697469616c697a61626c653a20636f6e747261637420697320616c72656160448201526d191e481a5b9a5d1a585b1a5e995960921b6064820152608401610c7e565b6000805460ff191660011790558015610f58576000805461ff0019166101001790555b610f6061291c565b610f738989898989898989612648612943565b60ca54610fa0906001600160a01b03167368b3465833fb72a70ecdf485e0e4c7bd8665fc45600019612b22565b60ca54610fc7906001600160a01b03166000805160206166fe833981519152600019612b22565b610ff06000805160206167be8339815191526000805160206166fe833981519152600019612b22565b61101960008051602061677e83398151915260008051602061673e833981519152600019612b22565b61104260008051602061677e8339815191526000805160206166fe833981519152600019612b22565b611077738f3cf7ad23cd3cadbd9735aff958023239c6a06373195f7b233947d51f4c3b756ad41a5ddb34cebce0600019612b22565b6110a060008051602061675e8339815191526000805160206166fe833981519152600019612b22565b80156110e6576000805461ff0019169055604051600181527f7f26b83ff96e1f2b6a682f133852f6798a09c465da95921460cefb38474024989060200160405180910390a15b505050505050505050565b6000908152610103602052604090206001015490565b61110f61285e565b60c9546040516001600160a01b03909116904780156108fc02916000818181858888f19350505050158015610e8e573d6000803e3d6000fd5b611151826110f1565b61115a81612c26565b6111648383612c30565b505050565b6001600160a01b03811633146111d95760405162461bcd60e51b815260206004820152602f60248201527f416363657373436f6e74726f6c3a2063616e206f6e6c792072656e6f756e636560448201526e103937b632b9903337b91039b2b63360891b6064820152608401610c7e565b6111e38282612cb7565b5050565b6111ef61285e565b6111f881612d1f565b6040518181526000805160206167de833981519152906020015b60405180910390a150565b61ffff83166000908152606660205260408120805482919061123e90615a4e565b80601f016020809104026020016040519081016040528092919081815260200182805461126a90615a4e565b80156112b75780601f1061128c576101008083540402835291602001916112b7565b820191906000526020600020905b81548152906001019060200180831161129a57829003601f168201915b5050505050905083836040516112ce929190615a88565b60405180910390208180519060200120149150505b9392505050565b6000610d36826000805160206167be8339815191526001600160a01b031663313ce5676040518163ffffffff1660e01b8152600401602060405180830381865afa15801561133c573d6000803e3d6000fd5b505050506040513d601f19601f820116820180604052508101906113609190615a98565b60cb54600160c01b900460ff1661341c565b61137a6127ff565b6065546040516342d65a8d60e01b81526001600160a01b03909116906342d65a8d906113ae90869086908690600401615ae4565b600060405180830381600087803b1580156113c857600080fd5b505af11580156113dc573d6000803e3d6000fd5b50505050505050565b6113ed61285e565b60cd805460ff1916911515919091179055565b61140861285e565b61141181613471565b60cd546000908190819060ff16156114bd5784156114715760405162461bcd60e51b815260206004820152601e60248201527f4261736553747261746567793a3a44656274526174696f4e6f745a65726f00006044820152606401610c7e565b600061147b6134f7565b9050878110156114965761148f8189615b18565b92506114ab565b878111156114ab576114a88882615b18565b93505b6114b58389615b18565b9150506114cf565b6114c78888613539565b919450925090505b60006114db8285615b2b565b9050600080888310156114fd576114f2838a615b18565b91506000905061150e565b6000915061150b8984615b18565b90505b6000604051806101600160405280306001600160a01b031681526020014281526020018881526020018781526020018681526020018481526020018381526020018b81526020018361155e6122de565b6115689190615b18565b815260200160d0600081548092919061158090615b3e565b909155508152602001899052905081156115e05760cb546040516115db91849161ffff600160a01b830416916001600160a01b0316906115c7906002908790602001615b8f565b604051602081830303815290604052613630565b61160b565b61160b6002826040516020016115f7929190615b8f565b60405160208183030381529060405261371e565b7fb983e09c034e9c52b5e547cb0589967992b97717733f580cc5ad0afcdc4b522b8160400151826060015183608001518460a001518560c001518660e0015187610100015160405161168e9796959493929190968752602087019590955260408601939093526060850191909152608084015260a083015260c082015260e00190565b60405180910390a1505050505050505050505050565b60d05460cb546040513060601b6001600160601b03191660208201526034810192909252600160b01b900460f01b6001600160f01b031916605482015260009060560160405160208183030381529060405280519060200120905090565b3330146117605760405162461bcd60e51b815260206004820152602660248201527f4e6f6e626c6f636b696e674c7a4170703a2063616c6c6572206d7573742062656044820152650204c7a4170760d41b6064820152608401610c7e565b610cfd8686868080601f01602080910402602001604051908101604052809392919081815260200183838082843760009201919091525050604080516020601f89018190048102820181019092528781528993509150879087908190840183828082843760009201919091525061389e92505050565b6117de6127ff565b6117e860006139b4565b565b6066602052600090815260409020805461180390615a4e565b80601f016020809104026020016040519081016040528092919081815260200182805461182f90615a4e565b801561187c5780601f106118515761010080835404028352916020019161187c565b820191906000526020600020905b81548152906001019060200180831161185f57829003601f168201915b505050505081565b6033546001600160a01b031690565b6040516370a0823160e01b815260009060008051602061673e833981519152906370a08231906118c790309060040161541a565b602060405180830381865afa1580156118e4573d6000803e3d6000fd5b505050506040513d601f19601f820116820180604052508101906119089190615a35565b905090565b6000918252610103602090815260408084206001600160a01b0393909316845291905290205460ff1690565b6040516328bd9fc160e11b8152600090819073f68c20d6c50706f6c6bd8ee184382518c93b368c9063517b3f82906119859060008051602061675e833981519152908790600401615c3a565b602060405180830381865afa1580156119a2573d6000803e3d6000fd5b505050506040513d601f19601f820116820180604052508101906119c69190615a35565b90506112e3816112ea565b6119d961285e565b60ca546040516370a0823160e01b81526117e8916001916001600160a01b03909116906370a0823190611a1090309060040161541a565b602060405180830381865afa158015611a2d573d6000803e3d6000fd5b505050506040513d601f19601f82011682018060405250810190611a519190615a35565b60ca546001600160a01b031691906128b7565b61ffff8116600090815260666020526040812080546060929190611a8790615a4e565b80601f0160208091040260200160405190810160405280929190818152602001828054611ab390615a4e565b8015611b005780601f10611ad557610100808354040283529160200191611b00565b820191906000526020600020905b815481529060010190602001808311611ae357829003601f168201915b505050505090508051600003611b585760405162461bcd60e51b815260206004820152601d60248201527f4c7a4170703a206e6f20747275737465642070617468207265636f72640000006044820152606401610c7e565b6112e3600060148351611b6b9190615b18565b839190613a06565b611b7b6127ff565b818130604051602001611b9093929190615c53565b60408051601f1981840301815291815261ffff8516600090815260666020522090611bbb9082615ccf565b507f8c0400cfe2d1199b1a725c78960bcc2a344d869b80590d0f2bd005db15a572ce838383604051611bef93929190615ae4565b60405180910390a1505050565b60ca546040516310e1b98f60e21b8152600091829182916000805160206166fe83398151915291634386e63c91611c56916001600160a01b03909116906000805160206167be833981519152906001908a90600401615d88565b6040805180830381865afa158015611c72573d6000803e3d6000fd5b505050506040513d601f19601f82011682018060405250810190611c969190615db3565b91509150611ca3816112ea565b611cad9083615b2b565b949350505050565b60ce546001600160a01b0316331480611cdd575060cd5461010090046001600160a01b031633145b611d285760405162461bcd60e51b815260206004820152601c60248201527b53674272696467653a3a526f757465724f724272696467654f6e6c7960201b6044820152606401610c7e565b6000611d3686826014613a06565b604051602001611d469190615dd7565b604051602081830303815290604052611d5e90615df3565b60601c9050836001600160a01b03167f92073a89a07a000083eb8b2575fc15e7bb936efe55d00727d6942a796d7211a78483604051611d9e929190615e2a565b60405180910390a250505050505050565b611db76127ff565b606980546001600160a01b0319166001600160a01b0383161790556040517f5db758e995a17ec1ad84bdef7e8c3293a0bd6179bcce400dff5d4c3d87db726b9061121290839061541a565b6000610d3682738f3cf7ad23cd3cadbd9735aff958023239c6a0636001600160a01b031663313ce5676040518163ffffffff1660e01b8152600401602060405180830381865afa15801561133c573d6000803e3d6000fd5b60ca546040516370a0823160e01b81526000916001600160a01b0316906370a08231906118c790309060040161541a565b611e936127ff565b60c980546001600160a01b0319166001600160a01b0392909216919091179055565b611ebd6127ff565b6065546040516332fb62e760e21b81526001600160a01b039091169063cbed8b9c90611ef59088908890889088908890600401615e41565b600060405180830381600087803b158015611f0f57600080fd5b505af11580156110e6573d6000803e3d6000fd5b61ffff86166000908152609760205260408082209051611f469088908890615a88565b90815260408051602092819003830190206001600160401b03871660009081529252902054905080611fc65760405162461bcd60e51b815260206004820152602360248201527f4e6f6e626c6f636b696e674c7a4170703a206e6f2073746f726564206d65737360448201526261676560e81b6064820152608401610c7e565b808383604051611fd7929190615a88565b6040518091039020146120365760405162461bcd60e51b815260206004820152602160248201527f4e6f6e626c6f636b696e674c7a4170703a20696e76616c6964207061796c6f616044820152601960fa1b6064820152608401610c7e565b61ffff871660009081526097602052604080822090516120599089908990615a88565b90815260408051602092819003830181206001600160401b038916600090815290845282902093909355601f880182900482028301820190528682526120f1918991899089908190840183828082843760009201919091525050604080516020601f8a018190048102820181019092528881528a93509150889088908190840183828082843760009201919091525061389e92505050565b7fc264d91f3adc5588250e1551f547752ca0cfa8f6b530d243b9f9f4cab10ea8e58787878785604051612128959493929190615e6f565b60405180910390a150505050505050565b612142826110f1565b61214b81612c26565b6111648383612cb7565b6040516246613160e11b815260009060008051602061673e83398151915290628cc262906118c790309060040161541a565b61218f613b13565b61013580546001600160a01b0319166001600160a01b0392909216919091179055565b6121ba6127ff565b600081116122025760405162461bcd60e51b81526020600482015260156024820152744c7a4170703a20696e76616c6964206d696e47617360581b6044820152606401610c7e565b61ffff83811660008181526067602090815260408083209487168084529482529182902085905581519283528201929092529081018290527f9d5c7c0b934da8fefa9c7760c98383778a12dfbfc0c3b3106518f43fb9508ac090606001611bef565b61226c6127ff565b600090815260cf60205260409020805460ff19169055565b61228c6127ff565b61ffff831660009081526066602052604090206122aa828483615eaa565b507ffa41487ad5d6728f0b19276fa1eddc16558578f5109fc39d2dc33c3230470dab838383604051611bef93929190615ae4565b60006122eb61093c611893565b6040516370a0823160e01b81526123739060008051602061675e833981519152906370a082319061232090309060040161541a565b602060405180830381865afa15801561233d573d6000803e3d6000fd5b505050506040513d601f19601f820116820180604052508101906123619190615a35565b612369612155565b61089c9190615b2b565b60ca546040516370a0823160e01b81526001600160a01b03909116906370a08231906123a390309060040161541a565b602060405180830381865afa1580156123c0573d6000803e3d6000fd5b505050506040513d601f19601f820116820180604052508101906123e49190615a35565b6123ee9190615b2b565b6119089190615b2b565b60008051602061679e83398151915261241081612c26565b5050610136555050565b61242261285e565b60cc55565b61242f6127ff565b6001600160a01b0381166124945760405162461bcd60e51b815260206004820152602660248201527f4f776e61626c653a206e6577206f776e657220697320746865207a65726f206160448201526564647265737360d01b6064820152608401610c7e565b610e8e816139b4565b606554604051633d7b2f6f60e21b815261ffff808716600483015285166024820152306044820152606481018390526060916001600160a01b03169063f5ecbdbc90608401600060405180830381865afa1580156124ff573d6000803e3d6000fd5b505050506040513d6000823e601f3d908101601f191682016040526125279190810190615f63565b95945050505050565b6040517b0ca2ba3432b932bab69029b4b3b732b21026b2b9b9b0b3b29d05199960211b6020820152603c8101829052600090605c01604051602081830303815290604052805190602001209050919050565b60008061260360008051602061677e8339815191526001600160a01b031663313ce5676040518163ffffffff1660e01b8152600401602060405180830381865afa1580156125d4573d6000803e3d6000fd5b505050506040513d601f19601f820116820180604052508101906125f89190615a98565b61093c90600a6160b4565b905060006126908460cb60189054906101000a900460ff1660008051602061677e8339815191526001600160a01b031663313ce5676040518163ffffffff1660e01b8152600401602060405180830381865afa158015612667573d6000803e3d6000fd5b505050506040513d601f19601f8201168201806040525081019061268b9190615a98565b61341c565b905060006126f48360cb60189054906101000a900460ff1660008051602061677e8339815191526001600160a01b031663313ce5676040518163ffffffff1660e01b8152600401602060405180830381865afa158015612667573d6000803e3d6000fd5b90508060008051602061677e8339815191526001600160a01b031663313ce5676040518163ffffffff1660e01b8152600401602060405180830381865afa158015612743573d6000803e3d6000fd5b505050506040513d601f19601f820116820180604052508101906127679190615a98565b61277290600a6160b4565b61277c90846160c3565b61252791906160da565b6000806127e95a60966366ad5c8a60e01b898989896040516024016127ae94939291906160fc565b60408051601f198184030181529190526020810180516001600160e01b03166001600160e01b03199093169290921790915230929190613b82565b9150915081610cfd57610cfd8686868685613c0e565b33612808611884565b6001600160a01b0316146117e85760405162461bcd60e51b815260206004820181905260248201527f4f776e61626c653a2063616c6c6572206973206e6f7420746865206f776e65726044820152606401610c7e565b60c9546001600160a01b031633146117e85760405162461bcd60e51b815260206004820152601c60248201527b10985cd954dd1c985d1959de4e8e93db9b1e54dd1c985d1959da5cdd60221b6044820152606401610c7e565b6111648363a9059cbb60e01b84846040516024016128d6929190615c3a565b60408051601f198184030181529190526020810180516001600160e01b03166001600160e01b031990931692909217909152613cab565b6001600160a01b03163b151590565b600054610100900460ff166117e85760405162461bcd60e51b8152600401610c7e9061613a565b600054610100900460ff1661296a5760405162461bcd60e51b8152600401610c7e9061613a565b61297389613d80565b60c980546001600160a01b03808b166001600160a01b03199283161790925560ca80548a8416908316811790915560cb8054938a1661ffff8a16600160a01b029093166001600160b01b0319909416939093179190911790915560cc8290556040805163313ce56760e01b8152905163313ce567916004808201926020929091908290030181865afa158015612a0d573d6000803e3d6000fd5b505050506040513d601f19601f82011682018060405250810190612a319190615a98565b60cb8054600060d05562ffffff60b01b1916600160c01b60ff939093169290920261ffff60b01b191691909117600160b01b61ffff87160217905560cd8054610100600160a81b0319166101006001600160a01b03868116919091029190911790915560ce80546001600160a01b03191684831617905560ca5460405163095ea7b360e01b815291169063095ea7b390612ad390869060001990600401615c3a565b6020604051808303816000875af1158015612af2573d6000803e3d6000fd5b505050506040513d601f19601f82011682018060405250810190612b169190616185565b50505050505050505050565b801580612b9c5750604051636eb1769f60e11b81523060048201526001600160a01b03838116602483015284169063dd62ed3e90604401602060405180830381865afa158015612b76573d6000803e3d6000fd5b505050506040513d601f19601f82011682018060405250810190612b9a9190615a35565b155b612c075760405162461bcd60e51b815260206004820152603660248201527f5361666545524332303a20617070726f76652066726f6d206e6f6e2d7a65726f60448201527520746f206e6f6e2d7a65726f20616c6c6f77616e636560501b6064820152608401610c7e565b6111648363095ea7b360e01b84846040516024016128d6929190615c3a565b610e8e8133613db8565b612c3a828261190d565b6111e3576000828152610103602090815260408083206001600160a01b03851684529091529020805460ff19166001179055612c733390565b6001600160a01b0316816001600160a01b0316837f2f8788117e7eff1d82e926ec794901d17c78024a50270940304540a733656f0d60405160405180910390a45050565b612cc1828261190d565b156111e3576000828152610103602090815260408083206001600160a01b0385168085529252808320805460ff1916905551339285917ff6391f5c32d9c69d2a47ea670b442974b53935d1edc7fd64eb21e047a839171b9190a45050565b60008051602061673e8339815191526001600160a01b0316633d18b9126040518163ffffffff1660e01b8152600401600060405180830381600087803b158015612d6857600080fd5b505af1158015612d7c573d6000803e3d6000fd5b50506040516370a0823160e01b8152612dfb925060008051602061675e83398151915291506370a0823190612db590309060040161541a565b602060405180830381865afa158015612dd2573d6000803e3d6000fd5b505050506040513d601f19601f82011682018060405250810190612df69190615a35565b613e11565b60ca546040516370a0823160e01b81526000916001600160a01b0316906370a0823190612e2c90309060040161541a565b602060405180830381865afa158015612e49573d6000803e3d6000fd5b505050506040513d601f19601f82011682018060405250810190612e6d9190615a35565b905081811115612ff9576000612e838383615b18565b90506000612e926002836160da565b90506000612efc8260cb60189054906101000a900460ff16738f3cf7ad23cd3cadbd9735aff958023239c6a0636001600160a01b031663313ce5676040518163ffffffff1660e01b8152600401602060405180830381865afa158015612667573d6000803e3d6000fd5b6040805160808101825260ca546001600160601b0319606091821b1660a0830152601960ea1b60b4830152738f3cf7ad23cd3cadbd9735aff958023239c6a06360601b60b7830152825160ab81840301815260cb830184528252306020830152918101859052919250600091908101612f7484613f63565b905260405163b858183f60e01b81529091507368b3465833fb72a70ecdf485e0e4c7bd8665fc459063b858183f90612fb09084906004016161a2565b6020604051808303816000875af1158015612fcf573d6000803e3d6000fd5b505050506040513d601f19601f82011682018060405250810190612ff39190615a35565b50505050505b6040516370a0823160e01b8152600090738f3cf7ad23cd3cadbd9735aff958023239c6a063906370a082319061303390309060040161541a565b602060405180830381865afa158015613050573d6000803e3d6000fd5b505050506040513d601f19601f820116820180604052508101906130749190615a35565b905080156130fa5760405163a39fc2c560e01b815273195f7b233947d51f4c3b756ad41a5ddb34cebce09063a39fc2c5906130b59084903090600401615e2a565b6020604051808303816000875af11580156130d4573d6000803e3d6000fd5b505050506040513d601f19601f820116820180604052508101906130f89190615a35565b505b6040516370a0823160e01b81526000906000805160206167be833981519152906370a082319061312e90309060040161541a565b602060405180830381865afa15801561314b573d6000803e3d6000fd5b505050506040513d601f19601f8201168201806040525081019061316f9190615a35565b60ca546040516370a0823160e01b81529192506001600160a01b0316906370a08231906131a090309060040161541a565b602060405180830381865afa1580156131bd573d6000803e3d6000fd5b505050506040513d601f19601f820116820180604052508101906131e19190615a35565b92506000811180156131f35750600083115b1561336d5760ca546040516326283ecf60e21b81526001600160a01b0390911660048201526000805160206167be833981519152602482015260016044820152606481018490526084810182905260009081906000805160206166fe833981519152906398a0fb3c9060a401606060405180830381865afa15801561327c573d6000803e3d6000fd5b505050506040513d601f19601f820116820180604052508101906132a091906161f0565b5060ca54604051635a47ddc360e01b81526001600160a01b0390911660048201526000805160206167be8339815191526024820152600160448201819052606482018490526084820183905260a4820181905260c48201523060e48201524261010482015291935091506000805160206166fe83398151915290635a47ddc390610124016060604051808303816000875af1158015613343573d6000803e3d6000fd5b505050506040513d601f19601f8201168201806040525081019061336791906161f0565b50505050505b6040516370a0823160e01b815260009060008051602061677e833981519152906370a08231906133a190309060040161541a565b602060405180830381865afa1580156133be573d6000803e3d6000fd5b505050506040513d601f19601f820116820180604052508101906133e29190615a35565b90508015610da25760405163b6b55f2560e01b81526004810182905260008051602061673e8339815191529063b6b55f2590602401611ef5565b60008260ff168260ff16111561345257613436838361621e565b61344190600a6160b4565b61344b90856160c3565b90506112e3565b61345c828461621e565b61346790600a6160b4565b61344b90856160da565b600061347b6116a4565b9050600061348882612530565b60c9549091506001600160a01b03166134a18285613f80565b6001600160a01b0316146111645760405162461bcd60e51b815260206004820152601e60248201527f4261736553747261746567793a3a496e76616c69645369676e617475726500006044820152606401610c7e565b6000613509613504611893565b613fa4565b60ca546040516370a0823160e01b81526001600160a01b03909116906370a08231906118c790309060040161541a565b6000806000806135476122de565b90508581106135655761355a8682615b18565b935060009250613576565b600093506135738187615b18565b92505b6135886135838587615b2b565b614298565b505060ca546040516370a0823160e01b81526000916001600160a01b0316906370a08231906135bb90309060040161541a565b602060405180830381865afa1580156135d8573d6000803e3d6000fd5b505050506040513d601f19601f820116820180604052508101906135fc9190615a35565b90508481116136115780945060009250613627565b61362461361e8683615b18565b876143cd565b92505b50509250925092565b60cd54604051630dc6346160e01b815260009161010090046001600160a01b031690630dc634619061366a90879087908790600401616237565b602060405180830381865afa158015613687573d6000803e3d6000fd5b505050506040513d601f19601f820116820180604052508101906136ab9190615a35565b60cd5460ca54604051633920455b60e11b81529293506001600160a01b036101009092048216926372408ab69285926136f1929116908a908a908a908a90600401616265565b6000604051808303818588803b15801561370a57600080fd5b505af1158015612b16573d6000803e3d6000fd5b60cb5460408051606083811b6001600160601b03199081166020840152309182901b16603483015282516028818403018152604890920190925260655490926000926001600160a01b03909216916340a7bb109161ffff600160a01b909104169086856137896143e3565b6040518663ffffffff1660e01b81526004016137a99594939291906162a2565b6040805180830381865afa1580156137c5573d6000803e3d6000fd5b505050506040513d601f19601f820116820180604052508101906137e99190615db3565b509050804710156138155760405162fae2d560e21b815260048101829052476024820152604401610c7e565b60655460cb546001600160a01b039091169063c5803100908390600160a01b900461ffff16858730806138466143e3565b6040518863ffffffff1660e01b8152600401613867969594939291906162f6565b6000604051808303818588803b15801561388057600080fd5b505af1158015613894573d6000803e3d6000fd5b5050505050505050565b60cb5461ffff858116600160a01b90920416146139085760405162461bcd60e51b815260206004820152602260248201527f4261736553747261746567793a3a5661756c74436861696e49644d69736d61746044820152610c6d60f31b6064820152608401610c7e565b600061391684826014613a06565b6040516020016139269190615dd7565b60405160208183030381529060405261393e90615df3565b60cb5460609190911c91506001600160a01b031681146139ab5760405162461bcd60e51b815260206004820152602260248201527f4261736553747261746567793a3a5661756c74416464726573734d69736d61746044820152610c6d60f31b6064820152608401610c7e565b610da282614413565b603380546001600160a01b038381166001600160a01b0319831681179093556040519116919082907f8be0079c531659141344cd1fd0a4f28419497f9722a3daafe3b4186f6b6457e090600090a35050565b606081613a1481601f615b2b565b1015613a535760405162461bcd60e51b815260206004820152600e60248201526d736c6963655f6f766572666c6f7760901b6044820152606401610c7e565b613a5d8284615b2b565b84511015613aa15760405162461bcd60e51b8152602060048201526011602482015270736c6963655f6f75744f66426f756e647360781b6044820152606401610c7e565b606082158015613ac05760405191506000825260208201604052613b0a565b6040519150601f8416801560200281840101858101878315602002848b0101015b81831015613af9578051835260209283019201613ae1565b5050858452601f01601f1916604052505b50949350505050565b60c9546001600160a01b0316331480613b2b57503330145b6117e85760405162461bcd60e51b815260206004820152602260248201527f4261736553747261746567793a3a4f6e6c79537472617465676973744f725365604482015261363360f11b6064820152608401610c7e565b6000606060008060008661ffff166001600160401b03811115613ba757613ba7615680565b6040519080825280601f01601f191660200182016040528015613bd1576020820181803683370190505b50905060008087516020890160008d8df191503d925086831115613bf3578692505b828152826000602083013e9093509150505b94509492505050565b8180519060200120609760008761ffff1661ffff16815260200190815260200160002085604051613c3f9190615dd7565b9081526040805191829003602090810183206001600160401b0388166000908152915220919091557fe183f33de2837795525b4792ca4cd60535bd77c53b7e7030060bfcf5734d6b0c90613c9c908790879087908790879061635d565b60405180910390a15050505050565b6000613d00826040518060400160405280602081526020017f5361666545524332303a206c6f772d6c6576656c2063616c6c206661696c6564815250856001600160a01b03166145349092919063ffffffff16565b9050805160001480613d21575080806020019051810190613d219190616185565b6111645760405162461bcd60e51b815260206004820152602a60248201527f5361666545524332303a204552433230206f7065726174696f6e20646964206e6044820152691bdd081cdd58d8d9595960b21b6064820152608401610c7e565b600054610100900460ff16613da75760405162461bcd60e51b8152600401610c7e9061613a565b613daf614543565b610e8e81614573565b613dc2828261190d565b6111e357613dcf816145bc565b613dda8360206145ce565b604051602001613deb9291906163af565b60408051601f198184030181529082905262461bcd60e51b8252610c7e9160040161547e565b80600003613e1c5750565b6101355460ca546001600160a01b03918216916310cabd1d9160008051602061675e833981519152911684612710613e5761264860646160c3565b613e6191906160da565b6040518563ffffffff1660e01b8152600401613e80949392919061641e565b600060405180830381600087803b158015613e9a57600080fd5b505af1925050508015613eab575060015b613f2a573d808015613ed9576040519150601f19603f3d011682016040523d82523d6000602084013e613ede565b606091505b50613ee882614769565b80604051613ef69190615dd7565b604051908190038120907fab2169d52de19835827d46106e22dfb1c4261618a79928c57f4b4b0c2cfe4f9390600090a25050565b60ca5460405182916001600160a01b03169060008051602061675e8339815191529060008051602061671e83398151915290600090a450565b600061271060cc5483613f7691906160c3565b610d3691906160da565b6000806000613f8f85856148f5565b91509150613f9c8161493a565b509392505050565b60008051602061673e8339815191526001600160a01b0316633d18b9126040518163ffffffff1660e01b8152600401600060405180830381600087803b158015613fed57600080fd5b505af1158015614001573d6000803e3d6000fd5b50506040516370a0823160e01b815261403a925060008051602061675e83398151915291506370a0823190612db590309060040161541a565b806000036140455750565b604051632e1a7d4d60e01b81526004810182905260008051602061673e83398151915290632e1a7d4d90602401600060405180830381600087803b15801561408c57600080fd5b505af11580156140a0573d6000803e3d6000fd5b505060ca546040516310e1b98f60e21b8152600093508392506000805160206166fe83398151915291634386e63c916140fa916001600160a01b0316906000805160206167be833981519152906001908990600401615d88565b6040805180830381865afa158015614116573d6000803e3d6000fd5b505050506040513d601f19601f8201168201806040525081019061413a9190615db3565b60ca5491935091506000805160206166fe83398151915290630dede6c4906001600160a01b03166000805160206167be83398151915260018761417c88613f63565b61418588613f63565b6040516001600160e01b031960e089901b1681526001600160a01b03968716600482015295909416602486015291151560448501526064840152608483015260a48201523060c48201524260e48201526101040160408051808303816000875af11580156141f7573d6000803e3d6000fd5b505050506040513d601f19601f8201168201806040525081019061421b9190615db3565b50506040516370a0823160e01b8152611164906000805160206167be833981519152906370a082319061425290309060040161541a565b602060405180830381865afa15801561426f573d6000803e3d6000fd5b505050506040513d601f19601f820116820180604052508101906142939190615a35565b614a7f565b60ca546040516370a0823160e01b8152600091829182916001600160a01b0316906370a08231906142cd90309060040161541a565b602060405180830381865afa1580156142ea573d6000803e3d6000fd5b505050506040513d601f19601f8201168201806040525081019061430e9190615a35565b905083811061432257509192600092509050565b61433461432f8286615b18565b614b8f565b60ca546040516370a0823160e01b81526001600160a01b03909116906370a082319061436490309060040161541a565b602060405180830381865afa158015614381573d6000803e3d6000fd5b505050506040513d601f19601f820116820180604052508101906143a59190615a35565b9050808411156143c3579150816143bc8185615b18565b91506143c7565b8392505b50915091565b60008183106143dc57816112e3565b5090919050565b60408051600160f01b6020820152620f424060228083019190915282518083039091018152604290910190915290565b6000818060200190518101906144299190616449565b9050600381600481111561443f5761443f615b57565b0361448a5760008280602001905181019061445a919061646a565b91505061446a8160000151612d1f565b80516040519081526000805160206167de83398151915290602001611bef565b600081600481111561449e5761449e615b57565b036144c5576000828060200190518101906144b991906164ad565b91505061116481614c70565b60048160048111156144d9576144d9615b57565b036111e3576000828060200190518101906144f49190616518565b9150506145048160000151614d9a565b80516040517f7c9a2d2ec51230d7dbed27f113a325b7e20aef7b049e68b2339257b5edff5bea91611bef9161541a565b6060611cad8484600085614dd9565b600054610100900460ff1661456a5760405162461bcd60e51b8152600401610c7e9061613a565b6117e8336139b4565b600054610100900460ff1661459a5760405162461bcd60e51b8152600401610c7e9061613a565b606580546001600160a01b0319166001600160a01b0392909216919091179055565b6060610d366001600160a01b03831660145b606060006145dd8360026160c3565b6145e8906002615b2b565b6001600160401b038111156145ff576145ff615680565b6040519080825280601f01601f191660200182016040528015614629576020820181803683370190505b509050600360fc1b8160008151811061464457614644616566565b60200101906001600160f81b031916908160001a905350600f60fb1b8160018151811061467357614673616566565b60200101906001600160f81b031916908160001a90535060006146978460026160c3565b6146a2906001615b2b565b90505b600181111561471a576f181899199a1a9b1b9c1cb0b131b232b360811b85600f16601081106146d6576146d6616566565b1a60f81b8282815181106146ec576146ec616566565b60200101906001600160f81b031916908160001a90535060049490941c936147138161657c565b90506146a5565b5083156112e35760405162461bcd60e51b815260206004820181905260248201527f537472696e67733a20686578206c656e67746820696e73756666696369656e746044820152606401610c7e565b60408051600280825260608201909252600091816020015b60408051606081018252600080825260208083018290529282015282526000199092019101816147815750506040805160608101825260008051602061675e83398151915281526000805160206167be833981519152602082015260009181018290528251929350918391906147f9576147f9616566565b602090810291909101810191909152604080516060810182526000805160206167be833981519152815260ca546001600160a01b03169281019290925260019082018190528251839190811061485157614851616566565b6020026020010181905250600061486783611939565b90506000805160206166fe83398151915263f41766d88461488784613f63565b8530426040518663ffffffff1660e01b81526004016148aa959493929190616593565b6000604051808303816000875af19250505080156148ea57506040513d6000823e601f3d908101601f191682016040526148e79190810190616622565b60015b156111645750505050565b600080825160410361492b5760208301516040840151606085015160001a61491f87828585614eb4565b94509450505050614933565b506000905060025b9250929050565b600081600481111561494e5761494e615b57565b036149565750565b600181600481111561496a5761496a615b57565b036149b25760405162461bcd60e51b815260206004820152601860248201527745434453413a20696e76616c6964207369676e617475726560401b6044820152606401610c7e565b60028160048111156149c6576149c6615b57565b03614a135760405162461bcd60e51b815260206004820152601f60248201527f45434453413a20696e76616c6964207369676e6174757265206c656e677468006044820152606401610c7e565b6003816004811115614a2757614a27615b57565b03610e8e5760405162461bcd60e51b815260206004820152602260248201527f45434453413a20696e76616c6964207369676e6174757265202773272076616c604482015261756560f01b6064820152608401610c7e565b80600003614a8a5750565b6101355460ca546001600160a01b03918216916310cabd1d916000805160206167be833981519152911684612710614ac561264860646160c3565b614acf91906160da565b6040518563ffffffff1660e01b8152600401614aee949392919061641e565b600060405180830381600087803b158015614b0857600080fd5b505af1925050508015614b19575060015b614b56573d808015614b47576040519150601f19603f3d011682016040523d82523d6000602084013e614b4c565b606091505b50613ee882614f6b565b60ca5460405182916001600160a01b0316906000805160206167be8339815191529060008051602061671e83398151915290600090a450565b80600003614b9a5750565b6000614ba761089c612155565b9050818110614c465760008051602061673e8339815191526001600160a01b0316633d18b9126040518163ffffffff1660e01b8152600401600060405180830381600087803b158015614bf957600080fd5b505af1158015614c0d573d6000803e3d6000fd5b50506040516370a0823160e01b81526111e3925060008051602061675e83398151915291506370a0823190612db590309060040161541a565b6000614c65614c58610c178486615b18565b614c60611893565b6143cd565b905061116481613fa4565b602080820151600090815260cf909152604090205460ff1615614cd55760405162461bcd60e51b815260206004820152601e60248201527f4261736553747261746567793a3a416c726561647957697468647261776e00006044820152606401610c7e565b600080614ce58360000151614298565b91509150600060016040518060800160405280306001600160a01b031681526020018581526020018481526020018660200151815250604051602001614d2c9291906166bb565b60408051601f1981840301815291905290508215614d6d5760cb54614d6890849061ffff600160a01b820416906001600160a01b031684613630565b614d76565b614d768161371e565b505050602090810151600090815260cf90915260409020805460ff19166001179055565b614da38161503c565b60ca546040516370a0823160e01b8152610e8e9183916001600160a01b03909116906370a0823190611a1090309060040161541a565b606082471015614e3a5760405162461bcd60e51b815260206004820152602660248201527f416464726573733a20696e73756666696369656e742062616c616e636520666f6044820152651c8818d85b1b60d21b6064820152608401610c7e565b600080866001600160a01b03168587604051614e569190615dd7565b60006040518083038185875af1925050503d8060008114614e93576040519150601f19603f3d011682016040523d82523d6000602084013e614e98565b606091505b5091509150614ea987838387615252565b979650505050505050565b6000806fa2a8918ca85bafe22016d0b997e4df60600160ff1b03831115614ee15750600090506003613c05565b6040805160008082526020820180845289905260ff881692820192909252606081018690526080810185905260019060a0016020604051602081039080840390855afa158015614f35573d6000803e3d6000fd5b5050604051601f1901519150506001600160a01b038116614f5e57600060019250925050613c05565b9660009650945050505050565b6000614f76826112ea565b90506000805160206166fe8339815191526313dcfc5983614f9684613f63565b60ca5460405160e085901b6001600160e01b0319168152600481019390935260248301919091526000805160206167be83398151915260448301526001600160a01b03166064820152600160848201523060a48201524260c482015260e4016000604051808303816000875af1158015615014573d6000803e3d6000fd5b505050506040513d6000823e601f3d908101601f191682016040526111649190810190616622565b60008051602061673e833981519152632e1a7d4d615058611893565b6040518263ffffffff1660e01b815260040161507691815260200190565b600060405180830381600087803b15801561509057600080fd5b505af11580156150a4573d6000803e3d6000fd5b50506040516370a0823160e01b8152615136925083915060008051602061677e833981519152906370a08231906150df90309060040161541a565b602060405180830381865afa1580156150fc573d6000803e3d6000fd5b505050506040513d601f19601f820116820180604052508101906151209190615a35565b60008051602061677e83398151915291906128b7565b6040516370a0823160e01b81526151c49082906000805160206167be833981519152906370a082319061516d90309060040161541a565b602060405180830381865afa15801561518a573d6000803e3d6000fd5b505050506040513d601f19601f820116820180604052508101906151ae9190615a35565b6000805160206167be83398151915291906128b7565b6040516370a0823160e01b8152610e8e90829060008051602061675e833981519152906370a08231906151fb90309060040161541a565b602060405180830381865afa158015615218573d6000803e3d6000fd5b505050506040513d601f19601f8201168201806040525081019061523c9190615a35565b60008051602061675e83398151915291906128b7565b606083156152bf5782516000036152b85761526c8561290d565b6152b85760405162461bcd60e51b815260206004820152601d60248201527f416464726573733a2063616c6c20746f206e6f6e2d636f6e74726163740000006044820152606401610c7e565b5081611cad565b611cad83838151156152d45781518083602001fd5b8060405162461bcd60e51b8152600401610c7e919061547e565b803561ffff8116811461530057600080fd5b919050565b60008083601f84011261531757600080fd5b5081356001600160401b0381111561532e57600080fd5b60208301915083602082850101111561493357600080fd5b80356001600160401b038116811461530057600080fd5b6000806000806000806080878903121561537657600080fd5b61537f876152ee565b955060208701356001600160401b038082111561539b57600080fd5b6153a78a838b01615305565b90975095508591506153bb60408a01615346565b945060608901359150808211156153d157600080fd5b506153de89828a01615305565b979a9699509497509295939492505050565b60006020828403121561540257600080fd5b81356001600160e01b0319811681146112e357600080fd5b6001600160a01b0391909116815260200190565b60005b83811015615449578181015183820152602001615431565b50506000910152565b6000815180845261546a81602086016020860161542e565b601f01601f19169290920160200192915050565b6020815260006112e36020830184615452565b6000602082840312156154a357600080fd5b6112e3826152ee565b600080604083850312156154bf57600080fd5b6154c8836152ee565b946020939093013593505050565b6001600160a01b0381168114610e8e57600080fd5b6000602082840312156154fd57600080fd5b81356112e3816154d6565b600080600080600080600080610100898b03121561552557600080fd5b8835615530816154d6565b97506020890135615540816154d6565b96506040890135615550816154d6565b95506060890135615560816154d6565b945061556e60808a016152ee565b935061557c60a08a016152ee565b925060c089013561558c816154d6565b915060e089013561559c816154d6565b809150509295985092959890939650565b6001600160a01b03169052565b6000602082840312156155cc57600080fd5b5035919050565b600080604083850312156155e657600080fd5b8235915060208301356155f8816154d6565b809150509250929050565b60008060006040848603121561561857600080fd5b615621846152ee565b925060208401356001600160401b0381111561563c57600080fd5b61564886828701615305565b9497909650939450505050565b8015158114610e8e57600080fd5b60006020828403121561567557600080fd5b81356112e381615655565b634e487b7160e01b600052604160045260246000fd5b604051602081016001600160401b03811182821017156156b8576156b8615680565b60405290565b604051601f8201601f191681016001600160401b03811182821017156156e6576156e6615680565b604052919050565b60006001600160401b0382111561570757615707615680565b50601f01601f191660200190565b600082601f83011261572657600080fd5b8135615739615734826156ee565b6156be565b81815284602083860101111561574e57600080fd5b816020850160208301376000918101602001919091529392505050565b600080600080600060a0868803121561578357600080fd5b8535945060208601359350604086013592506060860135915060808601356001600160401b038111156157b557600080fd5b6157c188828901615715565b9150509295509295909350565b6000806000606084860312156157e357600080fd5b6157ec846152ee565b925060208401356001600160401b0381111561580757600080fd5b61581386828701615715565b92505061582260408501615346565b90509250925092565b6000806040838503121561583e57600080fd5b615847836152ee565b9150615855602084016152ee565b90509250929050565b60008060008060008060c0878903121561587757600080fd5b615880876152ee565b955060208701356001600160401b038082111561589c57600080fd5b6158a88a838b01615715565b965060408901359550606089013591506158c1826154d6565b9093506080880135925060a088013590808211156158de57600080fd5b506158eb89828a01615715565b9150509295509295509295565b60008060008060006080868803121561591057600080fd5b615919866152ee565b9450615927602087016152ee565b93506040860135925060608601356001600160401b0381111561594957600080fd5b61595588828901615305565b969995985093965092949392505050565b60008060006060848603121561597b57600080fd5b615984846152ee565b9250615992602085016152ee565b9150604084013590509250925092565b600080600080608085870312156159b857600080fd5b84356159c3816154d6565b935060208501356159d3816154d6565b93969395505050506040820135916060013590565b600080600080608085870312156159fe57600080fd5b615a07856152ee565b9350615a15602086016152ee565b92506040850135615a25816154d6565b9396929550929360600135925050565b600060208284031215615a4757600080fd5b5051919050565b600181811c90821680615a6257607f821691505b602082108103615a8257634e487b7160e01b600052602260045260246000fd5b50919050565b8183823760009101908152919050565b600060208284031215615aaa57600080fd5b815160ff811681146112e357600080fd5b81835281816020850137506000828201602090810191909152601f909101601f19169091010190565b61ffff84168152604060208201526000612527604083018486615abb565b634e487b7160e01b600052601160045260246000fd5b81810381811115610d3657610d36615b02565b80820180821115610d3657610d36615b02565b600060018201615b5057615b50615b02565b5060010190565b634e487b7160e01b600052602160045260246000fd5b60058110615b8b57634e487b7160e01b600052602160045260246000fd5b9052565b615b998184615b6d565b60406020820152615bae6040820183516155ad565b6020820151606082015260408201516080820152606082015160a0820152608082015160c082015260a082015160e0820152600060c0830151610100818185015260e085015191506101208281860152818601519250610140915082828601528086015192505061016082818601528186015192508061018086015250506125276101a0840182615452565b6001600160a01b03929092168252602082015260400190565b8284823760609190911b6001600160601b0319169101908152601401919050565b601f82111561116457600081815260208120601f850160051c81016020861015615c9b5750805b601f850160051c820191505b81811015610cfd57828155600101615ca7565b600019600383901b1c191660019190911b1790565b81516001600160401b03811115615ce857615ce8615680565b615cfc81615cf68454615a4e565b84615c74565b602080601f831160018114615d2b5760008415615d195750858301515b615d238582615cba565b865550610cfd565b600085815260208120601f198616915b82811015615d5a57888601518255948401946001909101908401615d3b565b5085821015615d785787850151600019600388901b60f8161c191681555b5050505050600190811b01905550565b6001600160a01b03948516815292909316602083015215156040820152606081019190915260800190565b60008060408385031215615dc657600080fd5b505080516020909101519092909150565b60008251615de981846020870161542e565b9190910192915050565b805160208201516001600160601b03198082169291906014831015615e225780818460140360031b1b83161693505b505050919050565b9182526001600160a01b0316602082015260400190565b600061ffff808816835280871660208401525084604083015260806060830152614ea9608083018486615abb565b61ffff86168152608060208201526000615e8d608083018688615abb565b6001600160401b0394909416604083015250606001529392505050565b6001600160401b03831115615ec157615ec1615680565b615ed583615ecf8354615a4e565b83615c74565b6000601f841160018114615f035760008515615ef15750838201355b615efb8682615cba565b845550610da2565b600083815260209020601f19861690835b82811015615f345786850135825560209485019460019092019101615f14565b5086821015615f515760001960f88860031b161c19848701351681555b505060018560011b0183555050505050565b600060208284031215615f7557600080fd5b81516001600160401b03811115615f8b57600080fd5b8201601f81018413615f9c57600080fd5b8051615faa615734826156ee565b818152856020838501011115615fbf57600080fd5b61252782602083016020860161542e565b600181815b8085111561600b578160001904821115615ff157615ff1615b02565b80851615615ffe57918102915b93841c9390800290615fd5565b509250929050565b60008261602257506001610d36565b8161602f57506000610d36565b8160018114616045576002811461604f5761606b565b6001915050610d36565b60ff84111561606057616060615b02565b50506001821b610d36565b5060208310610133831016604e8410600b841016171561608e575081810a610d36565b6160988383615fd0565b80600019048211156160ac576160ac615b02565b029392505050565b60006112e360ff841683616013565b8082028115828204841417610d3657610d36615b02565b6000826160f757634e487b7160e01b600052601260045260246000fd5b500490565b61ffff851681526080602082015260006161196080830186615452565b6001600160401b03851660408401528281036060840152614ea98185615452565b6020808252602b908201527f496e697469616c697a61626c653a20636f6e7472616374206973206e6f74206960408201526a6e697469616c697a696e6760a81b606082015260800190565b60006020828403121561619757600080fd5b81516112e381615655565b6020815260008251608060208401526161be60a0840182615452565b905060018060a01b03602085015116604084015260408401516060840152606084015160808401528091505092915050565b60008060006060848603121561620557600080fd5b8351925060208401519150604084015190509250925092565b60ff8281168282160390811115610d3657610d36615b02565b61ffff841681526001600160a01b038316602082015260606040820181905260009061252790830184615452565b6001600160a01b0386811682526020820186905261ffff851660408301528316606082015260a060808201819052600090614ea990830184615452565b61ffff861681526001600160a01b038516602082015260a0604082018190526000906162d090830186615452565b841515606084015282810360808401526162ea8185615452565b98975050505050505050565b61ffff8716815260c06020820152600061631360c0830188615452565b82810360408401526163258188615452565b6001600160a01b0387811660608601528616608085015283810360a085015290506163508185615452565b9998505050505050505050565b61ffff8616815260a06020820152600061637a60a0830187615452565b6001600160401b0386166040840152828103606084015261639b8186615452565b905082810360808401526162ea8185615452565b76020b1b1b2b9b9a1b7b73a3937b61d1030b1b1b7bab73a1604d1b8152600083516163e181601785016020880161542e565b7001034b99036b4b9b9b4b733903937b6329607d1b601791840191820152835161641281602884016020880161542e565b01602801949350505050565b6001600160a01b039485168152929093166020830152604082015260ff909116606082015260800190565b60006020828403121561645b57600080fd5b8151600581106112e357600080fd5b600080828403604081121561647e57600080fd5b835192506020601f198201121561649457600080fd5b5061649d615696565b6020939093015183525092909150565b60008082840360608112156164c157600080fd5b835192506040601f19820112156164d757600080fd5b50604080519081016001600160401b03811182821017156164fa576164fa615680565b60409081526020858101518352940151938101939093525092909150565b600080828403604081121561652c57600080fd5b835192506020601f198201121561654257600080fd5b5061654b615696565b6020840151616559816154d6565b8152919491935090915050565b634e487b7160e01b600052603260045260246000fd5b60008161658b5761658b615b02565b506000190190565b600060a0820187835260208781850152604060a08186015282885180855260c087019150838a01945060005b818110156165fc57855180516001600160a01b039081168552868201511686850152840151151584840152948401946060909201916001016165bf565b50508094505050505061661260608301856155ad565b8260808301529695505050505050565b6000602080838503121561663557600080fd5b82516001600160401b038082111561664c57600080fd5b818501915085601f83011261666057600080fd5b81518181111561667257616672615680565b8060051b91506166838483016156be565b818152918301840191848101908884111561669d57600080fd5b938501935b838510156162ea578451825293850193908501906166a2565b60a081016166c98285615b6d565b60018060a01b038351166020830152602083015160408301526040830151606083015260608301516080830152939250505056fe000000000000000000000000cc25c0fd84737f44a7d38649b69491bbf0c7f083ea368a40e9570069bb8e6511d668293ad2e1f03b0d982431fd223de9f3b70ca600000000000000000000000097bd59a8202f8263c2ec39cf6cf6b438d0b458760000000000000000000000007238390d5f6f64e67c3211c343a410e2a3dec142000000000000000000000000d17cb0f162f133e339c0bbfc18c36c357e681d6b6d1efadb607420c71e8f966ae6611a2b817ec83a98f82ae24284fd004cf9d40c00000000000000000000000040379a439d4f6795b6fc9aa5687db461677a2dbab0c58532a125fc3c0adccaef396bf65344a4d5781cec2e4c593e6b611d75f150a26469706673582212209d1d5c12da456ad5e25f7b850f16c5009490d4aef5c9234d997de5a8d129c6b164736f6c63430008130033",
  "linkReferences": {},
  "deployedLinkReferences": {}
}