{
  "_format": "hh-sol-artifact-1",
  "contractName": "PearlStrategy",
  "sourceName": "contracts/strategies/PearlStrategy.sol",
  "abi": [
    {
      "inputs": [
        {
          "internalType": "uint256",
          "name": "messageType",
          "type": "uint256"
        }
      ],
      "name": "IncorrectMessageType",
      "type": "error"
    },
    {
      "inputs": [
        {
          "internalType": "uint256",
          "name": "amount",
          "type": "uint256"
        },
        {
          "internalType": "uint256",
          "name": "balance",
          "type": "uint256"
        }
      ],
      "name": "InsufficientFunds",
      "type": "error"
    },
    {
      "inputs": [],
      "name": "SwapHelperOnly",
      "type": "error"
    },
    {
      "anonymous": false,
      "inputs": [
        {
          "indexed": false,
          "internalType": "uint256",
          "name": "debtOutstanding",
          "type": "uint256"
        }
      ],
      "name": "AdjustedPosition",
      "type": "event"
    },
    {
      "anonymous": false,
      "inputs": [
        {
          "indexed": true,
          "internalType": "address",
          "name": "src",
          "type": "address"
        },
        {
          "indexed": true,
          "internalType": "address",
          "name": "dst",
          "type": "address"
        },
        {
          "indexed": true,
          "internalType": "uint256",
          "name": "amount",
          "type": "uint256"
        },
        {
          "indexed": false,
          "internalType": "bytes",
          "name": "lowLevelErrorData",
          "type": "bytes"
        }
      ],
      "name": "EmergencyQuoteOnAlternativeDEX",
      "type": "event"
    },
    {
      "anonymous": false,
      "inputs": [
        {
          "indexed": true,
          "internalType": "address",
          "name": "src",
          "type": "address"
        },
        {
          "indexed": true,
          "internalType": "address",
          "name": "dst",
          "type": "address"
        },
        {
          "indexed": true,
          "internalType": "uint256",
          "name": "amount",
          "type": "uint256"
        },
        {
          "indexed": false,
          "internalType": "bytes",
          "name": "lowLevelErrorData",
          "type": "bytes"
        }
      ],
      "name": "EmergencySwapOnAlternativeDEX",
      "type": "event"
    },
    {
      "anonymous": false,
      "inputs": [
        {
          "indexed": false,
          "internalType": "uint8",
          "name": "version",
          "type": "uint8"
        }
      ],
      "name": "Initialized",
      "type": "event"
    },
    {
      "anonymous": false,
      "inputs": [
        {
          "indexed": false,
          "internalType": "uint16",
          "name": "_srcChainId",
          "type": "uint16"
        },
        {
          "indexed": false,
          "internalType": "bytes",
          "name": "_srcAddress",
          "type": "bytes"
        },
        {
          "indexed": false,
          "internalType": "uint64",
          "name": "_nonce",
          "type": "uint64"
        },
        {
          "indexed": false,
          "internalType": "bytes",
          "name": "_payload",
          "type": "bytes"
        },
        {
          "indexed": false,
          "internalType": "bytes",
          "name": "_reason",
          "type": "bytes"
        }
      ],
      "name": "MessageFailed",
      "type": "event"
    },
    {
      "anonymous": false,
      "inputs": [
        {
          "indexed": true,
          "internalType": "address",
          "name": "src",
          "type": "address"
        },
        {
          "indexed": true,
          "internalType": "address",
          "name": "dst",
          "type": "address"
        },
        {
          "indexed": true,
          "internalType": "uint256",
          "name": "amountOut",
          "type": "uint256"
        },
        {
          "indexed": false,
          "internalType": "uint256",
          "name": "amountIn",
          "type": "uint256"
        }
      ],
      "name": "Notified",
      "type": "event"
    },
    {
      "anonymous": false,
      "inputs": [
        {
          "indexed": true,
          "internalType": "address",
          "name": "previousOwner",
          "type": "address"
        },
        {
          "indexed": true,
          "internalType": "address",
          "name": "newOwner",
          "type": "address"
        }
      ],
      "name": "OwnershipTransferred",
      "type": "event"
    },
    {
      "anonymous": false,
      "inputs": [
        {
          "indexed": true,
          "internalType": "address",
          "name": "src",
          "type": "address"
        },
        {
          "indexed": true,
          "internalType": "address",
          "name": "dst",
          "type": "address"
        },
        {
          "indexed": true,
          "internalType": "uint256",
          "name": "amount",
          "type": "uint256"
        }
      ],
      "name": "Quote",
      "type": "event"
    },
    {
      "anonymous": false,
      "inputs": [
        {
          "indexed": false,
          "internalType": "uint16",
          "name": "_srcChainId",
          "type": "uint16"
        },
        {
          "indexed": false,
          "internalType": "bytes",
          "name": "_srcAddress",
          "type": "bytes"
        },
        {
          "indexed": false,
          "internalType": "uint64",
          "name": "_nonce",
          "type": "uint64"
        },
        {
          "indexed": false,
          "internalType": "bytes32",
          "name": "_payloadHash",
          "type": "bytes32"
        }
      ],
      "name": "RetryMessageSuccess",
      "type": "event"
    },
    {
      "anonymous": false,
      "inputs": [
        {
          "indexed": false,
          "internalType": "uint16",
          "name": "_dstChainId",
          "type": "uint16"
        },
        {
          "indexed": false,
          "internalType": "uint16",
          "name": "_type",
          "type": "uint16"
        },
        {
          "indexed": false,
          "internalType": "uint256",
          "name": "_minDstGas",
          "type": "uint256"
        }
      ],
      "name": "SetMinDstGas",
      "type": "event"
    },
    {
      "anonymous": false,
      "inputs": [
        {
          "indexed": false,
          "internalType": "address",
          "name": "precrime",
          "type": "address"
        }
      ],
      "name": "SetPrecrime",
      "type": "event"
    },
    {
      "anonymous": false,
      "inputs": [
        {
          "indexed": false,
          "internalType": "uint16",
          "name": "_remoteChainId",
          "type": "uint16"
        },
        {
          "indexed": false,
          "internalType": "bytes",
          "name": "_path",
          "type": "bytes"
        }
      ],
      "name": "SetTrustedRemote",
      "type": "event"
    },
    {
      "anonymous": false,
      "inputs": [
        {
          "indexed": false,
          "internalType": "uint16",
          "name": "_remoteChainId",
          "type": "uint16"
        },
        {
          "indexed": false,
          "internalType": "bytes",
          "name": "_remoteAddress",
          "type": "bytes"
        }
      ],
      "name": "SetTrustedRemoteAddress",
      "type": "event"
    },
    {
      "anonymous": false,
      "inputs": [
        {
          "indexed": true,
          "internalType": "address",
          "name": "token",
          "type": "address"
        },
        {
          "indexed": false,
          "internalType": "uint256",
          "name": "amount",
          "type": "uint256"
        },
        {
          "indexed": false,
          "internalType": "address",
          "name": "sender",
          "type": "address"
        }
      ],
      "name": "SgReceived",
      "type": "event"
    },
    {
      "anonymous": false,
      "inputs": [
        {
          "indexed": false,
          "internalType": "address",
          "name": "newStrategy",
          "type": "address"
        }
      ],
      "name": "StrategyMigrated",
      "type": "event"
    },
    {
      "anonymous": false,
      "inputs": [
        {
          "indexed": false,
          "internalType": "uint256",
          "name": "profit",
          "type": "uint256"
        },
        {
          "indexed": false,
          "internalType": "uint256",
          "name": "loss",
          "type": "uint256"
        },
        {
          "indexed": false,
          "internalType": "uint256",
          "name": "debtPayment",
          "type": "uint256"
        },
        {
          "indexed": false,
          "internalType": "uint256",
          "name": "giveToStrategy",
          "type": "uint256"
        },
        {
          "indexed": false,
          "internalType": "uint256",
          "name": "requestFromStrategy",
          "type": "uint256"
        },
        {
          "indexed": false,
          "internalType": "uint256",
          "name": "creditAvailable",
          "type": "uint256"
        },
        {
          "indexed": false,
          "internalType": "uint256",
          "name": "totalAssets",
          "type": "uint256"
        }
      ],
      "name": "StrategyReported",
      "type": "event"
    },
    {
      "anonymous": false,
      "inputs": [
        {
          "indexed": true,
          "internalType": "address",
          "name": "src",
          "type": "address"
        },
        {
          "indexed": true,
          "internalType": "address",
          "name": "dst",
          "type": "address"
        },
        {
          "indexed": true,
          "internalType": "uint256",
          "name": "amount",
          "type": "uint256"
        }
      ],
      "name": "Swap",
      "type": "event"
    },
    {
      "inputs": [],
      "name": "DEFAULT_PAYLOAD_SIZE_LIMIT",
      "outputs": [
        {
          "internalType": "uint256",
          "name": "",
          "type": "uint256"
        }
      ],
      "stateMutability": "view",
      "type": "function"
    },
    {
      "inputs": [
        {
          "internalType": "uint256",
          "name": "_debtOutstanding",
          "type": "uint256"
        }
      ],
      "name": "adjustPosition",
      "outputs": [],
      "stateMutability": "nonpayable",
      "type": "function"
    },
    {
      "inputs": [],
      "name": "balanceOfWant",
      "outputs": [
        {
          "internalType": "uint256",
          "name": "",
          "type": "uint256"
        }
      ],
      "stateMutability": "view",
      "type": "function"
    },
    {
      "inputs": [
        {
          "internalType": "uint256",
          "name": "epoch",
          "type": "uint256"
        }
      ],
      "name": "callMe",
      "outputs": [],
      "stateMutability": "nonpayable",
      "type": "function"
    },
    {
      "inputs": [],
      "name": "clearWant",
      "outputs": [],
      "stateMutability": "nonpayable",
      "type": "function"
    },
    {
      "inputs": [],
      "name": "currentChainId",
      "outputs": [
        {
          "internalType": "uint16",
          "name": "",
          "type": "uint16"
        }
      ],
      "stateMutability": "view",
      "type": "function"
    },
    {
      "inputs": [],
      "name": "emergencyExit",
      "outputs": [
        {
          "internalType": "bool",
          "name": "",
          "type": "bool"
        }
      ],
      "stateMutability": "view",
      "type": "function"
    },
    {
      "inputs": [],
      "name": "estimatedTotalAssets",
      "outputs": [
        {
          "internalType": "uint256",
          "name": "",
          "type": "uint256"
        }
      ],
      "stateMutability": "view",
      "type": "function"
    },
    {
      "inputs": [
        {
          "internalType": "uint16",
          "name": "",
          "type": "uint16"
        },
        {
          "internalType": "bytes",
          "name": "",
          "type": "bytes"
        },
        {
          "internalType": "uint64",
          "name": "",
          "type": "uint64"
        }
      ],
      "name": "failedMessages",
      "outputs": [
        {
          "internalType": "bytes32",
          "name": "",
          "type": "bytes32"
        }
      ],
      "stateMutability": "view",
      "type": "function"
    },
    {
      "inputs": [
        {
          "internalType": "uint16",
          "name": "_srcChainId",
          "type": "uint16"
        },
        {
          "internalType": "bytes",
          "name": "_srcAddress",
          "type": "bytes"
        }
      ],
      "name": "forceResumeReceive",
      "outputs": [],
      "stateMutability": "nonpayable",
      "type": "function"
    },
    {
      "inputs": [
        {
          "internalType": "uint16",
          "name": "_version",
          "type": "uint16"
        },
        {
          "internalType": "uint16",
          "name": "_chainId",
          "type": "uint16"
        },
        {
          "internalType": "address",
          "name": "",
          "type": "address"
        },
        {
          "internalType": "uint256",
          "name": "_configType",
          "type": "uint256"
        }
      ],
      "name": "getConfig",
      "outputs": [
        {
          "internalType": "bytes",
          "name": "",
          "type": "bytes"
        }
      ],
      "stateMutability": "view",
      "type": "function"
    },
    {
      "inputs": [
        {
          "internalType": "bytes32",
          "name": "_messageHash",
          "type": "bytes32"
        }
      ],
      "name": "getEthSignedMessageHash",
      "outputs": [
        {
          "internalType": "bytes32",
          "name": "",
          "type": "bytes32"
        }
      ],
      "stateMutability": "pure",
      "type": "function"
    },
    {
      "inputs": [
        {
          "internalType": "uint16",
          "name": "_remoteChainId",
          "type": "uint16"
        }
      ],
      "name": "getTrustedRemoteAddress",
      "outputs": [
        {
          "internalType": "bytes",
          "name": "",
          "type": "bytes"
        }
      ],
      "stateMutability": "view",
      "type": "function"
    },
    {
      "inputs": [
        {
          "internalType": "uint256",
          "name": "_totalDebt",
          "type": "uint256"
        },
        {
          "internalType": "uint256",
          "name": "_debtOutstanding",
          "type": "uint256"
        },
        {
          "internalType": "uint256",
          "name": "_creditAvailable",
          "type": "uint256"
        },
        {
          "internalType": "uint256",
          "name": "_debtRatio",
          "type": "uint256"
        },
        {
          "internalType": "bytes",
          "name": "_signature",
          "type": "bytes"
        }
      ],
      "name": "harvest",
      "outputs": [],
      "stateMutability": "nonpayable",
      "type": "function"
    },
    {
      "inputs": [
        {
          "internalType": "address",
          "name": "_lzEndpoint",
          "type": "address"
        },
        {
          "internalType": "address",
          "name": "_strategist",
          "type": "address"
        },
        {
          "internalType": "contract IERC20",
          "name": "_want",
          "type": "address"
        },
        {
          "internalType": "address",
          "name": "_vault",
          "type": "address"
        },
        {
          "internalType": "uint16",
          "name": "_vaultChainId",
          "type": "uint16"
        },
        {
          "internalType": "uint16",
          "name": "_currentChainId",
          "type": "uint16"
        },
        {
          "internalType": "address",
          "name": "_sgBridge",
          "type": "address"
        },
        {
          "internalType": "address",
          "name": "_router",
          "type": "address"
        }
      ],
      "name": "initialize",
      "outputs": [],
      "stateMutability": "nonpayable",
      "type": "function"
    },
    {
      "inputs": [
        {
          "internalType": "uint16",
          "name": "_srcChainId",
          "type": "uint16"
        },
        {
          "internalType": "bytes",
          "name": "_srcAddress",
          "type": "bytes"
        }
      ],
      "name": "isTrustedRemote",
      "outputs": [
        {
          "internalType": "bool",
          "name": "",
          "type": "bool"
        }
      ],
      "stateMutability": "view",
      "type": "function"
    },
    {
      "inputs": [],
      "name": "lzEndpoint",
      "outputs": [
        {
          "internalType": "contract ILayerZeroEndpointUpgradeable",
          "name": "",
          "type": "address"
        }
      ],
      "stateMutability": "view",
      "type": "function"
    },
    {
      "inputs": [
        {
          "internalType": "uint16",
          "name": "_srcChainId",
          "type": "uint16"
        },
        {
          "internalType": "bytes",
          "name": "_srcAddress",
          "type": "bytes"
        },
        {
          "internalType": "uint64",
          "name": "_nonce",
          "type": "uint64"
        },
        {
          "internalType": "bytes",
          "name": "_payload",
          "type": "bytes"
        }
      ],
      "name": "lzReceive",
      "outputs": [],
      "stateMutability": "nonpayable",
      "type": "function"
    },
    {
      "inputs": [
        {
          "internalType": "uint16",
          "name": "",
          "type": "uint16"
        },
        {
          "internalType": "uint16",
          "name": "",
          "type": "uint16"
        }
      ],
      "name": "minDstGasLookup",
      "outputs": [
        {
          "internalType": "uint256",
          "name": "",
          "type": "uint256"
        }
      ],
      "stateMutability": "view",
      "type": "function"
    },
    {
      "inputs": [],
      "name": "name",
      "outputs": [
        {
          "internalType": "string",
          "name": "",
          "type": "string"
        }
      ],
      "stateMutability": "pure",
      "type": "function"
    },
    {
      "inputs": [
        {
          "internalType": "uint16",
          "name": "_srcChainId",
          "type": "uint16"
        },
        {
          "internalType": "bytes",
          "name": "_srcAddress",
          "type": "bytes"
        },
        {
          "internalType": "uint64",
          "name": "_nonce",
          "type": "uint64"
        },
        {
          "internalType": "bytes",
          "name": "_payload",
          "type": "bytes"
        }
      ],
      "name": "nonblockingLzReceive",
      "outputs": [],
      "stateMutability": "nonpayable",
      "type": "function"
    },
    {
      "inputs": [
        {
          "internalType": "address",
          "name": "src",
          "type": "address"
        },
        {
          "internalType": "address",
          "name": "dst",
          "type": "address"
        },
        {
          "internalType": "uint256",
          "name": "amountOut",
          "type": "uint256"
        },
        {
          "internalType": "uint256",
          "name": "amountIn",
          "type": "uint256"
        }
      ],
      "name": "notifyCallback",
      "outputs": [],
      "stateMutability": "nonpayable",
      "type": "function"
    },
    {
      "inputs": [],
      "name": "owner",
      "outputs": [
        {
          "internalType": "address",
          "name": "",
          "type": "address"
        }
      ],
      "stateMutability": "view",
      "type": "function"
    },
    {
      "inputs": [
        {
          "internalType": "uint16",
          "name": "",
          "type": "uint16"
        }
      ],
      "name": "payloadSizeLimitLookup",
      "outputs": [
        {
          "internalType": "uint256",
          "name": "",
          "type": "uint256"
        }
      ],
      "stateMutability": "view",
      "type": "function"
    },
    {
      "inputs": [],
      "name": "precrime",
      "outputs": [
        {
          "internalType": "address",
          "name": "",
          "type": "address"
        }
      ],
      "stateMutability": "view",
      "type": "function"
    },
    {
      "inputs": [],
      "name": "renounceOwnership",
      "outputs": [],
      "stateMutability": "nonpayable",
      "type": "function"
    },
    {
      "inputs": [
        {
          "internalType": "uint16",
          "name": "_srcChainId",
          "type": "uint16"
        },
        {
          "internalType": "bytes",
          "name": "_srcAddress",
          "type": "bytes"
        },
        {
          "internalType": "uint64",
          "name": "_nonce",
          "type": "uint64"
        },
        {
          "internalType": "bytes",
          "name": "_payload",
          "type": "bytes"
        }
      ],
      "name": "retryMessage",
      "outputs": [],
      "stateMutability": "payable",
      "type": "function"
    },
    {
      "inputs": [],
      "name": "revokeFunds",
      "outputs": [],
      "stateMutability": "nonpayable",
      "type": "function"
    },
    {
      "inputs": [
        {
          "internalType": "uint16",
          "name": "_version",
          "type": "uint16"
        },
        {
          "internalType": "uint16",
          "name": "_chainId",
          "type": "uint16"
        },
        {
          "internalType": "uint256",
          "name": "_configType",
          "type": "uint256"
        },
        {
          "internalType": "bytes",
          "name": "_config",
          "type": "bytes"
        }
      ],
      "name": "setConfig",
      "outputs": [],
      "stateMutability": "nonpayable",
      "type": "function"
    },
    {
      "inputs": [
        {
          "internalType": "bool",
          "name": "_emergencyExit",
          "type": "bool"
        }
      ],
      "name": "setEmergencyExit",
      "outputs": [],
      "stateMutability": "nonpayable",
      "type": "function"
    },
    {
      "inputs": [
        {
          "internalType": "uint16",
          "name": "_dstChainId",
          "type": "uint16"
        },
        {
          "internalType": "uint16",
          "name": "_packetType",
          "type": "uint16"
        },
        {
          "internalType": "uint256",
          "name": "_minGas",
          "type": "uint256"
        }
      ],
      "name": "setMinDstGas",
      "outputs": [],
      "stateMutability": "nonpayable",
      "type": "function"
    },
    {
      "inputs": [
        {
          "internalType": "uint16",
          "name": "_dstChainId",
          "type": "uint16"
        },
        {
          "internalType": "uint256",
          "name": "_size",
          "type": "uint256"
        }
      ],
      "name": "setPayloadSizeLimit",
      "outputs": [],
      "stateMutability": "nonpayable",
      "type": "function"
    },
    {
      "inputs": [
        {
          "internalType": "address",
          "name": "_precrime",
          "type": "address"
        }
      ],
      "name": "setPrecrime",
      "outputs": [],
      "stateMutability": "nonpayable",
      "type": "function"
    },
    {
      "inputs": [
        {
          "internalType": "uint16",
          "name": "_version",
          "type": "uint16"
        }
      ],
      "name": "setReceiveVersion",
      "outputs": [],
      "stateMutability": "nonpayable",
      "type": "function"
    },
    {
      "inputs": [
        {
          "internalType": "uint16",
          "name": "_version",
          "type": "uint16"
        }
      ],
      "name": "setSendVersion",
      "outputs": [],
      "stateMutability": "nonpayable",
      "type": "function"
    },
    {
      "inputs": [
        {
          "internalType": "uint256",
          "name": "_slippage",
          "type": "uint256"
        }
      ],
      "name": "setSlippage",
      "outputs": [],
      "stateMutability": "nonpayable",
      "type": "function"
    },
    {
      "inputs": [
        {
          "internalType": "address",
          "name": "_strategist",
          "type": "address"
        }
      ],
      "name": "setStrategist",
      "outputs": [],
      "stateMutability": "nonpayable",
      "type": "function"
    },
    {
      "inputs": [
        {
          "components": [
            {
              "internalType": "contract ISwapHelper",
              "name": "swapHelper",
              "type": "address"
            },
            {
              "internalType": "uint256",
              "name": "quoteBuffer",
              "type": "uint256"
            },
            {
              "internalType": "bool",
              "name": "isQuoteBufferContainsHopToWantValue",
              "type": "bool"
            }
          ],
          "internalType": "struct SwapHelperDTO",
          "name": "__swapHelperDTO",
          "type": "tuple"
        }
      ],
      "name": "setSwapHelperDTO",
      "outputs": [],
      "stateMutability": "nonpayable",
      "type": "function"
    },
    {
      "inputs": [
        {
          "internalType": "uint16",
          "name": "_srcChainId",
          "type": "uint16"
        },
        {
          "internalType": "bytes",
          "name": "_path",
          "type": "bytes"
        }
      ],
      "name": "setTrustedRemote",
      "outputs": [],
      "stateMutability": "nonpayable",
      "type": "function"
    },
    {
      "inputs": [
        {
          "internalType": "uint16",
          "name": "_remoteChainId",
          "type": "uint16"
        },
        {
          "internalType": "bytes",
          "name": "_remoteAddress",
          "type": "bytes"
        }
      ],
      "name": "setTrustedRemoteAddress",
      "outputs": [],
      "stateMutability": "nonpayable",
      "type": "function"
    },
    {
      "inputs": [],
      "name": "sgBridge",
      "outputs": [
        {
          "internalType": "contract ISgBridge",
          "name": "",
          "type": "address"
        }
      ],
      "stateMutability": "view",
      "type": "function"
    },
    {
      "inputs": [
        {
          "internalType": "uint16",
          "name": "",
          "type": "uint16"
        },
        {
          "internalType": "bytes",
          "name": "_srcAddress",
          "type": "bytes"
        },
        {
          "internalType": "uint256",
          "name": "",
          "type": "uint256"
        },
        {
          "internalType": "address",
          "name": "_token",
          "type": "address"
        },
        {
          "internalType": "uint256",
          "name": "_amountLD",
          "type": "uint256"
        },
        {
          "internalType": "bytes",
          "name": "",
          "type": "bytes"
        }
      ],
      "name": "sgReceive",
      "outputs": [],
      "stateMutability": "nonpayable",
      "type": "function"
    },
    {
      "inputs": [],
      "name": "sgRouter",
      "outputs": [
        {
          "internalType": "contract IStargateRouter",
          "name": "",
          "type": "address"
        }
      ],
      "stateMutability": "view",
      "type": "function"
    },
    {
      "inputs": [],
      "name": "slippage",
      "outputs": [
        {
          "internalType": "uint256",
          "name": "",
          "type": "uint256"
        }
      ],
      "stateMutability": "view",
      "type": "function"
    },
    {
      "inputs": [],
      "name": "strategist",
      "outputs": [
        {
          "internalType": "address",
          "name": "",
          "type": "address"
        }
      ],
      "stateMutability": "view",
      "type": "function"
    },
    {
      "inputs": [],
      "name": "strategistSignMessageHash",
      "outputs": [
        {
          "internalType": "bytes32",
          "name": "",
          "type": "bytes32"
        }
      ],
      "stateMutability": "view",
      "type": "function"
    },
    {
      "inputs": [
        {
          "internalType": "contract IERC20",
          "name": "_token",
          "type": "address"
        }
      ],
      "name": "sweepToken",
      "outputs": [],
      "stateMutability": "nonpayable",
      "type": "function"
    },
    {
      "inputs": [
        {
          "internalType": "address",
          "name": "newOwner",
          "type": "address"
        }
      ],
      "name": "transferOwnership",
      "outputs": [],
      "stateMutability": "nonpayable",
      "type": "function"
    },
    {
      "inputs": [
        {
          "internalType": "uint16",
          "name": "",
          "type": "uint16"
        }
      ],
      "name": "trustedRemoteLookup",
      "outputs": [
        {
          "internalType": "bytes",
          "name": "",
          "type": "bytes"
        }
      ],
      "stateMutability": "view",
      "type": "function"
    },
    {
      "inputs": [],
      "name": "vault",
      "outputs": [
        {
          "internalType": "address",
          "name": "",
          "type": "address"
        }
      ],
      "stateMutability": "view",
      "type": "function"
    },
    {
      "inputs": [],
      "name": "vaultChainId",
      "outputs": [
        {
          "internalType": "uint16",
          "name": "",
          "type": "uint16"
        }
      ],
      "stateMutability": "view",
      "type": "function"
    },
    {
      "inputs": [],
      "name": "want",
      "outputs": [
        {
          "internalType": "contract IERC20",
          "name": "",
          "type": "address"
        }
      ],
      "stateMutability": "view",
      "type": "function"
    },
    {
      "inputs": [],
      "name": "wantDecimals",
      "outputs": [
        {
          "internalType": "uint8",
          "name": "",
          "type": "uint8"
        }
      ],
      "stateMutability": "view",
      "type": "function"
    },
    {
      "stateMutability": "payable",
      "type": "receive"
    }
  ],
  "bytecode": "0x608060405234801561001057600080fd5b506164eb80620000216000396000f3fe60806040526004361061025d5760003560e01c80621d3567146102695780630517cb761461028b57806306fdde03146102c157806307e0db17146103005780630df374831461032057806310ddb137146103405780631be19560146103605780631cdb539f146103805780631f1fcd51146103a05780631fe4a686146103c05780632d606843146103e057806337fded91146103f55780633d3ccc2f1461041a5780633d8b38f61461043a5780633e032a3b1461046a5780633f1f4fa41461048e57806342d65a8d146104bb57806345ee0755146104db578063495f881e146104fb5780635641ec031461051b578063567ad85d14610535578063593178de1461056a5780635b8c41e61461057f57806366ad5c8a146105ce5780636cbadbfa146105ee578063715018a6146106105780637533d788146106255780638cfd8f5c146106455780638da5cb5b1461067d578063950c8a74146106925780639606647d146106b25780639f38369a146106c7578063a4ef57ab146106e7578063a6c3d16514610707578063ab8236f314610727578063adf076e614610747578063b353aaa71461077a578063baf3292d1461079a578063c1a3d44c146107ba578063c4461834146107cf578063c7b9d530146107e5578063cbed8b9c14610805578063d1deba1f14610825578063df2a5b3b14610838578063e73620c314610858578063eb8d72b714610878578063efbb5cb014610898578063f056dffe146108ad578063f0fa55a9146108cd578063f2fde38b146108ed578063f5ecbdbc1461090d578063fa5408011461092d578063fbfa77cf1461094d57600080fd5b3661026457005b600080fd5b34801561027557600080fd5b506102896102843660046150c4565b61096d565b005b34801561029757600080fd5b5060ce546102ab906001600160a01b031681565b6040516102b89190615157565b60405180910390f35b3480156102cd57600080fd5b5060408051808201909152600d81526c506561726c537472617465677960981b60208201525b6040516102b891906151bb565b34801561030c57600080fd5b5061028961031b3660046151ce565b610a56565b34801561032c57600080fd5b5061028961033b3660046151e9565b610ac3565b34801561034c57600080fd5b5061028961035b3660046151ce565b610ae2565b34801561036c57600080fd5b5061028961037b366004615228565b610b1e565b34801561038c57600080fd5b5061028961039b366004615245565b610bab565b3480156103ac57600080fd5b5060ca546102ab906001600160a01b031681565b3480156103cc57600080fd5b5060c9546102ab906001600160a01b031681565b3480156103ec57600080fd5b50610289610e03565b34801561040157600080fd5b5060cd546102ab9061010090046001600160a01b031681565b34801561042657600080fd5b506102896104353660046152f7565b610e44565b34801561044657600080fd5b5061045a610455366004615310565b610e7a565b60405190151581526020016102b8565b34801561047657600080fd5b5061048060cc5481565b6040519081526020016102b8565b34801561049a57600080fd5b506104806104a93660046151ce565b60686020526000908152604090205481565b3480156104c757600080fd5b506102896104d6366004615310565b610f47565b3480156104e757600080fd5b506102896104f6366004615370565b610fba565b34801561050757600080fd5b50610289610516366004615478565b610fd5565b34801561052757600080fd5b5060cd5461045a9060ff1681565b34801561054157600080fd5b5060cb5461055790600160a01b900461ffff1681565b60405161ffff90911681526020016102b8565b34801561057657600080fd5b50610480611279565b34801561058b57600080fd5b5061048061059a3660046154db565b6097602090815260009384526040808520845180860184018051928152908401958401959095209452929052825290205481565b3480156105da57600080fd5b506102896105e93660046150c4565b6112d7565b3480156105fa57600080fd5b5060cb5461055790600160b01b900461ffff1681565b34801561061c57600080fd5b506102896113ab565b34801561063157600080fd5b506102f36106403660046151ce565b6113bf565b34801561065157600080fd5b50610480610660366004615538565b606760209081526000928352604080842090915290825290205481565b34801561068957600080fd5b506102ab611459565b34801561069e57600080fd5b506069546102ab906001600160a01b031681565b3480156106be57600080fd5b50610289611468565b3480156106d357600080fd5b506102f36106e23660046151ce565b6114fb565b3480156106f357600080fd5b5061028961070236600461556b565b61160a565b34801561071357600080fd5b50610289610722366004615310565b611652565b34801561073357600080fd5b506102896107423660046155d3565b6116db565b34801561075357600080fd5b5060cb5461076890600160c01b900460ff1681565b60405160ff90911681526020016102b8565b34801561078657600080fd5b506065546102ab906001600160a01b031681565b3480156107a657600080fd5b506102896107b5366004615228565b6117d5565b3480156107c657600080fd5b50610480611828565b3480156107db57600080fd5b5061048061271081565b3480156107f157600080fd5b50610289610800366004615228565b61189f565b34801561081157600080fd5b5061028961082036600461566d565b6118c9565b6102896108333660046150c4565b611937565b34801561084457600080fd5b506102896108533660046156db565b611b4d565b34801561086457600080fd5b506102896108733660046152f7565b611bff565b34801561088457600080fd5b50610289610893366004615310565b611c1f565b3480156108a457600080fd5b50610480611c79565b3480156108b957600080fd5b506102896108c8366004615717565b611f83565b3480156108d957600080fd5b506102896108e83660046152f7565b612002565b3480156108f957600080fd5b50610289610908366004615228565b61200f565b34801561091957600080fd5b506102f361092836600461575d565b612085565b34801561093957600080fd5b506104806109483660046152f7565b61211a565b34801561095957600080fd5b5060cb546102ab906001600160a01b031681565b6065546001600160a01b031633146109d85760405162461bcd60e51b815260206004820152602360248201527f4261736553747261746567793a3a496e76616c6964456e64706f696e7443616c6044820152623632b960e91b60648201526084015b60405180910390fd5b610a4e8686868080601f01602080910402602001604051908101604052809392919081815260200183838082843760009201919091525050604080516020601f89018190048102820181019092528781528993509150879087908190840183828082843760009201919091525061216c92505050565b505050505050565b610a5e6121e5565b6065546040516307e0db1760e01b815261ffff831660048201526001600160a01b03909116906307e0db17906024015b600060405180830381600087803b158015610aa857600080fd5b505af1158015610abc573d6000803e3d6000fd5b5050505050565b610acb6121e5565b61ffff909116600090815260686020526040902055565b610aea6121e5565b6065546040516310ddb13760e01b815261ffff831660048201526001600160a01b03909116906310ddb13790602401610a8e565b610b26612244565b610ba833826001600160a01b03166370a08231306040518263ffffffff1660e01b8152600401610b569190615157565b602060405180830381865afa158015610b73573d6000803e3d6000fd5b505050506040513d601f19601f82011682018060405250810190610b9791906157aa565b6001600160a01b038416919061229d565b50565b600054610100900460ff1615808015610bcb5750600054600160ff909116105b80610bec5750610bda306122f8565b158015610bec575060005460ff166001145b610c4f5760405162461bcd60e51b815260206004820152602e60248201527f496e697469616c697a61626c653a20636f6e747261637420697320616c72656160448201526d191e481a5b9a5d1a585b1a5e995960921b60648201526084016109cf565b6000805460ff191660011790558015610c72576000805461ff0019166101001790555b610c858989898989898989612648612307565b60ca54610cb2906001600160a01b03167368b3465833fb72a70ecdf485e0e4c7bd8665fc456000196124e6565b60ca54610cd9906001600160a01b03166000805160206163f68339815191526000196124e6565b610d026000805160206164768339815191526000805160206163f68339815191526000196124e6565b610d2b6000805160206164568339815191526000805160206164168339815191526000196124e6565b610d546000805160206164568339815191526000805160206163f68339815191526000196124e6565b610d89738f3cf7ad23cd3cadbd9735aff958023239c6a06373195f7b233947d51f4c3b756ad41a5ddb34cebce06000196124e6565b610db26000805160206164368339815191526000805160206163f68339815191526000196124e6565b8015610df8576000805461ff0019169055604051600181527f7f26b83ff96e1f2b6a682f133852f6798a09c465da95921460cefb38474024989060200160405180910390a15b505050505050505050565b610e0b612244565b60c9546040516001600160a01b03909116904780156108fc02916000818181858888f19350505050158015610ba8573d6000803e3d6000fd5b610e4c612244565b610e55816125ea565b604051818152600080516020616496833981519152906020015b60405180910390a150565b61ffff831660009081526066602052604081208054829190610e9b906157c3565b80601f0160208091040260200160405190810160405280929190818152602001828054610ec7906157c3565b8015610f145780601f10610ee957610100808354040283529160200191610f14565b820191906000526020600020905b815481529060010190602001808311610ef757829003601f168201915b505050505090508383604051610f2b9291906157fd565b60405180910390208180519060200120149150505b9392505050565b610f4f6121e5565b6065546040516342d65a8d60e01b81526001600160a01b03909116906342d65a8d90610f8390869086908690600401615836565b600060405180830381600087803b158015610f9d57600080fd5b505af1158015610fb1573d6000803e3d6000fd5b50505050505050565b610fc2612244565b60cd805460ff1916911515919091179055565b610fdd612244565b610fe681612d34565b60cd546000908190819060ff16156110925784156110465760405162461bcd60e51b815260206004820152601e60248201527f4261736553747261746567793a3a44656274526174696f4e6f745a65726f000060448201526064016109cf565b6000611050612dba565b90508781101561106b57611064818961586a565b9250611080565b878111156110805761107d888261586a565b93505b61108a838961586a565b9150506110a4565b61109c8888612e85565b919450925090505b60006110b0828561587d565b9050600080888310156110d2576110c7838a61586a565b9150600090506110e3565b600091506110e0898461586a565b90505b6000604051806101600160405280306001600160a01b031681526020014281526020018881526020018781526020018681526020018481526020018381526020018b815260200183611133611c79565b61113d919061586a565b815260200160d0600081548092919061115590615890565b909155508152602001899052905081156111b55760cb546040516111b091849161ffff600160a01b830416916001600160a01b03169061119c9060029087906020016158e1565b604051602081830303815290604052612f7c565b6111e0565b6111e06002826040516020016111cc9291906158e1565b60405160208183030381529060405261306a565b7fb983e09c034e9c52b5e547cb0589967992b97717733f580cc5ad0afcdc4b522b8160400151826060015183608001518460a001518560c001518660e001518761010001516040516112639796959493929190968752602087019590955260408601939093526060850191909152608084015260a083015260c082015260e00190565b60405180910390a1505050505050505050505050565b60d05460cb546040513060601b6001600160601b03191660208201526034810192909252600160b01b900460f01b6001600160f01b031916605482015260009060560160405160208183030381529060405280519060200120905090565b3330146113355760405162461bcd60e51b815260206004820152602660248201527f4e6f6e626c6f636b696e674c7a4170703a2063616c6c6572206d7573742062656044820152650204c7a4170760d41b60648201526084016109cf565b610a4e8686868080601f01602080910402602001604051908101604052809392919081815260200183838082843760009201919091525050604080516020601f8901819004810282018101909252878152899350915087908790819084018382808284376000920191909152506131ea92505050565b6113b36121e5565b6113bd6000613300565b565b606660205260009081526040902080546113d8906157c3565b80601f0160208091040260200160405190810160405280929190818152602001828054611404906157c3565b80156114515780601f1061142657610100808354040283529160200191611451565b820191906000526020600020905b81548152906001019060200180831161143457829003601f168201915b505050505081565b6033546001600160a01b031690565b611470612244565b60ca546040516370a0823160e01b81526113bd916001916001600160a01b03909116906370a08231906114a7903090600401615157565b602060405180830381865afa1580156114c4573d6000803e3d6000fd5b505050506040513d601f19601f820116820180604052508101906114e891906157aa565b60ca546001600160a01b0316919061229d565b61ffff811660009081526066602052604081208054606092919061151e906157c3565b80601f016020809104026020016040519081016040528092919081815260200182805461154a906157c3565b80156115975780601f1061156c57610100808354040283529160200191611597565b820191906000526020600020905b81548152906001019060200180831161157a57829003601f168201915b5050505050905080516000036115ef5760405162461bcd60e51b815260206004820152601d60248201527f4c7a4170703a206e6f20747275737465642070617468207265636f726400000060448201526064016109cf565b610f40600060148351611602919061586a565b839190613352565b61161261345f565b805160d180546001600160a01b0319166001600160a01b03909216919091179055602081015160d2556040015160d3805460ff1916911515919091179055565b61165a6121e5565b81813060405160200161166f93929190615995565b60408051601f1981840301815291815261ffff851660009081526066602052209061169a9082615a11565b507f8c0400cfe2d1199b1a725c78960bcc2a344d869b80590d0f2bd005db15a572ce8383836040516116ce93929190615836565b60405180910390a1505050565b60ce546001600160a01b0316331480611703575060cd5461010090046001600160a01b031633145b61174e5760405162461bcd60e51b815260206004820152601c60248201527b53674272696467653a3a526f757465724f724272696467654f6e6c7960201b60448201526064016109cf565b600061175c86826014613352565b60405160200161176c9190615aca565b60405160208183030381529060405261178490615ae6565b60601c9050836001600160a01b03167f92073a89a07a000083eb8b2575fc15e7bb936efe55d00727d6942a796d7211a784836040516117c4929190615b1d565b60405180910390a250505050505050565b6117dd6121e5565b606980546001600160a01b0319166001600160a01b0383161790556040517f5db758e995a17ec1ad84bdef7e8c3293a0bd6179bcce400dff5d4c3d87db726b90610e6f908390615157565b60ca546040516370a0823160e01b81526000916001600160a01b0316906370a0823190611859903090600401615157565b602060405180830381865afa158015611876573d6000803e3d6000fd5b505050506040513d601f19601f8201168201806040525081019061189a91906157aa565b905090565b6118a76121e5565b60c980546001600160a01b0319166001600160a01b0392909216919091179055565b6118d16121e5565b6065546040516332fb62e760e21b81526001600160a01b039091169063cbed8b9c906119099088908890889088908890600401615b34565b600060405180830381600087803b15801561192357600080fd5b505af1158015610df8573d6000803e3d6000fd5b61ffff8616600090815260976020526040808220905161195a90889088906157fd565b90815260408051602092819003830190206001600160401b038716600090815292529020549050806119da5760405162461bcd60e51b815260206004820152602360248201527f4e6f6e626c6f636b696e674c7a4170703a206e6f2073746f726564206d65737360448201526261676560e81b60648201526084016109cf565b8083836040516119eb9291906157fd565b604051809103902014611a4a5760405162461bcd60e51b815260206004820152602160248201527f4e6f6e626c6f636b696e674c7a4170703a20696e76616c6964207061796c6f616044820152601960fa1b60648201526084016109cf565b61ffff87166000908152609760205260408082209051611a6d90899089906157fd565b90815260408051602092819003830181206001600160401b038916600090815290845282902093909355601f88018290048202830182019052868252611b05918991899089908190840183828082843760009201919091525050604080516020601f8a018190048102820181019092528881528a9350915088908890819084018382808284376000920191909152506131ea92505050565b7fc264d91f3adc5588250e1551f547752ca0cfa8f6b530d243b9f9f4cab10ea8e58787878785604051611b3c959493929190615b62565b60405180910390a150505050505050565b611b556121e5565b60008111611b9d5760405162461bcd60e51b81526020600482015260156024820152744c7a4170703a20696e76616c6964206d696e47617360581b60448201526064016109cf565b61ffff83811660008181526067602090815260408083209487168084529482529182902085905581519283528201929092529081018290527f9d5c7c0b934da8fefa9c7760c98383778a12dfbfc0c3b3106518f43fb9508ac0906060016116ce565b611c076121e5565b600090815260cf60205260409020805460ff19169055565b611c276121e5565b61ffff83166000908152606660205260409020611c45828483615b9d565b507ffa41487ad5d6728f0b19276fa1eddc16558578f5109fc39d2dc33c3230470dab8383836040516116ce93929190615836565b600073__$c227fba7995d6bae65c253a840cdb49c5a$__6330d15a9d73__$c227fba7995d6bae65c253a840cdb49c5a$__638f4508d06040518163ffffffff1660e01b8152600401602060405180830381865af4158015611cde573d6000803e3d6000fd5b505050506040513d601f19601f82011682018060405250810190611d0291906157aa565b60ca5460cb5460405160e085901b6001600160e01b031916815260048101939093526001600160a01b039091166024830152600160c01b900460ff166044820152606401602060405180830381865af4158015611d63573d6000803e3d6000fd5b505050506040513d601f19601f82011682018060405250810190611d8791906157aa565b6040516370a0823160e01b815273__$c227fba7995d6bae65c253a840cdb49c5a$__9063af8e395490600080516020616436833981519152906370a0823190611dd4903090600401615157565b602060405180830381865afa158015611df1573d6000803e3d6000fd5b505050506040513d601f19601f82011682018060405250810190611e1591906157aa565b73__$c227fba7995d6bae65c253a840cdb49c5a$__63d56739ac6040518163ffffffff1660e01b8152600401602060405180830381865af4158015611e5e573d6000803e3d6000fd5b505050506040513d601f19601f82011682018060405250810190611e8291906157aa565b611e8c919061587d565b60cb5460405160e084901b6001600160e01b03191681526004810192909252600160c01b900460ff166024820152604401602060405180830381865af4158015611eda573d6000803e3d6000fd5b505050506040513d601f19601f82011682018060405250810190611efe91906157aa565b60ca546040516370a0823160e01b81526001600160a01b03909116906370a0823190611f2e903090600401615157565b602060405180830381865afa158015611f4b573d6000803e3d6000fd5b505050506040513d601f19601f82011682018060405250810190611f6f91906157aa565b611f79919061587d565b61189a919061587d565b60d1546001600160a01b03163314611fae57604051630336158960e61b815260040160405180910390fd5b81836001600160a01b0316856001600160a01b03167f9b2db766e04dc7ee1cc19d1415531ad5b3fd566db4f745d9a8ad51e3d3fe1bd784604051611ff491815260200190565b60405180910390a450505050565b61200a612244565b60cc55565b6120176121e5565b6001600160a01b03811661207c5760405162461bcd60e51b815260206004820152602660248201527f4f776e61626c653a206e6577206f776e657220697320746865207a65726f206160448201526564647265737360d01b60648201526084016109cf565b610ba881613300565b606554604051633d7b2f6f60e21b815261ffff808716600483015285166024820152306044820152606481018390526060916001600160a01b03169063f5ecbdbc90608401600060405180830381865afa1580156120e7573d6000803e3d6000fd5b505050506040513d6000823e601f3d908101601f1916820160405261210f9190810190615c56565b90505b949350505050565b6040517b0ca2ba3432b932bab69029b4b3b732b21026b2b9b9b0b3b29d05199960211b6020820152603c8101829052600090605c01604051602081830303815290604052805190602001209050919050565b6000806121cf5a60966366ad5c8a60e01b898989896040516024016121949493929190615cc3565b60408051601f198184030181529190526020810180516001600160e01b03166001600160e01b031990931692909217909152309291906134ce565b9150915081610a4e57610a4e868686868561355a565b336121ee611459565b6001600160a01b0316146113bd5760405162461bcd60e51b815260206004820181905260248201527f4f776e61626c653a2063616c6c6572206973206e6f7420746865206f776e657260448201526064016109cf565b60c9546001600160a01b031633146113bd5760405162461bcd60e51b815260206004820152601c60248201527b10985cd954dd1c985d1959de4e8e93db9b1e54dd1c985d1959da5cdd60221b60448201526064016109cf565b6122f38363a9059cbb60e01b84846040516024016122bc929190615d01565b60408051601f198184030181529190526020810180516001600160e01b03166001600160e01b0319909316929092179091526135f7565b505050565b6001600160a01b03163b151590565b600054610100900460ff1661232e5760405162461bcd60e51b81526004016109cf90615d1a565b612337896136cc565b60c980546001600160a01b03808b166001600160a01b03199283161790925560ca80548a8416908316811790915560cb8054938a1661ffff8a16600160a01b029093166001600160b01b0319909416939093179190911790915560cc8290556040805163313ce56760e01b8152905163313ce567916004808201926020929091908290030181865afa1580156123d1573d6000803e3d6000fd5b505050506040513d601f19601f820116820180604052508101906123f59190615d65565b60cb8054600060d05562ffffff60b01b1916600160c01b60ff939093169290920261ffff60b01b191691909117600160b01b61ffff87160217905560cd8054610100600160a81b0319166101006001600160a01b03868116919091029190911790915560ce80546001600160a01b03191684831617905560ca5460405163095ea7b360e01b815291169063095ea7b39061249790869060001990600401615d01565b6020604051808303816000875af11580156124b6573d6000803e3d6000fd5b505050506040513d601f19601f820116820180604052508101906124da9190615d88565b50505050505050505050565b8015806125605750604051636eb1769f60e11b81523060048201526001600160a01b03838116602483015284169063dd62ed3e90604401602060405180830381865afa15801561253a573d6000803e3d6000fd5b505050506040513d601f19601f8201168201806040525081019061255e91906157aa565b155b6125cb5760405162461bcd60e51b815260206004820152603660248201527f5361666545524332303a20617070726f76652066726f6d206e6f6e2d7a65726f60448201527520746f206e6f6e2d7a65726f20616c6c6f77616e636560501b60648201526084016109cf565b6122f38363095ea7b360e01b84846040516024016122bc929190615d01565b6000805160206164168339815191526001600160a01b0316633d18b9126040518163ffffffff1660e01b8152600401600060405180830381600087803b15801561263357600080fd5b505af1158015612647573d6000803e3d6000fd5b50506040516370a0823160e01b81526126ea925060008051602061643683398151915291506370a0823190612680903090600401615157565b602060405180830381865afa15801561269d573d6000803e3d6000fd5b505050506040513d601f19601f820116820180604052508101906126c191906157aa565b60ca5460cb546001600160a01b0390911690600160c01b900460ff1660d161370461379d6137ae565b60ca546040516370a0823160e01b81526000916001600160a01b0316906370a082319061271b903090600401615157565b602060405180830381865afa158015612738573d6000803e3d6000fd5b505050506040513d601f19601f8201168201806040525081019061275c91906157aa565b905081811115612911576000612772838361586a565b90506000612781600283615da5565b905060006128148260cb60189054906101000a900460ff16738f3cf7ad23cd3cadbd9735aff958023239c6a0636001600160a01b031663313ce5676040518163ffffffff1660e01b8152600401602060405180830381865afa1580156127eb573d6000803e3d6000fd5b505050506040513d601f19601f8201168201806040525081019061280f9190615d65565b6138dd565b6040805160808101825260ca546001600160601b0319606091821b1660a0830152601960ea1b60b4830152738f3cf7ad23cd3cadbd9735aff958023239c6a06360601b60b7830152825160ab81840301815260cb83018452825230602083015291810185905291925060009190810161288c84613932565b905260405163b858183f60e01b81529091507368b3465833fb72a70ecdf485e0e4c7bd8665fc459063b858183f906128c8908490600401615dc7565b6020604051808303816000875af11580156128e7573d6000803e3d6000fd5b505050506040513d601f19601f8201168201806040525081019061290b91906157aa565b50505050505b6040516370a0823160e01b8152600090738f3cf7ad23cd3cadbd9735aff958023239c6a063906370a082319061294b903090600401615157565b602060405180830381865afa158015612968573d6000803e3d6000fd5b505050506040513d601f19601f8201168201806040525081019061298c91906157aa565b90508015612a125760405163a39fc2c560e01b815273195f7b233947d51f4c3b756ad41a5ddb34cebce09063a39fc2c5906129cd9084903090600401615b1d565b6020604051808303816000875af11580156129ec573d6000803e3d6000fd5b505050506040513d601f19601f82011682018060405250810190612a1091906157aa565b505b6040516370a0823160e01b8152600090600080516020616476833981519152906370a0823190612a46903090600401615157565b602060405180830381865afa158015612a63573d6000803e3d6000fd5b505050506040513d601f19601f82011682018060405250810190612a8791906157aa565b60ca546040516370a0823160e01b81529192506001600160a01b0316906370a0823190612ab8903090600401615157565b602060405180830381865afa158015612ad5573d6000803e3d6000fd5b505050506040513d601f19601f82011682018060405250810190612af991906157aa565b9250600081118015612b0b5750600083115b15612c855760ca546040516326283ecf60e21b81526001600160a01b039091166004820152600080516020616476833981519152602482015260016044820152606481018490526084810182905260009081906000805160206163f6833981519152906398a0fb3c9060a401606060405180830381865afa158015612b94573d6000803e3d6000fd5b505050506040513d601f19601f82011682018060405250810190612bb89190615e15565b5060ca54604051635a47ddc360e01b81526001600160a01b0390911660048201526000805160206164768339815191526024820152600160448201819052606482018490526084820183905260a4820181905260c48201523060e48201524261010482015291935091506000805160206163f683398151915290635a47ddc390610124016060604051808303816000875af1158015612c5b573d6000803e3d6000fd5b505050506040513d601f19601f82011682018060405250810190612c7f9190615e15565b50505050505b6040516370a0823160e01b8152600090600080516020616456833981519152906370a0823190612cb9903090600401615157565b602060405180830381865afa158015612cd6573d6000803e3d6000fd5b505050506040513d601f19601f82011682018060405250810190612cfa91906157aa565b90508015610abc5760405163b6b55f2560e01b8152600481018290526000805160206164168339815191529063b6b55f2590602401611909565b6000612d3e611279565b90506000612d4b8261211a565b60c9549091506001600160a01b0316612d64828561394f565b6001600160a01b0316146122f35760405162461bcd60e51b815260206004820152601e60248201527f4261736553747261746567793a3a496e76616c69645369676e6174757265000060448201526064016109cf565b6000612e5573__$c227fba7995d6bae65c253a840cdb49c5a$__638f4508d06040518163ffffffff1660e01b8152600401602060405180830381865af4158015612e08573d6000803e3d6000fd5b505050506040513d601f19601f82011682018060405250810190612e2c91906157aa565b60ca5460cb546001600160a01b0390911690600160c01b900460ff1660d161370461379d613973565b60ca546040516370a0823160e01b81526001600160a01b03909116906370a0823190611859903090600401615157565b600080600080612e93611c79565b9050858110612eb157612ea6868261586a565b935060009250612ec2565b60009350612ebf818761586a565b92505b612ed4612ecf858761587d565b613ca2565b505060ca546040516370a0823160e01b81526000916001600160a01b0316906370a0823190612f07903090600401615157565b602060405180830381865afa158015612f24573d6000803e3d6000fd5b505050506040513d601f19601f82011682018060405250810190612f4891906157aa565b9050848111612f5d5780945060009250612f73565b612f70612f6a868361586a565b87613dfb565b92505b50509250925092565b60cd54604051630dc6346160e01b815260009161010090046001600160a01b031690630dc6346190612fb690879087908790600401615e43565b602060405180830381865afa158015612fd3573d6000803e3d6000fd5b505050506040513d601f19601f82011682018060405250810190612ff791906157aa565b60cd5460ca54604051633920455b60e11b81529293506001600160a01b036101009092048216926372408ab692859261303d929116908a908a908a908a90600401615e71565b6000604051808303818588803b15801561305657600080fd5b505af11580156124da573d6000803e3d6000fd5b60cb5460408051606083811b6001600160601b03199081166020840152309182901b16603483015282516028818403018152604890920190925260655490926000926001600160a01b03909216916340a7bb109161ffff600160a01b909104169086856130d5613e11565b6040518663ffffffff1660e01b81526004016130f5959493929190615eae565b6040805180830381865afa158015613111573d6000803e3d6000fd5b505050506040513d601f19601f820116820180604052508101906131359190615f02565b509050804710156131615760405162fae2d560e21b8152600481018290524760248201526044016109cf565b60655460cb546001600160a01b039091169063c5803100908390600160a01b900461ffff1685873080613192613e11565b6040518863ffffffff1660e01b81526004016131b396959493929190615f26565b6000604051808303818588803b1580156131cc57600080fd5b505af11580156131e0573d6000803e3d6000fd5b5050505050505050565b60cb5461ffff858116600160a01b90920416146132545760405162461bcd60e51b815260206004820152602260248201527f4261736553747261746567793a3a5661756c74436861696e49644d69736d61746044820152610c6d60f31b60648201526084016109cf565b600061326284826014613352565b6040516020016132729190615aca565b60405160208183030381529060405261328a90615ae6565b60cb5460609190911c91506001600160a01b031681146132f75760405162461bcd60e51b815260206004820152602260248201527f4261736553747261746567793a3a5661756c74416464726573734d69736d61746044820152610c6d60f31b60648201526084016109cf565b610abc82613e41565b603380546001600160a01b038381166001600160a01b0319831681179093556040519116919082907f8be0079c531659141344cd1fd0a4f28419497f9722a3daafe3b4186f6b6457e090600090a35050565b60608161336081601f61587d565b101561339f5760405162461bcd60e51b815260206004820152600e60248201526d736c6963655f6f766572666c6f7760901b60448201526064016109cf565b6133a9828461587d565b845110156133ed5760405162461bcd60e51b8152602060048201526011602482015270736c6963655f6f75744f66426f756e647360781b60448201526064016109cf565b60608215801561340c5760405191506000825260208201604052613456565b6040519150601f8416801560200281840101858101878315602002848b0101015b8183101561344557805183526020928301920161342d565b5050858452601f01601f1916604052505b50949350505050565b60c9546001600160a01b031633148061347757503330145b6113bd5760405162461bcd60e51b815260206004820152602260248201527f4261736553747261746567793a3a4f6e6c79537472617465676973744f725365604482015261363360f11b60648201526084016109cf565b6000606060008060008661ffff166001600160401b038111156134f3576134f361538d565b6040519080825280601f01601f19166020018201604052801561351d576020820181803683370190505b50905060008087516020890160008d8df191503d92508683111561353f578692505b828152826000602083013e9093509150505b94509492505050565b8180519060200120609760008761ffff1661ffff1681526020019081526020016000208560405161358b9190615aca565b9081526040805191829003602090810183206001600160401b0388166000908152915220919091557fe183f33de2837795525b4792ca4cd60535bd77c53b7e7030060bfcf5734d6b0c906135e89087908790879087908790615f8d565b60405180910390a15050505050565b600061364c826040518060400160405280602081526020017f5361666545524332303a206c6f772d6c6576656c2063616c6c206661696c6564815250856001600160a01b0316613f6e9092919063ffffffff16565b905080516000148061366d57508080602001905181019061366d9190615d88565b6122f35760405162461bcd60e51b815260206004820152602a60248201527f5361666545524332303a204552433230206f7065726174696f6e20646964206e6044820152691bdd081cdd58d8d9595960b21b60648201526084016109cf565b600054610100900460ff166136f35760405162461bcd60e51b81526004016109cf90615d1a565b6136fb613f7d565b610ba881613fad565b80516000036137535781836001600160a01b0316856001600160a01b03167fea368a40e9570069bb8e6511d668293ad2e1f03b0d982431fd223de9f3b70ca660405160405180910390a4613797565b81836001600160a01b0316856001600160a01b03167f583bc203f4bd38722d9ba88ecb248da508149e0e405a42dbc1b1f7d55a8be0c184604051611ff491906151bb565b50505050565b60006137a882613932565b92915050565b8515610a4e5782546001600160a01b03166310cabd1d60008051602061643683398151915287896127106137e56126486064615fdf565b6137ef9190615da5565b6040518563ffffffff1660e01b815260040161380e9493929190615ff6565b600060405180830381600087803b15801561382857600080fd5b505af1925050508015613839575060015b61389d573d808015613867576040519150601f19603f3d011682016040523d82523d6000602084013e61386c565b606091505b5061387987868885613ff6565b6138976000805160206164368339815191528789848763ffffffff16565b50610a4e565b610a4e600080516020616436833981519152868860006040516020016138c591815260200190565b6040516020818303038152906040528663ffffffff16565b60008260ff168260ff161115613913576138f78383616021565b61390290600a61611e565b61390c9085615fdf565b9050610f40565b61391d8284616021565b61392890600a61611e565b61390c9085615da5565b600061271060cc54836139459190615fdf565b6137a89190615da5565b600080600061395e858561418e565b9150915061396b816141d3565b509392505050565b6000805160206164168339815191526001600160a01b0316633d18b9126040518163ffffffff1660e01b8152600401600060405180830381600087803b1580156139bc57600080fd5b505af11580156139d0573d6000803e3d6000fd5b50506040516370a0823160e01b8152613a54925060008051602061643683398151915291506370a0823190613a09903090600401615157565b602060405180830381865afa158015613a26573d6000803e3d6000fd5b505050506040513d601f19601f82011682018060405250810190613a4a91906157aa565b86868686866137ae565b8515610a4e57604051632e1a7d4d60e01b81526004810187905260008051602061641683398151915290632e1a7d4d90602401600060405180830381600087803b158015613aa157600080fd5b505af1158015613ab5573d6000803e3d6000fd5b50506040516310e1b98f60e21b8152600092508291506000805160206163f683398151915290634386e63c90613b04908a90600080516020616476833981519152906001908e9060040161612d565b6040805180830381865afa158015613b20573d6000803e3d6000fd5b505050506040513d601f19601f82011682018060405250810190613b449190615f02565b90925090506000805160206163f6833981519152630dede6c48860008051602061647683398151915260018c613b7d8863ffffffff8b16565b613b8a888b63ffffffff16565b6040516001600160e01b031960e089901b1681526001600160a01b03968716600482015295909416602486015291151560448501526064840152608483015260a48201523060c48201524260e48201526101040160408051808303816000875af1158015613bfc573d6000803e3d6000fd5b505050506040513d601f19601f82011682018060405250810190613c209190615f02565b50506040516370a0823160e01b81526131e090600080516020616476833981519152906370a0823190613c57903090600401615157565b602060405180830381865afa158015613c74573d6000803e3d6000fd5b505050506040513d601f19601f82011682018060405250810190613c9891906157aa565b8888888888614318565b60ca546040516370a0823160e01b8152600091829182916001600160a01b0316906370a0823190613cd7903090600401615157565b602060405180830381865afa158015613cf4573d6000803e3d6000fd5b505050506040513d601f19601f82011682018060405250810190613d1891906157aa565b9050838110613d2c57509192600092509050565b613d62613d39828661586a565b60ca5460cb546001600160a01b0390911690600160c01b900460ff1660d161370461379d614429565b60ca546040516370a0823160e01b81526001600160a01b03909116906370a0823190613d92903090600401615157565b602060405180830381865afa158015613daf573d6000803e3d6000fd5b505050506040513d601f19601f82011682018060405250810190613dd391906157aa565b905080841115613df157915081613dea818561586a565b9150613df5565b8392505b50915091565b6000818310613e0a5781610f40565b5090919050565b60408051600160f01b6020820152620f424060228083019190915282518083039091018152604290910190915290565b600081806020019051810190613e579190616158565b90506003816004811115613e6d57613e6d6158a9565b03613ec057600082806020019051810190613e889190616179565b915050613e9881600001516125ea565b80516040519081526000805160206164968339815191529060200160405180910390a1505050565b6000816004811115613ed457613ed46158a9565b03613efb57600082806020019051810190613eef91906161bc565b9150506122f381614576565b6004816004811115613f0f57613f0f6158a9565b03613f6a57600082806020019051810190613f2a9190616227565b915050613f3a81600001516146a0565b80516040517f7c9a2d2ec51230d7dbed27f113a325b7e20aef7b049e68b2339257b5edff5bea916116ce91615157565b5050565b606061211284846000856146df565b600054610100900460ff16613fa45760405162461bcd60e51b81526004016109cf90615d1a565b6113bd33613300565b600054610100900460ff16613fd45760405162461bcd60e51b81526004016109cf90615d1a565b606580546001600160a01b0319166001600160a01b0392909216919091179055565b60408051600280825260608201909252600091816020015b604080516060810182526000808252602080830182905292820152825260001990920191018161400e5750506040805160608101825260008051602061643683398151915281526000805160206164768339815191526020820152600091810182905282519293509183919061408657614086616275565b602002602001018190525060405180606001604052806000805160206164768339815191526001600160a01b03168152602001846001600160a01b0316815260200160011515815250816001815181106140e2576140e2616275565b602002602001018190525060006140f986866147ba565b90506000805160206163f683398151915263f41766d88761411d8463ffffffff8816565b8530426040518663ffffffff1660e01b815260040161414095949392919061628b565b6000604051808303816000875af192505050801561418057506040513d6000823e601f3d908101601f1916820160405261417d919081019061631a565b60015b15610a4e5750505050505050565b60008082516041036141c45760208301516040840151606085015160001a6141b887828585614853565b945094505050506141cc565b506000905060025b9250929050565b60008160048111156141e7576141e76158a9565b036141ef5750565b6001816004811115614203576142036158a9565b0361424b5760405162461bcd60e51b815260206004820152601860248201527745434453413a20696e76616c6964207369676e617475726560401b60448201526064016109cf565b600281600481111561425f5761425f6158a9565b036142ac5760405162461bcd60e51b815260206004820152601f60248201527f45434453413a20696e76616c6964207369676e6174757265206c656e6774680060448201526064016109cf565b60038160048111156142c0576142c06158a9565b03610ba85760405162461bcd60e51b815260206004820152602260248201527f45434453413a20696e76616c6964207369676e6174757265202773272076616c604482015261756560f01b60648201526084016109cf565b8515610a4e5782546001600160a01b03166310cabd1d600080516020616476833981519152878961271061434f6126486064615fdf565b6143599190615da5565b6040518563ffffffff1660e01b81526004016143789493929190615ff6565b600060405180830381600087803b15801561439257600080fd5b505af19250505080156143a3575060015b614401573d8080156143d1576040519150601f19603f3d011682016040523d82523d6000602084013e6143d6565b606091505b506143e38786888561490a565b6138976000805160206164768339815191528789848763ffffffff16565b610a4e600080516020616476833981519152868860006040516020016138c591815260200190565b8515610a4e57600061444261443c6149db565b866147ba565b9050868110614531576000805160206164168339815191526001600160a01b0316633d18b9126040518163ffffffff1660e01b8152600401600060405180830381600087803b15801561449457600080fd5b505af11580156144a8573d6000803e3d6000fd5b50506040516370a0823160e01b815261452c925060008051602061643683398151915291506370a08231906144e1903090600401615157565b602060405180830381865afa1580156144fe573d6000803e3d6000fd5b505050506040513d601f19601f8201168201806040525081019061452291906157aa565b87878787876137ae565b610fb1565b6000614547614540838a61586a565b8888614a0d565b90506000614553614bd1565b905060008183116145645782614566565b815b90506124da818a8a8a8a8a613973565b602080820151600090815260cf909152604090205460ff16156145db5760405162461bcd60e51b815260206004820152601e60248201527f4261736553747261746567793a3a416c726561647957697468647261776e000060448201526064016109cf565b6000806145eb8360000151613ca2565b91509150600060016040518060800160405280306001600160a01b0316815260200185815260200184815260200186602001518152506040516020016146329291906163b3565b60408051601f19818403018152919052905082156146735760cb5461466e90849061ffff600160a01b820416906001600160a01b031684612f7c565b61467c565b61467c8161306a565b505050602090810151600090815260cf90915260409020805460ff19166001179055565b6146a981614c05565b60ca546040516370a0823160e01b8152610ba89183916001600160a01b03909116906370a08231906114a7903090600401615157565b6060824710156147405760405162461bcd60e51b815260206004820152602660248201527f416464726573733a20696e73756666696369656e742062616c616e636520666f6044820152651c8818d85b1b60d21b60648201526084016109cf565b600080866001600160a01b0316858760405161475c9190615aca565b60006040518083038185875af1925050503d8060008114614799576040519150601f19603f3d011682016040523d82523d6000602084013e61479e565b606091505b50915091506147af87838387614e89565b979650505050505050565b6040516328bd9fc160e11b8152600090819073f68c20d6c50706f6c6bd8ee184382518c93b368c9063517b3f829061480690600080516020616436833981519152908890600401615d01565b602060405180830381865afa158015614823573d6000803e3d6000fd5b505050506040513d601f19601f8201168201806040525081019061484791906157aa565b90506121128184614f00565b6000806fa2a8918ca85bafe22016d0b997e4df60600160ff1b038311156148805750600090506003613551565b6040805160008082526020820180845289905260ff881692820192909252606081018690526080810185905260019060a0016020604051602081039080840390855afa1580156148d4573d6000803e3d6000fd5b5050604051601f1901519150506001600160a01b0381166148fd57600060019250925050613551565b9660009650945050505050565b60006149168585614f00565b90506000805160206163f68339815191526313dcfc598661493a8463ffffffff8716565b6040516001600160e01b031960e085901b1681526004810192909252602482015260008051602061647683398151915260448201526001600160a01b0386166064820152600160848201523060a48201524260c482015260e4016000604051808303816000875af11580156149b3573d6000803e3d6000fd5b505050506040513d6000823e601f3d908101601f19168201604052610a4e919081019061631a565b6040516246613160e11b815260009060008051602061641683398151915290628cc26290611859903090600401615157565b600080614a956000805160206164568339815191526001600160a01b031663313ce5676040518163ffffffff1660e01b8152600401602060405180830381865afa158015614a5f573d6000803e3d6000fd5b505050506040513d601f19601f82011682018060405250810190614a839190615d65565b614a8e90600a61611e565b8585614f7c565b90506000614aea86856000805160206164568339815191526001600160a01b031663313ce5676040518163ffffffff1660e01b8152600401602060405180830381865afa1580156127eb573d6000803e3d6000fd5b90506000614b3f83866000805160206164568339815191526001600160a01b031663313ce5676040518163ffffffff1660e01b8152600401602060405180830381865afa1580156127eb573d6000803e3d6000fd5b9050806000805160206164568339815191526001600160a01b031663313ce5676040518163ffffffff1660e01b8152600401602060405180830381865afa158015614b8e573d6000803e3d6000fd5b505050506040513d601f19601f82011682018060405250810190614bb29190615d65565b614bbd90600a61611e565b614bc79084615fdf565b6147af9190615da5565b6040516370a0823160e01b8152600090600080516020616416833981519152906370a0823190611859903090600401615157565b6000805160206164168339815191526001600160a01b0316632e1a7d4d73__$c227fba7995d6bae65c253a840cdb49c5a$__638f4508d06040518163ffffffff1660e01b8152600401602060405180830381865af4158015614c6b573d6000803e3d6000fd5b505050506040513d601f19601f82011682018060405250810190614c8f91906157aa565b6040518263ffffffff1660e01b8152600401614cad91815260200190565b600060405180830381600087803b158015614cc757600080fd5b505af1158015614cdb573d6000803e3d6000fd5b50506040516370a0823160e01b8152614d6d9250839150600080516020616456833981519152906370a0823190614d16903090600401615157565b602060405180830381865afa158015614d33573d6000803e3d6000fd5b505050506040513d601f19601f82011682018060405250810190614d5791906157aa565b600080516020616456833981519152919061229d565b6040516370a0823160e01b8152614dfb908290600080516020616476833981519152906370a0823190614da4903090600401615157565b602060405180830381865afa158015614dc1573d6000803e3d6000fd5b505050506040513d601f19601f82011682018060405250810190614de591906157aa565b600080516020616476833981519152919061229d565b6040516370a0823160e01b8152610ba8908290600080516020616436833981519152906370a0823190614e32903090600401615157565b602060405180830381865afa158015614e4f573d6000803e3d6000fd5b505050506040513d601f19601f82011682018060405250810190614e7391906157aa565b600080516020616436833981519152919061229d565b60608315614ef6578251600003614eef57614ea3856122f8565b614eef5760405162461bcd60e51b815260206004820152601d60248201527f416464726573733a2063616c6c20746f206e6f6e2d636f6e747261637400000060448201526064016109cf565b5081612112565b612112838361502b565b6000610f40836000805160206164768339815191526001600160a01b031663313ce5676040518163ffffffff1660e01b8152600401602060405180830381865afa158015614f52573d6000803e3d6000fd5b505050506040513d601f19601f82011682018060405250810190614f769190615d65565b846138dd565b6040516310e1b98f60e21b8152600090819081906000805160206163f683398151915290634386e63c90614fc9908890600080516020616476833981519152906001908c9060040161612d565b6040805180830381865afa158015614fe5573d6000803e3d6000fd5b505050506040513d601f19601f820116820180604052508101906150099190615f02565b915091506150178185614f00565b615021908361587d565b9695505050505050565b81511561503b5781518083602001fd5b8060405162461bcd60e51b81526004016109cf91906151bb565b803561ffff8116811461506757600080fd5b919050565b60008083601f84011261507e57600080fd5b5081356001600160401b0381111561509557600080fd5b6020830191508360208285010111156141cc57600080fd5b80356001600160401b038116811461506757600080fd5b600080600080600080608087890312156150dd57600080fd5b6150e687615055565b955060208701356001600160401b038082111561510257600080fd5b61510e8a838b0161506c565b909750955085915061512260408a016150ad565b9450606089013591508082111561513857600080fd5b5061514589828a0161506c565b979a9699509497509295939492505050565b6001600160a01b0391909116815260200190565b60005b8381101561518657818101518382015260200161516e565b50506000910152565b600081518084526151a781602086016020860161516b565b601f01601f19169290920160200192915050565b602081526000610f40602083018461518f565b6000602082840312156151e057600080fd5b610f4082615055565b600080604083850312156151fc57600080fd5b61520583615055565b946020939093013593505050565b6001600160a01b0381168114610ba857600080fd5b60006020828403121561523a57600080fd5b8135610f4081615213565b600080600080600080600080610100898b03121561526257600080fd5b883561526d81615213565b9750602089013561527d81615213565b9650604089013561528d81615213565b9550606089013561529d81615213565b94506152ab60808a01615055565b93506152b960a08a01615055565b925060c08901356152c981615213565b915060e08901356152d981615213565b809150509295985092959890939650565b6001600160a01b03169052565b60006020828403121561530957600080fd5b5035919050565b60008060006040848603121561532557600080fd5b61532e84615055565b925060208401356001600160401b0381111561534957600080fd5b6153558682870161506c565b9497909650939450505050565b8015158114610ba857600080fd5b60006020828403121561538257600080fd5b8135610f4081615362565b634e487b7160e01b600052604160045260246000fd5b604051602081016001600160401b03811182821017156153c5576153c561538d565b60405290565b604051601f8201601f191681016001600160401b03811182821017156153f3576153f361538d565b604052919050565b60006001600160401b038211156154145761541461538d565b50601f01601f191660200190565b600082601f83011261543357600080fd5b8135615446615441826153fb565b6153cb565b81815284602083860101111561545b57600080fd5b816020850160208301376000918101602001919091529392505050565b600080600080600060a0868803121561549057600080fd5b8535945060208601359350604086013592506060860135915060808601356001600160401b038111156154c257600080fd5b6154ce88828901615422565b9150509295509295909350565b6000806000606084860312156154f057600080fd5b6154f984615055565b925060208401356001600160401b0381111561551457600080fd5b61552086828701615422565b92505061552f604085016150ad565b90509250925092565b6000806040838503121561554b57600080fd5b61555483615055565b915061556260208401615055565b90509250929050565b60006060828403121561557d57600080fd5b604051606081016001600160401b038111828210171561559f5761559f61538d565b60405282356155ad81615213565b81526020838101359082015260408301356155c781615362565b60408201529392505050565b60008060008060008060c087890312156155ec57600080fd5b6155f587615055565b955060208701356001600160401b038082111561561157600080fd5b61561d8a838b01615422565b9650604089013595506060890135915061563682615213565b9093506080880135925060a0880135908082111561565357600080fd5b5061566089828a01615422565b9150509295509295509295565b60008060008060006080868803121561568557600080fd5b61568e86615055565b945061569c60208701615055565b93506040860135925060608601356001600160401b038111156156be57600080fd5b6156ca8882890161506c565b969995985093965092949392505050565b6000806000606084860312156156f057600080fd5b6156f984615055565b925061570760208501615055565b9150604084013590509250925092565b6000806000806080858703121561572d57600080fd5b843561573881615213565b9350602085013561574881615213565b93969395505050506040820135916060013590565b6000806000806080858703121561577357600080fd5b61577c85615055565b935061578a60208601615055565b9250604085013561579a81615213565b9396929550929360600135925050565b6000602082840312156157bc57600080fd5b5051919050565b600181811c908216806157d757607f821691505b6020821081036157f757634e487b7160e01b600052602260045260246000fd5b50919050565b8183823760009101908152919050565b81835281816020850137506000828201602090810191909152601f909101601f19169091010190565b61ffff8416815260406020820152600061210f60408301848661580d565b634e487b7160e01b600052601160045260246000fd5b818103818111156137a8576137a8615854565b808201808211156137a8576137a8615854565b6000600182016158a2576158a2615854565b5060010190565b634e487b7160e01b600052602160045260246000fd5b600581106158dd57634e487b7160e01b600052602160045260246000fd5b9052565b6158eb81846158bf565b604060208201526159006040820183516152ea565b6020820151606082015260408201516080820152606082015160a0820152608082015160c082015260a082015160e0820152600060c0830151610100818185015260e0850151915061012082818601528186015192506101409150828286015280860151925050610160828186015281860151925080610180860152505061598c6101a084018261518f565b95945050505050565b8284823760609190911b6001600160601b0319169101908152601401919050565b601f8211156122f357600081815260208120601f850160051c810160208610156159dd5750805b601f850160051c820191505b81811015610a4e578281556001016159e9565b600019600383901b1c191660019190911b1790565b81516001600160401b03811115615a2a57615a2a61538d565b615a3e81615a3884546157c3565b846159b6565b602080601f831160018114615a6d5760008415615a5b5750858301515b615a6585826159fc565b865550610a4e565b600085815260208120601f198616915b82811015615a9c57888601518255948401946001909101908401615a7d565b5085821015615aba5787850151600019600388901b60f8161c191681555b5050505050600190811b01905550565b60008251615adc81846020870161516b565b9190910192915050565b805160208201516001600160601b03198082169291906014831015615b155780818460140360031b1b83161693505b505050919050565b9182526001600160a01b0316602082015260400190565b600061ffff8088168352808716602084015250846040830152608060608301526147af60808301848661580d565b61ffff86168152608060208201526000615b8060808301868861580d565b6001600160401b0394909416604083015250606001529392505050565b6001600160401b03831115615bb457615bb461538d565b615bc883615bc283546157c3565b836159b6565b6000601f841160018114615bf65760008515615be45750838201355b615bee86826159fc565b845550610abc565b600083815260209020601f19861690835b82811015615c275786850135825560209485019460019092019101615c07565b5086821015615c445760001960f88860031b161c19848701351681555b505060018560011b0183555050505050565b600060208284031215615c6857600080fd5b81516001600160401b03811115615c7e57600080fd5b8201601f81018413615c8f57600080fd5b8051615c9d615441826153fb565b818152856020838501011115615cb257600080fd5b61598c82602083016020860161516b565b61ffff85168152608060208201526000615ce0608083018661518f565b6001600160401b038516604084015282810360608401526147af818561518f565b6001600160a01b03929092168252602082015260400190565b6020808252602b908201527f496e697469616c697a61626c653a20636f6e7472616374206973206e6f74206960408201526a6e697469616c697a696e6760a81b606082015260800190565b600060208284031215615d7757600080fd5b815160ff81168114610f4057600080fd5b600060208284031215615d9a57600080fd5b8151610f4081615362565b600082615dc257634e487b7160e01b600052601260045260246000fd5b500490565b602081526000825160806020840152615de360a084018261518f565b905060018060a01b03602085015116604084015260408401516060840152606084015160808401528091505092915050565b600080600060608486031215615e2a57600080fd5b8351925060208401519150604084015190509250925092565b61ffff841681526001600160a01b038316602082015260606040820181905260009061210f9083018461518f565b6001600160a01b0386811682526020820186905261ffff851660408301528316606082015260a0608082018190526000906147af9083018461518f565b61ffff861681526001600160a01b038516602082015260a060408201819052600090615edc9083018661518f565b84151560608401528281036080840152615ef6818561518f565b98975050505050505050565b60008060408385031215615f1557600080fd5b505080516020909101519092909150565b61ffff8716815260c060208201526000615f4360c083018861518f565b8281036040840152615f55818861518f565b6001600160a01b0387811660608601528616608085015283810360a08501529050615f80818561518f565b9998505050505050505050565b61ffff8616815260a060208201526000615faa60a083018761518f565b6001600160401b03861660408401528281036060840152615fcb818661518f565b90508281036080840152615ef6818561518f565b80820281158282048414176137a8576137a8615854565b6001600160a01b039485168152929093166020830152604082015260ff909116606082015260800190565b60ff82811682821603908111156137a8576137a8615854565b600181815b8085111561607557816000190482111561605b5761605b615854565b8085161561606857918102915b93841c939080029061603f565b509250929050565b60008261608c575060016137a8565b81616099575060006137a8565b81600181146160af57600281146160b9576160d5565b60019150506137a8565b60ff8411156160ca576160ca615854565b50506001821b6137a8565b5060208310610133831016604e8410600b84101617156160f8575081810a6137a8565b616102838361603a565b806000190482111561611657616116615854565b029392505050565b6000610f4060ff84168361607d565b6001600160a01b03948516815292909316602083015215156040820152606081019190915260800190565b60006020828403121561616a57600080fd5b815160058110610f4057600080fd5b600080828403604081121561618d57600080fd5b835192506020601f19820112156161a357600080fd5b506161ac6153a3565b6020939093015183525092909150565b60008082840360608112156161d057600080fd5b835192506040601f19820112156161e657600080fd5b50604080519081016001600160401b03811182821017156162095761620961538d565b60409081526020858101518352940151938101939093525092909150565b600080828403604081121561623b57600080fd5b835192506020601f198201121561625157600080fd5b5061625a6153a3565b602084015161626881615213565b8152919491935090915050565b634e487b7160e01b600052603260045260246000fd5b600060a0820187835260208781850152604060a08186015282885180855260c087019150838a01945060005b818110156162f457855180516001600160a01b039081168552868201511686850152840151151584840152948401946060909201916001016162b7565b50508094505050505061630a60608301856152ea565b8260808301529695505050505050565b6000602080838503121561632d57600080fd5b82516001600160401b038082111561634457600080fd5b818501915085601f83011261635857600080fd5b81518181111561636a5761636a61538d565b8060051b915061637b8483016153cb565b818152918301840191848101908884111561639557600080fd5b938501935b83851015615ef65784518252938501939085019061639a565b60a081016163c182856158bf565b60018060a01b038351166020830152602083015160408301526040830151606083015260608301516080830152939250505056fe000000000000000000000000cc25c0fd84737f44a7d38649b69491bbf0c7f08300000000000000000000000097bd59a8202f8263c2ec39cf6cf6b438d0b458760000000000000000000000007238390d5f6f64e67c3211c343a410e2a3dec142000000000000000000000000d17cb0f162f133e339c0bbfc18c36c357e681d6b00000000000000000000000040379a439d4f6795b6fc9aa5687db461677a2dbab0c58532a125fc3c0adccaef396bf65344a4d5781cec2e4c593e6b611d75f150a26469706673582212201406589bf045a131fedd873941a040a901362e88099b632010c5d909e1cc238764736f6c63430008130033",
  "linkReferences": {
    "contracts/strategies/utils/PearlStrategyLib.sol": {
      "PearlStrategyLib": [
        {
          "length": 20,
          "start": 7326
        },
        {
          "length": 20,
          "start": 7352
        },
        {
          "length": 20,
          "start": 7607
        },
        {
          "length": 20,
          "start": 7736
        },
        {
          "length": 20,
          "start": 11746
        },
        {
          "length": 20,
          "start": 19525
        }
      ]
    }
  },
  "deployedLinkReferences": {
    "contracts/strategies/utils/PearlStrategyLib.sol": {
      "PearlStrategyLib": [
        {
          "length": 20,
          "start": 7293
        },
        {
          "length": 20,
          "start": 7319
        },
        {
          "length": 20,
          "start": 7574
        },
        {
          "length": 20,
          "start": 7703
        },
        {
          "length": 20,
          "start": 11713
        },
        {
          "length": 20,
          "start": 19492
        }
      ]
    }
  }
}