{
  "_format": "hh-sol-artifact-1",
  "contractName": "PearlStrategy",
  "sourceName": "contracts/strategies/PearlStrategy.sol",
  "abi": [
    {
      "inputs": [
        {
          "internalType": "uint256",
          "name": "messageType",
          "type": "uint256"
        }
      ],
      "name": "IncorrectMessageType",
      "type": "error"
    },
    {
      "inputs": [
        {
          "internalType": "uint256",
          "name": "amount",
          "type": "uint256"
        },
        {
          "internalType": "uint256",
          "name": "balance",
          "type": "uint256"
        }
      ],
      "name": "InsufficientFunds",
      "type": "error"
    },
    {
      "anonymous": false,
      "inputs": [
        {
          "indexed": false,
          "internalType": "uint256",
          "name": "debtOutstanding",
          "type": "uint256"
        }
      ],
      "name": "AdjustedPosition",
      "type": "event"
    },
    {
      "anonymous": false,
      "inputs": [
        {
          "indexed": false,
          "internalType": "uint8",
          "name": "version",
          "type": "uint8"
        }
      ],
      "name": "Initialized",
      "type": "event"
    },
    {
      "anonymous": false,
      "inputs": [
        {
          "indexed": false,
          "internalType": "uint16",
          "name": "_srcChainId",
          "type": "uint16"
        },
        {
          "indexed": false,
          "internalType": "bytes",
          "name": "_srcAddress",
          "type": "bytes"
        },
        {
          "indexed": false,
          "internalType": "uint64",
          "name": "_nonce",
          "type": "uint64"
        },
        {
          "indexed": false,
          "internalType": "bytes",
          "name": "_payload",
          "type": "bytes"
        },
        {
          "indexed": false,
          "internalType": "bytes",
          "name": "_reason",
          "type": "bytes"
        }
      ],
      "name": "MessageFailed",
      "type": "event"
    },
    {
      "anonymous": false,
      "inputs": [
        {
          "indexed": true,
          "internalType": "address",
          "name": "previousOwner",
          "type": "address"
        },
        {
          "indexed": true,
          "internalType": "address",
          "name": "newOwner",
          "type": "address"
        }
      ],
      "name": "OwnershipTransferred",
      "type": "event"
    },
    {
      "anonymous": false,
      "inputs": [
        {
          "indexed": false,
          "internalType": "uint16",
          "name": "_srcChainId",
          "type": "uint16"
        },
        {
          "indexed": false,
          "internalType": "bytes",
          "name": "_srcAddress",
          "type": "bytes"
        },
        {
          "indexed": false,
          "internalType": "uint64",
          "name": "_nonce",
          "type": "uint64"
        },
        {
          "indexed": false,
          "internalType": "bytes32",
          "name": "_payloadHash",
          "type": "bytes32"
        }
      ],
      "name": "RetryMessageSuccess",
      "type": "event"
    },
    {
      "anonymous": false,
      "inputs": [
        {
          "indexed": false,
          "internalType": "uint16",
          "name": "_dstChainId",
          "type": "uint16"
        },
        {
          "indexed": false,
          "internalType": "uint16",
          "name": "_type",
          "type": "uint16"
        },
        {
          "indexed": false,
          "internalType": "uint256",
          "name": "_minDstGas",
          "type": "uint256"
        }
      ],
      "name": "SetMinDstGas",
      "type": "event"
    },
    {
      "anonymous": false,
      "inputs": [
        {
          "indexed": false,
          "internalType": "address",
          "name": "precrime",
          "type": "address"
        }
      ],
      "name": "SetPrecrime",
      "type": "event"
    },
    {
      "anonymous": false,
      "inputs": [
        {
          "indexed": false,
          "internalType": "uint16",
          "name": "_remoteChainId",
          "type": "uint16"
        },
        {
          "indexed": false,
          "internalType": "bytes",
          "name": "_path",
          "type": "bytes"
        }
      ],
      "name": "SetTrustedRemote",
      "type": "event"
    },
    {
      "anonymous": false,
      "inputs": [
        {
          "indexed": false,
          "internalType": "uint16",
          "name": "_remoteChainId",
          "type": "uint16"
        },
        {
          "indexed": false,
          "internalType": "bytes",
          "name": "_remoteAddress",
          "type": "bytes"
        }
      ],
      "name": "SetTrustedRemoteAddress",
      "type": "event"
    },
    {
      "anonymous": false,
      "inputs": [
        {
          "indexed": true,
          "internalType": "address",
          "name": "token",
          "type": "address"
        },
        {
          "indexed": false,
          "internalType": "uint256",
          "name": "amount",
          "type": "uint256"
        },
        {
          "indexed": false,
          "internalType": "address",
          "name": "sender",
          "type": "address"
        }
      ],
      "name": "SgReceived",
      "type": "event"
    },
    {
      "anonymous": false,
      "inputs": [
        {
          "indexed": false,
          "internalType": "address",
          "name": "newStrategy",
          "type": "address"
        }
      ],
      "name": "StrategyMigrated",
      "type": "event"
    },
    {
      "anonymous": false,
      "inputs": [
        {
          "indexed": false,
          "internalType": "uint256",
          "name": "profit",
          "type": "uint256"
        },
        {
          "indexed": false,
          "internalType": "uint256",
          "name": "loss",
          "type": "uint256"
        },
        {
          "indexed": false,
          "internalType": "uint256",
          "name": "debtPayment",
          "type": "uint256"
        },
        {
          "indexed": false,
          "internalType": "uint256",
          "name": "giveToStrategy",
          "type": "uint256"
        },
        {
          "indexed": false,
          "internalType": "uint256",
          "name": "requestFromStrategy",
          "type": "uint256"
        },
        {
          "indexed": false,
          "internalType": "uint256",
          "name": "creditAvailable",
          "type": "uint256"
        },
        {
          "indexed": false,
          "internalType": "uint256",
          "name": "totalAssets",
          "type": "uint256"
        }
      ],
      "name": "StrategyReported",
      "type": "event"
    },
    {
      "inputs": [],
      "name": "DEFAULT_PAYLOAD_SIZE_LIMIT",
      "outputs": [
        {
          "internalType": "uint256",
          "name": "",
          "type": "uint256"
        }
      ],
      "stateMutability": "view",
      "type": "function"
    },
    {
      "inputs": [],
      "name": "DEFAULT_SLIPPAGE",
      "outputs": [
        {
          "internalType": "uint256",
          "name": "",
          "type": "uint256"
        }
      ],
      "stateMutability": "view",
      "type": "function"
    },
    {
      "inputs": [
        {
          "internalType": "uint256",
          "name": "_debtOutstanding",
          "type": "uint256"
        }
      ],
      "name": "adjustPosition",
      "outputs": [],
      "stateMutability": "nonpayable",
      "type": "function"
    },
    {
      "inputs": [],
      "name": "balanceOfLpStaked",
      "outputs": [
        {
          "internalType": "uint256",
          "name": "",
          "type": "uint256"
        }
      ],
      "stateMutability": "view",
      "type": "function"
    },
    {
      "inputs": [],
      "name": "balanceOfPearlRewards",
      "outputs": [
        {
          "internalType": "uint256",
          "name": "",
          "type": "uint256"
        }
      ],
      "stateMutability": "view",
      "type": "function"
    },
    {
      "inputs": [],
      "name": "balanceOfWant",
      "outputs": [
        {
          "internalType": "uint256",
          "name": "",
          "type": "uint256"
        }
      ],
      "stateMutability": "view",
      "type": "function"
    },
    {
      "inputs": [
        {
          "internalType": "uint256",
          "name": "epoch",
          "type": "uint256"
        }
      ],
      "name": "callMe",
      "outputs": [],
      "stateMutability": "nonpayable",
      "type": "function"
    },
    {
      "inputs": [],
      "name": "clearWant",
      "outputs": [],
      "stateMutability": "nonpayable",
      "type": "function"
    },
    {
      "inputs": [],
      "name": "currentChainId",
      "outputs": [
        {
          "internalType": "uint16",
          "name": "",
          "type": "uint16"
        }
      ],
      "stateMutability": "view",
      "type": "function"
    },
    {
      "inputs": [
        {
          "internalType": "uint256",
          "name": "_daiAmount",
          "type": "uint256"
        }
      ],
      "name": "daiToWant",
      "outputs": [
        {
          "internalType": "uint256",
          "name": "",
          "type": "uint256"
        }
      ],
      "stateMutability": "view",
      "type": "function"
    },
    {
      "inputs": [],
      "name": "emergencyExit",
      "outputs": [
        {
          "internalType": "bool",
          "name": "",
          "type": "bool"
        }
      ],
      "stateMutability": "view",
      "type": "function"
    },
    {
      "inputs": [],
      "name": "estimatedTotalAssets",
      "outputs": [
        {
          "internalType": "uint256",
          "name": "",
          "type": "uint256"
        }
      ],
      "stateMutability": "view",
      "type": "function"
    },
    {
      "inputs": [
        {
          "internalType": "uint16",
          "name": "",
          "type": "uint16"
        },
        {
          "internalType": "bytes",
          "name": "",
          "type": "bytes"
        },
        {
          "internalType": "uint64",
          "name": "",
          "type": "uint64"
        }
      ],
      "name": "failedMessages",
      "outputs": [
        {
          "internalType": "bytes32",
          "name": "",
          "type": "bytes32"
        }
      ],
      "stateMutability": "view",
      "type": "function"
    },
    {
      "inputs": [
        {
          "internalType": "uint16",
          "name": "_srcChainId",
          "type": "uint16"
        },
        {
          "internalType": "bytes",
          "name": "_srcAddress",
          "type": "bytes"
        }
      ],
      "name": "forceResumeReceive",
      "outputs": [],
      "stateMutability": "nonpayable",
      "type": "function"
    },
    {
      "inputs": [
        {
          "internalType": "uint16",
          "name": "_version",
          "type": "uint16"
        },
        {
          "internalType": "uint16",
          "name": "_chainId",
          "type": "uint16"
        },
        {
          "internalType": "address",
          "name": "",
          "type": "address"
        },
        {
          "internalType": "uint256",
          "name": "_configType",
          "type": "uint256"
        }
      ],
      "name": "getConfig",
      "outputs": [
        {
          "internalType": "bytes",
          "name": "",
          "type": "bytes"
        }
      ],
      "stateMutability": "view",
      "type": "function"
    },
    {
      "inputs": [
        {
          "internalType": "bytes32",
          "name": "_messageHash",
          "type": "bytes32"
        }
      ],
      "name": "getEthSignedMessageHash",
      "outputs": [
        {
          "internalType": "bytes32",
          "name": "",
          "type": "bytes32"
        }
      ],
      "stateMutability": "pure",
      "type": "function"
    },
    {
      "inputs": [
        {
          "internalType": "uint16",
          "name": "_remoteChainId",
          "type": "uint16"
        }
      ],
      "name": "getTrustedRemoteAddress",
      "outputs": [
        {
          "internalType": "bytes",
          "name": "",
          "type": "bytes"
        }
      ],
      "stateMutability": "view",
      "type": "function"
    },
    {
      "inputs": [
        {
          "internalType": "uint256",
          "name": "_totalDebt",
          "type": "uint256"
        },
        {
          "internalType": "uint256",
          "name": "_debtOutstanding",
          "type": "uint256"
        },
        {
          "internalType": "uint256",
          "name": "_creditAvailable",
          "type": "uint256"
        },
        {
          "internalType": "uint256",
          "name": "_debtRatio",
          "type": "uint256"
        },
        {
          "internalType": "bytes",
          "name": "_signature",
          "type": "bytes"
        }
      ],
      "name": "harvest",
      "outputs": [],
      "stateMutability": "nonpayable",
      "type": "function"
    },
    {
      "inputs": [
        {
          "internalType": "address",
          "name": "_lzEndpoint",
          "type": "address"
        },
        {
          "internalType": "address",
          "name": "_strategist",
          "type": "address"
        },
        {
          "internalType": "contract IERC20",
          "name": "_want",
          "type": "address"
        },
        {
          "internalType": "address",
          "name": "_vault",
          "type": "address"
        },
        {
          "internalType": "uint16",
          "name": "_vaultChainId",
          "type": "uint16"
        },
        {
          "internalType": "uint16",
          "name": "_currentChainId",
          "type": "uint16"
        },
        {
          "internalType": "address",
          "name": "_sgBridge",
          "type": "address"
        },
        {
          "internalType": "address",
          "name": "_router",
          "type": "address"
        }
      ],
      "name": "initialize",
      "outputs": [],
      "stateMutability": "nonpayable",
      "type": "function"
    },
    {
      "inputs": [
        {
          "internalType": "uint16",
          "name": "_srcChainId",
          "type": "uint16"
        },
        {
          "internalType": "bytes",
          "name": "_srcAddress",
          "type": "bytes"
        }
      ],
      "name": "isTrustedRemote",
      "outputs": [
        {
          "internalType": "bool",
          "name": "",
          "type": "bool"
        }
      ],
      "stateMutability": "view",
      "type": "function"
    },
    {
      "inputs": [],
      "name": "lzEndpoint",
      "outputs": [
        {
          "internalType": "contract ILayerZeroEndpointUpgradeable",
          "name": "",
          "type": "address"
        }
      ],
      "stateMutability": "view",
      "type": "function"
    },
    {
      "inputs": [
        {
          "internalType": "uint16",
          "name": "_srcChainId",
          "type": "uint16"
        },
        {
          "internalType": "bytes",
          "name": "_srcAddress",
          "type": "bytes"
        },
        {
          "internalType": "uint64",
          "name": "_nonce",
          "type": "uint64"
        },
        {
          "internalType": "bytes",
          "name": "_payload",
          "type": "bytes"
        }
      ],
      "name": "lzReceive",
      "outputs": [],
      "stateMutability": "nonpayable",
      "type": "function"
    },
    {
      "inputs": [
        {
          "internalType": "uint16",
          "name": "",
          "type": "uint16"
        },
        {
          "internalType": "uint16",
          "name": "",
          "type": "uint16"
        }
      ],
      "name": "minDstGasLookup",
      "outputs": [
        {
          "internalType": "uint256",
          "name": "",
          "type": "uint256"
        }
      ],
      "stateMutability": "view",
      "type": "function"
    },
    {
      "inputs": [],
      "name": "name",
      "outputs": [
        {
          "internalType": "string",
          "name": "",
          "type": "string"
        }
      ],
      "stateMutability": "pure",
      "type": "function"
    },
    {
      "inputs": [
        {
          "internalType": "uint16",
          "name": "_srcChainId",
          "type": "uint16"
        },
        {
          "internalType": "bytes",
          "name": "_srcAddress",
          "type": "bytes"
        },
        {
          "internalType": "uint64",
          "name": "_nonce",
          "type": "uint64"
        },
        {
          "internalType": "bytes",
          "name": "_payload",
          "type": "bytes"
        }
      ],
      "name": "nonblockingLzReceive",
      "outputs": [],
      "stateMutability": "nonpayable",
      "type": "function"
    },
    {
      "inputs": [],
      "name": "owner",
      "outputs": [
        {
          "internalType": "address",
          "name": "",
          "type": "address"
        }
      ],
      "stateMutability": "view",
      "type": "function"
    },
    {
      "inputs": [
        {
          "internalType": "uint16",
          "name": "",
          "type": "uint16"
        }
      ],
      "name": "payloadSizeLimitLookup",
      "outputs": [
        {
          "internalType": "uint256",
          "name": "",
          "type": "uint256"
        }
      ],
      "stateMutability": "view",
      "type": "function"
    },
    {
      "inputs": [
        {
          "internalType": "uint256",
          "name": "_pearlAmount",
          "type": "uint256"
        }
      ],
      "name": "pearlToWant",
      "outputs": [
        {
          "internalType": "uint256",
          "name": "",
          "type": "uint256"
        }
      ],
      "stateMutability": "view",
      "type": "function"
    },
    {
      "inputs": [],
      "name": "precrime",
      "outputs": [
        {
          "internalType": "address",
          "name": "",
          "type": "address"
        }
      ],
      "stateMutability": "view",
      "type": "function"
    },
    {
      "inputs": [],
      "name": "renounceOwnership",
      "outputs": [],
      "stateMutability": "nonpayable",
      "type": "function"
    },
    {
      "inputs": [
        {
          "internalType": "uint16",
          "name": "_srcChainId",
          "type": "uint16"
        },
        {
          "internalType": "bytes",
          "name": "_srcAddress",
          "type": "bytes"
        },
        {
          "internalType": "uint64",
          "name": "_nonce",
          "type": "uint64"
        },
        {
          "internalType": "bytes",
          "name": "_payload",
          "type": "bytes"
        }
      ],
      "name": "retryMessage",
      "outputs": [],
      "stateMutability": "payable",
      "type": "function"
    },
    {
      "inputs": [],
      "name": "revokeFunds",
      "outputs": [],
      "stateMutability": "nonpayable",
      "type": "function"
    },
    {
      "inputs": [
        {
          "internalType": "uint16",
          "name": "_version",
          "type": "uint16"
        },
        {
          "internalType": "uint16",
          "name": "_chainId",
          "type": "uint16"
        },
        {
          "internalType": "uint256",
          "name": "_configType",
          "type": "uint256"
        },
        {
          "internalType": "bytes",
          "name": "_config",
          "type": "bytes"
        }
      ],
      "name": "setConfig",
      "outputs": [],
      "stateMutability": "nonpayable",
      "type": "function"
    },
    {
      "inputs": [
        {
          "internalType": "bool",
          "name": "_emergencyExit",
          "type": "bool"
        }
      ],
      "name": "setEmergencyExit",
      "outputs": [],
      "stateMutability": "nonpayable",
      "type": "function"
    },
    {
      "inputs": [
        {
          "internalType": "uint16",
          "name": "_dstChainId",
          "type": "uint16"
        },
        {
          "internalType": "uint16",
          "name": "_packetType",
          "type": "uint16"
        },
        {
          "internalType": "uint256",
          "name": "_minGas",
          "type": "uint256"
        }
      ],
      "name": "setMinDstGas",
      "outputs": [],
      "stateMutability": "nonpayable",
      "type": "function"
    },
    {
      "inputs": [
        {
          "internalType": "uint16",
          "name": "_dstChainId",
          "type": "uint16"
        },
        {
          "internalType": "uint256",
          "name": "_size",
          "type": "uint256"
        }
      ],
      "name": "setPayloadSizeLimit",
      "outputs": [],
      "stateMutability": "nonpayable",
      "type": "function"
    },
    {
      "inputs": [
        {
          "internalType": "address",
          "name": "_precrime",
          "type": "address"
        }
      ],
      "name": "setPrecrime",
      "outputs": [],
      "stateMutability": "nonpayable",
      "type": "function"
    },
    {
      "inputs": [
        {
          "internalType": "uint16",
          "name": "_version",
          "type": "uint16"
        }
      ],
      "name": "setReceiveVersion",
      "outputs": [],
      "stateMutability": "nonpayable",
      "type": "function"
    },
    {
      "inputs": [
        {
          "internalType": "uint16",
          "name": "_version",
          "type": "uint16"
        }
      ],
      "name": "setSendVersion",
      "outputs": [],
      "stateMutability": "nonpayable",
      "type": "function"
    },
    {
      "inputs": [
        {
          "internalType": "uint256",
          "name": "_slippage",
          "type": "uint256"
        }
      ],
      "name": "setSlippage",
      "outputs": [],
      "stateMutability": "nonpayable",
      "type": "function"
    },
    {
      "inputs": [
        {
          "internalType": "address",
          "name": "_strategist",
          "type": "address"
        }
      ],
      "name": "setStrategist",
      "outputs": [],
      "stateMutability": "nonpayable",
      "type": "function"
    },
    {
      "inputs": [
        {
          "internalType": "uint16",
          "name": "_srcChainId",
          "type": "uint16"
        },
        {
          "internalType": "bytes",
          "name": "_path",
          "type": "bytes"
        }
      ],
      "name": "setTrustedRemote",
      "outputs": [],
      "stateMutability": "nonpayable",
      "type": "function"
    },
    {
      "inputs": [
        {
          "internalType": "uint16",
          "name": "_remoteChainId",
          "type": "uint16"
        },
        {
          "internalType": "bytes",
          "name": "_remoteAddress",
          "type": "bytes"
        }
      ],
      "name": "setTrustedRemoteAddress",
      "outputs": [],
      "stateMutability": "nonpayable",
      "type": "function"
    },
    {
      "inputs": [],
      "name": "sgBridge",
      "outputs": [
        {
          "internalType": "contract ISgBridge",
          "name": "",
          "type": "address"
        }
      ],
      "stateMutability": "view",
      "type": "function"
    },
    {
      "inputs": [
        {
          "internalType": "uint16",
          "name": "",
          "type": "uint16"
        },
        {
          "internalType": "bytes",
          "name": "_srcAddress",
          "type": "bytes"
        },
        {
          "internalType": "uint256",
          "name": "",
          "type": "uint256"
        },
        {
          "internalType": "address",
          "name": "_token",
          "type": "address"
        },
        {
          "internalType": "uint256",
          "name": "_amountLD",
          "type": "uint256"
        },
        {
          "internalType": "bytes",
          "name": "",
          "type": "bytes"
        }
      ],
      "name": "sgReceive",
      "outputs": [],
      "stateMutability": "nonpayable",
      "type": "function"
    },
    {
      "inputs": [],
      "name": "sgRouter",
      "outputs": [
        {
          "internalType": "contract IStargateRouter",
          "name": "",
          "type": "address"
        }
      ],
      "stateMutability": "view",
      "type": "function"
    },
    {
      "inputs": [],
      "name": "slippage",
      "outputs": [
        {
          "internalType": "uint256",
          "name": "",
          "type": "uint256"
        }
      ],
      "stateMutability": "view",
      "type": "function"
    },
    {
      "inputs": [],
      "name": "strategist",
      "outputs": [
        {
          "internalType": "address",
          "name": "",
          "type": "address"
        }
      ],
      "stateMutability": "view",
      "type": "function"
    },
    {
      "inputs": [],
      "name": "strategistSignMessageHash",
      "outputs": [
        {
          "internalType": "bytes32",
          "name": "",
          "type": "bytes32"
        }
      ],
      "stateMutability": "view",
      "type": "function"
    },
    {
      "inputs": [
        {
          "internalType": "contract IERC20",
          "name": "_token",
          "type": "address"
        }
      ],
      "name": "sweepToken",
      "outputs": [],
      "stateMutability": "nonpayable",
      "type": "function"
    },
    {
      "inputs": [
        {
          "internalType": "address",
          "name": "newOwner",
          "type": "address"
        }
      ],
      "name": "transferOwnership",
      "outputs": [],
      "stateMutability": "nonpayable",
      "type": "function"
    },
    {
      "inputs": [
        {
          "internalType": "uint16",
          "name": "",
          "type": "uint16"
        }
      ],
      "name": "trustedRemoteLookup",
      "outputs": [
        {
          "internalType": "bytes",
          "name": "",
          "type": "bytes"
        }
      ],
      "stateMutability": "view",
      "type": "function"
    },
    {
      "inputs": [
        {
          "internalType": "uint256",
          "name": "_usdrLpAmount",
          "type": "uint256"
        }
      ],
      "name": "usdrLpToWant",
      "outputs": [
        {
          "internalType": "uint256",
          "name": "",
          "type": "uint256"
        }
      ],
      "stateMutability": "view",
      "type": "function"
    },
    {
      "inputs": [
        {
          "internalType": "uint256",
          "name": "_usdrAmount",
          "type": "uint256"
        }
      ],
      "name": "usdrToWant",
      "outputs": [
        {
          "internalType": "uint256",
          "name": "",
          "type": "uint256"
        }
      ],
      "stateMutability": "view",
      "type": "function"
    },
    {
      "inputs": [],
      "name": "vault",
      "outputs": [
        {
          "internalType": "address",
          "name": "",
          "type": "address"
        }
      ],
      "stateMutability": "view",
      "type": "function"
    },
    {
      "inputs": [],
      "name": "vaultChainId",
      "outputs": [
        {
          "internalType": "uint16",
          "name": "",
          "type": "uint16"
        }
      ],
      "stateMutability": "view",
      "type": "function"
    },
    {
      "inputs": [],
      "name": "want",
      "outputs": [
        {
          "internalType": "contract IERC20",
          "name": "",
          "type": "address"
        }
      ],
      "stateMutability": "view",
      "type": "function"
    },
    {
      "inputs": [],
      "name": "wantDecimals",
      "outputs": [
        {
          "internalType": "uint8",
          "name": "",
          "type": "uint8"
        }
      ],
      "stateMutability": "view",
      "type": "function"
    },
    {
      "inputs": [
        {
          "internalType": "uint256",
          "name": "_wantAmount",
          "type": "uint256"
        }
      ],
      "name": "wantToUsdrLp",
      "outputs": [
        {
          "internalType": "uint256",
          "name": "",
          "type": "uint256"
        }
      ],
      "stateMutability": "view",
      "type": "function"
    },
    {
      "stateMutability": "payable",
      "type": "receive"
    }
  ],
  "bytecode": "0x60808060405234610017576156d990816200001d8239f35b600080fdfe6080604052600436101561001b575b361561001957600080fd5b005b60003560e01c80621d3567146103ca5780630517cb76146103c557806306fdde03146103c057806307e0db17146103bb5780630df37483146103b657806310ddb137146103b15780631be19560146103ac5780631cdb539f146103a75780631f1fcd51146103a25780631fe4a6861461039d5780632d6068431461039857806337fded91146103935780633d3ccc2f1461038e5780633d8b38f6146103895780633e032a3b146103845780633eae11121461037f5780633f1f4fa41461037a57806342d65a8d1461037557806345ee075514610370578063495f881e1461036b5780635641ec0314610366578063567ad85d14610361578063593178de1461035c5780635b8c41e61461035757806366ad5c8a146103525780636cbadbfa1461034d578063715018a6146103485780637533d788146103435780638cfd8f5c1461033e5780638da5cb5b146103395780638f4508d014610334578063950c8a741461032f5780639589c9901461032a5780639606647d146103255780639f38369a14610320578063a6c3d1651461031b578063a879851014610316578063a9e5082414610311578063ab8236f31461030c578063adf076e614610307578063b353aaa714610302578063baf3292d146102fd578063bd79ac13146102f8578063c1a3d44c146102f3578063c4461834146102ee578063c7b9d530146102e9578063cbed8b9c146102e4578063d1deba1f146102df578063d56739ac146102da578063df2a5b3b146102d5578063e73620c3146102d0578063eb8d72b7146102cb578063efbb5cb0146102c6578063f0fa55a9146102c1578063f2fde38b146102bc578063f5ecbdbc146102b7578063fa540801146102b2578063fbfa77cf146102ad5763fcb988a40361000e57612117565b6120ee565b6120d0565b61201d565b611f8c565b611f6b565b611f50565b611e2a565b611df6565b611d11565b611cf6565b611bc9565b611b03565b611abc565b611a9f565b611a2b565b611988565b611918565b6118ef565b6118cb565b6117ab565b61178d565b611770565b61160f565b611564565b6114bf565b6114a1565b611478565b61145d565b611434565b6113e1565b611398565b61126e565b611249565b611110565b611081565b611038565b611013565b610ff0565b610d79565b610bac565b610b37565b610b02565b610adc565b610abe565b610a73565b6109fa565b6109cd565b610988565b61095f565b610923565b6108a0565b61080a565b610791565b610756565b6106d6565b610684565b6105ff565b6104a0565b6004359061ffff821682036103e057565b600080fd5b6024359061ffff821682036103e057565b9181601f840112156103e0578235916001600160401b0383116103e057602083818601950101116103e057565b604435906001600160401b03821682036103e057565b9060806003198301126103e05760043561ffff811681036103e057916001600160401b03906024358281116103e05781610475916004016103f6565b9390939260443581811681036103e057926064359182116103e05761049c916004016103f6565b9091565b346103e0576104ae36610439565b60655490949293906001600160a01b03163303610597576104dc926104d4913691610d27565b933691610d27565b905a604051633356ae4560e11b6020820190815261ffff871660248301526080604483015294916105468261053861051760a483018761064b565b6001600160401b03881660648401528281036023190160848401528861064b565b03601f198101845283610c9b565b600080916040519761055789610c4a565b609689528260208a019560a036883751923090f1903d906096821161058e575b6000908288523e1561058557005b61001994612b99565b60969150610577565b60405162461bcd60e51b815260206004820152602360248201527f4261736553747261746567793a3a496e76616c6964456e64706f696e7443616c6044820152623632b960e91b6064820152608490fd5b60009103126103e057565b6001600160a01b031690565b346103e05760003660031901126103e05760ce546040516001600160a01b039091168152602090f35b60005b83811061063b5750506000910152565b818101518382015260200161062b565b9060209161066481518092818552858086019101610628565b601f01601f1916010190565b90602061068192818152019061064b565b90565b346103e05760003660031901126103e0576106d26040516106a481610c65565b600d81526c506561726c537472617465677960981b602082015260405191829160208352602083019061064b565b0390f35b346103e05760006020366003190112610753576106f16103cf565b6106f961245b565b6065546001600160a01b0316908290823b1561074f57602461ffff918360405195869485936307e0db1760e01b85521660048401525af1801561074a5761073e575080f35b61074790610bfc565b80f35b612193565b5080fd5b80fd5b346103e05760403660031901126103e05761ffff6107726103cf565b61077a61245b565b166000526068602052602435604060002055600080f35b346103e05760006020366003190112610753576107ac6103cf565b6107b461245b565b6065546001600160a01b0316908290823b1561074f57602461ffff918360405195869485936310ddb13760e01b85521660048401525af1801561074a5761073e575080f35b6001600160a01b038116036103e057565b346103e05760203660031901126103e057600435610827816107f9565b61082f612e91565b6040516370a0823160e01b8152306004820152906020826024816001600160a01b0385165afa90811561074a5761001992600092610870575b5033906125b7565b61089291925060203d8111610899575b61088a8183610c9b565b8101906124ea565b9038610868565b503d610880565b346103e0576101003660031901126103e0576004356108be816107f9565b602435906108cb826107f9565b604435916108d8836107f9565b6064356108e4816107f9565b60843561ffff9182821682036103e05760a43592831683036103e0576100199560c43594610911866107f9565b60e4359661091e886107f9565b613866565b346103e05760003660031901126103e05760ca546040516001600160a01b039091168152602090f35b6001600160a01b03909116815260200190565b346103e05760003660031901126103e05760c9546040516001600160a01b039091168152602090f35b346103e057600080600319360112610753576109a2612e91565b8080808060018060a01b0360c9541647908282156109c4575bf11561074a5780f35b506108fc6109bb565b346103e05760003660031901126103e05760cd5460405160089190911c6001600160a01b03168152602090f35b346103e05760203660031901126103e0576000805160206156848339815191526020600435610a27612e91565b610a3081614ef7565b604051908152a1005b9060406003198301126103e05760043561ffff811681036103e05791602435906001600160401b0382116103e05761049c916004016103f6565b346103e057602061ffff610aaf610a8936610a39565b9390911660005260668452610aa160406000206112f4565b848151910120923691610d27565b82815191012014604051908152f35b346103e05760003660031901126103e057602060cc54604051908152f35b346103e05760203660031901126103e0576020610afa6004356142ab565b604051908152f35b346103e05760203660031901126103e05761ffff610b1e6103cf565b1660005260686020526020604060002054604051908152f35b346103e057610b4536610a39565b610b5092919261245b565b6065546000938492916001600160a01b031690813b15610b9e5783610b8c95604051968795869485936342d65a8d60e01b8552600485016121c0565b03925af1801561074a5761073e575080f35b8380fd5b801515036103e057565b346103e05760203660031901126103e057600435610bc981610ba2565b610bd1612e91565b60ff801960cd5416911515161760cd55600080f35b634e487b7160e01b600052604160045260246000fd5b6001600160401b038111610c0f57604052565b610be6565b602081019081106001600160401b03821117610c0f57604052565b606081019081106001600160401b03821117610c0f57604052565b60c081019081106001600160401b03821117610c0f57604052565b604081019081106001600160401b03821117610c0f57604052565b608081019081106001600160401b03821117610c0f57604052565b601f909101601f19168101906001600160401b03821190821017610c0f57604052565b6040519061016082016001600160401b03811183821017610c0f57604052565b60405190608082016001600160401b03811183821017610c0f57604052565b60405190610d0a82610c2f565b565b6001600160401b038111610c0f57601f01601f191660200190565b929192610d3382610d0c565b91610d416040519384610c9b565b8294818452818301116103e0578281602093846000960137010152565b9080601f830112156103e05781602061068193359101610d27565b346103e05760a03660031901126103e0576084356044356024356001600160401b0383116103e057610dd07fb983e09c034e9c52b5e547cb0589967992b97717733f580cc5ad0afcdc4b522b933690600401610d5e565b90610dd9612e91565b610de282612c4a565b60008092610df260cd5460ff1690565b15610fd557610e0360643515612a23565b610e0b614e4f565b9383851015610fa35750610e2d610e268495610f5a95612245565b8095612245565b945b610e398684612306565b600082821015610f915750610e4e9082612245565b926000905b610e6482610e5f61456b565b612245565b9360d05492610e7a610e7585612a6f565b60d055565b610e82610cbe565b308152914260208401526040830193845260608301998a52608083019a8b5260a0830197885260c0830182815260e0840196875261010084019788526101208401959095526101408301528015610f5f57610f1791610ef191610eff60cb549260405194859160208301612ab1565b03601f198101855284610c9b565b6001600160a01b0382169160a01c61ffff16906135bf565b51955196519351905191519251936040519788978893909796959260c0959260e08601998652602086015260408501526060840152608083015260a08201520152565b0390a1005b50610f79610f87610f8c9260405192839160208301612ab1565b03601f198101835282610c9b565b613735565b610f17565b82610f9d919592612245565b90610e53565b8385610f5a95839711610fbc575b5090610e2d91612245565b81610e2d93929550610fcd91612245565b939091610fb1565b925050610fe7610f5a91600435612ee9565b94909390610e2f565b346103e05760003660031901126103e057602060ff60cd54166040519015158152f35b346103e05760003660031901126103e057602061ffff60cb5460a01c16604051908152f35b346103e05760003660031901126103e0576020610afa6129ec565b9061106660209282815194859201610628565b0190565b9060018060401b0316600052602052604060002090565b346103e05760603660031901126103e05761109a6103cf565b6024356001600160401b0381116103e0576106d2916110f160206110c56110ff943690600401610d5e565b61ffff6110d0610423565b94166000526097825260406000208260405194838680955193849201610628565b82019081520301902061106a565b546040519081529081906020820190565b346103e05761111e36610439565b93929091503033036111f55761114192611139913691610d27565b923691610d27565b9060cb549261ffff808560a01c169116036111a5576100199261118d611187610f796111826111726111a096612390565b6040519283916020830190611053565b612b4b565b60601c90565b6001600160a01b03908116911614612fcc565b613124565b60405162461bcd60e51b815260206004820152602260248201527f4261736553747261746567793a3a5661756c74436861696e49644d69736d61746044820152610c6d60f31b6064820152608490fd5b60405162461bcd60e51b815260206004820152602660248201527f4e6f6e626c6f636b696e674c7a4170703a2063616c6c6572206d7573742062656044820152650204c7a4170760d41b6064820152608490fd5b346103e05760003660031901126103e057602061ffff60cb5460b01c16604051908152f35b346103e0576000806003193601126107535761128861245b565b603380546001600160a01b0319811690915581906001600160a01b03166000805160206156048339815191528280a380f35b90600182811c921680156112ea575b60208310146112d457565b634e487b7160e01b600052602260045260246000fd5b91607f16916112c9565b9060405191826000825492611308846112ba565b9081845260019485811690816000146113755750600114611332575b5050610d0a92500383610c9b565b9093915060005260209081600020936000915b81831061135d575050610d0a93508201013880611324565b85548884018501529485019487945091830191611345565b915050610d0a94506020925060ff191682840152151560051b8201013880611324565b346103e05760203660031901126103e05761ffff6113b46103cf565b1660005260666020526106d26113cd60406000206112f4565b60405191829160208352602083019061064b565b346103e05760403660031901126103e057602061142b6113ff6103cf565b61ffff61140a6103e5565b91166000526067835260406000209061ffff16600052602052604060002090565b54604051908152f35b346103e05760003660031901126103e0576033546040516001600160a01b039091168152602090f35b346103e05760003660031901126103e0576020610afa6141f5565b346103e05760003660031901126103e0576069546040516001600160a01b039091168152602090f35b346103e05760203660031901126103e0576020610afa600435614231565b346103e057600080600319360112610753576114d9612e91565b60ca546040516370a0823160e01b8152306004820152906001600160a01b0316602082602481845afa90811561074a57610747928492611544575b506040519163a9059cbb60e01b60208401526001602484015260448301526044825261153f82610c80565b6127e0565b61155d91925060203d81116108995761088a8183610c9b565b9038611514565b346103e05760203660031901126103e05761ffff6115806103cf565b16600052606660205261159660406000206112f4565b8051156115ca5780516013198101919082116115c5576106d2916115b9916123db565b60405191829182610670565b61222f565b60405162461bcd60e51b815260206004820152601d60248201527f4c7a4170703a206e6f20747275737465642070617468207265636f72640000006044820152606490fd5b346103e05761161d36610a39565b919061162761245b565b6040519160208483828601376116526034858781013060601b85820152036014810187520185610c9b565b61ffff821660009081526066825260408120855191959092906001600160401b038311610c0f5761168d8361168786546112ba565b866121db565b81601f84116001146116ec575091806116db949288999460008051602061558483398151915299926116e1575b50508160011b916000199060031b1c19161790555b604051938493846121c0565b0390a180f35b0151905038806116ba565b9190601f19841661170286600052602060002090565b9389905b8282106117585750509260019285926000805160206155848339815191529a9b966116db98961061173f575b505050811b0190556116cf565b015160001960f88460031b161c19169055388080611732565b80600186978294978701518155019601940190611706565b346103e05760003660031901126103e05760206040516126488152f35b346103e05760203660031901126103e0576020610afa600435614346565b346103e05760c03660031901126103e0576117c46103cf565b506001600160401b036024358181116103e0576117e5903690600401610d5e565b606435916117f2836107f9565b60a4359081116103e05761180a903690600401610d5e565b5060ce546001600160a01b03908116331480156118bb575b156118775761185d611187610f796111826111727f92073a89a07a000083eb8b2575fc15e7bb936efe55d00727d6942a796d7211a796612390565b92611872604051928392169460843583612b80565b0390a2005b60405162461bcd60e51b815260206004820152601c60248201527b53674272696467653a3a526f757465724f724272696467654f6e6c7960201b6044820152606490fd5b508060cd5460081c163314611822565b346103e05760003660031901126103e057602060ff60cb5460c01c16604051908152f35b346103e05760003660031901126103e0576065546040516001600160a01b039091168152602090f35b346103e05760203660031901126103e0577f5db758e995a17ec1ad84bdef7e8c3293a0bd6179bcce400dff5d4c3d87db726b6020600435611958816107f9565b61196061245b565b606980546001600160a01b0319166001600160a01b03929092169182179055604051908152a1005b346103e05760203660031901126103e05760405163313ce56760e01b8152602081600481738f3cf7ad23cd3cadbd9735aff958023239c6a0635afa90811561074a576106d2916119ed916000916119fd575b5060ff60cb5460c01c1690600435615526565b6040519081529081906020820190565b611a1e915060203d8111611a24575b611a168183610c9b565b810190614133565b386119da565b503d611a0c565b346103e05760003660031901126103e05760ca546040516370a0823160e01b815230600482015290602090829060249082906001600160a01b03165afa801561074a57602091600091611a82575b50604051908152f35b611a999150823d81116108995761088a8183610c9b565b38611a79565b346103e05760003660031901126103e05760206040516127108152f35b346103e05760203660031901126103e057600435611ad9816107f9565b611ae161245b565b60c980546001600160a01b0319166001600160a01b0392909216919091179055005b346103e05760803660031901126103e057611b1c6103cf565b611b246103e5565b6064356001600160401b0381116103e057611b439036906004016103f6565b9092611b4d61245b565b6065546001600160a01b031690813b156103e05760008094611ba6604051978896879586946332fb62e760e21b865261ffff8092166004870152166024850152604435604485015260806064850152608484019161219f565b03925af1801561074a57611bb657005b80611bc361001992610bfc565b806105e8565b611bd236610439565b9161ffff86949296166000526097602052611c0681604060002060206040518092878b83378782019081520301902061106a565b54918215611ca557611c9984611c927fc264d91f3adc5588250e1551f547752ca0cfa8f6b530d243b9f9f4cab10ea8e5996000611c8687611c818d89611c7b8f610f5a9f8f611c5a611c679236908d610d27565b602081519101201461226b565b61ffff166000526097602052604060002090565b91612252565b61106a565b5561113936868c610d27565b9087613023565b604051958695866122c1565b60405162461bcd60e51b815260206004820152602360248201527f4e6f6e626c6f636b696e674c7a4170703a206e6f2073746f726564206d65737360448201526261676560e81b6064820152608490fd5b346103e05760003660031901126103e0576020610afa6141a2565b346103e05760603660031901126103e057611d2a6103cf565b611d326103e5565b60443591611d3e61245b565b8215611db957610f5a7f9d5c7c0b934da8fefa9c7760c98383778a12dfbfc0c3b3106518f43fb9508ac09361ffff8316600052606760205280611d938560406000209061ffff16600052602052604060002090565b556040519384938460409194939294606082019561ffff80921683521660208201520152565b60405162461bcd60e51b81526020600482015260156024820152744c7a4170703a20696e76616c6964206d696e47617360581b6044820152606490fd5b346103e05760203660031901126103e057611e0f61245b565b600435600090815260cf60205260409020805460ff19169055005b346103e057611e3836610a39565b9190611e4261245b565b60009161ffff81168352602060668152604084209060018060401b038611610c0f57611e7886611e7284546112ba565b846121db565b8490601f8711600114611ece5750946116db918186976000805160206156648339815191529791611ec3575b508260011b906000198460031b1c1916179055604051938493846121c0565b905085013538611ea4565b90601f198716611ee384600052602060002090565b9287905b828210611f38575050916116db93918860008051602061566483398151915298999410611f1e575b5050600182811b0190556116cf565b860135600019600385901b60f8161c191690553880611f0f565b80600185968294968b01358155019501930190611ee7565b346103e05760003660031901126103e0576020610afa61456b565b346103e05760203660031901126103e057611f84612e91565b60043560cc55005b346103e05760203660031901126103e057600435611fa9816107f9565b611fb161245b565b6001600160a01b03811615611fc957610019906124b3565b60405162461bcd60e51b815260206004820152602660248201527f4f776e61626c653a206e6577206f776e657220697320746865207a65726f206160448201526564647265737360d01b6064820152608490fd5b346103e05760803660031901126103e0576120366103cf565b60006120406103e5565b9161204c6044356107f9565b606554604051633d7b2f6f60e21b815261ffff92831660048201529390911660248401523060448401526064803590840152829060849082906001600160a01b03165afa801561074a576106d2916000916120af575b5060405191829182610670565b6120ca913d8091833e6120c28183610c9b565b810190612135565b386120a2565b346103e05760203660031901126103e0576020610afa6004356129aa565b346103e05760003660031901126103e05760cb546040516001600160a01b039091168152602090f35b346103e05760203660031901126103e0576020610afa600435614416565b6020818303126103e0578051906001600160401b0382116103e0570181601f820112156103e057805161216781610d0c565b926121756040519485610c9b565b818452602082840101116103e0576106819160208085019101610628565b6040513d6000823e3d90fd5b908060209392818452848401376000828201840152601f01601f1916010190565b60409061ffff6106819593168152816020820152019161219f565b90601f81116121e957505050565b600091825260208220906020601f850160051c83019410612225575b601f0160051c01915b82811061221a57505050565b81815560010161220e565b9092508290612205565b634e487b7160e01b600052601160045260246000fd5b919082039182116115c557565b6020919283604051948593843782019081520301902090565b1561227257565b60405162461bcd60e51b815260206004820152602160248201527f4e6f6e626c6f636b696e674c7a4170703a20696e76616c6964207061796c6f616044820152601960fa1b6064820152608490fd5b9160609361ffff6122e4939897969816845260806020850152608084019161219f565b6001600160401b0390951660408201520152565b90601f82018092116115c557565b919082018092116115c557565b1561231a57565b60405162461bcd60e51b815260206004820152600e60248201526d736c6963655f6f766572666c6f7760901b6044820152606490fd5b1561235757565b60405162461bcd60e51b8152602060048201526011602482015270736c6963655f6f75744f66426f756e647360781b6044820152606490fd5b61239e601482511015612350565b6040519060148083019101602883015b8083106123c857505060148252601f01601f191660405290565b90918251815260208091019201906123ae565b6123ef826123e8816122f8565b1015612313565b6123fc8282511015612350565b81612414575050604051600081526020810160405290565b60405191601f811691821560051b808486010193838501920101905b8084106124485750508252601f01601f191660405290565b9092835181526020809101930190612430565b6033546001600160a01b0316330361246f57565b606460405162461bcd60e51b815260206004820152602060248201527f4f776e61626c653a2063616c6c6572206973206e6f7420746865206f776e65726044820152fd5b603380546001600160a01b039283166001600160a01b031982168117909255909116600080516020615604833981519152600080a3565b908160209103126103e0575190565b6000805160206155648339815191528152600019602082015260400190565b6001600160a01b039091168152602081019190915260400190565b9061255a610d0a92610f7960405193849263a9059cbb60e01b602085015260248401612518565b6125f3565b90612586610d0a92610f7960405193849263a9059cbb60e01b602085015260248401612518565b6126f2565b906125b2610d0a92610f7960405193849263a9059cbb60e01b602085015260248401612518565b612769565b61153f610d0a939261053860405194859263a9059cbb60e01b602085015260248401612518565b908160209103126103e0575161068181610ba2565b61266260405161260281610c65565b6000806020948584526000805160206155a4833981519152868501528581519101826000805160206156248339815191525af13d156126ea573d9061264682610d0c565b916126546040519384610c9b565b82523d60008684013e612853565b8051908282159283156126d2575b5050501561267b5750565b6084906040519062461bcd60e51b82526004820152602a60248201527f5361666545524332303a204552433230206f7065726174696f6e20646964206e6044820152691bdd081cdd58d8d9595960b21b6064820152fd5b6126e293508201810191016125de565b388281612670565b606090612853565b61266260405161270181610c65565b6000806020948584526000805160206155a4833981519152868501528581519101826000805160206156448339815191525af13d15612761573d9061274582610d0c565b916127536040519384610c9b565b82523d60008684013e6128f3565b6060906128f3565b61266260405161277881610c65565b6000806020948584526000805160206155a4833981519152868501528581519101826000805160206155e48339815191525af13d156127d8573d906127bc82610d0c565b916127ca6040519384610c9b565b82523d60008684013e61291e565b60609061291e565b604051612662916001600160a01b03166127f982610c65565b6000806020958685526000805160206155a483398151915287860152868151910182855af13d1561284b573d9161282f83610d0c565b9261283d6040519485610c9b565b83523d60008785013e61297a565b60609161297a565b909190156128c357508051156128665790565b6000805160206156248339815191523b1561287e5790565b60405162461bcd60e51b815260206004820152601d60248201527f416464726573733a2063616c6c20746f206e6f6e2d636f6e74726163740000006044820152606490fd5b8151156128d35750805190602001fd5b60405162461bcd60e51b81529081906128ef9060048301610670565b0390fd5b909190156128c357508051156129065790565b6000805160206156448339815191523b1561287e5790565b909190156128c357508051156129315790565b6000805160206155e48339815191523b1561287e5790565b909190156128c3575080511561295c5790565b738f3cf7ad23cd3cadbd9735aff958023239c6a0633b1561287e5790565b91929015612997575081511561298e575090565b3b1561287e5790565b8251909150156128d35750805190602001fd5b60405160208101917b0ca2ba3432b932bab69029b4b3b732b21026b2b9b9b0b3b29d05199960211b8352603c820152603c81526129e681610c2f565b51902090565b60d05460cb546040519060208201923060601b8452603483015261ffff60f01b9060401b166054820152603681526129e681610c2f565b15612a2a57565b60405162461bcd60e51b815260206004820152601e60248201527f4261736553747261746567793a3a44656274526174696f4e6f745a65726f00006044820152606490fd5b60001981146115c55760010190565b6000805160206156448339815191529052565b60051115612a9b57565b634e487b7160e01b600052602160045260246000fd5b6002815260406020820181905282516001600160a01b03169082015261068191906101a0906020830151606082015260408301516080820152606083015160a0820152608083015160c082015260a083015160e082015260c0830151610100908183015260e0840151906101209182840152840151906101409182840152840151936101609485840152015192610180820152019061064b565b80516020909101516001600160601b0319808216939290919060148110612b7157505050565b60140360031b82901b16169150565b9081526001600160a01b03909116602082015260400190565b9193612c377fe183f33de2837795525b4792ca4cd60535bd77c53b7e7030060bfcf5734d6b0c95612c45939561ffff81516020830120961695866000526097602052612bfd836110f160208b60406000208260405194838680955193849201610628565b55612c1a604051978897885260a0602089015260a088019061064b565b6001600160401b039092166040870152858203606087015261064b565b90838203608085015261064b565b0390a1565b612c66612c6e91612c61612c5c6129ec565b6129aa565b612de5565b919091612cca565b60c9546001600160a01b03908116911603612c8557565b60405162461bcd60e51b815260206004820152601e60248201527f4261736553747261746567793a3a496e76616c69645369676e617475726500006044820152606490fd5b612cd381612a91565b80612cdb5750565b612ce481612a91565b60018103612d2c5760405162461bcd60e51b815260206004820152601860248201527745434453413a20696e76616c6964207369676e617475726560401b6044820152606490fd5b612d3581612a91565b60028103612d825760405162461bcd60e51b815260206004820152601f60248201527f45434453413a20696e76616c6964207369676e6174757265206c656e677468006044820152606490fd5b80612d8e600392612a91565b14612d9557565b60405162461bcd60e51b815260206004820152602260248201527f45434453413a20696e76616c6964207369676e6174757265202773272076616c604482015261756560f01b6064820152608490fd5b906041815114600014612e0f5761049c916020820151906060604084015193015160001a90612e19565b5050600090600290565b9291906fa2a8918ca85bafe22016d0b997e4df60600160ff1b038311612e855791608094939160ff602094604051948552168484015260408301526060820152600093849182805260015afa1561074a5781516001600160a01b03811615612e7f579190565b50600190565b50505050600090600390565b60c9546001600160a01b03163303612ea557565b60405162461bcd60e51b815260206004820152601c60248201527b10985cd954dd1c985d1959de4e8e93db9b1e54dd1c985d1959da5cdd60221b6044820152606490fd5b90612ef261456b565b828110612fa85791612f049192612245565b906000915b612f1b612f168284612306565b61465c565b5050612f30612f2b60ca546105f3565b6105f3565b91602060405180946370a0823160e01b82528180612f51306004830161094c565b03915afa92831561074a57600093612f88575b50818311612f7457505091600090565b612f8382610681939694612245565b612fba565b612fa191935060203d81116108995761088a8183610c9b565b9138612f64565b612fb490600093612245565b91612f09565b9080821015612fc7575090565b905090565b15612fd357565b60405162461bcd60e51b815260206004820152602260248201527f4261736553747261746567793a3a5661756c74416464726573734d69736d61746044820152610c6d60f31b6064820152608490fd5b919060cb549261ffff808560a01c169116036111a557610d0a9261118d611187610f796111826111726111a096612390565b908160209103126103e0575160058110156103e05790565b8092910391604083126103e0576020815193601f1901126103e05760206040519161309783610c14565b01516130a2816107f9565b815290565b8092910391606083126103e0576040815193601f1901126103e0576040805191908201906001600160401b03821183831017610c0f576040918252602081015183520151602082015290565b8092910391604083126103e0576020815193601f1901126103e05760206040519161311d83610c14565b0151815290565b80519061313960208083019383010183613055565b61314281612a91565b6003810361318b575061316e60008051602061568483398151915292602083612c4594510101906130f3565b905061317a8151614ef7565b516040519081529081906020820190565b61319481612a91565b806131b55750610d0a916020826131ae93510101906130a7565b9050613274565b806131c1600492612a91565b146131ca575050565b61321c6132027f7c9a2d2ec51230d7dbed27f113a325b7e20aef7b049e68b2339257b5edff5bea93602084612c45955101019061306d565b905061321661321182516105f3565b613370565b516105f3565b6040519182918261094c565b1561322f57565b60405162461bcd60e51b815260206004820152601e60248201527f4261736553747261746567793a3a416c726561647957697468647261776e00006044820152606490fd5b613354610d0a9161331e610f796132bd60208401936132b76132b26132ae6132a7885160005260cf602052604060002090565b5460ff1690565b1590565b613228565b5161465c565b84939193516132ca610cde565b30815291602083810187815260408086019384526060808701958652815160019481019490945295516001600160a01b03169083015251938101939093525160808301525160a082015291829060c0820190565b81156133615760cb54613343926001600160a01b0382169160a01c61ffff16906135bf565b5160005260cf602052604060002090565b805460ff19166001179055565b61336b9150613735565b613343565b6133786141f5565b906000805160206155c483398151915291823b156103e057604051632e1a7d4d60e01b8152600481019190915260009283908290602490829084905af1801561074a5761354e575b506040516370a0823160e01b808252602092918381806133e3306004830161094c565b03816000805160206156248339815191525afa801561074a5761340e918691613531575b5083612533565b604051818152838180613424306004830161094c565b03816000805160206156448339815191525afa801561074a5761344f918691613514575b508361255f565b604051818152838180613465306004830161094c565b03816000805160206155e48339815191525afa801561074a576134909186916134f7575b508361258b565b61349b60ca546105f3565b906040519081528381806134b2306004830161094c565b03816001600160a01b0386165afa93841561074a57610d0a95946134d8575b50506125b7565b6134ef929450803d106108995761088a8183610c9b565b9138806134d1565b61350e9150853d87116108995761088a8183610c9b565b38613489565b61352b9150853d87116108995761088a8183610c9b565b38613448565b6135489150853d87116108995761088a8183610c9b565b38613407565b80611bc361355b92610bfc565b386133c0565b610681939261ffff60609316825260018060a01b03166020820152816040820152019061064b565b919361ffff60a0946106819796600180881b0380951686526020860152166040840152166060820152816080820152019061064b565b60cd549293926135da9060081c6001600160a01b03166105f3565b90604051630dc6346160e01b8152602081806135fb888a8960048501613561565b0381865afa90811561074a57600091613666575b5061361e612f2b60ca546105f3565b833b156103e05761364860009660405198899788968795633920455b60e11b875260048701613589565b03925af1801561074a576136595750565b80611bc3610d0a92610bfc565b61367e915060203d81116108995761088a8183610c9b565b3861360f565b91908260409103126103e0576020825192015190565b92610681949261ffff6136c89316855260018060a01b0316602085015260a0604085015260a084019061064b565b9160006060820152608081840391015261064b565b9261370261068197959361ffff6137109416865260c0602087015260c086019061064b565b90848203604086015261064b565b6001600160a01b0391821660608401529316608082015280830360a09091015261064b565b60cb54604080516001600160601b0319606084811b8216602084015230901b16603482015290916137698260488101610538565b61ffff61377a612f2b6065546105f3565b9160a01c166137a78461378b613843565b81518093819263040a7bb160e41b83528a30886004860161369a565b0381865afa90811561074a57600091613815575b508047106137f7576137cb613843565b95833b156103e057613648600096519788968795869462c5803160e81b865230923092600488016136dd565b845162fae2d560e21b81526004810191909152476024820152604490fd5b6138359150853d871161383c575b61382d8183610c9b565b810190613684565b50386137bb565b503d613823565b604051600160f01b6020820152620f424060228201526022815261068181610c2f565b95939196949290966000549760ff8960081c16158099819a61398e575b811561396e575b5015613912576138b097896138a7600160ff196000541617600055565b6138f95761399c565b6138b657565b6138c661ff001960005416600055565b604051600181527f7f26b83ff96e1f2b6a682f133852f6798a09c465da95921460cefb3847402498908060208101612c45565b61390d61010061ff00196000541617600055565b61399c565b60405162461bcd60e51b815260206004820152602e60248201527f496e697469616c697a61626c653a20636f6e747261637420697320616c72656160448201526d191e481a5b9a5d1a585b1a5e995960921b6064820152608490fd5b303b15915081613980575b503861388a565b6001915060ff161438613979565b600160ff8216109150613883565b613a2d926139ea613a4f96936139c8613a0c949b9a9b6139c360ff60005460081c166140d3565b61414c565b60c980546001600160a01b0319166001600160a01b0392909216919091179055565b60ca80546001600160a01b0319166001600160a01b0392909216919091179055565b60cb805461ffff60a01b191660a09290921b61ffff60a01b16919091179055565b60cb80546001600160a01b0319166001600160a01b0392909216919091179055565b613a5a61264860cc55565b613a6e612f2b612f2b612f2b60ca546105f3565b9060405193849263313ce56760e01b845283600460209788935afa92831561074a57600094613af5613b8494613aca8997613b41958a91613c11575b5060cb805460ff60c01b191660c09290921b60ff60c01b16919091179055565b613ad4600060d055565b60cb805461ffff60b01b191660b09290921b61ffff60b01b16919091179055565b60cd8054610100600160a81b031916600885901b610100600160a81b03161790556001600160a01b039060ce8054919092166001600160a01b03166001600160a01b0319909116179055565b613b4f612f2b60ca546105f3565b60405163095ea7b360e01b81526001600160a01b03909216600483015260001960248301529093849283919082906044820190565b03925af1801561074a57613be3575b5050613ba8613ba360ca546105f3565b613c99565b613bbb613bb660ca546105f3565b613d55565b613bc3613dcd565b613bcb613e47565b613bd3613ecf565b613bdb613f49565b610d0a614059565b81613c0292903d10613c0a575b613bfa8183610c9b565b8101906125de565b503880613b93565b503d613bf0565b613c289150893d8b11611a2457611a168183610c9b565b38613aaa565b15613c3557565b60405162461bcd60e51b815260206004820152603660248201527f5361666545524332303a20617070726f76652066726f6d206e6f6e2d7a65726f60448201527520746f206e6f6e2d7a65726f20616c6c6f77616e636560501b6064820152608490fd5b604051636eb1769f60e11b81523060048201527368b3465833fb72a70ecdf485e0e4c7bd8665fc456024820152906020826044816001600160a01b0385165afa91821561074a57610d0a92613cf791600091613d37575b5015613c2e565b60405163095ea7b360e01b60208201527368b3465833fb72a70ecdf485e0e4c7bd8665fc45602482015260001960448201529061153f8260648101610538565b613d4f915060203d81116108995761088a8183610c9b565b38613cf0565b604051636eb1769f60e11b81523060048201526000805160206155648339815191526024820152906020826044816001600160a01b0385165afa91821561074a57610d0a92613dac91600091613d37575015613c2e565b60405163095ea7b360e01b60208201529061153f82610538602482016124f9565b604051636eb1769f60e11b815230600482015260008051602061556483398151915260248201526020816044816000805160206156448339815191525afa801561074a57613e2391600091613d37575015613c2e565b60405163095ea7b360e01b6020820152610d0a9061258681610f79602482016124f9565b604051636eb1769f60e11b81523060048201526000805160206155c4833981519152602482018190526020826044816000805160206156248339815191525afa91821561074a57610d0a92613ea491600091613d37575015613c2e565b6040519063095ea7b360e01b6020830152602482015260001960448201526044815261255a81610c80565b604051636eb1769f60e11b815230600482015260008051602061556483398151915260248201526020816044816000805160206156248339815191525afa801561074a57613f2591600091613d37575015613c2e565b60405163095ea7b360e01b6020820152610d0a9061255a81610f79602482016124f9565b604051636eb1769f60e11b815230600482015273195f7b233947d51f4c3b756ad41a5ddb34cebce060248201819052602091738f3cf7ad23cd3cadbd9735aff958023239c6a06391908381604481865afa801561074a5761266293613fba6000939284938491614042575015613c2e565b604051938685019063095ea7b360e01b825260248601528219604486015260448552613fe585610c80565b8260405195613ff387610c65565b8887526000805160206155a48339815191528988015251925af13d1561403a573d9061401e82610d0c565b9161402c6040519384610c9b565b82523d60008684013e612949565b606090612949565b613d4f9150883d8a116108995761088a8183610c9b565b604051636eb1769f60e11b815230600482015260008051602061556483398151915260248201526020816044816000805160206155e48339815191525afa801561074a576140af91600091613d37575015613c2e565b60405163095ea7b360e01b6020820152610d0a906125b281610f79602482016124f9565b156140da57565b60405162461bcd60e51b815260206004820152602b60248201527f496e697469616c697a61626c653a20636f6e7472616374206973206e6f74206960448201526a6e697469616c697a696e6760a81b6064820152608490fd5b908160209103126103e0575160ff811681036103e05790565b61416660ff60005460081c16614161816140d3565b6140d3565b61416f336124b3565b61418060ff60005460081c166140d3565b606580546001600160a01b0319166001600160a01b0392909216919091179055565b6040516246613160e11b81523060048201526020816024816000805160206155c48339815191525afa90811561074a576000916141dd575090565b610681915060203d81116108995761088a8183610c9b565b6040516370a0823160e01b81523060048201526020816024816000805160206155c48339815191525afa90811561074a576000916141dd575090565b604051906328bd9fc160e11b82526000805160206155e48339815191526004830152602482015260208160448173f68c20d6c50706f6c6bd8ee184382518c93b368c5afa801561074a576106819160009161428d575b506142ab565b6142a5915060203d81116108995761088a8183610c9b565b38614287565b60405163313ce56760e01b8152906020826004816000805160206156448339815191525afa801561074a57610681926000916142f2575b5060ff60cb5460c01c1691615526565b61430a915060203d8111611a2457611a168183610c9b565b386142e2565b6001600160a01b039091168152600080516020615644833981519152602082015260016040820152606081019190915260800190565b60ca54604080516310e1b98f60e21b81529290918391829161437591906001600160a01b031660048401614310565b03816000805160206155648339815191525afa801561074a5760009182916143ae575b506143a2906142ab565b81018091116115c55790565b6143a292506143cb915060403d811161383c5761382d8183610c9b565b9091614398565b60ff16604d81116115c557600a0a90565b818102929181159184041417156115c557565b8115614400570490565b634e487b7160e01b600052601260045260246000fd5b60405163313ce56760e01b90818152602092600080516020615624833981519152918481600481865afa90811561074a576144629161445d9160009161454e575b506143d2565b614346565b60cb5460c01c60ff16916040518581528681600481885afa90811561074a57614495928591600093614536575b50615526565b91604051908582528682600481885afa90811561074a5787936144bf936000936145175750615526565b9360046040518095819382525afa93841561074a57610681946144f5936144ef926000926144fa575b50506143d2565b906143e3565b6143f6565b6145109250803d10611a2457611a168183610c9b565b38806144e8565b61452f919350853d8711611a2457611a168183610c9b565b913861448f565b61452f919350893d8b11611a2457611a168183610c9b565b6145659150873d8911611a2457611a168183610c9b565b38614457565b614579612f2b60ca546105f3565b60405190816370a0823160e01b918282526020938491818061459e306004830161094c565b03915afa90811561074a5760009161463f575b506145ba6141a2565b916040519081528381806145d1306004830161094c565b03816000805160206155e48339815191525afa93841561074a57610681946146159461460f9361460a93600093614620575b5050612306565b614231565b90612306565b61460f61445d6141f5565b614637929350803d106108995761088a8183610c9b565b903880614603565b6146569150833d85116108995761088a8183610c9b565b386145b1565b90600061466d612f2b60ca546105f3565b9060405191826370a0823160e01b9182825260209485918180614693306004830161094c565b03915afa90811561074a5760009161473d575b5085811015614734576146bc6146c19187612245565b61475a565b826146d0612f2b60ca546105f3565b604051928352829081806146e7306004830161094c565b03915afa92831561074a57600093614715575b5050818411156147105750806106819193612245565b919050565b61472c929350803d106108995761088a8183610c9b565b9038806146fa565b50505050600090565b6147549150843d86116108995761088a8183610c9b565b386146a6565b80156148555761476b61460a6141a2565b9080821061482a5750506000805160206155c4833981519152803b156103e05760008091600460405180948193631e8c5c8960e11b83525af1801561074a57614817575b506040516370a0823160e01b8152602081806147ce306004830161094c565b03816000805160206155e48339815191525afa801561074a57610d0a916000916147f9575b506149f2565b614811915060203d81116108995761088a8183610c9b565b386147f3565b80611bc361482492610bfc565b386147af565b61484261483d610d0a9361485093612245565b614416565b61484a6141f5565b90612fba565b614b10565b50565b6001600160401b038111610c0f5760051b60200190565b604090815161487d81610c2f565b600281528092600090815b8181106148955750505050565b60209082516148a381610c2f565b8481528285818301528585830152828701015201614888565b8051156148c95760200190565b634e487b7160e01b600052603260045260246000fd5b8051600110156148c95760400190565b60209081818403126103e0578051906001600160401b0382116103e057019180601f840112156103e057825161492481614858565b936149326040519586610c9b565b818552838086019260051b8201019283116103e0578301905b828210614959575050505090565b8151815290830190830161494b565b9291909594939560a084019084526020918285015260409160a08386015283518092528060c086019401926000905b8382106149ba575050506001600160a01b03909616606084015250935060800152565b845180516001600160a01b03908116885281850151168785015281015115158682015260609095019493820193600190910190614997565b8015614855576000614a0261486f565b91614a0b610cfd565b6000805160206155e48339815191528152614a2860208201612a7e565b826040820152614a37846148bc565b52614a41836148bc565b50614a50612f2b60ca546105f3565b614a75614a5b610cfd565b91614a6583612a7e565b6001600160a01b03166020830152565b60016040820152614a85846148df565b52614a8f836148df565b50614aa1614a9c82614231565b614afc565b604051631e82ecdb60e31b81529384928392614ac592429230929060048701614968565b0381836000805160206155648339815191525af1614ae05750565b614855903d806000833e614af48183610c9b565b8101906148ef565b614b0c6127109160cc54906143e3565b0490565b6000805160206155c4833981519152803b156103e05760408051631e8c5c8960e11b8152600093600492918581858183895af1801561074a57614da4575b5081516370a0823160e01b8082526020959091868180614b70308a830161094c565b03816000805160206155e48339815191525afa801561074a57614b99918991614d8d57506149f2565b8215614d8457803b15614d80578684518092632e1a7d4d60e01b8252818381614bc9898c83019190602083019252565b03925af1801561074a57614d6d575b50614be7612f2b60ca546105f3565b83516310e1b98f60e21b8152929083614c038383898401614310565b0385856000805160206155648339815191529281845afa801561074a57898794899782908394614d4b575b50614cbf90614c5060cc548092614c496127109485926143e3565b04966143e3565b885163037b79b160e21b81526001600160a01b039098169c88019c8d5260008051602061564483398151915260208e0152600160408e015260608d019390935260808c019490945292900460a08a01523060c08a01524260e08a01529297889384929091839161010090910190565b03925af192831561074a57614ce7948694614d2f575b5051938492839283523090830161094c565b03816000805160206156448339815191525afa91821561074a57610d0a9392614d12575b5050614db7565b614d289250803d106108995761088a8183610c9b565b3880614d0b565b614d4590823d841161383c5761382d8183610c9b565b50614cd5565b614cbf9450614d679150873d891161383c5761382d8183610c9b565b93614c2e565b80611bc3614d7a92610bfc565b38614bd8565b8680fd5b50505050505050565b6148119150883d8a116108995761088a8183610c9b565b80611bc3614db192610bfc565b38614b4e565b801561485557612710614dd5614dcc836142ab565b60cc54906143e3565b60ca546040516313dcfc5960e01b81526004810194909452919004602483015260008051602061564483398151915260448301526001600160a01b03166064820152600160848201523060a48201524260c482015260008160e481836000805160206155648339815191525af1801561074a57614ae05750565b614e5a6148506141f5565b60ca546040516370a0823160e01b815230600482015290602090829060249082906001600160a01b03165afa90811561074a576000916141dd575090565b6020815260806060614eb5845183602086015260a085019061064b565b60208501516001600160a01b03166040858101919091528501518285015293015191015290565b908160609103126103e0578051916040602083015192015190565b906000805160206155c4833981519152803b156103e057604092835191631e8c5c8960e11b83526000926004908481838183875af1801561074a576154ff575b5085516370a0823160e01b8082526020949091858180614f593088830161094c565b03816000805160206155e48339815191525afa801561074a57614f829188916154e857506149f2565b614f90612f2b60ca546105f3565b908851838152868180614fa53089830161094c565b0381865afa90811561074a5788916154cb575b5081811161535f575b5050508651818152848180614fd83087830161094c565b0381738f3cf7ad23cd3cadbd9735aff958023239c6a0635afa90811561074a578691615342575b5084816152db575b5050865181815284818061501d3087830161094c565b03816000805160206156448339815191525afa90811561074a5786916152be575b5061504d612f2b60ca546105f3565b8851918383528683806150623089830161094c565b0381855afa92831561074a57889361529f575b5080151580615296575b615141575b505050865190815283818061509b3086830161094c565b03816000805160206156248339815191525afa93841561074a578594615122575b5050826150cc575b505050509050565b813b15610b9e57836150f695965180968195829463b6b55f2560e01b845283019190602083019252565b03925af1801561074a5761510f575b80808084936150c4565b80611bc361511c92610bfc565b38615105565b615139929450803d106108995761088a8183610c9b565b9138806150bc565b89516326283ecf60e21b81526001600160a01b038316868201908152600080516020615644833981519152602082015260016040820152606081810195909552608081019290925290819060a001039083816000805160206155648339815191529381855afa91821561074a5784928a88938e82918394615270575b5051635a47ddc360e01b81526001600160a01b0390971694870194855260008051602061564483398151915260208601526001604086018190526060860191909152608085019290925260a0840182905260c08401919091523060e08401524261010084015284928391908290610120015b03925af1801561074a57615244575b80615084565b8161526392903d10615269575b61525b8183610c9b565b810190614edc565b5061523e565b503d615251565b61528d91945061522f9250873d89116152695761525b8183610c9b565b509390916151bd565b5082151561507f565b6152b7919350873d89116108995761088a8183610c9b565b9138615075565b6152d59150853d87116108995761088a8183610c9b565b3861503e565b885163a39fc2c560e01b815291829081906152fa903090888401612b80565b03818973195f7b233947d51f4c3b756ad41a5ddb34cebce05af1801561074a57615325575b84615007565b61533b90853d87116108995761088a8183610c9b565b503861531f565b6153599150853d87116108995761088a8183610c9b565b38614fff565b6153729161536c91612245565b60011c90565b9061538360cb5460ff9060c01c1690565b895163313ce56760e01b81529287848781738f3cf7ad23cd3cadbd9735aff958023239c6a0635afa92831561074a576154308c614dcc612710936153d98d988f986154639b6154229a926154ac575b5088615526565b925160609190911b6001600160601b031916888201908152601960ea1b6014820152738f3cf7ad23cd3cadbd9735aff958023239c6a06360601b601782015290968791602b0190565b03601f198101875286610c9b565b049061543a610cde565b92835230848401528b830152606082015289518093819263b858183f60e01b8352878301614e98565b0381897368b3465833fb72a70ecdf485e0e4c7bd8665fc455af1801561074a5761548f575b8080614fc1565b6154a590853d87116108995761088a8183610c9b565b5038615488565b6154c49192508b3d8d11611a2457611a168183610c9b565b90386153d2565b6154e29150873d89116108995761088a8183610c9b565b38614fb8565b6148119150873d89116108995761088a8183610c9b565b80611bc361550c92610bfc565b38614f37565b9060ff8091169116039060ff82116115c557565b909160ff831660ff82161160001461554d57615548610681936144ef92615512565b6143d2565b61554861555d9161068194615512565b906143f656fe000000000000000000000000cc25c0fd84737f44a7d38649b69491bbf0c7f0838c0400cfe2d1199b1a725c78960bcc2a344d869b80590d0f2bd005db15a572ce5361666545524332303a206c6f772d6c6576656c2063616c6c206661696c656400000000000000000000000097bd59a8202f8263c2ec39cf6cf6b438d0b458760000000000000000000000007238390d5f6f64e67c3211c343a410e2a3dec1428be0079c531659141344cd1fd0a4f28419497f9722a3daafe3b4186f6b6457e0000000000000000000000000d17cb0f162f133e339c0bbfc18c36c357e681d6b00000000000000000000000040379a439d4f6795b6fc9aa5687db461677a2dbafa41487ad5d6728f0b19276fa1eddc16558578f5109fc39d2dc33c3230470dabb0c58532a125fc3c0adccaef396bf65344a4d5781cec2e4c593e6b611d75f150a26469706673582212209279a58ebef7117b9f968550cb828969ffe6b91a8e13e543607a7cbadf8c006464736f6c63430008130033",
  "linkReferences": {},
  "deployedLinkReferences": {}
}