{
  "_format": "hh-sol-artifact-1",
  "contractName": "PausabilityFacet",
  "sourceName": "contracts/strategies/base/facets/PausabilityFacet.sol",
  "abi": [
    {
      "inputs": [],
      "name": "DelegatedCallsOnly",
      "type": "error"
    },
    {
      "inputs": [
        {
          "internalType": "address",
          "name": "who",
          "type": "address"
        },
        {
          "internalType": "bytes32",
          "name": "role",
          "type": "bytes32"
        }
      ],
      "name": "HasNoRole",
      "type": "error"
    },
    {
      "inputs": [],
      "name": "pause",
      "outputs": [],
      "stateMutability": "nonpayable",
      "type": "function"
    },
    {
      "inputs": [],
      "name": "paused",
      "outputs": [
        {
          "internalType": "bool",
          "name": "",
          "type": "bool"
        }
      ],
      "stateMutability": "view",
      "type": "function"
    },
    {
      "inputs": [],
      "name": "unpause",
      "outputs": [],
      "stateMutability": "nonpayable",
      "type": "function"
    }
  ],
  "bytecode": "0x608060405234801561001057600080fd5b50610238806100206000396000f3fe608060405234801561001057600080fd5b50600436106100415760003560e01c80633f4ba83a146100465780635c975abb146100505780638456cb591461006c575b600080fd5b61004e610074565b005b6100586100ae565b604051901515815260200160405180910390f35b61004e6100c9565b61007c6100f2565b6100936000805160206101e3833981519152610136565b600061009d610143565b805460ff1916911515919091179055565b60006100b86100f2565b6100c0610143565b5460ff16905090565b6100d16100f2565b6100e86000805160206101e3833981519152610136565b600161009d610143565b7f9f1709bc5ab0578be51bb81e11b02cdd9c21aa603d7325a8a7551bbd5685a0055460ff1661013457604051639f357e6b60e01b815260040160405180910390fd5b565b6101403382610167565b50565b7fad4400ca8593660aa3766af03c44627f69310ee453859cf44d5fefe4f7090caa90565b7f256352104e666e6cce09c45a35c339c150e1991724469c7d87b784a284535e446000828152602091825260408082206001600160a01b0386168352909252205460ff166101de57604051632bc93d7960e21b81526001600160a01b03831660048201526024810182905260440160405180910390fd5b505056fe65d7a28e3265b37a6474929f336521b332c1681b933f6cb9f3376673440d862aa26469706673582212204d180da992c798a94c940ca3f65e1e2ad1ddffd80aa235510a3cb8d9e684ce1b64736f6c63430008130033",
  "linkReferences": {},
  "deployedLinkReferences": {}
}