{
  "_format": "hh-sol-artifact-1",
  "contractName": "RolesManagementFacet",
  "sourceName": "contracts/strategies/base/facets/RolesManagementFacet.sol",
  "abi": [
    {
      "inputs": [],
      "name": "DelegatedCallsOnly",
      "type": "error"
    },
    {
      "inputs": [
        {
          "internalType": "address",
          "name": "who",
          "type": "address"
        },
        {
          "internalType": "bytes32",
          "name": "role",
          "type": "bytes32"
        }
      ],
      "name": "HasNoRole",
      "type": "error"
    },
    {
      "inputs": [
        {
          "internalType": "uint256",
          "name": "length1",
          "type": "uint256"
        },
        {
          "internalType": "uint256",
          "name": "length2",
          "type": "uint256"
        }
      ],
      "name": "UnequalLengths",
      "type": "error"
    },
    {
      "inputs": [
        {
          "internalType": "address",
          "name": "who",
          "type": "address"
        },
        {
          "internalType": "bytes32",
          "name": "role",
          "type": "bytes32"
        }
      ],
      "name": "grantRole",
      "outputs": [],
      "stateMutability": "nonpayable",
      "type": "function"
    },
    {
      "inputs": [
        {
          "internalType": "address[]",
          "name": "people",
          "type": "address[]"
        },
        {
          "internalType": "bytes32[]",
          "name": "roles",
          "type": "bytes32[]"
        }
      ],
      "name": "grantRoles",
      "outputs": [],
      "stateMutability": "nonpayable",
      "type": "function"
    },
    {
      "inputs": [
        {
          "internalType": "address",
          "name": "who",
          "type": "address"
        },
        {
          "internalType": "bytes32",
          "name": "role",
          "type": "bytes32"
        }
      ],
      "name": "hasRole",
      "outputs": [
        {
          "internalType": "bool",
          "name": "",
          "type": "bool"
        }
      ],
      "stateMutability": "view",
      "type": "function"
    },
    {
      "inputs": [
        {
          "internalType": "address",
          "name": "who",
          "type": "address"
        },
        {
          "internalType": "bytes32",
          "name": "role",
          "type": "bytes32"
        }
      ],
      "name": "revokeRole",
      "outputs": [],
      "stateMutability": "nonpayable",
      "type": "function"
    },
    {
      "inputs": [
        {
          "internalType": "address[]",
          "name": "people",
          "type": "address[]"
        },
        {
          "internalType": "bytes32[]",
          "name": "roles",
          "type": "bytes32[]"
        }
      ],
      "name": "revokeRoles",
      "outputs": [],
      "stateMutability": "nonpayable",
      "type": "function"
    }
  ],
  "bytecode": "0x608060405234801561001057600080fd5b5061058e806100206000396000f3fe608060405234801561001057600080fd5b50600436106100575760003560e01c80630b29f4221461005c578063208dd1ff14610071578063ab2742dc14610084578063ac4ab3fb14610097578063b1cfaa86146100be575b600080fd5b61006f61006a366004610428565b6100d1565b005b61006f61007f3660046104af565b61018b565b61006f6100923660046104af565b6101b8565b6100aa6100a53660046104af565b6101e1565b604051901515815260200160405180910390f35b61006f6100cc366004610428565b61021c565b6100d96102ca565b6100f060008051602061053983398151915261030e565b82811461011f57604051635020e50560e01b815260048101849052602481018290526044015b60405180910390fd5b60005b838110156101845761017285858381811061013f5761013f6104d9565b905060200201602081019061015491906104ef565b848484818110610166576101666104d9565b9050602002013561031b565b8061017c81610511565b915050610122565b5050505050565b6101936102ca565b6101aa60008051602061053983398151915261030e565b6101b4828261031b565b5050565b6101c06102ca565b6101d760008051602061053983398151915261030e565b6101b48282610359565b60006101eb6102ca565b6101f361035f565b6000928352602090815260408084206001600160a01b0395909516845293905250205460ff1690565b6102246102ca565b61023b60008051602061053983398151915261030e565b82811461026557604051635020e50560e01b81526004810184905260248101829052604401610116565b60005b83811015610184576102b8858583818110610285576102856104d9565b905060200201602081019061029a91906104ef565b8484848181106102ac576102ac6104d9565b90506020020135610359565b806102c281610511565b915050610268565b7f9f1709bc5ab0578be51bb81e11b02cdd9c21aa603d7325a8a7551bbd5685a0055460ff1661030c57604051639f357e6b60e01b815260040160405180910390fd5b565b6103183382610383565b50565b600061032561035f565b6000928352602090815260408084206001600160a01b03959095168452939052919020805460ff1916911515919091179055565b60016103255b7f256352104e666e6cce09c45a35c339c150e1991724469c7d87b784a284535e4490565b61038b61035f565b6000828152602091825260408082206001600160a01b0386168352909252205460ff166101b457604051632bc93d7960e21b81526001600160a01b038316600482015260248101829052604401610116565b60008083601f8401126103ef57600080fd5b5081356001600160401b0381111561040657600080fd5b6020830191508360208260051b850101111561042157600080fd5b9250929050565b6000806000806040858703121561043e57600080fd5b84356001600160401b038082111561045557600080fd5b610461888389016103dd565b9096509450602087013591508082111561047a57600080fd5b50610487878288016103dd565b95989497509550505050565b80356001600160a01b03811681146104aa57600080fd5b919050565b600080604083850312156104c257600080fd5b6104cb83610493565b946020939093013593505050565b634e487b7160e01b600052603260045260246000fd5b60006020828403121561050157600080fd5b61050a82610493565b9392505050565b60006001820161053157634e487b7160e01b600052601160045260246000fd5b506001019056fe30d41a597cac127d8249d31298b50e481ee82c3f4a49ff93c76a22735aa9f3ada2646970667358221220f7278f5b50559951bbc12ae0f1c26a269ba1429b0f0fba0529387ce86fca7c3464736f6c63430008130033",
  "linkReferences": {},
  "deployedLinkReferences": {}
}