{
  "_format": "hh-sol-artifact-1",
  "contractName": "SwapHelper",
  "sourceName": "contracts/utils/swaps/SwapHelper.sol",
  "abi": [
    {
      "inputs": [
        {
          "internalType": "uint256",
          "name": "_quoteJobFee",
          "type": "uint256"
        },
        {
          "internalType": "uint256",
          "name": "_swapCalldataJobFee",
          "type": "uint256"
        },
        {
          "internalType": "address",
          "name": "_strategist",
          "type": "address"
        },
        {
          "internalType": "address",
          "name": "_aggregationRouter",
          "type": "address"
        },
        {
          "internalType": "address",
          "name": "chainlinkTokenAddress",
          "type": "address"
        },
        {
          "internalType": "address",
          "name": "chainlinkOracleAddress",
          "type": "address"
        },
        {
          "internalType": "string",
          "name": "_swapCalldataJobId",
          "type": "string"
        },
        {
          "internalType": "string",
          "name": "_quoteJobId",
          "type": "string"
        },
        {
          "internalType": "address[]",
          "name": "authorizedToSwap",
          "type": "address[]"
        }
      ],
      "stateMutability": "nonpayable",
      "type": "constructor"
    },
    {
      "inputs": [],
      "name": "CannotAddSubscriber",
      "type": "error"
    },
    {
      "inputs": [],
      "name": "CannotRemoveSubscriber",
      "type": "error"
    },
    {
      "inputs": [],
      "name": "NotEnoughNativeTokensSent",
      "type": "error"
    },
    {
      "inputs": [],
      "name": "OnlySelfAuthorized",
      "type": "error"
    },
    {
      "inputs": [],
      "name": "QuoteOperationIsNotReady",
      "type": "error"
    },
    {
      "inputs": [],
      "name": "SlippageIsTooBig",
      "type": "error"
    },
    {
      "inputs": [],
      "name": "SwapOperationIsNotReady",
      "type": "error"
    },
    {
      "inputs": [],
      "name": "TransferError",
      "type": "error"
    },
    {
      "anonymous": false,
      "inputs": [
        {
          "indexed": true,
          "internalType": "bytes32",
          "name": "id",
          "type": "bytes32"
        }
      ],
      "name": "ChainlinkCancelled",
      "type": "event"
    },
    {
      "anonymous": false,
      "inputs": [
        {
          "indexed": true,
          "internalType": "bytes32",
          "name": "id",
          "type": "bytes32"
        }
      ],
      "name": "ChainlinkFulfilled",
      "type": "event"
    },
    {
      "anonymous": false,
      "inputs": [
        {
          "indexed": true,
          "internalType": "bytes32",
          "name": "id",
          "type": "bytes32"
        }
      ],
      "name": "ChainlinkRequested",
      "type": "event"
    },
    {
      "anonymous": false,
      "inputs": [
        {
          "components": [
            {
              "internalType": "address",
              "name": "srcToken",
              "type": "address"
            },
            {
              "internalType": "address",
              "name": "dstToken",
              "type": "address"
            },
            {
              "internalType": "uint256",
              "name": "inAmount",
              "type": "uint256"
            }
          ],
          "indexed": true,
          "internalType": "struct IOraclizedSwapHelper.SwapInfo",
          "name": "_quoteBuffer",
          "type": "tuple"
        },
        {
          "indexed": true,
          "internalType": "bytes",
          "name": "errorData",
          "type": "bytes"
        }
      ],
      "name": "EmergencyQuote",
      "type": "event"
    },
    {
      "anonymous": false,
      "inputs": [
        {
          "components": [
            {
              "internalType": "address",
              "name": "srcToken",
              "type": "address"
            },
            {
              "internalType": "address",
              "name": "dstToken",
              "type": "address"
            },
            {
              "internalType": "uint256",
              "name": "inAmount",
              "type": "uint256"
            }
          ],
          "indexed": true,
          "internalType": "struct IOraclizedSwapHelper.SwapInfo",
          "name": "_swapBuffer",
          "type": "tuple"
        },
        {
          "indexed": true,
          "internalType": "bytes",
          "name": "errorData",
          "type": "bytes"
        }
      ],
      "name": "EmergencySwap",
      "type": "event"
    },
    {
      "anonymous": false,
      "inputs": [
        {
          "components": [
            {
              "internalType": "address",
              "name": "srcToken",
              "type": "address"
            },
            {
              "internalType": "address",
              "name": "dstToken",
              "type": "address"
            },
            {
              "internalType": "uint256",
              "name": "inAmount",
              "type": "uint256"
            }
          ],
          "indexed": true,
          "internalType": "struct IOraclizedSwapHelper.SwapInfo",
          "name": "_quoteBuffer",
          "type": "tuple"
        }
      ],
      "name": "Quote",
      "type": "event"
    },
    {
      "anonymous": false,
      "inputs": [
        {
          "indexed": true,
          "internalType": "uint256",
          "name": "toAmount",
          "type": "uint256"
        }
      ],
      "name": "QuoteRegistered",
      "type": "event"
    },
    {
      "anonymous": false,
      "inputs": [
        {
          "components": [
            {
              "components": [
                {
                  "internalType": "address",
                  "name": "srcToken",
                  "type": "address"
                },
                {
                  "internalType": "address",
                  "name": "dstToken",
                  "type": "address"
                },
                {
                  "internalType": "uint256",
                  "name": "inAmount",
                  "type": "uint256"
                }
              ],
              "internalType": "struct IOraclizedSwapHelper.SwapInfo",
              "name": "swapInfo",
              "type": "tuple"
            },
            {
              "internalType": "uint256",
              "name": "outAmount",
              "type": "uint256"
            }
          ],
          "indexed": true,
          "internalType": "struct IOraclizedSwapHelper.QuoteInfo",
          "name": "_quoteBuffer",
          "type": "tuple"
        }
      ],
      "name": "QuoteSent",
      "type": "event"
    },
    {
      "anonymous": false,
      "inputs": [
        {
          "indexed": true,
          "internalType": "bytes32",
          "name": "role",
          "type": "bytes32"
        },
        {
          "indexed": true,
          "internalType": "bytes32",
          "name": "previousAdminRole",
          "type": "bytes32"
        },
        {
          "indexed": true,
          "internalType": "bytes32",
          "name": "newAdminRole",
          "type": "bytes32"
        }
      ],
      "name": "RoleAdminChanged",
      "type": "event"
    },
    {
      "anonymous": false,
      "inputs": [
        {
          "indexed": true,
          "internalType": "bytes32",
          "name": "role",
          "type": "bytes32"
        },
        {
          "indexed": true,
          "internalType": "address",
          "name": "account",
          "type": "address"
        },
        {
          "indexed": true,
          "internalType": "address",
          "name": "sender",
          "type": "address"
        }
      ],
      "name": "RoleGranted",
      "type": "event"
    },
    {
      "anonymous": false,
      "inputs": [
        {
          "indexed": true,
          "internalType": "bytes32",
          "name": "role",
          "type": "bytes32"
        },
        {
          "indexed": true,
          "internalType": "address",
          "name": "account",
          "type": "address"
        },
        {
          "indexed": true,
          "internalType": "address",
          "name": "sender",
          "type": "address"
        }
      ],
      "name": "RoleRevoked",
      "type": "event"
    },
    {
      "anonymous": false,
      "inputs": [
        {
          "indexed": true,
          "internalType": "enum IOraclizedSwapHelper.StrategistInterference",
          "name": "interference",
          "type": "uint8"
        }
      ],
      "name": "StrategistInterferred",
      "type": "event"
    },
    {
      "anonymous": false,
      "inputs": [
        {
          "components": [
            {
              "internalType": "address",
              "name": "srcToken",
              "type": "address"
            },
            {
              "internalType": "address",
              "name": "dstToken",
              "type": "address"
            },
            {
              "internalType": "uint256",
              "name": "inAmount",
              "type": "uint256"
            }
          ],
          "indexed": true,
          "internalType": "struct IOraclizedSwapHelper.SwapInfo",
          "name": "_swapBuffer",
          "type": "tuple"
        }
      ],
      "name": "Swap",
      "type": "event"
    },
    {
      "anonymous": false,
      "inputs": [
        {
          "components": [
            {
              "internalType": "address",
              "name": "srcToken",
              "type": "address"
            },
            {
              "internalType": "address",
              "name": "dstToken",
              "type": "address"
            },
            {
              "internalType": "uint256",
              "name": "inAmount",
              "type": "uint256"
            }
          ],
          "indexed": true,
          "internalType": "struct IOraclizedSwapHelper.SwapInfo",
          "name": "_swapBuffer",
          "type": "tuple"
        }
      ],
      "name": "SwapPerformed",
      "type": "event"
    },
    {
      "anonymous": false,
      "inputs": [
        {
          "indexed": true,
          "internalType": "bytes",
          "name": "swapCalldata",
          "type": "bytes"
        }
      ],
      "name": "SwapRegistered",
      "type": "event"
    },
    {
      "inputs": [],
      "name": "DEFAULT_ADMIN_ROLE",
      "outputs": [
        {
          "internalType": "bytes32",
          "name": "",
          "type": "bytes32"
        }
      ],
      "stateMutability": "view",
      "type": "function"
    },
    {
      "inputs": [],
      "name": "ONE_INCH_ETH_ADDRESS",
      "outputs": [
        {
          "internalType": "address",
          "name": "",
          "type": "address"
        }
      ],
      "stateMutability": "view",
      "type": "function"
    },
    {
      "inputs": [],
      "name": "QUOTE_AUTHORIZED_ROLE",
      "outputs": [
        {
          "internalType": "bytes32",
          "name": "",
          "type": "bytes32"
        }
      ],
      "stateMutability": "view",
      "type": "function"
    },
    {
      "inputs": [],
      "name": "STRATEGIST_ROLE",
      "outputs": [
        {
          "internalType": "bytes32",
          "name": "",
          "type": "bytes32"
        }
      ],
      "stateMutability": "view",
      "type": "function"
    },
    {
      "inputs": [],
      "name": "SWAP_AUTHORIZED_ROLE",
      "outputs": [
        {
          "internalType": "bytes32",
          "name": "",
          "type": "bytes32"
        }
      ],
      "stateMutability": "view",
      "type": "function"
    },
    {
      "inputs": [
        {
          "internalType": "address",
          "name": "subscriber",
          "type": "address"
        }
      ],
      "name": "addSubscriber",
      "outputs": [],
      "stateMutability": "nonpayable",
      "type": "function"
    },
    {
      "inputs": [],
      "name": "aggregationRouter",
      "outputs": [
        {
          "internalType": "address",
          "name": "",
          "type": "address"
        }
      ],
      "stateMutability": "view",
      "type": "function"
    },
    {
      "inputs": [],
      "name": "emergencySwapHelper",
      "outputs": [
        {
          "internalType": "contract ISwapHelper",
          "name": "",
          "type": "address"
        }
      ],
      "stateMutability": "view",
      "type": "function"
    },
    {
      "inputs": [],
      "name": "fulfillQuote",
      "outputs": [],
      "stateMutability": "nonpayable",
      "type": "function"
    },
    {
      "inputs": [],
      "name": "fulfillSwap",
      "outputs": [],
      "stateMutability": "nonpayable",
      "type": "function"
    },
    {
      "inputs": [
        {
          "internalType": "enum IOraclizedSwapHelper.JobPurpose",
          "name": "_purpose",
          "type": "uint8"
        }
      ],
      "name": "getFeeInHundredthsOfLink",
      "outputs": [
        {
          "internalType": "uint256",
          "name": "",
          "type": "uint256"
        }
      ],
      "stateMutability": "view",
      "type": "function"
    },
    {
      "inputs": [],
      "name": "getOracleAddress",
      "outputs": [
        {
          "internalType": "address",
          "name": "",
          "type": "address"
        }
      ],
      "stateMutability": "view",
      "type": "function"
    },
    {
      "inputs": [
        {
          "internalType": "bytes32",
          "name": "role",
          "type": "bytes32"
        }
      ],
      "name": "getRoleAdmin",
      "outputs": [
        {
          "internalType": "bytes32",
          "name": "",
          "type": "bytes32"
        }
      ],
      "stateMutability": "view",
      "type": "function"
    },
    {
      "inputs": [
        {
          "internalType": "bytes32",
          "name": "role",
          "type": "bytes32"
        },
        {
          "internalType": "address",
          "name": "account",
          "type": "address"
        }
      ],
      "name": "grantRole",
      "outputs": [],
      "stateMutability": "nonpayable",
      "type": "function"
    },
    {
      "inputs": [
        {
          "internalType": "bytes32",
          "name": "role",
          "type": "bytes32"
        },
        {
          "internalType": "address",
          "name": "account",
          "type": "address"
        }
      ],
      "name": "hasRole",
      "outputs": [
        {
          "internalType": "bool",
          "name": "",
          "type": "bool"
        }
      ],
      "stateMutability": "view",
      "type": "function"
    },
    {
      "inputs": [],
      "name": "isReadyToFulfillQuote",
      "outputs": [
        {
          "internalType": "bool",
          "name": "",
          "type": "bool"
        }
      ],
      "stateMutability": "view",
      "type": "function"
    },
    {
      "inputs": [],
      "name": "isReadyToFulfillSwap",
      "outputs": [
        {
          "internalType": "bool",
          "name": "",
          "type": "bool"
        }
      ],
      "stateMutability": "view",
      "type": "function"
    },
    {
      "inputs": [
        {
          "internalType": "uint256",
          "name": "",
          "type": "uint256"
        }
      ],
      "name": "jobInfos",
      "outputs": [
        {
          "internalType": "bytes32",
          "name": "jobId",
          "type": "bytes32"
        },
        {
          "internalType": "uint256",
          "name": "jobFeeInJuels",
          "type": "uint256"
        }
      ],
      "stateMutability": "view",
      "type": "function"
    },
    {
      "inputs": [],
      "name": "oracleAddress",
      "outputs": [
        {
          "internalType": "address",
          "name": "",
          "type": "address"
        }
      ],
      "stateMutability": "view",
      "type": "function"
    },
    {
      "inputs": [],
      "name": "quoteBuffer",
      "outputs": [
        {
          "components": [
            {
              "internalType": "address",
              "name": "srcToken",
              "type": "address"
            },
            {
              "internalType": "address",
              "name": "dstToken",
              "type": "address"
            },
            {
              "internalType": "uint256",
              "name": "inAmount",
              "type": "uint256"
            }
          ],
          "internalType": "struct IOraclizedSwapHelper.SwapInfo",
          "name": "swapInfo",
          "type": "tuple"
        },
        {
          "internalType": "uint256",
          "name": "outAmount",
          "type": "uint256"
        }
      ],
      "stateMutability": "view",
      "type": "function"
    },
    {
      "inputs": [
        {
          "internalType": "bytes32",
          "name": "requestId",
          "type": "bytes32"
        },
        {
          "internalType": "uint256",
          "name": "toAmount",
          "type": "uint256"
        }
      ],
      "name": "registerQuoteAndFulfillRequestOnOracleExpense",
      "outputs": [],
      "stateMutability": "nonpayable",
      "type": "function"
    },
    {
      "inputs": [
        {
          "internalType": "bytes32",
          "name": "requestId",
          "type": "bytes32"
        },
        {
          "internalType": "uint256",
          "name": "toAmount",
          "type": "uint256"
        }
      ],
      "name": "registerQuoteRequest",
      "outputs": [],
      "stateMutability": "nonpayable",
      "type": "function"
    },
    {
      "inputs": [
        {
          "internalType": "bytes32",
          "name": "requestId",
          "type": "bytes32"
        },
        {
          "internalType": "bytes",
          "name": "swapCalldata",
          "type": "bytes"
        }
      ],
      "name": "registerSwapCalldata",
      "outputs": [],
      "stateMutability": "nonpayable",
      "type": "function"
    },
    {
      "inputs": [
        {
          "internalType": "bytes32",
          "name": "requestId",
          "type": "bytes32"
        },
        {
          "internalType": "bytes",
          "name": "swapCalldata",
          "type": "bytes"
        }
      ],
      "name": "registerSwapCalldataAndFulfillOnOracleExpense",
      "outputs": [],
      "stateMutability": "nonpayable",
      "type": "function"
    },
    {
      "inputs": [
        {
          "internalType": "address",
          "name": "subscriber",
          "type": "address"
        }
      ],
      "name": "removeSubscriber",
      "outputs": [],
      "stateMutability": "nonpayable",
      "type": "function"
    },
    {
      "inputs": [
        {
          "internalType": "bytes32",
          "name": "role",
          "type": "bytes32"
        },
        {
          "internalType": "address",
          "name": "account",
          "type": "address"
        }
      ],
      "name": "renounceRole",
      "outputs": [],
      "stateMutability": "nonpayable",
      "type": "function"
    },
    {
      "inputs": [
        {
          "internalType": "address",
          "name": "src",
          "type": "address"
        },
        {
          "internalType": "address",
          "name": "dst",
          "type": "address"
        },
        {
          "internalType": "uint256",
          "name": "amount",
          "type": "uint256"
        },
        {
          "internalType": "bytes4",
          "name": "callbackSignature",
          "type": "bytes4"
        }
      ],
      "name": "requestChainlinkQuote",
      "outputs": [],
      "stateMutability": "nonpayable",
      "type": "function"
    },
    {
      "inputs": [
        {
          "internalType": "address",
          "name": "src",
          "type": "address"
        },
        {
          "internalType": "address",
          "name": "dst",
          "type": "address"
        },
        {
          "internalType": "uint256",
          "name": "amount",
          "type": "uint256"
        },
        {
          "internalType": "uint8",
          "name": "slippage",
          "type": "uint8"
        },
        {
          "internalType": "bytes4",
          "name": "callbackSignature",
          "type": "bytes4"
        }
      ],
      "name": "requestChainlinkSwap",
      "outputs": [],
      "stateMutability": "nonpayable",
      "type": "function"
    },
    {
      "inputs": [
        {
          "internalType": "address",
          "name": "src",
          "type": "address"
        },
        {
          "internalType": "address",
          "name": "dst",
          "type": "address"
        },
        {
          "internalType": "uint256",
          "name": "amount",
          "type": "uint256"
        }
      ],
      "name": "requestQuote",
      "outputs": [
        {
          "internalType": "uint256",
          "name": "",
          "type": "uint256"
        }
      ],
      "stateMutability": "nonpayable",
      "type": "function"
    },
    {
      "inputs": [
        {
          "internalType": "address",
          "name": "src",
          "type": "address"
        },
        {
          "internalType": "address",
          "name": "dst",
          "type": "address"
        },
        {
          "internalType": "uint256",
          "name": "amount",
          "type": "uint256"
        }
      ],
      "name": "requestQuoteAndFulfillOnOracleExpense",
      "outputs": [],
      "stateMutability": "nonpayable",
      "type": "function"
    },
    {
      "inputs": [
        {
          "internalType": "address",
          "name": "src",
          "type": "address"
        },
        {
          "internalType": "address",
          "name": "dst",
          "type": "address"
        },
        {
          "internalType": "uint256",
          "name": "amount",
          "type": "uint256"
        },
        {
          "internalType": "uint8",
          "name": "slippage",
          "type": "uint8"
        }
      ],
      "name": "requestSwap",
      "outputs": [],
      "stateMutability": "payable",
      "type": "function"
    },
    {
      "inputs": [
        {
          "internalType": "address",
          "name": "src",
          "type": "address"
        },
        {
          "internalType": "address",
          "name": "dst",
          "type": "address"
        },
        {
          "internalType": "uint256",
          "name": "amount",
          "type": "uint256"
        },
        {
          "internalType": "uint8",
          "name": "slippage",
          "type": "uint8"
        }
      ],
      "name": "requestSwapAndFulfillOnOracleExpense",
      "outputs": [],
      "stateMutability": "payable",
      "type": "function"
    },
    {
      "inputs": [
        {
          "internalType": "bytes32",
          "name": "role",
          "type": "bytes32"
        },
        {
          "internalType": "address",
          "name": "account",
          "type": "address"
        }
      ],
      "name": "revokeRole",
      "outputs": [],
      "stateMutability": "nonpayable",
      "type": "function"
    },
    {
      "inputs": [
        {
          "internalType": "address",
          "name": "_emergencySwapHelper",
          "type": "address"
        }
      ],
      "name": "setEmergencySwapHelper",
      "outputs": [],
      "stateMutability": "nonpayable",
      "type": "function"
    },
    {
      "inputs": [
        {
          "internalType": "enum IOraclizedSwapHelper.JobPurpose",
          "name": "_purpose",
          "type": "uint8"
        },
        {
          "internalType": "uint256",
          "name": "_feeInHundredthsOfLink",
          "type": "uint256"
        }
      ],
      "name": "setFeeInHundredthsOfLink",
      "outputs": [],
      "stateMutability": "nonpayable",
      "type": "function"
    },
    {
      "inputs": [
        {
          "internalType": "enum IOraclizedSwapHelper.JobPurpose",
          "name": "_purpose",
          "type": "uint8"
        },
        {
          "components": [
            {
              "internalType": "bytes32",
              "name": "jobId",
              "type": "bytes32"
            },
            {
              "internalType": "uint256",
              "name": "jobFeeInJuels",
              "type": "uint256"
            }
          ],
          "internalType": "struct IOraclizedSwapHelper.JobInfo",
          "name": "_info",
          "type": "tuple"
        }
      ],
      "name": "setJobInfo",
      "outputs": [],
      "stateMutability": "nonpayable",
      "type": "function"
    },
    {
      "inputs": [
        {
          "internalType": "address",
          "name": "_oracleAddress",
          "type": "address"
        }
      ],
      "name": "setOracleAddress",
      "outputs": [],
      "stateMutability": "nonpayable",
      "type": "function"
    },
    {
      "inputs": [
        {
          "internalType": "uint256",
          "name": "toAmount",
          "type": "uint256"
        }
      ],
      "name": "strategistFulfillQuote",
      "outputs": [],
      "stateMutability": "nonpayable",
      "type": "function"
    },
    {
      "inputs": [
        {
          "internalType": "bytes",
          "name": "_swapCalldata",
          "type": "bytes"
        }
      ],
      "name": "strategistFulfillSwap",
      "outputs": [],
      "stateMutability": "payable",
      "type": "function"
    },
    {
      "inputs": [
        {
          "internalType": "uint256",
          "name": "subscriberIdx",
          "type": "uint256"
        }
      ],
      "name": "subscriberAt",
      "outputs": [
        {
          "internalType": "address",
          "name": "",
          "type": "address"
        }
      ],
      "stateMutability": "view",
      "type": "function"
    },
    {
      "inputs": [],
      "name": "subscribersLength",
      "outputs": [
        {
          "internalType": "uint256",
          "name": "",
          "type": "uint256"
        }
      ],
      "stateMutability": "view",
      "type": "function"
    },
    {
      "inputs": [
        {
          "internalType": "bytes4",
          "name": "interfaceId",
          "type": "bytes4"
        }
      ],
      "name": "supportsInterface",
      "outputs": [
        {
          "internalType": "bool",
          "name": "",
          "type": "bool"
        }
      ],
      "stateMutability": "view",
      "type": "function"
    },
    {
      "inputs": [],
      "name": "swapBuffer",
      "outputs": [
        {
          "internalType": "address",
          "name": "srcToken",
          "type": "address"
        },
        {
          "internalType": "address",
          "name": "dstToken",
          "type": "address"
        },
        {
          "internalType": "uint256",
          "name": "inAmount",
          "type": "uint256"
        }
      ],
      "stateMutability": "view",
      "type": "function"
    },
    {
      "inputs": [],
      "name": "withdrawLink",
      "outputs": [],
      "stateMutability": "nonpayable",
      "type": "function"
    },
    {
      "stateMutability": "payable",
      "type": "receive"
    }
  ],
  "bytecode": "0x60a060405260016005553480156200001657600080fd5b50604051620045db380380620045db83398101604081905262000039916200074c565b620000546000805160206200459b83398151915288620001a7565b620000807f93627969d6ba3f2118f574a00f8d1c7fed4282f3728a455e8b3c867b1a1a212b88620001a7565b6200009b600080516020620045bb83398151915288620001a7565b600380546001600160a01b0319166001600160a01b038716179055620000c18462000230565b620000ee6000604051806040016040528085620000de906200083d565b815260006020909101526200027a565b620000fb60008a620002d2565b620001186001604051806040016040528086620000de906200083d565b62000125600189620002d2565b6001600160a01b03861660805260005b81518160ff161015620001975762000182600080516020620045bb833981519152838360ff16815181106200016e576200016e62000865565b6020026020010151620001a760201b60201c565b806200018e8162000891565b91505062000135565b50505050505050505050620009e4565b620001b3828262000341565b6200022c576000828152602081815260408083206001600160a01b03851684529091529020805460ff19166001179055620001eb3390565b6001600160a01b0316816001600160a01b0316837f2f8788117e7eff1d82e926ec794901d17c78024a50270940304540a733656f0d60405160405180910390a45b5050565b6000805160206200459b8339815191526200024b816200036c565b600780546001600160a01b0384166001600160a01b031991821681179092556004805490911690911790555050565b6000805160206200459b83398151915262000295816200036c565b8160116000856001811115620002af57620002af620008b3565b815260208082019290925260400160002082518155910151600190910155505050565b6000805160206200459b833981519152620002ed816200036c565b606462000303670de0b6b3a764000084620008c9565b6200030f9190620008e3565b60116000856001811115620003285762000328620008b3565b8152602081019190915260400160002060010155505050565b6000828152602081815260408083206001600160a01b038516845290915290205460ff165b92915050565b6200037881336200037b565b50565b62000387828262000341565b6200022c576200039781620003e8565b620003a4836020620003fb565b604051602001620003b792919062000906565b60408051601f198184030181529082905262461bcd60e51b8252620003df916004016200097f565b60405180910390fd5b6060620003666001600160a01b03831660145b606060006200040c836002620008c9565b62000419906002620009b4565b6001600160401b03811115620004335762000433620005d8565b6040519080825280601f01601f1916602001820160405280156200045e576020820181803683370190505b509050600360fc1b816000815181106200047c576200047c62000865565b60200101906001600160f81b031916908160001a905350600f60fb1b81600181518110620004ae57620004ae62000865565b60200101906001600160f81b031916908160001a9053506000620004d4846002620008c9565b620004e1906001620009b4565b90505b600181111562000563576f181899199a1a9b1b9c1cb0b131b232b360811b85600f166010811062000519576200051962000865565b1a60f81b82828151811062000532576200053262000865565b60200101906001600160f81b031916908160001a90535060049490941c936200055b81620009ca565b9050620004e4565b508315620005b45760405162461bcd60e51b815260206004820181905260248201527f537472696e67733a20686578206c656e67746820696e73756666696369656e746044820152606401620003df565b9392505050565b80516001600160a01b0381168114620005d357600080fd5b919050565b634e487b7160e01b600052604160045260246000fd5b604051601f8201601f191681016001600160401b0381118282101715620006195762000619620005d8565b604052919050565b60005b838110156200063e57818101518382015260200162000624565b50506000910152565b600082601f8301126200065957600080fd5b81516001600160401b03811115620006755762000675620005d8565b6200068a601f8201601f1916602001620005ee565b818152846020838601011115620006a057600080fd5b620006b382602083016020870162000621565b949350505050565b600082601f830112620006cd57600080fd5b815160206001600160401b03821115620006eb57620006eb620005d8565b8160051b620006fc828201620005ee565b92835284810182019282810190878511156200071757600080fd5b83870192505b8483101562000741576200073183620005bb565b825291830191908301906200071d565b979650505050505050565b60008060008060008060008060006101208a8c0312156200076c57600080fd5b8951985060208a015197506200078560408b01620005bb565b96506200079560608b01620005bb565b9550620007a560808b01620005bb565b9450620007b560a08b01620005bb565b60c08b01519094506001600160401b0380821115620007d357600080fd5b620007e18d838e0162000647565b945060e08c0151915080821115620007f857600080fd5b620008068d838e0162000647565b93506101008c01519150808211156200081e57600080fd5b506200082d8c828d01620006bb565b9150509295985092959850929598565b805160208083015191908110156200085f576000198160200360031b1b821691505b50919050565b634e487b7160e01b600052603260045260246000fd5b634e487b7160e01b600052601160045260246000fd5b600060ff821660ff8103620008aa57620008aa6200087b565b60010192915050565b634e487b7160e01b600052602160045260246000fd5b80820281158282048414176200036657620003666200087b565b6000826200090157634e487b7160e01b600052601260045260246000fd5b500490565b7f416363657373436f6e74726f6c3a206163636f756e74200000000000000000008152600083516200094081601785016020880162000621565b7001034b99036b4b9b9b4b733903937b6329607d1b60179184019182015283516200097381602884016020880162000621565b01602801949350505050565b6020815260008251806020840152620009a081604085016020870162000621565b601f01601f19169190910160400192915050565b808201808211156200036657620003666200087b565b600081620009dc57620009dc6200087b565b506000190190565b608051613b7f62000a1c600039600081816107e50152818161172a015281816117ca015281816118f801526119b90152613b7f6000f3fe6080604052600436106101fa5760003560e01c8062ede6671461020657806301a76f591461022857806301ffc9a71461023b57806302458ad81461027057806310cabd1d146102905780631a5b4207146102a3578063248a9ca3146102d15780632cda2346146102f15780632f2ff15d1461031157806336568abe146103315780634ab5c503146103515780634c69c00f146103715780634d1dde7b146103915780634e0c6133146103b15780634e22e31e146103d357806350c284b3146103f3578063627c34ad1461041357806366b8455b146104335780636ccf5b011461044857806381777a3d146104755780638dc654a2146104ef57806391d148541461050457806394555d1a14610524578063a217fddf14610544578063a378a32414610559578063a74d01d41461057b578063a89ae4ba1461059b578063aaeafd56146105bb578063ab3c322d146105e3578063b18b78dd14610602578063b6761cb814610617578063be555a8014610637578063c0d2e37f14610657578063c7fd696d14610671578063cacfacf414610691578063d547741f146106b1578063d9ff478f146106d1578063dc39b19a1461070b578063e05d6bf214610720578063e0def6a714610742578063e75d763f14610762578063eaad47b2146107ab578063f09922ff146107c0578063fcdfd946146107d357600080fd5b3661020157005b600080fd5b34801561021257600080fd5b50610226610221366004612ea0565b610807565b005b610226610236366004612f8f565b6109c8565b34801561024757600080fd5b5061025b610256366004612fc3565b610a49565b60405190151581526020015b60405180910390f35b34801561027c57600080fd5b5061022661028b366004612fde565b610a80565b61022661029e366004613035565b610b3d565b3480156102af57600080fd5b506102c36102be366004613077565b610b7a565b604051908152602001610267565b3480156102dd57600080fd5b506102c36102ec3660046130b3565b610bba565b3480156102fd57600080fd5b5061022661030c3660046130cc565b610bcf565b34801561031d57600080fd5b5061022661032c3660046130e7565b610c0a565b34801561033d57600080fd5b5061022661034c3660046130e7565b610c2b565b34801561035d57600080fd5b5061022661036c366004613122565b610ca9565b34801561037d57600080fd5b5061022661038c3660046130cc565b610d0e565b34801561039d57600080fd5b506102266103ac366004613077565b610d54565b3480156103bd57600080fd5b506102c3600080516020613b2a83398151915281565b3480156103df57600080fd5b506102266103ee36600461314c565b610d85565b3480156103ff57600080fd5b5061022661040e3660046130b3565b610e20565b34801561041f57600080fd5b5061022661042e3660046130cc565b610e70565b34801561043f57600080fd5b506102c3610eb0565b34801561045457600080fd5b506104686104633660046130b3565b610ec1565b604051610267919061316e565b34801561048157600080fd5b50604080516060810182526009546001600160a01b039081168252600a54166020820152600b5491810191909152600c546104ba919082565b6040805183516001600160a01b0390811682526020808601519091169082015292810151908301526060820152608001610267565b3480156104fb57600080fd5b50610226610ece565b34801561051057600080fd5b5061025b61051f3660046130e7565b610ff6565b34801561053057600080fd5b5061022661053f3660046130cc565b61101f565b34801561055057600080fd5b506102c3600081565b34801561056557600080fd5b506102c3600080516020613aca83398151915281565b34801561058757600080fd5b5061022661059636600461314c565b61105f565b3480156105a757600080fd5b50600754610468906001600160a01b031681565b3480156105c757600080fd5b5061046873eeeeeeeeeeeeeeeeeeeeeeeeeeeeeeeeeeeeeeee81565b3480156105ef57600080fd5b5060105461025b90610100900460ff1681565b34801561060e57600080fd5b506104686110ee565b34801561062357600080fd5b506102c3610632366004613182565b611119565b34801561064357600080fd5b5061022661065236600461319d565b611183565b34801561066357600080fd5b5060105461025b9060ff1681565b34801561067d57600080fd5b5061022661068c36600461320f565b6111d5565b34801561069d57600080fd5b506102266106ac366004612fde565b6113da565b3480156106bd57600080fd5b506102266106cc3660046130e7565b61149e565b3480156106dd57600080fd5b50600d54600e54600f546106fc926001600160a01b0390811692169083565b6040516102679392919061326d565b34801561071757600080fd5b506102266114ba565b34801561072c57600080fd5b506102c3600080516020613a1c83398151915281565b34801561074e57600080fd5b50600854610468906001600160a01b031681565b34801561076e57600080fd5b5061079661077d3660046130b3565b6011602052600090815260409020805460019091015482565b60408051928352602083019190915201610267565b3480156107b757600080fd5b50610226611510565b6102266107ce366004613035565b611560565b3480156107df57600080fd5b506104687f000000000000000000000000000000000000000000000000000000000000000081565b33301461082757604051635c39d81560e01b815260040160405180910390fd5b600080805260116020527f4ad3b33220dddc71b994a52d72c06b10862965f7d926534c05c00fb7e819e7b75461085d9083611595565b90506108ad604051806040016040528060068152602001651b595d1a1bd960d21b8152506040518060400160405280600381526020016211d15560ea1b815250836115b99092919063ffffffff16565b610911604051806040016040528060038152602001621d5c9b60ea1b8152506108d5876115d7565b6108de876115d7565b6108e7876115ed565b6040516020016108f9939291906132e7565b60408051601f198184030181529190528391906115b9565b61096a6040518060400160405280600781526020016618dbdb9d1858dd60ca1b8152506040518060400160405280600d81526020016c6c6f6375732d66696e616e636560981b815250836115b99092919063ffffffff16565b600980546001600160a01b038088166001600160a01b031992831617909255600a805492871692909116919091179055600b8390556109c08160116000805b81526020019081526020016000206001015461167f565b505050505050565b600080516020613aca8339815191526109e0816116a0565b6010805460ff1916905560126109f683826133f7565b50600d54600f54610a11916001600160a01b031690336116ad565b610a19611839565b60015b6040517ffc252eeb655ad1aa88173ff876f64057c196504c7d3819259257f95c7f05b71090600090a25050565b60006001600160e01b03198216637965db0b60e01b1480610a7a57506301ffc9a760e01b6001600160e01b03198316145b92915050565b60008281526006602052604090205482906001600160a01b03163314610ac15760405162461bcd60e51b8152600401610ab8906134b6565b60405180910390fd5b60008181526006602052604080822080546001600160a01b0319169055518291600080516020613b0a83398151915291a26012610afe83826133f7565b506010805460ff19166001179055604051610b1a9083906134fe565b60405190819003812090600080516020613aea83398151915290600090a2505050565b600080516020613b2a833981519152610b55816116a0565b6010805460ff19169055610b73858585856332b3eb3d60e21b611a32565b5050505050565b6000600080516020613a1c833981519152610b94816116a0565b6010805461ff0019169055610bb2858585632711718f60e11b611c4e565b509392505050565b60009081526020819052604090206001015490565b600080516020613aca833981519152610be7816116a0565b50600880546001600160a01b0319166001600160a01b0392909216919091179055565b610c1382610bba565b610c1c816116a0565b610c268383611e62565b505050565b6001600160a01b0381163314610c9b5760405162461bcd60e51b815260206004820152602f60248201527f416363657373436f6e74726f6c3a2063616e206f6e6c792072656e6f756e636560448201526e103937b632b9903337b91039b2b63360891b6064820152608401610ab8565b610ca58282611ee6565b5050565b600080516020613aca833981519152610cc1816116a0565b6064610cd5670de0b6b3a764000084613530565b610cdf919061355d565b60116000856001811115610cf557610cf5613291565b8152602081019190915260400160002060010155505050565b600080516020613aca833981519152610d26816116a0565b50600780546001600160a01b03929092166001600160a01b0319928316811790915560048054909216179055565b600080516020613a1c833981519152610d6c816116a0565b610d7f8484846329d3407560e21b611c4e565b50505050565b60008281526006602052604090205482906001600160a01b03163314610dbd5760405162461bcd60e51b8152600401610ab8906134b6565b60008181526006602052604080822080546001600160a01b0319169055518291600080516020613b0a83398151915291a2600c8290556010805461ff0019166101001790556040518290600080516020613a3c83398151915290600090a2505050565b600080516020613aca833981519152610e38816116a0565b6010805461ff0019169055600c8290556040518290600080516020613a3c83398151915290600090a2610e69611f4b565b6000610a1c565b600080516020613aca833981519152610e88816116a0565b610e93601383612041565b610ca5576040516306e971bb60e31b815260040160405180910390fd5b6000610ebc6013612056565b905090565b6000610a7a601383612060565b600080516020613aca833981519152610ee6816116a0565b6000610efa6003546001600160a01b031690565b90506001600160a01b03811663a9059cbb336040516370a0823160e01b81526001600160a01b038516906370a0823190610f3890309060040161316e565b602060405180830381865afa158015610f55573d6000803e3d6000fd5b505050506040513d601f19601f82011682018060405250810190610f799190613571565b6040518363ffffffff1660e01b8152600401610f9692919061358a565b6020604051808303816000875af1158015610fb5573d6000803e3d6000fd5b505050506040513d601f19601f82011682018060405250810190610fd991906135a3565b610ca5576040516313ff771f60e21b815260040160405180910390fd5b6000918252602082815260408084206001600160a01b0393909316845291905290205460ff1690565b600080516020613aca833981519152611037816116a0565b61104260138361206c565b610ca5576040516305c46f6760e31b815260040160405180910390fd5b60008281526006602052604090205482906001600160a01b031633146110975760405162461bcd60e51b8152600401610ab8906134b6565b60008181526006602052604080822080546001600160a01b0319169055518291600080516020613b0a83398151915291a2600c8290556040518290600080516020613a3c83398151915290600090a2610c26611f4b565b6000600080516020613aca833981519152611108816116a0565b50506007546001600160a01b031690565b6000600080516020613aca833981519152611133816116a0565b670de0b6b3a76400006011600085600181111561115257611152613291565b81526020019081526020016000206001015460646111709190613530565b61117a919061355d565b91505b50919050565b600080516020613aca83398151915261119b816116a0565b81601160008560018111156111b2576111b2613291565b815260208082019290925260400160002082518155910151600190910155505050565b3330146111f557604051635c39d81560e01b815260040160405180910390fd5b60328260ff16111561121a576040516336ee37fb60e21b815260040160405180910390fd5b336112268685836116ad565b6001600090815260116020527f17bc176d2408558f6e4111feebc3cab4e16b63e967be91cde721f4c8a488b5525461125e9084611595565b90506112ae604051806040016040528060068152602001651b595d1a1bd960d21b8152506040518060400160405280600381526020016211d15560ea1b815250836115b99092919063ffffffff16565b61131b604051806040016040528060038152602001621d5c9b60ea1b8152506112d6896115d7565b6112df896115d7565b6112e8896115ed565b6112f1306115d7565b6112fd8a60ff166115ed565b611306896115d7565b6040516020016108f9969594939291906135c5565b6113746040518060400160405280600781526020016618dbdb9d1858dd60ca1b8152506040518060400160405280600d81526020016c6c6f6375732d66696e616e636560981b815250836115b99092919063ffffffff16565b604080516060810182526001600160a01b03808a168083529089166020830181905291909201879052600d80546001600160a01b03199081169093179055600e8054909216179055600f8590556113d0816011600060016109a9565b5050505050505050565b60008281526006602052604090205482906001600160a01b031633146114125760405162461bcd60e51b8152600401610ab8906134b6565b60008181526006602052604080822080546001600160a01b0319169055518291600080516020613b0a83398151915291a2601261144f83826133f7565b508160405161145e91906134fe565b60405190819003812090600080516020613aea83398151915290600090a2600d54600f54611496916001600160a01b031690336116ad565b610c26611839565b6114a782610bba565b6114b0816116a0565b610c268383611ee6565b600080516020613a1c8339815191526114d2816116a0565b601054610100900460ff166114fa57604051636cb45f1560e11b815260040160405180910390fd5b611502611f4b565b506010805461ff0019169055565b600080516020613b2a833981519152611528816116a0565b60105460ff1661154b57604051637d683d5360e01b815260040160405180910390fd5b611553611839565b506010805460ff19169055565b600080516020613b2a833981519152611578816116a0565b6010805460ff19169055610b73858585856248b15b60e31b611a32565b61159d612e1d565b6115a5612e1d565b6115b181853086612081565b949350505050565b60808301516115c890836120be565b6080830151610c2690826120be565b6060610a7a6001600160a01b03831660146120d5565b606060006115fa83612270565b60010190506000816001600160401b0381111561161957611619612eed565b6040519080825280601f01601f191660200182016040528015611643576020820181803683370190505b5090508181016020015b600019016f181899199a1a9b1b9c1cb0b131b232b360811b600a86061a8153600a850494508461164d57509392505050565b600454600090611699906001600160a01b03168484612346565b9392505050565b6116aa81336123d7565b50565b8273eeeeeeeeeeeeeeeeeeeeeeeeeeeeeeeeeeeeeeed196001600160a01b038216016116f8578234146116f357604051630dd86f5360e11b815260040160405180910390fd5b610d7f565b61170d6001600160a01b038216833086612430565b604051636eb1769f60e11b81523060048201526001600160a01b037f00000000000000000000000000000000000000000000000000000000000000008116602483015284919083169063dd62ed3e90604401602060405180830381865afa15801561177c573d6000803e3d6000fd5b505050506040513d601f19601f820116820180604052508101906117a09190613571565b1015610d7f5760405163095ea7b360e01b81526001600160a01b0382169063095ea7b3906117f6907f0000000000000000000000000000000000000000000000000000000000000000906000199060040161358a565b6020604051808303816000875af1158015611815573d6000803e3d6000fd5b505050506040513d601f19601f82011682018060405250810190610b7391906135a3565b600d546001600160a01b031673eeeeeeeeeeeeeeeeeeeeeeeeeeeeeeeeeeeeeeed190161192957611923601280546118709061337d565b80601f016020809104026020016040519081016040528092919081815260200182805461189c9061337d565b80156118e95780601f106118be576101008083540402835291602001916118e9565b820191906000526020600020905b8154815290600101906020018083116118cc57829003601f168201915b5050600f546001600160a01b037f000000000000000000000000000000000000000000000000000000000000000016949350915050612488565b506119f1565b6119ef601280546119399061337d565b80601f01602080910402602001604051908101604052809291908181526020018280546119659061337d565b80156119b25780601f10611987576101008083540402835291602001916119b2565b820191906000526020600020905b81548152906001019060200180831161199557829003601f168201915b50505050507f00000000000000000000000000000000000000000000000000000000000000006001600160a01b03166124ae90919063ffffffff16565b505b600d604051611a009190613712565b604051908190038120907f098d3af501ac55740f44cc3d45b38cd162e715bd76ae2ec1704db9bcf19df52890600090a2565b60405163c7fd696d60e01b81526001600160a01b038087166004830152851660248201526044810184905260ff831660648201526001600160e01b031982166084820152309063c7fd696d9060a401600060405180830381600087803b158015611a9b57600080fd5b505af1925050508015611aac575060015b611bdd573d808015611ada576040519150601f19603f3d011682016040523d82523d6000602084013e611adf565b606091505b5060085460405163f09922ff60e01b81526001600160a01b03888116600483015287811660248301526044820187905260ff861660648301529091169063f09922ff90608401600060405180830381600087803b158015611b3f57600080fd5b505af1158015611b53573d6000803e3d6000fd5b5050505080604051611b6591906134fe565b60405180910390206040518060600160405280886001600160a01b03168152602001876001600160a01b0316815260200186815250604051611ba79190613724565b604051908190038120907f42f6a3dc3767dfc7a95fd1364bc0520fbdf9040c2ad1d9f7ec207d6e21c15f4190600090a350610b73565b6040518060600160405280866001600160a01b03168152602001856001600160a01b0316815260200184815250604051611c179190613724565b604051908190038120907f1804ee9174bb7080e7be8160b7a8228d4546814b0152cd7880b26e91a63d980f90600090a25050505050565b60405162ede66760e01b81526001600160a01b03808616600483015284166024820152604481018390526001600160e01b031982166064820152309062ede66790608401600060405180830381600087803b158015611cac57600080fd5b505af1925050508015611cbd575060015b611df2573d808015611ceb576040519150601f19603f3d011682016040523d82523d6000602084013e611cf0565b606091505b50604051631a5b420760e01b60208201526001600160601b0319606087811b8216602484015286901b166038820152604c8101849052600090611d5290606c0160408051601f198184030181529190526008546001600160a01b0316906124f2565b905080806020019051810190611d689190613571565b600c55604051611d799083906134fe565b60405180910390206040518060600160405280886001600160a01b03168152602001876001600160a01b0316815260200186815250604051611dbb9190613724565b604051908190038120907f6f5bbc1fe53f315ff6f8dfb22daa56c7bf89b1628da3c20d3df48580fa565f2190600090a35050610d7f565b6040518060600160405280856001600160a01b03168152602001846001600160a01b0316815260200183815250604051611e2c9190613724565b604051908190038120907fa734ecd976252ef2be24e3baca9db36e3d2b1fbb6fa53e193ac86898503d5b4b90600090a250505050565b611e6c8282610ff6565b610ca5576000828152602081815260408083206001600160a01b03851684529091529020805460ff19166001179055611ea23390565b6001600160a01b0316816001600160a01b0316837f2f8788117e7eff1d82e926ec794901d17c78024a50270940304540a733656f0d60405160405180910390a45050565b611ef08282610ff6565b15610ca5576000828152602081815260408083206001600160a01b0385168085529252808320805460ff1916905551339285917ff6391f5c32d9c69d2a47ea670b442974b53935d1edc7fd64eb21e047a839171b9190a45050565b6000611f576013612056565b905060005b81811015611ffe57611f6f601382612060565b600954600a54600c54600b5460405163782b6fff60e11b81526001600160a01b03948516600482015292841660248401526044830191909152606482015291169063f056dffe90608401600060405180830381600087803b158015611fd357600080fd5b505af1158015611fe7573d6000803e3d6000fd5b505050508080611ff690613753565b915050611f5c565b50600960405161200e919061376c565b604051908190038120907fa8e5b3954602a050e4fd58bfdb4679c92cdf00addead6c0178ced776602ed45290600090a250565b6000611699836001600160a01b038416612517565b6000610a7a825490565b6000611699838361260a565b6000611699836001600160a01b038416612634565b612089612e1d565b6120998560800151610100612683565b50509183526001600160a01b031660208301526001600160e01b031916604082015290565b6120cb82600383516126db565b610c2682826127e2565b606060006120e4836002613530565b6120ef906002613788565b6001600160401b0381111561210657612106612eed565b6040519080825280601f01601f191660200182016040528015612130576020820181803683370190505b509050600360fc1b8160008151811061214b5761214b61379b565b60200101906001600160f81b031916908160001a905350600f60fb1b8160018151811061217a5761217a61379b565b60200101906001600160f81b031916908160001a905350600061219e846002613530565b6121a9906001613788565b90505b6001811115612221576f181899199a1a9b1b9c1cb0b131b232b360811b85600f16601081106121dd576121dd61379b565b1a60f81b8282815181106121f3576121f361379b565b60200101906001600160f81b031916908160001a90535060049490941c9361221a816137b1565b90506121ac565b5083156116995760405162461bcd60e51b815260206004820181905260248201527f537472696e67733a20686578206c656e67746820696e73756666696369656e746044820152606401610ab8565b60008072184f03e93ff9f4daa797ed6e38ed64bf6a1f0160401b83106122af5772184f03e93ff9f4daa797ed6e38ed64bf6a1f0160401b830492506040015b6904ee2d6d415b85acef8160201b83106122d9576904ee2d6d415b85acef8160201b830492506020015b662386f26fc1000083106122f757662386f26fc10000830492506010015b6305f5e100831061230f576305f5e100830492506008015b612710831061232357612710830492506004015b60648310612335576064830492506002015b600a8310610a7a5760010192915050565b600554600090612357816001613788565b60055583516040808601516080870151519151600093633c6d41b960e01b9361238d9386938493928991600291906024016137f4565b60408051601f198184030181529190526020810180516001600160e01b03166001600160e01b03199093169290921790915290506123cd868386846127fc565b9695505050505050565b6123e18282610ff6565b610ca5576123ee816115d7565b6123f98360206120d5565b60405160200161240a92919061383c565b60408051601f198184030181529082905262461bcd60e51b8252610ab8916004016138ab565b610d7f846323b872dd60e01b8585856040516024016124519392919061326d565b60408051601f198184030181529190526020810180516001600160e01b03166001600160e01b031990931692909217909152612955565b60606115b1848484604051806060016040528060298152602001613a5c60299139612a2a565b6060611699838360006040518060400160405280601e81526020017f416464726573733a206c6f772d6c6576656c2063616c6c206661696c65640000815250612a2a565b60606116998383604051806060016040528060258152602001613a8560259139612b05565b6000818152600183016020526040812054801561260057600061253b6001836138be565b855490915060009061254f906001906138be565b90508181146125b457600086600001828154811061256f5761256f61379b565b90600052602060002001549050808760000184815481106125925761259261379b565b6000918252602080832090910192909255918252600188019052604090208390555b85548690806125c5576125c56138d1565b600190038181906000526020600020016000905590558560010160008681526020019081526020016000206000905560019350505050610a7a565b6000915050610a7a565b60008260000182815481106126215761262161379b565b9060005260206000200154905092915050565b600081815260018301602052604081205461267b57508154600181810184556000848152602080822090930184905584548482528286019093526040902091909155610a7a565b506000610a7a565b61268b612e52565b6126966020836138e7565b156126be576126a66020836138e7565b6126b19060206138be565b6126bb9083613788565b91505b506020828101829052604080518085526000815290920101905290565b6017816001600160401b0316116126ff57610d7f8360e0600585901b168317612b73565b60ff816001600160401b03161161273b57612725836018611fe0600586901b1617612b73565b50610d7f836001600160401b0383166001612b8b565b61ffff816001600160401b03161161277857612762836019611fe0600586901b1617612b73565b50610d7f836001600160401b0383166002612b8b565b63ffffffff816001600160401b0316116127b7576127a183601a611fe0600586901b1617612b73565b50610d7f836001600160401b0383166004612b8b565b6127cc83601b611fe0600586901b1617612b73565b50610d7f836001600160401b0383166008612b8b565b6127ea612e52565b61169983846000015151848551612ba4565b6040516001600160601b03193060601b1660208201526034810184905260009060540160408051808303601f1901815282825280516020918201206000818152600690925291812080546001600160a01b0319166001600160a01b038a1617905590925082917fb5e6e01e79f91267dc17b4e6314d5d4d03593d2ceee0fbb452b750bd70ea5af99190a2600354604051630200057560e51b81526001600160a01b0390911690634000aea0906128ba908890879087906004016138fb565b6020604051808303816000875af11580156128d9573d6000803e3d6000fd5b505050506040513d601f19601f820116820180604052508101906128fd91906135a3565b6115b15760405162461bcd60e51b815260206004820152602360248201527f756e61626c6520746f207472616e73666572416e6443616c6c20746f206f7261604482015262636c6560e81b6064820152608401610ab8565b60006129aa826040518060400160405280602081526020017f5361666545524332303a206c6f772d6c6576656c2063616c6c206661696c6564815250856001600160a01b0316612c819092919063ffffffff16565b90508051600014806129cb5750808060200190518101906129cb91906135a3565b610c265760405162461bcd60e51b815260206004820152602a60248201527f5361666545524332303a204552433230206f7065726174696f6e20646964206e6044820152691bdd081cdd58d8d9595960b21b6064820152608401610ab8565b606082471015612a8b5760405162461bcd60e51b815260206004820152602660248201527f416464726573733a20696e73756666696369656e742062616c616e636520666f6044820152651c8818d85b1b60d21b6064820152608401610ab8565b600080866001600160a01b03168587604051612aa791906134fe565b60006040518083038185875af1925050503d8060008114612ae4576040519150601f19603f3d011682016040523d82523d6000602084013e612ae9565b606091505b5091509150612afa87838387612c90565b979650505050505050565b6060600080856001600160a01b031685604051612b2291906134fe565b600060405180830381855afa9150503d8060008114612b5d576040519150601f19603f3d011682016040523d82523d6000602084013e612b62565b606091505b50915091506123cd86838387612c90565b612b7b612e52565b6116998384600001515184612d09565b612b93612e52565b6115b1848560000151518585612d57565b612bac612e52565b8251821115612bba57600080fd5b6020850151612bc98386613788565b1115612bfc57612bfc85612bec87602001518786612be79190613788565b612dcb565b612bf7906002613530565b612ddc565b600080865180518760208301019350808887011115612c1b5787860182525b505050602084015b60208410612c5b5780518252612c3a602083613788565b9150612c47602082613788565b9050612c546020856138be565b9350612c23565b51815160001960208690036101000a019081169019919091161790525083949350505050565b60606115b18484600085612a2a565b60608315612cff578251600003612cf8576001600160a01b0385163b612cf85760405162461bcd60e51b815260206004820152601d60248201527f416464726573733a2063616c6c20746f206e6f6e2d636f6e74726163740000006044820152606401610ab8565b50816115b1565b6115b18383612df3565b612d11612e52565b83602001518310612d3157612d318485602001516002612bf79190613530565b8351805160208583010184815350808503612d4d576001810182525b5093949350505050565b612d5f612e52565b6020850151612d6e8584613788565b1115612d8257612d8285612bec8685613788565b60006001612d9284610100613a0f565b612d9c91906138be565b9050855183868201018583198251161781525080518487011115612dc05783860181525b509495945050505050565b60008183111561117d575081610a7a565b8151612de88383612683565b50610d7f83826127e2565b815115612e035781518083602001fd5b8060405162461bcd60e51b8152600401610ab891906138ab565b6040805160a081018252600080825260208201819052918101829052606081019190915260808101612e4d612e52565b905290565b604051806040016040528060608152602001600081525090565b80356001600160a01b0381168114612e8357600080fd5b919050565b80356001600160e01b031981168114612e8357600080fd5b60008060008060808587031215612eb657600080fd5b612ebf85612e6c565b9350612ecd60208601612e6c565b925060408501359150612ee260608601612e88565b905092959194509250565b634e487b7160e01b600052604160045260246000fd5b600082601f830112612f1457600080fd5b81356001600160401b0380821115612f2e57612f2e612eed565b604051601f8301601f19908116603f01168101908282118183101715612f5657612f56612eed565b81604052838152866020858801011115612f6f57600080fd5b836020870160208301376000602085830101528094505050505092915050565b600060208284031215612fa157600080fd5b81356001600160401b03811115612fb757600080fd5b6115b184828501612f03565b600060208284031215612fd557600080fd5b61169982612e88565b60008060408385031215612ff157600080fd5b8235915060208301356001600160401b0381111561300e57600080fd5b61301a85828601612f03565b9150509250929050565b803560ff81168114612e8357600080fd5b6000806000806080858703121561304b57600080fd5b61305485612e6c565b935061306260208601612e6c565b925060408501359150612ee260608601613024565b60008060006060848603121561308c57600080fd5b61309584612e6c565b92506130a360208501612e6c565b9150604084013590509250925092565b6000602082840312156130c557600080fd5b5035919050565b6000602082840312156130de57600080fd5b61169982612e6c565b600080604083850312156130fa57600080fd5b8235915061310a60208401612e6c565b90509250929050565b803560028110612e8357600080fd5b6000806040838503121561313557600080fd5b61313e83613113565b946020939093013593505050565b6000806040838503121561315f57600080fd5b50508035926020909101359150565b6001600160a01b0391909116815260200190565b60006020828403121561319457600080fd5b61169982613113565b60008082840360608112156131b157600080fd5b6131ba84613113565b92506040601f19820112156131ce57600080fd5b50604080519081016001600160401b03811182821017156131f1576131f1612eed565b60409081526020858101358352940135938101939093525092909150565b600080600080600060a0868803121561322757600080fd5b61323086612e6c565b945061323e60208701612e6c565b93506040860135925061325360608701613024565b915061326160808701612e88565b90509295509295909350565b6001600160a01b039384168152919092166020820152604081019190915260600190565b634e487b7160e01b600052602160045260246000fd5b60005b838110156132c25781810151838201526020016132aa565b50506000910152565b600081516132dd8185602086016132a7565b9290920192915050565b600080516020613aaa83398151915281526b312f71756f74653f7372633d60a01b60208201526000845161332281602c8501602089016132a7565b64266473743d60d81b602c9184019182015284516133478160318401602089016132a7565b6726616d6f756e743d60c01b6031929091019182015283516133708160398401602088016132a7565b0160390195945050505050565b600181811c9082168061339157607f821691505b60208210810361117d57634e487b7160e01b600052602260045260246000fd5b601f821115610c2657600081815260208120601f850160051c810160208610156133d85750805b601f850160051c820191505b818110156109c0578281556001016133e4565b81516001600160401b0381111561341057613410612eed565b6134248161341e845461337d565b846133b1565b602080601f83116001811461345957600084156134415750858301515b600019600386901b1c1916600185901b1785556109c0565b600085815260208120601f198616915b8281101561348857888601518255948401946001909101908401613469565b50858210156134a65787850151600019600388901b60f8161c191681555b5050505050600190811b01905550565b60208082526028908201527f536f75726365206d75737420626520746865206f7261636c65206f6620746865604082015267081c995c5d595cdd60c21b606082015260800190565b600082516135108184602087016132a7565b9190910192915050565b634e487b7160e01b600052601160045260246000fd5b8082028115828204841417610a7a57610a7a61351a565b634e487b7160e01b600052601260045260246000fd5b60008261356c5761356c613547565b500490565b60006020828403121561358357600080fd5b5051919050565b6001600160a01b03929092168252602082015260400190565b6000602082840312156135b557600080fd5b8151801515811461169957600080fd5b600080516020613aaa83398151915281526a312f737761703f7372633d60a81b6020820152600087516135ff81602b850160208c016132a7565b64266473743d60d81b602b918401918201528751613624816030840160208c016132a7565b6726616d6f756e743d60c01b60309290910191820152865161364d816038840160208b016132a7565b652666726f6d3d60d01b60389290910191820152855161367481603e840160208a016132a7565b6926736c6970706167653d60b01b603e92909101918201526136df6136be6136b86136a260488501896132cb565b692672656365697665723d60b01b8152600a0190565b866132cb565b742664697361626c65457374696d6174653d7472756560581b815260150190565b9998505050505050505050565b80546001600160a01b039081168352600182015416602083015260020154604090910152565b61371c81836136ec565b606001919050565b81516001600160a01b039081168252602080840151909116908201526040918201519181019190915260600190565b6000600182016137655761376561351a565b5060010190565b61377681836136ec565b60039190910154606082015260800190565b80820180821115610a7a57610a7a61351a565b634e487b7160e01b600052603260045260246000fd5b6000816137c0576137c061351a565b506000190190565b600081518084526137e08160208601602086016132a7565b601f01601f19169290920160200192915050565b60018060a01b038816815286602082015285604082015263ffffffff60e01b851660608201528360808201528260a082015260e060c082015260006136df60e08301846137c8565b76020b1b1b2b9b9a1b7b73a3937b61d1030b1b1b7bab73a1604d1b81526000835161386e8160178501602088016132a7565b7001034b99036b4b9b9b4b733903937b6329607d1b601791840191820152835161389f8160288401602088016132a7565b01602801949350505050565b60208152600061169960208301846137c8565b81810381811115610a7a57610a7a61351a565b634e487b7160e01b600052603160045260246000fd5b6000826138f6576138f6613547565b500690565b60018060a01b038416815282602082015260606040820152600061392260608301846137c8565b95945050505050565b600181815b8085111561396657816000190482111561394c5761394c61351a565b8085161561395957918102915b93841c9390800290613930565b509250929050565b60008261397d57506001610a7a565b8161398a57506000610a7a565b81600181146139a057600281146139aa576139c6565b6001915050610a7a565b60ff8411156139bb576139bb61351a565b50506001821b610a7a565b5060208310610133831016604e8410600b84101617156139e9575081810a610a7a565b6139f3838361392b565b8060001904821115613a0757613a0761351a565b029392505050565b6000611699838361396e56fe93627969d6ba3f2118f574a00f8d1c7fed4282f3728a455e8b3c867b1a1a212bb6904e5f1b44229e5609b681fbc2512409afa3e5a9072d0314256c012668dbe4416464726573733a206c6f772d6c6576656c2063616c6c20776974682076616c7565206661696c6564416464726573733a206c6f772d6c6576656c207374617469632063616c6c206661696c656468747470733a2f2f6170692e31696e63682e6465762f737761702f76352e322f17a8e30262c1f919c33056d877a3c22b95c2f5e4dac44683c1c2323cd79fbdb0a6b78fc047486d5add927aa53ba0d4fc8eb23a5811e0052aebeba21469f51df87cc135e0cebb02c3480ae5d74d377283180a2601f8f644edf7987b009316c63afab00a984754950c7187fb98f39da0ae224abbbee017c1699445ad0e19474a4da264697066735822122016a7a94b3d1f4705e83251b284e5a3475fb27bd42878c9574c0887f3ff7e1b8a64736f6c6343000813003317a8e30262c1f919c33056d877a3c22b95c2f5e4dac44683c1c2323cd79fbdb0fab00a984754950c7187fb98f39da0ae224abbbee017c1699445ad0e19474a4d",
  "linkReferences": {},
  "deployedLinkReferences": {}
}