{
  "_format": "hh-sol-artifact-1",
  "contractName": "SwapHelper",
  "sourceName": "contracts/utils/swaps/SwapHelper.sol",
  "abi": [
    {
      "inputs": [
        {
          "internalType": "uint256",
          "name": "_quoteJobFee",
          "type": "uint256"
        },
        {
          "internalType": "uint256",
          "name": "_swapCalldataJobFee",
          "type": "uint256"
        },
        {
          "internalType": "address",
          "name": "_strategist",
          "type": "address"
        },
        {
          "internalType": "address",
          "name": "_aggregationRouter",
          "type": "address"
        },
        {
          "internalType": "address",
          "name": "chainlinkTokenAddress",
          "type": "address"
        },
        {
          "internalType": "address",
          "name": "chainlinkOracleAddress",
          "type": "address"
        },
        {
          "internalType": "string",
          "name": "_swapCalldataJobId",
          "type": "string"
        },
        {
          "internalType": "string",
          "name": "_quoteJobId",
          "type": "string"
        },
        {
          "internalType": "address[]",
          "name": "authorizedToSwap",
          "type": "address[]"
        }
      ],
      "stateMutability": "nonpayable",
      "type": "constructor"
    },
    {
      "inputs": [],
      "name": "CannotAddSubscriber",
      "type": "error"
    },
    {
      "inputs": [],
      "name": "CannotRemoveSubscriber",
      "type": "error"
    },
    {
      "inputs": [],
      "name": "NotEnoughNativeTokensSent",
      "type": "error"
    },
    {
      "inputs": [],
      "name": "OnlySelfAuthorized",
      "type": "error"
    },
    {
      "inputs": [],
      "name": "QuoteOperationIsNotReady",
      "type": "error"
    },
    {
      "inputs": [],
      "name": "SlippageIsTooBig",
      "type": "error"
    },
    {
      "inputs": [],
      "name": "SwapOperationIsNotReady",
      "type": "error"
    },
    {
      "inputs": [],
      "name": "TransferError",
      "type": "error"
    },
    {
      "anonymous": false,
      "inputs": [
        {
          "indexed": true,
          "internalType": "bytes32",
          "name": "id",
          "type": "bytes32"
        }
      ],
      "name": "ChainlinkCancelled",
      "type": "event"
    },
    {
      "anonymous": false,
      "inputs": [
        {
          "indexed": true,
          "internalType": "bytes32",
          "name": "id",
          "type": "bytes32"
        }
      ],
      "name": "ChainlinkFulfilled",
      "type": "event"
    },
    {
      "anonymous": false,
      "inputs": [
        {
          "indexed": true,
          "internalType": "bytes32",
          "name": "id",
          "type": "bytes32"
        }
      ],
      "name": "ChainlinkRequested",
      "type": "event"
    },
    {
      "anonymous": false,
      "inputs": [
        {
          "components": [
            {
              "internalType": "address",
              "name": "srcToken",
              "type": "address"
            },
            {
              "internalType": "address",
              "name": "dstToken",
              "type": "address"
            },
            {
              "internalType": "uint256",
              "name": "inAmount",
              "type": "uint256"
            }
          ],
          "indexed": true,
          "internalType": "struct IOraclizedSwapHelper.SwapInfo",
          "name": "_quoteBuffer",
          "type": "tuple"
        },
        {
          "indexed": true,
          "internalType": "bytes",
          "name": "errorData",
          "type": "bytes"
        }
      ],
      "name": "EmergencyQuote",
      "type": "event"
    },
    {
      "anonymous": false,
      "inputs": [
        {
          "components": [
            {
              "internalType": "address",
              "name": "srcToken",
              "type": "address"
            },
            {
              "internalType": "address",
              "name": "dstToken",
              "type": "address"
            },
            {
              "internalType": "uint256",
              "name": "inAmount",
              "type": "uint256"
            }
          ],
          "indexed": true,
          "internalType": "struct IOraclizedSwapHelper.SwapInfo",
          "name": "_swapBuffer",
          "type": "tuple"
        },
        {
          "indexed": true,
          "internalType": "bytes",
          "name": "errorData",
          "type": "bytes"
        }
      ],
      "name": "EmergencySwap",
      "type": "event"
    },
    {
      "anonymous": false,
      "inputs": [
        {
          "components": [
            {
              "internalType": "address",
              "name": "srcToken",
              "type": "address"
            },
            {
              "internalType": "address",
              "name": "dstToken",
              "type": "address"
            },
            {
              "internalType": "uint256",
              "name": "inAmount",
              "type": "uint256"
            }
          ],
          "indexed": true,
          "internalType": "struct IOraclizedSwapHelper.SwapInfo",
          "name": "_quoteBuffer",
          "type": "tuple"
        }
      ],
      "name": "Quote",
      "type": "event"
    },
    {
      "anonymous": false,
      "inputs": [
        {
          "indexed": true,
          "internalType": "uint256",
          "name": "toAmount",
          "type": "uint256"
        }
      ],
      "name": "QuoteRegistered",
      "type": "event"
    },
    {
      "anonymous": false,
      "inputs": [
        {
          "components": [
            {
              "components": [
                {
                  "internalType": "address",
                  "name": "srcToken",
                  "type": "address"
                },
                {
                  "internalType": "address",
                  "name": "dstToken",
                  "type": "address"
                },
                {
                  "internalType": "uint256",
                  "name": "inAmount",
                  "type": "uint256"
                }
              ],
              "internalType": "struct IOraclizedSwapHelper.SwapInfo",
              "name": "swapInfo",
              "type": "tuple"
            },
            {
              "internalType": "uint256",
              "name": "outAmount",
              "type": "uint256"
            }
          ],
          "indexed": true,
          "internalType": "struct IOraclizedSwapHelper.QuoteInfo",
          "name": "_quoteBuffer",
          "type": "tuple"
        }
      ],
      "name": "QuoteSent",
      "type": "event"
    },
    {
      "anonymous": false,
      "inputs": [
        {
          "indexed": true,
          "internalType": "bytes32",
          "name": "role",
          "type": "bytes32"
        },
        {
          "indexed": true,
          "internalType": "bytes32",
          "name": "previousAdminRole",
          "type": "bytes32"
        },
        {
          "indexed": true,
          "internalType": "bytes32",
          "name": "newAdminRole",
          "type": "bytes32"
        }
      ],
      "name": "RoleAdminChanged",
      "type": "event"
    },
    {
      "anonymous": false,
      "inputs": [
        {
          "indexed": true,
          "internalType": "bytes32",
          "name": "role",
          "type": "bytes32"
        },
        {
          "indexed": true,
          "internalType": "address",
          "name": "account",
          "type": "address"
        },
        {
          "indexed": true,
          "internalType": "address",
          "name": "sender",
          "type": "address"
        }
      ],
      "name": "RoleGranted",
      "type": "event"
    },
    {
      "anonymous": false,
      "inputs": [
        {
          "indexed": true,
          "internalType": "bytes32",
          "name": "role",
          "type": "bytes32"
        },
        {
          "indexed": true,
          "internalType": "address",
          "name": "account",
          "type": "address"
        },
        {
          "indexed": true,
          "internalType": "address",
          "name": "sender",
          "type": "address"
        }
      ],
      "name": "RoleRevoked",
      "type": "event"
    },
    {
      "anonymous": false,
      "inputs": [
        {
          "indexed": true,
          "internalType": "enum IOraclizedSwapHelper.StrategistInterference",
          "name": "interference",
          "type": "uint8"
        }
      ],
      "name": "StrategistInterferred",
      "type": "event"
    },
    {
      "anonymous": false,
      "inputs": [
        {
          "components": [
            {
              "internalType": "address",
              "name": "srcToken",
              "type": "address"
            },
            {
              "internalType": "address",
              "name": "dstToken",
              "type": "address"
            },
            {
              "internalType": "uint256",
              "name": "inAmount",
              "type": "uint256"
            }
          ],
          "indexed": true,
          "internalType": "struct IOraclizedSwapHelper.SwapInfo",
          "name": "_swapBuffer",
          "type": "tuple"
        }
      ],
      "name": "Swap",
      "type": "event"
    },
    {
      "anonymous": false,
      "inputs": [
        {
          "components": [
            {
              "internalType": "address",
              "name": "srcToken",
              "type": "address"
            },
            {
              "internalType": "address",
              "name": "dstToken",
              "type": "address"
            },
            {
              "internalType": "uint256",
              "name": "inAmount",
              "type": "uint256"
            }
          ],
          "indexed": true,
          "internalType": "struct IOraclizedSwapHelper.SwapInfo",
          "name": "_swapBuffer",
          "type": "tuple"
        }
      ],
      "name": "SwapPerformed",
      "type": "event"
    },
    {
      "anonymous": false,
      "inputs": [
        {
          "indexed": true,
          "internalType": "bytes",
          "name": "swapCalldata",
          "type": "bytes"
        }
      ],
      "name": "SwapRegistered",
      "type": "event"
    },
    {
      "inputs": [],
      "name": "DEFAULT_ADMIN_ROLE",
      "outputs": [
        {
          "internalType": "bytes32",
          "name": "",
          "type": "bytes32"
        }
      ],
      "stateMutability": "view",
      "type": "function"
    },
    {
      "inputs": [],
      "name": "ONE_INCH_ETH_ADDRESS",
      "outputs": [
        {
          "internalType": "address",
          "name": "",
          "type": "address"
        }
      ],
      "stateMutability": "view",
      "type": "function"
    },
    {
      "inputs": [],
      "name": "QUOTE_AUTHORIZED_ROLE",
      "outputs": [
        {
          "internalType": "bytes32",
          "name": "",
          "type": "bytes32"
        }
      ],
      "stateMutability": "view",
      "type": "function"
    },
    {
      "inputs": [],
      "name": "STRATEGIST_ROLE",
      "outputs": [
        {
          "internalType": "bytes32",
          "name": "",
          "type": "bytes32"
        }
      ],
      "stateMutability": "view",
      "type": "function"
    },
    {
      "inputs": [],
      "name": "SWAP_AUTHORIZED_ROLE",
      "outputs": [
        {
          "internalType": "bytes32",
          "name": "",
          "type": "bytes32"
        }
      ],
      "stateMutability": "view",
      "type": "function"
    },
    {
      "inputs": [
        {
          "internalType": "address",
          "name": "subscriber",
          "type": "address"
        }
      ],
      "name": "addSubscriber",
      "outputs": [],
      "stateMutability": "nonpayable",
      "type": "function"
    },
    {
      "inputs": [],
      "name": "aggregationRouter",
      "outputs": [
        {
          "internalType": "address",
          "name": "",
          "type": "address"
        }
      ],
      "stateMutability": "view",
      "type": "function"
    },
    {
      "inputs": [],
      "name": "emergencySwapHelper",
      "outputs": [
        {
          "internalType": "contract ISwapHelper",
          "name": "",
          "type": "address"
        }
      ],
      "stateMutability": "view",
      "type": "function"
    },
    {
      "inputs": [],
      "name": "fulfillQuote",
      "outputs": [],
      "stateMutability": "nonpayable",
      "type": "function"
    },
    {
      "inputs": [],
      "name": "fulfillSwap",
      "outputs": [],
      "stateMutability": "nonpayable",
      "type": "function"
    },
    {
      "inputs": [
        {
          "internalType": "enum IOraclizedSwapHelper.JobPurpose",
          "name": "_purpose",
          "type": "uint8"
        }
      ],
      "name": "getFeeInHundredthsOfLink",
      "outputs": [
        {
          "internalType": "uint256",
          "name": "",
          "type": "uint256"
        }
      ],
      "stateMutability": "view",
      "type": "function"
    },
    {
      "inputs": [],
      "name": "getOracleAddress",
      "outputs": [
        {
          "internalType": "address",
          "name": "",
          "type": "address"
        }
      ],
      "stateMutability": "view",
      "type": "function"
    },
    {
      "inputs": [
        {
          "internalType": "bytes32",
          "name": "role",
          "type": "bytes32"
        }
      ],
      "name": "getRoleAdmin",
      "outputs": [
        {
          "internalType": "bytes32",
          "name": "",
          "type": "bytes32"
        }
      ],
      "stateMutability": "view",
      "type": "function"
    },
    {
      "inputs": [
        {
          "internalType": "bytes32",
          "name": "role",
          "type": "bytes32"
        },
        {
          "internalType": "address",
          "name": "account",
          "type": "address"
        }
      ],
      "name": "grantRole",
      "outputs": [],
      "stateMutability": "nonpayable",
      "type": "function"
    },
    {
      "inputs": [
        {
          "internalType": "bytes32",
          "name": "role",
          "type": "bytes32"
        },
        {
          "internalType": "address",
          "name": "account",
          "type": "address"
        }
      ],
      "name": "hasRole",
      "outputs": [
        {
          "internalType": "bool",
          "name": "",
          "type": "bool"
        }
      ],
      "stateMutability": "view",
      "type": "function"
    },
    {
      "inputs": [],
      "name": "isReadyToFulfillQuote",
      "outputs": [
        {
          "internalType": "bool",
          "name": "",
          "type": "bool"
        }
      ],
      "stateMutability": "view",
      "type": "function"
    },
    {
      "inputs": [],
      "name": "isReadyToFulfillSwap",
      "outputs": [
        {
          "internalType": "bool",
          "name": "",
          "type": "bool"
        }
      ],
      "stateMutability": "view",
      "type": "function"
    },
    {
      "inputs": [
        {
          "internalType": "uint256",
          "name": "",
          "type": "uint256"
        }
      ],
      "name": "jobInfos",
      "outputs": [
        {
          "internalType": "bytes32",
          "name": "jobId",
          "type": "bytes32"
        },
        {
          "internalType": "uint256",
          "name": "jobFeeInJuels",
          "type": "uint256"
        }
      ],
      "stateMutability": "view",
      "type": "function"
    },
    {
      "inputs": [],
      "name": "oracleAddress",
      "outputs": [
        {
          "internalType": "address",
          "name": "",
          "type": "address"
        }
      ],
      "stateMutability": "view",
      "type": "function"
    },
    {
      "inputs": [],
      "name": "quoteBuffer",
      "outputs": [
        {
          "components": [
            {
              "internalType": "address",
              "name": "srcToken",
              "type": "address"
            },
            {
              "internalType": "address",
              "name": "dstToken",
              "type": "address"
            },
            {
              "internalType": "uint256",
              "name": "inAmount",
              "type": "uint256"
            }
          ],
          "internalType": "struct IOraclizedSwapHelper.SwapInfo",
          "name": "swapInfo",
          "type": "tuple"
        },
        {
          "internalType": "uint256",
          "name": "outAmount",
          "type": "uint256"
        }
      ],
      "stateMutability": "view",
      "type": "function"
    },
    {
      "inputs": [
        {
          "internalType": "bytes32",
          "name": "requestId",
          "type": "bytes32"
        },
        {
          "internalType": "uint256",
          "name": "toAmount",
          "type": "uint256"
        }
      ],
      "name": "registerQuoteAndFulfillRequestOnOracleExpense",
      "outputs": [],
      "stateMutability": "nonpayable",
      "type": "function"
    },
    {
      "inputs": [
        {
          "internalType": "bytes32",
          "name": "requestId",
          "type": "bytes32"
        },
        {
          "internalType": "uint256",
          "name": "toAmount",
          "type": "uint256"
        }
      ],
      "name": "registerQuoteRequest",
      "outputs": [],
      "stateMutability": "nonpayable",
      "type": "function"
    },
    {
      "inputs": [
        {
          "internalType": "bytes32",
          "name": "requestId",
          "type": "bytes32"
        },
        {
          "internalType": "bytes",
          "name": "swapCalldata",
          "type": "bytes"
        }
      ],
      "name": "registerSwapCalldata",
      "outputs": [],
      "stateMutability": "nonpayable",
      "type": "function"
    },
    {
      "inputs": [
        {
          "internalType": "bytes32",
          "name": "requestId",
          "type": "bytes32"
        },
        {
          "internalType": "bytes",
          "name": "swapCalldata",
          "type": "bytes"
        }
      ],
      "name": "registerSwapCalldataAndFulfillOnOracleExpense",
      "outputs": [],
      "stateMutability": "nonpayable",
      "type": "function"
    },
    {
      "inputs": [
        {
          "internalType": "address",
          "name": "subscriber",
          "type": "address"
        }
      ],
      "name": "removeSubscriber",
      "outputs": [],
      "stateMutability": "nonpayable",
      "type": "function"
    },
    {
      "inputs": [
        {
          "internalType": "bytes32",
          "name": "role",
          "type": "bytes32"
        },
        {
          "internalType": "address",
          "name": "account",
          "type": "address"
        }
      ],
      "name": "renounceRole",
      "outputs": [],
      "stateMutability": "nonpayable",
      "type": "function"
    },
    {
      "inputs": [
        {
          "internalType": "address",
          "name": "src",
          "type": "address"
        },
        {
          "internalType": "address",
          "name": "dst",
          "type": "address"
        },
        {
          "internalType": "uint256",
          "name": "amount",
          "type": "uint256"
        },
        {
          "internalType": "bytes4",
          "name": "callbackSignature",
          "type": "bytes4"
        }
      ],
      "name": "requestChainlinkQuote",
      "outputs": [],
      "stateMutability": "nonpayable",
      "type": "function"
    },
    {
      "inputs": [
        {
          "internalType": "address",
          "name": "src",
          "type": "address"
        },
        {
          "internalType": "address",
          "name": "dst",
          "type": "address"
        },
        {
          "internalType": "uint256",
          "name": "amount",
          "type": "uint256"
        },
        {
          "internalType": "uint8",
          "name": "slippage",
          "type": "uint8"
        },
        {
          "internalType": "bytes4",
          "name": "callbackSignature",
          "type": "bytes4"
        }
      ],
      "name": "requestChainlinkSwap",
      "outputs": [],
      "stateMutability": "nonpayable",
      "type": "function"
    },
    {
      "inputs": [
        {
          "internalType": "address",
          "name": "src",
          "type": "address"
        },
        {
          "internalType": "address",
          "name": "dst",
          "type": "address"
        },
        {
          "internalType": "uint256",
          "name": "amount",
          "type": "uint256"
        }
      ],
      "name": "requestQuote",
      "outputs": [
        {
          "internalType": "uint256",
          "name": "",
          "type": "uint256"
        }
      ],
      "stateMutability": "nonpayable",
      "type": "function"
    },
    {
      "inputs": [
        {
          "internalType": "address",
          "name": "src",
          "type": "address"
        },
        {
          "internalType": "address",
          "name": "dst",
          "type": "address"
        },
        {
          "internalType": "uint256",
          "name": "amount",
          "type": "uint256"
        }
      ],
      "name": "requestQuoteAndFulfillOnOracleExpense",
      "outputs": [],
      "stateMutability": "nonpayable",
      "type": "function"
    },
    {
      "inputs": [
        {
          "internalType": "address",
          "name": "src",
          "type": "address"
        },
        {
          "internalType": "address",
          "name": "dst",
          "type": "address"
        },
        {
          "internalType": "uint256",
          "name": "amount",
          "type": "uint256"
        },
        {
          "internalType": "uint8",
          "name": "slippage",
          "type": "uint8"
        }
      ],
      "name": "requestSwap",
      "outputs": [],
      "stateMutability": "payable",
      "type": "function"
    },
    {
      "inputs": [
        {
          "internalType": "address",
          "name": "src",
          "type": "address"
        },
        {
          "internalType": "address",
          "name": "dst",
          "type": "address"
        },
        {
          "internalType": "uint256",
          "name": "amount",
          "type": "uint256"
        },
        {
          "internalType": "uint8",
          "name": "slippage",
          "type": "uint8"
        }
      ],
      "name": "requestSwapAndFulfillOnOracleExpense",
      "outputs": [],
      "stateMutability": "payable",
      "type": "function"
    },
    {
      "inputs": [
        {
          "internalType": "bytes32",
          "name": "role",
          "type": "bytes32"
        },
        {
          "internalType": "address",
          "name": "account",
          "type": "address"
        }
      ],
      "name": "revokeRole",
      "outputs": [],
      "stateMutability": "nonpayable",
      "type": "function"
    },
    {
      "inputs": [
        {
          "internalType": "address",
          "name": "_emergencySwapHelper",
          "type": "address"
        }
      ],
      "name": "setEmergencySwapHelper",
      "outputs": [],
      "stateMutability": "nonpayable",
      "type": "function"
    },
    {
      "inputs": [
        {
          "internalType": "enum IOraclizedSwapHelper.JobPurpose",
          "name": "_purpose",
          "type": "uint8"
        },
        {
          "internalType": "uint256",
          "name": "_feeInHundredthsOfLink",
          "type": "uint256"
        }
      ],
      "name": "setFeeInHundredthsOfLink",
      "outputs": [],
      "stateMutability": "nonpayable",
      "type": "function"
    },
    {
      "inputs": [
        {
          "internalType": "enum IOraclizedSwapHelper.JobPurpose",
          "name": "_purpose",
          "type": "uint8"
        },
        {
          "components": [
            {
              "internalType": "bytes32",
              "name": "jobId",
              "type": "bytes32"
            },
            {
              "internalType": "uint256",
              "name": "jobFeeInJuels",
              "type": "uint256"
            }
          ],
          "internalType": "struct IOraclizedSwapHelper.JobInfo",
          "name": "_info",
          "type": "tuple"
        }
      ],
      "name": "setJobInfo",
      "outputs": [],
      "stateMutability": "nonpayable",
      "type": "function"
    },
    {
      "inputs": [
        {
          "internalType": "address",
          "name": "_oracleAddress",
          "type": "address"
        }
      ],
      "name": "setOracleAddress",
      "outputs": [],
      "stateMutability": "nonpayable",
      "type": "function"
    },
    {
      "inputs": [
        {
          "internalType": "uint256",
          "name": "toAmount",
          "type": "uint256"
        }
      ],
      "name": "strategistFulfillQuote",
      "outputs": [],
      "stateMutability": "nonpayable",
      "type": "function"
    },
    {
      "inputs": [
        {
          "internalType": "bytes",
          "name": "_swapCalldata",
          "type": "bytes"
        }
      ],
      "name": "strategistFulfillSwap",
      "outputs": [],
      "stateMutability": "payable",
      "type": "function"
    },
    {
      "inputs": [
        {
          "internalType": "uint256",
          "name": "subscriberIdx",
          "type": "uint256"
        }
      ],
      "name": "subscriberAt",
      "outputs": [
        {
          "internalType": "address",
          "name": "",
          "type": "address"
        }
      ],
      "stateMutability": "view",
      "type": "function"
    },
    {
      "inputs": [],
      "name": "subscribersLength",
      "outputs": [
        {
          "internalType": "uint256",
          "name": "",
          "type": "uint256"
        }
      ],
      "stateMutability": "view",
      "type": "function"
    },
    {
      "inputs": [
        {
          "internalType": "bytes4",
          "name": "interfaceId",
          "type": "bytes4"
        }
      ],
      "name": "supportsInterface",
      "outputs": [
        {
          "internalType": "bool",
          "name": "",
          "type": "bool"
        }
      ],
      "stateMutability": "view",
      "type": "function"
    },
    {
      "inputs": [],
      "name": "swapBuffer",
      "outputs": [
        {
          "internalType": "address",
          "name": "srcToken",
          "type": "address"
        },
        {
          "internalType": "address",
          "name": "dstToken",
          "type": "address"
        },
        {
          "internalType": "uint256",
          "name": "inAmount",
          "type": "uint256"
        }
      ],
      "stateMutability": "view",
      "type": "function"
    },
    {
      "inputs": [],
      "name": "withdrawLink",
      "outputs": [],
      "stateMutability": "nonpayable",
      "type": "function"
    },
    {
      "stateMutability": "payable",
      "type": "receive"
    }
  ],
  "bytecode": "0x60a060405260016005553480156200001657600080fd5b506040516200475c3803806200475c83398101604081905262000039916200074c565b620000546000805160206200471c83398151915288620001a7565b620000807f93627969d6ba3f2118f574a00f8d1c7fed4282f3728a455e8b3c867b1a1a212b88620001a7565b6200009b6000805160206200473c83398151915288620001a7565b600380546001600160a01b0319166001600160a01b038716179055620000c18462000230565b620000ee6000604051806040016040528085620000de906200083d565b815260006020909101526200027a565b620000fb60008a620002d2565b620001186001604051806040016040528086620000de906200083d565b62000125600189620002d2565b6001600160a01b03861660805260005b81518160ff1610156200019757620001826000805160206200473c833981519152838360ff16815181106200016e576200016e62000865565b6020026020010151620001a760201b60201c565b806200018e8162000891565b91505062000135565b50505050505050505050620009e4565b620001b3828262000341565b6200022c576000828152602081815260408083206001600160a01b03851684529091529020805460ff19166001179055620001eb3390565b6001600160a01b0316816001600160a01b0316837f2f8788117e7eff1d82e926ec794901d17c78024a50270940304540a733656f0d60405160405180910390a45b5050565b6000805160206200471c8339815191526200024b816200036c565b600780546001600160a01b0384166001600160a01b031991821681179092556004805490911690911790555050565b6000805160206200471c83398151915262000295816200036c565b8160116000856001811115620002af57620002af620008b3565b815260208082019290925260400160002082518155910151600190910155505050565b6000805160206200471c833981519152620002ed816200036c565b606462000303670de0b6b3a764000084620008c9565b6200030f9190620008e3565b60116000856001811115620003285762000328620008b3565b8152602081019190915260400160002060010155505050565b6000828152602081815260408083206001600160a01b038516845290915290205460ff165b92915050565b6200037881336200037b565b50565b62000387828262000341565b6200022c576200039781620003e8565b620003a4836020620003fb565b604051602001620003b792919062000906565b60408051601f198184030181529082905262461bcd60e51b8252620003df916004016200097f565b60405180910390fd5b6060620003666001600160a01b03831660145b606060006200040c836002620008c9565b62000419906002620009b4565b6001600160401b03811115620004335762000433620005d8565b6040519080825280601f01601f1916602001820160405280156200045e576020820181803683370190505b509050600360fc1b816000815181106200047c576200047c62000865565b60200101906001600160f81b031916908160001a905350600f60fb1b81600181518110620004ae57620004ae62000865565b60200101906001600160f81b031916908160001a9053506000620004d4846002620008c9565b620004e1906001620009b4565b90505b600181111562000563576f181899199a1a9b1b9c1cb0b131b232b360811b85600f166010811062000519576200051962000865565b1a60f81b82828151811062000532576200053262000865565b60200101906001600160f81b031916908160001a90535060049490941c936200055b81620009ca565b9050620004e4565b508315620005b45760405162461bcd60e51b815260206004820181905260248201527f537472696e67733a20686578206c656e67746820696e73756666696369656e746044820152606401620003df565b9392505050565b80516001600160a01b0381168114620005d357600080fd5b919050565b634e487b7160e01b600052604160045260246000fd5b604051601f8201601f191681016001600160401b0381118282101715620006195762000619620005d8565b604052919050565b60005b838110156200063e57818101518382015260200162000624565b50506000910152565b600082601f8301126200065957600080fd5b81516001600160401b03811115620006755762000675620005d8565b6200068a601f8201601f1916602001620005ee565b818152846020838601011115620006a057600080fd5b620006b382602083016020870162000621565b949350505050565b600082601f830112620006cd57600080fd5b815160206001600160401b03821115620006eb57620006eb620005d8565b8160051b620006fc828201620005ee565b92835284810182019282810190878511156200071757600080fd5b83870192505b8483101562000741576200073183620005bb565b825291830191908301906200071d565b979650505050505050565b60008060008060008060008060006101208a8c0312156200076c57600080fd5b8951985060208a015197506200078560408b01620005bb565b96506200079560608b01620005bb565b9550620007a560808b01620005bb565b9450620007b560a08b01620005bb565b60c08b01519094506001600160401b0380821115620007d357600080fd5b620007e18d838e0162000647565b945060e08c0151915080821115620007f857600080fd5b620008068d838e0162000647565b93506101008c01519150808211156200081e57600080fd5b506200082d8c828d01620006bb565b9150509295985092959850929598565b805160208083015191908110156200085f576000198160200360031b1b821691505b50919050565b634e487b7160e01b600052603260045260246000fd5b634e487b7160e01b600052601160045260246000fd5b600060ff821660ff8103620008aa57620008aa6200087b565b60010192915050565b634e487b7160e01b600052602160045260246000fd5b80820281158282048414176200036657620003666200087b565b6000826200090157634e487b7160e01b600052601260045260246000fd5b500490565b7f416363657373436f6e74726f6c3a206163636f756e74200000000000000000008152600083516200094081601785016020880162000621565b7001034b99036b4b9b9b4b733903937b6329607d1b60179184019182015283516200097381602884016020880162000621565b01602801949350505050565b6020815260008251806020840152620009a081604085016020870162000621565b601f01601f19169190910160400192915050565b808201808211156200036657620003666200087b565b600081620009dc57620009dc6200087b565b506000190190565b608051613d0062000a1c600039600081816107e5015281816116ee01528181611781015281816119a30152611a640152613d006000f3fe6080604052600436106101fa5760003560e01c8062ede6671461020657806301a76f591461022857806301ffc9a71461023b57806302458ad81461027057806310cabd1d146102905780631a5b4207146102a3578063248a9ca3146102d15780632cda2346146102f15780632f2ff15d1461031157806336568abe146103315780634ab5c503146103515780634c69c00f146103715780634d1dde7b146103915780634e0c6133146103b15780634e22e31e146103d357806350c284b3146103f3578063627c34ad1461041357806366b8455b146104335780636ccf5b011461044857806381777a3d146104755780638dc654a2146104ef57806391d148541461050457806394555d1a14610524578063a217fddf14610544578063a378a32414610559578063a74d01d41461057b578063a89ae4ba1461059b578063aaeafd56146105bb578063ab3c322d146105e3578063b18b78dd14610602578063b6761cb814610617578063be555a8014610637578063c0d2e37f14610657578063c7fd696d14610671578063cacfacf414610691578063d547741f146106b1578063d9ff478f146106d1578063dc39b19a1461070b578063e05d6bf214610720578063e0def6a714610742578063e75d763f14610762578063eaad47b2146107ab578063f09922ff146107c0578063fcdfd946146107d357600080fd5b3661020157005b600080fd5b34801561021257600080fd5b50610226610221366004612fdc565b610807565b005b6102266102363660046130cb565b6109b4565b34801561024757600080fd5b5061025b6102563660046130ff565b610a35565b60405190151581526020015b60405180910390f35b34801561027c57600080fd5b5061022661028b36600461311a565b610a6c565b61022661029e366004613171565b610b29565b3480156102af57600080fd5b506102c36102be3660046131b3565b610b66565b604051908152602001610267565b3480156102dd57600080fd5b506102c36102ec3660046131ef565b610ba9565b3480156102fd57600080fd5b5061022661030c366004613208565b610bbe565b34801561031d57600080fd5b5061022661032c366004613223565b610bf9565b34801561033d57600080fd5b5061022661034c366004613223565b610c1a565b34801561035d57600080fd5b5061022661036c36600461325e565b610c98565b34801561037d57600080fd5b5061022661038c366004613208565b610cfd565b34801561039d57600080fd5b506102266103ac3660046131b3565b610d43565b3480156103bd57600080fd5b506102c3600080516020613cab83398151915281565b3480156103df57600080fd5b506102266103ee366004613288565b610d74565b3480156103ff57600080fd5b5061022661040e3660046131ef565b610e0f565b34801561041f57600080fd5b5061022661042e366004613208565b610e5f565b34801561043f57600080fd5b506102c3610e9f565b34801561045457600080fd5b506104686104633660046131ef565b610eb0565b60405161026791906132aa565b34801561048157600080fd5b50604080516060810182526009546001600160a01b039081168252600a54166020820152600b5491810191909152600c546104ba919082565b6040805183516001600160a01b0390811682526020808601519091169082015292810151908301526060820152608001610267565b3480156104fb57600080fd5b50610226610ebd565b34801561051057600080fd5b5061025b61051f366004613223565b610fe5565b34801561053057600080fd5b5061022661053f366004613208565b61100e565b34801561055057600080fd5b506102c3600081565b34801561056557600080fd5b506102c3600080516020613c4b83398151915281565b34801561058757600080fd5b50610226610596366004613288565b61104e565b3480156105a757600080fd5b50600754610468906001600160a01b031681565b3480156105c757600080fd5b5061046873eeeeeeeeeeeeeeeeeeeeeeeeeeeeeeeeeeeeeeee81565b3480156105ef57600080fd5b5060105461025b90610100900460ff1681565b34801561060e57600080fd5b506104686110dd565b34801561062357600080fd5b506102c36106323660046132be565b611108565b34801561064357600080fd5b506102266106523660046132d9565b611172565b34801561066357600080fd5b5060105461025b9060ff1681565b34801561067d57600080fd5b5061022661068c36600461334b565b6111c4565b34801561069d57600080fd5b506102266106ac36600461311a565b611393565b3480156106bd57600080fd5b506102266106cc366004613223565b611457565b3480156106dd57600080fd5b50600d54600e54600f546106fc926001600160a01b0390811692169083565b604051610267939291906133a9565b34801561071757600080fd5b50610226611473565b34801561072c57600080fd5b506102c3600080516020613b9d83398151915281565b34801561074e57600080fd5b50600854610468906001600160a01b031681565b34801561076e57600080fd5b5061079661077d3660046131ef565b6011602052600090815260409020805460019091015482565b60408051928352602083019190915201610267565b3480156107b757600080fd5b506102266114c9565b6102266107ce366004613171565b611519565b3480156107df57600080fd5b506104687f000000000000000000000000000000000000000000000000000000000000000081565b33301461082757604051635c39d81560e01b815260040160405180910390fd5b6000610849601182805b8152602001908152602001600020600001548361154e565b9050610899604051806040016040528060068152602001651b595d1a1bd960d21b8152506040518060400160405280600381526020016211d15560ea1b815250836115729092919063ffffffff16565b6108fd604051806040016040528060038152602001621d5c9b60ea1b8152506108c187611590565b6108ca87611590565b6108d3876115a6565b6040516020016108e593929190613423565b60408051601f19818403018152919052839190611572565b6109566040518060400160405280600781526020016618dbdb9d1858dd60ca1b8152506040518060400160405280600d81526020016c6c6f6375732d66696e616e636560981b815250836115729092919063ffffffff16565b600980546001600160a01b038088166001600160a01b031992831617909255600a805492871692909116919091179055600b8390556109ac8160116000805b815260200190815260200160002060010154611638565b505050505050565b600080516020613c4b8339815191526109cc81611659565b6010805460ff1916905560126109e28382613533565b50600d54600f546109fd916001600160a01b03169033611666565b610a056118e4565b60015b6040517ffc252eeb655ad1aa88173ff876f64057c196504c7d3819259257f95c7f05b71090600090a25050565b60006001600160e01b03198216637965db0b60e01b1480610a6657506301ffc9a760e01b6001600160e01b03198316145b92915050565b60008281526006602052604090205482906001600160a01b03163314610aad5760405162461bcd60e51b8152600401610aa4906135f2565b60405180910390fd5b60008181526006602052604080822080546001600160a01b0319169055518291600080516020613c8b83398151915291a26012610aea8382613533565b506010805460ff19166001179055604051610b0690839061363a565b60405190819003812090600080516020613c6b83398151915290600090a2505050565b600080516020613cab833981519152610b4181611659565b6010805460ff19169055610b5f858585856332b3eb3d60e21b611add565b5050505050565b6000600080516020613b9d833981519152610b8081611659565b6010805461ff0019169055610b9e858585632711718f60e11b611d8a565b506000949350505050565b60009081526020819052604090206001015490565b600080516020613c4b833981519152610bd681611659565b50600880546001600160a01b0319166001600160a01b0392909216919091179055565b610c0282610ba9565b610c0b81611659565b610c158383611f9e565b505050565b6001600160a01b0381163314610c8a5760405162461bcd60e51b815260206004820152602f60248201527f416363657373436f6e74726f6c3a2063616e206f6e6c792072656e6f756e636560448201526e103937b632b9903337b91039b2b63360891b6064820152608401610aa4565b610c948282612022565b5050565b600080516020613c4b833981519152610cb081611659565b6064610cc4670de0b6b3a76400008461366c565b610cce9190613699565b60116000856001811115610ce457610ce46133cd565b8152602081019190915260400160002060010155505050565b600080516020613c4b833981519152610d1581611659565b50600780546001600160a01b03929092166001600160a01b0319928316811790915560048054909216179055565b600080516020613b9d833981519152610d5b81611659565b610d6e8484846329d3407560e21b611d8a565b50505050565b60008281526006602052604090205482906001600160a01b03163314610dac5760405162461bcd60e51b8152600401610aa4906135f2565b60008181526006602052604080822080546001600160a01b0319169055518291600080516020613c8b83398151915291a2600c8290556010805461ff0019166101001790556040518290600080516020613bbd83398151915290600090a2505050565b600080516020613c4b833981519152610e2781611659565b6010805461ff0019169055600c8290556040518290600080516020613bbd83398151915290600090a2610e58612087565b6000610a08565b600080516020613c4b833981519152610e7781611659565b610e8260138361217d565b610c94576040516306e971bb60e31b815260040160405180910390fd5b6000610eab6013612192565b905090565b6000610a6660138361219c565b600080516020613c4b833981519152610ed581611659565b6000610ee96003546001600160a01b031690565b90506001600160a01b03811663a9059cbb336040516370a0823160e01b81526001600160a01b038516906370a0823190610f279030906004016132aa565b602060405180830381865afa158015610f44573d6000803e3d6000fd5b505050506040513d601f19601f82011682018060405250810190610f6891906136ad565b6040518363ffffffff1660e01b8152600401610f859291906136c6565b6020604051808303816000875af1158015610fa4573d6000803e3d6000fd5b505050506040513d601f19601f82011682018060405250810190610fc891906136df565b610c94576040516313ff771f60e21b815260040160405180910390fd5b6000918252602082815260408084206001600160a01b0393909316845291905290205460ff1690565b600080516020613c4b83398151915261102681611659565b6110316013836121a8565b610c94576040516305c46f6760e31b815260040160405180910390fd5b60008281526006602052604090205482906001600160a01b031633146110865760405162461bcd60e51b8152600401610aa4906135f2565b60008181526006602052604080822080546001600160a01b0319169055518291600080516020613c8b83398151915291a2600c8290556040518290600080516020613bbd83398151915290600090a2610c15612087565b6000600080516020613c4b8339815191526110f781611659565b50506007546001600160a01b031690565b6000600080516020613c4b83398151915261112281611659565b670de0b6b3a764000060116000856001811115611141576111416133cd565b815260200190815260200160002060010154606461115f919061366c565b6111699190613699565b91505b50919050565b600080516020613c4b83398151915261118a81611659565b81601160008560018111156111a1576111a16133cd565b815260208082019290925260400160002082518155910151600190910155505050565b3330146111e457604051635c39d81560e01b815260040160405180910390fd5b60328260ff161115611209576040516336ee37fb60e21b815260040160405180910390fd5b60006112186011826001610831565b9050611268604051806040016040528060068152602001651b595d1a1bd960d21b8152506040518060400160405280600381526020016211d15560ea1b815250836115729092919063ffffffff16565b6112d5604051806040016040528060038152602001621d5c9b60ea1b81525061129088611590565b61129988611590565b6112a2886115a6565b6112ab30611590565b6112b78960ff166115a6565b6112c033611590565b6040516020016108e596959493929190613701565b61132e6040518060400160405280600781526020016618dbdb9d1858dd60ca1b8152506040518060400160405280600d81526020016c6c6f6375732d66696e616e636560981b815250836115729092919063ffffffff16565b604080516060810182526001600160a01b038089168083529088166020830181905291909201869052600d80546001600160a01b03199081169093179055600e8054909216179055600f84905561138a81601160006001610995565b50505050505050565b60008281526006602052604090205482906001600160a01b031633146113cb5760405162461bcd60e51b8152600401610aa4906135f2565b60008181526006602052604080822080546001600160a01b0319169055518291600080516020613c8b83398151915291a260126114088382613533565b5081604051611417919061363a565b60405190819003812090600080516020613c6b83398151915290600090a2600d54600f5461144f916001600160a01b03169033611666565b610c156118e4565b61146082610ba9565b61146981611659565b610c158383612022565b600080516020613b9d83398151915261148b81611659565b601054610100900460ff166114b357604051636cb45f1560e11b815260040160405180910390fd5b6114bb612087565b506010805461ff0019169055565b600080516020613cab8339815191526114e181611659565b60105460ff1661150457604051637d683d5360e01b815260040160405180910390fd5b61150c6118e4565b506010805460ff19169055565b600080516020613cab83398151915261153181611659565b6010805460ff19169055610b5f858585856248b15b60e31b611add565b611556612f59565b61155e612f59565b61156a818530866121bd565b949350505050565b608083015161158190836121fa565b6080830151610c1590826121fa565b6060610a666001600160a01b0383166014612211565b606060006115b3836123ac565b60010190506000816001600160401b038111156115d2576115d2613029565b6040519080825280601f01601f1916602001820160405280156115fc576020820181803683370190505b5090508181016020015b600019016f181899199a1a9b1b9c1cb0b131b232b360811b600a86061a8153600a850494508461160657509392505050565b600454600090611652906001600160a01b03168484612482565b9392505050565b6116638133612513565b50565b8273eeeeeeeeeeeeeeeeeeeeeeeeeeeeeeeeeeeeeeed196001600160a01b038216016116b1578234146116ac57604051630dd86f5360e11b815260040160405180910390fd5b610d6e565b6116c66001600160a01b03821683308661256c565b604051636eb1769f60e11b815283906001600160a01b0383169063dd62ed3e906117169030907f000000000000000000000000000000000000000000000000000000000000000090600401613828565b602060405180830381865afa158015611733573d6000803e3d6000fd5b505050506040513d601f19601f8201168201806040525081019061175791906136ad565b10156117f25760405163095ea7b360e01b81526001600160a01b0382169063095ea7b3906117ad907f000000000000000000000000000000000000000000000000000000000000000090600019906004016136c6565b6020604051808303816000875af11580156117cc573d6000803e3d6000fd5b505050506040513d601f19601f820116820180604052508101906117f091906136df565b505b600854604051636eb1769f60e11b81526001600160a01b039182169185919084169063dd62ed3e9061182a9030908690600401613828565b602060405180830381865afa158015611847573d6000803e3d6000fd5b505050506040513d601f19601f8201168201806040525081019061186b91906136ad565b1015610b5f5760405163095ea7b360e01b81526001600160a01b0383169063095ea7b3906118a1908490600019906004016136c6565b6020604051808303816000875af11580156118c0573d6000803e3d6000fd5b505050506040513d601f19601f820116820180604052508101906109ac91906136df565b600d546001600160a01b031673eeeeeeeeeeeeeeeeeeeeeeeeeeeeeeeeeeeeeeed19016119d4576119ce6012805461191b906134b9565b80601f0160208091040260200160405190810160405280929190818152602001828054611947906134b9565b80156119945780601f1061196957610100808354040283529160200191611994565b820191906000526020600020905b81548152906001019060200180831161197757829003601f168201915b5050600f546001600160a01b037f0000000000000000000000000000000000000000000000000000000000000000169493509150506125c4565b50611a9c565b611a9a601280546119e4906134b9565b80601f0160208091040260200160405190810160405280929190818152602001828054611a10906134b9565b8015611a5d5780601f10611a3257610100808354040283529160200191611a5d565b820191906000526020600020905b815481529060010190602001808311611a4057829003601f168201915b50505050507f00000000000000000000000000000000000000000000000000000000000000006001600160a01b03166125ea90919063ffffffff16565b505b600d604051611aab9190613868565b604051908190038120907f098d3af501ac55740f44cc3d45b38cd162e715bd76ae2ec1704db9bcf19df52890600090a2565b611ae8858433611666565b60405163c7fd696d60e01b81526001600160a01b038087166004830152851660248201526044810184905260ff831660648201526001600160e01b031982166084820152309063c7fd696d9060a401600060405180830381600087803b158015611b5157600080fd5b505af1925050508015611b62575060015b611d19573d808015611b90576040519150601f19603f3d011682016040523d82523d6000602084013e611b95565b606091505b5073eeeeeeeeeeeeeeeeeeeeeeeeeeeeeeeeeeeeeeed196001600160a01b03871601611c2a5760085460405163f09922ff60e01b81526001600160a01b039091169063f09922ff903490611bf3908a908a908a908a9060040161387a565b6000604051808303818588803b158015611c0c57600080fd5b505af1158015611c20573d6000803e3d6000fd5b5050505050611c93565b60085460405163f09922ff60e01b81526001600160a01b039091169063f09922ff90611c6090899089908990899060040161387a565b600060405180830381600087803b158015611c7a57600080fd5b505af1158015611c8e573d6000803e3d6000fd5b505050505b80604051611ca1919061363a565b60405180910390206040518060600160405280886001600160a01b03168152602001876001600160a01b0316815260200186815250604051611ce391906138a5565b604051908190038120907f42f6a3dc3767dfc7a95fd1364bc0520fbdf9040c2ad1d9f7ec207d6e21c15f4190600090a350610b5f565b6040518060600160405280866001600160a01b03168152602001856001600160a01b0316815260200184815250604051611d5391906138a5565b604051908190038120907f1804ee9174bb7080e7be8160b7a8228d4546814b0152cd7880b26e91a63d980f90600090a25050505050565b60405162ede66760e01b81526001600160a01b03808616600483015284166024820152604481018390526001600160e01b031982166064820152309062ede66790608401600060405180830381600087803b158015611de857600080fd5b505af1925050508015611df9575060015b611f2e573d808015611e27576040519150601f19603f3d011682016040523d82523d6000602084013e611e2c565b606091505b50604051631a5b420760e01b60208201526001600160601b0319606087811b8216602484015286901b166038820152604c8101849052600090611e8e90606c0160408051601f198184030181529190526008546001600160a01b03169061262e565b905080806020019051810190611ea491906136ad565b600c55604051611eb590839061363a565b60405180910390206040518060600160405280886001600160a01b03168152602001876001600160a01b0316815260200186815250604051611ef791906138a5565b604051908190038120907f6f5bbc1fe53f315ff6f8dfb22daa56c7bf89b1628da3c20d3df48580fa565f2190600090a35050610d6e565b6040518060600160405280856001600160a01b03168152602001846001600160a01b0316815260200183815250604051611f6891906138a5565b604051908190038120907fa734ecd976252ef2be24e3baca9db36e3d2b1fbb6fa53e193ac86898503d5b4b90600090a250505050565b611fa88282610fe5565b610c94576000828152602081815260408083206001600160a01b03851684529091529020805460ff19166001179055611fde3390565b6001600160a01b0316816001600160a01b0316837f2f8788117e7eff1d82e926ec794901d17c78024a50270940304540a733656f0d60405160405180910390a45050565b61202c8282610fe5565b15610c94576000828152602081815260408083206001600160a01b0385168085529252808320805460ff1916905551339285917ff6391f5c32d9c69d2a47ea670b442974b53935d1edc7fd64eb21e047a839171b9190a45050565b60006120936013612192565b905060005b8181101561213a576120ab60138261219c565b600954600a54600c54600b5460405163782b6fff60e11b81526001600160a01b03948516600482015292841660248401526044830191909152606482015291169063f056dffe90608401600060405180830381600087803b15801561210f57600080fd5b505af1158015612123573d6000803e3d6000fd5b505050508080612132906138d4565b915050612098565b50600960405161214a91906138ed565b604051908190038120907fa8e5b3954602a050e4fd58bfdb4679c92cdf00addead6c0178ced776602ed45290600090a250565b6000611652836001600160a01b038416612653565b6000610a66825490565b60006116528383612746565b6000611652836001600160a01b038416612770565b6121c5612f59565b6121d585608001516101006127bf565b50509183526001600160a01b031660208301526001600160e01b031916604082015290565b6122078260038351612817565b610c15828261291e565b6060600061222083600261366c565b61222b906002613909565b6001600160401b0381111561224257612242613029565b6040519080825280601f01601f19166020018201604052801561226c576020820181803683370190505b509050600360fc1b816000815181106122875761228761391c565b60200101906001600160f81b031916908160001a905350600f60fb1b816001815181106122b6576122b661391c565b60200101906001600160f81b031916908160001a90535060006122da84600261366c565b6122e5906001613909565b90505b600181111561235d576f181899199a1a9b1b9c1cb0b131b232b360811b85600f16601081106123195761231961391c565b1a60f81b82828151811061232f5761232f61391c565b60200101906001600160f81b031916908160001a90535060049490941c9361235681613932565b90506122e8565b5083156116525760405162461bcd60e51b815260206004820181905260248201527f537472696e67733a20686578206c656e67746820696e73756666696369656e746044820152606401610aa4565b60008072184f03e93ff9f4daa797ed6e38ed64bf6a1f0160401b83106123eb5772184f03e93ff9f4daa797ed6e38ed64bf6a1f0160401b830492506040015b6904ee2d6d415b85acef8160201b8310612415576904ee2d6d415b85acef8160201b830492506020015b662386f26fc10000831061243357662386f26fc10000830492506010015b6305f5e100831061244b576305f5e100830492506008015b612710831061245f57612710830492506004015b60648310612471576064830492506002015b600a8310610a665760010192915050565b600554600090612493816001613909565b60055583516040808601516080870151519151600093633c6d41b960e01b936124c9938693849392899160029190602401613975565b60408051601f198184030181529190526020810180516001600160e01b03166001600160e01b031990931692909217909152905061250986838684612938565b9695505050505050565b61251d8282610fe5565b610c945761252a81611590565b612535836020612211565b6040516020016125469291906139bd565b60408051601f198184030181529082905262461bcd60e51b8252610aa491600401613a2c565b610d6e846323b872dd60e01b85858560405160240161258d939291906133a9565b60408051601f198184030181529190526020810180516001600160e01b03166001600160e01b031990931692909217909152612a91565b606061156a848484604051806060016040528060298152602001613bdd60299139612b66565b6060611652838360006040518060400160405280601e81526020017f416464726573733a206c6f772d6c6576656c2063616c6c206661696c65640000815250612b66565b60606116528383604051806060016040528060258152602001613c0660259139612c41565b6000818152600183016020526040812054801561273c576000612677600183613a3f565b855490915060009061268b90600190613a3f565b90508181146126f05760008660000182815481106126ab576126ab61391c565b90600052602060002001549050808760000184815481106126ce576126ce61391c565b6000918252602080832090910192909255918252600188019052604090208390555b855486908061270157612701613a52565b600190038181906000526020600020016000905590558560010160008681526020019081526020016000206000905560019350505050610a66565b6000915050610a66565b600082600001828154811061275d5761275d61391c565b9060005260206000200154905092915050565b60008181526001830160205260408120546127b757508154600181810184556000848152602080822090930184905584548482528286019093526040902091909155610a66565b506000610a66565b6127c7612f8e565b6127d2602083613a68565b156127fa576127e2602083613a68565b6127ed906020613a3f565b6127f79083613909565b91505b506020828101829052604080518085526000815290920101905290565b6017816001600160401b03161161283b57610d6e8360e0600585901b168317612caf565b60ff816001600160401b03161161287757612861836018611fe0600586901b1617612caf565b50610d6e836001600160401b0383166001612cc7565b61ffff816001600160401b0316116128b45761289e836019611fe0600586901b1617612caf565b50610d6e836001600160401b0383166002612cc7565b63ffffffff816001600160401b0316116128f3576128dd83601a611fe0600586901b1617612caf565b50610d6e836001600160401b0383166004612cc7565b61290883601b611fe0600586901b1617612caf565b50610d6e836001600160401b0383166008612cc7565b612926612f8e565b61165283846000015151848551612ce0565b6040516001600160601b03193060601b1660208201526034810184905260009060540160408051808303601f1901815282825280516020918201206000818152600690925291812080546001600160a01b0319166001600160a01b038a1617905590925082917fb5e6e01e79f91267dc17b4e6314d5d4d03593d2ceee0fbb452b750bd70ea5af99190a2600354604051630200057560e51b81526001600160a01b0390911690634000aea0906129f690889087908790600401613a7c565b6020604051808303816000875af1158015612a15573d6000803e3d6000fd5b505050506040513d601f19601f82011682018060405250810190612a3991906136df565b61156a5760405162461bcd60e51b815260206004820152602360248201527f756e61626c6520746f207472616e73666572416e6443616c6c20746f206f7261604482015262636c6560e81b6064820152608401610aa4565b6000612ae6826040518060400160405280602081526020017f5361666545524332303a206c6f772d6c6576656c2063616c6c206661696c6564815250856001600160a01b0316612dbd9092919063ffffffff16565b9050805160001480612b07575080806020019051810190612b0791906136df565b610c155760405162461bcd60e51b815260206004820152602a60248201527f5361666545524332303a204552433230206f7065726174696f6e20646964206e6044820152691bdd081cdd58d8d9595960b21b6064820152608401610aa4565b606082471015612bc75760405162461bcd60e51b815260206004820152602660248201527f416464726573733a20696e73756666696369656e742062616c616e636520666f6044820152651c8818d85b1b60d21b6064820152608401610aa4565b600080866001600160a01b03168587604051612be3919061363a565b60006040518083038185875af1925050503d8060008114612c20576040519150601f19603f3d011682016040523d82523d6000602084013e612c25565b606091505b5091509150612c3687838387612dcc565b979650505050505050565b6060600080856001600160a01b031685604051612c5e919061363a565b600060405180830381855afa9150503d8060008114612c99576040519150601f19603f3d011682016040523d82523d6000602084013e612c9e565b606091505b509150915061250986838387612dcc565b612cb7612f8e565b6116528384600001515184612e45565b612ccf612f8e565b61156a848560000151518585612e93565b612ce8612f8e565b8251821115612cf657600080fd5b6020850151612d058386613909565b1115612d3857612d3885612d2887602001518786612d239190613909565b612f07565b612d3390600261366c565b612f18565b600080865180518760208301019350808887011115612d575787860182525b505050602084015b60208410612d975780518252612d76602083613909565b9150612d83602082613909565b9050612d90602085613a3f565b9350612d5f565b51815160001960208690036101000a019081169019919091161790525083949350505050565b606061156a8484600085612b66565b60608315612e3b578251600003612e34576001600160a01b0385163b612e345760405162461bcd60e51b815260206004820152601d60248201527f416464726573733a2063616c6c20746f206e6f6e2d636f6e74726163740000006044820152606401610aa4565b508161156a565b61156a8383612f2f565b612e4d612f8e565b83602001518310612e6d57612e6d8485602001516002612d33919061366c565b8351805160208583010184815350808503612e89576001810182525b5093949350505050565b612e9b612f8e565b6020850151612eaa8584613909565b1115612ebe57612ebe85612d288685613909565b60006001612ece84610100613b90565b612ed89190613a3f565b9050855183868201018583198251161781525080518487011115612efc5783860181525b509495945050505050565b60008183111561116c575081610a66565b8151612f2483836127bf565b50610d6e838261291e565b815115612f3f5781518083602001fd5b8060405162461bcd60e51b8152600401610aa49190613a2c565b6040805160a081018252600080825260208201819052918101829052606081019190915260808101612f89612f8e565b905290565b604051806040016040528060608152602001600081525090565b80356001600160a01b0381168114612fbf57600080fd5b919050565b80356001600160e01b031981168114612fbf57600080fd5b60008060008060808587031215612ff257600080fd5b612ffb85612fa8565b935061300960208601612fa8565b92506040850135915061301e60608601612fc4565b905092959194509250565b634e487b7160e01b600052604160045260246000fd5b600082601f83011261305057600080fd5b81356001600160401b038082111561306a5761306a613029565b604051601f8301601f19908116603f0116810190828211818310171561309257613092613029565b816040528381528660208588010111156130ab57600080fd5b836020870160208301376000602085830101528094505050505092915050565b6000602082840312156130dd57600080fd5b81356001600160401b038111156130f357600080fd5b61156a8482850161303f565b60006020828403121561311157600080fd5b61165282612fc4565b6000806040838503121561312d57600080fd5b8235915060208301356001600160401b0381111561314a57600080fd5b6131568582860161303f565b9150509250929050565b803560ff81168114612fbf57600080fd5b6000806000806080858703121561318757600080fd5b61319085612fa8565b935061319e60208601612fa8565b92506040850135915061301e60608601613160565b6000806000606084860312156131c857600080fd5b6131d184612fa8565b92506131df60208501612fa8565b9150604084013590509250925092565b60006020828403121561320157600080fd5b5035919050565b60006020828403121561321a57600080fd5b61165282612fa8565b6000806040838503121561323657600080fd5b8235915061324660208401612fa8565b90509250929050565b803560028110612fbf57600080fd5b6000806040838503121561327157600080fd5b61327a8361324f565b946020939093013593505050565b6000806040838503121561329b57600080fd5b50508035926020909101359150565b6001600160a01b0391909116815260200190565b6000602082840312156132d057600080fd5b6116528261324f565b60008082840360608112156132ed57600080fd5b6132f68461324f565b92506040601f198201121561330a57600080fd5b50604080519081016001600160401b038111828210171561332d5761332d613029565b60409081526020858101358352940135938101939093525092909150565b600080600080600060a0868803121561336357600080fd5b61336c86612fa8565b945061337a60208701612fa8565b93506040860135925061338f60608701613160565b915061339d60808701612fc4565b90509295509295909350565b6001600160a01b039384168152919092166020820152604081019190915260600190565b634e487b7160e01b600052602160045260246000fd5b60005b838110156133fe5781810151838201526020016133e6565b50506000910152565b600081516134198185602086016133e3565b9290920192915050565b600080516020613c2b83398151915281526b312f71756f74653f7372633d60a01b60208201526000845161345e81602c8501602089016133e3565b64266473743d60d81b602c9184019182015284516134838160318401602089016133e3565b6726616d6f756e743d60c01b6031929091019182015283516134ac8160398401602088016133e3565b0160390195945050505050565b600181811c908216806134cd57607f821691505b60208210810361116c57634e487b7160e01b600052602260045260246000fd5b601f821115610c1557600081815260208120601f850160051c810160208610156135145750805b601f850160051c820191505b818110156109ac57828155600101613520565b81516001600160401b0381111561354c5761354c613029565b6135608161355a84546134b9565b846134ed565b602080601f831160018114613595576000841561357d5750858301515b600019600386901b1c1916600185901b1785556109ac565b600085815260208120601f198616915b828110156135c4578886015182559484019460019091019084016135a5565b50858210156135e25787850151600019600388901b60f8161c191681555b5050505050600190811b01905550565b60208082526028908201527f536f75726365206d75737420626520746865206f7261636c65206f6620746865604082015267081c995c5d595cdd60c21b606082015260800190565b6000825161364c8184602087016133e3565b9190910192915050565b634e487b7160e01b600052601160045260246000fd5b8082028115828204841417610a6657610a66613656565b634e487b7160e01b600052601260045260246000fd5b6000826136a8576136a8613683565b500490565b6000602082840312156136bf57600080fd5b5051919050565b6001600160a01b03929092168252602082015260400190565b6000602082840312156136f157600080fd5b8151801515811461165257600080fd5b600080516020613c2b83398151915281526a312f737761703f7372633d60a81b60208201526000875161373b81602b850160208c016133e3565b64266473743d60d81b602b918401918201528751613760816030840160208c016133e3565b6726616d6f756e743d60c01b603092909101918201528651613789816038840160208b016133e3565b652666726f6d3d60d01b6038929091019182015285516137b081603e840160208a016133e3565b6926736c6970706167653d60b01b603e929091019182015261381b6137fa6137f46137de6048850189613407565b692672656365697665723d60b01b8152600a0190565b86613407565b742664697361626c65457374696d6174653d7472756560581b815260150190565b9998505050505050505050565b6001600160a01b0392831681529116602082015260400190565b80546001600160a01b039081168352600182015416602083015260020154604090910152565b6138728183613842565b606001919050565b6001600160a01b039485168152929093166020830152604082015260ff909116606082015260800190565b81516001600160a01b039081168252602080840151909116908201526040918201519181019190915260600190565b6000600182016138e6576138e6613656565b5060010190565b6138f78183613842565b60039190910154606082015260800190565b80820180821115610a6657610a66613656565b634e487b7160e01b600052603260045260246000fd5b60008161394157613941613656565b506000190190565b600081518084526139618160208601602086016133e3565b601f01601f19169290920160200192915050565b60018060a01b038816815286602082015285604082015263ffffffff60e01b851660608201528360808201528260a082015260e060c0820152600061381b60e0830184613949565b76020b1b1b2b9b9a1b7b73a3937b61d1030b1b1b7bab73a1604d1b8152600083516139ef8160178501602088016133e3565b7001034b99036b4b9b9b4b733903937b6329607d1b6017918401918201528351613a208160288401602088016133e3565b01602801949350505050565b6020815260006116526020830184613949565b81810381811115610a6657610a66613656565b634e487b7160e01b600052603160045260246000fd5b600082613a7757613a77613683565b500690565b60018060a01b0384168152826020820152606060408201526000613aa36060830184613949565b95945050505050565b600181815b80851115613ae7578160001904821115613acd57613acd613656565b80851615613ada57918102915b93841c9390800290613ab1565b509250929050565b600082613afe57506001610a66565b81613b0b57506000610a66565b8160018114613b215760028114613b2b57613b47565b6001915050610a66565b60ff841115613b3c57613b3c613656565b50506001821b610a66565b5060208310610133831016604e8410600b8410161715613b6a575081810a610a66565b613b748383613aac565b8060001904821115613b8857613b88613656565b029392505050565b60006116528383613aef56fe93627969d6ba3f2118f574a00f8d1c7fed4282f3728a455e8b3c867b1a1a212bb6904e5f1b44229e5609b681fbc2512409afa3e5a9072d0314256c012668dbe4416464726573733a206c6f772d6c6576656c2063616c6c20776974682076616c7565206661696c6564416464726573733a206c6f772d6c6576656c207374617469632063616c6c206661696c656468747470733a2f2f6170692e31696e63682e6465762f737761702f76352e322f17a8e30262c1f919c33056d877a3c22b95c2f5e4dac44683c1c2323cd79fbdb0a6b78fc047486d5add927aa53ba0d4fc8eb23a5811e0052aebeba21469f51df87cc135e0cebb02c3480ae5d74d377283180a2601f8f644edf7987b009316c63afab00a984754950c7187fb98f39da0ae224abbbee017c1699445ad0e19474a4da2646970667358221220b062bf7b74deb3648cb2b06d8183e2804d09f39f7da36b612aea78f101c81e4664736f6c6343000813003317a8e30262c1f919c33056d877a3c22b95c2f5e4dac44683c1c2323cd79fbdb0fab00a984754950c7187fb98f39da0ae224abbbee017c1699445ad0e19474a4d",
  "linkReferences": {},
  "deployedLinkReferences": {}
}