{
  "_format": "hh-sol-artifact-1",
  "contractName": "PearlStrategyLib",
  "sourceName": "contracts/strategies/utils/PearlStrategyLib.sol",
  "abi": [
    {
      "inputs": [],
      "name": "DEFAULT_SLIPPAGE",
      "outputs": [
        {
          "internalType": "uint256",
          "name": "",
          "type": "uint256"
        }
      ],
      "stateMutability": "view",
      "type": "function"
    },
    {
      "inputs": [
        {
          "internalType": "uint256",
          "name": "_pearlAmount",
          "type": "uint256"
        },
        {
          "internalType": "uint256",
          "name": "_wantDecimals",
          "type": "uint256"
        }
      ],
      "name": "pearlToWant",
      "outputs": [
        {
          "internalType": "uint256",
          "name": "",
          "type": "uint256"
        }
      ],
      "stateMutability": "view",
      "type": "function"
    },
    {
      "inputs": [
        {
          "internalType": "uint256",
          "name": "_usdrAmount",
          "type": "uint256"
        },
        {
          "internalType": "uint256",
          "name": "_wantDecimals",
          "type": "uint256"
        }
      ],
      "name": "usdrToWant",
      "outputs": [
        {
          "internalType": "uint256",
          "name": "",
          "type": "uint256"
        }
      ],
      "stateMutability": "view",
      "type": "function"
    }
  ],
  "bytecode": "0x61040e61003a600b82828239805160001a60731461002d57634e487b7160e01b600052600060045260246000fd5b30600052607381538281f3fe730000000000000000000000000000000000000000301460806040526004361061004b5760003560e01c80638d6296ee14610050578063a879851014610075578063aaed66e91461007e575b600080fd5b61006361005e36600461021f565b610091565b60405190815260200160405180910390f35b61006361264881565b61006361008c36600461021f565b61011c565b6000610113837340379a439d4f6795b6fc9aa5687db461677a2dba6001600160a01b031663313ce5676040518163ffffffff1660e01b8152600401602060405180830381865afa1580156100e9573d6000803e3d6000fd5b505050506040513d601f19601f8201168201806040525081019061010d9190610241565b846101c3565b90505b92915050565b6040516328bd9fc160e11b8152737238390d5f6f64e67c3211c343a410e2a3dec142600482015260248101839052600090819073f68c20d6c50706f6c6bd8ee184382518c93b368c9063517b3f8290604401602060405180830381865afa15801561018b573d6000803e3d6000fd5b505050506040513d601f19601f820116820180604052508101906101af9190610264565b90506101bb8184610091565b949350505050565b60008260ff168260ff1611156101f9576101dd8383610293565b6101e890600a610390565b6101f2908561039f565b9050610218565b6102038284610293565b61020e90600a610390565b6101f290856103b6565b9392505050565b6000806040838503121561023257600080fd5b50508035926020909101359150565b60006020828403121561025357600080fd5b815160ff8116811461021857600080fd5b60006020828403121561027657600080fd5b5051919050565b634e487b7160e01b600052601160045260246000fd5b60ff82811682821603908111156101165761011661027d565b600181815b808511156102e75781600019048211156102cd576102cd61027d565b808516156102da57918102915b93841c93908002906102b1565b509250929050565b6000826102fe57506001610116565b8161030b57506000610116565b8160018114610321576002811461032b57610347565b6001915050610116565b60ff84111561033c5761033c61027d565b50506001821b610116565b5060208310610133831016604e8410600b841016171561036a575081810a610116565b61037483836102ac565b80600019048211156103885761038861027d565b029392505050565b600061011360ff8416836102ef565b80820281158282048414176101165761011661027d565b6000826103d357634e487b7160e01b600052601260045260246000fd5b50049056fea2646970667358221220d529c6c29bc6a42988581eacdd5522f4c9fdc164aa11c38e0ded7763dd70c8f464736f6c63430008130033",
  "linkReferences": {},
  "deployedLinkReferences": {}
}