{
  "_format": "hh-sol-artifact-1",
  "contractName": "PearlStrategyLib",
  "sourceName": "contracts/strategies/utils/PearlStrategyLib.sol",
  "abi": [
    {
      "inputs": [],
      "name": "DEFAULT_SLIPPAGE",
      "outputs": [
        {
          "internalType": "uint256",
          "name": "",
          "type": "uint256"
        }
      ],
      "stateMutability": "view",
      "type": "function"
    },
    {
      "inputs": [],
      "name": "balanceOfLpStaked",
      "outputs": [
        {
          "internalType": "uint256",
          "name": "",
          "type": "uint256"
        }
      ],
      "stateMutability": "view",
      "type": "function"
    },
    {
      "inputs": [],
      "name": "balanceOfPearlRewards",
      "outputs": [
        {
          "internalType": "uint256",
          "name": "",
          "type": "uint256"
        }
      ],
      "stateMutability": "view",
      "type": "function"
    },
    {
      "inputs": [
        {
          "internalType": "uint256",
          "name": "_daiAmount",
          "type": "uint256"
        },
        {
          "internalType": "uint8",
          "name": "_wantDecimals",
          "type": "uint8"
        }
      ],
      "name": "daiToWant",
      "outputs": [
        {
          "internalType": "uint256",
          "name": "",
          "type": "uint256"
        }
      ],
      "stateMutability": "view",
      "type": "function"
    },
    {
      "inputs": [
        {
          "internalType": "uint256",
          "name": "_pearlAmount",
          "type": "uint256"
        },
        {
          "internalType": "uint8",
          "name": "_wantDecimals",
          "type": "uint8"
        }
      ],
      "name": "pearlToWant",
      "outputs": [
        {
          "internalType": "uint256",
          "name": "",
          "type": "uint256"
        }
      ],
      "stateMutability": "view",
      "type": "function"
    },
    {
      "inputs": [
        {
          "internalType": "uint256",
          "name": "_usdrLpAmount",
          "type": "uint256"
        },
        {
          "internalType": "address",
          "name": "_want",
          "type": "address"
        },
        {
          "internalType": "uint8",
          "name": "_wantDecimals",
          "type": "uint8"
        }
      ],
      "name": "usdrLpToWant",
      "outputs": [
        {
          "internalType": "uint256",
          "name": "",
          "type": "uint256"
        }
      ],
      "stateMutability": "view",
      "type": "function"
    },
    {
      "inputs": [
        {
          "internalType": "uint256",
          "name": "_usdrAmount",
          "type": "uint256"
        },
        {
          "internalType": "uint8",
          "name": "_wantDecimals",
          "type": "uint8"
        }
      ],
      "name": "usdrToWant",
      "outputs": [
        {
          "internalType": "uint256",
          "name": "",
          "type": "uint256"
        }
      ],
      "stateMutability": "view",
      "type": "function"
    },
    {
      "inputs": [
        {
          "internalType": "uint256",
          "name": "_wantAmount",
          "type": "uint256"
        },
        {
          "internalType": "address",
          "name": "_want",
          "type": "address"
        },
        {
          "internalType": "uint8",
          "name": "_wantDecimals",
          "type": "uint8"
        }
      ],
      "name": "wantToUsdrLp",
      "outputs": [
        {
          "internalType": "uint256",
          "name": "",
          "type": "uint256"
        }
      ],
      "stateMutability": "view",
      "type": "function"
    }
  ],
  "bytecode": "0x61092861003a600b82828239805160001a60731461002d57634e487b7160e01b600052600060045260246000fd5b30600052607381538281f3fe73000000000000000000000000000000000000000030146080604052600436106100825760003560e01c80631880a3b01461008757806330d15a9d146100ac57806356eb0a61146100bf5780636d0b23ff146100d25780638f4508d0146100e5578063a8798510146100ed578063af8e3954146100f6578063d56739ac14610109575b600080fd5b61009a610095366004610698565b610111565b60405190815260200160405180910390f35b61009a6100ba366004610698565b610323565b61009a6100cd3660046106e6565b6103ef565b61009a6100e03660046106e6565b61047a565b61009a6104d2565b61009a61264881565b61009a6101043660046106e6565b610552565b61009a6105f9565b60008061019f73d17cb0f162f133e339c0bbfc18c36c357e681d6b6001600160a01b031663313ce5676040518163ffffffff1660e01b8152600401602060405180830381865afa158015610169573d6000803e3d6000fd5b505050506040513d601f19601f8201168201806040525081019061018d9190610716565b61019890600a61082d565b8585610323565b90506000610223868573d17cb0f162f133e339c0bbfc18c36c357e681d6b6001600160a01b031663313ce5676040518163ffffffff1660e01b8152600401602060405180830381865afa1580156101fa573d6000803e3d6000fd5b505050506040513d601f19601f8201168201806040525081019061021e9190610716565b610631565b9050600061027e838673d17cb0f162f133e339c0bbfc18c36c357e681d6b6001600160a01b031663313ce5676040518163ffffffff1660e01b8152600401602060405180830381865afa1580156101fa573d6000803e3d6000fd5b90508073d17cb0f162f133e339c0bbfc18c36c357e681d6b6001600160a01b031663313ce5676040518163ffffffff1660e01b8152600401602060405180830381865afa1580156102d3573d6000803e3d6000fd5b505050506040513d601f19601f820116820180604052508101906102f79190610716565b61030290600a61082d565b61030c908461083c565b6103169190610853565b93505050505b9392505050565b6040516310e1b98f60e21b81526001600160a01b03831660048201527340379a439d4f6795b6fc9aa5687db461677a2dba602482015260016044820152606481018490526000908190819073cc25c0fd84737f44a7d38649b69491bbf0c7f08390634386e63c906084016040805180830381865afa1580156103a9573d6000803e3d6000fd5b505050506040513d601f19601f820116820180604052508101906103cd9190610875565b915091506103db818561047a565b6103e59083610899565b9695505050505050565b600061047183738f3cf7ad23cd3cadbd9735aff958023239c6a0636001600160a01b031663313ce5676040518163ffffffff1660e01b8152600401602060405180830381865afa158015610447573d6000803e3d6000fd5b505050506040513d601f19601f8201168201806040525081019061046b9190610716565b84610631565b90505b92915050565b6000610471837340379a439d4f6795b6fc9aa5687db461677a2dba6001600160a01b031663313ce5676040518163ffffffff1660e01b8152600401602060405180830381865afa158015610447573d6000803e3d6000fd5b6040516370a0823160e01b81526000907397bd59a8202f8263c2ec39cf6cf6b438d0b45876906370a082319061050c9030906004016108ac565b602060405180830381865afa158015610529573d6000803e3d6000fd5b505050506040513d601f19601f8201168201806040525081019061054d91906108c0565b905090565b6040516328bd9fc160e11b8152737238390d5f6f64e67c3211c343a410e2a3dec142600482015260248101839052600090819073f68c20d6c50706f6c6bd8ee184382518c93b368c9063517b3f8290604401602060405180830381865afa1580156105c1573d6000803e3d6000fd5b505050506040513d601f19601f820116820180604052508101906105e591906108c0565b90506105f1818461047a565b949350505050565b6040516246613160e11b81526000907397bd59a8202f8263c2ec39cf6cf6b438d0b4587690628cc2629061050c9030906004016108ac565b60008260ff168260ff1611156106675761064b83836108d9565b61065690600a61082d565b610660908561083c565b905061031c565b61067182846108d9565b61067c90600a61082d565b6106609085610853565b60ff8116811461069557600080fd5b50565b6000806000606084860312156106ad57600080fd5b8335925060208401356001600160a01b03811681146106cb57600080fd5b915060408401356106db81610686565b809150509250925092565b600080604083850312156106f957600080fd5b82359150602083013561070b81610686565b809150509250929050565b60006020828403121561072857600080fd5b815161031c81610686565b634e487b7160e01b600052601160045260246000fd5b600181815b8085111561078457816000190482111561076a5761076a610733565b8085161561077757918102915b93841c939080029061074e565b509250929050565b60008261079b57506001610474565b816107a857506000610474565b81600181146107be57600281146107c8576107e4565b6001915050610474565b60ff8411156107d9576107d9610733565b50506001821b610474565b5060208310610133831016604e8410600b8410161715610807575081810a610474565b6108118383610749565b806000190482111561082557610825610733565b029392505050565b600061047160ff84168361078c565b808202811582820484141761047457610474610733565b60008261087057634e487b7160e01b600052601260045260246000fd5b500490565b6000806040838503121561088857600080fd5b505080516020909101519092909150565b8082018082111561047457610474610733565b6001600160a01b0391909116815260200190565b6000602082840312156108d257600080fd5b5051919050565b60ff82811682821603908111156104745761047461073356fea26469706673582212202a39f9439c5a2bd81b5969980b5a1bf2dc02f4a97a235f9ba623c52dd0540e6e64736f6c63430008130033",
  "linkReferences": {},
  "deployedLinkReferences": {}
}