{
  "_format": "hh-sol-artifact-1",
  "contractName": "PearlStrategyLib",
  "sourceName": "contracts/strategies/utils/PearlStrategyLib.sol",
  "abi": [
    {
      "inputs": [],
      "name": "DEFAULT_SLIPPAGE",
      "outputs": [
        {
          "internalType": "uint256",
          "name": "",
          "type": "uint256"
        }
      ],
      "stateMutability": "view",
      "type": "function"
    }
  ],
  "bytecode": "0x6088610038600b82828239805160001a607314602b57634e487b7160e01b600052600060045260246000fd5b30600052607381538281f3fe730000000000000000000000000000000000000000301460806040526004361060335760003560e01c8063a8798510146038575b600080fd5b604061264881565b60405190815260200160405180910390f3fea2646970667358221220965433e9a9727ef5dc54c7239004a35a79d184d8fafff4dffdd4f65e88d790c464736f6c63430008130033",
  "linkReferences": {},
  "deployedLinkReferences": {}
}