{
  "_format": "hh-sol-artifact-1",
  "contractName": "RolesManagementLib",
  "sourceName": "contracts/strategies/base/libraries/RolesManagementLib.sol",
  "abi": [
    {
      "inputs": [],
      "name": "AUTHORITY_ROLE",
      "outputs": [
        {
          "internalType": "bytes32",
          "name": "",
          "type": "bytes32"
        }
      ],
      "stateMutability": "view",
      "type": "function"
    },
    {
      "inputs": [],
      "name": "INITIALIZER_ROLE",
      "outputs": [
        {
          "internalType": "bytes32",
          "name": "",
          "type": "bytes32"
        }
      ],
      "stateMutability": "view",
      "type": "function"
    },
    {
      "inputs": [],
      "name": "PAUSER_ROLE",
      "outputs": [
        {
          "internalType": "bytes32",
          "name": "",
          "type": "bytes32"
        }
      ],
      "stateMutability": "view",
      "type": "function"
    }
  ],
  "bytecode": "0x61010661003a600b82828239805160001a60731461002d57634e487b7160e01b600052600060045260246000fd5b30600052607381538281f3fe730000000000000000000000000000000000000000301460806040526004361060475760003560e01c806327df3d3e14604c5780634a3fba0e146084578063e63ab1e91460aa575b600080fd5b60727f30d41a597cac127d8249d31298b50e481ee82c3f4a49ff93c76a22735aa9f3ad81565b60405190815260200160405180910390f35b60727f17a8e30262c1f919c33056d877a3c22b95c2f5e4dac44683c1c2323cd79fbdb081565b60727f65d7a28e3265b37a6474929f336521b332c1681b933f6cb9f3376673440d862a8156fea2646970667358221220571904a18091fd516ef05ab353f04cacc15c329afc0a030cf6b1d1a2f3aef04964736f6c63430008130033",
  "linkReferences": {},
  "deployedLinkReferences": {}
}