{
  "_format": "hh-sol-artifact-1",
  "contractName": "AeroStrategy",
  "sourceName": "contracts/strategies/AeroStrategy.sol",
  "abi": [
    {
      "inputs": [
        {
          "internalType": "uint256",
          "name": "messageType",
          "type": "uint256"
        }
      ],
      "name": "IncorrectMessageType",
      "type": "error"
    },
    {
      "inputs": [
        {
          "internalType": "uint256",
          "name": "amount",
          "type": "uint256"
        },
        {
          "internalType": "uint256",
          "name": "balance",
          "type": "uint256"
        }
      ],
      "name": "InsufficientFunds",
      "type": "error"
    },
    {
      "anonymous": false,
      "inputs": [
        {
          "indexed": false,
          "internalType": "uint256",
          "name": "debtOutstanding",
          "type": "uint256"
        }
      ],
      "name": "AdjustedPosition",
      "type": "event"
    },
    {
      "anonymous": false,
      "inputs": [
        {
          "indexed": false,
          "internalType": "uint8",
          "name": "version",
          "type": "uint8"
        }
      ],
      "name": "Initialized",
      "type": "event"
    },
    {
      "anonymous": false,
      "inputs": [
        {
          "indexed": false,
          "internalType": "uint16",
          "name": "_srcChainId",
          "type": "uint16"
        },
        {
          "indexed": false,
          "internalType": "bytes",
          "name": "_srcAddress",
          "type": "bytes"
        },
        {
          "indexed": false,
          "internalType": "uint64",
          "name": "_nonce",
          "type": "uint64"
        },
        {
          "indexed": false,
          "internalType": "bytes",
          "name": "_payload",
          "type": "bytes"
        },
        {
          "indexed": false,
          "internalType": "bytes",
          "name": "_reason",
          "type": "bytes"
        }
      ],
      "name": "MessageFailed",
      "type": "event"
    },
    {
      "anonymous": false,
      "inputs": [
        {
          "indexed": true,
          "internalType": "address",
          "name": "previousOwner",
          "type": "address"
        },
        {
          "indexed": true,
          "internalType": "address",
          "name": "newOwner",
          "type": "address"
        }
      ],
      "name": "OwnershipTransferred",
      "type": "event"
    },
    {
      "anonymous": false,
      "inputs": [
        {
          "indexed": false,
          "internalType": "uint16",
          "name": "_srcChainId",
          "type": "uint16"
        },
        {
          "indexed": false,
          "internalType": "bytes",
          "name": "_srcAddress",
          "type": "bytes"
        },
        {
          "indexed": false,
          "internalType": "uint64",
          "name": "_nonce",
          "type": "uint64"
        },
        {
          "indexed": false,
          "internalType": "bytes32",
          "name": "_payloadHash",
          "type": "bytes32"
        }
      ],
      "name": "RetryMessageSuccess",
      "type": "event"
    },
    {
      "anonymous": false,
      "inputs": [
        {
          "indexed": false,
          "internalType": "uint16",
          "name": "_dstChainId",
          "type": "uint16"
        },
        {
          "indexed": false,
          "internalType": "uint16",
          "name": "_type",
          "type": "uint16"
        },
        {
          "indexed": false,
          "internalType": "uint256",
          "name": "_minDstGas",
          "type": "uint256"
        }
      ],
      "name": "SetMinDstGas",
      "type": "event"
    },
    {
      "anonymous": false,
      "inputs": [
        {
          "indexed": false,
          "internalType": "address",
          "name": "precrime",
          "type": "address"
        }
      ],
      "name": "SetPrecrime",
      "type": "event"
    },
    {
      "anonymous": false,
      "inputs": [
        {
          "indexed": false,
          "internalType": "uint16",
          "name": "_remoteChainId",
          "type": "uint16"
        },
        {
          "indexed": false,
          "internalType": "bytes",
          "name": "_path",
          "type": "bytes"
        }
      ],
      "name": "SetTrustedRemote",
      "type": "event"
    },
    {
      "anonymous": false,
      "inputs": [
        {
          "indexed": false,
          "internalType": "uint16",
          "name": "_remoteChainId",
          "type": "uint16"
        },
        {
          "indexed": false,
          "internalType": "bytes",
          "name": "_remoteAddress",
          "type": "bytes"
        }
      ],
      "name": "SetTrustedRemoteAddress",
      "type": "event"
    },
    {
      "anonymous": false,
      "inputs": [
        {
          "indexed": true,
          "internalType": "address",
          "name": "token",
          "type": "address"
        },
        {
          "indexed": false,
          "internalType": "uint256",
          "name": "amount",
          "type": "uint256"
        },
        {
          "indexed": false,
          "internalType": "address",
          "name": "sender",
          "type": "address"
        }
      ],
      "name": "SgReceived",
      "type": "event"
    },
    {
      "anonymous": false,
      "inputs": [
        {
          "indexed": false,
          "internalType": "address",
          "name": "newStrategy",
          "type": "address"
        }
      ],
      "name": "StrategyMigrated",
      "type": "event"
    },
    {
      "anonymous": false,
      "inputs": [
        {
          "indexed": false,
          "internalType": "uint256",
          "name": "profit",
          "type": "uint256"
        },
        {
          "indexed": false,
          "internalType": "uint256",
          "name": "loss",
          "type": "uint256"
        },
        {
          "indexed": false,
          "internalType": "uint256",
          "name": "debtPayment",
          "type": "uint256"
        },
        {
          "indexed": false,
          "internalType": "uint256",
          "name": "giveToStrategy",
          "type": "uint256"
        },
        {
          "indexed": false,
          "internalType": "uint256",
          "name": "requestFromStrategy",
          "type": "uint256"
        },
        {
          "indexed": false,
          "internalType": "uint256",
          "name": "creditAvailable",
          "type": "uint256"
        },
        {
          "indexed": false,
          "internalType": "uint256",
          "name": "totalAssets",
          "type": "uint256"
        }
      ],
      "name": "StrategyReported",
      "type": "event"
    },
    {
      "inputs": [
        {
          "internalType": "uint256",
          "name": "amountIn",
          "type": "uint256"
        }
      ],
      "name": "AeroToWant",
      "outputs": [
        {
          "internalType": "uint256",
          "name": "amountOut",
          "type": "uint256"
        }
      ],
      "stateMutability": "view",
      "type": "function"
    },
    {
      "inputs": [],
      "name": "DEFAULT_PAYLOAD_SIZE_LIMIT",
      "outputs": [
        {
          "internalType": "uint256",
          "name": "",
          "type": "uint256"
        }
      ],
      "stateMutability": "view",
      "type": "function"
    },
    {
      "inputs": [
        {
          "internalType": "uint256",
          "name": "amountIn",
          "type": "uint256"
        }
      ],
      "name": "LpToWant",
      "outputs": [
        {
          "internalType": "uint256",
          "name": "amountOut",
          "type": "uint256"
        }
      ],
      "stateMutability": "view",
      "type": "function"
    },
    {
      "inputs": [
        {
          "internalType": "uint256",
          "name": "_debtOutstanding",
          "type": "uint256"
        }
      ],
      "name": "adjustPosition",
      "outputs": [],
      "stateMutability": "nonpayable",
      "type": "function"
    },
    {
      "inputs": [],
      "name": "balanceOfStaked",
      "outputs": [
        {
          "internalType": "uint256",
          "name": "amount",
          "type": "uint256"
        }
      ],
      "stateMutability": "view",
      "type": "function"
    },
    {
      "inputs": [],
      "name": "balanceOfWant",
      "outputs": [
        {
          "internalType": "uint256",
          "name": "",
          "type": "uint256"
        }
      ],
      "stateMutability": "view",
      "type": "function"
    },
    {
      "inputs": [
        {
          "internalType": "uint256",
          "name": "epoch",
          "type": "uint256"
        }
      ],
      "name": "callMe",
      "outputs": [],
      "stateMutability": "nonpayable",
      "type": "function"
    },
    {
      "inputs": [],
      "name": "clearWant",
      "outputs": [],
      "stateMutability": "nonpayable",
      "type": "function"
    },
    {
      "inputs": [],
      "name": "currentChainId",
      "outputs": [
        {
          "internalType": "uint16",
          "name": "",
          "type": "uint16"
        }
      ],
      "stateMutability": "view",
      "type": "function"
    },
    {
      "inputs": [],
      "name": "emergencyExit",
      "outputs": [
        {
          "internalType": "bool",
          "name": "",
          "type": "bool"
        }
      ],
      "stateMutability": "view",
      "type": "function"
    },
    {
      "inputs": [],
      "name": "estimatedTotalAssets",
      "outputs": [
        {
          "internalType": "uint256",
          "name": "",
          "type": "uint256"
        }
      ],
      "stateMutability": "view",
      "type": "function"
    },
    {
      "inputs": [
        {
          "internalType": "uint16",
          "name": "",
          "type": "uint16"
        },
        {
          "internalType": "bytes",
          "name": "",
          "type": "bytes"
        },
        {
          "internalType": "uint64",
          "name": "",
          "type": "uint64"
        }
      ],
      "name": "failedMessages",
      "outputs": [
        {
          "internalType": "bytes32",
          "name": "",
          "type": "bytes32"
        }
      ],
      "stateMutability": "view",
      "type": "function"
    },
    {
      "inputs": [
        {
          "internalType": "uint16",
          "name": "_srcChainId",
          "type": "uint16"
        },
        {
          "internalType": "bytes",
          "name": "_srcAddress",
          "type": "bytes"
        }
      ],
      "name": "forceResumeReceive",
      "outputs": [],
      "stateMutability": "nonpayable",
      "type": "function"
    },
    {
      "inputs": [
        {
          "internalType": "uint16",
          "name": "_version",
          "type": "uint16"
        },
        {
          "internalType": "uint16",
          "name": "_chainId",
          "type": "uint16"
        },
        {
          "internalType": "address",
          "name": "",
          "type": "address"
        },
        {
          "internalType": "uint256",
          "name": "_configType",
          "type": "uint256"
        }
      ],
      "name": "getConfig",
      "outputs": [
        {
          "internalType": "bytes",
          "name": "",
          "type": "bytes"
        }
      ],
      "stateMutability": "view",
      "type": "function"
    },
    {
      "inputs": [
        {
          "internalType": "bytes32",
          "name": "_messageHash",
          "type": "bytes32"
        }
      ],
      "name": "getEthSignedMessageHash",
      "outputs": [
        {
          "internalType": "bytes32",
          "name": "",
          "type": "bytes32"
        }
      ],
      "stateMutability": "pure",
      "type": "function"
    },
    {
      "inputs": [
        {
          "internalType": "uint16",
          "name": "_remoteChainId",
          "type": "uint16"
        }
      ],
      "name": "getTrustedRemoteAddress",
      "outputs": [
        {
          "internalType": "bytes",
          "name": "",
          "type": "bytes"
        }
      ],
      "stateMutability": "view",
      "type": "function"
    },
    {
      "inputs": [
        {
          "internalType": "uint256",
          "name": "_totalDebt",
          "type": "uint256"
        },
        {
          "internalType": "uint256",
          "name": "_debtOutstanding",
          "type": "uint256"
        },
        {
          "internalType": "uint256",
          "name": "_creditAvailable",
          "type": "uint256"
        },
        {
          "internalType": "uint256",
          "name": "_debtRatio",
          "type": "uint256"
        },
        {
          "internalType": "bytes",
          "name": "_signature",
          "type": "bytes"
        }
      ],
      "name": "harvest",
      "outputs": [],
      "stateMutability": "nonpayable",
      "type": "function"
    },
    {
      "inputs": [
        {
          "internalType": "address",
          "name": "_lzEndpoint",
          "type": "address"
        },
        {
          "internalType": "address",
          "name": "_strategist",
          "type": "address"
        },
        {
          "internalType": "contract IERC20",
          "name": "_want",
          "type": "address"
        },
        {
          "internalType": "address",
          "name": "_vault",
          "type": "address"
        },
        {
          "internalType": "uint16",
          "name": "_vaultChainId",
          "type": "uint16"
        },
        {
          "internalType": "address",
          "name": "_sgBridge",
          "type": "address"
        },
        {
          "internalType": "address",
          "name": "_sgRouter",
          "type": "address"
        },
        {
          "internalType": "uint256",
          "name": "_slippage",
          "type": "uint256"
        }
      ],
      "name": "initialize",
      "outputs": [],
      "stateMutability": "nonpayable",
      "type": "function"
    },
    {
      "inputs": [
        {
          "internalType": "uint16",
          "name": "_srcChainId",
          "type": "uint16"
        },
        {
          "internalType": "bytes",
          "name": "_srcAddress",
          "type": "bytes"
        }
      ],
      "name": "isTrustedRemote",
      "outputs": [
        {
          "internalType": "bool",
          "name": "",
          "type": "bool"
        }
      ],
      "stateMutability": "view",
      "type": "function"
    },
    {
      "inputs": [],
      "name": "lzEndpoint",
      "outputs": [
        {
          "internalType": "contract ILayerZeroEndpointUpgradeable",
          "name": "",
          "type": "address"
        }
      ],
      "stateMutability": "view",
      "type": "function"
    },
    {
      "inputs": [
        {
          "internalType": "uint16",
          "name": "_srcChainId",
          "type": "uint16"
        },
        {
          "internalType": "bytes",
          "name": "_srcAddress",
          "type": "bytes"
        },
        {
          "internalType": "uint64",
          "name": "_nonce",
          "type": "uint64"
        },
        {
          "internalType": "bytes",
          "name": "_payload",
          "type": "bytes"
        }
      ],
      "name": "lzReceive",
      "outputs": [],
      "stateMutability": "nonpayable",
      "type": "function"
    },
    {
      "inputs": [
        {
          "internalType": "uint16",
          "name": "",
          "type": "uint16"
        },
        {
          "internalType": "uint16",
          "name": "",
          "type": "uint16"
        }
      ],
      "name": "minDstGasLookup",
      "outputs": [
        {
          "internalType": "uint256",
          "name": "",
          "type": "uint256"
        }
      ],
      "stateMutability": "view",
      "type": "function"
    },
    {
      "inputs": [],
      "name": "name",
      "outputs": [
        {
          "internalType": "string",
          "name": "",
          "type": "string"
        }
      ],
      "stateMutability": "pure",
      "type": "function"
    },
    {
      "inputs": [
        {
          "internalType": "uint16",
          "name": "_srcChainId",
          "type": "uint16"
        },
        {
          "internalType": "bytes",
          "name": "_srcAddress",
          "type": "bytes"
        },
        {
          "internalType": "uint64",
          "name": "_nonce",
          "type": "uint64"
        },
        {
          "internalType": "bytes",
          "name": "_payload",
          "type": "bytes"
        }
      ],
      "name": "nonblockingLzReceive",
      "outputs": [],
      "stateMutability": "nonpayable",
      "type": "function"
    },
    {
      "inputs": [],
      "name": "owner",
      "outputs": [
        {
          "internalType": "address",
          "name": "",
          "type": "address"
        }
      ],
      "stateMutability": "view",
      "type": "function"
    },
    {
      "inputs": [
        {
          "internalType": "uint16",
          "name": "",
          "type": "uint16"
        }
      ],
      "name": "payloadSizeLimitLookup",
      "outputs": [
        {
          "internalType": "uint256",
          "name": "",
          "type": "uint256"
        }
      ],
      "stateMutability": "view",
      "type": "function"
    },
    {
      "inputs": [],
      "name": "precrime",
      "outputs": [
        {
          "internalType": "address",
          "name": "",
          "type": "address"
        }
      ],
      "stateMutability": "view",
      "type": "function"
    },
    {
      "inputs": [],
      "name": "renounceOwnership",
      "outputs": [],
      "stateMutability": "nonpayable",
      "type": "function"
    },
    {
      "inputs": [
        {
          "internalType": "uint16",
          "name": "_srcChainId",
          "type": "uint16"
        },
        {
          "internalType": "bytes",
          "name": "_srcAddress",
          "type": "bytes"
        },
        {
          "internalType": "uint64",
          "name": "_nonce",
          "type": "uint64"
        },
        {
          "internalType": "bytes",
          "name": "_payload",
          "type": "bytes"
        }
      ],
      "name": "retryMessage",
      "outputs": [],
      "stateMutability": "payable",
      "type": "function"
    },
    {
      "inputs": [],
      "name": "revokeFunds",
      "outputs": [],
      "stateMutability": "nonpayable",
      "type": "function"
    },
    {
      "inputs": [],
      "name": "rewards",
      "outputs": [
        {
          "internalType": "uint256",
          "name": "amount",
          "type": "uint256"
        }
      ],
      "stateMutability": "view",
      "type": "function"
    },
    {
      "inputs": [
        {
          "internalType": "uint16",
          "name": "_version",
          "type": "uint16"
        },
        {
          "internalType": "uint16",
          "name": "_chainId",
          "type": "uint16"
        },
        {
          "internalType": "uint256",
          "name": "_configType",
          "type": "uint256"
        },
        {
          "internalType": "bytes",
          "name": "_config",
          "type": "bytes"
        }
      ],
      "name": "setConfig",
      "outputs": [],
      "stateMutability": "nonpayable",
      "type": "function"
    },
    {
      "inputs": [
        {
          "internalType": "bool",
          "name": "_emergencyExit",
          "type": "bool"
        }
      ],
      "name": "setEmergencyExit",
      "outputs": [],
      "stateMutability": "nonpayable",
      "type": "function"
    },
    {
      "inputs": [
        {
          "internalType": "uint16",
          "name": "_dstChainId",
          "type": "uint16"
        },
        {
          "internalType": "uint16",
          "name": "_packetType",
          "type": "uint16"
        },
        {
          "internalType": "uint256",
          "name": "_minGas",
          "type": "uint256"
        }
      ],
      "name": "setMinDstGas",
      "outputs": [],
      "stateMutability": "nonpayable",
      "type": "function"
    },
    {
      "inputs": [
        {
          "internalType": "uint16",
          "name": "_dstChainId",
          "type": "uint16"
        },
        {
          "internalType": "uint256",
          "name": "_size",
          "type": "uint256"
        }
      ],
      "name": "setPayloadSizeLimit",
      "outputs": [],
      "stateMutability": "nonpayable",
      "type": "function"
    },
    {
      "inputs": [
        {
          "internalType": "address",
          "name": "_precrime",
          "type": "address"
        }
      ],
      "name": "setPrecrime",
      "outputs": [],
      "stateMutability": "nonpayable",
      "type": "function"
    },
    {
      "inputs": [
        {
          "internalType": "uint16",
          "name": "_version",
          "type": "uint16"
        }
      ],
      "name": "setReceiveVersion",
      "outputs": [],
      "stateMutability": "nonpayable",
      "type": "function"
    },
    {
      "inputs": [
        {
          "internalType": "uint16",
          "name": "_version",
          "type": "uint16"
        }
      ],
      "name": "setSendVersion",
      "outputs": [],
      "stateMutability": "nonpayable",
      "type": "function"
    },
    {
      "inputs": [
        {
          "internalType": "uint256",
          "name": "_slippage",
          "type": "uint256"
        }
      ],
      "name": "setSlippage",
      "outputs": [],
      "stateMutability": "nonpayable",
      "type": "function"
    },
    {
      "inputs": [
        {
          "internalType": "address",
          "name": "_strategist",
          "type": "address"
        }
      ],
      "name": "setStrategist",
      "outputs": [],
      "stateMutability": "nonpayable",
      "type": "function"
    },
    {
      "inputs": [
        {
          "internalType": "uint16",
          "name": "_srcChainId",
          "type": "uint16"
        },
        {
          "internalType": "bytes",
          "name": "_path",
          "type": "bytes"
        }
      ],
      "name": "setTrustedRemote",
      "outputs": [],
      "stateMutability": "nonpayable",
      "type": "function"
    },
    {
      "inputs": [
        {
          "internalType": "uint16",
          "name": "_remoteChainId",
          "type": "uint16"
        },
        {
          "internalType": "bytes",
          "name": "_remoteAddress",
          "type": "bytes"
        }
      ],
      "name": "setTrustedRemoteAddress",
      "outputs": [],
      "stateMutability": "nonpayable",
      "type": "function"
    },
    {
      "inputs": [],
      "name": "sgBridge",
      "outputs": [
        {
          "internalType": "contract ISgBridge",
          "name": "",
          "type": "address"
        }
      ],
      "stateMutability": "view",
      "type": "function"
    },
    {
      "inputs": [
        {
          "internalType": "uint16",
          "name": "",
          "type": "uint16"
        },
        {
          "internalType": "bytes",
          "name": "_srcAddress",
          "type": "bytes"
        },
        {
          "internalType": "uint256",
          "name": "",
          "type": "uint256"
        },
        {
          "internalType": "address",
          "name": "_token",
          "type": "address"
        },
        {
          "internalType": "uint256",
          "name": "_amountLD",
          "type": "uint256"
        },
        {
          "internalType": "bytes",
          "name": "",
          "type": "bytes"
        }
      ],
      "name": "sgReceive",
      "outputs": [],
      "stateMutability": "nonpayable",
      "type": "function"
    },
    {
      "inputs": [],
      "name": "sgRouter",
      "outputs": [
        {
          "internalType": "contract IStargateRouter",
          "name": "",
          "type": "address"
        }
      ],
      "stateMutability": "view",
      "type": "function"
    },
    {
      "inputs": [],
      "name": "slippage",
      "outputs": [
        {
          "internalType": "uint256",
          "name": "",
          "type": "uint256"
        }
      ],
      "stateMutability": "view",
      "type": "function"
    },
    {
      "inputs": [],
      "name": "strategist",
      "outputs": [
        {
          "internalType": "address",
          "name": "",
          "type": "address"
        }
      ],
      "stateMutability": "view",
      "type": "function"
    },
    {
      "inputs": [],
      "name": "strategistSignMessageHash",
      "outputs": [
        {
          "internalType": "bytes32",
          "name": "",
          "type": "bytes32"
        }
      ],
      "stateMutability": "view",
      "type": "function"
    },
    {
      "inputs": [
        {
          "internalType": "contract IERC20",
          "name": "_token",
          "type": "address"
        }
      ],
      "name": "sweepToken",
      "outputs": [],
      "stateMutability": "nonpayable",
      "type": "function"
    },
    {
      "inputs": [
        {
          "internalType": "address",
          "name": "newOwner",
          "type": "address"
        }
      ],
      "name": "transferOwnership",
      "outputs": [],
      "stateMutability": "nonpayable",
      "type": "function"
    },
    {
      "inputs": [
        {
          "internalType": "uint16",
          "name": "",
          "type": "uint16"
        }
      ],
      "name": "trustedRemoteLookup",
      "outputs": [
        {
          "internalType": "bytes",
          "name": "",
          "type": "bytes"
        }
      ],
      "stateMutability": "view",
      "type": "function"
    },
    {
      "inputs": [],
      "name": "vault",
      "outputs": [
        {
          "internalType": "address",
          "name": "",
          "type": "address"
        }
      ],
      "stateMutability": "view",
      "type": "function"
    },
    {
      "inputs": [],
      "name": "vaultChainId",
      "outputs": [
        {
          "internalType": "uint16",
          "name": "",
          "type": "uint16"
        }
      ],
      "stateMutability": "view",
      "type": "function"
    },
    {
      "inputs": [],
      "name": "want",
      "outputs": [
        {
          "internalType": "contract IERC20",
          "name": "",
          "type": "address"
        }
      ],
      "stateMutability": "view",
      "type": "function"
    },
    {
      "inputs": [],
      "name": "wantDecimals",
      "outputs": [
        {
          "internalType": "uint8",
          "name": "",
          "type": "uint8"
        }
      ],
      "stateMutability": "view",
      "type": "function"
    },
    {
      "stateMutability": "payable",
      "type": "receive"
    }
  ],
  "bytecode": "0x608060405234801561001057600080fd5b5061595980620000216000396000f3fe6080604052600436106102735760003560e01c80621d35671461027f5780630517cb76146102a157806306fdde03146102d757806307e0db17146103255780630df374831461034557806310ddb137146103655780631be19560146103855780631f1fcd51146103a55780631fe4a686146103c55780632d606843146103e557806337fded91146103fa5780633d3ccc2f1461041f5780633d8b38f61461043f5780633e032a3b1461046f5780633f1f4fa41461049357806342d65a8d146104c057806345ee0755146104e057806346a7fe8b14610500578063495f881e146105205780635641ec0314610540578063567ad85d1461055a578063593178de1461058f5780635b8c41e6146105a457806366ad5c8a146105f35780636cbadbfa14610613578063715018a6146106355780637533d7881461064a5780637f5555651461066a5780638cfd8f5c1461068a5780638da5cb5b146106c2578063950c8a74146106d75780639606647d146106f75780639ec5a8941461070c5780639f38369a14610721578063a525a28314610741578063a6c3d16514610761578063ab8236f314610781578063adf076e6146107a1578063b353aaa7146107d4578063baf3292d146107f4578063c1a3d44c14610814578063c446183414610829578063c7b9d5301461083f578063cbed8b9c1461085f578063d1deba1f1461087f578063df2a5b3b14610892578063e73620c3146108b2578063eb8d72b7146108d2578063efbb5cb0146108f2578063f0fa55a914610907578063f2fde38b14610927578063f42e4cbb14610947578063f5ecbdbc1461095c578063fa5408011461097c578063fbfa77cf1461099c57600080fd5b3661027a57005b600080fd5b34801561028b57600080fd5b5061029f61029a36600461470f565b6109bc565b005b3480156102ad57600080fd5b5060ce546102c1906001600160a01b031681565b6040516102ce91906147a2565b60405180910390f35b3480156102e357600080fd5b5060408051808201909152601c81527b4165726f64726f6d652055534462432f44414920537472617465677960201b60208201525b6040516102ce9190614806565b34801561033157600080fd5b5061029f610340366004614819565b610aa5565b34801561035157600080fd5b5061029f610360366004614834565b610b12565b34801561037157600080fd5b5061029f610380366004614819565b610b31565b34801561039157600080fd5b5061029f6103a0366004614873565b610b6d565b3480156103b157600080fd5b5060ca546102c1906001600160a01b031681565b3480156103d157600080fd5b5060c9546102c1906001600160a01b031681565b3480156103f157600080fd5b5061029f610bfa565b34801561040657600080fd5b5060cd546102c19061010090046001600160a01b031681565b34801561042b57600080fd5b5061029f61043a366004614890565b610c3b565b34801561044b57600080fd5b5061045f61045a3660046148a9565b610c71565b60405190151581526020016102ce565b34801561047b57600080fd5b5061048560cc5481565b6040519081526020016102ce565b34801561049f57600080fd5b506104856104ae366004614819565b60686020526000908152604090205481565b3480156104cc57600080fd5b5061029f6104db3660046148a9565b610d3d565b3480156104ec57600080fd5b5061029f6104fb366004614909565b610db0565b34801561050c57600080fd5b5061048561051b366004614890565b610dcb565b34801561052c57600080fd5b5061029f61053b366004614a11565b610eac565b34801561054c57600080fd5b5060cd5461045f9060ff1681565b34801561056657600080fd5b5060cb5461057c90600160a01b900461ffff1681565b60405161ffff90911681526020016102ce565b34801561059b57600080fd5b50610485611150565b3480156105b057600080fd5b506104856105bf366004614a74565b6097602090815260009384526040808520845180860184018051928152908401958401959095209452929052825290205481565b3480156105ff57600080fd5b5061029f61060e36600461470f565b6111ae565b34801561061f57600080fd5b5060cb5461057c90600160b01b900461ffff1681565b34801561064157600080fd5b5061029f611282565b34801561065657600080fd5b50610318610665366004614819565b611296565b34801561067657600080fd5b5061029f610685366004614ad1565b611330565b34801561069657600080fd5b506104856106a5366004614b6f565b606760209081526000928352604080842090915290825290205481565b3480156106ce57600080fd5b506102c1611538565b3480156106e357600080fd5b506069546102c1906001600160a01b031681565b34801561070357600080fd5b5061029f611547565b34801561071857600080fd5b506104856115da565b34801561072d57600080fd5b5061031861073c366004614819565b611652565b34801561074d57600080fd5b5061048561075c366004614890565b611768565b34801561076d57600080fd5b5061029f61077c3660046148a9565b611934565b34801561078d57600080fd5b5061029f61079c366004614ba2565b6119bd565b3480156107ad57600080fd5b5060cb546107c290600160c01b900460ff1681565b60405160ff90911681526020016102ce565b3480156107e057600080fd5b506065546102c1906001600160a01b031681565b34801561080057600080fd5b5061029f61080f366004614873565b611abb565b34801561082057600080fd5b50610485611b0e565b34801561083557600080fd5b5061048561271081565b34801561084b57600080fd5b5061029f61085a366004614873565b611b3f565b34801561086b57600080fd5b5061029f61087a366004614c3c565b611b69565b61029f61088d36600461470f565b611bd7565b34801561089e57600080fd5b5061029f6108ad366004614caa565b611ded565b3480156108be57600080fd5b5061029f6108cd366004614890565b611e9f565b3480156108de57600080fd5b5061029f6108ed3660046148a9565b611ebf565b3480156108fe57600080fd5b50610485611f19565b34801561091357600080fd5b5061029f610922366004614890565b611f4d565b34801561093357600080fd5b5061029f610942366004614873565b611f5a565b34801561095357600080fd5b50610485611fd0565b34801561096857600080fd5b50610318610977366004614ce6565b612004565b34801561098857600080fd5b50610485610997366004614890565b612097565b3480156109a857600080fd5b5060cb546102c1906001600160a01b031681565b6065546001600160a01b03163314610a275760405162461bcd60e51b815260206004820152602360248201527f4261736553747261746567793a3a496e76616c6964456e64706f696e7443616c6044820152623632b960e91b60648201526084015b60405180910390fd5b610a9d8686868080601f01602080910402602001604051908101604052809392919081815260200183838082843760009201919091525050604080516020601f8901819004810282018101909252878152899350915087908790819084018382808284376000920191909152506120e992505050565b505050505050565b610aad612162565b6065546040516307e0db1760e01b815261ffff831660048201526001600160a01b03909116906307e0db17906024015b600060405180830381600087803b158015610af757600080fd5b505af1158015610b0b573d6000803e3d6000fd5b5050505050565b610b1a612162565b61ffff909116600090815260686020526040902055565b610b39612162565b6065546040516310ddb13760e01b815261ffff831660048201526001600160a01b03909116906310ddb13790602401610add565b610b756121c1565b610bf733826001600160a01b03166370a08231306040518263ffffffff1660e01b8152600401610ba591906147a2565b602060405180830381865afa158015610bc2573d6000803e3d6000fd5b505050506040513d601f19601f82011682018060405250810190610be69190614d33565b6001600160a01b038416919061221a565b50565b610c026121c1565b60c9546040516001600160a01b03909116904780156108fc02916000818181858888f19350505050158015610bf7573d6000803e3d6000fd5b610c436121c1565b610c4c81612275565b604051818152600080516020615904833981519152906020015b60405180910390a150565b61ffff831660009081526066602052604081208054829190610c9290614d4c565b80601f0160208091040260200160405190810160405280929190818152602001828054610cbe90614d4c565b8015610d0b5780601f10610ce057610100808354040283529160200191610d0b565b820191906000526020600020905b815481529060010190602001808311610cee57829003601f168201915b505050505090508383604051610d22929190614d86565b60405180910390208180519060200120149150509392505050565b610d45612162565b6065546040516342d65a8d60e01b81526001600160a01b03909116906342d65a8d90610d7990869086908690600401614dbf565b600060405180830381600087803b158015610d9357600080fd5b505af1158015610da7573d6000803e3d6000fd5b50505050505050565b610db86121c1565b60cd805460ff1916911515919091179055565b600081600003610ddd57506000919050565b60405163324b78fb60e21b815260009081906000805160206158c48339815191529063c92de3ec90610e4690600080516020615864833981519152906000805160206158e483398151915290600190600080516020615884833981519152908b90600401614ddd565b6040805180830381865afa158015610e62573d6000803e3d6000fd5b505050506040513d601f19601f82011682018060405250810190610e869190614e10565b9092509050610e9a64e8d4a5100082614e4a565b610ea49083614e6c565b949350505050565b610eb46121c1565b610ebd81612598565b60cd546000908190819060ff1615610f69578415610f1d5760405162461bcd60e51b815260206004820152601e60248201527f4261736553747261746567793a3a44656274526174696f4e6f745a65726f00006044820152606401610a1e565b6000610f2761261e565b905087811015610f4257610f3b8189614e7f565b9250610f57565b87811115610f5757610f548882614e7f565b93505b610f618389614e7f565b915050610f7b565b610f738888612839565b919450925090505b6000610f878285614e6c565b905060008088831015610fa957610f9e838a614e7f565b915060009050610fba565b60009150610fb78984614e7f565b90505b6000604051806101600160405280306001600160a01b031681526020014281526020018881526020018781526020018681526020018481526020018381526020018b81526020018361100a611f19565b6110149190614e7f565b815260200160d0600081548092919061102c90614e92565b9091555081526020018990529050811561108c5760cb5460405161108791849161ffff600160a01b830416916001600160a01b031690611073906002908790602001614ee3565b604051602081830303815290604052612930565b6110b7565b6110b76002826040516020016110a3929190614ee3565b604051602081830303815290604052612a2a565b7fb983e09c034e9c52b5e547cb0589967992b97717733f580cc5ad0afcdc4b522b8160400151826060015183608001518460a001518560c001518660e0015187610100015160405161113a9796959493929190968752602087019590955260408601939093526060850191909152608084015260a083015260c082015260e00190565b60405180910390a1505050505050505050505050565b60d05460cb546040513060601b6001600160601b03191660208201526034810192909252600160b01b900460f01b6001600160f01b031916605482015260009060560160405160208183030381529060405280519060200120905090565b33301461120c5760405162461bcd60e51b815260206004820152602660248201527f4e6f6e626c6f636b696e674c7a4170703a2063616c6c6572206d7573742062656044820152650204c7a4170760d41b6064820152608401610a1e565b610a9d8686868080601f01602080910402602001604051908101604052809392919081815260200183838082843760009201919091525050604080516020601f890181900481028201810190925287815289935091508790879081908401838280828437600092019190915250612baa92505050565b61128a612162565b6112946000612cc0565b565b606660205260009081526040902080546112af90614d4c565b80601f01602080910402602001604051908101604052809291908181526020018280546112db90614d4c565b80156113285780601f106112fd57610100808354040283529160200191611328565b820191906000526020600020905b81548152906001019060200180831161130b57829003601f168201915b505050505081565b600054610100900460ff16158080156113505750600054600160ff909116105b80611371575061135f30612d12565b158015611371575060005460ff166001145b6113d45760405162461bcd60e51b815260206004820152602e60248201527f496e697469616c697a61626c653a20636f6e747261637420697320616c72656160448201526d191e481a5b9a5d1a585b1a5e995960921b6064820152608401610a1e565b6000805460ff1916600117905580156113f7576000805461ff0019166101001790555b6114088989898989468a8a8a612d21565b6114316000805160206158648339815191526000805160206158c4833981519152600019612ef4565b611460736eab8c1b93f5799dadf2c687a30230a540dbd6366000805160206158a4833981519152600019612ef4565b61148f736eab8c1b93f5799dadf2c687a30230a540dbd6366000805160206158c4833981519152600019612ef4565b6114be73940181a94a35a4569e4529a3cdfb74e38fd986316000805160206158c4833981519152600019612ef4565b6114e76000805160206158e48339815191526000805160206158c4833981519152600019612ef4565b801561152d576000805461ff0019169055604051600181527f7f26b83ff96e1f2b6a682f133852f6798a09c465da95921460cefb38474024989060200160405180910390a15b505050505050505050565b6033546001600160a01b031690565b61154f6121c1565b60ca546040516370a0823160e01b8152611294916001916001600160a01b03909116906370a08231906115869030906004016147a2565b602060405180830381865afa1580156115a3573d6000803e3d6000fd5b505050506040513d601f19601f820116820180604052508101906115c79190614d33565b60ca546001600160a01b0316919061221a565b6040516246613160e11b81526000906000805160206158a483398151915290628cc2629061160c9030906004016147a2565b602060405180830381865afa158015611629573d6000803e3d6000fd5b505050506040513d601f19601f8201168201806040525081019061164d9190614d33565b905090565b61ffff811660009081526066602052604081208054606092919061167590614d4c565b80601f01602080910402602001604051908101604052809291908181526020018280546116a190614d4c565b80156116ee5780601f106116c3576101008083540402835291602001916116ee565b820191906000526020600020905b8154815290600101906020018083116116d157829003601f168201915b5050505050905080516000036117465760405162461bcd60e51b815260206004820152601d60248201527f4c7a4170703a206e6f20747275737465642070617468207265636f72640000006044820152606401610a1e565b6117616000601483516117599190614e7f565b839190612ff8565b9392505050565b604080516001808252818301909252600091829190816020015b61178a614679565b81526020019060019003908161178257905050905073940181a94a35a4569e4529a3cdfb74e38fd98631816000815181106117c7576117c7614f96565b6020026020010151600001906001600160a01b031690816001600160a01b0316815250506000805160206158648339815191528160008151811061180d5761180d614f96565b6020026020010151602001906001600160a01b031690816001600160a01b03168152505060008160008151811061184657611846614f96565b602002602001015160400190151590811515815250506000805160206158848339815191528160008151811061187e5761187e614f96565b60209081029190910101516001600160a01b03909116606090910152604051631542686b60e21b81526000805160206158c483398151915290635509a1ac906118cd9086908590600401615017565b600060405180830381865afa1580156118ea573d6000803e3d6000fd5b505050506040513d6000823e601f3d908101601f191682016040526119129190810190615030565b60018151811061192457611924614f96565b6020026020010151915050919050565b61193c612162565b818130604051602001611951939291906150d5565b60408051601f1981840301815291815261ffff851660009081526066602052209061197c9082615151565b507f8c0400cfe2d1199b1a725c78960bcc2a344d869b80590d0f2bd005db15a572ce8383836040516119b093929190614dbf565b60405180910390a1505050565b60ce546001600160a01b03163314806119e5575060cd5461010090046001600160a01b031633145b611a305760405162461bcd60e51b815260206004820152601c60248201527b53674272696467653a3a526f757465724f724272696467654f6e6c7960201b6044820152606401610a1e565b6000611a3e86826014612ff8565b604051602001611a4e919061520a565b604051602081830303815290604052611a6690615226565b6040805185815260609290921c6020830181905292506001600160a01b038616917f92073a89a07a000083eb8b2575fc15e7bb936efe55d00727d6942a796d7211a7910160405180910390a250505050505050565b611ac3612162565b606980546001600160a01b0319166001600160a01b0383161790556040517f5db758e995a17ec1ad84bdef7e8c3293a0bd6179bcce400dff5d4c3d87db726b90610c669083906147a2565b60ca546040516370a0823160e01b81526000916001600160a01b0316906370a082319061160c9030906004016147a2565b611b47612162565b60c980546001600160a01b0319166001600160a01b0392909216919091179055565b611b71612162565b6065546040516332fb62e760e21b81526001600160a01b039091169063cbed8b9c90611ba9908890889088908890889060040161525d565b600060405180830381600087803b158015611bc357600080fd5b505af115801561152d573d6000803e3d6000fd5b61ffff86166000908152609760205260408082209051611bfa9088908890614d86565b90815260408051602092819003830190206001600160401b03871660009081529252902054905080611c7a5760405162461bcd60e51b815260206004820152602360248201527f4e6f6e626c6f636b696e674c7a4170703a206e6f2073746f726564206d65737360448201526261676560e81b6064820152608401610a1e565b808383604051611c8b929190614d86565b604051809103902014611cea5760405162461bcd60e51b815260206004820152602160248201527f4e6f6e626c6f636b696e674c7a4170703a20696e76616c6964207061796c6f616044820152601960fa1b6064820152608401610a1e565b61ffff87166000908152609760205260408082209051611d0d9089908990614d86565b90815260408051602092819003830181206001600160401b038916600090815290845282902093909355601f88018290048202830182019052868252611da5918991899089908190840183828082843760009201919091525050604080516020601f8a018190048102820181019092528881528a935091508890889081908401838280828437600092019190915250612baa92505050565b7fc264d91f3adc5588250e1551f547752ca0cfa8f6b530d243b9f9f4cab10ea8e58787878785604051611ddc95949392919061528b565b60405180910390a150505050505050565b611df5612162565b60008111611e3d5760405162461bcd60e51b81526020600482015260156024820152744c7a4170703a20696e76616c6964206d696e47617360581b6044820152606401610a1e565b61ffff83811660008181526067602090815260408083209487168084529482529182902085905581519283528201929092529081018290527f9d5c7c0b934da8fefa9c7760c98383778a12dfbfc0c3b3106518f43fb9508ac0906060016119b0565b611ea7612162565b600090815260cf60205260409020805460ff19169055565b611ec7612162565b61ffff83166000908152606660205260409020611ee58284836152c6565b507ffa41487ad5d6728f0b19276fa1eddc16558578f5109fc39d2dc33c3230470dab8383836040516119b093929190614dbf565b6000611f2661075c6115da565b611f2e611b0e565b611f3961051b611fd0565b611f439190614e6c565b61164d9190614e6c565b611f556121c1565b60cc55565b611f62612162565b6001600160a01b038116611fc75760405162461bcd60e51b815260206004820152602660248201527f4f776e61626c653a206e6577206f776e657220697320746865207a65726f206160448201526564647265737360d01b6064820152608401610a1e565b610bf781612cc0565b6040516370a0823160e01b81526000906000805160206158a4833981519152906370a082319061160c9030906004016147a2565b606554604051633d7b2f6f60e21b815261ffff808716600483015285166024820152306044820152606481018390526060916001600160a01b03169063f5ecbdbc90608401600060405180830381865afa158015612066573d6000803e3d6000fd5b505050506040513d6000823e601f3d908101601f1916820160405261208e919081019061537f565b95945050505050565b6040517b0ca2ba3432b932bab69029b4b3b732b21026b2b9b9b0b3b29d05199960211b6020820152603c8101829052600090605c01604051602081830303815290604052805190602001209050919050565b60008061214c5a60966366ad5c8a60e01b8989898960405160240161211194939291906153ec565b60408051601f198184030181529190526020810180516001600160e01b03166001600160e01b03199093169290921790915230929190613105565b9150915081610a9d57610a9d8686868685613191565b3361216b611538565b6001600160a01b0316146112945760405162461bcd60e51b815260206004820181905260248201527f4f776e61626c653a2063616c6c6572206973206e6f7420746865206f776e65726044820152606401610a1e565b60c9546001600160a01b031633146112945760405162461bcd60e51b815260206004820152601c60248201527b10985cd954dd1c985d1959de4e8e93db9b1e54dd1c985d1959da5cdd60221b6044820152606401610a1e565b6122708363a9059cbb60e01b848460405160240161223992919061542a565b60408051601f198184030181529190526020810180516001600160e01b03166001600160e01b03199093169290921790915261322e565b505050565b60cd5460ff16156122835750565b61228b613303565b6000612295611b0e565b90506000828211156122ae576122ab8383614e7f565b90505b8015612270576122bc614679565b60008051602061586483398151915281526000805160206158e48339815191526020820152600160408201526000805160206158848339815191526060820152600080612308846133e7565b9150915061231581613534565b600061271060cc54846123289190615443565b6123329190614e4a565b9050600061271060cc54846123479190615443565b6123519190614e4a565b90506000805160206158c48339815191526001600160a01b0316635a47ddc36000805160206158648339815191526000805160206158e48339815191526001886000805160206158e48339815191526001600160a01b03166370a08231306040518263ffffffff1660e01b81526004016123cb91906147a2565b602060405180830381865afa1580156123e8573d6000803e3d6000fd5b505050506040513d601f19601f8201168201806040525081019061240c9190614d33565b6040516001600160e01b031960e088901b1681526001600160a01b03958616600482015294909316602485015290151560448401526064830152608482015260a4810185905260c481018490523060e482015242610104820152610124016060604051808303816000875af1158015612489573d6000803e3d6000fd5b505050506040513d601f19601f820116820180604052508101906124ad919061545a565b50506040516370a0823160e01b815260009150736eab8c1b93f5799dadf2c687a30230a540dbd636906370a08231906124ea9030906004016147a2565b602060405180830381865afa158015612507573d6000803e3d6000fd5b505050506040513d601f19601f8201168201806040525081019061252b9190614d33565b60405163b6b55f2560e01b8152600481018290529091506000805160206158a48339815191529063b6b55f2590602401600060405180830381600087803b15801561257557600080fd5b505af1158015612589573d6000803e3d6000fd5b50505050505050505050505050565b60006125a2611150565b905060006125af82612097565b60c9549091506001600160a01b03166125c8828561371a565b6001600160a01b0316146122705760405162461bcd60e51b815260206004820152601e60248201527f4261736553747261746567793a3a496e76616c69645369676e617475726500006044820152606401610a1e565b6000612628613303565b6000612632611fd0565b604051632e1a7d4d60e01b8152600481018290529091506000805160206158a483398151915290632e1a7d4d90602401600060405180830381600087803b15801561267c57600080fd5b505af1158015612690573d6000803e3d6000fd5b505050506000806126a083613740565b60405163037b79b160e21b815291935091506000805160206158c483398151915290630dede6c49061270190600080516020615864833981519152906000805160206158e48339815191529060019089908990899030904290600401615488565b60408051808303816000875af115801561271f573d6000803e3d6000fd5b505050506040513d601f19601f820116820180604052508101906127439190614e10565b50506040516370a0823160e01b81526127c0906000805160206158e4833981519152906370a082319061277a9030906004016147a2565b602060405180830381865afa158015612797573d6000803e3d6000fd5b505050506040513d601f19601f820116820180604052508101906127bb9190614d33565b61382d565b60ca546040516370a0823160e01b81526001600160a01b03909116906370a08231906127f09030906004016147a2565b602060405180830381865afa15801561280d573d6000803e3d6000fd5b505050506040513d601f19601f820116820180604052508101906128319190614d33565b935050505090565b600080600080612847611f19565b90508581106128655761285a8682614e7f565b935060009250612876565b600093506128738187614e7f565b92505b6128886128838587614e6c565b61398b565b505060ca546040516370a0823160e01b81526000916001600160a01b0316906370a08231906128bb9030906004016147a2565b602060405180830381865afa1580156128d8573d6000803e3d6000fd5b505050506040513d601f19601f820116820180604052508101906128fc9190614d33565b90508481116129115780945060009250612927565b61292461291e8683614e7f565b87613ac0565b92505b50509250925092565b60cd54604051630dc6346160e01b815260009161010090046001600160a01b031690630dc634619061296a908790879087906004016154d1565b602060405180830381865afa158015612987573d6000803e3d6000fd5b505050506040513d601f19601f820116820180604052508101906129ab9190614d33565b60cd5460ca54604051633920455b60e11b81529293506001600160a01b036101009092048216926372408ab69285926129f1929116908a908a908a908a906004016154ff565b6000604051808303818588803b158015612a0a57600080fd5b505af1158015612a1e573d6000803e3d6000fd5b50505050505050505050565b60cb5460408051606083811b6001600160601b03199081166020840152309182901b16603483015282516028818403018152604890920190925260655490926000926001600160a01b03909216916340a7bb109161ffff600160a01b90910416908685612a95613ad6565b6040518663ffffffff1660e01b8152600401612ab595949392919061553c565b6040805180830381865afa158015612ad1573d6000803e3d6000fd5b505050506040513d601f19601f82011682018060405250810190612af59190614e10565b50905080471015612b215760405162fae2d560e21b815260048101829052476024820152604401610a1e565b60655460cb546001600160a01b039091169063c5803100908390600160a01b900461ffff1685873080612b52613ad6565b6040518863ffffffff1660e01b8152600401612b7396959493929190615584565b6000604051808303818588803b158015612b8c57600080fd5b505af1158015612ba0573d6000803e3d6000fd5b5050505050505050565b60cb5461ffff858116600160a01b9092041614612c145760405162461bcd60e51b815260206004820152602260248201527f4261736553747261746567793a3a5661756c74436861696e49644d69736d61746044820152610c6d60f31b6064820152608401610a1e565b6000612c2284826014612ff8565b604051602001612c32919061520a565b604051602081830303815290604052612c4a90615226565b60cb5460609190911c91506001600160a01b03168114612cb75760405162461bcd60e51b815260206004820152602260248201527f4261736553747261746567793a3a5661756c74416464726573734d69736d61746044820152610c6d60f31b6064820152608401610a1e565b610b0b82613b06565b603380546001600160a01b038381166001600160a01b0319831681179093556040519116919082907f8be0079c531659141344cd1fd0a4f28419497f9722a3daafe3b4186f6b6457e090600090a35050565b6001600160a01b03163b151590565b600054610100900460ff16612d485760405162461bcd60e51b8152600401610a1e906155eb565b612d5189613c33565b60c980546001600160a01b03808b166001600160a01b03199283161790925560ca80548a8416908316811790915560cb8054938a1661ffff8a16600160a01b029093166001600160b01b0319909416939093179190911790915560cc8290556040805163313ce56760e01b8152905163313ce567916004808201926020929091908290030181865afa158015612deb573d6000803e3d6000fd5b505050506040513d601f19601f82011682018060405250810190612e0f9190615636565b60cb8054600060d05562ffffff60b01b1916600160c01b60ff939093169290920261ffff60b01b191691909117600160b01b61ffff87160217905560cd8054610100600160a81b0319166101006001600160a01b03868116919091029190911790915560ce80546001600160a01b03191684831617905560ca5460405163095ea7b360e01b815291169063095ea7b390612eb19086906000199060040161542a565b6020604051808303816000875af1158015612ed0573d6000803e3d6000fd5b505050506040513d601f19601f82011682018060405250810190612a1e9190615659565b801580612f6e5750604051636eb1769f60e11b81523060048201526001600160a01b03838116602483015284169063dd62ed3e90604401602060405180830381865afa158015612f48573d6000803e3d6000fd5b505050506040513d601f19601f82011682018060405250810190612f6c9190614d33565b155b612fd95760405162461bcd60e51b815260206004820152603660248201527f5361666545524332303a20617070726f76652066726f6d206e6f6e2d7a65726f60448201527520746f206e6f6e2d7a65726f20616c6c6f77616e636560501b6064820152608401610a1e565b6122708363095ea7b360e01b848460405160240161223992919061542a565b60608161300681601f614e6c565b10156130455760405162461bcd60e51b815260206004820152600e60248201526d736c6963655f6f766572666c6f7760901b6044820152606401610a1e565b61304f8284614e6c565b845110156130935760405162461bcd60e51b8152602060048201526011602482015270736c6963655f6f75744f66426f756e647360781b6044820152606401610a1e565b6060821580156130b257604051915060008252602082016040526130fc565b6040519150601f8416801560200281840101858101878315602002848b0101015b818310156130eb5780518352602092830192016130d3565b5050858452601f01601f1916604052505b50949350505050565b6000606060008060008661ffff166001600160401b0381111561312a5761312a614926565b6040519080825280601f01601f191660200182016040528015613154576020820181803683370190505b50905060008087516020890160008d8df191503d925086831115613176578692505b828152826000602083013e9093509150505b94509492505050565b8180519060200120609760008761ffff1661ffff168152602001908152602001600020856040516131c2919061520a565b9081526040805191829003602090810183206001600160401b0388166000908152915220919091557fe183f33de2837795525b4792ca4cd60535bd77c53b7e7030060bfcf5734d6b0c9061321f9087908790879087908790615676565b60405180910390a15050505050565b6000613283826040518060400160405280602081526020017f5361666545524332303a206c6f772d6c6576656c2063616c6c206661696c6564815250856001600160a01b0316613c6b9092919063ffffffff16565b90508051600014806132a45750808060200190518101906132a49190615659565b6122705760405162461bcd60e51b815260206004820152602a60248201527f5361666545524332303a204552433230206f7065726174696f6e20646964206e6044820152691bdd081cdd58d8d9595960b21b6064820152608401610a1e565b604051630c00007b60e41b81526000805160206158a48339815191529063c00007b0906133349030906004016147a2565b600060405180830381600087803b15801561334e57600080fd5b505af1158015613362573d6000803e3d6000fd5b50506040516370a0823160e01b8152611294925073940181a94a35a4569e4529a3cdfb74e38fd9863191506370a08231906133a19030906004016147a2565b602060405180830381865afa1580156133be573d6000803e3d6000fd5b505050506040513d601f19601f820116820180604052508101906133e29190614d33565b613c7a565b60008080806000805160206158c483398151915263ce700c296000805160206158648339815191526000805160206158e4833981519152600160008051602061588483398151915261343a60028c614e4a565b600261344b8d64e8d4a51000615443565b6134559190614e4a565b6040516001600160e01b031960e089901b1681526001600160a01b0396871660048201529486166024860152921515604485015293166064830152608482019290925260a481019190915260c401606060405180830381865afa1580156134c0573d6000803e3d6000fd5b505050506040513d601f19601f820116820180604052508101906134e4919061545a565b5090925090506134f964e8d4a5100082614e4a565b905060006135078383614e6c565b9050806135148488615443565b61351e9190614e4a565b945061352a8587614e7f565b9350505050915091565b604080516001808252818301909252600091816020015b613553614679565b81526020019060019003908161354b5790505090506000805160206158648339815191528160008151811061358a5761358a614f96565b6020026020010151600001906001600160a01b031690816001600160a01b0316815250506000805160206158e4833981519152816000815181106135d0576135d0614f96565b6020026020010151602001906001600160a01b031690816001600160a01b03168152505060018160008151811061360957613609614f96565b602002602001015160400190151590811515815250506000805160206158848339815191528160008151811061364157613641614f96565b6020026020010151606001906001600160a01b031690816001600160a01b031681525050600061271060cc54846136789190615443565b6136829190614e4a565b6136919064e8d4a51000615443565b60405163cac88ea960e01b81529091506000805160206158c48339815191529063cac88ea9906136cd90869085908790309042906004016156c8565b6000604051808303816000875af11580156136ec573d6000803e3d6000fd5b505050506040513d6000823e601f3d908101601f191682016040526137149190810190615030565b50505050565b60008060006137298585613dd7565b9150915061373681613e1c565b5090505b92915050565b60405163324b78fb60e21b815260009081906000805160206158c48339815191529063c92de3ec906137a990600080516020615864833981519152906000805160206158e483398151915290600190600080516020615884833981519152908a90600401614ddd565b6040805180830381865afa1580156137c5573d6000803e3d6000fd5b505050506040513d601f19601f820116820180604052508101906137e99190614e10565b60cc549193509150612710906137ff9084615443565b6138099190614e4a565b915061271060cc548261381c9190615443565b6138269190614e4a565b9050915091565b604080516001808252818301909252600091816020015b61384c614679565b8152602001906001900390816138445790505090506000805160206158e48339815191528160008151811061388357613883614f96565b6020026020010151600001906001600160a01b031690816001600160a01b031681525050600080516020615864833981519152816000815181106138c9576138c9614f96565b6020026020010151602001906001600160a01b031690816001600160a01b03168152505060018160008151811061390257613902614f96565b602002602001015160400190151590811515815250506000805160206158848339815191528160008151811061393a5761393a614f96565b6020026020010151606001906001600160a01b031690816001600160a01b031681525050600064e8d4a5100061271060cc54856139779190615443565b6139819190614e4a565b6136919190614e4a565b60ca546040516370a0823160e01b8152600091829182916001600160a01b0316906370a08231906139c09030906004016147a2565b602060405180830381865afa1580156139dd573d6000803e3d6000fd5b505050506040513d601f19601f82011682018060405250810190613a019190614d33565b9050838110613a1557509192600092509050565b613a27613a228286614e7f565b613f61565b60ca546040516370a0823160e01b81526001600160a01b03909116906370a0823190613a579030906004016147a2565b602060405180830381865afa158015613a74573d6000803e3d6000fd5b505050506040513d601f19601f82011682018060405250810190613a989190614d33565b905080841115613ab657915081613aaf8185614e7f565b9150613aba565b8392505b50915091565b6000818310613acf5781611761565b5090919050565b60408051600160f01b6020820152620f424060228083019190915282518083039091018152604290910190915290565b600081806020019051810190613b1c9190615704565b90506003816004811115613b3257613b32614eab565b03613b8557600082806020019051810190613b4d9190615725565b915050613b5d8160000151612275565b80516040519081526000805160206159048339815191529060200160405180910390a1505050565b6000816004811115613b9957613b99614eab565b03613bc057600082806020019051810190613bb49190615768565b91505061227081613fba565b6004816004811115613bd457613bd4614eab565b03613c2f57600082806020019051810190613bef91906157d3565b915050613bff81600001516140e4565b80516040517f7c9a2d2ec51230d7dbed27f113a325b7e20aef7b049e68b2339257b5edff5bea916119b0916147a2565b5050565b600054610100900460ff16613c5a5760405162461bcd60e51b8152600401610a1e906155eb565b613c62614123565b610bf781614153565b6060610ea4848460008561419c565b80600003613c855750565b604080516001808252818301909252600091816020015b613ca4614679565b815260200190600190039081613c9c57905050905073940181a94a35a4569e4529a3cdfb74e38fd9863181600081518110613ce157613ce1614f96565b6020026020010151600001906001600160a01b031690816001600160a01b03168152505060008051602061586483398151915281600081518110613d2757613d27614f96565b6020026020010151602001906001600160a01b031690816001600160a01b031681525050600081600081518110613d6057613d60614f96565b6020026020010151604001901515908115158152505060008051602061588483398151915281600081518110613d9857613d98614f96565b6020026020010151606001906001600160a01b031690816001600160a01b031681525050600061271060cc54613dcd85611768565b6139819190615443565b6000808251604103613e0d5760208301516040840151606085015160001a613e0187828585614277565b94509450505050613e15565b506000905060025b9250929050565b6000816004811115613e3057613e30614eab565b03613e385750565b6001816004811115613e4c57613e4c614eab565b03613e945760405162461bcd60e51b815260206004820152601860248201527745434453413a20696e76616c6964207369676e617475726560401b6044820152606401610a1e565b6002816004811115613ea857613ea8614eab565b03613ef55760405162461bcd60e51b815260206004820152601f60248201527f45434453413a20696e76616c6964207369676e6174757265206c656e677468006044820152606401610a1e565b6003816004811115613f0957613f09614eab565b03610bf75760405162461bcd60e51b815260206004820152602260248201527f45434453413a20696e76616c6964207369676e6174757265202773272076616c604482015261756560f01b6064820152608401610a1e565b80600003613f6c5750565b80613f7861075c6115da565b10613f8557610bf7613303565b6000613faf613f9561051b611fd0565b613fa061075c6115da565b613faa9085614e7f565b613ac0565b9050613c2f8161432e565b602080820151600090815260cf909152604090205460ff161561401f5760405162461bcd60e51b815260206004820152601e60248201527f4261736553747261746567793a3a416c726561647957697468647261776e00006044820152606401610a1e565b60008061402f836000015161398b565b91509150600060016040518060800160405280306001600160a01b031681526020018581526020018481526020018660200151815250604051602001614076929190615821565b60408051601f19818403018152919052905082156140b75760cb546140b290849061ffff600160a01b820416906001600160a01b031684612930565b6140c0565b6140c081612a2a565b505050602090810151600090815260cf90915260409020805460ff19166001179055565b6140ed816145b9565b60ca546040516370a0823160e01b8152610bf79183916001600160a01b03909116906370a08231906115869030906004016147a2565b600054610100900460ff1661414a5760405162461bcd60e51b8152600401610a1e906155eb565b61129433612cc0565b600054610100900460ff1661417a5760405162461bcd60e51b8152600401610a1e906155eb565b606580546001600160a01b0319166001600160a01b0392909216919091179055565b6060824710156141fd5760405162461bcd60e51b815260206004820152602660248201527f416464726573733a20696e73756666696369656e742062616c616e636520666f6044820152651c8818d85b1b60d21b6064820152608401610a1e565b600080866001600160a01b03168587604051614219919061520a565b60006040518083038185875af1925050503d8060008114614256576040519150601f19603f3d011682016040523d82523d6000602084013e61425b565b606091505b509150915061426c878383876145dd565b979650505050505050565b6000806fa2a8918ca85bafe22016d0b997e4df60600160ff1b038311156142a45750600090506003613188565b6040805160008082526020820180845289905260ff881692820192909252606081018690526080810185905260019060a0016020604051602081039080840390855afa1580156142f8573d6000803e3d6000fd5b5050604051601f1901519150506001600160a01b03811661432157600060019250925050613188565b9660009650945050505050565b614336613303565b6000614341826133e7565b506040516370a0823160e01b8152909150600090600080516020615864833981519152906370a082319061438d90736eab8c1b93f5799dadf2c687a30230a540dbd636906004016147a2565b602060405180830381865afa1580156143aa573d6000803e3d6000fd5b505050506040513d601f19601f820116820180604052508101906143ce9190614d33565b736eab8c1b93f5799dadf2c687a30230a540dbd6366001600160a01b03166318160ddd6040518163ffffffff1660e01b8152600401602060405180830381865afa158015614420573d6000803e3d6000fd5b505050506040513d601f19601f820116820180604052508101906144449190614d33565b61444e9084615443565b6144589190614e4a565b9050614462611fd0565b81111561447457614471611fd0565b90505b604051632e1a7d4d60e01b8152600481018290526000805160206158a483398151915290632e1a7d4d90602401600060405180830381600087803b1580156144bb57600080fd5b505af11580156144cf573d6000803e3d6000fd5b505050506000806144df83613740565b60405163037b79b160e21b815291935091506000805160206158c483398151915290630dede6c49061454090600080516020615864833981519152906000805160206158e48339815191529060019089908990899030904290600401615488565b60408051808303816000875af115801561455e573d6000803e3d6000fd5b505050506040513d601f19601f820116820180604052508101906145829190614e10565b50506040516370a0823160e01b8152610b0b906000805160206158e4833981519152906370a082319061277a9030906004016147a2565b60006145c361261e565b60ca54909150613c2f906001600160a01b0316838361221a565b6060831561464a578251600003614643576145f785612d12565b6146435760405162461bcd60e51b815260206004820152601d60248201527f416464726573733a2063616c6c20746f206e6f6e2d636f6e74726163740000006044820152606401610a1e565b5081610ea4565b610ea4838381511561465f5781518083602001fd5b8060405162461bcd60e51b8152600401610a1e9190614806565b60408051608081018252600080825260208201819052918101829052606081019190915290565b803561ffff811681146146b257600080fd5b919050565b60008083601f8401126146c957600080fd5b5081356001600160401b038111156146e057600080fd5b602083019150836020828501011115613e1557600080fd5b80356001600160401b03811681146146b257600080fd5b6000806000806000806080878903121561472857600080fd5b614731876146a0565b955060208701356001600160401b038082111561474d57600080fd5b6147598a838b016146b7565b909750955085915061476d60408a016146f8565b9450606089013591508082111561478357600080fd5b5061479089828a016146b7565b979a9699509497509295939492505050565b6001600160a01b0391909116815260200190565b60005b838110156147d15781810151838201526020016147b9565b50506000910152565b600081518084526147f28160208601602086016147b6565b601f01601f19169290920160200192915050565b60208152600061176160208301846147da565b60006020828403121561482b57600080fd5b611761826146a0565b6000806040838503121561484757600080fd5b614850836146a0565b946020939093013593505050565b6001600160a01b0381168114610bf757600080fd5b60006020828403121561488557600080fd5b81356117618161485e565b6000602082840312156148a257600080fd5b5035919050565b6000806000604084860312156148be57600080fd5b6148c7846146a0565b925060208401356001600160401b038111156148e257600080fd5b6148ee868287016146b7565b9497909650939450505050565b8015158114610bf757600080fd5b60006020828403121561491b57600080fd5b8135611761816148fb565b634e487b7160e01b600052604160045260246000fd5b604051602081016001600160401b038111828210171561495e5761495e614926565b60405290565b604051601f8201601f191681016001600160401b038111828210171561498c5761498c614926565b604052919050565b60006001600160401b038211156149ad576149ad614926565b50601f01601f191660200190565b600082601f8301126149cc57600080fd5b81356149df6149da82614994565b614964565b8181528460208386010111156149f457600080fd5b816020850160208301376000918101602001919091529392505050565b600080600080600060a08688031215614a2957600080fd5b8535945060208601359350604086013592506060860135915060808601356001600160401b03811115614a5b57600080fd5b614a67888289016149bb565b9150509295509295909350565b600080600060608486031215614a8957600080fd5b614a92846146a0565b925060208401356001600160401b03811115614aad57600080fd5b614ab9868287016149bb565b925050614ac8604085016146f8565b90509250925092565b600080600080600080600080610100898b031215614aee57600080fd5b8835614af98161485e565b97506020890135614b098161485e565b96506040890135614b198161485e565b95506060890135614b298161485e565b9450614b3760808a016146a0565b935060a0890135614b478161485e565b925060c0890135614b578161485e565b8092505060e089013590509295985092959890939650565b60008060408385031215614b8257600080fd5b614b8b836146a0565b9150614b99602084016146a0565b90509250929050565b60008060008060008060c08789031215614bbb57600080fd5b614bc4876146a0565b955060208701356001600160401b0380821115614be057600080fd5b614bec8a838b016149bb565b96506040890135955060608901359150614c058261485e565b9093506080880135925060a08801359080821115614c2257600080fd5b50614c2f89828a016149bb565b9150509295509295509295565b600080600080600060808688031215614c5457600080fd5b614c5d866146a0565b9450614c6b602087016146a0565b93506040860135925060608601356001600160401b03811115614c8d57600080fd5b614c99888289016146b7565b969995985093965092949392505050565b600080600060608486031215614cbf57600080fd5b614cc8846146a0565b9250614cd6602085016146a0565b9150604084013590509250925092565b60008060008060808587031215614cfc57600080fd5b614d05856146a0565b9350614d13602086016146a0565b92506040850135614d238161485e565b9396929550929360600135925050565b600060208284031215614d4557600080fd5b5051919050565b600181811c90821680614d6057607f821691505b602082108103614d8057634e487b7160e01b600052602260045260246000fd5b50919050565b8183823760009101908152919050565b81835281816020850137506000828201602090810191909152601f909101601f19169091010190565b61ffff8416815260406020820152600061208e604083018486614d96565b6001600160a01b039586168152938516602085015291151560408401529092166060820152608081019190915260a00190565b60008060408385031215614e2357600080fd5b505080516020909101519092909150565b634e487b7160e01b600052601160045260246000fd5b600082614e6757634e487b7160e01b600052601260045260246000fd5b500490565b8082018082111561373a5761373a614e34565b8181038181111561373a5761373a614e34565b600060018201614ea457614ea4614e34565b5060010190565b634e487b7160e01b600052602160045260246000fd5b60058110614edf57634e487b7160e01b600052602160045260246000fd5b9052565b614eed8184614ec1565b60406020820152614f0a6040820183516001600160a01b03169052565b6020820151606082015260408201516080820152606082015160a0820152608082015160c082015260a082015160e0820152600060c0830151610100818185015260e0850151915061012082818601528186015192506101409150828286015280860151925050610160828186015281860151925080610180860152505061208e6101a08401826147da565b634e487b7160e01b600052603260045260246000fd5b600081518084526020808501945080840160005b8381101561500c57815180516001600160a01b039081168952848201518116858a01526040808301511515908a0152606091820151169088015260809096019590820190600101614fc0565b509495945050505050565b828152604060208201526000610ea46040830184614fac565b6000602080838503121561504357600080fd5b82516001600160401b038082111561505a57600080fd5b818501915085601f83011261506e57600080fd5b81518181111561508057615080614926565b8060051b9150615091848301614964565b81815291830184019184810190888411156150ab57600080fd5b938501935b838510156150c9578451825293850193908501906150b0565b98975050505050505050565b8284823760609190911b6001600160601b0319169101908152601401919050565b601f82111561227057600081815260208120601f850160051c8101602086101561511d5750805b601f850160051c820191505b81811015610a9d57828155600101615129565b600019600383901b1c191660019190911b1790565b81516001600160401b0381111561516a5761516a614926565b61517e816151788454614d4c565b846150f6565b602080601f8311600181146151ad576000841561519b5750858301515b6151a5858261513c565b865550610a9d565b600085815260208120601f198616915b828110156151dc578886015182559484019460019091019084016151bd565b50858210156151fa5787850151600019600388901b60f8161c191681555b5050505050600190811b01905550565b6000825161521c8184602087016147b6565b9190910192915050565b805160208201516001600160601b031980821692919060148310156152555780818460140360031b1b83161693505b505050919050565b600061ffff80881683528087166020840152508460408301526080606083015261426c608083018486614d96565b61ffff861681526080602082015260006152a9608083018688614d96565b6001600160401b0394909416604083015250606001529392505050565b6001600160401b038311156152dd576152dd614926565b6152f1836152eb8354614d4c565b836150f6565b6000601f84116001811461531f576000851561530d5750838201355b615317868261513c565b845550610b0b565b600083815260209020601f19861690835b828110156153505786850135825560209485019460019092019101615330565b508682101561536d5760001960f88860031b161c19848701351681555b505060018560011b0183555050505050565b60006020828403121561539157600080fd5b81516001600160401b038111156153a757600080fd5b8201601f810184136153b857600080fd5b80516153c66149da82614994565b8181528560208385010111156153db57600080fd5b61208e8260208301602086016147b6565b61ffff8516815260806020820152600061540960808301866147da565b6001600160401b0385166040840152828103606084015261426c81856147da565b6001600160a01b03929092168252602082015260400190565b808202811582820484141761373a5761373a614e34565b60008060006060848603121561546f57600080fd5b8351925060208401519150604084015190509250925092565b6001600160a01b039889168152968816602088015294151560408701526060860193909352608085019190915260a084015290921660c082015260e08101919091526101000190565b61ffff841681526001600160a01b038316602082015260606040820181905260009061208e908301846147da565b6001600160a01b0386811682526020820186905261ffff851660408301528316606082015260a06080820181905260009061426c908301846147da565b61ffff861681526001600160a01b038516602082015260a06040820181905260009061556a908301866147da565b841515606084015282810360808401526150c981856147da565b61ffff8716815260c0602082015260006155a160c08301886147da565b82810360408401526155b381886147da565b6001600160a01b0387811660608601528616608085015283810360a085015290506155de81856147da565b9998505050505050505050565b6020808252602b908201527f496e697469616c697a61626c653a20636f6e7472616374206973206e6f74206960408201526a6e697469616c697a696e6760a81b606082015260800190565b60006020828403121561564857600080fd5b815160ff8116811461176157600080fd5b60006020828403121561566b57600080fd5b8151611761816148fb565b61ffff8616815260a06020820152600061569360a08301876147da565b6001600160401b038616604084015282810360608401526156b481866147da565b905082810360808401526150c981856147da565b85815284602082015260a0604082015260006156e760a0830186614fac565b6001600160a01b0394909416606083015250608001529392505050565b60006020828403121561571657600080fd5b81516005811061176157600080fd5b600080828403604081121561573957600080fd5b835192506020601f198201121561574f57600080fd5b5061575861493c565b6020939093015183525092909150565b600080828403606081121561577c57600080fd5b835192506040601f198201121561579257600080fd5b50604080519081016001600160401b03811182821017156157b5576157b5614926565b60409081526020858101518352940151938101939093525092909150565b60008082840360408112156157e757600080fd5b835192506020601f19820112156157fd57600080fd5b5061580661493c565b60208401516158148161485e565b8152919491935090915050565b60a0810161582f8285614ec1565b60018060a01b038351166020830152602083015160408301526040830151606083015260608301516080830152939250505056fe000000000000000000000000d9aaec86b65d86f6a7b5b1b0c42ffa531710b6ca000000000000000000000000420dd381b31aef6683db6b902084cb0ffece40da000000000000000000000000cf1d5aa63083fda05c7f8871a9fdbfed7ba49060000000000000000000000000cf77a3ba9a5ca399b7c97c74d54e5b1beb874e4300000000000000000000000050c5725949a6f0c72e6c4a641f24049a917db0cbb0c58532a125fc3c0adccaef396bf65344a4d5781cec2e4c593e6b611d75f150a264697066735822122094dc08ad85952318c73bfa47f43ede9ed1faafd4aa3d9c85b0ff7eda08054b3464736f6c63430008130033",
  "linkReferences": {},
  "deployedLinkReferences": {}
}