{
  "_format": "hh-sol-artifact-1",
  "contractName": "AeroStrategy",
  "sourceName": "contracts/strategies/AeroStrategy.sol",
  "abi": [
    {
      "inputs": [
        {
          "internalType": "uint256",
          "name": "messageType",
          "type": "uint256"
        }
      ],
      "name": "IncorrectMessageType",
      "type": "error"
    },
    {
      "inputs": [
        {
          "internalType": "uint256",
          "name": "amount",
          "type": "uint256"
        },
        {
          "internalType": "uint256",
          "name": "balance",
          "type": "uint256"
        }
      ],
      "name": "InsufficientFunds",
      "type": "error"
    },
    {
      "anonymous": false,
      "inputs": [
        {
          "indexed": false,
          "internalType": "uint256",
          "name": "debtOutstanding",
          "type": "uint256"
        }
      ],
      "name": "AdjustedPosition",
      "type": "event"
    },
    {
      "anonymous": false,
      "inputs": [
        {
          "indexed": false,
          "internalType": "uint8",
          "name": "version",
          "type": "uint8"
        }
      ],
      "name": "Initialized",
      "type": "event"
    },
    {
      "anonymous": false,
      "inputs": [
        {
          "indexed": false,
          "internalType": "uint16",
          "name": "_srcChainId",
          "type": "uint16"
        },
        {
          "indexed": false,
          "internalType": "bytes",
          "name": "_srcAddress",
          "type": "bytes"
        },
        {
          "indexed": false,
          "internalType": "uint64",
          "name": "_nonce",
          "type": "uint64"
        },
        {
          "indexed": false,
          "internalType": "bytes",
          "name": "_payload",
          "type": "bytes"
        },
        {
          "indexed": false,
          "internalType": "bytes",
          "name": "_reason",
          "type": "bytes"
        }
      ],
      "name": "MessageFailed",
      "type": "event"
    },
    {
      "anonymous": false,
      "inputs": [
        {
          "indexed": true,
          "internalType": "address",
          "name": "previousOwner",
          "type": "address"
        },
        {
          "indexed": true,
          "internalType": "address",
          "name": "newOwner",
          "type": "address"
        }
      ],
      "name": "OwnershipTransferred",
      "type": "event"
    },
    {
      "anonymous": false,
      "inputs": [
        {
          "indexed": false,
          "internalType": "uint16",
          "name": "_srcChainId",
          "type": "uint16"
        },
        {
          "indexed": false,
          "internalType": "bytes",
          "name": "_srcAddress",
          "type": "bytes"
        },
        {
          "indexed": false,
          "internalType": "uint64",
          "name": "_nonce",
          "type": "uint64"
        },
        {
          "indexed": false,
          "internalType": "bytes32",
          "name": "_payloadHash",
          "type": "bytes32"
        }
      ],
      "name": "RetryMessageSuccess",
      "type": "event"
    },
    {
      "anonymous": false,
      "inputs": [
        {
          "indexed": false,
          "internalType": "uint16",
          "name": "_dstChainId",
          "type": "uint16"
        },
        {
          "indexed": false,
          "internalType": "uint16",
          "name": "_type",
          "type": "uint16"
        },
        {
          "indexed": false,
          "internalType": "uint256",
          "name": "_minDstGas",
          "type": "uint256"
        }
      ],
      "name": "SetMinDstGas",
      "type": "event"
    },
    {
      "anonymous": false,
      "inputs": [
        {
          "indexed": false,
          "internalType": "address",
          "name": "precrime",
          "type": "address"
        }
      ],
      "name": "SetPrecrime",
      "type": "event"
    },
    {
      "anonymous": false,
      "inputs": [
        {
          "indexed": false,
          "internalType": "uint16",
          "name": "_remoteChainId",
          "type": "uint16"
        },
        {
          "indexed": false,
          "internalType": "bytes",
          "name": "_path",
          "type": "bytes"
        }
      ],
      "name": "SetTrustedRemote",
      "type": "event"
    },
    {
      "anonymous": false,
      "inputs": [
        {
          "indexed": false,
          "internalType": "uint16",
          "name": "_remoteChainId",
          "type": "uint16"
        },
        {
          "indexed": false,
          "internalType": "bytes",
          "name": "_remoteAddress",
          "type": "bytes"
        }
      ],
      "name": "SetTrustedRemoteAddress",
      "type": "event"
    },
    {
      "anonymous": false,
      "inputs": [
        {
          "indexed": true,
          "internalType": "address",
          "name": "token",
          "type": "address"
        },
        {
          "indexed": false,
          "internalType": "uint256",
          "name": "amount",
          "type": "uint256"
        },
        {
          "indexed": false,
          "internalType": "address",
          "name": "sender",
          "type": "address"
        }
      ],
      "name": "SgReceived",
      "type": "event"
    },
    {
      "anonymous": false,
      "inputs": [
        {
          "indexed": false,
          "internalType": "address",
          "name": "newStrategy",
          "type": "address"
        }
      ],
      "name": "StrategyMigrated",
      "type": "event"
    },
    {
      "anonymous": false,
      "inputs": [
        {
          "indexed": false,
          "internalType": "uint256",
          "name": "profit",
          "type": "uint256"
        },
        {
          "indexed": false,
          "internalType": "uint256",
          "name": "loss",
          "type": "uint256"
        },
        {
          "indexed": false,
          "internalType": "uint256",
          "name": "debtPayment",
          "type": "uint256"
        },
        {
          "indexed": false,
          "internalType": "uint256",
          "name": "giveToStrategy",
          "type": "uint256"
        },
        {
          "indexed": false,
          "internalType": "uint256",
          "name": "requestFromStrategy",
          "type": "uint256"
        },
        {
          "indexed": false,
          "internalType": "uint256",
          "name": "creditAvailable",
          "type": "uint256"
        },
        {
          "indexed": false,
          "internalType": "uint256",
          "name": "totalAssets",
          "type": "uint256"
        }
      ],
      "name": "StrategyReported",
      "type": "event"
    },
    {
      "inputs": [
        {
          "internalType": "uint256",
          "name": "amountIn",
          "type": "uint256"
        }
      ],
      "name": "AeroToWant",
      "outputs": [
        {
          "internalType": "uint256",
          "name": "amountOut",
          "type": "uint256"
        }
      ],
      "stateMutability": "view",
      "type": "function"
    },
    {
      "inputs": [],
      "name": "DEFAULT_PAYLOAD_SIZE_LIMIT",
      "outputs": [
        {
          "internalType": "uint256",
          "name": "",
          "type": "uint256"
        }
      ],
      "stateMutability": "view",
      "type": "function"
    },
    {
      "inputs": [],
      "name": "DEFAULT_SLIPPAGE",
      "outputs": [
        {
          "internalType": "uint256",
          "name": "",
          "type": "uint256"
        }
      ],
      "stateMutability": "view",
      "type": "function"
    },
    {
      "inputs": [
        {
          "internalType": "uint256",
          "name": "amountIn",
          "type": "uint256"
        }
      ],
      "name": "LpToWant",
      "outputs": [
        {
          "internalType": "uint256",
          "name": "amountOut",
          "type": "uint256"
        }
      ],
      "stateMutability": "view",
      "type": "function"
    },
    {
      "inputs": [
        {
          "internalType": "uint256",
          "name": "_debtOutstanding",
          "type": "uint256"
        }
      ],
      "name": "adjustPosition",
      "outputs": [],
      "stateMutability": "nonpayable",
      "type": "function"
    },
    {
      "inputs": [],
      "name": "balanceOfStaked",
      "outputs": [
        {
          "internalType": "uint256",
          "name": "amount",
          "type": "uint256"
        }
      ],
      "stateMutability": "view",
      "type": "function"
    },
    {
      "inputs": [],
      "name": "balanceOfWant",
      "outputs": [
        {
          "internalType": "uint256",
          "name": "",
          "type": "uint256"
        }
      ],
      "stateMutability": "view",
      "type": "function"
    },
    {
      "inputs": [
        {
          "internalType": "uint256",
          "name": "epoch",
          "type": "uint256"
        }
      ],
      "name": "callMe",
      "outputs": [],
      "stateMutability": "nonpayable",
      "type": "function"
    },
    {
      "inputs": [],
      "name": "clearWant",
      "outputs": [],
      "stateMutability": "nonpayable",
      "type": "function"
    },
    {
      "inputs": [],
      "name": "currentChainId",
      "outputs": [
        {
          "internalType": "uint16",
          "name": "",
          "type": "uint16"
        }
      ],
      "stateMutability": "view",
      "type": "function"
    },
    {
      "inputs": [],
      "name": "emergencyExit",
      "outputs": [
        {
          "internalType": "bool",
          "name": "",
          "type": "bool"
        }
      ],
      "stateMutability": "view",
      "type": "function"
    },
    {
      "inputs": [],
      "name": "estimatedTotalAssets",
      "outputs": [
        {
          "internalType": "uint256",
          "name": "",
          "type": "uint256"
        }
      ],
      "stateMutability": "view",
      "type": "function"
    },
    {
      "inputs": [
        {
          "internalType": "uint16",
          "name": "",
          "type": "uint16"
        },
        {
          "internalType": "bytes",
          "name": "",
          "type": "bytes"
        },
        {
          "internalType": "uint64",
          "name": "",
          "type": "uint64"
        }
      ],
      "name": "failedMessages",
      "outputs": [
        {
          "internalType": "bytes32",
          "name": "",
          "type": "bytes32"
        }
      ],
      "stateMutability": "view",
      "type": "function"
    },
    {
      "inputs": [
        {
          "internalType": "uint16",
          "name": "_srcChainId",
          "type": "uint16"
        },
        {
          "internalType": "bytes",
          "name": "_srcAddress",
          "type": "bytes"
        }
      ],
      "name": "forceResumeReceive",
      "outputs": [],
      "stateMutability": "nonpayable",
      "type": "function"
    },
    {
      "inputs": [
        {
          "internalType": "uint16",
          "name": "_version",
          "type": "uint16"
        },
        {
          "internalType": "uint16",
          "name": "_chainId",
          "type": "uint16"
        },
        {
          "internalType": "address",
          "name": "",
          "type": "address"
        },
        {
          "internalType": "uint256",
          "name": "_configType",
          "type": "uint256"
        }
      ],
      "name": "getConfig",
      "outputs": [
        {
          "internalType": "bytes",
          "name": "",
          "type": "bytes"
        }
      ],
      "stateMutability": "view",
      "type": "function"
    },
    {
      "inputs": [
        {
          "internalType": "bytes32",
          "name": "_messageHash",
          "type": "bytes32"
        }
      ],
      "name": "getEthSignedMessageHash",
      "outputs": [
        {
          "internalType": "bytes32",
          "name": "",
          "type": "bytes32"
        }
      ],
      "stateMutability": "pure",
      "type": "function"
    },
    {
      "inputs": [
        {
          "internalType": "uint16",
          "name": "_remoteChainId",
          "type": "uint16"
        }
      ],
      "name": "getTrustedRemoteAddress",
      "outputs": [
        {
          "internalType": "bytes",
          "name": "",
          "type": "bytes"
        }
      ],
      "stateMutability": "view",
      "type": "function"
    },
    {
      "inputs": [
        {
          "internalType": "uint256",
          "name": "_totalDebt",
          "type": "uint256"
        },
        {
          "internalType": "uint256",
          "name": "_debtOutstanding",
          "type": "uint256"
        },
        {
          "internalType": "uint256",
          "name": "_creditAvailable",
          "type": "uint256"
        },
        {
          "internalType": "uint256",
          "name": "_debtRatio",
          "type": "uint256"
        },
        {
          "internalType": "bytes",
          "name": "_signature",
          "type": "bytes"
        }
      ],
      "name": "harvest",
      "outputs": [],
      "stateMutability": "nonpayable",
      "type": "function"
    },
    {
      "inputs": [
        {
          "internalType": "address",
          "name": "_lzEndpoint",
          "type": "address"
        },
        {
          "internalType": "address",
          "name": "_strategist",
          "type": "address"
        },
        {
          "internalType": "contract IERC20",
          "name": "_want",
          "type": "address"
        },
        {
          "internalType": "address",
          "name": "_vault",
          "type": "address"
        },
        {
          "internalType": "uint16",
          "name": "_vaultChainId",
          "type": "uint16"
        },
        {
          "internalType": "uint16",
          "name": "_currentChainId",
          "type": "uint16"
        },
        {
          "internalType": "address",
          "name": "_sgBridge",
          "type": "address"
        },
        {
          "internalType": "address",
          "name": "_router",
          "type": "address"
        }
      ],
      "name": "initialize",
      "outputs": [],
      "stateMutability": "nonpayable",
      "type": "function"
    },
    {
      "inputs": [
        {
          "internalType": "uint16",
          "name": "_srcChainId",
          "type": "uint16"
        },
        {
          "internalType": "bytes",
          "name": "_srcAddress",
          "type": "bytes"
        }
      ],
      "name": "isTrustedRemote",
      "outputs": [
        {
          "internalType": "bool",
          "name": "",
          "type": "bool"
        }
      ],
      "stateMutability": "view",
      "type": "function"
    },
    {
      "inputs": [],
      "name": "lzEndpoint",
      "outputs": [
        {
          "internalType": "contract ILayerZeroEndpointUpgradeable",
          "name": "",
          "type": "address"
        }
      ],
      "stateMutability": "view",
      "type": "function"
    },
    {
      "inputs": [
        {
          "internalType": "uint16",
          "name": "_srcChainId",
          "type": "uint16"
        },
        {
          "internalType": "bytes",
          "name": "_srcAddress",
          "type": "bytes"
        },
        {
          "internalType": "uint64",
          "name": "_nonce",
          "type": "uint64"
        },
        {
          "internalType": "bytes",
          "name": "_payload",
          "type": "bytes"
        }
      ],
      "name": "lzReceive",
      "outputs": [],
      "stateMutability": "nonpayable",
      "type": "function"
    },
    {
      "inputs": [
        {
          "internalType": "uint16",
          "name": "",
          "type": "uint16"
        },
        {
          "internalType": "uint16",
          "name": "",
          "type": "uint16"
        }
      ],
      "name": "minDstGasLookup",
      "outputs": [
        {
          "internalType": "uint256",
          "name": "",
          "type": "uint256"
        }
      ],
      "stateMutability": "view",
      "type": "function"
    },
    {
      "inputs": [],
      "name": "name",
      "outputs": [
        {
          "internalType": "string",
          "name": "",
          "type": "string"
        }
      ],
      "stateMutability": "pure",
      "type": "function"
    },
    {
      "inputs": [
        {
          "internalType": "uint16",
          "name": "_srcChainId",
          "type": "uint16"
        },
        {
          "internalType": "bytes",
          "name": "_srcAddress",
          "type": "bytes"
        },
        {
          "internalType": "uint64",
          "name": "_nonce",
          "type": "uint64"
        },
        {
          "internalType": "bytes",
          "name": "_payload",
          "type": "bytes"
        }
      ],
      "name": "nonblockingLzReceive",
      "outputs": [],
      "stateMutability": "nonpayable",
      "type": "function"
    },
    {
      "inputs": [],
      "name": "owner",
      "outputs": [
        {
          "internalType": "address",
          "name": "",
          "type": "address"
        }
      ],
      "stateMutability": "view",
      "type": "function"
    },
    {
      "inputs": [
        {
          "internalType": "uint16",
          "name": "",
          "type": "uint16"
        }
      ],
      "name": "payloadSizeLimitLookup",
      "outputs": [
        {
          "internalType": "uint256",
          "name": "",
          "type": "uint256"
        }
      ],
      "stateMutability": "view",
      "type": "function"
    },
    {
      "inputs": [],
      "name": "precrime",
      "outputs": [
        {
          "internalType": "address",
          "name": "",
          "type": "address"
        }
      ],
      "stateMutability": "view",
      "type": "function"
    },
    {
      "inputs": [],
      "name": "renounceOwnership",
      "outputs": [],
      "stateMutability": "nonpayable",
      "type": "function"
    },
    {
      "inputs": [
        {
          "internalType": "uint16",
          "name": "_srcChainId",
          "type": "uint16"
        },
        {
          "internalType": "bytes",
          "name": "_srcAddress",
          "type": "bytes"
        },
        {
          "internalType": "uint64",
          "name": "_nonce",
          "type": "uint64"
        },
        {
          "internalType": "bytes",
          "name": "_payload",
          "type": "bytes"
        }
      ],
      "name": "retryMessage",
      "outputs": [],
      "stateMutability": "payable",
      "type": "function"
    },
    {
      "inputs": [],
      "name": "revokeFunds",
      "outputs": [],
      "stateMutability": "nonpayable",
      "type": "function"
    },
    {
      "inputs": [],
      "name": "rewards",
      "outputs": [
        {
          "internalType": "uint256",
          "name": "amount",
          "type": "uint256"
        }
      ],
      "stateMutability": "view",
      "type": "function"
    },
    {
      "inputs": [
        {
          "internalType": "uint16",
          "name": "_version",
          "type": "uint16"
        },
        {
          "internalType": "uint16",
          "name": "_chainId",
          "type": "uint16"
        },
        {
          "internalType": "uint256",
          "name": "_configType",
          "type": "uint256"
        },
        {
          "internalType": "bytes",
          "name": "_config",
          "type": "bytes"
        }
      ],
      "name": "setConfig",
      "outputs": [],
      "stateMutability": "nonpayable",
      "type": "function"
    },
    {
      "inputs": [
        {
          "internalType": "bool",
          "name": "_emergencyExit",
          "type": "bool"
        }
      ],
      "name": "setEmergencyExit",
      "outputs": [],
      "stateMutability": "nonpayable",
      "type": "function"
    },
    {
      "inputs": [
        {
          "internalType": "uint16",
          "name": "_dstChainId",
          "type": "uint16"
        },
        {
          "internalType": "uint16",
          "name": "_packetType",
          "type": "uint16"
        },
        {
          "internalType": "uint256",
          "name": "_minGas",
          "type": "uint256"
        }
      ],
      "name": "setMinDstGas",
      "outputs": [],
      "stateMutability": "nonpayable",
      "type": "function"
    },
    {
      "inputs": [
        {
          "internalType": "uint16",
          "name": "_dstChainId",
          "type": "uint16"
        },
        {
          "internalType": "uint256",
          "name": "_size",
          "type": "uint256"
        }
      ],
      "name": "setPayloadSizeLimit",
      "outputs": [],
      "stateMutability": "nonpayable",
      "type": "function"
    },
    {
      "inputs": [
        {
          "internalType": "address",
          "name": "_precrime",
          "type": "address"
        }
      ],
      "name": "setPrecrime",
      "outputs": [],
      "stateMutability": "nonpayable",
      "type": "function"
    },
    {
      "inputs": [
        {
          "internalType": "uint16",
          "name": "_version",
          "type": "uint16"
        }
      ],
      "name": "setReceiveVersion",
      "outputs": [],
      "stateMutability": "nonpayable",
      "type": "function"
    },
    {
      "inputs": [
        {
          "internalType": "uint16",
          "name": "_version",
          "type": "uint16"
        }
      ],
      "name": "setSendVersion",
      "outputs": [],
      "stateMutability": "nonpayable",
      "type": "function"
    },
    {
      "inputs": [
        {
          "internalType": "uint256",
          "name": "_slippage",
          "type": "uint256"
        }
      ],
      "name": "setSlippage",
      "outputs": [],
      "stateMutability": "nonpayable",
      "type": "function"
    },
    {
      "inputs": [
        {
          "internalType": "address",
          "name": "_strategist",
          "type": "address"
        }
      ],
      "name": "setStrategist",
      "outputs": [],
      "stateMutability": "nonpayable",
      "type": "function"
    },
    {
      "inputs": [
        {
          "internalType": "uint16",
          "name": "_srcChainId",
          "type": "uint16"
        },
        {
          "internalType": "bytes",
          "name": "_path",
          "type": "bytes"
        }
      ],
      "name": "setTrustedRemote",
      "outputs": [],
      "stateMutability": "nonpayable",
      "type": "function"
    },
    {
      "inputs": [
        {
          "internalType": "uint16",
          "name": "_remoteChainId",
          "type": "uint16"
        },
        {
          "internalType": "bytes",
          "name": "_remoteAddress",
          "type": "bytes"
        }
      ],
      "name": "setTrustedRemoteAddress",
      "outputs": [],
      "stateMutability": "nonpayable",
      "type": "function"
    },
    {
      "inputs": [],
      "name": "sgBridge",
      "outputs": [
        {
          "internalType": "contract ISgBridge",
          "name": "",
          "type": "address"
        }
      ],
      "stateMutability": "view",
      "type": "function"
    },
    {
      "inputs": [
        {
          "internalType": "uint16",
          "name": "",
          "type": "uint16"
        },
        {
          "internalType": "bytes",
          "name": "_srcAddress",
          "type": "bytes"
        },
        {
          "internalType": "uint256",
          "name": "",
          "type": "uint256"
        },
        {
          "internalType": "address",
          "name": "_token",
          "type": "address"
        },
        {
          "internalType": "uint256",
          "name": "_amountLD",
          "type": "uint256"
        },
        {
          "internalType": "bytes",
          "name": "",
          "type": "bytes"
        }
      ],
      "name": "sgReceive",
      "outputs": [],
      "stateMutability": "nonpayable",
      "type": "function"
    },
    {
      "inputs": [],
      "name": "sgRouter",
      "outputs": [
        {
          "internalType": "contract IStargateRouter",
          "name": "",
          "type": "address"
        }
      ],
      "stateMutability": "view",
      "type": "function"
    },
    {
      "inputs": [],
      "name": "slippage",
      "outputs": [
        {
          "internalType": "uint256",
          "name": "",
          "type": "uint256"
        }
      ],
      "stateMutability": "view",
      "type": "function"
    },
    {
      "inputs": [],
      "name": "strategist",
      "outputs": [
        {
          "internalType": "address",
          "name": "",
          "type": "address"
        }
      ],
      "stateMutability": "view",
      "type": "function"
    },
    {
      "inputs": [],
      "name": "strategistSignMessageHash",
      "outputs": [
        {
          "internalType": "bytes32",
          "name": "",
          "type": "bytes32"
        }
      ],
      "stateMutability": "view",
      "type": "function"
    },
    {
      "inputs": [
        {
          "internalType": "contract IERC20",
          "name": "_token",
          "type": "address"
        }
      ],
      "name": "sweepToken",
      "outputs": [],
      "stateMutability": "nonpayable",
      "type": "function"
    },
    {
      "inputs": [
        {
          "internalType": "address",
          "name": "newOwner",
          "type": "address"
        }
      ],
      "name": "transferOwnership",
      "outputs": [],
      "stateMutability": "nonpayable",
      "type": "function"
    },
    {
      "inputs": [
        {
          "internalType": "uint16",
          "name": "",
          "type": "uint16"
        }
      ],
      "name": "trustedRemoteLookup",
      "outputs": [
        {
          "internalType": "bytes",
          "name": "",
          "type": "bytes"
        }
      ],
      "stateMutability": "view",
      "type": "function"
    },
    {
      "inputs": [],
      "name": "vault",
      "outputs": [
        {
          "internalType": "address",
          "name": "",
          "type": "address"
        }
      ],
      "stateMutability": "view",
      "type": "function"
    },
    {
      "inputs": [],
      "name": "vaultChainId",
      "outputs": [
        {
          "internalType": "uint16",
          "name": "",
          "type": "uint16"
        }
      ],
      "stateMutability": "view",
      "type": "function"
    },
    {
      "inputs": [],
      "name": "want",
      "outputs": [
        {
          "internalType": "contract IERC20",
          "name": "",
          "type": "address"
        }
      ],
      "stateMutability": "view",
      "type": "function"
    },
    {
      "inputs": [],
      "name": "wantDecimals",
      "outputs": [
        {
          "internalType": "uint8",
          "name": "",
          "type": "uint8"
        }
      ],
      "stateMutability": "view",
      "type": "function"
    },
    {
      "stateMutability": "payable",
      "type": "receive"
    }
  ],
  "bytecode": "0x6080806040523461001657614f51908161001c8239f35b600080fdfe6080604052600436101561001b575b361561001957600080fd5b005b60003560e01c80621d35671461039a5780630517cb761461039557806306fdde031461039057806307e0db171461038b5780630df374831461038657806310ddb137146103815780631be195601461037c5780631cdb539f146103775780631f1fcd51146103725780631fe4a6861461036d5780632d6068431461036857806337fded91146103635780633d3ccc2f1461035e5780633d8b38f6146103595780633e032a3b146103545780633f1f4fa41461034f57806342d65a8d1461034a57806345ee07551461034557806346a7fe8b14610340578063495f881e1461033b5780635641ec0314610336578063567ad85d14610331578063593178de1461032c5780635b8c41e61461032757806366ad5c8a146103225780636cbadbfa1461031d578063715018a6146103185780637533d788146103135780638cfd8f5c1461030e5780638da5cb5b14610309578063950c8a74146103045780639606647d146102ff5780639ec5a894146102fa5780639f38369a146102f5578063a525a283146102f0578063a6c3d165146102eb578063a8798510146102e6578063ab8236f3146102e1578063adf076e6146102dc578063b353aaa7146102d7578063baf3292d146102d2578063c1a3d44c146102cd578063c4461834146102c8578063c7b9d530146102c3578063cbed8b9c146102be578063d1deba1f146102b9578063df2a5b3b146102b4578063e73620c3146102af578063eb8d72b7146102aa578063efbb5cb0146102a5578063f0fa55a9146102a0578063f2fde38b1461029b578063f42e4cbb14610296578063f5ecbdbc14610291578063fa5408011461028c5763fbfa77cf0361000e57611fae565b611f90565b611edd565b611ec2565b611e31565b611e10565b611df5565b611ccf565b611c9b565b611bb6565b611a89565b6119c3565b61197c565b61195f565b611944565b6118d4565b6118ab565b611887565b61175f565b611742565b6115e1565b6115c3565b611518565b6114fd565b611458565b61142f565b611406565b6113b3565b61136a565b61123e565b611219565b6110e0565b611051565b611008565b610fe3565b610fc0565b610d49565b610b9f565b610b65565b610af0565b610abb565b610a9d565b610a52565b6109d9565b6109ac565b610967565b61093e565b610902565b61087f565b6107e9565b610770565b610735565b6106b5565b610654565b6105cf565b610470565b6004359061ffff821682036103b057565b600080fd5b6024359061ffff821682036103b057565b9181601f840112156103b0578235916001600160401b0383116103b057602083818601950101116103b057565b604435906001600160401b03821682036103b057565b9060806003198301126103b05760043561ffff811681036103b057916001600160401b03906024358281116103b05781610445916004016103c6565b9390939260443581811681036103b057926064359182116103b05761046c916004016103c6565b9091565b346103b05761047e36610409565b60655490949293906001600160a01b03163303610567576104ac926104a4913691610cf7565b933691610cf7565b905a604051633356ae4560e11b6020820190815261ffff87166024830152608060448301529491610516826105086104e760a483018761061b565b6001600160401b03881660648401528281036023190160848401528861061b565b03601f198101845283610c7a565b600080916040519761052789610c0e565b609689528260208a019560a036883751923090f1903d906096821161055e575b6000908288523e1561055557005b61001994612929565b60969150610547565b60405162461bcd60e51b815260206004820152602360248201527f4261736553747261746567793a3a496e76616c6964456e64706f696e7443616c6044820152623632b960e91b6064820152608490fd5b60009103126103b057565b6001600160a01b031690565b346103b05760003660031901126103b05760ce546040516001600160a01b039091168152602090f35b60005b83811061060b5750506000910152565b81810151838201526020016105fb565b90602091610634815180928185528580860191016105f8565b601f01601f1916010190565b90602061065192818152019061061b565b90565b346103b05760003660031901126103b0576106b160405161067481610c29565b601c81527b4165726f64726f6d652055534462432f44414920537472617465677960201b602082015260405191829160208352602083019061061b565b0390f35b346103b05760006020366003190112610732576106d061039f565b6106d86122fd565b6065546001600160a01b0316908290823b1561072e57602461ffff918360405195869485936307e0db1760e01b85521660048401525af180156107295761071d575080f35b61072690610bdb565b80f35b612035565b5080fd5b80fd5b346103b05760403660031901126103b05761ffff61075161039f565b6107596122fd565b166000526068602052602435604060002055600080f35b346103b057600060203660031901126107325761078b61039f565b6107936122fd565b6065546001600160a01b0316908290823b1561072e57602461ffff918360405195869485936310ddb13760e01b85521660048401525af180156107295761071d575080f35b6001600160a01b038116036103b057565b346103b05760203660031901126103b057600435610806816107d8565b61080e612c21565b6040516370a0823160e01b8152306004820152906020826024816001600160a01b0385165afa908115610729576100199260009261084f575b503390612410565b61087191925060203d8111610878575b6108698183610c7a565b81019061238c565b9038610847565b503d61085f565b346103b0576101003660031901126103b05760043561089d816107d8565b602435906108aa826107d8565b604435916108b7836107d8565b6064356108c3816107d8565b60843561ffff9182821682036103b05760a43592831683036103b0576100199560c435946108f0866107d8565b60e435966108fd886107d8565b613480565b346103b05760003660031901126103b05760ca546040516001600160a01b039091168152602090f35b6001600160a01b03909116815260200190565b346103b05760003660031901126103b05760c9546040516001600160a01b039091168152602090f35b346103b05760008060031936011261073257610981612c21565b8080808060018060a01b0360c9541647908282156109a3575bf1156107295780f35b506108fc61099a565b346103b05760003660031901126103b05760cd5460405160089190911c6001600160a01b03168152602090f35b346103b05760203660031901126103b057600080516020614efc8339815191526020600435610a06612c21565b610a0f81613e34565b604051908152a1005b9060406003198301126103b05760043561ffff811681036103b05791602435906001600160401b0382116103b05761046c916004016103c6565b346103b057602061ffff610a8e610a6836610a18565b9390911660005260668452610a8060406000206112c4565b848151910120923691610cf7565b82815191012014604051908152f35b346103b05760003660031901126103b057602060cc54604051908152f35b346103b05760203660031901126103b05761ffff610ad761039f565b1660005260686020526020604060002054604051908152f35b346103b057610afe36610a18565b610b099291926122fd565b6065546000938492916001600160a01b031690813b15610b575783610b4595604051968795869485936342d65a8d60e01b855260048501612062565b03925af180156107295761071d575080f35b8380fd5b801515036103b057565b346103b05760203660031901126103b057600435610b8281610b5b565b610b8a612c21565b60ff801960cd5416911515161760cd55600080f35b346103b05760203660031901126103b0576020610bbd6004356145df565b604051908152f35b634e487b7160e01b600052604160045260246000fd5b6001600160401b038111610bee57604052565b610bc5565b602081019081106001600160401b03821117610bee57604052565b60c081019081106001600160401b03821117610bee57604052565b604081019081106001600160401b03821117610bee57604052565b606081019081106001600160401b03821117610bee57604052565b608081019081106001600160401b03821117610bee57604052565b601f909101601f19168101906001600160401b03821190821017610bee57604052565b6040519061016082016001600160401b03811183821017610bee57604052565b60405190608082016001600160401b03811183821017610bee57604052565b6001600160401b038111610bee57601f01601f191660200190565b929192610d0382610cdc565b91610d116040519384610c7a565b8294818452818301116103b0578281602093846000960137010152565b9080601f830112156103b05781602061065193359101610cf7565b346103b05760a03660031901126103b0576084356044356024356001600160401b0383116103b057610da07fb983e09c034e9c52b5e547cb0589967992b97717733f580cc5ad0afcdc4b522b933690600401610d2e565b90610da9612c21565b610db2826129da565b60008092610dc260cd5460ff1690565b15610fa557610dd3606435156127a0565b610ddb6142f8565b9383851015610f735750610dfd610df68495610f2a956120e7565b80956120e7565b945b610e0986846121a8565b600082821015610f615750610e1e90826120e7565b926000905b610e3482610e2f613d5a565b6120e7565b9360d05492610e4a610e45856127ec565b60d055565b610e52610c9d565b308152914260208401526040830193845260608301998a52608083019a8b5260a0830197885260c0830182815260e0840196875261010084019788526101208401959095526101408301528015610f2f57610ee791610ec191610ecf60cb54926040519485916020830161285a565b03601f198101855284610c7a565b6001600160a01b0382169160a01c61ffff16906131d9565b51955196519351905191519251936040519788978893909796959260c0959260e08601998652602086015260408501526060840152608083015260a08201520152565b0390a1005b50610f49610f57610f5c926040519283916020830161285a565b03601f198101835282610c7a565b61334f565b610ee7565b82610f6d9195926120e7565b90610e23565b8385610f2a95839711610f8c575b5090610dfd916120e7565b81610dfd93929550610f9d916120e7565b939091610f81565b925050610fb7610f2a91600435612c79565b94909390610dff565b346103b05760003660031901126103b057602060ff60cd54166040519015158152f35b346103b05760003660031901126103b057602061ffff60cb5460a01c16604051908152f35b346103b05760003660031901126103b0576020610bbd612769565b90611036602092828151948592016105f8565b0190565b9060018060401b0316600052602052604060002090565b346103b05760603660031901126103b05761106a61039f565b6024356001600160401b0381116103b0576106b1916110c160206110956110cf943690600401610d2e565b61ffff6110a06103f3565b941660005260978252604060002082604051948386809551938492016105f8565b82019081520301902061103a565b546040519081529081906020820190565b346103b0576110ee36610409565b93929091503033036111c55761111192611109913691610cf7565b923691610cf7565b9060cb549261ffff808560a01c16911603611175576100199261115d611157610f4961115261114261117096612232565b6040519283916020830190611023565b6128f4565b60601c90565b6001600160a01b03908116911614612d5c565b612eb4565b60405162461bcd60e51b815260206004820152602260248201527f4261736553747261746567793a3a5661756c74436861696e49644d69736d61746044820152610c6d60f31b6064820152608490fd5b60405162461bcd60e51b815260206004820152602660248201527f4e6f6e626c6f636b696e674c7a4170703a2063616c6c6572206d7573742062656044820152650204c7a4170760d41b6064820152608490fd5b346103b05760003660031901126103b057602061ffff60cb5460b01c16604051908152f35b346103b057600080600319360112610732576112586122fd565b603380546001600160a01b0319811690915581906001600160a01b0316600080516020614ebc8339815191528280a380f35b90600182811c921680156112ba575b60208310146112a457565b634e487b7160e01b600052602260045260246000fd5b91607f1691611299565b90604051918260008254926112d88461128a565b9081845260019485811690816000146113475750600114611304575b505061130292500383610c7a565b565b9093915060005260209081600020936000915b81831061132f575050611302935082010138806112f4565b85548884018501529485019487945091830191611317565b91505061130294506020925060ff191682840152151560051b82010138806112f4565b346103b05760203660031901126103b05761ffff61138661039f565b1660005260666020526106b161139f60406000206112c4565b60405191829160208352602083019061061b565b346103b05760403660031901126103b05760206113fd6113d161039f565b61ffff6113dc6103b5565b91166000526067835260406000209061ffff16600052602052604060002090565b54604051908152f35b346103b05760003660031901126103b0576033546040516001600160a01b039091168152602090f35b346103b05760003660031901126103b0576069546040516001600160a01b039091168152602090f35b346103b05760008060031936011261073257611472612c21565b60ca546040516370a0823160e01b8152306004820152906001600160a01b0316602082602481845afa908115610729576107269284926114dd575b506040519163a9059cbb60e01b6020840152600160248401526044830152604482526114d882610c5f565b61255d565b6114f691925060203d8111610878576108698183610c7a565b90386114ad565b346103b05760003660031901126103b0576020610bbd6145a4565b346103b05760203660031901126103b05761ffff61153461039f565b16600052606660205261154a60406000206112c4565b80511561157e578051601319810191908211611579576106b19161156d9161227d565b60405191829182610640565b6120d1565b60405162461bcd60e51b815260206004820152601d60248201527f4c7a4170703a206e6f20747275737465642070617468207265636f72640000006044820152606490fd5b346103b05760203660031901126103b0576020610bbd6004356147d2565b346103b0576115ef36610a18565b91906115f96122fd565b6040519160208483828601376116246034858781013060601b85820152036014810187520185610c7a565b61ffff821660009081526066825260408120855191959092906001600160401b038311610bee5761165f83611659865461128a565b8661207d565b81601f84116001146116be575091806116ad9492889994600080516020614ddc83398151915299926116b3575b50508160011b916000199060031b1c19161790555b60405193849384612062565b0390a180f35b01519050388061168c565b9190601f1984166116d486600052602060002090565b9389905b82821061172a575050926001928592600080516020614ddc8339815191529a9b966116ad989610611711575b505050811b0190556116a1565b015160001960f88460031b161c19169055388080611704565b806001869782949787015181550196019401906116d8565b346103b05760003660031901126103b05760206040516126488152f35b346103b05760c03660031901126103b05761177861039f565b506001600160401b036024358181116103b057611799903690600401610d2e565b606435916117a6836107d8565b60a4359081116103b0576117be903690600401610d2e565b5060ce546001600160a01b0390811633148015611877575b1561183357611811611157610f496111526111427f92073a89a07a000083eb8b2575fc15e7bb936efe55d00727d6942a796d7211a796612232565b6040805160843581526001600160a01b039290921660208301529190931692a2005b60405162461bcd60e51b815260206004820152601c60248201527b53674272696467653a3a526f757465724f724272696467654f6e6c7960201b6044820152606490fd5b508060cd5460081c1633146117d6565b346103b05760003660031901126103b057602060ff60cb5460c01c16604051908152f35b346103b05760003660031901126103b0576065546040516001600160a01b039091168152602090f35b346103b05760203660031901126103b0577f5db758e995a17ec1ad84bdef7e8c3293a0bd6179bcce400dff5d4c3d87db726b6020600435611914816107d8565b61191c6122fd565b606980546001600160a01b0319166001600160a01b03929092169182179055604051908152a1005b346103b05760003660031901126103b0576020610bbd61239b565b346103b05760003660031901126103b05760206040516127108152f35b346103b05760203660031901126103b057600435611999816107d8565b6119a16122fd565b60c980546001600160a01b0319166001600160a01b0392909216919091179055005b346103b05760803660031901126103b0576119dc61039f565b6119e46103b5565b6064356001600160401b0381116103b057611a039036906004016103c6565b9092611a0d6122fd565b6065546001600160a01b031690813b156103b05760008094611a66604051978896879586946332fb62e760e21b865261ffff80921660048701521660248501526044356044850152608060648501526084840191612041565b03925af1801561072957611a7657005b80611a8361001992610bdb565b806105b8565b611a9236610409565b9161ffff86949296166000526097602052611ac681604060002060206040518092878b83378782019081520301902061103a565b54918215611b6557611b5984611b527fc264d91f3adc5588250e1551f547752ca0cfa8f6b530d243b9f9f4cab10ea8e5996000611b4687611b418d89611b3b8f610f2a9f8f611b1a611b279236908d610cf7565b602081519101201461210d565b61ffff166000526097602052604060002090565b916120f4565b61103a565b5561110936868c610cf7565b9087612db3565b60405195869586612163565b60405162461bcd60e51b815260206004820152602360248201527f4e6f6e626c6f636b696e674c7a4170703a206e6f2073746f726564206d65737360448201526261676560e81b6064820152608490fd5b346103b05760603660031901126103b057611bcf61039f565b611bd76103b5565b60443591611be36122fd565b8215611c5e57610f2a7f9d5c7c0b934da8fefa9c7760c98383778a12dfbfc0c3b3106518f43fb9508ac09361ffff8316600052606760205280611c388560406000209061ffff16600052602052604060002090565b556040519384938460409194939294606082019561ffff80921683521660208201520152565b60405162461bcd60e51b81526020600482015260156024820152744c7a4170703a20696e76616c6964206d696e47617360581b6044820152606490fd5b346103b05760203660031901126103b057611cb46122fd565b600435600090815260cf60205260409020805460ff19169055005b346103b057611cdd36610a18565b9190611ce76122fd565b60009161ffff81168352602060668152604084209060018060401b038611610bee57611d1d86611d17845461128a565b8461207d565b8490601f8711600114611d735750946116ad91818697600080516020614edc8339815191529791611d68575b508260011b906000198460031b1c191617905560405193849384612062565b905085013538611d49565b90601f198716611d8884600052602060002090565b9287905b828210611ddd575050916116ad939188600080516020614edc83398151915298999410611dc3575b5050600182811b0190556116a1565b860135600019600385901b60f8161c191690553880611db4565b80600185968294968b01358155019501930190611d8c565b346103b05760003660031901126103b0576020610bbd613d5a565b346103b05760203660031901126103b057611e29612c21565b60043560cc55005b346103b05760203660031901126103b057600435611e4e816107d8565b611e566122fd565b6001600160a01b03811615611e6e5761001990612355565b60405162461bcd60e51b815260206004820152602660248201527f4f776e61626c653a206e6577206f776e657220697320746865207a65726f206160448201526564647265737360d01b6064820152608490fd5b346103b05760003660031901126103b0576020610bbd614568565b346103b05760803660031901126103b057611ef661039f565b6000611f006103b5565b91611f0c6044356107d8565b606554604051633d7b2f6f60e21b815261ffff92831660048201529390911660248401523060448401526064803590840152829060849082906001600160a01b03165afa8015610729576106b191600091611f6f575b5060405191829182610640565b611f8a913d8091833e611f828183610c7a565b810190611fd7565b38611f62565b346103b05760203660031901126103b0576020610bbd600435612727565b346103b05760003660031901126103b05760cb546040516001600160a01b039091168152602090f35b6020818303126103b0578051906001600160401b0382116103b0570181601f820112156103b057805161200981610cdc565b926120176040519485610c7a565b818452602082840101116103b05761065191602080850191016105f8565b6040513d6000823e3d90fd5b908060209392818452848401376000828201840152601f01601f1916010190565b60409061ffff61065195931681528160208201520191612041565b90601f811161208b57505050565b600091825260208220906020601f850160051c830194106120c7575b601f0160051c01915b8281106120bc57505050565b8181556001016120b0565b90925082906120a7565b634e487b7160e01b600052601160045260246000fd5b9190820391821161157957565b6020919283604051948593843782019081520301902090565b1561211457565b60405162461bcd60e51b815260206004820152602160248201527f4e6f6e626c6f636b696e674c7a4170703a20696e76616c6964207061796c6f616044820152601960fa1b6064820152608490fd5b9160609361ffff6121869398979698168452608060208501526080840191612041565b6001600160401b0390951660408201520152565b90601f820180921161157957565b9190820180921161157957565b156121bc57565b60405162461bcd60e51b815260206004820152600e60248201526d736c6963655f6f766572666c6f7760901b6044820152606490fd5b156121f957565b60405162461bcd60e51b8152602060048201526011602482015270736c6963655f6f75744f66426f756e647360781b6044820152606490fd5b6122406014825110156121f2565b6040519060148083019101602883015b80831061226a57505060148252601f01601f191660405290565b9091825181526020809101920190612250565b6122918261228a8161219a565b10156121b5565b61229e82825110156121f2565b816122b6575050604051600081526020810160405290565b60405191601f811691821560051b808486010193838501920101905b8084106122ea5750508252601f01601f191660405290565b90928351815260208091019301906122d2565b6033546001600160a01b0316330361231157565b606460405162461bcd60e51b815260206004820152602060248201527f4f776e61626c653a2063616c6c6572206973206e6f7420746865206f776e65726044820152fd5b603380546001600160a01b039283166001600160a01b031982168117909255909116600080516020614ebc833981519152600080a3565b908160209103126103b0575190565b60ca546040516370a0823160e01b815230600482015290602090829060249082906001600160a01b03165afa908115610729576000916123d9575090565b610651915060203d8111610878576108698183610c7a565b600080516020614e7c8339815191528152600019602082015260400190565b60405163a9059cbb60e01b60208201526001600160a01b039092166024830152604480830193909352918152611302916114d882610c5f565b908160209103126103b0575161065181610b5b565b6124cd60405161246d81610c29565b600080602094858452600080516020614dfc83398151915286850152858151910182600080516020614e1c8339815191525af13d15612555573d906124b182610cdc565b916124bf6040519384610c7a565b82523d60008684013e6125d0565b80519082821592831561253d575b505050156124e65750565b6084906040519062461bcd60e51b82526004820152602a60248201527f5361666545524332303a204552433230206f7065726174696f6e20646964206e6044820152691bdd081cdd58d8d9595960b21b6064820152fd5b61254d9350820181019101612449565b3882816124db565b6060906125d0565b6040516124cd916001600160a01b031661257682610c29565b600080602095868552600080516020614dfc83398151915287860152868151910182855af13d156125c8573d916125ac83610cdc565b926125ba6040519485610c7a565b83523d60008785013e6126f7565b6060916126f7565b9091901561264057508051156125e35790565b600080516020614e1c8339815191523b156125fb5790565b60405162461bcd60e51b815260206004820152601d60248201527f416464726573733a2063616c6c20746f206e6f6e2d636f6e74726163740000006044820152606490fd5b8151156126505750805190602001fd5b60405162461bcd60e51b815290819061266c9060048301610640565b0390fd5b9091901561264057508051156126835790565b600080516020614e3c8339815191523b156125fb5790565b9091901561264057508051156126ae5790565b73940181a94a35a4569e4529a3cdfb74e38fd986313b156125fb5790565b9091901561264057508051156126df5790565b600080516020614e9c8339815191523b156125fb5790565b91929015612714575081511561270b575090565b3b156125fb5790565b8251909150156126505750805190602001fd5b60405160208101917b0ca2ba3432b932bab69029b4b3b732b21026b2b9b9b0b3b29d05199960211b8352603c820152603c815261276381610c44565b51902090565b60d05460cb546040519060208201923060601b8452603483015261ffff60f01b9060401b1660548201526036815261276381610c44565b156127a757565b60405162461bcd60e51b815260206004820152601e60248201527f4261736553747261746567793a3a44656274526174696f4e6f745a65726f00006044820152606490fd5b60001981146115795760010190565b600080516020614e3c8339815191529052565b600080516020614e9c8339815191529052565b73420dd381b31aef6683db6b902084cb0ffece40da9052565b6005111561284457565b634e487b7160e01b600052602160045260246000fd5b6002815260406020820181905282516001600160a01b03169082015261065191906101a0906020830151606082015260408301516080820152606083015160a0820152608083015160c082015260a083015160e082015260c0830151610100908183015260e0840151906101209182840152840151906101409182840152840151936101609485840152015192610180820152019061061b565b80516020909101516001600160601b031980821693929091906014811061291a57505050565b60140360031b82901b16169150565b91936129c77fe183f33de2837795525b4792ca4cd60535bd77c53b7e7030060bfcf5734d6b0c956129d5939561ffff8151602083012096169586600052609760205261298d836110c160208b604060002082604051948386809551938492016105f8565b556129aa604051978897885260a0602089015260a088019061061b565b6001600160401b039092166040870152858203606087015261061b565b90838203608085015261061b565b0390a1565b6129f66129fe916129f16129ec612769565b612727565b612b75565b919091612a5a565b60c9546001600160a01b03908116911603612a1557565b60405162461bcd60e51b815260206004820152601e60248201527f4261736553747261746567793a3a496e76616c69645369676e617475726500006044820152606490fd5b612a638161283a565b80612a6b5750565b612a748161283a565b60018103612abc5760405162461bcd60e51b815260206004820152601860248201527745434453413a20696e76616c6964207369676e617475726560401b6044820152606490fd5b612ac58161283a565b60028103612b125760405162461bcd60e51b815260206004820152601f60248201527f45434453413a20696e76616c6964207369676e6174757265206c656e677468006044820152606490fd5b80612b1e60039261283a565b14612b2557565b60405162461bcd60e51b815260206004820152602260248201527f45434453413a20696e76616c6964207369676e6174757265202773272076616c604482015261756560f01b6064820152608490fd5b906041815114600014612b9f5761046c916020820151906060604084015193015160001a90612ba9565b5050600090600290565b9291906fa2a8918ca85bafe22016d0b997e4df60600160ff1b038311612c155791608094939160ff602094604051948552168484015260408301526060820152600093849182805260015afa156107295781516001600160a01b03811615612c0f579190565b50600190565b50505050600090600390565b60c9546001600160a01b03163303612c3557565b60405162461bcd60e51b815260206004820152601c60248201527b10985cd954dd1c985d1959de4e8e93db9b1e54dd1c985d1959da5cdd60221b6044820152606490fd5b90612c82613d5a565b828110612d385791612c9491926120e7565b906000915b612cab612ca682846121a8565b61419e565b5050612cc0612cbb60ca546105c3565b6105c3565b91602060405180946370a0823160e01b82528180612ce1306004830161092b565b03915afa92831561072957600093612d18575b50818311612d0457505091600090565b612d13826106519396946120e7565b612d4a565b612d3191935060203d8111610878576108698183610c7a565b9138612cf4565b612d44906000936120e7565b91612c99565b9080821015612d57575090565b905090565b15612d6357565b60405162461bcd60e51b815260206004820152602260248201527f4261736553747261746567793a3a5661756c74416464726573734d69736d61746044820152610c6d60f31b6064820152608490fd5b919060cb549261ffff808560a01c16911603611175576113029261115d611157610f4961115261114261117096612232565b908160209103126103b0575160058110156103b05790565b8092910391604083126103b0576020815193601f1901126103b057602060405191612e2783610bf3565b0151612e32816107d8565b815290565b8092910391606083126103b0576040815193601f1901126103b0576040805191908201906001600160401b03821183831017610bee576040918252602081015183520151602082015290565b8092910391604083126103b0576020815193601f1901126103b057602060405191612ead83610bf3565b0151815290565b805190612ec960208083019383010183612de5565b612ed28161283a565b60038103612f1b5750612efe600080516020614efc833981519152926020836129d59451010190612e83565b9050612f0a8151613e34565b516040519081529081906020820190565b612f248161283a565b80612f45575061130291602082612f3e9351010190612e37565b9050613004565b80612f5160049261283a565b14612f5a575050565b612fac612f927f7c9a2d2ec51230d7dbed27f113a325b7e20aef7b049e68b2339257b5edff5bea936020846129d59551010190612dfd565b9050612fa6612fa182516105c3565b613100565b516105c3565b6040519182918261092b565b15612fbf57565b60405162461bcd60e51b815260206004820152601e60248201527f4261736553747261746567793a3a416c726561647957697468647261776e00006044820152606490fd5b6130e4611302916130ae610f4961304d602084019361304761304261303e613037885160005260cf602052604060002090565b5460ff1690565b1590565b612fb8565b5161419e565b849391935161305a610cbd565b30815291602083810187815260408086019384526060808701958652815160019481019490945295516001600160a01b03169083015251938101939093525160808301525160a082015291829060c0820190565b81156130f15760cb546130d3926001600160a01b0382169160a01c61ffff16906131d9565b5160005260cf602052604060002090565b805460ff19166001179055565b6130fb915061334f565b6130d3565b6131086142f8565b60ca546001600160a01b03916131219184908416612410565b60ca5416604051916370a0823160e01b8352306004840152602083602481855afa918215610729576113029360009361315b575b50612410565b61317491935060203d8111610878576108698183610c7a565b9138613155565b610651939261ffff60609316825260018060a01b03166020820152816040820152019061061b565b919361ffff60a0946106519796600180881b0380951686526020860152166040840152166060820152816080820152019061061b565b60cd549293926131f49060081c6001600160a01b03166105c3565b90604051630dc6346160e01b815260208180613215888a896004850161317b565b0381865afa90811561072957600091613280575b50613238612cbb60ca546105c3565b833b156103b05761326260009660405198899788968795633920455b60e11b8752600487016131a3565b03925af18015610729576132735750565b80611a8361130292610bdb565b613298915060203d8111610878576108698183610c7a565b38613229565b91908260409103126103b0576020825192015190565b92610651949261ffff6132e29316855260018060a01b0316602085015260a0604085015260a084019061061b565b9160006060820152608081840391015261061b565b9261331c61065197959361ffff61332a9416865260c0602087015260c086019061061b565b90848203604086015261061b565b6001600160a01b0391821660608401529316608082015280830360a09091015261061b565b60cb54604080516001600160601b0319606084811b8216602084015230901b16603482015290916133838260488101610508565b61ffff613394612cbb6065546105c3565b9160a01c166133c1846133a561345d565b81518093819263040a7bb160e41b83528a3088600486016132b4565b0381865afa9081156107295760009161342f575b50804710613411576133e561345d565b95833b156103b057613262600096519788968795869462c5803160e81b865230923092600488016132f7565b845162fae2d560e21b81526004810191909152476024820152604490fd5b61344f9150853d8711613456575b6134478183610c7a565b81019061329e565b50386133d5565b503d61343d565b604051600160f01b6020820152620f424060228201526022815261065181610c44565b95939196949290966000549760ff8960081c16158099819a6135a8575b8115613588575b501561352c576134ca97896134c1600160ff196000541617600055565b613513576135b6565b6134d057565b6134e061ff001960005416600055565b604051600181527f7f26b83ff96e1f2b6a682f133852f6798a09c465da95921460cefb38474024989080602081016129d5565b61352761010061ff00196000541617600055565b6135b6565b60405162461bcd60e51b815260206004820152602e60248201527f496e697469616c697a61626c653a20636f6e747261637420697320616c72656160448201526d191e481a5b9a5d1a585b1a5e995960921b6064820152608490fd5b303b1591508161359a575b50386134a4565b6001915060ff161438613593565b600160ff821610915061349d565b6136479261360461366996936135e2613626949b9a9b6135dd60ff60005460081c16613c8b565b613d04565b60c980546001600160a01b0319166001600160a01b0392909216919091179055565b60ca80546001600160a01b0319166001600160a01b0392909216919091179055565b60cb805461ffff60a01b191660a09290921b61ffff60a01b16919091179055565b60cb80546001600160a01b0319166001600160a01b0392909216919091179055565b61367461264860cc55565b613688612cbb612cbb612cbb60ca546105c3565b9060405193849263313ce56760e01b845283600460209788935afa9283156107295760009461370f61379e946136e4899761375b958a91613805575b5060cb805460ff60c01b191660c09290921b60ff60c01b16919091179055565b6136ee600060d055565b60cb805461ffff60b01b191660b09290921b61ffff60b01b16919091179055565b60cd8054610100600160a81b031916600885901b610100600160a81b03161790556001600160a01b039060ce8054919092166001600160a01b03166001600160a01b0319909116179055565b613769612cbb60ca546105c3565b60405163095ea7b360e01b81526001600160a01b03909216600483015260001960248301529093849283919082906044820190565b03925af18015610729576137d7575b50506137b761389d565b6137bf6139a8565b6137c7613a4d565b6137cf613ac7565b611302613bac565b816137f692903d106137fe575b6137ee8183610c7a565b810190612449565b5038806137ad565b503d6137e4565b6138259150893d8b1161382b575b61381d8183610c7a565b810190613ceb565b386136c4565b503d613813565b1561383957565b60405162461bcd60e51b815260206004820152603660248201527f5361666545524332303a20617070726f76652066726f6d206e6f6e2d7a65726f60448201527520746f206e6f6e2d7a65726f20616c6c6f77616e636560501b6064820152608490fd5b604051636eb1769f60e11b8152306004820152600080516020614e7c8339815191526024820152602090600080516020614e3c8339815191528282604481845afa918215610729576124cd926138fc9160009161398b575b5015613832565b6000806040519285840163095ea7b360e01b815261392e85613920602482016123f1565b03601f198101875286610c7a565b826040519561393c87610c29565b888752600080516020614dfc8339815191528988015251925af13d15613983573d9061396782610cdc565b916139756040519384610c7a565b82523d60008684013e612670565b606090612670565b6139a29150853d8711610878576108698183610c7a565b386138f5565b604051636eb1769f60e11b8152306004820152600080516020614e5c83398151915260248201819052602082604481600080516020614e1c8339815191525afa9182156107295761130292613a0591600091613a35575015613832565b6040519063095ea7b360e01b60208301526024820152600019604482015260448152613a3081610c5f565b61245e565b6139a2915060203d8111610878576108698183610c7a565b604051636eb1769f60e11b8152306004820152600080516020614e7c8339815191526024820152602081604481600080516020614e1c8339815191525afa801561072957613aa391600091613a35575015613832565b60405163095ea7b360e01b602082015261130290613a3081610f49602482016123f1565b604051636eb1769f60e11b8152306004820152600080516020614e7c833981519152602482015260209073940181a94a35a4569e4529a3cdfb74e38fd986318282604481845afa918215610729576124cd92613b2b9160009161398b575015613832565b6000806040519285840163095ea7b360e01b8152613b4f85613920602482016123f1565b8260405195613b5d87610c29565b888752600080516020614dfc8339815191528988015251925af13d15613ba4573d90613b8882610cdc565b91613b966040519384610c7a565b82523d60008684013e61269b565b60609061269b565b604051636eb1769f60e11b8152306004820152600080516020614e7c8339815191526024820152602090600080516020614e9c8339815191528282604481845afa918215610729576124cd92613c0a9160009161398b575015613832565b6000806040519285840163095ea7b360e01b8152613c2e85613920602482016123f1565b8260405195613c3c87610c29565b888752600080516020614dfc8339815191528988015251925af13d15613c83573d90613c6782610cdc565b91613c756040519384610c7a565b82523d60008684013e6126cc565b6060906126cc565b15613c9257565b60405162461bcd60e51b815260206004820152602b60248201527f496e697469616c697a61626c653a20636f6e7472616374206973206e6f74206960448201526a6e697469616c697a696e6760a81b6064820152608490fd5b908160209103126103b0575160ff811681036103b05790565b613d1e60ff60005460081c16613d1981613c8b565b613c8b565b613d2733612355565b613d3860ff60005460081c16613c8b565b606580546001600160a01b0319166001600160a01b0392909216919091179055565b613d6a613d65614568565b6145df565b613d7261239b565b810180911161157957613d8b613d866145a4565b6147d2565b81018091116115795790565b60405190608082016001600160401b03811183821017610bee5760405260006060838281528260208201528260408201520152565b9064e8d4a510009182810292818404149015171561157957565b8181029291811591840414171561157957565b8115613e03570490565b634e487b7160e01b600052601260045260246000fd5b908160609103126103b0578051916040602083015192015190565b60cd5460ff16613e6257613e46614c9a565b613e4e61239b565b90600091818111614092575b505080613e65575b50565b613e9f613e70613d97565b91613e7a836127fb565b613e9a6060602094613e8d86820161280e565b6001604082015201612821565b6140a3565b90613ea982614901565b613ecd613ebf60cc54613ec7613ebf8286613de6565b612710900490565b94613de6565b604051906370a0823160e01b93848352858380613eed306004830161092b565b0381600080516020614e9c8339815191525afa92831561072957606093613f8991600091614075575b50604051635a47ddc360e01b8152600080516020614e3c8339815191526004820152600080516020614e9c8339815191526024820152600160448201526064810196909652608486015260a485019190915260c48401919091523060e48401524261010484015282908190610124820190565b03816000600080516020614e7c8339815191525af1801561072957614047575b50604051908152818180613fc0306004830161092b565b0381600080516020614e1c8339815191525afa9182156107295760009261402a575b5050600080516020614e5c833981519152803b156103b05760405163b6b55f2560e01b815260048101929092526000908290602490829084905af18015610729576132735750565b6140409250803d10610878576108698183610c7a565b3880613fe2565b6140679060603d811161406e575b61405f8183610c7a565b810190613e19565b5050613fa9565b503d614055565b61408c9150883d8a11610878576108698183610c7a565b38613f16565b61409c92506120e7565b3880613e5a565b906140ad82613dcc565b6040519063ce700c2960e01b8252600080516020614e3c8339815191526004830152600080516020614e9c83398151915260248301526001604483015273420dd381b31aef6683db6b902084cb0ffece40da60648301528360011c608483015260011c60a482015260608160c481600080516020614e7c8339815191525afa8015610729576106519161416591600091829161416c575b506141598264e8d4a5100061416093046121a8565b9186613de6565b613df9565b80936120e7565b64e8d4a51000925061416091506141936141599160603d811161406e5761405f8183610c7a565b509093509150614144565b9060006141af612cbb60ca546105c3565b9060405191826370a0823160e01b91828252602094859181806141d5306004830161092b565b03915afa9081156107295760009161427f575b5085811015614276576141fe61420391876120e7565b614a39565b82614212612cbb60ca546105c3565b60405192835282908180614229306004830161092b565b03915afa92831561072957600093614257575b50508184111561425257508061065191936120e7565b919050565b61426e929350803d10610878576108698183610c7a565b90388061423c565b50505050600090565b6142969150843d8611610878576108698183610c7a565b386141e8565b919260e0939695949196610100840197600080516020614e3c8339815191528552600080516020614e9c8339815191526020860152600160408601526060850152608084015260a083015260018060a01b031660c08201520152565b614300614c9a565b614308614568565b600080516020614e5c83398151915290813b156103b05760408051632e1a7d4d60e01b81526004810183905290926000908290602490829084905af1801561072957614478575b508161435a826144de565b825163037b79b160e21b8152938492839261437d9242923092916004870161429c565b03816000600080516020614e7c8339815191525af180156107295761445c575b5080516370a0823160e01b80825260209291908382806143c0306004830161092b565b0381600080516020614e9c8339815191525afa9182156107295784926143ee9160009161443f575b506149ce565b6143fc612cbb60ca546105c3565b925192839182528180614412306004830161092b565b03915afa9182156107295760009261442957505090565b6106519250803d10610878576108698183610c7a565b6144569150843d8611610878576108698183610c7a565b386143e8565b61447290823d8411613456576134478183610c7a565b5061439d565b80611a8361448592610bdb565b3861434f565b9190608060a0840193600080516020614e3c8339815191528152600080516020614e9c83398151915260208201526001604082015273420dd381b31aef6683db6b902084cb0ffece40da60608201520152565b6040805163324b78fb60e21b81529291839081906144ff906004830161448b565b0381600080516020614e7c8339815191525afa918215610729576000908193614545575b5061454160cc54809261453a612710948592613de6565b0494613de6565b0490565b905061456091925060403d8111613456576134478183610c7a565b919038614523565b6040516370a0823160e01b8152306004820152602081602481600080516020614e5c8339815191525afa908115610729576000916123d9575090565b6040516246613160e11b8152306004820152602081602481600080516020614e5c8339815191525afa908115610729576000916123d9575090565b8015614664576040805163324b78fb60e21b81529182908190614605906004830161448b565b0381600080516020614e7c8339815191525afa801561072957600091829161463d575b5064e8d4a51000900481018091116115795790565b64e8d4a51000925061465d915060403d8111613456576134478183610c7a565b9091614628565b50600090565b6001600160401b038111610bee5760051b60200190565b6040519061468e82610c29565b600182528160005b602090818110156146b8576020916146ac613d97565b90828501015201614696565b505050565b634e487b7160e01b600052603260045260246000fd5b8051156146e05760200190565b6146bd565b8051600110156146e05760400190565b60209081818403126103b0578051906001600160401b0382116103b057019180601f840112156103b057825161472a8161466a565b936147386040519586610c7a565b818552838086019260051b8201019283116103b0578301905b82821061475f575050505090565b81518152908301908301614751565b90815180825260208080930193019160005b82811061478e575050505090565b835180516001600160a01b03908116875281840151811687850152604080830151151590880152606091820151169086015260809094019392810192600101614780565b6000614878916147e0614681565b9073940181a94a35a4569e4529a3cdfb74e38fd986316147ff836146d3565b5152600080516020614e3c833981519152602061481b846146d3565b51015282604061482a846146d3565b51015273420dd381b31aef6683db6b902084cb0ffece40da606061484d846146d3565b5101526040519384928392631542686b60e21b8452600484015260406024840152604483019061476e565b0381600080516020614e7c8339815191525afa8015610729576148a3916000916148a7575b506146e5565b5190565b6148c2913d8091833e6148ba8183610c7a565b8101906146f5565b3861489d565b91926080936148ed92979695978452602084015260a0604084015260a083019061476e565b6001600160a01b0390951660608201520152565b600061490b614681565b9161491e614918846146d3565b516127fb565b614933602061492c856146d3565b510161280e565b6149496040614941856146d3565b510160019052565b61495e6060614957856146d3565b5101612821565b614975614970613ebf60cc5484613de6565b613dcc565b60405163cac88ea960e01b81529384928392614999924292309290600487016148c8565b038183600080516020614e7c8339815191525af18015610729576149ba5750565b613e62903d806000833e6148ba8183610c7a565b60006149d8614681565b916149eb6149e5846146d3565b5161280e565b614a0060206149f9856146d3565b51016127fb565b614a0e6040614941856146d3565b614a1c6060614957856146d3565b614975614a2e613ebf60cc5484613de6565b64e8d4a51000900490565b8015613e625780614a4b613d866145a4565b10614a595750611302614c9a565b614a64613d65614568565b614a6f613d866145a4565b820391821161157957614a8d91614a8591612d4a565b613e9a614c9a565b50604080516318160ddd60e01b81526020928382600481600080516020614e1c8339815191525afa90811561072957614ace92600092614c7b575b50613de6565b81516370a0823160e01b808252600080516020614e1c833981519152600483015292918482602481600080516020614e3c8339815191525afa90811561072957614b2092600092614c5c575b50613df9565b614b28614568565b8111614c4e575b600080516020614e5c833981519152803b156103b0578251632e1a7d4d60e01b815260048101839052906000908290602490829084905af1801561072957614c3b575b5081614b7d826144de565b825163037b79b160e21b81529384928392614ba09242923092916004870161429c565b03816000600080516020614e7c8339815191525af1801561072957614c1f575b5051908152818180614bd5306004830161092b565b0381600080516020614e9c8339815191525afa9081156107295761130292600092614c02575b50506149ce565b614c189250803d10610878576108698183610c7a565b3880614bfb565b614c3590823d8411613456576134478183610c7a565b50614bc0565b80611a83614c4892610bdb565b38614b72565b50614c57614568565b614b2f565b614c74919250863d8811610878576108698183610c7a565b9038614b1a565b614c93919250853d8711610878576108698183610c7a565b9038614ac8565b600080516020614e5c833981519152803b156103b05760006040518092630c00007b60e41b8252818381614cd1306004830161092b565b03925af1801561072957614d4e575b506040516370a0823160e01b815260208180614cff306004830161092b565b038173940181a94a35a4569e4529a3cdfb74e38fd986315afa80156107295761130291600091614d30575b50614d61565b614d48915060203d8111610878576108698183610c7a565b38614d2a565b80611a83614d5b92610bdb565b38614ce0565b8015613e62576000614d71614681565b91614d98614d7e846146d3565b5173940181a94a35a4569e4529a3cdfb74e38fd986319052565b614da660206149f9856146d3565b816040614db2856146d3565b510152614dc36060614957856146d3565b614975613ebf614dd2836147d2565b60cc5490613de656fe8c0400cfe2d1199b1a725c78960bcc2a344d869b80590d0f2bd005db15a572ce5361666545524332303a206c6f772d6c6576656c2063616c6c206661696c65640000000000000000000000006eab8c1b93f5799dadf2c687a30230a540dbd636000000000000000000000000d9aaec86b65d86f6a7b5b1b0c42ffa531710b6ca000000000000000000000000cf1d5aa63083fda05c7f8871a9fdbfed7ba49060000000000000000000000000cf77a3ba9a5ca399b7c97c74d54e5b1beb874e4300000000000000000000000050c5725949a6f0c72e6c4a641f24049a917db0cb8be0079c531659141344cd1fd0a4f28419497f9722a3daafe3b4186f6b6457e0fa41487ad5d6728f0b19276fa1eddc16558578f5109fc39d2dc33c3230470dabb0c58532a125fc3c0adccaef396bf65344a4d5781cec2e4c593e6b611d75f150a2646970667358221220bfec890a51e7b8f1181a4592509b131961223729411dc59d75248314600883cf64736f6c63430008130033",
  "linkReferences": {},
  "deployedLinkReferences": {}
}