{
  "_format": "hh-sol-artifact-1",
  "contractName": "AeroStrategy",
  "sourceName": "contracts/strategies/AeroStrategy.sol",
  "abi": [
    {
      "inputs": [
        {
          "internalType": "uint256",
          "name": "messageType",
          "type": "uint256"
        }
      ],
      "name": "IncorrectMessageType",
      "type": "error"
    },
    {
      "inputs": [
        {
          "internalType": "uint256",
          "name": "amount",
          "type": "uint256"
        },
        {
          "internalType": "uint256",
          "name": "balance",
          "type": "uint256"
        }
      ],
      "name": "InsufficientFunds",
      "type": "error"
    },
    {
      "anonymous": false,
      "inputs": [
        {
          "indexed": false,
          "internalType": "uint256",
          "name": "debtOutstanding",
          "type": "uint256"
        }
      ],
      "name": "AdjustedPosition",
      "type": "event"
    },
    {
      "anonymous": false,
      "inputs": [
        {
          "indexed": false,
          "internalType": "uint8",
          "name": "version",
          "type": "uint8"
        }
      ],
      "name": "Initialized",
      "type": "event"
    },
    {
      "anonymous": false,
      "inputs": [
        {
          "indexed": false,
          "internalType": "uint16",
          "name": "_srcChainId",
          "type": "uint16"
        },
        {
          "indexed": false,
          "internalType": "bytes",
          "name": "_srcAddress",
          "type": "bytes"
        },
        {
          "indexed": false,
          "internalType": "uint64",
          "name": "_nonce",
          "type": "uint64"
        },
        {
          "indexed": false,
          "internalType": "bytes",
          "name": "_payload",
          "type": "bytes"
        },
        {
          "indexed": false,
          "internalType": "bytes",
          "name": "_reason",
          "type": "bytes"
        }
      ],
      "name": "MessageFailed",
      "type": "event"
    },
    {
      "anonymous": false,
      "inputs": [
        {
          "indexed": true,
          "internalType": "address",
          "name": "previousOwner",
          "type": "address"
        },
        {
          "indexed": true,
          "internalType": "address",
          "name": "newOwner",
          "type": "address"
        }
      ],
      "name": "OwnershipTransferred",
      "type": "event"
    },
    {
      "anonymous": false,
      "inputs": [
        {
          "indexed": false,
          "internalType": "uint16",
          "name": "_srcChainId",
          "type": "uint16"
        },
        {
          "indexed": false,
          "internalType": "bytes",
          "name": "_srcAddress",
          "type": "bytes"
        },
        {
          "indexed": false,
          "internalType": "uint64",
          "name": "_nonce",
          "type": "uint64"
        },
        {
          "indexed": false,
          "internalType": "bytes32",
          "name": "_payloadHash",
          "type": "bytes32"
        }
      ],
      "name": "RetryMessageSuccess",
      "type": "event"
    },
    {
      "anonymous": false,
      "inputs": [
        {
          "indexed": false,
          "internalType": "uint16",
          "name": "_dstChainId",
          "type": "uint16"
        },
        {
          "indexed": false,
          "internalType": "uint16",
          "name": "_type",
          "type": "uint16"
        },
        {
          "indexed": false,
          "internalType": "uint256",
          "name": "_minDstGas",
          "type": "uint256"
        }
      ],
      "name": "SetMinDstGas",
      "type": "event"
    },
    {
      "anonymous": false,
      "inputs": [
        {
          "indexed": false,
          "internalType": "address",
          "name": "precrime",
          "type": "address"
        }
      ],
      "name": "SetPrecrime",
      "type": "event"
    },
    {
      "anonymous": false,
      "inputs": [
        {
          "indexed": false,
          "internalType": "uint16",
          "name": "_remoteChainId",
          "type": "uint16"
        },
        {
          "indexed": false,
          "internalType": "bytes",
          "name": "_path",
          "type": "bytes"
        }
      ],
      "name": "SetTrustedRemote",
      "type": "event"
    },
    {
      "anonymous": false,
      "inputs": [
        {
          "indexed": false,
          "internalType": "uint16",
          "name": "_remoteChainId",
          "type": "uint16"
        },
        {
          "indexed": false,
          "internalType": "bytes",
          "name": "_remoteAddress",
          "type": "bytes"
        }
      ],
      "name": "SetTrustedRemoteAddress",
      "type": "event"
    },
    {
      "anonymous": false,
      "inputs": [
        {
          "indexed": true,
          "internalType": "address",
          "name": "token",
          "type": "address"
        },
        {
          "indexed": false,
          "internalType": "uint256",
          "name": "amount",
          "type": "uint256"
        },
        {
          "indexed": false,
          "internalType": "address",
          "name": "sender",
          "type": "address"
        }
      ],
      "name": "SgReceived",
      "type": "event"
    },
    {
      "anonymous": false,
      "inputs": [
        {
          "indexed": false,
          "internalType": "address",
          "name": "newStrategy",
          "type": "address"
        }
      ],
      "name": "StrategyMigrated",
      "type": "event"
    },
    {
      "anonymous": false,
      "inputs": [
        {
          "indexed": false,
          "internalType": "uint256",
          "name": "profit",
          "type": "uint256"
        },
        {
          "indexed": false,
          "internalType": "uint256",
          "name": "loss",
          "type": "uint256"
        },
        {
          "indexed": false,
          "internalType": "uint256",
          "name": "debtPayment",
          "type": "uint256"
        },
        {
          "indexed": false,
          "internalType": "uint256",
          "name": "giveToStrategy",
          "type": "uint256"
        },
        {
          "indexed": false,
          "internalType": "uint256",
          "name": "requestFromStrategy",
          "type": "uint256"
        },
        {
          "indexed": false,
          "internalType": "uint256",
          "name": "creditAvailable",
          "type": "uint256"
        },
        {
          "indexed": false,
          "internalType": "uint256",
          "name": "totalAssets",
          "type": "uint256"
        }
      ],
      "name": "StrategyReported",
      "type": "event"
    },
    {
      "inputs": [
        {
          "internalType": "uint256",
          "name": "amountIn",
          "type": "uint256"
        }
      ],
      "name": "AeroToWant",
      "outputs": [
        {
          "internalType": "uint256",
          "name": "amountOut",
          "type": "uint256"
        }
      ],
      "stateMutability": "view",
      "type": "function"
    },
    {
      "inputs": [],
      "name": "DEFAULT_PAYLOAD_SIZE_LIMIT",
      "outputs": [
        {
          "internalType": "uint256",
          "name": "",
          "type": "uint256"
        }
      ],
      "stateMutability": "view",
      "type": "function"
    },
    {
      "inputs": [],
      "name": "DEFAULT_SLIPPAGE",
      "outputs": [
        {
          "internalType": "uint256",
          "name": "",
          "type": "uint256"
        }
      ],
      "stateMutability": "view",
      "type": "function"
    },
    {
      "inputs": [
        {
          "internalType": "uint256",
          "name": "amountIn",
          "type": "uint256"
        }
      ],
      "name": "LpToWant",
      "outputs": [
        {
          "internalType": "uint256",
          "name": "amountOut",
          "type": "uint256"
        }
      ],
      "stateMutability": "view",
      "type": "function"
    },
    {
      "inputs": [
        {
          "internalType": "uint256",
          "name": "_debtOutstanding",
          "type": "uint256"
        }
      ],
      "name": "adjustPosition",
      "outputs": [],
      "stateMutability": "nonpayable",
      "type": "function"
    },
    {
      "inputs": [],
      "name": "balanceOfStaked",
      "outputs": [
        {
          "internalType": "uint256",
          "name": "amount",
          "type": "uint256"
        }
      ],
      "stateMutability": "view",
      "type": "function"
    },
    {
      "inputs": [],
      "name": "balanceOfWant",
      "outputs": [
        {
          "internalType": "uint256",
          "name": "",
          "type": "uint256"
        }
      ],
      "stateMutability": "view",
      "type": "function"
    },
    {
      "inputs": [
        {
          "internalType": "uint256",
          "name": "epoch",
          "type": "uint256"
        }
      ],
      "name": "callMe",
      "outputs": [],
      "stateMutability": "nonpayable",
      "type": "function"
    },
    {
      "inputs": [],
      "name": "clearWant",
      "outputs": [],
      "stateMutability": "nonpayable",
      "type": "function"
    },
    {
      "inputs": [],
      "name": "currentChainId",
      "outputs": [
        {
          "internalType": "uint16",
          "name": "",
          "type": "uint16"
        }
      ],
      "stateMutability": "view",
      "type": "function"
    },
    {
      "inputs": [],
      "name": "emergencyExit",
      "outputs": [
        {
          "internalType": "bool",
          "name": "",
          "type": "bool"
        }
      ],
      "stateMutability": "view",
      "type": "function"
    },
    {
      "inputs": [],
      "name": "estimatedTotalAssets",
      "outputs": [
        {
          "internalType": "uint256",
          "name": "",
          "type": "uint256"
        }
      ],
      "stateMutability": "view",
      "type": "function"
    },
    {
      "inputs": [
        {
          "internalType": "uint16",
          "name": "",
          "type": "uint16"
        },
        {
          "internalType": "bytes",
          "name": "",
          "type": "bytes"
        },
        {
          "internalType": "uint64",
          "name": "",
          "type": "uint64"
        }
      ],
      "name": "failedMessages",
      "outputs": [
        {
          "internalType": "bytes32",
          "name": "",
          "type": "bytes32"
        }
      ],
      "stateMutability": "view",
      "type": "function"
    },
    {
      "inputs": [
        {
          "internalType": "uint16",
          "name": "_srcChainId",
          "type": "uint16"
        },
        {
          "internalType": "bytes",
          "name": "_srcAddress",
          "type": "bytes"
        }
      ],
      "name": "forceResumeReceive",
      "outputs": [],
      "stateMutability": "nonpayable",
      "type": "function"
    },
    {
      "inputs": [
        {
          "internalType": "uint16",
          "name": "_version",
          "type": "uint16"
        },
        {
          "internalType": "uint16",
          "name": "_chainId",
          "type": "uint16"
        },
        {
          "internalType": "address",
          "name": "",
          "type": "address"
        },
        {
          "internalType": "uint256",
          "name": "_configType",
          "type": "uint256"
        }
      ],
      "name": "getConfig",
      "outputs": [
        {
          "internalType": "bytes",
          "name": "",
          "type": "bytes"
        }
      ],
      "stateMutability": "view",
      "type": "function"
    },
    {
      "inputs": [
        {
          "internalType": "bytes32",
          "name": "_messageHash",
          "type": "bytes32"
        }
      ],
      "name": "getEthSignedMessageHash",
      "outputs": [
        {
          "internalType": "bytes32",
          "name": "",
          "type": "bytes32"
        }
      ],
      "stateMutability": "pure",
      "type": "function"
    },
    {
      "inputs": [
        {
          "internalType": "uint16",
          "name": "_remoteChainId",
          "type": "uint16"
        }
      ],
      "name": "getTrustedRemoteAddress",
      "outputs": [
        {
          "internalType": "bytes",
          "name": "",
          "type": "bytes"
        }
      ],
      "stateMutability": "view",
      "type": "function"
    },
    {
      "inputs": [
        {
          "internalType": "uint256",
          "name": "_totalDebt",
          "type": "uint256"
        },
        {
          "internalType": "uint256",
          "name": "_debtOutstanding",
          "type": "uint256"
        },
        {
          "internalType": "uint256",
          "name": "_creditAvailable",
          "type": "uint256"
        },
        {
          "internalType": "uint256",
          "name": "_debtRatio",
          "type": "uint256"
        },
        {
          "internalType": "bytes",
          "name": "_signature",
          "type": "bytes"
        }
      ],
      "name": "harvest",
      "outputs": [],
      "stateMutability": "nonpayable",
      "type": "function"
    },
    {
      "inputs": [
        {
          "internalType": "address",
          "name": "_lzEndpoint",
          "type": "address"
        },
        {
          "internalType": "address",
          "name": "_strategist",
          "type": "address"
        },
        {
          "internalType": "contract IERC20",
          "name": "_want",
          "type": "address"
        },
        {
          "internalType": "address",
          "name": "_vault",
          "type": "address"
        },
        {
          "internalType": "uint16",
          "name": "_vaultChainId",
          "type": "uint16"
        },
        {
          "internalType": "uint16",
          "name": "_currentChainId",
          "type": "uint16"
        },
        {
          "internalType": "address",
          "name": "_sgBridge",
          "type": "address"
        },
        {
          "internalType": "address",
          "name": "_router",
          "type": "address"
        }
      ],
      "name": "initialize",
      "outputs": [],
      "stateMutability": "nonpayable",
      "type": "function"
    },
    {
      "inputs": [
        {
          "internalType": "uint16",
          "name": "_srcChainId",
          "type": "uint16"
        },
        {
          "internalType": "bytes",
          "name": "_srcAddress",
          "type": "bytes"
        }
      ],
      "name": "isTrustedRemote",
      "outputs": [
        {
          "internalType": "bool",
          "name": "",
          "type": "bool"
        }
      ],
      "stateMutability": "view",
      "type": "function"
    },
    {
      "inputs": [],
      "name": "lzEndpoint",
      "outputs": [
        {
          "internalType": "contract ILayerZeroEndpointUpgradeable",
          "name": "",
          "type": "address"
        }
      ],
      "stateMutability": "view",
      "type": "function"
    },
    {
      "inputs": [
        {
          "internalType": "uint16",
          "name": "_srcChainId",
          "type": "uint16"
        },
        {
          "internalType": "bytes",
          "name": "_srcAddress",
          "type": "bytes"
        },
        {
          "internalType": "uint64",
          "name": "_nonce",
          "type": "uint64"
        },
        {
          "internalType": "bytes",
          "name": "_payload",
          "type": "bytes"
        }
      ],
      "name": "lzReceive",
      "outputs": [],
      "stateMutability": "nonpayable",
      "type": "function"
    },
    {
      "inputs": [
        {
          "internalType": "uint16",
          "name": "",
          "type": "uint16"
        },
        {
          "internalType": "uint16",
          "name": "",
          "type": "uint16"
        }
      ],
      "name": "minDstGasLookup",
      "outputs": [
        {
          "internalType": "uint256",
          "name": "",
          "type": "uint256"
        }
      ],
      "stateMutability": "view",
      "type": "function"
    },
    {
      "inputs": [],
      "name": "name",
      "outputs": [
        {
          "internalType": "string",
          "name": "",
          "type": "string"
        }
      ],
      "stateMutability": "pure",
      "type": "function"
    },
    {
      "inputs": [
        {
          "internalType": "uint16",
          "name": "_srcChainId",
          "type": "uint16"
        },
        {
          "internalType": "bytes",
          "name": "_srcAddress",
          "type": "bytes"
        },
        {
          "internalType": "uint64",
          "name": "_nonce",
          "type": "uint64"
        },
        {
          "internalType": "bytes",
          "name": "_payload",
          "type": "bytes"
        }
      ],
      "name": "nonblockingLzReceive",
      "outputs": [],
      "stateMutability": "nonpayable",
      "type": "function"
    },
    {
      "inputs": [],
      "name": "owner",
      "outputs": [
        {
          "internalType": "address",
          "name": "",
          "type": "address"
        }
      ],
      "stateMutability": "view",
      "type": "function"
    },
    {
      "inputs": [
        {
          "internalType": "uint16",
          "name": "",
          "type": "uint16"
        }
      ],
      "name": "payloadSizeLimitLookup",
      "outputs": [
        {
          "internalType": "uint256",
          "name": "",
          "type": "uint256"
        }
      ],
      "stateMutability": "view",
      "type": "function"
    },
    {
      "inputs": [],
      "name": "precrime",
      "outputs": [
        {
          "internalType": "address",
          "name": "",
          "type": "address"
        }
      ],
      "stateMutability": "view",
      "type": "function"
    },
    {
      "inputs": [],
      "name": "renounceOwnership",
      "outputs": [],
      "stateMutability": "nonpayable",
      "type": "function"
    },
    {
      "inputs": [
        {
          "internalType": "uint16",
          "name": "_srcChainId",
          "type": "uint16"
        },
        {
          "internalType": "bytes",
          "name": "_srcAddress",
          "type": "bytes"
        },
        {
          "internalType": "uint64",
          "name": "_nonce",
          "type": "uint64"
        },
        {
          "internalType": "bytes",
          "name": "_payload",
          "type": "bytes"
        }
      ],
      "name": "retryMessage",
      "outputs": [],
      "stateMutability": "payable",
      "type": "function"
    },
    {
      "inputs": [],
      "name": "revokeFunds",
      "outputs": [],
      "stateMutability": "nonpayable",
      "type": "function"
    },
    {
      "inputs": [],
      "name": "rewards",
      "outputs": [
        {
          "internalType": "uint256",
          "name": "amount",
          "type": "uint256"
        }
      ],
      "stateMutability": "view",
      "type": "function"
    },
    {
      "inputs": [
        {
          "internalType": "uint16",
          "name": "_version",
          "type": "uint16"
        },
        {
          "internalType": "uint16",
          "name": "_chainId",
          "type": "uint16"
        },
        {
          "internalType": "uint256",
          "name": "_configType",
          "type": "uint256"
        },
        {
          "internalType": "bytes",
          "name": "_config",
          "type": "bytes"
        }
      ],
      "name": "setConfig",
      "outputs": [],
      "stateMutability": "nonpayable",
      "type": "function"
    },
    {
      "inputs": [
        {
          "internalType": "bool",
          "name": "_emergencyExit",
          "type": "bool"
        }
      ],
      "name": "setEmergencyExit",
      "outputs": [],
      "stateMutability": "nonpayable",
      "type": "function"
    },
    {
      "inputs": [
        {
          "internalType": "uint16",
          "name": "_dstChainId",
          "type": "uint16"
        },
        {
          "internalType": "uint16",
          "name": "_packetType",
          "type": "uint16"
        },
        {
          "internalType": "uint256",
          "name": "_minGas",
          "type": "uint256"
        }
      ],
      "name": "setMinDstGas",
      "outputs": [],
      "stateMutability": "nonpayable",
      "type": "function"
    },
    {
      "inputs": [
        {
          "internalType": "uint16",
          "name": "_dstChainId",
          "type": "uint16"
        },
        {
          "internalType": "uint256",
          "name": "_size",
          "type": "uint256"
        }
      ],
      "name": "setPayloadSizeLimit",
      "outputs": [],
      "stateMutability": "nonpayable",
      "type": "function"
    },
    {
      "inputs": [
        {
          "internalType": "address",
          "name": "_precrime",
          "type": "address"
        }
      ],
      "name": "setPrecrime",
      "outputs": [],
      "stateMutability": "nonpayable",
      "type": "function"
    },
    {
      "inputs": [
        {
          "internalType": "uint16",
          "name": "_version",
          "type": "uint16"
        }
      ],
      "name": "setReceiveVersion",
      "outputs": [],
      "stateMutability": "nonpayable",
      "type": "function"
    },
    {
      "inputs": [
        {
          "internalType": "uint16",
          "name": "_version",
          "type": "uint16"
        }
      ],
      "name": "setSendVersion",
      "outputs": [],
      "stateMutability": "nonpayable",
      "type": "function"
    },
    {
      "inputs": [
        {
          "internalType": "uint256",
          "name": "_slippage",
          "type": "uint256"
        }
      ],
      "name": "setSlippage",
      "outputs": [],
      "stateMutability": "nonpayable",
      "type": "function"
    },
    {
      "inputs": [
        {
          "internalType": "address",
          "name": "_strategist",
          "type": "address"
        }
      ],
      "name": "setStrategist",
      "outputs": [],
      "stateMutability": "nonpayable",
      "type": "function"
    },
    {
      "inputs": [
        {
          "internalType": "uint16",
          "name": "_srcChainId",
          "type": "uint16"
        },
        {
          "internalType": "bytes",
          "name": "_path",
          "type": "bytes"
        }
      ],
      "name": "setTrustedRemote",
      "outputs": [],
      "stateMutability": "nonpayable",
      "type": "function"
    },
    {
      "inputs": [
        {
          "internalType": "uint16",
          "name": "_remoteChainId",
          "type": "uint16"
        },
        {
          "internalType": "bytes",
          "name": "_remoteAddress",
          "type": "bytes"
        }
      ],
      "name": "setTrustedRemoteAddress",
      "outputs": [],
      "stateMutability": "nonpayable",
      "type": "function"
    },
    {
      "inputs": [],
      "name": "sgBridge",
      "outputs": [
        {
          "internalType": "contract ISgBridge",
          "name": "",
          "type": "address"
        }
      ],
      "stateMutability": "view",
      "type": "function"
    },
    {
      "inputs": [
        {
          "internalType": "uint16",
          "name": "",
          "type": "uint16"
        },
        {
          "internalType": "bytes",
          "name": "_srcAddress",
          "type": "bytes"
        },
        {
          "internalType": "uint256",
          "name": "",
          "type": "uint256"
        },
        {
          "internalType": "address",
          "name": "_token",
          "type": "address"
        },
        {
          "internalType": "uint256",
          "name": "_amountLD",
          "type": "uint256"
        },
        {
          "internalType": "bytes",
          "name": "",
          "type": "bytes"
        }
      ],
      "name": "sgReceive",
      "outputs": [],
      "stateMutability": "nonpayable",
      "type": "function"
    },
    {
      "inputs": [],
      "name": "sgRouter",
      "outputs": [
        {
          "internalType": "contract IStargateRouter",
          "name": "",
          "type": "address"
        }
      ],
      "stateMutability": "view",
      "type": "function"
    },
    {
      "inputs": [],
      "name": "slippage",
      "outputs": [
        {
          "internalType": "uint256",
          "name": "",
          "type": "uint256"
        }
      ],
      "stateMutability": "view",
      "type": "function"
    },
    {
      "inputs": [],
      "name": "strategist",
      "outputs": [
        {
          "internalType": "address",
          "name": "",
          "type": "address"
        }
      ],
      "stateMutability": "view",
      "type": "function"
    },
    {
      "inputs": [],
      "name": "strategistSignMessageHash",
      "outputs": [
        {
          "internalType": "bytes32",
          "name": "",
          "type": "bytes32"
        }
      ],
      "stateMutability": "view",
      "type": "function"
    },
    {
      "inputs": [
        {
          "internalType": "contract IERC20",
          "name": "_token",
          "type": "address"
        }
      ],
      "name": "sweepToken",
      "outputs": [],
      "stateMutability": "nonpayable",
      "type": "function"
    },
    {
      "inputs": [
        {
          "internalType": "address",
          "name": "newOwner",
          "type": "address"
        }
      ],
      "name": "transferOwnership",
      "outputs": [],
      "stateMutability": "nonpayable",
      "type": "function"
    },
    {
      "inputs": [
        {
          "internalType": "uint16",
          "name": "",
          "type": "uint16"
        }
      ],
      "name": "trustedRemoteLookup",
      "outputs": [
        {
          "internalType": "bytes",
          "name": "",
          "type": "bytes"
        }
      ],
      "stateMutability": "view",
      "type": "function"
    },
    {
      "inputs": [],
      "name": "vault",
      "outputs": [
        {
          "internalType": "address",
          "name": "",
          "type": "address"
        }
      ],
      "stateMutability": "view",
      "type": "function"
    },
    {
      "inputs": [],
      "name": "vaultChainId",
      "outputs": [
        {
          "internalType": "uint16",
          "name": "",
          "type": "uint16"
        }
      ],
      "stateMutability": "view",
      "type": "function"
    },
    {
      "inputs": [],
      "name": "want",
      "outputs": [
        {
          "internalType": "contract IERC20",
          "name": "",
          "type": "address"
        }
      ],
      "stateMutability": "view",
      "type": "function"
    },
    {
      "inputs": [],
      "name": "wantDecimals",
      "outputs": [
        {
          "internalType": "uint8",
          "name": "",
          "type": "uint8"
        }
      ],
      "stateMutability": "view",
      "type": "function"
    },
    {
      "stateMutability": "payable",
      "type": "receive"
    }
  ],
  "bytecode": "0x608060405234801561001057600080fd5b5061598380620000216000396000f3fe60806040526004361061027e5760003560e01c80621d35671461028a5780630517cb76146102ac57806306fdde03146102e257806307e0db17146103305780630df374831461035057806310ddb137146103705780631be19560146103905780631cdb539f146103b05780631f1fcd51146103d05780631fe4a686146103f05780632d6068431461041057806337fded91146104255780633d3ccc2f1461044a5780633d8b38f61461046a5780633e032a3b1461049a5780633f1f4fa4146104be57806342d65a8d146104eb57806345ee07551461050b57806346a7fe8b1461052b578063495f881e1461054b5780635641ec031461056b578063567ad85d14610585578063593178de146105ba5780635b8c41e6146105cf57806366ad5c8a1461061e5780636cbadbfa1461063e578063715018a6146106605780637533d788146106755780638cfd8f5c146106955780638da5cb5b146106cd578063950c8a74146106e25780639606647d146107025780639ec5a894146107175780639f38369a1461072c578063a525a2831461074c578063a6c3d1651461076c578063a87985101461078c578063ab8236f3146107a2578063adf076e6146107c2578063b353aaa7146107f5578063baf3292d14610815578063c1a3d44c14610835578063c44618341461084a578063c7b9d53014610860578063cbed8b9c14610880578063d1deba1f146108a0578063df2a5b3b146108b3578063e73620c3146108d3578063eb8d72b7146108f3578063efbb5cb014610913578063f0fa55a914610928578063f2fde38b14610948578063f42e4cbb14610968578063f5ecbdbc1461097d578063fa5408011461099d578063fbfa77cf146109bd57600080fd5b3661028557005b600080fd5b34801561029657600080fd5b506102aa6102a5366004614732565b6109dd565b005b3480156102b857600080fd5b5060ce546102cc906001600160a01b031681565b6040516102d991906147c5565b60405180910390f35b3480156102ee57600080fd5b5060408051808201909152601c81527b4165726f64726f6d652055534462432f44414920537472617465677960201b60208201525b6040516102d99190614829565b34801561033c57600080fd5b506102aa61034b36600461483c565b610ac6565b34801561035c57600080fd5b506102aa61036b366004614857565b610b33565b34801561037c57600080fd5b506102aa61038b36600461483c565b610b52565b34801561039c57600080fd5b506102aa6103ab366004614896565b610b8e565b3480156103bc57600080fd5b506102aa6103cb3660046148b3565b610c1b565b3480156103dc57600080fd5b5060ca546102cc906001600160a01b031681565b3480156103fc57600080fd5b5060c9546102cc906001600160a01b031681565b34801561041c57600080fd5b506102aa610e25565b34801561043157600080fd5b5060cd546102cc9061010090046001600160a01b031681565b34801561045657600080fd5b506102aa610465366004614958565b610e66565b34801561047657600080fd5b5061048a610485366004614971565b610e9c565b60405190151581526020016102d9565b3480156104a657600080fd5b506104b060cc5481565b6040519081526020016102d9565b3480156104ca57600080fd5b506104b06104d936600461483c565b60686020526000908152604090205481565b3480156104f757600080fd5b506102aa610506366004614971565b610f68565b34801561051757600080fd5b506102aa6105263660046149d1565b610fdb565b34801561053757600080fd5b506104b0610546366004614958565b610ff6565b34801561055757600080fd5b506102aa610566366004614ad9565b6110d7565b34801561057757600080fd5b5060cd5461048a9060ff1681565b34801561059157600080fd5b5060cb546105a790600160a01b900461ffff1681565b60405161ffff90911681526020016102d9565b3480156105c657600080fd5b506104b061137b565b3480156105db57600080fd5b506104b06105ea366004614b3c565b6097602090815260009384526040808520845180860184018051928152908401958401959095209452929052825290205481565b34801561062a57600080fd5b506102aa610639366004614732565b6113d9565b34801561064a57600080fd5b5060cb546105a790600160b01b900461ffff1681565b34801561066c57600080fd5b506102aa6114ad565b34801561068157600080fd5b5061032361069036600461483c565b6114c1565b3480156106a157600080fd5b506104b06106b0366004614b99565b606760209081526000928352604080842090915290825290205481565b3480156106d957600080fd5b506102cc61155b565b3480156106ee57600080fd5b506069546102cc906001600160a01b031681565b34801561070e57600080fd5b506102aa61156a565b34801561072357600080fd5b506104b06115fd565b34801561073857600080fd5b5061032361074736600461483c565b611675565b34801561075857600080fd5b506104b0610767366004614958565b61178b565b34801561077857600080fd5b506102aa610787366004614971565b611957565b34801561079857600080fd5b506104b061264881565b3480156107ae57600080fd5b506102aa6107bd366004614bcc565b6119e0565b3480156107ce57600080fd5b5060cb546107e390600160c01b900460ff1681565b60405160ff90911681526020016102d9565b34801561080157600080fd5b506065546102cc906001600160a01b031681565b34801561082157600080fd5b506102aa610830366004614896565b611ade565b34801561084157600080fd5b506104b0611b31565b34801561085657600080fd5b506104b061271081565b34801561086c57600080fd5b506102aa61087b366004614896565b611b62565b34801561088c57600080fd5b506102aa61089b366004614c66565b611b8c565b6102aa6108ae366004614732565b611bfa565b3480156108bf57600080fd5b506102aa6108ce366004614cd4565b611e10565b3480156108df57600080fd5b506102aa6108ee366004614958565b611ec2565b3480156108ff57600080fd5b506102aa61090e366004614971565b611ee2565b34801561091f57600080fd5b506104b0611f3c565b34801561093457600080fd5b506102aa610943366004614958565b611f70565b34801561095457600080fd5b506102aa610963366004614896565b611f7d565b34801561097457600080fd5b506104b0611ff3565b34801561098957600080fd5b50610323610998366004614d10565b612027565b3480156109a957600080fd5b506104b06109b8366004614958565b6120ba565b3480156109c957600080fd5b5060cb546102cc906001600160a01b031681565b6065546001600160a01b03163314610a485760405162461bcd60e51b815260206004820152602360248201527f4261736553747261746567793a3a496e76616c6964456e64706f696e7443616c6044820152623632b960e91b60648201526084015b60405180910390fd5b610abe8686868080601f01602080910402602001604051908101604052809392919081815260200183838082843760009201919091525050604080516020601f89018190048102820181019092528781528993509150879087908190840183828082843760009201919091525061210c92505050565b505050505050565b610ace612185565b6065546040516307e0db1760e01b815261ffff831660048201526001600160a01b03909116906307e0db17906024015b600060405180830381600087803b158015610b1857600080fd5b505af1158015610b2c573d6000803e3d6000fd5b5050505050565b610b3b612185565b61ffff909116600090815260686020526040902055565b610b5a612185565b6065546040516310ddb13760e01b815261ffff831660048201526001600160a01b03909116906310ddb13790602401610afe565b610b966121e4565b610c1833826001600160a01b03166370a08231306040518263ffffffff1660e01b8152600401610bc691906147c5565b602060405180830381865afa158015610be3573d6000803e3d6000fd5b505050506040513d601f19601f82011682018060405250810190610c079190614d5d565b6001600160a01b038416919061223d565b50565b600054610100900460ff1615808015610c3b5750600054600160ff909116105b80610c5c5750610c4a30612298565b158015610c5c575060005460ff166001145b610cbf5760405162461bcd60e51b815260206004820152602e60248201527f496e697469616c697a61626c653a20636f6e747261637420697320616c72656160448201526d191e481a5b9a5d1a585b1a5e995960921b6064820152608401610a3f565b6000805460ff191660011790558015610ce2576000805461ff0019166101001790555b610cf589898989898989896126486122a7565b610d1e60008051602061588e8339815191526000805160206158ee833981519152600019612486565b610d4d736eab8c1b93f5799dadf2c687a30230a540dbd6366000805160206158ce833981519152600019612486565b610d7c736eab8c1b93f5799dadf2c687a30230a540dbd6366000805160206158ee833981519152600019612486565b610dab73940181a94a35a4569e4529a3cdfb74e38fd986316000805160206158ee833981519152600019612486565b610dd460008051602061590e8339815191526000805160206158ee833981519152600019612486565b8015610e1a576000805461ff0019169055604051600181527f7f26b83ff96e1f2b6a682f133852f6798a09c465da95921460cefb38474024989060200160405180910390a15b505050505050505050565b610e2d6121e4565b60c9546040516001600160a01b03909116904780156108fc02916000818181858888f19350505050158015610c18573d6000803e3d6000fd5b610e6e6121e4565b610e778161258a565b60405181815260008051602061592e833981519152906020015b60405180910390a150565b61ffff831660009081526066602052604081208054829190610ebd90614d76565b80601f0160208091040260200160405190810160405280929190818152602001828054610ee990614d76565b8015610f365780601f10610f0b57610100808354040283529160200191610f36565b820191906000526020600020905b815481529060010190602001808311610f1957829003601f168201915b505050505090508383604051610f4d929190614db0565b60405180910390208180519060200120149150509392505050565b610f70612185565b6065546040516342d65a8d60e01b81526001600160a01b03909116906342d65a8d90610fa490869086908690600401614de9565b600060405180830381600087803b158015610fbe57600080fd5b505af1158015610fd2573d6000803e3d6000fd5b50505050505050565b610fe36121e4565b60cd805460ff1916911515919091179055565b60008160000361100857506000919050565b60405163324b78fb60e21b815260009081906000805160206158ee8339815191529063c92de3ec906110719060008051602061588e8339815191529060008051602061590e833981519152906001906000805160206158ae833981519152908b90600401614e07565b6040805180830381865afa15801561108d573d6000803e3d6000fd5b505050506040513d601f19601f820116820180604052508101906110b19190614e3a565b90925090506110c564e8d4a5100082614e74565b6110cf9083614e96565b949350505050565b6110df6121e4565b6110e8816128ad565b60cd546000908190819060ff16156111945784156111485760405162461bcd60e51b815260206004820152601e60248201527f4261736553747261746567793a3a44656274526174696f4e6f745a65726f00006044820152606401610a3f565b6000611152612933565b90508781101561116d576111668189614ea9565b9250611182565b878111156111825761117f8882614ea9565b93505b61118c8389614ea9565b9150506111a6565b61119e8888612b4e565b919450925090505b60006111b28285614e96565b9050600080888310156111d4576111c9838a614ea9565b9150600090506111e5565b600091506111e28984614ea9565b90505b6000604051806101600160405280306001600160a01b031681526020014281526020018881526020018781526020018681526020018481526020018381526020018b815260200183611235611f3c565b61123f9190614ea9565b815260200160d0600081548092919061125790614ebc565b909155508152602001899052905081156112b75760cb546040516112b291849161ffff600160a01b830416916001600160a01b03169061129e906002908790602001614f0d565b604051602081830303815290604052612c45565b6112e2565b6112e26002826040516020016112ce929190614f0d565b604051602081830303815290604052612d33565b7fb983e09c034e9c52b5e547cb0589967992b97717733f580cc5ad0afcdc4b522b8160400151826060015183608001518460a001518560c001518660e001518761010001516040516113659796959493929190968752602087019590955260408601939093526060850191909152608084015260a083015260c082015260e00190565b60405180910390a1505050505050505050505050565b60d05460cb546040513060601b6001600160601b03191660208201526034810192909252600160b01b900460f01b6001600160f01b031916605482015260009060560160405160208183030381529060405280519060200120905090565b3330146114375760405162461bcd60e51b815260206004820152602660248201527f4e6f6e626c6f636b696e674c7a4170703a2063616c6c6572206d7573742062656044820152650204c7a4170760d41b6064820152608401610a3f565b610abe8686868080601f01602080910402602001604051908101604052809392919081815260200183838082843760009201919091525050604080516020601f890181900481028201810190925287815289935091508790879081908401838280828437600092019190915250612eb392505050565b6114b5612185565b6114bf6000612fc9565b565b606660205260009081526040902080546114da90614d76565b80601f016020809104026020016040519081016040528092919081815260200182805461150690614d76565b80156115535780601f1061152857610100808354040283529160200191611553565b820191906000526020600020905b81548152906001019060200180831161153657829003601f168201915b505050505081565b6033546001600160a01b031690565b6115726121e4565b60ca546040516370a0823160e01b81526114bf916001916001600160a01b03909116906370a08231906115a99030906004016147c5565b602060405180830381865afa1580156115c6573d6000803e3d6000fd5b505050506040513d601f19601f820116820180604052508101906115ea9190614d5d565b60ca546001600160a01b0316919061223d565b6040516246613160e11b81526000906000805160206158ce83398151915290628cc2629061162f9030906004016147c5565b602060405180830381865afa15801561164c573d6000803e3d6000fd5b505050506040513d601f19601f820116820180604052508101906116709190614d5d565b905090565b61ffff811660009081526066602052604081208054606092919061169890614d76565b80601f01602080910402602001604051908101604052809291908181526020018280546116c490614d76565b80156117115780601f106116e657610100808354040283529160200191611711565b820191906000526020600020905b8154815290600101906020018083116116f457829003601f168201915b5050505050905080516000036117695760405162461bcd60e51b815260206004820152601d60248201527f4c7a4170703a206e6f20747275737465642070617468207265636f72640000006044820152606401610a3f565b61178460006014835161177c9190614ea9565b83919061301b565b9392505050565b604080516001808252818301909252600091829190816020015b6117ad61469c565b8152602001906001900390816117a557905050905073940181a94a35a4569e4529a3cdfb74e38fd98631816000815181106117ea576117ea614fc0565b6020026020010151600001906001600160a01b031690816001600160a01b03168152505060008051602061588e8339815191528160008151811061183057611830614fc0565b6020026020010151602001906001600160a01b031690816001600160a01b03168152505060008160008151811061186957611869614fc0565b602002602001015160400190151590811515815250506000805160206158ae833981519152816000815181106118a1576118a1614fc0565b60209081029190910101516001600160a01b03909116606090910152604051631542686b60e21b81526000805160206158ee83398151915290635509a1ac906118f09086908590600401615041565b600060405180830381865afa15801561190d573d6000803e3d6000fd5b505050506040513d6000823e601f3d908101601f19168201604052611935919081019061505a565b60018151811061194757611947614fc0565b6020026020010151915050919050565b61195f612185565b818130604051602001611974939291906150ff565b60408051601f1981840301815291815261ffff851660009081526066602052209061199f908261517b565b507f8c0400cfe2d1199b1a725c78960bcc2a344d869b80590d0f2bd005db15a572ce8383836040516119d393929190614de9565b60405180910390a1505050565b60ce546001600160a01b0316331480611a08575060cd5461010090046001600160a01b031633145b611a535760405162461bcd60e51b815260206004820152601c60248201527b53674272696467653a3a526f757465724f724272696467654f6e6c7960201b6044820152606401610a3f565b6000611a618682601461301b565b604051602001611a719190615234565b604051602081830303815290604052611a8990615250565b6040805185815260609290921c6020830181905292506001600160a01b038616917f92073a89a07a000083eb8b2575fc15e7bb936efe55d00727d6942a796d7211a7910160405180910390a250505050505050565b611ae6612185565b606980546001600160a01b0319166001600160a01b0383161790556040517f5db758e995a17ec1ad84bdef7e8c3293a0bd6179bcce400dff5d4c3d87db726b90610e919083906147c5565b60ca546040516370a0823160e01b81526000916001600160a01b0316906370a082319061162f9030906004016147c5565b611b6a612185565b60c980546001600160a01b0319166001600160a01b0392909216919091179055565b611b94612185565b6065546040516332fb62e760e21b81526001600160a01b039091169063cbed8b9c90611bcc9088908890889088908890600401615287565b600060405180830381600087803b158015611be657600080fd5b505af1158015610e1a573d6000803e3d6000fd5b61ffff86166000908152609760205260408082209051611c1d9088908890614db0565b90815260408051602092819003830190206001600160401b03871660009081529252902054905080611c9d5760405162461bcd60e51b815260206004820152602360248201527f4e6f6e626c6f636b696e674c7a4170703a206e6f2073746f726564206d65737360448201526261676560e81b6064820152608401610a3f565b808383604051611cae929190614db0565b604051809103902014611d0d5760405162461bcd60e51b815260206004820152602160248201527f4e6f6e626c6f636b696e674c7a4170703a20696e76616c6964207061796c6f616044820152601960fa1b6064820152608401610a3f565b61ffff87166000908152609760205260408082209051611d309089908990614db0565b90815260408051602092819003830181206001600160401b038916600090815290845282902093909355601f88018290048202830182019052868252611dc8918991899089908190840183828082843760009201919091525050604080516020601f8a018190048102820181019092528881528a935091508890889081908401838280828437600092019190915250612eb392505050565b7fc264d91f3adc5588250e1551f547752ca0cfa8f6b530d243b9f9f4cab10ea8e58787878785604051611dff9594939291906152b5565b60405180910390a150505050505050565b611e18612185565b60008111611e605760405162461bcd60e51b81526020600482015260156024820152744c7a4170703a20696e76616c6964206d696e47617360581b6044820152606401610a3f565b61ffff83811660008181526067602090815260408083209487168084529482529182902085905581519283528201929092529081018290527f9d5c7c0b934da8fefa9c7760c98383778a12dfbfc0c3b3106518f43fb9508ac0906060016119d3565b611eca612185565b600090815260cf60205260409020805460ff19169055565b611eea612185565b61ffff83166000908152606660205260409020611f088284836152f0565b507ffa41487ad5d6728f0b19276fa1eddc16558578f5109fc39d2dc33c3230470dab8383836040516119d393929190614de9565b6000611f496107676115fd565b611f51611b31565b611f5c610546611ff3565b611f669190614e96565b6116709190614e96565b611f786121e4565b60cc55565b611f85612185565b6001600160a01b038116611fea5760405162461bcd60e51b815260206004820152602660248201527f4f776e61626c653a206e6577206f776e657220697320746865207a65726f206160448201526564647265737360d01b6064820152608401610a3f565b610c1881612fc9565b6040516370a0823160e01b81526000906000805160206158ce833981519152906370a082319061162f9030906004016147c5565b606554604051633d7b2f6f60e21b815261ffff808716600483015285166024820152306044820152606481018390526060916001600160a01b03169063f5ecbdbc90608401600060405180830381865afa158015612089573d6000803e3d6000fd5b505050506040513d6000823e601f3d908101601f191682016040526120b191908101906153a9565b95945050505050565b6040517b0ca2ba3432b932bab69029b4b3b732b21026b2b9b9b0b3b29d05199960211b6020820152603c8101829052600090605c01604051602081830303815290604052805190602001209050919050565b60008061216f5a60966366ad5c8a60e01b898989896040516024016121349493929190615416565b60408051601f198184030181529190526020810180516001600160e01b03166001600160e01b03199093169290921790915230929190613128565b9150915081610abe57610abe86868686856131b4565b3361218e61155b565b6001600160a01b0316146114bf5760405162461bcd60e51b815260206004820181905260248201527f4f776e61626c653a2063616c6c6572206973206e6f7420746865206f776e65726044820152606401610a3f565b60c9546001600160a01b031633146114bf5760405162461bcd60e51b815260206004820152601c60248201527b10985cd954dd1c985d1959de4e8e93db9b1e54dd1c985d1959da5cdd60221b6044820152606401610a3f565b6122938363a9059cbb60e01b848460405160240161225c929190615454565b60408051601f198184030181529190526020810180516001600160e01b03166001600160e01b031990931692909217909152613251565b505050565b6001600160a01b03163b151590565b600054610100900460ff166122ce5760405162461bcd60e51b8152600401610a3f9061546d565b6122d789613326565b60c980546001600160a01b03808b166001600160a01b03199283161790925560ca80548a8416908316811790915560cb8054938a1661ffff8a16600160a01b029093166001600160b01b0319909416939093179190911790915560cc8290556040805163313ce56760e01b8152905163313ce567916004808201926020929091908290030181865afa158015612371573d6000803e3d6000fd5b505050506040513d601f19601f8201168201806040525081019061239591906154b8565b60cb8054600060d05562ffffff60b01b1916600160c01b60ff939093169290920261ffff60b01b191691909117600160b01b61ffff87160217905560cd8054610100600160a81b0319166101006001600160a01b03868116919091029190911790915560ce80546001600160a01b03191684831617905560ca5460405163095ea7b360e01b815291169063095ea7b39061243790869060001990600401615454565b6020604051808303816000875af1158015612456573d6000803e3d6000fd5b505050506040513d601f19601f8201168201806040525081019061247a91906154db565b50505050505050505050565b8015806125005750604051636eb1769f60e11b81523060048201526001600160a01b03838116602483015284169063dd62ed3e90604401602060405180830381865afa1580156124da573d6000803e3d6000fd5b505050506040513d601f19601f820116820180604052508101906124fe9190614d5d565b155b61256b5760405162461bcd60e51b815260206004820152603660248201527f5361666545524332303a20617070726f76652066726f6d206e6f6e2d7a65726f60448201527520746f206e6f6e2d7a65726f20616c6c6f77616e636560501b6064820152608401610a3f565b6122938363095ea7b360e01b848460405160240161225c929190615454565b60cd5460ff16156125985750565b6125a061335e565b60006125aa611b31565b90506000828211156125c3576125c08383614ea9565b90505b8015612293576125d161469c565b60008051602061588e833981519152815260008051602061590e8339815191526020820152600160408201526000805160206158ae833981519152606082015260008061261d84613442565b9150915061262a8161358f565b600061271060cc548461263d91906154f8565b6126479190614e74565b9050600061271060cc548461265c91906154f8565b6126669190614e74565b90506000805160206158ee8339815191526001600160a01b0316635a47ddc360008051602061588e83398151915260008051602061590e83398151915260018860008051602061590e8339815191526001600160a01b03166370a08231306040518263ffffffff1660e01b81526004016126e091906147c5565b602060405180830381865afa1580156126fd573d6000803e3d6000fd5b505050506040513d601f19601f820116820180604052508101906127219190614d5d565b6040516001600160e01b031960e088901b1681526001600160a01b03958616600482015294909316602485015290151560448401526064830152608482015260a4810185905260c481018490523060e482015242610104820152610124016060604051808303816000875af115801561279e573d6000803e3d6000fd5b505050506040513d601f19601f820116820180604052508101906127c2919061550f565b50506040516370a0823160e01b815260009150736eab8c1b93f5799dadf2c687a30230a540dbd636906370a08231906127ff9030906004016147c5565b602060405180830381865afa15801561281c573d6000803e3d6000fd5b505050506040513d601f19601f820116820180604052508101906128409190614d5d565b60405163b6b55f2560e01b8152600481018290529091506000805160206158ce8339815191529063b6b55f2590602401600060405180830381600087803b15801561288a57600080fd5b505af115801561289e573d6000803e3d6000fd5b50505050505050505050505050565b60006128b761137b565b905060006128c4826120ba565b60c9549091506001600160a01b03166128dd8285613775565b6001600160a01b0316146122935760405162461bcd60e51b815260206004820152601e60248201527f4261736553747261746567793a3a496e76616c69645369676e617475726500006044820152606401610a3f565b600061293d61335e565b6000612947611ff3565b604051632e1a7d4d60e01b8152600481018290529091506000805160206158ce83398151915290632e1a7d4d90602401600060405180830381600087803b15801561299157600080fd5b505af11580156129a5573d6000803e3d6000fd5b505050506000806129b58361379b565b60405163037b79b160e21b815291935091506000805160206158ee83398151915290630dede6c490612a169060008051602061588e8339815191529060008051602061590e833981519152906001908990899089903090429060040161553d565b60408051808303816000875af1158015612a34573d6000803e3d6000fd5b505050506040513d601f19601f82011682018060405250810190612a589190614e3a565b50506040516370a0823160e01b8152612ad59060008051602061590e833981519152906370a0823190612a8f9030906004016147c5565b602060405180830381865afa158015612aac573d6000803e3d6000fd5b505050506040513d601f19601f82011682018060405250810190612ad09190614d5d565b613888565b60ca546040516370a0823160e01b81526001600160a01b03909116906370a0823190612b059030906004016147c5565b602060405180830381865afa158015612b22573d6000803e3d6000fd5b505050506040513d601f19601f82011682018060405250810190612b469190614d5d565b935050505090565b600080600080612b5c611f3c565b9050858110612b7a57612b6f8682614ea9565b935060009250612b8b565b60009350612b888187614ea9565b92505b612b9d612b988587614e96565b6139e6565b505060ca546040516370a0823160e01b81526000916001600160a01b0316906370a0823190612bd09030906004016147c5565b602060405180830381865afa158015612bed573d6000803e3d6000fd5b505050506040513d601f19601f82011682018060405250810190612c119190614d5d565b9050848111612c265780945060009250612c3c565b612c39612c338683614ea9565b87613b1b565b92505b50509250925092565b60cd54604051630dc6346160e01b815260009161010090046001600160a01b031690630dc6346190612c7f90879087908790600401615586565b602060405180830381865afa158015612c9c573d6000803e3d6000fd5b505050506040513d601f19601f82011682018060405250810190612cc09190614d5d565b60cd5460ca54604051633920455b60e11b81529293506001600160a01b036101009092048216926372408ab6928592612d06929116908a908a908a908a906004016155b4565b6000604051808303818588803b158015612d1f57600080fd5b505af115801561247a573d6000803e3d6000fd5b60cb5460408051606083811b6001600160601b03199081166020840152309182901b16603483015282516028818403018152604890920190925260655490926000926001600160a01b03909216916340a7bb109161ffff600160a01b90910416908685612d9e613b31565b6040518663ffffffff1660e01b8152600401612dbe9594939291906155f1565b6040805180830381865afa158015612dda573d6000803e3d6000fd5b505050506040513d601f19601f82011682018060405250810190612dfe9190614e3a565b50905080471015612e2a5760405162fae2d560e21b815260048101829052476024820152604401610a3f565b60655460cb546001600160a01b039091169063c5803100908390600160a01b900461ffff1685873080612e5b613b31565b6040518863ffffffff1660e01b8152600401612e7c96959493929190615639565b6000604051808303818588803b158015612e9557600080fd5b505af1158015612ea9573d6000803e3d6000fd5b5050505050505050565b60cb5461ffff858116600160a01b9092041614612f1d5760405162461bcd60e51b815260206004820152602260248201527f4261736553747261746567793a3a5661756c74436861696e49644d69736d61746044820152610c6d60f31b6064820152608401610a3f565b6000612f2b8482601461301b565b604051602001612f3b9190615234565b604051602081830303815290604052612f5390615250565b60cb5460609190911c91506001600160a01b03168114612fc05760405162461bcd60e51b815260206004820152602260248201527f4261736553747261746567793a3a5661756c74416464726573734d69736d61746044820152610c6d60f31b6064820152608401610a3f565b610b2c82613b61565b603380546001600160a01b038381166001600160a01b0319831681179093556040519116919082907f8be0079c531659141344cd1fd0a4f28419497f9722a3daafe3b4186f6b6457e090600090a35050565b60608161302981601f614e96565b10156130685760405162461bcd60e51b815260206004820152600e60248201526d736c6963655f6f766572666c6f7760901b6044820152606401610a3f565b6130728284614e96565b845110156130b65760405162461bcd60e51b8152602060048201526011602482015270736c6963655f6f75744f66426f756e647360781b6044820152606401610a3f565b6060821580156130d5576040519150600082526020820160405261311f565b6040519150601f8416801560200281840101858101878315602002848b0101015b8183101561310e5780518352602092830192016130f6565b5050858452601f01601f1916604052505b50949350505050565b6000606060008060008661ffff166001600160401b0381111561314d5761314d6149ee565b6040519080825280601f01601f191660200182016040528015613177576020820181803683370190505b50905060008087516020890160008d8df191503d925086831115613199578692505b828152826000602083013e9093509150505b94509492505050565b8180519060200120609760008761ffff1661ffff168152602001908152602001600020856040516131e59190615234565b9081526040805191829003602090810183206001600160401b0388166000908152915220919091557fe183f33de2837795525b4792ca4cd60535bd77c53b7e7030060bfcf5734d6b0c9061324290879087908790879087906156a0565b60405180910390a15050505050565b60006132a6826040518060400160405280602081526020017f5361666545524332303a206c6f772d6c6576656c2063616c6c206661696c6564815250856001600160a01b0316613c8e9092919063ffffffff16565b90508051600014806132c75750808060200190518101906132c791906154db565b6122935760405162461bcd60e51b815260206004820152602a60248201527f5361666545524332303a204552433230206f7065726174696f6e20646964206e6044820152691bdd081cdd58d8d9595960b21b6064820152608401610a3f565b600054610100900460ff1661334d5760405162461bcd60e51b8152600401610a3f9061546d565b613355613c9d565b610c1881613ccd565b604051630c00007b60e41b81526000805160206158ce8339815191529063c00007b09061338f9030906004016147c5565b600060405180830381600087803b1580156133a957600080fd5b505af11580156133bd573d6000803e3d6000fd5b50506040516370a0823160e01b81526114bf925073940181a94a35a4569e4529a3cdfb74e38fd9863191506370a08231906133fc9030906004016147c5565b602060405180830381865afa158015613419573d6000803e3d6000fd5b505050506040513d601f19601f8201168201806040525081019061343d9190614d5d565b613d16565b60008080806000805160206158ee83398151915263ce700c2960008051602061588e83398151915260008051602061590e83398151915260016000805160206158ae83398151915261349560028c614e74565b60026134a68d64e8d4a510006154f8565b6134b09190614e74565b6040516001600160e01b031960e089901b1681526001600160a01b0396871660048201529486166024860152921515604485015293166064830152608482019290925260a481019190915260c401606060405180830381865afa15801561351b573d6000803e3d6000fd5b505050506040513d601f19601f8201168201806040525081019061353f919061550f565b50909250905061355464e8d4a5100082614e74565b905060006135628383614e96565b90508061356f84886154f8565b6135799190614e74565b94506135858587614ea9565b9350505050915091565b604080516001808252818301909252600091816020015b6135ae61469c565b8152602001906001900390816135a657905050905060008051602061588e833981519152816000815181106135e5576135e5614fc0565b6020026020010151600001906001600160a01b031690816001600160a01b03168152505060008051602061590e8339815191528160008151811061362b5761362b614fc0565b6020026020010151602001906001600160a01b031690816001600160a01b03168152505060018160008151811061366457613664614fc0565b602002602001015160400190151590811515815250506000805160206158ae8339815191528160008151811061369c5761369c614fc0565b6020026020010151606001906001600160a01b031690816001600160a01b031681525050600061271060cc54846136d391906154f8565b6136dd9190614e74565b6136ec9064e8d4a510006154f8565b60405163cac88ea960e01b81529091506000805160206158ee8339815191529063cac88ea99061372890869085908790309042906004016156f2565b6000604051808303816000875af1158015613747573d6000803e3d6000fd5b505050506040513d6000823e601f3d908101601f1916820160405261376f919081019061505a565b50505050565b60008060006137848585613e73565b9150915061379181613eb8565b5090505b92915050565b60405163324b78fb60e21b815260009081906000805160206158ee8339815191529063c92de3ec906138049060008051602061588e8339815191529060008051602061590e833981519152906001906000805160206158ae833981519152908a90600401614e07565b6040805180830381865afa158015613820573d6000803e3d6000fd5b505050506040513d601f19601f820116820180604052508101906138449190614e3a565b60cc5491935091506127109061385a90846154f8565b6138649190614e74565b915061271060cc548261387791906154f8565b6138819190614e74565b9050915091565b604080516001808252818301909252600091816020015b6138a761469c565b81526020019060019003908161389f57905050905060008051602061590e833981519152816000815181106138de576138de614fc0565b6020026020010151600001906001600160a01b031690816001600160a01b03168152505060008051602061588e8339815191528160008151811061392457613924614fc0565b6020026020010151602001906001600160a01b031690816001600160a01b03168152505060018160008151811061395d5761395d614fc0565b602002602001015160400190151590811515815250506000805160206158ae8339815191528160008151811061399557613995614fc0565b6020026020010151606001906001600160a01b031690816001600160a01b031681525050600064e8d4a5100061271060cc54856139d291906154f8565b6139dc9190614e74565b6136ec9190614e74565b60ca546040516370a0823160e01b8152600091829182916001600160a01b0316906370a0823190613a1b9030906004016147c5565b602060405180830381865afa158015613a38573d6000803e3d6000fd5b505050506040513d601f19601f82011682018060405250810190613a5c9190614d5d565b9050838110613a7057509192600092509050565b613a82613a7d8286614ea9565b613ffd565b60ca546040516370a0823160e01b81526001600160a01b03909116906370a0823190613ab29030906004016147c5565b602060405180830381865afa158015613acf573d6000803e3d6000fd5b505050506040513d601f19601f82011682018060405250810190613af39190614d5d565b905080841115613b1157915081613b0a8185614ea9565b9150613b15565b8392505b50915091565b6000818310613b2a5781611784565b5090919050565b60408051600160f01b6020820152620f424060228083019190915282518083039091018152604290910190915290565b600081806020019051810190613b77919061572e565b90506003816004811115613b8d57613b8d614ed5565b03613be057600082806020019051810190613ba8919061574f565b915050613bb8816000015161258a565b805160405190815260008051602061592e8339815191529060200160405180910390a1505050565b6000816004811115613bf457613bf4614ed5565b03613c1b57600082806020019051810190613c0f9190615792565b91505061229381614056565b6004816004811115613c2f57613c2f614ed5565b03613c8a57600082806020019051810190613c4a91906157fd565b915050613c5a8160000151614180565b80516040517f7c9a2d2ec51230d7dbed27f113a325b7e20aef7b049e68b2339257b5edff5bea916119d3916147c5565b5050565b60606110cf84846000856141bf565b600054610100900460ff16613cc45760405162461bcd60e51b8152600401610a3f9061546d565b6114bf33612fc9565b600054610100900460ff16613cf45760405162461bcd60e51b8152600401610a3f9061546d565b606580546001600160a01b0319166001600160a01b0392909216919091179055565b80600003613d215750565b604080516001808252818301909252600091816020015b613d4061469c565b815260200190600190039081613d3857905050905073940181a94a35a4569e4529a3cdfb74e38fd9863181600081518110613d7d57613d7d614fc0565b6020026020010151600001906001600160a01b031690816001600160a01b03168152505060008051602061588e83398151915281600081518110613dc357613dc3614fc0565b6020026020010151602001906001600160a01b031690816001600160a01b031681525050600081600081518110613dfc57613dfc614fc0565b602002602001015160400190151590811515815250506000805160206158ae83398151915281600081518110613e3457613e34614fc0565b6020026020010151606001906001600160a01b031690816001600160a01b031681525050600061271060cc54613e698561178b565b6139dc91906154f8565b6000808251604103613ea95760208301516040840151606085015160001a613e9d8782858561429a565b94509450505050613eb1565b506000905060025b9250929050565b6000816004811115613ecc57613ecc614ed5565b03613ed45750565b6001816004811115613ee857613ee8614ed5565b03613f305760405162461bcd60e51b815260206004820152601860248201527745434453413a20696e76616c6964207369676e617475726560401b6044820152606401610a3f565b6002816004811115613f4457613f44614ed5565b03613f915760405162461bcd60e51b815260206004820152601f60248201527f45434453413a20696e76616c6964207369676e6174757265206c656e677468006044820152606401610a3f565b6003816004811115613fa557613fa5614ed5565b03610c185760405162461bcd60e51b815260206004820152602260248201527f45434453413a20696e76616c6964207369676e6174757265202773272076616c604482015261756560f01b6064820152608401610a3f565b806000036140085750565b806140146107676115fd565b1061402157610c1861335e565b600061404b614031610546611ff3565b61403c6107676115fd565b6140469085614ea9565b613b1b565b9050613c8a81614351565b602080820151600090815260cf909152604090205460ff16156140bb5760405162461bcd60e51b815260206004820152601e60248201527f4261736553747261746567793a3a416c726561647957697468647261776e00006044820152606401610a3f565b6000806140cb83600001516139e6565b91509150600060016040518060800160405280306001600160a01b03168152602001858152602001848152602001866020015181525060405160200161411292919061584b565b60408051601f19818403018152919052905082156141535760cb5461414e90849061ffff600160a01b820416906001600160a01b031684612c45565b61415c565b61415c81612d33565b505050602090810151600090815260cf90915260409020805460ff19166001179055565b614189816145dc565b60ca546040516370a0823160e01b8152610c189183916001600160a01b03909116906370a08231906115a99030906004016147c5565b6060824710156142205760405162461bcd60e51b815260206004820152602660248201527f416464726573733a20696e73756666696369656e742062616c616e636520666f6044820152651c8818d85b1b60d21b6064820152608401610a3f565b600080866001600160a01b0316858760405161423c9190615234565b60006040518083038185875af1925050503d8060008114614279576040519150601f19603f3d011682016040523d82523d6000602084013e61427e565b606091505b509150915061428f87838387614600565b979650505050505050565b6000806fa2a8918ca85bafe22016d0b997e4df60600160ff1b038311156142c757506000905060036131ab565b6040805160008082526020820180845289905260ff881692820192909252606081018690526080810185905260019060a0016020604051602081039080840390855afa15801561431b573d6000803e3d6000fd5b5050604051601f1901519150506001600160a01b038116614344576000600192509250506131ab565b9660009650945050505050565b61435961335e565b600061436482613442565b506040516370a0823160e01b815290915060009060008051602061588e833981519152906370a08231906143b090736eab8c1b93f5799dadf2c687a30230a540dbd636906004016147c5565b602060405180830381865afa1580156143cd573d6000803e3d6000fd5b505050506040513d601f19601f820116820180604052508101906143f19190614d5d565b736eab8c1b93f5799dadf2c687a30230a540dbd6366001600160a01b03166318160ddd6040518163ffffffff1660e01b8152600401602060405180830381865afa158015614443573d6000803e3d6000fd5b505050506040513d601f19601f820116820180604052508101906144679190614d5d565b61447190846154f8565b61447b9190614e74565b9050614485611ff3565b81111561449757614494611ff3565b90505b604051632e1a7d4d60e01b8152600481018290526000805160206158ce83398151915290632e1a7d4d90602401600060405180830381600087803b1580156144de57600080fd5b505af11580156144f2573d6000803e3d6000fd5b505050506000806145028361379b565b60405163037b79b160e21b815291935091506000805160206158ee83398151915290630dede6c4906145639060008051602061588e8339815191529060008051602061590e833981519152906001908990899089903090429060040161553d565b60408051808303816000875af1158015614581573d6000803e3d6000fd5b505050506040513d601f19601f820116820180604052508101906145a59190614e3a565b50506040516370a0823160e01b8152610b2c9060008051602061590e833981519152906370a0823190612a8f9030906004016147c5565b60006145e6612933565b60ca54909150613c8a906001600160a01b0316838361223d565b6060831561466d5782516000036146665761461a85612298565b6146665760405162461bcd60e51b815260206004820152601d60248201527f416464726573733a2063616c6c20746f206e6f6e2d636f6e74726163740000006044820152606401610a3f565b50816110cf565b6110cf83838151156146825781518083602001fd5b8060405162461bcd60e51b8152600401610a3f9190614829565b60408051608081018252600080825260208201819052918101829052606081019190915290565b803561ffff811681146146d557600080fd5b919050565b60008083601f8401126146ec57600080fd5b5081356001600160401b0381111561470357600080fd5b602083019150836020828501011115613eb157600080fd5b80356001600160401b03811681146146d557600080fd5b6000806000806000806080878903121561474b57600080fd5b614754876146c3565b955060208701356001600160401b038082111561477057600080fd5b61477c8a838b016146da565b909750955085915061479060408a0161471b565b945060608901359150808211156147a657600080fd5b506147b389828a016146da565b979a9699509497509295939492505050565b6001600160a01b0391909116815260200190565b60005b838110156147f45781810151838201526020016147dc565b50506000910152565b600081518084526148158160208601602086016147d9565b601f01601f19169290920160200192915050565b60208152600061178460208301846147fd565b60006020828403121561484e57600080fd5b611784826146c3565b6000806040838503121561486a57600080fd5b614873836146c3565b946020939093013593505050565b6001600160a01b0381168114610c1857600080fd5b6000602082840312156148a857600080fd5b813561178481614881565b600080600080600080600080610100898b0312156148d057600080fd5b88356148db81614881565b975060208901356148eb81614881565b965060408901356148fb81614881565b9550606089013561490b81614881565b945061491960808a016146c3565b935061492760a08a016146c3565b925060c089013561493781614881565b915060e089013561494781614881565b809150509295985092959890939650565b60006020828403121561496a57600080fd5b5035919050565b60008060006040848603121561498657600080fd5b61498f846146c3565b925060208401356001600160401b038111156149aa57600080fd5b6149b6868287016146da565b9497909650939450505050565b8015158114610c1857600080fd5b6000602082840312156149e357600080fd5b8135611784816149c3565b634e487b7160e01b600052604160045260246000fd5b604051602081016001600160401b0381118282101715614a2657614a266149ee565b60405290565b604051601f8201601f191681016001600160401b0381118282101715614a5457614a546149ee565b604052919050565b60006001600160401b03821115614a7557614a756149ee565b50601f01601f191660200190565b600082601f830112614a9457600080fd5b8135614aa7614aa282614a5c565b614a2c565b818152846020838601011115614abc57600080fd5b816020850160208301376000918101602001919091529392505050565b600080600080600060a08688031215614af157600080fd5b8535945060208601359350604086013592506060860135915060808601356001600160401b03811115614b2357600080fd5b614b2f88828901614a83565b9150509295509295909350565b600080600060608486031215614b5157600080fd5b614b5a846146c3565b925060208401356001600160401b03811115614b7557600080fd5b614b8186828701614a83565b925050614b906040850161471b565b90509250925092565b60008060408385031215614bac57600080fd5b614bb5836146c3565b9150614bc3602084016146c3565b90509250929050565b60008060008060008060c08789031215614be557600080fd5b614bee876146c3565b955060208701356001600160401b0380821115614c0a57600080fd5b614c168a838b01614a83565b96506040890135955060608901359150614c2f82614881565b9093506080880135925060a08801359080821115614c4c57600080fd5b50614c5989828a01614a83565b9150509295509295509295565b600080600080600060808688031215614c7e57600080fd5b614c87866146c3565b9450614c95602087016146c3565b93506040860135925060608601356001600160401b03811115614cb757600080fd5b614cc3888289016146da565b969995985093965092949392505050565b600080600060608486031215614ce957600080fd5b614cf2846146c3565b9250614d00602085016146c3565b9150604084013590509250925092565b60008060008060808587031215614d2657600080fd5b614d2f856146c3565b9350614d3d602086016146c3565b92506040850135614d4d81614881565b9396929550929360600135925050565b600060208284031215614d6f57600080fd5b5051919050565b600181811c90821680614d8a57607f821691505b602082108103614daa57634e487b7160e01b600052602260045260246000fd5b50919050565b8183823760009101908152919050565b81835281816020850137506000828201602090810191909152601f909101601f19169091010190565b61ffff841681526040602082015260006120b1604083018486614dc0565b6001600160a01b039586168152938516602085015291151560408401529092166060820152608081019190915260a00190565b60008060408385031215614e4d57600080fd5b505080516020909101519092909150565b634e487b7160e01b600052601160045260246000fd5b600082614e9157634e487b7160e01b600052601260045260246000fd5b500490565b8082018082111561379557613795614e5e565b8181038181111561379557613795614e5e565b600060018201614ece57614ece614e5e565b5060010190565b634e487b7160e01b600052602160045260246000fd5b60058110614f0957634e487b7160e01b600052602160045260246000fd5b9052565b614f178184614eeb565b60406020820152614f346040820183516001600160a01b03169052565b6020820151606082015260408201516080820152606082015160a0820152608082015160c082015260a082015160e0820152600060c0830151610100818185015260e085015191506101208281860152818601519250610140915082828601528086015192505061016082818601528186015192508061018086015250506120b16101a08401826147fd565b634e487b7160e01b600052603260045260246000fd5b600081518084526020808501945080840160005b8381101561503657815180516001600160a01b039081168952848201518116858a01526040808301511515908a0152606091820151169088015260809096019590820190600101614fea565b509495945050505050565b8281526040602082015260006110cf6040830184614fd6565b6000602080838503121561506d57600080fd5b82516001600160401b038082111561508457600080fd5b818501915085601f83011261509857600080fd5b8151818111156150aa576150aa6149ee565b8060051b91506150bb848301614a2c565b81815291830184019184810190888411156150d557600080fd5b938501935b838510156150f3578451825293850193908501906150da565b98975050505050505050565b8284823760609190911b6001600160601b0319169101908152601401919050565b601f82111561229357600081815260208120601f850160051c810160208610156151475750805b601f850160051c820191505b81811015610abe57828155600101615153565b600019600383901b1c191660019190911b1790565b81516001600160401b03811115615194576151946149ee565b6151a8816151a28454614d76565b84615120565b602080601f8311600181146151d757600084156151c55750858301515b6151cf8582615166565b865550610abe565b600085815260208120601f198616915b82811015615206578886015182559484019460019091019084016151e7565b50858210156152245787850151600019600388901b60f8161c191681555b5050505050600190811b01905550565b600082516152468184602087016147d9565b9190910192915050565b805160208201516001600160601b0319808216929190601483101561527f5780818460140360031b1b83161693505b505050919050565b600061ffff80881683528087166020840152508460408301526080606083015261428f608083018486614dc0565b61ffff861681526080602082015260006152d3608083018688614dc0565b6001600160401b0394909416604083015250606001529392505050565b6001600160401b03831115615307576153076149ee565b61531b836153158354614d76565b83615120565b6000601f84116001811461534957600085156153375750838201355b6153418682615166565b845550610b2c565b600083815260209020601f19861690835b8281101561537a578685013582556020948501946001909201910161535a565b50868210156153975760001960f88860031b161c19848701351681555b505060018560011b0183555050505050565b6000602082840312156153bb57600080fd5b81516001600160401b038111156153d157600080fd5b8201601f810184136153e257600080fd5b80516153f0614aa282614a5c565b81815285602083850101111561540557600080fd5b6120b18260208301602086016147d9565b61ffff8516815260806020820152600061543360808301866147fd565b6001600160401b0385166040840152828103606084015261428f81856147fd565b6001600160a01b03929092168252602082015260400190565b6020808252602b908201527f496e697469616c697a61626c653a20636f6e7472616374206973206e6f74206960408201526a6e697469616c697a696e6760a81b606082015260800190565b6000602082840312156154ca57600080fd5b815160ff8116811461178457600080fd5b6000602082840312156154ed57600080fd5b8151611784816149c3565b808202811582820484141761379557613795614e5e565b60008060006060848603121561552457600080fd5b8351925060208401519150604084015190509250925092565b6001600160a01b039889168152968816602088015294151560408701526060860193909352608085019190915260a084015290921660c082015260e08101919091526101000190565b61ffff841681526001600160a01b03831660208201526060604082018190526000906120b1908301846147fd565b6001600160a01b0386811682526020820186905261ffff851660408301528316606082015260a06080820181905260009061428f908301846147fd565b61ffff861681526001600160a01b038516602082015260a06040820181905260009061561f908301866147fd565b841515606084015282810360808401526150f381856147fd565b61ffff8716815260c06020820152600061565660c08301886147fd565b828103604084015261566881886147fd565b6001600160a01b0387811660608601528616608085015283810360a0850152905061569381856147fd565b9998505050505050505050565b61ffff8616815260a0602082015260006156bd60a08301876147fd565b6001600160401b038616604084015282810360608401526156de81866147fd565b905082810360808401526150f381856147fd565b85815284602082015260a06040820152600061571160a0830186614fd6565b6001600160a01b0394909416606083015250608001529392505050565b60006020828403121561574057600080fd5b81516005811061178457600080fd5b600080828403604081121561576357600080fd5b835192506020601f198201121561577957600080fd5b50615782614a04565b6020939093015183525092909150565b60008082840360608112156157a657600080fd5b835192506040601f19820112156157bc57600080fd5b50604080519081016001600160401b03811182821017156157df576157df6149ee565b60409081526020858101518352940151938101939093525092909150565b600080828403604081121561581157600080fd5b835192506020601f198201121561582757600080fd5b50615830614a04565b602084015161583e81614881565b8152919491935090915050565b60a081016158598285614eeb565b60018060a01b038351166020830152602083015160408301526040830151606083015260608301516080830152939250505056fe000000000000000000000000d9aaec86b65d86f6a7b5b1b0c42ffa531710b6ca000000000000000000000000420dd381b31aef6683db6b902084cb0ffece40da000000000000000000000000cf1d5aa63083fda05c7f8871a9fdbfed7ba49060000000000000000000000000cf77a3ba9a5ca399b7c97c74d54e5b1beb874e4300000000000000000000000050c5725949a6f0c72e6c4a641f24049a917db0cbb0c58532a125fc3c0adccaef396bf65344a4d5781cec2e4c593e6b611d75f150a26469706673582212202693df130133eeef23cdaa8f6240a4cb2e810e9d0e067faef4dd67042da68d9e64736f6c63430008130033",
  "linkReferences": {},
  "deployedLinkReferences": {}
}